{
  "address": "0xa09A8e94FBaAC9261af8f34d810D96b923B559D2",
  "abi": [
    {
      "inputs": [],
      "stateMutability": "nonpayable",
      "type": "constructor"
    },
    {
      "inputs": [
        {
          "internalType": "uint256",
          "name": "amount",
          "type": "uint256"
        },
        {
          "internalType": "uint256",
          "name": "assetToLock",
          "type": "uint256"
        }
      ],
      "name": "NotEnoughAssetBalance",
      "type": "error"
    },
    {
      "inputs": [
        {
          "internalType": "uint160",
          "name": "sqrtRatioX96",
          "type": "uint160"
        },
        {
          "internalType": "uint160",
          "name": "sqrtRatioUpperTick",
          "type": "uint160"
        },
        {
          "internalType": "int24",
          "name": "upperTick",
          "type": "int24"
        }
      ],
      "name": "UnappropriateSqrtRatioBeforeSwap",
      "type": "error"
    },
    {
      "anonymous": false,
      "inputs": [
        {
          "indexed": false,
          "internalType": "address",
          "name": "previousAdmin",
          "type": "address"
        },
        {
          "indexed": false,
          "internalType": "address",
          "name": "newAdmin",
          "type": "address"
        }
      ],
      "name": "AdminChanged",
      "type": "event"
    },
    {
      "anonymous": false,
      "inputs": [
        {
          "indexed": true,
          "internalType": "address",
          "name": "beacon",
          "type": "address"
        }
      ],
      "name": "BeaconUpgraded",
      "type": "event"
    },
    {
      "anonymous": false,
      "inputs": [
        {
          "indexed": false,
          "internalType": "uint8",
          "name": "version",
          "type": "uint8"
        }
      ],
      "name": "Initialized",
      "type": "event"
    },
    {
      "anonymous": false,
      "inputs": [
        {
          "indexed": false,
          "internalType": "address",
          "name": "value",
          "type": "address"
        }
      ],
      "name": "PortfolioManagerUpdated",
      "type": "event"
    },
    {
      "anonymous": false,
      "inputs": [
        {
          "indexed": false,
          "internalType": "uint256",
          "name": "amount",
          "type": "uint256"
        }
      ],
      "name": "Reward",
      "type": "event"
    },
    {
      "anonymous": false,
      "inputs": [
        {
          "indexed": true,
          "internalType": "bytes32",
          "name": "role",
          "type": "bytes32"
        },
        {
          "indexed": true,
          "internalType": "bytes32",
          "name": "previousAdminRole",
          "type": "bytes32"
        },
        {
          "indexed": true,
          "internalType": "bytes32",
          "name": "newAdminRole",
          "type": "bytes32"
        }
      ],
      "name": "RoleAdminChanged",
      "type": "event"
    },
    {
      "anonymous": false,
      "inputs": [
        {
          "indexed": true,
          "internalType": "bytes32",
          "name": "role",
          "type": "bytes32"
        },
        {
          "indexed": true,
          "internalType": "address",
          "name": "account",
          "type": "address"
        },
        {
          "indexed": true,
          "internalType": "address",
          "name": "sender",
          "type": "address"
        }
      ],
      "name": "RoleGranted",
      "type": "event"
    },
    {
      "anonymous": false,
      "inputs": [
        {
          "indexed": true,
          "internalType": "bytes32",
          "name": "role",
          "type": "bytes32"
        },
        {
          "indexed": true,
          "internalType": "address",
          "name": "account",
          "type": "address"
        },
        {
          "indexed": true,
          "internalType": "address",
          "name": "sender",
          "type": "address"
        }
      ],
      "name": "RoleRevoked",
      "type": "event"
    },
    {
      "anonymous": false,
      "inputs": [
        {
          "indexed": false,
          "internalType": "uint256",
          "name": "swapSlippageBP",
          "type": "uint256"
        },
        {
          "indexed": false,
          "internalType": "uint256",
          "name": "navSlippageBP",
          "type": "uint256"
        },
        {
          "indexed": false,
          "internalType": "uint256",
          "name": "stakeSlippageBP",
          "type": "uint256"
        }
      ],
      "name": "SlippagesUpdated",
      "type": "event"
    },
    {
      "anonymous": false,
      "inputs": [
        {
          "indexed": false,
          "internalType": "uint256",
          "name": "amount",
          "type": "uint256"
        }
      ],
      "name": "Stake",
      "type": "event"
    },
    {
      "anonymous": false,
      "inputs": [
        {
          "indexed": false,
          "internalType": "uint256",
          "name": "tokenId",
          "type": "uint256"
        }
      ],
      "name": "Staked",
      "type": "event"
    },
    {
      "anonymous": false,
      "inputs": [],
      "name": "StrategyUpdatedParams",
      "type": "event"
    },
    {
      "anonymous": false,
      "inputs": [
        {
          "indexed": false,
          "internalType": "string",
          "name": "message",
          "type": "string"
        }
      ],
      "name": "SwapErrorInternal",
      "type": "event"
    },
    {
      "anonymous": false,
      "inputs": [
        {
          "indexed": false,
          "internalType": "uint256",
          "name": "amount",
          "type": "uint256"
        },
        {
          "indexed": false,
          "internalType": "uint256",
          "name": "amountReceived",
          "type": "uint256"
        }
      ],
      "name": "Unstake",
      "type": "event"
    },
    {
      "anonymous": false,
      "inputs": [
        {
          "indexed": true,
          "internalType": "address",
          "name": "implementation",
          "type": "address"
        }
      ],
      "name": "Upgraded",
      "type": "event"
    },
    {
      "inputs": [],
      "name": "DEFAULT_ADMIN_ROLE",
      "outputs": [
        {
          "internalType": "bytes32",
          "name": "",
          "type": "bytes32"
        }
      ],
      "stateMutability": "view",
      "type": "function"
    },
    {
      "inputs": [
        {
          "internalType": "uint256",
          "name": "",
          "type": "uint256"
        }
      ],
      "name": "DELETED_1",
      "outputs": [
        {
          "internalType": "int24",
          "name": "",
          "type": "int24"
        }
      ],
      "stateMutability": "view",
      "type": "function"
    },
    {
      "inputs": [],
      "name": "PORTFOLIO_AGENT_ROLE",
      "outputs": [
        {
          "internalType": "bytes32",
          "name": "",
          "type": "bytes32"
        }
      ],
      "stateMutability": "view",
      "type": "function"
    },
    {
      "inputs": [],
      "name": "PORTFOLIO_MANAGER",
      "outputs": [
        {
          "internalType": "bytes32",
          "name": "",
          "type": "bytes32"
        }
      ],
      "stateMutability": "view",
      "type": "function"
    },
    {
      "inputs": [],
      "name": "binSearchIterations",
      "outputs": [
        {
          "internalType": "uint256",
          "name": "",
          "type": "uint256"
        }
      ],
      "stateMutability": "view",
      "type": "function"
    },
    {
      "inputs": [
        {
          "internalType": "address",
          "name": "distributor",
          "type": "address"
        },
        {
          "internalType": "address[]",
          "name": "users",
          "type": "address[]"
        },
        {
          "internalType": "address[]",
          "name": "tokens",
          "type": "address[]"
        },
        {
          "internalType": "uint256[]",
          "name": "amounts",
          "type": "uint256[]"
        },
        {
          "internalType": "bytes32[][]",
          "name": "proofs",
          "type": "bytes32[][]"
        }
      ],
      "name": "claimMerkleTreeRewards",
      "outputs": [],
      "stateMutability": "nonpayable",
      "type": "function"
    },
    {
      "inputs": [
        {
          "internalType": "address",
          "name": "_to",
          "type": "address"
        }
      ],
      "name": "claimRewards",
      "outputs": [
        {
          "internalType": "uint256",
          "name": "",
          "type": "uint256"
        }
      ],
      "stateMutability": "nonpayable",
      "type": "function"
    },
    {
      "inputs": [],
      "name": "fnx",
      "outputs": [
        {
          "internalType": "contract IERC20",
          "name": "",
          "type": "address"
        }
      ],
      "stateMutability": "view",
      "type": "function"
    },
    {
      "inputs": [
        {
          "internalType": "bytes32",
          "name": "role",
          "type": "bytes32"
        }
      ],
      "name": "getRoleAdmin",
      "outputs": [
        {
          "internalType": "bytes32",
          "name": "",
          "type": "bytes32"
        }
      ],
      "stateMutability": "view",
      "type": "function"
    },
    {
      "inputs": [
        {
          "internalType": "bytes32",
          "name": "role",
          "type": "bytes32"
        },
        {
          "internalType": "address",
          "name": "account",
          "type": "address"
        }
      ],
      "name": "grantRole",
      "outputs": [],
      "stateMutability": "nonpayable",
      "type": "function"
    },
    {
      "inputs": [
        {
          "internalType": "bytes32",
          "name": "role",
          "type": "bytes32"
        },
        {
          "internalType": "address",
          "name": "account",
          "type": "address"
        }
      ],
      "name": "hasRole",
      "outputs": [
        {
          "internalType": "bool",
          "name": "",
          "type": "bool"
        }
      ],
      "stateMutability": "view",
      "type": "function"
    },
    {
      "inputs": [],
      "name": "initialize",
      "outputs": [],
      "stateMutability": "nonpayable",
      "type": "function"
    },
    {
      "inputs": [],
      "name": "liquidationValue",
      "outputs": [
        {
          "internalType": "uint256",
          "name": "",
          "type": "uint256"
        }
      ],
      "stateMutability": "view",
      "type": "function"
    },
    {
      "inputs": [],
      "name": "lowerTick",
      "outputs": [
        {
          "internalType": "int24",
          "name": "",
          "type": "int24"
        }
      ],
      "stateMutability": "view",
      "type": "function"
    },
    {
      "inputs": [],
      "name": "name",
      "outputs": [
        {
          "internalType": "string",
          "name": "",
          "type": "string"
        }
      ],
      "stateMutability": "view",
      "type": "function"
    },
    {
      "inputs": [],
      "name": "navSlippageBP",
      "outputs": [
        {
          "internalType": "uint256",
          "name": "",
          "type": "uint256"
        }
      ],
      "stateMutability": "view",
      "type": "function"
    },
    {
      "inputs": [],
      "name": "netAssetValue",
      "outputs": [
        {
          "internalType": "uint256",
          "name": "",
          "type": "uint256"
        }
      ],
      "stateMutability": "view",
      "type": "function"
    },
    {
      "inputs": [],
      "name": "npm",
      "outputs": [
        {
          "internalType": "contract INonfungiblePositionManager",
          "name": "",
          "type": "address"
        }
      ],
      "stateMutability": "view",
      "type": "function"
    },
    {
      "inputs": [
        {
          "internalType": "address",
          "name": "",
          "type": "address"
        },
        {
          "internalType": "address",
          "name": "",
          "type": "address"
        },
        {
          "internalType": "uint256",
          "name": "",
          "type": "uint256"
        },
        {
          "internalType": "bytes",
          "name": "",
          "type": "bytes"
        }
      ],
      "name": "onERC721Received",
      "outputs": [
        {
          "internalType": "bytes4",
          "name": "",
          "type": "bytes4"
        }
      ],
      "stateMutability": "pure",
      "type": "function"
    },
    {
      "inputs": [],
      "name": "pool",
      "outputs": [
        {
          "internalType": "contract ICLPool",
          "name": "",
          "type": "address"
        }
      ],
      "stateMutability": "view",
      "type": "function"
    },
    {
      "inputs": [],
      "name": "portfolioManager",
      "outputs": [
        {
          "internalType": "address",
          "name": "",
          "type": "address"
        }
      ],
      "stateMutability": "view",
      "type": "function"
    },
    {
      "inputs": [],
      "name": "proxiableUUID",
      "outputs": [
        {
          "internalType": "bytes32",
          "name": "",
          "type": "bytes32"
        }
      ],
      "stateMutability": "view",
      "type": "function"
    },
    {
      "inputs": [
        {
          "internalType": "bytes32",
          "name": "role",
          "type": "bytes32"
        },
        {
          "internalType": "address",
          "name": "account",
          "type": "address"
        }
      ],
      "name": "renounceRole",
      "outputs": [],
      "stateMutability": "nonpayable",
      "type": "function"
    },
    {
      "inputs": [
        {
          "internalType": "bytes32",
          "name": "role",
          "type": "bytes32"
        },
        {
          "internalType": "address",
          "name": "account",
          "type": "address"
        }
      ],
      "name": "revokeRole",
      "outputs": [],
      "stateMutability": "nonpayable",
      "type": "function"
    },
    {
      "inputs": [],
      "name": "roleManager",
      "outputs": [
        {
          "internalType": "contract IRoleManager",
          "name": "",
          "type": "address"
        }
      ],
      "stateMutability": "view",
      "type": "function"
    },
    {
      "inputs": [
        {
          "components": [
            {
              "internalType": "address",
              "name": "pool",
              "type": "address"
            },
            {
              "internalType": "uint256",
              "name": "binSearchIterations",
              "type": "uint256"
            },
            {
              "internalType": "address",
              "name": "swapSimulatorAddress",
              "type": "address"
            },
            {
              "internalType": "address",
              "name": "npmAddress",
              "type": "address"
            },
            {
              "internalType": "int24",
              "name": "lowerTick",
              "type": "int24"
            },
            {
              "internalType": "int24",
              "name": "upperTick",
              "type": "int24"
            },
            {
              "internalType": "address",
              "name": "fnxTokenAddress",
              "type": "address"
            },
            {
              "internalType": "address",
              "name": "poolFnxUsdb",
              "type": "address"
            },
            {
              "internalType": "uint256",
              "name": "rewardSwapSlippageBP",
              "type": "uint256"
            },
            {
              "internalType": "uint256",
              "name": "liquidityDecreaseDeviationBP",
              "type": "uint256"
            }
          ],
          "internalType": "struct StrategyFenixSwap.StrategyParams",
          "name": "params",
          "type": "tuple"
        }
      ],
      "name": "setParams",
      "outputs": [],
      "stateMutability": "nonpayable",
      "type": "function"
    },
    {
      "inputs": [
        {
          "internalType": "uint256",
          "name": "_swapSlippageBP",
          "type": "uint256"
        },
        {
          "internalType": "uint256",
          "name": "_navSlippageBP",
          "type": "uint256"
        },
        {
          "internalType": "uint256",
          "name": "_stakeSlippageBP",
          "type": "uint256"
        }
      ],
      "name": "setSlippages",
      "outputs": [],
      "stateMutability": "nonpayable",
      "type": "function"
    },
    {
      "inputs": [
        {
          "internalType": "string",
          "name": "_name",
          "type": "string"
        }
      ],
      "name": "setStrategyName",
      "outputs": [],
      "stateMutability": "nonpayable",
      "type": "function"
    },
    {
      "inputs": [
        {
          "internalType": "address",
          "name": "_portfolioManager",
          "type": "address"
        },
        {
          "internalType": "address",
          "name": "_roleManager",
          "type": "address"
        }
      ],
      "name": "setStrategyParams",
      "outputs": [],
      "stateMutability": "nonpayable",
      "type": "function"
    },
    {
      "inputs": [
        {
          "internalType": "address",
          "name": "_asset",
          "type": "address"
        },
        {
          "internalType": "uint256",
          "name": "_amount",
          "type": "uint256"
        }
      ],
      "name": "stake",
      "outputs": [],
      "stateMutability": "nonpayable",
      "type": "function"
    },
    {
      "inputs": [],
      "name": "stakeSlippageBP",
      "outputs": [
        {
          "internalType": "uint256",
          "name": "",
          "type": "uint256"
        }
      ],
      "stateMutability": "view",
      "type": "function"
    },
    {
      "inputs": [
        {
          "internalType": "bytes4",
          "name": "interfaceId",
          "type": "bytes4"
        }
      ],
      "name": "supportsInterface",
      "outputs": [
        {
          "internalType": "bool",
          "name": "",
          "type": "bool"
        }
      ],
      "stateMutability": "view",
      "type": "function"
    },
    {
      "inputs": [],
      "name": "swapSimulator",
      "outputs": [
        {
          "internalType": "contract ISwapSimulator",
          "name": "",
          "type": "address"
        }
      ],
      "stateMutability": "view",
      "type": "function"
    },
    {
      "inputs": [],
      "name": "swapSlippageBP",
      "outputs": [
        {
          "internalType": "uint256",
          "name": "",
          "type": "uint256"
        }
      ],
      "stateMutability": "view",
      "type": "function"
    },
    {
      "inputs": [],
      "name": "tokenLP",
      "outputs": [
        {
          "internalType": "uint256",
          "name": "",
          "type": "uint256"
        }
      ],
      "stateMutability": "view",
      "type": "function"
    },
    {
      "inputs": [
        {
          "internalType": "address",
          "name": "_asset",
          "type": "address"
        },
        {
          "internalType": "uint256",
          "name": "_amount",
          "type": "uint256"
        },
        {
          "internalType": "address",
          "name": "_beneficiary",
          "type": "address"
        },
        {
          "internalType": "bool",
          "name": "_targetIsZero",
          "type": "bool"
        }
      ],
      "name": "unstake",
      "outputs": [
        {
          "internalType": "uint256",
          "name": "",
          "type": "uint256"
        }
      ],
      "stateMutability": "nonpayable",
      "type": "function"
    },
    {
      "inputs": [
        {
          "internalType": "address",
          "name": "newImplementation",
          "type": "address"
        }
      ],
      "name": "upgradeTo",
      "outputs": [],
      "stateMutability": "nonpayable",
      "type": "function"
    },
    {
      "inputs": [
        {
          "internalType": "address",
          "name": "newImplementation",
          "type": "address"
        },
        {
          "internalType": "bytes",
          "name": "data",
          "type": "bytes"
        }
      ],
      "name": "upgradeToAndCall",
      "outputs": [],
      "stateMutability": "payable",
      "type": "function"
    },
    {
      "inputs": [],
      "name": "upperTick",
      "outputs": [
        {
          "internalType": "int24",
          "name": "",
          "type": "int24"
        }
      ],
      "stateMutability": "view",
      "type": "function"
    },
    {
      "inputs": [],
      "name": "usdPlus",
      "outputs": [
        {
          "internalType": "contract IERC20",
          "name": "",
          "type": "address"
        }
      ],
      "stateMutability": "view",
      "type": "function"
    },
    {
      "inputs": [],
      "name": "usdb",
      "outputs": [
        {
          "internalType": "contract IERC20",
          "name": "",
          "type": "address"
        }
      ],
      "stateMutability": "view",
      "type": "function"
    }
  ],
  "numDeployments": 206,
  "solcInputHash": "04e08e5f85e5ba96d64f4c09c84f98ad",
  "bytecode": "0x60a0604052306080523480156200001557600080fd5b50600054610100900460ff1615808015620000375750600054600160ff909116105b8062000067575062000054306200014160201b62001c221760201c565b15801562000067575060005460ff166001145b620000cf5760405162461bcd60e51b815260206004820152602e60248201527f496e697469616c697a61626c653a20636f6e747261637420697320616c72656160448201526d191e481a5b9a5d1a585b1a5e995960921b606482015260840160405180910390fd5b6000805460ff191660011790558015620000f3576000805461ff0019166101001790555b80156200013a576000805461ff0019169055604051600181527f7f26b83ff96e1f2b6a682f133852f6798a09c465da95921460cefb38474024989060200160405180910390a15b5062000150565b6001600160a01b03163b151590565b608051615ba462000188600039600081816109050152818161094501528181610fc401528181611004015261107c0152615ba46000f3fe6080604052600436106102445760003560e01c806360e45b0411610139578063a016b2cd116100b6578063bf52e0801161007a578063bf52e080146106c2578063d547741f146106d8578063ef5cfb8c146106f8578063f6f6b88114610718578063fcb777ef14610738578063feb187891461075957600080fd5b8063a016b2cd1461064d578063a217fddf1461066d578063a3673b38146103ac578063adc9772e14610682578063ae30c110146106a257600080fd5b80637d5f5802116100fd5780637d5f5802146105a85780637f1e9ef6146105dc5780638129fc1c146105fd57806391d14854146106125780639b1344ac1461063257600080fd5b806360e45b04146104f2578063620b75df14610512578063657329b114610532578063727dd228146105535780637bc4569a1461058857600080fd5b80632f2ff15d116101c7578063514e460a1161018b578063514e460a1461046d57806352d1902d1461048e5780635536fc70146104a35780635ca558f8146104ba5780635dbd733a146104d057600080fd5b80632f2ff15d146103d857806336568abe146103fa5780633659cfe61461041a57806340ec52041461043a5780634f1ef2861461045a57600080fd5b8063150b7a021161020e578063150b7a021461031657806316f0115b1461035b578063248a9ca31461037c5780632576e65a146103ac57806328ffce26146103c157600080fd5b8062435da5146102495780626f7d001461027f57806301ffc9a7146102a057806306fdde03146102d0578063119cd879146102f2575b600080fd5b34801561025557600080fd5b5060ff54610269906001600160a01b031681565b6040516102769190614af0565b60405180910390f35b34801561028b57600080fd5b5061012d54610269906001600160a01b031681565b3480156102ac57600080fd5b506102c06102bb366004614b04565b610779565b6040519015158152602001610276565b3480156102dc57600080fd5b506102e56107b0565b6040516102769190614b7e565b3480156102fe57600080fd5b5061030860fd5481565b604051908152602001610276565b34801561032257600080fd5b50610342610331366004614ba6565b630a85bd0160e11b95945050505050565b6040516001600160e01b03199091168152602001610276565b34801561036757600080fd5b5061013754610269906001600160a01b031681565b34801561038857600080fd5b50610308610397366004614c44565b60009081526065602052604090206001015490565b3480156103b857600080fd5b5061030861083f565b3480156103cd57600080fd5b506103086101315481565b3480156103e457600080fd5b506103f86103f3366004614c5d565b61084e565b005b34801561040657600080fd5b506103f8610415366004614c5d565b610878565b34801561042657600080fd5b506103f8610435366004614c8d565b6108fb565b34801561044657600080fd5b506103f8610455366004614cf5565b6109c3565b6103f8610468366004614e6c565b610fba565b34801561047957600080fd5b5061012e54610269906001600160a01b031681565b34801561049a57600080fd5b5061030861106f565b3480156104af57600080fd5b5061030861013a5481565b3480156104c657600080fd5b5061030860fe5481565b3480156104dc57600080fd5b50610308600080516020615b0883398151915281565b3480156104fe57600080fd5b506103f861050d366004614ecf565b61111e565b34801561051e57600080fd5b5060fb54610269906001600160a01b031681565b34801561053e57600080fd5b5061012f54610269906001600160a01b031681565b34801561055f57600080fd5b5061013b54610575906301000000900460020b81565b60405160029190910b8152602001610276565b34801561059457600080fd5b506105756105a3366004614c44565b6111bf565b3480156105b457600080fd5b506103087f90c2aa7471c04182221f68e80c07ab1e5946e4c63f8693e14ca40385d529f05181565b3480156105e857600080fd5b5061013854610269906001600160a01b031681565b34801561060957600080fd5b506103f86111f7565b34801561061e57600080fd5b506102c061062d366004614c5d565b6112c8565b34801561063e57600080fd5b5061013b546105759060020b81565b34801561065957600080fd5b506103f8610668366004614efd565b6112f3565b34801561067957600080fd5b50610308600081565b34801561068e57600080fd5b506103f861069d366004614f45565b61139c565b3480156106ae57600080fd5b506103f86106bd366004614f71565b611567565b3480156106ce57600080fd5b5061030860fc5481565b3480156106e457600080fd5b506103f86106f3366004614c5d565b611650565b34801561070457600080fd5b50610308610713366004614c8d565b611675565b34801561072457600080fd5b50610308610733366004614fab565b6116f1565b34801561074457600080fd5b5061013954610269906001600160a01b031681565b34801561076557600080fd5b506103f8610774366004614ffe565b61195f565b60006001600160e01b03198216637965db0b60e01b14806107aa57506301ffc9a760e01b6001600160e01b03198316145b92915050565b61010080546107be90615017565b80601f01602080910402602001604051908101604052809291908181526020018280546107ea90615017565b80156108375780601f1061080c57610100808354040283529160200191610837565b820191906000526020600020905b81548152906001019060200180831161081a57829003601f168201915b505050505081565b6000610849611c31565b905090565b60008281526065602052604090206001015461086981611e88565b6108738383611e92565b505050565b6001600160a01b03811633146108ed5760405162461bcd60e51b815260206004820152602f60248201527f416363657373436f6e74726f6c3a2063616e206f6e6c792072656e6f756e636560448201526e103937b632b9903337b91039b2b63360891b60648201526084015b60405180910390fd5b6108f78282611f18565b5050565b6001600160a01b037f00000000000000000000000000000000000000000000000000000000000000001630036109435760405162461bcd60e51b81526004016108e49061504b565b7f00000000000000000000000000000000000000000000000000000000000000006001600160a01b0316610975611f7f565b6001600160a01b03161461099b5760405162461bcd60e51b81526004016108e490615097565b6109a481611f9b565b604080516000808252602082019092526109c091839190611fa6565b50565b604080518082018252600c81526b023272c103132b337b9329d160a51b602082015261012f5491516370a0823160e01b8152610a5d926001600160a01b0316906370a0823190610a17903090600401614af0565b602060405180830381865afa158015610a34573d6000803e3d6000fd5b505050506040513d601f19601f82011682018060405250810190610a5891906150e3565b612111565b610a8d6040518060400160405280600c81526020016b02a2b26103132b337b9329d160a51b815250610a58611c31565b6040516301c7ba5760e61b81526001600160a01b038a16906371ee95c090610ac7908b908b908b908b908b908b908b908b90600401615177565b600060405180830381600087803b158015610ae157600080fd5b505af1158015610af5573d6000803e3d6000fd5b505061012e546040516370a0823160e01b8152600093506001600160a01b0390911691506370a0823190610b2d903090600401614af0565b602060405180830381865afa158015610b4a573d6000803e3d6000fd5b505050506040513d601f19601f82011682018060405250810190610b6e91906150e3565b90508015610ce45761012e546101395460405163a9059cbb60e01b81526001600160a01b039283169263a9059cbb92610bae929116908590600401615257565b6020604051808303816000875af1158015610bcd573d6000803e3d6000fd5b505050506040513d601f19601f82011682018060405250810190610bf19190615270565b50610139546101375461013b546001600160a01b039283169263e25d44d19216908490610c27906301000000900460020b612156565b60006040518563ffffffff1660e01b8152600401610c48949392919061528d565b600060405180830381600087803b158015610c6257600080fd5b505af1158015610c76573d6000803e3d6000fd5b50506101395461013754604051630fa09e6360e41b81526001600160a01b03928316945063fa09e6309350610cb19290911690600401614af0565b600060405180830381600087803b158015610ccb57600080fd5b505af1158015610cdf573d6000803e3d6000fd5b505050505b61012f546040516370a0823160e01b81526000916001600160a01b0316906370a0823190610d16903090600401614af0565b602060405180830381865afa158015610d33573d6000803e3d6000fd5b505050506040513d601f19601f82011682018060405250810190610d5791906150e3565b9050610d876040518060400160405280600c81526020016b023272c103132b337b9329d160a51b81525082612111565b8015610f655761013354604080516339db007960e21b815290516000926001600160a01b03169163e76c01e49160048083019260c09291908290030181865afa158015610dd8573d6000803e3d6000fd5b505050506040513d601f19601f82011682018060405250810190610dfc91906152e3565b505061012f546101395460405163a9059cbb60e01b81529596506001600160a01b039182169563a9059cbb9550610e3c9450911691508690600401615257565b6020604051808303816000875af1158015610e5b573d6000803e3d6000fd5b505050506040513d601f19601f82011682018060405250810190610e7f9190615270565b5061013954610133546001600160a01b039182169163e25d44d1911684610ea7856000612521565b60006040518563ffffffff1660e01b8152600401610ec8949392919061528d565b600060405180830381600087803b158015610ee257600080fd5b505af1158015610ef6573d6000803e3d6000fd5b50506101395461013354604051630fa09e6360e41b81526001600160a01b03928316945063fa09e6309350610f319290911690600401614af0565b600060405180830381600087803b158015610f4b57600080fd5b505af1158015610f5f573d6000803e3d6000fd5b50505050505b61012d54610f7d906001600160a01b03166000612574565b610fad6040518060400160405280600c81526020016b02a2b261030b33a32b91d10160a51b815250610a58611c31565b5050505050505050505050565b6001600160a01b037f00000000000000000000000000000000000000000000000000000000000000001630036110025760405162461bcd60e51b81526004016108e49061504b565b7f00000000000000000000000000000000000000000000000000000000000000006001600160a01b0316611034611f7f565b6001600160a01b03161461105a5760405162461bcd60e51b81526004016108e490615097565b61106382611f9b565b6108f782826001611fa6565b6000306001600160a01b037f0000000000000000000000000000000000000000000000000000000000000000161461110a5760405162461bcd60e51b815260206004820152603860248201527f555550535570677261646561626c653a206d757374206e6f742062652063616c6044820152771b1959081d1a1c9bdd59da0819195b1959d85d1958d85b1b60421b60648201526084016108e4565b50600080516020615b288339815191525b90565b6111296000336112c8565b6111455760405162461bcd60e51b81526004016108e490615368565b6001600160a01b03821661116b5760405162461bcd60e51b81526004016108e490615396565b6001600160a01b0381166111915760405162461bcd60e51b81526004016108e490615396565b60fb80546001600160a01b039384166001600160a01b03199182161790915560ff8054929093169116179055565b61013081815481106111d057600080fd5b90600052602060002090600a9182820401919006600302915054906101000a900460020b81565b600054610100900460ff16158080156112175750600054600160ff909116105b80611238575061122630611c22565b158015611238575060005460ff166001145b6112545760405162461bcd60e51b81526004016108e4906153c8565b6000805460ff191660011790558015611277576000805461ff0019166101001790555b61127f612580565b80156109c0576000805461ff0019169055604051600181527f7f26b83ff96e1f2b6a682f133852f6798a09c465da95921460cefb3847402498906020015b60405180910390a150565b60009182526065602090815260408084206001600160a01b0393909316845291905290205460ff1690565b60ff54604051632474521560e21b8152600080516020615b0883398151915260048201523360248201526001600160a01b03909116906391d1485490604401602060405180830381865afa15801561134f573d6000803e3d6000fd5b505050506040513d601f19601f820116820180604052508101906113739190615270565b61138f5760405162461bcd60e51b81526004016108e490615416565b6101006108f78282615493565b60fb546001600160a01b031633146113c65760405162461bcd60e51b81526004016108e490615552565b6000611435306001600160a01b031663a3673b386040518163ffffffff1660e01b8152600401602060405180830381865afa158015611409573d6000803e3d6000fd5b505050506040513d601f19601f8201168201806040525081019061142d91906150e3565b60fd5461266c565b90506114ad83846001600160a01b03166370a08231306040518263ffffffff1660e01b81526004016114679190614af0565b602060405180830381865afa158015611484573d6000803e3d6000fd5b505050506040513d601f19601f820116820180604052508101906114a891906150e3565b612574565b80306001600160a01b031663a3673b386040518163ffffffff1660e01b8152600401602060405180830381865afa1580156114ec573d6000803e3d6000fd5b505050506040513d601f19601f8201168201806040525081019061151091906150e3565b101561152e5760405162461bcd60e51b81526004016108e490615589565b6040518281527f227a473b70d2f893cc7659219575c030a63b5743024fe1e0c1a680e708b1525a906020015b60405180910390a1505050565b60ff54604051632474521560e21b8152600080516020615b0883398151915260048201523360248201526001600160a01b03909116906391d1485490604401602060405180830381865afa1580156115c3573d6000803e3d6000fd5b505050506040513d601f19601f820116820180604052508101906115e79190615270565b6116035760405162461bcd60e51b81526004016108e490615416565b60fc83905560fd82905560fe81905560408051848152602081018490529081018290527f116fbf1e97a2be629ad98abfb6c332733c8996c2dfb174dd2efe8440df381d1a9060600161155a565b60008281526065602052604090206001015461166b81611e88565b6108738383611f18565b60fb546000906001600160a01b031633146116a25760405162461bcd60e51b81526004016108e490615552565b60006116ad83612696565b905080156116e9576040518181527f3ac0594a85a20354f9dc74f33728416d19ce00d04a406c108cc2dcf2cecea1349060200160405180910390a15b90505b919050565b60fb546000906001600160a01b0316331461171e5760405162461bcd60e51b81526004016108e490615552565b6000611761306001600160a01b031663a3673b386040518163ffffffff1660e01b8152600401602060405180830381865afa158015611409573d6000803e3d6000fd5b905060008084156117885761177586612696565b905061178188876126d3565b91506117ec565b6000915086156117ec5760405162461bcd60e51b815260206004820152602960248201527f52657475726e65642076616c7565206c657373207468616e2072657175657374604482015268195908185b5bdd5b9d60ba1b60648201526084016108e4565b82306001600160a01b031663a3673b386040518163ffffffff1660e01b8152600401602060405180830381865afa15801561182b573d6000803e3d6000fd5b505050506040513d601f19601f8201168201806040525081019061184f91906150e3565b101561186d5760405162461bcd60e51b81526004016108e490615589565b60405163a9059cbb60e01b81526001600160a01b0389169063a9059cbb9061189b9089908690600401615257565b6020604051808303816000875af11580156118ba573d6000803e3d6000fd5b505050506040513d601f19601f820116820180604052508101906118de9190615270565b5060408051888152602081018490527f9045c2ac9b2026de8075f2701bbdde882cd5e830b3b1ead9a15b22f2b5b93742910160405180910390a18015611952576040518181527f3ac0594a85a20354f9dc74f33728416d19ce00d04a406c108cc2dcf2cecea1349060200160405180910390a15b509150505b949350505050565b61196a6000336112c8565b6119865760405162461bcd60e51b81526004016108e490615368565b6119936020820182614c8d565b61013780546001600160a01b0319166001600160a01b0392909216918217905560408051630dfe168160e01b81529051630dfe1681916004808201926020929091908290030181865afa1580156119ee573d6000803e3d6000fd5b505050506040513d601f19601f82011682018060405250810190611a1291906155cb565b61012d80546001600160a01b0319166001600160a01b03928316179055610137546040805163d21220a760e01b81529051919092169163d21220a79160048083019260209291908290030181865afa158015611a72573d6000803e3d6000fd5b505050506040513d601f19601f82011682018060405250810190611a9691906155cb565b61012e80546001600160a01b0319166001600160a01b0392909216919091179055611ac760e0820160c08301614c8d565b61012f80546001600160a01b0319166001600160a01b0392909216919091179055611af86060820160408301614c8d565b61013980546001600160a01b0319166001600160a01b0392909216919091179055611b296080820160608301614c8d565b61013880546001600160a01b0319166001600160a01b03929092169190911790556101008101356101345561012081013561013c55602081013561013155611b7760a08201608083016155e8565b61013b805462ffffff191662ffffff92909216919091179055611ba060c0820160a083016155e8565b61013b805462ffffff9290921663010000000265ffffff00000019909216919091179055611bd5610100820160e08301614c8d565b61013380546001600160a01b0319166001600160a01b03929092169190911790556040517fea5646eb3528e525944447a4a97de700dd472298626e5c0481d1c82c3da86ea590600090a150565b6001600160a01b03163b151590565b61013a546000908190819015611d7f5761013754604080516339db007960e21b815290516000926001600160a01b03169163e76c01e49160048083019260c09291908290030181865afa158015611c8c573d6000803e3d6000fd5b505050506040513d601f19601f82011682018060405250810190611cb091906152e3565b50506101385461013a5460405163133f757160e31b81529596506000956001600160a01b0390921694506399fbab889350611cf392509060040190815260200190565b61016060405180830381865afa158015611d11573d6000803e3d6000fd5b505050506040513d601f19601f82011682018060405250810190611d35919061561c565b505061013b54929950611d7798508a9750611d5a9650505060020b9250612156915050565b61013b54611d71906301000000900460020b612156565b846127f2565b909450925050505b61012e546040516370a0823160e01b81526001600160a01b03909116906370a0823190611db0903090600401614af0565b602060405180830381865afa158015611dcd573d6000803e3d6000fd5b505050506040513d601f19601f82011682018060405250810190611df191906150e3565b61012d546040516370a0823160e01b81526001600160a01b03909116906370a0823190611e22903090600401614af0565b602060405180830381865afa158015611e3f573d6000803e3d6000fd5b505050506040513d601f19601f82011682018060405250810190611e6391906150e3565b611e6d8385615708565b611e779190615708565b611e819190615708565b9250505090565b6109c0813361288e565b611e9c82826112c8565b6108f75760008281526065602090815260408083206001600160a01b03851684529091529020805460ff19166001179055611ed43390565b6001600160a01b0316816001600160a01b0316837f2f8788117e7eff1d82e926ec794901d17c78024a50270940304540a733656f0d60405160405180910390a45050565b611f2282826112c8565b156108f75760008281526065602090815260408083206001600160a01b0385168085529252808320805460ff1916905551339285917ff6391f5c32d9c69d2a47ea670b442974b53935d1edc7fd64eb21e047a839171b9190a45050565b600080516020615b28833981519152546001600160a01b031690565b60006108f781611e88565b7f4910fdfa16fed3260ed0e7147f7cc6da11a60208b5b9406d12a635614ffd91435460ff1615611fd957610873836128e7565b826001600160a01b03166352d1902d6040518163ffffffff1660e01b8152600401602060405180830381865afa925050508015612033575060408051601f3d908101601f19168201909252612030918101906150e3565b60015b6120965760405162461bcd60e51b815260206004820152602e60248201527f45524331393637557067726164653a206e657720696d706c656d656e7461746960448201526d6f6e206973206e6f74205555505360901b60648201526084016108e4565b600080516020615b2883398151915281146121055760405162461bcd60e51b815260206004820152602960248201527f45524331393637557067726164653a20756e737570706f727465642070726f786044820152681a58589b195555525160ba1b60648201526084016108e4565b50610873838383612981565b6108f7828260405160240161212792919061571b565b60408051601f198184030181529190526020810180516001600160e01b0316632d839cb360e21b1790526129ac565b60008060008360020b1261216d578260020b61217a565b8260020b61217a9061573d565b905060008160011660000361219357600160801b6121a5565b6ffffcb933bd6fad37aa2d162d1a5940015b6001600160881b0316905060028216156121da5760806121d5826ffff97272373d413259a46990580e213a615759565b901c90505b60048216156122045760806121ff826ffff2e50f5f656932ef12357cf3c7fdcc615759565b901c90505b600882161561222e576080612229826fffe5caca7e10e4e61c3624eaa0941cd0615759565b901c90505b6010821615612258576080612253826fffcb9843d60f6159c9db58835c926644615759565b901c90505b602082161561228257608061227d826fff973b41fa98c081472e6896dfb254c0615759565b901c90505b60408216156122ac5760806122a7826fff2ea16466c96a3843ec78b326b52861615759565b901c90505b60808216156122d65760806122d1826ffe5dee046a99a2a811c461f1969c3053615759565b901c90505b6101008216156123015760806122fc826ffcbe86c7900a88aedcffc83b479aa3a4615759565b901c90505b61020082161561232c576080612327826ff987a7253ac413176f2b074cf7815e54615759565b901c90505b610400821615612357576080612352826ff3392b0822b70005940c7a398e4b70f3615759565b901c90505b61080082161561238257608061237d826fe7159475a2c29b7443b29c7fa6e889d9615759565b901c90505b6110008216156123ad5760806123a8826fd097f3bdfd2022b8845ad8f792aa5825615759565b901c90505b6120008216156123d85760806123d3826fa9f746462d870fdf8a65dc1f90e061e5615759565b901c90505b6140008216156124035760806123fe826f70d869a156d2a1b890bb3df62baf32f7615759565b901c90505b61800082161561242e576080612429826f31be135f97d08fd981231505542fcfa6615759565b901c90505b6201000082161561245a576080612455826f09aa508b5b7a84e1c677de54f3e99bc9615759565b901c90505b62020000821615612485576080612480826e5d6af8dedb81196699c329225ee604615759565b901c90505b620400008216156124af5760806124aa826d2216e584f5fa1ea926041bedfe98615759565b901c90505b620800008216156124d75760806124d2826b048a170391f7dc42444e8fa2615759565b901c90505b60008460020b13156124f2576124ef81600019615786565b90505b6125016401000000008261579a565b1561250d576001612510565b60005b6119579060ff16602083901c615708565b600081156125565761254f836001600160a01b03166101345461271061254791906157ae565b6127106129b5565b90506107aa565b61254f836001600160a01b0316610134546127106125479190615708565b6108f760006001612a63565b600054610100900460ff16158080156125a05750600054600160ff909116105b806125c157506125af30611c22565b1580156125c1575060005460ff166001145b6125dd5760405162461bcd60e51b81526004016108e4906153c8565b6000805460ff191660011790558015612600576000805461ff0019166101001790555b6126086132dd565b6126106132dd565b61261b600033611e92565b601460fc81905560fd55600460fe5580156109c0576000805461ff0019169055604051600181527f7f26b83ff96e1f2b6a682f133852f6798a09c465da95921460cefb3847402498906020016112bd565b600061271061267b83826157ae565b6126859085615759565b61268f9190615786565b9392505050565b60405162461bcd60e51b815260206004820152600f60248201526e139bdd081a5b5c1b195b595b9d1959608a1b60448201526000906064016108e4565b61012d546000906001600160a01b038481169116146127345760405162461bcd60e51b815260206004820152601e60248201527f536f6d6520746f6b656e7320617265206e6f7420636f6d70617469626c65000060448201526064016108e4565b61013a546000036127745760405162461bcd60e51b815260206004820152600a602482015269139bdd081cdd185ad95960b21b60448201526064016108e4565b6127806000600161334a565b61012d546040516370a0823160e01b81526001600160a01b03909116906370a08231906127b1903090600401614af0565b602060405180830381865afa1580156127ce573d6000803e3d6000fd5b505050506040513d601f19601f8201168201806040525081019061268f91906150e3565b600080836001600160a01b0316856001600160a01b03161115612813579293925b846001600160a01b0316866001600160a01b03161161283e57612837858585613c0e565b9150612885565b836001600160a01b0316866001600160a01b0316101561287757612863868585613c0e565b9150612870858785613c78565b9050612885565b612882858585613c78565b90505b94509492505050565b61289882826112c8565b6108f7576128a581613cc2565b6128b0836020613cd4565b6040516020016128c19291906157c1565b60408051601f198184030181529082905262461bcd60e51b82526108e491600401614b7e565b6128f081611c22565b6129525760405162461bcd60e51b815260206004820152602d60248201527f455243313936373a206e657720696d706c656d656e746174696f6e206973206e60448201526c1bdd08184818dbdb9d1c9858dd609a1b60648201526084016108e4565b600080516020615b2883398151915280546001600160a01b0319166001600160a01b0392909216919091179055565b61298a83613e6f565b6000825111806129975750805b15610873576129a68383613eaf565b50505050565b6109c081613ed4565b60008080600019858709858702925082811083820303915050806000036129ee57600084116129e357600080fd5b50829004905061268f565b8084116129fa57600080fd5b60008486880960026001871981018816978890046003810283188082028403028082028403028082028403028082028403028082028403029081029092039091026000889003889004909101858311909403939093029303949094049190911702949350505050565b61012d546040516370a0823160e01b81526000916001600160a01b0316906370a0823190612a95903090600401614af0565b602060405180830381865afa158015612ab2573d6000803e3d6000fd5b505050506040513d601f19601f82011682018060405250810190612ad691906150e3565b9050828110612af057612ae983826157ae565b9050612b13565b604051630745b52b60e31b815260048101829052602481018490526044016108e4565b61012e546040516370a0823160e01b81526000916001600160a01b0316906370a0823190612b45903090600401614af0565b602060405180830381865afa158015612b62573d6000803e3d6000fd5b505050506040513d601f19601f82011682018060405250810190612b8691906150e3565b61012d546101395460405163a9059cbb60e01b81529293506001600160a01b039182169263a9059cbb92612bc09216908690600401615257565b6020604051808303816000875af1158015612bdf573d6000803e3d6000fd5b505050506040513d601f19601f82011682018060405250810190612c039190615270565b5061012e546101395460405163a9059cbb60e01b81526001600160a01b039283169263a9059cbb92612c3c929116908590600401615257565b6020604051808303816000875af1158015612c5b573d6000803e3d6000fd5b505050506040513d601f19601f82011682018060405250810190612c7f9190615270565b506000612c8b84613ef5565b9050612cbd6040518060400160405280600e81526020016d030b6b7bab73a2a37a9bbb0b81d160951b81525082612111565b6000612ce685612cda5761013b546301000000900460020b612156565b61013b5460020b612156565b90508115612d5d57610139546101375460405163e25d44d160e01b81526001600160a01b039283169263e25d44d192612d2a92911690869086908b9060040161528d565b600060405180830381600087803b158015612d4457600080fd5b505af1158015612d58573d6000803e3d6000fd5b505050505b6101395461013754604051630fa09e6360e41b81526001600160a01b039283169263fa09e63092612d9392911690600401614af0565b600060405180830381600087803b158015612dad57600080fd5b505af1158015612dc1573d6000803e3d6000fd5b50505050612df56040518060400160405280600f81526020016e0494e464f204146544552205357415608c1b815250614527565b612dfd61456a565b61012d546040516370a0823160e01b815287916001600160a01b0316906370a0823190612e2e903090600401614af0565b602060405180830381865afa158015612e4b573d6000803e3d6000fd5b505050506040513d601f19601f82011682018060405250810190612e6f91906150e3565b612e7991906157ae565b61012e546040516370a0823160e01b81529195506001600160a01b0316906370a0823190612eab903090600401614af0565b602060405180830381865afa158015612ec8573d6000803e3d6000fd5b505050506040513d601f19601f82011682018060405250810190612eec91906150e3565b61012d546101385460405163095ea7b360e01b81529295506001600160a01b039182169263095ea7b392612f269216908890600401615257565b6020604051808303816000875af1158015612f45573d6000803e3d6000fd5b505050506040513d601f19601f82011682018060405250810190612f699190615270565b5061012e546101385460405163095ea7b360e01b81526001600160a01b039283169263095ea7b392612fa2929116908790600401615257565b6020604051808303816000875af1158015612fc1573d6000803e3d6000fd5b505050506040513d601f19601f82011682018060405250810190612fe59190615270565b5061013a546000036131c65760408051610140810180835261013754630dfe168160e01b909152915160009282916001600160a01b0390911690630dfe168190610144808501916020918187030181865afa158015613048573d6000803e3d6000fd5b505050506040513d601f19601f8201168201806040525081019061306c91906155cb565b6001600160a01b0316815260200161013760009054906101000a90046001600160a01b03166001600160a01b031663d21220a76040518163ffffffff1660e01b8152600401602060405180830381865afa1580156130ce573d6000803e3d6000fd5b505050506040513d601f19601f820116820180604052508101906130f291906155cb565b6001600160a01b03908116825261013b54600281810b60208501526301000000909104900b6040808401919091526060830189905260808301889052600060a0840181905260c08401523060e08401524261010090930192909252610138549151639cc1a28360e01b81529293501690639cc1a28390613176908490600401615830565b6080604051808303816000875af1158015613195573d6000803e3d6000fd5b505050506040513d601f19601f820116820180604052508101906131b991906158db565b50505061013a55506132d5565b6131e960405180604001604052806002815260200161233760f01b815250614527565b6040805160c08101825261013a54815260208101868152818301868152600060608401818152608085019182524260a0860190815261013854965163219f5d1760e01b81528651600482015294516024860152925160448501525160648401525160848301525160a482015290916001600160a01b03169063219f5d179060c4016060604051808303816000875af1158015613289573d6000803e3d6000fd5b505050506040513d601f19601f820116820180604052508101906132ad9190615917565b5050506132d360405180604001604052806002815260200161046760f31b815250614527565b505b505050505050565b600054610100900460ff166133485760405162461bcd60e51b815260206004820152602b60248201527f496e697469616c697a61626c653a20636f6e7472616374206973206e6f74206960448201526a6e697469616c697a696e6760a81b60648201526084016108e4565b565b6101385461013a5460405163133f757160e31b815260048101919091526000916001600160a01b0316906399fbab889060240161016060405180830381865afa15801561339b573d6000803e3d6000fd5b505050506040513d601f19601f820116820180604052508101906133bf919061561c565b505050509650505050505050806001600160801b03166000036133e157505050565b61013754604080516339db007960e21b815290516000926001600160a01b03169163e76c01e49160048083019260c09291908290030181865afa15801561342c573d6000803e3d6000fd5b505050506040513d601f19601f8201168201806040525081019061345091906152e3565b505061013b5493945060009384935061349092508591506134739060020b612156565b61013b5461348a906301000000900460020b612156565b876127f2565b915091506000808311806134a45750600082115b80156134ae575085155b156135145760006134d26001600160801b038716896134cd8688615708565b6129b5565b90506134f2816001600160801b031661013c546127106125479190615708565b9150856001600160801b0316826001600160801b03161115613512578591505b505b60006040518060a0016040528061013a548152602001886135355783613537565b875b6001600160801b0390811682526000602080840182905260408085019290925242606094850152610138548251630624e65f60e11b815286516004820152918601519093166024820152908401516044820152918301516064830152608083015160848301529192506001600160a01b0390911690630c49ccbe9060a40160408051808303816000875af11580156135d3573d6000803e3d6000fd5b505050506040513d601f19601f820116820180604052508101906135f7919061594c565b50506136016146ec565b8615613868576101385461013a54604051630852cd8d60e31b81526001600160a01b03909216916342966c689161363e9160040190815260200190565b600060405180830381600087803b15801561365857600080fd5b505af115801561366c573d6000803e3d6000fd5b5050600061013a55505061012e546040516370a0823160e01b81526001600160a01b03909116906370a08231906136a7903090600401614af0565b602060405180830381865afa1580156136c4573d6000803e3d6000fd5b505050506040513d601f19601f820116820180604052508101906136e891906150e3565b9750871561385e5761012e546101395460405163a9059cbb60e01b81526001600160a01b039283169263a9059cbb92613728929116908c90600401615257565b6020604051808303816000875af1158015613747573d6000803e3d6000fd5b505050506040513d601f19601f8201168201806040525081019061376b9190615270565b50610139546101375461013b546001600160a01b039283169263e25d44d19216908b906137a1906301000000900460020b612156565b60006040518563ffffffff1660e01b81526004016137c2949392919061528d565b600060405180830381600087803b1580156137dc57600080fd5b505af11580156137f0573d6000803e3d6000fd5b50506101395461013754604051630fa09e6360e41b81526001600160a01b03928316945063fa09e630935061382b9290911690600401614af0565b600060405180830381600087803b15801561384557600080fd5b505af1158015613859573d6000803e3d6000fd5b505050505b5050505050505050565b61012d546040516370a0823160e01b81526000916001600160a01b0316906370a082319061389a903090600401614af0565b602060405180830381865afa1580156138b7573d6000803e3d6000fd5b505050506040513d601f19601f820116820180604052508101906138db91906150e3565b61012e546040516370a0823160e01b81529192506000916001600160a01b03909116906370a0823190613912903090600401614af0565b602060405180830381865afa15801561392f573d6000803e3d6000fd5b505050506040513d601f19601f8201168201806040525081019061395391906150e3565b9050898210613973576139678a6000612a63565b50505050505050505050565b61012e546101395460405163a9059cbb60e01b81526001600160a01b039283169263a9059cbb926139ab929116908590600401615257565b6020604051808303816000875af11580156139ca573d6000803e3d6000fd5b505050506040513d601f19601f820116820180604052508101906139ee9190615270565b506000613a036139fe848d6157ae565b6147a6565b9050600061013760009054906101000a90046001600160a01b03166001600160a01b031663e76c01e46040518163ffffffff1660e01b815260040160c060405180830381865afa158015613a5b573d6000803e3d6000fd5b505050506040513d601f19601f82011682018060405250810190613a7f91906152e3565b50505050509050613a9f61013b60039054906101000a900460020b612156565b6001600160a01b0316816001600160a01b03161115613b125761013b548190613ad1906301000000900460020b612156565b61013b546040516370e9a4c560e11b81526001600160a01b0393841660048201529290911660248301526301000000900460020b60448201526064016108e4565b610139546101375461013b546001600160a01b039283169263e25d44d19216908590613b47906301000000900460020b612156565b60006040518563ffffffff1660e01b8152600401613b68949392919061528d565b600060405180830381600087803b158015613b8257600080fd5b505af1158015613b96573d6000803e3d6000fd5b50506101395461013754604051630fa09e6360e41b81526001600160a01b03928316945063fa09e6309350613bd19290911690600401614af0565b600060405180830381600087803b158015613beb57600080fd5b505af1158015613bff573d6000803e3d6000fd5b505050506138598c6000612a63565b6000826001600160a01b0316846001600160a01b03161115613c2e579192915b6001600160a01b038416613c6e600160601b600160e01b03606085901b16613c568787615970565b6001600160a01b0316866001600160a01b03166129b5565b6119579190615786565b6000826001600160a01b0316846001600160a01b03161115613c98579192915b6119576001600160801b038316613caf8686615970565b6001600160a01b0316600160601b6129b5565b60606107aa6001600160a01b03831660145b60606000613ce3836002615759565b613cee906002615708565b6001600160401b03811115613d0557613d05614dcd565b6040519080825280601f01601f191660200182016040528015613d2f576020820181803683370190505b509050600360fc1b81600081518110613d4a57613d4a615997565b60200101906001600160f81b031916908160001a905350600f60fb1b81600181518110613d7957613d79615997565b60200101906001600160f81b031916908160001a9053506000613d9d846002615759565b613da8906001615708565b90505b6001811115613e20576f181899199a1a9b1b9c1cb0b131b232b360811b85600f1660108110613ddc57613ddc615997565b1a60f81b828281518110613df257613df2615997565b60200101906001600160f81b031916908160001a90535060049490941c93613e19816159ad565b9050613dab565b50831561268f5760405162461bcd60e51b815260206004820181905260248201527f537472696e67733a20686578206c656e67746820696e73756666696369656e7460448201526064016108e4565b613e78816128e7565b6040516001600160a01b038216907fbc7cd75a20ee27fd9adebab32041f755214dbc6bffa90cc0225b39da2e5c2d3b90600090a250565b606061268f8383604051806060016040528060278152602001615b48602791396149bc565b60006a636f6e736f6c652e6c6f679050600080835160208501845afa505050565b61012d54610139546040516370a0823160e01b815260009283926001600160a01b03918216926370a0823192613f2f921690600401614af0565b602060405180830381865afa158015613f4c573d6000803e3d6000fd5b505050506040513d601f19601f82011682018060405250810190613f7091906150e3565b61012e54610139546040516370a0823160e01b81529293506000926001600160a01b03928316926370a0823192613fac92911690600401614af0565b602060405180830381865afa158015613fc9573d6000803e3d6000fd5b505050506040513d601f19601f82011682018060405250810190613fed91906150e3565b90506000808086156140f457610137546040805163d21220a760e01b815290516000926001600160a01b03169163d21220a79160048083019260209291908290030181865afa158015614044573d6000803e3d6000fd5b505050506040513d601f19601f8201168201806040525081019061406891906155cb565b610137546040516370a0823160e01b81526001600160a01b03928316926370a082319261409a92911690600401614af0565b602060405180830381865afa1580156140b7573d6000803e3d6000fd5b505050506040513d601f19601f820116820180604052508101906140db91906150e3565b90508581116140ea57806140ec565b855b9250506141eb565b6101375460408051630dfe168160e01b815290516000926001600160a01b031691630dfe16819160048083019260209291908290030181865afa15801561413f573d6000803e3d6000fd5b505050506040513d601f19601f8201168201806040525081019061416391906155cb565b610137546040516370a0823160e01b81526001600160a01b03928316926370a082319261419592911690600401614af0565b602060405180830381865afa1580156141b2573d6000803e3d6000fd5b505050506040513d601f19601f820116820180604052508101906141d691906150e3565b90508481116141e557806141e7565b845b9250505b60005b6101315481101561451c5760026142058486615708565b61420f9190615786565b9150811561451c57610139546101375461013b5460405163a3b1173b60e01b81526001600160a01b039384169363a3b1173b936142659391169187918e91600282810b9263010000009004900b906004016159c4565b600060405180830381600087803b15801561427f57600080fd5b505af1925050508015614290575060015b61450a5761429c6159f8565b806308c379a0036142f857506142b0615a13565b806142bb57506142fa565b7fcfe5be2eb0e35083a07a1b03709c019a1bb2714d5df326008632b8e4e78e7529816040516142ea9190614b7e565b60405180910390a15061451c565b505b3d808015614324576040519150601f19603f3d011682016040523d82523d6000602084013e614329565b606091505b5060408051600480825260a08201909252828201916000919060208201608080368337019050509050818060200190518101906143669190615a9c565b8460008151811061437957614379615997565b602002602001018560018151811061439357614393615997565b60200260200101866002815181106143ad576143ad615997565b60200260200101876003815181106143c7576143c7615997565b602090810291909101019390935292909152919052528051819060039081106143f2576143f2615997565b602002602001015160000361440957849550614506565b60008b614489576144848260018151811061442657614426615997565b60200260200101518360008151811061444157614441615997565b60200260200101518460038151811061445c5761445c615997565b60200260200101518560028151811061447757614477615997565b6020026020010151614a34565b6144f0565b6144f08260008151811061449f5761449f615997565b6020026020010151836001815181106144ba576144ba615997565b6020026020010151846002815181106144d5576144d5615997565b60200260200101518560038151811061447757614477615997565b9050801561450057859750614504565b8596505b505b5050505b8061451481615ad2565b9150506141ee565b509695505050505050565b6109c08160405160240161453b9190614b7e565b60408051601f198184030181529190526020810180516001600160e01b031663104c13eb60e21b1790526129ac565b6145956040518060400160405280600781526020016602a2b261d1010160cd1b815250610a58611c31565b604080518082018252600781526602aa9a2211d10160cd1b602082015261012d5491516370a0823160e01b81526145e4926001600160a01b0316906370a0823190610a17903090600401614af0565b604080518082018252600781526602aa9a2159d10160cd1b602082015261012e5491516370a0823160e01b8152614633926001600160a01b0316906370a0823190610a17903090600401614af0565b6101385461013a5460405163133f757160e31b815260048101919091526000916001600160a01b0316906399fbab889060240161016060405180830381865afa158015614684573d6000803e3d6000fd5b505050506040513d601f19601f820116820180604052508101906146a8919061561c565b5050505096505050505050506109c06040518060400160405280600d81526020016c03634b8bab4b234ba3c96101d1609d1b815250826001600160801b0316612111565b6040805160808101825261013a54815230602082019081526001600160801b038284018181526060840182815261013854955163fc6f786560e01b81528551600482015293516001600160a01b0390811660248601529151831660448501525190911660648301529192919091169063fc6f78659060840160408051808303816000875af1158015614782573d6000803e3d6000fd5b505050506040513d601f19601f82011682018060405250810190610873919061594c565b61012e54610139546040516370a0823160e01b8152600092839283926001600160a01b03928316926370a08231926147e392911690600401614af0565b602060405180830381865afa158015614800573d6000803e3d6000fd5b505050506040513d601f19601f8201168201806040525081019061482491906150e3565b90506000805b610131548110156149b25760026148418486615708565b61484b9190615786565b915081156149b257610139546101375461013b5460405163a3b1173b60e01b81526001600160a01b039384169363a3b1173b936148a2939116918791600091600282810b9263010000009004900b906004016159c4565b600060405180830381600087803b1580156148bc57600080fd5b505af19250505080156148cd575060015b6149a0576148d96159f8565b806308c379a00361493557506148ed615a13565b806148f85750614937565b7fcfe5be2eb0e35083a07a1b03709c019a1bb2714d5df326008632b8e4e78e7529816040516149279190614b7e565b60405180910390a1506149b2565b505b3d808015614961576040519150601f19603f3d011682016040523d82523d6000602084013e614966565b606091505b506004810180516000906149839084016024908101908501615a9c565b5050509050888111156149985784955061499c565b8496505b5050505b806149aa81615ad2565b91505061482a565b5090949350505050565b6060600080856001600160a01b0316856040516149d99190615aeb565b600060405180830381855af49150503d8060008114614a14576040519150601f19603f3d011682016040523d82523d6000602084013e614a19565b606091505b5091509150614a2a86838387614a54565b9695505050505050565b6000614a408385615759565b614a4a8387615759565b1195945050505050565b60608315614ac1578251600003614aba57614a6e85611c22565b614aba5760405162461bcd60e51b815260206004820152601d60248201527f416464726573733a2063616c6c20746f206e6f6e2d636f6e747261637400000060448201526064016108e4565b5081611957565b6119578383815115614ad65781518083602001fd5b8060405162461bcd60e51b81526004016108e49190614b7e565b6001600160a01b0391909116815260200190565b600060208284031215614b1657600080fd5b81356001600160e01b03198116811461268f57600080fd5b60005b83811015614b49578181015183820152602001614b31565b50506000910152565b60008151808452614b6a816020860160208601614b2e565b601f01601f19169290920160200192915050565b60208152600061268f6020830184614b52565b6001600160a01b03811681146109c057600080fd5b600080600080600060808688031215614bbe57600080fd5b8535614bc981614b91565b94506020860135614bd981614b91565b93506040860135925060608601356001600160401b0380821115614bfc57600080fd5b818801915088601f830112614c1057600080fd5b813581811115614c1f57600080fd5b896020828501011115614c3157600080fd5b9699959850939650602001949392505050565b600060208284031215614c5657600080fd5b5035919050565b60008060408385031215614c7057600080fd5b823591506020830135614c8281614b91565b809150509250929050565b600060208284031215614c9f57600080fd5b813561268f81614b91565b60008083601f840112614cbc57600080fd5b5081356001600160401b03811115614cd357600080fd5b6020830191508360208260051b8501011115614cee57600080fd5b9250929050565b600080600080600080600080600060a08a8c031215614d1357600080fd5b8935614d1e81614b91565b985060208a01356001600160401b0380821115614d3a57600080fd5b614d468d838e01614caa565b909a50985060408c0135915080821115614d5f57600080fd5b614d6b8d838e01614caa565b909850965060608c0135915080821115614d8457600080fd5b614d908d838e01614caa565b909650945060808c0135915080821115614da957600080fd5b50614db68c828d01614caa565b915080935050809150509295985092959850929598565b634e487b7160e01b600052604160045260246000fd5b601f8201601f191681016001600160401b0381118282101715614e0857614e08614dcd565b6040525050565b60006001600160401b03831115614e2857614e28614dcd565b604051614e3f601f8501601f191660200182614de3565b809150838152848484011115614e5457600080fd5b83836020830137600060208583010152509392505050565b60008060408385031215614e7f57600080fd5b8235614e8a81614b91565b915060208301356001600160401b03811115614ea557600080fd5b8301601f81018513614eb657600080fd5b614ec585823560208401614e0f565b9150509250929050565b60008060408385031215614ee257600080fd5b8235614eed81614b91565b91506020830135614c8281614b91565b600060208284031215614f0f57600080fd5b81356001600160401b03811115614f2557600080fd5b8201601f81018413614f3657600080fd5b61195784823560208401614e0f565b60008060408385031215614f5857600080fd5b8235614f6381614b91565b946020939093013593505050565b600080600060608486031215614f8657600080fd5b505081359360208301359350604090920135919050565b80151581146109c057600080fd5b60008060008060808587031215614fc157600080fd5b8435614fcc81614b91565b9350602085013592506040850135614fe381614b91565b91506060850135614ff381614f9d565b939692955090935050565b6000610140828403121561501157600080fd5b50919050565b600181811c9082168061502b57607f821691505b60208210810361501157634e487b7160e01b600052602260045260246000fd5b6020808252602c908201527f46756e6374696f6e206d7573742062652063616c6c6564207468726f7567682060408201526b19195b1959d85d1958d85b1b60a21b606082015260800190565b6020808252602c908201527f46756e6374696f6e206d7573742062652063616c6c6564207468726f7567682060408201526b6163746976652070726f787960a01b606082015260800190565b6000602082840312156150f557600080fd5b5051919050565b8183526000602080850194508260005b8581101561513a57813561511f81614b91565b6001600160a01b03168752958201959082019060010161510c565b509495945050505050565b81835260006001600160fb1b0383111561515e57600080fd5b8260051b80836020870137939093016020019392505050565b60808152600061518b608083018a8c6150fc565b60208382038185015261519f828a8c6150fc565b915083820360408501526151b482888a615145565b84810360608601528581529150808201600586811b840183018860005b8981101561524257868303601f190185528135368c9003601e190181126151f757600080fd5b8b0186810190356001600160401b0381111561521257600080fd5b80861b360382131561522357600080fd5b61522e858284615145565b9688019694505050908501906001016151d1565b50909f9e505050505050505050505050505050565b6001600160a01b03929092168252602082015260400190565b60006020828403121561528257600080fd5b815161268f81614f9d565b6001600160a01b039485168152602081019390935292166040820152901515606082015260800190565b8060020b81146109c057600080fd5b80516116ec816152b7565b805161ffff811681146116ec57600080fd5b60008060008060008060c087890312156152fc57600080fd5b865161530781614b91565b6020880151909650615318816152b7565b9450615326604088016152d1565b9350606087015160ff8116811461533c57600080fd5b925061534a608088016152d1565b915060a087015161535a81614f9d565b809150509295509295509295565b6020808252601490820152735265737472696374656420746f2061646d696e7360601b604082015260600190565b60208082526018908201527716995c9bc81859191c995cdcc81b9bdd08185b1b1bddd95960421b604082015260600190565b6020808252602e908201527f496e697469616c697a61626c653a20636f6e747261637420697320616c72656160408201526d191e481a5b9a5d1a585b1a5e995960921b606082015260800190565b6020808252601d908201527f5265737472696374656420746f20506f7274666f6c696f204167656e74000000604082015260600190565b601f82111561087357600081815260208120601f850160051c810160208610156154745750805b601f850160051c820191505b818110156132d557828155600101615480565b81516001600160401b038111156154ac576154ac614dcd565b6154c0816154ba8454615017565b8461544d565b602080601f8311600181146154f557600084156154dd5750858301515b600019600386901b1c1916600185901b1785556132d5565b600085815260208120601f198616915b8281101561552457888601518255948401946001909101908401615505565b50858210156155425787850151600019600388901b60f8161c191681555b5050505050600190811b01905550565b6020808252601f908201527f5265737472696374656420746f20504f5254464f4c494f5f4d414e4147455200604082015260600190565b6020808252601f908201527f5374726174656779204e4156206c657373207468616e20657870656374656400604082015260600190565b80516116ec81614b91565b6000602082840312156155dd57600080fd5b815161268f81614b91565b6000602082840312156155fa57600080fd5b813561268f816152b7565b80516001600160801b03811681146116ec57600080fd5b60008060008060008060008060008060006101608c8e03121561563e57600080fd5b8b516affffffffffffffffffffff8116811461565957600080fd5b60208d0151909b5061566a81614b91565b60408d0151909a5061567b81614b91565b985061568960608d016155c0565b975061569760808d016152c6565b96506156a560a08d016152c6565b95506156b360c08d01615605565b945060e08c015193506101008c015192506156d16101208d01615605565b91506156e06101408d01615605565b90509295989b509295989b9093969950565b634e487b7160e01b600052601160045260246000fd5b808201808211156107aa576107aa6156f2565b60408152600061572e6040830185614b52565b90508260208301529392505050565b6000600160ff1b8201615752576157526156f2565b5060000390565b80820281158282048414176107aa576107aa6156f2565b634e487b7160e01b600052601260045260246000fd5b60008261579557615795615770565b500490565b6000826157a9576157a9615770565b500690565b818103818111156107aa576107aa6156f2565b76020b1b1b2b9b9a1b7b73a3937b61d1030b1b1b7bab73a1604d1b8152600083516157f3816017850160208801614b2e565b7001034b99036b4b9b9b4b733903937b6329607d1b6017918401918201528351615824816028840160208801614b2e565b01602801949350505050565b81516001600160a01b031681526101408101602083015161585c60208401826001600160a01b03169052565b506040830151615871604084018260020b9052565b506060830151615886606084018260020b9052565b506080830151608083015260a083015160a083015260c083015160c083015260e083015160e0830152610100808401516158ca828501826001600160a01b03169052565b505061012092830151919092015290565b600080600080608085870312156158f157600080fd5b8451935061590160208601615605565b6040860151606090960151949790965092505050565b60008060006060848603121561592c57600080fd5b61593584615605565b925060208401519150604084015190509250925092565b6000806040838503121561595f57600080fd5b505080516020909101519092909150565b6001600160a01b03828116828216039080821115615990576159906156f2565b5092915050565b634e487b7160e01b600052603260045260246000fd5b6000816159bc576159bc6156f2565b506000190190565b6001600160a01b0395909516855260208501939093529015156040840152600290810b60608401520b608082015260a00190565b600060033d111561111b5760046000803e5060005160e01c90565b600060443d1015615a215790565b6040516003193d81016004833e81513d6001600160401b038160248401118184111715615a5057505050505090565b8285019150815181811115615a685750505050505090565b843d8701016020828501011115615a825750505050505090565b615a9160208286010187614de3565b509095945050505050565b60008060008060808587031215615ab257600080fd5b505082516020840151604085015160609095015191969095509092509050565b600060018201615ae457615ae46156f2565b5060010190565b60008251615afd818460208701614b2e565b919091019291505056fed67ad422505496469a1adf6cdf9e5ee92ac5d33992843c9ecc4b2f6d6cde9137360894a13ba1a3210667c828492db98dca3e2076cc3735a920a3ca505d382bbc416464726573733a206c6f772d6c6576656c2064656c65676174652063616c6c206661696c6564a2646970667358221220c116f733a8a4d0c5d3732e6ae0d057551fc14afeb54905784022ddcff80c6c7564736f6c63430008110033",
  "implementation": "0x1c5Acec1fA7e03A31F928A0F227B782e59b31758",
  "devdoc": {
    "kind": "dev",
    "methods": {
      "constructor": {
        "custom:oz-upgrades-unsafe-allow": "constructor"
      },
      "getRoleAdmin(bytes32)": {
        "details": "Returns the admin role that controls `role`. See {grantRole} and {revokeRole}. To change a role's admin, use {_setRoleAdmin}."
      },
      "grantRole(bytes32,address)": {
        "details": "Grants `role` to `account`. If `account` had not been already granted `role`, emits a {RoleGranted} event. Requirements: - the caller must have ``role``'s admin role. May emit a {RoleGranted} event."
      },
      "hasRole(bytes32,address)": {
        "details": "Returns `true` if `account` has been granted `role`."
      },
      "proxiableUUID()": {
        "details": "Implementation of the ERC1822 {proxiableUUID} function. This returns the storage slot used by the implementation. It is used to validate the implementation's compatibility when performing an upgrade. IMPORTANT: A proxy pointing at a proxiable contract should not be considered proxiable itself, because this risks bricking a proxy that upgrades to it, by delegating to itself until out of gas. Thus it is critical that this function revert if invoked through a proxy. This is guaranteed by the `notDelegated` modifier."
      },
      "renounceRole(bytes32,address)": {
        "details": "Revokes `role` from the calling account. Roles are often managed via {grantRole} and {revokeRole}: this function's purpose is to provide a mechanism for accounts to lose their privileges if they are compromised (such as when a trusted device is misplaced). If the calling account had been revoked `role`, emits a {RoleRevoked} event. Requirements: - the caller must be `account`. May emit a {RoleRevoked} event."
      },
      "revokeRole(bytes32,address)": {
        "details": "Revokes `role` from `account`. If `account` had been granted `role`, emits a {RoleRevoked} event. Requirements: - the caller must have ``role``'s admin role. May emit a {RoleRevoked} event."
      },
      "supportsInterface(bytes4)": {
        "details": "See {IERC165-supportsInterface}."
      },
      "upgradeTo(address)": {
        "custom:oz-upgrades-unsafe-allow-reachable": "delegatecall",
        "details": "Upgrade the implementation of the proxy to `newImplementation`. Calls {_authorizeUpgrade}. Emits an {Upgraded} event."
      },
      "upgradeToAndCall(address,bytes)": {
        "custom:oz-upgrades-unsafe-allow-reachable": "delegatecall",
        "details": "Upgrade the implementation of the proxy to `newImplementation`, and subsequently execute the function call encoded in `data`. Calls {_authorizeUpgrade}. Emits an {Upgraded} event."
      }
    },
    "version": 1
  },
  "userdoc": {
    "kind": "user",
    "methods": {},
    "version": 1
  },
  "storageLayout": {
    "storage": [
      {
        "astId": 782,
        "contract": "contracts/StrategyFenixSwap.sol:StrategyFenixSwap",
        "label": "_initialized",
        "offset": 0,
        "slot": "0",
        "type": "t_uint8"
      },
      {
        "astId": 785,
        "contract": "contracts/StrategyFenixSwap.sol:StrategyFenixSwap",
        "label": "_initializing",
        "offset": 1,
        "slot": "0",
        "type": "t_bool"
      },
      {
        "astId": 1461,
        "contract": "contracts/StrategyFenixSwap.sol:StrategyFenixSwap",
        "label": "__gap",
        "offset": 0,
        "slot": "1",
        "type": "t_array(t_uint256)50_storage"
      },
      {
        "astId": 1845,
        "contract": "contracts/StrategyFenixSwap.sol:StrategyFenixSwap",
        "label": "__gap",
        "offset": 0,
        "slot": "51",
        "type": "t_array(t_uint256)50_storage"
      },
      {
        "astId": 28,
        "contract": "contracts/StrategyFenixSwap.sol:StrategyFenixSwap",
        "label": "_roles",
        "offset": 0,
        "slot": "101",
        "type": "t_mapping(t_bytes32,t_struct(RoleData)23_storage)"
      },
      {
        "astId": 335,
        "contract": "contracts/StrategyFenixSwap.sol:StrategyFenixSwap",
        "label": "__gap",
        "offset": 0,
        "slot": "102",
        "type": "t_array(t_uint256)49_storage"
      },
      {
        "astId": 764,
        "contract": "contracts/StrategyFenixSwap.sol:StrategyFenixSwap",
        "label": "__gap",
        "offset": 0,
        "slot": "151",
        "type": "t_array(t_uint256)50_storage"
      },
      {
        "astId": 1080,
        "contract": "contracts/StrategyFenixSwap.sol:StrategyFenixSwap",
        "label": "__gap",
        "offset": 0,
        "slot": "201",
        "type": "t_array(t_uint256)50_storage"
      },
      {
        "astId": 5100,
        "contract": "contracts/StrategyFenixSwap.sol:StrategyFenixSwap",
        "label": "portfolioManager",
        "offset": 0,
        "slot": "251",
        "type": "t_address"
      },
      {
        "astId": 5102,
        "contract": "contracts/StrategyFenixSwap.sol:StrategyFenixSwap",
        "label": "swapSlippageBP",
        "offset": 0,
        "slot": "252",
        "type": "t_uint256"
      },
      {
        "astId": 5104,
        "contract": "contracts/StrategyFenixSwap.sol:StrategyFenixSwap",
        "label": "navSlippageBP",
        "offset": 0,
        "slot": "253",
        "type": "t_uint256"
      },
      {
        "astId": 5106,
        "contract": "contracts/StrategyFenixSwap.sol:StrategyFenixSwap",
        "label": "stakeSlippageBP",
        "offset": 0,
        "slot": "254",
        "type": "t_uint256"
      },
      {
        "astId": 5109,
        "contract": "contracts/StrategyFenixSwap.sol:StrategyFenixSwap",
        "label": "roleManager",
        "offset": 0,
        "slot": "255",
        "type": "t_contract(IRoleManager)5516"
      },
      {
        "astId": 5111,
        "contract": "contracts/StrategyFenixSwap.sol:StrategyFenixSwap",
        "label": "name",
        "offset": 0,
        "slot": "256",
        "type": "t_string_storage"
      },
      {
        "astId": 5503,
        "contract": "contracts/StrategyFenixSwap.sol:StrategyFenixSwap",
        "label": "__gap",
        "offset": 0,
        "slot": "257",
        "type": "t_array(t_uint256)44_storage"
      },
      {
        "astId": 5612,
        "contract": "contracts/StrategyFenixSwap.sol:StrategyFenixSwap",
        "label": "usdb",
        "offset": 0,
        "slot": "301",
        "type": "t_contract(IERC20)2987"
      },
      {
        "astId": 5615,
        "contract": "contracts/StrategyFenixSwap.sol:StrategyFenixSwap",
        "label": "usdPlus",
        "offset": 0,
        "slot": "302",
        "type": "t_contract(IERC20)2987"
      },
      {
        "astId": 5618,
        "contract": "contracts/StrategyFenixSwap.sol:StrategyFenixSwap",
        "label": "fnx",
        "offset": 0,
        "slot": "303",
        "type": "t_contract(IERC20)2987"
      },
      {
        "astId": 5621,
        "contract": "contracts/StrategyFenixSwap.sol:StrategyFenixSwap",
        "label": "DELETED_1",
        "offset": 0,
        "slot": "304",
        "type": "t_array(t_int24)dyn_storage"
      },
      {
        "astId": 5623,
        "contract": "contracts/StrategyFenixSwap.sol:StrategyFenixSwap",
        "label": "binSearchIterations",
        "offset": 0,
        "slot": "305",
        "type": "t_uint256"
      },
      {
        "astId": 5626,
        "contract": "contracts/StrategyFenixSwap.sol:StrategyFenixSwap",
        "label": "DELETED_2",
        "offset": 0,
        "slot": "306",
        "type": "t_contract(ICLPool)3561"
      },
      {
        "astId": 5629,
        "contract": "contracts/StrategyFenixSwap.sol:StrategyFenixSwap",
        "label": "poolFnxUsdb",
        "offset": 0,
        "slot": "307",
        "type": "t_contract(ICLPool)3561"
      },
      {
        "astId": 5631,
        "contract": "contracts/StrategyFenixSwap.sol:StrategyFenixSwap",
        "label": "rewardSwapSlippageBP",
        "offset": 0,
        "slot": "308",
        "type": "t_uint256"
      },
      {
        "astId": 5633,
        "contract": "contracts/StrategyFenixSwap.sol:StrategyFenixSwap",
        "label": "DELETED_3",
        "offset": 0,
        "slot": "309",
        "type": "t_uint160"
      },
      {
        "astId": 5635,
        "contract": "contracts/StrategyFenixSwap.sol:StrategyFenixSwap",
        "label": "DELETED_4",
        "offset": 0,
        "slot": "310",
        "type": "t_uint160"
      },
      {
        "astId": 5638,
        "contract": "contracts/StrategyFenixSwap.sol:StrategyFenixSwap",
        "label": "pool",
        "offset": 0,
        "slot": "311",
        "type": "t_contract(ICLPool)3561"
      },
      {
        "astId": 5641,
        "contract": "contracts/StrategyFenixSwap.sol:StrategyFenixSwap",
        "label": "npm",
        "offset": 0,
        "slot": "312",
        "type": "t_contract(INonfungiblePositionManager)3929"
      },
      {
        "astId": 5644,
        "contract": "contracts/StrategyFenixSwap.sol:StrategyFenixSwap",
        "label": "swapSimulator",
        "offset": 0,
        "slot": "313",
        "type": "t_contract(ISwapSimulator)7337"
      },
      {
        "astId": 5646,
        "contract": "contracts/StrategyFenixSwap.sol:StrategyFenixSwap",
        "label": "tokenLP",
        "offset": 0,
        "slot": "314",
        "type": "t_uint256"
      },
      {
        "astId": 5648,
        "contract": "contracts/StrategyFenixSwap.sol:StrategyFenixSwap",
        "label": "lowerTick",
        "offset": 0,
        "slot": "315",
        "type": "t_int24"
      },
      {
        "astId": 5650,
        "contract": "contracts/StrategyFenixSwap.sol:StrategyFenixSwap",
        "label": "upperTick",
        "offset": 3,
        "slot": "315",
        "type": "t_int24"
      },
      {
        "astId": 5652,
        "contract": "contracts/StrategyFenixSwap.sol:StrategyFenixSwap",
        "label": "liquidityDecreaseDeviationBP",
        "offset": 0,
        "slot": "316",
        "type": "t_uint256"
      }
    ],
    "types": {
      "t_address": {
        "encoding": "inplace",
        "label": "address",
        "numberOfBytes": "20"
      },
      "t_array(t_int24)dyn_storage": {
        "base": "t_int24",
        "encoding": "dynamic_array",
        "label": "int24[]",
        "numberOfBytes": "32"
      },
      "t_array(t_uint256)44_storage": {
        "base": "t_uint256",
        "encoding": "inplace",
        "label": "uint256[44]",
        "numberOfBytes": "1408"
      },
      "t_array(t_uint256)49_storage": {
        "base": "t_uint256",
        "encoding": "inplace",
        "label": "uint256[49]",
        "numberOfBytes": "1568"
      },
      "t_array(t_uint256)50_storage": {
        "base": "t_uint256",
        "encoding": "inplace",
        "label": "uint256[50]",
        "numberOfBytes": "1600"
      },
      "t_bool": {
        "encoding": "inplace",
        "label": "bool",
        "numberOfBytes": "1"
      },
      "t_bytes32": {
        "encoding": "inplace",
        "label": "bytes32",
        "numberOfBytes": "32"
      },
      "t_contract(ICLPool)3561": {
        "encoding": "inplace",
        "label": "contract ICLPool",
        "numberOfBytes": "20"
      },
      "t_contract(IERC20)2987": {
        "encoding": "inplace",
        "label": "contract IERC20",
        "numberOfBytes": "20"
      },
      "t_contract(INonfungiblePositionManager)3929": {
        "encoding": "inplace",
        "label": "contract INonfungiblePositionManager",
        "numberOfBytes": "20"
      },
      "t_contract(IRoleManager)5516": {
        "encoding": "inplace",
        "label": "contract IRoleManager",
        "numberOfBytes": "20"
      },
      "t_contract(ISwapSimulator)7337": {
        "encoding": "inplace",
        "label": "contract ISwapSimulator",
        "numberOfBytes": "20"
      },
      "t_int24": {
        "encoding": "inplace",
        "label": "int24",
        "numberOfBytes": "3"
      },
      "t_mapping(t_address,t_bool)": {
        "encoding": "mapping",
        "key": "t_address",
        "label": "mapping(address => bool)",
        "numberOfBytes": "32",
        "value": "t_bool"
      },
      "t_mapping(t_bytes32,t_struct(RoleData)23_storage)": {
        "encoding": "mapping",
        "key": "t_bytes32",
        "label": "mapping(bytes32 => struct AccessControlUpgradeable.RoleData)",
        "numberOfBytes": "32",
        "value": "t_struct(RoleData)23_storage"
      },
      "t_string_storage": {
        "encoding": "bytes",
        "label": "string",
        "numberOfBytes": "32"
      },
      "t_struct(RoleData)23_storage": {
        "encoding": "inplace",
        "label": "struct AccessControlUpgradeable.RoleData",
        "members": [
          {
            "astId": 20,
            "contract": "contracts/StrategyFenixSwap.sol:StrategyFenixSwap",
            "label": "members",
            "offset": 0,
            "slot": "0",
            "type": "t_mapping(t_address,t_bool)"
          },
          {
            "astId": 22,
            "contract": "contracts/StrategyFenixSwap.sol:StrategyFenixSwap",
            "label": "adminRole",
            "offset": 0,
            "slot": "1",
            "type": "t_bytes32"
          }
        ],
        "numberOfBytes": "64"
      },
      "t_uint160": {
        "encoding": "inplace",
        "label": "uint160",
        "numberOfBytes": "20"
      },
      "t_uint256": {
        "encoding": "inplace",
        "label": "uint256",
        "numberOfBytes": "32"
      },
      "t_uint8": {
        "encoding": "inplace",
        "label": "uint8",
        "numberOfBytes": "1"
      }
    }
  }
}