{
  "address": "0x147812C2282eC48512a6f6f11F7c98d78D1ad74B",
  "abi": [
    {
      "inputs": [],
      "stateMutability": "nonpayable",
      "type": "constructor"
    },
    {
      "inputs": [
        {
          "internalType": "uint256",
          "name": "amount",
          "type": "uint256"
        },
        {
          "internalType": "uint256",
          "name": "assetToLock",
          "type": "uint256"
        }
      ],
      "name": "NotEnoughAssetBalance",
      "type": "error"
    },
    {
      "inputs": [
        {
          "internalType": "uint160",
          "name": "sqrtRatioX96",
          "type": "uint160"
        },
        {
          "internalType": "uint160",
          "name": "sqrtRatioUpperTick",
          "type": "uint160"
        },
        {
          "internalType": "int24",
          "name": "upperTick",
          "type": "int24"
        }
      ],
      "name": "UnappropriateSqrtRatioBeforeSwap",
      "type": "error"
    },
    {
      "anonymous": false,
      "inputs": [
        {
          "indexed": false,
          "internalType": "address",
          "name": "previousAdmin",
          "type": "address"
        },
        {
          "indexed": false,
          "internalType": "address",
          "name": "newAdmin",
          "type": "address"
        }
      ],
      "name": "AdminChanged",
      "type": "event"
    },
    {
      "anonymous": false,
      "inputs": [
        {
          "indexed": true,
          "internalType": "address",
          "name": "beacon",
          "type": "address"
        }
      ],
      "name": "BeaconUpgraded",
      "type": "event"
    },
    {
      "anonymous": false,
      "inputs": [
        {
          "indexed": false,
          "internalType": "uint8",
          "name": "version",
          "type": "uint8"
        }
      ],
      "name": "Initialized",
      "type": "event"
    },
    {
      "anonymous": false,
      "inputs": [
        {
          "indexed": false,
          "internalType": "address",
          "name": "value",
          "type": "address"
        }
      ],
      "name": "PortfolioManagerUpdated",
      "type": "event"
    },
    {
      "anonymous": false,
      "inputs": [
        {
          "indexed": false,
          "internalType": "uint256",
          "name": "amount",
          "type": "uint256"
        }
      ],
      "name": "Reward",
      "type": "event"
    },
    {
      "anonymous": false,
      "inputs": [
        {
          "indexed": true,
          "internalType": "bytes32",
          "name": "role",
          "type": "bytes32"
        },
        {
          "indexed": true,
          "internalType": "bytes32",
          "name": "previousAdminRole",
          "type": "bytes32"
        },
        {
          "indexed": true,
          "internalType": "bytes32",
          "name": "newAdminRole",
          "type": "bytes32"
        }
      ],
      "name": "RoleAdminChanged",
      "type": "event"
    },
    {
      "anonymous": false,
      "inputs": [
        {
          "indexed": true,
          "internalType": "bytes32",
          "name": "role",
          "type": "bytes32"
        },
        {
          "indexed": true,
          "internalType": "address",
          "name": "account",
          "type": "address"
        },
        {
          "indexed": true,
          "internalType": "address",
          "name": "sender",
          "type": "address"
        }
      ],
      "name": "RoleGranted",
      "type": "event"
    },
    {
      "anonymous": false,
      "inputs": [
        {
          "indexed": true,
          "internalType": "bytes32",
          "name": "role",
          "type": "bytes32"
        },
        {
          "indexed": true,
          "internalType": "address",
          "name": "account",
          "type": "address"
        },
        {
          "indexed": true,
          "internalType": "address",
          "name": "sender",
          "type": "address"
        }
      ],
      "name": "RoleRevoked",
      "type": "event"
    },
    {
      "anonymous": false,
      "inputs": [
        {
          "indexed": false,
          "internalType": "uint256",
          "name": "swapSlippageBP",
          "type": "uint256"
        },
        {
          "indexed": false,
          "internalType": "uint256",
          "name": "navSlippageBP",
          "type": "uint256"
        },
        {
          "indexed": false,
          "internalType": "uint256",
          "name": "stakeSlippageBP",
          "type": "uint256"
        }
      ],
      "name": "SlippagesUpdated",
      "type": "event"
    },
    {
      "anonymous": false,
      "inputs": [
        {
          "indexed": false,
          "internalType": "uint256",
          "name": "amount",
          "type": "uint256"
        }
      ],
      "name": "Stake",
      "type": "event"
    },
    {
      "anonymous": false,
      "inputs": [
        {
          "indexed": false,
          "internalType": "uint256",
          "name": "tokenId",
          "type": "uint256"
        }
      ],
      "name": "Staked",
      "type": "event"
    },
    {
      "anonymous": false,
      "inputs": [],
      "name": "StrategyUpdatedParams",
      "type": "event"
    },
    {
      "anonymous": false,
      "inputs": [
        {
          "indexed": false,
          "internalType": "string",
          "name": "message",
          "type": "string"
        }
      ],
      "name": "SwapErrorInternal",
      "type": "event"
    },
    {
      "anonymous": false,
      "inputs": [
        {
          "indexed": false,
          "internalType": "uint256",
          "name": "amount",
          "type": "uint256"
        },
        {
          "indexed": false,
          "internalType": "uint256",
          "name": "amountReceived",
          "type": "uint256"
        }
      ],
      "name": "Unstake",
      "type": "event"
    },
    {
      "anonymous": false,
      "inputs": [
        {
          "indexed": true,
          "internalType": "address",
          "name": "implementation",
          "type": "address"
        }
      ],
      "name": "Upgraded",
      "type": "event"
    },
    {
      "inputs": [],
      "name": "DEFAULT_ADMIN_ROLE",
      "outputs": [
        {
          "internalType": "bytes32",
          "name": "",
          "type": "bytes32"
        }
      ],
      "stateMutability": "view",
      "type": "function"
    },
    {
      "inputs": [
        {
          "internalType": "uint256",
          "name": "",
          "type": "uint256"
        }
      ],
      "name": "DELETED_1",
      "outputs": [
        {
          "internalType": "int24",
          "name": "",
          "type": "int24"
        }
      ],
      "stateMutability": "view",
      "type": "function"
    },
    {
      "inputs": [],
      "name": "PORTFOLIO_AGENT_ROLE",
      "outputs": [
        {
          "internalType": "bytes32",
          "name": "",
          "type": "bytes32"
        }
      ],
      "stateMutability": "view",
      "type": "function"
    },
    {
      "inputs": [],
      "name": "PORTFOLIO_MANAGER",
      "outputs": [
        {
          "internalType": "bytes32",
          "name": "",
          "type": "bytes32"
        }
      ],
      "stateMutability": "view",
      "type": "function"
    },
    {
      "inputs": [],
      "name": "UNIT_ROLE",
      "outputs": [
        {
          "internalType": "bytes32",
          "name": "",
          "type": "bytes32"
        }
      ],
      "stateMutability": "view",
      "type": "function"
    },
    {
      "inputs": [],
      "name": "binSearchIterations",
      "outputs": [
        {
          "internalType": "uint256",
          "name": "",
          "type": "uint256"
        }
      ],
      "stateMutability": "view",
      "type": "function"
    },
    {
      "inputs": [],
      "name": "claimConfig",
      "outputs": [
        {
          "internalType": "enum IStrategy.Operation",
          "name": "operation",
          "type": "uint8"
        },
        {
          "internalType": "address",
          "name": "beneficiary",
          "type": "address"
        },
        {
          "internalType": "address",
          "name": "distributor",
          "type": "address"
        }
      ],
      "stateMutability": "view",
      "type": "function"
    },
    {
      "inputs": [
        {
          "internalType": "address[]",
          "name": "users",
          "type": "address[]"
        },
        {
          "internalType": "address[]",
          "name": "tokens",
          "type": "address[]"
        },
        {
          "internalType": "uint256[]",
          "name": "amounts",
          "type": "uint256[]"
        },
        {
          "internalType": "bytes32[][]",
          "name": "proofs",
          "type": "bytes32[][]"
        }
      ],
      "name": "claimMerkl",
      "outputs": [],
      "stateMutability": "nonpayable",
      "type": "function"
    },
    {
      "inputs": [
        {
          "internalType": "address",
          "name": "_to",
          "type": "address"
        }
      ],
      "name": "claimRewards",
      "outputs": [
        {
          "internalType": "uint256",
          "name": "",
          "type": "uint256"
        }
      ],
      "stateMutability": "nonpayable",
      "type": "function"
    },
    {
      "inputs": [
        {
          "internalType": "bytes32",
          "name": "role",
          "type": "bytes32"
        }
      ],
      "name": "getRoleAdmin",
      "outputs": [
        {
          "internalType": "bytes32",
          "name": "",
          "type": "bytes32"
        }
      ],
      "stateMutability": "view",
      "type": "function"
    },
    {
      "inputs": [
        {
          "internalType": "bytes32",
          "name": "role",
          "type": "bytes32"
        },
        {
          "internalType": "address",
          "name": "account",
          "type": "address"
        }
      ],
      "name": "grantRole",
      "outputs": [],
      "stateMutability": "nonpayable",
      "type": "function"
    },
    {
      "inputs": [
        {
          "internalType": "bytes32",
          "name": "role",
          "type": "bytes32"
        },
        {
          "internalType": "address",
          "name": "account",
          "type": "address"
        }
      ],
      "name": "hasRole",
      "outputs": [
        {
          "internalType": "bool",
          "name": "",
          "type": "bool"
        }
      ],
      "stateMutability": "view",
      "type": "function"
    },
    {
      "inputs": [],
      "name": "hyper",
      "outputs": [
        {
          "internalType": "contract IERC20",
          "name": "",
          "type": "address"
        }
      ],
      "stateMutability": "view",
      "type": "function"
    },
    {
      "inputs": [],
      "name": "initialize",
      "outputs": [],
      "stateMutability": "nonpayable",
      "type": "function"
    },
    {
      "inputs": [],
      "name": "liquidationValue",
      "outputs": [
        {
          "internalType": "uint256",
          "name": "",
          "type": "uint256"
        }
      ],
      "stateMutability": "view",
      "type": "function"
    },
    {
      "inputs": [],
      "name": "lowerTick",
      "outputs": [
        {
          "internalType": "int24",
          "name": "",
          "type": "int24"
        }
      ],
      "stateMutability": "view",
      "type": "function"
    },
    {
      "inputs": [],
      "name": "name",
      "outputs": [
        {
          "internalType": "string",
          "name": "",
          "type": "string"
        }
      ],
      "stateMutability": "view",
      "type": "function"
    },
    {
      "inputs": [],
      "name": "navSlippageBP",
      "outputs": [
        {
          "internalType": "uint256",
          "name": "",
          "type": "uint256"
        }
      ],
      "stateMutability": "view",
      "type": "function"
    },
    {
      "inputs": [],
      "name": "netAssetValue",
      "outputs": [
        {
          "internalType": "uint256",
          "name": "",
          "type": "uint256"
        }
      ],
      "stateMutability": "view",
      "type": "function"
    },
    {
      "inputs": [],
      "name": "nfpBooster",
      "outputs": [
        {
          "internalType": "contract INFPBooster",
          "name": "",
          "type": "address"
        }
      ],
      "stateMutability": "view",
      "type": "function"
    },
    {
      "inputs": [],
      "name": "npm",
      "outputs": [
        {
          "internalType": "contract INonfungiblePositionManager",
          "name": "",
          "type": "address"
        }
      ],
      "stateMutability": "view",
      "type": "function"
    },
    {
      "inputs": [
        {
          "internalType": "address",
          "name": "",
          "type": "address"
        },
        {
          "internalType": "address",
          "name": "",
          "type": "address"
        },
        {
          "internalType": "uint256",
          "name": "",
          "type": "uint256"
        },
        {
          "internalType": "bytes",
          "name": "",
          "type": "bytes"
        }
      ],
      "name": "onERC721Received",
      "outputs": [
        {
          "internalType": "bytes4",
          "name": "",
          "type": "bytes4"
        }
      ],
      "stateMutability": "pure",
      "type": "function"
    },
    {
      "inputs": [],
      "name": "pool",
      "outputs": [
        {
          "internalType": "contract ICLPool",
          "name": "",
          "type": "address"
        }
      ],
      "stateMutability": "view",
      "type": "function"
    },
    {
      "inputs": [],
      "name": "portfolioManager",
      "outputs": [
        {
          "internalType": "address",
          "name": "",
          "type": "address"
        }
      ],
      "stateMutability": "view",
      "type": "function"
    },
    {
      "inputs": [],
      "name": "proxiableUUID",
      "outputs": [
        {
          "internalType": "bytes32",
          "name": "",
          "type": "bytes32"
        }
      ],
      "stateMutability": "view",
      "type": "function"
    },
    {
      "inputs": [
        {
          "internalType": "bytes32",
          "name": "role",
          "type": "bytes32"
        },
        {
          "internalType": "address",
          "name": "account",
          "type": "address"
        }
      ],
      "name": "renounceRole",
      "outputs": [],
      "stateMutability": "nonpayable",
      "type": "function"
    },
    {
      "inputs": [
        {
          "internalType": "bytes32",
          "name": "role",
          "type": "bytes32"
        },
        {
          "internalType": "address",
          "name": "account",
          "type": "address"
        }
      ],
      "name": "revokeRole",
      "outputs": [],
      "stateMutability": "nonpayable",
      "type": "function"
    },
    {
      "inputs": [],
      "name": "roleManager",
      "outputs": [
        {
          "internalType": "contract IRoleManager",
          "name": "",
          "type": "address"
        }
      ],
      "stateMutability": "view",
      "type": "function"
    },
    {
      "inputs": [
        {
          "components": [
            {
              "internalType": "enum IStrategy.Operation",
              "name": "operation",
              "type": "uint8"
            },
            {
              "internalType": "address",
              "name": "beneficiary",
              "type": "address"
            },
            {
              "internalType": "address",
              "name": "distributor",
              "type": "address"
            },
            {
              "internalType": "uint256[10]",
              "name": "__gap",
              "type": "uint256[10]"
            }
          ],
          "internalType": "struct IStrategy.ClaimConfig",
          "name": "_claimConfig",
          "type": "tuple"
        }
      ],
      "name": "setClaimConfig",
      "outputs": [],
      "stateMutability": "nonpayable",
      "type": "function"
    },
    {
      "inputs": [
        {
          "components": [
            {
              "internalType": "address",
              "name": "pool",
              "type": "address"
            },
            {
              "internalType": "address",
              "name": "swapSimulatorAddress",
              "type": "address"
            },
            {
              "internalType": "address",
              "name": "npmAddress",
              "type": "address"
            },
            {
              "internalType": "address",
              "name": "nfpBooster",
              "type": "address"
            },
            {
              "internalType": "address",
              "name": "poolUsdbWeth",
              "type": "address"
            },
            {
              "internalType": "address",
              "name": "poolWethHyper",
              "type": "address"
            },
            {
              "internalType": "address",
              "name": "poolWethThrust",
              "type": "address"
            },
            {
              "internalType": "address",
              "name": "hyperTokenAddress",
              "type": "address"
            },
            {
              "internalType": "address",
              "name": "thrustTokenAddress",
              "type": "address"
            },
            {
              "internalType": "address",
              "name": "wethTokenAddress",
              "type": "address"
            },
            {
              "internalType": "int24",
              "name": "lowerTick",
              "type": "int24"
            },
            {
              "internalType": "int24",
              "name": "upperTick",
              "type": "int24"
            },
            {
              "internalType": "uint256",
              "name": "binSearchIterations",
              "type": "uint256"
            },
            {
              "internalType": "uint256",
              "name": "rewardSwapSlippageBP",
              "type": "uint256"
            },
            {
              "internalType": "uint256",
              "name": "liquidityDecreaseDeviationBP",
              "type": "uint256"
            }
          ],
          "internalType": "struct StrategyThrusterSwap.StrategyParams",
          "name": "params",
          "type": "tuple"
        }
      ],
      "name": "setParams",
      "outputs": [],
      "stateMutability": "nonpayable",
      "type": "function"
    },
    {
      "inputs": [
        {
          "internalType": "uint256",
          "name": "_swapSlippageBP",
          "type": "uint256"
        },
        {
          "internalType": "uint256",
          "name": "_navSlippageBP",
          "type": "uint256"
        },
        {
          "internalType": "uint256",
          "name": "_stakeSlippageBP",
          "type": "uint256"
        }
      ],
      "name": "setSlippages",
      "outputs": [],
      "stateMutability": "nonpayable",
      "type": "function"
    },
    {
      "inputs": [
        {
          "internalType": "string",
          "name": "_name",
          "type": "string"
        }
      ],
      "name": "setStrategyName",
      "outputs": [],
      "stateMutability": "nonpayable",
      "type": "function"
    },
    {
      "inputs": [
        {
          "internalType": "address",
          "name": "_portfolioManager",
          "type": "address"
        },
        {
          "internalType": "address",
          "name": "_roleManager",
          "type": "address"
        }
      ],
      "name": "setStrategyParams",
      "outputs": [],
      "stateMutability": "nonpayable",
      "type": "function"
    },
    {
      "inputs": [
        {
          "internalType": "address",
          "name": "_asset",
          "type": "address"
        },
        {
          "internalType": "uint256",
          "name": "_amount",
          "type": "uint256"
        }
      ],
      "name": "stake",
      "outputs": [],
      "stateMutability": "nonpayable",
      "type": "function"
    },
    {
      "inputs": [],
      "name": "stakeSlippageBP",
      "outputs": [
        {
          "internalType": "uint256",
          "name": "",
          "type": "uint256"
        }
      ],
      "stateMutability": "view",
      "type": "function"
    },
    {
      "inputs": [
        {
          "internalType": "bytes4",
          "name": "interfaceId",
          "type": "bytes4"
        }
      ],
      "name": "supportsInterface",
      "outputs": [
        {
          "internalType": "bool",
          "name": "",
          "type": "bool"
        }
      ],
      "stateMutability": "view",
      "type": "function"
    },
    {
      "inputs": [],
      "name": "swapSimulator",
      "outputs": [
        {
          "internalType": "contract ISwapSimulator",
          "name": "",
          "type": "address"
        }
      ],
      "stateMutability": "view",
      "type": "function"
    },
    {
      "inputs": [],
      "name": "swapSlippageBP",
      "outputs": [
        {
          "internalType": "uint256",
          "name": "",
          "type": "uint256"
        }
      ],
      "stateMutability": "view",
      "type": "function"
    },
    {
      "inputs": [],
      "name": "thrust",
      "outputs": [
        {
          "internalType": "contract IERC20",
          "name": "",
          "type": "address"
        }
      ],
      "stateMutability": "view",
      "type": "function"
    },
    {
      "inputs": [],
      "name": "tokenLP",
      "outputs": [
        {
          "internalType": "uint256",
          "name": "",
          "type": "uint256"
        }
      ],
      "stateMutability": "view",
      "type": "function"
    },
    {
      "inputs": [
        {
          "internalType": "address",
          "name": "_asset",
          "type": "address"
        },
        {
          "internalType": "uint256",
          "name": "_amount",
          "type": "uint256"
        },
        {
          "internalType": "address",
          "name": "_beneficiary",
          "type": "address"
        },
        {
          "internalType": "bool",
          "name": "_targetIsZero",
          "type": "bool"
        }
      ],
      "name": "unstake",
      "outputs": [
        {
          "internalType": "uint256",
          "name": "",
          "type": "uint256"
        }
      ],
      "stateMutability": "nonpayable",
      "type": "function"
    },
    {
      "inputs": [
        {
          "internalType": "address",
          "name": "newImplementation",
          "type": "address"
        }
      ],
      "name": "upgradeTo",
      "outputs": [],
      "stateMutability": "nonpayable",
      "type": "function"
    },
    {
      "inputs": [
        {
          "internalType": "address",
          "name": "newImplementation",
          "type": "address"
        },
        {
          "internalType": "bytes",
          "name": "data",
          "type": "bytes"
        }
      ],
      "name": "upgradeToAndCall",
      "outputs": [],
      "stateMutability": "payable",
      "type": "function"
    },
    {
      "inputs": [],
      "name": "upperTick",
      "outputs": [
        {
          "internalType": "int24",
          "name": "",
          "type": "int24"
        }
      ],
      "stateMutability": "view",
      "type": "function"
    },
    {
      "inputs": [],
      "name": "usdPlus",
      "outputs": [
        {
          "internalType": "contract IERC20",
          "name": "",
          "type": "address"
        }
      ],
      "stateMutability": "view",
      "type": "function"
    },
    {
      "inputs": [],
      "name": "usdb",
      "outputs": [
        {
          "internalType": "contract IERC20",
          "name": "",
          "type": "address"
        }
      ],
      "stateMutability": "view",
      "type": "function"
    },
    {
      "inputs": [],
      "name": "weth",
      "outputs": [
        {
          "internalType": "contract IERC20",
          "name": "",
          "type": "address"
        }
      ],
      "stateMutability": "view",
      "type": "function"
    }
  ],
  "numDeployments": 37,
  "solcInputHash": "73fe9acbdafab2d32c575f54f961c00c",
  "bytecode": "0x60a0604052306080523480156200001557600080fd5b50600054610100900460ff1615808015620000375750600054600160ff909116105b8062000067575062000054306200014160201b62001b7b1760201c565b15801562000067575060005460ff166001145b620000cf5760405162461bcd60e51b815260206004820152602e60248201527f496e697469616c697a61626c653a20636f6e747261637420697320616c72656160448201526d191e481a5b9a5d1a585b1a5e995960921b606482015260840160405180910390fd5b6000805460ff191660011790558015620000f3576000805461ff0019166101001790555b80156200013a576000805461ff0019169055604051600181527f7f26b83ff96e1f2b6a682f133852f6798a09c465da95921460cefb38474024989060200160405180910390a15b5062000150565b6001600160a01b03163b151590565b608051615fa06200018860003960008181610a4001528181610a8001528181610ec901528181610f090152610f810152615fa06000f3fe6080604052600436106102865760003560e01c806360e45b041161015a578063a217fddf116100c1578063d547741f1161007a578063d547741f146107d1578063ef5cfb8c146107f1578063f20d324514610811578063f6f6b88114610853578063fb0ef38514610873578063fcb777ef1461089357600080fd5b8063a217fddf14610745578063a3673b38146103ee578063adc9772e1461075a578063ae30c1101461077a578063bf52e0801461079a578063cd5a62be146107b057600080fd5b80637f1e9ef6116101135780637f1e9ef6146106945780638129fc1c146106b55780638ea8edb0146106ca57806391d14854146106ea5780639b1344ac1461070a578063a016b2cd1461072557600080fd5b806360e45b04146105aa578063620b75df146105ca5780636bd0a983146105ea578063727dd2281461060b5780637bc4569a146106405780637d5f58021461066057600080fd5b806336568abe116101fe5780634f1ef286116101b75780634f1ef28614610512578063514e460a1461052557806352d1902d146105465780635536fc701461055b5780635ca558f8146105725780635dbd733a1461058857600080fd5b806336568abe1461043c5780633659cfe61461045c5780633fc8cef31461047c578063477e86be1461049d578063497d9192146104be5780634cd06a9b146104f257600080fd5b8063150b7a0211610250578063150b7a021461035857806316f0115b1461039d578063248a9ca3146103be5780632576e65a146103ee57806328ffce26146104035780632f2ff15d1461041a57600080fd5b8062435da51461028b5780626f7d00146102c157806301ffc9a7146102e257806306fdde0314610312578063119cd87914610334575b600080fd5b34801561029757600080fd5b5060ff546102ab906001600160a01b031681565b6040516102b89190614cb8565b60405180910390f35b3480156102cd57600080fd5b5061012d546102ab906001600160a01b031681565b3480156102ee57600080fd5b506103026102fd366004614ccc565b6108b4565b60405190151581526020016102b8565b34801561031e57600080fd5b506103276108eb565b6040516102b89190614d1a565b34801561034057600080fd5b5061034a60fd5481565b6040519081526020016102b8565b34801561036457600080fd5b50610384610373366004614d62565b630a85bd0160e11b95945050505050565b6040516001600160e01b031990911681526020016102b8565b3480156103a957600080fd5b50610138546102ab906001600160a01b031681565b3480156103ca57600080fd5b5061034a6103d9366004614e00565b60009081526065602052604090206001015490565b3480156103fa57600080fd5b5061034a61097a565b34801561040f57600080fd5b5061034a6101335481565b34801561042657600080fd5b5061043a610435366004614e19565b610989565b005b34801561044857600080fd5b5061043a610457366004614e19565b6109b3565b34801561046857600080fd5b5061043a610477366004614e49565b610a36565b34801561048857600080fd5b50610131546102ab906001600160a01b031681565b3480156104a957600080fd5b50610130546102ab906001600160a01b031681565b3480156104ca57600080fd5b5061034a7fede8101501d89b9894e78e4f219420b6ddb840e8e75dde35741a0745408476d781565b3480156104fe57600080fd5b5061043a61050d366004614e66565b610afe565b61043a610520366004614f63565b610ebf565b34801561053157600080fd5b5061012e546102ab906001600160a01b031681565b34801561055257600080fd5b5061034a610f74565b34801561056757600080fd5b5061034a61013c5481565b34801561057e57600080fd5b5061034a60fe5481565b34801561059457600080fd5b5061034a600080516020615f0483398151915281565b3480156105b657600080fd5b5061043a6105c5366004614fc6565b611023565b3480156105d657600080fd5b5060fb546102ab906001600160a01b031681565b3480156105f657600080fd5b5061013b546102ab906001600160a01b031681565b34801561061757600080fd5b5061013d5461062d906301000000900460020b81565b60405160029190910b81526020016102b8565b34801561064c57600080fd5b5061062d61065b366004614e00565b6110c4565b34801561066c57600080fd5b5061034a7f90c2aa7471c04182221f68e80c07ab1e5946e4c63f8693e14ca40385d529f05181565b3480156106a057600080fd5b50610139546102ab906001600160a01b031681565b3480156106c157600080fd5b5061043a6110fc565b3480156106d657600080fd5b5061043a6106e5366004614ff4565b6111cd565b3480156106f657600080fd5b50610302610705366004614e19565b6112d3565b34801561071657600080fd5b5061013d5461062d9060020b81565b34801561073157600080fd5b5061043a6107403660046150a4565b6112fe565b34801561075157600080fd5b5061034a600081565b34801561076657600080fd5b5061043a6107753660046150ec565b6113a8565b34801561078657600080fd5b5061043a610795366004615118565b611573565b3480156107a657600080fd5b5061034a60fc5481565b3480156107bc57600080fd5b5061012f546102ab906001600160a01b031681565b3480156107dd57600080fd5b5061043a6107ec366004614e19565b61165d565b3480156107fd57600080fd5b5061034a61080c366004614e49565b611682565b34801561081d57600080fd5b5061010154610102546108449160ff8116916001600160a01b036101009092048216911683565b6040516102b89392919061515a565b34801561085f57600080fd5b5061034a61086e3660046151a8565b6116b8565b34801561087f57600080fd5b5061043a61088e366004615246565b611929565b34801561089f57600080fd5b5061013a546102ab906001600160a01b031681565b60006001600160e01b03198216637965db0b60e01b14806108e557506301ffc9a760e01b6001600160e01b03198316145b92915050565b61010080546108f990615309565b80601f016020809104026020016040519081016040528092919081815260200182805461092590615309565b80156109725780601f1061094757610100808354040283529160200191610972565b820191906000526020600020905b81548152906001019060200180831161095557829003601f168201915b505050505081565b6000610984611b8a565b905090565b6000828152606560205260409020600101546109a481611c4a565b6109ae8383611c54565b505050565b6001600160a01b0381163314610a285760405162461bcd60e51b815260206004820152602f60248201527f416363657373436f6e74726f6c3a2063616e206f6e6c792072656e6f756e636560448201526e103937b632b9903337b91039b2b63360891b60648201526084015b60405180910390fd5b610a328282611cda565b5050565b6001600160a01b037f0000000000000000000000000000000000000000000000000000000000000000163003610a7e5760405162461bcd60e51b8152600401610a1f9061533d565b7f00000000000000000000000000000000000000000000000000000000000000006001600160a01b0316610ab0611d41565b6001600160a01b031614610ad65760405162461bcd60e51b8152600401610a1f90615389565b610adf81611d5d565b60408051600080825260208201909252610afb91839190611d68565b50565b610b096000336112d3565b610b255760405162461bcd60e51b8152600401610a1f906153d5565b610b326020820182614e49565b61013880546001600160a01b0319166001600160a01b0392909216918217905560408051630dfe168160e01b81529051630dfe1681916004808201926020929091908290030181865afa158015610b8d573d6000803e3d6000fd5b505050506040513d601f19601f82011682018060405250810190610bb1919061540e565b61012d80546001600160a01b0319166001600160a01b03928316179055610138546040805163d21220a760e01b81529051919092169163d21220a79160048083019260209291908290030181865afa158015610c11573d6000803e3d6000fd5b505050506040513d601f19601f82011682018060405250810190610c35919061540e565b61012e80546001600160a01b0319166001600160a01b0392909216919091179055610c686101608201610140830161543a565b61013d805462ffffff191662ffffff92909216919091179055610c936101808201610160830161543a565b61013d805462ffffff9290921663010000000265ffffff0000001990921691909117905561018081013561013355610cd16040820160208301614e49565b61013a80546001600160a01b0319166001600160a01b0392909216919091179055610d026060820160408301614e49565b61013980546001600160a01b0319166001600160a01b0392909216919091179055610d336080820160608301614e49565b61013b80546001600160a01b0319166001600160a01b0392909216919091179055610d65610100820160e08301614e49565b61012f80546001600160a01b0319166001600160a01b0392909216919091179055610d9861012082016101008301614e49565b61013080546001600160a01b0319166001600160a01b0392909216919091179055610dcb61014082016101208301614e49565b61013180546001600160a01b0319166001600160a01b0392909216919091179055610dfc60a0820160808301614e49565b61013480546001600160a01b0319166001600160a01b0392909216919091179055610e2d60c0820160a08301614e49565b61013580546001600160a01b0319166001600160a01b0392909216919091179055610e5e60e0820160c08301614e49565b61013680546001600160a01b0319166001600160a01b03929092169190911790556101a0810135610137556101c081013561013e556040517fea5646eb3528e525944447a4a97de700dd472298626e5c0481d1c82c3da86ea590600090a150565b6001600160a01b037f0000000000000000000000000000000000000000000000000000000000000000163003610f075760405162461bcd60e51b8152600401610a1f9061533d565b7f00000000000000000000000000000000000000000000000000000000000000006001600160a01b0316610f39611d41565b6001600160a01b031614610f5f5760405162461bcd60e51b8152600401610a1f90615389565b610f6882611d5d565b610a3282826001611d68565b6000306001600160a01b037f0000000000000000000000000000000000000000000000000000000000000000161461100f5760405162461bcd60e51b815260206004820152603860248201527f555550535570677261646561626c653a206d757374206e6f742062652063616c6044820152771b1959081d1a1c9bdd59da0819195b1959d85d1958d85b1b60421b6064820152608401610a1f565b50600080516020615f248339815191525b90565b61102e6000336112d3565b61104a5760405162461bcd60e51b8152600401610a1f906153d5565b6001600160a01b0382166110705760405162461bcd60e51b8152600401610a1f90615457565b6001600160a01b0381166110965760405162461bcd60e51b8152600401610a1f90615457565b60fb80546001600160a01b039384166001600160a01b03199182161790915560ff8054929093169116179055565b61013281815481106110d557600080fd5b90600052602060002090600a9182820401919006600302915054906101000a900460020b81565b600054610100900460ff161580801561111c5750600054600160ff909116105b8061113d575061112b30611b7b565b15801561113d575060005460ff166001145b6111595760405162461bcd60e51b8152600401610a1f90615489565b6000805460ff19166001179055801561117c576000805461ff0019166101001790555b611184611ed3565b8015610afb576000805461ff0019169055604051600181527f7f26b83ff96e1f2b6a682f133852f6798a09c465da95921460cefb3847402498906020015b60405180910390a150565b60ff54604051632474521560e21b81526001600160a01b03909116906391d148549061120d90600080516020615f048339815191529033906004016154d7565b602060405180830381865afa15801561122a573d6000803e3d6000fd5b505050506040513d601f19601f8201168201806040525081019061124e91906154ee565b61126a5760405162461bcd60e51b8152600401610a1f9061550b565b8051610101805460ff1916600183600281111561128957611289615144565b021790555060208101516101018054610100600160a81b0319166101006001600160a01b039384160217905560409091015161010280546001600160a01b03191691909216179055565b60009182526065602090815260408084206001600160a01b0393909316845291905290205460ff1690565b60ff54604051632474521560e21b81526001600160a01b03909116906391d148549061133e90600080516020615f048339815191529033906004016154d7565b602060405180830381865afa15801561135b573d6000803e3d6000fd5b505050506040513d601f19601f8201168201806040525081019061137f91906154ee565b61139b5760405162461bcd60e51b8152600401610a1f9061550b565b610100610a328282615588565b60fb546001600160a01b031633146113d25760405162461bcd60e51b8152600401610a1f90615647565b6000611441306001600160a01b031663a3673b386040518163ffffffff1660e01b8152600401602060405180830381865afa158015611415573d6000803e3d6000fd5b505050506040513d601f19601f82011682018060405250810190611439919061567e565b60fd54611fbf565b90506114b983846001600160a01b03166370a08231306040518263ffffffff1660e01b81526004016114739190614cb8565b602060405180830381865afa158015611490573d6000803e3d6000fd5b505050506040513d601f19601f820116820180604052508101906114b4919061567e565b611fe9565b80306001600160a01b031663a3673b386040518163ffffffff1660e01b8152600401602060405180830381865afa1580156114f8573d6000803e3d6000fd5b505050506040513d601f19601f8201168201806040525081019061151c919061567e565b101561153a5760405162461bcd60e51b8152600401610a1f90615697565b6040518281527f227a473b70d2f893cc7659219575c030a63b5743024fe1e0c1a680e708b1525a906020015b60405180910390a1505050565b60ff54604051632474521560e21b81526001600160a01b03909116906391d14854906115b390600080516020615f048339815191529033906004016154d7565b602060405180830381865afa1580156115d0573d6000803e3d6000fd5b505050506040513d601f19601f820116820180604052508101906115f491906154ee565b6116105760405162461bcd60e51b8152600401610a1f9061550b565b60fc83905560fd82905560fe81905560408051848152602081018490529081018290527f116fbf1e97a2be629ad98abfb6c332733c8996c2dfb174dd2efe8440df381d1a90606001611566565b60008281526065602052604090206001015461167881611c4a565b6109ae8383611cda565b60fb546000906001600160a01b031633146116af5760405162461bcd60e51b8152600401610a1f90615647565b5060005b919050565b60fb546000906001600160a01b031633146116e55760405162461bcd60e51b8152600401610a1f90615647565b6000611728306001600160a01b031663a3673b386040518163ffffffff1660e01b8152600401602060405180830381865afa158015611415573d6000803e3d6000fd5b90506000808415611747575060006117408887611ff5565b91506117b6565b6117528888886120c7565b9150868210156117b65760405162461bcd60e51b815260206004820152602960248201527f52657475726e65642076616c7565206c657373207468616e2072657175657374604482015268195908185b5bdd5b9d60ba1b6064820152608401610a1f565b82306001600160a01b031663a3673b386040518163ffffffff1660e01b8152600401602060405180830381865afa1580156117f5573d6000803e3d6000fd5b505050506040513d601f19601f82011682018060405250810190611819919061567e565b10156118375760405162461bcd60e51b8152600401610a1f90615697565b60405163a9059cbb60e01b81526001600160a01b0389169063a9059cbb9061186590899086906004016156ce565b6020604051808303816000875af1158015611884573d6000803e3d6000fd5b505050506040513d601f19601f820116820180604052508101906118a891906154ee565b5060408051888152602081018490527f9045c2ac9b2026de8075f2701bbdde882cd5e830b3b1ead9a15b22f2b5b93742910160405180910390a1801561191c576040518181527f3ac0594a85a20354f9dc74f33728416d19ce00d04a406c108cc2dcf2cecea1349060200160405180910390a15b509150505b949350505050565b60ff54604051632474521560e21b81526001600160a01b03909116906391d148549061197b907fede8101501d89b9894e78e4f219420b6ddb840e8e75dde35741a0745408476d79033906004016154d7565b602060405180830381865afa158015611998573d6000803e3d6000fd5b505050506040513d601f19601f820116820180604052508101906119bc91906154ee565b6119fd5760405162461bcd60e51b815260206004820152601260248201527114995cdd1c9a58dd1959081d1bc8155b9a5d60721b6044820152606401610a1f565b604080516080810190915261010180546000929190829060ff166002811115611a2857611a28615144565b6002811115611a3957611a39615144565b8152815461010090046001600160a01b0390811660208301526001830154166040808301919091528051610140810191829052606090920191906002840190600a9082845b815481526020019060010190808311611a7e57505050505081525050905080604001516001600160a01b03166371ee95c08a8a8a8a8a8a8a8a6040518963ffffffff1660e01b8152600401611ada989796959493929190615762565b600060405180830381600087803b158015611af457600080fd5b505af1158015611b08573d6000803e3d6000fd5b5060009250611b15915050565b6101015460ff166002811115611b2d57611b2d615144565b03611b3f57611b3a61220d565b611b70565b60016101015460ff166002811115611b5957611b59615144565b03611b6757611b3a8161222f565b611b7081612317565b505050505050505050565b6001600160a01b03163b151590565b61013a5461013c54610138546101395461013d5461012d5461012e5460405163b689e68d60e01b815260048101969096526001600160a01b0394851660248701529284166044860152600282810b6064870152630100000090920490910b6084850152821660a4840152811660c4830152600092169063b689e68d9060e401602060405180830381865afa158015611c26573d6000803e3d6000fd5b505050506040513d601f19601f82011682018060405250810190610984919061567e565b610afb8133612351565b611c5e82826112d3565b610a325760008281526065602090815260408083206001600160a01b03851684529091529020805460ff19166001179055611c963390565b6001600160a01b0316816001600160a01b0316837f2f8788117e7eff1d82e926ec794901d17c78024a50270940304540a733656f0d60405160405180910390a45050565b611ce482826112d3565b15610a325760008281526065602090815260408083206001600160a01b0385168085529252808320805460ff1916905551339285917ff6391f5c32d9c69d2a47ea670b442974b53935d1edc7fd64eb21e047a839171b9190a45050565b600080516020615f24833981519152546001600160a01b031690565b6000610a3281611c4a565b7f4910fdfa16fed3260ed0e7147f7cc6da11a60208b5b9406d12a635614ffd91435460ff1615611d9b576109ae836123aa565b826001600160a01b03166352d1902d6040518163ffffffff1660e01b8152600401602060405180830381865afa925050508015611df5575060408051601f3d908101601f19168201909252611df29181019061567e565b60015b611e585760405162461bcd60e51b815260206004820152602e60248201527f45524331393637557067726164653a206e657720696d706c656d656e7461746960448201526d6f6e206973206e6f74205555505360901b6064820152608401610a1f565b600080516020615f248339815191528114611ec75760405162461bcd60e51b815260206004820152602960248201527f45524331393637557067726164653a20756e737570706f727465642070726f786044820152681a58589b195555525160ba1b6064820152608401610a1f565b506109ae838383612444565b600054610100900460ff1615808015611ef35750600054600160ff909116105b80611f145750611f0230611b7b565b158015611f14575060005460ff166001145b611f305760405162461bcd60e51b8152600401610a1f90615489565b6000805460ff191660011790558015611f53576000805461ff0019166101001790555b611f5b61246f565b611f6361246f565b611f6e600033611c54565b601460fc81905560fd55600460fe558015610afb576000805461ff0019169055604051600181527f7f26b83ff96e1f2b6a682f133852f6798a09c465da95921460cefb3847402498906020016111c2565b6000612710611fce8382615858565b611fd8908561586b565b611fe29190615898565b9392505050565b610a32600060016124da565b61012d546000906001600160a01b038481169116146120265760405162461bcd60e51b8152600401610a1f906158ac565b61013c546000036120495760405162461bcd60e51b8152600401610a1f906158e3565b61205560006001613005565b61012d546040516370a0823160e01b81526001600160a01b03909116906370a0823190612086903090600401614cb8565b602060405180830381865afa1580156120a3573d6000803e3d6000fd5b505050506040513d601f19601f82011682018060405250810190611fe2919061567e565b61012d546000906001600160a01b038581169116146120f85760405162461bcd60e51b8152600401610a1f906158ac565b600083116121525760405162461bcd60e51b815260206004820152602160248201527f416d6f756e74206973206c657373207468616e206f7220657175616c20746f206044820152600360fc1b6064820152608401610a1f565b61013c546000036121755760405162461bcd60e51b8152600401610a1f906158e3565b612180836000613005565b61012d546040516370a0823160e01b81526000916001600160a01b0316906370a08231906121b2903090600401614cb8565b602060405180830381865afa1580156121cf573d6000803e3d6000fd5b505050506040513d601f19601f820116820180604052508101906121f3919061567e565b90508381116122025780612204565b835b95945050505050565b61221561393b565b61012d5461222d906001600160a01b03166000611fe9565b565b61223761393b565b61012d5460208201516040516370a0823160e01b81526001600160a01b039092169163a9059cbb919083906370a0823190612276903090600401614cb8565b602060405180830381865afa158015612293573d6000803e3d6000fd5b505050506040513d601f19601f820116820180604052508101906122b7919061567e565b6040518363ffffffff1660e01b81526004016122d49291906156ce565b6020604051808303816000875af11580156122f3573d6000803e3d6000fd5b505050506040513d601f19601f82011682018060405250810190610a3291906154ee565b60405162461bcd60e51b815260206004820152600f60248201526e139bdd081a5b5c1b195b595b9d1959608a1b6044820152606401610a1f565b61235b82826112d3565b610a325761236881613aa7565b612373836020613ab9565b604051602001612384929190615907565b60408051601f198184030181529082905262461bcd60e51b8252610a1f91600401614d1a565b6123b381611b7b565b6124155760405162461bcd60e51b815260206004820152602d60248201527f455243313936373a206e657720696d706c656d656e746174696f6e206973206e60448201526c1bdd08184818dbdb9d1c9858dd609a1b6064820152608401610a1f565b600080516020615f2483398151915280546001600160a01b0319166001600160a01b0392909216919091179055565b61244d83613c54565b60008251118061245a5750805b156109ae576124698383613c94565b50505050565b600054610100900460ff1661222d5760405162461bcd60e51b815260206004820152602b60248201527f496e697469616c697a61626c653a20636f6e7472616374206973206e6f74206960448201526a6e697469616c697a696e6760a81b6064820152608401610a1f565b61012d546040516370a0823160e01b81526000916001600160a01b0316906370a082319061250c903090600401614cb8565b602060405180830381865afa158015612529573d6000803e3d6000fd5b505050506040513d601f19601f8201168201806040525081019061254d919061567e565b9050828110612567576125608382615858565b905061258a565b604051630745b52b60e31b81526004810182905260248101849052604401610a1f565b61012e546040516370a0823160e01b81526000916001600160a01b0316906370a08231906125bc903090600401614cb8565b602060405180830381865afa1580156125d9573d6000803e3d6000fd5b505050506040513d601f19601f820116820180604052508101906125fd919061567e565b61012d5461013a5460405163a9059cbb60e01b81529293506001600160a01b039182169263a9059cbb9261263792169086906004016156ce565b6020604051808303816000875af1158015612656573d6000803e3d6000fd5b505050506040513d601f19601f8201168201806040525081019061267a91906154ee565b5061012e5461013a5460405163a9059cbb60e01b81526001600160a01b039283169263a9059cbb926126b39291169085906004016156ce565b6020604051808303816000875af11580156126d2573d6000803e3d6000fd5b505050506040513d601f19601f820116820180604052508101906126f691906154ee565b50600061270284613cb9565b9050600061272d856127215761013d546301000000900460020b6142eb565b61013d5460020b6142eb565b905081156127a45761013a546101385460405163e25d44d160e01b81526001600160a01b039283169263e25d44d19261277192911690869086908b90600401615976565b600060405180830381600087803b15801561278b57600080fd5b505af115801561279f573d6000803e3d6000fd5b505050505b61013a5461013854604051630fa09e6360e41b81526001600160a01b039283169263fa09e630926127da92911690600401614cb8565b600060405180830381600087803b1580156127f457600080fd5b505af1158015612808573d6000803e3d6000fd5b505061012d546040516370a0823160e01b81528993506001600160a01b0390911691506370a082319061283f903090600401614cb8565b602060405180830381865afa15801561285c573d6000803e3d6000fd5b505050506040513d601f19601f82011682018060405250810190612880919061567e565b61288a9190615858565b61012e546040516370a0823160e01b81529195506001600160a01b0316906370a08231906128bc903090600401614cb8565b602060405180830381865afa1580156128d9573d6000803e3d6000fd5b505050506040513d601f19601f820116820180604052508101906128fd919061567e565b61012d546101395460405163095ea7b360e01b81529295506001600160a01b039182169263095ea7b39261293792169088906004016156ce565b6020604051808303816000875af1158015612956573d6000803e3d6000fd5b505050506040513d601f19601f8201168201806040525081019061297a91906154ee565b5061012e546101395460405163095ea7b360e01b81526001600160a01b039283169263095ea7b3926129b39291169087906004016156ce565b6020604051808303816000875af11580156129d2573d6000803e3d6000fd5b505050506040513d601f19601f820116820180604052508101906129f691906154ee565b5061013c54600003612d6d5760408051610160810180835261013854630dfe168160e01b909152915160009282916001600160a01b0390911690630dfe168190610164808501916020918187030181865afa158015612a59573d6000803e3d6000fd5b505050506040513d601f19601f82011682018060405250810190612a7d919061540e565b6001600160a01b0316815260200161013860009054906101000a90046001600160a01b03166001600160a01b031663d21220a76040518163ffffffff1660e01b8152600401602060405180830381865afa158015612adf573d6000803e3d6000fd5b505050506040513d601f19601f82011682018060405250810190612b03919061540e565b6001600160a01b0316815260200161013860009054906101000a90046001600160a01b03166001600160a01b031663ddca3f436040518163ffffffff1660e01b8152600401602060405180830381865afa158015612b65573d6000803e3d6000fd5b505050506040513d601f19601f82011682018060405250810190612b8991906159b3565b62ffffff16815261013d54600281810b60208401526301000000909104900b6040808301919091526060820188905260808201879052600060a0830181905260c08301523060e08301524261010090920191909152610139549051634418b22b60e11b81529192506001600160a01b031690638831645690612c0f9084906004016159ce565b6080604051808303816000875af1158015612c2e573d6000803e3d6000fd5b505050506040513d601f19601f82011682018060405250810190612c529190615aa9565b50505061013c8190556101395461013b5460405163095ea7b360e01b81526001600160a01b039283169363095ea7b393612c909316916004016156ce565b600060405180830381600087803b158015612caa57600080fd5b505af1158015612cbe573d6000803e3d6000fd5b505061013b5461013c5460405163b6b55f2560e01b81526001600160a01b03909216935063b6b55f259250612cf99160040190815260200190565b600060405180830381600087803b158015612d1357600080fd5b505af1158015612d27573d6000803e3d6000fd5b505050507feebbaa86c348cb664e392b180fd0ff2e1998af9fa833ef69a778cb0b42d3ca2761013c54604051612d5f91815260200190565b60405180910390a150612ffd565b61013b5461013c5460405163519f509960e01b8152600481019190915230916001600160a01b03169063519f5099906024016040805180830381865afa158015612dbb573d6000803e3d6000fd5b505050506040513d601f19601f82011682018060405250810190612ddf9190615ae5565b602001516001600160a01b031603612e575761013b5461013c54604051627b8a6760e11b81526001600160a01b039092169162f714ce91612e249130906004016154d7565b600060405180830381600087803b158015612e3e57600080fd5b505af1158015612e52573d6000803e3d6000fd5b505050505b612e5f6146b6565b6040805160c08101825261013c54815260208101868152818301868152600060608401818152608085019182524260a0860190815261013954965163219f5d1760e01b81528651600482015294516024860152925160448501525160648401525160848301525160a482015290916001600160a01b03169063219f5d179060c4016060604051808303816000875af1158015612eff573d6000803e3d6000fd5b505050506040513d601f19601f82011682018060405250810190612f239190615b3a565b50506101395461013b5461013c5460405163095ea7b360e01b81526001600160a01b03938416945063095ea7b393612f60931691906004016156ce565b600060405180830381600087803b158015612f7a57600080fd5b505af1158015612f8e573d6000803e3d6000fd5b505061013b5461013c5460405163b6b55f2560e01b81526001600160a01b03909216935063b6b55f259250612fc99160040190815260200190565b600060405180830381600087803b158015612fe357600080fd5b505af1158015612ff7573d6000803e3d6000fd5b50505050505b505050505050565b61013b5461013c54604051627b8a6760e11b81526001600160a01b039092169162f714ce916130389130906004016154d7565b600060405180830381600087803b15801561305257600080fd5b505af1158015613066573d6000803e3d6000fd5b50506101395461013c5460405163133f757160e31b81526004810191909152600093506001600160a01b0390911691506399fbab889060240161018060405180830381865afa1580156130bd573d6000803e3d6000fd5b505050506040513d601f19601f820116820180604052508101906130e19190615b7a565b50505050975050505050505050806001600160801b031660000361310457505050565b6101385460408051633850c7bd60e01b815290516000926001600160a01b031691633850c7bd9160048083019260e09291908290030181865afa15801561314f573d6000803e3d6000fd5b505050506040513d601f19601f820116820180604052508101906131739190615c6d565b505061013d549495506000948594506131b49350869250613197915060020b6142eb565b61013d546131ae906301000000900460020b6142eb565b87614770565b915091506000808311806131c85750600082115b80156131d2575085155b156132405760006131f66001600160801b038716896131f18688615d05565b61480c565b905061321e816001600160801b031661013e546127106132169190615d05565b61271061480c565b9150856001600160801b0316826001600160801b0316111561323e578591505b505b60006040518060a0016040528061013c548152602001886132615783613263565b875b6001600160801b0390811682526000602080840182905260408085019290925242606094850152610139548251630624e65f60e11b815286516004820152918601519093166024820152908401516044820152918301516064830152608083015160848301529192506001600160a01b0390911690630c49ccbe9060a40160408051808303816000875af11580156132ff573d6000803e3d6000fd5b505050506040513d601f19601f820116820180604052508101906133239190615d18565b505061332d6146b6565b8615613594576101395461013c54604051630852cd8d60e31b81526001600160a01b03909216916342966c689161336a9160040190815260200190565b600060405180830381600087803b15801561338457600080fd5b505af1158015613398573d6000803e3d6000fd5b5050600061013c55505061012e546040516370a0823160e01b81526001600160a01b03909116906370a08231906133d3903090600401614cb8565b602060405180830381865afa1580156133f0573d6000803e3d6000fd5b505050506040513d601f19601f82011682018060405250810190613414919061567e565b9750871561358a5761012e5461013a5460405163a9059cbb60e01b81526001600160a01b039283169263a9059cbb92613454929116908c906004016156ce565b6020604051808303816000875af1158015613473573d6000803e3d6000fd5b505050506040513d601f19601f8201168201806040525081019061349791906154ee565b5061013a546101385461013d546001600160a01b039283169263e25d44d19216908b906134cd906301000000900460020b6142eb565b60006040518563ffffffff1660e01b81526004016134ee9493929190615976565b600060405180830381600087803b15801561350857600080fd5b505af115801561351c573d6000803e3d6000fd5b505061013a5461013854604051630fa09e6360e41b81526001600160a01b03928316945063fa09e63093506135579290911690600401614cb8565b600060405180830381600087803b15801561357157600080fd5b505af1158015613585573d6000803e3d6000fd5b505050505b5050505050505050565b61012d546040516370a0823160e01b81526000916001600160a01b0316906370a08231906135c6903090600401614cb8565b602060405180830381865afa1580156135e3573d6000803e3d6000fd5b505050506040513d601f19601f82011682018060405250810190613607919061567e565b61012e546040516370a0823160e01b81529192506000916001600160a01b03909116906370a082319061363e903090600401614cb8565b602060405180830381865afa15801561365b573d6000803e3d6000fd5b505050506040513d601f19601f8201168201806040525081019061367f919061567e565b905089821061369f576136938a60006124da565b50505050505050505050565b61012e5461013a5460405163a9059cbb60e01b81526001600160a01b039283169263a9059cbb926136d79291169085906004016156ce565b6020604051808303816000875af11580156136f6573d6000803e3d6000fd5b505050506040513d601f19601f8201168201806040525081019061371a91906154ee565b50600061372f61372a848d615858565b6148ba565b9050600061013860009054906101000a90046001600160a01b03166001600160a01b0316633850c7bd6040518163ffffffff1660e01b815260040160e060405180830381865afa158015613787573d6000803e3d6000fd5b505050506040513d601f19601f820116820180604052508101906137ab9190615c6d565b50505050505090506137cc61013d60039054906101000a900460020b6142eb565b6001600160a01b0316816001600160a01b0316111561383f5761013d5481906137fe906301000000900460020b6142eb565b61013d546040516370e9a4c560e11b81526001600160a01b0393841660048201529290911660248301526301000000900460020b6044820152606401610a1f565b61013a546101385461013d546001600160a01b039283169263e25d44d19216908590613874906301000000900460020b6142eb565b60006040518563ffffffff1660e01b81526004016138959493929190615976565b600060405180830381600087803b1580156138af57600080fd5b505af11580156138c3573d6000803e3d6000fd5b505061013a5461013854604051630fa09e6360e41b81526001600160a01b03928316945063fa09e63093506138fe9290911690600401614cb8565b600060405180830381600087803b15801561391857600080fd5b505af115801561392c573d6000803e3d6000fd5b505050506135858c60006124da565b6101305461013a546040516370a0823160e01b81526001600160a01b039283169263a9059cbb92169083906370a082319061397a903090600401614cb8565b602060405180830381865afa158015613997573d6000803e3d6000fd5b505050506040513d601f19601f820116820180604052508101906139bb919061567e565b6040518363ffffffff1660e01b81526004016139d89291906156ce565b6020604051808303816000875af11580156139f7573d6000803e3d6000fd5b505050506040513d601f19601f82011682018060405250810190613a1b91906154ee565b5061013a54610130546101315461013654610134546101375460405163cbc8a37560e01b81526001600160a01b0395861660048201529385166024850152918416604484015283166064830152608482015291169063cbc8a3759060a401600060405180830381600087803b158015613a9357600080fd5b505af1158015612469573d6000803e3d6000fd5b60606108e56001600160a01b03831660145b60606000613ac883600261586b565b613ad3906002615d05565b6001600160401b03811115613aea57613aea614e7f565b6040519080825280601f01601f191660200182016040528015613b14576020820181803683370190505b509050600360fc1b81600081518110613b2f57613b2f615d3c565b60200101906001600160f81b031916908160001a905350600f60fb1b81600181518110613b5e57613b5e615d3c565b60200101906001600160f81b031916908160001a9053506000613b8284600261586b565b613b8d906001615d05565b90505b6001811115613c05576f181899199a1a9b1b9c1cb0b131b232b360811b85600f1660108110613bc157613bc1615d3c565b1a60f81b828281518110613bd757613bd7615d3c565b60200101906001600160f81b031916908160001a90535060049490941c93613bfe81615d52565b9050613b90565b508315611fe25760405162461bcd60e51b815260206004820181905260248201527f537472696e67733a20686578206c656e67746820696e73756666696369656e746044820152606401610a1f565b613c5d816123aa565b6040516001600160a01b038216907fbc7cd75a20ee27fd9adebab32041f755214dbc6bffa90cc0225b39da2e5c2d3b90600090a250565b6060611fe28383604051806060016040528060278152602001615f4460279139614ad0565b61012d5461013a546040516370a0823160e01b815260009283926001600160a01b03918216926370a0823192613cf3921690600401614cb8565b602060405180830381865afa158015613d10573d6000803e3d6000fd5b505050506040513d601f19601f82011682018060405250810190613d34919061567e565b61012e5461013a546040516370a0823160e01b81529293506000926001600160a01b03928316926370a0823192613d7092911690600401614cb8565b602060405180830381865afa158015613d8d573d6000803e3d6000fd5b505050506040513d601f19601f82011682018060405250810190613db1919061567e565b9050600080808615613eb857610138546040805163d21220a760e01b815290516000926001600160a01b03169163d21220a79160048083019260209291908290030181865afa158015613e08573d6000803e3d6000fd5b505050506040513d601f19601f82011682018060405250810190613e2c919061540e565b610138546040516370a0823160e01b81526001600160a01b03928316926370a0823192613e5e92911690600401614cb8565b602060405180830381865afa158015613e7b573d6000803e3d6000fd5b505050506040513d601f19601f82011682018060405250810190613e9f919061567e565b9050858111613eae5780613eb0565b855b925050613faf565b6101385460408051630dfe168160e01b815290516000926001600160a01b031691630dfe16819160048083019260209291908290030181865afa158015613f03573d6000803e3d6000fd5b505050506040513d601f19601f82011682018060405250810190613f27919061540e565b610138546040516370a0823160e01b81526001600160a01b03928316926370a0823192613f5992911690600401614cb8565b602060405180830381865afa158015613f76573d6000803e3d6000fd5b505050506040513d601f19601f82011682018060405250810190613f9a919061567e565b9050848111613fa95780613fab565b845b9250505b60005b610133548110156142e0576002613fc98486615d05565b613fd39190615898565b915081156142e05761013a546101385461013d5460405163a3b1173b60e01b81526001600160a01b039384169363a3b1173b936140299391169187918e91600282810b9263010000009004900b90600401615d69565b600060405180830381600087803b15801561404357600080fd5b505af1925050508015614054575060015b6142ce57614060615d9d565b806308c379a0036140bc5750614074615db8565b8061407f57506140be565b7fcfe5be2eb0e35083a07a1b03709c019a1bb2714d5df326008632b8e4e78e7529816040516140ae9190614d1a565b60405180910390a1506142e0565b505b3d8080156140e8576040519150601f19603f3d011682016040523d82523d6000602084013e6140ed565b606091505b5060408051600480825260a082019092528282019160009190602082016080803683370190505090508180602001905181019061412a9190615e41565b8460008151811061413d5761413d615d3c565b602002602001018560018151811061415757614157615d3c565b602002602001018660028151811061417157614171615d3c565b602002602001018760038151811061418b5761418b615d3c565b602090810291909101019390935292909152919052528051819060039081106141b6576141b6615d3c565b60200260200101516000036141cd578495506142ca565b60008b61424d57614248826001815181106141ea576141ea615d3c565b60200260200101518360008151811061420557614205615d3c565b60200260200101518460038151811061422057614220615d3c565b60200260200101518560028151811061423b5761423b615d3c565b6020026020010151614b48565b6142b4565b6142b48260008151811061426357614263615d3c565b60200260200101518360018151811061427e5761427e615d3c565b60200260200101518460028151811061429957614299615d3c565b60200260200101518560038151811061423b5761423b615d3c565b905080156142c4578597506142c8565b8596505b505b5050505b806142d881615e77565b915050613fb2565b509695505050505050565b60008060008360020b12614302578260020b61430f565b8260020b61430f90615e90565b905060008160011660000361432857600160801b61433a565b6ffffcb933bd6fad37aa2d162d1a5940015b6001600160881b03169050600282161561436f57608061436a826ffff97272373d413259a46990580e213a61586b565b901c90505b6004821615614399576080614394826ffff2e50f5f656932ef12357cf3c7fdcc61586b565b901c90505b60088216156143c35760806143be826fffe5caca7e10e4e61c3624eaa0941cd061586b565b901c90505b60108216156143ed5760806143e8826fffcb9843d60f6159c9db58835c92664461586b565b901c90505b6020821615614417576080614412826fff973b41fa98c081472e6896dfb254c061586b565b901c90505b604082161561444157608061443c826fff2ea16466c96a3843ec78b326b5286161586b565b901c90505b608082161561446b576080614466826ffe5dee046a99a2a811c461f1969c305361586b565b901c90505b610100821615614496576080614491826ffcbe86c7900a88aedcffc83b479aa3a461586b565b901c90505b6102008216156144c15760806144bc826ff987a7253ac413176f2b074cf7815e5461586b565b901c90505b6104008216156144ec5760806144e7826ff3392b0822b70005940c7a398e4b70f361586b565b901c90505b610800821615614517576080614512826fe7159475a2c29b7443b29c7fa6e889d961586b565b901c90505b61100082161561454257608061453d826fd097f3bdfd2022b8845ad8f792aa582561586b565b901c90505b61200082161561456d576080614568826fa9f746462d870fdf8a65dc1f90e061e561586b565b901c90505b614000821615614598576080614593826f70d869a156d2a1b890bb3df62baf32f761586b565b901c90505b6180008216156145c35760806145be826f31be135f97d08fd981231505542fcfa661586b565b901c90505b620100008216156145ef5760806145ea826f09aa508b5b7a84e1c677de54f3e99bc961586b565b901c90505b6202000082161561461a576080614615826e5d6af8dedb81196699c329225ee60461586b565b901c90505b6204000082161561464457608061463f826d2216e584f5fa1ea926041bedfe9861586b565b901c90505b6208000082161561466c576080614667826b048a170391f7dc42444e8fa261586b565b901c90505b60008460020b13156146875761468481600019615898565b90505b61469664010000000082615eac565b156146a25760016146a5565b60005b6119219060ff16602083901c615d05565b6040805160808101825261013c54815230602082019081526001600160801b038284018181526060840182815261013954955163fc6f786560e01b81528551600482015293516001600160a01b0390811660248601529151831660448501525190911660648301529192919091169063fc6f78659060840160408051808303816000875af115801561474c573d6000803e3d6000fd5b505050506040513d601f19601f820116820180604052508101906109ae9190615d18565b600080836001600160a01b0316856001600160a01b03161115614791579293925b846001600160a01b0316866001600160a01b0316116147bc576147b5858585614b68565b9150614803565b836001600160a01b0316866001600160a01b031610156147f5576147e1868585614b68565b91506147ee858785614bd2565b9050614803565b614800858585614bd2565b90505b94509492505050565b6000808060001985870985870292508281108382030391505080600003614845576000841161483a57600080fd5b508290049050611fe2565b80841161485157600080fd5b60008486880960026001871981018816978890046003810283188082028403028082028403028082028403028082028403028082028403029081029092039091026000889003889004909101858311909403939093029303949094049190911702949350505050565b61012e5461013a546040516370a0823160e01b8152600092839283926001600160a01b03928316926370a08231926148f792911690600401614cb8565b602060405180830381865afa158015614914573d6000803e3d6000fd5b505050506040513d601f19601f82011682018060405250810190614938919061567e565b90506000805b61013354811015614ac65760026149558486615d05565b61495f9190615898565b91508115614ac65761013a546101385461013d5460405163a3b1173b60e01b81526001600160a01b039384169363a3b1173b936149b6939116918791600091600282810b9263010000009004900b90600401615d69565b600060405180830381600087803b1580156149d057600080fd5b505af19250505080156149e1575060015b614ab4576149ed615d9d565b806308c379a003614a495750614a01615db8565b80614a0c5750614a4b565b7fcfe5be2eb0e35083a07a1b03709c019a1bb2714d5df326008632b8e4e78e752981604051614a3b9190614d1a565b60405180910390a150614ac6565b505b3d808015614a75576040519150601f19603f3d011682016040523d82523d6000602084013e614a7a565b606091505b50600481018051600090614a979084016024908101908501615e41565b505050905088811115614aac57849550614ab0565b8496505b5050505b80614abe81615e77565b91505061493e565b5090949350505050565b6060600080856001600160a01b031685604051614aed9190615ec0565b600060405180830381855af49150503d8060008114614b28576040519150601f19603f3d011682016040523d82523d6000602084013e614b2d565b606091505b5091509150614b3e86838387614c1c565b9695505050505050565b6000614b54838561586b565b614b5e838761586b565b1195945050505050565b6000826001600160a01b0316846001600160a01b03161115614b88579192915b6001600160a01b038416614bc8600160601b600160e01b03606085901b16614bb08787615edc565b6001600160a01b0316866001600160a01b031661480c565b6119219190615898565b6000826001600160a01b0316846001600160a01b03161115614bf2579192915b6119216001600160801b038316614c098686615edc565b6001600160a01b0316600160601b61480c565b60608315614c89578251600003614c8257614c3685611b7b565b614c825760405162461bcd60e51b815260206004820152601d60248201527f416464726573733a2063616c6c20746f206e6f6e2d636f6e74726163740000006044820152606401610a1f565b5081611921565b6119218383815115614c9e5781518083602001fd5b8060405162461bcd60e51b8152600401610a1f9190614d1a565b6001600160a01b0391909116815260200190565b600060208284031215614cde57600080fd5b81356001600160e01b031981168114611fe257600080fd5b60005b83811015614d11578181015183820152602001614cf9565b50506000910152565b6020815260008251806020840152614d39816040850160208701614cf6565b601f01601f19169190910160400192915050565b6001600160a01b0381168114610afb57600080fd5b600080600080600060808688031215614d7a57600080fd5b8535614d8581614d4d565b94506020860135614d9581614d4d565b93506040860135925060608601356001600160401b0380821115614db857600080fd5b818801915088601f830112614dcc57600080fd5b813581811115614ddb57600080fd5b896020828501011115614ded57600080fd5b9699959850939650602001949392505050565b600060208284031215614e1257600080fd5b5035919050565b60008060408385031215614e2c57600080fd5b823591506020830135614e3e81614d4d565b809150509250929050565b600060208284031215614e5b57600080fd5b8135611fe281614d4d565b60006101e08284031215614e7957600080fd5b50919050565b634e487b7160e01b600052604160045260246000fd5b608081018181106001600160401b0382111715614eb457614eb4614e7f565b60405250565b61014081018181106001600160401b0382111715614eb457614eb4614e7f565b601f8201601f191681016001600160401b0381118282101715614eff57614eff614e7f565b6040525050565b60006001600160401b03831115614f1f57614f1f614e7f565b604051614f36601f8501601f191660200182614eda565b809150838152848484011115614f4b57600080fd5b83836020830137600060208583010152509392505050565b60008060408385031215614f7657600080fd5b8235614f8181614d4d565b915060208301356001600160401b03811115614f9c57600080fd5b8301601f81018513614fad57600080fd5b614fbc85823560208401614f06565b9150509250929050565b60008060408385031215614fd957600080fd5b8235614fe481614d4d565b91506020830135614e3e81614d4d565b60006101a080838503121561500857600080fd5b60405161501481614e95565b83356003811061502357600080fd5b815260208481013561503481614d4d565b82820152604085013561504681614d4d565b6040830152607f8501861361505a57600080fd5b60405161506681614eba565b92850192808785111561507857600080fd5b606087015b85811015615094578035825290830190830161507d565b5050606083015250949350505050565b6000602082840312156150b657600080fd5b81356001600160401b038111156150cc57600080fd5b8201601f810184136150dd57600080fd5b61192184823560208401614f06565b600080604083850312156150ff57600080fd5b823561510a81614d4d565b946020939093013593505050565b60008060006060848603121561512d57600080fd5b505081359360208301359350604090920135919050565b634e487b7160e01b600052602160045260246000fd5b606081016003851061517c57634e487b7160e01b600052602160045260246000fd5b9381526001600160a01b039283166020820152911660409091015290565b8015158114610afb57600080fd5b600080600080608085870312156151be57600080fd5b84356151c981614d4d565b93506020850135925060408501356151e081614d4d565b915060608501356151f08161519a565b939692955090935050565b60008083601f84011261520d57600080fd5b5081356001600160401b0381111561522457600080fd5b6020830191508360208260051b850101111561523f57600080fd5b9250929050565b6000806000806000806000806080898b03121561526257600080fd5b88356001600160401b038082111561527957600080fd5b6152858c838d016151fb565b909a50985060208b013591508082111561529e57600080fd5b6152aa8c838d016151fb565b909850965060408b01359150808211156152c357600080fd5b6152cf8c838d016151fb565b909650945060608b01359150808211156152e857600080fd5b506152f58b828c016151fb565b999c989b5096995094979396929594505050565b600181811c9082168061531d57607f821691505b602082108103614e7957634e487b7160e01b600052602260045260246000fd5b6020808252602c908201527f46756e6374696f6e206d7573742062652063616c6c6564207468726f7567682060408201526b19195b1959d85d1958d85b1b60a21b606082015260800190565b6020808252602c908201527f46756e6374696f6e206d7573742062652063616c6c6564207468726f7567682060408201526b6163746976652070726f787960a01b606082015260800190565b6020808252601490820152735265737472696374656420746f2061646d696e7360601b604082015260600190565b80516116b381614d4d565b60006020828403121561542057600080fd5b8151611fe281614d4d565b8060020b8114610afb57600080fd5b60006020828403121561544c57600080fd5b8135611fe28161542b565b60208082526018908201527716995c9bc81859191c995cdcc81b9bdd08185b1b1bddd95960421b604082015260600190565b6020808252602e908201527f496e697469616c697a61626c653a20636f6e747261637420697320616c72656160408201526d191e481a5b9a5d1a585b1a5e995960921b606082015260800190565b9182526001600160a01b0316602082015260400190565b60006020828403121561550057600080fd5b8151611fe28161519a565b6020808252601d908201527f5265737472696374656420746f20506f7274666f6c696f204167656e74000000604082015260600190565b601f8211156109ae57600081815260208120601f850160051c810160208610156155695750805b601f850160051c820191505b81811015612ffd57828155600101615575565b81516001600160401b038111156155a1576155a1614e7f565b6155b5816155af8454615309565b84615542565b602080601f8311600181146155ea57600084156155d25750858301515b600019600386901b1c1916600185901b178555612ffd565b600085815260208120601f198616915b82811015615619578886015182559484019460019091019084016155fa565b50858210156156375787850151600019600388901b60f8161c191681555b5050505050600190811b01905550565b6020808252601f908201527f5265737472696374656420746f20504f5254464f4c494f5f4d414e4147455200604082015260600190565b60006020828403121561569057600080fd5b5051919050565b6020808252601f908201527f5374726174656779204e4156206c657373207468616e20657870656374656400604082015260600190565b6001600160a01b03929092168252602082015260400190565b8183526000602080850194508260005b8581101561572557813561570a81614d4d565b6001600160a01b0316875295820195908201906001016156f7565b509495945050505050565b81835260006001600160fb1b0383111561574957600080fd5b8260051b80836020870137939093016020019392505050565b608081526000615776608083018a8c6156e7565b60208382038185015261578a828a8c6156e7565b9150838203604085015261579f82888a615730565b84810360608601528581529150808201600586811b840183018860005b8981101561582d57868303601f190185528135368c9003601e190181126157e257600080fd5b8b0186810190356001600160401b038111156157fd57600080fd5b80861b360382131561580e57600080fd5b615819858284615730565b9688019694505050908501906001016157bc565b50909f9e505050505050505050505050505050565b634e487b7160e01b600052601160045260246000fd5b818103818111156108e5576108e5615842565b80820281158282048414176108e5576108e5615842565b634e487b7160e01b600052601260045260246000fd5b6000826158a7576158a7615882565b500490565b6020808252601e908201527f536f6d6520746f6b656e7320617265206e6f7420636f6d70617469626c650000604082015260600190565b6020808252600a9082015269139bdd081cdd185ad95960b21b604082015260600190565b76020b1b1b2b9b9a1b7b73a3937b61d1030b1b1b7bab73a1604d1b815260008351615939816017850160208801614cf6565b7001034b99036b4b9b9b4b733903937b6329607d1b601791840191820152835161596a816028840160208801614cf6565b01602801949350505050565b6001600160a01b039485168152602081019390935292166040820152901515606082015260800190565b805162ffffff811681146116b357600080fd5b6000602082840312156159c557600080fd5b611fe2826159a0565b81516001600160a01b03168152610160810160208301516159fa60208401826001600160a01b03169052565b506040830151615a11604084018262ffffff169052565b506060830151615a26606084018260020b9052565b506080830151615a3b608084018260020b9052565b5060a083015160a083015260c083015160c083015260e083015160e083015261010080840151818401525061012080840151615a81828501826001600160a01b03169052565b505061014092830151919092015290565b80516001600160801b03811681146116b357600080fd5b60008060008060808587031215615abf57600080fd5b84519350615acf60208601615a92565b6040860151606090960151949790965092505050565b600060408284031215615af757600080fd5b604051604081018181106001600160401b0382111715615b1957615b19614e7f565b604052825181526020830151615b2e81614d4d565b60208201529392505050565b600080600060608486031215615b4f57600080fd5b615b5884615a92565b925060208401519150604084015190509250925092565b80516116b38161542b565b6000806000806000806000806000806000806101808d8f031215615b9d57600080fd5b8c516bffffffffffffffffffffffff81168114615bb957600080fd5b9b50615bc760208e01615403565b9a50615bd560408e01615403565b9950615be360608e01615403565b9850615bf160808e016159a0565b9750615bff60a08e01615b6f565b9650615c0d60c08e01615b6f565b9550615c1b60e08e01615a92565b94506101008d015193506101208d01519250615c3a6101408e01615a92565b9150615c496101608e01615a92565b90509295989b509295989b509295989b565b805161ffff811681146116b357600080fd5b600080600080600080600060e0888a031215615c8857600080fd5b8751615c9381614d4d565b6020890151909750615ca48161542b565b9550615cb260408901615c5b565b9450615cc060608901615c5b565b9350615cce60808901615c5b565b925060a088015160ff81168114615ce457600080fd5b60c0890151909250615cf58161519a565b8091505092959891949750929550565b808201808211156108e5576108e5615842565b60008060408385031215615d2b57600080fd5b505080516020909101519092909150565b634e487b7160e01b600052603260045260246000fd5b600081615d6157615d61615842565b506000190190565b6001600160a01b0395909516855260208501939093529015156040840152600290810b60608401520b608082015260a00190565b600060033d11156110205760046000803e5060005160e01c90565b600060443d1015615dc65790565b6040516003193d81016004833e81513d6001600160401b038160248401118184111715615df557505050505090565b8285019150815181811115615e0d5750505050505090565b843d8701016020828501011115615e275750505050505090565b615e3660208286010187614eda565b509095945050505050565b60008060008060808587031215615e5757600080fd5b505082516020840151604085015160609095015191969095509092509050565b600060018201615e8957615e89615842565b5060010190565b6000600160ff1b8201615ea557615ea5615842565b5060000390565b600082615ebb57615ebb615882565b500690565b60008251615ed2818460208701614cf6565b9190910192915050565b6001600160a01b03828116828216039080821115615efc57615efc615842565b509291505056fed67ad422505496469a1adf6cdf9e5ee92ac5d33992843c9ecc4b2f6d6cde9137360894a13ba1a3210667c828492db98dca3e2076cc3735a920a3ca505d382bbc416464726573733a206c6f772d6c6576656c2064656c65676174652063616c6c206661696c6564a26469706673582212203c8e3d91730aeda8163d9b2500847a2012912c34708e673b9da90bd693eb724f64736f6c63430008110033",
  "implementation": "0xE62ECe12576Af7be4E525e7c0884c657Cd68C89F",
  "devdoc": {
    "kind": "dev",
    "methods": {
      "constructor": {
        "custom:oz-upgrades-unsafe-allow": "constructor"
      },
      "getRoleAdmin(bytes32)": {
        "details": "Returns the admin role that controls `role`. See {grantRole} and {revokeRole}. To change a role's admin, use {_setRoleAdmin}."
      },
      "grantRole(bytes32,address)": {
        "details": "Grants `role` to `account`. If `account` had not been already granted `role`, emits a {RoleGranted} event. Requirements: - the caller must have ``role``'s admin role. May emit a {RoleGranted} event."
      },
      "hasRole(bytes32,address)": {
        "details": "Returns `true` if `account` has been granted `role`."
      },
      "proxiableUUID()": {
        "details": "Implementation of the ERC1822 {proxiableUUID} function. This returns the storage slot used by the implementation. It is used to validate the implementation's compatibility when performing an upgrade. IMPORTANT: A proxy pointing at a proxiable contract should not be considered proxiable itself, because this risks bricking a proxy that upgrades to it, by delegating to itself until out of gas. Thus it is critical that this function revert if invoked through a proxy. This is guaranteed by the `notDelegated` modifier."
      },
      "renounceRole(bytes32,address)": {
        "details": "Revokes `role` from the calling account. Roles are often managed via {grantRole} and {revokeRole}: this function's purpose is to provide a mechanism for accounts to lose their privileges if they are compromised (such as when a trusted device is misplaced). If the calling account had been revoked `role`, emits a {RoleRevoked} event. Requirements: - the caller must be `account`. May emit a {RoleRevoked} event."
      },
      "revokeRole(bytes32,address)": {
        "details": "Revokes `role` from `account`. If `account` had been granted `role`, emits a {RoleRevoked} event. Requirements: - the caller must have ``role``'s admin role. May emit a {RoleRevoked} event."
      },
      "supportsInterface(bytes4)": {
        "details": "See {IERC165-supportsInterface}."
      },
      "upgradeTo(address)": {
        "custom:oz-upgrades-unsafe-allow-reachable": "delegatecall",
        "details": "Upgrade the implementation of the proxy to `newImplementation`. Calls {_authorizeUpgrade}. Emits an {Upgraded} event."
      },
      "upgradeToAndCall(address,bytes)": {
        "custom:oz-upgrades-unsafe-allow-reachable": "delegatecall",
        "details": "Upgrade the implementation of the proxy to `newImplementation`, and subsequently execute the function call encoded in `data`. Calls {_authorizeUpgrade}. Emits an {Upgraded} event."
      }
    },
    "version": 1
  },
  "userdoc": {
    "kind": "user",
    "methods": {},
    "version": 1
  },
  "storageLayout": {
    "storage": [
      {
        "astId": 782,
        "contract": "contracts/StrategyThrusterSwap.sol:StrategyThrusterSwap",
        "label": "_initialized",
        "offset": 0,
        "slot": "0",
        "type": "t_uint8"
      },
      {
        "astId": 785,
        "contract": "contracts/StrategyThrusterSwap.sol:StrategyThrusterSwap",
        "label": "_initializing",
        "offset": 1,
        "slot": "0",
        "type": "t_bool"
      },
      {
        "astId": 1461,
        "contract": "contracts/StrategyThrusterSwap.sol:StrategyThrusterSwap",
        "label": "__gap",
        "offset": 0,
        "slot": "1",
        "type": "t_array(t_uint256)50_storage"
      },
      {
        "astId": 1845,
        "contract": "contracts/StrategyThrusterSwap.sol:StrategyThrusterSwap",
        "label": "__gap",
        "offset": 0,
        "slot": "51",
        "type": "t_array(t_uint256)50_storage"
      },
      {
        "astId": 28,
        "contract": "contracts/StrategyThrusterSwap.sol:StrategyThrusterSwap",
        "label": "_roles",
        "offset": 0,
        "slot": "101",
        "type": "t_mapping(t_bytes32,t_struct(RoleData)23_storage)"
      },
      {
        "astId": 335,
        "contract": "contracts/StrategyThrusterSwap.sol:StrategyThrusterSwap",
        "label": "__gap",
        "offset": 0,
        "slot": "102",
        "type": "t_array(t_uint256)49_storage"
      },
      {
        "astId": 764,
        "contract": "contracts/StrategyThrusterSwap.sol:StrategyThrusterSwap",
        "label": "__gap",
        "offset": 0,
        "slot": "151",
        "type": "t_array(t_uint256)50_storage"
      },
      {
        "astId": 1080,
        "contract": "contracts/StrategyThrusterSwap.sol:StrategyThrusterSwap",
        "label": "__gap",
        "offset": 0,
        "slot": "201",
        "type": "t_array(t_uint256)50_storage"
      },
      {
        "astId": 9246,
        "contract": "contracts/StrategyThrusterSwap.sol:StrategyThrusterSwap",
        "label": "portfolioManager",
        "offset": 0,
        "slot": "251",
        "type": "t_address"
      },
      {
        "astId": 9248,
        "contract": "contracts/StrategyThrusterSwap.sol:StrategyThrusterSwap",
        "label": "swapSlippageBP",
        "offset": 0,
        "slot": "252",
        "type": "t_uint256"
      },
      {
        "astId": 9250,
        "contract": "contracts/StrategyThrusterSwap.sol:StrategyThrusterSwap",
        "label": "navSlippageBP",
        "offset": 0,
        "slot": "253",
        "type": "t_uint256"
      },
      {
        "astId": 9252,
        "contract": "contracts/StrategyThrusterSwap.sol:StrategyThrusterSwap",
        "label": "stakeSlippageBP",
        "offset": 0,
        "slot": "254",
        "type": "t_uint256"
      },
      {
        "astId": 9255,
        "contract": "contracts/StrategyThrusterSwap.sol:StrategyThrusterSwap",
        "label": "roleManager",
        "offset": 0,
        "slot": "255",
        "type": "t_contract(IRoleManager)9800"
      },
      {
        "astId": 9257,
        "contract": "contracts/StrategyThrusterSwap.sol:StrategyThrusterSwap",
        "label": "name",
        "offset": 0,
        "slot": "256",
        "type": "t_string_storage"
      },
      {
        "astId": 9260,
        "contract": "contracts/StrategyThrusterSwap.sol:StrategyThrusterSwap",
        "label": "claimConfig",
        "offset": 0,
        "slot": "257",
        "type": "t_struct(ClaimConfig)9950_storage"
      },
      {
        "astId": 9787,
        "contract": "contracts/StrategyThrusterSwap.sol:StrategyThrusterSwap",
        "label": "__gap",
        "offset": 0,
        "slot": "269",
        "type": "t_array(t_uint256)32_storage"
      },
      {
        "astId": 11507,
        "contract": "contracts/StrategyThrusterSwap.sol:StrategyThrusterSwap",
        "label": "usdb",
        "offset": 0,
        "slot": "301",
        "type": "t_contract(IERC20)2987"
      },
      {
        "astId": 11510,
        "contract": "contracts/StrategyThrusterSwap.sol:StrategyThrusterSwap",
        "label": "usdPlus",
        "offset": 0,
        "slot": "302",
        "type": "t_contract(IERC20)2987"
      },
      {
        "astId": 11513,
        "contract": "contracts/StrategyThrusterSwap.sol:StrategyThrusterSwap",
        "label": "hyper",
        "offset": 0,
        "slot": "303",
        "type": "t_contract(IERC20)2987"
      },
      {
        "astId": 11516,
        "contract": "contracts/StrategyThrusterSwap.sol:StrategyThrusterSwap",
        "label": "thrust",
        "offset": 0,
        "slot": "304",
        "type": "t_contract(IERC20)2987"
      },
      {
        "astId": 11519,
        "contract": "contracts/StrategyThrusterSwap.sol:StrategyThrusterSwap",
        "label": "weth",
        "offset": 0,
        "slot": "305",
        "type": "t_contract(IERC20)2987"
      },
      {
        "astId": 11522,
        "contract": "contracts/StrategyThrusterSwap.sol:StrategyThrusterSwap",
        "label": "DELETED_1",
        "offset": 0,
        "slot": "306",
        "type": "t_array(t_int24)dyn_storage"
      },
      {
        "astId": 11524,
        "contract": "contracts/StrategyThrusterSwap.sol:StrategyThrusterSwap",
        "label": "binSearchIterations",
        "offset": 0,
        "slot": "307",
        "type": "t_uint256"
      },
      {
        "astId": 11527,
        "contract": "contracts/StrategyThrusterSwap.sol:StrategyThrusterSwap",
        "label": "poolUsdbWeth",
        "offset": 0,
        "slot": "308",
        "type": "t_contract(ICLPool)7548"
      },
      {
        "astId": 11530,
        "contract": "contracts/StrategyThrusterSwap.sol:StrategyThrusterSwap",
        "label": "poolWethHyper",
        "offset": 0,
        "slot": "309",
        "type": "t_contract(ICLPool)7548"
      },
      {
        "astId": 11533,
        "contract": "contracts/StrategyThrusterSwap.sol:StrategyThrusterSwap",
        "label": "poolWethThrust",
        "offset": 0,
        "slot": "310",
        "type": "t_contract(ICLPool)7548"
      },
      {
        "astId": 11535,
        "contract": "contracts/StrategyThrusterSwap.sol:StrategyThrusterSwap",
        "label": "rewardSwapSlippageBP",
        "offset": 0,
        "slot": "311",
        "type": "t_uint256"
      },
      {
        "astId": 11538,
        "contract": "contracts/StrategyThrusterSwap.sol:StrategyThrusterSwap",
        "label": "pool",
        "offset": 0,
        "slot": "312",
        "type": "t_contract(ICLPool)7548"
      },
      {
        "astId": 11541,
        "contract": "contracts/StrategyThrusterSwap.sol:StrategyThrusterSwap",
        "label": "npm",
        "offset": 0,
        "slot": "313",
        "type": "t_contract(INonfungiblePositionManager)9154"
      },
      {
        "astId": 11544,
        "contract": "contracts/StrategyThrusterSwap.sol:StrategyThrusterSwap",
        "label": "swapSimulator",
        "offset": 0,
        "slot": "314",
        "type": "t_contract(ISwapSimulator)15755"
      },
      {
        "astId": 11547,
        "contract": "contracts/StrategyThrusterSwap.sol:StrategyThrusterSwap",
        "label": "nfpBooster",
        "offset": 0,
        "slot": "315",
        "type": "t_contract(INFPBooster)7593"
      },
      {
        "astId": 11549,
        "contract": "contracts/StrategyThrusterSwap.sol:StrategyThrusterSwap",
        "label": "tokenLP",
        "offset": 0,
        "slot": "316",
        "type": "t_uint256"
      },
      {
        "astId": 11551,
        "contract": "contracts/StrategyThrusterSwap.sol:StrategyThrusterSwap",
        "label": "lowerTick",
        "offset": 0,
        "slot": "317",
        "type": "t_int24"
      },
      {
        "astId": 11553,
        "contract": "contracts/StrategyThrusterSwap.sol:StrategyThrusterSwap",
        "label": "upperTick",
        "offset": 3,
        "slot": "317",
        "type": "t_int24"
      },
      {
        "astId": 11555,
        "contract": "contracts/StrategyThrusterSwap.sol:StrategyThrusterSwap",
        "label": "liquidityDecreaseDeviationBP",
        "offset": 0,
        "slot": "318",
        "type": "t_uint256"
      }
    ],
    "types": {
      "t_address": {
        "encoding": "inplace",
        "label": "address",
        "numberOfBytes": "20"
      },
      "t_array(t_int24)dyn_storage": {
        "base": "t_int24",
        "encoding": "dynamic_array",
        "label": "int24[]",
        "numberOfBytes": "32"
      },
      "t_array(t_uint256)10_storage": {
        "base": "t_uint256",
        "encoding": "inplace",
        "label": "uint256[10]",
        "numberOfBytes": "320"
      },
      "t_array(t_uint256)32_storage": {
        "base": "t_uint256",
        "encoding": "inplace",
        "label": "uint256[32]",
        "numberOfBytes": "1024"
      },
      "t_array(t_uint256)49_storage": {
        "base": "t_uint256",
        "encoding": "inplace",
        "label": "uint256[49]",
        "numberOfBytes": "1568"
      },
      "t_array(t_uint256)50_storage": {
        "base": "t_uint256",
        "encoding": "inplace",
        "label": "uint256[50]",
        "numberOfBytes": "1600"
      },
      "t_bool": {
        "encoding": "inplace",
        "label": "bool",
        "numberOfBytes": "1"
      },
      "t_bytes32": {
        "encoding": "inplace",
        "label": "bytes32",
        "numberOfBytes": "32"
      },
      "t_contract(ICLPool)7548": {
        "encoding": "inplace",
        "label": "contract ICLPool",
        "numberOfBytes": "20"
      },
      "t_contract(IERC20)2987": {
        "encoding": "inplace",
        "label": "contract IERC20",
        "numberOfBytes": "20"
      },
      "t_contract(INFPBooster)7593": {
        "encoding": "inplace",
        "label": "contract INFPBooster",
        "numberOfBytes": "20"
      },
      "t_contract(INonfungiblePositionManager)9154": {
        "encoding": "inplace",
        "label": "contract INonfungiblePositionManager",
        "numberOfBytes": "20"
      },
      "t_contract(IRoleManager)9800": {
        "encoding": "inplace",
        "label": "contract IRoleManager",
        "numberOfBytes": "20"
      },
      "t_contract(ISwapSimulator)15755": {
        "encoding": "inplace",
        "label": "contract ISwapSimulator",
        "numberOfBytes": "20"
      },
      "t_enum(Operation)9954": {
        "encoding": "inplace",
        "label": "enum IStrategy.Operation",
        "numberOfBytes": "1"
      },
      "t_int24": {
        "encoding": "inplace",
        "label": "int24",
        "numberOfBytes": "3"
      },
      "t_mapping(t_address,t_bool)": {
        "encoding": "mapping",
        "key": "t_address",
        "label": "mapping(address => bool)",
        "numberOfBytes": "32",
        "value": "t_bool"
      },
      "t_mapping(t_bytes32,t_struct(RoleData)23_storage)": {
        "encoding": "mapping",
        "key": "t_bytes32",
        "label": "mapping(bytes32 => struct AccessControlUpgradeable.RoleData)",
        "numberOfBytes": "32",
        "value": "t_struct(RoleData)23_storage"
      },
      "t_string_storage": {
        "encoding": "bytes",
        "label": "string",
        "numberOfBytes": "32"
      },
      "t_struct(ClaimConfig)9950_storage": {
        "encoding": "inplace",
        "label": "struct IStrategy.ClaimConfig",
        "members": [
          {
            "astId": 9941,
            "contract": "contracts/StrategyThrusterSwap.sol:StrategyThrusterSwap",
            "label": "operation",
            "offset": 0,
            "slot": "0",
            "type": "t_enum(Operation)9954"
          },
          {
            "astId": 9943,
            "contract": "contracts/StrategyThrusterSwap.sol:StrategyThrusterSwap",
            "label": "beneficiary",
            "offset": 1,
            "slot": "0",
            "type": "t_address"
          },
          {
            "astId": 9945,
            "contract": "contracts/StrategyThrusterSwap.sol:StrategyThrusterSwap",
            "label": "distributor",
            "offset": 0,
            "slot": "1",
            "type": "t_address"
          },
          {
            "astId": 9949,
            "contract": "contracts/StrategyThrusterSwap.sol:StrategyThrusterSwap",
            "label": "__gap",
            "offset": 0,
            "slot": "2",
            "type": "t_array(t_uint256)10_storage"
          }
        ],
        "numberOfBytes": "384"
      },
      "t_struct(RoleData)23_storage": {
        "encoding": "inplace",
        "label": "struct AccessControlUpgradeable.RoleData",
        "members": [
          {
            "astId": 20,
            "contract": "contracts/StrategyThrusterSwap.sol:StrategyThrusterSwap",
            "label": "members",
            "offset": 0,
            "slot": "0",
            "type": "t_mapping(t_address,t_bool)"
          },
          {
            "astId": 22,
            "contract": "contracts/StrategyThrusterSwap.sol:StrategyThrusterSwap",
            "label": "adminRole",
            "offset": 0,
            "slot": "1",
            "type": "t_bytes32"
          }
        ],
        "numberOfBytes": "64"
      },
      "t_uint256": {
        "encoding": "inplace",
        "label": "uint256",
        "numberOfBytes": "32"
      },
      "t_uint8": {
        "encoding": "inplace",
        "label": "uint8",
        "numberOfBytes": "1"
      }
    }
  }
}