{
  "address": "0x0777Cdf187782832c9D98c0aB73cCdc19D271B54",
  "abi": [
    {
      "inputs": [
        {
          "internalType": "uint160",
          "name": "sqrtRatioX96",
          "type": "uint160"
        }
      ],
      "name": "PriceAfterSwapError",
      "type": "error"
    },
    {
      "inputs": [
        {
          "internalType": "uint256",
          "name": "amountIn",
          "type": "uint256"
        },
        {
          "internalType": "uint160",
          "name": "newSqrtRatioX96",
          "type": "uint160"
        },
        {
          "internalType": "uint160",
          "name": "sqrtPriceLimitX96",
          "type": "uint160"
        },
        {
          "internalType": "bool",
          "name": "zeroForOne",
          "type": "bool"
        }
      ],
      "name": "SlippageError",
      "type": "error"
    },
    {
      "inputs": [
        {
          "internalType": "uint256",
          "name": "balance0",
          "type": "uint256"
        },
        {
          "internalType": "uint256",
          "name": "balance1",
          "type": "uint256"
        },
        {
          "internalType": "uint256",
          "name": "ratio0",
          "type": "uint256"
        },
        {
          "internalType": "uint256",
          "name": "ratio1",
          "type": "uint256"
        }
      ],
      "name": "SwapError",
      "type": "error"
    },
    {
      "anonymous": false,
      "inputs": [
        {
          "indexed": false,
          "internalType": "address",
          "name": "previousAdmin",
          "type": "address"
        },
        {
          "indexed": false,
          "internalType": "address",
          "name": "newAdmin",
          "type": "address"
        }
      ],
      "name": "AdminChanged",
      "type": "event"
    },
    {
      "anonymous": false,
      "inputs": [
        {
          "indexed": true,
          "internalType": "address",
          "name": "beacon",
          "type": "address"
        }
      ],
      "name": "BeaconUpgraded",
      "type": "event"
    },
    {
      "anonymous": false,
      "inputs": [
        {
          "indexed": false,
          "internalType": "uint8",
          "name": "version",
          "type": "uint8"
        }
      ],
      "name": "Initialized",
      "type": "event"
    },
    {
      "anonymous": false,
      "inputs": [
        {
          "indexed": true,
          "internalType": "bytes32",
          "name": "role",
          "type": "bytes32"
        },
        {
          "indexed": true,
          "internalType": "bytes32",
          "name": "previousAdminRole",
          "type": "bytes32"
        },
        {
          "indexed": true,
          "internalType": "bytes32",
          "name": "newAdminRole",
          "type": "bytes32"
        }
      ],
      "name": "RoleAdminChanged",
      "type": "event"
    },
    {
      "anonymous": false,
      "inputs": [
        {
          "indexed": true,
          "internalType": "bytes32",
          "name": "role",
          "type": "bytes32"
        },
        {
          "indexed": true,
          "internalType": "address",
          "name": "account",
          "type": "address"
        },
        {
          "indexed": true,
          "internalType": "address",
          "name": "sender",
          "type": "address"
        }
      ],
      "name": "RoleGranted",
      "type": "event"
    },
    {
      "anonymous": false,
      "inputs": [
        {
          "indexed": true,
          "internalType": "bytes32",
          "name": "role",
          "type": "bytes32"
        },
        {
          "indexed": true,
          "internalType": "address",
          "name": "account",
          "type": "address"
        },
        {
          "indexed": true,
          "internalType": "address",
          "name": "sender",
          "type": "address"
        }
      ],
      "name": "RoleRevoked",
      "type": "event"
    },
    {
      "anonymous": false,
      "inputs": [
        {
          "indexed": true,
          "internalType": "address",
          "name": "implementation",
          "type": "address"
        }
      ],
      "name": "Upgraded",
      "type": "event"
    },
    {
      "inputs": [],
      "name": "DEFAULT_ADMIN_ROLE",
      "outputs": [
        {
          "internalType": "bytes32",
          "name": "",
          "type": "bytes32"
        }
      ],
      "stateMutability": "view",
      "type": "function"
    },
    {
      "inputs": [],
      "name": "factory",
      "outputs": [
        {
          "internalType": "address",
          "name": "",
          "type": "address"
        }
      ],
      "stateMutability": "view",
      "type": "function"
    },
    {
      "inputs": [
        {
          "internalType": "bytes32",
          "name": "role",
          "type": "bytes32"
        }
      ],
      "name": "getRoleAdmin",
      "outputs": [
        {
          "internalType": "bytes32",
          "name": "",
          "type": "bytes32"
        }
      ],
      "stateMutability": "view",
      "type": "function"
    },
    {
      "inputs": [
        {
          "internalType": "bytes32",
          "name": "role",
          "type": "bytes32"
        },
        {
          "internalType": "address",
          "name": "account",
          "type": "address"
        }
      ],
      "name": "grantRole",
      "outputs": [],
      "stateMutability": "nonpayable",
      "type": "function"
    },
    {
      "inputs": [
        {
          "internalType": "bytes32",
          "name": "role",
          "type": "bytes32"
        },
        {
          "internalType": "address",
          "name": "account",
          "type": "address"
        }
      ],
      "name": "hasRole",
      "outputs": [
        {
          "internalType": "bool",
          "name": "",
          "type": "bool"
        }
      ],
      "stateMutability": "view",
      "type": "function"
    },
    {
      "inputs": [],
      "name": "initialize",
      "outputs": [],
      "stateMutability": "nonpayable",
      "type": "function"
    },
    {
      "inputs": [],
      "name": "proxiableUUID",
      "outputs": [
        {
          "internalType": "bytes32",
          "name": "",
          "type": "bytes32"
        }
      ],
      "stateMutability": "view",
      "type": "function"
    },
    {
      "inputs": [
        {
          "internalType": "bytes32",
          "name": "role",
          "type": "bytes32"
        },
        {
          "internalType": "address",
          "name": "account",
          "type": "address"
        }
      ],
      "name": "renounceRole",
      "outputs": [],
      "stateMutability": "nonpayable",
      "type": "function"
    },
    {
      "inputs": [
        {
          "internalType": "bytes32",
          "name": "role",
          "type": "bytes32"
        },
        {
          "internalType": "address",
          "name": "account",
          "type": "address"
        }
      ],
      "name": "revokeRole",
      "outputs": [],
      "stateMutability": "nonpayable",
      "type": "function"
    },
    {
      "inputs": [
        {
          "components": [
            {
              "internalType": "address",
              "name": "strategy",
              "type": "address"
            },
            {
              "internalType": "address",
              "name": "factory",
              "type": "address"
            }
          ],
          "internalType": "struct SwapSimulatorThruster.SimulationParams",
          "name": "params",
          "type": "tuple"
        }
      ],
      "name": "setSimulationParams",
      "outputs": [],
      "stateMutability": "nonpayable",
      "type": "function"
    },
    {
      "inputs": [
        {
          "internalType": "address",
          "name": "pair",
          "type": "address"
        },
        {
          "internalType": "uint256",
          "name": "amountIn",
          "type": "uint256"
        },
        {
          "internalType": "bool",
          "name": "zeroForOne",
          "type": "bool"
        }
      ],
      "name": "simulatePriceAfterSwap",
      "outputs": [],
      "stateMutability": "nonpayable",
      "type": "function"
    },
    {
      "inputs": [
        {
          "internalType": "address",
          "name": "pair",
          "type": "address"
        },
        {
          "internalType": "uint256",
          "name": "amountIn",
          "type": "uint256"
        },
        {
          "internalType": "bool",
          "name": "zeroForOne",
          "type": "bool"
        },
        {
          "internalType": "int24",
          "name": "lowerTick",
          "type": "int24"
        },
        {
          "internalType": "int24",
          "name": "upperTick",
          "type": "int24"
        }
      ],
      "name": "simulateSwap",
      "outputs": [],
      "stateMutability": "nonpayable",
      "type": "function"
    },
    {
      "inputs": [],
      "name": "strategy",
      "outputs": [
        {
          "internalType": "address",
          "name": "",
          "type": "address"
        }
      ],
      "stateMutability": "view",
      "type": "function"
    },
    {
      "inputs": [
        {
          "internalType": "bytes4",
          "name": "interfaceId",
          "type": "bytes4"
        }
      ],
      "name": "supportsInterface",
      "outputs": [
        {
          "internalType": "bool",
          "name": "",
          "type": "bool"
        }
      ],
      "stateMutability": "view",
      "type": "function"
    },
    {
      "inputs": [
        {
          "internalType": "address",
          "name": "pair",
          "type": "address"
        },
        {
          "internalType": "uint256",
          "name": "amountIn",
          "type": "uint256"
        },
        {
          "internalType": "uint160",
          "name": "sqrtPriceLimitX96",
          "type": "uint160"
        },
        {
          "internalType": "bool",
          "name": "zeroForOne",
          "type": "bool"
        }
      ],
      "name": "swap",
      "outputs": [],
      "stateMutability": "nonpayable",
      "type": "function"
    },
    {
      "inputs": [
        {
          "internalType": "address",
          "name": "thrustAddress",
          "type": "address"
        },
        {
          "internalType": "address",
          "name": "wethAddress",
          "type": "address"
        },
        {
          "internalType": "address",
          "name": "wethTrust",
          "type": "address"
        },
        {
          "internalType": "address",
          "name": "usdbWeth",
          "type": "address"
        },
        {
          "internalType": "uint256",
          "name": "rewardSwapSlippageBP",
          "type": "uint256"
        }
      ],
      "name": "swapRewards",
      "outputs": [],
      "stateMutability": "nonpayable",
      "type": "function"
    },
    {
      "inputs": [
        {
          "internalType": "uint256",
          "name": "tokenLP",
          "type": "uint256"
        },
        {
          "internalType": "address",
          "name": "poolAddress",
          "type": "address"
        },
        {
          "internalType": "address",
          "name": "npmAddress",
          "type": "address"
        },
        {
          "internalType": "int24",
          "name": "lowerTick",
          "type": "int24"
        },
        {
          "internalType": "int24",
          "name": "upperTick",
          "type": "int24"
        },
        {
          "internalType": "address",
          "name": "usdbAddress",
          "type": "address"
        },
        {
          "internalType": "address",
          "name": "usdPlusAddress",
          "type": "address"
        }
      ],
      "name": "totalValue",
      "outputs": [
        {
          "internalType": "uint256",
          "name": "",
          "type": "uint256"
        }
      ],
      "stateMutability": "view",
      "type": "function"
    },
    {
      "inputs": [
        {
          "internalType": "int256",
          "name": "amount0Delta",
          "type": "int256"
        },
        {
          "internalType": "int256",
          "name": "amount1Delta",
          "type": "int256"
        },
        {
          "internalType": "bytes",
          "name": "_data",
          "type": "bytes"
        }
      ],
      "name": "uniswapV3SwapCallback",
      "outputs": [],
      "stateMutability": "nonpayable",
      "type": "function"
    },
    {
      "inputs": [
        {
          "internalType": "address",
          "name": "newImplementation",
          "type": "address"
        }
      ],
      "name": "upgradeTo",
      "outputs": [],
      "stateMutability": "nonpayable",
      "type": "function"
    },
    {
      "inputs": [
        {
          "internalType": "address",
          "name": "newImplementation",
          "type": "address"
        },
        {
          "internalType": "bytes",
          "name": "data",
          "type": "bytes"
        }
      ],
      "name": "upgradeToAndCall",
      "outputs": [],
      "stateMutability": "payable",
      "type": "function"
    },
    {
      "inputs": [
        {
          "internalType": "address",
          "name": "pair",
          "type": "address"
        }
      ],
      "name": "withdrawAll",
      "outputs": [],
      "stateMutability": "nonpayable",
      "type": "function"
    }
  ],
  "numDeployments": 30,
  "solcInputHash": "703a2a58e891fe8379db7c5670b123fc",
  "bytecode": "0x60a06040523060805234801561001457600080fd5b50608051613d7761004c600039600081816105ac015281816105ec01528181610674015281816106b4015261072c0152613d776000f3fe60806040526004361061012a5760003560e01c8063a217fddf116100ab578063c45a01551161006f578063c45a015514610323578063cbc8a37514610343578063d547741f14610363578063e25d44d114610383578063fa09e630146103a3578063fa461e33146103c357600080fd5b8063a217fddf14610281578063a3b1173b14610296578063a8c62e76146102b6578063b689e68d146102e3578063bc2844e71461030357600080fd5b80633659cfe6116100f25780633659cfe6146102045780634f1ef2861461022457806352d1902d146102375780638129fc1c1461024c57806391d148541461026157600080fd5b806301ffc9a71461012f5780631f24936214610164578063248a9ca3146101865780632f2ff15d146101c457806336568abe146101e4575b600080fd5b34801561013b57600080fd5b5061014f61014a36600461318c565b6103e3565b60405190151581526020015b60405180910390f35b34801561017057600080fd5b5061018461017f3660046131d9565b61041a565b005b34801561019257600080fd5b506101b66101a136600461321b565b60009081526065602052604090206001015490565b60405190815260200161015b565b3480156101d057600080fd5b506101846101df366004613234565b6104fa565b3480156101f057600080fd5b506101846101ff366004613234565b610524565b34801561021057600080fd5b5061018461021f366004613264565b6105a2565b6101846102323660046132c8565b61066a565b34801561024357600080fd5b506101b661071f565b34801561025857600080fd5b506101846107cd565b34801561026d57600080fd5b5061014f61027c366004613234565b6108f0565b34801561028d57600080fd5b506101b6600081565b3480156102a257600080fd5b506101846102b136600461337f565b61091b565b3480156102c257600080fd5b5060fb546102d6906001600160a01b031681565b60405161015b91906133e7565b3480156102ef57600080fd5b506101b66102fe3660046133fb565b610bd9565b34801561030f57600080fd5b5061018461031e366004613488565b610e28565b34801561032f57600080fd5b5060fc546102d6906001600160a01b031681565b34801561034f57600080fd5b5061018461035e36600461349a565b610eaf565b34801561036f57600080fd5b5061018461037e366004613234565b611529565b34801561038f57600080fd5b5061018461039e3660046134fe565b61154e565b3480156103af57600080fd5b506101846103be366004613264565b6118d1565b3480156103cf57600080fd5b506101846103de366004613551565b611c6f565b60006001600160e01b03198216637965db0b60e01b148061041457506301ffc9a760e01b6001600160e01b03198316145b92915050565b60fb546001600160a01b0316331461044d5760405162461bcd60e51b8152600401610444906135d1565b60405180910390fd5b82600082610462576001600160a01b03610465565b60005b90506104738585838661154e565b6000826001600160a01b0316633850c7bd6040518163ffffffff1660e01b815260040160e060405180830381865afa1580156104b3573d6000803e3d6000fd5b505050506040513d601f19601f820116820180604052508101906104d79190613622565b505050505050905080604051633e32c94d60e01b815260040161044491906133e7565b60008281526065602052604090206001015461051581611deb565b61051f8383611df5565b505050565b6001600160a01b03811633146105945760405162461bcd60e51b815260206004820152602f60248201527f416363657373436f6e74726f6c3a2063616e206f6e6c792072656e6f756e636560448201526e103937b632b9903337b91039b2b63360891b6064820152608401610444565b61059e8282611e7b565b5050565b6001600160a01b037f00000000000000000000000000000000000000000000000000000000000000001630036105ea5760405162461bcd60e51b8152600401610444906136a1565b7f00000000000000000000000000000000000000000000000000000000000000006001600160a01b031661061c611ee2565b6001600160a01b0316146106425760405162461bcd60e51b8152600401610444906136ed565b61064b81611efe565b6040805160008082526020820190925261066791839190611f25565b50565b6001600160a01b037f00000000000000000000000000000000000000000000000000000000000000001630036106b25760405162461bcd60e51b8152600401610444906136a1565b7f00000000000000000000000000000000000000000000000000000000000000006001600160a01b03166106e4611ee2565b6001600160a01b03161461070a5760405162461bcd60e51b8152600401610444906136ed565b61071382611efe565b61059e82826001611f25565b6000306001600160a01b037f000000000000000000000000000000000000000000000000000000000000000016146107ba5760405162461bcd60e51b815260206004820152603860248201527f555550535570677261646561626c653a206d757374206e6f742062652063616c6044820152771b1959081d1a1c9bdd59da0819195b1959d85d1958d85b1b60421b6064820152608401610444565b50600080516020613cfb83398151915290565b600054610100900460ff16158080156107ed5750600054600160ff909116105b806108075750303b158015610807575060005460ff166001145b61086a5760405162461bcd60e51b815260206004820152602e60248201527f496e697469616c697a61626c653a20636f6e747261637420697320616c72656160448201526d191e481a5b9a5d1a585b1a5e995960921b6064820152608401610444565b6000805460ff19166001179055801561088d576000805461ff0019166101001790555b610895612090565b61089d612090565b6108a8600033611df5565b8015610667576000805461ff0019169055604051600181527f7f26b83ff96e1f2b6a682f133852f6798a09c465da95921460cefb38474024989060200160405180910390a150565b60009182526065602090815260408084206001600160a01b0393909316845291905290205460ff1690565b60fb546001600160a01b031633146109455760405162461bcd60e51b8152600401610444906135d1565b84600061095c8561095657836120fd565b846120fd565b905061096a8787838861154e565b6040805160028082526060820183526000926020830190803683370190505090506109968386866124d0565b826000815181106109a9576109a9613739565b60200260200101836001815181106109c3576109c3613739565b6020026020010182815250828152505050826001600160a01b0316630dfe16816040518163ffffffff1660e01b8152600401602060405180830381865afa158015610a12573d6000803e3d6000fd5b505050506040513d601f19601f82011682018060405250810190610a36919061375a565b6001600160a01b03166370a08231306040518263ffffffff1660e01b8152600401610a6191906133e7565b602060405180830381865afa158015610a7e573d6000803e3d6000fd5b505050506040513d601f19601f82011682018060405250810190610aa29190613777565b836001600160a01b031663d21220a76040518163ffffffff1660e01b8152600401602060405180830381865afa158015610ae0573d6000803e3d6000fd5b505050506040513d601f19601f82011682018060405250810190610b04919061375a565b6001600160a01b03166370a08231306040518263ffffffff1660e01b8152600401610b2f91906133e7565b602060405180830381865afa158015610b4c573d6000803e3d6000fd5b505050506040513d601f19601f82011682018060405250810190610b709190613777565b82600081518110610b8357610b83613739565b602002602001015183600181518110610b9e57610b9e613739565b602002602001015160405163a0ad33dd60e01b8152600401610444949392919093845260208401929092526040830152606082015260800190565b60fb546000906001600160a01b03163314610c065760405162461bcd60e51b8152600401610444906135d1565b6000808915610d1e576000896001600160a01b0316633850c7bd6040518163ffffffff1660e01b815260040160e060405180830381865afa158015610c4f573d6000803e3d6000fd5b505050506040513d601f19601f82011682018060405250810190610c739190613622565b50505050505090506000896001600160a01b03166399fbab888d6040518263ffffffff1660e01b8152600401610cab91815260200190565b61018060405180830381865afa158015610cc9573d6000803e3d6000fd5b505050506040513d601f19601f82011682018060405250810190610ced91906137c3565b50505050975050505050505050610d1682610d078b6120fd565b610d108b6120fd565b8461278f565b909450925050505b6040516370a0823160e01b81526000906001600160a01b038616906370a0823190610d4d9033906004016133e7565b602060405180830381865afa158015610d6a573d6000803e3d6000fd5b505050506040513d601f19601f82011682018060405250810190610d8e9190613777565b6040516370a0823160e01b81526001600160a01b038816906370a0823190610dba9033906004016133e7565b602060405180830381865afa158015610dd7573d6000803e3d6000fd5b505050506040513d601f19601f82011682018060405250810190610dfb9190613777565b610e0584866138ba565b610e0f91906138ba565b610e1991906138ba565b9b9a5050505050505050505050565b610e336000336108f0565b610e4f5760405162461bcd60e51b8152600401610444906138cd565b610e5c6020820182613264565b60fb80546001600160a01b0319166001600160a01b0392909216919091179055610e8c6040820160208301613264565b60fc80546001600160a01b0319166001600160a01b039290921691909117905550565b60fb546001600160a01b03163314610ed95760405162461bcd60e51b8152600401610444906135d1565b6040516370a0823160e01b815285906000906001600160a01b038316906370a0823190610f0a9030906004016133e7565b602060405180830381865afa158015610f27573d6000803e3d6000fd5b505050506040513d601f19601f82011682018060405250810190610f4b9190613777565b90508015611520576000856001600160a01b0316633850c7bd6040518163ffffffff1660e01b815260040160e060405180830381865afa158015610f93573d6000803e3d6000fd5b505050506040513d601f19601f82011682018060405250810190610fb79190613622565b5050505050509050610fd78683610fd08460008961282b565b600061154e565b6040516370a0823160e01b815287906000906001600160a01b038316906370a08231906110089030906004016133e7565b602060405180830381865afa158015611025573d6000803e3d6000fd5b505050506040513d601f19601f820116820180604052508101906110499190613777565b90506000876001600160a01b0316633850c7bd6040518163ffffffff1660e01b815260040160e060405180830381865afa15801561108b573d6000803e3d6000fd5b505050506040513d601f19601f820116820180604052508101906110af9190613622565b50505050505090506110c88883610fd08460008c61282b565b6000896001600160a01b0316630dfe16816040518163ffffffff1660e01b8152600401602060405180830381865afa158015611108573d6000803e3d6000fd5b505050506040513d601f19601f8201168201806040525081019061112c919061375a565b90506000876001600160a01b03166370a08231306040518263ffffffff1660e01b815260040161115c91906133e7565b602060405180830381865afa158015611179573d6000803e3d6000fd5b505050506040513d601f19601f8201168201806040525081019061119d9190613777565b111561127c576040516370a0823160e01b81526001600160a01b0388169063a9059cbb90339083906370a08231906111d99030906004016133e7565b602060405180830381865afa1580156111f6573d6000803e3d6000fd5b505050506040513d601f19601f8201168201806040525081019061121a9190613777565b6040518363ffffffff1660e01b81526004016112379291906138ed565b6020604051808303816000875af1158015611256573d6000803e3d6000fd5b505050506040513d601f19601f8201168201806040525081019061127a9190613906565b505b6040516370a0823160e01b81526000906001600160a01b038616906370a08231906112ab9030906004016133e7565b602060405180830381865afa1580156112c8573d6000803e3d6000fd5b505050506040513d601f19601f820116820180604052508101906112ec9190613777565b11156113cb576040516370a0823160e01b81526001600160a01b0385169063a9059cbb90339083906370a08231906113289030906004016133e7565b602060405180830381865afa158015611345573d6000803e3d6000fd5b505050506040513d601f19601f820116820180604052508101906113699190613777565b6040518363ffffffff1660e01b81526004016113869291906138ed565b6020604051808303816000875af11580156113a5573d6000803e3d6000fd5b505050506040513d601f19601f820116820180604052508101906113c99190613906565b505b6040516370a0823160e01b81526000906001600160a01b038316906370a08231906113fa9030906004016133e7565b602060405180830381865afa158015611417573d6000803e3d6000fd5b505050506040513d601f19601f8201168201806040525081019061143b9190613777565b111561151a576040516370a0823160e01b81526001600160a01b0382169063a9059cbb90339083906370a08231906114779030906004016133e7565b602060405180830381865afa158015611494573d6000803e3d6000fd5b505050506040513d601f19601f820116820180604052508101906114b89190613777565b6040518363ffffffff1660e01b81526004016114d59291906138ed565b6020604051808303816000875af11580156114f4573d6000803e3d6000fd5b505050506040513d601f19601f820116820180604052508101906115189190613906565b505b50505050505b50505050505050565b60008281526065602052604090206001015461154481611deb565b61051f8383611e7b565b60fb546001600160a01b031633146115785760405162461bcd60e51b8152600401610444906135d1565b600084905060006040518060600160405280836001600160a01b0316630dfe16816040518163ffffffff1660e01b8152600401602060405180830381865afa1580156115c8573d6000803e3d6000fd5b505050506040513d601f19601f820116820180604052508101906115ec919061375a565b6001600160a01b03168152602001836001600160a01b031663d21220a76040518163ffffffff1660e01b8152600401602060405180830381865afa158015611638573d6000803e3d6000fd5b505050506040513d601f19601f8201168201806040525081019061165c919061375a565b6001600160a01b03168152602001836001600160a01b031663ddca3f436040518163ffffffff1660e01b8152600401602060405180830381865afa1580156116a8573d6000803e3d6000fd5b505050506040513d601f19601f820116820180604052508101906116cc9190613923565b62ffffff1690529050600083611700576116fb600173fffd8963efd1fc6a506488495d951d5263988d26613940565b611710565b6117106401000276a36001613967565b9050826001600160a01b031663128acb083086898587604051602001611765919081516001600160a01b0390811682526020808401519091169082015260409182015162ffffff169181019190915260600190565b6040516020818303038152906040526040518663ffffffff1660e01b81526004016117949594939291906139d7565b60408051808303816000875af11580156117b2573d6000803e3d6000fd5b505050506040513d601f19601f820116820180604052508101906117d69190613a1d565b50506000836001600160a01b0316633850c7bd6040518163ffffffff1660e01b815260040160e060405180830381865afa158015611818573d6000803e3d6000fd5b505050506040513d601f19601f8201168201806040525081019061183c9190613622565b5050505050509050856001600160a01b0316816001600160a01b03161080156118625750845b806118875750856001600160a01b0316816001600160a01b0316118015611887575084155b156118c7576040516373a4896160e01b8152600481018890526001600160a01b038083166024830152871660448201528515156064820152608401610444565b5050505050505050565b60fb546001600160a01b031633146118fb5760405162461bcd60e51b8152600401610444906135d1565b60008190506000816001600160a01b0316630dfe16816040518163ffffffff1660e01b8152600401602060405180830381865afa158015611940573d6000803e3d6000fd5b505050506040513d601f19601f82011682018060405250810190611964919061375a565b90506000826001600160a01b031663d21220a76040518163ffffffff1660e01b8152600401602060405180830381865afa1580156119a6573d6000803e3d6000fd5b505050506040513d601f19601f820116820180604052508101906119ca919061375a565b90506000826001600160a01b03166370a08231306040518263ffffffff1660e01b81526004016119fa91906133e7565b602060405180830381865afa158015611a17573d6000803e3d6000fd5b505050506040513d601f19601f82011682018060405250810190611a3b9190613777565b1115611b1a576040516370a0823160e01b81526001600160a01b0383169063a9059cbb90339083906370a0823190611a779030906004016133e7565b602060405180830381865afa158015611a94573d6000803e3d6000fd5b505050506040513d601f19601f82011682018060405250810190611ab89190613777565b6040518363ffffffff1660e01b8152600401611ad59291906138ed565b6020604051808303816000875af1158015611af4573d6000803e3d6000fd5b505050506040513d601f19601f82011682018060405250810190611b189190613906565b505b6040516370a0823160e01b81526000906001600160a01b038316906370a0823190611b499030906004016133e7565b602060405180830381865afa158015611b66573d6000803e3d6000fd5b505050506040513d601f19601f82011682018060405250810190611b8a9190613777565b1115611c69576040516370a0823160e01b81526001600160a01b0382169063a9059cbb90339083906370a0823190611bc69030906004016133e7565b602060405180830381865afa158015611be3573d6000803e3d6000fd5b505050506040513d601f19601f82011682018060405250810190611c079190613777565b6040518363ffffffff1660e01b8152600401611c249291906138ed565b6020604051808303816000875af1158015611c43573d6000803e3d6000fd5b505050506040513d601f19601f82011682018060405250810190611c679190613906565b505b50505050565b6000611c7d82840184613a41565b60fc54815160208301516040840151939450611ca4936001600160a01b0390931692612885565b5060008060008713611cd35782600001516001600160a01b031683602001516001600160a01b03161086611cf2565b82602001516001600160a01b031683600001516001600160a01b031610875b915091508115611d7657825160405163a9059cbb60e01b81526001600160a01b039091169063a9059cbb90611d2d90339085906004016138ed565b6020604051808303816000875af1158015611d4c573d6000803e3d6000fd5b505050506040513d601f19601f82011682018060405250810190611d709190613906565b50611520565b82602001516001600160a01b031663a9059cbb33836040518363ffffffff1660e01b8152600401611da89291906138ed565b6020604051808303816000875af1158015611dc7573d6000803e3d6000fd5b505050506040513d601f19601f820116820180604052508101906118c79190613906565b61066781336128a4565b611dff82826108f0565b61059e5760008281526065602090815260408083206001600160a01b03851684529091529020805460ff19166001179055611e373390565b6001600160a01b0316816001600160a01b0316837f2f8788117e7eff1d82e926ec794901d17c78024a50270940304540a733656f0d60405160405180910390a45050565b611e8582826108f0565b1561059e5760008281526065602090815260408083206001600160a01b0385168085529252808320805460ff1916905551339285917ff6391f5c32d9c69d2a47ea670b442974b53935d1edc7fd64eb21e047a839171b9190a45050565b600080516020613cfb833981519152546001600160a01b031690565b611f096000336108f0565b6106675760405162461bcd60e51b8152600401610444906138cd565b7f4910fdfa16fed3260ed0e7147f7cc6da11a60208b5b9406d12a635614ffd91435460ff1615611f585761051f836128fd565b826001600160a01b03166352d1902d6040518163ffffffff1660e01b8152600401602060405180830381865afa925050508015611fb2575060408051601f3d908101601f19168201909252611faf91810190613777565b60015b6120155760405162461bcd60e51b815260206004820152602e60248201527f45524331393637557067726164653a206e657720696d706c656d656e7461746960448201526d6f6e206973206e6f74205555505360901b6064820152608401610444565b600080516020613cfb83398151915281146120845760405162461bcd60e51b815260206004820152602960248201527f45524331393637557067726164653a20756e737570706f727465642070726f786044820152681a58589b195555525160ba1b6064820152608401610444565b5061051f838383612999565b600054610100900460ff166120fb5760405162461bcd60e51b815260206004820152602b60248201527f496e697469616c697a61626c653a20636f6e7472616374206973206e6f74206960448201526a6e697469616c697a696e6760a81b6064820152608401610444565b565b60008060008360020b12612114578260020b612121565b8260020b61212190613ab3565b905060008160011660000361213a57600160801b61214c565b6ffffcb933bd6fad37aa2d162d1a5940015b6001600160881b03169050600282161561218157608061217c826ffff97272373d413259a46990580e213a613acf565b901c90505b60048216156121ab5760806121a6826ffff2e50f5f656932ef12357cf3c7fdcc613acf565b901c90505b60088216156121d55760806121d0826fffe5caca7e10e4e61c3624eaa0941cd0613acf565b901c90505b60108216156121ff5760806121fa826fffcb9843d60f6159c9db58835c926644613acf565b901c90505b6020821615612229576080612224826fff973b41fa98c081472e6896dfb254c0613acf565b901c90505b604082161561225357608061224e826fff2ea16466c96a3843ec78b326b52861613acf565b901c90505b608082161561227d576080612278826ffe5dee046a99a2a811c461f1969c3053613acf565b901c90505b6101008216156122a85760806122a3826ffcbe86c7900a88aedcffc83b479aa3a4613acf565b901c90505b6102008216156122d35760806122ce826ff987a7253ac413176f2b074cf7815e54613acf565b901c90505b6104008216156122fe5760806122f9826ff3392b0822b70005940c7a398e4b70f3613acf565b901c90505b610800821615612329576080612324826fe7159475a2c29b7443b29c7fa6e889d9613acf565b901c90505b61100082161561235457608061234f826fd097f3bdfd2022b8845ad8f792aa5825613acf565b901c90505b61200082161561237f57608061237a826fa9f746462d870fdf8a65dc1f90e061e5613acf565b901c90505b6140008216156123aa5760806123a5826f70d869a156d2a1b890bb3df62baf32f7613acf565b901c90505b6180008216156123d55760806123d0826f31be135f97d08fd981231505542fcfa6613acf565b901c90505b620100008216156124015760806123fc826f09aa508b5b7a84e1c677de54f3e99bc9613acf565b901c90505b6202000082161561242c576080612427826e5d6af8dedb81196699c329225ee604613acf565b901c90505b62040000821615612456576080612451826d2216e584f5fa1ea926041bedfe98613acf565b901c90505b6208000082161561247e576080612479826b048a170391f7dc42444e8fa2613acf565b901c90505b60008460020b13156124995761249681600019613afc565b90505b6124a864010000000082613b10565b156124b45760016124b7565b60005b6124c89060ff16602083901c6138ba565b949350505050565b6000806000856001600160a01b0316630dfe16816040518163ffffffff1660e01b8152600401602060405180830381865afa158015612513573d6000803e3d6000fd5b505050506040513d601f19601f82011682018060405250810190612537919061375a565b90506000866001600160a01b031663d21220a76040518163ffffffff1660e01b8152600401602060405180830381865afa158015612579573d6000803e3d6000fd5b505050506040513d601f19601f8201168201806040525081019061259d919061375a565b90506000826001600160a01b031663313ce5676040518163ffffffff1660e01b8152600401602060405180830381865afa1580156125df573d6000803e3d6000fd5b505050506040513d601f19601f820116820180604052508101906126039190613b24565b61260e90600a613c23565b90506000826001600160a01b031663313ce5676040518163ffffffff1660e01b8152600401602060405180830381865afa158015612650573d6000803e3d6000fd5b505050506040513d601f19601f820116820180604052508101906126749190613b24565b61267f90600a613c23565b90506000896001600160a01b0316633850c7bd6040518163ffffffff1660e01b815260040160e060405180830381865afa1580156126c1573d6000803e3d6000fd5b505050506040513d601f19601f820116820180604052508101906126e59190613622565b505050505050905060006126f88a6120fd565b905060006127058a6120fd565b9050600061272c84848461271b8a6103e8613acf565b6127278a6103e8613acf565b6129be565b905061273a8484848461278f565b909a509850600085871161274e5785612750565b865b905061275c8782613afc565b612766908c613acf565b9a506127728682613afc565b61277c908b613acf565b9950505050505050505050935093915050565b600080836001600160a01b0316856001600160a01b031611156127b0579293925b846001600160a01b0316866001600160a01b0316116127db576127d4858585612a80565b9150612822565b836001600160a01b0316866001600160a01b0316101561281457612800868585612a80565b915061280d858785612aea565b9050612822565b61281f858585612aea565b90505b94509492505050565b600082156128625761285b6001600160a01b03851661285461284f85612710613c32565b612b34565b6064612b8d565b905061287e565b61285b6001600160a01b03851661285461284f856127106138ba565b9392505050565b600061289b85612896868686612c3b565b612ca6565b95945050505050565b6128ae82826108f0565b61059e576128bb81612cc9565b6128c6836020612cdb565b6040516020016128d7929190613c45565b60408051601f198184030181529082905262461bcd60e51b825261044491600401613cb4565b6001600160a01b0381163b61296a5760405162461bcd60e51b815260206004820152602d60248201527f455243313936373a206e657720696d706c656d656e746174696f6e206973206e60448201526c1bdd08184818dbdb9d1c9858dd609a1b6064820152608401610444565b600080516020613cfb83398151915280546001600160a01b0319166001600160a01b0392909216919091179055565b6129a283612e77565b6000825111806129af5750805b1561051f57611c698383612eb7565b6000836001600160a01b0316856001600160a01b031611156129de579293925b846001600160a01b0316866001600160a01b031611612a0957612a02858585612edc565b905061289b565b836001600160a01b0316866001600160a01b03161015612a6b576000612a30878686612edc565b90506000612a3f878986612f46565b9050806001600160801b0316826001600160801b031610612a605780612a62565b815b9250505061289b565b612a76858584612f46565b9695505050505050565b6000826001600160a01b0316846001600160a01b03161115612aa0579192915b6001600160a01b038416612ae0600160601b600160e01b03606085901b16612ac88787613940565b6001600160a01b0316866001600160a01b0316612b8d565b6124c89190613afc565b6000826001600160a01b0316846001600160a01b03161115612b0a579192915b6124c86001600160801b038316612b218686613940565b6001600160a01b0316600160601b612b8d565b6000806002612b448460016138ba565b612b4e9190613afc565b90508291505b81811015612b8757905080600281612b6c8186613afc565b612b7691906138ba565b612b809190613afc565b9050612b54565b50919050565b6000808060001985870985870292508281108382030391505080600003612bc65760008411612bbb57600080fd5b50829004905061287e565b808411612bd257600080fd5b60008486880960026001871981018816978890046003810283188082028403028082028403028082028403028082028403028082028403029081029092039091026000889003889004909101858311909403939093029303949094049190911702949350505050565b6040805160608101825260008082526020820181905291810191909152826001600160a01b0316846001600160a01b03161115612c76579192915b50604080516060810182526001600160a01b03948516815292909316602083015262ffffff169181019190915290565b6000612cb28383612f7c565b9050336001600160a01b0382161461041457600080fd5b60606104146001600160a01b03831660145b60606000612cea836002613acf565b612cf59060026138ba565b67ffffffffffffffff811115612d0d57612d0d613281565b6040519080825280601f01601f191660200182016040528015612d37576020820181803683370190505b509050600360fc1b81600081518110612d5257612d52613739565b60200101906001600160f81b031916908160001a905350600f60fb1b81600181518110612d8157612d81613739565b60200101906001600160f81b031916908160001a9053506000612da5846002613acf565b612db09060016138ba565b90505b6001811115612e28576f181899199a1a9b1b9c1cb0b131b232b360811b85600f1660108110612de457612de4613739565b1a60f81b828281518110612dfa57612dfa613739565b60200101906001600160f81b031916908160001a90535060049490941c93612e2181613cc7565b9050612db3565b50831561287e5760405162461bcd60e51b815260206004820181905260248201527f537472696e67733a20686578206c656e67746820696e73756666696369656e746044820152606401610444565b612e80816128fd565b6040516001600160a01b038216907fbc7cd75a20ee27fd9adebab32041f755214dbc6bffa90cc0225b39da2e5c2d3b90600090a250565b606061287e8383604051806060016040528060278152602001613d1b60279139613065565b6000826001600160a01b0316846001600160a01b03161115612efc579192915b6000612f1f856001600160a01b0316856001600160a01b0316600160601b612b8d565b905061289b612f418483612f338989613940565b6001600160a01b0316612b8d565b6130d3565b6000826001600160a01b0316846001600160a01b03161115612f66579192915b6124c8612f4183600160601b612f338888613940565b600081602001516001600160a01b031682600001516001600160a01b031610612fa457600080fd5b815160208084015160408086015181516001600160a01b0395861681860152949092168482015262ffffff90911660608085019190915281518085038201815260808501909252815191909201206001600160f81b031960a08401529085901b6bffffffffffffffffffffffff191660a183015260b58201527fd0c3a51b16dbc778f000c620eaabeecd33b33a80bd145e1f7cbc0d4de335193d60d582015260f50160408051601f1981840301815291905280516020909101209392505050565b6060600080856001600160a01b0316856040516130829190613cde565b600060405180830381855af49150503d80600081146130bd576040519150601f19603f3d011682016040523d82523d6000602084013e6130c2565b606091505b5091509150612a76868383876130ee565b806001600160801b03811681146130e957600080fd5b919050565b6060831561315d578251600003613156576001600160a01b0385163b6131565760405162461bcd60e51b815260206004820152601d60248201527f416464726573733a2063616c6c20746f206e6f6e2d636f6e74726163740000006044820152606401610444565b50816124c8565b6124c883838151156131725781518083602001fd5b8060405162461bcd60e51b81526004016104449190613cb4565b60006020828403121561319e57600080fd5b81356001600160e01b03198116811461287e57600080fd5b6001600160a01b038116811461066757600080fd5b801515811461066757600080fd5b6000806000606084860312156131ee57600080fd5b83356131f9816131b6565b9250602084013591506040840135613210816131cb565b809150509250925092565b60006020828403121561322d57600080fd5b5035919050565b6000806040838503121561324757600080fd5b823591506020830135613259816131b6565b809150509250929050565b60006020828403121561327657600080fd5b813561287e816131b6565b634e487b7160e01b600052604160045260246000fd5b604051601f8201601f1916810167ffffffffffffffff811182821017156132c0576132c0613281565b604052919050565b600080604083850312156132db57600080fd5b82356132e6816131b6565b915060208381013567ffffffffffffffff8082111561330457600080fd5b818601915086601f83011261331857600080fd5b81358181111561332a5761332a613281565b61333c601f8201601f19168501613297565b9150808252878482850101111561335257600080fd5b80848401858401376000848284010152508093505050509250929050565b8060020b811461066757600080fd5b600080600080600060a0868803121561339757600080fd5b85356133a2816131b6565b94506020860135935060408601356133b9816131cb565b925060608601356133c981613370565b915060808601356133d981613370565b809150509295509295909350565b6001600160a01b0391909116815260200190565b600080600080600080600060e0888a03121561341657600080fd5b873596506020880135613428816131b6565b95506040880135613438816131b6565b9450606088013561344881613370565b9350608088013561345881613370565b925060a0880135613468816131b6565b915060c0880135613478816131b6565b8091505092959891949750929550565b600060408284031215612b8757600080fd5b600080600080600060a086880312156134b257600080fd5b85356134bd816131b6565b945060208601356134cd816131b6565b935060408601356134dd816131b6565b925060608601356134ed816131b6565b949793965091946080013592915050565b6000806000806080858703121561351457600080fd5b843561351f816131b6565b9350602085013592506040850135613536816131b6565b91506060850135613546816131cb565b939692955090935050565b6000806000806060858703121561356757600080fd5b8435935060208501359250604085013567ffffffffffffffff8082111561358d57600080fd5b818701915087601f8301126135a157600080fd5b8135818111156135b057600080fd5b8860208285010111156135c257600080fd5b95989497505060200194505050565b60208082526009908201526821737472617465677960b81b604082015260600190565b80516130e981613370565b805161ffff811681146130e957600080fd5b805160ff811681146130e957600080fd5b600080600080600080600060e0888a03121561363d57600080fd5b8751613648816131b6565b602089015190975061365981613370565b9550613667604089016135ff565b9450613675606089016135ff565b9350613683608089016135ff565b925061369160a08901613611565b915060c0880151613478816131cb565b6020808252602c908201527f46756e6374696f6e206d7573742062652063616c6c6564207468726f7567682060408201526b19195b1959d85d1958d85b1b60a21b606082015260800190565b6020808252602c908201527f46756e6374696f6e206d7573742062652063616c6c6564207468726f7567682060408201526b6163746976652070726f787960a01b606082015260800190565b634e487b7160e01b600052603260045260246000fd5b80516130e9816131b6565b60006020828403121561376c57600080fd5b815161287e816131b6565b60006020828403121561378957600080fd5b5051919050565b62ffffff8116811461066757600080fd5b80516130e981613790565b80516001600160801b03811681146130e957600080fd5b6000806000806000806000806000806000806101808d8f0312156137e657600080fd5b8c516bffffffffffffffffffffffff8116811461380257600080fd5b9b5061381060208e0161374f565b9a5061381e60408e0161374f565b995061382c60608e0161374f565b985061383a60808e016137a1565b975061384860a08e016135f4565b965061385660c08e016135f4565b955061386460e08e016137ac565b94506101008d015193506101208d015192506138836101408e016137ac565b91506138926101608e016137ac565b90509295989b509295989b509295989b565b634e487b7160e01b600052601160045260246000fd5b80820180821115610414576104146138a4565b60208082526006908201526510b0b236b4b760d11b604082015260600190565b6001600160a01b03929092168252602082015260400190565b60006020828403121561391857600080fd5b815161287e816131cb565b60006020828403121561393557600080fd5b815161287e81613790565b6001600160a01b03828116828216039080821115613960576139606138a4565b5092915050565b6001600160a01b03818116838216019080821115613960576139606138a4565b60005b838110156139a257818101518382015260200161398a565b50506000910152565b600081518084526139c3816020860160208601613987565b601f01601f19169290920160200192915050565b6001600160a01b0386811682528515156020830152604082018590528316606082015260a060808201819052600090613a12908301846139ab565b979650505050505050565b60008060408385031215613a3057600080fd5b505080516020909101519092909150565b600060608284031215613a5357600080fd5b6040516060810181811067ffffffffffffffff82111715613a7657613a76613281565b6040528235613a84816131b6565b81526020830135613a94816131b6565b60208201526040830135613aa781613790565b60408201529392505050565b6000600160ff1b8201613ac857613ac86138a4565b5060000390565b8082028115828204841417610414576104146138a4565b634e487b7160e01b600052601260045260246000fd5b600082613b0b57613b0b613ae6565b500490565b600082613b1f57613b1f613ae6565b500690565b600060208284031215613b3657600080fd5b61287e82613611565b600181815b80851115613b7a578160001904821115613b6057613b606138a4565b80851615613b6d57918102915b93841c9390800290613b44565b509250929050565b600082613b9157506001610414565b81613b9e57506000610414565b8160018114613bb45760028114613bbe57613bda565b6001915050610414565b60ff841115613bcf57613bcf6138a4565b50506001821b610414565b5060208310610133831016604e8410600b8410161715613bfd575081810a610414565b613c078383613b3f565b8060001904821115613c1b57613c1b6138a4565b029392505050565b600061287e60ff841683613b82565b81810381811115610414576104146138a4565b76020b1b1b2b9b9a1b7b73a3937b61d1030b1b1b7bab73a1604d1b815260008351613c77816017850160208801613987565b7001034b99036b4b9b9b4b733903937b6329607d1b6017918401918201528351613ca8816028840160208801613987565b01602801949350505050565b60208152600061287e60208301846139ab565b600081613cd657613cd66138a4565b506000190190565b60008251613cf0818460208701613987565b919091019291505056fe360894a13ba1a3210667c828492db98dca3e2076cc3735a920a3ca505d382bbc416464726573733a206c6f772d6c6576656c2064656c65676174652063616c6c206661696c6564a2646970667358221220c3a1c2ee2dc93552e873861e047e724b1e765cee4c1011019c2abe6c4e045b4f64736f6c63430008110033",
  "implementation": "0x6F5900b4Ce219d148730Ba7C5Ce1F4636353CCC3",
  "devdoc": {
    "errors": {
      "SwapError(uint256,uint256,uint256,uint256)": [
        {
          "params": {
            "balance0": "The balance of token0 after the swap",
            "balance1": "The balance of token1 after the swap",
            "ratio0": "The ratio of token0 in the pool after the swap",
            "ratio1": "The ratio of token1 in the pool after the swap"
          }
        }
      ]
    },
    "kind": "dev",
    "methods": {
      "getRoleAdmin(bytes32)": {
        "details": "Returns the admin role that controls `role`. See {grantRole} and {revokeRole}. To change a role's admin, use {_setRoleAdmin}."
      },
      "grantRole(bytes32,address)": {
        "details": "Grants `role` to `account`. If `account` had not been already granted `role`, emits a {RoleGranted} event. Requirements: - the caller must have ``role``'s admin role. May emit a {RoleGranted} event."
      },
      "hasRole(bytes32,address)": {
        "details": "Returns `true` if `account` has been granted `role`."
      },
      "proxiableUUID()": {
        "details": "Implementation of the ERC1822 {proxiableUUID} function. This returns the storage slot used by the implementation. It is used to validate the implementation's compatibility when performing an upgrade. IMPORTANT: A proxy pointing at a proxiable contract should not be considered proxiable itself, because this risks bricking a proxy that upgrades to it, by delegating to itself until out of gas. Thus it is critical that this function revert if invoked through a proxy. This is guaranteed by the `notDelegated` modifier."
      },
      "renounceRole(bytes32,address)": {
        "details": "Revokes `role` from the calling account. Roles are often managed via {grantRole} and {revokeRole}: this function's purpose is to provide a mechanism for accounts to lose their privileges if they are compromised (such as when a trusted device is misplaced). If the calling account had been revoked `role`, emits a {RoleRevoked} event. Requirements: - the caller must be `account`. May emit a {RoleRevoked} event."
      },
      "revokeRole(bytes32,address)": {
        "details": "Revokes `role` from `account`. If `account` had been granted `role`, emits a {RoleRevoked} event. Requirements: - the caller must have ``role``'s admin role. May emit a {RoleRevoked} event."
      },
      "supportsInterface(bytes4)": {
        "details": "See {IERC165-supportsInterface}."
      },
      "upgradeTo(address)": {
        "custom:oz-upgrades-unsafe-allow-reachable": "delegatecall",
        "details": "Upgrade the implementation of the proxy to `newImplementation`. Calls {_authorizeUpgrade}. Emits an {Upgraded} event."
      },
      "upgradeToAndCall(address,bytes)": {
        "custom:oz-upgrades-unsafe-allow-reachable": "delegatecall",
        "details": "Upgrade the implementation of the proxy to `newImplementation`, and subsequently execute the function call encoded in `data`. Calls {_authorizeUpgrade}. Emits an {Upgraded} event."
      }
    },
    "version": 1
  },
  "userdoc": {
    "errors": {
      "SwapError(uint256,uint256,uint256,uint256)": [
        {
          "notice": "Error containing information about a swap (for a simulation)"
        }
      ]
    },
    "kind": "user",
    "methods": {},
    "version": 1
  },
  "storageLayout": {
    "storage": [
      {
        "astId": 782,
        "contract": "contracts/SwapSimulatorThruster.sol:SwapSimulatorThruster",
        "label": "_initialized",
        "offset": 0,
        "slot": "0",
        "type": "t_uint8"
      },
      {
        "astId": 785,
        "contract": "contracts/SwapSimulatorThruster.sol:SwapSimulatorThruster",
        "label": "_initializing",
        "offset": 1,
        "slot": "0",
        "type": "t_bool"
      },
      {
        "astId": 1461,
        "contract": "contracts/SwapSimulatorThruster.sol:SwapSimulatorThruster",
        "label": "__gap",
        "offset": 0,
        "slot": "1",
        "type": "t_array(t_uint256)50_storage"
      },
      {
        "astId": 1845,
        "contract": "contracts/SwapSimulatorThruster.sol:SwapSimulatorThruster",
        "label": "__gap",
        "offset": 0,
        "slot": "51",
        "type": "t_array(t_uint256)50_storage"
      },
      {
        "astId": 28,
        "contract": "contracts/SwapSimulatorThruster.sol:SwapSimulatorThruster",
        "label": "_roles",
        "offset": 0,
        "slot": "101",
        "type": "t_mapping(t_bytes32,t_struct(RoleData)23_storage)"
      },
      {
        "astId": 335,
        "contract": "contracts/SwapSimulatorThruster.sol:SwapSimulatorThruster",
        "label": "__gap",
        "offset": 0,
        "slot": "102",
        "type": "t_array(t_uint256)49_storage"
      },
      {
        "astId": 764,
        "contract": "contracts/SwapSimulatorThruster.sol:SwapSimulatorThruster",
        "label": "__gap",
        "offset": 0,
        "slot": "151",
        "type": "t_array(t_uint256)50_storage"
      },
      {
        "astId": 1080,
        "contract": "contracts/SwapSimulatorThruster.sol:SwapSimulatorThruster",
        "label": "__gap",
        "offset": 0,
        "slot": "201",
        "type": "t_array(t_uint256)50_storage"
      },
      {
        "astId": 13881,
        "contract": "contracts/SwapSimulatorThruster.sol:SwapSimulatorThruster",
        "label": "strategy",
        "offset": 0,
        "slot": "251",
        "type": "t_address"
      },
      {
        "astId": 13883,
        "contract": "contracts/SwapSimulatorThruster.sol:SwapSimulatorThruster",
        "label": "factory",
        "offset": 0,
        "slot": "252",
        "type": "t_address"
      }
    ],
    "types": {
      "t_address": {
        "encoding": "inplace",
        "label": "address",
        "numberOfBytes": "20"
      },
      "t_array(t_uint256)49_storage": {
        "base": "t_uint256",
        "encoding": "inplace",
        "label": "uint256[49]",
        "numberOfBytes": "1568"
      },
      "t_array(t_uint256)50_storage": {
        "base": "t_uint256",
        "encoding": "inplace",
        "label": "uint256[50]",
        "numberOfBytes": "1600"
      },
      "t_bool": {
        "encoding": "inplace",
        "label": "bool",
        "numberOfBytes": "1"
      },
      "t_bytes32": {
        "encoding": "inplace",
        "label": "bytes32",
        "numberOfBytes": "32"
      },
      "t_mapping(t_address,t_bool)": {
        "encoding": "mapping",
        "key": "t_address",
        "label": "mapping(address => bool)",
        "numberOfBytes": "32",
        "value": "t_bool"
      },
      "t_mapping(t_bytes32,t_struct(RoleData)23_storage)": {
        "encoding": "mapping",
        "key": "t_bytes32",
        "label": "mapping(bytes32 => struct AccessControlUpgradeable.RoleData)",
        "numberOfBytes": "32",
        "value": "t_struct(RoleData)23_storage"
      },
      "t_struct(RoleData)23_storage": {
        "encoding": "inplace",
        "label": "struct AccessControlUpgradeable.RoleData",
        "members": [
          {
            "astId": 20,
            "contract": "contracts/SwapSimulatorThruster.sol:SwapSimulatorThruster",
            "label": "members",
            "offset": 0,
            "slot": "0",
            "type": "t_mapping(t_address,t_bool)"
          },
          {
            "astId": 22,
            "contract": "contracts/SwapSimulatorThruster.sol:SwapSimulatorThruster",
            "label": "adminRole",
            "offset": 0,
            "slot": "1",
            "type": "t_bytes32"
          }
        ],
        "numberOfBytes": "64"
      },
      "t_uint256": {
        "encoding": "inplace",
        "label": "uint256",
        "numberOfBytes": "32"
      },
      "t_uint8": {
        "encoding": "inplace",
        "label": "uint8",
        "numberOfBytes": "1"
      }
    }
  }
}