{
  "address": "0x9660025E7BCA017B0CBF3fe96e0c844b69df8B1f",
  "abi": [
    {
      "inputs": [],
      "stateMutability": "nonpayable",
      "type": "constructor"
    },
    {
      "anonymous": false,
      "inputs": [
        {
          "indexed": false,
          "internalType": "address",
          "name": "previousAdmin",
          "type": "address"
        },
        {
          "indexed": false,
          "internalType": "address",
          "name": "newAdmin",
          "type": "address"
        }
      ],
      "name": "AdminChanged",
      "type": "event"
    },
    {
      "anonymous": false,
      "inputs": [
        {
          "indexed": true,
          "internalType": "address",
          "name": "beacon",
          "type": "address"
        }
      ],
      "name": "BeaconUpgraded",
      "type": "event"
    },
    {
      "anonymous": false,
      "inputs": [
        {
          "indexed": false,
          "internalType": "uint8",
          "name": "version",
          "type": "uint8"
        }
      ],
      "name": "Initialized",
      "type": "event"
    },
    {
      "anonymous": false,
      "inputs": [
        {
          "indexed": false,
          "internalType": "uint256",
          "name": "amount",
          "type": "uint256"
        }
      ],
      "name": "Reward",
      "type": "event"
    },
    {
      "anonymous": false,
      "inputs": [
        {
          "indexed": true,
          "internalType": "bytes32",
          "name": "role",
          "type": "bytes32"
        },
        {
          "indexed": true,
          "internalType": "bytes32",
          "name": "previousAdminRole",
          "type": "bytes32"
        },
        {
          "indexed": true,
          "internalType": "bytes32",
          "name": "newAdminRole",
          "type": "bytes32"
        }
      ],
      "name": "RoleAdminChanged",
      "type": "event"
    },
    {
      "anonymous": false,
      "inputs": [
        {
          "indexed": true,
          "internalType": "bytes32",
          "name": "role",
          "type": "bytes32"
        },
        {
          "indexed": true,
          "internalType": "address",
          "name": "account",
          "type": "address"
        },
        {
          "indexed": true,
          "internalType": "address",
          "name": "sender",
          "type": "address"
        }
      ],
      "name": "RoleGranted",
      "type": "event"
    },
    {
      "anonymous": false,
      "inputs": [
        {
          "indexed": true,
          "internalType": "bytes32",
          "name": "role",
          "type": "bytes32"
        },
        {
          "indexed": true,
          "internalType": "address",
          "name": "account",
          "type": "address"
        },
        {
          "indexed": true,
          "internalType": "address",
          "name": "sender",
          "type": "address"
        }
      ],
      "name": "RoleRevoked",
      "type": "event"
    },
    {
      "anonymous": false,
      "inputs": [
        {
          "indexed": false,
          "internalType": "uint256",
          "name": "healthFactor",
          "type": "uint256"
        }
      ],
      "name": "SetHealthFactor",
      "type": "event"
    },
    {
      "anonymous": false,
      "inputs": [
        {
          "indexed": false,
          "internalType": "uint256",
          "name": "amount",
          "type": "uint256"
        }
      ],
      "name": "Stake",
      "type": "event"
    },
    {
      "anonymous": false,
      "inputs": [
        {
          "indexed": false,
          "internalType": "uint256",
          "name": "amount",
          "type": "uint256"
        },
        {
          "indexed": false,
          "internalType": "uint256",
          "name": "amountReceived",
          "type": "uint256"
        }
      ],
      "name": "Unstake",
      "type": "event"
    },
    {
      "anonymous": false,
      "inputs": [
        {
          "indexed": true,
          "internalType": "address",
          "name": "implementation",
          "type": "address"
        }
      ],
      "name": "Upgraded",
      "type": "event"
    },
    {
      "inputs": [],
      "name": "CONTROL_ROLE",
      "outputs": [
        {
          "internalType": "bytes32",
          "name": "",
          "type": "bytes32"
        }
      ],
      "stateMutability": "view",
      "type": "function"
    },
    {
      "inputs": [],
      "name": "DEFAULT_ADMIN_ROLE",
      "outputs": [
        {
          "internalType": "bytes32",
          "name": "",
          "type": "bytes32"
        }
      ],
      "stateMutability": "view",
      "type": "function"
    },
    {
      "inputs": [],
      "name": "EXCHANGER",
      "outputs": [
        {
          "internalType": "bytes32",
          "name": "",
          "type": "bytes32"
        }
      ],
      "stateMutability": "view",
      "type": "function"
    },
    {
      "inputs": [],
      "name": "INTEREST_RATE_MODE",
      "outputs": [
        {
          "internalType": "uint256",
          "name": "",
          "type": "uint256"
        }
      ],
      "stateMutability": "view",
      "type": "function"
    },
    {
      "inputs": [],
      "name": "MAX_UINT_VALUE",
      "outputs": [
        {
          "internalType": "uint256",
          "name": "",
          "type": "uint256"
        }
      ],
      "stateMutability": "view",
      "type": "function"
    },
    {
      "inputs": [],
      "name": "PORTFOLIO_AGENT_ROLE",
      "outputs": [
        {
          "internalType": "bytes32",
          "name": "",
          "type": "bytes32"
        }
      ],
      "stateMutability": "view",
      "type": "function"
    },
    {
      "inputs": [],
      "name": "REFERRAL_CODE",
      "outputs": [
        {
          "internalType": "uint16",
          "name": "",
          "type": "uint16"
        }
      ],
      "stateMutability": "view",
      "type": "function"
    },
    {
      "inputs": [],
      "name": "UPGRADER_ROLE",
      "outputs": [
        {
          "internalType": "bytes32",
          "name": "",
          "type": "bytes32"
        }
      ],
      "stateMutability": "view",
      "type": "function"
    },
    {
      "inputs": [],
      "name": "aavePoolAddressesProvider",
      "outputs": [
        {
          "internalType": "contract IPoolAddressesProvider",
          "name": "",
          "type": "address"
        }
      ],
      "stateMutability": "view",
      "type": "function"
    },
    {
      "inputs": [],
      "name": "asset",
      "outputs": [
        {
          "internalType": "contract IERC20",
          "name": "",
          "type": "address"
        }
      ],
      "stateMutability": "view",
      "type": "function"
    },
    {
      "inputs": [],
      "name": "balance",
      "outputs": [],
      "stateMutability": "nonpayable",
      "type": "function"
    },
    {
      "inputs": [],
      "name": "balances",
      "outputs": [
        {
          "components": [
            {
              "internalType": "address",
              "name": "token",
              "type": "address"
            },
            {
              "internalType": "uint256",
              "name": "amountUSD",
              "type": "uint256"
            },
            {
              "internalType": "uint256",
              "name": "amount",
              "type": "uint256"
            },
            {
              "internalType": "bool",
              "name": "borrowed",
              "type": "bool"
            }
          ],
          "internalType": "struct IHedgeStrategy.BalanceItem[]",
          "name": "",
          "type": "tuple[]"
        }
      ],
      "stateMutability": "view",
      "type": "function"
    },
    {
      "inputs": [
        {
          "internalType": "address",
          "name": "_to",
          "type": "address"
        }
      ],
      "name": "claimRewards",
      "outputs": [
        {
          "internalType": "uint256",
          "name": "",
          "type": "uint256"
        }
      ],
      "stateMutability": "nonpayable",
      "type": "function"
    },
    {
      "inputs": [],
      "name": "control",
      "outputs": [
        {
          "internalType": "contract ControlWmaticUsdc",
          "name": "",
          "type": "address"
        }
      ],
      "stateMutability": "view",
      "type": "function"
    },
    {
      "inputs": [],
      "name": "currentHealthFactor",
      "outputs": [
        {
          "internalType": "uint256",
          "name": "",
          "type": "uint256"
        }
      ],
      "stateMutability": "view",
      "type": "function"
    },
    {
      "inputs": [],
      "name": "exchange",
      "outputs": [
        {
          "internalType": "contract IExchange",
          "name": "",
          "type": "address"
        }
      ],
      "stateMutability": "view",
      "type": "function"
    },
    {
      "inputs": [],
      "name": "exchanger",
      "outputs": [
        {
          "internalType": "address",
          "name": "",
          "type": "address"
        }
      ],
      "stateMutability": "view",
      "type": "function"
    },
    {
      "inputs": [
        {
          "components": [
            {
              "internalType": "enum ActionType",
              "name": "actionType",
              "type": "uint8"
            },
            {
              "internalType": "uint256",
              "name": "amount",
              "type": "uint256"
            },
            {
              "internalType": "uint256",
              "name": "slippagePercent",
              "type": "uint256"
            }
          ],
          "internalType": "struct Action",
          "name": "action",
          "type": "tuple"
        }
      ],
      "name": "executeAction",
      "outputs": [],
      "stateMutability": "nonpayable",
      "type": "function"
    },
    {
      "inputs": [
        {
          "internalType": "bytes32",
          "name": "role",
          "type": "bytes32"
        }
      ],
      "name": "getRoleAdmin",
      "outputs": [
        {
          "internalType": "bytes32",
          "name": "",
          "type": "bytes32"
        }
      ],
      "stateMutability": "view",
      "type": "function"
    },
    {
      "inputs": [
        {
          "internalType": "bytes32",
          "name": "role",
          "type": "bytes32"
        },
        {
          "internalType": "address",
          "name": "account",
          "type": "address"
        }
      ],
      "name": "grantRole",
      "outputs": [],
      "stateMutability": "nonpayable",
      "type": "function"
    },
    {
      "inputs": [
        {
          "internalType": "bytes32",
          "name": "role",
          "type": "bytes32"
        },
        {
          "internalType": "address",
          "name": "account",
          "type": "address"
        }
      ],
      "name": "hasRole",
      "outputs": [
        {
          "internalType": "bool",
          "name": "",
          "type": "bool"
        }
      ],
      "stateMutability": "view",
      "type": "function"
    },
    {
      "inputs": [],
      "name": "healthFactor",
      "outputs": [
        {
          "internalType": "uint256",
          "name": "",
          "type": "uint256"
        }
      ],
      "stateMutability": "view",
      "type": "function"
    },
    {
      "inputs": [],
      "name": "initialize",
      "outputs": [],
      "stateMutability": "nonpayable",
      "type": "function"
    },
    {
      "inputs": [],
      "name": "liquidationThreshold",
      "outputs": [
        {
          "internalType": "uint256",
          "name": "",
          "type": "uint256"
        }
      ],
      "stateMutability": "view",
      "type": "function"
    },
    {
      "inputs": [],
      "name": "meshSwapRouter",
      "outputs": [
        {
          "internalType": "contract IMeshSwapRouter",
          "name": "",
          "type": "address"
        }
      ],
      "stateMutability": "view",
      "type": "function"
    },
    {
      "inputs": [],
      "name": "meshSwapWmaticUsdc",
      "outputs": [
        {
          "internalType": "contract IMeshSwapLP",
          "name": "",
          "type": "address"
        }
      ],
      "stateMutability": "view",
      "type": "function"
    },
    {
      "inputs": [],
      "name": "meshToken",
      "outputs": [
        {
          "internalType": "contract IERC20",
          "name": "",
          "type": "address"
        }
      ],
      "stateMutability": "view",
      "type": "function"
    },
    {
      "inputs": [],
      "name": "netAssetValue",
      "outputs": [
        {
          "internalType": "uint256",
          "name": "",
          "type": "uint256"
        }
      ],
      "stateMutability": "view",
      "type": "function"
    },
    {
      "inputs": [],
      "name": "oracleUsdc",
      "outputs": [
        {
          "internalType": "contract IPriceFeed",
          "name": "",
          "type": "address"
        }
      ],
      "stateMutability": "view",
      "type": "function"
    },
    {
      "inputs": [],
      "name": "oracleWmatic",
      "outputs": [
        {
          "internalType": "contract IPriceFeed",
          "name": "",
          "type": "address"
        }
      ],
      "stateMutability": "view",
      "type": "function"
    },
    {
      "inputs": [],
      "name": "poolFeeMaticUsdc",
      "outputs": [
        {
          "internalType": "uint24",
          "name": "",
          "type": "uint24"
        }
      ],
      "stateMutability": "view",
      "type": "function"
    },
    {
      "inputs": [],
      "name": "proxiableUUID",
      "outputs": [
        {
          "internalType": "bytes32",
          "name": "",
          "type": "bytes32"
        }
      ],
      "stateMutability": "view",
      "type": "function"
    },
    {
      "inputs": [],
      "name": "realHealthFactor",
      "outputs": [
        {
          "internalType": "uint256",
          "name": "",
          "type": "uint256"
        }
      ],
      "stateMutability": "view",
      "type": "function"
    },
    {
      "inputs": [
        {
          "internalType": "bytes32",
          "name": "role",
          "type": "bytes32"
        },
        {
          "internalType": "address",
          "name": "account",
          "type": "address"
        }
      ],
      "name": "renounceRole",
      "outputs": [],
      "stateMutability": "nonpayable",
      "type": "function"
    },
    {
      "inputs": [
        {
          "internalType": "bytes32",
          "name": "role",
          "type": "bytes32"
        },
        {
          "internalType": "address",
          "name": "account",
          "type": "address"
        }
      ],
      "name": "revokeRole",
      "outputs": [],
      "stateMutability": "nonpayable",
      "type": "function"
    },
    {
      "inputs": [
        {
          "internalType": "address",
          "name": "_value",
          "type": "address"
        }
      ],
      "name": "setExchanger",
      "outputs": [],
      "stateMutability": "nonpayable",
      "type": "function"
    },
    {
      "inputs": [
        {
          "components": [
            {
              "internalType": "address",
              "name": "exchange",
              "type": "address"
            },
            {
              "internalType": "address",
              "name": "control",
              "type": "address"
            },
            {
              "internalType": "address",
              "name": "usdPlus",
              "type": "address"
            },
            {
              "internalType": "address",
              "name": "wmatic",
              "type": "address"
            },
            {
              "internalType": "address",
              "name": "usdc",
              "type": "address"
            },
            {
              "internalType": "address",
              "name": "meshToken",
              "type": "address"
            },
            {
              "internalType": "address",
              "name": "meshSwapWmaticUsdc",
              "type": "address"
            },
            {
              "internalType": "address",
              "name": "meshSwapRouter",
              "type": "address"
            },
            {
              "internalType": "address",
              "name": "uniswapV3Router",
              "type": "address"
            },
            {
              "internalType": "uint24",
              "name": "poolFeeMaticUsdc",
              "type": "uint24"
            },
            {
              "internalType": "address",
              "name": "aavePoolAddressesProvider",
              "type": "address"
            },
            {
              "internalType": "uint256",
              "name": "tokenAssetSlippagePercent",
              "type": "uint256"
            },
            {
              "internalType": "uint256",
              "name": "liquidationThreshold",
              "type": "uint256"
            },
            {
              "internalType": "uint256",
              "name": "healthFactor",
              "type": "uint256"
            }
          ],
          "internalType": "struct StrategyWmaticUsdc.SetupParams",
          "name": "params",
          "type": "tuple"
        }
      ],
      "name": "setParams",
      "outputs": [],
      "stateMutability": "nonpayable",
      "type": "function"
    },
    {
      "inputs": [
        {
          "internalType": "uint256",
          "name": "_realHealthFactor",
          "type": "uint256"
        }
      ],
      "name": "setRealHealthFactor",
      "outputs": [],
      "stateMutability": "nonpayable",
      "type": "function"
    },
    {
      "inputs": [
        {
          "internalType": "uint256",
          "name": "_amount",
          "type": "uint256"
        }
      ],
      "name": "stake",
      "outputs": [],
      "stateMutability": "nonpayable",
      "type": "function"
    },
    {
      "inputs": [
        {
          "internalType": "bytes4",
          "name": "interfaceId",
          "type": "bytes4"
        }
      ],
      "name": "supportsInterface",
      "outputs": [
        {
          "internalType": "bool",
          "name": "",
          "type": "bool"
        }
      ],
      "stateMutability": "view",
      "type": "function"
    },
    {
      "inputs": [],
      "name": "tokenAssetSlippagePercent",
      "outputs": [
        {
          "internalType": "uint256",
          "name": "",
          "type": "uint256"
        }
      ],
      "stateMutability": "view",
      "type": "function"
    },
    {
      "inputs": [],
      "name": "uniswapV3Router",
      "outputs": [
        {
          "internalType": "contract ISwapRouter",
          "name": "",
          "type": "address"
        }
      ],
      "stateMutability": "view",
      "type": "function"
    },
    {
      "inputs": [
        {
          "internalType": "uint256",
          "name": "_amount",
          "type": "uint256"
        },
        {
          "internalType": "address",
          "name": "_to",
          "type": "address"
        }
      ],
      "name": "unstake",
      "outputs": [
        {
          "internalType": "uint256",
          "name": "",
          "type": "uint256"
        }
      ],
      "stateMutability": "nonpayable",
      "type": "function"
    },
    {
      "inputs": [
        {
          "internalType": "address",
          "name": "newImplementation",
          "type": "address"
        }
      ],
      "name": "upgradeTo",
      "outputs": [],
      "stateMutability": "nonpayable",
      "type": "function"
    },
    {
      "inputs": [
        {
          "internalType": "address",
          "name": "newImplementation",
          "type": "address"
        },
        {
          "internalType": "bytes",
          "name": "data",
          "type": "bytes"
        }
      ],
      "name": "upgradeToAndCall",
      "outputs": [],
      "stateMutability": "payable",
      "type": "function"
    },
    {
      "inputs": [],
      "name": "usdPlus",
      "outputs": [
        {
          "internalType": "contract IERC20",
          "name": "",
          "type": "address"
        }
      ],
      "stateMutability": "view",
      "type": "function"
    },
    {
      "inputs": [],
      "name": "usdc",
      "outputs": [
        {
          "internalType": "contract IERC20",
          "name": "",
          "type": "address"
        }
      ],
      "stateMutability": "view",
      "type": "function"
    },
    {
      "inputs": [],
      "name": "usdcDm",
      "outputs": [
        {
          "internalType": "uint256",
          "name": "",
          "type": "uint256"
        }
      ],
      "stateMutability": "view",
      "type": "function"
    },
    {
      "inputs": [],
      "name": "wmatic",
      "outputs": [
        {
          "internalType": "contract IERC20",
          "name": "",
          "type": "address"
        }
      ],
      "stateMutability": "view",
      "type": "function"
    },
    {
      "inputs": [],
      "name": "wmaticDm",
      "outputs": [
        {
          "internalType": "uint256",
          "name": "",
          "type": "uint256"
        }
      ],
      "stateMutability": "view",
      "type": "function"
    },
    {
      "stateMutability": "payable",
      "type": "receive"
    }
  ],
  "numDeployments": 1,
  "solcInputHash": "13a606c08d712a40a3329a11c4175854",
  "bytecode": "0x60a06040523060601b6080523480156200001857600080fd5b5060006200002760016200008e565b9050801562000040576000805461ff0019166101001790555b801562000087576000805461ff0019169055604051600181527f7f26b83ff96e1f2b6a682f133852f6798a09c465da95921460cefb38474024989060200160405180910390a15b50620001af565b60008054610100900460ff161562000127578160ff166001148015620000c75750620000c530620001a060201b620021751760201c565b155b6200011f5760405162461bcd60e51b815260206004820152602e602482015260008051602062003e5e83398151915260448201526d191e481a5b9a5d1a585b1a5e995960921b60648201526084015b60405180910390fd5b506000919050565b60005460ff808416911610620001865760405162461bcd60e51b815260206004820152602e602482015260008051602062003e5e83398151915260448201526d191e481a5b9a5d1a585b1a5e995960921b606482015260840162000116565b506000805460ff191660ff92909216919091179055600190565b6001600160a01b03163b151590565b60805160601c613c74620001ea6000396000818161135501528181611395015281816114350152818161147501526115040152613c746000f3fe6080604052600436106102cd5760003560e01c80638381e18211610175578063d547741f116100dc578063ddca95f311610095578063f72c0d8b1161006f578063f72c0d8b1461089b578063fb24974a146108cf578063fb41be16146108e5578063fdf76abc1461090657600080fd5b8063ddca95f314610843578063e109e03414610864578063ef5cfb8c1461087b57600080fd5b8063d547741f14610788578063d7a1e6ab146107a8578063d8de6587146107ca578063d95ace5b146107eb578063da909b091461080c578063dc2cddf91461082c57600080fd5b8063b1ac6c701161012e578063b1ac6c70146106b8578063b69ef8a8146106d8578063bd0f1053146106ed578063cad7d46a1461070f578063cba92be01461072f578063d2f7265a1461076757600080fd5b80638381e1821461060d57806391d148541461062d5780639f2b0e681461064d578063a217fddf1461066e578063a3673b3814610683578063a694fc3a1461069857600080fd5b80633e413bee116102345780635a01f33d116101ed57806369e4e005116101c757806369e4e005146105a05780637bb98a68146105c15780638129fc1c146105e357806383008bd9146105f857600080fd5b80635a01f33d146105355780635dbd733a1461054b5780635fea9cbb1461057f57600080fd5b80633e413bee146104945780634031234c146104b55780634d12fca4146104cc5780634f1ef286146104ec578063514e460a146104ff57806352d1902d1461052057600080fd5b80632c76d7a6116102865780632c76d7a6146103b35780632f2ff15d146103ec5780633583849a1461040c57806336568abe146104345780633659cfe61461045457806338d52e0f1461047457600080fd5b806301ffc9a7146102d957806310cbf17a1461030e5780631b1e7ddc1461033057806322841f0114610355578063248a9ca31461036c5780632a8b096f1461039c57600080fd5b366102d457005b600080fd5b3480156102e557600080fd5b506102f96102f43660046133c9565b610927565b60405190151581526020015b60405180910390f35b34801561031a57600080fd5b5061032e610329366004613459565b61095e565b005b34801561033c57600080fd5b506103476101355481565b604051908152602001610305565b34801561036157600080fd5b5061034761013e5481565b34801561037857600080fd5b50610347610387366004613367565b60009081526065602052604090206001015490565b3480156103a857600080fd5b5061034761013f5481565b3480156103bf57600080fd5b50610138546103d4906001600160a01b031681565b6040516001600160a01b039091168152602001610305565b3480156103f857600080fd5b5061032e610407366004613399565b6112a2565b34801561041857600080fd5b50610421600081565b60405161ffff9091168152602001610305565b34801561044057600080fd5b5061032e61044f366004613399565b6112cc565b34801561046057600080fd5b5061032e61046f3660046130ed565b61134a565b34801561048057600080fd5b5060fb546103d4906001600160a01b031681565b3480156104a057600080fd5b50610132546103d4906001600160a01b031681565b3480156104c157600080fd5b5061034761013d5481565b3480156104d857600080fd5b5060fc546103d4906001600160a01b031681565b61032e6104fa366004613127565b61142a565b34801561050b57600080fd5b50610130546103d4906001600160a01b031681565b34801561052c57600080fd5b506103476114f7565b34801561054157600080fd5b5061013f54610347565b34801561055757600080fd5b506103477fd67ad422505496469a1adf6cdf9e5ee92ac5d33992843c9ecc4b2f6d6cde913781565b34801561058b57600080fd5b5061013b546103d4906001600160a01b031681565b3480156105ac57600080fd5b50610139546103d4906001600160a01b031681565b3480156105cd57600080fd5b506105d66115aa565b60405161030591906135ee565b3480156105ef57600080fd5b5061032e611631565b34801561060457600080fd5b50610347600281565b34801561061957600080fd5b50610347610628366004613399565b6116a6565b34801561063957600080fd5b506102f9610648366004613399565b611811565b34801561065957600080fd5b50610136546103d4906001600160a01b031681565b34801561067a57600080fd5b50610347600081565b34801561068f57600080fd5b5061034761183c565b3480156106a457600080fd5b5061032e6106b3366004613367565b6118ba565b3480156106c457600080fd5b5061032e6106d33660046133f3565b6119a0565b3480156106e457600080fd5b5061032e611f30565b3480156106f957600080fd5b50610347600080516020613b9283398151915281565b34801561071b57600080fd5b5061032e61072a366004613367565b611f6c565b34801561073b57600080fd5b506101385461075390600160a01b900462ffffff1681565b60405162ffffff9091168152602001610305565b34801561077357600080fd5b5061012e546103d4906001600160a01b031681565b34801561079457600080fd5b5061032e6107a3366004613399565b611fce565b3480156107b457600080fd5b50610347600080516020613b0683398151915281565b3480156107d657600080fd5b5061012f546103d4906001600160a01b031681565b3480156107f757600080fd5b50610133546103d4906001600160a01b031681565b34801561081857600080fd5b5061032e6108273660046130ed565b611ff3565b34801561083857600080fd5b5061034761013c5481565b34801561084f57600080fd5b5061013a546103d4906001600160a01b031681565b34801561087057600080fd5b506103476101345481565b34801561088757600080fd5b506103476108963660046130ed565b6120f1565b3480156108a757600080fd5b506103477f189ab7a9244df0848122154315af71fe140f3db0fe014031783b0946b8c9d2e381565b3480156108db57600080fd5b5061034760001981565b3480156108f157600080fd5b50610131546103d4906001600160a01b031681565b34801561091257600080fd5b50610137546103d4906001600160a01b031681565b60006001600160e01b03198216637965db0b60e01b148061095857506301ffc9a760e01b6001600160e01b03198316145b92915050565b610969600033611811565b6109b15760405162461bcd60e51b81526020600482015260146024820152735265737472696374656420746f2061646d696e7360601b60448201526064015b60405180910390fd5b6109be60208201826130ed565b61012e80546001600160a01b0319166001600160a01b03929092169190911790556109ef60408201602083016130ed565b61012f80546001600160a01b0319166001600160a01b0392909216919091179055610a2060608201604083016130ed565b61013080546001600160a01b0319166001600160a01b0392909216919091179055610a5160808201606083016130ed565b61013180546001600160a01b0319166001600160a01b0392909216919091179055610a8260a08201608083016130ed565b61013280546001600160a01b0319166001600160a01b0392909216919091179055610ab360c0820160a083016130ed565b61013380546001600160a01b0319166001600160a01b0392909216919091179055610ae460808201606083016130ed565b6001600160a01b031663313ce5676040518163ffffffff1660e01b815260040160206040518083038186803b158015610b1c57600080fd5b505afa158015610b30573d6000803e3d6000fd5b505050506040513d601f19601f82011682018060405250810190610b5491906134bb565b610b5f90600a613920565b61013455610b7360a08201608083016130ed565b6001600160a01b031663313ce5676040518163ffffffff1660e01b815260040160206040518083038186803b158015610bab57600080fd5b505afa158015610bbf573d6000803e3d6000fd5b505050506040513d601f19601f82011682018060405250810190610be391906134bb565b610bee90600a613920565b61013555610c0260e0820160c083016130ed565b61013680546001600160a01b0319166001600160a01b0392909216919091179055610c34610100820160e083016130ed565b61013780546001600160a01b0319166001600160a01b0392909216919091179055610c67610120820161010083016130ed565b61013880546001600160a01b0319166001600160a01b0392909216919091179055610c9a61014082016101208301613472565b610138805462ffffff92909216600160a01b0262ffffff60a01b19909216919091179055610cd0610160820161014083016130ed565b61013980546001600160a01b0319166001600160a01b0392909216918217905560408051631f94a27560e31b815290516000929163fca513a8916004808301926020929190829003018186803b158015610d2957600080fd5b505afa158015610d3d573d6000803e3d6000fd5b505050506040513d601f19601f82011682018060405250810190610d61919061310a565b90506001600160a01b0381166392bf2be0610d8260808501606086016130ed565b6040516001600160e01b031960e084901b1681526001600160a01b03909116600482015260240160206040518083038186803b158015610dc157600080fd5b505afa158015610dd5573d6000803e3d6000fd5b505050506040513d601f19601f82011682018060405250810190610df9919061310a565b61013a80546001600160a01b0319166001600160a01b0392831617905581166392bf2be0610e2d60a08501608086016130ed565b6040516001600160e01b031960e084901b1681526001600160a01b03909116600482015260240160206040518083038186803b158015610e6c57600080fd5b505afa158015610e80573d6000803e3d6000fd5b505050506040513d601f19601f82011682018060405250810190610ea4919061310a565b61013b80546001600160a01b0319166001600160a01b039290921691909117905561016082013561013c55610ee561018083013566038d7ea4c680006139cb565b61013d55610eff6101a083013566038d7ea4c680006139cb565b61013e55600061013f55610f21610f1c60608401604085016130ed565b612184565b610131546101375460405163095ea7b360e01b81526001600160a01b039283169263095ea7b392610f5b92911690600019906004016135d5565b602060405180830381600087803b158015610f7557600080fd5b505af1158015610f89573d6000803e3d6000fd5b505050506040513d601f19601f82011682018060405250810190610fad919061334c565b50610132546101375460405163095ea7b360e01b81526001600160a01b039283169263095ea7b392610fe892911690600019906004016135d5565b602060405180830381600087803b15801561100257600080fd5b505af1158015611016573d6000803e3d6000fd5b505050506040513d601f19601f8201168201806040525081019061103a919061334c565b50610136546101375460405163095ea7b360e01b81526001600160a01b039283169263095ea7b39261107592911690600019906004016135d5565b602060405180830381600087803b15801561108f57600080fd5b505af11580156110a3573d6000803e3d6000fd5b505050506040513d601f19601f820116820180604052508101906110c7919061334c565b506101305461012e5460405163095ea7b360e01b81526001600160a01b039283169263095ea7b39261110292911690600019906004016135d5565b602060405180830381600087803b15801561111c57600080fd5b505af1158015611130573d6000803e3d6000fd5b505050506040513d601f19601f82011682018060405250810190611154919061334c565b506101325461012e5460405163095ea7b360e01b81526001600160a01b039283169263095ea7b39261118f92911690600019906004016135d5565b602060405180830381600087803b1580156111a957600080fd5b505af11580156111bd573d6000803e3d6000fd5b505050506040513d601f19601f820116820180604052508101906111e1919061334c565b5061012f546001600160a01b03161561121a5761012f5461121a90600080516020613b06833981519152906001600160a01b0316611fce565b61012f5461124090600080516020613b06833981519152906001600160a01b03166112a2565b61012f546040516319d0806560e11b81523060048201526001600160a01b03909116906333a100ca90602401600060405180830381600087803b15801561128657600080fd5b505af115801561129a573d6000803e3d6000fd5b505050505050565b6000828152606560205260409020600101546112bd816121f7565b6112c78383612201565b505050565b6001600160a01b038116331461133c5760405162461bcd60e51b815260206004820152602f60248201527f416363657373436f6e74726f6c3a2063616e206f6e6c792072656e6f756e636560448201526e103937b632b9903337b91039b2b63360891b60648201526084016109a8565b6113468282612287565b5050565b306001600160a01b037f00000000000000000000000000000000000000000000000000000000000000001614156113935760405162461bcd60e51b81526004016109a8906136e2565b7f00000000000000000000000000000000000000000000000000000000000000006001600160a01b03166113dc600080516020613bd6833981519152546001600160a01b031690565b6001600160a01b0316146114025760405162461bcd60e51b81526004016109a89061372e565b61140b816122ee565b6040805160008082526020820190925261142791839190612318565b50565b306001600160a01b037f00000000000000000000000000000000000000000000000000000000000000001614156114735760405162461bcd60e51b81526004016109a8906136e2565b7f00000000000000000000000000000000000000000000000000000000000000006001600160a01b03166114bc600080516020613bd6833981519152546001600160a01b031690565b6001600160a01b0316146114e25760405162461bcd60e51b81526004016109a89061372e565b6114eb826122ee565b61134682826001612318565b6000306001600160a01b037f000000000000000000000000000000000000000000000000000000000000000016146115975760405162461bcd60e51b815260206004820152603860248201527f555550535570677261646561626c653a206d757374206e6f742062652063616c60448201527f6c6564207468726f7567682064656c656761746563616c6c000000000000000060648201526084016109a8565b50600080516020613bd683398151915290565b61012f5460408051630f77314d60e31b815290516060926001600160a01b031691637bb98a68916004808301926000929190829003018186803b1580156115f057600080fd5b505afa158015611604573d6000803e3d6000fd5b505050506040513d6000823e601f3d908101601f1916820160405261162c91908101906131cf565b905090565b600061163d6001612492565b90508015611655576000805461ff0019166101001790555b61165d61251a565b8015611427576000805461ff0019169055604051600181527f7f26b83ff96e1f2b6a682f133852f6798a09c465da95921460cefb3847402498906020015b60405180910390a150565b60006116c0600080516020613b9283398151915233611811565b6116dc5760405162461bcd60e51b81526004016109a8906136ab565b60006116e784612583565b90508381101561174b5760405162461bcd60e51b815260206004820152602960248201527f52657475726e65642076616c7565206c657373207468616e2072657175657374604482015268195908185b5bdd5b9d60ba1b60648201526084016109a8565b60fb5460405163a9059cbb60e01b81526001600160a01b039091169063a9059cbb9061177d90869088906004016135d5565b602060405180830381600087803b15801561179757600080fd5b505af11580156117ab573d6000803e3d6000fd5b505050506040513d601f19601f820116820180604052508101906117cf919061334c565b5060408051858152602081018390527f9045c2ac9b2026de8075f2701bbdde882cd5e830b3b1ead9a15b22f2b5b93742910160405180910390a1509192915050565b60009182526065602090815260408084206001600160a01b0393909316845291905290205460ff1690565b61012f546040805163146ce76760e31b815290516000926001600160a01b03169163a3673b38916004808301926020929190829003018186803b15801561188257600080fd5b505afa158015611896573d6000803e3d6000fd5b505050506040513d601f19601f8201168201806040525081019061162c9190613380565b6118d2600080516020613b9283398151915233611811565b6118ee5760405162461bcd60e51b81526004016109a8906136ab565b60fb546040516370a0823160e01b8152306004820152611970916001600160a01b0316906370a082319060240160206040518083038186803b15801561193357600080fd5b505afa158015611947573d6000803e3d6000fd5b505050506040513d601f19601f8201168201806040525081019061196b9190613380565b6125fa565b6040518181527f227a473b70d2f893cc7659219575c030a63b5743024fe1e0c1a680e708b1525a9060200161169b565b6000815160098111156119b5576119b5613a43565b1415611a68576119f96040518060400160405280601c81526020017f6578656375746520616374696f6e204144445f4c49515549444954590000000081525061265c565b602081015160405163e303d1c960e01b815273__$c0d282fb90c596b96b7f6fb33212a69b80$__9163e303d1c991611a359130916004016135d5565b60006040518083038186803b158015611a4d57600080fd5b505af4158015611a61573d6000803e3d6000fd5b5050505050565b600181516009811115611a7d57611a7d613a43565b1415611b4c57611ac16040518060400160405280601f81526020017f6578656375746520616374696f6e2052454d4f56455f4c49515549444954590081525061265c565b6020810151604051634000b66360e11b815273__$c0d282fb90c596b96b7f6fb33212a69b80$__916380016cc691611afd9130916004016135d5565b604080518083038186803b158015611b1457600080fd5b505af4158015611b28573d6000803e3d6000fd5b505050506040513d601f19601f820116820180604052508101906112c79190613497565b600281516009811115611b6157611b61613a43565b1415611bc457611b88604051806060016040528060248152602001613b266024913961265c565b6020810151604051631644f34160e21b815273__$c0d282fb90c596b96b7f6fb33212a69b80$__91635913cd0491611a359130916004016135d5565b600381516009811115611bd957611bd9613a43565b1415611c3c57611c00604051806060016040528060248152602001613bb26024913961265c565b6020810151604051633dc45d5960e01b815273__$c0d282fb90c596b96b7f6fb33212a69b80$__91633dc45d5991611a359130916004016135d5565b600481516009811115611c5157611c51613a43565b1415611cb457611c78604051806060016040528060238152602001613b4a6023913961265c565b602081015160405163f494b93360e01b815273__$c0d282fb90c596b96b7f6fb33212a69b80$__9163f494b93391611a359130916004016135d5565b600581516009811115611cc957611cc9613a43565b1415611d2c57611cf0604051806060016040528060278152602001613a9b6027913961265c565b6020810151604051637273578d60e11b815273__$c0d282fb90c596b96b7f6fb33212a69b80$__9163e4e6af1a91611a359130916004016135d5565b600681516009811115611d4157611d41613a43565b1415611da457611d68604051806060016040528060258152602001613b6d6025913961265c565b602081015160405163a6c3532960e01b815273__$c0d282fb90c596b96b7f6fb33212a69b80$__9163a6c3532991611a359130916004016135d5565b600781516009811115611db957611db9613a43565b1415611e1c57611de0604051806060016040528060228152602001613ae46022913961265c565b60208101516040516313a9512560e31b815273__$c0d282fb90c596b96b7f6fb33212a69b80$__91639d4a892891611a359130916004016135d5565b600881516009811115611e3157611e31613a43565b1415611ea657611e58604051806060016040528060228152602001613ac26022913961265c565b602081015160408083015190516332c51de560e11b81523060048201526024810192909252604482015273__$c0d282fb90c596b96b7f6fb33212a69b80$__9063658a3bca90606401611a35565b600981516009811115611ebb57611ebb613a43565b141561142757611ee2604051806060016040528060228152602001613bf66022913961265c565b60208101516040808301519051631b5289c760e01b81523060048201526024810192909252604482015273__$c0d282fb90c596b96b7f6fb33212a69b80$__90631b5289c790606401611a35565b611f48600080516020613b9283398151915233611811565b611f645760405162461bcd60e51b81526004016109a8906136ab565b61142761269f565b611f84600080516020613b0683398151915233611811565b611fc85760405162461bcd60e51b815260206004820152601560248201527414995cdd1c9a58dd1959081d1bc810d3d3951493d3605a1b60448201526064016109a8565b61013f55565b600082815260656020526040902060010154611fe9816121f7565b6112c78383612287565b611ffe600033611811565b6120415760405162461bcd60e51b81526020600482015260146024820152735265737472696374656420746f2061646d696e7360601b60448201526064016109a8565b6001600160a01b0381166120925760405162461bcd60e51b815260206004820152601860248201527716995c9bc81859191c995cdcc81b9bdd08185b1b1bddd95960421b60448201526064016109a8565b60fc546120b790600080516020613b92833981519152906001600160a01b0316611fce565b6120cf600080516020613b92833981519152826112a2565b60fc80546001600160a01b0319166001600160a01b0392909216919091179055565b600061210b600080516020613b9283398151915233611811565b6121275760405162461bcd60e51b81526004016109a8906136ab565b60006121328361270e565b90507f3ac0594a85a20354f9dc74f33728416d19ce00d04a406c108cc2dcf2cecea1348160405161216591815260200190565b60405180910390a190505b919050565b6001600160a01b03163b151590565b6001600160a01b0381166121d55760405162461bcd60e51b815260206004820152601860248201527716995c9bc81859191c995cdcc81b9bdd08185b1b1bddd95960421b60448201526064016109a8565b60fb80546001600160a01b0319166001600160a01b0392909216919091179055565b6114278133612915565b61220b8282611811565b6113465760008281526065602090815260408083206001600160a01b03851684529091529020805460ff191660011790556122433390565b6001600160a01b0316816001600160a01b0316837f2f8788117e7eff1d82e926ec794901d17c78024a50270940304540a733656f0d60405160405180910390a45050565b6122918282611811565b156113465760008281526065602090815260408083206001600160a01b0385168085529252808320805460ff1916905551339285917ff6391f5c32d9c69d2a47ea670b442974b53935d1edc7fd64eb21e047a839171b9190a45050565b7f189ab7a9244df0848122154315af71fe140f3db0fe014031783b0946b8c9d2e3611346816121f7565b7f4910fdfa16fed3260ed0e7147f7cc6da11a60208b5b9406d12a635614ffd91435460ff161561234b576112c783612979565b826001600160a01b03166352d1902d6040518163ffffffff1660e01b815260040160206040518083038186803b15801561238457600080fd5b505afa9250505080156123b4575060408051601f3d908101601f191682019092526123b191810190613380565b60015b6124175760405162461bcd60e51b815260206004820152602e60248201527f45524331393637557067726164653a206e657720696d706c656d656e7461746960448201526d6f6e206973206e6f74205555505360901b60648201526084016109a8565b600080516020613bd683398151915281146124865760405162461bcd60e51b815260206004820152602960248201527f45524331393637557067726164653a20756e737570706f727465642070726f786044820152681a58589b195555525160ba1b60648201526084016109a8565b506112c7838383612a15565b60008054610100900460ff16156124d9578160ff1660011480156124b55750303b155b6124d15760405162461bcd60e51b81526004016109a89061377a565b506000919050565b60005460ff8084169116106125005760405162461bcd60e51b81526004016109a89061377a565b506000805460ff191660ff92909216919091179055600190565b60006125266001612492565b9050801561253e576000805461ff0019166101001790555b612546612a40565b61254e612a40565b612559600033612201565b61165d7f189ab7a9244df0848122154315af71fe140f3db0fe014031783b0946b8c9d2e333612201565b61012f546000906001600160a01b0316632412744660026125a5856001612aad565b6040518363ffffffff1660e01b81526004016125c292919061365d565b600060405180830381600087803b1580156125dc57600080fd5b505af11580156125f0573d6000803e3d6000fd5b5093949350505050565b61012f546040516312093a2360e11b81526001600160a01b039091169063241274469061262e90600190859060040161365d565b600060405180830381600087803b15801561264857600080fd5b505af1158015611a61573d6000803e3d6000fd5b611427816040516024016126709190613678565b60408051601f198184030181529190526020810180516001600160e01b031663104c13eb60e21b179052612ad7565b61012f546040516312093a2360e11b81526000916001600160a01b0316906324127446906126d3908490819060040161365d565b600060405180830381600087803b1580156126ed57600080fd5b505af1158015612701573d6000803e3d6000fd5b5050505061013f54905090565b610136546040516370a0823160e01b815230600482015260009182916001600160a01b03909116906370a082319060240160206040518083038186803b15801561275757600080fd5b505afa15801561276b573d6000803e3d6000fd5b505050506040513d601f19601f8201168201806040525081019061278f9190613380565b11156127ff5761013660009054906101000a90046001600160a01b03166001600160a01b031663b88a802f6040518163ffffffff1660e01b8152600401600060405180830381600087803b1580156127e657600080fd5b505af11580156127fa573d6000803e3d6000fd5b505050505b610133546040516370a0823160e01b815230600482015260009182916001600160a01b03909116906370a082319060240160206040518083038186803b15801561284857600080fd5b505afa15801561285c573d6000803e3d6000fd5b505050506040513d601f19601f820116820180604052508101906128809190613380565b9050801561290e576101375461013354610132546000926128b2926001600160a01b0391821692908216911685612af8565b9050801561290c576101375461013354610132546000926128fc926001600160a01b039182169290821691168660646128ec8860636139cb565b6128f691906138bb565b30612c21565b905061290881856138a3565b9350505b505b5092915050565b61291f8282611811565b61134657612937816001600160a01b03166014612dd4565b612942836020612dd4565b604051602001612953929190613560565b60408051601f198184030181529082905262461bcd60e51b82526109a891600401613678565b6001600160a01b0381163b6129e65760405162461bcd60e51b815260206004820152602d60248201527f455243313936373a206e657720696d706c656d656e746174696f6e206973206e60448201526c1bdd08184818dbdb9d1c9858dd609a1b60648201526084016109a8565b600080516020613bd683398151915280546001600160a01b0319166001600160a01b0392909216919091179055565b612a1e83612f70565b600082511180612a2b5750805b156112c757612a3a8383612fb0565b50505050565b600054610100900460ff16612aab5760405162461bcd60e51b815260206004820152602b60248201527f496e697469616c697a61626c653a20636f6e7472616374206973206e6f74206960448201526a6e697469616c697a696e6760a81b60648201526084016109a8565b565b6000612710612abc83826138a3565b612ac690856139cb565b612ad091906138bb565b9392505050565b80516a636f6e736f6c652e6c6f67602083016000808483855afa5050505050565b604080516002808252606082018352600092839291906020830190803683370190505090508481600081518110612b3157612b31613a59565b60200260200101906001600160a01b031690816001600160a01b0316815250508381600181518110612b6557612b65613a59565b6001600160a01b03928316602091820292909201015260405163d06ca61f60e01b815260009188169063d06ca61f90612ba490879086906004016137c8565b60006040518083038186803b158015612bbc57600080fd5b505afa158015612bd0573d6000803e3d6000fd5b505050506040513d6000823e601f3d908101601f19168201604052612bf891908101906132b4565b905080600181518110612c0d57612c0d613a59565b602002602001015192505050949350505050565b60405163095ea7b360e01b81526000906001600160a01b0387169063095ea7b390612c52908a9088906004016135d5565b602060405180830381600087803b158015612c6c57600080fd5b505af1158015612c80573d6000803e3d6000fd5b505050506040513d601f19601f82011682018060405250810190612ca4919061334c565b506040805160028082526060820183526000926020830190803683370190505090508681600081518110612cda57612cda613a59565b60200260200101906001600160a01b031690816001600160a01b0316815250508581600181518110612d0e57612d0e613a59565b6001600160a01b0392831660209182029290920101526040516338ed173960e01b81526000918a16906338ed173990612d53908990899087908a9042906004016137e9565b600060405180830381600087803b158015612d6d57600080fd5b505af1158015612d81573d6000803e3d6000fd5b505050506040513d6000823e601f3d908101601f19168201604052612da991908101906132b4565b905080600181518110612dbe57612dbe613a59565b6020026020010151925050509695505050505050565b60606000612de38360026139cb565b612dee9060026138a3565b67ffffffffffffffff811115612e0657612e06613a6f565b6040519080825280601f01601f191660200182016040528015612e30576020820181803683370190505b509050600360fc1b81600081518110612e4b57612e4b613a59565b60200101906001600160f81b031916908160001a905350600f60fb1b81600181518110612e7a57612e7a613a59565b60200101906001600160f81b031916908160001a9053506000612e9e8460026139cb565b612ea99060016138a3565b90505b6001811115612f21576f181899199a1a9b1b9c1cb0b131b232b360811b85600f1660108110612edd57612edd613a59565b1a60f81b828281518110612ef357612ef3613a59565b60200101906001600160f81b031916908160001a90535060049490941c93612f1a81613a16565b9050612eac565b508315612ad05760405162461bcd60e51b815260206004820181905260248201527f537472696e67733a20686578206c656e67746820696e73756666696369656e7460448201526064016109a8565b612f7981612979565b6040516001600160a01b038216907fbc7cd75a20ee27fd9adebab32041f755214dbc6bffa90cc0225b39da2e5c2d3b90600090a250565b60606001600160a01b0383163b6130185760405162461bcd60e51b815260206004820152602660248201527f416464726573733a2064656c65676174652063616c6c20746f206e6f6e2d636f6044820152651b9d1c9858dd60d21b60648201526084016109a8565b600080846001600160a01b0316846040516130339190613544565b600060405180830381855af49150503d806000811461306e576040519150601f19603f3d011682016040523d82523d6000602084013e613073565b606091505b509150915061309b8282604051806060016040528060278152602001613c18602791396130a4565b95945050505050565b606083156130b3575081612ad0565b8251156130c35782518084602001fd5b8160405162461bcd60e51b81526004016109a89190613678565b8051801515811461217057600080fd5b6000602082840312156130ff57600080fd5b8135612ad081613a85565b60006020828403121561311c57600080fd5b8151612ad081613a85565b6000806040838503121561313a57600080fd5b823561314581613a85565b915060208381013567ffffffffffffffff8082111561316357600080fd5b818601915086601f83011261317757600080fd5b81358181111561318957613189613a6f565b61319b601f8201601f1916850161384e565b915080825287848285010111156131b157600080fd5b80848401858401376000848284010152508093505050509250929050565b600060208083850312156131e257600080fd5b825167ffffffffffffffff8111156131f957600080fd5b8301601f8101851361320a57600080fd5b805161321d6132188261387f565b61384e565b80828252848201915084840188868560071b870101111561323d57600080fd5b60009450845b848110156132a657608080838c03121561325b578687fd5b613263613825565b835161326e81613a85565b8152838901518982015260408085015190820152606061328f8186016130dd565b908201528552938701939190910190600101613243565b509098975050505050505050565b600060208083850312156132c757600080fd5b825167ffffffffffffffff8111156132de57600080fd5b8301601f810185136132ef57600080fd5b80516132fd6132188261387f565b80828252848201915084840188868560051b870101111561331d57600080fd5b600094505b83851015613340578051835260019490940193918501918501613322565b50979650505050505050565b60006020828403121561335e57600080fd5b612ad0826130dd565b60006020828403121561337957600080fd5b5035919050565b60006020828403121561339257600080fd5b5051919050565b600080604083850312156133ac57600080fd5b8235915060208301356133be81613a85565b809150509250929050565b6000602082840312156133db57600080fd5b81356001600160e01b031981168114612ad057600080fd5b60006060828403121561340557600080fd5b6040516060810181811067ffffffffffffffff8211171561342857613428613a6f565b6040528235600a811061343a57600080fd5b8152602083810135908201526040928301359281019290925250919050565b60006101c0828403121561346c57600080fd5b50919050565b60006020828403121561348457600080fd5b813562ffffff81168114612ad057600080fd5b600080604083850312156134aa57600080fd5b505080516020909101519092909150565b6000602082840312156134cd57600080fd5b815160ff81168114612ad057600080fd5b600081518084526020808501945080840160005b838110156135175781516001600160a01b0316875295820195908201906001016134f2565b509495945050505050565b6003811061354057634e487b7160e01b600052602160045260246000fd5b9052565b600082516135568184602087016139ea565b9190910192915050565b7f416363657373436f6e74726f6c3a206163636f756e74200000000000000000008152600083516135988160178501602088016139ea565b7001034b99036b4b9b9b4b733903937b6329607d1b60179184019182015283516135c98160288401602088016139ea565b01602801949350505050565b6001600160a01b03929092168252602082015260400190565b602080825282518282018190526000919060409081850190868401855b8281101561365057815180516001600160a01b03168552868101518786015285810151868601526060908101511515908501526080909301929085019060010161360b565b5091979650505050505050565b6040810161366b8285613522565b8260208301529392505050565b60208152600082518060208401526136978160408501602087016139ea565b601f01601f19169190910160400192915050565b60208082526017908201527f5265737472696374656420746f2045584348414e474552000000000000000000604082015260600190565b6020808252602c908201527f46756e6374696f6e206d7573742062652063616c6c6564207468726f7567682060408201526b19195b1959d85d1958d85b1b60a21b606082015260800190565b6020808252602c908201527f46756e6374696f6e206d7573742062652063616c6c6564207468726f7567682060408201526b6163746976652070726f787960a01b606082015260800190565b6020808252602e908201527f496e697469616c697a61626c653a20636f6e747261637420697320616c72656160408201526d191e481a5b9a5d1a585b1a5e995960921b606082015260800190565b8281526040602082015260006137e160408301846134de565b949350505050565b85815284602082015260a06040820152600061380860a08301866134de565b6001600160a01b0394909416606083015250608001529392505050565b6040516080810167ffffffffffffffff8111828210171561384857613848613a6f565b60405290565b604051601f8201601f1916810167ffffffffffffffff8111828210171561387757613877613a6f565b604052919050565b600067ffffffffffffffff82111561389957613899613a6f565b5060051b60200190565b600082198211156138b6576138b6613a2d565b500190565b6000826138d857634e487b7160e01b600052601260045260246000fd5b500490565b600181815b808511156139185781600019048211156138fe576138fe613a2d565b8085161561390b57918102915b93841c93908002906138e2565b509250929050565b6000612ad060ff84168360008261393957506001610958565b8161394657506000610958565b816001811461395c576002811461396657613982565b6001915050610958565b60ff84111561397757613977613a2d565b50506001821b610958565b5060208310610133831016604e8410600b84101617156139a5575081810a610958565b6139af83836138dd565b80600019048211156139c3576139c3613a2d565b029392505050565b60008160001904831182151516156139e5576139e5613a2d565b500290565b60005b83811015613a055781810151838201526020016139ed565b83811115612a3a5750506000910152565b600081613a2557613a25613a2d565b506000190190565b634e487b7160e01b600052601160045260246000fd5b634e487b7160e01b600052602160045260246000fd5b634e487b7160e01b600052603260045260246000fd5b634e487b7160e01b600052604160045260246000fd5b6001600160a01b038116811461142757600080fdfe6578656375746520616374696f6e2057495448445241575f41535345545f46524f4d5f414156456578656375746520616374696f6e20535741505f544f4b454e5f544f5f41535345546578656375746520616374696f6e2052455041595f544f4b454e5f544f5f41415645126c7c8716c8f1c7c73a7370c820c7d73a9b4ed0ad633cfce1092f9ff47c85746578656375746520616374696f6e20535741505f555344504c55535f544f5f41535345546578656375746520616374696f6e20535550504c595f41535345545f544f5f414156456578656375746520616374696f6e20424f52524f575f544f4b454e5f46524f4d5f414156453eb675f159e6ca6cf5de6bfbbc8c4521cfd428f5e9166e51094d5898504caf2d6578656375746520616374696f6e20535741505f41535345545f544f5f555344504c5553360894a13ba1a3210667c828492db98dca3e2076cc3735a920a3ca505d382bbc6578656375746520616374696f6e20535741505f41535345545f544f5f544f4b454e416464726573733a206c6f772d6c6576656c2064656c65676174652063616c6c206661696c6564a2646970667358221220b58659737b175bd888cc11ca6dc14c35d75a1ebb77ec3bb5f0d9a378d4de10bd64736f6c63430008060033496e697469616c697a61626c653a20636f6e747261637420697320616c726561",
  "devdoc": {
    "kind": "dev",
    "methods": {
      "constructor": {
        "custom:oz-upgrades-unsafe-allow": "constructor"
      },
      "getRoleAdmin(bytes32)": {
        "details": "Returns the admin role that controls `role`. See {grantRole} and {revokeRole}. To change a role's admin, use {_setRoleAdmin}."
      },
      "grantRole(bytes32,address)": {
        "details": "Grants `role` to `account`. If `account` had not been already granted `role`, emits a {RoleGranted} event. Requirements: - the caller must have ``role``'s admin role."
      },
      "hasRole(bytes32,address)": {
        "details": "Returns `true` if `account` has been granted `role`."
      },
      "proxiableUUID()": {
        "details": "Implementation of the ERC1822 {proxiableUUID} function. This returns the storage slot used by the implementation. It is used to validate that the this implementation remains valid after an upgrade. IMPORTANT: A proxy pointing at a proxiable contract should not be considered proxiable itself, because this risks bricking a proxy that upgrades to it, by delegating to itself until out of gas. Thus it is critical that this function revert if invoked through a proxy. This is guaranteed by the `notDelegated` modifier."
      },
      "renounceRole(bytes32,address)": {
        "details": "Revokes `role` from the calling account. Roles are often managed via {grantRole} and {revokeRole}: this function's purpose is to provide a mechanism for accounts to lose their privileges if they are compromised (such as when a trusted device is misplaced). If the calling account had been revoked `role`, emits a {RoleRevoked} event. Requirements: - the caller must be `account`."
      },
      "revokeRole(bytes32,address)": {
        "details": "Revokes `role` from `account`. If `account` had been granted `role`, emits a {RoleRevoked} event. Requirements: - the caller must have ``role``'s admin role."
      },
      "supportsInterface(bytes4)": {
        "details": "See {IERC165-supportsInterface}."
      },
      "upgradeTo(address)": {
        "details": "Upgrade the implementation of the proxy to `newImplementation`. Calls {_authorizeUpgrade}. Emits an {Upgraded} event."
      },
      "upgradeToAndCall(address,bytes)": {
        "details": "Upgrade the implementation of the proxy to `newImplementation`, and subsequently execute the function call encoded in `data`. Calls {_authorizeUpgrade}. Emits an {Upgraded} event."
      }
    },
    "version": 1
  },
  "userdoc": {
    "kind": "user",
    "methods": {},
    "version": 1
  },
  "storageLayout": {
    "storage": [
      {
        "astId": 808,
        "contract": "contracts/StrategyWmaticUsdc.sol:StrategyWmaticUsdc",
        "label": "_initialized",
        "offset": 0,
        "slot": "0",
        "type": "t_uint8"
      },
      {
        "astId": 811,
        "contract": "contracts/StrategyWmaticUsdc.sol:StrategyWmaticUsdc",
        "label": "_initializing",
        "offset": 1,
        "slot": "0",
        "type": "t_bool"
      },
      {
        "astId": 1363,
        "contract": "contracts/StrategyWmaticUsdc.sol:StrategyWmaticUsdc",
        "label": "__gap",
        "offset": 0,
        "slot": "1",
        "type": "t_array(t_uint256)50_storage"
      },
      {
        "astId": 1670,
        "contract": "contracts/StrategyWmaticUsdc.sol:StrategyWmaticUsdc",
        "label": "__gap",
        "offset": 0,
        "slot": "51",
        "type": "t_array(t_uint256)50_storage"
      },
      {
        "astId": 39,
        "contract": "contracts/StrategyWmaticUsdc.sol:StrategyWmaticUsdc",
        "label": "_roles",
        "offset": 0,
        "slot": "101",
        "type": "t_mapping(t_bytes32,t_struct(RoleData)34_storage)"
      },
      {
        "astId": 338,
        "contract": "contracts/StrategyWmaticUsdc.sol:StrategyWmaticUsdc",
        "label": "__gap",
        "offset": 0,
        "slot": "102",
        "type": "t_array(t_uint256)49_storage"
      },
      {
        "astId": 790,
        "contract": "contracts/StrategyWmaticUsdc.sol:StrategyWmaticUsdc",
        "label": "__gap",
        "offset": 0,
        "slot": "151",
        "type": "t_array(t_uint256)50_storage"
      },
      {
        "astId": 1078,
        "contract": "contracts/StrategyWmaticUsdc.sol:StrategyWmaticUsdc",
        "label": "__gap",
        "offset": 0,
        "slot": "201",
        "type": "t_array(t_uint256)50_storage"
      },
      {
        "astId": 23481,
        "contract": "contracts/StrategyWmaticUsdc.sol:StrategyWmaticUsdc",
        "label": "asset",
        "offset": 0,
        "slot": "251",
        "type": "t_contract(IERC20)2347"
      },
      {
        "astId": 23483,
        "contract": "contracts/StrategyWmaticUsdc.sol:StrategyWmaticUsdc",
        "label": "exchanger",
        "offset": 0,
        "slot": "252",
        "type": "t_address"
      },
      {
        "astId": 23763,
        "contract": "contracts/StrategyWmaticUsdc.sol:StrategyWmaticUsdc",
        "label": "__gap",
        "offset": 0,
        "slot": "253",
        "type": "t_array(t_uint256)49_storage"
      },
      {
        "astId": 19021,
        "contract": "contracts/StrategyWmaticUsdc.sol:StrategyWmaticUsdc",
        "label": "exchange",
        "offset": 0,
        "slot": "302",
        "type": "t_contract(IExchange)14614"
      },
      {
        "astId": 19024,
        "contract": "contracts/StrategyWmaticUsdc.sol:StrategyWmaticUsdc",
        "label": "control",
        "offset": 0,
        "slot": "303",
        "type": "t_contract(ControlWmaticUsdc)23443"
      },
      {
        "astId": 19027,
        "contract": "contracts/StrategyWmaticUsdc.sol:StrategyWmaticUsdc",
        "label": "usdPlus",
        "offset": 0,
        "slot": "304",
        "type": "t_contract(IERC20)2347"
      },
      {
        "astId": 19030,
        "contract": "contracts/StrategyWmaticUsdc.sol:StrategyWmaticUsdc",
        "label": "wmatic",
        "offset": 0,
        "slot": "305",
        "type": "t_contract(IERC20)2347"
      },
      {
        "astId": 19033,
        "contract": "contracts/StrategyWmaticUsdc.sol:StrategyWmaticUsdc",
        "label": "usdc",
        "offset": 0,
        "slot": "306",
        "type": "t_contract(IERC20)2347"
      },
      {
        "astId": 19036,
        "contract": "contracts/StrategyWmaticUsdc.sol:StrategyWmaticUsdc",
        "label": "meshToken",
        "offset": 0,
        "slot": "307",
        "type": "t_contract(IERC20)2347"
      },
      {
        "astId": 19038,
        "contract": "contracts/StrategyWmaticUsdc.sol:StrategyWmaticUsdc",
        "label": "wmaticDm",
        "offset": 0,
        "slot": "308",
        "type": "t_uint256"
      },
      {
        "astId": 19040,
        "contract": "contracts/StrategyWmaticUsdc.sol:StrategyWmaticUsdc",
        "label": "usdcDm",
        "offset": 0,
        "slot": "309",
        "type": "t_uint256"
      },
      {
        "astId": 19043,
        "contract": "contracts/StrategyWmaticUsdc.sol:StrategyWmaticUsdc",
        "label": "meshSwapWmaticUsdc",
        "offset": 0,
        "slot": "310",
        "type": "t_contract(IMeshSwapLP)10129"
      },
      {
        "astId": 19046,
        "contract": "contracts/StrategyWmaticUsdc.sol:StrategyWmaticUsdc",
        "label": "meshSwapRouter",
        "offset": 0,
        "slot": "311",
        "type": "t_contract(IMeshSwapRouter)9863"
      },
      {
        "astId": 19049,
        "contract": "contracts/StrategyWmaticUsdc.sol:StrategyWmaticUsdc",
        "label": "uniswapV3Router",
        "offset": 0,
        "slot": "312",
        "type": "t_contract(ISwapRouter)12049"
      },
      {
        "astId": 19051,
        "contract": "contracts/StrategyWmaticUsdc.sol:StrategyWmaticUsdc",
        "label": "poolFeeMaticUsdc",
        "offset": 20,
        "slot": "312",
        "type": "t_uint24"
      },
      {
        "astId": 19054,
        "contract": "contracts/StrategyWmaticUsdc.sol:StrategyWmaticUsdc",
        "label": "aavePoolAddressesProvider",
        "offset": 0,
        "slot": "313",
        "type": "t_contract(IPoolAddressesProvider)4564"
      },
      {
        "astId": 19057,
        "contract": "contracts/StrategyWmaticUsdc.sol:StrategyWmaticUsdc",
        "label": "oracleWmatic",
        "offset": 0,
        "slot": "314",
        "type": "t_contract(IPriceFeed)5059"
      },
      {
        "astId": 19060,
        "contract": "contracts/StrategyWmaticUsdc.sol:StrategyWmaticUsdc",
        "label": "oracleUsdc",
        "offset": 0,
        "slot": "315",
        "type": "t_contract(IPriceFeed)5059"
      },
      {
        "astId": 19062,
        "contract": "contracts/StrategyWmaticUsdc.sol:StrategyWmaticUsdc",
        "label": "tokenAssetSlippagePercent",
        "offset": 0,
        "slot": "316",
        "type": "t_uint256"
      },
      {
        "astId": 19064,
        "contract": "contracts/StrategyWmaticUsdc.sol:StrategyWmaticUsdc",
        "label": "liquidationThreshold",
        "offset": 0,
        "slot": "317",
        "type": "t_uint256"
      },
      {
        "astId": 19066,
        "contract": "contracts/StrategyWmaticUsdc.sol:StrategyWmaticUsdc",
        "label": "healthFactor",
        "offset": 0,
        "slot": "318",
        "type": "t_uint256"
      },
      {
        "astId": 19068,
        "contract": "contracts/StrategyWmaticUsdc.sol:StrategyWmaticUsdc",
        "label": "realHealthFactor",
        "offset": 0,
        "slot": "319",
        "type": "t_uint256"
      }
    ],
    "types": {
      "t_address": {
        "encoding": "inplace",
        "label": "address",
        "numberOfBytes": "20"
      },
      "t_array(t_uint256)49_storage": {
        "base": "t_uint256",
        "encoding": "inplace",
        "label": "uint256[49]",
        "numberOfBytes": "1568"
      },
      "t_array(t_uint256)50_storage": {
        "base": "t_uint256",
        "encoding": "inplace",
        "label": "uint256[50]",
        "numberOfBytes": "1600"
      },
      "t_bool": {
        "encoding": "inplace",
        "label": "bool",
        "numberOfBytes": "1"
      },
      "t_bytes32": {
        "encoding": "inplace",
        "label": "bytes32",
        "numberOfBytes": "32"
      },
      "t_contract(ControlWmaticUsdc)23443": {
        "encoding": "inplace",
        "label": "contract ControlWmaticUsdc",
        "numberOfBytes": "20"
      },
      "t_contract(IERC20)2347": {
        "encoding": "inplace",
        "label": "contract IERC20",
        "numberOfBytes": "20"
      },
      "t_contract(IExchange)14614": {
        "encoding": "inplace",
        "label": "contract IExchange",
        "numberOfBytes": "20"
      },
      "t_contract(IMeshSwapLP)10129": {
        "encoding": "inplace",
        "label": "contract IMeshSwapLP",
        "numberOfBytes": "20"
      },
      "t_contract(IMeshSwapRouter)9863": {
        "encoding": "inplace",
        "label": "contract IMeshSwapRouter",
        "numberOfBytes": "20"
      },
      "t_contract(IPoolAddressesProvider)4564": {
        "encoding": "inplace",
        "label": "contract IPoolAddressesProvider",
        "numberOfBytes": "20"
      },
      "t_contract(IPriceFeed)5059": {
        "encoding": "inplace",
        "label": "contract IPriceFeed",
        "numberOfBytes": "20"
      },
      "t_contract(ISwapRouter)12049": {
        "encoding": "inplace",
        "label": "contract ISwapRouter",
        "numberOfBytes": "20"
      },
      "t_mapping(t_address,t_bool)": {
        "encoding": "mapping",
        "key": "t_address",
        "label": "mapping(address => bool)",
        "numberOfBytes": "32",
        "value": "t_bool"
      },
      "t_mapping(t_bytes32,t_struct(RoleData)34_storage)": {
        "encoding": "mapping",
        "key": "t_bytes32",
        "label": "mapping(bytes32 => struct AccessControlUpgradeable.RoleData)",
        "numberOfBytes": "32",
        "value": "t_struct(RoleData)34_storage"
      },
      "t_struct(RoleData)34_storage": {
        "encoding": "inplace",
        "label": "struct AccessControlUpgradeable.RoleData",
        "members": [
          {
            "astId": 31,
            "contract": "contracts/StrategyWmaticUsdc.sol:StrategyWmaticUsdc",
            "label": "members",
            "offset": 0,
            "slot": "0",
            "type": "t_mapping(t_address,t_bool)"
          },
          {
            "astId": 33,
            "contract": "contracts/StrategyWmaticUsdc.sol:StrategyWmaticUsdc",
            "label": "adminRole",
            "offset": 0,
            "slot": "1",
            "type": "t_bytes32"
          }
        ],
        "numberOfBytes": "64"
      },
      "t_uint24": {
        "encoding": "inplace",
        "label": "uint24",
        "numberOfBytes": "3"
      },
      "t_uint256": {
        "encoding": "inplace",
        "label": "uint256",
        "numberOfBytes": "32"
      },
      "t_uint8": {
        "encoding": "inplace",
        "label": "uint8",
        "numberOfBytes": "1"
      }
    }
  }
}