{
  "address": "0xb0e77acbAad853d02E31F179c9A6d7B008fA93D2",
  "abi": [
    {
      "inputs": [],
      "stateMutability": "nonpayable",
      "type": "constructor"
    },
    {
      "anonymous": false,
      "inputs": [
        {
          "indexed": false,
          "internalType": "address",
          "name": "previousAdmin",
          "type": "address"
        },
        {
          "indexed": false,
          "internalType": "address",
          "name": "newAdmin",
          "type": "address"
        }
      ],
      "name": "AdminChanged",
      "type": "event"
    },
    {
      "anonymous": false,
      "inputs": [
        {
          "indexed": true,
          "internalType": "address",
          "name": "beacon",
          "type": "address"
        }
      ],
      "name": "BeaconUpgraded",
      "type": "event"
    },
    {
      "anonymous": false,
      "inputs": [
        {
          "indexed": false,
          "internalType": "uint8",
          "name": "version",
          "type": "uint8"
        }
      ],
      "name": "Initialized",
      "type": "event"
    },
    {
      "anonymous": false,
      "inputs": [
        {
          "indexed": false,
          "internalType": "address",
          "name": "value",
          "type": "address"
        }
      ],
      "name": "PortfolioManagerUpdated",
      "type": "event"
    },
    {
      "anonymous": false,
      "inputs": [
        {
          "indexed": false,
          "internalType": "uint256",
          "name": "amount",
          "type": "uint256"
        }
      ],
      "name": "Reward",
      "type": "event"
    },
    {
      "anonymous": false,
      "inputs": [
        {
          "indexed": true,
          "internalType": "bytes32",
          "name": "role",
          "type": "bytes32"
        },
        {
          "indexed": true,
          "internalType": "bytes32",
          "name": "previousAdminRole",
          "type": "bytes32"
        },
        {
          "indexed": true,
          "internalType": "bytes32",
          "name": "newAdminRole",
          "type": "bytes32"
        }
      ],
      "name": "RoleAdminChanged",
      "type": "event"
    },
    {
      "anonymous": false,
      "inputs": [
        {
          "indexed": true,
          "internalType": "bytes32",
          "name": "role",
          "type": "bytes32"
        },
        {
          "indexed": true,
          "internalType": "address",
          "name": "account",
          "type": "address"
        },
        {
          "indexed": true,
          "internalType": "address",
          "name": "sender",
          "type": "address"
        }
      ],
      "name": "RoleGranted",
      "type": "event"
    },
    {
      "anonymous": false,
      "inputs": [
        {
          "indexed": true,
          "internalType": "bytes32",
          "name": "role",
          "type": "bytes32"
        },
        {
          "indexed": true,
          "internalType": "address",
          "name": "account",
          "type": "address"
        },
        {
          "indexed": true,
          "internalType": "address",
          "name": "sender",
          "type": "address"
        }
      ],
      "name": "RoleRevoked",
      "type": "event"
    },
    {
      "anonymous": false,
      "inputs": [
        {
          "indexed": false,
          "internalType": "uint256",
          "name": "swapSlippageBP",
          "type": "uint256"
        },
        {
          "indexed": false,
          "internalType": "uint256",
          "name": "navSlippageBP",
          "type": "uint256"
        },
        {
          "indexed": false,
          "internalType": "uint256",
          "name": "stakeSlippageBP",
          "type": "uint256"
        }
      ],
      "name": "SlippagesUpdated",
      "type": "event"
    },
    {
      "anonymous": false,
      "inputs": [
        {
          "indexed": false,
          "internalType": "uint256",
          "name": "amount",
          "type": "uint256"
        }
      ],
      "name": "Stake",
      "type": "event"
    },
    {
      "anonymous": false,
      "inputs": [],
      "name": "StrategyUpdatedParams",
      "type": "event"
    },
    {
      "anonymous": false,
      "inputs": [
        {
          "indexed": false,
          "internalType": "uint256",
          "name": "amount",
          "type": "uint256"
        },
        {
          "indexed": false,
          "internalType": "uint256",
          "name": "amountReceived",
          "type": "uint256"
        }
      ],
      "name": "Unstake",
      "type": "event"
    },
    {
      "anonymous": false,
      "inputs": [
        {
          "indexed": true,
          "internalType": "address",
          "name": "implementation",
          "type": "address"
        }
      ],
      "name": "Upgraded",
      "type": "event"
    },
    {
      "inputs": [],
      "name": "DEFAULT_ADMIN_ROLE",
      "outputs": [
        {
          "internalType": "bytes32",
          "name": "",
          "type": "bytes32"
        }
      ],
      "stateMutability": "view",
      "type": "function"
    },
    {
      "inputs": [],
      "name": "PORTFOLIO_AGENT_ROLE",
      "outputs": [
        {
          "internalType": "bytes32",
          "name": "",
          "type": "bytes32"
        }
      ],
      "stateMutability": "view",
      "type": "function"
    },
    {
      "inputs": [],
      "name": "PORTFOLIO_MANAGER",
      "outputs": [
        {
          "internalType": "bytes32",
          "name": "",
          "type": "bytes32"
        }
      ],
      "stateMutability": "view",
      "type": "function"
    },
    {
      "inputs": [
        {
          "internalType": "address",
          "name": "_to",
          "type": "address"
        }
      ],
      "name": "claimRewards",
      "outputs": [
        {
          "internalType": "uint256",
          "name": "",
          "type": "uint256"
        }
      ],
      "stateMutability": "nonpayable",
      "type": "function"
    },
    {
      "inputs": [],
      "name": "esRdnt",
      "outputs": [
        {
          "internalType": "contract IERC20",
          "name": "",
          "type": "address"
        }
      ],
      "stateMutability": "view",
      "type": "function"
    },
    {
      "inputs": [
        {
          "internalType": "bytes32",
          "name": "role",
          "type": "bytes32"
        }
      ],
      "name": "getRoleAdmin",
      "outputs": [
        {
          "internalType": "bytes32",
          "name": "",
          "type": "bytes32"
        }
      ],
      "stateMutability": "view",
      "type": "function"
    },
    {
      "inputs": [
        {
          "internalType": "bytes32",
          "name": "role",
          "type": "bytes32"
        },
        {
          "internalType": "address",
          "name": "account",
          "type": "address"
        }
      ],
      "name": "grantRole",
      "outputs": [],
      "stateMutability": "nonpayable",
      "type": "function"
    },
    {
      "inputs": [
        {
          "internalType": "bytes32",
          "name": "role",
          "type": "bytes32"
        },
        {
          "internalType": "address",
          "name": "account",
          "type": "address"
        }
      ],
      "name": "hasRole",
      "outputs": [
        {
          "internalType": "bool",
          "name": "",
          "type": "bool"
        }
      ],
      "stateMutability": "view",
      "type": "function"
    },
    {
      "inputs": [],
      "name": "initialize",
      "outputs": [],
      "stateMutability": "nonpayable",
      "type": "function"
    },
    {
      "inputs": [],
      "name": "liquidationValue",
      "outputs": [
        {
          "internalType": "uint256",
          "name": "",
          "type": "uint256"
        }
      ],
      "stateMutability": "view",
      "type": "function"
    },
    {
      "inputs": [],
      "name": "navSlippageBP",
      "outputs": [
        {
          "internalType": "uint256",
          "name": "",
          "type": "uint256"
        }
      ],
      "stateMutability": "view",
      "type": "function"
    },
    {
      "inputs": [],
      "name": "netAssetValue",
      "outputs": [
        {
          "internalType": "uint256",
          "name": "",
          "type": "uint256"
        }
      ],
      "stateMutability": "view",
      "type": "function"
    },
    {
      "inputs": [],
      "name": "pancakeSwapV3Router",
      "outputs": [
        {
          "internalType": "address",
          "name": "",
          "type": "address"
        }
      ],
      "stateMutability": "view",
      "type": "function"
    },
    {
      "inputs": [],
      "name": "portfolioManager",
      "outputs": [
        {
          "internalType": "address",
          "name": "",
          "type": "address"
        }
      ],
      "stateMutability": "view",
      "type": "function"
    },
    {
      "inputs": [],
      "name": "proxiableUUID",
      "outputs": [
        {
          "internalType": "bytes32",
          "name": "",
          "type": "bytes32"
        }
      ],
      "stateMutability": "view",
      "type": "function"
    },
    {
      "inputs": [],
      "name": "radiantRewardManager",
      "outputs": [
        {
          "internalType": "contract IRDNTRewardManager",
          "name": "",
          "type": "address"
        }
      ],
      "stateMutability": "view",
      "type": "function"
    },
    {
      "inputs": [],
      "name": "radiantStaking",
      "outputs": [
        {
          "internalType": "contract IRadiantStaking",
          "name": "",
          "type": "address"
        }
      ],
      "stateMutability": "view",
      "type": "function"
    },
    {
      "inputs": [],
      "name": "radpiePoolHelper",
      "outputs": [
        {
          "internalType": "contract IRadpiePoolHelper",
          "name": "",
          "type": "address"
        }
      ],
      "stateMutability": "view",
      "type": "function"
    },
    {
      "inputs": [],
      "name": "rdnt",
      "outputs": [
        {
          "internalType": "contract IERC20",
          "name": "",
          "type": "address"
        }
      ],
      "stateMutability": "view",
      "type": "function"
    },
    {
      "inputs": [
        {
          "internalType": "bytes32",
          "name": "role",
          "type": "bytes32"
        },
        {
          "internalType": "address",
          "name": "account",
          "type": "address"
        }
      ],
      "name": "renounceRole",
      "outputs": [],
      "stateMutability": "nonpayable",
      "type": "function"
    },
    {
      "inputs": [
        {
          "internalType": "bytes32",
          "name": "role",
          "type": "bytes32"
        },
        {
          "internalType": "address",
          "name": "account",
          "type": "address"
        }
      ],
      "name": "revokeRole",
      "outputs": [],
      "stateMutability": "nonpayable",
      "type": "function"
    },
    {
      "inputs": [
        {
          "components": [
            {
              "internalType": "address",
              "name": "usdt",
              "type": "address"
            },
            {
              "internalType": "address",
              "name": "esRdnt",
              "type": "address"
            },
            {
              "internalType": "address",
              "name": "rdnt",
              "type": "address"
            },
            {
              "internalType": "address",
              "name": "wBnb",
              "type": "address"
            },
            {
              "internalType": "address",
              "name": "radpiePoolHelper",
              "type": "address"
            },
            {
              "internalType": "address",
              "name": "radiantStaking",
              "type": "address"
            },
            {
              "internalType": "address",
              "name": "radiantRewardManager",
              "type": "address"
            },
            {
              "internalType": "address",
              "name": "pancakeSwapV3Router",
              "type": "address"
            }
          ],
          "internalType": "struct StrategyRadpieUsdt.StrategyParams",
          "name": "params",
          "type": "tuple"
        }
      ],
      "name": "setParams",
      "outputs": [],
      "stateMutability": "nonpayable",
      "type": "function"
    },
    {
      "inputs": [
        {
          "internalType": "address",
          "name": "_value",
          "type": "address"
        }
      ],
      "name": "setPortfolioManager",
      "outputs": [],
      "stateMutability": "nonpayable",
      "type": "function"
    },
    {
      "inputs": [
        {
          "internalType": "uint256",
          "name": "_swapSlippageBP",
          "type": "uint256"
        },
        {
          "internalType": "uint256",
          "name": "_navSlippageBP",
          "type": "uint256"
        },
        {
          "internalType": "uint256",
          "name": "_stakeSlippageBP",
          "type": "uint256"
        }
      ],
      "name": "setSlippages",
      "outputs": [],
      "stateMutability": "nonpayable",
      "type": "function"
    },
    {
      "inputs": [
        {
          "internalType": "address",
          "name": "_asset",
          "type": "address"
        },
        {
          "internalType": "uint256",
          "name": "_amount",
          "type": "uint256"
        }
      ],
      "name": "stake",
      "outputs": [],
      "stateMutability": "nonpayable",
      "type": "function"
    },
    {
      "inputs": [],
      "name": "stakeSlippageBP",
      "outputs": [
        {
          "internalType": "uint256",
          "name": "",
          "type": "uint256"
        }
      ],
      "stateMutability": "view",
      "type": "function"
    },
    {
      "inputs": [
        {
          "internalType": "bytes4",
          "name": "interfaceId",
          "type": "bytes4"
        }
      ],
      "name": "supportsInterface",
      "outputs": [
        {
          "internalType": "bool",
          "name": "",
          "type": "bool"
        }
      ],
      "stateMutability": "view",
      "type": "function"
    },
    {
      "inputs": [],
      "name": "swapSlippageBP",
      "outputs": [
        {
          "internalType": "uint256",
          "name": "",
          "type": "uint256"
        }
      ],
      "stateMutability": "view",
      "type": "function"
    },
    {
      "inputs": [
        {
          "internalType": "address",
          "name": "_asset",
          "type": "address"
        },
        {
          "internalType": "uint256",
          "name": "_amount",
          "type": "uint256"
        },
        {
          "internalType": "address",
          "name": "_beneficiary",
          "type": "address"
        },
        {
          "internalType": "bool",
          "name": "_targetIsZero",
          "type": "bool"
        }
      ],
      "name": "unstake",
      "outputs": [
        {
          "internalType": "uint256",
          "name": "",
          "type": "uint256"
        }
      ],
      "stateMutability": "nonpayable",
      "type": "function"
    },
    {
      "inputs": [
        {
          "internalType": "address",
          "name": "newImplementation",
          "type": "address"
        }
      ],
      "name": "upgradeTo",
      "outputs": [],
      "stateMutability": "nonpayable",
      "type": "function"
    },
    {
      "inputs": [
        {
          "internalType": "address",
          "name": "newImplementation",
          "type": "address"
        },
        {
          "internalType": "bytes",
          "name": "data",
          "type": "bytes"
        }
      ],
      "name": "upgradeToAndCall",
      "outputs": [],
      "stateMutability": "payable",
      "type": "function"
    },
    {
      "inputs": [],
      "name": "usdt",
      "outputs": [
        {
          "internalType": "contract IERC20",
          "name": "",
          "type": "address"
        }
      ],
      "stateMutability": "view",
      "type": "function"
    },
    {
      "inputs": [],
      "name": "wBnb",
      "outputs": [
        {
          "internalType": "contract IERC20",
          "name": "",
          "type": "address"
        }
      ],
      "stateMutability": "view",
      "type": "function"
    }
  ],
  "numDeployments": 1,
  "solcInputHash": "46de6dce9fa80d6c7af8b77e9a2725dc",
  "bytecode": "0x60a0604052306080523480156200001557600080fd5b50600054610100900460ff1615808015620000375750600054600160ff909116105b8062000067575062000054306200014160201b620017411760201c565b15801562000067575060005460ff166001145b620000cf5760405162461bcd60e51b815260206004820152602e60248201527f496e697469616c697a61626c653a20636f6e747261637420697320616c72656160448201526d191e481a5b9a5d1a585b1a5e995960921b606482015260840160405180910390fd5b6000805460ff191660011790558015620000f3576000805461ff0019166101001790555b80156200013a576000805461ff0019169055604051600181527f7f26b83ff96e1f2b6a682f133852f6798a09c465da95921460cefb38474024989060200160405180910390a15b5062000150565b6001600160a01b03163b151590565b6080516131b6620001886000396000818161070401528181610744015281816107e30152818161082301526108b201526131b66000f3fe6080604052600436106101ee5760003560e01c8063620b75df1161010d578063a440b21a116100a0578063bf52e0801161006f578063bf52e08014610570578063d547741f14610586578063e299ce3f146105a6578063ef5cfb8c146105c7578063f6f6b881146105e757600080fd5b8063a440b21a146104ef578063adc9772e1461050f578063ae30c1101461052f578063b50a31ca1461054f57600080fd5b806391d14854116100dc57806391d148541461049957806397613ac7146104b9578063a217fddf146104da578063a3673b38146102b557600080fd5b8063620b75df1461042157806371c7524d146104415780637d5f5802146104625780638129fc1c1461048457600080fd5b80633659cfe611610185578063561f077311610154578063561f0773146103965780635ca558f8146103b65780635d0f5396146103cc5780635dbd733a146103ed57600080fd5b80633659cfe61461032d5780634a4a78f21461034d5780634f1ef2861461036e57806352d1902d1461038157600080fd5b80632576e65a116101c15780632576e65a146102b55780632f2ff15d146102ca5780632f48ab7d146102ec57806336568abe1461030d57600080fd5b806301ffc9a7146101f3578063093d1a3114610228578063119cd87914610261578063248a9ca314610285575b600080fd5b3480156101ff57600080fd5b5061021361020e366004612a9a565b610607565b60405190151581526020015b60405180910390f35b34801561023457600080fd5b5061013154610249906001600160a01b031681565b6040516001600160a01b03909116815260200161021f565b34801561026d57600080fd5b5061027760fd5481565b60405190815260200161021f565b34801561029157600080fd5b506102776102a0366004612ac4565b60009081526065602052604090206001015490565b3480156102c157600080fd5b5061027761063e565b3480156102d657600080fd5b506102ea6102e5366004612af2565b61064d565b005b3480156102f857600080fd5b5061012d54610249906001600160a01b031681565b34801561031957600080fd5b506102ea610328366004612af2565b610677565b34801561033957600080fd5b506102ea610348366004612b22565b6106fa565b34801561035957600080fd5b5061013454610249906001600160a01b031681565b6102ea61037c366004612bb0565b6107d9565b34801561038d57600080fd5b506102776108a5565b3480156103a257600080fd5b506102ea6103b1366004612c58565b610958565b3480156103c257600080fd5b5061027760fe5481565b3480156103d857600080fd5b5061012f54610249906001600160a01b031681565b3480156103f957600080fd5b506102777fd67ad422505496469a1adf6cdf9e5ee92ac5d33992843c9ecc4b2f6d6cde913781565b34801561042d57600080fd5b5060fb54610249906001600160a01b031681565b34801561044d57600080fd5b5061013254610249906001600160a01b031681565b34801561046e57600080fd5b5061027760008051602061311a83398151915281565b34801561049057600080fd5b506102ea610e58565b3480156104a557600080fd5b506102136104b4366004612af2565b610f22565b3480156104c557600080fd5b5061013054610249906001600160a01b031681565b3480156104e657600080fd5b50610277600081565b3480156104fb57600080fd5b506102ea61050a366004612b22565b610f4d565b34801561051b57600080fd5b506102ea61052a366004612c6b565b61107c565b34801561053b57600080fd5b506102ea61054a366004612c97565b61127f565b34801561055b57600080fd5b5061013354610249906001600160a01b031681565b34801561057c57600080fd5b5061027760fc5481565b34801561059257600080fd5b506102ea6105a1366004612af2565b6113e5565b3480156105b257600080fd5b5061012e54610249906001600160a01b031681565b3480156105d357600080fd5b506102776105e2366004612b22565b61140a565b3480156105f357600080fd5b50610277610602366004612cd1565b61148f565b60006001600160e01b03198216637965db0b60e01b148061063857506301ffc9a760e01b6001600160e01b03198316145b92915050565b6000610648611750565b905090565b60008281526065602052604090206001015461066881611959565b6106728383611963565b505050565b6001600160a01b03811633146106ec5760405162461bcd60e51b815260206004820152602f60248201527f416363657373436f6e74726f6c3a2063616e206f6e6c792072656e6f756e636560448201526e103937b632b9903337b91039b2b63360891b60648201526084015b60405180910390fd5b6106f682826119e9565b5050565b6001600160a01b037f00000000000000000000000000000000000000000000000000000000000000001630036107425760405162461bcd60e51b81526004016106e390612d24565b7f00000000000000000000000000000000000000000000000000000000000000006001600160a01b031661078b60008051602061313a833981519152546001600160a01b031690565b6001600160a01b0316146107b15760405162461bcd60e51b81526004016106e390612d70565b6107ba81611a50565b604080516000808252602082019092526107d691839190611a5b565b50565b6001600160a01b037f00000000000000000000000000000000000000000000000000000000000000001630036108215760405162461bcd60e51b81526004016106e390612d24565b7f00000000000000000000000000000000000000000000000000000000000000006001600160a01b031661086a60008051602061313a833981519152546001600160a01b031690565b6001600160a01b0316146108905760405162461bcd60e51b81526004016106e390612d70565b61089982611a50565b6106f682826001611a5b565b6000306001600160a01b037f000000000000000000000000000000000000000000000000000000000000000016146109455760405162461bcd60e51b815260206004820152603860248201527f555550535570677261646561626c653a206d757374206e6f742062652063616c60448201527f6c6564207468726f7567682064656c656761746563616c6c000000000000000060648201526084016106e3565b5060008051602061313a83398151915290565b610963600033610f22565b6109a65760405162461bcd60e51b81526020600482015260146024820152735265737472696374656420746f2061646d696e7360601b60448201526064016106e3565b60006109b56020830183612b22565b6001600160a01b0316036109fb5760405162461bcd60e51b815260206004820152600d60248201526c7573647420697320656d70747960981b60448201526064016106e3565b6000610a0d6040830160208401612b22565b6001600160a01b031603610a555760405162461bcd60e51b815260206004820152600f60248201526e657352646e7420697320656d70747960881b60448201526064016106e3565b6000610a676060830160408401612b22565b6001600160a01b031603610aad5760405162461bcd60e51b815260206004820152600d60248201526c72646e7420697320656d70747960981b60448201526064016106e3565b6000610abf6080830160608401612b22565b6001600160a01b031603610b055760405162461bcd60e51b815260206004820152600d60248201526c77426e6220697320656d70747960981b60448201526064016106e3565b6000610b1760a0830160808401612b22565b6001600160a01b031603610b6d5760405162461bcd60e51b815260206004820152601960248201527f726164706965506f6f6c48656c70657220697320656d7074790000000000000060448201526064016106e3565b6000610b7f60c0830160a08401612b22565b6001600160a01b031603610bd55760405162461bcd60e51b815260206004820152601760248201527f72616469616e745374616b696e6720697320656d70747900000000000000000060448201526064016106e3565b6000610be760e0830160c08401612b22565b6001600160a01b031603610c3d5760405162461bcd60e51b815260206004820152601d60248201527f72616469616e745265776172644d616e6167657220697320656d70747900000060448201526064016106e3565b6000610c50610100830160e08401612b22565b6001600160a01b031603610ca65760405162461bcd60e51b815260206004820152601c60248201527f70616e63616b65537761705633526f7574657220697320656d7074790000000060448201526064016106e3565b610cb36020820182612b22565b61012d80546001600160a01b0319166001600160a01b0392909216919091179055610ce46040820160208301612b22565b61012e80546001600160a01b0319166001600160a01b0392909216919091179055610d156060820160408301612b22565b61012f80546001600160a01b0319166001600160a01b0392909216919091179055610d466080820160608301612b22565b61013080546001600160a01b0319166001600160a01b0392909216919091179055610d7760a0820160808301612b22565b61013180546001600160a01b0319166001600160a01b0392909216919091179055610da860c0820160a08301612b22565b61013280546001600160a01b0319166001600160a01b0392909216919091179055610dd960e0820160c08301612b22565b61013380546001600160a01b0319166001600160a01b0392909216919091179055610e0b610100820160e08301612b22565b61013480546001600160a01b0319166001600160a01b03929092169190911790556040517fea5646eb3528e525944447a4a97de700dd472298626e5c0481d1c82c3da86ea590600090a150565b600054610100900460ff1615808015610e785750600054600160ff909116105b80610e925750303b158015610e92575060005460ff166001145b610eae5760405162461bcd60e51b81526004016106e390612dbc565b6000805460ff191660011790558015610ed1576000805461ff0019166101001790555b610ed9611bc6565b80156107d6576000805461ff0019169055604051600181527f7f26b83ff96e1f2b6a682f133852f6798a09c465da95921460cefb3847402498906020015b60405180910390a150565b60009182526065602090815260408084206001600160a01b0393909316845291905290205460ff1690565b610f58600033610f22565b610f9b5760405162461bcd60e51b81526020600482015260146024820152735265737472696374656420746f2061646d696e7360601b60448201526064016106e3565b6001600160a01b038116610ff15760405162461bcd60e51b815260206004820152601860248201527f5a65726f2061646472657373206e6f7420616c6c6f776564000000000000000060448201526064016106e3565b60fb546110169060008051602061311a833981519152906001600160a01b03166113e5565b61102e60008051602061311a8339815191528261064d565b60fb80546001600160a01b0319166001600160a01b0383169081179091556040519081527ff7b449fcd5cfb7379dcd34cb69428dd9f882033b15be33d83b42d91daa28eeb790602001610f17565b61109460008051602061311a83398151915233610f22565b6110b05760405162461bcd60e51b81526004016106e390612e0a565b600061111f306001600160a01b031663a3673b386040518163ffffffff1660e01b8152600401602060405180830381865afa1580156110f3573d6000803e3d6000fd5b505050506040513d601f19601f820116820180604052508101906111179190612e41565b60fd54611cab565b6040516370a0823160e01b81523060048201529091506111959084906001600160a01b038216906370a0823190602401602060405180830381865afa15801561116c573d6000803e3d6000fd5b505050506040513d601f19601f820116820180604052508101906111909190612e41565b611cd5565b80306001600160a01b031663a3673b386040518163ffffffff1660e01b8152600401602060405180830381865afa1580156111d4573d6000803e3d6000fd5b505050506040513d601f19601f820116820180604052508101906111f89190612e41565b10156112465760405162461bcd60e51b815260206004820152601f60248201527f5374726174656779204e4156206c657373207468616e2065787065637465640060448201526064016106e3565b6040518281527f227a473b70d2f893cc7659219575c030a63b5743024fe1e0c1a680e708b1525a906020015b60405180910390a1505050565b6112a97fd67ad422505496469a1adf6cdf9e5ee92ac5d33992843c9ecc4b2f6d6cde913733610f22565b80611341575060fb54604051632474521560e21b81527fd67ad422505496469a1adf6cdf9e5ee92ac5d33992843c9ecc4b2f6d6cde913760048201523360248201526001600160a01b03909116906391d1485490604401602060405180830381865afa15801561131d573d6000803e3d6000fd5b505050506040513d601f19601f820116820180604052508101906113419190612e65565b6113985760405162461bcd60e51b815260206004820152602260248201527f5265737472696374656420746f20504f5254464f4c494f5f4147454e545f524f6044820152614c4560f01b60648201526084016106e3565b60fc83905560fd82905560fe81905560408051848152602081018490529081018290527f116fbf1e97a2be629ad98abfb6c332733c8996c2dfb174dd2efe8440df381d1a90606001611272565b60008281526065602052604090206001015461140081611959565b61067283836119e9565b600061142460008051602061311a83398151915233610f22565b6114405760405162461bcd60e51b81526004016106e390612e0a565b600061144b83611f03565b90508015611487576040518181527f3ac0594a85a20354f9dc74f33728416d19ce00d04a406c108cc2dcf2cecea1349060200160405180910390a15b90505b919050565b60006114a960008051602061311a83398151915233610f22565b6114c55760405162461bcd60e51b81526004016106e390612e0a565b6000611508306001600160a01b031663a3673b386040518163ffffffff1660e01b8152600401602060405180830381865afa1580156110f3573d6000803e3d6000fd5b9050600080841561152f5761151c86611f03565b9050611528888761218f565b915061159e565b61153a8888886122ec565b91508682101561159e5760405162461bcd60e51b815260206004820152602960248201527f52657475726e65642076616c7565206c657373207468616e2072657175657374604482015268195908185b5bdd5b9d60ba1b60648201526084016106e3565b82306001600160a01b031663a3673b386040518163ffffffff1660e01b8152600401602060405180830381865afa1580156115dd573d6000803e3d6000fd5b505050506040513d601f19601f820116820180604052508101906116019190612e41565b101561164f5760405162461bcd60e51b815260206004820152601f60248201527f5374726174656779204e4156206c657373207468616e2065787065637465640060448201526064016106e3565b60405163a9059cbb60e01b81526001600160a01b0387811660048301526024820184905289169063a9059cbb906044016020604051808303816000875af115801561169e573d6000803e3d6000fd5b505050506040513d601f19601f820116820180604052508101906116c29190612e65565b5060408051888152602081018490527f9045c2ac9b2026de8075f2701bbdde882cd5e830b3b1ead9a15b22f2b5b93742910160405180910390a18015611736576040518181527f3ac0594a85a20354f9dc74f33728416d19ce00d04a406c108cc2dcf2cecea1349060200160405180910390a15b509695505050505050565b6001600160a01b03163b151590565b61012d546040516370a0823160e01b815230600482015260009182916001600160a01b03909116906370a0823190602401602060405180830381865afa15801561179e573d6000803e3d6000fd5b505050506040513d601f19601f820116820180604052508101906117c29190612e41565b6101315461012d5460405163b203bb9960e01b81526001600160a01b03918216600482015230602482015292935060009291169063b203bb9990604401602060405180830381865afa15801561181c573d6000803e3d6000fd5b505050506040513d601f19601f820116820180604052508101906118409190612e41565b90508015611953576101325461012d546040516329018f6f60e21b81526001600160a01b039182166004820152600092919091169063a4063dbc9060240161012060405180830381865afa15801561189c573d6000803e3d6000fd5b505050506040513d601f19601f820116820180604052508101906118c09190612e8d565b9050670de0b6b3a764000081608001516001600160a01b03166389d0e2886040518163ffffffff1660e01b8152600401602060405180830381865afa15801561190d573d6000803e3d6000fd5b505050506040513d601f19601f820116820180604052508101906119319190612e41565b61193b9084612f4b565b6119459190612f62565b61194f9084612f84565b9250505b50919050565b6107d681336124d7565b61196d8282610f22565b6106f65760008281526065602090815260408083206001600160a01b03851684529091529020805460ff191660011790556119a53390565b6001600160a01b0316816001600160a01b0316837f2f8788117e7eff1d82e926ec794901d17c78024a50270940304540a733656f0d60405160405180910390a45050565b6119f38282610f22565b156106f65760008281526065602090815260408083206001600160a01b0385168085529252808320805460ff1916905551339285917ff6391f5c32d9c69d2a47ea670b442974b53935d1edc7fd64eb21e047a839171b9190a45050565b60006106f681611959565b7f4910fdfa16fed3260ed0e7147f7cc6da11a60208b5b9406d12a635614ffd91435460ff1615611a8e5761067283612530565b826001600160a01b03166352d1902d6040518163ffffffff1660e01b8152600401602060405180830381865afa925050508015611ae8575060408051601f3d908101601f19168201909252611ae591810190612e41565b60015b611b4b5760405162461bcd60e51b815260206004820152602e60248201527f45524331393637557067726164653a206e657720696d706c656d656e7461746960448201526d6f6e206973206e6f74205555505360901b60648201526084016106e3565b60008051602061313a8339815191528114611bba5760405162461bcd60e51b815260206004820152602960248201527f45524331393637557067726164653a20756e737570706f727465642070726f786044820152681a58589b195555525160ba1b60648201526084016106e3565b506106728383836125cc565b600054610100900460ff1615808015611be65750600054600160ff909116105b80611c005750303b158015611c00575060005460ff166001145b611c1c5760405162461bcd60e51b81526004016106e390612dbc565b6000805460ff191660011790558015611c3f576000805461ff0019166101001790555b611c476125f7565b611c4f6125f7565b611c5a600033611963565b601460fc81905560fd55600460fe5580156107d6576000805461ff0019169055604051600181527f7f26b83ff96e1f2b6a682f133852f6798a09c465da95921460cefb384740249890602001610f17565b6000612710611cba8382612f97565b611cc49085612f4b565b611cce9190612f62565b9392505050565b6101315461012d54604051639bfd8d6160e01b81526001600160a01b0391821660048201526000929190911690639bfd8d6190602401602060405180830381865afa158015611d28573d6000803e3d6000fd5b505050506040513d601f19601f82011682018060405250810190611d4c9190612e41565b6101325461012d546040516329018f6f60e21b81526001600160a01b03918216600482015292935060009291169063a4063dbc9060240161012060405180830381865afa158015611da1573d6000803e3d6000fd5b505050506040513d601f19601f82011682018060405250810190611dc59190612e8d565b60a0810151909150611dd78484612f84565b1115611e175760405162461bcd60e51b815260206004820152600f60248201526e13585e0818d85c081c995858da1959608a1b60448201526064016106e3565b61012d546101315460405163095ea7b360e01b81526001600160a01b0391821660048201526024810186905291169063095ea7b3906044016020604051808303816000875af1158015611e6e573d6000803e3d6000fd5b505050506040513d601f19601f82011682018060405250810190611e929190612e65565b506101315461012d546040516346a5d04360e01b81526001600160a01b039182166004820152602481018690529116906346a5d04390604401600060405180830381600087803b158015611ee557600080fd5b505af1158015611ef9573d6000803e3d6000fd5b5050505050505050565b6101335460405163f033665d60e01b815230600482015260009182916001600160a01b039091169063f033665d90602401602060405180830381865afa158015611f51573d6000803e3d6000fd5b505050506040513d601f19601f82011682018060405250810190611f759190612e41565b90508015611fe75761013360009054906101000a90046001600160a01b03166001600160a01b031663d13aafea6040518163ffffffff1660e01b8152600401600060405180830381600087803b158015611fce57600080fd5b505af1158015611fe2573d6000803e3d6000fd5b505050505b61012e546040516370a0823160e01b815230600482015260009182916001600160a01b03909116906370a0823190602401602060405180830381865afa158015612035573d6000803e3d6000fd5b505050506040513d601f19601f820116820180604052508101906120599190612e41565b90508015612107576101345461012e5461012f546101305461012d546040516bffffffffffffffffffffffff19606086811b8216602084015261027160ea1b6034840181905295811b82166037840152604b83019590955292841b8316604e820152601960ea1b6062820152921b1660658201526120fa926001600160a01b0390811692169060790160405160208183030381529060405230856000612664565b6121049083612f84565b91505b81156121875761012d5460405163a9059cbb60e01b81526001600160a01b038781166004830152602482018590529091169063a9059cbb906044016020604051808303816000875af1158015612161573d6000803e3d6000fd5b505050506040513d601f19601f820116820180604052508101906121859190612e65565b505b509392505050565b6101315461012d5460405163b203bb9960e01b81526001600160a01b0391821660048201523060248201526000928392169063b203bb9990604401602060405180830381865afa1580156121e7573d6000803e3d6000fd5b505050506040513d601f19601f8201168201806040525081019061220b9190612e41565b6101315461012d54604051630e393c1960e21b81526001600160a01b0391821660048201526024810184905292935016906338e4f06490604401600060405180830381600087803b15801561225f57600080fd5b505af1158015612273573d6000803e3d6000fd5b505061012d546040516370a0823160e01b81523060048201526001600160a01b0390911692506370a082319150602401602060405180830381865afa1580156122c0573d6000803e3d6000fd5b505050506040513d601f19601f820116820180604052508101906122e49190612e41565b949350505050565b6101325461012d546040516329018f6f60e21b81526001600160a01b0391821660048201526000928392169063a4063dbc9060240161012060405180830381865afa15801561233f573d6000803e3d6000fd5b505050506040513d601f19601f820116820180604052508101906123639190612e8d565b9050600081608001516001600160a01b03166389d0e2886040518163ffffffff1660e01b8152600401602060405180830381865afa1580156123a9573d6000803e3d6000fd5b505050506040513d601f19601f820116820180604052508101906123cd9190612e41565b6123df86670de0b6b3a7640000612f4b565b6123e99190612f62565b6123f490600a612f84565b6101315461012d54604051630e393c1960e21b81526001600160a01b0391821660048201526024810184905292935016906338e4f06490604401600060405180830381600087803b15801561244857600080fd5b505af115801561245c573d6000803e3d6000fd5b505061012d546040516370a0823160e01b81523060048201526001600160a01b0390911692506370a082319150602401602060405180830381865afa1580156124a9573d6000803e3d6000fd5b505050506040513d601f19601f820116820180604052508101906124cd9190612e41565b9695505050505050565b6124e18282610f22565b6106f6576124ee8161277a565b6124f983602061278c565b60405160200161250a929190612fce565b60408051601f198184030181529082905262461bcd60e51b82526106e39160040161306f565b6001600160a01b0381163b61259d5760405162461bcd60e51b815260206004820152602d60248201527f455243313936373a206e657720696d706c656d656e746174696f6e206973206e60448201526c1bdd08184818dbdb9d1c9858dd609a1b60648201526084016106e3565b60008051602061313a83398151915280546001600160a01b0319166001600160a01b0392909216919091179055565b6125d583612928565b6000825111806125e25750805b15610672576125f18383612968565b50505050565b600054610100900460ff166126625760405162461bcd60e51b815260206004820152602b60248201527f496e697469616c697a61626c653a20636f6e7472616374206973206e6f74206960448201526a6e697469616c697a696e6760a81b60648201526084016106e3565b565b60405163095ea7b360e01b81526001600160a01b038781166004830152602482018490526000919087169063095ea7b3906044016020604051808303816000875af11580156126b7573d6000803e3d6000fd5b505050506040513d601f19601f820116820180604052508101906126db9190612e65565b50604080516080810182528681526001600160a01b03808716602083015281830186905260608201859052915163b858183f60e01b8152909189169063b858183f9061272b908490600401613082565b6020604051808303816000875af115801561274a573d6000803e3d6000fd5b505050506040513d601f19601f8201168201806040525081019061276e9190612e41565b98975050505050505050565b60606106386001600160a01b03831660145b6060600061279b836002612f4b565b6127a6906002612f84565b67ffffffffffffffff8111156127be576127be612b3f565b6040519080825280601f01601f1916602001820160405280156127e8576020820181803683370190505b509050600360fc1b81600081518110612803576128036130d0565b60200101906001600160f81b031916908160001a905350600f60fb1b81600181518110612832576128326130d0565b60200101906001600160f81b031916908160001a9053506000612856846002612f4b565b612861906001612f84565b90505b60018111156128d9576f181899199a1a9b1b9c1cb0b131b232b360811b85600f1660108110612895576128956130d0565b1a60f81b8282815181106128ab576128ab6130d0565b60200101906001600160f81b031916908160001a90535060049490941c936128d2816130e6565b9050612864565b508315611cce5760405162461bcd60e51b815260206004820181905260248201527f537472696e67733a20686578206c656e67746820696e73756666696369656e7460448201526064016106e3565b61293181612530565b6040516001600160a01b038216907fbc7cd75a20ee27fd9adebab32041f755214dbc6bffa90cc0225b39da2e5c2d3b90600090a250565b60606001600160a01b0383163b6129d05760405162461bcd60e51b815260206004820152602660248201527f416464726573733a2064656c65676174652063616c6c20746f206e6f6e2d636f6044820152651b9d1c9858dd60d21b60648201526084016106e3565b600080846001600160a01b0316846040516129eb91906130fd565b600060405180830381855af49150503d8060008114612a26576040519150601f19603f3d011682016040523d82523d6000602084013e612a2b565b606091505b5091509150612a53828260405180606001604052806027815260200161315a60279139612a5c565b95945050505050565b60608315612a6b575081611cce565b611cce8383815115612a805781518083602001fd5b8060405162461bcd60e51b81526004016106e3919061306f565b600060208284031215612aac57600080fd5b81356001600160e01b031981168114611cce57600080fd5b600060208284031215612ad657600080fd5b5035919050565b6001600160a01b03811681146107d657600080fd5b60008060408385031215612b0557600080fd5b823591506020830135612b1781612add565b809150509250929050565b600060208284031215612b3457600080fd5b8135611cce81612add565b634e487b7160e01b600052604160045260246000fd5b604051610120810167ffffffffffffffff81118282101715612b7957612b79612b3f565b60405290565b604051601f8201601f1916810167ffffffffffffffff81118282101715612ba857612ba8612b3f565b604052919050565b60008060408385031215612bc357600080fd5b8235612bce81612add565b915060208381013567ffffffffffffffff80821115612bec57600080fd5b818601915086601f830112612c0057600080fd5b813581811115612c1257612c12612b3f565b612c24601f8201601f19168501612b7f565b91508082528784828501011115612c3a57600080fd5b80848401858401376000848284010152508093505050509250929050565b6000610100828403121561195357600080fd5b60008060408385031215612c7e57600080fd5b8235612c8981612add565b946020939093013593505050565b600080600060608486031215612cac57600080fd5b505081359360208301359350604090920135919050565b80151581146107d657600080fd5b60008060008060808587031215612ce757600080fd5b8435612cf281612add565b9350602085013592506040850135612d0981612add565b91506060850135612d1981612cc3565b939692955090935050565b6020808252602c908201527f46756e6374696f6e206d7573742062652063616c6c6564207468726f7567682060408201526b19195b1959d85d1958d85b1b60a21b606082015260800190565b6020808252602c908201527f46756e6374696f6e206d7573742062652063616c6c6564207468726f7567682060408201526b6163746976652070726f787960a01b606082015260800190565b6020808252602e908201527f496e697469616c697a61626c653a20636f6e747261637420697320616c72656160408201526d191e481a5b9a5d1a585b1a5e995960921b606082015260800190565b6020808252601f908201527f5265737472696374656420746f20504f5254464f4c494f5f4d414e4147455200604082015260600190565b600060208284031215612e5357600080fd5b5051919050565b805161148a81612cc3565b600060208284031215612e7757600080fd5b8151611cce81612cc3565b805161148a81612add565b60006101208284031215612ea057600080fd5b612ea8612b55565b612eb183612e82565b8152612ebf60208401612e82565b6020820152612ed060408401612e82565b6040820152612ee160608401612e82565b6060820152612ef260808401612e82565b608082015260a083015160a082015260c083015160c0820152612f1760e08401612e5a565b60e0820152610100612f2a818501612e5a565b908201529392505050565b634e487b7160e01b600052601160045260246000fd5b808202811582820484141761063857610638612f35565b600082612f7f57634e487b7160e01b600052601260045260246000fd5b500490565b8082018082111561063857610638612f35565b8181038181111561063857610638612f35565b60005b83811015612fc5578181015183820152602001612fad565b50506000910152565b7f416363657373436f6e74726f6c3a206163636f756e7420000000000000000000815260008351613006816017850160208801612faa565b7001034b99036b4b9b9b4b733903937b6329607d1b6017918401918201528351613037816028840160208801612faa565b01602801949350505050565b6000815180845261305b816020860160208601612faa565b601f01601f19169290920160200192915050565b602081526000611cce6020830184613043565b60208152600082516080602084015261309e60a0840182613043565b905060018060a01b03602085015116604084015260408401516060840152606084015160808401528091505092915050565b634e487b7160e01b600052603260045260246000fd5b6000816130f5576130f5612f35565b506000190190565b6000825161310f818460208701612faa565b919091019291505056fe90c2aa7471c04182221f68e80c07ab1e5946e4c63f8693e14ca40385d529f051360894a13ba1a3210667c828492db98dca3e2076cc3735a920a3ca505d382bbc416464726573733a206c6f772d6c6576656c2064656c65676174652063616c6c206661696c6564a2646970667358221220284bbfecbdd382f50b393da95d3da1c7c2be2a655c65f0393549a2ccca94094664736f6c63430008110033",
  "implementation": "0x2784ff8581778Ce0e9D6B795fB8E1EC8b8684E0E",
  "devdoc": {
    "kind": "dev",
    "methods": {
      "constructor": {
        "custom:oz-upgrades-unsafe-allow": "constructor"
      },
      "getRoleAdmin(bytes32)": {
        "details": "Returns the admin role that controls `role`. See {grantRole} and {revokeRole}. To change a role's admin, use {_setRoleAdmin}."
      },
      "grantRole(bytes32,address)": {
        "details": "Grants `role` to `account`. If `account` had not been already granted `role`, emits a {RoleGranted} event. Requirements: - the caller must have ``role``'s admin role. May emit a {RoleGranted} event."
      },
      "hasRole(bytes32,address)": {
        "details": "Returns `true` if `account` has been granted `role`."
      },
      "proxiableUUID()": {
        "details": "Implementation of the ERC1822 {proxiableUUID} function. This returns the storage slot used by the implementation. It is used to validate the implementation's compatibility when performing an upgrade. IMPORTANT: A proxy pointing at a proxiable contract should not be considered proxiable itself, because this risks bricking a proxy that upgrades to it, by delegating to itself until out of gas. Thus it is critical that this function revert if invoked through a proxy. This is guaranteed by the `notDelegated` modifier."
      },
      "renounceRole(bytes32,address)": {
        "details": "Revokes `role` from the calling account. Roles are often managed via {grantRole} and {revokeRole}: this function's purpose is to provide a mechanism for accounts to lose their privileges if they are compromised (such as when a trusted device is misplaced). If the calling account had been revoked `role`, emits a {RoleRevoked} event. Requirements: - the caller must be `account`. May emit a {RoleRevoked} event."
      },
      "revokeRole(bytes32,address)": {
        "details": "Revokes `role` from `account`. If `account` had been granted `role`, emits a {RoleRevoked} event. Requirements: - the caller must have ``role``'s admin role. May emit a {RoleRevoked} event."
      },
      "supportsInterface(bytes4)": {
        "details": "See {IERC165-supportsInterface}."
      },
      "upgradeTo(address)": {
        "details": "Upgrade the implementation of the proxy to `newImplementation`. Calls {_authorizeUpgrade}. Emits an {Upgraded} event."
      },
      "upgradeToAndCall(address,bytes)": {
        "details": "Upgrade the implementation of the proxy to `newImplementation`, and subsequently execute the function call encoded in `data`. Calls {_authorizeUpgrade}. Emits an {Upgraded} event."
      }
    },
    "version": 1
  },
  "userdoc": {
    "kind": "user",
    "methods": {},
    "version": 1
  },
  "storageLayout": {
    "storage": [
      {
        "astId": 804,
        "contract": "contracts/usdt/StrategyRadpieUsdt.sol:StrategyRadpieUsdt",
        "label": "_initialized",
        "offset": 0,
        "slot": "0",
        "type": "t_uint8"
      },
      {
        "astId": 807,
        "contract": "contracts/usdt/StrategyRadpieUsdt.sol:StrategyRadpieUsdt",
        "label": "_initializing",
        "offset": 1,
        "slot": "0",
        "type": "t_bool"
      },
      {
        "astId": 1427,
        "contract": "contracts/usdt/StrategyRadpieUsdt.sol:StrategyRadpieUsdt",
        "label": "__gap",
        "offset": 0,
        "slot": "1",
        "type": "t_array(t_uint256)50_storage"
      },
      {
        "astId": 1706,
        "contract": "contracts/usdt/StrategyRadpieUsdt.sol:StrategyRadpieUsdt",
        "label": "__gap",
        "offset": 0,
        "slot": "51",
        "type": "t_array(t_uint256)50_storage"
      },
      {
        "astId": 39,
        "contract": "contracts/usdt/StrategyRadpieUsdt.sol:StrategyRadpieUsdt",
        "label": "_roles",
        "offset": 0,
        "slot": "101",
        "type": "t_mapping(t_bytes32,t_struct(RoleData)34_storage)"
      },
      {
        "astId": 334,
        "contract": "contracts/usdt/StrategyRadpieUsdt.sol:StrategyRadpieUsdt",
        "label": "__gap",
        "offset": 0,
        "slot": "102",
        "type": "t_array(t_uint256)49_storage"
      },
      {
        "astId": 786,
        "contract": "contracts/usdt/StrategyRadpieUsdt.sol:StrategyRadpieUsdt",
        "label": "__gap",
        "offset": 0,
        "slot": "151",
        "type": "t_array(t_uint256)50_storage"
      },
      {
        "astId": 1101,
        "contract": "contracts/usdt/StrategyRadpieUsdt.sol:StrategyRadpieUsdt",
        "label": "__gap",
        "offset": 0,
        "slot": "201",
        "type": "t_array(t_uint256)50_storage"
      },
      {
        "astId": 5832,
        "contract": "contracts/usdt/StrategyRadpieUsdt.sol:StrategyRadpieUsdt",
        "label": "portfolioManager",
        "offset": 0,
        "slot": "251",
        "type": "t_address"
      },
      {
        "astId": 5834,
        "contract": "contracts/usdt/StrategyRadpieUsdt.sol:StrategyRadpieUsdt",
        "label": "swapSlippageBP",
        "offset": 0,
        "slot": "252",
        "type": "t_uint256"
      },
      {
        "astId": 5836,
        "contract": "contracts/usdt/StrategyRadpieUsdt.sol:StrategyRadpieUsdt",
        "label": "navSlippageBP",
        "offset": 0,
        "slot": "253",
        "type": "t_uint256"
      },
      {
        "astId": 5838,
        "contract": "contracts/usdt/StrategyRadpieUsdt.sol:StrategyRadpieUsdt",
        "label": "stakeSlippageBP",
        "offset": 0,
        "slot": "254",
        "type": "t_uint256"
      },
      {
        "astId": 6223,
        "contract": "contracts/usdt/StrategyRadpieUsdt.sol:StrategyRadpieUsdt",
        "label": "__gap",
        "offset": 0,
        "slot": "255",
        "type": "t_array(t_uint256)46_storage"
      },
      {
        "astId": 6937,
        "contract": "contracts/usdt/StrategyRadpieUsdt.sol:StrategyRadpieUsdt",
        "label": "usdt",
        "offset": 0,
        "slot": "301",
        "type": "t_contract(IERC20)2662"
      },
      {
        "astId": 6940,
        "contract": "contracts/usdt/StrategyRadpieUsdt.sol:StrategyRadpieUsdt",
        "label": "esRdnt",
        "offset": 0,
        "slot": "302",
        "type": "t_contract(IERC20)2662"
      },
      {
        "astId": 6943,
        "contract": "contracts/usdt/StrategyRadpieUsdt.sol:StrategyRadpieUsdt",
        "label": "rdnt",
        "offset": 0,
        "slot": "303",
        "type": "t_contract(IERC20)2662"
      },
      {
        "astId": 6946,
        "contract": "contracts/usdt/StrategyRadpieUsdt.sol:StrategyRadpieUsdt",
        "label": "wBnb",
        "offset": 0,
        "slot": "304",
        "type": "t_contract(IERC20)2662"
      },
      {
        "astId": 6949,
        "contract": "contracts/usdt/StrategyRadpieUsdt.sol:StrategyRadpieUsdt",
        "label": "radpiePoolHelper",
        "offset": 0,
        "slot": "305",
        "type": "t_contract(IRadpiePoolHelper)5686"
      },
      {
        "astId": 6952,
        "contract": "contracts/usdt/StrategyRadpieUsdt.sol:StrategyRadpieUsdt",
        "label": "radiantStaking",
        "offset": 0,
        "slot": "306",
        "type": "t_contract(IRadiantStaking)5724"
      },
      {
        "astId": 6955,
        "contract": "contracts/usdt/StrategyRadpieUsdt.sol:StrategyRadpieUsdt",
        "label": "radiantRewardManager",
        "offset": 0,
        "slot": "307",
        "type": "t_contract(IRDNTRewardManager)5803"
      },
      {
        "astId": 6957,
        "contract": "contracts/usdt/StrategyRadpieUsdt.sol:StrategyRadpieUsdt",
        "label": "pancakeSwapV3Router",
        "offset": 0,
        "slot": "308",
        "type": "t_address"
      }
    ],
    "types": {
      "t_address": {
        "encoding": "inplace",
        "label": "address",
        "numberOfBytes": "20"
      },
      "t_array(t_uint256)46_storage": {
        "base": "t_uint256",
        "encoding": "inplace",
        "label": "uint256[46]",
        "numberOfBytes": "1472"
      },
      "t_array(t_uint256)49_storage": {
        "base": "t_uint256",
        "encoding": "inplace",
        "label": "uint256[49]",
        "numberOfBytes": "1568"
      },
      "t_array(t_uint256)50_storage": {
        "base": "t_uint256",
        "encoding": "inplace",
        "label": "uint256[50]",
        "numberOfBytes": "1600"
      },
      "t_bool": {
        "encoding": "inplace",
        "label": "bool",
        "numberOfBytes": "1"
      },
      "t_bytes32": {
        "encoding": "inplace",
        "label": "bytes32",
        "numberOfBytes": "32"
      },
      "t_contract(IERC20)2662": {
        "encoding": "inplace",
        "label": "contract IERC20",
        "numberOfBytes": "20"
      },
      "t_contract(IRDNTRewardManager)5803": {
        "encoding": "inplace",
        "label": "contract IRDNTRewardManager",
        "numberOfBytes": "20"
      },
      "t_contract(IRadiantStaking)5724": {
        "encoding": "inplace",
        "label": "contract IRadiantStaking",
        "numberOfBytes": "20"
      },
      "t_contract(IRadpiePoolHelper)5686": {
        "encoding": "inplace",
        "label": "contract IRadpiePoolHelper",
        "numberOfBytes": "20"
      },
      "t_mapping(t_address,t_bool)": {
        "encoding": "mapping",
        "key": "t_address",
        "label": "mapping(address => bool)",
        "numberOfBytes": "32",
        "value": "t_bool"
      },
      "t_mapping(t_bytes32,t_struct(RoleData)34_storage)": {
        "encoding": "mapping",
        "key": "t_bytes32",
        "label": "mapping(bytes32 => struct AccessControlUpgradeable.RoleData)",
        "numberOfBytes": "32",
        "value": "t_struct(RoleData)34_storage"
      },
      "t_struct(RoleData)34_storage": {
        "encoding": "inplace",
        "label": "struct AccessControlUpgradeable.RoleData",
        "members": [
          {
            "astId": 31,
            "contract": "contracts/usdt/StrategyRadpieUsdt.sol:StrategyRadpieUsdt",
            "label": "members",
            "offset": 0,
            "slot": "0",
            "type": "t_mapping(t_address,t_bool)"
          },
          {
            "astId": 33,
            "contract": "contracts/usdt/StrategyRadpieUsdt.sol:StrategyRadpieUsdt",
            "label": "adminRole",
            "offset": 0,
            "slot": "1",
            "type": "t_bytes32"
          }
        ],
        "numberOfBytes": "64"
      },
      "t_uint256": {
        "encoding": "inplace",
        "label": "uint256",
        "numberOfBytes": "32"
      },
      "t_uint8": {
        "encoding": "inplace",
        "label": "uint8",
        "numberOfBytes": "1"
      }
    }
  }
}