{
  "address": "0xaaE3A8725bAe9a799C78BCd19b592BC9dbbd7a32",
  "abi": [
    {
      "inputs": [],
      "stateMutability": "nonpayable",
      "type": "constructor"
    },
    {
      "anonymous": false,
      "inputs": [
        {
          "indexed": false,
          "internalType": "address",
          "name": "previousAdmin",
          "type": "address"
        },
        {
          "indexed": false,
          "internalType": "address",
          "name": "newAdmin",
          "type": "address"
        }
      ],
      "name": "AdminChanged",
      "type": "event"
    },
    {
      "anonymous": false,
      "inputs": [
        {
          "indexed": false,
          "internalType": "uint256",
          "name": "healthFactor",
          "type": "uint256"
        }
      ],
      "name": "BalanceHealthFactor",
      "type": "event"
    },
    {
      "anonymous": false,
      "inputs": [
        {
          "indexed": true,
          "internalType": "address",
          "name": "beacon",
          "type": "address"
        }
      ],
      "name": "BeaconUpgraded",
      "type": "event"
    },
    {
      "anonymous": false,
      "inputs": [
        {
          "indexed": false,
          "internalType": "uint8",
          "name": "version",
          "type": "uint8"
        }
      ],
      "name": "Initialized",
      "type": "event"
    },
    {
      "anonymous": false,
      "inputs": [
        {
          "indexed": false,
          "internalType": "address",
          "name": "value",
          "type": "address"
        }
      ],
      "name": "PortfolioManagerUpdated",
      "type": "event"
    },
    {
      "anonymous": false,
      "inputs": [
        {
          "indexed": false,
          "internalType": "uint256",
          "name": "amount",
          "type": "uint256"
        }
      ],
      "name": "Reward",
      "type": "event"
    },
    {
      "anonymous": false,
      "inputs": [
        {
          "indexed": true,
          "internalType": "bytes32",
          "name": "role",
          "type": "bytes32"
        },
        {
          "indexed": true,
          "internalType": "bytes32",
          "name": "previousAdminRole",
          "type": "bytes32"
        },
        {
          "indexed": true,
          "internalType": "bytes32",
          "name": "newAdminRole",
          "type": "bytes32"
        }
      ],
      "name": "RoleAdminChanged",
      "type": "event"
    },
    {
      "anonymous": false,
      "inputs": [
        {
          "indexed": true,
          "internalType": "bytes32",
          "name": "role",
          "type": "bytes32"
        },
        {
          "indexed": true,
          "internalType": "address",
          "name": "account",
          "type": "address"
        },
        {
          "indexed": true,
          "internalType": "address",
          "name": "sender",
          "type": "address"
        }
      ],
      "name": "RoleGranted",
      "type": "event"
    },
    {
      "anonymous": false,
      "inputs": [
        {
          "indexed": true,
          "internalType": "bytes32",
          "name": "role",
          "type": "bytes32"
        },
        {
          "indexed": true,
          "internalType": "address",
          "name": "account",
          "type": "address"
        },
        {
          "indexed": true,
          "internalType": "address",
          "name": "sender",
          "type": "address"
        }
      ],
      "name": "RoleRevoked",
      "type": "event"
    },
    {
      "anonymous": false,
      "inputs": [
        {
          "indexed": false,
          "internalType": "uint256",
          "name": "healthFactor",
          "type": "uint256"
        }
      ],
      "name": "SetHealthFactor",
      "type": "event"
    },
    {
      "anonymous": false,
      "inputs": [
        {
          "indexed": false,
          "internalType": "uint256",
          "name": "amount",
          "type": "uint256"
        }
      ],
      "name": "Stake",
      "type": "event"
    },
    {
      "anonymous": false,
      "inputs": [],
      "name": "StrategyUpdatedParams",
      "type": "event"
    },
    {
      "anonymous": false,
      "inputs": [
        {
          "indexed": false,
          "internalType": "uint256",
          "name": "amount",
          "type": "uint256"
        },
        {
          "indexed": false,
          "internalType": "uint256",
          "name": "amountReceived",
          "type": "uint256"
        }
      ],
      "name": "Unstake",
      "type": "event"
    },
    {
      "anonymous": false,
      "inputs": [
        {
          "indexed": true,
          "internalType": "address",
          "name": "implementation",
          "type": "address"
        }
      ],
      "name": "Upgraded",
      "type": "event"
    },
    {
      "inputs": [],
      "name": "DEFAULT_ADMIN_ROLE",
      "outputs": [
        {
          "internalType": "bytes32",
          "name": "",
          "type": "bytes32"
        }
      ],
      "stateMutability": "view",
      "type": "function"
    },
    {
      "inputs": [],
      "name": "PORTFOLIO_MANAGER",
      "outputs": [
        {
          "internalType": "bytes32",
          "name": "",
          "type": "bytes32"
        }
      ],
      "stateMutability": "view",
      "type": "function"
    },
    {
      "inputs": [],
      "name": "UPGRADER_ROLE",
      "outputs": [
        {
          "internalType": "bytes32",
          "name": "",
          "type": "bytes32"
        }
      ],
      "stateMutability": "view",
      "type": "function"
    },
    {
      "inputs": [],
      "name": "busdToken",
      "outputs": [
        {
          "internalType": "contract IERC20",
          "name": "",
          "type": "address"
        }
      ],
      "stateMutability": "view",
      "type": "function"
    },
    {
      "inputs": [
        {
          "internalType": "address",
          "name": "_to",
          "type": "address"
        }
      ],
      "name": "claimRewards",
      "outputs": [
        {
          "internalType": "uint256",
          "name": "",
          "type": "uint256"
        }
      ],
      "stateMutability": "nonpayable",
      "type": "function"
    },
    {
      "inputs": [
        {
          "internalType": "bytes32",
          "name": "role",
          "type": "bytes32"
        }
      ],
      "name": "getRoleAdmin",
      "outputs": [
        {
          "internalType": "bytes32",
          "name": "",
          "type": "bytes32"
        }
      ],
      "stateMutability": "view",
      "type": "function"
    },
    {
      "inputs": [
        {
          "internalType": "bytes32",
          "name": "role",
          "type": "bytes32"
        },
        {
          "internalType": "address",
          "name": "account",
          "type": "address"
        }
      ],
      "name": "grantRole",
      "outputs": [],
      "stateMutability": "nonpayable",
      "type": "function"
    },
    {
      "inputs": [
        {
          "internalType": "bytes32",
          "name": "role",
          "type": "bytes32"
        },
        {
          "internalType": "address",
          "name": "account",
          "type": "address"
        }
      ],
      "name": "hasRole",
      "outputs": [
        {
          "internalType": "bool",
          "name": "",
          "type": "bool"
        }
      ],
      "stateMutability": "view",
      "type": "function"
    },
    {
      "inputs": [],
      "name": "healthFactorBalance",
      "outputs": [],
      "stateMutability": "nonpayable",
      "type": "function"
    },
    {
      "inputs": [],
      "name": "initialize",
      "outputs": [],
      "stateMutability": "nonpayable",
      "type": "function"
    },
    {
      "inputs": [],
      "name": "liquidationValue",
      "outputs": [
        {
          "internalType": "uint256",
          "name": "",
          "type": "uint256"
        }
      ],
      "stateMutability": "view",
      "type": "function"
    },
    {
      "inputs": [],
      "name": "miniChefV2",
      "outputs": [
        {
          "internalType": "contract IMiniChefV2",
          "name": "",
          "type": "address"
        }
      ],
      "stateMutability": "view",
      "type": "function"
    },
    {
      "inputs": [],
      "name": "nUsdLPToken",
      "outputs": [
        {
          "internalType": "contract IERC20",
          "name": "",
          "type": "address"
        }
      ],
      "stateMutability": "view",
      "type": "function"
    },
    {
      "inputs": [],
      "name": "netAssetValue",
      "outputs": [
        {
          "internalType": "uint256",
          "name": "",
          "type": "uint256"
        }
      ],
      "stateMutability": "view",
      "type": "function"
    },
    {
      "inputs": [],
      "name": "pancakeRouter",
      "outputs": [
        {
          "internalType": "contract IPancakeRouter02",
          "name": "",
          "type": "address"
        }
      ],
      "stateMutability": "view",
      "type": "function"
    },
    {
      "inputs": [],
      "name": "pid",
      "outputs": [
        {
          "internalType": "uint256",
          "name": "",
          "type": "uint256"
        }
      ],
      "stateMutability": "view",
      "type": "function"
    },
    {
      "inputs": [],
      "name": "portfolioManager",
      "outputs": [
        {
          "internalType": "address",
          "name": "",
          "type": "address"
        }
      ],
      "stateMutability": "view",
      "type": "function"
    },
    {
      "inputs": [],
      "name": "proxiableUUID",
      "outputs": [
        {
          "internalType": "bytes32",
          "name": "",
          "type": "bytes32"
        }
      ],
      "stateMutability": "view",
      "type": "function"
    },
    {
      "inputs": [
        {
          "internalType": "bytes32",
          "name": "role",
          "type": "bytes32"
        },
        {
          "internalType": "address",
          "name": "account",
          "type": "address"
        }
      ],
      "name": "renounceRole",
      "outputs": [],
      "stateMutability": "nonpayable",
      "type": "function"
    },
    {
      "inputs": [
        {
          "internalType": "bytes32",
          "name": "role",
          "type": "bytes32"
        },
        {
          "internalType": "address",
          "name": "account",
          "type": "address"
        }
      ],
      "name": "revokeRole",
      "outputs": [],
      "stateMutability": "nonpayable",
      "type": "function"
    },
    {
      "inputs": [
        {
          "internalType": "uint256",
          "name": "healthFactor",
          "type": "uint256"
        }
      ],
      "name": "setHealthFactor",
      "outputs": [],
      "stateMutability": "nonpayable",
      "type": "function"
    },
    {
      "inputs": [
        {
          "components": [
            {
              "internalType": "address",
              "name": "usdtToken",
              "type": "address"
            },
            {
              "internalType": "address",
              "name": "nUsdLPToken",
              "type": "address"
            },
            {
              "internalType": "address",
              "name": "synToken",
              "type": "address"
            },
            {
              "internalType": "address",
              "name": "busdToken",
              "type": "address"
            },
            {
              "internalType": "address",
              "name": "swap",
              "type": "address"
            },
            {
              "internalType": "address",
              "name": "miniChefV2",
              "type": "address"
            },
            {
              "internalType": "address",
              "name": "pancakeRouter",
              "type": "address"
            },
            {
              "internalType": "uint256",
              "name": "pid",
              "type": "uint256"
            }
          ],
          "internalType": "struct StrategySynapseUsdt.StrategyParams",
          "name": "params",
          "type": "tuple"
        }
      ],
      "name": "setParams",
      "outputs": [],
      "stateMutability": "nonpayable",
      "type": "function"
    },
    {
      "inputs": [
        {
          "internalType": "address",
          "name": "_value",
          "type": "address"
        }
      ],
      "name": "setPortfolioManager",
      "outputs": [],
      "stateMutability": "nonpayable",
      "type": "function"
    },
    {
      "inputs": [
        {
          "internalType": "address",
          "name": "_asset",
          "type": "address"
        },
        {
          "internalType": "uint256",
          "name": "_amount",
          "type": "uint256"
        }
      ],
      "name": "stake",
      "outputs": [],
      "stateMutability": "nonpayable",
      "type": "function"
    },
    {
      "inputs": [
        {
          "internalType": "bytes4",
          "name": "interfaceId",
          "type": "bytes4"
        }
      ],
      "name": "supportsInterface",
      "outputs": [
        {
          "internalType": "bool",
          "name": "",
          "type": "bool"
        }
      ],
      "stateMutability": "view",
      "type": "function"
    },
    {
      "inputs": [],
      "name": "swap",
      "outputs": [
        {
          "internalType": "contract ISwap",
          "name": "",
          "type": "address"
        }
      ],
      "stateMutability": "view",
      "type": "function"
    },
    {
      "inputs": [],
      "name": "synToken",
      "outputs": [
        {
          "internalType": "contract IERC20",
          "name": "",
          "type": "address"
        }
      ],
      "stateMutability": "view",
      "type": "function"
    },
    {
      "inputs": [
        {
          "internalType": "address",
          "name": "_asset",
          "type": "address"
        },
        {
          "internalType": "uint256",
          "name": "_amount",
          "type": "uint256"
        },
        {
          "internalType": "address",
          "name": "_beneficiary",
          "type": "address"
        },
        {
          "internalType": "bool",
          "name": "_targetIsZero",
          "type": "bool"
        }
      ],
      "name": "unstake",
      "outputs": [
        {
          "internalType": "uint256",
          "name": "",
          "type": "uint256"
        }
      ],
      "stateMutability": "nonpayable",
      "type": "function"
    },
    {
      "inputs": [
        {
          "internalType": "address",
          "name": "newImplementation",
          "type": "address"
        }
      ],
      "name": "upgradeTo",
      "outputs": [],
      "stateMutability": "nonpayable",
      "type": "function"
    },
    {
      "inputs": [
        {
          "internalType": "address",
          "name": "newImplementation",
          "type": "address"
        },
        {
          "internalType": "bytes",
          "name": "data",
          "type": "bytes"
        }
      ],
      "name": "upgradeToAndCall",
      "outputs": [],
      "stateMutability": "payable",
      "type": "function"
    },
    {
      "inputs": [],
      "name": "usdtToken",
      "outputs": [
        {
          "internalType": "contract IERC20",
          "name": "",
          "type": "address"
        }
      ],
      "stateMutability": "view",
      "type": "function"
    }
  ],
  "numDeployments": 1,
  "solcInputHash": "9102e7642f2b4212142790c8662a3321",
  "bytecode": "0x60a06040523060601b6080523480156200001857600080fd5b50600054610100900460ff16158080156200003a5750600054600160ff909116105b806200006a575062000057306200014460201b6200112b1760201c565b1580156200006a575060005460ff166001145b620000d25760405162461bcd60e51b815260206004820152602e60248201527f496e697469616c697a61626c653a20636f6e747261637420697320616c72656160448201526d191e481a5b9a5d1a585b1a5e995960921b606482015260840160405180910390fd5b6000805460ff191660011790558015620000f6576000805461ff0019166101001790555b80156200013d576000805461ff0019169055604051600181527f7f26b83ff96e1f2b6a682f133852f6798a09c465da95921460cefb38474024989060200160405180910390a15b5062000153565b6001600160a01b03163b151590565b60805160601c6135b86200018e6000396000818161073e0152818161077e0152818161081e0152818161085e01526108ed01526135b86000f3fe6080604052600436106101d85760003560e01c80638119c06511610102578063adc9772e11610095578063ef5cfb8c11610064578063ef5cfb8c14610544578063f106845414610564578063f6f6b8811461057b578063f72c0d8b1461059b57600080fd5b8063adc9772e146104c2578063c21ebd07146104e2578063d547741f14610503578063de0e70141461052357600080fd5b8063a217fddf116100d1578063a217fddf14610457578063a3673b381461046c578063a440b21a14610481578063a98ad46c146104a157600080fd5b80638119c065146103e15780638129fc1c1461040257806382808e641461041757806391d148541461043757600080fd5b806344a1342b1161017a578063620b75df11610149578063620b75df146103695780636d52ecb0146103895780637b73aa4e146103aa5780637d5f5802146103bf57600080fd5b806344a1342b146102e75780634b7f6363146103205780634f1ef2861461034157806352d1902d1461035457600080fd5b80632f2ff15d116101b65780632f2ff15d14610265578063311117081461028757806336568abe146102a75780633659cfe6146102c757600080fd5b806301ffc9a7146101dd578063248a9ca3146102125780632576e65a14610250575b600080fd5b3480156101e957600080fd5b506101fd6101f836600461304e565b6105cf565b60405190151581526020015b60405180910390f35b34801561021e57600080fd5b5061024261022d366004612ff0565b60009081526065602052604090206001015490565b604051908152602001610209565b34801561025c57600080fd5b50610242610606565b34801561027157600080fd5b50610285610280366004613022565b610617565b005b34801561029357600080fd5b506102856102a2366004612ff0565b610641565b3480156102b357600080fd5b506102856102c2366004613022565b6106b5565b3480156102d357600080fd5b506102856102e2366004612dec565b610733565b3480156102f357600080fd5b5061012e54610308906001600160a01b031681565b6040516001600160a01b039091168152602001610209565b34801561032c57600080fd5b5061013254610308906001600160a01b031681565b61028561034f366004612e07565b610813565b34801561036057600080fd5b506102426108e0565b34801561037557600080fd5b5060fb54610308906001600160a01b031681565b34801561039557600080fd5b5061012f54610308906001600160a01b031681565b3480156103b657600080fd5b50610285610993565b3480156103cb57600080fd5b5061024260008051602061351c83398151915281565b3480156103ed57600080fd5b5061013154610308906001600160a01b031681565b34801561040e57600080fd5b506102856109c9565b34801561042357600080fd5b50610285610432366004613078565b610a8c565b34801561044357600080fd5b506101fd610452366004613022565b610c63565b34801561046357600080fd5b50610242600081565b34801561047857600080fd5b50610242610c8e565b34801561048d57600080fd5b5061028561049c366004612dec565b610c9a565b3480156104ad57600080fd5b5061012d54610308906001600160a01b031681565b3480156104ce57600080fd5b506102856104dd366004612ead565b610dc9565b3480156104ee57600080fd5b5061013354610308906001600160a01b031681565b34801561050f57600080fd5b5061028561051e366004613022565b610eb6565b34801561052f57600080fd5b5061013054610308906001600160a01b031681565b34801561055057600080fd5b5061024261055f366004612dec565b610edb565b34801561057057600080fd5b506102426101345481565b34801561058757600080fd5b50610242610596366004612ed7565b610f60565b3480156105a757600080fd5b506102427f189ab7a9244df0848122154315af71fe140f3db0fe014031783b0946b8c9d2e381565b60006001600160e01b03198216637965db0b60e01b148061060057506301ffc9a760e01b6001600160e01b03198316145b92915050565b6000610612600061113a565b905090565b600082815260656020526040902060010154610632816113a4565b61063c83836113ae565b505050565b61065960008051602061351c83398151915233610c63565b61067e5760405162461bcd60e51b815260040161067590613236565b60405180910390fd5b6040518181527ff00d5f5126966481831a71a9d79a9b3af67c4a1a35637b992c7e465a7e465b71906020015b60405180910390a150565b6001600160a01b03811633146107255760405162461bcd60e51b815260206004820152602f60248201527f416363657373436f6e74726f6c3a2063616e206f6e6c792072656e6f756e636560448201526e103937b632b9903337b91039b2b63360891b6064820152608401610675565b61072f8282611434565b5050565b306001600160a01b037f000000000000000000000000000000000000000000000000000000000000000016141561077c5760405162461bcd60e51b81526004016106759061326d565b7f00000000000000000000000000000000000000000000000000000000000000006001600160a01b03166107c560008051602061353c833981519152546001600160a01b031690565b6001600160a01b0316146107eb5760405162461bcd60e51b8152600401610675906132b9565b6107f48161149b565b60408051600080825260208201909252610810918391906114c5565b50565b306001600160a01b037f000000000000000000000000000000000000000000000000000000000000000016141561085c5760405162461bcd60e51b81526004016106759061326d565b7f00000000000000000000000000000000000000000000000000000000000000006001600160a01b03166108a560008051602061353c833981519152546001600160a01b031690565b6001600160a01b0316146108cb5760405162461bcd60e51b8152600401610675906132b9565b6108d48261149b565b61072f828260016114c5565b6000306001600160a01b037f000000000000000000000000000000000000000000000000000000000000000016146109805760405162461bcd60e51b815260206004820152603860248201527f555550535570677261646561626c653a206d757374206e6f742062652063616c60448201527f6c6564207468726f7567682064656c656761746563616c6c00000000000000006064820152608401610675565b5060008051602061353c83398151915290565b6109ab60008051602061351c83398151915233610c63565b6109c75760405162461bcd60e51b815260040161067590613236565b565b600054610100900460ff16158080156109e95750600054600160ff909116105b80610a035750303b158015610a03575060005460ff166001145b610a1f5760405162461bcd60e51b815260040161067590613305565b6000805460ff191660011790558015610a42576000805461ff0019166101001790555b610a4a61163f565b8015610810576000805461ff0019169055604051600181527f7f26b83ff96e1f2b6a682f133852f6798a09c465da95921460cefb3847402498906020016106aa565b610a97600033610c63565b610ada5760405162461bcd60e51b81526020600482015260146024820152735265737472696374656420746f2061646d696e7360601b6044820152606401610675565b610ae76020820182612dec565b61012d80546001600160a01b0319166001600160a01b0392909216919091179055610b186040820160208301612dec565b61012e80546001600160a01b0319166001600160a01b0392909216919091179055610b496060820160408301612dec565b61012f80546001600160a01b0319166001600160a01b0392909216919091179055610b7a6080820160608301612dec565b61013080546001600160a01b0319166001600160a01b0392909216919091179055610bab60a0820160808301612dec565b61013180546001600160a01b0319166001600160a01b0392909216919091179055610bdc60c0820160a08301612dec565b61013280546001600160a01b0319166001600160a01b0392909216919091179055610c0d60e0820160c08301612dec565b61013380546001600160a01b0319166001600160a01b039290921691909117905560e0810135610134556040517fea5646eb3528e525944447a4a97de700dd472298626e5c0481d1c82c3da86ea590600090a150565b60009182526065602090815260408084206001600160a01b0393909316845291905290205460ff1690565b6000610612600161113a565b610ca5600033610c63565b610ce85760405162461bcd60e51b81526020600482015260146024820152735265737472696374656420746f2061646d696e7360601b6044820152606401610675565b6001600160a01b038116610d3e5760405162461bcd60e51b815260206004820152601860248201527f5a65726f2061646472657373206e6f7420616c6c6f77656400000000000000006044820152606401610675565b60fb54610d639060008051602061351c833981519152906001600160a01b0316610eb6565b610d7b60008051602061351c83398151915282610617565b60fb80546001600160a01b0319166001600160a01b0383169081179091556040519081527ff7b449fcd5cfb7379dcd34cb69428dd9f882033b15be33d83b42d91daa28eeb7906020016106aa565b610de160008051602061351c83398151915233610c63565b610dfd5760405162461bcd60e51b815260040161067590613236565b6040516370a0823160e01b8152306004820152610e7f9083906001600160a01b038216906370a082319060240160206040518083038186803b158015610e4257600080fd5b505afa158015610e56573d6000803e3d6000fd5b505050506040513d601f19601f82011682018060405250810190610e7a9190613009565b6116fd565b6040518181527f227a473b70d2f893cc7659219575c030a63b5743024fe1e0c1a680e708b1525a9060200160405180910390a15050565b600082815260656020526040902060010154610ed1816113a4565b61063c8383611434565b6000610ef560008051602061351c83398151915233610c63565b610f115760405162461bcd60e51b815260040161067590613236565b6000610f1c83611b19565b90508015610f58576040518181527f3ac0594a85a20354f9dc74f33728416d19ce00d04a406c108cc2dcf2cecea1349060200160405180910390a15b90505b919050565b6000610f7a60008051602061351c83398151915233610c63565b610f965760405162461bcd60e51b815260040161067590613236565b60008215610ff7576000610fa985611b19565b90508015610fe5576040518181527f3ac0594a85a20354f9dc74f33728416d19ce00d04a406c108cc2dcf2cecea1349060200160405180910390a15b610fef8786611dc0565b915050611066565b6110028686866121a3565b9050848110156110665760405162461bcd60e51b815260206004820152602960248201527f52657475726e65642076616c7565206c657373207468616e2072657175657374604482015268195908185b5bdd5b9d60ba1b6064820152608401610675565b60405163a9059cbb60e01b81526001600160a01b0385811660048301526024820183905287169063a9059cbb90604401602060405180830381600087803b1580156110b057600080fd5b505af11580156110c4573d6000803e3d6000fd5b505050506040513d601f19601f820116820180604052508101906110e89190612fd3565b5060408051868152602081018390527f9045c2ac9b2026de8075f2701bbdde882cd5e830b3b1ead9a15b22f2b5b93742910160405180910390a195945050505050565b6001600160a01b03163b151590565b61012d546040516370a0823160e01b815230600482015260009182916001600160a01b03909116906370a082319060240160206040518083038186803b15801561118357600080fd5b505afa158015611197573d6000803e3d6000fd5b505050506040513d601f19601f820116820180604052508101906111bb9190613009565b61013254610134546040516393f1a40b60e01b815260048101919091523060248201529192506000916001600160a01b03909116906393f1a40b90604401604080518083038186803b15801561121057600080fd5b505afa158015611224573d6000803e3d6000fd5b505050506040513d601f19601f820116820180604052508101906112489190613091565b509050801561139d57831561130c576101315460405163342a87a160e01b8152670de0b6b3a764000060048201819052600360248301529183916001600160a01b039091169063342a87a19060440160206040518083038186803b1580156112af57600080fd5b505afa1580156112c3573d6000803e3d6000fd5b505050506040513d601f19601f820116820180604052508101906112e79190613009565b6112f19190613452565b6112fb9190613430565b6113059083613418565b915061139d565b6101315460405163342a87a160e01b815260048101839052600360248201526001600160a01b039091169063342a87a19060440160206040518083038186803b15801561135857600080fd5b505afa15801561136c573d6000803e3d6000fd5b505050506040513d601f19601f820116820180604052508101906113909190613009565b61139a9083613418565b91505b5092915050565b61081081336125c6565b6113b88282610c63565b61072f5760008281526065602090815260408083206001600160a01b03851684529091529020805460ff191660011790556113f03390565b6001600160a01b0316816001600160a01b0316837f2f8788117e7eff1d82e926ec794901d17c78024a50270940304540a733656f0d60405160405180910390a45050565b61143e8282610c63565b1561072f5760008281526065602090815260408083206001600160a01b0385168085529252808320805460ff1916905551339285917ff6391f5c32d9c69d2a47ea670b442974b53935d1edc7fd64eb21e047a839171b9190a45050565b7f189ab7a9244df0848122154315af71fe140f3db0fe014031783b0946b8c9d2e361072f816113a4565b7f4910fdfa16fed3260ed0e7147f7cc6da11a60208b5b9406d12a635614ffd91435460ff16156114f85761063c8361262a565b826001600160a01b03166352d1902d6040518163ffffffff1660e01b815260040160206040518083038186803b15801561153157600080fd5b505afa925050508015611561575060408051601f3d908101601f1916820190925261155e91810190613009565b60015b6115c45760405162461bcd60e51b815260206004820152602e60248201527f45524331393637557067726164653a206e657720696d706c656d656e7461746960448201526d6f6e206973206e6f74205555505360901b6064820152608401610675565b60008051602061353c83398151915281146116335760405162461bcd60e51b815260206004820152602960248201527f45524331393637557067726164653a20756e737570706f727465642070726f786044820152681a58589b195555525160ba1b6064820152608401610675565b5061063c8383836126c6565b600054610100900460ff161580801561165f5750600054600160ff909116105b806116795750303b158015611679575060005460ff166001145b6116955760405162461bcd60e51b815260040161067590613305565b6000805460ff1916600117905580156116b8576000805461ff0019166101001790555b6116c06126f1565b6116c86126f1565b6116d36000336113ae565b610a4a7f189ab7a9244df0848122154315af71fe140f3db0fe014031783b0946b8c9d2e3336113ae565b61012d546001600160a01b0383811691161461172b5760405162461bcd60e51b815260040161067590613353565b61012d546040516370a0823160e01b81523060048201526000916001600160a01b0316906370a082319060240160206040518083038186803b15801561177057600080fd5b505afa158015611784573d6000803e3d6000fd5b505050506040513d601f19601f820116820180604052508101906117a89190613009565b60408051600480825260a0820190925291925060009190602082016080803683370190505090506000816000815181106117e4576117e46134e1565b602002602001018181525050600081600181518110611805576118056134e1565b602002602001018181525050600081600281518110611826576118266134e1565b602090810291909101015261183c82600461275c565b8160038151811061184f5761184f6134e1565b602090810291909101015261013154604051637355940360e11b81526000916001600160a01b03169063e6ab28069061188f9085906001906004016131ba565b60206040518083038186803b1580156118a757600080fd5b505afa1580156118bb573d6000803e3d6000fd5b505050506040513d601f19601f820116820180604052508101906118df9190613009565b905082826003815181106118f5576118f56134e1565b602090810291909101015261012d546101315460405163095ea7b360e01b81526001600160a01b0391821660048201526024810186905291169063095ea7b390604401602060405180830381600087803b15801561195257600080fd5b505af1158015611966573d6000803e3d6000fd5b505050506040513d601f19601f8201168201806040525081019061198a9190612fd3565b5061013154604051634d49e87d60e01b81526000916001600160a01b031690634d49e87d906119c1908690869042906004016131de565b602060405180830381600087803b1580156119db57600080fd5b505af11580156119ef573d6000803e3d6000fd5b505050506040513d601f19601f82011682018060405250810190611a139190613009565b61012e546101325460405163095ea7b360e01b81526001600160a01b03918216600482015260248101849052929350169063095ea7b390604401602060405180830381600087803b158015611a6757600080fd5b505af1158015611a7b573d6000803e3d6000fd5b505050506040513d601f19601f82011682018060405250810190611a9f9190612fd3565b506101325461013454604051638dbdbe6d60e01b81526004810191909152602481018390523060448201526001600160a01b0390911690638dbdbe6d90606401600060405180830381600087803b158015611af957600080fd5b505af1158015611b0d573d6000803e3d6000fd5b50505050505050505050565b61013254610134546040516393f1a40b60e01b8152600481019190915230602482015260009182916001600160a01b03909116906393f1a40b90604401604080518083038186803b158015611b6d57600080fd5b505afa158015611b81573d6000803e3d6000fd5b505050506040513d601f19601f82011682018060405250810190611ba59190613091565b50905080611bb65750600092915050565b6101325461013454604051630c7e663b60e11b815260048101919091523060248201526001600160a01b03909116906318fccc7690604401600060405180830381600087803b158015611c0857600080fd5b505af1158015611c1c573d6000803e3d6000fd5b505061012f546040516370a0823160e01b8152306004820152600093508392506001600160a01b03909116906370a082319060240160206040518083038186803b158015611c6957600080fd5b505afa158015611c7d573d6000803e3d6000fd5b505050506040513d601f19601f82011682018060405250810190611ca19190613009565b90508015611d29576101335461012f546101305461012d54600093611cdb936001600160a01b03918216939082169290821691168661277f565b90508015611d27576101335461012f546101305461012d54600093611d17936001600160a01b03918216939082169290821691168787306128de565b9050611d238185613418565b9350505b505b8115611db85761012d5460405163a9059cbb60e01b81526001600160a01b038781166004830152602482018590529091169063a9059cbb90604401602060405180830381600087803b158015611d7e57600080fd5b505af1158015611d92573d6000803e3d6000fd5b505050506040513d601f19601f82011682018060405250810190611db69190612fd3565b505b509392505050565b61012d546000906001600160a01b03848116911614611df15760405162461bcd60e51b815260040161067590613353565b61013254610134546040516393f1a40b60e01b815260048101919091523060248201526000916001600160a01b0316906393f1a40b90604401604080518083038186803b158015611e4157600080fd5b505afa158015611e55573d6000803e3d6000fd5b505050506040513d601f19601f82011682018060405250810190611e799190613091565b50905080611f055761012d546040516370a0823160e01b81523060048201526001600160a01b03909116906370a082319060240160206040518083038186803b158015611ec557600080fd5b505afa158015611ed9573d6000803e3d6000fd5b505050506040513d601f19601f82011682018060405250810190611efd9190613009565b915050610600565b6101325461013454604051630ad58d2f60e01b81526004810191909152602481018390523060448201526001600160a01b0390911690630ad58d2f90606401600060405180830381600087803b158015611f5e57600080fd5b505af1158015611f72573d6000803e3d6000fd5b50506101315460405163342a87a160e01b81526004810185905260036024820152600093506001600160a01b03909116915063342a87a19060440160206040518083038186803b158015611fc557600080fd5b505afa158015611fd9573d6000803e3d6000fd5b505050506040513d601f19601f82011682018060405250810190611ffd9190613009565b61012e546101315460405163095ea7b360e01b81526001600160a01b03918216600482015260248101869052929350169063095ea7b390604401602060405180830381600087803b15801561205157600080fd5b505af1158015612065573d6000803e3d6000fd5b505050506040513d601f19601f820116820180604052508101906120899190612fd3565b50610131546040516301f1d0ab60e51b81526004810184905260036024820152604481018390524260648201526001600160a01b0390911690633e3a156090608401602060405180830381600087803b1580156120e557600080fd5b505af11580156120f9573d6000803e3d6000fd5b505050506040513d601f19601f8201168201806040525081019061211d9190613009565b5061012d546040516370a0823160e01b81523060048201526001600160a01b03909116906370a082319060240160206040518083038186803b15801561216257600080fd5b505afa158015612176573d6000803e3d6000fd5b505050506040513d601f19601f8201168201806040525081019061219a9190613009565b95945050505050565b61012d546000906001600160a01b038581169116146121d45760405162461bcd60e51b815260040161067590613353565b60408051600480825260a082019092526000916020820160808036833701905050905060008160008151811061220c5761220c6134e1565b60200260200101818152505060008160018151811061222d5761222d6134e1565b60200260200101818152505060008160028151811061224e5761224e6134e1565b6020908102919091010152612264846004612acb565b61226f906001613418565b81600381518110612282576122826134e1565b602090810291909101015261013154604051637355940360e11b81526000916001600160a01b03169063e6ab2806906122c190859085906004016131ba565b60206040518083038186803b1580156122d957600080fd5b505afa1580156122ed573d6000803e3d6000fd5b505050506040513d601f19601f820116820180604052508101906123119190613009565b61013254610134546040516393f1a40b60e01b815260048101919091523060248201529192506000916001600160a01b03909116906393f1a40b90604401604080518083038186803b15801561236657600080fd5b505afa15801561237a573d6000803e3d6000fd5b505050506040513d601f19601f8201168201806040525081019061239e9190613091565b509050808211156123ad578091505b6101325461013454604051630ad58d2f60e01b81526004810191909152602481018490523060448201526001600160a01b0390911690630ad58d2f90606401600060405180830381600087803b15801561240657600080fd5b505af115801561241a573d6000803e3d6000fd5b505061012e546101315460405163095ea7b360e01b81526001600160a01b039182166004820152602481018790529116925063095ea7b39150604401602060405180830381600087803b15801561247057600080fd5b505af1158015612484573d6000803e3d6000fd5b505050506040513d601f19601f820116820180604052508101906124a89190612fd3565b50610131546040516301f1d0ab60e51b81526004810184905260036024820152604481018890524260648201526001600160a01b0390911690633e3a156090608401602060405180830381600087803b15801561250457600080fd5b505af1158015612518573d6000803e3d6000fd5b505050506040513d601f19601f8201168201806040525081019061253c9190613009565b5061012d546040516370a0823160e01b81523060048201526001600160a01b03909116906370a082319060240160206040518083038186803b15801561258157600080fd5b505afa158015612595573d6000803e3d6000fd5b505050506040513d601f19601f820116820180604052508101906125b99190613009565b93505050505b9392505050565b6125d08282610c63565b61072f576125e8816001600160a01b03166014612ada565b6125f3836020612ada565b604051602001612604929190613145565b60408051601f198184030181529082905262461bcd60e51b825261067591600401613203565b6001600160a01b0381163b6126975760405162461bcd60e51b815260206004820152602d60248201527f455243313936373a206e657720696d706c656d656e746174696f6e206973206e60448201526c1bdd08184818dbdb9d1c9858dd609a1b6064820152608401610675565b60008051602061353c83398151915280546001600160a01b0319166001600160a01b0392909216919091179055565b6126cf83612c76565b6000825111806126dc5750805b1561063c576126eb8383612cb6565b50505050565b600054610100900460ff166109c75760405162461bcd60e51b815260206004820152602b60248201527f496e697469616c697a61626c653a20636f6e7472616374206973206e6f74206960448201526a6e697469616c697a696e6760a81b6064820152608401610675565b600061271061276b8382613471565b6127759085613452565b6125bf9190613430565b604080516003808252608082019092526000918291906020820160608036833701905050905085816000815181106127b9576127b96134e1565b60200260200101906001600160a01b031690816001600160a01b03168152505084816001815181106127ed576127ed6134e1565b60200260200101906001600160a01b031690816001600160a01b0316815250508381600281518110612821576128216134e1565b6001600160a01b03928316602091820292909201015260405163d06ca61f60e01b815260009189169063d06ca61f90612860908790869060040161338a565b60006040518083038186803b15801561287857600080fd5b505afa15801561288c573d6000803e3d6000fd5b505050506040513d6000823e601f3d908101601f191682016040526128b49190810190612f26565b9050806002815181106128c9576128c96134e1565b60200260200101519250505095945050505050565b60405163095ea7b360e01b81526001600160a01b038881166004830152602482018590526000919088169063095ea7b390604401602060405180830381600087803b15801561292c57600080fd5b505af1158015612940573d6000803e3d6000fd5b505050506040513d601f19601f820116820180604052508101906129649190612fd3565b506040805160038082526080820190925260009160208201606080368337019050509050878160008151811061299c5761299c6134e1565b60200260200101906001600160a01b031690816001600160a01b03168152505086816001815181106129d0576129d06134e1565b60200260200101906001600160a01b031690816001600160a01b0316815250508581600281518110612a0457612a046134e1565b6001600160a01b0392831660209182029290920101526040516338ed173960e01b81526000918b16906338ed173990612a49908990899087908a9042906004016133ab565b600060405180830381600087803b158015612a6357600080fd5b505af1158015612a77573d6000803e3d6000fd5b505050506040513d6000823e601f3d908101601f19168201604052612a9f9190810190612f26565b905080600281518110612ab457612ab46134e1565b602002602001015192505050979650505050505050565b600061271061276b8382613418565b60606000612ae9836002613452565b612af4906002613418565b67ffffffffffffffff811115612b0c57612b0c6134f7565b6040519080825280601f01601f191660200182016040528015612b36576020820181803683370190505b509050600360fc1b81600081518110612b5157612b516134e1565b60200101906001600160f81b031916908160001a905350600f60fb1b81600181518110612b8057612b806134e1565b60200101906001600160f81b031916908160001a9053506000612ba4846002613452565b612baf906001613418565b90505b6001811115612c27576f181899199a1a9b1b9c1cb0b131b232b360811b85600f1660108110612be357612be36134e1565b1a60f81b828281518110612bf957612bf96134e1565b60200101906001600160f81b031916908160001a90535060049490941c93612c20816134b4565b9050612bb2565b5083156125bf5760405162461bcd60e51b815260206004820181905260248201527f537472696e67733a20686578206c656e67746820696e73756666696369656e746044820152606401610675565b612c7f8161262a565b6040516001600160a01b038216907fbc7cd75a20ee27fd9adebab32041f755214dbc6bffa90cc0225b39da2e5c2d3b90600090a250565b60606001600160a01b0383163b612d1e5760405162461bcd60e51b815260206004820152602660248201527f416464726573733a2064656c65676174652063616c6c20746f206e6f6e2d636f6044820152651b9d1c9858dd60d21b6064820152608401610675565b600080846001600160a01b031684604051612d399190613129565b600060405180830381855af49150503d8060008114612d74576040519150601f19603f3d011682016040523d82523d6000602084013e612d79565b606091505b509150915061219a828260405180606001604052806027815260200161355c6027913960608315612dab5750816125bf565b825115612dbb5782518084602001fd5b8160405162461bcd60e51b81526004016106759190613203565b80356001600160a01b0381168114610f5b57600080fd5b600060208284031215612dfe57600080fd5b6125bf82612dd5565b60008060408385031215612e1a57600080fd5b612e2383612dd5565b915060208084013567ffffffffffffffff80821115612e4157600080fd5b818601915086601f830112612e5557600080fd5b813581811115612e6757612e676134f7565b612e79601f8201601f191685016133e7565b91508082528784828501011115612e8f57600080fd5b80848401858401376000848284010152508093505050509250929050565b60008060408385031215612ec057600080fd5b612ec983612dd5565b946020939093013593505050565b60008060008060808587031215612eed57600080fd5b612ef685612dd5565b935060208501359250612f0b60408601612dd5565b91506060850135612f1b8161350d565b939692955090935050565b60006020808385031215612f3957600080fd5b825167ffffffffffffffff80821115612f5157600080fd5b818501915085601f830112612f6557600080fd5b815181811115612f7757612f776134f7565b8060051b9150612f888483016133e7565b8181528481019084860184860187018a1015612fa357600080fd5b600095505b83861015612fc6578051835260019590950194918601918601612fa8565b5098975050505050505050565b600060208284031215612fe557600080fd5b81516125bf8161350d565b60006020828403121561300257600080fd5b5035919050565b60006020828403121561301b57600080fd5b5051919050565b6000806040838503121561303557600080fd5b8235915061304560208401612dd5565b90509250929050565b60006020828403121561306057600080fd5b81356001600160e01b0319811681146125bf57600080fd5b6000610100828403121561308b57600080fd5b50919050565b600080604083850312156130a457600080fd5b505080516020909101519092909150565b600081518084526020808501945080840160005b838110156130ee5781516001600160a01b0316875295820195908201906001016130c9565b509495945050505050565b600081518084526020808501945080840160005b838110156130ee5781518752958201959082019060010161310d565b6000825161313b818460208701613488565b9190910192915050565b7f416363657373436f6e74726f6c3a206163636f756e742000000000000000000081526000835161317d816017850160208801613488565b7001034b99036b4b9b9b4b733903937b6329607d1b60179184019182015283516131ae816028840160208801613488565b01602801949350505050565b6040815260006131cd60408301856130f9565b905082151560208301529392505050565b6060815260006131f160608301866130f9565b60208301949094525060400152919050565b6020815260008251806020840152613222816040850160208701613488565b601f01601f19169190910160400192915050565b6020808252601f908201527f5265737472696374656420746f20504f5254464f4c494f5f4d414e4147455200604082015260600190565b6020808252602c908201527f46756e6374696f6e206d7573742062652063616c6c6564207468726f7567682060408201526b19195b1959d85d1958d85b1b60a21b606082015260800190565b6020808252602c908201527f46756e6374696f6e206d7573742062652063616c6c6564207468726f7567682060408201526b6163746976652070726f787960a01b606082015260800190565b6020808252602e908201527f496e697469616c697a61626c653a20636f6e747261637420697320616c72656160408201526d191e481a5b9a5d1a585b1a5e995960921b606082015260800190565b60208082526019908201527f536f6d6520746f6b656e206e6f7420636f6d70617469626c6500000000000000604082015260600190565b8281526040602082015260006133a360408301846130b5565b949350505050565b85815284602082015260a0604082015260006133ca60a08301866130b5565b6001600160a01b0394909416606083015250608001529392505050565b604051601f8201601f1916810167ffffffffffffffff81118282101715613410576134106134f7565b604052919050565b6000821982111561342b5761342b6134cb565b500190565b60008261344d57634e487b7160e01b600052601260045260246000fd5b500490565b600081600019048311821515161561346c5761346c6134cb565b500290565b600082821015613483576134836134cb565b500390565b60005b838110156134a357818101518382015260200161348b565b838111156126eb5750506000910152565b6000816134c3576134c36134cb565b506000190190565b634e487b7160e01b600052601160045260246000fd5b634e487b7160e01b600052603260045260246000fd5b634e487b7160e01b600052604160045260246000fd5b801515811461081057600080fdfe90c2aa7471c04182221f68e80c07ab1e5946e4c63f8693e14ca40385d529f051360894a13ba1a3210667c828492db98dca3e2076cc3735a920a3ca505d382bbc416464726573733a206c6f772d6c6576656c2064656c65676174652063616c6c206661696c6564a264697066735822122042f7b7fed6b1895d1119ebf2675e4fc18044d533494304d396a2ca66f763c15864736f6c63430008060033",
  "devdoc": {
    "kind": "dev",
    "methods": {
      "constructor": {
        "custom:oz-upgrades-unsafe-allow": "constructor"
      },
      "getRoleAdmin(bytes32)": {
        "details": "Returns the admin role that controls `role`. See {grantRole} and {revokeRole}. To change a role's admin, use {_setRoleAdmin}."
      },
      "grantRole(bytes32,address)": {
        "details": "Grants `role` to `account`. If `account` had not been already granted `role`, emits a {RoleGranted} event. Requirements: - the caller must have ``role``'s admin role. May emit a {RoleGranted} event."
      },
      "hasRole(bytes32,address)": {
        "details": "Returns `true` if `account` has been granted `role`."
      },
      "proxiableUUID()": {
        "details": "Implementation of the ERC1822 {proxiableUUID} function. This returns the storage slot used by the implementation. It is used to validate that the this implementation remains valid after an upgrade. IMPORTANT: A proxy pointing at a proxiable contract should not be considered proxiable itself, because this risks bricking a proxy that upgrades to it, by delegating to itself until out of gas. Thus it is critical that this function revert if invoked through a proxy. This is guaranteed by the `notDelegated` modifier."
      },
      "renounceRole(bytes32,address)": {
        "details": "Revokes `role` from the calling account. Roles are often managed via {grantRole} and {revokeRole}: this function's purpose is to provide a mechanism for accounts to lose their privileges if they are compromised (such as when a trusted device is misplaced). If the calling account had been revoked `role`, emits a {RoleRevoked} event. Requirements: - the caller must be `account`. May emit a {RoleRevoked} event."
      },
      "revokeRole(bytes32,address)": {
        "details": "Revokes `role` from `account`. If `account` had been granted `role`, emits a {RoleRevoked} event. Requirements: - the caller must have ``role``'s admin role. May emit a {RoleRevoked} event."
      },
      "supportsInterface(bytes4)": {
        "details": "See {IERC165-supportsInterface}."
      },
      "upgradeTo(address)": {
        "details": "Upgrade the implementation of the proxy to `newImplementation`. Calls {_authorizeUpgrade}. Emits an {Upgraded} event."
      },
      "upgradeToAndCall(address,bytes)": {
        "details": "Upgrade the implementation of the proxy to `newImplementation`, and subsequently execute the function call encoded in `data`. Calls {_authorizeUpgrade}. Emits an {Upgraded} event."
      }
    },
    "version": 1
  },
  "userdoc": {
    "kind": "user",
    "methods": {},
    "version": 1
  },
  "storageLayout": {
    "storage": [
      {
        "astId": 808,
        "contract": "contracts/usdt/StrategySynapseUsdt.sol:StrategySynapseUsdt",
        "label": "_initialized",
        "offset": 0,
        "slot": "0",
        "type": "t_uint8"
      },
      {
        "astId": 811,
        "contract": "contracts/usdt/StrategySynapseUsdt.sol:StrategySynapseUsdt",
        "label": "_initializing",
        "offset": 1,
        "slot": "0",
        "type": "t_bool"
      },
      {
        "astId": 1372,
        "contract": "contracts/usdt/StrategySynapseUsdt.sol:StrategySynapseUsdt",
        "label": "__gap",
        "offset": 0,
        "slot": "1",
        "type": "t_array(t_uint256)50_storage"
      },
      {
        "astId": 1702,
        "contract": "contracts/usdt/StrategySynapseUsdt.sol:StrategySynapseUsdt",
        "label": "__gap",
        "offset": 0,
        "slot": "51",
        "type": "t_array(t_uint256)50_storage"
      },
      {
        "astId": 39,
        "contract": "contracts/usdt/StrategySynapseUsdt.sol:StrategySynapseUsdt",
        "label": "_roles",
        "offset": 0,
        "slot": "101",
        "type": "t_mapping(t_bytes32,t_struct(RoleData)34_storage)"
      },
      {
        "astId": 338,
        "contract": "contracts/usdt/StrategySynapseUsdt.sol:StrategySynapseUsdt",
        "label": "__gap",
        "offset": 0,
        "slot": "102",
        "type": "t_array(t_uint256)49_storage"
      },
      {
        "astId": 790,
        "contract": "contracts/usdt/StrategySynapseUsdt.sol:StrategySynapseUsdt",
        "label": "__gap",
        "offset": 0,
        "slot": "151",
        "type": "t_array(t_uint256)50_storage"
      },
      {
        "astId": 1087,
        "contract": "contracts/usdt/StrategySynapseUsdt.sol:StrategySynapseUsdt",
        "label": "__gap",
        "offset": 0,
        "slot": "201",
        "type": "t_array(t_uint256)50_storage"
      },
      {
        "astId": 2453,
        "contract": "contracts/usdt/StrategySynapseUsdt.sol:StrategySynapseUsdt",
        "label": "portfolioManager",
        "offset": 0,
        "slot": "251",
        "type": "t_address"
      },
      {
        "astId": 2789,
        "contract": "contracts/usdt/StrategySynapseUsdt.sol:StrategySynapseUsdt",
        "label": "__gap",
        "offset": 0,
        "slot": "252",
        "type": "t_array(t_uint256)49_storage"
      },
      {
        "astId": 7747,
        "contract": "contracts/usdt/StrategySynapseUsdt.sol:StrategySynapseUsdt",
        "label": "usdtToken",
        "offset": 0,
        "slot": "301",
        "type": "t_contract(IERC20)2379"
      },
      {
        "astId": 7750,
        "contract": "contracts/usdt/StrategySynapseUsdt.sol:StrategySynapseUsdt",
        "label": "nUsdLPToken",
        "offset": 0,
        "slot": "302",
        "type": "t_contract(IERC20)2379"
      },
      {
        "astId": 7753,
        "contract": "contracts/usdt/StrategySynapseUsdt.sol:StrategySynapseUsdt",
        "label": "synToken",
        "offset": 0,
        "slot": "303",
        "type": "t_contract(IERC20)2379"
      },
      {
        "astId": 7756,
        "contract": "contracts/usdt/StrategySynapseUsdt.sol:StrategySynapseUsdt",
        "label": "busdToken",
        "offset": 0,
        "slot": "304",
        "type": "t_contract(IERC20)2379"
      },
      {
        "astId": 7759,
        "contract": "contracts/usdt/StrategySynapseUsdt.sol:StrategySynapseUsdt",
        "label": "swap",
        "offset": 0,
        "slot": "305",
        "type": "t_contract(ISwap)5344"
      },
      {
        "astId": 7762,
        "contract": "contracts/usdt/StrategySynapseUsdt.sol:StrategySynapseUsdt",
        "label": "miniChefV2",
        "offset": 0,
        "slot": "306",
        "type": "t_contract(IMiniChefV2)5176"
      },
      {
        "astId": 7765,
        "contract": "contracts/usdt/StrategySynapseUsdt.sol:StrategySynapseUsdt",
        "label": "pancakeRouter",
        "offset": 0,
        "slot": "307",
        "type": "t_contract(IPancakeRouter02)4921"
      },
      {
        "astId": 7767,
        "contract": "contracts/usdt/StrategySynapseUsdt.sol:StrategySynapseUsdt",
        "label": "pid",
        "offset": 0,
        "slot": "308",
        "type": "t_uint256"
      }
    ],
    "types": {
      "t_address": {
        "encoding": "inplace",
        "label": "address",
        "numberOfBytes": "20"
      },
      "t_array(t_uint256)49_storage": {
        "base": "t_uint256",
        "encoding": "inplace",
        "label": "uint256[49]",
        "numberOfBytes": "1568"
      },
      "t_array(t_uint256)50_storage": {
        "base": "t_uint256",
        "encoding": "inplace",
        "label": "uint256[50]",
        "numberOfBytes": "1600"
      },
      "t_bool": {
        "encoding": "inplace",
        "label": "bool",
        "numberOfBytes": "1"
      },
      "t_bytes32": {
        "encoding": "inplace",
        "label": "bytes32",
        "numberOfBytes": "32"
      },
      "t_contract(IERC20)2379": {
        "encoding": "inplace",
        "label": "contract IERC20",
        "numberOfBytes": "20"
      },
      "t_contract(IMiniChefV2)5176": {
        "encoding": "inplace",
        "label": "contract IMiniChefV2",
        "numberOfBytes": "20"
      },
      "t_contract(IPancakeRouter02)4921": {
        "encoding": "inplace",
        "label": "contract IPancakeRouter02",
        "numberOfBytes": "20"
      },
      "t_contract(ISwap)5344": {
        "encoding": "inplace",
        "label": "contract ISwap",
        "numberOfBytes": "20"
      },
      "t_mapping(t_address,t_bool)": {
        "encoding": "mapping",
        "key": "t_address",
        "label": "mapping(address => bool)",
        "numberOfBytes": "32",
        "value": "t_bool"
      },
      "t_mapping(t_bytes32,t_struct(RoleData)34_storage)": {
        "encoding": "mapping",
        "key": "t_bytes32",
        "label": "mapping(bytes32 => struct AccessControlUpgradeable.RoleData)",
        "numberOfBytes": "32",
        "value": "t_struct(RoleData)34_storage"
      },
      "t_struct(RoleData)34_storage": {
        "encoding": "inplace",
        "label": "struct AccessControlUpgradeable.RoleData",
        "members": [
          {
            "astId": 31,
            "contract": "contracts/usdt/StrategySynapseUsdt.sol:StrategySynapseUsdt",
            "label": "members",
            "offset": 0,
            "slot": "0",
            "type": "t_mapping(t_address,t_bool)"
          },
          {
            "astId": 33,
            "contract": "contracts/usdt/StrategySynapseUsdt.sol:StrategySynapseUsdt",
            "label": "adminRole",
            "offset": 0,
            "slot": "1",
            "type": "t_bytes32"
          }
        ],
        "numberOfBytes": "64"
      },
      "t_uint256": {
        "encoding": "inplace",
        "label": "uint256",
        "numberOfBytes": "32"
      },
      "t_uint8": {
        "encoding": "inplace",
        "label": "uint8",
        "numberOfBytes": "1"
      }
    }
  }
}