{
  "address": "0x3f10898C18B0297531c8bee0ffe44aecd8728425",
  "abi": [
    {
      "inputs": [],
      "stateMutability": "nonpayable",
      "type": "constructor"
    },
    {
      "anonymous": false,
      "inputs": [
        {
          "indexed": false,
          "internalType": "address",
          "name": "previousAdmin",
          "type": "address"
        },
        {
          "indexed": false,
          "internalType": "address",
          "name": "newAdmin",
          "type": "address"
        }
      ],
      "name": "AdminChanged",
      "type": "event"
    },
    {
      "anonymous": false,
      "inputs": [
        {
          "indexed": true,
          "internalType": "address",
          "name": "beacon",
          "type": "address"
        }
      ],
      "name": "BeaconUpgraded",
      "type": "event"
    },
    {
      "anonymous": false,
      "inputs": [
        {
          "indexed": false,
          "internalType": "uint8",
          "name": "version",
          "type": "uint8"
        }
      ],
      "name": "Initialized",
      "type": "event"
    },
    {
      "anonymous": false,
      "inputs": [
        {
          "indexed": false,
          "internalType": "address",
          "name": "value",
          "type": "address"
        }
      ],
      "name": "PortfolioManagerUpdated",
      "type": "event"
    },
    {
      "anonymous": false,
      "inputs": [
        {
          "indexed": false,
          "internalType": "uint256",
          "name": "amount",
          "type": "uint256"
        }
      ],
      "name": "Reward",
      "type": "event"
    },
    {
      "anonymous": false,
      "inputs": [
        {
          "indexed": true,
          "internalType": "bytes32",
          "name": "role",
          "type": "bytes32"
        },
        {
          "indexed": true,
          "internalType": "bytes32",
          "name": "previousAdminRole",
          "type": "bytes32"
        },
        {
          "indexed": true,
          "internalType": "bytes32",
          "name": "newAdminRole",
          "type": "bytes32"
        }
      ],
      "name": "RoleAdminChanged",
      "type": "event"
    },
    {
      "anonymous": false,
      "inputs": [
        {
          "indexed": true,
          "internalType": "bytes32",
          "name": "role",
          "type": "bytes32"
        },
        {
          "indexed": true,
          "internalType": "address",
          "name": "account",
          "type": "address"
        },
        {
          "indexed": true,
          "internalType": "address",
          "name": "sender",
          "type": "address"
        }
      ],
      "name": "RoleGranted",
      "type": "event"
    },
    {
      "anonymous": false,
      "inputs": [
        {
          "indexed": true,
          "internalType": "bytes32",
          "name": "role",
          "type": "bytes32"
        },
        {
          "indexed": true,
          "internalType": "address",
          "name": "account",
          "type": "address"
        },
        {
          "indexed": true,
          "internalType": "address",
          "name": "sender",
          "type": "address"
        }
      ],
      "name": "RoleRevoked",
      "type": "event"
    },
    {
      "anonymous": false,
      "inputs": [
        {
          "indexed": false,
          "internalType": "uint256",
          "name": "swapSlippageBP",
          "type": "uint256"
        },
        {
          "indexed": false,
          "internalType": "uint256",
          "name": "navSlippageBP",
          "type": "uint256"
        },
        {
          "indexed": false,
          "internalType": "uint256",
          "name": "stakeSlippageBP",
          "type": "uint256"
        }
      ],
      "name": "SlippagesUpdated",
      "type": "event"
    },
    {
      "anonymous": false,
      "inputs": [
        {
          "indexed": false,
          "internalType": "uint256",
          "name": "amount",
          "type": "uint256"
        }
      ],
      "name": "Stake",
      "type": "event"
    },
    {
      "anonymous": false,
      "inputs": [],
      "name": "StrategyUpdatedParams",
      "type": "event"
    },
    {
      "anonymous": false,
      "inputs": [
        {
          "indexed": false,
          "internalType": "uint256",
          "name": "amount",
          "type": "uint256"
        },
        {
          "indexed": false,
          "internalType": "uint256",
          "name": "amountReceived",
          "type": "uint256"
        }
      ],
      "name": "Unstake",
      "type": "event"
    },
    {
      "anonymous": false,
      "inputs": [
        {
          "indexed": true,
          "internalType": "address",
          "name": "implementation",
          "type": "address"
        }
      ],
      "name": "Upgraded",
      "type": "event"
    },
    {
      "inputs": [],
      "name": "DEFAULT_ADMIN_ROLE",
      "outputs": [
        {
          "internalType": "bytes32",
          "name": "",
          "type": "bytes32"
        }
      ],
      "stateMutability": "view",
      "type": "function"
    },
    {
      "inputs": [],
      "name": "PORTFOLIO_AGENT_ROLE",
      "outputs": [
        {
          "internalType": "bytes32",
          "name": "",
          "type": "bytes32"
        }
      ],
      "stateMutability": "view",
      "type": "function"
    },
    {
      "inputs": [],
      "name": "PORTFOLIO_MANAGER",
      "outputs": [
        {
          "internalType": "bytes32",
          "name": "",
          "type": "bytes32"
        }
      ],
      "stateMutability": "view",
      "type": "function"
    },
    {
      "inputs": [],
      "name": "busd",
      "outputs": [
        {
          "internalType": "contract IERC20",
          "name": "",
          "type": "address"
        }
      ],
      "stateMutability": "view",
      "type": "function"
    },
    {
      "inputs": [
        {
          "internalType": "address",
          "name": "_to",
          "type": "address"
        }
      ],
      "name": "claimRewards",
      "outputs": [
        {
          "internalType": "uint256",
          "name": "",
          "type": "uint256"
        }
      ],
      "stateMutability": "nonpayable",
      "type": "function"
    },
    {
      "inputs": [
        {
          "internalType": "bytes32",
          "name": "role",
          "type": "bytes32"
        }
      ],
      "name": "getRoleAdmin",
      "outputs": [
        {
          "internalType": "bytes32",
          "name": "",
          "type": "bytes32"
        }
      ],
      "stateMutability": "view",
      "type": "function"
    },
    {
      "inputs": [
        {
          "internalType": "bytes32",
          "name": "role",
          "type": "bytes32"
        },
        {
          "internalType": "address",
          "name": "account",
          "type": "address"
        }
      ],
      "name": "grantRole",
      "outputs": [],
      "stateMutability": "nonpayable",
      "type": "function"
    },
    {
      "inputs": [
        {
          "internalType": "bytes32",
          "name": "role",
          "type": "bytes32"
        },
        {
          "internalType": "address",
          "name": "account",
          "type": "address"
        }
      ],
      "name": "hasRole",
      "outputs": [
        {
          "internalType": "bool",
          "name": "",
          "type": "bool"
        }
      ],
      "stateMutability": "view",
      "type": "function"
    },
    {
      "inputs": [],
      "name": "initialize",
      "outputs": [],
      "stateMutability": "nonpayable",
      "type": "function"
    },
    {
      "inputs": [],
      "name": "liquidationValue",
      "outputs": [
        {
          "internalType": "uint256",
          "name": "",
          "type": "uint256"
        }
      ],
      "stateMutability": "view",
      "type": "function"
    },
    {
      "inputs": [],
      "name": "lpUsdt",
      "outputs": [
        {
          "internalType": "contract IAsset",
          "name": "",
          "type": "address"
        }
      ],
      "stateMutability": "view",
      "type": "function"
    },
    {
      "inputs": [],
      "name": "lpUsdtDm",
      "outputs": [
        {
          "internalType": "uint256",
          "name": "",
          "type": "uint256"
        }
      ],
      "stateMutability": "view",
      "type": "function"
    },
    {
      "inputs": [],
      "name": "navSlippageBP",
      "outputs": [
        {
          "internalType": "uint256",
          "name": "",
          "type": "uint256"
        }
      ],
      "stateMutability": "view",
      "type": "function"
    },
    {
      "inputs": [],
      "name": "netAssetValue",
      "outputs": [
        {
          "internalType": "uint256",
          "name": "",
          "type": "uint256"
        }
      ],
      "stateMutability": "view",
      "type": "function"
    },
    {
      "inputs": [],
      "name": "pancakeRouter",
      "outputs": [
        {
          "internalType": "contract IPancakeRouter02",
          "name": "",
          "type": "address"
        }
      ],
      "stateMutability": "view",
      "type": "function"
    },
    {
      "inputs": [],
      "name": "pool",
      "outputs": [
        {
          "internalType": "address",
          "name": "",
          "type": "address"
        }
      ],
      "stateMutability": "view",
      "type": "function"
    },
    {
      "inputs": [],
      "name": "poolDepositor",
      "outputs": [
        {
          "internalType": "contract IPoolDepositor",
          "name": "",
          "type": "address"
        }
      ],
      "stateMutability": "view",
      "type": "function"
    },
    {
      "inputs": [],
      "name": "portfolioManager",
      "outputs": [
        {
          "internalType": "address",
          "name": "",
          "type": "address"
        }
      ],
      "stateMutability": "view",
      "type": "function"
    },
    {
      "inputs": [],
      "name": "proxiableUUID",
      "outputs": [
        {
          "internalType": "bytes32",
          "name": "",
          "type": "bytes32"
        }
      ],
      "stateMutability": "view",
      "type": "function"
    },
    {
      "inputs": [
        {
          "internalType": "bytes32",
          "name": "role",
          "type": "bytes32"
        },
        {
          "internalType": "address",
          "name": "account",
          "type": "address"
        }
      ],
      "name": "renounceRole",
      "outputs": [],
      "stateMutability": "nonpayable",
      "type": "function"
    },
    {
      "inputs": [
        {
          "internalType": "bytes32",
          "name": "role",
          "type": "bytes32"
        },
        {
          "internalType": "address",
          "name": "account",
          "type": "address"
        }
      ],
      "name": "revokeRole",
      "outputs": [],
      "stateMutability": "nonpayable",
      "type": "function"
    },
    {
      "inputs": [
        {
          "components": [
            {
              "internalType": "address",
              "name": "usdt",
              "type": "address"
            },
            {
              "internalType": "address",
              "name": "busd",
              "type": "address"
            },
            {
              "internalType": "address",
              "name": "wom",
              "type": "address"
            },
            {
              "internalType": "address",
              "name": "wmx",
              "type": "address"
            },
            {
              "internalType": "address",
              "name": "lpUsdt",
              "type": "address"
            },
            {
              "internalType": "address",
              "name": "wmxLpUsdt",
              "type": "address"
            },
            {
              "internalType": "address",
              "name": "poolDepositor",
              "type": "address"
            },
            {
              "internalType": "address",
              "name": "pool",
              "type": "address"
            },
            {
              "internalType": "address",
              "name": "pancakeRouter",
              "type": "address"
            }
          ],
          "internalType": "struct StrategyWombexUsdt.StrategyParams",
          "name": "params",
          "type": "tuple"
        }
      ],
      "name": "setParams",
      "outputs": [],
      "stateMutability": "nonpayable",
      "type": "function"
    },
    {
      "inputs": [
        {
          "internalType": "address",
          "name": "_value",
          "type": "address"
        }
      ],
      "name": "setPortfolioManager",
      "outputs": [],
      "stateMutability": "nonpayable",
      "type": "function"
    },
    {
      "inputs": [
        {
          "internalType": "uint256",
          "name": "_swapSlippageBP",
          "type": "uint256"
        },
        {
          "internalType": "uint256",
          "name": "_navSlippageBP",
          "type": "uint256"
        },
        {
          "internalType": "uint256",
          "name": "_stakeSlippageBP",
          "type": "uint256"
        }
      ],
      "name": "setSlippages",
      "outputs": [],
      "stateMutability": "nonpayable",
      "type": "function"
    },
    {
      "inputs": [
        {
          "internalType": "address",
          "name": "_asset",
          "type": "address"
        },
        {
          "internalType": "uint256",
          "name": "_amount",
          "type": "uint256"
        }
      ],
      "name": "stake",
      "outputs": [],
      "stateMutability": "nonpayable",
      "type": "function"
    },
    {
      "inputs": [],
      "name": "stakeSlippageBP",
      "outputs": [
        {
          "internalType": "uint256",
          "name": "",
          "type": "uint256"
        }
      ],
      "stateMutability": "view",
      "type": "function"
    },
    {
      "inputs": [
        {
          "internalType": "bytes4",
          "name": "interfaceId",
          "type": "bytes4"
        }
      ],
      "name": "supportsInterface",
      "outputs": [
        {
          "internalType": "bool",
          "name": "",
          "type": "bool"
        }
      ],
      "stateMutability": "view",
      "type": "function"
    },
    {
      "inputs": [],
      "name": "swapSlippageBP",
      "outputs": [
        {
          "internalType": "uint256",
          "name": "",
          "type": "uint256"
        }
      ],
      "stateMutability": "view",
      "type": "function"
    },
    {
      "inputs": [
        {
          "internalType": "address",
          "name": "_asset",
          "type": "address"
        },
        {
          "internalType": "uint256",
          "name": "_amount",
          "type": "uint256"
        },
        {
          "internalType": "address",
          "name": "_beneficiary",
          "type": "address"
        },
        {
          "internalType": "bool",
          "name": "_targetIsZero",
          "type": "bool"
        }
      ],
      "name": "unstake",
      "outputs": [
        {
          "internalType": "uint256",
          "name": "",
          "type": "uint256"
        }
      ],
      "stateMutability": "nonpayable",
      "type": "function"
    },
    {
      "inputs": [
        {
          "internalType": "address",
          "name": "newImplementation",
          "type": "address"
        }
      ],
      "name": "upgradeTo",
      "outputs": [],
      "stateMutability": "nonpayable",
      "type": "function"
    },
    {
      "inputs": [
        {
          "internalType": "address",
          "name": "newImplementation",
          "type": "address"
        },
        {
          "internalType": "bytes",
          "name": "data",
          "type": "bytes"
        }
      ],
      "name": "upgradeToAndCall",
      "outputs": [],
      "stateMutability": "payable",
      "type": "function"
    },
    {
      "inputs": [],
      "name": "usdt",
      "outputs": [
        {
          "internalType": "contract IERC20",
          "name": "",
          "type": "address"
        }
      ],
      "stateMutability": "view",
      "type": "function"
    },
    {
      "inputs": [],
      "name": "wmx",
      "outputs": [
        {
          "internalType": "contract IERC20",
          "name": "",
          "type": "address"
        }
      ],
      "stateMutability": "view",
      "type": "function"
    },
    {
      "inputs": [],
      "name": "wmxLpUsdt",
      "outputs": [
        {
          "internalType": "contract IBaseRewardPool",
          "name": "",
          "type": "address"
        }
      ],
      "stateMutability": "view",
      "type": "function"
    },
    {
      "inputs": [],
      "name": "wom",
      "outputs": [
        {
          "internalType": "contract IERC20",
          "name": "",
          "type": "address"
        }
      ],
      "stateMutability": "view",
      "type": "function"
    }
  ],
  "numDeployments": 1,
  "solcInputHash": "38676570e92d1c6c0462f0bf4298c70e",
  "bytecode": "0x60a06040523060601b6080523480156200001857600080fd5b50600054610100900460ff16158080156200003a5750600054600160ff909116105b806200006a575062000057306200014460201b620015a61760201c565b1580156200006a575060005460ff166001145b620000d25760405162461bcd60e51b815260206004820152602e60248201527f496e697469616c697a61626c653a20636f6e747261637420697320616c72656160448201526d191e481a5b9a5d1a585b1a5e995960921b606482015260840160405180910390fd5b6000805460ff191660011790558015620000f6576000805461ff0019166101001790555b80156200013d576000805461ff0019169055604051600181527f7f26b83ff96e1f2b6a682f133852f6798a09c465da95921460cefb38474024989060200160405180910390a15b5062000153565b6001600160a01b03163b151590565b60805160601c6136f66200018e60003960008181610753015281816107930152818161083301528181610873015261090201526136f66000f3fe6080604052600436106102045760003560e01c80637d5f580211610118578063bd25c6db116100a0578063ce8383361161006f578063ce838336146105b4578063d44f49c9146105d5578063d547741f146105f5578063ef5cfb8c14610615578063f6f6b8811461063557600080fd5b8063bd25c6db1461053b578063bf52e0801461055c578063c21ebd0714610572578063c5a6222e1461059357600080fd5b8063a3673b38116100e7578063a3673b38146102ec578063a440b21a146104ba578063adc9772e146104da578063ae30c110146104fa578063b57075a51461051a57600080fd5b80637d5f58021461044e5780638129fc1c1461047057806391d1485414610485578063a217fddf146104a557600080fd5b806334df87e71161019b5780634f1ef2861161016a5780634f1ef286146103bc57806352d1902d146103cf5780635ca558f8146103e45780635dbd733a146103fa578063620b75df1461042e57600080fd5b806334df87e71461034457806336568abe1461035b5780633659cfe61461037b5780633ca5b2341461039b57600080fd5b8063248a9ca3116101d7578063248a9ca3146102bc5780632576e65a146102ec5780632f2ff15d146103015780632f48ab7d1461032357600080fd5b806301ffc9a714610209578063083975d41461023e578063119cd8791461027757806316f0115b1461029b575b600080fd5b34801561021557600080fd5b506102296102243660046130b5565b610655565b60405190151581526020015b60405180910390f35b34801561024a57600080fd5b506101305461025f906001600160a01b031681565b6040516001600160a01b039091168152602001610235565b34801561028357600080fd5b5061028d60fd5481565b604051908152602001610235565b3480156102a757600080fd5b506101345461025f906001600160a01b031681565b3480156102c857600080fd5b5061028d6102d7366004613057565b60009081526065602052604090206001015490565b3480156102f857600080fd5b5061028d61068c565b34801561030d57600080fd5b5061032161031c366004613089565b61069b565b005b34801561032f57600080fd5b5061012d5461025f906001600160a01b031681565b34801561035057600080fd5b5061028d6101365481565b34801561036757600080fd5b50610321610376366004613089565b6106c5565b34801561038757600080fd5b50610321610396366004612e53565b610748565b3480156103a757600080fd5b5061012e5461025f906001600160a01b031681565b6103216103ca366004612e6e565b610828565b3480156103db57600080fd5b5061028d6108f5565b3480156103f057600080fd5b5061028d60fe5481565b34801561040657600080fd5b5061028d7fd67ad422505496469a1adf6cdf9e5ee92ac5d33992843c9ecc4b2f6d6cde913781565b34801561043a57600080fd5b5060fb5461025f906001600160a01b031681565b34801561045a57600080fd5b5061028d60008051602061365a83398151915281565b34801561047c57600080fd5b506103216109a8565b34801561049157600080fd5b506102296104a0366004613089565b610a72565b3480156104b157600080fd5b5061028d600081565b3480156104c657600080fd5b506103216104d5366004612e53565b610a9d565b3480156104e657600080fd5b506103216104f5366004612f14565b610bcc565b34801561050657600080fd5b50610321610515366004613116565b610dfc565b34801561052657600080fd5b506101325461025f906001600160a01b031681565b34801561054757600080fd5b506101335461025f906001600160a01b031681565b34801561056857600080fd5b5061028d60fc5481565b34801561057e57600080fd5b506101355461025f906001600160a01b031681565b34801561059f57600080fd5b5061012f5461025f906001600160a01b031681565b3480156105c057600080fd5b506101315461025f906001600160a01b031681565b3480156105e157600080fd5b506103216105f03660046130df565b610f71565b34801561060157600080fd5b50610321610610366004613089565b611233565b34801561062157600080fd5b5061028d610630366004612e53565b611258565b34801561064157600080fd5b5061028d610650366004612f3e565b6112dd565b60006001600160e01b03198216637965db0b60e01b148061068657506301ffc9a760e01b6001600160e01b03198316145b92915050565b60006106966115b5565b905090565b6000828152606560205260409020600101546106b681611762565b6106c0838361176c565b505050565b6001600160a01b038116331461073a5760405162461bcd60e51b815260206004820152602f60248201527f416363657373436f6e74726f6c3a2063616e206f6e6c792072656e6f756e636560448201526e103937b632b9903337b91039b2b63360891b60648201526084015b60405180910390fd5b61074482826117f2565b5050565b306001600160a01b037f00000000000000000000000000000000000000000000000000000000000000001614156107915760405162461bcd60e51b8152600401610731906132bd565b7f00000000000000000000000000000000000000000000000000000000000000006001600160a01b03166107da60008051602061367a833981519152546001600160a01b031690565b6001600160a01b0316146108005760405162461bcd60e51b815260040161073190613309565b61080981611859565b6040805160008082526020820190925261082591839190611864565b50565b306001600160a01b037f00000000000000000000000000000000000000000000000000000000000000001614156108715760405162461bcd60e51b8152600401610731906132bd565b7f00000000000000000000000000000000000000000000000000000000000000006001600160a01b03166108ba60008051602061367a833981519152546001600160a01b031690565b6001600160a01b0316146108e05760405162461bcd60e51b815260040161073190613309565b6108e982611859565b61074482826001611864565b6000306001600160a01b037f000000000000000000000000000000000000000000000000000000000000000016146109955760405162461bcd60e51b815260206004820152603860248201527f555550535570677261646561626c653a206d757374206e6f742062652063616c60448201527f6c6564207468726f7567682064656c656761746563616c6c00000000000000006064820152608401610731565b5060008051602061367a83398151915290565b600054610100900460ff16158080156109c85750600054600160ff909116105b806109e25750303b1580156109e2575060005460ff166001145b6109fe5760405162461bcd60e51b815260040161073190613355565b6000805460ff191660011790558015610a21576000805461ff0019166101001790555b610a296119de565b8015610825576000805461ff0019169055604051600181527f7f26b83ff96e1f2b6a682f133852f6798a09c465da95921460cefb3847402498906020015b60405180910390a150565b60009182526065602090815260408084206001600160a01b0393909316845291905290205460ff1690565b610aa8600033610a72565b610aeb5760405162461bcd60e51b81526020600482015260146024820152735265737472696374656420746f2061646d696e7360601b6044820152606401610731565b6001600160a01b038116610b415760405162461bcd60e51b815260206004820152601860248201527f5a65726f2061646472657373206e6f7420616c6c6f77656400000000000000006044820152606401610731565b60fb54610b669060008051602061365a833981519152906001600160a01b0316611233565b610b7e60008051602061365a8339815191528261069b565b60fb80546001600160a01b0319166001600160a01b0383169081179091556040519081527ff7b449fcd5cfb7379dcd34cb69428dd9f882033b15be33d83b42d91daa28eeb790602001610a67565b610be460008051602061365a83398151915233610a72565b610c005760405162461bcd60e51b815260040161073190613286565b6000610c7e306001600160a01b031663a3673b386040518163ffffffff1660e01b815260040160206040518083038186803b158015610c3e57600080fd5b505afa158015610c52573d6000803e3d6000fd5b505050506040513d601f19601f82011682018060405250810190610c769190613070565b60fd54611ac3565b6040516370a0823160e01b8152306004820152909150610d039084906001600160a01b038216906370a082319060240160206040518083038186803b158015610cc657600080fd5b505afa158015610cda573d6000803e3d6000fd5b505050506040513d601f19601f82011682018060405250810190610cfe9190613070565b611aed565b80306001600160a01b031663a3673b386040518163ffffffff1660e01b815260040160206040518083038186803b158015610d3d57600080fd5b505afa158015610d51573d6000803e3d6000fd5b505050506040513d601f19601f82011682018060405250810190610d759190613070565b1015610dc35760405162461bcd60e51b815260206004820152601f60248201527f5374726174656779204e4156206c657373207468616e206578706563746564006044820152606401610731565b6040518281527f227a473b70d2f893cc7659219575c030a63b5743024fe1e0c1a680e708b1525a906020015b60405180910390a1505050565b610e267fd67ad422505496469a1adf6cdf9e5ee92ac5d33992843c9ecc4b2f6d6cde913733610a72565b80610ecd575060fb54604051632474521560e21b81527fd67ad422505496469a1adf6cdf9e5ee92ac5d33992843c9ecc4b2f6d6cde913760048201523360248201526001600160a01b03909116906391d148549060440160206040518083038186803b158015610e9557600080fd5b505afa158015610ea9573d6000803e3d6000fd5b505050506040513d601f19601f82011682018060405250810190610ecd919061303a565b610f245760405162461bcd60e51b815260206004820152602260248201527f5265737472696374656420746f20504f5254464f4c494f5f4147454e545f524f6044820152614c4560f01b6064820152608401610731565b60fc83905560fd82905560fe81905560408051848152602081018490529081018290527f116fbf1e97a2be629ad98abfb6c332733c8996c2dfb174dd2efe8440df381d1a90606001610def565b610f7c600033610a72565b610fbf5760405162461bcd60e51b81526020600482015260146024820152735265737472696374656420746f2061646d696e7360601b6044820152606401610731565b610fcc6020820182612e53565b61012d80546001600160a01b0319166001600160a01b0392909216919091179055610ffd6040820160208301612e53565b61012e80546001600160a01b0319166001600160a01b039290921691909117905561102e6060820160408301612e53565b61012f80546001600160a01b0319166001600160a01b039290921691909117905561105f6080820160608301612e53565b61013080546001600160a01b0319166001600160a01b039290921691909117905561109060a0820160808301612e53565b61013180546001600160a01b0319166001600160a01b03929092169190911790556110c160c0820160a08301612e53565b61013280546001600160a01b0319166001600160a01b03929092169190911790556110f260e0820160c08301612e53565b61013380546001600160a01b0319166001600160a01b0392909216919091179055611124610100820160e08301612e53565b61013480546001600160a01b0319166001600160a01b039290921691909117905561115761012082016101008301612e53565b61013580546001600160a01b0319166001600160a01b039290921691909117905561118860a0820160808301612e53565b6001600160a01b031663313ce5676040518163ffffffff1660e01b815260040160206040518083038186803b1580156111c057600080fd5b505afa1580156111d4573d6000803e3d6000fd5b505050506040513d601f19601f820116820180604052508101906111f89190613142565b61120390600a6134e5565b610136556040517fea5646eb3528e525944447a4a97de700dd472298626e5c0481d1c82c3da86ea590600090a150565b60008281526065602052604090206001015461124e81611762565b6106c083836117f2565b600061127260008051602061365a83398151915233610a72565b61128e5760405162461bcd60e51b815260040161073190613286565b600061129983611d42565b905080156112d5576040518181527f3ac0594a85a20354f9dc74f33728416d19ce00d04a406c108cc2dcf2cecea1349060200160405180910390a15b90505b919050565b60006112f760008051602061365a83398151915233610a72565b6113135760405162461bcd60e51b815260040161073190613286565b6000611351306001600160a01b031663a3673b386040518163ffffffff1660e01b815260040160206040518083038186803b158015610c3e57600080fd5b905060008084156113785761136586611d42565b90506113718887612103565b91506113e7565b611383888888612462565b9150868210156113e75760405162461bcd60e51b815260206004820152602960248201527f52657475726e65642076616c7565206c657373207468616e2072657175657374604482015268195908185b5bdd5b9d60ba1b6064820152608401610731565b82306001600160a01b031663a3673b386040518163ffffffff1660e01b815260040160206040518083038186803b15801561142157600080fd5b505afa158015611435573d6000803e3d6000fd5b505050506040513d601f19601f820116820180604052508101906114599190613070565b10156114a75760405162461bcd60e51b815260206004820152601f60248201527f5374726174656779204e4156206c657373207468616e206578706563746564006044820152606401610731565b60405163a9059cbb60e01b81526001600160a01b0389169063a9059cbb906114d5908990869060040161323a565b602060405180830381600087803b1580156114ef57600080fd5b505af1158015611503573d6000803e3d6000fd5b505050506040513d601f19601f82011682018060405250810190611527919061303a565b5060408051888152602081018490527f9045c2ac9b2026de8075f2701bbdde882cd5e830b3b1ead9a15b22f2b5b93742910160405180910390a1801561159b576040518181527f3ac0594a85a20354f9dc74f33728416d19ce00d04a406c108cc2dcf2cecea1349060200160405180910390a15b509695505050505050565b6001600160a01b03163b151590565b61012d546040516370a0823160e01b815230600482015260009182916001600160a01b03909116906370a082319060240160206040518083038186803b1580156115fe57600080fd5b505afa158015611612573d6000803e3d6000fd5b505050506040513d601f19601f820116820180604052508101906116369190613070565b610132546040516370a0823160e01b81523060048201529192506000916001600160a01b03909116906370a082319060240160206040518083038186803b15801561168057600080fd5b505afa158015611694573d6000803e3d6000fd5b505050506040513d601f19601f820116820180604052508101906116b89190613070565b9050801561175c57610133546101315460405163135dbd1360e01b81526000926001600160a01b039081169263135dbd13926116fc9290911690869060040161323a565b604080518083038186803b15801561171357600080fd5b505afa158015611727573d6000803e3d6000fd5b505050506040513d601f19601f8201168201806040525081019061174b91906130f2565b5090506117588184613468565b9250505b50919050565b6108258133612637565b6117768282610a72565b6107445760008281526065602090815260408083206001600160a01b03851684529091529020805460ff191660011790556117ae3390565b6001600160a01b0316816001600160a01b0316837f2f8788117e7eff1d82e926ec794901d17c78024a50270940304540a733656f0d60405160405180910390a45050565b6117fc8282610a72565b156107445760008281526065602090815260408083206001600160a01b0385168085529252808320805460ff1916905551339285917ff6391f5c32d9c69d2a47ea670b442974b53935d1edc7fd64eb21e047a839171b9190a45050565b600061074481611762565b7f4910fdfa16fed3260ed0e7147f7cc6da11a60208b5b9406d12a635614ffd91435460ff1615611897576106c083612690565b826001600160a01b03166352d1902d6040518163ffffffff1660e01b815260040160206040518083038186803b1580156118d057600080fd5b505afa925050508015611900575060408051601f3d908101601f191682019092526118fd91810190613070565b60015b6119635760405162461bcd60e51b815260206004820152602e60248201527f45524331393637557067726164653a206e657720696d706c656d656e7461746960448201526d6f6e206973206e6f74205555505360901b6064820152608401610731565b60008051602061367a83398151915281146119d25760405162461bcd60e51b815260206004820152602960248201527f45524331393637557067726164653a20756e737570706f727465642070726f786044820152681a58589b195555525160ba1b6064820152608401610731565b506106c083838361272c565b600054610100900460ff16158080156119fe5750600054600160ff909116105b80611a185750303b158015611a18575060005460ff166001145b611a345760405162461bcd60e51b815260040161073190613355565b6000805460ff191660011790558015611a57576000805461ff0019166101001790555b611a5f612757565b611a67612757565b611a7260003361176c565b601460fc81905560fd55600460fe558015610825576000805461ff0019169055604051600181527f7f26b83ff96e1f2b6a682f133852f6798a09c465da95921460cefb384740249890602001610a67565b6000612710611ad283826135af565b611adc9085613590565b611ae69190613480565b9392505050565b61012d546001600160a01b03838116911614611b1b5760405162461bcd60e51b8152600401610731906133a3565b61012d546040516370a0823160e01b81523060048201526000916001600160a01b0316906370a082319060240160206040518083038186803b158015611b6057600080fd5b505afa158015611b74573d6000803e3d6000fd5b505050506040513d601f19601f82011682018060405250810190611b989190613070565b6101335461013154604051630650739d60e41b81529293506000926001600160a01b039283169263650739d092611bd692911690869060040161323a565b604080518083038186803b158015611bed57600080fd5b505afa158015611c01573d6000803e3d6000fd5b505050506040513d601f19601f82011682018060405250810190611c2591906130f2565b5090506000611c368260fe54611ac3565b61012d546101335460405163095ea7b360e01b81529293506001600160a01b039182169263095ea7b392611c70921690879060040161323a565b602060405180830381600087803b158015611c8a57600080fd5b505af1158015611c9e573d6000803e3d6000fd5b505050506040513d601f19601f82011682018060405250810190611cc2919061303a565b506101335461013154604051633f90794960e21b81526001600160a01b03918216600482015260248101869052604481018490526001606482015291169063fe41e52490608401600060405180830381600087803b158015611d2357600080fd5b505af1158015611d37573d6000803e3d6000fd5b505050505050505050565b610132546040516370a0823160e01b815230600482015260009182916001600160a01b03909116906370a082319060240160206040518083038186803b158015611d8b57600080fd5b505afa158015611d9f573d6000803e3d6000fd5b505050506040513d601f19601f82011682018060405250810190611dc39190613070565b90508015611e525761013254604051637050ccd960e01b8152306004820152600060248201526001600160a01b0390911690637050ccd990604401602060405180830381600087803b158015611e1857600080fd5b505af1158015611e2c573d6000803e3d6000fd5b505050506040513d601f19601f82011682018060405250810190611e50919061303a565b505b61012f546040516370a0823160e01b815230600482015260009182916001600160a01b03909116906370a082319060240160206040518083038186803b158015611e9b57600080fd5b505afa158015611eaf573d6000803e3d6000fd5b505050506040513d601f19601f82011682018060405250810190611ed39190613070565b90508015611f69576101355461012f5461012e5461012d54600093611f0d936001600160a01b0391821693908216929082169116866127c4565b90508015611f67576101355461012f5461012e5461012d54611f5a936001600160a01b039081169381169281169116866064611f4a886063613590565b611f549190613480565b30612923565b611f649084613468565b92505b505b610130546040516370a0823160e01b81523060048201526000916001600160a01b0316906370a082319060240160206040518083038186803b158015611fae57600080fd5b505afa158015611fc2573d6000803e3d6000fd5b505050506040513d601f19601f82011682018060405250810190611fe69190613070565b9050801561206c57610135546101305461012e5461012d54600093612020936001600160a01b0391821693908216929082169116866127c4565b9050801561206a57610135546101305461012e5461012d5461205d936001600160a01b039081169381169281169116866064611f4a886063613590565b6120679085613468565b93505b505b82156120f95761012d5460405163a9059cbb60e01b81526001600160a01b039091169063a9059cbb906120a5908990879060040161323a565b602060405180830381600087803b1580156120bf57600080fd5b505af11580156120d3573d6000803e3d6000fd5b505050506040513d601f19601f820116820180604052508101906120f7919061303a565b505b5090949350505050565b61012d546000906001600160a01b038481169116146121345760405162461bcd60e51b8152600401610731906133a3565b610132546040516370a0823160e01b81523060048201526000916001600160a01b0316906370a082319060240160206040518083038186803b15801561217957600080fd5b505afa15801561218d573d6000803e3d6000fd5b505050506040513d601f19601f820116820180604052508101906121b19190613070565b90508061223c5761012d546040516370a0823160e01b81523060048201526001600160a01b03909116906370a082319060240160206040518083038186803b1580156121fc57600080fd5b505afa158015612210573d6000803e3d6000fd5b505050506040513d601f19601f820116820180604052508101906122349190613070565b915050610686565b610133546101315460405163135dbd1360e01b81526000926001600160a01b039081169263135dbd13926122789290911690869060040161323a565b604080518083038186803b15801561228f57600080fd5b505afa1580156122a3573d6000803e3d6000fd5b505050506040513d601f19601f820116820180604052508101906122c791906130f2565b50905060006122d88260fe54611ac3565b610132546101335460405163095ea7b360e01b81529293506001600160a01b039182169263095ea7b392612312921690879060040161323a565b602060405180830381600087803b15801561232c57600080fd5b505af1158015612340573d6000803e3d6000fd5b505050506040513d601f19601f82011682018060405250810190612364919061303a565b5061013354610131546040516316762eed60e01b81526001600160a01b03918216600482015260248101869052604481018490523060648201529116906316762eed90608401600060405180830381600087803b1580156123c457600080fd5b505af11580156123d8573d6000803e3d6000fd5b505061012d546040516370a0823160e01b81523060048201526001600160a01b0390911692506370a08231915060240160206040518083038186803b15801561242057600080fd5b505afa158015612434573d6000803e3d6000fd5b505050506040513d601f19601f820116820180604052508101906124589190613070565b9695505050505050565b61012d546000906001600160a01b038581169116146124935760405162461bcd60e51b8152600401610731906133a3565b61013354610131546101365460405163135dbd1360e01b81526000936001600160a01b039081169363135dbd13936124d293929091169160040161323a565b604080518083038186803b1580156124e957600080fd5b505afa1580156124fd573d6000803e3d6000fd5b505050506040513d601f19601f8201168201806040525081019061252191906130f2565b509050600081610136546125378760fe54612b0d565b6125419190613590565b61254b9190613480565b610132546101335460405163095ea7b360e01b81529293506001600160a01b039182169263095ea7b392612585921690859060040161323a565b602060405180830381600087803b15801561259f57600080fd5b505af11580156125b3573d6000803e3d6000fd5b505050506040513d601f19601f820116820180604052508101906125d7919061303a565b5061013354610131546040516316762eed60e01b81526001600160a01b03918216600482015260248101849052604481018890523060648201529116906316762eed90608401600060405180830381600087803b1580156123c457600080fd5b6126418282610a72565b6107445761264e81612b1c565b612659836020612b2e565b60405160200161266a9291906131c5565b60408051601f198184030181529082905262461bcd60e51b825261073191600401613253565b6001600160a01b0381163b6126fd5760405162461bcd60e51b815260206004820152602d60248201527f455243313936373a206e657720696d706c656d656e746174696f6e206973206e60448201526c1bdd08184818dbdb9d1c9858dd609a1b6064820152608401610731565b60008051602061367a83398151915280546001600160a01b0319166001600160a01b0392909216919091179055565b61273583612cca565b6000825111806127425750805b156106c0576127518383612d0a565b50505050565b600054610100900460ff166127c25760405162461bcd60e51b815260206004820152602b60248201527f496e697469616c697a61626c653a20636f6e7472616374206973206e6f74206960448201526a6e697469616c697a696e6760a81b6064820152608401610731565b565b604080516003808252608082019092526000918291906020820160608036833701905050905085816000815181106127fe576127fe61361f565b60200260200101906001600160a01b031690816001600160a01b03168152505084816001815181106128325761283261361f565b60200260200101906001600160a01b031690816001600160a01b03168152505083816002815181106128665761286661361f565b6001600160a01b03928316602091820292909201015260405163d06ca61f60e01b815260009189169063d06ca61f906128a590879086906004016133da565b60006040518083038186803b1580156128bd57600080fd5b505afa1580156128d1573d6000803e3d6000fd5b505050506040513d6000823e601f3d908101601f191682016040526128f99190810190612f8d565b90508060028151811061290e5761290e61361f565b60200260200101519250505095945050505050565b60405163095ea7b360e01b81526000906001600160a01b0388169063095ea7b390612954908b90889060040161323a565b602060405180830381600087803b15801561296e57600080fd5b505af1158015612982573d6000803e3d6000fd5b505050506040513d601f19601f820116820180604052508101906129a6919061303a565b50604080516003808252608082019092526000916020820160608036833701905050905087816000815181106129de576129de61361f565b60200260200101906001600160a01b031690816001600160a01b0316815250508681600181518110612a1257612a1261361f565b60200260200101906001600160a01b031690816001600160a01b0316815250508581600281518110612a4657612a4661361f565b6001600160a01b0392831660209182029290920101526040516338ed173960e01b81526000918b16906338ed173990612a8b908990899087908a9042906004016133fb565b600060405180830381600087803b158015612aa557600080fd5b505af1158015612ab9573d6000803e3d6000fd5b505050506040513d6000823e601f3d908101601f19168201604052612ae19190810190612f8d565b905080600281518110612af657612af661361f565b602002602001015192505050979650505050505050565b6000612710611ad28382613468565b60606106866001600160a01b03831660145b60606000612b3d836002613590565b612b48906002613468565b67ffffffffffffffff811115612b6057612b60613635565b6040519080825280601f01601f191660200182016040528015612b8a576020820181803683370190505b509050600360fc1b81600081518110612ba557612ba561361f565b60200101906001600160f81b031916908160001a905350600f60fb1b81600181518110612bd457612bd461361f565b60200101906001600160f81b031916908160001a9053506000612bf8846002613590565b612c03906001613468565b90505b6001811115612c7b576f181899199a1a9b1b9c1cb0b131b232b360811b85600f1660108110612c3757612c3761361f565b1a60f81b828281518110612c4d57612c4d61361f565b60200101906001600160f81b031916908160001a90535060049490941c93612c74816135f2565b9050612c06565b508315611ae65760405162461bcd60e51b815260206004820181905260248201527f537472696e67733a20686578206c656e67746820696e73756666696369656e746044820152606401610731565b612cd381612690565b6040516001600160a01b038216907fbc7cd75a20ee27fd9adebab32041f755214dbc6bffa90cc0225b39da2e5c2d3b90600090a250565b60606001600160a01b0383163b612d725760405162461bcd60e51b815260206004820152602660248201527f416464726573733a2064656c65676174652063616c6c20746f206e6f6e2d636f6044820152651b9d1c9858dd60d21b6064820152608401610731565b600080846001600160a01b031684604051612d8d91906131a9565b600060405180830381855af49150503d8060008114612dc8576040519150601f19603f3d011682016040523d82523d6000602084013e612dcd565b606091505b5091509150612df5828260405180606001604052806027815260200161369a60279139612dfe565b95945050505050565b60608315612e0d575081611ae6565b611ae68383815115612e225781518083602001fd5b8060405162461bcd60e51b81526004016107319190613253565b80356001600160a01b03811681146112d857600080fd5b600060208284031215612e6557600080fd5b611ae682612e3c565b60008060408385031215612e8157600080fd5b612e8a83612e3c565b915060208084013567ffffffffffffffff80821115612ea857600080fd5b818601915086601f830112612ebc57600080fd5b813581811115612ece57612ece613635565b612ee0601f8201601f19168501613437565b91508082528784828501011115612ef657600080fd5b80848401858401376000848284010152508093505050509250929050565b60008060408385031215612f2757600080fd5b612f3083612e3c565b946020939093013593505050565b60008060008060808587031215612f5457600080fd5b612f5d85612e3c565b935060208501359250612f7260408601612e3c565b91506060850135612f828161364b565b939692955090935050565b60006020808385031215612fa057600080fd5b825167ffffffffffffffff80821115612fb857600080fd5b818501915085601f830112612fcc57600080fd5b815181811115612fde57612fde613635565b8060051b9150612fef848301613437565b8181528481019084860184860187018a101561300a57600080fd5b600095505b8386101561302d57805183526001959095019491860191860161300f565b5098975050505050505050565b60006020828403121561304c57600080fd5b8151611ae68161364b565b60006020828403121561306957600080fd5b5035919050565b60006020828403121561308257600080fd5b5051919050565b6000806040838503121561309c57600080fd5b823591506130ac60208401612e3c565b90509250929050565b6000602082840312156130c757600080fd5b81356001600160e01b031981168114611ae657600080fd5b6000610120828403121561175c57600080fd5b6000806040838503121561310557600080fd5b505080516020909101519092909150565b60008060006060848603121561312b57600080fd5b505081359360208301359350604090920135919050565b60006020828403121561315457600080fd5b815160ff81168114611ae657600080fd5b600081518084526020808501945080840160005b8381101561319e5781516001600160a01b031687529582019590820190600101613179565b509495945050505050565b600082516131bb8184602087016135c6565b9190910192915050565b7f416363657373436f6e74726f6c3a206163636f756e74200000000000000000008152600083516131fd8160178501602088016135c6565b7001034b99036b4b9b9b4b733903937b6329607d1b601791840191820152835161322e8160288401602088016135c6565b01602801949350505050565b6001600160a01b03929092168252602082015260400190565b60208152600082518060208401526132728160408501602087016135c6565b601f01601f19169190910160400192915050565b6020808252601f908201527f5265737472696374656420746f20504f5254464f4c494f5f4d414e4147455200604082015260600190565b6020808252602c908201527f46756e6374696f6e206d7573742062652063616c6c6564207468726f7567682060408201526b19195b1959d85d1958d85b1b60a21b606082015260800190565b6020808252602c908201527f46756e6374696f6e206d7573742062652063616c6c6564207468726f7567682060408201526b6163746976652070726f787960a01b606082015260800190565b6020808252602e908201527f496e697469616c697a61626c653a20636f6e747261637420697320616c72656160408201526d191e481a5b9a5d1a585b1a5e995960921b606082015260800190565b60208082526019908201527f536f6d6520746f6b656e206e6f7420636f6d70617469626c6500000000000000604082015260600190565b8281526040602082015260006133f36040830184613165565b949350505050565b85815284602082015260a06040820152600061341a60a0830186613165565b6001600160a01b0394909416606083015250608001529392505050565b604051601f8201601f1916810167ffffffffffffffff8111828210171561346057613460613635565b604052919050565b6000821982111561347b5761347b613609565b500190565b60008261349d57634e487b7160e01b600052601260045260246000fd5b500490565b600181815b808511156134dd5781600019048211156134c3576134c3613609565b808516156134d057918102915b93841c93908002906134a7565b509250929050565b6000611ae660ff8416836000826134fe57506001610686565b8161350b57506000610686565b8160018114613521576002811461352b57613547565b6001915050610686565b60ff84111561353c5761353c613609565b50506001821b610686565b5060208310610133831016604e8410600b841016171561356a575081810a610686565b61357483836134a2565b806000190482111561358857613588613609565b029392505050565b60008160001904831182151516156135aa576135aa613609565b500290565b6000828210156135c1576135c1613609565b500390565b60005b838110156135e15781810151838201526020016135c9565b838111156127515750506000910152565b60008161360157613601613609565b506000190190565b634e487b7160e01b600052601160045260246000fd5b634e487b7160e01b600052603260045260246000fd5b634e487b7160e01b600052604160045260246000fd5b801515811461082557600080fdfe90c2aa7471c04182221f68e80c07ab1e5946e4c63f8693e14ca40385d529f051360894a13ba1a3210667c828492db98dca3e2076cc3735a920a3ca505d382bbc416464726573733a206c6f772d6c6576656c2064656c65676174652063616c6c206661696c6564a26469706673582212209aa6d1dc7ef81a745f5af03b503d15d6034cd2c47754540ef7d4dee6baeb9a9564736f6c63430008060033",
  "implementation": "0x0f946DCaC86b4a27d5a37d9A7facb976bB971ba7",
  "devdoc": {
    "kind": "dev",
    "methods": {
      "constructor": {
        "custom:oz-upgrades-unsafe-allow": "constructor"
      },
      "getRoleAdmin(bytes32)": {
        "details": "Returns the admin role that controls `role`. See {grantRole} and {revokeRole}. To change a role's admin, use {_setRoleAdmin}."
      },
      "grantRole(bytes32,address)": {
        "details": "Grants `role` to `account`. If `account` had not been already granted `role`, emits a {RoleGranted} event. Requirements: - the caller must have ``role``'s admin role. May emit a {RoleGranted} event."
      },
      "hasRole(bytes32,address)": {
        "details": "Returns `true` if `account` has been granted `role`."
      },
      "proxiableUUID()": {
        "details": "Implementation of the ERC1822 {proxiableUUID} function. This returns the storage slot used by the implementation. It is used to validate the implementation's compatibility when performing an upgrade. IMPORTANT: A proxy pointing at a proxiable contract should not be considered proxiable itself, because this risks bricking a proxy that upgrades to it, by delegating to itself until out of gas. Thus it is critical that this function revert if invoked through a proxy. This is guaranteed by the `notDelegated` modifier."
      },
      "renounceRole(bytes32,address)": {
        "details": "Revokes `role` from the calling account. Roles are often managed via {grantRole} and {revokeRole}: this function's purpose is to provide a mechanism for accounts to lose their privileges if they are compromised (such as when a trusted device is misplaced). If the calling account had been revoked `role`, emits a {RoleRevoked} event. Requirements: - the caller must be `account`. May emit a {RoleRevoked} event."
      },
      "revokeRole(bytes32,address)": {
        "details": "Revokes `role` from `account`. If `account` had been granted `role`, emits a {RoleRevoked} event. Requirements: - the caller must have ``role``'s admin role. May emit a {RoleRevoked} event."
      },
      "supportsInterface(bytes4)": {
        "details": "See {IERC165-supportsInterface}."
      },
      "upgradeTo(address)": {
        "details": "Upgrade the implementation of the proxy to `newImplementation`. Calls {_authorizeUpgrade}. Emits an {Upgraded} event."
      },
      "upgradeToAndCall(address,bytes)": {
        "details": "Upgrade the implementation of the proxy to `newImplementation`, and subsequently execute the function call encoded in `data`. Calls {_authorizeUpgrade}. Emits an {Upgraded} event."
      }
    },
    "version": 1
  },
  "userdoc": {
    "kind": "user",
    "methods": {},
    "version": 1
  },
  "storageLayout": {
    "storage": [
      {
        "astId": 804,
        "contract": "contracts/usdt/StrategyWombexUsdt.sol:StrategyWombexUsdt",
        "label": "_initialized",
        "offset": 0,
        "slot": "0",
        "type": "t_uint8"
      },
      {
        "astId": 807,
        "contract": "contracts/usdt/StrategyWombexUsdt.sol:StrategyWombexUsdt",
        "label": "_initializing",
        "offset": 1,
        "slot": "0",
        "type": "t_bool"
      },
      {
        "astId": 1427,
        "contract": "contracts/usdt/StrategyWombexUsdt.sol:StrategyWombexUsdt",
        "label": "__gap",
        "offset": 0,
        "slot": "1",
        "type": "t_array(t_uint256)50_storage"
      },
      {
        "astId": 1706,
        "contract": "contracts/usdt/StrategyWombexUsdt.sol:StrategyWombexUsdt",
        "label": "__gap",
        "offset": 0,
        "slot": "51",
        "type": "t_array(t_uint256)50_storage"
      },
      {
        "astId": 39,
        "contract": "contracts/usdt/StrategyWombexUsdt.sol:StrategyWombexUsdt",
        "label": "_roles",
        "offset": 0,
        "slot": "101",
        "type": "t_mapping(t_bytes32,t_struct(RoleData)34_storage)"
      },
      {
        "astId": 334,
        "contract": "contracts/usdt/StrategyWombexUsdt.sol:StrategyWombexUsdt",
        "label": "__gap",
        "offset": 0,
        "slot": "102",
        "type": "t_array(t_uint256)49_storage"
      },
      {
        "astId": 786,
        "contract": "contracts/usdt/StrategyWombexUsdt.sol:StrategyWombexUsdt",
        "label": "__gap",
        "offset": 0,
        "slot": "151",
        "type": "t_array(t_uint256)50_storage"
      },
      {
        "astId": 1101,
        "contract": "contracts/usdt/StrategyWombexUsdt.sol:StrategyWombexUsdt",
        "label": "__gap",
        "offset": 0,
        "slot": "201",
        "type": "t_array(t_uint256)50_storage"
      },
      {
        "astId": 13568,
        "contract": "contracts/usdt/StrategyWombexUsdt.sol:StrategyWombexUsdt",
        "label": "portfolioManager",
        "offset": 0,
        "slot": "251",
        "type": "t_address"
      },
      {
        "astId": 13570,
        "contract": "contracts/usdt/StrategyWombexUsdt.sol:StrategyWombexUsdt",
        "label": "swapSlippageBP",
        "offset": 0,
        "slot": "252",
        "type": "t_uint256"
      },
      {
        "astId": 13572,
        "contract": "contracts/usdt/StrategyWombexUsdt.sol:StrategyWombexUsdt",
        "label": "navSlippageBP",
        "offset": 0,
        "slot": "253",
        "type": "t_uint256"
      },
      {
        "astId": 13574,
        "contract": "contracts/usdt/StrategyWombexUsdt.sol:StrategyWombexUsdt",
        "label": "stakeSlippageBP",
        "offset": 0,
        "slot": "254",
        "type": "t_uint256"
      },
      {
        "astId": 13959,
        "contract": "contracts/usdt/StrategyWombexUsdt.sol:StrategyWombexUsdt",
        "label": "__gap",
        "offset": 0,
        "slot": "255",
        "type": "t_array(t_uint256)46_storage"
      },
      {
        "astId": 39811,
        "contract": "contracts/usdt/StrategyWombexUsdt.sol:StrategyWombexUsdt",
        "label": "usdt",
        "offset": 0,
        "slot": "301",
        "type": "t_contract(IERC20)3249"
      },
      {
        "astId": 39814,
        "contract": "contracts/usdt/StrategyWombexUsdt.sol:StrategyWombexUsdt",
        "label": "busd",
        "offset": 0,
        "slot": "302",
        "type": "t_contract(IERC20)3249"
      },
      {
        "astId": 39817,
        "contract": "contracts/usdt/StrategyWombexUsdt.sol:StrategyWombexUsdt",
        "label": "wom",
        "offset": 0,
        "slot": "303",
        "type": "t_contract(IERC20)3249"
      },
      {
        "astId": 39820,
        "contract": "contracts/usdt/StrategyWombexUsdt.sol:StrategyWombexUsdt",
        "label": "wmx",
        "offset": 0,
        "slot": "304",
        "type": "t_contract(IERC20)3249"
      },
      {
        "astId": 39823,
        "contract": "contracts/usdt/StrategyWombexUsdt.sol:StrategyWombexUsdt",
        "label": "lpUsdt",
        "offset": 0,
        "slot": "305",
        "type": "t_contract(IAsset)13107"
      },
      {
        "astId": 39826,
        "contract": "contracts/usdt/StrategyWombexUsdt.sol:StrategyWombexUsdt",
        "label": "wmxLpUsdt",
        "offset": 0,
        "slot": "306",
        "type": "t_contract(IBaseRewardPool)13364"
      },
      {
        "astId": 39829,
        "contract": "contracts/usdt/StrategyWombexUsdt.sol:StrategyWombexUsdt",
        "label": "poolDepositor",
        "offset": 0,
        "slot": "307",
        "type": "t_contract(IPoolDepositor)13409"
      },
      {
        "astId": 39831,
        "contract": "contracts/usdt/StrategyWombexUsdt.sol:StrategyWombexUsdt",
        "label": "pool",
        "offset": 0,
        "slot": "308",
        "type": "t_address"
      },
      {
        "astId": 39834,
        "contract": "contracts/usdt/StrategyWombexUsdt.sol:StrategyWombexUsdt",
        "label": "pancakeRouter",
        "offset": 0,
        "slot": "309",
        "type": "t_contract(IPancakeRouter02)8467"
      },
      {
        "astId": 39836,
        "contract": "contracts/usdt/StrategyWombexUsdt.sol:StrategyWombexUsdt",
        "label": "lpUsdtDm",
        "offset": 0,
        "slot": "310",
        "type": "t_uint256"
      }
    ],
    "types": {
      "t_address": {
        "encoding": "inplace",
        "label": "address",
        "numberOfBytes": "20"
      },
      "t_array(t_uint256)46_storage": {
        "base": "t_uint256",
        "encoding": "inplace",
        "label": "uint256[46]",
        "numberOfBytes": "1472"
      },
      "t_array(t_uint256)49_storage": {
        "base": "t_uint256",
        "encoding": "inplace",
        "label": "uint256[49]",
        "numberOfBytes": "1568"
      },
      "t_array(t_uint256)50_storage": {
        "base": "t_uint256",
        "encoding": "inplace",
        "label": "uint256[50]",
        "numberOfBytes": "1600"
      },
      "t_bool": {
        "encoding": "inplace",
        "label": "bool",
        "numberOfBytes": "1"
      },
      "t_bytes32": {
        "encoding": "inplace",
        "label": "bytes32",
        "numberOfBytes": "32"
      },
      "t_contract(IAsset)13107": {
        "encoding": "inplace",
        "label": "contract IAsset",
        "numberOfBytes": "20"
      },
      "t_contract(IBaseRewardPool)13364": {
        "encoding": "inplace",
        "label": "contract IBaseRewardPool",
        "numberOfBytes": "20"
      },
      "t_contract(IERC20)3249": {
        "encoding": "inplace",
        "label": "contract IERC20",
        "numberOfBytes": "20"
      },
      "t_contract(IPancakeRouter02)8467": {
        "encoding": "inplace",
        "label": "contract IPancakeRouter02",
        "numberOfBytes": "20"
      },
      "t_contract(IPoolDepositor)13409": {
        "encoding": "inplace",
        "label": "contract IPoolDepositor",
        "numberOfBytes": "20"
      },
      "t_mapping(t_address,t_bool)": {
        "encoding": "mapping",
        "key": "t_address",
        "label": "mapping(address => bool)",
        "numberOfBytes": "32",
        "value": "t_bool"
      },
      "t_mapping(t_bytes32,t_struct(RoleData)34_storage)": {
        "encoding": "mapping",
        "key": "t_bytes32",
        "label": "mapping(bytes32 => struct AccessControlUpgradeable.RoleData)",
        "numberOfBytes": "32",
        "value": "t_struct(RoleData)34_storage"
      },
      "t_struct(RoleData)34_storage": {
        "encoding": "inplace",
        "label": "struct AccessControlUpgradeable.RoleData",
        "members": [
          {
            "astId": 31,
            "contract": "contracts/usdt/StrategyWombexUsdt.sol:StrategyWombexUsdt",
            "label": "members",
            "offset": 0,
            "slot": "0",
            "type": "t_mapping(t_address,t_bool)"
          },
          {
            "astId": 33,
            "contract": "contracts/usdt/StrategyWombexUsdt.sol:StrategyWombexUsdt",
            "label": "adminRole",
            "offset": 0,
            "slot": "1",
            "type": "t_bytes32"
          }
        ],
        "numberOfBytes": "64"
      },
      "t_uint256": {
        "encoding": "inplace",
        "label": "uint256",
        "numberOfBytes": "32"
      },
      "t_uint8": {
        "encoding": "inplace",
        "label": "uint8",
        "numberOfBytes": "1"
      }
    }
  }
}