{
  "address": "0x3507F916908bBf806c5041EDB06f059ef9C509d6",
  "abi": [
    {
      "anonymous": false,
      "inputs": [
        {
          "indexed": false,
          "internalType": "address",
          "name": "previousAdmin",
          "type": "address"
        },
        {
          "indexed": false,
          "internalType": "address",
          "name": "newAdmin",
          "type": "address"
        }
      ],
      "name": "AdminChanged",
      "type": "event"
    },
    {
      "anonymous": false,
      "inputs": [
        {
          "indexed": true,
          "internalType": "address",
          "name": "beacon",
          "type": "address"
        }
      ],
      "name": "BeaconUpgraded",
      "type": "event"
    },
    {
      "anonymous": false,
      "inputs": [
        {
          "indexed": false,
          "internalType": "uint8",
          "name": "version",
          "type": "uint8"
        }
      ],
      "name": "Initialized",
      "type": "event"
    },
    {
      "anonymous": false,
      "inputs": [
        {
          "indexed": false,
          "internalType": "uint256[]",
          "name": "amountsIn",
          "type": "uint256[]"
        },
        {
          "indexed": false,
          "internalType": "address[]",
          "name": "tokensIn",
          "type": "address[]"
        }
      ],
      "name": "InputTokens",
      "type": "event"
    },
    {
      "anonymous": false,
      "inputs": [
        {
          "indexed": false,
          "internalType": "uint256[]",
          "name": "amountsOut",
          "type": "uint256[]"
        },
        {
          "indexed": false,
          "internalType": "address[]",
          "name": "tokensOut",
          "type": "address[]"
        }
      ],
      "name": "OutputTokens",
      "type": "event"
    },
    {
      "anonymous": false,
      "inputs": [
        {
          "indexed": false,
          "internalType": "uint256[]",
          "name": "amountsPut",
          "type": "uint256[]"
        },
        {
          "indexed": false,
          "internalType": "address[]",
          "name": "tokensPut",
          "type": "address[]"
        }
      ],
      "name": "PutIntoPool",
      "type": "event"
    },
    {
      "anonymous": false,
      "inputs": [
        {
          "indexed": false,
          "internalType": "uint256[]",
          "name": "amountsReturned",
          "type": "uint256[]"
        },
        {
          "indexed": false,
          "internalType": "address[]",
          "name": "tokensReturned",
          "type": "address[]"
        }
      ],
      "name": "ReturnedToUser",
      "type": "event"
    },
    {
      "anonymous": false,
      "inputs": [
        {
          "indexed": true,
          "internalType": "bytes32",
          "name": "role",
          "type": "bytes32"
        },
        {
          "indexed": true,
          "internalType": "bytes32",
          "name": "previousAdminRole",
          "type": "bytes32"
        },
        {
          "indexed": true,
          "internalType": "bytes32",
          "name": "newAdminRole",
          "type": "bytes32"
        }
      ],
      "name": "RoleAdminChanged",
      "type": "event"
    },
    {
      "anonymous": false,
      "inputs": [
        {
          "indexed": true,
          "internalType": "bytes32",
          "name": "role",
          "type": "bytes32"
        },
        {
          "indexed": true,
          "internalType": "address",
          "name": "account",
          "type": "address"
        },
        {
          "indexed": true,
          "internalType": "address",
          "name": "sender",
          "type": "address"
        }
      ],
      "name": "RoleGranted",
      "type": "event"
    },
    {
      "anonymous": false,
      "inputs": [
        {
          "indexed": true,
          "internalType": "bytes32",
          "name": "role",
          "type": "bytes32"
        },
        {
          "indexed": true,
          "internalType": "address",
          "name": "account",
          "type": "address"
        },
        {
          "indexed": true,
          "internalType": "address",
          "name": "sender",
          "type": "address"
        }
      ],
      "name": "RoleRevoked",
      "type": "event"
    },
    {
      "anonymous": false,
      "inputs": [
        {
          "indexed": false,
          "internalType": "uint256",
          "name": "stakeSlippageBP",
          "type": "uint256"
        }
      ],
      "name": "UpdateSlippages",
      "type": "event"
    },
    {
      "anonymous": false,
      "inputs": [
        {
          "indexed": true,
          "internalType": "address",
          "name": "implementation",
          "type": "address"
        }
      ],
      "name": "Upgraded",
      "type": "event"
    },
    {
      "inputs": [],
      "name": "DEFAULT_ADMIN_ROLE",
      "outputs": [
        {
          "internalType": "bytes32",
          "name": "",
          "type": "bytes32"
        }
      ],
      "stateMutability": "view",
      "type": "function"
    },
    {
      "inputs": [
        {
          "internalType": "address",
          "name": "_gauge",
          "type": "address"
        }
      ],
      "name": "getProportion",
      "outputs": [
        {
          "internalType": "uint256",
          "name": "token0Amount",
          "type": "uint256"
        },
        {
          "internalType": "uint256",
          "name": "token1Amount",
          "type": "uint256"
        },
        {
          "internalType": "uint256",
          "name": "denominator",
          "type": "uint256"
        }
      ],
      "stateMutability": "view",
      "type": "function"
    },
    {
      "inputs": [
        {
          "internalType": "bytes32",
          "name": "role",
          "type": "bytes32"
        }
      ],
      "name": "getRoleAdmin",
      "outputs": [
        {
          "internalType": "bytes32",
          "name": "",
          "type": "bytes32"
        }
      ],
      "stateMutability": "view",
      "type": "function"
    },
    {
      "inputs": [
        {
          "internalType": "bytes32",
          "name": "role",
          "type": "bytes32"
        },
        {
          "internalType": "address",
          "name": "account",
          "type": "address"
        }
      ],
      "name": "grantRole",
      "outputs": [],
      "stateMutability": "nonpayable",
      "type": "function"
    },
    {
      "inputs": [
        {
          "internalType": "bytes32",
          "name": "role",
          "type": "bytes32"
        },
        {
          "internalType": "address",
          "name": "account",
          "type": "address"
        }
      ],
      "name": "hasRole",
      "outputs": [
        {
          "internalType": "bool",
          "name": "",
          "type": "bool"
        }
      ],
      "stateMutability": "view",
      "type": "function"
    },
    {
      "inputs": [],
      "name": "initialize",
      "outputs": [],
      "stateMutability": "nonpayable",
      "type": "function"
    },
    {
      "inputs": [],
      "name": "odosRouter",
      "outputs": [
        {
          "internalType": "address",
          "name": "",
          "type": "address"
        }
      ],
      "stateMutability": "view",
      "type": "function"
    },
    {
      "inputs": [],
      "name": "proxiableUUID",
      "outputs": [
        {
          "internalType": "bytes32",
          "name": "",
          "type": "bytes32"
        }
      ],
      "stateMutability": "view",
      "type": "function"
    },
    {
      "inputs": [
        {
          "internalType": "bytes32",
          "name": "role",
          "type": "bytes32"
        },
        {
          "internalType": "address",
          "name": "account",
          "type": "address"
        }
      ],
      "name": "renounceRole",
      "outputs": [],
      "stateMutability": "nonpayable",
      "type": "function"
    },
    {
      "inputs": [
        {
          "internalType": "bytes32",
          "name": "role",
          "type": "bytes32"
        },
        {
          "internalType": "address",
          "name": "account",
          "type": "address"
        }
      ],
      "name": "revokeRole",
      "outputs": [],
      "stateMutability": "nonpayable",
      "type": "function"
    },
    {
      "inputs": [
        {
          "components": [
            {
              "internalType": "address",
              "name": "swapBasedRouter",
              "type": "address"
            },
            {
              "internalType": "address",
              "name": "odosRouter",
              "type": "address"
            }
          ],
          "internalType": "struct SwapBasedZap.ZapParams",
          "name": "params",
          "type": "tuple"
        }
      ],
      "name": "setParams",
      "outputs": [],
      "stateMutability": "nonpayable",
      "type": "function"
    },
    {
      "inputs": [
        {
          "internalType": "uint256",
          "name": "_stakeSlippageBP",
          "type": "uint256"
        }
      ],
      "name": "setSlippages",
      "outputs": [],
      "stateMutability": "nonpayable",
      "type": "function"
    },
    {
      "inputs": [],
      "name": "stakeSlippageBP",
      "outputs": [
        {
          "internalType": "uint256",
          "name": "",
          "type": "uint256"
        }
      ],
      "stateMutability": "view",
      "type": "function"
    },
    {
      "inputs": [
        {
          "internalType": "bytes4",
          "name": "interfaceId",
          "type": "bytes4"
        }
      ],
      "name": "supportsInterface",
      "outputs": [
        {
          "internalType": "bool",
          "name": "",
          "type": "bool"
        }
      ],
      "stateMutability": "view",
      "type": "function"
    },
    {
      "inputs": [],
      "name": "swapBasedRouter",
      "outputs": [
        {
          "internalType": "contract ISwapBasedRouter02",
          "name": "",
          "type": "address"
        }
      ],
      "stateMutability": "view",
      "type": "function"
    },
    {
      "inputs": [
        {
          "internalType": "address",
          "name": "newImplementation",
          "type": "address"
        }
      ],
      "name": "upgradeTo",
      "outputs": [],
      "stateMutability": "nonpayable",
      "type": "function"
    },
    {
      "inputs": [
        {
          "internalType": "address",
          "name": "newImplementation",
          "type": "address"
        },
        {
          "internalType": "bytes",
          "name": "data",
          "type": "bytes"
        }
      ],
      "name": "upgradeToAndCall",
      "outputs": [],
      "stateMutability": "payable",
      "type": "function"
    },
    {
      "inputs": [
        {
          "components": [
            {
              "components": [
                {
                  "internalType": "address",
                  "name": "tokenAddress",
                  "type": "address"
                },
                {
                  "internalType": "uint256",
                  "name": "amountIn",
                  "type": "uint256"
                }
              ],
              "internalType": "struct OdosZap.InputToken[]",
              "name": "inputs",
              "type": "tuple[]"
            },
            {
              "components": [
                {
                  "internalType": "address",
                  "name": "tokenAddress",
                  "type": "address"
                },
                {
                  "internalType": "address",
                  "name": "receiver",
                  "type": "address"
                }
              ],
              "internalType": "struct OdosZap.OutputToken[]",
              "name": "outputs",
              "type": "tuple[]"
            },
            {
              "internalType": "bytes",
              "name": "data",
              "type": "bytes"
            }
          ],
          "internalType": "struct OdosZap.SwapData",
          "name": "swapData",
          "type": "tuple"
        },
        {
          "components": [
            {
              "internalType": "address",
              "name": "gauge",
              "type": "address"
            },
            {
              "internalType": "uint256[]",
              "name": "amountsOut",
              "type": "uint256[]"
            }
          ],
          "internalType": "struct SwapBasedZap.ZapInParams",
          "name": "params",
          "type": "tuple"
        }
      ],
      "name": "zapIn",
      "outputs": [],
      "stateMutability": "nonpayable",
      "type": "function"
    },
    {
      "stateMutability": "payable",
      "type": "receive"
    }
  ],
  "numDeployments": 1,
  "solcInputHash": "0563a41f489084f3d779309e4c486cae",
  "bytecode": "0x60a06040523060601b60805234801561001757600080fd5b5060805160601c61364961005260003960008181610478015281816104b80152818161055801528181610598015261062701526136496000f3fe60806040526004361061010d5760003560e01c80638129fc1c11610095578063a217fddf11610064578063a217fddf146102d9578063c2977d2f146102ee578063c93721ea1461030e578063d2849fac14610349578063d547741f1461036957600080fd5b80638129fc1c146102645780638321928d14610279578063884b2b8b1461029957806391d14854146102b957600080fd5b80633659cfe6116100dc5780633659cfe6146101ce5780634f1ef286146101ee57806352d1902d146102015780635ca558f8146102165780637c3d98a61461022c57600080fd5b806301ffc9a714610119578063248a9ca31461014e5780632f2ff15d1461018c57806336568abe146101ae57600080fd5b3661011457005b600080fd5b34801561012557600080fd5b50610139610134366004612edf565b610389565b60405190151581526020015b60405180910390f35b34801561015a57600080fd5b5061017e610169366004612e7d565b60009081526065602052604090206001015490565b604051908152602001610145565b34801561019857600080fd5b506101ac6101a7366004612eaf565b6103c0565b005b3480156101ba57600080fd5b506101ac6101c9366004612eaf565b6103ea565b3480156101da57600080fd5b506101ac6101e9366004612dd2565b61046d565b6101ac6101fc366004612e0c565b61054d565b34801561020d57600080fd5b5061017e61061a565b34801561022257600080fd5b5061017e60fb5481565b34801561023857600080fd5b5060fd5461024c906001600160a01b031681565b6040516001600160a01b039091168152602001610145565b34801561027057600080fd5b506101ac6106cd565b34801561028557600080fd5b5060fc5461024c906001600160a01b031681565b3480156102a557600080fd5b506101ac6102b4366004612e7d565b6107f6565b3480156102c557600080fd5b506101396102d4366004612eaf565b610852565b3480156102e557600080fd5b5061017e600081565b3480156102fa57600080fd5b506101ac61030936600461305f565b61087d565b34801561031a57600080fd5b5061032e610329366004612dd2565b610980565b60408051938452602084019290925290820152606001610145565b34801561035557600080fd5b506101ac610364366004612f09565b610cd0565b34801561037557600080fd5b506101ac610384366004612eaf565b6110b8565b60006001600160e01b03198216637965db0b60e01b14806103ba57506301ffc9a760e01b6001600160e01b03198316145b92915050565b6000828152606560205260409020600101546103db816110dd565b6103e583836110e7565b505050565b6001600160a01b038116331461045f5760405162461bcd60e51b815260206004820152602f60248201527f416363657373436f6e74726f6c3a2063616e206f6e6c792072656e6f756e636560448201526e103937b632b9903337b91039b2b63360891b60648201526084015b60405180910390fd5b610469828261116d565b5050565b306001600160a01b037f00000000000000000000000000000000000000000000000000000000000000001614156104b65760405162461bcd60e51b815260040161045690613257565b7f00000000000000000000000000000000000000000000000000000000000000006001600160a01b03166104ff6000805160206135cd833981519152546001600160a01b031690565b6001600160a01b0316146105255760405162461bcd60e51b8152600401610456906132a3565b61052e816111d4565b6040805160008082526020820190925261054a918391906111fb565b50565b306001600160a01b037f00000000000000000000000000000000000000000000000000000000000000001614156105965760405162461bcd60e51b815260040161045690613257565b7f00000000000000000000000000000000000000000000000000000000000000006001600160a01b03166105df6000805160206135cd833981519152546001600160a01b031690565b6001600160a01b0316146106055760405162461bcd60e51b8152600401610456906132a3565b61060e826111d4565b610469828260016111fb565b6000306001600160a01b037f000000000000000000000000000000000000000000000000000000000000000016146106ba5760405162461bcd60e51b815260206004820152603860248201527f555550535570677261646561626c653a206d757374206e6f742062652063616c60448201527f6c6564207468726f7567682064656c656761746563616c6c00000000000000006064820152608401610456565b506000805160206135cd83398151915290565b600054610100900460ff16158080156106ed5750600054600160ff909116105b806107075750303b158015610707575060005460ff166001145b61076a5760405162461bcd60e51b815260206004820152602e60248201527f496e697469616c697a61626c653a20636f6e747261637420697320616c72656160448201526d191e481a5b9a5d1a585b1a5e995960921b6064820152608401610456565b6000805460ff19166001179055801561078d576000805461ff0019166101001790555b610795611375565b61079d611375565b6107a86000336110e7565b600460fb55801561054a576000805461ff0019169055604051600181527f7f26b83ff96e1f2b6a682f133852f6798a09c465da95921460cefb3847402498906020015b60405180910390a150565b610801600033610852565b61081d5760405162461bcd60e51b8152600401610456906132ef565b60fb8190556040518181527fa5210533b7e454491de5dd73e199953a4cdb61fdc4f1eea9ca2edcf0344e6666906020016107eb565b60009182526065602090815260408084206001600160a01b0393909316845291905290205460ff1690565b610888600033610852565b6108a45760405162461bcd60e51b8152600401610456906132ef565b80516001600160a01b03166108f65760405162461bcd60e51b815260206004820152601860248201527716995c9bc81859191c995cdcc81b9bdd08185b1b1bddd95960421b6044820152606401610456565b60208101516001600160a01b031661094b5760405162461bcd60e51b815260206004820152601860248201527716995c9bc81859191c995cdcc81b9bdd08185b1b1bddd95960421b6044820152606401610456565b805160fd80546001600160a01b03199081166001600160a01b039384161790915560209092015160fc80549093169116179055565b6000806000808490506000816001600160a01b03166372f702f36040518163ffffffff1660e01b815260040160206040518083038186803b1580156109c457600080fd5b505afa1580156109d8573d6000803e3d6000fd5b505050506040513d601f19601f820116820180604052508101906109fc9190612def565b9050600080826001600160a01b0316630902f1ac6040518163ffffffff1660e01b815260040160606040518083038186803b158015610a3a57600080fd5b505afa158015610a4e573d6000803e3d6000fd5b505050506040513d601f19601f82011682018060405250810190610a72919061307b565b506001600160701b031691506001600160701b031691506000836001600160a01b0316630dfe16816040518163ffffffff1660e01b815260040160206040518083038186803b158015610ac457600080fd5b505afa158015610ad8573d6000803e3d6000fd5b505050506040513d601f19601f82011682018060405250810190610afc9190612def565b90506000846001600160a01b031663d21220a76040518163ffffffff1660e01b815260040160206040518083038186803b158015610b3957600080fd5b505afa158015610b4d573d6000803e3d6000fd5b505050506040513d601f19601f82011682018060405250810190610b719190612def565b90506000826001600160a01b031663313ce5676040518163ffffffff1660e01b815260040160206040518083038186803b158015610bae57600080fd5b505afa158015610bc2573d6000803e3d6000fd5b505050506040513d601f19601f82011682018060405250810190610be691906130f9565b60ff1690506000826001600160a01b031663313ce5676040518163ffffffff1660e01b815260040160206040518083038186803b158015610c2657600080fd5b505afa158015610c3a573d6000803e3d6000fd5b505050506040513d601f19601f82011682018060405250810190610c5e91906130f9565b60ff169050808211610c705780610c72565b815b610c7d90600a613429565b9850610c8a82600a613429565b610c94908a6133c4565b610c9e90876134e1565b9a50610cab81600a613429565b610cb5908a6133c4565b610cbf90866134e1565b995050505050505050509193909250565b610cd9826113e2565b610ce282611897565b50506000816000015190506000816001600160a01b03166372f702f36040518163ffffffff1660e01b815260040160206040518083038186803b158015610d2857600080fd5b505afa158015610d3c573d6000803e3d6000fd5b505050506040513d601f19601f82011682018060405250810190610d609190612def565b6040805160028082526060820183529293506000929091602083019080368337019050509050816001600160a01b0316630dfe16816040518163ffffffff1660e01b815260040160206040518083038186803b158015610dbf57600080fd5b505afa158015610dd3573d6000803e3d6000fd5b505050506040513d601f19601f82011682018060405250810190610df79190612def565b81600081518110610e0a57610e0a61358b565b60200260200101906001600160a01b031690816001600160a01b031681525050816001600160a01b031663d21220a76040518163ffffffff1660e01b815260040160206040518083038186803b158015610e6357600080fd5b505afa158015610e77573d6000803e3d6000fd5b505050506040513d601f19601f82011682018060405250810190610e9b9190612def565b81600181518110610eae57610eae61358b565b6001600160a01b0392909216602092830291909101820152604080516002808252606082018352600093919290918301908036833701905050905060005b825181101561109b576000838281518110610f0957610f0961358b565b60200260200101519050600087602001518381518110610f2b57610f2b61358b565b60200260200101511115610ff457806001600160a01b03166323b872dd33308a602001518681518110610f6057610f6061358b565b60209081029190910101516040516001600160e01b031960e086901b1681526001600160a01b0393841660048201529290911660248301526044820152606401602060405180830381600087803b158015610fba57600080fd5b505af1158015610fce573d6000803e3d6000fd5b505050506040513d601f19601f82011682018060405250810190610ff29190612e5b565b505b6040516370a0823160e01b81523060048201526001600160a01b038216906370a082319060240160206040518083038186803b15801561103357600080fd5b505afa158015611047573d6000803e3d6000fd5b505050506040513d601f19601f8201168201806040525081019061106b9190612e96565b83838151811061107d5761107d61358b565b602090810291909101015250806110938161355a565b915050610eec565b506110a7838383611cf3565b6110b0836125a8565b505050505050565b6000828152606560205260409020600101546110d3816110dd565b6103e5838361116d565b61054a81336126a5565b6110f18282610852565b6104695760008281526065602090815260408083206001600160a01b03851684529091529020805460ff191660011790556111293390565b6001600160a01b0316816001600160a01b0316837f2f8788117e7eff1d82e926ec794901d17c78024a50270940304540a733656f0d60405160405180910390a45050565b6111778282610852565b156104695760008281526065602090815260408083206001600160a01b0385168085529252808320805460ff1916905551339285917ff6391f5c32d9c69d2a47ea670b442974b53935d1edc7fd64eb21e047a839171b9190a45050565b6111df600033610852565b61054a5760405162461bcd60e51b8152600401610456906132ef565b7f4910fdfa16fed3260ed0e7147f7cc6da11a60208b5b9406d12a635614ffd91435460ff161561122e576103e5836126fe565b826001600160a01b03166352d1902d6040518163ffffffff1660e01b815260040160206040518083038186803b15801561126757600080fd5b505afa925050508015611297575060408051601f3d908101601f1916820190925261129491810190612e96565b60015b6112fa5760405162461bcd60e51b815260206004820152602e60248201527f45524331393637557067726164653a206e657720696d706c656d656e7461746960448201526d6f6e206973206e6f74205555505360901b6064820152608401610456565b6000805160206135cd83398151915281146113695760405162461bcd60e51b815260206004820152602960248201527f45524331393637557067726164653a20756e737570706f727465642070726f786044820152681a58589b195555525160ba1b6064820152608401610456565b506103e583838361279a565b600054610100900460ff166113e05760405162461bcd60e51b815260206004820152602b60248201527f496e697469616c697a61626c653a20636f6e7472616374206973206e6f74206960448201526a6e697469616c697a696e6760a81b6064820152608401610456565b565b60005b8160200151518110156115565760005b8181101561154357826020015181815181106114135761141361358b565b6020026020010151600001516001600160a01b03168360200151838151811061143e5761143e61358b565b6020026020010151600001516001600160a01b031614156114a15760405162461bcd60e51b815260206004820152601760248201527f4475706c6963617465206f757470757420746f6b656e730000000000000000006044820152606401610456565b306001600160a01b0316836020015183815181106114c1576114c161358b565b6020026020010151602001516001600160a01b0316146115315760405162461bcd60e51b815260206004820152602560248201527f5265636569766572206f662073776170206973206e6f74207468697320636f6e6044820152641d1c9858dd60da1b6064820152608401610456565b8061153b8161355a565b9150506113f5565b508061154e8161355a565b9150506113e5565b5060005b8151518110156104695760005b8181101561161c5782518051829081106115835761158361358b565b6020026020010151600001516001600160a01b0316836000015183815181106115ae576115ae61358b565b6020026020010151600001516001600160a01b0316141561160a5760405162461bcd60e51b81526020600482015260166024820152754475706c696361746520696e70757420746f6b656e7360501b6044820152606401610456565b806116148161355a565b915050611567565b5060005b8260200151518110156116e357826020015181815181106116435761164361358b565b6020026020010151600001516001600160a01b03168360000151838151811061166e5761166e61358b565b6020026020010151600001516001600160a01b031614156116d15760405162461bcd60e51b815260206004820152601a60248201527f4475706c696361746520696e70757420616e64206f75747075740000000000006044820152606401610456565b806116db8161355a565b915050611620565b506000826000015182815181106116fc576116fc61358b565b6020026020010151600001519050806001600160a01b03166323b872dd3330866000015186815181106117315761173161358b565b60209081029190910181015101516040516001600160e01b031960e086901b1681526001600160a01b0393841660048201529290911660248301526044820152606401602060405180830381600087803b15801561178e57600080fd5b505af11580156117a2573d6000803e3d6000fd5b505050506040513d601f19601f820116820180604052508101906117c69190612e5b565b5060fc54835180516001600160a01b038085169363095ea7b393911691869081106117f3576117f361358b565b6020026020010151602001516040518363ffffffff1660e01b81526004016118309291906001600160a01b03929092168252602082015260400190565b602060405180830381600087803b15801561184a57600080fd5b505af115801561185e573d6000803e3d6000fd5b505050506040513d601f19601f820116820180604052508101906118829190612e5b565b5050808061188f9061355a565b91505061155a565b60fc54604080830151905160609283926000926001600160a01b039092169183916118c19161311c565b60006040518083038185875af1925050503d80600081146118fe576040519150601f19603f3d011682016040523d82523d6000602084013e611903565b606091505b505090508061194a5760405162461bcd60e51b81526020600482015260136024820152721c9bdd5d195c881cddd85c081a5b9d985b1a59606a1b6044820152606401610456565b8351516000906001600160401b03811115611967576119676135a1565b604051908082528060200260200182016040528015611990578160200160208202803683370190505b50905060008560000151516001600160401b038111156119b2576119b26135a1565b6040519080825280602002602001820160405280156119db578160200160208202803683370190505b50905060005b865151811015611a845786518051829081106119ff576119ff61358b565b602002602001015160000151838281518110611a1d57611a1d61358b565b6001600160a01b03909216602092830291909101909101528651805182908110611a4957611a4961358b565b602002602001015160200151828281518110611a6757611a6761358b565b602090810291909101015280611a7c8161355a565b9150506119e1565b507fb5ad02132d64b1e89c5196397a95b3e268e3f5c555b5845f2ddcdf24684d2aad8183604051611ab69291906131ad565b60405180910390a160008660200151516001600160401b03811115611add57611add6135a1565b604051908082528060200260200182016040528015611b06578160200160208202803683370190505b50905060008760200151516001600160401b03811115611b2857611b286135a1565b604051908082528060200260200182016040528015611b51578160200160208202803683370190505b50905060005b886020015151811015611cac5788602001518181518110611b7a57611b7a61358b565b602002602001015160000151838281518110611b9857611b9861358b565b60200260200101906001600160a01b031690816001600160a01b031681525050828181518110611bca57611bca61358b565b60200260200101516001600160a01b03166370a082318a602001518381518110611bf657611bf661358b565b6020026020010151602001516040518263ffffffff1660e01b8152600401611c2d91906001600160a01b0391909116815260200190565b60206040518083038186803b158015611c4557600080fd5b505afa158015611c59573d6000803e3d6000fd5b505050506040513d601f19601f82011682018060405250810190611c7d9190612e96565b828281518110611c8f57611c8f61358b565b602090810291909101015280611ca48161355a565b915050611b57565b507f0c9e5a590aa4a07e734c28846ee575ea53d4ddf0fc046c45c367faaa2e0342388183604051611cde9291906131ad565b60405180910390a19097909650945050505050565b600080846001600160a01b0316630902f1ac6040518163ffffffff1660e01b815260040160606040518083038186803b158015611d2f57600080fd5b505afa158015611d43573d6000803e3d6000fd5b505050506040513d601f19601f82011682018060405250810190611d67919061307b565b506001600160701b031691506001600160701b03169150600080611eed85600081518110611d9757611d9761358b565b602002602001015186600181518110611db257611db261358b565b602002602001015186868a600081518110611dcf57611dcf61358b565b60200260200101516001600160a01b031663313ce5676040518163ffffffff1660e01b815260040160206040518083038186803b158015611e0f57600080fd5b505afa158015611e23573d6000803e3d6000fd5b505050506040513d601f19601f82011682018060405250810190611e4791906130f9565b611e5290600a613435565b8b600181518110611e6557611e6561358b565b60200260200101516001600160a01b031663313ce5676040518163ffffffff1660e01b815260040160206040518083038186803b158015611ea557600080fd5b505afa158015611eb9573d6000803e3d6000fd5b505050506040513d601f19601f82011682018060405250810190611edd91906130f9565b611ee890600a613435565b6127c5565b91509150600086600081518110611f0657611f0661358b565b60200260200101519050600087600181518110611f2557611f2561358b565b602090810291909101015160fd5460405163095ea7b360e01b81526001600160a01b0391821660048201526024810187905291925083169063095ea7b390604401602060405180830381600087803b158015611f8057600080fd5b505af1158015611f94573d6000803e3d6000fd5b505050506040513d601f19601f82011682018060405250810190611fb89190612e5b565b5060fd5460405163095ea7b360e01b81526001600160a01b039182166004820152602481018590529082169063095ea7b390604401602060405180830381600087803b15801561200757600080fd5b505af115801561201b573d6000803e3d6000fd5b505050506040513d601f19601f8201168201806040525081019061203f9190612e5b565b506040516370a0823160e01b81523060048201526000906001600160a01b038416906370a082319060240160206040518083038186803b15801561208257600080fd5b505afa158015612096573d6000803e3d6000fd5b505050506040513d601f19601f820116820180604052508101906120ba9190612e96565b6040516370a0823160e01b81523060048201529091506000906001600160a01b038416906370a082319060240160206040518083038186803b1580156120ff57600080fd5b505afa158015612113573d6000803e3d6000fd5b505050506040513d601f19601f820116820180604052508101906121379190612e96565b60fd548b519192506001600160a01b03169063e8e33700908c906000906121605761216061358b565b60200260200101518c60018151811061217b5761217b61358b565b602002602001015189896121918c60fb54612889565b61219d8c60fb54612889565b6040516001600160e01b031960e089901b1681526001600160a01b03968716600482015295909416602486015260448501929092526064840152608483015260a48201523060c48201524260e482015261010401606060405180830381600087803b15801561220b57600080fd5b505af115801561221f573d6000803e3d6000fd5b505050506040513d601f19601f8201168201806040525081019061224391906130cb565b50506040516370a0823160e01b8152306004820152600091506001600160a01b038616906370a082319060240160206040518083038186803b15801561228857600080fd5b505afa15801561229c573d6000803e3d6000fd5b505050506040513d601f19601f820116820180604052508101906122c09190612e96565b6040516370a0823160e01b81523060048201529091506000906001600160a01b038616906370a082319060240160206040518083038186803b15801561230557600080fd5b505afa158015612319573d6000803e3d6000fd5b505050506040513d601f19601f8201168201806040525081019061233d9190612e96565b905081156123c75760405163a9059cbb60e01b8152336004820152602481018390526001600160a01b0387169063a9059cbb90604401602060405180830381600087803b15801561238d57600080fd5b505af11580156123a1573d6000803e3d6000fd5b505050506040513d601f19601f820116820180604052508101906123c59190612e5b565b505b801561244f5760405163a9059cbb60e01b8152336004820152602481018290526001600160a01b0386169063a9059cbb90604401602060405180830381600087803b15801561241557600080fd5b505af1158015612429573d6000803e3d6000fd5b505050506040513d601f19601f8201168201806040525081019061244d9190612e5b565b505b60408051600280825260608201835260009260208301908036833701905050905061247a8386613500565b8160008151811061248d5761248d61358b565b60209081029190910101526124a28285613500565b816001815181106124b5576124b561358b565b60209081029190910101526040805160028082526060820190925260009181602001602082028036833701905050905083816000815181106124f9576124f961358b565b60200260200101818152505082816001815181106125195761251961358b565b6020026020010181815250507ff471c761d3d5d25c66f3d23a33cf7f9aaea894aa0fbcbb3bb158b1bea3c2ed45828f6040516125569291906131ad565b60405180910390a17fb4df4b62c251866b0421eb65c2beafa02a7d9e8a267e952174b984257924e175818f60405161258f9291906131ad565b60405180910390a1505050505050505050505050505050565b6040516370a0823160e01b81523060048201526000906001600160a01b038316906370a082319060240160206040518083038186803b1580156125ea57600080fd5b505afa1580156125fe573d6000803e3d6000fd5b505050506040513d601f19601f820116820180604052508101906126229190612e96565b60405163a9059cbb60e01b8152336004820152602481018290529091506001600160a01b0383169063a9059cbb90604401602060405180830381600087803b15801561266d57600080fd5b505af1158015612681573d6000803e3d6000fd5b505050506040513d601f19601f820116820180604052508101906103e59190612e5b565b6126af8282610852565b610469576126bc816128b3565b6126c78360206128c5565b6040516020016126d8929190613138565b60408051601f198184030181529082905262461bcd60e51b825261045691600401613224565b6001600160a01b0381163b61276b5760405162461bcd60e51b815260206004820152602d60248201527f455243313936373a206e657720696d706c656d656e746174696f6e206973206e60448201526c1bdd08184818dbdb9d1c9858dd609a1b6064820152608401610456565b6000805160206135cd83398151915280546001600160a01b0319166001600160a01b0392909216919091179055565b6127a383612a60565b6000825111806127b05750805b156103e5576127bf8383612aa0565b50505050565b600080826127d48660646134e1565b6127de91906133c4565b846127ea8860646134e1565b6127f491906133c4565b111561283e578561280589876134e1565b61280f91906133c4565b905086811161281e5780612820565b865b90508461282d87836134e1565b61283791906133c4565b915061287e565b8461284988886134e1565b61285391906133c4565b91508782116128625781612864565b875b91508561287186846134e1565b61287b91906133c4565b90505b965096945050505050565b60006127106128988382613500565b6128a290856134e1565b6128ac91906133c4565b9392505050565b60606103ba6001600160a01b03831660145b606060006128d48360026134e1565b6128df9060026133ac565b6001600160401b038111156128f6576128f66135a1565b6040519080825280601f01601f191660200182016040528015612920576020820181803683370190505b509050600360fc1b8160008151811061293b5761293b61358b565b60200101906001600160f81b031916908160001a905350600f60fb1b8160018151811061296a5761296a61358b565b60200101906001600160f81b031916908160001a905350600061298e8460026134e1565b6129999060016133ac565b90505b6001811115612a11576f181899199a1a9b1b9c1cb0b131b232b360811b85600f16601081106129cd576129cd61358b565b1a60f81b8282815181106129e3576129e361358b565b60200101906001600160f81b031916908160001a90535060049490941c93612a0a81613543565b905061299c565b5083156128ac5760405162461bcd60e51b815260206004820181905260248201527f537472696e67733a20686578206c656e67746820696e73756666696369656e746044820152606401610456565b612a69816126fe565b6040516001600160a01b038216907fbc7cd75a20ee27fd9adebab32041f755214dbc6bffa90cc0225b39da2e5c2d3b90600090a250565b60606001600160a01b0383163b612b085760405162461bcd60e51b815260206004820152602660248201527f416464726573733a2064656c65676174652063616c6c20746f206e6f6e2d636f6044820152651b9d1c9858dd60d21b6064820152608401610456565b600080846001600160a01b031684604051612b23919061311c565b600060405180830381855af49150503d8060008114612b5e576040519150601f19603f3d011682016040523d82523d6000602084013e612b63565b606091505b5091509150612b8b82826040518060600160405280602781526020016135ed60279139612b94565b95945050505050565b60608315612ba35750816128ac565b6128ac8383815115612bb85781518083602001fd5b8060405162461bcd60e51b81526004016104569190613224565b600082601f830112612be357600080fd5b81356020612bf8612bf383613389565b613359565b80838252828201915082860187848660061b8901011115612c1857600080fd5b60005b85811015612c4257612c2d8983612cbe565b84529284019260409190910190600101612c1b565b5090979650505050505050565b600082601f830112612c6057600080fd5b81356001600160401b03811115612c7957612c796135a1565b612c8c601f8201601f1916602001613359565b818152846020838601011115612ca157600080fd5b816020850160208301376000918101602001919091529392505050565b600060408284031215612cd057600080fd5b612cd861330f565b90508135612ce5816135b7565b81526020820135612cf5816135b7565b602082015292915050565b600060408284031215612d1257600080fd5b612d1a61330f565b90508135612d27816135b7565b81526020828101356001600160401b03811115612d4357600080fd5b8301601f81018513612d5457600080fd5b8035612d62612bf382613389565b80828252848201915084840188868560051b8701011115612d8257600080fd5b600094505b83851015612da5578035835260019490940193918501918501612d87565b508085870152505050505092915050565b80516001600160701b0381168114612dcd57600080fd5b919050565b600060208284031215612de457600080fd5b81356128ac816135b7565b600060208284031215612e0157600080fd5b81516128ac816135b7565b60008060408385031215612e1f57600080fd5b8235612e2a816135b7565b915060208301356001600160401b03811115612e4557600080fd5b612e5185828601612c4f565b9150509250929050565b600060208284031215612e6d57600080fd5b815180151581146128ac57600080fd5b600060208284031215612e8f57600080fd5b5035919050565b600060208284031215612ea857600080fd5b5051919050565b60008060408385031215612ec257600080fd5b823591506020830135612ed4816135b7565b809150509250929050565b600060208284031215612ef157600080fd5b81356001600160e01b0319811681146128ac57600080fd5b6000806040808486031215612f1d57600080fd5b83356001600160401b0380821115612f3457600080fd5b9085019060608288031215612f4857600080fd5b612f50613337565b823582811115612f5f57600080fd5b8301601f81018913612f7057600080fd5b80356020612f80612bf383613389565b8083825282820191508285018d848660061b8801011115612fa057600080fd5b600095505b84861015612fed5789818f031215612fbc57600080fd5b612fc461330f565b8135612fcf816135b7565b81528185013585820152835260019590950194918301918901612fa5565b508552508581013592508483111561300457600080fd5b6130108b848801612bd2565b818501528686013592508483111561302757600080fd5b6130338b848801612c4f565b87850152839850808a01359650505050508083111561305157600080fd5b5050612e5185828601612d00565b60006040828403121561307157600080fd5b6128ac8383612cbe565b60008060006060848603121561309057600080fd5b61309984612db6565b92506130a760208501612db6565b9150604084015163ffffffff811681146130c057600080fd5b809150509250925092565b6000806000606084860312156130e057600080fd5b8351925060208401519150604084015190509250925092565b60006020828403121561310b57600080fd5b815160ff811681146128ac57600080fd5b6000825161312e818460208701613517565b9190910192915050565b7f416363657373436f6e74726f6c3a206163636f756e7420000000000000000000815260008351613170816017850160208801613517565b7001034b99036b4b9b9b4b733903937b6329607d1b60179184019182015283516131a1816028840160208801613517565b01602801949350505050565b604080825283519082018190526000906020906060840190828701845b828110156131e6578151845292840192908401906001016131ca565b5050508381038285015284518082528583019183019060005b81811015612c425783516001600160a01b0316835292840192918401916001016131ff565b6020815260008251806020840152613243816040850160208701613517565b601f01601f19169190910160400192915050565b6020808252602c908201527f46756e6374696f6e206d7573742062652063616c6c6564207468726f7567682060408201526b19195b1959d85d1958d85b1b60a21b606082015260800190565b6020808252602c908201527f46756e6374696f6e206d7573742062652063616c6c6564207468726f7567682060408201526b6163746976652070726f787960a01b606082015260800190565b60208082526006908201526510a0b236b4b760d11b604082015260600190565b604080519081016001600160401b0381118282101715613331576133316135a1565b60405290565b604051606081016001600160401b0381118282101715613331576133316135a1565b604051601f8201601f191681016001600160401b0381118282101715613381576133816135a1565b604052919050565b60006001600160401b038211156133a2576133a26135a1565b5060051b60200190565b600082198211156133bf576133bf613575565b500190565b6000826133e157634e487b7160e01b600052601260045260246000fd5b500490565b600181815b8085111561342157816000190482111561340757613407613575565b8085161561341457918102915b93841c93908002906133eb565b509250929050565b60006128ac8383613440565b60006128ac60ff8416835b60008261344f575060016103ba565b8161345c575060006103ba565b8160018114613472576002811461347c57613498565b60019150506103ba565b60ff84111561348d5761348d613575565b50506001821b6103ba565b5060208310610133831016604e8410600b84101617156134bb575081810a6103ba565b6134c583836133e6565b80600019048211156134d9576134d9613575565b029392505050565b60008160001904831182151516156134fb576134fb613575565b500290565b60008282101561351257613512613575565b500390565b60005b8381101561353257818101518382015260200161351a565b838111156127bf5750506000910152565b60008161355257613552613575565b506000190190565b600060001982141561356e5761356e613575565b5060010190565b634e487b7160e01b600052601160045260246000fd5b634e487b7160e01b600052603260045260246000fd5b634e487b7160e01b600052604160045260246000fd5b6001600160a01b038116811461054a57600080fdfe360894a13ba1a3210667c828492db98dca3e2076cc3735a920a3ca505d382bbc416464726573733a206c6f772d6c6576656c2064656c65676174652063616c6c206661696c6564a26469706673582212203da1df1ad59581a8b91567912464d70756ca287b4f98fba8406a48d5ba707d4264736f6c63430008060033",
  "implementation": "0x0a9A231d2B8b5363B1408bc5415495CEf6D4DdE5",
  "devdoc": {
    "kind": "dev",
    "methods": {
      "getRoleAdmin(bytes32)": {
        "details": "Returns the admin role that controls `role`. See {grantRole} and {revokeRole}. To change a role's admin, use {_setRoleAdmin}."
      },
      "grantRole(bytes32,address)": {
        "details": "Grants `role` to `account`. If `account` had not been already granted `role`, emits a {RoleGranted} event. Requirements: - the caller must have ``role``'s admin role. May emit a {RoleGranted} event."
      },
      "hasRole(bytes32,address)": {
        "details": "Returns `true` if `account` has been granted `role`."
      },
      "proxiableUUID()": {
        "details": "Implementation of the ERC1822 {proxiableUUID} function. This returns the storage slot used by the implementation. It is used to validate the implementation's compatibility when performing an upgrade. IMPORTANT: A proxy pointing at a proxiable contract should not be considered proxiable itself, because this risks bricking a proxy that upgrades to it, by delegating to itself until out of gas. Thus it is critical that this function revert if invoked through a proxy. This is guaranteed by the `notDelegated` modifier."
      },
      "renounceRole(bytes32,address)": {
        "details": "Revokes `role` from the calling account. Roles are often managed via {grantRole} and {revokeRole}: this function's purpose is to provide a mechanism for accounts to lose their privileges if they are compromised (such as when a trusted device is misplaced). If the calling account had been revoked `role`, emits a {RoleRevoked} event. Requirements: - the caller must be `account`. May emit a {RoleRevoked} event."
      },
      "revokeRole(bytes32,address)": {
        "details": "Revokes `role` from `account`. If `account` had been granted `role`, emits a {RoleRevoked} event. Requirements: - the caller must have ``role``'s admin role. May emit a {RoleRevoked} event."
      },
      "supportsInterface(bytes4)": {
        "details": "See {IERC165-supportsInterface}."
      },
      "upgradeTo(address)": {
        "details": "Upgrade the implementation of the proxy to `newImplementation`. Calls {_authorizeUpgrade}. Emits an {Upgraded} event."
      },
      "upgradeToAndCall(address,bytes)": {
        "details": "Upgrade the implementation of the proxy to `newImplementation`, and subsequently execute the function call encoded in `data`. Calls {_authorizeUpgrade}. Emits an {Upgraded} event."
      }
    },
    "version": 1
  },
  "userdoc": {
    "kind": "user",
    "methods": {},
    "version": 1
  },
  "storageLayout": {
    "storage": [
      {
        "astId": 804,
        "contract": "contracts/zap/SwapBasedZap.sol:SwapBasedZap",
        "label": "_initialized",
        "offset": 0,
        "slot": "0",
        "type": "t_uint8"
      },
      {
        "astId": 807,
        "contract": "contracts/zap/SwapBasedZap.sol:SwapBasedZap",
        "label": "_initializing",
        "offset": 1,
        "slot": "0",
        "type": "t_bool"
      },
      {
        "astId": 1427,
        "contract": "contracts/zap/SwapBasedZap.sol:SwapBasedZap",
        "label": "__gap",
        "offset": 0,
        "slot": "1",
        "type": "t_array(t_uint256)50_storage"
      },
      {
        "astId": 1706,
        "contract": "contracts/zap/SwapBasedZap.sol:SwapBasedZap",
        "label": "__gap",
        "offset": 0,
        "slot": "51",
        "type": "t_array(t_uint256)50_storage"
      },
      {
        "astId": 39,
        "contract": "contracts/zap/SwapBasedZap.sol:SwapBasedZap",
        "label": "_roles",
        "offset": 0,
        "slot": "101",
        "type": "t_mapping(t_bytes32,t_struct(RoleData)34_storage)"
      },
      {
        "astId": 334,
        "contract": "contracts/zap/SwapBasedZap.sol:SwapBasedZap",
        "label": "__gap",
        "offset": 0,
        "slot": "102",
        "type": "t_array(t_uint256)49_storage"
      },
      {
        "astId": 786,
        "contract": "contracts/zap/SwapBasedZap.sol:SwapBasedZap",
        "label": "__gap",
        "offset": 0,
        "slot": "151",
        "type": "t_array(t_uint256)50_storage"
      },
      {
        "astId": 1101,
        "contract": "contracts/zap/SwapBasedZap.sol:SwapBasedZap",
        "label": "__gap",
        "offset": 0,
        "slot": "201",
        "type": "t_array(t_uint256)50_storage"
      },
      {
        "astId": 20111,
        "contract": "contracts/zap/SwapBasedZap.sol:SwapBasedZap",
        "label": "stakeSlippageBP",
        "offset": 0,
        "slot": "251",
        "type": "t_uint256"
      },
      {
        "astId": 20113,
        "contract": "contracts/zap/SwapBasedZap.sol:SwapBasedZap",
        "label": "odosRouter",
        "offset": 0,
        "slot": "252",
        "type": "t_address"
      },
      {
        "astId": 21287,
        "contract": "contracts/zap/SwapBasedZap.sol:SwapBasedZap",
        "label": "swapBasedRouter",
        "offset": 0,
        "slot": "253",
        "type": "t_contract(ISwapBasedRouter02)9738"
      }
    ],
    "types": {
      "t_address": {
        "encoding": "inplace",
        "label": "address",
        "numberOfBytes": "20"
      },
      "t_array(t_uint256)49_storage": {
        "base": "t_uint256",
        "encoding": "inplace",
        "label": "uint256[49]",
        "numberOfBytes": "1568"
      },
      "t_array(t_uint256)50_storage": {
        "base": "t_uint256",
        "encoding": "inplace",
        "label": "uint256[50]",
        "numberOfBytes": "1600"
      },
      "t_bool": {
        "encoding": "inplace",
        "label": "bool",
        "numberOfBytes": "1"
      },
      "t_bytes32": {
        "encoding": "inplace",
        "label": "bytes32",
        "numberOfBytes": "32"
      },
      "t_contract(ISwapBasedRouter02)9738": {
        "encoding": "inplace",
        "label": "contract ISwapBasedRouter02",
        "numberOfBytes": "20"
      },
      "t_mapping(t_address,t_bool)": {
        "encoding": "mapping",
        "key": "t_address",
        "label": "mapping(address => bool)",
        "numberOfBytes": "32",
        "value": "t_bool"
      },
      "t_mapping(t_bytes32,t_struct(RoleData)34_storage)": {
        "encoding": "mapping",
        "key": "t_bytes32",
        "label": "mapping(bytes32 => struct AccessControlUpgradeable.RoleData)",
        "numberOfBytes": "32",
        "value": "t_struct(RoleData)34_storage"
      },
      "t_struct(RoleData)34_storage": {
        "encoding": "inplace",
        "label": "struct AccessControlUpgradeable.RoleData",
        "members": [
          {
            "astId": 31,
            "contract": "contracts/zap/SwapBasedZap.sol:SwapBasedZap",
            "label": "members",
            "offset": 0,
            "slot": "0",
            "type": "t_mapping(t_address,t_bool)"
          },
          {
            "astId": 33,
            "contract": "contracts/zap/SwapBasedZap.sol:SwapBasedZap",
            "label": "adminRole",
            "offset": 0,
            "slot": "1",
            "type": "t_bytes32"
          }
        ],
        "numberOfBytes": "64"
      },
      "t_uint256": {
        "encoding": "inplace",
        "label": "uint256",
        "numberOfBytes": "32"
      },
      "t_uint8": {
        "encoding": "inplace",
        "label": "uint8",
        "numberOfBytes": "1"
      }
    }
  }
}