{
  "address": "0xd95ca61CE9aAF2143E81Ef5462C0c2325172E028",
  "abi": [
    {
      "inputs": [],
      "stateMutability": "nonpayable",
      "type": "constructor"
    },
    {
      "anonymous": false,
      "inputs": [
        {
          "indexed": false,
          "internalType": "address",
          "name": "previousAdmin",
          "type": "address"
        },
        {
          "indexed": false,
          "internalType": "address",
          "name": "newAdmin",
          "type": "address"
        }
      ],
      "name": "AdminChanged",
      "type": "event"
    },
    {
      "anonymous": false,
      "inputs": [
        {
          "indexed": true,
          "internalType": "address",
          "name": "owner",
          "type": "address"
        },
        {
          "indexed": true,
          "internalType": "address",
          "name": "spender",
          "type": "address"
        },
        {
          "indexed": false,
          "internalType": "uint256",
          "name": "value",
          "type": "uint256"
        }
      ],
      "name": "Approval",
      "type": "event"
    },
    {
      "anonymous": false,
      "inputs": [
        {
          "indexed": true,
          "internalType": "address",
          "name": "beacon",
          "type": "address"
        }
      ],
      "name": "BeaconUpgraded",
      "type": "event"
    },
    {
      "anonymous": false,
      "inputs": [
        {
          "indexed": true,
          "internalType": "address",
          "name": "caller",
          "type": "address"
        },
        {
          "indexed": true,
          "internalType": "address",
          "name": "owner",
          "type": "address"
        },
        {
          "indexed": false,
          "internalType": "uint256",
          "name": "assets",
          "type": "uint256"
        },
        {
          "indexed": false,
          "internalType": "uint256",
          "name": "shares",
          "type": "uint256"
        }
      ],
      "name": "Deposit",
      "type": "event"
    },
    {
      "anonymous": false,
      "inputs": [
        {
          "indexed": false,
          "internalType": "uint8",
          "name": "version",
          "type": "uint8"
        }
      ],
      "name": "Initialized",
      "type": "event"
    },
    {
      "anonymous": false,
      "inputs": [
        {
          "indexed": true,
          "internalType": "bytes32",
          "name": "role",
          "type": "bytes32"
        },
        {
          "indexed": true,
          "internalType": "bytes32",
          "name": "previousAdminRole",
          "type": "bytes32"
        },
        {
          "indexed": true,
          "internalType": "bytes32",
          "name": "newAdminRole",
          "type": "bytes32"
        }
      ],
      "name": "RoleAdminChanged",
      "type": "event"
    },
    {
      "anonymous": false,
      "inputs": [
        {
          "indexed": true,
          "internalType": "bytes32",
          "name": "role",
          "type": "bytes32"
        },
        {
          "indexed": true,
          "internalType": "address",
          "name": "account",
          "type": "address"
        },
        {
          "indexed": true,
          "internalType": "address",
          "name": "sender",
          "type": "address"
        }
      ],
      "name": "RoleGranted",
      "type": "event"
    },
    {
      "anonymous": false,
      "inputs": [
        {
          "indexed": true,
          "internalType": "bytes32",
          "name": "role",
          "type": "bytes32"
        },
        {
          "indexed": true,
          "internalType": "address",
          "name": "account",
          "type": "address"
        },
        {
          "indexed": true,
          "internalType": "address",
          "name": "sender",
          "type": "address"
        }
      ],
      "name": "RoleRevoked",
      "type": "event"
    },
    {
      "anonymous": false,
      "inputs": [
        {
          "indexed": true,
          "internalType": "address",
          "name": "from",
          "type": "address"
        },
        {
          "indexed": true,
          "internalType": "address",
          "name": "to",
          "type": "address"
        },
        {
          "indexed": false,
          "internalType": "uint256",
          "name": "value",
          "type": "uint256"
        }
      ],
      "name": "Transfer",
      "type": "event"
    },
    {
      "anonymous": false,
      "inputs": [
        {
          "indexed": true,
          "internalType": "address",
          "name": "implementation",
          "type": "address"
        }
      ],
      "name": "Upgraded",
      "type": "event"
    },
    {
      "anonymous": false,
      "inputs": [
        {
          "indexed": true,
          "internalType": "address",
          "name": "caller",
          "type": "address"
        },
        {
          "indexed": true,
          "internalType": "address",
          "name": "receiver",
          "type": "address"
        },
        {
          "indexed": true,
          "internalType": "address",
          "name": "owner",
          "type": "address"
        },
        {
          "indexed": false,
          "internalType": "uint256",
          "name": "assets",
          "type": "uint256"
        },
        {
          "indexed": false,
          "internalType": "uint256",
          "name": "shares",
          "type": "uint256"
        }
      ],
      "name": "Withdraw",
      "type": "event"
    },
    {
      "inputs": [],
      "name": "DEFAULT_ADMIN_ROLE",
      "outputs": [
        {
          "internalType": "bytes32",
          "name": "",
          "type": "bytes32"
        }
      ],
      "stateMutability": "view",
      "type": "function"
    },
    {
      "inputs": [
        {
          "internalType": "address",
          "name": "owner",
          "type": "address"
        },
        {
          "internalType": "address",
          "name": "spender",
          "type": "address"
        }
      ],
      "name": "allowance",
      "outputs": [
        {
          "internalType": "uint256",
          "name": "",
          "type": "uint256"
        }
      ],
      "stateMutability": "view",
      "type": "function"
    },
    {
      "inputs": [
        {
          "internalType": "address",
          "name": "spender",
          "type": "address"
        },
        {
          "internalType": "uint256",
          "name": "amount",
          "type": "uint256"
        }
      ],
      "name": "approve",
      "outputs": [
        {
          "internalType": "bool",
          "name": "",
          "type": "bool"
        }
      ],
      "stateMutability": "nonpayable",
      "type": "function"
    },
    {
      "inputs": [],
      "name": "asset",
      "outputs": [
        {
          "internalType": "contract IUsdPlusToken",
          "name": "",
          "type": "address"
        }
      ],
      "stateMutability": "view",
      "type": "function"
    },
    {
      "inputs": [
        {
          "internalType": "address",
          "name": "account",
          "type": "address"
        }
      ],
      "name": "balanceOf",
      "outputs": [
        {
          "internalType": "uint256",
          "name": "",
          "type": "uint256"
        }
      ],
      "stateMutability": "view",
      "type": "function"
    },
    {
      "inputs": [
        {
          "internalType": "uint256",
          "name": "shares",
          "type": "uint256"
        }
      ],
      "name": "convertToAssets",
      "outputs": [
        {
          "internalType": "uint256",
          "name": "",
          "type": "uint256"
        }
      ],
      "stateMutability": "view",
      "type": "function"
    },
    {
      "inputs": [
        {
          "internalType": "uint256",
          "name": "assets",
          "type": "uint256"
        }
      ],
      "name": "convertToShares",
      "outputs": [
        {
          "internalType": "uint256",
          "name": "",
          "type": "uint256"
        }
      ],
      "stateMutability": "view",
      "type": "function"
    },
    {
      "inputs": [],
      "name": "decimals",
      "outputs": [
        {
          "internalType": "uint8",
          "name": "",
          "type": "uint8"
        }
      ],
      "stateMutability": "view",
      "type": "function"
    },
    {
      "inputs": [
        {
          "internalType": "address",
          "name": "spender",
          "type": "address"
        },
        {
          "internalType": "uint256",
          "name": "subtractedValue",
          "type": "uint256"
        }
      ],
      "name": "decreaseAllowance",
      "outputs": [
        {
          "internalType": "bool",
          "name": "",
          "type": "bool"
        }
      ],
      "stateMutability": "nonpayable",
      "type": "function"
    },
    {
      "inputs": [
        {
          "internalType": "uint256",
          "name": "assets",
          "type": "uint256"
        },
        {
          "internalType": "address",
          "name": "receiver",
          "type": "address"
        }
      ],
      "name": "deposit",
      "outputs": [
        {
          "internalType": "uint256",
          "name": "",
          "type": "uint256"
        }
      ],
      "stateMutability": "nonpayable",
      "type": "function"
    },
    {
      "inputs": [
        {
          "internalType": "bytes32",
          "name": "role",
          "type": "bytes32"
        }
      ],
      "name": "getRoleAdmin",
      "outputs": [
        {
          "internalType": "bytes32",
          "name": "",
          "type": "bytes32"
        }
      ],
      "stateMutability": "view",
      "type": "function"
    },
    {
      "inputs": [
        {
          "internalType": "bytes32",
          "name": "role",
          "type": "bytes32"
        },
        {
          "internalType": "address",
          "name": "account",
          "type": "address"
        }
      ],
      "name": "grantRole",
      "outputs": [],
      "stateMutability": "nonpayable",
      "type": "function"
    },
    {
      "inputs": [
        {
          "internalType": "bytes32",
          "name": "role",
          "type": "bytes32"
        },
        {
          "internalType": "address",
          "name": "account",
          "type": "address"
        }
      ],
      "name": "hasRole",
      "outputs": [
        {
          "internalType": "bool",
          "name": "",
          "type": "bool"
        }
      ],
      "stateMutability": "view",
      "type": "function"
    },
    {
      "inputs": [
        {
          "internalType": "address",
          "name": "spender",
          "type": "address"
        },
        {
          "internalType": "uint256",
          "name": "addedValue",
          "type": "uint256"
        }
      ],
      "name": "increaseAllowance",
      "outputs": [
        {
          "internalType": "bool",
          "name": "",
          "type": "bool"
        }
      ],
      "stateMutability": "nonpayable",
      "type": "function"
    },
    {
      "inputs": [
        {
          "internalType": "address",
          "name": "usdPlusTokenAddress",
          "type": "address"
        },
        {
          "internalType": "string",
          "name": "name",
          "type": "string"
        },
        {
          "internalType": "string",
          "name": "symbol",
          "type": "string"
        },
        {
          "internalType": "uint8",
          "name": "decimals",
          "type": "uint8"
        }
      ],
      "name": "initialize",
      "outputs": [],
      "stateMutability": "nonpayable",
      "type": "function"
    },
    {
      "inputs": [
        {
          "internalType": "address",
          "name": "receiver",
          "type": "address"
        }
      ],
      "name": "maxDeposit",
      "outputs": [
        {
          "internalType": "uint256",
          "name": "",
          "type": "uint256"
        }
      ],
      "stateMutability": "view",
      "type": "function"
    },
    {
      "inputs": [
        {
          "internalType": "address",
          "name": "receiver",
          "type": "address"
        }
      ],
      "name": "maxMint",
      "outputs": [
        {
          "internalType": "uint256",
          "name": "",
          "type": "uint256"
        }
      ],
      "stateMutability": "view",
      "type": "function"
    },
    {
      "inputs": [
        {
          "internalType": "address",
          "name": "owner",
          "type": "address"
        }
      ],
      "name": "maxRedeem",
      "outputs": [
        {
          "internalType": "uint256",
          "name": "",
          "type": "uint256"
        }
      ],
      "stateMutability": "view",
      "type": "function"
    },
    {
      "inputs": [
        {
          "internalType": "address",
          "name": "owner",
          "type": "address"
        }
      ],
      "name": "maxWithdraw",
      "outputs": [
        {
          "internalType": "uint256",
          "name": "",
          "type": "uint256"
        }
      ],
      "stateMutability": "view",
      "type": "function"
    },
    {
      "inputs": [
        {
          "internalType": "uint256",
          "name": "shares",
          "type": "uint256"
        },
        {
          "internalType": "address",
          "name": "receiver",
          "type": "address"
        }
      ],
      "name": "mint",
      "outputs": [
        {
          "internalType": "uint256",
          "name": "",
          "type": "uint256"
        }
      ],
      "stateMutability": "nonpayable",
      "type": "function"
    },
    {
      "inputs": [],
      "name": "name",
      "outputs": [
        {
          "internalType": "string",
          "name": "",
          "type": "string"
        }
      ],
      "stateMutability": "view",
      "type": "function"
    },
    {
      "inputs": [
        {
          "internalType": "uint256",
          "name": "assets",
          "type": "uint256"
        }
      ],
      "name": "previewDeposit",
      "outputs": [
        {
          "internalType": "uint256",
          "name": "",
          "type": "uint256"
        }
      ],
      "stateMutability": "view",
      "type": "function"
    },
    {
      "inputs": [
        {
          "internalType": "uint256",
          "name": "shares",
          "type": "uint256"
        }
      ],
      "name": "previewMint",
      "outputs": [
        {
          "internalType": "uint256",
          "name": "",
          "type": "uint256"
        }
      ],
      "stateMutability": "view",
      "type": "function"
    },
    {
      "inputs": [
        {
          "internalType": "uint256",
          "name": "shares",
          "type": "uint256"
        }
      ],
      "name": "previewRedeem",
      "outputs": [
        {
          "internalType": "uint256",
          "name": "",
          "type": "uint256"
        }
      ],
      "stateMutability": "view",
      "type": "function"
    },
    {
      "inputs": [
        {
          "internalType": "uint256",
          "name": "assets",
          "type": "uint256"
        }
      ],
      "name": "previewWithdraw",
      "outputs": [
        {
          "internalType": "uint256",
          "name": "",
          "type": "uint256"
        }
      ],
      "stateMutability": "view",
      "type": "function"
    },
    {
      "inputs": [],
      "name": "proxiableUUID",
      "outputs": [
        {
          "internalType": "bytes32",
          "name": "",
          "type": "bytes32"
        }
      ],
      "stateMutability": "view",
      "type": "function"
    },
    {
      "inputs": [],
      "name": "rate",
      "outputs": [
        {
          "internalType": "uint256",
          "name": "",
          "type": "uint256"
        }
      ],
      "stateMutability": "view",
      "type": "function"
    },
    {
      "inputs": [
        {
          "internalType": "uint256",
          "name": "shares",
          "type": "uint256"
        },
        {
          "internalType": "address",
          "name": "receiver",
          "type": "address"
        },
        {
          "internalType": "address",
          "name": "owner",
          "type": "address"
        }
      ],
      "name": "redeem",
      "outputs": [
        {
          "internalType": "uint256",
          "name": "",
          "type": "uint256"
        }
      ],
      "stateMutability": "nonpayable",
      "type": "function"
    },
    {
      "inputs": [
        {
          "internalType": "bytes32",
          "name": "role",
          "type": "bytes32"
        },
        {
          "internalType": "address",
          "name": "account",
          "type": "address"
        }
      ],
      "name": "renounceRole",
      "outputs": [],
      "stateMutability": "nonpayable",
      "type": "function"
    },
    {
      "inputs": [
        {
          "internalType": "bytes32",
          "name": "role",
          "type": "bytes32"
        },
        {
          "internalType": "address",
          "name": "account",
          "type": "address"
        }
      ],
      "name": "revokeRole",
      "outputs": [],
      "stateMutability": "nonpayable",
      "type": "function"
    },
    {
      "inputs": [
        {
          "internalType": "uint8",
          "name": "decimals",
          "type": "uint8"
        }
      ],
      "name": "setDecimals",
      "outputs": [],
      "stateMutability": "nonpayable",
      "type": "function"
    },
    {
      "inputs": [
        {
          "internalType": "bytes4",
          "name": "interfaceId",
          "type": "bytes4"
        }
      ],
      "name": "supportsInterface",
      "outputs": [
        {
          "internalType": "bool",
          "name": "",
          "type": "bool"
        }
      ],
      "stateMutability": "view",
      "type": "function"
    },
    {
      "inputs": [],
      "name": "symbol",
      "outputs": [
        {
          "internalType": "string",
          "name": "",
          "type": "string"
        }
      ],
      "stateMutability": "view",
      "type": "function"
    },
    {
      "inputs": [],
      "name": "totalAssets",
      "outputs": [
        {
          "internalType": "uint256",
          "name": "",
          "type": "uint256"
        }
      ],
      "stateMutability": "view",
      "type": "function"
    },
    {
      "inputs": [],
      "name": "totalSupply",
      "outputs": [
        {
          "internalType": "uint256",
          "name": "",
          "type": "uint256"
        }
      ],
      "stateMutability": "view",
      "type": "function"
    },
    {
      "inputs": [
        {
          "internalType": "address",
          "name": "to",
          "type": "address"
        },
        {
          "internalType": "uint256",
          "name": "amount",
          "type": "uint256"
        }
      ],
      "name": "transfer",
      "outputs": [
        {
          "internalType": "bool",
          "name": "",
          "type": "bool"
        }
      ],
      "stateMutability": "nonpayable",
      "type": "function"
    },
    {
      "inputs": [
        {
          "internalType": "address",
          "name": "from",
          "type": "address"
        },
        {
          "internalType": "address",
          "name": "to",
          "type": "address"
        },
        {
          "internalType": "uint256",
          "name": "amount",
          "type": "uint256"
        }
      ],
      "name": "transferFrom",
      "outputs": [
        {
          "internalType": "bool",
          "name": "",
          "type": "bool"
        }
      ],
      "stateMutability": "nonpayable",
      "type": "function"
    },
    {
      "inputs": [
        {
          "internalType": "address",
          "name": "newImplementation",
          "type": "address"
        }
      ],
      "name": "upgradeTo",
      "outputs": [],
      "stateMutability": "nonpayable",
      "type": "function"
    },
    {
      "inputs": [
        {
          "internalType": "address",
          "name": "newImplementation",
          "type": "address"
        },
        {
          "internalType": "bytes",
          "name": "data",
          "type": "bytes"
        }
      ],
      "name": "upgradeToAndCall",
      "outputs": [],
      "stateMutability": "payable",
      "type": "function"
    },
    {
      "inputs": [
        {
          "internalType": "uint256",
          "name": "assets",
          "type": "uint256"
        },
        {
          "internalType": "address",
          "name": "receiver",
          "type": "address"
        },
        {
          "internalType": "address",
          "name": "owner",
          "type": "address"
        }
      ],
      "name": "withdraw",
      "outputs": [
        {
          "internalType": "uint256",
          "name": "",
          "type": "uint256"
        }
      ],
      "stateMutability": "nonpayable",
      "type": "function"
    }
  ],
  "numDeployments": 1,
  "solcInputHash": "31ff9fae3fca0977149edd76edd93ebc",
  "bytecode": "0x60a0604052306080523480156200001557600080fd5b50600054610100900460ff1615808015620000375750600054600160ff909116105b8062000067575062000054306200014160201b6200163b1760201c565b15801562000067575060005460ff166001145b620000cf5760405162461bcd60e51b815260206004820152602e60248201527f496e697469616c697a61626c653a20636f6e747261637420697320616c72656160448201526d191e481a5b9a5d1a585b1a5e995960921b606482015260840160405180910390fd5b6000805460ff191660011790558015620000f3576000805461ff0019166101001790555b80156200013a576000805461ff0019169055604051600181527f7f26b83ff96e1f2b6a682f133852f6798a09c465da95921460cefb38474024989060200160405180910390a15b5062000150565b6001600160a01b03163b151590565b608051612fe86200018860003960008181610961015281816109a101528181610a6201528181610aa20152610b310152612fe86000f3fe60806040526004361061023b5760003560e01c80636e553f651161012e578063b460af94116100ab578063d547741f1161006f578063d547741f14610686578063d905777e146106a6578063dd62ed3e146106c6578063ef8b30f714610646578063f6d2ee86146106e657600080fd5b8063b460af9414610606578063ba08765214610626578063c63d75b61461047c578063c6e6f59214610646578063ce96cb771461066657600080fd5b806395d89b41116100f257806395d89b411461057c578063a217fddf14610591578063a457c2d7146105a6578063a9059cbb146105c6578063b3d7f6b9146105e657600080fd5b80636e553f65146104c657806370a08231146104e65780637a1395aa1461051c57806391d148541461053c57806394bf804d1461055c57600080fd5b80632f2ff15d116101bc5780633950935111610180578063395093511461045c578063402d267d1461047c5780634cdad506146102ba5780634f1ef2861461049e57806352d1902d146104b157600080fd5b80632f2ff15d14610394578063313ce567146103b657806336568abe146103e35780633659cfe61461040357806338d52e0f1461042357600080fd5b80630a28a477116102035780630a28a477146102fa57806318160ddd1461031a57806323b872dd1461032f578063248a9ca31461034f5780632c4e722e1461037f57600080fd5b806301e1d1141461024057806301ffc9a71461026857806306fdde031461029857806307a2d13a146102ba578063095ea7b3146102da575b600080fd5b34801561024c57600080fd5b50610255610706565b6040519081526020015b60405180910390f35b34801561027457600080fd5b50610288610283366004612762565b61071e565b604051901515815260200161025f565b3480156102a457600080fd5b506102ad610755565b60405161025f91906127b0565b3480156102c657600080fd5b506102556102d53660046127e3565b6107e7565b3480156102e657600080fd5b506102886102f5366004612818565b6107f2565b34801561030657600080fd5b506102556103153660046127e3565b61080a565b34801561032657600080fd5b50603554610255565b34801561033b57600080fd5b5061028861034a366004612842565b610815565b34801561035b57600080fd5b5061025561036a3660046127e3565b60009081526097602052604090206001015490565b34801561038b57600080fd5b5061025561083b565b3480156103a057600080fd5b506103b46103af36600461287e565b6108aa565b005b3480156103c257600080fd5b5061012d54600160a01b900460ff1660405160ff909116815260200161025f565b3480156103ef57600080fd5b506103b46103fe36600461287e565b6108d4565b34801561040f57600080fd5b506103b461041e3660046128aa565b610957565b34801561042f57600080fd5b5061012d54610444906001600160a01b031681565b6040516001600160a01b03909116815260200161025f565b34801561046857600080fd5b50610288610477366004612818565b610a36565b34801561048857600080fd5b506102556104973660046128aa565b5060001990565b6103b46104ac3660046128db565b610a58565b3480156104bd57600080fd5b50610255610b24565b3480156104d257600080fd5b506102556104e136600461287e565b610bd7565b3480156104f257600080fd5b506102556105013660046128aa565b6001600160a01b031660009081526033602052604090205490565b34801561052857600080fd5b506103b46105373660046129ae565b610d31565b34801561054857600080fd5b5061028861055736600461287e565b610db0565b34801561056857600080fd5b5061025561057736600461287e565b610ddb565b34801561058857600080fd5b506102ad610f2b565b34801561059d57600080fd5b50610255600081565b3480156105b257600080fd5b506102886105c1366004612818565b610f3a565b3480156105d257600080fd5b506102886105e1366004612818565b610fc0565b3480156105f257600080fd5b506102556106013660046127e3565b610fce565b34801561061257600080fd5b506102556106213660046129c9565b610fd9565b34801561063257600080fd5b506102556106413660046129c9565b6111e4565b34801561065257600080fd5b506102556106613660046127e3565b6113da565b34801561067257600080fd5b506102556106813660046128aa565b6113e5565b34801561069257600080fd5b506103b46106a136600461287e565b611407565b3480156106b257600080fd5b506102556106c13660046128aa565b61142c565b3480156106d257600080fd5b506102556106e1366004612a05565b61144a565b3480156106f257600080fd5b506103b4610701366004612a78565b611475565b600061071961071460355490565b61164a565b905090565b60006001600160e01b03198216637965db0b60e01b148061074f57506301ffc9a760e01b6001600160e01b03198316145b92915050565b60606036805461076490612b08565b80601f016020809104026020016040519081016040528092919081815260200182805461079090612b08565b80156107dd5780601f106107b2576101008083540402835291602001916107dd565b820191906000526020600020905b8154815290600101906020018083116107c057829003601f168201915b5050505050905090565b600061074f8261164a565b6000336108008185856116ce565b5060019392505050565b600061074f826117f2565b600033610823858285611876565b61082e8585856118f0565b60019150505b9392505050565b61012d546040805163bbf44f3360e01b815290516000926001600160a01b03169163bbf44f339160048083019260209291908290030181865afa158015610886573d6000803e3d6000fd5b505050506040513d601f19601f820116820180604052508101906107199190612b42565b6000828152609760205260409020600101546108c581611a9b565b6108cf8383611aa5565b505050565b6001600160a01b03811633146109495760405162461bcd60e51b815260206004820152602f60248201527f416363657373436f6e74726f6c3a2063616e206f6e6c792072656e6f756e636560448201526e103937b632b9903337b91039b2b63360891b60648201526084015b60405180910390fd5b6109538282611b2b565b5050565b6001600160a01b037f000000000000000000000000000000000000000000000000000000000000000016300361099f5760405162461bcd60e51b815260040161094090612b5b565b7f00000000000000000000000000000000000000000000000000000000000000006001600160a01b03166109e8600080516020612f6c833981519152546001600160a01b031690565b6001600160a01b031614610a0e5760405162461bcd60e51b815260040161094090612ba7565b610a1781611b92565b60408051600080825260208201909252610a3391839190611b9d565b50565b600033610800818585610a49838361144a565b610a539190612c09565b6116ce565b6001600160a01b037f0000000000000000000000000000000000000000000000000000000000000000163003610aa05760405162461bcd60e51b815260040161094090612b5b565b7f00000000000000000000000000000000000000000000000000000000000000006001600160a01b0316610ae9600080516020612f6c833981519152546001600160a01b031690565b6001600160a01b031614610b0f5760405162461bcd60e51b815260040161094090612ba7565b610b1882611b92565b61095382826001611b9d565b6000306001600160a01b037f00000000000000000000000000000000000000000000000000000000000000001614610bc45760405162461bcd60e51b815260206004820152603860248201527f555550535570677261646561626c653a206d757374206e6f742062652063616c60448201527f6c6564207468726f7567682064656c656761746563616c6c00000000000000006064820152608401610940565b50600080516020612f6c83398151915290565b600082600003610c235760405162461bcd60e51b815260206004820152601760248201527616995c9bc8185cdcd95d1cc81b9bdd08185b1b1bddd959604a1b6044820152606401610940565b6001600160a01b038216610c495760405162461bcd60e51b815260040161094090612c1c565b61012d546040516323b872dd60e01b8152336004820152306024820152604481018590526001600160a01b03909116906323b872dd906064016020604051808303816000875af1158015610ca1573d6000803e3d6000fd5b505050506040513d601f19601f82011682018060405250810190610cc59190612c61565b506000610cd184611d08565b90508015610ce357610ce38382611d8c565b60408051858152602081018390526001600160a01b0385169133917fdcbc1c05240f31ff3ad067ef1ee35ce4997762752e3a095284754544f4c709d791015b60405180910390a39392505050565b6000610d3c81611a9b565b61012d54600160a01b900460ff1615610d8e5760405162461bcd60e51b8152602060048201526014602482015273111958da5b585b1cc8185b1c9958591e481cd95d60621b6044820152606401610940565b5061012d805460ff909216600160a01b0260ff60a01b19909216919091179055565b60009182526097602090815260408084206001600160a01b0393909316845291905290205460ff1690565b600082600003610e275760405162461bcd60e51b815260206004820152601760248201527616995c9bc81cda185c995cc81b9bdd08185b1b1bddd959604a1b6044820152606401610940565b6001600160a01b038216610e4d5760405162461bcd60e51b815260040161094090612c1c565b6000610e5884611e4d565b90508015610ede5761012d546040516323b872dd60e01b8152336004820152306024820152604481018390526001600160a01b03909116906323b872dd906064016020604051808303816000875af1158015610eb8573d6000803e3d6000fd5b505050506040513d601f19601f82011682018060405250810190610edc9190612c61565b505b610ee88385611d8c565b60408051828152602081018690526001600160a01b0385169133917fdcbc1c05240f31ff3ad067ef1ee35ce4997762752e3a095284754544f4c709d79101610d22565b60606037805461076490612b08565b60003381610f48828661144a565b905083811015610fa85760405162461bcd60e51b815260206004820152602560248201527f45524332303a2064656372656173656420616c6c6f77616e63652062656c6f77604482015264207a65726f60d81b6064820152608401610940565b610fb582868684036116ce565b506001949350505050565b6000336108008185856118f0565b600061074f82611e4d565b6000836000036110255760405162461bcd60e51b815260206004820152601760248201527616995c9bc8185cdcd95d1cc81b9bdd08185b1b1bddd959604a1b6044820152606401610940565b6001600160a01b03831661104b5760405162461bcd60e51b815260040161094090612c1c565b6001600160a01b0382166110715760405162461bcd60e51b815260040161094090612c83565b600061107c856117f2565b90506001600160a01b038316331461110757600061109a843361144a565b9050818110156110f65760405162461bcd60e51b815260206004820152602160248201527f576974686472617720616d6f756e74206578636565647320616c6c6f77616e636044820152606560f81b6064820152608401610940565b6111058433610a538585612cc5565b505b8015611117576111178382611ed1565b61012d5460405163a9059cbb60e01b81526001600160a01b038681166004830152602482018890529091169063a9059cbb906044016020604051808303816000875af115801561116b573d6000803e3d6000fd5b505050506040513d601f19601f8201168201806040525081019061118f9190612c61565b5060408051868152602081018390526001600160a01b03808616929087169133917ffbde797d201c681b91056529119e0b02407c7bb96a4a2c75c01fc9667232c8db91015b60405180910390a4949350505050565b6000836000036112305760405162461bcd60e51b815260206004820152601760248201527616995c9bc81cda185c995cc81b9bdd08185b1b1bddd959604a1b6044820152606401610940565b6001600160a01b0383166112565760405162461bcd60e51b815260040161094090612c1c565b6001600160a01b03821661127c5760405162461bcd60e51b815260040161094090612c83565b6001600160a01b03821633146112fb576000611298833361144a565b9050848110156112ea5760405162461bcd60e51b815260206004820152601f60248201527f52656465656d20616d6f756e74206578636565647320616c6c6f77616e6365006044820152606401610940565b6112f98333610a538885612cc5565b505b6113058285611ed1565b60006113108561164a565b905080156113925761012d5460405163a9059cbb60e01b81526001600160a01b038681166004830152602482018490529091169063a9059cbb906044016020604051808303816000875af115801561136c573d6000803e3d6000fd5b505050506040513d601f19601f820116820180604052508101906113909190612c61565b505b60408051828152602081018790526001600160a01b03808616929087169133917ffbde797d201c681b91056529119e0b02407c7bb96a4a2c75c01fc9667232c8db91016111d4565b600061074f82611d08565b6001600160a01b03811660009081526033602052604081205461074f9061164a565b60008281526097602052604090206001015461142281611a9b565b6108cf8383611b2b565b6001600160a01b03811660009081526033602052604081205461074f565b6001600160a01b03918216600090815260346020908152604080832093909416825291909152205490565b600054610100900460ff16158080156114955750600054600160ff909116105b806114af5750303b1580156114af575060005460ff166001145b6115125760405162461bcd60e51b815260206004820152602e60248201527f496e697469616c697a61626c653a20636f6e747261637420697320616c72656160448201526d191e481a5b9a5d1a585b1a5e995960921b6064820152608401610940565b6000805460ff191660011790558015611535576000805461ff0019166101001790555b6115a886868080601f01602080910402602001604051908101604052809392919081815260200183838082843760009201919091525050604080516020601f8a01819004810282018101909252888152925088915087908190840183828082843760009201919091525061200592505050565b6115b0612036565b6115b8612036565b6115c3600033611aa5565b61012d805460ff8416600160a01b026001600160a81b03199091166001600160a01b038a16171790558015611632576000805461ff0019169055604051600181527f7f26b83ff96e1f2b6a682f133852f6798a09c465da95921460cefb38474024989060200160405180910390a15b50505050505050565b6001600160a01b03163b151590565b600061074f61012d60009054906101000a90046001600160a01b03166001600160a01b031663bbf44f336040518163ffffffff1660e01b8152600401602060405180830381865afa1580156116a3573d6000803e3d6000fd5b505050506040513d601f19601f820116820180604052508101906116c79190612b42565b839061205f565b6001600160a01b0383166117305760405162461bcd60e51b8152602060048201526024808201527f45524332303a20617070726f76652066726f6d20746865207a65726f206164646044820152637265737360e01b6064820152608401610940565b6001600160a01b0382166117915760405162461bcd60e51b815260206004820152602260248201527f45524332303a20617070726f766520746f20746865207a65726f206164647265604482015261737360f01b6064820152608401610940565b6001600160a01b0383811660008181526034602090815260408083209487168084529482529182902085905590518481527f8c5be1e5ebec7d5bd14f71427d1e84f3dd0314c0f7b2291e5b200ac8c7c3b925910160405180910390a3505050565b600061074f61012d60009054906101000a90046001600160a01b03166001600160a01b031663bbf44f336040518163ffffffff1660e01b8152600401602060405180830381865afa15801561184b573d6000803e3d6000fd5b505050506040513d601f19601f8201168201806040525081019061186f9190612b42565b83906120c4565b6000611882848461144a565b905060001981146118ea57818110156118dd5760405162461bcd60e51b815260206004820152601d60248201527f45524332303a20696e73756666696369656e7420616c6c6f77616e63650000006044820152606401610940565b6118ea84848484036116ce565b50505050565b6001600160a01b0383166119545760405162461bcd60e51b815260206004820152602560248201527f45524332303a207472616e736665722066726f6d20746865207a65726f206164604482015264647265737360d81b6064820152608401610940565b6001600160a01b0382166119b65760405162461bcd60e51b815260206004820152602360248201527f45524332303a207472616e7366657220746f20746865207a65726f206164647260448201526265737360e81b6064820152608401610940565b6001600160a01b03831660009081526033602052604090205481811015611a2e5760405162461bcd60e51b815260206004820152602660248201527f45524332303a207472616e7366657220616d6f756e7420657863656564732062604482015265616c616e636560d01b6064820152608401610940565b6001600160a01b0380851660008181526033602052604080822086860390559286168082529083902080548601905591517fddf252ad1be2c89b69c2b068fc378daa952ba7f163c4a11628f55a4df523b3ef90611a8e9086815260200190565b60405180910390a36118ea565b610a3381336121a9565b611aaf8282610db0565b6109535760008281526097602090815260408083206001600160a01b03851684529091529020805460ff19166001179055611ae73390565b6001600160a01b0316816001600160a01b0316837f2f8788117e7eff1d82e926ec794901d17c78024a50270940304540a733656f0d60405160405180910390a45050565b611b358282610db0565b156109535760008281526097602090815260408083206001600160a01b0385168085529252808320805460ff1916905551339285917ff6391f5c32d9c69d2a47ea670b442974b53935d1edc7fd64eb21e047a839171b9190a45050565b600061095381611a9b565b7f4910fdfa16fed3260ed0e7147f7cc6da11a60208b5b9406d12a635614ffd91435460ff1615611bd0576108cf83612202565b826001600160a01b03166352d1902d6040518163ffffffff1660e01b8152600401602060405180830381865afa925050508015611c2a575060408051601f3d908101601f19168201909252611c2791810190612b42565b60015b611c8d5760405162461bcd60e51b815260206004820152602e60248201527f45524331393637557067726164653a206e657720696d706c656d656e7461746960448201526d6f6e206973206e6f74205555505360901b6064820152608401610940565b600080516020612f6c8339815191528114611cfc5760405162461bcd60e51b815260206004820152602960248201527f45524331393637557067726164653a20756e737570706f727465642070726f786044820152681a58589b195555525160ba1b6064820152608401610940565b506108cf83838361229e565b600061074f61012d60009054906101000a90046001600160a01b03166001600160a01b031663bbf44f336040518163ffffffff1660e01b8152600401602060405180830381865afa158015611d61573d6000803e3d6000fd5b505050506040513d601f19601f82011682018060405250810190611d859190612b42565b83906122c3565b6001600160a01b038216611de25760405162461bcd60e51b815260206004820152601f60248201527f45524332303a206d696e7420746f20746865207a65726f2061646472657373006044820152606401610940565b8060356000828254611df49190612c09565b90915550506001600160a01b0382166000818152603360209081526040808320805486019055518481527fddf252ad1be2c89b69c2b068fc378daa952ba7f163c4a11628f55a4df523b3ef910160405180910390a35050565b600061074f61012d60009054906101000a90046001600160a01b03166001600160a01b031663bbf44f336040518163ffffffff1660e01b8152600401602060405180830381865afa158015611ea6573d6000803e3d6000fd5b505050506040513d601f19601f82011682018060405250810190611eca9190612b42565b8390612371565b6001600160a01b038216611f315760405162461bcd60e51b815260206004820152602160248201527f45524332303a206275726e2066726f6d20746865207a65726f206164647265736044820152607360f81b6064820152608401610940565b6001600160a01b03821660009081526033602052604090205481811015611fa55760405162461bcd60e51b815260206004820152602260248201527f45524332303a206275726e20616d6f756e7420657863656564732062616c616e604482015261636560f01b6064820152608401610940565b6001600160a01b03831660008181526033602090815260408083208686039055603580548790039055518581529192917fddf252ad1be2c89b69c2b068fc378daa952ba7f163c4a11628f55a4df523b3ef910160405180910390a3505050565b600054610100900460ff1661202c5760405162461bcd60e51b815260040161094090612cd8565b6109538282612402565b600054610100900460ff1661205d5760405162461bcd60e51b815260040161094090612cd8565b565b600082158061206c575081155b156120795750600061074f565b61208582600019612d23565b8311156120a45760405162461bcd60e51b815260040161094090612d45565b676765c793fa10079d601b1b6120ba8385612d88565b6108349190612d23565b6000816000036121165760405162461bcd60e51b815260206004820152601c60248201527f4572726f72732e4d4154485f4449564953494f4e5f42595f5a45524f000000006044820152606401610940565b826000036121265750600061074f565b6000612133600284612d23565b9050676765c793fa10079d601b1b61214d82600019612cc5565b6121579190612d23565b8411156121765760405162461bcd60e51b815260040161094090612d45565b828161218d676765c793fa10079d601b1b87612d88565b6121979190612c09565b6121a19190612d23565b949350505050565b6121b38282610db0565b610953576121c081612442565b6121cb836020612454565b6040516020016121dc929190612d9f565b60408051601f198184030181529082905262461bcd60e51b8252610940916004016127b0565b6001600160a01b0381163b61226f5760405162461bcd60e51b815260206004820152602d60248201527f455243313936373a206e657720696d706c656d656e746174696f6e206973206e60448201526c1bdd08184818dbdb9d1c9858dd609a1b6064820152608401610940565b600080516020612f6c83398151915280546001600160a01b0319166001600160a01b0392909216919091179055565b6122a7836125f0565b6000825111806122b45750805b156108cf576118ea8383612630565b6000816000036123155760405162461bcd60e51b815260206004820152601c60248201527f4572726f72732e4d4154485f4449564953494f4e5f42595f5a45524f000000006044820152606401610940565b826000036123255750600061074f565b61233c676765c793fa10079d601b1b600019612d23565b83111561235b5760405162461bcd60e51b815260040161094090612d45565b816120ba676765c793fa10079d601b1b85612d88565b600082158061237e575081155b1561238b5750600061074f565b816123a26002676765c793fa10079d601b1b612d23565b6123ae90600019612cc5565b6123b89190612d23565b8311156123d75760405162461bcd60e51b815260040161094090612d45565b676765c793fa10079d601b1b6123ee600282612d23565b6123f88486612d88565b6120ba9190612c09565b600054610100900460ff166124295760405162461bcd60e51b815260040161094090612cd8565b60366124358382612e62565b5060376108cf8282612e62565b606061074f6001600160a01b03831660145b60606000612463836002612d88565b61246e906002612c09565b67ffffffffffffffff811115612486576124866128c5565b6040519080825280601f01601f1916602001820160405280156124b0576020820181803683370190505b509050600360fc1b816000815181106124cb576124cb612f22565b60200101906001600160f81b031916908160001a905350600f60fb1b816001815181106124fa576124fa612f22565b60200101906001600160f81b031916908160001a905350600061251e846002612d88565b612529906001612c09565b90505b60018111156125a1576f181899199a1a9b1b9c1cb0b131b232b360811b85600f166010811061255d5761255d612f22565b1a60f81b82828151811061257357612573612f22565b60200101906001600160f81b031916908160001a90535060049490941c9361259a81612f38565b905061252c565b5083156108345760405162461bcd60e51b815260206004820181905260248201527f537472696e67733a20686578206c656e67746820696e73756666696369656e746044820152606401610940565b6125f981612202565b6040516001600160a01b038216907fbc7cd75a20ee27fd9adebab32041f755214dbc6bffa90cc0225b39da2e5c2d3b90600090a250565b60606001600160a01b0383163b6126985760405162461bcd60e51b815260206004820152602660248201527f416464726573733a2064656c65676174652063616c6c20746f206e6f6e2d636f6044820152651b9d1c9858dd60d21b6064820152608401610940565b600080846001600160a01b0316846040516126b39190612f4f565b600060405180830381855af49150503d80600081146126ee576040519150601f19603f3d011682016040523d82523d6000602084013e6126f3565b606091505b509150915061271b8282604051806060016040528060278152602001612f8c60279139612724565b95945050505050565b60608315612733575081610834565b61083483838151156127485781518083602001fd5b8060405162461bcd60e51b815260040161094091906127b0565b60006020828403121561277457600080fd5b81356001600160e01b03198116811461083457600080fd5b60005b838110156127a757818101518382015260200161278f565b50506000910152565b60208152600082518060208401526127cf81604085016020870161278c565b601f01601f19169190910160400192915050565b6000602082840312156127f557600080fd5b5035919050565b80356001600160a01b038116811461281357600080fd5b919050565b6000806040838503121561282b57600080fd5b612834836127fc565b946020939093013593505050565b60008060006060848603121561285757600080fd5b612860846127fc565b925061286e602085016127fc565b9150604084013590509250925092565b6000806040838503121561289157600080fd5b823591506128a1602084016127fc565b90509250929050565b6000602082840312156128bc57600080fd5b610834826127fc565b634e487b7160e01b600052604160045260246000fd5b600080604083850312156128ee57600080fd5b6128f7836127fc565b9150602083013567ffffffffffffffff8082111561291457600080fd5b818501915085601f83011261292857600080fd5b81358181111561293a5761293a6128c5565b604051601f8201601f19908116603f01168101908382118183101715612962576129626128c5565b8160405282815288602084870101111561297b57600080fd5b8260208601602083013760006020848301015280955050505050509250929050565b803560ff8116811461281357600080fd5b6000602082840312156129c057600080fd5b6108348261299d565b6000806000606084860312156129de57600080fd5b833592506129ee602085016127fc565b91506129fc604085016127fc565b90509250925092565b60008060408385031215612a1857600080fd5b612a21836127fc565b91506128a1602084016127fc565b60008083601f840112612a4157600080fd5b50813567ffffffffffffffff811115612a5957600080fd5b602083019150836020828501011115612a7157600080fd5b9250929050565b60008060008060008060808789031215612a9157600080fd5b612a9a876127fc565b9550602087013567ffffffffffffffff80821115612ab757600080fd5b612ac38a838b01612a2f565b90975095506040890135915080821115612adc57600080fd5b50612ae989828a01612a2f565b9094509250612afc90506060880161299d565b90509295509295509295565b600181811c90821680612b1c57607f821691505b602082108103612b3c57634e487b7160e01b600052602260045260246000fd5b50919050565b600060208284031215612b5457600080fd5b5051919050565b6020808252602c908201527f46756e6374696f6e206d7573742062652063616c6c6564207468726f7567682060408201526b19195b1959d85d1958d85b1b60a21b606082015260800190565b6020808252602c908201527f46756e6374696f6e206d7573742062652063616c6c6564207468726f7567682060408201526b6163746976652070726f787960a01b606082015260800190565b634e487b7160e01b600052601160045260246000fd5b8082018082111561074f5761074f612bf3565b60208082526025908201527f5a65726f206164647265737320666f72207265636569766572206e6f7420616c6040820152641b1bddd95960da1b606082015260800190565b600060208284031215612c7357600080fd5b8151801515811461083457600080fd5b60208082526022908201527f5a65726f206164647265737320666f72206f776e6572206e6f7420616c6c6f77604082015261195960f21b606082015260800190565b8181038181111561074f5761074f612bf3565b6020808252602b908201527f496e697469616c697a61626c653a20636f6e7472616374206973206e6f74206960408201526a6e697469616c697a696e6760a81b606082015260800190565b600082612d4057634e487b7160e01b600052601260045260246000fd5b500490565b60208082526023908201527f4572726f72732e4d4154485f4d554c5449504c49434154494f4e5f4f564552466040820152624c4f5760e81b606082015260800190565b808202811582820484141761074f5761074f612bf3565b7f416363657373436f6e74726f6c3a206163636f756e7420000000000000000000815260008351612dd781601785016020880161278c565b7001034b99036b4b9b9b4b733903937b6329607d1b6017918401918201528351612e0881602884016020880161278c565b01602801949350505050565b601f8211156108cf57600081815260208120601f850160051c81016020861015612e3b5750805b601f850160051c820191505b81811015612e5a57828155600101612e47565b505050505050565b815167ffffffffffffffff811115612e7c57612e7c6128c5565b612e9081612e8a8454612b08565b84612e14565b602080601f831160018114612ec55760008415612ead5750858301515b600019600386901b1c1916600185901b178555612e5a565b600085815260208120601f198616915b82811015612ef457888601518255948401946001909101908401612ed5565b5085821015612f125787850151600019600388901b60f8161c191681555b5050505050600190811b01905550565b634e487b7160e01b600052603260045260246000fd5b600081612f4757612f47612bf3565b506000190190565b60008251612f6181846020870161278c565b919091019291505056fe360894a13ba1a3210667c828492db98dca3e2076cc3735a920a3ca505d382bbc416464726573733a206c6f772d6c6576656c2064656c65676174652063616c6c206661696c6564a2646970667358221220b8f869120dfce0e5e7685c7859d1958133d0e8f1f758e97b9a72b29f2bd37a1664736f6c63430008110033",
  "implementation": "0xE3434045a3bE5376e8d3Cf841981835996561f80",
  "devdoc": {
    "kind": "dev",
    "methods": {
      "allowance(address,address)": {
        "details": "See {IERC20-allowance}."
      },
      "approve(address,uint256)": {
        "details": "See {IERC20-approve}. NOTE: If `amount` is the maximum `uint256`, the allowance is not updated on `transferFrom`. This is semantically equivalent to an infinite approval. Requirements: - `spender` cannot be the zero address."
      },
      "balanceOf(address)": {
        "details": "See {IERC20-balanceOf}."
      },
      "constructor": {
        "custom:oz-upgrades-unsafe-allow": "constructor"
      },
      "convertToAssets(uint256)": {
        "details": "The amount of assets that the Vault would exchange for the amount of shares provided, in an ideal scenario where all the conditions are met."
      },
      "convertToShares(uint256)": {
        "details": "The amount of shares that the Vault would exchange for the amount of assets provided, in an ideal scenario where all the conditions are met."
      },
      "decimals()": {
        "details": "Returns the number of decimals used to get its user representation. For example, if `decimals` equals `2`, a balance of `505` tokens should be displayed to a user as `5.05` (`505 / 10 ** 2`). Tokens usually opt for a value of 18, imitating the relationship between Ether and Wei. This is the value {ERC20} uses, unless this function is overridden; NOTE: This information is only used for _display_ purposes: it in no way affects any of the arithmetic of the contract, including {IERC20-balanceOf} and {IERC20-transfer}."
      },
      "decreaseAllowance(address,uint256)": {
        "details": "Atomically decreases the allowance granted to `spender` by the caller. This is an alternative to {approve} that can be used as a mitigation for problems described in {IERC20-approve}. Emits an {Approval} event indicating the updated allowance. Requirements: - `spender` cannot be the zero address. - `spender` must have allowance for the caller of at least `subtractedValue`."
      },
      "deposit(uint256,address)": {
        "details": "Mints `shares` Vault shares to `receiver` by depositing exactly `amount` of underlying tokens."
      },
      "getRoleAdmin(bytes32)": {
        "details": "Returns the admin role that controls `role`. See {grantRole} and {revokeRole}. To change a role's admin, use {_setRoleAdmin}."
      },
      "grantRole(bytes32,address)": {
        "details": "Grants `role` to `account`. If `account` had not been already granted `role`, emits a {RoleGranted} event. Requirements: - the caller must have ``role``'s admin role. May emit a {RoleGranted} event."
      },
      "hasRole(bytes32,address)": {
        "details": "Returns `true` if `account` has been granted `role`."
      },
      "increaseAllowance(address,uint256)": {
        "details": "Atomically increases the allowance granted to `spender` by the caller. This is an alternative to {approve} that can be used as a mitigation for problems described in {IERC20-approve}. Emits an {Approval} event indicating the updated allowance. Requirements: - `spender` cannot be the zero address."
      },
      "maxDeposit(address)": {
        "details": "Maximum amount of the underlying asset that can be deposited into the Vault for the receiver, through a deposit call."
      },
      "maxMint(address)": {
        "details": "Maximum amount of shares that can be minted from the Vault for the receiver, through a mint call."
      },
      "maxRedeem(address)": {
        "details": "Maximum amount of Vault shares that can be redeemed from the owner balance in the Vault, through a redeem call."
      },
      "maxWithdraw(address)": {
        "details": "Maximum amount of the underlying asset that can be withdrawn from the owner balance in the Vault, through a withdraw call."
      },
      "mint(uint256,address)": {
        "details": "Mints exactly shares Vault shares to receiver by depositing amount of underlying tokens."
      },
      "name()": {
        "details": "Returns the name of the token."
      },
      "previewDeposit(uint256)": {
        "details": "Allows an on-chain or off-chain user to simulate the effects of their deposit at the current block, given current on-chain conditions."
      },
      "previewMint(uint256)": {
        "details": "Allows an on-chain or off-chain user to simulate the effects of their mint at the current block, given current on-chain conditions."
      },
      "previewRedeem(uint256)": {
        "details": "Allows an on-chain or off-chain user to simulate the effects of their redeemption at the current block, given current on-chain conditions."
      },
      "previewWithdraw(uint256)": {
        "details": "Allows an on-chain or off-chain user to simulate the effects of their withdrawal at the current block, given current on-chain conditions."
      },
      "proxiableUUID()": {
        "details": "Implementation of the ERC1822 {proxiableUUID} function. This returns the storage slot used by the implementation. It is used to validate the implementation's compatibility when performing an upgrade. IMPORTANT: A proxy pointing at a proxiable contract should not be considered proxiable itself, because this risks bricking a proxy that upgrades to it, by delegating to itself until out of gas. Thus it is critical that this function revert if invoked through a proxy. This is guaranteed by the `notDelegated` modifier."
      },
      "redeem(uint256,address,address)": {
        "details": "Burns exactly shares from owner and sends assets of underlying tokens to receiver."
      },
      "renounceRole(bytes32,address)": {
        "details": "Revokes `role` from the calling account. Roles are often managed via {grantRole} and {revokeRole}: this function's purpose is to provide a mechanism for accounts to lose their privileges if they are compromised (such as when a trusted device is misplaced). If the calling account had been revoked `role`, emits a {RoleRevoked} event. Requirements: - the caller must be `account`. May emit a {RoleRevoked} event."
      },
      "revokeRole(bytes32,address)": {
        "details": "Revokes `role` from `account`. If `account` had been granted `role`, emits a {RoleRevoked} event. Requirements: - the caller must have ``role``'s admin role. May emit a {RoleRevoked} event."
      },
      "supportsInterface(bytes4)": {
        "details": "See {IERC165-supportsInterface}."
      },
      "symbol()": {
        "details": "Returns the symbol of the token, usually a shorter version of the name."
      },
      "totalAssets()": {
        "details": "Total amount of the underlying asset that is managed by Vault*"
      },
      "totalSupply()": {
        "details": "See {IERC20-totalSupply}."
      },
      "transfer(address,uint256)": {
        "details": "See {IERC20-transfer}. Requirements: - `to` cannot be the zero address. - the caller must have a balance of at least `amount`."
      },
      "transferFrom(address,address,uint256)": {
        "details": "See {IERC20-transferFrom}. Emits an {Approval} event indicating the updated allowance. This is not required by the EIP. See the note at the beginning of {ERC20}. NOTE: Does not update the allowance if the current allowance is the maximum `uint256`. Requirements: - `from` and `to` cannot be the zero address. - `from` must have a balance of at least `amount`. - the caller must have allowance for ``from``'s tokens of at least `amount`."
      },
      "upgradeTo(address)": {
        "details": "Upgrade the implementation of the proxy to `newImplementation`. Calls {_authorizeUpgrade}. Emits an {Upgraded} event."
      },
      "upgradeToAndCall(address,bytes)": {
        "details": "Upgrade the implementation of the proxy to `newImplementation`, and subsequently execute the function call encoded in `data`. Calls {_authorizeUpgrade}. Emits an {Upgraded} event."
      },
      "withdraw(uint256,address,address)": {
        "details": "Burns shares from owner and sends exactly assets of underlying tokens to receiver."
      }
    },
    "version": 1
  },
  "userdoc": {
    "kind": "user",
    "methods": {},
    "version": 1
  },
  "storageLayout": {
    "storage": [
      {
        "astId": 804,
        "contract": "contracts/WrappedUsdPlusToken.sol:WrappedUsdPlusToken",
        "label": "_initialized",
        "offset": 0,
        "slot": "0",
        "type": "t_uint8"
      },
      {
        "astId": 807,
        "contract": "contracts/WrappedUsdPlusToken.sol:WrappedUsdPlusToken",
        "label": "_initializing",
        "offset": 1,
        "slot": "0",
        "type": "t_bool"
      },
      {
        "astId": 2142,
        "contract": "contracts/WrappedUsdPlusToken.sol:WrappedUsdPlusToken",
        "label": "__gap",
        "offset": 0,
        "slot": "1",
        "type": "t_array(t_uint256)50_storage"
      },
      {
        "astId": 1121,
        "contract": "contracts/WrappedUsdPlusToken.sol:WrappedUsdPlusToken",
        "label": "_balances",
        "offset": 0,
        "slot": "51",
        "type": "t_mapping(t_address,t_uint256)"
      },
      {
        "astId": 1127,
        "contract": "contracts/WrappedUsdPlusToken.sol:WrappedUsdPlusToken",
        "label": "_allowances",
        "offset": 0,
        "slot": "52",
        "type": "t_mapping(t_address,t_mapping(t_address,t_uint256))"
      },
      {
        "astId": 1129,
        "contract": "contracts/WrappedUsdPlusToken.sol:WrappedUsdPlusToken",
        "label": "_totalSupply",
        "offset": 0,
        "slot": "53",
        "type": "t_uint256"
      },
      {
        "astId": 1131,
        "contract": "contracts/WrappedUsdPlusToken.sol:WrappedUsdPlusToken",
        "label": "_name",
        "offset": 0,
        "slot": "54",
        "type": "t_string_storage"
      },
      {
        "astId": 1133,
        "contract": "contracts/WrappedUsdPlusToken.sol:WrappedUsdPlusToken",
        "label": "_symbol",
        "offset": 0,
        "slot": "55",
        "type": "t_string_storage"
      },
      {
        "astId": 1713,
        "contract": "contracts/WrappedUsdPlusToken.sol:WrappedUsdPlusToken",
        "label": "__gap",
        "offset": 0,
        "slot": "56",
        "type": "t_array(t_uint256)45_storage"
      },
      {
        "astId": 2421,
        "contract": "contracts/WrappedUsdPlusToken.sol:WrappedUsdPlusToken",
        "label": "__gap",
        "offset": 0,
        "slot": "101",
        "type": "t_array(t_uint256)50_storage"
      },
      {
        "astId": 39,
        "contract": "contracts/WrappedUsdPlusToken.sol:WrappedUsdPlusToken",
        "label": "_roles",
        "offset": 0,
        "slot": "151",
        "type": "t_mapping(t_bytes32,t_struct(RoleData)34_storage)"
      },
      {
        "astId": 334,
        "contract": "contracts/WrappedUsdPlusToken.sol:WrappedUsdPlusToken",
        "label": "__gap",
        "offset": 0,
        "slot": "152",
        "type": "t_array(t_uint256)49_storage"
      },
      {
        "astId": 786,
        "contract": "contracts/WrappedUsdPlusToken.sol:WrappedUsdPlusToken",
        "label": "__gap",
        "offset": 0,
        "slot": "201",
        "type": "t_array(t_uint256)50_storage"
      },
      {
        "astId": 1101,
        "contract": "contracts/WrappedUsdPlusToken.sol:WrappedUsdPlusToken",
        "label": "__gap",
        "offset": 0,
        "slot": "251",
        "type": "t_array(t_uint256)50_storage"
      },
      {
        "astId": 25428,
        "contract": "contracts/WrappedUsdPlusToken.sol:WrappedUsdPlusToken",
        "label": "asset",
        "offset": 0,
        "slot": "301",
        "type": "t_contract(IUsdPlusToken)22992"
      },
      {
        "astId": 25430,
        "contract": "contracts/WrappedUsdPlusToken.sol:WrappedUsdPlusToken",
        "label": "_decimals",
        "offset": 20,
        "slot": "301",
        "type": "t_uint8"
      }
    ],
    "types": {
      "t_address": {
        "encoding": "inplace",
        "label": "address",
        "numberOfBytes": "20"
      },
      "t_array(t_uint256)45_storage": {
        "base": "t_uint256",
        "encoding": "inplace",
        "label": "uint256[45]",
        "numberOfBytes": "1440"
      },
      "t_array(t_uint256)49_storage": {
        "base": "t_uint256",
        "encoding": "inplace",
        "label": "uint256[49]",
        "numberOfBytes": "1568"
      },
      "t_array(t_uint256)50_storage": {
        "base": "t_uint256",
        "encoding": "inplace",
        "label": "uint256[50]",
        "numberOfBytes": "1600"
      },
      "t_bool": {
        "encoding": "inplace",
        "label": "bool",
        "numberOfBytes": "1"
      },
      "t_bytes32": {
        "encoding": "inplace",
        "label": "bytes32",
        "numberOfBytes": "32"
      },
      "t_contract(IUsdPlusToken)22992": {
        "encoding": "inplace",
        "label": "contract IUsdPlusToken",
        "numberOfBytes": "20"
      },
      "t_mapping(t_address,t_bool)": {
        "encoding": "mapping",
        "key": "t_address",
        "label": "mapping(address => bool)",
        "numberOfBytes": "32",
        "value": "t_bool"
      },
      "t_mapping(t_address,t_mapping(t_address,t_uint256))": {
        "encoding": "mapping",
        "key": "t_address",
        "label": "mapping(address => mapping(address => uint256))",
        "numberOfBytes": "32",
        "value": "t_mapping(t_address,t_uint256)"
      },
      "t_mapping(t_address,t_uint256)": {
        "encoding": "mapping",
        "key": "t_address",
        "label": "mapping(address => uint256)",
        "numberOfBytes": "32",
        "value": "t_uint256"
      },
      "t_mapping(t_bytes32,t_struct(RoleData)34_storage)": {
        "encoding": "mapping",
        "key": "t_bytes32",
        "label": "mapping(bytes32 => struct AccessControlUpgradeable.RoleData)",
        "numberOfBytes": "32",
        "value": "t_struct(RoleData)34_storage"
      },
      "t_string_storage": {
        "encoding": "bytes",
        "label": "string",
        "numberOfBytes": "32"
      },
      "t_struct(RoleData)34_storage": {
        "encoding": "inplace",
        "label": "struct AccessControlUpgradeable.RoleData",
        "members": [
          {
            "astId": 31,
            "contract": "contracts/WrappedUsdPlusToken.sol:WrappedUsdPlusToken",
            "label": "members",
            "offset": 0,
            "slot": "0",
            "type": "t_mapping(t_address,t_bool)"
          },
          {
            "astId": 33,
            "contract": "contracts/WrappedUsdPlusToken.sol:WrappedUsdPlusToken",
            "label": "adminRole",
            "offset": 0,
            "slot": "1",
            "type": "t_bytes32"
          }
        ],
        "numberOfBytes": "64"
      },
      "t_uint256": {
        "encoding": "inplace",
        "label": "uint256",
        "numberOfBytes": "32"
      },
      "t_uint8": {
        "encoding": "inplace",
        "label": "uint8",
        "numberOfBytes": "1"
      }
    }
  }
}