{
  "address": "0x84a62259E8B960deF3347bBe6945f1A4243972b2",
  "abi": [
    {
      "anonymous": false,
      "inputs": [
        {
          "indexed": false,
          "internalType": "uint256",
          "name": "amount0",
          "type": "uint256"
        },
        {
          "indexed": false,
          "internalType": "uint256",
          "name": "amount1",
          "type": "uint256"
        }
      ],
      "name": "CollectRewards",
      "type": "event"
    },
    {
      "inputs": [
        {
          "internalType": "uint256",
          "name": "tokenId",
          "type": "uint256"
        },
        {
          "internalType": "address",
          "name": "sender",
          "type": "address"
        }
      ],
      "name": "checkForOwner",
      "outputs": [],
      "stateMutability": "view",
      "type": "function"
    },
    {
      "inputs": [
        {
          "internalType": "uint256",
          "name": "tokenId",
          "type": "uint256"
        },
        {
          "internalType": "address",
          "name": "recipient",
          "type": "address"
        },
        {
          "internalType": "address",
          "name": "feeRecipient",
          "type": "address"
        }
      ],
      "name": "closePosition",
      "outputs": [],
      "stateMutability": "nonpayable",
      "type": "function"
    },
    {
      "inputs": [
        {
          "internalType": "uint256",
          "name": "tokenId",
          "type": "uint256"
        }
      ],
      "name": "getPool",
      "outputs": [
        {
          "internalType": "address",
          "name": "",
          "type": "address"
        }
      ],
      "stateMutability": "view",
      "type": "function"
    },
    {
      "inputs": [
        {
          "internalType": "uint256",
          "name": "tokenId",
          "type": "uint256"
        }
      ],
      "name": "getPositionAmounts",
      "outputs": [
        {
          "internalType": "uint256",
          "name": "",
          "type": "uint256"
        },
        {
          "internalType": "uint256",
          "name": "",
          "type": "uint256"
        }
      ],
      "stateMutability": "view",
      "type": "function"
    },
    {
      "inputs": [
        {
          "internalType": "address",
          "name": "wallet",
          "type": "address"
        }
      ],
      "name": "getPositions",
      "outputs": [
        {
          "components": [
            {
              "internalType": "string",
              "name": "platform",
              "type": "string"
            },
            {
              "internalType": "uint256",
              "name": "tokenId",
              "type": "uint256"
            },
            {
              "internalType": "address",
              "name": "poolId",
              "type": "address"
            },
            {
              "internalType": "address",
              "name": "token0",
              "type": "address"
            },
            {
              "internalType": "address",
              "name": "token1",
              "type": "address"
            },
            {
              "internalType": "uint256",
              "name": "amount0",
              "type": "uint256"
            },
            {
              "internalType": "uint256",
              "name": "amount1",
              "type": "uint256"
            },
            {
              "internalType": "uint256",
              "name": "fee0",
              "type": "uint256"
            },
            {
              "internalType": "uint256",
              "name": "fee1",
              "type": "uint256"
            },
            {
              "internalType": "uint256",
              "name": "emissions",
              "type": "uint256"
            },
            {
              "internalType": "int24",
              "name": "tickLower",
              "type": "int24"
            },
            {
              "internalType": "int24",
              "name": "tickUpper",
              "type": "int24"
            },
            {
              "internalType": "int24",
              "name": "currentTick",
              "type": "int24"
            },
            {
              "internalType": "bool",
              "name": "isStaked",
              "type": "bool"
            }
          ],
          "internalType": "struct IPositionManagerFacet.PositionInfo[]",
          "name": "result",
          "type": "tuple[]"
        }
      ],
      "stateMutability": "view",
      "type": "function"
    },
    {
      "inputs": [
        {
          "internalType": "uint256",
          "name": "tokenId",
          "type": "uint256"
        }
      ],
      "name": "getTicks",
      "outputs": [
        {
          "internalType": "int24",
          "name": "",
          "type": "int24"
        },
        {
          "internalType": "int24",
          "name": "",
          "type": "int24"
        }
      ],
      "stateMutability": "view",
      "type": "function"
    },
    {
      "inputs": [
        {
          "internalType": "uint256",
          "name": "tokenId",
          "type": "uint256"
        }
      ],
      "name": "getTokens",
      "outputs": [
        {
          "internalType": "address",
          "name": "",
          "type": "address"
        },
        {
          "internalType": "address",
          "name": "",
          "type": "address"
        }
      ],
      "stateMutability": "view",
      "type": "function"
    },
    {
      "inputs": [
        {
          "internalType": "uint256",
          "name": "tokenId",
          "type": "uint256"
        },
        {
          "internalType": "uint256",
          "name": "amount0",
          "type": "uint256"
        },
        {
          "internalType": "uint256",
          "name": "amount1",
          "type": "uint256"
        }
      ],
      "name": "increaseLiquidity",
      "outputs": [
        {
          "internalType": "uint128",
          "name": "liquidity",
          "type": "uint128"
        }
      ],
      "stateMutability": "nonpayable",
      "type": "function"
    },
    {
      "inputs": [
        {
          "internalType": "address",
          "name": "pair",
          "type": "address"
        },
        {
          "internalType": "int24",
          "name": "tickRange0",
          "type": "int24"
        },
        {
          "internalType": "int24",
          "name": "tickRange1",
          "type": "int24"
        },
        {
          "internalType": "uint256",
          "name": "amountOut0",
          "type": "uint256"
        },
        {
          "internalType": "uint256",
          "name": "amountOut1",
          "type": "uint256"
        },
        {
          "internalType": "address",
          "name": "recipient",
          "type": "address"
        }
      ],
      "name": "mintPosition",
      "outputs": [
        {
          "internalType": "uint256",
          "name": "tokenId",
          "type": "uint256"
        }
      ],
      "stateMutability": "nonpayable",
      "type": "function"
    }
  ],
  "transactionHash": "0x89b3693cddfcf0682b862f6794b2c9cd4e68d9d190a46ba651419658afb101fb",
  "args": [],
  "numDeployments": 5,
  "solcInputHash": "d8647dee6c87f238b065f65b3a60af8f",
  "bytecode": "0x608060405234801561001057600080fd5b50612b0f806100206000396000f3fe608060405234801561001057600080fd5b50600436106100835760003560e01c8063068bcd8d146100885780631587d2b5146100b15780633eeb530e146100d25780639ac23861146100f25780639d4ad6f114610107578063a855840a14610134578063d26265e014610147578063d3c9cc261461016f578063e115bc5c146101a2575b600080fd5b61009b61009636600461222e565b6101cd565b6040516100a89190612247565b60405180910390f35b6100c46100bf366004612282565b61021c565b6040519081526020016100a8565b6100e56100e03660046122f2565b610478565b6040516100a89190612355565b61010561010036600461249b565b6107e9565b005b61011a61011536600461222e565b61095f565b60408051600293840b81529190920b6020820152016100a8565b6101056101423660046124cb565b6109a7565b61015a61015536600461222e565b610b9a565b604080519283526020830191909152016100a8565b61018261017d36600461222e565b610ba6565b604080516001600160a01b039384168152929091166020830152016100a8565b6101b56101b036600461250d565b610be5565b6040516001600160801b0390911681526020016100a8565b6000336101d8610cfb565b600301546001600160a01b03161461020b5760405162461bcd60e51b815260040161020290612539565b60405180910390fd5b61021482610d1f565b90505b919050565b600033610227610cfb565b600301546001600160a01b0316146102515760405162461bcd60e51b815260040161020290612539565b60008790506000604051806101600160405280836001600160a01b0316630dfe16816040518163ffffffff1660e01b8152600401602060405180830381865afa1580156102a2573d6000803e3d6000fd5b505050506040513d601f19601f820116820180604052508101906102c69190612573565b6001600160a01b03168152602001836001600160a01b031663d21220a76040518163ffffffff1660e01b8152600401602060405180830381865afa158015610312573d6000803e3d6000fd5b505050506040513d601f19601f820116820180604052508101906103369190612573565b6001600160a01b03168152602001836001600160a01b031663ddca3f436040518163ffffffff1660e01b8152600401602060405180830381865afa158015610382573d6000803e3d6000fd5b505050506040513d601f19601f820116820180604052508101906103a691906125a3565b62ffffff1681526020018960020b81526020018860020b81526020018781526020018681526020016000815260200160008152602001856001600160a01b031681526020014281525090506103f9610ea0565b6001600160a01b03166388316456826040518263ffffffff1660e01b815260040161042491906125be565b6080604051808303816000875af1158015610443573d6000803e3d6000fd5b505050506040513d601f19601f820116820180604052508101906104679190612699565b50919b9a5050505050505050505050565b6060600061048583610ebc565b9050600061049284610fff565b9050600061049e610ea0565b6001600160a01b03166370a08231866040518263ffffffff1660e01b81526004016104c99190612247565b602060405180830381865afa1580156104e6573d6000803e3d6000fd5b505050506040513d601f19601f8201168201806040525081019061050a91906126d5565b905060006105188385612704565b67ffffffffffffffff81111561053057610530612717565b60405190808252806020026020018201604052801561056957816020015b610556612199565b81526020019060019003908161054e5790505b506040516370a0823160e01b8152909550735e09acf80c0296740ec5d6f643005a4ef8daa6949060009082906370a08231906105a9908b90600401612247565b602060405180830381865afa1580156105c6573d6000803e3d6000fd5b505050506040513d601f19601f820116820180604052508101906105ea91906126d5565b905060005b818110156106f557604051632f745c5960e01b81526000906001600160a01b03851690632f745c5990610628908d90869060040161272d565b602060405180830381865afa158015610645573d6000803e3d6000fd5b505050506040513d601f19601f8201168201806040525081019061066991906126d5565b905060006106768261113f565b6001600160801b031611156106e25761068e816111ca565b8986815181106106a0576106a0612746565b602002602001018190525060018986815181106106bf576106bf612746565b60209081029190910101519015156101a090910152846106de8161275c565b9550505b50806106ed8161275c565b9150506105ef565b5060005b848110156107dd57600061070b610ea0565b6001600160a01b0316632f745c598b846040518363ffffffff1660e01b815260040161073892919061272d565b602060405180830381865afa158015610755573d6000803e3d6000fd5b505050506040513d601f19601f8201168201806040525081019061077991906126d5565b905060006107868261113f565b6001600160801b031611156107ca5761079e816111ca565b8986815181106107b0576107b0612746565b602002602001018190525084806107c69061275c565b9550505b50806107d58161275c565b9150506106f9565b50505050505050919050565b6000806107f4610ea0565b6001600160a01b03166370a08231846040518263ffffffff1660e01b815260040161081f9190612247565b602060405180830381865afa15801561083c573d6000803e3d6000fd5b505050506040513d601f19601f8201168201806040525081019061086091906126d5565b905060005b8181101561090b576000610877610ea0565b6001600160a01b0316632f745c5986846040518363ffffffff1660e01b81526004016108a492919061272d565b602060405180830381865afa1580156108c1573d6000803e3d6000fd5b505050506040513d601f19601f820116820180604052508101906108e591906126d5565b90508086036108f857600193505061090b565b50806109038161275c565b915050610865565b50816109595760405162461bcd60e51b815260206004820152601c60248201527f43616c6c657220646f65736e2774206f776e2074686520746f6b656e000000006044820152606401610202565b50505050565b6000803361096b610cfb565b600301546001600160a01b0316146109955760405162461bcd60e51b815260040161020290612539565b61099e83611302565b91509150915091565b336109b0610cfb565b600301546001600160a01b0316146109da5760405162461bcd60e51b815260040161020290612539565b60006040518060a001604052808581526020016109f68661113f565b6001600160801b031681526020016000815260200160008152602001428152509050600080610a258685611391565b60408051838152602081018390529294509092507f3bb500040acf6744b9c1f9f77110724e120e1a451602598b17d9d1df202c5242910160405180910390a160208301516001600160801b031615610b1f57610a7f610ea0565b60408051630624e65f60e11b81528551600482015260208601516001600160801b0316602482015290850151604482015260608501516064820152608085015160848201526001600160a01b039190911690630c49ccbe9060a40160408051808303816000875af1158015610af8573d6000803e3d6000fd5b505050506040513d601f19601f82011682018060405250810190610b1c9190612775565b50505b610b298686611391565b5050610b33610ea0565b6001600160a01b03166342966c68876040518263ffffffff1660e01b8152600401610b6091815260200190565b600060405180830381600087803b158015610b7a57600080fd5b505af1158015610b8e573d6000803e3d6000fd5b50505050505050505050565b60008061099e83611473565b60008033610bb2610cfb565b600301546001600160a01b031614610bdc5760405162461bcd60e51b815260040161020290612539565b61099e83611531565b600033610bf0610cfb565b600301546001600160a01b031614610c1a5760405162461bcd60e51b815260040161020290612539565b6040805160c0810182528581526020810185905290810183905260006060820181905260808201524260a0820152610c50610ea0565b6040805163219f5d1760e01b81528351600482015260208401516024820152908301516044820152606083015160648201526080830151608482015260a083015160a48201526001600160a01b03919091169063219f5d179060c4016060604051808303816000875af1158015610ccb573d6000803e3d6000fd5b505050506040513d601f19601f82011682018060405250810190610cef9190612799565b50909695505050505050565b7f515bff1426cf6c4fb5ebb9b3e24eeca6b61f1bf3996e6c15108dda282fa29a4390565b6000806000610d2d84611531565b915091506000610d3b610ea0565b6001600160a01b03166399fbab88866040518263ffffffff1660e01b8152600401610d6891815260200190565b61018060405180830381865afa158015610d86573d6000803e3d6000fd5b505050506040513d601f19601f82011682018060405250810190610daa91906127d9565b505050505050509450505050506000610dc1610ea0565b6001600160a01b031663c45a01556040518163ffffffff1660e01b8152600401602060405180830381865afa158015610dfe573d6000803e3d6000fd5b505050506040513d601f19601f82011682018060405250810190610e229190612573565b604051630b4c774160e11b81529091506001600160a01b03821690631698ee8290610e55908790879087906004016128ba565b602060405180830381865afa158015610e72573d6000803e3d6000fd5b505050506040513d601f19601f82011682018060405250810190610e969190612573565b9695505050505050565b6000610eaa610cfb565b600101546001600160a01b0316919050565b6040516370a0823160e01b8152600090735e09acf80c0296740ec5d6f643005a4ef8daa69490829082906370a0823190610efa908790600401612247565b602060405180830381865afa158015610f17573d6000803e3d6000fd5b505050506040513d601f19601f82011682018060405250810190610f3b91906126d5565b905060005b81811015610ff757604051632f745c5960e01b81526000906001600160a01b03851690632f745c5990610f79908990869060040161272d565b602060405180830381865afa158015610f96573d6000803e3d6000fd5b505050506040513d601f19601f82011682018060405250810190610fba91906126d5565b90506000610fc78261113f565b6001600160801b03161115610fe45784610fe08161275c565b9550505b5080610fef8161275c565b915050610f40565b505050919050565b60008061100a610ea0565b6001600160a01b03166370a08231846040518263ffffffff1660e01b81526004016110359190612247565b602060405180830381865afa158015611052573d6000803e3d6000fd5b505050506040513d601f19601f8201168201806040525081019061107691906126d5565b905060005b8181101561113857600061108d610ea0565b6001600160a01b0316632f745c5986846040518363ffffffff1660e01b81526004016110ba92919061272d565b602060405180830381865afa1580156110d7573d6000803e3d6000fd5b505050506040513d601f19601f820116820180604052508101906110fb91906126d5565b905060006111088261113f565b6001600160801b0316111561112557836111218161275c565b9450505b50806111308161275c565b91505061107b565b5050919050565b6000611149610ea0565b6001600160a01b03166399fbab88836040518263ffffffff1660e01b815260040161117691815260200190565b61018060405180830381865afa158015611194573d6000803e3d6000fd5b505050506040513d601f19601f820116820180604052508101906111b891906127d9565b50929c9b505050505050505050505050565b6111d2612199565b6111da612199565b60408051808201909152600381526250435360e81b602080830191909152908252810183905261120983611531565b6001600160a01b03908116608084015216606082015261122883611302565b600290810b6101608401520b61014082015261124383610d1f565b6001600160a01b031660408083018290528051633850c7bd60e01b815290518291633850c7bd9160048083019260e09291908290030181865afa15801561128e573d6000803e3d6000fd5b505050506040513d601f19601f820116820180604052508101906112b29190612918565b5050505060029190910b610180850152506112ce905084611473565b60c084015260a08301526112e1846115c0565b61010084015260e08301526112f5846115de565b6101208301525092915050565b60008061130d610ea0565b6001600160a01b03166399fbab88846040518263ffffffff1660e01b815260040161133a91815260200190565b61018060405180830381865afa158015611358573d6000803e3d6000fd5b505050506040513d601f19601f8201168201806040525081019061137c91906127d9565b50949d939c50929a5050505050505050505050565b604080516080810182528381526001600160a01b03831660208201526001600160801b03918101829052606081019190915260009081906113d0610ea0565b6040805163fc6f786560e01b81528351600482015260208401516001600160a01b039081166024830152918401516001600160801b039081166044830152606085015116606482015291169063fc6f78659060840160408051808303816000875af1158015611443573d6000803e3d6000fd5b505050506040513d601f19601f820116820180604052508101906114679190612775565b92509250509250929050565b600080600061148184610d1f565b905060008061148f86611302565b915091506000836001600160a01b0316633850c7bd6040518163ffffffff1660e01b815260040160e060405180830381865afa1580156114d3573d6000803e3d6000fd5b505050506040513d601f19601f820116820180604052508101906114f79190612918565b50505050505090506115238161150c8561165e565b6115158561165e565b61151e8b61113f565b611a31565b909890975095505050505050565b60008061153c610ea0565b6001600160a01b03166399fbab88846040518263ffffffff1660e01b815260040161156991815260200190565b61018060405180830381865afa158015611587573d6000803e3d6000fd5b505050506040513d601f19601f820116820180604052508101906115ab91906127d9565b50979d969c50959a5050505050505050505050565b6000806115d46115ce610ea0565b84611acd565b9094909350915050565b60405163672f9ce360e11b815260048101829052600090735e09acf80c0296740ec5d6f643005a4ef8daa69490819063ce5f39c690602401602060405180830381865afa158015611633573d6000803e3d6000fd5b505050506040513d601f19601f8201168201806040525081019061165791906126d5565b9392505050565b60008060008360020b12611675578260020b611682565b8260020b611682906129a3565b905060008160011660000361169b57600160801b6116ad565b6ffffcb933bd6fad37aa2d162d1a5940015b6001600160881b0316905060028216156116e25760806116dd826ffff97272373d413259a46990580e213a6129bf565b901c90505b600482161561170c576080611707826ffff2e50f5f656932ef12357cf3c7fdcc6129bf565b901c90505b6008821615611736576080611731826fffe5caca7e10e4e61c3624eaa0941cd06129bf565b901c90505b601082161561176057608061175b826fffcb9843d60f6159c9db58835c9266446129bf565b901c90505b602082161561178a576080611785826fff973b41fa98c081472e6896dfb254c06129bf565b901c90505b60408216156117b45760806117af826fff2ea16466c96a3843ec78b326b528616129bf565b901c90505b60808216156117de5760806117d9826ffe5dee046a99a2a811c461f1969c30536129bf565b901c90505b610100821615611809576080611804826ffcbe86c7900a88aedcffc83b479aa3a46129bf565b901c90505b61020082161561183457608061182f826ff987a7253ac413176f2b074cf7815e546129bf565b901c90505b61040082161561185f57608061185a826ff3392b0822b70005940c7a398e4b70f36129bf565b901c90505b61080082161561188a576080611885826fe7159475a2c29b7443b29c7fa6e889d96129bf565b901c90505b6110008216156118b55760806118b0826fd097f3bdfd2022b8845ad8f792aa58256129bf565b901c90505b6120008216156118e05760806118db826fa9f746462d870fdf8a65dc1f90e061e56129bf565b901c90505b61400082161561190b576080611906826f70d869a156d2a1b890bb3df62baf32f76129bf565b901c90505b618000821615611936576080611931826f31be135f97d08fd981231505542fcfa66129bf565b901c90505b6201000082161561196257608061195d826f09aa508b5b7a84e1c677de54f3e99bc96129bf565b901c90505b6202000082161561198d576080611988826e5d6af8dedb81196699c329225ee6046129bf565b901c90505b620400008216156119b75760806119b2826d2216e584f5fa1ea926041bedfe986129bf565b901c90505b620800008216156119df5760806119da826b048a170391f7dc42444e8fa26129bf565b901c90505b60008460020b13156119fa576119f7816000196129ec565b90505b611a0964010000000082612a00565b15611a15576001611a18565b60005b611a299060ff16602083901c612704565b949350505050565b600080836001600160a01b0316856001600160a01b03161115611a52579293925b846001600160a01b0316866001600160a01b031611611a7d57611a76858585611c01565b9150611ac4565b836001600160a01b0316866001600160a01b03161015611ab657611aa2868585611c01565b9150611aaf858785611c6b565b9050611ac4565b611ac1858585611c6b565b90505b94509492505050565b6000806000806000806000806000806000808d6001600160a01b03166399fbab888e6040518263ffffffff1660e01b8152600401611b0d91815260200190565b61018060405180830381865afa158015611b2b573d6000803e3d6000fd5b505050506040513d601f19601f82011682018060405250810190611b4f91906127d9565b6001600160801b03169b506001600160801b03169b509b509b509b509b509b509b509b509b505050611bec8e6040518061014001604052808d6001600160a01b031681526020018c6001600160a01b031681526020018b62ffffff1681526020018a60020b81526020018960020b8152602001886001600160801b0316815260200187815260200186815260200185815260200184815250611cb5565b9b509b50505050505050505050509250929050565b6000826001600160a01b0316846001600160a01b03161115611c21579192915b6001600160a01b038416611c61600160601b600160e01b03606085901b16611c498787612a14565b6001600160a01b0316866001600160a01b0316611e1a565b611a2991906129ec565b6000826001600160a01b0316846001600160a01b03161115611c8b579192915b611a296001600160801b038316611ca28686612a14565b6001600160a01b0316600160601b611e1a565b60008082610100015191508261012001519050600080611dbb866001600160a01b031663c45a01556040518163ffffffff1660e01b8152600401602060405180830381865afa158015611d0c573d6000803e3d6000fd5b505050506040513d601f19601f82011682018060405250810190611d309190612573565b6001600160a01b0316631698ee828760000151886020015189604001516040518463ffffffff1660e01b8152600401611d6b939291906128ba565b602060405180830381865afa158015611d88573d6000803e3d6000fd5b505050506040513d601f19601f82011682018060405250810190611dac9190612573565b86606001518760800151611ec8565b91509150611de8611dd0838760c0015161218f565b8660a001516001600160801b0316600160801b611e1a565b611df29085612704565b9350611e05611dd0828760e0015161218f565b611e0f9084612704565b925050509250929050565b6000808060001985870985870292508281108382030391505080600003611e535760008411611e4857600080fd5b508290049050611657565b808411611e5f57600080fd5b60008486880960026001871981018816978890046003810283188082028403028082028403028082028403028082028403028082028403029081029092039091026000889003889004909101858311909403939093029303949094049190911702949350505050565b6000806000856001600160a01b0316633850c7bd6040518163ffffffff1660e01b815260040160e060405180830381865afa158015611f0b573d6000803e3d6000fd5b505050506040513d601f19601f82011682018060405250810190611f2f9190612918565b505060405163f30dba9360e01b815260028b900b60048201529395506000945084936001600160a01b038c16935063f30dba939250602401905061010060405180830381865afa158015611f87573d6000803e3d6000fd5b505050506040513d601f19601f82011682018060405250810190611fab9190612a3b565b505060405163f30dba9360e01b815260028d900b600482015293975091955060009450849350506001600160a01b038c169163f30dba93915060240161010060405180830381865afa158015612005573d6000803e3d6000fd5b505050506040513d601f19601f820116820180604052508101906120299190612a3b565b505050509350935050508860020b8560020b121561205e5761204b848361218f565b9650612057838261218f565b9550612182565b8760020b8560020b12156121695760008a6001600160a01b031663f30583996040518163ffffffff1660e01b8152600401602060405180830381865afa1580156120ac573d6000803e3d6000fd5b505050506040513d601f19601f820116820180604052508101906120d091906126d5565b905060008b6001600160a01b031663461413196040518163ffffffff1660e01b8152600401602060405180830381865afa158015612112573d6000803e3d6000fd5b505050506040513d601f19601f8201168201806040525081019061213691906126d5565b905061214b612145838861218f565b8561218f565b985061216061215a828761218f565b8461218f565b97505050612182565b612173828561218f565b965061217f818461218f565b95505b5050505050935093915050565b8082035b92915050565b604051806101c00160405280606081526020016000815260200160006001600160a01b0316815260200160006001600160a01b0316815260200160006001600160a01b031681526020016000815260200160008152602001600081526020016000815260200160008152602001600060020b8152602001600060020b8152602001600060020b81526020016000151581525090565b60006020828403121561224057600080fd5b5035919050565b6001600160a01b0391909116815260200190565b6001600160a01b038116811461227057600080fd5b50565b8060020b811461227057600080fd5b60008060008060008060c0878903121561229b57600080fd5b86356122a68161225b565b955060208701356122b681612273565b945060408701356122c681612273565b9350606087013592506080870135915060a08701356122e48161225b565b809150509295509295509295565b60006020828403121561230457600080fd5b81356116578161225b565b6000815180845260005b8181101561233557602081850181015186830182015201612319565b506000602082860101526020601f19601f83011685010191505092915050565b60006020808301818452808551808352604092508286019150828160051b87010184880160005b8381101561248d57603f1989840301855281516101c081518186526123a38287018261230f565b9150508882015189860152878201516123c6898701826001600160a01b03169052565b506060828101516001600160a01b0381168783015250506080828101516001600160a01b03811687830152505060a0828101519086015260c0808301519086015260e08083015190860152610100808301519086015261012080830151908601526101408083015161243c8288018260020b9052565b5050610160808301516124538288018260020b9052565b50506101808083015161246a8288018260020b9052565b50506101a09182015115159490910193909352938601939086019060010161237c565b509098975050505050505050565b600080604083850312156124ae57600080fd5b8235915060208301356124c08161225b565b809150509250929050565b6000806000606084860312156124e057600080fd5b8335925060208401356124f28161225b565b915060408401356125028161225b565b809150509250925092565b60008060006060848603121561252257600080fd5b505081359360208301359350604090920135919050565b60208082526015908201527414995cdd1c9a58dd1959081d1bc8111a585b5bdb99605a1b604082015260600190565b80516102178161225b565b60006020828403121561258557600080fd5b81516116578161225b565b805162ffffff8116811461021757600080fd5b6000602082840312156125b557600080fd5b61165782612590565b81516001600160a01b03168152610160810160208301516125ea60208401826001600160a01b03169052565b506040830151612601604084018262ffffff169052565b506060830151612616606084018260020b9052565b50608083015161262b608084018260020b9052565b5060a083015160a083015260c083015160c083015260e083015160e083015261010080840151818401525061012080840151612671828501826001600160a01b03169052565b505061014092830151919092015290565b80516001600160801b038116811461021757600080fd5b600080600080608085870312156126af57600080fd5b845193506126bf60208601612682565b6040860151606090960151949790965092505050565b6000602082840312156126e757600080fd5b5051919050565b634e487b7160e01b600052601160045260246000fd5b80820180821115612193576121936126ee565b634e487b7160e01b600052604160045260246000fd5b6001600160a01b03929092168252602082015260400190565b634e487b7160e01b600052603260045260246000fd5b60006001820161276e5761276e6126ee565b5060010190565b6000806040838503121561278857600080fd5b505080516020909101519092909150565b6000806000606084860312156127ae57600080fd5b6127b784612682565b925060208401519150604084015190509250925092565b805161021781612273565b6000806000806000806000806000806000806101808d8f0312156127fc57600080fd5b8c516bffffffffffffffffffffffff8116811461281857600080fd5b9b5061282660208e01612568565b9a5061283460408e01612568565b995061284260608e01612568565b985061285060808e01612590565b975061285e60a08e016127ce565b965061286c60c08e016127ce565b955061287a60e08e01612682565b94506101008d015193506101208d015192506128996101408e01612682565b91506128a86101608e01612682565b90509295989b509295989b509295989b565b6001600160a01b03938416815291909216602082015262ffffff909116604082015260600190565b805161ffff8116811461021757600080fd5b805163ffffffff8116811461021757600080fd5b8051801515811461021757600080fd5b600080600080600080600060e0888a03121561293357600080fd5b875161293e8161225b565b602089015190975061294f81612273565b955061295d604089016128e2565b945061296b606089016128e2565b9350612979608089016128e2565b925061298760a089016128f4565b915061299560c08901612908565b905092959891949750929550565b6000600160ff1b82016129b8576129b86126ee565b5060000390565b8082028115828204841417612193576121936126ee565b634e487b7160e01b600052601260045260246000fd5b6000826129fb576129fb6129d6565b500490565b600082612a0f57612a0f6129d6565b500690565b6001600160a01b03828116828216039080821115612a3457612a346126ee565b5092915050565b600080600080600080600080610100898b031215612a5857600080fd5b612a6189612682565b9750602089015180600f0b8114612a7757600080fd5b80975050604089015195506060890151945060808901518060060b8114612a9d57600080fd5b60a08a0151909450612aae8161225b565b9250612abc60c08a016128f4565b9150612aca60e08a01612908565b9050929598509295989093965056fea2646970667358221220afa23800f699bdbf8849b31f7d7aeeed3c2f5b614ec7a83265d64c197018d31764736f6c63430008110033",
  "devdoc": {
    "kind": "dev",
    "methods": {},
    "version": 1
  },
  "userdoc": {
    "kind": "user",
    "methods": {},
    "version": 1
  },
  "storageLayout": {
    "storage": [],
    "types": null
  }
}