{
  "address": "0x8C9ee6510a2d3C829f43b3d7f298b076B513f23F",
  "abi": [
    {
      "inputs": [
        {
          "internalType": "uint256",
          "name": "tokenId",
          "type": "uint256"
        },
        {
          "internalType": "address",
          "name": "poolId",
          "type": "address"
        },
        {
          "internalType": "int24[]",
          "name": "tickRange",
          "type": "int24[]"
        },
        {
          "components": [
            {
              "internalType": "address",
              "name": "tokenAddress",
              "type": "address"
            },
            {
              "internalType": "uint256",
              "name": "price",
              "type": "uint256"
            }
          ],
          "internalType": "struct IProportionFacet.PoolTokenPrices[]",
          "name": "prices",
          "type": "tuple[]"
        }
      ],
      "name": "getProportionForRebalance",
      "outputs": [
        {
          "components": [
            {
              "internalType": "address[]",
              "name": "inputTokenAddresses",
              "type": "address[]"
            },
            {
              "internalType": "uint256[]",
              "name": "inputTokenAmounts",
              "type": "uint256[]"
            },
            {
              "internalType": "address[]",
              "name": "outputTokenAddresses",
              "type": "address[]"
            },
            {
              "internalType": "uint256[]",
              "name": "outputTokenProportions",
              "type": "uint256[]"
            },
            {
              "internalType": "uint256[]",
              "name": "outputTokenAmounts",
              "type": "uint256[]"
            },
            {
              "internalType": "uint256[]",
              "name": "poolProportionsUsd",
              "type": "uint256[]"
            }
          ],
          "internalType": "struct IProportionFacet.ResultOfProportion",
          "name": "result",
          "type": "tuple"
        }
      ],
      "stateMutability": "view",
      "type": "function"
    },
    {
      "inputs": [
        {
          "internalType": "address",
          "name": "pair",
          "type": "address"
        },
        {
          "internalType": "int24[]",
          "name": "tickRange",
          "type": "int24[]"
        },
        {
          "components": [
            {
              "internalType": "address",
              "name": "tokenAddress",
              "type": "address"
            },
            {
              "internalType": "uint256",
              "name": "amount",
              "type": "uint256"
            },
            {
              "internalType": "uint256",
              "name": "price",
              "type": "uint256"
            }
          ],
          "internalType": "struct IProportionFacet.InputSwapToken[]",
          "name": "inputTokens",
          "type": "tuple[]"
        }
      ],
      "name": "getProportionForZap",
      "outputs": [
        {
          "components": [
            {
              "internalType": "address[]",
              "name": "inputTokenAddresses",
              "type": "address[]"
            },
            {
              "internalType": "uint256[]",
              "name": "inputTokenAmounts",
              "type": "uint256[]"
            },
            {
              "internalType": "address[]",
              "name": "outputTokenAddresses",
              "type": "address[]"
            },
            {
              "internalType": "uint256[]",
              "name": "outputTokenProportions",
              "type": "uint256[]"
            },
            {
              "internalType": "uint256[]",
              "name": "outputTokenAmounts",
              "type": "uint256[]"
            },
            {
              "internalType": "uint256[]",
              "name": "poolProportionsUsd",
              "type": "uint256[]"
            }
          ],
          "internalType": "struct IProportionFacet.ResultOfProportion",
          "name": "result",
          "type": "tuple"
        }
      ],
      "stateMutability": "view",
      "type": "function"
    }
  ],
  "transactionHash": "0xc21cf17d4690d2604750d14e843c79a557dbc8ab2343e86a46d7fc652ac052c1",
  "args": [],
  "numDeployments": 3,
  "solcInputHash": "cca7494c9b14128c4f4c13e56c203ac7",
  "bytecode": "0x608060405234801561001057600080fd5b50612b9e806100206000396000f3fe608060405234801561001057600080fd5b50600436106100365760003560e01c80638866c09f1461003b578063b298ad6e14610064575b600080fd5b61004e6100493660046125a3565b610077565b60405161005b9190612717565b60405180910390f35b61004e6100723660046127cf565b611430565b61007f6123d9565b815130906000906001600160401b0381111561009d5761009d612475565b6040519080825280602002602001820160405280156100c6578160200160208202803683370190505b506040805160028082526060820190925291925060009190816020015b6100eb61240f565b8152602001906001900390816100e35790505090506000855182600081518110610117576101176128cf565b6020026020010151600001818152505085518260018151811061013c5761013c6128cf565b60209081029190910101515260405163ca4f280360e01b81526001600160a01b0385169063ca4f280390610174908b906004016128e5565b6040805180830381865afa158015610190573d6000803e3d6000fd5b505050506040513d601f19601f820116820180604052508101906101b491906128f9565b836000815181106101c7576101c76128cf565b602002602001015160e001846001815181106101e5576101e56128cf565b60209081029190910101516001600160a01b0392831660e0909101529116905285516001600160401b0381111561021e5761021e612475565b604051908082528060200260200182016040528015610247578160200160208202803683370190505b50855285516001600160401b0381111561026357610263612475565b60405190808252806020026020018201604052801561028c578160200160208202803683370190505b5060208601526040805160028082526060820190925290816020016020820280368337505050604086810191909152805160028082526060820183529091602083019080368337505050606086810191909152604080516002808252928101825291906020830190803683375050506080860152604080516002808252606082018352909160208301908036833750505060a086015260005b865181101561069757868181518110610340576103406128cf565b6020026020010151600001516001600160a01b031663313ce5676040518163ffffffff1660e01b8152600401602060405180830381865afa158015610389573d6000803e3d6000fd5b505050506040513d601f19601f820116820180604052508101906103ad9190612933565b8482815181106103bf576103bf6128cf565b602002602001019060ff16908160ff16815250506000856001600160a01b031663aa9a09128984815181106103f6576103f66128cf565b6020026020010151604001518a8581518110610414576104146128cf565b602002602001015160200151888681518110610432576104326128cf565b6020026020010151600a6104469190612a52565b6040516001600160e01b031960e086901b168152600481019390935260248301919091526044820152606401602060405180830381865afa15801561048f573d6000803e3d6000fd5b505050506040513d601f19601f820116820180604052508101906104b39190612a61565b90506104bf8184612a7a565b9250836000815181106104d4576104d46128cf565b602002602001015160e001516001600160a01b03168883815181106104fb576104fb6128cf565b6020026020010151600001516001600160a01b031603610563578184600081518110610529576105296128cf565b60200260200101516000018181525050808460008151811061054d5761054d6128cf565b6020026020010151604001818152505050610685565b83600181518110610576576105766128cf565b602002602001015160e001516001600160a01b031688838151811061059d5761059d6128cf565b6020026020010151600001516001600160a01b0316036105ef5781846001815181106105cb576105cb6128cf565b60200260200101516000018181525050808460018151811061054d5761054d6128cf565b878281518110610601576106016128cf565b60200260200101516000015187600001518381518110610623576106236128cf565b60200260200101906001600160a01b031690816001600160a01b031681525050878281518110610655576106556128cf565b60200260200101516020015187602001518381518110610677576106776128cf565b602002602001018181525050505b8061068f81612a8d565b915050610325565b506106a2888861201c565b836000815181106106b5576106b56128cf565b6020026020010151608001846001815181106106d3576106d36128cf565b602090810291909101015160800191909152526040516384cc315b60e01b81526001600160a01b038516906384cc315b90610712908b906004016128e5565b602060405180830381865afa15801561072f573d6000803e3d6000fd5b505050506040513d601f19601f820116820180604052508101906107539190612a61565b82600081518110610766576107666128cf565b60200260200101516080015161077c9190612aa6565b8260008151811061078f5761078f6128cf565b60200260200101516060018181525050816001815181106107b2576107b26128cf565b602002602001015160e001516001600160a01b031663313ce5676040518163ffffffff1660e01b8152600401602060405180830381865afa1580156107fb573d6000803e3d6000fd5b505050506040513d601f19601f8201168201806040525081019061081f9190612933565b61082a90600a612a52565b8260018151811061083d5761083d6128cf565b6020026020010151608001516108539190612aa6565b82600081518110610866576108666128cf565b60200260200101516060015161087c9190612a7a565b8260018151811061088f5761088f6128cf565b60200260200101516060018181525050836001600160a01b031663aa9a091282846000815181106108c2576108c26128cf565b602002602001015160600151856001815181106108e1576108e16128cf565b6020026020010151606001516040518463ffffffff1660e01b815260040161091c939291909283526020830191909152604082015260600190565b602060405180830381865afa158015610939573d6000803e3d6000fd5b505050506040513d601f19601f8201168201806040525081019061095d9190612a61565b8560a00151600081518110610974576109746128cf565b6020026020010181815250508460a00151600081518110610997576109976128cf565b6020026020010151816109aa9190612abd565b8560a001516001815181106109c1576109c16128cf565b602002602001018181525050816000815181106109e0576109e06128cf565b6020026020010151604001518560a00151600081518110610a0357610a036128cf565b6020026020010151148015610a53575081600181518110610a2657610a266128cf565b6020026020010151604001518560a00151600181518110610a4957610a496128cf565b6020026020010151145b8015610ac2575081600081518110610a6d57610a6d6128cf565b60200260200101516060015160001480610ac2575081600181518110610a9557610a956128cf565b60200260200101516060015182600081518110610ab457610ab46128cf565b602002602001015160600151145b15610bf45760608086526020860152855182518390600090610ae657610ae66128cf565b60200260200101516000015110610afe576000610b3b565b8582600081518110610b1257610b126128cf565b60200260200101516000015181518110610b2e57610b2e6128cf565b6020026020010151602001515b8560800151600081518110610b5257610b526128cf565b602002602001018181525050855182600181518110610b7357610b736128cf565b60200260200101516000015110610b8b576000610bc8565b8582600181518110610b9f57610b9f6128cf565b60200260200101516000015181518110610bbb57610bbb6128cf565b6020026020010151602001515b8560800151600181518110610bdf57610bdf6128cf565b60200260200101818152505050505050611429565b60005b6002811015611088578651838281518110610c1457610c146128cf565b602002602001015160000151108015610c665750828181518110610c3a57610c3a6128cf565b6020026020010151604001518660a001518281518110610c5c57610c5c6128cf565b6020026020010151105b1561107657846001600160a01b031663aa9a09128760a001518381518110610c9057610c906128cf565b6020026020010151858481518110610caa57610caa6128cf565b602002602001015160400151610cc09190612abd565b86868581518110610cd357610cd36128cf565b60200260200101516000015181518110610cef57610cef6128cf565b6020026020010151600a610d039190612a52565b8a878681518110610d1657610d166128cf565b60200260200101516000015181518110610d3257610d326128cf565b6020026020010151604001516040518463ffffffff1660e01b8152600401610d6d939291909283526020830191909152604082015260600190565b602060405180830381865afa158015610d8a573d6000803e3d6000fd5b505050506040513d601f19601f82011682018060405250810190610dae9190612a61565b838281518110610dc057610dc06128cf565b602002602001015160a001818152505086838281518110610de357610de36128cf565b60200260200101516000015181518110610dff57610dff6128cf565b6020026020010151600001518660000151848381518110610e2257610e226128cf565b60200260200101516000015181518110610e3e57610e3e6128cf565b60200260200101906001600160a01b031690816001600160a01b031681525050828181518110610e7057610e706128cf565b602002602001015160a001518660200151848381518110610e9357610e936128cf565b60200260200101516000015181518110610eaf57610eaf6128cf565b602090810291909101015282610ec6826001612abd565b81518110610ed657610ed66128cf565b602002602001015160e001518660400151600081518110610ef957610ef96128cf565b60200260200101906001600160a01b031690816001600160a01b031681525050620f42408660600151600081518110610f3457610f346128cf565b602002602001018181525050828181518110610f5257610f526128cf565b602002602001015160a0015187848381518110610f7157610f716128cf565b60200260200101516000015181518110610f8d57610f8d6128cf565b602002602001015160200151610fa39190612abd565b86608001518281518110610fb957610fb96128cf565b6020908102919091010152865183610fd2836001612abd565b81518110610fe257610fe26128cf565b60200260200101516000015110610ffa576000611040565b8683611007836001612abd565b81518110611017576110176128cf565b60200260200101516000015181518110611033576110336128cf565b6020026020010151602001515b6080870151611050836001612abd565b81518110611060576110606128cf565b6020026020010181815250505050505050611429565b8061108081612a8d565b915050610bf7565b508160008151811061109c5761109c6128cf565b602002602001015160e0015185604001516000815181106110bf576110bf6128cf565b60200260200101906001600160a01b031690816001600160a01b031681525050816001815181106110f2576110f26128cf565b602002602001015160e001518560400151600181518110611115576111156128cf565b60200260200101906001600160a01b031690816001600160a01b031681525050836001600160a01b031663aa9a091283600081518110611157576111576128cf565b6020026020010151604001518760a0015160008151811061117a5761117a6128cf565b602002602001015161118c9190612abd565b620f4240856001815181106111a3576111a36128cf565b602002602001015160400151866000815181106111c2576111c26128cf565b6020026020010151604001516111d89190612a7a565b8960a001516001815181106111ef576111ef6128cf565b60200260200101518a60a0015160008151811061120e5761120e6128cf565b60200260200101516112209190612a7a565b61122a9190612abd565b6040516001600160e01b031960e086901b168152600481019390935260248301919091526044820152606401602060405180830381865afa158015611273573d6000803e3d6000fd5b505050506040513d601f19601f820116820180604052508101906112979190612a61565b85606001516000815181106112ae576112ae6128cf565b60200260200101818152505084606001516000815181106112d1576112d16128cf565b6020026020010151620f42406112e79190612abd565b85606001516001815181106112fe576112fe6128cf565b60200260200101818152505085518260008151811061131f5761131f6128cf565b60200260200101516000015110611337576000611374565b858260008151811061134b5761134b6128cf565b60200260200101516000015181518110611367576113676128cf565b6020026020010151602001515b856080015160008151811061138b5761138b6128cf565b6020026020010181815250508551826001815181106113ac576113ac6128cf565b602002602001015160000151106113c4576000611401565b85826001815181106113d8576113d86128cf565b602002602001015160000151815181106113f4576113f46128cf565b6020026020010151602001515b8560800151600181518110611418576114186128cf565b602002602001018181525050505050505b9392505050565b6114386123d9565b815160021461147c5760405162461bcd60e51b815260206004820152600b60248201526a213d203220746f6b656e7360a81b60448201526064015b60405180910390fd5b604080516002808252606082018352309260009291906020830190803683375050604080516002808252606082019092529293506000929150602082015b6114c261240f565b8152602001906001900390816114ba57505060405163ca4f280360e01b81529091506000906001600160a01b0385169063ca4f280390611506908b906004016128e5565b6040805180830381865afa158015611522573d6000803e3d6000fd5b505050506040513d601f19601f8201168201806040525081019061154691906128f9565b83600081518110611559576115596128cf565b602002602001015160e00184600181518110611577576115776128cf565b60209081029190910101516001600160a01b0392831660e09091015291169052855186906000906115aa576115aa6128cf565b6020026020010151600001516001600160a01b0316826000815181106115d2576115d26128cf565b602002602001015160e001516001600160a01b0316148015611641575085600181518110611602576116026128cf565b6020026020010151600001516001600160a01b03168260018151811061162a5761162a6128cf565b602002602001015160e001516001600160a01b0316145b6116845760405162461bcd60e51b8152602060048201526014602482015273496e76616c696420696e70757420746f6b656e7360601b6044820152606401611473565b6040805160018082528183019092529060208083019080368337505050855260408051600180825281830190925290602080830190803683370190505060208601526040805160018082528183019092529081602001602082028036833750505060408681019190915280516001808252818301909252906020808301908036833750505060608681019190915260408051600280825292810182529190602083019080368337505050608086015260408051600280825260608201835290916020830190803683370190505060a0860152604051630693132f60e51b8152600481018a90526001600160a01b0385169063d26265e0906024016040805180830381865afa15801561179a573d6000803e3d6000fd5b505050506040513d601f19601f820116820180604052508101906117be9190612ad0565b836000815181106117d1576117d16128cf565b6020026020010151602001846001815181106117ef576117ef6128cf565b60209081029190910181015101919091525260005b60028110156119d55786818151811061181f5761181f6128cf565b6020026020010151600001516001600160a01b031663313ce5676040518163ffffffff1660e01b8152600401602060405180830381865afa158015611868573d6000803e3d6000fd5b505050506040513d601f19601f8201168201806040525081019061188c9190612933565b84828151811061189e5761189e6128cf565b602002602001019060ff16908160ff16815250506000856001600160a01b031663aa9a09128984815181106118d5576118d56128cf565b6020026020010151602001518685815181106118f3576118f36128cf565b602002602001015160200151888681518110611911576119116128cf565b6020026020010151600a6119259190612a52565b6040516001600160e01b031960e086901b168152600481019390935260248301919091526044820152606401602060405180830381865afa15801561196e573d6000803e3d6000fd5b505050506040513d601f19601f820116820180604052508101906119929190612a61565b905061199e8184612a7a565b9250808483815181106119b3576119b36128cf565b60209081029190910101516040015250806119cd81612a8d565b915050611804565b506119e0888861201c565b836000815181106119f3576119f36128cf565b602002602001015160800184600181518110611a1157611a116128cf565b602090810291909101015160800191909152526040516384cc315b60e01b81526001600160a01b038516906384cc315b90611a50908b906004016128e5565b602060405180830381865afa158015611a6d573d6000803e3d6000fd5b505050506040513d601f19601f82011682018060405250810190611a919190612a61565b82600081518110611aa457611aa46128cf565b602002602001015160800151611aba9190612aa6565b82600081518110611acd57611acd6128cf565b6020026020010151606001818152505082600181518110611af057611af06128cf565b6020026020010151600a611b049190612a52565b82600181518110611b1757611b176128cf565b602002602001015160800151611b2d9190612aa6565b82600081518110611b4057611b406128cf565b602002602001015160600151611b569190612a7a565b82600181518110611b6957611b696128cf565b60200260200101516060018181525050836001600160a01b031663aa9a09128284600081518110611b9c57611b9c6128cf565b60200260200101516060015185600181518110611bbb57611bbb6128cf565b6020026020010151606001516040518463ffffffff1660e01b8152600401611bf6939291909283526020830191909152604082015260600190565b602060405180830381865afa158015611c13573d6000803e3d6000fd5b505050506040513d601f19601f82011682018060405250810190611c379190612a61565b8560a00151600081518110611c4e57611c4e6128cf565b6020026020010181815250508460a00151600081518110611c7157611c716128cf565b602002602001015181611c849190612abd565b8560a00151600181518110611c9b57611c9b6128cf565b60200260200101818152505060005b600281101561200f57828181518110611cc557611cc56128cf565b6020026020010151604001518660a001518281518110611ce757611ce76128cf565b60200260200101511015611ffd57846001600160a01b031663aa9a09128760a001518381518110611d1a57611d1a6128cf565b6020026020010151858481518110611d3457611d346128cf565b602002602001015160400151611d4a9190612abd565b868481518110611d5c57611d5c6128cf565b6020026020010151600a611d709190612a52565b8a8581518110611d8257611d826128cf565b6020026020010151602001516040518463ffffffff1660e01b8152600401611dbd939291909283526020830191909152604082015260600190565b602060405180830381865afa158015611dda573d6000803e3d6000fd5b505050506040513d601f19601f82011682018060405250810190611dfe9190612a61565b838281518110611e1057611e106128cf565b602002602001015160a0018181525050868181518110611e3257611e326128cf565b6020026020010151600001518660000151600081518110611e5557611e556128cf565b60200260200101906001600160a01b031690816001600160a01b031681525050828181518110611e8757611e876128cf565b602002602001015160a001518660200151600081518110611eaa57611eaa6128cf565b602090810291909101015282611ec1826001612abd565b81518110611ed157611ed16128cf565b602002602001015160e001518660400151600081518110611ef457611ef46128cf565b60200260200101906001600160a01b031690816001600160a01b031681525050620f42408660600151600081518110611f2f57611f2f6128cf565b602002602001018181525050828181518110611f4d57611f4d6128cf565b602002602001015160a00151838281518110611f6b57611f6b6128cf565b602002602001015160200151611f819190612abd565b86608001518281518110611f9757611f976128cf565b602090810291909101015282611fae826001612abd565b81518110611fbe57611fbe6128cf565b6020026020010151602001518660800151826001611fdc9190612abd565b81518110611fec57611fec6128cf565b60200260200101818152505061200f565b8061200781612a8d565b915050611caa565b5050505050949350505050565b60405163d79357fb60e01b81526000908190309082908190839063d79357fb9061204a908a906004016128e5565b6040805180830381865afa158015612066573d6000803e3d6000fd5b505050506040513d601f19601f8201168201806040525081019061208a9190612ad0565b9092509050600061209c83600a612af4565b905060006120ab83600a612af4565b90506000856001600160a01b0316635730ba088b6040518263ffffffff1660e01b81526004016120db91906128e5565b602060405180830381865afa1580156120f8573d6000803e3d6000fd5b505050506040513d601f19601f8201168201806040525081019061211c9190612b00565b90506000866001600160a01b031663986cfba38b600081518110612142576121426128cf565b60200260200101516040518263ffffffff1660e01b815260040161216f919060029190910b815260200190565b602060405180830381865afa15801561218c573d6000803e3d6000fd5b505050506040513d601f19601f820116820180604052508101906121b09190612b00565b90506000876001600160a01b031663986cfba38c6001815181106121d6576121d66128cf565b60200260200101516040518263ffffffff1660e01b8152600401612203919060029190910b815260200190565b602060405180830381865afa158015612220573d6000803e3d6000fd5b505050506040513d601f19601f820116820180604052508101906122449190612b00565b905060006001600160a01b038916636098fd4a8585856122668b6103e8612aa6565b6122728b6103e8612aa6565b6040516001600160e01b031960e088901b1681526001600160a01b03958616600482015293851660248501529390911660448301526064820152608481019190915260a401602060405180830381865afa1580156122d4573d6000803e3d6000fd5b505050506040513d601f19601f820116820180604052508101906122f89190612b1d565b60405163c72e160b60e01b81526001600160a01b038681166004830152858116602483015284811660448301526001600160801b0383166064830152919250908a169063c72e160b906084016040805180830381865afa158015612360573d6000803e3d6000fd5b505050506040513d601f19601f820116820180604052508101906123849190612ad0565b909b5099506000858711612398578561239a565b865b90506123a68782612b46565b6123b0908d612aa6565b9b506123bc8682612b46565b6123c6908c612aa6565b9a50505050505050505050509250929050565b6040518060c001604052806060815260200160608152602001606081526020016060815260200160608152602001606081525090565b6040518061010001604052806000815260200160008152602001600081526020016000815260200160008152602001600081526020016000815260200160006001600160a01b031681525090565b6001600160a01b038116811461247257600080fd5b50565b634e487b7160e01b600052604160045260246000fd5b604051606081016001600160401b03811182821017156124ad576124ad612475565b60405290565b604080519081016001600160401b03811182821017156124ad576124ad612475565b604051601f8201601f191681016001600160401b03811182821017156124fd576124fd612475565b604052919050565b60006001600160401b0382111561251e5761251e612475565b5060051b60200190565b600082601f83011261253957600080fd5b8135602061254e61254983612505565b6124d5565b82815260059290921b8401810191818101908684111561256d57600080fd5b8286015b848110156125985780358060020b811461258b5760008081fd5b8352918301918301612571565b509695505050505050565b600080600060608085870312156125b957600080fd5b84356125c48161245d565b93506020858101356001600160401b03808211156125e157600080fd5b6125ed89838a01612528565b955060409150818801358181111561260457600080fd5b88019050601f8101891361261757600080fd5b803561262561254982612505565b8181529085028201840190848101908b83111561264157600080fd5b928501925b828410156126925786848d03121561265e5760008081fd5b61266661248b565b84356126718161245d565b81528487013587820152858501358682015282529286019290850190612646565b809750505050505050509250925092565b600081518084526020808501945080840160005b838110156126dc5781516001600160a01b0316875295820195908201906001016126b7565b509495945050505050565b600081518084526020808501945080840160005b838110156126dc578151875295820195908201906001016126fb565b602081526000825160c0602084015261273360e08401826126a3565b90506020840151601f198085840301604086015261275183836126e7565b9250604086015191508085840301606086015261276e83836126a3565b9250606086015191508085840301608086015261278b83836126e7565b925060808601519150808584030160a08601526127a883836126e7565b925060a08601519150808584030160c0860152506127c682826126e7565b95945050505050565b600080600080608085870312156127e557600080fd5b843593506020808601356127f88161245d565b93506040868101356001600160401b038082111561281557600080fd5b6128218a838b01612528565b9550606089013591508082111561283757600080fd5b508701601f8101891361284957600080fd5b803561285761254982612505565b81815260069190911b8201840190848101908b83111561287657600080fd5b928501925b828410156128bf5784848d0312156128935760008081fd5b61289b6124b3565b84356128a68161245d565b815284870135878201528252928401929085019061287b565b989b979a50959850505050505050565b634e487b7160e01b600052603260045260246000fd5b6001600160a01b0391909116815260200190565b6000806040838503121561290c57600080fd5b82516129178161245d565b60208401519092506129288161245d565b809150509250929050565b60006020828403121561294557600080fd5b815160ff8116811461142957600080fd5b634e487b7160e01b600052601160045260246000fd5b600181815b808511156129a757816000190482111561298d5761298d612956565b8085161561299a57918102915b93841c9390800290612971565b509250929050565b6000826129be57506001612a4c565b816129cb57506000612a4c565b81600181146129e157600281146129eb57612a07565b6001915050612a4c565b60ff8411156129fc576129fc612956565b50506001821b612a4c565b5060208310610133831016604e8410600b8410161715612a2a575081810a612a4c565b612a34838361296c565b8060001904821115612a4857612a48612956565b0290505b92915050565b600061142960ff8416836129af565b600060208284031215612a7357600080fd5b5051919050565b80820180821115612a4c57612a4c612956565b600060018201612a9f57612a9f612956565b5060010190565b8082028115828204841417612a4c57612a4c612956565b81810381811115612a4c57612a4c612956565b60008060408385031215612ae357600080fd5b505080516020909101519092909150565b600061142983836129af565b600060208284031215612b1257600080fd5b81516114298161245d565b600060208284031215612b2f57600080fd5b81516001600160801b038116811461142957600080fd5b600082612b6357634e487b7160e01b600052601260045260246000fd5b50049056fea26469706673582212205c3e31220398e25b7e31f93d93385ddb2cf53ba545cf55cc0fe19d7d68bc791a64736f6c63430008110033",
  "devdoc": {
    "kind": "dev",
    "methods": {},
    "version": 1
  },
  "userdoc": {
    "kind": "user",
    "methods": {},
    "version": 1
  },
  "storageLayout": {
    "storage": [],
    "types": null
  }
}