{
  "address": "0x5b4f6F099D5178209e032644B1184bFe906de836",
  "abi": [
    {
      "inputs": [
        {
          "components": [
            {
              "internalType": "address",
              "name": "commitToken",
              "type": "address"
            },
            {
              "internalType": "address",
              "name": "salesToken",
              "type": "address"
            },
            {
              "internalType": "uint256",
              "name": "hardCap",
              "type": "uint256"
            },
            {
              "internalType": "uint256",
              "name": "softCap",
              "type": "uint256"
            },
            {
              "internalType": "uint256",
              "name": "startTime",
              "type": "uint256"
            },
            {
              "internalType": "uint256",
              "name": "endTime",
              "type": "uint256"
            },
            {
              "internalType": "uint256",
              "name": "claimBonusTime",
              "type": "uint256"
            },
            {
              "internalType": "uint256",
              "name": "claimSalesFirstPartTime",
              "type": "uint256"
            },
            {
              "internalType": "uint256",
              "name": "vestingBeginTime",
              "type": "uint256"
            },
            {
              "internalType": "uint256",
              "name": "vestingDuration",
              "type": "uint256"
            },
            {
              "internalType": "uint256",
              "name": "vestingProportion",
              "type": "uint256"
            },
            {
              "internalType": "uint256",
              "name": "minCommit",
              "type": "uint256"
            },
            {
              "internalType": "uint256",
              "name": "maxCommit",
              "type": "uint256"
            },
            {
              "internalType": "uint256",
              "name": "totalSales",
              "type": "uint256"
            },
            {
              "internalType": "address",
              "name": "whitelist",
              "type": "address"
            }
          ],
          "internalType": "struct OverflowICO.SetUpParams",
          "name": "params",
          "type": "tuple"
        }
      ],
      "stateMutability": "nonpayable",
      "type": "constructor"
    },
    {
      "anonymous": false,
      "inputs": [
        {
          "indexed": true,
          "internalType": "address",
          "name": "buyer",
          "type": "address"
        },
        {
          "indexed": false,
          "internalType": "uint256",
          "name": "commit",
          "type": "uint256"
        }
      ],
      "name": "ClaimBonus",
      "type": "event"
    },
    {
      "anonymous": false,
      "inputs": [
        {
          "indexed": true,
          "internalType": "address",
          "name": "buyer",
          "type": "address"
        },
        {
          "indexed": false,
          "internalType": "uint256",
          "name": "refund",
          "type": "uint256"
        },
        {
          "indexed": false,
          "internalType": "uint256",
          "name": "sales",
          "type": "uint256"
        },
        {
          "indexed": false,
          "internalType": "uint256",
          "name": "commit",
          "type": "uint256"
        }
      ],
      "name": "ClaimRefund",
      "type": "event"
    },
    {
      "anonymous": false,
      "inputs": [
        {
          "indexed": true,
          "internalType": "address",
          "name": "buyer",
          "type": "address"
        },
        {
          "indexed": false,
          "internalType": "uint256",
          "name": "sales",
          "type": "uint256"
        }
      ],
      "name": "ClaimSalesFirstPart",
      "type": "event"
    },
    {
      "anonymous": false,
      "inputs": [
        {
          "indexed": false,
          "internalType": "address",
          "name": "addr",
          "type": "address"
        },
        {
          "indexed": false,
          "internalType": "uint256",
          "name": "amount",
          "type": "uint256"
        }
      ],
      "name": "ClaimVesting",
      "type": "event"
    },
    {
      "anonymous": false,
      "inputs": [
        {
          "indexed": true,
          "internalType": "address",
          "name": "buyer",
          "type": "address"
        },
        {
          "indexed": false,
          "internalType": "uint256",
          "name": "amount",
          "type": "uint256"
        }
      ],
      "name": "Commit",
      "type": "event"
    },
    {
      "anonymous": false,
      "inputs": [
        {
          "indexed": true,
          "internalType": "address",
          "name": "previousOwner",
          "type": "address"
        },
        {
          "indexed": true,
          "internalType": "address",
          "name": "newOwner",
          "type": "address"
        }
      ],
      "name": "OwnershipTransferred",
      "type": "event"
    },
    {
      "inputs": [],
      "name": "VESTING_DISTRIBUTION_DM",
      "outputs": [
        {
          "internalType": "uint256",
          "name": "",
          "type": "uint256"
        }
      ],
      "stateMutability": "view",
      "type": "function"
    },
    {
      "inputs": [],
      "name": "claimBonus",
      "outputs": [],
      "stateMutability": "nonpayable",
      "type": "function"
    },
    {
      "inputs": [],
      "name": "claimBonusTime",
      "outputs": [
        {
          "internalType": "uint256",
          "name": "",
          "type": "uint256"
        }
      ],
      "stateMutability": "view",
      "type": "function"
    },
    {
      "inputs": [],
      "name": "claimRefund",
      "outputs": [
        {
          "internalType": "uint256",
          "name": "",
          "type": "uint256"
        },
        {
          "internalType": "uint256",
          "name": "",
          "type": "uint256"
        },
        {
          "internalType": "uint256",
          "name": "",
          "type": "uint256"
        }
      ],
      "stateMutability": "nonpayable",
      "type": "function"
    },
    {
      "inputs": [],
      "name": "claimSalesFirstPart",
      "outputs": [],
      "stateMutability": "nonpayable",
      "type": "function"
    },
    {
      "inputs": [],
      "name": "claimSalesFirstPartTime",
      "outputs": [
        {
          "internalType": "uint256",
          "name": "",
          "type": "uint256"
        }
      ],
      "stateMutability": "view",
      "type": "function"
    },
    {
      "inputs": [
        {
          "internalType": "address",
          "name": "addr",
          "type": "address"
        }
      ],
      "name": "claimVesting",
      "outputs": [
        {
          "internalType": "uint256",
          "name": "",
          "type": "uint256"
        }
      ],
      "stateMutability": "nonpayable",
      "type": "function"
    },
    {
      "inputs": [
        {
          "internalType": "address",
          "name": "",
          "type": "address"
        }
      ],
      "name": "claimableTotal",
      "outputs": [
        {
          "internalType": "uint256",
          "name": "",
          "type": "uint256"
        }
      ],
      "stateMutability": "view",
      "type": "function"
    },
    {
      "inputs": [
        {
          "internalType": "address",
          "name": "",
          "type": "address"
        }
      ],
      "name": "claimed",
      "outputs": [
        {
          "internalType": "uint256",
          "name": "",
          "type": "uint256"
        }
      ],
      "stateMutability": "view",
      "type": "function"
    },
    {
      "inputs": [
        {
          "internalType": "uint256",
          "name": "amount",
          "type": "uint256"
        },
        {
          "internalType": "uint256",
          "name": "tokenId",
          "type": "uint256"
        },
        {
          "internalType": "enum IWhitelist.TypeNft",
          "name": "typeNft",
          "type": "uint8"
        }
      ],
      "name": "commit",
      "outputs": [],
      "stateMutability": "payable",
      "type": "function"
    },
    {
      "inputs": [],
      "name": "commitDm",
      "outputs": [
        {
          "internalType": "uint256",
          "name": "",
          "type": "uint256"
        }
      ],
      "stateMutability": "view",
      "type": "function"
    },
    {
      "inputs": [],
      "name": "commitTakenAway",
      "outputs": [
        {
          "internalType": "uint256",
          "name": "",
          "type": "uint256"
        }
      ],
      "stateMutability": "view",
      "type": "function"
    },
    {
      "inputs": [],
      "name": "commitToken",
      "outputs": [
        {
          "internalType": "contract IERC20",
          "name": "",
          "type": "address"
        }
      ],
      "stateMutability": "view",
      "type": "function"
    },
    {
      "inputs": [
        {
          "internalType": "address",
          "name": "",
          "type": "address"
        }
      ],
      "name": "commitments",
      "outputs": [
        {
          "internalType": "uint256",
          "name": "",
          "type": "uint256"
        }
      ],
      "stateMutability": "view",
      "type": "function"
    },
    {
      "inputs": [],
      "name": "endTime",
      "outputs": [
        {
          "internalType": "uint256",
          "name": "",
          "type": "uint256"
        }
      ],
      "stateMutability": "view",
      "type": "function"
    },
    {
      "inputs": [
        {
          "internalType": "address",
          "name": "",
          "type": "address"
        }
      ],
      "name": "finalCommit",
      "outputs": [
        {
          "internalType": "uint256",
          "name": "",
          "type": "uint256"
        }
      ],
      "stateMutability": "view",
      "type": "function"
    },
    {
      "inputs": [
        {
          "internalType": "address",
          "name": "",
          "type": "address"
        }
      ],
      "name": "finalSales",
      "outputs": [
        {
          "internalType": "uint256",
          "name": "",
          "type": "uint256"
        }
      ],
      "stateMutability": "view",
      "type": "function"
    },
    {
      "inputs": [],
      "name": "finish",
      "outputs": [],
      "stateMutability": "nonpayable",
      "type": "function"
    },
    {
      "inputs": [],
      "name": "finished",
      "outputs": [
        {
          "internalType": "bool",
          "name": "",
          "type": "bool"
        }
      ],
      "stateMutability": "view",
      "type": "function"
    },
    {
      "inputs": [],
      "name": "getCommitExcess",
      "outputs": [],
      "stateMutability": "nonpayable",
      "type": "function"
    },
    {
      "inputs": [
        {
          "internalType": "address",
          "name": "user",
          "type": "address"
        }
      ],
      "name": "getUserInfo",
      "outputs": [
        {
          "components": [
            {
              "internalType": "uint256",
              "name": "userCommitments",
              "type": "uint256"
            },
            {
              "internalType": "uint256",
              "name": "salesToReceive",
              "type": "uint256"
            },
            {
              "internalType": "uint256",
              "name": "commitToReceive",
              "type": "uint256"
            },
            {
              "internalType": "uint256",
              "name": "commitToRefund",
              "type": "uint256"
            },
            {
              "internalType": "uint256",
              "name": "lockedSales",
              "type": "uint256"
            },
            {
              "internalType": "uint256",
              "name": "unlockedSales",
              "type": "uint256"
            }
          ],
          "internalType": "struct OverflowICO.UserInfo",
          "name": "userInfo",
          "type": "tuple"
        }
      ],
      "stateMutability": "view",
      "type": "function"
    },
    {
      "inputs": [
        {
          "internalType": "address",
          "name": "user",
          "type": "address"
        }
      ],
      "name": "getUserState",
      "outputs": [
        {
          "internalType": "enum OverflowICO.UserPresaleState",
          "name": "",
          "type": "uint8"
        }
      ],
      "stateMutability": "view",
      "type": "function"
    },
    {
      "inputs": [],
      "name": "hardCap",
      "outputs": [
        {
          "internalType": "uint256",
          "name": "",
          "type": "uint256"
        }
      ],
      "stateMutability": "view",
      "type": "function"
    },
    {
      "inputs": [
        {
          "internalType": "address",
          "name": "",
          "type": "address"
        }
      ],
      "name": "immutableCommitments",
      "outputs": [
        {
          "internalType": "uint256",
          "name": "",
          "type": "uint256"
        }
      ],
      "stateMutability": "view",
      "type": "function"
    },
    {
      "inputs": [],
      "name": "maxCommit",
      "outputs": [
        {
          "internalType": "uint256",
          "name": "",
          "type": "uint256"
        }
      ],
      "stateMutability": "view",
      "type": "function"
    },
    {
      "inputs": [],
      "name": "minCommit",
      "outputs": [
        {
          "internalType": "uint256",
          "name": "",
          "type": "uint256"
        }
      ],
      "stateMutability": "view",
      "type": "function"
    },
    {
      "inputs": [],
      "name": "owner",
      "outputs": [
        {
          "internalType": "address",
          "name": "",
          "type": "address"
        }
      ],
      "stateMutability": "view",
      "type": "function"
    },
    {
      "inputs": [
        {
          "internalType": "address",
          "name": "",
          "type": "address"
        }
      ],
      "name": "registered",
      "outputs": [
        {
          "internalType": "bool",
          "name": "",
          "type": "bool"
        }
      ],
      "stateMutability": "view",
      "type": "function"
    },
    {
      "inputs": [],
      "name": "renounceOwnership",
      "outputs": [],
      "stateMutability": "nonpayable",
      "type": "function"
    },
    {
      "inputs": [],
      "name": "salesPerCommit",
      "outputs": [
        {
          "internalType": "uint256",
          "name": "",
          "type": "uint256"
        }
      ],
      "stateMutability": "view",
      "type": "function"
    },
    {
      "inputs": [],
      "name": "salesToken",
      "outputs": [
        {
          "internalType": "contract IERC20",
          "name": "",
          "type": "address"
        }
      ],
      "stateMutability": "view",
      "type": "function"
    },
    {
      "inputs": [
        {
          "internalType": "address",
          "name": "",
          "type": "address"
        }
      ],
      "name": "shares",
      "outputs": [
        {
          "internalType": "uint256",
          "name": "",
          "type": "uint256"
        }
      ],
      "stateMutability": "view",
      "type": "function"
    },
    {
      "inputs": [],
      "name": "softCap",
      "outputs": [
        {
          "internalType": "uint256",
          "name": "",
          "type": "uint256"
        }
      ],
      "stateMutability": "view",
      "type": "function"
    },
    {
      "inputs": [],
      "name": "start",
      "outputs": [],
      "stateMutability": "nonpayable",
      "type": "function"
    },
    {
      "inputs": [],
      "name": "startTime",
      "outputs": [
        {
          "internalType": "uint256",
          "name": "",
          "type": "uint256"
        }
      ],
      "stateMutability": "view",
      "type": "function"
    },
    {
      "inputs": [],
      "name": "started",
      "outputs": [
        {
          "internalType": "bool",
          "name": "",
          "type": "bool"
        }
      ],
      "stateMutability": "view",
      "type": "function"
    },
    {
      "inputs": [],
      "name": "totalCommitToBonus",
      "outputs": [
        {
          "internalType": "uint256",
          "name": "",
          "type": "uint256"
        }
      ],
      "stateMutability": "view",
      "type": "function"
    },
    {
      "inputs": [],
      "name": "totalCommitments",
      "outputs": [
        {
          "internalType": "uint256",
          "name": "",
          "type": "uint256"
        }
      ],
      "stateMutability": "view",
      "type": "function"
    },
    {
      "inputs": [],
      "name": "totalSales",
      "outputs": [
        {
          "internalType": "uint256",
          "name": "",
          "type": "uint256"
        }
      ],
      "stateMutability": "view",
      "type": "function"
    },
    {
      "inputs": [],
      "name": "totalShares",
      "outputs": [
        {
          "internalType": "uint256",
          "name": "",
          "type": "uint256"
        }
      ],
      "stateMutability": "view",
      "type": "function"
    },
    {
      "inputs": [
        {
          "internalType": "address",
          "name": "newOwner",
          "type": "address"
        }
      ],
      "name": "transferOwnership",
      "outputs": [],
      "stateMutability": "nonpayable",
      "type": "function"
    },
    {
      "inputs": [],
      "name": "vestingBeginTime",
      "outputs": [
        {
          "internalType": "uint256",
          "name": "",
          "type": "uint256"
        }
      ],
      "stateMutability": "view",
      "type": "function"
    },
    {
      "inputs": [],
      "name": "vestingDuration",
      "outputs": [
        {
          "internalType": "uint256",
          "name": "",
          "type": "uint256"
        }
      ],
      "stateMutability": "view",
      "type": "function"
    },
    {
      "inputs": [],
      "name": "vestingProportion",
      "outputs": [
        {
          "internalType": "uint256",
          "name": "",
          "type": "uint256"
        }
      ],
      "stateMutability": "view",
      "type": "function"
    },
    {
      "inputs": [],
      "name": "whitelist",
      "outputs": [
        {
          "internalType": "contract IWhitelist",
          "name": "",
          "type": "address"
        }
      ],
      "stateMutability": "view",
      "type": "function"
    }
  ],
  "transactionHash": "0x946caf35db8934c0135714c5084bc998abf5862753a69b9d7cda204749e567df",
  "args": [
    {
      "commitToken": "0xB79DD08EA68A908A97220C76d19A6aA9cBDE4376",
      "salesToken": "0xA3d1a8DEB97B111454B294E2324EfAD13a9d8396",
      "hardCap": 500000000000,
      "softCap": 350000000000,
      "startTime": 1695038400,
      "endTime": 1695639600,
      "claimBonusTime": 1695639610,
      "claimSalesFirstPartTime": 1696244400,
      "vestingBeginTime": 1696244401,
      "vestingDuration": 2419200,
      "vestingProportion": "750000000000000000",
      "minCommit": 1000000,
      "maxCommit": "115792089237316195423570985008687907853269984665640564039457584007913129639935",
      "totalSales": "25000000000000000000000",
      "whitelist": "0x35451Cc764414119cb9c9aa30aAA0f0BBb02EaE8"
    }
  ],
  "numDeployments": 1,
  "solcInputHash": "913c9a0880899a674d60d3f06e7fff5a",
  "bytecode": "0x6102806040523480156200001257600080fd5b5060405162003f4838038062003f4883398101604081905262000035916200069c565b6200004033620005f7565b6001805560808101514211156200009e5760405162461bcd60e51b815260206004820181905260248201527f53746172742074696d65206d75737420626520696e207468652066757475726560448201526064015b60405180910390fd5b80608001518160a0015111620001085760405162461bcd60e51b815260206004820152602860248201527f456e642074696d65206d7573742062652067726561746572207468616e2073746044820152676172742074696d6560c01b606482015260840162000095565b60008160400151116200015e5760405162461bcd60e51b815260206004820181905260248201527f686172644361702073686f756c642062652067726561746572207468616e2030604482015260640162000095565b8060600151816040015111620001c65760405162461bcd60e51b815260206004820152602660248201527f686172644361702073686f756c642062652067726561746572207468616e207360448201526506f66744361760d41b606482015260840162000095565b600081610160015111620002315760405162461bcd60e51b815260206004820152602b60248201527f4d696e696d756d20636f6d6d69746d656e742073686f756c642062652067726560448201526a061746572207468616e20360ac1b606482015260840162000095565b8061016001518161018001511015620002bf5760405162461bcd60e51b815260206004820152604360248201527f4d6178696d756d20636f6d6d69746d656e742073686f756c642062652067726560448201527f61746572206f7220657175616c20746f206d696e696d756d20636f6d6d69746d606482015262195b9d60ea1b608482015260a40162000095565b8060a001518160c00151116200032c5760405162461bcd60e51b815260206004820152602b60248201527f636c61696d426f6e757354696d65206d7573742062652067726561746572207460448201526a68616e20656e6454696d6560a81b606482015260840162000095565b8060c001518160e0015111620003ab5760405162461bcd60e51b815260206004820152603b60248201527f636c61696d53616c657346697273745061727454696d65206d7573742062652060448201527f67726561746572207468616e20636c61696d426f6e757354696d650000000000606482015260840162000095565b8060e00151816101000151116200042b5760405162461bcd60e51b815260206004820152603d60248201527f76657374696e67426567696e54696d65206d757374206265206772656174657260448201527f207468616e20636c61696d53616c657346697273745061727454696d65000000606482015260840162000095565b80516001600160a01b039081166080908152602080840151831660a090815260408086015160c0908152606087015160e090815294870151610180908152928701516101a0908152908701516101c052938601516101e052610100808701516102005261012080880151610220526101608801516102405292870151610260529386015190935261014085015190528351825163313ce56760e01b8152925193169263313ce5679260048082019392918290030181865afa158015620004f5573d6000803e3d6000fd5b505050506040513d601f19601f820116820180604052508101906200051b919062000779565b6200052890600a620008ba565b6101608181525050806040015181600001516001600160a01b031663313ce5676040518163ffffffff1660e01b8152600401602060405180830381865afa15801562000578573d6000803e3d6000fd5b505050506040513d601f19601f820116820180604052508101906200059e919062000779565b620005ab90600a620008ba565b826101a00151620005bd9190620008cb565b620005c99190620008e5565b610140526101c00151600f80546001600160a01b0319166001600160a01b0390921691909117905562000908565b600080546001600160a01b038381166001600160a01b0319831681178455604051919092169283917f8be0079c531659141344cd1fd0a4f28419497f9722a3daafe3b4186f6b6457e09190a35050565b6040516101e081016001600160401b03811182821017156200067957634e487b7160e01b600052604160045260246000fd5b60405290565b80516001600160a01b03811681146200069757600080fd5b919050565b60006101e08284031215620006b057600080fd5b620006ba62000647565b620006c5836200067f565b8152620006d5602084016200067f565b602082015260408301516040820152606083015160608201526080830151608082015260a083015160a082015260c083015160c082015260e083015160e08201526101008084015181830152506101208084015181830152506101408084015181830152506101608084015181830152506101808084015181830152506101a08084015181830152506101c06200076e8185016200067f565b908201529392505050565b6000602082840312156200078c57600080fd5b815160ff811681146200079e57600080fd5b9392505050565b634e487b7160e01b600052601160045260246000fd5b600181815b80851115620007fc578160001904821115620007e057620007e0620007a5565b80851615620007ee57918102915b93841c9390800290620007c0565b509250929050565b6000826200081557506001620008b4565b816200082457506000620008b4565b81600181146200083d5760028114620008485762000868565b6001915050620008b4565b60ff8411156200085c576200085c620007a5565b50506001821b620008b4565b5060208310610133831016604e8410600b84101617156200088d575081810a620008b4565b620008998383620007bb565b8060001904821115620008b057620008b0620007a5565b0290505b92915050565b60006200079e60ff84168362000804565b8082028115828204841417620008b457620008b4620007a5565b6000826200090357634e487b7160e01b600052601260045260246000fd5b500490565b60805160a05160c05160e05161010051610120516101405161016051610180516101a0516101c0516101e0516102005161022051610240516102605161339f62000ba9600039600081816104670152611e260152600081816103590152611dec0152600081816102e501528181610ea501528181610f5801526119d001526000818161096101528181610cec01528181610d4101528181610dfb01528181610ec601528181610f31015281816119f10152611a5c01526000818161092d01528181610bf701528181610c6d01528181610cc1015261257701526000818161085501528181610b0201528181610b7801528181610bcc015261104b01526000818161038d01528181610a5201528181610a8301528181610ad701528181611d4c01528181611f5001528181611f7a01528181611fdd01528181612007015281816120e40152612ab101526000818161063f015281816109f601528181610a270152611d2001526000818161078c01528181611648015281816122d20152612c0e0152600081816104f40152818161166c015281816122f60152612c320152600081816107f40152818161189b01526126960152600081816105940152818161253901528181612c670152612dae0152600081816106d8015281816114b1015281816122160152612b8e0152600081816109c20152818161123301528181611259015281816114fe0152818161225a01528181612bb901528181612e620152612e880152600081816105dd01528181610fc7015281816125150152818161275c0152612d8b01526000818161067301528181611169015281816112c40152818161135a0152818161159001528181611be901528181611efd015281816123780152818161242c01528181612cbe01528181612d450152612de7015261339f6000f3fe6080604052600436106102725760003560e01c806378e979251161014f578063c530b64e116100c1578063e8fcf7231161007a578063e8fcf723146108ce578063f2fde38b146108fb578063f51bcc171461091b578063faab58db1461094f578063fb27efb414610983578063fb86a404146109b057600080fd5b8063c530b64e146107e2578063c884ef8314610816578063cc9916b214610843578063ce7c2ac214610877578063d56b2889146108a4578063d798f792146108b957600080fd5b806393e59dc11161011357806393e59dc1146106fa578063b2dd5c071461071a578063b5545a3c1461074a578063bb3fdf7e1461077a578063be9a6555146107ae578063bef4876b146107c357600080fd5b806378e979251461062d5780637c9e1e5714610661578063868fdbea146106955780638da5cb5b146106a8578063906a26e0146106c657600080fd5b806345a20af0116101e857806360153415116101ac57806360153415146104e25780636386c1c7146105165780636605ff6614610582578063715018a6146105b657806372da776e146105cb57806378bb86d31461061757600080fd5b806345a20af014610435578063483383c8146104555780634c5fb3511461048957806350635394146104b6578063549cc321146104cd57600080fd5b80632bcbf7cd1161023a5780632bcbf7cd146103475780633197cbb61461037b5780633a98ef39146103af5780633b8c84d0146103c5578063416ae768146103f2578063458389bd1461041f57600080fd5b80630c0332d0146102775780631188a5f9146102b75780631514617e146102d35780631f2698ab1461030757806323ef4a2d14610331575b600080fd5b34801561028357600080fd5b506102a461029236600461312e565b600a6020526000908152604090205481565b6040519081526020015b60405180910390f35b3480156102c357600080fd5b506102a4670de0b6b3a764000081565b3480156102df57600080fd5b506102a47f000000000000000000000000000000000000000000000000000000000000000081565b34801561031357600080fd5b506002546103219060ff1681565b60405190151581526020016102ae565b34801561033d57600080fd5b506102a460055481565b34801561035357600080fd5b506102a47f000000000000000000000000000000000000000000000000000000000000000081565b34801561038757600080fd5b506102a47f000000000000000000000000000000000000000000000000000000000000000081565b3480156103bb57600080fd5b506102a460045481565b3480156103d157600080fd5b506102a46103e036600461312e565b600b6020526000908152604090205481565b3480156103fe57600080fd5b5061041261040d36600461312e565b6109e4565b6040516102ae919061316d565b34801561042b57600080fd5b506102a460065481565b34801561044157600080fd5b506102a461045036600461312e565b610dca565b34801561046157600080fd5b506102a47f000000000000000000000000000000000000000000000000000000000000000081565b34801561049557600080fd5b506102a46104a436600461312e565b60096020526000908152604090205481565b3480156104c257600080fd5b506104cb611041565b005b3480156104d957600080fd5b506104cb6111d9565b3480156104ee57600080fd5b506102a47f000000000000000000000000000000000000000000000000000000000000000081565b34801561052257600080fd5b5061053661053136600461312e565b611385565b6040516102ae9190600060c082019050825182526020830151602083015260408301516040830152606083015160608301526080830151608083015260a083015160a083015292915050565b34801561058e57600080fd5b506102a47f000000000000000000000000000000000000000000000000000000000000000081565b3480156105c257600080fd5b506104cb611bb8565b3480156105d757600080fd5b506105ff7f000000000000000000000000000000000000000000000000000000000000000081565b6040516001600160a01b0390911681526020016102ae565b34801561062357600080fd5b506102a460035481565b34801561063957600080fd5b506102a47f000000000000000000000000000000000000000000000000000000000000000081565b34801561066d57600080fd5b506105ff7f000000000000000000000000000000000000000000000000000000000000000081565b6104cb6106a3366004613187565b611bca565b3480156106b457600080fd5b506000546001600160a01b03166105ff565b3480156106d257600080fd5b506102a47f000000000000000000000000000000000000000000000000000000000000000081565b34801561070657600080fd5b50600f546105ff906001600160a01b031681565b34801561072657600080fd5b5061032161073536600461312e565b600e6020526000908152604090205460ff1681565b34801561075657600080fd5b5061075f6120d5565b604080519384526020840192909252908201526060016102ae565b34801561078657600080fd5b506102a47f000000000000000000000000000000000000000000000000000000000000000081565b3480156107ba57600080fd5b506104cb6124ae565b3480156107cf57600080fd5b5060025461032190610100900460ff1681565b3480156107ee57600080fd5b506102a47f000000000000000000000000000000000000000000000000000000000000000081565b34801561082257600080fd5b506102a461083136600461312e565b600d6020526000908152604090205481565b34801561084f57600080fd5b506102a47f000000000000000000000000000000000000000000000000000000000000000081565b34801561088357600080fd5b506102a461089236600461312e565b60086020526000908152604090205481565b3480156108b057600080fd5b506104cb61255d565b3480156108c557600080fd5b506104cb61256d565b3480156108da57600080fd5b506102a46108e936600461312e565b60076020526000908152604090205481565b34801561090757600080fd5b506104cb61091636600461312e565b6127c3565b34801561092757600080fd5b506102a47f000000000000000000000000000000000000000000000000000000000000000081565b34801561095b57600080fd5b506102a47f000000000000000000000000000000000000000000000000000000000000000081565b34801561098f57600080fd5b506102a461099e36600461312e565b600c6020526000908152604090205481565b3480156109bc57600080fd5b506102a47f000000000000000000000000000000000000000000000000000000000000000081565b60025460009060ff161580610a1857507f000000000000000000000000000000000000000000000000000000000000000042105b15610a2557506000919050565b7f00000000000000000000000000000000000000000000000000000000000000004210158015610a7457507f000000000000000000000000000000000000000000000000000000000000000042105b15610a8157506001919050565b7f00000000000000000000000000000000000000000000000000000000000000004210158015610ac857506001600160a01b03821660009081526007602052604090205415155b15610ad557506002919050565b7f00000000000000000000000000000000000000000000000000000000000000004210158015610b2457507f000000000000000000000000000000000000000000000000000000000000000042105b8015610b4657506001600160a01b038216600090815260076020526040902054155b8015610b6957506001600160a01b0382166000908152600a602052604090205415155b15610b7657506003919050565b7f00000000000000000000000000000000000000000000000000000000000000004210158015610bbd57506001600160a01b0382166000908152600b602052604090205415155b15610bca57506004919050565b7f00000000000000000000000000000000000000000000000000000000000000004210158015610c1957507f000000000000000000000000000000000000000000000000000000000000000042105b8015610c3b57506001600160a01b0382166000908152600b6020526040902054155b8015610c5e57506001600160a01b0382166000908152600a602052604090205415155b15610c6b57506005919050565b7f00000000000000000000000000000000000000000000000000000000000000004210158015610cb257506001600160a01b0382166000908152600a602052604090205415155b15610cbf57506006919050565b7f00000000000000000000000000000000000000000000000000000000000000004210158015610d0e57507f000000000000000000000000000000000000000000000000000000000000000042105b8015610d3257506001600160a01b0382166000908152600e602052604090205460ff165b15610d3f57506007919050565b7f000000000000000000000000000000000000000000000000000000000000000042118015610d8657506001600160a01b0382166000908152600e602052604090205460ff165b8015610db557506001600160a01b0382166000908152600d6020908152604080832054600c9092529091205414155b15610dc257506008919050565b506009919050565b6000610dd461283c565b6001600160a01b0382166000908152600e602052604090205460ff16610df957600080fd5b7f0000000000000000000000000000000000000000000000000000000000000000421015610e655760405162461bcd60e51b81526020600482015260146024820152731b9bdd0818db185a5b55995cdd1a5b99c81e595d60621b60448201526064015b60405180910390fd5b6008610e70836109e4565b6009811115610e8157610e81613157565b14610e9e5760405162461bcd60e51b8152600401610e5c906131c4565b6000610eea7f00000000000000000000000000000000000000000000000000000000000000007f0000000000000000000000000000000000000000000000000000000000000000613211565b4210610f0f57506001600160a01b0382166000908152600c6020526040902054610f7f565b6001600160a01b0383166000908152600c6020526040902054610f7c90610f567f000000000000000000000000000000000000000000000000000000000000000042613224565b7f0000000000000000000000000000000000000000000000000000000000000000612895565b90505b6001600160a01b0383166000908152600d6020526040812054610fa29083613224565b6001600160a01b038086166000908152600d60205260409020849055909150610fee907f000000000000000000000000000000000000000000000000000000000000000016858361294a565b604080516001600160a01b0386168152602081018390527ffbed6a2445b2fb12101a9cd62317dad46e867f7cc92f27c85f5427ad972491d2910160405180910390a191505061103c60018055565b919050565b61104961283c565b7f00000000000000000000000000000000000000000000000000000000000000004210156110a95760405162461bcd60e51b815260206004820152600d60248201526c1b9bdd08189bdb9d5cc81e595d609a1b6044820152606401610e5c565b60046110b4336109e4565b60098111156110c5576110c5613157565b146110e25760405162461bcd60e51b8152600401610e5c906131c4565b336000908152600b60205260408120546006805491928392611105908490613211565b909155505060008190036111535760405162461bcd60e51b81526020600482015260156024820152746e6f74207a65726f2066696e616c2076616c75657360581b6044820152606401610e5c565b336000818152600b6020526040812055611198907f00000000000000000000000000000000000000000000000000000000000000006001600160a01b0316908361294a565b60405181815233907f49b737950c44e6ab2219a0bfd40fbfa3112502435d424e3c1e00a1c4e0d2603d9060200160405180910390a2506111d760018055565b565b6111e16129ad565b600254610100900460ff1661122b5760405162461bcd60e51b815260206004820152601060248201526f139bdd08199a5b9a5cda1959081e595d60821b6044820152606401610e5c565b6005546003547f000000000000000000000000000000000000000000000000000000000000000011611292577f00000000000000000000000000000000000000000000000000000000000000006003546112859190613224565b61128f9082613211565b90505b60065461129f9082613224565b6040516370a0823160e01b815230600482015290915060009082906001600160a01b037f000000000000000000000000000000000000000000000000000000000000000016906370a0823190602401602060405180830381865afa15801561130b573d6000803e3d6000fd5b505050506040513d601f19601f8201168201806040525081019061132f9190613237565b6113399190613224565b90506113816113506000546001600160a01b031690565b6001600160a01b037f000000000000000000000000000000000000000000000000000000000000000016908361294a565b5050565b6113be6040518060c001604052806000815260200160008152602001600081526020016000815260200160008152602001600081525090565b60006113c9836109e4565b905060008160098111156113df576113df613157565b0361141f576040518060c0016040528060008152602001600081526020016000815260200160008152602001600081526020016000815250915050919050565b600181600981111561143357611433613157565b14806114505750600281600981111561144e5761144e613157565b145b15611740576001600160a01b03831660009081526007602052604081205490036114af576040518060c0016040528060008152602001600081526020016000815260200160008152602001600081526020016000815250915050919050565b7f0000000000000000000000000000000000000000000000000000000000000000600354106116ed576001600160a01b03831660009081526007602052604081205460035461153291906115237f000000000000000000000000000000000000000000000000000000000000000083613250565b61152d919061327d565b612a07565b6001600160a01b0385166000908152600760205260408120549192509061155a908390613224565b600254909150600090610100900460ff16156115785760055461160d565b6003546040516370a0823160e01b81523060048201527f00000000000000000000000000000000000000000000000000000000000000006001600160a01b0316906370a0823190602401602060405180830381865afa1580156115df573d6000803e3d6000fd5b505050506040513d601f19601f820116820180604052508101906116039190613237565b61160d9190613224565b6004546001600160a01b03881660009081526008602052604081205492935091611638908490613250565b611642919061327d565b905060007f00000000000000000000000000000000000000000000000000000000000000006116917f000000000000000000000000000000000000000000000000000000000000000087613250565b61169b919061327d565b6040805160c0810182526001600160a01b03909a16600090815260076020908152828220548c528b01839052908a019390935260608901949094525060808701929092525060a0850152509192915050565b50506040805160c0810182526001600160a01b039092166000818152600760208181528483205480875281870184905294860183905292825290915260608301919091526080820181905260a082015290565b600381600981111561175457611754613157565b14806117715750600481600981111561176f5761176f613157565b145b156117e15750506040805160c0810182526001600160a01b03909216600081815260096020908152838220548552828252600a80825284832054828701819052848452600b835285842054958701959095526060860183905292825291909152608083019190915260a082015290565b60058160098111156117f5576117f5613157565b036118595750506040805160c0810182526001600160a01b03909216600081815260096020908152838220548552828252600a808252848320548287018190529486018390526060860183905292825291909152608083019190915260a082015290565b600681600981111561186d5761186d613157565b03611938576001600160a01b0383166000908152600a6020526040812054670de0b6b3a7640000906118c0907f000000000000000000000000000000000000000000000000000000000000000090613250565b6118ca919061327d565b6040805160c0810182526001600160a01b038716600081815260096020908152848220548452828252600a808252858320548286018190529585018390526060850183905260808501879052929091525291925060a082019061192e908490613224565b9052949350505050565b600781600981111561194c5761194c613157565b036119b05750506040805160c0810182526001600160a01b03909216600081815260096020908152838220548552828252600c808252848320548287018190529486018390526060860183905292825291909152608083019190915260a082015290565b60088160098111156119c4576119c4613157565b03611b4f576000611a157f00000000000000000000000000000000000000000000000000000000000000007f0000000000000000000000000000000000000000000000000000000000000000613211565b4210611a3a57506001600160a01b0383166000908152600c6020526040902054611a84565b6001600160a01b0384166000908152600c6020526040902054611a8190610f567f000000000000000000000000000000000000000000000000000000000000000042613224565b90505b6001600160a01b0384166000908152600d6020526040812054611aa79083613224565b6040805160c0810182526001600160a01b038816600081815260096020908152848220548452918152600d825283812054600c835293902054939450909290830191611af291613224565b81526000602080830182905260408084018390526001600160a01b038a168352600d825280832054600c909252909120546060909201918491611b3491613224565b611b3e9190613224565b815260200191909152949350505050565b6009816009811115611b6357611b63613157565b03611bb25750506040805160c0810182526001600160a01b039092166000908152600960209081528282205484528301819052908201819052606082018190526080820181905260a082015290565b50919050565b611bc06129ad565b6111d76000612a21565b611bd261283c565b6040516370a0823160e01b815233600482015283907f00000000000000000000000000000000000000000000000000000000000000006001600160a01b0316906370a0823190602401602060405180830381865afa158015611c38573d6000803e3d6000fd5b505050506040513d601f19601f82011682018060405250810190611c5c9190613237565b1015611caa5760405162461bcd60e51b815260206004820152601e60248201527f496e73756666696369656e742075736572205553442b2062616c616e636500006044820152606401610e5c565b600f546040516306253ecb60e21b81526001600160a01b0390911690631894fb2c90611cde9033908690869060040161329f565b600060405180830381600087803b158015611cf857600080fd5b505af1158015611d0c573d6000803e3d6000fd5b505060025460ff169150508015611d4357507f00000000000000000000000000000000000000000000000000000000000000004210155b8015611d6e57507f000000000000000000000000000000000000000000000000000000000000000042105b611dcf5760405162461bcd60e51b815260206004820152602c60248201527f43616e206f6e6c79206465706f736974205553442b20647572696e672074686560448201526b081cd85b19481c195c9a5bd960a21b6064820152608401610e5c565b33600090815260076020526040902054611dea908490613211565b7f000000000000000000000000000000000000000000000000000000000000000011158015611e545750336000908152600760205260409020547f000000000000000000000000000000000000000000000000000000000000000090611e51908590613211565b11155b611eb75760405162461bcd60e51b815260206004820152602e60248201527f436f6d6d69746d656e7420616d6f756e74206973206f7574736964652074686560448201526d20616c6c6f7765642072616e676560901b6064820152608401610e5c565b6001611ec2336109e4565b6009811115611ed357611ed3613157565b14611ef05760405162461bcd60e51b8152600401610e5c906131c4565b611f256001600160a01b037f000000000000000000000000000000000000000000000000000000000000000016333086612a71565b3360009081526007602052604081208054859290611f44908490613211565b90915550611f749050427f0000000000000000000000000000000000000000000000000000000000000000613224565b611f9e427f0000000000000000000000000000000000000000000000000000000000000000613224565b611fa89085613250565b611fb29190613250565b3360009081526008602052604081208054909190611fd1908490613211565b909155506120019050427f0000000000000000000000000000000000000000000000000000000000000000613224565b61202b427f0000000000000000000000000000000000000000000000000000000000000000613224565b6120359085613250565b61203f9190613250565b600460008282546120509190613211565b90915550503360009081526009602052604081208054859290612074908490613211565b92505081905550826003600082825461208d9190613211565b909155505060405183815233907f5e1dd8c4451717d5ca4ffbefdada35e22e0871220b9ed9dd03a351f0938c5ed79060200160405180910390a26120d060018055565b505050565b60008060006120e261283c565b7f000000000000000000000000000000000000000000000000000000000000000042116121685760405162461bcd60e51b815260206004820152602e60248201527f43616e206f6e6c7920636c61696d20746f6b656e73206166746572207468652060448201526d1cd85b19481a185cc8195b99195960921b6064820152608401610e5c565b336000908152600760205260409020546121c45760405162461bcd60e51b815260206004820152601f60248201527f596f752068617665206e6f74206465706f736974656420616e79205553442b006044820152606401610e5c565b60026121cf336109e4565b60098111156121e0576121e0613157565b146121fd5760405162461bcd60e51b8152600401610e5c906131c4565b600254610100900460ff1661221457612214612aaf565b7f0000000000000000000000000000000000000000000000000000000000000000600354106123f1573360009081526007602052604081205460035461227f91906115237f000000000000000000000000000000000000000000000000000000000000000083613250565b336000908152600760205260408120549192509061229e908390613224565b60045460055433600090815260086020526040812054939450926122c29190613250565b6122cc919061327d565b905060007f000000000000000000000000000000000000000000000000000000000000000061231b7f000000000000000000000000000000000000000000000000000000000000000086613250565b612325919061327d565b336000908152600760209081526040808320839055600a8252808320849055600b9091528120849055600680549293508592909190612365908490613211565b9091555061239f90506001600160a01b037f000000000000000000000000000000000000000000000000000000000000000016338561294a565b604080518481526020810183905290810183905233907fe25dbc2a67a76c6b285465c3a09eb9c20d692944629a166922fbfee37d9ae7a29060600160405180910390a291955090935091506124a09050565b3360009081526007602052604081208054908290556006805491928392612419908490613211565b9091555061245390506001600160a01b037f000000000000000000000000000000000000000000000000000000000000000016338361294a565b6040805182815260006020820181905281830152905133917fe25dbc2a67a76c6b285465c3a09eb9c20d692944629a166922fbfee37d9ae7a2919081900360600190a29250600091508190505b6124a960018055565b909192565b6124b66129ad565b60025460ff16156124fb5760405162461bcd60e51b815260206004820152600f60248201526e105b1c9958591e481cdd185c9d1959608a1b6044820152606401610e5c565b6002805460ff191660011790556111d76001600160a01b037f00000000000000000000000000000000000000000000000000000000000000001633307f0000000000000000000000000000000000000000000000000000000000000000612a71565b6125656129ad565b6111d7612aaf565b61257561283c565b7f00000000000000000000000000000000000000000000000000000000000000004210156125e55760405162461bcd60e51b815260206004820152601b60248201527f6e6f7420636c61696d53616c65734669727374506172742079657400000000006044820152606401610e5c565b60066125f0336109e4565b600981111561260157612601613157565b1461261e5760405162461bcd60e51b8152600401610e5c906131c4565b336000908152600a6020526040812054908190036126765760405162461bcd60e51b81526020600482015260156024820152746e6f74207a65726f2066696e616c2076616c75657360581b6044820152606401610e5c565b336000908152600a60205260408120819055670de0b6b3a76400006126bb7f000000000000000000000000000000000000000000000000000000000000000084613250565b6126c5919061327d565b336000908152600e602052604090205490915060ff161561271d5760405162461bcd60e51b8152602060048201526012602482015271185b1c9958591e481c9959da5cdd195c995960721b6044820152606401610e5c565b336000818152600c60209081526040808320859055600e9091529020805460ff19166001179055612783906127528385613224565b6001600160a01b037f000000000000000000000000000000000000000000000000000000000000000016919061294a565b60405182815233907f39631b2f316cc07f5be357d18aabbb5a2826625a1c6a9799d741312934fce8d09060200160405180910390a250506111d760018055565b6127cb6129ad565b6001600160a01b0381166128305760405162461bcd60e51b815260206004820152602660248201527f4f776e61626c653a206e6577206f776e657220697320746865207a65726f206160448201526564647265737360d01b6064820152608401610e5c565b61283981612a21565b50565b60026001540361288e5760405162461bcd60e51b815260206004820152601f60248201527f5265656e7472616e637947756172643a207265656e7472616e742063616c6c006044820152606401610e5c565b6002600155565b60008080600019858709858702925082811083820303915050806000036128cf578382816128c5576128c5613267565b0492505050612943565b8084116128db57600080fd5b600084868809851960019081018716968790049682860381900495909211909303600082900391909104909201919091029190911760038402600290811880860282030280860282030280860282030280860282030280860282030280860290910302029150505b9392505050565b6040516001600160a01b0383166024820152604481018290526120d090849063a9059cbb60e01b906064015b60408051601f198184030181529190526020810180516001600160e01b03166001600160e01b031990931692909217909152612ecc565b6000546001600160a01b031633146111d75760405162461bcd60e51b815260206004820181905260248201527f4f776e61626c653a2063616c6c6572206973206e6f7420746865206f776e65726044820152606401610e5c565b6000818310612a165781612a18565b825b90505b92915050565b600080546001600160a01b038381166001600160a01b0319831681178455604051919092169283917f8be0079c531659141344cd1fd0a4f28419497f9722a3daafe3b4186f6b6457e09190a35050565b6040516001600160a01b0380851660248301528316604482015260648101829052612aa99085906323b872dd60e01b90608401612976565b50505050565b7f00000000000000000000000000000000000000000000000000000000000000004211612b2f5760405162461bcd60e51b815260206004820152602860248201527f43616e206f6e6c792066696e697368206166746572207468652073616c652068604482015267185cc8195b99195960c21b6064820152608401610e5c565b600254610100900460ff1615612b7a5760405162461bcd60e51b815260206004820152601060248201526f105b1c9958591e48199a5b9a5cda195960821b6044820152606401610e5c565b6002805461ff0019166101001790556003547f000000000000000000000000000000000000000000000000000000000000000011612c91576000612be07f0000000000000000000000000000000000000000000000000000000000000000600354612a07565b9050612bf76113506000546001600160a01b031690565b612c8b612c0c6000546001600160a01b031690565b7f0000000000000000000000000000000000000000000000000000000000000000612c577f000000000000000000000000000000000000000000000000000000000000000085613250565b612c61919061327d565b612752907f0000000000000000000000000000000000000000000000000000000000000000613224565b50612dd2565b612d6c612ca66000546001600160a01b031690565b6003546040516370a0823160e01b81523060048201527f00000000000000000000000000000000000000000000000000000000000000006001600160a01b0316906370a0823190602401602060405180830381865afa158015612d0d573d6000803e3d6000fd5b505050506040513d601f19601f82011682018060405250810190612d319190613237565b612d3b9190613224565b6001600160a01b037f000000000000000000000000000000000000000000000000000000000000000016919061294a565b612dd2612d816000546001600160a01b031690565b6001600160a01b037f000000000000000000000000000000000000000000000000000000000000000016907f000000000000000000000000000000000000000000000000000000000000000061294a565b6040516370a0823160e01b81523060048201527f00000000000000000000000000000000000000000000000000000000000000006001600160a01b0316906370a0823190602401602060405180830381865afa158015612e36573d6000803e3d6000fd5b505050506040513d601f19601f82011682018060405250810190612e5a9190613237565b6005556003547f0000000000000000000000000000000000000000000000000000000000000000116111d7577f0000000000000000000000000000000000000000000000000000000000000000600354612eb49190613224565b60056000828254612ec59190613224565b9091555050565b6000612f21826040518060400160405280602081526020017f5361666545524332303a206c6f772d6c6576656c2063616c6c206661696c6564815250856001600160a01b0316612f9e9092919063ffffffff16565b8051909150156120d05780806020019051810190612f3f91906132d4565b6120d05760405162461bcd60e51b815260206004820152602a60248201527f5361666545524332303a204552433230206f7065726174696f6e20646964206e6044820152691bdd081cdd58d8d9595960b21b6064820152608401610e5c565b6060612fad8484600085612fb5565b949350505050565b6060824710156130165760405162461bcd60e51b815260206004820152602660248201527f416464726573733a20696e73756666696369656e742062616c616e636520666f6044820152651c8818d85b1b60d21b6064820152608401610e5c565b600080866001600160a01b03168587604051613032919061331a565b60006040518083038185875af1925050503d806000811461306f576040519150601f19603f3d011682016040523d82523d6000602084013e613074565b606091505b509150915061308587838387613090565b979650505050505050565b606083156130ff5782516000036130f8576001600160a01b0385163b6130f85760405162461bcd60e51b815260206004820152601d60248201527f416464726573733a2063616c6c20746f206e6f6e2d636f6e74726163740000006044820152606401610e5c565b5081612fad565b612fad83838151156131145781518083602001fd5b8060405162461bcd60e51b8152600401610e5c9190613336565b60006020828403121561314057600080fd5b81356001600160a01b038116811461294357600080fd5b634e487b7160e01b600052602160045260246000fd5b60208101600a831061318157613181613157565b91905290565b60008060006060848603121561319c57600080fd5b83359250602084013591506040840135600281106131b957600080fd5b809150509250925092565b6020808252601a908201527f496e617070726f70726961746520757365722773207374617465000000000000604082015260600190565b634e487b7160e01b600052601160045260246000fd5b80820180821115612a1b57612a1b6131fb565b81810381811115612a1b57612a1b6131fb565b60006020828403121561324957600080fd5b5051919050565b8082028115828204841417612a1b57612a1b6131fb565b634e487b7160e01b600052601260045260246000fd5b60008261329a57634e487b7160e01b600052601260045260246000fd5b500490565b6001600160a01b03841681526020810183905260608101600283106132c6576132c6613157565b826040830152949350505050565b6000602082840312156132e657600080fd5b8151801515811461294357600080fd5b60005b838110156133115781810151838201526020016132f9565b50506000910152565b6000825161332c8184602087016132f6565b9190910192915050565b60208152600082518060208401526133558160408501602087016132f6565b601f01601f1916919091016040019291505056fea26469706673582212207ce27859e1e99b667c50778be1909949a67251bcdefb68ab573f1749d062784a64736f6c63430008110033",
  "devdoc": {
    "kind": "dev",
    "methods": {
      "claimBonus()": {
        "details": "Claim bonus (rebase) USD+ Executing only after \"claimRefund\" Transfer bonus USD+ to user."
      },
      "claimRefund()": {
        "details": "Claim extra USD+ if total_commit > hard_cap Executing only after end pre-sale. Transfer extra USD+ to user. Calculating also next params: - finalSales (total OVN user should to get) - finalCommit  (total rebase of USD+ user should to get)"
      },
      "claimSalesFirstPart()": {
        "details": "Claim 1 first part of OVN (25% depends from vestingProportion) Executing only after \"claimBonus\" Transfer OVN to user."
      },
      "claimVesting(address)": {
        "details": "Claim unlock OVN tokens by time (vesting) Transfer OVN to user."
      },
      "commit(uint256,uint256,uint8)": {
        "details": "Buy SalesTokens (OVN) for commitTokens (USD+) Execute only by User User should to have Whitelist NFT other transaction revert by error: `!whitelist`",
        "params": {
          "amount": "- amount USD+ for buy OVN",
          "tokenId": "- Whitelist NFT ID",
          "typeNft": "- NFT from Galxe(Service) or OVN Partners (Partner)"
        }
      },
      "finish()": {
        "details": "Finish PRE-SALE  Can execute by Owner in end pre sale  Can execute by user when call claimRefund"
      },
      "getCommitExcess()": {
        "details": "Claim excess USD+ after finished pre-sale excess USD+ appear due to rebase NOT AFFECT USERS BONUS"
      },
      "owner()": {
        "details": "Returns the address of the current owner."
      },
      "renounceOwnership()": {
        "details": "Leaves the contract without owner. It will not be possible to call `onlyOwner` functions anymore. Can only be called by the current owner. NOTE: Renouncing ownership will leave the contract without an owner, thereby removing any functionality that is only available to the owner."
      },
      "start()": {
        "details": "Run Pre Sale Execute only by Owner Owner should have amount \"totalSales\" on balance"
      },
      "transferOwnership(address)": {
        "details": "Transfers ownership of the contract to a new account (`newOwner`). Can only be called by the current owner."
      }
    },
    "version": 1
  },
  "userdoc": {
    "kind": "user",
    "methods": {},
    "version": 1
  },
  "storageLayout": {
    "storage": [
      {
        "astId": 7,
        "contract": "contracts/OverflowICO.sol:OverflowICO",
        "label": "_owner",
        "offset": 0,
        "slot": "0",
        "type": "t_address"
      },
      {
        "astId": 123,
        "contract": "contracts/OverflowICO.sol:OverflowICO",
        "label": "_status",
        "offset": 0,
        "slot": "1",
        "type": "t_uint256"
      },
      {
        "astId": 1943,
        "contract": "contracts/OverflowICO.sol:OverflowICO",
        "label": "started",
        "offset": 0,
        "slot": "2",
        "type": "t_bool"
      },
      {
        "astId": 1945,
        "contract": "contracts/OverflowICO.sol:OverflowICO",
        "label": "finished",
        "offset": 1,
        "slot": "2",
        "type": "t_bool"
      },
      {
        "astId": 1947,
        "contract": "contracts/OverflowICO.sol:OverflowICO",
        "label": "totalCommitments",
        "offset": 0,
        "slot": "3",
        "type": "t_uint256"
      },
      {
        "astId": 1949,
        "contract": "contracts/OverflowICO.sol:OverflowICO",
        "label": "totalShares",
        "offset": 0,
        "slot": "4",
        "type": "t_uint256"
      },
      {
        "astId": 1951,
        "contract": "contracts/OverflowICO.sol:OverflowICO",
        "label": "totalCommitToBonus",
        "offset": 0,
        "slot": "5",
        "type": "t_uint256"
      },
      {
        "astId": 1953,
        "contract": "contracts/OverflowICO.sol:OverflowICO",
        "label": "commitTakenAway",
        "offset": 0,
        "slot": "6",
        "type": "t_uint256"
      },
      {
        "astId": 1957,
        "contract": "contracts/OverflowICO.sol:OverflowICO",
        "label": "commitments",
        "offset": 0,
        "slot": "7",
        "type": "t_mapping(t_address,t_uint256)"
      },
      {
        "astId": 1961,
        "contract": "contracts/OverflowICO.sol:OverflowICO",
        "label": "shares",
        "offset": 0,
        "slot": "8",
        "type": "t_mapping(t_address,t_uint256)"
      },
      {
        "astId": 1965,
        "contract": "contracts/OverflowICO.sol:OverflowICO",
        "label": "immutableCommitments",
        "offset": 0,
        "slot": "9",
        "type": "t_mapping(t_address,t_uint256)"
      },
      {
        "astId": 1969,
        "contract": "contracts/OverflowICO.sol:OverflowICO",
        "label": "finalSales",
        "offset": 0,
        "slot": "10",
        "type": "t_mapping(t_address,t_uint256)"
      },
      {
        "astId": 1973,
        "contract": "contracts/OverflowICO.sol:OverflowICO",
        "label": "finalCommit",
        "offset": 0,
        "slot": "11",
        "type": "t_mapping(t_address,t_uint256)"
      },
      {
        "astId": 1977,
        "contract": "contracts/OverflowICO.sol:OverflowICO",
        "label": "claimableTotal",
        "offset": 0,
        "slot": "12",
        "type": "t_mapping(t_address,t_uint256)"
      },
      {
        "astId": 1981,
        "contract": "contracts/OverflowICO.sol:OverflowICO",
        "label": "claimed",
        "offset": 0,
        "slot": "13",
        "type": "t_mapping(t_address,t_uint256)"
      },
      {
        "astId": 1985,
        "contract": "contracts/OverflowICO.sol:OverflowICO",
        "label": "registered",
        "offset": 0,
        "slot": "14",
        "type": "t_mapping(t_address,t_bool)"
      },
      {
        "astId": 1988,
        "contract": "contracts/OverflowICO.sol:OverflowICO",
        "label": "whitelist",
        "offset": 0,
        "slot": "15",
        "type": "t_contract(IWhitelist)1836"
      }
    ],
    "types": {
      "t_address": {
        "encoding": "inplace",
        "label": "address",
        "numberOfBytes": "20"
      },
      "t_bool": {
        "encoding": "inplace",
        "label": "bool",
        "numberOfBytes": "1"
      },
      "t_contract(IWhitelist)1836": {
        "encoding": "inplace",
        "label": "contract IWhitelist",
        "numberOfBytes": "20"
      },
      "t_mapping(t_address,t_bool)": {
        "encoding": "mapping",
        "key": "t_address",
        "label": "mapping(address => bool)",
        "numberOfBytes": "32",
        "value": "t_bool"
      },
      "t_mapping(t_address,t_uint256)": {
        "encoding": "mapping",
        "key": "t_address",
        "label": "mapping(address => uint256)",
        "numberOfBytes": "32",
        "value": "t_uint256"
      },
      "t_uint256": {
        "encoding": "inplace",
        "label": "uint256",
        "numberOfBytes": "32"
      }
    }
  }
}