{
  "address": "0x35451Cc764414119cb9c9aa30aAA0f0BBb02EaE8",
  "abi": [
    {
      "inputs": [],
      "stateMutability": "nonpayable",
      "type": "constructor"
    },
    {
      "anonymous": false,
      "inputs": [
        {
          "indexed": false,
          "internalType": "address",
          "name": "previousAdmin",
          "type": "address"
        },
        {
          "indexed": false,
          "internalType": "address",
          "name": "newAdmin",
          "type": "address"
        }
      ],
      "name": "AdminChanged",
      "type": "event"
    },
    {
      "anonymous": false,
      "inputs": [
        {
          "indexed": true,
          "internalType": "address",
          "name": "beacon",
          "type": "address"
        }
      ],
      "name": "BeaconUpgraded",
      "type": "event"
    },
    {
      "anonymous": false,
      "inputs": [
        {
          "indexed": false,
          "internalType": "uint8",
          "name": "version",
          "type": "uint8"
        }
      ],
      "name": "Initialized",
      "type": "event"
    },
    {
      "anonymous": false,
      "inputs": [
        {
          "indexed": true,
          "internalType": "address",
          "name": "previousOwner",
          "type": "address"
        },
        {
          "indexed": true,
          "internalType": "address",
          "name": "newOwner",
          "type": "address"
        }
      ],
      "name": "OwnershipTransferred",
      "type": "event"
    },
    {
      "anonymous": false,
      "inputs": [
        {
          "indexed": true,
          "internalType": "address",
          "name": "implementation",
          "type": "address"
        }
      ],
      "name": "Upgraded",
      "type": "event"
    },
    {
      "inputs": [],
      "name": "guarded",
      "outputs": [
        {
          "internalType": "address",
          "name": "",
          "type": "address"
        }
      ],
      "stateMutability": "view",
      "type": "function"
    },
    {
      "inputs": [],
      "name": "initialize",
      "outputs": [],
      "stateMutability": "nonpayable",
      "type": "function"
    },
    {
      "inputs": [
        {
          "internalType": "address",
          "name": "user",
          "type": "address"
        },
        {
          "internalType": "uint256[]",
          "name": "serviceIds",
          "type": "uint256[]"
        },
        {
          "internalType": "uint256[]",
          "name": "partnersIds",
          "type": "uint256[]"
        }
      ],
      "name": "isWhitelist",
      "outputs": [
        {
          "internalType": "bool[]",
          "name": "",
          "type": "bool[]"
        },
        {
          "internalType": "bool[]",
          "name": "",
          "type": "bool[]"
        }
      ],
      "stateMutability": "view",
      "type": "function"
    },
    {
      "inputs": [],
      "name": "owner",
      "outputs": [
        {
          "internalType": "address",
          "name": "",
          "type": "address"
        }
      ],
      "stateMutability": "view",
      "type": "function"
    },
    {
      "inputs": [],
      "name": "partnerNft",
      "outputs": [
        {
          "internalType": "contract IERC721Enumerable",
          "name": "",
          "type": "address"
        }
      ],
      "stateMutability": "view",
      "type": "function"
    },
    {
      "inputs": [],
      "name": "proxiableUUID",
      "outputs": [
        {
          "internalType": "bytes32",
          "name": "",
          "type": "bytes32"
        }
      ],
      "stateMutability": "view",
      "type": "function"
    },
    {
      "inputs": [],
      "name": "renounceOwnership",
      "outputs": [],
      "stateMutability": "nonpayable",
      "type": "function"
    },
    {
      "inputs": [],
      "name": "serviceNft",
      "outputs": [
        {
          "internalType": "contract IERC721Enumerable",
          "name": "",
          "type": "address"
        }
      ],
      "stateMutability": "view",
      "type": "function"
    },
    {
      "inputs": [
        {
          "components": [
            {
              "internalType": "address",
              "name": "serviceNft",
              "type": "address"
            },
            {
              "internalType": "address",
              "name": "partnerNft",
              "type": "address"
            },
            {
              "internalType": "address",
              "name": "guarded",
              "type": "address"
            }
          ],
          "internalType": "struct Whitelist.SetUpParams",
          "name": "params",
          "type": "tuple"
        }
      ],
      "name": "setParams",
      "outputs": [],
      "stateMutability": "nonpayable",
      "type": "function"
    },
    {
      "inputs": [
        {
          "internalType": "address",
          "name": "newOwner",
          "type": "address"
        }
      ],
      "name": "transferOwnership",
      "outputs": [],
      "stateMutability": "nonpayable",
      "type": "function"
    },
    {
      "inputs": [
        {
          "internalType": "address",
          "name": "newImplementation",
          "type": "address"
        }
      ],
      "name": "upgradeTo",
      "outputs": [],
      "stateMutability": "nonpayable",
      "type": "function"
    },
    {
      "inputs": [
        {
          "internalType": "address",
          "name": "newImplementation",
          "type": "address"
        },
        {
          "internalType": "bytes",
          "name": "data",
          "type": "bytes"
        }
      ],
      "name": "upgradeToAndCall",
      "outputs": [],
      "stateMutability": "payable",
      "type": "function"
    },
    {
      "inputs": [
        {
          "internalType": "uint256",
          "name": "",
          "type": "uint256"
        }
      ],
      "name": "usedPartnerNftIds",
      "outputs": [
        {
          "internalType": "bool",
          "name": "",
          "type": "bool"
        }
      ],
      "stateMutability": "view",
      "type": "function"
    },
    {
      "inputs": [
        {
          "internalType": "uint256",
          "name": "",
          "type": "uint256"
        }
      ],
      "name": "usedServiceNftIds",
      "outputs": [
        {
          "internalType": "bool",
          "name": "",
          "type": "bool"
        }
      ],
      "stateMutability": "view",
      "type": "function"
    },
    {
      "inputs": [
        {
          "internalType": "address",
          "name": "user",
          "type": "address"
        },
        {
          "internalType": "uint256",
          "name": "tokenId",
          "type": "uint256"
        },
        {
          "internalType": "enum IWhitelist.TypeNft",
          "name": "typeNft",
          "type": "uint8"
        }
      ],
      "name": "verify",
      "outputs": [],
      "stateMutability": "nonpayable",
      "type": "function"
    },
    {
      "inputs": [
        {
          "internalType": "address",
          "name": "user",
          "type": "address"
        },
        {
          "internalType": "uint256",
          "name": "tokenId",
          "type": "uint256"
        }
      ],
      "name": "verifyPartnerNft",
      "outputs": [
        {
          "internalType": "bool",
          "name": "",
          "type": "bool"
        }
      ],
      "stateMutability": "view",
      "type": "function"
    },
    {
      "inputs": [
        {
          "internalType": "address",
          "name": "user",
          "type": "address"
        },
        {
          "internalType": "uint256",
          "name": "tokenId",
          "type": "uint256"
        }
      ],
      "name": "verifyServiceNft",
      "outputs": [
        {
          "internalType": "bool",
          "name": "",
          "type": "bool"
        }
      ],
      "stateMutability": "view",
      "type": "function"
    }
  ],
  "numDeployments": 1,
  "solcInputHash": "614831e685558e624585547150f8da91",
  "bytecode": "0x60a06040523060805234801561001457600080fd5b5061001d610022565b6100e2565b600054610100900460ff161561008e5760405162461bcd60e51b815260206004820152602760248201527f496e697469616c697a61626c653a20636f6e747261637420697320696e697469604482015266616c697a696e6760c81b606482015260840160405180910390fd5b60005460ff90811610156100e0576000805460ff191660ff9081179091556040519081527f7f26b83ff96e1f2b6a682f133852f6798a09c465da95921460cefb38474024989060200160405180910390a15b565b6080516116016101196000396000818161053101528181610571015281816106100152818161065001526106e301526116016000f3fe6080604052600436106100fe5760003560e01c80638129fc1c11610095578063ac5a629f11610064578063ac5a629f14610290578063b1c69e7b146102c0578063e56efef5146102f0578063f2fde38b14610310578063ffe180481461033057600080fd5b80638129fc1c1461021d578063813fc8cb146102325780638da5cb5b14610252578063903f2be21461027057600080fd5b806352d1902d116100d157806352d1902d1461018d5780635d4bcd4b146101b0578063715018a6146101d057806372f7a030146101e557600080fd5b80631894fb2c1461010357806327f660e5146101255780633659cfe61461015a5780634f1ef2861461017a575b600080fd5b34801561010f57600080fd5b5061012361011e36600461106b565b61035e565b005b34801561013157600080fd5b506101456101403660046110b1565b610488565b60405190151581526020015b60405180910390f35b34801561016657600080fd5b506101236101753660046110dd565b610527565b610123610188366004611141565b610606565b34801561019957600080fd5b506101a26106d6565b604051908152602001610151565b3480156101bc57600080fd5b506101236101cb3660046111e9565b610789565b3480156101dc57600080fd5b506101236107da565b3480156101f157600080fd5b5060cd54610205906001600160a01b031681565b6040516001600160a01b039091168152602001610151565b34801561022957600080fd5b506101236107ee565b34801561023e57600080fd5b5061014561024d3660046110b1565b610906565b34801561025e57600080fd5b506033546001600160a01b0316610205565b34801561027c57600080fd5b5060ca54610205906001600160a01b031681565b34801561029c57600080fd5b506101456102ab36600461125b565b60cc6020526000908152604090205460ff1681565b3480156102cc57600080fd5b506101456102db36600461125b565b60cb6020526000908152604090205460ff1681565b3480156102fc57600080fd5b5060c954610205906001600160a01b031681565b34801561031c57600080fd5b5061012361032b3660046110dd565b6109a3565b34801561033c57600080fd5b5061035061034b3660046112c0565b610a19565b604051610151929190611380565b60cd546001600160a01b031633146103ac5760405162461bcd60e51b815260206004820152600c60248201526b1bdb9b1e4819dd585c99195960a21b60448201526064015b60405180910390fd5b60008160018111156103c0576103c06113a5565b03610426576103cf8383610488565b6104085760405162461bcd60e51b815260206004820152600a602482015269085dda1a5d195b1a5cdd60b21b60448201526064016103a3565b600082815260cb60205260409020805460ff19166001179055505050565b6104308383610906565b6104695760405162461bcd60e51b815260206004820152600a602482015269085dda1a5d195b1a5cdd60b21b60448201526064016103a3565b600082815260cc60205260409020805460ff191660011790555b505050565b60c9546040516331a9108f60e11b8152600481018390526000916001600160a01b0385811692911690636352211e90602401602060405180830381865afa1580156104d7573d6000803e3d6000fd5b505050506040513d601f19601f820116820180604052508101906104fb91906113bb565b6001600160a01b03161480156105205750600082815260cb602052604090205460ff16155b9392505050565b6001600160a01b037f000000000000000000000000000000000000000000000000000000000000000016300361056f5760405162461bcd60e51b81526004016103a3906113d8565b7f00000000000000000000000000000000000000000000000000000000000000006001600160a01b03166105b8600080516020611585833981519152546001600160a01b031690565b6001600160a01b0316146105de5760405162461bcd60e51b81526004016103a390611424565b6105e781610b78565b6040805160008082526020820190925261060391839190610b80565b50565b6001600160a01b037f000000000000000000000000000000000000000000000000000000000000000016300361064e5760405162461bcd60e51b81526004016103a3906113d8565b7f00000000000000000000000000000000000000000000000000000000000000006001600160a01b0316610697600080516020611585833981519152546001600160a01b031690565b6001600160a01b0316146106bd5760405162461bcd60e51b81526004016103a390611424565b6106c682610b78565b6106d282826001610b80565b5050565b6000306001600160a01b037f000000000000000000000000000000000000000000000000000000000000000016146107765760405162461bcd60e51b815260206004820152603860248201527f555550535570677261646561626c653a206d757374206e6f742062652063616c60448201527f6c6564207468726f7567682064656c656761746563616c6c000000000000000060648201526084016103a3565b5060008051602061158583398151915290565b610791610ceb565b805160c980546001600160a01b03199081166001600160a01b0393841617909155602083015160ca8054831691841691909117905560409092015160cd80549093169116179055565b6107e2610ceb565b6107ec6000610d45565b565b600054610100900460ff161580801561080e5750600054600160ff909116105b806108285750303b158015610828575060005460ff166001145b61088b5760405162461bcd60e51b815260206004820152602e60248201527f496e697469616c697a61626c653a20636f6e747261637420697320616c72656160448201526d191e481a5b9a5d1a585b1a5e995960921b60648201526084016103a3565b6000805460ff1916600117905580156108ae576000805461ff0019166101001790555b6108b6610d97565b6108be610dbe565b8015610603576000805461ff0019169055604051600181527f7f26b83ff96e1f2b6a682f133852f6798a09c465da95921460cefb38474024989060200160405180910390a150565b60ca546040516331a9108f60e11b8152600481018390526000916001600160a01b0385811692911690636352211e90602401602060405180830381865afa158015610955573d6000803e3d6000fd5b505050506040513d601f19601f8201168201806040525081019061097991906113bb565b6001600160a01b0316148015610520575050600090815260cc602052604090205460ff1615919050565b6109ab610ceb565b6001600160a01b038116610a105760405162461bcd60e51b815260206004820152602660248201527f4f776e61626c653a206e6577206f776e657220697320746865207a65726f206160448201526564647265737360d01b60648201526084016103a3565b61060381610d45565b60608060008567ffffffffffffffff811115610a3757610a376110fa565b604051908082528060200260200182016040528015610a60578160200160208202803683370190505b50905060005b86811015610ac257610a9089898984818110610a8457610a84611470565b90506020020135610488565b828281518110610aa257610aa2611470565b91151560209283029190910190910152610abb81611486565b9050610a66565b5060008467ffffffffffffffff811115610ade57610ade6110fa565b604051908082528060200260200182016040528015610b07578160200160208202803683370190505b50905060005b85811015610b6957610b378a888884818110610b2b57610b2b611470565b90506020020135610906565b828281518110610b4957610b49611470565b91151560209283029190910190910152610b6281611486565b9050610b0d565b50909890975095505050505050565b610603610ceb565b7f4910fdfa16fed3260ed0e7147f7cc6da11a60208b5b9406d12a635614ffd91435460ff1615610bb35761048383610ded565b826001600160a01b03166352d1902d6040518163ffffffff1660e01b8152600401602060405180830381865afa925050508015610c0d575060408051601f3d908101601f19168201909252610c0a918101906114ad565b60015b610c705760405162461bcd60e51b815260206004820152602e60248201527f45524331393637557067726164653a206e657720696d706c656d656e7461746960448201526d6f6e206973206e6f74205555505360901b60648201526084016103a3565b6000805160206115858339815191528114610cdf5760405162461bcd60e51b815260206004820152602960248201527f45524331393637557067726164653a20756e737570706f727465642070726f786044820152681a58589b195555525160ba1b60648201526084016103a3565b50610483838383610e89565b6033546001600160a01b031633146107ec5760405162461bcd60e51b815260206004820181905260248201527f4f776e61626c653a2063616c6c6572206973206e6f7420746865206f776e657260448201526064016103a3565b603380546001600160a01b038381166001600160a01b0319831681179093556040519116919082907f8be0079c531659141344cd1fd0a4f28419497f9722a3daafe3b4186f6b6457e090600090a35050565b600054610100900460ff166107ec5760405162461bcd60e51b81526004016103a3906114c6565b600054610100900460ff16610de55760405162461bcd60e51b81526004016103a3906114c6565b6107ec610eb4565b6001600160a01b0381163b610e5a5760405162461bcd60e51b815260206004820152602d60248201527f455243313936373a206e657720696d706c656d656e746174696f6e206973206e60448201526c1bdd08184818dbdb9d1c9858dd609a1b60648201526084016103a3565b60008051602061158583398151915280546001600160a01b0319166001600160a01b0392909216919091179055565b610e9283610ee4565b600082511180610e9f5750805b1561048357610eae8383610f24565b50505050565b600054610100900460ff16610edb5760405162461bcd60e51b81526004016103a3906114c6565b6107ec33610d45565b610eed81610ded565b6040516001600160a01b038216907fbc7cd75a20ee27fd9adebab32041f755214dbc6bffa90cc0225b39da2e5c2d3b90600090a250565b60606001600160a01b0383163b610f8c5760405162461bcd60e51b815260206004820152602660248201527f416464726573733a2064656c65676174652063616c6c20746f206e6f6e2d636f6044820152651b9d1c9858dd60d21b60648201526084016103a3565b600080846001600160a01b031684604051610fa79190611535565b600060405180830381855af49150503d8060008114610fe2576040519150601f19603f3d011682016040523d82523d6000602084013e610fe7565b606091505b509150915061100f82826040518060600160405280602781526020016115a560279139611018565b95945050505050565b60608315611027575081610520565b610520838381511561103c5781518083602001fd5b8060405162461bcd60e51b81526004016103a39190611551565b6001600160a01b038116811461060357600080fd5b60008060006060848603121561108057600080fd5b833561108b81611056565b9250602084013591506040840135600281106110a657600080fd5b809150509250925092565b600080604083850312156110c457600080fd5b82356110cf81611056565b946020939093013593505050565b6000602082840312156110ef57600080fd5b813561052081611056565b634e487b7160e01b600052604160045260246000fd5b604051601f8201601f1916810167ffffffffffffffff81118282101715611139576111396110fa565b604052919050565b6000806040838503121561115457600080fd5b823561115f81611056565b915060208381013567ffffffffffffffff8082111561117d57600080fd5b818601915086601f83011261119157600080fd5b8135818111156111a3576111a36110fa565b6111b5601f8201601f19168501611110565b915080825287848285010111156111cb57600080fd5b80848401858401376000848284010152508093505050509250929050565b6000606082840312156111fb57600080fd5b6040516060810181811067ffffffffffffffff8211171561121e5761121e6110fa565b604052823561122c81611056565b8152602083013561123c81611056565b6020820152604083013561124f81611056565b60408201529392505050565b60006020828403121561126d57600080fd5b5035919050565b60008083601f84011261128657600080fd5b50813567ffffffffffffffff81111561129e57600080fd5b6020830191508360208260051b85010111156112b957600080fd5b9250929050565b6000806000806000606086880312156112d857600080fd5b85356112e381611056565b9450602086013567ffffffffffffffff8082111561130057600080fd5b61130c89838a01611274565b9096509450604088013591508082111561132557600080fd5b5061133288828901611274565b969995985093965092949392505050565b600081518084526020808501945080840160005b83811015611375578151151587529582019590820190600101611357565b509495945050505050565b6040815260006113936040830185611343565b828103602084015261100f8185611343565b634e487b7160e01b600052602160045260246000fd5b6000602082840312156113cd57600080fd5b815161052081611056565b6020808252602c908201527f46756e6374696f6e206d7573742062652063616c6c6564207468726f7567682060408201526b19195b1959d85d1958d85b1b60a21b606082015260800190565b6020808252602c908201527f46756e6374696f6e206d7573742062652063616c6c6564207468726f7567682060408201526b6163746976652070726f787960a01b606082015260800190565b634e487b7160e01b600052603260045260246000fd5b6000600182016114a657634e487b7160e01b600052601160045260246000fd5b5060010190565b6000602082840312156114bf57600080fd5b5051919050565b6020808252602b908201527f496e697469616c697a61626c653a20636f6e7472616374206973206e6f74206960408201526a6e697469616c697a696e6760a81b606082015260800190565b60005b8381101561152c578181015183820152602001611514565b50506000910152565b60008251611547818460208701611511565b9190910192915050565b6020815260008251806020840152611570816040850160208701611511565b601f01601f1916919091016040019291505056fe360894a13ba1a3210667c828492db98dca3e2076cc3735a920a3ca505d382bbc416464726573733a206c6f772d6c6576656c2064656c65676174652063616c6c206661696c6564a2646970667358221220e9b62cbf459e3b8449c521598dc389d36688a5bec5bfc9642e1c938a3b2f251564736f6c63430008110033",
  "implementation": "0xBD058c384A9818c4F60dfEA723DC5A57FCb14ba4",
  "devdoc": {
    "kind": "dev",
    "methods": {
      "constructor": {
        "custom:oz-upgrades-unsafe-allow": "constructor"
      },
      "owner()": {
        "details": "Returns the address of the current owner."
      },
      "proxiableUUID()": {
        "details": "Implementation of the ERC1822 {proxiableUUID} function. This returns the storage slot used by the implementation. It is used to validate the implementation's compatibility when performing an upgrade. IMPORTANT: A proxy pointing at a proxiable contract should not be considered proxiable itself, because this risks bricking a proxy that upgrades to it, by delegating to itself until out of gas. Thus it is critical that this function revert if invoked through a proxy. This is guaranteed by the `notDelegated` modifier."
      },
      "renounceOwnership()": {
        "details": "Leaves the contract without owner. It will not be possible to call `onlyOwner` functions anymore. Can only be called by the current owner. NOTE: Renouncing ownership will leave the contract without an owner, thereby removing any functionality that is only available to the owner."
      },
      "transferOwnership(address)": {
        "details": "Transfers ownership of the contract to a new account (`newOwner`). Can only be called by the current owner."
      },
      "upgradeTo(address)": {
        "details": "Upgrade the implementation of the proxy to `newImplementation`. Calls {_authorizeUpgrade}. Emits an {Upgraded} event."
      },
      "upgradeToAndCall(address,bytes)": {
        "details": "Upgrade the implementation of the proxy to `newImplementation`, and subsequently execute the function call encoded in `data`. Calls {_authorizeUpgrade}. Emits an {Upgraded} event."
      }
    },
    "version": 1
  },
  "userdoc": {
    "kind": "user",
    "methods": {},
    "version": 1
  },
  "storageLayout": {
    "storage": [
      {
        "astId": 936,
        "contract": "contracts/Whitelist.sol:Whitelist",
        "label": "_initialized",
        "offset": 0,
        "slot": "0",
        "type": "t_uint8"
      },
      {
        "astId": 939,
        "contract": "contracts/Whitelist.sol:Whitelist",
        "label": "_initializing",
        "offset": 1,
        "slot": "0",
        "type": "t_bool"
      },
      {
        "astId": 3180,
        "contract": "contracts/Whitelist.sol:Whitelist",
        "label": "__gap",
        "offset": 0,
        "slot": "1",
        "type": "t_array(t_uint256)50_storage"
      },
      {
        "astId": 419,
        "contract": "contracts/Whitelist.sol:Whitelist",
        "label": "_owner",
        "offset": 0,
        "slot": "51",
        "type": "t_address"
      },
      {
        "astId": 539,
        "contract": "contracts/Whitelist.sol:Whitelist",
        "label": "__gap",
        "offset": 0,
        "slot": "52",
        "type": "t_array(t_uint256)49_storage"
      },
      {
        "astId": 918,
        "contract": "contracts/Whitelist.sol:Whitelist",
        "label": "__gap",
        "offset": 0,
        "slot": "101",
        "type": "t_array(t_uint256)50_storage"
      },
      {
        "astId": 1233,
        "contract": "contracts/Whitelist.sol:Whitelist",
        "label": "__gap",
        "offset": 0,
        "slot": "151",
        "type": "t_array(t_uint256)50_storage"
      },
      {
        "astId": 10981,
        "contract": "contracts/Whitelist.sol:Whitelist",
        "label": "serviceNft",
        "offset": 0,
        "slot": "201",
        "type": "t_contract(IERC721Enumerable)5732"
      },
      {
        "astId": 10984,
        "contract": "contracts/Whitelist.sol:Whitelist",
        "label": "partnerNft",
        "offset": 0,
        "slot": "202",
        "type": "t_contract(IERC721Enumerable)5732"
      },
      {
        "astId": 10988,
        "contract": "contracts/Whitelist.sol:Whitelist",
        "label": "usedServiceNftIds",
        "offset": 0,
        "slot": "203",
        "type": "t_mapping(t_uint256,t_bool)"
      },
      {
        "astId": 10992,
        "contract": "contracts/Whitelist.sol:Whitelist",
        "label": "usedPartnerNftIds",
        "offset": 0,
        "slot": "204",
        "type": "t_mapping(t_uint256,t_bool)"
      },
      {
        "astId": 10994,
        "contract": "contracts/Whitelist.sol:Whitelist",
        "label": "guarded",
        "offset": 0,
        "slot": "205",
        "type": "t_address"
      }
    ],
    "types": {
      "t_address": {
        "encoding": "inplace",
        "label": "address",
        "numberOfBytes": "20"
      },
      "t_array(t_uint256)49_storage": {
        "base": "t_uint256",
        "encoding": "inplace",
        "label": "uint256[49]",
        "numberOfBytes": "1568"
      },
      "t_array(t_uint256)50_storage": {
        "base": "t_uint256",
        "encoding": "inplace",
        "label": "uint256[50]",
        "numberOfBytes": "1600"
      },
      "t_bool": {
        "encoding": "inplace",
        "label": "bool",
        "numberOfBytes": "1"
      },
      "t_contract(IERC721Enumerable)5732": {
        "encoding": "inplace",
        "label": "contract IERC721Enumerable",
        "numberOfBytes": "20"
      },
      "t_mapping(t_uint256,t_bool)": {
        "encoding": "mapping",
        "key": "t_uint256",
        "label": "mapping(uint256 => bool)",
        "numberOfBytes": "32",
        "value": "t_bool"
      },
      "t_uint256": {
        "encoding": "inplace",
        "label": "uint256",
        "numberOfBytes": "32"
      },
      "t_uint8": {
        "encoding": "inplace",
        "label": "uint8",
        "numberOfBytes": "1"
      }
    }
  }
}