{
  "address": "0x18dF2Ead431595dA94D75b0d1D444E771De6c90A",
  "abi": [
    {
      "inputs": [],
      "stateMutability": "nonpayable",
      "type": "constructor"
    },
    {
      "anonymous": false,
      "inputs": [
        {
          "indexed": false,
          "internalType": "address",
          "name": "previousAdmin",
          "type": "address"
        },
        {
          "indexed": false,
          "internalType": "address",
          "name": "newAdmin",
          "type": "address"
        }
      ],
      "name": "AdminChanged",
      "type": "event"
    },
    {
      "anonymous": false,
      "inputs": [
        {
          "indexed": true,
          "internalType": "address",
          "name": "beacon",
          "type": "address"
        }
      ],
      "name": "BeaconUpgraded",
      "type": "event"
    },
    {
      "anonymous": false,
      "inputs": [
        {
          "indexed": false,
          "internalType": "uint8",
          "name": "version",
          "type": "uint8"
        }
      ],
      "name": "Initialized",
      "type": "event"
    },
    {
      "anonymous": false,
      "inputs": [
        {
          "indexed": false,
          "internalType": "address",
          "name": "value",
          "type": "address"
        }
      ],
      "name": "PortfolioManagerUpdated",
      "type": "event"
    },
    {
      "anonymous": false,
      "inputs": [
        {
          "indexed": false,
          "internalType": "uint256",
          "name": "amount",
          "type": "uint256"
        }
      ],
      "name": "Reward",
      "type": "event"
    },
    {
      "anonymous": false,
      "inputs": [
        {
          "indexed": true,
          "internalType": "bytes32",
          "name": "role",
          "type": "bytes32"
        },
        {
          "indexed": true,
          "internalType": "bytes32",
          "name": "previousAdminRole",
          "type": "bytes32"
        },
        {
          "indexed": true,
          "internalType": "bytes32",
          "name": "newAdminRole",
          "type": "bytes32"
        }
      ],
      "name": "RoleAdminChanged",
      "type": "event"
    },
    {
      "anonymous": false,
      "inputs": [
        {
          "indexed": true,
          "internalType": "bytes32",
          "name": "role",
          "type": "bytes32"
        },
        {
          "indexed": true,
          "internalType": "address",
          "name": "account",
          "type": "address"
        },
        {
          "indexed": true,
          "internalType": "address",
          "name": "sender",
          "type": "address"
        }
      ],
      "name": "RoleGranted",
      "type": "event"
    },
    {
      "anonymous": false,
      "inputs": [
        {
          "indexed": true,
          "internalType": "bytes32",
          "name": "role",
          "type": "bytes32"
        },
        {
          "indexed": true,
          "internalType": "address",
          "name": "account",
          "type": "address"
        },
        {
          "indexed": true,
          "internalType": "address",
          "name": "sender",
          "type": "address"
        }
      ],
      "name": "RoleRevoked",
      "type": "event"
    },
    {
      "anonymous": false,
      "inputs": [
        {
          "indexed": false,
          "internalType": "uint256",
          "name": "swapSlippageBP",
          "type": "uint256"
        },
        {
          "indexed": false,
          "internalType": "uint256",
          "name": "navSlippageBP",
          "type": "uint256"
        },
        {
          "indexed": false,
          "internalType": "uint256",
          "name": "stakeSlippageBP",
          "type": "uint256"
        }
      ],
      "name": "SlippagesUpdated",
      "type": "event"
    },
    {
      "anonymous": false,
      "inputs": [
        {
          "indexed": false,
          "internalType": "uint256",
          "name": "amount",
          "type": "uint256"
        }
      ],
      "name": "Stake",
      "type": "event"
    },
    {
      "anonymous": false,
      "inputs": [],
      "name": "StrategyUpdatedParams",
      "type": "event"
    },
    {
      "anonymous": false,
      "inputs": [
        {
          "indexed": false,
          "internalType": "uint256",
          "name": "amount",
          "type": "uint256"
        },
        {
          "indexed": false,
          "internalType": "uint256",
          "name": "amountReceived",
          "type": "uint256"
        }
      ],
      "name": "Unstake",
      "type": "event"
    },
    {
      "anonymous": false,
      "inputs": [
        {
          "indexed": true,
          "internalType": "address",
          "name": "implementation",
          "type": "address"
        }
      ],
      "name": "Upgraded",
      "type": "event"
    },
    {
      "inputs": [],
      "name": "DEFAULT_ADMIN_ROLE",
      "outputs": [
        {
          "internalType": "bytes32",
          "name": "",
          "type": "bytes32"
        }
      ],
      "stateMutability": "view",
      "type": "function"
    },
    {
      "inputs": [],
      "name": "PORTFOLIO_AGENT_ROLE",
      "outputs": [
        {
          "internalType": "bytes32",
          "name": "",
          "type": "bytes32"
        }
      ],
      "stateMutability": "view",
      "type": "function"
    },
    {
      "inputs": [],
      "name": "PORTFOLIO_MANAGER",
      "outputs": [
        {
          "internalType": "bytes32",
          "name": "",
          "type": "bytes32"
        }
      ],
      "stateMutability": "view",
      "type": "function"
    },
    {
      "inputs": [
        {
          "internalType": "address",
          "name": "_to",
          "type": "address"
        }
      ],
      "name": "claimRewards",
      "outputs": [
        {
          "internalType": "uint256",
          "name": "",
          "type": "uint256"
        }
      ],
      "stateMutability": "nonpayable",
      "type": "function"
    },
    {
      "inputs": [],
      "name": "curve3Pool",
      "outputs": [
        {
          "internalType": "address",
          "name": "",
          "type": "address"
        }
      ],
      "stateMutability": "view",
      "type": "function"
    },
    {
      "inputs": [],
      "name": "getCurrentSqrtRatio",
      "outputs": [
        {
          "internalType": "uint160",
          "name": "sqrtRatioX96",
          "type": "uint160"
        }
      ],
      "stateMutability": "view",
      "type": "function"
    },
    {
      "inputs": [],
      "name": "getLiquidity",
      "outputs": [
        {
          "internalType": "uint128",
          "name": "liquidity",
          "type": "uint128"
        }
      ],
      "stateMutability": "view",
      "type": "function"
    },
    {
      "inputs": [
        {
          "internalType": "int24",
          "name": "lowerTick",
          "type": "int24"
        },
        {
          "internalType": "int24",
          "name": "upperTick",
          "type": "int24"
        }
      ],
      "name": "getPreviousTicks",
      "outputs": [
        {
          "internalType": "int24",
          "name": "lowerPrevious",
          "type": "int24"
        },
        {
          "internalType": "int24",
          "name": "upperPrevious",
          "type": "int24"
        }
      ],
      "stateMutability": "view",
      "type": "function"
    },
    {
      "inputs": [
        {
          "internalType": "bytes32",
          "name": "role",
          "type": "bytes32"
        }
      ],
      "name": "getRoleAdmin",
      "outputs": [
        {
          "internalType": "bytes32",
          "name": "",
          "type": "bytes32"
        }
      ],
      "stateMutability": "view",
      "type": "function"
    },
    {
      "inputs": [
        {
          "internalType": "bytes32",
          "name": "role",
          "type": "bytes32"
        },
        {
          "internalType": "address",
          "name": "account",
          "type": "address"
        }
      ],
      "name": "grantRole",
      "outputs": [],
      "stateMutability": "nonpayable",
      "type": "function"
    },
    {
      "inputs": [
        {
          "internalType": "bytes32",
          "name": "role",
          "type": "bytes32"
        },
        {
          "internalType": "address",
          "name": "account",
          "type": "address"
        }
      ],
      "name": "hasRole",
      "outputs": [
        {
          "internalType": "bool",
          "name": "",
          "type": "bool"
        }
      ],
      "stateMutability": "view",
      "type": "function"
    },
    {
      "inputs": [],
      "name": "initialize",
      "outputs": [],
      "stateMutability": "nonpayable",
      "type": "function"
    },
    {
      "inputs": [],
      "name": "liquidationValue",
      "outputs": [
        {
          "internalType": "uint256",
          "name": "",
          "type": "uint256"
        }
      ],
      "stateMutability": "view",
      "type": "function"
    },
    {
      "inputs": [],
      "name": "lm",
      "outputs": [
        {
          "internalType": "contract KyberSwapElasticLM",
          "name": "",
          "type": "address"
        }
      ],
      "stateMutability": "view",
      "type": "function"
    },
    {
      "inputs": [],
      "name": "navSlippageBP",
      "outputs": [
        {
          "internalType": "uint256",
          "name": "",
          "type": "uint256"
        }
      ],
      "stateMutability": "view",
      "type": "function"
    },
    {
      "inputs": [],
      "name": "netAssetValue",
      "outputs": [
        {
          "internalType": "uint256",
          "name": "",
          "type": "uint256"
        }
      ],
      "stateMutability": "view",
      "type": "function"
    },
    {
      "inputs": [],
      "name": "npm",
      "outputs": [
        {
          "internalType": "contract AntiSnipAttackPositionManager",
          "name": "",
          "type": "address"
        }
      ],
      "stateMutability": "view",
      "type": "function"
    },
    {
      "inputs": [],
      "name": "oracleUsdc",
      "outputs": [
        {
          "internalType": "contract IPriceFeed",
          "name": "",
          "type": "address"
        }
      ],
      "stateMutability": "view",
      "type": "function"
    },
    {
      "inputs": [],
      "name": "oracleUsdt",
      "outputs": [
        {
          "internalType": "contract IPriceFeed",
          "name": "",
          "type": "address"
        }
      ],
      "stateMutability": "view",
      "type": "function"
    },
    {
      "inputs": [],
      "name": "pool",
      "outputs": [
        {
          "internalType": "contract Pool",
          "name": "",
          "type": "address"
        }
      ],
      "stateMutability": "view",
      "type": "function"
    },
    {
      "inputs": [],
      "name": "portfolioManager",
      "outputs": [
        {
          "internalType": "address",
          "name": "",
          "type": "address"
        }
      ],
      "stateMutability": "view",
      "type": "function"
    },
    {
      "inputs": [],
      "name": "proxiableUUID",
      "outputs": [
        {
          "internalType": "bytes32",
          "name": "",
          "type": "bytes32"
        }
      ],
      "stateMutability": "view",
      "type": "function"
    },
    {
      "inputs": [
        {
          "internalType": "bytes32",
          "name": "role",
          "type": "bytes32"
        },
        {
          "internalType": "address",
          "name": "account",
          "type": "address"
        }
      ],
      "name": "renounceRole",
      "outputs": [],
      "stateMutability": "nonpayable",
      "type": "function"
    },
    {
      "inputs": [
        {
          "internalType": "bytes32",
          "name": "role",
          "type": "bytes32"
        },
        {
          "internalType": "address",
          "name": "account",
          "type": "address"
        }
      ],
      "name": "revokeRole",
      "outputs": [],
      "stateMutability": "nonpayable",
      "type": "function"
    },
    {
      "inputs": [
        {
          "components": [
            {
              "internalType": "address",
              "name": "usdc",
              "type": "address"
            },
            {
              "internalType": "address",
              "name": "usdt",
              "type": "address"
            },
            {
              "internalType": "address",
              "name": "oracleUsdc",
              "type": "address"
            },
            {
              "internalType": "address",
              "name": "oracleUsdt",
              "type": "address"
            },
            {
              "internalType": "address",
              "name": "uniswapV3Router",
              "type": "address"
            },
            {
              "internalType": "address",
              "name": "pool",
              "type": "address"
            },
            {
              "internalType": "address",
              "name": "npm",
              "type": "address"
            },
            {
              "internalType": "address",
              "name": "lm",
              "type": "address"
            },
            {
              "internalType": "uint24",
              "name": "fee",
              "type": "uint24"
            },
            {
              "internalType": "uint256",
              "name": "poolId",
              "type": "uint256"
            },
            {
              "internalType": "int24",
              "name": "lowerTick",
              "type": "int24"
            },
            {
              "internalType": "int24",
              "name": "upperTick",
              "type": "int24"
            },
            {
              "internalType": "address",
              "name": "curve3Pool",
              "type": "address"
            }
          ],
          "internalType": "struct StrategyKyberSwapUsdcUsdt.StrategyParams",
          "name": "params",
          "type": "tuple"
        }
      ],
      "name": "setParams",
      "outputs": [],
      "stateMutability": "nonpayable",
      "type": "function"
    },
    {
      "inputs": [
        {
          "internalType": "address",
          "name": "_value",
          "type": "address"
        }
      ],
      "name": "setPortfolioManager",
      "outputs": [],
      "stateMutability": "nonpayable",
      "type": "function"
    },
    {
      "inputs": [
        {
          "internalType": "uint256",
          "name": "_swapSlippageBP",
          "type": "uint256"
        },
        {
          "internalType": "uint256",
          "name": "_navSlippageBP",
          "type": "uint256"
        },
        {
          "internalType": "uint256",
          "name": "_stakeSlippageBP",
          "type": "uint256"
        }
      ],
      "name": "setSlippages",
      "outputs": [],
      "stateMutability": "nonpayable",
      "type": "function"
    },
    {
      "inputs": [
        {
          "internalType": "address",
          "name": "_asset",
          "type": "address"
        },
        {
          "internalType": "uint256",
          "name": "_amount",
          "type": "uint256"
        }
      ],
      "name": "stake",
      "outputs": [],
      "stateMutability": "nonpayable",
      "type": "function"
    },
    {
      "inputs": [],
      "name": "stakeSlippageBP",
      "outputs": [
        {
          "internalType": "uint256",
          "name": "",
          "type": "uint256"
        }
      ],
      "stateMutability": "view",
      "type": "function"
    },
    {
      "inputs": [
        {
          "internalType": "bytes4",
          "name": "interfaceId",
          "type": "bytes4"
        }
      ],
      "name": "supportsInterface",
      "outputs": [
        {
          "internalType": "bool",
          "name": "",
          "type": "bool"
        }
      ],
      "stateMutability": "view",
      "type": "function"
    },
    {
      "inputs": [],
      "name": "swapSlippageBP",
      "outputs": [
        {
          "internalType": "uint256",
          "name": "",
          "type": "uint256"
        }
      ],
      "stateMutability": "view",
      "type": "function"
    },
    {
      "inputs": [],
      "name": "uniswapV3Router",
      "outputs": [
        {
          "internalType": "contract ISwapRouter",
          "name": "",
          "type": "address"
        }
      ],
      "stateMutability": "view",
      "type": "function"
    },
    {
      "inputs": [
        {
          "internalType": "address",
          "name": "_asset",
          "type": "address"
        },
        {
          "internalType": "uint256",
          "name": "_amount",
          "type": "uint256"
        },
        {
          "internalType": "address",
          "name": "_beneficiary",
          "type": "address"
        },
        {
          "internalType": "bool",
          "name": "_targetIsZero",
          "type": "bool"
        }
      ],
      "name": "unstake",
      "outputs": [
        {
          "internalType": "uint256",
          "name": "",
          "type": "uint256"
        }
      ],
      "stateMutability": "nonpayable",
      "type": "function"
    },
    {
      "inputs": [
        {
          "internalType": "address",
          "name": "newImplementation",
          "type": "address"
        }
      ],
      "name": "upgradeTo",
      "outputs": [],
      "stateMutability": "nonpayable",
      "type": "function"
    },
    {
      "inputs": [
        {
          "internalType": "address",
          "name": "newImplementation",
          "type": "address"
        },
        {
          "internalType": "bytes",
          "name": "data",
          "type": "bytes"
        }
      ],
      "name": "upgradeToAndCall",
      "outputs": [],
      "stateMutability": "payable",
      "type": "function"
    },
    {
      "inputs": [],
      "name": "usdc",
      "outputs": [
        {
          "internalType": "contract IERC20",
          "name": "",
          "type": "address"
        }
      ],
      "stateMutability": "view",
      "type": "function"
    },
    {
      "inputs": [],
      "name": "usdcDm",
      "outputs": [
        {
          "internalType": "uint256",
          "name": "",
          "type": "uint256"
        }
      ],
      "stateMutability": "view",
      "type": "function"
    },
    {
      "inputs": [],
      "name": "usdt",
      "outputs": [
        {
          "internalType": "contract IERC20",
          "name": "",
          "type": "address"
        }
      ],
      "stateMutability": "view",
      "type": "function"
    },
    {
      "inputs": [],
      "name": "usdtDm",
      "outputs": [
        {
          "internalType": "uint256",
          "name": "",
          "type": "uint256"
        }
      ],
      "stateMutability": "view",
      "type": "function"
    }
  ],
  "numDeployments": 2,
  "solcInputHash": "6c36537952d574709506aac8bb7addcf",
  "bytecode": "0x60a06040523060601b6080523480156200001857600080fd5b50600054610100900460ff16158080156200003a5750600054600160ff909116105b806200006a575062000057306200014460201b62001d771760201c565b1580156200006a575060005460ff166001145b620000d25760405162461bcd60e51b815260206004820152602e60248201527f496e697469616c697a61626c653a20636f6e747261637420697320616c72656160448201526d191e481a5b9a5d1a585b1a5e995960921b606482015260840160405180910390fd5b6000805460ff191660011790558015620000f6576000805461ff0019166101001790555b80156200013d576000805461ff0019169055604051600181527f7f26b83ff96e1f2b6a682f133852f6798a09c465da95921460cefb38474024989060200160405180910390a15b5062000153565b6001600160a01b03163b151590565b60805160601c615b486200018e600039600081816108cc0152818161090c015281816109ac015281816109ec0152610a7b0152615b486000f3fe6080604052600436106102305760003560e01c8063620b75df1161012e578063adc9772e116100ab578063ea127c9e1161006f578063ea127c9e14610681578063ede1de6e146106bb578063ee3af0db146106db578063ef5cfb8c146106f0578063f6f6b8811461071057600080fd5b8063adc9772e146105ea578063ae30c1101461060a578063bf52e0801461062a578063cc6522c314610640578063d547741f1461066157600080fd5b80638129fc1c116100f25780638129fc1c1461056b57806391d1485414610580578063a217fddf146105a0578063a3673b38146105b5578063a440b21a146105ca57600080fd5b8063620b75df146104bf57806363a6b1da146104df5780637d5f5802146105005780637f1e9ef614610522578063803ba97e1461054357600080fd5b80632f2ff15d116101bc5780634f1ef286116101805780634f1ef2861461042c57806352d1902d1461043f5780635ca558f8146104545780635dbd733a1461046a5780635fea9cbb1461049e57600080fd5b80632f2ff15d146103885780632f48ab7d146103aa57806336568abe146103cb5780633659cfe6146103eb5780633e413bee1461040b57600080fd5b806316f0115b1161020357806316f0115b146102d25780631b1e7ddc1461030b578063248a9ca3146103225780632576e65a146103525780632c76d7a61461036757600080fd5b806301ffc9a7146102355780630910a5101461026a5780630f9033f714610297578063119cd879146102bc575b600080fd5b34801561024157600080fd5b50610255610250366004614f29565b610730565b60405190151581526020015b60405180910390f35b34801561027657600080fd5b5061027f610767565b6040516001600160801b039091168152602001610261565b3480156102a357600080fd5b506102ae6101325481565b604051908152602001610261565b3480156102c857600080fd5b506102ae60fd5481565b3480156102de57600080fd5b50610135546102f3906001600160a01b031681565b6040516001600160a01b039091168152602001610261565b34801561031757600080fd5b506102ae6101315481565b34801561032e57600080fd5b506102ae61033d366004614ec7565b60009081526065602052604090206001015490565b34801561035e57600080fd5b506102ae610803565b34801561037357600080fd5b50610133546102f3906001600160a01b031681565b34801561039457600080fd5b506103a86103a3366004614ef9565b610814565b005b3480156103b657600080fd5b5061012d546102f3906001600160a01b031681565b3480156103d757600080fd5b506103a86103e6366004614ef9565b61083e565b3480156103f757600080fd5b506103a8610406366004614ca8565b6108c1565b34801561041757600080fd5b5061012e546102f3906001600160a01b031681565b6103a861043a366004614ce2565b6109a1565b34801561044b57600080fd5b506102ae610a6e565b34801561046057600080fd5b506102ae60fe5481565b34801561047657600080fd5b506102ae7fd67ad422505496469a1adf6cdf9e5ee92ac5d33992843c9ecc4b2f6d6cde913781565b3480156104aa57600080fd5b5061012f546102f3906001600160a01b031681565b3480156104cb57600080fd5b5060fb546102f3906001600160a01b031681565b3480156104eb57600080fd5b50610139546102f3906001600160a01b031681565b34801561050c57600080fd5b506102ae600080516020615aac83398151915281565b34801561052e57600080fd5b50610134546102f3906001600160a01b031681565b34801561054f57600080fd5b50610138546102f390600160301b90046001600160a01b031681565b34801561057757600080fd5b506103a8610b21565b34801561058c57600080fd5b5061025561059b366004614ef9565b610beb565b3480156105ac57600080fd5b506102ae600081565b3480156105c157600080fd5b506102ae610c16565b3480156105d657600080fd5b506103a86105e5366004614ca8565b610c22565b3480156105f657600080fd5b506103a8610605366004614d8a565b610d51565b34801561061657600080fd5b506103a8610625366004615221565b610f81565b34801561063657600080fd5b506102ae60fc5481565b34801561064c57600080fd5b50610130546102f3906001600160a01b031681565b34801561066d57600080fd5b506103a861067c366004614ef9565b6110f6565b34801561068d57600080fd5b506106a161069c366004614f70565b61111b565b60408051600293840b81529190920b602082015201610261565b3480156106c757600080fd5b506103a86106d636600461506e565b6113ce565b3480156106e757600080fd5b506102f361199e565b3480156106fc57600080fd5b506102ae61070b366004614ca8565b611a25565b34801561071c57600080fd5b506102ae61072b366004614db6565b611aaa565b60006001600160e01b03198216637965db0b60e01b148061076157506301ffc9a760e01b6001600160e01b03198316145b92915050565b610136546000901561080057610134546101365460405163133f757160e31b815260048101919091526000916001600160a01b0316906399fbab88906024016101606040518083038186803b1580156107bf57600080fd5b505afa1580156107d3573d6000803e3d6000fd5b505050506040513d601f19601f820116820180604052508101906107f79190614f9e565b5060a001519150505b90565b600061080f6000611d86565b905090565b60008281526065602052604090206001015461082f81611f71565b6108398383611f7b565b505050565b6001600160a01b03811633146108b35760405162461bcd60e51b815260206004820152602f60248201527f416363657373436f6e74726f6c3a2063616e206f6e6c792072656e6f756e636560448201526e103937b632b9903337b91039b2b63360891b60648201526084015b60405180910390fd5b6108bd8282612001565b5050565b306001600160a01b037f000000000000000000000000000000000000000000000000000000000000000016141561090a5760405162461bcd60e51b81526004016108aa90615527565b7f00000000000000000000000000000000000000000000000000000000000000006001600160a01b0316610953600080516020615acc833981519152546001600160a01b031690565b6001600160a01b0316146109795760405162461bcd60e51b81526004016108aa90615573565b61098281612068565b6040805160008082526020820190925261099e91839190612073565b50565b306001600160a01b037f00000000000000000000000000000000000000000000000000000000000000001614156109ea5760405162461bcd60e51b81526004016108aa90615527565b7f00000000000000000000000000000000000000000000000000000000000000006001600160a01b0316610a33600080516020615acc833981519152546001600160a01b031690565b6001600160a01b031614610a595760405162461bcd60e51b81526004016108aa90615573565b610a6282612068565b6108bd82826001612073565b6000306001600160a01b037f00000000000000000000000000000000000000000000000000000000000000001614610b0e5760405162461bcd60e51b815260206004820152603860248201527f555550535570677261646561626c653a206d757374206e6f742062652063616c60448201527f6c6564207468726f7567682064656c656761746563616c6c000000000000000060648201526084016108aa565b50600080516020615acc83398151915290565b600054610100900460ff1615808015610b415750600054600160ff909116105b80610b5b5750303b158015610b5b575060005460ff166001145b610b775760405162461bcd60e51b81526004016108aa906155bf565b6000805460ff191660011790558015610b9a576000805461ff0019166101001790555b610ba26121ed565b801561099e576000805461ff0019169055604051600181527f7f26b83ff96e1f2b6a682f133852f6798a09c465da95921460cefb3847402498906020015b60405180910390a150565b60009182526065602090815260408084206001600160a01b0393909316845291905290205460ff1690565b600061080f6001611d86565b610c2d600033610beb565b610c705760405162461bcd60e51b81526020600482015260146024820152735265737472696374656420746f2061646d696e7360601b60448201526064016108aa565b6001600160a01b038116610cc65760405162461bcd60e51b815260206004820152601860248201527f5a65726f2061646472657373206e6f7420616c6c6f776564000000000000000060448201526064016108aa565b60fb54610ceb90600080516020615aac833981519152906001600160a01b03166110f6565b610d03600080516020615aac83398151915282610814565b60fb80546001600160a01b0319166001600160a01b0383169081179091556040519081527ff7b449fcd5cfb7379dcd34cb69428dd9f882033b15be33d83b42d91daa28eeb790602001610be0565b610d69600080516020615aac83398151915233610beb565b610d855760405162461bcd60e51b81526004016108aa906154f0565b6000610e03306001600160a01b031663a3673b386040518163ffffffff1660e01b815260040160206040518083038186803b158015610dc357600080fd5b505afa158015610dd7573d6000803e3d6000fd5b505050506040513d601f19601f82011682018060405250810190610dfb9190614ee0565b60fd546122d2565b6040516370a0823160e01b8152306004820152909150610e889084906001600160a01b038216906370a082319060240160206040518083038186803b158015610e4b57600080fd5b505afa158015610e5f573d6000803e3d6000fd5b505050506040513d601f19601f82011682018060405250810190610e839190614ee0565b6122fc565b80306001600160a01b031663a3673b386040518163ffffffff1660e01b815260040160206040518083038186803b158015610ec257600080fd5b505afa158015610ed6573d6000803e3d6000fd5b505050506040513d601f19601f82011682018060405250810190610efa9190614ee0565b1015610f485760405162461bcd60e51b815260206004820152601f60248201527f5374726174656779204e4156206c657373207468616e2065787065637465640060448201526064016108aa565b6040518281527f227a473b70d2f893cc7659219575c030a63b5743024fe1e0c1a680e708b1525a906020015b60405180910390a1505050565b610fab7fd67ad422505496469a1adf6cdf9e5ee92ac5d33992843c9ecc4b2f6d6cde913733610beb565b80611052575060fb54604051632474521560e21b81527fd67ad422505496469a1adf6cdf9e5ee92ac5d33992843c9ecc4b2f6d6cde913760048201523360248201526001600160a01b03909116906391d148549060440160206040518083038186803b15801561101a57600080fd5b505afa15801561102e573d6000803e3d6000fd5b505050506040513d601f19601f820116820180604052508101906110529190614eaa565b6110a95760405162461bcd60e51b815260206004820152602260248201527f5265737472696374656420746f20504f5254464f4c494f5f4147454e545f524f6044820152614c4560f01b60648201526084016108aa565b60fc83905560fd82905560fe81905560408051848152602081018490529081018290527f116fbf1e97a2be629ad98abfb6c332733c8996c2dfb174dd2efe8440df381d1a90606001610f74565b60008281526065602052604090206001015461111181611f71565b6108398383612001565b61013554604051636bea486560e01b81526001600160a01b039091166004820152620d89e7196024820152609660448201526000908190738fd8cb948965d9305999d767a02bf79833eadbb39082908290636bea48659060640160006040518083038186803b15801561118d57600080fd5b505afa1580156111a1573d6000803e3d6000fd5b505050506040513d6000823e601f3d908101601f191682016040526111c99190810190614e09565b9050600080600183516111dc919061596a565b905060005b816111ed846001615809565b10156112415760026111ff8385615809565b6112099190615821565b90508860020b84828151811061122157611221615a3c565b602002602001015160020b13611239578092506111e1565b8091506111e1565b8860020b84848151811061125757611257615a3c565b602002602001015160020b136112845783838151811061127957611279615a3c565b602002602001015196505b8860020b84838151811061129a5761129a615a3c565b602002602001015160020b136112c7578382815181106112bc576112bc615a3c565b602002602001015196505b60009250600184516112d9919061596a565b91505b816112e8846001615809565b101561133c5760026112fa8385615809565b6113049190615821565b90508760020b84828151811061131c5761131c615a3c565b602002602001015160020b13611334578092506112dc565b8091506112dc565b8760020b84848151811061135257611352615a3c565b602002602001015160020b1361137f5783838151811061137457611374615a3c565b602002602001015195505b8760020b84838151811061139557611395615a3c565b602002602001015160020b136113c2578382815181106113b7576113b7615a3c565b602002602001015195505b50505050509250929050565b6113d9600033610beb565b61141c5760405162461bcd60e51b81526020600482015260146024820152735265737472696374656420746f2061646d696e7360601b60448201526064016108aa565b6114296020820182614ca8565b61012e80546001600160a01b0319166001600160a01b039290921691909117905561145a6040820160208301614ca8565b61012d80546001600160a01b0319166001600160a01b039290921691909117905561148b6060820160408301614ca8565b61012f80546001600160a01b0319166001600160a01b03929092169190911790556114bc6080820160608301614ca8565b61013080546001600160a01b0319166001600160a01b03929092169190911790556114ed60a0820160808301614ca8565b61013380546001600160a01b0319166001600160a01b039290921691909117905561151b6020820182614ca8565b6001600160a01b031663313ce5676040518163ffffffff1660e01b815260040160206040518083038186803b15801561155357600080fd5b505afa158015611567573d6000803e3d6000fd5b505050506040513d601f19601f8201168201806040525081019061158b91906152cb565b61159690600a615878565b610131556115aa6040820160208301614ca8565b6001600160a01b031663313ce5676040518163ffffffff1660e01b815260040160206040518083038186803b1580156115e257600080fd5b505afa1580156115f6573d6000803e3d6000fd5b505050506040513d601f19601f8201168201806040525081019061161a91906152cb565b61162590600a615878565b6101325561163960c0820160a08301614ca8565b61013580546001600160a01b0319166001600160a01b039290921691909117905561166a60e0820160c08301614ca8565b61013480546001600160a01b0319166001600160a01b039290921691909117905561169c610100820160e08301614ca8565b61013880546001600160a01b0392909216600160301b026601000000000000600160d01b0319909216919091179055610120810135610137556116e76101a082016101808301614ca8565b61013980546001600160a01b0319166001600160a01b039290921691909117905561171a61016082016101408301614f53565b610138805460029290920b62ffffff1662ffffff1990921691909117905561174a61018082016101608301614f53565b610138805460029290920b62ffffff1663010000000265ffffff000000199092169190911790556117836101208201610100830161515b565b610135805462ffffff92909216600160a01b0262ffffff60a01b1990921691909117905561012e546001600160a01b031663095ea7b36117c960e0840160c08501614ca8565b6040516001600160e01b031960e084901b1681526001600160a01b0390911660048201526000196024820152604401602060405180830381600087803b15801561181257600080fd5b505af1158015611826573d6000803e3d6000fd5b505050506040513d601f19601f8201168201806040525081019061184a9190614eaa565b5061012d546001600160a01b031663095ea7b361186d60e0840160c08501614ca8565b6040516001600160e01b031960e084901b1681526001600160a01b0390911660048201526000196024820152604401602060405180830381600087803b1580156118b657600080fd5b505af11580156118ca573d6000803e3d6000fd5b505050506040513d601f19601f820116820180604052508101906118ee9190614eaa565b50610134546001600160a01b031663a22cb465611912610100840160e08501614ca8565b6040516001600160e01b031960e084901b1681526001600160a01b03909116600482015260016024820152604401600060405180830381600087803b15801561195a57600080fd5b505af115801561196e573d6000803e3d6000fd5b50506040517fea5646eb3528e525944447a4a97de700dd472298626e5c0481d1c82c3da86ea5925060009150a150565b610135546040805163217ac23760e01b815290516000926001600160a01b03169163217ac237916004808301926080929190829003018186803b1580156119e457600080fd5b505afa1580156119f8573d6000803e3d6000fd5b505050506040513d601f19601f82011682018060405250810190611a1c9190615107565b50919392505050565b6000611a3f600080516020615aac83398151915233610beb565b611a5b5760405162461bcd60e51b81526004016108aa906154f0565b6000611a6683612631565b90508015611aa2576040518181527f3ac0594a85a20354f9dc74f33728416d19ce00d04a406c108cc2dcf2cecea1349060200160405180910390a15b90505b919050565b6000611ac4600080516020615aac83398151915233610beb565b611ae05760405162461bcd60e51b81526004016108aa906154f0565b6000611b1e306001600160a01b031663a3673b386040518163ffffffff1660e01b815260040160206040518083038186803b158015610dc357600080fd5b90506000808415611b4557611b3286612631565b9050611b3e8887612960565b9150611bb4565b611b50888888612b7b565b915086821015611bb45760405162461bcd60e51b815260206004820152602960248201527f52657475726e65642076616c7565206c657373207468616e2072657175657374604482015268195908185b5bdd5b9d60ba1b60648201526084016108aa565b82306001600160a01b031663a3673b386040518163ffffffff1660e01b815260040160206040518083038186803b158015611bee57600080fd5b505afa158015611c02573d6000803e3d6000fd5b505050506040513d601f19601f82011682018060405250810190611c269190614ee0565b1015611c745760405162461bcd60e51b815260206004820152601f60248201527f5374726174656779204e4156206c657373207468616e2065787065637465640060448201526064016108aa565b60405163a9059cbb60e01b81526001600160a01b0387811660048301526024820184905289169063a9059cbb90604401602060405180830381600087803b158015611cbe57600080fd5b505af1158015611cd2573d6000803e3d6000fd5b505050506040513d601f19601f82011682018060405250810190611cf69190614eaa565b5060408051888152602081018490527f9045c2ac9b2026de8075f2701bbdde882cd5e830b3b1ead9a15b22f2b5b93742910160405180910390a18015611d6a576040518181527f3ac0594a85a20354f9dc74f33728416d19ce00d04a406c108cc2dcf2cecea1349060200160405180910390a15b509150505b949350505050565b6001600160a01b03163b151590565b61012e546040516370a0823160e01b815230600482015260009182916001600160a01b03909116906370a082319060240160206040518083038186803b158015611dcf57600080fd5b505afa158015611de3573d6000803e3d6000fd5b505050506040513d601f19601f82011682018060405250810190611e079190614ee0565b61012d546040516370a0823160e01b81523060048201529192506000916001600160a01b03909116906370a082319060240160206040518083038186803b158015611e5157600080fd5b505afa158015611e65573d6000803e3d6000fd5b505050506040513d601f19601f82011682018060405250810190611e899190614ee0565b6101365490915015611f23576000611e9f610767565b90506001600160801b03811615611f21576000611eba61199e565b61013854909150600090611ed09060020b612d0d565b61013854909150600090611eed906301000000900460020b612d0d565b9050600080611efe858585896130df565b9092509050611f0d8289615809565b9750611f198188615809565b965050505050505b505b8015611f6a578315611f4957611f388161317b565b611f429083615809565b9150611f6a565b611f5d611f558261317b565b60fc546122d2565b611f679083615809565b91505b5092915050565b61099e81336131c7565b611f858282610beb565b6108bd5760008281526065602090815260408083206001600160a01b03851684529091529020805460ff19166001179055611fbd3390565b6001600160a01b0316816001600160a01b0316837f2f8788117e7eff1d82e926ec794901d17c78024a50270940304540a733656f0d60405160405180910390a45050565b61200b8282610beb565b156108bd5760008281526065602090815260408083206001600160a01b0385168085529252808320805460ff1916905551339285917ff6391f5c32d9c69d2a47ea670b442974b53935d1edc7fd64eb21e047a839171b9190a45050565b60006108bd81611f71565b7f4910fdfa16fed3260ed0e7147f7cc6da11a60208b5b9406d12a635614ffd91435460ff16156120a65761083983613220565b826001600160a01b03166352d1902d6040518163ffffffff1660e01b815260040160206040518083038186803b1580156120df57600080fd5b505afa92505050801561210f575060408051601f3d908101601f1916820190925261210c91810190614ee0565b60015b6121725760405162461bcd60e51b815260206004820152602e60248201527f45524331393637557067726164653a206e657720696d706c656d656e7461746960448201526d6f6e206973206e6f74205555505360901b60648201526084016108aa565b600080516020615acc83398151915281146121e15760405162461bcd60e51b815260206004820152602960248201527f45524331393637557067726164653a20756e737570706f727465642070726f786044820152681a58589b195555525160ba1b60648201526084016108aa565b506108398383836132bc565b600054610100900460ff161580801561220d5750600054600160ff909116105b806122275750303b158015612227575060005460ff166001145b6122435760405162461bcd60e51b81526004016108aa906155bf565b6000805460ff191660011790558015612266576000805461ff0019166101001790555b61226e6132e7565b6122766132e7565b612281600033611f7b565b601460fc81905560fd55600460fe55801561099e576000805461ff0019169055604051600181527f7f26b83ff96e1f2b6a682f133852f6798a09c465da95921460cefb384740249890602001610be0565b60006127106122e1838261596a565b6122eb9085615923565b6122f59190615821565b9392505050565b612304613354565b61012e546040516370a0823160e01b81523060048201526000916001600160a01b0316906370a082319060240160206040518083038186803b15801561234957600080fd5b505afa15801561235d573d6000803e3d6000fd5b505050506040513d601f19601f820116820180604052508101906123819190614ee0565b61012d546040516370a0823160e01b81523060048201529192506000916001600160a01b03909116906370a082319060240160206040518083038186803b1580156123cb57600080fd5b505afa1580156123df573d6000803e3d6000fd5b505050506040513d601f19601f820116820180604052508101906124039190614ee0565b905061240d614b59565b6101385461242990600281810b9163010000009004900b61111b565b600290810b810b602084015290810b900b81526101365461255a57604080516101808101825261012e546001600160a01b03908116825261012d548116602083015261013554600160a01b900462ffffff168284015261013854600281810b810b60608501526301000000909104810b900b608083015260a0820184905260c0820186905260e0820185905260006101008301819052610120830152306101408301524261016083015261013454925163752a031960e11b81529192169063ea540632906124fb90849060040161567d565b608060405180830381600087803b15801561251557600080fd5b505af1158015612529573d6000803e3d6000fd5b505050506040513d601f19601f8201168201806040525081019061254d91906151e5565b5050506101365550612622565b61256261362b565b6040805160e081018252610136548152602081018390528082018590526060810184905260006080820181905260a08201524260c082015261013454915163c238a3a360e01b815290916001600160a01b03169063c238a3a3906125ca908490600401615628565b608060405180830381600087803b1580156125e457600080fd5b505af11580156125f8573d6000803e3d6000fd5b505050506040513d601f19601f8201168201806040525081019061261c91906150ca565b50505050505b61262a613825565b5050505050565b6000610136546000141561264757506000919050565b60408051600180825281830190925260009160208083019080368337019050509050610136548160008151811061268057612680615a3c565b602090810291909101015260408051600180825281830190925260009181602001602082028036833701905050905061013754816000815181106126c6576126c6615a3c565b6020908102919091010152604080516001808252818301909252600091816020015b60608152602001906001900390816126e857905050905060405180602001604052808381525060405160200161271e919061560d565b6040516020818303038152906040528160008151811061274057612740615a3c565b602090810291909101015261013854604051630c07c01b60e11b8152600160301b9091046001600160a01b03169063180f8036906127849086908590600401615424565b600060405180830381600087803b15801561279e57600080fd5b505af11580156127b2573d6000803e3d6000fd5b50505050600073__$faf6b45701686198bc469c528e5aadb5b4$__637abfd1f06040518163ffffffff1660e01b815260040160206040518083038186803b1580156127fc57600080fd5b505af4158015612810573d6000803e3d6000fd5b505050506040513d601f19601f820116820180604052508101906128349190614ee0565b61283e9082615809565b905073__$faf6b45701686198bc469c528e5aadb5b4$__638dd04efb6040518163ffffffff1660e01b815260040160206040518083038186803b15801561288457600080fd5b505af4158015612898573d6000803e3d6000fd5b505050506040513d601f19601f820116820180604052508101906128bc9190614ee0565b6128c69082615809565b905080156129575761012e5460405163a9059cbb60e01b81526001600160a01b038881166004830152602482018490529091169063a9059cbb90604401602060405180830381600087803b15801561291d57600080fd5b505af1158015612931573d6000803e3d6000fd5b505050506040513d601f19601f820116820180604052508101906129559190614eaa565b505b95945050505050565b6101365460009015612aff576000612976610767565b610134546101365460405163133f757160e31b81526001600160801b039390931693506000926001600160a01b03909216916399fbab88916129be9160040190815260200190565b6101606040518083038186803b1580156129d757600080fd5b505afa1580156129eb573d6000803e3d6000fd5b505050506040513d601f19601f82011682018060405250810190612a0f9190614f9e565b5060c081015190915015612add57604080516001808252818301909252600091602080830190803683370190505090506101365481600081518110612a5657612a56615a3c565b6020908102919091010152610138546101355460405163b825627560e01b81526001600160a01b03600160301b90930483169263b825627592612aa9928692600092839291169082904290600401615496565b600060405180830381600087803b158015612ac357600080fd5b505af1158015612ad7573d6000803e3d6000fd5b50505050505b612ae561362b565b612aee82613962565b600061013655612afc613aec565b50505b61012e546040516370a0823160e01b81523060048201526001600160a01b03909116906370a082319060240160206040518083038186803b158015612b4357600080fd5b505afa158015612b57573d6000803e3d6000fd5b505050506040513d601f19601f820116820180604052508101906122f59190614ee0565b6000612b898360fc54613b9a565b92506000612b9684613ba9565b90506000612ba4828661596a565b9050612bae61362b565b610135546040805163217ac23760e01b815290516000926001600160a01b03169163217ac237916004808301926080929190829003018186803b158015612bf457600080fd5b505afa158015612c08573d6000803e3d6000fd5b505050506040513d601f19601f82011682018060405250810190612c2c9190615107565b505061013854919250600091612c6991508390612c4b9060020b612d0d565b61013854612c62906301000000900460020b612d0d565b8688613d2e565b9050612c7d816001600160801b0316613962565b612c85613aec565b61012e546040516370a0823160e01b81523060048201526001600160a01b03909116906370a082319060240160206040518083038186803b158015612cc957600080fd5b505afa158015612cdd573d6000803e3d6000fd5b505050506040513d601f19601f82011682018060405250810190612d019190614ee0565b98975050505050505050565b60008060008360020b12612d24578260020b612d31565b8260020b612d31906159f3565b9050600060018216612d4757600160801b612d59565b6ffffcb933bd6fad37aa2d162d1a5940015b70ffffffffffffffffffffffffffffffffff1690506002821615612d98576080612d93826ffff97272373d413259a46990580e213a615923565b901c90505b6004821615612dc2576080612dbd826ffff2e50f5f656932ef12357cf3c7fdcc615923565b901c90505b6008821615612dec576080612de7826fffe5caca7e10e4e61c3624eaa0941cd0615923565b901c90505b6010821615612e16576080612e11826fffcb9843d60f6159c9db58835c926644615923565b901c90505b6020821615612e40576080612e3b826fff973b41fa98c081472e6896dfb254c0615923565b901c90505b6040821615612e6a576080612e65826fff2ea16466c96a3843ec78b326b52861615923565b901c90505b6080821615612e94576080612e8f826ffe5dee046a99a2a811c461f1969c3053615923565b901c90505b610100821615612ebf576080612eba826ffcbe86c7900a88aedcffc83b479aa3a4615923565b901c90505b610200821615612eea576080612ee5826ff987a7253ac413176f2b074cf7815e54615923565b901c90505b610400821615612f15576080612f10826ff3392b0822b70005940c7a398e4b70f3615923565b901c90505b610800821615612f40576080612f3b826fe7159475a2c29b7443b29c7fa6e889d9615923565b901c90505b611000821615612f6b576080612f66826fd097f3bdfd2022b8845ad8f792aa5825615923565b901c90505b612000821615612f96576080612f91826fa9f746462d870fdf8a65dc1f90e061e5615923565b901c90505b614000821615612fc1576080612fbc826f70d869a156d2a1b890bb3df62baf32f7615923565b901c90505b618000821615612fec576080612fe7826f31be135f97d08fd981231505542fcfa6615923565b901c90505b62010000821615613018576080613013826f09aa508b5b7a84e1c677de54f3e99bc9615923565b901c90505b6202000082161561304357608061303e826e5d6af8dedb81196699c329225ee604615923565b901c90505b6204000082161561306d576080613068826d2216e584f5fa1ea926041bedfe98615923565b901c90505b62080000821615613095576080613090826b048a170391f7dc42444e8fa2615923565b901c90505b60008460020b13156130b0576130ad81600019615821565b90505b6130bf640100000000826159df565b156130cb5760016130ce565b60005b611d6f9060ff16602083901c615809565b600080836001600160a01b0316856001600160a01b03161115613100579293925b846001600160a01b0316866001600160a01b03161161312b57613124858585613df0565b9150613172565b836001600160a01b0316866001600160a01b0316101561316457613150868585613df0565b915061315d858785613e63565b9050613172565b61316f858585613e63565b90505b94509492505050565b610130546000908190613196906001600160a01b0316613ead565b61012f549091506000906131b2906001600160a01b0316613ead565b9050611d6f8461013254610131548585613fd1565b6131d18282610beb565b6108bd576131de81613ffc565b6131e983602061400e565b6040516020016131fa92919061539c565b60408051601f198184030181529082905262461bcd60e51b82526108aa916004016154dd565b6001600160a01b0381163b61328d5760405162461bcd60e51b815260206004820152602d60248201527f455243313936373a206e657720696d706c656d656e746174696f6e206973206e60448201526c1bdd08184818dbdb9d1c9858dd609a1b60648201526084016108aa565b600080516020615acc83398151915280546001600160a01b0319166001600160a01b0392909216919091179055565b6132c5836141aa565b6000825111806132d25750805b15610839576132e183836141ea565b50505050565b600054610100900460ff166133525760405162461bcd60e51b815260206004820152602b60248201527f496e697469616c697a61626c653a20636f6e7472616374206973206e6f74206960448201526a6e697469616c697a696e6760a81b60648201526084016108aa565b565b61012d546040516370a0823160e01b81523060048201526000916001600160a01b0316906370a082319060240160206040518083038186803b15801561339957600080fd5b505afa1580156133ad573d6000803e3d6000fd5b505050506040513d601f19601f820116820180604052508101906133d19190614ee0565b61012e546040516370a0823160e01b81523060048201529192506000916001600160a01b03909116906370a082319060240160206040518083038186803b15801561341b57600080fd5b505afa15801561342f573d6000803e3d6000fd5b505050506040513d601f19601f820116820180604052508101906134539190614ee0565b9050600061013560009054906101000a90046001600160a01b03166001600160a01b031663217ac2376040518163ffffffff1660e01b815260040160806040518083038186803b1580156134a657600080fd5b505afa1580156134ba573d6000803e3d6000fd5b505050506040513d601f19601f820116820180604052508101906134de9190615107565b5050509050600061013560009054906101000a90046001600160a01b03166001600160a01b031663ab612f2b6040518163ffffffff1660e01b815260040160606040518083038186803b15801561353457600080fd5b505afa158015613548573d6000803e3d6000fd5b505050506040513d601f19601f8201168201806040525081019061356c9190615087565b50506101385490915060009081906135a990859061358c9060020b612d0d565b610138546135a3906301000000900460020b612d0d565b866130df565b6101395461012e5461012d5461013154610132549597509395506000946135eb946001600160a01b039485169493841693909216918b918991899160016142d5565b6101395461012e5461012d54929350613621926001600160a01b039283169291821691168461361c611f5582614380565b6143cc565b5050505050505050565b60408051600180825281830190925260009160208083019080368337019050509050610136548160008151811061366457613664615a3c565b602090810291909101015260408051600180825281830190925260009181602001602082028036833701905050610138546101365461013754604051636e0b454960e11b815260048101929092526024820152919250600160301b90046001600160a01b03169063dc168a929060440160006040518083038186803b1580156136ec57600080fd5b505afa158015613700573d6000803e3d6000fd5b505050506040513d6000823e601f3d908101601f191682016040526137289190810190615178565b9050508160008151811061373e5761373e615a3c565b602090810291909101015261013854610137546040516319ad699960e21b8152600160301b9092046001600160a01b0316916366b5a66491613786918690869060040161575f565b600060405180830381600087803b1580156137a057600080fd5b505af11580156137b4573d6000803e3d6000fd5b505061013854604051634c1ecae760e11b8152600160301b9091046001600160a01b0316925063983d95ce91506137ef908590600401615411565b600060405180830381600087803b15801561380957600080fd5b505af115801561381d573d6000803e3d6000fd5b505050505050565b60408051600180825281830190925260009160208083019080368337019050509050610136548160008151811061385e5761385e615a3c565b6020908102919091010152604080516001808252818301909252600091816020016020820280368337019050509050613895610767565b6001600160801b0316816000815181106138b1576138b1615a3c565b60209081029190910101526101385460405163598b8e7160e01b8152600160301b9091046001600160a01b03169063598b8e71906138f3908590600401615411565b600060405180830381600087803b15801561390d57600080fd5b505af1158015613921573d6000803e3d6000fd5b505061013854610137546040516341e817ab60e01b8152600160301b9092046001600160a01b031693506341e817ab92506137ef918690869060040161575f565b6040805160a0810182526101365481526001600160801b038381166020830190815260008385018181526060850191825242608086019081526101345496516398e04d7760e01b815286516004820152935190941660248401525160448301525160648201529051608482015290916001600160a01b0316906398e04d779060a401606060405180830381600087803b1580156139fe57600080fd5b505af1158015613a12573d6000803e3d6000fd5b505050506040513d601f19601f82011682018060405250810190613a36919061524d565b50506101345461012e5460405163bf1316c160e01b81526001600160a01b039182166004820152600060248201523060448201529116915063bf1316c190606401600060405180830381600087803b158015613a9157600080fd5b505af1158015613aa5573d6000803e3d6000fd5b50506101345461012d5460405163bf1316c160e01b81526001600160a01b039182166004820152600060248201523060448201529116925063bf1316c191506064016137ef565b61012d546040516370a0823160e01b81523060048201526000916001600160a01b0316906370a082319060240160206040518083038186803b158015613b3157600080fd5b505afa158015613b45573d6000803e3d6000fd5b505050506040513d601f19601f82011682018060405250810190613b699190614ee0565b6101395461012d5461012e549293506108bd926001600160a01b039283169291821691168461361c611f5582614380565b60006127106122e18382615809565b60008061013560009054906101000a90046001600160a01b03166001600160a01b031663217ac2376040518163ffffffff1660e01b815260040160806040518083038186803b158015613bfb57600080fd5b505afa158015613c0f573d6000803e3d6000fd5b505050506040513d601f19601f82011682018060405250810190613c339190615107565b5050509050600061013560009054906101000a90046001600160a01b03166001600160a01b031663ab612f2b6040518163ffffffff1660e01b815260040160606040518083038186803b158015613c8957600080fd5b505afa158015613c9d573d6000803e3d6000fd5b505050506040513d601f19601f82011682018060405250810190613cc19190615087565b5050610138549091506000908190613ce190859061358c9060020b612d0d565b91509150600081610131546101325485613cfb9190615923565b613d059190615821565b613d0f9190615809565b613d198389615923565b613d239190615821565b979650505050505050565b6000836001600160a01b0316856001600160a01b03161115613d4e579293925b846001600160a01b0316866001600160a01b031611613d7957613d728585856145ae565b9050612957565b836001600160a01b0316866001600160a01b03161015613ddb576000613da08786866145ae565b90506000613daf878986614618565b9050806001600160801b0316826001600160801b031610613dd05780613dd2565b815b92505050612957565b613de6858584614618565b9695505050505050565b6000826001600160a01b0316846001600160a01b03161115613e10579192915b6001600160a01b038416613e596fffffffffffffffffffffffffffffffff60601b606085901b16613e418787615942565b6001600160a01b0316866001600160a01b031661464e565b611d6f9190615821565b6000826001600160a01b0316846001600160a01b03161115613e83579192915b611d6f6001600160801b038316613e9a8686615942565b6001600160a01b0316600160601b61464e565b6000806000806000856001600160a01b031663feaf968c6040518163ffffffff1660e01b815260040160a06040518083038186803b158015613eee57600080fd5b505afa158015613f02573d6000803e3d6000fd5b505050506040513d601f19601f82011682018060405250810190613f26919061527b565b9450945050935093508369ffffffffffffffffffff168169ffffffffffffffffffff161015613f825760405162461bcd60e51b81526020600482015260086024820152674f6c64206461746160c01b60448201526064016108aa565b60008211613fc75760405162461bcd60e51b8152602060048201526012602482015271526f756e64206e6f7420636f6d706c65746560701b60448201526064016108aa565b5090949350505050565b6000613fdd8286615923565b83613fe88689615923565b613ff29190615923565b613de69190615821565b60606107616001600160a01b03831660145b6060600061401d836002615923565b614028906002615809565b67ffffffffffffffff81111561404057614040615a52565b6040519080825280601f01601f19166020018201604052801561406a576020820181803683370190505b509050600360fc1b8160008151811061408557614085615a3c565b60200101906001600160f81b031916908160001a905350600f60fb1b816001815181106140b4576140b4615a3c565b60200101906001600160f81b031916908160001a90535060006140d8846002615923565b6140e3906001615809565b90505b600181111561415b576f181899199a1a9b1b9c1cb0b131b232b360811b85600f166010811061411757614117615a3c565b1a60f81b82828151811061412d5761412d615a3c565b60200101906001600160f81b031916908160001a90535060049490941c93614154816159ad565b90506140e6565b5083156122f55760405162461bcd60e51b815260206004820181905260248201527f537472696e67733a20686578206c656e67746820696e73756666696369656e7460448201526064016108aa565b6141b381613220565b6040516001600160a01b038216907fbc7cd75a20ee27fd9adebab32041f755214dbc6bffa90cc0225b39da2e5c2d3b90600090a250565b60606001600160a01b0383163b6142525760405162461bcd60e51b815260206004820152602660248201527f416464726573733a2064656c65676174652063616c6c20746f206e6f6e2d636f6044820152651b9d1c9858dd60d21b60648201526084016108aa565b600080846001600160a01b03168460405161426d9190615380565b600060405180830381855af49150503d80600081146142a8576040519150601f19603f3d011682016040523d82523d6000602084013e6142ad565b606091505b50915091506129578282604051806060016040528060278152602001615aec602791396146fd565b600084846142e38589615923565b6142ed9190615821565b6142f79190615809565b6143018689615923565b61430b9190615821565b905060005b828110156143725760006143268c8c8c86614716565b90508683614334838b615923565b61433e9190615821565b6143489190615809565b614352888b615923565b61435c9190615821565b925050808061436a906159c4565b915050614310565b509998505050505050505050565b61013054600090819061439b906001600160a01b0316613ead565b61012f549091506000906143b7906001600160a01b0316613ead565b9050611d6f8461013154610132548486613fd1565b60405163095ea7b360e01b81526001600160a01b038681166004830152602482018490526000919086169063095ea7b390604401602060405180830381600087803b15801561441a57600080fd5b505af115801561442e573d6000803e3d6000fd5b505050506040513d601f19601f820116820180604052508101906144529190614eaa565b506000806000614463898989614807565b9250925092506000811561450b57604051635320bf6b60e11b8152600f85810b600483015284900b602482015260448101889052606481018790526001600160a01b038b169063a6417ed690608401602060405180830381600087803b1580156144cc57600080fd5b505af11580156144e0573d6000803e3d6000fd5b505050506040513d601f19601f820116820180604052508101906145049190614ee0565b90506145a1565b604051630f7c084960e21b8152600f85810b600483015284900b602482015260448101889052606481018790526001600160a01b038b1690633df0212490608401602060405180830381600087803b15801561456657600080fd5b505af115801561457a573d6000803e3d6000fd5b505050506040513d601f19601f8201168201806040525081019061459e9190614ee0565b90505b9998505050505050505050565b6000826001600160a01b0316846001600160a01b031611156145ce579192915b60006145f1856001600160a01b0316856001600160a01b0316600160601b61464e565b905061295761461384836146058989615942565b6001600160a01b031661464e565b614a5c565b6000826001600160a01b0316846001600160a01b03161115614638579192915b611d6f61461383600160601b6146058888615942565b600080806000198587098587029250828110838203039150508060001415614688576000841161467d57600080fd5b5082900490506122f5565b80841161469457600080fd5b60008486880960026001871981018816978890046003810283188082028403028082028403028082028403028082028403028082028403029081029092039091026000889003889004909101858311909403939093029303949094049190911702949350505050565b6060831561470c5750816122f5565b6122f58383614a72565b600080600080614727888888614807565b92509250925080156147c8576040516307211ef760e01b8152600f84810b600483015283900b6024820152604481018690526001600160a01b038916906307211ef7906064015b60206040518083038186803b15801561478657600080fd5b505afa15801561479a573d6000803e3d6000fd5b505050506040513d601f19601f820116820180604052508101906147be9190614ee0565b9350505050611d6f565b604051635e0d443f60e01b8152600f84810b600483015283900b6024820152604481018690526001600160a01b03891690635e0d443f9060640161476e565b6000808060016001607f1b0380825b60006148228a83614a9c565b90506001600160a01b038116614838575061488b565b886001600160a01b0316816001600160a01b0316141561485a57819350614878565b876001600160a01b0316816001600160a01b03161415614878578192505b81614882816159c4565b92505050614816565b600f83900b60016001607f1b03148015906148b15750600f82900b60016001607f1b0314155b156148c55750909350915060009050614a53565b600f83900b60016001607f1b031415806148ea5750600f82900b60016001607f1b0314155b156149435760405162461bcd60e51b815260206004820152602360248201527f437572766553503a20696e636f727265637420746f6b656e207061697220736560448201526207475760ec1b60648201526084016108aa565b5060005b60006149538a83614b29565b90506001600160a01b03811661496957506149bc565b886001600160a01b0316816001600160a01b0316141561498b578193506149a9565b876001600160a01b0316816001600160a01b031614156149a9578192505b816149b3816159c4565b92505050614947565b600f83900b60016001607f1b03148015906149e25750600f82900b60016001607f1b0314155b156149f65750909350915060019050614a53565b60405162461bcd60e51b815260206004820152602c60248201527f437572766553503a2043616e27742066696e6420696e64657820666f7220746f60448201526b1ad95b9cc81a5b881c1bdbdb60a21b60648201526084016108aa565b93509350939050565b806001600160801b0381168114611aa557600080fd5b815115614a825781518083602001fd5b8060405162461bcd60e51b81526004016108aa91906154dd565b60405163c661065760e01b8152600481018290526000906001600160a01b0384169063c6610657906024015b60206040518083038186803b158015614ae057600080fd5b505afa925050508015614b10575060408051601f3d908101601f19168201909252614b0d91810190614cc5565b60015b614b1957614b20565b9050610761565b50600092915050565b604051630b9947eb60e41b8152600481018290526000906001600160a01b0384169063b9947eb090602401614ac8565b60405180604001604052806002906020820280368337509192915050565b8051611aa581615a68565b600082601f830112614b9357600080fd5b81516020614ba8614ba3836157e5565b6157b4565b80838252828201915082860187848660051b8901011115614bc857600080fd5b60005b85811015614be757815184529284019290840190600101614bcb565b5090979650505050505050565b8051611aa581615a8b565b600060608284031215614c1157600080fd5b6040516060810181811067ffffffffffffffff82111715614c3457614c34615a52565b80604052508091508251614c4781615a68565b81526020830151614c5781615a9a565b60208201526040830151614c6a81615a68565b6040919091015292915050565b80516001600160801b0381168114611aa557600080fd5b805169ffffffffffffffffffff81168114611aa557600080fd5b600060208284031215614cba57600080fd5b81356122f581615a68565b600060208284031215614cd757600080fd5b81516122f581615a68565b60008060408385031215614cf557600080fd5b8235614d0081615a68565b915060208381013567ffffffffffffffff80821115614d1e57600080fd5b818601915086601f830112614d3257600080fd5b813581811115614d4457614d44615a52565b614d56601f8201601f191685016157b4565b91508082528784828501011115614d6c57600080fd5b80848401858401376000848284010152508093505050509250929050565b60008060408385031215614d9d57600080fd5b8235614da881615a68565b946020939093013593505050565b60008060008060808587031215614dcc57600080fd5b8435614dd781615a68565b9350602085013592506040850135614dee81615a68565b91506060850135614dfe81615a7d565b939692955090935050565b60006020808385031215614e1c57600080fd5b825167ffffffffffffffff811115614e3357600080fd5b8301601f81018513614e4457600080fd5b8051614e52614ba3826157e5565b80828252848201915084840188868560051b8701011115614e7257600080fd5b600094505b83851015614e9e578051614e8a81615a8b565b835260019490940193918501918501614e77565b50979650505050505050565b600060208284031215614ebc57600080fd5b81516122f581615a7d565b600060208284031215614ed957600080fd5b5035919050565b600060208284031215614ef257600080fd5b5051919050565b60008060408385031215614f0c57600080fd5b823591506020830135614f1e81615a68565b809150509250929050565b600060208284031215614f3b57600080fd5b81356001600160e01b0319811681146122f557600080fd5b600060208284031215614f6557600080fd5b81356122f581615a8b565b60008060408385031215614f8357600080fd5b8235614f8e81615a8b565b91506020830135614f1e81615a8b565b600080828403610160811215614fb357600080fd5b61010080821215614fc357600080fd5b614fcb61578a565b915084516bffffffffffffffffffffffff81168114614fe957600080fd5b8252614ff760208601614b77565b602083015261500860408601614c8e565b604083015261501960608601614bf4565b606083015261502a60808601614bf4565b608083015261503b60a08601614c77565b60a083015260c085015160c083015260e085015160e083015281935061506386828701614bff565b925050509250929050565b60006101a0828403121561508157600080fd5b50919050565b60008060006060848603121561509c57600080fd5b6150a584614c77565b92506150b360208501614c77565b91506150c160408501614c77565b90509250925092565b600080600080608085870312156150e057600080fd5b6150e985614c77565b60208601516040870151606090970151919890975090945092505050565b6000806000806080858703121561511d57600080fd5b845161512881615a68565b602086015190945061513981615a8b565b604086015190935061514a81615a8b565b6060860151909250614dfe81615a7d565b60006020828403121561516d57600080fd5b81356122f581615a9a565b60008060006060848603121561518d57600080fd5b83519250602084015167ffffffffffffffff808211156151ac57600080fd5b6151b887838801614b82565b935060408601519150808211156151ce57600080fd5b506151db86828701614b82565b9150509250925092565b600080600080608085870312156151fb57600080fd5b8451935061520b60208601614c77565b6040860151606090960151949790965092505050565b60008060006060848603121561523657600080fd5b505081359360208301359350604090920135919050565b60008060006060848603121561526257600080fd5b8351925060208401519150604084015190509250925092565b600080600080600060a0868803121561529357600080fd5b61529c86614c8e565b94506020860151935060408601519250606086015191506152bf60808701614c8e565b90509295509295909350565b6000602082840312156152dd57600080fd5b815160ff811681146122f557600080fd5b8060005b600280821061530157506132e1565b8251900b8452602093840193909101906001016152f2565b600081518084526020808501945080840160005b838110156153495781518752958201959082019060010161532d565b509495945050505050565b6000815180845261536c816020860160208601615981565b601f01601f19169290920160200192915050565b60008251615392818460208701615981565b9190910192915050565b7f416363657373436f6e74726f6c3a206163636f756e74200000000000000000008152600083516153d4816017850160208801615981565b7001034b99036b4b9b9b4b733903937b6329607d1b6017918401918201528351615405816028840160208801615981565b01602801949350505050565b6020815260006122f56020830184615319565b6040815260006154376040830185615319565b6020838203818501528185518084528284019150828160051b85010183880160005b8381101561548757601f19878403018552615475838351615354565b94860194925090850190600101615459565b50909998505050505050505050565b60c0815260006154a960c0830189615319565b60208301979097525060408101949094526001600160a01b039290921660608401521515608083015260a090910152919050565b6020815260006122f56020830184615354565b6020808252601f908201527f5265737472696374656420746f20504f5254464f4c494f5f4d414e4147455200604082015260600190565b6020808252602c908201527f46756e6374696f6e206d7573742062652063616c6c6564207468726f7567682060408201526b19195b1959d85d1958d85b1b60a21b606082015260800190565b6020808252602c908201527f46756e6374696f6e206d7573742062652063616c6c6564207468726f7567682060408201526b6163746976652070726f787960a01b606082015260800190565b6020808252602e908201527f496e697469616c697a61626c653a20636f6e747261637420697320616c72656160408201526d191e481a5b9a5d1a585b1a5e995960921b606082015260800190565b6020815260008251602080840152611d6f6040840182615319565b81518152602080830151610100830191615644908401826152ee565b506040830151606083015260608301516080830152608083015160a083015260a083015160c083015260c083015160e083015292915050565b81516001600160a01b031681526101a0810160208301516156a960208401826001600160a01b03169052565b5060408301516156c0604084018262ffffff169052565b5060608301516156d5606084018260020b9052565b5060808301516156ea608084018260020b9052565b5060a08301516156fd60a08401826152ee565b5060c083015160e08381019190915283015161010080840191909152830151610120808401919091528301516101408084019190915283015161016061574d818501836001600160a01b03169052565b80850151610180850152505092915050565b8381526060602082015260006157786060830185615319565b8281036040840152613de68185615319565b604051610100810167ffffffffffffffff811182821017156157ae576157ae615a52565b60405290565b604051601f8201601f1916810167ffffffffffffffff811182821017156157dd576157dd615a52565b604052919050565b600067ffffffffffffffff8211156157ff576157ff615a52565b5060051b60200190565b6000821982111561581c5761581c615a10565b500190565b60008261583057615830615a26565b500490565b600181815b8085111561587057816000190482111561585657615856615a10565b8085161561586357918102915b93841c939080029061583a565b509250929050565b60006122f560ff84168360008261589157506001610761565b8161589e57506000610761565b81600181146158b457600281146158be576158da565b6001915050610761565b60ff8411156158cf576158cf615a10565b50506001821b610761565b5060208310610133831016604e8410600b84101617156158fd575081810a610761565b6159078383615835565b806000190482111561591b5761591b615a10565b029392505050565b600081600019048311821515161561593d5761593d615a10565b500290565b60006001600160a01b038381169083168181101561596257615962615a10565b039392505050565b60008282101561597c5761597c615a10565b500390565b60005b8381101561599c578181015183820152602001615984565b838111156132e15750506000910152565b6000816159bc576159bc615a10565b506000190190565b60006000198214156159d8576159d8615a10565b5060010190565b6000826159ee576159ee615a26565b500690565b6000600160ff1b821415615a0957615a09615a10565b5060000390565b634e487b7160e01b600052601160045260246000fd5b634e487b7160e01b600052601260045260246000fd5b634e487b7160e01b600052603260045260246000fd5b634e487b7160e01b600052604160045260246000fd5b6001600160a01b038116811461099e57600080fd5b801515811461099e57600080fd5b8060020b811461099e57600080fd5b62ffffff8116811461099e57600080fdfe90c2aa7471c04182221f68e80c07ab1e5946e4c63f8693e14ca40385d529f051360894a13ba1a3210667c828492db98dca3e2076cc3735a920a3ca505d382bbc416464726573733a206c6f772d6c6576656c2064656c65676174652063616c6c206661696c6564a26469706673582212201162976a02942f6d36a3639969b2a42e8a408f3e047e9c6a16e8e5180767addc64736f6c63430008060033",
  "implementation": "0x1fE9842d55558312f20c9D9732272d2584146C7d",
  "devdoc": {
    "kind": "dev",
    "methods": {
      "constructor": {
        "custom:oz-upgrades-unsafe-allow": "constructor"
      },
      "getRoleAdmin(bytes32)": {
        "details": "Returns the admin role that controls `role`. See {grantRole} and {revokeRole}. To change a role's admin, use {_setRoleAdmin}."
      },
      "grantRole(bytes32,address)": {
        "details": "Grants `role` to `account`. If `account` had not been already granted `role`, emits a {RoleGranted} event. Requirements: - the caller must have ``role``'s admin role. May emit a {RoleGranted} event."
      },
      "hasRole(bytes32,address)": {
        "details": "Returns `true` if `account` has been granted `role`."
      },
      "proxiableUUID()": {
        "details": "Implementation of the ERC1822 {proxiableUUID} function. This returns the storage slot used by the implementation. It is used to validate the implementation's compatibility when performing an upgrade. IMPORTANT: A proxy pointing at a proxiable contract should not be considered proxiable itself, because this risks bricking a proxy that upgrades to it, by delegating to itself until out of gas. Thus it is critical that this function revert if invoked through a proxy. This is guaranteed by the `notDelegated` modifier."
      },
      "renounceRole(bytes32,address)": {
        "details": "Revokes `role` from the calling account. Roles are often managed via {grantRole} and {revokeRole}: this function's purpose is to provide a mechanism for accounts to lose their privileges if they are compromised (such as when a trusted device is misplaced). If the calling account had been revoked `role`, emits a {RoleRevoked} event. Requirements: - the caller must be `account`. May emit a {RoleRevoked} event."
      },
      "revokeRole(bytes32,address)": {
        "details": "Revokes `role` from `account`. If `account` had been granted `role`, emits a {RoleRevoked} event. Requirements: - the caller must have ``role``'s admin role. May emit a {RoleRevoked} event."
      },
      "supportsInterface(bytes4)": {
        "details": "See {IERC165-supportsInterface}."
      },
      "upgradeTo(address)": {
        "details": "Upgrade the implementation of the proxy to `newImplementation`. Calls {_authorizeUpgrade}. Emits an {Upgraded} event."
      },
      "upgradeToAndCall(address,bytes)": {
        "details": "Upgrade the implementation of the proxy to `newImplementation`, and subsequently execute the function call encoded in `data`. Calls {_authorizeUpgrade}. Emits an {Upgraded} event."
      }
    },
    "version": 1
  },
  "userdoc": {
    "kind": "user",
    "methods": {},
    "version": 1
  },
  "storageLayout": {
    "storage": [
      {
        "astId": 804,
        "contract": "contracts/StrategyKyberSwapUsdcUsdt.sol:StrategyKyberSwapUsdcUsdt",
        "label": "_initialized",
        "offset": 0,
        "slot": "0",
        "type": "t_uint8"
      },
      {
        "astId": 807,
        "contract": "contracts/StrategyKyberSwapUsdcUsdt.sol:StrategyKyberSwapUsdcUsdt",
        "label": "_initializing",
        "offset": 1,
        "slot": "0",
        "type": "t_bool"
      },
      {
        "astId": 1427,
        "contract": "contracts/StrategyKyberSwapUsdcUsdt.sol:StrategyKyberSwapUsdcUsdt",
        "label": "__gap",
        "offset": 0,
        "slot": "1",
        "type": "t_array(t_uint256)50_storage"
      },
      {
        "astId": 1706,
        "contract": "contracts/StrategyKyberSwapUsdcUsdt.sol:StrategyKyberSwapUsdcUsdt",
        "label": "__gap",
        "offset": 0,
        "slot": "51",
        "type": "t_array(t_uint256)50_storage"
      },
      {
        "astId": 39,
        "contract": "contracts/StrategyKyberSwapUsdcUsdt.sol:StrategyKyberSwapUsdcUsdt",
        "label": "_roles",
        "offset": 0,
        "slot": "101",
        "type": "t_mapping(t_bytes32,t_struct(RoleData)34_storage)"
      },
      {
        "astId": 334,
        "contract": "contracts/StrategyKyberSwapUsdcUsdt.sol:StrategyKyberSwapUsdcUsdt",
        "label": "__gap",
        "offset": 0,
        "slot": "102",
        "type": "t_array(t_uint256)49_storage"
      },
      {
        "astId": 786,
        "contract": "contracts/StrategyKyberSwapUsdcUsdt.sol:StrategyKyberSwapUsdcUsdt",
        "label": "__gap",
        "offset": 0,
        "slot": "151",
        "type": "t_array(t_uint256)50_storage"
      },
      {
        "astId": 1101,
        "contract": "contracts/StrategyKyberSwapUsdcUsdt.sol:StrategyKyberSwapUsdcUsdt",
        "label": "__gap",
        "offset": 0,
        "slot": "201",
        "type": "t_array(t_uint256)50_storage"
      },
      {
        "astId": 8109,
        "contract": "contracts/StrategyKyberSwapUsdcUsdt.sol:StrategyKyberSwapUsdcUsdt",
        "label": "portfolioManager",
        "offset": 0,
        "slot": "251",
        "type": "t_address"
      },
      {
        "astId": 8111,
        "contract": "contracts/StrategyKyberSwapUsdcUsdt.sol:StrategyKyberSwapUsdcUsdt",
        "label": "swapSlippageBP",
        "offset": 0,
        "slot": "252",
        "type": "t_uint256"
      },
      {
        "astId": 8113,
        "contract": "contracts/StrategyKyberSwapUsdcUsdt.sol:StrategyKyberSwapUsdcUsdt",
        "label": "navSlippageBP",
        "offset": 0,
        "slot": "253",
        "type": "t_uint256"
      },
      {
        "astId": 8115,
        "contract": "contracts/StrategyKyberSwapUsdcUsdt.sol:StrategyKyberSwapUsdcUsdt",
        "label": "stakeSlippageBP",
        "offset": 0,
        "slot": "254",
        "type": "t_uint256"
      },
      {
        "astId": 8500,
        "contract": "contracts/StrategyKyberSwapUsdcUsdt.sol:StrategyKyberSwapUsdcUsdt",
        "label": "__gap",
        "offset": 0,
        "slot": "255",
        "type": "t_array(t_uint256)46_storage"
      },
      {
        "astId": 8624,
        "contract": "contracts/StrategyKyberSwapUsdcUsdt.sol:StrategyKyberSwapUsdcUsdt",
        "label": "usdt",
        "offset": 0,
        "slot": "301",
        "type": "t_contract(IERC20)2662"
      },
      {
        "astId": 8627,
        "contract": "contracts/StrategyKyberSwapUsdcUsdt.sol:StrategyKyberSwapUsdcUsdt",
        "label": "usdc",
        "offset": 0,
        "slot": "302",
        "type": "t_contract(IERC20)2662"
      },
      {
        "astId": 8630,
        "contract": "contracts/StrategyKyberSwapUsdcUsdt.sol:StrategyKyberSwapUsdcUsdt",
        "label": "oracleUsdc",
        "offset": 0,
        "slot": "303",
        "type": "t_contract(IPriceFeed)3025"
      },
      {
        "astId": 8633,
        "contract": "contracts/StrategyKyberSwapUsdcUsdt.sol:StrategyKyberSwapUsdcUsdt",
        "label": "oracleUsdt",
        "offset": 0,
        "slot": "304",
        "type": "t_contract(IPriceFeed)3025"
      },
      {
        "astId": 8635,
        "contract": "contracts/StrategyKyberSwapUsdcUsdt.sol:StrategyKyberSwapUsdcUsdt",
        "label": "usdcDm",
        "offset": 0,
        "slot": "305",
        "type": "t_uint256"
      },
      {
        "astId": 8637,
        "contract": "contracts/StrategyKyberSwapUsdcUsdt.sol:StrategyKyberSwapUsdcUsdt",
        "label": "usdtDm",
        "offset": 0,
        "slot": "306",
        "type": "t_uint256"
      },
      {
        "astId": 8640,
        "contract": "contracts/StrategyKyberSwapUsdcUsdt.sol:StrategyKyberSwapUsdcUsdt",
        "label": "uniswapV3Router",
        "offset": 0,
        "slot": "307",
        "type": "t_contract(ISwapRouter)6012"
      },
      {
        "astId": 8643,
        "contract": "contracts/StrategyKyberSwapUsdcUsdt.sol:StrategyKyberSwapUsdcUsdt",
        "label": "npm",
        "offset": 0,
        "slot": "308",
        "type": "t_contract(AntiSnipAttackPositionManager)5595"
      },
      {
        "astId": 8646,
        "contract": "contracts/StrategyKyberSwapUsdcUsdt.sol:StrategyKyberSwapUsdcUsdt",
        "label": "pool",
        "offset": 0,
        "slot": "309",
        "type": "t_contract(Pool)5626"
      },
      {
        "astId": 8648,
        "contract": "contracts/StrategyKyberSwapUsdcUsdt.sol:StrategyKyberSwapUsdcUsdt",
        "label": "fee",
        "offset": 20,
        "slot": "309",
        "type": "t_uint24"
      },
      {
        "astId": 8650,
        "contract": "contracts/StrategyKyberSwapUsdcUsdt.sol:StrategyKyberSwapUsdcUsdt",
        "label": "tokenId",
        "offset": 0,
        "slot": "310",
        "type": "t_uint256"
      },
      {
        "astId": 8652,
        "contract": "contracts/StrategyKyberSwapUsdcUsdt.sol:StrategyKyberSwapUsdcUsdt",
        "label": "poolId",
        "offset": 0,
        "slot": "311",
        "type": "t_uint256"
      },
      {
        "astId": 8654,
        "contract": "contracts/StrategyKyberSwapUsdcUsdt.sol:StrategyKyberSwapUsdcUsdt",
        "label": "lowerTick",
        "offset": 0,
        "slot": "312",
        "type": "t_int24"
      },
      {
        "astId": 8656,
        "contract": "contracts/StrategyKyberSwapUsdcUsdt.sol:StrategyKyberSwapUsdcUsdt",
        "label": "upperTick",
        "offset": 3,
        "slot": "312",
        "type": "t_int24"
      },
      {
        "astId": 8659,
        "contract": "contracts/StrategyKyberSwapUsdcUsdt.sol:StrategyKyberSwapUsdcUsdt",
        "label": "lm",
        "offset": 6,
        "slot": "312",
        "type": "t_contract(KyberSwapElasticLM)5725"
      },
      {
        "astId": 8661,
        "contract": "contracts/StrategyKyberSwapUsdcUsdt.sol:StrategyKyberSwapUsdcUsdt",
        "label": "curve3Pool",
        "offset": 0,
        "slot": "313",
        "type": "t_address"
      }
    ],
    "types": {
      "t_address": {
        "encoding": "inplace",
        "label": "address",
        "numberOfBytes": "20"
      },
      "t_array(t_uint256)46_storage": {
        "base": "t_uint256",
        "encoding": "inplace",
        "label": "uint256[46]",
        "numberOfBytes": "1472"
      },
      "t_array(t_uint256)49_storage": {
        "base": "t_uint256",
        "encoding": "inplace",
        "label": "uint256[49]",
        "numberOfBytes": "1568"
      },
      "t_array(t_uint256)50_storage": {
        "base": "t_uint256",
        "encoding": "inplace",
        "label": "uint256[50]",
        "numberOfBytes": "1600"
      },
      "t_bool": {
        "encoding": "inplace",
        "label": "bool",
        "numberOfBytes": "1"
      },
      "t_bytes32": {
        "encoding": "inplace",
        "label": "bytes32",
        "numberOfBytes": "32"
      },
      "t_contract(AntiSnipAttackPositionManager)5595": {
        "encoding": "inplace",
        "label": "contract AntiSnipAttackPositionManager",
        "numberOfBytes": "20"
      },
      "t_contract(IERC20)2662": {
        "encoding": "inplace",
        "label": "contract IERC20",
        "numberOfBytes": "20"
      },
      "t_contract(IPriceFeed)3025": {
        "encoding": "inplace",
        "label": "contract IPriceFeed",
        "numberOfBytes": "20"
      },
      "t_contract(ISwapRouter)6012": {
        "encoding": "inplace",
        "label": "contract ISwapRouter",
        "numberOfBytes": "20"
      },
      "t_contract(KyberSwapElasticLM)5725": {
        "encoding": "inplace",
        "label": "contract KyberSwapElasticLM",
        "numberOfBytes": "20"
      },
      "t_contract(Pool)5626": {
        "encoding": "inplace",
        "label": "contract Pool",
        "numberOfBytes": "20"
      },
      "t_int24": {
        "encoding": "inplace",
        "label": "int24",
        "numberOfBytes": "3"
      },
      "t_mapping(t_address,t_bool)": {
        "encoding": "mapping",
        "key": "t_address",
        "label": "mapping(address => bool)",
        "numberOfBytes": "32",
        "value": "t_bool"
      },
      "t_mapping(t_bytes32,t_struct(RoleData)34_storage)": {
        "encoding": "mapping",
        "key": "t_bytes32",
        "label": "mapping(bytes32 => struct AccessControlUpgradeable.RoleData)",
        "numberOfBytes": "32",
        "value": "t_struct(RoleData)34_storage"
      },
      "t_struct(RoleData)34_storage": {
        "encoding": "inplace",
        "label": "struct AccessControlUpgradeable.RoleData",
        "members": [
          {
            "astId": 31,
            "contract": "contracts/StrategyKyberSwapUsdcUsdt.sol:StrategyKyberSwapUsdcUsdt",
            "label": "members",
            "offset": 0,
            "slot": "0",
            "type": "t_mapping(t_address,t_bool)"
          },
          {
            "astId": 33,
            "contract": "contracts/StrategyKyberSwapUsdcUsdt.sol:StrategyKyberSwapUsdcUsdt",
            "label": "adminRole",
            "offset": 0,
            "slot": "1",
            "type": "t_bytes32"
          }
        ],
        "numberOfBytes": "64"
      },
      "t_uint24": {
        "encoding": "inplace",
        "label": "uint24",
        "numberOfBytes": "3"
      },
      "t_uint256": {
        "encoding": "inplace",
        "label": "uint256",
        "numberOfBytes": "32"
      },
      "t_uint8": {
        "encoding": "inplace",
        "label": "uint8",
        "numberOfBytes": "1"
      }
    }
  }
}