{
  "address": "0x4395ab761ebaA01ec22940F32568845C2a8bAf3e",
  "abi": [
    {
      "inputs": [],
      "stateMutability": "nonpayable",
      "type": "constructor"
    },
    {
      "anonymous": false,
      "inputs": [
        {
          "indexed": false,
          "internalType": "address",
          "name": "previousAdmin",
          "type": "address"
        },
        {
          "indexed": false,
          "internalType": "address",
          "name": "newAdmin",
          "type": "address"
        }
      ],
      "name": "AdminChanged",
      "type": "event"
    },
    {
      "anonymous": false,
      "inputs": [
        {
          "indexed": true,
          "internalType": "address",
          "name": "beacon",
          "type": "address"
        }
      ],
      "name": "BeaconUpgraded",
      "type": "event"
    },
    {
      "anonymous": false,
      "inputs": [
        {
          "indexed": false,
          "internalType": "uint8",
          "name": "version",
          "type": "uint8"
        }
      ],
      "name": "Initialized",
      "type": "event"
    },
    {
      "anonymous": false,
      "inputs": [
        {
          "indexed": false,
          "internalType": "address",
          "name": "value",
          "type": "address"
        }
      ],
      "name": "PortfolioManagerUpdated",
      "type": "event"
    },
    {
      "anonymous": false,
      "inputs": [
        {
          "indexed": false,
          "internalType": "uint256",
          "name": "amount",
          "type": "uint256"
        }
      ],
      "name": "Reward",
      "type": "event"
    },
    {
      "anonymous": false,
      "inputs": [
        {
          "indexed": true,
          "internalType": "bytes32",
          "name": "role",
          "type": "bytes32"
        },
        {
          "indexed": true,
          "internalType": "bytes32",
          "name": "previousAdminRole",
          "type": "bytes32"
        },
        {
          "indexed": true,
          "internalType": "bytes32",
          "name": "newAdminRole",
          "type": "bytes32"
        }
      ],
      "name": "RoleAdminChanged",
      "type": "event"
    },
    {
      "anonymous": false,
      "inputs": [
        {
          "indexed": true,
          "internalType": "bytes32",
          "name": "role",
          "type": "bytes32"
        },
        {
          "indexed": true,
          "internalType": "address",
          "name": "account",
          "type": "address"
        },
        {
          "indexed": true,
          "internalType": "address",
          "name": "sender",
          "type": "address"
        }
      ],
      "name": "RoleGranted",
      "type": "event"
    },
    {
      "anonymous": false,
      "inputs": [
        {
          "indexed": true,
          "internalType": "bytes32",
          "name": "role",
          "type": "bytes32"
        },
        {
          "indexed": true,
          "internalType": "address",
          "name": "account",
          "type": "address"
        },
        {
          "indexed": true,
          "internalType": "address",
          "name": "sender",
          "type": "address"
        }
      ],
      "name": "RoleRevoked",
      "type": "event"
    },
    {
      "anonymous": false,
      "inputs": [
        {
          "indexed": false,
          "internalType": "uint256",
          "name": "swapSlippageBP",
          "type": "uint256"
        },
        {
          "indexed": false,
          "internalType": "uint256",
          "name": "navSlippageBP",
          "type": "uint256"
        },
        {
          "indexed": false,
          "internalType": "uint256",
          "name": "stakeSlippageBP",
          "type": "uint256"
        }
      ],
      "name": "SlippagesUpdated",
      "type": "event"
    },
    {
      "anonymous": false,
      "inputs": [
        {
          "indexed": false,
          "internalType": "uint256",
          "name": "amount",
          "type": "uint256"
        }
      ],
      "name": "Stake",
      "type": "event"
    },
    {
      "anonymous": false,
      "inputs": [],
      "name": "StrategyUpdatedParams",
      "type": "event"
    },
    {
      "anonymous": false,
      "inputs": [
        {
          "indexed": false,
          "internalType": "uint256",
          "name": "amount",
          "type": "uint256"
        },
        {
          "indexed": false,
          "internalType": "uint256",
          "name": "amountReceived",
          "type": "uint256"
        }
      ],
      "name": "Unstake",
      "type": "event"
    },
    {
      "anonymous": false,
      "inputs": [
        {
          "indexed": true,
          "internalType": "address",
          "name": "implementation",
          "type": "address"
        }
      ],
      "name": "Upgraded",
      "type": "event"
    },
    {
      "inputs": [],
      "name": "DEFAULT_ADMIN_ROLE",
      "outputs": [
        {
          "internalType": "bytes32",
          "name": "",
          "type": "bytes32"
        }
      ],
      "stateMutability": "view",
      "type": "function"
    },
    {
      "inputs": [],
      "name": "PORTFOLIO_AGENT_ROLE",
      "outputs": [
        {
          "internalType": "bytes32",
          "name": "",
          "type": "bytes32"
        }
      ],
      "stateMutability": "view",
      "type": "function"
    },
    {
      "inputs": [],
      "name": "PORTFOLIO_MANAGER",
      "outputs": [
        {
          "internalType": "bytes32",
          "name": "",
          "type": "bytes32"
        }
      ],
      "stateMutability": "view",
      "type": "function"
    },
    {
      "inputs": [],
      "name": "asset",
      "outputs": [
        {
          "internalType": "contract IERC20",
          "name": "",
          "type": "address"
        }
      ],
      "stateMutability": "view",
      "type": "function"
    },
    {
      "inputs": [
        {
          "internalType": "address",
          "name": "_to",
          "type": "address"
        }
      ],
      "name": "claimRewards",
      "outputs": [
        {
          "internalType": "uint256",
          "name": "",
          "type": "uint256"
        }
      ],
      "stateMutability": "nonpayable",
      "type": "function"
    },
    {
      "inputs": [
        {
          "internalType": "bytes32",
          "name": "role",
          "type": "bytes32"
        }
      ],
      "name": "getRoleAdmin",
      "outputs": [
        {
          "internalType": "bytes32",
          "name": "",
          "type": "bytes32"
        }
      ],
      "stateMutability": "view",
      "type": "function"
    },
    {
      "inputs": [
        {
          "internalType": "bytes32",
          "name": "role",
          "type": "bytes32"
        },
        {
          "internalType": "address",
          "name": "account",
          "type": "address"
        }
      ],
      "name": "grantRole",
      "outputs": [],
      "stateMutability": "nonpayable",
      "type": "function"
    },
    {
      "inputs": [
        {
          "internalType": "bytes32",
          "name": "role",
          "type": "bytes32"
        },
        {
          "internalType": "address",
          "name": "account",
          "type": "address"
        }
      ],
      "name": "hasRole",
      "outputs": [
        {
          "internalType": "bool",
          "name": "",
          "type": "bool"
        }
      ],
      "stateMutability": "view",
      "type": "function"
    },
    {
      "inputs": [],
      "name": "hedgeExchanger",
      "outputs": [
        {
          "internalType": "contract IHedgeExchanger",
          "name": "",
          "type": "address"
        }
      ],
      "stateMutability": "view",
      "type": "function"
    },
    {
      "inputs": [
        {
          "internalType": "uint256",
          "name": "_swapSlippageBP",
          "type": "uint256"
        },
        {
          "internalType": "uint256",
          "name": "_navSlippageBP",
          "type": "uint256"
        },
        {
          "internalType": "uint256",
          "name": "_stakeSlippageBP",
          "type": "uint256"
        }
      ],
      "name": "initSlippages",
      "outputs": [],
      "stateMutability": "nonpayable",
      "type": "function"
    },
    {
      "inputs": [],
      "name": "initialize",
      "outputs": [],
      "stateMutability": "nonpayable",
      "type": "function"
    },
    {
      "inputs": [],
      "name": "liquidationValue",
      "outputs": [
        {
          "internalType": "uint256",
          "name": "",
          "type": "uint256"
        }
      ],
      "stateMutability": "view",
      "type": "function"
    },
    {
      "inputs": [],
      "name": "navSlippageBP",
      "outputs": [
        {
          "internalType": "uint256",
          "name": "",
          "type": "uint256"
        }
      ],
      "stateMutability": "view",
      "type": "function"
    },
    {
      "inputs": [],
      "name": "netAssetValue",
      "outputs": [
        {
          "internalType": "uint256",
          "name": "",
          "type": "uint256"
        }
      ],
      "stateMutability": "view",
      "type": "function"
    },
    {
      "inputs": [],
      "name": "portfolioManager",
      "outputs": [
        {
          "internalType": "address",
          "name": "",
          "type": "address"
        }
      ],
      "stateMutability": "view",
      "type": "function"
    },
    {
      "inputs": [],
      "name": "proxiableUUID",
      "outputs": [
        {
          "internalType": "bytes32",
          "name": "",
          "type": "bytes32"
        }
      ],
      "stateMutability": "view",
      "type": "function"
    },
    {
      "inputs": [],
      "name": "rebaseToken",
      "outputs": [
        {
          "internalType": "contract IERC20",
          "name": "",
          "type": "address"
        }
      ],
      "stateMutability": "view",
      "type": "function"
    },
    {
      "inputs": [
        {
          "internalType": "bytes32",
          "name": "role",
          "type": "bytes32"
        },
        {
          "internalType": "address",
          "name": "account",
          "type": "address"
        }
      ],
      "name": "renounceRole",
      "outputs": [],
      "stateMutability": "nonpayable",
      "type": "function"
    },
    {
      "inputs": [
        {
          "internalType": "bytes32",
          "name": "role",
          "type": "bytes32"
        },
        {
          "internalType": "address",
          "name": "account",
          "type": "address"
        }
      ],
      "name": "revokeRole",
      "outputs": [],
      "stateMutability": "nonpayable",
      "type": "function"
    },
    {
      "inputs": [
        {
          "components": [
            {
              "internalType": "address",
              "name": "asset",
              "type": "address"
            },
            {
              "internalType": "address",
              "name": "rebaseToken",
              "type": "address"
            },
            {
              "internalType": "address",
              "name": "hedgeExchanger",
              "type": "address"
            }
          ],
          "internalType": "struct StrategyEts.StrategyParams",
          "name": "params",
          "type": "tuple"
        }
      ],
      "name": "setParams",
      "outputs": [],
      "stateMutability": "nonpayable",
      "type": "function"
    },
    {
      "inputs": [
        {
          "internalType": "address",
          "name": "_value",
          "type": "address"
        }
      ],
      "name": "setPortfolioManager",
      "outputs": [],
      "stateMutability": "nonpayable",
      "type": "function"
    },
    {
      "inputs": [
        {
          "internalType": "uint256",
          "name": "_swapSlippageBP",
          "type": "uint256"
        },
        {
          "internalType": "uint256",
          "name": "_navSlippageBP",
          "type": "uint256"
        },
        {
          "internalType": "uint256",
          "name": "_stakeSlippageBP",
          "type": "uint256"
        }
      ],
      "name": "setSlippages",
      "outputs": [],
      "stateMutability": "nonpayable",
      "type": "function"
    },
    {
      "inputs": [
        {
          "internalType": "address",
          "name": "_asset",
          "type": "address"
        },
        {
          "internalType": "uint256",
          "name": "_amount",
          "type": "uint256"
        }
      ],
      "name": "stake",
      "outputs": [],
      "stateMutability": "nonpayable",
      "type": "function"
    },
    {
      "inputs": [],
      "name": "stakeSlippageBP",
      "outputs": [
        {
          "internalType": "uint256",
          "name": "",
          "type": "uint256"
        }
      ],
      "stateMutability": "view",
      "type": "function"
    },
    {
      "inputs": [
        {
          "internalType": "bytes4",
          "name": "interfaceId",
          "type": "bytes4"
        }
      ],
      "name": "supportsInterface",
      "outputs": [
        {
          "internalType": "bool",
          "name": "",
          "type": "bool"
        }
      ],
      "stateMutability": "view",
      "type": "function"
    },
    {
      "inputs": [],
      "name": "swapSlippageBP",
      "outputs": [
        {
          "internalType": "uint256",
          "name": "",
          "type": "uint256"
        }
      ],
      "stateMutability": "view",
      "type": "function"
    },
    {
      "inputs": [
        {
          "internalType": "address",
          "name": "_asset",
          "type": "address"
        },
        {
          "internalType": "uint256",
          "name": "_amount",
          "type": "uint256"
        },
        {
          "internalType": "address",
          "name": "_beneficiary",
          "type": "address"
        },
        {
          "internalType": "bool",
          "name": "_targetIsZero",
          "type": "bool"
        }
      ],
      "name": "unstake",
      "outputs": [
        {
          "internalType": "uint256",
          "name": "",
          "type": "uint256"
        }
      ],
      "stateMutability": "nonpayable",
      "type": "function"
    },
    {
      "inputs": [
        {
          "internalType": "address",
          "name": "newImplementation",
          "type": "address"
        }
      ],
      "name": "upgradeTo",
      "outputs": [],
      "stateMutability": "nonpayable",
      "type": "function"
    },
    {
      "inputs": [
        {
          "internalType": "address",
          "name": "newImplementation",
          "type": "address"
        },
        {
          "internalType": "bytes",
          "name": "data",
          "type": "bytes"
        }
      ],
      "name": "upgradeToAndCall",
      "outputs": [],
      "stateMutability": "payable",
      "type": "function"
    }
  ],
  "numDeployments": 1,
  "solcInputHash": "9453281b4486d1ab6e44723d77b78214",
  "bytecode": "0x60a06040523060601b6080523480156200001857600080fd5b50600054610100900460ff16158080156200003a5750600054600160ff909116105b806200006a575062000057306200014460201b6200127c1760201c565b1580156200006a575060005460ff166001145b620000d25760405162461bcd60e51b815260206004820152602e60248201527f496e697469616c697a61626c653a20636f6e747261637420697320616c72656160448201526d191e481a5b9a5d1a585b1a5e995960921b606482015260840160405180910390fd5b6000805460ff191660011790558015620000f6576000805461ff0019166101001790555b80156200013d576000805461ff0019169055604051600181527f7f26b83ff96e1f2b6a682f133852f6798a09c465da95921460cefb38474024989060200160405180910390a15b5062000153565b6001600160a01b03163b151590565b60805160601c6126806200018e60003960008181610654015281816106940152818161073401528181610774015261080301526126806000f3fe6080604052600436106101c25760003560e01c80635dbd733a116100f7578063a3673b3811610095578063bf52e08011610064578063bf52e080146104e0578063d547741f146104f6578063ef5cfb8c14610516578063f6f6b8811461053657600080fd5b8063a3673b3814610289578063a440b21a14610480578063adc9772e146104a0578063ae30c110146104c057600080fd5b80637d5f5802116100d15780637d5f5802146104145780638129fc1c1461043657806391d148541461044b578063a217fddf1461046b57600080fd5b80635dbd733a146103a0578063620b75df146103d457806366af25bc146103f457600080fd5b80633659cfe6116101645780634f1ef2861161013e5780634f1ef2861461034257806352d1902d146103555780635ca558f81461036a5780635d4bcd4b1461038057600080fd5b80633659cfe6146102e057806338d52e0f146103005780633e5e3b801461032157600080fd5b806324ce2735116101a057806324ce2735146102505780632576e65a146102895780632f2ff15d1461029e57806336568abe146102c057600080fd5b806301ffc9a7146101c7578063119cd879146101fc578063248a9ca314610220575b600080fd5b3480156101d357600080fd5b506101e76101e236600461222c565b610556565b60405190151581526020015b60405180910390f35b34801561020857600080fd5b5061021260fd5481565b6040519081526020016101f3565b34801561022c57600080fd5b5061021261023b3660046121ce565b60009081526065602052604090206001015490565b34801561025c57600080fd5b5061012e54610271906001600160a01b031681565b6040516001600160a01b0390911681526020016101f3565b34801561029557600080fd5b5061021261058d565b3480156102aa57600080fd5b506102be6102b9366004612200565b61059c565b005b3480156102cc57600080fd5b506102be6102db366004612200565b6105c6565b3480156102ec57600080fd5b506102be6102fb36600461205b565b610649565b34801561030c57600080fd5b5061012d54610271906001600160a01b031681565b34801561032d57600080fd5b5061012f54610271906001600160a01b031681565b6102be610350366004612076565b610729565b34801561036157600080fd5b506102126107f6565b34801561037657600080fd5b5061021260fe5481565b34801561038c57600080fd5b506102be61039b366004612256565b6108a9565b3480156103ac57600080fd5b506102127fd67ad422505496469a1adf6cdf9e5ee92ac5d33992843c9ecc4b2f6d6cde913781565b3480156103e057600080fd5b5060fb54610271906001600160a01b031681565b34801561040057600080fd5b506102be61040f36600461226e565b61098c565b34801561042057600080fd5b506102126000805160206125e483398151915281565b34801561044257600080fd5b506102be610a09565b34801561045757600080fd5b506101e7610466366004612200565b610ad3565b34801561047757600080fd5b50610212600081565b34801561048c57600080fd5b506102be61049b36600461205b565b610afe565b3480156104ac57600080fd5b506102be6104bb366004612138565b610c06565b3480156104cc57600080fd5b506102be6104db36600461226e565b610e2d565b3480156104ec57600080fd5b5061021260fc5481565b34801561050257600080fd5b506102be610511366004612200565b610f55565b34801561052257600080fd5b5061021261053136600461205b565b610f7a565b34801561054257600080fd5b50610212610551366004612162565b610fb9565b60006001600160e01b03198216637965db0b60e01b148061058757506301ffc9a760e01b6001600160e01b03198316145b92915050565b600061059761128b565b905090565b6000828152606560205260409020600101546105b78161138e565b6105c18383611398565b505050565b6001600160a01b038116331461063b5760405162461bcd60e51b815260206004820152602f60248201527f416363657373436f6e74726f6c3a2063616e206f6e6c792072656e6f756e636560448201526e103937b632b9903337b91039b2b63360891b60648201526084015b60405180910390fd5b610645828261141e565b5050565b306001600160a01b037f00000000000000000000000000000000000000000000000000000000000000001614156106925760405162461bcd60e51b815260040161063290612395565b7f00000000000000000000000000000000000000000000000000000000000000006001600160a01b03166106db600080516020612604833981519152546001600160a01b031690565b6001600160a01b0316146107015760405162461bcd60e51b8152600401610632906123e1565b61070a81611485565b6040805160008082526020820190925261072691839190611490565b50565b306001600160a01b037f00000000000000000000000000000000000000000000000000000000000000001614156107725760405162461bcd60e51b815260040161063290612395565b7f00000000000000000000000000000000000000000000000000000000000000006001600160a01b03166107bb600080516020612604833981519152546001600160a01b031690565b6001600160a01b0316146107e15760405162461bcd60e51b8152600401610632906123e1565b6107ea82611485565b61064582826001611490565b6000306001600160a01b037f000000000000000000000000000000000000000000000000000000000000000016146108965760405162461bcd60e51b815260206004820152603860248201527f555550535570677261646561626c653a206d757374206e6f742062652063616c60448201527f6c6564207468726f7567682064656c656761746563616c6c00000000000000006064820152608401610632565b5060008051602061260483398151915290565b6108b4600033610ad3565b6108d05760405162461bcd60e51b81526004016106329061247b565b6108dd602082018261205b565b61012d80546001600160a01b0319166001600160a01b039290921691909117905561090e604082016020830161205b565b61012e80546001600160a01b0319166001600160a01b039290921691909117905561093f606082016040830161205b565b61012f80546001600160a01b0319166001600160a01b03929092169190911790556040517fea5646eb3528e525944447a4a97de700dd472298626e5c0481d1c82c3da86ea590600090a150565b610997600033610ad3565b6109b35760405162461bcd60e51b81526004016106329061247b565b60fc83905560fd82905560fe81905560408051848152602081018490529081018290527f116fbf1e97a2be629ad98abfb6c332733c8996c2dfb174dd2efe8440df381d1a906060015b60405180910390a1505050565b600054610100900460ff1615808015610a295750600054600160ff909116105b80610a435750303b158015610a43575060005460ff166001145b610a5f5760405162461bcd60e51b81526004016106329061242d565b6000805460ff191660011790558015610a82576000805461ff0019166101001790555b610a8a61160a565b8015610726576000805461ff0019169055604051600181527f7f26b83ff96e1f2b6a682f133852f6798a09c465da95921460cefb3847402498906020015b60405180910390a150565b60009182526065602090815260408084206001600160a01b0393909316845291905290205460ff1690565b610b09600033610ad3565b610b255760405162461bcd60e51b81526004016106329061247b565b6001600160a01b038116610b7b5760405162461bcd60e51b815260206004820152601860248201527f5a65726f2061646472657373206e6f7420616c6c6f77656400000000000000006044820152606401610632565b60fb54610ba0906000805160206125e4833981519152906001600160a01b0316610f55565b610bb86000805160206125e48339815191528261059c565b60fb80546001600160a01b0319166001600160a01b0383169081179091556040519081527ff7b449fcd5cfb7379dcd34cb69428dd9f882033b15be33d83b42d91daa28eeb790602001610ac8565b610c1e6000805160206125e483398151915233610ad3565b610c3a5760405162461bcd60e51b81526004016106329061235e565b6000610cb8306001600160a01b031663a3673b386040518163ffffffff1660e01b815260040160206040518083038186803b158015610c7857600080fd5b505afa158015610c8c573d6000803e3d6000fd5b505050506040513d601f19601f82011682018060405250810190610cb091906121e7565b60fd546116ef565b6040516370a0823160e01b8152306004820152909150610d3d9084906001600160a01b038216906370a082319060240160206040518083038186803b158015610d0057600080fd5b505afa158015610d14573d6000803e3d6000fd5b505050506040513d601f19601f82011682018060405250810190610d3891906121e7565b611719565b80306001600160a01b031663a3673b386040518163ffffffff1660e01b815260040160206040518083038186803b158015610d7757600080fd5b505afa158015610d8b573d6000803e3d6000fd5b505050506040513d601f19601f82011682018060405250810190610daf91906121e7565b1015610dfd5760405162461bcd60e51b815260206004820152601f60248201527f5374726174656779204e4156206c657373207468616e206578706563746564006044820152606401610632565b6040518281527f227a473b70d2f893cc7659219575c030a63b5743024fe1e0c1a680e708b1525a906020016109fc565b610e577fd67ad422505496469a1adf6cdf9e5ee92ac5d33992843c9ecc4b2f6d6cde913733610ad3565b80610efe575060fb54604051632474521560e21b81527fd67ad422505496469a1adf6cdf9e5ee92ac5d33992843c9ecc4b2f6d6cde913760048201523360248201526001600160a01b03909116906391d148549060440160206040518083038186803b158015610ec657600080fd5b505afa158015610eda573d6000803e3d6000fd5b505050506040513d601f19601f82011682018060405250810190610efe91906121b1565b6109b35760405162461bcd60e51b815260206004820152602260248201527f5265737472696374656420746f20504f5254464f4c494f5f4147454e545f524f6044820152614c4560f01b6064820152608401610632565b600082815260656020526040902060010154610f708161138e565b6105c1838361141e565b6000610f946000805160206125e483398151915233610ad3565b610fb05760405162461bcd60e51b81526004016106329061235e565b5060005b919050565b6000610fd36000805160206125e483398151915233610ad3565b610fef5760405162461bcd60e51b81526004016106329061235e565b600061102d306001600160a01b031663a3673b386040518163ffffffff1660e01b815260040160206040518083038186803b158015610c7857600080fd5b9050600080841561104c575060006110458887611861565b91506110bb565b611057888888611aa0565b9150868210156110bb5760405162461bcd60e51b815260206004820152602960248201527f52657475726e65642076616c7565206c657373207468616e2072657175657374604482015268195908185b5bdd5b9d60ba1b6064820152608401610632565b82306001600160a01b031663a3673b386040518163ffffffff1660e01b815260040160206040518083038186803b1580156110f557600080fd5b505afa158015611109573d6000803e3d6000fd5b505050506040513d601f19601f8201168201806040525081019061112d91906121e7565b101561117b5760405162461bcd60e51b815260206004820152601f60248201527f5374726174656779204e4156206c657373207468616e206578706563746564006044820152606401610632565b60405163a9059cbb60e01b81526001600160a01b0387811660048301526024820184905289169063a9059cbb90604401602060405180830381600087803b1580156111c557600080fd5b505af11580156111d9573d6000803e3d6000fd5b505050506040513d601f19601f820116820180604052508101906111fd91906121b1565b5060408051888152602081018490527f9045c2ac9b2026de8075f2701bbdde882cd5e830b3b1ead9a15b22f2b5b93742910160405180910390a18015611271576040518181527f3ac0594a85a20354f9dc74f33728416d19ce00d04a406c108cc2dcf2cecea1349060200160405180910390a15b509695505050505050565b6001600160a01b03163b151590565b61012e546040516370a0823160e01b81523060048201526000916001600160a01b0316906370a082319060240160206040518083038186803b1580156112d057600080fd5b505afa1580156112e4573d6000803e3d6000fd5b505050506040513d601f19601f8201168201806040525081019061130891906121e7565b61012d546040516370a0823160e01b81523060048201526001600160a01b03909116906370a082319060240160206040518083038186803b15801561134c57600080fd5b505afa158015611360573d6000803e3d6000fd5b505050506040513d601f19601f8201168201806040525081019061138491906121e7565b61059791906124e0565b6107268133611ba3565b6113a28282610ad3565b6106455760008281526065602090815260408083206001600160a01b03851684529091529020805460ff191660011790556113da3390565b6001600160a01b0316816001600160a01b0316837f2f8788117e7eff1d82e926ec794901d17c78024a50270940304540a733656f0d60405160405180910390a45050565b6114288282610ad3565b156106455760008281526065602090815260408083206001600160a01b0385168085529252808320805460ff1916905551339285917ff6391f5c32d9c69d2a47ea670b442974b53935d1edc7fd64eb21e047a839171b9190a45050565b60006106458161138e565b7f4910fdfa16fed3260ed0e7147f7cc6da11a60208b5b9406d12a635614ffd91435460ff16156114c3576105c183611c07565b826001600160a01b03166352d1902d6040518163ffffffff1660e01b815260040160206040518083038186803b1580156114fc57600080fd5b505afa92505050801561152c575060408051601f3d908101601f19168201909252611529918101906121e7565b60015b61158f5760405162461bcd60e51b815260206004820152602e60248201527f45524331393637557067726164653a206e657720696d706c656d656e7461746960448201526d6f6e206973206e6f74205555505360901b6064820152608401610632565b60008051602061260483398151915281146115fe5760405162461bcd60e51b815260206004820152602960248201527f45524331393637557067726164653a20756e737570706f727465642070726f786044820152681a58589b195555525160ba1b6064820152608401610632565b506105c1838383611ca3565b600054610100900460ff161580801561162a5750600054600160ff909116105b806116445750303b158015611644575060005460ff166001145b6116605760405162461bcd60e51b81526004016106329061242d565b6000805460ff191660011790558015611683576000805461ff0019166101001790555b61168b611cce565b611693611cce565b61169e600033611398565b601460fc81905560fd55600460fe558015610726576000805461ff0019169055604051600181527f7f26b83ff96e1f2b6a682f133852f6798a09c465da95921460cefb384740249890602001610ac8565b60006127106116fe8382612539565b611708908561251a565b61171291906124f8565b9392505050565b61012d546001600160a01b038381169116146117475760405162461bcd60e51b8152600401610632906124a9565b61012d5461012f5460405163095ea7b360e01b81526001600160a01b0391821660048201526024810184905291169063095ea7b390604401602060405180830381600087803b15801561179957600080fd5b505af11580156117ad573d6000803e3d6000fd5b505050506040513d601f19601f820116820180604052508101906117d191906121b1565b5061012f54604080516316fb876360e31b8152600481018490526024810191909152600060448201526001600160a01b039091169063b7dc3b1890606401602060405180830381600087803b15801561182957600080fd5b505af115801561183d573d6000803e3d6000fd5b505050506040513d601f19601f820116820180604052508101906105c191906121e7565b61012d546000906001600160a01b038481169116146118925760405162461bcd60e51b8152600401610632906124a9565b61012e546040516370a0823160e01b81523060048201526000916001600160a01b0316906370a082319060240160206040518083038186803b1580156118d757600080fd5b505afa1580156118eb573d6000803e3d6000fd5b505050506040513d601f19601f8201168201806040525081019061190f91906121e7565b61012e5461012f5460405163095ea7b360e01b81526001600160a01b03918216600482015260248101849052929350169063095ea7b390604401602060405180830381600087803b15801561196357600080fd5b505af1158015611977573d6000803e3d6000fd5b505050506040513d601f19601f8201168201806040525081019061199b91906121b1565b5061012f5460405163db006a7560e01b8152600481018390526001600160a01b039091169063db006a7590602401602060405180830381600087803b1580156119e357600080fd5b505af11580156119f7573d6000803e3d6000fd5b505050506040513d601f19601f82011682018060405250810190611a1b91906121e7565b5061012d546040516370a0823160e01b81523060048201526001600160a01b03909116906370a082319060240160206040518083038186803b158015611a6057600080fd5b505afa158015611a74573d6000803e3d6000fd5b505050506040513d601f19601f82011682018060405250810190611a9891906121e7565b949350505050565b61012d546000906001600160a01b03858116911614611ad15760405162461bcd60e51b8152600401610632906124a9565b61012e5461012f5460405163095ea7b360e01b81526001600160a01b0391821660048201526024810186905291169063095ea7b390604401602060405180830381600087803b158015611b2357600080fd5b505af1158015611b37573d6000803e3d6000fd5b505050506040513d601f19601f82011682018060405250810190611b5b91906121b1565b5061012f5460405163db006a7560e01b8152600481018590526001600160a01b039091169063db006a7590602401602060405180830381600087803b1580156119e357600080fd5b611bad8282610ad3565b61064557611bc5816001600160a01b03166014611d3b565b611bd0836020611d3b565b604051602001611be19291906122b6565b60408051601f198184030181529082905262461bcd60e51b82526106329160040161232b565b6001600160a01b0381163b611c745760405162461bcd60e51b815260206004820152602d60248201527f455243313936373a206e657720696d706c656d656e746174696f6e206973206e60448201526c1bdd08184818dbdb9d1c9858dd609a1b6064820152608401610632565b60008051602061260483398151915280546001600160a01b0319166001600160a01b0392909216919091179055565b611cac83611ed7565b600082511180611cb95750805b156105c157611cc88383611f17565b50505050565b600054610100900460ff16611d395760405162461bcd60e51b815260206004820152602b60248201527f496e697469616c697a61626c653a20636f6e7472616374206973206e6f74206960448201526a6e697469616c697a696e6760a81b6064820152608401610632565b565b60606000611d4a83600261251a565b611d559060026124e0565b67ffffffffffffffff811115611d6d57611d6d6125bf565b6040519080825280601f01601f191660200182016040528015611d97576020820181803683370190505b509050600360fc1b81600081518110611db257611db26125a9565b60200101906001600160f81b031916908160001a905350600f60fb1b81600181518110611de157611de16125a9565b60200101906001600160f81b031916908160001a9053506000611e0584600261251a565b611e109060016124e0565b90505b6001811115611e88576f181899199a1a9b1b9c1cb0b131b232b360811b85600f1660108110611e4457611e446125a9565b1a60f81b828281518110611e5a57611e5a6125a9565b60200101906001600160f81b031916908160001a90535060049490941c93611e818161257c565b9050611e13565b5083156117125760405162461bcd60e51b815260206004820181905260248201527f537472696e67733a20686578206c656e67746820696e73756666696369656e746044820152606401610632565b611ee081611c07565b6040516001600160a01b038216907fbc7cd75a20ee27fd9adebab32041f755214dbc6bffa90cc0225b39da2e5c2d3b90600090a250565b60606001600160a01b0383163b611f7f5760405162461bcd60e51b815260206004820152602660248201527f416464726573733a2064656c65676174652063616c6c20746f206e6f6e2d636f6044820152651b9d1c9858dd60d21b6064820152608401610632565b600080846001600160a01b031684604051611f9a919061229a565b600060405180830381855af49150503d8060008114611fd5576040519150601f19603f3d011682016040523d82523d6000602084013e611fda565b606091505b509150915061200282826040518060600160405280602781526020016126246027913961200b565b95945050505050565b6060831561201a575081611712565b82511561202a5782518084602001fd5b8160405162461bcd60e51b8152600401610632919061232b565b80356001600160a01b0381168114610fb457600080fd5b60006020828403121561206d57600080fd5b61171282612044565b6000806040838503121561208957600080fd5b61209283612044565b9150602083013567ffffffffffffffff808211156120af57600080fd5b818501915085601f8301126120c357600080fd5b8135818111156120d5576120d56125bf565b604051601f8201601f19908116603f011681019083821181831017156120fd576120fd6125bf565b8160405282815288602084870101111561211657600080fd5b8260208601602083013760006020848301015280955050505050509250929050565b6000806040838503121561214b57600080fd5b61215483612044565b946020939093013593505050565b6000806000806080858703121561217857600080fd5b61218185612044565b93506020850135925061219660408601612044565b915060608501356121a6816125d5565b939692955090935050565b6000602082840312156121c357600080fd5b8151611712816125d5565b6000602082840312156121e057600080fd5b5035919050565b6000602082840312156121f957600080fd5b5051919050565b6000806040838503121561221357600080fd5b8235915061222360208401612044565b90509250929050565b60006020828403121561223e57600080fd5b81356001600160e01b03198116811461171257600080fd5b60006060828403121561226857600080fd5b50919050565b60008060006060848603121561228357600080fd5b505081359360208301359350604090920135919050565b600082516122ac818460208701612550565b9190910192915050565b7f416363657373436f6e74726f6c3a206163636f756e74200000000000000000008152600083516122ee816017850160208801612550565b7001034b99036b4b9b9b4b733903937b6329607d1b601791840191820152835161231f816028840160208801612550565b01602801949350505050565b602081526000825180602084015261234a816040850160208701612550565b601f01601f19169190910160400192915050565b6020808252601f908201527f5265737472696374656420746f20504f5254464f4c494f5f4d414e4147455200604082015260600190565b6020808252602c908201527f46756e6374696f6e206d7573742062652063616c6c6564207468726f7567682060408201526b19195b1959d85d1958d85b1b60a21b606082015260800190565b6020808252602c908201527f46756e6374696f6e206d7573742062652063616c6c6564207468726f7567682060408201526b6163746976652070726f787960a01b606082015260800190565b6020808252602e908201527f496e697469616c697a61626c653a20636f6e747261637420697320616c72656160408201526d191e481a5b9a5d1a585b1a5e995960921b606082015260800190565b6020808252601490820152735265737472696374656420746f2061646d696e7360601b604082015260600190565b60208082526019908201527f536f6d6520746f6b656e206e6f7420636f6d70617469626c6500000000000000604082015260600190565b600082198211156124f3576124f3612593565b500190565b60008261251557634e487b7160e01b600052601260045260246000fd5b500490565b600081600019048311821515161561253457612534612593565b500290565b60008282101561254b5761254b612593565b500390565b60005b8381101561256b578181015183820152602001612553565b83811115611cc85750506000910152565b60008161258b5761258b612593565b506000190190565b634e487b7160e01b600052601160045260246000fd5b634e487b7160e01b600052603260045260246000fd5b634e487b7160e01b600052604160045260246000fd5b801515811461072657600080fdfe90c2aa7471c04182221f68e80c07ab1e5946e4c63f8693e14ca40385d529f051360894a13ba1a3210667c828492db98dca3e2076cc3735a920a3ca505d382bbc416464726573733a206c6f772d6c6576656c2064656c65676174652063616c6c206661696c6564a264697066735822122005215b4e23971142d3ebdbb35af8c426b93299449e9f513c2288f3aa7af24d3c64736f6c63430008060033",
  "implementation": "0x4Cf9f9075225591F2a4A8C024bd6F3C2B8D7fe11",
  "devdoc": {
    "kind": "dev",
    "methods": {
      "constructor": {
        "custom:oz-upgrades-unsafe-allow": "constructor"
      },
      "getRoleAdmin(bytes32)": {
        "details": "Returns the admin role that controls `role`. See {grantRole} and {revokeRole}. To change a role's admin, use {_setRoleAdmin}."
      },
      "grantRole(bytes32,address)": {
        "details": "Grants `role` to `account`. If `account` had not been already granted `role`, emits a {RoleGranted} event. Requirements: - the caller must have ``role``'s admin role. May emit a {RoleGranted} event."
      },
      "hasRole(bytes32,address)": {
        "details": "Returns `true` if `account` has been granted `role`."
      },
      "proxiableUUID()": {
        "details": "Implementation of the ERC1822 {proxiableUUID} function. This returns the storage slot used by the implementation. It is used to validate that the this implementation remains valid after an upgrade. IMPORTANT: A proxy pointing at a proxiable contract should not be considered proxiable itself, because this risks bricking a proxy that upgrades to it, by delegating to itself until out of gas. Thus it is critical that this function revert if invoked through a proxy. This is guaranteed by the `notDelegated` modifier."
      },
      "renounceRole(bytes32,address)": {
        "details": "Revokes `role` from the calling account. Roles are often managed via {grantRole} and {revokeRole}: this function's purpose is to provide a mechanism for accounts to lose their privileges if they are compromised (such as when a trusted device is misplaced). If the calling account had been revoked `role`, emits a {RoleRevoked} event. Requirements: - the caller must be `account`. May emit a {RoleRevoked} event."
      },
      "revokeRole(bytes32,address)": {
        "details": "Revokes `role` from `account`. If `account` had been granted `role`, emits a {RoleRevoked} event. Requirements: - the caller must have ``role``'s admin role. May emit a {RoleRevoked} event."
      },
      "supportsInterface(bytes4)": {
        "details": "See {IERC165-supportsInterface}."
      },
      "upgradeTo(address)": {
        "details": "Upgrade the implementation of the proxy to `newImplementation`. Calls {_authorizeUpgrade}. Emits an {Upgraded} event."
      },
      "upgradeToAndCall(address,bytes)": {
        "details": "Upgrade the implementation of the proxy to `newImplementation`, and subsequently execute the function call encoded in `data`. Calls {_authorizeUpgrade}. Emits an {Upgraded} event."
      }
    },
    "version": 1
  },
  "userdoc": {
    "kind": "user",
    "methods": {},
    "version": 1
  },
  "storageLayout": {
    "storage": [
      {
        "astId": 808,
        "contract": "contracts/StrategyEts.sol:StrategyEts",
        "label": "_initialized",
        "offset": 0,
        "slot": "0",
        "type": "t_uint8"
      },
      {
        "astId": 811,
        "contract": "contracts/StrategyEts.sol:StrategyEts",
        "label": "_initializing",
        "offset": 1,
        "slot": "0",
        "type": "t_bool"
      },
      {
        "astId": 1372,
        "contract": "contracts/StrategyEts.sol:StrategyEts",
        "label": "__gap",
        "offset": 0,
        "slot": "1",
        "type": "t_array(t_uint256)50_storage"
      },
      {
        "astId": 1702,
        "contract": "contracts/StrategyEts.sol:StrategyEts",
        "label": "__gap",
        "offset": 0,
        "slot": "51",
        "type": "t_array(t_uint256)50_storage"
      },
      {
        "astId": 39,
        "contract": "contracts/StrategyEts.sol:StrategyEts",
        "label": "_roles",
        "offset": 0,
        "slot": "101",
        "type": "t_mapping(t_bytes32,t_struct(RoleData)34_storage)"
      },
      {
        "astId": 338,
        "contract": "contracts/StrategyEts.sol:StrategyEts",
        "label": "__gap",
        "offset": 0,
        "slot": "102",
        "type": "t_array(t_uint256)49_storage"
      },
      {
        "astId": 790,
        "contract": "contracts/StrategyEts.sol:StrategyEts",
        "label": "__gap",
        "offset": 0,
        "slot": "151",
        "type": "t_array(t_uint256)50_storage"
      },
      {
        "astId": 1087,
        "contract": "contracts/StrategyEts.sol:StrategyEts",
        "label": "__gap",
        "offset": 0,
        "slot": "201",
        "type": "t_array(t_uint256)50_storage"
      },
      {
        "astId": 12719,
        "contract": "contracts/StrategyEts.sol:StrategyEts",
        "label": "portfolioManager",
        "offset": 0,
        "slot": "251",
        "type": "t_address"
      },
      {
        "astId": 12721,
        "contract": "contracts/StrategyEts.sol:StrategyEts",
        "label": "swapSlippageBP",
        "offset": 0,
        "slot": "252",
        "type": "t_uint256"
      },
      {
        "astId": 12723,
        "contract": "contracts/StrategyEts.sol:StrategyEts",
        "label": "navSlippageBP",
        "offset": 0,
        "slot": "253",
        "type": "t_uint256"
      },
      {
        "astId": 12725,
        "contract": "contracts/StrategyEts.sol:StrategyEts",
        "label": "stakeSlippageBP",
        "offset": 0,
        "slot": "254",
        "type": "t_uint256"
      },
      {
        "astId": 13140,
        "contract": "contracts/StrategyEts.sol:StrategyEts",
        "label": "__gap",
        "offset": 0,
        "slot": "255",
        "type": "t_array(t_uint256)46_storage"
      },
      {
        "astId": 17336,
        "contract": "contracts/StrategyEts.sol:StrategyEts",
        "label": "asset",
        "offset": 0,
        "slot": "301",
        "type": "t_contract(IERC20)2379"
      },
      {
        "astId": 17339,
        "contract": "contracts/StrategyEts.sol:StrategyEts",
        "label": "rebaseToken",
        "offset": 0,
        "slot": "302",
        "type": "t_contract(IERC20)2379"
      },
      {
        "astId": 17342,
        "contract": "contracts/StrategyEts.sol:StrategyEts",
        "label": "hedgeExchanger",
        "offset": 0,
        "slot": "303",
        "type": "t_contract(IHedgeExchanger)13238"
      }
    ],
    "types": {
      "t_address": {
        "encoding": "inplace",
        "label": "address",
        "numberOfBytes": "20"
      },
      "t_array(t_uint256)46_storage": {
        "base": "t_uint256",
        "encoding": "inplace",
        "label": "uint256[46]",
        "numberOfBytes": "1472"
      },
      "t_array(t_uint256)49_storage": {
        "base": "t_uint256",
        "encoding": "inplace",
        "label": "uint256[49]",
        "numberOfBytes": "1568"
      },
      "t_array(t_uint256)50_storage": {
        "base": "t_uint256",
        "encoding": "inplace",
        "label": "uint256[50]",
        "numberOfBytes": "1600"
      },
      "t_bool": {
        "encoding": "inplace",
        "label": "bool",
        "numberOfBytes": "1"
      },
      "t_bytes32": {
        "encoding": "inplace",
        "label": "bytes32",
        "numberOfBytes": "32"
      },
      "t_contract(IERC20)2379": {
        "encoding": "inplace",
        "label": "contract IERC20",
        "numberOfBytes": "20"
      },
      "t_contract(IHedgeExchanger)13238": {
        "encoding": "inplace",
        "label": "contract IHedgeExchanger",
        "numberOfBytes": "20"
      },
      "t_mapping(t_address,t_bool)": {
        "encoding": "mapping",
        "key": "t_address",
        "label": "mapping(address => bool)",
        "numberOfBytes": "32",
        "value": "t_bool"
      },
      "t_mapping(t_bytes32,t_struct(RoleData)34_storage)": {
        "encoding": "mapping",
        "key": "t_bytes32",
        "label": "mapping(bytes32 => struct AccessControlUpgradeable.RoleData)",
        "numberOfBytes": "32",
        "value": "t_struct(RoleData)34_storage"
      },
      "t_struct(RoleData)34_storage": {
        "encoding": "inplace",
        "label": "struct AccessControlUpgradeable.RoleData",
        "members": [
          {
            "astId": 31,
            "contract": "contracts/StrategyEts.sol:StrategyEts",
            "label": "members",
            "offset": 0,
            "slot": "0",
            "type": "t_mapping(t_address,t_bool)"
          },
          {
            "astId": 33,
            "contract": "contracts/StrategyEts.sol:StrategyEts",
            "label": "adminRole",
            "offset": 0,
            "slot": "1",
            "type": "t_bytes32"
          }
        ],
        "numberOfBytes": "64"
      },
      "t_uint256": {
        "encoding": "inplace",
        "label": "uint256",
        "numberOfBytes": "32"
      },
      "t_uint8": {
        "encoding": "inplace",
        "label": "uint8",
        "numberOfBytes": "1"
      }
    }
  }
}