{
  "address": "0x1a8bf92aBe1De4bDbf5fB8AF223ec5feDcefFB76",
  "abi": [
    {
      "inputs": [],
      "stateMutability": "nonpayable",
      "type": "constructor"
    },
    {
      "anonymous": false,
      "inputs": [
        {
          "indexed": false,
          "internalType": "address",
          "name": "previousAdmin",
          "type": "address"
        },
        {
          "indexed": false,
          "internalType": "address",
          "name": "newAdmin",
          "type": "address"
        }
      ],
      "name": "AdminChanged",
      "type": "event"
    },
    {
      "anonymous": false,
      "inputs": [
        {
          "indexed": true,
          "internalType": "address",
          "name": "beacon",
          "type": "address"
        }
      ],
      "name": "BeaconUpgraded",
      "type": "event"
    },
    {
      "anonymous": false,
      "inputs": [
        {
          "indexed": false,
          "internalType": "uint8",
          "name": "version",
          "type": "uint8"
        }
      ],
      "name": "Initialized",
      "type": "event"
    },
    {
      "anonymous": false,
      "inputs": [
        {
          "indexed": false,
          "internalType": "address",
          "name": "value",
          "type": "address"
        }
      ],
      "name": "PortfolioManagerUpdated",
      "type": "event"
    },
    {
      "anonymous": false,
      "inputs": [
        {
          "indexed": false,
          "internalType": "uint256",
          "name": "amount",
          "type": "uint256"
        }
      ],
      "name": "Reward",
      "type": "event"
    },
    {
      "anonymous": false,
      "inputs": [
        {
          "indexed": true,
          "internalType": "bytes32",
          "name": "role",
          "type": "bytes32"
        },
        {
          "indexed": true,
          "internalType": "bytes32",
          "name": "previousAdminRole",
          "type": "bytes32"
        },
        {
          "indexed": true,
          "internalType": "bytes32",
          "name": "newAdminRole",
          "type": "bytes32"
        }
      ],
      "name": "RoleAdminChanged",
      "type": "event"
    },
    {
      "anonymous": false,
      "inputs": [
        {
          "indexed": true,
          "internalType": "bytes32",
          "name": "role",
          "type": "bytes32"
        },
        {
          "indexed": true,
          "internalType": "address",
          "name": "account",
          "type": "address"
        },
        {
          "indexed": true,
          "internalType": "address",
          "name": "sender",
          "type": "address"
        }
      ],
      "name": "RoleGranted",
      "type": "event"
    },
    {
      "anonymous": false,
      "inputs": [
        {
          "indexed": true,
          "internalType": "bytes32",
          "name": "role",
          "type": "bytes32"
        },
        {
          "indexed": true,
          "internalType": "address",
          "name": "account",
          "type": "address"
        },
        {
          "indexed": true,
          "internalType": "address",
          "name": "sender",
          "type": "address"
        }
      ],
      "name": "RoleRevoked",
      "type": "event"
    },
    {
      "anonymous": false,
      "inputs": [
        {
          "indexed": false,
          "internalType": "uint256",
          "name": "swapSlippageBP",
          "type": "uint256"
        },
        {
          "indexed": false,
          "internalType": "uint256",
          "name": "navSlippageBP",
          "type": "uint256"
        },
        {
          "indexed": false,
          "internalType": "uint256",
          "name": "stakeSlippageBP",
          "type": "uint256"
        }
      ],
      "name": "SlippagesUpdated",
      "type": "event"
    },
    {
      "anonymous": false,
      "inputs": [
        {
          "indexed": false,
          "internalType": "uint256",
          "name": "amount",
          "type": "uint256"
        }
      ],
      "name": "Stake",
      "type": "event"
    },
    {
      "anonymous": false,
      "inputs": [],
      "name": "StrategyUpdatedParams",
      "type": "event"
    },
    {
      "anonymous": false,
      "inputs": [
        {
          "indexed": false,
          "internalType": "uint256",
          "name": "amount",
          "type": "uint256"
        },
        {
          "indexed": false,
          "internalType": "uint256",
          "name": "amountReceived",
          "type": "uint256"
        }
      ],
      "name": "Unstake",
      "type": "event"
    },
    {
      "anonymous": false,
      "inputs": [
        {
          "indexed": true,
          "internalType": "address",
          "name": "implementation",
          "type": "address"
        }
      ],
      "name": "Upgraded",
      "type": "event"
    },
    {
      "inputs": [],
      "name": "DEFAULT_ADMIN_ROLE",
      "outputs": [
        {
          "internalType": "bytes32",
          "name": "",
          "type": "bytes32"
        }
      ],
      "stateMutability": "view",
      "type": "function"
    },
    {
      "inputs": [],
      "name": "PORTFOLIO_AGENT_ROLE",
      "outputs": [
        {
          "internalType": "bytes32",
          "name": "",
          "type": "bytes32"
        }
      ],
      "stateMutability": "view",
      "type": "function"
    },
    {
      "inputs": [],
      "name": "PORTFOLIO_MANAGER",
      "outputs": [
        {
          "internalType": "bytes32",
          "name": "",
          "type": "bytes32"
        }
      ],
      "stateMutability": "view",
      "type": "function"
    },
    {
      "inputs": [],
      "name": "aUsdcToken",
      "outputs": [
        {
          "internalType": "contract IERC20",
          "name": "",
          "type": "address"
        }
      ],
      "stateMutability": "view",
      "type": "function"
    },
    {
      "inputs": [],
      "name": "aaveProvider",
      "outputs": [
        {
          "internalType": "contract IPoolAddressesProvider",
          "name": "",
          "type": "address"
        }
      ],
      "stateMutability": "view",
      "type": "function"
    },
    {
      "inputs": [
        {
          "internalType": "address",
          "name": "_to",
          "type": "address"
        }
      ],
      "name": "claimRewards",
      "outputs": [
        {
          "internalType": "uint256",
          "name": "",
          "type": "uint256"
        }
      ],
      "stateMutability": "nonpayable",
      "type": "function"
    },
    {
      "inputs": [
        {
          "internalType": "bytes32",
          "name": "role",
          "type": "bytes32"
        }
      ],
      "name": "getRoleAdmin",
      "outputs": [
        {
          "internalType": "bytes32",
          "name": "",
          "type": "bytes32"
        }
      ],
      "stateMutability": "view",
      "type": "function"
    },
    {
      "inputs": [
        {
          "internalType": "bytes32",
          "name": "role",
          "type": "bytes32"
        },
        {
          "internalType": "address",
          "name": "account",
          "type": "address"
        }
      ],
      "name": "grantRole",
      "outputs": [],
      "stateMutability": "nonpayable",
      "type": "function"
    },
    {
      "inputs": [
        {
          "internalType": "bytes32",
          "name": "role",
          "type": "bytes32"
        },
        {
          "internalType": "address",
          "name": "account",
          "type": "address"
        }
      ],
      "name": "hasRole",
      "outputs": [
        {
          "internalType": "bool",
          "name": "",
          "type": "bool"
        }
      ],
      "stateMutability": "view",
      "type": "function"
    },
    {
      "inputs": [],
      "name": "initialize",
      "outputs": [],
      "stateMutability": "nonpayable",
      "type": "function"
    },
    {
      "inputs": [],
      "name": "liquidationValue",
      "outputs": [
        {
          "internalType": "uint256",
          "name": "",
          "type": "uint256"
        }
      ],
      "stateMutability": "view",
      "type": "function"
    },
    {
      "inputs": [],
      "name": "navSlippageBP",
      "outputs": [
        {
          "internalType": "uint256",
          "name": "",
          "type": "uint256"
        }
      ],
      "stateMutability": "view",
      "type": "function"
    },
    {
      "inputs": [],
      "name": "netAssetValue",
      "outputs": [
        {
          "internalType": "uint256",
          "name": "",
          "type": "uint256"
        }
      ],
      "stateMutability": "view",
      "type": "function"
    },
    {
      "inputs": [],
      "name": "opToken",
      "outputs": [
        {
          "internalType": "contract IERC20",
          "name": "",
          "type": "address"
        }
      ],
      "stateMutability": "view",
      "type": "function"
    },
    {
      "inputs": [],
      "name": "poolFee",
      "outputs": [
        {
          "internalType": "uint24",
          "name": "",
          "type": "uint24"
        }
      ],
      "stateMutability": "view",
      "type": "function"
    },
    {
      "inputs": [],
      "name": "portfolioManager",
      "outputs": [
        {
          "internalType": "address",
          "name": "",
          "type": "address"
        }
      ],
      "stateMutability": "view",
      "type": "function"
    },
    {
      "inputs": [],
      "name": "proxiableUUID",
      "outputs": [
        {
          "internalType": "bytes32",
          "name": "",
          "type": "bytes32"
        }
      ],
      "stateMutability": "view",
      "type": "function"
    },
    {
      "inputs": [
        {
          "internalType": "bytes32",
          "name": "role",
          "type": "bytes32"
        },
        {
          "internalType": "address",
          "name": "account",
          "type": "address"
        }
      ],
      "name": "renounceRole",
      "outputs": [],
      "stateMutability": "nonpayable",
      "type": "function"
    },
    {
      "inputs": [
        {
          "internalType": "bytes32",
          "name": "role",
          "type": "bytes32"
        },
        {
          "internalType": "address",
          "name": "account",
          "type": "address"
        }
      ],
      "name": "revokeRole",
      "outputs": [],
      "stateMutability": "nonpayable",
      "type": "function"
    },
    {
      "inputs": [],
      "name": "rewardsController",
      "outputs": [
        {
          "internalType": "contract IRewardsController",
          "name": "",
          "type": "address"
        }
      ],
      "stateMutability": "view",
      "type": "function"
    },
    {
      "inputs": [],
      "name": "roleManager",
      "outputs": [
        {
          "internalType": "contract IRoleManager",
          "name": "",
          "type": "address"
        }
      ],
      "stateMutability": "view",
      "type": "function"
    },
    {
      "inputs": [
        {
          "components": [
            {
              "internalType": "address",
              "name": "usdc",
              "type": "address"
            },
            {
              "internalType": "address",
              "name": "aUsdc",
              "type": "address"
            },
            {
              "internalType": "address",
              "name": "aaveProvider",
              "type": "address"
            },
            {
              "internalType": "address",
              "name": "rewardsController",
              "type": "address"
            },
            {
              "internalType": "address",
              "name": "uniswapV3Router",
              "type": "address"
            },
            {
              "internalType": "address",
              "name": "op",
              "type": "address"
            },
            {
              "internalType": "uint24",
              "name": "poolFee",
              "type": "uint24"
            }
          ],
          "internalType": "struct StrategyAave.StrategyParams",
          "name": "params",
          "type": "tuple"
        }
      ],
      "name": "setParams",
      "outputs": [],
      "stateMutability": "nonpayable",
      "type": "function"
    },
    {
      "inputs": [
        {
          "internalType": "uint256",
          "name": "_swapSlippageBP",
          "type": "uint256"
        },
        {
          "internalType": "uint256",
          "name": "_navSlippageBP",
          "type": "uint256"
        },
        {
          "internalType": "uint256",
          "name": "_stakeSlippageBP",
          "type": "uint256"
        }
      ],
      "name": "setSlippages",
      "outputs": [],
      "stateMutability": "nonpayable",
      "type": "function"
    },
    {
      "inputs": [
        {
          "internalType": "address",
          "name": "_portfolioManager",
          "type": "address"
        },
        {
          "internalType": "address",
          "name": "_roleManager",
          "type": "address"
        }
      ],
      "name": "setStrategyParams",
      "outputs": [],
      "stateMutability": "nonpayable",
      "type": "function"
    },
    {
      "inputs": [
        {
          "internalType": "address",
          "name": "_asset",
          "type": "address"
        },
        {
          "internalType": "uint256",
          "name": "_amount",
          "type": "uint256"
        }
      ],
      "name": "stake",
      "outputs": [],
      "stateMutability": "nonpayable",
      "type": "function"
    },
    {
      "inputs": [],
      "name": "stakeAll",
      "outputs": [],
      "stateMutability": "nonpayable",
      "type": "function"
    },
    {
      "inputs": [],
      "name": "stakeSlippageBP",
      "outputs": [
        {
          "internalType": "uint256",
          "name": "",
          "type": "uint256"
        }
      ],
      "stateMutability": "view",
      "type": "function"
    },
    {
      "inputs": [
        {
          "internalType": "bytes4",
          "name": "interfaceId",
          "type": "bytes4"
        }
      ],
      "name": "supportsInterface",
      "outputs": [
        {
          "internalType": "bool",
          "name": "",
          "type": "bool"
        }
      ],
      "stateMutability": "view",
      "type": "function"
    },
    {
      "inputs": [],
      "name": "swapSlippageBP",
      "outputs": [
        {
          "internalType": "uint256",
          "name": "",
          "type": "uint256"
        }
      ],
      "stateMutability": "view",
      "type": "function"
    },
    {
      "inputs": [],
      "name": "uniswapV3Router",
      "outputs": [
        {
          "internalType": "contract ISwapRouter",
          "name": "",
          "type": "address"
        }
      ],
      "stateMutability": "view",
      "type": "function"
    },
    {
      "inputs": [
        {
          "internalType": "address",
          "name": "_asset",
          "type": "address"
        },
        {
          "internalType": "uint256",
          "name": "_amount",
          "type": "uint256"
        },
        {
          "internalType": "address",
          "name": "_beneficiary",
          "type": "address"
        },
        {
          "internalType": "bool",
          "name": "_targetIsZero",
          "type": "bool"
        }
      ],
      "name": "unstake",
      "outputs": [
        {
          "internalType": "uint256",
          "name": "",
          "type": "uint256"
        }
      ],
      "stateMutability": "nonpayable",
      "type": "function"
    },
    {
      "inputs": [
        {
          "internalType": "address",
          "name": "newImplementation",
          "type": "address"
        }
      ],
      "name": "upgradeTo",
      "outputs": [],
      "stateMutability": "nonpayable",
      "type": "function"
    },
    {
      "inputs": [
        {
          "internalType": "address",
          "name": "newImplementation",
          "type": "address"
        },
        {
          "internalType": "bytes",
          "name": "data",
          "type": "bytes"
        }
      ],
      "name": "upgradeToAndCall",
      "outputs": [],
      "stateMutability": "payable",
      "type": "function"
    },
    {
      "inputs": [],
      "name": "usdcSwap",
      "outputs": [],
      "stateMutability": "nonpayable",
      "type": "function"
    },
    {
      "inputs": [],
      "name": "usdcToken",
      "outputs": [
        {
          "internalType": "contract IERC20",
          "name": "",
          "type": "address"
        }
      ],
      "stateMutability": "view",
      "type": "function"
    }
  ],
  "numDeployments": 13,
  "solcInputHash": "abaaddda81f847e81107a8e9c40bb3ac",
  "bytecode": "0x60a0604052306080523480156200001557600080fd5b50600054610100900460ff1615808015620000375750600054600160ff909116105b8062000067575062000054306200014160201b620016821760201c565b15801562000067575060005460ff166001145b620000cf5760405162461bcd60e51b815260206004820152602e60248201527f496e697469616c697a61626c653a20636f6e747261637420697320616c72656160448201526d191e481a5b9a5d1a585b1a5e995960921b606482015260840160405180910390fd5b6000805460ff191660011790558015620000f3576000805461ff0019166101001790555b80156200013a576000805461ff0019169055604051600181527f7f26b83ff96e1f2b6a682f133852f6798a09c465da95921460cefb38474024989060200160405180910390a15b5062000150565b6001600160a01b03163b151590565b60805161303d620001886000396000818161084601528181610886015281816109250152818161096501526109f4015261303d6000f3fe6080604052600436106102035760003560e01c8063620b75df11610118578063a3673b38116100a0578063cc3d6cf71161006f578063cc3d6cf7146105cd578063d547741f146105ee578063ef5cfb8c1461060e578063f6efefd81461062e578063f6f6b8811461064e57600080fd5b8063a3673b3814610322578063adc9772e14610577578063ae30c11014610597578063bf52e080146105b757600080fd5b80638129fc1c116100e75780638129fc1c146104f757806387429a9c1461050c5780638dcb40611461052d57806391d1485414610542578063a217fddf1461056257600080fd5b8063620b75df1461046d5780636bb65f531461048d5780637c634622146104ae5780637d5f5802146104c357600080fd5b80632f2ff15d1161019b5780634f1ef2861161016a5780634f1ef286146103db57806352d1902d146103ee5780635ca558f8146104035780635dbd733a1461041957806360e45b041461044d57600080fd5b80632f2ff15d1461035857806336568abe1461037a5780633659cfe61461039a5780633a89df44146103ba57600080fd5b806311eac855116101d757806311eac855146102d1578063248a9ca3146102f25780632576e65a146103225780632c76d7a61461033757600080fd5b8062435da51461020857806301ffc9a714610245578063089fe6aa14610275578063119cd879146102ad575b600080fd5b34801561021457600080fd5b5060ff54610228906001600160a01b031681565b6040516001600160a01b0390911681526020015b60405180910390f35b34801561025157600080fd5b50610265610260366004612841565b61066e565b604051901515815260200161023c565b34801561028157600080fd5b506101325461029990600160a01b900462ffffff1681565b60405162ffffff909116815260200161023c565b3480156102b957600080fd5b506102c360fd5481565b60405190815260200161023c565b3480156102dd57600080fd5b5061012d54610228906001600160a01b031681565b3480156102fe57600080fd5b506102c361030d36600461286b565b60009081526065602052604090206001015490565b34801561032e57600080fd5b506102c36106a5565b34801561034357600080fd5b5061013154610228906001600160a01b031681565b34801561036457600080fd5b50610378610373366004612899565b61078f565b005b34801561038657600080fd5b50610378610395366004612899565b6107b9565b3480156103a657600080fd5b506103786103b53660046128c9565b61083c565b3480156103c657600080fd5b5061013254610228906001600160a01b031681565b6103786103e936600461292d565b61091b565b3480156103fa57600080fd5b506102c36109e7565b34801561040f57600080fd5b506102c360fe5481565b34801561042557600080fd5b506102c37fd67ad422505496469a1adf6cdf9e5ee92ac5d33992843c9ecc4b2f6d6cde913781565b34801561045957600080fd5b506103786104683660046129d5565b610a9a565b34801561047957600080fd5b5060fb54610228906001600160a01b031681565b34801561049957600080fd5b5061013054610228906001600160a01b031681565b3480156104ba57600080fd5b50610378610bb8565b3480156104cf57600080fd5b506102c37f90c2aa7471c04182221f68e80c07ab1e5946e4c63f8693e14ca40385d529f05181565b34801561050357600080fd5b50610378610d03565b34801561051857600080fd5b5061012f54610228906001600160a01b031681565b34801561053957600080fd5b50610378610dcd565b34801561054e57600080fd5b5061026561055d366004612899565b610e5a565b34801561056e57600080fd5b506102c3600081565b34801561058357600080fd5b50610378610592366004612a03565b610e85565b3480156105a357600080fd5b506103786105b2366004612a2f565b61103d565b3480156105c357600080fd5b506102c360fc5481565b3480156105d957600080fd5b5061012e54610228906001600160a01b031681565b3480156105fa57600080fd5b50610378610609366004612899565b611168565b34801561061a57600080fd5b506102c36106293660046128c9565b61118d565b34801561063a57600080fd5b50610378610649366004612a5b565b611206565b34801561065a57600080fd5b506102c3610669366004612a81565b6113d7565b60006001600160e01b03198216637965db0b60e01b148061069f57506301ffc9a760e01b6001600160e01b03198316145b92915050565b61012e546040516370a0823160e01b81523060048201526000916001600160a01b0316906370a0823190602401602060405180830381865afa1580156106ef573d6000803e3d6000fd5b505050506040513d601f19601f820116820180604052508101906107139190612ad4565b61012d546040516370a0823160e01b81523060048201526001600160a01b03909116906370a0823190602401602060405180830381865afa15801561075c573d6000803e3d6000fd5b505050506040513d601f19601f820116820180604052508101906107809190612ad4565b61078a9190612b03565b905090565b6000828152606560205260409020600101546107aa81611691565b6107b4838361169b565b505050565b6001600160a01b038116331461082e5760405162461bcd60e51b815260206004820152602f60248201527f416363657373436f6e74726f6c3a2063616e206f6e6c792072656e6f756e636560448201526e103937b632b9903337b91039b2b63360891b60648201526084015b60405180910390fd5b6108388282611721565b5050565b6001600160a01b037f00000000000000000000000000000000000000000000000000000000000000001630036108845760405162461bcd60e51b815260040161082590612b16565b7f00000000000000000000000000000000000000000000000000000000000000006001600160a01b03166108cd600080516020612fc1833981519152546001600160a01b031690565b6001600160a01b0316146108f35760405162461bcd60e51b815260040161082590612b62565b6108fc81611788565b6040805160008082526020820190925261091891839190611793565b50565b6001600160a01b037f00000000000000000000000000000000000000000000000000000000000000001630036109635760405162461bcd60e51b815260040161082590612b16565b7f00000000000000000000000000000000000000000000000000000000000000006001600160a01b03166109ac600080516020612fc1833981519152546001600160a01b031690565b6001600160a01b0316146109d25760405162461bcd60e51b815260040161082590612b62565b6109db82611788565b61083882826001611793565b6000306001600160a01b037f00000000000000000000000000000000000000000000000000000000000000001614610a875760405162461bcd60e51b815260206004820152603860248201527f555550535570677261646561626c653a206d757374206e6f742062652063616c60448201527f6c6564207468726f7567682064656c656761746563616c6c00000000000000006064820152608401610825565b50600080516020612fc183398151915290565b610aa5600033610e5a565b610ae85760405162461bcd60e51b81526020600482015260146024820152735265737472696374656420746f2061646d696e7360601b6044820152606401610825565b6001600160a01b038216610b395760405162461bcd60e51b815260206004820152601860248201527716995c9bc81859191c995cdcc81b9bdd08185b1b1bddd95960421b6044820152606401610825565b6001600160a01b038116610b8a5760405162461bcd60e51b815260206004820152601860248201527716995c9bc81859191c995cdcc81b9bdd08185b1b1bddd95960421b6044820152606401610825565b60fb80546001600160a01b039384166001600160a01b03199182161790915560ff8054929093169116179055565b737f5c764cbc14f9669b88837ca1490cca17c31607730b2c639c533813f4aa9d7837caf62653d097ff8581610beb6118fe565b6064610bf78430611932565b50610131546040516370a0823160e01b81523060048201819052610cfc926001600160a01b0390811692889288928792908916906370a0823190602401602060405180830381865afa158015610c51573d6000803e3d6000fd5b505050506040513d601f19601f82011682018060405250810190610c759190612ad4565b6040516370a0823160e01b81523060048201526103e8906001600160a01b038b16906370a0823190602401602060405180830381865afa158015610cbd573d6000803e3d6000fd5b505050506040513d601f19601f82011682018060405250810190610ce19190612ad4565b610ced906103e3612bae565b610cf79190612bc5565b611b4f565b5050505050565b600054610100900460ff1615808015610d235750600054600160ff909116105b80610d3d5750303b158015610d3d575060005460ff166001145b610d595760405162461bcd60e51b815260040161082590612be7565b6000805460ff191660011790558015610d7c576000805461ff0019166101001790555b610d84611cbb565b8015610918576000805461ff0019169055604051600181527f7f26b83ff96e1f2b6a682f133852f6798a09c465da95921460cefb3847402498906020015b60405180910390a150565b61012d546040516370a0823160e01b8152306004820152730b2c639c533813f4aa9d7837caf62653d097ff85916109189183916001600160a01b0316906370a08231906024015b602060405180830381865afa158015610e31573d6000803e3d6000fd5b505050506040513d601f19601f82011682018060405250810190610e559190612ad4565b611da0565b60009182526065602090815260408084206001600160a01b0393909316845291905290205460ff1690565b60fb546001600160a01b03163314610eaf5760405162461bcd60e51b815260040161082590612c35565b6000610f1e306001600160a01b031663a3673b386040518163ffffffff1660e01b8152600401602060405180830381865afa158015610ef2573d6000803e3d6000fd5b505050506040513d601f19601f82011682018060405250810190610f169190612ad4565b60fd54611f31565b6040516370a0823160e01b8152306004820152909150610f539084906001600160a01b038216906370a0823190602401610e14565b80306001600160a01b031663a3673b386040518163ffffffff1660e01b8152600401602060405180830381865afa158015610f92573d6000803e3d6000fd5b505050506040513d601f19601f82011682018060405250810190610fb69190612ad4565b10156110045760405162461bcd60e51b815260206004820152601f60248201527f5374726174656779204e4156206c657373207468616e206578706563746564006044820152606401610825565b6040518281527f227a473b70d2f893cc7659219575c030a63b5743024fe1e0c1a680e708b1525a906020015b60405180910390a1505050565b60ff54604051632474521560e21b81527fd67ad422505496469a1adf6cdf9e5ee92ac5d33992843c9ecc4b2f6d6cde913760048201523360248201526001600160a01b03909116906391d1485490604401602060405180830381865afa1580156110ab573d6000803e3d6000fd5b505050506040513d601f19601f820116820180604052508101906110cf9190612c6c565b61111b5760405162461bcd60e51b815260206004820152601d60248201527f5265737472696374656420746f20506f7274666f6c696f204167656e740000006044820152606401610825565b60fc83905560fd82905560fe81905560408051848152602081018490529081018290527f116fbf1e97a2be629ad98abfb6c332733c8996c2dfb174dd2efe8440df381d1a90606001611030565b60008281526065602052604090206001015461118381611691565b6107b48383611721565b60fb546000906001600160a01b031633146111ba5760405162461bcd60e51b815260040161082590612c35565b60006111c583611f5b565b9050801561069f576040518181527f3ac0594a85a20354f9dc74f33728416d19ce00d04a406c108cc2dcf2cecea1349060200160405180910390a192915050565b611211600033610e5a565b6112545760405162461bcd60e51b81526020600482015260146024820152735265737472696374656420746f2061646d696e7360601b6044820152606401610825565b61126160208201826128c9565b61012d80546001600160a01b0319166001600160a01b039290921691909117905561129260408201602083016128c9565b61012e80546001600160a01b0319166001600160a01b03929092169190911790556112c360608201604083016128c9565b61012f80546001600160a01b0319166001600160a01b03929092169190911790556112f460808201606083016128c9565b61013080546001600160a01b0319166001600160a01b039290921691909117905561132560a08201608083016128c9565b61013180546001600160a01b0319166001600160a01b039290921691909117905561135660c0820160a083016128c9565b61013280546001600160a01b0319166001600160a01b039290921691909117905561138760e0820160c08301612c89565b610132805462ffffff92909216600160a01b0262ffffff60a01b199092169190911790556040517fea5646eb3528e525944447a4a97de700dd472298626e5c0481d1c82c3da86ea590600090a150565b60fb546000906001600160a01b031633146114045760405162461bcd60e51b815260040161082590612c35565b6000611447306001600160a01b031663a3673b386040518163ffffffff1660e01b8152600401602060405180830381865afa158015610ef2573d6000803e3d6000fd5b9050600080841561146e5761145b86611f5b565b90506114678887611932565b91506114dd565b6114798888886121fe565b9150868210156114dd5760405162461bcd60e51b815260206004820152602960248201527f52657475726e65642076616c7565206c657373207468616e2072657175657374604482015268195908185b5bdd5b9d60ba1b6064820152608401610825565b82306001600160a01b031663a3673b386040518163ffffffff1660e01b8152600401602060405180830381865afa15801561151c573d6000803e3d6000fd5b505050506040513d601f19601f820116820180604052508101906115409190612ad4565b101561158e5760405162461bcd60e51b815260206004820152601f60248201527f5374726174656779204e4156206c657373207468616e206578706563746564006044820152606401610825565b60405163a9059cbb60e01b81526001600160a01b0387811660048301526024820184905289169063a9059cbb906044016020604051808303816000875af11580156115dd573d6000803e3d6000fd5b505050506040513d601f19601f820116820180604052508101906116019190612c6c565b5060408051888152602081018490527f9045c2ac9b2026de8075f2701bbdde882cd5e830b3b1ead9a15b22f2b5b93742910160405180910390a18015611675576040518181527f3ac0594a85a20354f9dc74f33728416d19ce00d04a406c108cc2dcf2cecea1349060200160405180910390a15b509150505b949350505050565b6001600160a01b03163b151590565b6109188133612372565b6116a58282610e5a565b6108385760008281526065602090815260408083206001600160a01b03851684529091529020805460ff191660011790556116dd3390565b6001600160a01b0316816001600160a01b0316837f2f8788117e7eff1d82e926ec794901d17c78024a50270940304540a733656f0d60405160405180910390a45050565b61172b8282610e5a565b156108385760008281526065602090815260408083206001600160a01b0385168085529252808320805460ff1916905551339285917ff6391f5c32d9c69d2a47ea670b442974b53935d1edc7fd64eb21e047a839171b9190a45050565b600061083881611691565b7f4910fdfa16fed3260ed0e7147f7cc6da11a60208b5b9406d12a635614ffd91435460ff16156117c6576107b4836123cb565b826001600160a01b03166352d1902d6040518163ffffffff1660e01b8152600401602060405180830381865afa925050508015611820575060408051601f3d908101601f1916820190925261181d91810190612ad4565b60015b6118835760405162461bcd60e51b815260206004820152602e60248201527f45524331393637557067726164653a206e657720696d706c656d656e7461746960448201526d6f6e206973206e6f74205555505360901b6064820152608401610825565b600080516020612fc183398151915281146118f25760405162461bcd60e51b815260206004820152602960248201527f45524331393637557067726164653a20756e737570706f727465642070726f786044820152681a58589b195555525160ba1b6064820152608401610825565b506107b4838383612467565b6040805160048152602481019091526020810180516001600160e01b03166351973ec960e01b17905261193090612492565b565b61012d546000906001600160a01b038481169116146119635760405162461bcd60e51b815260040161082590612cae565b61012e546040516370a0823160e01b81523060048201526000916001600160a01b0316906370a0823190602401602060405180830381865afa1580156119ad573d6000803e3d6000fd5b505050506040513d601f19601f820116820180604052508101906119d19190612ad4565b9050600061012f60009054906101000a90046001600160a01b03166001600160a01b031663026b1d5f6040518163ffffffff1660e01b8152600401602060405180830381865afa158015611a29573d6000803e3d6000fd5b505050506040513d601f19601f82011682018060405250810190611a4d9190612ce5565b61012e5460405163095ea7b360e01b81526001600160a01b0380841660048301526024820186905292935091169063095ea7b3906044016020604051808303816000875af1158015611aa3573d6000803e3d6000fd5b505050506040513d601f19601f82011682018060405250810190611ac79190612c6c565b50604051631a4ca37b60e21b81526001600160a01b03868116600483015260248201849052306044830152600091908316906369328dec906064016020604051808303816000875af1158015611b21573d6000803e3d6000fd5b505050506040513d601f19601f82011682018060405250810190611b459190612ad4565b9695505050505050565b60405163095ea7b360e01b81526001600160a01b038881166004830152602482018490526000919088169063095ea7b3906044016020604051808303816000875af1158015611ba2573d6000803e3d6000fd5b505050506040513d601f19601f82011682018060405250810190611bc69190612c6c565b506040805160e0810182526001600160a01b0389811682528881166020830190815262ffffff89811684860190815289841660608601908152608086018a815260a087018a8152600060c0890190815298516304e45aaf60e01b8152885188166004820152955187166024870152925190931660448501525184166064840152905160848301525160a48201529251811660c48401529091908a16906304e45aaf9060e4016020604051808303816000875af1158015611c8a573d6000803e3d6000fd5b505050506040513d601f19601f82011682018060405250810190611cae9190612ad4565b9998505050505050505050565b600054610100900460ff1615808015611cdb5750600054600160ff909116105b80611cf55750303b158015611cf5575060005460ff166001145b611d115760405162461bcd60e51b815260040161082590612be7565b6000805460ff191660011790558015611d34576000805461ff0019166101001790555b611d3c61249b565b611d4461249b565b611d4f60003361169b565b601460fc81905560fd55600460fe558015610918576000805461ff0019169055604051600181527f7f26b83ff96e1f2b6a682f133852f6798a09c465da95921460cefb384740249890602001610dc2565b61012d546001600160a01b03838116911614611dce5760405162461bcd60e51b815260040161082590612cae565b61012f546040805163026b1d5f60e01b815290516000926001600160a01b03169163026b1d5f9160048083019260209291908290030181865afa158015611e19573d6000803e3d6000fd5b505050506040513d601f19601f82011682018060405250810190611e3d9190612ce5565b61012d5460405163095ea7b360e01b81526001600160a01b0380841660048301526024820186905292935091169063095ea7b3906044016020604051808303816000875af1158015611e93573d6000803e3d6000fd5b505050506040513d601f19601f82011682018060405250810190611eb79190612c6c565b5061012d5460405163e8eda9df60e01b81526001600160a01b03918216600482015260248101849052306044820152600060648201529082169063e8eda9df90608401600060405180830381600087803b158015611f1457600080fd5b505af1158015611f28573d6000803e3d6000fd5b50505050505050565b6000612710611f408382612d02565b611f4a9085612bae565b611f549190612bc5565b9392505050565b61012e546040516370a0823160e01b815230600482015260009182916001600160a01b03909116906370a0823190602401602060405180830381865afa158015611fa9573d6000803e3d6000fd5b505050506040513d601f19601f82011682018060405250810190611fcd9190612ad4565b905080600003611fe05750600092915050565b60408051600180825281830190925260009160208083019080368337505061012e5482519293506001600160a01b03169183915060009061202357612023612d15565b6001600160a01b03928316602091820292909201015261013054604051635fc87b1d60e11b81526000928392169063bf90f63a90612065908690600401612d2b565b6000604051808303816000875af1158015612084573d6000803e3d6000fd5b505050506040513d6000823e601f3d908101601f191682016040526120ac9190810190612dfc565b610132546040516370a0823160e01b815230600482015292945090925060009182916001600160a01b0316906370a0823190602401602060405180830381865afa1580156120fe573d6000803e3d6000fd5b505050506040513d601f19601f820116820180604052508101906121229190612ad4565b9050801561217357610131546101325461012d54600092612163926001600160a01b0391821692828216921690600160a01b900462ffffff16308787611b4f565b905061216f8184612b03565b9250505b81156121f35761012d5460405163a9059cbb60e01b81526001600160a01b038a81166004830152602482018590529091169063a9059cbb906044016020604051808303816000875af11580156121cd573d6000803e3d6000fd5b505050506040513d601f19601f820116820180604052508101906121f19190612c6c565b505b509695505050505050565b61012d546000906001600160a01b0385811691161461222f5760405162461bcd60e51b815260040161082590612cae565b61012f546040805163026b1d5f60e01b815290516000926001600160a01b03169163026b1d5f9160048083019260209291908290030181865afa15801561227a573d6000803e3d6000fd5b505050506040513d601f19601f8201168201806040525081019061229e9190612ce5565b61012e5460405163095ea7b360e01b81526001600160a01b0380841660048301526024820188905292935091169063095ea7b3906044016020604051808303816000875af11580156122f4573d6000803e3d6000fd5b505050506040513d601f19601f820116820180604052508101906123189190612c6c565b50604051631a4ca37b60e21b81526001600160a01b03868116600483015260248201869052306044830152600091908316906369328dec906064016020604051808303816000875af1158015611b21573d6000803e3d6000fd5b61237c8282610e5a565b6108385761238981612506565b612394836020612518565b6040516020016123a5929190612ee5565b60408051601f198184030181529082905262461bcd60e51b825261082591600401612f5a565b6001600160a01b0381163b6124385760405162461bcd60e51b815260206004820152602d60248201527f455243313936373a206e657720696d706c656d656e746174696f6e206973206e60448201526c1bdd08184818dbdb9d1c9858dd609a1b6064820152608401610825565b600080516020612fc183398151915280546001600160a01b0319166001600160a01b0392909216919091179055565b612470836126b4565b60008251118061247d5750805b156107b45761248c83836126f4565b50505050565b61091881612719565b600054610100900460ff166119305760405162461bcd60e51b815260206004820152602b60248201527f496e697469616c697a61626c653a20636f6e7472616374206973206e6f74206960448201526a6e697469616c697a696e6760a81b6064820152608401610825565b606061069f6001600160a01b03831660145b60606000612527836002612bae565b612532906002612b03565b67ffffffffffffffff81111561254a5761254a6128e6565b6040519080825280601f01601f191660200182016040528015612574576020820181803683370190505b509050600360fc1b8160008151811061258f5761258f612d15565b60200101906001600160f81b031916908160001a905350600f60fb1b816001815181106125be576125be612d15565b60200101906001600160f81b031916908160001a90535060006125e2846002612bae565b6125ed906001612b03565b90505b6001811115612665576f181899199a1a9b1b9c1cb0b131b232b360811b85600f166010811061262157612621612d15565b1a60f81b82828151811061263757612637612d15565b60200101906001600160f81b031916908160001a90535060049490941c9361265e81612f8d565b90506125f0565b508315611f545760405162461bcd60e51b815260206004820181905260248201527f537472696e67733a20686578206c656e67746820696e73756666696369656e746044820152606401610825565b6126bd816123cb565b6040516001600160a01b038216907fbc7cd75a20ee27fd9adebab32041f755214dbc6bffa90cc0225b39da2e5c2d3b90600090a250565b6060611f548383604051806060016040528060278152602001612fe16027913961273a565b60006a636f6e736f6c652e6c6f679050600080835160208501845afa505050565b6060600080856001600160a01b0316856040516127579190612fa4565b600060405180830381855af49150503d8060008114612792576040519150601f19603f3d011682016040523d82523d6000602084013e612797565b606091505b5091509150611b45868383876060831561281257825160000361280b576001600160a01b0385163b61280b5760405162461bcd60e51b815260206004820152601d60248201527f416464726573733a2063616c6c20746f206e6f6e2d636f6e74726163740000006044820152606401610825565b508161167a565b61167a83838151156128275781518083602001fd5b8060405162461bcd60e51b81526004016108259190612f5a565b60006020828403121561285357600080fd5b81356001600160e01b031981168114611f5457600080fd5b60006020828403121561287d57600080fd5b5035919050565b6001600160a01b038116811461091857600080fd5b600080604083850312156128ac57600080fd5b8235915060208301356128be81612884565b809150509250929050565b6000602082840312156128db57600080fd5b8135611f5481612884565b634e487b7160e01b600052604160045260246000fd5b604051601f8201601f1916810167ffffffffffffffff81118282101715612925576129256128e6565b604052919050565b6000806040838503121561294057600080fd5b823561294b81612884565b915060208381013567ffffffffffffffff8082111561296957600080fd5b818601915086601f83011261297d57600080fd5b81358181111561298f5761298f6128e6565b6129a1601f8201601f191685016128fc565b915080825287848285010111156129b757600080fd5b80848401858401376000848284010152508093505050509250929050565b600080604083850312156129e857600080fd5b82356129f381612884565b915060208301356128be81612884565b60008060408385031215612a1657600080fd5b8235612a2181612884565b946020939093013593505050565b600080600060608486031215612a4457600080fd5b505081359360208301359350604090920135919050565b600060e08284031215612a6d57600080fd5b50919050565b801515811461091857600080fd5b60008060008060808587031215612a9757600080fd5b8435612aa281612884565b9350602085013592506040850135612ab981612884565b91506060850135612ac981612a73565b939692955090935050565b600060208284031215612ae657600080fd5b5051919050565b634e487b7160e01b600052601160045260246000fd5b8082018082111561069f5761069f612aed565b6020808252602c908201527f46756e6374696f6e206d7573742062652063616c6c6564207468726f7567682060408201526b19195b1959d85d1958d85b1b60a21b606082015260800190565b6020808252602c908201527f46756e6374696f6e206d7573742062652063616c6c6564207468726f7567682060408201526b6163746976652070726f787960a01b606082015260800190565b808202811582820484141761069f5761069f612aed565b600082612be257634e487b7160e01b600052601260045260246000fd5b500490565b6020808252602e908201527f496e697469616c697a61626c653a20636f6e747261637420697320616c72656160408201526d191e481a5b9a5d1a585b1a5e995960921b606082015260800190565b6020808252601f908201527f5265737472696374656420746f20504f5254464f4c494f5f4d414e4147455200604082015260600190565b600060208284031215612c7e57600080fd5b8151611f5481612a73565b600060208284031215612c9b57600080fd5b813562ffffff81168114611f5457600080fd5b60208082526019908201527f536f6d6520746f6b656e206e6f7420636f6d70617469626c6500000000000000604082015260600190565b600060208284031215612cf757600080fd5b8151611f5481612884565b8181038181111561069f5761069f612aed565b634e487b7160e01b600052603260045260246000fd5b6020808252825182820181905260009190848201906040850190845b81811015612d6c5783516001600160a01b031683529284019291840191600101612d47565b50909695505050505050565b600067ffffffffffffffff821115612d9257612d926128e6565b5060051b60200190565b600082601f830112612dad57600080fd5b81516020612dc2612dbd83612d78565b6128fc565b82815260059290921b84018101918181019086841115612de157600080fd5b8286015b848110156121f35780518352918301918301612de5565b60008060408385031215612e0f57600080fd5b825167ffffffffffffffff80821115612e2757600080fd5b818501915085601f830112612e3b57600080fd5b81516020612e4b612dbd83612d78565b82815260059290921b84018101918181019089841115612e6a57600080fd5b948201945b83861015612e91578551612e8281612884565b82529482019490820190612e6f565b91880151919650909350505080821115612eaa57600080fd5b50612eb785828601612d9c565b9150509250929050565b60005b83811015612edc578181015183820152602001612ec4565b50506000910152565b7f416363657373436f6e74726f6c3a206163636f756e7420000000000000000000815260008351612f1d816017850160208801612ec1565b7001034b99036b4b9b9b4b733903937b6329607d1b6017918401918201528351612f4e816028840160208801612ec1565b01602801949350505050565b6020815260008251806020840152612f79816040850160208701612ec1565b601f01601f19169190910160400192915050565b600081612f9c57612f9c612aed565b506000190190565b60008251612fb6818460208701612ec1565b919091019291505056fe360894a13ba1a3210667c828492db98dca3e2076cc3735a920a3ca505d382bbc416464726573733a206c6f772d6c6576656c2064656c65676174652063616c6c206661696c6564a2646970667358221220f150e302283027eaa791ee18d8a0722ef349aa529d1a2c9986392c5b75c87ef664736f6c63430008110033",
  "implementation": "0xFC7a6D10B10FFd7De6bb78591a800AedDa7bcdAB",
  "devdoc": {
    "kind": "dev",
    "methods": {
      "constructor": {
        "custom:oz-upgrades-unsafe-allow": "constructor"
      },
      "getRoleAdmin(bytes32)": {
        "details": "Returns the admin role that controls `role`. See {grantRole} and {revokeRole}. To change a role's admin, use {_setRoleAdmin}."
      },
      "grantRole(bytes32,address)": {
        "details": "Grants `role` to `account`. If `account` had not been already granted `role`, emits a {RoleGranted} event. Requirements: - the caller must have ``role``'s admin role. May emit a {RoleGranted} event."
      },
      "hasRole(bytes32,address)": {
        "details": "Returns `true` if `account` has been granted `role`."
      },
      "proxiableUUID()": {
        "details": "Implementation of the ERC1822 {proxiableUUID} function. This returns the storage slot used by the implementation. It is used to validate the implementation's compatibility when performing an upgrade. IMPORTANT: A proxy pointing at a proxiable contract should not be considered proxiable itself, because this risks bricking a proxy that upgrades to it, by delegating to itself until out of gas. Thus it is critical that this function revert if invoked through a proxy. This is guaranteed by the `notDelegated` modifier."
      },
      "renounceRole(bytes32,address)": {
        "details": "Revokes `role` from the calling account. Roles are often managed via {grantRole} and {revokeRole}: this function's purpose is to provide a mechanism for accounts to lose their privileges if they are compromised (such as when a trusted device is misplaced). If the calling account had been revoked `role`, emits a {RoleRevoked} event. Requirements: - the caller must be `account`. May emit a {RoleRevoked} event."
      },
      "revokeRole(bytes32,address)": {
        "details": "Revokes `role` from `account`. If `account` had been granted `role`, emits a {RoleRevoked} event. Requirements: - the caller must have ``role``'s admin role. May emit a {RoleRevoked} event."
      },
      "supportsInterface(bytes4)": {
        "details": "See {IERC165-supportsInterface}."
      },
      "upgradeTo(address)": {
        "custom:oz-upgrades-unsafe-allow-reachable": "delegatecall",
        "details": "Upgrade the implementation of the proxy to `newImplementation`. Calls {_authorizeUpgrade}. Emits an {Upgraded} event."
      },
      "upgradeToAndCall(address,bytes)": {
        "custom:oz-upgrades-unsafe-allow-reachable": "delegatecall",
        "details": "Upgrade the implementation of the proxy to `newImplementation`, and subsequently execute the function call encoded in `data`. Calls {_authorizeUpgrade}. Emits an {Upgraded} event."
      }
    },
    "version": 1
  },
  "userdoc": {
    "kind": "user",
    "methods": {},
    "version": 1
  },
  "storageLayout": {
    "storage": [
      {
        "astId": 782,
        "contract": "contracts/StrategyAave.sol:StrategyAave",
        "label": "_initialized",
        "offset": 0,
        "slot": "0",
        "type": "t_uint8"
      },
      {
        "astId": 785,
        "contract": "contracts/StrategyAave.sol:StrategyAave",
        "label": "_initializing",
        "offset": 1,
        "slot": "0",
        "type": "t_bool"
      },
      {
        "astId": 1461,
        "contract": "contracts/StrategyAave.sol:StrategyAave",
        "label": "__gap",
        "offset": 0,
        "slot": "1",
        "type": "t_array(t_uint256)50_storage"
      },
      {
        "astId": 1845,
        "contract": "contracts/StrategyAave.sol:StrategyAave",
        "label": "__gap",
        "offset": 0,
        "slot": "51",
        "type": "t_array(t_uint256)50_storage"
      },
      {
        "astId": 28,
        "contract": "contracts/StrategyAave.sol:StrategyAave",
        "label": "_roles",
        "offset": 0,
        "slot": "101",
        "type": "t_mapping(t_bytes32,t_struct(RoleData)23_storage)"
      },
      {
        "astId": 335,
        "contract": "contracts/StrategyAave.sol:StrategyAave",
        "label": "__gap",
        "offset": 0,
        "slot": "102",
        "type": "t_array(t_uint256)49_storage"
      },
      {
        "astId": 764,
        "contract": "contracts/StrategyAave.sol:StrategyAave",
        "label": "__gap",
        "offset": 0,
        "slot": "151",
        "type": "t_array(t_uint256)50_storage"
      },
      {
        "astId": 1080,
        "contract": "contracts/StrategyAave.sol:StrategyAave",
        "label": "__gap",
        "offset": 0,
        "slot": "201",
        "type": "t_array(t_uint256)50_storage"
      },
      {
        "astId": 6891,
        "contract": "contracts/StrategyAave.sol:StrategyAave",
        "label": "portfolioManager",
        "offset": 0,
        "slot": "251",
        "type": "t_address"
      },
      {
        "astId": 6893,
        "contract": "contracts/StrategyAave.sol:StrategyAave",
        "label": "swapSlippageBP",
        "offset": 0,
        "slot": "252",
        "type": "t_uint256"
      },
      {
        "astId": 6895,
        "contract": "contracts/StrategyAave.sol:StrategyAave",
        "label": "navSlippageBP",
        "offset": 0,
        "slot": "253",
        "type": "t_uint256"
      },
      {
        "astId": 6897,
        "contract": "contracts/StrategyAave.sol:StrategyAave",
        "label": "stakeSlippageBP",
        "offset": 0,
        "slot": "254",
        "type": "t_uint256"
      },
      {
        "astId": 6900,
        "contract": "contracts/StrategyAave.sol:StrategyAave",
        "label": "roleManager",
        "offset": 0,
        "slot": "255",
        "type": "t_contract(IRoleManager)7293"
      },
      {
        "astId": 7280,
        "contract": "contracts/StrategyAave.sol:StrategyAave",
        "label": "__gap",
        "offset": 0,
        "slot": "256",
        "type": "t_array(t_uint256)45_storage"
      },
      {
        "astId": 7371,
        "contract": "contracts/StrategyAave.sol:StrategyAave",
        "label": "usdcToken",
        "offset": 0,
        "slot": "301",
        "type": "t_contract(IERC20)2907"
      },
      {
        "astId": 7374,
        "contract": "contracts/StrategyAave.sol:StrategyAave",
        "label": "aUsdcToken",
        "offset": 0,
        "slot": "302",
        "type": "t_contract(IERC20)2907"
      },
      {
        "astId": 7377,
        "contract": "contracts/StrategyAave.sol:StrategyAave",
        "label": "aaveProvider",
        "offset": 0,
        "slot": "303",
        "type": "t_contract(IPoolAddressesProvider)3902"
      },
      {
        "astId": 7380,
        "contract": "contracts/StrategyAave.sol:StrategyAave",
        "label": "rewardsController",
        "offset": 0,
        "slot": "304",
        "type": "t_contract(IRewardsController)4337"
      },
      {
        "astId": 7383,
        "contract": "contracts/StrategyAave.sol:StrategyAave",
        "label": "uniswapV3Router",
        "offset": 0,
        "slot": "305",
        "type": "t_contract(ISwapRouter)4626"
      },
      {
        "astId": 7386,
        "contract": "contracts/StrategyAave.sol:StrategyAave",
        "label": "opToken",
        "offset": 0,
        "slot": "306",
        "type": "t_contract(IERC20)2907"
      },
      {
        "astId": 7388,
        "contract": "contracts/StrategyAave.sol:StrategyAave",
        "label": "poolFee",
        "offset": 20,
        "slot": "306",
        "type": "t_uint24"
      }
    ],
    "types": {
      "t_address": {
        "encoding": "inplace",
        "label": "address",
        "numberOfBytes": "20"
      },
      "t_array(t_uint256)45_storage": {
        "base": "t_uint256",
        "encoding": "inplace",
        "label": "uint256[45]",
        "numberOfBytes": "1440"
      },
      "t_array(t_uint256)49_storage": {
        "base": "t_uint256",
        "encoding": "inplace",
        "label": "uint256[49]",
        "numberOfBytes": "1568"
      },
      "t_array(t_uint256)50_storage": {
        "base": "t_uint256",
        "encoding": "inplace",
        "label": "uint256[50]",
        "numberOfBytes": "1600"
      },
      "t_bool": {
        "encoding": "inplace",
        "label": "bool",
        "numberOfBytes": "1"
      },
      "t_bytes32": {
        "encoding": "inplace",
        "label": "bytes32",
        "numberOfBytes": "32"
      },
      "t_contract(IERC20)2907": {
        "encoding": "inplace",
        "label": "contract IERC20",
        "numberOfBytes": "20"
      },
      "t_contract(IPoolAddressesProvider)3902": {
        "encoding": "inplace",
        "label": "contract IPoolAddressesProvider",
        "numberOfBytes": "20"
      },
      "t_contract(IRewardsController)4337": {
        "encoding": "inplace",
        "label": "contract IRewardsController",
        "numberOfBytes": "20"
      },
      "t_contract(IRoleManager)7293": {
        "encoding": "inplace",
        "label": "contract IRoleManager",
        "numberOfBytes": "20"
      },
      "t_contract(ISwapRouter)4626": {
        "encoding": "inplace",
        "label": "contract ISwapRouter",
        "numberOfBytes": "20"
      },
      "t_mapping(t_address,t_bool)": {
        "encoding": "mapping",
        "key": "t_address",
        "label": "mapping(address => bool)",
        "numberOfBytes": "32",
        "value": "t_bool"
      },
      "t_mapping(t_bytes32,t_struct(RoleData)23_storage)": {
        "encoding": "mapping",
        "key": "t_bytes32",
        "label": "mapping(bytes32 => struct AccessControlUpgradeable.RoleData)",
        "numberOfBytes": "32",
        "value": "t_struct(RoleData)23_storage"
      },
      "t_struct(RoleData)23_storage": {
        "encoding": "inplace",
        "label": "struct AccessControlUpgradeable.RoleData",
        "members": [
          {
            "astId": 20,
            "contract": "contracts/StrategyAave.sol:StrategyAave",
            "label": "members",
            "offset": 0,
            "slot": "0",
            "type": "t_mapping(t_address,t_bool)"
          },
          {
            "astId": 22,
            "contract": "contracts/StrategyAave.sol:StrategyAave",
            "label": "adminRole",
            "offset": 0,
            "slot": "1",
            "type": "t_bytes32"
          }
        ],
        "numberOfBytes": "64"
      },
      "t_uint24": {
        "encoding": "inplace",
        "label": "uint24",
        "numberOfBytes": "3"
      },
      "t_uint256": {
        "encoding": "inplace",
        "label": "uint256",
        "numberOfBytes": "32"
      },
      "t_uint8": {
        "encoding": "inplace",
        "label": "uint8",
        "numberOfBytes": "1"
      }
    }
  }
}