{
  "address": "0xE1DAaa581da3aE12aDF950c5feDAB833E4C7Baa5",
  "abi": [
    {
      "inputs": [],
      "stateMutability": "nonpayable",
      "type": "constructor"
    },
    {
      "anonymous": false,
      "inputs": [
        {
          "indexed": false,
          "internalType": "address",
          "name": "previousAdmin",
          "type": "address"
        },
        {
          "indexed": false,
          "internalType": "address",
          "name": "newAdmin",
          "type": "address"
        }
      ],
      "name": "AdminChanged",
      "type": "event"
    },
    {
      "anonymous": false,
      "inputs": [
        {
          "indexed": true,
          "internalType": "address",
          "name": "beacon",
          "type": "address"
        }
      ],
      "name": "BeaconUpgraded",
      "type": "event"
    },
    {
      "anonymous": false,
      "inputs": [
        {
          "indexed": false,
          "internalType": "uint8",
          "name": "version",
          "type": "uint8"
        }
      ],
      "name": "Initialized",
      "type": "event"
    },
    {
      "anonymous": false,
      "inputs": [
        {
          "indexed": false,
          "internalType": "address",
          "name": "value",
          "type": "address"
        }
      ],
      "name": "PortfolioManagerUpdated",
      "type": "event"
    },
    {
      "anonymous": false,
      "inputs": [
        {
          "indexed": false,
          "internalType": "uint256",
          "name": "amount",
          "type": "uint256"
        }
      ],
      "name": "Reward",
      "type": "event"
    },
    {
      "anonymous": false,
      "inputs": [
        {
          "indexed": true,
          "internalType": "bytes32",
          "name": "role",
          "type": "bytes32"
        },
        {
          "indexed": true,
          "internalType": "bytes32",
          "name": "previousAdminRole",
          "type": "bytes32"
        },
        {
          "indexed": true,
          "internalType": "bytes32",
          "name": "newAdminRole",
          "type": "bytes32"
        }
      ],
      "name": "RoleAdminChanged",
      "type": "event"
    },
    {
      "anonymous": false,
      "inputs": [
        {
          "indexed": true,
          "internalType": "bytes32",
          "name": "role",
          "type": "bytes32"
        },
        {
          "indexed": true,
          "internalType": "address",
          "name": "account",
          "type": "address"
        },
        {
          "indexed": true,
          "internalType": "address",
          "name": "sender",
          "type": "address"
        }
      ],
      "name": "RoleGranted",
      "type": "event"
    },
    {
      "anonymous": false,
      "inputs": [
        {
          "indexed": true,
          "internalType": "bytes32",
          "name": "role",
          "type": "bytes32"
        },
        {
          "indexed": true,
          "internalType": "address",
          "name": "account",
          "type": "address"
        },
        {
          "indexed": true,
          "internalType": "address",
          "name": "sender",
          "type": "address"
        }
      ],
      "name": "RoleRevoked",
      "type": "event"
    },
    {
      "anonymous": false,
      "inputs": [
        {
          "indexed": false,
          "internalType": "uint256",
          "name": "swapSlippageBP",
          "type": "uint256"
        },
        {
          "indexed": false,
          "internalType": "uint256",
          "name": "navSlippageBP",
          "type": "uint256"
        }
      ],
      "name": "SlippagesUpdated",
      "type": "event"
    },
    {
      "anonymous": false,
      "inputs": [
        {
          "indexed": false,
          "internalType": "uint256",
          "name": "amount",
          "type": "uint256"
        }
      ],
      "name": "Stake",
      "type": "event"
    },
    {
      "anonymous": false,
      "inputs": [],
      "name": "StrategyUpdatedParams",
      "type": "event"
    },
    {
      "anonymous": false,
      "inputs": [
        {
          "indexed": false,
          "internalType": "uint256",
          "name": "amount",
          "type": "uint256"
        },
        {
          "indexed": false,
          "internalType": "uint256",
          "name": "amountReceived",
          "type": "uint256"
        }
      ],
      "name": "Unstake",
      "type": "event"
    },
    {
      "anonymous": false,
      "inputs": [
        {
          "indexed": true,
          "internalType": "address",
          "name": "implementation",
          "type": "address"
        }
      ],
      "name": "Upgraded",
      "type": "event"
    },
    {
      "inputs": [],
      "name": "DEFAULT_ADMIN_ROLE",
      "outputs": [
        {
          "internalType": "bytes32",
          "name": "",
          "type": "bytes32"
        }
      ],
      "stateMutability": "view",
      "type": "function"
    },
    {
      "inputs": [],
      "name": "PORTFOLIO_AGENT_ROLE",
      "outputs": [
        {
          "internalType": "bytes32",
          "name": "",
          "type": "bytes32"
        }
      ],
      "stateMutability": "view",
      "type": "function"
    },
    {
      "inputs": [],
      "name": "PORTFOLIO_MANAGER",
      "outputs": [
        {
          "internalType": "bytes32",
          "name": "",
          "type": "bytes32"
        }
      ],
      "stateMutability": "view",
      "type": "function"
    },
    {
      "inputs": [],
      "name": "bbRfADai",
      "outputs": [
        {
          "internalType": "contract IERC20",
          "name": "",
          "type": "address"
        }
      ],
      "stateMutability": "view",
      "type": "function"
    },
    {
      "inputs": [],
      "name": "bbRfAUsdc",
      "outputs": [
        {
          "internalType": "contract IERC20",
          "name": "",
          "type": "address"
        }
      ],
      "stateMutability": "view",
      "type": "function"
    },
    {
      "inputs": [],
      "name": "beethovenxPoolIdDai",
      "outputs": [
        {
          "internalType": "bytes32",
          "name": "",
          "type": "bytes32"
        }
      ],
      "stateMutability": "view",
      "type": "function"
    },
    {
      "inputs": [],
      "name": "beethovenxPoolIdDaiUsdtUsdc",
      "outputs": [
        {
          "internalType": "bytes32",
          "name": "",
          "type": "bytes32"
        }
      ],
      "stateMutability": "view",
      "type": "function"
    },
    {
      "inputs": [],
      "name": "beethovenxPoolIdUsdc",
      "outputs": [
        {
          "internalType": "bytes32",
          "name": "",
          "type": "bytes32"
        }
      ],
      "stateMutability": "view",
      "type": "function"
    },
    {
      "inputs": [],
      "name": "beethovenxVault",
      "outputs": [
        {
          "internalType": "contract IVault",
          "name": "",
          "type": "address"
        }
      ],
      "stateMutability": "view",
      "type": "function"
    },
    {
      "inputs": [
        {
          "internalType": "address",
          "name": "_to",
          "type": "address"
        }
      ],
      "name": "claimRewards",
      "outputs": [
        {
          "internalType": "uint256",
          "name": "",
          "type": "uint256"
        }
      ],
      "stateMutability": "nonpayable",
      "type": "function"
    },
    {
      "inputs": [],
      "name": "dai",
      "outputs": [
        {
          "internalType": "contract IERC20",
          "name": "",
          "type": "address"
        }
      ],
      "stateMutability": "view",
      "type": "function"
    },
    {
      "inputs": [],
      "name": "daiDm",
      "outputs": [
        {
          "internalType": "uint256",
          "name": "",
          "type": "uint256"
        }
      ],
      "stateMutability": "view",
      "type": "function"
    },
    {
      "inputs": [
        {
          "internalType": "bytes32",
          "name": "role",
          "type": "bytes32"
        }
      ],
      "name": "getRoleAdmin",
      "outputs": [
        {
          "internalType": "bytes32",
          "name": "",
          "type": "bytes32"
        }
      ],
      "stateMutability": "view",
      "type": "function"
    },
    {
      "inputs": [
        {
          "internalType": "bytes32",
          "name": "role",
          "type": "bytes32"
        },
        {
          "internalType": "address",
          "name": "account",
          "type": "address"
        }
      ],
      "name": "grantRole",
      "outputs": [],
      "stateMutability": "nonpayable",
      "type": "function"
    },
    {
      "inputs": [
        {
          "internalType": "bytes32",
          "name": "role",
          "type": "bytes32"
        },
        {
          "internalType": "address",
          "name": "account",
          "type": "address"
        }
      ],
      "name": "hasRole",
      "outputs": [
        {
          "internalType": "bool",
          "name": "",
          "type": "bool"
        }
      ],
      "stateMutability": "view",
      "type": "function"
    },
    {
      "inputs": [
        {
          "internalType": "uint256",
          "name": "_swapSlippageBP",
          "type": "uint256"
        },
        {
          "internalType": "uint256",
          "name": "_navSlippageBP",
          "type": "uint256"
        }
      ],
      "name": "initSlippages",
      "outputs": [],
      "stateMutability": "nonpayable",
      "type": "function"
    },
    {
      "inputs": [],
      "name": "initialize",
      "outputs": [],
      "stateMutability": "nonpayable",
      "type": "function"
    },
    {
      "inputs": [],
      "name": "kyberSwapRouter",
      "outputs": [
        {
          "internalType": "contract IRouter",
          "name": "",
          "type": "address"
        }
      ],
      "stateMutability": "view",
      "type": "function"
    },
    {
      "inputs": [],
      "name": "liquidationValue",
      "outputs": [
        {
          "internalType": "uint256",
          "name": "",
          "type": "uint256"
        }
      ],
      "stateMutability": "view",
      "type": "function"
    },
    {
      "inputs": [],
      "name": "lpToken",
      "outputs": [
        {
          "internalType": "contract IHypervisor",
          "name": "",
          "type": "address"
        }
      ],
      "stateMutability": "view",
      "type": "function"
    },
    {
      "inputs": [],
      "name": "masterChef",
      "outputs": [
        {
          "internalType": "contract IMasterChef",
          "name": "",
          "type": "address"
        }
      ],
      "stateMutability": "view",
      "type": "function"
    },
    {
      "inputs": [],
      "name": "navSlippageBP",
      "outputs": [
        {
          "internalType": "uint256",
          "name": "",
          "type": "uint256"
        }
      ],
      "stateMutability": "view",
      "type": "function"
    },
    {
      "inputs": [],
      "name": "netAssetValue",
      "outputs": [
        {
          "internalType": "uint256",
          "name": "",
          "type": "uint256"
        }
      ],
      "stateMutability": "view",
      "type": "function"
    },
    {
      "inputs": [],
      "name": "op",
      "outputs": [
        {
          "internalType": "contract IERC20",
          "name": "",
          "type": "address"
        }
      ],
      "stateMutability": "view",
      "type": "function"
    },
    {
      "inputs": [],
      "name": "oracleDai",
      "outputs": [
        {
          "internalType": "contract IPriceFeed",
          "name": "",
          "type": "address"
        }
      ],
      "stateMutability": "view",
      "type": "function"
    },
    {
      "inputs": [],
      "name": "oracleUsdc",
      "outputs": [
        {
          "internalType": "contract IPriceFeed",
          "name": "",
          "type": "address"
        }
      ],
      "stateMutability": "view",
      "type": "function"
    },
    {
      "inputs": [],
      "name": "pid",
      "outputs": [
        {
          "internalType": "uint256",
          "name": "",
          "type": "uint256"
        }
      ],
      "stateMutability": "view",
      "type": "function"
    },
    {
      "inputs": [],
      "name": "poolFeeOpUsdc",
      "outputs": [
        {
          "internalType": "uint24",
          "name": "",
          "type": "uint24"
        }
      ],
      "stateMutability": "view",
      "type": "function"
    },
    {
      "inputs": [],
      "name": "poolUsdcDaiFee",
      "outputs": [
        {
          "internalType": "uint24",
          "name": "",
          "type": "uint24"
        }
      ],
      "stateMutability": "view",
      "type": "function"
    },
    {
      "inputs": [],
      "name": "portfolioManager",
      "outputs": [
        {
          "internalType": "address",
          "name": "",
          "type": "address"
        }
      ],
      "stateMutability": "view",
      "type": "function"
    },
    {
      "inputs": [],
      "name": "proxiableUUID",
      "outputs": [
        {
          "internalType": "bytes32",
          "name": "",
          "type": "bytes32"
        }
      ],
      "stateMutability": "view",
      "type": "function"
    },
    {
      "inputs": [
        {
          "internalType": "bytes32",
          "name": "role",
          "type": "bytes32"
        },
        {
          "internalType": "address",
          "name": "account",
          "type": "address"
        }
      ],
      "name": "renounceRole",
      "outputs": [],
      "stateMutability": "nonpayable",
      "type": "function"
    },
    {
      "inputs": [
        {
          "internalType": "bytes32",
          "name": "role",
          "type": "bytes32"
        },
        {
          "internalType": "address",
          "name": "account",
          "type": "address"
        }
      ],
      "name": "revokeRole",
      "outputs": [],
      "stateMutability": "nonpayable",
      "type": "function"
    },
    {
      "inputs": [
        {
          "components": [
            {
              "internalType": "address",
              "name": "usdc",
              "type": "address"
            },
            {
              "internalType": "address",
              "name": "dai",
              "type": "address"
            },
            {
              "internalType": "address",
              "name": "op",
              "type": "address"
            },
            {
              "internalType": "address",
              "name": "lpToken",
              "type": "address"
            },
            {
              "internalType": "address",
              "name": "uniProxy",
              "type": "address"
            },
            {
              "internalType": "address",
              "name": "masterChef",
              "type": "address"
            },
            {
              "internalType": "uint64",
              "name": "pid",
              "type": "uint64"
            },
            {
              "internalType": "address",
              "name": "beethovenxVault",
              "type": "address"
            },
            {
              "internalType": "bytes32",
              "name": "beethovenxPoolIdUsdc",
              "type": "bytes32"
            },
            {
              "internalType": "bytes32",
              "name": "beethovenxPoolIdDaiUsdtUsdc",
              "type": "bytes32"
            },
            {
              "internalType": "bytes32",
              "name": "beethovenxPoolIdDai",
              "type": "bytes32"
            },
            {
              "internalType": "address",
              "name": "bbRfAUsdc",
              "type": "address"
            },
            {
              "internalType": "address",
              "name": "bbRfADai",
              "type": "address"
            },
            {
              "internalType": "address",
              "name": "uniswapV3Router",
              "type": "address"
            },
            {
              "internalType": "uint24",
              "name": "poolFeeOpUsdc",
              "type": "uint24"
            },
            {
              "internalType": "address",
              "name": "oracleUsdc",
              "type": "address"
            },
            {
              "internalType": "address",
              "name": "oracleDai",
              "type": "address"
            },
            {
              "internalType": "address",
              "name": "kyberSwapRouter",
              "type": "address"
            },
            {
              "internalType": "uint24",
              "name": "poolUsdcDaiFee",
              "type": "uint24"
            }
          ],
          "internalType": "struct StrategyGammaUsdcDai.StrategyParams",
          "name": "params",
          "type": "tuple"
        }
      ],
      "name": "setParams",
      "outputs": [],
      "stateMutability": "nonpayable",
      "type": "function"
    },
    {
      "inputs": [
        {
          "internalType": "address",
          "name": "_value",
          "type": "address"
        }
      ],
      "name": "setPortfolioManager",
      "outputs": [],
      "stateMutability": "nonpayable",
      "type": "function"
    },
    {
      "inputs": [
        {
          "internalType": "uint256",
          "name": "_swapSlippageBP",
          "type": "uint256"
        },
        {
          "internalType": "uint256",
          "name": "_navSlippageBP",
          "type": "uint256"
        }
      ],
      "name": "setSlippages",
      "outputs": [],
      "stateMutability": "nonpayable",
      "type": "function"
    },
    {
      "inputs": [
        {
          "internalType": "address",
          "name": "_asset",
          "type": "address"
        },
        {
          "internalType": "uint256",
          "name": "_amount",
          "type": "uint256"
        }
      ],
      "name": "stake",
      "outputs": [],
      "stateMutability": "nonpayable",
      "type": "function"
    },
    {
      "inputs": [
        {
          "internalType": "bytes4",
          "name": "interfaceId",
          "type": "bytes4"
        }
      ],
      "name": "supportsInterface",
      "outputs": [
        {
          "internalType": "bool",
          "name": "",
          "type": "bool"
        }
      ],
      "stateMutability": "view",
      "type": "function"
    },
    {
      "inputs": [],
      "name": "swapSlippageBP",
      "outputs": [
        {
          "internalType": "uint256",
          "name": "",
          "type": "uint256"
        }
      ],
      "stateMutability": "view",
      "type": "function"
    },
    {
      "inputs": [],
      "name": "uniProxy",
      "outputs": [
        {
          "internalType": "contract IUniProxy",
          "name": "",
          "type": "address"
        }
      ],
      "stateMutability": "view",
      "type": "function"
    },
    {
      "inputs": [],
      "name": "uniswapV3Router",
      "outputs": [
        {
          "internalType": "contract ISwapRouter",
          "name": "",
          "type": "address"
        }
      ],
      "stateMutability": "view",
      "type": "function"
    },
    {
      "inputs": [
        {
          "internalType": "address",
          "name": "_asset",
          "type": "address"
        },
        {
          "internalType": "uint256",
          "name": "_amount",
          "type": "uint256"
        },
        {
          "internalType": "address",
          "name": "_beneficiary",
          "type": "address"
        },
        {
          "internalType": "bool",
          "name": "_targetIsZero",
          "type": "bool"
        }
      ],
      "name": "unstake",
      "outputs": [
        {
          "internalType": "uint256",
          "name": "",
          "type": "uint256"
        }
      ],
      "stateMutability": "nonpayable",
      "type": "function"
    },
    {
      "inputs": [
        {
          "internalType": "address",
          "name": "newImplementation",
          "type": "address"
        }
      ],
      "name": "upgradeTo",
      "outputs": [],
      "stateMutability": "nonpayable",
      "type": "function"
    },
    {
      "inputs": [
        {
          "internalType": "address",
          "name": "newImplementation",
          "type": "address"
        },
        {
          "internalType": "bytes",
          "name": "data",
          "type": "bytes"
        }
      ],
      "name": "upgradeToAndCall",
      "outputs": [],
      "stateMutability": "payable",
      "type": "function"
    },
    {
      "inputs": [],
      "name": "usdc",
      "outputs": [
        {
          "internalType": "contract IERC20",
          "name": "",
          "type": "address"
        }
      ],
      "stateMutability": "view",
      "type": "function"
    },
    {
      "inputs": [],
      "name": "usdcDm",
      "outputs": [
        {
          "internalType": "uint256",
          "name": "",
          "type": "uint256"
        }
      ],
      "stateMutability": "view",
      "type": "function"
    }
  ],
  "numDeployments": 2,
  "solcInputHash": "01b3ada69e4f61f66da5daef364a99db",
  "bytecode": "0x60a06040523060601b6080523480156200001857600080fd5b50600054610100900460ff16158080156200003a5750600054600160ff909116105b806200006a575062000057306200014460201b620019791760201c565b1580156200006a575060005460ff166001145b620000d25760405162461bcd60e51b815260206004820152602e60248201527f496e697469616c697a61626c653a20636f6e747261637420697320616c72656160448201526d191e481a5b9a5d1a585b1a5e995960921b606482015260840160405180910390fd5b6000805460ff191660011790558015620000f6576000805461ff0019166101001790555b80156200013d576000805461ff0019169055604051600181527f7f26b83ff96e1f2b6a682f133852f6798a09c465da95921460cefb38474024989060200160405180910390a15b5062000153565b6001600160a01b03163b151590565b60805160601c6144776200018e600039600081816109b2015281816109f201528181610f2f01528181610f6f0152610ffe01526144776000f3fe60806040526004361061027d5760003560e01c8063620b75df1161014f578063adc9772e116100c1578063ec1f1f691161007a578063ec1f1f6914610786578063ef5cfb8c146107a7578063f1068454146107c7578063f4b9fa75146107de578063f6f6b881146107ff578063fb918fe31461081f57600080fd5b8063adc9772e146106de578063b2b59fcc146106fe578063bf52e08014610715578063cbf8b7131461072b578063d547741f14610742578063e401e1961461076257600080fd5b806391d148541161011357806391d14854146106325780639ad126cb14610652578063a217fddf14610673578063a3673b3814610688578063a440b21a1461069d578063ad79a4c0146106bd57600080fd5b8063620b75df146105a45780636b42c576146105c45780637d5f5802146105e4578063811766fa146106065780638129fc1c1461061d57600080fd5b80633659cfe6116101f3578063575a86b2116101ac578063575a86b2146104b45780635dbd733a146104d55780635f07c5f3146105095780635fcbd2851461052a5780635fea9cbb1461054b5780636171bb251461056c57600080fd5b80633659cfe6146104145780633962d1f1146104345780633b2038581461044b5780633e413bee1461046b5780634f1ef2861461048c57806352d1902d1461049f57600080fd5b80631ef6f327116102455780631ef6f3271461034d578063248a9ca31461036e5780632576e65a1461039e5780632c76d7a6146103b35780632f2ff15d146103d457806336568abe146103f457600080fd5b806301ffc9a714610282578063119cd879146102b7578063146a4d2b146102db57806318bc0faa146103145780631b1e7ddc14610336575b600080fd5b34801561028e57600080fd5b506102a261029d366004613e27565b610840565b60405190151581526020015b60405180910390f35b3480156102c357600080fd5b506102cd60fd5481565b6040519081526020016102ae565b3480156102e757600080fd5b50610134546102fc906001600160a01b031681565b6040516001600160a01b0390911681526020016102ae565b34801561032057600080fd5b5061033461032f366004613e8f565b610877565b005b34801561034257600080fd5b506102cd61013d5481565b34801561035957600080fd5b5061013f546102fc906001600160a01b031681565b34801561037a57600080fd5b506102cd610389366004613dc9565b60009081526065602052604090206001015490565b3480156103aa57600080fd5b506102cd6108ee565b3480156103bf57600080fd5b5061013a546102fc906001600160a01b031681565b3480156103e057600080fd5b506103346103ef366004613dfb565b6108ff565b34801561040057600080fd5b5061033461040f366004613dfb565b610929565b34801561042057600080fd5b5061033461042f366004613c56565b6109a7565b34801561044057600080fd5b506102cd6101375481565b34801561045757600080fd5b50610334610466366004613e51565b610a87565b34801561047757600080fd5b5061012d546102fc906001600160a01b031681565b61033461049a366004613c71565b610f24565b3480156104ab57600080fd5b506102cd610ff1565b3480156104c057600080fd5b50610132546102fc906001600160a01b031681565b3480156104e157600080fd5b506102cd7fd67ad422505496469a1adf6cdf9e5ee92ac5d33992843c9ecc4b2f6d6cde913781565b34801561051557600080fd5b5061013c546102fc906001600160a01b031681565b34801561053657600080fd5b50610130546102fc906001600160a01b031681565b34801561055757600080fd5b5061013b546102fc906001600160a01b031681565b34801561057857600080fd5b5061013a5461059090600160a01b900462ffffff1681565b60405162ffffff90911681526020016102ae565b3480156105b057600080fd5b5060fb546102fc906001600160a01b031681565b3480156105d057600080fd5b506103346105df366004613e8f565b6110a4565b3480156105f057600080fd5b506102cd6000805160206143db83398151915281565b34801561061257600080fd5b506102cd61013e5481565b34801561062957600080fd5b506103346111cc565b34801561063e57600080fd5b506102a261064d366004613dfb565b611296565b34801561065e57600080fd5b50610138546102fc906001600160a01b031681565b34801561067f57600080fd5b506102cd600081565b34801561069457600080fd5b506102cd6112c1565b3480156106a957600080fd5b506103346106b8366004613c56565b6112cd565b3480156106c957600080fd5b50610139546102fc906001600160a01b031681565b3480156106ea57600080fd5b506103346106f9366004613d33565b6113d5565b34801561070a57600080fd5b506102cd6101365481565b34801561072157600080fd5b506102cd60fc5481565b34801561073757600080fd5b506102cd6101355481565b34801561074e57600080fd5b5061033461075d366004613dfb565b611604565b34801561076e57600080fd5b5061013f5461059090600160a01b900462ffffff1681565b34801561079257600080fd5b5061012f546102fc906001600160a01b031681565b3480156107b357600080fd5b506102cd6107c2366004613c56565b611629565b3480156107d357600080fd5b506102cd6101335481565b3480156107ea57600080fd5b5061012e546102fc906001600160a01b031681565b34801561080b57600080fd5b506102cd61081a366004613d5d565b6116ae565b34801561082b57600080fd5b50610131546102fc906001600160a01b031681565b60006001600160e01b03198216637965db0b60e01b148061087157506301ffc9a760e01b6001600160e01b03198316145b92915050565b610882600033611296565b6108a75760405162461bcd60e51b815260040161089e90614126565b60405180910390fd5b60fc82905560fd81905560408051838152602081018390527fce5a32eeae390ce399fd83b29e4bee51b2b1a5898dc3575411e3a498f4f552a0910160405180910390a15050565b60006108fa6000611988565b905090565b60008281526065602052604090206001015461091a81611d31565b6109248383611d3b565b505050565b6001600160a01b03811633146109995760405162461bcd60e51b815260206004820152602f60248201527f416363657373436f6e74726f6c3a2063616e206f6e6c792072656e6f756e636560448201526e103937b632b9903337b91039b2b63360891b606482015260840161089e565b6109a38282611dc1565b5050565b306001600160a01b037f00000000000000000000000000000000000000000000000000000000000000001614156109f05760405162461bcd60e51b815260040161089e90614040565b7f00000000000000000000000000000000000000000000000000000000000000006001600160a01b0316610a396000805160206143fb833981519152546001600160a01b031690565b6001600160a01b031614610a5f5760405162461bcd60e51b815260040161089e9061408c565b610a6881611e28565b60408051600080825260208201909252610a8491839190611e33565b50565b610a92600033611296565b610aae5760405162461bcd60e51b815260040161089e90614126565b610abb6020820182613c56565b61012d80546001600160a01b0319166001600160a01b0392909216919091179055610aec6040820160208301613c56565b61012e80546001600160a01b0319166001600160a01b0392909216919091179055610b1d6060820160408301613c56565b61012f80546001600160a01b0319166001600160a01b0392909216919091179055610b4e6080820160608301613c56565b61013080546001600160a01b0319166001600160a01b0392909216919091179055610b7f60a0820160808301613c56565b61013180546001600160a01b0319166001600160a01b0392909216919091179055610bb060c0820160a08301613c56565b61013280546001600160a01b0319166001600160a01b0392909216919091179055610be160e0820160c08301613ed5565b67ffffffffffffffff1661013355610c00610100820160e08301613c56565b61013480546001600160a01b0319166001600160a01b0392909216919091179055610100810135610135556101208101356101365561014081013561013755610c5161018082016101608301613c56565b61013880546001600160a01b0319166001600160a01b0392909216919091179055610c846101a082016101808301613c56565b61013980546001600160a01b0319166001600160a01b0392909216919091179055610cb76101c082016101a08301613c56565b61013a80546001600160a01b0319166001600160a01b0392909216919091179055610cea6101e082016101c08301613e6a565b61013a805462ffffff92909216600160a01b0262ffffff60a01b19909216919091179055610d2061020082016101e08301613c56565b61013b80546001600160a01b0319166001600160a01b0392909216919091179055610d5361022082016102008301613c56565b61013c80546001600160a01b0319166001600160a01b0392909216919091179055610d816020820182613c56565b6001600160a01b031663313ce5676040518163ffffffff1660e01b815260040160206040518083038186803b158015610db957600080fd5b505afa158015610dcd573d6000803e3d6000fd5b505050506040513d601f19601f82011682018060405250810190610df19190613eff565b610dfc90600a614266565b61013d55610e106040820160208301613c56565b6001600160a01b031663313ce5676040518163ffffffff1660e01b815260040160206040518083038186803b158015610e4857600080fd5b505afa158015610e5c573d6000803e3d6000fd5b505050506040513d601f19601f82011682018060405250810190610e809190613eff565b610e8b90600a614266565b61013e55610ea161024082016102208301613c56565b61013f80546001600160a01b0319166001600160a01b0392909216919091179055610ed461026082016102408301613e6a565b61013f805462ffffff92909216600160a01b0262ffffff60a01b199092169190911790556040517fea5646eb3528e525944447a4a97de700dd472298626e5c0481d1c82c3da86ea590600090a150565b306001600160a01b037f0000000000000000000000000000000000000000000000000000000000000000161415610f6d5760405162461bcd60e51b815260040161089e90614040565b7f00000000000000000000000000000000000000000000000000000000000000006001600160a01b0316610fb66000805160206143fb833981519152546001600160a01b031690565b6001600160a01b031614610fdc5760405162461bcd60e51b815260040161089e9061408c565b610fe582611e28565b6109a382826001611e33565b6000306001600160a01b037f000000000000000000000000000000000000000000000000000000000000000016146110915760405162461bcd60e51b815260206004820152603860248201527f555550535570677261646561626c653a206d757374206e6f742062652063616c60448201527f6c6564207468726f7567682064656c656761746563616c6c0000000000000000606482015260840161089e565b506000805160206143fb83398151915290565b6110ce7fd67ad422505496469a1adf6cdf9e5ee92ac5d33992843c9ecc4b2f6d6cde913733611296565b80611175575060fb54604051632474521560e21b81527fd67ad422505496469a1adf6cdf9e5ee92ac5d33992843c9ecc4b2f6d6cde913760048201523360248201526001600160a01b03909116906391d148549060440160206040518083038186803b15801561113d57600080fd5b505afa158015611151573d6000803e3d6000fd5b505050506040513d601f19601f820116820180604052508101906111759190613dac565b6108a75760405162461bcd60e51b815260206004820152602260248201527f5265737472696374656420746f20504f5254464f4c494f5f4147454e545f524f6044820152614c4560f01b606482015260840161089e565b600054610100900460ff16158080156111ec5750600054600160ff909116105b806112065750303b158015611206575060005460ff166001145b6112225760405162461bcd60e51b815260040161089e906140d8565b6000805460ff191660011790558015611245576000805461ff0019166101001790555b61124d611fad565b8015610a84576000805461ff0019169055604051600181527f7f26b83ff96e1f2b6a682f133852f6798a09c465da95921460cefb3847402498906020015b60405180910390a150565b60009182526065602090815260408084206001600160a01b0393909316845291905290205460ff1690565b60006108fa6001611988565b6112d8600033611296565b6112f45760405162461bcd60e51b815260040161089e90614126565b6001600160a01b03811661134a5760405162461bcd60e51b815260206004820152601860248201527f5a65726f2061646472657373206e6f7420616c6c6f7765640000000000000000604482015260640161089e565b60fb5461136f906000805160206143db833981519152906001600160a01b0316611604565b6113876000805160206143db833981519152826108ff565b60fb80546001600160a01b0319166001600160a01b0383169081179091556040519081527ff7b449fcd5cfb7379dcd34cb69428dd9f882033b15be33d83b42d91daa28eeb79060200161128b565b6113ed6000805160206143db83398151915233611296565b6114095760405162461bcd60e51b815260040161089e90614009565b6000611487306001600160a01b031663a3673b386040518163ffffffff1660e01b815260040160206040518083038186803b15801561144757600080fd5b505afa15801561145b573d6000803e3d6000fd5b505050506040513d601f19601f8201168201806040525081019061147f9190613de2565b60fd5461208d565b6040516370a0823160e01b815230600482015290915061150c9084906001600160a01b038216906370a082319060240160206040518083038186803b1580156114cf57600080fd5b505afa1580156114e3573d6000803e3d6000fd5b505050506040513d601f19601f820116820180604052508101906115079190613de2565b6120b7565b80306001600160a01b031663a3673b386040518163ffffffff1660e01b815260040160206040518083038186803b15801561154657600080fd5b505afa15801561155a573d6000803e3d6000fd5b505050506040513d601f19601f8201168201806040525081019061157e9190613de2565b10156115cc5760405162461bcd60e51b815260206004820152601f60248201527f5374726174656779204e4156206c657373207468616e20657870656374656400604482015260640161089e565b6040518281527f227a473b70d2f893cc7659219575c030a63b5743024fe1e0c1a680e708b1525a9060200160405180910390a1505050565b60008281526065602052604090206001015461161f81611d31565b6109248383611dc1565b60006116436000805160206143db83398151915233611296565b61165f5760405162461bcd60e51b815260040161089e90614009565b600061166a836126db565b905080156116a6576040518181527f3ac0594a85a20354f9dc74f33728416d19ce00d04a406c108cc2dcf2cecea1349060200160405180910390a15b90505b919050565b60006116c86000805160206143db83398151915233611296565b6116e45760405162461bcd60e51b815260040161089e90614009565b6000611722306001600160a01b031663a3673b386040518163ffffffff1660e01b815260040160206040518083038186803b15801561144757600080fd5b9050600080841561174957611736866126db565b9050611742888761294c565b91506117b8565b611754888888612d90565b9150868210156117b85760405162461bcd60e51b815260206004820152602960248201527f52657475726e65642076616c7565206c657373207468616e2072657175657374604482015268195908185b5bdd5b9d60ba1b606482015260840161089e565b82306001600160a01b031663a3673b386040518163ffffffff1660e01b815260040160206040518083038186803b1580156117f257600080fd5b505afa158015611806573d6000803e3d6000fd5b505050506040513d601f19601f8201168201806040525081019061182a9190613de2565b10156118785760405162461bcd60e51b815260206004820152601f60248201527f5374726174656779204e4156206c657373207468616e20657870656374656400604482015260640161089e565b60405163a9059cbb60e01b81526001600160a01b0387811660048301526024820184905289169063a9059cbb90604401602060405180830381600087803b1580156118c257600080fd5b505af11580156118d6573d6000803e3d6000fd5b505050506040513d601f19601f820116820180604052508101906118fa9190613dac565b5060408051888152602081018490527f9045c2ac9b2026de8075f2701bbdde882cd5e830b3b1ead9a15b22f2b5b93742910160405180910390a1801561196e576040518181527f3ac0594a85a20354f9dc74f33728416d19ce00d04a406c108cc2dcf2cecea1349060200160405180910390a15b509695505050505050565b6001600160a01b03163b151590565b61012d546040516370a0823160e01b815230600482015260009182916001600160a01b03909116906370a082319060240160206040518083038186803b1580156119d157600080fd5b505afa1580156119e5573d6000803e3d6000fd5b505050506040513d601f19601f82011682018060405250810190611a099190613de2565b61012e546040516370a0823160e01b81523060048201529192506000916001600160a01b03909116906370a082319060240160206040518083038186803b158015611a5357600080fd5b505afa158015611a67573d6000803e3d6000fd5b505050506040513d601f19601f82011682018060405250810190611a8b9190613de2565b61013254610133546040516393f1a40b60e01b815260048101919091523060248201529192506000916001600160a01b03909116906393f1a40b90604401604080518083038186803b158015611ae057600080fd5b505afa158015611af4573d6000803e3d6000fd5b505050506040513d601f19601f82011682018060405250810190611b189190613eb1565b5090508015611cf4576101305460408051636253bb0f60e11b8152815160009384936001600160a01b039091169263c4a7761e9260048083019392829003018186803b158015611b6757600080fd5b505afa158015611b7b573d6000803e3d6000fd5b505050506040513d601f19601f82011682018060405250810190611b9f9190613eb1565b9150915061013060009054906101000a90046001600160a01b03166001600160a01b03166318160ddd6040518163ffffffff1660e01b815260040160206040518083038186803b158015611bf257600080fd5b505afa158015611c06573d6000803e3d6000fd5b505050506040513d601f19601f82011682018060405250810190611c2a9190613de2565b611c348484614311565b611c3e9190614201565b611c4890866141e9565b945061013060009054906101000a90046001600160a01b03166001600160a01b03166318160ddd6040518163ffffffff1660e01b815260040160206040518083038186803b158015611c9957600080fd5b505afa158015611cad573d6000803e3d6000fd5b505050506040513d601f19601f82011682018060405250810190611cd19190613de2565b611cdb8483614311565b611ce59190614201565b611cef90856141e9565b935050505b8115611d28576000611d0583613230565b905085611d1a57611d1781600161208d565b90505b611d2481856141e9565b9350505b50909392505050565b610a848133613362565b611d458282611296565b6109a35760008281526065602090815260408083206001600160a01b03851684529091529020805460ff19166001179055611d7d3390565b6001600160a01b0316816001600160a01b0316837f2f8788117e7eff1d82e926ec794901d17c78024a50270940304540a733656f0d60405160405180910390a45050565b611dcb8282611296565b156109a35760008281526065602090815260408083206001600160a01b0385168085529252808320805460ff1916905551339285917ff6391f5c32d9c69d2a47ea670b442974b53935d1edc7fd64eb21e047a839171b9190a45050565b60006109a381611d31565b7f4910fdfa16fed3260ed0e7147f7cc6da11a60208b5b9406d12a635614ffd91435460ff1615611e6657610924836133bb565b826001600160a01b03166352d1902d6040518163ffffffff1660e01b815260040160206040518083038186803b158015611e9f57600080fd5b505afa925050508015611ecf575060408051601f3d908101601f19168201909252611ecc91810190613de2565b60015b611f325760405162461bcd60e51b815260206004820152602e60248201527f45524331393637557067726164653a206e657720696d706c656d656e7461746960448201526d6f6e206973206e6f74205555505360901b606482015260840161089e565b6000805160206143fb8339815191528114611fa15760405162461bcd60e51b815260206004820152602960248201527f45524331393637557067726164653a20756e737570706f727465642070726f786044820152681a58589b195555525160ba1b606482015260840161089e565b50610924838383613457565b600054610100900460ff1615808015611fcd5750600054600160ff909116105b80611fe75750303b158015611fe7575060005460ff166001145b6120035760405162461bcd60e51b815260040161089e906140d8565b6000805460ff191660011790558015612026576000805461ff0019166101001790555b61202e613482565b612036613482565b612041600033611d3b565b601460fc81905560fd558015610a84576000805461ff0019169055604051600181527f7f26b83ff96e1f2b6a682f133852f6798a09c465da95921460cefb38474024989060200161128b565b600061271061209c8382614330565b6120a69085614311565b6120b09190614201565b9392505050565b61012d546001600160a01b038381169116146120e55760405162461bcd60e51b815260040161089e90614154565b6101305460408051636253bb0f60e11b8152815160009384936001600160a01b039091169263c4a7761e9260048083019392829003018186803b15801561212b57600080fd5b505afa15801561213f573d6000803e3d6000fd5b505050506040513d601f19601f820116820180604052508101906121639190613eb1565b61012d546040516370a0823160e01b81523060048201529294509092506000916001600160a01b03909116906370a082319060240160206040518083038186803b1580156121b057600080fd5b505afa1580156121c4573d6000803e3d6000fd5b505050506040513d601f19601f820116820180604052508101906121e89190613de2565b61012e546040516370a0823160e01b81523060048201529192506000916001600160a01b03909116906370a082319060240160206040518083038186803b15801561223257600080fd5b505afa158015612246573d6000803e3d6000fd5b505050506040513d601f19601f8201168201806040525081019061226a9190613de2565b905060008361013d5461013e54876122829190614311565b61228c9190614201565b61229691906141e9565b6122a08585614311565b6122aa9190614201565b905060006509184e72a0006122c96122c1846134ef565b60fc5461208d565b6122d39190614330565b61013f5461012d5461012e5492935061230d926001600160a01b038084169392811692911690600160a01b900462ffffff16308787613619565b5061012d546040516370a0823160e01b81523060048201526001600160a01b03909116906370a082319060240160206040518083038186803b15801561235257600080fd5b505afa158015612366573d6000803e3d6000fd5b505050506040513d601f19601f8201168201806040525081019061238a9190613de2565b61012e546040516370a0823160e01b81523060048201529195506001600160a01b0316906370a082319060240160206040518083038186803b1580156123cf57600080fd5b505afa1580156123e3573d6000803e3d6000fd5b505050506040513d601f19601f820116820180604052508101906124079190613de2565b61012d546101305460405163095ea7b360e01b81526001600160a01b03918216600482015260248101889052929550169063095ea7b390604401602060405180830381600087803b15801561245b57600080fd5b505af115801561246f573d6000803e3d6000fd5b505050506040513d601f19601f820116820180604052508101906124939190613dac565b5061012e546101305460405163095ea7b360e01b81526001600160a01b0391821660048201526024810186905291169063095ea7b390604401602060405180830381600087803b1580156124e657600080fd5b505af11580156124fa573d6000803e3d6000fd5b505050506040513d601f19601f8201168201806040525081019061251e9190613dac565b5061013154610130546040805160808101825260008082526020820181905281830181905260608201819052915163238f24b960e21b815291936001600160a01b0390811693638e3c92e493612580938b938b933093911691906004016141b6565b602060405180830381600087803b15801561259a57600080fd5b505af11580156125ae573d6000803e3d6000fd5b505050506040513d601f19601f820116820180604052508101906125d29190613de2565b610130546101325460405163095ea7b360e01b81526001600160a01b03918216600482015260248101849052929350169063095ea7b390604401602060405180830381600087803b15801561262657600080fd5b505af115801561263a573d6000803e3d6000fd5b505050506040513d601f19601f8201168201806040525081019061265e9190613dac565b506101325461013354604051638dbdbe6d60e01b81526004810191909152602481018390523060448201526001600160a01b0390911690638dbdbe6d90606401600060405180830381600087803b1580156126b857600080fd5b505af11580156126cc573d6000803e3d6000fd5b50505050505050505050505050565b61013254610133546040516393f1a40b60e01b8152600481019190915230602482015260009182916001600160a01b03909116906393f1a40b90604401604080518083038186803b15801561272f57600080fd5b505afa158015612743573d6000803e3d6000fd5b505050506040513d601f19601f820116820180604052508101906127679190613eb1565b50905080156127e2576101325461013354604051638dbdbe6d60e01b81526004810191909152600060248201523060448201526001600160a01b0390911690638dbdbe6d90606401600060405180830381600087803b1580156127c957600080fd5b505af11580156127dd573d6000803e3d6000fd5b505050505b61012f546040516370a0823160e01b815230600482015260009182916001600160a01b03909116906370a082319060240160206040518083038186803b15801561282b57600080fd5b505afa15801561283f573d6000803e3d6000fd5b505050506040513d601f19601f820116820180604052508101906128639190613de2565b905080156128b55761013a5461012f5461012d546000926128a5926001600160a01b038083169391811692911690600160a01b900462ffffff163087876137b5565b90506128b181846141e9565b9250505b81156129445761012d5460405163a9059cbb60e01b81526001600160a01b038781166004830152602482018590529091169063a9059cbb90604401602060405180830381600087803b15801561290a57600080fd5b505af115801561291e573d6000803e3d6000fd5b505050506040513d601f19601f820116820180604052508101906129429190613dac565b505b509392505050565b61012d546000906001600160a01b0384811691161461297d5760405162461bcd60e51b815260040161089e90614154565b61013254610133546040516393f1a40b60e01b815260048101919091523060248201526000916001600160a01b0316906393f1a40b90604401604080518083038186803b1580156129cd57600080fd5b505afa1580156129e1573d6000803e3d6000fd5b505050506040513d601f19601f82011682018060405250810190612a059190613eb1565b50905080612a915761012d546040516370a0823160e01b81523060048201526001600160a01b03909116906370a082319060240160206040518083038186803b158015612a5157600080fd5b505afa158015612a65573d6000803e3d6000fd5b505050506040513d601f19601f82011682018060405250810190612a899190613de2565b915050610871565b6101325461013354604051630ad58d2f60e01b81526004810191909152602481018390523060448201526001600160a01b0390911690630ad58d2f90606401600060405180830381600087803b158015612aea57600080fd5b505af1158015612afe573d6000803e3d6000fd5b5050610130546101315460405163095ea7b360e01b81526001600160a01b039182166004820152602481018690529116925063095ea7b39150604401602060405180830381600087803b158015612b5457600080fd5b505af1158015612b68573d6000803e3d6000fd5b505050506040513d601f19601f82011682018060405250810190612b8c9190613dac565b5061013054604080516080810182526000808252602082018190528183018190526060820152905163542acc3960e11b81526001600160a01b039092169163a855987291612be3918591309182919060040161418b565b6040805180830381600087803b158015612bfc57600080fd5b505af1158015612c10573d6000803e3d6000fd5b505050506040513d601f19601f82011682018060405250810190612c349190613eb1565b505061012e546040516370a0823160e01b81523060048201526000916001600160a01b0316906370a082319060240160206040518083038186803b158015612c7b57600080fd5b505afa158015612c8f573d6000803e3d6000fd5b505050506040513d601f19601f82011682018060405250810190612cb39190613de2565b90506000600a612cc56122c184613230565b612ccf9190614330565b61013f5461012e5461012d54929350612d09926001600160a01b038084169392811692911690600160a01b900462ffffff16308787613619565b5061012d546040516370a0823160e01b81523060048201526001600160a01b03909116906370a082319060240160206040518083038186803b158015612d4e57600080fd5b505afa158015612d62573d6000803e3d6000fd5b505050506040513d601f19601f82011682018060405250810190612d869190613de2565b9695505050505050565b61012d546000906001600160a01b03858116911614612dc15760405162461bcd60e51b815260040161089e90614154565b6101305460408051636253bb0f60e11b8152815160009384936001600160a01b039091169263c4a7761e9260048083019392829003018186803b158015612e0757600080fd5b505afa158015612e1b573d6000803e3d6000fd5b505050506040513d601f19601f82011682018060405250810190612e3f9190613eb1565b91509150600061013060009054906101000a90046001600160a01b03166001600160a01b03166318160ddd6040518163ffffffff1660e01b815260040160206040518083038186803b158015612e9457600080fd5b505afa158015612ea8573d6000803e3d6000fd5b505050506040513d601f19601f82011682018060405250810190612ecc9190613de2565b9050600061013e5461013d5484612ee39190614311565b612eed9190614201565b612ef790856141e9565b612f0c612f0589600a6141e9565b60016138e5565b612f169084614311565b612f209190614201565b905081811115612f2d5750805b6101325461013354604051630ad58d2f60e01b81526004810191909152602481018390523060448201526001600160a01b0390911690630ad58d2f90606401600060405180830381600087803b158015612f8657600080fd5b505af1158015612f9a573d6000803e3d6000fd5b5050610130546101315460405163095ea7b360e01b81526001600160a01b039182166004820152602481018690529116925063095ea7b39150604401602060405180830381600087803b158015612ff057600080fd5b505af1158015613004573d6000803e3d6000fd5b505050506040513d601f19601f820116820180604052508101906130289190613dac565b5061013054604080516080810182526000808252602082018190528183018190526060820152905163542acc3960e11b81526001600160a01b039092169163a85598729161307f918591309182919060040161418b565b6040805180830381600087803b15801561309857600080fd5b505af11580156130ac573d6000803e3d6000fd5b505050506040513d601f19601f820116820180604052508101906130d09190613eb1565b505061012e546040516370a0823160e01b81523060048201526000916001600160a01b0316906370a082319060240160206040518083038186803b15801561311757600080fd5b505afa15801561312b573d6000803e3d6000fd5b505050506040513d601f19601f8201168201806040525081019061314f9190613de2565b90506000600a6131616122c184613230565b61316b9190614330565b61013f5461012e5461012d549293506131a5926001600160a01b038084169392811692911690600160a01b900462ffffff16308787613619565b5061012d546040516370a0823160e01b81523060048201526001600160a01b03909116906370a082319060240160206040518083038186803b1580156131ea57600080fd5b505afa1580156131fe573d6000803e3d6000fd5b505050506040513d601f19601f820116820180604052508101906132229190613de2565b9a9950505050505050505050565b60008061013c60009054906101000a90046001600160a01b03166001600160a01b03166350d25bcd6040518163ffffffff1660e01b815260040160206040518083038186803b15801561328257600080fd5b505afa158015613296573d6000803e3d6000fd5b505050506040513d601f19601f820116820180604052508101906132ba9190613de2565b9050600061013b60009054906101000a90046001600160a01b03166001600160a01b03166350d25bcd6040518163ffffffff1660e01b815260040160206040518083038186803b15801561330d57600080fd5b505afa158015613321573d6000803e3d6000fd5b505050506040513d601f19601f820116820180604052508101906133459190613de2565b905061335a8461013e5461013d5485856138f4565b949350505050565b61336c8282611296565b6109a3576133798161391f565b613384836020613931565b604051602001613395929190613f61565b60408051601f198184030181529082905262461bcd60e51b825261089e91600401613fd6565b6001600160a01b0381163b6134285760405162461bcd60e51b815260206004820152602d60248201527f455243313936373a206e657720696d706c656d656e746174696f6e206973206e60448201526c1bdd08184818dbdb9d1c9858dd609a1b606482015260840161089e565b6000805160206143fb83398151915280546001600160a01b0319166001600160a01b0392909216919091179055565b61346083613acd565b60008251118061346d5750805b156109245761347c8383613b0d565b50505050565b600054610100900460ff166134ed5760405162461bcd60e51b815260206004820152602b60248201527f496e697469616c697a61626c653a20636f6e7472616374206973206e6f74206960448201526a6e697469616c697a696e6760a81b606482015260840161089e565b565b60008061013c60009054906101000a90046001600160a01b03166001600160a01b03166350d25bcd6040518163ffffffff1660e01b815260040160206040518083038186803b15801561354157600080fd5b505afa158015613555573d6000803e3d6000fd5b505050506040513d601f19601f820116820180604052508101906135799190613de2565b9050600061013b60009054906101000a90046001600160a01b03166001600160a01b03166350d25bcd6040518163ffffffff1660e01b815260040160206040518083038186803b1580156135cc57600080fd5b505afa1580156135e0573d6000803e3d6000fd5b505050506040513d601f19601f820116820180604052508101906136049190613de2565b905061335a8461013d5461013e5484866138f4565b60405163095ea7b360e01b81526001600160a01b038881166004830152602482018490526000919088169063095ea7b390604401602060405180830381600087803b15801561366757600080fd5b505af115801561367b573d6000803e3d6000fd5b505050506040513d601f19601f8201168201806040525081019061369f9190613dac565b5060408051610100810182526001600160a01b0389811682528881166020830190815262ffffff89811684860190815289841660608601908152426080870190815260a087018b815260c088018b8152600060e08a01908152995163a8c9ed6760e01b815289518916600482015296518816602488015293519094166044860152905185166064850152516084840152905160a48301525160c48201529251811660e48401529091908a169063a8c9ed6790610104015b602060405180830381600087803b15801561377057600080fd5b505af1158015613784573d6000803e3d6000fd5b505050506040513d601f19601f820116820180604052508101906137a89190613de2565b9998505050505050505050565b60405163095ea7b360e01b81526001600160a01b038881166004830152602482018490526000919088169063095ea7b390604401602060405180830381600087803b15801561380357600080fd5b505af1158015613817573d6000803e3d6000fd5b505050506040513d601f19601f8201168201806040525081019061383b9190613dac565b506040805160e0810182526001600160a01b0389811682528881166020830190815262ffffff89811684860190815289841660608601908152608086018a815260a087018a8152600060c0890190815298516304e45aaf60e01b8152885188166004820152955187166024870152925190931660448501525184166064840152905160848301525160a48201529251811660c48401529091908a16906304e45aaf9060e401613756565b600061271061209c83826141e9565b60006139008286614311565b8361390b8689614311565b6139159190614311565b612d869190614201565b60606108716001600160a01b03831660145b60606000613940836002614311565b61394b9060026141e9565b67ffffffffffffffff811115613963576139636143b6565b6040519080825280601f01601f19166020018201604052801561398d576020820181803683370190505b509050600360fc1b816000815181106139a8576139a86143a0565b60200101906001600160f81b031916908160001a905350600f60fb1b816001815181106139d7576139d76143a0565b60200101906001600160f81b031916908160001a90535060006139fb846002614311565b613a069060016141e9565b90505b6001811115613a7e576f181899199a1a9b1b9c1cb0b131b232b360811b85600f1660108110613a3a57613a3a6143a0565b1a60f81b828281518110613a5057613a506143a0565b60200101906001600160f81b031916908160001a90535060049490941c93613a7781614373565b9050613a09565b5083156120b05760405162461bcd60e51b815260206004820181905260248201527f537472696e67733a20686578206c656e67746820696e73756666696369656e74604482015260640161089e565b613ad6816133bb565b6040516001600160a01b038216907fbc7cd75a20ee27fd9adebab32041f755214dbc6bffa90cc0225b39da2e5c2d3b90600090a250565b60606001600160a01b0383163b613b755760405162461bcd60e51b815260206004820152602660248201527f416464726573733a2064656c65676174652063616c6c20746f206e6f6e2d636f6044820152651b9d1c9858dd60d21b606482015260840161089e565b600080846001600160a01b031684604051613b909190613f45565b600060405180830381855af49150503d8060008114613bcb576040519150601f19603f3d011682016040523d82523d6000602084013e613bd0565b606091505b5091509150613bf8828260405180606001604052806027815260200161441b60279139613c01565b95945050505050565b60608315613c105750816120b0565b6120b08383815115613c255781518083602001fd5b8060405162461bcd60e51b815260040161089e9190613fd6565b80356001600160a01b03811681146116a957600080fd5b600060208284031215613c6857600080fd5b6120b082613c3f565b60008060408385031215613c8457600080fd5b613c8d83613c3f565b9150602083013567ffffffffffffffff80821115613caa57600080fd5b818501915085601f830112613cbe57600080fd5b813581811115613cd057613cd06143b6565b604051601f8201601f19908116603f01168101908382118183101715613cf857613cf86143b6565b81604052828152886020848701011115613d1157600080fd5b8260208601602083013760006020848301015280955050505050509250929050565b60008060408385031215613d4657600080fd5b613d4f83613c3f565b946020939093013593505050565b60008060008060808587031215613d7357600080fd5b613d7c85613c3f565b935060208501359250613d9160408601613c3f565b91506060850135613da1816143cc565b939692955090935050565b600060208284031215613dbe57600080fd5b81516120b0816143cc565b600060208284031215613ddb57600080fd5b5035919050565b600060208284031215613df457600080fd5b5051919050565b60008060408385031215613e0e57600080fd5b82359150613e1e60208401613c3f565b90509250929050565b600060208284031215613e3957600080fd5b81356001600160e01b0319811681146120b057600080fd5b60006102608284031215613e6457600080fd5b50919050565b600060208284031215613e7c57600080fd5b813562ffffff811681146120b057600080fd5b60008060408385031215613ea257600080fd5b50508035926020909101359150565b60008060408385031215613ec457600080fd5b505080516020909101519092909150565b600060208284031215613ee757600080fd5b813567ffffffffffffffff811681146120b057600080fd5b600060208284031215613f1157600080fd5b815160ff811681146120b057600080fd5b8060005b600481101561347c578151845260209384019390910190600101613f26565b60008251613f57818460208701614347565b9190910192915050565b7f416363657373436f6e74726f6c3a206163636f756e7420000000000000000000815260008351613f99816017850160208801614347565b7001034b99036b4b9b9b4b733903937b6329607d1b6017918401918201528351613fca816028840160208801614347565b01602801949350505050565b6020815260008251806020840152613ff5816040850160208701614347565b601f01601f19169190910160400192915050565b6020808252601f908201527f5265737472696374656420746f20504f5254464f4c494f5f4d414e4147455200604082015260600190565b6020808252602c908201527f46756e6374696f6e206d7573742062652063616c6c6564207468726f7567682060408201526b19195b1959d85d1958d85b1b60a21b606082015260800190565b6020808252602c908201527f46756e6374696f6e206d7573742062652063616c6c6564207468726f7567682060408201526b6163746976652070726f787960a01b606082015260800190565b6020808252602e908201527f496e697469616c697a61626c653a20636f6e747261637420697320616c72656160408201526d191e481a5b9a5d1a585b1a5e995960921b606082015260800190565b6020808252601490820152735265737472696374656420746f2061646d696e7360601b604082015260600190565b60208082526019908201527f536f6d6520746f6b656e206e6f7420636f6d70617469626c6500000000000000604082015260600190565b8481526001600160a01b0384811660208301528316604082015260e08101613bf86060830184613f22565b858152602081018590526001600160a01b038481166040830152831660608201526101008101612d866080830184613f22565b600082198211156141fc576141fc61438a565b500190565b60008261421e57634e487b7160e01b600052601260045260246000fd5b500490565b600181815b8085111561425e5781600019048211156142445761424461438a565b8085161561425157918102915b93841c9390800290614228565b509250929050565b60006120b060ff84168360008261427f57506001610871565b8161428c57506000610871565b81600181146142a257600281146142ac576142c8565b6001915050610871565b60ff8411156142bd576142bd61438a565b50506001821b610871565b5060208310610133831016604e8410600b84101617156142eb575081810a610871565b6142f58383614223565b80600019048211156143095761430961438a565b029392505050565b600081600019048311821515161561432b5761432b61438a565b500290565b6000828210156143425761434261438a565b500390565b60005b8381101561436257818101518382015260200161434a565b8381111561347c5750506000910152565b6000816143825761438261438a565b506000190190565b634e487b7160e01b600052601160045260246000fd5b634e487b7160e01b600052603260045260246000fd5b634e487b7160e01b600052604160045260246000fd5b8015158114610a8457600080fdfe90c2aa7471c04182221f68e80c07ab1e5946e4c63f8693e14ca40385d529f051360894a13ba1a3210667c828492db98dca3e2076cc3735a920a3ca505d382bbc416464726573733a206c6f772d6c6576656c2064656c65676174652063616c6c206661696c6564a26469706673582212203f4a5815dffed4e66bef7f01f9171836de41ed2d569a53c79cdc0b31b3813a8a64736f6c63430008060033",
  "implementation": "0x53b5932caaD2B8d62199e092b933d9892ea2c8c3",
  "devdoc": {
    "kind": "dev",
    "methods": {
      "constructor": {
        "custom:oz-upgrades-unsafe-allow": "constructor"
      },
      "getRoleAdmin(bytes32)": {
        "details": "Returns the admin role that controls `role`. See {grantRole} and {revokeRole}. To change a role's admin, use {_setRoleAdmin}."
      },
      "grantRole(bytes32,address)": {
        "details": "Grants `role` to `account`. If `account` had not been already granted `role`, emits a {RoleGranted} event. Requirements: - the caller must have ``role``'s admin role. May emit a {RoleGranted} event."
      },
      "hasRole(bytes32,address)": {
        "details": "Returns `true` if `account` has been granted `role`."
      },
      "proxiableUUID()": {
        "details": "Implementation of the ERC1822 {proxiableUUID} function. This returns the storage slot used by the implementation. It is used to validate the implementation's compatibility when performing an upgrade. IMPORTANT: A proxy pointing at a proxiable contract should not be considered proxiable itself, because this risks bricking a proxy that upgrades to it, by delegating to itself until out of gas. Thus it is critical that this function revert if invoked through a proxy. This is guaranteed by the `notDelegated` modifier."
      },
      "renounceRole(bytes32,address)": {
        "details": "Revokes `role` from the calling account. Roles are often managed via {grantRole} and {revokeRole}: this function's purpose is to provide a mechanism for accounts to lose their privileges if they are compromised (such as when a trusted device is misplaced). If the calling account had been revoked `role`, emits a {RoleRevoked} event. Requirements: - the caller must be `account`. May emit a {RoleRevoked} event."
      },
      "revokeRole(bytes32,address)": {
        "details": "Revokes `role` from `account`. If `account` had been granted `role`, emits a {RoleRevoked} event. Requirements: - the caller must have ``role``'s admin role. May emit a {RoleRevoked} event."
      },
      "supportsInterface(bytes4)": {
        "details": "See {IERC165-supportsInterface}."
      },
      "upgradeTo(address)": {
        "details": "Upgrade the implementation of the proxy to `newImplementation`. Calls {_authorizeUpgrade}. Emits an {Upgraded} event."
      },
      "upgradeToAndCall(address,bytes)": {
        "details": "Upgrade the implementation of the proxy to `newImplementation`, and subsequently execute the function call encoded in `data`. Calls {_authorizeUpgrade}. Emits an {Upgraded} event."
      }
    },
    "version": 1
  },
  "userdoc": {
    "kind": "user",
    "methods": {},
    "version": 1
  },
  "storageLayout": {
    "storage": [
      {
        "astId": 804,
        "contract": "contracts/StrategyGammaUsdcDai.sol:StrategyGammaUsdcDai",
        "label": "_initialized",
        "offset": 0,
        "slot": "0",
        "type": "t_uint8"
      },
      {
        "astId": 807,
        "contract": "contracts/StrategyGammaUsdcDai.sol:StrategyGammaUsdcDai",
        "label": "_initializing",
        "offset": 1,
        "slot": "0",
        "type": "t_bool"
      },
      {
        "astId": 1427,
        "contract": "contracts/StrategyGammaUsdcDai.sol:StrategyGammaUsdcDai",
        "label": "__gap",
        "offset": 0,
        "slot": "1",
        "type": "t_array(t_uint256)50_storage"
      },
      {
        "astId": 1706,
        "contract": "contracts/StrategyGammaUsdcDai.sol:StrategyGammaUsdcDai",
        "label": "__gap",
        "offset": 0,
        "slot": "51",
        "type": "t_array(t_uint256)50_storage"
      },
      {
        "astId": 39,
        "contract": "contracts/StrategyGammaUsdcDai.sol:StrategyGammaUsdcDai",
        "label": "_roles",
        "offset": 0,
        "slot": "101",
        "type": "t_mapping(t_bytes32,t_struct(RoleData)34_storage)"
      },
      {
        "astId": 334,
        "contract": "contracts/StrategyGammaUsdcDai.sol:StrategyGammaUsdcDai",
        "label": "__gap",
        "offset": 0,
        "slot": "102",
        "type": "t_array(t_uint256)49_storage"
      },
      {
        "astId": 786,
        "contract": "contracts/StrategyGammaUsdcDai.sol:StrategyGammaUsdcDai",
        "label": "__gap",
        "offset": 0,
        "slot": "151",
        "type": "t_array(t_uint256)50_storage"
      },
      {
        "astId": 1101,
        "contract": "contracts/StrategyGammaUsdcDai.sol:StrategyGammaUsdcDai",
        "label": "__gap",
        "offset": 0,
        "slot": "201",
        "type": "t_array(t_uint256)50_storage"
      },
      {
        "astId": 8656,
        "contract": "contracts/StrategyGammaUsdcDai.sol:StrategyGammaUsdcDai",
        "label": "portfolioManager",
        "offset": 0,
        "slot": "251",
        "type": "t_address"
      },
      {
        "astId": 8658,
        "contract": "contracts/StrategyGammaUsdcDai.sol:StrategyGammaUsdcDai",
        "label": "swapSlippageBP",
        "offset": 0,
        "slot": "252",
        "type": "t_uint256"
      },
      {
        "astId": 8660,
        "contract": "contracts/StrategyGammaUsdcDai.sol:StrategyGammaUsdcDai",
        "label": "navSlippageBP",
        "offset": 0,
        "slot": "253",
        "type": "t_uint256"
      },
      {
        "astId": 9057,
        "contract": "contracts/StrategyGammaUsdcDai.sol:StrategyGammaUsdcDai",
        "label": "__gap",
        "offset": 0,
        "slot": "254",
        "type": "t_array(t_uint256)47_storage"
      },
      {
        "astId": 9149,
        "contract": "contracts/StrategyGammaUsdcDai.sol:StrategyGammaUsdcDai",
        "label": "usdc",
        "offset": 0,
        "slot": "301",
        "type": "t_contract(IERC20)2662"
      },
      {
        "astId": 9152,
        "contract": "contracts/StrategyGammaUsdcDai.sol:StrategyGammaUsdcDai",
        "label": "dai",
        "offset": 0,
        "slot": "302",
        "type": "t_contract(IERC20)2662"
      },
      {
        "astId": 9155,
        "contract": "contracts/StrategyGammaUsdcDai.sol:StrategyGammaUsdcDai",
        "label": "op",
        "offset": 0,
        "slot": "303",
        "type": "t_contract(IERC20)2662"
      },
      {
        "astId": 9158,
        "contract": "contracts/StrategyGammaUsdcDai.sol:StrategyGammaUsdcDai",
        "label": "lpToken",
        "offset": 0,
        "slot": "304",
        "type": "t_contract(IHypervisor)5365"
      },
      {
        "astId": 9161,
        "contract": "contracts/StrategyGammaUsdcDai.sol:StrategyGammaUsdcDai",
        "label": "uniProxy",
        "offset": 0,
        "slot": "305",
        "type": "t_contract(IUniProxy)5421"
      },
      {
        "astId": 9164,
        "contract": "contracts/StrategyGammaUsdcDai.sol:StrategyGammaUsdcDai",
        "label": "masterChef",
        "offset": 0,
        "slot": "306",
        "type": "t_contract(IMasterChef)5481"
      },
      {
        "astId": 9166,
        "contract": "contracts/StrategyGammaUsdcDai.sol:StrategyGammaUsdcDai",
        "label": "pid",
        "offset": 0,
        "slot": "307",
        "type": "t_uint256"
      },
      {
        "astId": 9169,
        "contract": "contracts/StrategyGammaUsdcDai.sol:StrategyGammaUsdcDai",
        "label": "beethovenxVault",
        "offset": 0,
        "slot": "308",
        "type": "t_contract(IVault)3275"
      },
      {
        "astId": 9171,
        "contract": "contracts/StrategyGammaUsdcDai.sol:StrategyGammaUsdcDai",
        "label": "beethovenxPoolIdUsdc",
        "offset": 0,
        "slot": "309",
        "type": "t_bytes32"
      },
      {
        "astId": 9173,
        "contract": "contracts/StrategyGammaUsdcDai.sol:StrategyGammaUsdcDai",
        "label": "beethovenxPoolIdDaiUsdtUsdc",
        "offset": 0,
        "slot": "310",
        "type": "t_bytes32"
      },
      {
        "astId": 9175,
        "contract": "contracts/StrategyGammaUsdcDai.sol:StrategyGammaUsdcDai",
        "label": "beethovenxPoolIdDai",
        "offset": 0,
        "slot": "311",
        "type": "t_bytes32"
      },
      {
        "astId": 9178,
        "contract": "contracts/StrategyGammaUsdcDai.sol:StrategyGammaUsdcDai",
        "label": "bbRfAUsdc",
        "offset": 0,
        "slot": "312",
        "type": "t_contract(IERC20)2662"
      },
      {
        "astId": 9181,
        "contract": "contracts/StrategyGammaUsdcDai.sol:StrategyGammaUsdcDai",
        "label": "bbRfADai",
        "offset": 0,
        "slot": "313",
        "type": "t_contract(IERC20)2662"
      },
      {
        "astId": 9184,
        "contract": "contracts/StrategyGammaUsdcDai.sol:StrategyGammaUsdcDai",
        "label": "uniswapV3Router",
        "offset": 0,
        "slot": "314",
        "type": "t_contract(ISwapRouter)6594"
      },
      {
        "astId": 9186,
        "contract": "contracts/StrategyGammaUsdcDai.sol:StrategyGammaUsdcDai",
        "label": "poolFeeOpUsdc",
        "offset": 20,
        "slot": "314",
        "type": "t_uint24"
      },
      {
        "astId": 9189,
        "contract": "contracts/StrategyGammaUsdcDai.sol:StrategyGammaUsdcDai",
        "label": "oracleUsdc",
        "offset": 0,
        "slot": "315",
        "type": "t_contract(IPriceFeed)4982"
      },
      {
        "astId": 9192,
        "contract": "contracts/StrategyGammaUsdcDai.sol:StrategyGammaUsdcDai",
        "label": "oracleDai",
        "offset": 0,
        "slot": "316",
        "type": "t_contract(IPriceFeed)4982"
      },
      {
        "astId": 9194,
        "contract": "contracts/StrategyGammaUsdcDai.sol:StrategyGammaUsdcDai",
        "label": "usdcDm",
        "offset": 0,
        "slot": "317",
        "type": "t_uint256"
      },
      {
        "astId": 9196,
        "contract": "contracts/StrategyGammaUsdcDai.sol:StrategyGammaUsdcDai",
        "label": "daiDm",
        "offset": 0,
        "slot": "318",
        "type": "t_uint256"
      },
      {
        "astId": 9199,
        "contract": "contracts/StrategyGammaUsdcDai.sol:StrategyGammaUsdcDai",
        "label": "kyberSwapRouter",
        "offset": 0,
        "slot": "319",
        "type": "t_contract(IRouter)6184"
      },
      {
        "astId": 9201,
        "contract": "contracts/StrategyGammaUsdcDai.sol:StrategyGammaUsdcDai",
        "label": "poolUsdcDaiFee",
        "offset": 20,
        "slot": "319",
        "type": "t_uint24"
      }
    ],
    "types": {
      "t_address": {
        "encoding": "inplace",
        "label": "address",
        "numberOfBytes": "20"
      },
      "t_array(t_uint256)47_storage": {
        "base": "t_uint256",
        "encoding": "inplace",
        "label": "uint256[47]",
        "numberOfBytes": "1504"
      },
      "t_array(t_uint256)49_storage": {
        "base": "t_uint256",
        "encoding": "inplace",
        "label": "uint256[49]",
        "numberOfBytes": "1568"
      },
      "t_array(t_uint256)50_storage": {
        "base": "t_uint256",
        "encoding": "inplace",
        "label": "uint256[50]",
        "numberOfBytes": "1600"
      },
      "t_bool": {
        "encoding": "inplace",
        "label": "bool",
        "numberOfBytes": "1"
      },
      "t_bytes32": {
        "encoding": "inplace",
        "label": "bytes32",
        "numberOfBytes": "32"
      },
      "t_contract(IERC20)2662": {
        "encoding": "inplace",
        "label": "contract IERC20",
        "numberOfBytes": "20"
      },
      "t_contract(IHypervisor)5365": {
        "encoding": "inplace",
        "label": "contract IHypervisor",
        "numberOfBytes": "20"
      },
      "t_contract(IMasterChef)5481": {
        "encoding": "inplace",
        "label": "contract IMasterChef",
        "numberOfBytes": "20"
      },
      "t_contract(IPriceFeed)4982": {
        "encoding": "inplace",
        "label": "contract IPriceFeed",
        "numberOfBytes": "20"
      },
      "t_contract(IRouter)6184": {
        "encoding": "inplace",
        "label": "contract IRouter",
        "numberOfBytes": "20"
      },
      "t_contract(ISwapRouter)6594": {
        "encoding": "inplace",
        "label": "contract ISwapRouter",
        "numberOfBytes": "20"
      },
      "t_contract(IUniProxy)5421": {
        "encoding": "inplace",
        "label": "contract IUniProxy",
        "numberOfBytes": "20"
      },
      "t_contract(IVault)3275": {
        "encoding": "inplace",
        "label": "contract IVault",
        "numberOfBytes": "20"
      },
      "t_mapping(t_address,t_bool)": {
        "encoding": "mapping",
        "key": "t_address",
        "label": "mapping(address => bool)",
        "numberOfBytes": "32",
        "value": "t_bool"
      },
      "t_mapping(t_bytes32,t_struct(RoleData)34_storage)": {
        "encoding": "mapping",
        "key": "t_bytes32",
        "label": "mapping(bytes32 => struct AccessControlUpgradeable.RoleData)",
        "numberOfBytes": "32",
        "value": "t_struct(RoleData)34_storage"
      },
      "t_struct(RoleData)34_storage": {
        "encoding": "inplace",
        "label": "struct AccessControlUpgradeable.RoleData",
        "members": [
          {
            "astId": 31,
            "contract": "contracts/StrategyGammaUsdcDai.sol:StrategyGammaUsdcDai",
            "label": "members",
            "offset": 0,
            "slot": "0",
            "type": "t_mapping(t_address,t_bool)"
          },
          {
            "astId": 33,
            "contract": "contracts/StrategyGammaUsdcDai.sol:StrategyGammaUsdcDai",
            "label": "adminRole",
            "offset": 0,
            "slot": "1",
            "type": "t_bytes32"
          }
        ],
        "numberOfBytes": "64"
      },
      "t_uint24": {
        "encoding": "inplace",
        "label": "uint24",
        "numberOfBytes": "3"
      },
      "t_uint256": {
        "encoding": "inplace",
        "label": "uint256",
        "numberOfBytes": "32"
      },
      "t_uint8": {
        "encoding": "inplace",
        "label": "uint8",
        "numberOfBytes": "1"
      }
    }
  }
}