{
  "address": "0x0B287606f1867Be9D0435089CB08FAa16109d31D",
  "abi": [
    {
      "inputs": [],
      "stateMutability": "nonpayable",
      "type": "constructor"
    },
    {
      "anonymous": false,
      "inputs": [
        {
          "indexed": false,
          "internalType": "address",
          "name": "previousAdmin",
          "type": "address"
        },
        {
          "indexed": false,
          "internalType": "address",
          "name": "newAdmin",
          "type": "address"
        }
      ],
      "name": "AdminChanged",
      "type": "event"
    },
    {
      "anonymous": false,
      "inputs": [
        {
          "indexed": true,
          "internalType": "address",
          "name": "beacon",
          "type": "address"
        }
      ],
      "name": "BeaconUpgraded",
      "type": "event"
    },
    {
      "anonymous": false,
      "inputs": [
        {
          "indexed": false,
          "internalType": "uint8",
          "name": "version",
          "type": "uint8"
        }
      ],
      "name": "Initialized",
      "type": "event"
    },
    {
      "anonymous": false,
      "inputs": [
        {
          "indexed": false,
          "internalType": "address",
          "name": "value",
          "type": "address"
        }
      ],
      "name": "PortfolioManagerUpdated",
      "type": "event"
    },
    {
      "anonymous": false,
      "inputs": [
        {
          "indexed": false,
          "internalType": "uint256",
          "name": "amount",
          "type": "uint256"
        }
      ],
      "name": "Reward",
      "type": "event"
    },
    {
      "anonymous": false,
      "inputs": [
        {
          "indexed": true,
          "internalType": "bytes32",
          "name": "role",
          "type": "bytes32"
        },
        {
          "indexed": true,
          "internalType": "bytes32",
          "name": "previousAdminRole",
          "type": "bytes32"
        },
        {
          "indexed": true,
          "internalType": "bytes32",
          "name": "newAdminRole",
          "type": "bytes32"
        }
      ],
      "name": "RoleAdminChanged",
      "type": "event"
    },
    {
      "anonymous": false,
      "inputs": [
        {
          "indexed": true,
          "internalType": "bytes32",
          "name": "role",
          "type": "bytes32"
        },
        {
          "indexed": true,
          "internalType": "address",
          "name": "account",
          "type": "address"
        },
        {
          "indexed": true,
          "internalType": "address",
          "name": "sender",
          "type": "address"
        }
      ],
      "name": "RoleGranted",
      "type": "event"
    },
    {
      "anonymous": false,
      "inputs": [
        {
          "indexed": true,
          "internalType": "bytes32",
          "name": "role",
          "type": "bytes32"
        },
        {
          "indexed": true,
          "internalType": "address",
          "name": "account",
          "type": "address"
        },
        {
          "indexed": true,
          "internalType": "address",
          "name": "sender",
          "type": "address"
        }
      ],
      "name": "RoleRevoked",
      "type": "event"
    },
    {
      "anonymous": false,
      "inputs": [
        {
          "indexed": false,
          "internalType": "uint256",
          "name": "swapSlippageBP",
          "type": "uint256"
        },
        {
          "indexed": false,
          "internalType": "uint256",
          "name": "navSlippageBP",
          "type": "uint256"
        },
        {
          "indexed": false,
          "internalType": "uint256",
          "name": "stakeSlippageBP",
          "type": "uint256"
        }
      ],
      "name": "SlippagesUpdated",
      "type": "event"
    },
    {
      "anonymous": false,
      "inputs": [
        {
          "indexed": false,
          "internalType": "uint256",
          "name": "amount",
          "type": "uint256"
        }
      ],
      "name": "Stake",
      "type": "event"
    },
    {
      "anonymous": false,
      "inputs": [],
      "name": "StrategyUpdatedParams",
      "type": "event"
    },
    {
      "anonymous": false,
      "inputs": [
        {
          "indexed": false,
          "internalType": "uint256",
          "name": "amount",
          "type": "uint256"
        },
        {
          "indexed": false,
          "internalType": "uint256",
          "name": "amountReceived",
          "type": "uint256"
        }
      ],
      "name": "Unstake",
      "type": "event"
    },
    {
      "anonymous": false,
      "inputs": [
        {
          "indexed": true,
          "internalType": "address",
          "name": "implementation",
          "type": "address"
        }
      ],
      "name": "Upgraded",
      "type": "event"
    },
    {
      "inputs": [],
      "name": "DEFAULT_ADMIN_ROLE",
      "outputs": [
        {
          "internalType": "bytes32",
          "name": "",
          "type": "bytes32"
        }
      ],
      "stateMutability": "view",
      "type": "function"
    },
    {
      "inputs": [],
      "name": "PORTFOLIO_AGENT_ROLE",
      "outputs": [
        {
          "internalType": "bytes32",
          "name": "",
          "type": "bytes32"
        }
      ],
      "stateMutability": "view",
      "type": "function"
    },
    {
      "inputs": [],
      "name": "PORTFOLIO_MANAGER",
      "outputs": [
        {
          "internalType": "bytes32",
          "name": "",
          "type": "bytes32"
        }
      ],
      "stateMutability": "view",
      "type": "function"
    },
    {
      "inputs": [],
      "name": "bentoBox",
      "outputs": [
        {
          "internalType": "contract IBentoBox",
          "name": "",
          "type": "address"
        }
      ],
      "stateMutability": "view",
      "type": "function"
    },
    {
      "inputs": [
        {
          "internalType": "address",
          "name": "_to",
          "type": "address"
        }
      ],
      "name": "claimRewards",
      "outputs": [
        {
          "internalType": "uint256",
          "name": "",
          "type": "uint256"
        }
      ],
      "stateMutability": "nonpayable",
      "type": "function"
    },
    {
      "inputs": [],
      "name": "curve3Pool",
      "outputs": [
        {
          "internalType": "address",
          "name": "",
          "type": "address"
        }
      ],
      "stateMutability": "view",
      "type": "function"
    },
    {
      "inputs": [
        {
          "internalType": "bytes32",
          "name": "role",
          "type": "bytes32"
        }
      ],
      "name": "getRoleAdmin",
      "outputs": [
        {
          "internalType": "bytes32",
          "name": "",
          "type": "bytes32"
        }
      ],
      "stateMutability": "view",
      "type": "function"
    },
    {
      "inputs": [
        {
          "internalType": "bytes32",
          "name": "role",
          "type": "bytes32"
        },
        {
          "internalType": "address",
          "name": "account",
          "type": "address"
        }
      ],
      "name": "grantRole",
      "outputs": [],
      "stateMutability": "nonpayable",
      "type": "function"
    },
    {
      "inputs": [
        {
          "internalType": "bytes32",
          "name": "role",
          "type": "bytes32"
        },
        {
          "internalType": "address",
          "name": "account",
          "type": "address"
        }
      ],
      "name": "hasRole",
      "outputs": [
        {
          "internalType": "bool",
          "name": "",
          "type": "bool"
        }
      ],
      "stateMutability": "view",
      "type": "function"
    },
    {
      "inputs": [],
      "name": "initialize",
      "outputs": [],
      "stateMutability": "nonpayable",
      "type": "function"
    },
    {
      "inputs": [],
      "name": "liquidationValue",
      "outputs": [
        {
          "internalType": "uint256",
          "name": "",
          "type": "uint256"
        }
      ],
      "stateMutability": "view",
      "type": "function"
    },
    {
      "inputs": [],
      "name": "lpToken",
      "outputs": [
        {
          "internalType": "contract IStablePool",
          "name": "",
          "type": "address"
        }
      ],
      "stateMutability": "view",
      "type": "function"
    },
    {
      "inputs": [],
      "name": "miniChefV2",
      "outputs": [
        {
          "internalType": "contract IMiniChefV2",
          "name": "",
          "type": "address"
        }
      ],
      "stateMutability": "view",
      "type": "function"
    },
    {
      "inputs": [],
      "name": "navSlippageBP",
      "outputs": [
        {
          "internalType": "uint256",
          "name": "",
          "type": "uint256"
        }
      ],
      "stateMutability": "view",
      "type": "function"
    },
    {
      "inputs": [],
      "name": "netAssetValue",
      "outputs": [
        {
          "internalType": "uint256",
          "name": "",
          "type": "uint256"
        }
      ],
      "stateMutability": "view",
      "type": "function"
    },
    {
      "inputs": [],
      "name": "op",
      "outputs": [
        {
          "internalType": "contract IERC20",
          "name": "",
          "type": "address"
        }
      ],
      "stateMutability": "view",
      "type": "function"
    },
    {
      "inputs": [],
      "name": "oracleUsdc",
      "outputs": [
        {
          "internalType": "contract IPriceFeed",
          "name": "",
          "type": "address"
        }
      ],
      "stateMutability": "view",
      "type": "function"
    },
    {
      "inputs": [],
      "name": "oracleUsdt",
      "outputs": [
        {
          "internalType": "contract IPriceFeed",
          "name": "",
          "type": "address"
        }
      ],
      "stateMutability": "view",
      "type": "function"
    },
    {
      "inputs": [],
      "name": "pid",
      "outputs": [
        {
          "internalType": "uint256",
          "name": "",
          "type": "uint256"
        }
      ],
      "stateMutability": "view",
      "type": "function"
    },
    {
      "inputs": [],
      "name": "portfolioManager",
      "outputs": [
        {
          "internalType": "address",
          "name": "",
          "type": "address"
        }
      ],
      "stateMutability": "view",
      "type": "function"
    },
    {
      "inputs": [],
      "name": "proxiableUUID",
      "outputs": [
        {
          "internalType": "bytes32",
          "name": "",
          "type": "bytes32"
        }
      ],
      "stateMutability": "view",
      "type": "function"
    },
    {
      "inputs": [
        {
          "internalType": "bytes32",
          "name": "role",
          "type": "bytes32"
        },
        {
          "internalType": "address",
          "name": "account",
          "type": "address"
        }
      ],
      "name": "renounceRole",
      "outputs": [],
      "stateMutability": "nonpayable",
      "type": "function"
    },
    {
      "inputs": [
        {
          "internalType": "bytes32",
          "name": "role",
          "type": "bytes32"
        },
        {
          "internalType": "address",
          "name": "account",
          "type": "address"
        }
      ],
      "name": "revokeRole",
      "outputs": [],
      "stateMutability": "nonpayable",
      "type": "function"
    },
    {
      "inputs": [],
      "name": "rewardWallet",
      "outputs": [
        {
          "internalType": "address",
          "name": "",
          "type": "address"
        }
      ],
      "stateMutability": "view",
      "type": "function"
    },
    {
      "inputs": [
        {
          "components": [
            {
              "internalType": "address",
              "name": "usdc",
              "type": "address"
            },
            {
              "internalType": "address",
              "name": "usdt",
              "type": "address"
            },
            {
              "internalType": "address",
              "name": "op",
              "type": "address"
            },
            {
              "internalType": "address",
              "name": "sushi",
              "type": "address"
            },
            {
              "internalType": "address",
              "name": "bentoBox",
              "type": "address"
            },
            {
              "internalType": "address",
              "name": "tridentRouter",
              "type": "address"
            },
            {
              "internalType": "address",
              "name": "miniChefV2",
              "type": "address"
            },
            {
              "internalType": "address",
              "name": "lpToken",
              "type": "address"
            },
            {
              "internalType": "uint256",
              "name": "pid",
              "type": "uint256"
            },
            {
              "internalType": "address",
              "name": "oracleUsdc",
              "type": "address"
            },
            {
              "internalType": "address",
              "name": "oracleUsdt",
              "type": "address"
            },
            {
              "internalType": "address",
              "name": "curve3Pool",
              "type": "address"
            },
            {
              "internalType": "address",
              "name": "velodromeRouter",
              "type": "address"
            },
            {
              "internalType": "address",
              "name": "rewardWallet",
              "type": "address"
            }
          ],
          "internalType": "struct StrategySushiswapUsdcUsdt.StrategyParams",
          "name": "params",
          "type": "tuple"
        }
      ],
      "name": "setParams",
      "outputs": [],
      "stateMutability": "nonpayable",
      "type": "function"
    },
    {
      "inputs": [
        {
          "internalType": "address",
          "name": "_value",
          "type": "address"
        }
      ],
      "name": "setPortfolioManager",
      "outputs": [],
      "stateMutability": "nonpayable",
      "type": "function"
    },
    {
      "inputs": [
        {
          "internalType": "uint256",
          "name": "_swapSlippageBP",
          "type": "uint256"
        },
        {
          "internalType": "uint256",
          "name": "_navSlippageBP",
          "type": "uint256"
        },
        {
          "internalType": "uint256",
          "name": "_stakeSlippageBP",
          "type": "uint256"
        }
      ],
      "name": "setSlippages",
      "outputs": [],
      "stateMutability": "nonpayable",
      "type": "function"
    },
    {
      "inputs": [
        {
          "internalType": "address",
          "name": "_asset",
          "type": "address"
        },
        {
          "internalType": "uint256",
          "name": "_amount",
          "type": "uint256"
        }
      ],
      "name": "stake",
      "outputs": [],
      "stateMutability": "nonpayable",
      "type": "function"
    },
    {
      "inputs": [],
      "name": "stakeSlippageBP",
      "outputs": [
        {
          "internalType": "uint256",
          "name": "",
          "type": "uint256"
        }
      ],
      "stateMutability": "view",
      "type": "function"
    },
    {
      "inputs": [
        {
          "internalType": "bytes4",
          "name": "interfaceId",
          "type": "bytes4"
        }
      ],
      "name": "supportsInterface",
      "outputs": [
        {
          "internalType": "bool",
          "name": "",
          "type": "bool"
        }
      ],
      "stateMutability": "view",
      "type": "function"
    },
    {
      "inputs": [],
      "name": "sushi",
      "outputs": [
        {
          "internalType": "contract IERC20",
          "name": "",
          "type": "address"
        }
      ],
      "stateMutability": "view",
      "type": "function"
    },
    {
      "inputs": [],
      "name": "swapSlippageBP",
      "outputs": [
        {
          "internalType": "uint256",
          "name": "",
          "type": "uint256"
        }
      ],
      "stateMutability": "view",
      "type": "function"
    },
    {
      "inputs": [
        {
          "internalType": "address",
          "name": "_asset",
          "type": "address"
        },
        {
          "internalType": "uint256",
          "name": "_amount",
          "type": "uint256"
        }
      ],
      "name": "test_stake",
      "outputs": [],
      "stateMutability": "nonpayable",
      "type": "function"
    },
    {
      "inputs": [
        {
          "internalType": "address",
          "name": "_asset",
          "type": "address"
        },
        {
          "internalType": "uint256",
          "name": "_amount",
          "type": "uint256"
        },
        {
          "internalType": "address",
          "name": "_beneficiary",
          "type": "address"
        }
      ],
      "name": "test_unstake",
      "outputs": [
        {
          "internalType": "uint256",
          "name": "",
          "type": "uint256"
        }
      ],
      "stateMutability": "nonpayable",
      "type": "function"
    },
    {
      "inputs": [],
      "name": "tridentRouter",
      "outputs": [
        {
          "internalType": "contract ITridentRouter",
          "name": "",
          "type": "address"
        }
      ],
      "stateMutability": "view",
      "type": "function"
    },
    {
      "inputs": [
        {
          "internalType": "address",
          "name": "_asset",
          "type": "address"
        },
        {
          "internalType": "uint256",
          "name": "_amount",
          "type": "uint256"
        },
        {
          "internalType": "address",
          "name": "_beneficiary",
          "type": "address"
        },
        {
          "internalType": "bool",
          "name": "_targetIsZero",
          "type": "bool"
        }
      ],
      "name": "unstake",
      "outputs": [
        {
          "internalType": "uint256",
          "name": "",
          "type": "uint256"
        }
      ],
      "stateMutability": "nonpayable",
      "type": "function"
    },
    {
      "inputs": [
        {
          "internalType": "address",
          "name": "newImplementation",
          "type": "address"
        }
      ],
      "name": "upgradeTo",
      "outputs": [],
      "stateMutability": "nonpayable",
      "type": "function"
    },
    {
      "inputs": [
        {
          "internalType": "address",
          "name": "newImplementation",
          "type": "address"
        },
        {
          "internalType": "bytes",
          "name": "data",
          "type": "bytes"
        }
      ],
      "name": "upgradeToAndCall",
      "outputs": [],
      "stateMutability": "payable",
      "type": "function"
    },
    {
      "inputs": [],
      "name": "usdc",
      "outputs": [
        {
          "internalType": "contract IERC20",
          "name": "",
          "type": "address"
        }
      ],
      "stateMutability": "view",
      "type": "function"
    },
    {
      "inputs": [],
      "name": "usdcDm",
      "outputs": [
        {
          "internalType": "uint256",
          "name": "",
          "type": "uint256"
        }
      ],
      "stateMutability": "view",
      "type": "function"
    },
    {
      "inputs": [],
      "name": "usdt",
      "outputs": [
        {
          "internalType": "contract IERC20",
          "name": "",
          "type": "address"
        }
      ],
      "stateMutability": "view",
      "type": "function"
    },
    {
      "inputs": [],
      "name": "usdtDm",
      "outputs": [
        {
          "internalType": "uint256",
          "name": "",
          "type": "uint256"
        }
      ],
      "stateMutability": "view",
      "type": "function"
    },
    {
      "inputs": [],
      "name": "velodromeRouter",
      "outputs": [
        {
          "internalType": "contract IRouter",
          "name": "",
          "type": "address"
        }
      ],
      "stateMutability": "view",
      "type": "function"
    }
  ],
  "numDeployments": 1,
  "solcInputHash": "8e16fb18bf020111979de9d7362b1ac0",
  "bytecode": "0x60a06040523060601b6080523480156200001857600080fd5b50600054610100900460ff16158080156200003a5750600054600160ff909116105b806200006a575062000057306200014460201b620026981760201c565b1580156200006a575060005460ff166001145b620000d25760405162461bcd60e51b815260206004820152602e60248201527f496e697469616c697a61626c653a20636f6e747261637420697320616c72656160448201526d191e481a5b9a5d1a585b1a5e995960921b606482015260840160405180910390fd5b6000805460ff191660011790558015620000f6576000805461ff0019166101001790555b80156200013d576000805461ff0019169055604051600181527f7f26b83ff96e1f2b6a682f133852f6798a09c465da95921460cefb38474024989060200160405180910390a15b5062000153565b6001600160a01b03163b151590565b60805160601c6153726200018e600039600081816108b4015281816108f401528181610994015281816109d40152610a6301526153726000f3fe60806040526004361061025c5760003560e01c806363a6b1da11610144578063ae30c110116100b6578063d57074631161007a578063d5707463146106fb578063ec1f1f691461071b578063ef5cfb8c1461073c578063f10684541461075c578063f6f6b88114610773578063fb75b2c71461079357600080fd5b8063ae30c11014610664578063bf52e08014610684578063c2b2bda61461069a578063cc6522c3146106ba578063d547741f146106db57600080fd5b80638129fc1c116101085780638129fc1c146105c557806391d14854146105da578063a217fddf146105fa578063a3673b381461060f578063a440b21a14610624578063adc9772e1461064457600080fd5b806363a6b1da1461052057806364b5528a1461054157806367185e33146105625780636b2ace87146105825780637d5f5802146105a357600080fd5b80633659cfe6116101dd57806352d1902d116101a157806352d1902d1461045f5780635ca558f8146104745780635dbd733a1461048a5780635fcbd285146104be5780635fea9cbb146104df578063620b75df1461050057600080fd5b80633659cfe6146103c9578063366ac47c146103e95780633e413bee1461040a5780634b7f63631461042b5780634f1ef2861461044c57600080fd5b8063248a9ca311610224578063248a9ca3146103215780632576e65a146103515780632f2ff15d146103665780632f48ab7d1461038857806336568abe146103a957600080fd5b806301ffc9a7146102615780630a087903146102965780630f9033f7146102cf578063119cd879146102f45780631b1e7ddc1461030a575b600080fd5b34801561026d57600080fd5b5061028161027c366004614bbb565b6107b4565b60405190151581526020015b60405180910390f35b3480156102a257600080fd5b50610130546102b7906001600160a01b031681565b6040516001600160a01b03909116815260200161028d565b3480156102db57600080fd5b506102e661013c5481565b60405190815260200161028d565b34801561030057600080fd5b506102e660fd5481565b34801561031657600080fd5b506102e661013b5481565b34801561032d57600080fd5b506102e661033c366004614b59565b60009081526065602052604090206001015490565b34801561035d57600080fd5b506102e66107eb565b34801561037257600080fd5b50610386610381366004614b8b565b6107fc565b005b34801561039457600080fd5b5061012e546102b7906001600160a01b031681565b3480156103b557600080fd5b506103866103c4366004614b8b565b610826565b3480156103d557600080fd5b506103866103e43660046148ec565b6108a9565b3480156103f557600080fd5b50610139546102b7906001600160a01b031681565b34801561041657600080fd5b5061012d546102b7906001600160a01b031681565b34801561043757600080fd5b50610133546102b7906001600160a01b031681565b61038661045a366004614926565b610989565b34801561046b57600080fd5b506102e6610a56565b34801561048057600080fd5b506102e660fe5481565b34801561049657600080fd5b506102e67fd67ad422505496469a1adf6cdf9e5ee92ac5d33992843c9ecc4b2f6d6cde913781565b3480156104ca57600080fd5b50610134546102b7906001600160a01b031681565b3480156104eb57600080fd5b50610136546102b7906001600160a01b031681565b34801561050c57600080fd5b5060fb546102b7906001600160a01b031681565b34801561052c57600080fd5b50610138546102b7906001600160a01b031681565b34801561054d57600080fd5b50610132546102b7906001600160a01b031681565b34801561056e57600080fd5b506102e661057d3660046149fa565b610b09565b34801561058e57600080fd5b50610131546102b7906001600160a01b031681565b3480156105af57600080fd5b506102e66000805160206152d683398151915281565b3480156105d157600080fd5b506103866110ed565b3480156105e657600080fd5b506102816105f5366004614b8b565b6111b7565b34801561060657600080fd5b506102e6600081565b34801561061b57600080fd5b506102e66111e2565b34801561063057600080fd5b5061038661063f3660046148ec565b6111ee565b34801561065057600080fd5b5061038661065f3660046149ce565b61131d565b34801561067057600080fd5b5061038661067f366004614c22565b61154d565b34801561069057600080fd5b506102e660fc5481565b3480156106a657600080fd5b506103866106b53660046149ce565b6116c2565b3480156106c657600080fd5b50610137546102b7906001600160a01b031681565b3480156106e757600080fd5b506103866106f6366004614b8b565b611e7a565b34801561070757600080fd5b50610386610716366004614be5565b611e9f565b34801561072757600080fd5b5061012f546102b7906001600160a01b031681565b34801561074857600080fd5b506102e66107573660046148ec565b612348565b34801561076857600080fd5b506102e66101355481565b34801561077f57600080fd5b506102e661078e366004614a3c565b6123cd565b34801561079f57600080fd5b5061013a546102b7906001600160a01b031681565b60006001600160e01b03198216637965db0b60e01b14806107e557506301ffc9a760e01b6001600160e01b03198316145b92915050565b60006107f760006126a7565b905090565b600082815260656020526040902060010154610817816129ea565b61082183836129f4565b505050565b6001600160a01b038116331461089b5760405162461bcd60e51b815260206004820152602f60248201527f416363657373436f6e74726f6c3a2063616e206f6e6c792072656e6f756e636560448201526e103937b632b9903337b91039b2b63360891b60648201526084015b60405180910390fd5b6108a58282612a7a565b5050565b306001600160a01b037f00000000000000000000000000000000000000000000000000000000000000001614156108f25760405162461bcd60e51b815260040161089290614f48565b7f00000000000000000000000000000000000000000000000000000000000000006001600160a01b031661093b6000805160206152f6833981519152546001600160a01b031690565b6001600160a01b0316146109615760405162461bcd60e51b815260040161089290614f94565b61096a81612ae1565b6040805160008082526020820190925261098691839190612aec565b50565b306001600160a01b037f00000000000000000000000000000000000000000000000000000000000000001614156109d25760405162461bcd60e51b815260040161089290614f48565b7f00000000000000000000000000000000000000000000000000000000000000006001600160a01b0316610a1b6000805160206152f6833981519152546001600160a01b031690565b6001600160a01b031614610a415760405162461bcd60e51b815260040161089290614f94565b610a4a82612ae1565b6108a582826001612aec565b6000306001600160a01b037f00000000000000000000000000000000000000000000000000000000000000001614610af65760405162461bcd60e51b815260206004820152603860248201527f555550535570677261646561626c653a206d757374206e6f742062652063616c60448201527f6c6564207468726f7567682064656c656761746563616c6c00000000000000006064820152608401610892565b506000805160206152f683398151915290565b60008061013460009054906101000a90046001600160a01b03166001600160a01b03166318160ddd6040518163ffffffff1660e01b815260040160206040518083038186803b158015610b5b57600080fd5b505afa158015610b6f573d6000803e3d6000fd5b505050506040513d601f19601f82011682018060405250810190610b939190614b72565b6101345460408051630240bc6b60e21b8152815193945060009384936001600160a01b031692630902f1ac9260048082019391829003018186803b158015610bda57600080fd5b505afa158015610bee573d6000803e3d6000fd5b505050506040513d601f19601f82011682018060405250810190610c129190614bfe565b6101385461012d5461012e54939550919350600092610c63926001600160a01b03928316929081169116610c51610c4a8c600a6150b4565b6001612c66565b88888861013b5461013c546001612c89565b61013354610135546040516393f1a40b60e01b815260048101919091523060248201529192506000916001600160a01b03909116906393f1a40b90604401604080518083038186803b158015610cb857600080fd5b505afa158015610ccc573d6000803e3d6000fd5b505050506040513d601f19601f82011682018060405250810190610cf09190614bfe565b50905080821115610cff578091505b6101335461013554604051630ad58d2f60e01b81526004810191909152602481018490523060448201526001600160a01b0390911690630ad58d2f90606401600060405180830381600087803b158015610d5857600080fd5b505af1158015610d6c573d6000803e3d6000fd5b505050506000610d94868487610d8291906151dc565b610d8c91906150cc565b60fe54612d61565b90506000610da687610d8286886151dc565b9050610dc2604080518082019091526000808252602082015290565b61012d546001600160a01b0316815260208101839052610df2604080518082019091526000808252602082015290565b61012e546001600160a01b031681526020810183905260408051600280825260608201909252600091816020015b6040805180820190915260008082526020820152815260200190600190039081610e205790505090508281600081518110610e5d57610e5d615286565b60200260200101819052508181600181518110610e7c57610e7c615286565b6020908102919091010152610134546101325460405163095ea7b360e01b81526001600160a01b039283169263095ea7b392610ebf929116908a90600401614ddd565b602060405180830381600087803b158015610ed957600080fd5b505af1158015610eed573d6000803e3d6000fd5b505050506040513d601f19601f82011682018060405250810190610f119190614b3c565b50610132546101345460408051306020820152600081830152815180820383018152606082019283905263783312d960e01b9092526001600160a01b039384169363783312d993610f6c939116918b91908790606401614df6565b600060405180830381600087803b158015610f8657600080fd5b505af1158015610f9a573d6000803e3d6000fd5b505061012e546040516370a0823160e01b8152306004820152600093506001600160a01b0390911691506370a082319060240160206040518083038186803b158015610fe557600080fd5b505afa158015610ff9573d6000803e3d6000fd5b505050506040513d601f19601f8201168201806040525081019061101d9190614b72565b6101385461012e5461012d5492935061105b926001600160a01b039283169291821691168461105661104e82612d70565b60fc54612d61565b612dbc565b5061012d546040516370a0823160e01b81523060048201526001600160a01b03909116906370a082319060240160206040518083038186803b1580156110a057600080fd5b505afa1580156110b4573d6000803e3d6000fd5b505050506040513d601f19601f820116820180604052508101906110d89190614b72565b9b5050505050505050505050505b9392505050565b600054610100900460ff161580801561110d5750600054600160ff909116105b806111275750303b158015611127575060005460ff166001145b6111435760405162461bcd60e51b815260040161089290614fe0565b6000805460ff191660011790558015611166576000805461ff0019166101001790555b61116e612f9b565b8015610986576000805461ff0019169055604051600181527f7f26b83ff96e1f2b6a682f133852f6798a09c465da95921460cefb3847402498906020015b60405180910390a150565b60009182526065602090815260408084206001600160a01b0393909316845291905290205460ff1690565b60006107f760016126a7565b6111f96000336111b7565b61123c5760405162461bcd60e51b81526020600482015260146024820152735265737472696374656420746f2061646d696e7360601b6044820152606401610892565b6001600160a01b0381166112925760405162461bcd60e51b815260206004820152601860248201527f5a65726f2061646472657373206e6f7420616c6c6f77656400000000000000006044820152606401610892565b60fb546112b7906000805160206152d6833981519152906001600160a01b0316611e7a565b6112cf6000805160206152d6833981519152826107fc565b60fb80546001600160a01b0319166001600160a01b0383169081179091556040519081527ff7b449fcd5cfb7379dcd34cb69428dd9f882033b15be33d83b42d91daa28eeb7906020016111ac565b6113356000805160206152d6833981519152336111b7565b6113515760405162461bcd60e51b815260040161089290614f11565b60006113cf306001600160a01b031663a3673b386040518163ffffffff1660e01b815260040160206040518083038186803b15801561138f57600080fd5b505afa1580156113a3573d6000803e3d6000fd5b505050506040513d601f19601f820116820180604052508101906113c79190614b72565b60fd54612d61565b6040516370a0823160e01b81523060048201529091506114549084906001600160a01b038216906370a082319060240160206040518083038186803b15801561141757600080fd5b505afa15801561142b573d6000803e3d6000fd5b505050506040513d601f19601f8201168201806040525081019061144f9190614b72565b613080565b80306001600160a01b031663a3673b386040518163ffffffff1660e01b815260040160206040518083038186803b15801561148e57600080fd5b505afa1580156114a2573d6000803e3d6000fd5b505050506040513d601f19601f820116820180604052508101906114c69190614b72565b10156115145760405162461bcd60e51b815260206004820152601f60248201527f5374726174656779204e4156206c657373207468616e206578706563746564006044820152606401610892565b6040518281527f227a473b70d2f893cc7659219575c030a63b5743024fe1e0c1a680e708b1525a906020015b60405180910390a1505050565b6115777fd67ad422505496469a1adf6cdf9e5ee92ac5d33992843c9ecc4b2f6d6cde9137336111b7565b8061161e575060fb54604051632474521560e21b81527fd67ad422505496469a1adf6cdf9e5ee92ac5d33992843c9ecc4b2f6d6cde913760048201523360248201526001600160a01b03909116906391d148549060440160206040518083038186803b1580156115e657600080fd5b505afa1580156115fa573d6000803e3d6000fd5b505050506040513d601f19601f8201168201806040525081019061161e9190614b3c565b6116755760405162461bcd60e51b815260206004820152602260248201527f5265737472696374656420746f20504f5254464f4c494f5f4147454e545f524f6044820152614c4560f01b6064820152608401610892565b60fc83905560fd82905560fe81905560408051848152602081018490529081018290527f116fbf1e97a2be629ad98abfb6c332733c8996c2dfb174dd2efe8440df381d1a90606001611540565b61013454604080516318160ddd60e01b815290516000926001600160a01b0316916318160ddd916004808301926020929190829003018186803b15801561170857600080fd5b505afa15801561171c573d6000803e3d6000fd5b505050506040513d601f19601f820116820180604052508101906117409190614b72565b6101345460408051630240bc6b60e21b8152815193945060009384936001600160a01b031692630902f1ac9260048082019391829003018186803b15801561178757600080fd5b505afa15801561179b573d6000803e3d6000fd5b505050506040513d601f19601f820116820180604052508101906117bf9190614bfe565b915091506103e8821180156117d557506103e881115b61182c5760405162461bcd60e51b815260206004820152602260248201527f4c6971756964697479206c70546f6b656e20726573657276657320746f6f206c6044820152616f7760f01b6064820152608401610892565b61012d546040516370a0823160e01b81523060048201526000916001600160a01b0316906370a082319060240160206040518083038186803b15801561187157600080fd5b505afa158015611885573d6000803e3d6000fd5b505050506040513d601f19601f820116820180604052508101906118a99190614b72565b6101385461012d5461012e5461013b5461013c549495506000946118e5946001600160a01b0390811694811693169187918a918a91600161308a565b6101385461012d5461012e54929350611916926001600160a01b039283169291821691168461105661104e82613135565b5061012d546040516370a0823160e01b81523060048201526001600160a01b03909116906370a082319060240160206040518083038186803b15801561195b57600080fd5b505afa15801561196f573d6000803e3d6000fd5b505050506040513d601f19601f820116820180604052508101906119939190614b72565b61012e546040516370a0823160e01b81523060048201529193506000916001600160a01b03909116906370a082319060240160206040518083038186803b1580156119dd57600080fd5b505afa1580156119f1573d6000803e3d6000fd5b505050506040513d601f19601f82011682018060405250810190611a159190614b72565b9050611a3a604080516060810182526000808252602082018190529181019190915290565b61012d546001600160a01b031681526001602082015260408101849052611a7a604080516060810182526000808252602082018190529181019190915290565b61012e546001600160a01b031681526001602083015260408082018490528051600280825260608201909252600091816020015b6040805160608101825260008082526020808301829052928201528252600019909201910181611aae5790505090508281600081518110611af157611af1615286565b60200260200101819052508181600181518110611b1057611b10615286565b60209081029190910101526000611b2b89610d828c8a6151dc565b61012d546101315460405163095ea7b360e01b81529293506001600160a01b039182169263095ea7b392611b659216908b90600401614ddd565b602060405180830381600087803b158015611b7f57600080fd5b505af1158015611b93573d6000803e3d6000fd5b505050506040513d601f19601f82011682018060405250810190611bb79190614b3c565b5061012e546101315460405163095ea7b360e01b81526001600160a01b039283169263095ea7b392611bf0929116908990600401614ddd565b602060405180830381600087803b158015611c0a57600080fd5b505af1158015611c1e573d6000803e3d6000fd5b505050506040513d601f19601f82011682018060405250810190611c429190614b3c565b506101325461013454604080513060208201526001600160a01b0393841693632cfcb94f9387939116918691016040516020818303038152906040526040518563ffffffff1660e01b8152600401611c9d9493929190614e6f565b602060405180830381600087803b158015611cb757600080fd5b505af1158015611ccb573d6000803e3d6000fd5b505050506040513d601f19601f82011682018060405250810190611cef9190614b72565b50610134546040516370a0823160e01b81523060048201526000916001600160a01b0316906370a082319060240160206040518083038186803b158015611d3557600080fd5b505afa158015611d49573d6000803e3d6000fd5b505050506040513d601f19601f82011682018060405250810190611d6d9190614b72565b610134546101335460405163095ea7b360e01b81529293506001600160a01b039182169263095ea7b392611da79216908590600401614ddd565b602060405180830381600087803b158015611dc157600080fd5b505af1158015611dd5573d6000803e3d6000fd5b505050506040513d601f19601f82011682018060405250810190611df99190614b3c565b506101335461013554604051638dbdbe6d60e01b81526004810191909152602481018390523060448201526001600160a01b0390911690638dbdbe6d90606401600060405180830381600087803b158015611e5357600080fd5b505af1158015611e67573d6000803e3d6000fd5b5050505050505050505050505050505050565b600082815260656020526040902060010154611e95816129ea565b6108218383612a7a565b611eaa6000336111b7565b611eed5760405162461bcd60e51b81526020600482015260146024820152735265737472696374656420746f2061646d696e7360601b6044820152606401610892565b611efa60208201826148ec565b61012d80546001600160a01b0319166001600160a01b0392909216919091179055611f2b60408201602083016148ec565b61012e80546001600160a01b0319166001600160a01b0392909216919091179055611f5c60608201604083016148ec565b61012f80546001600160a01b0319166001600160a01b0392909216919091179055611f8d60808201606083016148ec565b61013080546001600160a01b0319166001600160a01b0392909216919091179055611fbe60a08201608083016148ec565b61013180546001600160a01b0319166001600160a01b0392909216919091179055611fef60c0820160a083016148ec565b61013280546001600160a01b0319166001600160a01b039290921691909117905561202060e0820160c083016148ec565b61013380546001600160a01b0319166001600160a01b0392909216919091179055612052610100820160e083016148ec565b61013480546001600160a01b0319166001600160a01b03929092169190911790556101008101356101355561208f610140820161012083016148ec565b61013680546001600160a01b0319166001600160a01b03929092169190911790556120c2610160820161014083016148ec565b61013780546001600160a01b0319166001600160a01b03929092169190911790556120f5610180820161016083016148ec565b61013880546001600160a01b0319166001600160a01b03929092169190911790556121286101a0820161018083016148ec565b61013980546001600160a01b0319166001600160a01b039290921691909117905561215b6101c082016101a083016148ec565b61013a80546001600160a01b0319166001600160a01b039290921691909117905561218960208201826148ec565b6001600160a01b031663313ce5676040518163ffffffff1660e01b815260040160206040518083038186803b1580156121c157600080fd5b505afa1580156121d5573d6000803e3d6000fd5b505050506040513d601f19601f820116820180604052508101906121f99190614c9e565b61220490600a615131565b61013b5561221860408201602083016148ec565b6001600160a01b031663313ce5676040518163ffffffff1660e01b815260040160206040518083038186803b15801561225057600080fd5b505afa158015612264573d6000803e3d6000fd5b505050506040513d601f19601f820116820180604052508101906122889190614c9e565b61229390600a615131565b61013c55610131546101325460405163c0a47c9360e01b81523060048201526001600160a01b039182166024820152600160448201526000606482018190526084820181905260a482015291169063c0a47c939060c401600060405180830381600087803b15801561230457600080fd5b505af1158015612318573d6000803e3d6000fd5b50506040517fea5646eb3528e525944447a4a97de700dd472298626e5c0481d1c82c3da86ea5925060009150a150565b60006123626000805160206152d6833981519152336111b7565b61237e5760405162461bcd60e51b815260040161089290614f11565b600061238983613181565b905080156123c5576040518181527f3ac0594a85a20354f9dc74f33728416d19ce00d04a406c108cc2dcf2cecea1349060200160405180910390a15b90505b919050565b60006123e76000805160206152d6833981519152336111b7565b6124035760405162461bcd60e51b815260040161089290614f11565b6000612441306001600160a01b031663a3673b386040518163ffffffff1660e01b815260040160206040518083038186803b15801561138f57600080fd5b905060008084156124685761245586613181565b90506124618887613533565b91506124d7565b612473888888613b21565b9150868210156124d75760405162461bcd60e51b815260206004820152602960248201527f52657475726e65642076616c7565206c657373207468616e2072657175657374604482015268195908185b5bdd5b9d60ba1b6064820152608401610892565b82306001600160a01b031663a3673b386040518163ffffffff1660e01b815260040160206040518083038186803b15801561251157600080fd5b505afa158015612525573d6000803e3d6000fd5b505050506040513d601f19601f820116820180604052508101906125499190614b72565b10156125975760405162461bcd60e51b815260206004820152601f60248201527f5374726174656779204e4156206c657373207468616e206578706563746564006044820152606401610892565b60405163a9059cbb60e01b81526001600160a01b0389169063a9059cbb906125c59089908690600401614ddd565b602060405180830381600087803b1580156125df57600080fd5b505af11580156125f3573d6000803e3d6000fd5b505050506040513d601f19601f820116820180604052508101906126179190614b3c565b5060408051888152602081018490527f9045c2ac9b2026de8075f2701bbdde882cd5e830b3b1ead9a15b22f2b5b93742910160405180910390a1801561268b576040518181527f3ac0594a85a20354f9dc74f33728416d19ce00d04a406c108cc2dcf2cecea1349060200160405180910390a15b509150505b949350505050565b6001600160a01b03163b151590565b61012d546040516370a0823160e01b815230600482015260009182916001600160a01b03909116906370a082319060240160206040518083038186803b1580156126f057600080fd5b505afa158015612704573d6000803e3d6000fd5b505050506040513d601f19601f820116820180604052508101906127289190614b72565b61012e546040516370a0823160e01b81523060048201529192506000916001600160a01b03909116906370a082319060240160206040518083038186803b15801561277257600080fd5b505afa158015612786573d6000803e3d6000fd5b505050506040513d601f19601f820116820180604052508101906127aa9190614b72565b61013354610135546040516393f1a40b60e01b815260048101919091523060248201529192506000916001600160a01b03909116906393f1a40b90604401604080518083038186803b1580156127ff57600080fd5b505afa158015612813573d6000803e3d6000fd5b505050506040513d601f19601f820116820180604052508101906128379190614bfe565b50905080156129885761013454604080516318160ddd60e01b815290516000926001600160a01b0316916318160ddd916004808301926020929190829003018186803b15801561288657600080fd5b505afa15801561289a573d6000803e3d6000fd5b505050506040513d601f19601f820116820180604052508101906128be9190614b72565b6101345460408051630240bc6b60e21b8152815193945060009384936001600160a01b031692630902f1ac9260048082019391829003018186803b15801561290557600080fd5b505afa158015612919573d6000803e3d6000fd5b505050506040513d601f19601f8201168201806040525081019061293d9190614bfe565b90925090508261294d85846151dc565b61295791906150cc565b61296190876150b4565b95508261296e85836151dc565b61297891906150cc565b61298290866150b4565b94505050505b81156129e15784156129ae5761299d82612d70565b6129a790846150b4565b92506129e1565b6101385461012e5461012d546129d4926001600160a01b03908116928116911685613b2e565b6129de90846150b4565b92505b50909392505050565b6109868133613c1f565b6129fe82826111b7565b6108a55760008281526065602090815260408083206001600160a01b03851684529091529020805460ff19166001179055612a363390565b6001600160a01b0316816001600160a01b0316837f2f8788117e7eff1d82e926ec794901d17c78024a50270940304540a733656f0d60405160405180910390a45050565b612a8482826111b7565b156108a55760008281526065602090815260408083206001600160a01b0385168085529252808320805460ff1916905551339285917ff6391f5c32d9c69d2a47ea670b442974b53935d1edc7fd64eb21e047a839171b9190a45050565b60006108a5816129ea565b7f4910fdfa16fed3260ed0e7147f7cc6da11a60208b5b9406d12a635614ffd91435460ff1615612b1f5761082183613c83565b826001600160a01b03166352d1902d6040518163ffffffff1660e01b815260040160206040518083038186803b158015612b5857600080fd5b505afa925050508015612b88575060408051601f3d908101601f19168201909252612b8591810190614b72565b60015b612beb5760405162461bcd60e51b815260206004820152602e60248201527f45524331393637557067726164653a206e657720696d706c656d656e7461746960448201526d6f6e206973206e6f74205555505360901b6064820152608401610892565b6000805160206152f68339815191528114612c5a5760405162461bcd60e51b815260206004820152602960248201527f45524331393637557067726164653a20756e737570706f727465642070726f786044820152681a58589b195555525160ba1b6064820152608401610892565b50610821838383613d1f565b6000612710612c7583826150b4565b612c7f90856151dc565b6110e691906150cc565b6000612c9584866151dc565b612c9f84886151dc565b612ca991906150b4565b83612cb48a8a6151dc565b612cbe91906151dc565b612cc891906150cc565b905060005b82811015612d5257600088612ce284896151dc565b612cec91906150cc565b90506000612cfc8e8d8f85613b2e565b9050612d0881896151dc565b612d12838b6151dc565b612d1c91906150b4565b82612d278d8d6151dc565b612d3191906151dc565b612d3b91906150cc565b935050508080612d4a90615255565b915050612ccd565b509a9950505050505050505050565b6000612710612c7583826151fb565b610137546000908190612d8b906001600160a01b0316613d4a565b61013654909150600090612da7906001600160a01b0316613d4a565b90506126908461013c5461013b548585613e6e565b60405163095ea7b360e01b81526000906001600160a01b0386169063095ea7b390612ded9089908790600401614ddd565b602060405180830381600087803b158015612e0757600080fd5b505af1158015612e1b573d6000803e3d6000fd5b505050506040513d601f19601f82011682018060405250810190612e3f9190614b3c565b506000806000612e50898989613ea3565b92509250925060008115612ef857604051635320bf6b60e11b8152600f85810b600483015284900b602482015260448101889052606481018790526001600160a01b038b169063a6417ed690608401602060405180830381600087803b158015612eb957600080fd5b505af1158015612ecd573d6000803e3d6000fd5b505050506040513d601f19601f82011682018060405250810190612ef19190614b72565b9050612f8e565b604051630f7c084960e21b8152600f85810b600483015284900b602482015260448101889052606481018790526001600160a01b038b1690633df0212490608401602060405180830381600087803b158015612f5357600080fd5b505af1158015612f67573d6000803e3d6000fd5b505050506040513d601f19601f82011682018060405250810190612f8b9190614b72565b90505b9998505050505050505050565b600054610100900460ff1615808015612fbb5750600054600160ff909116105b80612fd55750303b158015612fd5575060005460ff166001145b612ff15760405162461bcd60e51b815260040161089290614fe0565b6000805460ff191660011790558015613014576000805461ff0019166101001790555b61301c6140f8565b6130246140f8565b61302f6000336129f4565b601460fc81905560fd55600460fe558015610986576000805461ff0019169055604051600181527f7f26b83ff96e1f2b6a682f133852f6798a09c465da95921460cefb3847402498906020016111ac565b6108a582826116c2565b6000848461309885896151dc565b6130a291906150cc565b6130ac91906150b4565b6130b686896151dc565b6130c091906150cc565b905060005b828110156131275760006130db8c8c8c86613b2e565b905086836130e9838b6151dc565b6130f391906150cc565b6130fd91906150b4565b613107888b6151dc565b61311191906150cc565b925050808061311f90615255565b9150506130c5565b509998505050505050505050565b610137546000908190613150906001600160a01b0316613d4a565b6101365490915060009061316c906001600160a01b0316613d4a565b90506126908461013b5461013c548486613e6e565b61013354610135546040516393f1a40b60e01b8152600481019190915230602482015260009182916001600160a01b03909116906393f1a40b90604401604080518083038186803b1580156131d557600080fd5b505afa1580156131e9573d6000803e3d6000fd5b505050506040513d601f19601f8201168201806040525081019061320d9190614bfe565b5090508015613281576101335461013554604051630c7e663b60e11b815260048101919091523060248201526001600160a01b03909116906318fccc7690604401600060405180830381600087803b15801561326857600080fd5b505af115801561327c573d6000803e3d6000fd5b505050505b610130546040516370a0823160e01b81523060048201526000916001600160a01b0316906370a082319060240160206040518083038186803b1580156132c657600080fd5b505afa1580156132da573d6000803e3d6000fd5b505050506040513d601f19601f820116820180604052508101906132fe9190614b72565b90508015613392576101305461013a5460405163a9059cbb60e01b81526001600160a01b039283169263a9059cbb9261333e929116908590600401614ddd565b602060405180830381600087803b15801561335857600080fd5b505af115801561336c573d6000803e3d6000fd5b505050506040513d601f19601f820116820180604052508101906133909190614b3c565b505b61012f546040516370a0823160e01b815230600482015260009182916001600160a01b03909116906370a082319060240160206040518083038186803b1580156133db57600080fd5b505afa1580156133ef573d6000803e3d6000fd5b505050506040513d601f19601f820116820180604052508101906134139190614b72565b9050801561349d576101395461012f5461012d54600092613446926001600160a01b039182169290821691168486614165565b9050801561349b576101395461012f5461012d5461348e926001600160a01b039081169281169116600086606461347e8860636151dc565b61348891906150cc565b306142f3565b61349890846150b4565b92505b505b811561352a5761012d5460405163a9059cbb60e01b81526001600160a01b039091169063a9059cbb906134d69089908690600401614ddd565b602060405180830381600087803b1580156134f057600080fd5b505af1158015613504573d6000803e3d6000fd5b505050506040513d601f19601f820116820180604052508101906135289190614b3c565b505b50949350505050565b61013354610135546040516393f1a40b60e01b8152600481019190915230602482015260009182916001600160a01b03909116906393f1a40b90604401604080518083038186803b15801561358757600080fd5b505afa15801561359b573d6000803e3d6000fd5b505050506040513d601f19601f820116820180604052508101906135bf9190614bfe565b5090508061364b5761012d546040516370a0823160e01b81523060048201526001600160a01b03909116906370a082319060240160206040518083038186803b15801561360b57600080fd5b505afa15801561361f573d6000803e3d6000fd5b505050506040513d601f19601f820116820180604052508101906136439190614b72565b9150506107e5565b6101335461013554604051630ad58d2f60e01b81526004810191909152602481018390523060448201526001600160a01b0390911690630ad58d2f90606401600060405180830381600087803b1580156136a457600080fd5b505af11580156136b8573d6000803e3d6000fd5b50505050600061013460009054906101000a90046001600160a01b03166001600160a01b03166318160ddd6040518163ffffffff1660e01b815260040160206040518083038186803b15801561370d57600080fd5b505afa158015613721573d6000803e3d6000fd5b505050506040513d601f19601f820116820180604052508101906137459190614b72565b6101345460408051630240bc6b60e21b8152815193945060009384936001600160a01b031692630902f1ac9260048082019391829003018186803b15801561378c57600080fd5b505afa1580156137a0573d6000803e3d6000fd5b505050506040513d601f19601f820116820180604052508101906137c49190614bfe565b909250905060006137d984610d8287866151dc565b905060006137eb85610d8288866151dc565b9050613807604080518082019091526000808252602082015290565b61012d546001600160a01b0316815260208101839052613837604080518082019091526000808252602082015290565b61012e546001600160a01b031681526020810183905260408051600280825260608201909252600091816020015b604080518082019091526000808252602082015281526020019060019003908161386557905050905082816000815181106138a2576138a2615286565b602002602001018190525081816001815181106138c1576138c1615286565b6020908102919091010152610134546101325460405163095ea7b360e01b81526001600160a01b039283169263095ea7b392613904929116908d90600401614ddd565b602060405180830381600087803b15801561391e57600080fd5b505af1158015613932573d6000803e3d6000fd5b505050506040513d601f19601f820116820180604052508101906139569190614b3c565b50610132546101345460408051306020820152600081830152815180820383018152606082019283905263783312d960e01b9092526001600160a01b039384169363783312d9936139b1939116918e91908790606401614df6565b600060405180830381600087803b1580156139cb57600080fd5b505af11580156139df573d6000803e3d6000fd5b505061012e546040516370a0823160e01b8152306004820152600093506001600160a01b0390911691506370a082319060240160206040518083038186803b158015613a2a57600080fd5b505afa158015613a3e573d6000803e3d6000fd5b505050506040513d601f19601f82011682018060405250810190613a629190614b72565b6101385461012e5461012d54929350613a93926001600160a01b039283169291821691168461105661104e82612d70565b5061012d546040516370a0823160e01b81523060048201526001600160a01b03909116906370a082319060240160206040518083038186803b158015613ad857600080fd5b505afa158015613aec573d6000803e3d6000fd5b505050506040513d601f19601f82011682018060405250810190613b109190614b72565b9d9c50505050505050505050505050565b6000612690848484610b09565b600080600080613b3f888888613ea3565b9250925092508015613be0576040516307211ef760e01b8152600f84810b600483015283900b6024820152604481018690526001600160a01b038916906307211ef7906064015b60206040518083038186803b158015613b9e57600080fd5b505afa158015613bb2573d6000803e3d6000fd5b505050506040513d601f19601f82011682018060405250810190613bd69190614b72565b9350505050612690565b604051635e0d443f60e01b8152600f84810b600483015283900b6024820152604481018690526001600160a01b03891690635e0d443f90606401613b86565b613c2982826111b7565b6108a557613c41816001600160a01b0316601461450c565b613c4c83602061450c565b604051602001613c5d929190614d68565b60408051601f198184030181529082905262461bcd60e51b825261089291600401614efe565b6001600160a01b0381163b613cf05760405162461bcd60e51b815260206004820152602d60248201527f455243313936373a206e657720696d706c656d656e746174696f6e206973206e60448201526c1bdd08184818dbdb9d1c9858dd609a1b6064820152608401610892565b6000805160206152f683398151915280546001600160a01b0319166001600160a01b0392909216919091179055565b613d28836146a8565b600082511180613d355750805b1561082157613d4483836146e8565b50505050565b6000806000806000856001600160a01b031663feaf968c6040518163ffffffff1660e01b815260040160a06040518083038186803b158015613d8b57600080fd5b505afa158015613d9f573d6000803e3d6000fd5b505050506040513d601f19601f82011682018060405250810190613dc39190614c4e565b9450945050935093508369ffffffffffffffffffff168169ffffffffffffffffffff161015613e1f5760405162461bcd60e51b81526020600482015260086024820152674f6c64206461746160c01b6044820152606401610892565b60008211613e645760405162461bcd60e51b8152602060048201526012602482015271526f756e64206e6f7420636f6d706c65746560701b6044820152606401610892565b5090949350505050565b6000613e7a82866151dc565b83613e8586896151dc565b613e8f91906151dc565b613e9991906150cc565b9695505050505050565b6000808060016001607f1b0380825b6000613ebe8a836147dc565b90506001600160a01b038116613ed45750613f27565b886001600160a01b0316816001600160a01b03161415613ef657819350613f14565b876001600160a01b0316816001600160a01b03161415613f14578192505b81613f1e81615255565b92505050613eb2565b600f83900b60016001607f1b0314801590613f4d5750600f82900b60016001607f1b0314155b15613f6157509093509150600090506140ef565b600f83900b60016001607f1b03141580613f865750600f82900b60016001607f1b0314155b15613fdf5760405162461bcd60e51b815260206004820152602360248201527f437572766553503a20696e636f727265637420746f6b656e207061697220736560448201526207475760ec1b6064820152608401610892565b5060005b6000613fef8a83614869565b90506001600160a01b0381166140055750614058565b886001600160a01b0316816001600160a01b0316141561402757819350614045565b876001600160a01b0316816001600160a01b03161415614045578192505b8161404f81615255565b92505050613fe3565b600f83900b60016001607f1b031480159061407e5750600f82900b60016001607f1b0314155b1561409257509093509150600190506140ef565b60405162461bcd60e51b815260206004820152602c60248201527f437572766553503a2043616e27742066696e6420696e64657820666f7220746f60448201526b1ad95b9cc81a5b881c1bdbdb60a21b6064820152608401610892565b93509350939050565b600054610100900460ff166141635760405162461bcd60e51b815260206004820152602b60248201527f496e697469616c697a61626c653a20636f6e7472616374206973206e6f74206960448201526a6e697469616c697a696e6760a81b6064820152608401610892565b565b604080516001808252818301909252600091829190816020015b604080516060810182526000808252602080830182905292820152825260001990920191018161417f57905050905085816000815181106141c2576141c2615286565b6020026020010151600001906001600160a01b031690816001600160a01b03168152505084816000815181106141fa576141fa615286565b6020026020010151602001906001600160a01b031690816001600160a01b031681525050838160008151811061423257614232615286565b6020908102919091010151901515604091820152516326207f2d60e21b81526000906001600160a01b03891690639881fcb490614275908790869060040161502e565b60006040518083038186803b15801561428d57600080fd5b505afa1580156142a1573d6000803e3d6000fd5b505050506040513d6000823e601f3d908101601f191682016040526142c99190810190614a8f565b9050806001815181106142de576142de615286565b60200260200101519250505095945050505050565b60405163095ea7b360e01b81526000906001600160a01b0388169063095ea7b390614324908b908890600401614ddd565b602060405180830381600087803b15801561433e57600080fd5b505af1158015614352573d6000803e3d6000fd5b505050506040513d601f19601f820116820180604052508101906143769190614b3c565b50604080516001808252818301909252600091816020015b604080516060810182526000808252602080830182905292820152825260001990920191018161438e57905050905087816000815181106143d1576143d1615286565b6020026020010151600001906001600160a01b031690816001600160a01b031681525050868160008151811061440957614409615286565b6020026020010151602001906001600160a01b031690816001600160a01b031681525050858160008151811061444157614441615286565b602090810291909101015190151560409182015251631e82ecdb60e31b81526000906001600160a01b038b169063f41766d89061448a908990899087908a904290600401615047565b600060405180830381600087803b1580156144a457600080fd5b505af11580156144b8573d6000803e3d6000fd5b505050506040513d6000823e601f3d908101601f191682016040526144e09190810190614a8f565b9050806001815181106144f5576144f5615286565b602002602001015192505050979650505050505050565b6060600061451b8360026151dc565b6145269060026150b4565b67ffffffffffffffff81111561453e5761453e61529c565b6040519080825280601f01601f191660200182016040528015614568576020820181803683370190505b509050600360fc1b8160008151811061458357614583615286565b60200101906001600160f81b031916908160001a905350600f60fb1b816001815181106145b2576145b2615286565b60200101906001600160f81b031916908160001a90535060006145d68460026151dc565b6145e19060016150b4565b90505b6001811115614659576f181899199a1a9b1b9c1cb0b131b232b360811b85600f166010811061461557614615615286565b1a60f81b82828151811061462b5761462b615286565b60200101906001600160f81b031916908160001a90535060049490941c936146528161523e565b90506145e4565b5083156110e65760405162461bcd60e51b815260206004820181905260248201527f537472696e67733a20686578206c656e67746820696e73756666696369656e746044820152606401610892565b6146b181613c83565b6040516001600160a01b038216907fbc7cd75a20ee27fd9adebab32041f755214dbc6bffa90cc0225b39da2e5c2d3b90600090a250565b60606001600160a01b0383163b6147505760405162461bcd60e51b815260206004820152602660248201527f416464726573733a2064656c65676174652063616c6c20746f206e6f6e2d636f6044820152651b9d1c9858dd60d21b6064820152608401610892565b600080846001600160a01b03168460405161476b9190614d4c565b600060405180830381855af49150503d80600081146147a6576040519150601f19603f3d011682016040523d82523d6000602084013e6147ab565b606091505b50915091506147d3828260405180606001604052806027815260200161531660279139614899565b95945050505050565b60405163c661065760e01b8152600481018290526000906001600160a01b0384169063c6610657906024015b60206040518083038186803b15801561482057600080fd5b505afa925050508015614850575060408051601f3d908101601f1916820190925261484d91810190614909565b60015b61485957614860565b90506107e5565b50600092915050565b604051630b9947eb60e41b8152600481018290526000906001600160a01b0384169063b9947eb090602401614808565b606083156148a85750816110e6565b8251156148b85782518084602001fd5b8160405162461bcd60e51b81526004016108929190614efe565b805169ffffffffffffffffffff811681146123c857600080fd5b6000602082840312156148fe57600080fd5b81356110e6816152b2565b60006020828403121561491b57600080fd5b81516110e6816152b2565b6000806040838503121561493957600080fd5b8235614944816152b2565b915060208381013567ffffffffffffffff8082111561496257600080fd5b818601915086601f83011261497657600080fd5b8135818111156149885761498861529c565b61499a601f8201601f19168501615083565b915080825287848285010111156149b057600080fd5b80848401858401376000848284010152508093505050509250929050565b600080604083850312156149e157600080fd5b82356149ec816152b2565b946020939093013593505050565b600080600060608486031215614a0f57600080fd5b8335614a1a816152b2565b9250602084013591506040840135614a31816152b2565b809150509250925092565b60008060008060808587031215614a5257600080fd5b8435614a5d816152b2565b9350602085013592506040850135614a74816152b2565b91506060850135614a84816152c7565b939692955090935050565b60006020808385031215614aa257600080fd5b825167ffffffffffffffff80821115614aba57600080fd5b818501915085601f830112614ace57600080fd5b815181811115614ae057614ae061529c565b8060051b9150614af1848301615083565b8181528481019084860184860187018a1015614b0c57600080fd5b600095505b83861015614b2f578051835260019590950194918601918601614b11565b5098975050505050505050565b600060208284031215614b4e57600080fd5b81516110e6816152c7565b600060208284031215614b6b57600080fd5b5035919050565b600060208284031215614b8457600080fd5b5051919050565b60008060408385031215614b9e57600080fd5b823591506020830135614bb0816152b2565b809150509250929050565b600060208284031215614bcd57600080fd5b81356001600160e01b0319811681146110e657600080fd5b60006101c08284031215614bf857600080fd5b50919050565b60008060408385031215614c1157600080fd5b505080516020909101519092909150565b600080600060608486031215614c3757600080fd5b505081359360208301359350604090920135919050565b600080600080600060a08688031215614c6657600080fd5b614c6f866148d2565b9450602086015193506040860151925060608601519150614c92608087016148d2565b90509295509295909350565b600060208284031215614cb057600080fd5b815160ff811681146110e657600080fd5b600081518084526020808501945080840160005b83811015614d1557815180516001600160a01b03908116895284820151168489015260409081015115159088015260609096019590820190600101614cd5565b509495945050505050565b60008151808452614d38816020860160208601615212565b601f01601f19169290920160200192915050565b60008251614d5e818460208701615212565b9190910192915050565b7f416363657373436f6e74726f6c3a206163636f756e7420000000000000000000815260008351614da0816017850160208801615212565b7001034b99036b4b9b9b4b733903937b6329607d1b6017918401918201528351614dd1816028840160208801615212565b01602801949350505050565b6001600160a01b03929092168252602082015260400190565b600060018060a01b038087168352602086818501526040608081860152614e206080860188614d20565b858103606087015286518082528388019184019060005b81811015614e5e578351805188168452860151868401529285019291840191600101614e37565b50909b9a5050505050505050505050565b6080808252855190820181905260009060209060a0840190828901845b82811015614ec957815180516001600160a01b03168552858101511515868601526040908101519085015260609093019290840190600101614e8c565b5050506001600160a01b038716848301528560408501528381036060850152614ef28186614d20565b98975050505050505050565b6020815260006110e66020830184614d20565b6020808252601f908201527f5265737472696374656420746f20504f5254464f4c494f5f4d414e4147455200604082015260600190565b6020808252602c908201527f46756e6374696f6e206d7573742062652063616c6c6564207468726f7567682060408201526b19195b1959d85d1958d85b1b60a21b606082015260800190565b6020808252602c908201527f46756e6374696f6e206d7573742062652063616c6c6564207468726f7567682060408201526b6163746976652070726f787960a01b606082015260800190565b6020808252602e908201527f496e697469616c697a61626c653a20636f6e747261637420697320616c72656160408201526d191e481a5b9a5d1a585b1a5e995960921b606082015260800190565b8281526040602082015260006126906040830184614cc1565b85815284602082015260a06040820152600061506660a0830186614cc1565b6001600160a01b0394909416606083015250608001529392505050565b604051601f8201601f1916810167ffffffffffffffff811182821017156150ac576150ac61529c565b604052919050565b600082198211156150c7576150c7615270565b500190565b6000826150e957634e487b7160e01b600052601260045260246000fd5b500490565b600181815b8085111561512957816000190482111561510f5761510f615270565b8085161561511c57918102915b93841c93908002906150f3565b509250929050565b60006110e660ff84168360008261514a575060016107e5565b81615157575060006107e5565b816001811461516d576002811461517757615193565b60019150506107e5565b60ff84111561518857615188615270565b50506001821b6107e5565b5060208310610133831016604e8410600b84101617156151b6575081810a6107e5565b6151c083836150ee565b80600019048211156151d4576151d4615270565b029392505050565b60008160001904831182151516156151f6576151f6615270565b500290565b60008282101561520d5761520d615270565b500390565b60005b8381101561522d578181015183820152602001615215565b83811115613d445750506000910152565b60008161524d5761524d615270565b506000190190565b600060001982141561526957615269615270565b5060010190565b634e487b7160e01b600052601160045260246000fd5b634e487b7160e01b600052603260045260246000fd5b634e487b7160e01b600052604160045260246000fd5b6001600160a01b038116811461098657600080fd5b801515811461098657600080fdfe90c2aa7471c04182221f68e80c07ab1e5946e4c63f8693e14ca40385d529f051360894a13ba1a3210667c828492db98dca3e2076cc3735a920a3ca505d382bbc416464726573733a206c6f772d6c6576656c2064656c65676174652063616c6c206661696c6564a2646970667358221220e78702adbf0a9c9b9b2b305ebb58ea369fa8438f520be5ed4d6579ba417c55b364736f6c63430008060033",
  "implementation": "0x085c873559359886E33F7469133a820EDccd6A16",
  "devdoc": {
    "kind": "dev",
    "methods": {
      "constructor": {
        "custom:oz-upgrades-unsafe-allow": "constructor"
      },
      "getRoleAdmin(bytes32)": {
        "details": "Returns the admin role that controls `role`. See {grantRole} and {revokeRole}. To change a role's admin, use {_setRoleAdmin}."
      },
      "grantRole(bytes32,address)": {
        "details": "Grants `role` to `account`. If `account` had not been already granted `role`, emits a {RoleGranted} event. Requirements: - the caller must have ``role``'s admin role. May emit a {RoleGranted} event."
      },
      "hasRole(bytes32,address)": {
        "details": "Returns `true` if `account` has been granted `role`."
      },
      "proxiableUUID()": {
        "details": "Implementation of the ERC1822 {proxiableUUID} function. This returns the storage slot used by the implementation. It is used to validate that the this implementation remains valid after an upgrade. IMPORTANT: A proxy pointing at a proxiable contract should not be considered proxiable itself, because this risks bricking a proxy that upgrades to it, by delegating to itself until out of gas. Thus it is critical that this function revert if invoked through a proxy. This is guaranteed by the `notDelegated` modifier."
      },
      "renounceRole(bytes32,address)": {
        "details": "Revokes `role` from the calling account. Roles are often managed via {grantRole} and {revokeRole}: this function's purpose is to provide a mechanism for accounts to lose their privileges if they are compromised (such as when a trusted device is misplaced). If the calling account had been revoked `role`, emits a {RoleRevoked} event. Requirements: - the caller must be `account`. May emit a {RoleRevoked} event."
      },
      "revokeRole(bytes32,address)": {
        "details": "Revokes `role` from `account`. If `account` had been granted `role`, emits a {RoleRevoked} event. Requirements: - the caller must have ``role``'s admin role. May emit a {RoleRevoked} event."
      },
      "supportsInterface(bytes4)": {
        "details": "See {IERC165-supportsInterface}."
      },
      "upgradeTo(address)": {
        "details": "Upgrade the implementation of the proxy to `newImplementation`. Calls {_authorizeUpgrade}. Emits an {Upgraded} event."
      },
      "upgradeToAndCall(address,bytes)": {
        "details": "Upgrade the implementation of the proxy to `newImplementation`, and subsequently execute the function call encoded in `data`. Calls {_authorizeUpgrade}. Emits an {Upgraded} event."
      }
    },
    "version": 1
  },
  "userdoc": {
    "kind": "user",
    "methods": {},
    "version": 1
  },
  "storageLayout": {
    "storage": [
      {
        "astId": 808,
        "contract": "contracts/StrategySushiswapUsdcUsdt.sol:StrategySushiswapUsdcUsdt",
        "label": "_initialized",
        "offset": 0,
        "slot": "0",
        "type": "t_uint8"
      },
      {
        "astId": 811,
        "contract": "contracts/StrategySushiswapUsdcUsdt.sol:StrategySushiswapUsdcUsdt",
        "label": "_initializing",
        "offset": 1,
        "slot": "0",
        "type": "t_bool"
      },
      {
        "astId": 1372,
        "contract": "contracts/StrategySushiswapUsdcUsdt.sol:StrategySushiswapUsdcUsdt",
        "label": "__gap",
        "offset": 0,
        "slot": "1",
        "type": "t_array(t_uint256)50_storage"
      },
      {
        "astId": 1702,
        "contract": "contracts/StrategySushiswapUsdcUsdt.sol:StrategySushiswapUsdcUsdt",
        "label": "__gap",
        "offset": 0,
        "slot": "51",
        "type": "t_array(t_uint256)50_storage"
      },
      {
        "astId": 39,
        "contract": "contracts/StrategySushiswapUsdcUsdt.sol:StrategySushiswapUsdcUsdt",
        "label": "_roles",
        "offset": 0,
        "slot": "101",
        "type": "t_mapping(t_bytes32,t_struct(RoleData)34_storage)"
      },
      {
        "astId": 338,
        "contract": "contracts/StrategySushiswapUsdcUsdt.sol:StrategySushiswapUsdcUsdt",
        "label": "__gap",
        "offset": 0,
        "slot": "102",
        "type": "t_array(t_uint256)49_storage"
      },
      {
        "astId": 790,
        "contract": "contracts/StrategySushiswapUsdcUsdt.sol:StrategySushiswapUsdcUsdt",
        "label": "__gap",
        "offset": 0,
        "slot": "151",
        "type": "t_array(t_uint256)50_storage"
      },
      {
        "astId": 1087,
        "contract": "contracts/StrategySushiswapUsdcUsdt.sol:StrategySushiswapUsdcUsdt",
        "label": "__gap",
        "offset": 0,
        "slot": "201",
        "type": "t_array(t_uint256)50_storage"
      },
      {
        "astId": 5070,
        "contract": "contracts/StrategySushiswapUsdcUsdt.sol:StrategySushiswapUsdcUsdt",
        "label": "portfolioManager",
        "offset": 0,
        "slot": "251",
        "type": "t_address"
      },
      {
        "astId": 5072,
        "contract": "contracts/StrategySushiswapUsdcUsdt.sol:StrategySushiswapUsdcUsdt",
        "label": "swapSlippageBP",
        "offset": 0,
        "slot": "252",
        "type": "t_uint256"
      },
      {
        "astId": 5074,
        "contract": "contracts/StrategySushiswapUsdcUsdt.sol:StrategySushiswapUsdcUsdt",
        "label": "navSlippageBP",
        "offset": 0,
        "slot": "253",
        "type": "t_uint256"
      },
      {
        "astId": 5076,
        "contract": "contracts/StrategySushiswapUsdcUsdt.sol:StrategySushiswapUsdcUsdt",
        "label": "stakeSlippageBP",
        "offset": 0,
        "slot": "254",
        "type": "t_uint256"
      },
      {
        "astId": 5461,
        "contract": "contracts/StrategySushiswapUsdcUsdt.sol:StrategySushiswapUsdcUsdt",
        "label": "__gap",
        "offset": 0,
        "slot": "255",
        "type": "t_array(t_uint256)46_storage"
      },
      {
        "astId": 5553,
        "contract": "contracts/StrategySushiswapUsdcUsdt.sol:StrategySushiswapUsdcUsdt",
        "label": "usdc",
        "offset": 0,
        "slot": "301",
        "type": "t_contract(IERC20)1793"
      },
      {
        "astId": 5556,
        "contract": "contracts/StrategySushiswapUsdcUsdt.sol:StrategySushiswapUsdcUsdt",
        "label": "usdt",
        "offset": 0,
        "slot": "302",
        "type": "t_contract(IERC20)1793"
      },
      {
        "astId": 5559,
        "contract": "contracts/StrategySushiswapUsdcUsdt.sol:StrategySushiswapUsdcUsdt",
        "label": "op",
        "offset": 0,
        "slot": "303",
        "type": "t_contract(IERC20)1793"
      },
      {
        "astId": 5562,
        "contract": "contracts/StrategySushiswapUsdcUsdt.sol:StrategySushiswapUsdcUsdt",
        "label": "sushi",
        "offset": 0,
        "slot": "304",
        "type": "t_contract(IERC20)1793"
      },
      {
        "astId": 5565,
        "contract": "contracts/StrategySushiswapUsdcUsdt.sol:StrategySushiswapUsdcUsdt",
        "label": "bentoBox",
        "offset": 0,
        "slot": "305",
        "type": "t_contract(IBentoBox)4076"
      },
      {
        "astId": 5568,
        "contract": "contracts/StrategySushiswapUsdcUsdt.sol:StrategySushiswapUsdcUsdt",
        "label": "tridentRouter",
        "offset": 0,
        "slot": "306",
        "type": "t_contract(ITridentRouter)3742"
      },
      {
        "astId": 5571,
        "contract": "contracts/StrategySushiswapUsdcUsdt.sol:StrategySushiswapUsdcUsdt",
        "label": "miniChefV2",
        "offset": 0,
        "slot": "307",
        "type": "t_contract(IMiniChefV2)3802"
      },
      {
        "astId": 5574,
        "contract": "contracts/StrategySushiswapUsdcUsdt.sol:StrategySushiswapUsdcUsdt",
        "label": "lpToken",
        "offset": 0,
        "slot": "308",
        "type": "t_contract(IStablePool)3845"
      },
      {
        "astId": 5576,
        "contract": "contracts/StrategySushiswapUsdcUsdt.sol:StrategySushiswapUsdcUsdt",
        "label": "pid",
        "offset": 0,
        "slot": "309",
        "type": "t_uint256"
      },
      {
        "astId": 5579,
        "contract": "contracts/StrategySushiswapUsdcUsdt.sol:StrategySushiswapUsdcUsdt",
        "label": "oracleUsdc",
        "offset": 0,
        "slot": "310",
        "type": "t_contract(IPriceFeed)2001"
      },
      {
        "astId": 5582,
        "contract": "contracts/StrategySushiswapUsdcUsdt.sol:StrategySushiswapUsdcUsdt",
        "label": "oracleUsdt",
        "offset": 0,
        "slot": "311",
        "type": "t_contract(IPriceFeed)2001"
      },
      {
        "astId": 5584,
        "contract": "contracts/StrategySushiswapUsdcUsdt.sol:StrategySushiswapUsdcUsdt",
        "label": "curve3Pool",
        "offset": 0,
        "slot": "312",
        "type": "t_address"
      },
      {
        "astId": 5587,
        "contract": "contracts/StrategySushiswapUsdcUsdt.sol:StrategySushiswapUsdcUsdt",
        "label": "velodromeRouter",
        "offset": 0,
        "slot": "313",
        "type": "t_contract(IRouter)4402"
      },
      {
        "astId": 5589,
        "contract": "contracts/StrategySushiswapUsdcUsdt.sol:StrategySushiswapUsdcUsdt",
        "label": "rewardWallet",
        "offset": 0,
        "slot": "314",
        "type": "t_address"
      },
      {
        "astId": 5591,
        "contract": "contracts/StrategySushiswapUsdcUsdt.sol:StrategySushiswapUsdcUsdt",
        "label": "usdcDm",
        "offset": 0,
        "slot": "315",
        "type": "t_uint256"
      },
      {
        "astId": 5593,
        "contract": "contracts/StrategySushiswapUsdcUsdt.sol:StrategySushiswapUsdcUsdt",
        "label": "usdtDm",
        "offset": 0,
        "slot": "316",
        "type": "t_uint256"
      }
    ],
    "types": {
      "t_address": {
        "encoding": "inplace",
        "label": "address",
        "numberOfBytes": "20"
      },
      "t_array(t_uint256)46_storage": {
        "base": "t_uint256",
        "encoding": "inplace",
        "label": "uint256[46]",
        "numberOfBytes": "1472"
      },
      "t_array(t_uint256)49_storage": {
        "base": "t_uint256",
        "encoding": "inplace",
        "label": "uint256[49]",
        "numberOfBytes": "1568"
      },
      "t_array(t_uint256)50_storage": {
        "base": "t_uint256",
        "encoding": "inplace",
        "label": "uint256[50]",
        "numberOfBytes": "1600"
      },
      "t_bool": {
        "encoding": "inplace",
        "label": "bool",
        "numberOfBytes": "1"
      },
      "t_bytes32": {
        "encoding": "inplace",
        "label": "bytes32",
        "numberOfBytes": "32"
      },
      "t_contract(IBentoBox)4076": {
        "encoding": "inplace",
        "label": "contract IBentoBox",
        "numberOfBytes": "20"
      },
      "t_contract(IERC20)1793": {
        "encoding": "inplace",
        "label": "contract IERC20",
        "numberOfBytes": "20"
      },
      "t_contract(IMiniChefV2)3802": {
        "encoding": "inplace",
        "label": "contract IMiniChefV2",
        "numberOfBytes": "20"
      },
      "t_contract(IPriceFeed)2001": {
        "encoding": "inplace",
        "label": "contract IPriceFeed",
        "numberOfBytes": "20"
      },
      "t_contract(IRouter)4402": {
        "encoding": "inplace",
        "label": "contract IRouter",
        "numberOfBytes": "20"
      },
      "t_contract(IStablePool)3845": {
        "encoding": "inplace",
        "label": "contract IStablePool",
        "numberOfBytes": "20"
      },
      "t_contract(ITridentRouter)3742": {
        "encoding": "inplace",
        "label": "contract ITridentRouter",
        "numberOfBytes": "20"
      },
      "t_mapping(t_address,t_bool)": {
        "encoding": "mapping",
        "key": "t_address",
        "label": "mapping(address => bool)",
        "numberOfBytes": "32",
        "value": "t_bool"
      },
      "t_mapping(t_bytes32,t_struct(RoleData)34_storage)": {
        "encoding": "mapping",
        "key": "t_bytes32",
        "label": "mapping(bytes32 => struct AccessControlUpgradeable.RoleData)",
        "numberOfBytes": "32",
        "value": "t_struct(RoleData)34_storage"
      },
      "t_struct(RoleData)34_storage": {
        "encoding": "inplace",
        "label": "struct AccessControlUpgradeable.RoleData",
        "members": [
          {
            "astId": 31,
            "contract": "contracts/StrategySushiswapUsdcUsdt.sol:StrategySushiswapUsdcUsdt",
            "label": "members",
            "offset": 0,
            "slot": "0",
            "type": "t_mapping(t_address,t_bool)"
          },
          {
            "astId": 33,
            "contract": "contracts/StrategySushiswapUsdcUsdt.sol:StrategySushiswapUsdcUsdt",
            "label": "adminRole",
            "offset": 0,
            "slot": "1",
            "type": "t_bytes32"
          }
        ],
        "numberOfBytes": "64"
      },
      "t_uint256": {
        "encoding": "inplace",
        "label": "uint256",
        "numberOfBytes": "32"
      },
      "t_uint8": {
        "encoding": "inplace",
        "label": "uint8",
        "numberOfBytes": "1"
      }
    }
  }
}