{
  "address": "0x0B287606f1867Be9D0435089CB08FAa16109d31D",
  "abi": [
    {
      "inputs": [],
      "stateMutability": "nonpayable",
      "type": "constructor"
    },
    {
      "anonymous": false,
      "inputs": [
        {
          "indexed": false,
          "internalType": "address",
          "name": "previousAdmin",
          "type": "address"
        },
        {
          "indexed": false,
          "internalType": "address",
          "name": "newAdmin",
          "type": "address"
        }
      ],
      "name": "AdminChanged",
      "type": "event"
    },
    {
      "anonymous": false,
      "inputs": [
        {
          "indexed": true,
          "internalType": "address",
          "name": "beacon",
          "type": "address"
        }
      ],
      "name": "BeaconUpgraded",
      "type": "event"
    },
    {
      "anonymous": false,
      "inputs": [
        {
          "indexed": false,
          "internalType": "uint8",
          "name": "version",
          "type": "uint8"
        }
      ],
      "name": "Initialized",
      "type": "event"
    },
    {
      "anonymous": false,
      "inputs": [
        {
          "indexed": false,
          "internalType": "address",
          "name": "value",
          "type": "address"
        }
      ],
      "name": "PortfolioManagerUpdated",
      "type": "event"
    },
    {
      "anonymous": false,
      "inputs": [
        {
          "indexed": false,
          "internalType": "uint256",
          "name": "amount",
          "type": "uint256"
        }
      ],
      "name": "Reward",
      "type": "event"
    },
    {
      "anonymous": false,
      "inputs": [
        {
          "indexed": true,
          "internalType": "bytes32",
          "name": "role",
          "type": "bytes32"
        },
        {
          "indexed": true,
          "internalType": "bytes32",
          "name": "previousAdminRole",
          "type": "bytes32"
        },
        {
          "indexed": true,
          "internalType": "bytes32",
          "name": "newAdminRole",
          "type": "bytes32"
        }
      ],
      "name": "RoleAdminChanged",
      "type": "event"
    },
    {
      "anonymous": false,
      "inputs": [
        {
          "indexed": true,
          "internalType": "bytes32",
          "name": "role",
          "type": "bytes32"
        },
        {
          "indexed": true,
          "internalType": "address",
          "name": "account",
          "type": "address"
        },
        {
          "indexed": true,
          "internalType": "address",
          "name": "sender",
          "type": "address"
        }
      ],
      "name": "RoleGranted",
      "type": "event"
    },
    {
      "anonymous": false,
      "inputs": [
        {
          "indexed": true,
          "internalType": "bytes32",
          "name": "role",
          "type": "bytes32"
        },
        {
          "indexed": true,
          "internalType": "address",
          "name": "account",
          "type": "address"
        },
        {
          "indexed": true,
          "internalType": "address",
          "name": "sender",
          "type": "address"
        }
      ],
      "name": "RoleRevoked",
      "type": "event"
    },
    {
      "anonymous": false,
      "inputs": [
        {
          "indexed": false,
          "internalType": "uint256",
          "name": "swapSlippageBP",
          "type": "uint256"
        },
        {
          "indexed": false,
          "internalType": "uint256",
          "name": "navSlippageBP",
          "type": "uint256"
        },
        {
          "indexed": false,
          "internalType": "uint256",
          "name": "stakeSlippageBP",
          "type": "uint256"
        }
      ],
      "name": "SlippagesUpdated",
      "type": "event"
    },
    {
      "anonymous": false,
      "inputs": [
        {
          "indexed": false,
          "internalType": "uint256",
          "name": "amount",
          "type": "uint256"
        }
      ],
      "name": "Stake",
      "type": "event"
    },
    {
      "anonymous": false,
      "inputs": [],
      "name": "StrategyUpdatedParams",
      "type": "event"
    },
    {
      "anonymous": false,
      "inputs": [
        {
          "indexed": false,
          "internalType": "uint256",
          "name": "amount",
          "type": "uint256"
        },
        {
          "indexed": false,
          "internalType": "uint256",
          "name": "amountReceived",
          "type": "uint256"
        }
      ],
      "name": "Unstake",
      "type": "event"
    },
    {
      "anonymous": false,
      "inputs": [
        {
          "indexed": true,
          "internalType": "address",
          "name": "implementation",
          "type": "address"
        }
      ],
      "name": "Upgraded",
      "type": "event"
    },
    {
      "inputs": [],
      "name": "DEFAULT_ADMIN_ROLE",
      "outputs": [
        {
          "internalType": "bytes32",
          "name": "",
          "type": "bytes32"
        }
      ],
      "stateMutability": "view",
      "type": "function"
    },
    {
      "inputs": [],
      "name": "PORTFOLIO_AGENT_ROLE",
      "outputs": [
        {
          "internalType": "bytes32",
          "name": "",
          "type": "bytes32"
        }
      ],
      "stateMutability": "view",
      "type": "function"
    },
    {
      "inputs": [],
      "name": "PORTFOLIO_MANAGER",
      "outputs": [
        {
          "internalType": "bytes32",
          "name": "",
          "type": "bytes32"
        }
      ],
      "stateMutability": "view",
      "type": "function"
    },
    {
      "inputs": [],
      "name": "bentoBox",
      "outputs": [
        {
          "internalType": "contract IBentoBox",
          "name": "",
          "type": "address"
        }
      ],
      "stateMutability": "view",
      "type": "function"
    },
    {
      "inputs": [
        {
          "internalType": "address",
          "name": "_to",
          "type": "address"
        }
      ],
      "name": "claimRewards",
      "outputs": [
        {
          "internalType": "uint256",
          "name": "",
          "type": "uint256"
        }
      ],
      "stateMutability": "nonpayable",
      "type": "function"
    },
    {
      "inputs": [],
      "name": "curve3Pool",
      "outputs": [
        {
          "internalType": "address",
          "name": "",
          "type": "address"
        }
      ],
      "stateMutability": "view",
      "type": "function"
    },
    {
      "inputs": [
        {
          "internalType": "bytes32",
          "name": "role",
          "type": "bytes32"
        }
      ],
      "name": "getRoleAdmin",
      "outputs": [
        {
          "internalType": "bytes32",
          "name": "",
          "type": "bytes32"
        }
      ],
      "stateMutability": "view",
      "type": "function"
    },
    {
      "inputs": [
        {
          "internalType": "bytes32",
          "name": "role",
          "type": "bytes32"
        },
        {
          "internalType": "address",
          "name": "account",
          "type": "address"
        }
      ],
      "name": "grantRole",
      "outputs": [],
      "stateMutability": "nonpayable",
      "type": "function"
    },
    {
      "inputs": [
        {
          "internalType": "bytes32",
          "name": "role",
          "type": "bytes32"
        },
        {
          "internalType": "address",
          "name": "account",
          "type": "address"
        }
      ],
      "name": "hasRole",
      "outputs": [
        {
          "internalType": "bool",
          "name": "",
          "type": "bool"
        }
      ],
      "stateMutability": "view",
      "type": "function"
    },
    {
      "inputs": [],
      "name": "initialize",
      "outputs": [],
      "stateMutability": "nonpayable",
      "type": "function"
    },
    {
      "inputs": [],
      "name": "liquidationValue",
      "outputs": [
        {
          "internalType": "uint256",
          "name": "",
          "type": "uint256"
        }
      ],
      "stateMutability": "view",
      "type": "function"
    },
    {
      "inputs": [],
      "name": "lpToken",
      "outputs": [
        {
          "internalType": "contract IStablePool",
          "name": "",
          "type": "address"
        }
      ],
      "stateMutability": "view",
      "type": "function"
    },
    {
      "inputs": [],
      "name": "miniChefV2",
      "outputs": [
        {
          "internalType": "contract IMiniChefV2",
          "name": "",
          "type": "address"
        }
      ],
      "stateMutability": "view",
      "type": "function"
    },
    {
      "inputs": [],
      "name": "navSlippageBP",
      "outputs": [
        {
          "internalType": "uint256",
          "name": "",
          "type": "uint256"
        }
      ],
      "stateMutability": "view",
      "type": "function"
    },
    {
      "inputs": [],
      "name": "netAssetValue",
      "outputs": [
        {
          "internalType": "uint256",
          "name": "",
          "type": "uint256"
        }
      ],
      "stateMutability": "view",
      "type": "function"
    },
    {
      "inputs": [],
      "name": "op",
      "outputs": [
        {
          "internalType": "contract IERC20",
          "name": "",
          "type": "address"
        }
      ],
      "stateMutability": "view",
      "type": "function"
    },
    {
      "inputs": [],
      "name": "oracleUsdc",
      "outputs": [
        {
          "internalType": "contract IPriceFeed",
          "name": "",
          "type": "address"
        }
      ],
      "stateMutability": "view",
      "type": "function"
    },
    {
      "inputs": [],
      "name": "oracleUsdt",
      "outputs": [
        {
          "internalType": "contract IPriceFeed",
          "name": "",
          "type": "address"
        }
      ],
      "stateMutability": "view",
      "type": "function"
    },
    {
      "inputs": [],
      "name": "pid",
      "outputs": [
        {
          "internalType": "uint256",
          "name": "",
          "type": "uint256"
        }
      ],
      "stateMutability": "view",
      "type": "function"
    },
    {
      "inputs": [],
      "name": "portfolioManager",
      "outputs": [
        {
          "internalType": "address",
          "name": "",
          "type": "address"
        }
      ],
      "stateMutability": "view",
      "type": "function"
    },
    {
      "inputs": [],
      "name": "proxiableUUID",
      "outputs": [
        {
          "internalType": "bytes32",
          "name": "",
          "type": "bytes32"
        }
      ],
      "stateMutability": "view",
      "type": "function"
    },
    {
      "inputs": [
        {
          "internalType": "bytes32",
          "name": "role",
          "type": "bytes32"
        },
        {
          "internalType": "address",
          "name": "account",
          "type": "address"
        }
      ],
      "name": "renounceRole",
      "outputs": [],
      "stateMutability": "nonpayable",
      "type": "function"
    },
    {
      "inputs": [
        {
          "internalType": "bytes32",
          "name": "role",
          "type": "bytes32"
        },
        {
          "internalType": "address",
          "name": "account",
          "type": "address"
        }
      ],
      "name": "revokeRole",
      "outputs": [],
      "stateMutability": "nonpayable",
      "type": "function"
    },
    {
      "inputs": [],
      "name": "rewardWallet",
      "outputs": [
        {
          "internalType": "address",
          "name": "",
          "type": "address"
        }
      ],
      "stateMutability": "view",
      "type": "function"
    },
    {
      "inputs": [
        {
          "components": [
            {
              "internalType": "address",
              "name": "usdc",
              "type": "address"
            },
            {
              "internalType": "address",
              "name": "usdt",
              "type": "address"
            },
            {
              "internalType": "address",
              "name": "op",
              "type": "address"
            },
            {
              "internalType": "address",
              "name": "sushi",
              "type": "address"
            },
            {
              "internalType": "address",
              "name": "bentoBox",
              "type": "address"
            },
            {
              "internalType": "address",
              "name": "tridentRouter",
              "type": "address"
            },
            {
              "internalType": "address",
              "name": "miniChefV2",
              "type": "address"
            },
            {
              "internalType": "address",
              "name": "lpToken",
              "type": "address"
            },
            {
              "internalType": "uint256",
              "name": "pid",
              "type": "uint256"
            },
            {
              "internalType": "address",
              "name": "oracleUsdc",
              "type": "address"
            },
            {
              "internalType": "address",
              "name": "oracleUsdt",
              "type": "address"
            },
            {
              "internalType": "address",
              "name": "curve3Pool",
              "type": "address"
            },
            {
              "internalType": "address",
              "name": "velodromeRouter",
              "type": "address"
            },
            {
              "internalType": "address",
              "name": "rewardWallet",
              "type": "address"
            }
          ],
          "internalType": "struct StrategySushiswapUsdcUsdt.StrategyParams",
          "name": "params",
          "type": "tuple"
        }
      ],
      "name": "setParams",
      "outputs": [],
      "stateMutability": "nonpayable",
      "type": "function"
    },
    {
      "inputs": [
        {
          "internalType": "address",
          "name": "_value",
          "type": "address"
        }
      ],
      "name": "setPortfolioManager",
      "outputs": [],
      "stateMutability": "nonpayable",
      "type": "function"
    },
    {
      "inputs": [
        {
          "internalType": "uint256",
          "name": "_swapSlippageBP",
          "type": "uint256"
        },
        {
          "internalType": "uint256",
          "name": "_navSlippageBP",
          "type": "uint256"
        },
        {
          "internalType": "uint256",
          "name": "_stakeSlippageBP",
          "type": "uint256"
        }
      ],
      "name": "setSlippages",
      "outputs": [],
      "stateMutability": "nonpayable",
      "type": "function"
    },
    {
      "inputs": [
        {
          "internalType": "address",
          "name": "_asset",
          "type": "address"
        },
        {
          "internalType": "uint256",
          "name": "_amount",
          "type": "uint256"
        }
      ],
      "name": "stake",
      "outputs": [],
      "stateMutability": "nonpayable",
      "type": "function"
    },
    {
      "inputs": [],
      "name": "stakeSlippageBP",
      "outputs": [
        {
          "internalType": "uint256",
          "name": "",
          "type": "uint256"
        }
      ],
      "stateMutability": "view",
      "type": "function"
    },
    {
      "inputs": [
        {
          "internalType": "bytes4",
          "name": "interfaceId",
          "type": "bytes4"
        }
      ],
      "name": "supportsInterface",
      "outputs": [
        {
          "internalType": "bool",
          "name": "",
          "type": "bool"
        }
      ],
      "stateMutability": "view",
      "type": "function"
    },
    {
      "inputs": [],
      "name": "sushi",
      "outputs": [
        {
          "internalType": "contract IERC20",
          "name": "",
          "type": "address"
        }
      ],
      "stateMutability": "view",
      "type": "function"
    },
    {
      "inputs": [],
      "name": "swapSlippageBP",
      "outputs": [
        {
          "internalType": "uint256",
          "name": "",
          "type": "uint256"
        }
      ],
      "stateMutability": "view",
      "type": "function"
    },
    {
      "inputs": [],
      "name": "tridentRouter",
      "outputs": [
        {
          "internalType": "contract ITridentRouter",
          "name": "",
          "type": "address"
        }
      ],
      "stateMutability": "view",
      "type": "function"
    },
    {
      "inputs": [
        {
          "internalType": "address",
          "name": "_asset",
          "type": "address"
        },
        {
          "internalType": "uint256",
          "name": "_amount",
          "type": "uint256"
        },
        {
          "internalType": "address",
          "name": "_beneficiary",
          "type": "address"
        },
        {
          "internalType": "bool",
          "name": "_targetIsZero",
          "type": "bool"
        }
      ],
      "name": "unstake",
      "outputs": [
        {
          "internalType": "uint256",
          "name": "",
          "type": "uint256"
        }
      ],
      "stateMutability": "nonpayable",
      "type": "function"
    },
    {
      "inputs": [
        {
          "internalType": "address",
          "name": "newImplementation",
          "type": "address"
        }
      ],
      "name": "upgradeTo",
      "outputs": [],
      "stateMutability": "nonpayable",
      "type": "function"
    },
    {
      "inputs": [
        {
          "internalType": "address",
          "name": "newImplementation",
          "type": "address"
        },
        {
          "internalType": "bytes",
          "name": "data",
          "type": "bytes"
        }
      ],
      "name": "upgradeToAndCall",
      "outputs": [],
      "stateMutability": "payable",
      "type": "function"
    },
    {
      "inputs": [],
      "name": "usdc",
      "outputs": [
        {
          "internalType": "contract IERC20",
          "name": "",
          "type": "address"
        }
      ],
      "stateMutability": "view",
      "type": "function"
    },
    {
      "inputs": [],
      "name": "usdcDm",
      "outputs": [
        {
          "internalType": "uint256",
          "name": "",
          "type": "uint256"
        }
      ],
      "stateMutability": "view",
      "type": "function"
    },
    {
      "inputs": [],
      "name": "usdt",
      "outputs": [
        {
          "internalType": "contract IERC20",
          "name": "",
          "type": "address"
        }
      ],
      "stateMutability": "view",
      "type": "function"
    },
    {
      "inputs": [],
      "name": "usdtDm",
      "outputs": [
        {
          "internalType": "uint256",
          "name": "",
          "type": "uint256"
        }
      ],
      "stateMutability": "view",
      "type": "function"
    },
    {
      "inputs": [],
      "name": "velodromeRouter",
      "outputs": [
        {
          "internalType": "contract IRouter",
          "name": "",
          "type": "address"
        }
      ],
      "stateMutability": "view",
      "type": "function"
    }
  ],
  "numDeployments": 3,
  "solcInputHash": "9367f81c2af49b1572dd8a6977dfa9fe",
  "bytecode": "0x60a06040523060601b6080523480156200001857600080fd5b50600054610100900460ff16158080156200003a5750600054600160ff909116105b806200006a575062000057306200014460201b620018a61760201c565b1580156200006a575060005460ff166001145b620000d25760405162461bcd60e51b815260206004820152602e60248201527f496e697469616c697a61626c653a20636f6e747261637420697320616c72656160448201526d191e481a5b9a5d1a585b1a5e995960921b606482015260840160405180910390fd5b6000805460ff191660011790558015620000f6576000805461ff0019166101001790555b80156200013d576000805461ff0019169055604051600181527f7f26b83ff96e1f2b6a682f133852f6798a09c465da95921460cefb38474024989060200160405180910390a15b5062000153565b6001600160a01b03163b151590565b60805160601c6152d66200018e6000396000818161085e0152818161089e0152818161093e0152818161097e0152610a0d01526152d66000f3fe6080604052600436106102465760003560e01c8063620b75df11610139578063adc9772e116100b6578063d57074631161007a578063d5707463146106a5578063ec1f1f69146106c5578063ef5cfb8c146106e6578063f106845414610706578063f6f6b8811461071d578063fb75b2c71461073d57600080fd5b8063adc9772e1461060e578063ae30c1101461062e578063bf52e0801461064e578063cc6522c314610664578063d547741f1461068557600080fd5b80638129fc1c116100fd5780638129fc1c1461058f57806391d14854146105a4578063a217fddf146105c4578063a3673b38146105d9578063a440b21a146105ee57600080fd5b8063620b75df146104ea57806363a6b1da1461050a57806364b5528a1461052b5780636b2ace871461054c5780637d5f58021461056d57600080fd5b80633659cfe6116101c757806352d1902d1161018b57806352d1902d146104495780635ca558f81461045e5780635dbd733a146104745780635fcbd285146104a85780635fea9cbb146104c957600080fd5b80633659cfe6146103b3578063366ac47c146103d35780633e413bee146103f45780634b7f6363146104155780634f1ef2861461043657600080fd5b8063248a9ca31161020e578063248a9ca31461030b5780632576e65a1461033b5780632f2ff15d146103505780632f48ab7d1461037257806336568abe1461039357600080fd5b806301ffc9a71461024b5780630a087903146102805780630f9033f7146102b9578063119cd879146102de5780631b1e7ddc146102f4575b600080fd5b34801561025757600080fd5b5061026b610266366004614b1f565b61075e565b60405190151581526020015b60405180910390f35b34801561028c57600080fd5b50610130546102a1906001600160a01b031681565b6040516001600160a01b039091168152602001610277565b3480156102c557600080fd5b506102d061013c5481565b604051908152602001610277565b3480156102ea57600080fd5b506102d060fd5481565b34801561030057600080fd5b506102d061013b5481565b34801561031757600080fd5b506102d0610326366004614abd565b60009081526065602052604090206001015490565b34801561034757600080fd5b506102d0610795565b34801561035c57600080fd5b5061037061036b366004614aef565b6107a6565b005b34801561037e57600080fd5b5061012e546102a1906001600160a01b031681565b34801561039f57600080fd5b506103706103ae366004614aef565b6107d0565b3480156103bf57600080fd5b506103706103ce366004614892565b610853565b3480156103df57600080fd5b50610139546102a1906001600160a01b031681565b34801561040057600080fd5b5061012d546102a1906001600160a01b031681565b34801561042157600080fd5b50610133546102a1906001600160a01b031681565b6103706104443660046148cc565b610933565b34801561045557600080fd5b506102d0610a00565b34801561046a57600080fd5b506102d060fe5481565b34801561048057600080fd5b506102d07fd67ad422505496469a1adf6cdf9e5ee92ac5d33992843c9ecc4b2f6d6cde913781565b3480156104b457600080fd5b50610134546102a1906001600160a01b031681565b3480156104d557600080fd5b50610136546102a1906001600160a01b031681565b3480156104f657600080fd5b5060fb546102a1906001600160a01b031681565b34801561051657600080fd5b50610138546102a1906001600160a01b031681565b34801561053757600080fd5b50610132546102a1906001600160a01b031681565b34801561055857600080fd5b50610131546102a1906001600160a01b031681565b34801561057957600080fd5b506102d060008051602061523a83398151915281565b34801561059b57600080fd5b50610370610ab3565b3480156105b057600080fd5b5061026b6105bf366004614aef565b610b7d565b3480156105d057600080fd5b506102d0600081565b3480156105e557600080fd5b506102d0610ba8565b3480156105fa57600080fd5b50610370610609366004614892565b610bb4565b34801561061a57600080fd5b50610370610629366004614974565b610ce3565b34801561063a57600080fd5b50610370610649366004614b86565b610f13565b34801561065a57600080fd5b506102d060fc5481565b34801561067057600080fd5b50610137546102a1906001600160a01b031681565b34801561069157600080fd5b506103706106a0366004614aef565b611088565b3480156106b157600080fd5b506103706106c0366004614b49565b6110ad565b3480156106d157600080fd5b5061012f546102a1906001600160a01b031681565b3480156106f257600080fd5b506102d0610701366004614892565b611556565b34801561071257600080fd5b506102d06101355481565b34801561072957600080fd5b506102d06107383660046149a0565b6115db565b34801561074957600080fd5b5061013a546102a1906001600160a01b031681565b60006001600160e01b03198216637965db0b60e01b148061078f57506301ffc9a760e01b6001600160e01b03198316145b92915050565b60006107a160006118b5565b905090565b6000828152606560205260409020600101546107c181611bf8565b6107cb8383611c02565b505050565b6001600160a01b03811633146108455760405162461bcd60e51b815260206004820152602f60248201527f416363657373436f6e74726f6c3a2063616e206f6e6c792072656e6f756e636560448201526e103937b632b9903337b91039b2b63360891b60648201526084015b60405180910390fd5b61084f8282611c88565b5050565b306001600160a01b037f000000000000000000000000000000000000000000000000000000000000000016141561089c5760405162461bcd60e51b815260040161083c90614eac565b7f00000000000000000000000000000000000000000000000000000000000000006001600160a01b03166108e560008051602061525a833981519152546001600160a01b031690565b6001600160a01b03161461090b5760405162461bcd60e51b815260040161083c90614ef8565b61091481611cef565b6040805160008082526020820190925261093091839190611cfa565b50565b306001600160a01b037f000000000000000000000000000000000000000000000000000000000000000016141561097c5760405162461bcd60e51b815260040161083c90614eac565b7f00000000000000000000000000000000000000000000000000000000000000006001600160a01b03166109c560008051602061525a833981519152546001600160a01b031690565b6001600160a01b0316146109eb5760405162461bcd60e51b815260040161083c90614ef8565b6109f482611cef565b61084f82826001611cfa565b6000306001600160a01b037f00000000000000000000000000000000000000000000000000000000000000001614610aa05760405162461bcd60e51b815260206004820152603860248201527f555550535570677261646561626c653a206d757374206e6f742062652063616c60448201527f6c6564207468726f7567682064656c656761746563616c6c0000000000000000606482015260840161083c565b5060008051602061525a83398151915290565b600054610100900460ff1615808015610ad35750600054600160ff909116105b80610aed5750303b158015610aed575060005460ff166001145b610b095760405162461bcd60e51b815260040161083c90614f44565b6000805460ff191660011790558015610b2c576000805461ff0019166101001790555b610b34611e74565b8015610930576000805461ff0019169055604051600181527f7f26b83ff96e1f2b6a682f133852f6798a09c465da95921460cefb3847402498906020015b60405180910390a150565b60009182526065602090815260408084206001600160a01b0393909316845291905290205460ff1690565b60006107a160016118b5565b610bbf600033610b7d565b610c025760405162461bcd60e51b81526020600482015260146024820152735265737472696374656420746f2061646d696e7360601b604482015260640161083c565b6001600160a01b038116610c585760405162461bcd60e51b815260206004820152601860248201527f5a65726f2061646472657373206e6f7420616c6c6f7765640000000000000000604482015260640161083c565b60fb54610c7d9060008051602061523a833981519152906001600160a01b0316611088565b610c9560008051602061523a833981519152826107a6565b60fb80546001600160a01b0319166001600160a01b0383169081179091556040519081527ff7b449fcd5cfb7379dcd34cb69428dd9f882033b15be33d83b42d91daa28eeb790602001610b72565b610cfb60008051602061523a83398151915233610b7d565b610d175760405162461bcd60e51b815260040161083c90614e75565b6000610d95306001600160a01b031663a3673b386040518163ffffffff1660e01b815260040160206040518083038186803b158015610d5557600080fd5b505afa158015610d69573d6000803e3d6000fd5b505050506040513d601f19601f82011682018060405250810190610d8d9190614ad6565b60fd54611f59565b6040516370a0823160e01b8152306004820152909150610e1a9084906001600160a01b038216906370a082319060240160206040518083038186803b158015610ddd57600080fd5b505afa158015610df1573d6000803e3d6000fd5b505050506040513d601f19601f82011682018060405250810190610e159190614ad6565b611f83565b80306001600160a01b031663a3673b386040518163ffffffff1660e01b815260040160206040518083038186803b158015610e5457600080fd5b505afa158015610e68573d6000803e3d6000fd5b505050506040513d601f19601f82011682018060405250810190610e8c9190614ad6565b1015610eda5760405162461bcd60e51b815260206004820152601f60248201527f5374726174656779204e4156206c657373207468616e20657870656374656400604482015260640161083c565b6040518281527f227a473b70d2f893cc7659219575c030a63b5743024fe1e0c1a680e708b1525a906020015b60405180910390a1505050565b610f3d7fd67ad422505496469a1adf6cdf9e5ee92ac5d33992843c9ecc4b2f6d6cde913733610b7d565b80610fe4575060fb54604051632474521560e21b81527fd67ad422505496469a1adf6cdf9e5ee92ac5d33992843c9ecc4b2f6d6cde913760048201523360248201526001600160a01b03909116906391d148549060440160206040518083038186803b158015610fac57600080fd5b505afa158015610fc0573d6000803e3d6000fd5b505050506040513d601f19601f82011682018060405250810190610fe49190614aa0565b61103b5760405162461bcd60e51b815260206004820152602260248201527f5265737472696374656420746f20504f5254464f4c494f5f4147454e545f524f6044820152614c4560f01b606482015260840161083c565b60fc83905560fd82905560fe81905560408051848152602081018490529081018290527f116fbf1e97a2be629ad98abfb6c332733c8996c2dfb174dd2efe8440df381d1a90606001610f06565b6000828152606560205260409020600101546110a381611bf8565b6107cb8383611c88565b6110b8600033610b7d565b6110fb5760405162461bcd60e51b81526020600482015260146024820152735265737472696374656420746f2061646d696e7360601b604482015260640161083c565b6111086020820182614892565b61012d80546001600160a01b0319166001600160a01b03929092169190911790556111396040820160208301614892565b61012e80546001600160a01b0319166001600160a01b039290921691909117905561116a6060820160408301614892565b61012f80546001600160a01b0319166001600160a01b039290921691909117905561119b6080820160608301614892565b61013080546001600160a01b0319166001600160a01b03929092169190911790556111cc60a0820160808301614892565b61013180546001600160a01b0319166001600160a01b03929092169190911790556111fd60c0820160a08301614892565b61013280546001600160a01b0319166001600160a01b039290921691909117905561122e60e0820160c08301614892565b61013380546001600160a01b0319166001600160a01b0392909216919091179055611260610100820160e08301614892565b61013480546001600160a01b0319166001600160a01b03929092169190911790556101008101356101355561129d61014082016101208301614892565b61013680546001600160a01b0319166001600160a01b03929092169190911790556112d061016082016101408301614892565b61013780546001600160a01b0319166001600160a01b039290921691909117905561130361018082016101608301614892565b61013880546001600160a01b0319166001600160a01b03929092169190911790556113366101a082016101808301614892565b61013980546001600160a01b0319166001600160a01b03929092169190911790556113696101c082016101a08301614892565b61013a80546001600160a01b0319166001600160a01b03929092169190911790556113976020820182614892565b6001600160a01b031663313ce5676040518163ffffffff1660e01b815260040160206040518083038186803b1580156113cf57600080fd5b505afa1580156113e3573d6000803e3d6000fd5b505050506040513d601f19601f820116820180604052508101906114079190614c02565b61141290600a615095565b61013b556114266040820160208301614892565b6001600160a01b031663313ce5676040518163ffffffff1660e01b815260040160206040518083038186803b15801561145e57600080fd5b505afa158015611472573d6000803e3d6000fd5b505050506040513d601f19601f820116820180604052508101906114969190614c02565b6114a190600a615095565b61013c55610131546101325460405163c0a47c9360e01b81523060048201526001600160a01b039182166024820152600160448201526000606482018190526084820181905260a482015291169063c0a47c939060c401600060405180830381600087803b15801561151257600080fd5b505af1158015611526573d6000803e3d6000fd5b50506040517fea5646eb3528e525944447a4a97de700dd472298626e5c0481d1c82c3da86ea5925060009150a150565b600061157060008051602061523a83398151915233610b7d565b61158c5760405162461bcd60e51b815260040161083c90614e75565b60006115978361275a565b905080156115d3576040518181527f3ac0594a85a20354f9dc74f33728416d19ce00d04a406c108cc2dcf2cecea1349060200160405180910390a15b90505b919050565b60006115f560008051602061523a83398151915233610b7d565b6116115760405162461bcd60e51b815260040161083c90614e75565b600061164f306001600160a01b031663a3673b386040518163ffffffff1660e01b815260040160206040518083038186803b158015610d5557600080fd5b90506000808415611676576116638661275a565b905061166f8887612b0c565b91506116e5565b6116818888886130fa565b9150868210156116e55760405162461bcd60e51b815260206004820152602960248201527f52657475726e65642076616c7565206c657373207468616e2072657175657374604482015268195908185b5bdd5b9d60ba1b606482015260840161083c565b82306001600160a01b031663a3673b386040518163ffffffff1660e01b815260040160206040518083038186803b15801561171f57600080fd5b505afa158015611733573d6000803e3d6000fd5b505050506040513d601f19601f820116820180604052508101906117579190614ad6565b10156117a55760405162461bcd60e51b815260206004820152601f60248201527f5374726174656779204e4156206c657373207468616e20657870656374656400604482015260640161083c565b60405163a9059cbb60e01b81526001600160a01b0389169063a9059cbb906117d39089908690600401614d41565b602060405180830381600087803b1580156117ed57600080fd5b505af1158015611801573d6000803e3d6000fd5b505050506040513d601f19601f820116820180604052508101906118259190614aa0565b5060408051888152602081018490527f9045c2ac9b2026de8075f2701bbdde882cd5e830b3b1ead9a15b22f2b5b93742910160405180910390a18015611899576040518181527f3ac0594a85a20354f9dc74f33728416d19ce00d04a406c108cc2dcf2cecea1349060200160405180910390a15b509150505b949350505050565b6001600160a01b03163b151590565b61012d546040516370a0823160e01b815230600482015260009182916001600160a01b03909116906370a082319060240160206040518083038186803b1580156118fe57600080fd5b505afa158015611912573d6000803e3d6000fd5b505050506040513d601f19601f820116820180604052508101906119369190614ad6565b61012e546040516370a0823160e01b81523060048201529192506000916001600160a01b03909116906370a082319060240160206040518083038186803b15801561198057600080fd5b505afa158015611994573d6000803e3d6000fd5b505050506040513d601f19601f820116820180604052508101906119b89190614ad6565b61013354610135546040516393f1a40b60e01b815260048101919091523060248201529192506000916001600160a01b03909116906393f1a40b90604401604080518083038186803b158015611a0d57600080fd5b505afa158015611a21573d6000803e3d6000fd5b505050506040513d601f19601f82011682018060405250810190611a459190614b62565b5090508015611b965761013454604080516318160ddd60e01b815290516000926001600160a01b0316916318160ddd916004808301926020929190829003018186803b158015611a9457600080fd5b505afa158015611aa8573d6000803e3d6000fd5b505050506040513d601f19601f82011682018060405250810190611acc9190614ad6565b61013454604080516365dfc76760e01b8152815193945060009384936001600160a01b0316926365dfc7679260048082019391829003018186803b158015611b1357600080fd5b505afa158015611b27573d6000803e3d6000fd5b505050506040513d601f19601f82011682018060405250810190611b4b9190614b62565b909250905082611b5b8584615140565b611b659190615030565b611b6f9087615018565b955082611b7c8583615140565b611b869190615030565b611b909086615018565b94505050505b8115611bef578415611bbc57611bab826136bf565b611bb59084615018565b9250611bef565b6101385461012e5461012d54611be2926001600160a01b0390811692811691168561370b565b611bec9084615018565b92505b50909392505050565b61093081336137fc565b611c0c8282610b7d565b61084f5760008281526065602090815260408083206001600160a01b03851684529091529020805460ff19166001179055611c443390565b6001600160a01b0316816001600160a01b0316837f2f8788117e7eff1d82e926ec794901d17c78024a50270940304540a733656f0d60405160405180910390a45050565b611c928282610b7d565b1561084f5760008281526065602090815260408083206001600160a01b0385168085529252808320805460ff1916905551339285917ff6391f5c32d9c69d2a47ea670b442974b53935d1edc7fd64eb21e047a839171b9190a45050565b600061084f81611bf8565b7f4910fdfa16fed3260ed0e7147f7cc6da11a60208b5b9406d12a635614ffd91435460ff1615611d2d576107cb83613855565b826001600160a01b03166352d1902d6040518163ffffffff1660e01b815260040160206040518083038186803b158015611d6657600080fd5b505afa925050508015611d96575060408051601f3d908101601f19168201909252611d9391810190614ad6565b60015b611df95760405162461bcd60e51b815260206004820152602e60248201527f45524331393637557067726164653a206e657720696d706c656d656e7461746960448201526d6f6e206973206e6f74205555505360901b606482015260840161083c565b60008051602061525a8339815191528114611e685760405162461bcd60e51b815260206004820152602960248201527f45524331393637557067726164653a20756e737570706f727465642070726f786044820152681a58589b195555525160ba1b606482015260840161083c565b506107cb8383836138f1565b600054610100900460ff1615808015611e945750600054600160ff909116105b80611eae5750303b158015611eae575060005460ff166001145b611eca5760405162461bcd60e51b815260040161083c90614f44565b6000805460ff191660011790558015611eed576000805461ff0019166101001790555b611ef561391c565b611efd61391c565b611f08600033611c02565b601460fc81905560fd55600460fe558015610930576000805461ff0019169055604051600181527f7f26b83ff96e1f2b6a682f133852f6798a09c465da95921460cefb384740249890602001610b72565b6000612710611f68838261515f565b611f729085615140565b611f7c9190615030565b9392505050565b61013454604080516318160ddd60e01b815290516000926001600160a01b0316916318160ddd916004808301926020929190829003018186803b158015611fc957600080fd5b505afa158015611fdd573d6000803e3d6000fd5b505050506040513d601f19601f820116820180604052508101906120019190614ad6565b61013454604080516365dfc76760e01b8152815193945060009384936001600160a01b0316926365dfc7679260048082019391829003018186803b15801561204857600080fd5b505afa15801561205c573d6000803e3d6000fd5b505050506040513d601f19601f820116820180604052508101906120809190614b62565b915091506103e88211801561209657506103e881115b6120ed5760405162461bcd60e51b815260206004820152602260248201527f4c6971756964697479206c70546f6b656e20726573657276657320746f6f206c6044820152616f7760f01b606482015260840161083c565b61012d546040516370a0823160e01b81523060048201526000916001600160a01b0316906370a082319060240160206040518083038186803b15801561213257600080fd5b505afa158015612146573d6000803e3d6000fd5b505050506040513d601f19601f8201168201806040525081019061216a9190614ad6565b6101385461012d5461012e5461013b5461013c549495506000946121a6946001600160a01b0390811694811693169187918a918a916001613989565b6101385461012d5461012e549293506121e4926001600160a01b03928316929182169116846121df6121d782613a34565b60fc54611f59565b613a80565b5061012d546040516370a0823160e01b81523060048201526001600160a01b03909116906370a082319060240160206040518083038186803b15801561222957600080fd5b505afa15801561223d573d6000803e3d6000fd5b505050506040513d601f19601f820116820180604052508101906122619190614ad6565b61012e546040516370a0823160e01b81523060048201529193506000916001600160a01b03909116906370a082319060240160206040518083038186803b1580156122ab57600080fd5b505afa1580156122bf573d6000803e3d6000fd5b505050506040513d601f19601f820116820180604052508101906122e39190614ad6565b9050612308604080516060810182526000808252602082018190529181019190915290565b61012d546001600160a01b031681526001602082015260408101849052612348604080516060810182526000808252602082018190529181019190915290565b61012e546001600160a01b031681526001602082015260408082018490528051600280825260608201909252600091816020015b604080516060810182526000808252602080830182905292820152825260001990920191018161237c57905050905082816000815181106123bf576123bf6151ea565b602002602001018190525081816001815181106123de576123de6151ea565b6020908102919091010152600061240b896123f98c8a615140565b6124039190615030565b60fe54611f59565b61012d546101315460405163095ea7b360e01b81529293506001600160a01b039182169263095ea7b3926124459216908b90600401614d41565b602060405180830381600087803b15801561245f57600080fd5b505af1158015612473573d6000803e3d6000fd5b505050506040513d601f19601f820116820180604052508101906124979190614aa0565b5061012e546101315460405163095ea7b360e01b81526001600160a01b039283169263095ea7b3926124d0929116908990600401614d41565b602060405180830381600087803b1580156124ea57600080fd5b505af11580156124fe573d6000803e3d6000fd5b505050506040513d601f19601f820116820180604052508101906125229190614aa0565b506101325461013454604080513060208201526001600160a01b0393841693632cfcb94f9387939116918691016040516020818303038152906040526040518563ffffffff1660e01b815260040161257d9493929190614dd3565b602060405180830381600087803b15801561259757600080fd5b505af11580156125ab573d6000803e3d6000fd5b505050506040513d601f19601f820116820180604052508101906125cf9190614ad6565b50610134546040516370a0823160e01b81523060048201526000916001600160a01b0316906370a082319060240160206040518083038186803b15801561261557600080fd5b505afa158015612629573d6000803e3d6000fd5b505050506040513d601f19601f8201168201806040525081019061264d9190614ad6565b610134546101335460405163095ea7b360e01b81529293506001600160a01b039182169263095ea7b3926126879216908590600401614d41565b602060405180830381600087803b1580156126a157600080fd5b505af11580156126b5573d6000803e3d6000fd5b505050506040513d601f19601f820116820180604052508101906126d99190614aa0565b506101335461013554604051638dbdbe6d60e01b81526004810191909152602481018390523060448201526001600160a01b0390911690638dbdbe6d90606401600060405180830381600087803b15801561273357600080fd5b505af1158015612747573d6000803e3d6000fd5b5050505050505050505050505050505050565b61013354610135546040516393f1a40b60e01b8152600481019190915230602482015260009182916001600160a01b03909116906393f1a40b90604401604080518083038186803b1580156127ae57600080fd5b505afa1580156127c2573d6000803e3d6000fd5b505050506040513d601f19601f820116820180604052508101906127e69190614b62565b509050801561285a576101335461013554604051630c7e663b60e11b815260048101919091523060248201526001600160a01b03909116906318fccc7690604401600060405180830381600087803b15801561284157600080fd5b505af1158015612855573d6000803e3d6000fd5b505050505b610130546040516370a0823160e01b81523060048201526000916001600160a01b0316906370a082319060240160206040518083038186803b15801561289f57600080fd5b505afa1580156128b3573d6000803e3d6000fd5b505050506040513d601f19601f820116820180604052508101906128d79190614ad6565b9050801561296b576101305461013a5460405163a9059cbb60e01b81526001600160a01b039283169263a9059cbb92612917929116908590600401614d41565b602060405180830381600087803b15801561293157600080fd5b505af1158015612945573d6000803e3d6000fd5b505050506040513d601f19601f820116820180604052508101906129699190614aa0565b505b61012f546040516370a0823160e01b815230600482015260009182916001600160a01b03909116906370a082319060240160206040518083038186803b1580156129b457600080fd5b505afa1580156129c8573d6000803e3d6000fd5b505050506040513d601f19601f820116820180604052508101906129ec9190614ad6565b90508015612a76576101395461012f5461012d54600092612a1f926001600160a01b039182169290821691168486613c5f565b90508015612a74576101395461012f5461012d54612a67926001600160a01b0390811692811691166000866064612a57886063615140565b612a619190615030565b30613ded565b612a719084615018565b92505b505b8115612b035761012d5460405163a9059cbb60e01b81526001600160a01b039091169063a9059cbb90612aaf9089908690600401614d41565b602060405180830381600087803b158015612ac957600080fd5b505af1158015612add573d6000803e3d6000fd5b505050506040513d601f19601f82011682018060405250810190612b019190614aa0565b505b50949350505050565b61013354610135546040516393f1a40b60e01b8152600481019190915230602482015260009182916001600160a01b03909116906393f1a40b90604401604080518083038186803b158015612b6057600080fd5b505afa158015612b74573d6000803e3d6000fd5b505050506040513d601f19601f82011682018060405250810190612b989190614b62565b50905080612c245761012d546040516370a0823160e01b81523060048201526001600160a01b03909116906370a082319060240160206040518083038186803b158015612be457600080fd5b505afa158015612bf8573d6000803e3d6000fd5b505050506040513d601f19601f82011682018060405250810190612c1c9190614ad6565b91505061078f565b6101335461013554604051630ad58d2f60e01b81526004810191909152602481018390523060448201526001600160a01b0390911690630ad58d2f90606401600060405180830381600087803b158015612c7d57600080fd5b505af1158015612c91573d6000803e3d6000fd5b50505050600061013460009054906101000a90046001600160a01b03166001600160a01b03166318160ddd6040518163ffffffff1660e01b815260040160206040518083038186803b158015612ce657600080fd5b505afa158015612cfa573d6000803e3d6000fd5b505050506040513d601f19601f82011682018060405250810190612d1e9190614ad6565b61013454604080516365dfc76760e01b8152815193945060009384936001600160a01b0316926365dfc7679260048082019391829003018186803b158015612d6557600080fd5b505afa158015612d79573d6000803e3d6000fd5b505050506040513d601f19601f82011682018060405250810190612d9d9190614b62565b90925090506000612db2846123f98786615140565b90506000612dc4856123f98886615140565b9050612de0604080518082019091526000808252602082015290565b61012d546001600160a01b0316815260208101839052612e10604080518082019091526000808252602082015290565b61012e546001600160a01b031681526020810183905260408051600280825260608201909252600091816020015b6040805180820190915260008082526020820152815260200190600190039081612e3e5790505090508281600081518110612e7b57612e7b6151ea565b60200260200101819052508181600181518110612e9a57612e9a6151ea565b6020908102919091010152610134546101325460405163095ea7b360e01b81526001600160a01b039283169263095ea7b392612edd929116908d90600401614d41565b602060405180830381600087803b158015612ef757600080fd5b505af1158015612f0b573d6000803e3d6000fd5b505050506040513d601f19601f82011682018060405250810190612f2f9190614aa0565b50610132546101345460408051306020820152600181830152815180820383018152606082019283905263783312d960e01b9092526001600160a01b039384169363783312d993612f8a939116918e91908790606401614d5a565b600060405180830381600087803b158015612fa457600080fd5b505af1158015612fb8573d6000803e3d6000fd5b505061012e546040516370a0823160e01b8152306004820152600093506001600160a01b0390911691506370a082319060240160206040518083038186803b15801561300357600080fd5b505afa158015613017573d6000803e3d6000fd5b505050506040513d601f19601f8201168201806040525081019061303b9190614ad6565b6101385461012e5461012d5492935061306c926001600160a01b03928316929182169116846121df6121d7826136bf565b5061012d546040516370a0823160e01b81523060048201526001600160a01b03909116906370a082319060240160206040518083038186803b1580156130b157600080fd5b505afa1580156130c5573d6000803e3d6000fd5b505050506040513d601f19601f820116820180604052508101906130e99190614ad6565b9d9c50505050505050505050505050565b60008061013460009054906101000a90046001600160a01b03166001600160a01b03166318160ddd6040518163ffffffff1660e01b815260040160206040518083038186803b15801561314c57600080fd5b505afa158015613160573d6000803e3d6000fd5b505050506040513d601f19601f820116820180604052508101906131849190614ad6565b61013454604080516365dfc76760e01b8152815193945060009384936001600160a01b0316926365dfc7679260048082019391829003018186803b1580156131cb57600080fd5b505afa1580156131df573d6000803e3d6000fd5b505050506040513d601f19601f820116820180604052508101906132039190614b62565b6101385461012d5461012e54939550919350600092613256926001600160a01b039283169290811691166132388b6001614006565b613244906103e8615018565b88888861013b5461013c546001614015565b61013354610135546040516393f1a40b60e01b815260048101919091523060248201529192506000916001600160a01b03909116906393f1a40b90604401604080518083038186803b1580156132ab57600080fd5b505afa1580156132bf573d6000803e3d6000fd5b505050506040513d601f19601f820116820180604052508101906132e39190614b62565b509050808211156132f2578091505b6101335461013554604051630ad58d2f60e01b81526004810191909152602481018490523060448201526001600160a01b0390911690630ad58d2f90606401600060405180830381600087803b15801561334b57600080fd5b505af115801561335f573d6000803e3d6000fd5b5050505060006133758684876123f99190615140565b90506000613387876123f98688615140565b90506133a3604080518082019091526000808252602082015290565b61012d546001600160a01b03168152602081018390526133d3604080518082019091526000808252602082015290565b61012e546001600160a01b031681526020810183905260408051600280825260608201909252600091816020015b6040805180820190915260008082526020820152815260200190600190039081613401579050509050828160008151811061343e5761343e6151ea565b6020026020010181905250818160018151811061345d5761345d6151ea565b6020908102919091010152610134546101325460405163095ea7b360e01b81526001600160a01b039283169263095ea7b3926134a0929116908b90600401614d41565b602060405180830381600087803b1580156134ba57600080fd5b505af11580156134ce573d6000803e3d6000fd5b505050506040513d601f19601f820116820180604052508101906134f29190614aa0565b50610132546101345460408051306020820152600181830152815180820383018152606082019283905263783312d960e01b9092526001600160a01b039384169363783312d99361354d939116918c91908790606401614d5a565b600060405180830381600087803b15801561356757600080fd5b505af115801561357b573d6000803e3d6000fd5b505061012e546040516370a0823160e01b8152306004820152600093506001600160a01b0390911691506370a082319060240160206040518083038186803b1580156135c657600080fd5b505afa1580156135da573d6000803e3d6000fd5b505050506040513d601f19601f820116820180604052508101906135fe9190614ad6565b6101385461012e5461012d5492935061362f926001600160a01b03928316929182169116846121df6121d7826136bf565b5061012d546040516370a0823160e01b81523060048201526001600160a01b03909116906370a082319060240160206040518083038186803b15801561367457600080fd5b505afa158015613688573d6000803e3d6000fd5b505050506040513d601f19601f820116820180604052508101906136ac9190614ad6565b9f9e505050505050505050505050505050565b6101375460009081906136da906001600160a01b03166140ed565b610136549091506000906136f6906001600160a01b03166140ed565b905061189e8461013c5461013b548585614211565b60008060008061371c888888614246565b92509250925080156137bd576040516307211ef760e01b8152600f84810b600483015283900b6024820152604481018690526001600160a01b038916906307211ef7906064015b60206040518083038186803b15801561377b57600080fd5b505afa15801561378f573d6000803e3d6000fd5b505050506040513d601f19601f820116820180604052508101906137b39190614ad6565b935050505061189e565b604051635e0d443f60e01b8152600f84810b600483015283900b6024820152604481018690526001600160a01b03891690635e0d443f90606401613763565b6138068282610b7d565b61084f576138138161449b565b61381e8360206144ad565b60405160200161382f929190614ccc565b60408051601f198184030181529082905262461bcd60e51b825261083c91600401614e62565b6001600160a01b0381163b6138c25760405162461bcd60e51b815260206004820152602d60248201527f455243313936373a206e657720696d706c656d656e746174696f6e206973206e60448201526c1bdd08184818dbdb9d1c9858dd609a1b606482015260840161083c565b60008051602061525a83398151915280546001600160a01b0319166001600160a01b0392909216919091179055565b6138fa83614649565b6000825111806139075750805b156107cb576139168383614689565b50505050565b600054610100900460ff166139875760405162461bcd60e51b815260206004820152602b60248201527f496e697469616c697a61626c653a20636f6e7472616374206973206e6f74206960448201526a6e697469616c697a696e6760a81b606482015260840161083c565b565b600084846139978589615140565b6139a19190615030565b6139ab9190615018565b6139b58689615140565b6139bf9190615030565b905060005b82811015613a265760006139da8c8c8c8661370b565b905086836139e8838b615140565b6139f29190615030565b6139fc9190615018565b613a06888b615140565b613a109190615030565b9250508080613a1e906151b9565b9150506139c4565b509998505050505050505050565b610137546000908190613a4f906001600160a01b03166140ed565b61013654909150600090613a6b906001600160a01b03166140ed565b905061189e8461013b5461013c548486614211565b60405163095ea7b360e01b81526000906001600160a01b0386169063095ea7b390613ab19089908790600401614d41565b602060405180830381600087803b158015613acb57600080fd5b505af1158015613adf573d6000803e3d6000fd5b505050506040513d601f19601f82011682018060405250810190613b039190614aa0565b506000806000613b14898989614246565b92509250925060008115613bbc57604051635320bf6b60e11b8152600f85810b600483015284900b602482015260448101889052606481018790526001600160a01b038b169063a6417ed690608401602060405180830381600087803b158015613b7d57600080fd5b505af1158015613b91573d6000803e3d6000fd5b505050506040513d601f19601f82011682018060405250810190613bb59190614ad6565b9050613c52565b604051630f7c084960e21b8152600f85810b600483015284900b602482015260448101889052606481018790526001600160a01b038b1690633df0212490608401602060405180830381600087803b158015613c1757600080fd5b505af1158015613c2b573d6000803e3d6000fd5b505050506040513d601f19601f82011682018060405250810190613c4f9190614ad6565b90505b9998505050505050505050565b604080516001808252818301909252600091829190816020015b6040805160608101825260008082526020808301829052928201528252600019909201910181613c795790505090508581600081518110613cbc57613cbc6151ea565b6020026020010151600001906001600160a01b031690816001600160a01b0316815250508481600081518110613cf457613cf46151ea565b6020026020010151602001906001600160a01b031690816001600160a01b0316815250508381600081518110613d2c57613d2c6151ea565b6020908102919091010151901515604091820152516326207f2d60e21b81526000906001600160a01b03891690639881fcb490613d6f9087908690600401614f92565b60006040518083038186803b158015613d8757600080fd5b505afa158015613d9b573d6000803e3d6000fd5b505050506040513d6000823e601f3d908101601f19168201604052613dc391908101906149f3565b905080600181518110613dd857613dd86151ea565b60200260200101519250505095945050505050565b60405163095ea7b360e01b81526000906001600160a01b0388169063095ea7b390613e1e908b908890600401614d41565b602060405180830381600087803b158015613e3857600080fd5b505af1158015613e4c573d6000803e3d6000fd5b505050506040513d601f19601f82011682018060405250810190613e709190614aa0565b50604080516001808252818301909252600091816020015b6040805160608101825260008082526020808301829052928201528252600019909201910181613e885790505090508781600081518110613ecb57613ecb6151ea565b6020026020010151600001906001600160a01b031690816001600160a01b0316815250508681600081518110613f0357613f036151ea565b6020026020010151602001906001600160a01b031690816001600160a01b0316815250508581600081518110613f3b57613f3b6151ea565b602090810291909101015190151560409182015251631e82ecdb60e31b81526000906001600160a01b038b169063f41766d890613f84908990899087908a904290600401614fab565b600060405180830381600087803b158015613f9e57600080fd5b505af1158015613fb2573d6000803e3d6000fd5b505050506040513d6000823e601f3d908101601f19168201604052613fda91908101906149f3565b905080600181518110613fef57613fef6151ea565b602002602001015192505050979650505050505050565b6000612710611f688382615018565b60006140218486615140565b61402b8488615140565b6140359190615018565b836140408a8a615140565b61404a9190615140565b6140549190615030565b905060005b828110156140de5760008861406e8489615140565b6140789190615030565b905060006140888e8d8f8561370b565b90506140948189615140565b61409e838b615140565b6140a89190615018565b826140b38d8d615140565b6140bd9190615140565b6140c79190615030565b9350505080806140d6906151b9565b915050614059565b509a9950505050505050505050565b6000806000806000856001600160a01b031663feaf968c6040518163ffffffff1660e01b815260040160a06040518083038186803b15801561412e57600080fd5b505afa158015614142573d6000803e3d6000fd5b505050506040513d601f19601f820116820180604052508101906141669190614bb2565b9450945050935093508369ffffffffffffffffffff168169ffffffffffffffffffff1610156141c25760405162461bcd60e51b81526020600482015260086024820152674f6c64206461746160c01b604482015260640161083c565b600082116142075760405162461bcd60e51b8152602060048201526012602482015271526f756e64206e6f7420636f6d706c65746560701b604482015260640161083c565b5090949350505050565b600061421d8286615140565b836142288689615140565b6142329190615140565b61423c9190615030565b9695505050505050565b6000808060016001607f1b0380825b60006142618a8361477d565b90506001600160a01b03811661427757506142ca565b886001600160a01b0316816001600160a01b03161415614299578193506142b7565b876001600160a01b0316816001600160a01b031614156142b7578192505b816142c1816151b9565b92505050614255565b600f83900b60016001607f1b03148015906142f05750600f82900b60016001607f1b0314155b156143045750909350915060009050614492565b600f83900b60016001607f1b031415806143295750600f82900b60016001607f1b0314155b156143825760405162461bcd60e51b815260206004820152602360248201527f437572766553503a20696e636f727265637420746f6b656e207061697220736560448201526207475760ec1b606482015260840161083c565b5060005b60006143928a8361480a565b90506001600160a01b0381166143a857506143fb565b886001600160a01b0316816001600160a01b031614156143ca578193506143e8565b876001600160a01b0316816001600160a01b031614156143e8578192505b816143f2816151b9565b92505050614386565b600f83900b60016001607f1b03148015906144215750600f82900b60016001607f1b0314155b156144355750909350915060019050614492565b60405162461bcd60e51b815260206004820152602c60248201527f437572766553503a2043616e27742066696e6420696e64657820666f7220746f60448201526b1ad95b9cc81a5b881c1bdbdb60a21b606482015260840161083c565b93509350939050565b606061078f6001600160a01b03831660145b606060006144bc836002615140565b6144c7906002615018565b67ffffffffffffffff8111156144df576144df615200565b6040519080825280601f01601f191660200182016040528015614509576020820181803683370190505b509050600360fc1b81600081518110614524576145246151ea565b60200101906001600160f81b031916908160001a905350600f60fb1b81600181518110614553576145536151ea565b60200101906001600160f81b031916908160001a9053506000614577846002615140565b614582906001615018565b90505b60018111156145fa576f181899199a1a9b1b9c1cb0b131b232b360811b85600f16601081106145b6576145b66151ea565b1a60f81b8282815181106145cc576145cc6151ea565b60200101906001600160f81b031916908160001a90535060049490941c936145f3816151a2565b9050614585565b508315611f7c5760405162461bcd60e51b815260206004820181905260248201527f537472696e67733a20686578206c656e67746820696e73756666696369656e74604482015260640161083c565b61465281613855565b6040516001600160a01b038216907fbc7cd75a20ee27fd9adebab32041f755214dbc6bffa90cc0225b39da2e5c2d3b90600090a250565b60606001600160a01b0383163b6146f15760405162461bcd60e51b815260206004820152602660248201527f416464726573733a2064656c65676174652063616c6c20746f206e6f6e2d636f6044820152651b9d1c9858dd60d21b606482015260840161083c565b600080846001600160a01b03168460405161470c9190614cb0565b600060405180830381855af49150503d8060008114614747576040519150601f19603f3d011682016040523d82523d6000602084013e61474c565b606091505b5091509150614774828260405180606001604052806027815260200161527a6027913961483a565b95945050505050565b60405163c661065760e01b8152600481018290526000906001600160a01b0384169063c6610657906024015b60206040518083038186803b1580156147c157600080fd5b505afa9250505080156147f1575060408051601f3d908101601f191682019092526147ee918101906148af565b60015b6147fa57614801565b905061078f565b50600092915050565b604051630b9947eb60e41b8152600481018290526000906001600160a01b0384169063b9947eb0906024016147a9565b60608315614849575081611f7c565b611f7c838381511561485e5781518083602001fd5b8060405162461bcd60e51b815260040161083c9190614e62565b805169ffffffffffffffffffff811681146115d657600080fd5b6000602082840312156148a457600080fd5b8135611f7c81615216565b6000602082840312156148c157600080fd5b8151611f7c81615216565b600080604083850312156148df57600080fd5b82356148ea81615216565b915060208381013567ffffffffffffffff8082111561490857600080fd5b818601915086601f83011261491c57600080fd5b81358181111561492e5761492e615200565b614940601f8201601f19168501614fe7565b9150808252878482850101111561495657600080fd5b80848401858401376000848284010152508093505050509250929050565b6000806040838503121561498757600080fd5b823561499281615216565b946020939093013593505050565b600080600080608085870312156149b657600080fd5b84356149c181615216565b93506020850135925060408501356149d881615216565b915060608501356149e88161522b565b939692955090935050565b60006020808385031215614a0657600080fd5b825167ffffffffffffffff80821115614a1e57600080fd5b818501915085601f830112614a3257600080fd5b815181811115614a4457614a44615200565b8060051b9150614a55848301614fe7565b8181528481019084860184860187018a1015614a7057600080fd5b600095505b83861015614a93578051835260019590950194918601918601614a75565b5098975050505050505050565b600060208284031215614ab257600080fd5b8151611f7c8161522b565b600060208284031215614acf57600080fd5b5035919050565b600060208284031215614ae857600080fd5b5051919050565b60008060408385031215614b0257600080fd5b823591506020830135614b1481615216565b809150509250929050565b600060208284031215614b3157600080fd5b81356001600160e01b031981168114611f7c57600080fd5b60006101c08284031215614b5c57600080fd5b50919050565b60008060408385031215614b7557600080fd5b505080516020909101519092909150565b600080600060608486031215614b9b57600080fd5b505081359360208301359350604090920135919050565b600080600080600060a08688031215614bca57600080fd5b614bd386614878565b9450602086015193506040860151925060608601519150614bf660808701614878565b90509295509295909350565b600060208284031215614c1457600080fd5b815160ff81168114611f7c57600080fd5b600081518084526020808501945080840160005b83811015614c7957815180516001600160a01b03908116895284820151168489015260409081015115159088015260609096019590820190600101614c39565b509495945050505050565b60008151808452614c9c816020860160208601615176565b601f01601f19169290920160200192915050565b60008251614cc2818460208701615176565b9190910192915050565b7f416363657373436f6e74726f6c3a206163636f756e7420000000000000000000815260008351614d04816017850160208801615176565b7001034b99036b4b9b9b4b733903937b6329607d1b6017918401918201528351614d35816028840160208801615176565b01602801949350505050565b6001600160a01b03929092168252602082015260400190565b600060018060a01b038087168352602086818501526040608081860152614d846080860188614c84565b858103606087015286518082528388019184019060005b81811015614dc2578351805188168452860151868401529285019291840191600101614d9b565b50909b9a5050505050505050505050565b6080808252855190820181905260009060209060a0840190828901845b82811015614e2d57815180516001600160a01b03168552858101511515868601526040908101519085015260609093019290840190600101614df0565b5050506001600160a01b038716848301528560408501528381036060850152614e568186614c84565b98975050505050505050565b602081526000611f7c6020830184614c84565b6020808252601f908201527f5265737472696374656420746f20504f5254464f4c494f5f4d414e4147455200604082015260600190565b6020808252602c908201527f46756e6374696f6e206d7573742062652063616c6c6564207468726f7567682060408201526b19195b1959d85d1958d85b1b60a21b606082015260800190565b6020808252602c908201527f46756e6374696f6e206d7573742062652063616c6c6564207468726f7567682060408201526b6163746976652070726f787960a01b606082015260800190565b6020808252602e908201527f496e697469616c697a61626c653a20636f6e747261637420697320616c72656160408201526d191e481a5b9a5d1a585b1a5e995960921b606082015260800190565b82815260406020820152600061189e6040830184614c25565b85815284602082015260a060408201526000614fca60a0830186614c25565b6001600160a01b0394909416606083015250608001529392505050565b604051601f8201601f1916810167ffffffffffffffff8111828210171561501057615010615200565b604052919050565b6000821982111561502b5761502b6151d4565b500190565b60008261504d57634e487b7160e01b600052601260045260246000fd5b500490565b600181815b8085111561508d578160001904821115615073576150736151d4565b8085161561508057918102915b93841c9390800290615057565b509250929050565b6000611f7c60ff8416836000826150ae5750600161078f565b816150bb5750600061078f565b81600181146150d157600281146150db576150f7565b600191505061078f565b60ff8411156150ec576150ec6151d4565b50506001821b61078f565b5060208310610133831016604e8410600b841016171561511a575081810a61078f565b6151248383615052565b8060001904821115615138576151386151d4565b029392505050565b600081600019048311821515161561515a5761515a6151d4565b500290565b600082821015615171576151716151d4565b500390565b60005b83811015615191578181015183820152602001615179565b838111156139165750506000910152565b6000816151b1576151b16151d4565b506000190190565b60006000198214156151cd576151cd6151d4565b5060010190565b634e487b7160e01b600052601160045260246000fd5b634e487b7160e01b600052603260045260246000fd5b634e487b7160e01b600052604160045260246000fd5b6001600160a01b038116811461093057600080fd5b801515811461093057600080fdfe90c2aa7471c04182221f68e80c07ab1e5946e4c63f8693e14ca40385d529f051360894a13ba1a3210667c828492db98dca3e2076cc3735a920a3ca505d382bbc416464726573733a206c6f772d6c6576656c2064656c65676174652063616c6c206661696c6564a26469706673582212203e789d26fa07122ea6c456c3d84f1efaddf1789f5872f60edfc6cf2e8cc8e66964736f6c63430008060033",
  "implementation": "0xBCe871E9623f22D6D199A65dFdA9516b5652Be45",
  "devdoc": {
    "kind": "dev",
    "methods": {
      "constructor": {
        "custom:oz-upgrades-unsafe-allow": "constructor"
      },
      "getRoleAdmin(bytes32)": {
        "details": "Returns the admin role that controls `role`. See {grantRole} and {revokeRole}. To change a role's admin, use {_setRoleAdmin}."
      },
      "grantRole(bytes32,address)": {
        "details": "Grants `role` to `account`. If `account` had not been already granted `role`, emits a {RoleGranted} event. Requirements: - the caller must have ``role``'s admin role. May emit a {RoleGranted} event."
      },
      "hasRole(bytes32,address)": {
        "details": "Returns `true` if `account` has been granted `role`."
      },
      "proxiableUUID()": {
        "details": "Implementation of the ERC1822 {proxiableUUID} function. This returns the storage slot used by the implementation. It is used to validate the implementation's compatibility when performing an upgrade. IMPORTANT: A proxy pointing at a proxiable contract should not be considered proxiable itself, because this risks bricking a proxy that upgrades to it, by delegating to itself until out of gas. Thus it is critical that this function revert if invoked through a proxy. This is guaranteed by the `notDelegated` modifier."
      },
      "renounceRole(bytes32,address)": {
        "details": "Revokes `role` from the calling account. Roles are often managed via {grantRole} and {revokeRole}: this function's purpose is to provide a mechanism for accounts to lose their privileges if they are compromised (such as when a trusted device is misplaced). If the calling account had been revoked `role`, emits a {RoleRevoked} event. Requirements: - the caller must be `account`. May emit a {RoleRevoked} event."
      },
      "revokeRole(bytes32,address)": {
        "details": "Revokes `role` from `account`. If `account` had been granted `role`, emits a {RoleRevoked} event. Requirements: - the caller must have ``role``'s admin role. May emit a {RoleRevoked} event."
      },
      "supportsInterface(bytes4)": {
        "details": "See {IERC165-supportsInterface}."
      },
      "upgradeTo(address)": {
        "details": "Upgrade the implementation of the proxy to `newImplementation`. Calls {_authorizeUpgrade}. Emits an {Upgraded} event."
      },
      "upgradeToAndCall(address,bytes)": {
        "details": "Upgrade the implementation of the proxy to `newImplementation`, and subsequently execute the function call encoded in `data`. Calls {_authorizeUpgrade}. Emits an {Upgraded} event."
      }
    },
    "version": 1
  },
  "userdoc": {
    "kind": "user",
    "methods": {},
    "version": 1
  },
  "storageLayout": {
    "storage": [
      {
        "astId": 804,
        "contract": "contracts/StrategySushiswapUsdcUsdt.sol:StrategySushiswapUsdcUsdt",
        "label": "_initialized",
        "offset": 0,
        "slot": "0",
        "type": "t_uint8"
      },
      {
        "astId": 807,
        "contract": "contracts/StrategySushiswapUsdcUsdt.sol:StrategySushiswapUsdcUsdt",
        "label": "_initializing",
        "offset": 1,
        "slot": "0",
        "type": "t_bool"
      },
      {
        "astId": 1427,
        "contract": "contracts/StrategySushiswapUsdcUsdt.sol:StrategySushiswapUsdcUsdt",
        "label": "__gap",
        "offset": 0,
        "slot": "1",
        "type": "t_array(t_uint256)50_storage"
      },
      {
        "astId": 1706,
        "contract": "contracts/StrategySushiswapUsdcUsdt.sol:StrategySushiswapUsdcUsdt",
        "label": "__gap",
        "offset": 0,
        "slot": "51",
        "type": "t_array(t_uint256)50_storage"
      },
      {
        "astId": 39,
        "contract": "contracts/StrategySushiswapUsdcUsdt.sol:StrategySushiswapUsdcUsdt",
        "label": "_roles",
        "offset": 0,
        "slot": "101",
        "type": "t_mapping(t_bytes32,t_struct(RoleData)34_storage)"
      },
      {
        "astId": 334,
        "contract": "contracts/StrategySushiswapUsdcUsdt.sol:StrategySushiswapUsdcUsdt",
        "label": "__gap",
        "offset": 0,
        "slot": "102",
        "type": "t_array(t_uint256)49_storage"
      },
      {
        "astId": 786,
        "contract": "contracts/StrategySushiswapUsdcUsdt.sol:StrategySushiswapUsdcUsdt",
        "label": "__gap",
        "offset": 0,
        "slot": "151",
        "type": "t_array(t_uint256)50_storage"
      },
      {
        "astId": 1101,
        "contract": "contracts/StrategySushiswapUsdcUsdt.sol:StrategySushiswapUsdcUsdt",
        "label": "__gap",
        "offset": 0,
        "slot": "201",
        "type": "t_array(t_uint256)50_storage"
      },
      {
        "astId": 14705,
        "contract": "contracts/StrategySushiswapUsdcUsdt.sol:StrategySushiswapUsdcUsdt",
        "label": "portfolioManager",
        "offset": 0,
        "slot": "251",
        "type": "t_address"
      },
      {
        "astId": 14707,
        "contract": "contracts/StrategySushiswapUsdcUsdt.sol:StrategySushiswapUsdcUsdt",
        "label": "swapSlippageBP",
        "offset": 0,
        "slot": "252",
        "type": "t_uint256"
      },
      {
        "astId": 14709,
        "contract": "contracts/StrategySushiswapUsdcUsdt.sol:StrategySushiswapUsdcUsdt",
        "label": "navSlippageBP",
        "offset": 0,
        "slot": "253",
        "type": "t_uint256"
      },
      {
        "astId": 14711,
        "contract": "contracts/StrategySushiswapUsdcUsdt.sol:StrategySushiswapUsdcUsdt",
        "label": "stakeSlippageBP",
        "offset": 0,
        "slot": "254",
        "type": "t_uint256"
      },
      {
        "astId": 15096,
        "contract": "contracts/StrategySushiswapUsdcUsdt.sol:StrategySushiswapUsdcUsdt",
        "label": "__gap",
        "offset": 0,
        "slot": "255",
        "type": "t_array(t_uint256)46_storage"
      },
      {
        "astId": 25057,
        "contract": "contracts/StrategySushiswapUsdcUsdt.sol:StrategySushiswapUsdcUsdt",
        "label": "usdc",
        "offset": 0,
        "slot": "301",
        "type": "t_contract(IERC20)3249"
      },
      {
        "astId": 25060,
        "contract": "contracts/StrategySushiswapUsdcUsdt.sol:StrategySushiswapUsdcUsdt",
        "label": "usdt",
        "offset": 0,
        "slot": "302",
        "type": "t_contract(IERC20)3249"
      },
      {
        "astId": 25063,
        "contract": "contracts/StrategySushiswapUsdcUsdt.sol:StrategySushiswapUsdcUsdt",
        "label": "op",
        "offset": 0,
        "slot": "303",
        "type": "t_contract(IERC20)3249"
      },
      {
        "astId": 25066,
        "contract": "contracts/StrategySushiswapUsdcUsdt.sol:StrategySushiswapUsdcUsdt",
        "label": "sushi",
        "offset": 0,
        "slot": "304",
        "type": "t_contract(IERC20)3249"
      },
      {
        "astId": 25069,
        "contract": "contracts/StrategySushiswapUsdcUsdt.sol:StrategySushiswapUsdcUsdt",
        "label": "bentoBox",
        "offset": 0,
        "slot": "305",
        "type": "t_contract(IBentoBox)10425"
      },
      {
        "astId": 25072,
        "contract": "contracts/StrategySushiswapUsdcUsdt.sol:StrategySushiswapUsdcUsdt",
        "label": "tridentRouter",
        "offset": 0,
        "slot": "306",
        "type": "t_contract(ITridentRouter)10091"
      },
      {
        "astId": 25075,
        "contract": "contracts/StrategySushiswapUsdcUsdt.sol:StrategySushiswapUsdcUsdt",
        "label": "miniChefV2",
        "offset": 0,
        "slot": "307",
        "type": "t_contract(IMiniChefV2)10151"
      },
      {
        "astId": 25078,
        "contract": "contracts/StrategySushiswapUsdcUsdt.sol:StrategySushiswapUsdcUsdt",
        "label": "lpToken",
        "offset": 0,
        "slot": "308",
        "type": "t_contract(IStablePool)10194"
      },
      {
        "astId": 25080,
        "contract": "contracts/StrategySushiswapUsdcUsdt.sol:StrategySushiswapUsdcUsdt",
        "label": "pid",
        "offset": 0,
        "slot": "309",
        "type": "t_uint256"
      },
      {
        "astId": 25083,
        "contract": "contracts/StrategySushiswapUsdcUsdt.sol:StrategySushiswapUsdcUsdt",
        "label": "oracleUsdc",
        "offset": 0,
        "slot": "310",
        "type": "t_contract(IPriceFeed)7026"
      },
      {
        "astId": 25086,
        "contract": "contracts/StrategySushiswapUsdcUsdt.sol:StrategySushiswapUsdcUsdt",
        "label": "oracleUsdt",
        "offset": 0,
        "slot": "311",
        "type": "t_contract(IPriceFeed)7026"
      },
      {
        "astId": 25088,
        "contract": "contracts/StrategySushiswapUsdcUsdt.sol:StrategySushiswapUsdcUsdt",
        "label": "curve3Pool",
        "offset": 0,
        "slot": "312",
        "type": "t_address"
      },
      {
        "astId": 25091,
        "contract": "contracts/StrategySushiswapUsdcUsdt.sol:StrategySushiswapUsdcUsdt",
        "label": "velodromeRouter",
        "offset": 0,
        "slot": "313",
        "type": "t_contract(IRouter)14037"
      },
      {
        "astId": 25093,
        "contract": "contracts/StrategySushiswapUsdcUsdt.sol:StrategySushiswapUsdcUsdt",
        "label": "rewardWallet",
        "offset": 0,
        "slot": "314",
        "type": "t_address"
      },
      {
        "astId": 25095,
        "contract": "contracts/StrategySushiswapUsdcUsdt.sol:StrategySushiswapUsdcUsdt",
        "label": "usdcDm",
        "offset": 0,
        "slot": "315",
        "type": "t_uint256"
      },
      {
        "astId": 25097,
        "contract": "contracts/StrategySushiswapUsdcUsdt.sol:StrategySushiswapUsdcUsdt",
        "label": "usdtDm",
        "offset": 0,
        "slot": "316",
        "type": "t_uint256"
      }
    ],
    "types": {
      "t_address": {
        "encoding": "inplace",
        "label": "address",
        "numberOfBytes": "20"
      },
      "t_array(t_uint256)46_storage": {
        "base": "t_uint256",
        "encoding": "inplace",
        "label": "uint256[46]",
        "numberOfBytes": "1472"
      },
      "t_array(t_uint256)49_storage": {
        "base": "t_uint256",
        "encoding": "inplace",
        "label": "uint256[49]",
        "numberOfBytes": "1568"
      },
      "t_array(t_uint256)50_storage": {
        "base": "t_uint256",
        "encoding": "inplace",
        "label": "uint256[50]",
        "numberOfBytes": "1600"
      },
      "t_bool": {
        "encoding": "inplace",
        "label": "bool",
        "numberOfBytes": "1"
      },
      "t_bytes32": {
        "encoding": "inplace",
        "label": "bytes32",
        "numberOfBytes": "32"
      },
      "t_contract(IBentoBox)10425": {
        "encoding": "inplace",
        "label": "contract IBentoBox",
        "numberOfBytes": "20"
      },
      "t_contract(IERC20)3249": {
        "encoding": "inplace",
        "label": "contract IERC20",
        "numberOfBytes": "20"
      },
      "t_contract(IMiniChefV2)10151": {
        "encoding": "inplace",
        "label": "contract IMiniChefV2",
        "numberOfBytes": "20"
      },
      "t_contract(IPriceFeed)7026": {
        "encoding": "inplace",
        "label": "contract IPriceFeed",
        "numberOfBytes": "20"
      },
      "t_contract(IRouter)14037": {
        "encoding": "inplace",
        "label": "contract IRouter",
        "numberOfBytes": "20"
      },
      "t_contract(IStablePool)10194": {
        "encoding": "inplace",
        "label": "contract IStablePool",
        "numberOfBytes": "20"
      },
      "t_contract(ITridentRouter)10091": {
        "encoding": "inplace",
        "label": "contract ITridentRouter",
        "numberOfBytes": "20"
      },
      "t_mapping(t_address,t_bool)": {
        "encoding": "mapping",
        "key": "t_address",
        "label": "mapping(address => bool)",
        "numberOfBytes": "32",
        "value": "t_bool"
      },
      "t_mapping(t_bytes32,t_struct(RoleData)34_storage)": {
        "encoding": "mapping",
        "key": "t_bytes32",
        "label": "mapping(bytes32 => struct AccessControlUpgradeable.RoleData)",
        "numberOfBytes": "32",
        "value": "t_struct(RoleData)34_storage"
      },
      "t_struct(RoleData)34_storage": {
        "encoding": "inplace",
        "label": "struct AccessControlUpgradeable.RoleData",
        "members": [
          {
            "astId": 31,
            "contract": "contracts/StrategySushiswapUsdcUsdt.sol:StrategySushiswapUsdcUsdt",
            "label": "members",
            "offset": 0,
            "slot": "0",
            "type": "t_mapping(t_address,t_bool)"
          },
          {
            "astId": 33,
            "contract": "contracts/StrategySushiswapUsdcUsdt.sol:StrategySushiswapUsdcUsdt",
            "label": "adminRole",
            "offset": 0,
            "slot": "1",
            "type": "t_bytes32"
          }
        ],
        "numberOfBytes": "64"
      },
      "t_uint256": {
        "encoding": "inplace",
        "label": "uint256",
        "numberOfBytes": "32"
      },
      "t_uint8": {
        "encoding": "inplace",
        "label": "uint8",
        "numberOfBytes": "1"
      }
    }
  }
}