{
  "address": "0x9fD56B853C73888B0B3d1B41e6695C4eeE12a344",
  "abi": [
    {
      "inputs": [],
      "stateMutability": "nonpayable",
      "type": "constructor"
    },
    {
      "anonymous": false,
      "inputs": [
        {
          "indexed": false,
          "internalType": "address",
          "name": "previousAdmin",
          "type": "address"
        },
        {
          "indexed": false,
          "internalType": "address",
          "name": "newAdmin",
          "type": "address"
        }
      ],
      "name": "AdminChanged",
      "type": "event"
    },
    {
      "anonymous": false,
      "inputs": [
        {
          "indexed": true,
          "internalType": "address",
          "name": "beacon",
          "type": "address"
        }
      ],
      "name": "BeaconUpgraded",
      "type": "event"
    },
    {
      "anonymous": false,
      "inputs": [
        {
          "indexed": false,
          "internalType": "uint8",
          "name": "version",
          "type": "uint8"
        }
      ],
      "name": "Initialized",
      "type": "event"
    },
    {
      "anonymous": false,
      "inputs": [
        {
          "indexed": false,
          "internalType": "address",
          "name": "value",
          "type": "address"
        }
      ],
      "name": "PortfolioManagerUpdated",
      "type": "event"
    },
    {
      "anonymous": false,
      "inputs": [
        {
          "indexed": false,
          "internalType": "uint256",
          "name": "amount",
          "type": "uint256"
        }
      ],
      "name": "Reward",
      "type": "event"
    },
    {
      "anonymous": false,
      "inputs": [
        {
          "indexed": true,
          "internalType": "bytes32",
          "name": "role",
          "type": "bytes32"
        },
        {
          "indexed": true,
          "internalType": "bytes32",
          "name": "previousAdminRole",
          "type": "bytes32"
        },
        {
          "indexed": true,
          "internalType": "bytes32",
          "name": "newAdminRole",
          "type": "bytes32"
        }
      ],
      "name": "RoleAdminChanged",
      "type": "event"
    },
    {
      "anonymous": false,
      "inputs": [
        {
          "indexed": true,
          "internalType": "bytes32",
          "name": "role",
          "type": "bytes32"
        },
        {
          "indexed": true,
          "internalType": "address",
          "name": "account",
          "type": "address"
        },
        {
          "indexed": true,
          "internalType": "address",
          "name": "sender",
          "type": "address"
        }
      ],
      "name": "RoleGranted",
      "type": "event"
    },
    {
      "anonymous": false,
      "inputs": [
        {
          "indexed": true,
          "internalType": "bytes32",
          "name": "role",
          "type": "bytes32"
        },
        {
          "indexed": true,
          "internalType": "address",
          "name": "account",
          "type": "address"
        },
        {
          "indexed": true,
          "internalType": "address",
          "name": "sender",
          "type": "address"
        }
      ],
      "name": "RoleRevoked",
      "type": "event"
    },
    {
      "anonymous": false,
      "inputs": [
        {
          "indexed": false,
          "internalType": "uint256",
          "name": "swapSlippageBP",
          "type": "uint256"
        },
        {
          "indexed": false,
          "internalType": "uint256",
          "name": "navSlippageBP",
          "type": "uint256"
        },
        {
          "indexed": false,
          "internalType": "uint256",
          "name": "stakeSlippageBP",
          "type": "uint256"
        }
      ],
      "name": "SlippagesUpdated",
      "type": "event"
    },
    {
      "anonymous": false,
      "inputs": [
        {
          "indexed": false,
          "internalType": "uint256",
          "name": "amount",
          "type": "uint256"
        }
      ],
      "name": "Stake",
      "type": "event"
    },
    {
      "anonymous": false,
      "inputs": [],
      "name": "StrategyUpdatedParams",
      "type": "event"
    },
    {
      "anonymous": false,
      "inputs": [
        {
          "indexed": false,
          "internalType": "uint256",
          "name": "amount",
          "type": "uint256"
        },
        {
          "indexed": false,
          "internalType": "uint256",
          "name": "amountReceived",
          "type": "uint256"
        }
      ],
      "name": "Unstake",
      "type": "event"
    },
    {
      "anonymous": false,
      "inputs": [
        {
          "indexed": true,
          "internalType": "address",
          "name": "implementation",
          "type": "address"
        }
      ],
      "name": "Upgraded",
      "type": "event"
    },
    {
      "inputs": [],
      "name": "DEFAULT_ADMIN_ROLE",
      "outputs": [
        {
          "internalType": "bytes32",
          "name": "",
          "type": "bytes32"
        }
      ],
      "stateMutability": "view",
      "type": "function"
    },
    {
      "inputs": [],
      "name": "PORTFOLIO_AGENT_ROLE",
      "outputs": [
        {
          "internalType": "bytes32",
          "name": "",
          "type": "bytes32"
        }
      ],
      "stateMutability": "view",
      "type": "function"
    },
    {
      "inputs": [],
      "name": "PORTFOLIO_MANAGER",
      "outputs": [
        {
          "internalType": "bytes32",
          "name": "",
          "type": "bytes32"
        }
      ],
      "stateMutability": "view",
      "type": "function"
    },
    {
      "inputs": [],
      "name": "allowedSlippageBp",
      "outputs": [
        {
          "internalType": "uint256",
          "name": "",
          "type": "uint256"
        }
      ],
      "stateMutability": "view",
      "type": "function"
    },
    {
      "inputs": [
        {
          "internalType": "address",
          "name": "_to",
          "type": "address"
        }
      ],
      "name": "claimRewards",
      "outputs": [
        {
          "internalType": "uint256",
          "name": "",
          "type": "uint256"
        }
      ],
      "stateMutability": "nonpayable",
      "type": "function"
    },
    {
      "inputs": [],
      "name": "dai",
      "outputs": [
        {
          "internalType": "contract IERC20",
          "name": "",
          "type": "address"
        }
      ],
      "stateMutability": "view",
      "type": "function"
    },
    {
      "inputs": [],
      "name": "daiDm",
      "outputs": [
        {
          "internalType": "uint256",
          "name": "",
          "type": "uint256"
        }
      ],
      "stateMutability": "view",
      "type": "function"
    },
    {
      "inputs": [
        {
          "internalType": "bytes32",
          "name": "role",
          "type": "bytes32"
        }
      ],
      "name": "getRoleAdmin",
      "outputs": [
        {
          "internalType": "bytes32",
          "name": "",
          "type": "bytes32"
        }
      ],
      "stateMutability": "view",
      "type": "function"
    },
    {
      "inputs": [
        {
          "internalType": "bytes32",
          "name": "role",
          "type": "bytes32"
        },
        {
          "internalType": "address",
          "name": "account",
          "type": "address"
        }
      ],
      "name": "grantRole",
      "outputs": [],
      "stateMutability": "nonpayable",
      "type": "function"
    },
    {
      "inputs": [
        {
          "internalType": "bytes32",
          "name": "role",
          "type": "bytes32"
        },
        {
          "internalType": "address",
          "name": "account",
          "type": "address"
        }
      ],
      "name": "hasRole",
      "outputs": [
        {
          "internalType": "bool",
          "name": "",
          "type": "bool"
        }
      ],
      "stateMutability": "view",
      "type": "function"
    },
    {
      "inputs": [],
      "name": "hedgeExchanger",
      "outputs": [
        {
          "internalType": "contract IHedgeExchanger",
          "name": "",
          "type": "address"
        }
      ],
      "stateMutability": "view",
      "type": "function"
    },
    {
      "inputs": [
        {
          "internalType": "uint256",
          "name": "_swapSlippageBP",
          "type": "uint256"
        },
        {
          "internalType": "uint256",
          "name": "_navSlippageBP",
          "type": "uint256"
        },
        {
          "internalType": "uint256",
          "name": "_stakeSlippageBP",
          "type": "uint256"
        }
      ],
      "name": "initSlippages",
      "outputs": [],
      "stateMutability": "nonpayable",
      "type": "function"
    },
    {
      "inputs": [],
      "name": "initialize",
      "outputs": [],
      "stateMutability": "nonpayable",
      "type": "function"
    },
    {
      "inputs": [],
      "name": "liquidationValue",
      "outputs": [
        {
          "internalType": "uint256",
          "name": "",
          "type": "uint256"
        }
      ],
      "stateMutability": "view",
      "type": "function"
    },
    {
      "inputs": [],
      "name": "navSlippageBP",
      "outputs": [
        {
          "internalType": "uint256",
          "name": "",
          "type": "uint256"
        }
      ],
      "stateMutability": "view",
      "type": "function"
    },
    {
      "inputs": [],
      "name": "netAssetValue",
      "outputs": [
        {
          "internalType": "uint256",
          "name": "",
          "type": "uint256"
        }
      ],
      "stateMutability": "view",
      "type": "function"
    },
    {
      "inputs": [],
      "name": "oracleDai",
      "outputs": [
        {
          "internalType": "contract IPriceFeed",
          "name": "",
          "type": "address"
        }
      ],
      "stateMutability": "view",
      "type": "function"
    },
    {
      "inputs": [],
      "name": "oracleUsdc",
      "outputs": [
        {
          "internalType": "contract IPriceFeed",
          "name": "",
          "type": "address"
        }
      ],
      "stateMutability": "view",
      "type": "function"
    },
    {
      "inputs": [],
      "name": "poolUsdcDaiFee",
      "outputs": [
        {
          "internalType": "uint24",
          "name": "",
          "type": "uint24"
        }
      ],
      "stateMutability": "view",
      "type": "function"
    },
    {
      "inputs": [],
      "name": "portfolioManager",
      "outputs": [
        {
          "internalType": "address",
          "name": "",
          "type": "address"
        }
      ],
      "stateMutability": "view",
      "type": "function"
    },
    {
      "inputs": [],
      "name": "proxiableUUID",
      "outputs": [
        {
          "internalType": "bytes32",
          "name": "",
          "type": "bytes32"
        }
      ],
      "stateMutability": "view",
      "type": "function"
    },
    {
      "inputs": [],
      "name": "rebaseToken",
      "outputs": [
        {
          "internalType": "contract IERC20",
          "name": "",
          "type": "address"
        }
      ],
      "stateMutability": "view",
      "type": "function"
    },
    {
      "inputs": [
        {
          "internalType": "bytes32",
          "name": "role",
          "type": "bytes32"
        },
        {
          "internalType": "address",
          "name": "account",
          "type": "address"
        }
      ],
      "name": "renounceRole",
      "outputs": [],
      "stateMutability": "nonpayable",
      "type": "function"
    },
    {
      "inputs": [
        {
          "internalType": "bytes32",
          "name": "role",
          "type": "bytes32"
        },
        {
          "internalType": "address",
          "name": "account",
          "type": "address"
        }
      ],
      "name": "revokeRole",
      "outputs": [],
      "stateMutability": "nonpayable",
      "type": "function"
    },
    {
      "inputs": [
        {
          "components": [
            {
              "internalType": "address",
              "name": "usdc",
              "type": "address"
            },
            {
              "internalType": "address",
              "name": "dai",
              "type": "address"
            },
            {
              "internalType": "address",
              "name": "rebaseToken",
              "type": "address"
            },
            {
              "internalType": "address",
              "name": "hedgeExchanger",
              "type": "address"
            },
            {
              "internalType": "address",
              "name": "uniswapV3Router",
              "type": "address"
            },
            {
              "internalType": "uint24",
              "name": "poolUsdcDaiFee",
              "type": "uint24"
            },
            {
              "internalType": "address",
              "name": "oracleUsdc",
              "type": "address"
            },
            {
              "internalType": "address",
              "name": "oracleDai",
              "type": "address"
            }
          ],
          "internalType": "struct StrategyEtsUsdcDai.StrategyParams",
          "name": "params",
          "type": "tuple"
        }
      ],
      "name": "setParams",
      "outputs": [],
      "stateMutability": "nonpayable",
      "type": "function"
    },
    {
      "inputs": [
        {
          "internalType": "address",
          "name": "_value",
          "type": "address"
        }
      ],
      "name": "setPortfolioManager",
      "outputs": [],
      "stateMutability": "nonpayable",
      "type": "function"
    },
    {
      "inputs": [
        {
          "internalType": "uint256",
          "name": "_swapSlippageBP",
          "type": "uint256"
        },
        {
          "internalType": "uint256",
          "name": "_navSlippageBP",
          "type": "uint256"
        },
        {
          "internalType": "uint256",
          "name": "_stakeSlippageBP",
          "type": "uint256"
        }
      ],
      "name": "setSlippages",
      "outputs": [],
      "stateMutability": "nonpayable",
      "type": "function"
    },
    {
      "inputs": [
        {
          "internalType": "address",
          "name": "_asset",
          "type": "address"
        },
        {
          "internalType": "uint256",
          "name": "_amount",
          "type": "uint256"
        }
      ],
      "name": "stake",
      "outputs": [],
      "stateMutability": "nonpayable",
      "type": "function"
    },
    {
      "inputs": [],
      "name": "stakeSlippageBP",
      "outputs": [
        {
          "internalType": "uint256",
          "name": "",
          "type": "uint256"
        }
      ],
      "stateMutability": "view",
      "type": "function"
    },
    {
      "inputs": [
        {
          "internalType": "bytes4",
          "name": "interfaceId",
          "type": "bytes4"
        }
      ],
      "name": "supportsInterface",
      "outputs": [
        {
          "internalType": "bool",
          "name": "",
          "type": "bool"
        }
      ],
      "stateMutability": "view",
      "type": "function"
    },
    {
      "inputs": [],
      "name": "swapSlippageBP",
      "outputs": [
        {
          "internalType": "uint256",
          "name": "",
          "type": "uint256"
        }
      ],
      "stateMutability": "view",
      "type": "function"
    },
    {
      "inputs": [],
      "name": "swapSlippageBp",
      "outputs": [
        {
          "internalType": "uint256",
          "name": "",
          "type": "uint256"
        }
      ],
      "stateMutability": "view",
      "type": "function"
    },
    {
      "inputs": [],
      "name": "uniswapV3Router",
      "outputs": [
        {
          "internalType": "contract ISwapRouter",
          "name": "",
          "type": "address"
        }
      ],
      "stateMutability": "view",
      "type": "function"
    },
    {
      "inputs": [
        {
          "internalType": "address",
          "name": "_asset",
          "type": "address"
        },
        {
          "internalType": "uint256",
          "name": "_amount",
          "type": "uint256"
        },
        {
          "internalType": "address",
          "name": "_beneficiary",
          "type": "address"
        },
        {
          "internalType": "bool",
          "name": "_targetIsZero",
          "type": "bool"
        }
      ],
      "name": "unstake",
      "outputs": [
        {
          "internalType": "uint256",
          "name": "",
          "type": "uint256"
        }
      ],
      "stateMutability": "nonpayable",
      "type": "function"
    },
    {
      "inputs": [
        {
          "internalType": "address",
          "name": "newImplementation",
          "type": "address"
        }
      ],
      "name": "upgradeTo",
      "outputs": [],
      "stateMutability": "nonpayable",
      "type": "function"
    },
    {
      "inputs": [
        {
          "internalType": "address",
          "name": "newImplementation",
          "type": "address"
        },
        {
          "internalType": "bytes",
          "name": "data",
          "type": "bytes"
        }
      ],
      "name": "upgradeToAndCall",
      "outputs": [],
      "stateMutability": "payable",
      "type": "function"
    },
    {
      "inputs": [],
      "name": "usdc",
      "outputs": [
        {
          "internalType": "contract IERC20",
          "name": "",
          "type": "address"
        }
      ],
      "stateMutability": "view",
      "type": "function"
    },
    {
      "inputs": [],
      "name": "usdcDm",
      "outputs": [
        {
          "internalType": "uint256",
          "name": "",
          "type": "uint256"
        }
      ],
      "stateMutability": "view",
      "type": "function"
    }
  ],
  "numDeployments": 1,
  "solcInputHash": "78209c8dbc46d0d336ae2d9eb32c4342",
  "bytecode": "0x60a06040523060601b6080523480156200001857600080fd5b50600054610100900460ff16158080156200003a5750600054600160ff909116105b806200006a575062000057306200014460201b6200162e1760201c565b1580156200006a575060005460ff166001145b620000d25760405162461bcd60e51b815260206004820152602e60248201527f496e697469616c697a61626c653a20636f6e747261637420697320616c72656160448201526d191e481a5b9a5d1a585b1a5e995960921b606482015260840160405180910390fd5b6000805460ff191660011790558015620000f6576000805461ff0019166101001790555b80156200013d576000805461ff0019169055604051600181527f7f26b83ff96e1f2b6a682f133852f6798a09c465da95921460cefb38474024989060200160405180910390a15b5062000153565b6001600160a01b03163b151590565b60805160601c6134366200018e600039600081816107e601528181610826015281816108c601528181610906015261099501526134366000f3fe6080604052600436106102255760003560e01c806366af25bc11610123578063a440b21a116100ab578063e401e1961161006f578063e401e1961461062d578063e7be95a614610665578063ef5cfb8c14610685578063f4b9fa75146106a5578063f6f6b881146106c657600080fd5b8063a440b21a14610597578063adc9772e146105b7578063ae30c110146105d7578063bf52e080146105f7578063d547741f1461060d57600080fd5b80638129fc1c116100f25780638129fc1c146105215780638547598a1461053657806391d148541461054d578063a217fddf1461056d578063a3673b381461058257600080fd5b806366af25bc146104b15780637d5f5802146104d15780637fe7cc1e146104f3578063811766fa1461050a57600080fd5b80633659cfe6116101b15780635ca558f8116101755780635ca558f8146104055780635dbd733a1461041b5780635f07c5f31461044f5780635fea9cbb14610470578063620b75df1461049157600080fd5b80633659cfe61461037b5780633e413bee1461039b5780633e5e3b80146103bc5780634f1ef286146103dd57806352d1902d146103f057600080fd5b806324ce2735116101f857806324ce2735146102ca5780632576e65a146103035780632c76d7a6146103185780632f2ff15d1461033957806336568abe1461035b57600080fd5b806301ffc9a71461022a578063119cd8791461025f5780631b1e7ddc14610283578063248a9ca31461029a575b600080fd5b34801561023657600080fd5b5061024a610245366004612eab565b6106e6565b60405190151581526020015b60405180910390f35b34801561026b57600080fd5b5061027560fd5481565b604051908152602001610256565b34801561028f57600080fd5b506102756101365481565b3480156102a657600080fd5b506102756102b5366004612e4d565b60009081526065602052604090206001015490565b3480156102d657600080fd5b5061012f546102eb906001600160a01b031681565b6040516001600160a01b039091168152602001610256565b34801561030f57600080fd5b5061027561071d565b34801561032457600080fd5b50610131546102eb906001600160a01b031681565b34801561034557600080fd5b50610359610354366004612e7f565b61072e565b005b34801561036757600080fd5b50610359610376366004612e7f565b610758565b34801561038757600080fd5b50610359610396366004612cda565b6107db565b3480156103a757600080fd5b5061012d546102eb906001600160a01b031681565b3480156103c857600080fd5b50610130546102eb906001600160a01b031681565b6103596103eb366004612cf5565b6108bb565b3480156103fc57600080fd5b50610275610988565b34801561041157600080fd5b5061027560fe5481565b34801561042757600080fd5b506102757fd67ad422505496469a1adf6cdf9e5ee92ac5d33992843c9ecc4b2f6d6cde913781565b34801561045b57600080fd5b50610133546102eb906001600160a01b031681565b34801561047c57600080fd5b50610132546102eb906001600160a01b031681565b34801561049d57600080fd5b5060fb546102eb906001600160a01b031681565b3480156104bd57600080fd5b506103596104cc366004612f13565b610a3b565b3480156104dd57600080fd5b5061027560008051602061339a83398151915281565b3480156104ff57600080fd5b506102756101355481565b34801561051657600080fd5b506102756101375481565b34801561052d57600080fd5b50610359610ab8565b34801561054257600080fd5b506102756101345481565b34801561055957600080fd5b5061024a610568366004612e7f565b610b82565b34801561057957600080fd5b50610275600081565b34801561058e57600080fd5b50610275610bad565b3480156105a357600080fd5b506103596105b2366004612cda565b610bb9565b3480156105c357600080fd5b506103596105d2366004612db7565b610cc1565b3480156105e357600080fd5b506103596105f2366004612f13565b610ee8565b34801561060357600080fd5b5061027560fc5481565b34801561061957600080fd5b50610359610628366004612e7f565b611010565b34801561063957600080fd5b506101315461065190600160a01b900462ffffff1681565b60405162ffffff9091168152602001610256565b34801561067157600080fd5b50610359610680366004612ed5565b611035565b34801561069157600080fd5b506102756106a0366004612cda565b61132c565b3480156106b157600080fd5b5061012e546102eb906001600160a01b031681565b3480156106d257600080fd5b506102756106e1366004612de1565b61136b565b60006001600160e01b03198216637965db0b60e01b148061071757506301ffc9a760e01b6001600160e01b03198316145b92915050565b6000610729600061163d565b905090565b60008281526065602052604090206001015461074981611816565b6107538383611820565b505050565b6001600160a01b03811633146107cd5760405162461bcd60e51b815260206004820152602f60248201527f416363657373436f6e74726f6c3a2063616e206f6e6c792072656e6f756e636560448201526e103937b632b9903337b91039b2b63360891b60648201526084015b60405180910390fd5b6107d782826118a6565b5050565b306001600160a01b037f00000000000000000000000000000000000000000000000000000000000000001614156108245760405162461bcd60e51b81526004016107c49061305d565b7f00000000000000000000000000000000000000000000000000000000000000006001600160a01b031661086d6000805160206133ba833981519152546001600160a01b031690565b6001600160a01b0316146108935760405162461bcd60e51b81526004016107c4906130a9565b61089c8161190d565b604080516000808252602082019092526108b891839190611918565b50565b306001600160a01b037f00000000000000000000000000000000000000000000000000000000000000001614156109045760405162461bcd60e51b81526004016107c49061305d565b7f00000000000000000000000000000000000000000000000000000000000000006001600160a01b031661094d6000805160206133ba833981519152546001600160a01b031690565b6001600160a01b0316146109735760405162461bcd60e51b81526004016107c4906130a9565b61097c8261190d565b6107d782826001611918565b6000306001600160a01b037f00000000000000000000000000000000000000000000000000000000000000001614610a285760405162461bcd60e51b815260206004820152603860248201527f555550535570677261646561626c653a206d757374206e6f742062652063616c60448201527f6c6564207468726f7567682064656c656761746563616c6c000000000000000060648201526084016107c4565b506000805160206133ba83398151915290565b610a46600033610b82565b610a625760405162461bcd60e51b81526004016107c490613143565b60fc83905560fd82905560fe81905560408051848152602081018490529081018290527f116fbf1e97a2be629ad98abfb6c332733c8996c2dfb174dd2efe8440df381d1a906060015b60405180910390a1505050565b600054610100900460ff1615808015610ad85750600054600160ff909116105b80610af25750303b158015610af2575060005460ff166001145b610b0e5760405162461bcd60e51b81526004016107c4906130f5565b6000805460ff191660011790558015610b31576000805461ff0019166101001790555b610b39611a92565b80156108b8576000805461ff0019169055604051600181527f7f26b83ff96e1f2b6a682f133852f6798a09c465da95921460cefb3847402498906020015b60405180910390a150565b60009182526065602090815260408084206001600160a01b0393909316845291905290205460ff1690565b6000610729600161163d565b610bc4600033610b82565b610be05760405162461bcd60e51b81526004016107c490613143565b6001600160a01b038116610c365760405162461bcd60e51b815260206004820152601860248201527f5a65726f2061646472657373206e6f7420616c6c6f776564000000000000000060448201526064016107c4565b60fb54610c5b9060008051602061339a833981519152906001600160a01b0316611010565b610c7360008051602061339a8339815191528261072e565b60fb80546001600160a01b0319166001600160a01b0383169081179091556040519081527ff7b449fcd5cfb7379dcd34cb69428dd9f882033b15be33d83b42d91daa28eeb790602001610b77565b610cd960008051602061339a83398151915233610b82565b610cf55760405162461bcd60e51b81526004016107c490613026565b6000610d73306001600160a01b031663a3673b386040518163ffffffff1660e01b815260040160206040518083038186803b158015610d3357600080fd5b505afa158015610d47573d6000803e3d6000fd5b505050506040513d601f19601f82011682018060405250810190610d6b9190612e66565b60fd54611b77565b6040516370a0823160e01b8152306004820152909150610df89084906001600160a01b038216906370a082319060240160206040518083038186803b158015610dbb57600080fd5b505afa158015610dcf573d6000803e3d6000fd5b505050506040513d601f19601f82011682018060405250810190610df39190612e66565b611ba1565b80306001600160a01b031663a3673b386040518163ffffffff1660e01b815260040160206040518083038186803b158015610e3257600080fd5b505afa158015610e46573d6000803e3d6000fd5b505050506040513d601f19601f82011682018060405250810190610e6a9190612e66565b1015610eb85760405162461bcd60e51b815260206004820152601f60248201527f5374726174656779204e4156206c657373207468616e2065787065637465640060448201526064016107c4565b6040518281527f227a473b70d2f893cc7659219575c030a63b5743024fe1e0c1a680e708b1525a90602001610aab565b610f127fd67ad422505496469a1adf6cdf9e5ee92ac5d33992843c9ecc4b2f6d6cde913733610b82565b80610fb9575060fb54604051632474521560e21b81527fd67ad422505496469a1adf6cdf9e5ee92ac5d33992843c9ecc4b2f6d6cde913760048201523360248201526001600160a01b03909116906391d148549060440160206040518083038186803b158015610f8157600080fd5b505afa158015610f95573d6000803e3d6000fd5b505050506040513d601f19601f82011682018060405250810190610fb99190612e30565b610a625760405162461bcd60e51b815260206004820152602260248201527f5265737472696374656420746f20504f5254464f4c494f5f4147454e545f524f6044820152614c4560f01b60648201526084016107c4565b60008281526065602052604090206001015461102b81611816565b61075383836118a6565b611040600033610b82565b61105c5760405162461bcd60e51b81526004016107c490613143565b6110696020820182612cda565b61012d80546001600160a01b0319166001600160a01b039290921691909117905561109a6040820160208301612cda565b61012e80546001600160a01b0319166001600160a01b03929092169190911790556110cb6060820160408301612cda565b61012f80546001600160a01b0319166001600160a01b03929092169190911790556110fc6080820160608301612cda565b61013080546001600160a01b0319166001600160a01b039290921691909117905561112d60a0820160808301612cda565b61013180546001600160a01b0319166001600160a01b039290921691909117905561115e60c0820160a08301612eee565b610131805462ffffff92909216600160a01b0262ffffff60a01b1990921691909117905561119260e0820160c08301612cda565b61013280546001600160a01b0319166001600160a01b03929092169190911790556111c4610100820160e08301612cda565b61013380546001600160a01b0319166001600160a01b03929092169190911790556111f26020820182612cda565b6001600160a01b031663313ce5676040518163ffffffff1660e01b815260040160206040518083038186803b15801561122a57600080fd5b505afa15801561123e573d6000803e3d6000fd5b505050506040513d601f19601f820116820180604052508101906112629190612f3f565b61126d90600a613225565b610136556112816040820160208301612cda565b6001600160a01b031663313ce5676040518163ffffffff1660e01b815260040160206040518083038186803b1580156112b957600080fd5b505afa1580156112cd573d6000803e3d6000fd5b505050506040513d601f19601f820116820180604052508101906112f19190612f3f565b6112fc90600a613225565b610137556040517fea5646eb3528e525944447a4a97de700dd472298626e5c0481d1c82c3da86ea590600090a150565b600061134660008051602061339a83398151915233610b82565b6113625760405162461bcd60e51b81526004016107c490613026565b5060005b919050565b600061138560008051602061339a83398151915233610b82565b6113a15760405162461bcd60e51b81526004016107c490613026565b60006113df306001600160a01b031663a3673b386040518163ffffffff1660e01b815260040160206040518083038186803b158015610d3357600080fd5b905060008084156113fe575060006113f78887611dcf565b915061146d565b6114098888886120da565b91508682101561146d5760405162461bcd60e51b815260206004820152602960248201527f52657475726e65642076616c7565206c657373207468616e2072657175657374604482015268195908185b5bdd5b9d60ba1b60648201526084016107c4565b82306001600160a01b031663a3673b386040518163ffffffff1660e01b815260040160206040518083038186803b1580156114a757600080fd5b505afa1580156114bb573d6000803e3d6000fd5b505050506040513d601f19601f820116820180604052508101906114df9190612e66565b101561152d5760405162461bcd60e51b815260206004820152601f60248201527f5374726174656779204e4156206c657373207468616e2065787065637465640060448201526064016107c4565b60405163a9059cbb60e01b81526001600160a01b0387811660048301526024820184905289169063a9059cbb90604401602060405180830381600087803b15801561157757600080fd5b505af115801561158b573d6000803e3d6000fd5b505050506040513d601f19601f820116820180604052508101906115af9190612e30565b5060408051888152602081018490527f9045c2ac9b2026de8075f2701bbdde882cd5e830b3b1ead9a15b22f2b5b93742910160405180910390a18015611623576040518181527f3ac0594a85a20354f9dc74f33728416d19ce00d04a406c108cc2dcf2cecea1349060200160405180910390a15b509695505050505050565b6001600160a01b03163b151590565b61012d546040516370a0823160e01b815230600482015260009182916001600160a01b03909116906370a082319060240160206040518083038186803b15801561168657600080fd5b505afa15801561169a573d6000803e3d6000fd5b505050506040513d601f19601f820116820180604052508101906116be9190612e66565b61012f546040516370a0823160e01b81523060048201529192506000916001600160a01b03909116906370a082319060240160206040518083038186803b15801561170857600080fd5b505afa15801561171c573d6000803e3d6000fd5b505050506040513d601f19601f820116820180604052508101906117409190612e66565b61012e546040516370a0823160e01b81523060048201526001600160a01b03909116906370a082319060240160206040518083038186803b15801561178457600080fd5b505afa158015611798573d6000803e3d6000fd5b505050506040513d601f19601f820116820180604052508101906117bc9190612e66565b6117c691906131a8565b9050801561180f5783156117ee576117dd8161241d565b6117e790836131a8565b915061180f565b6118026117fa8261241d565b60fc54611b77565b61180c90836131a8565b91505b5092915050565b6108b8813361254f565b61182a8282610b82565b6107d75760008281526065602090815260408083206001600160a01b03851684529091529020805460ff191660011790556118623390565b6001600160a01b0316816001600160a01b0316837f2f8788117e7eff1d82e926ec794901d17c78024a50270940304540a733656f0d60405160405180910390a45050565b6118b08282610b82565b156107d75760008281526065602090815260408083206001600160a01b0385168085529252808320805460ff1916905551339285917ff6391f5c32d9c69d2a47ea670b442974b53935d1edc7fd64eb21e047a839171b9190a45050565b60006107d781611816565b7f4910fdfa16fed3260ed0e7147f7cc6da11a60208b5b9406d12a635614ffd91435460ff161561194b57610753836125a8565b826001600160a01b03166352d1902d6040518163ffffffff1660e01b815260040160206040518083038186803b15801561198457600080fd5b505afa9250505080156119b4575060408051601f3d908101601f191682019092526119b191810190612e66565b60015b611a175760405162461bcd60e51b815260206004820152602e60248201527f45524331393637557067726164653a206e657720696d706c656d656e7461746960448201526d6f6e206973206e6f74205555505360901b60648201526084016107c4565b6000805160206133ba8339815191528114611a865760405162461bcd60e51b815260206004820152602960248201527f45524331393637557067726164653a20756e737570706f727465642070726f786044820152681a58589b195555525160ba1b60648201526084016107c4565b50610753838383612644565b600054610100900460ff1615808015611ab25750600054600160ff909116105b80611acc5750303b158015611acc575060005460ff166001145b611ae85760405162461bcd60e51b81526004016107c4906130f5565b6000805460ff191660011790558015611b0b576000805461ff0019166101001790555b611b1361266f565b611b1b61266f565b611b26600033611820565b601460fc81905560fd55600460fe5580156108b8576000805461ff0019169055604051600181527f7f26b83ff96e1f2b6a682f133852f6798a09c465da95921460cefb384740249890602001610b77565b6000612710611b8683826132ef565b611b9090856132d0565b611b9a91906131c0565b9392505050565b61012d546001600160a01b03838116911614611bcf5760405162461bcd60e51b81526004016107c490613171565b60006509184e72a000611be46117fa846126dc565b611bee91906132ef565b6101315461012d5461012e54929350600092611c29926001600160a01b03808216938116921690600160a01b900462ffffff16308888612806565b61012e546040516370a0823160e01b81523060048201529192506000916001600160a01b03909116906370a082319060240160206040518083038186803b158015611c7357600080fd5b505afa158015611c87573d6000803e3d6000fd5b505050506040513d601f19601f82011682018060405250810190611cab9190612e66565b61012e546101305460405163095ea7b360e01b81526001600160a01b03918216600482015260248101849052929350169063095ea7b390604401602060405180830381600087803b158015611cff57600080fd5b505af1158015611d13573d6000803e3d6000fd5b505050506040513d601f19601f82011682018060405250810190611d379190612e30565b5061013054604080516316fb876360e31b8152600481018490526024810191909152600060448201526001600160a01b039091169063b7dc3b1890606401602060405180830381600087803b158015611d8f57600080fd5b505af1158015611da3573d6000803e3d6000fd5b505050506040513d601f19601f82011682018060405250810190611dc79190612e66565b505050505050565b61012d546000906001600160a01b03848116911614611e005760405162461bcd60e51b81526004016107c490613171565b61012f546040516370a0823160e01b81523060048201526000916001600160a01b0316906370a082319060240160206040518083038186803b158015611e4557600080fd5b505afa158015611e59573d6000803e3d6000fd5b505050506040513d601f19601f82011682018060405250810190611e7d9190612e66565b61012f546101305460405163095ea7b360e01b81526001600160a01b03918216600482015260248101849052929350169063095ea7b390604401602060405180830381600087803b158015611ed157600080fd5b505af1158015611ee5573d6000803e3d6000fd5b505050506040513d601f19601f82011682018060405250810190611f099190612e30565b506101305460405163db006a7560e01b8152600481018390526001600160a01b039091169063db006a7590602401602060405180830381600087803b158015611f5157600080fd5b505af1158015611f65573d6000803e3d6000fd5b505050506040513d601f19601f82011682018060405250810190611f899190612e66565b5061012e546040516370a0823160e01b81523060048201526000916001600160a01b0316906370a082319060240160206040518083038186803b158015611fcf57600080fd5b505afa158015611fe3573d6000803e3d6000fd5b505050506040513d601f19601f820116820180604052508101906120079190612e66565b905060006120176117fa8361241d565b6101315461012e5461012d54929350600092612052926001600160a01b03808216938116921690600160a01b900462ffffff16308888612806565b61012d546040516370a0823160e01b81523060048201529192506001600160a01b0316906370a082319060240160206040518083038186803b15801561209757600080fd5b505afa1580156120ab573d6000803e3d6000fd5b505050506040513d601f19601f820116820180604052508101906120cf9190612e66565b979650505050505050565b61012d546000906001600160a01b0385811691161461210b5760405162461bcd60e51b81526004016107c490613171565b6000612120612119856126dc565b600a61295f565b612130906509184e72a0006131a8565b61012f546040516370a0823160e01b81523060048201529192506000916001600160a01b03909116906370a082319060240160206040518083038186803b15801561217a57600080fd5b505afa15801561218e573d6000803e3d6000fd5b505050506040513d601f19601f820116820180604052508101906121b29190612e66565b9050808211156121c0578091505b61012f546101305460405163095ea7b360e01b81526001600160a01b0391821660048201526024810185905291169063095ea7b390604401602060405180830381600087803b15801561221257600080fd5b505af1158015612226573d6000803e3d6000fd5b505050506040513d601f19601f8201168201806040525081019061224a9190612e30565b506101305460405163db006a7560e01b8152600481018490526001600160a01b039091169063db006a7590602401602060405180830381600087803b15801561229257600080fd5b505af11580156122a6573d6000803e3d6000fd5b505050506040513d601f19601f820116820180604052508101906122ca9190612e66565b5061012e546040516370a0823160e01b81523060048201526000916001600160a01b0316906370a082319060240160206040518083038186803b15801561231057600080fd5b505afa158015612324573d6000803e3d6000fd5b505050506040513d601f19601f820116820180604052508101906123489190612e66565b905060006123586117fa8361241d565b6101315461012e5461012d54929350600092612393926001600160a01b03808216938116921690600160a01b900462ffffff16308888612806565b61012d546040516370a0823160e01b81523060048201529192506001600160a01b0316906370a082319060240160206040518083038186803b1580156123d857600080fd5b505afa1580156123ec573d6000803e3d6000fd5b505050506040513d601f19601f820116820180604052508101906124109190612e66565b9998505050505050505050565b60008061013360009054906101000a90046001600160a01b03166001600160a01b03166350d25bcd6040518163ffffffff1660e01b815260040160206040518083038186803b15801561246f57600080fd5b505afa158015612483573d6000803e3d6000fd5b505050506040513d601f19601f820116820180604052508101906124a79190612e66565b9050600061013260009054906101000a90046001600160a01b03166001600160a01b03166350d25bcd6040518163ffffffff1660e01b815260040160206040518083038186803b1580156124fa57600080fd5b505afa15801561250e573d6000803e3d6000fd5b505050506040513d601f19601f820116820180604052508101906125329190612e66565b9050612547846101375461013654858561296e565b949350505050565b6125598282610b82565b6107d757612566816129a3565b6125718360206129b5565b604051602001612582929190612f7e565b60408051601f198184030181529082905262461bcd60e51b82526107c491600401612ff3565b6001600160a01b0381163b6126155760405162461bcd60e51b815260206004820152602d60248201527f455243313936373a206e657720696d706c656d656e746174696f6e206973206e60448201526c1bdd08184818dbdb9d1c9858dd609a1b60648201526084016107c4565b6000805160206133ba83398151915280546001600160a01b0319166001600160a01b0392909216919091179055565b61264d83612b51565b60008251118061265a5750805b15610753576126698383612b91565b50505050565b600054610100900460ff166126da5760405162461bcd60e51b815260206004820152602b60248201527f496e697469616c697a61626c653a20636f6e7472616374206973206e6f74206960448201526a6e697469616c697a696e6760a81b60648201526084016107c4565b565b60008061013360009054906101000a90046001600160a01b03166001600160a01b03166350d25bcd6040518163ffffffff1660e01b815260040160206040518083038186803b15801561272e57600080fd5b505afa158015612742573d6000803e3d6000fd5b505050506040513d601f19601f820116820180604052508101906127669190612e66565b9050600061013260009054906101000a90046001600160a01b03166001600160a01b03166350d25bcd6040518163ffffffff1660e01b815260040160206040518083038186803b1580156127b957600080fd5b505afa1580156127cd573d6000803e3d6000fd5b505050506040513d601f19601f820116820180604052508101906127f19190612e66565b9050612547846101365461013754848661296e565b60405163095ea7b360e01b81526001600160a01b038881166004830152602482018490526000919088169063095ea7b390604401602060405180830381600087803b15801561285457600080fd5b505af1158015612868573d6000803e3d6000fd5b505050506040513d601f19601f8201168201806040525081019061288c9190612e30565b506040805160e0810182526001600160a01b0389811682528881166020830190815262ffffff89811684860190815289841660608601908152608086018a815260a087018a8152600060c0890190815298516304e45aaf60e01b8152885188166004820152955187166024870152925190931660448501525184166064840152905160848301525160a48201529251811660c48401529091908a16906304e45aaf9060e401602060405180830381600087803b15801561294b57600080fd5b505af11580156123ec573d6000803e3d6000fd5b6000612710611b8683826131a8565b600061297a82866132d0565b8361298586896132d0565b61298f91906132d0565b61299991906131c0565b9695505050505050565b60606107176001600160a01b03831660145b606060006129c48360026132d0565b6129cf9060026131a8565b67ffffffffffffffff8111156129e7576129e7613375565b6040519080825280601f01601f191660200182016040528015612a11576020820181803683370190505b509050600360fc1b81600081518110612a2c57612a2c61335f565b60200101906001600160f81b031916908160001a905350600f60fb1b81600181518110612a5b57612a5b61335f565b60200101906001600160f81b031916908160001a9053506000612a7f8460026132d0565b612a8a9060016131a8565b90505b6001811115612b02576f181899199a1a9b1b9c1cb0b131b232b360811b85600f1660108110612abe57612abe61335f565b1a60f81b828281518110612ad457612ad461335f565b60200101906001600160f81b031916908160001a90535060049490941c93612afb81613332565b9050612a8d565b508315611b9a5760405162461bcd60e51b815260206004820181905260248201527f537472696e67733a20686578206c656e67746820696e73756666696369656e7460448201526064016107c4565b612b5a816125a8565b6040516001600160a01b038216907fbc7cd75a20ee27fd9adebab32041f755214dbc6bffa90cc0225b39da2e5c2d3b90600090a250565b60606001600160a01b0383163b612bf95760405162461bcd60e51b815260206004820152602660248201527f416464726573733a2064656c65676174652063616c6c20746f206e6f6e2d636f6044820152651b9d1c9858dd60d21b60648201526084016107c4565b600080846001600160a01b031684604051612c149190612f62565b600060405180830381855af49150503d8060008114612c4f576040519150601f19603f3d011682016040523d82523d6000602084013e612c54565b606091505b5091509150612c7c82826040518060600160405280602781526020016133da60279139612c85565b95945050505050565b60608315612c94575081611b9a565b611b9a8383815115612ca95781518083602001fd5b8060405162461bcd60e51b81526004016107c49190612ff3565b80356001600160a01b038116811461136657600080fd5b600060208284031215612cec57600080fd5b611b9a82612cc3565b60008060408385031215612d0857600080fd5b612d1183612cc3565b9150602083013567ffffffffffffffff80821115612d2e57600080fd5b818501915085601f830112612d4257600080fd5b813581811115612d5457612d54613375565b604051601f8201601f19908116603f01168101908382118183101715612d7c57612d7c613375565b81604052828152886020848701011115612d9557600080fd5b8260208601602083013760006020848301015280955050505050509250929050565b60008060408385031215612dca57600080fd5b612dd383612cc3565b946020939093013593505050565b60008060008060808587031215612df757600080fd5b612e0085612cc3565b935060208501359250612e1560408601612cc3565b91506060850135612e258161338b565b939692955090935050565b600060208284031215612e4257600080fd5b8151611b9a8161338b565b600060208284031215612e5f57600080fd5b5035919050565b600060208284031215612e7857600080fd5b5051919050565b60008060408385031215612e9257600080fd5b82359150612ea260208401612cc3565b90509250929050565b600060208284031215612ebd57600080fd5b81356001600160e01b031981168114611b9a57600080fd5b60006101008284031215612ee857600080fd5b50919050565b600060208284031215612f0057600080fd5b813562ffffff81168114611b9a57600080fd5b600080600060608486031215612f2857600080fd5b505081359360208301359350604090920135919050565b600060208284031215612f5157600080fd5b815160ff81168114611b9a57600080fd5b60008251612f74818460208701613306565b9190910192915050565b7f416363657373436f6e74726f6c3a206163636f756e7420000000000000000000815260008351612fb6816017850160208801613306565b7001034b99036b4b9b9b4b733903937b6329607d1b6017918401918201528351612fe7816028840160208801613306565b01602801949350505050565b6020815260008251806020840152613012816040850160208701613306565b601f01601f19169190910160400192915050565b6020808252601f908201527f5265737472696374656420746f20504f5254464f4c494f5f4d414e4147455200604082015260600190565b6020808252602c908201527f46756e6374696f6e206d7573742062652063616c6c6564207468726f7567682060408201526b19195b1959d85d1958d85b1b60a21b606082015260800190565b6020808252602c908201527f46756e6374696f6e206d7573742062652063616c6c6564207468726f7567682060408201526b6163746976652070726f787960a01b606082015260800190565b6020808252602e908201527f496e697469616c697a61626c653a20636f6e747261637420697320616c72656160408201526d191e481a5b9a5d1a585b1a5e995960921b606082015260800190565b6020808252601490820152735265737472696374656420746f2061646d696e7360601b604082015260600190565b60208082526019908201527f536f6d6520746f6b656e206e6f7420636f6d70617469626c6500000000000000604082015260600190565b600082198211156131bb576131bb613349565b500190565b6000826131dd57634e487b7160e01b600052601260045260246000fd5b500490565b600181815b8085111561321d57816000190482111561320357613203613349565b8085161561321057918102915b93841c93908002906131e7565b509250929050565b6000611b9a60ff84168360008261323e57506001610717565b8161324b57506000610717565b8160018114613261576002811461326b57613287565b6001915050610717565b60ff84111561327c5761327c613349565b50506001821b610717565b5060208310610133831016604e8410600b84101617156132aa575081810a610717565b6132b483836131e2565b80600019048211156132c8576132c8613349565b029392505050565b60008160001904831182151516156132ea576132ea613349565b500290565b60008282101561330157613301613349565b500390565b60005b83811015613321578181015183820152602001613309565b838111156126695750506000910152565b60008161334157613341613349565b506000190190565b634e487b7160e01b600052601160045260246000fd5b634e487b7160e01b600052603260045260246000fd5b634e487b7160e01b600052604160045260246000fd5b80151581146108b857600080fdfe90c2aa7471c04182221f68e80c07ab1e5946e4c63f8693e14ca40385d529f051360894a13ba1a3210667c828492db98dca3e2076cc3735a920a3ca505d382bbc416464726573733a206c6f772d6c6576656c2064656c65676174652063616c6c206661696c6564a2646970667358221220e4dda9dcb7bc192aa60e53ab4cb01848ccd9c31d516ebaceab6979931713814a64736f6c63430008060033",
  "implementation": "0xE4E59Fc6a475cDBF12299513461F0F52644ee16D",
  "devdoc": {
    "kind": "dev",
    "methods": {
      "constructor": {
        "custom:oz-upgrades-unsafe-allow": "constructor"
      },
      "getRoleAdmin(bytes32)": {
        "details": "Returns the admin role that controls `role`. See {grantRole} and {revokeRole}. To change a role's admin, use {_setRoleAdmin}."
      },
      "grantRole(bytes32,address)": {
        "details": "Grants `role` to `account`. If `account` had not been already granted `role`, emits a {RoleGranted} event. Requirements: - the caller must have ``role``'s admin role. May emit a {RoleGranted} event."
      },
      "hasRole(bytes32,address)": {
        "details": "Returns `true` if `account` has been granted `role`."
      },
      "proxiableUUID()": {
        "details": "Implementation of the ERC1822 {proxiableUUID} function. This returns the storage slot used by the implementation. It is used to validate the implementation's compatibility when performing an upgrade. IMPORTANT: A proxy pointing at a proxiable contract should not be considered proxiable itself, because this risks bricking a proxy that upgrades to it, by delegating to itself until out of gas. Thus it is critical that this function revert if invoked through a proxy. This is guaranteed by the `notDelegated` modifier."
      },
      "renounceRole(bytes32,address)": {
        "details": "Revokes `role` from the calling account. Roles are often managed via {grantRole} and {revokeRole}: this function's purpose is to provide a mechanism for accounts to lose their privileges if they are compromised (such as when a trusted device is misplaced). If the calling account had been revoked `role`, emits a {RoleRevoked} event. Requirements: - the caller must be `account`. May emit a {RoleRevoked} event."
      },
      "revokeRole(bytes32,address)": {
        "details": "Revokes `role` from `account`. If `account` had been granted `role`, emits a {RoleRevoked} event. Requirements: - the caller must have ``role``'s admin role. May emit a {RoleRevoked} event."
      },
      "supportsInterface(bytes4)": {
        "details": "See {IERC165-supportsInterface}."
      },
      "upgradeTo(address)": {
        "details": "Upgrade the implementation of the proxy to `newImplementation`. Calls {_authorizeUpgrade}. Emits an {Upgraded} event."
      },
      "upgradeToAndCall(address,bytes)": {
        "details": "Upgrade the implementation of the proxy to `newImplementation`, and subsequently execute the function call encoded in `data`. Calls {_authorizeUpgrade}. Emits an {Upgraded} event."
      }
    },
    "version": 1
  },
  "userdoc": {
    "kind": "user",
    "methods": {},
    "version": 1
  },
  "storageLayout": {
    "storage": [
      {
        "astId": 804,
        "contract": "contracts/StrategyEtsUsdcDai.sol:StrategyEtsUsdcDai",
        "label": "_initialized",
        "offset": 0,
        "slot": "0",
        "type": "t_uint8"
      },
      {
        "astId": 807,
        "contract": "contracts/StrategyEtsUsdcDai.sol:StrategyEtsUsdcDai",
        "label": "_initializing",
        "offset": 1,
        "slot": "0",
        "type": "t_bool"
      },
      {
        "astId": 1427,
        "contract": "contracts/StrategyEtsUsdcDai.sol:StrategyEtsUsdcDai",
        "label": "__gap",
        "offset": 0,
        "slot": "1",
        "type": "t_array(t_uint256)50_storage"
      },
      {
        "astId": 1706,
        "contract": "contracts/StrategyEtsUsdcDai.sol:StrategyEtsUsdcDai",
        "label": "__gap",
        "offset": 0,
        "slot": "51",
        "type": "t_array(t_uint256)50_storage"
      },
      {
        "astId": 39,
        "contract": "contracts/StrategyEtsUsdcDai.sol:StrategyEtsUsdcDai",
        "label": "_roles",
        "offset": 0,
        "slot": "101",
        "type": "t_mapping(t_bytes32,t_struct(RoleData)34_storage)"
      },
      {
        "astId": 334,
        "contract": "contracts/StrategyEtsUsdcDai.sol:StrategyEtsUsdcDai",
        "label": "__gap",
        "offset": 0,
        "slot": "102",
        "type": "t_array(t_uint256)49_storage"
      },
      {
        "astId": 786,
        "contract": "contracts/StrategyEtsUsdcDai.sol:StrategyEtsUsdcDai",
        "label": "__gap",
        "offset": 0,
        "slot": "151",
        "type": "t_array(t_uint256)50_storage"
      },
      {
        "astId": 1101,
        "contract": "contracts/StrategyEtsUsdcDai.sol:StrategyEtsUsdcDai",
        "label": "__gap",
        "offset": 0,
        "slot": "201",
        "type": "t_array(t_uint256)50_storage"
      },
      {
        "astId": 13589,
        "contract": "contracts/StrategyEtsUsdcDai.sol:StrategyEtsUsdcDai",
        "label": "portfolioManager",
        "offset": 0,
        "slot": "251",
        "type": "t_address"
      },
      {
        "astId": 13591,
        "contract": "contracts/StrategyEtsUsdcDai.sol:StrategyEtsUsdcDai",
        "label": "swapSlippageBP",
        "offset": 0,
        "slot": "252",
        "type": "t_uint256"
      },
      {
        "astId": 13593,
        "contract": "contracts/StrategyEtsUsdcDai.sol:StrategyEtsUsdcDai",
        "label": "navSlippageBP",
        "offset": 0,
        "slot": "253",
        "type": "t_uint256"
      },
      {
        "astId": 13595,
        "contract": "contracts/StrategyEtsUsdcDai.sol:StrategyEtsUsdcDai",
        "label": "stakeSlippageBP",
        "offset": 0,
        "slot": "254",
        "type": "t_uint256"
      },
      {
        "astId": 14010,
        "contract": "contracts/StrategyEtsUsdcDai.sol:StrategyEtsUsdcDai",
        "label": "__gap",
        "offset": 0,
        "slot": "255",
        "type": "t_array(t_uint256)46_storage"
      },
      {
        "astId": 18474,
        "contract": "contracts/StrategyEtsUsdcDai.sol:StrategyEtsUsdcDai",
        "label": "usdc",
        "offset": 0,
        "slot": "301",
        "type": "t_contract(IERC20)3249"
      },
      {
        "astId": 18477,
        "contract": "contracts/StrategyEtsUsdcDai.sol:StrategyEtsUsdcDai",
        "label": "dai",
        "offset": 0,
        "slot": "302",
        "type": "t_contract(IERC20)3249"
      },
      {
        "astId": 18480,
        "contract": "contracts/StrategyEtsUsdcDai.sol:StrategyEtsUsdcDai",
        "label": "rebaseToken",
        "offset": 0,
        "slot": "303",
        "type": "t_contract(IERC20)3249"
      },
      {
        "astId": 18483,
        "contract": "contracts/StrategyEtsUsdcDai.sol:StrategyEtsUsdcDai",
        "label": "hedgeExchanger",
        "offset": 0,
        "slot": "304",
        "type": "t_contract(IHedgeExchanger)14108"
      },
      {
        "astId": 18486,
        "contract": "contracts/StrategyEtsUsdcDai.sol:StrategyEtsUsdcDai",
        "label": "uniswapV3Router",
        "offset": 0,
        "slot": "305",
        "type": "t_contract(ISwapRouter)10775"
      },
      {
        "astId": 18488,
        "contract": "contracts/StrategyEtsUsdcDai.sol:StrategyEtsUsdcDai",
        "label": "poolUsdcDaiFee",
        "offset": 20,
        "slot": "305",
        "type": "t_uint24"
      },
      {
        "astId": 18491,
        "contract": "contracts/StrategyEtsUsdcDai.sol:StrategyEtsUsdcDai",
        "label": "oracleUsdc",
        "offset": 0,
        "slot": "306",
        "type": "t_contract(IPriceFeed)7026"
      },
      {
        "astId": 18494,
        "contract": "contracts/StrategyEtsUsdcDai.sol:StrategyEtsUsdcDai",
        "label": "oracleDai",
        "offset": 0,
        "slot": "307",
        "type": "t_contract(IPriceFeed)7026"
      },
      {
        "astId": 18496,
        "contract": "contracts/StrategyEtsUsdcDai.sol:StrategyEtsUsdcDai",
        "label": "swapSlippageBp",
        "offset": 0,
        "slot": "308",
        "type": "t_uint256"
      },
      {
        "astId": 18498,
        "contract": "contracts/StrategyEtsUsdcDai.sol:StrategyEtsUsdcDai",
        "label": "allowedSlippageBp",
        "offset": 0,
        "slot": "309",
        "type": "t_uint256"
      },
      {
        "astId": 18500,
        "contract": "contracts/StrategyEtsUsdcDai.sol:StrategyEtsUsdcDai",
        "label": "usdcDm",
        "offset": 0,
        "slot": "310",
        "type": "t_uint256"
      },
      {
        "astId": 18502,
        "contract": "contracts/StrategyEtsUsdcDai.sol:StrategyEtsUsdcDai",
        "label": "daiDm",
        "offset": 0,
        "slot": "311",
        "type": "t_uint256"
      }
    ],
    "types": {
      "t_address": {
        "encoding": "inplace",
        "label": "address",
        "numberOfBytes": "20"
      },
      "t_array(t_uint256)46_storage": {
        "base": "t_uint256",
        "encoding": "inplace",
        "label": "uint256[46]",
        "numberOfBytes": "1472"
      },
      "t_array(t_uint256)49_storage": {
        "base": "t_uint256",
        "encoding": "inplace",
        "label": "uint256[49]",
        "numberOfBytes": "1568"
      },
      "t_array(t_uint256)50_storage": {
        "base": "t_uint256",
        "encoding": "inplace",
        "label": "uint256[50]",
        "numberOfBytes": "1600"
      },
      "t_bool": {
        "encoding": "inplace",
        "label": "bool",
        "numberOfBytes": "1"
      },
      "t_bytes32": {
        "encoding": "inplace",
        "label": "bytes32",
        "numberOfBytes": "32"
      },
      "t_contract(IERC20)3249": {
        "encoding": "inplace",
        "label": "contract IERC20",
        "numberOfBytes": "20"
      },
      "t_contract(IHedgeExchanger)14108": {
        "encoding": "inplace",
        "label": "contract IHedgeExchanger",
        "numberOfBytes": "20"
      },
      "t_contract(IPriceFeed)7026": {
        "encoding": "inplace",
        "label": "contract IPriceFeed",
        "numberOfBytes": "20"
      },
      "t_contract(ISwapRouter)10775": {
        "encoding": "inplace",
        "label": "contract ISwapRouter",
        "numberOfBytes": "20"
      },
      "t_mapping(t_address,t_bool)": {
        "encoding": "mapping",
        "key": "t_address",
        "label": "mapping(address => bool)",
        "numberOfBytes": "32",
        "value": "t_bool"
      },
      "t_mapping(t_bytes32,t_struct(RoleData)34_storage)": {
        "encoding": "mapping",
        "key": "t_bytes32",
        "label": "mapping(bytes32 => struct AccessControlUpgradeable.RoleData)",
        "numberOfBytes": "32",
        "value": "t_struct(RoleData)34_storage"
      },
      "t_struct(RoleData)34_storage": {
        "encoding": "inplace",
        "label": "struct AccessControlUpgradeable.RoleData",
        "members": [
          {
            "astId": 31,
            "contract": "contracts/StrategyEtsUsdcDai.sol:StrategyEtsUsdcDai",
            "label": "members",
            "offset": 0,
            "slot": "0",
            "type": "t_mapping(t_address,t_bool)"
          },
          {
            "astId": 33,
            "contract": "contracts/StrategyEtsUsdcDai.sol:StrategyEtsUsdcDai",
            "label": "adminRole",
            "offset": 0,
            "slot": "1",
            "type": "t_bytes32"
          }
        ],
        "numberOfBytes": "64"
      },
      "t_uint24": {
        "encoding": "inplace",
        "label": "uint24",
        "numberOfBytes": "3"
      },
      "t_uint256": {
        "encoding": "inplace",
        "label": "uint256",
        "numberOfBytes": "32"
      },
      "t_uint8": {
        "encoding": "inplace",
        "label": "uint8",
        "numberOfBytes": "1"
      }
    }
  }
}