{
  "address": "0xad0456098e5F5f3AC758331e13eA661ceA7FD02F",
  "abi": [
    {
      "inputs": [],
      "stateMutability": "nonpayable",
      "type": "constructor"
    },
    {
      "anonymous": false,
      "inputs": [
        {
          "indexed": false,
          "internalType": "address",
          "name": "previousAdmin",
          "type": "address"
        },
        {
          "indexed": false,
          "internalType": "address",
          "name": "newAdmin",
          "type": "address"
        }
      ],
      "name": "AdminChanged",
      "type": "event"
    },
    {
      "anonymous": false,
      "inputs": [
        {
          "indexed": true,
          "internalType": "address",
          "name": "beacon",
          "type": "address"
        }
      ],
      "name": "BeaconUpgraded",
      "type": "event"
    },
    {
      "anonymous": false,
      "inputs": [
        {
          "indexed": false,
          "internalType": "uint8",
          "name": "version",
          "type": "uint8"
        }
      ],
      "name": "Initialized",
      "type": "event"
    },
    {
      "anonymous": false,
      "inputs": [
        {
          "indexed": false,
          "internalType": "address",
          "name": "value",
          "type": "address"
        }
      ],
      "name": "PortfolioManagerUpdated",
      "type": "event"
    },
    {
      "anonymous": false,
      "inputs": [
        {
          "indexed": false,
          "internalType": "uint256",
          "name": "amount",
          "type": "uint256"
        }
      ],
      "name": "Reward",
      "type": "event"
    },
    {
      "anonymous": false,
      "inputs": [
        {
          "indexed": true,
          "internalType": "bytes32",
          "name": "role",
          "type": "bytes32"
        },
        {
          "indexed": true,
          "internalType": "bytes32",
          "name": "previousAdminRole",
          "type": "bytes32"
        },
        {
          "indexed": true,
          "internalType": "bytes32",
          "name": "newAdminRole",
          "type": "bytes32"
        }
      ],
      "name": "RoleAdminChanged",
      "type": "event"
    },
    {
      "anonymous": false,
      "inputs": [
        {
          "indexed": true,
          "internalType": "bytes32",
          "name": "role",
          "type": "bytes32"
        },
        {
          "indexed": true,
          "internalType": "address",
          "name": "account",
          "type": "address"
        },
        {
          "indexed": true,
          "internalType": "address",
          "name": "sender",
          "type": "address"
        }
      ],
      "name": "RoleGranted",
      "type": "event"
    },
    {
      "anonymous": false,
      "inputs": [
        {
          "indexed": true,
          "internalType": "bytes32",
          "name": "role",
          "type": "bytes32"
        },
        {
          "indexed": true,
          "internalType": "address",
          "name": "account",
          "type": "address"
        },
        {
          "indexed": true,
          "internalType": "address",
          "name": "sender",
          "type": "address"
        }
      ],
      "name": "RoleRevoked",
      "type": "event"
    },
    {
      "anonymous": false,
      "inputs": [
        {
          "indexed": false,
          "internalType": "uint256",
          "name": "swapSlippageBP",
          "type": "uint256"
        },
        {
          "indexed": false,
          "internalType": "uint256",
          "name": "navSlippageBP",
          "type": "uint256"
        },
        {
          "indexed": false,
          "internalType": "uint256",
          "name": "stakeSlippageBP",
          "type": "uint256"
        }
      ],
      "name": "SlippagesUpdated",
      "type": "event"
    },
    {
      "anonymous": false,
      "inputs": [
        {
          "indexed": false,
          "internalType": "uint256",
          "name": "amount",
          "type": "uint256"
        }
      ],
      "name": "Stake",
      "type": "event"
    },
    {
      "anonymous": false,
      "inputs": [],
      "name": "StrategyUpdatedParams",
      "type": "event"
    },
    {
      "anonymous": false,
      "inputs": [
        {
          "indexed": false,
          "internalType": "uint256",
          "name": "amount",
          "type": "uint256"
        },
        {
          "indexed": false,
          "internalType": "uint256",
          "name": "amountReceived",
          "type": "uint256"
        }
      ],
      "name": "Unstake",
      "type": "event"
    },
    {
      "anonymous": false,
      "inputs": [
        {
          "indexed": true,
          "internalType": "address",
          "name": "implementation",
          "type": "address"
        }
      ],
      "name": "Upgraded",
      "type": "event"
    },
    {
      "inputs": [],
      "name": "DEFAULT_ADMIN_ROLE",
      "outputs": [
        {
          "internalType": "bytes32",
          "name": "",
          "type": "bytes32"
        }
      ],
      "stateMutability": "view",
      "type": "function"
    },
    {
      "inputs": [],
      "name": "PORTFOLIO_AGENT_ROLE",
      "outputs": [
        {
          "internalType": "bytes32",
          "name": "",
          "type": "bytes32"
        }
      ],
      "stateMutability": "view",
      "type": "function"
    },
    {
      "inputs": [],
      "name": "PORTFOLIO_MANAGER",
      "outputs": [
        {
          "internalType": "bytes32",
          "name": "",
          "type": "bytes32"
        }
      ],
      "stateMutability": "view",
      "type": "function"
    },
    {
      "inputs": [],
      "name": "arrakisRewards",
      "outputs": [
        {
          "internalType": "contract IGauge",
          "name": "",
          "type": "address"
        }
      ],
      "stateMutability": "view",
      "type": "function"
    },
    {
      "inputs": [],
      "name": "arrakisRouter",
      "outputs": [
        {
          "internalType": "contract IArrakisV1RouterStaking",
          "name": "",
          "type": "address"
        }
      ],
      "stateMutability": "view",
      "type": "function"
    },
    {
      "inputs": [],
      "name": "arrakisVault",
      "outputs": [
        {
          "internalType": "contract IArrakisVaultV1",
          "name": "",
          "type": "address"
        }
      ],
      "stateMutability": "view",
      "type": "function"
    },
    {
      "inputs": [
        {
          "internalType": "address",
          "name": "_to",
          "type": "address"
        }
      ],
      "name": "claimRewards",
      "outputs": [
        {
          "internalType": "uint256",
          "name": "",
          "type": "uint256"
        }
      ],
      "stateMutability": "nonpayable",
      "type": "function"
    },
    {
      "inputs": [],
      "name": "curve3Pool",
      "outputs": [
        {
          "internalType": "address",
          "name": "",
          "type": "address"
        }
      ],
      "stateMutability": "view",
      "type": "function"
    },
    {
      "inputs": [
        {
          "internalType": "bytes32",
          "name": "role",
          "type": "bytes32"
        }
      ],
      "name": "getRoleAdmin",
      "outputs": [
        {
          "internalType": "bytes32",
          "name": "",
          "type": "bytes32"
        }
      ],
      "stateMutability": "view",
      "type": "function"
    },
    {
      "inputs": [
        {
          "internalType": "bytes32",
          "name": "role",
          "type": "bytes32"
        },
        {
          "internalType": "address",
          "name": "account",
          "type": "address"
        }
      ],
      "name": "grantRole",
      "outputs": [],
      "stateMutability": "nonpayable",
      "type": "function"
    },
    {
      "inputs": [
        {
          "internalType": "bytes32",
          "name": "role",
          "type": "bytes32"
        },
        {
          "internalType": "address",
          "name": "account",
          "type": "address"
        }
      ],
      "name": "hasRole",
      "outputs": [
        {
          "internalType": "bool",
          "name": "",
          "type": "bool"
        }
      ],
      "stateMutability": "view",
      "type": "function"
    },
    {
      "inputs": [],
      "name": "initialize",
      "outputs": [],
      "stateMutability": "nonpayable",
      "type": "function"
    },
    {
      "inputs": [],
      "name": "liquidationValue",
      "outputs": [
        {
          "internalType": "uint256",
          "name": "",
          "type": "uint256"
        }
      ],
      "stateMutability": "view",
      "type": "function"
    },
    {
      "inputs": [],
      "name": "navSlippageBP",
      "outputs": [
        {
          "internalType": "uint256",
          "name": "",
          "type": "uint256"
        }
      ],
      "stateMutability": "view",
      "type": "function"
    },
    {
      "inputs": [],
      "name": "netAssetValue",
      "outputs": [
        {
          "internalType": "uint256",
          "name": "",
          "type": "uint256"
        }
      ],
      "stateMutability": "view",
      "type": "function"
    },
    {
      "inputs": [],
      "name": "op",
      "outputs": [
        {
          "internalType": "contract IERC20",
          "name": "",
          "type": "address"
        }
      ],
      "stateMutability": "view",
      "type": "function"
    },
    {
      "inputs": [],
      "name": "oracleUsdc",
      "outputs": [
        {
          "internalType": "contract IPriceFeed",
          "name": "",
          "type": "address"
        }
      ],
      "stateMutability": "view",
      "type": "function"
    },
    {
      "inputs": [],
      "name": "oracleUsdt",
      "outputs": [
        {
          "internalType": "contract IPriceFeed",
          "name": "",
          "type": "address"
        }
      ],
      "stateMutability": "view",
      "type": "function"
    },
    {
      "inputs": [],
      "name": "poolUsdcOpFee",
      "outputs": [
        {
          "internalType": "uint24",
          "name": "",
          "type": "uint24"
        }
      ],
      "stateMutability": "view",
      "type": "function"
    },
    {
      "inputs": [],
      "name": "portfolioManager",
      "outputs": [
        {
          "internalType": "address",
          "name": "",
          "type": "address"
        }
      ],
      "stateMutability": "view",
      "type": "function"
    },
    {
      "inputs": [],
      "name": "proxiableUUID",
      "outputs": [
        {
          "internalType": "bytes32",
          "name": "",
          "type": "bytes32"
        }
      ],
      "stateMutability": "view",
      "type": "function"
    },
    {
      "inputs": [
        {
          "internalType": "bytes32",
          "name": "role",
          "type": "bytes32"
        },
        {
          "internalType": "address",
          "name": "account",
          "type": "address"
        }
      ],
      "name": "renounceRole",
      "outputs": [],
      "stateMutability": "nonpayable",
      "type": "function"
    },
    {
      "inputs": [
        {
          "internalType": "bytes32",
          "name": "role",
          "type": "bytes32"
        },
        {
          "internalType": "address",
          "name": "account",
          "type": "address"
        }
      ],
      "name": "revokeRole",
      "outputs": [],
      "stateMutability": "nonpayable",
      "type": "function"
    },
    {
      "inputs": [
        {
          "components": [
            {
              "internalType": "address",
              "name": "usdc",
              "type": "address"
            },
            {
              "internalType": "address",
              "name": "usdt",
              "type": "address"
            },
            {
              "internalType": "address",
              "name": "op",
              "type": "address"
            },
            {
              "internalType": "address",
              "name": "arrakisRouter",
              "type": "address"
            },
            {
              "internalType": "address",
              "name": "arrakisRewards",
              "type": "address"
            },
            {
              "internalType": "address",
              "name": "arrakisVault",
              "type": "address"
            },
            {
              "internalType": "address",
              "name": "uniswapV3Router",
              "type": "address"
            },
            {
              "internalType": "uint24",
              "name": "poolUsdcOpFee",
              "type": "uint24"
            },
            {
              "internalType": "address",
              "name": "oracleUsdc",
              "type": "address"
            },
            {
              "internalType": "address",
              "name": "oracleUsdt",
              "type": "address"
            },
            {
              "internalType": "address",
              "name": "curve3Pool",
              "type": "address"
            }
          ],
          "internalType": "struct StrategyArrakisUsdcUsdt.StrategyParams",
          "name": "params",
          "type": "tuple"
        }
      ],
      "name": "setParams",
      "outputs": [],
      "stateMutability": "nonpayable",
      "type": "function"
    },
    {
      "inputs": [
        {
          "internalType": "address",
          "name": "_value",
          "type": "address"
        }
      ],
      "name": "setPortfolioManager",
      "outputs": [],
      "stateMutability": "nonpayable",
      "type": "function"
    },
    {
      "inputs": [
        {
          "internalType": "uint256",
          "name": "_swapSlippageBP",
          "type": "uint256"
        },
        {
          "internalType": "uint256",
          "name": "_navSlippageBP",
          "type": "uint256"
        },
        {
          "internalType": "uint256",
          "name": "_stakeSlippageBP",
          "type": "uint256"
        }
      ],
      "name": "setSlippages",
      "outputs": [],
      "stateMutability": "nonpayable",
      "type": "function"
    },
    {
      "inputs": [
        {
          "internalType": "address",
          "name": "_asset",
          "type": "address"
        },
        {
          "internalType": "uint256",
          "name": "_amount",
          "type": "uint256"
        }
      ],
      "name": "stake",
      "outputs": [],
      "stateMutability": "nonpayable",
      "type": "function"
    },
    {
      "inputs": [],
      "name": "stakeSlippageBP",
      "outputs": [
        {
          "internalType": "uint256",
          "name": "",
          "type": "uint256"
        }
      ],
      "stateMutability": "view",
      "type": "function"
    },
    {
      "inputs": [
        {
          "internalType": "bytes4",
          "name": "interfaceId",
          "type": "bytes4"
        }
      ],
      "name": "supportsInterface",
      "outputs": [
        {
          "internalType": "bool",
          "name": "",
          "type": "bool"
        }
      ],
      "stateMutability": "view",
      "type": "function"
    },
    {
      "inputs": [],
      "name": "swapSlippageBP",
      "outputs": [
        {
          "internalType": "uint256",
          "name": "",
          "type": "uint256"
        }
      ],
      "stateMutability": "view",
      "type": "function"
    },
    {
      "inputs": [],
      "name": "uniswapV3Router",
      "outputs": [
        {
          "internalType": "contract ISwapRouter",
          "name": "",
          "type": "address"
        }
      ],
      "stateMutability": "view",
      "type": "function"
    },
    {
      "inputs": [
        {
          "internalType": "address",
          "name": "_asset",
          "type": "address"
        },
        {
          "internalType": "uint256",
          "name": "_amount",
          "type": "uint256"
        },
        {
          "internalType": "address",
          "name": "_beneficiary",
          "type": "address"
        },
        {
          "internalType": "bool",
          "name": "_targetIsZero",
          "type": "bool"
        }
      ],
      "name": "unstake",
      "outputs": [
        {
          "internalType": "uint256",
          "name": "",
          "type": "uint256"
        }
      ],
      "stateMutability": "nonpayable",
      "type": "function"
    },
    {
      "inputs": [
        {
          "internalType": "address",
          "name": "newImplementation",
          "type": "address"
        }
      ],
      "name": "upgradeTo",
      "outputs": [],
      "stateMutability": "nonpayable",
      "type": "function"
    },
    {
      "inputs": [
        {
          "internalType": "address",
          "name": "newImplementation",
          "type": "address"
        },
        {
          "internalType": "bytes",
          "name": "data",
          "type": "bytes"
        }
      ],
      "name": "upgradeToAndCall",
      "outputs": [],
      "stateMutability": "payable",
      "type": "function"
    },
    {
      "inputs": [],
      "name": "usdc",
      "outputs": [
        {
          "internalType": "contract IERC20",
          "name": "",
          "type": "address"
        }
      ],
      "stateMutability": "view",
      "type": "function"
    },
    {
      "inputs": [],
      "name": "usdcDm",
      "outputs": [
        {
          "internalType": "uint256",
          "name": "",
          "type": "uint256"
        }
      ],
      "stateMutability": "view",
      "type": "function"
    },
    {
      "inputs": [],
      "name": "usdt",
      "outputs": [
        {
          "internalType": "contract IERC20",
          "name": "",
          "type": "address"
        }
      ],
      "stateMutability": "view",
      "type": "function"
    },
    {
      "inputs": [],
      "name": "usdtDm",
      "outputs": [
        {
          "internalType": "uint256",
          "name": "",
          "type": "uint256"
        }
      ],
      "stateMutability": "view",
      "type": "function"
    }
  ],
  "numDeployments": 1,
  "solcInputHash": "a3864ac526c1063ad32f2b8e9ed89cbf",
  "bytecode": "0x60a06040523060601b6080523480156200001857600080fd5b50600054610100900460ff16158080156200003a5750600054600160ff909116105b806200006a575062000057306200014460201b620017501760201c565b1580156200006a575060005460ff166001145b620000d25760405162461bcd60e51b815260206004820152602e60248201527f496e697469616c697a61626c653a20636f6e747261637420697320616c72656160448201526d191e481a5b9a5d1a585b1a5e995960921b606482015260840160405180910390fd5b6000805460ff191660011790558015620000f6576000805461ff0019166101001790555b80156200013d576000805461ff0019169055604051600181527f7f26b83ff96e1f2b6a682f133852f6798a09c465da95921460cefb38474024989060200160405180910390a15b5062000153565b6001600160a01b03163b151590565b60805160601c61479c6200018e600039600081816107fb0152818161083b015281816108db0152818161091b01526109aa015261479c6000f3fe6080604052600436106102255760003560e01c806363a6b1da11610123578063ae30c110116100ab578063d547741f1161006f578063d547741f14610659578063eafb460114610679578063ec1f1f691461069a578063ef5cfb8c146106bb578063f6f6b881146106db57600080fd5b8063ae30c110146105c1578063bf52e080146105e1578063ca592656146105f7578063cc6522c314610617578063d1b6137f1461063857600080fd5b806391d14854116100f257806391d1485414610537578063a217fddf14610557578063a3673b381461056c578063a440b21a14610581578063adc9772e146105a157600080fd5b806363a6b1da146104a75780637d5f5802146104c85780638129fc1c146104ea578063858fd101146104ff57600080fd5b80632f48ab7d116101b157806352d1902d1161017557806352d1902d146104075780635ca558f81461041c5780635dbd733a146104325780635fea9cbb14610466578063620b75df1461048757600080fd5b80632f48ab7d1461037257806336568abe146103935780633659cfe6146103b35780633e413bee146103d35780634f1ef286146103f457600080fd5b80631b1e7ddc116101f85780631b1e7ddc146102d3578063248a9ca3146102ea5780632576e65a1461031a5780632c76d7a61461032f5780632f2ff15d1461035057600080fd5b806301ffc9a71461022a5780630eee4d2b1461025f5780630f9033f714610298578063119cd879146102bd575b600080fd5b34801561023657600080fd5b5061024a61024536600461416f565b6106fb565b60405190151581526020015b60405180910390f35b34801561026b57600080fd5b5061013054610280906001600160a01b031681565b6040516001600160a01b039091168152602001610256565b3480156102a457600080fd5b506102af6101375481565b604051908152602001610256565b3480156102c957600080fd5b506102af60fd5481565b3480156102df57600080fd5b506102af6101365481565b3480156102f657600080fd5b506102af61030536600461410d565b60009081526065602052604090206001015490565b34801561032657600080fd5b506102af610732565b34801561033b57600080fd5b5061013354610280906001600160a01b031681565b34801561035c57600080fd5b5061037061036b36600461413f565b610743565b005b34801561037e57600080fd5b5061012e54610280906001600160a01b031681565b34801561039f57600080fd5b506103706103ae36600461413f565b61076d565b3480156103bf57600080fd5b506103706103ce366004613f73565b6107f0565b3480156103df57600080fd5b5061012d54610280906001600160a01b031681565b610370610402366004613fad565b6108d0565b34801561041357600080fd5b506102af61099d565b34801561042857600080fd5b506102af60fe5481565b34801561043e57600080fd5b506102af7fd67ad422505496469a1adf6cdf9e5ee92ac5d33992843c9ecc4b2f6d6cde913781565b34801561047257600080fd5b5061013454610280906001600160a01b031681565b34801561049357600080fd5b5060fb54610280906001600160a01b031681565b3480156104b357600080fd5b5061013854610280906001600160a01b031681565b3480156104d457600080fd5b506102af60008051602061470083398151915281565b3480156104f657600080fd5b50610370610a50565b34801561050b57600080fd5b506101335461052390600160a01b900462ffffff1681565b60405162ffffff9091168152602001610256565b34801561054357600080fd5b5061024a61055236600461413f565b610b1a565b34801561056357600080fd5b506102af600081565b34801561057857600080fd5b506102af610b45565b34801561058d57600080fd5b5061037061059c366004613f73565b610b51565b3480156105ad57600080fd5b506103706105bc366004614071565b610c80565b3480156105cd57600080fd5b506103706105dc366004614249565b610eb0565b3480156105ed57600080fd5b506102af60fc5481565b34801561060357600080fd5b50610370610612366004614199565b611025565b34801561062357600080fd5b5061013554610280906001600160a01b031681565b34801561064457600080fd5b5061013254610280906001600160a01b031681565b34801561066557600080fd5b5061037061067436600461413f565b6113dc565b34801561068557600080fd5b5061013154610280906001600160a01b031681565b3480156106a657600080fd5b5061012f54610280906001600160a01b031681565b3480156106c757600080fd5b506102af6106d6366004613f73565b611401565b3480156106e757600080fd5b506102af6106f636600461409d565b611483565b60006001600160e01b03198216637965db0b60e01b148061072c57506301ffc9a760e01b6001600160e01b03198316145b92915050565b600061073e600061175f565b905090565b60008281526065602052604090206001015461075e81611b21565b6107688383611b2b565b505050565b6001600160a01b03811633146107e25760405162461bcd60e51b815260206004820152602f60248201527f416363657373436f6e74726f6c3a2063616e206f6e6c792072656e6f756e636560448201526e103937b632b9903337b91039b2b63360891b60648201526084015b60405180910390fd5b6107ec8282611bb1565b5050565b306001600160a01b037f00000000000000000000000000000000000000000000000000000000000000001614156108395760405162461bcd60e51b81526004016107d9906143c1565b7f00000000000000000000000000000000000000000000000000000000000000006001600160a01b0316610882600080516020614720833981519152546001600160a01b031690565b6001600160a01b0316146108a85760405162461bcd60e51b81526004016107d99061440d565b6108b181611c18565b604080516000808252602082019092526108cd91839190611c23565b50565b306001600160a01b037f00000000000000000000000000000000000000000000000000000000000000001614156109195760405162461bcd60e51b81526004016107d9906143c1565b7f00000000000000000000000000000000000000000000000000000000000000006001600160a01b0316610962600080516020614720833981519152546001600160a01b031690565b6001600160a01b0316146109885760405162461bcd60e51b81526004016107d99061440d565b61099182611c18565b6107ec82826001611c23565b6000306001600160a01b037f00000000000000000000000000000000000000000000000000000000000000001614610a3d5760405162461bcd60e51b815260206004820152603860248201527f555550535570677261646561626c653a206d757374206e6f742062652063616c60448201527f6c6564207468726f7567682064656c656761746563616c6c000000000000000060648201526084016107d9565b5060008051602061472083398151915290565b600054610100900460ff1615808015610a705750600054600160ff909116105b80610a8a5750303b158015610a8a575060005460ff166001145b610aa65760405162461bcd60e51b81526004016107d990614459565b6000805460ff191660011790558015610ac9576000805461ff0019166101001790555b610ad1611d9d565b80156108cd576000805461ff0019169055604051600181527f7f26b83ff96e1f2b6a682f133852f6798a09c465da95921460cefb3847402498906020015b60405180910390a150565b60009182526065602090815260408084206001600160a01b0393909316845291905290205460ff1690565b600061073e600161175f565b610b5c600033610b1a565b610b9f5760405162461bcd60e51b81526020600482015260146024820152735265737472696374656420746f2061646d696e7360601b60448201526064016107d9565b6001600160a01b038116610bf55760405162461bcd60e51b815260206004820152601860248201527f5a65726f2061646472657373206e6f7420616c6c6f776564000000000000000060448201526064016107d9565b60fb54610c1a90600080516020614700833981519152906001600160a01b03166113dc565b610c3260008051602061470083398151915282610743565b60fb80546001600160a01b0319166001600160a01b0383169081179091556040519081527ff7b449fcd5cfb7379dcd34cb69428dd9f882033b15be33d83b42d91daa28eeb790602001610b0f565b610c9860008051602061470083398151915233610b1a565b610cb45760405162461bcd60e51b81526004016107d99061438a565b6000610d32306001600160a01b031663a3673b386040518163ffffffff1660e01b815260040160206040518083038186803b158015610cf257600080fd5b505afa158015610d06573d6000803e3d6000fd5b505050506040513d601f19601f82011682018060405250810190610d2a9190614126565b60fd54611e82565b6040516370a0823160e01b8152306004820152909150610db79084906001600160a01b038216906370a082319060240160206040518083038186803b158015610d7a57600080fd5b505afa158015610d8e573d6000803e3d6000fd5b505050506040513d601f19601f82011682018060405250810190610db29190614126565b611eac565b80306001600160a01b031663a3673b386040518163ffffffff1660e01b815260040160206040518083038186803b158015610df157600080fd5b505afa158015610e05573d6000803e3d6000fd5b505050506040513d601f19601f82011682018060405250810190610e299190614126565b1015610e775760405162461bcd60e51b815260206004820152601f60248201527f5374726174656779204e4156206c657373207468616e2065787065637465640060448201526064016107d9565b6040518281527f227a473b70d2f893cc7659219575c030a63b5743024fe1e0c1a680e708b1525a906020015b60405180910390a1505050565b610eda7fd67ad422505496469a1adf6cdf9e5ee92ac5d33992843c9ecc4b2f6d6cde913733610b1a565b80610f81575060fb54604051632474521560e21b81527fd67ad422505496469a1adf6cdf9e5ee92ac5d33992843c9ecc4b2f6d6cde913760048201523360248201526001600160a01b03909116906391d148549060440160206040518083038186803b158015610f4957600080fd5b505afa158015610f5d573d6000803e3d6000fd5b505050506040513d601f19601f82011682018060405250810190610f8191906140f0565b610fd85760405162461bcd60e51b815260206004820152602260248201527f5265737472696374656420746f20504f5254464f4c494f5f4147454e545f524f6044820152614c4560f01b60648201526084016107d9565b60fc83905560fd82905560fe81905560408051848152602081018490529081018290527f116fbf1e97a2be629ad98abfb6c332733c8996c2dfb174dd2efe8440df381d1a90606001610ea3565b611030600033610b1a565b6110735760405162461bcd60e51b81526020600482015260146024820152735265737472696374656420746f2061646d696e7360601b60448201526064016107d9565b6110806020820182613f73565b61012d80546001600160a01b0319166001600160a01b03929092169190911790556110b16040820160208301613f73565b61012e80546001600160a01b0319166001600160a01b03929092169190911790556110e26060820160408301613f73565b61012f80546001600160a01b0319166001600160a01b03929092169190911790556111136080820160608301613f73565b61013080546001600160a01b0319166001600160a01b039290921691909117905561114460a0820160808301613f73565b61013180546001600160a01b0319166001600160a01b039290921691909117905561117560c0820160a08301613f73565b61013280546001600160a01b0319166001600160a01b03929092169190911790556111a660e0820160c08301613f73565b61013380546001600160a01b0319166001600160a01b03929092169190911790556111d8610100820160e083016141b2565b610133805462ffffff92909216600160a01b0262ffffff60a01b1990921691909117905561120e61012082016101008301613f73565b61013480546001600160a01b0319166001600160a01b039290921691909117905561124161014082016101208301613f73565b61013580546001600160a01b0319166001600160a01b039290921691909117905561126f6020820182613f73565b6001600160a01b031663313ce5676040518163ffffffff1660e01b815260040160206040518083038186803b1580156112a757600080fd5b505afa1580156112bb573d6000803e3d6000fd5b505050506040513d601f19601f820116820180604052508101906112df91906142a3565b6112ea90600a61455b565b610136556112fe6040820160208301613f73565b6001600160a01b031663313ce5676040518163ffffffff1660e01b815260040160206040518083038186803b15801561133657600080fd5b505afa15801561134a573d6000803e3d6000fd5b505050506040513d601f19601f8201168201806040525081019061136e91906142a3565b61137990600a61455b565b6101375561138f61016082016101408301613f73565b61013880546001600160a01b0319166001600160a01b03929092169190911790556040517fea5646eb3528e525944447a4a97de700dd472298626e5c0481d1c82c3da86ea590600090a150565b6000828152606560205260409020600101546113f781611b21565b6107688383611bb1565b600061141b60008051602061470083398151915233610b1a565b6114375760405162461bcd60e51b81526004016107d99061438a565b600061144283612368565b9050801561072c576040518181527f3ac0594a85a20354f9dc74f33728416d19ce00d04a406c108cc2dcf2cecea1349060200160405180910390a192915050565b600061149d60008051602061470083398151915233610b1a565b6114b95760405162461bcd60e51b81526004016107d99061438a565b60006114f7306001600160a01b031663a3673b386040518163ffffffff1660e01b815260040160206040518083038186803b158015610cf257600080fd5b9050600080841561151e5761150b86612368565b905061151788876125b0565b915061158d565b611529888888612ad7565b91508682101561158d5760405162461bcd60e51b815260206004820152602960248201527f52657475726e65642076616c7565206c657373207468616e2072657175657374604482015268195908185b5bdd5b9d60ba1b60648201526084016107d9565b82306001600160a01b031663a3673b386040518163ffffffff1660e01b815260040160206040518083038186803b1580156115c757600080fd5b505afa1580156115db573d6000803e3d6000fd5b505050506040513d601f19601f820116820180604052508101906115ff9190614126565b101561164d5760405162461bcd60e51b815260206004820152601f60248201527f5374726174656779204e4156206c657373207468616e2065787065637465640060448201526064016107d9565b60405163a9059cbb60e01b81526001600160a01b0387811660048301526024820184905289169063a9059cbb90604401602060405180830381600087803b15801561169757600080fd5b505af11580156116ab573d6000803e3d6000fd5b505050506040513d601f19601f820116820180604052508101906116cf91906140f0565b5060408051888152602081018490527f9045c2ac9b2026de8075f2701bbdde882cd5e830b3b1ead9a15b22f2b5b93742910160405180910390a18015611743576040518181527f3ac0594a85a20354f9dc74f33728416d19ce00d04a406c108cc2dcf2cecea1349060200160405180910390a15b509150505b949350505050565b6001600160a01b03163b151590565b61012d546040516370a0823160e01b815230600482015260009182916001600160a01b03909116906370a082319060240160206040518083038186803b1580156117a857600080fd5b505afa1580156117bc573d6000803e3d6000fd5b505050506040513d601f19601f820116820180604052508101906117e09190614126565b61012e546040516370a0823160e01b81523060048201529192506000916001600160a01b03909116906370a082319060240160206040518083038186803b15801561182a57600080fd5b505afa15801561183e573d6000803e3d6000fd5b505050506040513d601f19601f820116820180604052508101906118629190614126565b610131546040516370a0823160e01b81523060048201529192506000916001600160a01b03909116906370a082319060240160206040518083038186803b1580156118ac57600080fd5b505afa1580156118c0573d6000803e3d6000fd5b505050506040513d601f19601f820116820180604052508101906118e49190614126565b90508015611abf5761013254604080516304c8b65560e21b8152815160009384936001600160a01b0390911692631322d9549260048083019392829003018186803b15801561193257600080fd5b505afa158015611946573d6000803e3d6000fd5b505050506040513d601f19601f8201168201806040525081019061196a91906141d7565b9150915061013260009054906101000a90046001600160a01b03166001600160a01b03166318160ddd6040518163ffffffff1660e01b815260040160206040518083038186803b1580156119bd57600080fd5b505afa1580156119d1573d6000803e3d6000fd5b505050506040513d601f19601f820116820180604052508101906119f59190614126565b6119ff8484614606565b611a0991906144f6565b611a1390866144de565b945061013260009054906101000a90046001600160a01b03166001600160a01b03166318160ddd6040518163ffffffff1660e01b815260040160206040518083038186803b158015611a6457600080fd5b505afa158015611a78573d6000803e3d6000fd5b505050506040513d601f19601f82011682018060405250810190611a9c9190614126565b611aa68483614606565b611ab091906144f6565b611aba90856144de565b935050505b8115611b18578415611ae557611ad482612f49565b611ade90846144de565b9250611b18565b6101385461012e5461012d54611b0b926001600160a01b03908116928116911685613073565b611b1590846144de565b92505b50909392505050565b6108cd8133613164565b611b358282610b1a565b6107ec5760008281526065602090815260408083206001600160a01b03851684529091529020805460ff19166001179055611b6d3390565b6001600160a01b0316816001600160a01b0316837f2f8788117e7eff1d82e926ec794901d17c78024a50270940304540a733656f0d60405160405180910390a45050565b611bbb8282610b1a565b156107ec5760008281526065602090815260408083206001600160a01b0385168085529252808320805460ff1916905551339285917ff6391f5c32d9c69d2a47ea670b442974b53935d1edc7fd64eb21e047a839171b9190a45050565b60006107ec81611b21565b7f4910fdfa16fed3260ed0e7147f7cc6da11a60208b5b9406d12a635614ffd91435460ff1615611c5657610768836131bd565b826001600160a01b03166352d1902d6040518163ffffffff1660e01b815260040160206040518083038186803b158015611c8f57600080fd5b505afa925050508015611cbf575060408051601f3d908101601f19168201909252611cbc91810190614126565b60015b611d225760405162461bcd60e51b815260206004820152602e60248201527f45524331393637557067726164653a206e657720696d706c656d656e7461746960448201526d6f6e206973206e6f74205555505360901b60648201526084016107d9565b6000805160206147208339815191528114611d915760405162461bcd60e51b815260206004820152602960248201527f45524331393637557067726164653a20756e737570706f727465642070726f786044820152681a58589b195555525160ba1b60648201526084016107d9565b50610768838383613259565b600054610100900460ff1615808015611dbd5750600054600160ff909116105b80611dd75750303b158015611dd7575060005460ff166001145b611df35760405162461bcd60e51b81526004016107d990614459565b6000805460ff191660011790558015611e16576000805461ff0019166101001790555b611e1e613284565b611e26613284565b611e31600033611b2b565b601460fc81905560fd55600460fe5580156108cd576000805461ff0019169055604051600181527f7f26b83ff96e1f2b6a682f133852f6798a09c465da95921460cefb384740249890602001610b0f565b6000612710611e918382614625565b611e9b9085614606565b611ea591906144f6565b9392505050565b61012d546001600160a01b03838116911614611eda5760405162461bcd60e51b81526004016107d9906144a7565b61013254604080516304c8b65560e21b8152815160009384936001600160a01b0390911692631322d9549260048083019392829003018186803b158015611f2057600080fd5b505afa158015611f34573d6000803e3d6000fd5b505050506040513d601f19601f82011682018060405250810190611f5891906141d7565b61012d546040516370a0823160e01b81523060048201529294509092506000916001600160a01b03909116906370a082319060240160206040518083038186803b158015611fa557600080fd5b505afa158015611fb9573d6000803e3d6000fd5b505050506040513d601f19601f82011682018060405250810190611fdd9190614126565b6101385461012d5461012e546101365461013754949550600094612019946001600160a01b0390811694811693169187918a918a9160016132f1565b90506000600a61203361202b8461339c565b60fc54611e82565b61203d9190614625565b6101385461012d5461012e54929350612068926001600160a01b0392831692918216911685856134c6565b5061012d546040516370a0823160e01b81523060048201526000916001600160a01b0316906370a082319060240160206040518083038186803b1580156120ae57600080fd5b505afa1580156120c2573d6000803e3d6000fd5b505050506040513d601f19601f820116820180604052508101906120e69190614126565b61012e546040516370a0823160e01b81523060048201529192506000916001600160a01b03909116906370a082319060240160206040518083038186803b15801561213057600080fd5b505afa158015612144573d6000803e3d6000fd5b505050506040513d601f19601f820116820180604052508101906121689190614126565b61012d546101305460405163095ea7b360e01b81526001600160a01b03918216600482015260248101869052929350169063095ea7b390604401602060405180830381600087803b1580156121bc57600080fd5b505af11580156121d0573d6000803e3d6000fd5b505050506040513d601f19601f820116820180604052508101906121f491906140f0565b5061012e546101305460405163095ea7b360e01b81526001600160a01b0391821660048201526024810184905291169063095ea7b390604401602060405180830381600087803b15801561224757600080fd5b505af115801561225b573d6000803e3d6000fd5b505050506040513d601f19601f8201168201806040525081019061227f91906140f0565b50610130546101315460fe546001600160a01b039283169263a6446c89921690859085906122ae908390611e82565b6122ba8760fe54611e82565b6040516001600160e01b031960e088901b1681526001600160a01b0390951660048601526024850193909352604484019190915260648301526084820152600060a48201523060c482015260e401606060405180830381600087803b15801561232257600080fd5b505af1158015612336573d6000803e3d6000fd5b505050506040513d601f19601f8201168201806040525081019061235a9190614275565b505050505050505050505050565b610131546040516370a0823160e01b815230600482015260009182916001600160a01b03909116906370a082319060240160206040518083038186803b1580156123b157600080fd5b505afa1580156123c5573d6000803e3d6000fd5b505050506040513d601f19601f820116820180604052508101906123e99190614126565b111561244e5761013154604051634274debf60e11b81523060048201526001600160a01b03909116906384e9bd7e90602401600060405180830381600087803b15801561243557600080fd5b505af1158015612449573d6000803e3d6000fd5b505050505b61012f546040516370a0823160e01b815230600482015260009182916001600160a01b03909116906370a082319060240160206040518083038186803b15801561249757600080fd5b505afa1580156124ab573d6000803e3d6000fd5b505050506040513d601f19601f820116820180604052508101906124cf9190614126565b9050801561251a576101335461012f5461012d5461250d926001600160a01b03808216938116921690600160a01b900462ffffff16308660006136a8565b61251790836144de565b91505b81156125a95761012d5460405163a9059cbb60e01b81526001600160a01b038681166004830152602482018590529091169063a9059cbb90604401602060405180830381600087803b15801561256f57600080fd5b505af1158015612583573d6000803e3d6000fd5b505050506040513d601f19601f820116820180604052508101906125a791906140f0565b505b5092915050565b61012d546000906001600160a01b038481169116146125e15760405162461bcd60e51b81526004016107d9906144a7565b610131546040516370a0823160e01b81523060048201526000916001600160a01b0316906370a082319060240160206040518083038186803b15801561262657600080fd5b505afa15801561263a573d6000803e3d6000fd5b505050506040513d601f19601f8201168201806040525081019061265e9190614126565b90508061266f57600091505061072c565b61013254604080516304c8b65560e21b8152815160009384936001600160a01b0390911692631322d9549260048083019392829003018186803b1580156126b557600080fd5b505afa1580156126c9573d6000803e3d6000fd5b505050506040513d601f19601f820116820180604052508101906126ed91906141d7565b91509150600061013260009054906101000a90046001600160a01b03166001600160a01b03166318160ddd6040518163ffffffff1660e01b815260040160206040518083038186803b15801561274257600080fd5b505afa158015612756573d6000803e3d6000fd5b505050506040513d601f19601f8201168201806040525081019061277a9190614126565b6127848585614606565b61278e91906144f6565b9050600061013260009054906101000a90046001600160a01b03166001600160a01b03166318160ddd6040518163ffffffff1660e01b815260040160206040518083038186803b1580156127e157600080fd5b505afa1580156127f5573d6000803e3d6000fd5b505050506040513d601f19601f820116820180604052508101906128199190614126565b6128238685614606565b61282d91906144f6565b610131546101305460405163095ea7b360e01b81526001600160a01b03918216600482015260248101899052929350169063095ea7b390604401602060405180830381600087803b15801561288157600080fd5b505af1158015612895573d6000803e3d6000fd5b505050506040513d601f19601f820116820180604052508101906128b991906140f0565b50610130546101315460fe546001600160a01b039283169263b83a75b392169088906128e6908790611e82565b6128f28660fe54611e82565b6040516001600160e01b031960e087901b1681526001600160a01b03909416600485015260248401929092526044830152606482015230608482015260a401606060405180830381600087803b15801561294b57600080fd5b505af115801561295f573d6000803e3d6000fd5b505050506040513d601f19601f8201168201806040525081019061298391906141fb565b505061012e546040516370a0823160e01b8152306004820152600092506001600160a01b03909116906370a082319060240160206040518083038186803b1580156129cd57600080fd5b505afa1580156129e1573d6000803e3d6000fd5b505050506040513d601f19601f82011682018060405250810190612a059190614126565b90506000600a612a1761202b84612f49565b612a219190614625565b6101385461012e5461012d54929350612a4c926001600160a01b0392831692918216911685856134c6565b5061012d546040516370a0823160e01b81523060048201526001600160a01b03909116906370a082319060240160206040518083038186803b158015612a9157600080fd5b505afa158015612aa5573d6000803e3d6000fd5b505050506040513d601f19601f82011682018060405250810190612ac99190614126565b9a9950505050505050505050565b61012d546000906001600160a01b03858116911614612b085760405162461bcd60e51b81526004016107d9906144a7565b61013254604080516304c8b65560e21b8152815160009384936001600160a01b0390911692631322d9549260048083019392829003018186803b158015612b4e57600080fd5b505afa158015612b62573d6000803e3d6000fd5b505050506040513d601f19601f82011682018060405250810190612b8691906141d7565b91509150600061013260009054906101000a90046001600160a01b03166001600160a01b03166318160ddd6040518163ffffffff1660e01b815260040160206040518083038186803b158015612bdb57600080fd5b505afa158015612bef573d6000803e3d6000fd5b505050506040513d601f19601f82011682018060405250810190612c139190614126565b6101385461012d5461012e54929350600092612c60926001600160a01b039081169281169116612c4e612c478c600a6144de565b6001613825565b86898961013654610137546001613834565b905081811115612c6d5750805b600082612c7a8387614606565b612c8491906144f6565b9050600083612c938487614606565b612c9d91906144f6565b610131546101305460405163095ea7b360e01b81526001600160a01b03918216600482015260248101879052929350169063095ea7b390604401602060405180830381600087803b158015612cf157600080fd5b505af1158015612d05573d6000803e3d6000fd5b505050506040513d601f19601f82011682018060405250810190612d2991906140f0565b50610130546101315460fe546001600160a01b039283169263b83a75b39216908690612d56908790611e82565b612d628660fe54611e82565b6040516001600160e01b031960e087901b1681526001600160a01b03909416600485015260248401929092526044830152606482015230608482015260a401606060405180830381600087803b158015612dbb57600080fd5b505af1158015612dcf573d6000803e3d6000fd5b505050506040513d601f19601f82011682018060405250810190612df391906141fb565b505061012e546040516370a0823160e01b8152306004820152600092506001600160a01b03909116906370a082319060240160206040518083038186803b158015612e3d57600080fd5b505afa158015612e51573d6000803e3d6000fd5b505050506040513d601f19601f82011682018060405250810190612e759190614126565b90506000600a612e8761202b84612f49565b612e919190614625565b6101385461012e5461012d54929350612ebc926001600160a01b0392831692918216911685856134c6565b5061012d546040516370a0823160e01b81523060048201526001600160a01b03909116906370a082319060240160206040518083038186803b158015612f0157600080fd5b505afa158015612f15573d6000803e3d6000fd5b505050506040513d601f19601f82011682018060405250810190612f399190614126565b9c9b505050505050505050505050565b60008061013560009054906101000a90046001600160a01b03166001600160a01b03166350d25bcd6040518163ffffffff1660e01b815260040160206040518083038186803b158015612f9b57600080fd5b505afa158015612faf573d6000803e3d6000fd5b505050506040513d601f19601f82011682018060405250810190612fd39190614126565b9050600061013460009054906101000a90046001600160a01b03166001600160a01b03166350d25bcd6040518163ffffffff1660e01b815260040160206040518083038186803b15801561302657600080fd5b505afa15801561303a573d6000803e3d6000fd5b505050506040513d601f19601f8201168201806040525081019061305e9190614126565b9050611748846101375461013654858561390c565b600080600080613084888888613941565b9250925092508015613125576040516307211ef760e01b8152600f84810b600483015283900b6024820152604481018690526001600160a01b038916906307211ef7906064015b60206040518083038186803b1580156130e357600080fd5b505afa1580156130f7573d6000803e3d6000fd5b505050506040513d601f19601f8201168201806040525081019061311b9190614126565b9350505050611748565b604051635e0d443f60e01b8152600f84810b600483015283900b6024820152604481018690526001600160a01b03891690635e0d443f906064016130cb565b61316e8282610b1a565b6107ec5761317b81613b96565b613186836020613ba8565b6040516020016131979291906142e2565b60408051601f198184030181529082905262461bcd60e51b82526107d991600401614357565b6001600160a01b0381163b61322a5760405162461bcd60e51b815260206004820152602d60248201527f455243313936373a206e657720696d706c656d656e746174696f6e206973206e60448201526c1bdd08184818dbdb9d1c9858dd609a1b60648201526084016107d9565b60008051602061472083398151915280546001600160a01b0319166001600160a01b0392909216919091179055565b61326283613d44565b60008251118061326f5750805b156107685761327e8383613d84565b50505050565b600054610100900460ff166132ef5760405162461bcd60e51b815260206004820152602b60248201527f496e697469616c697a61626c653a20636f6e7472616374206973206e6f74206960448201526a6e697469616c697a696e6760a81b60648201526084016107d9565b565b600084846132ff8589614606565b61330991906144f6565b61331391906144de565b61331d8689614606565b61332791906144f6565b905060005b8281101561338e5760006133428c8c8c86613073565b90508683613350838b614606565b61335a91906144f6565b61336491906144de565b61336e888b614606565b61337891906144f6565b92505080806133869061467f565b91505061332c565b509998505050505050505050565b60008061013560009054906101000a90046001600160a01b03166001600160a01b03166350d25bcd6040518163ffffffff1660e01b815260040160206040518083038186803b1580156133ee57600080fd5b505afa158015613402573d6000803e3d6000fd5b505050506040513d601f19601f820116820180604052508101906134269190614126565b9050600061013460009054906101000a90046001600160a01b03166001600160a01b03166350d25bcd6040518163ffffffff1660e01b815260040160206040518083038186803b15801561347957600080fd5b505afa15801561348d573d6000803e3d6000fd5b505050506040513d601f19601f820116820180604052508101906134b19190614126565b9050611748846101365461013754848661390c565b60405163095ea7b360e01b81526001600160a01b038681166004830152602482018490526000919086169063095ea7b390604401602060405180830381600087803b15801561351457600080fd5b505af1158015613528573d6000803e3d6000fd5b505050506040513d601f19601f8201168201806040525081019061354c91906140f0565b50600080600061355d898989613941565b9250925092506000811561360557604051635320bf6b60e11b8152600f85810b600483015284900b602482015260448101889052606481018790526001600160a01b038b169063a6417ed690608401602060405180830381600087803b1580156135c657600080fd5b505af11580156135da573d6000803e3d6000fd5b505050506040513d601f19601f820116820180604052508101906135fe9190614126565b905061369b565b604051630f7c084960e21b8152600f85810b600483015284900b602482015260448101889052606481018790526001600160a01b038b1690633df0212490608401602060405180830381600087803b15801561366057600080fd5b505af1158015613674573d6000803e3d6000fd5b505050506040513d601f19601f820116820180604052508101906136989190614126565b90505b9998505050505050505050565b60405163095ea7b360e01b81526001600160a01b038881166004830152602482018490526000919088169063095ea7b390604401602060405180830381600087803b1580156136f657600080fd5b505af115801561370a573d6000803e3d6000fd5b505050506040513d601f19601f8201168201806040525081019061372e91906140f0565b506040805160e0810182526001600160a01b0389811682528881166020830190815262ffffff89811684860190815289841660608601908152608086018a815260a087018a8152600060c0890190815298516304e45aaf60e01b8152885188166004820152955187166024870152925190931660448501525184166064840152905160848301525160a48201529251811660c48401529091908a16906304e45aaf9060e401602060405180830381600087803b1580156137ed57600080fd5b505af1158015613801573d6000803e3d6000fd5b505050506040513d601f19601f8201168201806040525081019061369b9190614126565b6000612710611e9183826144de565b60006138408486614606565b61384a8488614606565b61385491906144de565b8361385f8a8a614606565b6138699190614606565b61387391906144f6565b905060005b828110156138fd5760008861388d8489614606565b61389791906144f6565b905060006138a78e8d8f85613073565b90506138b38189614606565b6138bd838b614606565b6138c791906144de565b826138d28d8d614606565b6138dc9190614606565b6138e691906144f6565b9350505080806138f59061467f565b915050613878565b509a9950505050505050505050565b60006139188286614606565b836139238689614606565b61392d9190614606565b61393791906144f6565b9695505050505050565b6000808060016001607f1b0380825b600061395c8a83613e78565b90506001600160a01b03811661397257506139c5565b886001600160a01b0316816001600160a01b03161415613994578193506139b2565b876001600160a01b0316816001600160a01b031614156139b2578192505b816139bc8161467f565b92505050613950565b600f83900b60016001607f1b03148015906139eb5750600f82900b60016001607f1b0314155b156139ff5750909350915060009050613b8d565b600f83900b60016001607f1b03141580613a245750600f82900b60016001607f1b0314155b15613a7d5760405162461bcd60e51b815260206004820152602360248201527f437572766553503a20696e636f727265637420746f6b656e207061697220736560448201526207475760ec1b60648201526084016107d9565b5060005b6000613a8d8a83613f05565b90506001600160a01b038116613aa35750613af6565b886001600160a01b0316816001600160a01b03161415613ac557819350613ae3565b876001600160a01b0316816001600160a01b03161415613ae3578192505b81613aed8161467f565b92505050613a81565b600f83900b60016001607f1b0314801590613b1c5750600f82900b60016001607f1b0314155b15613b305750909350915060019050613b8d565b60405162461bcd60e51b815260206004820152602c60248201527f437572766553503a2043616e27742066696e6420696e64657820666f7220746f60448201526b1ad95b9cc81a5b881c1bdbdb60a21b60648201526084016107d9565b93509350939050565b606061072c6001600160a01b03831660145b60606000613bb7836002614606565b613bc29060026144de565b67ffffffffffffffff811115613bda57613bda6146c6565b6040519080825280601f01601f191660200182016040528015613c04576020820181803683370190505b509050600360fc1b81600081518110613c1f57613c1f6146b0565b60200101906001600160f81b031916908160001a905350600f60fb1b81600181518110613c4e57613c4e6146b0565b60200101906001600160f81b031916908160001a9053506000613c72846002614606565b613c7d9060016144de565b90505b6001811115613cf5576f181899199a1a9b1b9c1cb0b131b232b360811b85600f1660108110613cb157613cb16146b0565b1a60f81b828281518110613cc757613cc76146b0565b60200101906001600160f81b031916908160001a90535060049490941c93613cee81614668565b9050613c80565b508315611ea55760405162461bcd60e51b815260206004820181905260248201527f537472696e67733a20686578206c656e67746820696e73756666696369656e7460448201526064016107d9565b613d4d816131bd565b6040516001600160a01b038216907fbc7cd75a20ee27fd9adebab32041f755214dbc6bffa90cc0225b39da2e5c2d3b90600090a250565b60606001600160a01b0383163b613dec5760405162461bcd60e51b815260206004820152602660248201527f416464726573733a2064656c65676174652063616c6c20746f206e6f6e2d636f6044820152651b9d1c9858dd60d21b60648201526084016107d9565b600080846001600160a01b031684604051613e0791906142c6565b600060405180830381855af49150503d8060008114613e42576040519150601f19603f3d011682016040523d82523d6000602084013e613e47565b606091505b5091509150613e6f828260405180606001604052806027815260200161474060279139613f35565b95945050505050565b60405163c661065760e01b8152600481018290526000906001600160a01b0384169063c6610657906024015b60206040518083038186803b158015613ebc57600080fd5b505afa925050508015613eec575060408051601f3d908101601f19168201909252613ee991810190613f90565b60015b613ef557613efc565b905061072c565b50600092915050565b604051630b9947eb60e41b8152600481018290526000906001600160a01b0384169063b9947eb090602401613ea4565b60608315613f44575081611ea5565b611ea58383815115613f595781518083602001fd5b8060405162461bcd60e51b81526004016107d99190614357565b600060208284031215613f8557600080fd5b8135611ea5816146dc565b600060208284031215613fa257600080fd5b8151611ea5816146dc565b60008060408385031215613fc057600080fd5b8235613fcb816146dc565b9150602083013567ffffffffffffffff80821115613fe857600080fd5b818501915085601f830112613ffc57600080fd5b81358181111561400e5761400e6146c6565b604051601f8201601f19908116603f01168101908382118183101715614036576140366146c6565b8160405282815288602084870101111561404f57600080fd5b8260208601602083013760006020848301015280955050505050509250929050565b6000806040838503121561408457600080fd5b823561408f816146dc565b946020939093013593505050565b600080600080608085870312156140b357600080fd5b84356140be816146dc565b93506020850135925060408501356140d5816146dc565b915060608501356140e5816146f1565b939692955090935050565b60006020828403121561410257600080fd5b8151611ea5816146f1565b60006020828403121561411f57600080fd5b5035919050565b60006020828403121561413857600080fd5b5051919050565b6000806040838503121561415257600080fd5b823591506020830135614164816146dc565b809150509250929050565b60006020828403121561418157600080fd5b81356001600160e01b031981168114611ea557600080fd5b600061016082840312156141ac57600080fd5b50919050565b6000602082840312156141c457600080fd5b813562ffffff81168114611ea557600080fd5b600080604083850312156141ea57600080fd5b505080516020909101519092909150565b60008060006060848603121561421057600080fd5b835192506020840151915060408401516fffffffffffffffffffffffffffffffff8116811461423e57600080fd5b809150509250925092565b60008060006060848603121561425e57600080fd5b505081359360208301359350604090920135919050565b60008060006060848603121561428a57600080fd5b8351925060208401519150604084015190509250925092565b6000602082840312156142b557600080fd5b815160ff81168114611ea557600080fd5b600082516142d881846020870161463c565b9190910192915050565b7f416363657373436f6e74726f6c3a206163636f756e742000000000000000000081526000835161431a81601785016020880161463c565b7001034b99036b4b9b9b4b733903937b6329607d1b601791840191820152835161434b81602884016020880161463c565b01602801949350505050565b602081526000825180602084015261437681604085016020870161463c565b601f01601f19169190910160400192915050565b6020808252601f908201527f5265737472696374656420746f20504f5254464f4c494f5f4d414e4147455200604082015260600190565b6020808252602c908201527f46756e6374696f6e206d7573742062652063616c6c6564207468726f7567682060408201526b19195b1959d85d1958d85b1b60a21b606082015260800190565b6020808252602c908201527f46756e6374696f6e206d7573742062652063616c6c6564207468726f7567682060408201526b6163746976652070726f787960a01b606082015260800190565b6020808252602e908201527f496e697469616c697a61626c653a20636f6e747261637420697320616c72656160408201526d191e481a5b9a5d1a585b1a5e995960921b606082015260800190565b60208082526019908201527f536f6d6520746f6b656e206e6f7420636f6d70617469626c6500000000000000604082015260600190565b600082198211156144f1576144f161469a565b500190565b60008261451357634e487b7160e01b600052601260045260246000fd5b500490565b600181815b808511156145535781600019048211156145395761453961469a565b8085161561454657918102915b93841c939080029061451d565b509250929050565b6000611ea560ff8416836000826145745750600161072c565b816145815750600061072c565b816001811461459757600281146145a1576145bd565b600191505061072c565b60ff8411156145b2576145b261469a565b50506001821b61072c565b5060208310610133831016604e8410600b84101617156145e0575081810a61072c565b6145ea8383614518565b80600019048211156145fe576145fe61469a565b029392505050565b60008160001904831182151516156146205761462061469a565b500290565b6000828210156146375761463761469a565b500390565b60005b8381101561465757818101518382015260200161463f565b8381111561327e5750506000910152565b6000816146775761467761469a565b506000190190565b60006000198214156146935761469361469a565b5060010190565b634e487b7160e01b600052601160045260246000fd5b634e487b7160e01b600052603260045260246000fd5b634e487b7160e01b600052604160045260246000fd5b6001600160a01b03811681146108cd57600080fd5b80151581146108cd57600080fdfe90c2aa7471c04182221f68e80c07ab1e5946e4c63f8693e14ca40385d529f051360894a13ba1a3210667c828492db98dca3e2076cc3735a920a3ca505d382bbc416464726573733a206c6f772d6c6576656c2064656c65676174652063616c6c206661696c6564a2646970667358221220cbdfa04babc4e13d77b5942c25d6bca97e98d4e3008ff8f57705153ea329cf4064736f6c63430008060033",
  "implementation": "0x5aeaf164e528cd827c56F888C35f870f37c13eA3",
  "devdoc": {
    "kind": "dev",
    "methods": {
      "constructor": {
        "custom:oz-upgrades-unsafe-allow": "constructor"
      },
      "getRoleAdmin(bytes32)": {
        "details": "Returns the admin role that controls `role`. See {grantRole} and {revokeRole}. To change a role's admin, use {_setRoleAdmin}."
      },
      "grantRole(bytes32,address)": {
        "details": "Grants `role` to `account`. If `account` had not been already granted `role`, emits a {RoleGranted} event. Requirements: - the caller must have ``role``'s admin role. May emit a {RoleGranted} event."
      },
      "hasRole(bytes32,address)": {
        "details": "Returns `true` if `account` has been granted `role`."
      },
      "proxiableUUID()": {
        "details": "Implementation of the ERC1822 {proxiableUUID} function. This returns the storage slot used by the implementation. It is used to validate the implementation's compatibility when performing an upgrade. IMPORTANT: A proxy pointing at a proxiable contract should not be considered proxiable itself, because this risks bricking a proxy that upgrades to it, by delegating to itself until out of gas. Thus it is critical that this function revert if invoked through a proxy. This is guaranteed by the `notDelegated` modifier."
      },
      "renounceRole(bytes32,address)": {
        "details": "Revokes `role` from the calling account. Roles are often managed via {grantRole} and {revokeRole}: this function's purpose is to provide a mechanism for accounts to lose their privileges if they are compromised (such as when a trusted device is misplaced). If the calling account had been revoked `role`, emits a {RoleRevoked} event. Requirements: - the caller must be `account`. May emit a {RoleRevoked} event."
      },
      "revokeRole(bytes32,address)": {
        "details": "Revokes `role` from `account`. If `account` had been granted `role`, emits a {RoleRevoked} event. Requirements: - the caller must have ``role``'s admin role. May emit a {RoleRevoked} event."
      },
      "supportsInterface(bytes4)": {
        "details": "See {IERC165-supportsInterface}."
      },
      "upgradeTo(address)": {
        "details": "Upgrade the implementation of the proxy to `newImplementation`. Calls {_authorizeUpgrade}. Emits an {Upgraded} event."
      },
      "upgradeToAndCall(address,bytes)": {
        "details": "Upgrade the implementation of the proxy to `newImplementation`, and subsequently execute the function call encoded in `data`. Calls {_authorizeUpgrade}. Emits an {Upgraded} event."
      }
    },
    "version": 1
  },
  "userdoc": {
    "kind": "user",
    "methods": {},
    "version": 1
  },
  "storageLayout": {
    "storage": [
      {
        "astId": 804,
        "contract": "contracts/StrategyArrakisUsdcUsdt.sol:StrategyArrakisUsdcUsdt",
        "label": "_initialized",
        "offset": 0,
        "slot": "0",
        "type": "t_uint8"
      },
      {
        "astId": 807,
        "contract": "contracts/StrategyArrakisUsdcUsdt.sol:StrategyArrakisUsdcUsdt",
        "label": "_initializing",
        "offset": 1,
        "slot": "0",
        "type": "t_bool"
      },
      {
        "astId": 1427,
        "contract": "contracts/StrategyArrakisUsdcUsdt.sol:StrategyArrakisUsdcUsdt",
        "label": "__gap",
        "offset": 0,
        "slot": "1",
        "type": "t_array(t_uint256)50_storage"
      },
      {
        "astId": 1706,
        "contract": "contracts/StrategyArrakisUsdcUsdt.sol:StrategyArrakisUsdcUsdt",
        "label": "__gap",
        "offset": 0,
        "slot": "51",
        "type": "t_array(t_uint256)50_storage"
      },
      {
        "astId": 39,
        "contract": "contracts/StrategyArrakisUsdcUsdt.sol:StrategyArrakisUsdcUsdt",
        "label": "_roles",
        "offset": 0,
        "slot": "101",
        "type": "t_mapping(t_bytes32,t_struct(RoleData)34_storage)"
      },
      {
        "astId": 334,
        "contract": "contracts/StrategyArrakisUsdcUsdt.sol:StrategyArrakisUsdcUsdt",
        "label": "__gap",
        "offset": 0,
        "slot": "102",
        "type": "t_array(t_uint256)49_storage"
      },
      {
        "astId": 786,
        "contract": "contracts/StrategyArrakisUsdcUsdt.sol:StrategyArrakisUsdcUsdt",
        "label": "__gap",
        "offset": 0,
        "slot": "151",
        "type": "t_array(t_uint256)50_storage"
      },
      {
        "astId": 1101,
        "contract": "contracts/StrategyArrakisUsdcUsdt.sol:StrategyArrakisUsdcUsdt",
        "label": "__gap",
        "offset": 0,
        "slot": "201",
        "type": "t_array(t_uint256)50_storage"
      },
      {
        "astId": 7075,
        "contract": "contracts/StrategyArrakisUsdcUsdt.sol:StrategyArrakisUsdcUsdt",
        "label": "portfolioManager",
        "offset": 0,
        "slot": "251",
        "type": "t_address"
      },
      {
        "astId": 7077,
        "contract": "contracts/StrategyArrakisUsdcUsdt.sol:StrategyArrakisUsdcUsdt",
        "label": "swapSlippageBP",
        "offset": 0,
        "slot": "252",
        "type": "t_uint256"
      },
      {
        "astId": 7079,
        "contract": "contracts/StrategyArrakisUsdcUsdt.sol:StrategyArrakisUsdcUsdt",
        "label": "navSlippageBP",
        "offset": 0,
        "slot": "253",
        "type": "t_uint256"
      },
      {
        "astId": 7081,
        "contract": "contracts/StrategyArrakisUsdcUsdt.sol:StrategyArrakisUsdcUsdt",
        "label": "stakeSlippageBP",
        "offset": 0,
        "slot": "254",
        "type": "t_uint256"
      },
      {
        "astId": 7466,
        "contract": "contracts/StrategyArrakisUsdcUsdt.sol:StrategyArrakisUsdcUsdt",
        "label": "__gap",
        "offset": 0,
        "slot": "255",
        "type": "t_array(t_uint256)46_storage"
      },
      {
        "astId": 7577,
        "contract": "contracts/StrategyArrakisUsdcUsdt.sol:StrategyArrakisUsdcUsdt",
        "label": "usdc",
        "offset": 0,
        "slot": "301",
        "type": "t_contract(IERC20)2662"
      },
      {
        "astId": 7580,
        "contract": "contracts/StrategyArrakisUsdcUsdt.sol:StrategyArrakisUsdcUsdt",
        "label": "usdt",
        "offset": 0,
        "slot": "302",
        "type": "t_contract(IERC20)2662"
      },
      {
        "astId": 7583,
        "contract": "contracts/StrategyArrakisUsdcUsdt.sol:StrategyArrakisUsdcUsdt",
        "label": "op",
        "offset": 0,
        "slot": "303",
        "type": "t_contract(IERC20)2662"
      },
      {
        "astId": 7586,
        "contract": "contracts/StrategyArrakisUsdcUsdt.sol:StrategyArrakisUsdcUsdt",
        "label": "arrakisRouter",
        "offset": 0,
        "slot": "304",
        "type": "t_contract(IArrakisV1RouterStaking)3000"
      },
      {
        "astId": 7589,
        "contract": "contracts/StrategyArrakisUsdcUsdt.sol:StrategyArrakisUsdcUsdt",
        "label": "arrakisRewards",
        "offset": 0,
        "slot": "305",
        "type": "t_contract(IGauge)2823"
      },
      {
        "astId": 7592,
        "contract": "contracts/StrategyArrakisUsdcUsdt.sol:StrategyArrakisUsdcUsdt",
        "label": "arrakisVault",
        "offset": 0,
        "slot": "306",
        "type": "t_contract(IArrakisVaultV1)3089"
      },
      {
        "astId": 7595,
        "contract": "contracts/StrategyArrakisUsdcUsdt.sol:StrategyArrakisUsdcUsdt",
        "label": "uniswapV3Router",
        "offset": 0,
        "slot": "307",
        "type": "t_contract(ISwapRouter)5013"
      },
      {
        "astId": 7597,
        "contract": "contracts/StrategyArrakisUsdcUsdt.sol:StrategyArrakisUsdcUsdt",
        "label": "poolUsdcOpFee",
        "offset": 20,
        "slot": "307",
        "type": "t_uint24"
      },
      {
        "astId": 7600,
        "contract": "contracts/StrategyArrakisUsdcUsdt.sol:StrategyArrakisUsdcUsdt",
        "label": "oracleUsdc",
        "offset": 0,
        "slot": "308",
        "type": "t_contract(IPriceFeed)3164"
      },
      {
        "astId": 7603,
        "contract": "contracts/StrategyArrakisUsdcUsdt.sol:StrategyArrakisUsdcUsdt",
        "label": "oracleUsdt",
        "offset": 0,
        "slot": "309",
        "type": "t_contract(IPriceFeed)3164"
      },
      {
        "astId": 7605,
        "contract": "contracts/StrategyArrakisUsdcUsdt.sol:StrategyArrakisUsdcUsdt",
        "label": "usdcDm",
        "offset": 0,
        "slot": "310",
        "type": "t_uint256"
      },
      {
        "astId": 7607,
        "contract": "contracts/StrategyArrakisUsdcUsdt.sol:StrategyArrakisUsdcUsdt",
        "label": "usdtDm",
        "offset": 0,
        "slot": "311",
        "type": "t_uint256"
      },
      {
        "astId": 7609,
        "contract": "contracts/StrategyArrakisUsdcUsdt.sol:StrategyArrakisUsdcUsdt",
        "label": "curve3Pool",
        "offset": 0,
        "slot": "312",
        "type": "t_address"
      }
    ],
    "types": {
      "t_address": {
        "encoding": "inplace",
        "label": "address",
        "numberOfBytes": "20"
      },
      "t_array(t_uint256)46_storage": {
        "base": "t_uint256",
        "encoding": "inplace",
        "label": "uint256[46]",
        "numberOfBytes": "1472"
      },
      "t_array(t_uint256)49_storage": {
        "base": "t_uint256",
        "encoding": "inplace",
        "label": "uint256[49]",
        "numberOfBytes": "1568"
      },
      "t_array(t_uint256)50_storage": {
        "base": "t_uint256",
        "encoding": "inplace",
        "label": "uint256[50]",
        "numberOfBytes": "1600"
      },
      "t_bool": {
        "encoding": "inplace",
        "label": "bool",
        "numberOfBytes": "1"
      },
      "t_bytes32": {
        "encoding": "inplace",
        "label": "bytes32",
        "numberOfBytes": "32"
      },
      "t_contract(IArrakisV1RouterStaking)3000": {
        "encoding": "inplace",
        "label": "contract IArrakisV1RouterStaking",
        "numberOfBytes": "20"
      },
      "t_contract(IArrakisVaultV1)3089": {
        "encoding": "inplace",
        "label": "contract IArrakisVaultV1",
        "numberOfBytes": "20"
      },
      "t_contract(IERC20)2662": {
        "encoding": "inplace",
        "label": "contract IERC20",
        "numberOfBytes": "20"
      },
      "t_contract(IGauge)2823": {
        "encoding": "inplace",
        "label": "contract IGauge",
        "numberOfBytes": "20"
      },
      "t_contract(IPriceFeed)3164": {
        "encoding": "inplace",
        "label": "contract IPriceFeed",
        "numberOfBytes": "20"
      },
      "t_contract(ISwapRouter)5013": {
        "encoding": "inplace",
        "label": "contract ISwapRouter",
        "numberOfBytes": "20"
      },
      "t_mapping(t_address,t_bool)": {
        "encoding": "mapping",
        "key": "t_address",
        "label": "mapping(address => bool)",
        "numberOfBytes": "32",
        "value": "t_bool"
      },
      "t_mapping(t_bytes32,t_struct(RoleData)34_storage)": {
        "encoding": "mapping",
        "key": "t_bytes32",
        "label": "mapping(bytes32 => struct AccessControlUpgradeable.RoleData)",
        "numberOfBytes": "32",
        "value": "t_struct(RoleData)34_storage"
      },
      "t_struct(RoleData)34_storage": {
        "encoding": "inplace",
        "label": "struct AccessControlUpgradeable.RoleData",
        "members": [
          {
            "astId": 31,
            "contract": "contracts/StrategyArrakisUsdcUsdt.sol:StrategyArrakisUsdcUsdt",
            "label": "members",
            "offset": 0,
            "slot": "0",
            "type": "t_mapping(t_address,t_bool)"
          },
          {
            "astId": 33,
            "contract": "contracts/StrategyArrakisUsdcUsdt.sol:StrategyArrakisUsdcUsdt",
            "label": "adminRole",
            "offset": 0,
            "slot": "1",
            "type": "t_bytes32"
          }
        ],
        "numberOfBytes": "64"
      },
      "t_uint24": {
        "encoding": "inplace",
        "label": "uint24",
        "numberOfBytes": "3"
      },
      "t_uint256": {
        "encoding": "inplace",
        "label": "uint256",
        "numberOfBytes": "32"
      },
      "t_uint8": {
        "encoding": "inplace",
        "label": "uint8",
        "numberOfBytes": "1"
      }
    }
  }
}