{
  "address": "0xDCbf5A96452638488edbDa18449b6245B065Ebea",
  "abi": [
    {
      "inputs": [],
      "stateMutability": "nonpayable",
      "type": "constructor"
    },
    {
      "anonymous": false,
      "inputs": [
        {
          "indexed": false,
          "internalType": "address",
          "name": "previousAdmin",
          "type": "address"
        },
        {
          "indexed": false,
          "internalType": "address",
          "name": "newAdmin",
          "type": "address"
        }
      ],
      "name": "AdminChanged",
      "type": "event"
    },
    {
      "anonymous": false,
      "inputs": [
        {
          "indexed": true,
          "internalType": "address",
          "name": "beacon",
          "type": "address"
        }
      ],
      "name": "BeaconUpgraded",
      "type": "event"
    },
    {
      "anonymous": false,
      "inputs": [
        {
          "indexed": false,
          "internalType": "uint8",
          "name": "version",
          "type": "uint8"
        }
      ],
      "name": "Initialized",
      "type": "event"
    },
    {
      "anonymous": false,
      "inputs": [
        {
          "indexed": false,
          "internalType": "address",
          "name": "value",
          "type": "address"
        }
      ],
      "name": "PortfolioManagerUpdated",
      "type": "event"
    },
    {
      "anonymous": false,
      "inputs": [
        {
          "indexed": false,
          "internalType": "uint256",
          "name": "amount",
          "type": "uint256"
        }
      ],
      "name": "Reward",
      "type": "event"
    },
    {
      "anonymous": false,
      "inputs": [
        {
          "indexed": true,
          "internalType": "bytes32",
          "name": "role",
          "type": "bytes32"
        },
        {
          "indexed": true,
          "internalType": "bytes32",
          "name": "previousAdminRole",
          "type": "bytes32"
        },
        {
          "indexed": true,
          "internalType": "bytes32",
          "name": "newAdminRole",
          "type": "bytes32"
        }
      ],
      "name": "RoleAdminChanged",
      "type": "event"
    },
    {
      "anonymous": false,
      "inputs": [
        {
          "indexed": true,
          "internalType": "bytes32",
          "name": "role",
          "type": "bytes32"
        },
        {
          "indexed": true,
          "internalType": "address",
          "name": "account",
          "type": "address"
        },
        {
          "indexed": true,
          "internalType": "address",
          "name": "sender",
          "type": "address"
        }
      ],
      "name": "RoleGranted",
      "type": "event"
    },
    {
      "anonymous": false,
      "inputs": [
        {
          "indexed": true,
          "internalType": "bytes32",
          "name": "role",
          "type": "bytes32"
        },
        {
          "indexed": true,
          "internalType": "address",
          "name": "account",
          "type": "address"
        },
        {
          "indexed": true,
          "internalType": "address",
          "name": "sender",
          "type": "address"
        }
      ],
      "name": "RoleRevoked",
      "type": "event"
    },
    {
      "anonymous": false,
      "inputs": [
        {
          "indexed": false,
          "internalType": "uint256",
          "name": "swapSlippageBP",
          "type": "uint256"
        },
        {
          "indexed": false,
          "internalType": "uint256",
          "name": "navSlippageBP",
          "type": "uint256"
        }
      ],
      "name": "SlippagesUpdated",
      "type": "event"
    },
    {
      "anonymous": false,
      "inputs": [
        {
          "indexed": false,
          "internalType": "uint256",
          "name": "amount",
          "type": "uint256"
        }
      ],
      "name": "Stake",
      "type": "event"
    },
    {
      "anonymous": false,
      "inputs": [],
      "name": "StrategyUpdatedParams",
      "type": "event"
    },
    {
      "anonymous": false,
      "inputs": [
        {
          "indexed": false,
          "internalType": "uint256",
          "name": "amount",
          "type": "uint256"
        },
        {
          "indexed": false,
          "internalType": "uint256",
          "name": "amountReceived",
          "type": "uint256"
        }
      ],
      "name": "Unstake",
      "type": "event"
    },
    {
      "anonymous": false,
      "inputs": [
        {
          "indexed": true,
          "internalType": "address",
          "name": "implementation",
          "type": "address"
        }
      ],
      "name": "Upgraded",
      "type": "event"
    },
    {
      "inputs": [],
      "name": "DEFAULT_ADMIN_ROLE",
      "outputs": [
        {
          "internalType": "bytes32",
          "name": "",
          "type": "bytes32"
        }
      ],
      "stateMutability": "view",
      "type": "function"
    },
    {
      "inputs": [],
      "name": "PORTFOLIO_AGENT_ROLE",
      "outputs": [
        {
          "internalType": "bytes32",
          "name": "",
          "type": "bytes32"
        }
      ],
      "stateMutability": "view",
      "type": "function"
    },
    {
      "inputs": [],
      "name": "PORTFOLIO_MANAGER",
      "outputs": [
        {
          "internalType": "bytes32",
          "name": "",
          "type": "bytes32"
        }
      ],
      "stateMutability": "view",
      "type": "function"
    },
    {
      "inputs": [],
      "name": "aUsdcPoolId",
      "outputs": [
        {
          "internalType": "bytes32",
          "name": "",
          "type": "bytes32"
        }
      ],
      "stateMutability": "view",
      "type": "function"
    },
    {
      "inputs": [],
      "name": "allowedSlippageBp",
      "outputs": [
        {
          "internalType": "uint256",
          "name": "",
          "type": "uint256"
        }
      ],
      "stateMutability": "view",
      "type": "function"
    },
    {
      "inputs": [],
      "name": "bbaDai",
      "outputs": [
        {
          "internalType": "contract BptToken",
          "name": "",
          "type": "address"
        }
      ],
      "stateMutability": "view",
      "type": "function"
    },
    {
      "inputs": [],
      "name": "bbaUsdc",
      "outputs": [
        {
          "internalType": "contract BptToken",
          "name": "",
          "type": "address"
        }
      ],
      "stateMutability": "view",
      "type": "function"
    },
    {
      "inputs": [],
      "name": "bbaUsdt",
      "outputs": [
        {
          "internalType": "contract BptToken",
          "name": "",
          "type": "address"
        }
      ],
      "stateMutability": "view",
      "type": "function"
    },
    {
      "inputs": [],
      "name": "bpt",
      "outputs": [
        {
          "internalType": "contract BptToken",
          "name": "",
          "type": "address"
        }
      ],
      "stateMutability": "view",
      "type": "function"
    },
    {
      "inputs": [],
      "name": "bptGauge",
      "outputs": [
        {
          "internalType": "contract IERC20",
          "name": "",
          "type": "address"
        }
      ],
      "stateMutability": "view",
      "type": "function"
    },
    {
      "inputs": [
        {
          "internalType": "address",
          "name": "_to",
          "type": "address"
        }
      ],
      "name": "claimRewards",
      "outputs": [
        {
          "internalType": "uint256",
          "name": "",
          "type": "uint256"
        }
      ],
      "stateMutability": "nonpayable",
      "type": "function"
    },
    {
      "inputs": [],
      "name": "gauge",
      "outputs": [
        {
          "internalType": "contract IGaugeBeethoven",
          "name": "",
          "type": "address"
        }
      ],
      "stateMutability": "view",
      "type": "function"
    },
    {
      "inputs": [
        {
          "internalType": "bytes32",
          "name": "role",
          "type": "bytes32"
        }
      ],
      "name": "getRoleAdmin",
      "outputs": [
        {
          "internalType": "bytes32",
          "name": "",
          "type": "bytes32"
        }
      ],
      "stateMutability": "view",
      "type": "function"
    },
    {
      "inputs": [
        {
          "internalType": "bytes32",
          "name": "role",
          "type": "bytes32"
        },
        {
          "internalType": "address",
          "name": "account",
          "type": "address"
        }
      ],
      "name": "grantRole",
      "outputs": [],
      "stateMutability": "nonpayable",
      "type": "function"
    },
    {
      "inputs": [
        {
          "internalType": "bytes32",
          "name": "role",
          "type": "bytes32"
        },
        {
          "internalType": "address",
          "name": "account",
          "type": "address"
        }
      ],
      "name": "hasRole",
      "outputs": [
        {
          "internalType": "bool",
          "name": "",
          "type": "bool"
        }
      ],
      "stateMutability": "view",
      "type": "function"
    },
    {
      "inputs": [
        {
          "internalType": "uint256",
          "name": "_swapSlippageBP",
          "type": "uint256"
        },
        {
          "internalType": "uint256",
          "name": "_navSlippageBP",
          "type": "uint256"
        }
      ],
      "name": "initSlippages",
      "outputs": [],
      "stateMutability": "nonpayable",
      "type": "function"
    },
    {
      "inputs": [],
      "name": "initialize",
      "outputs": [],
      "stateMutability": "nonpayable",
      "type": "function"
    },
    {
      "inputs": [],
      "name": "liquidationValue",
      "outputs": [
        {
          "internalType": "uint256",
          "name": "",
          "type": "uint256"
        }
      ],
      "stateMutability": "view",
      "type": "function"
    },
    {
      "inputs": [],
      "name": "navSlippageBP",
      "outputs": [
        {
          "internalType": "uint256",
          "name": "",
          "type": "uint256"
        }
      ],
      "stateMutability": "view",
      "type": "function"
    },
    {
      "inputs": [],
      "name": "netAssetValue",
      "outputs": [
        {
          "internalType": "uint256",
          "name": "",
          "type": "uint256"
        }
      ],
      "stateMutability": "view",
      "type": "function"
    },
    {
      "inputs": [],
      "name": "op",
      "outputs": [
        {
          "internalType": "contract IERC20",
          "name": "",
          "type": "address"
        }
      ],
      "stateMutability": "view",
      "type": "function"
    },
    {
      "inputs": [],
      "name": "oracleDai",
      "outputs": [
        {
          "internalType": "contract IPriceFeed",
          "name": "",
          "type": "address"
        }
      ],
      "stateMutability": "view",
      "type": "function"
    },
    {
      "inputs": [],
      "name": "oracleUsdc",
      "outputs": [
        {
          "internalType": "contract IPriceFeed",
          "name": "",
          "type": "address"
        }
      ],
      "stateMutability": "view",
      "type": "function"
    },
    {
      "inputs": [],
      "name": "oracleUsdt",
      "outputs": [
        {
          "internalType": "contract IPriceFeed",
          "name": "",
          "type": "address"
        }
      ],
      "stateMutability": "view",
      "type": "function"
    },
    {
      "inputs": [],
      "name": "portfolioManager",
      "outputs": [
        {
          "internalType": "address",
          "name": "",
          "type": "address"
        }
      ],
      "stateMutability": "view",
      "type": "function"
    },
    {
      "inputs": [],
      "name": "proxiableUUID",
      "outputs": [
        {
          "internalType": "bytes32",
          "name": "",
          "type": "bytes32"
        }
      ],
      "stateMutability": "view",
      "type": "function"
    },
    {
      "inputs": [
        {
          "internalType": "bytes32",
          "name": "role",
          "type": "bytes32"
        },
        {
          "internalType": "address",
          "name": "account",
          "type": "address"
        }
      ],
      "name": "renounceRole",
      "outputs": [],
      "stateMutability": "nonpayable",
      "type": "function"
    },
    {
      "inputs": [
        {
          "internalType": "bytes32",
          "name": "role",
          "type": "bytes32"
        },
        {
          "internalType": "address",
          "name": "account",
          "type": "address"
        }
      ],
      "name": "revokeRole",
      "outputs": [],
      "stateMutability": "nonpayable",
      "type": "function"
    },
    {
      "inputs": [
        {
          "components": [
            {
              "internalType": "address",
              "name": "usdc",
              "type": "address"
            },
            {
              "internalType": "address",
              "name": "bbaUsdc",
              "type": "address"
            },
            {
              "internalType": "address",
              "name": "bbaUsdt",
              "type": "address"
            },
            {
              "internalType": "address",
              "name": "bbaDai",
              "type": "address"
            },
            {
              "internalType": "address",
              "name": "bpt",
              "type": "address"
            },
            {
              "internalType": "address",
              "name": "bptGauge",
              "type": "address"
            },
            {
              "internalType": "address",
              "name": "vault",
              "type": "address"
            },
            {
              "internalType": "bytes32",
              "name": "aUsdcPoolId",
              "type": "bytes32"
            },
            {
              "internalType": "bytes32",
              "name": "stablePoolId",
              "type": "bytes32"
            },
            {
              "internalType": "address",
              "name": "gauge",
              "type": "address"
            },
            {
              "internalType": "address",
              "name": "oracleDai",
              "type": "address"
            },
            {
              "internalType": "address",
              "name": "oracleUsdt",
              "type": "address"
            },
            {
              "internalType": "address",
              "name": "oracleUsdc",
              "type": "address"
            },
            {
              "internalType": "address",
              "name": "op",
              "type": "address"
            },
            {
              "internalType": "address",
              "name": "sonne",
              "type": "address"
            },
            {
              "internalType": "address",
              "name": "velodromeRouter",
              "type": "address"
            }
          ],
          "internalType": "struct StrategyBeethovenxSonne.StrategyParams",
          "name": "params",
          "type": "tuple"
        }
      ],
      "name": "setParams",
      "outputs": [],
      "stateMutability": "nonpayable",
      "type": "function"
    },
    {
      "inputs": [
        {
          "internalType": "address",
          "name": "_value",
          "type": "address"
        }
      ],
      "name": "setPortfolioManager",
      "outputs": [],
      "stateMutability": "nonpayable",
      "type": "function"
    },
    {
      "inputs": [
        {
          "internalType": "uint256",
          "name": "_swapSlippageBP",
          "type": "uint256"
        },
        {
          "internalType": "uint256",
          "name": "_navSlippageBP",
          "type": "uint256"
        }
      ],
      "name": "setSlippages",
      "outputs": [],
      "stateMutability": "nonpayable",
      "type": "function"
    },
    {
      "inputs": [],
      "name": "sonne",
      "outputs": [
        {
          "internalType": "contract IERC20",
          "name": "",
          "type": "address"
        }
      ],
      "stateMutability": "view",
      "type": "function"
    },
    {
      "inputs": [],
      "name": "stablePoolId",
      "outputs": [
        {
          "internalType": "bytes32",
          "name": "",
          "type": "bytes32"
        }
      ],
      "stateMutability": "view",
      "type": "function"
    },
    {
      "inputs": [
        {
          "internalType": "address",
          "name": "_asset",
          "type": "address"
        },
        {
          "internalType": "uint256",
          "name": "_amount",
          "type": "uint256"
        }
      ],
      "name": "stake",
      "outputs": [],
      "stateMutability": "nonpayable",
      "type": "function"
    },
    {
      "inputs": [
        {
          "internalType": "bytes4",
          "name": "interfaceId",
          "type": "bytes4"
        }
      ],
      "name": "supportsInterface",
      "outputs": [
        {
          "internalType": "bool",
          "name": "",
          "type": "bool"
        }
      ],
      "stateMutability": "view",
      "type": "function"
    },
    {
      "inputs": [],
      "name": "swapSlippageBP",
      "outputs": [
        {
          "internalType": "uint256",
          "name": "",
          "type": "uint256"
        }
      ],
      "stateMutability": "view",
      "type": "function"
    },
    {
      "inputs": [],
      "name": "swapSlippageBp",
      "outputs": [
        {
          "internalType": "uint256",
          "name": "",
          "type": "uint256"
        }
      ],
      "stateMutability": "view",
      "type": "function"
    },
    {
      "inputs": [
        {
          "internalType": "address",
          "name": "_asset",
          "type": "address"
        },
        {
          "internalType": "uint256",
          "name": "_amount",
          "type": "uint256"
        },
        {
          "internalType": "address",
          "name": "_beneficiary",
          "type": "address"
        },
        {
          "internalType": "bool",
          "name": "_targetIsZero",
          "type": "bool"
        }
      ],
      "name": "unstake",
      "outputs": [
        {
          "internalType": "uint256",
          "name": "",
          "type": "uint256"
        }
      ],
      "stateMutability": "nonpayable",
      "type": "function"
    },
    {
      "inputs": [
        {
          "internalType": "address",
          "name": "newImplementation",
          "type": "address"
        }
      ],
      "name": "upgradeTo",
      "outputs": [],
      "stateMutability": "nonpayable",
      "type": "function"
    },
    {
      "inputs": [
        {
          "internalType": "address",
          "name": "newImplementation",
          "type": "address"
        },
        {
          "internalType": "bytes",
          "name": "data",
          "type": "bytes"
        }
      ],
      "name": "upgradeToAndCall",
      "outputs": [],
      "stateMutability": "payable",
      "type": "function"
    },
    {
      "inputs": [],
      "name": "usdc",
      "outputs": [
        {
          "internalType": "contract IERC20",
          "name": "",
          "type": "address"
        }
      ],
      "stateMutability": "view",
      "type": "function"
    },
    {
      "inputs": [],
      "name": "vault",
      "outputs": [
        {
          "internalType": "contract IVault",
          "name": "",
          "type": "address"
        }
      ],
      "stateMutability": "view",
      "type": "function"
    },
    {
      "inputs": [],
      "name": "velodromeRouter",
      "outputs": [
        {
          "internalType": "contract IRouter",
          "name": "",
          "type": "address"
        }
      ],
      "stateMutability": "view",
      "type": "function"
    }
  ],
  "numDeployments": 2,
  "solcInputHash": "754041d67ac54ecd52fc3fae1d661942",
  "bytecode": "0x60a06040523060601b6080523480156200001857600080fd5b50600054610100900460ff16158080156200003a5750600054600160ff909116105b806200006a575062000057306200014460201b6200174b1760201c565b1580156200006a575060005460ff166001145b620000d25760405162461bcd60e51b815260206004820152602e60248201527f496e697469616c697a61626c653a20636f6e747261637420697320616c72656160448201526d191e481a5b9a5d1a585b1a5e995960921b606482015260840160405180910390fd5b6000805460ff191660011790558015620000f6576000805461ff0019166101001790555b80156200013d576000805461ff0019169055604051600181527f7f26b83ff96e1f2b6a682f133852f6798a09c465da95921460cefb38474024989060200160405180910390a15b5062000153565b6001600160a01b03163b151590565b60805160601c6149fc6200018e6000396000818161091101528181610951015281816109f101528181610a310152610ddf01526149fc6000f3fe60806040526004361061025c5760003560e01c80636d0acda311610144578063adc9772e116100b6578063d15ea99a1161007a578063d15ea99a146106de578063d547741f146106ff578063ec1f1f691461071f578063ef5cfb8c14610740578063f6f6b88114610760578063fbfa77cf1461078057600080fd5b8063adc9772e14610645578063b2d5ad5314610665578063bf52e08014610686578063c0c2ae501461069c578063cc6522c3146106bd57600080fd5b80638547598a116101085780638547598a146105b857806391d14854146105cf578063a217fddf146105ef578063a3673b381461030c578063a440b21a14610604578063a6f19c841461062457600080fd5b80636d0acda3146105325780637d5f5802146105495780637fe7cc1e1461056b5780638129fc1c1461058257806381d4fdfd1461059757600080fd5b80634f1ef286116101dd5780635dbd733a116101a15780635dbd733a146104655780635f07c5f3146104995780635fea9cbb146104ba578063620b75df146104db57806366e0fd9a146104fb5780636b42c5761461051257600080fd5b80634f1ef286146103db57806350e2fe49146103ee57806350f851011461040f57806352d1902d1461042f578063546af3c31461044457600080fd5b80632f2ff15d116102245780632f2ff15d1461032157806336568abe146103415780633659cfe614610361578063366ac47c146103815780633e413bee146103ba57600080fd5b806301ffc9a714610261578063119cd8791461029657806318bc0faa146102ba578063248a9ca3146102dc5780632576e65a1461030c575b600080fd5b34801561026d57600080fd5b5061028161027c36600461415a565b6107a1565b60405190151581526020015b60405180910390f35b3480156102a257600080fd5b506102ac60fd5481565b60405190815260200161028d565b3480156102c657600080fd5b506102da6102d536600461419d565b6107d8565b005b3480156102e857600080fd5b506102ac6102f73660046140f8565b60009081526065602052604090206001015490565b34801561031857600080fd5b506102ac61084f565b34801561032d57600080fd5b506102da61033c36600461412a565b61085e565b34801561034d57600080fd5b506102da61035c36600461412a565b610888565b34801561036d57600080fd5b506102da61037c366004613df5565b610906565b34801561038d57600080fd5b5061013c546103a2906001600160a01b031681565b6040516001600160a01b03909116815260200161028d565b3480156103c657600080fd5b5061012d546103a2906001600160a01b031681565b6102da6103e9366004613e12565b6109e6565b3480156103fa57600080fd5b5061012f546103a2906001600160a01b031681565b34801561041b57600080fd5b506102da61042a366004614184565b610ab3565b34801561043b57600080fd5b506102ac610dd2565b34801561045057600080fd5b50610131546103a2906001600160a01b031681565b34801561047157600080fd5b506102ac7fd67ad422505496469a1adf6cdf9e5ee92ac5d33992843c9ecc4b2f6d6cde913781565b3480156104a557600080fd5b50610137546103a2906001600160a01b031681565b3480156104c657600080fd5b50610139546103a2906001600160a01b031681565b3480156104e757600080fd5b5060fb546103a2906001600160a01b031681565b34801561050757600080fd5b506102ac6101355481565b34801561051e57600080fd5b506102da61052d36600461419d565b610e85565b34801561053e57600080fd5b506102ac6101345481565b34801561055557600080fd5b506102ac60008051602061496083398151915281565b34801561057757600080fd5b506102ac61013e5481565b34801561058e57600080fd5b506102da610fad565b3480156105a357600080fd5b50610130546103a2906001600160a01b031681565b3480156105c457600080fd5b506102ac61013d5481565b3480156105db57600080fd5b506102816105ea36600461412a565b611077565b3480156105fb57600080fd5b506102ac600081565b34801561061057600080fd5b506102da61061f366004613df5565b6110a2565b34801561063057600080fd5b50610136546103a2906001600160a01b031681565b34801561065157600080fd5b506102da610660366004613eba565b6111aa565b34801561067157600080fd5b50610132546103a2906001600160a01b031681565b34801561069257600080fd5b506102ac60fc5481565b3480156106a857600080fd5b5061013b546103a2906001600160a01b031681565b3480156106c957600080fd5b50610138546103a2906001600160a01b031681565b3480156106ea57600080fd5b5061012e546103a2906001600160a01b031681565b34801561070b57600080fd5b506102da61071a36600461412a565b6113d9565b34801561072b57600080fd5b5061013a546103a2906001600160a01b031681565b34801561074c57600080fd5b506102ac61075b366004613df5565b6113fe565b34801561076c57600080fd5b506102ac61077b366004613ee6565b611480565b34801561078c57600080fd5b50610133546103a2906001600160a01b031681565b60006001600160e01b03198216637965db0b60e01b14806107d257506301ffc9a760e01b6001600160e01b03198316145b92915050565b6107e3600033611077565b6108085760405162461bcd60e51b81526004016107ff906145c6565b60405180910390fd5b60fc82905560fd81905560408051838152602081018390527fce5a32eeae390ce399fd83b29e4bee51b2b1a5898dc3575411e3a498f4f552a0910160405180910390a15050565b600061085961175a565b905090565b6000828152606560205260409020600101546108798161186d565b6108838383611877565b505050565b6001600160a01b03811633146108f85760405162461bcd60e51b815260206004820152602f60248201527f416363657373436f6e74726f6c3a2063616e206f6e6c792072656e6f756e636560448201526e103937b632b9903337b91039b2b63360891b60648201526084016107ff565b61090282826118fd565b5050565b306001600160a01b037f000000000000000000000000000000000000000000000000000000000000000016141561094f5760405162461bcd60e51b81526004016107ff906144e0565b7f00000000000000000000000000000000000000000000000000000000000000006001600160a01b0316610998600080516020614980833981519152546001600160a01b031690565b6001600160a01b0316146109be5760405162461bcd60e51b81526004016107ff9061452c565b6109c781611964565b604080516000808252602082019092526109e39183919061196f565b50565b306001600160a01b037f0000000000000000000000000000000000000000000000000000000000000000161415610a2f5760405162461bcd60e51b81526004016107ff906144e0565b7f00000000000000000000000000000000000000000000000000000000000000006001600160a01b0316610a78600080516020614980833981519152546001600160a01b031690565b6001600160a01b031614610a9e5760405162461bcd60e51b81526004016107ff9061452c565b610aa782611964565b6109028282600161196f565b610abe600033611077565b610ada5760405162461bcd60e51b81526004016107ff906145c6565b610ae76020820182613df5565b61012d80546001600160a01b0319166001600160a01b0392909216919091179055610b186040820160208301613df5565b61012e80546001600160a01b0319166001600160a01b0392909216919091179055610b496060820160408301613df5565b61012f80546001600160a01b0319166001600160a01b0392909216919091179055610b7a6080820160608301613df5565b61013080546001600160a01b0319166001600160a01b0392909216919091179055610bab60a0820160808301613df5565b61013180546001600160a01b0319166001600160a01b0392909216919091179055610bdc60c0820160a08301613df5565b61013280546001600160a01b0319166001600160a01b0392909216919091179055610c0d60e0820160c08301613df5565b61013380546001600160a01b0319166001600160a01b03929092169190911790556101008101356101355560e081013561013455610c5361014082016101208301613df5565b61013680546001600160a01b0319166001600160a01b0392909216919091179055610c8661016082016101408301613df5565b61013780546001600160a01b0319166001600160a01b0392909216919091179055610cb961018082016101608301613df5565b61013880546001600160a01b0319166001600160a01b0392909216919091179055610cec6101a082016101808301613df5565b61013980546001600160a01b0319166001600160a01b0392909216919091179055610d1f6101c082016101a08301613df5565b61013a80546001600160a01b0319166001600160a01b0392909216919091179055610d526101e082016101c08301613df5565b61013b80546001600160a01b0319166001600160a01b0392909216919091179055610d8561020082016101e08301613df5565b61013c80546001600160a01b0319166001600160a01b03929092169190911790556040517fea5646eb3528e525944447a4a97de700dd472298626e5c0481d1c82c3da86ea590600090a150565b6000306001600160a01b037f00000000000000000000000000000000000000000000000000000000000000001614610e725760405162461bcd60e51b815260206004820152603860248201527f555550535570677261646561626c653a206d757374206e6f742062652063616c60448201527f6c6564207468726f7567682064656c656761746563616c6c000000000000000060648201526084016107ff565b5060008051602061498083398151915290565b610eaf7fd67ad422505496469a1adf6cdf9e5ee92ac5d33992843c9ecc4b2f6d6cde913733611077565b80610f56575060fb54604051632474521560e21b81527fd67ad422505496469a1adf6cdf9e5ee92ac5d33992843c9ecc4b2f6d6cde913760048201523360248201526001600160a01b03909116906391d148549060440160206040518083038186803b158015610f1e57600080fd5b505afa158015610f32573d6000803e3d6000fd5b505050506040513d601f19601f82011682018060405250810190610f5691906140db565b6108085760405162461bcd60e51b815260206004820152602260248201527f5265737472696374656420746f20504f5254464f4c494f5f4147454e545f524f6044820152614c4560f01b60648201526084016107ff565b600054610100900460ff1615808015610fcd5750600054600160ff909116105b80610fe75750303b158015610fe7575060005460ff166001145b6110035760405162461bcd60e51b81526004016107ff90614578565b6000805460ff191660011790558015611026576000805461ff0019166101001790555b61102e611ae9565b80156109e3576000805461ff0019169055604051600181527f7f26b83ff96e1f2b6a682f133852f6798a09c465da95921460cefb3847402498906020015b60405180910390a150565b60009182526065602090815260408084206001600160a01b0393909316845291905290205460ff1690565b6110ad600033611077565b6110c95760405162461bcd60e51b81526004016107ff906145c6565b6001600160a01b03811661111f5760405162461bcd60e51b815260206004820152601860248201527f5a65726f2061646472657373206e6f7420616c6c6f776564000000000000000060448201526064016107ff565b60fb5461114490600080516020614960833981519152906001600160a01b03166113d9565b61115c6000805160206149608339815191528261085e565b60fb80546001600160a01b0319166001600160a01b0383169081179091556040519081527ff7b449fcd5cfb7379dcd34cb69428dd9f882033b15be33d83b42d91daa28eeb79060200161106c565b6111c260008051602061496083398151915233611077565b6111de5760405162461bcd60e51b81526004016107ff906144a9565b600061125c306001600160a01b031663a3673b386040518163ffffffff1660e01b815260040160206040518083038186803b15801561121c57600080fd5b505afa158015611230573d6000803e3d6000fd5b505050506040513d601f19601f820116820180604052508101906112549190614111565b60fd54611bc9565b6040516370a0823160e01b81523060048201529091506112e19084906001600160a01b038216906370a082319060240160206040518083038186803b1580156112a457600080fd5b505afa1580156112b8573d6000803e3d6000fd5b505050506040513d601f19601f820116820180604052508101906112dc9190614111565b611bf3565b80306001600160a01b031663a3673b386040518163ffffffff1660e01b815260040160206040518083038186803b15801561131b57600080fd5b505afa15801561132f573d6000803e3d6000fd5b505050506040513d601f19601f820116820180604052508101906113539190614111565b10156113a15760405162461bcd60e51b815260206004820152601f60248201527f5374726174656779204e4156206c657373207468616e2065787065637465640060448201526064016107ff565b6040518281527f227a473b70d2f893cc7659219575c030a63b5743024fe1e0c1a680e708b1525a9060200160405180910390a1505050565b6000828152606560205260409020600101546113f48161186d565b61088383836118fd565b600061141860008051602061496083398151915233611077565b6114345760405162461bcd60e51b81526004016107ff906144a9565b600061143f8361226e565b905080156107d2576040518181527f3ac0594a85a20354f9dc74f33728416d19ce00d04a406c108cc2dcf2cecea1349060200160405180910390a192915050565b600061149a60008051602061496083398151915233611077565b6114b65760405162461bcd60e51b81526004016107ff906144a9565b60006114f4306001600160a01b031663a3673b386040518163ffffffff1660e01b815260040160206040518083038186803b15801561121c57600080fd5b9050600080841561151b576115088661226e565b90506115148887612583565b915061158a565b611526888888612644565b91508682101561158a5760405162461bcd60e51b815260206004820152602960248201527f52657475726e65642076616c7565206c657373207468616e2072657175657374604482015268195908185b5bdd5b9d60ba1b60648201526084016107ff565b82306001600160a01b031663a3673b386040518163ffffffff1660e01b815260040160206040518083038186803b1580156115c457600080fd5b505afa1580156115d8573d6000803e3d6000fd5b505050506040513d601f19601f820116820180604052508101906115fc9190614111565b101561164a5760405162461bcd60e51b815260206004820152601f60248201527f5374726174656779204e4156206c657373207468616e2065787065637465640060448201526064016107ff565b60405163a9059cbb60e01b81526001600160a01b0387811660048301526024820184905289169063a9059cbb90604401602060405180830381600087803b15801561169457600080fd5b505af11580156116a8573d6000803e3d6000fd5b505050506040513d601f19601f820116820180604052508101906116cc91906140db565b5060408051888152602081018490527f9045c2ac9b2026de8075f2701bbdde882cd5e830b3b1ead9a15b22f2b5b93742910160405180910390a18015611740576040518181527f3ac0594a85a20354f9dc74f33728416d19ce00d04a406c108cc2dcf2cecea1349060200160405180910390a15b509695505050505050565b6001600160a01b03163b151590565b610136546040516370a0823160e01b815230600482015260009182916001600160a01b03909116906370a082319060240160206040518083038186803b1580156117a357600080fd5b505afa1580156117b7573d6000803e3d6000fd5b505050506040513d601f19601f820116820180604052508101906117db9190614111565b9050806118645761012d546040516370a0823160e01b81523060048201526001600160a01b03909116906370a082319060240160206040518083038186803b15801561182657600080fd5b505afa15801561183a573d6000803e3d6000fd5b505050506040513d601f19601f8201168201806040525081019061185e9190614111565b91505090565b61185e81612686565b6109e38133612c72565b6118818282611077565b6109025760008281526065602090815260408083206001600160a01b03851684529091529020805460ff191660011790556118b93390565b6001600160a01b0316816001600160a01b0316837f2f8788117e7eff1d82e926ec794901d17c78024a50270940304540a733656f0d60405160405180910390a45050565b6119078282611077565b156109025760008281526065602090815260408083206001600160a01b0385168085529252808320805460ff1916905551339285917ff6391f5c32d9c69d2a47ea670b442974b53935d1edc7fd64eb21e047a839171b9190a45050565b60006109028161186d565b7f4910fdfa16fed3260ed0e7147f7cc6da11a60208b5b9406d12a635614ffd91435460ff16156119a25761088383612ccb565b826001600160a01b03166352d1902d6040518163ffffffff1660e01b815260040160206040518083038186803b1580156119db57600080fd5b505afa925050508015611a0b575060408051601f3d908101601f19168201909252611a0891810190614111565b60015b611a6e5760405162461bcd60e51b815260206004820152602e60248201527f45524331393637557067726164653a206e657720696d706c656d656e7461746960448201526d6f6e206973206e6f74205555505360901b60648201526084016107ff565b6000805160206149808339815191528114611add5760405162461bcd60e51b815260206004820152602960248201527f45524331393637557067726164653a20756e737570706f727465642070726f786044820152681a58589b195555525160ba1b60648201526084016107ff565b50610883838383612d67565b600054610100900460ff1615808015611b095750600054600160ff909116105b80611b235750303b158015611b23575060005460ff166001145b611b3f5760405162461bcd60e51b81526004016107ff90614578565b6000805460ff191660011790558015611b62576000805461ff0019166101001790555b611b6a612d92565b611b72612d92565b611b7d600033611877565b601460fc81905560fd5580156109e3576000805461ff0019169055604051600181527f7f26b83ff96e1f2b6a682f133852f6798a09c465da95921460cefb38474024989060200161106c565b6000612710611bd88382614852565b611be29085614833565b611bec9190614811565b9392505050565b61012d546001600160a01b03838116911614611c215760405162461bcd60e51b81526004016107ff906145f4565b61012d546040516370a0823160e01b81523060048201526000916001600160a01b0316906370a082319060240160206040518083038186803b158015611c6657600080fd5b505afa158015611c7a573d6000803e3d6000fd5b505050506040513d601f19601f82011682018060405250810190611c9e9190614111565b90506000611d5561012e60009054906101000a90046001600160a01b03166001600160a01b031663679aefce6040518163ffffffff1660e01b815260040160206040518083038186803b158015611cf457600080fd5b505afa158015611d08573d6000803e3d6000fd5b505050506040513d601f19601f82011682018060405250810190611d2c9190614111565b611d43846c0c9f2c9cd04674edea40000000614833565b611d4d9190614811565b60fc54611bc9565b610133546101345461012d5461012e54939450611d88936001600160a01b03938416936000928116911630808989612dff565b506101335461013554604051631f29a8cd60e31b81526004810191909152600091829182916001600160a01b03169063f94d46689060240160006040518083038186803b158015611dd857600080fd5b505afa158015611dec573d6000803e3d6000fd5b505050506040513d6000823e601f3d908101601f19168201604052611e149190810190613f39565b60408051600480825260a0820190925293965091945092506000919060208201608080368337505060408051600480825260a0820190925292935060009291506020820160808036833750506040805160038082526080820190925292935060009291506020820160608036833701905050905060005b8651811015611eea57868181518110611ea657611ea6614910565b6020026020010151848281518110611ec057611ec0614910565b6001600160a01b039092166020928302919091019091015280611ee2816148ac565b915050611e8b565b5061012e546040516370a0823160e01b81523060048201526000916001600160a01b0316906370a082319060240160206040518083038186803b158015611f3057600080fd5b505afa158015611f44573d6000803e3d6000fd5b505050506040513d601f19601f82011682018060405250810190611f689190614111565b90508083600381518110611f7e57611f7e614910565b6020026020010181815250508082600281518110611f9e57611f9e614910565b6020026020010181815250506000600190506000600190506000828583604051602001611fcd939291906146e6565b60408051808303601f19018152608083018252898352602083018990528282018190526000606084015261012e5461013354925163095ea7b360e01b81526001600160a01b03938416600482015260248101899052919450919091169063095ea7b390604401602060405180830381600087803b15801561204d57600080fd5b505af1158015612061573d6000803e3d6000fd5b505050506040513d601f19601f8201168201806040525081019061208591906140db565b50610133546101355460405163172b958560e31b81526001600160a01b039092169163b95cac28916120bf91309081908790600401614373565b600060405180830381600087803b1580156120d957600080fd5b505af11580156120ed573d6000803e3d6000fd5b5050610131546040516370a0823160e01b8152306004820152600093506001600160a01b0390911691506370a082319060240160206040518083038186803b15801561213857600080fd5b505afa15801561214c573d6000803e3d6000fd5b505050506040513d601f19601f820116820180604052508101906121709190614111565b610131546101365460405163095ea7b360e01b81526001600160a01b03918216600482015260248101849052929350169063095ea7b390604401602060405180830381600087803b1580156121c457600080fd5b505af11580156121d8573d6000803e3d6000fd5b505050506040513d601f19601f820116820180604052508101906121fc91906140db565b506101365460405163b6b55f2560e01b8152600481018390526001600160a01b039091169063b6b55f2590602401600060405180830381600087803b15801561224457600080fd5b505af1158015612258573d6000803e3d6000fd5b5050505050505050505050505050505050505050565b610136546040516370a0823160e01b81523060048201526000916001600160a01b0316906370a082319060240160206040518083038186803b1580156122b357600080fd5b505afa1580156122c7573d6000803e3d6000fd5b505050506040513d601f19601f820116820180604052508101906122eb9190614111565b6122f757506000919050565b61013660009054906101000a90046001600160a01b03166001600160a01b031663e6f1daf26040518163ffffffff1660e01b8152600401600060405180830381600087803b15801561234857600080fd5b505af115801561235c573d6000803e3d6000fd5b505061013a546040516370a0823160e01b8152306004820152600093508392506001600160a01b03909116906370a082319060240160206040518083038186803b1580156123a957600080fd5b505afa1580156123bd573d6000803e3d6000fd5b505050506040513d601f19601f820116820180604052508101906123e19190614111565b61013b546040516370a0823160e01b81523060048201529192506000916001600160a01b03909116906370a082319060240160206040518083038186803b15801561242b57600080fd5b505afa15801561243f573d6000803e3d6000fd5b505050506040513d601f19601f820116820180604052508101906124639190614111565b905081156124a85761013c5461013a5461012d54600092612498926001600160a01b0391821692908216911684878130613063565b90506124a481856147f9565b9350505b80156124eb5761013c5461013b5461012d546000926124db926001600160a01b0391821692908216911684868130613063565b90506124e781856147f9565b9350505b821561257a5761012d5460405163a9059cbb60e01b81526001600160a01b038781166004830152602482018690529091169063a9059cbb90604401602060405180830381600087803b15801561254057600080fd5b505af1158015612554573d6000803e3d6000fd5b505050506040513d601f19601f8201168201806040525081019061257891906140db565b505b50909392505050565b61012d546000906001600160a01b038481169116146125b45760405162461bcd60e51b81526004016107ff906145f4565b610136546040516370a0823160e01b81523060048201526000916001600160a01b0316906370a082319060240160206040518083038186803b1580156125f957600080fd5b505afa15801561260d573d6000803e3d6000fd5b505050506040513d601f19601f820116820180604052508101906126319190614111565b905061263c8161327f565b949350505050565b61012d546000906001600160a01b038581169116146126755760405162461bcd60e51b81526004016107ff906145f4565b61263c61268184613701565b61327f565b60008061013160009054906101000a90046001600160a01b03166001600160a01b031663876f303b6040518163ffffffff1660e01b815260040160206040518083038186803b1580156126d857600080fd5b505afa1580156126ec573d6000803e3d6000fd5b505050506040513d601f19601f820116820180604052508101906127109190614111565b61012d546040516370a0823160e01b81523060048201529192506000916001600160a01b03909116906370a082319060240160206040518083038186803b15801561275a57600080fd5b505afa15801561276e573d6000803e3d6000fd5b505050506040513d601f19601f820116820180604052508101906127929190614111565b6101335461013554604051631f29a8cd60e31b8152929350600092839283926001600160a01b039091169163f94d4668916127d39160040190815260200190565b60006040518083038186803b1580156127eb57600080fd5b505afa1580156127ff573d6000803e3d6000fd5b505050506040513d6000823e601f3d908101601f191682016040526128279190810190613f39565b9194509250905060015b8351811015612c6657600084828151811061284e5761284e614910565b602002602001015190506000878a86858151811061286e5761286e614910565b60200260200101516128809190614833565b61288a9190614811565b61012e549091506001600160a01b03838116911614156129555761012e54604080516333cd77e760e11b815290516c0c9f2c9cd04674edea40000000926001600160a01b03169163679aefce916004808301926020929190829003018186803b1580156128f657600080fd5b505afa15801561290a573d6000803e3d6000fd5b505050506040513d601f19601f8201168201806040525081019061292e9190614111565b6129389083614833565b6129429190614811565b905061294e81886147f9565b9650612c51565b61012f546001600160a01b0383811691161415612b325761012f54604080516333cd77e760e11b815290516c0c9f2c9cd04674edea40000000926001600160a01b03169163679aefce916004808301926020929190829003018186803b1580156129be57600080fd5b505afa1580156129d2573d6000803e3d6000fd5b505050506040513d601f19601f820116820180604052508101906129f69190614111565b612a009083614833565b612a0a9190614811565b9050612b2881620f42408061013860009054906101000a90046001600160a01b03166001600160a01b03166350d25bcd6040518163ffffffff1660e01b815260040160206040518083038186803b158015612a6457600080fd5b505afa158015612a78573d6000803e3d6000fd5b505050506040513d601f19601f82011682018060405250810190612a9c9190614111565b61013960009054906101000a90046001600160a01b03166001600160a01b03166350d25bcd6040518163ffffffff1660e01b815260040160206040518083038186803b158015612aeb57600080fd5b505afa158015612aff573d6000803e3d6000fd5b505050506040513d601f19601f82011682018060405250810190612b239190614111565b613a28565b61294e90886147f9565b610130546001600160a01b0383811691161415612c515761013054604080516333cd77e760e11b81529051670de0b6b3a7640000926001600160a01b03169163679aefce916004808301926020929190829003018186803b158015612b9657600080fd5b505afa158015612baa573d6000803e3d6000fd5b505050506040513d601f19601f82011682018060405250810190612bce9190614111565b612bd89083614833565b612be29190614811565b9050612c4481670de0b6b3a7640000620f424061013760009054906101000a90046001600160a01b03166001600160a01b03166350d25bcd6040518163ffffffff1660e01b815260040160206040518083038186803b158015612a6457600080fd5b612c4e90886147f9565b96505b50508080612c5e906148ac565b915050612831565b50929695505050505050565b612c7c8282611077565b61090257612c8981613a5d565b612c94836020613a6f565b604051602001612ca59291906142fe565b60408051601f198184030181529082905262461bcd60e51b82526107ff91600401614496565b6001600160a01b0381163b612d385760405162461bcd60e51b815260206004820152602d60248201527f455243313936373a206e657720696d706c656d656e746174696f6e206973206e60448201526c1bdd08184818dbdb9d1c9858dd609a1b60648201526084016107ff565b60008051602061498083398151915280546001600160a01b0319166001600160a01b0392909216919091179055565b612d7083613c0b565b600082511180612d7d5750805b1561088357612d8c8383613c4b565b50505050565b600054610100900460ff16612dfd5760405162461bcd60e51b815260206004820152602b60248201527f496e697469616c697a61626c653a20636f6e7472616374206973206e6f74206960448201526a6e697469616c697a696e6760a81b60648201526084016107ff565b565b6040516370a0823160e01b81523060048201526000906001600160a01b0388169063095ea7b3908c9083906370a082319060240160206040518083038186803b158015612e4b57600080fd5b505afa158015612e5f573d6000803e3d6000fd5b505050506040513d601f19601f82011682018060405250810190612e839190614111565b6040516001600160e01b031960e085901b1681526001600160a01b0390921660048301526024820152604401602060405180830381600087803b158015612ec957600080fd5b505af1158015612edd573d6000803e3d6000fd5b505050506040513d601f19601f82011682018060405250810190612f0191906140db565b50612f4e6040805160c0810190915260008082526020820190815260200160006001600160a01b0316815260200160006001600160a01b0316815260200160008152602001606081525090565b89815260208101896001811115612f6757612f676148fa565b90816001811115612f7a57612f7a6148fa565b9052506001600160a01b0388811660408381019190915288821660608085019190915260808085018890528251908101835260006020820181905291810191909152888316815287831691810191909152908c166352bbbe29838387612fe2426102586147f9565b6040518563ffffffff1660e01b8152600401613001949392919061462b565b602060405180830381600087803b15801561301b57600080fd5b505af115801561302f573d6000803e3d6000fd5b505050506040513d601f19601f820116820180604052508101906130539190614111565b9c9b505050505050505050505050565b60405163095ea7b360e01b81526001600160a01b038881166004830152602482018590526000919088169063095ea7b390604401602060405180830381600087803b1580156130b157600080fd5b505af11580156130c5573d6000803e3d6000fd5b505050506040513d601f19601f820116820180604052508101906130e991906140db565b50604080516001808252818301909252600091816020015b6040805160608101825260008082526020808301829052928201528252600019909201910181613101579050509050878160008151811061314457613144614910565b6020026020010151600001906001600160a01b031690816001600160a01b031681525050868160008151811061317c5761317c614910565b6020026020010151602001906001600160a01b031690816001600160a01b03168152505085816000815181106131b4576131b4614910565b602090810291909101015190151560409182015251631e82ecdb60e31b81526000906001600160a01b038b169063f41766d8906131fd908990899087908a90429060040161470f565b600060405180830381600087803b15801561321757600080fd5b505af115801561322b573d6000803e3d6000fd5b505050506040513d6000823e601f3d908101601f1916820160405261325391908101906140a6565b90508060018151811061326857613268614910565b602002602001015192505050979650505050505050565b61013654604051632e1a7d4d60e01b8152600481018390526000916001600160a01b031690632e1a7d4d90602401600060405180830381600087803b1580156132c757600080fd5b505af11580156132db573d6000803e3d6000fd5b5050610131546040516370a0823160e01b8152306004820152600093506001600160a01b0390911691506370a082319060240160206040518083038186803b15801561332657600080fd5b505afa15801561333a573d6000803e3d6000fd5b505050506040513d601f19601f8201168201806040525081019061335e9190614111565b60408051600480825260a082019092529192506000919060208201608080368337505060408051600480825260a08201909252929350600092915060208201608080368337019050506101335461013554604051631f29a8cd60e31b815260048101919091529192506002916000916001600160a01b03169063f94d46689060240160006040518083038186803b1580156133f857600080fd5b505afa15801561340c573d6000803e3d6000fd5b505050506040513d6000823e601f3d908101601f191682016040526134349190810190613f39565b5050905060005b815181101561349a5781818151811061345657613456614910565b602002602001015185828151811061347057613470614910565b6001600160a01b039092166020928302919091019091015280613492816148ac565b91505061343b565b506040805160006020820181905291810187905260608101849052819060800160408051601f19818403018152608083018252888352602083018890528282018190526000606084015261013354610135549251638bdb391360e01b81529194506001600160a01b031691638bdb39139161351e9190309081908790600401614373565b600060405180830381600087803b15801561353857600080fd5b505af115801561354c573d6000803e3d6000fd5b505061012e546040516370a0823160e01b8152306004820152600093506001600160a01b0390911691506370a082319060240160206040518083038186803b15801561359757600080fd5b505afa1580156135ab573d6000803e3d6000fd5b505050506040513d601f19601f820116820180604052508101906135cf9190614111565b905060006136756c0c9f2c9cd04674edea4000000061012e60009054906101000a90046001600160a01b03166001600160a01b031663679aefce6040518163ffffffff1660e01b815260040160206040518083038186803b15801561363357600080fd5b505afa158015613647573d6000803e3d6000fd5b505050506040513d601f19601f8201168201806040525081019061366b9190614111565b611d439085614833565b610133546101345461012e5461012d549394506136a8936001600160a01b03938416936000928116911630808989612dff565b5061012d546040516370a0823160e01b81523060048201526001600160a01b03909116906370a082319060240160206040518083038186803b1580156136ed57600080fd5b505afa15801561302f573d6000803e3d6000fd5b600061370e82600a613d36565b6040805160028082526060820190925291935060009190816020015b61375f6040518060a0016040528060008019168152602001600081526020016000815260200160008152602001606081525090565b81526020019060019003908161372a5790505090506040518060a001604052806101345481526020016000815260200160018152602001848152602001600067ffffffffffffffff8111156137b6576137b6614926565b6040519080825280601f01601f1916602001820160405280156137e0576020820181803683370190505b50815250816000815181106137f7576137f7614910565b60200260200101819052506040518060a00160405280610135548152602001600181526020016002815260200160008152602001600067ffffffffffffffff81111561384557613845614926565b6040519080825280601f01601f19166020018201604052801561386f576020820181803683370190505b508152508160018151811061388657613886614910565b602090810291909101015260408051600380825260808201909252600091816020016020820280368337505061012d5482519293506001600160a01b0316918391506000906138d7576138d7614910565b6001600160a01b03928316602091820292909201015261012e5482519116908290600190811061390957613909614910565b6001600160a01b0392831660209182029290920101526101315482519116908290600290811061393b5761393b614910565b6001600160a01b03928316602091820292909201810191909152604080516080810182523080825260009382018490528183015260608101839052610133549151637c26833760e11b81529093919091169163f84d066e916139a691908790879087906004016143a5565b600060405180830381600087803b1580156139c057600080fd5b505af11580156139d4573d6000803e3d6000fd5b505050506040513d6000823e601f3d908101601f191682016040526139fc919081019061400e565b600281518110613a0e57613a0e614910565b6020026020010151613a1f906148c7565b95945050505050565b6000613a348286614833565b83613a3f8689614833565b613a499190614833565b613a539190614811565b9695505050505050565b60606107d26001600160a01b03831660145b60606000613a7e836002614833565b613a899060026147f9565b67ffffffffffffffff811115613aa157613aa1614926565b6040519080825280601f01601f191660200182016040528015613acb576020820181803683370190505b509050600360fc1b81600081518110613ae657613ae6614910565b60200101906001600160f81b031916908160001a905350600f60fb1b81600181518110613b1557613b15614910565b60200101906001600160f81b031916908160001a9053506000613b39846002614833565b613b449060016147f9565b90505b6001811115613bbc576f181899199a1a9b1b9c1cb0b131b232b360811b85600f1660108110613b7857613b78614910565b1a60f81b828281518110613b8e57613b8e614910565b60200101906001600160f81b031916908160001a90535060049490941c93613bb581614895565b9050613b47565b508315611bec5760405162461bcd60e51b815260206004820181905260248201527f537472696e67733a20686578206c656e67746820696e73756666696369656e7460448201526064016107ff565b613c1481612ccb565b6040516001600160a01b038216907fbc7cd75a20ee27fd9adebab32041f755214dbc6bffa90cc0225b39da2e5c2d3b90600090a250565b60606001600160a01b0383163b613cb35760405162461bcd60e51b815260206004820152602660248201527f416464726573733a2064656c65676174652063616c6c20746f206e6f6e2d636f6044820152651b9d1c9858dd60d21b60648201526084016107ff565b600080846001600160a01b031684604051613cce91906142e2565b600060405180830381855af49150503d8060008114613d09576040519150601f19603f3d011682016040523d82523d6000602084013e613d0e565b606091505b5091509150613a1f82826040518060600160405280602781526020016149a060279139613d45565b6000612710611bd883826147f9565b60608315613d54575081611bec565b611bec8383815115613d695781518083602001fd5b8060405162461bcd60e51b81526004016107ff9190614496565b600082601f830112613d9457600080fd5b81516020613da9613da4836147d5565b6147a4565b80838252828201915082860187848660051b8901011115613dc957600080fd5b60005b85811015613de857815184529284019290840190600101613dcc565b5090979650505050505050565b600060208284031215613e0757600080fd5b8135611bec8161493c565b60008060408385031215613e2557600080fd5b8235613e308161493c565b915060208381013567ffffffffffffffff80821115613e4e57600080fd5b818601915086601f830112613e6257600080fd5b813581811115613e7457613e74614926565b613e86601f8201601f191685016147a4565b91508082528784828501011115613e9c57600080fd5b80848401858401376000848284010152508093505050509250929050565b60008060408385031215613ecd57600080fd5b8235613ed88161493c565b946020939093013593505050565b60008060008060808587031215613efc57600080fd5b8435613f078161493c565b9350602085013592506040850135613f1e8161493c565b91506060850135613f2e81614951565b939692955090935050565b600080600060608486031215613f4e57600080fd5b835167ffffffffffffffff80821115613f6657600080fd5b818601915086601f830112613f7a57600080fd5b81516020613f8a613da4836147d5565b8083825282820191508286018b848660051b8901011115613faa57600080fd5b600096505b84871015613fd6578051613fc28161493c565b835260019690960195918301918301613faf565b5091890151919750909350505080821115613ff057600080fd5b50613ffd86828701613d83565b925050604084015190509250925092565b6000602080838503121561402157600080fd5b825167ffffffffffffffff81111561403857600080fd5b8301601f8101851361404957600080fd5b8051614057613da4826147d5565b80828252848201915084840188868560051b870101111561407757600080fd5b600094505b8385101561409a57805183526001949094019391850191850161407c565b50979650505050505050565b6000602082840312156140b857600080fd5b815167ffffffffffffffff8111156140cf57600080fd5b61263c84828501613d83565b6000602082840312156140ed57600080fd5b8151611bec81614951565b60006020828403121561410a57600080fd5b5035919050565b60006020828403121561412357600080fd5b5051919050565b6000806040838503121561413d57600080fd5b82359150602083013561414f8161493c565b809150509250929050565b60006020828403121561416c57600080fd5b81356001600160e01b031981168114611bec57600080fd5b6000610200828403121561419757600080fd5b50919050565b600080604083850312156141b057600080fd5b50508035926020909101359150565b600081518084526020808501945080840160005b838110156141f85781516001600160a01b0316875295820195908201906001016141d3565b509495945050505050565b600081518084526020808501945080840160005b838110156141f857815187529582019590820190600101614217565b6000815180845261424b816020860160208601614869565b601f01601f19169290920160200192915050565b6002811061427d57634e487b7160e01b600052602160045260246000fd5b9052565b600081516080845261429660808501826141bf565b9050602083015184820360208601526142af8282614203565b915050604083015184820360408601526142c98282614233565b9150506060830151151560608501528091505092915050565b600082516142f4818460208701614869565b9190910192915050565b7f416363657373436f6e74726f6c3a206163636f756e7420000000000000000000815260008351614336816017850160208801614869565b7001034b99036b4b9b9b4b733903937b6329607d1b6017918401918201528351614367816028840160208801614869565b01602801949350505050565b8481526001600160a01b03848116602083015283166040820152608060608201819052600090613a5390830184614281565b600060e082016143b5838861425f565b602060e08185015281875180845261010093508386019150838160051b870101935082890160005b8281101561443f5787860360ff190184528151805187528581015186880152604080820151908801526060808201519088015260809081015160a09188018290529061442b81890183614233565b9750505092840192908401906001016143dd565b5050505050828103604084015261445681866141bf565b915050613a1f606083018480516001600160a01b039081168352602080830151151590840152604080830151909116908301526060908101511515910152565b602081526000611bec6020830184614233565b6020808252601f908201527f5265737472696374656420746f20504f5254464f4c494f5f4d414e4147455200604082015260600190565b6020808252602c908201527f46756e6374696f6e206d7573742062652063616c6c6564207468726f7567682060408201526b19195b1959d85d1958d85b1b60a21b606082015260800190565b6020808252602c908201527f46756e6374696f6e206d7573742062652063616c6c6564207468726f7567682060408201526b6163746976652070726f787960a01b606082015260800190565b6020808252602e908201527f496e697469616c697a61626c653a20636f6e747261637420697320616c72656160408201526d191e481a5b9a5d1a585b1a5e995960921b606082015260800190565b6020808252601490820152735265737472696374656420746f2061646d696e7360601b604082015260600190565b60208082526019908201527f536f6d6520746f6b656e206e6f7420636f6d70617469626c6500000000000000604082015260600190565b60e08152845160e08201526000602086015161464b61010084018261425f565b5060408601516001600160a01b03908116610120840152606087015116610140830152608086015161016083015260a086015160c06101808401526146946101a0840182614233565b9150506146d4602083018680516001600160a01b039081168352602080830151151590840152604080830151909116908301526060908101511515910152565b60a082019390935260c0015292915050565b8381526060602082015260006146ff6060830185614203565b9050826040830152949350505050565b600060a0820187835260208781850152604060a08186015282885180855260c087019150838a01945060005b8181101561477857855180516001600160a01b0390811685528682015116868501528401511515848401529484019460609092019160010161473b565b50506001600160a01b0388166060870152935061479492505050565b8260808301529695505050505050565b604051601f8201601f1916810167ffffffffffffffff811182821017156147cd576147cd614926565b604052919050565b600067ffffffffffffffff8211156147ef576147ef614926565b5060051b60200190565b6000821982111561480c5761480c6148e4565b500190565b60008261482e57634e487b7160e01b600052601260045260246000fd5b500490565b600081600019048311821515161561484d5761484d6148e4565b500290565b600082821015614864576148646148e4565b500390565b60005b8381101561488457818101518382015260200161486c565b83811115612d8c5750506000910152565b6000816148a4576148a46148e4565b506000190190565b60006000198214156148c0576148c06148e4565b5060010190565b6000600160ff1b8214156148dd576148dd6148e4565b5060000390565b634e487b7160e01b600052601160045260246000fd5b634e487b7160e01b600052602160045260246000fd5b634e487b7160e01b600052603260045260246000fd5b634e487b7160e01b600052604160045260246000fd5b6001600160a01b03811681146109e357600080fd5b80151581146109e357600080fdfe90c2aa7471c04182221f68e80c07ab1e5946e4c63f8693e14ca40385d529f051360894a13ba1a3210667c828492db98dca3e2076cc3735a920a3ca505d382bbc416464726573733a206c6f772d6c6576656c2064656c65676174652063616c6c206661696c6564a264697066735822122037eed1eb01a08b548ea2687cbd9041f6e9a759966f8a9d59dfdb6e82709440f864736f6c63430008060033",
  "implementation": "0xBf21CbE292b40347b3691C3187645501fc0E5F97",
  "devdoc": {
    "kind": "dev",
    "methods": {
      "constructor": {
        "custom:oz-upgrades-unsafe-allow": "constructor"
      },
      "getRoleAdmin(bytes32)": {
        "details": "Returns the admin role that controls `role`. See {grantRole} and {revokeRole}. To change a role's admin, use {_setRoleAdmin}."
      },
      "grantRole(bytes32,address)": {
        "details": "Grants `role` to `account`. If `account` had not been already granted `role`, emits a {RoleGranted} event. Requirements: - the caller must have ``role``'s admin role. May emit a {RoleGranted} event."
      },
      "hasRole(bytes32,address)": {
        "details": "Returns `true` if `account` has been granted `role`."
      },
      "proxiableUUID()": {
        "details": "Implementation of the ERC1822 {proxiableUUID} function. This returns the storage slot used by the implementation. It is used to validate the implementation's compatibility when performing an upgrade. IMPORTANT: A proxy pointing at a proxiable contract should not be considered proxiable itself, because this risks bricking a proxy that upgrades to it, by delegating to itself until out of gas. Thus it is critical that this function revert if invoked through a proxy. This is guaranteed by the `notDelegated` modifier."
      },
      "renounceRole(bytes32,address)": {
        "details": "Revokes `role` from the calling account. Roles are often managed via {grantRole} and {revokeRole}: this function's purpose is to provide a mechanism for accounts to lose their privileges if they are compromised (such as when a trusted device is misplaced). If the calling account had been revoked `role`, emits a {RoleRevoked} event. Requirements: - the caller must be `account`. May emit a {RoleRevoked} event."
      },
      "revokeRole(bytes32,address)": {
        "details": "Revokes `role` from `account`. If `account` had been granted `role`, emits a {RoleRevoked} event. Requirements: - the caller must have ``role``'s admin role. May emit a {RoleRevoked} event."
      },
      "supportsInterface(bytes4)": {
        "details": "See {IERC165-supportsInterface}."
      },
      "upgradeTo(address)": {
        "details": "Upgrade the implementation of the proxy to `newImplementation`. Calls {_authorizeUpgrade}. Emits an {Upgraded} event."
      },
      "upgradeToAndCall(address,bytes)": {
        "details": "Upgrade the implementation of the proxy to `newImplementation`, and subsequently execute the function call encoded in `data`. Calls {_authorizeUpgrade}. Emits an {Upgraded} event."
      }
    },
    "version": 1
  },
  "userdoc": {
    "kind": "user",
    "methods": {},
    "version": 1
  },
  "storageLayout": {
    "storage": [
      {
        "astId": 804,
        "contract": "contracts/StrategyBeethovenxSonne.sol:StrategyBeethovenxSonne",
        "label": "_initialized",
        "offset": 0,
        "slot": "0",
        "type": "t_uint8"
      },
      {
        "astId": 807,
        "contract": "contracts/StrategyBeethovenxSonne.sol:StrategyBeethovenxSonne",
        "label": "_initializing",
        "offset": 1,
        "slot": "0",
        "type": "t_bool"
      },
      {
        "astId": 1427,
        "contract": "contracts/StrategyBeethovenxSonne.sol:StrategyBeethovenxSonne",
        "label": "__gap",
        "offset": 0,
        "slot": "1",
        "type": "t_array(t_uint256)50_storage"
      },
      {
        "astId": 1706,
        "contract": "contracts/StrategyBeethovenxSonne.sol:StrategyBeethovenxSonne",
        "label": "__gap",
        "offset": 0,
        "slot": "51",
        "type": "t_array(t_uint256)50_storage"
      },
      {
        "astId": 39,
        "contract": "contracts/StrategyBeethovenxSonne.sol:StrategyBeethovenxSonne",
        "label": "_roles",
        "offset": 0,
        "slot": "101",
        "type": "t_mapping(t_bytes32,t_struct(RoleData)34_storage)"
      },
      {
        "astId": 334,
        "contract": "contracts/StrategyBeethovenxSonne.sol:StrategyBeethovenxSonne",
        "label": "__gap",
        "offset": 0,
        "slot": "102",
        "type": "t_array(t_uint256)49_storage"
      },
      {
        "astId": 786,
        "contract": "contracts/StrategyBeethovenxSonne.sol:StrategyBeethovenxSonne",
        "label": "__gap",
        "offset": 0,
        "slot": "151",
        "type": "t_array(t_uint256)50_storage"
      },
      {
        "astId": 1101,
        "contract": "contracts/StrategyBeethovenxSonne.sol:StrategyBeethovenxSonne",
        "label": "__gap",
        "offset": 0,
        "slot": "201",
        "type": "t_array(t_uint256)50_storage"
      },
      {
        "astId": 11588,
        "contract": "contracts/StrategyBeethovenxSonne.sol:StrategyBeethovenxSonne",
        "label": "portfolioManager",
        "offset": 0,
        "slot": "251",
        "type": "t_address"
      },
      {
        "astId": 11590,
        "contract": "contracts/StrategyBeethovenxSonne.sol:StrategyBeethovenxSonne",
        "label": "swapSlippageBP",
        "offset": 0,
        "slot": "252",
        "type": "t_uint256"
      },
      {
        "astId": 11592,
        "contract": "contracts/StrategyBeethovenxSonne.sol:StrategyBeethovenxSonne",
        "label": "navSlippageBP",
        "offset": 0,
        "slot": "253",
        "type": "t_uint256"
      },
      {
        "astId": 11989,
        "contract": "contracts/StrategyBeethovenxSonne.sol:StrategyBeethovenxSonne",
        "label": "__gap",
        "offset": 0,
        "slot": "254",
        "type": "t_array(t_uint256)47_storage"
      },
      {
        "astId": 13783,
        "contract": "contracts/StrategyBeethovenxSonne.sol:StrategyBeethovenxSonne",
        "label": "usdc",
        "offset": 0,
        "slot": "301",
        "type": "t_contract(IERC20)3249"
      },
      {
        "astId": 13786,
        "contract": "contracts/StrategyBeethovenxSonne.sol:StrategyBeethovenxSonne",
        "label": "bbaUsdc",
        "offset": 0,
        "slot": "302",
        "type": "t_contract(BptToken)6697"
      },
      {
        "astId": 13789,
        "contract": "contracts/StrategyBeethovenxSonne.sol:StrategyBeethovenxSonne",
        "label": "bbaUsdt",
        "offset": 0,
        "slot": "303",
        "type": "t_contract(BptToken)6697"
      },
      {
        "astId": 13792,
        "contract": "contracts/StrategyBeethovenxSonne.sol:StrategyBeethovenxSonne",
        "label": "bbaDai",
        "offset": 0,
        "slot": "304",
        "type": "t_contract(BptToken)6697"
      },
      {
        "astId": 13795,
        "contract": "contracts/StrategyBeethovenxSonne.sol:StrategyBeethovenxSonne",
        "label": "bpt",
        "offset": 0,
        "slot": "305",
        "type": "t_contract(BptToken)6697"
      },
      {
        "astId": 13798,
        "contract": "contracts/StrategyBeethovenxSonne.sol:StrategyBeethovenxSonne",
        "label": "bptGauge",
        "offset": 0,
        "slot": "306",
        "type": "t_contract(IERC20)3249"
      },
      {
        "astId": 13801,
        "contract": "contracts/StrategyBeethovenxSonne.sol:StrategyBeethovenxSonne",
        "label": "vault",
        "offset": 0,
        "slot": "307",
        "type": "t_contract(IVault)5164"
      },
      {
        "astId": 13803,
        "contract": "contracts/StrategyBeethovenxSonne.sol:StrategyBeethovenxSonne",
        "label": "aUsdcPoolId",
        "offset": 0,
        "slot": "308",
        "type": "t_bytes32"
      },
      {
        "astId": 13805,
        "contract": "contracts/StrategyBeethovenxSonne.sol:StrategyBeethovenxSonne",
        "label": "stablePoolId",
        "offset": 0,
        "slot": "309",
        "type": "t_bytes32"
      },
      {
        "astId": 13808,
        "contract": "contracts/StrategyBeethovenxSonne.sol:StrategyBeethovenxSonne",
        "label": "gauge",
        "offset": 0,
        "slot": "310",
        "type": "t_contract(IGaugeBeethoven)6718"
      },
      {
        "astId": 13811,
        "contract": "contracts/StrategyBeethovenxSonne.sol:StrategyBeethovenxSonne",
        "label": "oracleDai",
        "offset": 0,
        "slot": "311",
        "type": "t_contract(IPriceFeed)6871"
      },
      {
        "astId": 13814,
        "contract": "contracts/StrategyBeethovenxSonne.sol:StrategyBeethovenxSonne",
        "label": "oracleUsdt",
        "offset": 0,
        "slot": "312",
        "type": "t_contract(IPriceFeed)6871"
      },
      {
        "astId": 13817,
        "contract": "contracts/StrategyBeethovenxSonne.sol:StrategyBeethovenxSonne",
        "label": "oracleUsdc",
        "offset": 0,
        "slot": "313",
        "type": "t_contract(IPriceFeed)6871"
      },
      {
        "astId": 13820,
        "contract": "contracts/StrategyBeethovenxSonne.sol:StrategyBeethovenxSonne",
        "label": "op",
        "offset": 0,
        "slot": "314",
        "type": "t_contract(IERC20)3249"
      },
      {
        "astId": 13823,
        "contract": "contracts/StrategyBeethovenxSonne.sol:StrategyBeethovenxSonne",
        "label": "sonne",
        "offset": 0,
        "slot": "315",
        "type": "t_contract(IERC20)3249"
      },
      {
        "astId": 13826,
        "contract": "contracts/StrategyBeethovenxSonne.sol:StrategyBeethovenxSonne",
        "label": "velodromeRouter",
        "offset": 0,
        "slot": "316",
        "type": "t_contract(IRouter)11133"
      },
      {
        "astId": 13828,
        "contract": "contracts/StrategyBeethovenxSonne.sol:StrategyBeethovenxSonne",
        "label": "swapSlippageBp",
        "offset": 0,
        "slot": "317",
        "type": "t_uint256"
      },
      {
        "astId": 13830,
        "contract": "contracts/StrategyBeethovenxSonne.sol:StrategyBeethovenxSonne",
        "label": "allowedSlippageBp",
        "offset": 0,
        "slot": "318",
        "type": "t_uint256"
      }
    ],
    "types": {
      "t_address": {
        "encoding": "inplace",
        "label": "address",
        "numberOfBytes": "20"
      },
      "t_array(t_uint256)47_storage": {
        "base": "t_uint256",
        "encoding": "inplace",
        "label": "uint256[47]",
        "numberOfBytes": "1504"
      },
      "t_array(t_uint256)49_storage": {
        "base": "t_uint256",
        "encoding": "inplace",
        "label": "uint256[49]",
        "numberOfBytes": "1568"
      },
      "t_array(t_uint256)50_storage": {
        "base": "t_uint256",
        "encoding": "inplace",
        "label": "uint256[50]",
        "numberOfBytes": "1600"
      },
      "t_bool": {
        "encoding": "inplace",
        "label": "bool",
        "numberOfBytes": "1"
      },
      "t_bytes32": {
        "encoding": "inplace",
        "label": "bytes32",
        "numberOfBytes": "32"
      },
      "t_contract(BptToken)6697": {
        "encoding": "inplace",
        "label": "contract BptToken",
        "numberOfBytes": "20"
      },
      "t_contract(IERC20)3249": {
        "encoding": "inplace",
        "label": "contract IERC20",
        "numberOfBytes": "20"
      },
      "t_contract(IGaugeBeethoven)6718": {
        "encoding": "inplace",
        "label": "contract IGaugeBeethoven",
        "numberOfBytes": "20"
      },
      "t_contract(IPriceFeed)6871": {
        "encoding": "inplace",
        "label": "contract IPriceFeed",
        "numberOfBytes": "20"
      },
      "t_contract(IRouter)11133": {
        "encoding": "inplace",
        "label": "contract IRouter",
        "numberOfBytes": "20"
      },
      "t_contract(IVault)5164": {
        "encoding": "inplace",
        "label": "contract IVault",
        "numberOfBytes": "20"
      },
      "t_mapping(t_address,t_bool)": {
        "encoding": "mapping",
        "key": "t_address",
        "label": "mapping(address => bool)",
        "numberOfBytes": "32",
        "value": "t_bool"
      },
      "t_mapping(t_bytes32,t_struct(RoleData)34_storage)": {
        "encoding": "mapping",
        "key": "t_bytes32",
        "label": "mapping(bytes32 => struct AccessControlUpgradeable.RoleData)",
        "numberOfBytes": "32",
        "value": "t_struct(RoleData)34_storage"
      },
      "t_struct(RoleData)34_storage": {
        "encoding": "inplace",
        "label": "struct AccessControlUpgradeable.RoleData",
        "members": [
          {
            "astId": 31,
            "contract": "contracts/StrategyBeethovenxSonne.sol:StrategyBeethovenxSonne",
            "label": "members",
            "offset": 0,
            "slot": "0",
            "type": "t_mapping(t_address,t_bool)"
          },
          {
            "astId": 33,
            "contract": "contracts/StrategyBeethovenxSonne.sol:StrategyBeethovenxSonne",
            "label": "adminRole",
            "offset": 0,
            "slot": "1",
            "type": "t_bytes32"
          }
        ],
        "numberOfBytes": "64"
      },
      "t_uint256": {
        "encoding": "inplace",
        "label": "uint256",
        "numberOfBytes": "32"
      },
      "t_uint8": {
        "encoding": "inplace",
        "label": "uint8",
        "numberOfBytes": "1"
      }
    }
  }
}