{
  "address": "0xF3a75b6dD1A60526755A370afaB48fF3501e0D15",
  "abi": [
    {
      "inputs": [],
      "stateMutability": "nonpayable",
      "type": "constructor"
    },
    {
      "anonymous": false,
      "inputs": [
        {
          "indexed": false,
          "internalType": "address",
          "name": "previousAdmin",
          "type": "address"
        },
        {
          "indexed": false,
          "internalType": "address",
          "name": "newAdmin",
          "type": "address"
        }
      ],
      "name": "AdminChanged",
      "type": "event"
    },
    {
      "anonymous": false,
      "inputs": [
        {
          "indexed": true,
          "internalType": "address",
          "name": "beacon",
          "type": "address"
        }
      ],
      "name": "BeaconUpgraded",
      "type": "event"
    },
    {
      "anonymous": false,
      "inputs": [
        {
          "indexed": false,
          "internalType": "uint8",
          "name": "version",
          "type": "uint8"
        }
      ],
      "name": "Initialized",
      "type": "event"
    },
    {
      "anonymous": false,
      "inputs": [
        {
          "indexed": false,
          "internalType": "address",
          "name": "value",
          "type": "address"
        }
      ],
      "name": "PortfolioManagerUpdated",
      "type": "event"
    },
    {
      "anonymous": false,
      "inputs": [
        {
          "indexed": false,
          "internalType": "uint256",
          "name": "amount",
          "type": "uint256"
        }
      ],
      "name": "Reward",
      "type": "event"
    },
    {
      "anonymous": false,
      "inputs": [
        {
          "indexed": true,
          "internalType": "bytes32",
          "name": "role",
          "type": "bytes32"
        },
        {
          "indexed": true,
          "internalType": "bytes32",
          "name": "previousAdminRole",
          "type": "bytes32"
        },
        {
          "indexed": true,
          "internalType": "bytes32",
          "name": "newAdminRole",
          "type": "bytes32"
        }
      ],
      "name": "RoleAdminChanged",
      "type": "event"
    },
    {
      "anonymous": false,
      "inputs": [
        {
          "indexed": true,
          "internalType": "bytes32",
          "name": "role",
          "type": "bytes32"
        },
        {
          "indexed": true,
          "internalType": "address",
          "name": "account",
          "type": "address"
        },
        {
          "indexed": true,
          "internalType": "address",
          "name": "sender",
          "type": "address"
        }
      ],
      "name": "RoleGranted",
      "type": "event"
    },
    {
      "anonymous": false,
      "inputs": [
        {
          "indexed": true,
          "internalType": "bytes32",
          "name": "role",
          "type": "bytes32"
        },
        {
          "indexed": true,
          "internalType": "address",
          "name": "account",
          "type": "address"
        },
        {
          "indexed": true,
          "internalType": "address",
          "name": "sender",
          "type": "address"
        }
      ],
      "name": "RoleRevoked",
      "type": "event"
    },
    {
      "anonymous": false,
      "inputs": [
        {
          "indexed": false,
          "internalType": "uint256",
          "name": "swapSlippageBP",
          "type": "uint256"
        },
        {
          "indexed": false,
          "internalType": "uint256",
          "name": "navSlippageBP",
          "type": "uint256"
        }
      ],
      "name": "SlippagesUpdated",
      "type": "event"
    },
    {
      "anonymous": false,
      "inputs": [
        {
          "indexed": false,
          "internalType": "uint256",
          "name": "amount",
          "type": "uint256"
        }
      ],
      "name": "Stake",
      "type": "event"
    },
    {
      "anonymous": false,
      "inputs": [],
      "name": "StrategyUpdatedParams",
      "type": "event"
    },
    {
      "anonymous": false,
      "inputs": [
        {
          "indexed": false,
          "internalType": "uint256",
          "name": "amount",
          "type": "uint256"
        },
        {
          "indexed": false,
          "internalType": "uint256",
          "name": "amountReceived",
          "type": "uint256"
        }
      ],
      "name": "Unstake",
      "type": "event"
    },
    {
      "anonymous": false,
      "inputs": [
        {
          "indexed": true,
          "internalType": "address",
          "name": "implementation",
          "type": "address"
        }
      ],
      "name": "Upgraded",
      "type": "event"
    },
    {
      "inputs": [],
      "name": "DEFAULT_ADMIN_ROLE",
      "outputs": [
        {
          "internalType": "bytes32",
          "name": "",
          "type": "bytes32"
        }
      ],
      "stateMutability": "view",
      "type": "function"
    },
    {
      "inputs": [],
      "name": "PORTFOLIO_AGENT_ROLE",
      "outputs": [
        {
          "internalType": "bytes32",
          "name": "",
          "type": "bytes32"
        }
      ],
      "stateMutability": "view",
      "type": "function"
    },
    {
      "inputs": [],
      "name": "PORTFOLIO_MANAGER",
      "outputs": [
        {
          "internalType": "bytes32",
          "name": "",
          "type": "bytes32"
        }
      ],
      "stateMutability": "view",
      "type": "function"
    },
    {
      "inputs": [
        {
          "internalType": "address",
          "name": "_to",
          "type": "address"
        }
      ],
      "name": "claimRewards",
      "outputs": [
        {
          "internalType": "uint256",
          "name": "",
          "type": "uint256"
        }
      ],
      "stateMutability": "nonpayable",
      "type": "function"
    },
    {
      "inputs": [
        {
          "internalType": "bytes32",
          "name": "role",
          "type": "bytes32"
        }
      ],
      "name": "getRoleAdmin",
      "outputs": [
        {
          "internalType": "bytes32",
          "name": "",
          "type": "bytes32"
        }
      ],
      "stateMutability": "view",
      "type": "function"
    },
    {
      "inputs": [
        {
          "internalType": "bytes32",
          "name": "role",
          "type": "bytes32"
        },
        {
          "internalType": "address",
          "name": "account",
          "type": "address"
        }
      ],
      "name": "grantRole",
      "outputs": [],
      "stateMutability": "nonpayable",
      "type": "function"
    },
    {
      "inputs": [
        {
          "internalType": "bytes32",
          "name": "role",
          "type": "bytes32"
        },
        {
          "internalType": "address",
          "name": "account",
          "type": "address"
        }
      ],
      "name": "hasRole",
      "outputs": [
        {
          "internalType": "bool",
          "name": "",
          "type": "bool"
        }
      ],
      "stateMutability": "view",
      "type": "function"
    },
    {
      "inputs": [
        {
          "internalType": "uint256",
          "name": "_swapSlippageBP",
          "type": "uint256"
        },
        {
          "internalType": "uint256",
          "name": "_navSlippageBP",
          "type": "uint256"
        }
      ],
      "name": "initSlippages",
      "outputs": [],
      "stateMutability": "nonpayable",
      "type": "function"
    },
    {
      "inputs": [],
      "name": "initialize",
      "outputs": [],
      "stateMutability": "nonpayable",
      "type": "function"
    },
    {
      "inputs": [],
      "name": "liquidationValue",
      "outputs": [
        {
          "internalType": "uint256",
          "name": "",
          "type": "uint256"
        }
      ],
      "stateMutability": "view",
      "type": "function"
    },
    {
      "inputs": [],
      "name": "navSlippageBP",
      "outputs": [
        {
          "internalType": "uint256",
          "name": "",
          "type": "uint256"
        }
      ],
      "stateMutability": "view",
      "type": "function"
    },
    {
      "inputs": [],
      "name": "netAssetValue",
      "outputs": [
        {
          "internalType": "uint256",
          "name": "",
          "type": "uint256"
        }
      ],
      "stateMutability": "view",
      "type": "function"
    },
    {
      "inputs": [],
      "name": "portfolioManager",
      "outputs": [
        {
          "internalType": "address",
          "name": "",
          "type": "address"
        }
      ],
      "stateMutability": "view",
      "type": "function"
    },
    {
      "inputs": [],
      "name": "proxiableUUID",
      "outputs": [
        {
          "internalType": "bytes32",
          "name": "",
          "type": "bytes32"
        }
      ],
      "stateMutability": "view",
      "type": "function"
    },
    {
      "inputs": [
        {
          "internalType": "bytes32",
          "name": "role",
          "type": "bytes32"
        },
        {
          "internalType": "address",
          "name": "account",
          "type": "address"
        }
      ],
      "name": "renounceRole",
      "outputs": [],
      "stateMutability": "nonpayable",
      "type": "function"
    },
    {
      "inputs": [
        {
          "internalType": "bytes32",
          "name": "role",
          "type": "bytes32"
        },
        {
          "internalType": "address",
          "name": "account",
          "type": "address"
        }
      ],
      "name": "revokeRole",
      "outputs": [],
      "stateMutability": "nonpayable",
      "type": "function"
    },
    {
      "inputs": [
        {
          "components": [
            {
              "internalType": "address",
              "name": "usdcToken",
              "type": "address"
            },
            {
              "internalType": "address",
              "name": "soUsdc",
              "type": "address"
            }
          ],
          "internalType": "struct StrategyReaperSonneUsdc.StrategyParams",
          "name": "params",
          "type": "tuple"
        }
      ],
      "name": "setParams",
      "outputs": [],
      "stateMutability": "nonpayable",
      "type": "function"
    },
    {
      "inputs": [
        {
          "internalType": "address",
          "name": "_value",
          "type": "address"
        }
      ],
      "name": "setPortfolioManager",
      "outputs": [],
      "stateMutability": "nonpayable",
      "type": "function"
    },
    {
      "inputs": [
        {
          "internalType": "uint256",
          "name": "_swapSlippageBP",
          "type": "uint256"
        },
        {
          "internalType": "uint256",
          "name": "_navSlippageBP",
          "type": "uint256"
        }
      ],
      "name": "setSlippages",
      "outputs": [],
      "stateMutability": "nonpayable",
      "type": "function"
    },
    {
      "inputs": [],
      "name": "soUsdc",
      "outputs": [
        {
          "internalType": "contract IReaperVault",
          "name": "",
          "type": "address"
        }
      ],
      "stateMutability": "view",
      "type": "function"
    },
    {
      "inputs": [
        {
          "internalType": "address",
          "name": "_asset",
          "type": "address"
        },
        {
          "internalType": "uint256",
          "name": "_amount",
          "type": "uint256"
        }
      ],
      "name": "stake",
      "outputs": [],
      "stateMutability": "nonpayable",
      "type": "function"
    },
    {
      "inputs": [
        {
          "internalType": "bytes4",
          "name": "interfaceId",
          "type": "bytes4"
        }
      ],
      "name": "supportsInterface",
      "outputs": [
        {
          "internalType": "bool",
          "name": "",
          "type": "bool"
        }
      ],
      "stateMutability": "view",
      "type": "function"
    },
    {
      "inputs": [],
      "name": "swapSlippageBP",
      "outputs": [
        {
          "internalType": "uint256",
          "name": "",
          "type": "uint256"
        }
      ],
      "stateMutability": "view",
      "type": "function"
    },
    {
      "inputs": [
        {
          "internalType": "address",
          "name": "_asset",
          "type": "address"
        },
        {
          "internalType": "uint256",
          "name": "_amount",
          "type": "uint256"
        },
        {
          "internalType": "address",
          "name": "_beneficiary",
          "type": "address"
        },
        {
          "internalType": "bool",
          "name": "_targetIsZero",
          "type": "bool"
        }
      ],
      "name": "unstake",
      "outputs": [
        {
          "internalType": "uint256",
          "name": "",
          "type": "uint256"
        }
      ],
      "stateMutability": "nonpayable",
      "type": "function"
    },
    {
      "inputs": [
        {
          "internalType": "address",
          "name": "newImplementation",
          "type": "address"
        }
      ],
      "name": "upgradeTo",
      "outputs": [],
      "stateMutability": "nonpayable",
      "type": "function"
    },
    {
      "inputs": [
        {
          "internalType": "address",
          "name": "newImplementation",
          "type": "address"
        },
        {
          "internalType": "bytes",
          "name": "data",
          "type": "bytes"
        }
      ],
      "name": "upgradeToAndCall",
      "outputs": [],
      "stateMutability": "payable",
      "type": "function"
    },
    {
      "inputs": [],
      "name": "usdcToken",
      "outputs": [
        {
          "internalType": "contract IERC20",
          "name": "",
          "type": "address"
        }
      ],
      "stateMutability": "view",
      "type": "function"
    }
  ],
  "numDeployments": 3,
  "solcInputHash": "840e8d710df8b446fb0c5ba274ed9e92",
  "bytecode": "0x60a06040523060601b6080523480156200001857600080fd5b50600054610100900460ff16158080156200003a5750600054600160ff909116105b806200006a575062000057306200014460201b620011eb1760201c565b1580156200006a575060005460ff166001145b620000d25760405162461bcd60e51b815260206004820152602e60248201527f496e697469616c697a61626c653a20636f6e747261637420697320616c72656160448201526d191e481a5b9a5d1a585b1a5e995960921b606482015260840160405180910390fd5b6000805460ff191660011790558015620000f6576000805461ff0019166101001790555b80156200013d576000805461ff0019169055604051600181527f7f26b83ff96e1f2b6a682f133852f6798a09c465da95921460cefb38474024989060200160405180910390a15b5062000153565b6001600160a01b03163b151590565b60805160601c6128956200018e60003960008181610669015281816106a90152818161074901528181610789015261081801526128956000f3fe60806040526004361061019c5760003560e01c8063620b75df116100ec578063a440b21a1161008a578063c2977d2f11610064578063c2977d2f14610479578063d547741f14610499578063ef5cfb8c146104b9578063f6f6b881146104d957600080fd5b8063a440b21a14610423578063adc9772e14610443578063bf52e0801461046357600080fd5b80638129fc1c116100c65780638129fc1c146103d957806391d14854146103ee578063a217fddf1461040e578063a3673b38146102a657600080fd5b8063620b75df146103775780636b42c576146103975780637d5f5802146103b757600080fd5b80632576e65a116101595780633659cfe6116101335780633659cfe6146102fb5780634f1ef2861461031b57806352d1902d1461032e5780635dbd733a1461034357600080fd5b80632576e65a146102a65780632f2ff15d146102bb57806336568abe146102db57600080fd5b806301ffc9a7146101a1578063119cd879146101d657806311eac855146101fa5780631438e4a81461023357806318bc0faa14610254578063248a9ca314610276575b600080fd5b3480156101ad57600080fd5b506101c16101bc36600461244b565b6104f9565b60405190151581526020015b60405180910390f35b3480156101e257600080fd5b506101ec60fd5481565b6040519081526020016101cd565b34801561020657600080fd5b5061012d5461021b906001600160a01b031681565b6040516001600160a01b0390911681526020016101cd565b34801561023f57600080fd5b5061012e5461021b906001600160a01b031681565b34801561026057600080fd5b5061027461026f36600461248d565b610530565b005b34801561028257600080fd5b506101ec6102913660046123ed565b60009081526065602052604090206001015490565b3480156102b257600080fd5b506101ec6105a7565b3480156102c757600080fd5b506102746102d636600461241f565b6105b6565b3480156102e757600080fd5b506102746102f636600461241f565b6105e0565b34801561030757600080fd5b5061027461031636600461227a565b61065e565b610274610329366004612295565b61073e565b34801561033a57600080fd5b506101ec61080b565b34801561034f57600080fd5b506101ec7fd67ad422505496469a1adf6cdf9e5ee92ac5d33992843c9ecc4b2f6d6cde913781565b34801561038357600080fd5b5060fb5461021b906001600160a01b031681565b3480156103a357600080fd5b506102746103b236600461248d565b6108be565b3480156103c357600080fd5b506101ec6000805160206127f983398151915281565b3480156103e557600080fd5b506102746109e6565b3480156103fa57600080fd5b506101c161040936600461241f565b610ab0565b34801561041a57600080fd5b506101ec600081565b34801561042f57600080fd5b5061027461043e36600461227a565b610adb565b34801561044f57600080fd5b5061027461045e366004612357565b610be3565b34801561046f57600080fd5b506101ec60fc5481565b34801561048557600080fd5b50610274610494366004612475565b610e12565b3480156104a557600080fd5b506102746104b436600461241f565b610ec4565b3480156104c557600080fd5b506101ec6104d436600461227a565b610ee9565b3480156104e557600080fd5b506101ec6104f4366004612381565b610f28565b60006001600160e01b03198216637965db0b60e01b148061052a57506301ffc9a760e01b6001600160e01b03198316145b92915050565b61053b600033610ab0565b6105605760405162461bcd60e51b815260040161055790612690565b60405180910390fd5b60fc82905560fd81905560408051838152602081018390527fce5a32eeae390ce399fd83b29e4bee51b2b1a5898dc3575411e3a498f4f552a0910160405180910390a15050565b60006105b16111fa565b905090565b6000828152606560205260409020600101546105d181611432565b6105db838361143c565b505050565b6001600160a01b03811633146106505760405162461bcd60e51b815260206004820152602f60248201527f416363657373436f6e74726f6c3a2063616e206f6e6c792072656e6f756e636560448201526e103937b632b9903337b91039b2b63360891b6064820152608401610557565b61065a82826114c2565b5050565b306001600160a01b037f00000000000000000000000000000000000000000000000000000000000000001614156106a75760405162461bcd60e51b8152600401610557906125aa565b7f00000000000000000000000000000000000000000000000000000000000000006001600160a01b03166106f0600080516020612819833981519152546001600160a01b031690565b6001600160a01b0316146107165760405162461bcd60e51b8152600401610557906125f6565b61071f81611529565b6040805160008082526020820190925261073b91839190611534565b50565b306001600160a01b037f00000000000000000000000000000000000000000000000000000000000000001614156107875760405162461bcd60e51b8152600401610557906125aa565b7f00000000000000000000000000000000000000000000000000000000000000006001600160a01b03166107d0600080516020612819833981519152546001600160a01b031690565b6001600160a01b0316146107f65760405162461bcd60e51b8152600401610557906125f6565b6107ff82611529565b61065a82826001611534565b6000306001600160a01b037f000000000000000000000000000000000000000000000000000000000000000016146108ab5760405162461bcd60e51b815260206004820152603860248201527f555550535570677261646561626c653a206d757374206e6f742062652063616c60448201527f6c6564207468726f7567682064656c656761746563616c6c00000000000000006064820152608401610557565b5060008051602061281983398151915290565b6108e87fd67ad422505496469a1adf6cdf9e5ee92ac5d33992843c9ecc4b2f6d6cde913733610ab0565b8061098f575060fb54604051632474521560e21b81527fd67ad422505496469a1adf6cdf9e5ee92ac5d33992843c9ecc4b2f6d6cde913760048201523360248201526001600160a01b03909116906391d148549060440160206040518083038186803b15801561095757600080fd5b505afa15801561096b573d6000803e3d6000fd5b505050506040513d601f19601f8201168201806040525081019061098f91906123d0565b6105605760405162461bcd60e51b815260206004820152602260248201527f5265737472696374656420746f20504f5254464f4c494f5f4147454e545f524f6044820152614c4560f01b6064820152608401610557565b600054610100900460ff1615808015610a065750600054600160ff909116105b80610a205750303b158015610a20575060005460ff166001145b610a3c5760405162461bcd60e51b815260040161055790612642565b6000805460ff191660011790558015610a5f576000805461ff0019166101001790555b610a676116ae565b801561073b576000805461ff0019169055604051600181527f7f26b83ff96e1f2b6a682f133852f6798a09c465da95921460cefb3847402498906020015b60405180910390a150565b60009182526065602090815260408084206001600160a01b0393909316845291905290205460ff1690565b610ae6600033610ab0565b610b025760405162461bcd60e51b815260040161055790612690565b6001600160a01b038116610b585760405162461bcd60e51b815260206004820152601860248201527f5a65726f2061646472657373206e6f7420616c6c6f77656400000000000000006044820152606401610557565b60fb54610b7d906000805160206127f9833981519152906001600160a01b0316610ec4565b610b956000805160206127f9833981519152826105b6565b60fb80546001600160a01b0319166001600160a01b0383169081179091556040519081527ff7b449fcd5cfb7379dcd34cb69428dd9f882033b15be33d83b42d91daa28eeb790602001610aa5565b610bfb6000805160206127f983398151915233610ab0565b610c175760405162461bcd60e51b815260040161055790612573565b6000610c95306001600160a01b031663a3673b386040518163ffffffff1660e01b815260040160206040518083038186803b158015610c5557600080fd5b505afa158015610c69573d6000803e3d6000fd5b505050506040513d601f19601f82011682018060405250810190610c8d9190612406565b60fd5461178e565b6040516370a0823160e01b8152306004820152909150610d1a9084906001600160a01b038216906370a082319060240160206040518083038186803b158015610cdd57600080fd5b505afa158015610cf1573d6000803e3d6000fd5b505050506040513d601f19601f82011682018060405250810190610d159190612406565b6117b1565b80306001600160a01b031663a3673b386040518163ffffffff1660e01b815260040160206040518083038186803b158015610d5457600080fd5b505afa158015610d68573d6000803e3d6000fd5b505050506040513d601f19601f82011682018060405250810190610d8c9190612406565b1015610dda5760405162461bcd60e51b815260206004820152601f60248201527f5374726174656779204e4156206c657373207468616e206578706563746564006044820152606401610557565b6040518281527f227a473b70d2f893cc7659219575c030a63b5743024fe1e0c1a680e708b1525a9060200160405180910390a1505050565b610e1d600033610ab0565b610e395760405162461bcd60e51b815260040161055790612690565b610e46602082018261227a565b61012d80546001600160a01b0319166001600160a01b0392909216919091179055610e77604082016020830161227a565b61012e80546001600160a01b0319166001600160a01b03929092169190911790556040517fea5646eb3528e525944447a4a97de700dd472298626e5c0481d1c82c3da86ea590600090a150565b600082815260656020526040902060010154610edf81611432565b6105db83836114c2565b6000610f036000805160206127f983398151915233610ab0565b610f1f5760405162461bcd60e51b815260040161055790612573565b5060005b919050565b6000610f426000805160206127f983398151915233610ab0565b610f5e5760405162461bcd60e51b815260040161055790612573565b6000610f9c306001600160a01b031663a3673b386040518163ffffffff1660e01b815260040160206040518083038186803b158015610c5557600080fd5b90506000808415610fbb57506000610fb4888761194d565b915061102a565b610fc6888888611af9565b91508682101561102a5760405162461bcd60e51b815260206004820152602960248201527f52657475726e65642076616c7565206c657373207468616e2072657175657374604482015268195908185b5bdd5b9d60ba1b6064820152608401610557565b82306001600160a01b031663a3673b386040518163ffffffff1660e01b815260040160206040518083038186803b15801561106457600080fd5b505afa158015611078573d6000803e3d6000fd5b505050506040513d601f19601f8201168201806040525081019061109c9190612406565b10156110ea5760405162461bcd60e51b815260206004820152601f60248201527f5374726174656779204e4156206c657373207468616e206578706563746564006044820152606401610557565b60405163a9059cbb60e01b81526001600160a01b0387811660048301526024820184905289169063a9059cbb90604401602060405180830381600087803b15801561113457600080fd5b505af1158015611148573d6000803e3d6000fd5b505050506040513d601f19601f8201168201806040525081019061116c91906123d0565b5060408051888152602081018490527f9045c2ac9b2026de8075f2701bbdde882cd5e830b3b1ead9a15b22f2b5b93742910160405180910390a180156111e0576040518181527f3ac0594a85a20354f9dc74f33728416d19ce00d04a406c108cc2dcf2cecea1349060200160405180910390a15b509695505050505050565b6001600160a01b03163b151590565b61012d546040516370a0823160e01b815230600482015260009182916001600160a01b03909116906370a082319060240160206040518083038186803b15801561124357600080fd5b505afa158015611257573d6000803e3d6000fd5b505050506040513d601f19601f8201168201806040525081019061127b9190612406565b61012e546040516370a0823160e01b81523060048201529192506000916001600160a01b03909116906370a082319060240160206040518083038186803b1580156112c557600080fd5b505afa1580156112d9573d6000803e3d6000fd5b505050506040513d601f19601f820116820180604052508101906112fd9190612406565b905061012e60009054906101000a90046001600160a01b03166001600160a01b03166318160ddd6040518163ffffffff1660e01b815260040160206040518083038186803b15801561134e57600080fd5b505afa158015611362573d6000803e3d6000fd5b505050506040513d601f19601f820116820180604052508101906113869190612406565b61012e60009054906101000a90046001600160a01b03166001600160a01b031663b69ef8a86040518163ffffffff1660e01b815260040160206040518083038186803b1580156113d557600080fd5b505afa1580156113e9573d6000803e3d6000fd5b505050506040513d601f19601f8201168201806040525081019061140d9190612406565b611417908361272f565b611421919061270d565b61142b90836126f5565b9392505050565b61073b8133611dc2565b6114468282610ab0565b61065a5760008281526065602090815260408083206001600160a01b03851684529091529020805460ff1916600117905561147e3390565b6001600160a01b0316816001600160a01b0316837f2f8788117e7eff1d82e926ec794901d17c78024a50270940304540a733656f0d60405160405180910390a45050565b6114cc8282610ab0565b1561065a5760008281526065602090815260408083206001600160a01b0385168085529252808320805460ff1916905551339285917ff6391f5c32d9c69d2a47ea670b442974b53935d1edc7fd64eb21e047a839171b9190a45050565b600061065a81611432565b7f4910fdfa16fed3260ed0e7147f7cc6da11a60208b5b9406d12a635614ffd91435460ff1615611567576105db83611e26565b826001600160a01b03166352d1902d6040518163ffffffff1660e01b815260040160206040518083038186803b1580156115a057600080fd5b505afa9250505080156115d0575060408051601f3d908101601f191682019092526115cd91810190612406565b60015b6116335760405162461bcd60e51b815260206004820152602e60248201527f45524331393637557067726164653a206e657720696d706c656d656e7461746960448201526d6f6e206973206e6f74205555505360901b6064820152608401610557565b60008051602061281983398151915281146116a25760405162461bcd60e51b815260206004820152602960248201527f45524331393637557067726164653a20756e737570706f727465642070726f786044820152681a58589b195555525160ba1b6064820152608401610557565b506105db838383611ec2565b600054610100900460ff16158080156116ce5750600054600160ff909116105b806116e85750303b1580156116e8575060005460ff166001145b6117045760405162461bcd60e51b815260040161055790612642565b6000805460ff191660011790558015611727576000805461ff0019166101001790555b61172f611eed565b611737611eed565b61174260003361143c565b601460fc81905560fd55801561073b576000805461ff0019169055604051600181527f7f26b83ff96e1f2b6a682f133852f6798a09c465da95921460cefb384740249890602001610aa5565b600061271061179d838261274e565b6117a7908561272f565b61142b919061270d565b61012d546001600160a01b038381169116146117df5760405162461bcd60e51b8152600401610557906126be565b61012d546040516370a0823160e01b81523060048201526000916001600160a01b0316906370a082319060240160206040518083038186803b15801561182457600080fd5b505afa158015611838573d6000803e3d6000fd5b505050506040513d601f19601f8201168201806040525081019061185c9190612406565b61012d5461012e5460405163095ea7b360e01b81526001600160a01b03918216600482015260248101849052929350169063095ea7b390604401602060405180830381600087803b1580156118b057600080fd5b505af11580156118c4573d6000803e3d6000fd5b505050506040513d601f19601f820116820180604052508101906118e891906123d0565b5061012e5460405163b6b55f2560e01b8152600481018390526001600160a01b039091169063b6b55f2590602401600060405180830381600087803b15801561193057600080fd5b505af1158015611944573d6000803e3d6000fd5b50505050505050565b61012d546000906001600160a01b0384811691161461197e5760405162461bcd60e51b8152600401610557906126be565b61012e546040516370a0823160e01b81523060048201526000916001600160a01b0316906370a082319060240160206040518083038186803b1580156119c357600080fd5b505afa1580156119d7573d6000803e3d6000fd5b505050506040513d601f19601f820116820180604052508101906119fb9190612406565b905080611a0c57600091505061052a565b61012e60009054906101000a90046001600160a01b03166001600160a01b031663853828b66040518163ffffffff1660e01b8152600401600060405180830381600087803b158015611a5d57600080fd5b505af1158015611a71573d6000803e3d6000fd5b505061012d546040516370a0823160e01b81523060048201526001600160a01b0390911692506370a08231915060240160206040518083038186803b158015611ab957600080fd5b505afa158015611acd573d6000803e3d6000fd5b505050506040513d601f19601f82011682018060405250810190611af19190612406565b949350505050565b61012d546000906001600160a01b03858116911614611b2a5760405162461bcd60e51b8152600401610557906126be565b61012e546040516370a0823160e01b81523060048201526000916001600160a01b0316906370a082319060240160206040518083038186803b158015611b6f57600080fd5b505afa158015611b83573d6000803e3d6000fd5b505050506040513d601f19601f82011682018060405250810190611ba79190612406565b905080611bb857600091505061142b565b61012e54604080516316d3df1560e31b815290516000926001600160a01b03169163b69ef8a8916004808301926020929190829003018186803b158015611bfe57600080fd5b505afa158015611c12573d6000803e3d6000fd5b505050506040513d601f19601f82011682018060405250810190611c369190612406565b61012e60009054906101000a90046001600160a01b03166001600160a01b03166318160ddd6040518163ffffffff1660e01b815260040160206040518083038186803b158015611c8557600080fd5b505afa158015611c99573d6000803e3d6000fd5b505050506040513d601f19601f82011682018060405250810190611cbd9190612406565b611cc887600a6126f5565b611cd2919061272f565b611cdc919061270d565b61012e54604051632e1a7d4d60e01b8152600481018390529192506001600160a01b031690632e1a7d4d90602401600060405180830381600087803b158015611d2457600080fd5b505af1158015611d38573d6000803e3d6000fd5b505061012d546040516370a0823160e01b81523060048201526001600160a01b0390911692506370a08231915060240160206040518083038186803b158015611d8057600080fd5b505afa158015611d94573d6000803e3d6000fd5b505050506040513d601f19601f82011682018060405250810190611db89190612406565b9695505050505050565b611dcc8282610ab0565b61065a57611de4816001600160a01b03166014611f5a565b611def836020611f5a565b604051602001611e009291906124cb565b60408051601f198184030181529082905262461bcd60e51b825261055791600401612540565b6001600160a01b0381163b611e935760405162461bcd60e51b815260206004820152602d60248201527f455243313936373a206e657720696d706c656d656e746174696f6e206973206e60448201526c1bdd08184818dbdb9d1c9858dd609a1b6064820152608401610557565b60008051602061281983398151915280546001600160a01b0319166001600160a01b0392909216919091179055565b611ecb836120f6565b600082511180611ed85750805b156105db57611ee78383612136565b50505050565b600054610100900460ff16611f585760405162461bcd60e51b815260206004820152602b60248201527f496e697469616c697a61626c653a20636f6e7472616374206973206e6f74206960448201526a6e697469616c697a696e6760a81b6064820152608401610557565b565b60606000611f6983600261272f565b611f749060026126f5565b67ffffffffffffffff811115611f8c57611f8c6127d4565b6040519080825280601f01601f191660200182016040528015611fb6576020820181803683370190505b509050600360fc1b81600081518110611fd157611fd16127be565b60200101906001600160f81b031916908160001a905350600f60fb1b81600181518110612000576120006127be565b60200101906001600160f81b031916908160001a905350600061202484600261272f565b61202f9060016126f5565b90505b60018111156120a7576f181899199a1a9b1b9c1cb0b131b232b360811b85600f1660108110612063576120636127be565b1a60f81b828281518110612079576120796127be565b60200101906001600160f81b031916908160001a90535060049490941c936120a081612791565b9050612032565b50831561142b5760405162461bcd60e51b815260206004820181905260248201527f537472696e67733a20686578206c656e67746820696e73756666696369656e746044820152606401610557565b6120ff81611e26565b6040516001600160a01b038216907fbc7cd75a20ee27fd9adebab32041f755214dbc6bffa90cc0225b39da2e5c2d3b90600090a250565b60606001600160a01b0383163b61219e5760405162461bcd60e51b815260206004820152602660248201527f416464726573733a2064656c65676174652063616c6c20746f206e6f6e2d636f6044820152651b9d1c9858dd60d21b6064820152608401610557565b600080846001600160a01b0316846040516121b991906124af565b600060405180830381855af49150503d80600081146121f4576040519150601f19603f3d011682016040523d82523d6000602084013e6121f9565b606091505b509150915061222182826040518060600160405280602781526020016128396027913961222a565b95945050505050565b6060831561223957508161142b565b8251156122495782518084602001fd5b8160405162461bcd60e51b81526004016105579190612540565b80356001600160a01b0381168114610f2357600080fd5b60006020828403121561228c57600080fd5b61142b82612263565b600080604083850312156122a857600080fd5b6122b183612263565b9150602083013567ffffffffffffffff808211156122ce57600080fd5b818501915085601f8301126122e257600080fd5b8135818111156122f4576122f46127d4565b604051601f8201601f19908116603f0116810190838211818310171561231c5761231c6127d4565b8160405282815288602084870101111561233557600080fd5b8260208601602083013760006020848301015280955050505050509250929050565b6000806040838503121561236a57600080fd5b61237383612263565b946020939093013593505050565b6000806000806080858703121561239757600080fd5b6123a085612263565b9350602085013592506123b560408601612263565b915060608501356123c5816127ea565b939692955090935050565b6000602082840312156123e257600080fd5b815161142b816127ea565b6000602082840312156123ff57600080fd5b5035919050565b60006020828403121561241857600080fd5b5051919050565b6000806040838503121561243257600080fd5b8235915061244260208401612263565b90509250929050565b60006020828403121561245d57600080fd5b81356001600160e01b03198116811461142b57600080fd5b60006040828403121561248757600080fd5b50919050565b600080604083850312156124a057600080fd5b50508035926020909101359150565b600082516124c1818460208701612765565b9190910192915050565b7f416363657373436f6e74726f6c3a206163636f756e7420000000000000000000815260008351612503816017850160208801612765565b7001034b99036b4b9b9b4b733903937b6329607d1b6017918401918201528351612534816028840160208801612765565b01602801949350505050565b602081526000825180602084015261255f816040850160208701612765565b601f01601f19169190910160400192915050565b6020808252601f908201527f5265737472696374656420746f20504f5254464f4c494f5f4d414e4147455200604082015260600190565b6020808252602c908201527f46756e6374696f6e206d7573742062652063616c6c6564207468726f7567682060408201526b19195b1959d85d1958d85b1b60a21b606082015260800190565b6020808252602c908201527f46756e6374696f6e206d7573742062652063616c6c6564207468726f7567682060408201526b6163746976652070726f787960a01b606082015260800190565b6020808252602e908201527f496e697469616c697a61626c653a20636f6e747261637420697320616c72656160408201526d191e481a5b9a5d1a585b1a5e995960921b606082015260800190565b6020808252601490820152735265737472696374656420746f2061646d696e7360601b604082015260600190565b60208082526019908201527f536f6d6520746f6b656e206e6f7420636f6d70617469626c6500000000000000604082015260600190565b60008219821115612708576127086127a8565b500190565b60008261272a57634e487b7160e01b600052601260045260246000fd5b500490565b6000816000190483118215151615612749576127496127a8565b500290565b600082821015612760576127606127a8565b500390565b60005b83811015612780578181015183820152602001612768565b83811115611ee75750506000910152565b6000816127a0576127a06127a8565b506000190190565b634e487b7160e01b600052601160045260246000fd5b634e487b7160e01b600052603260045260246000fd5b634e487b7160e01b600052604160045260246000fd5b801515811461073b57600080fdfe90c2aa7471c04182221f68e80c07ab1e5946e4c63f8693e14ca40385d529f051360894a13ba1a3210667c828492db98dca3e2076cc3735a920a3ca505d382bbc416464726573733a206c6f772d6c6576656c2064656c65676174652063616c6c206661696c6564a264697066735822122075c6497b6a2ee1cda03445114db96d8e5e2d814d92603f3622e2cae5dcbff1ce64736f6c63430008060033",
  "implementation": "0x4aA2172b7c6359e0f5050b16e0Fc815419220cf4",
  "devdoc": {
    "kind": "dev",
    "methods": {
      "constructor": {
        "custom:oz-upgrades-unsafe-allow": "constructor"
      },
      "getRoleAdmin(bytes32)": {
        "details": "Returns the admin role that controls `role`. See {grantRole} and {revokeRole}. To change a role's admin, use {_setRoleAdmin}."
      },
      "grantRole(bytes32,address)": {
        "details": "Grants `role` to `account`. If `account` had not been already granted `role`, emits a {RoleGranted} event. Requirements: - the caller must have ``role``'s admin role. May emit a {RoleGranted} event."
      },
      "hasRole(bytes32,address)": {
        "details": "Returns `true` if `account` has been granted `role`."
      },
      "proxiableUUID()": {
        "details": "Implementation of the ERC1822 {proxiableUUID} function. This returns the storage slot used by the implementation. It is used to validate that the this implementation remains valid after an upgrade. IMPORTANT: A proxy pointing at a proxiable contract should not be considered proxiable itself, because this risks bricking a proxy that upgrades to it, by delegating to itself until out of gas. Thus it is critical that this function revert if invoked through a proxy. This is guaranteed by the `notDelegated` modifier."
      },
      "renounceRole(bytes32,address)": {
        "details": "Revokes `role` from the calling account. Roles are often managed via {grantRole} and {revokeRole}: this function's purpose is to provide a mechanism for accounts to lose their privileges if they are compromised (such as when a trusted device is misplaced). If the calling account had been revoked `role`, emits a {RoleRevoked} event. Requirements: - the caller must be `account`. May emit a {RoleRevoked} event."
      },
      "revokeRole(bytes32,address)": {
        "details": "Revokes `role` from `account`. If `account` had been granted `role`, emits a {RoleRevoked} event. Requirements: - the caller must have ``role``'s admin role. May emit a {RoleRevoked} event."
      },
      "supportsInterface(bytes4)": {
        "details": "See {IERC165-supportsInterface}."
      },
      "upgradeTo(address)": {
        "details": "Upgrade the implementation of the proxy to `newImplementation`. Calls {_authorizeUpgrade}. Emits an {Upgraded} event."
      },
      "upgradeToAndCall(address,bytes)": {
        "details": "Upgrade the implementation of the proxy to `newImplementation`, and subsequently execute the function call encoded in `data`. Calls {_authorizeUpgrade}. Emits an {Upgraded} event."
      }
    },
    "version": 1
  },
  "userdoc": {
    "kind": "user",
    "methods": {},
    "version": 1
  },
  "storageLayout": {
    "storage": [
      {
        "astId": 808,
        "contract": "contracts/StrategyReaperSonneUsdc.sol:StrategyReaperSonneUsdc",
        "label": "_initialized",
        "offset": 0,
        "slot": "0",
        "type": "t_uint8"
      },
      {
        "astId": 811,
        "contract": "contracts/StrategyReaperSonneUsdc.sol:StrategyReaperSonneUsdc",
        "label": "_initializing",
        "offset": 1,
        "slot": "0",
        "type": "t_bool"
      },
      {
        "astId": 1372,
        "contract": "contracts/StrategyReaperSonneUsdc.sol:StrategyReaperSonneUsdc",
        "label": "__gap",
        "offset": 0,
        "slot": "1",
        "type": "t_array(t_uint256)50_storage"
      },
      {
        "astId": 1702,
        "contract": "contracts/StrategyReaperSonneUsdc.sol:StrategyReaperSonneUsdc",
        "label": "__gap",
        "offset": 0,
        "slot": "51",
        "type": "t_array(t_uint256)50_storage"
      },
      {
        "astId": 39,
        "contract": "contracts/StrategyReaperSonneUsdc.sol:StrategyReaperSonneUsdc",
        "label": "_roles",
        "offset": 0,
        "slot": "101",
        "type": "t_mapping(t_bytes32,t_struct(RoleData)34_storage)"
      },
      {
        "astId": 338,
        "contract": "contracts/StrategyReaperSonneUsdc.sol:StrategyReaperSonneUsdc",
        "label": "__gap",
        "offset": 0,
        "slot": "102",
        "type": "t_array(t_uint256)49_storage"
      },
      {
        "astId": 790,
        "contract": "contracts/StrategyReaperSonneUsdc.sol:StrategyReaperSonneUsdc",
        "label": "__gap",
        "offset": 0,
        "slot": "151",
        "type": "t_array(t_uint256)50_storage"
      },
      {
        "astId": 1087,
        "contract": "contracts/StrategyReaperSonneUsdc.sol:StrategyReaperSonneUsdc",
        "label": "__gap",
        "offset": 0,
        "slot": "201",
        "type": "t_array(t_uint256)50_storage"
      },
      {
        "astId": 10718,
        "contract": "contracts/StrategyReaperSonneUsdc.sol:StrategyReaperSonneUsdc",
        "label": "portfolioManager",
        "offset": 0,
        "slot": "251",
        "type": "t_address"
      },
      {
        "astId": 10720,
        "contract": "contracts/StrategyReaperSonneUsdc.sol:StrategyReaperSonneUsdc",
        "label": "swapSlippageBP",
        "offset": 0,
        "slot": "252",
        "type": "t_uint256"
      },
      {
        "astId": 10722,
        "contract": "contracts/StrategyReaperSonneUsdc.sol:StrategyReaperSonneUsdc",
        "label": "navSlippageBP",
        "offset": 0,
        "slot": "253",
        "type": "t_uint256"
      },
      {
        "astId": 11119,
        "contract": "contracts/StrategyReaperSonneUsdc.sol:StrategyReaperSonneUsdc",
        "label": "__gap",
        "offset": 0,
        "slot": "254",
        "type": "t_array(t_uint256)47_storage"
      },
      {
        "astId": 18362,
        "contract": "contracts/StrategyReaperSonneUsdc.sol:StrategyReaperSonneUsdc",
        "label": "usdcToken",
        "offset": 0,
        "slot": "301",
        "type": "t_contract(IERC20)2379"
      },
      {
        "astId": 18365,
        "contract": "contracts/StrategyReaperSonneUsdc.sol:StrategyReaperSonneUsdc",
        "label": "soUsdc",
        "offset": 0,
        "slot": "302",
        "type": "t_contract(IReaperVault)6594"
      }
    ],
    "types": {
      "t_address": {
        "encoding": "inplace",
        "label": "address",
        "numberOfBytes": "20"
      },
      "t_array(t_uint256)47_storage": {
        "base": "t_uint256",
        "encoding": "inplace",
        "label": "uint256[47]",
        "numberOfBytes": "1504"
      },
      "t_array(t_uint256)49_storage": {
        "base": "t_uint256",
        "encoding": "inplace",
        "label": "uint256[49]",
        "numberOfBytes": "1568"
      },
      "t_array(t_uint256)50_storage": {
        "base": "t_uint256",
        "encoding": "inplace",
        "label": "uint256[50]",
        "numberOfBytes": "1600"
      },
      "t_bool": {
        "encoding": "inplace",
        "label": "bool",
        "numberOfBytes": "1"
      },
      "t_bytes32": {
        "encoding": "inplace",
        "label": "bytes32",
        "numberOfBytes": "32"
      },
      "t_contract(IERC20)2379": {
        "encoding": "inplace",
        "label": "contract IERC20",
        "numberOfBytes": "20"
      },
      "t_contract(IReaperVault)6594": {
        "encoding": "inplace",
        "label": "contract IReaperVault",
        "numberOfBytes": "20"
      },
      "t_mapping(t_address,t_bool)": {
        "encoding": "mapping",
        "key": "t_address",
        "label": "mapping(address => bool)",
        "numberOfBytes": "32",
        "value": "t_bool"
      },
      "t_mapping(t_bytes32,t_struct(RoleData)34_storage)": {
        "encoding": "mapping",
        "key": "t_bytes32",
        "label": "mapping(bytes32 => struct AccessControlUpgradeable.RoleData)",
        "numberOfBytes": "32",
        "value": "t_struct(RoleData)34_storage"
      },
      "t_struct(RoleData)34_storage": {
        "encoding": "inplace",
        "label": "struct AccessControlUpgradeable.RoleData",
        "members": [
          {
            "astId": 31,
            "contract": "contracts/StrategyReaperSonneUsdc.sol:StrategyReaperSonneUsdc",
            "label": "members",
            "offset": 0,
            "slot": "0",
            "type": "t_mapping(t_address,t_bool)"
          },
          {
            "astId": 33,
            "contract": "contracts/StrategyReaperSonneUsdc.sol:StrategyReaperSonneUsdc",
            "label": "adminRole",
            "offset": 0,
            "slot": "1",
            "type": "t_bytes32"
          }
        ],
        "numberOfBytes": "64"
      },
      "t_uint256": {
        "encoding": "inplace",
        "label": "uint256",
        "numberOfBytes": "32"
      },
      "t_uint8": {
        "encoding": "inplace",
        "label": "uint8",
        "numberOfBytes": "1"
      }
    }
  }
}