{
  "address": "0x91843a478C8c4226224a11689CDc831e7e3C0F21",
  "abi": [
    {
      "inputs": [],
      "stateMutability": "nonpayable",
      "type": "constructor"
    },
    {
      "anonymous": false,
      "inputs": [
        {
          "indexed": false,
          "internalType": "address",
          "name": "previousAdmin",
          "type": "address"
        },
        {
          "indexed": false,
          "internalType": "address",
          "name": "newAdmin",
          "type": "address"
        }
      ],
      "name": "AdminChanged",
      "type": "event"
    },
    {
      "anonymous": false,
      "inputs": [
        {
          "indexed": true,
          "internalType": "address",
          "name": "beacon",
          "type": "address"
        }
      ],
      "name": "BeaconUpgraded",
      "type": "event"
    },
    {
      "anonymous": false,
      "inputs": [
        {
          "indexed": false,
          "internalType": "uint8",
          "name": "version",
          "type": "uint8"
        }
      ],
      "name": "Initialized",
      "type": "event"
    },
    {
      "anonymous": false,
      "inputs": [
        {
          "indexed": false,
          "internalType": "address",
          "name": "value",
          "type": "address"
        }
      ],
      "name": "PortfolioManagerUpdated",
      "type": "event"
    },
    {
      "anonymous": false,
      "inputs": [
        {
          "indexed": false,
          "internalType": "uint256",
          "name": "amount",
          "type": "uint256"
        }
      ],
      "name": "Reward",
      "type": "event"
    },
    {
      "anonymous": false,
      "inputs": [
        {
          "indexed": true,
          "internalType": "bytes32",
          "name": "role",
          "type": "bytes32"
        },
        {
          "indexed": true,
          "internalType": "bytes32",
          "name": "previousAdminRole",
          "type": "bytes32"
        },
        {
          "indexed": true,
          "internalType": "bytes32",
          "name": "newAdminRole",
          "type": "bytes32"
        }
      ],
      "name": "RoleAdminChanged",
      "type": "event"
    },
    {
      "anonymous": false,
      "inputs": [
        {
          "indexed": true,
          "internalType": "bytes32",
          "name": "role",
          "type": "bytes32"
        },
        {
          "indexed": true,
          "internalType": "address",
          "name": "account",
          "type": "address"
        },
        {
          "indexed": true,
          "internalType": "address",
          "name": "sender",
          "type": "address"
        }
      ],
      "name": "RoleGranted",
      "type": "event"
    },
    {
      "anonymous": false,
      "inputs": [
        {
          "indexed": true,
          "internalType": "bytes32",
          "name": "role",
          "type": "bytes32"
        },
        {
          "indexed": true,
          "internalType": "address",
          "name": "account",
          "type": "address"
        },
        {
          "indexed": true,
          "internalType": "address",
          "name": "sender",
          "type": "address"
        }
      ],
      "name": "RoleRevoked",
      "type": "event"
    },
    {
      "anonymous": false,
      "inputs": [
        {
          "indexed": false,
          "internalType": "uint256",
          "name": "swapSlippageBP",
          "type": "uint256"
        },
        {
          "indexed": false,
          "internalType": "uint256",
          "name": "navSlippageBP",
          "type": "uint256"
        }
      ],
      "name": "SlippagesUpdated",
      "type": "event"
    },
    {
      "anonymous": false,
      "inputs": [
        {
          "indexed": false,
          "internalType": "uint256",
          "name": "amount",
          "type": "uint256"
        }
      ],
      "name": "Stake",
      "type": "event"
    },
    {
      "anonymous": false,
      "inputs": [],
      "name": "StrategyUpdatedParams",
      "type": "event"
    },
    {
      "anonymous": false,
      "inputs": [
        {
          "indexed": false,
          "internalType": "uint256",
          "name": "amount",
          "type": "uint256"
        },
        {
          "indexed": false,
          "internalType": "uint256",
          "name": "amountReceived",
          "type": "uint256"
        }
      ],
      "name": "Unstake",
      "type": "event"
    },
    {
      "anonymous": false,
      "inputs": [
        {
          "indexed": true,
          "internalType": "address",
          "name": "implementation",
          "type": "address"
        }
      ],
      "name": "Upgraded",
      "type": "event"
    },
    {
      "inputs": [],
      "name": "DEFAULT_ADMIN_ROLE",
      "outputs": [
        {
          "internalType": "bytes32",
          "name": "",
          "type": "bytes32"
        }
      ],
      "stateMutability": "view",
      "type": "function"
    },
    {
      "inputs": [],
      "name": "PORTFOLIO_AGENT_ROLE",
      "outputs": [
        {
          "internalType": "bytes32",
          "name": "",
          "type": "bytes32"
        }
      ],
      "stateMutability": "view",
      "type": "function"
    },
    {
      "inputs": [],
      "name": "PORTFOLIO_MANAGER",
      "outputs": [
        {
          "internalType": "bytes32",
          "name": "",
          "type": "bytes32"
        }
      ],
      "stateMutability": "view",
      "type": "function"
    },
    {
      "inputs": [],
      "name": "arrakisRewards",
      "outputs": [
        {
          "internalType": "contract IArrakisRewards",
          "name": "",
          "type": "address"
        }
      ],
      "stateMutability": "view",
      "type": "function"
    },
    {
      "inputs": [],
      "name": "arrakisRouter",
      "outputs": [
        {
          "internalType": "contract IArrakisV1RouterStaking",
          "name": "",
          "type": "address"
        }
      ],
      "stateMutability": "view",
      "type": "function"
    },
    {
      "inputs": [],
      "name": "arrakisVault",
      "outputs": [
        {
          "internalType": "contract IArrakisVault",
          "name": "",
          "type": "address"
        }
      ],
      "stateMutability": "view",
      "type": "function"
    },
    {
      "inputs": [],
      "name": "bbRfADai",
      "outputs": [
        {
          "internalType": "contract IERC20",
          "name": "",
          "type": "address"
        }
      ],
      "stateMutability": "view",
      "type": "function"
    },
    {
      "inputs": [],
      "name": "bbRfAUsdc",
      "outputs": [
        {
          "internalType": "contract IERC20",
          "name": "",
          "type": "address"
        }
      ],
      "stateMutability": "view",
      "type": "function"
    },
    {
      "inputs": [],
      "name": "beethovenxPoolIdDai",
      "outputs": [
        {
          "internalType": "bytes32",
          "name": "",
          "type": "bytes32"
        }
      ],
      "stateMutability": "view",
      "type": "function"
    },
    {
      "inputs": [],
      "name": "beethovenxPoolIdDaiUsdtUsdc",
      "outputs": [
        {
          "internalType": "bytes32",
          "name": "",
          "type": "bytes32"
        }
      ],
      "stateMutability": "view",
      "type": "function"
    },
    {
      "inputs": [],
      "name": "beethovenxPoolIdUsdc",
      "outputs": [
        {
          "internalType": "bytes32",
          "name": "",
          "type": "bytes32"
        }
      ],
      "stateMutability": "view",
      "type": "function"
    },
    {
      "inputs": [],
      "name": "beethovenxVault",
      "outputs": [
        {
          "internalType": "contract IVault",
          "name": "",
          "type": "address"
        }
      ],
      "stateMutability": "view",
      "type": "function"
    },
    {
      "inputs": [
        {
          "internalType": "address",
          "name": "_to",
          "type": "address"
        }
      ],
      "name": "claimRewards",
      "outputs": [
        {
          "internalType": "uint256",
          "name": "",
          "type": "uint256"
        }
      ],
      "stateMutability": "nonpayable",
      "type": "function"
    },
    {
      "inputs": [],
      "name": "dai",
      "outputs": [
        {
          "internalType": "contract IERC20",
          "name": "",
          "type": "address"
        }
      ],
      "stateMutability": "view",
      "type": "function"
    },
    {
      "inputs": [],
      "name": "daiDm",
      "outputs": [
        {
          "internalType": "uint256",
          "name": "",
          "type": "uint256"
        }
      ],
      "stateMutability": "view",
      "type": "function"
    },
    {
      "inputs": [
        {
          "internalType": "bytes32",
          "name": "role",
          "type": "bytes32"
        }
      ],
      "name": "getRoleAdmin",
      "outputs": [
        {
          "internalType": "bytes32",
          "name": "",
          "type": "bytes32"
        }
      ],
      "stateMutability": "view",
      "type": "function"
    },
    {
      "inputs": [
        {
          "internalType": "bytes32",
          "name": "role",
          "type": "bytes32"
        },
        {
          "internalType": "address",
          "name": "account",
          "type": "address"
        }
      ],
      "name": "grantRole",
      "outputs": [],
      "stateMutability": "nonpayable",
      "type": "function"
    },
    {
      "inputs": [
        {
          "internalType": "bytes32",
          "name": "role",
          "type": "bytes32"
        },
        {
          "internalType": "address",
          "name": "account",
          "type": "address"
        }
      ],
      "name": "hasRole",
      "outputs": [
        {
          "internalType": "bool",
          "name": "",
          "type": "bool"
        }
      ],
      "stateMutability": "view",
      "type": "function"
    },
    {
      "inputs": [
        {
          "internalType": "uint256",
          "name": "_swapSlippageBP",
          "type": "uint256"
        },
        {
          "internalType": "uint256",
          "name": "_navSlippageBP",
          "type": "uint256"
        }
      ],
      "name": "initSlippages",
      "outputs": [],
      "stateMutability": "nonpayable",
      "type": "function"
    },
    {
      "inputs": [],
      "name": "initialize",
      "outputs": [],
      "stateMutability": "nonpayable",
      "type": "function"
    },
    {
      "inputs": [],
      "name": "kyberSwapRouter",
      "outputs": [
        {
          "internalType": "contract IRouter",
          "name": "",
          "type": "address"
        }
      ],
      "stateMutability": "view",
      "type": "function"
    },
    {
      "inputs": [],
      "name": "liquidationValue",
      "outputs": [
        {
          "internalType": "uint256",
          "name": "",
          "type": "uint256"
        }
      ],
      "stateMutability": "view",
      "type": "function"
    },
    {
      "inputs": [],
      "name": "navSlippageBP",
      "outputs": [
        {
          "internalType": "uint256",
          "name": "",
          "type": "uint256"
        }
      ],
      "stateMutability": "view",
      "type": "function"
    },
    {
      "inputs": [],
      "name": "netAssetValue",
      "outputs": [
        {
          "internalType": "uint256",
          "name": "",
          "type": "uint256"
        }
      ],
      "stateMutability": "view",
      "type": "function"
    },
    {
      "inputs": [],
      "name": "op",
      "outputs": [
        {
          "internalType": "contract IERC20",
          "name": "",
          "type": "address"
        }
      ],
      "stateMutability": "view",
      "type": "function"
    },
    {
      "inputs": [],
      "name": "oracleDai",
      "outputs": [
        {
          "internalType": "contract IPriceFeed",
          "name": "",
          "type": "address"
        }
      ],
      "stateMutability": "view",
      "type": "function"
    },
    {
      "inputs": [],
      "name": "oracleUsdc",
      "outputs": [
        {
          "internalType": "contract IPriceFeed",
          "name": "",
          "type": "address"
        }
      ],
      "stateMutability": "view",
      "type": "function"
    },
    {
      "inputs": [],
      "name": "poolUsdcDaiFee",
      "outputs": [
        {
          "internalType": "uint24",
          "name": "",
          "type": "uint24"
        }
      ],
      "stateMutability": "view",
      "type": "function"
    },
    {
      "inputs": [],
      "name": "poolUsdcOpFee",
      "outputs": [
        {
          "internalType": "uint24",
          "name": "",
          "type": "uint24"
        }
      ],
      "stateMutability": "view",
      "type": "function"
    },
    {
      "inputs": [],
      "name": "portfolioManager",
      "outputs": [
        {
          "internalType": "address",
          "name": "",
          "type": "address"
        }
      ],
      "stateMutability": "view",
      "type": "function"
    },
    {
      "inputs": [],
      "name": "proxiableUUID",
      "outputs": [
        {
          "internalType": "bytes32",
          "name": "",
          "type": "bytes32"
        }
      ],
      "stateMutability": "view",
      "type": "function"
    },
    {
      "inputs": [
        {
          "internalType": "bytes32",
          "name": "role",
          "type": "bytes32"
        },
        {
          "internalType": "address",
          "name": "account",
          "type": "address"
        }
      ],
      "name": "renounceRole",
      "outputs": [],
      "stateMutability": "nonpayable",
      "type": "function"
    },
    {
      "inputs": [
        {
          "internalType": "bytes32",
          "name": "role",
          "type": "bytes32"
        },
        {
          "internalType": "address",
          "name": "account",
          "type": "address"
        }
      ],
      "name": "revokeRole",
      "outputs": [],
      "stateMutability": "nonpayable",
      "type": "function"
    },
    {
      "inputs": [
        {
          "components": [
            {
              "internalType": "address",
              "name": "usdc",
              "type": "address"
            },
            {
              "internalType": "address",
              "name": "dai",
              "type": "address"
            },
            {
              "internalType": "address",
              "name": "op",
              "type": "address"
            },
            {
              "internalType": "address",
              "name": "arrakisRouter",
              "type": "address"
            },
            {
              "internalType": "address",
              "name": "arrakisRewards",
              "type": "address"
            },
            {
              "internalType": "address",
              "name": "arrakisVault",
              "type": "address"
            },
            {
              "internalType": "address",
              "name": "beethovenxVault",
              "type": "address"
            },
            {
              "internalType": "bytes32",
              "name": "beethovenxPoolIdUsdc",
              "type": "bytes32"
            },
            {
              "internalType": "bytes32",
              "name": "beethovenxPoolIdDaiUsdtUsdc",
              "type": "bytes32"
            },
            {
              "internalType": "bytes32",
              "name": "beethovenxPoolIdDai",
              "type": "bytes32"
            },
            {
              "internalType": "address",
              "name": "bbRfAUsdc",
              "type": "address"
            },
            {
              "internalType": "address",
              "name": "bbRfADai",
              "type": "address"
            },
            {
              "internalType": "address",
              "name": "uniswapV3Router",
              "type": "address"
            },
            {
              "internalType": "uint24",
              "name": "poolUsdcOpFee",
              "type": "uint24"
            },
            {
              "internalType": "address",
              "name": "oracleUsdc",
              "type": "address"
            },
            {
              "internalType": "address",
              "name": "oracleDai",
              "type": "address"
            },
            {
              "internalType": "address",
              "name": "kyberSwapRouter",
              "type": "address"
            },
            {
              "internalType": "uint24",
              "name": "poolUsdcDaiFee",
              "type": "uint24"
            }
          ],
          "internalType": "struct StrategyArrakisUsdcDai.StrategyParams",
          "name": "params",
          "type": "tuple"
        }
      ],
      "name": "setParams",
      "outputs": [],
      "stateMutability": "nonpayable",
      "type": "function"
    },
    {
      "inputs": [
        {
          "internalType": "address",
          "name": "_value",
          "type": "address"
        }
      ],
      "name": "setPortfolioManager",
      "outputs": [],
      "stateMutability": "nonpayable",
      "type": "function"
    },
    {
      "inputs": [
        {
          "internalType": "uint256",
          "name": "_swapSlippageBP",
          "type": "uint256"
        },
        {
          "internalType": "uint256",
          "name": "_navSlippageBP",
          "type": "uint256"
        }
      ],
      "name": "setSlippages",
      "outputs": [],
      "stateMutability": "nonpayable",
      "type": "function"
    },
    {
      "inputs": [
        {
          "internalType": "address",
          "name": "_asset",
          "type": "address"
        },
        {
          "internalType": "uint256",
          "name": "_amount",
          "type": "uint256"
        }
      ],
      "name": "stake",
      "outputs": [],
      "stateMutability": "nonpayable",
      "type": "function"
    },
    {
      "inputs": [
        {
          "internalType": "bytes4",
          "name": "interfaceId",
          "type": "bytes4"
        }
      ],
      "name": "supportsInterface",
      "outputs": [
        {
          "internalType": "bool",
          "name": "",
          "type": "bool"
        }
      ],
      "stateMutability": "view",
      "type": "function"
    },
    {
      "inputs": [],
      "name": "swapSlippageBP",
      "outputs": [
        {
          "internalType": "uint256",
          "name": "",
          "type": "uint256"
        }
      ],
      "stateMutability": "view",
      "type": "function"
    },
    {
      "inputs": [],
      "name": "uniswapV3Router",
      "outputs": [
        {
          "internalType": "contract ISwapRouter",
          "name": "",
          "type": "address"
        }
      ],
      "stateMutability": "view",
      "type": "function"
    },
    {
      "inputs": [
        {
          "internalType": "address",
          "name": "_asset",
          "type": "address"
        },
        {
          "internalType": "uint256",
          "name": "_amount",
          "type": "uint256"
        },
        {
          "internalType": "address",
          "name": "_beneficiary",
          "type": "address"
        },
        {
          "internalType": "bool",
          "name": "_targetIsZero",
          "type": "bool"
        }
      ],
      "name": "unstake",
      "outputs": [
        {
          "internalType": "uint256",
          "name": "",
          "type": "uint256"
        }
      ],
      "stateMutability": "nonpayable",
      "type": "function"
    },
    {
      "inputs": [
        {
          "internalType": "address",
          "name": "newImplementation",
          "type": "address"
        }
      ],
      "name": "upgradeTo",
      "outputs": [],
      "stateMutability": "nonpayable",
      "type": "function"
    },
    {
      "inputs": [
        {
          "internalType": "address",
          "name": "newImplementation",
          "type": "address"
        },
        {
          "internalType": "bytes",
          "name": "data",
          "type": "bytes"
        }
      ],
      "name": "upgradeToAndCall",
      "outputs": [],
      "stateMutability": "payable",
      "type": "function"
    },
    {
      "inputs": [],
      "name": "usdc",
      "outputs": [
        {
          "internalType": "contract IERC20",
          "name": "",
          "type": "address"
        }
      ],
      "stateMutability": "view",
      "type": "function"
    },
    {
      "inputs": [],
      "name": "usdcDm",
      "outputs": [
        {
          "internalType": "uint256",
          "name": "",
          "type": "uint256"
        }
      ],
      "stateMutability": "view",
      "type": "function"
    }
  ],
  "numDeployments": 2,
  "solcInputHash": "ba0422ff09b0635801acb92377d9873e",
  "bytecode": "0x60a06040523060601b6080523480156200001857600080fd5b50600054610100900460ff16158080156200003a5750600054600160ff909116105b806200006a575062000057306200014460201b620019371760201c565b1580156200006a575060005460ff166001145b620000d25760405162461bcd60e51b815260206004820152602e60248201527f496e697469616c697a61626c653a20636f6e747261637420697320616c72656160448201526d191e481a5b9a5d1a585b1a5e995960921b606482015260840160405180910390fd5b6000805460ff191660011790558015620000f6576000805461ff0019166101001790555b80156200013d576000805461ff0019169055604051600181527f7f26b83ff96e1f2b6a682f133852f6798a09c465da95921460cefb38474024989060200160405180910390a15b5062000153565b6001600160a01b03163b151590565b60805160601c614ddb6200018e60003960008181610990015281816109d001528181610a7001528181610ab00152610b3f0152614ddb6000f3fe6080604052600436106102725760003560e01c80637d5f58021161014f578063adc9772e116100c1578063e401e1961161007a578063e401e19614610757578063eafb46011461077b578063ec1f1f691461079c578063ef5cfb8c146107bd578063f4b9fa75146107dd578063f6f6b881146107fe57600080fd5b8063adc9772e146106b2578063b2b59fcc146106d2578063bf52e080146106e9578063cbf8b713146106ff578063d1b6137f14610716578063d547741f1461073757600080fd5b806391d148541161011357806391d14854146106065780639ad126cb14610626578063a217fddf14610647578063a3673b381461065c578063a440b21a14610671578063ad79a4c01461069157600080fd5b80637d5f580214610560578063811766fa146105825780638129fc1c14610599578063858fd101146105ae57806386bd42f4146105e657600080fd5b806336568abe116101e857806352d1902d116101ac57806352d1902d146104955780635dbd733a146104aa5780635f07c5f3146104de5780635fea9cbb146104ff578063620b75df146105205780636b42c5761461054057600080fd5b806336568abe1461040a5780633659cfe61461042a5780633962d1f11461044a5780633e413bee146104615780634f1ef2861461048257600080fd5b80631b1e7ddc1161023a5780631b1e7ddc1461034c5780631ef6f32714610363578063248a9ca3146103845780632576e65a146103b45780632c76d7a6146103c95780632f2ff15d146103ea57600080fd5b806301ffc9a7146102775780630eee4d2b146102ac578063119cd879146102e5578063146a4d2b1461030957806318bc0faa1461032a575b600080fd5b34801561028357600080fd5b50610297610292366004614526565b61081e565b60405190151581526020015b60405180910390f35b3480156102b857600080fd5b50610130546102cd906001600160a01b031681565b6040516001600160a01b0390911681526020016102a3565b3480156102f157600080fd5b506102fb60fd5481565b6040519081526020016102a3565b34801561031557600080fd5b50610133546102cd906001600160a01b031681565b34801561033657600080fd5b5061034a61034536600461458e565b610855565b005b34801561035857600080fd5b506102fb61013c5481565b34801561036f57600080fd5b5061013e546102cd906001600160a01b031681565b34801561039057600080fd5b506102fb61039f3660046144c8565b60009081526065602052604090206001015490565b3480156103c057600080fd5b506102fb6108cc565b3480156103d557600080fd5b50610139546102cd906001600160a01b031681565b3480156103f657600080fd5b5061034a6104053660046144fa565b6108dd565b34801561041657600080fd5b5061034a6104253660046144fa565b610907565b34801561043657600080fd5b5061034a6104453660046142c4565b610985565b34801561045657600080fd5b506102fb6101365481565b34801561046d57600080fd5b5061012d546102cd906001600160a01b031681565b61034a6104903660046142df565b610a65565b3480156104a157600080fd5b506102fb610b32565b3480156104b657600080fd5b506102fb7fd67ad422505496469a1adf6cdf9e5ee92ac5d33992843c9ecc4b2f6d6cde913781565b3480156104ea57600080fd5b5061013b546102cd906001600160a01b031681565b34801561050b57600080fd5b5061013a546102cd906001600160a01b031681565b34801561052c57600080fd5b5060fb546102cd906001600160a01b031681565b34801561054c57600080fd5b5061034a61055b36600461458e565b610be5565b34801561056c57600080fd5b506102fb600080516020614d3f83398151915281565b34801561058e57600080fd5b506102fb61013d5481565b3480156105a557600080fd5b5061034a610d0d565b3480156105ba57600080fd5b50610139546105d290600160a01b900462ffffff1681565b60405162ffffff90911681526020016102a3565b3480156105f257600080fd5b5061034a610601366004614550565b610dd7565b34801561061257600080fd5b506102976106213660046144fa565b611254565b34801561063257600080fd5b50610137546102cd906001600160a01b031681565b34801561065357600080fd5b506102fb600081565b34801561066857600080fd5b506102fb61127f565b34801561067d57600080fd5b5061034a61068c3660046142c4565b61128b565b34801561069d57600080fd5b50610138546102cd906001600160a01b031681565b3480156106be57600080fd5b5061034a6106cd366004614385565b611393565b3480156106de57600080fd5b506102fb6101355481565b3480156106f557600080fd5b506102fb60fc5481565b34801561070b57600080fd5b506102fb6101345481565b34801561072257600080fd5b50610132546102cd906001600160a01b031681565b34801561074357600080fd5b5061034a6107523660046144fa565b6115c2565b34801561076357600080fd5b5061013e546105d290600160a01b900462ffffff1681565b34801561078757600080fd5b50610131546102cd906001600160a01b031681565b3480156107a857600080fd5b5061012f546102cd906001600160a01b031681565b3480156107c957600080fd5b506102fb6107d83660046142c4565b6115e7565b3480156107e957600080fd5b5061012e546102cd906001600160a01b031681565b34801561080a57600080fd5b506102fb6108193660046143af565b61166c565b60006001600160e01b03198216637965db0b60e01b148061084f57506301ffc9a760e01b6001600160e01b03198316145b92915050565b610860600033611254565b6108855760405162461bcd60e51b815260040161087c90614a7f565b60405180910390fd5b60fc82905560fd81905560408051838152602081018390527fce5a32eeae390ce399fd83b29e4bee51b2b1a5898dc3575411e3a498f4f552a0910160405180910390a15050565b60006108d86000611946565b905090565b6000828152606560205260409020600101546108f881611ce3565b6109028383611ced565b505050565b6001600160a01b03811633146109775760405162461bcd60e51b815260206004820152602f60248201527f416363657373436f6e74726f6c3a2063616e206f6e6c792072656e6f756e636560448201526e103937b632b9903337b91039b2b63360891b606482015260840161087c565b6109818282611d73565b5050565b306001600160a01b037f00000000000000000000000000000000000000000000000000000000000000001614156109ce5760405162461bcd60e51b815260040161087c90614999565b7f00000000000000000000000000000000000000000000000000000000000000006001600160a01b0316610a17600080516020614d5f833981519152546001600160a01b031690565b6001600160a01b031614610a3d5760405162461bcd60e51b815260040161087c906149e5565b610a4681611dda565b60408051600080825260208201909252610a6291839190611de5565b50565b306001600160a01b037f0000000000000000000000000000000000000000000000000000000000000000161415610aae5760405162461bcd60e51b815260040161087c90614999565b7f00000000000000000000000000000000000000000000000000000000000000006001600160a01b0316610af7600080516020614d5f833981519152546001600160a01b031690565b6001600160a01b031614610b1d5760405162461bcd60e51b815260040161087c906149e5565b610b2682611dda565b61098182826001611de5565b6000306001600160a01b037f00000000000000000000000000000000000000000000000000000000000000001614610bd25760405162461bcd60e51b815260206004820152603860248201527f555550535570677261646561626c653a206d757374206e6f742062652063616c60448201527f6c6564207468726f7567682064656c656761746563616c6c0000000000000000606482015260840161087c565b50600080516020614d5f83398151915290565b610c0f7fd67ad422505496469a1adf6cdf9e5ee92ac5d33992843c9ecc4b2f6d6cde913733611254565b80610cb6575060fb54604051632474521560e21b81527fd67ad422505496469a1adf6cdf9e5ee92ac5d33992843c9ecc4b2f6d6cde913760048201523360248201526001600160a01b03909116906391d148549060440160206040518083038186803b158015610c7e57600080fd5b505afa158015610c92573d6000803e3d6000fd5b505050506040513d601f19601f82011682018060405250810190610cb691906144ab565b6108855760405162461bcd60e51b815260206004820152602260248201527f5265737472696374656420746f20504f5254464f4c494f5f4147454e545f524f6044820152614c4560f01b606482015260840161087c565b600054610100900460ff1615808015610d2d5750600054600160ff909116105b80610d475750303b158015610d47575060005460ff166001145b610d635760405162461bcd60e51b815260040161087c90614a31565b6000805460ff191660011790558015610d86576000805461ff0019166101001790555b610d8e611f5f565b8015610a62576000805461ff0019169055604051600181527f7f26b83ff96e1f2b6a682f133852f6798a09c465da95921460cefb3847402498906020015b60405180910390a150565b610de2600033611254565b610dfe5760405162461bcd60e51b815260040161087c90614a7f565b610e0b60208201826142c4565b61012d80546001600160a01b0319166001600160a01b0392909216919091179055610e3c60408201602083016142c4565b61012e80546001600160a01b0319166001600160a01b0392909216919091179055610e6d60608201604083016142c4565b61012f80546001600160a01b0319166001600160a01b0392909216919091179055610e9e60808201606083016142c4565b61013080546001600160a01b0319166001600160a01b0392909216919091179055610ecf60a08201608083016142c4565b61013180546001600160a01b0319166001600160a01b0392909216919091179055610f0060c0820160a083016142c4565b61013280546001600160a01b0319166001600160a01b0392909216919091179055610f3160e0820160c083016142c4565b61013380546001600160a01b0319166001600160a01b039290921691909117905560e0810135610134556101008101356101355561012081013561013655610f81610160820161014083016142c4565b61013780546001600160a01b0319166001600160a01b0392909216919091179055610fb4610180820161016083016142c4565b61013880546001600160a01b0319166001600160a01b0392909216919091179055610fe76101a0820161018083016142c4565b61013980546001600160a01b0319166001600160a01b039290921691909117905561101a6101c082016101a08301614569565b610139805462ffffff92909216600160a01b0262ffffff60a01b199092169190911790556110506101e082016101c083016142c4565b61013a80546001600160a01b0319166001600160a01b039290921691909117905561108361020082016101e083016142c4565b61013b80546001600160a01b0319166001600160a01b03929092169190911790556110b160208201826142c4565b6001600160a01b031663313ce5676040518163ffffffff1660e01b815260040160206040518083038186803b1580156110e957600080fd5b505afa1580156110fd573d6000803e3d6000fd5b505050506040513d601f19601f820116820180604052508101906111219190614650565b61112c90600a614b92565b61013c5561114060408201602083016142c4565b6001600160a01b031663313ce5676040518163ffffffff1660e01b815260040160206040518083038186803b15801561117857600080fd5b505afa15801561118c573d6000803e3d6000fd5b505050506040513d601f19601f820116820180604052508101906111b09190614650565b6111bb90600a614b92565b61013d556111d1610220820161020083016142c4565b61013e80546001600160a01b0319166001600160a01b039290921691909117905561120461024082016102208301614569565b61013e805462ffffff92909216600160a01b0262ffffff60a01b199092169190911790556040517fea5646eb3528e525944447a4a97de700dd472298626e5c0481d1c82c3da86ea590600090a150565b60009182526065602090815260408084206001600160a01b0393909316845291905290205460ff1690565b60006108d86001611946565b611296600033611254565b6112b25760405162461bcd60e51b815260040161087c90614a7f565b6001600160a01b0381166113085760405162461bcd60e51b815260206004820152601860248201527f5a65726f2061646472657373206e6f7420616c6c6f7765640000000000000000604482015260640161087c565b60fb5461132d90600080516020614d3f833981519152906001600160a01b03166115c2565b611345600080516020614d3f833981519152826108dd565b60fb80546001600160a01b0319166001600160a01b0383169081179091556040519081527ff7b449fcd5cfb7379dcd34cb69428dd9f882033b15be33d83b42d91daa28eeb790602001610dcc565b6113ab600080516020614d3f83398151915233611254565b6113c75760405162461bcd60e51b815260040161087c90614962565b6000611445306001600160a01b031663a3673b386040518163ffffffff1660e01b815260040160206040518083038186803b15801561140557600080fd5b505afa158015611419573d6000803e3d6000fd5b505050506040513d601f19601f8201168201806040525081019061143d91906144e1565b60fd5461203f565b6040516370a0823160e01b81523060048201529091506114ca9084906001600160a01b038216906370a082319060240160206040518083038186803b15801561148d57600080fd5b505afa1580156114a1573d6000803e3d6000fd5b505050506040513d601f19601f820116820180604052508101906114c591906144e1565b612069565b80306001600160a01b031663a3673b386040518163ffffffff1660e01b815260040160206040518083038186803b15801561150457600080fd5b505afa158015611518573d6000803e3d6000fd5b505050506040513d601f19601f8201168201806040525081019061153c91906144e1565b101561158a5760405162461bcd60e51b815260206004820152601f60248201527f5374726174656779204e4156206c657373207468616e20657870656374656400604482015260640161087c565b6040518281527f227a473b70d2f893cc7659219575c030a63b5743024fe1e0c1a680e708b1525a9060200160405180910390a1505050565b6000828152606560205260409020600101546115dd81611ce3565b6109028383611d73565b6000611601600080516020614d3f83398151915233611254565b61161d5760405162461bcd60e51b815260040161087c90614962565b60006116288361258a565b90508015611664576040518181527f3ac0594a85a20354f9dc74f33728416d19ce00d04a406c108cc2dcf2cecea1349060200160405180910390a15b90505b919050565b6000611686600080516020614d3f83398151915233611254565b6116a25760405162461bcd60e51b815260040161087c90614962565b60006116e0306001600160a01b031663a3673b386040518163ffffffff1660e01b815260040160206040518083038186803b15801561140557600080fd5b90506000808415611707576116f48661258a565b905061170088876127d9565b9150611776565b611712888888612d39565b9150868210156117765760405162461bcd60e51b815260206004820152602960248201527f52657475726e65642076616c7565206c657373207468616e2072657175657374604482015268195908185b5bdd5b9d60ba1b606482015260840161087c565b82306001600160a01b031663a3673b386040518163ffffffff1660e01b815260040160206040518083038186803b1580156117b057600080fd5b505afa1580156117c4573d6000803e3d6000fd5b505050506040513d601f19601f820116820180604052508101906117e891906144e1565b10156118365760405162461bcd60e51b815260206004820152601f60248201527f5374726174656779204e4156206c657373207468616e20657870656374656400604482015260640161087c565b60405163a9059cbb60e01b81526001600160a01b0387811660048301526024820184905289169063a9059cbb90604401602060405180830381600087803b15801561188057600080fd5b505af1158015611894573d6000803e3d6000fd5b505050506040513d601f19601f820116820180604052508101906118b891906144ab565b5060408051888152602081018490527f9045c2ac9b2026de8075f2701bbdde882cd5e830b3b1ead9a15b22f2b5b93742910160405180910390a1801561192c576040518181527f3ac0594a85a20354f9dc74f33728416d19ce00d04a406c108cc2dcf2cecea1349060200160405180910390a15b509695505050505050565b6001600160a01b03163b151590565b61012d546040516370a0823160e01b815230600482015260009182916001600160a01b03909116906370a082319060240160206040518083038186803b15801561198f57600080fd5b505afa1580156119a3573d6000803e3d6000fd5b505050506040513d601f19601f820116820180604052508101906119c791906144e1565b61012e546040516370a0823160e01b81523060048201529192506000916001600160a01b03909116906370a082319060240160206040518083038186803b158015611a1157600080fd5b505afa158015611a25573d6000803e3d6000fd5b505050506040513d601f19601f82011682018060405250810190611a4991906144e1565b610131546040516370a0823160e01b81523060048201529192506000916001600160a01b03909116906370a082319060240160206040518083038186803b158015611a9357600080fd5b505afa158015611aa7573d6000803e3d6000fd5b505050506040513d601f19601f82011682018060405250810190611acb91906144e1565b90508015611ca65761013254604080516304c8b65560e21b8152815160009384936001600160a01b0390911692631322d9549260048083019392829003018186803b158015611b1957600080fd5b505afa158015611b2d573d6000803e3d6000fd5b505050506040513d601f19601f82011682018060405250810190611b5191906145b0565b9150915061013260009054906101000a90046001600160a01b03166001600160a01b03166318160ddd6040518163ffffffff1660e01b815260040160206040518083038186803b158015611ba457600080fd5b505afa158015611bb8573d6000803e3d6000fd5b505050506040513d601f19601f82011682018060405250810190611bdc91906144e1565b611be68484614c3d565b611bf09190614b2d565b611bfa9086614b15565b945061013260009054906101000a90046001600160a01b03166001600160a01b03166318160ddd6040518163ffffffff1660e01b815260040160206040518083038186803b158015611c4b57600080fd5b505afa158015611c5f573d6000803e3d6000fd5b505050506040513d601f19601f82011682018060405250810190611c8391906144e1565b611c8d8483614c3d565b611c979190614b2d565b611ca19085614b15565b935050505b8115611cda576000611cb783613285565b905085611ccc57611cc981600161203f565b90505b611cd68185614b15565b9350505b50909392505050565b610a6281336133b7565b611cf78282611254565b6109815760008281526065602090815260408083206001600160a01b03851684529091529020805460ff19166001179055611d2f3390565b6001600160a01b0316816001600160a01b0316837f2f8788117e7eff1d82e926ec794901d17c78024a50270940304540a733656f0d60405160405180910390a45050565b611d7d8282611254565b156109815760008281526065602090815260408083206001600160a01b0385168085529252808320805460ff1916905551339285917ff6391f5c32d9c69d2a47ea670b442974b53935d1edc7fd64eb21e047a839171b9190a45050565b600061098181611ce3565b7f4910fdfa16fed3260ed0e7147f7cc6da11a60208b5b9406d12a635614ffd91435460ff1615611e18576109028361341b565b826001600160a01b03166352d1902d6040518163ffffffff1660e01b815260040160206040518083038186803b158015611e5157600080fd5b505afa925050508015611e81575060408051601f3d908101601f19168201909252611e7e918101906144e1565b60015b611ee45760405162461bcd60e51b815260206004820152602e60248201527f45524331393637557067726164653a206e657720696d706c656d656e7461746960448201526d6f6e206973206e6f74205555505360901b606482015260840161087c565b600080516020614d5f8339815191528114611f535760405162461bcd60e51b815260206004820152602960248201527f45524331393637557067726164653a20756e737570706f727465642070726f786044820152681a58589b195555525160ba1b606482015260840161087c565b506109028383836134b7565b600054610100900460ff1615808015611f7f5750600054600160ff909116105b80611f995750303b158015611f99575060005460ff166001145b611fb55760405162461bcd60e51b815260040161087c90614a31565b6000805460ff191660011790558015611fd8576000805461ff0019166101001790555b611fe06134e2565b611fe86134e2565b611ff3600033611ced565b601460fc81905560fd558015610a62576000805461ff0019169055604051600181527f7f26b83ff96e1f2b6a682f133852f6798a09c465da95921460cefb384740249890602001610dcc565b600061271061204e8382614c5c565b6120589085614c3d565b6120629190614b2d565b9392505050565b61012d546001600160a01b038381169116146120975760405162461bcd60e51b815260040161087c90614aad565b61013254604080516304c8b65560e21b8152815160009384936001600160a01b0390911692631322d9549260048083019392829003018186803b1580156120dd57600080fd5b505afa1580156120f1573d6000803e3d6000fd5b505050506040513d601f19601f8201168201806040525081019061211591906145b0565b61012d546040516370a0823160e01b81523060048201529294509092506000916001600160a01b03909116906370a082319060240160206040518083038186803b15801561216257600080fd5b505afa158015612176573d6000803e3d6000fd5b505050506040513d601f19601f8201168201806040525081019061219a91906144e1565b6040805161018081018252610133546001600160a01b0390811682526000602080840182905261012d5483168486015261013754831660608086019190915261013854841660808087019190915261012e5490941660a0808701919091526101345460c0808801919091526101355460e080890191909152610136546101008901526101208801869052306101408901819052610160890152885190810189528981529384018590529683018b905290820189905261013c549382019390935261013d5492810192909252600193820193909352929350919061227d838361354f565b610120840181905290506122908361361f565b5061012d546040516370a0823160e01b81523060048201526000916001600160a01b0316906370a082319060240160206040518083038186803b1580156122d657600080fd5b505afa1580156122ea573d6000803e3d6000fd5b505050506040513d601f19601f8201168201806040525081019061230e91906144e1565b61012e546040516370a0823160e01b81523060048201529192506000916001600160a01b03909116906370a082319060240160206040518083038186803b15801561235857600080fd5b505afa15801561236c573d6000803e3d6000fd5b505050506040513d601f19601f8201168201806040525081019061239091906144e1565b61012d546101305460405163095ea7b360e01b81526001600160a01b03918216600482015260248101869052929350169063095ea7b390604401602060405180830381600087803b1580156123e457600080fd5b505af11580156123f8573d6000803e3d6000fd5b505050506040513d601f19601f8201168201806040525081019061241c91906144ab565b5061012e546101305460405163095ea7b360e01b81526001600160a01b0391821660048201526024810184905291169063095ea7b390604401602060405180830381600087803b15801561246f57600080fd5b505af1158015612483573d6000803e3d6000fd5b505050506040513d601f19601f820116820180604052508101906124a791906144ab565b50610130546101315460fc546001600160a01b039283169263046e4922921690859085906124d690839061203f565b6124e28760fc5461203f565b6040516001600160e01b031960e088901b1681526001600160a01b03909516600486015260248501939093526044840191909152606483015260848201523060a482015260c401606060405180830381600087803b15801561254357600080fd5b505af1158015612557573d6000803e3d6000fd5b505050506040513d601f19601f8201168201806040525081019061257b9190614622565b50505050505050505050505050565b610131546040516370a0823160e01b815230600482015260009182916001600160a01b03909116906370a082319060240160206040518083038186803b1580156125d357600080fd5b505afa1580156125e7573d6000803e3d6000fd5b505050506040513d601f19601f8201168201806040525081019061260b91906144e1565b11156126705761013154604051634274debf60e11b81523060048201526001600160a01b03909116906384e9bd7e90602401600060405180830381600087803b15801561265757600080fd5b505af115801561266b573d6000803e3d6000fd5b505050505b61012f546040516370a0823160e01b815230600482015260009182916001600160a01b03909116906370a082319060240160206040518083038186803b1580156126b957600080fd5b505afa1580156126cd573d6000803e3d6000fd5b505050506040513d601f19601f820116820180604052508101906126f191906144e1565b90508015612743576101395461012f5461012d54600092612733926001600160a01b038083169391811692911690600160a01b900462ffffff163087876139f1565b905061273f8184614b15565b9250505b81156127d25761012d5460405163a9059cbb60e01b81526001600160a01b038681166004830152602482018590529091169063a9059cbb90604401602060405180830381600087803b15801561279857600080fd5b505af11580156127ac573d6000803e3d6000fd5b505050506040513d601f19601f820116820180604052508101906127d091906144ab565b505b5092915050565b61012d546000906001600160a01b0384811691161461280a5760405162461bcd60e51b815260040161087c90614aad565b610131546040516370a0823160e01b81523060048201526000916001600160a01b0316906370a082319060240160206040518083038186803b15801561284f57600080fd5b505afa158015612863573d6000803e3d6000fd5b505050506040513d601f19601f8201168201806040525081019061288791906144e1565b90508061289857600091505061084f565b61013254604080516304c8b65560e21b8152815160009384936001600160a01b0390911692631322d9549260048083019392829003018186803b1580156128de57600080fd5b505afa1580156128f2573d6000803e3d6000fd5b505050506040513d601f19601f8201168201806040525081019061291691906145b0565b91509150600061013260009054906101000a90046001600160a01b03166001600160a01b03166318160ddd6040518163ffffffff1660e01b815260040160206040518083038186803b15801561296b57600080fd5b505afa15801561297f573d6000803e3d6000fd5b505050506040513d601f19601f820116820180604052508101906129a391906144e1565b6129ad8585614c3d565b6129b79190614b2d565b9050600061013260009054906101000a90046001600160a01b03166001600160a01b03166318160ddd6040518163ffffffff1660e01b815260040160206040518083038186803b158015612a0a57600080fd5b505afa158015612a1e573d6000803e3d6000fd5b505050506040513d601f19601f82011682018060405250810190612a4291906144e1565b612a4c8685614c3d565b612a569190614b2d565b610131546101305460405163095ea7b360e01b81526001600160a01b03918216600482015260248101899052929350169063095ea7b390604401602060405180830381600087803b158015612aaa57600080fd5b505af1158015612abe573d6000803e3d6000fd5b505050506040513d601f19601f82011682018060405250810190612ae291906144ab565b50610130546101315460fc546001600160a01b039283169263b83a75b39216908890612b0f90879061203f565b612b1b8660fc5461203f565b6040516001600160e01b031960e087901b1681526001600160a01b03909416600485015260248401929092526044830152606482015230608482015260a401606060405180830381600087803b158015612b7457600080fd5b505af1158015612b88573d6000803e3d6000fd5b505050506040513d601f19601f82011682018060405250810190612bac91906145d4565b50506040805161018081018252610133546001600160a01b03908116825260006020830181905261012e5482168385018190526101385483166060850152610137548316608085015261012d5490921660a08401526101365460c08401526101355460e08401526101345461010084015292516370a0823160e01b81523060048201529293509091610120830191906370a082319060240160206040518083038186803b158015612c5c57600080fd5b505afa158015612c70573d6000803e3d6000fd5b505050506040513d601f19601f82011682018060405250810190612c9491906144e1565b815230602082018190526040909101529050612caf8161361f565b5061012d546040516370a0823160e01b81523060048201526001600160a01b03909116906370a082319060240160206040518083038186803b158015612cf457600080fd5b505afa158015612d08573d6000803e3d6000fd5b505050506040513d601f19601f82011682018060405250810190612d2c91906144e1565b9998505050505050505050565b61012d546000906001600160a01b03858116911614612d6a5760405162461bcd60e51b815260040161087c90614aad565b61013254604080516304c8b65560e21b8152815160009384936001600160a01b0390911692631322d9549260048083019392829003018186803b158015612db057600080fd5b505afa158015612dc4573d6000803e3d6000fd5b505050506040513d601f19601f82011682018060405250810190612de891906145b0565b91509150600061013260009054906101000a90046001600160a01b03166001600160a01b03166318160ddd6040518163ffffffff1660e01b815260040160206040518083038186803b158015612e3d57600080fd5b505afa158015612e51573d6000803e3d6000fd5b505050506040513d601f19601f82011682018060405250810190612e7591906144e1565b6040805161018081018252610133546001600160a01b03908116825260006020830181905261012e548216838501526101385482166060840152610137548216608084015261012d5490911660a08301526101365460c08301526101355460e0808401919091526101345461010084015261012083018290523061014084018190526101608401528351908101909352929350919080612f20612f198b600a614b15565b6001613b4a565b815261013254604080516318160ddd60e01b815290516020938401936001600160a01b03909316926318160ddd9260048082019391829003018186803b158015612f6957600080fd5b505afa158015612f7d573d6000803e3d6000fd5b505050506040513d601f19601f82011682018060405250810190612fa191906144e1565b815260200186815260200185815260200161013c54815260200161013d548152602001600181525090506000612fd78383613b59565b905083811115612fe45750825b600084612ff18389614c3d565b612ffb9190614b2d565b905060008561300a8489614c3d565b6130149190614b2d565b610131546101305460405163095ea7b360e01b81526001600160a01b03918216600482015260248101879052929350169063095ea7b390604401602060405180830381600087803b15801561306857600080fd5b505af115801561307c573d6000803e3d6000fd5b505050506040513d601f19601f820116820180604052508101906130a091906144ab565b50610130546101315460fc546001600160a01b039283169263b83a75b392169086906130cd90879061203f565b6130d98660fc5461203f565b6040516001600160e01b031960e087901b1681526001600160a01b03909416600485015260248401929092526044830152606482015230608482015260a401606060405180830381600087803b15801561313257600080fd5b505af1158015613146573d6000803e3d6000fd5b505050506040513d601f19601f8201168201806040525081019061316a91906145d4565b505061012e546040516370a0823160e01b81523060048201526001600160a01b0390911691506370a082319060240160206040518083038186803b1580156131b157600080fd5b505afa1580156131c5573d6000803e3d6000fd5b505050506040513d601f19601f820116820180604052508101906131e991906144e1565b6101208601526131f88561361f565b5061012d546040516370a0823160e01b81523060048201526001600160a01b03909116906370a082319060240160206040518083038186803b15801561323d57600080fd5b505afa158015613251573d6000803e3d6000fd5b505050506040513d601f19601f8201168201806040525081019061327591906144e1565b9c9b505050505050505050505050565b60008061013b60009054906101000a90046001600160a01b03166001600160a01b03166350d25bcd6040518163ffffffff1660e01b815260040160206040518083038186803b1580156132d757600080fd5b505afa1580156132eb573d6000803e3d6000fd5b505050506040513d601f19601f8201168201806040525081019061330f91906144e1565b9050600061013a60009054906101000a90046001600160a01b03166001600160a01b03166350d25bcd6040518163ffffffff1660e01b815260040160206040518083038186803b15801561336257600080fd5b505afa158015613376573d6000803e3d6000fd5b505050506040513d601f19601f8201168201806040525081019061339a91906144e1565b90506133af8461013d5461013c548585613c4d565b949350505050565b6133c18282611254565b610981576133d9816001600160a01b03166014613c82565b6133e4836020613c82565b6040516020016133f59291906147aa565b60408051601f198184030181529082905262461bcd60e51b825261087c9160040161494f565b6001600160a01b0381163b6134885760405162461bcd60e51b815260206004820152602d60248201527f455243313936373a206e657720696d706c656d656e746174696f6e206973206e60448201526c1bdd08184818dbdb9d1c9858dd609a1b606482015260840161087c565b600080516020614d5f83398151915280546001600160a01b0319166001600160a01b0392909216919091179055565b6134c083613e1e565b6000825111806134cd5750805b15610902576134dc8383613e5e565b50505050565b600054610100900460ff1661354d5760405162461bcd60e51b815260206004820152602b60248201527f496e697469616c697a61626c653a20636f6e7472616374206973206e6f74206960448201526a6e697469616c697a696e6760a81b606482015260840161087c565b565b6000816060015182608001518360a00151846040015161356f9190614c3d565b6135799190614b2d565b6135839190614b15565b606083015183516135949190614c3d565b61359e9190614b2d565b905060005b8260c001518110156127d257610120840182905260006135c285613f52565b90508360600151838286604001516135da9190614c3d565b6135e49190614b2d565b6135ee9190614b15565b606085015185516135ff9190614c3d565b6136099190614b2d565b925050808061361790614cb6565b9150506135a3565b6040808201518251610120840151925163095ea7b360e01b81526001600160a01b039182166004820152602481019390935260009291169063095ea7b390604401602060405180830381600087803b15801561367a57600080fd5b505af115801561368e573d6000803e3d6000fd5b505050506040513d601f19601f820116820180604052508101906136b291906144ab565b506136bb61427b565b60c08301518152600060208201526001604082015261012083015160608201526136e361427b565b60e0840151815260016020820152600260408201526000606082015261370761427b565b6101008501518152600260208201526003604080830182905260006060840181905281518381526080810190925291816020015b61374361427b565b81526020019060019003908161373b579050509050838160008151811061376c5761376c614d04565b6020026020010181905250828160018151811061378b5761378b614d04565b602002602001018190525081816002815181106137aa576137aa614d04565b602090810291909101015260408051600480825260a082019092526000918160200160208202803683370190505090508660400151816000815181106137f2576137f2614d04565b60200260200101906001600160a01b031690816001600160a01b03168152505086606001518160018151811061382a5761382a614d04565b60200260200101906001600160a01b031690816001600160a01b03168152505086608001518160028151811061386257613862614d04565b60200260200101906001600160a01b031690816001600160a01b0316815250508660a001518160038151811061389a5761389a614d04565b6001600160a01b0392831660209182029290920181019190915260408051608080820183526000808352828501819052828401818152606084018290526101408e0151871684526101608e01519096169095528251600480825260a08201909452919493919291830190803683370190505090506b033b2e3c9fd0803ce80000008160008151811061392e5761392e614d04565b60200260200101818152505088600001516001600160a01b031663945bcec98a6020015186868686426040518763ffffffff1660e01b815260040161397896959493929190614891565b600060405180830381600087803b15801561399257600080fd5b505af11580156139a6573d6000803e3d6000fd5b505050506040513d6000823e601f3d908101601f191682016040526139ce91908101906143fe565b6003815181106139e0576139e0614d04565b6020026020010151612d2c90614cd1565b60405163095ea7b360e01b81526001600160a01b038881166004830152602482018490526000919088169063095ea7b390604401602060405180830381600087803b158015613a3f57600080fd5b505af1158015613a53573d6000803e3d6000fd5b505050506040513d601f19601f82011682018060405250810190613a7791906144ab565b506040805160e0810182526001600160a01b0389811682528881166020830190815262ffffff89811684860190815289841660608601908152608086018a815260a087018a8152600060c0890190815298516304e45aaf60e01b8152885188166004820152955187166024870152925190931660448501525184166064840152905160848301525160a48201529251811660c48401529091908a16906304e45aaf9060e401602060405180830381600087803b158015613b3657600080fd5b505af1158015612d08573d6000803e3d6000fd5b600061271061204e8382614b15565b60008160a0015182608001518360600151613b749190614c3d565b613b7e9190614b2d565b8260400151613b8d9190614b15565b82516020840151613b9e9190614c3d565b613ba89190614b2d565b905060005b8260c001518110156127d25760008360200151838560600151613bd09190614c3d565b613bda9190614b2d565b610120860181905290506000613bef86613f52565b905081818660600151613c029190614c3d565b613c0c9190614b2d565b8560400151613c1b9190614b15565b85516020870151613c2c9190614c3d565b613c369190614b2d565b935050508080613c4590614cb6565b915050613bad565b6000613c598286614c3d565b83613c648689614c3d565b613c6e9190614c3d565b613c789190614b2d565b9695505050505050565b60606000613c91836002614c3d565b613c9c906002614b15565b67ffffffffffffffff811115613cb457613cb4614d1a565b6040519080825280601f01601f191660200182016040528015613cde576020820181803683370190505b509050600360fc1b81600081518110613cf957613cf9614d04565b60200101906001600160f81b031916908160001a905350600f60fb1b81600181518110613d2857613d28614d04565b60200101906001600160f81b031916908160001a9053506000613d4c846002614c3d565b613d57906001614b15565b90505b6001811115613dcf576f181899199a1a9b1b9c1cb0b131b232b360811b85600f1660108110613d8b57613d8b614d04565b1a60f81b828281518110613da157613da1614d04565b60200101906001600160f81b031916908160001a90535060049490941c93613dc881614c9f565b9050613d5a565b5083156120625760405162461bcd60e51b815260206004820181905260248201527f537472696e67733a20686578206c656e67746820696e73756666696369656e74604482015260640161087c565b613e278161341b565b6040516001600160a01b038216907fbc7cd75a20ee27fd9adebab32041f755214dbc6bffa90cc0225b39da2e5c2d3b90600090a250565b60606001600160a01b0383163b613ec65760405162461bcd60e51b815260206004820152602660248201527f416464726573733a2064656c65676174652063616c6c20746f206e6f6e2d636f6044820152651b9d1c9858dd60d21b606482015260840161087c565b600080846001600160a01b031684604051613ee1919061478e565b600060405180830381855af49150503d8060008114613f1c576040519150601f19603f3d011682016040523d82523d6000602084013e613f21565b606091505b5091509150613f498282604051806060016040528060278152602001614d7f60279139614242565b95945050505050565b6000613f5c61427b565b60c0830151815260006020820152600160408201526101208301516060820152613f8461427b565b60e08401518152600160208201526002604082015260006060820152613fa861427b565b6101008501518152600260208201526003604080830182905260006060840181905281518381526080810190925291816020015b613fe461427b565b815260200190600190039081613fdc579050509050838160008151811061400d5761400d614d04565b6020026020010181905250828160018151811061402c5761402c614d04565b6020026020010181905250818160028151811061404b5761404b614d04565b602090810291909101015260408051600480825260a0820190925260009181602001602082028036833701905050905086604001518160008151811061409357614093614d04565b60200260200101906001600160a01b031690816001600160a01b0316815250508660600151816001815181106140cb576140cb614d04565b60200260200101906001600160a01b031690816001600160a01b03168152505086608001518160028151811061410357614103614d04565b60200260200101906001600160a01b031690816001600160a01b0316815250508660a001518160038151811061413b5761413b614d04565b6001600160a01b0392831660209182029290920181019190915260408051608081018252600080825281840181905281830181815260608301919091526101408c0151851682526101608c0151851690528a51928b01519151637c26833760e11b81529093929092169163f84d066e916141bd9187908790879060040161481f565b600060405180830381600087803b1580156141d757600080fd5b505af11580156141eb573d6000803e3d6000fd5b505050506040513d6000823e601f3d908101601f1916820160405261421391908101906143fe565b60038151811061422557614225614d04565b602002602001015161423690614cd1565b98975050505050505050565b60608315614251575081612062565b8251156142615782518084602001fd5b8160405162461bcd60e51b815260040161087c919061494f565b6040518060a0016040528060008019168152602001600081526020016000815260200160008152602001606081525090565b80356001600160a01b038116811461166757600080fd5b6000602082840312156142d657600080fd5b612062826142ad565b600080604083850312156142f257600080fd5b6142fb836142ad565b915060208084013567ffffffffffffffff8082111561431957600080fd5b818601915086601f83011261432d57600080fd5b81358181111561433f5761433f614d1a565b614351601f8201601f19168501614ae4565b9150808252878482850101111561436757600080fd5b80848401858401376000848284010152508093505050509250929050565b6000806040838503121561439857600080fd5b6143a1836142ad565b946020939093013593505050565b600080600080608085870312156143c557600080fd5b6143ce856142ad565b9350602085013592506143e3604086016142ad565b915060608501356143f381614d30565b939692955090935050565b6000602080838503121561441157600080fd5b825167ffffffffffffffff8082111561442957600080fd5b818501915085601f83011261443d57600080fd5b81518181111561444f5761444f614d1a565b8060051b9150614460848301614ae4565b8181528481019084860184860187018a101561447b57600080fd5b600095505b8386101561449e578051835260019590950194918601918601614480565b5098975050505050505050565b6000602082840312156144bd57600080fd5b815161206281614d30565b6000602082840312156144da57600080fd5b5035919050565b6000602082840312156144f357600080fd5b5051919050565b6000806040838503121561450d57600080fd5b8235915061451d602084016142ad565b90509250929050565b60006020828403121561453857600080fd5b81356001600160e01b03198116811461206257600080fd5b6000610240828403121561456357600080fd5b50919050565b60006020828403121561457b57600080fd5b813562ffffff8116811461206257600080fd5b600080604083850312156145a157600080fd5b50508035926020909101359150565b600080604083850312156145c357600080fd5b505080516020909101519092909150565b6000806000606084860312156145e957600080fd5b835192506020840151915060408401516fffffffffffffffffffffffffffffffff8116811461461757600080fd5b809150509250925092565b60008060006060848603121561463757600080fd5b8351925060208401519150604084015190509250925092565b60006020828403121561466257600080fd5b815160ff8116811461206257600080fd5b600081518084526020808501945080840160005b838110156146ac5781516001600160a01b031687529582019590820190600101614687565b509495945050505050565b600081518084526020808501808196508360051b8101915082860160005b858110156147335782840389528151805185528581015186860152604080820151908601526060808201519086015260809081015160a09186018290529061471f81870183614740565b9a87019a95505050908401906001016146d5565b5091979650505050505050565b60008151808452614758816020860160208601614c73565b601f01601f19169290920160200192915050565b6002811061478a57634e487b7160e01b600052602160045260246000fd5b9052565b600082516147a0818460208701614c73565b9190910192915050565b7f416363657373436f6e74726f6c3a206163636f756e74200000000000000000008152600083516147e2816017850160208801614c73565b7001034b99036b4b9b9b4b733903937b6329607d1b6017918401918201528351614813816028840160208801614c73565b01602801949350505050565b614829818661476c565b60e06020820152600061483f60e08301866146b7565b82810360408401526148518186614673565b915050613f49606083018480516001600160a01b039081168352602080830151151590840152604080830151909116908301526060908101511515910152565b60006101206148a0838a61476c565b602081818501526148b38285018a6146b7565b915083820360408501526148c78289614673565b87516001600160a01b0390811660608781019190915260208a01511515608088015260408a015190911660a0870152880151151560c0860152915083820360e085015285518083528187019282019060005b8181101561493557845183529383019391830191600101614919565b505080935050505082610100830152979650505050505050565b6020815260006120626020830184614740565b6020808252601f908201527f5265737472696374656420746f20504f5254464f4c494f5f4d414e4147455200604082015260600190565b6020808252602c908201527f46756e6374696f6e206d7573742062652063616c6c6564207468726f7567682060408201526b19195b1959d85d1958d85b1b60a21b606082015260800190565b6020808252602c908201527f46756e6374696f6e206d7573742062652063616c6c6564207468726f7567682060408201526b6163746976652070726f787960a01b606082015260800190565b6020808252602e908201527f496e697469616c697a61626c653a20636f6e747261637420697320616c72656160408201526d191e481a5b9a5d1a585b1a5e995960921b606082015260800190565b6020808252601490820152735265737472696374656420746f2061646d696e7360601b604082015260600190565b60208082526019908201527f536f6d6520746f6b656e206e6f7420636f6d70617469626c6500000000000000604082015260600190565b604051601f8201601f1916810167ffffffffffffffff81118282101715614b0d57614b0d614d1a565b604052919050565b60008219821115614b2857614b28614cee565b500190565b600082614b4a57634e487b7160e01b600052601260045260246000fd5b500490565b600181815b80851115614b8a578160001904821115614b7057614b70614cee565b80851615614b7d57918102915b93841c9390800290614b54565b509250929050565b600061206260ff841683600082614bab5750600161084f565b81614bb85750600061084f565b8160018114614bce5760028114614bd857614bf4565b600191505061084f565b60ff841115614be957614be9614cee565b50506001821b61084f565b5060208310610133831016604e8410600b8410161715614c17575081810a61084f565b614c218383614b4f565b8060001904821115614c3557614c35614cee565b029392505050565b6000816000190483118215151615614c5757614c57614cee565b500290565b600082821015614c6e57614c6e614cee565b500390565b60005b83811015614c8e578181015183820152602001614c76565b838111156134dc5750506000910152565b600081614cae57614cae614cee565b506000190190565b6000600019821415614cca57614cca614cee565b5060010190565b6000600160ff1b821415614ce757614ce7614cee565b5060000390565b634e487b7160e01b600052601160045260246000fd5b634e487b7160e01b600052603260045260246000fd5b634e487b7160e01b600052604160045260246000fd5b8015158114610a6257600080fdfe90c2aa7471c04182221f68e80c07ab1e5946e4c63f8693e14ca40385d529f051360894a13ba1a3210667c828492db98dca3e2076cc3735a920a3ca505d382bbc416464726573733a206c6f772d6c6576656c2064656c65676174652063616c6c206661696c6564a2646970667358221220cc96e52c07565b6d8840ed116336a1edf6f82d12d680c74b47faacbc14daa01564736f6c63430008060033",
  "implementation": "0xB25CE65105a349c6cbDc26903cda1f83c12Ea84f",
  "devdoc": {
    "kind": "dev",
    "methods": {
      "constructor": {
        "custom:oz-upgrades-unsafe-allow": "constructor"
      },
      "getRoleAdmin(bytes32)": {
        "details": "Returns the admin role that controls `role`. See {grantRole} and {revokeRole}. To change a role's admin, use {_setRoleAdmin}."
      },
      "grantRole(bytes32,address)": {
        "details": "Grants `role` to `account`. If `account` had not been already granted `role`, emits a {RoleGranted} event. Requirements: - the caller must have ``role``'s admin role. May emit a {RoleGranted} event."
      },
      "hasRole(bytes32,address)": {
        "details": "Returns `true` if `account` has been granted `role`."
      },
      "proxiableUUID()": {
        "details": "Implementation of the ERC1822 {proxiableUUID} function. This returns the storage slot used by the implementation. It is used to validate that the this implementation remains valid after an upgrade. IMPORTANT: A proxy pointing at a proxiable contract should not be considered proxiable itself, because this risks bricking a proxy that upgrades to it, by delegating to itself until out of gas. Thus it is critical that this function revert if invoked through a proxy. This is guaranteed by the `notDelegated` modifier."
      },
      "renounceRole(bytes32,address)": {
        "details": "Revokes `role` from the calling account. Roles are often managed via {grantRole} and {revokeRole}: this function's purpose is to provide a mechanism for accounts to lose their privileges if they are compromised (such as when a trusted device is misplaced). If the calling account had been revoked `role`, emits a {RoleRevoked} event. Requirements: - the caller must be `account`. May emit a {RoleRevoked} event."
      },
      "revokeRole(bytes32,address)": {
        "details": "Revokes `role` from `account`. If `account` had been granted `role`, emits a {RoleRevoked} event. Requirements: - the caller must have ``role``'s admin role. May emit a {RoleRevoked} event."
      },
      "supportsInterface(bytes4)": {
        "details": "See {IERC165-supportsInterface}."
      },
      "upgradeTo(address)": {
        "details": "Upgrade the implementation of the proxy to `newImplementation`. Calls {_authorizeUpgrade}. Emits an {Upgraded} event."
      },
      "upgradeToAndCall(address,bytes)": {
        "details": "Upgrade the implementation of the proxy to `newImplementation`, and subsequently execute the function call encoded in `data`. Calls {_authorizeUpgrade}. Emits an {Upgraded} event."
      }
    },
    "version": 1
  },
  "userdoc": {
    "kind": "user",
    "methods": {},
    "version": 1
  },
  "storageLayout": {
    "storage": [
      {
        "astId": 808,
        "contract": "contracts/StrategyArrakisUsdcDai.sol:StrategyArrakisUsdcDai",
        "label": "_initialized",
        "offset": 0,
        "slot": "0",
        "type": "t_uint8"
      },
      {
        "astId": 811,
        "contract": "contracts/StrategyArrakisUsdcDai.sol:StrategyArrakisUsdcDai",
        "label": "_initializing",
        "offset": 1,
        "slot": "0",
        "type": "t_bool"
      },
      {
        "astId": 1372,
        "contract": "contracts/StrategyArrakisUsdcDai.sol:StrategyArrakisUsdcDai",
        "label": "__gap",
        "offset": 0,
        "slot": "1",
        "type": "t_array(t_uint256)50_storage"
      },
      {
        "astId": 1702,
        "contract": "contracts/StrategyArrakisUsdcDai.sol:StrategyArrakisUsdcDai",
        "label": "__gap",
        "offset": 0,
        "slot": "51",
        "type": "t_array(t_uint256)50_storage"
      },
      {
        "astId": 39,
        "contract": "contracts/StrategyArrakisUsdcDai.sol:StrategyArrakisUsdcDai",
        "label": "_roles",
        "offset": 0,
        "slot": "101",
        "type": "t_mapping(t_bytes32,t_struct(RoleData)34_storage)"
      },
      {
        "astId": 338,
        "contract": "contracts/StrategyArrakisUsdcDai.sol:StrategyArrakisUsdcDai",
        "label": "__gap",
        "offset": 0,
        "slot": "102",
        "type": "t_array(t_uint256)49_storage"
      },
      {
        "astId": 790,
        "contract": "contracts/StrategyArrakisUsdcDai.sol:StrategyArrakisUsdcDai",
        "label": "__gap",
        "offset": 0,
        "slot": "151",
        "type": "t_array(t_uint256)50_storage"
      },
      {
        "astId": 1087,
        "contract": "contracts/StrategyArrakisUsdcDai.sol:StrategyArrakisUsdcDai",
        "label": "__gap",
        "offset": 0,
        "slot": "201",
        "type": "t_array(t_uint256)50_storage"
      },
      {
        "astId": 11728,
        "contract": "contracts/StrategyArrakisUsdcDai.sol:StrategyArrakisUsdcDai",
        "label": "portfolioManager",
        "offset": 0,
        "slot": "251",
        "type": "t_address"
      },
      {
        "astId": 11730,
        "contract": "contracts/StrategyArrakisUsdcDai.sol:StrategyArrakisUsdcDai",
        "label": "swapSlippageBP",
        "offset": 0,
        "slot": "252",
        "type": "t_uint256"
      },
      {
        "astId": 11732,
        "contract": "contracts/StrategyArrakisUsdcDai.sol:StrategyArrakisUsdcDai",
        "label": "navSlippageBP",
        "offset": 0,
        "slot": "253",
        "type": "t_uint256"
      },
      {
        "astId": 12129,
        "contract": "contracts/StrategyArrakisUsdcDai.sol:StrategyArrakisUsdcDai",
        "label": "__gap",
        "offset": 0,
        "slot": "254",
        "type": "t_array(t_uint256)47_storage"
      },
      {
        "astId": 12925,
        "contract": "contracts/StrategyArrakisUsdcDai.sol:StrategyArrakisUsdcDai",
        "label": "usdc",
        "offset": 0,
        "slot": "301",
        "type": "t_contract(IERC20)2379"
      },
      {
        "astId": 12928,
        "contract": "contracts/StrategyArrakisUsdcDai.sol:StrategyArrakisUsdcDai",
        "label": "dai",
        "offset": 0,
        "slot": "302",
        "type": "t_contract(IERC20)2379"
      },
      {
        "astId": 12931,
        "contract": "contracts/StrategyArrakisUsdcDai.sol:StrategyArrakisUsdcDai",
        "label": "op",
        "offset": 0,
        "slot": "303",
        "type": "t_contract(IERC20)2379"
      },
      {
        "astId": 12934,
        "contract": "contracts/StrategyArrakisUsdcDai.sol:StrategyArrakisUsdcDai",
        "label": "arrakisRouter",
        "offset": 0,
        "slot": "304",
        "type": "t_contract(IArrakisV1RouterStaking)4051"
      },
      {
        "astId": 12937,
        "contract": "contracts/StrategyArrakisUsdcDai.sol:StrategyArrakisUsdcDai",
        "label": "arrakisRewards",
        "offset": 0,
        "slot": "305",
        "type": "t_contract(IArrakisRewards)4010"
      },
      {
        "astId": 12940,
        "contract": "contracts/StrategyArrakisUsdcDai.sol:StrategyArrakisUsdcDai",
        "label": "arrakisVault",
        "offset": 0,
        "slot": "306",
        "type": "t_contract(IArrakisVault)4124"
      },
      {
        "astId": 12943,
        "contract": "contracts/StrategyArrakisUsdcDai.sol:StrategyArrakisUsdcDai",
        "label": "beethovenxVault",
        "offset": 0,
        "slot": "307",
        "type": "t_contract(IVault)4449"
      },
      {
        "astId": 12945,
        "contract": "contracts/StrategyArrakisUsdcDai.sol:StrategyArrakisUsdcDai",
        "label": "beethovenxPoolIdUsdc",
        "offset": 0,
        "slot": "308",
        "type": "t_bytes32"
      },
      {
        "astId": 12947,
        "contract": "contracts/StrategyArrakisUsdcDai.sol:StrategyArrakisUsdcDai",
        "label": "beethovenxPoolIdDaiUsdtUsdc",
        "offset": 0,
        "slot": "309",
        "type": "t_bytes32"
      },
      {
        "astId": 12949,
        "contract": "contracts/StrategyArrakisUsdcDai.sol:StrategyArrakisUsdcDai",
        "label": "beethovenxPoolIdDai",
        "offset": 0,
        "slot": "310",
        "type": "t_bytes32"
      },
      {
        "astId": 12952,
        "contract": "contracts/StrategyArrakisUsdcDai.sol:StrategyArrakisUsdcDai",
        "label": "bbRfAUsdc",
        "offset": 0,
        "slot": "311",
        "type": "t_contract(IERC20)2379"
      },
      {
        "astId": 12955,
        "contract": "contracts/StrategyArrakisUsdcDai.sol:StrategyArrakisUsdcDai",
        "label": "bbRfADai",
        "offset": 0,
        "slot": "312",
        "type": "t_contract(IERC20)2379"
      },
      {
        "astId": 12958,
        "contract": "contracts/StrategyArrakisUsdcDai.sol:StrategyArrakisUsdcDai",
        "label": "uniswapV3Router",
        "offset": 0,
        "slot": "313",
        "type": "t_contract(ISwapRouter)8914"
      },
      {
        "astId": 12960,
        "contract": "contracts/StrategyArrakisUsdcDai.sol:StrategyArrakisUsdcDai",
        "label": "poolUsdcOpFee",
        "offset": 20,
        "slot": "313",
        "type": "t_uint24"
      },
      {
        "astId": 12963,
        "contract": "contracts/StrategyArrakisUsdcDai.sol:StrategyArrakisUsdcDai",
        "label": "oracleUsdc",
        "offset": 0,
        "slot": "314",
        "type": "t_contract(IPriceFeed)6156"
      },
      {
        "astId": 12966,
        "contract": "contracts/StrategyArrakisUsdcDai.sol:StrategyArrakisUsdcDai",
        "label": "oracleDai",
        "offset": 0,
        "slot": "315",
        "type": "t_contract(IPriceFeed)6156"
      },
      {
        "astId": 12968,
        "contract": "contracts/StrategyArrakisUsdcDai.sol:StrategyArrakisUsdcDai",
        "label": "usdcDm",
        "offset": 0,
        "slot": "316",
        "type": "t_uint256"
      },
      {
        "astId": 12970,
        "contract": "contracts/StrategyArrakisUsdcDai.sol:StrategyArrakisUsdcDai",
        "label": "daiDm",
        "offset": 0,
        "slot": "317",
        "type": "t_uint256"
      },
      {
        "astId": 12973,
        "contract": "contracts/StrategyArrakisUsdcDai.sol:StrategyArrakisUsdcDai",
        "label": "kyberSwapRouter",
        "offset": 0,
        "slot": "318",
        "type": "t_contract(IRouter)7358"
      },
      {
        "astId": 12975,
        "contract": "contracts/StrategyArrakisUsdcDai.sol:StrategyArrakisUsdcDai",
        "label": "poolUsdcDaiFee",
        "offset": 20,
        "slot": "318",
        "type": "t_uint24"
      }
    ],
    "types": {
      "t_address": {
        "encoding": "inplace",
        "label": "address",
        "numberOfBytes": "20"
      },
      "t_array(t_uint256)47_storage": {
        "base": "t_uint256",
        "encoding": "inplace",
        "label": "uint256[47]",
        "numberOfBytes": "1504"
      },
      "t_array(t_uint256)49_storage": {
        "base": "t_uint256",
        "encoding": "inplace",
        "label": "uint256[49]",
        "numberOfBytes": "1568"
      },
      "t_array(t_uint256)50_storage": {
        "base": "t_uint256",
        "encoding": "inplace",
        "label": "uint256[50]",
        "numberOfBytes": "1600"
      },
      "t_bool": {
        "encoding": "inplace",
        "label": "bool",
        "numberOfBytes": "1"
      },
      "t_bytes32": {
        "encoding": "inplace",
        "label": "bytes32",
        "numberOfBytes": "32"
      },
      "t_contract(IArrakisRewards)4010": {
        "encoding": "inplace",
        "label": "contract IArrakisRewards",
        "numberOfBytes": "20"
      },
      "t_contract(IArrakisV1RouterStaking)4051": {
        "encoding": "inplace",
        "label": "contract IArrakisV1RouterStaking",
        "numberOfBytes": "20"
      },
      "t_contract(IArrakisVault)4124": {
        "encoding": "inplace",
        "label": "contract IArrakisVault",
        "numberOfBytes": "20"
      },
      "t_contract(IERC20)2379": {
        "encoding": "inplace",
        "label": "contract IERC20",
        "numberOfBytes": "20"
      },
      "t_contract(IPriceFeed)6156": {
        "encoding": "inplace",
        "label": "contract IPriceFeed",
        "numberOfBytes": "20"
      },
      "t_contract(IRouter)7358": {
        "encoding": "inplace",
        "label": "contract IRouter",
        "numberOfBytes": "20"
      },
      "t_contract(ISwapRouter)8914": {
        "encoding": "inplace",
        "label": "contract ISwapRouter",
        "numberOfBytes": "20"
      },
      "t_contract(IVault)4449": {
        "encoding": "inplace",
        "label": "contract IVault",
        "numberOfBytes": "20"
      },
      "t_mapping(t_address,t_bool)": {
        "encoding": "mapping",
        "key": "t_address",
        "label": "mapping(address => bool)",
        "numberOfBytes": "32",
        "value": "t_bool"
      },
      "t_mapping(t_bytes32,t_struct(RoleData)34_storage)": {
        "encoding": "mapping",
        "key": "t_bytes32",
        "label": "mapping(bytes32 => struct AccessControlUpgradeable.RoleData)",
        "numberOfBytes": "32",
        "value": "t_struct(RoleData)34_storage"
      },
      "t_struct(RoleData)34_storage": {
        "encoding": "inplace",
        "label": "struct AccessControlUpgradeable.RoleData",
        "members": [
          {
            "astId": 31,
            "contract": "contracts/StrategyArrakisUsdcDai.sol:StrategyArrakisUsdcDai",
            "label": "members",
            "offset": 0,
            "slot": "0",
            "type": "t_mapping(t_address,t_bool)"
          },
          {
            "astId": 33,
            "contract": "contracts/StrategyArrakisUsdcDai.sol:StrategyArrakisUsdcDai",
            "label": "adminRole",
            "offset": 0,
            "slot": "1",
            "type": "t_bytes32"
          }
        ],
        "numberOfBytes": "64"
      },
      "t_uint24": {
        "encoding": "inplace",
        "label": "uint24",
        "numberOfBytes": "3"
      },
      "t_uint256": {
        "encoding": "inplace",
        "label": "uint256",
        "numberOfBytes": "32"
      },
      "t_uint8": {
        "encoding": "inplace",
        "label": "uint8",
        "numberOfBytes": "1"
      }
    }
  }
}