{
  "address": "0x11732E21D9DaB3B6fF6e7DD9EdcB24770260c7B4",
  "abi": [
    {
      "inputs": [],
      "stateMutability": "nonpayable",
      "type": "constructor"
    },
    {
      "anonymous": false,
      "inputs": [
        {
          "indexed": false,
          "internalType": "address",
          "name": "previousAdmin",
          "type": "address"
        },
        {
          "indexed": false,
          "internalType": "address",
          "name": "newAdmin",
          "type": "address"
        }
      ],
      "name": "AdminChanged",
      "type": "event"
    },
    {
      "anonymous": false,
      "inputs": [
        {
          "indexed": true,
          "internalType": "address",
          "name": "beacon",
          "type": "address"
        }
      ],
      "name": "BeaconUpgraded",
      "type": "event"
    },
    {
      "anonymous": false,
      "inputs": [
        {
          "indexed": false,
          "internalType": "address",
          "name": "value",
          "type": "address"
        }
      ],
      "name": "CashStrategyAlreadySet",
      "type": "event"
    },
    {
      "anonymous": false,
      "inputs": [
        {
          "indexed": false,
          "internalType": "uint256",
          "name": "value",
          "type": "uint256"
        }
      ],
      "name": "CashStrategyRestaked",
      "type": "event"
    },
    {
      "anonymous": false,
      "inputs": [
        {
          "indexed": false,
          "internalType": "address",
          "name": "value",
          "type": "address"
        }
      ],
      "name": "CashStrategyUpdated",
      "type": "event"
    },
    {
      "anonymous": false,
      "inputs": [
        {
          "indexed": false,
          "internalType": "uint256",
          "name": "amount",
          "type": "uint256"
        },
        {
          "indexed": false,
          "internalType": "address",
          "name": "from",
          "type": "address"
        },
        {
          "indexed": false,
          "internalType": "address",
          "name": "to",
          "type": "address"
        }
      ],
      "name": "Exchanged",
      "type": "event"
    },
    {
      "anonymous": false,
      "inputs": [
        {
          "indexed": false,
          "internalType": "address",
          "name": "value",
          "type": "address"
        }
      ],
      "name": "ExchangerUpdated",
      "type": "event"
    },
    {
      "anonymous": false,
      "inputs": [
        {
          "indexed": true,
          "internalType": "bytes32",
          "name": "role",
          "type": "bytes32"
        },
        {
          "indexed": true,
          "internalType": "bytes32",
          "name": "previousAdminRole",
          "type": "bytes32"
        },
        {
          "indexed": true,
          "internalType": "bytes32",
          "name": "newAdminRole",
          "type": "bytes32"
        }
      ],
      "name": "RoleAdminChanged",
      "type": "event"
    },
    {
      "anonymous": false,
      "inputs": [
        {
          "indexed": true,
          "internalType": "bytes32",
          "name": "role",
          "type": "bytes32"
        },
        {
          "indexed": true,
          "internalType": "address",
          "name": "account",
          "type": "address"
        },
        {
          "indexed": true,
          "internalType": "address",
          "name": "sender",
          "type": "address"
        }
      ],
      "name": "RoleGranted",
      "type": "event"
    },
    {
      "anonymous": false,
      "inputs": [
        {
          "indexed": true,
          "internalType": "bytes32",
          "name": "role",
          "type": "bytes32"
        },
        {
          "indexed": true,
          "internalType": "address",
          "name": "account",
          "type": "address"
        },
        {
          "indexed": true,
          "internalType": "address",
          "name": "sender",
          "type": "address"
        }
      ],
      "name": "RoleRevoked",
      "type": "event"
    },
    {
      "anonymous": false,
      "inputs": [
        {
          "indexed": false,
          "internalType": "uint256",
          "name": "index",
          "type": "uint256"
        },
        {
          "indexed": false,
          "internalType": "address",
          "name": "strategy",
          "type": "address"
        },
        {
          "indexed": false,
          "internalType": "uint256",
          "name": "minWeight",
          "type": "uint256"
        },
        {
          "indexed": false,
          "internalType": "uint256",
          "name": "targetWeight",
          "type": "uint256"
        },
        {
          "indexed": false,
          "internalType": "uint256",
          "name": "maxWeight",
          "type": "uint256"
        },
        {
          "indexed": false,
          "internalType": "bool",
          "name": "enabled",
          "type": "bool"
        },
        {
          "indexed": false,
          "internalType": "bool",
          "name": "enabledReward",
          "type": "bool"
        }
      ],
      "name": "StrategyWeightUpdated",
      "type": "event"
    },
    {
      "anonymous": false,
      "inputs": [
        {
          "indexed": true,
          "internalType": "address",
          "name": "implementation",
          "type": "address"
        }
      ],
      "name": "Upgraded",
      "type": "event"
    },
    {
      "anonymous": false,
      "inputs": [
        {
          "indexed": false,
          "internalType": "address",
          "name": "value",
          "type": "address"
        }
      ],
      "name": "UsdcUpdated",
      "type": "event"
    },
    {
      "inputs": [],
      "name": "DEFAULT_ADMIN_ROLE",
      "outputs": [
        {
          "internalType": "bytes32",
          "name": "",
          "type": "bytes32"
        }
      ],
      "stateMutability": "view",
      "type": "function"
    },
    {
      "inputs": [],
      "name": "EXCHANGER",
      "outputs": [
        {
          "internalType": "bytes32",
          "name": "",
          "type": "bytes32"
        }
      ],
      "stateMutability": "view",
      "type": "function"
    },
    {
      "inputs": [],
      "name": "TOTAL_WEIGHT",
      "outputs": [
        {
          "internalType": "uint256",
          "name": "",
          "type": "uint256"
        }
      ],
      "stateMutability": "view",
      "type": "function"
    },
    {
      "inputs": [],
      "name": "UPGRADER_ROLE",
      "outputs": [
        {
          "internalType": "bytes32",
          "name": "",
          "type": "bytes32"
        }
      ],
      "stateMutability": "view",
      "type": "function"
    },
    {
      "inputs": [],
      "name": "balance",
      "outputs": [],
      "stateMutability": "nonpayable",
      "type": "function"
    },
    {
      "inputs": [],
      "name": "cashStrategy",
      "outputs": [
        {
          "internalType": "contract IStrategy",
          "name": "",
          "type": "address"
        }
      ],
      "stateMutability": "view",
      "type": "function"
    },
    {
      "inputs": [],
      "name": "claimAndBalance",
      "outputs": [],
      "stateMutability": "nonpayable",
      "type": "function"
    },
    {
      "inputs": [
        {
          "internalType": "contract IERC20",
          "name": "_token",
          "type": "address"
        },
        {
          "internalType": "uint256",
          "name": "_amount",
          "type": "uint256"
        }
      ],
      "name": "deposit",
      "outputs": [],
      "stateMutability": "nonpayable",
      "type": "function"
    },
    {
      "inputs": [],
      "name": "exchanger",
      "outputs": [
        {
          "internalType": "address",
          "name": "",
          "type": "address"
        }
      ],
      "stateMutability": "view",
      "type": "function"
    },
    {
      "inputs": [],
      "name": "getAllStrategyWeights",
      "outputs": [
        {
          "components": [
            {
              "internalType": "address",
              "name": "strategy",
              "type": "address"
            },
            {
              "internalType": "uint256",
              "name": "minWeight",
              "type": "uint256"
            },
            {
              "internalType": "uint256",
              "name": "targetWeight",
              "type": "uint256"
            },
            {
              "internalType": "uint256",
              "name": "maxWeight",
              "type": "uint256"
            },
            {
              "internalType": "bool",
              "name": "enabled",
              "type": "bool"
            },
            {
              "internalType": "bool",
              "name": "enabledReward",
              "type": "bool"
            }
          ],
          "internalType": "struct IPortfolioManager.StrategyWeight[]",
          "name": "",
          "type": "tuple[]"
        }
      ],
      "stateMutability": "view",
      "type": "function"
    },
    {
      "inputs": [
        {
          "internalType": "bytes32",
          "name": "role",
          "type": "bytes32"
        }
      ],
      "name": "getRoleAdmin",
      "outputs": [
        {
          "internalType": "bytes32",
          "name": "",
          "type": "bytes32"
        }
      ],
      "stateMutability": "view",
      "type": "function"
    },
    {
      "inputs": [
        {
          "internalType": "address",
          "name": "strategy",
          "type": "address"
        }
      ],
      "name": "getStrategyWeight",
      "outputs": [
        {
          "components": [
            {
              "internalType": "address",
              "name": "strategy",
              "type": "address"
            },
            {
              "internalType": "uint256",
              "name": "minWeight",
              "type": "uint256"
            },
            {
              "internalType": "uint256",
              "name": "targetWeight",
              "type": "uint256"
            },
            {
              "internalType": "uint256",
              "name": "maxWeight",
              "type": "uint256"
            },
            {
              "internalType": "bool",
              "name": "enabled",
              "type": "bool"
            },
            {
              "internalType": "bool",
              "name": "enabledReward",
              "type": "bool"
            }
          ],
          "internalType": "struct IPortfolioManager.StrategyWeight",
          "name": "",
          "type": "tuple"
        }
      ],
      "stateMutability": "view",
      "type": "function"
    },
    {
      "inputs": [
        {
          "internalType": "bytes32",
          "name": "role",
          "type": "bytes32"
        },
        {
          "internalType": "address",
          "name": "account",
          "type": "address"
        }
      ],
      "name": "grantRole",
      "outputs": [],
      "stateMutability": "nonpayable",
      "type": "function"
    },
    {
      "inputs": [
        {
          "internalType": "bytes32",
          "name": "role",
          "type": "bytes32"
        },
        {
          "internalType": "address",
          "name": "account",
          "type": "address"
        }
      ],
      "name": "hasRole",
      "outputs": [
        {
          "internalType": "bool",
          "name": "",
          "type": "bool"
        }
      ],
      "stateMutability": "view",
      "type": "function"
    },
    {
      "inputs": [],
      "name": "initialize",
      "outputs": [],
      "stateMutability": "nonpayable",
      "type": "function"
    },
    {
      "inputs": [],
      "name": "proxiableUUID",
      "outputs": [
        {
          "internalType": "bytes32",
          "name": "",
          "type": "bytes32"
        }
      ],
      "stateMutability": "view",
      "type": "function"
    },
    {
      "inputs": [
        {
          "internalType": "bytes32",
          "name": "role",
          "type": "bytes32"
        },
        {
          "internalType": "address",
          "name": "account",
          "type": "address"
        }
      ],
      "name": "renounceRole",
      "outputs": [],
      "stateMutability": "nonpayable",
      "type": "function"
    },
    {
      "inputs": [
        {
          "internalType": "bytes32",
          "name": "role",
          "type": "bytes32"
        },
        {
          "internalType": "address",
          "name": "account",
          "type": "address"
        }
      ],
      "name": "revokeRole",
      "outputs": [],
      "stateMutability": "nonpayable",
      "type": "function"
    },
    {
      "inputs": [
        {
          "internalType": "address",
          "name": "_cashStrategy",
          "type": "address"
        }
      ],
      "name": "setCashStrategy",
      "outputs": [],
      "stateMutability": "nonpayable",
      "type": "function"
    },
    {
      "inputs": [
        {
          "internalType": "address",
          "name": "_exchanger",
          "type": "address"
        }
      ],
      "name": "setExchanger",
      "outputs": [],
      "stateMutability": "nonpayable",
      "type": "function"
    },
    {
      "inputs": [
        {
          "components": [
            {
              "internalType": "address",
              "name": "strategy",
              "type": "address"
            },
            {
              "internalType": "uint256",
              "name": "minWeight",
              "type": "uint256"
            },
            {
              "internalType": "uint256",
              "name": "targetWeight",
              "type": "uint256"
            },
            {
              "internalType": "uint256",
              "name": "maxWeight",
              "type": "uint256"
            },
            {
              "internalType": "bool",
              "name": "enabled",
              "type": "bool"
            },
            {
              "internalType": "bool",
              "name": "enabledReward",
              "type": "bool"
            }
          ],
          "internalType": "struct IPortfolioManager.StrategyWeight[]",
          "name": "_strategyWeights",
          "type": "tuple[]"
        }
      ],
      "name": "setStrategyWeights",
      "outputs": [],
      "stateMutability": "nonpayable",
      "type": "function"
    },
    {
      "inputs": [
        {
          "internalType": "address",
          "name": "_usdc",
          "type": "address"
        }
      ],
      "name": "setUsdc",
      "outputs": [],
      "stateMutability": "nonpayable",
      "type": "function"
    },
    {
      "inputs": [
        {
          "internalType": "address",
          "name": "",
          "type": "address"
        }
      ],
      "name": "strategyWeightPositions",
      "outputs": [
        {
          "internalType": "uint256",
          "name": "",
          "type": "uint256"
        }
      ],
      "stateMutability": "view",
      "type": "function"
    },
    {
      "inputs": [
        {
          "internalType": "uint256",
          "name": "",
          "type": "uint256"
        }
      ],
      "name": "strategyWeights",
      "outputs": [
        {
          "internalType": "address",
          "name": "strategy",
          "type": "address"
        },
        {
          "internalType": "uint256",
          "name": "minWeight",
          "type": "uint256"
        },
        {
          "internalType": "uint256",
          "name": "targetWeight",
          "type": "uint256"
        },
        {
          "internalType": "uint256",
          "name": "maxWeight",
          "type": "uint256"
        },
        {
          "internalType": "bool",
          "name": "enabled",
          "type": "bool"
        },
        {
          "internalType": "bool",
          "name": "enabledReward",
          "type": "bool"
        }
      ],
      "stateMutability": "view",
      "type": "function"
    },
    {
      "inputs": [
        {
          "internalType": "bytes4",
          "name": "interfaceId",
          "type": "bytes4"
        }
      ],
      "name": "supportsInterface",
      "outputs": [
        {
          "internalType": "bool",
          "name": "",
          "type": "bool"
        }
      ],
      "stateMutability": "view",
      "type": "function"
    },
    {
      "inputs": [
        {
          "internalType": "address",
          "name": "newImplementation",
          "type": "address"
        }
      ],
      "name": "upgradeTo",
      "outputs": [],
      "stateMutability": "nonpayable",
      "type": "function"
    },
    {
      "inputs": [
        {
          "internalType": "address",
          "name": "newImplementation",
          "type": "address"
        },
        {
          "internalType": "bytes",
          "name": "data",
          "type": "bytes"
        }
      ],
      "name": "upgradeToAndCall",
      "outputs": [],
      "stateMutability": "payable",
      "type": "function"
    },
    {
      "inputs": [
        {
          "internalType": "contract IERC20",
          "name": "_token",
          "type": "address"
        },
        {
          "internalType": "uint256",
          "name": "_amount",
          "type": "uint256"
        }
      ],
      "name": "withdraw",
      "outputs": [
        {
          "internalType": "uint256",
          "name": "",
          "type": "uint256"
        }
      ],
      "stateMutability": "nonpayable",
      "type": "function"
    }
  ],
  "numDeployments": 1,
  "solcInputHash": "8cbe9511203869aff986e2c8cababb1e",
  "bytecode": "0x60a06040523060601b6080523480156200001857600080fd5b50600054610100900460ff16620000365760005460ff161562000040565b62000040620000e5565b620000a85760405162461bcd60e51b815260206004820152602e60248201527f496e697469616c697a61626c653a20636f6e747261637420697320616c72656160448201526d191e481a5b9a5d1a585b1a5e995960921b606482015260840160405180910390fd5b600054610100900460ff16158015620000cb576000805461ffff19166101011790555b8015620000de576000805461ff00191690555b5062000112565b6000620000fd306200010360201b62001d1f1760201c565b15905090565b6001600160a01b03163b151590565b60805160601c6137ec6200014d60003960008181610764015281816107a401528181610cd001528181610d100152610d9f01526137ec6000f3fe6080604052600436106101b75760003560e01c80638129fc1c116100ec578063cb1468791161008a578063ed2a2f9d11610064578063ed2a2f9d1461051c578063f281d43814610533578063f3fef3a314610555578063f72c0d8b1461057557600080fd5b8063cb146879146104bc578063d547741f146104dc578063da909b09146104fc57600080fd5b8063a217fddf116100c6578063a217fddf1461045b578063b69ef8a814610470578063bd0f105314610485578063c6bbf4cb146104a757600080fd5b80638129fc1c146103cb5780638e6c8ab3146103e057806391d148541461043b57600080fd5b806347e7ef241161015957806352d1902d1161013357806352d1902d1461034957806359d57c1a1461035e5780636115640c1461037e57806375e8bdfa1461039e57600080fd5b806347e7ef24146102f65780634d12fca4146103165780634f1ef2861461033657600080fd5b806329cb1bee1161019557806329cb1bee1461025c5780632f2ff15d1461029457806336568abe146102b65780633659cfe6146102d657600080fd5b806301ffc9a7146101bc57806306e73924146101f1578063248a9ca31461021e575b600080fd5b3480156101c857600080fd5b506101dc6101d736600461316a565b6105a9565b60405190151581526020015b60405180910390f35b3480156101fd57600080fd5b5061021161020c366004612fb1565b6105e0565b6040516101e8919061358b565b34801561022a57600080fd5b5061024e610239366004613108565b60009081526065602052604090206001015490565b6040519081526020016101e8565b34801561026857600080fd5b5060ff5461027c906001600160a01b031681565b6040516001600160a01b0390911681526020016101e8565b3480156102a057600080fd5b506102b46102af36600461313a565b6106ab565b005b3480156102c257600080fd5b506102b46102d136600461313a565b6106d6565b3480156102e257600080fd5b506102b46102f1366004612fb1565b610759565b34801561030257600080fd5b506102b4610311366004613194565b610839565b34801561032257600080fd5b5060fb5461027c906001600160a01b031681565b6102b4610344366004612fce565b610cc5565b34801561035557600080fd5b5061024e610d92565b34801561036a57600080fd5b506102b4610379366004612fb1565b610e45565b34801561038a57600080fd5b506102b4610399366004613076565b61121c565b3480156103aa57600080fd5b5061024e6103b9366004612fb1565b60fd6020526000908152604090205481565b3480156103d757600080fd5b506102b4611579565b3480156103ec57600080fd5b506104006103fb366004613108565b611676565b604080516001600160a01b039097168752602087019590955293850192909252606084015215156080830152151560a082015260c0016101e8565b34801561044757600080fd5b506101dc61045636600461313a565b6116cd565b34801561046757600080fd5b5061024e600081565b34801561047c57600080fd5b506102b46116f8565b34801561049157600080fd5b5061024e60008051602061375083398151915281565b3480156104b357600080fd5b506102b4611729565b3480156104c857600080fd5b506102b46104d7366004612fb1565b611765565b3480156104e857600080fd5b506102b46104f736600461313a565b611800565b34801561050857600080fd5b506102b4610517366004612fb1565b611826565b34801561052857600080fd5b5061024e620186a081565b34801561053f57600080fd5b506105486118fe565b6040516101e891906133d6565b34801561056157600080fd5b5061024e610570366004613194565b6119a7565b34801561058157600080fd5b5061024e7f189ab7a9244df0848122154315af71fe140f3db0fe014031783b0946b8c9d2e381565b60006001600160e01b03198216637965db0b60e01b14806105da57506301ffc9a760e01b6001600160e01b03198316145b92915050565b6040805160c08101825260008082526020808301829052828401829052606083018290526080830182905260a083018290526001600160a01b038516825260fd9052919091205460fe8054909190811061063c5761063c613700565b60009182526020918290206040805160c081018252600590930290910180546001600160a01b031683526001810154938301939093526002830154908201526003820154606082015260049091015460ff8082161515608084015261010090910416151560a082015292915050565b6000828152606560205260409020600101546106c78133611d2e565b6106d18383611d6c565b505050565b6001600160a01b038116331461074b5760405162461bcd60e51b815260206004820152602f60248201527f416363657373436f6e74726f6c3a2063616e206f6e6c792072656e6f756e636560448201526e103937b632b9903337b91039b2b63360891b60648201526084015b60405180910390fd5b6107558282611df2565b5050565b306001600160a01b037f00000000000000000000000000000000000000000000000000000000000000001614156107a25760405162461bcd60e51b81526004016107429061348e565b7f00000000000000000000000000000000000000000000000000000000000000006001600160a01b03166107eb600080516020613770833981519152546001600160a01b031690565b6001600160a01b0316146108115760405162461bcd60e51b8152600401610742906134da565b61081a81611e59565b6040805160008082526020820190925261083691839190611e84565b50565b610851600080516020613750833981519152336116cd565b61086d5760405162461bcd60e51b815260040161074290613457565b60ff546001600160a01b03166108c15760405162461bcd60e51b815260206004820152601960248201527810d85cda081cdd1c985d1959de481b9bdd081cd95d081e595d603a1b6044820152606401610742565b60fc546001600160a01b0383811691161461092d5760405162461bcd60e51b815260206004820152602660248201527f504d3a204f6e6c792055534443206e6f7720617661696c61626c6520746f2064604482015265195c1bdcda5d60d21b6064820152608401610742565b60fc546040516370a0823160e01b81523060048201526000916001600160a01b0316906370a082319060240160206040518083038186803b15801561097157600080fd5b505afa158015610985573d6000803e3d6000fd5b505050506040513d601f19601f820116820180604052508101906109a99190613121565b9050806109b557505050565b806000805b60fe5460ff82161015610aed5760fe8160ff16815481106109dd576109dd613700565b600091825260209091206004600590920201015460ff166109fd57610adb565b60fe8160ff1681548110610a1357610a13613700565b6000918252602091829020600590910201546040805163146ce76760e31b815290516001600160a01b039092169263a3673b3892600480840193829003018186803b158015610a6157600080fd5b505afa158015610a75573d6000803e3d6000fd5b505050506040513d601f19601f82011682018060405250810190610a999190613121565b610aa390846135ca565b925060fe8160ff1681548110610abb57610abb613700565b90600052602060002090600502016002015482610ad891906135ca565b91505b80610ae58161368a565b9150506109ba565b5060ff546040805163146ce76760e31b815290516000926001600160a01b03169163a3673b38916004808301926020929190829003018186803b158015610b3357600080fd5b505afa158015610b47573d6000803e3d6000fd5b505050506040513d601f19601f82011682018060405250810190610b6b9190613121565b60ff54909150600090610b86906001600160a01b03166105e0565b9050600083826060015186610b9b91906135f6565b610ba591906135e2565b905080610bb287856135ca565b1015610cb35760fc5460ff5460405163a9059cbb60e01b81526001600160a01b0391821660048201526024810189905291169063a9059cbb90604401602060405180830381600087803b158015610c0857600080fd5b505af1158015610c1c573d6000803e3d6000fd5b505050506040513d601f19601f82011682018060405250810190610c4091906130eb565b5060ff5460fc546040516356e4bb9760e11b81526001600160a01b0391821660048201526024810189905291169063adc9772e90604401600060405180830381600087803b158015610c9157600080fd5b505af1158015610ca5573d6000803e3d6000fd5b505050505050505050505050565b610cbb611ffe565b5050505050505050565b306001600160a01b037f0000000000000000000000000000000000000000000000000000000000000000161415610d0e5760405162461bcd60e51b81526004016107429061348e565b7f00000000000000000000000000000000000000000000000000000000000000006001600160a01b0316610d57600080516020613770833981519152546001600160a01b031690565b6001600160a01b031614610d7d5760405162461bcd60e51b8152600401610742906134da565b610d8682611e59565b61075582826001611e84565b6000306001600160a01b037f00000000000000000000000000000000000000000000000000000000000000001614610e325760405162461bcd60e51b815260206004820152603860248201527f555550535570677261646561626c653a206d757374206e6f742062652063616c60448201527f6c6564207468726f7567682064656c656761746563616c6c00000000000000006064820152608401610742565b5060008051602061377083398151915290565b610e506000336116cd565b610e6c5760405162461bcd60e51b815260040161074290613526565b6001600160a01b038116610e925760405162461bcd60e51b815260040161074290613554565b60ff546001600160a01b0382811691161415610ee8576040516001600160a01b03821681527f47ffb57d9975263bcf9c547a81d76b51e81fd87f6a69b8189e744921dda0005c906020015b60405180910390a150565b60ff546001600160a01b03161580159061100a5760ff54604051633bd73ee360e21b81523060048201526001600160a01b039091169063ef5cfb8c90602401602060405180830381600087803b158015610f4157600080fd5b505af1158015610f55573d6000803e3d6000fd5b505050506040513d601f19601f82011682018060405250810190610f799190613121565b5060ff5460fc5460405163f6f6b88160e01b81526001600160a01b039283169263f6f6b88192610fb69291169060009030906001906004016133ac565b602060405180830381600087803b158015610fd057600080fd5b505af1158015610fe4573d6000803e3d6000fd5b505050506040513d601f19601f820116820180604052508101906110089190613121565b505b60ff80546001600160a01b0319166001600160a01b03841617905580156111dc5760fc546040516370a0823160e01b81523060048201526000916001600160a01b0316906370a082319060240160206040518083038186803b15801561106f57600080fd5b505afa158015611083573d6000803e3d6000fd5b505050506040513d601f19601f820116820180604052508101906110a79190613121565b905080156111da5760fc5460ff5460405163a9059cbb60e01b81526001600160a01b0391821660048201526024810184905291169063a9059cbb90604401602060405180830381600087803b1580156110ff57600080fd5b505af1158015611113573d6000803e3d6000fd5b505050506040513d601f19601f8201168201806040525081019061113791906130eb565b5060ff5460fc546040516356e4bb9760e11b81526001600160a01b0391821660048201526024810184905291169063adc9772e90604401600060405180830381600087803b15801561118857600080fd5b505af115801561119c573d6000803e3d6000fd5b505050507f0eab4ceb0e0bf74211211d85efd51fec6d84d5ce7719dd107af8818194bcd97f816040516111d191815260200190565b60405180910390a15b505b6040516001600160a01b03831681527fd82ec5aca3f5d594d6f9a7d8a97e332f1e6319efddf9b0bf445d87348ac4b0e39060200160405180910390a15050565b6112276000336116cd565b6112435760405162461bcd60e51b815260040161074290613526565b6000805b60ff81168311156113d857600084848360ff1681811061126957611269613700565b905060c0020180360381019061127f91906131c0565b80519091506001600160a01b03166112d95760405162461bcd60e51b815260206004820152601760248201527f77656967687420776974686f75742073747261746567790000000000000000006044820152606401610742565b8060400151816020015111156113465760405162461bcd60e51b815260206004820152602c60248201527f6d696e5765696768742073686f756c646e277420686967686572207468616e2060448201526b1d185c99d95d15d95a59da1d60a21b6064820152608401610742565b8060600151816040015111156113b35760405162461bcd60e51b815260206004820152602c60248201527f7461726765745765696768742073686f756c646e27742068696768657220746860448201526b185b881b585e15d95a59da1d60a21b6064820152608401610742565b60408101516113c290846135ca565b92505080806113d09061368a565b915050611247565b50620186a0811461143d5760405162461bcd60e51b815260206004820152602960248201527f546f74616c207461726765742073686f756c6420657175616c20746f20544f54604482015268105317d5d15251d21560ba1b6064820152608401610742565b60005b60ff81168311156114dc5761148284848360ff1681811061146357611463613700565b905060c0020180360381019061147991906131c0565b8260ff16612009565b8060ff1660fd600060fe8460ff16815481106114a0576114a0613700565b600091825260208083206005909202909101546001600160a01b03168352820192909252604001902055806114d48161368a565b915050611440565b5060fe548210156106d15760fe546000906114f8908490613615565b905060005b818160ff1610156115725760fe805480611519576115196136ea565b60008281526020812060056000199093019283020180546001600160a01b031916815560018101829055600281018290556003810191909155600401805461ffff1916905590558061156a8161368a565b9150506114fd565b5050505050565b600054610100900460ff166115945760005460ff1615611598565b303b155b6115fb5760405162461bcd60e51b815260206004820152602e60248201527f496e697469616c697a61626c653a20636f6e747261637420697320616c72656160448201526d191e481a5b9a5d1a585b1a5e995960921b6064820152608401610742565b600054610100900460ff1615801561161d576000805461ffff19166101011790555b611625612181565b61162d612181565b611638600033611d6c565b6116627f189ab7a9244df0848122154315af71fe140f3db0fe014031783b0946b8c9d2e333611d6c565b8015610836576000805461ff001916905550565b60fe818154811061168657600080fd5b6000918252602090912060059091020180546001820154600283015460038401546004909401546001600160a01b0390931694509092909160ff8082169161010090041686565b60009182526065602090815260408084206001600160a01b0393909316845291905290205460ff1690565b6117036000336116cd565b61171f5760405162461bcd60e51b815260040161074290613526565b611727611ffe565b565b611741600080516020613750833981519152336116cd565b61175d5760405162461bcd60e51b815260040161074290613457565b61171f6121ec565b6117706000336116cd565b61178c5760405162461bcd60e51b815260040161074290613526565b6001600160a01b0381166117b25760405162461bcd60e51b815260040161074290613554565b60fc80546001600160a01b0319166001600160a01b0383169081179091556040519081527f695697c154277ce40ee0efa7c478421fa81ae4802bc333c6a3425394285c20c890602001610edd565b60008281526065602052604090206001015461181c8133611d2e565b6106d18383611df2565b6118316000336116cd565b61184d5760405162461bcd60e51b815260040161074290613526565b6001600160a01b0381166118735760405162461bcd60e51b815260040161074290613554565b60fb5461189890600080516020613750833981519152906001600160a01b0316611800565b6118b0600080516020613750833981519152826106ab565b60fb80546001600160a01b0319166001600160a01b0383169081179091556040519081527f1af34e943bb581f62718acd39caf1a640e9ff89789a197745e259d1f40cd9bd690602001610edd565b606060fe805480602002602001604051908101604052809291908181526020016000905b8282101561199e5760008481526020908190206040805160c0810182526005860290920180546001600160a01b0316835260018082015484860152600282015492840192909252600381015460608401526004015460ff8082161515608085015261010090910416151560a08301529083529092019101611922565b50505050905090565b60006119c1600080516020613750833981519152336116cd565b6119dd5760405162461bcd60e51b815260040161074290613457565b60ff546001600160a01b0316611a315760405162461bcd60e51b815260206004820152601960248201527810d85cda081cdd1c985d1959de481b9bdd081cd95d081e595d603a1b6044820152606401610742565b60fc546001600160a01b03848116911614611a9e5760405162461bcd60e51b815260206004820152602760248201527f504d3a204f6e6c792055534443206e6f7720617661696c61626c6520746f20776044820152666974686472617760c81b6064820152608401610742565b60ff54604080516312bb732d60e11b815290516000926001600160a01b031691632576e65a916004808301926020929190829003018186803b158015611ae357600080fd5b505afa158015611af7573d6000803e3d6000fd5b505050506040513d601f19601f82011682018060405250810190611b1b9190613121565b905082811115611bb85760ff5460fc5460405163f6f6b88160e01b81526001600160a01b039283169263f6f6b88192611b6092911690879030906000906004016133ac565b602060405180830381600087803b158015611b7a57600080fd5b505af1158015611b8e573d6000803e3d6000fd5b505050506040513d601f19601f82011682018060405250810190611bb29190613121565b50611bc2565b611bc284846122c3565b6040516370a0823160e01b81523060048201526000906001600160a01b038616906370a082319060240160206040518083038186803b158015611c0457600080fd5b505afa158015611c18573d6000803e3d6000fd5b505050506040513d601f19601f82011682018060405250810190611c3c9190613121565b905083811015611c8f57611c4f81612ad4565b611c5885612ad4565b604051602001611c699291906132b2565b60408051601f198184030181529082905262461bcd60e51b825261074291600401613424565b60fb5460405163a9059cbb60e01b81526001600160a01b039182166004820152602481018690529086169063a9059cbb90604401602060405180830381600087803b158015611cdd57600080fd5b505af1158015611cf1573d6000803e3d6000fd5b505050506040513d601f19601f82011682018060405250810190611d1591906130eb565b5092949350505050565b6001600160a01b03163b151590565b611d3882826116cd565b61075557611d50816001600160a01b03166014612bda565b611d5b836020612bda565b604051602001611c69929190613337565b611d7682826116cd565b6107555760008281526065602090815260408083206001600160a01b03851684529091529020805460ff19166001179055611dae3390565b6001600160a01b0316816001600160a01b0316837f2f8788117e7eff1d82e926ec794901d17c78024a50270940304540a733656f0d60405160405180910390a45050565b611dfc82826116cd565b156107555760008281526065602090815260408083206001600160a01b0385168085529252808320805460ff1916905551339285917ff6391f5c32d9c69d2a47ea670b442974b53935d1edc7fd64eb21e047a839171b9190a45050565b7f189ab7a9244df0848122154315af71fe140f3db0fe014031783b0946b8c9d2e36107558133611d2e565b7f4910fdfa16fed3260ed0e7147f7cc6da11a60208b5b9406d12a635614ffd91435460ff1615611eb7576106d183612d7d565b826001600160a01b03166352d1902d6040518163ffffffff1660e01b815260040160206040518083038186803b158015611ef057600080fd5b505afa925050508015611f20575060408051601f3d908101601f19168201909252611f1d91810190613121565b60015b611f835760405162461bcd60e51b815260206004820152602e60248201527f45524331393637557067726164653a206e657720696d706c656d656e7461746960448201526d6f6e206973206e6f74205555505360901b6064820152608401610742565b6000805160206137708339815191528114611ff25760405162461bcd60e51b815260206004820152602960248201527f45524331393637557067726164653a20756e737570706f727465642070726f786044820152681a58589b195555525160ba1b6064820152608401610742565b506106d1838383612e19565b6117276000806122c3565b60fe54801580612022575081612020600183613615565b105b1561206f5760006120338284613615565b61203e9060016135ca565b905060005b818160ff16101561206c5760fe80546001018155600052806120648161368a565b915050612043565b50505b8260fe838154811061208357612083613700565b600091825260209182902083516005929092020180546001600160a01b039283166001600160a01b0319909116178155838301516001820155604080850151600283015560608086015160038401556080808701516004909401805460a09889015115156101000261ff00199615159690961661ffff1990911617949094179093558851898601518a8401518b8401518c8701518d8b015187518e815295909916998501999099529483019190915291810191909152918201529115159282019290925290151560c08201527fd94cc62d90f129d20553201fe591ba953b840f15c77827e542b9810e444161f29060e00160405180910390a1505050565b600054610100900460ff166117275760405162461bcd60e51b815260206004820152602b60248201527f496e697469616c697a61626c653a20636f6e7472616374206973206e6f74206960448201526a6e697469616c697a696e6760a81b6064820152608401610742565b60006121f66118fe565b905060005b81518160ff161015610755576000828260ff168151811061221e5761221e613700565b602002602001015190508060a00151156122b0578051604051633bd73ee360e21b81523060048201526001600160a01b039091169063ef5cfb8c90602401602060405180830381600087803b15801561227657600080fd5b505af115801561228a573d6000803e3d6000fd5b505050506040513d601f19601f820116820180604052508101906122ae9190613121565b505b50806122bb8161368a565b9150506121fb565b60006122cd6118fe565b60fc546040516370a0823160e01b81523060048201529192506000916001600160a01b03909116906370a082319060240160206040518083038186803b15801561231657600080fd5b505afa15801561232a573d6000803e3d6000fd5b505050506040513d601f19601f8201168201806040525081019061234e9190613121565b90506000805b83518160ff16101561254e57838160ff168151811061237557612375613700565b60200260200101516080015161238a5761253c565b838160ff168151811061239f5761239f613700565b6020026020010151604001516000141561247057838160ff16815181106123c8576123c8613700565b60209081029190910101515160fc5460405163f6f6b88160e01b81526001600160a01b039283169263f6f6b8819261240d9291169060009030906001906004016133ac565b602060405180830381600087803b15801561242757600080fd5b505af115801561243b573d6000803e3d6000fd5b505050506040513d601f19601f8201168201806040525081019061245f9190613121565b61246990846135ca565b925061253c565b838160ff168151811061248557612485613700565b6020026020010151600001516001600160a01b031663a3673b386040518163ffffffff1660e01b815260040160206040518083038186803b1580156124c957600080fd5b505afa1580156124dd573d6000803e3d6000fd5b505050506040513d601f19601f820116820180604052508101906125019190613121565b61250b90846135ca565b9250838160ff168151811061252257612522613700565b6020026020010151604001518261253991906135ca565b91505b806125468161368a565b915050612354565b5060fc546001600160a01b03868116911614156125d857838210156125cb5760405162461bcd60e51b815260206004820152602d60248201527f547279696e67207769746864726177206d6f7265207468616e206c697175696460448201526c69747920617661696c61626c6560981b6064820152608401610742565b6125d58483613615565b91505b6000835167ffffffffffffffff8111156125f4576125f4613716565b60405190808252806020026020018201604052801561263f57816020015b60408051606081018252600080825260208083018290529282015282526000199092019101816126125790505b5090506000805b85518160ff1610156128e657858160ff168151811061266757612667613700565b60200260200101516080015161267c576128d4565b6000868260ff168151811061269357612693613700565b602002602001015160400151600014156126af575060006126e9565b84878360ff16815181106126c5576126c5613700565b602002602001015160400151876126dc91906135f6565b6126e691906135e2565b90505b6000878360ff168151811061270057612700613700565b6020026020010151600001516001600160a01b031663a3673b386040518163ffffffff1660e01b815260040160206040518083038186803b15801561274457600080fd5b505afa158015612758573d6000803e3d6000fd5b505050506040513d601f19601f8201168201806040525081019061277c9190613121565b90508082141561278d5750506128d4565b8082101561285057878360ff16815181106127aa576127aa613700565b60209081029190910101515160fc546001600160a01b039182169163f6f6b88191166127d68585613615565b3060006040518563ffffffff1660e01b81526004016127f894939291906133ac565b602060405180830381600087803b15801561281257600080fd5b505af1158015612826573d6000803e3d6000fd5b505050506040513d601f19601f8201168201806040525081019061284a9190613121565b506128d1565b6040518060600160405280600115158152602001898560ff168151811061287957612879613700565b6020026020010151600001516001600160a01b03168152602001828461289f9190613615565b815250858560ff16815181106128b7576128b7613700565b602002602001018190525083806128cd9061368a565b9450505b50505b806128de8161368a565b915050612646565b5060005b8160ff168160ff161015610cbb576000838260ff168151811061290f5761290f613700565b60200260200101516020015190506000848360ff168151811061293457612934613700565b602090810291909101015160409081015160fc5491516370a0823160e01b81523060048201529092506000916001600160a01b0316906370a082319060240160206040518083038186803b15801561298b57600080fd5b505afa15801561299f573d6000803e3d6000fd5b505050506040513d601f19601f820116820180604052508101906129c39190613121565b9050818110156129d1578091505b60fc5460405163a9059cbb60e01b81526001600160a01b038581166004830152602482018590529091169063a9059cbb90604401602060405180830381600087803b158015612a1f57600080fd5b505af1158015612a33573d6000803e3d6000fd5b505050506040513d601f19601f82011682018060405250810190612a5791906130eb565b5060fc546040516356e4bb9760e11b81526001600160a01b039182166004820152602481018490529084169063adc9772e90604401600060405180830381600087803b158015612aa657600080fd5b505af1158015612aba573d6000803e3d6000fd5b505050505050508080612acc9061368a565b9150506128ea565b606081612af85750506040805180820190915260018152600360fc1b602082015290565b8160005b8115612b225780612b0c8161366f565b9150612b1b9050600a836135e2565b9150612afc565b60008167ffffffffffffffff811115612b3d57612b3d613716565b6040519080825280601f01601f191660200182016040528015612b67576020820181803683370190505b5090505b8415612bd257612b7c600183613615565b9150612b89600a866136aa565b612b949060306135ca565b60f81b818381518110612ba957612ba9613700565b60200101906001600160f81b031916908160001a905350612bcb600a866135e2565b9450612b6b565b949350505050565b60606000612be98360026135f6565b612bf49060026135ca565b67ffffffffffffffff811115612c0c57612c0c613716565b6040519080825280601f01601f191660200182016040528015612c36576020820181803683370190505b509050600360fc1b81600081518110612c5157612c51613700565b60200101906001600160f81b031916908160001a905350600f60fb1b81600181518110612c8057612c80613700565b60200101906001600160f81b031916908160001a9053506000612ca48460026135f6565b612caf9060016135ca565b90505b6001811115612d27576f181899199a1a9b1b9c1cb0b131b232b360811b85600f1660108110612ce357612ce3613700565b1a60f81b828281518110612cf957612cf9613700565b60200101906001600160f81b031916908160001a90535060049490941c93612d2081613658565b9050612cb2565b508315612d765760405162461bcd60e51b815260206004820181905260248201527f537472696e67733a20686578206c656e67746820696e73756666696369656e746044820152606401610742565b9392505050565b6001600160a01b0381163b612dea5760405162461bcd60e51b815260206004820152602d60248201527f455243313936373a206e657720696d706c656d656e746174696f6e206973206e60448201526c1bdd08184818dbdb9d1c9858dd609a1b6064820152608401610742565b60008051602061377083398151915280546001600160a01b0319166001600160a01b0392909216919091179055565b612e2283612e44565b600082511180612e2f5750805b156106d157612e3e8383612e84565b50505050565b612e4d81612d7d565b6040516001600160a01b038216907fbc7cd75a20ee27fd9adebab32041f755214dbc6bffa90cc0225b39da2e5c2d3b90600090a250565b60606001600160a01b0383163b612eec5760405162461bcd60e51b815260206004820152602660248201527f416464726573733a2064656c65676174652063616c6c20746f206e6f6e2d636f6044820152651b9d1c9858dd60d21b6064820152608401610742565b600080846001600160a01b031684604051612f079190613296565b600060405180830381855af49150503d8060008114612f42576040519150601f19603f3d011682016040523d82523d6000602084013e612f47565b606091505b5091509150612f6f828260405180606001604052806027815260200161379060279139612f78565b95945050505050565b60608315612f87575081612d76565b825115612f975782518084602001fd5b8160405162461bcd60e51b81526004016107429190613424565b600060208284031215612fc357600080fd5b8135612d768161372c565b60008060408385031215612fe157600080fd5b8235612fec8161372c565b915060208381013567ffffffffffffffff8082111561300a57600080fd5b818601915086601f83011261301e57600080fd5b81358181111561303057613030613716565b613042601f8201601f19168501613599565b9150808252878482850101111561305857600080fd5b80848401858401376000848284010152508093505050509250929050565b6000806020838503121561308957600080fd5b823567ffffffffffffffff808211156130a157600080fd5b818501915085601f8301126130b557600080fd5b8135818111156130c457600080fd5b86602060c0830285010111156130d957600080fd5b60209290920196919550909350505050565b6000602082840312156130fd57600080fd5b8151612d7681613741565b60006020828403121561311a57600080fd5b5035919050565b60006020828403121561313357600080fd5b5051919050565b6000806040838503121561314d57600080fd5b82359150602083013561315f8161372c565b809150509250929050565b60006020828403121561317c57600080fd5b81356001600160e01b031981168114612d7657600080fd5b600080604083850312156131a757600080fd5b82356131b28161372c565b946020939093013593505050565b600060c082840312156131d257600080fd5b60405160c0810181811067ffffffffffffffff821117156131f5576131f5613716565b60405282356132038161372c565b80825250602083013560208201526040830135604082015260608301356060820152608083013561323381613741565b608082015260a083013561324681613741565b60a08201529392505050565b80516001600160a01b0316825260208082015190830152604080820151908301526060808201519083015260808082015115159083015260a0908101511515910152565b600082516132a881846020870161362c565b9190910192915050565b7f496e20706f7274666f6c696f4d616e61676572206e6f7420656e6f7567682066815274037b9103a3930b739b332b9102fb0b6b7bab73a1d1605d1b60208201526000835161330881603585016020880161362c565b620101e160ed1b603591840191820152835161332b81603884016020880161362c565b01603801949350505050565b7f416363657373436f6e74726f6c3a206163636f756e742000000000000000000081526000835161336f81601785016020880161362c565b7001034b99036b4b9b9b4b733903937b6329607d1b60179184019182015283516133a081602884016020880161362c565b01602801949350505050565b6001600160a01b039485168152602081019390935292166040820152901515606082015260800190565b6020808252825182820181905260009190848201906040850190845b8181101561341857613405838551613252565b9284019260c092909201916001016133f2565b50909695505050505050565b602081526000825180602084015261344381604085016020870161362c565b601f01601f19169190910160400192915050565b6020808252601b908201527f43616c6c6572206973206e6f74207468652045584348414e4745520000000000604082015260600190565b6020808252602c908201527f46756e6374696f6e206d7573742062652063616c6c6564207468726f7567682060408201526b19195b1959d85d1958d85b1b60a21b606082015260800190565b6020808252602c908201527f46756e6374696f6e206d7573742062652063616c6c6564207468726f7567682060408201526b6163746976652070726f787960a01b606082015260800190565b6020808252601490820152735265737472696374656420746f2061646d696e7360601b604082015260600190565b60208082526018908201527f5a65726f2061646472657373206e6f7420616c6c6f7765640000000000000000604082015260600190565b60c081016105da8284613252565b604051601f8201601f1916810167ffffffffffffffff811182821017156135c2576135c2613716565b604052919050565b600082198211156135dd576135dd6136be565b500190565b6000826135f1576135f16136d4565b500490565b6000816000190483118215151615613610576136106136be565b500290565b600082821015613627576136276136be565b500390565b60005b8381101561364757818101518382015260200161362f565b83811115612e3e5750506000910152565b600081613667576136676136be565b506000190190565b6000600019821415613683576136836136be565b5060010190565b600060ff821660ff8114156136a1576136a16136be565b60010192915050565b6000826136b9576136b96136d4565b500690565b634e487b7160e01b600052601160045260246000fd5b634e487b7160e01b600052601260045260246000fd5b634e487b7160e01b600052603160045260246000fd5b634e487b7160e01b600052603260045260246000fd5b634e487b7160e01b600052604160045260246000fd5b6001600160a01b038116811461083657600080fd5b801515811461083657600080fdfe3eb675f159e6ca6cf5de6bfbbc8c4521cfd428f5e9166e51094d5898504caf2d360894a13ba1a3210667c828492db98dca3e2076cc3735a920a3ca505d382bbc416464726573733a206c6f772d6c6576656c2064656c65676174652063616c6c206661696c6564a26469706673582212208b2c09e52108cd2abfb1ab0a8ff572e5c834f72be07994051909de1f378482c664736f6c63430008060033",
  "devdoc": {
    "kind": "dev",
    "methods": {
      "constructor": {
        "custom:oz-upgrades-unsafe-allow": "constructor"
      },
      "getRoleAdmin(bytes32)": {
        "details": "Returns the admin role that controls `role`. See {grantRole} and {revokeRole}. To change a role's admin, use {_setRoleAdmin}."
      },
      "grantRole(bytes32,address)": {
        "details": "Grants `role` to `account`. If `account` had not been already granted `role`, emits a {RoleGranted} event. Requirements: - the caller must have ``role``'s admin role."
      },
      "hasRole(bytes32,address)": {
        "details": "Returns `true` if `account` has been granted `role`."
      },
      "proxiableUUID()": {
        "details": "Implementation of the ERC1822 {proxiableUUID} function. This returns the storage slot used by the implementation. It is used to validate that the this implementation remains valid after an upgrade. IMPORTANT: A proxy pointing at a proxiable contract should not be considered proxiable itself, because this risks bricking a proxy that upgrades to it, by delegating to itself until out of gas. Thus it is critical that this function revert if invoked through a proxy. This is guaranteed by the `notDelegated` modifier."
      },
      "renounceRole(bytes32,address)": {
        "details": "Revokes `role` from the calling account. Roles are often managed via {grantRole} and {revokeRole}: this function's purpose is to provide a mechanism for accounts to lose their privileges if they are compromised (such as when a trusted device is misplaced). If the calling account had been revoked `role`, emits a {RoleRevoked} event. Requirements: - the caller must be `account`."
      },
      "revokeRole(bytes32,address)": {
        "details": "Revokes `role` from `account`. If `account` had been granted `role`, emits a {RoleRevoked} event. Requirements: - the caller must have ``role``'s admin role."
      },
      "supportsInterface(bytes4)": {
        "details": "See {IERC165-supportsInterface}."
      },
      "upgradeTo(address)": {
        "details": "Upgrade the implementation of the proxy to `newImplementation`. Calls {_authorizeUpgrade}. Emits an {Upgraded} event."
      },
      "upgradeToAndCall(address,bytes)": {
        "details": "Upgrade the implementation of the proxy to `newImplementation`, and subsequently execute the function call encoded in `data`. Calls {_authorizeUpgrade}. Emits an {Upgraded} event."
      }
    },
    "version": 1
  },
  "userdoc": {
    "kind": "user",
    "methods": {},
    "version": 1
  },
  "storageLayout": {
    "storage": [
      {
        "astId": 797,
        "contract": "contracts/PortfolioManager.sol:PortfolioManager",
        "label": "_initialized",
        "offset": 0,
        "slot": "0",
        "type": "t_bool"
      },
      {
        "astId": 800,
        "contract": "contracts/PortfolioManager.sol:PortfolioManager",
        "label": "_initializing",
        "offset": 1,
        "slot": "0",
        "type": "t_bool"
      },
      {
        "astId": 1498,
        "contract": "contracts/PortfolioManager.sol:PortfolioManager",
        "label": "__gap",
        "offset": 0,
        "slot": "1",
        "type": "t_array(t_uint256)50_storage"
      },
      {
        "astId": 1805,
        "contract": "contracts/PortfolioManager.sol:PortfolioManager",
        "label": "__gap",
        "offset": 0,
        "slot": "51",
        "type": "t_array(t_uint256)50_storage"
      },
      {
        "astId": 39,
        "contract": "contracts/PortfolioManager.sol:PortfolioManager",
        "label": "_roles",
        "offset": 0,
        "slot": "101",
        "type": "t_mapping(t_bytes32,t_struct(RoleData)34_storage)"
      },
      {
        "astId": 327,
        "contract": "contracts/PortfolioManager.sol:PortfolioManager",
        "label": "__gap",
        "offset": 0,
        "slot": "102",
        "type": "t_array(t_uint256)49_storage"
      },
      {
        "astId": 779,
        "contract": "contracts/PortfolioManager.sol:PortfolioManager",
        "label": "__gap",
        "offset": 0,
        "slot": "151",
        "type": "t_array(t_uint256)50_storage"
      },
      {
        "astId": 999,
        "contract": "contracts/PortfolioManager.sol:PortfolioManager",
        "label": "__gap",
        "offset": 0,
        "slot": "201",
        "type": "t_array(t_uint256)50_storage"
      },
      {
        "astId": 4438,
        "contract": "contracts/PortfolioManager.sol:PortfolioManager",
        "label": "exchanger",
        "offset": 0,
        "slot": "251",
        "type": "t_address"
      },
      {
        "astId": 4441,
        "contract": "contracts/PortfolioManager.sol:PortfolioManager",
        "label": "usdc",
        "offset": 0,
        "slot": "252",
        "type": "t_contract(IERC20)2484"
      },
      {
        "astId": 4445,
        "contract": "contracts/PortfolioManager.sol:PortfolioManager",
        "label": "strategyWeightPositions",
        "offset": 0,
        "slot": "253",
        "type": "t_mapping(t_address,t_uint256)"
      },
      {
        "astId": 4449,
        "contract": "contracts/PortfolioManager.sol:PortfolioManager",
        "label": "strategyWeights",
        "offset": 0,
        "slot": "254",
        "type": "t_array(t_struct(StrategyWeight)7526_storage)dyn_storage"
      },
      {
        "astId": 4452,
        "contract": "contracts/PortfolioManager.sol:PortfolioManager",
        "label": "cashStrategy",
        "offset": 0,
        "slot": "255",
        "type": "t_contract(IStrategy)7673"
      }
    ],
    "types": {
      "t_address": {
        "encoding": "inplace",
        "label": "address",
        "numberOfBytes": "20"
      },
      "t_array(t_struct(StrategyWeight)7526_storage)dyn_storage": {
        "base": "t_struct(StrategyWeight)7526_storage",
        "encoding": "dynamic_array",
        "label": "struct IPortfolioManager.StrategyWeight[]",
        "numberOfBytes": "32"
      },
      "t_array(t_uint256)49_storage": {
        "base": "t_uint256",
        "encoding": "inplace",
        "label": "uint256[49]",
        "numberOfBytes": "1568"
      },
      "t_array(t_uint256)50_storage": {
        "base": "t_uint256",
        "encoding": "inplace",
        "label": "uint256[50]",
        "numberOfBytes": "1600"
      },
      "t_bool": {
        "encoding": "inplace",
        "label": "bool",
        "numberOfBytes": "1"
      },
      "t_bytes32": {
        "encoding": "inplace",
        "label": "bytes32",
        "numberOfBytes": "32"
      },
      "t_contract(IERC20)2484": {
        "encoding": "inplace",
        "label": "contract IERC20",
        "numberOfBytes": "20"
      },
      "t_contract(IStrategy)7673": {
        "encoding": "inplace",
        "label": "contract IStrategy",
        "numberOfBytes": "20"
      },
      "t_mapping(t_address,t_bool)": {
        "encoding": "mapping",
        "key": "t_address",
        "label": "mapping(address => bool)",
        "numberOfBytes": "32",
        "value": "t_bool"
      },
      "t_mapping(t_address,t_uint256)": {
        "encoding": "mapping",
        "key": "t_address",
        "label": "mapping(address => uint256)",
        "numberOfBytes": "32",
        "value": "t_uint256"
      },
      "t_mapping(t_bytes32,t_struct(RoleData)34_storage)": {
        "encoding": "mapping",
        "key": "t_bytes32",
        "label": "mapping(bytes32 => struct AccessControlUpgradeable.RoleData)",
        "numberOfBytes": "32",
        "value": "t_struct(RoleData)34_storage"
      },
      "t_struct(RoleData)34_storage": {
        "encoding": "inplace",
        "label": "struct AccessControlUpgradeable.RoleData",
        "members": [
          {
            "astId": 31,
            "contract": "contracts/PortfolioManager.sol:PortfolioManager",
            "label": "members",
            "offset": 0,
            "slot": "0",
            "type": "t_mapping(t_address,t_bool)"
          },
          {
            "astId": 33,
            "contract": "contracts/PortfolioManager.sol:PortfolioManager",
            "label": "adminRole",
            "offset": 0,
            "slot": "1",
            "type": "t_bytes32"
          }
        ],
        "numberOfBytes": "64"
      },
      "t_struct(StrategyWeight)7526_storage": {
        "encoding": "inplace",
        "label": "struct IPortfolioManager.StrategyWeight",
        "members": [
          {
            "astId": 7515,
            "contract": "contracts/PortfolioManager.sol:PortfolioManager",
            "label": "strategy",
            "offset": 0,
            "slot": "0",
            "type": "t_address"
          },
          {
            "astId": 7517,
            "contract": "contracts/PortfolioManager.sol:PortfolioManager",
            "label": "minWeight",
            "offset": 0,
            "slot": "1",
            "type": "t_uint256"
          },
          {
            "astId": 7519,
            "contract": "contracts/PortfolioManager.sol:PortfolioManager",
            "label": "targetWeight",
            "offset": 0,
            "slot": "2",
            "type": "t_uint256"
          },
          {
            "astId": 7521,
            "contract": "contracts/PortfolioManager.sol:PortfolioManager",
            "label": "maxWeight",
            "offset": 0,
            "slot": "3",
            "type": "t_uint256"
          },
          {
            "astId": 7523,
            "contract": "contracts/PortfolioManager.sol:PortfolioManager",
            "label": "enabled",
            "offset": 0,
            "slot": "4",
            "type": "t_bool"
          },
          {
            "astId": 7525,
            "contract": "contracts/PortfolioManager.sol:PortfolioManager",
            "label": "enabledReward",
            "offset": 1,
            "slot": "4",
            "type": "t_bool"
          }
        ],
        "numberOfBytes": "160"
      },
      "t_uint256": {
        "encoding": "inplace",
        "label": "uint256",
        "numberOfBytes": "32"
      }
    }
  }
}