{
  "address": "0x6dB88C266121c42744aCA5296A3e44b23C2a0fC6",
  "abi": [
    {
      "anonymous": false,
      "inputs": [
        {
          "indexed": true,
          "internalType": "address",
          "name": "previousOwner",
          "type": "address"
        },
        {
          "indexed": true,
          "internalType": "address",
          "name": "newOwner",
          "type": "address"
        }
      ],
      "name": "OwnershipTransferred",
      "type": "event"
    },
    {
      "anonymous": false,
      "inputs": [
        {
          "indexed": false,
          "internalType": "address",
          "name": "pool",
          "type": "address"
        }
      ],
      "name": "UpdatedPool",
      "type": "event"
    },
    {
      "inputs": [],
      "name": "DENOMINATOR",
      "outputs": [
        {
          "internalType": "uint256",
          "name": "",
          "type": "uint256"
        }
      ],
      "stateMutability": "view",
      "type": "function"
    },
    {
      "inputs": [],
      "name": "denominator",
      "outputs": [
        {
          "internalType": "uint256",
          "name": "",
          "type": "uint256"
        }
      ],
      "stateMutability": "view",
      "type": "function"
    },
    {
      "inputs": [],
      "name": "getUsdcBuyPrice",
      "outputs": [
        {
          "internalType": "uint256",
          "name": "",
          "type": "uint256"
        }
      ],
      "stateMutability": "view",
      "type": "function"
    },
    {
      "inputs": [],
      "name": "getUsdcSellPrice",
      "outputs": [
        {
          "internalType": "uint256",
          "name": "",
          "type": "uint256"
        }
      ],
      "stateMutability": "view",
      "type": "function"
    },
    {
      "inputs": [],
      "name": "owner",
      "outputs": [
        {
          "internalType": "address",
          "name": "",
          "type": "address"
        }
      ],
      "stateMutability": "view",
      "type": "function"
    },
    {
      "inputs": [],
      "name": "pool",
      "outputs": [
        {
          "internalType": "contract iCurvePool",
          "name": "",
          "type": "address"
        }
      ],
      "stateMutability": "view",
      "type": "function"
    },
    {
      "inputs": [],
      "name": "renounceOwnership",
      "outputs": [],
      "stateMutability": "nonpayable",
      "type": "function"
    },
    {
      "inputs": [
        {
          "internalType": "address",
          "name": "_pool",
          "type": "address"
        }
      ],
      "name": "setPool",
      "outputs": [],
      "stateMutability": "nonpayable",
      "type": "function"
    },
    {
      "inputs": [
        {
          "internalType": "address",
          "name": "newOwner",
          "type": "address"
        }
      ],
      "name": "transferOwnership",
      "outputs": [],
      "stateMutability": "nonpayable",
      "type": "function"
    }
  ],
  "transactionHash": "0x978bbcaa2992258400719073d9b4ce03f9976628461909c699fa09ff9f8fd9fa",
  "args": [],
  "solcInputHash": "a52a09ed2b2706cd99c66d36846223b4",
  "bytecode": "0x608060405234801561001057600080fd5b5061001a3361001f565b61006f565b600080546001600160a01b038381166001600160a01b0319831681178455604051919092169283917f8be0079c531659141344cd1fd0a4f28419497f9722a3daafe3b4186f6b6457e09190a35050565b6104708061007e6000396000f3fe608060405234801561001057600080fd5b50600436106100935760003560e01c80638da5cb5b116100665780638da5cb5b146100fb578063918f86741461010c57806396ce07951461011b578063ea249784146100c8578063f2fde38b1461012957600080fd5b806316f0115b146100985780632b8455f1146100c85780634437152a146100de578063715018a6146100f3575b600080fd5b6001546100ab906001600160a01b031681565b6040516001600160a01b0390911681526020015b60405180910390f35b6100d061013c565b6040519081526020016100bf565b6100f16100ec3660046103bc565b6101be565b005b6100f161029b565b6000546001600160a01b03166100ab565b6100d0670de0b6b3a764000081565b670de0b6b3a76400006100d0565b6100f16101373660046103bc565b6102d1565b60015460408051630176f71760e71b815290516000926001600160a01b03169163bb7b8b80916004808301926020929190829003018186803b15801561018157600080fd5b505afa158015610195573d6000803e3d6000fd5b505050506040513d601f19601f820116820180604052508101906101b991906103ec565b905090565b6000546001600160a01b031633146101f15760405162461bcd60e51b81526004016101e890610405565b60405180910390fd5b6001600160a01b0381166102475760405162461bcd60e51b815260206004820152601860248201527f5a65726f2061646472657373206e6f7420616c6c6f776564000000000000000060448201526064016101e8565b600180546001600160a01b0319166001600160a01b0383169081179091556040519081527fd50df7b632d9dd4177a35984990e76264db301d1fe81eaefb3713e915aab8fd89060200160405180910390a150565b6000546001600160a01b031633146102c55760405162461bcd60e51b81526004016101e890610405565b6102cf600061036c565b565b6000546001600160a01b031633146102fb5760405162461bcd60e51b81526004016101e890610405565b6001600160a01b0381166103605760405162461bcd60e51b815260206004820152602660248201527f4f776e61626c653a206e6577206f776e657220697320746865207a65726f206160448201526564647265737360d01b60648201526084016101e8565b6103698161036c565b50565b600080546001600160a01b038381166001600160a01b0319831681178455604051919092169283917f8be0079c531659141344cd1fd0a4f28419497f9722a3daafe3b4186f6b6457e09190a35050565b6000602082840312156103ce57600080fd5b81356001600160a01b03811681146103e557600080fd5b9392505050565b6000602082840312156103fe57600080fd5b5051919050565b6020808252818101527f4f776e61626c653a2063616c6c6572206973206e6f7420746865206f776e657260408201526060019056fea2646970667358221220cceea05c42eefb8be63365e7383e5ecf5e8e118d4cecd472cb3394864bc4b36664736f6c63430008060033",
  "devdoc": {
    "kind": "dev",
    "methods": {
      "owner()": {
        "details": "Returns the address of the current owner."
      },
      "renounceOwnership()": {
        "details": "Leaves the contract without owner. It will not be possible to call `onlyOwner` functions anymore. Can only be called by the current owner. NOTE: Renouncing ownership will leave the contract without an owner, thereby removing any functionality that is only available to the owner."
      },
      "transferOwnership(address)": {
        "details": "Transfers ownership of the contract to a new account (`newOwner`). Can only be called by the current owner."
      }
    },
    "version": 1
  },
  "userdoc": {
    "kind": "user",
    "methods": {
      "denominator()": {
        "notice": "Denominator for normalization. Default 10**18."
      },
      "getUsdcBuyPrice()": {
        "notice": "Token buy price at USDC. Amount of USDC we should spend to buy one token. Returned value is [USDC/token] Usage: tokenAmount = usdcAmount * denominator() / getUsdcBuyPrice() Normilized to 10**18"
      },
      "getUsdcSellPrice()": {
        "notice": "Token sell price at USDC. Amount of USDC we got if sell one token. Returned value is [USDC/token] Usage: usdcAmount = tokenAmount * getUsdcSellPrice() / denominator() Normilized to 10**18"
      }
    },
    "version": 1
  },
  "storageLayout": {
    "storage": [
      {
        "astId": 389,
        "contract": "contracts/price_getters/A3CrvPriceGetter.sol:A3CrvPriceGetter",
        "label": "_owner",
        "offset": 0,
        "slot": "0",
        "type": "t_address"
      },
      {
        "astId": 16387,
        "contract": "contracts/price_getters/A3CrvPriceGetter.sol:A3CrvPriceGetter",
        "label": "pool",
        "offset": 0,
        "slot": "1",
        "type": "t_contract(iCurvePool)14719"
      }
    ],
    "types": {
      "t_address": {
        "encoding": "inplace",
        "label": "address",
        "numberOfBytes": "20"
      },
      "t_contract(iCurvePool)14719": {
        "encoding": "inplace",
        "label": "contract iCurvePool",
        "numberOfBytes": "20"
      }
    }
  }
}