{
  "address": "0xC3cb7Ae751C2F9680709E691CF9152355A5Ed2FA",
  "abi": [
    {
      "anonymous": false,
      "inputs": [
        {
          "indexed": true,
          "internalType": "address",
          "name": "previousOwner",
          "type": "address"
        },
        {
          "indexed": true,
          "internalType": "address",
          "name": "newOwner",
          "type": "address"
        }
      ],
      "name": "OwnershipTransferred",
      "type": "event"
    },
    {
      "inputs": [],
      "name": "idleToken",
      "outputs": [
        {
          "internalType": "contract IIdleToken",
          "name": "",
          "type": "address"
        }
      ],
      "stateMutability": "view",
      "type": "function"
    },
    {
      "inputs": [],
      "name": "owner",
      "outputs": [
        {
          "internalType": "address",
          "name": "",
          "type": "address"
        }
      ],
      "stateMutability": "view",
      "type": "function"
    },
    {
      "inputs": [],
      "name": "renounceOwnership",
      "outputs": [],
      "stateMutability": "nonpayable",
      "type": "function"
    },
    {
      "inputs": [
        {
          "internalType": "address",
          "name": "_idleToken",
          "type": "address"
        }
      ],
      "name": "setIdleToken",
      "outputs": [],
      "stateMutability": "nonpayable",
      "type": "function"
    },
    {
      "inputs": [
        {
          "internalType": "address",
          "name": "_asset",
          "type": "address"
        },
        {
          "internalType": "uint256",
          "name": "_amount",
          "type": "uint256"
        },
        {
          "internalType": "address",
          "name": "_beneficiar",
          "type": "address"
        }
      ],
      "name": "stake",
      "outputs": [],
      "stateMutability": "nonpayable",
      "type": "function"
    },
    {
      "inputs": [
        {
          "internalType": "address",
          "name": "newOwner",
          "type": "address"
        }
      ],
      "name": "transferOwnership",
      "outputs": [],
      "stateMutability": "nonpayable",
      "type": "function"
    },
    {
      "inputs": [
        {
          "internalType": "address",
          "name": "_asset",
          "type": "address"
        },
        {
          "internalType": "uint256",
          "name": "_amount",
          "type": "uint256"
        },
        {
          "internalType": "address",
          "name": "_beneficiar",
          "type": "address"
        }
      ],
      "name": "unstake",
      "outputs": [
        {
          "internalType": "uint256",
          "name": "",
          "type": "uint256"
        }
      ],
      "stateMutability": "nonpayable",
      "type": "function"
    }
  ],
  "transactionHash": "0x8c139463260e7be6d2ea388491772d54ff8e364f1170a413f92f12a945a5b9c0",
  "args": [],
  "solcInputHash": "25adf4eadcb307954ae2983ed71daa05",
  "bytecode": "0x608060405234801561001057600080fd5b5061001a3361001f565b61006f565b600080546001600160a01b038381166001600160a01b0319831681178455604051919092169283917f8be0079c531659141344cd1fd0a4f28419497f9722a3daafe3b4186f6b6457e09190a35050565b6106cc8061007e6000396000f3fe608060405234801561001057600080fd5b506004361061007d5760003560e01c80638da5cb5b1161005b5780638da5cb5b146100cf578063926e31d6146100e057806395e5819114610101578063f2fde38b1461011457600080fd5b8063294091cd146100825780632dd60c5e14610097578063715018a6146100c7575b600080fd5b6100956100903660046105ea565b610127565b005b6001546100aa906001600160a01b031681565b6040516001600160a01b0390911681526020015b60405180910390f35b6100956102ce565b6000546001600160a01b03166100aa565b6100f36100ee3660046105ea565b61030d565b6040519081526020016100be565b61009561010f3660046105c8565b61041f565b6100956101223660046105c8565b6104c1565b60015460405163095ea7b360e01b81526001600160a01b039182166004820152602481018490529084169063095ea7b390604401602060405180830381600087803b15801561017557600080fd5b505af1158015610189573d6000803e3d6000fd5b505050506040513d601f19601f820116820180604052508101906101ad9190610626565b5060018054604051632befabbf60e01b81526004810185905260248101929092526001600160a01b038381166044840152600092911690632befabbf90606401602060405180830381600087803b15801561020757600080fd5b505af115801561021b573d6000803e3d6000fd5b505050506040513d601f19601f8201168201806040525081019061023f9190610648565b60015460405163a9059cbb60e01b81526001600160a01b0385811660048301526024820184905292935091169063a9059cbb90604401602060405180830381600087803b15801561028f57600080fd5b505af11580156102a3573d6000803e3d6000fd5b505050506040513d601f19601f820116820180604052508101906102c79190610626565b5050505050565b6000546001600160a01b031633146103015760405162461bcd60e51b81526004016102f890610661565b60405180910390fd5b61030b600061055c565b565b6001546040516345985a8b60e11b81526004810184905260009182916001600160a01b0390911690638b30b51690602401602060405180830381600087803b15801561035857600080fd5b505af115801561036c573d6000803e3d6000fd5b505050506040513d601f19601f820116820180604052508101906103909190610648565b60405163a9059cbb60e01b81526001600160a01b038581166004830152602482018390529192509086169063a9059cbb90604401602060405180830381600087803b1580156103de57600080fd5b505af11580156103f2573d6000803e3d6000fd5b505050506040513d601f19601f820116820180604052508101906104169190610626565b50949350505050565b6000546001600160a01b031633146104495760405162461bcd60e51b81526004016102f890610661565b6001600160a01b03811661049f5760405162461bcd60e51b815260206004820152601860248201527f5a65726f2061646472657373206e6f7420616c6c6f776564000000000000000060448201526064016102f8565b600180546001600160a01b0319166001600160a01b0392909216919091179055565b6000546001600160a01b031633146104eb5760405162461bcd60e51b81526004016102f890610661565b6001600160a01b0381166105505760405162461bcd60e51b815260206004820152602660248201527f4f776e61626c653a206e6577206f776e657220697320746865207a65726f206160448201526564647265737360d01b60648201526084016102f8565b6105598161055c565b50565b600080546001600160a01b038381166001600160a01b0319831681178455604051919092169283917f8be0079c531659141344cd1fd0a4f28419497f9722a3daafe3b4186f6b6457e09190a35050565b80356001600160a01b03811681146105c357600080fd5b919050565b6000602082840312156105da57600080fd5b6105e3826105ac565b9392505050565b6000806000606084860312156105ff57600080fd5b610608846105ac565b92506020840135915061061d604085016105ac565b90509250925092565b60006020828403121561063857600080fd5b815180151581146105e357600080fd5b60006020828403121561065a57600080fd5b5051919050565b6020808252818101527f4f776e61626c653a2063616c6c6572206973206e6f7420746865206f776e657260408201526060019056fea2646970667358221220eda44bd406bc84a55d5c26deea1e2801925575622cbc0c6fc6188f2e5b40e6a464736f6c63430008060033",
  "devdoc": {
    "kind": "dev",
    "methods": {
      "owner()": {
        "details": "Returns the address of the current owner."
      },
      "renounceOwnership()": {
        "details": "Leaves the contract without owner. It will not be possible to call `onlyOwner` functions anymore. Can only be called by the current owner. NOTE: Renouncing ownership will leave the contract without an owner, thereby removing any functionality that is only available to the owner."
      },
      "transferOwnership(address)": {
        "details": "Transfers ownership of the contract to a new account (`newOwner`). Can only be called by the current owner."
      }
    },
    "version": 1
  },
  "userdoc": {
    "kind": "user",
    "methods": {},
    "version": 1
  },
  "storageLayout": {
    "storage": [
      {
        "astId": 4749,
        "contract": "contracts/connectors/ConnectorIDLE.sol:ConnectorIDLE",
        "label": "_owner",
        "offset": 0,
        "slot": "0",
        "type": "t_address"
      },
      {
        "astId": 20407,
        "contract": "contracts/connectors/ConnectorIDLE.sol:ConnectorIDLE",
        "label": "idleToken",
        "offset": 0,
        "slot": "1",
        "type": "t_contract(IIdleToken)22211"
      }
    ],
    "types": {
      "t_address": {
        "encoding": "inplace",
        "label": "address",
        "numberOfBytes": "20"
      },
      "t_contract(IIdleToken)22211": {
        "encoding": "inplace",
        "label": "contract IIdleToken",
        "numberOfBytes": "20"
      }
    }
  }
}