{
  "address": "0x951246722A6BA1A2Cc94697acc6a3035cd2F1A88",
  "abi": [
    {
      "inputs": [],
      "stateMutability": "nonpayable",
      "type": "constructor"
    },
    {
      "anonymous": false,
      "inputs": [
        {
          "indexed": false,
          "internalType": "address",
          "name": "previousAdmin",
          "type": "address"
        },
        {
          "indexed": false,
          "internalType": "address",
          "name": "newAdmin",
          "type": "address"
        }
      ],
      "name": "AdminChanged",
      "type": "event"
    },
    {
      "anonymous": false,
      "inputs": [
        {
          "indexed": true,
          "internalType": "address",
          "name": "beacon",
          "type": "address"
        }
      ],
      "name": "BeaconUpgraded",
      "type": "event"
    },
    {
      "anonymous": false,
      "inputs": [
        {
          "indexed": false,
          "internalType": "uint256",
          "name": "fee",
          "type": "uint256"
        },
        {
          "indexed": false,
          "internalType": "uint256",
          "name": "feeDenominator",
          "type": "uint256"
        }
      ],
      "name": "BuyFeeUpdated",
      "type": "event"
    },
    {
      "anonymous": false,
      "inputs": [
        {
          "indexed": false,
          "internalType": "string",
          "name": "label",
          "type": "string"
        },
        {
          "indexed": false,
          "internalType": "uint256",
          "name": "amount",
          "type": "uint256"
        },
        {
          "indexed": false,
          "internalType": "uint256",
          "name": "fee",
          "type": "uint256"
        },
        {
          "indexed": false,
          "internalType": "address",
          "name": "sender",
          "type": "address"
        }
      ],
      "name": "EventExchange",
      "type": "event"
    },
    {
      "anonymous": false,
      "inputs": [
        {
          "indexed": false,
          "internalType": "address",
          "name": "mark2market",
          "type": "address"
        }
      ],
      "name": "Mark2MarketUpdated",
      "type": "event"
    },
    {
      "anonymous": false,
      "inputs": [
        {
          "indexed": false,
          "internalType": "uint256",
          "name": "nextPayoutTime",
          "type": "uint256"
        }
      ],
      "name": "NextPayoutTime",
      "type": "event"
    },
    {
      "anonymous": false,
      "inputs": [
        {
          "indexed": false,
          "internalType": "uint256",
          "name": "totalUsdPlus",
          "type": "uint256"
        },
        {
          "indexed": false,
          "internalType": "uint256",
          "name": "totalUsdc",
          "type": "uint256"
        }
      ],
      "name": "NoEnoughForPayoutEvent",
      "type": "event"
    },
    {
      "anonymous": false,
      "inputs": [
        {
          "indexed": false,
          "internalType": "uint256",
          "name": "limit",
          "type": "uint256"
        },
        {
          "indexed": false,
          "internalType": "uint256",
          "name": "denominator",
          "type": "uint256"
        }
      ],
      "name": "NotEnoughLimitUpdated",
      "type": "event"
    },
    {
      "anonymous": false,
      "inputs": [
        {
          "indexed": false,
          "internalType": "address",
          "name": "token",
          "type": "address"
        },
        {
          "indexed": false,
          "internalType": "uint256",
          "name": "amount",
          "type": "uint256"
        }
      ],
      "name": "OnNotEnoughLimitRedeemed",
      "type": "event"
    },
    {
      "anonymous": false,
      "inputs": [
        {
          "indexed": false,
          "internalType": "uint256",
          "name": "amount",
          "type": "uint256"
        },
        {
          "indexed": false,
          "internalType": "uint256",
          "name": "feeAmount",
          "type": "uint256"
        }
      ],
      "name": "PaidBuyFee",
      "type": "event"
    },
    {
      "anonymous": false,
      "inputs": [
        {
          "indexed": false,
          "internalType": "uint256",
          "name": "amount",
          "type": "uint256"
        },
        {
          "indexed": false,
          "internalType": "uint256",
          "name": "feeAmount",
          "type": "uint256"
        }
      ],
      "name": "PaidRedeemFee",
      "type": "event"
    },
    {
      "anonymous": false,
      "inputs": [
        {
          "indexed": false,
          "internalType": "address",
          "name": "account",
          "type": "address"
        }
      ],
      "name": "Paused",
      "type": "event"
    },
    {
      "anonymous": false,
      "inputs": [
        {
          "indexed": false,
          "internalType": "uint256",
          "name": "totalUsdPlus",
          "type": "uint256"
        },
        {
          "indexed": false,
          "internalType": "uint256",
          "name": "totalUsdc",
          "type": "uint256"
        },
        {
          "indexed": false,
          "internalType": "uint256",
          "name": "totallyAmountPaid",
          "type": "uint256"
        }
      ],
      "name": "PayoutEvent",
      "type": "event"
    },
    {
      "anonymous": false,
      "inputs": [
        {
          "indexed": false,
          "internalType": "uint256",
          "name": "nextPayoutTime",
          "type": "uint256"
        },
        {
          "indexed": false,
          "internalType": "uint256",
          "name": "payoutPeriod",
          "type": "uint256"
        },
        {
          "indexed": false,
          "internalType": "uint256",
          "name": "payoutTimeRange",
          "type": "uint256"
        }
      ],
      "name": "PayoutTimesUpdated",
      "type": "event"
    },
    {
      "anonymous": false,
      "inputs": [
        {
          "indexed": false,
          "internalType": "address",
          "name": "portfolioManager",
          "type": "address"
        }
      ],
      "name": "PortfolioManagerUpdated",
      "type": "event"
    },
    {
      "anonymous": false,
      "inputs": [
        {
          "indexed": false,
          "internalType": "uint256",
          "name": "fee",
          "type": "uint256"
        },
        {
          "indexed": false,
          "internalType": "uint256",
          "name": "feeDenominator",
          "type": "uint256"
        }
      ],
      "name": "RedeemFeeUpdated",
      "type": "event"
    },
    {
      "anonymous": false,
      "inputs": [
        {
          "indexed": true,
          "internalType": "bytes32",
          "name": "role",
          "type": "bytes32"
        },
        {
          "indexed": true,
          "internalType": "bytes32",
          "name": "previousAdminRole",
          "type": "bytes32"
        },
        {
          "indexed": true,
          "internalType": "bytes32",
          "name": "newAdminRole",
          "type": "bytes32"
        }
      ],
      "name": "RoleAdminChanged",
      "type": "event"
    },
    {
      "anonymous": false,
      "inputs": [
        {
          "indexed": true,
          "internalType": "bytes32",
          "name": "role",
          "type": "bytes32"
        },
        {
          "indexed": true,
          "internalType": "address",
          "name": "account",
          "type": "address"
        },
        {
          "indexed": true,
          "internalType": "address",
          "name": "sender",
          "type": "address"
        }
      ],
      "name": "RoleGranted",
      "type": "event"
    },
    {
      "anonymous": false,
      "inputs": [
        {
          "indexed": true,
          "internalType": "bytes32",
          "name": "role",
          "type": "bytes32"
        },
        {
          "indexed": true,
          "internalType": "address",
          "name": "account",
          "type": "address"
        },
        {
          "indexed": true,
          "internalType": "address",
          "name": "sender",
          "type": "address"
        }
      ],
      "name": "RoleRevoked",
      "type": "event"
    },
    {
      "anonymous": false,
      "inputs": [
        {
          "indexed": false,
          "internalType": "address",
          "name": "usdPlus",
          "type": "address"
        },
        {
          "indexed": false,
          "internalType": "address",
          "name": "usdc",
          "type": "address"
        }
      ],
      "name": "TokensUpdated",
      "type": "event"
    },
    {
      "anonymous": false,
      "inputs": [
        {
          "indexed": false,
          "internalType": "address",
          "name": "account",
          "type": "address"
        }
      ],
      "name": "Unpaused",
      "type": "event"
    },
    {
      "anonymous": false,
      "inputs": [
        {
          "indexed": true,
          "internalType": "address",
          "name": "implementation",
          "type": "address"
        }
      ],
      "name": "Upgraded",
      "type": "event"
    },
    {
      "inputs": [],
      "name": "DEFAULT_ADMIN_ROLE",
      "outputs": [
        {
          "internalType": "bytes32",
          "name": "",
          "type": "bytes32"
        }
      ],
      "stateMutability": "view",
      "type": "function"
    },
    {
      "inputs": [],
      "name": "PAUSABLE_ROLE",
      "outputs": [
        {
          "internalType": "bytes32",
          "name": "",
          "type": "bytes32"
        }
      ],
      "stateMutability": "view",
      "type": "function"
    },
    {
      "inputs": [],
      "name": "UPGRADER_ROLE",
      "outputs": [
        {
          "internalType": "bytes32",
          "name": "",
          "type": "bytes32"
        }
      ],
      "stateMutability": "view",
      "type": "function"
    },
    {
      "inputs": [],
      "name": "balance",
      "outputs": [
        {
          "internalType": "uint256",
          "name": "",
          "type": "uint256"
        }
      ],
      "stateMutability": "view",
      "type": "function"
    },
    {
      "inputs": [
        {
          "internalType": "address",
          "name": "_addrTok",
          "type": "address"
        },
        {
          "internalType": "uint256",
          "name": "_amount",
          "type": "uint256"
        }
      ],
      "name": "buy",
      "outputs": [],
      "stateMutability": "nonpayable",
      "type": "function"
    },
    {
      "inputs": [],
      "name": "buyFee",
      "outputs": [
        {
          "internalType": "uint256",
          "name": "",
          "type": "uint256"
        }
      ],
      "stateMutability": "view",
      "type": "function"
    },
    {
      "inputs": [],
      "name": "buyFeeDenominator",
      "outputs": [
        {
          "internalType": "uint256",
          "name": "",
          "type": "uint256"
        }
      ],
      "stateMutability": "view",
      "type": "function"
    },
    {
      "inputs": [
        {
          "internalType": "bytes32",
          "name": "role",
          "type": "bytes32"
        }
      ],
      "name": "getRoleAdmin",
      "outputs": [
        {
          "internalType": "bytes32",
          "name": "",
          "type": "bytes32"
        }
      ],
      "stateMutability": "view",
      "type": "function"
    },
    {
      "inputs": [
        {
          "internalType": "bytes32",
          "name": "role",
          "type": "bytes32"
        },
        {
          "internalType": "address",
          "name": "account",
          "type": "address"
        }
      ],
      "name": "grantRole",
      "outputs": [],
      "stateMutability": "nonpayable",
      "type": "function"
    },
    {
      "inputs": [
        {
          "internalType": "bytes32",
          "name": "role",
          "type": "bytes32"
        },
        {
          "internalType": "address",
          "name": "account",
          "type": "address"
        }
      ],
      "name": "hasRole",
      "outputs": [
        {
          "internalType": "bool",
          "name": "",
          "type": "bool"
        }
      ],
      "stateMutability": "view",
      "type": "function"
    },
    {
      "inputs": [],
      "name": "initialize",
      "outputs": [],
      "stateMutability": "nonpayable",
      "type": "function"
    },
    {
      "inputs": [],
      "name": "mark2market",
      "outputs": [
        {
          "internalType": "contract IMark2Market",
          "name": "",
          "type": "address"
        }
      ],
      "stateMutability": "view",
      "type": "function"
    },
    {
      "inputs": [],
      "name": "nextPayoutTime",
      "outputs": [
        {
          "internalType": "uint256",
          "name": "",
          "type": "uint256"
        }
      ],
      "stateMutability": "view",
      "type": "function"
    },
    {
      "inputs": [],
      "name": "notEnoughLimit",
      "outputs": [
        {
          "internalType": "uint256",
          "name": "",
          "type": "uint256"
        }
      ],
      "stateMutability": "view",
      "type": "function"
    },
    {
      "inputs": [],
      "name": "notEnoughLimitDenominator",
      "outputs": [
        {
          "internalType": "uint256",
          "name": "",
          "type": "uint256"
        }
      ],
      "stateMutability": "view",
      "type": "function"
    },
    {
      "inputs": [],
      "name": "pause",
      "outputs": [],
      "stateMutability": "nonpayable",
      "type": "function"
    },
    {
      "inputs": [],
      "name": "paused",
      "outputs": [
        {
          "internalType": "bool",
          "name": "",
          "type": "bool"
        }
      ],
      "stateMutability": "view",
      "type": "function"
    },
    {
      "inputs": [],
      "name": "payout",
      "outputs": [],
      "stateMutability": "nonpayable",
      "type": "function"
    },
    {
      "inputs": [],
      "name": "payoutPeriod",
      "outputs": [
        {
          "internalType": "uint256",
          "name": "",
          "type": "uint256"
        }
      ],
      "stateMutability": "view",
      "type": "function"
    },
    {
      "inputs": [],
      "name": "payoutTimeRange",
      "outputs": [
        {
          "internalType": "uint256",
          "name": "",
          "type": "uint256"
        }
      ],
      "stateMutability": "view",
      "type": "function"
    },
    {
      "inputs": [],
      "name": "portfolioManager",
      "outputs": [
        {
          "internalType": "contract PortfolioManager",
          "name": "",
          "type": "address"
        }
      ],
      "stateMutability": "view",
      "type": "function"
    },
    {
      "inputs": [
        {
          "internalType": "address",
          "name": "_addrTok",
          "type": "address"
        },
        {
          "internalType": "uint256",
          "name": "_amount",
          "type": "uint256"
        }
      ],
      "name": "redeem",
      "outputs": [],
      "stateMutability": "nonpayable",
      "type": "function"
    },
    {
      "inputs": [],
      "name": "redeemFee",
      "outputs": [
        {
          "internalType": "uint256",
          "name": "",
          "type": "uint256"
        }
      ],
      "stateMutability": "view",
      "type": "function"
    },
    {
      "inputs": [],
      "name": "redeemFeeDenominator",
      "outputs": [
        {
          "internalType": "uint256",
          "name": "",
          "type": "uint256"
        }
      ],
      "stateMutability": "view",
      "type": "function"
    },
    {
      "inputs": [
        {
          "internalType": "bytes32",
          "name": "role",
          "type": "bytes32"
        },
        {
          "internalType": "address",
          "name": "account",
          "type": "address"
        }
      ],
      "name": "renounceRole",
      "outputs": [],
      "stateMutability": "nonpayable",
      "type": "function"
    },
    {
      "inputs": [
        {
          "internalType": "bytes32",
          "name": "role",
          "type": "bytes32"
        },
        {
          "internalType": "address",
          "name": "account",
          "type": "address"
        }
      ],
      "name": "revokeRole",
      "outputs": [],
      "stateMutability": "nonpayable",
      "type": "function"
    },
    {
      "inputs": [
        {
          "internalType": "uint256",
          "name": "_fee",
          "type": "uint256"
        },
        {
          "internalType": "uint256",
          "name": "_feeDenominator",
          "type": "uint256"
        }
      ],
      "name": "setBuyFee",
      "outputs": [],
      "stateMutability": "nonpayable",
      "type": "function"
    },
    {
      "inputs": [
        {
          "internalType": "address",
          "name": "_mark2market",
          "type": "address"
        }
      ],
      "name": "setMark2Market",
      "outputs": [],
      "stateMutability": "nonpayable",
      "type": "function"
    },
    {
      "inputs": [
        {
          "internalType": "uint256",
          "name": "_limit",
          "type": "uint256"
        },
        {
          "internalType": "uint256",
          "name": "_limitDenominator",
          "type": "uint256"
        }
      ],
      "name": "setNotEnoughLimit",
      "outputs": [],
      "stateMutability": "nonpayable",
      "type": "function"
    },
    {
      "inputs": [
        {
          "internalType": "uint256",
          "name": "_nextPayoutTime",
          "type": "uint256"
        },
        {
          "internalType": "uint256",
          "name": "_payoutPeriod",
          "type": "uint256"
        },
        {
          "internalType": "uint256",
          "name": "_payoutTimeRange",
          "type": "uint256"
        }
      ],
      "name": "setPayoutTimes",
      "outputs": [],
      "stateMutability": "nonpayable",
      "type": "function"
    },
    {
      "inputs": [
        {
          "internalType": "address",
          "name": "_portfolioManager",
          "type": "address"
        }
      ],
      "name": "setPortfolioManager",
      "outputs": [],
      "stateMutability": "nonpayable",
      "type": "function"
    },
    {
      "inputs": [
        {
          "internalType": "uint256",
          "name": "_fee",
          "type": "uint256"
        },
        {
          "internalType": "uint256",
          "name": "_feeDenominator",
          "type": "uint256"
        }
      ],
      "name": "setRedeemFee",
      "outputs": [],
      "stateMutability": "nonpayable",
      "type": "function"
    },
    {
      "inputs": [
        {
          "internalType": "address",
          "name": "_usdPlus",
          "type": "address"
        },
        {
          "internalType": "address",
          "name": "_usdc",
          "type": "address"
        }
      ],
      "name": "setTokens",
      "outputs": [],
      "stateMutability": "nonpayable",
      "type": "function"
    },
    {
      "inputs": [
        {
          "internalType": "bytes4",
          "name": "interfaceId",
          "type": "bytes4"
        }
      ],
      "name": "supportsInterface",
      "outputs": [
        {
          "internalType": "bool",
          "name": "",
          "type": "bool"
        }
      ],
      "stateMutability": "view",
      "type": "function"
    },
    {
      "inputs": [],
      "name": "unpause",
      "outputs": [],
      "stateMutability": "nonpayable",
      "type": "function"
    },
    {
      "inputs": [
        {
          "internalType": "address",
          "name": "newImplementation",
          "type": "address"
        }
      ],
      "name": "upgradeTo",
      "outputs": [],
      "stateMutability": "nonpayable",
      "type": "function"
    },
    {
      "inputs": [
        {
          "internalType": "address",
          "name": "newImplementation",
          "type": "address"
        },
        {
          "internalType": "bytes",
          "name": "data",
          "type": "bytes"
        }
      ],
      "name": "upgradeToAndCall",
      "outputs": [],
      "stateMutability": "payable",
      "type": "function"
    },
    {
      "inputs": [],
      "name": "usdPlus",
      "outputs": [
        {
          "internalType": "contract UsdPlusToken",
          "name": "",
          "type": "address"
        }
      ],
      "stateMutability": "view",
      "type": "function"
    },
    {
      "inputs": [],
      "name": "usdc",
      "outputs": [
        {
          "internalType": "contract IERC20",
          "name": "",
          "type": "address"
        }
      ],
      "stateMutability": "view",
      "type": "function"
    }
  ],
  "solcInputHash": "3d2862dff6e08ee9c9c2c520b9be4faf",
  "bytecode": "0x60a06040523060601b6080523480156200001857600080fd5b50600054610100900460ff168062000033575060005460ff16155b6200009b5760405162461bcd60e51b815260206004820152602e60248201527f496e697469616c697a61626c653a20636f6e747261637420697320616c72656160448201526d191e481a5b9a5d1a585b1a5e995960921b606482015260840160405180910390fd5b600054610100900460ff16158015620000be576000805461ffff19166101011790555b8015620000d1576000805461ff00191690555b5060805160601c6133a66200010660003960008181610f8b01528181610fcb0152818161115e015261119e01526133a66000f3fe6080604052600436106102305760003560e01c806363bd1d4a1161012e578063c12e90e9116100ab578063d547741f1161006f578063d547741f1461061f578063f3869e8d1461063f578063f69516931461065f578063f72c0d8b14610680578063fb0ecfa4146106b457600080fd5b8063c12e90e91461059a578063cbc7854e146105b1578063cce7ec13146105d1578063ce1aa76b146105f1578063cecbbc071461060857600080fd5b8063965fa21e116100f2578063965fa21e14610519578063a217fddf14610530578063a440b21a14610545578063b69ef8a814610565578063bc56bebf1461057a57600080fd5b806363bd1d4a146104a35780636d8ebaa8146104b85780638129fc1c146104cf5780638456cb59146104e457806391d14854146104f957600080fd5b806337044771116101bc578063514e460a11610180578063514e460a146104125780635c975abb14610433578063620b75df1461044b578063627a439a1461046c57806362f098951461048c57600080fd5b8063370447711461037a5780633e413bee1461039a5780633f4ba83a146103d357806347062402146103e85780634f1ef286146103ff57600080fd5b80632035320a116102035780632035320a146102d3578063248a9ca3146102ea5780632f2ff15d1461031a57806336568abe1461033a5780633659cfe61461035a57600080fd5b806301ffc9a7146102355780630ffd778e1461026a5780631894de0a1461029a5780631e9a6950146102b1575b600080fd5b34801561024157600080fd5b50610255610250366004612e86565b6106d4565b60405190151581526020015b60405180910390f35b34801561027657600080fd5b5061028c60008051602061335183398151915281565b604051908152602001610261565b3480156102a657600080fd5b5061028c6101355481565b3480156102bd57600080fd5b506102d16102cc366004612d41565b61070b565b005b3480156102df57600080fd5b5061028c6101365481565b3480156102f657600080fd5b5061028c610305366004612e48565b60009081526065602052604090206001015490565b34801561032657600080fd5b506102d1610335366004612e61565b610edb565b34801561034657600080fd5b506102d1610355366004612e61565b610f06565b34801561036657600080fd5b506102d1610375366004612c43565b610f80565b34801561038657600080fd5b506102d1610395366004612c43565b611049565b3480156103a657600080fd5b5061012e546103bb906001600160a01b031681565b6040516001600160a01b039091168152602001610261565b3480156103df57600080fd5b506102d16110ec565b3480156103f457600080fd5b5061028c6101315481565b6102d161040d366004612c99565b611153565b34801561041e57600080fd5b5061012d546103bb906001600160a01b031681565b34801561043f57600080fd5b5060fb5460ff16610255565b34801561045757600080fd5b5061012f546103bb906001600160a01b031681565b34801561047857600080fd5b506102d1610487366004612ec9565b611209565b34801561049857600080fd5b5061028c6101325481565b3480156104af57600080fd5b506102d1611297565b3480156104c457600080fd5b5061028c6101375481565b3480156104db57600080fd5b506102d16112e9565b3480156104f057600080fd5b506102d16113fc565b34801561050557600080fd5b50610255610514366004612e61565b611461565b34801561052557600080fd5b5061028c6101335481565b34801561053c57600080fd5b5061028c600081565b34801561055157600080fd5b506102d1610560366004612c43565b61148c565b34801561057157600080fd5b5061028c611528565b34801561058657600080fd5b506102d1610595366004612ec9565b6115aa565b3480156105a657600080fd5b5061028c6101345481565b3480156105bd57600080fd5b506102d16105cc366004612c60565b611630565b3480156105dd57600080fd5b506102d16105ec366004612d41565b61170c565b3480156105fd57600080fd5b5061028c6101385481565b34801561061457600080fd5b5061028c6101395481565b34801561062b57600080fd5b506102d161063a366004612e61565b611b35565b34801561064b57600080fd5b506102d161065a366004612eeb565b611b5b565b34801561066b57600080fd5b50610130546103bb906001600160a01b031681565b34801561068c57600080fd5b5061028c7f189ab7a9244df0848122154315af71fe140f3db0fe014031783b0946b8c9d2e381565b3480156106c057600080fd5b506102d16106cf366004612ec9565b611ce0565b60006001600160e01b03198216637965db0b60e01b148061070557506301ffc9a760e01b6001600160e01b03198316145b92915050565b60fb5460ff16156107375760405162461bcd60e51b815260040161072e90613073565b60405180910390fd5b61012e546001600160a01b038381169116146107ad5760405162461bcd60e51b815260206004820152602f60248201527f4f6e6c79205553444320746f6b656e732063757272656e746c7920617661696c60448201526e61626c6520666f722072656465656d60881b606482015260840161072e565b60006101345461013354836107c29190613235565b6107cc9190613213565b905060006107da8284613254565b60408051828152602081018590529192507fa95a790e5c54b3292db47a5f1a6ff76b459c701961dfc6c7c88448e7a2b7024d910160405180910390a16040805160808082526006908201526572656465656d60d01b60a0820152602081018390529081018390523360608201527f50823024c91e825c5bec1552c988716271357a1b55f2759e0c1659c9e3f6340f9060c00160405180910390a161012d54604080516318160ddd60e01b815290516000926001600160a01b0316916318160ddd916004808301926020929190829003018186803b1580156108ba57600080fd5b505afa1580156108ce573d6000803e3d6000fd5b505050506040513d601f19601f820116820180604052508101906108f29190612eb0565b9050600061013060009054906101000a90046001600160a01b03166001600160a01b0316638258c1326040518163ffffffff1660e01b815260040160206040518083038186803b15801561094557600080fd5b505afa158015610959573d6000803e3d6000fd5b505050506040513d601f19601f8201168201806040525081019061097d9190612eb0565b905061098e64e8d4a5100082613213565b905060006101365461013554846109a59190613235565b6109af9190613213565b905080821015610c6a57670de0b6b3a76400006000846109cf8784613235565b6109d99190613213565b61012d54604051632770a7eb60e21b8152336004820152602481018b90529192506001600160a01b031690639dc29fac90604401600060405180830381600087803b158015610a2757600080fd5b505af1158015610a3b573d6000803e3d6000fd5b505061012f54604051634357d96360e01b81526004810185905260248101869052600093506001600160a01b039091169150634357d96390604401600060405180830381600087803b158015610a9057600080fd5b505af1158015610aa4573d6000803e3d6000fd5b505050506040513d6000823e601f3d908101601f19168201604052610acc9190810190612d6d565b905060005b81518160ff161015610c5d576000828260ff1681518110610af457610af46132e8565b60209081029190910101516040516370a0823160e01b81523060048201529091506000906001600160a01b038316906370a082319060240160206040518083038186803b158015610b4457600080fd5b505afa158015610b58573d6000803e3d6000fd5b505050506040513d601f19601f82011682018060405250810190610b7c9190612eb0565b90508015610c485760405163a9059cbb60e01b8152336004820152602481018290526001600160a01b0383169063a9059cbb90604401602060405180830381600087803b158015610bcc57600080fd5b505af1158015610be0573d6000803e3d6000fd5b505050506040513d601f19601f82011682018060405250810190610c049190612e26565b50604080516001600160a01b0384168152602081018390527f30322a55c7b6683edf027854413bfb9e4cf2ca88257b35d4d86d3cc5e20983fa910160405180910390a15b50508080610c55906132b2565b915050610ad1565b5050505050505050505050565b61012f5460405163f3fef3a360e01b81526001600160a01b03898116600483015260248201879052600092169063f3fef3a390604401602060405180830381600087803b158015610cba57600080fd5b505af1158015610cce573d6000803e3d6000fd5b505050506040513d601f19601f82011682018060405250810190610cf29190612eb0565b61012d54604051632770a7eb60e21b8152336004820152602481018a90529192506001600160a01b031690639dc29fac90604401600060405180830381600087803b158015610d4057600080fd5b505af1158015610d54573d6000803e3d6000fd5b50506040516370a0823160e01b81523060048201528392506001600160a01b038b1691506370a082319060240160206040518083038186803b158015610d9957600080fd5b505afa158015610dad573d6000803e3d6000fd5b505050506040513d601f19601f82011682018060405250810190610dd19190612eb0565b1015610e2e5760405162461bcd60e51b815260206004820152602660248201527f4e6f7420656e6f75676820666f72207472616e7366657220756e7374616b6564604482015265105b5bdd5b9d60d21b606482015260840161072e565b60405163a9059cbb60e01b8152336004820152602481018290526001600160a01b0389169063a9059cbb90604401602060405180830381600087803b158015610e7657600080fd5b505af1158015610e8a573d6000803e3d6000fd5b505050506040513d601f19601f82011682018060405250810190610eae9190612e26565b506101395461013754610ec191906131fb565b421115610ed057610ed0611d66565b5050505050505b5050565b600082815260656020526040902060010154610ef78133612104565b610f018383612168565b505050565b6001600160a01b0381163314610f765760405162461bcd60e51b815260206004820152602f60248201527f416363657373436f6e74726f6c3a2063616e206f6e6c792072656e6f756e636560448201526e103937b632b9903337b91039b2b63360891b606482015260840161072e565b610ed782826121ee565b306001600160a01b037f0000000000000000000000000000000000000000000000000000000000000000161415610fc95760405162461bcd60e51b815260040161072e90612fdb565b7f00000000000000000000000000000000000000000000000000000000000000006001600160a01b0316610ffb612255565b6001600160a01b0316146110215760405162461bcd60e51b815260040161072e90613027565b61102a81612283565b60408051600080825260208201909252611046918391906122ae565b50565b611054600033611461565b6110705760405162461bcd60e51b815260040161072e9061312e565b6001600160a01b0381166110965760405162461bcd60e51b815260040161072e9061315c565b61013080546001600160a01b0319166001600160a01b0383169081179091556040519081527f2387291c358bb5414b9fdcdfeb40efddb696908065a6533e47bf60b395f7dcfd906020015b60405180910390a150565b61110460008051602061335183398151915233611461565b6111495760405162461bcd60e51b81526020600482015260166024820152755265737472696374656420746f205061757361626c6560501b604482015260640161072e565b6111516123f2565b565b306001600160a01b037f000000000000000000000000000000000000000000000000000000000000000016141561119c5760405162461bcd60e51b815260040161072e90612fdb565b7f00000000000000000000000000000000000000000000000000000000000000006001600160a01b03166111ce612255565b6001600160a01b0316146111f45760405162461bcd60e51b815260040161072e90613027565b6111fd82612283565b610ed7828260016122ae565b611214600033611461565b6112305760405162461bcd60e51b815260040161072e9061312e565b8061124d5760405162461bcd60e51b815260040161072e90613193565b61013582905561013681905560408051838152602081018390527f881f092820262a22fba50e9166960cf6c44bab16379b5286545e51242b627fe491015b60405180910390a15050565b6112a2600033611461565b6112be5760405162461bcd60e51b815260040161072e9061312e565b60fb5460ff16156112e15760405162461bcd60e51b815260040161072e90613073565b611151611d66565b600054610100900460ff1680611302575060005460ff16155b61131e5760405162461bcd60e51b815260040161072e9061309d565b600054610100900460ff16158015611340576000805461ffff19166101011790555b611348612485565b611350612508565b61135861256f565b611363600033612168565b61138d7f189ab7a9244df0848122154315af71fe140f3db0fe014031783b0946b8c9d2e333612168565b6113a560008051602061335183398151915233612168565b6028610131819055620186a06101328190556101339190915561013481905562017ed061013555610136556361959780610137556201518061013855610384610139558015611046576000805461ff001916905550565b61141460008051602061335183398151915233611461565b6114595760405162461bcd60e51b81526020600482015260166024820152755265737472696374656420746f205061757361626c6560501b604482015260640161072e565b6111516125cd565b60009182526065602090815260408084206001600160a01b0393909316845291905290205460ff1690565b611497600033611461565b6114b35760405162461bcd60e51b815260040161072e9061312e565b6001600160a01b0381166114d95760405162461bcd60e51b815260040161072e9061315c565b61012f80546001600160a01b0319166001600160a01b0383169081179091556040519081527ff7b449fcd5cfb7379dcd34cb69428dd9f882033b15be33d83b42d91daa28eeb7906020016110e1565b61012d546040516370a0823160e01b81523360048201526000916001600160a01b0316906370a082319060240160206040518083038186803b15801561156d57600080fd5b505afa158015611581573d6000803e3d6000fd5b505050506040513d601f19601f820116820180604052508101906115a59190612eb0565b905090565b6115b5600033611461565b6115d15760405162461bcd60e51b815260040161072e9061312e565b806115ee5760405162461bcd60e51b815260040161072e90613193565b61013382905561013481905560408051838152602081018390527f9fb7dbd1f2c1bd33dd68f78a38f699ff1ca487d7a7211ecc7df31d919f52043d910161128b565b61163b600033611461565b6116575760405162461bcd60e51b815260040161072e9061312e565b6001600160a01b03821661167d5760405162461bcd60e51b815260040161072e9061315c565b6001600160a01b0381166116a35760405162461bcd60e51b815260040161072e9061315c565b61012d80546001600160a01b038481166001600160a01b0319928316811790935561012e80549185169190921681179091556040805192835260208301919091527fdcc6331013de89f8c595d5328f0a724194f113cb6f8f2a707b3dff6de13f0d17910161128b565b60fb5460ff161561172f5760405162461bcd60e51b815260040161072e90613073565b61012e546001600160a01b038381169116146117a25760405162461bcd60e51b815260206004820152602c60248201527f4f6e6c79205553444320746f6b656e732063757272656e746c7920617661696c60448201526b61626c6520666f722062757960a01b606482015260840161072e565b6040516370a0823160e01b81523360048201526000906001600160a01b038416906370a082319060240160206040518083038186803b1580156117e457600080fd5b505afa1580156117f8573d6000803e3d6000fd5b505050506040513d601f19601f8201168201806040525081019061181c9190612eb0565b90508181101561186e5760405162461bcd60e51b815260206004820152601860248201527f4e6f7420656e6f75676820746f6b656e7320746f206275790000000000000000604482015260640161072e565b6040516323b872dd60e01b8152336004820152306024820152604481018390526001600160a01b038416906323b872dd90606401602060405180830381600087803b1580156118bc57600080fd5b505af11580156118d0573d6000803e3d6000fd5b505050506040513d601f19601f820116820180604052508101906118f49190612e26565b50600061013254610131548461190a9190613235565b6119149190613213565b905060006119228285613254565b60408051828152602081018590529192507fadcdce2403b31a56ae72c878c17b5cd8aaa8f5b92b7fe536355619df57a52387910160405180910390a16040805160808082526003908201526262757960e81b60a0820152602081018390529081018390523360608201527f50823024c91e825c5bec1552c988716271357a1b55f2759e0c1659c9e3f6340f9060c00160405180910390a161012d546040516340c10f1960e01b8152336004820152602481018390526001600160a01b03909116906340c10f1990604401600060405180830381600087803b158015611a0657600080fd5b505af1158015611a1a573d6000803e3d6000fd5b505061012f5460405163a9059cbb60e01b81526001600160a01b03918216600482015260248101889052908816925063a9059cbb9150604401602060405180830381600087803b158015611a6d57600080fd5b505af1158015611a81573d6000803e3d6000fd5b505050506040513d601f19601f82011682018060405250810190611aa59190612e26565b5061012f546040516311f9fbc960e21b81526001600160a01b03878116600483015260248201879052909116906347e7ef2490604401600060405180830381600087803b158015611af557600080fd5b505af1158015611b09573d6000803e3d6000fd5b505050506101395461013754611b1f91906131fb565b421115611b2e57611b2e611d66565b5050505050565b600082815260656020526040902060010154611b518133612104565b610f0183836121ee565b611b66600033611461565b611b825760405162461bcd60e51b815260040161072e9061312e565b82611bcf5760405162461bcd60e51b815260206004820181905260248201527f5a65726f205f6e6578745061796f757454696d65206e6f7420616c6c6f776564604482015260640161072e565b81611c1c5760405162461bcd60e51b815260206004820152601e60248201527f5a65726f205f7061796f7574506572696f64206e6f7420616c6c6f7765640000604482015260640161072e565b808311611c875760405162461bcd60e51b815260206004820152603360248201527f5f6e6578745061796f757454696d652073686f7564206265206d6f7265207468604482015272616e205f7061796f757454696d6552616e676560681b606482015260840161072e565b61013783905561013882905561013981905560408051848152602081018490529081018290527f182705f356ea3bbbd12c7b4761586a554d391a7703345f81166bbe3f94644499906060015b60405180910390a1505050565b611ceb600033611461565b611d075760405162461bcd60e51b815260040161072e9061312e565b80611d245760405162461bcd60e51b815260040161072e90613193565b61013182905561013281905560408051838152602081018390527f28e297c7c282931a994191b735b01eaf17558295f761512a7047f4e1b8dc3b0b910161128b565b6101375461013954611d7890426131fb565b1015611d8057565b61012f60009054906101000a90046001600160a01b03166001600160a01b031663372500ab6040518163ffffffff1660e01b8152600401600060405180830381600087803b158015611dd157600080fd5b505af1158015611de5573d6000803e3d6000fd5b5050505061012f60009054906101000a90046001600160a01b03166001600160a01b031663b69f88c86040518163ffffffff1660e01b8152600401600060405180830381600087803b158015611e3a57600080fd5b505af1158015611e4e573d6000803e3d6000fd5b50505050600061012d60009054906101000a90046001600160a01b03166001600160a01b031663b1bf962d6040518163ffffffff1660e01b815260040160206040518083038186803b158015611ea357600080fd5b505afa158015611eb7573d6000803e3d6000fd5b505050506040513d601f19601f82011682018060405250810190611edb9190612eb0565b90506000611ee882612625565b9050600061013060009054906101000a90046001600160a01b03166001600160a01b0316638258c1326040518163ffffffff1660e01b815260040160206040518083038186803b158015611f3b57600080fd5b505afa158015611f4f573d6000803e3d6000fd5b505050506040513d601f19601f82011682018060405250810190611f739190612eb0565b9050611f8464e8d4a5100082613213565b9050818111611fc35760408051838152602081018390527f6f03fdabf199265f9c1bb8df8073cedfaa615c6b0d7a58b90c21ba785de11ed49101611cd3565b6000611fcf8383613254565b90506000611fdc836126ad565b90506000611fea82876126ec565b61012d5460405163b2be259160e01b8152600481018390529192506001600160a01b03169063b2be259190602401600060405180830381600087803b15801561203257600080fd5b505af1158015612046573d6000803e3d6000fd5b505060408051888152602081018890529081018690527ff7ff37e6b4c48cabf32cb4544f2a160417b909cd2e4701697da78722d0e9d0ee9250606001905060405180910390a15b610139546101375461209f9190613254565b42106120c05761013854610137546120b791906131fb565b6101375561208d565b7f6654b7187a0560c4c326844142156c2adf52738d0a615487e0e2a5cd9823c2c4610137546040516120f491815260200190565b60405180910390a1505050505050565b61210e8282611461565b610ed757612126816001600160a01b031660146127b8565b6121318360206127b8565b604051602001612142929190612f33565b60408051601f198184030181529082905262461bcd60e51b825261072e91600401612fa8565b6121728282611461565b610ed75760008281526065602090815260408083206001600160a01b03851684529091529020805460ff191660011790556121aa3390565b6001600160a01b0316816001600160a01b0316837f2f8788117e7eff1d82e926ec794901d17c78024a50270940304540a733656f0d60405160405180910390a45050565b6121f88282611461565b15610ed75760008281526065602090815260408083206001600160a01b0385168085529252808320805460ff1916905551339285917ff6391f5c32d9c69d2a47ea670b442974b53935d1edc7fd64eb21e047a839171b9190a45050565b7f360894a13ba1a3210667c828492db98dca3e2076cc3735a920a3ca505d382bbc546001600160a01b031690565b7f189ab7a9244df0848122154315af71fe140f3db0fe014031783b0946b8c9d2e3610ed78133612104565b60006122b8612255565b90506122c38461295b565b6000835111806122d05750815b156122e1576122df8484612a00565b505b7f4910fdfa16fed3260ed0e7147f7cc6da11a60208b5b9406d12a635614ffd9143805460ff16611b2e57805460ff191660011781556040516001600160a01b038316602482015261236090869060440160408051601f198184030181529190526020810180516001600160e01b0316631b2ce7f360e11b179052612a00565b50805460ff19168155612371612255565b6001600160a01b0316826001600160a01b0316146123e95760405162461bcd60e51b815260206004820152602f60248201527f45524331393637557067726164653a207570677261646520627265616b73206660448201526e75727468657220757067726164657360881b606482015260840161072e565b611b2e85612aeb565b60fb5460ff1661243b5760405162461bcd60e51b815260206004820152601460248201527314185d5cd8589b194e881b9bdd081c185d5cd95960621b604482015260640161072e565b60fb805460ff191690557f5db9ee0a495bf2e6ff9c91a7834c1ba4fdd244a5e8aa4e537bd38aeae4b073aa335b6040516001600160a01b03909116815260200160405180910390a1565b600054610100900460ff168061249e575060005460ff16155b6124ba5760405162461bcd60e51b815260040161072e9061309d565b600054610100900460ff161580156124dc576000805461ffff19166101011790555b6124e4612b2b565b6124ec612b2b565b6124f4612b2b565b8015611046576000805461ff001916905550565b600054610100900460ff1680612521575060005460ff16155b61253d5760405162461bcd60e51b815260040161072e9061309d565b600054610100900460ff1615801561255f576000805461ffff19166101011790555b612567612b2b565b6124f4612b95565b600054610100900460ff1680612588575060005460ff16155b6125a45760405162461bcd60e51b815260040161072e9061309d565b600054610100900460ff161580156124e4576000805461ffff19166101011790556124ec612b2b565b60fb5460ff16156125f05760405162461bcd60e51b815260040161072e90613073565b60fb805460ff191660011790557f62e78cea01bee320cd4e420270b5ea74000d11b0c9f74754ebdbfc544b05a2586124683390565b6000806126376002633b9aca00613213565b9050600061264584836131fb565b9050818110156126975760405162461bcd60e51b815260206004820152601d60248201527f4572726f72732e4d4154485f4144444954494f4e5f4f564552464c4f57000000604482015260640161072e565b6126a5633b9aca0082613213565b949350505050565b6000806126be633b9aca0084613235565b9050826126cf633b9aca0083613213565b146107055760405162461bcd60e51b815260040161072e906130eb565b60008161273b5760405162461bcd60e51b815260206004820152601c60248201527f4572726f72732e4d4154485f4449564953494f4e5f42595f5a45524f00000000604482015260640161072e565b6000612748600284613213565b90506b033b2e3c9fd0803ce800000061276382600019613254565b61276d9190613213565b84111561278c5760405162461bcd60e51b815260040161072e906130eb565b82816127a46b033b2e3c9fd0803ce800000087613235565b6127ae91906131fb565b6126a59190613213565b606060006127c7836002613235565b6127d29060026131fb565b67ffffffffffffffff8111156127ea576127ea6132fe565b6040519080825280601f01601f191660200182016040528015612814576020820181803683370190505b509050600360fc1b8160008151811061282f5761282f6132e8565b60200101906001600160f81b031916908160001a905350600f60fb1b8160018151811061285e5761285e6132e8565b60200101906001600160f81b031916908160001a9053506000612882846002613235565b61288d9060016131fb565b90505b6001811115612905576f181899199a1a9b1b9c1cb0b131b232b360811b85600f16601081106128c1576128c16132e8565b1a60f81b8282815181106128d7576128d76132e8565b60200101906001600160f81b031916908160001a90535060049490941c936128fe8161329b565b9050612890565b5083156129545760405162461bcd60e51b815260206004820181905260248201527f537472696e67733a20686578206c656e67746820696e73756666696369656e74604482015260640161072e565b9392505050565b803b6129bf5760405162461bcd60e51b815260206004820152602d60248201527f455243313936373a206e657720696d706c656d656e746174696f6e206973206e60448201526c1bdd08184818dbdb9d1c9858dd609a1b606482015260840161072e565b7f360894a13ba1a3210667c828492db98dca3e2076cc3735a920a3ca505d382bbc80546001600160a01b0319166001600160a01b0392909216919091179055565b6060823b612a5f5760405162461bcd60e51b815260206004820152602660248201527f416464726573733a2064656c65676174652063616c6c20746f206e6f6e2d636f6044820152651b9d1c9858dd60d21b606482015260840161072e565b600080846001600160a01b031684604051612a7a9190612f17565b600060405180830381855af49150503d8060008114612ab5576040519150601f19603f3d011682016040523d82523d6000602084013e612aba565b606091505b5091509150612ae2828260405180606001604052806027815260200161332a60279139612c0a565b95945050505050565b612af48161295b565b6040516001600160a01b038216907fbc7cd75a20ee27fd9adebab32041f755214dbc6bffa90cc0225b39da2e5c2d3b90600090a250565b600054610100900460ff1680612b44575060005460ff16155b612b605760405162461bcd60e51b815260040161072e9061309d565b600054610100900460ff161580156124f4576000805461ffff19166101011790558015611046576000805461ff001916905550565b600054610100900460ff1680612bae575060005460ff16155b612bca5760405162461bcd60e51b815260040161072e9061309d565b600054610100900460ff16158015612bec576000805461ffff19166101011790555b60fb805460ff191690558015611046576000805461ff001916905550565b60608315612c19575081612954565b825115612c295782518084602001fd5b8160405162461bcd60e51b815260040161072e9190612fa8565b600060208284031215612c5557600080fd5b813561295481613314565b60008060408385031215612c7357600080fd5b8235612c7e81613314565b91506020830135612c8e81613314565b809150509250929050565b60008060408385031215612cac57600080fd5b8235612cb781613314565b915060208381013567ffffffffffffffff80821115612cd557600080fd5b818601915086601f830112612ce957600080fd5b813581811115612cfb57612cfb6132fe565b612d0d601f8201601f191685016131ca565b91508082528784828501011115612d2357600080fd5b80848401858401376000848284010152508093505050509250929050565b60008060408385031215612d5457600080fd5b8235612d5f81613314565b946020939093013593505050565b60006020808385031215612d8057600080fd5b825167ffffffffffffffff80821115612d9857600080fd5b818501915085601f830112612dac57600080fd5b815181811115612dbe57612dbe6132fe565b8060051b9150612dcf8483016131ca565b8181528481019084860184860187018a1015612dea57600080fd5b600095505b83861015612e195780519450612e0485613314565b84835260019590950194918601918601612def565b5098975050505050505050565b600060208284031215612e3857600080fd5b8151801515811461295457600080fd5b600060208284031215612e5a57600080fd5b5035919050565b60008060408385031215612e7457600080fd5b823591506020830135612c8e81613314565b600060208284031215612e9857600080fd5b81356001600160e01b03198116811461295457600080fd5b600060208284031215612ec257600080fd5b5051919050565b60008060408385031215612edc57600080fd5b50508035926020909101359150565b600080600060608486031215612f0057600080fd5b505081359360208301359350604090920135919050565b60008251612f2981846020870161326b565b9190910192915050565b7f416363657373436f6e74726f6c3a206163636f756e7420000000000000000000815260008351612f6b81601785016020880161326b565b7001034b99036b4b9b9b4b733903937b6329607d1b6017918401918201528351612f9c81602884016020880161326b565b01602801949350505050565b6020815260008251806020840152612fc781604085016020870161326b565b601f01601f19169190910160400192915050565b6020808252602c908201527f46756e6374696f6e206d7573742062652063616c6c6564207468726f7567682060408201526b19195b1959d85d1958d85b1b60a21b606082015260800190565b6020808252602c908201527f46756e6374696f6e206d7573742062652063616c6c6564207468726f7567682060408201526b6163746976652070726f787960a01b606082015260800190565b60208082526010908201526f14185d5cd8589b194e881c185d5cd95960821b604082015260600190565b6020808252602e908201527f496e697469616c697a61626c653a20636f6e747261637420697320616c72656160408201526d191e481a5b9a5d1a585b1a5e995960921b606082015260800190565b60208082526023908201527f4572726f72732e4d4154485f4d554c5449504c49434154494f4e5f4f564552466040820152624c4f5760e81b606082015260800190565b6020808252601490820152735265737472696374656420746f2061646d696e7360601b604082015260600190565b60208082526018908201527f5a65726f2061646472657373206e6f7420616c6c6f7765640000000000000000604082015260600190565b6020808252601c908201527f5a65726f2064656e6f6d696e61746f72206e6f7420616c6c6f77656400000000604082015260600190565b604051601f8201601f1916810167ffffffffffffffff811182821017156131f3576131f36132fe565b604052919050565b6000821982111561320e5761320e6132d2565b500190565b60008261323057634e487b7160e01b600052601260045260246000fd5b500490565b600081600019048311821515161561324f5761324f6132d2565b500290565b600082821015613266576132666132d2565b500390565b60005b8381101561328657818101518382015260200161326e565b83811115613295576000848401525b50505050565b6000816132aa576132aa6132d2565b506000190190565b600060ff821660ff8114156132c9576132c96132d2565b60010192915050565b634e487b7160e01b600052601160045260246000fd5b634e487b7160e01b600052603260045260246000fd5b634e487b7160e01b600052604160045260246000fd5b6001600160a01b038116811461104657600080fdfe416464726573733a206c6f772d6c6576656c2064656c65676174652063616c6c206661696c656409b6fca8f5f3ab2900d9586d1d15872611c1bd42b268b973ad886d4f2646b560a264697066735822122002eac50c4a45144916d182a2dde7ac03f78b61e3b6d3d901e82b83945c116f1764736f6c63430008060033",
  "devdoc": {
    "kind": "dev",
    "methods": {
      "constructor": {
        "custom:oz-upgrades-unsafe-allow": "constructor"
      },
      "getRoleAdmin(bytes32)": {
        "details": "Returns the admin role that controls `role`. See {grantRole} and {revokeRole}. To change a role's admin, use {_setRoleAdmin}."
      },
      "grantRole(bytes32,address)": {
        "details": "Grants `role` to `account`. If `account` had not been already granted `role`, emits a {RoleGranted} event. Requirements: - the caller must have ``role``'s admin role."
      },
      "hasRole(bytes32,address)": {
        "details": "Returns `true` if `account` has been granted `role`."
      },
      "paused()": {
        "details": "Returns true if the contract is paused, and false otherwise."
      },
      "redeem(address,uint256)": {
        "params": {
          "_addrTok": "Token to withdraw",
          "_amount": "Amount of OVN tokens to burn"
        }
      },
      "renounceRole(bytes32,address)": {
        "details": "Revokes `role` from the calling account. Roles are often managed via {grantRole} and {revokeRole}: this function's purpose is to provide a mechanism for accounts to lose their privileges if they are compromised (such as when a trusted device is misplaced). If the calling account had been revoked `role`, emits a {RoleRevoked} event. Requirements: - the caller must be `account`."
      },
      "revokeRole(bytes32,address)": {
        "details": "Revokes `role` from `account`. If `account` had been granted `role`, emits a {RoleRevoked} event. Requirements: - the caller must have ``role``'s admin role."
      },
      "supportsInterface(bytes4)": {
        "details": "See {IERC165-supportsInterface}."
      },
      "upgradeTo(address)": {
        "details": "Upgrade the implementation of the proxy to `newImplementation`. Calls {_authorizeUpgrade}. Emits an {Upgraded} event."
      },
      "upgradeToAndCall(address,bytes)": {
        "details": "Upgrade the mplementation of the proxy to `newImplementation`, and subsequently execute the function call encoded in `data`. Calls {_authorizeUpgrade}. Emits an {Upgraded} event."
      }
    },
    "version": 1
  },
  "userdoc": {
    "kind": "user",
    "methods": {},
    "version": 1
  },
  "storageLayout": {
    "storage": [
      {
        "astId": 823,
        "contract": "contracts/Exchange.sol:Exchange",
        "label": "_initialized",
        "offset": 0,
        "slot": "0",
        "type": "t_bool"
      },
      {
        "astId": 826,
        "contract": "contracts/Exchange.sol:Exchange",
        "label": "_initializing",
        "offset": 1,
        "slot": "0",
        "type": "t_bool"
      },
      {
        "astId": 2943,
        "contract": "contracts/Exchange.sol:Exchange",
        "label": "__gap",
        "offset": 0,
        "slot": "1",
        "type": "t_array(t_uint256)50_storage"
      },
      {
        "astId": 3865,
        "contract": "contracts/Exchange.sol:Exchange",
        "label": "__gap",
        "offset": 0,
        "slot": "51",
        "type": "t_array(t_uint256)50_storage"
      },
      {
        "astId": 48,
        "contract": "contracts/Exchange.sol:Exchange",
        "label": "_roles",
        "offset": 0,
        "slot": "101",
        "type": "t_mapping(t_bytes32,t_struct(RoleData)43_storage)"
      },
      {
        "astId": 335,
        "contract": "contracts/Exchange.sol:Exchange",
        "label": "__gap",
        "offset": 0,
        "slot": "102",
        "type": "t_array(t_uint256)49_storage"
      },
      {
        "astId": 806,
        "contract": "contracts/Exchange.sol:Exchange",
        "label": "__gap",
        "offset": 0,
        "slot": "151",
        "type": "t_array(t_uint256)50_storage"
      },
      {
        "astId": 973,
        "contract": "contracts/Exchange.sol:Exchange",
        "label": "__gap",
        "offset": 0,
        "slot": "201",
        "type": "t_array(t_uint256)50_storage"
      },
      {
        "astId": 995,
        "contract": "contracts/Exchange.sol:Exchange",
        "label": "_paused",
        "offset": 0,
        "slot": "251",
        "type": "t_bool"
      },
      {
        "astId": 1086,
        "contract": "contracts/Exchange.sol:Exchange",
        "label": "__gap",
        "offset": 0,
        "slot": "252",
        "type": "t_array(t_uint256)49_storage"
      },
      {
        "astId": 12776,
        "contract": "contracts/Exchange.sol:Exchange",
        "label": "usdPlus",
        "offset": 0,
        "slot": "301",
        "type": "t_contract(UsdPlusToken)16486"
      },
      {
        "astId": 12779,
        "contract": "contracts/Exchange.sol:Exchange",
        "label": "usdc",
        "offset": 0,
        "slot": "302",
        "type": "t_contract(IERC20)9027"
      },
      {
        "astId": 12782,
        "contract": "contracts/Exchange.sol:Exchange",
        "label": "portfolioManager",
        "offset": 0,
        "slot": "303",
        "type": "t_contract(PortfolioManager)15205"
      },
      {
        "astId": 12785,
        "contract": "contracts/Exchange.sol:Exchange",
        "label": "mark2market",
        "offset": 0,
        "slot": "304",
        "type": "t_contract(IMark2Market)21280"
      },
      {
        "astId": 12787,
        "contract": "contracts/Exchange.sol:Exchange",
        "label": "buyFee",
        "offset": 0,
        "slot": "305",
        "type": "t_uint256"
      },
      {
        "astId": 12789,
        "contract": "contracts/Exchange.sol:Exchange",
        "label": "buyFeeDenominator",
        "offset": 0,
        "slot": "306",
        "type": "t_uint256"
      },
      {
        "astId": 12791,
        "contract": "contracts/Exchange.sol:Exchange",
        "label": "redeemFee",
        "offset": 0,
        "slot": "307",
        "type": "t_uint256"
      },
      {
        "astId": 12793,
        "contract": "contracts/Exchange.sol:Exchange",
        "label": "redeemFeeDenominator",
        "offset": 0,
        "slot": "308",
        "type": "t_uint256"
      },
      {
        "astId": 12795,
        "contract": "contracts/Exchange.sol:Exchange",
        "label": "notEnoughLimit",
        "offset": 0,
        "slot": "309",
        "type": "t_uint256"
      },
      {
        "astId": 12797,
        "contract": "contracts/Exchange.sol:Exchange",
        "label": "notEnoughLimitDenominator",
        "offset": 0,
        "slot": "310",
        "type": "t_uint256"
      },
      {
        "astId": 12799,
        "contract": "contracts/Exchange.sol:Exchange",
        "label": "nextPayoutTime",
        "offset": 0,
        "slot": "311",
        "type": "t_uint256"
      },
      {
        "astId": 12801,
        "contract": "contracts/Exchange.sol:Exchange",
        "label": "payoutPeriod",
        "offset": 0,
        "slot": "312",
        "type": "t_uint256"
      },
      {
        "astId": 12803,
        "contract": "contracts/Exchange.sol:Exchange",
        "label": "payoutTimeRange",
        "offset": 0,
        "slot": "313",
        "type": "t_uint256"
      }
    ],
    "types": {
      "t_address": {
        "encoding": "inplace",
        "label": "address",
        "numberOfBytes": "20"
      },
      "t_array(t_uint256)49_storage": {
        "base": "t_uint256",
        "encoding": "inplace",
        "label": "uint256[49]",
        "numberOfBytes": "1568"
      },
      "t_array(t_uint256)50_storage": {
        "base": "t_uint256",
        "encoding": "inplace",
        "label": "uint256[50]",
        "numberOfBytes": "1600"
      },
      "t_bool": {
        "encoding": "inplace",
        "label": "bool",
        "numberOfBytes": "1"
      },
      "t_bytes32": {
        "encoding": "inplace",
        "label": "bytes32",
        "numberOfBytes": "32"
      },
      "t_contract(IERC20)9027": {
        "encoding": "inplace",
        "label": "contract IERC20",
        "numberOfBytes": "20"
      },
      "t_contract(IMark2Market)21280": {
        "encoding": "inplace",
        "label": "contract IMark2Market",
        "numberOfBytes": "20"
      },
      "t_contract(PortfolioManager)15205": {
        "encoding": "inplace",
        "label": "contract PortfolioManager",
        "numberOfBytes": "20"
      },
      "t_contract(UsdPlusToken)16486": {
        "encoding": "inplace",
        "label": "contract UsdPlusToken",
        "numberOfBytes": "20"
      },
      "t_mapping(t_address,t_bool)": {
        "encoding": "mapping",
        "key": "t_address",
        "label": "mapping(address => bool)",
        "numberOfBytes": "32",
        "value": "t_bool"
      },
      "t_mapping(t_bytes32,t_struct(RoleData)43_storage)": {
        "encoding": "mapping",
        "key": "t_bytes32",
        "label": "mapping(bytes32 => struct AccessControlUpgradeable.RoleData)",
        "numberOfBytes": "32",
        "value": "t_struct(RoleData)43_storage"
      },
      "t_struct(RoleData)43_storage": {
        "encoding": "inplace",
        "label": "struct AccessControlUpgradeable.RoleData",
        "members": [
          {
            "astId": 40,
            "contract": "contracts/Exchange.sol:Exchange",
            "label": "members",
            "offset": 0,
            "slot": "0",
            "type": "t_mapping(t_address,t_bool)"
          },
          {
            "astId": 42,
            "contract": "contracts/Exchange.sol:Exchange",
            "label": "adminRole",
            "offset": 0,
            "slot": "1",
            "type": "t_bytes32"
          }
        ],
        "numberOfBytes": "64"
      },
      "t_uint256": {
        "encoding": "inplace",
        "label": "uint256",
        "numberOfBytes": "32"
      }
    }
  }
}