{
  "address": "0x145F2a1aa70098031629606d856591dA0C717554",
  "abi": [
    {
      "inputs": [],
      "stateMutability": "nonpayable",
      "type": "constructor"
    },
    {
      "anonymous": false,
      "inputs": [
        {
          "indexed": false,
          "internalType": "address",
          "name": "aUsdc",
          "type": "address"
        }
      ],
      "name": "AUsdcTokenUpdated",
      "type": "event"
    },
    {
      "anonymous": false,
      "inputs": [
        {
          "indexed": false,
          "internalType": "address",
          "name": "rewardGauge",
          "type": "address"
        }
      ],
      "name": "RewardGaugeUpdated",
      "type": "event"
    },
    {
      "anonymous": false,
      "inputs": [
        {
          "indexed": true,
          "internalType": "bytes32",
          "name": "role",
          "type": "bytes32"
        },
        {
          "indexed": true,
          "internalType": "bytes32",
          "name": "previousAdminRole",
          "type": "bytes32"
        },
        {
          "indexed": true,
          "internalType": "bytes32",
          "name": "newAdminRole",
          "type": "bytes32"
        }
      ],
      "name": "RoleAdminChanged",
      "type": "event"
    },
    {
      "anonymous": false,
      "inputs": [
        {
          "indexed": true,
          "internalType": "bytes32",
          "name": "role",
          "type": "bytes32"
        },
        {
          "indexed": true,
          "internalType": "address",
          "name": "account",
          "type": "address"
        },
        {
          "indexed": true,
          "internalType": "address",
          "name": "sender",
          "type": "address"
        }
      ],
      "name": "RoleGranted",
      "type": "event"
    },
    {
      "anonymous": false,
      "inputs": [
        {
          "indexed": true,
          "internalType": "bytes32",
          "name": "role",
          "type": "bytes32"
        },
        {
          "indexed": true,
          "internalType": "address",
          "name": "account",
          "type": "address"
        },
        {
          "indexed": true,
          "internalType": "address",
          "name": "sender",
          "type": "address"
        }
      ],
      "name": "RoleRevoked",
      "type": "event"
    },
    {
      "anonymous": false,
      "inputs": [
        {
          "indexed": false,
          "internalType": "address",
          "name": "vault",
          "type": "address"
        }
      ],
      "name": "VaultUpdated",
      "type": "event"
    },
    {
      "inputs": [],
      "name": "DEFAULT_ADMIN_ROLE",
      "outputs": [
        {
          "internalType": "bytes32",
          "name": "",
          "type": "bytes32"
        }
      ],
      "stateMutability": "view",
      "type": "function"
    },
    {
      "inputs": [],
      "name": "aUsdc",
      "outputs": [
        {
          "internalType": "contract IERC20",
          "name": "",
          "type": "address"
        }
      ],
      "stateMutability": "view",
      "type": "function"
    },
    {
      "inputs": [],
      "name": "claimRewardAave",
      "outputs": [],
      "stateMutability": "nonpayable",
      "type": "function"
    },
    {
      "inputs": [],
      "name": "claimRewardCurve",
      "outputs": [],
      "stateMutability": "nonpayable",
      "type": "function"
    },
    {
      "inputs": [],
      "name": "claimRewards",
      "outputs": [],
      "stateMutability": "nonpayable",
      "type": "function"
    },
    {
      "inputs": [
        {
          "internalType": "bytes32",
          "name": "role",
          "type": "bytes32"
        }
      ],
      "name": "getRoleAdmin",
      "outputs": [
        {
          "internalType": "bytes32",
          "name": "",
          "type": "bytes32"
        }
      ],
      "stateMutability": "view",
      "type": "function"
    },
    {
      "inputs": [
        {
          "internalType": "bytes32",
          "name": "role",
          "type": "bytes32"
        },
        {
          "internalType": "address",
          "name": "account",
          "type": "address"
        }
      ],
      "name": "grantRole",
      "outputs": [],
      "stateMutability": "nonpayable",
      "type": "function"
    },
    {
      "inputs": [
        {
          "internalType": "bytes32",
          "name": "role",
          "type": "bytes32"
        },
        {
          "internalType": "address",
          "name": "account",
          "type": "address"
        }
      ],
      "name": "hasRole",
      "outputs": [
        {
          "internalType": "bool",
          "name": "",
          "type": "bool"
        }
      ],
      "stateMutability": "view",
      "type": "function"
    },
    {
      "inputs": [
        {
          "internalType": "bytes32",
          "name": "role",
          "type": "bytes32"
        },
        {
          "internalType": "address",
          "name": "account",
          "type": "address"
        }
      ],
      "name": "renounceRole",
      "outputs": [],
      "stateMutability": "nonpayable",
      "type": "function"
    },
    {
      "inputs": [
        {
          "internalType": "bytes32",
          "name": "role",
          "type": "bytes32"
        },
        {
          "internalType": "address",
          "name": "account",
          "type": "address"
        }
      ],
      "name": "revokeRole",
      "outputs": [],
      "stateMutability": "nonpayable",
      "type": "function"
    },
    {
      "inputs": [],
      "name": "rewardGauge",
      "outputs": [
        {
          "internalType": "contract IRewardOnlyGauge",
          "name": "",
          "type": "address"
        }
      ],
      "stateMutability": "view",
      "type": "function"
    },
    {
      "inputs": [
        {
          "internalType": "address",
          "name": "_aUsdc",
          "type": "address"
        }
      ],
      "name": "setAUsdcToken",
      "outputs": [],
      "stateMutability": "nonpayable",
      "type": "function"
    },
    {
      "inputs": [
        {
          "internalType": "address",
          "name": "_rewardGauge",
          "type": "address"
        }
      ],
      "name": "setRewardGauge",
      "outputs": [],
      "stateMutability": "nonpayable",
      "type": "function"
    },
    {
      "inputs": [
        {
          "internalType": "address",
          "name": "_vault",
          "type": "address"
        }
      ],
      "name": "setVault",
      "outputs": [],
      "stateMutability": "nonpayable",
      "type": "function"
    },
    {
      "inputs": [
        {
          "internalType": "bytes4",
          "name": "interfaceId",
          "type": "bytes4"
        }
      ],
      "name": "supportsInterface",
      "outputs": [
        {
          "internalType": "bool",
          "name": "",
          "type": "bool"
        }
      ],
      "stateMutability": "view",
      "type": "function"
    },
    {
      "inputs": [],
      "name": "vault",
      "outputs": [
        {
          "internalType": "contract Vault",
          "name": "",
          "type": "address"
        }
      ],
      "stateMutability": "view",
      "type": "function"
    }
  ],
  "transactionHash": "0x938640492cca69b7ae2c50c900ffabb63c182501ce56eed0cc798d425c4b16a3",
  "args": [],
  "solcInputHash": "a52a09ed2b2706cd99c66d36846223b4",
  "bytecode": "0x608060405234801561001057600080fd5b5061001c600033610021565b6100cd565b61002b828261002f565b5050565b6000828152602081815260408083206001600160a01b038516845290915290205460ff1661002b576000828152602081815260408083206001600160a01b03851684529091529020805460ff191660011790556100893390565b6001600160a01b0316816001600160a01b0316837f2f8788117e7eff1d82e926ec794901d17c78024a50270940304540a733656f0d60405160405180910390a45050565b610c79806100dc6000396000f3fe608060405234801561001057600080fd5b50600436106101005760003560e01c806365196e1e11610097578063ba1186a911610066578063ba1186a914610215578063cde2cc211461021d578063d547741f14610230578063fbfa77cf1461024357600080fd5b806365196e1e146101d45780636817031b146101e757806391d14854146101fa578063a217fddf1461020d57600080fd5b8063311cb5f9116100d3578063311cb5f91461017b57806334c0d4421461018e57806336568abe146101b9578063372500ab146101cc57600080fd5b806301ffc9a714610105578063248a9ca31461012d5780632ad765bb1461015e5780632f2ff15d14610168575b600080fd5b6101186101133660046109ff565b610256565b60405190151581526020015b60405180910390f35b61015061013b3660046109ba565b60009081526020819052604090206001015490565b604051908152602001610124565b61016661028d565b005b6101666101763660046109d3565b610345565b61016661018936600461099f565b610370565b6001546101a1906001600160a01b031681565b6040516001600160a01b039091168152602001610124565b6101666101c73660046109d3565b61041b565b610166610499565b6003546101a1906001600160a01b031681565b6101666101f536600461099f565b6104ab565b6101186102083660046109d3565b610546565b610150600081565b61016661056f565b61016661022b36600461099f565b6105d2565b61016661023e3660046109d3565b61066d565b6002546101a1906001600160a01b031681565b60006001600160e01b03198216637965db0b60e01b148061028757506301ffc9a760e01b6001600160e01b03198316145b92915050565b60408051600180825281830190925260009160208083019080368337505060035482519293506001600160a01b0316918391506000906102cf576102cf610c17565b6001600160a01b039283166020918202929092010152600254604051637e9bc5dd60e11b815291169063fd378bba9061031090849060001990600401610a9e565b600060405180830381600087803b15801561032a57600080fd5b505af115801561033e573d6000803e3d6000fd5b5050505050565b6000828152602081905260409020600101546103618133610693565b61036b83836106f7565b505050565b61037b600033610546565b6103a05760405162461bcd60e51b815260040161039790610b22565b60405180910390fd5b6001600160a01b0381166103c65760405162461bcd60e51b815260040161039790610b50565b600380546001600160a01b0319166001600160a01b0383169081179091556040519081527fccf27d86299f5079745a2ebdc29cacffb489a6ef157418c569a87e9177fd90ac906020015b60405180910390a150565b6001600160a01b038116331461048b5760405162461bcd60e51b815260206004820152602f60248201527f416363657373436f6e74726f6c3a2063616e206f6e6c792072656e6f756e636560448201526e103937b632b9903337b91039b2b63360891b6064820152608401610397565b610495828261077b565b5050565b6104a161056f565b6104a961028d565b565b6104b6600033610546565b6104d25760405162461bcd60e51b815260040161039790610b22565b6001600160a01b0381166104f85760405162461bcd60e51b815260040161039790610b50565b600280546001600160a01b0319166001600160a01b0383169081179091556040519081527f161584aed96e7f34998117c9ad67e2d21ff46d2a42775c22b11ed282f3c7b2cd90602001610410565b6000918252602082815260408084206001600160a01b0393909316845291905290205460ff1690565b600154600254604051634274debf60e11b81526001600160a01b0391821660048201529116906384e9bd7e90602401600060405180830381600087803b1580156105b857600080fd5b505af11580156105cc573d6000803e3d6000fd5b50505050565b6105dd600033610546565b6105f95760405162461bcd60e51b815260040161039790610b22565b6001600160a01b03811661061f5760405162461bcd60e51b815260040161039790610b50565b600180546001600160a01b0319166001600160a01b0383169081179091556040519081527f8c47284dae87e49e9b06506293a6815451be63aa94c9797a9a59ce96c616e81c90602001610410565b6000828152602081905260409020600101546106898133610693565b61036b838361077b565b61069d8282610546565b610495576106b5816001600160a01b031660146107e0565b6106c08360206107e0565b6040516020016106d1929190610a29565b60408051601f198184030181529082905262461bcd60e51b825261039791600401610aef565b6107018282610546565b610495576000828152602081815260408083206001600160a01b03851684529091529020805460ff191660011790556107373390565b6001600160a01b0316816001600160a01b0316837f2f8788117e7eff1d82e926ec794901d17c78024a50270940304540a733656f0d60405160405180910390a45050565b6107858282610546565b15610495576000828152602081815260408083206001600160a01b0385168085529252808320805460ff1916905551339285917ff6391f5c32d9c69d2a47ea670b442974b53935d1edc7fd64eb21e047a839171b9190a45050565b606060006107ef836002610b9f565b6107fa906002610b87565b67ffffffffffffffff81111561081257610812610c2d565b6040519080825280601f01601f19166020018201604052801561083c576020820181803683370190505b509050600360fc1b8160008151811061085757610857610c17565b60200101906001600160f81b031916908160001a905350600f60fb1b8160018151811061088657610886610c17565b60200101906001600160f81b031916908160001a90535060006108aa846002610b9f565b6108b5906001610b87565b90505b600181111561092d576f181899199a1a9b1b9c1cb0b131b232b360811b85600f16601081106108e9576108e9610c17565b1a60f81b8282815181106108ff576108ff610c17565b60200101906001600160f81b031916908160001a90535060049490941c9361092681610bea565b90506108b8565b50831561097c5760405162461bcd60e51b815260206004820181905260248201527f537472696e67733a20686578206c656e67746820696e73756666696369656e746044820152606401610397565b9392505050565b80356001600160a01b038116811461099a57600080fd5b919050565b6000602082840312156109b157600080fd5b61097c82610983565b6000602082840312156109cc57600080fd5b5035919050565b600080604083850312156109e657600080fd5b823591506109f660208401610983565b90509250929050565b600060208284031215610a1157600080fd5b81356001600160e01b03198116811461097c57600080fd5b7f416363657373436f6e74726f6c3a206163636f756e7420000000000000000000815260008351610a61816017850160208801610bbe565b7001034b99036b4b9b9b4b733903937b6329607d1b6017918401918201528351610a92816028840160208801610bbe565b01602801949350505050565b604080825283519082018190526000906020906060840190828701845b82811015610ae05781516001600160a01b031684529284019290840190600101610abb565b50505092019290925292915050565b6020815260008251806020840152610b0e816040850160208701610bbe565b601f01601f19169190910160400192915050565b6020808252601490820152735265737472696374656420746f2061646d696e7360601b604082015260600190565b60208082526018908201527f5a65726f2061646472657373206e6f7420616c6c6f7765640000000000000000604082015260600190565b60008219821115610b9a57610b9a610c01565b500190565b6000816000190483118215151615610bb957610bb9610c01565b500290565b60005b83811015610bd9578181015183820152602001610bc1565b838111156105cc5750506000910152565b600081610bf957610bf9610c01565b506000190190565b634e487b7160e01b600052601160045260246000fd5b634e487b7160e01b600052603260045260246000fd5b634e487b7160e01b600052604160045260246000fdfea264697066735822122096d332c247b40c043dd530cc3fafd8e5a848f1d8b2f63ab754781c76db9b8ae264736f6c63430008060033",
  "devdoc": {
    "kind": "dev",
    "methods": {
      "getRoleAdmin(bytes32)": {
        "details": "Returns the admin role that controls `role`. See {grantRole} and {revokeRole}. To change a role's admin, use {_setRoleAdmin}."
      },
      "grantRole(bytes32,address)": {
        "details": "Grants `role` to `account`. If `account` had not been already granted `role`, emits a {RoleGranted} event. Requirements: - the caller must have ``role``'s admin role."
      },
      "hasRole(bytes32,address)": {
        "details": "Returns `true` if `account` has been granted `role`."
      },
      "renounceRole(bytes32,address)": {
        "details": "Revokes `role` from the calling account. Roles are often managed via {grantRole} and {revokeRole}: this function's purpose is to provide a mechanism for accounts to lose their privileges if they are compromised (such as when a trusted device is misplaced). If the calling account had been revoked `role`, emits a {RoleRevoked} event. Requirements: - the caller must be `account`."
      },
      "revokeRole(bytes32,address)": {
        "details": "Revokes `role` from `account`. If `account` had been granted `role`, emits a {RoleRevoked} event. Requirements: - the caller must have ``role``'s admin role."
      },
      "supportsInterface(bytes4)": {
        "details": "See {IERC165-supportsInterface}."
      }
    },
    "version": 1
  },
  "userdoc": {
    "kind": "user",
    "methods": {
      "claimRewards()": {
        "notice": "Claim rewards from Curve gauge, Aave where we have staked LP tokens"
      }
    },
    "version": 1
  },
  "storageLayout": {
    "storage": [
      {
        "astId": 24,
        "contract": "contracts/RewardManager.sol:RewardManager",
        "label": "_roles",
        "offset": 0,
        "slot": "0",
        "type": "t_mapping(t_bytes32,t_struct(RoleData)19_storage)"
      },
      {
        "astId": 10598,
        "contract": "contracts/RewardManager.sol:RewardManager",
        "label": "rewardGauge",
        "offset": 0,
        "slot": "1",
        "type": "t_contract(IRewardOnlyGauge)14609"
      },
      {
        "astId": 10601,
        "contract": "contracts/RewardManager.sol:RewardManager",
        "label": "vault",
        "offset": 0,
        "slot": "2",
        "type": "t_contract(Vault)11501"
      },
      {
        "astId": 10604,
        "contract": "contracts/RewardManager.sol:RewardManager",
        "label": "aUsdc",
        "offset": 0,
        "slot": "3",
        "type": "t_contract(IERC20)4667"
      }
    ],
    "types": {
      "t_address": {
        "encoding": "inplace",
        "label": "address",
        "numberOfBytes": "20"
      },
      "t_bool": {
        "encoding": "inplace",
        "label": "bool",
        "numberOfBytes": "1"
      },
      "t_bytes32": {
        "encoding": "inplace",
        "label": "bytes32",
        "numberOfBytes": "32"
      },
      "t_contract(IERC20)4667": {
        "encoding": "inplace",
        "label": "contract IERC20",
        "numberOfBytes": "20"
      },
      "t_contract(IRewardOnlyGauge)14609": {
        "encoding": "inplace",
        "label": "contract IRewardOnlyGauge",
        "numberOfBytes": "20"
      },
      "t_contract(Vault)11501": {
        "encoding": "inplace",
        "label": "contract Vault",
        "numberOfBytes": "20"
      },
      "t_mapping(t_address,t_bool)": {
        "encoding": "mapping",
        "key": "t_address",
        "label": "mapping(address => bool)",
        "numberOfBytes": "32",
        "value": "t_bool"
      },
      "t_mapping(t_bytes32,t_struct(RoleData)19_storage)": {
        "encoding": "mapping",
        "key": "t_bytes32",
        "label": "mapping(bytes32 => struct AccessControl.RoleData)",
        "numberOfBytes": "32",
        "value": "t_struct(RoleData)19_storage"
      },
      "t_struct(RoleData)19_storage": {
        "encoding": "inplace",
        "label": "struct AccessControl.RoleData",
        "members": [
          {
            "astId": 16,
            "contract": "contracts/RewardManager.sol:RewardManager",
            "label": "members",
            "offset": 0,
            "slot": "0",
            "type": "t_mapping(t_address,t_bool)"
          },
          {
            "astId": 18,
            "contract": "contracts/RewardManager.sol:RewardManager",
            "label": "adminRole",
            "offset": 0,
            "slot": "1",
            "type": "t_bytes32"
          }
        ],
        "numberOfBytes": "64"
      }
    }
  }
}