{
  "address": "0xfA8Bb3CED390eDB598000A118491d990304df550",
  "abi": [
    {
      "inputs": [],
      "stateMutability": "nonpayable",
      "type": "constructor"
    },
    {
      "anonymous": false,
      "inputs": [
        {
          "indexed": false,
          "internalType": "address",
          "name": "previousAdmin",
          "type": "address"
        },
        {
          "indexed": false,
          "internalType": "address",
          "name": "newAdmin",
          "type": "address"
        }
      ],
      "name": "AdminChanged",
      "type": "event"
    },
    {
      "anonymous": false,
      "inputs": [
        {
          "indexed": true,
          "internalType": "address",
          "name": "beacon",
          "type": "address"
        }
      ],
      "name": "BeaconUpgraded",
      "type": "event"
    },
    {
      "anonymous": false,
      "inputs": [
        {
          "indexed": false,
          "internalType": "address",
          "name": "value",
          "type": "address"
        }
      ],
      "name": "PortfolioManagerUpdated",
      "type": "event"
    },
    {
      "anonymous": false,
      "inputs": [
        {
          "indexed": false,
          "internalType": "uint256",
          "name": "amount",
          "type": "uint256"
        }
      ],
      "name": "Reward",
      "type": "event"
    },
    {
      "anonymous": false,
      "inputs": [
        {
          "indexed": true,
          "internalType": "bytes32",
          "name": "role",
          "type": "bytes32"
        },
        {
          "indexed": true,
          "internalType": "bytes32",
          "name": "previousAdminRole",
          "type": "bytes32"
        },
        {
          "indexed": true,
          "internalType": "bytes32",
          "name": "newAdminRole",
          "type": "bytes32"
        }
      ],
      "name": "RoleAdminChanged",
      "type": "event"
    },
    {
      "anonymous": false,
      "inputs": [
        {
          "indexed": true,
          "internalType": "bytes32",
          "name": "role",
          "type": "bytes32"
        },
        {
          "indexed": true,
          "internalType": "address",
          "name": "account",
          "type": "address"
        },
        {
          "indexed": true,
          "internalType": "address",
          "name": "sender",
          "type": "address"
        }
      ],
      "name": "RoleGranted",
      "type": "event"
    },
    {
      "anonymous": false,
      "inputs": [
        {
          "indexed": true,
          "internalType": "bytes32",
          "name": "role",
          "type": "bytes32"
        },
        {
          "indexed": true,
          "internalType": "address",
          "name": "account",
          "type": "address"
        },
        {
          "indexed": true,
          "internalType": "address",
          "name": "sender",
          "type": "address"
        }
      ],
      "name": "RoleRevoked",
      "type": "event"
    },
    {
      "anonymous": false,
      "inputs": [
        {
          "indexed": false,
          "internalType": "address",
          "name": "balancerVault",
          "type": "address"
        },
        {
          "indexed": false,
          "internalType": "address",
          "name": "uniswapRouter",
          "type": "address"
        },
        {
          "indexed": false,
          "internalType": "bytes32",
          "name": "balancerPoolId1",
          "type": "bytes32"
        },
        {
          "indexed": false,
          "internalType": "bytes32",
          "name": "balancerPoolId2",
          "type": "bytes32"
        },
        {
          "indexed": false,
          "internalType": "address",
          "name": "merkleOrchard",
          "type": "address"
        },
        {
          "indexed": false,
          "internalType": "address",
          "name": "distributorBal",
          "type": "address"
        },
        {
          "indexed": false,
          "internalType": "address",
          "name": "distributorWMatic",
          "type": "address"
        },
        {
          "indexed": false,
          "internalType": "address",
          "name": "distributorTUsd",
          "type": "address"
        },
        {
          "indexed": false,
          "internalType": "uint256",
          "name": "distributionId",
          "type": "uint256"
        }
      ],
      "name": "StrategyBalancerUpdatedParams",
      "type": "event"
    },
    {
      "anonymous": false,
      "inputs": [
        {
          "indexed": false,
          "internalType": "address",
          "name": "usdcToken",
          "type": "address"
        },
        {
          "indexed": false,
          "internalType": "address",
          "name": "bpspTUsdToken",
          "type": "address"
        },
        {
          "indexed": false,
          "internalType": "address",
          "name": "balToken",
          "type": "address"
        },
        {
          "indexed": false,
          "internalType": "address",
          "name": "wmaticToken",
          "type": "address"
        },
        {
          "indexed": false,
          "internalType": "address",
          "name": "tusdToken",
          "type": "address"
        },
        {
          "indexed": false,
          "internalType": "uint256",
          "name": "usdcTokenDenominator",
          "type": "uint256"
        },
        {
          "indexed": false,
          "internalType": "uint256",
          "name": "bpspTUsdTokenDenominator",
          "type": "uint256"
        },
        {
          "indexed": false,
          "internalType": "uint256",
          "name": "balTokenDenominator",
          "type": "uint256"
        },
        {
          "indexed": false,
          "internalType": "uint256",
          "name": "wmaticTokenDenominator",
          "type": "uint256"
        },
        {
          "indexed": false,
          "internalType": "uint256",
          "name": "tusdTokenDenominator",
          "type": "uint256"
        }
      ],
      "name": "StrategyBalancerUpdatedTokens",
      "type": "event"
    },
    {
      "anonymous": false,
      "inputs": [
        {
          "indexed": true,
          "internalType": "address",
          "name": "implementation",
          "type": "address"
        }
      ],
      "name": "Upgraded",
      "type": "event"
    },
    {
      "inputs": [],
      "name": "DEFAULT_ADMIN_ROLE",
      "outputs": [
        {
          "internalType": "bytes32",
          "name": "",
          "type": "bytes32"
        }
      ],
      "stateMutability": "view",
      "type": "function"
    },
    {
      "inputs": [],
      "name": "MAX_VALUE",
      "outputs": [
        {
          "internalType": "int256",
          "name": "",
          "type": "int256"
        }
      ],
      "stateMutability": "view",
      "type": "function"
    },
    {
      "inputs": [],
      "name": "PORTFOLIO_MANAGER",
      "outputs": [
        {
          "internalType": "bytes32",
          "name": "",
          "type": "bytes32"
        }
      ],
      "stateMutability": "view",
      "type": "function"
    },
    {
      "inputs": [],
      "name": "UPGRADER_ROLE",
      "outputs": [
        {
          "internalType": "bytes32",
          "name": "",
          "type": "bytes32"
        }
      ],
      "stateMutability": "view",
      "type": "function"
    },
    {
      "inputs": [],
      "name": "balToken",
      "outputs": [
        {
          "internalType": "contract IERC20",
          "name": "",
          "type": "address"
        }
      ],
      "stateMutability": "view",
      "type": "function"
    },
    {
      "inputs": [],
      "name": "balTokenDenominator",
      "outputs": [
        {
          "internalType": "uint256",
          "name": "",
          "type": "uint256"
        }
      ],
      "stateMutability": "view",
      "type": "function"
    },
    {
      "inputs": [],
      "name": "balancerPoolId1",
      "outputs": [
        {
          "internalType": "bytes32",
          "name": "",
          "type": "bytes32"
        }
      ],
      "stateMutability": "view",
      "type": "function"
    },
    {
      "inputs": [],
      "name": "balancerPoolId2",
      "outputs": [
        {
          "internalType": "bytes32",
          "name": "",
          "type": "bytes32"
        }
      ],
      "stateMutability": "view",
      "type": "function"
    },
    {
      "inputs": [],
      "name": "balancerVault",
      "outputs": [
        {
          "internalType": "contract IVault",
          "name": "",
          "type": "address"
        }
      ],
      "stateMutability": "view",
      "type": "function"
    },
    {
      "inputs": [],
      "name": "bpspTUsdToken",
      "outputs": [
        {
          "internalType": "contract IERC20",
          "name": "",
          "type": "address"
        }
      ],
      "stateMutability": "view",
      "type": "function"
    },
    {
      "inputs": [],
      "name": "bpspTUsdTokenDenominator",
      "outputs": [
        {
          "internalType": "uint256",
          "name": "",
          "type": "uint256"
        }
      ],
      "stateMutability": "view",
      "type": "function"
    },
    {
      "inputs": [
        {
          "internalType": "uint256",
          "name": "claimedBalanceBal",
          "type": "uint256"
        },
        {
          "internalType": "uint256",
          "name": "claimedBalanceWMatic",
          "type": "uint256"
        },
        {
          "internalType": "uint256",
          "name": "claimedBalanceTUsd",
          "type": "uint256"
        },
        {
          "internalType": "bytes32[]",
          "name": "merkleProofBal",
          "type": "bytes32[]"
        },
        {
          "internalType": "bytes32[]",
          "name": "merkleProofWMatic",
          "type": "bytes32[]"
        },
        {
          "internalType": "bytes32[]",
          "name": "merkleProofTUsd",
          "type": "bytes32[]"
        }
      ],
      "name": "claimRewards",
      "outputs": [],
      "stateMutability": "nonpayable",
      "type": "function"
    },
    {
      "inputs": [
        {
          "internalType": "address",
          "name": "_to",
          "type": "address"
        }
      ],
      "name": "claimRewards",
      "outputs": [
        {
          "internalType": "uint256",
          "name": "",
          "type": "uint256"
        }
      ],
      "stateMutability": "nonpayable",
      "type": "function"
    },
    {
      "inputs": [],
      "name": "distributionId",
      "outputs": [
        {
          "internalType": "uint256",
          "name": "",
          "type": "uint256"
        }
      ],
      "stateMutability": "view",
      "type": "function"
    },
    {
      "inputs": [],
      "name": "distributorBal",
      "outputs": [
        {
          "internalType": "address",
          "name": "",
          "type": "address"
        }
      ],
      "stateMutability": "view",
      "type": "function"
    },
    {
      "inputs": [],
      "name": "distributorTUsd",
      "outputs": [
        {
          "internalType": "address",
          "name": "",
          "type": "address"
        }
      ],
      "stateMutability": "view",
      "type": "function"
    },
    {
      "inputs": [],
      "name": "distributorWMatic",
      "outputs": [
        {
          "internalType": "address",
          "name": "",
          "type": "address"
        }
      ],
      "stateMutability": "view",
      "type": "function"
    },
    {
      "inputs": [
        {
          "internalType": "bytes32",
          "name": "role",
          "type": "bytes32"
        }
      ],
      "name": "getRoleAdmin",
      "outputs": [
        {
          "internalType": "bytes32",
          "name": "",
          "type": "bytes32"
        }
      ],
      "stateMutability": "view",
      "type": "function"
    },
    {
      "inputs": [
        {
          "internalType": "bytes32",
          "name": "role",
          "type": "bytes32"
        },
        {
          "internalType": "address",
          "name": "account",
          "type": "address"
        }
      ],
      "name": "grantRole",
      "outputs": [],
      "stateMutability": "nonpayable",
      "type": "function"
    },
    {
      "inputs": [
        {
          "internalType": "bytes32",
          "name": "role",
          "type": "bytes32"
        },
        {
          "internalType": "address",
          "name": "account",
          "type": "address"
        }
      ],
      "name": "hasRole",
      "outputs": [
        {
          "internalType": "bool",
          "name": "",
          "type": "bool"
        }
      ],
      "stateMutability": "view",
      "type": "function"
    },
    {
      "inputs": [],
      "name": "initialize",
      "outputs": [],
      "stateMutability": "nonpayable",
      "type": "function"
    },
    {
      "inputs": [],
      "name": "liquidationValue",
      "outputs": [
        {
          "internalType": "uint256",
          "name": "",
          "type": "uint256"
        }
      ],
      "stateMutability": "view",
      "type": "function"
    },
    {
      "inputs": [],
      "name": "merkleOrchard",
      "outputs": [
        {
          "internalType": "contract MerkleOrchard",
          "name": "",
          "type": "address"
        }
      ],
      "stateMutability": "view",
      "type": "function"
    },
    {
      "inputs": [],
      "name": "netAssetValue",
      "outputs": [
        {
          "internalType": "uint256",
          "name": "",
          "type": "uint256"
        }
      ],
      "stateMutability": "view",
      "type": "function"
    },
    {
      "inputs": [],
      "name": "portfolioManager",
      "outputs": [
        {
          "internalType": "address",
          "name": "",
          "type": "address"
        }
      ],
      "stateMutability": "view",
      "type": "function"
    },
    {
      "inputs": [
        {
          "internalType": "bytes32",
          "name": "role",
          "type": "bytes32"
        },
        {
          "internalType": "address",
          "name": "account",
          "type": "address"
        }
      ],
      "name": "renounceRole",
      "outputs": [],
      "stateMutability": "nonpayable",
      "type": "function"
    },
    {
      "inputs": [
        {
          "internalType": "bytes32",
          "name": "role",
          "type": "bytes32"
        },
        {
          "internalType": "address",
          "name": "account",
          "type": "address"
        }
      ],
      "name": "revokeRole",
      "outputs": [],
      "stateMutability": "nonpayable",
      "type": "function"
    },
    {
      "inputs": [
        {
          "internalType": "address",
          "name": "_balancerVault",
          "type": "address"
        },
        {
          "internalType": "address",
          "name": "_uniswapRouter",
          "type": "address"
        },
        {
          "internalType": "bytes32",
          "name": "_balancerPoolId1",
          "type": "bytes32"
        },
        {
          "internalType": "bytes32",
          "name": "_balancerPoolId2",
          "type": "bytes32"
        },
        {
          "internalType": "address",
          "name": "_merkleOrchard",
          "type": "address"
        },
        {
          "internalType": "address",
          "name": "_distributorBal",
          "type": "address"
        },
        {
          "internalType": "address",
          "name": "_distributorWMatic",
          "type": "address"
        },
        {
          "internalType": "address",
          "name": "_distributorTUsd",
          "type": "address"
        },
        {
          "internalType": "uint256",
          "name": "_distributionId",
          "type": "uint256"
        }
      ],
      "name": "setParams",
      "outputs": [],
      "stateMutability": "nonpayable",
      "type": "function"
    },
    {
      "inputs": [
        {
          "internalType": "address",
          "name": "_value",
          "type": "address"
        }
      ],
      "name": "setPortfolioManager",
      "outputs": [],
      "stateMutability": "nonpayable",
      "type": "function"
    },
    {
      "inputs": [
        {
          "internalType": "address",
          "name": "_usdcToken",
          "type": "address"
        },
        {
          "internalType": "address",
          "name": "_bpspTUsdToken",
          "type": "address"
        },
        {
          "internalType": "address",
          "name": "_balToken",
          "type": "address"
        },
        {
          "internalType": "address",
          "name": "_wmaticToken",
          "type": "address"
        },
        {
          "internalType": "address",
          "name": "_tusdToken",
          "type": "address"
        }
      ],
      "name": "setTokens",
      "outputs": [],
      "stateMutability": "nonpayable",
      "type": "function"
    },
    {
      "inputs": [
        {
          "internalType": "address",
          "name": "_asset",
          "type": "address"
        },
        {
          "internalType": "uint256",
          "name": "_amount",
          "type": "uint256"
        }
      ],
      "name": "stake",
      "outputs": [],
      "stateMutability": "nonpayable",
      "type": "function"
    },
    {
      "inputs": [
        {
          "internalType": "bytes4",
          "name": "interfaceId",
          "type": "bytes4"
        }
      ],
      "name": "supportsInterface",
      "outputs": [
        {
          "internalType": "bool",
          "name": "",
          "type": "bool"
        }
      ],
      "stateMutability": "view",
      "type": "function"
    },
    {
      "inputs": [],
      "name": "tusdToken",
      "outputs": [
        {
          "internalType": "contract IERC20",
          "name": "",
          "type": "address"
        }
      ],
      "stateMutability": "view",
      "type": "function"
    },
    {
      "inputs": [],
      "name": "tusdTokenDenominator",
      "outputs": [
        {
          "internalType": "uint256",
          "name": "",
          "type": "uint256"
        }
      ],
      "stateMutability": "view",
      "type": "function"
    },
    {
      "inputs": [
        {
          "internalType": "address",
          "name": "_asset",
          "type": "address"
        },
        {
          "internalType": "uint256",
          "name": "_amount",
          "type": "uint256"
        },
        {
          "internalType": "address",
          "name": "_beneficiary",
          "type": "address"
        },
        {
          "internalType": "bool",
          "name": "_targetIsZero",
          "type": "bool"
        }
      ],
      "name": "unstake",
      "outputs": [
        {
          "internalType": "uint256",
          "name": "",
          "type": "uint256"
        }
      ],
      "stateMutability": "nonpayable",
      "type": "function"
    },
    {
      "inputs": [
        {
          "internalType": "address",
          "name": "newImplementation",
          "type": "address"
        }
      ],
      "name": "upgradeTo",
      "outputs": [],
      "stateMutability": "nonpayable",
      "type": "function"
    },
    {
      "inputs": [
        {
          "internalType": "address",
          "name": "newImplementation",
          "type": "address"
        },
        {
          "internalType": "bytes",
          "name": "data",
          "type": "bytes"
        }
      ],
      "name": "upgradeToAndCall",
      "outputs": [],
      "stateMutability": "payable",
      "type": "function"
    },
    {
      "inputs": [],
      "name": "usdcToken",
      "outputs": [
        {
          "internalType": "contract IERC20",
          "name": "",
          "type": "address"
        }
      ],
      "stateMutability": "view",
      "type": "function"
    },
    {
      "inputs": [],
      "name": "usdcTokenDenominator",
      "outputs": [
        {
          "internalType": "uint256",
          "name": "",
          "type": "uint256"
        }
      ],
      "stateMutability": "view",
      "type": "function"
    },
    {
      "inputs": [
        {
          "internalType": "uint256",
          "name": "claimedBalanceBal",
          "type": "uint256"
        },
        {
          "internalType": "uint256",
          "name": "claimedBalanceWMatic",
          "type": "uint256"
        },
        {
          "internalType": "uint256",
          "name": "claimedBalanceTUsd",
          "type": "uint256"
        },
        {
          "internalType": "bytes32[]",
          "name": "merkleProofBal",
          "type": "bytes32[]"
        },
        {
          "internalType": "bytes32[]",
          "name": "merkleProofWMatic",
          "type": "bytes32[]"
        },
        {
          "internalType": "bytes32[]",
          "name": "merkleProofTUsd",
          "type": "bytes32[]"
        }
      ],
      "name": "verifyClaim",
      "outputs": [],
      "stateMutability": "nonpayable",
      "type": "function"
    },
    {
      "inputs": [],
      "name": "wmaticToken",
      "outputs": [
        {
          "internalType": "contract IERC20",
          "name": "",
          "type": "address"
        }
      ],
      "stateMutability": "view",
      "type": "function"
    },
    {
      "inputs": [],
      "name": "wmaticTokenDenominator",
      "outputs": [
        {
          "internalType": "uint256",
          "name": "",
          "type": "uint256"
        }
      ],
      "stateMutability": "view",
      "type": "function"
    }
  ],
  "solcInputHash": "3786e7c0835a562d729fd4003ac9a25b",
  "bytecode": "0x60a06040523060601b6080523480156200001857600080fd5b50600054610100900460ff168062000033575060005460ff16155b6200009b5760405162461bcd60e51b815260206004820152602e60248201527f496e697469616c697a61626c653a20636f6e747261637420697320616c72656160448201526d191e481a5b9a5d1a585b1a5e995960921b606482015260840160405180910390fd5b600054610100900460ff16158015620000be576000805461ffff19166101011790555b8015620000d1576000805461ff00191690555b5060805160601c615537620001066000396000818161106b015281816110ab0152818161143b015261147b01526155376000f3fe6080604052600436106102515760003560e01c80637d5f580211610139578063adc9772e116100b6578063d87b16651161007a578063d87b1665146106b6578063ee227325146106d7578063ef5cfb8c146106f7578063f6f6b88114610717578063f72c0d8b14610737578063fddf5af81461076b57600080fd5b8063adc9772e14610627578063b7c2c17714610647578063c9c0df611461065e578063d38dc45d14610675578063d547741f1461069657600080fd5b8063a3673b38116100fd578063a3673b381461058f578063a440b21a146105a4578063a56b7489146105c4578063a69dc7f8146105e5578063abf4be011461060657600080fd5b80637d5f58021461050c5780638129fc1c1461052e5780638a5693cd1461054357806391d148541461055a578063a217fddf1461057a57600080fd5b80632f2ff15d116101d25780634f1ef286116101965780634f1ef2861461046957806353a0ca2d1461047c5780635f7793441461049d578063620b75df146104b457806362b67652146104d457806364582209146104eb57600080fd5b80632f2ff15d146103c857806336568abe146103e85780633659cfe61461040857806338d54645146104285780634e4c3f0d1461044957600080fd5b8063158274a511610219578063158274a51461032b578063248a9ca31461034c57806324963a911461037c5780632576e65a1461039c5780632bb20a35146103b157600080fd5b806301ffc9a714610256578063063bde241461028b57806306da3f2e146102b95780630fc55bfd146102d057806311eac855146102f2575b600080fd5b34801561026257600080fd5b50610276610271366004614978565b610782565b60405190151581526020015b60405180910390f35b34801561029757600080fd5b506102ab6b033b2e3c9fd0803ce800000081565b604051908152602001610282565b3480156102c557600080fd5b506102ab6101965481565b3480156102dc57600080fd5b506102f06102eb366004614594565b6107b9565b005b3480156102fe57600080fd5b5061019154610313906001600160a01b031681565b6040516001600160a01b039091168152602001610282565b34801561033757600080fd5b5061019b54610313906001600160a01b031681565b34801561035857600080fd5b506102ab61036736600461493a565b60009081526065602052604090206001015490565b34801561038857600080fd5b506102f06103973660046149bb565b610c26565b3480156103a857600080fd5b506102ab610f18565b3480156103bd57600080fd5b506102ab61019d5481565b3480156103d457600080fd5b506102f06103e3366004614953565b610fb7565b3480156103f457600080fd5b506102f0610403366004614953565b610fe2565b34801561041457600080fd5b506102f0610423366004614577565b611060565b34801561043457600080fd5b5061019354610313906001600160a01b031681565b34801561045557600080fd5b506102f0610464366004614605565b611129565b6102f06104773660046146a6565b611430565b34801561048857600080fd5b506101a054610313906001600160a01b031681565b3480156104a957600080fd5b506102ab6101985481565b3480156104c057600080fd5b5060fb54610313906001600160a01b031681565b3480156104e057600080fd5b506102ab6101995481565b3480156104f757600080fd5b506101a154610313906001600160a01b031681565b34801561051857600080fd5b506102ab6000805160206154bb83398151915281565b34801561053a57600080fd5b506102f06114e6565b34801561054f57600080fd5b506102ab61019a5481565b34801561056657600080fd5b50610276610575366004614953565b611559565b34801561058657600080fd5b506102ab600081565b34801561059b57600080fd5b506102ab611584565b3480156105b057600080fd5b506102f06105bf366004614577565b61161d565b3480156105d057600080fd5b5061019254610313906001600160a01b031681565b3480156105f157600080fd5b5061019554610313906001600160a01b031681565b34801561061257600080fd5b5061019454610313906001600160a01b031681565b34801561063357600080fd5b506102f061064236600461478c565b6116fb565b34801561065357600080fd5b506102ab6101975481565b34801561066a57600080fd5b506102ab6101a25481565b34801561068157600080fd5b5061019e54610313906001600160a01b031681565b3480156106a257600080fd5b506102f06106b1366004614953565b6117b1565b3480156106c257600080fd5b5061019f54610313906001600160a01b031681565b3480156106e357600080fd5b506102f06106f23660046149bb565b6117d7565b34801561070357600080fd5b506102ab610712366004614577565b611e71565b34801561072357600080fd5b506102ab6107323660046147b8565b611ef3565b34801561074357600080fd5b506102ab7f189ab7a9244df0848122154315af71fe140f3db0fe014031783b0946b8c9d2e381565b34801561077757600080fd5b506102ab61019c5481565b60006001600160e01b03198216637965db0b60e01b14806107b357506301ffc9a760e01b6001600160e01b03198316145b92915050565b6107c4600033611559565b6107e95760405162461bcd60e51b81526004016107e090614fd2565b60405180910390fd5b6001600160a01b03851661080f5760405162461bcd60e51b81526004016107e090615037565b6001600160a01b0384166108355760405162461bcd60e51b81526004016107e090615037565b6001600160a01b03831661085b5760405162461bcd60e51b81526004016107e090615037565b6001600160a01b0382166108815760405162461bcd60e51b81526004016107e090615037565b6001600160a01b0381166108a75760405162461bcd60e51b81526004016107e090615037565b61019180546001600160a01b038088166001600160a01b031992831681179093556101928054888316908416179055610193805487831690841617905561019480548683169084161790556101958054918516919092161790556040805163313ce56760e01b8152905163313ce56791600480820192602092909190829003018186803b15801561093757600080fd5b505afa15801561094b573d6000803e3d6000fd5b505050506040513d601f19601f8201168201806040525081019061096f9190614a5f565b61097a90600a6152f3565b61019681905550836001600160a01b031663313ce5676040518163ffffffff1660e01b815260040160206040518083038186803b1580156109ba57600080fd5b505afa1580156109ce573d6000803e3d6000fd5b505050506040513d601f19601f820116820180604052508101906109f29190614a5f565b6109fd90600a6152f3565b61019781905550826001600160a01b031663313ce5676040518163ffffffff1660e01b815260040160206040518083038186803b158015610a3d57600080fd5b505afa158015610a51573d6000803e3d6000fd5b505050506040513d601f19601f82011682018060405250810190610a759190614a5f565b610a8090600a6152f3565b61019881905550816001600160a01b031663313ce5676040518163ffffffff1660e01b815260040160206040518083038186803b158015610ac057600080fd5b505afa158015610ad4573d6000803e3d6000fd5b505050506040513d601f19601f82011682018060405250810190610af89190614a5f565b610b0390600a6152f3565b61019981905550806001600160a01b031663313ce5676040518163ffffffff1660e01b815260040160206040518083038186803b158015610b4357600080fd5b505afa158015610b57573d6000803e3d6000fd5b505050506040513d601f19601f82011682018060405250810190610b7b9190614a5f565b610b8690600a6152f3565b61019a81905561019654610197546101985461019954604080516001600160a01b038c811682528b811660208301528a81168284015289811660608301528816608082015260a081019590955260c085019390935260e084019190915261010083015261012082019290925290517fc6bd2e093caafbb58566a0f8883461883dde4ef7923eff7d1e3793910ab22dda918190036101400190a15050505050565b610c596040518060400160405280601281526020017153746172742076657269667920636c61696d60701b8152506120bc565b8515610d2e5761019e546101935461019f546101a2546040516362c8b7c960e01b81526000946001600160a01b03908116946362c8b7c994610caa949183169392169130908e908c90600401614e0e565b60206040518083038186803b158015610cc257600080fd5b505afa158015610cd6573d6000803e3d6000fd5b505050506040513d601f19601f82011682018060405250810190610cfa919061491d565b9050610d2c6040518060400160405280600e81526020016d6973436c61696d42616c3a20257360901b815250826120ff565b505b8515610e065761019e54610193546101a0546101a2546040516362c8b7c960e01b81526000946001600160a01b03908116946362c8b7c994610d7f949183169392169130908d908b90600401614e0e565b60206040518083038186803b158015610d9757600080fd5b505afa158015610dab573d6000803e3d6000fd5b505050506040513d601f19601f82011682018060405250810190610dcf919061491d565b9050610e04604051806040016040528060118152602001706973436c61696d574d617469633a20257360781b815250826120ff565b505b8515610edc5761019e54610193546101a1546101a2546040516362c8b7c960e01b81526000946001600160a01b03908116946362c8b7c994610e57949183169392169130908c908a90600401614e0e565b60206040518083038186803b158015610e6f57600080fd5b505afa158015610e83573d6000803e3d6000fd5b505050506040513d601f19601f82011682018060405250810190610ea7919061491d565b9050610eda6040518060400160405280600f81526020016e6973436c61696d545573643a20257360881b815250826120ff565b505b610f106040518060400160405280601381526020017246696e6973682076657269667920636c61696d60681b8152506120bc565b505050505050565b610192546040516370a0823160e01b815230600482015260009182916001600160a01b03909116906370a082319060240160206040518083038186803b158015610f6157600080fd5b505afa158015610f75573d6000803e3d6000fd5b505050506040513d601f19601f82011682018060405250810190610f9991906149a2565b905080610fa857600091505090565b610fb181612144565b91505090565b600082815260656020526040902060010154610fd38133612353565b610fdd83836123b7565b505050565b6001600160a01b03811633146110525760405162461bcd60e51b815260206004820152602f60248201527f416363657373436f6e74726f6c3a2063616e206f6e6c792072656e6f756e636560448201526e103937b632b9903337b91039b2b63360891b60648201526084016107e0565b61105c828261243d565b5050565b306001600160a01b037f00000000000000000000000000000000000000000000000000000000000000001614156110a95760405162461bcd60e51b81526004016107e090614eec565b7f00000000000000000000000000000000000000000000000000000000000000006001600160a01b03166110db6124a4565b6001600160a01b0316146111015760405162461bcd60e51b81526004016107e090614f38565b61110a816124d2565b60408051600080825260208201909252611126918391906124fd565b50565b611134600033611559565b6111505760405162461bcd60e51b81526004016107e090614fd2565b6001600160a01b0389166111765760405162461bcd60e51b81526004016107e090615037565b6001600160a01b03881661119c5760405162461bcd60e51b81526004016107e090615037565b866111e55760405162461bcd60e51b8152602060048201526019602482015278115b5c1d1e481c1bdbdb081a59081b9bdd08185b1b1bddd959603a1b60448201526064016107e0565b8561122e5760405162461bcd60e51b8152602060048201526019602482015278115b5c1d1e481c1bdbdb081a59081b9bdd08185b1b1bddd959603a1b60448201526064016107e0565b6001600160a01b0385166112545760405162461bcd60e51b81526004016107e090615037565b6001600160a01b03841661127a5760405162461bcd60e51b81526004016107e090615037565b6001600160a01b0383166112a05760405162461bcd60e51b81526004016107e090615037565b6001600160a01b0382166112c65760405162461bcd60e51b81526004016107e090615037565b806113135760405162461bcd60e51b815260206004820152601f60248201527f5a65726f20646973747269627574696f6e4964206e6f7420616c6c6f7765640060448201526064016107e0565b61012d80546001600160a01b0319166001600160a01b038b1617905561015f80546001600160a01b0319166001600160a01b038a1617905561019b80546001600160a01b038b81166001600160a01b0319928316811790935561019c8a905561019d89905561019e8054898316908416811790915561019f805489841690851681179091556101a0805489851690861681179091556101a180548986169616861790556101a287905560408051968752938e1660208701529285018c9052606085018b9052608085019190915260a084015260c083015260e082015261010081018290527fe57304172b80cf773e630304c6cd56898fb72c243a9246dc8b07d8d74b86c877906101200160405180910390a1505050505050505050565b306001600160a01b037f00000000000000000000000000000000000000000000000000000000000000001614156114795760405162461bcd60e51b81526004016107e090614eec565b7f00000000000000000000000000000000000000000000000000000000000000006001600160a01b03166114ab6124a4565b6001600160a01b0316146114d15760405162461bcd60e51b81526004016107e090614f38565b6114da826124d2565b61105c828260016124fd565b600054610100900460ff16806114ff575060005460ff16155b61151b5760405162461bcd60e51b81526004016107e090614f84565b600054610100900460ff1615801561153d576000805461ffff19166101011790555b611545612648565b8015611126576000805461ff001916905550565b60009182526065602090815260408084206001600160a01b0393909316845291905290205460ff1690565b610192546040516370a0823160e01b815230600482015260009182916001600160a01b03909116906370a082319060240160206040518083038186803b1580156115cd57600080fd5b505afa1580156115e1573d6000803e3d6000fd5b505050506040513d601f19601f8201168201806040525081019061160591906149a2565b90508061161457600091505090565b610fb1816126e4565b611628600033611559565b6116445760405162461bcd60e51b81526004016107e090614fd2565b6001600160a01b03811661166a5760405162461bcd60e51b81526004016107e090615037565b60fb5461168f906000805160206154bb833981519152906001600160a01b03166117b1565b6116a76000805160206154bb83398151915282610fb7565b60fb80546001600160a01b0319166001600160a01b0383169081179091556040519081527ff7b449fcd5cfb7379dcd34cb69428dd9f882033b15be33d83b42d91daa28eeb79060200160405180910390a150565b6117136000805160206154bb83398151915233611559565b61172f5760405162461bcd60e51b81526004016107e090614eb5565b6040516370a0823160e01b815230600482015261105c9083906001600160a01b038216906370a082319060240160206040518083038186803b15801561177457600080fd5b505afa158015611788573d6000803e3d6000fd5b505050506040513d601f19601f820116820180604052508101906117ac91906149a2565b6128ee565b6000828152606560205260409020600101546117cd8133612353565b610fdd838361243d565b6118036040518060400160405280600b81526020016a537461727420636c61696d60a81b8152506120bc565b6000861561181957806118158161541f565b9150505b851561182d57806118298161541f565b9150505b8415611841578061183d8161541f565b9150505b60008160ff1667ffffffffffffffff81111561185f5761185f615481565b6040519080825280602002602001820160405280156118cb57816020015b6118b86040518060a00160405280600081526020016000815260200160006001600160a01b0316815260200160008152602001606081525090565b81526020019060019003908161187d5790505b50905060008260ff1667ffffffffffffffff8111156118ec576118ec615481565b604051908082528060200260200182016040528015611915578160200160208202803683370190505b509050600089156119fb576040805160a0810182526101a2548152602081018c905261019f546001600160a01b03169181019190915260ff8216606082018190526080820189905284518291869181106119715761197161546b565b60209081029190910101526101935483516001600160a01b0390911690849060ff85169081106119a3576119a361546b565b6001600160a01b0390921660209283029190910190910152816119c58161541f565b9250506119f96040518060400160405280600c81526020016b636c61696d42616c3a20257360a01b8152508360ff16612c7f565b505b8815611adf576040805160a0810182526101a2548152602081018b90526101a0546001600160a01b03169181019190915260ff821660608201819052608082018890528451829186918110611a5257611a5261546b565b60209081029190910101526101945483516001600160a01b0390911690849060ff8516908110611a8457611a8461546b565b6001600160a01b039092166020928302919091019091015281611aa68161541f565b925050611add6040518060400160405280600f81526020016e636c61696d574d617469633a20257360881b8152508360ff16612c7f565b505b8715611bbc576040805160a0810182526101a2548152602081018a90526101a1546001600160a01b03169181019190915260ff821660608201819052608082018790528451829186918110611b3657611b3661546b565b60209081029190910101526101955483516001600160a01b0390911690849060ff8516908110611b6857611b6861546b565b60200260200101906001600160a01b031690816001600160a01b031681525050611bba6040518060400160405280600d81526020016c636c61696d545573643a20257360981b8152508360ff16612c7f565b505b61019e5460405162ad8c0560e61b81526001600160a01b0390911690632b63014090611bf090309087908790600401614d21565b600060405180830381600087803b158015611c0a57600080fd5b505af1158015611c1e573d6000803e3d6000fd5b5050610193546040516370a0823160e01b8152306004820152600093506001600160a01b0390911691506370a082319060240160206040518083038186803b158015611c6957600080fd5b505afa158015611c7d573d6000803e3d6000fd5b505050506040513d601f19601f82011682018060405250810190611ca191906149a2565b9050611cd36040518060400160405280600e81526020016d62616c616e636542616c3a20257360901b81525082612c7f565b610194546040516370a0823160e01b81523060048201526000916001600160a01b0316906370a082319060240160206040518083038186803b158015611d1857600080fd5b505afa158015611d2c573d6000803e3d6000fd5b505050506040513d601f19601f82011682018060405250810190611d5091906149a2565b9050611d856040518060400160405280601181526020017062616c616e6365574d617469633a20257360781b81525082612c7f565b610195546040516370a0823160e01b81523060048201526000916001600160a01b0316906370a082319060240160206040518083038186803b158015611dca57600080fd5b505afa158015611dde573d6000803e3d6000fd5b505050506040513d601f19601f82011682018060405250810190611e0291906149a2565b9050611e356040518060400160405280600f81526020016e62616c616e6365545573643a20257360881b81525082612c7f565b611e626040518060400160405280600c81526020016b46696e69736820636c61696d60a01b8152506120bc565b50505050505050505050505050565b6000611e8b6000805160206154bb83398151915233611559565b611ea75760405162461bcd60e51b81526004016107e090614eb5565b6000611eb283612cc4565b90507f3ac0594a85a20354f9dc74f33728416d19ce00d04a406c108cc2dcf2cecea13481604051611ee591815260200190565b60405180910390a192915050565b6000611f0d6000805160206154bb83398151915233611559565b611f295760405162461bcd60e51b81526004016107e090614eb5565b60008215611f4257611f3b8685613018565b9050611fb1565b611f4d8686866133eb565b905084811015611fb15760405162461bcd60e51b815260206004820152602960248201527f52657475726e65642076616c7565206c657373207468616e2072657175657374604482015268195908185b5bdd5b9d60ba1b60648201526084016107e0565b6040516370a0823160e01b81523060048201526000906001600160a01b038816906370a082319060240160206040518083038186803b158015611ff357600080fd5b505afa158015612007573d6000803e3d6000fd5b505050506040513d601f19601f8201168201806040525081019061202b91906149a2565b60405163a9059cbb60e01b81526001600160a01b038781166004830152602482018390529192509088169063a9059cbb90604401602060405180830381600087803b15801561207957600080fd5b505af115801561208d573d6000803e3d6000fd5b505050506040513d601f19601f820116820180604052508101906120b1919061491d565b509695505050505050565b611126816040516024016120d09190614e5c565b60408051601f198184030181529190526020810180516001600160e01b031663104c13eb60e21b179052613756565b61105c8282604051602401612115929190614e6f565b60408051601f198184030181529190526020810180516001600160e01b031663c3b5563560e01b179052613756565b60008061019260009054906101000a90046001600160a01b03166001600160a01b03166318160ddd6040518163ffffffff1660e01b815260040160206040518083038186803b15801561219657600080fd5b505afa1580156121aa573d6000803e3d6000fd5b505050506040513d601f19601f820116820180604052508101906121ce91906149a2565b61019b5461019c54604051631f29a8cd60e31b815260048101919091529192506000918291829182916001600160a01b03169063f94d46689060240160006040518083038186803b15801561222257600080fd5b505afa158015612236573d6000803e3d6000fd5b505050506040513d6000823e601f3d908101601f1916820160405261225e919081019061480b565b92509250925060005b835181101561234757600086898584815181106122865761228661546b565b6020026020010151612298919061539e565b6122a2919061528e565b6101915486519192506001600160a01b0316908690849081106122c7576122c761546b565b60200260200101516001600160a01b0316146123275761231661019c5460008785815181106122f8576122f861546b565b6020908102919091010151610191546001600160a01b031685613777565b6123209087615276565b9550612334565b6123318187615276565b95505b508061233f81615404565b915050612267565b50929695505050505050565b61235d8282611559565b61105c57612375816001600160a01b03166014613b94565b612380836020613b94565b604051602001612391929190614cac565b60408051601f198184030181529082905262461bcd60e51b82526107e091600401614e5c565b6123c18282611559565b61105c5760008281526065602090815260408083206001600160a01b03851684529091529020805460ff191660011790556123f93390565b6001600160a01b0316816001600160a01b0316837f2f8788117e7eff1d82e926ec794901d17c78024a50270940304540a733656f0d60405160405180910390a45050565b6124478282611559565b1561105c5760008281526065602090815260408083206001600160a01b0385168085529252808320805460ff1916905551339285917ff6391f5c32d9c69d2a47ea670b442974b53935d1edc7fd64eb21e047a839171b9190a45050565b7f360894a13ba1a3210667c828492db98dca3e2076cc3735a920a3ca505d382bbc546001600160a01b031690565b7f189ab7a9244df0848122154315af71fe140f3db0fe014031783b0946b8c9d2e361105c8133612353565b60006125076124a4565b905061251284613d30565b60008351118061251f5750815b156125305761252e8484613dd5565b505b7f4910fdfa16fed3260ed0e7147f7cc6da11a60208b5b9406d12a635614ffd9143805460ff1661264157805460ff191660011781556040516001600160a01b03831660248201526125af90869060440160408051601f198184030181529190526020810180516001600160e01b0316631b2ce7f360e11b179052613dd5565b50805460ff191681556125c06124a4565b6001600160a01b0316826001600160a01b0316146126385760405162461bcd60e51b815260206004820152602f60248201527f45524331393637557067726164653a207570677261646520627265616b73206660448201526e75727468657220757067726164657360881b60648201526084016107e0565b61264185613eb7565b5050505050565b600054610100900460ff1680612661575060005460ff16155b61267d5760405162461bcd60e51b81526004016107e090614f84565b600054610100900460ff1615801561269f576000805461ffff19166101011790555b6126a7613ef7565b6126af613f66565b6126ba6000336123b7565b6115457f189ab7a9244df0848122154315af71fe140f3db0fe014031783b0946b8c9d2e3336123b7565b60008061019260009054906101000a90046001600160a01b03166001600160a01b03166318160ddd6040518163ffffffff1660e01b815260040160206040518083038186803b15801561273657600080fd5b505afa15801561274a573d6000803e3d6000fd5b505050506040513d601f19601f8201168201806040525081019061276e91906149a2565b61019b5461019c54604051631f29a8cd60e31b815260048101919091529192506000918291829182916001600160a01b03169063f94d46689060240160006040518083038186803b1580156127c257600080fd5b505afa1580156127d6573d6000803e3d6000fd5b505050506040513d6000823e601f3d908101601f191682016040526127fe919081019061480b565b92509250925060005b835181101561234757600086898584815181106128265761282661546b565b6020026020010151612838919061539e565b612842919061528e565b6101915486519192506001600160a01b0316908690849081106128675761286761546b565b60200260200101516001600160a01b0316146128ce576128bd61019c54600161019160009054906101000a90046001600160a01b03168886815181106128af576128af61546b565b602002602001015185613777565b6128c79087615276565b95506128db565b6128d88187615276565b95505b50806128e681615404565b915050612807565b610191546001600160a01b0383811691161461291c5760405162461bcd60e51b81526004016107e090615000565b6101915461019b5460405163095ea7b360e01b81526001600160a01b0391821660048201526024810184905291169063095ea7b390604401602060405180830381600087803b15801561296e57600080fd5b505af1158015612982573d6000803e3d6000fd5b505050506040513d601f19601f820116820180604052508101906129a6919061491d565b5061019b5461019c54604051631f29a8cd60e31b81526004810191909152600091829182916001600160a01b03169063f94d46689060240160006040518083038186803b1580156129f657600080fd5b505afa158015612a0a573d6000803e3d6000fd5b505050506040513d6000823e601f3d908101601f19168201604052612a32919081019061480b565b60408051600480825260a0820190925293965091945092506000919060208201608080368337505060408051600480825260a08201909252929350600092915060208201608080368337505060408051600480825260a0820190925292935060009291506020820160808036833701905050905060005b8651811015612bbc57868181518110612ac457612ac461546b565b6020026020010151848281518110612ade57612ade61546b565b6001600160a01b039283166020918202929092010152610191548851911690889083908110612b0f57612b0f61546b565b60200260200101516001600160a01b03161415612b695787838281518110612b3957612b3961546b565b60200260200101818152505087828281518110612b5857612b5861546b565b602002602001018181525050612baa565b6000838281518110612b7d57612b7d61546b565b6020026020010181815250506000828281518110612b9d57612b9d61546b565b6020026020010181815250505b80612bb481615404565b915050612aa9565b50600060019050600080828483604051602001612bdb93929190615187565b60408051601f19818403018152608083018252888352602083018890528282018190526000606084015261019b5461019c54925163172b958560e31b81529194506001600160a01b03169163b95cac2891612c3f9190309081908790600401614ddc565b600060405180830381600087803b158015612c5957600080fd5b505af1158015612c6d573d6000803e3d6000fd5b50505050505050505050505050505050565b61105c8282604051602401612c95929190614e93565b60408051601f198184030181529190526020810180516001600160e01b03166309710a9d60e41b179052613756565b610193546040516370a0823160e01b8152306004820152600091829182916001600160a01b0316906370a082319060240160206040518083038186803b158015612d0d57600080fd5b505afa158015612d21573d6000803e3d6000fd5b505050506040513d601f19601f82011682018060405250810190612d4591906149a2565b90508015612d895761019d546101935461019154600092612d7992909184916001600160a01b039081169116308088613fc4565b9050612d858184615276565b9250505b610194546040516370a0823160e01b81523060048201526000916001600160a01b0316906370a082319060240160206040518083038186803b158015612dce57600080fd5b505afa158015612de2573d6000803e3d6000fd5b505050506040513d601f19601f82011682018060405250810190612e0691906149a2565b90508015612e4857610194546101915461019954600092612e38926001600160a01b039182169291169030808761423e565b9050612e448185615276565b9350505b610195546040516370a0823160e01b81523060048201526000916001600160a01b0316906370a082319060240160206040518083038186803b158015612e8d57600080fd5b505afa158015612ea1573d6000803e3d6000fd5b505050506040513d601f19601f82011682018060405250810190612ec591906149a2565b90508015612f095761019c546101955461019154600092612ef992909184916001600160a01b039081169116308088613fc4565b9050612f058186615276565b9450505b610191546040516370a0823160e01b81523060048201526001600160a01b039091169063a9059cbb90889083906370a082319060240160206040518083038186803b158015612f5757600080fd5b505afa158015612f6b573d6000803e3d6000fd5b505050506040513d601f19601f82011682018060405250810190612f8f91906149a2565b6040516001600160e01b031960e085901b1681526001600160a01b0390921660048301526024820152604401602060405180830381600087803b158015612fd557600080fd5b505af1158015612fe9573d6000803e3d6000fd5b505050506040513d601f19601f8201168201806040525081019061300d919061491d565b509295945050505050565b610191546000906001600160a01b038481169116146130495760405162461bcd60e51b81526004016107e090615000565b610192546040516370a0823160e01b81523060048201526000916001600160a01b0316906370a082319060240160206040518083038186803b15801561308e57600080fd5b505afa1580156130a2573d6000803e3d6000fd5b505050506040513d601f19601f820116820180604052508101906130c691906149a2565b905060006130d382612144565b61019b5461019c54604051631f29a8cd60e31b8152929350600092839283926001600160a01b039091169163f94d4668916131149160040190815260200190565b60006040518083038186803b15801561312c57600080fd5b505afa158015613140573d6000803e3d6000fd5b505050506040513d6000823e601f3d908101601f19168201604052613168919081019061480b565b60408051600480825260a0820190925293965091945092506000919060208201608080368337505060408051600480825260a0820190925292935060009291506020820160808036833701905050905060005b85518110156132a5578581815181106131d6576131d661546b565b60200260200101518382815181106131f0576131f061546b565b6001600160a01b0392831660209182029290920101526101915487519116908790839081106132215761322161546b565b60200260200101516001600160a01b0316141561327257606461324588606361539e565b61324f919061528e565b8282815181106132615761326161546b565b602002602001018181525050613293565b60008282815181106132865761328661546b565b6020026020010181815250505b8061329d81615404565b9150506131bb565b5060408051600060208201819052918101899052606081018290528190819060800160408051601f19818403018152608083018252878352602083018790528282018190526000606084015261019b5461019c549251638bdb391360e01b81529194506001600160a01b031691638bdb39139161332b9190309081908790600401614ddc565b600060405180830381600087803b15801561334557600080fd5b505af1158015613359573d6000803e3d6000fd5b5050610191546040516370a0823160e01b81523060048201526001600160a01b0390911692506370a08231915060240160206040518083038186803b1580156133a157600080fd5b505afa1580156133b5573d6000803e3d6000fd5b505050506040513d601f19601f820116820180604052508101906133d991906149a2565b9e9d5050505050505050505050505050565b610191546000906001600160a01b0385811691161461341c5760405162461bcd60e51b81526004016107e090615000565b61019b5461019c54604051631f29a8cd60e31b81526004810191909152600091829182916001600160a01b03169063f94d46689060240160006040518083038186803b15801561346b57600080fd5b505afa15801561347f573d6000803e3d6000fd5b505050506040513d6000823e601f3d908101601f191682016040526134a7919081019061480b565b60408051600480825260a0820190925293965091945092506000919060208201608080368337505060408051600480825260a0820190925292935060009291506020820160808036833701905050905060005b85518110156135e4578581815181106135155761351561546b565b602002602001015183828151811061352f5761352f61546b565b6001600160a01b0392831660209182029290920101526101915487519116908790839081106135605761356061546b565b60200260200101516001600160a01b031614156135b15760646135848a606361539e565b61358e919061528e565b8282815181106135a0576135a061546b565b6020026020010181815250506135d2565b60008282815181106135c5576135c561546b565b6020026020010181815250505b806135dc81615404565b9150506134fa565b5060008060006135f661019754612144565b8b61019754613605919061539e565b61360f919061528e565b60408051602081018690529081018290526060810184905290915060009060800160408051601f19818403018152608083018252888352602083018890528282018190526000606084015261019b5461019c549251638bdb391360e01b81529194506001600160a01b031691638bdb3913916136949190309081908790600401614ddc565b600060405180830381600087803b1580156136ae57600080fd5b505af11580156136c2573d6000803e3d6000fd5b5050610191546040516370a0823160e01b81523060048201526001600160a01b0390911692506370a08231915060240160206040518083038186803b15801561370a57600080fd5b505afa15801561371e573d6000803e3d6000fd5b505050506040513d601f19601f8201168201806040525081019061374291906149a2565b9a50505050505050505050505b9392505050565b80516a636f6e736f6c652e6c6f67602083016000808483855afa5050505050565b604080516101208101825260008082526020820181905291810182905260608082018390526080820183905260a0820183905260c0820183905260e08201839052610100820152808660018111156137d1576137d1615455565b908160018111156137e4576137e4615455565b9052506001600160a01b0385811660208301528481166040808401919091526060830185905261012d549051631f29a8cd60e31b8152600481018a90526000928392839291169063f94d46689060240160006040518083038186803b15801561384c57600080fd5b505afa158015613860573d6000803e3d6000fd5b505050506040513d6000823e601f3d908101601f19168201604052613888919081019061480b565b61012d5460405163f6c0092760e01b8152600481018f9052939650919450925060009182916001600160a01b03169063f6c0092790602401604080518083038186803b1580156138d757600080fd5b505afa1580156138eb573d6000803e3d6000fd5b505050506040513d601f19601f8201168201806040525081019061390f919061474e565b9092509050600081600281111561392857613928615455565b1415613a615760008060005b87518160ff1610156139d0578c6001600160a01b0316888260ff168151811061395f5761395f61546b565b60200260200101516001600160a01b03161415613981578060ff1692506139be565b8b6001600160a01b0316888260ff16815181106139a0576139a061546b565b60200260200101516001600160a01b031614156139be578060ff1691505b806139c88161541f565b915050613934565b5060405162f64aa560e11b81526001600160a01b038516906301ec954a90613a02908b908a9087908790600401615129565b60206040518083038186803b158015613a1a57600080fd5b505afa158015613a2e573d6000803e3d6000fd5b505050506040513d601f19601f82011682018060405250810190613a5291906149a2565b98505050505050505050613b8b565b6001816002811115613a7557613a75615455565b1415613b805760008060005b87518160ff161015613b4f578c6001600160a01b0316888260ff1681518110613aac57613aac61546b565b60200260200101516001600160a01b03161415613ae757868160ff1681518110613ad857613ad861546b565b60200260200101519250613b3d565b8b6001600160a01b0316888260ff1681518110613b0657613b0661546b565b60200260200101516001600160a01b03161415613b3d57868160ff1681518110613b3257613b3261546b565b602002602001015191505b80613b478161541f565b915050613a81565b5060405163274b044360e21b81526001600160a01b03851690639d2c110c90613a02908b9086908690600401615162565b600096505050505050505b95945050505050565b60606000613ba383600261539e565b613bae906002615276565b67ffffffffffffffff811115613bc657613bc6615481565b6040519080825280601f01601f191660200182016040528015613bf0576020820181803683370190505b509050600360fc1b81600081518110613c0b57613c0b61546b565b60200101906001600160f81b031916908160001a905350600f60fb1b81600181518110613c3a57613c3a61546b565b60200101906001600160f81b031916908160001a9053506000613c5e84600261539e565b613c69906001615276565b90505b6001811115613ce1576f181899199a1a9b1b9c1cb0b131b232b360811b85600f1660108110613c9d57613c9d61546b565b1a60f81b828281518110613cb357613cb361546b565b60200101906001600160f81b031916908160001a90535060049490941c93613cda816153ed565b9050613c6c565b50831561374f5760405162461bcd60e51b815260206004820181905260248201527f537472696e67733a20686578206c656e67746820696e73756666696369656e7460448201526064016107e0565b803b613d945760405162461bcd60e51b815260206004820152602d60248201527f455243313936373a206e657720696d706c656d656e746174696f6e206973206e60448201526c1bdd08184818dbdb9d1c9858dd609a1b60648201526084016107e0565b7f360894a13ba1a3210667c828492db98dca3e2076cc3735a920a3ca505d382bbc80546001600160a01b0319166001600160a01b0392909216919091179055565b6060823b613e345760405162461bcd60e51b815260206004820152602660248201527f416464726573733a2064656c65676174652063616c6c20746f206e6f6e2d636f6044820152651b9d1c9858dd60d21b60648201526084016107e0565b600080846001600160a01b031684604051613e4f9190614c90565b600060405180830381855af49150503d8060008114613e8a576040519150601f19603f3d011682016040523d82523d6000602084013e613e8f565b606091505b5091509150613b8b82826040518060600160405280602781526020016154db60279139614402565b613ec081613d30565b6040516001600160a01b038216907fbc7cd75a20ee27fd9adebab32041f755214dbc6bffa90cc0225b39da2e5c2d3b90600090a250565b600054610100900460ff1680613f10575060005460ff16155b613f2c5760405162461bcd60e51b81526004016107e090614f84565b600054610100900460ff16158015613f4e576000805461ffff19166101011790555b613f5661443b565b613f5e61443b565b61154561443b565b600054610100900460ff1680613f7f575060005460ff16155b613f9b5760405162461bcd60e51b81526004016107e090614f84565b600054610100900460ff16158015613f56576000805461ffff1916610101179055613f5e61443b565b61012d546040516370a0823160e01b81523060048201526000916001600160a01b038881169263095ea7b392919091169083906370a082319060240160206040518083038186803b15801561401857600080fd5b505afa15801561402c573d6000803e3d6000fd5b505050506040513d601f19601f8201168201806040525081019061405091906149a2565b6040516001600160e01b031960e085901b1681526001600160a01b0390921660048301526024820152604401602060405180830381600087803b15801561409657600080fd5b505af11580156140aa573d6000803e3d6000fd5b505050506040513d601f19601f820116820180604052508101906140ce919061491d565b5061411b6040805160c0810190915260008082526020820190815260200160006001600160a01b0316815260200160006001600160a01b0316815260200160008152602001606081525090565b8881526020810188600181111561413457614134615455565b9081600181111561414757614147615455565b9052506001600160a01b038781166040838101919091528782166060808501919091526080808501879052825190810183526000602082018190529181019190915287831681528683169181019190915261012d549091166352bbbe2983836b033b2e3c9fd0803ce80000006141bf42610258615276565b6040518563ffffffff1660e01b81526004016141de949392919061506e565b602060405180830381600087803b1580156141f857600080fd5b505af115801561420c573d6000803e3d6000fd5b505050506040513d601f19601f8201168201806040525081019061423091906149a2565b9a9950505050505050505050565b61015f5460405163095ea7b360e01b81526001600160a01b0391821660048201526024810183905260009182919089169063095ea7b390604401602060405180830381600087803b15801561429257600080fd5b505af11580156142a6573d6000803e3d6000fd5b505050506040513d601f19601f820116820180604052508101906142ca919061491d565b5060408051600280825260608201835260009260208301908036833701905050905088816000815181106143005761430061546b565b60200260200101906001600160a01b031690816001600160a01b03168152505087816001815181106143345761433461546b565b6001600160a01b03928316602091820292909201015261015f54166338ed17398584848961436442610258615276565b6040518663ffffffff1660e01b81526004016143849594939291906151b0565b600060405180830381600087803b15801561439e57600080fd5b505af11580156143b2573d6000803e3d6000fd5b505050506040513d6000823e601f3d908101601f191682016040526143da91908101906148e0565b6001815181106143ec576143ec61546b565b6020026020010151925050509695505050505050565b6060831561441157508161374f565b8251156144215782518084602001fd5b8160405162461bcd60e51b81526004016107e09190614e5c565b600054610100900460ff1680614454575060005460ff16155b6144705760405162461bcd60e51b81526004016107e090614f84565b600054610100900460ff16158015611545576000805461ffff19166101011790558015611126576000805461ff001916905550565b600082601f8301126144b657600080fd5b813560206144cb6144c683615252565b615221565b80838252828201915082860187848660051b89010111156144eb57600080fd5b60005b8581101561450a578135845292840192908401906001016144ee565b5090979650505050505050565b600082601f83011261452857600080fd5b815160206145386144c683615252565b80838252828201915082860187848660051b890101111561455857600080fd5b60005b8581101561450a5781518452928401929084019060010161455b565b60006020828403121561458957600080fd5b813561374f81615497565b600080600080600060a086880312156145ac57600080fd5b85356145b781615497565b945060208601356145c781615497565b935060408601356145d781615497565b925060608601356145e781615497565b915060808601356145f781615497565b809150509295509295909350565b60008060008060008060008060006101208a8c03121561462457600080fd5b893561462f81615497565b985060208a013561463f81615497565b975060408a0135965060608a0135955060808a013561465d81615497565b945060a08a013561466d81615497565b935060c08a013561467d81615497565b925060e08a013561468d81615497565b809250506101008a013590509295985092959850929598565b600080604083850312156146b957600080fd5b82356146c481615497565b915060208381013567ffffffffffffffff808211156146e257600080fd5b818601915086601f8301126146f657600080fd5b81358181111561470857614708615481565b61471a601f8201601f19168501615221565b9150808252878482850101111561473057600080fd5b80848401858401376000848284010152508093505050509250929050565b6000806040838503121561476157600080fd5b825161476c81615497565b60208401519092506003811061478157600080fd5b809150509250929050565b6000806040838503121561479f57600080fd5b82356147aa81615497565b946020939093013593505050565b600080600080608085870312156147ce57600080fd5b84356147d981615497565b93506020850135925060408501356147f081615497565b91506060850135614800816154ac565b939692955090935050565b60008060006060848603121561482057600080fd5b835167ffffffffffffffff8082111561483857600080fd5b818601915086601f83011261484c57600080fd5b8151602061485c6144c683615252565b8083825282820191508286018b848660051b890101111561487c57600080fd5b600096505b848710156148a857805161489481615497565b835260019690960195918301918301614881565b50918901519197509093505050808211156148c257600080fd5b506148cf86828701614517565b925050604084015190509250925092565b6000602082840312156148f257600080fd5b815167ffffffffffffffff81111561490957600080fd5b61491584828501614517565b949350505050565b60006020828403121561492f57600080fd5b815161374f816154ac565b60006020828403121561494c57600080fd5b5035919050565b6000806040838503121561496657600080fd5b82359150602083013561478181615497565b60006020828403121561498a57600080fd5b81356001600160e01b03198116811461374f57600080fd5b6000602082840312156149b457600080fd5b5051919050565b60008060008060008060c087890312156149d457600080fd5b863595506020870135945060408701359350606087013567ffffffffffffffff80821115614a0157600080fd5b614a0d8a838b016144a5565b94506080890135915080821115614a2357600080fd5b614a2f8a838b016144a5565b935060a0890135915080821115614a4557600080fd5b50614a5289828a016144a5565b9150509295509295509295565b600060208284031215614a7157600080fd5b815160ff8116811461374f57600080fd5b600081518084526020808501945080840160005b83811015614ab257815187529582019590820190600101614a96565b509495945050505050565b600081518084526020808501945080840160005b83811015614ab25781516001600160a01b031687529582019590820190600101614ad1565b60008151808452614b0e8160208601602086016153bd565b601f01601f19169290920160200192915050565b60028110614b4057634e487b7160e01b600052602160045260246000fd5b9052565b8051608080845281519084018190526000916020919082019060a0860190845b81811015614b895783516001600160a01b031683529284019291840191600101614b64565b505082850151915085810383870152614ba28183614a82565b9250505060408301518482036040860152614bbd8282614af6565b9150506060830151614bd3606086018215159052565b509392505050565b6000610120614beb848451614b22565b6020838101516001600160a01b03169085015260408084015190614c19908601826001600160a01b03169052565b50606083015160608501526080830151608085015260a083015160a085015260c0830151614c5260c08601826001600160a01b03169052565b5060e0830151614c6d60e08601826001600160a01b03169052565b50610100808401518282870152614c8683870182614af6565b9695505050505050565b60008251614ca28184602087016153bd565b9190910192915050565b7f416363657373436f6e74726f6c3a206163636f756e7420000000000000000000815260008351614ce48160178501602088016153bd565b7001034b99036b4b9b9b4b733903937b6329607d1b6017918401918201528351614d158160288401602088016153bd565b01602801949350505050565b6001600160a01b038481168252606060208084018290528551848301819052600093608092909183870190600581901b880185018a8401885b83811015614db8578a8303607f190185528151805184528681015187850152604080820151891690850152898101518a85015288015160a0898501819052614da481860183614a82565b968801969450505090850190600101614d5a565b505088810360408a0152614dcc818b614abd565b9c9b505050505050505050505050565b8481526001600160a01b03848116602083015283166040820152608060608201819052600090614c8690830184614b44565b6001600160a01b038781168252868116602083015260408201869052841660608201526080810183905260c060a08201819052600090614e5090830184614a82565b98975050505050505050565b60208152600061374f6020830184614af6565b604081526000614e826040830185614af6565b905082151560208301529392505050565b604081526000614ea66040830185614af6565b90508260208301529392505050565b6020808252601f908201527f5265737472696374656420746f20504f5254464f4c494f5f4d414e4147455200604082015260600190565b6020808252602c908201527f46756e6374696f6e206d7573742062652063616c6c6564207468726f7567682060408201526b19195b1959d85d1958d85b1b60a21b606082015260800190565b6020808252602c908201527f46756e6374696f6e206d7573742062652063616c6c6564207468726f7567682060408201526b6163746976652070726f787960a01b606082015260800190565b6020808252602e908201527f496e697469616c697a61626c653a20636f6e747261637420697320616c72656160408201526d191e481a5b9a5d1a585b1a5e995960921b606082015260800190565b6020808252601490820152735265737472696374656420746f2061646d696e7360601b604082015260600190565b60208082526019908201527f536f6d6520746f6b656e206e6f7420636f6d70617469626c6500000000000000604082015260600190565b60208082526018908201527f5a65726f2061646472657373206e6f7420616c6c6f7765640000000000000000604082015260600190565b60e08152845160e08201526000602086015161508e610100840182614b22565b5060408601516001600160a01b03908116610120840152606087015116610140830152608086015161016083015260a086015160c06101808401526150d76101a0840182614af6565b915050615117602083018680516001600160a01b039081168352602080830151151590840152604080830151909116908301526060908101511515910152565b60a082019390935260c0015292915050565b60808152600061513c6080830187614bdb565b828103602084015261514e8187614a82565b604084019590955250506060015292915050565b6060815260006151756060830186614bdb565b60208301949094525060400152919050565b8381526060602082015260006151a06060830185614a82565b9050826040830152949350505050565b600060a082018783526020878185015260a0604085015281875180845260c086019150828901935060005b818110156152005784516001600160a01b0316835293830193918301916001016151db565b50506001600160a01b03969096166060850152505050608001529392505050565b604051601f8201601f1916810167ffffffffffffffff8111828210171561524a5761524a615481565b604052919050565b600067ffffffffffffffff82111561526c5761526c615481565b5060051b60200190565b600082198211156152895761528961543f565b500190565b6000826152ab57634e487b7160e01b600052601260045260246000fd5b500490565b600181815b808511156152eb5781600019048211156152d1576152d161543f565b808516156152de57918102915b93841c93908002906152b5565b509250929050565b600061374f60ff84168360008261530c575060016107b3565b81615319575060006107b3565b816001811461532f576002811461533957615355565b60019150506107b3565b60ff84111561534a5761534a61543f565b50506001821b6107b3565b5060208310610133831016604e8410600b8410161715615378575081810a6107b3565b61538283836152b0565b80600019048211156153965761539661543f565b029392505050565b60008160001904831182151516156153b8576153b861543f565b500290565b60005b838110156153d85781810151838201526020016153c0565b838111156153e7576000848401525b50505050565b6000816153fc576153fc61543f565b506000190190565b60006000198214156154185761541861543f565b5060010190565b600060ff821660ff8114156154365761543661543f565b60010192915050565b634e487b7160e01b600052601160045260246000fd5b634e487b7160e01b600052602160045260246000fd5b634e487b7160e01b600052603260045260246000fd5b634e487b7160e01b600052604160045260246000fd5b6001600160a01b038116811461112657600080fd5b801515811461112657600080fdfe90c2aa7471c04182221f68e80c07ab1e5946e4c63f8693e14ca40385d529f051416464726573733a206c6f772d6c6576656c2064656c65676174652063616c6c206661696c6564a26469706673582212208a3cee8d925d2dbea7c30a751537814b99759c4f183ba47affae3b6cf8dbae3c64736f6c63430008060033",
  "devdoc": {
    "kind": "dev",
    "methods": {
      "constructor": {
        "custom:oz-upgrades-unsafe-allow": "constructor"
      },
      "getRoleAdmin(bytes32)": {
        "details": "Returns the admin role that controls `role`. See {grantRole} and {revokeRole}. To change a role's admin, use {_setRoleAdmin}."
      },
      "grantRole(bytes32,address)": {
        "details": "Grants `role` to `account`. If `account` had not been already granted `role`, emits a {RoleGranted} event. Requirements: - the caller must have ``role``'s admin role."
      },
      "hasRole(bytes32,address)": {
        "details": "Returns `true` if `account` has been granted `role`."
      },
      "renounceRole(bytes32,address)": {
        "details": "Revokes `role` from the calling account. Roles are often managed via {grantRole} and {revokeRole}: this function's purpose is to provide a mechanism for accounts to lose their privileges if they are compromised (such as when a trusted device is misplaced). If the calling account had been revoked `role`, emits a {RoleRevoked} event. Requirements: - the caller must be `account`."
      },
      "revokeRole(bytes32,address)": {
        "details": "Revokes `role` from `account`. If `account` had been granted `role`, emits a {RoleRevoked} event. Requirements: - the caller must have ``role``'s admin role."
      },
      "supportsInterface(bytes4)": {
        "details": "See {IERC165-supportsInterface}."
      },
      "upgradeTo(address)": {
        "details": "Upgrade the implementation of the proxy to `newImplementation`. Calls {_authorizeUpgrade}. Emits an {Upgraded} event."
      },
      "upgradeToAndCall(address,bytes)": {
        "details": "Upgrade the implementation of the proxy to `newImplementation`, and subsequently execute the function call encoded in `data`. Calls {_authorizeUpgrade}. Emits an {Upgraded} event."
      }
    },
    "version": 1
  },
  "userdoc": {
    "kind": "user",
    "methods": {},
    "version": 1
  },
  "storageLayout": {
    "storage": [
      {
        "astId": 823,
        "contract": "contracts/strategies/StrategyBalancer.sol:StrategyBalancer",
        "label": "_initialized",
        "offset": 0,
        "slot": "0",
        "type": "t_bool"
      },
      {
        "astId": 826,
        "contract": "contracts/strategies/StrategyBalancer.sol:StrategyBalancer",
        "label": "_initializing",
        "offset": 1,
        "slot": "0",
        "type": "t_bool"
      },
      {
        "astId": 2943,
        "contract": "contracts/strategies/StrategyBalancer.sol:StrategyBalancer",
        "label": "__gap",
        "offset": 0,
        "slot": "1",
        "type": "t_array(t_uint256)50_storage"
      },
      {
        "astId": 3865,
        "contract": "contracts/strategies/StrategyBalancer.sol:StrategyBalancer",
        "label": "__gap",
        "offset": 0,
        "slot": "51",
        "type": "t_array(t_uint256)50_storage"
      },
      {
        "astId": 48,
        "contract": "contracts/strategies/StrategyBalancer.sol:StrategyBalancer",
        "label": "_roles",
        "offset": 0,
        "slot": "101",
        "type": "t_mapping(t_bytes32,t_struct(RoleData)43_storage)"
      },
      {
        "astId": 335,
        "contract": "contracts/strategies/StrategyBalancer.sol:StrategyBalancer",
        "label": "__gap",
        "offset": 0,
        "slot": "102",
        "type": "t_array(t_uint256)49_storage"
      },
      {
        "astId": 806,
        "contract": "contracts/strategies/StrategyBalancer.sol:StrategyBalancer",
        "label": "__gap",
        "offset": 0,
        "slot": "151",
        "type": "t_array(t_uint256)50_storage"
      },
      {
        "astId": 973,
        "contract": "contracts/strategies/StrategyBalancer.sol:StrategyBalancer",
        "label": "__gap",
        "offset": 0,
        "slot": "201",
        "type": "t_array(t_uint256)50_storage"
      },
      {
        "astId": 22118,
        "contract": "contracts/strategies/StrategyBalancer.sol:StrategyBalancer",
        "label": "portfolioManager",
        "offset": 0,
        "slot": "251",
        "type": "t_address"
      },
      {
        "astId": 22387,
        "contract": "contracts/strategies/StrategyBalancer.sol:StrategyBalancer",
        "label": "__gap",
        "offset": 0,
        "slot": "252",
        "type": "t_array(t_uint256)49_storage"
      },
      {
        "astId": 15669,
        "contract": "contracts/strategies/StrategyBalancer.sol:StrategyBalancer",
        "label": "balancerVault",
        "offset": 0,
        "slot": "301",
        "type": "t_contract(IVault)18338"
      },
      {
        "astId": 16247,
        "contract": "contracts/strategies/StrategyBalancer.sol:StrategyBalancer",
        "label": "__gap",
        "offset": 0,
        "slot": "302",
        "type": "t_array(t_uint256)49_storage"
      },
      {
        "astId": 16255,
        "contract": "contracts/strategies/StrategyBalancer.sol:StrategyBalancer",
        "label": "uniswapRouter",
        "offset": 0,
        "slot": "351",
        "type": "t_contract(IUniswapV2Router02)19972"
      },
      {
        "astId": 16391,
        "contract": "contracts/strategies/StrategyBalancer.sol:StrategyBalancer",
        "label": "__gap",
        "offset": 0,
        "slot": "352",
        "type": "t_array(t_uint256)49_storage"
      },
      {
        "astId": 22738,
        "contract": "contracts/strategies/StrategyBalancer.sol:StrategyBalancer",
        "label": "usdcToken",
        "offset": 0,
        "slot": "401",
        "type": "t_contract(IERC20)8922"
      },
      {
        "astId": 22741,
        "contract": "contracts/strategies/StrategyBalancer.sol:StrategyBalancer",
        "label": "bpspTUsdToken",
        "offset": 0,
        "slot": "402",
        "type": "t_contract(IERC20)8922"
      },
      {
        "astId": 22744,
        "contract": "contracts/strategies/StrategyBalancer.sol:StrategyBalancer",
        "label": "balToken",
        "offset": 0,
        "slot": "403",
        "type": "t_contract(IERC20)8922"
      },
      {
        "astId": 22747,
        "contract": "contracts/strategies/StrategyBalancer.sol:StrategyBalancer",
        "label": "wmaticToken",
        "offset": 0,
        "slot": "404",
        "type": "t_contract(IERC20)8922"
      },
      {
        "astId": 22750,
        "contract": "contracts/strategies/StrategyBalancer.sol:StrategyBalancer",
        "label": "tusdToken",
        "offset": 0,
        "slot": "405",
        "type": "t_contract(IERC20)8922"
      },
      {
        "astId": 22752,
        "contract": "contracts/strategies/StrategyBalancer.sol:StrategyBalancer",
        "label": "usdcTokenDenominator",
        "offset": 0,
        "slot": "406",
        "type": "t_uint256"
      },
      {
        "astId": 22754,
        "contract": "contracts/strategies/StrategyBalancer.sol:StrategyBalancer",
        "label": "bpspTUsdTokenDenominator",
        "offset": 0,
        "slot": "407",
        "type": "t_uint256"
      },
      {
        "astId": 22756,
        "contract": "contracts/strategies/StrategyBalancer.sol:StrategyBalancer",
        "label": "balTokenDenominator",
        "offset": 0,
        "slot": "408",
        "type": "t_uint256"
      },
      {
        "astId": 22758,
        "contract": "contracts/strategies/StrategyBalancer.sol:StrategyBalancer",
        "label": "wmaticTokenDenominator",
        "offset": 0,
        "slot": "409",
        "type": "t_uint256"
      },
      {
        "astId": 22760,
        "contract": "contracts/strategies/StrategyBalancer.sol:StrategyBalancer",
        "label": "tusdTokenDenominator",
        "offset": 0,
        "slot": "410",
        "type": "t_uint256"
      },
      {
        "astId": 22763,
        "contract": "contracts/strategies/StrategyBalancer.sol:StrategyBalancer",
        "label": "balancerVault",
        "offset": 0,
        "slot": "411",
        "type": "t_contract(IVault)18338"
      },
      {
        "astId": 22765,
        "contract": "contracts/strategies/StrategyBalancer.sol:StrategyBalancer",
        "label": "balancerPoolId1",
        "offset": 0,
        "slot": "412",
        "type": "t_bytes32"
      },
      {
        "astId": 22767,
        "contract": "contracts/strategies/StrategyBalancer.sol:StrategyBalancer",
        "label": "balancerPoolId2",
        "offset": 0,
        "slot": "413",
        "type": "t_bytes32"
      },
      {
        "astId": 22770,
        "contract": "contracts/strategies/StrategyBalancer.sol:StrategyBalancer",
        "label": "merkleOrchard",
        "offset": 0,
        "slot": "414",
        "type": "t_contract(MerkleOrchard)17897"
      },
      {
        "astId": 22772,
        "contract": "contracts/strategies/StrategyBalancer.sol:StrategyBalancer",
        "label": "distributorBal",
        "offset": 0,
        "slot": "415",
        "type": "t_address"
      },
      {
        "astId": 22774,
        "contract": "contracts/strategies/StrategyBalancer.sol:StrategyBalancer",
        "label": "distributorWMatic",
        "offset": 0,
        "slot": "416",
        "type": "t_address"
      },
      {
        "astId": 22776,
        "contract": "contracts/strategies/StrategyBalancer.sol:StrategyBalancer",
        "label": "distributorTUsd",
        "offset": 0,
        "slot": "417",
        "type": "t_address"
      },
      {
        "astId": 22778,
        "contract": "contracts/strategies/StrategyBalancer.sol:StrategyBalancer",
        "label": "distributionId",
        "offset": 0,
        "slot": "418",
        "type": "t_uint256"
      }
    ],
    "types": {
      "t_address": {
        "encoding": "inplace",
        "label": "address",
        "numberOfBytes": "20"
      },
      "t_array(t_uint256)49_storage": {
        "base": "t_uint256",
        "encoding": "inplace",
        "label": "uint256[49]",
        "numberOfBytes": "1568"
      },
      "t_array(t_uint256)50_storage": {
        "base": "t_uint256",
        "encoding": "inplace",
        "label": "uint256[50]",
        "numberOfBytes": "1600"
      },
      "t_bool": {
        "encoding": "inplace",
        "label": "bool",
        "numberOfBytes": "1"
      },
      "t_bytes32": {
        "encoding": "inplace",
        "label": "bytes32",
        "numberOfBytes": "32"
      },
      "t_contract(IERC20)8922": {
        "encoding": "inplace",
        "label": "contract IERC20",
        "numberOfBytes": "20"
      },
      "t_contract(IUniswapV2Router02)19972": {
        "encoding": "inplace",
        "label": "contract IUniswapV2Router02",
        "numberOfBytes": "20"
      },
      "t_contract(IVault)18338": {
        "encoding": "inplace",
        "label": "contract IVault",
        "numberOfBytes": "20"
      },
      "t_contract(MerkleOrchard)17897": {
        "encoding": "inplace",
        "label": "contract MerkleOrchard",
        "numberOfBytes": "20"
      },
      "t_mapping(t_address,t_bool)": {
        "encoding": "mapping",
        "key": "t_address",
        "label": "mapping(address => bool)",
        "numberOfBytes": "32",
        "value": "t_bool"
      },
      "t_mapping(t_bytes32,t_struct(RoleData)43_storage)": {
        "encoding": "mapping",
        "key": "t_bytes32",
        "label": "mapping(bytes32 => struct AccessControlUpgradeable.RoleData)",
        "numberOfBytes": "32",
        "value": "t_struct(RoleData)43_storage"
      },
      "t_struct(RoleData)43_storage": {
        "encoding": "inplace",
        "label": "struct AccessControlUpgradeable.RoleData",
        "members": [
          {
            "astId": 40,
            "contract": "contracts/strategies/StrategyBalancer.sol:StrategyBalancer",
            "label": "members",
            "offset": 0,
            "slot": "0",
            "type": "t_mapping(t_address,t_bool)"
          },
          {
            "astId": 42,
            "contract": "contracts/strategies/StrategyBalancer.sol:StrategyBalancer",
            "label": "adminRole",
            "offset": 0,
            "slot": "1",
            "type": "t_bytes32"
          }
        ],
        "numberOfBytes": "64"
      },
      "t_uint256": {
        "encoding": "inplace",
        "label": "uint256",
        "numberOfBytes": "32"
      }
    }
  }
}