{
  "address": "0xE9D203Ce2CB1Bf0367484BdD5239A7510Efd88Bf",
  "abi": [
    {
      "inputs": [],
      "stateMutability": "nonpayable",
      "type": "constructor"
    },
    {
      "anonymous": false,
      "inputs": [
        {
          "indexed": false,
          "internalType": "address",
          "name": "previousAdmin",
          "type": "address"
        },
        {
          "indexed": false,
          "internalType": "address",
          "name": "newAdmin",
          "type": "address"
        }
      ],
      "name": "AdminChanged",
      "type": "event"
    },
    {
      "anonymous": false,
      "inputs": [
        {
          "indexed": true,
          "internalType": "address",
          "name": "beacon",
          "type": "address"
        }
      ],
      "name": "BeaconUpgraded",
      "type": "event"
    },
    {
      "anonymous": false,
      "inputs": [
        {
          "indexed": false,
          "internalType": "address",
          "name": "value",
          "type": "address"
        }
      ],
      "name": "PortfolioManagerUpdated",
      "type": "event"
    },
    {
      "anonymous": false,
      "inputs": [
        {
          "indexed": false,
          "internalType": "uint256",
          "name": "amount",
          "type": "uint256"
        }
      ],
      "name": "Reward",
      "type": "event"
    },
    {
      "anonymous": false,
      "inputs": [
        {
          "indexed": true,
          "internalType": "bytes32",
          "name": "role",
          "type": "bytes32"
        },
        {
          "indexed": true,
          "internalType": "bytes32",
          "name": "previousAdminRole",
          "type": "bytes32"
        },
        {
          "indexed": true,
          "internalType": "bytes32",
          "name": "newAdminRole",
          "type": "bytes32"
        }
      ],
      "name": "RoleAdminChanged",
      "type": "event"
    },
    {
      "anonymous": false,
      "inputs": [
        {
          "indexed": true,
          "internalType": "bytes32",
          "name": "role",
          "type": "bytes32"
        },
        {
          "indexed": true,
          "internalType": "address",
          "name": "account",
          "type": "address"
        },
        {
          "indexed": true,
          "internalType": "address",
          "name": "sender",
          "type": "address"
        }
      ],
      "name": "RoleGranted",
      "type": "event"
    },
    {
      "anonymous": false,
      "inputs": [
        {
          "indexed": true,
          "internalType": "bytes32",
          "name": "role",
          "type": "bytes32"
        },
        {
          "indexed": true,
          "internalType": "address",
          "name": "account",
          "type": "address"
        },
        {
          "indexed": true,
          "internalType": "address",
          "name": "sender",
          "type": "address"
        }
      ],
      "name": "RoleRevoked",
      "type": "event"
    },
    {
      "anonymous": false,
      "inputs": [
        {
          "indexed": false,
          "internalType": "address",
          "name": "uniswapRouter",
          "type": "address"
        }
      ],
      "name": "StrategyIdleUpdatedParams",
      "type": "event"
    },
    {
      "anonymous": false,
      "inputs": [
        {
          "indexed": false,
          "internalType": "address",
          "name": "usdcToken",
          "type": "address"
        },
        {
          "indexed": false,
          "internalType": "address",
          "name": "idleToken",
          "type": "address"
        },
        {
          "indexed": false,
          "internalType": "address",
          "name": "wmaticToken",
          "type": "address"
        },
        {
          "indexed": false,
          "internalType": "uint256",
          "name": "usdcTokenDenominator",
          "type": "uint256"
        },
        {
          "indexed": false,
          "internalType": "uint256",
          "name": "idleTokenDenominator",
          "type": "uint256"
        },
        {
          "indexed": false,
          "internalType": "uint256",
          "name": "wmaticTokenDenominator",
          "type": "uint256"
        }
      ],
      "name": "StrategyIdleUpdatedTokens",
      "type": "event"
    },
    {
      "anonymous": false,
      "inputs": [
        {
          "indexed": true,
          "internalType": "address",
          "name": "implementation",
          "type": "address"
        }
      ],
      "name": "Upgraded",
      "type": "event"
    },
    {
      "inputs": [],
      "name": "DEFAULT_ADMIN_ROLE",
      "outputs": [
        {
          "internalType": "bytes32",
          "name": "",
          "type": "bytes32"
        }
      ],
      "stateMutability": "view",
      "type": "function"
    },
    {
      "inputs": [],
      "name": "PORTFOLIO_MANAGER",
      "outputs": [
        {
          "internalType": "bytes32",
          "name": "",
          "type": "bytes32"
        }
      ],
      "stateMutability": "view",
      "type": "function"
    },
    {
      "inputs": [],
      "name": "UPGRADER_ROLE",
      "outputs": [
        {
          "internalType": "bytes32",
          "name": "",
          "type": "bytes32"
        }
      ],
      "stateMutability": "view",
      "type": "function"
    },
    {
      "inputs": [
        {
          "internalType": "address",
          "name": "_to",
          "type": "address"
        }
      ],
      "name": "claimRewards",
      "outputs": [
        {
          "internalType": "uint256",
          "name": "",
          "type": "uint256"
        }
      ],
      "stateMutability": "nonpayable",
      "type": "function"
    },
    {
      "inputs": [
        {
          "internalType": "bytes32",
          "name": "role",
          "type": "bytes32"
        }
      ],
      "name": "getRoleAdmin",
      "outputs": [
        {
          "internalType": "bytes32",
          "name": "",
          "type": "bytes32"
        }
      ],
      "stateMutability": "view",
      "type": "function"
    },
    {
      "inputs": [
        {
          "internalType": "bytes32",
          "name": "role",
          "type": "bytes32"
        },
        {
          "internalType": "address",
          "name": "account",
          "type": "address"
        }
      ],
      "name": "grantRole",
      "outputs": [],
      "stateMutability": "nonpayable",
      "type": "function"
    },
    {
      "inputs": [
        {
          "internalType": "bytes32",
          "name": "role",
          "type": "bytes32"
        },
        {
          "internalType": "address",
          "name": "account",
          "type": "address"
        }
      ],
      "name": "hasRole",
      "outputs": [
        {
          "internalType": "bool",
          "name": "",
          "type": "bool"
        }
      ],
      "stateMutability": "view",
      "type": "function"
    },
    {
      "inputs": [],
      "name": "initialize",
      "outputs": [],
      "stateMutability": "nonpayable",
      "type": "function"
    },
    {
      "inputs": [],
      "name": "iziToken",
      "outputs": [
        {
          "internalType": "contract IERC20",
          "name": "",
          "type": "address"
        }
      ],
      "stateMutability": "view",
      "type": "function"
    },
    {
      "inputs": [],
      "name": "iziTokenDenominator",
      "outputs": [
        {
          "internalType": "uint256",
          "name": "",
          "type": "uint256"
        }
      ],
      "stateMutability": "view",
      "type": "function"
    },
    {
      "inputs": [],
      "name": "izumiBoost",
      "outputs": [
        {
          "internalType": "contract MiningFixRangeBoost",
          "name": "",
          "type": "address"
        }
      ],
      "stateMutability": "view",
      "type": "function"
    },
    {
      "inputs": [],
      "name": "liquidationValue",
      "outputs": [
        {
          "internalType": "uint256",
          "name": "",
          "type": "uint256"
        }
      ],
      "stateMutability": "view",
      "type": "function"
    },
    {
      "inputs": [],
      "name": "netAssetValue",
      "outputs": [
        {
          "internalType": "uint256",
          "name": "",
          "type": "uint256"
        }
      ],
      "stateMutability": "view",
      "type": "function"
    },
    {
      "inputs": [
        {
          "internalType": "address",
          "name": "",
          "type": "address"
        },
        {
          "internalType": "address",
          "name": "",
          "type": "address"
        },
        {
          "internalType": "uint256",
          "name": "",
          "type": "uint256"
        },
        {
          "internalType": "bytes",
          "name": "",
          "type": "bytes"
        }
      ],
      "name": "onERC721Received",
      "outputs": [
        {
          "internalType": "bytes4",
          "name": "",
          "type": "bytes4"
        }
      ],
      "stateMutability": "nonpayable",
      "type": "function"
    },
    {
      "inputs": [],
      "name": "portfolioManager",
      "outputs": [
        {
          "internalType": "address",
          "name": "",
          "type": "address"
        }
      ],
      "stateMutability": "view",
      "type": "function"
    },
    {
      "inputs": [
        {
          "internalType": "bytes32",
          "name": "role",
          "type": "bytes32"
        },
        {
          "internalType": "address",
          "name": "account",
          "type": "address"
        }
      ],
      "name": "renounceRole",
      "outputs": [],
      "stateMutability": "nonpayable",
      "type": "function"
    },
    {
      "inputs": [
        {
          "internalType": "bytes32",
          "name": "role",
          "type": "bytes32"
        },
        {
          "internalType": "address",
          "name": "account",
          "type": "address"
        }
      ],
      "name": "revokeRole",
      "outputs": [],
      "stateMutability": "nonpayable",
      "type": "function"
    },
    {
      "inputs": [
        {
          "internalType": "address",
          "name": "_uniswapPositionManager",
          "type": "address"
        },
        {
          "internalType": "address",
          "name": "_uniswapV3Pool",
          "type": "address"
        },
        {
          "internalType": "address",
          "name": "_uniswapV2Router",
          "type": "address"
        },
        {
          "internalType": "address",
          "name": "_izumiBoost",
          "type": "address"
        },
        {
          "internalType": "address",
          "name": "_uniswapV3Router",
          "type": "address"
        }
      ],
      "name": "setParams",
      "outputs": [],
      "stateMutability": "nonpayable",
      "type": "function"
    },
    {
      "inputs": [
        {
          "internalType": "address",
          "name": "_value",
          "type": "address"
        }
      ],
      "name": "setPortfolioManager",
      "outputs": [],
      "stateMutability": "nonpayable",
      "type": "function"
    },
    {
      "inputs": [
        {
          "internalType": "address",
          "name": "_usdcToken",
          "type": "address"
        },
        {
          "internalType": "address",
          "name": "_usdtToken",
          "type": "address"
        },
        {
          "internalType": "address",
          "name": "_iziToken",
          "type": "address"
        },
        {
          "internalType": "address",
          "name": "_yinToken",
          "type": "address"
        },
        {
          "internalType": "address",
          "name": "_uniswapToken",
          "type": "address"
        },
        {
          "internalType": "address",
          "name": "_wethToken",
          "type": "address"
        }
      ],
      "name": "setTokens",
      "outputs": [],
      "stateMutability": "nonpayable",
      "type": "function"
    },
    {
      "inputs": [
        {
          "internalType": "address",
          "name": "_asset",
          "type": "address"
        },
        {
          "internalType": "uint256",
          "name": "_amount",
          "type": "uint256"
        }
      ],
      "name": "stake",
      "outputs": [],
      "stateMutability": "nonpayable",
      "type": "function"
    },
    {
      "inputs": [
        {
          "internalType": "bytes4",
          "name": "interfaceId",
          "type": "bytes4"
        }
      ],
      "name": "supportsInterface",
      "outputs": [
        {
          "internalType": "bool",
          "name": "",
          "type": "bool"
        }
      ],
      "stateMutability": "view",
      "type": "function"
    },
    {
      "inputs": [],
      "name": "tokenId",
      "outputs": [
        {
          "internalType": "uint256",
          "name": "",
          "type": "uint256"
        }
      ],
      "stateMutability": "view",
      "type": "function"
    },
    {
      "inputs": [],
      "name": "uniswapPositionManager",
      "outputs": [
        {
          "internalType": "contract INonfungiblePositionManager",
          "name": "",
          "type": "address"
        }
      ],
      "stateMutability": "view",
      "type": "function"
    },
    {
      "inputs": [],
      "name": "uniswapToken",
      "outputs": [
        {
          "internalType": "contract IERC721",
          "name": "",
          "type": "address"
        }
      ],
      "stateMutability": "view",
      "type": "function"
    },
    {
      "inputs": [],
      "name": "uniswapV3Pool",
      "outputs": [
        {
          "internalType": "contract IUniswapV3Pool",
          "name": "",
          "type": "address"
        }
      ],
      "stateMutability": "view",
      "type": "function"
    },
    {
      "inputs": [],
      "name": "uniswapV3Router",
      "outputs": [
        {
          "internalType": "contract ISwapRouter",
          "name": "",
          "type": "address"
        }
      ],
      "stateMutability": "view",
      "type": "function"
    },
    {
      "inputs": [
        {
          "internalType": "address",
          "name": "_asset",
          "type": "address"
        },
        {
          "internalType": "uint256",
          "name": "_amount",
          "type": "uint256"
        },
        {
          "internalType": "address",
          "name": "_beneficiary",
          "type": "address"
        },
        {
          "internalType": "bool",
          "name": "_targetIsZero",
          "type": "bool"
        }
      ],
      "name": "unstake",
      "outputs": [
        {
          "internalType": "uint256",
          "name": "",
          "type": "uint256"
        }
      ],
      "stateMutability": "nonpayable",
      "type": "function"
    },
    {
      "inputs": [
        {
          "internalType": "address",
          "name": "newImplementation",
          "type": "address"
        }
      ],
      "name": "upgradeTo",
      "outputs": [],
      "stateMutability": "nonpayable",
      "type": "function"
    },
    {
      "inputs": [
        {
          "internalType": "address",
          "name": "newImplementation",
          "type": "address"
        },
        {
          "internalType": "bytes",
          "name": "data",
          "type": "bytes"
        }
      ],
      "name": "upgradeToAndCall",
      "outputs": [],
      "stateMutability": "payable",
      "type": "function"
    },
    {
      "inputs": [],
      "name": "usdcToken",
      "outputs": [
        {
          "internalType": "contract IERC20",
          "name": "",
          "type": "address"
        }
      ],
      "stateMutability": "view",
      "type": "function"
    },
    {
      "inputs": [],
      "name": "usdcTokenDenominator",
      "outputs": [
        {
          "internalType": "uint256",
          "name": "",
          "type": "uint256"
        }
      ],
      "stateMutability": "view",
      "type": "function"
    },
    {
      "inputs": [],
      "name": "usdtToken",
      "outputs": [
        {
          "internalType": "contract IERC20",
          "name": "",
          "type": "address"
        }
      ],
      "stateMutability": "view",
      "type": "function"
    },
    {
      "inputs": [],
      "name": "usdtTokenDenominator",
      "outputs": [
        {
          "internalType": "uint256",
          "name": "",
          "type": "uint256"
        }
      ],
      "stateMutability": "view",
      "type": "function"
    },
    {
      "inputs": [],
      "name": "wethToken",
      "outputs": [
        {
          "internalType": "contract IERC20",
          "name": "",
          "type": "address"
        }
      ],
      "stateMutability": "view",
      "type": "function"
    },
    {
      "inputs": [],
      "name": "yinToken",
      "outputs": [
        {
          "internalType": "contract IERC20",
          "name": "",
          "type": "address"
        }
      ],
      "stateMutability": "view",
      "type": "function"
    },
    {
      "inputs": [],
      "name": "yinTokenDenominator",
      "outputs": [
        {
          "internalType": "uint256",
          "name": "",
          "type": "uint256"
        }
      ],
      "stateMutability": "view",
      "type": "function"
    }
  ],
  "solcInputHash": "1f94aa19ffaa866636253ef574145b15",
  "bytecode": "0x60a06040523060601b6080523480156200001857600080fd5b50600054610100900460ff168062000033575060005460ff16155b6200009b5760405162461bcd60e51b815260206004820152602e60248201527f496e697469616c697a61626c653a20636f6e747261637420697320616c72656160448201526d191e481a5b9a5d1a585b1a5e995960921b606482015260840160405180910390fd5b600054610100900460ff16158015620000be576000805461ffff19166101011790555b8015620000d1576000805461ff00191690555b5060805160601c6151ba62000106600039600081816107d4015281816108140152818161089d01526108dd01526151ba6000f3fe60806040526004361061021a5760003560e01c80637f049d7811610123578063b68f3a6f116100ab578063e789b1481161006f578063e789b14814610620578063ef5cfb8c14610640578063f55ebd2a14610660578063f6f6b88114610681578063f72c0d8b146106a157600080fd5b8063b68f3a6f14610590578063c2ad4c57146105b1578063c3bc6ff1146105c8578063d547741f146105df578063e5047b30146105ff57600080fd5b8063a3673b38116100f2578063a3673b3814610375578063a440b21a1461050f578063a7ab2e4d1461052f578063a98ad46c1461054f578063adc9772e1461057057600080fd5b80637f049d78146104a45780638129fc1c146104c557806391d14854146104da578063a217fddf146104fa57600080fd5b80632c76d7a6116101a65780634b57b0be116101755780634b57b0be1461040d5780634f1ef2861461042e5780635eaf799e14610441578063620b75df146104625780637d5f58021461048257600080fd5b80632c76d7a61461038a5780632f2ff15d146103ab57806336568abe146103cd5780633659cfe6146103ed57600080fd5b8063150b7a02116101ed578063150b7a02146102d357806317d70f7c1461031757806318b2a3e31461032e578063248a9ca3146103455780632576e65a1461037557600080fd5b806301ffc9a71461021f57806306da3f2e1461025457806309ca27561461027957806311eac855146102b2575b600080fd5b34801561022b57600080fd5b5061023f61023a3660046147a5565b6106d5565b60405190151581526020015b60405180910390f35b34801561026057600080fd5b5061026b6101655481565b60405190815260200161024b565b34801561028557600080fd5b506101615461029a906001600160a01b031681565b6040516001600160a01b03909116815260200161024b565b3480156102be57600080fd5b5061015f5461029a906001600160a01b031681565b3480156102df57600080fd5b506102fe6102ee366004614557565b630a85bd0160e11b949350505050565b6040516001600160e01b0319909116815260200161024b565b34801561032357600080fd5b5061026b6101695481565b34801561033a57600080fd5b5061026b6101675481565b34801561035157600080fd5b5061026b61036036600461475c565b60009081526065602052604090206001015490565b34801561038157600080fd5b5061026b61070c565b34801561039657600080fd5b5061016d5461029a906001600160a01b031681565b3480156103b757600080fd5b506103cb6103c6366004614775565b61071b565b005b3480156103d957600080fd5b506103cb6103e8366004614775565b610746565b3480156103f957600080fd5b506103cb610408366004614447565b6107c9565b34801561041957600080fd5b506101635461029a906001600160a01b031681565b6103cb61043c3660046145c3565b610892565b34801561044d57600080fd5b5061016c5461029a906001600160a01b031681565b34801561046e57600080fd5b5060fb5461029a906001600160a01b031681565b34801561048e57600080fd5b5061026b60008051602061513e83398151915281565b3480156104b057600080fd5b506101645461029a906001600160a01b031681565b3480156104d157600080fd5b506103cb610948565b3480156104e657600080fd5b5061023f6104f5366004614775565b6109bb565b34801561050657600080fd5b5061026b600081565b34801561051b57600080fd5b506103cb61052a366004614447565b6109e6565b34801561053b57600080fd5b506103cb61054a3660046144d5565b610ac4565b34801561055b57600080fd5b506101605461029a906001600160a01b031681565b34801561057c57600080fd5b506103cb61058b366004614613565b610e44565b34801561059c57600080fd5b506101625461029a906001600160a01b031681565b3480156105bd57600080fd5b5061026b6101685481565b3480156105d457600080fd5b5061026b6101665481565b3480156105eb57600080fd5b506103cb6105fa366004614775565b610e82565b34801561060b57600080fd5b5061016a5461029a906001600160a01b031681565b34801561062c57600080fd5b506103cb61063b366004614464565b610ea8565b34801561064c57600080fd5b5061026b61065b366004614447565b610ff0565b34801561066c57600080fd5b5061016b5461029a906001600160a01b031681565b34801561068d57600080fd5b5061026b61069c36600461463f565b611074565b3480156106ad57600080fd5b5061026b7f189ab7a9244df0848122154315af71fe140f3db0fe014031783b0946b8c9d2e381565b60006001600160e01b03198216637965db0b60e01b148061070657506301ffc9a760e01b6001600160e01b03198316145b92915050565b60006107166111bc565b905090565b6000828152606560205260409020600101546107378133611490565b61074183836114f4565b505050565b6001600160a01b03811633146107bb5760405162461bcd60e51b815260206004820152602f60248201527f416363657373436f6e74726f6c3a2063616e206f6e6c792072656e6f756e636560448201526e103937b632b9903337b91039b2b63360891b60648201526084015b60405180910390fd5b6107c5828261157a565b5050565b306001600160a01b037f00000000000000000000000000000000000000000000000000000000000000001614156108125760405162461bcd60e51b81526004016107b290614b93565b7f00000000000000000000000000000000000000000000000000000000000000006001600160a01b03166108446115e1565b6001600160a01b03161461086a5760405162461bcd60e51b81526004016107b290614bdf565b6108738161160f565b6040805160008082526020820190925261088f9183919061163a565b50565b306001600160a01b037f00000000000000000000000000000000000000000000000000000000000000001614156108db5760405162461bcd60e51b81526004016107b290614b93565b7f00000000000000000000000000000000000000000000000000000000000000006001600160a01b031661090d6115e1565b6001600160a01b0316146109335760405162461bcd60e51b81526004016107b290614bdf565b61093c8261160f565b6107c58282600161163a565b600054610100900460ff1680610961575060005460ff16155b61097d5760405162461bcd60e51b81526004016107b290614c2b565b600054610100900460ff1615801561099f576000805461ffff19166101011790555b6109a761177e565b801561088f576000805461ff001916905550565b60009182526065602090815260408084206001600160a01b0393909316845291905290205460ff1690565b6109f16000336109bb565b610a0d5760405162461bcd60e51b81526004016107b290614c79565b6001600160a01b038116610a335760405162461bcd60e51b81526004016107b290614cde565b60fb54610a589060008051602061513e833981519152906001600160a01b0316610e82565b610a7060008051602061513e8339815191528261071b565b60fb80546001600160a01b0319166001600160a01b0383169081179091556040519081527ff7b449fcd5cfb7379dcd34cb69428dd9f882033b15be33d83b42d91daa28eeb79060200160405180910390a150565b610acf6000336109bb565b610aeb5760405162461bcd60e51b81526004016107b290614c79565b6001600160a01b038616610b115760405162461bcd60e51b81526004016107b290614cde565b6001600160a01b038516610b375760405162461bcd60e51b81526004016107b290614cde565b6001600160a01b038416610b5d5760405162461bcd60e51b81526004016107b290614cde565b6001600160a01b038316610b835760405162461bcd60e51b81526004016107b290614cde565b6001600160a01b038216610ba95760405162461bcd60e51b81526004016107b290614cde565b6001600160a01b038116610bcf5760405162461bcd60e51b81526004016107b290614cde565b61015f80546001600160a01b03199081166001600160a01b038981169182179093556101608054831689851617905561016180548316888516179055610162805483168785161790556101638054831685851617905561016480549092169285169290921790556040805163313ce56760e01b8152905163313ce56791600480820192602092909190829003018186803b158015610c6c57600080fd5b505afa158015610c80573d6000803e3d6000fd5b505050506040513d601f19601f82011682018060405250810190610ca4919061493f565b610caf90600a614f88565b61016581905550846001600160a01b031663313ce5676040518163ffffffff1660e01b815260040160206040518083038186803b158015610cef57600080fd5b505afa158015610d03573d6000803e3d6000fd5b505050506040513d601f19601f82011682018060405250810190610d27919061493f565b610d3290600a614f88565b61016681905550836001600160a01b031663313ce5676040518163ffffffff1660e01b815260040160206040518083038186803b158015610d7257600080fd5b505afa158015610d86573d6000803e3d6000fd5b505050506040513d601f19601f82011682018060405250810190610daa919061493f565b610db590600a614f88565b61016781905550826001600160a01b031663313ce5676040518163ffffffff1660e01b815260040160206040518083038186803b158015610df557600080fd5b505afa158015610e09573d6000803e3d6000fd5b505050506040513d601f19601f82011682018060405250810190610e2d919061493f565b610e3890600a614f88565b61016855505050505050565b610e5c60008051602061513e833981519152336109bb565b610e785760405162461bcd60e51b81526004016107b290614b5c565b6107c5828261181a565b600082815260656020526040902060010154610e9e8133611490565b610741838361157a565b610eb36000336109bb565b610ecf5760405162461bcd60e51b81526004016107b290614c79565b6001600160a01b038516610ef55760405162461bcd60e51b81526004016107b290614cde565b6001600160a01b038416610f1b5760405162461bcd60e51b81526004016107b290614cde565b6001600160a01b038316610f415760405162461bcd60e51b81526004016107b290614cde565b6001600160a01b038116610f675760405162461bcd60e51b81526004016107b290614cde565b6001600160a01b038216610f8d5760405162461bcd60e51b81526004016107b290614cde565b61016a80546001600160a01b03199081166001600160a01b038881169190911790925561016b8054821687841617905561016c8054821685841617905561016d8054821684841617905561012d80549091169185169190911790555b5050505050565b600061100a60008051602061513e833981519152336109bb565b6110265760405162461bcd60e51b81526004016107b290614b5c565b600061103183611860565b90507f3ac0594a85a20354f9dc74f33728416d19ce00d04a406c108cc2dcf2cecea1348160405161106491815260200190565b60405180910390a190505b919050565b600061108e60008051602061513e833981519152336109bb565b6110aa5760405162461bcd60e51b81526004016107b290614b5c565b600082156110c3576110bc86856118f4565b9050611132565b6110ce868686611d6d565b9050848110156111325760405162461bcd60e51b815260206004820152602960248201527f52657475726e65642076616c7565206c657373207468616e2072657175657374604482015268195908185b5bdd5b9d60ba1b60648201526084016107b2565b60405163a9059cbb60e01b81526001600160a01b0387169063a9059cbb906111609087908590600401614b10565b602060405180830381600087803b15801561117a57600080fd5b505af115801561118e573d6000803e3d6000fd5b505050506040513d601f19601f820116820180604052508101906111b2919061473f565b5095945050505050565b600061016954600014156111d05750600090565b61016a546101695460405163133f757160e31b815260048101919091526000916001600160a01b0316906399fbab88906024016101806040518083038186803b15801561121c57600080fd5b505afa158015611230573d6000803e3d6000fd5b505050506040513d601f19601f82011682018060405250810190611254919061495a565b50505050975050505050505050600061016b60009054906101000a90046001600160a01b03166001600160a01b0316633850c7bd6040518163ffffffff1660e01b815260040160e06040518083038186803b1580156112b257600080fd5b505afa1580156112c6573d6000803e3d6000fd5b505050506040513d601f19601f820116820180604052508101906112ea919061481f565b505050505050905060008061131a836bffdf3de87261863e03afb3786c010020c649300be3bb0e87ea7787611e30565b61015f546040516370a0823160e01b815230600482015292945090925060009184916001600160a01b0316906370a082319060240160206040518083038186803b15801561136757600080fd5b505afa15801561137b573d6000803e3d6000fd5b505050506040513d601f19601f8201168201806040525081019061139f91906148c6565b6113a99190614f0b565b610160546040516370a0823160e01b815230600482015291925060009184916001600160a01b0316906370a082319060240160206040518083038186803b1580156113f357600080fd5b505afa158015611407573d6000803e3d6000fd5b505050506040513d601f19601f8201168201806040525081019061142b91906148c6565b6114359190614f0b565b6101605461015f546101665492935060009261145f926001600160a01b0390811692169085611ecc565b610166549091506114708284615033565b61147a9190614f23565b6114849084614f0b565b97505050505050505090565b61149a82826109bb565b6107c5576114b2816001600160a01b0316601461202a565b6114bd83602061202a565b6040516020016114ce929190614a9b565b60408051601f198184030181529082905262461bcd60e51b82526107b291600401614b29565b6114fe82826109bb565b6107c55760008281526065602090815260408083206001600160a01b03851684529091529020805460ff191660011790556115363390565b6001600160a01b0316816001600160a01b0316837f2f8788117e7eff1d82e926ec794901d17c78024a50270940304540a733656f0d60405160405180910390a45050565b61158482826109bb565b156107c55760008281526065602090815260408083206001600160a01b0385168085529252808320805460ff1916905551339285917ff6391f5c32d9c69d2a47ea670b442974b53935d1edc7fd64eb21e047a839171b9190a45050565b7f360894a13ba1a3210667c828492db98dca3e2076cc3735a920a3ca505d382bbc546001600160a01b031690565b7f189ab7a9244df0848122154315af71fe140f3db0fe014031783b0946b8c9d2e36107c58133611490565b60006116446115e1565b905061164f846121c6565b60008351118061165c5750815b1561166d5761166b848461226b565b505b7f4910fdfa16fed3260ed0e7147f7cc6da11a60208b5b9406d12a635614ffd9143805460ff16610fe957805460ff191660011781556040516001600160a01b03831660248201526116ec90869060440160408051601f198184030181529190526020810180516001600160e01b0316631b2ce7f360e11b17905261226b565b50805460ff191681556116fd6115e1565b6001600160a01b0316826001600160a01b0316146117755760405162461bcd60e51b815260206004820152602f60248201527f45524331393637557067726164653a207570677261646520627265616b73206660448201526e75727468657220757067726164657360881b60648201526084016107b2565b610fe985612356565b600054610100900460ff1680611797575060005460ff16155b6117b35760405162461bcd60e51b81526004016107b290614c2b565b600054610100900460ff161580156117d5576000805461ffff19166101011790555b6117dd612396565b6117e5612405565b6117f06000336114f4565b6109a77f189ab7a9244df0848122154315af71fe140f3db0fe014031783b0946b8c9d2e3336114f4565b61015f546001600160a01b038381169116146118485760405162461bcd60e51b81526004016107b290614ca7565b61016954611858576107c5612463565b6107c561291a565b61016c5461016954604051635e9a83ed60e11b815260048101919091526000916001600160a01b03169063bd3507da90602401600060405180830381600087803b1580156118ad57600080fd5b505af11580156118c1573d6000803e3d6000fd5b5050505060006118cf612c5e565b6118d99082614f0b565b90506118e36131a7565b6118ed9082614f0b565b9392505050565b61015f546000906001600160a01b038481169116146119255760405162461bcd60e51b81526004016107b290614ca7565b61192e30611860565b50610169546119ba5761015f546040516370a0823160e01b81523060048201526001600160a01b03909116906370a082319060240160206040518083038186803b15801561197b57600080fd5b505afa15801561198f573d6000803e3d6000fd5b505050506040513d601f19601f820116820180604052508101906119b391906148c6565b9050610706565b61016c5461016954604051631c683a1b60e11b81526004810191909152600060248201526001600160a01b03909116906338d0743690604401600060405180830381600087803b158015611a0d57600080fd5b505af1158015611a21573d6000803e3d6000fd5b50505050600061016b60009054906101000a90046001600160a01b03166001600160a01b0316633850c7bd6040518163ffffffff1660e01b815260040160e06040518083038186803b158015611a7657600080fd5b505afa158015611a8a573d6000803e3d6000fd5b505050506040513d601f19601f82011682018060405250810190611aae919061481f565b505061016a546101695460405163133f757160e31b81529697506000966001600160a01b0390921695506399fbab889450611af29350915060040190815260200190565b6101806040518083038186803b158015611b0b57600080fd5b505afa158015611b1f573d6000803e3d6000fd5b505050506040513d601f19601f82011682018060405250810190611b43919061495a565b50505050975050505050505050600080611b78846bffdf3de87261863e03afb3786c010020c649300be3bb0e87ea7786611e30565b9150915060006040518060a00160405280610169548152602001856001600160801b031681526020016064856063611bb09190615033565b611bba9190614f23565b81526020016064611bcc856063615033565b611bd69190614f23565b8152602001611be742610258614f0b565b905261016a54604051630624e65f60e11b81529192506001600160a01b031690630c49ccbe90611c1b908490600401614d15565b6040805180830381600087803b158015611c3457600080fd5b505af1158015611c48573d6000803e3d6000fd5b505050506040513d601f19601f82011682018060405250810190611c6c919061491b565b5050611c76613350565b61016a5461016954604051630852cd8d60e31b81526001600160a01b03909216916342966c6891611cad9160040190815260200190565b600060405180830381600087803b158015611cc757600080fd5b505af1158015611cdb573d6000803e3d6000fd5b5050600061016955505061015f546040516370a0823160e01b81523060048201526001600160a01b03909116906370a082319060240160206040518083038186803b158015611d2957600080fd5b505afa158015611d3d573d6000803e3d6000fd5b505050506040513d601f19601f82011682018060405250810190611d6191906148c6565b95505050505050610706565b61015f546000906001600160a01b03858116911614611d9e5760405162461bcd60e51b81526004016107b290614ca7565b61015f546040516370a0823160e01b815230600482015284916001600160a01b0316906370a082319060240160206040518083038186803b158015611de257600080fd5b505afa158015611df6573d6000803e3d6000fd5b505050506040513d601f19601f82011682018060405250810190611e1a91906148c6565b11611e2857611e28836134b1565b509092915050565b600080836001600160a01b0316856001600160a01b03161115611e51579293925b846001600160a01b0316866001600160a01b031611611e7c57611e758585856137c2565b9150611ec3565b836001600160a01b0316866001600160a01b03161015611eb557611ea18685856137c2565b9150611eae85878561383d565b9050611ec3565b611ec085858561383d565b90505b94509492505050565b604080516002808252606082018352600092839291906020830190803683370190505090508481600081518110611f0557611f056150ee565b60200260200101906001600160a01b031690816001600160a01b0316815250508581600181518110611f3957611f396150ee565b6001600160a01b03928316602091820292909201015261012d5460405163d06ca61f60e01b8152600092919091169063d06ca61f90611f7e9087908690600401614e85565b60006040518083038186803b158015611f9657600080fd5b505afa158015611faa573d6000803e3d6000fd5b505050506040513d6000823e601f3d908101601f19168201604052611fd29190810190614692565b905080600181518110611fe757611fe76150ee565b602002602001015181600081518110612002576120026150ee565b6020026020010151866120159190615033565b61201f9190614f23565b979650505050505050565b60606000612039836002615033565b612044906002614f0b565b67ffffffffffffffff81111561205c5761205c615104565b6040519080825280601f01601f191660200182016040528015612086576020820181803683370190505b509050600360fc1b816000815181106120a1576120a16150ee565b60200101906001600160f81b031916908160001a905350600f60fb1b816001815181106120d0576120d06150ee565b60200101906001600160f81b031916908160001a90535060006120f4846002615033565b6120ff906001614f0b565b90505b6001811115612177576f181899199a1a9b1b9c1cb0b131b232b360811b85600f1660108110612133576121336150ee565b1a60f81b828281518110612149576121496150ee565b60200101906001600160f81b031916908160001a90535060049490941c93612170816150c1565b9050612102565b5083156118ed5760405162461bcd60e51b815260206004820181905260248201527f537472696e67733a20686578206c656e67746820696e73756666696369656e7460448201526064016107b2565b803b61222a5760405162461bcd60e51b815260206004820152602d60248201527f455243313936373a206e657720696d706c656d656e746174696f6e206973206e60448201526c1bdd08184818dbdb9d1c9858dd609a1b60648201526084016107b2565b7f360894a13ba1a3210667c828492db98dca3e2076cc3735a920a3ca505d382bbc80546001600160a01b0319166001600160a01b0392909216919091179055565b6060823b6122ca5760405162461bcd60e51b815260206004820152602660248201527f416464726573733a2064656c65676174652063616c6c20746f206e6f6e2d636f6044820152651b9d1c9858dd60d21b60648201526084016107b2565b600080846001600160a01b0316846040516122e59190614a7f565b600060405180830381855af49150503d8060008114612320576040519150601f19603f3d011682016040523d82523d6000602084013e612325565b606091505b509150915061234d828260405180606001604052806027815260200161515e60279139613887565b95945050505050565b61235f816121c6565b6040516001600160a01b038216907fbc7cd75a20ee27fd9adebab32041f755214dbc6bffa90cc0225b39da2e5c2d3b90600090a250565b600054610100900460ff16806123af575060005460ff16155b6123cb5760405162461bcd60e51b81526004016107b290614c2b565b600054610100900460ff161580156123ed576000805461ffff19166101011790555b6123f56138c0565b6123fd6138c0565b6109a76138c0565b600054610100900460ff168061241e575060005460ff16155b61243a5760405162461bcd60e51b81526004016107b290614c2b565b600054610100900460ff161580156123f5576000805461ffff19166101011790556123fd6138c0565b61246b61392a565b61015f546040516370a0823160e01b81523060048201526000916001600160a01b0316906370a082319060240160206040518083038186803b1580156124b057600080fd5b505afa1580156124c4573d6000803e3d6000fd5b505050506040513d601f19601f820116820180604052508101906124e891906148c6565b610160546040516370a0823160e01b81523060048201529192506000916001600160a01b03909116906370a082319060240160206040518083038186803b15801561253257600080fd5b505afa158015612546573d6000803e3d6000fd5b505050506040513d601f19601f8201168201806040525081019061256a91906148c6565b60408051610160808201835261015f546001600160a01b0390811683529054811660208084019190915261016b54845163ddca3f4360e01b815285519697506000969495860194919093169263ddca3f43926004808301939192829003018186803b1580156125d857600080fd5b505afa1580156125ec573d6000803e3d6000fd5b505050506040513d601f19601f8201168201806040525081019061261091906148ab565b62ffffff1681526009196020820152600a6040820152606081018590526080810184905260a0016064612644866063615033565b61264e9190614f23565b81526020016064612660856063615033565b61266a9190614f23565b815230602082015260400161268142610258614f0b565b905261015f5461016a5460405163095ea7b360e01b81529293506001600160a01b039182169263095ea7b3926126bd9216908790600401614b10565b602060405180830381600087803b1580156126d757600080fd5b505af11580156126eb573d6000803e3d6000fd5b505050506040513d601f19601f8201168201806040525081019061270f919061473f565b506101605461016a5460405163095ea7b360e01b81526001600160a01b039283169263095ea7b392612748929116908690600401614b10565b602060405180830381600087803b15801561276257600080fd5b505af1158015612776573d6000803e3d6000fd5b505050506040513d601f19601f8201168201806040525081019061279a919061473f565b5061016a54604051634418b22b60e11b81526000916001600160a01b0316906388316456906127cd908590600401614dc1565b608060405180830381600087803b1580156127e757600080fd5b505af11580156127fb573d6000803e3d6000fd5b505050506040513d601f19601f8201168201806040525081019061281f91906148df565b5050506101698190556101645461016c5460405163095ea7b360e01b81529293506001600160a01b039182169263095ea7b3926128629216908590600401614b10565b600060405180830381600087803b15801561287c57600080fd5b505af1158015612890573d6000803e3d6000fd5b505061016c54604051631c57762b60e31b815260048101859052600060248201526001600160a01b03909116925063e2bbb1589150604401602060405180830381600087803b1580156128e257600080fd5b505af11580156128f6573d6000803e3d6000fd5b505050506040513d601f19601f82011682018060405250810190610fe991906148c6565b61292261392a565b61015f546040516370a0823160e01b81523060048201526000916001600160a01b0316906370a082319060240160206040518083038186803b15801561296757600080fd5b505afa15801561297b573d6000803e3d6000fd5b505050506040513d601f19601f8201168201806040525081019061299f91906148c6565b610160546040516370a0823160e01b81523060048201529192506000916001600160a01b03909116906370a082319060240160206040518083038186803b1580156129e957600080fd5b505afa1580156129fd573d6000803e3d6000fd5b505050506040513d601f19601f82011682018060405250810190612a2191906148c6565b905060006040518060c001604052806101695481526020018481526020018381526020016064856063612a549190615033565b612a5e9190614f23565b81526020016064612a70856063615033565b612a7a9190614f23565b8152602001612a8b42610258614f0b565b905261015f5461016a5460405163095ea7b360e01b81529293506001600160a01b039182169263095ea7b392612ac79216908790600401614b10565b602060405180830381600087803b158015612ae157600080fd5b505af1158015612af5573d6000803e3d6000fd5b505050506040513d601f19601f82011682018060405250810190612b19919061473f565b506101605461016a5460405163095ea7b360e01b81526001600160a01b039283169263095ea7b392612b52929116908690600401614b10565b602060405180830381600087803b158015612b6c57600080fd5b505af1158015612b80573d6000803e3d6000fd5b505050506040513d601f19601f82011682018060405250810190612ba4919061473f565b5061016a546040805163219f5d1760e01b81528351600482015260208401516024820152908301516044820152606083015160648201526080830151608482015260a083015160a48201526001600160a01b039091169063219f5d179060c401606060405180830381600087803b158015612c1e57600080fd5b505af1158015612c32573d6000803e3d6000fd5b505050506040513d601f19601f82011682018060405250810190612c5691906147ea565b505050505050565b610161546040516370a0823160e01b81523060048201526000916001600160a01b0316906370a082319060240160206040518083038186803b158015612ca357600080fd5b505afa158015612cb7573d6000803e3d6000fd5b505050506040513d601f19601f82011682018060405250810190612cdb91906148c6565b612ce55750600090565b6040805161010081018252610161546001600160a01b03908116825261016354166020820152610bb89181019190915230606082015260009060808101612d2e42610258614f0b565b8152610161546040516370a0823160e01b81523060048201526020909201916001600160a01b03909116906370a082319060240160206040518083038186803b158015612d7a57600080fd5b505afa158015612d8e573d6000803e3d6000fd5b505050506040513d601f19601f82011682018060405250810190612db291906148c6565b81526000602082018190526040918201526101615461016d5491516370a0823160e01b81523060048201529293506001600160a01b039081169263095ea7b392919091169083906370a08231906024015b60206040518083038186803b158015612e1b57600080fd5b505afa158015612e2f573d6000803e3d6000fd5b505050506040513d601f19601f82011682018060405250810190612e5391906148c6565b6040518363ffffffff1660e01b8152600401612e70929190614b10565b602060405180830381600087803b158015612e8a57600080fd5b505af1158015612e9e573d6000803e3d6000fd5b505050506040513d601f19601f82011682018060405250810190612ec2919061473f565b5061016d5460405163414bf38960e01b81526000916001600160a01b03169063414bf38990612ef5908590600401614d58565b602060405180830381600087803b158015612f0f57600080fd5b505af1158015612f23573d6000803e3d6000fd5b505050506040513d601f19601f82011682018060405250810190612f4791906148c6565b6040805161010081018252610163546001600160a01b03908116825261015f541660208201526101f49181019190915230606082015290915060808101612f9042610258614f0b565b8152610163546040516370a0823160e01b81523060048201526020909201916001600160a01b03909116906370a082319060240160206040518083038186803b158015612fdc57600080fd5b505afa158015612ff0573d6000803e3d6000fd5b505050506040513d601f19601f8201168201806040525081019061301491906148c6565b81526000602082018190526040918201526101635461016d5491516370a0823160e01b81523060048201529294506001600160a01b039081169263095ea7b392919091169083906370a082319060240160206040518083038186803b15801561307c57600080fd5b505afa158015613090573d6000803e3d6000fd5b505050506040513d601f19601f820116820180604052508101906130b491906148c6565b6040518363ffffffff1660e01b81526004016130d1929190614b10565b602060405180830381600087803b1580156130eb57600080fd5b505af11580156130ff573d6000803e3d6000fd5b505050506040513d601f19601f82011682018060405250810190613123919061473f565b5061016d5460405163414bf38960e01b81526001600160a01b039091169063414bf38990613155908590600401614d58565b602060405180830381600087803b15801561316f57600080fd5b505af1158015613183573d6000803e3d6000fd5b505050506040513d601f19601f820116820180604052508101906118ed91906148c6565b610162546040516370a0823160e01b81523060048201526000916001600160a01b0316906370a082319060240160206040518083038186803b1580156131ec57600080fd5b505afa158015613200573d6000803e3d6000fd5b505050506040513d601f19601f8201168201806040525081019061322491906148c6565b61322e5750600090565b6040805161010081018252610162546001600160a01b03908116825261016354166020820152610bb8918101919091523060608201526000906080810161327742610258614f0b565b8152610162546040516370a0823160e01b81523060048201526020909201916001600160a01b03909116906370a082319060240160206040518083038186803b1580156132c357600080fd5b505afa1580156132d7573d6000803e3d6000fd5b505050506040513d601f19601f820116820180604052508101906132fb91906148c6565b81526000602082018190526040918201526101625461016d5491516370a0823160e01b81523060048201529293506001600160a01b039081169263095ea7b392919091169083906370a0823190602401612e03565b6040805160808101825261016954815230602082019081526001600160801b038284018181526060840182815261016a54955163fc6f786560e01b81528551600482015293516001600160a01b0390811660248601529151831660448501525190911660648301529192919091169063fc6f7865906084016040805180830381600087803b1580156133e157600080fd5b505af11580156133f5573d6000803e3d6000fd5b505050506040513d601f19601f82011682018060405250810190613419919061491b565b50506101605461015f54610166546040516370a0823160e01b815230600482018190526107c5946001600160a01b0390811694169291819085906370a082319060240160206040518083038186803b15801561347457600080fd5b505afa158015613488573d6000803e3d6000fd5b505050506040513d601f19601f820116820180604052508101906134ac91906148c6565b613a6e565b61016c5461016954604051631c683a1b60e11b81526004810191909152600060248201526001600160a01b03909116906338d0743690604401600060405180830381600087803b15801561350457600080fd5b505af1158015613518573d6000803e3d6000fd5b50505050600061352782613d47565b90506000613535828461507a565b9050600061016b60009054906101000a90046001600160a01b03166001600160a01b0316633850c7bd6040518163ffffffff1660e01b815260040160e06040518083038186803b15801561358857600080fd5b505afa15801561359c573d6000803e3d6000fd5b505050506040513d601f19601f820116820180604052508101906135c0919061481f565b505050505050905060006135f0826bffdf3de87261863e03afb3786c010020c649300be3bb0e87ea778688613f44565b905060006040518060a00160405280610169548152602001836001600160801b031681526020016000815260200160008152602001426102586136339190614f0b565b905261016a54604051630624e65f60e11b81529192506001600160a01b031690630c49ccbe90613667908490600401614d15565b6040805180830381600087803b15801561368057600080fd5b505af1158015613694573d6000803e3d6000fd5b505050506040513d601f19601f820116820180604052508101906136b8919061491b565b50506136c2613350565b6101645461016c546101695460405163095ea7b360e01b81526001600160a01b039384169363095ea7b3936136fc93911691600401614b10565b600060405180830381600087803b15801561371657600080fd5b505af115801561372a573d6000803e3d6000fd5b505061016c5461016954604051631c57762b60e31b81526004810191909152600060248201526001600160a01b03909116925063e2bbb1589150604401602060405180830381600087803b15801561378157600080fd5b505af1158015613795573d6000803e3d6000fd5b505050506040513d601f19601f820116820180604052508101906137b991906148c6565b50505050505050565b6000826001600160a01b0316846001600160a01b031611156137e2579192915b6001600160a01b03841661382b6fffffffffffffffffffffffffffffffff60601b606085901b166138138787615052565b6001600160a01b0316866001600160a01b0316613ffc565b6138359190614f23565b949350505050565b6000826001600160a01b0316846001600160a01b0316111561385d579192915b6138356001600160801b0383166138748686615052565b6001600160a01b0316600160601b613ffc565b606083156138965750816118ed565b8251156138a65782518084602001fd5b8160405162461bcd60e51b81526004016107b29190614b29565b600054610100900460ff16806138d9575060005460ff16155b6138f55760405162461bcd60e51b81526004016107b290614c2b565b600054610100900460ff161580156109a7576000805461ffff1916610101179055801561088f576000805461ff001916905550565b61015f546040516370a0823160e01b81523060048201526000916139b2916001600160a01b03909116906370a082319060240160206040518083038186803b15801561397557600080fd5b505afa158015613989573d6000803e3d6000fd5b505050506040513d601f19601f820116820180604052508101906139ad91906148c6565b613d47565b610160546040516370a0823160e01b81523060048201529192506000916001600160a01b03909116906370a082319060240160206040518083038186803b1580156139fc57600080fd5b505afa158015613a10573d6000803e3d6000fd5b505050506040513d601f19601f82011682018060405250810190613a3491906148c6565b90508181116107c557613a47818361507a565b61015f546101605461016654929450610741926001600160a01b0392831692909116903080875b600080613a7d88888886614181565b90506003811015613b85576040516370a0823160e01b81526001600160a01b03858116600483015289169063a9059cbb90879083906370a082319060240160206040518083038186803b158015613ad357600080fd5b505afa158015613ae7573d6000803e3d6000fd5b505050506040513d601f19601f82011682018060405250810190613b0b91906148c6565b6040518363ffffffff1660e01b8152600401613b28929190614b10565b602060405180830381600087803b158015613b4257600080fd5b505af1158015613b56573d6000803e3d6000fd5b505050506040513d601f19601f82011682018060405250810190613b7a919061473f565b506000915050613d3d565b61012d5460405163095ea7b360e01b81526000916001600160a01b03808c169263095ea7b392613bbb9216908890600401614b10565b602060405180830381600087803b158015613bd557600080fd5b505af1158015613be9573d6000803e3d6000fd5b505050506040513d601f19601f82011682018060405250810190613c0d919061473f565b506040805160028082526060820183526000926020830190803683370190505090508981600081518110613c4357613c436150ee565b60200260200101906001600160a01b031690816001600160a01b0316815250508881600181518110613c7757613c776150ee565b6001600160a01b03928316602091820292909201015261012d54166338ed17398684848a613ca742610258614f0b565b6040518663ffffffff1660e01b8152600401613cc7959493929190614e9e565b600060405180830381600087803b158015613ce157600080fd5b505af1158015613cf5573d6000803e3d6000fd5b505050506040513d6000823e601f3d908101601f19168201604052613d1d9190810190614692565b600181518110613d2f57613d2f6150ee565b602002602001015193505050505b9695505050505050565b60008061016b60009054906101000a90046001600160a01b03166001600160a01b0316633850c7bd6040518163ffffffff1660e01b815260040160e06040518083038186803b158015613d9957600080fd5b505afa158015613dad573d6000803e3d6000fd5b505050506040513d601f19601f82011682018060405250810190613dd1919061481f565b5050505050509050600080613e87836bffdf3de87261863e03afb3786c010020c649300be3bb0e87ea7761016b60009054906101000a90046001600160a01b03166001600160a01b0316631a6865026040518163ffffffff1660e01b815260040160206040518083038186803b158015613e4a57600080fd5b505afa158015613e5e573d6000803e3d6000fd5b505050506040513d601f19601f82011682018060405250810190613e8291906147cf565b611e30565b91509150808210613ef057600081613ea784670de0b6b3a7640000615033565b613eb19190614f23565b9050856000613ec883670de0b6b3a7640000614f0b565b613eda83670de0b6b3a7640000615033565b613ee49190614f23565b98975050505050505050565b60405162461bcd60e51b8152602060048201526024808201527f416d6f756e74206c69717569646974792055534454206d6f7265207468656e206044820152635553444360e01b60648201526084016107b2565b6000836001600160a01b0316856001600160a01b03161115613f64579293925b846001600160a01b0316866001600160a01b031611613f8f57613f888585856142b7565b905061234d565b836001600160a01b0316866001600160a01b03161015613ff1576000613fb68786866142b7565b90506000613fc5878986614321565b9050806001600160801b0316826001600160801b031610613fe65780613fe8565b815b9250505061234d565b613d3d858584614321565b600080806000198587098587029250828110838203039150508060001415614036576000841161402b57600080fd5b5082900490506118ed565b80841161404257600080fd5b6000848688098084039381119092039190506000856140638160001961507a565b61406e906001614f0b565b1695869004959384900493600081900304600101905061408e8184615033565b90931792600061409f876003615033565b60021890506140ae8188615033565b6140b990600261507a565b6140c39082615033565b90506140cf8188615033565b6140da90600261507a565b6140e49082615033565b90506140f08188615033565b6140fb90600261507a565b6141059082615033565b90506141118188615033565b61411c90600261507a565b6141269082615033565b90506141328188615033565b61413d90600261507a565b6141479082615033565b90506141538188615033565b61415e90600261507a565b6141689082615033565b90506141748186615033565b9998505050505050505050565b6040805160028082526060820183526000928392919060208301908036833701905050905085816000815181106141ba576141ba6150ee565b60200260200101906001600160a01b031690816001600160a01b03168152505084816001815181106141ee576141ee6150ee565b6001600160a01b03928316602091820292909201015261012d5460405163d06ca61f60e01b8152600092919091169063d06ca61f906142339087908690600401614e85565b60006040518083038186803b15801561424b57600080fd5b505afa15801561425f573d6000803e3d6000fd5b505050506040513d6000823e601f3d908101601f191682016040526142879190810190614692565b90508060008151811061429c5761429c6150ee565b602002602001015181600181518110612002576120026150ee565b6000826001600160a01b0316846001600160a01b031611156142d7579192915b60006142fa856001600160a01b0316856001600160a01b0316600160601b613ffc565b905061234d61431c848361430e8989615052565b6001600160a01b0316613ffc565b614357565b6000826001600160a01b0316846001600160a01b03161115614341579192915b61383561431c83600160601b61430e8888615052565b806001600160801b038116811461106f57600080fd5b805161106f8161511a565b600082601f83011261438957600080fd5b813567ffffffffffffffff8111156143a3576143a3615104565b6143b6601f8201601f1916602001614eda565b8181528460208386010111156143cb57600080fd5b816020850160208301376000918101602001919091529392505050565b8051600281900b811461106f57600080fd5b80516001600160801b038116811461106f57600080fd5b805161ffff8116811461106f57600080fd5b805162ffffff8116811461106f57600080fd5b805160ff8116811461106f57600080fd5b60006020828403121561445957600080fd5b81356118ed8161511a565b600080600080600060a0868803121561447c57600080fd5b85356144878161511a565b945060208601356144978161511a565b935060408601356144a78161511a565b925060608601356144b78161511a565b915060808601356144c78161511a565b809150509295509295909350565b60008060008060008060c087890312156144ee57600080fd5b86356144f98161511a565b955060208701356145098161511a565b945060408701356145198161511a565b935060608701356145298161511a565b925060808701356145398161511a565b915060a08701356145498161511a565b809150509295509295509295565b6000806000806080858703121561456d57600080fd5b84356145788161511a565b935060208501356145888161511a565b925060408501359150606085013567ffffffffffffffff8111156145ab57600080fd5b6145b787828801614378565b91505092959194509250565b600080604083850312156145d657600080fd5b82356145e18161511a565b9150602083013567ffffffffffffffff8111156145fd57600080fd5b61460985828601614378565b9150509250929050565b6000806040838503121561462657600080fd5b82356146318161511a565b946020939093013593505050565b6000806000806080858703121561465557600080fd5b84356146608161511a565b93506020850135925060408501356146778161511a565b915060608501356146878161512f565b939692955090935050565b600060208083850312156146a557600080fd5b825167ffffffffffffffff808211156146bd57600080fd5b818501915085601f8301126146d157600080fd5b8151818111156146e3576146e3615104565b8060051b91506146f4848301614eda565b8181528481019084860184860187018a101561470f57600080fd5b600095505b83861015614732578051835260019590950194918601918601614714565b5098975050505050505050565b60006020828403121561475157600080fd5b81516118ed8161512f565b60006020828403121561476e57600080fd5b5035919050565b6000806040838503121561478857600080fd5b82359150602083013561479a8161511a565b809150509250929050565b6000602082840312156147b757600080fd5b81356001600160e01b0319811681146118ed57600080fd5b6000602082840312156147e157600080fd5b6118ed826143fa565b6000806000606084860312156147ff57600080fd5b614808846143fa565b925060208401519150604084015190509250925092565b600080600080600080600060e0888a03121561483a57600080fd5b87516148458161511a565b9650614853602089016143e8565b955061486160408901614411565b945061486f60608901614411565b935061487d60808901614411565b925061488b60a08901614436565b915060c088015161489b8161512f565b8091505092959891949750929550565b6000602082840312156148bd57600080fd5b6118ed82614423565b6000602082840312156148d857600080fd5b5051919050565b600080600080608085870312156148f557600080fd5b84519350614905602086016143fa565b6040860151606090960151949790965092505050565b6000806040838503121561492e57600080fd5b505080516020909101519092909150565b60006020828403121561495157600080fd5b6118ed82614436565b6000806000806000806000806000806000806101808d8f03121561497d57600080fd5b8c516bffffffffffffffffffffffff8116811461499957600080fd5b9b506149a760208e0161436d565b9a506149b560408e0161436d565b99506149c360608e0161436d565b98506149d160808e01614423565b97506149df60a08e016143e8565b96506149ed60c08e016143e8565b95506149fb60e08e016143fa565b94506101008d015193506101208d01519250614a1a6101408e016143fa565b9150614a296101608e016143fa565b90509295989b509295989b509295989b565b600081518084526020808501945080840160005b83811015614a745781516001600160a01b031687529582019590820190600101614a4f565b509495945050505050565b60008251614a91818460208701615091565b9190910192915050565b7f416363657373436f6e74726f6c3a206163636f756e7420000000000000000000815260008351614ad3816017850160208801615091565b7001034b99036b4b9b9b4b733903937b6329607d1b6017918401918201528351614b04816028840160208801615091565b01602801949350505050565b6001600160a01b03929092168252602082015260400190565b6020815260008251806020840152614b48816040850160208701615091565b601f01601f19169190910160400192915050565b6020808252601f908201527f5265737472696374656420746f20504f5254464f4c494f5f4d414e4147455200604082015260600190565b6020808252602c908201527f46756e6374696f6e206d7573742062652063616c6c6564207468726f7567682060408201526b19195b1959d85d1958d85b1b60a21b606082015260800190565b6020808252602c908201527f46756e6374696f6e206d7573742062652063616c6c6564207468726f7567682060408201526b6163746976652070726f787960a01b606082015260800190565b6020808252602e908201527f496e697469616c697a61626c653a20636f6e747261637420697320616c72656160408201526d191e481a5b9a5d1a585b1a5e995960921b606082015260800190565b6020808252601490820152735265737472696374656420746f2061646d696e7360601b604082015260600190565b60208082526019908201527f536f6d6520746f6b656e206e6f7420636f6d70617469626c6500000000000000604082015260600190565b60208082526018908201527f5a65726f2061646472657373206e6f7420616c6c6f7765640000000000000000604082015260600190565b600060a082019050825182526001600160801b03602084015116602083015260408301516040830152606083015160608301526080830151608083015292915050565b81516001600160a01b03908116825260208084015182169083015260408084015162ffffff16908301526060808401518216908301526080808401519083015260a0838101519083015260c0808401519083015260e09283015116918101919091526101000190565b81516001600160a01b0316815261016081016020830151614ded60208401826001600160a01b03169052565b506040830151614e04604084018262ffffff169052565b506060830151614e19606084018260020b9052565b506080830151614e2e608084018260020b9052565b5060a083015160a083015260c083015160c083015260e083015160e083015261010080840151818401525061012080840151614e74828501826001600160a01b03169052565b505061014092830151919092015290565b8281526040602082015260006138356040830184614a3b565b85815284602082015260a060408201526000614ebd60a0830186614a3b565b6001600160a01b0394909416606083015250608001529392505050565b604051601f8201601f1916810167ffffffffffffffff81118282101715614f0357614f03615104565b604052919050565b60008219821115614f1e57614f1e6150d8565b500190565b600082614f4057634e487b7160e01b600052601260045260246000fd5b500490565b600181815b80851115614f80578160001904821115614f6657614f666150d8565b80851615614f7357918102915b93841c9390800290614f4a565b509250929050565b60006118ed60ff841683600082614fa157506001610706565b81614fae57506000610706565b8160018114614fc45760028114614fce57614fea565b6001915050610706565b60ff841115614fdf57614fdf6150d8565b50506001821b610706565b5060208310610133831016604e8410600b841016171561500d575081810a610706565b6150178383614f45565b806000190482111561502b5761502b6150d8565b029392505050565b600081600019048311821515161561504d5761504d6150d8565b500290565b60006001600160a01b0383811690831681811015615072576150726150d8565b039392505050565b60008282101561508c5761508c6150d8565b500390565b60005b838110156150ac578181015183820152602001615094565b838111156150bb576000848401525b50505050565b6000816150d0576150d06150d8565b506000190190565b634e487b7160e01b600052601160045260246000fd5b634e487b7160e01b600052603260045260246000fd5b634e487b7160e01b600052604160045260246000fd5b6001600160a01b038116811461088f57600080fd5b801515811461088f57600080fdfe90c2aa7471c04182221f68e80c07ab1e5946e4c63f8693e14ca40385d529f051416464726573733a206c6f772d6c6576656c2064656c65676174652063616c6c206661696c6564a2646970667358221220ed2cdbe6c249042fc059b66d39ec9f909cc296728dcd3d8631abd55bb7ab06a364736f6c63430008060033",
  "devdoc": {
    "kind": "dev",
    "methods": {
      "constructor": {
        "custom:oz-upgrades-unsafe-allow": "constructor"
      },
      "getRoleAdmin(bytes32)": {
        "details": "Returns the admin role that controls `role`. See {grantRole} and {revokeRole}. To change a role's admin, use {_setRoleAdmin}."
      },
      "grantRole(bytes32,address)": {
        "details": "Grants `role` to `account`. If `account` had not been already granted `role`, emits a {RoleGranted} event. Requirements: - the caller must have ``role``'s admin role."
      },
      "hasRole(bytes32,address)": {
        "details": "Returns `true` if `account` has been granted `role`."
      },
      "renounceRole(bytes32,address)": {
        "details": "Revokes `role` from the calling account. Roles are often managed via {grantRole} and {revokeRole}: this function's purpose is to provide a mechanism for accounts to lose their privileges if they are compromised (such as when a trusted device is misplaced). If the calling account had been revoked `role`, emits a {RoleRevoked} event. Requirements: - the caller must be `account`."
      },
      "revokeRole(bytes32,address)": {
        "details": "Revokes `role` from `account`. If `account` had been granted `role`, emits a {RoleRevoked} event. Requirements: - the caller must have ``role``'s admin role."
      },
      "supportsInterface(bytes4)": {
        "details": "See {IERC165-supportsInterface}."
      },
      "upgradeTo(address)": {
        "details": "Upgrade the implementation of the proxy to `newImplementation`. Calls {_authorizeUpgrade}. Emits an {Upgraded} event."
      },
      "upgradeToAndCall(address,bytes)": {
        "details": "Upgrade the implementation of the proxy to `newImplementation`, and subsequently execute the function call encoded in `data`. Calls {_authorizeUpgrade}. Emits an {Upgraded} event."
      }
    },
    "version": 1
  },
  "userdoc": {
    "kind": "user",
    "methods": {
      "onERC721Received(address,address,uint256,bytes)": {
        "notice": "Used for ERC721 safeTransferFrom"
      }
    },
    "version": 1
  },
  "storageLayout": {
    "storage": [
      {
        "astId": 823,
        "contract": "contracts/strategies/StrategyIzumi.sol:StrategyIzumi",
        "label": "_initialized",
        "offset": 0,
        "slot": "0",
        "type": "t_bool"
      },
      {
        "astId": 826,
        "contract": "contracts/strategies/StrategyIzumi.sol:StrategyIzumi",
        "label": "_initializing",
        "offset": 1,
        "slot": "0",
        "type": "t_bool"
      },
      {
        "astId": 2943,
        "contract": "contracts/strategies/StrategyIzumi.sol:StrategyIzumi",
        "label": "__gap",
        "offset": 0,
        "slot": "1",
        "type": "t_array(t_uint256)50_storage"
      },
      {
        "astId": 3865,
        "contract": "contracts/strategies/StrategyIzumi.sol:StrategyIzumi",
        "label": "__gap",
        "offset": 0,
        "slot": "51",
        "type": "t_array(t_uint256)50_storage"
      },
      {
        "astId": 48,
        "contract": "contracts/strategies/StrategyIzumi.sol:StrategyIzumi",
        "label": "_roles",
        "offset": 0,
        "slot": "101",
        "type": "t_mapping(t_bytes32,t_struct(RoleData)43_storage)"
      },
      {
        "astId": 335,
        "contract": "contracts/strategies/StrategyIzumi.sol:StrategyIzumi",
        "label": "__gap",
        "offset": 0,
        "slot": "102",
        "type": "t_array(t_uint256)49_storage"
      },
      {
        "astId": 806,
        "contract": "contracts/strategies/StrategyIzumi.sol:StrategyIzumi",
        "label": "__gap",
        "offset": 0,
        "slot": "151",
        "type": "t_array(t_uint256)50_storage"
      },
      {
        "astId": 973,
        "contract": "contracts/strategies/StrategyIzumi.sol:StrategyIzumi",
        "label": "__gap",
        "offset": 0,
        "slot": "201",
        "type": "t_array(t_uint256)50_storage"
      },
      {
        "astId": 22202,
        "contract": "contracts/strategies/StrategyIzumi.sol:StrategyIzumi",
        "label": "portfolioManager",
        "offset": 0,
        "slot": "251",
        "type": "t_address"
      },
      {
        "astId": 22451,
        "contract": "contracts/strategies/StrategyIzumi.sol:StrategyIzumi",
        "label": "__gap",
        "offset": 0,
        "slot": "252",
        "type": "t_array(t_uint256)49_storage"
      },
      {
        "astId": 16244,
        "contract": "contracts/strategies/StrategyIzumi.sol:StrategyIzumi",
        "label": "uniswapRouter",
        "offset": 0,
        "slot": "301",
        "type": "t_contract(IUniswapV2Router02)20056"
      },
      {
        "astId": 16475,
        "contract": "contracts/strategies/StrategyIzumi.sol:StrategyIzumi",
        "label": "__gap",
        "offset": 0,
        "slot": "302",
        "type": "t_array(t_uint256)49_storage"
      },
      {
        "astId": 25326,
        "contract": "contracts/strategies/StrategyIzumi.sol:StrategyIzumi",
        "label": "usdcToken",
        "offset": 0,
        "slot": "351",
        "type": "t_contract(IERC20)8922"
      },
      {
        "astId": 25329,
        "contract": "contracts/strategies/StrategyIzumi.sol:StrategyIzumi",
        "label": "usdtToken",
        "offset": 0,
        "slot": "352",
        "type": "t_contract(IERC20)8922"
      },
      {
        "astId": 25332,
        "contract": "contracts/strategies/StrategyIzumi.sol:StrategyIzumi",
        "label": "iziToken",
        "offset": 0,
        "slot": "353",
        "type": "t_contract(IERC20)8922"
      },
      {
        "astId": 25335,
        "contract": "contracts/strategies/StrategyIzumi.sol:StrategyIzumi",
        "label": "yinToken",
        "offset": 0,
        "slot": "354",
        "type": "t_contract(IERC20)8922"
      },
      {
        "astId": 25338,
        "contract": "contracts/strategies/StrategyIzumi.sol:StrategyIzumi",
        "label": "wethToken",
        "offset": 0,
        "slot": "355",
        "type": "t_contract(IERC20)8922"
      },
      {
        "astId": 25341,
        "contract": "contracts/strategies/StrategyIzumi.sol:StrategyIzumi",
        "label": "uniswapToken",
        "offset": 0,
        "slot": "356",
        "type": "t_contract(IERC721)10138"
      },
      {
        "astId": 25343,
        "contract": "contracts/strategies/StrategyIzumi.sol:StrategyIzumi",
        "label": "usdcTokenDenominator",
        "offset": 0,
        "slot": "357",
        "type": "t_uint256"
      },
      {
        "astId": 25345,
        "contract": "contracts/strategies/StrategyIzumi.sol:StrategyIzumi",
        "label": "usdtTokenDenominator",
        "offset": 0,
        "slot": "358",
        "type": "t_uint256"
      },
      {
        "astId": 25347,
        "contract": "contracts/strategies/StrategyIzumi.sol:StrategyIzumi",
        "label": "iziTokenDenominator",
        "offset": 0,
        "slot": "359",
        "type": "t_uint256"
      },
      {
        "astId": 25349,
        "contract": "contracts/strategies/StrategyIzumi.sol:StrategyIzumi",
        "label": "yinTokenDenominator",
        "offset": 0,
        "slot": "360",
        "type": "t_uint256"
      },
      {
        "astId": 25351,
        "contract": "contracts/strategies/StrategyIzumi.sol:StrategyIzumi",
        "label": "tokenId",
        "offset": 0,
        "slot": "361",
        "type": "t_uint256"
      },
      {
        "astId": 25354,
        "contract": "contracts/strategies/StrategyIzumi.sol:StrategyIzumi",
        "label": "uniswapPositionManager",
        "offset": 0,
        "slot": "362",
        "type": "t_contract(INonfungiblePositionManager)20415"
      },
      {
        "astId": 25357,
        "contract": "contracts/strategies/StrategyIzumi.sol:StrategyIzumi",
        "label": "uniswapV3Pool",
        "offset": 0,
        "slot": "363",
        "type": "t_contract(IUniswapV3Pool)20658"
      },
      {
        "astId": 25360,
        "contract": "contracts/strategies/StrategyIzumi.sol:StrategyIzumi",
        "label": "izumiBoost",
        "offset": 0,
        "slot": "364",
        "type": "t_contract(MiningFixRangeBoost)18830"
      },
      {
        "astId": 25363,
        "contract": "contracts/strategies/StrategyIzumi.sol:StrategyIzumi",
        "label": "uniswapV3Router",
        "offset": 0,
        "slot": "365",
        "type": "t_contract(ISwapRouter)20515"
      }
    ],
    "types": {
      "t_address": {
        "encoding": "inplace",
        "label": "address",
        "numberOfBytes": "20"
      },
      "t_array(t_uint256)49_storage": {
        "base": "t_uint256",
        "encoding": "inplace",
        "label": "uint256[49]",
        "numberOfBytes": "1568"
      },
      "t_array(t_uint256)50_storage": {
        "base": "t_uint256",
        "encoding": "inplace",
        "label": "uint256[50]",
        "numberOfBytes": "1600"
      },
      "t_bool": {
        "encoding": "inplace",
        "label": "bool",
        "numberOfBytes": "1"
      },
      "t_bytes32": {
        "encoding": "inplace",
        "label": "bytes32",
        "numberOfBytes": "32"
      },
      "t_contract(IERC20)8922": {
        "encoding": "inplace",
        "label": "contract IERC20",
        "numberOfBytes": "20"
      },
      "t_contract(IERC721)10138": {
        "encoding": "inplace",
        "label": "contract IERC721",
        "numberOfBytes": "20"
      },
      "t_contract(INonfungiblePositionManager)20415": {
        "encoding": "inplace",
        "label": "contract INonfungiblePositionManager",
        "numberOfBytes": "20"
      },
      "t_contract(ISwapRouter)20515": {
        "encoding": "inplace",
        "label": "contract ISwapRouter",
        "numberOfBytes": "20"
      },
      "t_contract(IUniswapV2Router02)20056": {
        "encoding": "inplace",
        "label": "contract IUniswapV2Router02",
        "numberOfBytes": "20"
      },
      "t_contract(IUniswapV3Pool)20658": {
        "encoding": "inplace",
        "label": "contract IUniswapV3Pool",
        "numberOfBytes": "20"
      },
      "t_contract(MiningFixRangeBoost)18830": {
        "encoding": "inplace",
        "label": "contract MiningFixRangeBoost",
        "numberOfBytes": "20"
      },
      "t_mapping(t_address,t_bool)": {
        "encoding": "mapping",
        "key": "t_address",
        "label": "mapping(address => bool)",
        "numberOfBytes": "32",
        "value": "t_bool"
      },
      "t_mapping(t_bytes32,t_struct(RoleData)43_storage)": {
        "encoding": "mapping",
        "key": "t_bytes32",
        "label": "mapping(bytes32 => struct AccessControlUpgradeable.RoleData)",
        "numberOfBytes": "32",
        "value": "t_struct(RoleData)43_storage"
      },
      "t_struct(RoleData)43_storage": {
        "encoding": "inplace",
        "label": "struct AccessControlUpgradeable.RoleData",
        "members": [
          {
            "astId": 40,
            "contract": "contracts/strategies/StrategyIzumi.sol:StrategyIzumi",
            "label": "members",
            "offset": 0,
            "slot": "0",
            "type": "t_mapping(t_address,t_bool)"
          },
          {
            "astId": 42,
            "contract": "contracts/strategies/StrategyIzumi.sol:StrategyIzumi",
            "label": "adminRole",
            "offset": 0,
            "slot": "1",
            "type": "t_bytes32"
          }
        ],
        "numberOfBytes": "64"
      },
      "t_uint256": {
        "encoding": "inplace",
        "label": "uint256",
        "numberOfBytes": "32"
      }
    }
  }
}