{
  "address": "0x29feaaEbEBa8C5778FD77fb7197A3c6386f0ae20",
  "abi": [
    {
      "inputs": [],
      "stateMutability": "nonpayable",
      "type": "constructor"
    },
    {
      "anonymous": false,
      "inputs": [
        {
          "indexed": false,
          "internalType": "string",
          "name": "value",
          "type": "string"
        }
      ],
      "name": "Action",
      "type": "event"
    },
    {
      "anonymous": false,
      "inputs": [
        {
          "indexed": false,
          "internalType": "address",
          "name": "previousAdmin",
          "type": "address"
        },
        {
          "indexed": false,
          "internalType": "address",
          "name": "newAdmin",
          "type": "address"
        }
      ],
      "name": "AdminChanged",
      "type": "event"
    },
    {
      "anonymous": false,
      "inputs": [
        {
          "indexed": false,
          "internalType": "address",
          "name": "token",
          "type": "address"
        },
        {
          "indexed": false,
          "internalType": "uint256",
          "name": "amount",
          "type": "uint256"
        }
      ],
      "name": "Balance",
      "type": "event"
    },
    {
      "anonymous": false,
      "inputs": [
        {
          "indexed": true,
          "internalType": "address",
          "name": "beacon",
          "type": "address"
        }
      ],
      "name": "BeaconUpgraded",
      "type": "event"
    },
    {
      "anonymous": false,
      "inputs": [
        {
          "indexed": false,
          "internalType": "address",
          "name": "exchange",
          "type": "address"
        },
        {
          "indexed": false,
          "internalType": "string",
          "name": "code",
          "type": "string"
        },
        {
          "indexed": false,
          "internalType": "address[]",
          "name": "tokens",
          "type": "address[]"
        },
        {
          "indexed": false,
          "internalType": "uint256[]",
          "name": "balancesBefore",
          "type": "uint256[]"
        },
        {
          "indexed": false,
          "internalType": "uint256[]",
          "name": "balancesAfter",
          "type": "uint256[]"
        }
      ],
      "name": "Exchange",
      "type": "event"
    },
    {
      "anonymous": false,
      "inputs": [
        {
          "indexed": false,
          "internalType": "address",
          "name": "value",
          "type": "address"
        }
      ],
      "name": "PortfolioManagerUpdated",
      "type": "event"
    },
    {
      "anonymous": false,
      "inputs": [
        {
          "indexed": false,
          "internalType": "uint256",
          "name": "amount",
          "type": "uint256"
        }
      ],
      "name": "Reward",
      "type": "event"
    },
    {
      "anonymous": false,
      "inputs": [
        {
          "indexed": true,
          "internalType": "bytes32",
          "name": "role",
          "type": "bytes32"
        },
        {
          "indexed": true,
          "internalType": "bytes32",
          "name": "previousAdminRole",
          "type": "bytes32"
        },
        {
          "indexed": true,
          "internalType": "bytes32",
          "name": "newAdminRole",
          "type": "bytes32"
        }
      ],
      "name": "RoleAdminChanged",
      "type": "event"
    },
    {
      "anonymous": false,
      "inputs": [
        {
          "indexed": true,
          "internalType": "bytes32",
          "name": "role",
          "type": "bytes32"
        },
        {
          "indexed": true,
          "internalType": "address",
          "name": "account",
          "type": "address"
        },
        {
          "indexed": true,
          "internalType": "address",
          "name": "sender",
          "type": "address"
        }
      ],
      "name": "RoleGranted",
      "type": "event"
    },
    {
      "anonymous": false,
      "inputs": [
        {
          "indexed": true,
          "internalType": "bytes32",
          "name": "role",
          "type": "bytes32"
        },
        {
          "indexed": true,
          "internalType": "address",
          "name": "account",
          "type": "address"
        },
        {
          "indexed": true,
          "internalType": "address",
          "name": "sender",
          "type": "address"
        }
      ],
      "name": "RoleRevoked",
      "type": "event"
    },
    {
      "anonymous": false,
      "inputs": [
        {
          "indexed": false,
          "internalType": "uint256",
          "name": "amount",
          "type": "uint256"
        }
      ],
      "name": "Stake",
      "type": "event"
    },
    {
      "anonymous": false,
      "inputs": [
        {
          "indexed": false,
          "internalType": "address",
          "name": "balancerVault",
          "type": "address"
        },
        {
          "indexed": false,
          "internalType": "address",
          "name": "uniswapRouter",
          "type": "address"
        },
        {
          "indexed": false,
          "internalType": "bytes32",
          "name": "balancerPoolId1",
          "type": "bytes32"
        },
        {
          "indexed": false,
          "internalType": "bytes32",
          "name": "balancerPoolId2",
          "type": "bytes32"
        }
      ],
      "name": "StrategyMStableUpdatedParams",
      "type": "event"
    },
    {
      "anonymous": false,
      "inputs": [
        {
          "indexed": false,
          "internalType": "address",
          "name": "usdcToken",
          "type": "address"
        },
        {
          "indexed": false,
          "internalType": "address",
          "name": "mUsdToken",
          "type": "address"
        },
        {
          "indexed": false,
          "internalType": "address",
          "name": "imUsdToken",
          "type": "address"
        },
        {
          "indexed": false,
          "internalType": "address",
          "name": "vimUsdToken",
          "type": "address"
        },
        {
          "indexed": false,
          "internalType": "address",
          "name": "mtaToken",
          "type": "address"
        },
        {
          "indexed": false,
          "internalType": "address",
          "name": "wmaticToken",
          "type": "address"
        },
        {
          "indexed": false,
          "internalType": "uint256",
          "name": "usdcTokenDenominator",
          "type": "uint256"
        },
        {
          "indexed": false,
          "internalType": "uint256",
          "name": "vimUsdTokenDenominator",
          "type": "uint256"
        },
        {
          "indexed": false,
          "internalType": "uint256",
          "name": "wmaticTokenDenominator",
          "type": "uint256"
        }
      ],
      "name": "StrategyMStableUpdatedTokens",
      "type": "event"
    },
    {
      "anonymous": false,
      "inputs": [
        {
          "indexed": false,
          "internalType": "address",
          "name": "exchange",
          "type": "address"
        },
        {
          "indexed": false,
          "internalType": "uint256",
          "name": "amountSend",
          "type": "uint256"
        },
        {
          "indexed": false,
          "internalType": "address",
          "name": "tokenSend",
          "type": "address"
        },
        {
          "indexed": false,
          "internalType": "uint256",
          "name": "amountReceived",
          "type": "uint256"
        },
        {
          "indexed": false,
          "internalType": "address",
          "name": "tokenReceived",
          "type": "address"
        }
      ],
      "name": "Swap",
      "type": "event"
    },
    {
      "anonymous": false,
      "inputs": [
        {
          "indexed": false,
          "internalType": "uint256",
          "name": "amount",
          "type": "uint256"
        },
        {
          "indexed": false,
          "internalType": "uint256",
          "name": "amountReceived",
          "type": "uint256"
        }
      ],
      "name": "Unstake",
      "type": "event"
    },
    {
      "anonymous": false,
      "inputs": [
        {
          "indexed": true,
          "internalType": "address",
          "name": "implementation",
          "type": "address"
        }
      ],
      "name": "Upgraded",
      "type": "event"
    },
    {
      "inputs": [],
      "name": "DEFAULT_ADMIN_ROLE",
      "outputs": [
        {
          "internalType": "bytes32",
          "name": "",
          "type": "bytes32"
        }
      ],
      "stateMutability": "view",
      "type": "function"
    },
    {
      "inputs": [],
      "name": "MAX_VALUE",
      "outputs": [
        {
          "internalType": "int256",
          "name": "",
          "type": "int256"
        }
      ],
      "stateMutability": "view",
      "type": "function"
    },
    {
      "inputs": [],
      "name": "PORTFOLIO_MANAGER",
      "outputs": [
        {
          "internalType": "bytes32",
          "name": "",
          "type": "bytes32"
        }
      ],
      "stateMutability": "view",
      "type": "function"
    },
    {
      "inputs": [],
      "name": "UPGRADER_ROLE",
      "outputs": [
        {
          "internalType": "bytes32",
          "name": "",
          "type": "bytes32"
        }
      ],
      "stateMutability": "view",
      "type": "function"
    },
    {
      "inputs": [],
      "name": "balancerPoolId1",
      "outputs": [
        {
          "internalType": "bytes32",
          "name": "",
          "type": "bytes32"
        }
      ],
      "stateMutability": "view",
      "type": "function"
    },
    {
      "inputs": [],
      "name": "balancerPoolId2",
      "outputs": [
        {
          "internalType": "bytes32",
          "name": "",
          "type": "bytes32"
        }
      ],
      "stateMutability": "view",
      "type": "function"
    },
    {
      "inputs": [
        {
          "internalType": "address",
          "name": "_to",
          "type": "address"
        }
      ],
      "name": "claimRewards",
      "outputs": [
        {
          "internalType": "uint256",
          "name": "",
          "type": "uint256"
        }
      ],
      "stateMutability": "nonpayable",
      "type": "function"
    },
    {
      "inputs": [
        {
          "internalType": "bytes32",
          "name": "role",
          "type": "bytes32"
        }
      ],
      "name": "getRoleAdmin",
      "outputs": [
        {
          "internalType": "bytes32",
          "name": "",
          "type": "bytes32"
        }
      ],
      "stateMutability": "view",
      "type": "function"
    },
    {
      "inputs": [
        {
          "internalType": "bytes32",
          "name": "role",
          "type": "bytes32"
        },
        {
          "internalType": "address",
          "name": "account",
          "type": "address"
        }
      ],
      "name": "grantRole",
      "outputs": [],
      "stateMutability": "nonpayable",
      "type": "function"
    },
    {
      "inputs": [
        {
          "internalType": "bytes32",
          "name": "role",
          "type": "bytes32"
        },
        {
          "internalType": "address",
          "name": "account",
          "type": "address"
        }
      ],
      "name": "hasRole",
      "outputs": [
        {
          "internalType": "bool",
          "name": "",
          "type": "bool"
        }
      ],
      "stateMutability": "view",
      "type": "function"
    },
    {
      "inputs": [],
      "name": "imUsdToken",
      "outputs": [
        {
          "internalType": "contract ISavingsContractV2",
          "name": "",
          "type": "address"
        }
      ],
      "stateMutability": "view",
      "type": "function"
    },
    {
      "inputs": [],
      "name": "initialize",
      "outputs": [],
      "stateMutability": "nonpayable",
      "type": "function"
    },
    {
      "inputs": [],
      "name": "liquidationValue",
      "outputs": [
        {
          "internalType": "uint256",
          "name": "",
          "type": "uint256"
        }
      ],
      "stateMutability": "view",
      "type": "function"
    },
    {
      "inputs": [],
      "name": "mUsdToken",
      "outputs": [
        {
          "internalType": "contract IMasset",
          "name": "",
          "type": "address"
        }
      ],
      "stateMutability": "view",
      "type": "function"
    },
    {
      "inputs": [],
      "name": "mtaToken",
      "outputs": [
        {
          "internalType": "contract IERC20",
          "name": "",
          "type": "address"
        }
      ],
      "stateMutability": "view",
      "type": "function"
    },
    {
      "inputs": [],
      "name": "netAssetValue",
      "outputs": [
        {
          "internalType": "uint256",
          "name": "",
          "type": "uint256"
        }
      ],
      "stateMutability": "view",
      "type": "function"
    },
    {
      "inputs": [],
      "name": "portfolioManager",
      "outputs": [
        {
          "internalType": "address",
          "name": "",
          "type": "address"
        }
      ],
      "stateMutability": "view",
      "type": "function"
    },
    {
      "inputs": [
        {
          "internalType": "bytes32",
          "name": "role",
          "type": "bytes32"
        },
        {
          "internalType": "address",
          "name": "account",
          "type": "address"
        }
      ],
      "name": "renounceRole",
      "outputs": [],
      "stateMutability": "nonpayable",
      "type": "function"
    },
    {
      "inputs": [
        {
          "internalType": "bytes32",
          "name": "role",
          "type": "bytes32"
        },
        {
          "internalType": "address",
          "name": "account",
          "type": "address"
        }
      ],
      "name": "revokeRole",
      "outputs": [],
      "stateMutability": "nonpayable",
      "type": "function"
    },
    {
      "inputs": [
        {
          "internalType": "address",
          "name": "_balancerVault",
          "type": "address"
        },
        {
          "internalType": "address",
          "name": "_uniswapRouter",
          "type": "address"
        },
        {
          "internalType": "bytes32",
          "name": "_balancerPoolId1",
          "type": "bytes32"
        },
        {
          "internalType": "bytes32",
          "name": "_balancerPoolId2",
          "type": "bytes32"
        }
      ],
      "name": "setParams",
      "outputs": [],
      "stateMutability": "nonpayable",
      "type": "function"
    },
    {
      "inputs": [
        {
          "internalType": "address",
          "name": "_value",
          "type": "address"
        }
      ],
      "name": "setPortfolioManager",
      "outputs": [],
      "stateMutability": "nonpayable",
      "type": "function"
    },
    {
      "inputs": [
        {
          "internalType": "address",
          "name": "_usdcToken",
          "type": "address"
        },
        {
          "internalType": "address",
          "name": "_mUsdToken",
          "type": "address"
        },
        {
          "internalType": "address",
          "name": "_imUsdToken",
          "type": "address"
        },
        {
          "internalType": "address",
          "name": "_vimUsdToken",
          "type": "address"
        },
        {
          "internalType": "address",
          "name": "_mtaToken",
          "type": "address"
        },
        {
          "internalType": "address",
          "name": "_wmaticToken",
          "type": "address"
        }
      ],
      "name": "setTokens",
      "outputs": [],
      "stateMutability": "nonpayable",
      "type": "function"
    },
    {
      "inputs": [
        {
          "internalType": "address",
          "name": "_asset",
          "type": "address"
        },
        {
          "internalType": "uint256",
          "name": "_amount",
          "type": "uint256"
        }
      ],
      "name": "stake",
      "outputs": [],
      "stateMutability": "nonpayable",
      "type": "function"
    },
    {
      "inputs": [
        {
          "internalType": "bytes4",
          "name": "interfaceId",
          "type": "bytes4"
        }
      ],
      "name": "supportsInterface",
      "outputs": [
        {
          "internalType": "bool",
          "name": "",
          "type": "bool"
        }
      ],
      "stateMutability": "view",
      "type": "function"
    },
    {
      "inputs": [
        {
          "internalType": "address",
          "name": "_asset",
          "type": "address"
        },
        {
          "internalType": "uint256",
          "name": "_amount",
          "type": "uint256"
        },
        {
          "internalType": "address",
          "name": "_beneficiary",
          "type": "address"
        },
        {
          "internalType": "bool",
          "name": "_targetIsZero",
          "type": "bool"
        }
      ],
      "name": "unstake",
      "outputs": [
        {
          "internalType": "uint256",
          "name": "",
          "type": "uint256"
        }
      ],
      "stateMutability": "nonpayable",
      "type": "function"
    },
    {
      "inputs": [
        {
          "internalType": "address",
          "name": "newImplementation",
          "type": "address"
        }
      ],
      "name": "upgradeTo",
      "outputs": [],
      "stateMutability": "nonpayable",
      "type": "function"
    },
    {
      "inputs": [
        {
          "internalType": "address",
          "name": "newImplementation",
          "type": "address"
        },
        {
          "internalType": "bytes",
          "name": "data",
          "type": "bytes"
        }
      ],
      "name": "upgradeToAndCall",
      "outputs": [],
      "stateMutability": "payable",
      "type": "function"
    },
    {
      "inputs": [],
      "name": "usdcToken",
      "outputs": [
        {
          "internalType": "contract IERC20",
          "name": "",
          "type": "address"
        }
      ],
      "stateMutability": "view",
      "type": "function"
    },
    {
      "inputs": [],
      "name": "usdcTokenDenominator",
      "outputs": [
        {
          "internalType": "uint256",
          "name": "",
          "type": "uint256"
        }
      ],
      "stateMutability": "view",
      "type": "function"
    },
    {
      "inputs": [],
      "name": "vimUsdToken",
      "outputs": [
        {
          "internalType": "contract IBoostedVaultWithLockup",
          "name": "",
          "type": "address"
        }
      ],
      "stateMutability": "view",
      "type": "function"
    },
    {
      "inputs": [],
      "name": "vimUsdTokenDenominator",
      "outputs": [
        {
          "internalType": "uint256",
          "name": "",
          "type": "uint256"
        }
      ],
      "stateMutability": "view",
      "type": "function"
    },
    {
      "inputs": [],
      "name": "wmaticToken",
      "outputs": [
        {
          "internalType": "contract IERC20",
          "name": "",
          "type": "address"
        }
      ],
      "stateMutability": "view",
      "type": "function"
    },
    {
      "inputs": [],
      "name": "wmaticTokenDenominator",
      "outputs": [
        {
          "internalType": "uint256",
          "name": "",
          "type": "uint256"
        }
      ],
      "stateMutability": "view",
      "type": "function"
    }
  ],
  "solcInputHash": "18484f8c5ac3ff3b4f6e7da12f23d7e1",
  "bytecode": "0x60a06040523060601b6080523480156200001857600080fd5b50600054610100900460ff168062000033575060005460ff16155b6200009b5760405162461bcd60e51b815260206004820152602e60248201527f496e697469616c697a61626c653a20636f6e747261637420697320616c72656160448201526d191e481a5b9a5d1a585b1a5e995960921b606482015260840160405180910390fd5b600054610100900460ff16158015620000be576000805461ffff19166101011790555b8015620000d1576000805461ff00191690555b5060805160601c61427c6200010660003960008181610967015281816109a701528181610a300152610a70015261427c6000f3fe6080604052600436106101ee5760003560e01c80637d5f58021161010d578063abf4be01116100a0578063d547741f1161006f578063d547741f1461056b578063ef5cfb8c1461058b578063f6f6b881146105ab578063f72c0d8b146105cb578063fddf5af8146105ff57600080fd5b8063abf4be01146104e8578063adc9772e14610509578063c0cbad4514610529578063ceda99721461054a57600080fd5b8063a217fddf116100dc578063a217fddf1461047e578063a3673b3814610493578063a440b21a146104a8578063a7ab2e4d146104c857600080fd5b80637d5f5802146104065780638129fc1c1461042857806391d148541461043d5780639de3c8271461045d57600080fd5b80632bb20a35116101855780633659cfe6116101545780633659cfe61461039c5780634f1ef286146103bc578063620b75df146103cf57806362b67652146103ef57600080fd5b80632bb20a351461032e5780632bd4786a146103455780632f2ff15d1461035c57806336568abe1461037c57600080fd5b806311eac855116101c157806311eac855146102a657806320ee1d40146102c7578063248a9ca3146102e95780632576e65a1461031957600080fd5b806301ffc9a7146101f357806305bee8ac14610228578063063bde241461026157806306da3f2e1461028f575b600080fd5b3480156101ff57600080fd5b5061021361020e366004613a12565b610616565b60405190151581526020015b60405180910390f35b34801561023457600080fd5b5061019254610249906001600160a01b031681565b6040516001600160a01b03909116815260200161021f565b34801561026d57600080fd5b506102816b033b2e3c9fd0803ce800000081565b60405190815260200161021f565b34801561029b57600080fd5b506102816101975481565b3480156102b257600080fd5b5061019154610249906001600160a01b031681565b3480156102d357600080fd5b506102e76102e23660046137b2565b61064d565b005b3480156102f557600080fd5b506102816103043660046139cd565b60009081526065602052604090206001015490565b34801561032557600080fd5b506102816107f7565b34801561033a57600080fd5b5061028161019b5481565b34801561035157600080fd5b506102816101985481565b34801561036857600080fd5b506102e76103773660046139e6565b6108b3565b34801561038857600080fd5b506102e76103973660046139e6565b6108de565b3480156103a857600080fd5b506102e76103b7366004613723565b61095c565b6102e76103ca3660046137f4565b610a25565b3480156103db57600080fd5b5060fb54610249906001600160a01b031681565b3480156103fb57600080fd5b506102816101995481565b34801561041257600080fd5b5061028160008051602061420083398151915281565b34801561043457600080fd5b506102e7610adb565b34801561044957600080fd5b506102136104583660046139e6565b610b4e565b34801561046957600080fd5b5061019554610249906001600160a01b031681565b34801561048a57600080fd5b50610281600081565b34801561049f57600080fd5b50610281610b79565b3480156104b457600080fd5b506102e76104c3366004613723565b610c13565b3480156104d457600080fd5b506102e76104e336600461373e565b610cf1565b3480156104f457600080fd5b5061019654610249906001600160a01b031681565b34801561051557600080fd5b506102e761052436600461389a565b611075565b34801561053557600080fd5b5061019354610249906001600160a01b031681565b34801561055657600080fd5b5061019454610249906001600160a01b031681565b34801561057757600080fd5b506102e76105863660046139e6565b61115e565b34801561059757600080fd5b506102816105a6366004613723565b611184565b3480156105b757600080fd5b506102816105c63660046138c4565b611208565b3480156105d757600080fd5b506102817f189ab7a9244df0848122154315af71fe140f3db0fe014031783b0946b8c9d2e381565b34801561060b57600080fd5b5061028161019a5481565b60006001600160e01b03198216637965db0b60e01b148061064757506301ffc9a760e01b6001600160e01b03198316145b92915050565b610658600033610b4e565b61067d5760405162461bcd60e51b815260040161067490613eb7565b60405180910390fd5b6001600160a01b0384166106a35760405162461bcd60e51b815260040161067490613f1c565b6001600160a01b0383166106c95760405162461bcd60e51b815260040161067490613f1c565b816107125760405162461bcd60e51b8152602060048201526019602482015278115b5c1d1e481c1bdbdb081a59081b9bdd08185b1b1bddd959603a1b6044820152606401610674565b8061075b5760405162461bcd60e51b8152602060048201526019602482015278115b5c1d1e481c1bdbdb081a59081b9bdd08185b1b1bddd959603a1b6044820152606401610674565b61012d80546001600160a01b0319166001600160a01b03861617905561015f80546001600160a01b0319166001600160a01b03851617905561019a82905561019b819055604080516001600160a01b03808716825285166020820152908101839052606081018290527fe9c1d48e3fd42c7ac3a9f4a5cce93549d6637476ef179420c287d089f3d5df5b9060800160405180910390a150505050565b610194546040516370a0823160e01b815230600482015260009182916001600160a01b03909116906370a082319060240160206040518083038186803b15801561084057600080fd5b505afa158015610854573d6000803e3d6000fd5b505050506040513d601f19601f820116820180604052508101906108789190613a3c565b90508061088757600091505090565b6000610891611407565b610198549091506108a2828461410c565b6108ac9190613ffc565b9250505090565b6000828152606560205260409020600101546108cf8133611523565b6108d98383611587565b505050565b6001600160a01b038116331461094e5760405162461bcd60e51b815260206004820152602f60248201527f416363657373436f6e74726f6c3a2063616e206f6e6c792072656e6f756e636560448201526e103937b632b9903337b91039b2b63360891b6064820152608401610674565b610958828261160d565b5050565b306001600160a01b037f00000000000000000000000000000000000000000000000000000000000000001614156109a55760405162461bcd60e51b815260040161067490613dd1565b7f00000000000000000000000000000000000000000000000000000000000000006001600160a01b03166109d7611674565b6001600160a01b0316146109fd5760405162461bcd60e51b815260040161067490613e1d565b610a06816116a2565b60408051600080825260208201909252610a22918391906116cd565b50565b306001600160a01b037f0000000000000000000000000000000000000000000000000000000000000000161415610a6e5760405162461bcd60e51b815260040161067490613dd1565b7f00000000000000000000000000000000000000000000000000000000000000006001600160a01b0316610aa0611674565b6001600160a01b031614610ac65760405162461bcd60e51b815260040161067490613e1d565b610acf826116a2565b610958828260016116cd565b600054610100900460ff1680610af4575060005460ff16155b610b105760405162461bcd60e51b815260040161067490613e69565b600054610100900460ff16158015610b32576000805461ffff19166101011790555b610b3a611818565b8015610a22576000805461ff001916905550565b60009182526065602090815260408084206001600160a01b0393909316845291905290205460ff1690565b610194546040516370a0823160e01b815230600482015260009182916001600160a01b03909116906370a082319060240160206040518083038186803b158015610bc257600080fd5b505afa158015610bd6573d6000803e3d6000fd5b505050506040513d601f19601f82011682018060405250810190610bfa9190613a3c565b905080610c0957600091505090565b60006108916118b4565b610c1e600033610b4e565b610c3a5760405162461bcd60e51b815260040161067490613eb7565b6001600160a01b038116610c605760405162461bcd60e51b815260040161067490613f1c565b60fb54610c8590600080516020614200833981519152906001600160a01b031661115e565b610c9d600080516020614200833981519152826108b3565b60fb80546001600160a01b0319166001600160a01b0383169081179091556040519081527ff7b449fcd5cfb7379dcd34cb69428dd9f882033b15be33d83b42d91daa28eeb79060200160405180910390a150565b610cfc600033610b4e565b610d185760405162461bcd60e51b815260040161067490613eb7565b6001600160a01b038616610d3e5760405162461bcd60e51b815260040161067490613f1c565b6001600160a01b038516610d645760405162461bcd60e51b815260040161067490613f1c565b6001600160a01b038416610d8a5760405162461bcd60e51b815260040161067490613f1c565b6001600160a01b038316610db05760405162461bcd60e51b815260040161067490613f1c565b6001600160a01b038216610dd65760405162461bcd60e51b815260040161067490613f1c565b6001600160a01b038116610dfc5760405162461bcd60e51b815260040161067490613f1c565b61019180546001600160a01b03199081166001600160a01b038981169182179093556101928054831689851617905561019380548316888516179055610194805483168785161790556101958054831686851617905561019680549092169284169290921790556040805163313ce56760e01b8152905163313ce56791600480820192602092909190829003018186803b158015610e9957600080fd5b505afa158015610ead573d6000803e3d6000fd5b505050506040513d601f19601f82011682018060405250810190610ed19190613a55565b610edc90600a614061565b61019781905550826001600160a01b031663313ce5676040518163ffffffff1660e01b815260040160206040518083038186803b158015610f1c57600080fd5b505afa158015610f30573d6000803e3d6000fd5b505050506040513d601f19601f82011682018060405250810190610f549190613a55565b610f5f90600a614061565b61019881905550806001600160a01b031663313ce5676040518163ffffffff1660e01b815260040160206040518083038186803b158015610f9f57600080fd5b505afa158015610fb3573d6000803e3d6000fd5b505050506040513d601f19601f82011682018060405250810190610fd79190613a55565b610fe290600a614061565b6101998190556101975461019854604080516001600160a01b038b811682528a811660208301528981168284015288811660608301528781166080830152861660a082015260c081019390935260e083019190915261010082019290925290517fc14eba727320defba5080b6bc1f6d758f4ce610650c57054fdb30f726f571fac918190036101200190a1505050505050565b61108d60008051602061420083398151915233610b4e565b6110a95760405162461bcd60e51b815260040161067490613d9a565b6040518181527f227a473b70d2f893cc7659219575c030a63b5743024fe1e0c1a680e708b1525a9060200160405180910390a16040516370a0823160e01b81523060048201526109589083906001600160a01b038216906370a082319060240160206040518083038186803b15801561112157600080fd5b505afa158015611135573d6000803e3d6000fd5b505050506040513d601f19601f820116820180604052508101906111599190613a3c565b6119de565b60008281526065602052604090206001015461117a8133611523565b6108d9838361160d565b600061119e60008051602061420083398151915233610b4e565b6111ba5760405162461bcd60e51b815260040161067490613d9a565b60006111c583611f47565b90507f3ac0594a85a20354f9dc74f33728416d19ce00d04a406c108cc2dcf2cecea134816040516111f891815260200190565b60405180910390a190505b919050565b600061122260008051602061420083398151915233610b4e565b61123e5760405162461bcd60e51b815260040161067490613d9a565b60008215611257576112508685612236565b90506112c6565b6112628686866125be565b9050848110156112c65760405162461bcd60e51b815260206004820152602960248201527f52657475726e65642076616c7565206c657373207468616e2072657175657374604482015268195908185b5bdd5b9d60ba1b6064820152608401610674565b6040516370a0823160e01b81523060048201526000906001600160a01b038816906370a082319060240160206040518083038186803b15801561130857600080fd5b505afa15801561131c573d6000803e3d6000fd5b505050506040513d601f19601f820116820180604052508101906113409190613a3c565b60405163a9059cbb60e01b81529091506001600160a01b0388169063a9059cbb906113719088908590600401613c13565b602060405180830381600087803b15801561138b57600080fd5b505af115801561139f573d6000803e3d6000fd5b505050506040513d601f19601f820116820180604052508101906113c391906139b0565b5060408051878152602081018390527f9045c2ac9b2026de8075f2701bbdde882cd5e830b3b1ead9a15b22f2b5b93742910160405180910390a19695505050505050565b6101935461019854604051633bc0d82d60e11b815260009283926001600160a01b0390911691637781b05a916114439160040190815260200190565b60206040518083038186803b15801561145b57600080fd5b505afa15801561146f573d6000803e3d6000fd5b505050506040513d601f19601f820116820180604052508101906114939190613a3c565b6101925461019154604051633c554c3f60e11b81529293506001600160a01b03918216926378aa987e926114cd9216908590600401613c13565b60206040518083038186803b1580156114e557600080fd5b505afa1580156114f9573d6000803e3d6000fd5b505050506040513d601f19601f8201168201806040525081019061151d9190613a3c565b91505090565b61152d8282610b4e565b61095857611545816001600160a01b031660146128ef565b6115508360206128ef565b604051602001611561929190613b34565b60408051601f198184030181529082905262461bcd60e51b825261067491600401613d87565b6115918282610b4e565b6109585760008281526065602090815260408083206001600160a01b03851684529091529020805460ff191660011790556115c93390565b6001600160a01b0316816001600160a01b0316837f2f8788117e7eff1d82e926ec794901d17c78024a50270940304540a733656f0d60405160405180910390a45050565b6116178282610b4e565b156109585760008281526065602090815260408083206001600160a01b0385168085529252808320805460ff1916905551339285917ff6391f5c32d9c69d2a47ea670b442974b53935d1edc7fd64eb21e047a839171b9190a45050565b7f360894a13ba1a3210667c828492db98dca3e2076cc3735a920a3ca505d382bbc546001600160a01b031690565b7f189ab7a9244df0848122154315af71fe140f3db0fe014031783b0946b8c9d2e36109588133611523565b60006116d7611674565b90506116e284612a8b565b6000835111806116ef5750815b15611700576116fe8484612b30565b505b7f4910fdfa16fed3260ed0e7147f7cc6da11a60208b5b9406d12a635614ffd9143805460ff1661181157805460ff191660011781556040516001600160a01b038316602482015261177f90869060440160408051601f198184030181529190526020810180516001600160e01b0316631b2ce7f360e11b179052612b30565b50805460ff19168155611790611674565b6001600160a01b0316826001600160a01b0316146118085760405162461bcd60e51b815260206004820152602f60248201527f45524331393637557067726164653a207570677261646520627265616b73206660448201526e75727468657220757067726164657360881b6064820152608401610674565b61181185612c12565b5050505050565b600054610100900460ff1680611831575060005460ff16155b61184d5760405162461bcd60e51b815260040161067490613e69565b600054610100900460ff1615801561186f576000805461ffff19166101011790555b611877612c52565b61187f612cc1565b61188a600033611587565b610b3a7f189ab7a9244df0848122154315af71fe140f3db0fe014031783b0946b8c9d2e333611587565b61019254610191546101975460405163119849cf60e01b815260009384936001600160a01b039182169363119849cf936118f49390921691600401613c13565b60206040518083038186803b15801561190c57600080fd5b505afa158015611920573d6000803e3d6000fd5b505050506040513d601f19601f820116820180604052508101906119449190613a3c565b6101935460405163087c71b560e31b8152600481018390529192506001600160a01b0316906343e38da89060240160206040518083038186803b15801561198a57600080fd5b505afa15801561199e573d6000803e3d6000fd5b505050506040513d601f19601f820116820180604052508101906119c29190613a3c565b61019854610197546119d4919061410c565b61151d9190613ffc565b610191546001600160a01b03838116911614611a0c5760405162461bcd60e51b815260040161067490613ee5565b610191546101925460405163095ea7b360e01b81526001600160a01b039283169263095ea7b392611a44929116908590600401613c13565b602060405180830381600087803b158015611a5e57600080fd5b505af1158015611a72573d6000803e3d6000fd5b505050506040513d601f19601f82011682018060405250810190611a9691906139b0565b50610191546040516370a0823160e01b81523060048201526000916001600160a01b0316906370a082319060240160206040518083038186803b158015611adc57600080fd5b505afa158015611af0573d6000803e3d6000fd5b505050506040513d601f19601f82011682018060405250810190611b149190613a3c565b610192546040516370a0823160e01b81523060048201529192506000916001600160a01b03909116906370a082319060240160206040518083038186803b158015611b5e57600080fd5b505afa158015611b72573d6000803e3d6000fd5b505050506040513d601f19601f82011682018060405250810190611b969190613a3c565b6101915461019254919250600091611bba916001600160a01b039081169116612d1f565b6101925461019154604051637ba5ff4760e11b81529293506000926001600160a01b039283169263f74bfe8e92611bfc92911690899086903090600401613c2c565b602060405180830381600087803b158015611c1657600080fd5b505af1158015611c2a573d6000803e3d6000fd5b505050506040513d601f19601f82011682018060405250810190611c4e9190613a3c565b610192546040805180820190915260048152631b5a5b9d60e21b6020820152919250611c859184916001600160a01b031690612f57565b6101925461019354611ca3916001600160a01b039081169116612d1f565b610192546101935460405163095ea7b360e01b81529294506001600160a01b039182169263095ea7b392611cdd9216908590600401613c13565b602060405180830381600087803b158015611cf757600080fd5b505af1158015611d0b573d6000803e3d6000fd5b505050506040513d601f19601f82011682018060405250810190611d2f91906139b0565b506101935460405163590745c560e01b8152600481018390523060248201526000916001600160a01b03169063590745c590604401602060405180830381600087803b158015611d7e57600080fd5b505af1158015611d92573d6000803e3d6000fd5b505050506040513d601f19601f82011682018060405250810190611db69190613a3c565b6101935460408051808201909152600e81526d6465706f736974536176696e677360901b6020820152919250611df79185916001600160a01b031690612f57565b6101935461019454611e15916001600160a01b039081169116612d1f565b610193546101945460405163095ea7b360e01b81529295506001600160a01b039182169263095ea7b392611e4f9216908590600401613c13565b602060405180830381600087803b158015611e6957600080fd5b505af1158015611e7d573d6000803e3d6000fd5b505050506040513d601f19601f82011682018060405250810190611ea191906139b0565b50610194546040516356e4bb9760e11b81526001600160a01b039091169063adc9772e90611ed59030908590600401613c13565b600060405180830381600087803b158015611eef57600080fd5b505af1158015611f03573d6000803e3d6000fd5b5050610194546040805180820190915260058152647374616b6560d81b6020820152611f3e93508692506001600160a01b0390911690612f57565b50505050505050565b610194546040805163b88a802f60e01b815290516000926001600160a01b03169163b88a802f916004808301928692919082900301818387803b158015611f8d57600080fd5b505af1158015611fa1573d6000803e3d6000fd5b5050610195546040516370a0823160e01b8152306004820152600093508392506001600160a01b03909116906370a082319060240160206040518083038186803b158015611fee57600080fd5b505afa158015612002573d6000803e3d6000fd5b505050506040513d601f19601f820116820180604052508101906120269190613a3c565b905080156120785761019a5461019b54610195546101965461019154600094612068949093909286926001600160a01b0392831692918216911630808a61308a565b90506120748184613fe4565b9250505b610196546040516370a0823160e01b81523060048201526000916001600160a01b0316906370a082319060240160206040518083038186803b1580156120bd57600080fd5b505afa1580156120d1573d6000803e3d6000fd5b505050506040513d601f19601f820116820180604052508101906120f59190613a3c565b9050801561213757610196546101915461019954600092612127926001600160a01b03918216929116903080876134a5565b90506121338185613fe4565b9350505b610191546040516370a0823160e01b81523060048201526001600160a01b039091169063a9059cbb90879083906370a082319060240160206040518083038186803b15801561218557600080fd5b505afa158015612199573d6000803e3d6000fd5b505050506040513d601f19601f820116820180604052508101906121bd9190613a3c565b6040518363ffffffff1660e01b81526004016121da929190613c13565b602060405180830381600087803b1580156121f457600080fd5b505af1158015612208573d6000803e3d6000fd5b505050506040513d601f19601f8201168201806040525081019061222c91906139b0565b5091949350505050565b610191546000906001600160a01b038481169116146122675760405162461bcd60e51b815260040161067490613ee5565b610194546040516370a0823160e01b81523060048201526000916001600160a01b0316906370a082319060240160206040518083038186803b1580156122ac57600080fd5b505afa1580156122c0573d6000803e3d6000fd5b505050506040513d601f19601f820116820180604052508101906122e49190613a3c565b61019454604051632e1a7d4d60e01b8152600481018390529192506001600160a01b031690632e1a7d4d90602401600060405180830381600087803b15801561232c57600080fd5b505af1158015612340573d6000803e3d6000fd5b5050610193546040516370a0823160e01b81523060048201526001600160a01b03909116925063db006a75915082906370a082319060240160206040518083038186803b15801561239057600080fd5b505afa1580156123a4573d6000803e3d6000fd5b505050506040513d601f19601f820116820180604052508101906123c89190613a3c565b6040518263ffffffff1660e01b81526004016123e691815260200190565b602060405180830381600087803b15801561240057600080fd5b505af1158015612414573d6000803e3d6000fd5b505050506040513d601f19601f820116820180604052508101906124389190613a3c565b5061019254610191546040516370a0823160e01b81523060048201526001600160a01b03928316926343bcfab692169083906370a082319060240160206040518083038186803b15801561248b57600080fd5b505afa15801561249f573d6000803e3d6000fd5b505050506040513d601f19601f820116820180604052508101906124c39190613a3c565b6000306040518563ffffffff1660e01b81526004016124e59493929190613c2c565b602060405180830381600087803b1580156124ff57600080fd5b505af1158015612513573d6000803e3d6000fd5b505050506040513d601f19601f820116820180604052508101906125379190613a3c565b50610191546040516370a0823160e01b81523060048201526000916001600160a01b0316906370a082319060240160206040518083038186803b15801561257d57600080fd5b505afa158015612591573d6000803e3d6000fd5b505050506040513d601f19601f820116820180604052508101906125b59190613a3c565b95945050505050565b610191546000906001600160a01b038581169116146125ef5760405162461bcd60e51b815260040161067490613ee5565b60006125f9611407565b8461019854612608919061410c565b6126129190613ffc565b61019454604051632e1a7d4d60e01b8152600481018390529192506001600160a01b031690632e1a7d4d90602401600060405180830381600087803b15801561265a57600080fd5b505af115801561266e573d6000803e3d6000fd5b5050610193546040516370a0823160e01b81523060048201526001600160a01b03909116925063db006a75915082906370a082319060240160206040518083038186803b1580156126be57600080fd5b505afa1580156126d2573d6000803e3d6000fd5b505050506040513d601f19601f820116820180604052508101906126f69190613a3c565b6040518263ffffffff1660e01b815260040161271491815260200190565b602060405180830381600087803b15801561272e57600080fd5b505af1158015612742573d6000803e3d6000fd5b505050506040513d601f19601f820116820180604052508101906127669190613a3c565b5061019254610191546040516370a0823160e01b81523060048201526001600160a01b03928316926343bcfab692169083906370a082319060240160206040518083038186803b1580156127b957600080fd5b505afa1580156127cd573d6000803e3d6000fd5b505050506040513d601f19601f820116820180604052508101906127f19190613a3c565b6000306040518563ffffffff1660e01b81526004016128139493929190613c2c565b602060405180830381600087803b15801561282d57600080fd5b505af1158015612841573d6000803e3d6000fd5b505050506040513d601f19601f820116820180604052508101906128659190613a3c565b50610191546040516370a0823160e01b81523060048201526000916001600160a01b0316906370a082319060240160206040518083038186803b1580156128ab57600080fd5b505afa1580156128bf573d6000803e3d6000fd5b505050506040513d601f19601f820116820180604052508101906128e39190613a3c565b925050505b9392505050565b606060006128fe83600261410c565b612909906002613fe4565b67ffffffffffffffff811115612921576129216141db565b6040519080825280601f01601f19166020018201604052801561294b576020820181803683370190505b509050600360fc1b81600081518110612966576129666141c5565b60200101906001600160f81b031916908160001a905350600f60fb1b81600181518110612995576129956141c5565b60200101906001600160f81b031916908160001a90535060006129b984600261410c565b6129c4906001613fe4565b90505b6001811115612a3c576f181899199a1a9b1b9c1cb0b131b232b360811b85600f16601081106129f8576129f86141c5565b1a60f81b828281518110612a0e57612a0e6141c5565b60200101906001600160f81b031916908160001a90535060049490941c93612a358161415b565b90506129c7565b5083156128e85760405162461bcd60e51b815260206004820181905260248201527f537472696e67733a20686578206c656e67746820696e73756666696369656e746044820152606401610674565b803b612aef5760405162461bcd60e51b815260206004820152602d60248201527f455243313936373a206e657720696d706c656d656e746174696f6e206973206e60448201526c1bdd08184818dbdb9d1c9858dd609a1b6064820152608401610674565b7f360894a13ba1a3210667c828492db98dca3e2076cc3735a920a3ca505d382bbc80546001600160a01b0319166001600160a01b0392909216919091179055565b6060823b612b8f5760405162461bcd60e51b815260206004820152602660248201527f416464726573733a2064656c65676174652063616c6c20746f206e6f6e2d636f6044820152651b9d1c9858dd60d21b6064820152608401610674565b600080846001600160a01b031684604051612baa9190613b18565b600060405180830381855af49150503d8060008114612be5576040519150601f19603f3d011682016040523d82523d6000602084013e612bea565b606091505b50915091506125b5828260405180606001604052806027815260200161422060279139613669565b612c1b81612a8b565b6040516001600160a01b038216907fbc7cd75a20ee27fd9adebab32041f755214dbc6bffa90cc0225b39da2e5c2d3b90600090a250565b600054610100900460ff1680612c6b575060005460ff16155b612c875760405162461bcd60e51b815260040161067490613e69565b600054610100900460ff16158015612ca9576000805461ffff19166101011790555b612cb16136a2565b612cb96136a2565b610b3a6136a2565b600054610100900460ff1680612cda575060005460ff16155b612cf65760405162461bcd60e51b815260040161067490613e69565b600054610100900460ff16158015612cb1576000805461ffff1916610101179055612cb96136a2565b612d4360405180606001604052806060815260200160608152602001606081525090565b604080516002808252606082018352600092602083019080368337505060408051600280825260608201835293945060009390925090602083019080368337505060408051600280825260608201835293945060009390925090602083019080368337019050506040516370a0823160e01b81523060048201529091506001600160a01b038716906370a082319060240160206040518083038186803b158015612dec57600080fd5b505afa158015612e00573d6000803e3d6000fd5b505050506040513d601f19601f82011682018060405250810190612e249190613a3c565b83600081518110612e3757612e376141c5565b60209081029190910101526040516370a0823160e01b81523060048201526001600160a01b038616906370a082319060240160206040518083038186803b158015612e8157600080fd5b505afa158015612e95573d6000803e3d6000fd5b505050506040513d601f19601f82011682018060405250810190612eb99190613a3c565b83600181518110612ecc57612ecc6141c5565b6020026020010181815250508581600081518110612eec57612eec6141c5565b60200260200101906001600160a01b031690816001600160a01b0316815250508481600181518110612f2057612f206141c5565b6001600160a01b03909216602092830291909101820152604080516060810182529283529082019390935291820152905092915050565b60005b83515160ff8216101561303e57600084600001518260ff1681518110612f8257612f826141c5565b60209081029190910101516040516370a0823160e01b81523060048201529091506001600160a01b038216906370a082319060240160206040518083038186803b158015612fcf57600080fd5b505afa158015612fe3573d6000803e3d6000fd5b505050506040513d601f19601f820116820180604052508101906130079190613a3c565b85604001518360ff1681518110613020576130206141c5565b6020908102919091010152508061303681614172565b915050612f5a565b508251602084015160408086015190517fc5cd0b370084aef6318654a349c04d7bce9354bffd4155c54b1242e613aebaf69361307d9387938793613ba9565b60405180910390a1505050565b61012d5460405163095ea7b360e01b81526000916001600160a01b03808a169263095ea7b3926130c09216908690600401613c13565b602060405180830381600087803b1580156130da57600080fd5b505af11580156130ee573d6000803e3d6000fd5b505050506040513d601f19601f8201168201806040525081019061311291906139b0565b5060408051600280825260608201909252600091816020015b6131606040518060a0016040528060008019168152602001600081526020016000815260200160008152602001606081525090565b81526020019060019003908161312b5790505090506131aa6040518060a0016040528060008019168152602001600081526020016000815260200160008152602001606081525090565b8b815260006020820181905260016040830152606082018590528251829184916131d6576131d66141c5565b60200260200101819052506132166040518060a0016040528060008019168152602001600081526020016000815260200160008152602001606081525090565b8b815260016020820181905260026040830152600060608301528351829185918110613244576132446141c5565b6020908102919091010152604080516003808252608082019092526000918160200160208202803683370190505090508a81600081518110613288576132886141c5565b60200260200101906001600160a01b031690816001600160a01b03168152505089816001815181106132bc576132bc6141c5565b60200260200101906001600160a01b031690816001600160a01b03168152505088816002815181106132f0576132f06141c5565b6001600160a01b0392831660209182029290920181019190915260408051608080820183526000938201849052606082018490528c85168252938b168183015281516003808252948101909252928160200160208202803683370190505090506b033b2e3c9fd0803ce800000081600081518110613370576133706141c5565b6020026020010181815250506b033b2e3c9fd0803ce80000008160018151811061339c5761339c6141c5565b6020026020010181815250506b033b2e3c9fd0803ce8000000816002815181106133c8576133c86141c5565b602090810291909101015261012d546001600160a01b031663945bcec98f888686866133f642610258613fe4565b6040518763ffffffff1660e01b815260040161341796959493929190613c57565b600060405180830381600087803b15801561343157600080fd5b505af1158015613445573d6000803e3d6000fd5b505050506040513d6000823e601f3d908101601f1916820160405261346d9190810190613913565b60028151811061347f5761347f6141c5565b602002602001015161349090614192565b96505050505050509998505050505050505050565b61015f5460405163095ea7b360e01b815260009182916001600160a01b038a81169263095ea7b3926134df92909116908790600401613c13565b602060405180830381600087803b1580156134f957600080fd5b505af115801561350d573d6000803e3d6000fd5b505050506040513d601f19601f8201168201806040525081019061353191906139b0565b506040805160028082526060820183526000926020830190803683370190505090508881600081518110613567576135676141c5565b60200260200101906001600160a01b031690816001600160a01b031681525050878160018151811061359b5761359b6141c5565b6001600160a01b03928316602091820292909201015261015f54166338ed1739858484896135cb42610258613fe4565b6040518663ffffffff1660e01b81526004016135eb959493929190613f53565b600060405180830381600087803b15801561360557600080fd5b505af1158015613619573d6000803e3d6000fd5b505050506040513d6000823e601f3d908101601f191682016040526136419190810190613913565b600181518110613653576136536141c5565b6020026020010151925050509695505050505050565b606083156136785750816128e8565b8251156136885782518084602001fd5b8160405162461bcd60e51b81526004016106749190613d87565b600054610100900460ff16806136bb575060005460ff16155b6136d75760405162461bcd60e51b815260040161067490613e69565b600054610100900460ff16158015610b3a576000805461ffff19166101011790558015610a22576000805461ff001916905550565b80356001600160a01b038116811461120357600080fd5b60006020828403121561373557600080fd5b6128e88261370c565b60008060008060008060c0878903121561375757600080fd5b6137608761370c565b955061376e6020880161370c565b945061377c6040880161370c565b935061378a6060880161370c565b92506137986080880161370c565b91506137a660a0880161370c565b90509295509295509295565b600080600080608085870312156137c857600080fd5b6137d18561370c565b93506137df6020860161370c565b93969395505050506040820135916060013590565b6000806040838503121561380757600080fd5b6138108361370c565b915060208084013567ffffffffffffffff8082111561382e57600080fd5b818601915086601f83011261384257600080fd5b813581811115613854576138546141db565b613866601f8201601f19168501613f8f565b9150808252878482850101111561387c57600080fd5b80848401858401376000848284010152508093505050509250929050565b600080604083850312156138ad57600080fd5b6138b68361370c565b946020939093013593505050565b600080600080608085870312156138da57600080fd5b6138e38561370c565b9350602085013592506138f86040860161370c565b91506060850135613908816141f1565b939692955090935050565b6000602080838503121561392657600080fd5b825167ffffffffffffffff81111561393d57600080fd5b8301601f8101851361394e57600080fd5b805161396161395c82613fc0565b613f8f565b80828252848201915084840188868560051b870101111561398157600080fd5b600094505b838510156139a4578051835260019490940193918501918501613986565b50979650505050505050565b6000602082840312156139c257600080fd5b81516128e8816141f1565b6000602082840312156139df57600080fd5b5035919050565b600080604083850312156139f957600080fd5b82359150613a096020840161370c565b90509250929050565b600060208284031215613a2457600080fd5b81356001600160e01b0319811681146128e857600080fd5b600060208284031215613a4e57600080fd5b5051919050565b600060208284031215613a6757600080fd5b815160ff811681146128e857600080fd5b600081518084526020808501945080840160005b83811015613ab15781516001600160a01b031687529582019590820190600101613a8c565b509495945050505050565b600081518084526020808501945080840160005b83811015613ab157815187529582019590820190600101613ad0565b60008151808452613b0481602086016020860161412b565b601f01601f19169290920160200192915050565b60008251613b2a81846020870161412b565b9190910192915050565b7f416363657373436f6e74726f6c3a206163636f756e7420000000000000000000815260008351613b6c81601785016020880161412b565b7001034b99036b4b9b9b4b733903937b6329607d1b6017918401918201528351613b9d81602884016020880161412b565b01602801949350505050565b6001600160a01b038616815260a060208201819052600090613bcd90830187613aec565b8281036040840152613bdf8187613a78565b90508281036060840152613bf38186613abc565b90508281036080840152613c078185613abc565b98975050505050505050565b6001600160a01b03929092168252602082015260400190565b6001600160a01b03948516815260208101939093526040830191909152909116606082015260800190565b600061012080830160028a10613c7d57634e487b7160e01b600052602160045260246000fd5b89845260208085019290925288519081905261014080850192600583901b8601909101918a820160005b82811015613d0a5787850361013f190186528151805186528481015185870152604080820151908701526060808201519087015260809081015160a091870182905290613cf681880183613aec565b978601979650505090830190600101613ca7565b505050508381036040850152613d208189613a78565b915050613d60606084018780516001600160a01b039081168352602080830151151590840152604080830151909116908301526060908101511515910152565b82810360e0840152613d728186613abc565b91505082610100830152979650505050505050565b6020815260006128e86020830184613aec565b6020808252601f908201527f5265737472696374656420746f20504f5254464f4c494f5f4d414e4147455200604082015260600190565b6020808252602c908201527f46756e6374696f6e206d7573742062652063616c6c6564207468726f7567682060408201526b19195b1959d85d1958d85b1b60a21b606082015260800190565b6020808252602c908201527f46756e6374696f6e206d7573742062652063616c6c6564207468726f7567682060408201526b6163746976652070726f787960a01b606082015260800190565b6020808252602e908201527f496e697469616c697a61626c653a20636f6e747261637420697320616c72656160408201526d191e481a5b9a5d1a585b1a5e995960921b606082015260800190565b6020808252601490820152735265737472696374656420746f2061646d696e7360601b604082015260600190565b60208082526019908201527f536f6d6520746f6b656e206e6f7420636f6d70617469626c6500000000000000604082015260600190565b60208082526018908201527f5a65726f2061646472657373206e6f7420616c6c6f7765640000000000000000604082015260600190565b85815284602082015260a060408201526000613f7260a0830186613a78565b6001600160a01b0394909416606083015250608001529392505050565b604051601f8201601f1916810167ffffffffffffffff81118282101715613fb857613fb86141db565b604052919050565b600067ffffffffffffffff821115613fda57613fda6141db565b5060051b60200190565b60008219821115613ff757613ff76141af565b500190565b60008261401957634e487b7160e01b600052601260045260246000fd5b500490565b600181815b8085111561405957816000190482111561403f5761403f6141af565b8085161561404c57918102915b93841c9390800290614023565b509250929050565b60006128e860ff84168360008261407a57506001610647565b8161408757506000610647565b816001811461409d57600281146140a7576140c3565b6001915050610647565b60ff8411156140b8576140b86141af565b50506001821b610647565b5060208310610133831016604e8410600b84101617156140e6575081810a610647565b6140f0838361401e565b8060001904821115614104576141046141af565b029392505050565b6000816000190483118215151615614126576141266141af565b500290565b60005b8381101561414657818101518382015260200161412e565b83811115614155576000848401525b50505050565b60008161416a5761416a6141af565b506000190190565b600060ff821660ff811415614189576141896141af565b60010192915050565b6000600160ff1b8214156141a8576141a86141af565b5060000390565b634e487b7160e01b600052601160045260246000fd5b634e487b7160e01b600052603260045260246000fd5b634e487b7160e01b600052604160045260246000fd5b8015158114610a2257600080fdfe90c2aa7471c04182221f68e80c07ab1e5946e4c63f8693e14ca40385d529f051416464726573733a206c6f772d6c6576656c2064656c65676174652063616c6c206661696c6564a2646970667358221220e85181037cb7386b79192b3a2f271618e5788c32f76f1deccb31bdc082a8197164736f6c63430008060033",
  "devdoc": {
    "kind": "dev",
    "methods": {
      "constructor": {
        "custom:oz-upgrades-unsafe-allow": "constructor"
      },
      "getRoleAdmin(bytes32)": {
        "details": "Returns the admin role that controls `role`. See {grantRole} and {revokeRole}. To change a role's admin, use {_setRoleAdmin}."
      },
      "grantRole(bytes32,address)": {
        "details": "Grants `role` to `account`. If `account` had not been already granted `role`, emits a {RoleGranted} event. Requirements: - the caller must have ``role``'s admin role."
      },
      "hasRole(bytes32,address)": {
        "details": "Returns `true` if `account` has been granted `role`."
      },
      "renounceRole(bytes32,address)": {
        "details": "Revokes `role` from the calling account. Roles are often managed via {grantRole} and {revokeRole}: this function's purpose is to provide a mechanism for accounts to lose their privileges if they are compromised (such as when a trusted device is misplaced). If the calling account had been revoked `role`, emits a {RoleRevoked} event. Requirements: - the caller must be `account`."
      },
      "revokeRole(bytes32,address)": {
        "details": "Revokes `role` from `account`. If `account` had been granted `role`, emits a {RoleRevoked} event. Requirements: - the caller must have ``role``'s admin role."
      },
      "supportsInterface(bytes4)": {
        "details": "See {IERC165-supportsInterface}."
      },
      "upgradeTo(address)": {
        "details": "Upgrade the implementation of the proxy to `newImplementation`. Calls {_authorizeUpgrade}. Emits an {Upgraded} event."
      },
      "upgradeToAndCall(address,bytes)": {
        "details": "Upgrade the implementation of the proxy to `newImplementation`, and subsequently execute the function call encoded in `data`. Calls {_authorizeUpgrade}. Emits an {Upgraded} event."
      }
    },
    "version": 1
  },
  "userdoc": {
    "kind": "user",
    "methods": {},
    "version": 1
  },
  "storageLayout": {
    "storage": [
      {
        "astId": 823,
        "contract": "contracts/strategies/StrategyMStable.sol:StrategyMStable",
        "label": "_initialized",
        "offset": 0,
        "slot": "0",
        "type": "t_bool"
      },
      {
        "astId": 826,
        "contract": "contracts/strategies/StrategyMStable.sol:StrategyMStable",
        "label": "_initializing",
        "offset": 1,
        "slot": "0",
        "type": "t_bool"
      },
      {
        "astId": 2943,
        "contract": "contracts/strategies/StrategyMStable.sol:StrategyMStable",
        "label": "__gap",
        "offset": 0,
        "slot": "1",
        "type": "t_array(t_uint256)50_storage"
      },
      {
        "astId": 3865,
        "contract": "contracts/strategies/StrategyMStable.sol:StrategyMStable",
        "label": "__gap",
        "offset": 0,
        "slot": "51",
        "type": "t_array(t_uint256)50_storage"
      },
      {
        "astId": 48,
        "contract": "contracts/strategies/StrategyMStable.sol:StrategyMStable",
        "label": "_roles",
        "offset": 0,
        "slot": "101",
        "type": "t_mapping(t_bytes32,t_struct(RoleData)43_storage)"
      },
      {
        "astId": 335,
        "contract": "contracts/strategies/StrategyMStable.sol:StrategyMStable",
        "label": "__gap",
        "offset": 0,
        "slot": "102",
        "type": "t_array(t_uint256)49_storage"
      },
      {
        "astId": 806,
        "contract": "contracts/strategies/StrategyMStable.sol:StrategyMStable",
        "label": "__gap",
        "offset": 0,
        "slot": "151",
        "type": "t_array(t_uint256)50_storage"
      },
      {
        "astId": 973,
        "contract": "contracts/strategies/StrategyMStable.sol:StrategyMStable",
        "label": "__gap",
        "offset": 0,
        "slot": "201",
        "type": "t_array(t_uint256)50_storage"
      },
      {
        "astId": 22563,
        "contract": "contracts/strategies/StrategyMStable.sol:StrategyMStable",
        "label": "portfolioManager",
        "offset": 0,
        "slot": "251",
        "type": "t_address"
      },
      {
        "astId": 22998,
        "contract": "contracts/strategies/StrategyMStable.sol:StrategyMStable",
        "label": "__gap",
        "offset": 0,
        "slot": "252",
        "type": "t_array(t_uint256)49_storage"
      },
      {
        "astId": 16017,
        "contract": "contracts/strategies/StrategyMStable.sol:StrategyMStable",
        "label": "balancerVault",
        "offset": 0,
        "slot": "301",
        "type": "t_contract(IVault)18686"
      },
      {
        "astId": 16595,
        "contract": "contracts/strategies/StrategyMStable.sol:StrategyMStable",
        "label": "__gap",
        "offset": 0,
        "slot": "302",
        "type": "t_array(t_uint256)49_storage"
      },
      {
        "astId": 16603,
        "contract": "contracts/strategies/StrategyMStable.sol:StrategyMStable",
        "label": "uniswapRouter",
        "offset": 0,
        "slot": "351",
        "type": "t_contract(IUniswapV2Router02)20357"
      },
      {
        "astId": 16739,
        "contract": "contracts/strategies/StrategyMStable.sol:StrategyMStable",
        "label": "__gap",
        "offset": 0,
        "slot": "352",
        "type": "t_array(t_uint256)49_storage"
      },
      {
        "astId": 28128,
        "contract": "contracts/strategies/StrategyMStable.sol:StrategyMStable",
        "label": "usdcToken",
        "offset": 0,
        "slot": "401",
        "type": "t_contract(IERC20)8922"
      },
      {
        "astId": 28131,
        "contract": "contracts/strategies/StrategyMStable.sol:StrategyMStable",
        "label": "mUsdToken",
        "offset": 0,
        "slot": "402",
        "type": "t_contract(IMasset)19585"
      },
      {
        "astId": 28134,
        "contract": "contracts/strategies/StrategyMStable.sol:StrategyMStable",
        "label": "imUsdToken",
        "offset": 0,
        "slot": "403",
        "type": "t_contract(ISavingsContractV2)19706"
      },
      {
        "astId": 28137,
        "contract": "contracts/strategies/StrategyMStable.sol:StrategyMStable",
        "label": "vimUsdToken",
        "offset": 0,
        "slot": "404",
        "type": "t_contract(IBoostedVaultWithLockup)19358"
      },
      {
        "astId": 28140,
        "contract": "contracts/strategies/StrategyMStable.sol:StrategyMStable",
        "label": "mtaToken",
        "offset": 0,
        "slot": "405",
        "type": "t_contract(IERC20)8922"
      },
      {
        "astId": 28143,
        "contract": "contracts/strategies/StrategyMStable.sol:StrategyMStable",
        "label": "wmaticToken",
        "offset": 0,
        "slot": "406",
        "type": "t_contract(IERC20)8922"
      },
      {
        "astId": 28145,
        "contract": "contracts/strategies/StrategyMStable.sol:StrategyMStable",
        "label": "usdcTokenDenominator",
        "offset": 0,
        "slot": "407",
        "type": "t_uint256"
      },
      {
        "astId": 28147,
        "contract": "contracts/strategies/StrategyMStable.sol:StrategyMStable",
        "label": "vimUsdTokenDenominator",
        "offset": 0,
        "slot": "408",
        "type": "t_uint256"
      },
      {
        "astId": 28149,
        "contract": "contracts/strategies/StrategyMStable.sol:StrategyMStable",
        "label": "wmaticTokenDenominator",
        "offset": 0,
        "slot": "409",
        "type": "t_uint256"
      },
      {
        "astId": 28151,
        "contract": "contracts/strategies/StrategyMStable.sol:StrategyMStable",
        "label": "balancerPoolId1",
        "offset": 0,
        "slot": "410",
        "type": "t_bytes32"
      },
      {
        "astId": 28153,
        "contract": "contracts/strategies/StrategyMStable.sol:StrategyMStable",
        "label": "balancerPoolId2",
        "offset": 0,
        "slot": "411",
        "type": "t_bytes32"
      }
    ],
    "types": {
      "t_address": {
        "encoding": "inplace",
        "label": "address",
        "numberOfBytes": "20"
      },
      "t_array(t_uint256)49_storage": {
        "base": "t_uint256",
        "encoding": "inplace",
        "label": "uint256[49]",
        "numberOfBytes": "1568"
      },
      "t_array(t_uint256)50_storage": {
        "base": "t_uint256",
        "encoding": "inplace",
        "label": "uint256[50]",
        "numberOfBytes": "1600"
      },
      "t_bool": {
        "encoding": "inplace",
        "label": "bool",
        "numberOfBytes": "1"
      },
      "t_bytes32": {
        "encoding": "inplace",
        "label": "bytes32",
        "numberOfBytes": "32"
      },
      "t_contract(IBoostedVaultWithLockup)19358": {
        "encoding": "inplace",
        "label": "contract IBoostedVaultWithLockup",
        "numberOfBytes": "20"
      },
      "t_contract(IERC20)8922": {
        "encoding": "inplace",
        "label": "contract IERC20",
        "numberOfBytes": "20"
      },
      "t_contract(IMasset)19585": {
        "encoding": "inplace",
        "label": "contract IMasset",
        "numberOfBytes": "20"
      },
      "t_contract(ISavingsContractV2)19706": {
        "encoding": "inplace",
        "label": "contract ISavingsContractV2",
        "numberOfBytes": "20"
      },
      "t_contract(IUniswapV2Router02)20357": {
        "encoding": "inplace",
        "label": "contract IUniswapV2Router02",
        "numberOfBytes": "20"
      },
      "t_contract(IVault)18686": {
        "encoding": "inplace",
        "label": "contract IVault",
        "numberOfBytes": "20"
      },
      "t_mapping(t_address,t_bool)": {
        "encoding": "mapping",
        "key": "t_address",
        "label": "mapping(address => bool)",
        "numberOfBytes": "32",
        "value": "t_bool"
      },
      "t_mapping(t_bytes32,t_struct(RoleData)43_storage)": {
        "encoding": "mapping",
        "key": "t_bytes32",
        "label": "mapping(bytes32 => struct AccessControlUpgradeable.RoleData)",
        "numberOfBytes": "32",
        "value": "t_struct(RoleData)43_storage"
      },
      "t_struct(RoleData)43_storage": {
        "encoding": "inplace",
        "label": "struct AccessControlUpgradeable.RoleData",
        "members": [
          {
            "astId": 40,
            "contract": "contracts/strategies/StrategyMStable.sol:StrategyMStable",
            "label": "members",
            "offset": 0,
            "slot": "0",
            "type": "t_mapping(t_address,t_bool)"
          },
          {
            "astId": 42,
            "contract": "contracts/strategies/StrategyMStable.sol:StrategyMStable",
            "label": "adminRole",
            "offset": 0,
            "slot": "1",
            "type": "t_bytes32"
          }
        ],
        "numberOfBytes": "64"
      },
      "t_uint256": {
        "encoding": "inplace",
        "label": "uint256",
        "numberOfBytes": "32"
      }
    }
  }
}