{
  "address": "0x29feaaEbEBa8C5778FD77fb7197A3c6386f0ae20",
  "abi": [
    {
      "inputs": [],
      "stateMutability": "nonpayable",
      "type": "constructor"
    },
    {
      "anonymous": false,
      "inputs": [
        {
          "indexed": false,
          "internalType": "address",
          "name": "previousAdmin",
          "type": "address"
        },
        {
          "indexed": false,
          "internalType": "address",
          "name": "newAdmin",
          "type": "address"
        }
      ],
      "name": "AdminChanged",
      "type": "event"
    },
    {
      "anonymous": false,
      "inputs": [
        {
          "indexed": true,
          "internalType": "address",
          "name": "beacon",
          "type": "address"
        }
      ],
      "name": "BeaconUpgraded",
      "type": "event"
    },
    {
      "anonymous": false,
      "inputs": [
        {
          "indexed": false,
          "internalType": "address",
          "name": "value",
          "type": "address"
        }
      ],
      "name": "PortfolioManagerUpdated",
      "type": "event"
    },
    {
      "anonymous": false,
      "inputs": [
        {
          "indexed": false,
          "internalType": "uint256",
          "name": "amount",
          "type": "uint256"
        }
      ],
      "name": "Reward",
      "type": "event"
    },
    {
      "anonymous": false,
      "inputs": [
        {
          "indexed": true,
          "internalType": "bytes32",
          "name": "role",
          "type": "bytes32"
        },
        {
          "indexed": true,
          "internalType": "bytes32",
          "name": "previousAdminRole",
          "type": "bytes32"
        },
        {
          "indexed": true,
          "internalType": "bytes32",
          "name": "newAdminRole",
          "type": "bytes32"
        }
      ],
      "name": "RoleAdminChanged",
      "type": "event"
    },
    {
      "anonymous": false,
      "inputs": [
        {
          "indexed": true,
          "internalType": "bytes32",
          "name": "role",
          "type": "bytes32"
        },
        {
          "indexed": true,
          "internalType": "address",
          "name": "account",
          "type": "address"
        },
        {
          "indexed": true,
          "internalType": "address",
          "name": "sender",
          "type": "address"
        }
      ],
      "name": "RoleGranted",
      "type": "event"
    },
    {
      "anonymous": false,
      "inputs": [
        {
          "indexed": true,
          "internalType": "bytes32",
          "name": "role",
          "type": "bytes32"
        },
        {
          "indexed": true,
          "internalType": "address",
          "name": "account",
          "type": "address"
        },
        {
          "indexed": true,
          "internalType": "address",
          "name": "sender",
          "type": "address"
        }
      ],
      "name": "RoleRevoked",
      "type": "event"
    },
    {
      "anonymous": false,
      "inputs": [
        {
          "indexed": false,
          "internalType": "address",
          "name": "balancerVault",
          "type": "address"
        },
        {
          "indexed": false,
          "internalType": "address",
          "name": "uniswapRouter",
          "type": "address"
        },
        {
          "indexed": false,
          "internalType": "bytes32",
          "name": "balancerPoolId1",
          "type": "bytes32"
        },
        {
          "indexed": false,
          "internalType": "bytes32",
          "name": "balancerPoolId2",
          "type": "bytes32"
        }
      ],
      "name": "StrategyMStableUpdatedParams",
      "type": "event"
    },
    {
      "anonymous": false,
      "inputs": [
        {
          "indexed": false,
          "internalType": "address",
          "name": "usdcToken",
          "type": "address"
        },
        {
          "indexed": false,
          "internalType": "address",
          "name": "mUsdToken",
          "type": "address"
        },
        {
          "indexed": false,
          "internalType": "address",
          "name": "imUsdToken",
          "type": "address"
        },
        {
          "indexed": false,
          "internalType": "address",
          "name": "vimUsdToken",
          "type": "address"
        },
        {
          "indexed": false,
          "internalType": "address",
          "name": "mtaToken",
          "type": "address"
        },
        {
          "indexed": false,
          "internalType": "address",
          "name": "wmaticToken",
          "type": "address"
        },
        {
          "indexed": false,
          "internalType": "uint256",
          "name": "usdcTokenDenominator",
          "type": "uint256"
        },
        {
          "indexed": false,
          "internalType": "uint256",
          "name": "vimUsdTokenDenominator",
          "type": "uint256"
        },
        {
          "indexed": false,
          "internalType": "uint256",
          "name": "wmaticTokenDenominator",
          "type": "uint256"
        }
      ],
      "name": "StrategyMStableUpdatedTokens",
      "type": "event"
    },
    {
      "anonymous": false,
      "inputs": [
        {
          "indexed": true,
          "internalType": "address",
          "name": "implementation",
          "type": "address"
        }
      ],
      "name": "Upgraded",
      "type": "event"
    },
    {
      "inputs": [],
      "name": "DEFAULT_ADMIN_ROLE",
      "outputs": [
        {
          "internalType": "bytes32",
          "name": "",
          "type": "bytes32"
        }
      ],
      "stateMutability": "view",
      "type": "function"
    },
    {
      "inputs": [],
      "name": "MAX_VALUE",
      "outputs": [
        {
          "internalType": "int256",
          "name": "",
          "type": "int256"
        }
      ],
      "stateMutability": "view",
      "type": "function"
    },
    {
      "inputs": [],
      "name": "PORTFOLIO_MANAGER",
      "outputs": [
        {
          "internalType": "bytes32",
          "name": "",
          "type": "bytes32"
        }
      ],
      "stateMutability": "view",
      "type": "function"
    },
    {
      "inputs": [],
      "name": "UPGRADER_ROLE",
      "outputs": [
        {
          "internalType": "bytes32",
          "name": "",
          "type": "bytes32"
        }
      ],
      "stateMutability": "view",
      "type": "function"
    },
    {
      "inputs": [],
      "name": "balancerPoolId1",
      "outputs": [
        {
          "internalType": "bytes32",
          "name": "",
          "type": "bytes32"
        }
      ],
      "stateMutability": "view",
      "type": "function"
    },
    {
      "inputs": [],
      "name": "balancerPoolId2",
      "outputs": [
        {
          "internalType": "bytes32",
          "name": "",
          "type": "bytes32"
        }
      ],
      "stateMutability": "view",
      "type": "function"
    },
    {
      "inputs": [
        {
          "internalType": "address",
          "name": "_to",
          "type": "address"
        }
      ],
      "name": "claimRewards",
      "outputs": [
        {
          "internalType": "uint256",
          "name": "",
          "type": "uint256"
        }
      ],
      "stateMutability": "nonpayable",
      "type": "function"
    },
    {
      "inputs": [
        {
          "internalType": "bytes32",
          "name": "role",
          "type": "bytes32"
        }
      ],
      "name": "getRoleAdmin",
      "outputs": [
        {
          "internalType": "bytes32",
          "name": "",
          "type": "bytes32"
        }
      ],
      "stateMutability": "view",
      "type": "function"
    },
    {
      "inputs": [
        {
          "internalType": "bytes32",
          "name": "role",
          "type": "bytes32"
        },
        {
          "internalType": "address",
          "name": "account",
          "type": "address"
        }
      ],
      "name": "grantRole",
      "outputs": [],
      "stateMutability": "nonpayable",
      "type": "function"
    },
    {
      "inputs": [
        {
          "internalType": "bytes32",
          "name": "role",
          "type": "bytes32"
        },
        {
          "internalType": "address",
          "name": "account",
          "type": "address"
        }
      ],
      "name": "hasRole",
      "outputs": [
        {
          "internalType": "bool",
          "name": "",
          "type": "bool"
        }
      ],
      "stateMutability": "view",
      "type": "function"
    },
    {
      "inputs": [],
      "name": "imUsdToken",
      "outputs": [
        {
          "internalType": "contract ISavingsContractV2",
          "name": "",
          "type": "address"
        }
      ],
      "stateMutability": "view",
      "type": "function"
    },
    {
      "inputs": [],
      "name": "initialize",
      "outputs": [],
      "stateMutability": "nonpayable",
      "type": "function"
    },
    {
      "inputs": [],
      "name": "liquidationValue",
      "outputs": [
        {
          "internalType": "uint256",
          "name": "",
          "type": "uint256"
        }
      ],
      "stateMutability": "view",
      "type": "function"
    },
    {
      "inputs": [],
      "name": "mUsdToken",
      "outputs": [
        {
          "internalType": "contract IMasset",
          "name": "",
          "type": "address"
        }
      ],
      "stateMutability": "view",
      "type": "function"
    },
    {
      "inputs": [],
      "name": "mtaToken",
      "outputs": [
        {
          "internalType": "contract IERC20",
          "name": "",
          "type": "address"
        }
      ],
      "stateMutability": "view",
      "type": "function"
    },
    {
      "inputs": [],
      "name": "netAssetValue",
      "outputs": [
        {
          "internalType": "uint256",
          "name": "",
          "type": "uint256"
        }
      ],
      "stateMutability": "view",
      "type": "function"
    },
    {
      "inputs": [],
      "name": "portfolioManager",
      "outputs": [
        {
          "internalType": "address",
          "name": "",
          "type": "address"
        }
      ],
      "stateMutability": "view",
      "type": "function"
    },
    {
      "inputs": [
        {
          "internalType": "bytes32",
          "name": "role",
          "type": "bytes32"
        },
        {
          "internalType": "address",
          "name": "account",
          "type": "address"
        }
      ],
      "name": "renounceRole",
      "outputs": [],
      "stateMutability": "nonpayable",
      "type": "function"
    },
    {
      "inputs": [
        {
          "internalType": "bytes32",
          "name": "role",
          "type": "bytes32"
        },
        {
          "internalType": "address",
          "name": "account",
          "type": "address"
        }
      ],
      "name": "revokeRole",
      "outputs": [],
      "stateMutability": "nonpayable",
      "type": "function"
    },
    {
      "inputs": [
        {
          "internalType": "address",
          "name": "_balancerVault",
          "type": "address"
        },
        {
          "internalType": "address",
          "name": "_uniswapRouter",
          "type": "address"
        },
        {
          "internalType": "bytes32",
          "name": "_balancerPoolId1",
          "type": "bytes32"
        },
        {
          "internalType": "bytes32",
          "name": "_balancerPoolId2",
          "type": "bytes32"
        }
      ],
      "name": "setParams",
      "outputs": [],
      "stateMutability": "nonpayable",
      "type": "function"
    },
    {
      "inputs": [
        {
          "internalType": "address",
          "name": "_value",
          "type": "address"
        }
      ],
      "name": "setPortfolioManager",
      "outputs": [],
      "stateMutability": "nonpayable",
      "type": "function"
    },
    {
      "inputs": [
        {
          "internalType": "address",
          "name": "_usdcToken",
          "type": "address"
        },
        {
          "internalType": "address",
          "name": "_mUsdToken",
          "type": "address"
        },
        {
          "internalType": "address",
          "name": "_imUsdToken",
          "type": "address"
        },
        {
          "internalType": "address",
          "name": "_vimUsdToken",
          "type": "address"
        },
        {
          "internalType": "address",
          "name": "_mtaToken",
          "type": "address"
        },
        {
          "internalType": "address",
          "name": "_wmaticToken",
          "type": "address"
        }
      ],
      "name": "setTokens",
      "outputs": [],
      "stateMutability": "nonpayable",
      "type": "function"
    },
    {
      "inputs": [
        {
          "internalType": "address",
          "name": "_asset",
          "type": "address"
        },
        {
          "internalType": "uint256",
          "name": "_amount",
          "type": "uint256"
        }
      ],
      "name": "stake",
      "outputs": [],
      "stateMutability": "nonpayable",
      "type": "function"
    },
    {
      "inputs": [
        {
          "internalType": "bytes4",
          "name": "interfaceId",
          "type": "bytes4"
        }
      ],
      "name": "supportsInterface",
      "outputs": [
        {
          "internalType": "bool",
          "name": "",
          "type": "bool"
        }
      ],
      "stateMutability": "view",
      "type": "function"
    },
    {
      "inputs": [
        {
          "internalType": "address",
          "name": "_asset",
          "type": "address"
        },
        {
          "internalType": "uint256",
          "name": "_amount",
          "type": "uint256"
        },
        {
          "internalType": "address",
          "name": "_beneficiary",
          "type": "address"
        },
        {
          "internalType": "bool",
          "name": "_targetIsZero",
          "type": "bool"
        }
      ],
      "name": "unstake",
      "outputs": [
        {
          "internalType": "uint256",
          "name": "",
          "type": "uint256"
        }
      ],
      "stateMutability": "nonpayable",
      "type": "function"
    },
    {
      "inputs": [
        {
          "internalType": "address",
          "name": "newImplementation",
          "type": "address"
        }
      ],
      "name": "upgradeTo",
      "outputs": [],
      "stateMutability": "nonpayable",
      "type": "function"
    },
    {
      "inputs": [
        {
          "internalType": "address",
          "name": "newImplementation",
          "type": "address"
        },
        {
          "internalType": "bytes",
          "name": "data",
          "type": "bytes"
        }
      ],
      "name": "upgradeToAndCall",
      "outputs": [],
      "stateMutability": "payable",
      "type": "function"
    },
    {
      "inputs": [],
      "name": "usdcToken",
      "outputs": [
        {
          "internalType": "contract IERC20",
          "name": "",
          "type": "address"
        }
      ],
      "stateMutability": "view",
      "type": "function"
    },
    {
      "inputs": [],
      "name": "usdcTokenDenominator",
      "outputs": [
        {
          "internalType": "uint256",
          "name": "",
          "type": "uint256"
        }
      ],
      "stateMutability": "view",
      "type": "function"
    },
    {
      "inputs": [],
      "name": "vimUsdToken",
      "outputs": [
        {
          "internalType": "contract IBoostedVaultWithLockup",
          "name": "",
          "type": "address"
        }
      ],
      "stateMutability": "view",
      "type": "function"
    },
    {
      "inputs": [],
      "name": "vimUsdTokenDenominator",
      "outputs": [
        {
          "internalType": "uint256",
          "name": "",
          "type": "uint256"
        }
      ],
      "stateMutability": "view",
      "type": "function"
    },
    {
      "inputs": [],
      "name": "wmaticToken",
      "outputs": [
        {
          "internalType": "contract IERC20",
          "name": "",
          "type": "address"
        }
      ],
      "stateMutability": "view",
      "type": "function"
    },
    {
      "inputs": [],
      "name": "wmaticTokenDenominator",
      "outputs": [
        {
          "internalType": "uint256",
          "name": "",
          "type": "uint256"
        }
      ],
      "stateMutability": "view",
      "type": "function"
    }
  ],
  "solcInputHash": "7a3d7df7615f780cc2cc2fe61ea1fe58",
  "bytecode": "0x60a06040523060601b6080523480156200001857600080fd5b50600054610100900460ff168062000033575060005460ff16155b6200009b5760405162461bcd60e51b815260206004820152602e60248201527f496e697469616c697a61626c653a20636f6e747261637420697320616c72656160448201526d191e481a5b9a5d1a585b1a5e995960921b606482015260840160405180910390fd5b600054610100900460ff16158015620000be576000805461ffff19166101011790555b8015620000d1576000805461ff00191690555b5060805160601c613c3d6200010660003960008181610967015281816109a701528181610a300152610a700152613c3d6000f3fe6080604052600436106101ee5760003560e01c80637d5f58021161010d578063abf4be01116100a0578063d547741f1161006f578063d547741f1461056b578063ef5cfb8c1461058b578063f6f6b881146105ab578063f72c0d8b146105cb578063fddf5af8146105ff57600080fd5b8063abf4be01146104e8578063adc9772e14610509578063c0cbad4514610529578063ceda99721461054a57600080fd5b8063a217fddf116100dc578063a217fddf1461047e578063a3673b3814610493578063a440b21a146104a8578063a7ab2e4d146104c857600080fd5b80637d5f5802146104065780638129fc1c1461042857806391d148541461043d5780639de3c8271461045d57600080fd5b80632bb20a35116101855780633659cfe6116101545780633659cfe61461039c5780634f1ef286146103bc578063620b75df146103cf57806362b67652146103ef57600080fd5b80632bb20a351461032e5780632bd4786a146103455780632f2ff15d1461035c57806336568abe1461037c57600080fd5b806311eac855116101c157806311eac855146102a657806320ee1d40146102c7578063248a9ca3146102e95780632576e65a1461031957600080fd5b806301ffc9a7146101f357806305bee8ac14610228578063063bde241461026157806306da3f2e1461028f575b600080fd5b3480156101ff57600080fd5b5061021361020e366004613428565b610616565b60405190151581526020015b60405180910390f35b34801561023457600080fd5b5061019254610249906001600160a01b031681565b6040516001600160a01b03909116815260200161021f565b34801561026d57600080fd5b506102816b033b2e3c9fd0803ce800000081565b60405190815260200161021f565b34801561029b57600080fd5b506102816101975481565b3480156102b257600080fd5b5061019154610249906001600160a01b031681565b3480156102d357600080fd5b506102e76102e23660046131c8565b61064d565b005b3480156102f557600080fd5b506102816103043660046133e3565b60009081526065602052604090206001015490565b34801561032557600080fd5b506102816107f7565b34801561033a57600080fd5b5061028161019b5481565b34801561035157600080fd5b506102816101985481565b34801561036857600080fd5b506102e76103773660046133fc565b6108b3565b34801561038857600080fd5b506102e76103973660046133fc565b6108de565b3480156103a857600080fd5b506102e76103b7366004613139565b61095c565b6102e76103ca36600461320a565b610a25565b3480156103db57600080fd5b5060fb54610249906001600160a01b031681565b3480156103fb57600080fd5b506102816101995481565b34801561041257600080fd5b50610281600080516020613bc183398151915281565b34801561043457600080fd5b506102e7610adb565b34801561044957600080fd5b506102136104583660046133fc565b610b4e565b34801561046957600080fd5b5061019554610249906001600160a01b031681565b34801561048a57600080fd5b50610281600081565b34801561049f57600080fd5b50610281610b79565b3480156104b457600080fd5b506102e76104c3366004613139565b610c13565b3480156104d457600080fd5b506102e76104e3366004613154565b610cf1565b3480156104f457600080fd5b5061019654610249906001600160a01b031681565b34801561051557600080fd5b506102e76105243660046132b0565b611075565b34801561053557600080fd5b5061019354610249906001600160a01b031681565b34801561055657600080fd5b5061019454610249906001600160a01b031681565b34801561057757600080fd5b506102e76105863660046133fc565b61112b565b34801561059757600080fd5b506102816105a6366004613139565b611151565b3480156105b757600080fd5b506102816105c63660046132da565b6111d5565b3480156105d757600080fd5b506102817f189ab7a9244df0848122154315af71fe140f3db0fe014031783b0946b8c9d2e381565b34801561060b57600080fd5b5061028161019a5481565b60006001600160e01b03198216637965db0b60e01b148061064757506301ffc9a760e01b6001600160e01b03198316145b92915050565b610658600033610b4e565b61067d5760405162461bcd60e51b815260040161067490613863565b60405180910390fd5b6001600160a01b0384166106a35760405162461bcd60e51b8152600401610674906138c8565b6001600160a01b0383166106c95760405162461bcd60e51b8152600401610674906138c8565b816107125760405162461bcd60e51b8152602060048201526019602482015278115b5c1d1e481c1bdbdb081a59081b9bdd08185b1b1bddd959603a1b6044820152606401610674565b8061075b5760405162461bcd60e51b8152602060048201526019602482015278115b5c1d1e481c1bdbdb081a59081b9bdd08185b1b1bddd959603a1b6044820152606401610674565b61012d80546001600160a01b0319166001600160a01b03861617905561015f80546001600160a01b0319166001600160a01b03851617905561019a82905561019b819055604080516001600160a01b03808716825285166020820152908101839052606081018290527fe9c1d48e3fd42c7ac3a9f4a5cce93549d6637476ef179420c287d089f3d5df5b9060800160405180910390a150505050565b610194546040516370a0823160e01b815230600482015260009182916001600160a01b03909116906370a082319060240160206040518083038186803b15801561084057600080fd5b505afa158015610854573d6000803e3d6000fd5b505050506040513d601f19601f820116820180604052508101906108789190613452565b90508061088757600091505090565b600061089161139b565b610198549091506108a28284613aed565b6108ac91906139dd565b9250505090565b6000828152606560205260409020600101546108cf81336114b7565b6108d9838361151b565b505050565b6001600160a01b038116331461094e5760405162461bcd60e51b815260206004820152602f60248201527f416363657373436f6e74726f6c3a2063616e206f6e6c792072656e6f756e636560448201526e103937b632b9903337b91039b2b63360891b6064820152608401610674565b61095882826115a1565b5050565b306001600160a01b037f00000000000000000000000000000000000000000000000000000000000000001614156109a55760405162461bcd60e51b81526004016106749061377d565b7f00000000000000000000000000000000000000000000000000000000000000006001600160a01b03166109d7611608565b6001600160a01b0316146109fd5760405162461bcd60e51b8152600401610674906137c9565b610a0681611636565b60408051600080825260208201909252610a2291839190611661565b50565b306001600160a01b037f0000000000000000000000000000000000000000000000000000000000000000161415610a6e5760405162461bcd60e51b81526004016106749061377d565b7f00000000000000000000000000000000000000000000000000000000000000006001600160a01b0316610aa0611608565b6001600160a01b031614610ac65760405162461bcd60e51b8152600401610674906137c9565b610acf82611636565b61095882826001611661565b600054610100900460ff1680610af4575060005460ff16155b610b105760405162461bcd60e51b815260040161067490613815565b600054610100900460ff16158015610b32576000805461ffff19166101011790555b610b3a6117ac565b8015610a22576000805461ff001916905550565b60009182526065602090815260408084206001600160a01b0393909316845291905290205460ff1690565b610194546040516370a0823160e01b815230600482015260009182916001600160a01b03909116906370a082319060240160206040518083038186803b158015610bc257600080fd5b505afa158015610bd6573d6000803e3d6000fd5b505050506040513d601f19601f82011682018060405250810190610bfa9190613452565b905080610c0957600091505090565b6000610891611848565b610c1e600033610b4e565b610c3a5760405162461bcd60e51b815260040161067490613863565b6001600160a01b038116610c605760405162461bcd60e51b8152600401610674906138c8565b60fb54610c8590600080516020613bc1833981519152906001600160a01b031661112b565b610c9d600080516020613bc1833981519152826108b3565b60fb80546001600160a01b0319166001600160a01b0383169081179091556040519081527ff7b449fcd5cfb7379dcd34cb69428dd9f882033b15be33d83b42d91daa28eeb79060200160405180910390a150565b610cfc600033610b4e565b610d185760405162461bcd60e51b815260040161067490613863565b6001600160a01b038616610d3e5760405162461bcd60e51b8152600401610674906138c8565b6001600160a01b038516610d645760405162461bcd60e51b8152600401610674906138c8565b6001600160a01b038416610d8a5760405162461bcd60e51b8152600401610674906138c8565b6001600160a01b038316610db05760405162461bcd60e51b8152600401610674906138c8565b6001600160a01b038216610dd65760405162461bcd60e51b8152600401610674906138c8565b6001600160a01b038116610dfc5760405162461bcd60e51b8152600401610674906138c8565b61019180546001600160a01b03199081166001600160a01b038981169182179093556101928054831689851617905561019380548316888516179055610194805483168785161790556101958054831686851617905561019680549092169284169290921790556040805163313ce56760e01b8152905163313ce56791600480820192602092909190829003018186803b158015610e9957600080fd5b505afa158015610ead573d6000803e3d6000fd5b505050506040513d601f19601f82011682018060405250810190610ed1919061346b565b610edc90600a613a42565b61019781905550826001600160a01b031663313ce5676040518163ffffffff1660e01b815260040160206040518083038186803b158015610f1c57600080fd5b505afa158015610f30573d6000803e3d6000fd5b505050506040513d601f19601f82011682018060405250810190610f54919061346b565b610f5f90600a613a42565b61019881905550806001600160a01b031663313ce5676040518163ffffffff1660e01b815260040160206040518083038186803b158015610f9f57600080fd5b505afa158015610fb3573d6000803e3d6000fd5b505050506040513d601f19601f82011682018060405250810190610fd7919061346b565b610fe290600a613a42565b6101998190556101975461019854604080516001600160a01b038b811682528a811660208301528981168284015288811660608301528781166080830152861660a082015260c081019390935260e083019190915261010082019290925290517fc14eba727320defba5080b6bc1f6d758f4ce610650c57054fdb30f726f571fac918190036101200190a1505050505050565b61108d600080516020613bc183398151915233610b4e565b6110a95760405162461bcd60e51b815260040161067490613746565b6040516370a0823160e01b81523060048201526109589083906001600160a01b038216906370a082319060240160206040518083038186803b1580156110ee57600080fd5b505afa158015611102573d6000803e3d6000fd5b505050506040513d601f19601f820116820180604052508101906111269190613452565b611972565b60008281526065602052604090206001015461114781336114b7565b6108d983836115a1565b600061116b600080516020613bc183398151915233610b4e565b6111875760405162461bcd60e51b815260040161067490613746565b600061119283611cc8565b90507f3ac0594a85a20354f9dc74f33728416d19ce00d04a406c108cc2dcf2cecea134816040516111c591815260200190565b60405180910390a190505b919050565b60006111ef600080516020613bc183398151915233610b4e565b61120b5760405162461bcd60e51b815260040161067490613746565b600082156112245761121d8685611fb7565b9050611293565b61122f86868661233f565b9050848110156112935760405162461bcd60e51b815260206004820152602960248201527f52657475726e65642076616c7565206c657373207468616e2072657175657374604482015268195908185b5bdd5b9d60ba1b6064820152608401610674565b6040516370a0823160e01b81523060048201526000906001600160a01b038816906370a082319060240160206040518083038186803b1580156112d557600080fd5b505afa1580156112e9573d6000803e3d6000fd5b505050506040513d601f19601f8201168201806040525081019061130d9190613452565b60405163a9059cbb60e01b81529091506001600160a01b0388169063a9059cbb9061133e90889085906004016135bf565b602060405180830381600087803b15801561135857600080fd5b505af115801561136c573d6000803e3d6000fd5b505050506040513d601f19601f8201168201806040525081019061139091906133c6565b509695505050505050565b6101935461019854604051633bc0d82d60e11b815260009283926001600160a01b0390911691637781b05a916113d79160040190815260200190565b60206040518083038186803b1580156113ef57600080fd5b505afa158015611403573d6000803e3d6000fd5b505050506040513d601f19601f820116820180604052508101906114279190613452565b6101925461019154604051633c554c3f60e11b81529293506001600160a01b03918216926378aa987e9261146192169085906004016135bf565b60206040518083038186803b15801561147957600080fd5b505afa15801561148d573d6000803e3d6000fd5b505050506040513d601f19601f820116820180604052508101906114b19190613452565b91505090565b6114c18282610b4e565b610958576114d9816001600160a01b03166014612670565b6114e4836020612670565b6040516020016114f592919061354a565b60408051601f198184030181529082905262461bcd60e51b825261067491600401613733565b6115258282610b4e565b6109585760008281526065602090815260408083206001600160a01b03851684529091529020805460ff1916600117905561155d3390565b6001600160a01b0316816001600160a01b0316837f2f8788117e7eff1d82e926ec794901d17c78024a50270940304540a733656f0d60405160405180910390a45050565b6115ab8282610b4e565b156109585760008281526065602090815260408083206001600160a01b0385168085529252808320805460ff1916905551339285917ff6391f5c32d9c69d2a47ea670b442974b53935d1edc7fd64eb21e047a839171b9190a45050565b7f360894a13ba1a3210667c828492db98dca3e2076cc3735a920a3ca505d382bbc546001600160a01b031690565b7f189ab7a9244df0848122154315af71fe140f3db0fe014031783b0946b8c9d2e361095881336114b7565b600061166b611608565b90506116768461280c565b6000835111806116835750815b156116945761169284846128b1565b505b7f4910fdfa16fed3260ed0e7147f7cc6da11a60208b5b9406d12a635614ffd9143805460ff166117a557805460ff191660011781556040516001600160a01b038316602482015261171390869060440160408051601f198184030181529190526020810180516001600160e01b0316631b2ce7f360e11b1790526128b1565b50805460ff19168155611724611608565b6001600160a01b0316826001600160a01b03161461179c5760405162461bcd60e51b815260206004820152602f60248201527f45524331393637557067726164653a207570677261646520627265616b73206660448201526e75727468657220757067726164657360881b6064820152608401610674565b6117a585612993565b5050505050565b600054610100900460ff16806117c5575060005460ff16155b6117e15760405162461bcd60e51b815260040161067490613815565b600054610100900460ff16158015611803576000805461ffff19166101011790555b61180b6129d3565b611813612a42565b61181e60003361151b565b610b3a7f189ab7a9244df0848122154315af71fe140f3db0fe014031783b0946b8c9d2e33361151b565b61019254610191546101975460405163119849cf60e01b815260009384936001600160a01b039182169363119849cf9361188893909216916004016135bf565b60206040518083038186803b1580156118a057600080fd5b505afa1580156118b4573d6000803e3d6000fd5b505050506040513d601f19601f820116820180604052508101906118d89190613452565b6101935460405163087c71b560e31b8152600481018390529192506001600160a01b0316906343e38da89060240160206040518083038186803b15801561191e57600080fd5b505afa158015611932573d6000803e3d6000fd5b505050506040513d601f19601f820116820180604052508101906119569190613452565b61019854610197546119689190613aed565b6114b191906139dd565b610191546001600160a01b038381169116146119a05760405162461bcd60e51b815260040161067490613891565b610191546101925460405163095ea7b360e01b81526001600160a01b039283169263095ea7b3926119d89291169085906004016135bf565b602060405180830381600087803b1580156119f257600080fd5b505af1158015611a06573d6000803e3d6000fd5b505050506040513d601f19601f82011682018060405250810190611a2a91906133c6565b506101925461019154604051637ba5ff4760e11b81526000926001600160a01b039081169263f74bfe8e92611a6b92909116908690869030906004016135d8565b602060405180830381600087803b158015611a8557600080fd5b505af1158015611a99573d6000803e3d6000fd5b505050506040513d601f19601f82011682018060405250810190611abd9190613452565b610192546101935460405163095ea7b360e01b81529293506001600160a01b039182169263095ea7b392611af792169085906004016135bf565b602060405180830381600087803b158015611b1157600080fd5b505af1158015611b25573d6000803e3d6000fd5b505050506040513d601f19601f82011682018060405250810190611b4991906133c6565b506101935460405163590745c560e01b8152600481018390523060248201526000916001600160a01b03169063590745c590604401602060405180830381600087803b158015611b9857600080fd5b505af1158015611bac573d6000803e3d6000fd5b505050506040513d601f19601f82011682018060405250810190611bd09190613452565b610193546101945460405163095ea7b360e01b81529293506001600160a01b039182169263095ea7b392611c0a92169085906004016135bf565b602060405180830381600087803b158015611c2457600080fd5b505af1158015611c38573d6000803e3d6000fd5b505050506040513d601f19601f82011682018060405250810190611c5c91906133c6565b50610194546040516356e4bb9760e11b81526001600160a01b039091169063adc9772e90611c9090309085906004016135bf565b600060405180830381600087803b158015611caa57600080fd5b505af1158015611cbe573d6000803e3d6000fd5b5050505050505050565b610194546040805163b88a802f60e01b815290516000926001600160a01b03169163b88a802f916004808301928692919082900301818387803b158015611d0e57600080fd5b505af1158015611d22573d6000803e3d6000fd5b5050610195546040516370a0823160e01b8152306004820152600093508392506001600160a01b03909116906370a082319060240160206040518083038186803b158015611d6f57600080fd5b505afa158015611d83573d6000803e3d6000fd5b505050506040513d601f19601f82011682018060405250810190611da79190613452565b90508015611df95761019a5461019b54610195546101965461019154600094611de9949093909286926001600160a01b0392831692918216911630808a612aa0565b9050611df581846139c5565b9250505b610196546040516370a0823160e01b81523060048201526000916001600160a01b0316906370a082319060240160206040518083038186803b158015611e3e57600080fd5b505afa158015611e52573d6000803e3d6000fd5b505050506040513d601f19601f82011682018060405250810190611e769190613452565b90508015611eb857610196546101915461019954600092611ea8926001600160a01b0391821692911690308087612ebb565b9050611eb481856139c5565b9350505b610191546040516370a0823160e01b81523060048201526001600160a01b039091169063a9059cbb90879083906370a082319060240160206040518083038186803b158015611f0657600080fd5b505afa158015611f1a573d6000803e3d6000fd5b505050506040513d601f19601f82011682018060405250810190611f3e9190613452565b6040518363ffffffff1660e01b8152600401611f5b9291906135bf565b602060405180830381600087803b158015611f7557600080fd5b505af1158015611f89573d6000803e3d6000fd5b505050506040513d601f19601f82011682018060405250810190611fad91906133c6565b5091949350505050565b610191546000906001600160a01b03848116911614611fe85760405162461bcd60e51b815260040161067490613891565b610194546040516370a0823160e01b81523060048201526000916001600160a01b0316906370a082319060240160206040518083038186803b15801561202d57600080fd5b505afa158015612041573d6000803e3d6000fd5b505050506040513d601f19601f820116820180604052508101906120659190613452565b61019454604051632e1a7d4d60e01b8152600481018390529192506001600160a01b031690632e1a7d4d90602401600060405180830381600087803b1580156120ad57600080fd5b505af11580156120c1573d6000803e3d6000fd5b5050610193546040516370a0823160e01b81523060048201526001600160a01b03909116925063db006a75915082906370a082319060240160206040518083038186803b15801561211157600080fd5b505afa158015612125573d6000803e3d6000fd5b505050506040513d601f19601f820116820180604052508101906121499190613452565b6040518263ffffffff1660e01b815260040161216791815260200190565b602060405180830381600087803b15801561218157600080fd5b505af1158015612195573d6000803e3d6000fd5b505050506040513d601f19601f820116820180604052508101906121b99190613452565b5061019254610191546040516370a0823160e01b81523060048201526001600160a01b03928316926343bcfab692169083906370a082319060240160206040518083038186803b15801561220c57600080fd5b505afa158015612220573d6000803e3d6000fd5b505050506040513d601f19601f820116820180604052508101906122449190613452565b6000306040518563ffffffff1660e01b815260040161226694939291906135d8565b602060405180830381600087803b15801561228057600080fd5b505af1158015612294573d6000803e3d6000fd5b505050506040513d601f19601f820116820180604052508101906122b89190613452565b50610191546040516370a0823160e01b81523060048201526000916001600160a01b0316906370a082319060240160206040518083038186803b1580156122fe57600080fd5b505afa158015612312573d6000803e3d6000fd5b505050506040513d601f19601f820116820180604052508101906123369190613452565b95945050505050565b610191546000906001600160a01b038581169116146123705760405162461bcd60e51b815260040161067490613891565b600061237a61139b565b84610198546123899190613aed565b61239391906139dd565b61019454604051632e1a7d4d60e01b8152600481018390529192506001600160a01b031690632e1a7d4d90602401600060405180830381600087803b1580156123db57600080fd5b505af11580156123ef573d6000803e3d6000fd5b5050610193546040516370a0823160e01b81523060048201526001600160a01b03909116925063db006a75915082906370a082319060240160206040518083038186803b15801561243f57600080fd5b505afa158015612453573d6000803e3d6000fd5b505050506040513d601f19601f820116820180604052508101906124779190613452565b6040518263ffffffff1660e01b815260040161249591815260200190565b602060405180830381600087803b1580156124af57600080fd5b505af11580156124c3573d6000803e3d6000fd5b505050506040513d601f19601f820116820180604052508101906124e79190613452565b5061019254610191546040516370a0823160e01b81523060048201526001600160a01b03928316926343bcfab692169083906370a082319060240160206040518083038186803b15801561253a57600080fd5b505afa15801561254e573d6000803e3d6000fd5b505050506040513d601f19601f820116820180604052508101906125729190613452565b6000306040518563ffffffff1660e01b815260040161259494939291906135d8565b602060405180830381600087803b1580156125ae57600080fd5b505af11580156125c2573d6000803e3d6000fd5b505050506040513d601f19601f820116820180604052508101906125e69190613452565b50610191546040516370a0823160e01b81523060048201526000916001600160a01b0316906370a082319060240160206040518083038186803b15801561262c57600080fd5b505afa158015612640573d6000803e3d6000fd5b505050506040513d601f19601f820116820180604052508101906126649190613452565b925050505b9392505050565b6060600061267f836002613aed565b61268a9060026139c5565b67ffffffffffffffff8111156126a2576126a2613b9c565b6040519080825280601f01601f1916602001820160405280156126cc576020820181803683370190505b509050600360fc1b816000815181106126e7576126e7613b86565b60200101906001600160f81b031916908160001a905350600f60fb1b8160018151811061271657612716613b86565b60200101906001600160f81b031916908160001a905350600061273a846002613aed565b6127459060016139c5565b90505b60018111156127bd576f181899199a1a9b1b9c1cb0b131b232b360811b85600f166010811061277957612779613b86565b1a60f81b82828151811061278f5761278f613b86565b60200101906001600160f81b031916908160001a90535060049490941c936127b681613b3c565b9050612748565b5083156126695760405162461bcd60e51b815260206004820181905260248201527f537472696e67733a20686578206c656e67746820696e73756666696369656e746044820152606401610674565b803b6128705760405162461bcd60e51b815260206004820152602d60248201527f455243313936373a206e657720696d706c656d656e746174696f6e206973206e60448201526c1bdd08184818dbdb9d1c9858dd609a1b6064820152608401610674565b7f360894a13ba1a3210667c828492db98dca3e2076cc3735a920a3ca505d382bbc80546001600160a01b0319166001600160a01b0392909216919091179055565b6060823b6129105760405162461bcd60e51b815260206004820152602660248201527f416464726573733a2064656c65676174652063616c6c20746f206e6f6e2d636f6044820152651b9d1c9858dd60d21b6064820152608401610674565b600080846001600160a01b03168460405161292b919061352e565b600060405180830381855af49150503d8060008114612966576040519150601f19603f3d011682016040523d82523d6000602084013e61296b565b606091505b50915091506123368282604051806060016040528060278152602001613be16027913961307f565b61299c8161280c565b6040516001600160a01b038216907fbc7cd75a20ee27fd9adebab32041f755214dbc6bffa90cc0225b39da2e5c2d3b90600090a250565b600054610100900460ff16806129ec575060005460ff16155b612a085760405162461bcd60e51b815260040161067490613815565b600054610100900460ff16158015612a2a576000805461ffff19166101011790555b612a326130b8565b612a3a6130b8565b610b3a6130b8565b600054610100900460ff1680612a5b575060005460ff16155b612a775760405162461bcd60e51b815260040161067490613815565b600054610100900460ff16158015612a32576000805461ffff1916610101179055612a3a6130b8565b61012d5460405163095ea7b360e01b81526000916001600160a01b03808a169263095ea7b392612ad692169086906004016135bf565b602060405180830381600087803b158015612af057600080fd5b505af1158015612b04573d6000803e3d6000fd5b505050506040513d601f19601f82011682018060405250810190612b2891906133c6565b5060408051600280825260608201909252600091816020015b612b766040518060a0016040528060008019168152602001600081526020016000815260200160008152602001606081525090565b815260200190600190039081612b41579050509050612bc06040518060a0016040528060008019168152602001600081526020016000815260200160008152602001606081525090565b8b81526000602082018190526001604083015260608201859052825182918491612bec57612bec613b86565b6020026020010181905250612c2c6040518060a0016040528060008019168152602001600081526020016000815260200160008152602001606081525090565b8b815260016020820181905260026040830152600060608301528351829185918110612c5a57612c5a613b86565b6020908102919091010152604080516003808252608082019092526000918160200160208202803683370190505090508a81600081518110612c9e57612c9e613b86565b60200260200101906001600160a01b031690816001600160a01b0316815250508981600181518110612cd257612cd2613b86565b60200260200101906001600160a01b031690816001600160a01b0316815250508881600281518110612d0657612d06613b86565b6001600160a01b0392831660209182029290920181019190915260408051608080820183526000938201849052606082018490528c85168252938b168183015281516003808252948101909252928160200160208202803683370190505090506b033b2e3c9fd0803ce800000081600081518110612d8657612d86613b86565b6020026020010181815250506b033b2e3c9fd0803ce800000081600181518110612db257612db2613b86565b6020026020010181815250506b033b2e3c9fd0803ce800000081600281518110612dde57612dde613b86565b602090810291909101015261012d546001600160a01b031663945bcec98f88868686612e0c426102586139c5565b6040518763ffffffff1660e01b8152600401612e2d96959493929190613603565b600060405180830381600087803b158015612e4757600080fd5b505af1158015612e5b573d6000803e3d6000fd5b505050506040513d6000823e601f3d908101601f19168201604052612e839190810190613329565b600281518110612e9557612e95613b86565b6020026020010151612ea690613b53565b96505050505050509998505050505050505050565b61015f5460405163095ea7b360e01b815260009182916001600160a01b038a81169263095ea7b392612ef5929091169087906004016135bf565b602060405180830381600087803b158015612f0f57600080fd5b505af1158015612f23573d6000803e3d6000fd5b505050506040513d601f19601f82011682018060405250810190612f4791906133c6565b506040805160028082526060820183526000926020830190803683370190505090508881600081518110612f7d57612f7d613b86565b60200260200101906001600160a01b031690816001600160a01b0316815250508781600181518110612fb157612fb1613b86565b6001600160a01b03928316602091820292909201015261015f54166338ed173985848489612fe1426102586139c5565b6040518663ffffffff1660e01b81526004016130019594939291906138ff565b600060405180830381600087803b15801561301b57600080fd5b505af115801561302f573d6000803e3d6000fd5b505050506040513d6000823e601f3d908101601f191682016040526130579190810190613329565b60018151811061306957613069613b86565b6020026020010151925050509695505050505050565b6060831561308e575081612669565b82511561309e5782518084602001fd5b8160405162461bcd60e51b81526004016106749190613733565b600054610100900460ff16806130d1575060005460ff16155b6130ed5760405162461bcd60e51b815260040161067490613815565b600054610100900460ff16158015610b3a576000805461ffff19166101011790558015610a22576000805461ff001916905550565b80356001600160a01b03811681146111d057600080fd5b60006020828403121561314b57600080fd5b61266982613122565b60008060008060008060c0878903121561316d57600080fd5b61317687613122565b955061318460208801613122565b945061319260408801613122565b93506131a060608801613122565b92506131ae60808801613122565b91506131bc60a08801613122565b90509295509295509295565b600080600080608085870312156131de57600080fd5b6131e785613122565b93506131f560208601613122565b93969395505050506040820135916060013590565b6000806040838503121561321d57600080fd5b61322683613122565b915060208084013567ffffffffffffffff8082111561324457600080fd5b818601915086601f83011261325857600080fd5b81358181111561326a5761326a613b9c565b61327c601f8201601f19168501613970565b9150808252878482850101111561329257600080fd5b80848401858401376000848284010152508093505050509250929050565b600080604083850312156132c357600080fd5b6132cc83613122565b946020939093013593505050565b600080600080608085870312156132f057600080fd5b6132f985613122565b93506020850135925061330e60408601613122565b9150606085013561331e81613bb2565b939692955090935050565b6000602080838503121561333c57600080fd5b825167ffffffffffffffff81111561335357600080fd5b8301601f8101851361336457600080fd5b8051613377613372826139a1565b613970565b80828252848201915084840188868560051b870101111561339757600080fd5b600094505b838510156133ba57805183526001949094019391850191850161339c565b50979650505050505050565b6000602082840312156133d857600080fd5b815161266981613bb2565b6000602082840312156133f557600080fd5b5035919050565b6000806040838503121561340f57600080fd5b8235915061341f60208401613122565b90509250929050565b60006020828403121561343a57600080fd5b81356001600160e01b03198116811461266957600080fd5b60006020828403121561346457600080fd5b5051919050565b60006020828403121561347d57600080fd5b815160ff8116811461266957600080fd5b600081518084526020808501945080840160005b838110156134c75781516001600160a01b0316875295820195908201906001016134a2565b509495945050505050565b600081518084526020808501945080840160005b838110156134c7578151875295820195908201906001016134e6565b6000815180845261351a816020860160208601613b0c565b601f01601f19169290920160200192915050565b60008251613540818460208701613b0c565b9190910192915050565b7f416363657373436f6e74726f6c3a206163636f756e7420000000000000000000815260008351613582816017850160208801613b0c565b7001034b99036b4b9b9b4b733903937b6329607d1b60179184019182015283516135b3816028840160208801613b0c565b01602801949350505050565b6001600160a01b03929092168252602082015260400190565b6001600160a01b03948516815260208101939093526040830191909152909116606082015260800190565b600061012080830160028a1061362957634e487b7160e01b600052602160045260246000fd5b89845260208085019290925288519081905261014080850192600583901b8601909101918a820160005b828110156136b65787850361013f190186528151805186528481015185870152604080820151908701526060808201519087015260809081015160a0918701829052906136a281880183613502565b978601979650505090830190600101613653565b5050505083810360408501526136cc818961348e565b91505061370c606084018780516001600160a01b039081168352602080830151151590840152604080830151909116908301526060908101511515910152565b82810360e084015261371e81866134d2565b91505082610100830152979650505050505050565b6020815260006126696020830184613502565b6020808252601f908201527f5265737472696374656420746f20504f5254464f4c494f5f4d414e4147455200604082015260600190565b6020808252602c908201527f46756e6374696f6e206d7573742062652063616c6c6564207468726f7567682060408201526b19195b1959d85d1958d85b1b60a21b606082015260800190565b6020808252602c908201527f46756e6374696f6e206d7573742062652063616c6c6564207468726f7567682060408201526b6163746976652070726f787960a01b606082015260800190565b6020808252602e908201527f496e697469616c697a61626c653a20636f6e747261637420697320616c72656160408201526d191e481a5b9a5d1a585b1a5e995960921b606082015260800190565b6020808252601490820152735265737472696374656420746f2061646d696e7360601b604082015260600190565b60208082526019908201527f536f6d6520746f6b656e206e6f7420636f6d70617469626c6500000000000000604082015260600190565b60208082526018908201527f5a65726f2061646472657373206e6f7420616c6c6f7765640000000000000000604082015260600190565b600060a082018783526020878185015260a0604085015281875180845260c086019150828901935060005b8181101561394f5784516001600160a01b03168352938301939183019160010161392a565b50506001600160a01b03969096166060850152505050608001529392505050565b604051601f8201601f1916810167ffffffffffffffff8111828210171561399957613999613b9c565b604052919050565b600067ffffffffffffffff8211156139bb576139bb613b9c565b5060051b60200190565b600082198211156139d8576139d8613b70565b500190565b6000826139fa57634e487b7160e01b600052601260045260246000fd5b500490565b600181815b80851115613a3a578160001904821115613a2057613a20613b70565b80851615613a2d57918102915b93841c9390800290613a04565b509250929050565b600061266960ff841683600082613a5b57506001610647565b81613a6857506000610647565b8160018114613a7e5760028114613a8857613aa4565b6001915050610647565b60ff841115613a9957613a99613b70565b50506001821b610647565b5060208310610133831016604e8410600b8410161715613ac7575081810a610647565b613ad183836139ff565b8060001904821115613ae557613ae5613b70565b029392505050565b6000816000190483118215151615613b0757613b07613b70565b500290565b60005b83811015613b27578181015183820152602001613b0f565b83811115613b36576000848401525b50505050565b600081613b4b57613b4b613b70565b506000190190565b6000600160ff1b821415613b6957613b69613b70565b5060000390565b634e487b7160e01b600052601160045260246000fd5b634e487b7160e01b600052603260045260246000fd5b634e487b7160e01b600052604160045260246000fd5b8015158114610a2257600080fdfe90c2aa7471c04182221f68e80c07ab1e5946e4c63f8693e14ca40385d529f051416464726573733a206c6f772d6c6576656c2064656c65676174652063616c6c206661696c6564a2646970667358221220cc2da8d469e0e9de55da30d9a4c26534c0f6ee4b9148ff75e6cb53b29b63bb5464736f6c63430008060033",
  "devdoc": {
    "kind": "dev",
    "methods": {
      "constructor": {
        "custom:oz-upgrades-unsafe-allow": "constructor"
      },
      "getRoleAdmin(bytes32)": {
        "details": "Returns the admin role that controls `role`. See {grantRole} and {revokeRole}. To change a role's admin, use {_setRoleAdmin}."
      },
      "grantRole(bytes32,address)": {
        "details": "Grants `role` to `account`. If `account` had not been already granted `role`, emits a {RoleGranted} event. Requirements: - the caller must have ``role``'s admin role."
      },
      "hasRole(bytes32,address)": {
        "details": "Returns `true` if `account` has been granted `role`."
      },
      "renounceRole(bytes32,address)": {
        "details": "Revokes `role` from the calling account. Roles are often managed via {grantRole} and {revokeRole}: this function's purpose is to provide a mechanism for accounts to lose their privileges if they are compromised (such as when a trusted device is misplaced). If the calling account had been revoked `role`, emits a {RoleRevoked} event. Requirements: - the caller must be `account`."
      },
      "revokeRole(bytes32,address)": {
        "details": "Revokes `role` from `account`. If `account` had been granted `role`, emits a {RoleRevoked} event. Requirements: - the caller must have ``role``'s admin role."
      },
      "supportsInterface(bytes4)": {
        "details": "See {IERC165-supportsInterface}."
      },
      "upgradeTo(address)": {
        "details": "Upgrade the implementation of the proxy to `newImplementation`. Calls {_authorizeUpgrade}. Emits an {Upgraded} event."
      },
      "upgradeToAndCall(address,bytes)": {
        "details": "Upgrade the implementation of the proxy to `newImplementation`, and subsequently execute the function call encoded in `data`. Calls {_authorizeUpgrade}. Emits an {Upgraded} event."
      }
    },
    "version": 1
  },
  "userdoc": {
    "kind": "user",
    "methods": {},
    "version": 1
  },
  "storageLayout": {
    "storage": [
      {
        "astId": 823,
        "contract": "contracts/strategies/StrategyMStable.sol:StrategyMStable",
        "label": "_initialized",
        "offset": 0,
        "slot": "0",
        "type": "t_bool"
      },
      {
        "astId": 826,
        "contract": "contracts/strategies/StrategyMStable.sol:StrategyMStable",
        "label": "_initializing",
        "offset": 1,
        "slot": "0",
        "type": "t_bool"
      },
      {
        "astId": 2943,
        "contract": "contracts/strategies/StrategyMStable.sol:StrategyMStable",
        "label": "__gap",
        "offset": 0,
        "slot": "1",
        "type": "t_array(t_uint256)50_storage"
      },
      {
        "astId": 3865,
        "contract": "contracts/strategies/StrategyMStable.sol:StrategyMStable",
        "label": "__gap",
        "offset": 0,
        "slot": "51",
        "type": "t_array(t_uint256)50_storage"
      },
      {
        "astId": 48,
        "contract": "contracts/strategies/StrategyMStable.sol:StrategyMStable",
        "label": "_roles",
        "offset": 0,
        "slot": "101",
        "type": "t_mapping(t_bytes32,t_struct(RoleData)43_storage)"
      },
      {
        "astId": 335,
        "contract": "contracts/strategies/StrategyMStable.sol:StrategyMStable",
        "label": "__gap",
        "offset": 0,
        "slot": "102",
        "type": "t_array(t_uint256)49_storage"
      },
      {
        "astId": 806,
        "contract": "contracts/strategies/StrategyMStable.sol:StrategyMStable",
        "label": "__gap",
        "offset": 0,
        "slot": "151",
        "type": "t_array(t_uint256)50_storage"
      },
      {
        "astId": 973,
        "contract": "contracts/strategies/StrategyMStable.sol:StrategyMStable",
        "label": "__gap",
        "offset": 0,
        "slot": "201",
        "type": "t_array(t_uint256)50_storage"
      },
      {
        "astId": 22118,
        "contract": "contracts/strategies/StrategyMStable.sol:StrategyMStable",
        "label": "portfolioManager",
        "offset": 0,
        "slot": "251",
        "type": "t_address"
      },
      {
        "astId": 22387,
        "contract": "contracts/strategies/StrategyMStable.sol:StrategyMStable",
        "label": "__gap",
        "offset": 0,
        "slot": "252",
        "type": "t_array(t_uint256)49_storage"
      },
      {
        "astId": 15669,
        "contract": "contracts/strategies/StrategyMStable.sol:StrategyMStable",
        "label": "balancerVault",
        "offset": 0,
        "slot": "301",
        "type": "t_contract(IVault)18338"
      },
      {
        "astId": 16247,
        "contract": "contracts/strategies/StrategyMStable.sol:StrategyMStable",
        "label": "__gap",
        "offset": 0,
        "slot": "302",
        "type": "t_array(t_uint256)49_storage"
      },
      {
        "astId": 16255,
        "contract": "contracts/strategies/StrategyMStable.sol:StrategyMStable",
        "label": "uniswapRouter",
        "offset": 0,
        "slot": "351",
        "type": "t_contract(IUniswapV2Router02)19972"
      },
      {
        "astId": 16391,
        "contract": "contracts/strategies/StrategyMStable.sol:StrategyMStable",
        "label": "__gap",
        "offset": 0,
        "slot": "352",
        "type": "t_array(t_uint256)49_storage"
      },
      {
        "astId": 27393,
        "contract": "contracts/strategies/StrategyMStable.sol:StrategyMStable",
        "label": "usdcToken",
        "offset": 0,
        "slot": "401",
        "type": "t_contract(IERC20)8922"
      },
      {
        "astId": 27396,
        "contract": "contracts/strategies/StrategyMStable.sol:StrategyMStable",
        "label": "mUsdToken",
        "offset": 0,
        "slot": "402",
        "type": "t_contract(IMasset)19200"
      },
      {
        "astId": 27399,
        "contract": "contracts/strategies/StrategyMStable.sol:StrategyMStable",
        "label": "imUsdToken",
        "offset": 0,
        "slot": "403",
        "type": "t_contract(ISavingsContractV2)19321"
      },
      {
        "astId": 27402,
        "contract": "contracts/strategies/StrategyMStable.sol:StrategyMStable",
        "label": "vimUsdToken",
        "offset": 0,
        "slot": "404",
        "type": "t_contract(IBoostedVaultWithLockup)18973"
      },
      {
        "astId": 27405,
        "contract": "contracts/strategies/StrategyMStable.sol:StrategyMStable",
        "label": "mtaToken",
        "offset": 0,
        "slot": "405",
        "type": "t_contract(IERC20)8922"
      },
      {
        "astId": 27408,
        "contract": "contracts/strategies/StrategyMStable.sol:StrategyMStable",
        "label": "wmaticToken",
        "offset": 0,
        "slot": "406",
        "type": "t_contract(IERC20)8922"
      },
      {
        "astId": 27410,
        "contract": "contracts/strategies/StrategyMStable.sol:StrategyMStable",
        "label": "usdcTokenDenominator",
        "offset": 0,
        "slot": "407",
        "type": "t_uint256"
      },
      {
        "astId": 27412,
        "contract": "contracts/strategies/StrategyMStable.sol:StrategyMStable",
        "label": "vimUsdTokenDenominator",
        "offset": 0,
        "slot": "408",
        "type": "t_uint256"
      },
      {
        "astId": 27414,
        "contract": "contracts/strategies/StrategyMStable.sol:StrategyMStable",
        "label": "wmaticTokenDenominator",
        "offset": 0,
        "slot": "409",
        "type": "t_uint256"
      },
      {
        "astId": 27416,
        "contract": "contracts/strategies/StrategyMStable.sol:StrategyMStable",
        "label": "balancerPoolId1",
        "offset": 0,
        "slot": "410",
        "type": "t_bytes32"
      },
      {
        "astId": 27418,
        "contract": "contracts/strategies/StrategyMStable.sol:StrategyMStable",
        "label": "balancerPoolId2",
        "offset": 0,
        "slot": "411",
        "type": "t_bytes32"
      }
    ],
    "types": {
      "t_address": {
        "encoding": "inplace",
        "label": "address",
        "numberOfBytes": "20"
      },
      "t_array(t_uint256)49_storage": {
        "base": "t_uint256",
        "encoding": "inplace",
        "label": "uint256[49]",
        "numberOfBytes": "1568"
      },
      "t_array(t_uint256)50_storage": {
        "base": "t_uint256",
        "encoding": "inplace",
        "label": "uint256[50]",
        "numberOfBytes": "1600"
      },
      "t_bool": {
        "encoding": "inplace",
        "label": "bool",
        "numberOfBytes": "1"
      },
      "t_bytes32": {
        "encoding": "inplace",
        "label": "bytes32",
        "numberOfBytes": "32"
      },
      "t_contract(IBoostedVaultWithLockup)18973": {
        "encoding": "inplace",
        "label": "contract IBoostedVaultWithLockup",
        "numberOfBytes": "20"
      },
      "t_contract(IERC20)8922": {
        "encoding": "inplace",
        "label": "contract IERC20",
        "numberOfBytes": "20"
      },
      "t_contract(IMasset)19200": {
        "encoding": "inplace",
        "label": "contract IMasset",
        "numberOfBytes": "20"
      },
      "t_contract(ISavingsContractV2)19321": {
        "encoding": "inplace",
        "label": "contract ISavingsContractV2",
        "numberOfBytes": "20"
      },
      "t_contract(IUniswapV2Router02)19972": {
        "encoding": "inplace",
        "label": "contract IUniswapV2Router02",
        "numberOfBytes": "20"
      },
      "t_contract(IVault)18338": {
        "encoding": "inplace",
        "label": "contract IVault",
        "numberOfBytes": "20"
      },
      "t_mapping(t_address,t_bool)": {
        "encoding": "mapping",
        "key": "t_address",
        "label": "mapping(address => bool)",
        "numberOfBytes": "32",
        "value": "t_bool"
      },
      "t_mapping(t_bytes32,t_struct(RoleData)43_storage)": {
        "encoding": "mapping",
        "key": "t_bytes32",
        "label": "mapping(bytes32 => struct AccessControlUpgradeable.RoleData)",
        "numberOfBytes": "32",
        "value": "t_struct(RoleData)43_storage"
      },
      "t_struct(RoleData)43_storage": {
        "encoding": "inplace",
        "label": "struct AccessControlUpgradeable.RoleData",
        "members": [
          {
            "astId": 40,
            "contract": "contracts/strategies/StrategyMStable.sol:StrategyMStable",
            "label": "members",
            "offset": 0,
            "slot": "0",
            "type": "t_mapping(t_address,t_bool)"
          },
          {
            "astId": 42,
            "contract": "contracts/strategies/StrategyMStable.sol:StrategyMStable",
            "label": "adminRole",
            "offset": 0,
            "slot": "1",
            "type": "t_bytes32"
          }
        ],
        "numberOfBytes": "64"
      },
      "t_uint256": {
        "encoding": "inplace",
        "label": "uint256",
        "numberOfBytes": "32"
      }
    }
  }
}