{
  "address": "0xE9D203Ce2CB1Bf0367484BdD5239A7510Efd88Bf",
  "abi": [
    {
      "inputs": [],
      "stateMutability": "nonpayable",
      "type": "constructor"
    },
    {
      "anonymous": false,
      "inputs": [
        {
          "indexed": false,
          "internalType": "address",
          "name": "previousAdmin",
          "type": "address"
        },
        {
          "indexed": false,
          "internalType": "address",
          "name": "newAdmin",
          "type": "address"
        }
      ],
      "name": "AdminChanged",
      "type": "event"
    },
    {
      "anonymous": false,
      "inputs": [
        {
          "indexed": true,
          "internalType": "address",
          "name": "beacon",
          "type": "address"
        }
      ],
      "name": "BeaconUpgraded",
      "type": "event"
    },
    {
      "anonymous": false,
      "inputs": [
        {
          "indexed": false,
          "internalType": "address",
          "name": "value",
          "type": "address"
        }
      ],
      "name": "PortfolioManagerUpdated",
      "type": "event"
    },
    {
      "anonymous": false,
      "inputs": [
        {
          "indexed": false,
          "internalType": "uint256",
          "name": "amount",
          "type": "uint256"
        }
      ],
      "name": "Reward",
      "type": "event"
    },
    {
      "anonymous": false,
      "inputs": [
        {
          "indexed": true,
          "internalType": "bytes32",
          "name": "role",
          "type": "bytes32"
        },
        {
          "indexed": true,
          "internalType": "bytes32",
          "name": "previousAdminRole",
          "type": "bytes32"
        },
        {
          "indexed": true,
          "internalType": "bytes32",
          "name": "newAdminRole",
          "type": "bytes32"
        }
      ],
      "name": "RoleAdminChanged",
      "type": "event"
    },
    {
      "anonymous": false,
      "inputs": [
        {
          "indexed": true,
          "internalType": "bytes32",
          "name": "role",
          "type": "bytes32"
        },
        {
          "indexed": true,
          "internalType": "address",
          "name": "account",
          "type": "address"
        },
        {
          "indexed": true,
          "internalType": "address",
          "name": "sender",
          "type": "address"
        }
      ],
      "name": "RoleGranted",
      "type": "event"
    },
    {
      "anonymous": false,
      "inputs": [
        {
          "indexed": true,
          "internalType": "bytes32",
          "name": "role",
          "type": "bytes32"
        },
        {
          "indexed": true,
          "internalType": "address",
          "name": "account",
          "type": "address"
        },
        {
          "indexed": true,
          "internalType": "address",
          "name": "sender",
          "type": "address"
        }
      ],
      "name": "RoleRevoked",
      "type": "event"
    },
    {
      "anonymous": false,
      "inputs": [
        {
          "indexed": false,
          "internalType": "address",
          "name": "uniswapRouter",
          "type": "address"
        }
      ],
      "name": "StrategyIdleUpdatedParams",
      "type": "event"
    },
    {
      "anonymous": false,
      "inputs": [
        {
          "indexed": false,
          "internalType": "address",
          "name": "usdcToken",
          "type": "address"
        },
        {
          "indexed": false,
          "internalType": "address",
          "name": "idleToken",
          "type": "address"
        },
        {
          "indexed": false,
          "internalType": "address",
          "name": "wmaticToken",
          "type": "address"
        },
        {
          "indexed": false,
          "internalType": "uint256",
          "name": "usdcTokenDenominator",
          "type": "uint256"
        },
        {
          "indexed": false,
          "internalType": "uint256",
          "name": "idleTokenDenominator",
          "type": "uint256"
        },
        {
          "indexed": false,
          "internalType": "uint256",
          "name": "wmaticTokenDenominator",
          "type": "uint256"
        }
      ],
      "name": "StrategyIdleUpdatedTokens",
      "type": "event"
    },
    {
      "anonymous": false,
      "inputs": [
        {
          "indexed": true,
          "internalType": "address",
          "name": "implementation",
          "type": "address"
        }
      ],
      "name": "Upgraded",
      "type": "event"
    },
    {
      "inputs": [],
      "name": "DEFAULT_ADMIN_ROLE",
      "outputs": [
        {
          "internalType": "bytes32",
          "name": "",
          "type": "bytes32"
        }
      ],
      "stateMutability": "view",
      "type": "function"
    },
    {
      "inputs": [],
      "name": "MAX_VALUE",
      "outputs": [
        {
          "internalType": "int256",
          "name": "",
          "type": "int256"
        }
      ],
      "stateMutability": "view",
      "type": "function"
    },
    {
      "inputs": [],
      "name": "PORTFOLIO_MANAGER",
      "outputs": [
        {
          "internalType": "bytes32",
          "name": "",
          "type": "bytes32"
        }
      ],
      "stateMutability": "view",
      "type": "function"
    },
    {
      "inputs": [],
      "name": "UPGRADER_ROLE",
      "outputs": [
        {
          "internalType": "bytes32",
          "name": "",
          "type": "bytes32"
        }
      ],
      "stateMutability": "view",
      "type": "function"
    },
    {
      "inputs": [],
      "name": "balancerPoolId",
      "outputs": [
        {
          "internalType": "bytes32",
          "name": "",
          "type": "bytes32"
        }
      ],
      "stateMutability": "view",
      "type": "function"
    },
    {
      "inputs": [],
      "name": "balancerVault",
      "outputs": [
        {
          "internalType": "contract IVault",
          "name": "",
          "type": "address"
        }
      ],
      "stateMutability": "view",
      "type": "function"
    },
    {
      "inputs": [
        {
          "internalType": "address",
          "name": "_to",
          "type": "address"
        }
      ],
      "name": "claimRewards",
      "outputs": [
        {
          "internalType": "uint256",
          "name": "",
          "type": "uint256"
        }
      ],
      "stateMutability": "nonpayable",
      "type": "function"
    },
    {
      "inputs": [
        {
          "internalType": "bytes32",
          "name": "role",
          "type": "bytes32"
        }
      ],
      "name": "getRoleAdmin",
      "outputs": [
        {
          "internalType": "bytes32",
          "name": "",
          "type": "bytes32"
        }
      ],
      "stateMutability": "view",
      "type": "function"
    },
    {
      "inputs": [
        {
          "internalType": "bytes32",
          "name": "role",
          "type": "bytes32"
        },
        {
          "internalType": "address",
          "name": "account",
          "type": "address"
        }
      ],
      "name": "grantRole",
      "outputs": [],
      "stateMutability": "nonpayable",
      "type": "function"
    },
    {
      "inputs": [
        {
          "internalType": "bytes32",
          "name": "role",
          "type": "bytes32"
        },
        {
          "internalType": "address",
          "name": "account",
          "type": "address"
        }
      ],
      "name": "hasRole",
      "outputs": [
        {
          "internalType": "bool",
          "name": "",
          "type": "bool"
        }
      ],
      "stateMutability": "view",
      "type": "function"
    },
    {
      "inputs": [],
      "name": "initialize",
      "outputs": [],
      "stateMutability": "nonpayable",
      "type": "function"
    },
    {
      "inputs": [],
      "name": "iziToken",
      "outputs": [
        {
          "internalType": "contract IERC20",
          "name": "",
          "type": "address"
        }
      ],
      "stateMutability": "view",
      "type": "function"
    },
    {
      "inputs": [],
      "name": "iziTokenDenominator",
      "outputs": [
        {
          "internalType": "uint256",
          "name": "",
          "type": "uint256"
        }
      ],
      "stateMutability": "view",
      "type": "function"
    },
    {
      "inputs": [],
      "name": "izumiBoost",
      "outputs": [
        {
          "internalType": "contract MiningFixRangeBoost",
          "name": "",
          "type": "address"
        }
      ],
      "stateMutability": "view",
      "type": "function"
    },
    {
      "inputs": [],
      "name": "liquidationValue",
      "outputs": [
        {
          "internalType": "uint256",
          "name": "",
          "type": "uint256"
        }
      ],
      "stateMutability": "view",
      "type": "function"
    },
    {
      "inputs": [],
      "name": "netAssetValue",
      "outputs": [
        {
          "internalType": "uint256",
          "name": "",
          "type": "uint256"
        }
      ],
      "stateMutability": "view",
      "type": "function"
    },
    {
      "inputs": [
        {
          "internalType": "address",
          "name": "",
          "type": "address"
        },
        {
          "internalType": "address",
          "name": "",
          "type": "address"
        },
        {
          "internalType": "uint256",
          "name": "",
          "type": "uint256"
        },
        {
          "internalType": "bytes",
          "name": "",
          "type": "bytes"
        }
      ],
      "name": "onERC721Received",
      "outputs": [
        {
          "internalType": "bytes4",
          "name": "",
          "type": "bytes4"
        }
      ],
      "stateMutability": "nonpayable",
      "type": "function"
    },
    {
      "inputs": [],
      "name": "portfolioManager",
      "outputs": [
        {
          "internalType": "address",
          "name": "",
          "type": "address"
        }
      ],
      "stateMutability": "view",
      "type": "function"
    },
    {
      "inputs": [
        {
          "internalType": "bytes32",
          "name": "role",
          "type": "bytes32"
        },
        {
          "internalType": "address",
          "name": "account",
          "type": "address"
        }
      ],
      "name": "renounceRole",
      "outputs": [],
      "stateMutability": "nonpayable",
      "type": "function"
    },
    {
      "inputs": [
        {
          "internalType": "bytes32",
          "name": "role",
          "type": "bytes32"
        },
        {
          "internalType": "address",
          "name": "account",
          "type": "address"
        }
      ],
      "name": "revokeRole",
      "outputs": [],
      "stateMutability": "nonpayable",
      "type": "function"
    },
    {
      "inputs": [
        {
          "internalType": "address",
          "name": "_uniswapPositionManager",
          "type": "address"
        },
        {
          "internalType": "address",
          "name": "_uniswapV3Pool",
          "type": "address"
        },
        {
          "internalType": "address",
          "name": "_uniswapV2Router",
          "type": "address"
        },
        {
          "internalType": "address",
          "name": "_izumiBoost",
          "type": "address"
        },
        {
          "internalType": "address",
          "name": "_uniswapV3Router",
          "type": "address"
        },
        {
          "internalType": "bytes32",
          "name": "_balancerPoolId",
          "type": "bytes32"
        },
        {
          "internalType": "address",
          "name": "_balancerVault",
          "type": "address"
        }
      ],
      "name": "setParams",
      "outputs": [],
      "stateMutability": "nonpayable",
      "type": "function"
    },
    {
      "inputs": [
        {
          "internalType": "address",
          "name": "_value",
          "type": "address"
        }
      ],
      "name": "setPortfolioManager",
      "outputs": [],
      "stateMutability": "nonpayable",
      "type": "function"
    },
    {
      "inputs": [
        {
          "internalType": "address",
          "name": "_usdcToken",
          "type": "address"
        },
        {
          "internalType": "address",
          "name": "_usdtToken",
          "type": "address"
        },
        {
          "internalType": "address",
          "name": "_iziToken",
          "type": "address"
        },
        {
          "internalType": "address",
          "name": "_yinToken",
          "type": "address"
        },
        {
          "internalType": "address",
          "name": "_uniswapToken",
          "type": "address"
        },
        {
          "internalType": "address",
          "name": "_wethToken",
          "type": "address"
        }
      ],
      "name": "setTokens",
      "outputs": [],
      "stateMutability": "nonpayable",
      "type": "function"
    },
    {
      "inputs": [
        {
          "internalType": "address",
          "name": "_asset",
          "type": "address"
        },
        {
          "internalType": "uint256",
          "name": "_amount",
          "type": "uint256"
        }
      ],
      "name": "stake",
      "outputs": [],
      "stateMutability": "nonpayable",
      "type": "function"
    },
    {
      "inputs": [
        {
          "internalType": "bytes4",
          "name": "interfaceId",
          "type": "bytes4"
        }
      ],
      "name": "supportsInterface",
      "outputs": [
        {
          "internalType": "bool",
          "name": "",
          "type": "bool"
        }
      ],
      "stateMutability": "view",
      "type": "function"
    },
    {
      "inputs": [],
      "name": "tokenId",
      "outputs": [
        {
          "internalType": "uint256",
          "name": "",
          "type": "uint256"
        }
      ],
      "stateMutability": "view",
      "type": "function"
    },
    {
      "inputs": [],
      "name": "uniswapPositionManager",
      "outputs": [
        {
          "internalType": "contract INonfungiblePositionManager",
          "name": "",
          "type": "address"
        }
      ],
      "stateMutability": "view",
      "type": "function"
    },
    {
      "inputs": [],
      "name": "uniswapToken",
      "outputs": [
        {
          "internalType": "contract IERC721",
          "name": "",
          "type": "address"
        }
      ],
      "stateMutability": "view",
      "type": "function"
    },
    {
      "inputs": [],
      "name": "uniswapV3Pool",
      "outputs": [
        {
          "internalType": "contract IUniswapV3Pool",
          "name": "",
          "type": "address"
        }
      ],
      "stateMutability": "view",
      "type": "function"
    },
    {
      "inputs": [],
      "name": "uniswapV3Router",
      "outputs": [
        {
          "internalType": "contract ISwapRouter",
          "name": "",
          "type": "address"
        }
      ],
      "stateMutability": "view",
      "type": "function"
    },
    {
      "inputs": [
        {
          "internalType": "address",
          "name": "_asset",
          "type": "address"
        },
        {
          "internalType": "uint256",
          "name": "_amount",
          "type": "uint256"
        },
        {
          "internalType": "address",
          "name": "_beneficiary",
          "type": "address"
        },
        {
          "internalType": "bool",
          "name": "_targetIsZero",
          "type": "bool"
        }
      ],
      "name": "unstake",
      "outputs": [
        {
          "internalType": "uint256",
          "name": "",
          "type": "uint256"
        }
      ],
      "stateMutability": "nonpayable",
      "type": "function"
    },
    {
      "inputs": [
        {
          "internalType": "address",
          "name": "newImplementation",
          "type": "address"
        }
      ],
      "name": "upgradeTo",
      "outputs": [],
      "stateMutability": "nonpayable",
      "type": "function"
    },
    {
      "inputs": [
        {
          "internalType": "address",
          "name": "newImplementation",
          "type": "address"
        },
        {
          "internalType": "bytes",
          "name": "data",
          "type": "bytes"
        }
      ],
      "name": "upgradeToAndCall",
      "outputs": [],
      "stateMutability": "payable",
      "type": "function"
    },
    {
      "inputs": [],
      "name": "usdcToken",
      "outputs": [
        {
          "internalType": "contract IERC20",
          "name": "",
          "type": "address"
        }
      ],
      "stateMutability": "view",
      "type": "function"
    },
    {
      "inputs": [],
      "name": "usdcTokenDenominator",
      "outputs": [
        {
          "internalType": "uint256",
          "name": "",
          "type": "uint256"
        }
      ],
      "stateMutability": "view",
      "type": "function"
    },
    {
      "inputs": [],
      "name": "usdtToken",
      "outputs": [
        {
          "internalType": "contract IERC20",
          "name": "",
          "type": "address"
        }
      ],
      "stateMutability": "view",
      "type": "function"
    },
    {
      "inputs": [],
      "name": "usdtTokenDenominator",
      "outputs": [
        {
          "internalType": "uint256",
          "name": "",
          "type": "uint256"
        }
      ],
      "stateMutability": "view",
      "type": "function"
    },
    {
      "inputs": [],
      "name": "wethToken",
      "outputs": [
        {
          "internalType": "contract IERC20",
          "name": "",
          "type": "address"
        }
      ],
      "stateMutability": "view",
      "type": "function"
    },
    {
      "inputs": [],
      "name": "yinToken",
      "outputs": [
        {
          "internalType": "contract IERC20",
          "name": "",
          "type": "address"
        }
      ],
      "stateMutability": "view",
      "type": "function"
    },
    {
      "inputs": [],
      "name": "yinTokenDenominator",
      "outputs": [
        {
          "internalType": "uint256",
          "name": "",
          "type": "uint256"
        }
      ],
      "stateMutability": "view",
      "type": "function"
    }
  ],
  "solcInputHash": "7a3d7df7615f780cc2cc2fe61ea1fe58",
  "bytecode": "0x60a06040523060601b6080523480156200001857600080fd5b50600054610100900460ff168062000033575060005460ff16155b6200009b5760405162461bcd60e51b815260206004820152602e60248201527f496e697469616c697a61626c653a20636f6e747261637420697320616c72656160448201526d191e481a5b9a5d1a585b1a5e995960921b606482015260840160405180910390fd5b600054610100900460ff16158015620000be576000805461ffff19166101011790555b8015620000d1576000805461ff00191690555b5060805160601c61547f620001066000396000818161084d0152818161088d015281816109160152610956015261547f6000f3fe60806040526004361061023b5760003560e01c80637f049d781161012e578063c2ad4c57116100ab578063ef5cfb8c1161006f578063ef5cfb8c14610699578063f55ebd2a146106b9578063f6f6b881146106da578063f72c0d8b146106fa578063f90971f91461072e57600080fd5b8063c2ad4c5714610613578063c3bc6ff11461062a578063d547741f14610641578063dbbb64b914610661578063e5047b301461067857600080fd5b8063a440b21a116100f2578063a440b21a14610571578063a7ab2e4d14610591578063a98ad46c146105b1578063adc9772e146105d2578063b68f3a6f146105f257600080fd5b80637f049d78146105065780638129fc1c1461052757806391d148541461053c578063a217fddf1461055c578063a3673b38146103d757600080fd5b80632576e65a116101bc5780634b57b0be116101805780634b57b0be1461046f5780634f1ef286146104905780635eaf799e146104a3578063620b75df146104c45780637d5f5802146104e457600080fd5b80632576e65a146103d75780632c76d7a6146103ec5780632f2ff15d1461040d57806336568abe1461042f5780633659cfe61461044f57600080fd5b8063150b7a0211610203578063150b7a0214610314578063158274a51461035857806317d70f7c1461037957806318b2a3e314610390578063248a9ca3146103a757600080fd5b806301ffc9a714610240578063063bde241461027557806306da3f2e146102a357806309ca2756146102ba57806311eac855146102f3575b600080fd5b34801561024c57600080fd5b5061026061025b36600461497a565b61074e565b60405190151581526020015b60405180910390f35b34801561028157600080fd5b506102956b033b2e3c9fd0803ce800000081565b60405190815260200161026c565b3480156102af57600080fd5b506102956101655481565b3480156102c657600080fd5b50610161546102db906001600160a01b031681565b6040516001600160a01b03909116815260200161026c565b3480156102ff57600080fd5b5061015f546102db906001600160a01b031681565b34801561032057600080fd5b5061033f61032f36600461472c565b630a85bd0160e11b949350505050565b6040516001600160e01b0319909116815260200161026c565b34801561036457600080fd5b5061016e546102db906001600160a01b031681565b34801561038557600080fd5b506102956101695481565b34801561039c57600080fd5b506102956101675481565b3480156103b357600080fd5b506102956103c2366004614931565b60009081526065602052604090206001015490565b3480156103e357600080fd5b50610295610785565b3480156103f857600080fd5b5061016d546102db906001600160a01b031681565b34801561041957600080fd5b5061042d61042836600461494a565b610794565b005b34801561043b57600080fd5b5061042d61044a36600461494a565b6107bf565b34801561045b57600080fd5b5061042d61046a366004614600565b610842565b34801561047b57600080fd5b50610163546102db906001600160a01b031681565b61042d61049e366004614798565b61090b565b3480156104af57600080fd5b5061016c546102db906001600160a01b031681565b3480156104d057600080fd5b5060fb546102db906001600160a01b031681565b3480156104f057600080fd5b5061029560008051602061540383398151915281565b34801561051257600080fd5b50610164546102db906001600160a01b031681565b34801561053357600080fd5b5061042d6109c1565b34801561054857600080fd5b5061026061055736600461494a565b610a34565b34801561056857600080fd5b50610295600081565b34801561057d57600080fd5b5061042d61058c366004614600565b610a5f565b34801561059d57600080fd5b5061042d6105ac36600461461d565b610b3d565b3480156105bd57600080fd5b50610160546102db906001600160a01b031681565b3480156105de57600080fd5b5061042d6105ed3660046147e8565b610ebd565b3480156105fe57600080fd5b50610162546102db906001600160a01b031681565b34801561061f57600080fd5b506102956101685481565b34801561063657600080fd5b506102956101665481565b34801561064d57600080fd5b5061042d61065c36600461494a565b610f73565b34801561066d57600080fd5b5061029561016f5481565b34801561068457600080fd5b5061016a546102db906001600160a01b031681565b3480156106a557600080fd5b506102956106b4366004614600565b610f99565b3480156106c557600080fd5b5061016b546102db906001600160a01b031681565b3480156106e657600080fd5b506102956106f5366004614814565b61101d565b34801561070657600080fd5b506102957f189ab7a9244df0848122154315af71fe140f3db0fe014031783b0946b8c9d2e381565b34801561073a57600080fd5b5061042d61074936600461469f565b6111e3565b60006001600160e01b03198216637965db0b60e01b148061077f57506301ffc9a760e01b6001600160e01b03198316145b92915050565b600061078f611394565b905090565b6000828152606560205260409020600101546107b08133611644565b6107ba83836116a8565b505050565b6001600160a01b03811633146108345760405162461bcd60e51b815260206004820152602f60248201527f416363657373436f6e74726f6c3a2063616e206f6e6c792072656e6f756e636560448201526e103937b632b9903337b91039b2b63360891b60648201526084015b60405180910390fd5b61083e828261172e565b5050565b306001600160a01b037f000000000000000000000000000000000000000000000000000000000000000016141561088b5760405162461bcd60e51b815260040161082b90614d64565b7f00000000000000000000000000000000000000000000000000000000000000006001600160a01b03166108bd611795565b6001600160a01b0316146108e35760405162461bcd60e51b815260040161082b90614db0565b6108ec816117c3565b60408051600080825260208201909252610908918391906117ee565b50565b306001600160a01b037f00000000000000000000000000000000000000000000000000000000000000001614156109545760405162461bcd60e51b815260040161082b90614d64565b7f00000000000000000000000000000000000000000000000000000000000000006001600160a01b0316610986611795565b6001600160a01b0316146109ac5760405162461bcd60e51b815260040161082b90614db0565b6109b5826117c3565b61083e828260016117ee565b600054610100900460ff16806109da575060005460ff16155b6109f65760405162461bcd60e51b815260040161082b90614dfc565b600054610100900460ff16158015610a18576000805461ffff19166101011790555b610a20611939565b8015610908576000805461ff001916905550565b60009182526065602090815260408084206001600160a01b0393909316845291905290205460ff1690565b610a6a600033610a34565b610a865760405162461bcd60e51b815260040161082b90614e4a565b6001600160a01b038116610aac5760405162461bcd60e51b815260040161082b90614eaf565b60fb54610ad190600080516020615403833981519152906001600160a01b0316610f73565b610ae960008051602061540383398151915282610794565b60fb80546001600160a01b0319166001600160a01b0383169081179091556040519081527ff7b449fcd5cfb7379dcd34cb69428dd9f882033b15be33d83b42d91daa28eeb79060200160405180910390a150565b610b48600033610a34565b610b645760405162461bcd60e51b815260040161082b90614e4a565b6001600160a01b038616610b8a5760405162461bcd60e51b815260040161082b90614eaf565b6001600160a01b038516610bb05760405162461bcd60e51b815260040161082b90614eaf565b6001600160a01b038416610bd65760405162461bcd60e51b815260040161082b90614eaf565b6001600160a01b038316610bfc5760405162461bcd60e51b815260040161082b90614eaf565b6001600160a01b038216610c225760405162461bcd60e51b815260040161082b90614eaf565b6001600160a01b038116610c485760405162461bcd60e51b815260040161082b90614eaf565b61015f80546001600160a01b03199081166001600160a01b038981169182179093556101608054831689851617905561016180548316888516179055610162805483168785161790556101638054831685851617905561016480549092169285169290921790556040805163313ce56760e01b8152905163313ce56791600480820192602092909190829003018186803b158015610ce557600080fd5b505afa158015610cf9573d6000803e3d6000fd5b505050506040513d601f19601f82011682018060405250810190610d1d9190614b04565b610d2890600a615237565b61016581905550846001600160a01b031663313ce5676040518163ffffffff1660e01b815260040160206040518083038186803b158015610d6857600080fd5b505afa158015610d7c573d6000803e3d6000fd5b505050506040513d601f19601f82011682018060405250810190610da09190614b04565b610dab90600a615237565b61016681905550836001600160a01b031663313ce5676040518163ffffffff1660e01b815260040160206040518083038186803b158015610deb57600080fd5b505afa158015610dff573d6000803e3d6000fd5b505050506040513d601f19601f82011682018060405250810190610e239190614b04565b610e2e90600a615237565b61016781905550826001600160a01b031663313ce5676040518163ffffffff1660e01b815260040160206040518083038186803b158015610e6e57600080fd5b505afa158015610e82573d6000803e3d6000fd5b505050506040513d601f19601f82011682018060405250810190610ea69190614b04565b610eb190600a615237565b61016855505050505050565b610ed560008051602061540383398151915233610a34565b610ef15760405162461bcd60e51b815260040161082b90614d2d565b6040516370a0823160e01b815230600482015261083e9083906001600160a01b038216906370a082319060240160206040518083038186803b158015610f3657600080fd5b505afa158015610f4a573d6000803e3d6000fd5b505050506040513d601f19601f82011682018060405250810190610f6e9190614a8b565b6119d5565b600082815260656020526040902060010154610f8f8133611644565b6107ba838361172e565b6000610fb360008051602061540383398151915233610a34565b610fcf5760405162461bcd60e51b815260040161082b90614d2d565b6000610fda83611a1b565b90507f3ac0594a85a20354f9dc74f33728416d19ce00d04a406c108cc2dcf2cecea1348160405161100d91815260200190565b60405180910390a190505b919050565b600061103760008051602061540383398151915233610a34565b6110535760405162461bcd60e51b815260040161082b90614d2d565b6000821561106c576110658685611aaf565b90506110db565b611077868686611f28565b9050848110156110db5760405162461bcd60e51b815260206004820152602960248201527f52657475726e65642076616c7565206c657373207468616e2072657175657374604482015268195908185b5bdd5b9d60ba1b606482015260840161082b565b6040516370a0823160e01b81523060048201526000906001600160a01b038816906370a082319060240160206040518083038186803b15801561111d57600080fd5b505afa158015611131573d6000803e3d6000fd5b505050506040513d601f19601f820116820180604052508101906111559190614a8b565b60405163a9059cbb60e01b81529091506001600160a01b0388169063a9059cbb906111869088908590600401614d01565b602060405180830381600087803b1580156111a057600080fd5b505af11580156111b4573d6000803e3d6000fd5b505050506040513d601f19601f820116820180604052508101906111d89190614914565b509695505050505050565b6111ee600033610a34565b61120a5760405162461bcd60e51b815260040161082b90614e4a565b6001600160a01b0387166112305760405162461bcd60e51b815260040161082b90614eaf565b6001600160a01b0386166112565760405162461bcd60e51b815260040161082b90614eaf565b6001600160a01b03851661127c5760405162461bcd60e51b815260040161082b90614eaf565b6001600160a01b0383166112a25760405162461bcd60e51b815260040161082b90614eaf565b6001600160a01b0384166112c85760405162461bcd60e51b815260040161082b90614eaf565b816112e55760405162461bcd60e51b815260040161082b90614eaf565b6001600160a01b03811661130b5760405162461bcd60e51b815260040161082b90614eaf565b61016a80546001600160a01b03199081166001600160a01b038a81169190911790925561016b8054821689841617905561016c8054821687841617905561016d8054821686841617905561012d805490911691871691909117905561016f9190915561016e80546001600160a01b0319166001600160a01b039092169190911790555050505050565b600061016954600014156113a85750600090565b61016a546101695460405163133f757160e31b815260048101919091526000916001600160a01b0316906399fbab88906024016101806040518083038186803b1580156113f457600080fd5b505afa158015611408573d6000803e3d6000fd5b505050506040513d601f19601f8201168201806040525081019061142c9190614b1f565b50505050975050505050505050600061016b60009054906101000a90046001600160a01b03166001600160a01b0316633850c7bd6040518163ffffffff1660e01b815260040160e06040518083038186803b15801561148a57600080fd5b505afa15801561149e573d6000803e3d6000fd5b505050506040513d601f19601f820116820180604052508101906114c291906149f4565b50505050505090506000806114f2836bffdf3de87261863e03afb3786c010020c649300be3bb0e87ea7787611feb565b61015f546040516370a0823160e01b815230600482015292945090925060009184916001600160a01b0316906370a082319060240160206040518083038186803b15801561153f57600080fd5b505afa158015611553573d6000803e3d6000fd5b505050506040513d601f19601f820116820180604052508101906115779190614a8b565b61158191906151ba565b610160546040516370a0823160e01b815230600482015291925060009184916001600160a01b0316906370a082319060240160206040518083038186803b1580156115cb57600080fd5b505afa1580156115df573d6000803e3d6000fd5b505050506040513d601f19601f820116820180604052508101906116039190614a8b565b61160d91906151ba565b6101605461015f5491925061162f916001600160a01b03918216911683612087565b61163990836151ba565b965050505050505090565b61164e8282610a34565b61083e57611666816001600160a01b031660146121b5565b6116718360206121b5565b604051602001611682929190614c8c565b60408051601f198184030181529082905262461bcd60e51b825261082b91600401614d1a565b6116b28282610a34565b61083e5760008281526065602090815260408083206001600160a01b03851684529091529020805460ff191660011790556116ea3390565b6001600160a01b0316816001600160a01b0316837f2f8788117e7eff1d82e926ec794901d17c78024a50270940304540a733656f0d60405160405180910390a45050565b6117388282610a34565b1561083e5760008281526065602090815260408083206001600160a01b0385168085529252808320805460ff1916905551339285917ff6391f5c32d9c69d2a47ea670b442974b53935d1edc7fd64eb21e047a839171b9190a45050565b7f360894a13ba1a3210667c828492db98dca3e2076cc3735a920a3ca505d382bbc546001600160a01b031690565b7f189ab7a9244df0848122154315af71fe140f3db0fe014031783b0946b8c9d2e361083e8133611644565b60006117f8611795565b905061180384612351565b6000835111806118105750815b156118215761181f84846123f6565b505b7f4910fdfa16fed3260ed0e7147f7cc6da11a60208b5b9406d12a635614ffd9143805460ff1661193257805460ff191660011781556040516001600160a01b03831660248201526118a090869060440160408051601f198184030181529190526020810180516001600160e01b0316631b2ce7f360e11b1790526123f6565b50805460ff191681556118b1611795565b6001600160a01b0316826001600160a01b0316146119295760405162461bcd60e51b815260206004820152602f60248201527f45524331393637557067726164653a207570677261646520627265616b73206660448201526e75727468657220757067726164657360881b606482015260840161082b565b611932856124e1565b5050505050565b600054610100900460ff1680611952575060005460ff16155b61196e5760405162461bcd60e51b815260040161082b90614dfc565b600054610100900460ff16158015611990576000805461ffff19166101011790555b611998612521565b6119a0612590565b6119ab6000336116a8565b610a207f189ab7a9244df0848122154315af71fe140f3db0fe014031783b0946b8c9d2e3336116a8565b61015f546001600160a01b03838116911614611a035760405162461bcd60e51b815260040161082b90614e78565b61016954611a135761083e6125ee565b61083e612aa5565b61016c5461016954604051635e9a83ed60e11b815260048101919091526000916001600160a01b03169063bd3507da90602401600060405180830381600087803b158015611a6857600080fd5b505af1158015611a7c573d6000803e3d6000fd5b505050506000611a8a612de9565b611a9490826151ba565b9050611a9e613332565b611aa890826151ba565b9392505050565b61015f546000906001600160a01b03848116911614611ae05760405162461bcd60e51b815260040161082b90614e78565b611ae930611a1b565b5061016954611b755761015f546040516370a0823160e01b81523060048201526001600160a01b03909116906370a082319060240160206040518083038186803b158015611b3657600080fd5b505afa158015611b4a573d6000803e3d6000fd5b505050506040513d601f19601f82011682018060405250810190611b6e9190614a8b565b905061077f565b61016c5461016954604051631c683a1b60e11b81526004810191909152600060248201526001600160a01b03909116906338d0743690604401600060405180830381600087803b158015611bc857600080fd5b505af1158015611bdc573d6000803e3d6000fd5b50505050600061016b60009054906101000a90046001600160a01b03166001600160a01b0316633850c7bd6040518163ffffffff1660e01b815260040160e06040518083038186803b158015611c3157600080fd5b505afa158015611c45573d6000803e3d6000fd5b505050506040513d601f19601f82011682018060405250810190611c6991906149f4565b505061016a546101695460405163133f757160e31b81529697506000966001600160a01b0390921695506399fbab889450611cad9350915060040190815260200190565b6101806040518083038186803b158015611cc657600080fd5b505afa158015611cda573d6000803e3d6000fd5b505050506040513d601f19601f82011682018060405250810190611cfe9190614b1f565b50505050975050505050505050600080611d33846bffdf3de87261863e03afb3786c010020c649300be3bb0e87ea7786611feb565b9150915060006040518060a00160405280610169548152602001856001600160801b031681526020016064856063611d6b91906152e2565b611d7591906151d2565b81526020016064611d878560636152e2565b611d9191906151d2565b8152602001611da2426102586151ba565b905261016a54604051630624e65f60e11b81529192506001600160a01b031690630c49ccbe90611dd6908490600401614ee6565b6040805180830381600087803b158015611def57600080fd5b505af1158015611e03573d6000803e3d6000fd5b505050506040513d601f19601f82011682018060405250810190611e279190614ae0565b5050611e316134db565b61016a5461016954604051630852cd8d60e31b81526001600160a01b03909216916342966c6891611e689160040190815260200190565b600060405180830381600087803b158015611e8257600080fd5b505af1158015611e96573d6000803e3d6000fd5b5050600061016955505061015f546040516370a0823160e01b81523060048201526001600160a01b03909116906370a082319060240160206040518083038186803b158015611ee457600080fd5b505afa158015611ef8573d6000803e3d6000fd5b505050506040513d601f19601f82011682018060405250810190611f1c9190614a8b565b9550505050505061077f565b61015f546000906001600160a01b03858116911614611f595760405162461bcd60e51b815260040161082b90614e78565b61015f546040516370a0823160e01b815230600482015284916001600160a01b0316906370a082319060240160206040518083038186803b158015611f9d57600080fd5b505afa158015611fb1573d6000803e3d6000fd5b505050506040513d601f19601f82011682018060405250810190611fd59190614a8b565b11611fe357611fe38361363c565b509092915050565b600080836001600160a01b0316856001600160a01b0316111561200c579293925b846001600160a01b0316866001600160a01b0316116120375761203085858561394d565b915061207e565b836001600160a01b0316866001600160a01b031610156120705761205c86858561394d565b91506120698587856139c8565b905061207e565b61207b8585856139c8565b90505b94509492505050565b6040805160028082526060820183526000928392919060208301908036833701905050905084816000815181106120c0576120c06153b3565b60200260200101906001600160a01b031690816001600160a01b03168152505083816001815181106120f4576120f46153b3565b6001600160a01b03928316602091820292909201015261012d5460405163d06ca61f60e01b8152600092919091169063d06ca61f906121399087908690600401615134565b60006040518083038186803b15801561215157600080fd5b505afa158015612165573d6000803e3d6000fd5b505050506040513d6000823e601f3d908101601f1916820160405261218d9190810190614867565b9050806001815181106121a2576121a26153b3565b6020026020010151925050509392505050565b606060006121c48360026152e2565b6121cf9060026151ba565b67ffffffffffffffff8111156121e7576121e76153c9565b6040519080825280601f01601f191660200182016040528015612211576020820181803683370190505b509050600360fc1b8160008151811061222c5761222c6153b3565b60200101906001600160f81b031916908160001a905350600f60fb1b8160018151811061225b5761225b6153b3565b60200101906001600160f81b031916908160001a905350600061227f8460026152e2565b61228a9060016151ba565b90505b6001811115612302576f181899199a1a9b1b9c1cb0b131b232b360811b85600f16601081106122be576122be6153b3565b1a60f81b8282815181106122d4576122d46153b3565b60200101906001600160f81b031916908160001a90535060049490941c936122fb81615370565b905061228d565b508315611aa85760405162461bcd60e51b815260206004820181905260248201527f537472696e67733a20686578206c656e67746820696e73756666696369656e74604482015260640161082b565b803b6123b55760405162461bcd60e51b815260206004820152602d60248201527f455243313936373a206e657720696d706c656d656e746174696f6e206973206e60448201526c1bdd08184818dbdb9d1c9858dd609a1b606482015260840161082b565b7f360894a13ba1a3210667c828492db98dca3e2076cc3735a920a3ca505d382bbc80546001600160a01b0319166001600160a01b0392909216919091179055565b6060823b6124555760405162461bcd60e51b815260206004820152602660248201527f416464726573733a2064656c65676174652063616c6c20746f206e6f6e2d636f6044820152651b9d1c9858dd60d21b606482015260840161082b565b600080846001600160a01b0316846040516124709190614c70565b600060405180830381855af49150503d80600081146124ab576040519150601f19603f3d011682016040523d82523d6000602084013e6124b0565b606091505b50915091506124d8828260405180606001604052806027815260200161542360279139613a12565b95945050505050565b6124ea81612351565b6040516001600160a01b038216907fbc7cd75a20ee27fd9adebab32041f755214dbc6bffa90cc0225b39da2e5c2d3b90600090a250565b600054610100900460ff168061253a575060005460ff16155b6125565760405162461bcd60e51b815260040161082b90614dfc565b600054610100900460ff16158015612578576000805461ffff19166101011790555b612580613a4b565b612588613a4b565b610a20613a4b565b600054610100900460ff16806125a9575060005460ff16155b6125c55760405162461bcd60e51b815260040161082b90614dfc565b600054610100900460ff16158015612580576000805461ffff1916610101179055612588613a4b565b6125f6613ab5565b61015f546040516370a0823160e01b81523060048201526000916001600160a01b0316906370a082319060240160206040518083038186803b15801561263b57600080fd5b505afa15801561264f573d6000803e3d6000fd5b505050506040513d601f19601f820116820180604052508101906126739190614a8b565b610160546040516370a0823160e01b81523060048201529192506000916001600160a01b03909116906370a082319060240160206040518083038186803b1580156126bd57600080fd5b505afa1580156126d1573d6000803e3d6000fd5b505050506040513d601f19601f820116820180604052508101906126f59190614a8b565b60408051610160808201835261015f546001600160a01b0390811683529054811660208084019190915261016b54845163ddca3f4360e01b815285519697506000969495860194919093169263ddca3f43926004808301939192829003018186803b15801561276357600080fd5b505afa158015612777573d6000803e3d6000fd5b505050506040513d601f19601f8201168201806040525081019061279b9190614a70565b62ffffff1681526009196020820152600a6040820152606081018590526080810184905260a00160646127cf8660636152e2565b6127d991906151d2565b815260200160646127eb8560636152e2565b6127f591906151d2565b815230602082015260400161280c426102586151ba565b905261015f5461016a5460405163095ea7b360e01b81529293506001600160a01b039182169263095ea7b3926128489216908790600401614d01565b602060405180830381600087803b15801561286257600080fd5b505af1158015612876573d6000803e3d6000fd5b505050506040513d601f19601f8201168201806040525081019061289a9190614914565b506101605461016a5460405163095ea7b360e01b81526001600160a01b039283169263095ea7b3926128d3929116908690600401614d01565b602060405180830381600087803b1580156128ed57600080fd5b505af1158015612901573d6000803e3d6000fd5b505050506040513d601f19601f820116820180604052508101906129259190614914565b5061016a54604051634418b22b60e11b81526000916001600160a01b031690638831645690612958908590600401614f92565b608060405180830381600087803b15801561297257600080fd5b505af1158015612986573d6000803e3d6000fd5b505050506040513d601f19601f820116820180604052508101906129aa9190614aa4565b5050506101698190556101645461016c5460405163095ea7b360e01b81529293506001600160a01b039182169263095ea7b3926129ed9216908590600401614d01565b600060405180830381600087803b158015612a0757600080fd5b505af1158015612a1b573d6000803e3d6000fd5b505061016c54604051631c57762b60e31b815260048101859052600060248201526001600160a01b03909116925063e2bbb1589150604401602060405180830381600087803b158015612a6d57600080fd5b505af1158015612a81573d6000803e3d6000fd5b505050506040513d601f19601f820116820180604052508101906119329190614a8b565b612aad613ab5565b61015f546040516370a0823160e01b81523060048201526000916001600160a01b0316906370a082319060240160206040518083038186803b158015612af257600080fd5b505afa158015612b06573d6000803e3d6000fd5b505050506040513d601f19601f82011682018060405250810190612b2a9190614a8b565b610160546040516370a0823160e01b81523060048201529192506000916001600160a01b03909116906370a082319060240160206040518083038186803b158015612b7457600080fd5b505afa158015612b88573d6000803e3d6000fd5b505050506040513d601f19601f82011682018060405250810190612bac9190614a8b565b905060006040518060c001604052806101695481526020018481526020018381526020016064856063612bdf91906152e2565b612be991906151d2565b81526020016064612bfb8560636152e2565b612c0591906151d2565b8152602001612c16426102586151ba565b905261015f5461016a5460405163095ea7b360e01b81529293506001600160a01b039182169263095ea7b392612c529216908790600401614d01565b602060405180830381600087803b158015612c6c57600080fd5b505af1158015612c80573d6000803e3d6000fd5b505050506040513d601f19601f82011682018060405250810190612ca49190614914565b506101605461016a5460405163095ea7b360e01b81526001600160a01b039283169263095ea7b392612cdd929116908690600401614d01565b602060405180830381600087803b158015612cf757600080fd5b505af1158015612d0b573d6000803e3d6000fd5b505050506040513d601f19601f82011682018060405250810190612d2f9190614914565b5061016a546040805163219f5d1760e01b81528351600482015260208401516024820152908301516044820152606083015160648201526080830151608482015260a083015160a48201526001600160a01b039091169063219f5d179060c401606060405180830381600087803b158015612da957600080fd5b505af1158015612dbd573d6000803e3d6000fd5b505050506040513d601f19601f82011682018060405250810190612de191906149bf565b505050505050565b610161546040516370a0823160e01b81523060048201526000916001600160a01b0316906370a082319060240160206040518083038186803b158015612e2e57600080fd5b505afa158015612e42573d6000803e3d6000fd5b505050506040513d601f19601f82011682018060405250810190612e669190614a8b565b612e705750600090565b6040805161010081018252610161546001600160a01b03908116825261016354166020820152610bb89181019190915230606082015260009060808101612eb9426102586151ba565b8152610161546040516370a0823160e01b81523060048201526020909201916001600160a01b03909116906370a082319060240160206040518083038186803b158015612f0557600080fd5b505afa158015612f19573d6000803e3d6000fd5b505050506040513d601f19601f82011682018060405250810190612f3d9190614a8b565b81526000602082018190526040918201526101615461016d5491516370a0823160e01b81523060048201529293506001600160a01b039081169263095ea7b392919091169083906370a08231906024015b60206040518083038186803b158015612fa657600080fd5b505afa158015612fba573d6000803e3d6000fd5b505050506040513d601f19601f82011682018060405250810190612fde9190614a8b565b6040518363ffffffff1660e01b8152600401612ffb929190614d01565b602060405180830381600087803b15801561301557600080fd5b505af1158015613029573d6000803e3d6000fd5b505050506040513d601f19601f8201168201806040525081019061304d9190614914565b5061016d5460405163414bf38960e01b81526000916001600160a01b03169063414bf38990613080908590600401614f29565b602060405180830381600087803b15801561309a57600080fd5b505af11580156130ae573d6000803e3d6000fd5b505050506040513d601f19601f820116820180604052508101906130d29190614a8b565b6040805161010081018252610163546001600160a01b03908116825261015f541660208201526101f4918101919091523060608201529091506080810161311b426102586151ba565b8152610163546040516370a0823160e01b81523060048201526020909201916001600160a01b03909116906370a082319060240160206040518083038186803b15801561316757600080fd5b505afa15801561317b573d6000803e3d6000fd5b505050506040513d601f19601f8201168201806040525081019061319f9190614a8b565b81526000602082018190526040918201526101635461016d5491516370a0823160e01b81523060048201529294506001600160a01b039081169263095ea7b392919091169083906370a082319060240160206040518083038186803b15801561320757600080fd5b505afa15801561321b573d6000803e3d6000fd5b505050506040513d601f19601f8201168201806040525081019061323f9190614a8b565b6040518363ffffffff1660e01b815260040161325c929190614d01565b602060405180830381600087803b15801561327657600080fd5b505af115801561328a573d6000803e3d6000fd5b505050506040513d601f19601f820116820180604052508101906132ae9190614914565b5061016d5460405163414bf38960e01b81526001600160a01b039091169063414bf389906132e0908590600401614f29565b602060405180830381600087803b1580156132fa57600080fd5b505af115801561330e573d6000803e3d6000fd5b505050506040513d601f19601f82011682018060405250810190611aa89190614a8b565b610162546040516370a0823160e01b81523060048201526000916001600160a01b0316906370a082319060240160206040518083038186803b15801561337757600080fd5b505afa15801561338b573d6000803e3d6000fd5b505050506040513d601f19601f820116820180604052508101906133af9190614a8b565b6133b95750600090565b6040805161010081018252610162546001600160a01b03908116825261016354166020820152610bb89181019190915230606082015260009060808101613402426102586151ba565b8152610162546040516370a0823160e01b81523060048201526020909201916001600160a01b03909116906370a082319060240160206040518083038186803b15801561344e57600080fd5b505afa158015613462573d6000803e3d6000fd5b505050506040513d601f19601f820116820180604052508101906134869190614a8b565b81526000602082018190526040918201526101625461016d5491516370a0823160e01b81523060048201529293506001600160a01b039081169263095ea7b392919091169083906370a0823190602401612f8e565b6040805160808101825261016954815230602082019081526001600160801b038284018181526060840182815261016a54955163fc6f786560e01b81528551600482015293516001600160a01b0390811660248601529151831660448501525190911660648301529192919091169063fc6f7865906084016040805180830381600087803b15801561356c57600080fd5b505af1158015613580573d6000803e3d6000fd5b505050506040513d601f19601f820116820180604052508101906135a49190614ae0565b50506101605461015f54610166546040516370a0823160e01b8152306004820181905261083e946001600160a01b0390811694169291819085906370a082319060240160206040518083038186803b1580156135ff57600080fd5b505afa158015613613573d6000803e3d6000fd5b505050506040513d601f19601f820116820180604052508101906136379190614a8b565b613bfd565b61016c5461016954604051631c683a1b60e11b81526004810191909152600060248201526001600160a01b03909116906338d0743690604401600060405180830381600087803b15801561368f57600080fd5b505af11580156136a3573d6000803e3d6000fd5b5050505060006136b282613dc1565b905060006136c08284615329565b9050600061016b60009054906101000a90046001600160a01b03166001600160a01b0316633850c7bd6040518163ffffffff1660e01b815260040160e06040518083038186803b15801561371357600080fd5b505afa158015613727573d6000803e3d6000fd5b505050506040513d601f19601f8201168201806040525081019061374b91906149f4565b5050505050509050600061377b826bffdf3de87261863e03afb3786c010020c649300be3bb0e87ea778688613fbe565b905060006040518060a00160405280610169548152602001836001600160801b031681526020016000815260200160008152602001426102586137be91906151ba565b905261016a54604051630624e65f60e11b81529192506001600160a01b031690630c49ccbe906137f2908490600401614ee6565b6040805180830381600087803b15801561380b57600080fd5b505af115801561381f573d6000803e3d6000fd5b505050506040513d601f19601f820116820180604052508101906138439190614ae0565b505061384d6134db565b6101645461016c546101695460405163095ea7b360e01b81526001600160a01b039384169363095ea7b39361388793911691600401614d01565b600060405180830381600087803b1580156138a157600080fd5b505af11580156138b5573d6000803e3d6000fd5b505061016c5461016954604051631c57762b60e31b81526004810191909152600060248201526001600160a01b03909116925063e2bbb1589150604401602060405180830381600087803b15801561390c57600080fd5b505af1158015613920573d6000803e3d6000fd5b505050506040513d601f19601f820116820180604052508101906139449190614a8b565b50505050505050565b6000826001600160a01b0316846001600160a01b0316111561396d579192915b6001600160a01b0384166139b66fffffffffffffffffffffffffffffffff60601b606085901b1661399e8787615301565b6001600160a01b0316866001600160a01b0316614080565b6139c091906151d2565b949350505050565b6000826001600160a01b0316846001600160a01b031611156139e8579192915b6139c06001600160801b0383166139ff8686615301565b6001600160a01b0316600160601b614080565b60608315613a21575081611aa8565b825115613a315782518084602001fd5b8160405162461bcd60e51b815260040161082b9190614d1a565b600054610100900460ff1680613a64575060005460ff16155b613a805760405162461bcd60e51b815260040161082b90614dfc565b600054610100900460ff16158015610a20576000805461ffff19166101011790558015610908576000805461ff001916905550565b61015f546040516370a0823160e01b8152306004820152600091613b3d916001600160a01b03909116906370a082319060240160206040518083038186803b158015613b0057600080fd5b505afa158015613b14573d6000803e3d6000fd5b505050506040513d601f19601f82011682018060405250810190613b389190614a8b565b613dc1565b610160546040516370a0823160e01b81523060048201529192506000916001600160a01b03909116906370a082319060240160206040518083038186803b158015613b8757600080fd5b505afa158015613b9b573d6000803e3d6000fd5b505050506040513d601f19601f82011682018060405250810190613bbf9190614a8b565b905081811161083e57613bd28183615329565b61016f5461015f54610160549294506107ba926001916001600160a01b039081169116308088614205565b61012d5460405163095ea7b360e01b815260009182916001600160a01b038a81169263095ea7b392613c3792909116908790600401614d01565b602060405180830381600087803b158015613c5157600080fd5b505af1158015613c65573d6000803e3d6000fd5b505050506040513d601f19601f82011682018060405250810190613c899190614914565b506040805160028082526060820183526000926020830190803683370190505090508881600081518110613cbf57613cbf6153b3565b60200260200101906001600160a01b031690816001600160a01b0316815250508781600181518110613cf357613cf36153b3565b6001600160a01b03928316602091820292909201015261012d54166338ed173985848489613d23426102586151ba565b6040518663ffffffff1660e01b8152600401613d4395949392919061514d565b600060405180830381600087803b158015613d5d57600080fd5b505af1158015613d71573d6000803e3d6000fd5b505050506040513d6000823e601f3d908101601f19168201604052613d999190810190614867565b600181518110613dab57613dab6153b3565b6020026020010151925050509695505050505050565b60008061016b60009054906101000a90046001600160a01b03166001600160a01b0316633850c7bd6040518163ffffffff1660e01b815260040160e06040518083038186803b158015613e1357600080fd5b505afa158015613e27573d6000803e3d6000fd5b505050506040513d601f19601f82011682018060405250810190613e4b91906149f4565b5050505050509050600080613f01836bffdf3de87261863e03afb3786c010020c649300be3bb0e87ea7761016b60009054906101000a90046001600160a01b03166001600160a01b0316631a6865026040518163ffffffff1660e01b815260040160206040518083038186803b158015613ec457600080fd5b505afa158015613ed8573d6000803e3d6000fd5b505050506040513d601f19601f82011682018060405250810190613efc91906149a4565b611feb565b91509150808210613f6a57600081613f2184670de0b6b3a76400006152e2565b613f2b91906151d2565b9050856000613f4283670de0b6b3a76400006151ba565b613f5483670de0b6b3a76400006152e2565b613f5e91906151d2565b98975050505050505050565b60405162461bcd60e51b8152602060048201526024808201527f416d6f756e74206c69717569646974792055534454206d6f7265207468656e206044820152635553444360e01b606482015260840161082b565b6000836001600160a01b0316856001600160a01b03161115613fde579293925b846001600160a01b0316866001600160a01b03161161400957614002858585614470565b90506124d8565b836001600160a01b0316866001600160a01b0316101561406b576000614030878686614470565b9050600061403f8789866144da565b9050806001600160801b0316826001600160801b0316106140605780614062565b815b925050506124d8565b6140768585846144da565b9695505050505050565b6000808060001985870985870292508281108382030391505080600014156140ba57600084116140af57600080fd5b508290049050611aa8565b8084116140c657600080fd5b6000848688098084039381119092039190506000856140e781600019615329565b6140f29060016151ba565b1695869004959384900493600081900304600101905061411281846152e2565b9093179260006141238760036152e2565b600218905061413281886152e2565b61413d906002615329565b61414790826152e2565b905061415381886152e2565b61415e906002615329565b61416890826152e2565b905061417481886152e2565b61417f906002615329565b61418990826152e2565b905061419581886152e2565b6141a0906002615329565b6141aa90826152e2565b90506141b681886152e2565b6141c1906002615329565b6141cb90826152e2565b90506141d781886152e2565b6141e2906002615329565b6141ec90826152e2565b90506141f881866152e2565b9998505050505050505050565b61016e546040516370a0823160e01b81523060048201526000916001600160a01b038881169263095ea7b392919091169083906370a082319060240160206040518083038186803b15801561425957600080fd5b505afa15801561426d573d6000803e3d6000fd5b505050506040513d601f19601f820116820180604052508101906142919190614a8b565b6040518363ffffffff1660e01b81526004016142ae929190614d01565b602060405180830381600087803b1580156142c857600080fd5b505af11580156142dc573d6000803e3d6000fd5b505050506040513d601f19601f820116820180604052508101906143009190614914565b5061434d6040805160c0810190915260008082526020820190815260200160006001600160a01b0316815260200160006001600160a01b0316815260200160008152602001606081525090565b888152602081018860018111156143665761436661539d565b908160018111156143795761437961539d565b9052506001600160a01b038781166040838101919091528782166060808501919091526080808501879052825190810183526000602082018190529181019190915287831681528683169181019190915261016e549091166352bbbe2983836b033b2e3c9fd0803ce80000006143f1426102586151ba565b6040518563ffffffff1660e01b81526004016144109493929190615056565b602060405180830381600087803b15801561442a57600080fd5b505af115801561443e573d6000803e3d6000fd5b505050506040513d601f19601f820116820180604052508101906144629190614a8b565b9a9950505050505050505050565b6000826001600160a01b0316846001600160a01b03161115614490579192915b60006144b3856001600160a01b0316856001600160a01b0316600160601b614080565b90506124d86144d584836144c78989615301565b6001600160a01b0316614080565b614510565b6000826001600160a01b0316846001600160a01b031611156144fa579192915b6139c06144d583600160601b6144c78888615301565b806001600160801b038116811461101857600080fd5b8051611018816153df565b600082601f83011261454257600080fd5b813567ffffffffffffffff81111561455c5761455c6153c9565b61456f601f8201601f1916602001615189565b81815284602083860101111561458457600080fd5b816020850160208301376000918101602001919091529392505050565b8051600281900b811461101857600080fd5b80516001600160801b038116811461101857600080fd5b805161ffff8116811461101857600080fd5b805162ffffff8116811461101857600080fd5b805160ff8116811461101857600080fd5b60006020828403121561461257600080fd5b8135611aa8816153df565b60008060008060008060c0878903121561463657600080fd5b8635614641816153df565b95506020870135614651816153df565b94506040870135614661816153df565b93506060870135614671816153df565b92506080870135614681816153df565b915060a0870135614691816153df565b809150509295509295509295565b600080600080600080600060e0888a0312156146ba57600080fd5b87356146c5816153df565b965060208801356146d5816153df565b955060408801356146e5816153df565b945060608801356146f5816153df565b93506080880135614705816153df565b925060a0880135915060c088013561471c816153df565b8091505092959891949750929550565b6000806000806080858703121561474257600080fd5b843561474d816153df565b9350602085013561475d816153df565b925060408501359150606085013567ffffffffffffffff81111561478057600080fd5b61478c87828801614531565b91505092959194509250565b600080604083850312156147ab57600080fd5b82356147b6816153df565b9150602083013567ffffffffffffffff8111156147d257600080fd5b6147de85828601614531565b9150509250929050565b600080604083850312156147fb57600080fd5b8235614806816153df565b946020939093013593505050565b6000806000806080858703121561482a57600080fd5b8435614835816153df565b935060208501359250604085013561484c816153df565b9150606085013561485c816153f4565b939692955090935050565b6000602080838503121561487a57600080fd5b825167ffffffffffffffff8082111561489257600080fd5b818501915085601f8301126148a657600080fd5b8151818111156148b8576148b86153c9565b8060051b91506148c9848301615189565b8181528481019084860184860187018a10156148e457600080fd5b600095505b838610156149075780518352600195909501949186019186016148e9565b5098975050505050505050565b60006020828403121561492657600080fd5b8151611aa8816153f4565b60006020828403121561494357600080fd5b5035919050565b6000806040838503121561495d57600080fd5b82359150602083013561496f816153df565b809150509250929050565b60006020828403121561498c57600080fd5b81356001600160e01b031981168114611aa857600080fd5b6000602082840312156149b657600080fd5b611aa8826145b3565b6000806000606084860312156149d457600080fd5b6149dd846145b3565b925060208401519150604084015190509250925092565b600080600080600080600060e0888a031215614a0f57600080fd5b8751614a1a816153df565b9650614a28602089016145a1565b9550614a36604089016145ca565b9450614a44606089016145ca565b9350614a52608089016145ca565b9250614a6060a089016145ef565b915060c088015161471c816153f4565b600060208284031215614a8257600080fd5b611aa8826145dc565b600060208284031215614a9d57600080fd5b5051919050565b60008060008060808587031215614aba57600080fd5b84519350614aca602086016145b3565b6040860151606090960151949790965092505050565b60008060408385031215614af357600080fd5b505080516020909101519092909150565b600060208284031215614b1657600080fd5b611aa8826145ef565b6000806000806000806000806000806000806101808d8f031215614b4257600080fd5b8c516bffffffffffffffffffffffff81168114614b5e57600080fd5b9b50614b6c60208e01614526565b9a50614b7a60408e01614526565b9950614b8860608e01614526565b9850614b9660808e016145dc565b9750614ba460a08e016145a1565b9650614bb260c08e016145a1565b9550614bc060e08e016145b3565b94506101008d015193506101208d01519250614bdf6101408e016145b3565b9150614bee6101608e016145b3565b90509295989b509295989b509295989b565b600081518084526020808501945080840160005b83811015614c395781516001600160a01b031687529582019590820190600101614c14565b509495945050505050565b60008151808452614c5c816020860160208601615340565b601f01601f19169290920160200192915050565b60008251614c82818460208701615340565b9190910192915050565b7f416363657373436f6e74726f6c3a206163636f756e7420000000000000000000815260008351614cc4816017850160208801615340565b7001034b99036b4b9b9b4b733903937b6329607d1b6017918401918201528351614cf5816028840160208801615340565b01602801949350505050565b6001600160a01b03929092168252602082015260400190565b602081526000611aa86020830184614c44565b6020808252601f908201527f5265737472696374656420746f20504f5254464f4c494f5f4d414e4147455200604082015260600190565b6020808252602c908201527f46756e6374696f6e206d7573742062652063616c6c6564207468726f7567682060408201526b19195b1959d85d1958d85b1b60a21b606082015260800190565b6020808252602c908201527f46756e6374696f6e206d7573742062652063616c6c6564207468726f7567682060408201526b6163746976652070726f787960a01b606082015260800190565b6020808252602e908201527f496e697469616c697a61626c653a20636f6e747261637420697320616c72656160408201526d191e481a5b9a5d1a585b1a5e995960921b606082015260800190565b6020808252601490820152735265737472696374656420746f2061646d696e7360601b604082015260600190565b60208082526019908201527f536f6d6520746f6b656e206e6f7420636f6d70617469626c6500000000000000604082015260600190565b60208082526018908201527f5a65726f2061646472657373206e6f7420616c6c6f7765640000000000000000604082015260600190565b600060a082019050825182526001600160801b03602084015116602083015260408301516040830152606083015160608301526080830151608083015292915050565b81516001600160a01b03908116825260208084015182169083015260408084015162ffffff16908301526060808401518216908301526080808401519083015260a0838101519083015260c0808401519083015260e09283015116918101919091526101000190565b81516001600160a01b0316815261016081016020830151614fbe60208401826001600160a01b03169052565b506040830151614fd5604084018262ffffff169052565b506060830151614fea606084018260020b9052565b506080830151614fff608084018260020b9052565b5060a083015160a083015260c083015160c083015260e083015160e083015261010080840151818401525061012080840151615045828501826001600160a01b03169052565b505061014092830151919092015290565b60e08152845160e0820152600060208601516002811061508657634e487b7160e01b600052602160045260246000fd5b61010083015260408601516001600160a01b031661012083015260608601516150bb6101408401826001600160a01b03169052565b50608086015161016083015260a086015160c06101808401526150e26101a0840182614c44565b915050615122602083018680516001600160a01b039081168352602080830151151590840152604080830151909116908301526060908101511515910152565b60a082019390935260c0015292915050565b8281526040602082015260006139c06040830184614c00565b85815284602082015260a06040820152600061516c60a0830186614c00565b6001600160a01b0394909416606083015250608001529392505050565b604051601f8201601f1916810167ffffffffffffffff811182821017156151b2576151b26153c9565b604052919050565b600082198211156151cd576151cd615387565b500190565b6000826151ef57634e487b7160e01b600052601260045260246000fd5b500490565b600181815b8085111561522f57816000190482111561521557615215615387565b8085161561522257918102915b93841c93908002906151f9565b509250929050565b6000611aa860ff8416836000826152505750600161077f565b8161525d5750600061077f565b8160018114615273576002811461527d57615299565b600191505061077f565b60ff84111561528e5761528e615387565b50506001821b61077f565b5060208310610133831016604e8410600b84101617156152bc575081810a61077f565b6152c683836151f4565b80600019048211156152da576152da615387565b029392505050565b60008160001904831182151516156152fc576152fc615387565b500290565b60006001600160a01b038381169083168181101561532157615321615387565b039392505050565b60008282101561533b5761533b615387565b500390565b60005b8381101561535b578181015183820152602001615343565b8381111561536a576000848401525b50505050565b60008161537f5761537f615387565b506000190190565b634e487b7160e01b600052601160045260246000fd5b634e487b7160e01b600052602160045260246000fd5b634e487b7160e01b600052603260045260246000fd5b634e487b7160e01b600052604160045260246000fd5b6001600160a01b038116811461090857600080fd5b801515811461090857600080fdfe90c2aa7471c04182221f68e80c07ab1e5946e4c63f8693e14ca40385d529f051416464726573733a206c6f772d6c6576656c2064656c65676174652063616c6c206661696c6564a2646970667358221220c74f053d43b97a805383b979de4f9dbf958aa3d4a3c3415352c9523bcbe69fa664736f6c63430008060033",
  "devdoc": {
    "kind": "dev",
    "methods": {
      "constructor": {
        "custom:oz-upgrades-unsafe-allow": "constructor"
      },
      "getRoleAdmin(bytes32)": {
        "details": "Returns the admin role that controls `role`. See {grantRole} and {revokeRole}. To change a role's admin, use {_setRoleAdmin}."
      },
      "grantRole(bytes32,address)": {
        "details": "Grants `role` to `account`. If `account` had not been already granted `role`, emits a {RoleGranted} event. Requirements: - the caller must have ``role``'s admin role."
      },
      "hasRole(bytes32,address)": {
        "details": "Returns `true` if `account` has been granted `role`."
      },
      "renounceRole(bytes32,address)": {
        "details": "Revokes `role` from the calling account. Roles are often managed via {grantRole} and {revokeRole}: this function's purpose is to provide a mechanism for accounts to lose their privileges if they are compromised (such as when a trusted device is misplaced). If the calling account had been revoked `role`, emits a {RoleRevoked} event. Requirements: - the caller must be `account`."
      },
      "revokeRole(bytes32,address)": {
        "details": "Revokes `role` from `account`. If `account` had been granted `role`, emits a {RoleRevoked} event. Requirements: - the caller must have ``role``'s admin role."
      },
      "supportsInterface(bytes4)": {
        "details": "See {IERC165-supportsInterface}."
      },
      "upgradeTo(address)": {
        "details": "Upgrade the implementation of the proxy to `newImplementation`. Calls {_authorizeUpgrade}. Emits an {Upgraded} event."
      },
      "upgradeToAndCall(address,bytes)": {
        "details": "Upgrade the implementation of the proxy to `newImplementation`, and subsequently execute the function call encoded in `data`. Calls {_authorizeUpgrade}. Emits an {Upgraded} event."
      }
    },
    "version": 1
  },
  "userdoc": {
    "kind": "user",
    "methods": {
      "onERC721Received(address,address,uint256,bytes)": {
        "notice": "Used for ERC721 safeTransferFrom"
      }
    },
    "version": 1
  },
  "storageLayout": {
    "storage": [
      {
        "astId": 823,
        "contract": "contracts/strategies/StrategyIzumi.sol:StrategyIzumi",
        "label": "_initialized",
        "offset": 0,
        "slot": "0",
        "type": "t_bool"
      },
      {
        "astId": 826,
        "contract": "contracts/strategies/StrategyIzumi.sol:StrategyIzumi",
        "label": "_initializing",
        "offset": 1,
        "slot": "0",
        "type": "t_bool"
      },
      {
        "astId": 2943,
        "contract": "contracts/strategies/StrategyIzumi.sol:StrategyIzumi",
        "label": "__gap",
        "offset": 0,
        "slot": "1",
        "type": "t_array(t_uint256)50_storage"
      },
      {
        "astId": 3865,
        "contract": "contracts/strategies/StrategyIzumi.sol:StrategyIzumi",
        "label": "__gap",
        "offset": 0,
        "slot": "51",
        "type": "t_array(t_uint256)50_storage"
      },
      {
        "astId": 48,
        "contract": "contracts/strategies/StrategyIzumi.sol:StrategyIzumi",
        "label": "_roles",
        "offset": 0,
        "slot": "101",
        "type": "t_mapping(t_bytes32,t_struct(RoleData)43_storage)"
      },
      {
        "astId": 335,
        "contract": "contracts/strategies/StrategyIzumi.sol:StrategyIzumi",
        "label": "__gap",
        "offset": 0,
        "slot": "102",
        "type": "t_array(t_uint256)49_storage"
      },
      {
        "astId": 806,
        "contract": "contracts/strategies/StrategyIzumi.sol:StrategyIzumi",
        "label": "__gap",
        "offset": 0,
        "slot": "151",
        "type": "t_array(t_uint256)50_storage"
      },
      {
        "astId": 973,
        "contract": "contracts/strategies/StrategyIzumi.sol:StrategyIzumi",
        "label": "__gap",
        "offset": 0,
        "slot": "201",
        "type": "t_array(t_uint256)50_storage"
      },
      {
        "astId": 22118,
        "contract": "contracts/strategies/StrategyIzumi.sol:StrategyIzumi",
        "label": "portfolioManager",
        "offset": 0,
        "slot": "251",
        "type": "t_address"
      },
      {
        "astId": 22387,
        "contract": "contracts/strategies/StrategyIzumi.sol:StrategyIzumi",
        "label": "__gap",
        "offset": 0,
        "slot": "252",
        "type": "t_array(t_uint256)49_storage"
      },
      {
        "astId": 16255,
        "contract": "contracts/strategies/StrategyIzumi.sol:StrategyIzumi",
        "label": "uniswapRouter",
        "offset": 0,
        "slot": "301",
        "type": "t_contract(IUniswapV2Router02)19972"
      },
      {
        "astId": 16391,
        "contract": "contracts/strategies/StrategyIzumi.sol:StrategyIzumi",
        "label": "__gap",
        "offset": 0,
        "slot": "302",
        "type": "t_array(t_uint256)49_storage"
      },
      {
        "astId": 25795,
        "contract": "contracts/strategies/StrategyIzumi.sol:StrategyIzumi",
        "label": "usdcToken",
        "offset": 0,
        "slot": "351",
        "type": "t_contract(IERC20)8922"
      },
      {
        "astId": 25798,
        "contract": "contracts/strategies/StrategyIzumi.sol:StrategyIzumi",
        "label": "usdtToken",
        "offset": 0,
        "slot": "352",
        "type": "t_contract(IERC20)8922"
      },
      {
        "astId": 25801,
        "contract": "contracts/strategies/StrategyIzumi.sol:StrategyIzumi",
        "label": "iziToken",
        "offset": 0,
        "slot": "353",
        "type": "t_contract(IERC20)8922"
      },
      {
        "astId": 25804,
        "contract": "contracts/strategies/StrategyIzumi.sol:StrategyIzumi",
        "label": "yinToken",
        "offset": 0,
        "slot": "354",
        "type": "t_contract(IERC20)8922"
      },
      {
        "astId": 25807,
        "contract": "contracts/strategies/StrategyIzumi.sol:StrategyIzumi",
        "label": "wethToken",
        "offset": 0,
        "slot": "355",
        "type": "t_contract(IERC20)8922"
      },
      {
        "astId": 25810,
        "contract": "contracts/strategies/StrategyIzumi.sol:StrategyIzumi",
        "label": "uniswapToken",
        "offset": 0,
        "slot": "356",
        "type": "t_contract(IERC721)10138"
      },
      {
        "astId": 25812,
        "contract": "contracts/strategies/StrategyIzumi.sol:StrategyIzumi",
        "label": "usdcTokenDenominator",
        "offset": 0,
        "slot": "357",
        "type": "t_uint256"
      },
      {
        "astId": 25814,
        "contract": "contracts/strategies/StrategyIzumi.sol:StrategyIzumi",
        "label": "usdtTokenDenominator",
        "offset": 0,
        "slot": "358",
        "type": "t_uint256"
      },
      {
        "astId": 25816,
        "contract": "contracts/strategies/StrategyIzumi.sol:StrategyIzumi",
        "label": "iziTokenDenominator",
        "offset": 0,
        "slot": "359",
        "type": "t_uint256"
      },
      {
        "astId": 25818,
        "contract": "contracts/strategies/StrategyIzumi.sol:StrategyIzumi",
        "label": "yinTokenDenominator",
        "offset": 0,
        "slot": "360",
        "type": "t_uint256"
      },
      {
        "astId": 25820,
        "contract": "contracts/strategies/StrategyIzumi.sol:StrategyIzumi",
        "label": "tokenId",
        "offset": 0,
        "slot": "361",
        "type": "t_uint256"
      },
      {
        "astId": 25823,
        "contract": "contracts/strategies/StrategyIzumi.sol:StrategyIzumi",
        "label": "uniswapPositionManager",
        "offset": 0,
        "slot": "362",
        "type": "t_contract(INonfungiblePositionManager)20331"
      },
      {
        "astId": 25826,
        "contract": "contracts/strategies/StrategyIzumi.sol:StrategyIzumi",
        "label": "uniswapV3Pool",
        "offset": 0,
        "slot": "363",
        "type": "t_contract(IUniswapV3Pool)20574"
      },
      {
        "astId": 25829,
        "contract": "contracts/strategies/StrategyIzumi.sol:StrategyIzumi",
        "label": "izumiBoost",
        "offset": 0,
        "slot": "364",
        "type": "t_contract(MiningFixRangeBoost)18746"
      },
      {
        "astId": 25832,
        "contract": "contracts/strategies/StrategyIzumi.sol:StrategyIzumi",
        "label": "uniswapV3Router",
        "offset": 0,
        "slot": "365",
        "type": "t_contract(ISwapRouter)20431"
      },
      {
        "astId": 25835,
        "contract": "contracts/strategies/StrategyIzumi.sol:StrategyIzumi",
        "label": "balancerVault",
        "offset": 0,
        "slot": "366",
        "type": "t_contract(IVault)18338"
      },
      {
        "astId": 25837,
        "contract": "contracts/strategies/StrategyIzumi.sol:StrategyIzumi",
        "label": "balancerPoolId",
        "offset": 0,
        "slot": "367",
        "type": "t_bytes32"
      }
    ],
    "types": {
      "t_address": {
        "encoding": "inplace",
        "label": "address",
        "numberOfBytes": "20"
      },
      "t_array(t_uint256)49_storage": {
        "base": "t_uint256",
        "encoding": "inplace",
        "label": "uint256[49]",
        "numberOfBytes": "1568"
      },
      "t_array(t_uint256)50_storage": {
        "base": "t_uint256",
        "encoding": "inplace",
        "label": "uint256[50]",
        "numberOfBytes": "1600"
      },
      "t_bool": {
        "encoding": "inplace",
        "label": "bool",
        "numberOfBytes": "1"
      },
      "t_bytes32": {
        "encoding": "inplace",
        "label": "bytes32",
        "numberOfBytes": "32"
      },
      "t_contract(IERC20)8922": {
        "encoding": "inplace",
        "label": "contract IERC20",
        "numberOfBytes": "20"
      },
      "t_contract(IERC721)10138": {
        "encoding": "inplace",
        "label": "contract IERC721",
        "numberOfBytes": "20"
      },
      "t_contract(INonfungiblePositionManager)20331": {
        "encoding": "inplace",
        "label": "contract INonfungiblePositionManager",
        "numberOfBytes": "20"
      },
      "t_contract(ISwapRouter)20431": {
        "encoding": "inplace",
        "label": "contract ISwapRouter",
        "numberOfBytes": "20"
      },
      "t_contract(IUniswapV2Router02)19972": {
        "encoding": "inplace",
        "label": "contract IUniswapV2Router02",
        "numberOfBytes": "20"
      },
      "t_contract(IUniswapV3Pool)20574": {
        "encoding": "inplace",
        "label": "contract IUniswapV3Pool",
        "numberOfBytes": "20"
      },
      "t_contract(IVault)18338": {
        "encoding": "inplace",
        "label": "contract IVault",
        "numberOfBytes": "20"
      },
      "t_contract(MiningFixRangeBoost)18746": {
        "encoding": "inplace",
        "label": "contract MiningFixRangeBoost",
        "numberOfBytes": "20"
      },
      "t_mapping(t_address,t_bool)": {
        "encoding": "mapping",
        "key": "t_address",
        "label": "mapping(address => bool)",
        "numberOfBytes": "32",
        "value": "t_bool"
      },
      "t_mapping(t_bytes32,t_struct(RoleData)43_storage)": {
        "encoding": "mapping",
        "key": "t_bytes32",
        "label": "mapping(bytes32 => struct AccessControlUpgradeable.RoleData)",
        "numberOfBytes": "32",
        "value": "t_struct(RoleData)43_storage"
      },
      "t_struct(RoleData)43_storage": {
        "encoding": "inplace",
        "label": "struct AccessControlUpgradeable.RoleData",
        "members": [
          {
            "astId": 40,
            "contract": "contracts/strategies/StrategyIzumi.sol:StrategyIzumi",
            "label": "members",
            "offset": 0,
            "slot": "0",
            "type": "t_mapping(t_address,t_bool)"
          },
          {
            "astId": 42,
            "contract": "contracts/strategies/StrategyIzumi.sol:StrategyIzumi",
            "label": "adminRole",
            "offset": 0,
            "slot": "1",
            "type": "t_bytes32"
          }
        ],
        "numberOfBytes": "64"
      },
      "t_uint256": {
        "encoding": "inplace",
        "label": "uint256",
        "numberOfBytes": "32"
      }
    }
  }
}