{
  "address": "0x3f38Ac9A092d1075788c9c9958716e31a21640E9",
  "abi": [
    {
      "inputs": [
        {
          "internalType": "address",
          "name": "_aaveConnector",
          "type": "address"
        },
        {
          "internalType": "address",
          "name": "_usdcToken",
          "type": "address"
        },
        {
          "internalType": "address",
          "name": "_aUsdcToken",
          "type": "address"
        }
      ],
      "stateMutability": "nonpayable",
      "type": "constructor"
    },
    {
      "inputs": [],
      "name": "aUsdcToken",
      "outputs": [
        {
          "internalType": "contract IERC20",
          "name": "",
          "type": "address"
        }
      ],
      "stateMutability": "view",
      "type": "function"
    },
    {
      "inputs": [],
      "name": "aaveConnector",
      "outputs": [
        {
          "internalType": "contract IConnector",
          "name": "",
          "type": "address"
        }
      ],
      "stateMutability": "view",
      "type": "function"
    },
    {
      "inputs": [
        {
          "internalType": "address",
          "name": "spender",
          "type": "address"
        },
        {
          "internalType": "contract IERC20",
          "name": "from",
          "type": "address"
        },
        {
          "internalType": "address",
          "name": "receiver",
          "type": "address"
        },
        {
          "internalType": "contract IERC20",
          "name": "to",
          "type": "address"
        },
        {
          "internalType": "uint256",
          "name": "amount",
          "type": "uint256"
        }
      ],
      "name": "exchange",
      "outputs": [],
      "stateMutability": "nonpayable",
      "type": "function"
    },
    {
      "inputs": [],
      "name": "usdcToken",
      "outputs": [
        {
          "internalType": "contract IERC20",
          "name": "",
          "type": "address"
        }
      ],
      "stateMutability": "view",
      "type": "function"
    }
  ],
  "transactionHash": "0x7c98e1f9645be3545aa939bf28ef2d3c929c8d6d24f72b4164e0e0b7ee9a8e37",
  "args": [
    "0xE4167bd145aC767C7a575ec574E07EFf02Ae1917",
    "0x2791bca1f2de4661ed88a30c99a7a9449aa84174",
    "0x1a13F4Ca1d028320A707D99520AbFefca3998b7F"
  ],
  "solcInputHash": "a52a09ed2b2706cd99c66d36846223b4",
  "bytecode": "0x60806040523480156200001157600080fd5b5060405162001011380380620010118339810160408190526200003491620002a0565b6001600160a01b0383166200007f5760405162461bcd60e51b8152602060048201526018602482015260008051602062000ff183398151915260448201526064015b60405180910390fd5b6001600160a01b038216620000c65760405162461bcd60e51b8152602060048201526018602482015260008051602062000ff1833981519152604482015260640162000076565b6001600160a01b0381166200010d5760405162461bcd60e51b8152602060048201526018602482015260008051602062000ff1833981519152604482015260640162000076565b600080546001600160a01b038086166001600160a01b03199283161790925560018054858416908316811790915560028054938516939092169290921790556040805163313ce56760e01b8152905163313ce56791600480820192602092909190829003018186803b1580156200018357600080fd5b505afa15801562000198573d6000803e3d6000fd5b505050506040513d601f19601f82011682018060405250810190620001be9190620002ea565b620001cb90601262000420565b620001d890600a6200035f565b6003556002546040805163313ce56760e01b815290516001600160a01b039092169163313ce56791600480820192602092909190829003018186803b1580156200022157600080fd5b505afa15801562000236573d6000803e3d6000fd5b505050506040513d601f19601f820116820180604052508101906200025c9190620002ea565b6200026990601262000420565b6200027690600a6200035f565b600455506200045c915050565b80516001600160a01b03811681146200029b57600080fd5b919050565b600080600060608486031215620002b657600080fd5b620002c18462000283565b9250620002d16020850162000283565b9150620002e16040850162000283565b90509250925092565b600060208284031215620002fd57600080fd5b815160ff811681146200030f57600080fd5b9392505050565b600181815b80851115620003575781600019048211156200033b576200033b62000446565b808516156200034957918102915b93841c93908002906200031b565b509250929050565b60006200030f60ff8416836000826200037b575060016200041a565b816200038a575060006200041a565b8160018114620003a35760028114620003ae57620003ce565b60019150506200041a565b60ff841115620003c257620003c262000446565b50506001821b6200041a565b5060208310610133831016604e8410600b8410161715620003f3575081810a6200041a565b620003ff838362000316565b806000190482111562000416576200041662000446565b0290505b92915050565b600060ff821660ff8416808210156200043d576200043d62000446565b90039392505050565b634e487b7160e01b600052601160045260246000fd5b610b85806200046c6000396000f3fe608060405234801561001057600080fd5b506004361061004c5760003560e01c806311eac8551461005157806362ac753814610080578063cc3d6cf714610095578063dbaab3d1146100a8575b600080fd5b600154610064906001600160a01b031681565b6040516001600160a01b03909116815260200160405180910390f35b61009361008e366004610a2a565b6100bb565b005b600254610064906001600160a01b031681565b600054610064906001600160a01b031681565b6001546001600160a01b0385811691161480156100e557506002546001600160a01b038381169116145b8061011557506002546001600160a01b03858116911614801561011557506001546001600160a01b038381169116145b6101815760405162461bcd60e51b815260206004820152603260248201527f55736463324155736463546f6b656e45786368616e67653a20536f6d6520746f6044820152716b656e206e6f7420636f6d70617469626c6560701b60648201526084015b60405180910390fd5b80610293576040516370a0823160e01b81523060048201526000906001600160a01b038616906370a082319060240160206040518083038186803b1580156101c857600080fd5b505afa1580156101dc573d6000803e3d6000fd5b505050506040513d601f19601f820116820180604052508101906102009190610ab7565b9050801561028d5760405163a9059cbb60e01b81526001600160a01b0387811660048301526024820183905286169063a9059cbb906044015b602060405180830381600087803b15801561025357600080fd5b505af1158015610267573d6000803e3d6000fd5b505050506040513d601f19601f8201168201806040525081019061028b9190610a8e565b505b50610a23565b6001546001600160a01b0385811691161480156102bd57506002546001600160a01b038381169116145b15610609576003546102cf9082610ae8565b6001546040516370a0823160e01b81523060048201529192506000916001600160a01b03909116906370a082319060240160206040518083038186803b15801561031857600080fd5b505afa15801561032c573d6000803e3d6000fd5b505050506040513d601f19601f820116820180604052508101906103509190610ab7565b90508161039657801561028d5760015460405163a9059cbb60e01b81526001600160a01b038881166004830152602482018490529091169063a9059cbb90604401610239565b818110156103fc5760405162461bcd60e51b815260206004820152602d60248201527f55736463324155736463546f6b656e45786368616e67653a204e6f7420656e6f60448201526c3ab3b4103ab9b231aa37b5b2b760991b6064820152608401610178565b60015460005460405163a9059cbb60e01b81526001600160a01b0391821660048201526024810185905291169063a9059cbb90604401602060405180830381600087803b15801561044c57600080fd5b505af1158015610460573d6000803e3d6000fd5b505050506040513d601f19601f820116820180604052508101906104849190610a8e565b5060005460015460405163294091cd60e01b81526001600160a01b03918216600482015260248101859052868216604482015291169063294091cd90606401600060405180830381600087803b1580156104dd57600080fd5b505af11580156104f1573d6000803e3d6000fd5b50506001546040516370a0823160e01b8152306004820152600093506001600160a01b0390911691506370a082319060240160206040518083038186803b15801561053b57600080fd5b505afa15801561054f573d6000803e3d6000fd5b505050506040513d601f19601f820116820180604052508101906105739190610ab7565b9050801561028b5760015460405163a9059cbb60e01b81526001600160a01b038981166004830152602482018490529091169063a9059cbb90604401602060405180830381600087803b1580156105c957600080fd5b505af11580156105dd573d6000803e3d6000fd5b505050506040513d601f19601f820116820180604052508101906106019190610a8e565b505050610a23565b6004546106169082610ae8565b6002546040516370a0823160e01b81523060048201529192506000916001600160a01b03909116906370a082319060240160206040518083038186803b15801561065f57600080fd5b505afa158015610673573d6000803e3d6000fd5b505050506040513d601f19601f820116820180604052508101906106979190610ab7565b9050816106dd57801561028d5760025460405163a9059cbb60e01b81526001600160a01b038881166004830152602482018490529091169063a9059cbb90604401610239565b816106e9826001610ad0565b14156106fd576106fa600183610b0a565b91505b818110156107645760405162461bcd60e51b815260206004820152602e60248201527f55736463324155736463546f6b656e45786368616e67653a204e6f7420656e6f60448201526d3ab3b41030aab9b231aa37b5b2b760911b6064820152608401610178565b60025460005460405163a9059cbb60e01b81526001600160a01b0391821660048201526024810185905291169063a9059cbb90604401602060405180830381600087803b1580156107b457600080fd5b505af11580156107c8573d6000803e3d6000fd5b505050506040513d601f19601f820116820180604052508101906107ec9190610a8e565b50600254600080546040516370a0823160e01b81526001600160a01b039182166004820152919216906370a082319060240160206040518083038186803b15801561083657600080fd5b505afa15801561084a573d6000803e3d6000fd5b505050506040513d601f19601f8201168201806040525081019061086e9190610ab7565b90508281101561087c578092505b6000805460015460405163493718eb60e11b81526001600160a01b03918216600482015260248101879052888216604482015291169063926e31d690606401602060405180830381600087803b1580156108d557600080fd5b505af11580156108e9573d6000803e3d6000fd5b505050506040513d601f19601f8201168201806040525081019061090d9190610ab7565b6002546040516370a0823160e01b81523060048201529192506000916001600160a01b03909116906370a082319060240160206040518083038186803b15801561095657600080fd5b505afa15801561096a573d6000803e3d6000fd5b505050506040513d601f19601f8201168201806040525081019061098e9190610ab7565b90508015610a1e5760025460405163a9059cbb60e01b81526001600160a01b038b81166004830152602482018490529091169063a9059cbb90604401602060405180830381600087803b1580156109e457600080fd5b505af11580156109f8573d6000803e3d6000fd5b505050506040513d601f19601f82011682018060405250810190610a1c9190610a8e565b505b505050505b5050505050565b600080600080600060a08688031215610a4257600080fd5b8535610a4d81610b37565b94506020860135610a5d81610b37565b93506040860135610a6d81610b37565b92506060860135610a7d81610b37565b949793965091946080013592915050565b600060208284031215610aa057600080fd5b81518015158114610ab057600080fd5b9392505050565b600060208284031215610ac957600080fd5b5051919050565b60008219821115610ae357610ae3610b21565b500190565b600082610b0557634e487b7160e01b600052601260045260246000fd5b500490565b600082821015610b1c57610b1c610b21565b500390565b634e487b7160e01b600052601160045260246000fd5b6001600160a01b0381168114610b4c57600080fd5b5056fea26469706673582212204d9abc672031aa85dcd69ca007f94402c626d87772a88ada98c1aab260a93df564736f6c634300080600335a65726f2061646472657373206e6f7420616c6c6f7765640000000000000000",
  "devdoc": {
    "kind": "dev",
    "methods": {},
    "version": 1
  },
  "userdoc": {
    "kind": "user",
    "methods": {},
    "version": 1
  },
  "storageLayout": {
    "storage": [
      {
        "astId": 18597,
        "contract": "contracts/token_exchanges/Usdc2AUsdcTokenExchange.sol:Usdc2AUsdcTokenExchange",
        "label": "aaveConnector",
        "offset": 0,
        "slot": "0",
        "type": "t_contract(IConnector)15826"
      },
      {
        "astId": 18600,
        "contract": "contracts/token_exchanges/Usdc2AUsdcTokenExchange.sol:Usdc2AUsdcTokenExchange",
        "label": "usdcToken",
        "offset": 0,
        "slot": "1",
        "type": "t_contract(IERC20)4667"
      },
      {
        "astId": 18603,
        "contract": "contracts/token_exchanges/Usdc2AUsdcTokenExchange.sol:Usdc2AUsdcTokenExchange",
        "label": "aUsdcToken",
        "offset": 0,
        "slot": "2",
        "type": "t_contract(IERC20)4667"
      },
      {
        "astId": 18605,
        "contract": "contracts/token_exchanges/Usdc2AUsdcTokenExchange.sol:Usdc2AUsdcTokenExchange",
        "label": "usdcDenominator",
        "offset": 0,
        "slot": "3",
        "type": "t_uint256"
      },
      {
        "astId": 18607,
        "contract": "contracts/token_exchanges/Usdc2AUsdcTokenExchange.sol:Usdc2AUsdcTokenExchange",
        "label": "aUsdcDenominator",
        "offset": 0,
        "slot": "4",
        "type": "t_uint256"
      }
    ],
    "types": {
      "t_contract(IConnector)15826": {
        "encoding": "inplace",
        "label": "contract IConnector",
        "numberOfBytes": "20"
      },
      "t_contract(IERC20)4667": {
        "encoding": "inplace",
        "label": "contract IERC20",
        "numberOfBytes": "20"
      },
      "t_uint256": {
        "encoding": "inplace",
        "label": "uint256",
        "numberOfBytes": "32"
      }
    }
  }
}