{
  "address": "0x8E285353cc976cF1b1138Cb66A95A26157f3340C",
  "abi": [
    {
      "inputs": [],
      "stateMutability": "nonpayable",
      "type": "constructor"
    },
    {
      "anonymous": false,
      "inputs": [
        {
          "indexed": false,
          "internalType": "address",
          "name": "previousAdmin",
          "type": "address"
        },
        {
          "indexed": false,
          "internalType": "address",
          "name": "newAdmin",
          "type": "address"
        }
      ],
      "name": "AdminChanged",
      "type": "event"
    },
    {
      "anonymous": false,
      "inputs": [
        {
          "indexed": true,
          "internalType": "address",
          "name": "owner",
          "type": "address"
        },
        {
          "indexed": true,
          "internalType": "address",
          "name": "spender",
          "type": "address"
        },
        {
          "indexed": false,
          "internalType": "uint256",
          "name": "value",
          "type": "uint256"
        }
      ],
      "name": "Approval",
      "type": "event"
    },
    {
      "anonymous": false,
      "inputs": [
        {
          "indexed": true,
          "internalType": "address",
          "name": "beacon",
          "type": "address"
        }
      ],
      "name": "BeaconUpgraded",
      "type": "event"
    },
    {
      "anonymous": false,
      "inputs": [
        {
          "indexed": false,
          "internalType": "address",
          "name": "exchanger",
          "type": "address"
        }
      ],
      "name": "ExchangerUpdated",
      "type": "event"
    },
    {
      "anonymous": false,
      "inputs": [
        {
          "indexed": false,
          "internalType": "uint256",
          "name": "changeTime",
          "type": "uint256"
        },
        {
          "indexed": false,
          "internalType": "uint256",
          "name": "liquidityIndex",
          "type": "uint256"
        }
      ],
      "name": "LiquidityIndexUpdated",
      "type": "event"
    },
    {
      "anonymous": false,
      "inputs": [
        {
          "indexed": true,
          "internalType": "bytes32",
          "name": "role",
          "type": "bytes32"
        },
        {
          "indexed": true,
          "internalType": "bytes32",
          "name": "previousAdminRole",
          "type": "bytes32"
        },
        {
          "indexed": true,
          "internalType": "bytes32",
          "name": "newAdminRole",
          "type": "bytes32"
        }
      ],
      "name": "RoleAdminChanged",
      "type": "event"
    },
    {
      "anonymous": false,
      "inputs": [
        {
          "indexed": true,
          "internalType": "bytes32",
          "name": "role",
          "type": "bytes32"
        },
        {
          "indexed": true,
          "internalType": "address",
          "name": "account",
          "type": "address"
        },
        {
          "indexed": true,
          "internalType": "address",
          "name": "sender",
          "type": "address"
        }
      ],
      "name": "RoleGranted",
      "type": "event"
    },
    {
      "anonymous": false,
      "inputs": [
        {
          "indexed": true,
          "internalType": "bytes32",
          "name": "role",
          "type": "bytes32"
        },
        {
          "indexed": true,
          "internalType": "address",
          "name": "account",
          "type": "address"
        },
        {
          "indexed": true,
          "internalType": "address",
          "name": "sender",
          "type": "address"
        }
      ],
      "name": "RoleRevoked",
      "type": "event"
    },
    {
      "anonymous": false,
      "inputs": [
        {
          "indexed": true,
          "internalType": "address",
          "name": "from",
          "type": "address"
        },
        {
          "indexed": true,
          "internalType": "address",
          "name": "to",
          "type": "address"
        },
        {
          "indexed": false,
          "internalType": "uint256",
          "name": "value",
          "type": "uint256"
        }
      ],
      "name": "Transfer",
      "type": "event"
    },
    {
      "anonymous": false,
      "inputs": [
        {
          "indexed": true,
          "internalType": "address",
          "name": "implementation",
          "type": "address"
        }
      ],
      "name": "Upgraded",
      "type": "event"
    },
    {
      "inputs": [],
      "name": "DEFAULT_ADMIN_ROLE",
      "outputs": [
        {
          "internalType": "bytes32",
          "name": "",
          "type": "bytes32"
        }
      ],
      "stateMutability": "view",
      "type": "function"
    },
    {
      "inputs": [],
      "name": "EXCHANGER",
      "outputs": [
        {
          "internalType": "bytes32",
          "name": "",
          "type": "bytes32"
        }
      ],
      "stateMutability": "view",
      "type": "function"
    },
    {
      "inputs": [],
      "name": "UPGRADER_ROLE",
      "outputs": [
        {
          "internalType": "bytes32",
          "name": "",
          "type": "bytes32"
        }
      ],
      "stateMutability": "view",
      "type": "function"
    },
    {
      "inputs": [
        {
          "internalType": "address",
          "name": "owner",
          "type": "address"
        },
        {
          "internalType": "address",
          "name": "spender",
          "type": "address"
        }
      ],
      "name": "allowance",
      "outputs": [
        {
          "internalType": "uint256",
          "name": "",
          "type": "uint256"
        }
      ],
      "stateMutability": "view",
      "type": "function"
    },
    {
      "inputs": [
        {
          "internalType": "address",
          "name": "spender",
          "type": "address"
        },
        {
          "internalType": "uint256",
          "name": "amount",
          "type": "uint256"
        }
      ],
      "name": "approve",
      "outputs": [
        {
          "internalType": "bool",
          "name": "",
          "type": "bool"
        }
      ],
      "stateMutability": "nonpayable",
      "type": "function"
    },
    {
      "inputs": [
        {
          "internalType": "address",
          "name": "user",
          "type": "address"
        }
      ],
      "name": "balanceOf",
      "outputs": [
        {
          "internalType": "uint256",
          "name": "",
          "type": "uint256"
        }
      ],
      "stateMutability": "view",
      "type": "function"
    },
    {
      "inputs": [
        {
          "internalType": "address",
          "name": "_sender",
          "type": "address"
        },
        {
          "internalType": "uint256",
          "name": "_amount",
          "type": "uint256"
        }
      ],
      "name": "burn",
      "outputs": [],
      "stateMutability": "nonpayable",
      "type": "function"
    },
    {
      "inputs": [],
      "name": "decimals",
      "outputs": [
        {
          "internalType": "uint8",
          "name": "",
          "type": "uint8"
        }
      ],
      "stateMutability": "pure",
      "type": "function"
    },
    {
      "inputs": [
        {
          "internalType": "address",
          "name": "spender",
          "type": "address"
        },
        {
          "internalType": "uint256",
          "name": "subtractedValue",
          "type": "uint256"
        }
      ],
      "name": "decreaseAllowance",
      "outputs": [
        {
          "internalType": "bool",
          "name": "",
          "type": "bool"
        }
      ],
      "stateMutability": "nonpayable",
      "type": "function"
    },
    {
      "inputs": [
        {
          "internalType": "bytes32",
          "name": "role",
          "type": "bytes32"
        }
      ],
      "name": "getRoleAdmin",
      "outputs": [
        {
          "internalType": "bytes32",
          "name": "",
          "type": "bytes32"
        }
      ],
      "stateMutability": "view",
      "type": "function"
    },
    {
      "inputs": [
        {
          "internalType": "bytes32",
          "name": "role",
          "type": "bytes32"
        },
        {
          "internalType": "address",
          "name": "account",
          "type": "address"
        }
      ],
      "name": "grantRole",
      "outputs": [],
      "stateMutability": "nonpayable",
      "type": "function"
    },
    {
      "inputs": [
        {
          "internalType": "bytes32",
          "name": "role",
          "type": "bytes32"
        },
        {
          "internalType": "address",
          "name": "account",
          "type": "address"
        }
      ],
      "name": "hasRole",
      "outputs": [
        {
          "internalType": "bool",
          "name": "",
          "type": "bool"
        }
      ],
      "stateMutability": "view",
      "type": "function"
    },
    {
      "inputs": [
        {
          "internalType": "address",
          "name": "spender",
          "type": "address"
        },
        {
          "internalType": "uint256",
          "name": "addedValue",
          "type": "uint256"
        }
      ],
      "name": "increaseAllowance",
      "outputs": [
        {
          "internalType": "bool",
          "name": "",
          "type": "bool"
        }
      ],
      "stateMutability": "nonpayable",
      "type": "function"
    },
    {
      "inputs": [],
      "name": "initialize",
      "outputs": [],
      "stateMutability": "nonpayable",
      "type": "function"
    },
    {
      "inputs": [],
      "name": "liquidityIndex",
      "outputs": [
        {
          "internalType": "uint256",
          "name": "",
          "type": "uint256"
        }
      ],
      "stateMutability": "view",
      "type": "function"
    },
    {
      "inputs": [],
      "name": "liquidityIndexChangeTime",
      "outputs": [
        {
          "internalType": "uint256",
          "name": "",
          "type": "uint256"
        }
      ],
      "stateMutability": "view",
      "type": "function"
    },
    {
      "inputs": [],
      "name": "liquidityIndexDenominator",
      "outputs": [
        {
          "internalType": "uint256",
          "name": "",
          "type": "uint256"
        }
      ],
      "stateMutability": "view",
      "type": "function"
    },
    {
      "inputs": [
        {
          "internalType": "address",
          "name": "_sender",
          "type": "address"
        },
        {
          "internalType": "uint256",
          "name": "_amount",
          "type": "uint256"
        }
      ],
      "name": "mint",
      "outputs": [],
      "stateMutability": "nonpayable",
      "type": "function"
    },
    {
      "inputs": [],
      "name": "name",
      "outputs": [
        {
          "internalType": "string",
          "name": "",
          "type": "string"
        }
      ],
      "stateMutability": "view",
      "type": "function"
    },
    {
      "inputs": [
        {
          "internalType": "uint256",
          "name": "index",
          "type": "uint256"
        }
      ],
      "name": "ownerAt",
      "outputs": [
        {
          "internalType": "address",
          "name": "",
          "type": "address"
        }
      ],
      "stateMutability": "view",
      "type": "function"
    },
    {
      "inputs": [
        {
          "internalType": "uint256",
          "name": "index",
          "type": "uint256"
        }
      ],
      "name": "ownerBalanceAt",
      "outputs": [
        {
          "internalType": "uint256",
          "name": "",
          "type": "uint256"
        }
      ],
      "stateMutability": "view",
      "type": "function"
    },
    {
      "inputs": [],
      "name": "ownerLength",
      "outputs": [
        {
          "internalType": "uint256",
          "name": "",
          "type": "uint256"
        }
      ],
      "stateMutability": "view",
      "type": "function"
    },
    {
      "inputs": [
        {
          "internalType": "bytes32",
          "name": "role",
          "type": "bytes32"
        },
        {
          "internalType": "address",
          "name": "account",
          "type": "address"
        }
      ],
      "name": "renounceRole",
      "outputs": [],
      "stateMutability": "nonpayable",
      "type": "function"
    },
    {
      "inputs": [
        {
          "internalType": "bytes32",
          "name": "role",
          "type": "bytes32"
        },
        {
          "internalType": "address",
          "name": "account",
          "type": "address"
        }
      ],
      "name": "revokeRole",
      "outputs": [],
      "stateMutability": "nonpayable",
      "type": "function"
    },
    {
      "inputs": [
        {
          "internalType": "address",
          "name": "user",
          "type": "address"
        }
      ],
      "name": "scaledBalanceOf",
      "outputs": [
        {
          "internalType": "uint256",
          "name": "",
          "type": "uint256"
        }
      ],
      "stateMutability": "view",
      "type": "function"
    },
    {
      "inputs": [],
      "name": "scaledTotalSupply",
      "outputs": [
        {
          "internalType": "uint256",
          "name": "",
          "type": "uint256"
        }
      ],
      "stateMutability": "view",
      "type": "function"
    },
    {
      "inputs": [
        {
          "internalType": "address",
          "name": "_exchanger",
          "type": "address"
        }
      ],
      "name": "setExchanger",
      "outputs": [],
      "stateMutability": "nonpayable",
      "type": "function"
    },
    {
      "inputs": [
        {
          "internalType": "uint256",
          "name": "_liquidityIndex",
          "type": "uint256"
        }
      ],
      "name": "setLiquidityIndex",
      "outputs": [],
      "stateMutability": "nonpayable",
      "type": "function"
    },
    {
      "inputs": [
        {
          "internalType": "bytes4",
          "name": "interfaceId",
          "type": "bytes4"
        }
      ],
      "name": "supportsInterface",
      "outputs": [
        {
          "internalType": "bool",
          "name": "",
          "type": "bool"
        }
      ],
      "stateMutability": "view",
      "type": "function"
    },
    {
      "inputs": [],
      "name": "symbol",
      "outputs": [
        {
          "internalType": "string",
          "name": "",
          "type": "string"
        }
      ],
      "stateMutability": "view",
      "type": "function"
    },
    {
      "inputs": [],
      "name": "totalBurn",
      "outputs": [
        {
          "internalType": "uint256",
          "name": "",
          "type": "uint256"
        }
      ],
      "stateMutability": "view",
      "type": "function"
    },
    {
      "inputs": [],
      "name": "totalMint",
      "outputs": [
        {
          "internalType": "uint256",
          "name": "",
          "type": "uint256"
        }
      ],
      "stateMutability": "view",
      "type": "function"
    },
    {
      "inputs": [],
      "name": "totalSupply",
      "outputs": [
        {
          "internalType": "uint256",
          "name": "",
          "type": "uint256"
        }
      ],
      "stateMutability": "view",
      "type": "function"
    },
    {
      "inputs": [
        {
          "internalType": "address",
          "name": "recipient",
          "type": "address"
        },
        {
          "internalType": "uint256",
          "name": "amount",
          "type": "uint256"
        }
      ],
      "name": "transfer",
      "outputs": [
        {
          "internalType": "bool",
          "name": "",
          "type": "bool"
        }
      ],
      "stateMutability": "nonpayable",
      "type": "function"
    },
    {
      "inputs": [
        {
          "internalType": "address",
          "name": "sender",
          "type": "address"
        },
        {
          "internalType": "address",
          "name": "recipient",
          "type": "address"
        },
        {
          "internalType": "uint256",
          "name": "amount",
          "type": "uint256"
        }
      ],
      "name": "transferFrom",
      "outputs": [
        {
          "internalType": "bool",
          "name": "",
          "type": "bool"
        }
      ],
      "stateMutability": "nonpayable",
      "type": "function"
    },
    {
      "inputs": [
        {
          "internalType": "address",
          "name": "newImplementation",
          "type": "address"
        }
      ],
      "name": "upgradeTo",
      "outputs": [],
      "stateMutability": "nonpayable",
      "type": "function"
    },
    {
      "inputs": [
        {
          "internalType": "address",
          "name": "newImplementation",
          "type": "address"
        },
        {
          "internalType": "bytes",
          "name": "data",
          "type": "bytes"
        }
      ],
      "name": "upgradeToAndCall",
      "outputs": [],
      "stateMutability": "payable",
      "type": "function"
    }
  ],
  "solcInputHash": "54a4ad763a44f585559601d1c74d48d9",
  "bytecode": "0x60a06040523060601b60805234801561001757600080fd5b50600054610100900460ff1680610031575060005460ff16155b6100985760405162461bcd60e51b815260206004820152602e60248201527f496e697469616c697a61626c653a20636f6e747261637420697320616c72656160448201526d191e481a5b9a5d1a585b1a5e995960921b606482015260840160405180910390fd5b600054610100900460ff161580156100ba576000805461ffff19166101011790555b80156100cc576000805461ff00191690555b5060805160601c6128b762000101600039600081816109d701528181610a1701528181610bc20152610c0201526128b76000f3fe6080604052600436106102195760003560e01c806370a0823111610123578063b1bf962d116100ab578063ce6df7be1161006f578063ce6df7be146105eb578063d547741f1461060b578063da909b091461062b578063dd62ed3e1461064b578063f72c0d8b1461066b57600080fd5b8063b1bf962d14610566578063b2be25911461057b578063bbf44f331461059b578063bd0f1053146105b2578063cb45d0e7146105d457600080fd5b806395d89b41116100f257806395d89b41146104dc5780639dc29fac146104f1578063a217fddf14610511578063a457c2d714610526578063a9059cbb1461054657600080fd5b806370a08231146104705780638129fc1c1461049057806384f1abca146104a557806391d14854146104bc57600080fd5b80632f2ff15d116101a6578063395093511161017557806339509351146103f35780633c9f861d1461041357806340c10f19146104285780634f1ef2861461044857806359a7715a1461045b57600080fd5b80632f2ff15d14610375578063313ce5671461039757806336568abe146103b35780633659cfe6146103d357600080fd5b806318160ddd116101ed57806318160ddd146102b85780631da24f3e146102cd57806323b872dd146102ed578063243598791461030d578063248a9ca31461034557600080fd5b80623660881461021e57806301ffc9a71461024657806306fdde0314610276578063095ea7b314610298575b600080fd5b34801561022a57600080fd5b5061023361069f565b6040519081526020015b60405180910390f35b34801561025257600080fd5b50610266610261366004612486565b6106b1565b604051901515815260200161023d565b34801561028257600080fd5b5061028b6106e8565b60405161023d9190612541565b3480156102a457600080fd5b506102666102b3366004612420565b61077a565b3480156102c457600080fd5b506102336107b5565b3480156102d957600080fd5b506102336102e83660046122d4565b6107df565b3480156102f957600080fd5b50610266610308366004612322565b6107fd565b34801561031957600080fd5b5061032d61032836600461244a565b610915565b6040516001600160a01b03909116815260200161023d565b34801561035157600080fd5b5061023361036036600461244a565b60009081526065602052604090206001015490565b34801561038157600080fd5b50610395610390366004612463565b610923565b005b3480156103a357600080fd5b506040516006815260200161023d565b3480156103bf57600080fd5b506103956103ce366004612463565b61094e565b3480156103df57600080fd5b506103956103ee3660046122d4565b6109cc565b3480156103ff57600080fd5b5061026661040e366004612420565b610a95565b34801561041f57600080fd5b50610233610ada565b34801561043457600080fd5b50610395610443366004612420565b610b07565b61039561045636600461235e565b610bb7565b34801561046757600080fd5b50610233610c6d565b34801561047c57600080fd5b5061023361048b3660046122d4565b610c89565b34801561049c57600080fd5b50610395610ccd565b3480156104b157600080fd5b506102336101045481565b3480156104c857600080fd5b506102666104d7366004612463565b610df4565b3480156104e857600080fd5b5061028b610e1f565b3480156104fd57600080fd5b5061039561050c366004612420565b610e2e565b34801561051d57600080fd5b50610233600081565b34801561053257600080fd5b50610266610541366004612420565b610ed5565b34801561055257600080fd5b50610266610561366004612420565b610f64565b34801561057257600080fd5b5060fd54610233565b34801561058757600080fd5b5061039561059636600461244a565b610fcd565b3480156105a757600080fd5b506102336101035481565b3480156105be57600080fd5b5061023360008051602061281b83398151915281565b3480156105e057600080fd5b506102336101025481565b3480156105f757600080fd5b5061023361060636600461244a565b61109b565b34801561061757600080fd5b50610395610626366004612463565b6110ac565b34801561063757600080fd5b506103956106463660046122d4565b6110d2565b34801561065757600080fd5b506102336106663660046122ef565b611171565b34801561067757600080fd5b506102337f189ab7a9244df0848122154315af71fe140f3db0fe014031783b0946b8c9d2e381565b60006106ac6101056111b1565b905090565b60006001600160e01b03198216637965db0b60e01b14806106e257506301ffc9a760e01b6001600160e01b03198316145b92915050565b606060fe80546106f790612787565b80601f016020809104026020016040519081016040528092919081815260200182805461072390612787565b80156107705780601f1061074557610100808354040283529160200191610770565b820191906000526020600020905b81548152906001019060200180831161075357829003601f168201915b5050505050905090565b600080610786836111bb565b905061079e61010354826111fa90919063ffffffff16565b90506107ab3385836112c6565b5060019392505050565b60fd54610103546000919082906107cd9083906113e2565b90506107d88161147f565b9250505090565b6001600160a01b038116600090815260fb60205260408120546106e2565b600080610809836111bb565b905061082161010354826111fa90919063ffffffff16565b905061082e8585836114ff565b6001600160a01b038516600090815260fc60209081526040808320338452909152902054818110156108bf5760405162461bcd60e51b815260206004820152602f60248201527f557364506c7573546f6b656e3a207472616e7366657220616d6f756e7420657860448201526e636565647320616c6c6f77616e636560881b60648201526084015b60405180910390fd5b6108cc86338484036112c6565b846001600160a01b0316866001600160a01b0316600080516020612862833981519152866040516108ff91815260200190565b60405180910390a36001925050505b9392505050565b60006106e26101058361168b565b60008281526065602052604090206001015461093f8133611697565b61094983836116fb565b505050565b6001600160a01b03811633146109be5760405162461bcd60e51b815260206004820152602f60248201527f416363657373436f6e74726f6c3a2063616e206f6e6c792072656e6f756e636560448201526e103937b632b9903337b91039b2b63360891b60648201526084016108b6565b6109c88282611781565b5050565b306001600160a01b037f0000000000000000000000000000000000000000000000000000000000000000161415610a155760405162461bcd60e51b81526004016108b6906125ab565b7f00000000000000000000000000000000000000000000000000000000000000006001600160a01b0316610a476117e8565b6001600160a01b031614610a6d5760405162461bcd60e51b81526004016108b6906125f7565b610a7681611816565b60408051600080825260208201909252610a9291839190611841565b50565b33600081815260fc602090815260408083206001600160a01b03871684529091528120549091610ad1918590610acc9086906126d4565b6112c6565b50600192915050565b600080610af661010354610101546113e290919063ffffffff16565b9050610b018161147f565b91505090565b610b1f60008051602061281b83398151915233610df4565b610b3b5760405162461bcd60e51b81526004016108b690612574565b6000610b46826111bb565b9050610b5e61010354826111fa90919063ffffffff16565b9050610b6a838261198c565b806101006000828254610b7d91906126d4565b90915550506040518281526001600160a01b03841690600090600080516020612862833981519152906020015b60405180910390a3505050565b306001600160a01b037f0000000000000000000000000000000000000000000000000000000000000000161415610c005760405162461bcd60e51b81526004016108b6906125ab565b7f00000000000000000000000000000000000000000000000000000000000000006001600160a01b0316610c326117e8565b6001600160a01b031614610c585760405162461bcd60e51b81526004016108b6906125f7565b610c6182611816565b6109c882826001611841565b600080610af661010354610100546113e290919063ffffffff16565b6001600160a01b038116600090815260fb60205260408120546000610cba61010354836113e290919063ffffffff16565b9050610cc58161147f565b949350505050565b600054610100900460ff1680610ce6575060005460ff16155b610d025760405162461bcd60e51b81526004016108b690612643565b600054610100900460ff16158015610d24576000805461ffff19166101011790555b610d2c611a33565b604080518082019091526004808252635553442b60e01b6020909201918252610d579160fe9161221f565b50604080518082019091526004808252635553442b60e01b6020909201918252610d839160ff9161221f565b50610d8c611a9e565b610d94611b0d565b610d9f6000336116fb565b610dc97f189ab7a9244df0848122154315af71fe140f3db0fe014031783b0946b8c9d2e3336116fb565b6b033b2e3c9fd0803ce8000000610103819055610104558015610a92576000805461ff001916905550565b60009182526065602090815260408084206001600160a01b0393909316845291905290205460ff1690565b606060ff80546106f790612787565b610e4660008051602061281b83398151915233610df4565b610e625760405162461bcd60e51b81526004016108b690612574565b6000610e6d826111bb565b9050610e8561010354826111fa90919063ffffffff16565b9050610e918382611b6b565b806101016000828254610ea491906126d4565b90915550506040518281526000906001600160a01b0385169060008051602061286283398151915290602001610baa565b33600090815260fc602090815260408083206001600160a01b038616845290915281205482811015610f575760405162461bcd60e51b815260206004820152602560248201527f45524332303a2064656372656173656420616c6c6f77616e63652062656c6f77604482015264207a65726f60d81b60648201526084016108b6565b6107ab33858584036112c6565b600080610f70836111bb565b9050610f8861010354826111fa90919063ffffffff16565b9050610f953385836114ff565b6040518381526001600160a01b0385169033906000805160206128628339815191529060200160405180910390a35060019392505050565b610fe560008051602061281b83398151915233610df4565b6110015760405162461bcd60e51b81526004016108b690612574565b600081116110515760405162461bcd60e51b815260206004820181905260248201527f5a65726f206c697175696469747920696e646578206e6f7420616c6c6f77656460448201526064016108b6565b6101038190554261010281905560408051918252602082018390527f0e4040116352d1db096d8c6873996691dc7c5fe194f0a5094f63e55f28372e1191015b60405180910390a150565b60006106e261048b6101058461168b565b6000828152606560205260409020600101546110c88133611697565b6109498383611781565b6110dd600033610df4565b6111205760405162461bcd60e51b81526020600482015260146024820152735265737472696374656420746f2061646d696e7360601b60448201526064016108b6565b61113860008051602061281b83398151915282610923565b6040516001600160a01b03821681527f1af34e943bb581f62718acd39caf1a640e9ff89789a197745e259d1f40cd9bd690602001611090565b600080610cba610103546111ab86866001600160a01b03918216600090815260fc6020908152604080832093909416825291909152205490565b906113e2565b60006106e2825490565b6000806111cc633b9aca008461270e565b9050826111dd633b9aca00836126ec565b146106e25760405162461bcd60e51b81526004016108b690612691565b6000816112495760405162461bcd60e51b815260206004820152601c60248201527f4572726f72732e4d4154485f4449564953494f4e5f42595f5a45524f0000000060448201526064016108b6565b60006112566002846126ec565b90506b033b2e3c9fd0803ce80000006112718260001961272d565b61127b91906126ec565b84111561129a5760405162461bcd60e51b81526004016108b690612691565b82816112b26b033b2e3c9fd0803ce80000008761270e565b6112bc91906126d4565b610cc591906126ec565b6001600160a01b0383166113285760405162461bcd60e51b8152602060048201526024808201527f45524332303a20617070726f76652066726f6d20746865207a65726f206164646044820152637265737360e01b60648201526084016108b6565b6001600160a01b0382166113895760405162461bcd60e51b815260206004820152602260248201527f45524332303a20617070726f766520746f20746865207a65726f206164647265604482015261737360f01b60648201526084016108b6565b6001600160a01b03838116600081815260fc602090815260408083209487168084529482529182902085905590518481527f8c5be1e5ebec7d5bd14f71427d1e84f3dd0314c0f7b2291e5b200ac8c7c3b9259101610baa565b60008215806113ef575081155b156113fc575060006106e2565b8161141460026b033b2e3c9fd0803ce80000006126ec565b6114209060001961272d565b61142a91906126ec565b8311156114495760405162461bcd60e51b81526004016108b690612691565b6b033b2e3c9fd0803ce80000006114616002826126ec565b61146b848661270e565b61147591906126d4565b61090e91906126ec565b6000806114916002633b9aca006126ec565b9050600061149f84836126d4565b9050818110156114f15760405162461bcd60e51b815260206004820152601d60248201527f4572726f72732e4d4154485f4144444954494f4e5f4f564552464c4f5700000060448201526064016108b6565b610cc5633b9aca00826126ec565b6001600160a01b0383166115635760405162461bcd60e51b815260206004820152602560248201527f45524332303a207472616e736665722066726f6d20746865207a65726f206164604482015264647265737360d81b60648201526084016108b6565b6001600160a01b0382166115c55760405162461bcd60e51b815260206004820152602360248201527f45524332303a207472616e7366657220746f20746865207a65726f206164647260448201526265737360e81b60648201526084016108b6565b6001600160a01b038316600090815260fb60205260409020548181101561163d5760405162461bcd60e51b815260206004820152602660248201527f45524332303a207472616e7366657220616d6f756e7420657863656564732062604482015265616c616e636560d01b60648201526084016108b6565b6001600160a01b03808516600090815260fb60205260408082208585039055918516815290812080548492906116749084906126d4565b909155506116859050848484611c7c565b50505050565b600061090e8383611ce4565b6116a18282610df4565b6109c8576116b9816001600160a01b03166014611d0e565b6116c4836020611d0e565b6040516020016116d59291906124cc565b60408051601f198184030181529082905262461bcd60e51b82526108b691600401612541565b6117058282610df4565b6109c85760008281526065602090815260408083206001600160a01b03851684529091529020805460ff1916600117905561173d3390565b6001600160a01b0316816001600160a01b0316837f2f8788117e7eff1d82e926ec794901d17c78024a50270940304540a733656f0d60405160405180910390a45050565b61178b8282610df4565b156109c85760008281526065602090815260408083206001600160a01b0385168085529252808320805460ff1916905551339285917ff6391f5c32d9c69d2a47ea670b442974b53935d1edc7fd64eb21e047a839171b9190a45050565b7f360894a13ba1a3210667c828492db98dca3e2076cc3735a920a3ca505d382bbc546001600160a01b031690565b7f189ab7a9244df0848122154315af71fe140f3db0fe014031783b0946b8c9d2e36109c88133611697565b600061184b6117e8565b905061185684611eaa565b6000835111806118635750815b15611874576118728484611f4f565b505b7f4910fdfa16fed3260ed0e7147f7cc6da11a60208b5b9406d12a635614ffd9143805460ff1661198557805460ff191660011781556040516001600160a01b03831660248201526118f390869060440160408051601f198184030181529190526020810180516001600160e01b0316631b2ce7f360e11b179052611f4f565b50805460ff191681556119046117e8565b6001600160a01b0316826001600160a01b03161461197c5760405162461bcd60e51b815260206004820152602f60248201527f45524331393637557067726164653a207570677261646520627265616b73206660448201526e75727468657220757067726164657360881b60648201526084016108b6565b6119858561203a565b5050505050565b6001600160a01b0382166119e25760405162461bcd60e51b815260206004820152601f60248201527f45524332303a206d696e7420746f20746865207a65726f20616464726573730060448201526064016108b6565b8060fd60008282546119f491906126d4565b90915550506001600160a01b038216600090815260fb602052604081208054839290611a219084906126d4565b909155506109c8905060008383611c7c565b600054610100900460ff1680611a4c575060005460ff16155b611a685760405162461bcd60e51b81526004016108b690612643565b600054610100900460ff16158015611a8a576000805461ffff19166101011790555b8015610a92576000805461ff001916905550565b600054610100900460ff1680611ab7575060005460ff16155b611ad35760405162461bcd60e51b81526004016108b690612643565b600054610100900460ff16158015611af5576000805461ffff19166101011790555b611afd611a33565b611b05611a33565b611a8a611a33565b600054610100900460ff1680611b26575060005460ff16155b611b425760405162461bcd60e51b81526004016108b690612643565b600054610100900460ff16158015611afd576000805461ffff1916610101179055611b05611a33565b6001600160a01b038216611bcb5760405162461bcd60e51b815260206004820152602160248201527f45524332303a206275726e2066726f6d20746865207a65726f206164647265736044820152607360f81b60648201526084016108b6565b6001600160a01b038216600090815260fb602052604090205481811015611c3f5760405162461bcd60e51b815260206004820152602260248201527f45524332303a206275726e20616d6f756e7420657863656564732062616c616e604482015261636560f01b60648201526084016108b6565b6001600160a01b038316600090815260fb60205260408120838303905560fd8054849290611c6e90849061272d565b909155506109499050836000845b6001600160a01b038316611c96576116856101058361207a565b6001600160a01b038216611cbd57611cad83610c89565b610949576116856101058461208f565b611cc683610c89565b611cd857611cd66101058461208f565b505b6116856101058361207a565b6000826000018281548110611cfb57611cfb6127ee565b9060005260206000200154905092915050565b60606000611d1d83600261270e565b611d289060026126d4565b67ffffffffffffffff811115611d4057611d40612804565b6040519080825280601f01601f191660200182016040528015611d6a576020820181803683370190505b509050600360fc1b81600081518110611d8557611d856127ee565b60200101906001600160f81b031916908160001a905350600f60fb1b81600181518110611db457611db46127ee565b60200101906001600160f81b031916908160001a9053506000611dd884600261270e565b611de39060016126d4565b90505b6001811115611e5b576f181899199a1a9b1b9c1cb0b131b232b360811b85600f1660108110611e1757611e176127ee565b1a60f81b828281518110611e2d57611e2d6127ee565b60200101906001600160f81b031916908160001a90535060049490941c93611e5481612770565b9050611de6565b50831561090e5760405162461bcd60e51b815260206004820181905260248201527f537472696e67733a20686578206c656e67746820696e73756666696369656e7460448201526064016108b6565b803b611f0e5760405162461bcd60e51b815260206004820152602d60248201527f455243313936373a206e657720696d706c656d656e746174696f6e206973206e60448201526c1bdd08184818dbdb9d1c9858dd609a1b60648201526084016108b6565b7f360894a13ba1a3210667c828492db98dca3e2076cc3735a920a3ca505d382bbc80546001600160a01b0319166001600160a01b0392909216919091179055565b6060823b611fae5760405162461bcd60e51b815260206004820152602660248201527f416464726573733a2064656c65676174652063616c6c20746f206e6f6e2d636f6044820152651b9d1c9858dd60d21b60648201526084016108b6565b600080846001600160a01b031684604051611fc991906124b0565b600060405180830381855af49150503d8060008114612004576040519150601f19603f3d011682016040523d82523d6000602084013e612009565b606091505b5091509150612031828260405180606001604052806027815260200161283b602791396120a4565b95945050505050565b61204381611eaa565b6040516001600160a01b038216907fbc7cd75a20ee27fd9adebab32041f755214dbc6bffa90cc0225b39da2e5c2d3b90600090a250565b600061090e836001600160a01b0384166120dd565b600061090e836001600160a01b03841661212c565b606083156120b357508161090e565b8251156120c35782518084602001fd5b8160405162461bcd60e51b81526004016108b69190612541565b6000818152600183016020526040812054612124575081546001818101845560008481526020808220909301849055845484825282860190935260409020919091556106e2565b5060006106e2565b6000818152600183016020526040812054801561221557600061215060018361272d565b85549091506000906121649060019061272d565b90508181146121c9576000866000018281548110612184576121846127ee565b90600052602060002001549050808760000184815481106121a7576121a76127ee565b6000918252602080832090910192909255918252600188019052604090208390555b85548690806121da576121da6127d8565b6001900381819060005260206000200160009055905585600101600086815260200190815260200160002060009055600193505050506106e2565b60009150506106e2565b82805461222b90612787565b90600052602060002090601f01602090048101928261224d5760008555612293565b82601f1061226657805160ff1916838001178555612293565b82800160010185558215612293579182015b82811115612293578251825591602001919060010190612278565b5061229f9291506122a3565b5090565b5b8082111561229f57600081556001016122a4565b80356001600160a01b03811681146122cf57600080fd5b919050565b6000602082840312156122e657600080fd5b61090e826122b8565b6000806040838503121561230257600080fd5b61230b836122b8565b9150612319602084016122b8565b90509250929050565b60008060006060848603121561233757600080fd5b612340846122b8565b925061234e602085016122b8565b9150604084013590509250925092565b6000806040838503121561237157600080fd5b61237a836122b8565b9150602083013567ffffffffffffffff8082111561239757600080fd5b818501915085601f8301126123ab57600080fd5b8135818111156123bd576123bd612804565b604051601f8201601f19908116603f011681019083821181831017156123e5576123e5612804565b816040528281528860208487010111156123fe57600080fd5b8260208601602083013760006020848301015280955050505050509250929050565b6000806040838503121561243357600080fd5b61243c836122b8565b946020939093013593505050565b60006020828403121561245c57600080fd5b5035919050565b6000806040838503121561247657600080fd5b82359150612319602084016122b8565b60006020828403121561249857600080fd5b81356001600160e01b03198116811461090e57600080fd5b600082516124c2818460208701612744565b9190910192915050565b7f416363657373436f6e74726f6c3a206163636f756e7420000000000000000000815260008351612504816017850160208801612744565b7001034b99036b4b9b9b4b733903937b6329607d1b6017918401918201528351612535816028840160208801612744565b01602801949350505050565b6020815260008251806020840152612560816040850160208701612744565b601f01601f19169190910160400192915050565b6020808252601b908201527f43616c6c6572206973206e6f74207468652045584348414e4745520000000000604082015260600190565b6020808252602c908201527f46756e6374696f6e206d7573742062652063616c6c6564207468726f7567682060408201526b19195b1959d85d1958d85b1b60a21b606082015260800190565b6020808252602c908201527f46756e6374696f6e206d7573742062652063616c6c6564207468726f7567682060408201526b6163746976652070726f787960a01b606082015260800190565b6020808252602e908201527f496e697469616c697a61626c653a20636f6e747261637420697320616c72656160408201526d191e481a5b9a5d1a585b1a5e995960921b606082015260800190565b60208082526023908201527f4572726f72732e4d4154485f4d554c5449504c49434154494f4e5f4f564552466040820152624c4f5760e81b606082015260800190565b600082198211156126e7576126e76127c2565b500190565b60008261270957634e487b7160e01b600052601260045260246000fd5b500490565b6000816000190483118215151615612728576127286127c2565b500290565b60008282101561273f5761273f6127c2565b500390565b60005b8381101561275f578181015183820152602001612747565b838111156116855750506000910152565b60008161277f5761277f6127c2565b506000190190565b600181811c9082168061279b57607f821691505b602082108114156127bc57634e487b7160e01b600052602260045260246000fd5b50919050565b634e487b7160e01b600052601160045260246000fd5b634e487b7160e01b600052603160045260246000fd5b634e487b7160e01b600052603260045260246000fd5b634e487b7160e01b600052604160045260246000fdfe3eb675f159e6ca6cf5de6bfbbc8c4521cfd428f5e9166e51094d5898504caf2d416464726573733a206c6f772d6c6576656c2064656c65676174652063616c6c206661696c6564ddf252ad1be2c89b69c2b068fc378daa952ba7f163c4a11628f55a4df523b3efa26469706673582212203dd181ff879f56e290771ef25d491d315a3835139c4357cb26fd703870d10f0a64736f6c63430008060033",
  "devdoc": {
    "kind": "dev",
    "methods": {
      "allowance(address,address)": {
        "details": "See {IERC20-allowance}."
      },
      "approve(address,uint256)": {
        "details": "See {IERC20-approve}."
      },
      "balanceOf(address)": {
        "details": "Calculates the balance of the user: principal balance + interest generated by the principal",
        "params": {
          "user": "The user whose balance is calculated"
        },
        "returns": {
          "_0": "The balance of the user*"
        }
      },
      "constructor": {
        "custom:oz-upgrades-unsafe-allow": "constructor"
      },
      "decimals()": {
        "details": "Returns the number of decimals used to get its user representation. For example, if `decimals` equals `2`, a balance of `505` tokens should be displayed to a user as `5.05` (`505 / 10 ** 2`). Tokens usually opt for a value of 18, imitating the relationship between Ether and Wei. This is the value {ERC20} uses, unless this function is overridden; NOTE: This information is only used for _display_ purposes: it in no way affects any of the arithmetic of the contract, including {IERC20-balanceOf} and {IERC20-transfer}."
      },
      "decreaseAllowance(address,uint256)": {
        "details": "Atomically decreases the allowance granted to `spender` by the caller. This is an alternative to {approve} that can be used as a mitigation for problems described in {IERC20-approve}. Emits an {Approval} event indicating the updated allowance. Requirements: - `spender` cannot be the zero address. - `spender` must have allowance for the caller of at least `subtractedValue`."
      },
      "getRoleAdmin(bytes32)": {
        "details": "Returns the admin role that controls `role`. See {grantRole} and {revokeRole}. To change a role's admin, use {_setRoleAdmin}."
      },
      "grantRole(bytes32,address)": {
        "details": "Grants `role` to `account`. If `account` had not been already granted `role`, emits a {RoleGranted} event. Requirements: - the caller must have ``role``'s admin role."
      },
      "hasRole(bytes32,address)": {
        "details": "Returns `true` if `account` has been granted `role`."
      },
      "increaseAllowance(address,uint256)": {
        "details": "Atomically increases the allowance granted to `spender` by the caller. This is an alternative to {approve} that can be used as a mitigation for problems described in {IERC20-approve}. Emits an {Approval} event indicating the updated allowance. Requirements: - `spender` cannot be the zero address."
      },
      "name()": {
        "details": "Returns the name of the token."
      },
      "renounceRole(bytes32,address)": {
        "details": "Revokes `role` from the calling account. Roles are often managed via {grantRole} and {revokeRole}: this function's purpose is to provide a mechanism for accounts to lose their privileges if they are compromised (such as when a trusted device is misplaced). If the calling account had been revoked `role`, emits a {RoleRevoked} event. Requirements: - the caller must be `account`."
      },
      "revokeRole(bytes32,address)": {
        "details": "Revokes `role` from `account`. If `account` had been granted `role`, emits a {RoleRevoked} event. Requirements: - the caller must have ``role``'s admin role."
      },
      "scaledBalanceOf(address)": {
        "details": "Returns the scaled balance of the user. The scaled balance is the sum of all the updated stored balance divided by the reserve's liquidity index at the moment of the update",
        "params": {
          "user": "The user whose balance is calculated"
        },
        "returns": {
          "_0": "The scaled balance of the user*"
        }
      },
      "scaledTotalSupply()": {
        "details": "Returns the scaled total supply of the variable debt token",
        "returns": {
          "_0": "the scaled total supply*"
        }
      },
      "supportsInterface(bytes4)": {
        "details": "See {IERC165-supportsInterface}."
      },
      "symbol()": {
        "details": "Returns the symbol of the token, usually a shorter version of the name."
      },
      "totalSupply()": {
        "details": "calculates the total supply of the specific aToken since the balance of every single user increases over time, the total supply does that too.",
        "returns": {
          "_0": "the current total supply*"
        }
      },
      "transfer(address,uint256)": {
        "details": "See {IERC20-transfer}."
      },
      "transferFrom(address,address,uint256)": {
        "details": "Moves `amount` tokens from `sender` to `recipient` using the allowance mechanism. `amount` is then deducted from the caller's allowance. Returns a boolean value indicating whether the operation succeeded. Emits a {Transfer} event."
      },
      "upgradeTo(address)": {
        "details": "Upgrade the implementation of the proxy to `newImplementation`. Calls {_authorizeUpgrade}. Emits an {Upgraded} event."
      },
      "upgradeToAndCall(address,bytes)": {
        "details": "Upgrade the mplementation of the proxy to `newImplementation`, and subsequently execute the function call encoded in `data`. Calls {_authorizeUpgrade}. Emits an {Upgraded} event."
      }
    },
    "version": 1
  },
  "userdoc": {
    "kind": "user",
    "methods": {},
    "version": 1
  },
  "storageLayout": {
    "storage": [
      {
        "astId": 823,
        "contract": "contracts/UsdPlusToken.sol:UsdPlusToken",
        "label": "_initialized",
        "offset": 0,
        "slot": "0",
        "type": "t_bool"
      },
      {
        "astId": 826,
        "contract": "contracts/UsdPlusToken.sol:UsdPlusToken",
        "label": "_initializing",
        "offset": 1,
        "slot": "0",
        "type": "t_bool"
      },
      {
        "astId": 1365,
        "contract": "contracts/UsdPlusToken.sol:UsdPlusToken",
        "label": "__gap",
        "offset": 0,
        "slot": "1",
        "type": "t_array(t_uint256)50_storage"
      },
      {
        "astId": 1674,
        "contract": "contracts/UsdPlusToken.sol:UsdPlusToken",
        "label": "__gap",
        "offset": 0,
        "slot": "51",
        "type": "t_array(t_uint256)50_storage"
      },
      {
        "astId": 48,
        "contract": "contracts/UsdPlusToken.sol:UsdPlusToken",
        "label": "_roles",
        "offset": 0,
        "slot": "101",
        "type": "t_mapping(t_bytes32,t_struct(RoleData)43_storage)"
      },
      {
        "astId": 335,
        "contract": "contracts/UsdPlusToken.sol:UsdPlusToken",
        "label": "__gap",
        "offset": 0,
        "slot": "102",
        "type": "t_array(t_uint256)49_storage"
      },
      {
        "astId": 806,
        "contract": "contracts/UsdPlusToken.sol:UsdPlusToken",
        "label": "__gap",
        "offset": 0,
        "slot": "151",
        "type": "t_array(t_uint256)50_storage"
      },
      {
        "astId": 973,
        "contract": "contracts/UsdPlusToken.sol:UsdPlusToken",
        "label": "__gap",
        "offset": 0,
        "slot": "201",
        "type": "t_array(t_uint256)50_storage"
      },
      {
        "astId": 12505,
        "contract": "contracts/UsdPlusToken.sol:UsdPlusToken",
        "label": "_balances",
        "offset": 0,
        "slot": "251",
        "type": "t_mapping(t_address,t_uint256)"
      },
      {
        "astId": 12511,
        "contract": "contracts/UsdPlusToken.sol:UsdPlusToken",
        "label": "_allowances",
        "offset": 0,
        "slot": "252",
        "type": "t_mapping(t_address,t_mapping(t_address,t_uint256))"
      },
      {
        "astId": 12513,
        "contract": "contracts/UsdPlusToken.sol:UsdPlusToken",
        "label": "_totalSupply",
        "offset": 0,
        "slot": "253",
        "type": "t_uint256"
      },
      {
        "astId": 12515,
        "contract": "contracts/UsdPlusToken.sol:UsdPlusToken",
        "label": "_name",
        "offset": 0,
        "slot": "254",
        "type": "t_string_storage"
      },
      {
        "astId": 12517,
        "contract": "contracts/UsdPlusToken.sol:UsdPlusToken",
        "label": "_symbol",
        "offset": 0,
        "slot": "255",
        "type": "t_string_storage"
      },
      {
        "astId": 12529,
        "contract": "contracts/UsdPlusToken.sol:UsdPlusToken",
        "label": "_totalMint",
        "offset": 0,
        "slot": "256",
        "type": "t_uint256"
      },
      {
        "astId": 12531,
        "contract": "contracts/UsdPlusToken.sol:UsdPlusToken",
        "label": "_totalBurn",
        "offset": 0,
        "slot": "257",
        "type": "t_uint256"
      },
      {
        "astId": 12533,
        "contract": "contracts/UsdPlusToken.sol:UsdPlusToken",
        "label": "liquidityIndexChangeTime",
        "offset": 0,
        "slot": "258",
        "type": "t_uint256"
      },
      {
        "astId": 12535,
        "contract": "contracts/UsdPlusToken.sol:UsdPlusToken",
        "label": "liquidityIndex",
        "offset": 0,
        "slot": "259",
        "type": "t_uint256"
      },
      {
        "astId": 12537,
        "contract": "contracts/UsdPlusToken.sol:UsdPlusToken",
        "label": "liquidityIndexDenominator",
        "offset": 0,
        "slot": "260",
        "type": "t_uint256"
      },
      {
        "astId": 12540,
        "contract": "contracts/UsdPlusToken.sol:UsdPlusToken",
        "label": "_owners",
        "offset": 0,
        "slot": "261",
        "type": "t_struct(AddressSet)9414_storage"
      },
      {
        "astId": 13510,
        "contract": "contracts/UsdPlusToken.sol:UsdPlusToken",
        "label": "__gap",
        "offset": 0,
        "slot": "263",
        "type": "t_array(t_uint256)50_storage"
      }
    ],
    "types": {
      "t_address": {
        "encoding": "inplace",
        "label": "address",
        "numberOfBytes": "20"
      },
      "t_array(t_bytes32)dyn_storage": {
        "base": "t_bytes32",
        "encoding": "dynamic_array",
        "label": "bytes32[]",
        "numberOfBytes": "32"
      },
      "t_array(t_uint256)49_storage": {
        "base": "t_uint256",
        "encoding": "inplace",
        "label": "uint256[49]",
        "numberOfBytes": "1568"
      },
      "t_array(t_uint256)50_storage": {
        "base": "t_uint256",
        "encoding": "inplace",
        "label": "uint256[50]",
        "numberOfBytes": "1600"
      },
      "t_bool": {
        "encoding": "inplace",
        "label": "bool",
        "numberOfBytes": "1"
      },
      "t_bytes32": {
        "encoding": "inplace",
        "label": "bytes32",
        "numberOfBytes": "32"
      },
      "t_mapping(t_address,t_bool)": {
        "encoding": "mapping",
        "key": "t_address",
        "label": "mapping(address => bool)",
        "numberOfBytes": "32",
        "value": "t_bool"
      },
      "t_mapping(t_address,t_mapping(t_address,t_uint256))": {
        "encoding": "mapping",
        "key": "t_address",
        "label": "mapping(address => mapping(address => uint256))",
        "numberOfBytes": "32",
        "value": "t_mapping(t_address,t_uint256)"
      },
      "t_mapping(t_address,t_uint256)": {
        "encoding": "mapping",
        "key": "t_address",
        "label": "mapping(address => uint256)",
        "numberOfBytes": "32",
        "value": "t_uint256"
      },
      "t_mapping(t_bytes32,t_struct(RoleData)43_storage)": {
        "encoding": "mapping",
        "key": "t_bytes32",
        "label": "mapping(bytes32 => struct AccessControlUpgradeable.RoleData)",
        "numberOfBytes": "32",
        "value": "t_struct(RoleData)43_storage"
      },
      "t_mapping(t_bytes32,t_uint256)": {
        "encoding": "mapping",
        "key": "t_bytes32",
        "label": "mapping(bytes32 => uint256)",
        "numberOfBytes": "32",
        "value": "t_uint256"
      },
      "t_string_storage": {
        "encoding": "bytes",
        "label": "string",
        "numberOfBytes": "32"
      },
      "t_struct(AddressSet)9414_storage": {
        "encoding": "inplace",
        "label": "struct EnumerableSet.AddressSet",
        "members": [
          {
            "astId": 9413,
            "contract": "contracts/UsdPlusToken.sol:UsdPlusToken",
            "label": "_inner",
            "offset": 0,
            "slot": "0",
            "type": "t_struct(Set)9113_storage"
          }
        ],
        "numberOfBytes": "64"
      },
      "t_struct(RoleData)43_storage": {
        "encoding": "inplace",
        "label": "struct AccessControlUpgradeable.RoleData",
        "members": [
          {
            "astId": 40,
            "contract": "contracts/UsdPlusToken.sol:UsdPlusToken",
            "label": "members",
            "offset": 0,
            "slot": "0",
            "type": "t_mapping(t_address,t_bool)"
          },
          {
            "astId": 42,
            "contract": "contracts/UsdPlusToken.sol:UsdPlusToken",
            "label": "adminRole",
            "offset": 0,
            "slot": "1",
            "type": "t_bytes32"
          }
        ],
        "numberOfBytes": "64"
      },
      "t_struct(Set)9113_storage": {
        "encoding": "inplace",
        "label": "struct EnumerableSet.Set",
        "members": [
          {
            "astId": 9108,
            "contract": "contracts/UsdPlusToken.sol:UsdPlusToken",
            "label": "_values",
            "offset": 0,
            "slot": "0",
            "type": "t_array(t_bytes32)dyn_storage"
          },
          {
            "astId": 9112,
            "contract": "contracts/UsdPlusToken.sol:UsdPlusToken",
            "label": "_indexes",
            "offset": 0,
            "slot": "1",
            "type": "t_mapping(t_bytes32,t_uint256)"
          }
        ],
        "numberOfBytes": "64"
      },
      "t_uint256": {
        "encoding": "inplace",
        "label": "uint256",
        "numberOfBytes": "32"
      }
    }
  }
}