{
  "address": "0xC5845E9BA89A000808150E5882670Fe0D972C974",
  "abi": [
    {
      "inputs": [
        {
          "internalType": "address",
          "name": "_usdcToken",
          "type": "address"
        },
        {
          "internalType": "address",
          "name": "_mUsdToken",
          "type": "address"
        },
        {
          "internalType": "address",
          "name": "_imUsdToken",
          "type": "address"
        }
      ],
      "stateMutability": "nonpayable",
      "type": "constructor"
    },
    {
      "anonymous": false,
      "inputs": [
        {
          "indexed": true,
          "internalType": "address",
          "name": "previousOwner",
          "type": "address"
        },
        {
          "indexed": true,
          "internalType": "address",
          "name": "newOwner",
          "type": "address"
        }
      ],
      "name": "OwnershipTransferred",
      "type": "event"
    },
    {
      "inputs": [],
      "name": "DENOMINATOR",
      "outputs": [
        {
          "internalType": "uint256",
          "name": "",
          "type": "uint256"
        }
      ],
      "stateMutability": "view",
      "type": "function"
    },
    {
      "inputs": [],
      "name": "denominator",
      "outputs": [
        {
          "internalType": "uint256",
          "name": "",
          "type": "uint256"
        }
      ],
      "stateMutability": "view",
      "type": "function"
    },
    {
      "inputs": [],
      "name": "getUsdcBuyPrice",
      "outputs": [
        {
          "internalType": "uint256",
          "name": "",
          "type": "uint256"
        }
      ],
      "stateMutability": "view",
      "type": "function"
    },
    {
      "inputs": [],
      "name": "getUsdcSellPrice",
      "outputs": [
        {
          "internalType": "uint256",
          "name": "",
          "type": "uint256"
        }
      ],
      "stateMutability": "view",
      "type": "function"
    },
    {
      "inputs": [],
      "name": "imUsdToken",
      "outputs": [
        {
          "internalType": "contract ISavingsContractV2",
          "name": "",
          "type": "address"
        }
      ],
      "stateMutability": "view",
      "type": "function"
    },
    {
      "inputs": [],
      "name": "mUsdToken",
      "outputs": [
        {
          "internalType": "contract IMasset",
          "name": "",
          "type": "address"
        }
      ],
      "stateMutability": "view",
      "type": "function"
    },
    {
      "inputs": [],
      "name": "owner",
      "outputs": [
        {
          "internalType": "address",
          "name": "",
          "type": "address"
        }
      ],
      "stateMutability": "view",
      "type": "function"
    },
    {
      "inputs": [],
      "name": "renounceOwnership",
      "outputs": [],
      "stateMutability": "nonpayable",
      "type": "function"
    },
    {
      "inputs": [
        {
          "internalType": "address",
          "name": "newOwner",
          "type": "address"
        }
      ],
      "name": "transferOwnership",
      "outputs": [],
      "stateMutability": "nonpayable",
      "type": "function"
    },
    {
      "inputs": [],
      "name": "usdcToken",
      "outputs": [
        {
          "internalType": "address",
          "name": "",
          "type": "address"
        }
      ],
      "stateMutability": "view",
      "type": "function"
    }
  ],
  "transactionHash": "0x6fc03ff786826858f6c5700b8f8a22b39e76513902e5c999270f633b28cb2e8b",
  "args": [
    "0x2791bca1f2de4661ed88a30c99a7a9449aa84174",
    "0xE840B73E5287865EEc17d250bFb1536704B43B21",
    "0x5290Ad3d83476CA6A2b178Cd9727eE1EF72432af"
  ],
  "solcInputHash": "fe95cbbb2d97e4d95ece85093db98e18",
  "bytecode": "0x608060405234801561001057600080fd5b5060405161082638038061082683398101604081905261002f916101b7565b6100383361014b565b6001600160a01b0383166100815760405162461bcd60e51b8152602060048201526018602482015260008051602061080683398151915260448201526064015b60405180910390fd5b6001600160a01b0382166100c55760405162461bcd60e51b815260206004820152601860248201526000805160206108068339815191526044820152606401610078565b6001600160a01b0381166101095760405162461bcd60e51b815260206004820152601860248201526000805160206108068339815191526044820152606401610078565b600180546001600160a01b039485166001600160a01b0319918216179091556002805493851693821693909317909255600380549190931691161790556101fa565b600080546001600160a01b038381166001600160a01b0319831681178455604051919092169283917f8be0079c531659141344cd1fd0a4f28419497f9722a3daafe3b4186f6b6457e09190a35050565b80516001600160a01b03811681146101b257600080fd5b919050565b6000806000606084860312156101cc57600080fd5b6101d58461019b565b92506101e36020850161019b565b91506101f16040850161019b565b90509250925092565b6105fd806102096000396000f3fe608060405234801561001057600080fd5b506004361061009e5760003560e01c8063918f867411610066578063918f86741461011757806396ce079514610126578063c0cbad4514610134578063ea24978414610147578063f2fde38b1461014f57600080fd5b806305bee8ac146100a357806311eac855146100d35780632b8455f1146100e6578063715018a6146100fc5780638da5cb5b14610106575b600080fd5b6002546100b6906001600160a01b031681565b6040516001600160a01b0390911681526020015b60405180910390f35b6001546100b6906001600160a01b031681565b6100ee610162565b6040519081526020016100ca565b610104610287565b005b6000546001600160a01b03166100b6565b6100ee670de0b6b3a764000081565b670de0b6b3a76400006100ee565b6003546100b6906001600160a01b031681565b6100ee6102f2565b61010461015d36600461052f565b610414565b600354604051633bc0d82d60e11b8152670de0b6b3a7640000600482015260009182916001600160a01b0390911690637781b05a9060240160206040518083038186803b1580156101b257600080fd5b505afa1580156101c6573d6000803e3d6000fd5b505050506040513d601f19601f820116820180604052508101906101ea919061055f565b600254600154604051633c554c3f60e11b81526001600160a01b0391821660048201526024810184905292935016906378aa987e9060440160206040518083038186803b15801561023a57600080fd5b505afa15801561024e573d6000803e3d6000fd5b505050506040513d601f19601f82011682018060405250810190610272919061055f565b6102819064e8d4a5100061059a565b91505090565b6000546001600160a01b031633146102e65760405162461bcd60e51b815260206004820181905260248201527f4f776e61626c653a2063616c6c6572206973206e6f7420746865206f776e657260448201526064015b60405180910390fd5b6102f060006104df565b565b60025460015460405163119849cf60e01b81526001600160a01b039182166004820152620f424060248201526000928392169063119849cf9060440160206040518083038186803b15801561034657600080fd5b505afa15801561035a573d6000803e3d6000fd5b505050506040513d601f19601f8201168201806040525081019061037e919061055f565b60035460405163087c71b560e31b8152600481018390529192506001600160a01b0316906343e38da89060240160206040518083038186803b1580156103c357600080fd5b505afa1580156103d7573d6000803e3d6000fd5b505050506040513d601f19601f820116820180604052508101906103fb919061055f565b610281906ec097ce7bc90715b34b9f1000000000610578565b6000546001600160a01b0316331461046e5760405162461bcd60e51b815260206004820181905260248201527f4f776e61626c653a2063616c6c6572206973206e6f7420746865206f776e657260448201526064016102dd565b6001600160a01b0381166104d35760405162461bcd60e51b815260206004820152602660248201527f4f776e61626c653a206e6577206f776e657220697320746865207a65726f206160448201526564647265737360d01b60648201526084016102dd565b6104dc816104df565b50565b600080546001600160a01b038381166001600160a01b0319831681178455604051919092169283917f8be0079c531659141344cd1fd0a4f28419497f9722a3daafe3b4186f6b6457e09190a35050565b60006020828403121561054157600080fd5b81356001600160a01b038116811461055857600080fd5b9392505050565b60006020828403121561057157600080fd5b5051919050565b60008261059557634e487b7160e01b600052601260045260246000fd5b500490565b60008160001904831182151516156105c257634e487b7160e01b600052601160045260246000fd5b50029056fea264697066735822122097279a070522c0596df064aec56b86eb09e27c0047c54d33d3f97d90a8a086ed64736f6c634300080600335a65726f2061646472657373206e6f7420616c6c6f7765640000000000000000",
  "devdoc": {
    "kind": "dev",
    "methods": {
      "owner()": {
        "details": "Returns the address of the current owner."
      },
      "renounceOwnership()": {
        "details": "Leaves the contract without owner. It will not be possible to call `onlyOwner` functions anymore. Can only be called by the current owner. NOTE: Renouncing ownership will leave the contract without an owner, thereby removing any functionality that is only available to the owner."
      },
      "transferOwnership(address)": {
        "details": "Transfers ownership of the contract to a new account (`newOwner`). Can only be called by the current owner."
      }
    },
    "version": 1
  },
  "userdoc": {
    "kind": "user",
    "methods": {
      "denominator()": {
        "notice": "Denominator for normalization. Default 10**18."
      },
      "getUsdcBuyPrice()": {
        "notice": "Token buy price at USDC. Amount of USDC we should spend to buy one token. Returned value is [USDC/token] Usage: tokenAmount = usdcAmount * denominator() / getUsdcBuyPrice() Normilized to 10**18"
      },
      "getUsdcSellPrice()": {
        "notice": "Token sell price at USDC. Amount of USDC we got if sell one token. Returned value is [USDC/token] Usage: usdcAmount = tokenAmount * getUsdcSellPrice() / denominator() Normilized to 10**18"
      }
    },
    "version": 1
  },
  "storageLayout": {
    "storage": [
      {
        "astId": 4749,
        "contract": "contracts/price_getters/VimUsdPriceGetter.sol:VimUsdPriceGetter",
        "label": "_owner",
        "offset": 0,
        "slot": "0",
        "type": "t_address"
      },
      {
        "astId": 25130,
        "contract": "contracts/price_getters/VimUsdPriceGetter.sol:VimUsdPriceGetter",
        "label": "usdcToken",
        "offset": 0,
        "slot": "1",
        "type": "t_address"
      },
      {
        "astId": 25133,
        "contract": "contracts/price_getters/VimUsdPriceGetter.sol:VimUsdPriceGetter",
        "label": "mUsdToken",
        "offset": 0,
        "slot": "2",
        "type": "t_contract(IMasset)22665"
      },
      {
        "astId": 25136,
        "contract": "contracts/price_getters/VimUsdPriceGetter.sol:VimUsdPriceGetter",
        "label": "imUsdToken",
        "offset": 0,
        "slot": "3",
        "type": "t_contract(ISavingsContractV2)22786"
      }
    ],
    "types": {
      "t_address": {
        "encoding": "inplace",
        "label": "address",
        "numberOfBytes": "20"
      },
      "t_contract(IMasset)22665": {
        "encoding": "inplace",
        "label": "contract IMasset",
        "numberOfBytes": "20"
      },
      "t_contract(ISavingsContractV2)22786": {
        "encoding": "inplace",
        "label": "contract ISavingsContractV2",
        "numberOfBytes": "20"
      }
    }
  }
}