{
  "address": "0x496CacCa6D12fC9EcA2baaCBb29785FAc62F854c",
  "abi": [
    {
      "inputs": [
        {
          "internalType": "address",
          "name": "_curveGauge",
          "type": "address"
        }
      ],
      "stateMutability": "nonpayable",
      "type": "constructor"
    },
    {
      "inputs": [],
      "name": "a3CrvGaugeToken",
      "outputs": [
        {
          "internalType": "contract IERC20",
          "name": "",
          "type": "address"
        }
      ],
      "stateMutability": "view",
      "type": "function"
    },
    {
      "inputs": [],
      "name": "a3CrvToken",
      "outputs": [
        {
          "internalType": "contract IERC20",
          "name": "",
          "type": "address"
        }
      ],
      "stateMutability": "view",
      "type": "function"
    },
    {
      "inputs": [
        {
          "internalType": "address",
          "name": "spender",
          "type": "address"
        },
        {
          "internalType": "contract IERC20",
          "name": "from",
          "type": "address"
        },
        {
          "internalType": "address",
          "name": "receiver",
          "type": "address"
        },
        {
          "internalType": "contract IERC20",
          "name": "to",
          "type": "address"
        },
        {
          "internalType": "uint256",
          "name": "amount",
          "type": "uint256"
        }
      ],
      "name": "exchange",
      "outputs": [],
      "stateMutability": "nonpayable",
      "type": "function"
    },
    {
      "inputs": [],
      "name": "rewardGauge",
      "outputs": [
        {
          "internalType": "contract IRewardOnlyGauge",
          "name": "",
          "type": "address"
        }
      ],
      "stateMutability": "view",
      "type": "function"
    }
  ],
  "transactionHash": "0x686bc82b4eb5568605405404f88eb5ac8b17eebfea08fbebbc76aba895ad7f75",
  "args": [
    "0x19793B454D3AfC7b454F206Ffe95aDE26cA6912c"
  ],
  "solcInputHash": "4b2c02ad00a20f5dc92f2cdd9d4eb77f",
  "bytecode": "0x608060405234801561001057600080fd5b50604051610e82380380610e8283398101604081905261002f9161014c565b6001600160a01b0381166100895760405162461bcd60e51b815260206004820152601860248201527f5a65726f2061646472657373206e6f7420616c6c6f7765640000000000000000604482015260640160405180910390fd5b600080546001600160a01b0319166001600160a01b038316908117825560408051634163183360e11b8152905191926382c63066926004808401936020939083900390910190829087803b1580156100e057600080fd5b505af11580156100f4573d6000803e3d6000fd5b505050506040513d601f19601f82011682018060405250810190610118919061014c565b600180546001600160a01b039283166001600160a01b0319918216179091556002805493909216921691909117905561017c565b60006020828403121561015e57600080fd5b81516001600160a01b038116811461017557600080fd5b9392505050565b610cf78061018b6000396000f3fe608060405234801561001057600080fd5b506004361061004c5760003560e01c80632d8647521461005157806334c0d4421461008057806362ac75381461009357806386d551c7146100a8575b600080fd5b600154610064906001600160a01b031681565b6040516001600160a01b03909116815260200160405180910390f35b600054610064906001600160a01b031681565b6100a66100a1366004610a95565b6100bb565b005b600254610064906001600160a01b031681565b6001546001600160a01b0385811691161480156100e557506002546001600160a01b038381169116145b8061011557506002546001600160a01b03858116911614801561011557506001546001600160a01b038381169116145b61018c5760405162461bcd60e51b815260206004820152603860248201527f41334372763241334372764761756765546f6b656e45786368616e67653a205360448201527f6f6d6520746f6b656e206e6f7420636f6d70617469626c65000000000000000060648201526084015b60405180910390fd5b80610296576040516370a0823160e01b81523060048201526001600160a01b0385169063a9059cbb90879083906370a082319060240160206040518083038186803b1580156101da57600080fd5b505afa1580156101ee573d6000803e3d6000fd5b505050506040513d601f19601f820116820180604052508101906102129190610b22565b6040516001600160e01b031960e085901b1681526001600160a01b0390921660048301526024820152604401602060405180830381600087803b15801561025857600080fd5b505af115801561026c573d6000803e3d6000fd5b505050506040513d601f19601f820116820180604052508101906102909190610af9565b50610a8e565b6001546001600160a01b0385811691161480156102c057506002546001600160a01b038381169116145b15610658576001546040805163313ce56760e01b815290516000926001600160a01b03169163313ce567916004808301926020929190829003018186803b15801561030a57600080fd5b505afa15801561031e573d6000803e3d6000fd5b505050506040513d601f19601f820116820180604052508101906103429190610b3b565b61034d906012610c70565b61035890600a610bc3565b90506103648183610b5e565b6001546040516370a0823160e01b815230600482015291935083916001600160a01b03909116906370a082319060240160206040518083038186803b1580156103ac57600080fd5b505afa1580156103c0573d6000803e3d6000fd5b505050506040513d601f19601f820116820180604052508101906103e49190610b22565b101561044f5760405162461bcd60e51b815260206004820152603460248201527f41334372763241334372764761756765546f6b656e45786368616e67653a204e60448201527337ba1032b737bab3b4103099a1b93b2a37b5b2b760611b6064820152608401610183565b8161055b576040516370a0823160e01b81523060048201526001600160a01b0386169063a9059cbb90889083906370a08231906024015b60206040518083038186803b15801561049e57600080fd5b505afa1580156104b2573d6000803e3d6000fd5b505050506040513d601f19601f820116820180604052508101906104d69190610b22565b6040516001600160e01b031960e085901b1681526001600160a01b0390921660048301526024820152604401602060405180830381600087803b15801561051c57600080fd5b505af1158015610530573d6000803e3d6000fd5b505050506040513d601f19601f820116820180604052508101906105549190610af9565b5050610a8e565b60015460005460405163095ea7b360e01b81526001600160a01b0391821660048201526024810185905291169063095ea7b390604401602060405180830381600087803b1580156105ab57600080fd5b505af11580156105bf573d6000803e3d6000fd5b505050506040513d601f19601f820116820180604052508101906105e39190610af9565b50600080546040516383df674760e01b8152600481018590526001600160a01b03878116602483015260448201939093529116906383df674790606401600060405180830381600087803b15801561063a57600080fd5b505af115801561064e573d6000803e3d6000fd5b5050505050610a8e565b6002546040805163313ce56760e01b815290516000926001600160a01b03169163313ce567916004808301926020929190829003018186803b15801561069d57600080fd5b505afa1580156106b1573d6000803e3d6000fd5b505050506040513d601f19601f820116820180604052508101906106d59190610b3b565b6106e0906012610c70565b6106eb90600a610bc3565b90506106f78183610b5e565b6002546040516370a0823160e01b815230600482015291935083916001600160a01b03909116906370a082319060240160206040518083038186803b15801561073f57600080fd5b505afa158015610753573d6000803e3d6000fd5b505050506040513d601f19601f820116820180604052508101906107779190610b22565b10156107eb5760405162461bcd60e51b815260206004820152603960248201527f41334372763241334372764761756765546f6b656e45786368616e67653a204e60448201527f6f7420656e6f7567682061334372764761756765546f6b656e000000000000006064820152608401610183565b81610826576040516370a0823160e01b81523060048201526001600160a01b0386169063a9059cbb90889083906370a0823190602401610486565b60008054604051631c683a1b60e11b81526004810185905260248101929092526001600160a01b0316906338d0743690604401600060405180830381600087803b15801561087357600080fd5b505af1158015610887573d6000803e3d6000fd5b50506001546040516370a0823160e01b81523060048201528593506001600160a01b0390911691506370a082319060240160206040518083038186803b1580156108d057600080fd5b505afa1580156108e4573d6000803e3d6000fd5b505050506040513d601f19601f820116820180604052508101906109089190610b22565b10156109885760405162461bcd60e51b815260206004820152604360248201527f41334372763241334372764761756765546f6b656e45786368616e67653a204e60448201527f6f7420656e6f756768206133437276546f6b656e20616674657220776974686460648201526272617760e81b608482015260a401610183565b6001546040516370a0823160e01b81523060048201526001600160a01b039091169063a9059cbb90869083906370a082319060240160206040518083038186803b1580156109d557600080fd5b505afa1580156109e9573d6000803e3d6000fd5b505050506040513d601f19601f82011682018060405250810190610a0d9190610b22565b6040516001600160e01b031960e085901b1681526001600160a01b0390921660048301526024820152604401602060405180830381600087803b158015610a5357600080fd5b505af1158015610a67573d6000803e3d6000fd5b505050506040513d601f19601f82011682018060405250810190610a8b9190610af9565b50505b5050505050565b600080600080600060a08688031215610aad57600080fd5b8535610ab881610ca9565b94506020860135610ac881610ca9565b93506040860135610ad881610ca9565b92506060860135610ae881610ca9565b949793965091946080013592915050565b600060208284031215610b0b57600080fd5b81518015158114610b1b57600080fd5b9392505050565b600060208284031215610b3457600080fd5b5051919050565b600060208284031215610b4d57600080fd5b815160ff81168114610b1b57600080fd5b600082610b7b57634e487b7160e01b600052601260045260246000fd5b500490565b600181815b80851115610bbb578160001904821115610ba157610ba1610c93565b80851615610bae57918102915b93841c9390800290610b85565b509250929050565b6000610b1b60ff841683600082610bdc57506001610c6a565b81610be957506000610c6a565b8160018114610bff5760028114610c0957610c25565b6001915050610c6a565b60ff841115610c1a57610c1a610c93565b50506001821b610c6a565b5060208310610133831016604e8410600b8410161715610c48575081810a610c6a565b610c528383610b80565b8060001904821115610c6657610c66610c93565b0290505b92915050565b600060ff821660ff841680821015610c8a57610c8a610c93565b90039392505050565b634e487b7160e01b600052601160045260246000fd5b6001600160a01b0381168114610cbe57600080fd5b5056fea26469706673582212201033440c3121766758657f19407740c1da33fd51d54b9e16eef389a3f55bd3a064736f6c63430008060033",
  "devdoc": {
    "kind": "dev",
    "methods": {},
    "version": 1
  },
  "userdoc": {
    "kind": "user",
    "methods": {},
    "version": 1
  },
  "storageLayout": {
    "storage": [
      {
        "astId": 11285,
        "contract": "contracts/token_exchanges/A3Crv2A3CrvGaugeTokenExchange.sol:A3Crv2A3CrvGaugeTokenExchange",
        "label": "rewardGauge",
        "offset": 0,
        "slot": "0",
        "type": "t_contract(IRewardOnlyGauge)9196"
      },
      {
        "astId": 11288,
        "contract": "contracts/token_exchanges/A3Crv2A3CrvGaugeTokenExchange.sol:A3Crv2A3CrvGaugeTokenExchange",
        "label": "a3CrvToken",
        "offset": 0,
        "slot": "1",
        "type": "t_contract(IERC20)1095"
      },
      {
        "astId": 11291,
        "contract": "contracts/token_exchanges/A3Crv2A3CrvGaugeTokenExchange.sol:A3Crv2A3CrvGaugeTokenExchange",
        "label": "a3CrvGaugeToken",
        "offset": 0,
        "slot": "2",
        "type": "t_contract(IERC20)1095"
      }
    ],
    "types": {
      "t_contract(IERC20)1095": {
        "encoding": "inplace",
        "label": "contract IERC20",
        "numberOfBytes": "20"
      },
      "t_contract(IRewardOnlyGauge)9196": {
        "encoding": "inplace",
        "label": "contract IRewardOnlyGauge",
        "numberOfBytes": "20"
      }
    }
  }
}