{
  "address": "0x5Fb8ab30E3cC24b976c005e0C4B5eAf88A537276",
  "abi": [
    {
      "inputs": [
        {
          "internalType": "address",
          "name": "_tokenExchange",
          "type": "address"
        },
        {
          "internalType": "address",
          "name": "_aUsdcToken",
          "type": "address"
        },
        {
          "internalType": "address",
          "name": "_a3CrvToken",
          "type": "address"
        },
        {
          "internalType": "address",
          "name": "_usdc2AUsdcActionBuilder",
          "type": "address"
        }
      ],
      "stateMutability": "nonpayable",
      "type": "constructor"
    },
    {
      "inputs": [],
      "name": "a3CrvToken",
      "outputs": [
        {
          "internalType": "contract IERC20",
          "name": "",
          "type": "address"
        }
      ],
      "stateMutability": "view",
      "type": "function"
    },
    {
      "inputs": [],
      "name": "aUsdcToken",
      "outputs": [
        {
          "internalType": "contract IERC20",
          "name": "",
          "type": "address"
        }
      ],
      "stateMutability": "view",
      "type": "function"
    },
    {
      "inputs": [
        {
          "components": [
            {
              "internalType": "address",
              "name": "asset",
              "type": "address"
            },
            {
              "internalType": "int256",
              "name": "diffToTarget",
              "type": "int256"
            },
            {
              "internalType": "bool",
              "name": "targetIsZero",
              "type": "bool"
            }
          ],
          "internalType": "struct IMark2Market.BalanceAssetPrices[]",
          "name": "assetPrices",
          "type": "tuple[]"
        },
        {
          "components": [
            {
              "internalType": "contract ITokenExchange",
              "name": "tokenExchange",
              "type": "address"
            },
            {
              "internalType": "bytes32",
              "name": "code",
              "type": "bytes32"
            },
            {
              "internalType": "contract IERC20",
              "name": "from",
              "type": "address"
            },
            {
              "internalType": "contract IERC20",
              "name": "to",
              "type": "address"
            },
            {
              "internalType": "uint256",
              "name": "amount",
              "type": "uint256"
            },
            {
              "internalType": "bool",
              "name": "exchangeAll",
              "type": "bool"
            },
            {
              "internalType": "bool",
              "name": "executed",
              "type": "bool"
            }
          ],
          "internalType": "struct IActionBuilder.ExchangeAction[]",
          "name": "actions",
          "type": "tuple[]"
        }
      ],
      "name": "buildAction",
      "outputs": [
        {
          "components": [
            {
              "internalType": "contract ITokenExchange",
              "name": "tokenExchange",
              "type": "address"
            },
            {
              "internalType": "bytes32",
              "name": "code",
              "type": "bytes32"
            },
            {
              "internalType": "contract IERC20",
              "name": "from",
              "type": "address"
            },
            {
              "internalType": "contract IERC20",
              "name": "to",
              "type": "address"
            },
            {
              "internalType": "uint256",
              "name": "amount",
              "type": "uint256"
            },
            {
              "internalType": "bool",
              "name": "exchangeAll",
              "type": "bool"
            },
            {
              "internalType": "bool",
              "name": "executed",
              "type": "bool"
            }
          ],
          "internalType": "struct IActionBuilder.ExchangeAction",
          "name": "",
          "type": "tuple"
        }
      ],
      "stateMutability": "view",
      "type": "function"
    },
    {
      "inputs": [],
      "name": "getActionCode",
      "outputs": [
        {
          "internalType": "bytes32",
          "name": "",
          "type": "bytes32"
        }
      ],
      "stateMutability": "pure",
      "type": "function"
    },
    {
      "inputs": [],
      "name": "tokenExchange",
      "outputs": [
        {
          "internalType": "contract ITokenExchange",
          "name": "",
          "type": "address"
        }
      ],
      "stateMutability": "view",
      "type": "function"
    },
    {
      "inputs": [],
      "name": "usdc2AUsdcActionBuilder",
      "outputs": [
        {
          "internalType": "contract IActionBuilder",
          "name": "",
          "type": "address"
        }
      ],
      "stateMutability": "view",
      "type": "function"
    }
  ],
  "transactionHash": "0x8f8ff81c23eb5128ab3136945bac114d0a3c10f18f391000a62dc7c09ec1027a",
  "args": [
    "0x68F78b610b4C0742F2b08eD48665b9F0d3d002C4",
    "0x1a13F4Ca1d028320A707D99520AbFefca3998b7F",
    "0xE7a24EF0C5e95Ffb0f6684b813A78F2a3AD7D171",
    "0x3110470B36Ac36aF0fE84ace423ED64d1417e624"
  ],
  "solcInputHash": "a52a09ed2b2706cd99c66d36846223b4",
  "bytecode": "0x608060405234801561001057600080fd5b5060405162000bea38038062000bea833981016040819052610031916101b9565b6001600160a01b03841661007b5760405162461bcd60e51b8152602060048201526018602482015260008051602062000bca83398151915260448201526064015b60405180910390fd5b6001600160a01b0383166100c05760405162461bcd60e51b8152602060048201526018602482015260008051602062000bca8339815191526044820152606401610072565b6001600160a01b0382166101055760405162461bcd60e51b8152602060048201526018602482015260008051602062000bca8339815191526044820152606401610072565b6001600160a01b03811661014a5760405162461bcd60e51b8152602060048201526018602482015260008051602062000bca8339815191526044820152606401610072565b600080546001600160a01b039586166001600160a01b031991821617909155600180549486169482169490941790935560028054928516928416929092179091556003805491909316911617905561020d565b80516001600160a01b03811681146101b457600080fd5b919050565b600080600080608085870312156101cf57600080fd5b6101d88561019d565b93506101e66020860161019d565b92506101f46040860161019d565b91506102026060860161019d565b905092959194509250565b6109ad806200021d6000396000f3fe608060405234801561001057600080fd5b50600436106100625760003560e01c806318ad3088146100675780632d8647521461009a578063636f6159146100c55780637045352f146100d857806383909eeb14610150578063cc3d6cf714610163575b600080fd5b6040517fc1be4323348a37ae69ece55f3e69ca17827a2e81977d80591ce3d28155a4296a81526020015b60405180910390f35b6002546100ad906001600160a01b031681565b6040516001600160a01b039091168152602001610091565b6000546100ad906001600160a01b031681565b6100eb6100e63660046106a8565b610176565b604051610091919081516001600160a01b03908116825260208084015190830152604080840151821690830152606080840151909116908201526080808301519082015260a08281015115159082015260c09182015115159181019190915260e00190565b6003546100ad906001600160a01b031681565b6001546100ad906001600160a01b031681565b6040805160e0810182526000808252602080830182905282840182905260608084018390526080840183905260a0840183905260c0840183905284518082018652838152808301849052808601849052855191820186528382529181018390529384018290529192905b85518160ff1610156102c45760015486516001600160a01b0390911690879060ff841690811061021257610212610933565b6020026020010151600001516001600160a01b0316141561025157858160ff168151811061024257610242610933565b602002602001015192506102b2565b60025486516001600160a01b0390911690879060ff841690811061027757610277610933565b6020026020010151600001516001600160a01b031614156102b257858160ff16815181106102a7576102a7610933565b602002602001015191505b806102bc816108e0565b9150506101e0565b506040805160e081018252600080825260208201819052918101829052606081018290526080810182905260a0810182905260c081019190915260035460408051630315a61160e31b815290516000926001600160a01b0316916318ad3088916004808301926020929190829003018186803b15801561034357600080fd5b505afa158015610357573d6000803e3d6000fd5b505050506040513d601f19601f8201168201806040525081019061037b91906107a6565b90506000805b87518160ff1610156103ef5782888260ff16815181106103a3576103a3610933565b60200260200101516020015114156103dd57878160ff16815181106103ca576103ca610933565b60200260200101519350600191506103ef565b806103e7816108e0565b915050610381565b50806104815760405162461bcd60e51b815260206004820152605160248201527f4155736463324133437276416374696f6e4275696c6465723a2052657175697260448201527f656420616374696f6e206e6f7420696e20616374696f6e206c6973742c20636860648201527065636b2063616c63206f72646572696e6760781b608482015260a40160405180910390fd5b602085015160608401516001546001600160a01b03908116911614156104b75760808401516104b090826108a1565b90506104c9565b60808401516104c69082610860565b90505b6000806000806000851215610506576104e185610900565b60015460025460408d01519296506001600160a01b0391821695501692509050610527565b505060025460015460408901518594506001600160a01b0392831693509116905b6040805160e081018252600080546001600160a01b0390811683527fc1be4323348a37ae69ece55f3e69ca17827a2e81977d80591ce3d28155a4296a602084015295861692820192909252929093166060830152608082019390935291151560a083015260c08201529998505050505050505050565b600082601f8301126105ae57600080fd5b813560206105c36105be8361083c565b61080b565b8281528181019085830160e0808602880185018910156105e257600080fd5b6000805b878110156106795782848c0312156105fc578182fd5b6106046107bf565b843561060f8161095f565b81528488013588820152604061062681870161069d565b90820152606061063786820161069d565b908201526080858101359082015260a0610652818701610688565b9082015260c0610663868201610688565b90820152865294860194928201926001016105e6565b50929998505050505050505050565b8035801515811461069857600080fd5b919050565b80356106988161095f565b60008060408084860312156106bc57600080fd5b833567ffffffffffffffff808211156106d457600080fd5b818601915086601f8301126106e857600080fd5b813560206106f86105be8361083c565b828152818101908583016060808602880185018d101561071757600080fd5b600097505b858810156107755780828e03121561073357600080fd5b61073b6107e8565b82356107468161095f565b8152828601358682015261075b8a8401610688565b818b0152845260019790970196928401929081019061071c565b5090985050508701359350508083111561078e57600080fd5b505061079c8582860161059d565b9150509250929050565b6000602082840312156107b857600080fd5b5051919050565b60405160e0810167ffffffffffffffff811182821017156107e2576107e2610949565b60405290565b6040516060810167ffffffffffffffff811182821017156107e2576107e2610949565b604051601f8201601f1916810167ffffffffffffffff8111828210171561083457610834610949565b604052919050565b600067ffffffffffffffff82111561085657610856610949565b5060051b60200190565b600080821280156001600160ff1b03849003851316156108825761088261091d565b600160ff1b839003841281161561089b5761089b61091d565b50500190565b60008083128015600160ff1b8501841216156108bf576108bf61091d565b6001600160ff1b03840183138116156108da576108da61091d565b50500390565b600060ff821660ff8114156108f7576108f761091d565b60010192915050565b6000600160ff1b8214156109165761091661091d565b5060000390565b634e487b7160e01b600052601160045260246000fd5b634e487b7160e01b600052603260045260246000fd5b634e487b7160e01b600052604160045260246000fd5b6001600160a01b038116811461097457600080fd5b5056fea26469706673582212204519c5f06932b01686bd2514a8e3d3477eb1a8184f496d7b0260620c72c204ee64736f6c634300080600335a65726f2061646472657373206e6f7420616c6c6f7765640000000000000000",
  "devdoc": {
    "kind": "dev",
    "methods": {},
    "version": 1
  },
  "userdoc": {
    "kind": "user",
    "methods": {},
    "version": 1
  },
  "storageLayout": {
    "storage": [
      {
        "astId": 11768,
        "contract": "contracts/action_builders/AUsdc2A3CrvActionBuilder.sol:AUsdc2A3CrvActionBuilder",
        "label": "tokenExchange",
        "offset": 0,
        "slot": "0",
        "type": "t_contract(ITokenExchange)15996"
      },
      {
        "astId": 11771,
        "contract": "contracts/action_builders/AUsdc2A3CrvActionBuilder.sol:AUsdc2A3CrvActionBuilder",
        "label": "aUsdcToken",
        "offset": 0,
        "slot": "1",
        "type": "t_contract(IERC20)4667"
      },
      {
        "astId": 11774,
        "contract": "contracts/action_builders/AUsdc2A3CrvActionBuilder.sol:AUsdc2A3CrvActionBuilder",
        "label": "a3CrvToken",
        "offset": 0,
        "slot": "2",
        "type": "t_contract(IERC20)4667"
      },
      {
        "astId": 11777,
        "contract": "contracts/action_builders/AUsdc2A3CrvActionBuilder.sol:AUsdc2A3CrvActionBuilder",
        "label": "usdc2AUsdcActionBuilder",
        "offset": 0,
        "slot": "3",
        "type": "t_contract(IActionBuilder)15802"
      }
    ],
    "types": {
      "t_contract(IActionBuilder)15802": {
        "encoding": "inplace",
        "label": "contract IActionBuilder",
        "numberOfBytes": "20"
      },
      "t_contract(IERC20)4667": {
        "encoding": "inplace",
        "label": "contract IERC20",
        "numberOfBytes": "20"
      },
      "t_contract(ITokenExchange)15996": {
        "encoding": "inplace",
        "label": "contract ITokenExchange",
        "numberOfBytes": "20"
      }
    }
  }
}