{
  "address": "0x9F75532C6C602f8C3e3d1B47FBBF0f6F8D9241Aa",
  "abi": [
    {
      "inputs": [
        {
          "internalType": "address",
          "name": "_curveConnector",
          "type": "address"
        },
        {
          "internalType": "address",
          "name": "_aUsdcToken",
          "type": "address"
        },
        {
          "internalType": "address",
          "name": "_a3CrvToken",
          "type": "address"
        }
      ],
      "stateMutability": "nonpayable",
      "type": "constructor"
    },
    {
      "inputs": [],
      "name": "a3CrvToken",
      "outputs": [
        {
          "internalType": "contract IERC20",
          "name": "",
          "type": "address"
        }
      ],
      "stateMutability": "view",
      "type": "function"
    },
    {
      "inputs": [],
      "name": "aUsdcToken",
      "outputs": [
        {
          "internalType": "contract IERC20",
          "name": "",
          "type": "address"
        }
      ],
      "stateMutability": "view",
      "type": "function"
    },
    {
      "inputs": [],
      "name": "curveConnector",
      "outputs": [
        {
          "internalType": "contract IConnector",
          "name": "",
          "type": "address"
        }
      ],
      "stateMutability": "view",
      "type": "function"
    },
    {
      "inputs": [
        {
          "internalType": "address",
          "name": "spender",
          "type": "address"
        },
        {
          "internalType": "contract IERC20",
          "name": "from",
          "type": "address"
        },
        {
          "internalType": "address",
          "name": "receiver",
          "type": "address"
        },
        {
          "internalType": "contract IERC20",
          "name": "to",
          "type": "address"
        },
        {
          "internalType": "uint256",
          "name": "amount",
          "type": "uint256"
        }
      ],
      "name": "exchange",
      "outputs": [],
      "stateMutability": "nonpayable",
      "type": "function"
    }
  ],
  "transactionHash": "0xa6675205a66aecef191ce35a9dd58829adb4db716fec10d47aa8ec4a84e28187",
  "args": [
    "0xB7DDd4EB8aF1A9C73C6DDdD3f0eEb5efe43bECd3",
    "0x1a13F4Ca1d028320A707D99520AbFefca3998b7F",
    "0xE7a24EF0C5e95Ffb0f6684b813A78F2a3AD7D171"
  ],
  "solcInputHash": "5940fe62ab9ebf2b846c1724dc847104",
  "bytecode": "0x60806040523480156200001157600080fd5b5060405162000fca38038062000fca833981016040819052620000349162000202565b6001600160a01b0383166200007f5760405162461bcd60e51b8152602060048201526018602482015260008051602062000faa83398151915260448201526064015b60405180910390fd5b6001600160a01b038216620000c65760405162461bcd60e51b8152602060048201526018602482015260008051602062000faa833981519152604482015260640162000076565b6001600160a01b0381166200010d5760405162461bcd60e51b8152602060048201526018602482015260008051602062000faa833981519152604482015260640162000076565b600080546001600160a01b038086166001600160a01b03199283161790925560018054858416908316811790915560028054938516939092169290921790556040805163313ce56760e01b8152905163313ce56791600480820192602092909190829003018186803b1580156200018357600080fd5b505afa15801562000198573d6000803e3d6000fd5b505050506040513d601f19601f82011682018060405250810190620001be91906200024c565b620001cb90601262000382565b620001d890600a620002c1565b60035550620003be915050565b80516001600160a01b0381168114620001fd57600080fd5b919050565b6000806000606084860312156200021857600080fd5b6200022384620001e5565b92506200023360208501620001e5565b91506200024360408501620001e5565b90509250925092565b6000602082840312156200025f57600080fd5b815160ff811681146200027157600080fd5b9392505050565b600181815b80851115620002b95781600019048211156200029d576200029d620003a8565b80851615620002ab57918102915b93841c93908002906200027d565b509250929050565b60006200027160ff841683600082620002dd575060016200037c565b81620002ec575060006200037c565b8160018114620003055760028114620003105762000330565b60019150506200037c565b60ff841115620003245762000324620003a8565b50506001821b6200037c565b5060208310610133831016604e8410600b841016171562000355575081810a6200037c565b62000361838362000278565b8060001904821115620003785762000378620003a8565b0290505b92915050565b600060ff821660ff8416808210156200039f576200039f620003a8565b90039392505050565b634e487b7160e01b600052601160045260246000fd5b610bdc80620003ce6000396000f3fe608060405234801561001057600080fd5b506004361061004c5760003560e01c8063183b8c54146100515780632d8647521461008057806362ac753814610093578063cc3d6cf7146100a8575b600080fd5b600054610064906001600160a01b031681565b6040516001600160a01b03909116815260200160405180910390f35b600254610064906001600160a01b031681565b6100a66100a1366004610a81565b6100bb565b005b600154610064906001600160a01b031681565b6001546001600160a01b0385811691161480156100e557506002546001600160a01b038381169116145b8061011557506002546001600160a01b03858116911614801561011557506001546001600160a01b038381169116145b6101825760405162461bcd60e51b815260206004820152603360248201527f4155736463324133437276546f6b656e45786368616e67653a20536f6d6520746044820152726f6b656e206e6f7420636f6d70617469626c6560681b60648201526084015b60405180910390fd5b80610294576040516370a0823160e01b81523060048201526000906001600160a01b038616906370a082319060240160206040518083038186803b1580156101c957600080fd5b505afa1580156101dd573d6000803e3d6000fd5b505050506040513d601f19601f820116820180604052508101906102019190610b0e565b9050801561028e5760405163a9059cbb60e01b81526001600160a01b0387811660048301526024820183905286169063a9059cbb906044015b602060405180830381600087803b15801561025457600080fd5b505af1158015610268573d6000803e3d6000fd5b505050506040513d601f19601f8201168201806040525081019061028c9190610ae5565b505b50610a7a565b6001546001600160a01b0385811691161480156102be57506002546001600160a01b038381169116145b156106c4576003546102d09082610b3f565b6001546040516370a0823160e01b81523060048201529192506000916001600160a01b03909116906370a082319060240160206040518083038186803b15801561031957600080fd5b505afa15801561032d573d6000803e3d6000fd5b505050506040513d601f19601f820116820180604052508101906103519190610b0e565b90508161039757801561028e5760015460405163a9059cbb60e01b81526001600160a01b038881166004830152602482018490529091169063a9059cbb9060440161023a565b816103a3826001610b27565b14156103b7576103b4600183610b61565b91505b818110156104265760405162461bcd60e51b815260206004820152603660248201527f4155736463324133437276546f6b656e45786368616e67653a204e6f7420656e6044820152756f756768206155736463546f6b656e20746f6b656e7360501b6064820152608401610179565b60015460005460405163a9059cbb60e01b81526001600160a01b0391821660048201526024810185905291169063a9059cbb90604401602060405180830381600087803b15801561047657600080fd5b505af115801561048a573d6000803e3d6000fd5b505050506040513d601f19601f820116820180604052508101906104ae9190610ae5565b50600154600080546040516370a0823160e01b81526001600160a01b039182166004820152919216906370a082319060240160206040518083038186803b1580156104f857600080fd5b505afa15801561050c573d6000803e3d6000fd5b505050506040513d601f19601f820116820180604052508101906105309190610b0e565b90508281101561053e578092505b60005460015460405163294091cd60e01b81526001600160a01b03918216600482015260248101869052878216604482015291169063294091cd90606401600060405180830381600087803b15801561059657600080fd5b505af11580156105aa573d6000803e3d6000fd5b50506001546040516370a0823160e01b8152306004820152600093506001600160a01b0390911691506370a082319060240160206040518083038186803b1580156105f457600080fd5b505afa158015610608573d6000803e3d6000fd5b505050506040513d601f19601f8201168201806040525081019061062c9190610b0e565b905080156106bc5760015460405163a9059cbb60e01b81526001600160a01b038a81166004830152602482018490529091169063a9059cbb90604401602060405180830381600087803b15801561068257600080fd5b505af1158015610696573d6000803e3d6000fd5b505050506040513d601f19601f820116820180604052508101906106ba9190610ae5565b505b505050610a7a565b6000600354826106d49190610b3f565b6002546040516370a0823160e01b81523060048201529192506000916001600160a01b03909116906370a082319060240160206040518083038186803b15801561071d57600080fd5b505afa158015610731573d6000803e3d6000fd5b505050506040513d601f19601f820116820180604052508101906107559190610b0e565b9050828110156107bf5760405162461bcd60e51b815260206004820152602f60248201527f4155736463324133437276546f6b656e45786368616e67653a204e6f7420656e60448201526e37bab3b4103099a1b93b2a37b5b2b760891b6064820152608401610179565b8161084a5760025460405163a9059cbb60e01b81526001600160a01b038981166004830152602482018490529091169063a9059cbb90604401602060405180830381600087803b15801561081257600080fd5b505af1158015610826573d6000803e3d6000fd5b505050506040513d601f19601f820116820180604052508101906106bc9190610ae5565b60025460005460405163a9059cbb60e01b81526001600160a01b0391821660048201526024810186905291169063a9059cbb90604401602060405180830381600087803b15801561089a57600080fd5b505af11580156108ae573d6000803e3d6000fd5b505050506040513d601f19601f820116820180604052508101906108d29190610ae5565b506000805460015460405163493718eb60e11b81526001600160a01b03918216600482015260248101869052888216604482015291169063926e31d690606401602060405180830381600087803b15801561092c57600080fd5b505af1158015610940573d6000803e3d6000fd5b505050506040513d601f19601f820116820180604052508101906109649190610b0e565b6002546040516370a0823160e01b81523060048201529192506000916001600160a01b03909116906370a082319060240160206040518083038186803b1580156109ad57600080fd5b505afa1580156109c1573d6000803e3d6000fd5b505050506040513d601f19601f820116820180604052508101906109e59190610b0e565b90508015610a755760025460405163a9059cbb60e01b81526001600160a01b038b81166004830152602482018490529091169063a9059cbb90604401602060405180830381600087803b158015610a3b57600080fd5b505af1158015610a4f573d6000803e3d6000fd5b505050506040513d601f19601f82011682018060405250810190610a739190610ae5565b505b505050505b5050505050565b600080600080600060a08688031215610a9957600080fd5b8535610aa481610b8e565b94506020860135610ab481610b8e565b93506040860135610ac481610b8e565b92506060860135610ad481610b8e565b949793965091946080013592915050565b600060208284031215610af757600080fd5b81518015158114610b0757600080fd5b9392505050565b600060208284031215610b2057600080fd5b5051919050565b60008219821115610b3a57610b3a610b78565b500190565b600082610b5c57634e487b7160e01b600052601260045260246000fd5b500490565b600082821015610b7357610b73610b78565b500390565b634e487b7160e01b600052601160045260246000fd5b6001600160a01b0381168114610ba357600080fd5b5056fea26469706673582212206793657ed7cce594f69884d04a89ae9d9a126d5015d1ba8e5236c9a2fa09890d64736f6c634300080600335a65726f2061646472657373206e6f7420616c6c6f7765640000000000000000",
  "devdoc": {
    "kind": "dev",
    "methods": {},
    "version": 1
  },
  "userdoc": {
    "kind": "user",
    "methods": {},
    "version": 1
  },
  "storageLayout": {
    "storage": [
      {
        "astId": 11162,
        "contract": "contracts/token_exchanges/AUsdc2A3CrvTokenExchange.sol:AUsdc2A3CrvTokenExchange",
        "label": "curveConnector",
        "offset": 0,
        "slot": "0",
        "type": "t_contract(IConnector)9375"
      },
      {
        "astId": 11165,
        "contract": "contracts/token_exchanges/AUsdc2A3CrvTokenExchange.sol:AUsdc2A3CrvTokenExchange",
        "label": "aUsdcToken",
        "offset": 0,
        "slot": "1",
        "type": "t_contract(IERC20)1172"
      },
      {
        "astId": 11168,
        "contract": "contracts/token_exchanges/AUsdc2A3CrvTokenExchange.sol:AUsdc2A3CrvTokenExchange",
        "label": "a3CrvToken",
        "offset": 0,
        "slot": "2",
        "type": "t_contract(IERC20)1172"
      },
      {
        "astId": 11170,
        "contract": "contracts/token_exchanges/AUsdc2A3CrvTokenExchange.sol:AUsdc2A3CrvTokenExchange",
        "label": "aUsdcDenominator",
        "offset": 0,
        "slot": "3",
        "type": "t_uint256"
      }
    ],
    "types": {
      "t_contract(IConnector)9375": {
        "encoding": "inplace",
        "label": "contract IConnector",
        "numberOfBytes": "20"
      },
      "t_contract(IERC20)1172": {
        "encoding": "inplace",
        "label": "contract IERC20",
        "numberOfBytes": "20"
      },
      "t_uint256": {
        "encoding": "inplace",
        "label": "uint256",
        "numberOfBytes": "32"
      }
    }
  }
}