{
  "address": "0x530b1BaFbd9185717e7dCB8ea21419A98E7e155b",
  "abi": [
    {
      "inputs": [],
      "stateMutability": "nonpayable",
      "type": "constructor"
    },
    {
      "anonymous": false,
      "inputs": [
        {
          "indexed": false,
          "internalType": "uint256",
          "name": "index",
          "type": "uint256"
        }
      ],
      "name": "ActionBuilderRemoved",
      "type": "event"
    },
    {
      "anonymous": false,
      "inputs": [
        {
          "indexed": false,
          "internalType": "address",
          "name": "actionBuilder",
          "type": "address"
        },
        {
          "indexed": false,
          "internalType": "uint256",
          "name": "index",
          "type": "uint256"
        }
      ],
      "name": "ActionBuilderUpdated",
      "type": "event"
    },
    {
      "anonymous": false,
      "inputs": [
        {
          "indexed": false,
          "internalType": "address",
          "name": "mark2market",
          "type": "address"
        }
      ],
      "name": "Mark2MarketUpdated",
      "type": "event"
    },
    {
      "anonymous": false,
      "inputs": [
        {
          "indexed": true,
          "internalType": "bytes32",
          "name": "role",
          "type": "bytes32"
        },
        {
          "indexed": true,
          "internalType": "bytes32",
          "name": "previousAdminRole",
          "type": "bytes32"
        },
        {
          "indexed": true,
          "internalType": "bytes32",
          "name": "newAdminRole",
          "type": "bytes32"
        }
      ],
      "name": "RoleAdminChanged",
      "type": "event"
    },
    {
      "anonymous": false,
      "inputs": [
        {
          "indexed": true,
          "internalType": "bytes32",
          "name": "role",
          "type": "bytes32"
        },
        {
          "indexed": true,
          "internalType": "address",
          "name": "account",
          "type": "address"
        },
        {
          "indexed": true,
          "internalType": "address",
          "name": "sender",
          "type": "address"
        }
      ],
      "name": "RoleGranted",
      "type": "event"
    },
    {
      "anonymous": false,
      "inputs": [
        {
          "indexed": true,
          "internalType": "bytes32",
          "name": "role",
          "type": "bytes32"
        },
        {
          "indexed": true,
          "internalType": "address",
          "name": "account",
          "type": "address"
        },
        {
          "indexed": true,
          "internalType": "address",
          "name": "sender",
          "type": "address"
        }
      ],
      "name": "RoleRevoked",
      "type": "event"
    },
    {
      "inputs": [],
      "name": "DEFAULT_ADMIN_ROLE",
      "outputs": [
        {
          "internalType": "bytes32",
          "name": "",
          "type": "bytes32"
        }
      ],
      "stateMutability": "view",
      "type": "function"
    },
    {
      "inputs": [
        {
          "internalType": "uint256",
          "name": "",
          "type": "uint256"
        }
      ],
      "name": "actionBuilders",
      "outputs": [
        {
          "internalType": "address",
          "name": "",
          "type": "address"
        }
      ],
      "stateMutability": "view",
      "type": "function"
    },
    {
      "inputs": [
        {
          "internalType": "address",
          "name": "actionBuilder",
          "type": "address"
        },
        {
          "internalType": "uint256",
          "name": "index",
          "type": "uint256"
        }
      ],
      "name": "addActionBuilderAt",
      "outputs": [],
      "stateMutability": "nonpayable",
      "type": "function"
    },
    {
      "inputs": [
        {
          "internalType": "contract IERC20",
          "name": "withdrawToken",
          "type": "address"
        },
        {
          "internalType": "uint256",
          "name": "withdrawAmount",
          "type": "uint256"
        }
      ],
      "name": "buildBalanceActions",
      "outputs": [
        {
          "components": [
            {
              "internalType": "contract ITokenExchange",
              "name": "tokenExchange",
              "type": "address"
            },
            {
              "internalType": "bytes32",
              "name": "code",
              "type": "bytes32"
            },
            {
              "internalType": "contract IERC20",
              "name": "from",
              "type": "address"
            },
            {
              "internalType": "contract IERC20",
              "name": "to",
              "type": "address"
            },
            {
              "internalType": "uint256",
              "name": "amount",
              "type": "uint256"
            },
            {
              "internalType": "bool",
              "name": "exchangeAll",
              "type": "bool"
            },
            {
              "internalType": "bool",
              "name": "executed",
              "type": "bool"
            }
          ],
          "internalType": "struct IActionBuilder.ExchangeAction[]",
          "name": "",
          "type": "tuple[]"
        }
      ],
      "stateMutability": "nonpayable",
      "type": "function"
    },
    {
      "inputs": [],
      "name": "buildBalanceActions",
      "outputs": [
        {
          "components": [
            {
              "internalType": "contract ITokenExchange",
              "name": "tokenExchange",
              "type": "address"
            },
            {
              "internalType": "bytes32",
              "name": "code",
              "type": "bytes32"
            },
            {
              "internalType": "contract IERC20",
              "name": "from",
              "type": "address"
            },
            {
              "internalType": "contract IERC20",
              "name": "to",
              "type": "address"
            },
            {
              "internalType": "uint256",
              "name": "amount",
              "type": "uint256"
            },
            {
              "internalType": "bool",
              "name": "exchangeAll",
              "type": "bool"
            },
            {
              "internalType": "bool",
              "name": "executed",
              "type": "bool"
            }
          ],
          "internalType": "struct IActionBuilder.ExchangeAction[]",
          "name": "",
          "type": "tuple[]"
        }
      ],
      "stateMutability": "nonpayable",
      "type": "function"
    },
    {
      "inputs": [
        {
          "internalType": "bytes32",
          "name": "role",
          "type": "bytes32"
        }
      ],
      "name": "getRoleAdmin",
      "outputs": [
        {
          "internalType": "bytes32",
          "name": "",
          "type": "bytes32"
        }
      ],
      "stateMutability": "view",
      "type": "function"
    },
    {
      "inputs": [
        {
          "internalType": "bytes32",
          "name": "role",
          "type": "bytes32"
        },
        {
          "internalType": "address",
          "name": "account",
          "type": "address"
        }
      ],
      "name": "grantRole",
      "outputs": [],
      "stateMutability": "nonpayable",
      "type": "function"
    },
    {
      "inputs": [
        {
          "internalType": "bytes32",
          "name": "role",
          "type": "bytes32"
        },
        {
          "internalType": "address",
          "name": "account",
          "type": "address"
        }
      ],
      "name": "hasRole",
      "outputs": [
        {
          "internalType": "bool",
          "name": "",
          "type": "bool"
        }
      ],
      "stateMutability": "view",
      "type": "function"
    },
    {
      "inputs": [],
      "name": "mark2market",
      "outputs": [
        {
          "internalType": "contract IMark2Market",
          "name": "",
          "type": "address"
        }
      ],
      "stateMutability": "view",
      "type": "function"
    },
    {
      "inputs": [
        {
          "internalType": "bytes32",
          "name": "role",
          "type": "bytes32"
        },
        {
          "internalType": "address",
          "name": "account",
          "type": "address"
        }
      ],
      "name": "renounceRole",
      "outputs": [],
      "stateMutability": "nonpayable",
      "type": "function"
    },
    {
      "inputs": [
        {
          "internalType": "bytes32",
          "name": "role",
          "type": "bytes32"
        },
        {
          "internalType": "address",
          "name": "account",
          "type": "address"
        }
      ],
      "name": "revokeRole",
      "outputs": [],
      "stateMutability": "nonpayable",
      "type": "function"
    },
    {
      "inputs": [
        {
          "internalType": "address[]",
          "name": "_actionBuildersInOrder",
          "type": "address[]"
        }
      ],
      "name": "setActionBuilders",
      "outputs": [],
      "stateMutability": "nonpayable",
      "type": "function"
    },
    {
      "inputs": [
        {
          "internalType": "address",
          "name": "_mark2market",
          "type": "address"
        }
      ],
      "name": "setMark2Market",
      "outputs": [],
      "stateMutability": "nonpayable",
      "type": "function"
    },
    {
      "inputs": [
        {
          "internalType": "bytes4",
          "name": "interfaceId",
          "type": "bytes4"
        }
      ],
      "name": "supportsInterface",
      "outputs": [
        {
          "internalType": "bool",
          "name": "",
          "type": "bool"
        }
      ],
      "stateMutability": "view",
      "type": "function"
    }
  ],
  "transactionHash": "0xcb65b8d5c7be98a72618b14c251d821e51d221e20ad4e9155ce8223f43d2f542",
  "args": [],
  "solcInputHash": "5940fe62ab9ebf2b846c1724dc847104",
  "bytecode": "0x608060405234801561001057600080fd5b5061001c600033610021565b6100cd565b61002b828261002f565b5050565b6000828152602081815260408083206001600160a01b038516845290915290205460ff1661002b576000828152602081815260408083206001600160a01b03851684529091529020805460ff191660011790556100893390565b6001600160a01b0316816001600160a01b0316837f2f8788117e7eff1d82e926ec794901d17c78024a50270940304540a733656f0d60405160405180910390a45050565b611282806100dc6000396000f3fe608060405234801561001057600080fd5b50600436106100ea5760003560e01c806386c9a1ac1161008c578063c7fa6b9e11610066578063c7fa6b9e146101ef578063d4341b991461020f578063d547741f14610217578063f69516931461022a57600080fd5b806386c9a1ac146101c157806391d14854146101d4578063a217fddf146101e757600080fd5b8063248a9ca3116100c8578063248a9ca3146101575780632f2ff15d1461018857806336568abe1461019b57806337044771146101ae57600080fd5b806301ffc9a7146100ef57806306edb705146101175780631ef70eca14610142575b600080fd5b6101026100fd366004610e17565b61023d565b60405190151581526020015b60405180910390f35b61012a610125366004610dce565b610274565b6040516001600160a01b03909116815260200161010e565b610155610150366004610c6f565b61029e565b005b61017a610165366004610dce565b60009081526020819052604090206001015490565b60405190815260200161010e565b610155610196366004610de7565b6103ed565b6101556101a9366004610de7565b610418565b6101556101bc366004610c26565b610492565b6101556101cf366004610c43565b610563565b6101026101e2366004610de7565b610594565b61017a600081565b6102026101fd366004610c43565b6105bd565b60405161010e919061105d565b6102026107c2565b610155610225366004610de7565b6107d4565b60015461012a906001600160a01b031681565b60006001600160e01b03198216637965db0b60e01b148061026e57506301ffc9a760e01b6001600160e01b03198316145b92915050565b6002818154811061028457600080fd5b6000918252602090912001546001600160a01b0316905081565b6102a9600033610594565b6102ce5760405162461bcd60e51b81526004016102c5906110a3565b60405180910390fd5b60005b60ff81168211156103245761031283838360ff168181106102f4576102f4611208565b90506020020160208101906103099190610c26565b8260ff166107fa565b8061031c816111bc565b9150506102d1565b506002548110156103e957600254600090610340908390611162565b905060005b818160ff1610156103e6576002805480610361576103616111f2565b600082815260209020810160001990810180546001600160a01b03191690550190556002547f13183867a7c6088b93200739bab95c078ccbaa5b8933ad9e6cf5ebd88f1e6c5b906001906103b99060ff851690611162565b6103c39190611162565b60405190815260200160405180910390a1806103de816111bc565b915050610345565b50505b5050565b6000828152602081905260409020600101546104098133610916565b610413838361097a565b505050565b6001600160a01b03811633146104885760405162461bcd60e51b815260206004820152602f60248201527f416363657373436f6e74726f6c3a2063616e206f6e6c792072656e6f756e636560448201526e103937b632b9903337b91039b2b63360891b60648201526084016102c5565b6103e982826109fe565b61049d600033610594565b6104b95760405162461bcd60e51b81526004016102c5906110a3565b6001600160a01b03811661050f5760405162461bcd60e51b815260206004820152601860248201527f5a65726f2061646472657373206e6f7420616c6c6f776564000000000000000060448201526064016102c5565b600180546001600160a01b0319166001600160a01b0383169081179091556040519081527f2387291c358bb5414b9fdcdfeb40efddb696908065a6533e47bf60b395f7dcfd9060200160405180910390a150565b61056e600033610594565b61058a5760405162461bcd60e51b81526004016102c5906110a3565b6103e982826107fa565b6000918252602082815260408084206001600160a01b0393909316845291905290205460ff1690565b60015460405163734bd75d60e01b81526001600160a01b0384811660048301526024820184905260609260009291169063734bd75d9060440160006040518083038186803b15801561060e57600080fd5b505afa158015610622573d6000803e3d6000fd5b505050506040513d6000823e601f3d908101601f1916820160405261064a9190810190610ce4565b60025490915060009067ffffffffffffffff81111561066b5761066b61121e565b6040519080825280602002602001820160405280156106d257816020015b6040805160e08101825260008082526020808301829052928201819052606082018190526080820181905260a0820181905260c082015282526000199092019101816106895790505b50905060005b60025460ff821610156107b95760028160ff16815481106106fb576106fb611208565b600091825260209091200154604051637045352f60e01b81526001600160a01b0390911690637045352f906107369086908690600401610fe7565b60e06040518083038186803b15801561074e57600080fd5b505afa158015610762573d6000803e3d6000fd5b505050506040513d601f19601f820116820180604052508101906107869190610e41565b828260ff168151811061079b5761079b611208565b602002602001018190525080806107b1906111bc565b9150506106d8565b50949350505050565b60606107cf6000806105bd565b905090565b6000828152602081905260409020600101546107f08133610916565b61041383836109fe565b600254801580610813575081610811600183611162565b105b1561089d5760006108248284611162565b61082f90600161112b565b905060005b818160ff16101561089a5760028054600101815560009081526040805191825260ff831660208301527f857ecf6429e46f39a1e4ef5e55e9e3c13f59d49ece36e7a47973768b5181d6c6910160405180910390a180610892816111bc565b915050610834565b50505b82600283815481106108b1576108b1611208565b60009182526020918290200180546001600160a01b0319166001600160a01b039384161790556040805192861683529082018490527f857ecf6429e46f39a1e4ef5e55e9e3c13f59d49ece36e7a47973768b5181d6c6910160405180910390a1505050565b6109208282610594565b6103e957610938816001600160a01b03166014610a63565b610943836020610a63565b604051602001610954929190610f72565b60408051601f198184030181529082905262461bcd60e51b82526102c591600401611070565b6109848282610594565b6103e9576000828152602081815260408083206001600160a01b03851684529091529020805460ff191660011790556109ba3390565b6001600160a01b0316816001600160a01b0316837f2f8788117e7eff1d82e926ec794901d17c78024a50270940304540a733656f0d60405160405180910390a45050565b610a088282610594565b156103e9576000828152602081815260408083206001600160a01b0385168085529252808320805460ff1916905551339285917ff6391f5c32d9c69d2a47ea670b442974b53935d1edc7fd64eb21e047a839171b9190a45050565b60606000610a72836002611143565b610a7d90600261112b565b67ffffffffffffffff811115610a9557610a9561121e565b6040519080825280601f01601f191660200182016040528015610abf576020820181803683370190505b509050600360fc1b81600081518110610ada57610ada611208565b60200101906001600160f81b031916908160001a905350600f60fb1b81600181518110610b0957610b09611208565b60200101906001600160f81b031916908160001a9053506000610b2d846002611143565b610b3890600161112b565b90505b6001811115610bb0576f181899199a1a9b1b9c1cb0b131b232b360811b85600f1660108110610b6c57610b6c611208565b1a60f81b828281518110610b8257610b82611208565b60200101906001600160f81b031916908160001a90535060049490941c93610ba9816111a5565b9050610b3b565b508315610bff5760405162461bcd60e51b815260206004820181905260248201527f537472696e67733a20686578206c656e67746820696e73756666696369656e7460448201526064016102c5565b9392505050565b80518015158114610c1657600080fd5b919050565b8051610c1681611234565b600060208284031215610c3857600080fd5b8135610bff81611234565b60008060408385031215610c5657600080fd5b8235610c6181611234565b946020939093013593505050565b60008060208385031215610c8257600080fd5b823567ffffffffffffffff80821115610c9a57600080fd5b818501915085601f830112610cae57600080fd5b813581811115610cbd57600080fd5b8660208260051b8501011115610cd257600080fd5b60209290920196919550909350505050565b60006020808385031215610cf757600080fd5b825167ffffffffffffffff80821115610d0f57600080fd5b818501915085601f830112610d2357600080fd5b815181811115610d3557610d3561121e565b610d43848260051b016110fa565b81815284810192508385016060808402860187018a1015610d6357600080fd5b60009550855b84811015610dbf5781838c031215610d7f578687fd5b610d876110d1565b8351610d9281611234565b815283890151898201526040610da9818601610c06565b9082015286529487019491810191600101610d69565b50919998505050505050505050565b600060208284031215610de057600080fd5b5035919050565b60008060408385031215610dfa57600080fd5b823591506020830135610e0c81611234565b809150509250929050565b600060208284031215610e2957600080fd5b81356001600160e01b031981168114610bff57600080fd5b600060e08284031215610e5357600080fd5b60405160e0810181811067ffffffffffffffff82111715610e7657610e7661121e565b6040528251610e8481611234565b815260208381015190820152610e9c60408401610c1b565b6040820152610ead60608401610c1b565b606082015260808301516080820152610ec860a08401610c06565b60a0820152610ed960c08401610c06565b60c08201529392505050565b600081518084526020808501945080840160005b83811015610f6757815180516001600160a01b03908116895284820151858a01526040808301518216908a0152606080830151909116908901526080808201519089015260a08082015115159089015260c09081015115159088015260e09096019590820190600101610ef9565b509495945050505050565b7f416363657373436f6e74726f6c3a206163636f756e7420000000000000000000815260008351610faa816017850160208801611179565b7001034b99036b4b9b9b4b733903937b6329607d1b6017918401918201528351610fdb816028840160208801611179565b01602801949350505050565b6040808252835182820181905260009190606090818501906020808901865b8381101561103e57815180516001600160a01b0316865283810151848701528701511515878601529385019390820190600101611006565b505086830390870152506110528187610ee5565b979650505050505050565b602081526000610bff6020830184610ee5565b602081526000825180602084015261108f816040850160208701611179565b601f01601f19169190910160400192915050565b6020808252601490820152735265737472696374656420746f2061646d696e7360601b604082015260600190565b6040516060810167ffffffffffffffff811182821017156110f4576110f461121e565b60405290565b604051601f8201601f1916810167ffffffffffffffff811182821017156111235761112361121e565b604052919050565b6000821982111561113e5761113e6111dc565b500190565b600081600019048311821515161561115d5761115d6111dc565b500290565b600082821015611174576111746111dc565b500390565b60005b8381101561119457818101518382015260200161117c565b838111156103e65750506000910152565b6000816111b4576111b46111dc565b506000190190565b600060ff821660ff8114156111d3576111d36111dc565b60010192915050565b634e487b7160e01b600052601160045260246000fd5b634e487b7160e01b600052603160045260246000fd5b634e487b7160e01b600052603260045260246000fd5b634e487b7160e01b600052604160045260246000fd5b6001600160a01b038116811461124957600080fd5b5056fea2646970667358221220ffa6c9b5527a72c2c923aafc0c473246e152cc62ade76ed7a0782b8a629c780964736f6c63430008060033",
  "devdoc": {
    "kind": "dev",
    "methods": {
      "getRoleAdmin(bytes32)": {
        "details": "Returns the admin role that controls `role`. See {grantRole} and {revokeRole}. To change a role's admin, use {_setRoleAdmin}."
      },
      "grantRole(bytes32,address)": {
        "details": "Grants `role` to `account`. If `account` had not been already granted `role`, emits a {RoleGranted} event. Requirements: - the caller must have ``role``'s admin role."
      },
      "hasRole(bytes32,address)": {
        "details": "Returns `true` if `account` has been granted `role`."
      },
      "renounceRole(bytes32,address)": {
        "details": "Revokes `role` from the calling account. Roles are often managed via {grantRole} and {revokeRole}: this function's purpose is to provide a mechanism for accounts to lose their privileges if they are compromised (such as when a trusted device is misplaced). If the calling account had been revoked `role`, emits a {RoleRevoked} event. Requirements: - the caller must be `account`."
      },
      "revokeRole(bytes32,address)": {
        "details": "Revokes `role` from `account`. If `account` had been granted `role`, emits a {RoleRevoked} event. Requirements: - the caller must have ``role``'s admin role."
      },
      "supportsInterface(bytes4)": {
        "details": "See {IERC165-supportsInterface}."
      }
    },
    "version": 1
  },
  "userdoc": {
    "kind": "user",
    "methods": {},
    "version": 1
  },
  "storageLayout": {
    "storage": [
      {
        "astId": 24,
        "contract": "contracts/Balancer.sol:Balancer",
        "label": "_roles",
        "offset": 0,
        "slot": "0",
        "type": "t_mapping(t_bytes32,t_struct(RoleData)19_storage)"
      },
      {
        "astId": 2070,
        "contract": "contracts/Balancer.sol:Balancer",
        "label": "mark2market",
        "offset": 0,
        "slot": "1",
        "type": "t_contract(IMark2Market)9460"
      },
      {
        "astId": 2073,
        "contract": "contracts/Balancer.sol:Balancer",
        "label": "actionBuilders",
        "offset": 0,
        "slot": "2",
        "type": "t_array(t_address)dyn_storage"
      }
    ],
    "types": {
      "t_address": {
        "encoding": "inplace",
        "label": "address",
        "numberOfBytes": "20"
      },
      "t_array(t_address)dyn_storage": {
        "base": "t_address",
        "encoding": "dynamic_array",
        "label": "address[]",
        "numberOfBytes": "32"
      },
      "t_bool": {
        "encoding": "inplace",
        "label": "bool",
        "numberOfBytes": "1"
      },
      "t_bytes32": {
        "encoding": "inplace",
        "label": "bytes32",
        "numberOfBytes": "32"
      },
      "t_contract(IMark2Market)9460": {
        "encoding": "inplace",
        "label": "contract IMark2Market",
        "numberOfBytes": "20"
      },
      "t_mapping(t_address,t_bool)": {
        "encoding": "mapping",
        "key": "t_address",
        "label": "mapping(address => bool)",
        "numberOfBytes": "32",
        "value": "t_bool"
      },
      "t_mapping(t_bytes32,t_struct(RoleData)19_storage)": {
        "encoding": "mapping",
        "key": "t_bytes32",
        "label": "mapping(bytes32 => struct AccessControl.RoleData)",
        "numberOfBytes": "32",
        "value": "t_struct(RoleData)19_storage"
      },
      "t_struct(RoleData)19_storage": {
        "encoding": "inplace",
        "label": "struct AccessControl.RoleData",
        "members": [
          {
            "astId": 16,
            "contract": "contracts/Balancer.sol:Balancer",
            "label": "members",
            "offset": 0,
            "slot": "0",
            "type": "t_mapping(t_address,t_bool)"
          },
          {
            "astId": 18,
            "contract": "contracts/Balancer.sol:Balancer",
            "label": "adminRole",
            "offset": 0,
            "slot": "1",
            "type": "t_bytes32"
          }
        ],
        "numberOfBytes": "64"
      }
    }
  }
}