{
  "address": "0xBCA0DBf8b92419Bf7B5f1e748b60a8c2403cd2F6",
  "abi": [
    {
      "anonymous": false,
      "inputs": [
        {
          "indexed": true,
          "internalType": "address",
          "name": "previousOwner",
          "type": "address"
        },
        {
          "indexed": true,
          "internalType": "address",
          "name": "newOwner",
          "type": "address"
        }
      ],
      "name": "OwnershipTransferred",
      "type": "event"
    },
    {
      "anonymous": false,
      "inputs": [
        {
          "indexed": false,
          "internalType": "address",
          "name": "lpap",
          "type": "address"
        }
      ],
      "name": "UpdatedLpap",
      "type": "event"
    },
    {
      "inputs": [],
      "name": "lpap",
      "outputs": [
        {
          "internalType": "contract ILendingPoolAddressesProvider",
          "name": "",
          "type": "address"
        }
      ],
      "stateMutability": "view",
      "type": "function"
    },
    {
      "inputs": [],
      "name": "owner",
      "outputs": [
        {
          "internalType": "address",
          "name": "",
          "type": "address"
        }
      ],
      "stateMutability": "view",
      "type": "function"
    },
    {
      "inputs": [],
      "name": "renounceOwnership",
      "outputs": [],
      "stateMutability": "nonpayable",
      "type": "function"
    },
    {
      "inputs": [
        {
          "internalType": "bytes32",
          "name": "",
          "type": "bytes32"
        }
      ],
      "name": "rolemap",
      "outputs": [
        {
          "internalType": "address",
          "name": "",
          "type": "address"
        }
      ],
      "stateMutability": "view",
      "type": "function"
    },
    {
      "inputs": [
        {
          "internalType": "address",
          "name": "_lpap",
          "type": "address"
        }
      ],
      "name": "setLpap",
      "outputs": [],
      "stateMutability": "nonpayable",
      "type": "function"
    },
    {
      "inputs": [
        {
          "internalType": "bytes32",
          "name": "_role",
          "type": "bytes32"
        },
        {
          "internalType": "address",
          "name": "_actor",
          "type": "address"
        }
      ],
      "name": "setRole",
      "outputs": [],
      "stateMutability": "nonpayable",
      "type": "function"
    },
    {
      "inputs": [
        {
          "internalType": "address",
          "name": "_asset",
          "type": "address"
        },
        {
          "internalType": "uint256",
          "name": "_amount",
          "type": "uint256"
        },
        {
          "internalType": "address",
          "name": "_beneficiar",
          "type": "address"
        }
      ],
      "name": "stake",
      "outputs": [],
      "stateMutability": "nonpayable",
      "type": "function"
    },
    {
      "inputs": [
        {
          "internalType": "address",
          "name": "newOwner",
          "type": "address"
        }
      ],
      "name": "transferOwnership",
      "outputs": [],
      "stateMutability": "nonpayable",
      "type": "function"
    },
    {
      "inputs": [
        {
          "internalType": "address",
          "name": "_asset",
          "type": "address"
        },
        {
          "internalType": "uint256",
          "name": "_amount",
          "type": "uint256"
        },
        {
          "internalType": "address",
          "name": "_to",
          "type": "address"
        }
      ],
      "name": "unstake",
      "outputs": [
        {
          "internalType": "uint256",
          "name": "",
          "type": "uint256"
        }
      ],
      "stateMutability": "nonpayable",
      "type": "function"
    }
  ],
  "transactionHash": "0x4f7c4841e1b194acd2dd03b39356de00999769aafce8adef75e420854288ce5c",
  "args": [],
  "solcInputHash": "4b2c02ad00a20f5dc92f2cdd9d4eb77f",
  "bytecode": "0x608060405234801561001057600080fd5b5061001a3361001f565b6100c9565b6001600160a01b0381166100795760405162461bcd60e51b815260206004820152601860248201527f5a65726f2061646472657373206e6f7420616c6c6f7765640000000000000000604482015260640160405180910390fd5b600080546001600160a01b038381166001600160a01b0319831681178455604051919092169283917f8be0079c531659141344cd1fd0a4f28419497f9722a3daafe3b4186f6b6457e09190a35050565b610b43806100d86000396000f3fe608060405234801561001057600080fd5b50600436106100935760003560e01c80638183527411610066578063818352741461010e5780638da5cb5b14610121578063926e31d614610132578063dff8720314610153578063f2fde38b1461016657600080fd5b8063294091cd146100985780632dc10a54146100ad5780635773814d146100f3578063715018a614610106575b600080fd5b6100ab6100a6366004610893565b610179565b005b6100d66100bb3660046108f7565b6001602052600090815260409020546001600160a01b031681565b6040516001600160a01b0390911681526020015b60405180910390f35b6002546100d6906001600160a01b031681565b6100ab6102f4565b6100ab61011c366004610852565b610333565b6000546001600160a01b03166100d6565b610145610140366004610893565b6103d7565b6040519081526020016100ea565b6100ab610161366004610910565b610682565b6100ab610174366004610852565b610700565b60025460408051630261bf8b60e01b815290516000926001600160a01b031691630261bf8b916004808301926020929190829003018186803b1580156101be57600080fd5b505afa1580156101d2573d6000803e3d6000fd5b505050506040513d601f19601f820116820180604052508101906101f69190610876565b60405163095ea7b360e01b81526001600160a01b038083166004830152602482018690529192509085169063095ea7b390604401602060405180830381600087803b15801561024457600080fd5b505af1158015610258573d6000803e3d6000fd5b505050506040513d601f19601f8201168201806040525081019061027c91906108d5565b5060405163e8eda9df60e01b81526001600160a01b0385811660048301526024820185905283811660448301526000606483015282169063e8eda9df90608401600060405180830381600087803b1580156102d657600080fd5b505af11580156102ea573d6000803e3d6000fd5b5050505050505050565b6000546001600160a01b031633146103275760405162461bcd60e51b815260040161031e90610a46565b60405180910390fd5b6103316000610736565b565b6000546001600160a01b0316331461035d5760405162461bcd60e51b815260040161031e90610a46565b6001600160a01b0381166103835760405162461bcd60e51b815260040161031e90610a89565b600280546001600160a01b0319166001600160a01b0383169081179091556040519081527fd06642067d87c2a7a28522ac65f5905774de7e1adaac6f856e4aaec37a07d9689060200160405180910390a150565b600080600260009054906101000a90046001600160a01b03166001600160a01b0316630261bf8b6040518163ffffffff1660e01b815260040160206040518083038186803b15801561042857600080fd5b505afa15801561043c573d6000803e3d6000fd5b505050506040513d601f19601f820116820180604052508101906104609190610876565b604051631a4ca37b60e21b81526001600160a01b0387811660048301526024820187905285811660448301529192506000918316906369328dec90606401602060405180830381600087803b1580156104b857600080fd5b505af11580156104cc573d6000803e3d6000fd5b505050506040513d601f19601f820116820180604052508101906104f09190610a2d565b6040516335ea6a7560e01b81526001600160a01b0388811660048301529192506000918416906335ea6a75906024016101806040518083038186803b15801561053857600080fd5b505afa15801561054c573d6000803e3d6000fd5b505050506040513d601f19601f820116820180604052508101906105709190610940565b60e08101516040516370a0823160e01b81523060048201529192506001600160a01b03169063a9059cbb90339083906370a082319060240160206040518083038186803b1580156105c057600080fd5b505afa1580156105d4573d6000803e3d6000fd5b505050506040513d601f19601f820116820180604052508101906105f89190610a2d565b6040516001600160e01b031960e085901b1681526001600160a01b0390921660048301526024820152604401602060405180830381600087803b15801561063e57600080fd5b505af1158015610652573d6000803e3d6000fd5b505050506040513d601f19601f8201168201806040525081019061067691906108d5565b50909695505050505050565b6000546001600160a01b031633146106ac5760405162461bcd60e51b815260040161031e90610a46565b6001600160a01b0381166106d25760405162461bcd60e51b815260040161031e90610a89565b60009182526001602052604090912080546001600160a01b0319166001600160a01b03909216919091179055565b6000546001600160a01b0316331461072a5760405162461bcd60e51b815260040161031e90610a46565b61073381610736565b50565b6001600160a01b03811661075c5760405162461bcd60e51b815260040161031e90610a89565b600080546001600160a01b038381166001600160a01b0319831681178455604051919092169283917f8be0079c531659141344cd1fd0a4f28419497f9722a3daafe3b4186f6b6457e09190a35050565b80516107b781610af8565b919050565b6000602082840312156107ce57600080fd5b6040516020810181811067ffffffffffffffff821117156107ff57634e487b7160e01b600052604160045260246000fd5b6040529151825250919050565b80516fffffffffffffffffffffffffffffffff811681146107b757600080fd5b805164ffffffffff811681146107b757600080fd5b805160ff811681146107b757600080fd5b60006020828403121561086457600080fd5b813561086f81610af8565b9392505050565b60006020828403121561088857600080fd5b815161086f81610af8565b6000806000606084860312156108a857600080fd5b83356108b381610af8565b92506020840135915060408401356108ca81610af8565b809150509250925092565b6000602082840312156108e757600080fd5b8151801515811461086f57600080fd5b60006020828403121561090957600080fd5b5035919050565b6000806040838503121561092357600080fd5b82359150602083013561093581610af8565b809150509250929050565b6000610180828403121561095357600080fd5b61095b610ac0565b61096584846107bc565b81526109736020840161080c565b60208201526109846040840161080c565b60408201526109956060840161080c565b60608201526109a66080840161080c565b60808201526109b760a0840161080c565b60a08201526109c860c0840161082c565b60c08201526109d960e084016107ac565b60e08201526101006109ec8185016107ac565b908201526101206109fe8482016107ac565b90820152610140610a108482016107ac565b90820152610160610a22848201610841565b908201529392505050565b600060208284031215610a3f57600080fd5b5051919050565b60208082526023908201527f4f776e61626c654578743a2063616c6c6572206973206e6f7420746865206f776040820152623732b960e91b606082015260800190565b60208082526018908201527f5a65726f2061646472657373206e6f7420616c6c6f7765640000000000000000604082015260600190565b604051610180810167ffffffffffffffff81118282101715610af257634e487b7160e01b600052604160045260246000fd5b60405290565b6001600160a01b038116811461073357600080fdfea2646970667358221220a1978898c054c978d0f8c0326450713878213dd0d036f97519a01a8605303c9264736f6c63430008060033",
  "devdoc": {
    "kind": "dev",
    "methods": {
      "owner()": {
        "details": "Returns the address of the current owner."
      },
      "renounceOwnership()": {
        "details": "Leaves the contract without owner. It will not be possible to call `onlyOwner` functions anymore. Can only be called by the current owner. NOTE: Renouncing ownership will leave the contract without an owner, thereby removing any functionality that is only available to the owner."
      },
      "transferOwnership(address)": {
        "details": "Transfers ownership of the contract to a new account (`newOwner`). Can only be called by the current owner."
      }
    },
    "version": 1
  },
  "userdoc": {
    "kind": "user",
    "methods": {},
    "version": 1
  },
  "storageLayout": {
    "storage": [
      {
        "astId": 4391,
        "contract": "contracts/connectors/ConnectorAAVE.sol:ConnectorAAVE",
        "label": "_owner",
        "offset": 0,
        "slot": "0",
        "type": "t_address"
      },
      {
        "astId": 4395,
        "contract": "contracts/connectors/ConnectorAAVE.sol:ConnectorAAVE",
        "label": "rolemap",
        "offset": 0,
        "slot": "1",
        "type": "t_mapping(t_bytes32,t_address)"
      },
      {
        "astId": 7538,
        "contract": "contracts/connectors/ConnectorAAVE.sol:ConnectorAAVE",
        "label": "lpap",
        "offset": 0,
        "slot": "2",
        "type": "t_contract(ILendingPoolAddressesProvider)8743"
      }
    ],
    "types": {
      "t_address": {
        "encoding": "inplace",
        "label": "address",
        "numberOfBytes": "20"
      },
      "t_bytes32": {
        "encoding": "inplace",
        "label": "bytes32",
        "numberOfBytes": "32"
      },
      "t_contract(ILendingPoolAddressesProvider)8743": {
        "encoding": "inplace",
        "label": "contract ILendingPoolAddressesProvider",
        "numberOfBytes": "20"
      },
      "t_mapping(t_bytes32,t_address)": {
        "encoding": "mapping",
        "key": "t_bytes32",
        "label": "mapping(bytes32 => address)",
        "numberOfBytes": "32",
        "value": "t_address"
      }
    }
  }
}