{
  "address": "0x2B3261416c4781E6787F643794D396C5DEa1F4cC",
  "abi": [
    {
      "inputs": [],
      "stateMutability": "nonpayable",
      "type": "constructor"
    },
    {
      "anonymous": false,
      "inputs": [
        {
          "indexed": false,
          "internalType": "uint256",
          "name": "fee",
          "type": "uint256"
        },
        {
          "indexed": false,
          "internalType": "uint256",
          "name": "feeDenominator",
          "type": "uint256"
        }
      ],
      "name": "BuyFeeUpdated",
      "type": "event"
    },
    {
      "anonymous": false,
      "inputs": [
        {
          "indexed": false,
          "internalType": "string",
          "name": "label",
          "type": "string"
        },
        {
          "indexed": false,
          "internalType": "uint256",
          "name": "amount",
          "type": "uint256"
        },
        {
          "indexed": false,
          "internalType": "uint256",
          "name": "fee",
          "type": "uint256"
        },
        {
          "indexed": false,
          "internalType": "address",
          "name": "sender",
          "type": "address"
        }
      ],
      "name": "EventExchange",
      "type": "event"
    },
    {
      "anonymous": false,
      "inputs": [
        {
          "indexed": false,
          "internalType": "address",
          "name": "mark2market",
          "type": "address"
        }
      ],
      "name": "Mark2MarketUpdated",
      "type": "event"
    },
    {
      "anonymous": false,
      "inputs": [
        {
          "indexed": false,
          "internalType": "uint256",
          "name": "nextPayoutTime",
          "type": "uint256"
        }
      ],
      "name": "NextPayoutTime",
      "type": "event"
    },
    {
      "anonymous": false,
      "inputs": [
        {
          "indexed": false,
          "internalType": "uint256",
          "name": "totalUsdPlus",
          "type": "uint256"
        },
        {
          "indexed": false,
          "internalType": "uint256",
          "name": "totalUsdc",
          "type": "uint256"
        }
      ],
      "name": "NoEnoughForPayoutEvent",
      "type": "event"
    },
    {
      "anonymous": false,
      "inputs": [
        {
          "indexed": false,
          "internalType": "uint256",
          "name": "limit",
          "type": "uint256"
        },
        {
          "indexed": false,
          "internalType": "uint256",
          "name": "denominator",
          "type": "uint256"
        }
      ],
      "name": "NotEnoughLimitUpdated",
      "type": "event"
    },
    {
      "anonymous": false,
      "inputs": [
        {
          "indexed": false,
          "internalType": "address",
          "name": "token",
          "type": "address"
        },
        {
          "indexed": false,
          "internalType": "uint256",
          "name": "amount",
          "type": "uint256"
        }
      ],
      "name": "OnNotEnoughLimitRedeemed",
      "type": "event"
    },
    {
      "anonymous": false,
      "inputs": [
        {
          "indexed": false,
          "internalType": "uint256",
          "name": "amount",
          "type": "uint256"
        },
        {
          "indexed": false,
          "internalType": "uint256",
          "name": "feeAmount",
          "type": "uint256"
        }
      ],
      "name": "PaidBuyFee",
      "type": "event"
    },
    {
      "anonymous": false,
      "inputs": [
        {
          "indexed": false,
          "internalType": "uint256",
          "name": "amount",
          "type": "uint256"
        },
        {
          "indexed": false,
          "internalType": "uint256",
          "name": "feeAmount",
          "type": "uint256"
        }
      ],
      "name": "PaidRedeemFee",
      "type": "event"
    },
    {
      "anonymous": false,
      "inputs": [
        {
          "indexed": false,
          "internalType": "uint256",
          "name": "totalUsdPlus",
          "type": "uint256"
        },
        {
          "indexed": false,
          "internalType": "uint256",
          "name": "totalUsdc",
          "type": "uint256"
        },
        {
          "indexed": false,
          "internalType": "uint256",
          "name": "totallyAmountPaid",
          "type": "uint256"
        }
      ],
      "name": "PayoutEvent",
      "type": "event"
    },
    {
      "anonymous": false,
      "inputs": [
        {
          "indexed": false,
          "internalType": "uint256",
          "name": "nextPayoutTime",
          "type": "uint256"
        },
        {
          "indexed": false,
          "internalType": "uint256",
          "name": "payoutPeriod",
          "type": "uint256"
        },
        {
          "indexed": false,
          "internalType": "uint256",
          "name": "payoutTimeRange",
          "type": "uint256"
        }
      ],
      "name": "PayoutTimesUpdated",
      "type": "event"
    },
    {
      "anonymous": false,
      "inputs": [
        {
          "indexed": false,
          "internalType": "address",
          "name": "portfolioManager",
          "type": "address"
        }
      ],
      "name": "PortfolioManagerUpdated",
      "type": "event"
    },
    {
      "anonymous": false,
      "inputs": [
        {
          "indexed": false,
          "internalType": "uint256",
          "name": "fee",
          "type": "uint256"
        },
        {
          "indexed": false,
          "internalType": "uint256",
          "name": "feeDenominator",
          "type": "uint256"
        }
      ],
      "name": "RedeemFeeUpdated",
      "type": "event"
    },
    {
      "anonymous": false,
      "inputs": [
        {
          "indexed": true,
          "internalType": "bytes32",
          "name": "role",
          "type": "bytes32"
        },
        {
          "indexed": true,
          "internalType": "bytes32",
          "name": "previousAdminRole",
          "type": "bytes32"
        },
        {
          "indexed": true,
          "internalType": "bytes32",
          "name": "newAdminRole",
          "type": "bytes32"
        }
      ],
      "name": "RoleAdminChanged",
      "type": "event"
    },
    {
      "anonymous": false,
      "inputs": [
        {
          "indexed": true,
          "internalType": "bytes32",
          "name": "role",
          "type": "bytes32"
        },
        {
          "indexed": true,
          "internalType": "address",
          "name": "account",
          "type": "address"
        },
        {
          "indexed": true,
          "internalType": "address",
          "name": "sender",
          "type": "address"
        }
      ],
      "name": "RoleGranted",
      "type": "event"
    },
    {
      "anonymous": false,
      "inputs": [
        {
          "indexed": true,
          "internalType": "bytes32",
          "name": "role",
          "type": "bytes32"
        },
        {
          "indexed": true,
          "internalType": "address",
          "name": "account",
          "type": "address"
        },
        {
          "indexed": true,
          "internalType": "address",
          "name": "sender",
          "type": "address"
        }
      ],
      "name": "RoleRevoked",
      "type": "event"
    },
    {
      "anonymous": false,
      "inputs": [
        {
          "indexed": false,
          "internalType": "address",
          "name": "usdPlus",
          "type": "address"
        },
        {
          "indexed": false,
          "internalType": "address",
          "name": "usdc",
          "type": "address"
        }
      ],
      "name": "TokensUpdated",
      "type": "event"
    },
    {
      "inputs": [],
      "name": "DEFAULT_ADMIN_ROLE",
      "outputs": [
        {
          "internalType": "bytes32",
          "name": "",
          "type": "bytes32"
        }
      ],
      "stateMutability": "view",
      "type": "function"
    },
    {
      "inputs": [],
      "name": "balance",
      "outputs": [
        {
          "internalType": "uint256",
          "name": "",
          "type": "uint256"
        }
      ],
      "stateMutability": "view",
      "type": "function"
    },
    {
      "inputs": [
        {
          "internalType": "address",
          "name": "_addrTok",
          "type": "address"
        },
        {
          "internalType": "uint256",
          "name": "_amount",
          "type": "uint256"
        }
      ],
      "name": "buy",
      "outputs": [],
      "stateMutability": "nonpayable",
      "type": "function"
    },
    {
      "inputs": [],
      "name": "buyFee",
      "outputs": [
        {
          "internalType": "uint256",
          "name": "",
          "type": "uint256"
        }
      ],
      "stateMutability": "view",
      "type": "function"
    },
    {
      "inputs": [],
      "name": "buyFeeDenominator",
      "outputs": [
        {
          "internalType": "uint256",
          "name": "",
          "type": "uint256"
        }
      ],
      "stateMutability": "view",
      "type": "function"
    },
    {
      "inputs": [
        {
          "internalType": "bytes32",
          "name": "role",
          "type": "bytes32"
        }
      ],
      "name": "getRoleAdmin",
      "outputs": [
        {
          "internalType": "bytes32",
          "name": "",
          "type": "bytes32"
        }
      ],
      "stateMutability": "view",
      "type": "function"
    },
    {
      "inputs": [
        {
          "internalType": "bytes32",
          "name": "role",
          "type": "bytes32"
        },
        {
          "internalType": "address",
          "name": "account",
          "type": "address"
        }
      ],
      "name": "grantRole",
      "outputs": [],
      "stateMutability": "nonpayable",
      "type": "function"
    },
    {
      "inputs": [
        {
          "internalType": "bytes32",
          "name": "role",
          "type": "bytes32"
        },
        {
          "internalType": "address",
          "name": "account",
          "type": "address"
        }
      ],
      "name": "hasRole",
      "outputs": [
        {
          "internalType": "bool",
          "name": "",
          "type": "bool"
        }
      ],
      "stateMutability": "view",
      "type": "function"
    },
    {
      "inputs": [],
      "name": "mark2market",
      "outputs": [
        {
          "internalType": "contract IMark2Market",
          "name": "",
          "type": "address"
        }
      ],
      "stateMutability": "view",
      "type": "function"
    },
    {
      "inputs": [],
      "name": "nextPayoutTime",
      "outputs": [
        {
          "internalType": "uint256",
          "name": "",
          "type": "uint256"
        }
      ],
      "stateMutability": "view",
      "type": "function"
    },
    {
      "inputs": [],
      "name": "notEnoughLimit",
      "outputs": [
        {
          "internalType": "uint256",
          "name": "",
          "type": "uint256"
        }
      ],
      "stateMutability": "view",
      "type": "function"
    },
    {
      "inputs": [],
      "name": "notEnoughLimitDenominator",
      "outputs": [
        {
          "internalType": "uint256",
          "name": "",
          "type": "uint256"
        }
      ],
      "stateMutability": "view",
      "type": "function"
    },
    {
      "inputs": [],
      "name": "payout",
      "outputs": [],
      "stateMutability": "nonpayable",
      "type": "function"
    },
    {
      "inputs": [],
      "name": "payoutPeriod",
      "outputs": [
        {
          "internalType": "uint256",
          "name": "",
          "type": "uint256"
        }
      ],
      "stateMutability": "view",
      "type": "function"
    },
    {
      "inputs": [],
      "name": "payoutTimeRange",
      "outputs": [
        {
          "internalType": "uint256",
          "name": "",
          "type": "uint256"
        }
      ],
      "stateMutability": "view",
      "type": "function"
    },
    {
      "inputs": [],
      "name": "portfolioManager",
      "outputs": [
        {
          "internalType": "contract PortfolioManager",
          "name": "",
          "type": "address"
        }
      ],
      "stateMutability": "view",
      "type": "function"
    },
    {
      "inputs": [
        {
          "internalType": "address",
          "name": "_addrTok",
          "type": "address"
        },
        {
          "internalType": "uint256",
          "name": "_amount",
          "type": "uint256"
        }
      ],
      "name": "redeem",
      "outputs": [],
      "stateMutability": "nonpayable",
      "type": "function"
    },
    {
      "inputs": [],
      "name": "redeemFee",
      "outputs": [
        {
          "internalType": "uint256",
          "name": "",
          "type": "uint256"
        }
      ],
      "stateMutability": "view",
      "type": "function"
    },
    {
      "inputs": [],
      "name": "redeemFeeDenominator",
      "outputs": [
        {
          "internalType": "uint256",
          "name": "",
          "type": "uint256"
        }
      ],
      "stateMutability": "view",
      "type": "function"
    },
    {
      "inputs": [
        {
          "internalType": "bytes32",
          "name": "role",
          "type": "bytes32"
        },
        {
          "internalType": "address",
          "name": "account",
          "type": "address"
        }
      ],
      "name": "renounceRole",
      "outputs": [],
      "stateMutability": "nonpayable",
      "type": "function"
    },
    {
      "inputs": [
        {
          "internalType": "bytes32",
          "name": "role",
          "type": "bytes32"
        },
        {
          "internalType": "address",
          "name": "account",
          "type": "address"
        }
      ],
      "name": "revokeRole",
      "outputs": [],
      "stateMutability": "nonpayable",
      "type": "function"
    },
    {
      "inputs": [],
      "name": "reward",
      "outputs": [],
      "stateMutability": "nonpayable",
      "type": "function"
    },
    {
      "inputs": [
        {
          "internalType": "uint256",
          "name": "_fee",
          "type": "uint256"
        },
        {
          "internalType": "uint256",
          "name": "_feeDenominator",
          "type": "uint256"
        }
      ],
      "name": "setBuyFee",
      "outputs": [],
      "stateMutability": "nonpayable",
      "type": "function"
    },
    {
      "inputs": [
        {
          "internalType": "address",
          "name": "_mark2market",
          "type": "address"
        }
      ],
      "name": "setMark2Market",
      "outputs": [],
      "stateMutability": "nonpayable",
      "type": "function"
    },
    {
      "inputs": [
        {
          "internalType": "uint256",
          "name": "_limit",
          "type": "uint256"
        },
        {
          "internalType": "uint256",
          "name": "_limitDenominator",
          "type": "uint256"
        }
      ],
      "name": "setNotEnoughLimit",
      "outputs": [],
      "stateMutability": "nonpayable",
      "type": "function"
    },
    {
      "inputs": [
        {
          "internalType": "uint256",
          "name": "_nextPayoutTime",
          "type": "uint256"
        },
        {
          "internalType": "uint256",
          "name": "_payoutPeriod",
          "type": "uint256"
        },
        {
          "internalType": "uint256",
          "name": "_payoutTimeRange",
          "type": "uint256"
        }
      ],
      "name": "setPayoutTimes",
      "outputs": [],
      "stateMutability": "nonpayable",
      "type": "function"
    },
    {
      "inputs": [
        {
          "internalType": "address",
          "name": "_portfolioManager",
          "type": "address"
        }
      ],
      "name": "setPortfolioManager",
      "outputs": [],
      "stateMutability": "nonpayable",
      "type": "function"
    },
    {
      "inputs": [
        {
          "internalType": "uint256",
          "name": "_fee",
          "type": "uint256"
        },
        {
          "internalType": "uint256",
          "name": "_feeDenominator",
          "type": "uint256"
        }
      ],
      "name": "setRedeemFee",
      "outputs": [],
      "stateMutability": "nonpayable",
      "type": "function"
    },
    {
      "inputs": [
        {
          "internalType": "address",
          "name": "_usdPlus",
          "type": "address"
        },
        {
          "internalType": "address",
          "name": "_usdc",
          "type": "address"
        }
      ],
      "name": "setTokens",
      "outputs": [],
      "stateMutability": "nonpayable",
      "type": "function"
    },
    {
      "inputs": [
        {
          "internalType": "bytes4",
          "name": "interfaceId",
          "type": "bytes4"
        }
      ],
      "name": "supportsInterface",
      "outputs": [
        {
          "internalType": "bool",
          "name": "",
          "type": "bool"
        }
      ],
      "stateMutability": "view",
      "type": "function"
    },
    {
      "inputs": [],
      "name": "usdPlus",
      "outputs": [
        {
          "internalType": "contract UsdPlusToken",
          "name": "",
          "type": "address"
        }
      ],
      "stateMutability": "view",
      "type": "function"
    },
    {
      "inputs": [],
      "name": "usdc",
      "outputs": [
        {
          "internalType": "contract IERC20",
          "name": "",
          "type": "address"
        }
      ],
      "stateMutability": "view",
      "type": "function"
    }
  ],
  "transactionHash": "0xee2f546dec6ff06ae90d52678d0750a51c63a218741721c1daa0571a6f3d911c",
  "args": [],
  "solcInputHash": "a52a09ed2b2706cd99c66d36846223b4",
  "bytecode": "0x60806040526028600555620186a06006556028600755620186a060085562017ed0600955620186a0600a556361959780600b5562015180600c55610384600d553480156200004c57600080fd5b506200005a60003362000060565b62000110565b6200006c828262000070565b5050565b6000828152602081815260408083206001600160a01b038516845290915290205460ff166200006c576000828152602081815260408083206001600160a01b03851684529091529020805460ff19166001179055620000cc3390565b6001600160a01b0316816001600160a01b0316837f2f8788117e7eff1d82e926ec794901d17c78024a50270940304540a733656f0d60405160405180910390a45050565b61240c80620001206000396000f3fe608060405234801561001057600080fd5b50600436106101f05760003560e01c80636d8ebaa81161010f578063cbc7854e116100a2578063d547741f11610071578063d547741f146103c8578063f3869e8d146103db578063f6951693146103ee578063fb0ecfa41461040157600080fd5b8063cbc7854e14610390578063cce7ec13146103a3578063ce1aa76b146103b6578063cecbbc07146103bf57600080fd5b8063a440b21a116100de578063a440b21a14610359578063b69ef8a81461036c578063bc56bebf14610374578063c12e90e91461038757600080fd5b80636d8ebaa81461032c57806391d1485414610335578063965fa21e14610348578063a217fddf1461035157600080fd5b80633704477111610187578063620b75df11610156578063620b75df146102fd578063627a439a1461031057806362f098951461032357806363bd1d4a1461025257600080fd5b806337044771146102a35780633e413bee146102b657806347062402146102e1578063514e460a146102ea57600080fd5b8063228cb733116101c3578063228cb73314610252578063248a9ca31461025a5780632f2ff15d1461027d57806336568abe1461029057600080fd5b806301ffc9a7146101f55780631894de0a1461021d5780631e9a6950146102345780632035320a14610249575b600080fd5b61020861020336600461208d565b610414565b60405190151581526020015b60405180910390f35b61022660095481565b604051908152602001610214565b610247610242366004611f35565b61044b565b005b610226600a5481565b610247610be6565b61022661026836600461204f565b60009081526020819052604090206001015490565b61024761028b366004612068565b610c17565b61024761029e366004612068565b610c42565b6102476102b1366004611edf565b610cc0565b6002546102c9906001600160a01b031681565b6040516001600160a01b039091168152602001610214565b61022660055481565b6001546102c9906001600160a01b031681565b6003546102c9906001600160a01b031681565b61024761031e3660046120d0565b610d62565b61022660065481565b610226600b5481565b610208610343366004612068565b610dee565b61022660075481565b610226600081565b610247610367366004611edf565b610e17565b610226610eb2565b6102476103823660046120d0565b610f33565b61022660085481565b61024761039e366004611efc565b610fb7565b6102476103b1366004611f35565b611091565b610226600c5481565b610226600d5481565b6102476103d6366004612068565b61148f565b6102476103e93660046120f2565b6114b5565b6004546102c9906001600160a01b031681565b61024761040f3660046120d0565b611637565b60006001600160e01b03198216637965db0b60e01b148061044557506301ffc9a760e01b6001600160e01b03198316145b92915050565b6002546001600160a01b038381169116146104c55760405162461bcd60e51b815260206004820152602f60248201527f4f6e6c79205553444320746f6b656e732063757272656e746c7920617661696c60448201526e61626c6520666f722072656465656d60881b60648201526084015b60405180910390fd5b6000600854600754836104d891906122df565b6104e291906122bd565b905060006104f082846122fe565b60408051828152602081018590529192507fa95a790e5c54b3292db47a5f1a6ff76b459c701961dfc6c7c88448e7a2b7024d910160405180910390a16040805160808082526006908201526572656465656d60d01b60a0820152602081018390529081018390523360608201527f50823024c91e825c5bec1552c988716271357a1b55f2759e0c1659c9e3f6340f9060c00160405180910390a1600154604080516318160ddd60e01b815290516000926001600160a01b0316916318160ddd916004808301926020929190829003018186803b1580156105cf57600080fd5b505afa1580156105e3573d6000803e3d6000fd5b505050506040513d601f19601f8201168201806040525081019061060791906120b7565b90506000600460009054906101000a90046001600160a01b03166001600160a01b0316638258c1326040518163ffffffff1660e01b815260040160206040518083038186803b15801561065957600080fd5b505afa15801561066d573d6000803e3d6000fd5b505050506040513d601f19601f8201168201806040525081019061069191906120b7565b90506106a264e8d4a51000826122bd565b90506000600a54600954846106b791906122df565b6106c191906122bd565b90508082101561097a57670de0b6b3a76400006000846106e187846122df565b6106eb91906122bd565b600154604051632770a7eb60e21b8152336004820152602481018b90529192506001600160a01b031690639dc29fac90604401600060405180830381600087803b15801561073857600080fd5b505af115801561074c573d6000803e3d6000fd5b5050600354604051634357d96360e01b81526004810185905260248101869052600093506001600160a01b039091169150634357d96390604401600060405180830381600087803b1580156107a057600080fd5b505af11580156107b4573d6000803e3d6000fd5b505050506040513d6000823e601f3d908101601f191682016040526107dc9190810190611f61565b905060005b81518160ff16101561096d576000828260ff168151811061080457610804612392565b60209081029190910101516040516370a0823160e01b81523060048201529091506000906001600160a01b038316906370a082319060240160206040518083038186803b15801561085457600080fd5b505afa158015610868573d6000803e3d6000fd5b505050506040513d601f19601f8201168201806040525081019061088c91906120b7565b905080156109585760405163a9059cbb60e01b8152336004820152602481018290526001600160a01b0383169063a9059cbb90604401602060405180830381600087803b1580156108dc57600080fd5b505af11580156108f0573d6000803e3d6000fd5b505050506040513d601f19601f82011682018060405250810190610914919061202d565b50604080516001600160a01b0384168152602081018390527f30322a55c7b6683edf027854413bfb9e4cf2ca88257b35d4d86d3cc5e20983fa910160405180910390a15b505080806109659061235c565b9150506107e1565b5050505050505050505050565b60035460405163f3fef3a360e01b81526001600160a01b03898116600483015260248201879052600092169063f3fef3a390604401602060405180830381600087803b1580156109c957600080fd5b505af11580156109dd573d6000803e3d6000fd5b505050506040513d601f19601f82011682018060405250810190610a0191906120b7565b600154604051632770a7eb60e21b8152336004820152602481018a90529192506001600160a01b031690639dc29fac90604401600060405180830381600087803b158015610a4e57600080fd5b505af1158015610a62573d6000803e3d6000fd5b50506040516370a0823160e01b81523060048201528392506001600160a01b038b1691506370a082319060240160206040518083038186803b158015610aa757600080fd5b505afa158015610abb573d6000803e3d6000fd5b505050506040513d601f19601f82011682018060405250810190610adf91906120b7565b1015610b3c5760405162461bcd60e51b815260206004820152602660248201527f4e6f7420656e6f75676820666f72207472616e7366657220756e7374616b6564604482015265105b5bdd5b9d60d21b60648201526084016104bc565b60405163a9059cbb60e01b8152336004820152602481018290526001600160a01b0389169063a9059cbb90604401602060405180830381600087803b158015610b8457600080fd5b505af1158015610b98573d6000803e3d6000fd5b505050506040513d601f19601f82011682018060405250810190610bbc919061202d565b50600d54600b54610bcd91906122a5565b421115610bdc57610bdc6116bb565b5050505050505050565b610bf1600033610dee565b610c0d5760405162461bcd60e51b81526004016104bc90612209565b610c156116bb565b565b600082815260208190526040902060010154610c338133611a4c565b610c3d8383611ab0565b505050565b6001600160a01b0381163314610cb25760405162461bcd60e51b815260206004820152602f60248201527f416363657373436f6e74726f6c3a2063616e206f6e6c792072656e6f756e636560448201526e103937b632b9903337b91039b2b63360891b60648201526084016104bc565b610cbc8282611b34565b5050565b610ccb600033610dee565b610ce75760405162461bcd60e51b81526004016104bc90612209565b6001600160a01b038116610d0d5760405162461bcd60e51b81526004016104bc90612237565b600480546001600160a01b0319166001600160a01b0383169081179091556040519081527f2387291c358bb5414b9fdcdfeb40efddb696908065a6533e47bf60b395f7dcfd906020015b60405180910390a150565b610d6d600033610dee565b610d895760405162461bcd60e51b81526004016104bc90612209565b80610da65760405162461bcd60e51b81526004016104bc9061226e565b6009829055600a81905560408051838152602081018390527f881f092820262a22fba50e9166960cf6c44bab16379b5286545e51242b627fe491015b60405180910390a15050565b6000918252602082815260408084206001600160a01b0393909316845291905290205460ff1690565b610e22600033610dee565b610e3e5760405162461bcd60e51b81526004016104bc90612209565b6001600160a01b038116610e645760405162461bcd60e51b81526004016104bc90612237565b600380546001600160a01b0319166001600160a01b0383169081179091556040519081527ff7b449fcd5cfb7379dcd34cb69428dd9f882033b15be33d83b42d91daa28eeb790602001610d57565b6001546040516370a0823160e01b81523360048201526000916001600160a01b0316906370a082319060240160206040518083038186803b158015610ef657600080fd5b505afa158015610f0a573d6000803e3d6000fd5b505050506040513d601f19601f82011682018060405250810190610f2e91906120b7565b905090565b610f3e600033610dee565b610f5a5760405162461bcd60e51b81526004016104bc90612209565b80610f775760405162461bcd60e51b81526004016104bc9061226e565b6007829055600881905560408051838152602081018390527f9fb7dbd1f2c1bd33dd68f78a38f699ff1ca487d7a7211ecc7df31d919f52043d9101610de2565b610fc2600033610dee565b610fde5760405162461bcd60e51b81526004016104bc90612209565b6001600160a01b0382166110045760405162461bcd60e51b81526004016104bc90612237565b6001600160a01b03811661102a5760405162461bcd60e51b81526004016104bc90612237565b600180546001600160a01b038481166001600160a01b03199283168117909355600280549185169190921681179091556040805192835260208301919091527fdcc6331013de89f8c595d5328f0a724194f113cb6f8f2a707b3dff6de13f0d179101610de2565b6002546001600160a01b038381169116146111035760405162461bcd60e51b815260206004820152602c60248201527f4f6e6c79205553444320746f6b656e732063757272656e746c7920617661696c60448201526b61626c6520666f722062757960a01b60648201526084016104bc565b6040516370a0823160e01b81523360048201526000906001600160a01b038416906370a082319060240160206040518083038186803b15801561114557600080fd5b505afa158015611159573d6000803e3d6000fd5b505050506040513d601f19601f8201168201806040525081019061117d91906120b7565b9050818110156111cf5760405162461bcd60e51b815260206004820152601860248201527f4e6f7420656e6f75676820746f6b656e7320746f20627579000000000000000060448201526064016104bc565b6040516323b872dd60e01b8152336004820152306024820152604481018390526001600160a01b038416906323b872dd90606401602060405180830381600087803b15801561121d57600080fd5b505af1158015611231573d6000803e3d6000fd5b505050506040513d601f19601f82011682018060405250810190611255919061202d565b5060006006546005548461126991906122df565b61127391906122bd565b9050600061128182856122fe565b60408051828152602081018590529192507fadcdce2403b31a56ae72c878c17b5cd8aaa8f5b92b7fe536355619df57a52387910160405180910390a16040805160808082526003908201526262757960e81b60a0820152602081018390529081018390523360608201527f50823024c91e825c5bec1552c988716271357a1b55f2759e0c1659c9e3f6340f9060c00160405180910390a16001546040516340c10f1960e01b8152336004820152602481018390526001600160a01b03909116906340c10f1990604401600060405180830381600087803b15801561136457600080fd5b505af1158015611378573d6000803e3d6000fd5b505060035460405163a9059cbb60e01b81526001600160a01b03918216600482015260248101889052908816925063a9059cbb9150604401602060405180830381600087803b1580156113ca57600080fd5b505af11580156113de573d6000803e3d6000fd5b505050506040513d601f19601f82011682018060405250810190611402919061202d565b506003546040516311f9fbc960e21b81526001600160a01b03878116600483015260248201879052909116906347e7ef2490604401600060405180830381600087803b15801561145157600080fd5b505af1158015611465573d6000803e3d6000fd5b50505050600d54600b5461147991906122a5565b421115611488576114886116bb565b5050505050565b6000828152602081905260409020600101546114ab8133611a4c565b610c3d8383611b34565b6114c0600033610dee565b6114dc5760405162461bcd60e51b81526004016104bc90612209565b826115295760405162461bcd60e51b815260206004820181905260248201527f5a65726f205f6e6578745061796f757454696d65206e6f7420616c6c6f77656460448201526064016104bc565b816115765760405162461bcd60e51b815260206004820152601e60248201527f5a65726f205f7061796f7574506572696f64206e6f7420616c6c6f776564000060448201526064016104bc565b8083116115e15760405162461bcd60e51b815260206004820152603360248201527f5f6e6578745061796f757454696d652073686f7564206265206d6f7265207468604482015272616e205f7061796f757454696d6552616e676560681b60648201526084016104bc565b600b839055600c829055600d81905560408051848152602081018490529081018290527f182705f356ea3bbbd12c7b4761586a554d391a7703345f81166bbe3f94644499906060015b60405180910390a1505050565b611642600033610dee565b61165e5760405162461bcd60e51b81526004016104bc90612209565b8061167b5760405162461bcd60e51b81526004016104bc9061226e565b6005829055600681905560408051838152602081018390527f28e297c7c282931a994191b735b01eaf17558295f761512a7047f4e1b8dc3b0b9101610de2565b600b54600d546116cb90426122a5565b10156116d357565b600360009054906101000a90046001600160a01b03166001600160a01b031663372500ab6040518163ffffffff1660e01b8152600401600060405180830381600087803b15801561172357600080fd5b505af1158015611737573d6000803e3d6000fd5b50505050600360009054906101000a90046001600160a01b03166001600160a01b031663b69f88c86040518163ffffffff1660e01b8152600401600060405180830381600087803b15801561178b57600080fd5b505af115801561179f573d6000803e3d6000fd5b505050506000600160009054906101000a90046001600160a01b03166001600160a01b031663b1bf962d6040518163ffffffff1660e01b815260040160206040518083038186803b1580156117f357600080fd5b505afa158015611807573d6000803e3d6000fd5b505050506040513d601f19601f8201168201806040525081019061182b91906120b7565b9050600061183882611b99565b90506000600460009054906101000a90046001600160a01b03166001600160a01b0316638258c1326040518163ffffffff1660e01b815260040160206040518083038186803b15801561188a57600080fd5b505afa15801561189e573d6000803e3d6000fd5b505050506040513d601f19601f820116820180604052508101906118c291906120b7565b90506118d364e8d4a51000826122bd565b90508181116119125760408051838152602081018390527f6f03fdabf199265f9c1bb8df8073cedfaa615c6b0d7a58b90c21ba785de11ed4910161162a565b600061191e83836122fe565b9050600061192b83611c21565b905060006119398287611c60565b60015460405163b2be259160e01b8152600481018390529192506001600160a01b03169063b2be259190602401600060405180830381600087803b15801561198057600080fd5b505af1158015611994573d6000803e3d6000fd5b505060408051888152602081018890529081018690527ff7ff37e6b4c48cabf32cb4544f2a160417b909cd2e4701697da78722d0e9d0ee9250606001905060405180910390a15b600d54600b546119eb91906122fe565b4210611a0957600c54600b54611a0191906122a5565b600b556119db565b7f6654b7187a0560c4c326844142156c2adf52738d0a615487e0e2a5cd9823c2c4600b54604051611a3c91815260200190565b60405180910390a1505050505050565b611a568282610dee565b610cbc57611a6e816001600160a01b03166014611d2c565b611a79836020611d2c565b604051602001611a8a92919061211e565b60408051601f198184030181529082905262461bcd60e51b82526104bc91600401612193565b611aba8282610dee565b610cbc576000828152602081815260408083206001600160a01b03851684529091529020805460ff19166001179055611af03390565b6001600160a01b0316816001600160a01b0316837f2f8788117e7eff1d82e926ec794901d17c78024a50270940304540a733656f0d60405160405180910390a45050565b611b3e8282610dee565b15610cbc576000828152602081815260408083206001600160a01b0385168085529252808320805460ff1916905551339285917ff6391f5c32d9c69d2a47ea670b442974b53935d1edc7fd64eb21e047a839171b9190a45050565b600080611bab6002633b9aca006122bd565b90506000611bb984836122a5565b905081811015611c0b5760405162461bcd60e51b815260206004820152601d60248201527f4572726f72732e4d4154485f4144444954494f4e5f4f564552464c4f5700000060448201526064016104bc565b611c19633b9aca00826122bd565b949350505050565b600080611c32633b9aca00846122df565b905082611c43633b9aca00836122bd565b146104455760405162461bcd60e51b81526004016104bc906121c6565b600081611caf5760405162461bcd60e51b815260206004820152601c60248201527f4572726f72732e4d4154485f4449564953494f4e5f42595f5a45524f0000000060448201526064016104bc565b6000611cbc6002846122bd565b90506b033b2e3c9fd0803ce8000000611cd7826000196122fe565b611ce191906122bd565b841115611d005760405162461bcd60e51b81526004016104bc906121c6565b8281611d186b033b2e3c9fd0803ce8000000876122df565b611d2291906122a5565b611c1991906122bd565b60606000611d3b8360026122df565b611d469060026122a5565b67ffffffffffffffff811115611d5e57611d5e6123a8565b6040519080825280601f01601f191660200182016040528015611d88576020820181803683370190505b509050600360fc1b81600081518110611da357611da3612392565b60200101906001600160f81b031916908160001a905350600f60fb1b81600181518110611dd257611dd2612392565b60200101906001600160f81b031916908160001a9053506000611df68460026122df565b611e019060016122a5565b90505b6001811115611e79576f181899199a1a9b1b9c1cb0b131b232b360811b85600f1660108110611e3557611e35612392565b1a60f81b828281518110611e4b57611e4b612392565b60200101906001600160f81b031916908160001a90535060049490941c93611e7281612345565b9050611e04565b508315611ec85760405162461bcd60e51b815260206004820181905260248201527f537472696e67733a20686578206c656e67746820696e73756666696369656e7460448201526064016104bc565b9392505050565b8051611eda816123be565b919050565b600060208284031215611ef157600080fd5b8135611ec8816123be565b60008060408385031215611f0f57600080fd5b8235611f1a816123be565b91506020830135611f2a816123be565b809150509250929050565b60008060408385031215611f4857600080fd5b8235611f53816123be565b946020939093013593505050565b60006020808385031215611f7457600080fd5b825167ffffffffffffffff80821115611f8c57600080fd5b818501915085601f830112611fa057600080fd5b815181811115611fb257611fb26123a8565b8060051b604051601f19603f83011681018181108582111715611fd757611fd76123a8565b604052828152858101935084860182860187018a1015611ff657600080fd5b600095505b838610156120205761200c81611ecf565b855260019590950194938601938601611ffb565b5098975050505050505050565b60006020828403121561203f57600080fd5b81518015158114611ec857600080fd5b60006020828403121561206157600080fd5b5035919050565b6000806040838503121561207b57600080fd5b823591506020830135611f2a816123be565b60006020828403121561209f57600080fd5b81356001600160e01b031981168114611ec857600080fd5b6000602082840312156120c957600080fd5b5051919050565b600080604083850312156120e357600080fd5b50508035926020909101359150565b60008060006060848603121561210757600080fd5b505081359360208301359350604090920135919050565b7f416363657373436f6e74726f6c3a206163636f756e7420000000000000000000815260008351612156816017850160208801612315565b7001034b99036b4b9b9b4b733903937b6329607d1b6017918401918201528351612187816028840160208801612315565b01602801949350505050565b60208152600082518060208401526121b2816040850160208701612315565b601f01601f19169190910160400192915050565b60208082526023908201527f4572726f72732e4d4154485f4d554c5449504c49434154494f4e5f4f564552466040820152624c4f5760e81b606082015260800190565b6020808252601490820152735265737472696374656420746f2061646d696e7360601b604082015260600190565b60208082526018908201527f5a65726f2061646472657373206e6f7420616c6c6f7765640000000000000000604082015260600190565b6020808252601c908201527f5a65726f2064656e6f6d696e61746f72206e6f7420616c6c6f77656400000000604082015260600190565b600082198211156122b8576122b861237c565b500190565b6000826122da57634e487b7160e01b600052601260045260246000fd5b500490565b60008160001904831182151516156122f9576122f961237c565b500290565b6000828210156123105761231061237c565b500390565b60005b83811015612330578181015183820152602001612318565b8381111561233f576000848401525b50505050565b6000816123545761235461237c565b506000190190565b600060ff821660ff8114156123735761237361237c565b60010192915050565b634e487b7160e01b600052601160045260246000fd5b634e487b7160e01b600052603260045260246000fd5b634e487b7160e01b600052604160045260246000fd5b6001600160a01b03811681146123d357600080fd5b5056fea26469706673582212200855bd7dea9aa20a1f5c39ad33d6e7558e6a4ed4decae8c88777936c9f6766b164736f6c63430008060033",
  "devdoc": {
    "kind": "dev",
    "methods": {
      "getRoleAdmin(bytes32)": {
        "details": "Returns the admin role that controls `role`. See {grantRole} and {revokeRole}. To change a role's admin, use {_setRoleAdmin}."
      },
      "grantRole(bytes32,address)": {
        "details": "Grants `role` to `account`. If `account` had not been already granted `role`, emits a {RoleGranted} event. Requirements: - the caller must have ``role``'s admin role."
      },
      "hasRole(bytes32,address)": {
        "details": "Returns `true` if `account` has been granted `role`."
      },
      "redeem(address,uint256)": {
        "params": {
          "_addrTok": "Token to withdraw",
          "_amount": "Amount of OVN tokens to burn"
        }
      },
      "renounceRole(bytes32,address)": {
        "details": "Revokes `role` from the calling account. Roles are often managed via {grantRole} and {revokeRole}: this function's purpose is to provide a mechanism for accounts to lose their privileges if they are compromised (such as when a trusted device is misplaced). If the calling account had been revoked `role`, emits a {RoleRevoked} event. Requirements: - the caller must be `account`."
      },
      "revokeRole(bytes32,address)": {
        "details": "Revokes `role` from `account`. If `account` had been granted `role`, emits a {RoleRevoked} event. Requirements: - the caller must have ``role``'s admin role."
      },
      "supportsInterface(bytes4)": {
        "details": "See {IERC165-supportsInterface}."
      }
    },
    "version": 1
  },
  "userdoc": {
    "kind": "user",
    "methods": {},
    "version": 1
  },
  "storageLayout": {
    "storage": [
      {
        "astId": 24,
        "contract": "contracts/Exchange.sol:Exchange",
        "label": "_roles",
        "offset": 0,
        "slot": "0",
        "type": "t_mapping(t_bytes32,t_struct(RoleData)19_storage)"
      },
      {
        "astId": 8356,
        "contract": "contracts/Exchange.sol:Exchange",
        "label": "usdPlus",
        "offset": 0,
        "slot": "1",
        "type": "t_contract(UsdPlusToken)11194"
      },
      {
        "astId": 8359,
        "contract": "contracts/Exchange.sol:Exchange",
        "label": "usdc",
        "offset": 0,
        "slot": "2",
        "type": "t_contract(IERC20)4667"
      },
      {
        "astId": 8362,
        "contract": "contracts/Exchange.sol:Exchange",
        "label": "portfolioManager",
        "offset": 0,
        "slot": "3",
        "type": "t_contract(PortfolioManager)10584"
      },
      {
        "astId": 8365,
        "contract": "contracts/Exchange.sol:Exchange",
        "label": "mark2market",
        "offset": 0,
        "slot": "4",
        "type": "t_contract(IMark2Market)15911"
      },
      {
        "astId": 8368,
        "contract": "contracts/Exchange.sol:Exchange",
        "label": "buyFee",
        "offset": 0,
        "slot": "5",
        "type": "t_uint256"
      },
      {
        "astId": 8371,
        "contract": "contracts/Exchange.sol:Exchange",
        "label": "buyFeeDenominator",
        "offset": 0,
        "slot": "6",
        "type": "t_uint256"
      },
      {
        "astId": 8374,
        "contract": "contracts/Exchange.sol:Exchange",
        "label": "redeemFee",
        "offset": 0,
        "slot": "7",
        "type": "t_uint256"
      },
      {
        "astId": 8377,
        "contract": "contracts/Exchange.sol:Exchange",
        "label": "redeemFeeDenominator",
        "offset": 0,
        "slot": "8",
        "type": "t_uint256"
      },
      {
        "astId": 8380,
        "contract": "contracts/Exchange.sol:Exchange",
        "label": "notEnoughLimit",
        "offset": 0,
        "slot": "9",
        "type": "t_uint256"
      },
      {
        "astId": 8383,
        "contract": "contracts/Exchange.sol:Exchange",
        "label": "notEnoughLimitDenominator",
        "offset": 0,
        "slot": "10",
        "type": "t_uint256"
      },
      {
        "astId": 8386,
        "contract": "contracts/Exchange.sol:Exchange",
        "label": "nextPayoutTime",
        "offset": 0,
        "slot": "11",
        "type": "t_uint256"
      },
      {
        "astId": 8393,
        "contract": "contracts/Exchange.sol:Exchange",
        "label": "payoutPeriod",
        "offset": 0,
        "slot": "12",
        "type": "t_uint256"
      },
      {
        "astId": 8398,
        "contract": "contracts/Exchange.sol:Exchange",
        "label": "payoutTimeRange",
        "offset": 0,
        "slot": "13",
        "type": "t_uint256"
      }
    ],
    "types": {
      "t_address": {
        "encoding": "inplace",
        "label": "address",
        "numberOfBytes": "20"
      },
      "t_bool": {
        "encoding": "inplace",
        "label": "bool",
        "numberOfBytes": "1"
      },
      "t_bytes32": {
        "encoding": "inplace",
        "label": "bytes32",
        "numberOfBytes": "32"
      },
      "t_contract(IERC20)4667": {
        "encoding": "inplace",
        "label": "contract IERC20",
        "numberOfBytes": "20"
      },
      "t_contract(IMark2Market)15911": {
        "encoding": "inplace",
        "label": "contract IMark2Market",
        "numberOfBytes": "20"
      },
      "t_contract(PortfolioManager)10584": {
        "encoding": "inplace",
        "label": "contract PortfolioManager",
        "numberOfBytes": "20"
      },
      "t_contract(UsdPlusToken)11194": {
        "encoding": "inplace",
        "label": "contract UsdPlusToken",
        "numberOfBytes": "20"
      },
      "t_mapping(t_address,t_bool)": {
        "encoding": "mapping",
        "key": "t_address",
        "label": "mapping(address => bool)",
        "numberOfBytes": "32",
        "value": "t_bool"
      },
      "t_mapping(t_bytes32,t_struct(RoleData)19_storage)": {
        "encoding": "mapping",
        "key": "t_bytes32",
        "label": "mapping(bytes32 => struct AccessControl.RoleData)",
        "numberOfBytes": "32",
        "value": "t_struct(RoleData)19_storage"
      },
      "t_struct(RoleData)19_storage": {
        "encoding": "inplace",
        "label": "struct AccessControl.RoleData",
        "members": [
          {
            "astId": 16,
            "contract": "contracts/Exchange.sol:Exchange",
            "label": "members",
            "offset": 0,
            "slot": "0",
            "type": "t_mapping(t_address,t_bool)"
          },
          {
            "astId": 18,
            "contract": "contracts/Exchange.sol:Exchange",
            "label": "adminRole",
            "offset": 0,
            "slot": "1",
            "type": "t_bytes32"
          }
        ],
        "numberOfBytes": "64"
      },
      "t_uint256": {
        "encoding": "inplace",
        "label": "uint256",
        "numberOfBytes": "32"
      }
    }
  }
}