{
  "address": "0x24B35094297FBd9e6Ac4b0a54c6C41e8d3152dcb",
  "abi": [
    {
      "anonymous": false,
      "inputs": [
        {
          "indexed": false,
          "internalType": "string",
          "name": "str",
          "type": "string"
        }
      ],
      "name": "ConsoleLog",
      "type": "event"
    },
    {
      "anonymous": false,
      "inputs": [
        {
          "indexed": true,
          "internalType": "address",
          "name": "previousOwner",
          "type": "address"
        },
        {
          "indexed": true,
          "internalType": "address",
          "name": "newOwner",
          "type": "address"
        }
      ],
      "name": "OwnershipTransferred",
      "type": "event"
    },
    {
      "inputs": [],
      "name": "assetPrices",
      "outputs": [
        {
          "components": [
            {
              "components": [
                {
                  "internalType": "address",
                  "name": "asset",
                  "type": "address"
                },
                {
                  "internalType": "uint256",
                  "name": "amountInVault",
                  "type": "uint256"
                },
                {
                  "internalType": "uint256",
                  "name": "usdcPriceInVault",
                  "type": "uint256"
                },
                {
                  "internalType": "uint256",
                  "name": "diffToTarget",
                  "type": "uint256"
                },
                {
                  "internalType": "int8",
                  "name": "diffToTargetSign",
                  "type": "int8"
                },
                {
                  "internalType": "bool",
                  "name": "targetIsZero",
                  "type": "bool"
                },
                {
                  "internalType": "uint256",
                  "name": "usdcPriceDenominator",
                  "type": "uint256"
                },
                {
                  "internalType": "uint256",
                  "name": "usdcSellPrice",
                  "type": "uint256"
                },
                {
                  "internalType": "uint256",
                  "name": "usdcBuyPrice",
                  "type": "uint256"
                },
                {
                  "internalType": "uint256",
                  "name": "decimals",
                  "type": "uint256"
                },
                {
                  "internalType": "string",
                  "name": "name",
                  "type": "string"
                },
                {
                  "internalType": "string",
                  "name": "symbol",
                  "type": "string"
                }
              ],
              "internalType": "struct IMark2Market.AssetPrices[]",
              "name": "assetPrices",
              "type": "tuple[]"
            },
            {
              "internalType": "uint256",
              "name": "totalUsdcPrice",
              "type": "uint256"
            }
          ],
          "internalType": "struct IMark2Market.TotalAssetPrices",
          "name": "",
          "type": "tuple"
        }
      ],
      "stateMutability": "view",
      "type": "function"
    },
    {
      "inputs": [],
      "name": "assetPricesForBalance",
      "outputs": [
        {
          "components": [
            {
              "components": [
                {
                  "internalType": "address",
                  "name": "asset",
                  "type": "address"
                },
                {
                  "internalType": "uint256",
                  "name": "amountInVault",
                  "type": "uint256"
                },
                {
                  "internalType": "uint256",
                  "name": "usdcPriceInVault",
                  "type": "uint256"
                },
                {
                  "internalType": "uint256",
                  "name": "diffToTarget",
                  "type": "uint256"
                },
                {
                  "internalType": "int8",
                  "name": "diffToTargetSign",
                  "type": "int8"
                },
                {
                  "internalType": "bool",
                  "name": "targetIsZero",
                  "type": "bool"
                },
                {
                  "internalType": "uint256",
                  "name": "usdcPriceDenominator",
                  "type": "uint256"
                },
                {
                  "internalType": "uint256",
                  "name": "usdcSellPrice",
                  "type": "uint256"
                },
                {
                  "internalType": "uint256",
                  "name": "usdcBuyPrice",
                  "type": "uint256"
                },
                {
                  "internalType": "uint256",
                  "name": "decimals",
                  "type": "uint256"
                },
                {
                  "internalType": "string",
                  "name": "name",
                  "type": "string"
                },
                {
                  "internalType": "string",
                  "name": "symbol",
                  "type": "string"
                }
              ],
              "internalType": "struct IMark2Market.AssetPrices[]",
              "name": "assetPrices",
              "type": "tuple[]"
            },
            {
              "internalType": "uint256",
              "name": "totalUsdcPrice",
              "type": "uint256"
            }
          ],
          "internalType": "struct IMark2Market.TotalAssetPrices",
          "name": "",
          "type": "tuple"
        }
      ],
      "stateMutability": "nonpayable",
      "type": "function"
    },
    {
      "inputs": [
        {
          "internalType": "address",
          "name": "withdrawToken",
          "type": "address"
        },
        {
          "internalType": "uint256",
          "name": "withdrawAmount",
          "type": "uint256"
        }
      ],
      "name": "assetPricesForBalance",
      "outputs": [
        {
          "components": [
            {
              "components": [
                {
                  "internalType": "address",
                  "name": "asset",
                  "type": "address"
                },
                {
                  "internalType": "uint256",
                  "name": "amountInVault",
                  "type": "uint256"
                },
                {
                  "internalType": "uint256",
                  "name": "usdcPriceInVault",
                  "type": "uint256"
                },
                {
                  "internalType": "uint256",
                  "name": "diffToTarget",
                  "type": "uint256"
                },
                {
                  "internalType": "int8",
                  "name": "diffToTargetSign",
                  "type": "int8"
                },
                {
                  "internalType": "bool",
                  "name": "targetIsZero",
                  "type": "bool"
                },
                {
                  "internalType": "uint256",
                  "name": "usdcPriceDenominator",
                  "type": "uint256"
                },
                {
                  "internalType": "uint256",
                  "name": "usdcSellPrice",
                  "type": "uint256"
                },
                {
                  "internalType": "uint256",
                  "name": "usdcBuyPrice",
                  "type": "uint256"
                },
                {
                  "internalType": "uint256",
                  "name": "decimals",
                  "type": "uint256"
                },
                {
                  "internalType": "string",
                  "name": "name",
                  "type": "string"
                },
                {
                  "internalType": "string",
                  "name": "symbol",
                  "type": "string"
                }
              ],
              "internalType": "struct IMark2Market.AssetPrices[]",
              "name": "assetPrices",
              "type": "tuple[]"
            },
            {
              "internalType": "uint256",
              "name": "totalUsdcPrice",
              "type": "uint256"
            }
          ],
          "internalType": "struct IMark2Market.TotalAssetPrices",
          "name": "",
          "type": "tuple"
        }
      ],
      "stateMutability": "nonpayable",
      "type": "function"
    },
    {
      "inputs": [
        {
          "internalType": "address",
          "name": "_vault",
          "type": "address"
        },
        {
          "internalType": "address",
          "name": "_investmentPortfolio",
          "type": "address"
        }
      ],
      "name": "init",
      "outputs": [],
      "stateMutability": "nonpayable",
      "type": "function"
    },
    {
      "inputs": [],
      "name": "investmentPortfolio",
      "outputs": [
        {
          "internalType": "contract InvestmentPortfolio",
          "name": "",
          "type": "address"
        }
      ],
      "stateMutability": "view",
      "type": "function"
    },
    {
      "inputs": [],
      "name": "owner",
      "outputs": [
        {
          "internalType": "address",
          "name": "",
          "type": "address"
        }
      ],
      "stateMutability": "view",
      "type": "function"
    },
    {
      "inputs": [],
      "name": "renounceOwnership",
      "outputs": [],
      "stateMutability": "nonpayable",
      "type": "function"
    },
    {
      "inputs": [
        {
          "internalType": "bytes32",
          "name": "",
          "type": "bytes32"
        }
      ],
      "name": "rolemap",
      "outputs": [
        {
          "internalType": "address",
          "name": "",
          "type": "address"
        }
      ],
      "stateMutability": "view",
      "type": "function"
    },
    {
      "inputs": [
        {
          "internalType": "bytes32",
          "name": "_role",
          "type": "bytes32"
        },
        {
          "internalType": "address",
          "name": "_actor",
          "type": "address"
        }
      ],
      "name": "setRole",
      "outputs": [],
      "stateMutability": "nonpayable",
      "type": "function"
    },
    {
      "inputs": [
        {
          "internalType": "address",
          "name": "newOwner",
          "type": "address"
        }
      ],
      "name": "transferOwnership",
      "outputs": [],
      "stateMutability": "nonpayable",
      "type": "function"
    },
    {
      "inputs": [],
      "name": "vault",
      "outputs": [
        {
          "internalType": "contract Vault",
          "name": "",
          "type": "address"
        }
      ],
      "stateMutability": "view",
      "type": "function"
    }
  ],
  "transactionHash": "0xc7661a3f1e6ed28cd6aa80d73504ba923900bf4d17aa7253347fec80de52e511",
  "args": [],
  "solcInputHash": "4b2c02ad00a20f5dc92f2cdd9d4eb77f",
  "bytecode": "0x608060405234801561001057600080fd5b5061001a3361001f565b6100c9565b6001600160a01b0381166100795760405162461bcd60e51b815260206004820152601860248201527f5a65726f2061646472657373206e6f7420616c6c6f7765640000000000000000604482015260640160405180910390fd5b600080546001600160a01b038381166001600160a01b0319831681178455604051919092169283917f8be0079c531659141344cd1fd0a4f28419497f9722a3daafe3b4186f6b6457e09190a35050565b6121c5806100d86000396000f3fe608060405234801561001057600080fd5b50600436106100a95760003560e01c80638da5cb5b116100715780638da5cb5b146101395780639a707d871461014a578063dff8720314610152578063f09a401614610165578063f2fde38b14610178578063fbfa77cf1461018b57600080fd5b80630f1d897d146100ae5780632dc10a54146100de57806358a8316c14610107578063715018a61461011c578063734bd75d14610126575b600080fd5b6003546100c1906001600160a01b031681565b6040516001600160a01b0390911681526020015b60405180910390f35b6100c16100ec366004611b14565b6001602052600090815260409020546001600160a01b031681565b61010f61019e565b6040516100d59190611da0565b6101246101c3565b005b61010f6101343660046119ad565b610202565b6000546001600160a01b03166100c1565b61010f610aa9565b610124610160366004611b2d565b61109f565b610124610173366004611974565b61111d565b610124610186366004611950565b6111c1565b6002546100c1906001600160a01b031681565b6040805180820190915260608152600060208201526101be600080610202565b905090565b6000546001600160a01b031633146101f65760405162461bcd60e51b81526004016101ed90611d26565b60405180910390fd5b61020060006111f7565b565b6040805180820190915260608152600060208201526001600160a01b038316156102bf576000836001600160a01b031663313ce5676040518163ffffffff1660e01b815260040160206040518083038186803b15801561026157600080fd5b505afa158015610275573d6000803e3d6000fd5b505050506040513d601f19601f820116820180604052508101906102999190611c2e565b6102a490601261205f565b6102af90600a611f7e565b90506102bb8184612029565b9250505b60035460408051630ffe53c160e21b815290516000926001600160a01b031691633ff94f049160048083019286929190829003018186803b15801561030357600080fd5b505afa158015610317573d6000803e3d6000fd5b505050506040513d6000823e601f3d908101601f1916820160405261033f9190810190611a7f565b8051909150600090818167ffffffffffffffff81111561036157610361612143565b60405190808252806020026020018201604052801561039a57816020015b61038761180c565b81526020019060019003908161037f5790505b50905060005b828160ff161015610907576000858260ff16815181106103c2576103c261212d565b602090810291909101015180516002546040516370a0823160e01b81526001600160a01b0391821660048201529293506000929116906370a082319060240160206040518083038186803b15801561041957600080fd5b505afa15801561042d573d6000803e3d6000fd5b505050506040513d601f19601f820116820180604052508101906104519190611c15565b9050600082600001516001600160a01b031663313ce5676040518163ffffffff1660e01b815260040160206040518083038186803b15801561049257600080fd5b505afa1580156104a6573d6000803e3d6000fd5b505050506040513d601f19601f820116820180604052508101906104ca9190611c2e565b6104d590601261205f565b6104e090600a611f7e565b90506104ec8183612029565b60035484516040516357d6970b60e11b81526001600160a01b03918216600482015292945060009291169063afad2e1690602401604080518083038186803b15801561053757600080fd5b505afa15801561054b573d6000803e3d6000fd5b505050506040513d601f19601f8201168201806040525081019061056f9190611bdd565b90506000816020015190506000816001600160a01b03166396ce07956040518163ffffffff1660e01b815260040160206040518083038186803b1580156105b557600080fd5b505afa1580156105c9573d6000803e3d6000fd5b505050506040513d601f19601f820116820180604052508101906105ed9190611c15565b90506000826001600160a01b0316632b8455f16040518163ffffffff1660e01b815260040160206040518083038186803b15801561062a57600080fd5b505afa15801561063e573d6000803e3d6000fd5b505050506040513d601f19601f820116820180604052508101906106629190611c15565b90506000836001600160a01b031663ea2497846040518163ffffffff1660e01b815260040160206040518083038186803b15801561069f57600080fd5b505afa1580156106b3573d6000803e3d6000fd5b505050506040513d601f19601f820116820180604052508101906106d79190611c15565b90506000836106e6848a612029565b6106f09190611f27565b90506106fc818e611f0f565b9c506040518061018001604052808a600001516001600160a01b03168152602001898152602001828152602001600081526020016000800b81526020016000151581526020018581526020018481526020018381526020018a600001516001600160a01b031663313ce5676040518163ffffffff1660e01b815260040160206040518083038186803b15801561079157600080fd5b505afa1580156107a5573d6000803e3d6000fd5b505050506040513d601f19601f820116820180604052508101906107c99190611c2e565b60ff1681526020018a600001516001600160a01b03166306fdde036040518163ffffffff1660e01b815260040160006040518083038186803b15801561080e57600080fd5b505afa158015610822573d6000803e3d6000fd5b505050506040513d6000823e601f3d908101601f1916820160405261084a9190810190611b52565b81526020018a600001516001600160a01b03166395d89b416040518163ffffffff1660e01b815260040160006040518083038186803b15801561088c57600080fd5b505afa1580156108a0573d6000803e3d6000fd5b505050506040513d6000823e601f3d908101601f191682016040526108c89190810190611b52565b8152508b8b60ff16815181106108e0576108e061212d565b602002602001018190525050505050505050505080806108ff906120cd565b9150506103a0565b50858310156109158761126d565b61091e8561126d565b60405160200161092f929190611cac565b6040516020818303038152906040529061095c5760405162461bcd60e51b81526004016101ed9190611d13565b506109678684612048565b925061098b60405180606001604052806021815260200161216f6021913984611375565b60005b828160ff161015610a88576000828260ff16815181106109b0576109b061212d565b602002602001015190506109c88582600001516113d7565b151560a0840152600090810b900b608083015260608201528715801590610a045750886001600160a01b031681600001516001600160a01b0316145b15610a75576000816080015160000b1215610a5f578781606001511115610a3f57878160600151610a359190612048565b6060820152610a75565b6060810151610a4e9089612048565b606082015260016080820152610a75565b878160600151610a6f9190611f0f565b60608201525b5080610a80816120cd565b91505061098e565b50604080518082019091529081526020810192909252509150505b92915050565b6040805180820190915260608152600060208201526003546040805163035d61bf60e31b815290516000926001600160a01b031691631aeb0df89160048083019286929190829003018186803b158015610b0257600080fd5b505afa158015610b16573d6000803e3d6000fd5b505050506040513d6000823e601f3d908101601f19168201604052610b3e91908101906119d9565b8051909150600090818167ffffffffffffffff811115610b6057610b60612143565b604051908082528060200260200182016040528015610b9957816020015b610b8661180c565b815260200190600190039081610b7e5790505b50905060005b828160ff161015611082576000858260ff1681518110610bc157610bc161212d565b602090810291909101015180516002546040516370a0823160e01b81526001600160a01b0391821660048201529293506000929116906370a082319060240160206040518083038186803b158015610c1857600080fd5b505afa158015610c2c573d6000803e3d6000fd5b505050506040513d601f19601f82011682018060405250810190610c509190611c15565b9050600082600001516001600160a01b031663313ce5676040518163ffffffff1660e01b815260040160206040518083038186803b158015610c9157600080fd5b505afa158015610ca5573d6000803e3d6000fd5b505050506040513d601f19601f82011682018060405250810190610cc99190611c2e565b610cd490601261205f565b610cdf90600a611f7e565b9050610ceb8183612029565b91506000836020015190506000816001600160a01b03166396ce07956040518163ffffffff1660e01b815260040160206040518083038186803b158015610d3157600080fd5b505afa158015610d45573d6000803e3d6000fd5b505050506040513d601f19601f82011682018060405250810190610d699190611c15565b90506000826001600160a01b0316632b8455f16040518163ffffffff1660e01b815260040160206040518083038186803b158015610da657600080fd5b505afa158015610dba573d6000803e3d6000fd5b505050506040513d601f19601f82011682018060405250810190610dde9190611c15565b90506000836001600160a01b031663ea2497846040518163ffffffff1660e01b815260040160206040518083038186803b158015610e1b57600080fd5b505afa158015610e2f573d6000803e3d6000fd5b505050506040513d601f19601f82011682018060405250810190610e539190611c15565b9050600083610e628489612029565b610e6c9190611f27565b9050610e78818d611f0f565b9b5060405180610180016040528089600001516001600160a01b03168152602001888152602001828152602001600081526020016000800b815260200160001515815260200185815260200184815260200183815260200189600001516001600160a01b031663313ce5676040518163ffffffff1660e01b815260040160206040518083038186803b158015610f0d57600080fd5b505afa158015610f21573d6000803e3d6000fd5b505050506040513d601f19601f82011682018060405250810190610f459190611c2e565b60ff16815260200189600001516001600160a01b03166306fdde036040518163ffffffff1660e01b815260040160006040518083038186803b158015610f8a57600080fd5b505afa158015610f9e573d6000803e3d6000fd5b505050506040513d6000823e601f3d908101601f19168201604052610fc69190810190611b52565b815260200189600001516001600160a01b03166395d89b416040518163ffffffff1660e01b815260040160006040518083038186803b15801561100857600080fd5b505afa15801561101c573d6000803e3d6000fd5b505050506040513d6000823e601f3d908101601f191682016040526110449190810190611b52565b8152508a8a60ff168151811061105c5761105c61212d565b60200260200101819052505050505050505050808061107a906120cd565b915050610b9f565b506040805180820190915290815260208101929092525092915050565b6000546001600160a01b031633146110c95760405162461bcd60e51b81526004016101ed90611d26565b6001600160a01b0381166110ef5760405162461bcd60e51b81526004016101ed90611d69565b60009182526001602052604090912080546001600160a01b0319166001600160a01b03909216919091179055565b6000546001600160a01b031633146111475760405162461bcd60e51b81526004016101ed90611d26565b6001600160a01b03821661116d5760405162461bcd60e51b81526004016101ed90611d69565b6001600160a01b0381166111935760405162461bcd60e51b81526004016101ed90611d69565b600280546001600160a01b039384166001600160a01b03199182161790915560038054929093169116179055565b6000546001600160a01b031633146111eb5760405162461bcd60e51b81526004016101ed90611d26565b6111f4816111f7565b50565b6001600160a01b03811661121d5760405162461bcd60e51b81526004016101ed90611d69565b600080546001600160a01b038381166001600160a01b0319831681178455604051919092169283917f8be0079c531659141344cd1fd0a4f28419497f9722a3daafe3b4186f6b6457e09190a35050565b6060816112915750506040805180820190915260018152600360fc1b602082015290565b8160005b81156112bb57806112a5816120b2565b91506112b49050600a83611f27565b9150611295565b60008167ffffffffffffffff8111156112d6576112d6612143565b6040519080825280601f01601f191660200182016040528015611300576020820181803683370190505b509050815b851561136c57611316600182612048565b9050611323600a876120ed565b61132e906030611f0f565b60f81b8282815181106113435761134361212d565b60200101906001600160f81b031916908160001a905350611365600a87611f27565b9550611305565b50949350505050565b7f0f8db0708c4e6b233e2c285fe1ed66015dee71bd374ac8e835534be5f592d6a2826113a08361126d565b6040516020016113b1929190611c7d565b60408051601f19818403018152908290526113cb91611d13565b60405180910390a15050565b6003546040516303a7e9db60e41b81526001600160a01b0383811660048301526000928392839283921690633a7e9db09060240160806040518083038186803b15801561142357600080fd5b505afa158015611437573d6000803e3d6000fd5b505050506040513d601f19601f8201168201806040525081019061145b9190611bf9565b90506000600360009054906101000a90046001600160a01b03166001600160a01b031663ed2a2f9d6040518163ffffffff1660e01b815260040160206040518083038186803b1580156114ad57600080fd5b505afa1580156114c1573d6000803e3d6000fd5b505050506040513d601f19601f820116820180604052508101906114e59190611c15565b60408301516114f49089612029565b6114fe9190611f27565b6003546040516357d6970b60e11b81526001600160a01b0389811660048301529293506000929091169063afad2e1690602401604080518083038186803b15801561154857600080fd5b505afa15801561155c573d6000803e3d6000fd5b505050506040513d601f19601f820116820180604052508101906115809190611bdd565b90506000816020015190506000816001600160a01b03166396ce07956040518163ffffffff1660e01b815260040160206040518083038186803b1580156115c657600080fd5b505afa1580156115da573d6000803e3d6000fd5b505050506040513d601f19601f820116820180604052508101906115fe9190611c15565b90506000826001600160a01b031663ea2497846040518163ffffffff1660e01b815260040160206040518083038186803b15801561163b57600080fd5b505afa15801561164f573d6000803e3d6000fd5b505050506040513d601f19601f820116820180604052508101906116739190611c15565b90506000816116828488612029565b61168c9190611f27565b6002546040516370a0823160e01b81526001600160a01b039182166004820152919250600091908d16906370a082319060240160206040518083038186803b1580156116d757600080fd5b505afa1580156116eb573d6000803e3d6000fd5b505050506040513d601f19601f8201168201806040525081019061170f9190611c15565b905060008c6001600160a01b031663313ce5676040518163ffffffff1660e01b815260040160206040518083038186803b15801561174c57600080fd5b505afa158015611760573d6000803e3d6000fd5b505050506040513d601f19601f820116820180604052508101906117849190611c2e565b61178f90601261205f565b61179a90600a611f7e565b90506117a68183612029565b91506000836117b7575060016117bb565b5060005b8284106117e3576117cc8385612048565b9c5060019b50995061180598505050505050505050565b6117ed8484612048565b9c506000199b50995061180598505050505050505050565b9250925092565b60405180610180016040528060006001600160a01b031681526020016000815260200160008152602001600081526020016000800b81526020016000151581526020016000815260200160008152602001600081526020016000815260200160608152602001606081525090565b60006040828403121561188c57600080fd5b6040516040810181811067ffffffffffffffff821117156118af576118af612143565b806040525080915082516118c281612159565b815260208301516118d281612159565b6020919091015292915050565b6000608082840312156118f157600080fd5b6040516080810181811067ffffffffffffffff8211171561191457611914612143565b8060405250809150825161192781612159565b808252506020830151602082015260408301516040820152606083015160608201525092915050565b60006020828403121561196257600080fd5b813561196d81612159565b9392505050565b6000806040838503121561198757600080fd5b823561199281612159565b915060208301356119a281612159565b809150509250929050565b600080604083850312156119c057600080fd5b82356119cb81612159565b946020939093013593505050565b600060208083850312156119ec57600080fd5b825167ffffffffffffffff811115611a0357600080fd5b8301601f81018513611a1457600080fd5b8051611a27611a2282611eeb565b611eba565b80828252848201915084840188868560061b8701011115611a4757600080fd5b600094505b83851015611a7357611a5e898261187a565b83526001949094019391850191604001611a4c565b50979650505050505050565b60006020808385031215611a9257600080fd5b825167ffffffffffffffff811115611aa957600080fd5b8301601f81018513611aba57600080fd5b8051611ac8611a2282611eeb565b80828252848201915084840188868560071b8701011115611ae857600080fd5b600094505b83851015611a7357611aff89826118df565b83526001949094019391850191608001611aed565b600060208284031215611b2657600080fd5b5035919050565b60008060408385031215611b4057600080fd5b8235915060208301356119a281612159565b600060208284031215611b6457600080fd5b815167ffffffffffffffff80821115611b7c57600080fd5b818401915084601f830112611b9057600080fd5b815181811115611ba257611ba2612143565b611bb5601f8201601f1916602001611eba565b9150808252856020828501011115611bcc57600080fd5b61136c816020840160208601612082565b600060408284031215611bef57600080fd5b61196d838361187a565b600060808284031215611c0b57600080fd5b61196d83836118df565b600060208284031215611c2757600080fd5b5051919050565b600060208284031215611c4057600080fd5b815160ff8116811461196d57600080fd5b60008151808452611c69816020860160208601612082565b601f01601f19169290920160200192915050565b60008351611c8f818460208801612082565b835190830190611ca3818360208801612082565b01949350505050565b7f5769746864726177206d6f7265207468616e20746f74616c3a20000000000000815260008351611ce481601a850160208801612082565b620101f160ed1b601a918401918201528351611d0781601d840160208801612082565b01601d01949350505050565b60208152600061196d6020830184611c51565b60208082526023908201527f4f776e61626c654578743a2063616c6c6572206973206e6f7420746865206f776040820152623732b960e91b606082015260800190565b60208082526018908201527f5a65726f2061646472657373206e6f7420616c6c6f7765640000000000000000604082015260600190565b600060208083526060808401855160408085880152828251808552608094508489019150848160051b8a0101878501945060005b82811015611ea4578a8203607f19018452855180516001600160a01b031683526101808a8201518b8501528682015187850152898201518a85015288820151611e218a86018260000b9052565b5060a08281015115159085015260c0808301519085015260e080830151908501526101008083015190850152610120808301519085015261014080830151818601839052611e7183870182611c51565b925050506101608083015192508482038186015250611e908183611c51565b978b0197958b019593505050600101611dd4565b5096909901519190970152509195945050505050565b604051601f8201601f1916810167ffffffffffffffff81118282101715611ee357611ee3612143565b604052919050565b600067ffffffffffffffff821115611f0557611f05612143565b5060051b60200190565b60008219821115611f2257611f22612101565b500190565b600082611f3657611f36612117565b500490565b600181815b80851115611f76578160001904821115611f5c57611f5c612101565b80851615611f6957918102915b93841c9390800290611f40565b509250929050565b600061196d60ff841683600082611f9757506001610aa3565b81611fa457506000610aa3565b8160018114611fba5760028114611fc457611fe0565b6001915050610aa3565b60ff841115611fd557611fd5612101565b50506001821b610aa3565b5060208310610133831016604e8410600b8410161715612003575081810a610aa3565b61200d8383611f3b565b806000190482111561202157612021612101565b029392505050565b600081600019048311821515161561204357612043612101565b500290565b60008282101561205a5761205a612101565b500390565b600060ff821660ff84168082101561207957612079612101565b90039392505050565b60005b8381101561209d578181015183820152602001612085565b838111156120ac576000848401525b50505050565b60006000198214156120c6576120c6612101565b5060010190565b600060ff821660ff8114156120e4576120e4612101565b60010192915050565b6000826120fc576120fc612117565b500690565b634e487b7160e01b600052601160045260246000fd5b634e487b7160e01b600052601260045260246000fd5b634e487b7160e01b600052603260045260246000fd5b634e487b7160e01b600052604160045260246000fd5b6001600160a01b03811681146111f457600080fdfe746f74616c55736463507269636520616674657220636f7272656374696f6e3a20a26469706673582212208bb95c3a6415aa207de91ceecbfb25c8b0050792a67400afb1814a2a5b2939f064736f6c63430008060033",
  "devdoc": {
    "kind": "dev",
    "methods": {
      "assetPricesForBalance(address,uint256)": {
        "params": {
          "withdrawAmount": "Not normilized amount to withdraw",
          "withdrawToken": "Token to withdraw"
        }
      },
      "owner()": {
        "details": "Returns the address of the current owner."
      },
      "renounceOwnership()": {
        "details": "Leaves the contract without owner. It will not be possible to call `onlyOwner` functions anymore. Can only be called by the current owner. NOTE: Renouncing ownership will leave the contract without an owner, thereby removing any functionality that is only available to the owner."
      },
      "transferOwnership(address)": {
        "details": "Transfers ownership of the contract to a new account (`newOwner`). Can only be called by the current owner."
      }
    },
    "version": 1
  },
  "userdoc": {
    "kind": "user",
    "methods": {},
    "version": 1
  },
  "storageLayout": {
    "storage": [
      {
        "astId": 4391,
        "contract": "contracts/Mark2Market.sol:Mark2Market",
        "label": "_owner",
        "offset": 0,
        "slot": "0",
        "type": "t_address"
      },
      {
        "astId": 4395,
        "contract": "contracts/Mark2Market.sol:Mark2Market",
        "label": "rolemap",
        "offset": 0,
        "slot": "1",
        "type": "t_mapping(t_bytes32,t_address)"
      },
      {
        "astId": 3262,
        "contract": "contracts/Mark2Market.sol:Mark2Market",
        "label": "vault",
        "offset": 0,
        "slot": "2",
        "type": "t_contract(Vault)6081"
      },
      {
        "astId": 3265,
        "contract": "contracts/Mark2Market.sol:Mark2Market",
        "label": "investmentPortfolio",
        "offset": 0,
        "slot": "3",
        "type": "t_contract(InvestmentPortfolio)11080"
      }
    ],
    "types": {
      "t_address": {
        "encoding": "inplace",
        "label": "address",
        "numberOfBytes": "20"
      },
      "t_bytes32": {
        "encoding": "inplace",
        "label": "bytes32",
        "numberOfBytes": "32"
      },
      "t_contract(InvestmentPortfolio)11080": {
        "encoding": "inplace",
        "label": "contract InvestmentPortfolio",
        "numberOfBytes": "20"
      },
      "t_contract(Vault)6081": {
        "encoding": "inplace",
        "label": "contract Vault",
        "numberOfBytes": "20"
      },
      "t_mapping(t_bytes32,t_address)": {
        "encoding": "mapping",
        "key": "t_bytes32",
        "label": "mapping(bytes32 => address)",
        "numberOfBytes": "32",
        "value": "t_address"
      }
    }
  }
}