{
  "address": "0xBaC3100BEEE79CA34B18fbcD0437bd382Ee5611B",
  "abi": [
    {
      "anonymous": false,
      "inputs": [
        {
          "indexed": true,
          "internalType": "address",
          "name": "previousOwner",
          "type": "address"
        },
        {
          "indexed": true,
          "internalType": "address",
          "name": "newOwner",
          "type": "address"
        }
      ],
      "name": "OwnershipTransferred",
      "type": "event"
    },
    {
      "anonymous": false,
      "inputs": [
        {
          "indexed": false,
          "internalType": "address",
          "name": "portfolio",
          "type": "address"
        }
      ],
      "name": "PortfolioUpdated",
      "type": "event"
    },
    {
      "anonymous": false,
      "inputs": [
        {
          "indexed": false,
          "internalType": "address",
          "name": "vault",
          "type": "address"
        }
      ],
      "name": "VaultUpdated",
      "type": "event"
    },
    {
      "inputs": [],
      "name": "assetPrices",
      "outputs": [
        {
          "components": [
            {
              "components": [
                {
                  "internalType": "address",
                  "name": "asset",
                  "type": "address"
                },
                {
                  "internalType": "uint256",
                  "name": "amountInVault",
                  "type": "uint256"
                },
                {
                  "internalType": "uint256",
                  "name": "usdcPriceInVault",
                  "type": "uint256"
                },
                {
                  "internalType": "uint256",
                  "name": "usdcPriceDenominator",
                  "type": "uint256"
                },
                {
                  "internalType": "uint256",
                  "name": "usdcSellPrice",
                  "type": "uint256"
                },
                {
                  "internalType": "uint256",
                  "name": "usdcBuyPrice",
                  "type": "uint256"
                },
                {
                  "internalType": "uint256",
                  "name": "decimals",
                  "type": "uint256"
                },
                {
                  "internalType": "string",
                  "name": "name",
                  "type": "string"
                },
                {
                  "internalType": "string",
                  "name": "symbol",
                  "type": "string"
                }
              ],
              "internalType": "struct IMark2Market.AssetPrices[]",
              "name": "assetPrices",
              "type": "tuple[]"
            },
            {
              "internalType": "uint256",
              "name": "totalUsdcPrice",
              "type": "uint256"
            }
          ],
          "internalType": "struct IMark2Market.TotalAssetPrices",
          "name": "",
          "type": "tuple"
        }
      ],
      "stateMutability": "view",
      "type": "function"
    },
    {
      "inputs": [],
      "name": "assetPricesForBalance",
      "outputs": [
        {
          "components": [
            {
              "internalType": "address",
              "name": "asset",
              "type": "address"
            },
            {
              "internalType": "int256",
              "name": "diffToTarget",
              "type": "int256"
            },
            {
              "internalType": "bool",
              "name": "targetIsZero",
              "type": "bool"
            }
          ],
          "internalType": "struct IMark2Market.BalanceAssetPrices[]",
          "name": "",
          "type": "tuple[]"
        }
      ],
      "stateMutability": "view",
      "type": "function"
    },
    {
      "inputs": [
        {
          "internalType": "address",
          "name": "withdrawToken",
          "type": "address"
        },
        {
          "internalType": "uint256",
          "name": "withdrawAmount",
          "type": "uint256"
        }
      ],
      "name": "assetPricesForBalance",
      "outputs": [
        {
          "components": [
            {
              "internalType": "address",
              "name": "asset",
              "type": "address"
            },
            {
              "internalType": "int256",
              "name": "diffToTarget",
              "type": "int256"
            },
            {
              "internalType": "bool",
              "name": "targetIsZero",
              "type": "bool"
            }
          ],
          "internalType": "struct IMark2Market.BalanceAssetPrices[]",
          "name": "",
          "type": "tuple[]"
        }
      ],
      "stateMutability": "view",
      "type": "function"
    },
    {
      "inputs": [],
      "name": "owner",
      "outputs": [
        {
          "internalType": "address",
          "name": "",
          "type": "address"
        }
      ],
      "stateMutability": "view",
      "type": "function"
    },
    {
      "inputs": [],
      "name": "portfolio",
      "outputs": [
        {
          "internalType": "contract Portfolio",
          "name": "",
          "type": "address"
        }
      ],
      "stateMutability": "view",
      "type": "function"
    },
    {
      "inputs": [],
      "name": "renounceOwnership",
      "outputs": [],
      "stateMutability": "nonpayable",
      "type": "function"
    },
    {
      "inputs": [
        {
          "internalType": "address",
          "name": "_portfolio",
          "type": "address"
        }
      ],
      "name": "setPortfolio",
      "outputs": [],
      "stateMutability": "nonpayable",
      "type": "function"
    },
    {
      "inputs": [
        {
          "internalType": "address",
          "name": "_vault",
          "type": "address"
        }
      ],
      "name": "setVault",
      "outputs": [],
      "stateMutability": "nonpayable",
      "type": "function"
    },
    {
      "inputs": [],
      "name": "totalUsdcPrice",
      "outputs": [
        {
          "internalType": "uint256",
          "name": "",
          "type": "uint256"
        }
      ],
      "stateMutability": "view",
      "type": "function"
    },
    {
      "inputs": [
        {
          "internalType": "address",
          "name": "newOwner",
          "type": "address"
        }
      ],
      "name": "transferOwnership",
      "outputs": [],
      "stateMutability": "nonpayable",
      "type": "function"
    },
    {
      "inputs": [],
      "name": "vault",
      "outputs": [
        {
          "internalType": "contract Vault",
          "name": "",
          "type": "address"
        }
      ],
      "stateMutability": "view",
      "type": "function"
    }
  ],
  "transactionHash": "0x93e7ef772538ccaae3a072004e64043b79347237b14a5ad977782065747115e3",
  "args": [],
  "solcInputHash": "5940fe62ab9ebf2b846c1724dc847104",
  "bytecode": "0x608060405234801561001057600080fd5b5061001a3361001f565b61006f565b600080546001600160a01b038381166001600160a01b0319831681178455604051919092169283917f8be0079c531659141344cd1fd0a4f28419497f9722a3daafe3b4186f6b6457e09190a35050565b611c858061007e6000396000f3fe608060405234801561001057600080fd5b50600436106100a95760003560e01c8063734bd75d11610071578063734bd75d146101235780638258c132146101365780638da5cb5b1461014c5780639a707d871461015d578063f2fde38b14610172578063fbfa77cf1461018557600080fd5b8063044337ca146100ae57806316ede016146100c357806358a8316c146100f35780636817031b14610108578063715018a61461011b575b600080fd5b6100c16100bc366004611416565b610198565b005b6002546100d6906001600160a01b031681565b6040516001600160a01b0390911681526020015b60405180910390f35b6100fb610271565b6040516100ea919061175a565b6100c1610116366004611416565b610283565b6100c161034c565b6100fb61013136600461143a565b610382565b61013e610673565b6040519081526020016100ea565b6000546001600160a01b03166100d6565b610165610905565b6040516100ea9190611806565b6100c1610180366004611416565b610e20565b6001546100d6906001600160a01b031681565b6000546001600160a01b031633146101cb5760405162461bcd60e51b81526004016101c2906117d1565b60405180910390fd5b6001600160a01b03811661021c5760405162461bcd60e51b815260206004820152601860248201527716995c9bc81859191c995cdcc81b9bdd08185b1b1bddd95960421b60448201526064016101c2565b600280546001600160a01b0319166001600160a01b0383169081179091556040519081527fd26983974b34482bf34320997312ff880f8cc6e27b9136e9bf2140b1b6ef46a5906020015b60405180910390a150565b606061027e600080610382565b905090565b6000546001600160a01b031633146102ad5760405162461bcd60e51b81526004016101c2906117d1565b6001600160a01b0381166102fe5760405162461bcd60e51b815260206004820152601860248201527716995c9bc81859191c995cdcc81b9bdd08185b1b1bddd95960421b60448201526064016101c2565b600180546001600160a01b0319166001600160a01b0383169081179091556040519081527f161584aed96e7f34998117c9ad67e2d21ff46d2a42775c22b11ed282f3c7b2cd90602001610266565b6000546001600160a01b031633146103765760405162461bcd60e51b81526004016101c2906117d1565b6103806000610ebb565b565b60606001600160a01b0383161561042c576000836001600160a01b031663313ce5676040518163ffffffff1660e01b815260040160206040518083038186803b1580156103ce57600080fd5b505afa1580156103e2573d6000803e3d6000fd5b505050506040513d601f19601f8201168201806040525081019061040691906116a4565b610411906012611b40565b61041c90600a611a20565b90506104288184611acb565b9250505b6000610436610673565b9050828110156104895761044983610f0b565b61045282610f0b565b6040516020016104639291906116f3565b60408051601f198184030181529082905262461bcd60e51b82526101c2916004016117be565b6104938382611b29565b90506000600260009054906101000a90046001600160a01b03166001600160a01b0316633ff94f046040518163ffffffff1660e01b815260040160006040518083038186803b1580156104e557600080fd5b505afa1580156104f9573d6000803e3d6000fd5b505050506040513d6000823e601f3d908101601f19168201604052610521919081019061150c565b805190915060008167ffffffffffffffff81111561054157610541611c24565b60405190808252806020026020018201604052801561058c57816020015b604080516060810182526000808252602080830182905292820152825260001990920191018161055f5790505b50905060005b828160ff161015610666576000848260ff16815181106105b4576105b4611c0e565b602002602001015190506000806105cb8884611013565b909250905089158015906105f457508a6001600160a01b031683600001516001600160a01b0316145b15610606576106038a83611970565b91505b604051806060016040528084600001516001600160a01b03168152602001838152602001821515815250858560ff168151811061064557610645611c0e565b6020026020010181905250505050808061065e90611bae565b915050610592565b5093505050505b92915050565b600080600260009054906101000a90046001600160a01b03166001600160a01b0316633ff94f046040518163ffffffff1660e01b815260040160006040518083038186803b1580156106c457600080fd5b505afa1580156106d8573d6000803e3d6000fd5b505050506040513d6000823e601f3d908101601f19168201604052610700919081019061150c565b8051909150600090815b818160ff1610156108fc576000848260ff168151811061072c5761072c611c0e565b6020026020010151905060006107458260000151611290565b60025483516040516357d6970b60e11b81526001600160a01b03918216600482015292935060009291169063afad2e1690602401604080518083038186803b15801561079057600080fd5b505afa1580156107a4573d6000803e3d6000fd5b505050506040513d601f19601f820116820180604052508101906107c8919061166f565b90506000816020015190506000816001600160a01b03166396ce07956040518163ffffffff1660e01b815260040160206040518083038186803b15801561080e57600080fd5b505afa158015610822573d6000803e3d6000fd5b505050506040513d601f19601f82011682018060405250810190610846919061168b565b90506000826001600160a01b0316632b8455f16040518163ffffffff1660e01b815260040160206040518083038186803b15801561088357600080fd5b505afa158015610897573d6000803e3d6000fd5b505050506040513d601f19601f820116820180604052508101906108bb919061168b565b90506000826108ca8388611acb565b6108d491906119c9565b90506108e0818b6119b1565b99505050505050505080806108f490611bae565b91505061070a565b50909392505050565b6040805180820190915260608152600060208201526002546040805163035d61bf60e31b815290516000926001600160a01b031691631aeb0df89160048083019286929190829003018186803b15801561095e57600080fd5b505afa158015610972573d6000803e3d6000fd5b505050506040513d6000823e601f3d908101601f1916820160405261099a9190810190611466565b8051909150600090818167ffffffffffffffff8111156109bc576109bc611c24565b604051908082528060200260200182016040528015610a4557816020015b610a3260405180610120016040528060006001600160a01b0316815260200160008152602001600081526020016000815260200160008152602001600081526020016000815260200160608152602001606081525090565b8152602001906001900390816109da5790505b50905060005b828160ff161015610e03576000858260ff1681518110610a6d57610a6d611c0e565b602002602001015190506000610a868260000151611290565b90506000826020015190506000816001600160a01b03166396ce07956040518163ffffffff1660e01b815260040160206040518083038186803b158015610acc57600080fd5b505afa158015610ae0573d6000803e3d6000fd5b505050506040513d601f19601f82011682018060405250810190610b04919061168b565b90506000826001600160a01b0316632b8455f16040518163ffffffff1660e01b815260040160206040518083038186803b158015610b4157600080fd5b505afa158015610b55573d6000803e3d6000fd5b505050506040513d601f19601f82011682018060405250810190610b79919061168b565b90506000836001600160a01b031663ea2497846040518163ffffffff1660e01b815260040160206040518083038186803b158015610bb657600080fd5b505afa158015610bca573d6000803e3d6000fd5b505050506040513d601f19601f82011682018060405250810190610bee919061168b565b9050600083610bfd8488611acb565b610c0791906119c9565b9050610c13818c6119b1565b9a5060405180610120016040528088600001516001600160a01b0316815260200187815260200182815260200185815260200184815260200183815260200188600001516001600160a01b031663313ce5676040518163ffffffff1660e01b815260040160206040518083038186803b158015610c8f57600080fd5b505afa158015610ca3573d6000803e3d6000fd5b505050506040513d601f19601f82011682018060405250810190610cc791906116a4565b60ff16815260200188600001516001600160a01b03166306fdde036040518163ffffffff1660e01b815260040160006040518083038186803b158015610d0c57600080fd5b505afa158015610d20573d6000803e3d6000fd5b505050506040513d6000823e601f3d908101601f19168201604052610d4891908101906115e4565b815260200188600001516001600160a01b03166395d89b416040518163ffffffff1660e01b815260040160006040518083038186803b158015610d8a57600080fd5b505afa158015610d9e573d6000803e3d6000fd5b505050506040513d6000823e601f3d908101601f19168201604052610dc691908101906115e4565b815250898960ff1681518110610dde57610dde611c0e565b6020026020010181905250505050505050508080610dfb90611bae565b915050610a4b565b506040805180820190915290815260208101929092525092915050565b6000546001600160a01b03163314610e4a5760405162461bcd60e51b81526004016101c2906117d1565b6001600160a01b038116610eaf5760405162461bcd60e51b815260206004820152602660248201527f4f776e61626c653a206e6577206f776e657220697320746865207a65726f206160448201526564647265737360d01b60648201526084016101c2565b610eb881610ebb565b50565b600080546001600160a01b038381166001600160a01b0319831681178455604051919092169283917f8be0079c531659141344cd1fd0a4f28419497f9722a3daafe3b4186f6b6457e09190a35050565b606081610f2f5750506040805180820190915260018152600360fc1b602082015290565b8160005b8115610f595780610f4381611b93565b9150610f529050600a836119c9565b9150610f33565b60008167ffffffffffffffff811115610f7457610f74611c24565b6040519080825280601f01601f191660200182016040528015610f9e576020820181803683370190505b509050815b851561100a57610fb4600182611b29565b9050610fc1600a87611bce565b610fcc9060306119b1565b60f81b828281518110610fe157610fe1611c0e565b60200101906001600160f81b031916908160001a905350611003600a876119c9565b9550610fa3565b50949350505050565b6000806000836000015190506000600260009054906101000a90046001600160a01b03166001600160a01b031663ed2a2f9d6040518163ffffffff1660e01b815260040160206040518083038186803b15801561106f57600080fd5b505afa158015611083573d6000803e3d6000fd5b505050506040513d601f19601f820116820180604052508101906110a7919061168b565b60408601516110b69088611acb565b6110c091906119c9565b6002546040516357d6970b60e11b81526001600160a01b0385811660048301529293506000929091169063afad2e1690602401604080518083038186803b15801561110a57600080fd5b505afa15801561111e573d6000803e3d6000fd5b505050506040513d601f19601f82011682018060405250810190611142919061166f565b90506000816020015190506000816001600160a01b03166396ce07956040518163ffffffff1660e01b815260040160206040518083038186803b15801561118857600080fd5b505afa15801561119c573d6000803e3d6000fd5b505050506040513d601f19601f820116820180604052508101906111c0919061168b565b90506000826001600160a01b031663ea2497846040518163ffffffff1660e01b815260040160206040518083038186803b1580156111fd57600080fd5b505afa158015611211573d6000803e3d6000fd5b505050506040513d601f19601f82011682018060405250810190611235919061168b565b90506000816112448488611acb565b61124e91906119c9565b9050600061125b88611290565b905060008261126c57506001611270565b5060005b600061127c8385611aea565b9e919d50909b505050505050505050505050565b6001546040516370a0823160e01b81526001600160a01b0391821660048201526000918291908416906370a082319060240160206040518083038186803b1580156112da57600080fd5b505afa1580156112ee573d6000803e3d6000fd5b505050506040513d601f19601f82011682018060405250810190611312919061168b565b90506000836001600160a01b031663313ce5676040518163ffffffff1660e01b815260040160206040518083038186803b15801561134f57600080fd5b505afa158015611363573d6000803e3d6000fd5b505050506040513d601f19601f8201168201806040525081019061138791906116a4565b611392906012611b40565b61139d90600a611a20565b90506113a98183611acb565b949350505050565b6000604082840312156113c357600080fd5b6040516040810181811067ffffffffffffffff821117156113e6576113e6611c24565b806040525080915082516113f981611c3a565b8152602083015161140981611c3a565b6020919091015292915050565b60006020828403121561142857600080fd5b813561143381611c3a565b9392505050565b6000806040838503121561144d57600080fd5b823561145881611c3a565b946020939093013593505050565b6000602080838503121561147957600080fd5b825167ffffffffffffffff81111561149057600080fd5b8301601f810185136114a157600080fd5b80516114b46114af8261194c565b61191b565b80828252848201915084840188868560061b87010111156114d457600080fd5b600094505b83851015611500576114eb89826113b1565b835260019490940193918501916040016114d9565b50979650505050505050565b6000602080838503121561151f57600080fd5b825167ffffffffffffffff81111561153657600080fd5b8301601f8101851361154757600080fd5b80516115556114af8261194c565b80828252848201915084840188868560071b870101111561157557600080fd5b60009450845b848110156115d657608080838c031215611593578687fd5b61159b6118f2565b83516115a681611c3a565b8152838901518982015260408085015190820152606080850151908201528552938701939091019060010161157b565b509098975050505050505050565b6000602082840312156115f657600080fd5b815167ffffffffffffffff8082111561160e57600080fd5b818401915084601f83011261162257600080fd5b81518181111561163457611634611c24565b611647601f8201601f191660200161191b565b915080825285602082850101111561165e57600080fd5b61100a816020840160208601611b63565b60006040828403121561168157600080fd5b61143383836113b1565b60006020828403121561169d57600080fd5b5051919050565b6000602082840312156116b657600080fd5b815160ff8116811461143357600080fd5b600081518084526116df816020860160208601611b63565b601f01601f19169290920160200192915050565b7f5769746864726177206d6f7265207468616e20746f74616c3a2000000000000081526000835161172b81601a850160208801611b63565b620101f160ed1b601a91840191820152835161174e81601d840160208801611b63565b01601d01949350505050565b602080825282518282018190526000919060409081850190868401855b828110156117b157815180516001600160a01b03168552868101518786015285015115158585015260609093019290850190600101611777565b5091979650505050505050565b60208152600061143360208301846116c7565b6020808252818101527f4f776e61626c653a2063616c6c6572206973206e6f7420746865206f776e6572604082015260600190565b600060208083526060808401855160408085880152828251808552608094508489019150848160051b8a0101878501945060005b828110156118dc578a8203607f19018452855180516001600160a01b03168352610120818b0151848c01528682015187850152898201518a850152888201518985015260a0808301519085015260c0808301519085015260e0808301518186018390526118a9838701826116c7565b9250505061010080830151925084820381860152506118c881836116c7565b978b0197958b01959350505060010161183a565b5096909901519190970152509195945050505050565b6040516080810167ffffffffffffffff8111828210171561191557611915611c24565b60405290565b604051601f8201601f1916810167ffffffffffffffff8111828210171561194457611944611c24565b604052919050565b600067ffffffffffffffff82111561196657611966611c24565b5060051b60200190565b600080821280156001600160ff1b038490038513161561199257611992611be2565b600160ff1b83900384128116156119ab576119ab611be2565b50500190565b600082198211156119c4576119c4611be2565b500190565b6000826119d8576119d8611bf8565b500490565b600181815b80851115611a185781600019048211156119fe576119fe611be2565b80851615611a0b57918102915b93841c93908002906119e2565b509250929050565b600061143360ff841683600082611a395750600161066d565b81611a465750600061066d565b8160018114611a5c5760028114611a6657611a82565b600191505061066d565b60ff841115611a7757611a77611be2565b50506001821b61066d565b5060208310610133831016604e8410600b8410161715611aa5575081810a61066d565b611aaf83836119dd565b8060001904821115611ac357611ac3611be2565b029392505050565b6000816000190483118215151615611ae557611ae5611be2565b500290565b60008083128015600160ff1b850184121615611b0857611b08611be2565b6001600160ff1b0384018313811615611b2357611b23611be2565b50500390565b600082821015611b3b57611b3b611be2565b500390565b600060ff821660ff841680821015611b5a57611b5a611be2565b90039392505050565b60005b83811015611b7e578181015183820152602001611b66565b83811115611b8d576000848401525b50505050565b6000600019821415611ba757611ba7611be2565b5060010190565b600060ff821660ff811415611bc557611bc5611be2565b60010192915050565b600082611bdd57611bdd611bf8565b500690565b634e487b7160e01b600052601160045260246000fd5b634e487b7160e01b600052601260045260246000fd5b634e487b7160e01b600052603260045260246000fd5b634e487b7160e01b600052604160045260246000fd5b6001600160a01b0381168114610eb857600080fdfea26469706673582212209bc62e04c4367b27a3da372333282a024a2a0cbc72c4c236118960b5e17397e164736f6c63430008060033",
  "devdoc": {
    "kind": "dev",
    "methods": {
      "assetPricesForBalance(address,uint256)": {
        "params": {
          "withdrawAmount": "Not normalized amount to withdraw",
          "withdrawToken": "Token to withdraw"
        }
      },
      "owner()": {
        "details": "Returns the address of the current owner."
      },
      "renounceOwnership()": {
        "details": "Leaves the contract without owner. It will not be possible to call `onlyOwner` functions anymore. Can only be called by the current owner. NOTE: Renouncing ownership will leave the contract without an owner, thereby removing any functionality that is only available to the owner."
      },
      "transferOwnership(address)": {
        "details": "Transfers ownership of the contract to a new account (`newOwner`). Can only be called by the current owner."
      }
    },
    "version": 1
  },
  "userdoc": {
    "kind": "user",
    "methods": {},
    "version": 1
  },
  "storageLayout": {
    "storage": [
      {
        "astId": 389,
        "contract": "contracts/Mark2Market.sol:Mark2Market",
        "label": "_owner",
        "offset": 0,
        "slot": "0",
        "type": "t_address"
      },
      {
        "astId": 3149,
        "contract": "contracts/Mark2Market.sol:Mark2Market",
        "label": "vault",
        "offset": 0,
        "slot": "1",
        "type": "t_contract(Vault)5436"
      },
      {
        "astId": 3152,
        "contract": "contracts/Mark2Market.sol:Mark2Market",
        "label": "portfolio",
        "offset": 0,
        "slot": "2",
        "type": "t_contract(Portfolio)10725"
      }
    ],
    "types": {
      "t_address": {
        "encoding": "inplace",
        "label": "address",
        "numberOfBytes": "20"
      },
      "t_contract(Portfolio)10725": {
        "encoding": "inplace",
        "label": "contract Portfolio",
        "numberOfBytes": "20"
      },
      "t_contract(Vault)5436": {
        "encoding": "inplace",
        "label": "contract Vault",
        "numberOfBytes": "20"
      }
    }
  }
}