{
  "address": "0x9CCa301b658060937ca74bBFE96C8c6dc3860382",
  "abi": [
    {
      "inputs": [
        {
          "internalType": "address",
          "name": "_idleConnector",
          "type": "address"
        },
        {
          "internalType": "address",
          "name": "_usdcToken",
          "type": "address"
        },
        {
          "internalType": "address",
          "name": "_idleUsdcToken",
          "type": "address"
        }
      ],
      "stateMutability": "nonpayable",
      "type": "constructor"
    },
    {
      "inputs": [
        {
          "internalType": "address",
          "name": "spender",
          "type": "address"
        },
        {
          "internalType": "contract IERC20",
          "name": "from",
          "type": "address"
        },
        {
          "internalType": "address",
          "name": "receiver",
          "type": "address"
        },
        {
          "internalType": "contract IERC20",
          "name": "to",
          "type": "address"
        },
        {
          "internalType": "uint256",
          "name": "amount",
          "type": "uint256"
        }
      ],
      "name": "exchange",
      "outputs": [],
      "stateMutability": "nonpayable",
      "type": "function"
    },
    {
      "inputs": [],
      "name": "idleConnector",
      "outputs": [
        {
          "internalType": "contract IConnector",
          "name": "",
          "type": "address"
        }
      ],
      "stateMutability": "view",
      "type": "function"
    },
    {
      "inputs": [],
      "name": "idleUsdcToken",
      "outputs": [
        {
          "internalType": "contract IERC20",
          "name": "",
          "type": "address"
        }
      ],
      "stateMutability": "view",
      "type": "function"
    },
    {
      "inputs": [],
      "name": "usdcToken",
      "outputs": [
        {
          "internalType": "contract IERC20",
          "name": "",
          "type": "address"
        }
      ],
      "stateMutability": "view",
      "type": "function"
    }
  ],
  "transactionHash": "0xf1521dc4eef1e782eca5e7d93c43a7e52aecda39a5f2db115c608c12fbbc1622",
  "args": [
    "0x84837fa3b29e3f9CCC7E9437b5aa57aC780ceDFB",
    "0x2791bca1f2de4661ed88a30c99a7a9449aa84174",
    "0x1ee6470cd75d5686d0b2b90c0305fa46fb0c89a1"
  ],
  "solcInputHash": "a52a09ed2b2706cd99c66d36846223b4",
  "bytecode": "0x60806040523480156200001157600080fd5b506040516200101d3803806200101d8339810160408190526200003491620002a0565b6001600160a01b0383166200007f5760405162461bcd60e51b8152602060048201526018602482015260008051602062000ffd83398151915260448201526064015b60405180910390fd5b6001600160a01b038216620000c65760405162461bcd60e51b8152602060048201526018602482015260008051602062000ffd833981519152604482015260640162000076565b6001600160a01b0381166200010d5760405162461bcd60e51b8152602060048201526018602482015260008051602062000ffd833981519152604482015260640162000076565b600080546001600160a01b038086166001600160a01b03199283161790925560018054858416908316811790915560028054938516939092169290921790556040805163313ce56760e01b8152905163313ce56791600480820192602092909190829003018186803b1580156200018357600080fd5b505afa15801562000198573d6000803e3d6000fd5b505050506040513d601f19601f82011682018060405250810190620001be9190620002ea565b620001cb90601262000420565b620001d890600a6200035f565b6003556002546040805163313ce56760e01b815290516001600160a01b039092169163313ce56791600480820192602092909190829003018186803b1580156200022157600080fd5b505afa15801562000236573d6000803e3d6000fd5b505050506040513d601f19601f820116820180604052508101906200025c9190620002ea565b6200026990601262000420565b6200027690600a6200035f565b600455506200045c915050565b80516001600160a01b03811681146200029b57600080fd5b919050565b600080600060608486031215620002b657600080fd5b620002c18462000283565b9250620002d16020850162000283565b9150620002e16040850162000283565b90509250925092565b600060208284031215620002fd57600080fd5b815160ff811681146200030f57600080fd5b9392505050565b600181815b80851115620003575781600019048211156200033b576200033b62000446565b808516156200034957918102915b93841c93908002906200031b565b509250929050565b60006200030f60ff8416836000826200037b575060016200041a565b816200038a575060006200041a565b8160018114620003a35760028114620003ae57620003ce565b60019150506200041a565b60ff841115620003c257620003c262000446565b50506001821b6200041a565b5060208310610133831016604e8410600b8410161715620003f3575081810a6200041a565b620003ff838362000316565b806000190482111562000416576200041662000446565b0290505b92915050565b600060ff821660ff8416808210156200043d576200043d62000446565b90039392505050565b634e487b7160e01b600052601160045260246000fd5b610b91806200046c6000396000f3fe608060405234801561001057600080fd5b506004361061004c5760003560e01c806311eac8551461005157806362ac75381461008057806372f2a97914610095578063b37d8c65146100a8575b600080fd5b600154610064906001600160a01b031681565b6040516001600160a01b03909116815260200160405180910390f35b61009361008e366004610a36565b6100bb565b005b600054610064906001600160a01b031681565b600254610064906001600160a01b031681565b6001546001600160a01b0385811691161480156100e557506002546001600160a01b038381169116145b8061011557506002546001600160a01b03858116911614801561011557506001546001600160a01b038381169116145b6101845760405162461bcd60e51b815260206004820152603560248201527f557364633249646c6555736463546f6b656e45786368616e67653a20536f6d6560448201527420746f6b656e206e6f7420636f6d70617469626c6560581b60648201526084015b60405180910390fd5b80610296576040516370a0823160e01b81523060048201526000906001600160a01b038616906370a082319060240160206040518083038186803b1580156101cb57600080fd5b505afa1580156101df573d6000803e3d6000fd5b505050506040513d601f19601f820116820180604052508101906102039190610ac3565b905080156102905760405163a9059cbb60e01b81526001600160a01b0387811660048301526024820183905286169063a9059cbb906044015b602060405180830381600087803b15801561025657600080fd5b505af115801561026a573d6000803e3d6000fd5b505050506040513d601f19601f8201168201806040525081019061028e9190610a9a565b505b50610a2f565b6001546001600160a01b0385811691161480156102c057506002546001600160a01b038381169116145b1561060f576003546102d29082610af4565b6001546040516370a0823160e01b81523060048201529192506000916001600160a01b03909116906370a082319060240160206040518083038186803b15801561031b57600080fd5b505afa15801561032f573d6000803e3d6000fd5b505050506040513d601f19601f820116820180604052508101906103539190610ac3565b9050816103995780156102905760015460405163a9059cbb60e01b81526001600160a01b038881166004830152602482018490529091169063a9059cbb9060440161023c565b818110156104025760405162461bcd60e51b815260206004820152603060248201527f557364633249646c6555736463546f6b656e45786368616e67653a204e6f742060448201526f32b737bab3b4103ab9b231aa37b5b2b760811b606482015260840161017b565b60015460005460405163a9059cbb60e01b81526001600160a01b0391821660048201526024810185905291169063a9059cbb90604401602060405180830381600087803b15801561045257600080fd5b505af1158015610466573d6000803e3d6000fd5b505050506040513d601f19601f8201168201806040525081019061048a9190610a9a565b5060005460015460405163294091cd60e01b81526001600160a01b03918216600482015260248101859052868216604482015291169063294091cd90606401600060405180830381600087803b1580156104e357600080fd5b505af11580156104f7573d6000803e3d6000fd5b50506001546040516370a0823160e01b8152306004820152600093506001600160a01b0390911691506370a082319060240160206040518083038186803b15801561054157600080fd5b505afa158015610555573d6000803e3d6000fd5b505050506040513d601f19601f820116820180604052508101906105799190610ac3565b9050801561028e5760015460405163a9059cbb60e01b81526001600160a01b038981166004830152602482018490529091169063a9059cbb90604401602060405180830381600087803b1580156105cf57600080fd5b505af11580156105e3573d6000803e3d6000fd5b505050506040513d601f19601f820116820180604052508101906106079190610a9a565b505050610a2f565b60045461061c9082610af4565b6002546040516370a0823160e01b81523060048201529192506000916001600160a01b03909116906370a082319060240160206040518083038186803b15801561066557600080fd5b505afa158015610679573d6000803e3d6000fd5b505050506040513d601f19601f8201168201806040525081019061069d9190610ac3565b9050816106e35780156102905760025460405163a9059cbb60e01b81526001600160a01b038881166004830152602482018490529091169063a9059cbb9060440161023c565b816106ef826001610adc565b141561070357610700600183610b16565b91505b818110156107705760405162461bcd60e51b815260206004820152603460248201527f557364633249646c6555736463546f6b656e45786368616e67653a204e6f742060448201527332b737bab3b41034b23632aab9b231aa37b5b2b760611b606482015260840161017b565b60025460005460405163a9059cbb60e01b81526001600160a01b0391821660048201526024810185905291169063a9059cbb90604401602060405180830381600087803b1580156107c057600080fd5b505af11580156107d4573d6000803e3d6000fd5b505050506040513d601f19601f820116820180604052508101906107f89190610a9a565b50600254600080546040516370a0823160e01b81526001600160a01b039182166004820152919216906370a082319060240160206040518083038186803b15801561084257600080fd5b505afa158015610856573d6000803e3d6000fd5b505050506040513d601f19601f8201168201806040525081019061087a9190610ac3565b905082811015610888578092505b6000805460015460405163493718eb60e11b81526001600160a01b03918216600482015260248101879052888216604482015291169063926e31d690606401602060405180830381600087803b1580156108e157600080fd5b505af11580156108f5573d6000803e3d6000fd5b505050506040513d601f19601f820116820180604052508101906109199190610ac3565b6002546040516370a0823160e01b81523060048201529192506000916001600160a01b03909116906370a082319060240160206040518083038186803b15801561096257600080fd5b505afa158015610976573d6000803e3d6000fd5b505050506040513d601f19601f8201168201806040525081019061099a9190610ac3565b90508015610a2a5760025460405163a9059cbb60e01b81526001600160a01b038b81166004830152602482018490529091169063a9059cbb90604401602060405180830381600087803b1580156109f057600080fd5b505af1158015610a04573d6000803e3d6000fd5b505050506040513d601f19601f82011682018060405250810190610a289190610a9a565b505b505050505b5050505050565b600080600080600060a08688031215610a4e57600080fd5b8535610a5981610b43565b94506020860135610a6981610b43565b93506040860135610a7981610b43565b92506060860135610a8981610b43565b949793965091946080013592915050565b600060208284031215610aac57600080fd5b81518015158114610abc57600080fd5b9392505050565b600060208284031215610ad557600080fd5b5051919050565b60008219821115610aef57610aef610b2d565b500190565b600082610b1157634e487b7160e01b600052601260045260246000fd5b500490565b600082821015610b2857610b28610b2d565b500390565b634e487b7160e01b600052601160045260246000fd5b6001600160a01b0381168114610b5857600080fd5b5056fea2646970667358221220662f1bd065bdd9cb493d9619ad9c24c932bcc672b5885001351d8e36c4337c2264736f6c634300080600335a65726f2061646472657373206e6f7420616c6c6f7765640000000000000000",
  "devdoc": {
    "kind": "dev",
    "methods": {},
    "version": 1
  },
  "userdoc": {
    "kind": "user",
    "methods": {},
    "version": 1
  },
  "storageLayout": {
    "storage": [
      {
        "astId": 18986,
        "contract": "contracts/token_exchanges/Usdc2IdleUsdcTokenExchange.sol:Usdc2IdleUsdcTokenExchange",
        "label": "idleConnector",
        "offset": 0,
        "slot": "0",
        "type": "t_contract(IConnector)15826"
      },
      {
        "astId": 18989,
        "contract": "contracts/token_exchanges/Usdc2IdleUsdcTokenExchange.sol:Usdc2IdleUsdcTokenExchange",
        "label": "usdcToken",
        "offset": 0,
        "slot": "1",
        "type": "t_contract(IERC20)4667"
      },
      {
        "astId": 18992,
        "contract": "contracts/token_exchanges/Usdc2IdleUsdcTokenExchange.sol:Usdc2IdleUsdcTokenExchange",
        "label": "idleUsdcToken",
        "offset": 0,
        "slot": "2",
        "type": "t_contract(IERC20)4667"
      },
      {
        "astId": 18994,
        "contract": "contracts/token_exchanges/Usdc2IdleUsdcTokenExchange.sol:Usdc2IdleUsdcTokenExchange",
        "label": "usdcDenominator",
        "offset": 0,
        "slot": "3",
        "type": "t_uint256"
      },
      {
        "astId": 18996,
        "contract": "contracts/token_exchanges/Usdc2IdleUsdcTokenExchange.sol:Usdc2IdleUsdcTokenExchange",
        "label": "idleUsdcDenominator",
        "offset": 0,
        "slot": "4",
        "type": "t_uint256"
      }
    ],
    "types": {
      "t_contract(IConnector)15826": {
        "encoding": "inplace",
        "label": "contract IConnector",
        "numberOfBytes": "20"
      },
      "t_contract(IERC20)4667": {
        "encoding": "inplace",
        "label": "contract IERC20",
        "numberOfBytes": "20"
      },
      "t_uint256": {
        "encoding": "inplace",
        "label": "uint256",
        "numberOfBytes": "32"
      }
    }
  }
}