{
  "address": "0x5413e22E6cb029c0C4b289600c97960D0aeF940c",
  "abi": [
    {
      "inputs": [],
      "stateMutability": "nonpayable",
      "type": "constructor"
    },
    {
      "anonymous": false,
      "inputs": [
        {
          "indexed": true,
          "internalType": "bytes32",
          "name": "role",
          "type": "bytes32"
        },
        {
          "indexed": true,
          "internalType": "bytes32",
          "name": "previousAdminRole",
          "type": "bytes32"
        },
        {
          "indexed": true,
          "internalType": "bytes32",
          "name": "newAdminRole",
          "type": "bytes32"
        }
      ],
      "name": "RoleAdminChanged",
      "type": "event"
    },
    {
      "anonymous": false,
      "inputs": [
        {
          "indexed": true,
          "internalType": "bytes32",
          "name": "role",
          "type": "bytes32"
        },
        {
          "indexed": true,
          "internalType": "address",
          "name": "account",
          "type": "address"
        },
        {
          "indexed": true,
          "internalType": "address",
          "name": "sender",
          "type": "address"
        }
      ],
      "name": "RoleGranted",
      "type": "event"
    },
    {
      "anonymous": false,
      "inputs": [
        {
          "indexed": true,
          "internalType": "bytes32",
          "name": "role",
          "type": "bytes32"
        },
        {
          "indexed": true,
          "internalType": "address",
          "name": "account",
          "type": "address"
        },
        {
          "indexed": true,
          "internalType": "address",
          "name": "sender",
          "type": "address"
        }
      ],
      "name": "RoleRevoked",
      "type": "event"
    },
    {
      "inputs": [],
      "name": "DEFAULT_ADMIN_ROLE",
      "outputs": [
        {
          "internalType": "bytes32",
          "name": "",
          "type": "bytes32"
        }
      ],
      "stateMutability": "view",
      "type": "function"
    },
    {
      "inputs": [],
      "name": "PORTFOLIO_MANAGER",
      "outputs": [
        {
          "internalType": "bytes32",
          "name": "",
          "type": "bytes32"
        }
      ],
      "stateMutability": "view",
      "type": "function"
    },
    {
      "inputs": [],
      "name": "REWARD_MANAGER",
      "outputs": [
        {
          "internalType": "bytes32",
          "name": "",
          "type": "bytes32"
        }
      ],
      "stateMutability": "view",
      "type": "function"
    },
    {
      "inputs": [],
      "name": "aaveReward",
      "outputs": [
        {
          "internalType": "contract IAaveIncentivesController",
          "name": "",
          "type": "address"
        }
      ],
      "stateMutability": "view",
      "type": "function"
    },
    {
      "inputs": [
        {
          "internalType": "contract IERC20",
          "name": "token",
          "type": "address"
        },
        {
          "internalType": "address",
          "name": "owner",
          "type": "address"
        },
        {
          "internalType": "address",
          "name": "spender",
          "type": "address"
        }
      ],
      "name": "allowance",
      "outputs": [
        {
          "internalType": "uint256",
          "name": "",
          "type": "uint256"
        }
      ],
      "stateMutability": "view",
      "type": "function"
    },
    {
      "inputs": [
        {
          "internalType": "contract IERC20",
          "name": "token",
          "type": "address"
        },
        {
          "internalType": "address",
          "name": "spender",
          "type": "address"
        },
        {
          "internalType": "uint256",
          "name": "amount",
          "type": "uint256"
        }
      ],
      "name": "approve",
      "outputs": [
        {
          "internalType": "bool",
          "name": "",
          "type": "bool"
        }
      ],
      "stateMutability": "nonpayable",
      "type": "function"
    },
    {
      "inputs": [
        {
          "internalType": "contract IERC20",
          "name": "token",
          "type": "address"
        },
        {
          "internalType": "address",
          "name": "account",
          "type": "address"
        }
      ],
      "name": "balanceOf",
      "outputs": [
        {
          "internalType": "uint256",
          "name": "",
          "type": "uint256"
        }
      ],
      "stateMutability": "view",
      "type": "function"
    },
    {
      "inputs": [
        {
          "internalType": "address[]",
          "name": "assets",
          "type": "address[]"
        },
        {
          "internalType": "uint256",
          "name": "amount",
          "type": "uint256"
        }
      ],
      "name": "claimRewardAave",
      "outputs": [],
      "stateMutability": "nonpayable",
      "type": "function"
    },
    {
      "inputs": [
        {
          "internalType": "bytes32",
          "name": "role",
          "type": "bytes32"
        }
      ],
      "name": "getRoleAdmin",
      "outputs": [
        {
          "internalType": "bytes32",
          "name": "",
          "type": "bytes32"
        }
      ],
      "stateMutability": "view",
      "type": "function"
    },
    {
      "inputs": [
        {
          "internalType": "bytes32",
          "name": "role",
          "type": "bytes32"
        },
        {
          "internalType": "address",
          "name": "account",
          "type": "address"
        }
      ],
      "name": "grantRole",
      "outputs": [],
      "stateMutability": "nonpayable",
      "type": "function"
    },
    {
      "inputs": [
        {
          "internalType": "bytes32",
          "name": "role",
          "type": "bytes32"
        },
        {
          "internalType": "address",
          "name": "account",
          "type": "address"
        }
      ],
      "name": "hasRole",
      "outputs": [
        {
          "internalType": "bool",
          "name": "",
          "type": "bool"
        }
      ],
      "stateMutability": "view",
      "type": "function"
    },
    {
      "inputs": [
        {
          "internalType": "address",
          "name": "_portfolioManager",
          "type": "address"
        }
      ],
      "name": "removePortfolioManager",
      "outputs": [],
      "stateMutability": "nonpayable",
      "type": "function"
    },
    {
      "inputs": [
        {
          "internalType": "bytes32",
          "name": "role",
          "type": "bytes32"
        },
        {
          "internalType": "address",
          "name": "account",
          "type": "address"
        }
      ],
      "name": "renounceRole",
      "outputs": [],
      "stateMutability": "nonpayable",
      "type": "function"
    },
    {
      "inputs": [
        {
          "internalType": "bytes32",
          "name": "role",
          "type": "bytes32"
        },
        {
          "internalType": "address",
          "name": "account",
          "type": "address"
        }
      ],
      "name": "revokeRole",
      "outputs": [],
      "stateMutability": "nonpayable",
      "type": "function"
    },
    {
      "inputs": [
        {
          "internalType": "address",
          "name": "_aaveReward",
          "type": "address"
        }
      ],
      "name": "setAaveReward",
      "outputs": [],
      "stateMutability": "nonpayable",
      "type": "function"
    },
    {
      "inputs": [
        {
          "internalType": "address",
          "name": "_portfolioManager",
          "type": "address"
        }
      ],
      "name": "setPortfolioManager",
      "outputs": [],
      "stateMutability": "nonpayable",
      "type": "function"
    },
    {
      "inputs": [
        {
          "internalType": "address",
          "name": "_rewardManager",
          "type": "address"
        }
      ],
      "name": "setRewardManager",
      "outputs": [],
      "stateMutability": "nonpayable",
      "type": "function"
    },
    {
      "inputs": [
        {
          "internalType": "bytes4",
          "name": "interfaceId",
          "type": "bytes4"
        }
      ],
      "name": "supportsInterface",
      "outputs": [
        {
          "internalType": "bool",
          "name": "",
          "type": "bool"
        }
      ],
      "stateMutability": "view",
      "type": "function"
    },
    {
      "inputs": [
        {
          "internalType": "contract IERC20",
          "name": "token",
          "type": "address"
        }
      ],
      "name": "totalSupply",
      "outputs": [
        {
          "internalType": "uint256",
          "name": "",
          "type": "uint256"
        }
      ],
      "stateMutability": "view",
      "type": "function"
    },
    {
      "inputs": [
        {
          "internalType": "contract IERC20",
          "name": "token",
          "type": "address"
        },
        {
          "internalType": "address",
          "name": "recipient",
          "type": "address"
        },
        {
          "internalType": "uint256",
          "name": "amount",
          "type": "uint256"
        }
      ],
      "name": "transfer",
      "outputs": [
        {
          "internalType": "bool",
          "name": "",
          "type": "bool"
        }
      ],
      "stateMutability": "nonpayable",
      "type": "function"
    },
    {
      "inputs": [
        {
          "internalType": "contract IERC20",
          "name": "token",
          "type": "address"
        },
        {
          "internalType": "address",
          "name": "sender",
          "type": "address"
        },
        {
          "internalType": "address",
          "name": "recipient",
          "type": "address"
        },
        {
          "internalType": "uint256",
          "name": "amount",
          "type": "uint256"
        }
      ],
      "name": "transferFrom",
      "outputs": [
        {
          "internalType": "bool",
          "name": "",
          "type": "bool"
        }
      ],
      "stateMutability": "nonpayable",
      "type": "function"
    }
  ],
  "transactionHash": "0x6952c6ce9c206356039e1c6814c4598b52ce39a5b7c4543b3129335dfc7b741b",
  "args": [],
  "solcInputHash": "4b2c02ad00a20f5dc92f2cdd9d4eb77f",
  "bytecode": "0x608060405234801561001057600080fd5b5061001c600033610021565b6100cd565b61002b828261002f565b5050565b6000828152602081815260408083206001600160a01b038516845290915290205460ff1661002b576000828152602081815260408083206001600160a01b03851684529091529020805460ff191660011790556100893390565b6001600160a01b0316816001600160a01b0316837f2f8788117e7eff1d82e926ec794901d17c78024a50270940304540a733656f0d60405160405180910390a45050565b61129a806100dc6000396000f3fe608060405234801561001057600080fd5b50600436106101375760003560e01c80637d5f5802116100b8578063beabacc81161007c578063beabacc8146102b1578063d547741f146102c4578063e1f21c67146102d7578063e4dc2aa4146102ea578063f7888aec146102fd578063fd378bba1461031057600080fd5b80637d5f58021461025b57806391d1485414610270578063927da10514610283578063a217fddf14610296578063a440b21a1461029e57600080fd5b8063248a9ca3116100ff578063248a9ca3146101ca5780632f2ff15d146101fb57806336568abe1461020e5780633b7e889a146102215780635932fdba1461023457600080fd5b806301ffc9a71461013c5780630e74982614610164578063153ee5541461017957806315dacbea1461018c57806316073abe1461019f575b600080fd5b61014f61014a366004610e6f565b610323565b60405190151581526020015b60405180910390f35b610177610172366004610d6c565b61035a565b005b610177610187366004610d6c565b6103cb565b61014f61019a366004610f12565b610442565b6001546101b2906001600160a01b031681565b6040516001600160a01b03909116815260200161015b565b6101ed6101d8366004610e26565b60009081526020819052604090206001015490565b60405190815260200161015b565b610177610209366004610e3f565b61050b565b61017761021c366004610e3f565b610536565b61017761022f366004610d6c565b6105b4565b6101ed7f6393fa734211156fcc8c7dda6b0650f5c731d4c838c1db43445a149aa2f5b6fe81565b6101ed60008051602061124583398151915281565b61014f61027e366004610e3f565b610623565b6101ed610291366004610ec7565b61064c565b6101ed600081565b6101776102ac366004610d6c565b6106d9565b61014f6102bf366004610f63565b61073e565b6101776102d2366004610e3f565b6107f7565b61014f6102e5366004610f63565b61081d565b6101ed6102f8366004610d6c565b610888565b6101ed61030b366004610e99565b6108fb565b61017761031e366004610d89565b61097f565b60006001600160e01b03198216637965db0b60e01b148061035457506301ffc9a760e01b6001600160e01b03198316145b92915050565b610365600033610623565b61038a5760405162461bcd60e51b8152600401610381906110cb565b60405180910390fd5b6001600160a01b0381166103b05760405162461bcd60e51b8152600401610381906110f9565b6103c8600080516020611245833981519152826107f7565b50565b6103d6600033610623565b6103f25760405162461bcd60e51b8152600401610381906110cb565b6001600160a01b0381166104185760405162461bcd60e51b8152600401610381906110f9565b6103c87f6393fa734211156fcc8c7dda6b0650f5c731d4c838c1db43445a149aa2f5b6fe8261050b565b600061045c60008051602061124583398151915233610623565b6104785760405162461bcd60e51b815260040161038190611130565b6040516323b872dd60e01b81526001600160a01b0385811660048301528481166024830152604482018490528616906323b872dd90606401602060405180830381600087803b1580156104ca57600080fd5b505af11580156104de573d6000803e3d6000fd5b505050506040513d601f19601f820116820180604052508101906105029190610e04565b95945050505050565b6000828152602081905260409020600101546105278133610a83565b6105318383610ae7565b505050565b6001600160a01b03811633146105a65760405162461bcd60e51b815260206004820152602f60248201527f416363657373436f6e74726f6c3a2063616e206f6e6c792072656e6f756e636560448201526e103937b632b9903337b91039b2b63360891b6064820152608401610381565b6105b08282610b6b565b5050565b6105bf600033610623565b6105db5760405162461bcd60e51b8152600401610381906110cb565b6001600160a01b0381166106015760405162461bcd60e51b8152600401610381906110f9565b600180546001600160a01b0319166001600160a01b0392909216919091179055565b6000918252602082815260408084206001600160a01b0393909316845291905290205460ff1690565b604051636eb1769f60e11b81526001600160a01b03838116600483015282811660248301526000919085169063dd62ed3e9060440160206040518083038186803b15801561069957600080fd5b505afa1580156106ad573d6000803e3d6000fd5b505050506040513d601f19601f820116820180604052508101906106d19190610fa4565b949350505050565b6106e4600033610623565b6107005760405162461bcd60e51b8152600401610381906110cb565b6001600160a01b0381166107265760405162461bcd60e51b8152600401610381906110f9565b6103c86000805160206112458339815191528261050b565b600061075860008051602061124583398151915233610623565b6107745760405162461bcd60e51b815260040161038190611130565b60405163a9059cbb60e01b81526001600160a01b0384811660048301526024820184905285169063a9059cbb906044015b602060405180830381600087803b1580156107bf57600080fd5b505af11580156107d3573d6000803e3d6000fd5b505050506040513d601f19601f820116820180604052508101906106d19190610e04565b6000828152602081905260409020600101546108138133610a83565b6105318383610b6b565b600061083760008051602061124583398151915233610623565b6108535760405162461bcd60e51b815260040161038190611130565b60405163095ea7b360e01b81526001600160a01b0384811660048301526024820184905285169063095ea7b3906044016107a5565b6000816001600160a01b03166318160ddd6040518163ffffffff1660e01b815260040160206040518083038186803b1580156108c357600080fd5b505afa1580156108d7573d6000803e3d6000fd5b505050506040513d601f19601f820116820180604052508101906103549190610fa4565b6040516370a0823160e01b81526001600160a01b038281166004830152600091908416906370a082319060240160206040518083038186803b15801561094057600080fd5b505afa158015610954573d6000803e3d6000fd5b505050506040513d601f19601f820116820180604052508101906109789190610fa4565b9392505050565b6109a97f6393fa734211156fcc8c7dda6b0650f5c731d4c838c1db43445a149aa2f5b6fe33610623565b6109f55760405162461bcd60e51b815260206004820181905260248201527f43616c6c6572206973206e6f7420746865205245574152445f4d414e414745526044820152606401610381565b600154604051633111e7b360e01b81526001600160a01b0390911690633111e7b390610a2b908690869086903090600401611032565b602060405180830381600087803b158015610a4557600080fd5b505af1158015610a59573d6000803e3d6000fd5b505050506040513d601f19601f82011682018060405250810190610a7d9190610fa4565b50505050565b610a8d8282610623565b6105b057610aa5816001600160a01b03166014610bd0565b610ab0836020610bd0565b604051602001610ac1929190610fbd565b60408051601f198184030181529082905262461bcd60e51b825261038191600401611098565b610af18282610623565b6105b0576000828152602081815260408083206001600160a01b03851684529091529020805460ff19166001179055610b273390565b6001600160a01b0316816001600160a01b0316837f2f8788117e7eff1d82e926ec794901d17c78024a50270940304540a733656f0d60405160405180910390a45050565b610b758282610623565b156105b0576000828152602081815260408083206001600160a01b0385168085529252808320805460ff1916905551339285917ff6391f5c32d9c69d2a47ea670b442974b53935d1edc7fd64eb21e047a839171b9190a45050565b60606000610bdf83600261118b565b610bea906002611173565b67ffffffffffffffff811115610c0257610c02611219565b6040519080825280601f01601f191660200182016040528015610c2c576020820181803683370190505b509050600360fc1b81600081518110610c4757610c47611203565b60200101906001600160f81b031916908160001a905350600f60fb1b81600181518110610c7657610c76611203565b60200101906001600160f81b031916908160001a9053506000610c9a84600261118b565b610ca5906001611173565b90505b6001811115610d1d576f181899199a1a9b1b9c1cb0b131b232b360811b85600f1660108110610cd957610cd9611203565b1a60f81b828281518110610cef57610cef611203565b60200101906001600160f81b031916908160001a90535060049490941c93610d16816111d6565b9050610ca8565b5083156109785760405162461bcd60e51b815260206004820181905260248201527f537472696e67733a20686578206c656e67746820696e73756666696369656e746044820152606401610381565b600060208284031215610d7e57600080fd5b81356109788161122f565b600080600060408486031215610d9e57600080fd5b833567ffffffffffffffff80821115610db657600080fd5b818601915086601f830112610dca57600080fd5b813581811115610dd957600080fd5b8760208260051b8501011115610dee57600080fd5b6020928301989097509590910135949350505050565b600060208284031215610e1657600080fd5b8151801515811461097857600080fd5b600060208284031215610e3857600080fd5b5035919050565b60008060408385031215610e5257600080fd5b823591506020830135610e648161122f565b809150509250929050565b600060208284031215610e8157600080fd5b81356001600160e01b03198116811461097857600080fd5b60008060408385031215610eac57600080fd5b8235610eb78161122f565b91506020830135610e648161122f565b600080600060608486031215610edc57600080fd5b8335610ee78161122f565b92506020840135610ef78161122f565b91506040840135610f078161122f565b809150509250925092565b60008060008060808587031215610f2857600080fd5b8435610f338161122f565b93506020850135610f438161122f565b92506040850135610f538161122f565b9396929550929360600135925050565b600080600060608486031215610f7857600080fd5b8335610f838161122f565b92506020840135610f938161122f565b929592945050506040919091013590565b600060208284031215610fb657600080fd5b5051919050565b7f416363657373436f6e74726f6c3a206163636f756e7420000000000000000000815260008351610ff58160178501602088016111aa565b7001034b99036b4b9b9b4b733903937b6329607d1b60179184019182015283516110268160288401602088016111aa565b01602801949350505050565b6060808252810184905260008560808301825b878110156110755782356110588161122f565b6001600160a01b0316825260209283019290910190600101611045565b50602084019590955250506001600160a01b039190911660409091015292915050565b60208152600082518060208401526110b78160408501602087016111aa565b601f01601f19169190910160400192915050565b6020808252601490820152735265737472696374656420746f2061646d696e7360601b604082015260600190565b60208082526018908201527f5a65726f2061646472657373206e6f7420616c6c6f7765640000000000000000604082015260600190565b60208082526023908201527f43616c6c6572206973206e6f742074686520504f5254464f4c494f5f4d414e4160408201526223a2a960e91b606082015260800190565b60008219821115611186576111866111ed565b500190565b60008160001904831182151516156111a5576111a56111ed565b500290565b60005b838110156111c55781810151838201526020016111ad565b83811115610a7d5750506000910152565b6000816111e5576111e56111ed565b506000190190565b634e487b7160e01b600052601160045260246000fd5b634e487b7160e01b600052603260045260246000fd5b634e487b7160e01b600052604160045260246000fd5b6001600160a01b03811681146103c857600080fdfe90c2aa7471c04182221f68e80c07ab1e5946e4c63f8693e14ca40385d529f051a2646970667358221220dce983c0962410960dfe4e9bb27ca39e88cf3abc22d6492b2a727163d5ad6e2664736f6c63430008060033",
  "devdoc": {
    "kind": "dev",
    "methods": {
      "allowance(address,address,address)": {
        "details": "proxy to IERC20().allowance();"
      },
      "approve(address,address,uint256)": {
        "details": "proxy to IERC20().approve();"
      },
      "balanceOf(address,address)": {
        "details": "proxy to IERC20().balanceOf();"
      },
      "getRoleAdmin(bytes32)": {
        "details": "Returns the admin role that controls `role`. See {grantRole} and {revokeRole}. To change a role's admin, use {_setRoleAdmin}."
      },
      "grantRole(bytes32,address)": {
        "details": "Grants `role` to `account`. If `account` had not been already granted `role`, emits a {RoleGranted} event. Requirements: - the caller must have ``role``'s admin role."
      },
      "hasRole(bytes32,address)": {
        "details": "Returns `true` if `account` has been granted `role`."
      },
      "renounceRole(bytes32,address)": {
        "details": "Revokes `role` from the calling account. Roles are often managed via {grantRole} and {revokeRole}: this function's purpose is to provide a mechanism for accounts to lose their privileges if they are compromised (such as when a trusted device is misplaced). If the calling account had been granted `role`, emits a {RoleRevoked} event. Requirements: - the caller must be `account`."
      },
      "revokeRole(bytes32,address)": {
        "details": "Revokes `role` from `account`. If `account` had been granted `role`, emits a {RoleRevoked} event. Requirements: - the caller must have ``role``'s admin role."
      },
      "supportsInterface(bytes4)": {
        "details": "See {IERC165-supportsInterface}."
      },
      "totalSupply(address)": {
        "details": "proxy to IERC20().totalSupply();"
      },
      "transfer(address,address,uint256)": {
        "details": "proxy to IERC20().transfer();"
      },
      "transferFrom(address,address,address,uint256)": {
        "details": "proxy to IERC20().transferFrom();"
      }
    },
    "version": 1
  },
  "userdoc": {
    "kind": "user",
    "methods": {},
    "notice": "Vault address is used as owner for all tokens for Overnights. So you able to use Vault address to check any tokens balances. Vault doesn't know about what it has and how mauch. Vault can contain any tokens but only IERC20 could be transfered in real work. NOTE: currently work with ETH/MATIC or other payments not realised. NOTE: not used SafeERC20 and it may be changed in future",
    "version": 1
  },
  "storageLayout": {
    "storage": [
      {
        "astId": 62,
        "contract": "contracts/Vault.sol:Vault",
        "label": "_roles",
        "offset": 0,
        "slot": "0",
        "type": "t_mapping(t_bytes32,t_struct(RoleData)57_storage)"
      },
      {
        "astId": 5796,
        "contract": "contracts/Vault.sol:Vault",
        "label": "aaveReward",
        "offset": 0,
        "slot": "1",
        "type": "t_contract(IAaveIncentivesController)8214"
      }
    ],
    "types": {
      "t_address": {
        "encoding": "inplace",
        "label": "address",
        "numberOfBytes": "20"
      },
      "t_bool": {
        "encoding": "inplace",
        "label": "bool",
        "numberOfBytes": "1"
      },
      "t_bytes32": {
        "encoding": "inplace",
        "label": "bytes32",
        "numberOfBytes": "32"
      },
      "t_contract(IAaveIncentivesController)8214": {
        "encoding": "inplace",
        "label": "contract IAaveIncentivesController",
        "numberOfBytes": "20"
      },
      "t_mapping(t_address,t_bool)": {
        "encoding": "mapping",
        "key": "t_address",
        "label": "mapping(address => bool)",
        "numberOfBytes": "32",
        "value": "t_bool"
      },
      "t_mapping(t_bytes32,t_struct(RoleData)57_storage)": {
        "encoding": "mapping",
        "key": "t_bytes32",
        "label": "mapping(bytes32 => struct AccessControl.RoleData)",
        "numberOfBytes": "32",
        "value": "t_struct(RoleData)57_storage"
      },
      "t_struct(RoleData)57_storage": {
        "encoding": "inplace",
        "label": "struct AccessControl.RoleData",
        "members": [
          {
            "astId": 54,
            "contract": "contracts/Vault.sol:Vault",
            "label": "members",
            "offset": 0,
            "slot": "0",
            "type": "t_mapping(t_address,t_bool)"
          },
          {
            "astId": 56,
            "contract": "contracts/Vault.sol:Vault",
            "label": "adminRole",
            "offset": 0,
            "slot": "1",
            "type": "t_bytes32"
          }
        ],
        "numberOfBytes": "64"
      }
    }
  }
}