{
    "contractName": "Mark2Market",
    "abi": [
        {
            "anonymous": false,
            "inputs": [
                {
                    "indexed": false,
                    "internalType": "string",
                    "name": "str",
                    "type": "string"
                }
            ],
            "name": "ConsoleLog",
            "type": "event"
        },
        {
            "anonymous": false,
            "inputs": [
                {
                    "indexed": true,
                    "internalType": "address",
                    "name": "previousOwner",
                    "type": "address"
                },
                {
                    "indexed": true,
                    "internalType": "address",
                    "name": "newOwner",
                    "type": "address"
                }
            ],
            "name": "OwnershipTransferred",
            "type": "event"
        },
        {
            "inputs": [],
            "name": "activesPrices",
            "outputs": [
                {
                    "components": [
                        {
                            "internalType": "address",
                            "name": "addr",
                            "type": "address"
                        },
                        {
                            "internalType": "string",
                            "name": "name",
                            "type": "string"
                        },
                        {
                            "internalType": "string",
                            "name": "symbol",
                            "type": "string"
                        },
                        {
                            "internalType": "uint256",
                            "name": "decimals",
                            "type": "uint256"
                        },
                        {
                            "internalType": "uint256",
                            "name": "price",
                            "type": "uint256"
                        },
                        {
                            "internalType": "uint256",
                            "name": "bookValue",
                            "type": "uint256"
                        },
                        {
                            "internalType": "uint256",
                            "name": "liquidationValue",
                            "type": "uint256"
                        }
                    ],
                    "internalType": "struct IMark2Market.ActivesPrices[]",
                    "name": "",
                    "type": "tuple[]"
                }
            ],
            "stateMutability": "view",
            "type": "function"
        },
        {
            "inputs": [],
            "name": "assetPricesForBalance",
            "outputs": [
                {
                    "components": [
                        {
                            "components": [
                                {
                                    "internalType": "address",
                                    "name": "asset",
                                    "type": "address"
                                },
                                {
                                    "internalType": "uint256",
                                    "name": "amountInVault",
                                    "type": "uint256"
                                },
                                {
                                    "internalType": "uint256",
                                    "name": "usdcPriceOne",
                                    "type": "uint256"
                                },
                                {
                                    "internalType": "uint256",
                                    "name": "usdcPriceInVault",
                                    "type": "uint256"
                                },
                                {
                                    "internalType": "uint256",
                                    "name": "diffToTarget",
                                    "type": "uint256"
                                },
                                {
                                    "internalType": "int8",
                                    "name": "diffToTargetSign",
                                    "type": "int8"
                                }
                            ],
                            "internalType": "struct IMark2Market.AssetPrices[]",
                            "name": "assetPrices",
                            "type": "tuple[]"
                        },
                        {
                            "internalType": "uint256",
                            "name": "totalUsdcPrice",
                            "type": "uint256"
                        }
                    ],
                    "internalType": "struct IMark2Market.TotalAssetPrices",
                    "name": "",
                    "type": "tuple"
                }
            ],
            "stateMutability": "nonpayable",
            "type": "function"
        },
        {
            "inputs": [
                {
                    "internalType": "address",
                    "name": "_vault",
                    "type": "address"
                },
                {
                    "internalType": "address",
                    "name": "_investmentPortfolio",
                    "type": "address"
                }
            ],
            "name": "init",
            "outputs": [],
            "stateMutability": "nonpayable",
            "type": "function"
        },
        {
            "inputs": [],
            "name": "owner",
            "outputs": [
                {
                    "internalType": "address",
                    "name": "",
                    "type": "address"
                }
            ],
            "stateMutability": "view",
            "type": "function"
        },
        {
            "inputs": [],
            "name": "renounceOwnership",
            "outputs": [],
            "stateMutability": "nonpayable",
            "type": "function"
        },
        {
            "inputs": [
                {
                    "internalType": "bytes32",
                    "name": "",
                    "type": "bytes32"
                }
            ],
            "name": "rolemap",
            "outputs": [
                {
                    "internalType": "address",
                    "name": "",
                    "type": "address"
                }
            ],
            "stateMutability": "view",
            "type": "function"
        },
        {
            "inputs": [
                {
                    "internalType": "address",
                    "name": "_addrAL",
                    "type": "address"
                },
                {
                    "internalType": "address",
                    "name": "_addrWault",
                    "type": "address"
                }
            ],
            "name": "setAddr",
            "outputs": [],
            "stateMutability": "nonpayable",
            "type": "function"
        },
        {
            "inputs": [
                {
                    "internalType": "bytes32",
                    "name": "_role",
                    "type": "bytes32"
                },
                {
                    "internalType": "address",
                    "name": "_actor",
                    "type": "address"
                }
            ],
            "name": "setRole",
            "outputs": [],
            "stateMutability": "nonpayable",
            "type": "function"
        },
        {
            "inputs": [
                {
                    "internalType": "address",
                    "name": "newOwner",
                    "type": "address"
                }
            ],
            "name": "transferOwnership",
            "outputs": [],
            "stateMutability": "nonpayable",
            "type": "function"
        },
        {
            "inputs": [
                {
                    "internalType": "uint256",
                    "name": "_tst",
                    "type": "uint256"
                }
            ],
            "name": "tstPrice",
            "outputs": [],
            "stateMutability": "nonpayable",
            "type": "function"
        }
    ],
    "bytecode": "608060405234801561001057600080fd5b5061001a3361001f565b61006f565b600080546001600160a01b038381166001600160a01b0319831681178455604051919092169283917f8be0079c531659141344cd1fd0a4f28419497f9722a3daafe3b4186f6b6457e09190a35050565b611a9f8061007e6000396000f3fe608060405234801561001057600080fd5b506004361061009e5760003560e01c8063dff8720311610066578063dff872031461012c578063ebcb00e01461013f578063f09a401614610152578063f2fde38b14610165578063f4a937101461017857600080fd5b80632dc10a54146100a357806358a8316c146100e9578063715018a6146100fe5780638da5cb5b146101085780638f5e842c14610119575b600080fd5b6100cc6100b136600461152f565b6001602052600090815260409020546001600160a01b031681565b6040516001600160a01b0390911681526020015b60405180910390f35b6100f161018d565b6040516100e09190611802565b610106610589565b005b6000546001600160a01b03166100cc565b61010661012736600461152f565b6105c8565b61010661013a366004611548565b610603565b61010661014d3660046112e2565b61065b565b6101066101603660046112e2565b6106b3565b6101066101733660046112be565b61070b565b6101806107a9565b6040516100e091906116e8565b60408051808201909152606081526000602082015260065460408051630ffe53c160e21b815290516000926001600160a01b031691633ff94f04916004808301928692919082900301818387803b1580156101e757600080fd5b505af11580156101fb573d6000803e3d6000fd5b505050506040513d6000823e601f3d908101601f19168201604052610223919081019061148e565b90507f0f8db0708c4e6b233e2c285fe1ed66015dee71bd374ac8e835534be5f592d6a26102508251610e5b565b6040516020016102609190611674565b60408051601f198184030181529082905261027a916117ac565b60405180910390a180516000906064811115610294575060645b60008167ffffffffffffffff8111156102af576102af611a3e565b60405190808252806020026020018201604052801561032457816020015b6103116040518060c0016040528060006001600160a01b03168152602001600081526020016000815260200160008152602001600081526020016000800b81525090565b8152602001906001900390816102cd5790505b50905060005b828160ff1610156104ca576000858260ff168151811061034c5761034c611a28565b602090810291909101015180516005546040516370a0823160e01b81526001600160a01b0391821660048201529293506000929116906370a082319060240160206040518083038186803b1580156103a357600080fd5b505afa1580156103b7573d6000803e3d6000fd5b505050506040513d601f19601f820116820180604052508101906103db9190611614565b9050600160006103eb8284611947565b90507f0f8db0708c4e6b233e2c285fe1ed66015dee71bd374ac8e835534be5f592d6a261041784610e5b565b60405160200161042791906116b1565b60408051601f1981840301815290829052610441916117ac565b60405180910390a1610453818961191b565b97506040518060c0016040528085600001516001600160a01b03168152602001848152602001838152602001828152602001600081526020016000800b815250868660ff16815181106104a8576104a8611a28565b60200260200101819052505050505080806104c2906119c8565b91505061032a565b5060005b828160ff16101561056c576000828260ff16815181106104f0576104f0611a28565b60200260200101519050610508858260000151610f63565b848460ff168151811061051d5761051d611a28565b6020026020010151608001858560ff168151811061053d5761053d611a28565b602002602001015160a0018260000b60000b815250828152505050508080610564906119c8565b9150506104ce565b506040805180820190915290815260208101929092525092915050565b6000546001600160a01b031633146105bc5760405162461bcd60e51b81526004016105b3906117bf565b60405180910390fd5b6105c6600061114f565b565b6000546001600160a01b031633146105f25760405162461bcd60e51b81526004016105b3906117bf565b60006105fc6107a9565b5050600355565b6000546001600160a01b0316331461062d5760405162461bcd60e51b81526004016105b3906117bf565b60009182526001602052604090912080546001600160a01b0319166001600160a01b03909216919091179055565b6000546001600160a01b031633146106855760405162461bcd60e51b81526004016105b3906117bf565b600280546001600160a01b039384166001600160a01b03199182161790915560048054929093169116179055565b6000546001600160a01b031633146106dd5760405162461bcd60e51b81526004016105b3906117bf565b600580546001600160a01b039384166001600160a01b03199182161790915560068054929093169116179055565b6000546001600160a01b031633146107355760405162461bcd60e51b81526004016105b3906117bf565b6001600160a01b03811661079d5760405162461bcd60e51b815260206004820152602960248201527f4f776e61626c654578743a206e6577206f776e657220697320746865207a65726044820152686f206164647265737360b81b60648201526084016105b3565b6107a68161114f565b50565b60606000600260009054906101000a90046001600160a01b03166001600160a01b031663e9843b126040518163ffffffff1660e01b815260040160006040518083038186803b1580156107fb57600080fd5b505afa15801561080f573d6000803e3d6000fd5b505050506040513d6000823e601f3d908101601f19168201604052610837919081019061131b565b90506000815167ffffffffffffffff81111561085557610855611a3e565b6040519080825280602002602001820160405280156108cf57816020015b6108bc6040518060e0016040528060006001600160a01b031681526020016060815260200160608152602001600081526020016000815260200160008152602001600081525090565b8152602001906001900390816108735790505b50905060005b82518160ff161080156108eb575060648160ff16105b15610e54576000838260ff168151811061090757610907611a28565b602002602001015160e0015160ff161115610e42576000838260ff168151811061093357610933611a28565b60200260200101516000015190506000848360ff168151811061095857610958611a28565b6020026020010151602001516001600160a01b0316637113c908868560ff168151811061098757610987611a28565b602002602001015160000151878660ff16815181106109a8576109a8611a28565b6020026020010151604001516040518363ffffffff1660e01b81526004016109e69291906001600160a01b0392831681529116602082015260400190565b60206040518083038186803b1580156109fe57600080fd5b505afa158015610a12573d6000803e3d6000fd5b505050506040513d601f19601f82011682018060405250810190610a369190611614565b90506000858460ff1681518110610a4f57610a4f611a28565b6020026020010151602001516001600160a01b031663ed633e83878660ff1681518110610a7e57610a7e611a28565b602002602001015160000151600460009054906101000a90046001600160a01b0316898860ff1681518110610ab557610ab5611a28565b6020026020010151604001516040518463ffffffff1660e01b8152600401610afd939291906001600160a01b0393841681529183166020830152909116604082015260600190565b60206040518083038186803b158015610b1557600080fd5b505afa158015610b29573d6000803e3d6000fd5b505050506040513d601f19601f82011682018060405250810190610b4d9190611614565b90506000868560ff1681518110610b6657610b66611a28565b6020026020010151602001516001600160a01b0316638b0493f1888760ff1681518110610b9557610b95611a28565b602002602001015160000151600460009054906101000a90046001600160a01b03168a8960ff1681518110610bcc57610bcc611a28565b6020026020010151604001516040518463ffffffff1660e01b8152600401610c14939291906001600160a01b0393841681529183166020830152909116604082015260600190565b60206040518083038186803b158015610c2c57600080fd5b505afa158015610c40573d6000803e3d6000fd5b505050506040513d601f19601f82011682018060405250810190610c649190611614565b90506040518060e00160405280888760ff1681518110610c8657610c86611a28565b6020026020010151600001516001600160a01b03168152602001856001600160a01b03166306fdde036040518163ffffffff1660e01b815260040160006040518083038186803b158015610cd957600080fd5b505afa158015610ced573d6000803e3d6000fd5b505050506040513d6000823e601f3d908101601f19168201604052610d15919081019061156d565b8152602001856001600160a01b03166395d89b416040518163ffffffff1660e01b815260040160006040518083038186803b158015610d5357600080fd5b505afa158015610d67573d6000803e3d6000fd5b505050506040513d6000823e601f3d908101601f19168201604052610d8f919081019061156d565b8152602001856001600160a01b031663313ce5676040518163ffffffff1660e01b815260040160206040518083038186803b158015610dcd57600080fd5b505afa158015610de1573d6000803e3d6000fd5b505050506040513d601f19601f82011682018060405250810190610e05919061162d565b60ff16815260200184815260200183815260200182815250868660ff1681518110610e3257610e32611a28565b6020026020010181905250505050505b80610e4c816119c8565b9150506108d5565b5092915050565b606081610e7f5750506040805180820190915260018152600360fc1b602082015290565b8160005b8115610ea95780610e93816119ad565b9150610ea29050600a83611933565b9150610e83565b60008167ffffffffffffffff811115610ec457610ec4611a3e565b6040519080825280601f01601f191660200182016040528015610eee576020820181803683370190505b509050815b8515610f5a57610f04600182611966565b9050610f11600a876119e8565b610f1c90603061191b565b60f81b828281518110610f3157610f31611a28565b60200101906001600160f81b031916908160001a905350610f53600a87611933565b9550610ef3565b50949350505050565b6006546040516303a7e9db60e41b81526001600160a01b0383811660048301526000928392839290911690633a7e9db09060240160806040518083038186803b158015610faf57600080fd5b505afa158015610fc3573d6000803e3d6000fd5b505050506040513d601f19601f82011682018060405250810190610fe791906115f8565b90506000600660009054906101000a90046001600160a01b03166001600160a01b031663ed2a2f9d6040518163ffffffff1660e01b815260040160206040518083038186803b15801561103957600080fd5b505afa15801561104d573d6000803e3d6000fd5b505050506040513d601f19601f820116820180604052508101906110719190611614565b60408301516110809088611947565b61108a9190611933565b6005546040516370a0823160e01b81526001600160a01b039182166004820152919250600091908716906370a082319060240160206040518083038186803b1580156110d557600080fd5b505afa1580156110e9573d6000803e3d6000fd5b505050506040513d601f19601f8201168201806040525081019061110d9190611614565b9050600081831115611133576111238284611966565b6000199550955050505050611148565b61113d8383611966565b600195509550505050505b9250929050565b600080546001600160a01b038381166001600160a01b0319831681178455604051919092169283917f8be0079c531659141344cd1fd0a4f28419497f9722a3daafe3b4186f6b6457e09190a35050565b80516111aa81611a54565b919050565b600082601f8301126111c057600080fd5b815160206111d56111d0836118f7565b6118c6565b80838252828201915082860187848660051b89010111156111f557600080fd5b60005b8581101561121d57815161120b81611a54565b845292840192908401906001016111f8565b5090979650505050505050565b60006080828403121561123c57600080fd5b6040516080810181811067ffffffffffffffff8211171561125f5761125f611a3e565b8060405250809150825161127281611a54565b808252506020830151602082015260408301516040820152606083015160608201525092915050565b805161ffff811681146111aa57600080fd5b805160ff811681146111aa57600080fd5b6000602082840312156112d057600080fd5b81356112db81611a54565b9392505050565b600080604083850312156112f557600080fd5b823561130081611a54565b9150602083013561131081611a54565b809150509250929050565b6000602080838503121561132e57600080fd5b825167ffffffffffffffff8082111561134657600080fd5b818501915085601f83011261135a57600080fd5b81516113686111d0826118f7565b80828252858201915085850189878560051b880101111561138857600080fd5b60005b8481101561147f578151868111156113a257600080fd5b8701610120818d03601f19018113156113ba57600080fd5b6113c261189c565b6113cd8b840161119f565b815260406113dc81850161119f565b8c83015260606113ed81860161119f565b828401526080915061140082860161119f565b818401525060a0808501518284015260c0915061141e82860161129b565b9083015260e061142f85820161129b565b8284015261010091506114438286016112ad565b9083015291830151918983111561145957600080fd5b6114678f8d858701016111af565b9082015286525050928701929087019060010161138b565b50909998505050505050505050565b600060208083850312156114a157600080fd5b825167ffffffffffffffff8111156114b857600080fd5b8301601f810185136114c957600080fd5b80516114d76111d0826118f7565b80828252848201915084840188868560071b87010111156114f757600080fd5b600094505b838510156115235761150e898261122a565b835260019490940193918501916080016114fc565b50979650505050505050565b60006020828403121561154157600080fd5b5035919050565b6000806040838503121561155b57600080fd5b82359150602083013561131081611a54565b60006020828403121561157f57600080fd5b815167ffffffffffffffff8082111561159757600080fd5b818401915084601f8301126115ab57600080fd5b8151818111156115bd576115bd611a3e565b6115d0601f8201601f19166020016118c6565b91508082528560208285010111156115e757600080fd5b610f5a81602084016020860161197d565b60006080828403121561160a57600080fd5b6112db838361122a565b60006020828403121561162657600080fd5b5051919050565b60006020828403121561163f57600080fd5b6112db826112ad565b6000815180845261166081602086016020860161197d565b601f01601f19169290920160200192915050565b74030b9b9b2ba2bb2b4b3b43a39973632b733ba341d1605d1b8152600082516116a481601585016020870161197d565b9190910160150192915050565b6e030b6b7bab73a24b72b30bab63a1d1608d1b8152600082516116db81600f85016020870161197d565b91909101600f0192915050565b60006020808301818452808551808352604092508286019150828160051b87010184880160005b8381101561179e57888303603f19018552815180516001600160a01b031684528781015160e08986018190529061174882870182611648565b91505087820151858203898701526117608282611648565b606084810151908801526080808501519088015260a0808501519088015260c09384015193909601929092525050938601939086019060010161170f565b509098975050505050505050565b6020815260006112db6020830184611648565b60208082526023908201527f4f776e61626c654578743a2063616c6c6572206973206e6f7420746865206f776040820152623732b960e91b606082015260800190565b60006020808352606080840185516040808588015282825180855260809450848901915086840193506000805b8281101561188457855180516001600160a01b03168552898101518a86015285810151868601528881015189860152878101518886015260a090810151830b908501529488019460c09093019260010161182f565b50505094909701519590960194909452509392505050565b604051610120810167ffffffffffffffff811182821017156118c0576118c0611a3e565b60405290565b604051601f8201601f1916810167ffffffffffffffff811182821017156118ef576118ef611a3e565b604052919050565b600067ffffffffffffffff82111561191157611911611a3e565b5060051b60200190565b6000821982111561192e5761192e6119fc565b500190565b60008261194257611942611a12565b500490565b6000816000190483118215151615611961576119616119fc565b500290565b600082821015611978576119786119fc565b500390565b60005b83811015611998578181015183820152602001611980565b838111156119a7576000848401525b50505050565b60006000198214156119c1576119c16119fc565b5060010190565b600060ff821660ff8114156119df576119df6119fc565b60010192915050565b6000826119f7576119f7611a12565b500690565b634e487b7160e01b600052601160045260246000fd5b634e487b7160e01b600052601260045260246000fd5b634e487b7160e01b600052603260045260246000fd5b634e487b7160e01b600052604160045260246000fd5b6001600160a01b03811681146107a657600080fdfea2646970667358221220b6efbac724ea77457d336fdb8a13cea9f944fe1589ffdfcaeaaa81c8382e7d4c64736f6c63430008070033",
    "sourcePath": "c:/work/overnight/ovngt-mvp/contracts/Mark2Market.sol",
    "compiler": {
        "name": "solc",
        "version": "0.8.7+commit.e28d00a7"
    },
    "functionHashes": {
        "activesPrices()": "f4a93710",
        "assetPricesForBalance()": "58a8316c",
        "init(address,address)": "f09a4016",
        "owner()": "8da5cb5b",
        "renounceOwnership()": "715018a6",
        "rolemap(bytes32)": "2dc10a54",
        "setAddr(address,address)": "ebcb00e0",
        "setRole(bytes32,address)": "dff87203",
        "transferOwnership(address)": "f2fde38b",
        "tstPrice(uint256)": "8f5e842c"
    },
    "gasEstimates": {
        "creation": {
            "codeDepositCost": "1363000",
            "executionCost": "27258",
            "totalCost": "1390258"
        },
        "external": {
            "activesPrices()": "infinite",
            "assetPricesForBalance()": "infinite",
            "init(address,address)": "infinite",
            "owner()": "2387",
            "renounceOwnership()": "28159",
            "rolemap(bytes32)": "2467",
            "setAddr(address,address)": "infinite",
            "setRole(bytes32,address)": "26802",
            "transferOwnership(address)": "infinite",
            "tstPrice(uint256)": "infinite"
        },
        "internal": {
            "diffToTarget(uint256,address)": "infinite",
            "uint2str(uint256)": "infinite"
        }
    }
}