{
  "address": "0xE012b62d65Cc9f43E1D19420B34488AF97F8B4d1",
  "abi": [
    {
      "inputs": [],
      "stateMutability": "nonpayable",
      "type": "constructor"
    },
    {
      "anonymous": false,
      "inputs": [
        {
          "indexed": false,
          "internalType": "address",
          "name": "previousAdmin",
          "type": "address"
        },
        {
          "indexed": false,
          "internalType": "address",
          "name": "newAdmin",
          "type": "address"
        }
      ],
      "name": "AdminChanged",
      "type": "event"
    },
    {
      "anonymous": false,
      "inputs": [
        {
          "indexed": true,
          "internalType": "address",
          "name": "beacon",
          "type": "address"
        }
      ],
      "name": "BeaconUpgraded",
      "type": "event"
    },
    {
      "anonymous": false,
      "inputs": [
        {
          "indexed": false,
          "internalType": "uint8",
          "name": "version",
          "type": "uint8"
        }
      ],
      "name": "Initialized",
      "type": "event"
    },
    {
      "anonymous": false,
      "inputs": [
        {
          "indexed": false,
          "internalType": "string",
          "name": "label",
          "type": "string"
        },
        {
          "indexed": false,
          "internalType": "uint256",
          "name": "amount",
          "type": "uint256"
        },
        {
          "indexed": false,
          "internalType": "uint256",
          "name": "fee",
          "type": "uint256"
        },
        {
          "indexed": false,
          "internalType": "address",
          "name": "sender",
          "type": "address"
        }
      ],
      "name": "MintBurn",
      "type": "event"
    },
    {
      "anonymous": false,
      "inputs": [
        {
          "indexed": false,
          "internalType": "uint256",
          "name": "nextPayoutTime",
          "type": "uint256"
        }
      ],
      "name": "NextPayoutTime",
      "type": "event"
    },
    {
      "anonymous": false,
      "inputs": [
        {
          "indexed": false,
          "internalType": "address",
          "name": "account",
          "type": "address"
        }
      ],
      "name": "Paused",
      "type": "event"
    },
    {
      "anonymous": false,
      "inputs": [
        {
          "indexed": false,
          "internalType": "int256",
          "name": "profit",
          "type": "int256"
        },
        {
          "indexed": false,
          "internalType": "uint256",
          "name": "newLiquidityIndex",
          "type": "uint256"
        }
      ],
      "name": "PayoutEvent",
      "type": "event"
    },
    {
      "anonymous": false,
      "inputs": [
        {
          "indexed": true,
          "internalType": "bytes32",
          "name": "role",
          "type": "bytes32"
        },
        {
          "indexed": true,
          "internalType": "bytes32",
          "name": "previousAdminRole",
          "type": "bytes32"
        },
        {
          "indexed": true,
          "internalType": "bytes32",
          "name": "newAdminRole",
          "type": "bytes32"
        }
      ],
      "name": "RoleAdminChanged",
      "type": "event"
    },
    {
      "anonymous": false,
      "inputs": [
        {
          "indexed": true,
          "internalType": "bytes32",
          "name": "role",
          "type": "bytes32"
        },
        {
          "indexed": true,
          "internalType": "address",
          "name": "account",
          "type": "address"
        },
        {
          "indexed": true,
          "internalType": "address",
          "name": "sender",
          "type": "address"
        }
      ],
      "name": "RoleGranted",
      "type": "event"
    },
    {
      "anonymous": false,
      "inputs": [
        {
          "indexed": true,
          "internalType": "bytes32",
          "name": "role",
          "type": "bytes32"
        },
        {
          "indexed": true,
          "internalType": "address",
          "name": "account",
          "type": "address"
        },
        {
          "indexed": true,
          "internalType": "address",
          "name": "sender",
          "type": "address"
        }
      ],
      "name": "RoleRevoked",
      "type": "event"
    },
    {
      "anonymous": false,
      "inputs": [
        {
          "indexed": false,
          "internalType": "address",
          "name": "account",
          "type": "address"
        }
      ],
      "name": "Unpaused",
      "type": "event"
    },
    {
      "anonymous": false,
      "inputs": [
        {
          "indexed": true,
          "internalType": "address",
          "name": "implementation",
          "type": "address"
        }
      ],
      "name": "Upgraded",
      "type": "event"
    },
    {
      "inputs": [],
      "name": "DEFAULT_ADMIN_ROLE",
      "outputs": [
        {
          "internalType": "bytes32",
          "name": "",
          "type": "bytes32"
        }
      ],
      "stateMutability": "view",
      "type": "function"
    },
    {
      "inputs": [],
      "name": "FREE_RIDER_ROLE",
      "outputs": [
        {
          "internalType": "bytes32",
          "name": "",
          "type": "bytes32"
        }
      ],
      "stateMutability": "view",
      "type": "function"
    },
    {
      "inputs": [],
      "name": "INSURANCE_HOLDER_ROLE",
      "outputs": [
        {
          "internalType": "bytes32",
          "name": "",
          "type": "bytes32"
        }
      ],
      "stateMutability": "view",
      "type": "function"
    },
    {
      "inputs": [],
      "name": "PORTFOLIO_AGENT_ROLE",
      "outputs": [
        {
          "internalType": "bytes32",
          "name": "",
          "type": "bytes32"
        }
      ],
      "stateMutability": "view",
      "type": "function"
    },
    {
      "inputs": [],
      "name": "TRUST_ROLE",
      "outputs": [
        {
          "internalType": "bytes32",
          "name": "",
          "type": "bytes32"
        }
      ],
      "stateMutability": "view",
      "type": "function"
    },
    {
      "inputs": [],
      "name": "UNIT_ROLE",
      "outputs": [
        {
          "internalType": "bytes32",
          "name": "",
          "type": "bytes32"
        }
      ],
      "stateMutability": "view",
      "type": "function"
    },
    {
      "inputs": [],
      "name": "asset",
      "outputs": [
        {
          "internalType": "contract IERC20",
          "name": "",
          "type": "address"
        }
      ],
      "stateMutability": "view",
      "type": "function"
    },
    {
      "inputs": [],
      "name": "changeAdminRoles",
      "outputs": [],
      "stateMutability": "nonpayable",
      "type": "function"
    },
    {
      "inputs": [],
      "name": "checkWithdraw",
      "outputs": [],
      "stateMutability": "view",
      "type": "function"
    },
    {
      "inputs": [
        {
          "internalType": "uint256",
          "name": "_assetAmount",
          "type": "uint256"
        },
        {
          "internalType": "address",
          "name": "_to",
          "type": "address"
        }
      ],
      "name": "compensate",
      "outputs": [],
      "stateMutability": "nonpayable",
      "type": "function"
    },
    {
      "inputs": [
        {
          "internalType": "bytes32",
          "name": "role",
          "type": "bytes32"
        }
      ],
      "name": "getRoleAdmin",
      "outputs": [
        {
          "internalType": "bytes32",
          "name": "",
          "type": "bytes32"
        }
      ],
      "stateMutability": "view",
      "type": "function"
    },
    {
      "inputs": [
        {
          "internalType": "bytes32",
          "name": "role",
          "type": "bytes32"
        },
        {
          "internalType": "address",
          "name": "account",
          "type": "address"
        }
      ],
      "name": "grantRole",
      "outputs": [],
      "stateMutability": "nonpayable",
      "type": "function"
    },
    {
      "inputs": [
        {
          "internalType": "bytes32",
          "name": "role",
          "type": "bytes32"
        },
        {
          "internalType": "address",
          "name": "account",
          "type": "address"
        }
      ],
      "name": "hasRole",
      "outputs": [
        {
          "internalType": "bool",
          "name": "",
          "type": "bool"
        }
      ],
      "stateMutability": "view",
      "type": "function"
    },
    {
      "inputs": [],
      "name": "initialize",
      "outputs": [],
      "stateMutability": "nonpayable",
      "type": "function"
    },
    {
      "inputs": [],
      "name": "lastBlockNumber",
      "outputs": [
        {
          "internalType": "uint256",
          "name": "",
          "type": "uint256"
        }
      ],
      "stateMutability": "view",
      "type": "function"
    },
    {
      "inputs": [],
      "name": "m2m",
      "outputs": [
        {
          "internalType": "contract IMark2Market",
          "name": "",
          "type": "address"
        }
      ],
      "stateMutability": "view",
      "type": "function"
    },
    {
      "inputs": [
        {
          "components": [
            {
              "internalType": "uint256",
              "name": "amount",
              "type": "uint256"
            }
          ],
          "internalType": "struct InsuranceExchange.InputMint",
          "name": "input",
          "type": "tuple"
        }
      ],
      "name": "mint",
      "outputs": [],
      "stateMutability": "nonpayable",
      "type": "function"
    },
    {
      "inputs": [],
      "name": "mintFee",
      "outputs": [
        {
          "internalType": "uint256",
          "name": "",
          "type": "uint256"
        }
      ],
      "stateMutability": "view",
      "type": "function"
    },
    {
      "inputs": [],
      "name": "mintFeeDenominator",
      "outputs": [
        {
          "internalType": "uint256",
          "name": "",
          "type": "uint256"
        }
      ],
      "stateMutability": "view",
      "type": "function"
    },
    {
      "inputs": [],
      "name": "nextPayoutTime",
      "outputs": [
        {
          "internalType": "uint256",
          "name": "",
          "type": "uint256"
        }
      ],
      "stateMutability": "view",
      "type": "function"
    },
    {
      "inputs": [],
      "name": "paused",
      "outputs": [
        {
          "internalType": "bool",
          "name": "",
          "type": "bool"
        }
      ],
      "stateMutability": "view",
      "type": "function"
    },
    {
      "inputs": [],
      "name": "payout",
      "outputs": [],
      "stateMutability": "nonpayable",
      "type": "function"
    },
    {
      "inputs": [],
      "name": "payoutPeriod",
      "outputs": [
        {
          "internalType": "uint256",
          "name": "",
          "type": "uint256"
        }
      ],
      "stateMutability": "view",
      "type": "function"
    },
    {
      "inputs": [],
      "name": "payoutTimeRange",
      "outputs": [
        {
          "internalType": "uint256",
          "name": "",
          "type": "uint256"
        }
      ],
      "stateMutability": "view",
      "type": "function"
    },
    {
      "inputs": [],
      "name": "pm",
      "outputs": [
        {
          "internalType": "contract IPortfolioManager",
          "name": "",
          "type": "address"
        }
      ],
      "stateMutability": "view",
      "type": "function"
    },
    {
      "inputs": [
        {
          "internalType": "uint256",
          "name": "_assetAmount",
          "type": "uint256"
        }
      ],
      "name": "premium",
      "outputs": [],
      "stateMutability": "nonpayable",
      "type": "function"
    },
    {
      "inputs": [],
      "name": "proxiableUUID",
      "outputs": [
        {
          "internalType": "bytes32",
          "name": "",
          "type": "bytes32"
        }
      ],
      "stateMutability": "view",
      "type": "function"
    },
    {
      "inputs": [],
      "name": "rebase",
      "outputs": [
        {
          "internalType": "contract IRebaseToken",
          "name": "",
          "type": "address"
        }
      ],
      "stateMutability": "view",
      "type": "function"
    },
    {
      "inputs": [
        {
          "components": [
            {
              "internalType": "uint256",
              "name": "amount",
              "type": "uint256"
            }
          ],
          "internalType": "struct InsuranceExchange.InputRedeem",
          "name": "input",
          "type": "tuple"
        }
      ],
      "name": "redeem",
      "outputs": [],
      "stateMutability": "nonpayable",
      "type": "function"
    },
    {
      "inputs": [],
      "name": "redeemFee",
      "outputs": [
        {
          "internalType": "uint256",
          "name": "",
          "type": "uint256"
        }
      ],
      "stateMutability": "view",
      "type": "function"
    },
    {
      "inputs": [],
      "name": "redeemFeeDenominator",
      "outputs": [
        {
          "internalType": "uint256",
          "name": "",
          "type": "uint256"
        }
      ],
      "stateMutability": "view",
      "type": "function"
    },
    {
      "inputs": [
        {
          "internalType": "bytes32",
          "name": "role",
          "type": "bytes32"
        },
        {
          "internalType": "address",
          "name": "account",
          "type": "address"
        }
      ],
      "name": "renounceRole",
      "outputs": [],
      "stateMutability": "nonpayable",
      "type": "function"
    },
    {
      "inputs": [],
      "name": "requestWaitPeriod",
      "outputs": [
        {
          "internalType": "uint256",
          "name": "",
          "type": "uint256"
        }
      ],
      "stateMutability": "view",
      "type": "function"
    },
    {
      "inputs": [],
      "name": "requestWithdraw",
      "outputs": [],
      "stateMutability": "nonpayable",
      "type": "function"
    },
    {
      "inputs": [
        {
          "internalType": "bytes32",
          "name": "role",
          "type": "bytes32"
        },
        {
          "internalType": "address",
          "name": "account",
          "type": "address"
        }
      ],
      "name": "revokeRole",
      "outputs": [],
      "stateMutability": "nonpayable",
      "type": "function"
    },
    {
      "inputs": [
        {
          "internalType": "uint256",
          "name": "_fee",
          "type": "uint256"
        },
        {
          "internalType": "uint256",
          "name": "_feeDenominator",
          "type": "uint256"
        }
      ],
      "name": "setMintFee",
      "outputs": [],
      "stateMutability": "nonpayable",
      "type": "function"
    },
    {
      "inputs": [
        {
          "internalType": "uint256",
          "name": "_nextPayoutTime",
          "type": "uint256"
        },
        {
          "internalType": "uint256",
          "name": "_payoutPeriod",
          "type": "uint256"
        },
        {
          "internalType": "uint256",
          "name": "_payoutTimeRange",
          "type": "uint256"
        }
      ],
      "name": "setPayoutTimes",
      "outputs": [],
      "stateMutability": "nonpayable",
      "type": "function"
    },
    {
      "inputs": [
        {
          "internalType": "uint256",
          "name": "_fee",
          "type": "uint256"
        },
        {
          "internalType": "uint256",
          "name": "_feeDenominator",
          "type": "uint256"
        }
      ],
      "name": "setRedeemFee",
      "outputs": [],
      "stateMutability": "nonpayable",
      "type": "function"
    },
    {
      "inputs": [
        {
          "components": [
            {
              "internalType": "address",
              "name": "asset",
              "type": "address"
            },
            {
              "internalType": "address",
              "name": "rebase",
              "type": "address"
            },
            {
              "internalType": "address",
              "name": "pm",
              "type": "address"
            },
            {
              "internalType": "address",
              "name": "m2m",
              "type": "address"
            }
          ],
          "internalType": "struct InsuranceExchange.SetUpParams",
          "name": "params",
          "type": "tuple"
        }
      ],
      "name": "setUpParams",
      "outputs": [],
      "stateMutability": "nonpayable",
      "type": "function"
    },
    {
      "inputs": [
        {
          "internalType": "uint256",
          "name": "_requestWaitPeriod",
          "type": "uint256"
        },
        {
          "internalType": "uint256",
          "name": "_withdrawPeriod",
          "type": "uint256"
        }
      ],
      "name": "setWithdrawPeriod",
      "outputs": [],
      "stateMutability": "nonpayable",
      "type": "function"
    },
    {
      "inputs": [
        {
          "internalType": "bytes4",
          "name": "interfaceId",
          "type": "bytes4"
        }
      ],
      "name": "supportsInterface",
      "outputs": [
        {
          "internalType": "bool",
          "name": "",
          "type": "bool"
        }
      ],
      "stateMutability": "view",
      "type": "function"
    },
    {
      "inputs": [
        {
          "internalType": "address",
          "name": "newImplementation",
          "type": "address"
        }
      ],
      "name": "upgradeTo",
      "outputs": [],
      "stateMutability": "nonpayable",
      "type": "function"
    },
    {
      "inputs": [
        {
          "internalType": "address",
          "name": "newImplementation",
          "type": "address"
        },
        {
          "internalType": "bytes",
          "name": "data",
          "type": "bytes"
        }
      ],
      "name": "upgradeToAndCall",
      "outputs": [],
      "stateMutability": "payable",
      "type": "function"
    },
    {
      "inputs": [],
      "name": "withdrawPeriod",
      "outputs": [
        {
          "internalType": "uint256",
          "name": "",
          "type": "uint256"
        }
      ],
      "stateMutability": "view",
      "type": "function"
    },
    {
      "inputs": [
        {
          "internalType": "address",
          "name": "",
          "type": "address"
        }
      ],
      "name": "withdrawRequests",
      "outputs": [
        {
          "internalType": "uint256",
          "name": "",
          "type": "uint256"
        }
      ],
      "stateMutability": "view",
      "type": "function"
    }
  ],
  "numDeployments": 3,
  "solcInputHash": "975f824f7dd74ddfd227a27b11c8a1d4",
  "bytecode": "0x60a06040523060601b6080523480156200001857600080fd5b50600054610100900460ff16158080156200003a5750600054600160ff909116105b806200006a575062000057306200014460201b62001aec1760201c565b1580156200006a575060005460ff166001145b620000d25760405162461bcd60e51b815260206004820152602e60248201527f496e697469616c697a61626c653a20636f6e747261637420697320616c72656160448201526d191e481a5b9a5d1a585b1a5e995960921b606482015260840160405180910390fd5b6000805460ff191660011790558015620000f6576000805461ff0019166101001790555b80156200013d576000805461ff0019169055604051600181527f7f26b83ff96e1f2b6a682f133852f6798a09c465da95921460cefb38474024989060200160405180910390a15b5062000153565b6001600160a01b03163b151590565b60805160601c61368d6200018e60003960008181610b7201528181610bb201528181610c5201528181610c920152610d21015261368d6000f3fe6080604052600436106102725760003560e01c80635dbd733a1161014f578063a217fddf116100c1578063cb9012601161007a578063cb90126014610726578063ce1aa76b1461075a578063cecbbc0714610771578063d5171bff14610788578063d547741f146107a8578063f3869e8d146107c857600080fd5b8063a217fddf14610684578063af14052c14610699578063b3423eec146106ba578063bc56bebf146106cf578063c12e90e9146106ef578063c839f15f1461070657600080fd5b80637b3c24ac116101135780637b3c24ac146105e05780638129fc1c1461060057806387bca256146106155780638970cdff1461062c57806391d148541461064d578063965fa21e1461066d57600080fd5b80635dbd733a146105505780635f1af1ca1461057257806363bd1d4a146105925780636d8ebaa8146105a75780637559c329146105be57600080fd5b80633866d4c7116101e857806352d1902d116101ac57806352d1902d146104a957806352df49ec146104be5780635c975abb146104ec5780635d8658b1146105045780635d8b2406146105195780635db07aee1461053957600080fd5b80633866d4c7146103e657806338d52e0f1461041a5780633d92c38b14610453578063497d9192146104745780634f1ef2861461049657600080fd5b80632552317c1161023a5780632552317c1461033a5780632f2ff15d14610351578063338f265614610371578063359792b21461039157806336568abe146103a65780633659cfe6146103c657600080fd5b806301ffc9a71461027757806312eb4f9a146102ac57806313966db5146102d157806323b1a7ce146102e8578063248a9ca31461030a575b600080fd5b34801561028357600080fd5b50610297610292366004612fdf565b6107e8565b60405190151581526020015b60405180910390f35b3480156102b857600080fd5b506102c361013b5481565b6040519081526020016102a3565b3480156102dd57600080fd5b506102c36101315481565b3480156102f457600080fd5b50610308610303366004613037565b61081f565b005b34801561031657600080fd5b506102c3610325366004612f81565b60009081526065602052604090206001015490565b34801561034657600080fd5b506102c36101355481565b34801561035d57600080fd5b5061030861036c366004612fb3565b6108b6565b34801561037d57600080fd5b5061030861038c366004613025565b6108e0565b34801561039d57600080fd5b506103086109cb565b3480156103b257600080fd5b506103086103c1366004612fb3565b610ae9565b3480156103d257600080fd5b506103086103e1366004612e82565b610b67565b3480156103f257600080fd5b506102c37f4ed90ae04a70dfc331e8e89f50b341a7a41da02749bc4ae5ab642d3b43bd2cda81565b34801561042657600080fd5b5061012d5461043b906001600160a01b031681565b6040516001600160a01b0390911681526020016102a3565b34801561045f57600080fd5b506101305461043b906001600160a01b031681565b34801561048057600080fd5b506102c36000805160206135b183398151915281565b6103086104a4366004612e9d565b610c47565b3480156104b557600080fd5b506102c3610d14565b3480156104ca57600080fd5b506102c36104d9366004612e82565b6101396020526000908152604090205481565b3480156104f857600080fd5b5060fb5460ff16610297565b34801561051057600080fd5b50610308610dc7565b34801561052557600080fd5b50610308610534366004613037565b610e3c565b34801561054557600080fd5b506102c36101325481565b34801561055c57600080fd5b506102c36000805160206135f183398151915281565b34801561057e57600080fd5b5061030861058d366004613009565b610e7d565b34801561059e57600080fd5b50610308610ed2565b3480156105b357600080fd5b506102c36101365481565b3480156105ca57600080fd5b506102c36000805160206135d183398151915281565b3480156105ec57600080fd5b506103086105fb366004612fb3565b6112ce565b34801561060c57600080fd5b506103086114f0565b34801561062157600080fd5b506102c361013a5481565b34801561063857600080fd5b5061012f5461043b906001600160a01b031681565b34801561065957600080fd5b50610297610668366004612fb3565b6116ac565b34801561067957600080fd5b506102c36101335481565b34801561069057600080fd5b506102c3600081565b3480156106a557600080fd5b5061012e5461043b906001600160a01b031681565b3480156106c657600080fd5b506103086116d7565b3480156106db57600080fd5b506103086106ea366004613037565b611700565b3480156106fb57600080fd5b506102c36101345481565b34801561071257600080fd5b50610308610721366004612f81565b61178e565b34801561073257600080fd5b506102c37f2419ac62f1f8bfbb4797a6bba44284f4bad570b7f9a104f88233e21065bfef9b81565b34801561076657600080fd5b506102c36101375481565b34801561077d57600080fd5b506102c36101385481565b34801561079457600080fd5b506103086107a3366004613009565b611928565b3480156107b457600080fd5b506103086107c3366004612fb3565b61197d565b3480156107d457600080fd5b506103086107e3366004613059565b6119a2565b60006001600160e01b03198216637965db0b60e01b148061081957506301ffc9a760e01b6001600160e01b03198316145b92915050565b6108376000805160206135f1833981519152336116ac565b61085c5760405162461bcd60e51b81526004016108539061330f565b60405180910390fd5b806108a95760405162461bcd60e51b815260206004820152601c60248201527f5a65726f2064656e6f6d696e61746f72206e6f7420616c6c6f776564000000006044820152606401610853565b6101319190915561013255565b6000828152606560205260409020600101546108d181611afb565b6108db8383611b05565b505050565b6108eb6000336116ac565b6109075760405162461bcd60e51b8152600401610853906132b5565b6109146020820182612e82565b61012d80546001600160a01b0319166001600160a01b03929092169190911790556109456040820160208301612e82565b61012e80546001600160a01b0319166001600160a01b03929092169190911790556109766060820160408301612e82565b61012f80546001600160a01b0319166001600160a01b03929092169190911790556109a76080820160608301612e82565b61013080546001600160a01b0319166001600160a01b039290921691909117905550565b6109f57f2419ac62f1f8bfbb4797a6bba44284f4bad570b7f9a104f88233e21065bfef9b336116ac565b156109fc57565b336000908152610139602052604081205461013b5490914291610a1f9084613391565b905082610a665760405162461bcd60e51b81526020600482015260156024820152741b995959081dda5d1a191c985dc81c995c5d595cdd605a1b6044820152606401610853565b818310610aa95760405162461bcd60e51b81526020600482015260116024820152701c995c5d595cdd15d85a5d14195c9a5bd9607a1b6044820152606401610853565b8181116108db5760405162461bcd60e51b815260206004820152600e60248201526d1dda5d1a191c985dd4195c9a5bd960921b6044820152606401610853565b6001600160a01b0381163314610b595760405162461bcd60e51b815260206004820152602f60248201527f416363657373436f6e74726f6c3a2063616e206f6e6c792072656e6f756e636560448201526e103937b632b9903337b91039b2b63360891b6064820152608401610853565b610b638282611b8b565b5050565b306001600160a01b037f0000000000000000000000000000000000000000000000000000000000000000161415610bb05760405162461bcd60e51b8152600401610853906131a3565b7f00000000000000000000000000000000000000000000000000000000000000006001600160a01b0316610bf9600080516020613611833981519152546001600160a01b031690565b6001600160a01b031614610c1f5760405162461bcd60e51b8152600401610853906131ef565b610c2881611bf2565b60408051600080825260208201909252610c4491839190611c19565b50565b306001600160a01b037f0000000000000000000000000000000000000000000000000000000000000000161415610c905760405162461bcd60e51b8152600401610853906131a3565b7f00000000000000000000000000000000000000000000000000000000000000006001600160a01b0316610cd9600080516020613611833981519152546001600160a01b031690565b6001600160a01b031614610cff5760405162461bcd60e51b8152600401610853906131ef565b610d0882611bf2565b610b6382826001611c19565b6000306001600160a01b037f00000000000000000000000000000000000000000000000000000000000000001614610db45760405162461bcd60e51b815260206004820152603860248201527f555550535570677261646561626c653a206d757374206e6f742062652063616c60448201527f6c6564207468726f7567682064656c656761746563616c6c00000000000000006064820152608401610853565b5060008051602061361183398151915290565b610dd26000336116ac565b610dee5760405162461bcd60e51b8152600401610853906132b5565b610e146000805160206135d18339815191526000805160206135f1833981519152611d93565b610e3a6000805160206135b18339815191526000805160206135f1833981519152611d93565b565b610e546000805160206135f1833981519152336116ac565b610e705760405162461bcd60e51b81526004016108539061330f565b61013a9190915561013b55565b610e85611dde565b610e9d6000805160206135d1833981519152336116ac565b610ec357436101355410610ec35760405162461bcd60e51b8152600401610853906132e3565b4361013555610c448135611e24565b610eda611dde565b610ef26000805160206135d1833981519152336116ac565b610f1857436101355410610f185760405162461bcd60e51b8152600401610853906132e3565b4361013555610f356000805160206135b1833981519152336116ac565b610f765760405162461bcd60e51b815260206004820152601260248201527114995cdd1c9a58dd1959081d1bc8155b9a5d60721b6044820152606401610853565b6101365461013854610f889042613391565b1015610f9057565b61012f60009054906101000a90046001600160a01b03166001600160a01b031663c6bbf4cb6040518163ffffffff1660e01b8152600401600060405180830381600087803b158015610fe157600080fd5b505af1158015610ff5573d6000803e3d6000fd5b50505050600061013060009054906101000a90046001600160a01b03166001600160a01b031663890a8c4f6040518163ffffffff1660e01b815260040160206040518083038186803b15801561104a57600080fd5b505afa15801561105e573d6000803e3d6000fd5b505050506040513d601f19601f820116820180604052508101906110829190612f9a565b905061108d816121de565b9050600061012e60009054906101000a90046001600160a01b03166001600160a01b03166318160ddd6040518163ffffffff1660e01b815260040160206040518083038186803b1580156110e057600080fd5b505afa1580156110f4573d6000803e3d6000fd5b505050506040513d601f19601f820116820180604052508101906111189190612f9a565b61112290836134d5565b905060006111bf61012e60009054906101000a90046001600160a01b03166001600160a01b031663b1bf962d6040518163ffffffff1660e01b815260040160206040518083038186803b15801561117857600080fd5b505afa15801561118c573d6000803e3d6000fd5b505050506040513d601f19601f820116820180604052508101906111b09190612f9a565b6111b985612355565b90612394565b61012e5460405163b2be259160e01b8152600481018390529192506001600160a01b03169063b2be259190602401600060405180830381600087803b15801561120757600080fd5b505af115801561121b573d6000803e3d6000fd5b505060408051858152602081018590527f0a7a57c20d9d19c62887fd6b056b5fdf25dbc2f405a8528cd293c467d5cc6505935001905060405180910390a15b610138546101365461126c9190613514565b421061128d5761013754610136546112849190613391565b6101365561125a565b7f6654b7187a0560c4c326844142156c2adf52738d0a615487e0e2a5cd9823c2c4610136546040516112c191815260200190565b60405180910390a1505050565b6112f87f4ed90ae04a70dfc331e8e89f50b341a7a41da02749bc4ae5ab642d3b43bd2cda336116ac565b6113445760405162461bcd60e51b815260206004820152601e60248201527f5265737472696374656420746f20496e737572616e636520486f6c64657200006044820152606401610853565b61012f5461012d5460405163f3fef3a360e01b81526001600160a01b0391821660048201526024810185905291169063f3fef3a390604401602060405180830381600087803b15801561139657600080fd5b505af11580156113aa573d6000803e3d6000fd5b505050506040513d601f19601f820116820180604052508101906113ce9190612f9a565b5061012d546040516370a0823160e01b815230600482015283916001600160a01b0316906370a082319060240160206040518083038186803b15801561141357600080fd5b505afa158015611427573d6000803e3d6000fd5b505050506040513d601f19601f8201168201806040525081019061144b9190612f9a565b10156114695760405162461bcd60e51b81526004016108539061316c565b61012d5460405163a9059cbb60e01b81526001600160a01b038381166004830152602482018590529091169063a9059cbb90604401602060405180830381600087803b1580156114b857600080fd5b505af11580156114cc573d6000803e3d6000fd5b505050506040513d601f19601f820116820180604052508101906108db9190612f5f565b600054610100900460ff16158080156115105750600054600160ff909116105b8061152a5750303b15801561152a575060005460ff166001145b61158d5760405162461bcd60e51b815260206004820152602e60248201527f496e697469616c697a61626c653a20636f6e747261637420697320616c72656160448201526d191e481a5b9a5d1a585b1a5e995960921b6064820152608401610853565b6000805460ff1916600117905580156115b0576000805461ff0019166101001790555b6115b861246d565b6115c0612494565b6115c861246d565b6115d3600033611b05565b6000610131819055620186a061013281905561013391909155610134556361959780610136556201518061013755610384610138556203f48061013a556205460061013b5561163e6000805160206135d18339815191526000805160206135f1833981519152611d93565b6116646000805160206135b18339815191526000805160206135f1833981519152611d93565b8015610c44576000805461ff0019169055604051600181527f7f26b83ff96e1f2b6a682f133852f6798a09c465da95921460cefb38474024989060200160405180910390a150565b60009182526065602090815260408084206001600160a01b0393909316845291905290205460ff1690565b6116df611dde565b61013a546116ed9042613391565b3360009081526101396020526040902055565b6117186000805160206135f1833981519152336116ac565b6117345760405162461bcd60e51b81526004016108539061330f565b806117815760405162461bcd60e51b815260206004820152601c60248201527f5a65726f2064656e6f6d696e61746f72206e6f7420616c6c6f776564000000006044820152606401610853565b6101339190915561013455565b6117b87f4ed90ae04a70dfc331e8e89f50b341a7a41da02749bc4ae5ab642d3b43bd2cda336116ac565b6118045760405162461bcd60e51b815260206004820152601e60248201527f5265737472696374656420746f20496e737572616e636520486f6c64657200006044820152606401610853565b61012d546040516370a0823160e01b815230600482015282916001600160a01b0316906370a082319060240160206040518083038186803b15801561184857600080fd5b505afa15801561185c573d6000803e3d6000fd5b505050506040513d601f19601f820116820180604052508101906118809190612f9a565b101561189e5760405162461bcd60e51b81526004016108539061316c565b61012d5461012f5460405163a9059cbb60e01b81526001600160a01b0391821660048201526024810184905291169063a9059cbb90604401602060405180830381600087803b1580156118f057600080fd5b505af1158015611904573d6000803e3d6000fd5b505050506040513d601f19601f82011682018060405250810190610b639190612f5f565b611930611dde565b6119486000805160206135d1833981519152336116ac565b61196e5743610135541061196e5760405162461bcd60e51b8152600401610853906132e3565b4361013555610c4481356124c3565b60008281526065602052604090206001015461199881611afb565b6108db8383611b8b565b6119ba6000805160206135f1833981519152336116ac565b6119d65760405162461bcd60e51b81526004016108539061330f565b82611a235760405162461bcd60e51b815260206004820181905260248201527f5a65726f205f6e6578745061796f757454696d65206e6f7420616c6c6f7765646044820152606401610853565b81611a705760405162461bcd60e51b815260206004820152601e60248201527f5a65726f205f7061796f7574506572696f64206e6f7420616c6c6f77656400006044820152606401610853565b808311611adb5760405162461bcd60e51b815260206004820152603360248201527f5f6e6578745061796f757454696d652073686f7564206265206d6f7265207468604482015272616e205f7061796f757454696d6552616e676560681b6064820152608401610853565b610136929092556101375561013855565b6001600160a01b03163b151590565b610c4481336127e1565b611b0f82826116ac565b610b635760008281526065602090815260408083206001600160a01b03851684529091529020805460ff19166001179055611b473390565b6001600160a01b0316816001600160a01b0316837f2f8788117e7eff1d82e926ec794901d17c78024a50270940304540a733656f0d60405160405180910390a45050565b611b9582826116ac565b15610b635760008281526065602090815260408083206001600160a01b0385168085529252808320805460ff1916905551339285917ff6391f5c32d9c69d2a47ea670b442974b53935d1edc7fd64eb21e047a839171b9190a45050565b611bfd6000336116ac565b610c445760405162461bcd60e51b8152600401610853906132b5565b7f4910fdfa16fed3260ed0e7147f7cc6da11a60208b5b9406d12a635614ffd91435460ff1615611c4c576108db83612845565b826001600160a01b03166352d1902d6040518163ffffffff1660e01b815260040160206040518083038186803b158015611c8557600080fd5b505afa925050508015611cb5575060408051601f3d908101601f19168201909252611cb291810190612f9a565b60015b611d185760405162461bcd60e51b815260206004820152602e60248201527f45524331393637557067726164653a206e657720696d706c656d656e7461746960448201526d6f6e206973206e6f74205555505360901b6064820152608401610853565b6000805160206136118339815191528114611d875760405162461bcd60e51b815260206004820152602960248201527f45524331393637557067726164653a20756e737570706f727465642070726f786044820152681a58589b195555525160ba1b6064820152608401610853565b506108db8383836128e1565b600082815260656020526040808220600101805490849055905190918391839186917fbd79b86ffe0ab8e8776151514217cd7cacd52c909f66475c3af44e129f0b00ff9190a4505050565b60fb5460ff1615610e3a5760405162461bcd60e51b815260206004820152601060248201526f14185d5cd8589b194e881c185d5cd95960821b6044820152606401610853565b60008111611e445760405162461bcd60e51b81526004016108539061323b565b61012e546040516370a0823160e01b815233600482015282916001600160a01b0316906370a082319060240160206040518083038186803b158015611e8857600080fd5b505afa158015611e9c573d6000803e3d6000fd5b505050506040513d601f19601f82011682018060405250810190611ec09190612f9a565b1015611f0e5760405162461bcd60e51b815260206004820152601b60248201527f4e6f7420656e6f75676820746f6b656e7320746f2072656465656d00000000006044820152606401610853565b611f166109cb565b600080611f2483600061290c565b925090506000611f3382612993565b905060008111611f555760405162461bcd60e51b81526004016108539061323b565b61012f5461012d5460405163f3fef3a360e01b81526001600160a01b0391821660048201526024810184905291169063f3fef3a390604401602060405180830381600087803b158015611fa757600080fd5b505af1158015611fbb573d6000803e3d6000fd5b505050506040513d601f19601f82011682018060405250810190611fdf9190612f9a565b5061012d546040516370a0823160e01b815230600482015282916001600160a01b0316906370a082319060240160206040518083038186803b15801561202457600080fd5b505afa158015612038573d6000803e3d6000fd5b505050506040513d601f19601f8201168201806040525081019061205c9190612f9a565b101561207a5760405162461bcd60e51b81526004016108539061316c565b61012d5460405163a9059cbb60e01b8152336004820152602481018390526001600160a01b039091169063a9059cbb90604401602060405180830381600087803b1580156120c757600080fd5b505af11580156120db573d6000803e3d6000fd5b505050506040513d601f19601f820116820180604052508101906120ff9190612f5f565b5061012e54604051632770a7eb60e21b8152336004820152602481018690526001600160a01b0390911690639dc29fac90604401600060405180830381600087803b15801561214d57600080fd5b505af1158015612161573d6000803e3d6000fd5b50503360008181526101396020908152604080832092909255815160808082526006908201526572656465656d60d01b60a08201529081018990528082018890526060810192909252517ffa6acd633ee08073d696f1ad14b9f42838087eb209ab689786d498e76269877893509081900360c0019150a150505050565b60008061012e60009054906101000a90046001600160a01b03166001600160a01b031663313ce5676040518163ffffffff1660e01b815260040160206040518083038186803b15801561223057600080fd5b505afa158015612244573d6000803e3d6000fd5b505050506040513d601f19601f820116820180604052508101906122689190613085565b60ff169050600061012d60009054906101000a90046001600160a01b03166001600160a01b031663313ce5676040518163ffffffff1660e01b815260040160206040518083038186803b1580156122be57600080fd5b505afa1580156122d2573d6000803e3d6000fd5b505050506040513d601f19601f820116820180604052508101906122f69190613085565b60ff16905060008282111561232b5761230f8383613514565b61231a90600a61340e565b61232490866133a9565b905061234d565b6123358284613514565b61234090600a61340e565b61234a90866134b6565b90505b949350505050565b600080612366633b9aca00846134b6565b905082612377633b9aca00836133a9565b146108195760405162461bcd60e51b815260040161085390613272565b6000816123e35760405162461bcd60e51b815260206004820152601c60248201527f4572726f72732e4d4154485f4449564953494f4e5f42595f5a45524f000000006044820152606401610853565b826123f057506000610819565b60006123fd6002846133a9565b90506b033b2e3c9fd0803ce800000061241882600019613514565b61242291906133a9565b8411156124415760405162461bcd60e51b815260040161085390613272565b82816124596b033b2e3c9fd0803ce8000000876134b6565b6124639190613391565b61234d91906133a9565b600054610100900460ff16610e3a5760405162461bcd60e51b815260040161085390613346565b600054610100900460ff166124bb5760405162461bcd60e51b815260040161085390613346565b610e3a612b0b565b600081116124e35760405162461bcd60e51b81526004016108539061323b565b61012d546040516370a0823160e01b815233600482015282916001600160a01b0316906370a082319060240160206040518083038186803b15801561252757600080fd5b505afa15801561253b573d6000803e3d6000fd5b505050506040513d601f19601f8201168201806040525081019061255f9190612f9a565b10156125ad5760405162461bcd60e51b815260206004820152601960248201527f4e6f7420656e6f75676820746f6b656e7320746f206d696e74000000000000006044820152606401610853565b61012d5461012f546040516323b872dd60e01b81523360048201526001600160a01b039182166024820152604481018490529116906323b872dd90606401602060405180830381600087803b15801561260557600080fd5b505af1158015612619573d6000803e3d6000fd5b505050506040513d601f19601f8201168201806040525081019061263d9190612f5f565b5061012f5461012d546040516311f9fbc960e21b81526001600160a01b039182166004820152602481018490529116906347e7ef2490604401600060405180830381600087803b15801561269057600080fd5b505af11580156126a4573d6000803e3d6000fd5b5050505060006126b3826121de565b905060006126c282600161290c565b90925090508161270c5760405162461bcd60e51b815260206004820152601560248201527452656261736520416d6f756e74206973207a65726f60581b6044820152606401610853565b61012e546040516340c10f1960e01b8152336004820152602481018490526001600160a01b03909116906340c10f1990604401600060405180830381600087803b15801561275957600080fd5b505af115801561276d573d6000803e3d6000fd5b5050336000818152610139602090815260408083209290925581516080808252600490820152631b5a5b9d60e21b60a082015290810187905290810185905260608101919091527ffa6acd633ee08073d696f1ad14b9f42838087eb209ab689786d498e762698778925060c00190506112c1565b6127eb82826116ac565b610b6357612803816001600160a01b03166014612b3e565b61280e836020612b3e565b60405160200161281f9291906130c4565b60408051601f198184030181529082905262461bcd60e51b825261085391600401613139565b6001600160a01b0381163b6128b25760405162461bcd60e51b815260206004820152602d60248201527f455243313936373a206e657720696d706c656d656e746174696f6e206973206e60448201526c1bdd08184818dbdb9d1c9858dd609a1b6064820152608401610853565b60008051602061361183398151915280546001600160a01b0319166001600160a01b0392909216919091179055565b6128ea83612ce1565b6000825111806128f75750805b156108db576129068383612d21565b50505050565b60008060008361291f5761013354612924565b610131545b9050600084612936576101345461293b565b610132545b90506000806129586000805160206135d1833981519152336116ac565b6129845782612967858a6134b6565b61297191906133a9565b915061297d8289613514565b9050612987565b50865b97909650945050505050565b600080600061012d60009054906101000a90046001600160a01b03166001600160a01b031663313ce5676040518163ffffffff1660e01b815260040160206040518083038186803b1580156129e757600080fd5b505afa1580156129fb573d6000803e3d6000fd5b505050506040513d601f19601f82011682018060405250810190612a1f9190613085565b60ff169050600061012e60009054906101000a90046001600160a01b03166001600160a01b031663313ce5676040518163ffffffff1660e01b815260040160206040518083038186803b158015612a7557600080fd5b505afa158015612a89573d6000803e3d6000fd5b505050506040513d601f19601f82011682018060405250810190612aad9190613085565b60ff16905080821115612ae057612ac48183613514565b612acf90600a61340e565b612ad990866134b6565b9250612b02565b612aea8282613514565b612af590600a61340e565b612aff90866133a9565b92505b50909392505050565b600054610100900460ff16612b325760405162461bcd60e51b815260040161085390613346565b60fb805460ff19169055565b60606000612b4d8360026134b6565b612b58906002613391565b67ffffffffffffffff811115612b7057612b7061359a565b6040519080825280601f01601f191660200182016040528015612b9a576020820181803683370190505b509050600360fc1b81600081518110612bb557612bb5613584565b60200101906001600160f81b031916908160001a905350600f60fb1b81600181518110612be457612be4613584565b60200101906001600160f81b031916908160001a9053506000612c088460026134b6565b612c13906001613391565b90505b6001811115612c8b576f181899199a1a9b1b9c1cb0b131b232b360811b85600f1660108110612c4757612c47613584565b1a60f81b828281518110612c5d57612c5d613584565b60200101906001600160f81b031916908160001a90535060049490941c93612c8481613557565b9050612c16565b508315612cda5760405162461bcd60e51b815260206004820181905260248201527f537472696e67733a20686578206c656e67746820696e73756666696369656e746044820152606401610853565b9392505050565b612cea81612845565b6040516001600160a01b038216907fbc7cd75a20ee27fd9adebab32041f755214dbc6bffa90cc0225b39da2e5c2d3b90600090a250565b60606001600160a01b0383163b612d895760405162461bcd60e51b815260206004820152602660248201527f416464726573733a2064656c65676174652063616c6c20746f206e6f6e2d636f6044820152651b9d1c9858dd60d21b6064820152608401610853565b600080846001600160a01b031684604051612da491906130a8565b600060405180830381855af49150503d8060008114612ddf576040519150601f19603f3d011682016040523d82523d6000602084013e612de4565b606091505b5091509150612e0c828260405180606001604052806027815260200161363160279139612e15565b95945050505050565b60608315612e24575081612cda565b825115612e345782518084602001fd5b8160405162461bcd60e51b81526004016108539190613139565b80356001600160a01b0381168114612e6557600080fd5b919050565b600060208284031215612e7c57600080fd5b50919050565b600060208284031215612e9457600080fd5b612cda82612e4e565b60008060408385031215612eb057600080fd5b612eb983612e4e565b9150602083013567ffffffffffffffff80821115612ed657600080fd5b818501915085601f830112612eea57600080fd5b813581811115612efc57612efc61359a565b604051601f8201601f19908116603f01168101908382118183101715612f2457612f2461359a565b81604052828152886020848701011115612f3d57600080fd5b8260208601602083013760006020848301015280955050505050509250929050565b600060208284031215612f7157600080fd5b81518015158114612cda57600080fd5b600060208284031215612f9357600080fd5b5035919050565b600060208284031215612fac57600080fd5b5051919050565b60008060408385031215612fc657600080fd5b82359150612fd660208401612e4e565b90509250929050565b600060208284031215612ff157600080fd5b81356001600160e01b031981168114612cda57600080fd5b60006020828403121561301b57600080fd5b612cda8383612e6a565b600060808284031215612e7c57600080fd5b6000806040838503121561304a57600080fd5b50508035926020909101359150565b60008060006060848603121561306e57600080fd5b505081359360208301359350604090920135919050565b60006020828403121561309757600080fd5b815160ff81168114612cda57600080fd5b600082516130ba81846020870161352b565b9190910192915050565b7f416363657373436f6e74726f6c3a206163636f756e74200000000000000000008152600083516130fc81601785016020880161352b565b7001034b99036b4b9b9b4b733903937b6329607d1b601791840191820152835161312d81602884016020880161352b565b01602801949350505050565b602081526000825180602084015261315881604085016020870161352b565b601f01601f19169190910160400192915050565b60208082526017908201527f4e6f7420656e6f75676820666f72207472616e73666572000000000000000000604082015260600190565b6020808252602c908201527f46756e6374696f6e206d7573742062652063616c6c6564207468726f7567682060408201526b19195b1959d85d1958d85b1b60a21b606082015260800190565b6020808252602c908201527f46756e6374696f6e206d7573742062652063616c6c6564207468726f7567682060408201526b6163746976652070726f787960a01b606082015260800190565b60208082526017908201527f416d6f756e74206f66206173736574206973207a65726f000000000000000000604082015260600190565b60208082526023908201527f4572726f72732e4d4154485f4d554c5449504c49434154494f4e5f4f564552466040820152624c4f5760e81b606082015260800190565b6020808252601490820152735265737472696374656420746f2061646d696e7360601b604082015260600190565b6020808252601290820152714f6e6c79206f6e636520696e20626c6f636b60701b604082015260600190565b6020808252601d908201527f5265737472696374656420746f20506f7274666f6c696f204167656e74000000604082015260600190565b6020808252602b908201527f496e697469616c697a61626c653a20636f6e7472616374206973206e6f74206960408201526a6e697469616c697a696e6760a81b606082015260800190565b600082198211156133a4576133a461356e565b500190565b6000826133c657634e487b7160e01b600052601260045260246000fd5b500490565b600181815b808511156134065781600019048211156133ec576133ec61356e565b808516156133f957918102915b93841c93908002906133d0565b509250929050565b6000612cda838360008261342457506001610819565b8161343157506000610819565b816001811461344757600281146134515761346d565b6001915050610819565b60ff8411156134625761346261356e565b50506001821b610819565b5060208310610133831016604e8410600b8410161715613490575081810a610819565b61349a83836133cb565b80600019048211156134ae576134ae61356e565b029392505050565b60008160001904831182151516156134d0576134d061356e565b500290565b60008083128015600160ff1b8501841216156134f3576134f361356e565b6001600160ff1b038401831381161561350e5761350e61356e565b50500390565b6000828210156135265761352661356e565b500390565b60005b8381101561354657818101518382015260200161352e565b838111156129065750506000910152565b6000816135665761356661356e565b506000190190565b634e487b7160e01b600052601160045260246000fd5b634e487b7160e01b600052603260045260246000fd5b634e487b7160e01b600052604160045260246000fdfeede8101501d89b9894e78e4f219420b6ddb840e8e75dde35741a0745408476d7262f8dca0440d5010bae937fe18daeae459dacb80622baddc3b4f10759ac952ad67ad422505496469a1adf6cdf9e5ee92ac5d33992843c9ecc4b2f6d6cde9137360894a13ba1a3210667c828492db98dca3e2076cc3735a920a3ca505d382bbc416464726573733a206c6f772d6c6576656c2064656c65676174652063616c6c206661696c6564a26469706673582212209e391b181b4cf577ace8db59815790a96065991208378f013fbede2b773bee5964736f6c63430008060033",
  "implementation": "0xeEf64c3d323ad684A2A978d259f7076c5F6Ff204",
  "devdoc": {
    "kind": "dev",
    "methods": {
      "constructor": {
        "custom:oz-upgrades-unsafe-allow": "constructor"
      },
      "getRoleAdmin(bytes32)": {
        "details": "Returns the admin role that controls `role`. See {grantRole} and {revokeRole}. To change a role's admin, use {_setRoleAdmin}."
      },
      "grantRole(bytes32,address)": {
        "details": "Grants `role` to `account`. If `account` had not been already granted `role`, emits a {RoleGranted} event. Requirements: - the caller must have ``role``'s admin role. May emit a {RoleGranted} event."
      },
      "hasRole(bytes32,address)": {
        "details": "Returns `true` if `account` has been granted `role`."
      },
      "paused()": {
        "details": "Returns true if the contract is paused, and false otherwise."
      },
      "proxiableUUID()": {
        "details": "Implementation of the ERC1822 {proxiableUUID} function. This returns the storage slot used by the implementation. It is used to validate that the this implementation remains valid after an upgrade. IMPORTANT: A proxy pointing at a proxiable contract should not be considered proxiable itself, because this risks bricking a proxy that upgrades to it, by delegating to itself until out of gas. Thus it is critical that this function revert if invoked through a proxy. This is guaranteed by the `notDelegated` modifier."
      },
      "renounceRole(bytes32,address)": {
        "details": "Revokes `role` from the calling account. Roles are often managed via {grantRole} and {revokeRole}: this function's purpose is to provide a mechanism for accounts to lose their privileges if they are compromised (such as when a trusted device is misplaced). If the calling account had been revoked `role`, emits a {RoleRevoked} event. Requirements: - the caller must be `account`. May emit a {RoleRevoked} event."
      },
      "revokeRole(bytes32,address)": {
        "details": "Revokes `role` from `account`. If `account` had been granted `role`, emits a {RoleRevoked} event. Requirements: - the caller must have ``role``'s admin role. May emit a {RoleRevoked} event."
      },
      "supportsInterface(bytes4)": {
        "details": "See {IERC165-supportsInterface}."
      },
      "upgradeTo(address)": {
        "details": "Upgrade the implementation of the proxy to `newImplementation`. Calls {_authorizeUpgrade}. Emits an {Upgraded} event."
      },
      "upgradeToAndCall(address,bytes)": {
        "details": "Upgrade the implementation of the proxy to `newImplementation`, and subsequently execute the function call encoded in `data`. Calls {_authorizeUpgrade}. Emits an {Upgraded} event."
      }
    },
    "version": 1
  },
  "userdoc": {
    "kind": "user",
    "methods": {},
    "version": 1
  },
  "storageLayout": {
    "storage": [
      {
        "astId": 808,
        "contract": "contracts/InsuranceExchange.sol:InsuranceExchange",
        "label": "_initialized",
        "offset": 0,
        "slot": "0",
        "type": "t_uint8"
      },
      {
        "astId": 811,
        "contract": "contracts/InsuranceExchange.sol:InsuranceExchange",
        "label": "_initializing",
        "offset": 1,
        "slot": "0",
        "type": "t_bool"
      },
      {
        "astId": 2589,
        "contract": "contracts/InsuranceExchange.sol:InsuranceExchange",
        "label": "__gap",
        "offset": 0,
        "slot": "1",
        "type": "t_array(t_uint256)50_storage"
      },
      {
        "astId": 2919,
        "contract": "contracts/InsuranceExchange.sol:InsuranceExchange",
        "label": "__gap",
        "offset": 0,
        "slot": "51",
        "type": "t_array(t_uint256)50_storage"
      },
      {
        "astId": 39,
        "contract": "contracts/InsuranceExchange.sol:InsuranceExchange",
        "label": "_roles",
        "offset": 0,
        "slot": "101",
        "type": "t_mapping(t_bytes32,t_struct(RoleData)34_storage)"
      },
      {
        "astId": 338,
        "contract": "contracts/InsuranceExchange.sol:InsuranceExchange",
        "label": "__gap",
        "offset": 0,
        "slot": "102",
        "type": "t_array(t_uint256)49_storage"
      },
      {
        "astId": 790,
        "contract": "contracts/InsuranceExchange.sol:InsuranceExchange",
        "label": "__gap",
        "offset": 0,
        "slot": "151",
        "type": "t_array(t_uint256)50_storage"
      },
      {
        "astId": 1087,
        "contract": "contracts/InsuranceExchange.sol:InsuranceExchange",
        "label": "__gap",
        "offset": 0,
        "slot": "201",
        "type": "t_array(t_uint256)50_storage"
      },
      {
        "astId": 1109,
        "contract": "contracts/InsuranceExchange.sol:InsuranceExchange",
        "label": "_paused",
        "offset": 0,
        "slot": "251",
        "type": "t_bool"
      },
      {
        "astId": 1214,
        "contract": "contracts/InsuranceExchange.sol:InsuranceExchange",
        "label": "__gap",
        "offset": 0,
        "slot": "252",
        "type": "t_array(t_uint256)49_storage"
      },
      {
        "astId": 9222,
        "contract": "contracts/InsuranceExchange.sol:InsuranceExchange",
        "label": "asset",
        "offset": 0,
        "slot": "301",
        "type": "t_contract(IERC20)3596"
      },
      {
        "astId": 9225,
        "contract": "contracts/InsuranceExchange.sol:InsuranceExchange",
        "label": "rebase",
        "offset": 0,
        "slot": "302",
        "type": "t_contract(IRebaseToken)15437"
      },
      {
        "astId": 9228,
        "contract": "contracts/InsuranceExchange.sol:InsuranceExchange",
        "label": "pm",
        "offset": 0,
        "slot": "303",
        "type": "t_contract(IPortfolioManager)15274"
      },
      {
        "astId": 9231,
        "contract": "contracts/InsuranceExchange.sol:InsuranceExchange",
        "label": "m2m",
        "offset": 0,
        "slot": "304",
        "type": "t_contract(IMark2Market)15198"
      },
      {
        "astId": 9233,
        "contract": "contracts/InsuranceExchange.sol:InsuranceExchange",
        "label": "mintFee",
        "offset": 0,
        "slot": "305",
        "type": "t_uint256"
      },
      {
        "astId": 9235,
        "contract": "contracts/InsuranceExchange.sol:InsuranceExchange",
        "label": "mintFeeDenominator",
        "offset": 0,
        "slot": "306",
        "type": "t_uint256"
      },
      {
        "astId": 9237,
        "contract": "contracts/InsuranceExchange.sol:InsuranceExchange",
        "label": "redeemFee",
        "offset": 0,
        "slot": "307",
        "type": "t_uint256"
      },
      {
        "astId": 9239,
        "contract": "contracts/InsuranceExchange.sol:InsuranceExchange",
        "label": "redeemFeeDenominator",
        "offset": 0,
        "slot": "308",
        "type": "t_uint256"
      },
      {
        "astId": 9241,
        "contract": "contracts/InsuranceExchange.sol:InsuranceExchange",
        "label": "lastBlockNumber",
        "offset": 0,
        "slot": "309",
        "type": "t_uint256"
      },
      {
        "astId": 9243,
        "contract": "contracts/InsuranceExchange.sol:InsuranceExchange",
        "label": "nextPayoutTime",
        "offset": 0,
        "slot": "310",
        "type": "t_uint256"
      },
      {
        "astId": 9245,
        "contract": "contracts/InsuranceExchange.sol:InsuranceExchange",
        "label": "payoutPeriod",
        "offset": 0,
        "slot": "311",
        "type": "t_uint256"
      },
      {
        "astId": 9247,
        "contract": "contracts/InsuranceExchange.sol:InsuranceExchange",
        "label": "payoutTimeRange",
        "offset": 0,
        "slot": "312",
        "type": "t_uint256"
      },
      {
        "astId": 9251,
        "contract": "contracts/InsuranceExchange.sol:InsuranceExchange",
        "label": "withdrawRequests",
        "offset": 0,
        "slot": "313",
        "type": "t_mapping(t_address,t_uint256)"
      },
      {
        "astId": 9253,
        "contract": "contracts/InsuranceExchange.sol:InsuranceExchange",
        "label": "requestWaitPeriod",
        "offset": 0,
        "slot": "314",
        "type": "t_uint256"
      },
      {
        "astId": 9255,
        "contract": "contracts/InsuranceExchange.sol:InsuranceExchange",
        "label": "withdrawPeriod",
        "offset": 0,
        "slot": "315",
        "type": "t_uint256"
      }
    ],
    "types": {
      "t_address": {
        "encoding": "inplace",
        "label": "address",
        "numberOfBytes": "20"
      },
      "t_array(t_uint256)49_storage": {
        "base": "t_uint256",
        "encoding": "inplace",
        "label": "uint256[49]",
        "numberOfBytes": "1568"
      },
      "t_array(t_uint256)50_storage": {
        "base": "t_uint256",
        "encoding": "inplace",
        "label": "uint256[50]",
        "numberOfBytes": "1600"
      },
      "t_bool": {
        "encoding": "inplace",
        "label": "bool",
        "numberOfBytes": "1"
      },
      "t_bytes32": {
        "encoding": "inplace",
        "label": "bytes32",
        "numberOfBytes": "32"
      },
      "t_contract(IERC20)3596": {
        "encoding": "inplace",
        "label": "contract IERC20",
        "numberOfBytes": "20"
      },
      "t_contract(IMark2Market)15198": {
        "encoding": "inplace",
        "label": "contract IMark2Market",
        "numberOfBytes": "20"
      },
      "t_contract(IPortfolioManager)15274": {
        "encoding": "inplace",
        "label": "contract IPortfolioManager",
        "numberOfBytes": "20"
      },
      "t_contract(IRebaseToken)15437": {
        "encoding": "inplace",
        "label": "contract IRebaseToken",
        "numberOfBytes": "20"
      },
      "t_mapping(t_address,t_bool)": {
        "encoding": "mapping",
        "key": "t_address",
        "label": "mapping(address => bool)",
        "numberOfBytes": "32",
        "value": "t_bool"
      },
      "t_mapping(t_address,t_uint256)": {
        "encoding": "mapping",
        "key": "t_address",
        "label": "mapping(address => uint256)",
        "numberOfBytes": "32",
        "value": "t_uint256"
      },
      "t_mapping(t_bytes32,t_struct(RoleData)34_storage)": {
        "encoding": "mapping",
        "key": "t_bytes32",
        "label": "mapping(bytes32 => struct AccessControlUpgradeable.RoleData)",
        "numberOfBytes": "32",
        "value": "t_struct(RoleData)34_storage"
      },
      "t_struct(RoleData)34_storage": {
        "encoding": "inplace",
        "label": "struct AccessControlUpgradeable.RoleData",
        "members": [
          {
            "astId": 31,
            "contract": "contracts/InsuranceExchange.sol:InsuranceExchange",
            "label": "members",
            "offset": 0,
            "slot": "0",
            "type": "t_mapping(t_address,t_bool)"
          },
          {
            "astId": 33,
            "contract": "contracts/InsuranceExchange.sol:InsuranceExchange",
            "label": "adminRole",
            "offset": 0,
            "slot": "1",
            "type": "t_bytes32"
          }
        ],
        "numberOfBytes": "64"
      },
      "t_uint256": {
        "encoding": "inplace",
        "label": "uint256",
        "numberOfBytes": "32"
      },
      "t_uint8": {
        "encoding": "inplace",
        "label": "uint8",
        "numberOfBytes": "1"
      }
    }
  }
}