{
  "address": "0x1dd4C7BF61257018E0Bd99442C3bE4D99e402f69",
  "abi": [
    {
      "inputs": [],
      "stateMutability": "nonpayable",
      "type": "constructor"
    },
    {
      "anonymous": false,
      "inputs": [
        {
          "indexed": false,
          "internalType": "address",
          "name": "previousAdmin",
          "type": "address"
        },
        {
          "indexed": false,
          "internalType": "address",
          "name": "newAdmin",
          "type": "address"
        }
      ],
      "name": "AdminChanged",
      "type": "event"
    },
    {
      "anonymous": false,
      "inputs": [
        {
          "indexed": false,
          "internalType": "address",
          "name": "value",
          "type": "address"
        }
      ],
      "name": "AssetUpdated",
      "type": "event"
    },
    {
      "anonymous": false,
      "inputs": [],
      "name": "Balance",
      "type": "event"
    },
    {
      "anonymous": false,
      "inputs": [
        {
          "indexed": true,
          "internalType": "address",
          "name": "beacon",
          "type": "address"
        }
      ],
      "name": "BeaconUpgraded",
      "type": "event"
    },
    {
      "anonymous": false,
      "inputs": [
        {
          "indexed": false,
          "internalType": "address",
          "name": "value",
          "type": "address"
        }
      ],
      "name": "CashStrategyAlreadySet",
      "type": "event"
    },
    {
      "anonymous": false,
      "inputs": [
        {
          "indexed": false,
          "internalType": "uint256",
          "name": "value",
          "type": "uint256"
        }
      ],
      "name": "CashStrategyRestaked",
      "type": "event"
    },
    {
      "anonymous": false,
      "inputs": [
        {
          "indexed": false,
          "internalType": "address",
          "name": "value",
          "type": "address"
        }
      ],
      "name": "CashStrategyUpdated",
      "type": "event"
    },
    {
      "anonymous": false,
      "inputs": [
        {
          "indexed": false,
          "internalType": "uint256",
          "name": "amount",
          "type": "uint256"
        },
        {
          "indexed": false,
          "internalType": "address",
          "name": "from",
          "type": "address"
        },
        {
          "indexed": false,
          "internalType": "address",
          "name": "to",
          "type": "address"
        }
      ],
      "name": "Exchanged",
      "type": "event"
    },
    {
      "anonymous": false,
      "inputs": [
        {
          "indexed": false,
          "internalType": "address",
          "name": "value",
          "type": "address"
        }
      ],
      "name": "ExchangerUpdated",
      "type": "event"
    },
    {
      "anonymous": false,
      "inputs": [
        {
          "indexed": false,
          "internalType": "uint8",
          "name": "version",
          "type": "uint8"
        }
      ],
      "name": "Initialized",
      "type": "event"
    },
    {
      "anonymous": false,
      "inputs": [
        {
          "indexed": false,
          "internalType": "address",
          "name": "value",
          "type": "address"
        }
      ],
      "name": "Mark2MarketUpdated",
      "type": "event"
    },
    {
      "anonymous": false,
      "inputs": [
        {
          "indexed": true,
          "internalType": "bytes32",
          "name": "role",
          "type": "bytes32"
        },
        {
          "indexed": true,
          "internalType": "bytes32",
          "name": "previousAdminRole",
          "type": "bytes32"
        },
        {
          "indexed": true,
          "internalType": "bytes32",
          "name": "newAdminRole",
          "type": "bytes32"
        }
      ],
      "name": "RoleAdminChanged",
      "type": "event"
    },
    {
      "anonymous": false,
      "inputs": [
        {
          "indexed": true,
          "internalType": "bytes32",
          "name": "role",
          "type": "bytes32"
        },
        {
          "indexed": true,
          "internalType": "address",
          "name": "account",
          "type": "address"
        },
        {
          "indexed": true,
          "internalType": "address",
          "name": "sender",
          "type": "address"
        }
      ],
      "name": "RoleGranted",
      "type": "event"
    },
    {
      "anonymous": false,
      "inputs": [
        {
          "indexed": true,
          "internalType": "bytes32",
          "name": "role",
          "type": "bytes32"
        },
        {
          "indexed": true,
          "internalType": "address",
          "name": "account",
          "type": "address"
        },
        {
          "indexed": true,
          "internalType": "address",
          "name": "sender",
          "type": "address"
        }
      ],
      "name": "RoleRevoked",
      "type": "event"
    },
    {
      "anonymous": false,
      "inputs": [
        {
          "indexed": false,
          "internalType": "uint256",
          "name": "index",
          "type": "uint256"
        },
        {
          "indexed": false,
          "internalType": "address",
          "name": "strategy",
          "type": "address"
        },
        {
          "indexed": false,
          "internalType": "uint256",
          "name": "minWeight",
          "type": "uint256"
        },
        {
          "indexed": false,
          "internalType": "uint256",
          "name": "targetWeight",
          "type": "uint256"
        },
        {
          "indexed": false,
          "internalType": "uint256",
          "name": "maxWeight",
          "type": "uint256"
        },
        {
          "indexed": false,
          "internalType": "uint256",
          "name": "riskFactor",
          "type": "uint256"
        },
        {
          "indexed": false,
          "internalType": "bool",
          "name": "enabled",
          "type": "bool"
        },
        {
          "indexed": false,
          "internalType": "bool",
          "name": "enabledReward",
          "type": "bool"
        }
      ],
      "name": "StrategyWeightUpdated",
      "type": "event"
    },
    {
      "anonymous": false,
      "inputs": [
        {
          "indexed": false,
          "internalType": "uint256",
          "name": "value",
          "type": "uint256"
        }
      ],
      "name": "TotalRiskFactorUpdated",
      "type": "event"
    },
    {
      "anonymous": false,
      "inputs": [
        {
          "indexed": true,
          "internalType": "address",
          "name": "implementation",
          "type": "address"
        }
      ],
      "name": "Upgraded",
      "type": "event"
    },
    {
      "inputs": [],
      "name": "DEFAULT_ADMIN_ROLE",
      "outputs": [
        {
          "internalType": "bytes32",
          "name": "",
          "type": "bytes32"
        }
      ],
      "stateMutability": "view",
      "type": "function"
    },
    {
      "inputs": [],
      "name": "EXCHANGER",
      "outputs": [
        {
          "internalType": "bytes32",
          "name": "",
          "type": "bytes32"
        }
      ],
      "stateMutability": "view",
      "type": "function"
    },
    {
      "inputs": [],
      "name": "PORTFOLIO_AGENT_ROLE",
      "outputs": [
        {
          "internalType": "bytes32",
          "name": "",
          "type": "bytes32"
        }
      ],
      "stateMutability": "view",
      "type": "function"
    },
    {
      "inputs": [],
      "name": "TOTAL_WEIGHT",
      "outputs": [
        {
          "internalType": "uint256",
          "name": "",
          "type": "uint256"
        }
      ],
      "stateMutability": "view",
      "type": "function"
    },
    {
      "inputs": [],
      "name": "UPGRADER_ROLE",
      "outputs": [
        {
          "internalType": "bytes32",
          "name": "",
          "type": "bytes32"
        }
      ],
      "stateMutability": "view",
      "type": "function"
    },
    {
      "inputs": [
        {
          "internalType": "address",
          "name": "_strategy",
          "type": "address"
        }
      ],
      "name": "addStrategy",
      "outputs": [],
      "stateMutability": "nonpayable",
      "type": "function"
    },
    {
      "inputs": [],
      "name": "balance",
      "outputs": [],
      "stateMutability": "nonpayable",
      "type": "function"
    },
    {
      "inputs": [],
      "name": "cashStrategy",
      "outputs": [
        {
          "internalType": "contract IStrategy",
          "name": "",
          "type": "address"
        }
      ],
      "stateMutability": "view",
      "type": "function"
    },
    {
      "inputs": [],
      "name": "claimAndBalance",
      "outputs": [],
      "stateMutability": "nonpayable",
      "type": "function"
    },
    {
      "inputs": [
        {
          "internalType": "contract IERC20",
          "name": "_token",
          "type": "address"
        },
        {
          "internalType": "uint256",
          "name": "_amount",
          "type": "uint256"
        }
      ],
      "name": "deposit",
      "outputs": [],
      "stateMutability": "nonpayable",
      "type": "function"
    },
    {
      "inputs": [],
      "name": "exchanger",
      "outputs": [
        {
          "internalType": "address",
          "name": "",
          "type": "address"
        }
      ],
      "stateMutability": "view",
      "type": "function"
    },
    {
      "inputs": [],
      "name": "getAllStrategyWeights",
      "outputs": [
        {
          "components": [
            {
              "internalType": "address",
              "name": "strategy",
              "type": "address"
            },
            {
              "internalType": "uint256",
              "name": "minWeight",
              "type": "uint256"
            },
            {
              "internalType": "uint256",
              "name": "targetWeight",
              "type": "uint256"
            },
            {
              "internalType": "uint256",
              "name": "maxWeight",
              "type": "uint256"
            },
            {
              "internalType": "uint256",
              "name": "riskFactor",
              "type": "uint256"
            },
            {
              "internalType": "bool",
              "name": "enabled",
              "type": "bool"
            },
            {
              "internalType": "bool",
              "name": "enabledReward",
              "type": "bool"
            }
          ],
          "internalType": "struct IPortfolioManager.StrategyWeight[]",
          "name": "",
          "type": "tuple[]"
        }
      ],
      "stateMutability": "view",
      "type": "function"
    },
    {
      "inputs": [
        {
          "internalType": "bytes32",
          "name": "role",
          "type": "bytes32"
        }
      ],
      "name": "getRoleAdmin",
      "outputs": [
        {
          "internalType": "bytes32",
          "name": "",
          "type": "bytes32"
        }
      ],
      "stateMutability": "view",
      "type": "function"
    },
    {
      "inputs": [
        {
          "internalType": "address",
          "name": "strategy",
          "type": "address"
        }
      ],
      "name": "getStrategyWeight",
      "outputs": [
        {
          "components": [
            {
              "internalType": "address",
              "name": "strategy",
              "type": "address"
            },
            {
              "internalType": "uint256",
              "name": "minWeight",
              "type": "uint256"
            },
            {
              "internalType": "uint256",
              "name": "targetWeight",
              "type": "uint256"
            },
            {
              "internalType": "uint256",
              "name": "maxWeight",
              "type": "uint256"
            },
            {
              "internalType": "uint256",
              "name": "riskFactor",
              "type": "uint256"
            },
            {
              "internalType": "bool",
              "name": "enabled",
              "type": "bool"
            },
            {
              "internalType": "bool",
              "name": "enabledReward",
              "type": "bool"
            }
          ],
          "internalType": "struct IPortfolioManager.StrategyWeight",
          "name": "",
          "type": "tuple"
        }
      ],
      "stateMutability": "view",
      "type": "function"
    },
    {
      "inputs": [],
      "name": "getTotalRiskFactor",
      "outputs": [
        {
          "internalType": "uint256",
          "name": "",
          "type": "uint256"
        }
      ],
      "stateMutability": "view",
      "type": "function"
    },
    {
      "inputs": [
        {
          "internalType": "bytes32",
          "name": "role",
          "type": "bytes32"
        },
        {
          "internalType": "address",
          "name": "account",
          "type": "address"
        }
      ],
      "name": "grantRole",
      "outputs": [],
      "stateMutability": "nonpayable",
      "type": "function"
    },
    {
      "inputs": [
        {
          "internalType": "bytes32",
          "name": "role",
          "type": "bytes32"
        },
        {
          "internalType": "address",
          "name": "account",
          "type": "address"
        }
      ],
      "name": "hasRole",
      "outputs": [
        {
          "internalType": "bool",
          "name": "",
          "type": "bool"
        }
      ],
      "stateMutability": "view",
      "type": "function"
    },
    {
      "inputs": [],
      "name": "initialize",
      "outputs": [],
      "stateMutability": "nonpayable",
      "type": "function"
    },
    {
      "inputs": [],
      "name": "m2m",
      "outputs": [
        {
          "internalType": "contract IMark2Market",
          "name": "",
          "type": "address"
        }
      ],
      "stateMutability": "view",
      "type": "function"
    },
    {
      "inputs": [],
      "name": "proxiableUUID",
      "outputs": [
        {
          "internalType": "bytes32",
          "name": "",
          "type": "bytes32"
        }
      ],
      "stateMutability": "view",
      "type": "function"
    },
    {
      "inputs": [
        {
          "internalType": "address",
          "name": "_strategy",
          "type": "address"
        }
      ],
      "name": "removeStrategy",
      "outputs": [],
      "stateMutability": "nonpayable",
      "type": "function"
    },
    {
      "inputs": [
        {
          "internalType": "bytes32",
          "name": "role",
          "type": "bytes32"
        },
        {
          "internalType": "address",
          "name": "account",
          "type": "address"
        }
      ],
      "name": "renounceRole",
      "outputs": [],
      "stateMutability": "nonpayable",
      "type": "function"
    },
    {
      "inputs": [
        {
          "internalType": "bytes32",
          "name": "role",
          "type": "bytes32"
        },
        {
          "internalType": "address",
          "name": "account",
          "type": "address"
        }
      ],
      "name": "revokeRole",
      "outputs": [],
      "stateMutability": "nonpayable",
      "type": "function"
    },
    {
      "inputs": [
        {
          "internalType": "address",
          "name": "_asset",
          "type": "address"
        }
      ],
      "name": "setAsset",
      "outputs": [],
      "stateMutability": "nonpayable",
      "type": "function"
    },
    {
      "inputs": [
        {
          "internalType": "address",
          "name": "_cashStrategy",
          "type": "address"
        }
      ],
      "name": "setCashStrategy",
      "outputs": [],
      "stateMutability": "nonpayable",
      "type": "function"
    },
    {
      "inputs": [
        {
          "internalType": "address",
          "name": "_exchanger",
          "type": "address"
        }
      ],
      "name": "setExchanger",
      "outputs": [],
      "stateMutability": "nonpayable",
      "type": "function"
    },
    {
      "inputs": [
        {
          "internalType": "address",
          "name": "_m2m",
          "type": "address"
        }
      ],
      "name": "setMark2Market",
      "outputs": [],
      "stateMutability": "nonpayable",
      "type": "function"
    },
    {
      "inputs": [
        {
          "components": [
            {
              "internalType": "address",
              "name": "strategy",
              "type": "address"
            },
            {
              "internalType": "uint256",
              "name": "minWeight",
              "type": "uint256"
            },
            {
              "internalType": "uint256",
              "name": "targetWeight",
              "type": "uint256"
            },
            {
              "internalType": "uint256",
              "name": "maxWeight",
              "type": "uint256"
            },
            {
              "internalType": "uint256",
              "name": "riskFactor",
              "type": "uint256"
            },
            {
              "internalType": "bool",
              "name": "enabled",
              "type": "bool"
            },
            {
              "internalType": "bool",
              "name": "enabledReward",
              "type": "bool"
            }
          ],
          "internalType": "struct IPortfolioManager.StrategyWeight[]",
          "name": "_strategyWeights",
          "type": "tuple[]"
        }
      ],
      "name": "setStrategyWeights",
      "outputs": [],
      "stateMutability": "nonpayable",
      "type": "function"
    },
    {
      "inputs": [
        {
          "internalType": "address",
          "name": "",
          "type": "address"
        }
      ],
      "name": "strategyWeightPositions",
      "outputs": [
        {
          "internalType": "uint256",
          "name": "",
          "type": "uint256"
        }
      ],
      "stateMutability": "view",
      "type": "function"
    },
    {
      "inputs": [
        {
          "internalType": "uint256",
          "name": "",
          "type": "uint256"
        }
      ],
      "name": "strategyWeights",
      "outputs": [
        {
          "internalType": "address",
          "name": "strategy",
          "type": "address"
        },
        {
          "internalType": "uint256",
          "name": "minWeight",
          "type": "uint256"
        },
        {
          "internalType": "uint256",
          "name": "targetWeight",
          "type": "uint256"
        },
        {
          "internalType": "uint256",
          "name": "maxWeight",
          "type": "uint256"
        },
        {
          "internalType": "uint256",
          "name": "riskFactor",
          "type": "uint256"
        },
        {
          "internalType": "bool",
          "name": "enabled",
          "type": "bool"
        },
        {
          "internalType": "bool",
          "name": "enabledReward",
          "type": "bool"
        }
      ],
      "stateMutability": "view",
      "type": "function"
    },
    {
      "inputs": [
        {
          "internalType": "bytes4",
          "name": "interfaceId",
          "type": "bytes4"
        }
      ],
      "name": "supportsInterface",
      "outputs": [
        {
          "internalType": "bool",
          "name": "",
          "type": "bool"
        }
      ],
      "stateMutability": "view",
      "type": "function"
    },
    {
      "inputs": [],
      "name": "totalRiskFactor",
      "outputs": [
        {
          "internalType": "uint256",
          "name": "",
          "type": "uint256"
        }
      ],
      "stateMutability": "view",
      "type": "function"
    },
    {
      "inputs": [
        {
          "internalType": "address",
          "name": "newImplementation",
          "type": "address"
        }
      ],
      "name": "upgradeTo",
      "outputs": [],
      "stateMutability": "nonpayable",
      "type": "function"
    },
    {
      "inputs": [
        {
          "internalType": "address",
          "name": "newImplementation",
          "type": "address"
        },
        {
          "internalType": "bytes",
          "name": "data",
          "type": "bytes"
        }
      ],
      "name": "upgradeToAndCall",
      "outputs": [],
      "stateMutability": "payable",
      "type": "function"
    },
    {
      "inputs": [
        {
          "internalType": "contract IERC20",
          "name": "_token",
          "type": "address"
        },
        {
          "internalType": "uint256",
          "name": "_amount",
          "type": "uint256"
        }
      ],
      "name": "withdraw",
      "outputs": [
        {
          "internalType": "uint256",
          "name": "",
          "type": "uint256"
        }
      ],
      "stateMutability": "nonpayable",
      "type": "function"
    }
  ],
  "numDeployments": 1,
  "solcInputHash": "3a3ed59a5605a91708671f1eb07918e1",
  "bytecode": "0x60a06040523060601b6080523480156200001857600080fd5b50600054610100900460ff16158080156200003a5750600054600160ff909116105b806200006a575062000057306200014460201b620027b51760201c565b1580156200006a575060005460ff166001145b620000d25760405162461bcd60e51b815260206004820152602e60248201527f496e697469616c697a61626c653a20636f6e747261637420697320616c72656160448201526d191e481a5b9a5d1a585b1a5e995960921b606482015260840160405180910390fd5b6000805460ff191660011790558015620000f6576000805461ff0019166101001790555b80156200013d576000805461ff0019169055604051600181527f7f26b83ff96e1f2b6a682f133852f6798a09c465da95921460cefb38474024989060200160405180910390a15b5062000153565b6001600160a01b03163b151590565b60805160601c6144616200018e60003960008181610ea801528181610ee8015281816114b4015281816114f4015261158301526144616000f3fe6080604052600436106102045760003560e01c80635dbd733a11610118578063bd0f1053116100a0578063da909b091161006f578063da909b0914610633578063ed2a2f9d14610653578063f281d4381461066a578063f3fef3a31461068c578063f72c0d8b146106ac57600080fd5b8063bd0f1053146105bc578063c6bbf4cb146105de578063d0d552dd146105f3578063d547741f1461061357600080fd5b806391d14854116100e757806391d148541461053b5780639b1dcfec1461055b578063a217fddf1461057b578063acffa93314610590578063b69ef8a8146105a757600080fd5b80635dbd733a1461046257806375e8bdfa146104965780638129fc1c146104c35780638e6c8ab3146104d857600080fd5b80633659cfe61161019b5780634953bd071161016a5780634953bd07146103e45780634d12fca4146103fa5780634f1ef2861461041a57806352d1902d1461042d57806359d57c1a1461044257600080fd5b80633659cfe61461036357806337044771146103835780633d92c38b146103a357806347e7ef24146103c457600080fd5b8063248a9ca3116101d7578063248a9ca3146102ad57806329cb1bee146102eb5780632f2ff15d1461032357806336568abe1461034357600080fd5b806301ffc9a71461020957806306e739241461023e578063175188e81461026b578063223e54791461028d575b600080fd5b34801561021557600080fd5b50610229610224366004613d88565b6106e0565b60405190151581526020015b60405180910390f35b34801561024a57600080fd5b5061025e610259366004613bcf565b610717565b60405161023591906141bd565b34801561027757600080fd5b5061028b610286366004613bcf565b610899565b005b34801561029957600080fd5b5061028b6102a8366004613bcf565b610cb2565b3480156102b957600080fd5b506102dd6102c8366004613d26565b60009081526065602052604090206001015490565b604051908152602001610235565b3480156102f757600080fd5b5060ff5461030b906001600160a01b031681565b6040516001600160a01b039091168152602001610235565b34801561032f57600080fd5b5061028b61033e366004613d58565b610df5565b34801561034f57600080fd5b5061028b61035e366004613d58565b610e1f565b34801561036f57600080fd5b5061028b61037e366004613bcf565b610e9d565b34801561038f57600080fd5b5061028b61039e366004613bcf565b610f7d565b3480156103af57600080fd5b506101005461030b906001600160a01b031681565b3480156103d057600080fd5b5061028b6103df366004613db2565b611020565b3480156103f057600080fd5b50610101546102dd565b34801561040657600080fd5b5060fb5461030b906001600160a01b031681565b61028b610428366004613bec565b6114a9565b34801561043957600080fd5b506102dd611576565b34801561044e57600080fd5b5061028b61045d366004613bcf565b611629565b34801561046e57600080fd5b506102dd7fd67ad422505496469a1adf6cdf9e5ee92ac5d33992843c9ecc4b2f6d6cde913781565b3480156104a257600080fd5b506102dd6104b1366004613bcf565b60fd6020526000908152604090205481565b3480156104cf57600080fd5b5061028b61197b565b3480156104e457600080fd5b506104f86104f3366004613d26565b611ac2565b604080516001600160a01b03909816885260208801969096529486019390935260608501919091526080840152151560a0830152151560c082015260e001610235565b34801561054757600080fd5b50610229610556366004613d58565b611b1e565b34801561056757600080fd5b5061028b610576366004613c94565b611b49565b34801561058757600080fd5b506102dd600081565b34801561059c57600080fd5b506102dd6101015481565b3480156105b357600080fd5b5061028b612107565b3480156105c857600080fd5b506102dd6000805160206143c583398151915281565b3480156105ea57600080fd5b5061028b6121b0565b3480156105ff57600080fd5b5061028b61060e366004613bcf565b6121f6565b34801561061f57600080fd5b5061028b61062e366004613d58565b612291565b34801561063f57600080fd5b5061028b61064e366004613bcf565b6122b6565b34801561065f57600080fd5b506102dd620186a081565b34801561067657600080fd5b5061067f61238e565b6040516102359190614008565b34801561069857600080fd5b506102dd6106a7366004613db2565b612441565b3480156106b857600080fd5b506102dd7f189ab7a9244df0848122154315af71fe140f3db0fe014031783b0946b8c9d2e381565b60006001600160e01b03198216637965db0b60e01b148061071157506301ffc9a760e01b6001600160e01b03198316145b92915050565b6107646040518060e0016040528060006001600160a01b03168152602001600081526020016000815260200160008152602001600081526020016000151581526020016000151581525090565b60fe546107ad5760405162461bcd60e51b815260206004820152601260248201527114dd1c985d1959de481b9bdd08199bdd5b9960721b60448201526064015b60405180910390fd5b6001600160a01b038216600090815260fd602052604081205460fe805490919081106107db576107db614375565b60009182526020918290206040805160e081018252600690930290910180546001600160a01b0390811680855260018301549585019590955260028201549284019290925260038101546060840152600481015460808401526005015460ff808216151560a085015261010090910416151560c08301529092508416146107115760405162461bcd60e51b815260206004820152601260248201527114dd1c985d1959de481b9bdd08199bdd5b9960721b60448201526064016107a4565b6108a4600033611b1e565b6108c05760405162461bcd60e51b81526004016107a490614158565b6001600160a01b038116600090815260fd602052604081205460fe8054919291839081106108f0576108f0614375565b60009182526020918290206040805160e081018252600690930290910180546001600160a01b0390811680855260018301549585019590955260028201549284019290925260038101546060840152600481015460808401526005015460ff808216151560a085015261010090910416151560c08301529092508416146109b95760405162461bcd60e51b815260206004820152601b60248201527f41646472657373207374726174656779206e6f7420657175616c73000000000060448201526064016107a4565b604081015115610a0b5760405162461bcd60e51b815260206004820152601760248201527f54617267657420776569676874206d757374206265203000000000000000000060448201526064016107a4565b80600001516001600160a01b031663a3673b386040518163ffffffff1660e01b815260040160206040518083038186803b158015610a4857600080fd5b505afa158015610a5c573d6000803e3d6000fd5b505050506040513d601f19601f82011682018060405250810190610a809190613d3f565b15610ac65760405162461bcd60e51b815260206004820152601660248201527505374726174656779206e6176206d75737420626520360541b60448201526064016107a4565b815b60fe54610ad79060019061428a565b811015610c3457600060fe610aed83600161423f565b81548110610afd57610afd614375565b60009182526020918290206040805160e081018252600690930290910180546001600160a01b03168352600181015493830193909352600283015490820152600382015460608201526004820154608082015260059091015460ff808216151560a084015261010090910416151560c082015260fe8054919250829184908110610b8957610b89614375565b6000918252602080832084516006939093020180546001600160a01b0319166001600160a01b039384161781558482015160018201556040808601516002830155606086015160038301556080860151600483015560a08601516005909201805460c09097015161ffff1990971692151561ff0019169290921761010096151596909602959095179055935116815260fd909252902081905580610c2c816142e4565b915050610ac8565b5060fe805480610c4657610c4661435f565b6000828152602080822060066000199094019384020180546001600160a01b031916815560018101839055600281018390556003810183905560048101839055600501805461ffff19169055919092556001600160a01b0394909416815260fd90935250506040812055565b610cbd600033611b1e565b610cd95760405162461bcd60e51b81526004016107a490614158565b60005b60fe5460ff82161015610d7c57816001600160a01b031660fe8260ff1681548110610d0957610d09614375565b60009182526020909120600690910201546001600160a01b03161415610d6a5760405162461bcd60e51b815260206004820152601660248201527514dd1c985d1959de48185b1c9958591e48195e1a5cdd60521b60448201526064016107a4565b80610d74816142ff565b915050610cdc565b506040805160e0810182526001600160a01b0383168152600060208201819052918101829052606081018290526080810182905260a0810182905260c0810182905260fe5490919015610dce575060fe545b610dd882826127c4565b90516001600160a01b0316600090815260fd602052604090205550565b600082815260656020526040902060010154610e108161292b565b610e1a8383612935565b505050565b6001600160a01b0381163314610e8f5760405162461bcd60e51b815260206004820152602f60248201527f416363657373436f6e74726f6c3a2063616e206f6e6c792072656e6f756e636560448201526e103937b632b9903337b91039b2b63360891b60648201526084016107a4565b610e9982826129bb565b5050565b306001600160a01b037f0000000000000000000000000000000000000000000000000000000000000000161415610ee65760405162461bcd60e51b81526004016107a4906140c0565b7f00000000000000000000000000000000000000000000000000000000000000006001600160a01b0316610f2f6000805160206143e5833981519152546001600160a01b031690565b6001600160a01b031614610f555760405162461bcd60e51b81526004016107a49061410c565b610f5e81612a22565b60408051600080825260208201909252610f7a91839190612a4c565b50565b610f88600033611b1e565b610fa45760405162461bcd60e51b81526004016107a490614158565b6001600160a01b038116610fca5760405162461bcd60e51b81526004016107a490614186565b61010080546001600160a01b0319166001600160a01b0383169081179091556040519081527f2387291c358bb5414b9fdcdfeb40efddb696908065a6533e47bf60b395f7dcfd906020015b60405180910390a150565b6110386000805160206143c583398151915233611b1e565b6110545760405162461bcd60e51b81526004016107a490614089565b60ff546001600160a01b03166110a85760405162461bcd60e51b815260206004820152601960248201527810d85cda081cdd1c985d1959de481b9bdd081cd95d081e595d603a1b60448201526064016107a4565b60fc546001600160a01b038381169116146111115760405162461bcd60e51b815260206004820152602360248201527f504d3a204f6e6c7920617373657420617661696c61626c6520746f206465706f6044820152621cda5d60ea1b60648201526084016107a4565b60fc546040516370a0823160e01b81523060048201526000916001600160a01b0316906370a082319060240160206040518083038186803b15801561115557600080fd5b505afa158015611169573d6000803e3d6000fd5b505050506040513d601f19601f8201168201806040525081019061118d9190613d3f565b90508061119957505050565b806000805b60fe5460ff821610156112d15760fe8160ff16815481106111c1576111c1614375565b600091825260209091206005600690920201015460ff166111e1576112bf565b60fe8160ff16815481106111f7576111f7614375565b6000918252602091829020600690910201546040805163146ce76760e31b815290516001600160a01b039092169263a3673b3892600480840193829003018186803b15801561124557600080fd5b505afa158015611259573d6000803e3d6000fd5b505050506040513d601f19601f8201168201806040525081019061127d9190613d3f565b611287908461423f565b925060fe8160ff168154811061129f5761129f614375565b906000526020600020906006020160020154826112bc919061423f565b91505b806112c9816142ff565b91505061119e565b5060ff546040805163146ce76760e31b815290516000926001600160a01b03169163a3673b38916004808301926020929190829003018186803b15801561131757600080fd5b505afa15801561132b573d6000803e3d6000fd5b505050506040513d601f19601f8201168201806040525081019061134f9190613d3f565b60ff5490915060009061136a906001600160a01b0316610717565b905060008382606001518661137f919061426b565b6113899190614257565b905080611396878561423f565b10156114975760fc5460ff5460405163a9059cbb60e01b81526001600160a01b0391821660048201526024810189905291169063a9059cbb90604401602060405180830381600087803b1580156113ec57600080fd5b505af1158015611400573d6000803e3d6000fd5b505050506040513d601f19601f820116820180604052508101906114249190613d09565b5060ff5460fc546040516356e4bb9760e11b81526001600160a01b0391821660048201526024810189905291169063adc9772e90604401600060405180830381600087803b15801561147557600080fd5b505af1158015611489573d6000803e3d6000fd5b505050505050505050505050565b61149f612bc6565b5050505050505050565b306001600160a01b037f00000000000000000000000000000000000000000000000000000000000000001614156114f25760405162461bcd60e51b81526004016107a4906140c0565b7f00000000000000000000000000000000000000000000000000000000000000006001600160a01b031661153b6000805160206143e5833981519152546001600160a01b031690565b6001600160a01b0316146115615760405162461bcd60e51b81526004016107a49061410c565b61156a82612a22565b610e9982826001612a4c565b6000306001600160a01b037f000000000000000000000000000000000000000000000000000000000000000016146116165760405162461bcd60e51b815260206004820152603860248201527f555550535570677261646561626c653a206d757374206e6f742062652063616c60448201527f6c6564207468726f7567682064656c656761746563616c6c000000000000000060648201526084016107a4565b506000805160206143e583398151915290565b611634600033611b1e565b6116505760405162461bcd60e51b81526004016107a490614158565b6001600160a01b0381166116765760405162461bcd60e51b81526004016107a490614186565b60ff546001600160a01b03828116911614156116c5576040516001600160a01b03821681527f47ffb57d9975263bcf9c547a81d76b51e81fd87f6a69b8189e744921dda0005c90602001611015565b60ff546001600160a01b0316158015906117695760ff5460fc5460405163f6f6b88160e01b81526001600160a01b039283169263f6f6b88192611715929116906000903090600190600401613fde565b602060405180830381600087803b15801561172f57600080fd5b505af1158015611743573d6000803e3d6000fd5b505050506040513d601f19601f820116820180604052508101906117679190613d3f565b505b60ff80546001600160a01b0319166001600160a01b038416179055801561193b5760fc546040516370a0823160e01b81523060048201526000916001600160a01b0316906370a082319060240160206040518083038186803b1580156117ce57600080fd5b505afa1580156117e2573d6000803e3d6000fd5b505050506040513d601f19601f820116820180604052508101906118069190613d3f565b905080156119395760fc5460ff5460405163a9059cbb60e01b81526001600160a01b0391821660048201526024810184905291169063a9059cbb90604401602060405180830381600087803b15801561185e57600080fd5b505af1158015611872573d6000803e3d6000fd5b505050506040513d601f19601f820116820180604052508101906118969190613d09565b5060ff5460fc546040516356e4bb9760e11b81526001600160a01b0391821660048201526024810184905291169063adc9772e90604401600060405180830381600087803b1580156118e757600080fd5b505af11580156118fb573d6000803e3d6000fd5b505050507f0eab4ceb0e0bf74211211d85efd51fec6d84d5ce7719dd107af8818194bcd97f8160405161193091815260200190565b60405180910390a15b505b6040516001600160a01b03831681527fd82ec5aca3f5d594d6f9a7d8a97e332f1e6319efddf9b0bf445d87348ac4b0e39060200160405180910390a15050565b600054610100900460ff161580801561199b5750600054600160ff909116105b806119b55750303b1580156119b5575060005460ff166001145b611a185760405162461bcd60e51b815260206004820152602e60248201527f496e697469616c697a61626c653a20636f6e747261637420697320616c72656160448201526d191e481a5b9a5d1a585b1a5e995960921b60648201526084016107a4565b6000805460ff191660011790558015611a3b576000805461ff0019166101001790555b611a43612bd1565b611a4b612bd1565b611a56600033612935565b611a807f189ab7a9244df0848122154315af71fe140f3db0fe014031783b0946b8c9d2e333612935565b8015610f7a576000805461ff0019169055604051600181527f7f26b83ff96e1f2b6a682f133852f6798a09c465da95921460cefb384740249890602001611015565b60fe8181548110611ad257600080fd5b60009182526020909120600690910201805460018201546002830154600384015460048501546005909501546001600160a01b0390941695509193909260ff8082169161010090041687565b60009182526065602090815260408084206001600160a01b0393909316845291905290205460ff1690565b611b737fd67ad422505496469a1adf6cdf9e5ee92ac5d33992843c9ecc4b2f6d6cde913733611b1e565b611bbf5760405162461bcd60e51b815260206004820152601d60248201527f5265737472696374656420746f20506f7274666f6c696f204167656e7400000060448201526064016107a4565b60fe548114611c105760405162461bcd60e51b815260206004820152601a60248201527f57726f6e67206e756d626572206f66207374726174656769657300000000000060448201526064016107a4565b60fe54600090819067ffffffffffffffff811115611c3057611c3061438b565b604051908082528060200260200182016040528015611c59578160200160208202803683370190505b5090506000805b60ff811685111561206257600086868360ff16818110611c8257611c82614375565b905060e00201803603810190611c989190613dde565b80516001600160a01b0316600090815260fd6020526040902054855191925090859082908110611cca57611cca614375565b60200260200101511515600115151415611d1d5760405162461bcd60e51b815260206004820152601460248201527314dd1c985d1959de481dd85cc81d5c19185d195960621b60448201526064016107a4565b600060fe8281548110611d3257611d32614375565b60009182526020918290206040805160e081018252600690930290910180546001600160a01b0390811680855260018301549585019590955260028201549284019290925260038101546060840152600481015460808401526005015460ff808216151560a085015261010090910416151560c083015285519193501614611dfc5760405162461bcd60e51b815260206004820152601860248201527f496e636f727265637420737472617465677920696e646578000000000000000060448201526064016107a4565b826040015183602001511115611e695760405162461bcd60e51b815260206004820152602c60248201527f6d696e5765696768742073686f756c646e277420686967686572207468616e2060448201526b1d185c99d95d15d95a59da1d60a21b60648201526084016107a4565b826060015183604001511115611ed65760405162461bcd60e51b815260206004820152602c60248201527f7461726765745765696768742073686f756c646e27742068696768657220746860448201526b185b881b585e15d95a59da1d60a21b60648201526084016107a4565b6040830151611ee5908861423f565b96508260fe8381548110611efb57611efb614375565b600091825260209182902083516006929092020180546001600160a01b0319166001600160a01b039092169190911781559082015160018083019190915560408301516002830155606083015160038301556080830151600483015560a08301516005909201805460c09094015161ffff1990941692151561ff00191692909217610100931515939093029290921790558651879084908110611fa057611fa0614375565b6020026020010190151590811515815250506103e8836040015160648560800151611fcb9190614257565b611fd5919061426b565b611fdf9190614257565b611fe9908661423f565b94507fc7d6a10819f5d6f3fd2acf9d38519fb9ca604adcf565d719841b60c161c6730182846000015185602001518660400151876060015188608001518960a001518a60c001516040516120449897969594939291906141cb565b60405180910390a1505050808061205a906142ff565b915050611c60565b50620186a083146120c75760405162461bcd60e51b815260206004820152602960248201527f546f74616c207461726765742073686f756c6420657175616c20746f20544f54604482015268105317d5d15251d21560ba1b60648201526084016107a4565b6101018190556040518181527fe2ee1ef0b4d76337ccec0a920efb7ded63e020263ae1dc0a23754194693d62699060200160405180910390a15050505050565b6121317fd67ad422505496469a1adf6cdf9e5ee92ac5d33992843c9ecc4b2f6d6cde913733611b1e565b61217d5760405162461bcd60e51b815260206004820152601d60248201527f5265737472696374656420746f20506f7274666f6c696f204167656e7400000060448201526064016107a4565b612185612bc6565b6040517f0ef67887023bd7b8411cf35c89d19498bc1c980684932ef5f5b0559bfac80d9a90600090a1565b6121c86000805160206143c583398151915233611b1e565b6121e45760405162461bcd60e51b81526004016107a490614089565b6121ec612c3c565b6121f4612bc6565b565b612201600033611b1e565b61221d5760405162461bcd60e51b81526004016107a490614158565b6001600160a01b0381166122435760405162461bcd60e51b81526004016107a490614186565b60fc80546001600160a01b0319166001600160a01b0383169081179091556040519081527f80758ef37af3558d372b5a6b2d6906a49e09a13921e7de88ad18525a6f6d5a9a90602001611015565b6000828152606560205260409020600101546122ac8161292b565b610e1a83836129bb565b6122c1600033611b1e565b6122dd5760405162461bcd60e51b81526004016107a490614158565b6001600160a01b0381166123035760405162461bcd60e51b81526004016107a490614186565b60fb54612328906000805160206143c5833981519152906001600160a01b0316612291565b6123406000805160206143c583398151915282610df5565b60fb80546001600160a01b0319166001600160a01b0383169081179091556040519081527f1af34e943bb581f62718acd39caf1a640e9ff89789a197745e259d1f40cd9bd690602001611015565b606060fe805480602002602001604051908101604052809291908181526020016000905b828210156124385760008481526020908190206040805160e0810182526006860290920180546001600160a01b031683526001808201548486015260028201549284019290925260038101546060840152600481015460808401526005015460ff808216151560a085015261010090910416151560c083015290835290920191016123b2565b50505050905090565b600061245b6000805160206143c583398151915233611b1e565b6124775760405162461bcd60e51b81526004016107a490614089565b60ff546001600160a01b03166124cb5760405162461bcd60e51b815260206004820152601960248201527810d85cda081cdd1c985d1959de481b9bdd081cd95d081e595d603a1b60448201526064016107a4565b60fc546001600160a01b038481169116146125345760405162461bcd60e51b8152602060048201526024808201527f504d3a204f6e6c7920617373657420617661696c61626c6520746f20776974686044820152636472617760e01b60648201526084016107a4565b60ff54604080516312bb732d60e11b815290516000926001600160a01b031691632576e65a916004808301926020929190829003018186803b15801561257957600080fd5b505afa15801561258d573d6000803e3d6000fd5b505050506040513d601f19601f820116820180604052508101906125b19190613d3f565b90508281111561264e5760ff5460fc5460405163f6f6b88160e01b81526001600160a01b039283169263f6f6b881926125f69291169087903090600090600401613fde565b602060405180830381600087803b15801561261057600080fd5b505af1158015612624573d6000803e3d6000fd5b505050506040513d601f19601f820116820180604052508101906126489190613d3f565b50612658565b6126588484612d13565b6040516370a0823160e01b81523060048201526000906001600160a01b038616906370a082319060240160206040518083038186803b15801561269a57600080fd5b505afa1580156126ae573d6000803e3d6000fd5b505050506040513d601f19601f820116820180604052508101906126d29190613d3f565b905083811015612725576126e581613691565b6126ee85613691565b6040516020016126ff929190613ee4565b60408051601f198184030181529082905262461bcd60e51b82526107a491600401614056565b60fb5460405163a9059cbb60e01b81526001600160a01b039182166004820152602481018690529086169063a9059cbb90604401602060405180830381600087803b15801561277357600080fd5b505af1158015612787573d6000803e3d6000fd5b505050506040513d601f19601f820116820180604052508101906127ab9190613d09565b5092949350505050565b6001600160a01b03163b151590565b60fe548015806127dd5750816127db60018361428a565b105b1561282a5760006127ee828461428a565b6127f990600161423f565b905060005b818160ff1610156128275760fe805460010181556000528061281f816142ff565b9150506127fe565b50505b8260fe838154811061283e5761283e614375565b6000918252602091829020835160069092020180546001600160a01b039092166001600160a01b031990921691909117815582820151600182015560408084015160028301556060808501516003840155608080860151600485015560a0808701516005909501805460c09889015115156101000261ff00199715159790971661ffff19909116179590951790945588519489015189840151928a0151918a0151948a0151968a015193517fc7d6a10819f5d6f3fd2acf9d38519fb9ca604adcf565d719841b60c161c673019761291e978b9790969395949390926141cb565b60405180910390a1505050565b610f7a8133613797565b61293f8282611b1e565b610e995760008281526065602090815260408083206001600160a01b03851684529091529020805460ff191660011790556129773390565b6001600160a01b0316816001600160a01b0316837f2f8788117e7eff1d82e926ec794901d17c78024a50270940304540a733656f0d60405160405180910390a45050565b6129c58282611b1e565b15610e995760008281526065602090815260408083206001600160a01b0385168085529252808320805460ff1916905551339285917ff6391f5c32d9c69d2a47ea670b442974b53935d1edc7fd64eb21e047a839171b9190a45050565b7f189ab7a9244df0848122154315af71fe140f3db0fe014031783b0946b8c9d2e3610e998161292b565b7f4910fdfa16fed3260ed0e7147f7cc6da11a60208b5b9406d12a635614ffd91435460ff1615612a7f57610e1a836137d5565b826001600160a01b03166352d1902d6040518163ffffffff1660e01b815260040160206040518083038186803b158015612ab857600080fd5b505afa925050508015612ae8575060408051601f3d908101601f19168201909252612ae591810190613d3f565b60015b612b4b5760405162461bcd60e51b815260206004820152602e60248201527f45524331393637557067726164653a206e657720696d706c656d656e7461746960448201526d6f6e206973206e6f74205555505360901b60648201526084016107a4565b6000805160206143e58339815191528114612bba5760405162461bcd60e51b815260206004820152602960248201527f45524331393637557067726164653a20756e737570706f727465642070726f786044820152681a58589b195555525160ba1b60648201526084016107a4565b50610e1a838383613871565b6121f4600080612d13565b600054610100900460ff166121f45760405162461bcd60e51b815260206004820152602b60248201527f496e697469616c697a61626c653a20636f6e7472616374206973206e6f74206960448201526a6e697469616c697a696e6760a81b60648201526084016107a4565b6000612c4661238e565b905060005b81518160ff161015610e99576000828260ff1681518110612c6e57612c6e614375565b602002602001015190508060c0015115612d00578051604051633bd73ee360e21b81523060048201526001600160a01b039091169063ef5cfb8c90602401602060405180830381600087803b158015612cc657600080fd5b505af1158015612cda573d6000803e3d6000fd5b505050506040513d601f19601f82011682018060405250810190612cfe9190613d3f565b505b5080612d0b816142ff565b915050612c4b565b6000612da661010060009054906101000a90046001600160a01b03166001600160a01b031663890a8c4f6040518163ffffffff1660e01b815260040160206040518083038186803b158015612d6757600080fd5b505afa158015612d7b573d6000803e3d6000fd5b505050506040513d601f19601f82011682018060405250810190612d9f9190613d3f565b600461389c565b9050612db2828261428a565b90506000612dbe61238e565b60fc546040516370a0823160e01b81523060048201529192506000916001600160a01b03909116906370a082319060240160206040518083038186803b158015612e0757600080fd5b505afa158015612e1b573d6000803e3d6000fd5b505050506040513d601f19601f82011682018060405250810190612e3f9190613d3f565b90506000805b83518160ff16101561303f57838160ff1681518110612e6657612e66614375565b602002602001015160a00151612e7b5761302d565b838160ff1681518110612e9057612e90614375565b60200260200101516040015160001415612f6157838160ff1681518110612eb957612eb9614375565b60209081029190910101515160fc5460405163f6f6b88160e01b81526001600160a01b039283169263f6f6b88192612efe929116906000903090600190600401613fde565b602060405180830381600087803b158015612f1857600080fd5b505af1158015612f2c573d6000803e3d6000fd5b505050506040513d601f19601f82011682018060405250810190612f509190613d3f565b612f5a908461423f565b925061302d565b838160ff1681518110612f7657612f76614375565b6020026020010151600001516001600160a01b031663a3673b386040518163ffffffff1660e01b815260040160206040518083038186803b158015612fba57600080fd5b505afa158015612fce573d6000803e3d6000fd5b505050506040513d601f19601f82011682018060405250810190612ff29190613d3f565b612ffc908461423f565b9250838160ff168151811061301357613013614375565b6020026020010151604001518261302a919061423f565b91505b80613037816142ff565b915050612e45565b5060fc546001600160a01b03878116911614156130c957848210156130bc5760405162461bcd60e51b815260206004820152602d60248201527f547279696e67207769746864726177206d6f7265207468616e206c697175696460448201526c69747920617661696c61626c6560981b60648201526084016107a4565b6130c6858361428a565b91505b6000835167ffffffffffffffff8111156130e5576130e561438b565b60405190808252806020026020018201604052801561313057816020015b60408051606081018252600080825260208083018290529282015282526000199092019101816131035790505b5090506000805b85518160ff1610156133d757858160ff168151811061315857613158614375565b602002602001015160a0015161316d576133c5565b6000868260ff168151811061318457613184614375565b602002602001015160400151600014156131a0575060006131da565b84878360ff16815181106131b6576131b6614375565b602002602001015160400151876131cd919061426b565b6131d79190614257565b90505b6000878360ff16815181106131f1576131f1614375565b6020026020010151600001516001600160a01b031663a3673b386040518163ffffffff1660e01b815260040160206040518083038186803b15801561323557600080fd5b505afa158015613249573d6000803e3d6000fd5b505050506040513d601f19601f8201168201806040525081019061326d9190613d3f565b90508082141561327e5750506133c5565b8082101561334157878360ff168151811061329b5761329b614375565b60209081029190910101515160fc546001600160a01b039182169163f6f6b88191166132c7858561428a565b3060006040518563ffffffff1660e01b81526004016132e99493929190613fde565b602060405180830381600087803b15801561330357600080fd5b505af1158015613317573d6000803e3d6000fd5b505050506040513d601f19601f8201168201806040525081019061333b9190613d3f565b506133c2565b6040518060600160405280600115158152602001898560ff168151811061336a5761336a614375565b6020026020010151600001516001600160a01b031681526020018284613390919061428a565b815250858560ff16815181106133a8576133a8614375565b602002602001018190525083806133be906142ff565b9450505b50505b806133cf816142ff565b915050613137565b5060005b8160ff168160ff1610156135c5576000838260ff168151811061340057613400614375565b60200260200101516020015190506000848360ff168151811061342557613425614375565b602090810291909101015160409081015160fc5491516370a0823160e01b81523060048201529092506000916001600160a01b0316906370a082319060240160206040518083038186803b15801561347c57600080fd5b505afa158015613490573d6000803e3d6000fd5b505050506040513d601f19601f820116820180604052508101906134b49190613d3f565b9050818110156134c2578091505b60fc5460405163a9059cbb60e01b81526001600160a01b038581166004830152602482018590529091169063a9059cbb90604401602060405180830381600087803b15801561351057600080fd5b505af1158015613524573d6000803e3d6000fd5b505050506040513d601f19601f820116820180604052508101906135489190613d09565b5060fc546040516356e4bb9760e11b81526001600160a01b039182166004820152602481018490529084169063adc9772e90604401600060405180830381600087803b15801561359757600080fd5b505af11580156135ab573d6000803e3d6000fd5b5050505050505080806135bd906142ff565b9150506133db565b50610100546040805163890a8c4f60e01b8152905188926001600160a01b03169163890a8c4f916004808301926020929190829003018186803b15801561360b57600080fd5b505afa15801561361f573d6000803e3d6000fd5b505050506040513d601f19601f820116820180604052508101906136439190613d3f565b101561149f5760405162461bcd60e51b815260206004820152601a60248201527f504d3a204e4156206c657373207468616e20657870656374656400000000000060448201526064016107a4565b6060816136b55750506040805180820190915260018152600360fc1b602082015290565b8160005b81156136df57806136c9816142e4565b91506136d89050600a83614257565b91506136b9565b60008167ffffffffffffffff8111156136fa576136fa61438b565b6040519080825280601f01601f191660200182016040528015613724576020820181803683370190505b5090505b841561378f5761373960018361428a565b9150613746600a8661431f565b61375190603061423f565b60f81b81838151811061376657613766614375565b60200101906001600160f81b031916908160001a905350613788600a86614257565b9450613728565b949350505050565b6137a18282611b1e565b610e99576137b9816001600160a01b031660146138c6565b6137c48360206138c6565b6040516020016126ff929190613f69565b6001600160a01b0381163b6138425760405162461bcd60e51b815260206004820152602d60248201527f455243313936373a206e657720696d706c656d656e746174696f6e206973206e60448201526c1bdd08184818dbdb9d1c9858dd609a1b60648201526084016107a4565b6000805160206143e583398151915280546001600160a01b0319166001600160a01b0392909216919091179055565b61387a83613a62565b6000825111806138875750805b15610e1a576138968383613aa2565b50505050565b60006127106138ab838261428a565b6138b5908561426b565b6138bf9190614257565b9392505050565b606060006138d583600261426b565b6138e090600261423f565b67ffffffffffffffff8111156138f8576138f861438b565b6040519080825280601f01601f191660200182016040528015613922576020820181803683370190505b509050600360fc1b8160008151811061393d5761393d614375565b60200101906001600160f81b031916908160001a905350600f60fb1b8160018151811061396c5761396c614375565b60200101906001600160f81b031916908160001a905350600061399084600261426b565b61399b90600161423f565b90505b6001811115613a13576f181899199a1a9b1b9c1cb0b131b232b360811b85600f16601081106139cf576139cf614375565b1a60f81b8282815181106139e5576139e5614375565b60200101906001600160f81b031916908160001a90535060049490941c93613a0c816142cd565b905061399e565b5083156138bf5760405162461bcd60e51b815260206004820181905260248201527f537472696e67733a20686578206c656e67746820696e73756666696369656e7460448201526064016107a4565b613a6b816137d5565b6040516001600160a01b038216907fbc7cd75a20ee27fd9adebab32041f755214dbc6bffa90cc0225b39da2e5c2d3b90600090a250565b60606001600160a01b0383163b613b0a5760405162461bcd60e51b815260206004820152602660248201527f416464726573733a2064656c65676174652063616c6c20746f206e6f6e2d636f6044820152651b9d1c9858dd60d21b60648201526084016107a4565b600080846001600160a01b031684604051613b259190613ec8565b600060405180830381855af49150503d8060008114613b60576040519150601f19603f3d011682016040523d82523d6000602084013e613b65565b606091505b5091509150613b8d828260405180606001604052806027815260200161440560279139613b96565b95945050505050565b60608315613ba55750816138bf565b825115613bb55782518084602001fd5b8160405162461bcd60e51b81526004016107a49190614056565b600060208284031215613be157600080fd5b81356138bf816143a1565b60008060408385031215613bff57600080fd5b8235613c0a816143a1565b915060208381013567ffffffffffffffff80821115613c2857600080fd5b818601915086601f830112613c3c57600080fd5b813581811115613c4e57613c4e61438b565b613c60601f8201601f1916850161420e565b91508082528784828501011115613c7657600080fd5b80848401858401376000848284010152508093505050509250929050565b60008060208385031215613ca757600080fd5b823567ffffffffffffffff80821115613cbf57600080fd5b818501915085601f830112613cd357600080fd5b813581811115613ce257600080fd5b86602060e083028501011115613cf757600080fd5b60209290920196919550909350505050565b600060208284031215613d1b57600080fd5b81516138bf816143b6565b600060208284031215613d3857600080fd5b5035919050565b600060208284031215613d5157600080fd5b5051919050565b60008060408385031215613d6b57600080fd5b823591506020830135613d7d816143a1565b809150509250929050565b600060208284031215613d9a57600080fd5b81356001600160e01b0319811681146138bf57600080fd5b60008060408385031215613dc557600080fd5b8235613dd0816143a1565b946020939093013593505050565b600060e08284031215613df057600080fd5b60405160e0810181811067ffffffffffffffff82111715613e1357613e1361438b565b6040528235613e21816143a1565b808252506020830135602082015260408301356040820152606083013560608201526080830135608082015260a0830135613e5b816143b6565b60a082015260c0830135613e6e816143b6565b60c08201529392505050565b80516001600160a01b031682526020808201519083015260408082015190830152606080820151908301526080808201519083015260a08181015115159083015260c0908101511515910152565b60008251613eda8184602087016142a1565b9190910192915050565b7f496e20706f7274666f6c696f4d616e61676572206e6f7420656e6f7567682066815274037b9103a3930b739b332b9102fb0b6b7bab73a1d1605d1b602082015260008351613f3a8160358501602088016142a1565b620101e160ed1b6035918401918201528351613f5d8160388401602088016142a1565b01603801949350505050565b7f416363657373436f6e74726f6c3a206163636f756e7420000000000000000000815260008351613fa18160178501602088016142a1565b7001034b99036b4b9b9b4b733903937b6329607d1b6017918401918201528351613fd28160288401602088016142a1565b01602801949350505050565b6001600160a01b039485168152602081019390935292166040820152901515606082015260800190565b6020808252825182820181905260009190848201906040850190845b8181101561404a57614037838551613e7a565b9284019260e09290920191600101614024565b50909695505050505050565b60208152600082518060208401526140758160408501602087016142a1565b601f01601f19169190910160400192915050565b6020808252601b908201527f43616c6c6572206973206e6f74207468652045584348414e4745520000000000604082015260600190565b6020808252602c908201527f46756e6374696f6e206d7573742062652063616c6c6564207468726f7567682060408201526b19195b1959d85d1958d85b1b60a21b606082015260800190565b6020808252602c908201527f46756e6374696f6e206d7573742062652063616c6c6564207468726f7567682060408201526b6163746976652070726f787960a01b606082015260800190565b6020808252601490820152735265737472696374656420746f2061646d696e7360601b604082015260600190565b60208082526018908201527f5a65726f2061646472657373206e6f7420616c6c6f7765640000000000000000604082015260600190565b60e081016107118284613e7a565b9788526001600160a01b0396909616602088015260408701949094526060860192909252608085015260a0840152151560c0830152151560e08201526101000190565b604051601f8201601f1916810167ffffffffffffffff811182821017156142375761423761438b565b604052919050565b6000821982111561425257614252614333565b500190565b60008261426657614266614349565b500490565b600081600019048311821515161561428557614285614333565b500290565b60008282101561429c5761429c614333565b500390565b60005b838110156142bc5781810151838201526020016142a4565b838111156138965750506000910152565b6000816142dc576142dc614333565b506000190190565b60006000198214156142f8576142f8614333565b5060010190565b600060ff821660ff81141561431657614316614333565b60010192915050565b60008261432e5761432e614349565b500690565b634e487b7160e01b600052601160045260246000fd5b634e487b7160e01b600052601260045260246000fd5b634e487b7160e01b600052603160045260246000fd5b634e487b7160e01b600052603260045260246000fd5b634e487b7160e01b600052604160045260246000fd5b6001600160a01b0381168114610f7a57600080fd5b8015158114610f7a57600080fdfe3eb675f159e6ca6cf5de6bfbbc8c4521cfd428f5e9166e51094d5898504caf2d360894a13ba1a3210667c828492db98dca3e2076cc3735a920a3ca505d382bbc416464726573733a206c6f772d6c6576656c2064656c65676174652063616c6c206661696c6564a2646970667358221220bc9454d6e6486509575959e44872d4d4d09ee040c6b0c34628d85c88d9b6579d64736f6c63430008060033",
  "devdoc": {
    "kind": "dev",
    "methods": {
      "constructor": {
        "custom:oz-upgrades-unsafe-allow": "constructor"
      },
      "getRoleAdmin(bytes32)": {
        "details": "Returns the admin role that controls `role`. See {grantRole} and {revokeRole}. To change a role's admin, use {_setRoleAdmin}."
      },
      "grantRole(bytes32,address)": {
        "details": "Grants `role` to `account`. If `account` had not been already granted `role`, emits a {RoleGranted} event. Requirements: - the caller must have ``role``'s admin role. May emit a {RoleGranted} event."
      },
      "hasRole(bytes32,address)": {
        "details": "Returns `true` if `account` has been granted `role`."
      },
      "proxiableUUID()": {
        "details": "Implementation of the ERC1822 {proxiableUUID} function. This returns the storage slot used by the implementation. It is used to validate that the this implementation remains valid after an upgrade. IMPORTANT: A proxy pointing at a proxiable contract should not be considered proxiable itself, because this risks bricking a proxy that upgrades to it, by delegating to itself until out of gas. Thus it is critical that this function revert if invoked through a proxy. This is guaranteed by the `notDelegated` modifier."
      },
      "renounceRole(bytes32,address)": {
        "details": "Revokes `role` from the calling account. Roles are often managed via {grantRole} and {revokeRole}: this function's purpose is to provide a mechanism for accounts to lose their privileges if they are compromised (such as when a trusted device is misplaced). If the calling account had been revoked `role`, emits a {RoleRevoked} event. Requirements: - the caller must be `account`. May emit a {RoleRevoked} event."
      },
      "revokeRole(bytes32,address)": {
        "details": "Revokes `role` from `account`. If `account` had been granted `role`, emits a {RoleRevoked} event. Requirements: - the caller must have ``role``'s admin role. May emit a {RoleRevoked} event."
      },
      "supportsInterface(bytes4)": {
        "details": "See {IERC165-supportsInterface}."
      },
      "upgradeTo(address)": {
        "details": "Upgrade the implementation of the proxy to `newImplementation`. Calls {_authorizeUpgrade}. Emits an {Upgraded} event."
      },
      "upgradeToAndCall(address,bytes)": {
        "details": "Upgrade the implementation of the proxy to `newImplementation`, and subsequently execute the function call encoded in `data`. Calls {_authorizeUpgrade}. Emits an {Upgraded} event."
      }
    },
    "version": 1
  },
  "userdoc": {
    "kind": "user",
    "methods": {},
    "version": 1
  },
  "storageLayout": {
    "storage": [
      {
        "astId": 808,
        "contract": "contracts/PortfolioManager.sol:PortfolioManager",
        "label": "_initialized",
        "offset": 0,
        "slot": "0",
        "type": "t_uint8"
      },
      {
        "astId": 811,
        "contract": "contracts/PortfolioManager.sol:PortfolioManager",
        "label": "_initializing",
        "offset": 1,
        "slot": "0",
        "type": "t_bool"
      },
      {
        "astId": 2589,
        "contract": "contracts/PortfolioManager.sol:PortfolioManager",
        "label": "__gap",
        "offset": 0,
        "slot": "1",
        "type": "t_array(t_uint256)50_storage"
      },
      {
        "astId": 2919,
        "contract": "contracts/PortfolioManager.sol:PortfolioManager",
        "label": "__gap",
        "offset": 0,
        "slot": "51",
        "type": "t_array(t_uint256)50_storage"
      },
      {
        "astId": 39,
        "contract": "contracts/PortfolioManager.sol:PortfolioManager",
        "label": "_roles",
        "offset": 0,
        "slot": "101",
        "type": "t_mapping(t_bytes32,t_struct(RoleData)34_storage)"
      },
      {
        "astId": 338,
        "contract": "contracts/PortfolioManager.sol:PortfolioManager",
        "label": "__gap",
        "offset": 0,
        "slot": "102",
        "type": "t_array(t_uint256)49_storage"
      },
      {
        "astId": 790,
        "contract": "contracts/PortfolioManager.sol:PortfolioManager",
        "label": "__gap",
        "offset": 0,
        "slot": "151",
        "type": "t_array(t_uint256)50_storage"
      },
      {
        "astId": 1087,
        "contract": "contracts/PortfolioManager.sol:PortfolioManager",
        "label": "__gap",
        "offset": 0,
        "slot": "201",
        "type": "t_array(t_uint256)50_storage"
      },
      {
        "astId": 10639,
        "contract": "contracts/PortfolioManager.sol:PortfolioManager",
        "label": "exchanger",
        "offset": 0,
        "slot": "251",
        "type": "t_address"
      },
      {
        "astId": 10642,
        "contract": "contracts/PortfolioManager.sol:PortfolioManager",
        "label": "asset",
        "offset": 0,
        "slot": "252",
        "type": "t_contract(IERC20)3596"
      },
      {
        "astId": 10646,
        "contract": "contracts/PortfolioManager.sol:PortfolioManager",
        "label": "strategyWeightPositions",
        "offset": 0,
        "slot": "253",
        "type": "t_mapping(t_address,t_uint256)"
      },
      {
        "astId": 10650,
        "contract": "contracts/PortfolioManager.sol:PortfolioManager",
        "label": "strategyWeights",
        "offset": 0,
        "slot": "254",
        "type": "t_array(t_struct(StrategyWeight)15148_storage)dyn_storage"
      },
      {
        "astId": 10653,
        "contract": "contracts/PortfolioManager.sol:PortfolioManager",
        "label": "cashStrategy",
        "offset": 0,
        "slot": "255",
        "type": "t_contract(IStrategy)15431"
      },
      {
        "astId": 10656,
        "contract": "contracts/PortfolioManager.sol:PortfolioManager",
        "label": "m2m",
        "offset": 0,
        "slot": "256",
        "type": "t_contract(IMark2Market)15117"
      },
      {
        "astId": 10658,
        "contract": "contracts/PortfolioManager.sol:PortfolioManager",
        "label": "totalRiskFactor",
        "offset": 0,
        "slot": "257",
        "type": "t_uint256"
      }
    ],
    "types": {
      "t_address": {
        "encoding": "inplace",
        "label": "address",
        "numberOfBytes": "20"
      },
      "t_array(t_struct(StrategyWeight)15148_storage)dyn_storage": {
        "base": "t_struct(StrategyWeight)15148_storage",
        "encoding": "dynamic_array",
        "label": "struct IPortfolioManager.StrategyWeight[]",
        "numberOfBytes": "32"
      },
      "t_array(t_uint256)49_storage": {
        "base": "t_uint256",
        "encoding": "inplace",
        "label": "uint256[49]",
        "numberOfBytes": "1568"
      },
      "t_array(t_uint256)50_storage": {
        "base": "t_uint256",
        "encoding": "inplace",
        "label": "uint256[50]",
        "numberOfBytes": "1600"
      },
      "t_bool": {
        "encoding": "inplace",
        "label": "bool",
        "numberOfBytes": "1"
      },
      "t_bytes32": {
        "encoding": "inplace",
        "label": "bytes32",
        "numberOfBytes": "32"
      },
      "t_contract(IERC20)3596": {
        "encoding": "inplace",
        "label": "contract IERC20",
        "numberOfBytes": "20"
      },
      "t_contract(IMark2Market)15117": {
        "encoding": "inplace",
        "label": "contract IMark2Market",
        "numberOfBytes": "20"
      },
      "t_contract(IStrategy)15431": {
        "encoding": "inplace",
        "label": "contract IStrategy",
        "numberOfBytes": "20"
      },
      "t_mapping(t_address,t_bool)": {
        "encoding": "mapping",
        "key": "t_address",
        "label": "mapping(address => bool)",
        "numberOfBytes": "32",
        "value": "t_bool"
      },
      "t_mapping(t_address,t_uint256)": {
        "encoding": "mapping",
        "key": "t_address",
        "label": "mapping(address => uint256)",
        "numberOfBytes": "32",
        "value": "t_uint256"
      },
      "t_mapping(t_bytes32,t_struct(RoleData)34_storage)": {
        "encoding": "mapping",
        "key": "t_bytes32",
        "label": "mapping(bytes32 => struct AccessControlUpgradeable.RoleData)",
        "numberOfBytes": "32",
        "value": "t_struct(RoleData)34_storage"
      },
      "t_struct(RoleData)34_storage": {
        "encoding": "inplace",
        "label": "struct AccessControlUpgradeable.RoleData",
        "members": [
          {
            "astId": 31,
            "contract": "contracts/PortfolioManager.sol:PortfolioManager",
            "label": "members",
            "offset": 0,
            "slot": "0",
            "type": "t_mapping(t_address,t_bool)"
          },
          {
            "astId": 33,
            "contract": "contracts/PortfolioManager.sol:PortfolioManager",
            "label": "adminRole",
            "offset": 0,
            "slot": "1",
            "type": "t_bytes32"
          }
        ],
        "numberOfBytes": "64"
      },
      "t_struct(StrategyWeight)15148_storage": {
        "encoding": "inplace",
        "label": "struct IPortfolioManager.StrategyWeight",
        "members": [
          {
            "astId": 15135,
            "contract": "contracts/PortfolioManager.sol:PortfolioManager",
            "label": "strategy",
            "offset": 0,
            "slot": "0",
            "type": "t_address"
          },
          {
            "astId": 15137,
            "contract": "contracts/PortfolioManager.sol:PortfolioManager",
            "label": "minWeight",
            "offset": 0,
            "slot": "1",
            "type": "t_uint256"
          },
          {
            "astId": 15139,
            "contract": "contracts/PortfolioManager.sol:PortfolioManager",
            "label": "targetWeight",
            "offset": 0,
            "slot": "2",
            "type": "t_uint256"
          },
          {
            "astId": 15141,
            "contract": "contracts/PortfolioManager.sol:PortfolioManager",
            "label": "maxWeight",
            "offset": 0,
            "slot": "3",
            "type": "t_uint256"
          },
          {
            "astId": 15143,
            "contract": "contracts/PortfolioManager.sol:PortfolioManager",
            "label": "riskFactor",
            "offset": 0,
            "slot": "4",
            "type": "t_uint256"
          },
          {
            "astId": 15145,
            "contract": "contracts/PortfolioManager.sol:PortfolioManager",
            "label": "enabled",
            "offset": 0,
            "slot": "5",
            "type": "t_bool"
          },
          {
            "astId": 15147,
            "contract": "contracts/PortfolioManager.sol:PortfolioManager",
            "label": "enabledReward",
            "offset": 1,
            "slot": "5",
            "type": "t_bool"
          }
        ],
        "numberOfBytes": "192"
      },
      "t_uint256": {
        "encoding": "inplace",
        "label": "uint256",
        "numberOfBytes": "32"
      },
      "t_uint8": {
        "encoding": "inplace",
        "label": "uint8",
        "numberOfBytes": "1"
      }
    }
  }
}