{
  "address": "0xB8F254F316FFa6d53969F8D4b01CAC25Ac8A2d08",
  "abi": [
    {
      "inputs": [],
      "stateMutability": "nonpayable",
      "type": "constructor"
    },
    {
      "anonymous": false,
      "inputs": [
        {
          "indexed": false,
          "internalType": "address",
          "name": "previousAdmin",
          "type": "address"
        },
        {
          "indexed": false,
          "internalType": "address",
          "name": "newAdmin",
          "type": "address"
        }
      ],
      "name": "AdminChanged",
      "type": "event"
    },
    {
      "anonymous": false,
      "inputs": [
        {
          "indexed": true,
          "internalType": "address",
          "name": "beacon",
          "type": "address"
        }
      ],
      "name": "BeaconUpgraded",
      "type": "event"
    },
    {
      "anonymous": false,
      "inputs": [
        {
          "indexed": false,
          "internalType": "uint8",
          "name": "version",
          "type": "uint8"
        }
      ],
      "name": "Initialized",
      "type": "event"
    },
    {
      "anonymous": false,
      "inputs": [
        {
          "indexed": false,
          "internalType": "string",
          "name": "label",
          "type": "string"
        },
        {
          "indexed": false,
          "internalType": "uint256",
          "name": "amount",
          "type": "uint256"
        },
        {
          "indexed": false,
          "internalType": "uint256",
          "name": "fee",
          "type": "uint256"
        },
        {
          "indexed": false,
          "internalType": "address",
          "name": "sender",
          "type": "address"
        }
      ],
      "name": "MintBurn",
      "type": "event"
    },
    {
      "anonymous": false,
      "inputs": [
        {
          "indexed": false,
          "internalType": "uint256",
          "name": "nextPayoutTime",
          "type": "uint256"
        }
      ],
      "name": "NextPayoutTime",
      "type": "event"
    },
    {
      "anonymous": false,
      "inputs": [
        {
          "indexed": false,
          "internalType": "address",
          "name": "account",
          "type": "address"
        }
      ],
      "name": "Paused",
      "type": "event"
    },
    {
      "anonymous": false,
      "inputs": [
        {
          "indexed": false,
          "internalType": "int256",
          "name": "profit",
          "type": "int256"
        },
        {
          "indexed": false,
          "internalType": "uint256",
          "name": "newLiquidityIndex",
          "type": "uint256"
        }
      ],
      "name": "PayoutEvent",
      "type": "event"
    },
    {
      "anonymous": false,
      "inputs": [
        {
          "indexed": true,
          "internalType": "bytes32",
          "name": "role",
          "type": "bytes32"
        },
        {
          "indexed": true,
          "internalType": "bytes32",
          "name": "previousAdminRole",
          "type": "bytes32"
        },
        {
          "indexed": true,
          "internalType": "bytes32",
          "name": "newAdminRole",
          "type": "bytes32"
        }
      ],
      "name": "RoleAdminChanged",
      "type": "event"
    },
    {
      "anonymous": false,
      "inputs": [
        {
          "indexed": true,
          "internalType": "bytes32",
          "name": "role",
          "type": "bytes32"
        },
        {
          "indexed": true,
          "internalType": "address",
          "name": "account",
          "type": "address"
        },
        {
          "indexed": true,
          "internalType": "address",
          "name": "sender",
          "type": "address"
        }
      ],
      "name": "RoleGranted",
      "type": "event"
    },
    {
      "anonymous": false,
      "inputs": [
        {
          "indexed": true,
          "internalType": "bytes32",
          "name": "role",
          "type": "bytes32"
        },
        {
          "indexed": true,
          "internalType": "address",
          "name": "account",
          "type": "address"
        },
        {
          "indexed": true,
          "internalType": "address",
          "name": "sender",
          "type": "address"
        }
      ],
      "name": "RoleRevoked",
      "type": "event"
    },
    {
      "anonymous": false,
      "inputs": [
        {
          "indexed": false,
          "internalType": "address",
          "name": "account",
          "type": "address"
        }
      ],
      "name": "Unpaused",
      "type": "event"
    },
    {
      "anonymous": false,
      "inputs": [
        {
          "indexed": true,
          "internalType": "address",
          "name": "implementation",
          "type": "address"
        }
      ],
      "name": "Upgraded",
      "type": "event"
    },
    {
      "inputs": [],
      "name": "DEFAULT_ADMIN_ROLE",
      "outputs": [
        {
          "internalType": "bytes32",
          "name": "",
          "type": "bytes32"
        }
      ],
      "stateMutability": "view",
      "type": "function"
    },
    {
      "inputs": [],
      "name": "FREE_RIDER_ROLE",
      "outputs": [
        {
          "internalType": "bytes32",
          "name": "",
          "type": "bytes32"
        }
      ],
      "stateMutability": "view",
      "type": "function"
    },
    {
      "inputs": [],
      "name": "INSURED_ROLE",
      "outputs": [
        {
          "internalType": "bytes32",
          "name": "",
          "type": "bytes32"
        }
      ],
      "stateMutability": "view",
      "type": "function"
    },
    {
      "inputs": [],
      "name": "PORTFOLIO_AGENT_ROLE",
      "outputs": [
        {
          "internalType": "bytes32",
          "name": "",
          "type": "bytes32"
        }
      ],
      "stateMutability": "view",
      "type": "function"
    },
    {
      "inputs": [],
      "name": "UNIT_ROLE",
      "outputs": [
        {
          "internalType": "bytes32",
          "name": "",
          "type": "bytes32"
        }
      ],
      "stateMutability": "view",
      "type": "function"
    },
    {
      "inputs": [],
      "name": "asset",
      "outputs": [
        {
          "internalType": "contract IERC20",
          "name": "",
          "type": "address"
        }
      ],
      "stateMutability": "view",
      "type": "function"
    },
    {
      "inputs": [],
      "name": "changeAdminRoles",
      "outputs": [],
      "stateMutability": "nonpayable",
      "type": "function"
    },
    {
      "inputs": [],
      "name": "checkWithdraw",
      "outputs": [],
      "stateMutability": "view",
      "type": "function"
    },
    {
      "inputs": [
        {
          "components": [
            {
              "internalType": "address",
              "name": "inputTokenAddress",
              "type": "address"
            },
            {
              "internalType": "address",
              "name": "outputTokenAddress",
              "type": "address"
            },
            {
              "internalType": "uint256",
              "name": "amountIn",
              "type": "uint256"
            },
            {
              "internalType": "bytes",
              "name": "data",
              "type": "bytes"
            }
          ],
          "internalType": "struct IInsuranceExchange.SwapData",
          "name": "swapData",
          "type": "tuple"
        },
        {
          "internalType": "uint256",
          "name": "assetAmount",
          "type": "uint256"
        },
        {
          "internalType": "address",
          "name": "to",
          "type": "address"
        }
      ],
      "name": "compensate",
      "outputs": [],
      "stateMutability": "nonpayable",
      "type": "function"
    },
    {
      "inputs": [
        {
          "internalType": "bytes32",
          "name": "role",
          "type": "bytes32"
        }
      ],
      "name": "getRoleAdmin",
      "outputs": [
        {
          "internalType": "bytes32",
          "name": "",
          "type": "bytes32"
        }
      ],
      "stateMutability": "view",
      "type": "function"
    },
    {
      "inputs": [],
      "name": "getTwapPrice",
      "outputs": [
        {
          "internalType": "uint256",
          "name": "",
          "type": "uint256"
        }
      ],
      "stateMutability": "view",
      "type": "function"
    },
    {
      "inputs": [
        {
          "internalType": "bytes32",
          "name": "role",
          "type": "bytes32"
        },
        {
          "internalType": "address",
          "name": "account",
          "type": "address"
        }
      ],
      "name": "grantRole",
      "outputs": [],
      "stateMutability": "nonpayable",
      "type": "function"
    },
    {
      "inputs": [
        {
          "internalType": "bytes32",
          "name": "role",
          "type": "bytes32"
        },
        {
          "internalType": "address",
          "name": "account",
          "type": "address"
        }
      ],
      "name": "hasRole",
      "outputs": [
        {
          "internalType": "bool",
          "name": "",
          "type": "bool"
        }
      ],
      "stateMutability": "view",
      "type": "function"
    },
    {
      "inputs": [],
      "name": "initialize",
      "outputs": [],
      "stateMutability": "nonpayable",
      "type": "function"
    },
    {
      "inputs": [],
      "name": "lastBlockNumber",
      "outputs": [
        {
          "internalType": "uint256",
          "name": "",
          "type": "uint256"
        }
      ],
      "stateMutability": "view",
      "type": "function"
    },
    {
      "inputs": [
        {
          "components": [
            {
              "internalType": "uint256",
              "name": "amount",
              "type": "uint256"
            }
          ],
          "internalType": "struct IInsuranceExchange.InputMint",
          "name": "input",
          "type": "tuple"
        }
      ],
      "name": "mint",
      "outputs": [],
      "stateMutability": "nonpayable",
      "type": "function"
    },
    {
      "inputs": [],
      "name": "mintFee",
      "outputs": [
        {
          "internalType": "uint256",
          "name": "",
          "type": "uint256"
        }
      ],
      "stateMutability": "view",
      "type": "function"
    },
    {
      "inputs": [],
      "name": "mintFeeDenominator",
      "outputs": [
        {
          "internalType": "uint256",
          "name": "",
          "type": "uint256"
        }
      ],
      "stateMutability": "view",
      "type": "function"
    },
    {
      "inputs": [],
      "name": "nextPayoutTime",
      "outputs": [
        {
          "internalType": "uint256",
          "name": "",
          "type": "uint256"
        }
      ],
      "stateMutability": "view",
      "type": "function"
    },
    {
      "inputs": [],
      "name": "odosRouter",
      "outputs": [
        {
          "internalType": "address",
          "name": "",
          "type": "address"
        }
      ],
      "stateMutability": "view",
      "type": "function"
    },
    {
      "inputs": [],
      "name": "paused",
      "outputs": [
        {
          "internalType": "bool",
          "name": "",
          "type": "bool"
        }
      ],
      "stateMutability": "view",
      "type": "function"
    },
    {
      "inputs": [],
      "name": "payout",
      "outputs": [],
      "stateMutability": "nonpayable",
      "type": "function"
    },
    {
      "inputs": [],
      "name": "payoutPeriod",
      "outputs": [
        {
          "internalType": "uint256",
          "name": "",
          "type": "uint256"
        }
      ],
      "stateMutability": "view",
      "type": "function"
    },
    {
      "inputs": [],
      "name": "payoutTimeRange",
      "outputs": [
        {
          "internalType": "uint256",
          "name": "",
          "type": "uint256"
        }
      ],
      "stateMutability": "view",
      "type": "function"
    },
    {
      "inputs": [
        {
          "components": [
            {
              "internalType": "address",
              "name": "inputTokenAddress",
              "type": "address"
            },
            {
              "internalType": "address",
              "name": "outputTokenAddress",
              "type": "address"
            },
            {
              "internalType": "uint256",
              "name": "amountIn",
              "type": "uint256"
            },
            {
              "internalType": "bytes",
              "name": "data",
              "type": "bytes"
            }
          ],
          "internalType": "struct IInsuranceExchange.SwapData",
          "name": "swapData",
          "type": "tuple"
        }
      ],
      "name": "premium",
      "outputs": [],
      "stateMutability": "nonpayable",
      "type": "function"
    },
    {
      "inputs": [],
      "name": "proxiableUUID",
      "outputs": [
        {
          "internalType": "bytes32",
          "name": "",
          "type": "bytes32"
        }
      ],
      "stateMutability": "view",
      "type": "function"
    },
    {
      "inputs": [],
      "name": "rebase",
      "outputs": [
        {
          "internalType": "contract IRebaseToken",
          "name": "",
          "type": "address"
        }
      ],
      "stateMutability": "view",
      "type": "function"
    },
    {
      "inputs": [
        {
          "components": [
            {
              "internalType": "uint256",
              "name": "amount",
              "type": "uint256"
            }
          ],
          "internalType": "struct IInsuranceExchange.InputRedeem",
          "name": "input",
          "type": "tuple"
        }
      ],
      "name": "redeem",
      "outputs": [],
      "stateMutability": "nonpayable",
      "type": "function"
    },
    {
      "inputs": [],
      "name": "redeemFee",
      "outputs": [
        {
          "internalType": "uint256",
          "name": "",
          "type": "uint256"
        }
      ],
      "stateMutability": "view",
      "type": "function"
    },
    {
      "inputs": [],
      "name": "redeemFeeDenominator",
      "outputs": [
        {
          "internalType": "uint256",
          "name": "",
          "type": "uint256"
        }
      ],
      "stateMutability": "view",
      "type": "function"
    },
    {
      "inputs": [
        {
          "internalType": "bytes32",
          "name": "role",
          "type": "bytes32"
        },
        {
          "internalType": "address",
          "name": "account",
          "type": "address"
        }
      ],
      "name": "renounceRole",
      "outputs": [],
      "stateMutability": "nonpayable",
      "type": "function"
    },
    {
      "inputs": [],
      "name": "requestWaitPeriod",
      "outputs": [
        {
          "internalType": "uint256",
          "name": "",
          "type": "uint256"
        }
      ],
      "stateMutability": "view",
      "type": "function"
    },
    {
      "inputs": [],
      "name": "requestWithdraw",
      "outputs": [],
      "stateMutability": "nonpayable",
      "type": "function"
    },
    {
      "inputs": [
        {
          "internalType": "bytes32",
          "name": "role",
          "type": "bytes32"
        },
        {
          "internalType": "address",
          "name": "account",
          "type": "address"
        }
      ],
      "name": "revokeRole",
      "outputs": [],
      "stateMutability": "nonpayable",
      "type": "function"
    },
    {
      "inputs": [
        {
          "internalType": "uint256",
          "name": "_fee",
          "type": "uint256"
        },
        {
          "internalType": "uint256",
          "name": "_feeDenominator",
          "type": "uint256"
        }
      ],
      "name": "setMintFee",
      "outputs": [],
      "stateMutability": "nonpayable",
      "type": "function"
    },
    {
      "inputs": [
        {
          "internalType": "uint256",
          "name": "_nextPayoutTime",
          "type": "uint256"
        },
        {
          "internalType": "uint256",
          "name": "_payoutPeriod",
          "type": "uint256"
        },
        {
          "internalType": "uint256",
          "name": "_payoutTimeRange",
          "type": "uint256"
        }
      ],
      "name": "setPayoutTimes",
      "outputs": [],
      "stateMutability": "nonpayable",
      "type": "function"
    },
    {
      "inputs": [
        {
          "internalType": "uint256",
          "name": "_fee",
          "type": "uint256"
        },
        {
          "internalType": "uint256",
          "name": "_feeDenominator",
          "type": "uint256"
        }
      ],
      "name": "setRedeemFee",
      "outputs": [],
      "stateMutability": "nonpayable",
      "type": "function"
    },
    {
      "inputs": [
        {
          "internalType": "uint256",
          "name": "_swapSlippage",
          "type": "uint256"
        }
      ],
      "name": "setSwapSlippage",
      "outputs": [],
      "stateMutability": "nonpayable",
      "type": "function"
    },
    {
      "inputs": [
        {
          "components": [
            {
              "internalType": "address",
              "name": "asset",
              "type": "address"
            },
            {
              "internalType": "address",
              "name": "rebase",
              "type": "address"
            },
            {
              "internalType": "address",
              "name": "odosRouter",
              "type": "address"
            }
          ],
          "internalType": "struct InsuranceExchange.SetUpParams",
          "name": "params",
          "type": "tuple"
        }
      ],
      "name": "setUpParams",
      "outputs": [],
      "stateMutability": "nonpayable",
      "type": "function"
    },
    {
      "inputs": [
        {
          "internalType": "uint256",
          "name": "_requestWaitPeriod",
          "type": "uint256"
        },
        {
          "internalType": "uint256",
          "name": "_withdrawPeriod",
          "type": "uint256"
        }
      ],
      "name": "setWithdrawPeriod",
      "outputs": [],
      "stateMutability": "nonpayable",
      "type": "function"
    },
    {
      "inputs": [
        {
          "internalType": "bytes4",
          "name": "interfaceId",
          "type": "bytes4"
        }
      ],
      "name": "supportsInterface",
      "outputs": [
        {
          "internalType": "bool",
          "name": "",
          "type": "bool"
        }
      ],
      "stateMutability": "view",
      "type": "function"
    },
    {
      "inputs": [],
      "name": "swapSlippage",
      "outputs": [
        {
          "internalType": "uint256",
          "name": "",
          "type": "uint256"
        }
      ],
      "stateMutability": "view",
      "type": "function"
    },
    {
      "inputs": [
        {
          "internalType": "address",
          "name": "newImplementation",
          "type": "address"
        }
      ],
      "name": "upgradeTo",
      "outputs": [],
      "stateMutability": "nonpayable",
      "type": "function"
    },
    {
      "inputs": [
        {
          "internalType": "address",
          "name": "newImplementation",
          "type": "address"
        },
        {
          "internalType": "bytes",
          "name": "data",
          "type": "bytes"
        }
      ],
      "name": "upgradeToAndCall",
      "outputs": [],
      "stateMutability": "payable",
      "type": "function"
    },
    {
      "inputs": [],
      "name": "withdrawPeriod",
      "outputs": [
        {
          "internalType": "uint256",
          "name": "",
          "type": "uint256"
        }
      ],
      "stateMutability": "view",
      "type": "function"
    },
    {
      "inputs": [
        {
          "internalType": "address",
          "name": "",
          "type": "address"
        }
      ],
      "name": "withdrawRequests",
      "outputs": [
        {
          "internalType": "uint256",
          "name": "",
          "type": "uint256"
        }
      ],
      "stateMutability": "view",
      "type": "function"
    }
  ],
  "numDeployments": 3,
  "solcInputHash": "430f08687bd86a34833ab2ead1c76434",
  "bytecode": "0x60a0604052306080523480156200001557600080fd5b50600054610100900460ff1615808015620000375750600054600160ff909116105b8062000067575062000054306200014160201b62001ab71760201c565b15801562000067575060005460ff166001145b620000cf5760405162461bcd60e51b815260206004820152602e60248201527f496e697469616c697a61626c653a20636f6e747261637420697320616c72656160448201526d191e481a5b9a5d1a585b1a5e995960921b606482015260840160405180910390fd5b6000805460ff191660011790558015620000f3576000805461ff0019166101001790555b80156200013a576000805461ff0019169055604051600181527f7f26b83ff96e1f2b6a682f133852f6798a09c465da95921460cefb38474024989060200160405180910390a15b5062000150565b6001600160a01b03163b151590565b608051613c586200018860003960008181610a5d01528181610a9d01528181610bb301528181610bf30152610c820152613c586000f3fe60806040526004361061027d5760003560e01c80635f1af1ca1161014f578063af14052c116100c1578063d5171bff1161007a578063d5171bff14610735578063d547741f14610755578063e5d6752114610775578063eee2bfa014610795578063f3869e8d146107aa578063fa88dd15146107ca57600080fd5b8063af14052c1461069a578063b3423eec146106bb578063bc56bebf146106d0578063c12e90e9146106f0578063ce1aa76b14610707578063cecbbc071461071e57600080fd5b80638129fc1c116101135780638129fc1c146106015780638321928d1461061657806387bca2561461063757806391d148541461064e578063965fa21e1461066e578063a217fddf1461068557600080fd5b80635f1af1ca1461057357806363bd1d4a14610593578063645a5a97146105a85780636d8ebaa8146105c85780637559c329146105df57600080fd5b806338d52e0f116101f357806355f920a6116101ac57806355f920a6146104b95780635c975abb146104ed5780635d8658b1146105055780635d8b24061461051a5780635db07aee1461053a5780635dbd733a1461055157600080fd5b806338d52e0f146103e8578063497d91921461042157806349fe395a146104435780634f1ef2861461046357806352d1902d1461047657806352df49ec1461048b57600080fd5b8063248a9ca311610245578063248a9ca31461032c5780632552317c1461035c5780632f2ff15d14610373578063359792b21461039357806336568abe146103a85780633659cfe6146103c857600080fd5b806301ffc9a71461028257806312eb4f9a146102b757806313966db5146102dc5780631aedeabe146102f357806323b1a7ce1461030a575b600080fd5b34801561028e57600080fd5b506102a261029d3660046132db565b6107ea565b60405190151581526020015b60405180910390f35b3480156102c357600080fd5b506102ce61013b5481565b6040519081526020016102ae565b3480156102e857600080fd5b506102ce6101305481565b3480156102ff57600080fd5b506102ce6101355481565b34801561031657600080fd5b5061032a610325366004613305565b610821565b005b34801561033857600080fd5b506102ce610347366004613327565b60009081526065602052604090206001015490565b34801561036857600080fd5b506102ce6101345481565b34801561037f57600080fd5b5061032a61038e36600461335c565b6108bb565b34801561039f57600080fd5b5061032a6108e5565b3480156103b457600080fd5b5061032a6103c336600461335c565b6109d5565b3480156103d457600080fd5b5061032a6103e3366004613388565b610a53565b3480156103f457600080fd5b5061012d54610409906001600160a01b031681565b6040516001600160a01b0390911681526020016102ae565b34801561042d57600080fd5b506102ce600080516020613b7c83398151915281565b34801561044f57600080fd5b5061032a61045e3660046134d7565b610b32565b61032a61047136600461350c565b610ba9565b34801561048257600080fd5b506102ce610c75565b34801561049757600080fd5b506102ce6104a6366004613388565b6101396020526000908152604090205481565b3480156104c557600080fd5b506102ce7fe6e5e4a4299ddd74b059a6180355bc20e0b6245ea63c35440e9dd562db5bc0f281565b3480156104f957600080fd5b5060fb5460ff166102a2565b34801561051157600080fd5b5061032a610d28565b34801561052657600080fd5b5061032a610535366004613305565b610d9d565b34801561054657600080fd5b506102ce6101315481565b34801561055d57600080fd5b506102ce600080516020613bbc83398151915281565b34801561057f57600080fd5b5061032a61058e366004613572565b610dde565b34801561059f57600080fd5b5061032a610e33565b3480156105b457600080fd5b5061032a6105c336600461358e565b61118a565b3480156105d457600080fd5b506102ce6101365481565b3480156105eb57600080fd5b506102ce600080516020613b9c83398151915281565b34801561060d57600080fd5b5061032a611280565b34801561062257600080fd5b5061012f54610409906001600160a01b031681565b34801561064357600080fd5b506102ce61013a5481565b34801561065a57600080fd5b506102a261066936600461335c565b611443565b34801561067a57600080fd5b506102ce6101325481565b34801561069157600080fd5b506102ce600081565b3480156106a657600080fd5b5061012e54610409906001600160a01b031681565b3480156106c757600080fd5b5061032a61146e565b3480156106dc57600080fd5b5061032a6106eb366004613305565b611497565b3480156106fc57600080fd5b506102ce6101335481565b34801561071357600080fd5b506102ce6101375481565b34801561072a57600080fd5b506102ce6101385481565b34801561074157600080fd5b5061032a610750366004613572565b611528565b34801561076157600080fd5b5061032a61077036600461335c565b61157d565b34801561078157600080fd5b5061032a6107903660046135e5565b6115a2565b3480156107a157600080fd5b506102ce61165c565b3480156107b657600080fd5b5061032a6107c53660046135f7565b6118dd565b3480156107d657600080fd5b5061032a6107e5366004613327565b611a2d565b60006001600160e01b03198216637965db0b60e01b148061081b57506301ffc9a760e01b6001600160e01b03198316145b92915050565b610839600080516020613bbc83398151915233611443565b61085e5760405162461bcd60e51b815260040161085590613623565b60405180910390fd5b806000036108ae5760405162461bcd60e51b815260206004820152601c60248201527f5a65726f2064656e6f6d696e61746f72206e6f7420616c6c6f776564000000006044820152606401610855565b6101309190915561013155565b6000828152606560205260409020600101546108d681611ac6565b6108e08383611ad0565b505050565b336000908152610139602052604081205461013b54909142916109089084613670565b9050826000036109525760405162461bcd60e51b81526020600482015260156024820152741b995959081dda5d1a191c985dc81c995c5d595cdd605a1b6044820152606401610855565b8183106109955760405162461bcd60e51b81526020600482015260116024820152701c995c5d595cdd15d85a5d14195c9a5bd9607a1b6044820152606401610855565b8181116108e05760405162461bcd60e51b815260206004820152600e60248201526d1dda5d1a191c985dd4195c9a5bd960921b6044820152606401610855565b6001600160a01b0381163314610a455760405162461bcd60e51b815260206004820152602f60248201527f416363657373436f6e74726f6c3a2063616e206f6e6c792072656e6f756e636560448201526e103937b632b9903337b91039b2b63360891b6064820152608401610855565b610a4f8282611b56565b5050565b6001600160a01b037f0000000000000000000000000000000000000000000000000000000000000000163003610a9b5760405162461bcd60e51b815260040161085590613683565b7f00000000000000000000000000000000000000000000000000000000000000006001600160a01b0316610ae4600080516020613bdc833981519152546001600160a01b031690565b6001600160a01b031614610b0a5760405162461bcd60e51b8152600401610855906136cf565b610b1381611bbd565b60408051600080825260208201909252610b2f91839190611be4565b50565b610b5c7fe6e5e4a4299ddd74b059a6180355bc20e0b6245ea63c35440e9dd562db5bc0f233611443565b610ba05760405162461bcd60e51b815260206004820152601560248201527414995cdd1c9a58dd1959081d1bc8125b9cdd5c9959605a1b6044820152606401610855565b610b2f81611d4f565b6001600160a01b037f0000000000000000000000000000000000000000000000000000000000000000163003610bf15760405162461bcd60e51b815260040161085590613683565b7f00000000000000000000000000000000000000000000000000000000000000006001600160a01b0316610c3a600080516020613bdc833981519152546001600160a01b031690565b6001600160a01b031614610c605760405162461bcd60e51b8152600401610855906136cf565b610c6982611bbd565b610a4f82826001611be4565b6000306001600160a01b037f00000000000000000000000000000000000000000000000000000000000000001614610d155760405162461bcd60e51b815260206004820152603860248201527f555550535570677261646561626c653a206d757374206e6f742062652063616c60448201527f6c6564207468726f7567682064656c656761746563616c6c00000000000000006064820152608401610855565b50600080516020613bdc83398151915290565b610d33600033611443565b610d4f5760405162461bcd60e51b81526004016108559061371b565b610d75600080516020613b9c833981519152600080516020613bbc833981519152612365565b610d9b600080516020613b7c833981519152600080516020613bbc833981519152612365565b565b610db5600080516020613bbc83398151915233611443565b610dd15760405162461bcd60e51b815260040161085590613623565b61013a9190915561013b55565b610de66123b0565b610dfe600080516020613b9c83398151915233611443565b610e2457436101345410610e245760405162461bcd60e51b815260040161085590613749565b4361013455610b2f81356123f6565b610e3b6123b0565b610e53600080516020613b9c83398151915233611443565b610e7957436101345410610e795760405162461bcd60e51b815260040161085590613749565b4361013455610e96600080516020613b7c83398151915233611443565b610ed75760405162461bcd60e51b815260206004820152601260248201527114995cdd1c9a58dd1959081d1bc8155b9a5d60721b6044820152606401610855565b6101365461013854610ee99042613670565b10610d9b5761012d546040516370a0823160e01b81523060048201526000916001600160a01b0316906370a0823190602401602060405180830381865afa158015610f38573d6000803e3d6000fd5b505050506040513d601f19601f82011682018060405250810190610f5c9190613775565b9050610f6781612728565b9050600061012e60009054906101000a90046001600160a01b03166001600160a01b03166318160ddd6040518163ffffffff1660e01b8152600401602060405180830381865afa158015610fbf573d6000803e3d6000fd5b505050506040513d601f19601f82011682018060405250810190610fe39190613775565b610fed908361378e565b9050600061107b61012e60009054906101000a90046001600160a01b03166001600160a01b031663b1bf962d6040518163ffffffff1660e01b8152600401602060405180830381865afa158015611048573d6000803e3d6000fd5b505050506040513d601f19601f8201168201806040525081019061106c9190613775565b61107585612881565b906128c0565b61012e5460405163b2be259160e01b8152600481018390529192506001600160a01b03169063b2be259190602401600060405180830381600087803b1580156110c357600080fd5b505af11580156110d7573d6000803e3d6000fd5b505060408051858152602081018590527f0a7a57c20d9d19c62887fd6b056b5fdf25dbc2f405a8528cd293c467d5cc6505935001905060405180910390a15b610138546101365461112891906137b5565b42106111495761013754610136546111409190613670565b61013655611116565b7f6654b7187a0560c4c326844142156c2adf52738d0a615487e0e2a5cd9823c2c46101365460405161117d91815260200190565b60405180910390a1505050565b6111b47fe6e5e4a4299ddd74b059a6180355bc20e0b6245ea63c35440e9dd562db5bc0f233611443565b6111f85760405162461bcd60e51b815260206004820152601560248201527414995cdd1c9a58dd1959081d1bc8125b9cdd5c9959605a1b6044820152606401610855565b61120183611d4f565b602083015160405163a9059cbb60e01b81526001600160a01b038381166004830152602482018590529091169063a9059cbb906044016020604051808303816000875af1158015611256573d6000803e3d6000fd5b505050506040513d601f19601f8201168201806040525081019061127a91906137c8565b50505050565b600054610100900460ff16158080156112a05750600054600160ff909116105b806112ba5750303b1580156112ba575060005460ff166001145b61131d5760405162461bcd60e51b815260206004820152602e60248201527f496e697469616c697a61626c653a20636f6e747261637420697320616c72656160448201526d191e481a5b9a5d1a585b1a5e995960921b6064820152608401610855565b6000805460ff191660011790558015611340576000805461ff0019166101001790555b61134861299f565b6113506129c6565b61135861299f565b611363600033611ad0565b6000610130819055620186a061013181905561013291909155610133556361959780610136556201518061013755617080610138556203f48061013a556205460061013b556101f4610135556113d5600080516020613b9c833981519152600080516020613bbc833981519152612365565b6113fb600080516020613b7c833981519152600080516020613bbc833981519152612365565b8015610b2f576000805461ff0019169055604051600181527f7f26b83ff96e1f2b6a682f133852f6798a09c465da95921460cefb38474024989060200160405180910390a150565b60009182526065602090815260408084206001600160a01b0393909316845291905290205460ff1690565b6114766123b0565b61013a546114849042613670565b3360009081526101396020526040902055565b6114af600080516020613bbc83398151915233611443565b6114cb5760405162461bcd60e51b815260040161085590613623565b8060000361151b5760405162461bcd60e51b815260206004820152601c60248201527f5a65726f2064656e6f6d696e61746f72206e6f7420616c6c6f776564000000006044820152606401610855565b6101329190915561013355565b6115306123b0565b611548600080516020613b9c83398151915233611443565b61156e5743610134541061156e5760405162461bcd60e51b815260040161085590613749565b4361013455610b2f81356129f5565b60008281526065602052604090206001015461159881611ac6565b6108e08383611b56565b6115ad600033611443565b6115c95760405162461bcd60e51b81526004016108559061371b565b6115d66020820182613388565b61012d80546001600160a01b0319166001600160a01b03929092169190911790556116076040820160208301613388565b61012e80546001600160a01b0319166001600160a01b03929092169190911790556116386060820160408301613388565b61012f80546001600160a01b0319166001600160a01b039290921691909117905550565b60008073844d7d2fca6786be7de6721aabdff6957ace73a09050600081905060006001826001600160a01b031663ebeb31db6040518163ffffffff1660e01b8152600401602060405180830381865afa1580156116bd573d6000803e3d6000fd5b505050506040513d601f19601f820116820180604052508101906116e19190613775565b6116eb91906137b5565b905060006116fa6001836137b5565b60405163252c09d760e01b8152600481018490529091506000906001600160a01b0385169063252c09d790602401606060405180830381865afa158015611745573d6000803e3d6000fd5b505050506040513d601f19601f8201168201806040525081019061176991906137ea565b60405163252c09d760e01b8152600481018490529091506000906001600160a01b0386169063252c09d790602401606060405180830381865afa1580156117b4573d6000803e3d6000fd5b505050506040513d601f19601f820116820180604052508101906117d891906137ea565b805183519192506000916117ec91906137b5565b90506000818360200151856020015161180591906137b5565b61180f9190613846565b90506000828460400151866040015161182891906137b5565b6118329190613846565b905060008261012d60009054906101000a90046001600160a01b03166001600160a01b031663313ce5676040518163ffffffff1660e01b8152600401602060405180830381865afa15801561188b573d6000803e3d6000fd5b505050506040513d601f19601f820116820180604052508101906118af9190613868565b6118ba90600a61396f565b6118c4908461397e565b6118ce9190613846565b9b9a5050505050505050505050565b6118f5600080516020613bbc83398151915233611443565b6119115760405162461bcd60e51b815260040161085590613623565b826000036119615760405162461bcd60e51b815260206004820181905260248201527f5a65726f205f6e6578745061796f757454696d65206e6f7420616c6c6f7765646044820152606401610855565b816000036119b15760405162461bcd60e51b815260206004820152601e60248201527f5a65726f205f7061796f7574506572696f64206e6f7420616c6c6f77656400006044820152606401610855565b808311611a1c5760405162461bcd60e51b815260206004820152603360248201527f5f6e6578745061796f757454696d652073686f7564206265206d6f7265207468604482015272616e205f7061796f757454696d6552616e676560681b6064820152608401610855565b610136929092556101375561013855565b611a45600080516020613bbc83398151915233611443565b611a615760405162461bcd60e51b815260040161085590613623565b80600003611ab15760405162461bcd60e51b815260206004820152601d60248201527f5a65726f2073776170536c697070616765206e6f7420616c6c6f7765640000006044820152606401610855565b61013555565b6001600160a01b03163b151590565b610b2f8133612c86565b611ada8282611443565b610a4f5760008281526065602090815260408083206001600160a01b03851684529091529020805460ff19166001179055611b123390565b6001600160a01b0316816001600160a01b0316837f2f8788117e7eff1d82e926ec794901d17c78024a50270940304540a733656f0d60405160405180910390a45050565b611b608282611443565b15610a4f5760008281526065602090815260408083206001600160a01b0385168085529252808320805460ff1916905551339285917ff6391f5c32d9c69d2a47ea670b442974b53935d1edc7fd64eb21e047a839171b9190a45050565b611bc8600033611443565b610b2f5760405162461bcd60e51b81526004016108559061371b565b7f4910fdfa16fed3260ed0e7147f7cc6da11a60208b5b9406d12a635614ffd91435460ff1615611c17576108e083612cdf565b826001600160a01b03166352d1902d6040518163ffffffff1660e01b8152600401602060405180830381865afa925050508015611c71575060408051601f3d908101601f19168201909252611c6e91810190613775565b60015b611cd45760405162461bcd60e51b815260206004820152602e60248201527f45524331393637557067726164653a206e657720696d706c656d656e7461746960448201526d6f6e206973206e6f74205555505360901b6064820152608401610855565b600080516020613bdc8339815191528114611d435760405162461bcd60e51b815260206004820152602960248201527f45524331393637557067726164653a20756e737570706f727465642070726f786044820152681a58589b195555525160ba1b6064820152608401610855565b506108e0838383612d7b565b8051602082015161012d546000906001600160a01b03808516911614611d755782611d77565b815b61012f54604086810151905163095ea7b360e01b81526001600160a01b039283166004820152602481019190915291925084169063095ea7b3906044016020604051808303816000875af1158015611dd3573d6000803e3d6000fd5b505050506040513d601f19601f82011682018060405250810190611df791906137c8565b506040516370a0823160e01b81523060048201526000906001600160a01b038516906370a0823190602401602060405180830381865afa158015611e3f573d6000803e3d6000fd5b505050506040513d601f19601f82011682018060405250810190611e639190613775565b6040516370a0823160e01b81523060048201529091506000906001600160a01b038516906370a0823190602401602060405180830381865afa158015611ead573d6000803e3d6000fd5b505050506040513d601f19601f82011682018060405250810190611ed19190613775565b61012f54604088810151905163095ea7b360e01b81526001600160a01b039283166004820152602481019190915291925086169063095ea7b3906044016020604051808303816000875af1158015611f2d573d6000803e3d6000fd5b505050506040513d601f19601f82011682018060405250810190611f5191906137c8565b5061012f5460608701516040516000926001600160a01b0316918391611f7791906139b9565b60006040518083038185875af1925050503d8060008114611fb4576040519150601f19603f3d011682016040523d82523d6000602084013e611fb9565b606091505b50509050806120005760405162461bcd60e51b81526020600482015260136024820152721c9bdd5d195c881cddd85c081a5b9d985b1a59606a1b6044820152606401610855565b6040516370a0823160e01b81523060048201526000906001600160a01b038816906370a0823190602401602060405180830381865afa158015612047573d6000803e3d6000fd5b505050506040513d601f19601f8201168201806040525081019061206b9190613775565b6040516370a0823160e01b81523060048201529091506000906001600160a01b038816906370a0823190602401602060405180830381865afa1580156120b5573d6000803e3d6000fd5b505050506040513d601f19601f820116820180604052508101906120d99190613775565b905060006120e783876137b5565b905060006120f586846137b5565b9050600061012d60009054906101000a90046001600160a01b03166001600160a01b031663313ce5676040518163ffffffff1660e01b8152600401602060405180830381865afa15801561214d573d6000803e3d6000fd5b505050506040513d601f19601f820116820180604052508101906121719190613868565b61217c90600a61396f565b90506000896001600160a01b031663313ce5676040518163ffffffff1660e01b8152600401602060405180830381865afa1580156121be573d6000803e3d6000fd5b505050506040513d601f19601f820116820180604052508101906121e29190613868565b6121ed90600a61396f565b905060006121f961165c565b61012d549091506001600160a01b03908116908e16036122b657600083612220838861397e565b61222a9190613846565b90506127106101355461271061224091906137b5565b61224a908361397e565b6122549190613846565b90508085116122b05760405162461bcd60e51b815260206004820152602260248201527f4c61726765207377617020736c69707061676520286f766e202d2d3e20757364604482015261632960f01b6064820152608401610855565b50612355565b6000816122c3858861397e565b6122cd9190613846565b9050612710610135546127106122e391906137b5565b6122ed908361397e565b6122f79190613846565b90508085116123535760405162461bcd60e51b815260206004820152602260248201527f4c61726765207377617020736c697070616765202875736463202d2d3e206f766044820152616e2960f01b6064820152608401610855565b505b5050505050505050505050505050565b600082815260656020526040808220600101805490849055905190918391839186917fbd79b86ffe0ab8e8776151514217cd7cacd52c909f66475c3af44e129f0b00ff9190a4505050565b60fb5460ff1615610d9b5760405162461bcd60e51b815260206004820152601060248201526f14185d5cd8589b194e881c185d5cd95960821b6044820152606401610855565b600081116124165760405162461bcd60e51b8152600401610855906139d5565b61012e546040516370a0823160e01b815233600482015282916001600160a01b0316906370a0823190602401602060405180830381865afa15801561245f573d6000803e3d6000fd5b505050506040513d601f19601f820116820180604052508101906124839190613775565b10156124d15760405162461bcd60e51b815260206004820152601b60248201527f4e6f7420656e6f75676820746f6b656e7320746f2072656465656d00000000006044820152606401610855565b6124d96108e5565b6000806124e7836000612da0565b9250905060006124f682612e27565b9050600081116125185760405162461bcd60e51b8152600401610855906139d5565b61012d546040516370a0823160e01b815230600482015282916001600160a01b0316906370a0823190602401602060405180830381865afa158015612561573d6000803e3d6000fd5b505050506040513d601f19601f820116820180604052508101906125859190613775565b10156125d35760405162461bcd60e51b815260206004820152601760248201527f4e6f7420656e6f75676820666f72207472616e736665720000000000000000006044820152606401610855565b61012d5460405163a9059cbb60e01b8152336004820152602481018390526001600160a01b039091169063a9059cbb906044016020604051808303816000875af1158015612625573d6000803e3d6000fd5b505050506040513d601f19601f8201168201806040525081019061264991906137c8565b5061012e54604051632770a7eb60e21b8152336004820152602481018690526001600160a01b0390911690639dc29fac90604401600060405180830381600087803b15801561269757600080fd5b505af11580156126ab573d6000803e3d6000fd5b50503360008181526101396020908152604080832092909255815160808082526006908201526572656465656d60d01b60a08201529081018990528082018890526060810192909252517ffa6acd633ee08073d696f1ad14b9f42838087eb209ab689786d498e76269877893509081900360c0019150a150505050565b60008061012e60009054906101000a90046001600160a01b03166001600160a01b031663313ce5676040518163ffffffff1660e01b8152600401602060405180830381865afa15801561277f573d6000803e3d6000fd5b505050506040513d601f19601f820116820180604052508101906127a39190613868565b60ff169050600061012d60009054906101000a90046001600160a01b03166001600160a01b031663313ce5676040518163ffffffff1660e01b8152600401602060405180830381865afa1580156127fe573d6000803e3d6000fd5b505050506040513d601f19601f820116820180604052508101906128229190613868565b60ff1690506000828211156128575761283b83836137b5565b61284690600a613a0c565b6128509086613846565b9050612879565b61286182846137b5565b61286c90600a613a0c565b612876908661397e565b90505b949350505050565b600080612892633b9aca008461397e565b9050826128a3633b9aca0083613846565b1461081b5760405162461bcd60e51b815260040161085590613a18565b6000816000036129125760405162461bcd60e51b815260206004820152601c60248201527f4572726f72732e4d4154485f4449564953494f4e5f42595f5a45524f000000006044820152606401610855565b826000036129225750600061081b565b600061292f600284613846565b90506b033b2e3c9fd0803ce800000061294a826000196137b5565b6129549190613846565b8411156129735760405162461bcd60e51b815260040161085590613a18565b828161298b6b033b2e3c9fd0803ce80000008761397e565b6129959190613670565b6128799190613846565b600054610100900460ff16610d9b5760405162461bcd60e51b815260040161085590613a5b565b600054610100900460ff166129ed5760405162461bcd60e51b815260040161085590613a5b565b610d9b612f81565b60008111612a155760405162461bcd60e51b8152600401610855906139d5565b61012d546040516370a0823160e01b815233600482015282916001600160a01b0316906370a0823190602401602060405180830381865afa158015612a5e573d6000803e3d6000fd5b505050506040513d601f19601f82011682018060405250810190612a829190613775565b1015612ad05760405162461bcd60e51b815260206004820152601960248201527f4e6f7420656e6f75676820746f6b656e7320746f206d696e74000000000000006044820152606401610855565b61012d546040516323b872dd60e01b8152336004820152306024820152604481018390526001600160a01b03909116906323b872dd906064016020604051808303816000875af1158015612b28573d6000803e3d6000fd5b505050506040513d601f19601f82011682018060405250810190612b4c91906137c8565b506000612b5882612728565b90506000612b67826001612da0565b909250905081612bb15760405162461bcd60e51b815260206004820152601560248201527452656261736520416d6f756e74206973207a65726f60581b6044820152606401610855565b61012e546040516340c10f1960e01b8152336004820152602481018490526001600160a01b03909116906340c10f1990604401600060405180830381600087803b158015612bfe57600080fd5b505af1158015612c12573d6000803e3d6000fd5b5050336000818152610139602090815260408083209290925581516080808252600490820152631b5a5b9d60e21b60a082015290810187905290810185905260608101919091527ffa6acd633ee08073d696f1ad14b9f42838087eb209ab689786d498e762698778925060c001905061117d565b612c908282611443565b610a4f57612c9d81612fb4565b612ca8836020612fc6565b604051602001612cb9929190613aa6565b60408051601f198184030181529082905262461bcd60e51b825261085591600401613b1b565b6001600160a01b0381163b612d4c5760405162461bcd60e51b815260206004820152602d60248201527f455243313936373a206e657720696d706c656d656e746174696f6e206973206e60448201526c1bdd08184818dbdb9d1c9858dd609a1b6064820152608401610855565b600080516020613bdc83398151915280546001600160a01b0319166001600160a01b0392909216919091179055565b612d8483613169565b600082511180612d915750805b156108e05761127a83836131a9565b600080600083612db35761013254612db8565b610130545b9050600084612dca5761013354612dcf565b610131545b9050600080612dec600080516020613b9c83398151915233611443565b612e185782612dfb858a61397e565b612e059190613846565b9150612e1182896137b5565b9050612e1b565b50865b97909650945050505050565b600080600061012d60009054906101000a90046001600160a01b03166001600160a01b031663313ce5676040518163ffffffff1660e01b8152600401602060405180830381865afa158015612e80573d6000803e3d6000fd5b505050506040513d601f19601f82011682018060405250810190612ea49190613868565b60ff169050600061012e60009054906101000a90046001600160a01b03166001600160a01b031663313ce5676040518163ffffffff1660e01b8152600401602060405180830381865afa158015612eff573d6000803e3d6000fd5b505050506040513d601f19601f82011682018060405250810190612f239190613868565b60ff16905080821115612f5657612f3a81836137b5565b612f4590600a613a0c565b612f4f908661397e565b9250612f78565b612f6082826137b5565b612f6b90600a613a0c565b612f759086613846565b92505b50909392505050565b600054610100900460ff16612fa85760405162461bcd60e51b815260040161085590613a5b565b60fb805460ff19169055565b606061081b6001600160a01b03831660145b60606000612fd583600261397e565b612fe0906002613670565b67ffffffffffffffff811115612ff857612ff86133a3565b6040519080825280601f01601f191660200182016040528015613022576020820181803683370190505b509050600360fc1b8160008151811061303d5761303d613b4e565b60200101906001600160f81b031916908160001a905350600f60fb1b8160018151811061306c5761306c613b4e565b60200101906001600160f81b031916908160001a905350600061309084600261397e565b61309b906001613670565b90505b6001811115613113576f181899199a1a9b1b9c1cb0b131b232b360811b85600f16601081106130cf576130cf613b4e565b1a60f81b8282815181106130e5576130e5613b4e565b60200101906001600160f81b031916908160001a90535060049490941c9361310c81613b64565b905061309e565b5083156131625760405162461bcd60e51b815260206004820181905260248201527f537472696e67733a20686578206c656e67746820696e73756666696369656e746044820152606401610855565b9392505050565b61317281612cdf565b6040516001600160a01b038216907fbc7cd75a20ee27fd9adebab32041f755214dbc6bffa90cc0225b39da2e5c2d3b90600090a250565b60606001600160a01b0383163b6132115760405162461bcd60e51b815260206004820152602660248201527f416464726573733a2064656c65676174652063616c6c20746f206e6f6e2d636f6044820152651b9d1c9858dd60d21b6064820152608401610855565b600080846001600160a01b03168460405161322c91906139b9565b600060405180830381855af49150503d8060008114613267576040519150601f19603f3d011682016040523d82523d6000602084013e61326c565b606091505b50915091506132948282604051806060016040528060278152602001613bfc6027913961329d565b95945050505050565b606083156132ac575081613162565b61316283838151156132c15781518083602001fd5b8060405162461bcd60e51b81526004016108559190613b1b565b6000602082840312156132ed57600080fd5b81356001600160e01b03198116811461316257600080fd5b6000806040838503121561331857600080fd5b50508035926020909101359150565b60006020828403121561333957600080fd5b5035919050565b80356001600160a01b038116811461335757600080fd5b919050565b6000806040838503121561336f57600080fd5b8235915061337f60208401613340565b90509250929050565b60006020828403121561339a57600080fd5b61316282613340565b634e487b7160e01b600052604160045260246000fd5b600082601f8301126133ca57600080fd5b813567ffffffffffffffff808211156133e5576133e56133a3565b604051601f8301601f19908116603f0116810190828211818310171561340d5761340d6133a3565b8160405283815286602085880101111561342657600080fd5b836020870160208301376000602085830101528094505050505092915050565b60006080828403121561345857600080fd5b6040516080810167ffffffffffffffff828210818311171561347c5761347c6133a3565b8160405282935061348c85613340565b835261349a60208601613340565b60208401526040850135604084015260608501359150808211156134bd57600080fd5b506134ca858286016133b9565b6060830152505092915050565b6000602082840312156134e957600080fd5b813567ffffffffffffffff81111561350057600080fd5b61287984828501613446565b6000806040838503121561351f57600080fd5b61352883613340565b9150602083013567ffffffffffffffff81111561354457600080fd5b613550858286016133b9565b9150509250929050565b60006020828403121561356c57600080fd5b50919050565b60006020828403121561358457600080fd5b613162838361355a565b6000806000606084860312156135a357600080fd5b833567ffffffffffffffff8111156135ba57600080fd5b6135c686828701613446565b935050602084013591506135dc60408501613340565b90509250925092565b60006060828403121561356c57600080fd5b60008060006060848603121561360c57600080fd5b505081359360208301359350604090920135919050565b6020808252601d908201527f5265737472696374656420746f20506f7274666f6c696f204167656e74000000604082015260600190565b634e487b7160e01b600052601160045260246000fd5b8082018082111561081b5761081b61365a565b6020808252602c908201527f46756e6374696f6e206d7573742062652063616c6c6564207468726f7567682060408201526b19195b1959d85d1958d85b1b60a21b606082015260800190565b6020808252602c908201527f46756e6374696f6e206d7573742062652063616c6c6564207468726f7567682060408201526b6163746976652070726f787960a01b606082015260800190565b6020808252601490820152735265737472696374656420746f2061646d696e7360601b604082015260600190565b6020808252601290820152714f6e6c79206f6e636520696e20626c6f636b60701b604082015260600190565b60006020828403121561378757600080fd5b5051919050565b81810360008312801583831316838312821617156137ae576137ae61365a565b5092915050565b8181038181111561081b5761081b61365a565b6000602082840312156137da57600080fd5b8151801515811461316257600080fd5b6000606082840312156137fc57600080fd5b6040516060810181811067ffffffffffffffff8211171561381f5761381f6133a3565b80604052508251815260208301516020820152604083015160408201528091505092915050565b60008261386357634e487b7160e01b600052601260045260246000fd5b500490565b60006020828403121561387a57600080fd5b815160ff8116811461316257600080fd5b600181815b808511156138c65781600019048211156138ac576138ac61365a565b808516156138b957918102915b93841c9390800290613890565b509250929050565b6000826138dd5750600161081b565b816138ea5750600061081b565b8160018114613900576002811461390a57613926565b600191505061081b565b60ff84111561391b5761391b61365a565b50506001821b61081b565b5060208310610133831016604e8410600b8410161715613949575081810a61081b565b613953838361388b565b80600019048211156139675761396761365a565b029392505050565b600061316260ff8416836138ce565b808202811582820484141761081b5761081b61365a565b60005b838110156139b0578181015183820152602001613998565b50506000910152565b600082516139cb818460208701613995565b9190910192915050565b60208082526017908201527f416d6f756e74206f66206173736574206973207a65726f000000000000000000604082015260600190565b600061316283836138ce565b60208082526023908201527f4572726f72732e4d4154485f4d554c5449504c49434154494f4e5f4f564552466040820152624c4f5760e81b606082015260800190565b6020808252602b908201527f496e697469616c697a61626c653a20636f6e7472616374206973206e6f74206960408201526a6e697469616c697a696e6760a81b606082015260800190565b7f416363657373436f6e74726f6c3a206163636f756e7420000000000000000000815260008351613ade816017850160208801613995565b7001034b99036b4b9b9b4b733903937b6329607d1b6017918401918201528351613b0f816028840160208801613995565b01602801949350505050565b6020815260008251806020840152613b3a816040850160208701613995565b601f01601f19169190910160400192915050565b634e487b7160e01b600052603260045260246000fd5b600081613b7357613b7361365a565b50600019019056feede8101501d89b9894e78e4f219420b6ddb840e8e75dde35741a0745408476d7262f8dca0440d5010bae937fe18daeae459dacb80622baddc3b4f10759ac952ad67ad422505496469a1adf6cdf9e5ee92ac5d33992843c9ecc4b2f6d6cde9137360894a13ba1a3210667c828492db98dca3e2076cc3735a920a3ca505d382bbc416464726573733a206c6f772d6c6576656c2064656c65676174652063616c6c206661696c6564a26469706673582212204fc4821e71a5fb6e50c1e57e188dab53a5223e6a2a0c398e3961b22003ae992e64736f6c63430008110033",
  "implementation": "0xd670540FA436519511413E90fa52bDd5CC42B0A4",
  "devdoc": {
    "kind": "dev",
    "methods": {
      "compensate((address,address,uint256,bytes),uint256,address)": {
        "details": "This function is calling when USD+ (or other plus) make payout and there are some loss value. This method should convert some OVN to asset and transfer it to the Exchanger contract.",
        "params": {
          "assetAmount": "needed amount of asset to cover the loss",
          "swapData": "consist of odos data to make swap",
          "to": "recipient of assets"
        }
      },
      "constructor": {
        "custom:oz-upgrades-unsafe-allow": "constructor"
      },
      "getRoleAdmin(bytes32)": {
        "details": "Returns the admin role that controls `role`. See {grantRole} and {revokeRole}. To change a role's admin, use {_setRoleAdmin}."
      },
      "grantRole(bytes32,address)": {
        "details": "Grants `role` to `account`. If `account` had not been already granted `role`, emits a {RoleGranted} event. Requirements: - the caller must have ``role``'s admin role. May emit a {RoleGranted} event."
      },
      "hasRole(bytes32,address)": {
        "details": "Returns `true` if `account` has been granted `role`."
      },
      "paused()": {
        "details": "Returns true if the contract is paused, and false otherwise."
      },
      "premium((address,address,uint256,bytes))": {
        "details": "This function is calling when USD+ (or other plus) make payout and there are extra value. This method should convert this asset to OVN.",
        "params": {
          "swapData": "consist of odos data to make swap"
        }
      },
      "proxiableUUID()": {
        "details": "Implementation of the ERC1822 {proxiableUUID} function. This returns the storage slot used by the implementation. It is used to validate the implementation's compatibility when performing an upgrade. IMPORTANT: A proxy pointing at a proxiable contract should not be considered proxiable itself, because this risks bricking a proxy that upgrades to it, by delegating to itself until out of gas. Thus it is critical that this function revert if invoked through a proxy. This is guaranteed by the `notDelegated` modifier."
      },
      "renounceRole(bytes32,address)": {
        "details": "Revokes `role` from the calling account. Roles are often managed via {grantRole} and {revokeRole}: this function's purpose is to provide a mechanism for accounts to lose their privileges if they are compromised (such as when a trusted device is misplaced). If the calling account had been revoked `role`, emits a {RoleRevoked} event. Requirements: - the caller must be `account`. May emit a {RoleRevoked} event."
      },
      "revokeRole(bytes32,address)": {
        "details": "Revokes `role` from `account`. If `account` had been granted `role`, emits a {RoleRevoked} event. Requirements: - the caller must have ``role``'s admin role. May emit a {RoleRevoked} event."
      },
      "supportsInterface(bytes4)": {
        "details": "See {IERC165-supportsInterface}."
      },
      "upgradeTo(address)": {
        "details": "Upgrade the implementation of the proxy to `newImplementation`. Calls {_authorizeUpgrade}. Emits an {Upgraded} event."
      },
      "upgradeToAndCall(address,bytes)": {
        "details": "Upgrade the implementation of the proxy to `newImplementation`, and subsequently execute the function call encoded in `data`. Calls {_authorizeUpgrade}. Emits an {Upgraded} event."
      }
    },
    "version": 1
  },
  "userdoc": {
    "kind": "user",
    "methods": {},
    "version": 1
  },
  "storageLayout": {
    "storage": [
      {
        "astId": 804,
        "contract": "contracts/InsuranceExchange.sol:InsuranceExchange",
        "label": "_initialized",
        "offset": 0,
        "slot": "0",
        "type": "t_uint8"
      },
      {
        "astId": 807,
        "contract": "contracts/InsuranceExchange.sol:InsuranceExchange",
        "label": "_initializing",
        "offset": 1,
        "slot": "0",
        "type": "t_bool"
      },
      {
        "astId": 1657,
        "contract": "contracts/InsuranceExchange.sol:InsuranceExchange",
        "label": "__gap",
        "offset": 0,
        "slot": "1",
        "type": "t_array(t_uint256)50_storage"
      },
      {
        "astId": 1936,
        "contract": "contracts/InsuranceExchange.sol:InsuranceExchange",
        "label": "__gap",
        "offset": 0,
        "slot": "51",
        "type": "t_array(t_uint256)50_storage"
      },
      {
        "astId": 39,
        "contract": "contracts/InsuranceExchange.sol:InsuranceExchange",
        "label": "_roles",
        "offset": 0,
        "slot": "101",
        "type": "t_mapping(t_bytes32,t_struct(RoleData)34_storage)"
      },
      {
        "astId": 334,
        "contract": "contracts/InsuranceExchange.sol:InsuranceExchange",
        "label": "__gap",
        "offset": 0,
        "slot": "102",
        "type": "t_array(t_uint256)49_storage"
      },
      {
        "astId": 786,
        "contract": "contracts/InsuranceExchange.sol:InsuranceExchange",
        "label": "__gap",
        "offset": 0,
        "slot": "151",
        "type": "t_array(t_uint256)50_storage"
      },
      {
        "astId": 1101,
        "contract": "contracts/InsuranceExchange.sol:InsuranceExchange",
        "label": "__gap",
        "offset": 0,
        "slot": "201",
        "type": "t_array(t_uint256)50_storage"
      },
      {
        "astId": 1123,
        "contract": "contracts/InsuranceExchange.sol:InsuranceExchange",
        "label": "_paused",
        "offset": 0,
        "slot": "251",
        "type": "t_bool"
      },
      {
        "astId": 1228,
        "contract": "contracts/InsuranceExchange.sol:InsuranceExchange",
        "label": "__gap",
        "offset": 0,
        "slot": "252",
        "type": "t_array(t_uint256)49_storage"
      },
      {
        "astId": 14796,
        "contract": "contracts/InsuranceExchange.sol:InsuranceExchange",
        "label": "asset",
        "offset": 0,
        "slot": "301",
        "type": "t_contract(IERC20)3869"
      },
      {
        "astId": 14799,
        "contract": "contracts/InsuranceExchange.sol:InsuranceExchange",
        "label": "rebase",
        "offset": 0,
        "slot": "302",
        "type": "t_contract(IRebaseToken)21360"
      },
      {
        "astId": 14801,
        "contract": "contracts/InsuranceExchange.sol:InsuranceExchange",
        "label": "odosRouter",
        "offset": 0,
        "slot": "303",
        "type": "t_address"
      },
      {
        "astId": 14803,
        "contract": "contracts/InsuranceExchange.sol:InsuranceExchange",
        "label": "mintFee",
        "offset": 0,
        "slot": "304",
        "type": "t_uint256"
      },
      {
        "astId": 14805,
        "contract": "contracts/InsuranceExchange.sol:InsuranceExchange",
        "label": "mintFeeDenominator",
        "offset": 0,
        "slot": "305",
        "type": "t_uint256"
      },
      {
        "astId": 14807,
        "contract": "contracts/InsuranceExchange.sol:InsuranceExchange",
        "label": "redeemFee",
        "offset": 0,
        "slot": "306",
        "type": "t_uint256"
      },
      {
        "astId": 14809,
        "contract": "contracts/InsuranceExchange.sol:InsuranceExchange",
        "label": "redeemFeeDenominator",
        "offset": 0,
        "slot": "307",
        "type": "t_uint256"
      },
      {
        "astId": 14811,
        "contract": "contracts/InsuranceExchange.sol:InsuranceExchange",
        "label": "lastBlockNumber",
        "offset": 0,
        "slot": "308",
        "type": "t_uint256"
      },
      {
        "astId": 14813,
        "contract": "contracts/InsuranceExchange.sol:InsuranceExchange",
        "label": "swapSlippage",
        "offset": 0,
        "slot": "309",
        "type": "t_uint256"
      },
      {
        "astId": 14815,
        "contract": "contracts/InsuranceExchange.sol:InsuranceExchange",
        "label": "nextPayoutTime",
        "offset": 0,
        "slot": "310",
        "type": "t_uint256"
      },
      {
        "astId": 14817,
        "contract": "contracts/InsuranceExchange.sol:InsuranceExchange",
        "label": "payoutPeriod",
        "offset": 0,
        "slot": "311",
        "type": "t_uint256"
      },
      {
        "astId": 14819,
        "contract": "contracts/InsuranceExchange.sol:InsuranceExchange",
        "label": "payoutTimeRange",
        "offset": 0,
        "slot": "312",
        "type": "t_uint256"
      },
      {
        "astId": 14823,
        "contract": "contracts/InsuranceExchange.sol:InsuranceExchange",
        "label": "withdrawRequests",
        "offset": 0,
        "slot": "313",
        "type": "t_mapping(t_address,t_uint256)"
      },
      {
        "astId": 14825,
        "contract": "contracts/InsuranceExchange.sol:InsuranceExchange",
        "label": "requestWaitPeriod",
        "offset": 0,
        "slot": "314",
        "type": "t_uint256"
      },
      {
        "astId": 14827,
        "contract": "contracts/InsuranceExchange.sol:InsuranceExchange",
        "label": "withdrawPeriod",
        "offset": 0,
        "slot": "315",
        "type": "t_uint256"
      }
    ],
    "types": {
      "t_address": {
        "encoding": "inplace",
        "label": "address",
        "numberOfBytes": "20"
      },
      "t_array(t_uint256)49_storage": {
        "base": "t_uint256",
        "encoding": "inplace",
        "label": "uint256[49]",
        "numberOfBytes": "1568"
      },
      "t_array(t_uint256)50_storage": {
        "base": "t_uint256",
        "encoding": "inplace",
        "label": "uint256[50]",
        "numberOfBytes": "1600"
      },
      "t_bool": {
        "encoding": "inplace",
        "label": "bool",
        "numberOfBytes": "1"
      },
      "t_bytes32": {
        "encoding": "inplace",
        "label": "bytes32",
        "numberOfBytes": "32"
      },
      "t_contract(IERC20)3869": {
        "encoding": "inplace",
        "label": "contract IERC20",
        "numberOfBytes": "20"
      },
      "t_contract(IRebaseToken)21360": {
        "encoding": "inplace",
        "label": "contract IRebaseToken",
        "numberOfBytes": "20"
      },
      "t_mapping(t_address,t_bool)": {
        "encoding": "mapping",
        "key": "t_address",
        "label": "mapping(address => bool)",
        "numberOfBytes": "32",
        "value": "t_bool"
      },
      "t_mapping(t_address,t_uint256)": {
        "encoding": "mapping",
        "key": "t_address",
        "label": "mapping(address => uint256)",
        "numberOfBytes": "32",
        "value": "t_uint256"
      },
      "t_mapping(t_bytes32,t_struct(RoleData)34_storage)": {
        "encoding": "mapping",
        "key": "t_bytes32",
        "label": "mapping(bytes32 => struct AccessControlUpgradeable.RoleData)",
        "numberOfBytes": "32",
        "value": "t_struct(RoleData)34_storage"
      },
      "t_struct(RoleData)34_storage": {
        "encoding": "inplace",
        "label": "struct AccessControlUpgradeable.RoleData",
        "members": [
          {
            "astId": 31,
            "contract": "contracts/InsuranceExchange.sol:InsuranceExchange",
            "label": "members",
            "offset": 0,
            "slot": "0",
            "type": "t_mapping(t_address,t_bool)"
          },
          {
            "astId": 33,
            "contract": "contracts/InsuranceExchange.sol:InsuranceExchange",
            "label": "adminRole",
            "offset": 0,
            "slot": "1",
            "type": "t_bytes32"
          }
        ],
        "numberOfBytes": "64"
      },
      "t_uint256": {
        "encoding": "inplace",
        "label": "uint256",
        "numberOfBytes": "32"
      },
      "t_uint8": {
        "encoding": "inplace",
        "label": "uint8",
        "numberOfBytes": "1"
      }
    }
  }
}