{
  "address": "0xdBaB307F2f19A678F90Ad309C8b34DaD3da8d334",
  "abi": [
    {
      "inputs": [],
      "stateMutability": "nonpayable",
      "type": "constructor"
    },
    {
      "anonymous": false,
      "inputs": [
        {
          "indexed": false,
          "internalType": "address",
          "name": "token",
          "type": "address"
        },
        {
          "indexed": false,
          "internalType": "address",
          "name": "pool",
          "type": "address"
        }
      ],
      "name": "AddItem",
      "type": "event"
    },
    {
      "anonymous": false,
      "inputs": [
        {
          "indexed": false,
          "internalType": "address",
          "name": "previousAdmin",
          "type": "address"
        },
        {
          "indexed": false,
          "internalType": "address",
          "name": "newAdmin",
          "type": "address"
        }
      ],
      "name": "AdminChanged",
      "type": "event"
    },
    {
      "anonymous": false,
      "inputs": [
        {
          "indexed": true,
          "internalType": "address",
          "name": "beacon",
          "type": "address"
        }
      ],
      "name": "BeaconUpgraded",
      "type": "event"
    },
    {
      "anonymous": false,
      "inputs": [
        {
          "indexed": false,
          "internalType": "bool",
          "name": "disabled",
          "type": "bool"
        },
        {
          "indexed": false,
          "internalType": "bool",
          "name": "undoneDisabled",
          "type": "bool"
        }
      ],
      "name": "DisabledUpdated",
      "type": "event"
    },
    {
      "anonymous": false,
      "inputs": [
        {
          "indexed": false,
          "internalType": "uint8",
          "name": "version",
          "type": "uint8"
        }
      ],
      "name": "Initialized",
      "type": "event"
    },
    {
      "anonymous": false,
      "inputs": [],
      "name": "PayoutDoneDisabled",
      "type": "event"
    },
    {
      "anonymous": false,
      "inputs": [],
      "name": "PayoutUndoneDisabled",
      "type": "event"
    },
    {
      "anonymous": false,
      "inputs": [
        {
          "indexed": false,
          "internalType": "string",
          "name": "dexName",
          "type": "string"
        },
        {
          "indexed": false,
          "internalType": "string",
          "name": "operation",
          "type": "string"
        },
        {
          "indexed": false,
          "internalType": "string",
          "name": "poolName",
          "type": "string"
        },
        {
          "indexed": false,
          "internalType": "address",
          "name": "pool",
          "type": "address"
        },
        {
          "indexed": false,
          "internalType": "address",
          "name": "token",
          "type": "address"
        },
        {
          "indexed": false,
          "internalType": "uint256",
          "name": "amount",
          "type": "uint256"
        },
        {
          "indexed": false,
          "internalType": "address",
          "name": "to",
          "type": "address"
        }
      ],
      "name": "PoolOperation",
      "type": "event"
    },
    {
      "anonymous": false,
      "inputs": [
        {
          "indexed": false,
          "internalType": "address",
          "name": "token",
          "type": "address"
        },
        {
          "indexed": false,
          "internalType": "address",
          "name": "pool",
          "type": "address"
        }
      ],
      "name": "RemoveItem",
      "type": "event"
    },
    {
      "anonymous": false,
      "inputs": [
        {
          "indexed": true,
          "internalType": "bytes32",
          "name": "role",
          "type": "bytes32"
        },
        {
          "indexed": true,
          "internalType": "bytes32",
          "name": "previousAdminRole",
          "type": "bytes32"
        },
        {
          "indexed": true,
          "internalType": "bytes32",
          "name": "newAdminRole",
          "type": "bytes32"
        }
      ],
      "name": "RoleAdminChanged",
      "type": "event"
    },
    {
      "anonymous": false,
      "inputs": [
        {
          "indexed": true,
          "internalType": "bytes32",
          "name": "role",
          "type": "bytes32"
        },
        {
          "indexed": true,
          "internalType": "address",
          "name": "account",
          "type": "address"
        },
        {
          "indexed": true,
          "internalType": "address",
          "name": "sender",
          "type": "address"
        }
      ],
      "name": "RoleGranted",
      "type": "event"
    },
    {
      "anonymous": false,
      "inputs": [
        {
          "indexed": true,
          "internalType": "bytes32",
          "name": "role",
          "type": "bytes32"
        },
        {
          "indexed": true,
          "internalType": "address",
          "name": "account",
          "type": "address"
        },
        {
          "indexed": true,
          "internalType": "address",
          "name": "sender",
          "type": "address"
        }
      ],
      "name": "RoleRevoked",
      "type": "event"
    },
    {
      "anonymous": false,
      "inputs": [
        {
          "indexed": true,
          "internalType": "address",
          "name": "implementation",
          "type": "address"
        }
      ],
      "name": "Upgraded",
      "type": "event"
    },
    {
      "inputs": [],
      "name": "DEFAULT_ADMIN_ROLE",
      "outputs": [
        {
          "internalType": "bytes32",
          "name": "",
          "type": "bytes32"
        }
      ],
      "stateMutability": "view",
      "type": "function"
    },
    {
      "inputs": [],
      "name": "EXCHANGER",
      "outputs": [
        {
          "internalType": "bytes32",
          "name": "",
          "type": "bytes32"
        }
      ],
      "stateMutability": "view",
      "type": "function"
    },
    {
      "inputs": [
        {
          "components": [
            {
              "internalType": "address",
              "name": "pool",
              "type": "address"
            },
            {
              "internalType": "address",
              "name": "token",
              "type": "address"
            },
            {
              "internalType": "string",
              "name": "poolName",
              "type": "string"
            },
            {
              "internalType": "address",
              "name": "bribe",
              "type": "address"
            },
            {
              "internalType": "enum GlobalPayoutListener.Operation",
              "name": "operation",
              "type": "uint8"
            },
            {
              "internalType": "address",
              "name": "to",
              "type": "address"
            },
            {
              "internalType": "string",
              "name": "dexName",
              "type": "string"
            },
            {
              "internalType": "uint24",
              "name": "feePercent",
              "type": "uint24"
            },
            {
              "internalType": "address",
              "name": "feeReceiver",
              "type": "address"
            },
            {
              "internalType": "uint256[10]",
              "name": "__gap",
              "type": "uint256[10]"
            }
          ],
          "internalType": "struct GlobalPayoutListener.Item",
          "name": "item",
          "type": "tuple"
        }
      ],
      "name": "addItem",
      "outputs": [],
      "stateMutability": "nonpayable",
      "type": "function"
    },
    {
      "inputs": [
        {
          "components": [
            {
              "internalType": "address",
              "name": "pool",
              "type": "address"
            },
            {
              "internalType": "address",
              "name": "token",
              "type": "address"
            },
            {
              "internalType": "string",
              "name": "poolName",
              "type": "string"
            },
            {
              "internalType": "address",
              "name": "bribe",
              "type": "address"
            },
            {
              "internalType": "enum GlobalPayoutListener.Operation",
              "name": "operation",
              "type": "uint8"
            },
            {
              "internalType": "address",
              "name": "to",
              "type": "address"
            },
            {
              "internalType": "string",
              "name": "dexName",
              "type": "string"
            },
            {
              "internalType": "uint24",
              "name": "feePercent",
              "type": "uint24"
            },
            {
              "internalType": "address",
              "name": "feeReceiver",
              "type": "address"
            },
            {
              "internalType": "uint256[10]",
              "name": "__gap",
              "type": "uint256[10]"
            }
          ],
          "internalType": "struct GlobalPayoutListener.Item[]",
          "name": "items",
          "type": "tuple[]"
        }
      ],
      "name": "addItems",
      "outputs": [],
      "stateMutability": "nonpayable",
      "type": "function"
    },
    {
      "inputs": [],
      "name": "disabled",
      "outputs": [
        {
          "internalType": "bool",
          "name": "",
          "type": "bool"
        }
      ],
      "stateMutability": "view",
      "type": "function"
    },
    {
      "inputs": [
        {
          "internalType": "address",
          "name": "pool",
          "type": "address"
        }
      ],
      "name": "findItemsByPool",
      "outputs": [
        {
          "components": [
            {
              "internalType": "address",
              "name": "pool",
              "type": "address"
            },
            {
              "internalType": "address",
              "name": "token",
              "type": "address"
            },
            {
              "internalType": "string",
              "name": "poolName",
              "type": "string"
            },
            {
              "internalType": "address",
              "name": "bribe",
              "type": "address"
            },
            {
              "internalType": "enum GlobalPayoutListener.Operation",
              "name": "operation",
              "type": "uint8"
            },
            {
              "internalType": "address",
              "name": "to",
              "type": "address"
            },
            {
              "internalType": "string",
              "name": "dexName",
              "type": "string"
            },
            {
              "internalType": "uint24",
              "name": "feePercent",
              "type": "uint24"
            },
            {
              "internalType": "address",
              "name": "feeReceiver",
              "type": "address"
            },
            {
              "internalType": "uint256[10]",
              "name": "__gap",
              "type": "uint256[10]"
            }
          ],
          "internalType": "struct GlobalPayoutListener.Item[]",
          "name": "",
          "type": "tuple[]"
        }
      ],
      "stateMutability": "view",
      "type": "function"
    },
    {
      "inputs": [],
      "name": "getItems",
      "outputs": [
        {
          "components": [
            {
              "internalType": "address",
              "name": "pool",
              "type": "address"
            },
            {
              "internalType": "address",
              "name": "token",
              "type": "address"
            },
            {
              "internalType": "string",
              "name": "poolName",
              "type": "string"
            },
            {
              "internalType": "address",
              "name": "bribe",
              "type": "address"
            },
            {
              "internalType": "enum GlobalPayoutListener.Operation",
              "name": "operation",
              "type": "uint8"
            },
            {
              "internalType": "address",
              "name": "to",
              "type": "address"
            },
            {
              "internalType": "string",
              "name": "dexName",
              "type": "string"
            },
            {
              "internalType": "uint24",
              "name": "feePercent",
              "type": "uint24"
            },
            {
              "internalType": "address",
              "name": "feeReceiver",
              "type": "address"
            },
            {
              "internalType": "uint256[10]",
              "name": "__gap",
              "type": "uint256[10]"
            }
          ],
          "internalType": "struct GlobalPayoutListener.Item[]",
          "name": "",
          "type": "tuple[]"
        }
      ],
      "stateMutability": "view",
      "type": "function"
    },
    {
      "inputs": [],
      "name": "getItemsLength",
      "outputs": [
        {
          "internalType": "uint256",
          "name": "",
          "type": "uint256"
        }
      ],
      "stateMutability": "view",
      "type": "function"
    },
    {
      "inputs": [
        {
          "internalType": "bytes32",
          "name": "role",
          "type": "bytes32"
        }
      ],
      "name": "getRoleAdmin",
      "outputs": [
        {
          "internalType": "bytes32",
          "name": "",
          "type": "bytes32"
        }
      ],
      "stateMutability": "view",
      "type": "function"
    },
    {
      "inputs": [
        {
          "internalType": "bytes32",
          "name": "role",
          "type": "bytes32"
        },
        {
          "internalType": "address",
          "name": "account",
          "type": "address"
        }
      ],
      "name": "grantRole",
      "outputs": [],
      "stateMutability": "nonpayable",
      "type": "function"
    },
    {
      "inputs": [
        {
          "internalType": "bytes32",
          "name": "role",
          "type": "bytes32"
        },
        {
          "internalType": "address",
          "name": "account",
          "type": "address"
        }
      ],
      "name": "hasRole",
      "outputs": [
        {
          "internalType": "bool",
          "name": "",
          "type": "bool"
        }
      ],
      "stateMutability": "view",
      "type": "function"
    },
    {
      "inputs": [],
      "name": "initialize",
      "outputs": [],
      "stateMutability": "nonpayable",
      "type": "function"
    },
    {
      "inputs": [
        {
          "internalType": "uint256",
          "name": "",
          "type": "uint256"
        }
      ],
      "name": "items",
      "outputs": [
        {
          "internalType": "address",
          "name": "pool",
          "type": "address"
        },
        {
          "internalType": "address",
          "name": "token",
          "type": "address"
        },
        {
          "internalType": "string",
          "name": "poolName",
          "type": "string"
        },
        {
          "internalType": "address",
          "name": "bribe",
          "type": "address"
        },
        {
          "internalType": "enum GlobalPayoutListener.Operation",
          "name": "operation",
          "type": "uint8"
        },
        {
          "internalType": "address",
          "name": "to",
          "type": "address"
        },
        {
          "internalType": "string",
          "name": "dexName",
          "type": "string"
        },
        {
          "internalType": "uint24",
          "name": "feePercent",
          "type": "uint24"
        },
        {
          "internalType": "address",
          "name": "feeReceiver",
          "type": "address"
        }
      ],
      "stateMutability": "view",
      "type": "function"
    },
    {
      "inputs": [],
      "name": "optimism",
      "outputs": [],
      "stateMutability": "nonpayable",
      "type": "function"
    },
    {
      "inputs": [
        {
          "internalType": "address",
          "name": "token",
          "type": "address"
        }
      ],
      "name": "payoutDone",
      "outputs": [],
      "stateMutability": "nonpayable",
      "type": "function"
    },
    {
      "inputs": [
        {
          "internalType": "address",
          "name": "token",
          "type": "address"
        }
      ],
      "name": "payoutUndone",
      "outputs": [],
      "stateMutability": "nonpayable",
      "type": "function"
    },
    {
      "inputs": [],
      "name": "proxiableUUID",
      "outputs": [
        {
          "internalType": "bytes32",
          "name": "",
          "type": "bytes32"
        }
      ],
      "stateMutability": "view",
      "type": "function"
    },
    {
      "inputs": [
        {
          "internalType": "address",
          "name": "token",
          "type": "address"
        },
        {
          "internalType": "address",
          "name": "pool",
          "type": "address"
        }
      ],
      "name": "removeItem",
      "outputs": [],
      "stateMutability": "nonpayable",
      "type": "function"
    },
    {
      "inputs": [],
      "name": "removeItems",
      "outputs": [],
      "stateMutability": "nonpayable",
      "type": "function"
    },
    {
      "inputs": [
        {
          "internalType": "bytes32",
          "name": "role",
          "type": "bytes32"
        },
        {
          "internalType": "address",
          "name": "account",
          "type": "address"
        }
      ],
      "name": "renounceRole",
      "outputs": [],
      "stateMutability": "nonpayable",
      "type": "function"
    },
    {
      "inputs": [
        {
          "internalType": "bytes32",
          "name": "role",
          "type": "bytes32"
        },
        {
          "internalType": "address",
          "name": "account",
          "type": "address"
        }
      ],
      "name": "revokeRole",
      "outputs": [],
      "stateMutability": "nonpayable",
      "type": "function"
    },
    {
      "inputs": [
        {
          "internalType": "bool",
          "name": "_disabled",
          "type": "bool"
        },
        {
          "internalType": "bool",
          "name": "_undoneDisabled",
          "type": "bool"
        }
      ],
      "name": "setDisabled",
      "outputs": [],
      "stateMutability": "nonpayable",
      "type": "function"
    },
    {
      "inputs": [
        {
          "internalType": "bytes4",
          "name": "interfaceId",
          "type": "bytes4"
        }
      ],
      "name": "supportsInterface",
      "outputs": [
        {
          "internalType": "bool",
          "name": "",
          "type": "bool"
        }
      ],
      "stateMutability": "view",
      "type": "function"
    },
    {
      "inputs": [],
      "name": "undoneDisabled",
      "outputs": [
        {
          "internalType": "bool",
          "name": "",
          "type": "bool"
        }
      ],
      "stateMutability": "view",
      "type": "function"
    },
    {
      "inputs": [
        {
          "internalType": "address",
          "name": "newImplementation",
          "type": "address"
        }
      ],
      "name": "upgradeTo",
      "outputs": [],
      "stateMutability": "nonpayable",
      "type": "function"
    },
    {
      "inputs": [
        {
          "internalType": "address",
          "name": "newImplementation",
          "type": "address"
        },
        {
          "internalType": "bytes",
          "name": "data",
          "type": "bytes"
        }
      ],
      "name": "upgradeToAndCall",
      "outputs": [],
      "stateMutability": "payable",
      "type": "function"
    }
  ],
  "numDeployments": 4,
  "solcInputHash": "fb6d216f3e01757e00fb0b32c65b12fa",
  "bytecode": "0x60a06040523060601b6080523480156200001857600080fd5b50600054610100900460ff16158080156200003a5750600054600160ff909116105b806200006a575062000057306200014460201b620029981760201c565b1580156200006a575060005460ff166001145b620000d25760405162461bcd60e51b815260206004820152602e60248201527f496e697469616c697a61626c653a20636f6e747261637420697320616c72656160448201526d191e481a5b9a5d1a585b1a5e995960921b606482015260840160405180910390fd5b6000805460ff191660011790558015620000f6576000805461ff0019166101001790555b80156200013d576000805461ff0019169055604051600181527f7f26b83ff96e1f2b6a682f133852f6798a09c465da95921460cefb38474024989060200160405180910390a15b5062000153565b6001600160a01b03163b151590565b60805160601c6157fd6200018e6000396000818161064d0152818161068d01528181610d2a01528181610d6a0152610df901526157fd6000f3fe6080604052600436106101815760003560e01c80636e28e3d5116100d1578063bd0f10531161008a578063c6ff1fc011610064578063c6ff1fc01461044d578063d0b11c1e1461046c578063d547741f1461048c578063ee070805146104ac57600080fd5b8063bd0f1053146103c4578063bfb231d2146103f8578063c53963e61461042d57600080fd5b80636e28e3d51461031a5780638129fc1c1461033a57806391d148541461034f5780639d3f19c61461036f5780639d433fb51461038f578063a217fddf146103af57600080fd5b80633659cfe61161013e578063410d59cc11610118578063410d59cc146102c85780634f1ef286146102dd57806352d1902d146102f05780636bc828391461030557600080fd5b80633659cfe61461026c57806339e18a2c1461028c5780633ca34eae1461029b57600080fd5b806301ffc9a714610186578063194f4795146101bb5780631c462e97146101da578063248a9ca3146101fc5780632f2ff15d1461022c57806336568abe1461024c575b600080fd5b34801561019257600080fd5b506101a66101a1366004614ccb565b6104c6565b60405190151581526020015b60405180910390f35b3480156101c757600080fd5b5060fb545b6040519081526020016101b2565b3480156101e657600080fd5b506101fa6101f5366004614c46565b6104fd565b005b34801561020857600080fd5b506101cc610217366004614c74565b60009081526065602052604090206001015490565b34801561023857600080fd5b506101fa610247366004614ca6565b61059a565b34801561025857600080fd5b506101fa610267366004614ca6565b6105c4565b34801561027857600080fd5b506101fa6102873660046149ce565b610642565b34801561029857600080fd5b50005b3480156102a757600080fd5b506102bb6102b63660046149ce565b610724565b6040516101b29190614ff9565b3480156102d457600080fd5b506102bb610ab8565b6101fa6102eb366004614a41565b610d1f565b3480156102fc57600080fd5b506101cc610dec565b34801561031157600080fd5b506101fa610e9f565b34801561032657600080fd5b506101fa6103353660046149ce565b610f8b565b34801561034657600080fd5b506101fa61133a565b34801561035b57600080fd5b506101a661036a366004614ca6565b611404565b34801561037b57600080fd5b506101fa61038a3660046149ce565b61142f565b34801561039b57600080fd5b506101fa6103aa366004614aa4565b611787565b3480156103bb57600080fd5b506101cc600081565b3480156103d057600080fd5b506101cc7f3eb675f159e6ca6cf5de6bfbbc8c4521cfd428f5e9166e51094d5898504caf2d81565b34801561040457600080fd5b50610418610413366004614c74565b6117f4565b6040516101b299989796959493929190614f74565b34801561043957600080fd5b506101fa610448366004614a08565b611993565b34801561045957600080fd5b5060fc546101a690610100900460ff1681565b34801561047857600080fd5b506101fa610487366004614cf5565b6121de565b34801561049857600080fd5b506101fa6104a7366004614ca6565b612973565b3480156104b857600080fd5b5060fc546101a69060ff1681565b60006001600160e01b03198216637965db0b60e01b14806104f757506301ffc9a760e01b6001600160e01b03198316145b92915050565b610508600033611404565b61052d5760405162461bcd60e51b815260040161052490615360565b60405180910390fd5b60fc805461ffff191683151561ff00191617610100831515810291909117918290556040805160ff8085161515825292909304909116151560208301527f9b6a664688f9a7f55cccf4a1ab507cd483c9e3547c13d1e48f247c749ab27feb91015b60405180910390a15050565b6000828152606560205260409020600101546105b5816129a7565b6105bf83836129b1565b505050565b6001600160a01b03811633146106345760405162461bcd60e51b815260206004820152602f60248201527f416363657373436f6e74726f6c3a2063616e206f6e6c792072656e6f756e636560448201526e103937b632b9903337b91039b2b63360891b6064820152608401610524565b61063e8282612a37565b5050565b306001600160a01b037f000000000000000000000000000000000000000000000000000000000000000016141561068b5760405162461bcd60e51b81526004016105249061527a565b7f00000000000000000000000000000000000000000000000000000000000000006001600160a01b03166106d4600080516020615761833981519152546001600160a01b031690565b6001600160a01b0316146106fa5760405162461bcd60e51b8152600401610524906152c6565b61070381612a9e565b6040805160008082526020820190925261071f91839190612aa9565b50565b565b60606000805b60fb5481101561079157836001600160a01b031660fb828154811061075157610751615711565b60009182526020909120601190910201546001600160a01b0316141561077f578161077b8161564d565b9250505b806107898161564d565b91505061072a565b506000816001600160401b038111156107ac576107ac615727565b6040519080825280602002602001820160405280156107e557816020015b6107d26145a3565b8152602001906001900390816107ca5790505b5090506000805b60fb54811015610aae57856001600160a01b031660fb828154811061081357610813615711565b60009182526020909120601190910201546001600160a01b03161415610a9c57600060fb828154811061084857610848615711565b60009182526020918290206040805161014081018252601190930290910180546001600160a01b039081168452600182015416938301939093526002830180549293929184019161089890615612565b80601f01602080910402602001604051908101604052809291908181526020018280546108c490615612565b80156109115780601f106108e657610100808354040283529160200191610911565b820191906000526020600020905b8154815290600101906020018083116108f457829003601f168201915b50505091835250506003828101546001600160a01b0381166020840152604090920191600160a01b900460ff169081111561094e5761094e6156e5565b600381111561095f5761095f6156e5565b815260048201546001600160a01b0316602082015260058201805460409092019161098990615612565b80601f01602080910402602001604051908101604052809291908181526020018280546109b590615612565b8015610a025780601f106109d757610100808354040283529160200191610a02565b820191906000526020600020905b8154815290600101906020018083116109e557829003601f168201915b5050509183525050600682015462ffffff81166020830152630100000090046001600160a01b03166040808301919091528051610140810191829052606090920191906007840190600a9082845b815481526020019060010190808311610a5057505050505081525050905080848481518110610a8157610a81615711565b60200260200101819052508280610a979061564d565b935050505b80610aa68161564d565b9150506107ec565b5090949350505050565b606060fb805480602002602001604051908101604052809291908181526020016000905b82821015610d1657600084815260209081902060408051610140810182526011860290920180546001600160a01b0390811684526001820154169383019390935260028301805492939291840191610b3390615612565b80601f0160208091040260200160405190810160405280929190818152602001828054610b5f90615612565b8015610bac5780601f10610b8157610100808354040283529160200191610bac565b820191906000526020600020905b815481529060010190602001808311610b8f57829003601f168201915b50505091835250506003828101546001600160a01b0381166020840152604090920191600160a01b900460ff1690811115610be957610be96156e5565b6003811115610bfa57610bfa6156e5565b815260048201546001600160a01b03166020820152600582018054604090920191610c2490615612565b80601f0160208091040260200160405190810160405280929190818152602001828054610c5090615612565b8015610c9d5780601f10610c7257610100808354040283529160200191610c9d565b820191906000526020600020905b815481529060010190602001808311610c8057829003601f168201915b5050509183525050600682015462ffffff81166020830152630100000090046001600160a01b03166040808301919091528051610140810191829052606090920191906007840190600a9082845b815481526020019060010190808311610ceb5750505050508152505081526020019060010190610adc565b50505050905090565b306001600160a01b037f0000000000000000000000000000000000000000000000000000000000000000161415610d685760405162461bcd60e51b81526004016105249061527a565b7f00000000000000000000000000000000000000000000000000000000000000006001600160a01b0316610db1600080516020615761833981519152546001600160a01b031690565b6001600160a01b031614610dd75760405162461bcd60e51b8152600401610524906152c6565b610de082612a9e565b61063e82826001612aa9565b6000306001600160a01b037f00000000000000000000000000000000000000000000000000000000000000001614610e8c5760405162461bcd60e51b815260206004820152603860248201527f555550535570677261646561626c653a206d757374206e6f742062652063616c60448201527f6c6564207468726f7567682064656c656761746563616c6c00000000000000006064820152608401610524565b5060008051602061576183398151915290565b610eaa600033611404565b610ec65760405162461bcd60e51b815260040161052490615360565b60fb5460005b8181101561063e5760fb805480610ee557610ee56156fb565b60008281526020812060116000199093019283020180546001600160a01b03199081168255600182018054909116905590610f2360028301826145fc565b6003820180546001600160a81b03191690556004820180546001600160a01b0319169055610f556005830160006145fc565b6006820180546001600160b81b0319169055610f75600783016000614636565b5050905580610f838161564d565b915050610ecc565b610fb57f3eb675f159e6ca6cf5de6bfbbc8c4521cfd428f5e9166e51094d5898504caf2d33611404565b6110015760405162461bcd60e51b815260206004820152601b60248201527f43616c6c6572206973206e6f74207468652045584348414e47455200000000006044820152606401610524565b60fc5460ff1615611038576040517f2db5145a2d675741edae5a00c79aee42925aec079cd653aaa2745197e860b98e90600090a150565b60005b60fb5481101561063e57600060fb828154811061105a5761105a615711565b60009182526020918290206040805161014081018252601190930290910180546001600160a01b03908116845260018201541693830193909352600283018054929392918401916110aa90615612565b80601f01602080910402602001604051908101604052809291908181526020018280546110d690615612565b80156111235780601f106110f857610100808354040283529160200191611123565b820191906000526020600020905b81548152906001019060200180831161110657829003601f168201915b50505091835250506003828101546001600160a01b0381166020840152604090920191600160a01b900460ff1690811115611160576111606156e5565b6003811115611171576111716156e5565b815260048201546001600160a01b0316602082015260058201805460409092019161119b90615612565b80601f01602080910402602001604051908101604052809291908181526020018280546111c790615612565b80156112145780601f106111e957610100808354040283529160200191611214565b820191906000526020600020905b8154815290600101906020018083116111f757829003601f168201915b5050509183525050600682015462ffffff81166020830152630100000090046001600160a01b03166040808301919091528051610140810191829052606090920191906007840190600a9082845b815481526020019060010190808311611262575050505050815250509050826001600160a01b031681602001516001600160a01b0316146112a35750611328565b6001816080015160038111156112bb576112bb6156e5565b14156112cf576112ca81612c23565b611326565b6000816080015160038111156112e7576112e76156e5565b14156112f6576112ca81612cae565b60028160800151600381111561130e5761130e6156e5565b141561131d576112ca81612fff565b611326816133b0565b505b806113328161564d565b91505061103b565b600054610100900460ff161580801561135a5750600054600160ff909116105b806113745750303b158015611374575060005460ff166001145b6113905760405162461bcd60e51b815260040161052490615312565b6000805460ff1916600117905580156113b3576000805461ff0019166101001790555b6113bb613567565b801561071f576000805461ff0019169055604051600181527f7f26b83ff96e1f2b6a682f133852f6798a09c465da95921460cefb3847402498906020015b60405180910390a150565b60009182526065602090815260408084206001600160a01b0393909316845291905290205460ff1690565b6114597f3eb675f159e6ca6cf5de6bfbbc8c4521cfd428f5e9166e51094d5898504caf2d33611404565b6114a55760405162461bcd60e51b815260206004820152601b60248201527f43616c6c6572206973206e6f74207468652045584348414e47455200000000006044820152606401610524565b60fc54610100900460ff16156114e1576040517f7cb60b97faae660ff5fd1cb0c9f3593e5bc26ba788495af03a4a708284aa3d4d90600090a150565b60005b60fb5481101561063e57600060fb828154811061150357611503615711565b60009182526020918290206040805161014081018252601190930290910180546001600160a01b039081168452600182015416938301939093526002830180549293929184019161155390615612565b80601f016020809104026020016040519081016040528092919081815260200182805461157f90615612565b80156115cc5780601f106115a1576101008083540402835291602001916115cc565b820191906000526020600020905b8154815290600101906020018083116115af57829003601f168201915b50505091835250506003828101546001600160a01b0381166020840152604090920191600160a01b900460ff1690811115611609576116096156e5565b600381111561161a5761161a6156e5565b815260048201546001600160a01b0316602082015260058201805460409092019161164490615612565b80601f016020809104026020016040519081016040528092919081815260200182805461167090615612565b80156116bd5780601f10611692576101008083540402835291602001916116bd565b820191906000526020600020905b8154815290600101906020018083116116a057829003601f168201915b5050509183525050600682015462ffffff81166020830152630100000090046001600160a01b03166040808301919091528051610140810191829052606090920191906007840190600a9082845b81548152602001906001019080831161170b575050505050815250509050826001600160a01b031681602001516001600160a01b03161461174c5750611775565b600381608001516003811115611764576117646156e5565b141561177357611773816135fb565b505b8061177f8161564d565b9150506114e4565b611792600033611404565b6117ae5760405162461bcd60e51b815260040161052490615360565b60005b815181101561063e5760008282815181106117ce576117ce615711565b602002602001015190506117e1816121de565b50806117ec8161564d565b9150506117b1565b60fb818154811061180457600080fd5b60009182526020909120601190910201805460018201546002830180546001600160a01b03938416955092909116929161183d90615612565b80601f016020809104026020016040519081016040528092919081815260200182805461186990615612565b80156118b65780601f1061188b576101008083540402835291602001916118b6565b820191906000526020600020905b81548152906001019060200180831161189957829003601f168201915b505050506003830154600484015460058501805494956001600160a01b0380851696600160a01b90950460ff169550909216926118f290615612565b80601f016020809104026020016040519081016040528092919081815260200182805461191e90615612565b801561196b5780601f106119405761010080835404028352916020019161196b565b820191906000526020600020905b81548152906001019060200180831161194e57829003601f168201915b5050506006909301549192505062ffffff8116906001600160a01b0363010000009091041689565b61199e600033611404565b6119ba5760405162461bcd60e51b815260040161052490615360565b6001600160a01b038216611a005760405162461bcd60e51b815260206004820152600d60248201526c746f6b656e206973207a65726f60981b6044820152606401610524565b6001600160a01b038116611a455760405162461bcd60e51b815260206004820152600c60248201526b706f6f6c206973207a65726f60a01b6044820152606401610524565b60005b60fb548110156121a457600060fb8281548110611a6757611a67615711565b60009182526020918290206040805161014081018252601190930290910180546001600160a01b0390811684526001820154169383019390935260028301805492939291840191611ab790615612565b80601f0160208091040260200160405190810160405280929190818152602001828054611ae390615612565b8015611b305780601f10611b0557610100808354040283529160200191611b30565b820191906000526020600020905b815481529060010190602001808311611b1357829003601f168201915b50505091835250506003828101546001600160a01b0381166020840152604090920191600160a01b900460ff1690811115611b6d57611b6d6156e5565b6003811115611b7e57611b7e6156e5565b815260048201546001600160a01b03166020820152600582018054604090920191611ba890615612565b80601f0160208091040260200160405190810160405280929190818152602001828054611bd490615612565b8015611c215780601f10611bf657610100808354040283529160200191611c21565b820191906000526020600020905b815481529060010190602001808311611c0457829003601f168201915b5050509183525050600682015462ffffff81166020830152630100000090046001600160a01b03166040808301919091528051610140810191829052606090920191906007840190600a9082845b815481526020019060010190808311611c6f575050505050815250509050836001600160a01b031681602001516001600160a01b0316148015611cc75750826001600160a01b031681600001516001600160a01b0316145b1561219157815b60fb54611cdd906001906155b8565b8110156120a157600060fb611cf3836001615545565b81548110611d0357611d03615711565b60009182526020918290206040805161014081018252601190930290910180546001600160a01b0390811684526001820154169383019390935260028301805492939291840191611d5390615612565b80601f0160208091040260200160405190810160405280929190818152602001828054611d7f90615612565b8015611dcc5780601f10611da157610100808354040283529160200191611dcc565b820191906000526020600020905b815481529060010190602001808311611daf57829003601f168201915b50505091835250506003828101546001600160a01b0381166020840152604090920191600160a01b900460ff1690811115611e0957611e096156e5565b6003811115611e1a57611e1a6156e5565b815260048201546001600160a01b03166020820152600582018054604090920191611e4490615612565b80601f0160208091040260200160405190810160405280929190818152602001828054611e7090615612565b8015611ebd5780601f10611e9257610100808354040283529160200191611ebd565b820191906000526020600020905b815481529060010190602001808311611ea057829003601f168201915b5050509183525050600682015462ffffff81166020830152630100000090046001600160a01b03166040808301919091528051610140810191829052606090920191906007840190600a9082845b815481526020019060010190808311611f0b5750505050508152505090508060fb8381548110611f3d57611f3d615711565b6000918252602091829020835160119092020180546001600160a01b039283166001600160a01b03199182161782558484015160018301805491909416911617909155604083015180519192611f9b92600285019290910190614645565b506060820151600380830180546001600160a01b039093166001600160a01b031984168117825560808601519391926001600160a81b03199092161790600160a01b908490811115611fef57611fef6156e5565b021790555060a08201516004820180546001600160a01b0319166001600160a01b0390921691909117905560c08201518051612035916005840191602090910190614645565b5060e08201516006820180546101008501516001600160a01b03166301000000026001600160b81b031990911662ffffff90931692909217919091179055610120820151612089906007830190600a6146c9565b509050505080806120999061564d565b915050611cce565b5060fb8054806120b3576120b36156fb565b60008281526020812060116000199093019283020180546001600160a01b031990811682556001820180549091169055906120f160028301826145fc565b6003820180546001600160a81b03191690556004820180546001600160a01b03191690556121236005830160006145fc565b6006820180546001600160b81b0319169055612143600783016000614636565b50509055604080516001600160a01b038087168252851660208201527f68e2e4dc27ec3ffea1ce098b4fe6d29f6a1e663455d9a77a3bc859cc67027a2191015b60405180910390a150505050565b508061219c8161564d565b915050611a48565b5060405162461bcd60e51b815260206004820152600e60248201526d1a5d195b481b9bdd08199bdd5b9960921b6044820152606401610524565b6121e9600033611404565b6122055760405162461bcd60e51b815260040161052490615360565b60208101516001600160a01b031661224f5760405162461bcd60e51b815260206004820152600d60248201526c746f6b656e206973207a65726f60981b6044820152606401610524565b80516001600160a01b03166122955760405162461bcd60e51b815260206004820152600c60248201526b706f6f6c206973207a65726f60a01b6044820152606401610524565b6000816080015160038111156122ad576122ad6156e5565b14156122ff5760a08101516001600160a01b03166122fa5760405162461bcd60e51b815260206004820152600a602482015269746f206973207a65726f60b01b6044820152606401610524565b612367565b600281608001516003811115612317576123176156e5565b14156123675760608101516001600160a01b03166123675760405162461bcd60e51b815260206004820152600d60248201526c6272696265206973207a65726f60981b6044820152606401610524565b600160005b60fb5481101561276857600060fb828154811061238b5761238b615711565b60009182526020918290206040805161014081018252601190930290910180546001600160a01b03908116845260018201541693830193909352600283018054929392918401916123db90615612565b80601f016020809104026020016040519081016040528092919081815260200182805461240790615612565b80156124545780601f1061242957610100808354040283529160200191612454565b820191906000526020600020905b81548152906001019060200180831161243757829003601f168201915b50505091835250506003828101546001600160a01b0381166020840152604090920191600160a01b900460ff1690811115612491576124916156e5565b60038111156124a2576124a26156e5565b815260048201546001600160a01b031660208201526005820180546040909201916124cc90615612565b80601f01602080910402602001604051908101604052809291908181526020018280546124f890615612565b80156125455780601f1061251a57610100808354040283529160200191612545565b820191906000526020600020905b81548152906001019060200180831161252857829003601f168201915b5050509183525050600682015462ffffff81166020830152630100000090046001600160a01b03166040808301919091528051610140810191829052606090920191906007840190600a9082845b81548152602001906001019080831161259357505050505081525050905083602001516001600160a01b031681602001516001600160a01b03161480156125e85750835181516001600160a01b039081169116145b15612755578360fb838154811061260157612601615711565b6000918252602091829020835160119092020180546001600160a01b039283166001600160a01b0319918216178255848401516001830180549190941691161790915560408301518051919261265f92600285019290910190614645565b506060820151600380830180546001600160a01b039093166001600160a01b031984168117825560808601519391926001600160a81b03199092161790600160a01b9084908111156126b3576126b36156e5565b021790555060a08201516004820180546001600160a01b0319166001600160a01b0390921691909117905560c082015180516126f9916005840191602090910190614645565b5060e08201516006820180546101008501516001600160a01b03166301000000026001600160b81b031990911662ffffff9093169290921791909117905561012082015161274d906007830190600a6146c9565b506000945050505b50806127608161564d565b91505061236c565b5080156129275760fb805460018101825560009190915282517f3e7257b7272bb46d49cd6019b04ddee20da7c0cb13f7c1ec3391291b2ccebabc601190920291820180546001600160a01b03199081166001600160a01b039384161782556020808701517f3e7257b7272bb46d49cd6019b04ddee20da7c0cb13f7c1ec3391291b2ccebabd8601805490931694169390931790556040850151805186949293612835937f3e7257b7272bb46d49cd6019b04ddee20da7c0cb13f7c1ec3391291b2ccebabe01920190614645565b506060820151600380830180546001600160a01b039093166001600160a01b031984168117825560808601519391926001600160a81b03199092161790600160a01b908490811115612889576128896156e5565b021790555060a08201516004820180546001600160a01b0319166001600160a01b0390921691909117905560c082015180516128cf916005840191602090910190614645565b5060e08201516006820180546101008501516001600160a01b03166301000000026001600160b81b031990911662ffffff90931692909217919091179055610120820151612923906007830190600a6146c9565b5050505b602082015182516040517f2ab4ebfadf1dbb6985345a1d09dabe17cafc9f765b05fc738368c0ab2886ab039261058e9290916001600160a01b0392831681529116602082015260400190565b60008281526065602052604090206001015461298e816129a7565b6105bf8383612a37565b6001600160a01b03163b151590565b61071f8133613abc565b6129bb8282611404565b61063e5760008281526065602090815260408083206001600160a01b03851684529091529020805460ff191660011790556129f33390565b6001600160a01b0316816001600160a01b0316837f2f8788117e7eff1d82e926ec794901d17c78024a50270940304540a733656f0d60405160405180910390a45050565b612a418282611404565b1561063e5760008281526065602090815260408083206001600160a01b0385168085529252808320805460ff1916905551339285917ff6391f5c32d9c69d2a47ea670b442974b53935d1edc7fd64eb21e047a839171b9190a45050565b600061063e816129a7565b7f4910fdfa16fed3260ed0e7147f7cc6da11a60208b5b9406d12a635614ffd91435460ff1615612adc576105bf83613b15565b826001600160a01b03166352d1902d6040518163ffffffff1660e01b815260040160206040518083038186803b158015612b1557600080fd5b505afa925050508015612b45575060408051601f3d908101601f19168201909252612b4291810190614c8d565b60015b612ba85760405162461bcd60e51b815260206004820152602e60248201527f45524331393637557067726164653a206e657720696d706c656d656e7461746960448201526d6f6e206973206e6f74205555505360901b6064820152608401610524565b6000805160206157618339815191528114612c175760405162461bcd60e51b815260206004820152602960248201527f45524331393637557067726164653a20756e737570706f727465642070726f786044820152681a58589b195555525160ba1b6064820152608401610524565b506105bf838383613bb1565b80600001516001600160a01b031663fff6cae96040518163ffffffff1660e01b8152600401600060405180830381600087803b158015612c6257600080fd5b505af1158015612c76573d6000803e3d6000fd5b50505060c082015160408084015184516020860151925160008051602061578183398151915295506113f99493906000908190615236565b60208101516040516370a0823160e01b81523060048201526000906001600160a01b038316906370a082319060240160206040518083038186803b158015612cf557600080fd5b505afa158015612d09573d6000803e3d6000fd5b505050506040513d601f19601f82011682018060405250810190612d2d9190614c8d565b835160405163bc25cf7760e01b81523060048201529192506001600160a01b03169063bc25cf7790602401600060405180830381600087803b158015612d7257600080fd5b505af1158015612d86573d6000803e3d6000fd5b50506040516370a0823160e01b8152306004820152600092508391506001600160a01b038516906370a082319060240160206040518083038186803b158015612dce57600080fd5b505afa158015612de2573d6000803e3d6000fd5b505050506040513d601f19601f82011682018060405250810190612e069190614c8d565b612e1091906155b8565b90508015612ff95760e084015162ffffff1615612f2f57600060648560e0015162ffffff1683612e409190615571565b612e4a919061555d565b9050612e5681836155b8565b91508015612f2d5761010085015160405163a9059cbb60e01b81526001600160a01b039182166004820152602481018390529085169063a9059cbb90604401602060405180830381600087803b158015612eaf57600080fd5b505af1158015612ec3573d6000803e3d6000fd5b505050506040513d601f19601f82011682018060405250810190612ee79190614c29565b506000805160206157818339815191528560c00151866040015187600001518860200151858a6101000151604051612f24969594939291906151f2565b60405180910390a15b505b8015612ff95760a084015160405163a9059cbb60e01b81526001600160a01b039182166004820152602481018390529084169063a9059cbb90604401602060405180830381600087803b158015612f8557600080fd5b505af1158015612f99573d6000803e3d6000fd5b505050506040513d601f19601f82011682018060405250810190612fbd9190614c29565b506000805160206157818339815191528460c00151856040015186600001518760200151858960a00151604051612183969594939291906151f2565b50505050565b60208101516040516370a0823160e01b81523060048201526000906001600160a01b038316906370a082319060240160206040518083038186803b15801561304657600080fd5b505afa15801561305a573d6000803e3d6000fd5b505050506040513d601f19601f8201168201806040525081019061307e9190614c8d565b835160405163bc25cf7760e01b81523060048201529192506001600160a01b03169063bc25cf7790602401600060405180830381600087803b1580156130c357600080fd5b505af11580156130d7573d6000803e3d6000fd5b50506040516370a0823160e01b8152306004820152600092508391506001600160a01b038516906370a082319060240160206040518083038186803b15801561311f57600080fd5b505afa158015613133573d6000803e3d6000fd5b505050506040513d601f19601f820116820180604052508101906131579190614c8d565b61316191906155b8565b90508015612ff95760e084015162ffffff161561328057600060648560e0015162ffffff16836131919190615571565b61319b919061555d565b90506131a781836155b8565b9150801561327e5761010085015160405163a9059cbb60e01b81526001600160a01b039182166004820152602481018390529085169063a9059cbb90604401602060405180830381600087803b15801561320057600080fd5b505af1158015613214573d6000803e3d6000fd5b505050506040513d601f19601f820116820180604052508101906132389190614c29565b506000805160206157818339815191528560c00151866040015187600001518860200151858a6101000151604051613275969594939291906151ad565b60405180910390a15b505b8015612ff957606084015160405163095ea7b360e01b81526001600160a01b039182166004820152602481018390529084169063095ea7b390604401602060405180830381600087803b1580156132d657600080fd5b505af11580156132ea573d6000803e3d6000fd5b505050506040513d601f19601f8201168201806040525081019061330e9190614c29565b506060840151602085015160405163b66503cf60e01b81526001600160a01b0391821660048201526024810184905291169063b66503cf90604401600060405180830381600087803b15801561336357600080fd5b505af1158015613377573d6000803e3d6000fd5b50505060c08501516040808701518751602089015160608a015193516000805160206157818339815191529650612183959488916151ad565b604080518082019091526008815267446566694564676560c01b60209182015260c082015180519101207f4c04dcde20edfa51954371436cce995c111184848cfa20cb4b611561c2c4e607141561071f578051604051630f63796960e01b81526060906001600160a01b03831690630f6379699061343990849061012e90600090600401615420565b600060405180830381600087803b15801561345357600080fd5b505af1158015613467573d6000803e3d6000fd5b50505050602083015183516040516370a0823160e01b81526001600160a01b039182166004820152600092839216906370a082319060240160206040518083038186803b1580156134b757600080fd5b505afa1580156134cb573d6000803e3d6000fd5b505050506040513d601f19601f820116820180604052508101906134ef9190614c8d565b905061012f548111156135115761012f5461350a90826155b8565b9150613523565b8061012f5461352091906155b8565b91505b60c085015160408087015187516020890151925160008051602061578183398151915294613558949093929188908390615133565b60405180910390a15050505050565b600054610100900460ff16158080156135875750600054600160ff909116105b806135a15750303b1580156135a1575060005460ff166001145b6135bd5760405162461bcd60e51b815260040161052490615312565b6000805460ff1916600117905580156135e0576000805461ff0019166101001790555b6135e8613bd6565b6135f0613bd6565b6113bb6000336129b1565b604080518082019091526008815267446566694564676560c01b60209182015260c082015180519101207f4c04dcde20edfa51954371436cce995c111184848cfa20cb4b611561c2c4e607141561071f576000816000015190506000816001600160a01b03166316f0115b6040518163ffffffff1660e01b815260040160206040518083038186803b15801561369057600080fd5b505afa1580156136a4573d6000803e3d6000fd5b505050506040513d601f19601f820116820180604052508101906136c891906149eb565b90506136d761012e60006146f6565b6000826001600160a01b0316633d1c387b6040518163ffffffff1660e01b815260040160006040518083038186803b15801561371257600080fd5b505afa158015613726573d6000803e3d6000fd5b505050506040513d6000823e601f3d908101601f1916820160405261374e9190810190614b60565b905060005b81518160ff1610156139c9576000828260ff168151811061377657613776615711565b60200260200101516000015190506000838360ff168151811061379b5761379b615711565b60200260200101516020015190506000856001600160a01b031663514ea4bf6137c5898686613c41565b6040518263ffffffff1660e01b81526004016137e391815260200190565b60a06040518083038186803b1580156137fb57600080fd5b505afa15801561380f573d6000803e3d6000fd5b505050506040513d601f19601f820116820180604052508101906138339190614d29565b5050505090506000866001600160a01b0316633850c7bd6040518163ffffffff1660e01b815260040160e06040518083038186803b15801561387457600080fd5b505afa158015613888573d6000803e3d6000fd5b505050506040513d601f19601f820116820180604052508101906138ac9190614d80565b50505050505090506000806138d3836138c488613c9d565b6138cd88613c9d565b87614077565b604080516080810182526002998a0b815297890b602089019081529088019283526060880191825261012e8054600181018255600091909152975160039098027fbdaadd9f750d0166045bf387a364eadd28ba243e04512a47282aa5147a68e37f8101805492518b0b62ffffff90811663010000000265ffffffffffff199094169a909b0b909a169890981717909755517fbdaadd9f750d0166045bf387a364eadd28ba243e04512a47282aa5147a68e380860155505092517fbdaadd9f750d0166045bf387a364eadd28ba243e04512a47282aa5147a68e38190920191909155508190506139c181615668565b915050613753565b50606080846001600160a01b0316630f637969838360016040518463ffffffff1660e01b81526004016139fe9392919061538e565b600060405180830381600087803b158015613a1857600080fd5b505af1158015613a2c573d6000803e3d6000fd5b50505050602086015186516040516370a0823160e01b81526001600160a01b0391821660048201529116906370a082319060240160206040518083038186803b158015613a7857600080fd5b505afa158015613a8c573d6000803e3d6000fd5b505050506040513d601f19601f82011682018060405250810190613ab09190614c8d565b61012f55505050505050565b613ac68282611404565b61063e57613ad381614113565b613ade836020614125565b604051602001613aef929190614eff565b60408051601f198184030181529082905262461bcd60e51b825261052491600401615120565b6001600160a01b0381163b613b825760405162461bcd60e51b815260206004820152602d60248201527f455243313936373a206e657720696d706c656d656e746174696f6e206973206e60448201526c1bdd08184818dbdb9d1c9858dd609a1b6064820152608401610524565b60008051602061576183398151915280546001600160a01b0319166001600160a01b0392909216919091179055565b613bba836142c0565b600082511180613bc75750805b156105bf57612ff98383614300565b600054610100900460ff166107225760405162461bcd60e51b815260206004820152602b60248201527f496e697469616c697a61626c653a20636f6e7472616374206973206e6f74206960448201526a6e697469616c697a696e6760a81b6064820152608401610524565b6040516bffffffffffffffffffffffff19606085901b166020820152600283810b60e890811b60348401529083900b901b6037820152600090603a016040516020818303038152906040528051906020012090505b9392505050565b60008060008360020b12613cb4578260020b613cc1565b8260020b613cc19061569c565b9050600060018216613cd757600160801b613ce9565b6ffffcb933bd6fad37aa2d162d1a5940015b70ffffffffffffffffffffffffffffffffff1690506002821615613d28576080613d23826ffff97272373d413259a46990580e213a615571565b901c90505b6004821615613d52576080613d4d826ffff2e50f5f656932ef12357cf3c7fdcc615571565b901c90505b6008821615613d7c576080613d77826fffe5caca7e10e4e61c3624eaa0941cd0615571565b901c90505b6010821615613da6576080613da1826fffcb9843d60f6159c9db58835c926644615571565b901c90505b6020821615613dd0576080613dcb826fff973b41fa98c081472e6896dfb254c0615571565b901c90505b6040821615613dfa576080613df5826fff2ea16466c96a3843ec78b326b52861615571565b901c90505b6080821615613e24576080613e1f826ffe5dee046a99a2a811c461f1969c3053615571565b901c90505b610100821615613e4f576080613e4a826ffcbe86c7900a88aedcffc83b479aa3a4615571565b901c90505b610200821615613e7a576080613e75826ff987a7253ac413176f2b074cf7815e54615571565b901c90505b610400821615613ea5576080613ea0826ff3392b0822b70005940c7a398e4b70f3615571565b901c90505b610800821615613ed0576080613ecb826fe7159475a2c29b7443b29c7fa6e889d9615571565b901c90505b611000821615613efb576080613ef6826fd097f3bdfd2022b8845ad8f792aa5825615571565b901c90505b612000821615613f26576080613f21826fa9f746462d870fdf8a65dc1f90e061e5615571565b901c90505b614000821615613f51576080613f4c826f70d869a156d2a1b890bb3df62baf32f7615571565b901c90505b618000821615613f7c576080613f77826f31be135f97d08fd981231505542fcfa6615571565b901c90505b62010000821615613fa8576080613fa3826f09aa508b5b7a84e1c677de54f3e99bc9615571565b901c90505b62020000821615613fd3576080613fce826e5d6af8dedb81196699c329225ee604615571565b901c90505b62040000821615613ffd576080613ff8826d2216e584f5fa1ea926041bedfe98615571565b901c90505b62080000821615614025576080614020826b048a170391f7dc42444e8fa2615571565b901c90505b60008460020b13156140405761403d8160001961555d565b90505b61404f64010000000082615688565b1561405b57600161405e565b60005b61406f9060ff16602083901c615545565b949350505050565b600080836001600160a01b0316856001600160a01b03161115614098579293925b846001600160a01b0316866001600160a01b0316116140c3576140bc8585856143f4565b915061410a565b836001600160a01b0316866001600160a01b031610156140fc576140e88685856143f4565b91506140f5858785614467565b905061410a565b614107858585614467565b90505b94509492505050565b60606104f76001600160a01b03831660145b60606000614134836002615571565b61413f906002615545565b6001600160401b0381111561415657614156615727565b6040519080825280601f01601f191660200182016040528015614180576020820181803683370190505b509050600360fc1b8160008151811061419b5761419b615711565b60200101906001600160f81b031916908160001a905350600f60fb1b816001815181106141ca576141ca615711565b60200101906001600160f81b031916908160001a90535060006141ee846002615571565b6141f9906001615545565b90505b6001811115614271576f181899199a1a9b1b9c1cb0b131b232b360811b85600f166010811061422d5761422d615711565b1a60f81b82828151811061424357614243615711565b60200101906001600160f81b031916908160001a90535060049490941c9361426a816155fb565b90506141fc565b508315613c965760405162461bcd60e51b815260206004820181905260248201527f537472696e67733a20686578206c656e67746820696e73756666696369656e746044820152606401610524565b6142c981613b15565b6040516001600160a01b038216907fbc7cd75a20ee27fd9adebab32041f755214dbc6bffa90cc0225b39da2e5c2d3b90600090a250565b60606001600160a01b0383163b6143685760405162461bcd60e51b815260206004820152602660248201527f416464726573733a2064656c65676174652063616c6c20746f206e6f6e2d636f6044820152651b9d1c9858dd60d21b6064820152608401610524565b600080846001600160a01b0316846040516143839190614ee3565b600060405180830381855af49150503d80600081146143be576040519150601f19603f3d011682016040523d82523d6000602084013e6143c3565b606091505b50915091506143eb82826040518060600160405280602781526020016157a1602791396144b1565b95945050505050565b6000826001600160a01b0316846001600160a01b03161115614414579192915b6001600160a01b03841661445d6fffffffffffffffffffffffffffffffff60601b606085901b166144458787615590565b6001600160a01b0316866001600160a01b03166144ca565b61406f919061555d565b6000826001600160a01b0316846001600160a01b03161115614487579192915b61406f6001600160801b03831661449e8686615590565b6001600160a01b0316600160601b6144ca565b606083156144c0575081613c96565b613c968383614579565b60008080600019858709858702925082811083820303915050806000141561450457600084116144f957600080fd5b508290049050613c96565b80841161451057600080fd5b60008486880960026001871981018816978890046003810283188082028403028082028403028082028403028082028403028082028403029081029092039091026000889003889004909101858311909403939093029303949094049190911702949350505050565b8151156145895781518083602001fd5b8060405162461bcd60e51b81526004016105249190615120565b6040805161014081018252600080825260208201819052606092820183905291810182905290608082019081526000602082018190526060604083018190528201819052608082015260a0016145f7614717565b905290565b50805461460890615612565b6000825580601f10614618575050565b601f01602090049060005260206000209081019061071f9190614736565b5061071f90600a810190614736565b82805461465190615612565b90600052602060002090601f01602090048101928261467357600085556146b9565b82601f1061468c57805160ff19168380011785556146b9565b828001600101855582156146b9579182015b828111156146b957825182559160200191906001019061469e565b506146c5929150614736565b5090565b82600a81019282156146b957916020028201828111156146b957825182559160200191906001019061469e565b508054600082556003029060005260206000209081019061071f919061474b565b604051806101400160405280600a906020820280368337509192915050565b5b808211156146c55760008155600101614737565b5b808211156146c557805465ffffffffffff19168155600060018201819055600282015560030161474c565b60006001600160401b0383111561479057614790615727565b6147a3601f8401601f19166020016154f2565b90508281528383830111156147b757600080fd5b828260208301376000602084830101529392505050565b80356147d98161573d565b919050565b600082601f8301126147ef57600080fd5b6040516101408082018281106001600160401b038211171561481357614813615727565b604052818482810187101561482757600080fd5b600092505b600a83101561484c5780358252600192909201916020918201910161482c565b509195945050505050565b8035600481106147d957600080fd5b8051600281900b81146147d957600080fd5b600082601f83011261488957600080fd5b613c9683833560208501614777565b600061026082840312156148ab57600080fd5b6148b36154a7565b90506148be826147ce565b81526148cc602083016147ce565b602082015260408201356001600160401b03808211156148eb57600080fd5b6148f785838601614878565b6040840152614908606085016147ce565b606084015261491960808501614857565b608084015261492a60a085016147ce565b60a084015260c084013591508082111561494357600080fd5b5061495084828501614878565b60c08301525061496260e083016149bb565b60e08201526101006149758184016147ce565b90820152610120614988848483016147de565b9082015292915050565b80516001600160801b03811681146147d957600080fd5b805161ffff811681146147d957600080fd5b803562ffffff811681146147d957600080fd5b6000602082840312156149e057600080fd5b8135613c968161573d565b6000602082840312156149fd57600080fd5b8151613c968161573d565b60008060408385031215614a1b57600080fd5b8235614a268161573d565b91506020830135614a368161573d565b809150509250929050565b60008060408385031215614a5457600080fd5b8235614a5f8161573d565b915060208301356001600160401b03811115614a7a57600080fd5b8301601f81018513614a8b57600080fd5b614a9a85823560208401614777565b9150509250929050565b60006020808385031215614ab757600080fd5b82356001600160401b0380821115614ace57600080fd5b818501915085601f830112614ae257600080fd5b8135614af5614af082615522565b6154f2565b80828252858201915085850189878560051b8801011115614b1557600080fd5b6000805b85811015614b5057823587811115614b2f578283fd5b614b3d8d8b838c0101614898565b8652509388019391880191600101614b19565b50919a9950505050505050505050565b60006020808385031215614b7357600080fd5b82516001600160401b03811115614b8957600080fd5b8301601f81018513614b9a57600080fd5b8051614ba8614af082615522565b80828252848201915084840188868560061b8701011115614bc857600080fd5b60009450845b84811015614c1b57604080838c031215614be6578687fd5b614bee6154d0565b614bf784614866565b8152614c04898501614866565b818a01528552938701939190910190600101614bce565b509098975050505050505050565b600060208284031215614c3b57600080fd5b8151613c9681615752565b60008060408385031215614c5957600080fd5b8235614c6481615752565b91506020830135614a3681615752565b600060208284031215614c8657600080fd5b5035919050565b600060208284031215614c9f57600080fd5b5051919050565b60008060408385031215614cb957600080fd5b823591506020830135614a368161573d565b600060208284031215614cdd57600080fd5b81356001600160e01b031981168114613c9657600080fd5b600060208284031215614d0757600080fd5b81356001600160401b03811115614d1d57600080fd5b61406f84828501614898565b600080600080600060a08688031215614d4157600080fd5b614d4a86614992565b94506020860151935060408601519250614d6660608701614992565b9150614d7460808701614992565b90509295509295909350565b600080600080600080600060e0888a031215614d9b57600080fd5b8751614da68161573d565b9650614db460208901614866565b9550614dc2604089016149a9565b9450614dd0606089016149a9565b9350614dde608089016149a9565b925060a088015160ff81168114614df457600080fd5b60c0890151909250614e0581615752565b8091505092959891949750929550565b600081518084526020808501945080840160005b83811015614e675781518051885283810151151584890152604080820151908901526060908101519088015260809096019590820190600101614e29565b509495945050505050565b8060005b600a811015612ff9578151845260209384019390910190600101614e76565b60048110614eb357634e487b7160e01b600052602160045260246000fd5b9052565b60008151808452614ecf8160208601602086016155cf565b601f01601f19169290920160200192915050565b60008251614ef58184602087016155cf565b9190910192915050565b7f416363657373436f6e74726f6c3a206163636f756e7420000000000000000000815260008351614f378160178501602088016155cf565b7001034b99036b4b9b9b4b733903937b6329607d1b6017918401918201528351614f688160288401602088016155cf565b01602801949350505050565b6001600160a01b038a81168252898116602083015261012060408301819052600091614fa28483018c614eb7565b9150808a166060850152614fb9608085018a614e95565b80881660a085015283820360c0850152614fd38288614eb7565b925062ffffff861660e085015280851661010085015250509a9950505050505050505050565b60006020808301818452808551808352604092508286019150828160051b87010184880160005b83811015614c1b57888303603f19018552815180516001600160a01b03168452610260818901516001600160a01b038116868b01525087820151818987015261506b82870182614eb7565b915050606080830151615088828801826001600160a01b03169052565b505060808083015161509c82880182614e95565b505060a0828101516001600160a01b03169086015260c080830151868303828801526150c88382614eb7565b9250505060e0808301516150e28288018262ffffff169052565b5050610100828101516001600160a01b031690860152610120918201519161510c81870184614e72565b509588019593505090860190600101615020565b602081526000613c966020830184614eb7565b60e08152600061514660e0830189614eb7565b8281038060208501526006825265437573746f6d60d01b6020830152604081016040850152506151796040820189614eb7565b6001600160a01b0397881660608501529587166080840152505060a081019290925290921660c09092019190915292915050565b60e0815260006151c060e0830189614eb7565b8281038060208501526005825264427269626560d81b6020830152604081016040850152506151796040820189614eb7565b60e08152600061520560e0830189614eb7565b8281038060208501526004825263536b696d60e01b6020830152604081016040850152506151796040820189614eb7565b60e08152600061524960e0830189614eb7565b828103806020850152600482526353796e6360e01b6020830152604081016040850152506151796040820189614eb7565b6020808252602c908201527f46756e6374696f6e206d7573742062652063616c6c6564207468726f7567682060408201526b19195b1959d85d1958d85b1b60a21b606082015260800190565b6020808252602c908201527f46756e6374696f6e206d7573742062652063616c6c6564207468726f7567682060408201526b6163746976652070726f787960a01b606082015260800190565b6020808252602e908201527f496e697469616c697a61626c653a20636f6e747261637420697320616c72656160408201526d191e481a5b9a5d1a585b1a5e995960921b606082015260800190565b6020808252601490820152735265737472696374656420746f2061646d696e7360601b604082015260600190565b60006080808352600081840152602060a0818501526153b060a0850188614e15565b84810360408681019190915287518083528389019284019060005b8181101561540a5784518051600290810b855287820151900b8785015284810151858501526060908101519084015293850193918601916001016153cb565b50508715156060880152945061406f9350505050565b60006080808352600081840152602060a08185015261544260a0850188614e15565b60408582038187015281885480845284840191508960005284600020935060005b8181101561540a578454600281810b810b855260189190911c810b810b87850152600180870154868601529086015460608501526003909501949287019201615463565b60405161014081016001600160401b03811182821017156154ca576154ca615727565b60405290565b604080519081016001600160401b03811182821017156154ca576154ca615727565b604051601f8201601f191681016001600160401b038111828210171561551a5761551a615727565b604052919050565b60006001600160401b0382111561553b5761553b615727565b5060051b60200190565b60008219821115615558576155586156b9565b500190565b60008261556c5761556c6156cf565b500490565b600081600019048311821515161561558b5761558b6156b9565b500290565b60006001600160a01b03838116908316818110156155b0576155b06156b9565b039392505050565b6000828210156155ca576155ca6156b9565b500390565b60005b838110156155ea5781810151838201526020016155d2565b83811115612ff95750506000910152565b60008161560a5761560a6156b9565b506000190190565b600181811c9082168061562657607f821691505b6020821081141561564757634e487b7160e01b600052602260045260246000fd5b50919050565b6000600019821415615661576156616156b9565b5060010190565b600060ff821660ff81141561567f5761567f6156b9565b60010192915050565b600082615697576156976156cf565b500690565b6000600160ff1b8214156156b2576156b26156b9565b5060000390565b634e487b7160e01b600052601160045260246000fd5b634e487b7160e01b600052601260045260246000fd5b634e487b7160e01b600052602160045260246000fd5b634e487b7160e01b600052603160045260246000fd5b634e487b7160e01b600052603260045260246000fd5b634e487b7160e01b600052604160045260246000fd5b6001600160a01b038116811461071f57600080fd5b801515811461071f57600080fdfe360894a13ba1a3210667c828492db98dca3e2076cc3735a920a3ca505d382bbccb414e813f34d59db194a1937a70c199f2a691ccd6ee32704df2b38170acb6ed416464726573733a206c6f772d6c6576656c2064656c65676174652063616c6c206661696c6564a26469706673582212203721ae05c7ea56c44074c5bafb248e39e6404b6f7019e69bdd371502750e3ab564736f6c63430008060033",
  "implementation": "0x4CE19C33B477250FE9C50172F6125Cf480259372",
  "devdoc": {
    "kind": "dev",
    "methods": {
      "constructor": {
        "custom:oz-upgrades-unsafe-allow": "constructor"
      },
      "getRoleAdmin(bytes32)": {
        "details": "Returns the admin role that controls `role`. See {grantRole} and {revokeRole}. To change a role's admin, use {_setRoleAdmin}."
      },
      "grantRole(bytes32,address)": {
        "details": "Grants `role` to `account`. If `account` had not been already granted `role`, emits a {RoleGranted} event. Requirements: - the caller must have ``role``'s admin role. May emit a {RoleGranted} event."
      },
      "hasRole(bytes32,address)": {
        "details": "Returns `true` if `account` has been granted `role`."
      },
      "proxiableUUID()": {
        "details": "Implementation of the ERC1822 {proxiableUUID} function. This returns the storage slot used by the implementation. It is used to validate the implementation's compatibility when performing an upgrade. IMPORTANT: A proxy pointing at a proxiable contract should not be considered proxiable itself, because this risks bricking a proxy that upgrades to it, by delegating to itself until out of gas. Thus it is critical that this function revert if invoked through a proxy. This is guaranteed by the `notDelegated` modifier."
      },
      "renounceRole(bytes32,address)": {
        "details": "Revokes `role` from the calling account. Roles are often managed via {grantRole} and {revokeRole}: this function's purpose is to provide a mechanism for accounts to lose their privileges if they are compromised (such as when a trusted device is misplaced). If the calling account had been revoked `role`, emits a {RoleRevoked} event. Requirements: - the caller must be `account`. May emit a {RoleRevoked} event."
      },
      "revokeRole(bytes32,address)": {
        "details": "Revokes `role` from `account`. If `account` had been granted `role`, emits a {RoleRevoked} event. Requirements: - the caller must have ``role``'s admin role. May emit a {RoleRevoked} event."
      },
      "supportsInterface(bytes4)": {
        "details": "See {IERC165-supportsInterface}."
      },
      "upgradeTo(address)": {
        "details": "Upgrade the implementation of the proxy to `newImplementation`. Calls {_authorizeUpgrade}. Emits an {Upgraded} event."
      },
      "upgradeToAndCall(address,bytes)": {
        "details": "Upgrade the implementation of the proxy to `newImplementation`, and subsequently execute the function call encoded in `data`. Calls {_authorizeUpgrade}. Emits an {Upgraded} event."
      }
    },
    "version": 1
  },
  "userdoc": {
    "kind": "user",
    "methods": {
      "addItem((address,address,string,address,uint8,address,string,uint24,address,uint256[10]))": {
        "notice": "Add new item to list or update exist item"
      },
      "addItems((address,address,string,address,uint8,address,string,uint24,address,uint256[10])[])": {
        "notice": "Add new items to list or update exist items"
      },
      "findItemsByPool(address)": {
        "notice": "Find items by pool address"
      },
      "getItems()": {
        "notice": "Get items"
      },
      "getItemsLength()": {
        "notice": "Get items length"
      },
      "payoutDone(address)": {
        "notice": "This function executing in payout after increase/decrease liquidity index for USD+|DAI+|ETS tokens see details: Exchange.sol | HedgeExchanger.sol"
      },
      "payoutUndone(address)": {
        "notice": "This function executing in payout before increase/decrease liquidity index for USD+|DAI+|ETS tokens see details: Exchange.sol | HedgeExchanger.sol"
      },
      "removeItem(address,address)": {
        "notice": "Remove item from items"
      },
      "removeItems()": {
        "notice": "Remove items"
      }
    },
    "version": 1
  },
  "storageLayout": {
    "storage": [
      {
        "astId": 804,
        "contract": "contracts/payoutlisteners/OptimismPayoutListener.sol:OptimismPayoutListener",
        "label": "_initialized",
        "offset": 0,
        "slot": "0",
        "type": "t_uint8"
      },
      {
        "astId": 807,
        "contract": "contracts/payoutlisteners/OptimismPayoutListener.sol:OptimismPayoutListener",
        "label": "_initializing",
        "offset": 1,
        "slot": "0",
        "type": "t_bool"
      },
      {
        "astId": 1427,
        "contract": "contracts/payoutlisteners/OptimismPayoutListener.sol:OptimismPayoutListener",
        "label": "__gap",
        "offset": 0,
        "slot": "1",
        "type": "t_array(t_uint256)50_storage"
      },
      {
        "astId": 1706,
        "contract": "contracts/payoutlisteners/OptimismPayoutListener.sol:OptimismPayoutListener",
        "label": "__gap",
        "offset": 0,
        "slot": "51",
        "type": "t_array(t_uint256)50_storage"
      },
      {
        "astId": 39,
        "contract": "contracts/payoutlisteners/OptimismPayoutListener.sol:OptimismPayoutListener",
        "label": "_roles",
        "offset": 0,
        "slot": "101",
        "type": "t_mapping(t_bytes32,t_struct(RoleData)34_storage)"
      },
      {
        "astId": 334,
        "contract": "contracts/payoutlisteners/OptimismPayoutListener.sol:OptimismPayoutListener",
        "label": "__gap",
        "offset": 0,
        "slot": "102",
        "type": "t_array(t_uint256)49_storage"
      },
      {
        "astId": 786,
        "contract": "contracts/payoutlisteners/OptimismPayoutListener.sol:OptimismPayoutListener",
        "label": "__gap",
        "offset": 0,
        "slot": "151",
        "type": "t_array(t_uint256)50_storage"
      },
      {
        "astId": 1101,
        "contract": "contracts/payoutlisteners/OptimismPayoutListener.sol:OptimismPayoutListener",
        "label": "__gap",
        "offset": 0,
        "slot": "201",
        "type": "t_array(t_uint256)50_storage"
      },
      {
        "astId": 5762,
        "contract": "contracts/payoutlisteners/OptimismPayoutListener.sol:OptimismPayoutListener",
        "label": "items",
        "offset": 0,
        "slot": "251",
        "type": "t_array(t_struct(Item)5753_storage)dyn_storage"
      },
      {
        "astId": 5764,
        "contract": "contracts/payoutlisteners/OptimismPayoutListener.sol:OptimismPayoutListener",
        "label": "disabled",
        "offset": 0,
        "slot": "252",
        "type": "t_bool"
      },
      {
        "astId": 5766,
        "contract": "contracts/payoutlisteners/OptimismPayoutListener.sol:OptimismPayoutListener",
        "label": "undoneDisabled",
        "offset": 1,
        "slot": "252",
        "type": "t_bool"
      },
      {
        "astId": 6758,
        "contract": "contracts/payoutlisteners/OptimismPayoutListener.sol:OptimismPayoutListener",
        "label": "__gap",
        "offset": 0,
        "slot": "253",
        "type": "t_array(t_uint256)49_storage"
      },
      {
        "astId": 6852,
        "contract": "contracts/payoutlisteners/OptimismPayoutListener.sol:OptimismPayoutListener",
        "label": "defiEdgeTicks",
        "offset": 0,
        "slot": "302",
        "type": "t_array(t_struct(NewTick)2715_storage)dyn_storage"
      },
      {
        "astId": 6854,
        "contract": "contracts/payoutlisteners/OptimismPayoutListener.sol:OptimismPayoutListener",
        "label": "tokenAmount",
        "offset": 0,
        "slot": "303",
        "type": "t_uint256"
      }
    ],
    "types": {
      "t_address": {
        "encoding": "inplace",
        "label": "address",
        "numberOfBytes": "20"
      },
      "t_array(t_struct(Item)5753_storage)dyn_storage": {
        "base": "t_struct(Item)5753_storage",
        "encoding": "dynamic_array",
        "label": "struct GlobalPayoutListener.Item[]",
        "numberOfBytes": "32"
      },
      "t_array(t_struct(NewTick)2715_storage)dyn_storage": {
        "base": "t_struct(NewTick)2715_storage",
        "encoding": "dynamic_array",
        "label": "struct IDefiEdgeTwapStrategy.NewTick[]",
        "numberOfBytes": "32"
      },
      "t_array(t_uint256)10_storage": {
        "base": "t_uint256",
        "encoding": "inplace",
        "label": "uint256[10]",
        "numberOfBytes": "320"
      },
      "t_array(t_uint256)49_storage": {
        "base": "t_uint256",
        "encoding": "inplace",
        "label": "uint256[49]",
        "numberOfBytes": "1568"
      },
      "t_array(t_uint256)50_storage": {
        "base": "t_uint256",
        "encoding": "inplace",
        "label": "uint256[50]",
        "numberOfBytes": "1600"
      },
      "t_bool": {
        "encoding": "inplace",
        "label": "bool",
        "numberOfBytes": "1"
      },
      "t_bytes32": {
        "encoding": "inplace",
        "label": "bytes32",
        "numberOfBytes": "32"
      },
      "t_enum(Operation)5758": {
        "encoding": "inplace",
        "label": "enum GlobalPayoutListener.Operation",
        "numberOfBytes": "1"
      },
      "t_int24": {
        "encoding": "inplace",
        "label": "int24",
        "numberOfBytes": "3"
      },
      "t_mapping(t_address,t_bool)": {
        "encoding": "mapping",
        "key": "t_address",
        "label": "mapping(address => bool)",
        "numberOfBytes": "32",
        "value": "t_bool"
      },
      "t_mapping(t_bytes32,t_struct(RoleData)34_storage)": {
        "encoding": "mapping",
        "key": "t_bytes32",
        "label": "mapping(bytes32 => struct AccessControlUpgradeable.RoleData)",
        "numberOfBytes": "32",
        "value": "t_struct(RoleData)34_storage"
      },
      "t_string_storage": {
        "encoding": "bytes",
        "label": "string",
        "numberOfBytes": "32"
      },
      "t_struct(Item)5753_storage": {
        "encoding": "inplace",
        "label": "struct GlobalPayoutListener.Item",
        "members": [
          {
            "astId": 5731,
            "contract": "contracts/payoutlisteners/OptimismPayoutListener.sol:OptimismPayoutListener",
            "label": "pool",
            "offset": 0,
            "slot": "0",
            "type": "t_address"
          },
          {
            "astId": 5733,
            "contract": "contracts/payoutlisteners/OptimismPayoutListener.sol:OptimismPayoutListener",
            "label": "token",
            "offset": 0,
            "slot": "1",
            "type": "t_address"
          },
          {
            "astId": 5735,
            "contract": "contracts/payoutlisteners/OptimismPayoutListener.sol:OptimismPayoutListener",
            "label": "poolName",
            "offset": 0,
            "slot": "2",
            "type": "t_string_storage"
          },
          {
            "astId": 5737,
            "contract": "contracts/payoutlisteners/OptimismPayoutListener.sol:OptimismPayoutListener",
            "label": "bribe",
            "offset": 0,
            "slot": "3",
            "type": "t_address"
          },
          {
            "astId": 5740,
            "contract": "contracts/payoutlisteners/OptimismPayoutListener.sol:OptimismPayoutListener",
            "label": "operation",
            "offset": 20,
            "slot": "3",
            "type": "t_enum(Operation)5758"
          },
          {
            "astId": 5742,
            "contract": "contracts/payoutlisteners/OptimismPayoutListener.sol:OptimismPayoutListener",
            "label": "to",
            "offset": 0,
            "slot": "4",
            "type": "t_address"
          },
          {
            "astId": 5744,
            "contract": "contracts/payoutlisteners/OptimismPayoutListener.sol:OptimismPayoutListener",
            "label": "dexName",
            "offset": 0,
            "slot": "5",
            "type": "t_string_storage"
          },
          {
            "astId": 5746,
            "contract": "contracts/payoutlisteners/OptimismPayoutListener.sol:OptimismPayoutListener",
            "label": "feePercent",
            "offset": 0,
            "slot": "6",
            "type": "t_uint24"
          },
          {
            "astId": 5748,
            "contract": "contracts/payoutlisteners/OptimismPayoutListener.sol:OptimismPayoutListener",
            "label": "feeReceiver",
            "offset": 3,
            "slot": "6",
            "type": "t_address"
          },
          {
            "astId": 5752,
            "contract": "contracts/payoutlisteners/OptimismPayoutListener.sol:OptimismPayoutListener",
            "label": "__gap",
            "offset": 0,
            "slot": "7",
            "type": "t_array(t_uint256)10_storage"
          }
        ],
        "numberOfBytes": "544"
      },
      "t_struct(NewTick)2715_storage": {
        "encoding": "inplace",
        "label": "struct IDefiEdgeTwapStrategy.NewTick",
        "members": [
          {
            "astId": 2708,
            "contract": "contracts/payoutlisteners/OptimismPayoutListener.sol:OptimismPayoutListener",
            "label": "tickLower",
            "offset": 0,
            "slot": "0",
            "type": "t_int24"
          },
          {
            "astId": 2710,
            "contract": "contracts/payoutlisteners/OptimismPayoutListener.sol:OptimismPayoutListener",
            "label": "tickUpper",
            "offset": 3,
            "slot": "0",
            "type": "t_int24"
          },
          {
            "astId": 2712,
            "contract": "contracts/payoutlisteners/OptimismPayoutListener.sol:OptimismPayoutListener",
            "label": "amount0",
            "offset": 0,
            "slot": "1",
            "type": "t_uint256"
          },
          {
            "astId": 2714,
            "contract": "contracts/payoutlisteners/OptimismPayoutListener.sol:OptimismPayoutListener",
            "label": "amount1",
            "offset": 0,
            "slot": "2",
            "type": "t_uint256"
          }
        ],
        "numberOfBytes": "96"
      },
      "t_struct(RoleData)34_storage": {
        "encoding": "inplace",
        "label": "struct AccessControlUpgradeable.RoleData",
        "members": [
          {
            "astId": 31,
            "contract": "contracts/payoutlisteners/OptimismPayoutListener.sol:OptimismPayoutListener",
            "label": "members",
            "offset": 0,
            "slot": "0",
            "type": "t_mapping(t_address,t_bool)"
          },
          {
            "astId": 33,
            "contract": "contracts/payoutlisteners/OptimismPayoutListener.sol:OptimismPayoutListener",
            "label": "adminRole",
            "offset": 0,
            "slot": "1",
            "type": "t_bytes32"
          }
        ],
        "numberOfBytes": "64"
      },
      "t_uint24": {
        "encoding": "inplace",
        "label": "uint24",
        "numberOfBytes": "3"
      },
      "t_uint256": {
        "encoding": "inplace",
        "label": "uint256",
        "numberOfBytes": "32"
      },
      "t_uint8": {
        "encoding": "inplace",
        "label": "uint8",
        "numberOfBytes": "1"
      }
    }
  }
}