{
  "address": "0x11732E21D9DaB3B6fF6e7DD9EdcB24770260c7B4",
  "abi": [
    {
      "inputs": [],
      "stateMutability": "nonpayable",
      "type": "constructor"
    },
    {
      "anonymous": false,
      "inputs": [
        {
          "indexed": false,
          "internalType": "address",
          "name": "previousAdmin",
          "type": "address"
        },
        {
          "indexed": false,
          "internalType": "address",
          "name": "newAdmin",
          "type": "address"
        }
      ],
      "name": "AdminChanged",
      "type": "event"
    },
    {
      "anonymous": false,
      "inputs": [
        {
          "indexed": false,
          "internalType": "address",
          "name": "value",
          "type": "address"
        }
      ],
      "name": "AssetUpdated",
      "type": "event"
    },
    {
      "anonymous": false,
      "inputs": [],
      "name": "Balance",
      "type": "event"
    },
    {
      "anonymous": false,
      "inputs": [
        {
          "indexed": true,
          "internalType": "address",
          "name": "beacon",
          "type": "address"
        }
      ],
      "name": "BeaconUpgraded",
      "type": "event"
    },
    {
      "anonymous": false,
      "inputs": [
        {
          "indexed": false,
          "internalType": "address",
          "name": "value",
          "type": "address"
        }
      ],
      "name": "CashStrategyAlreadySet",
      "type": "event"
    },
    {
      "anonymous": false,
      "inputs": [
        {
          "indexed": false,
          "internalType": "uint256",
          "name": "value",
          "type": "uint256"
        }
      ],
      "name": "CashStrategyRestaked",
      "type": "event"
    },
    {
      "anonymous": false,
      "inputs": [
        {
          "indexed": false,
          "internalType": "address",
          "name": "value",
          "type": "address"
        }
      ],
      "name": "CashStrategyUpdated",
      "type": "event"
    },
    {
      "anonymous": false,
      "inputs": [
        {
          "indexed": false,
          "internalType": "uint256",
          "name": "amount",
          "type": "uint256"
        },
        {
          "indexed": false,
          "internalType": "address",
          "name": "from",
          "type": "address"
        },
        {
          "indexed": false,
          "internalType": "address",
          "name": "to",
          "type": "address"
        }
      ],
      "name": "Exchanged",
      "type": "event"
    },
    {
      "anonymous": false,
      "inputs": [
        {
          "indexed": false,
          "internalType": "address",
          "name": "value",
          "type": "address"
        }
      ],
      "name": "ExchangerUpdated",
      "type": "event"
    },
    {
      "anonymous": false,
      "inputs": [
        {
          "indexed": false,
          "internalType": "uint8",
          "name": "version",
          "type": "uint8"
        }
      ],
      "name": "Initialized",
      "type": "event"
    },
    {
      "anonymous": false,
      "inputs": [
        {
          "indexed": false,
          "internalType": "address",
          "name": "value",
          "type": "address"
        }
      ],
      "name": "Mark2MarketUpdated",
      "type": "event"
    },
    {
      "anonymous": false,
      "inputs": [
        {
          "indexed": true,
          "internalType": "bytes32",
          "name": "role",
          "type": "bytes32"
        },
        {
          "indexed": true,
          "internalType": "bytes32",
          "name": "previousAdminRole",
          "type": "bytes32"
        },
        {
          "indexed": true,
          "internalType": "bytes32",
          "name": "newAdminRole",
          "type": "bytes32"
        }
      ],
      "name": "RoleAdminChanged",
      "type": "event"
    },
    {
      "anonymous": false,
      "inputs": [
        {
          "indexed": true,
          "internalType": "bytes32",
          "name": "role",
          "type": "bytes32"
        },
        {
          "indexed": true,
          "internalType": "address",
          "name": "account",
          "type": "address"
        },
        {
          "indexed": true,
          "internalType": "address",
          "name": "sender",
          "type": "address"
        }
      ],
      "name": "RoleGranted",
      "type": "event"
    },
    {
      "anonymous": false,
      "inputs": [
        {
          "indexed": true,
          "internalType": "bytes32",
          "name": "role",
          "type": "bytes32"
        },
        {
          "indexed": true,
          "internalType": "address",
          "name": "account",
          "type": "address"
        },
        {
          "indexed": true,
          "internalType": "address",
          "name": "sender",
          "type": "address"
        }
      ],
      "name": "RoleRevoked",
      "type": "event"
    },
    {
      "anonymous": false,
      "inputs": [
        {
          "indexed": false,
          "internalType": "uint256",
          "name": "index",
          "type": "uint256"
        },
        {
          "indexed": false,
          "internalType": "address",
          "name": "strategy",
          "type": "address"
        },
        {
          "indexed": false,
          "internalType": "uint256",
          "name": "minWeight",
          "type": "uint256"
        },
        {
          "indexed": false,
          "internalType": "uint256",
          "name": "targetWeight",
          "type": "uint256"
        },
        {
          "indexed": false,
          "internalType": "uint256",
          "name": "maxWeight",
          "type": "uint256"
        },
        {
          "indexed": false,
          "internalType": "bool",
          "name": "enabled",
          "type": "bool"
        },
        {
          "indexed": false,
          "internalType": "bool",
          "name": "enabledReward",
          "type": "bool"
        }
      ],
      "name": "StrategyWeightUpdated",
      "type": "event"
    },
    {
      "anonymous": false,
      "inputs": [
        {
          "indexed": true,
          "internalType": "address",
          "name": "implementation",
          "type": "address"
        }
      ],
      "name": "Upgraded",
      "type": "event"
    },
    {
      "inputs": [],
      "name": "DEFAULT_ADMIN_ROLE",
      "outputs": [
        {
          "internalType": "bytes32",
          "name": "",
          "type": "bytes32"
        }
      ],
      "stateMutability": "view",
      "type": "function"
    },
    {
      "inputs": [],
      "name": "EXCHANGER",
      "outputs": [
        {
          "internalType": "bytes32",
          "name": "",
          "type": "bytes32"
        }
      ],
      "stateMutability": "view",
      "type": "function"
    },
    {
      "inputs": [],
      "name": "TOTAL_WEIGHT",
      "outputs": [
        {
          "internalType": "uint256",
          "name": "",
          "type": "uint256"
        }
      ],
      "stateMutability": "view",
      "type": "function"
    },
    {
      "inputs": [],
      "name": "UPGRADER_ROLE",
      "outputs": [
        {
          "internalType": "bytes32",
          "name": "",
          "type": "bytes32"
        }
      ],
      "stateMutability": "view",
      "type": "function"
    },
    {
      "inputs": [],
      "name": "balance",
      "outputs": [],
      "stateMutability": "nonpayable",
      "type": "function"
    },
    {
      "inputs": [],
      "name": "cashStrategy",
      "outputs": [
        {
          "internalType": "contract IStrategy",
          "name": "",
          "type": "address"
        }
      ],
      "stateMutability": "view",
      "type": "function"
    },
    {
      "inputs": [],
      "name": "claimAndBalance",
      "outputs": [],
      "stateMutability": "nonpayable",
      "type": "function"
    },
    {
      "inputs": [
        {
          "internalType": "contract IERC20",
          "name": "_token",
          "type": "address"
        },
        {
          "internalType": "uint256",
          "name": "_amount",
          "type": "uint256"
        }
      ],
      "name": "deposit",
      "outputs": [],
      "stateMutability": "nonpayable",
      "type": "function"
    },
    {
      "inputs": [],
      "name": "exchanger",
      "outputs": [
        {
          "internalType": "address",
          "name": "",
          "type": "address"
        }
      ],
      "stateMutability": "view",
      "type": "function"
    },
    {
      "inputs": [],
      "name": "getAllStrategyWeights",
      "outputs": [
        {
          "components": [
            {
              "internalType": "address",
              "name": "strategy",
              "type": "address"
            },
            {
              "internalType": "uint256",
              "name": "minWeight",
              "type": "uint256"
            },
            {
              "internalType": "uint256",
              "name": "targetWeight",
              "type": "uint256"
            },
            {
              "internalType": "uint256",
              "name": "maxWeight",
              "type": "uint256"
            },
            {
              "internalType": "bool",
              "name": "enabled",
              "type": "bool"
            },
            {
              "internalType": "bool",
              "name": "enabledReward",
              "type": "bool"
            }
          ],
          "internalType": "struct IPortfolioManager.StrategyWeight[]",
          "name": "",
          "type": "tuple[]"
        }
      ],
      "stateMutability": "view",
      "type": "function"
    },
    {
      "inputs": [
        {
          "internalType": "bytes32",
          "name": "role",
          "type": "bytes32"
        }
      ],
      "name": "getRoleAdmin",
      "outputs": [
        {
          "internalType": "bytes32",
          "name": "",
          "type": "bytes32"
        }
      ],
      "stateMutability": "view",
      "type": "function"
    },
    {
      "inputs": [
        {
          "internalType": "address",
          "name": "strategy",
          "type": "address"
        }
      ],
      "name": "getStrategyWeight",
      "outputs": [
        {
          "components": [
            {
              "internalType": "address",
              "name": "strategy",
              "type": "address"
            },
            {
              "internalType": "uint256",
              "name": "minWeight",
              "type": "uint256"
            },
            {
              "internalType": "uint256",
              "name": "targetWeight",
              "type": "uint256"
            },
            {
              "internalType": "uint256",
              "name": "maxWeight",
              "type": "uint256"
            },
            {
              "internalType": "bool",
              "name": "enabled",
              "type": "bool"
            },
            {
              "internalType": "bool",
              "name": "enabledReward",
              "type": "bool"
            }
          ],
          "internalType": "struct IPortfolioManager.StrategyWeight",
          "name": "",
          "type": "tuple"
        }
      ],
      "stateMutability": "view",
      "type": "function"
    },
    {
      "inputs": [
        {
          "internalType": "bytes32",
          "name": "role",
          "type": "bytes32"
        },
        {
          "internalType": "address",
          "name": "account",
          "type": "address"
        }
      ],
      "name": "grantRole",
      "outputs": [],
      "stateMutability": "nonpayable",
      "type": "function"
    },
    {
      "inputs": [
        {
          "internalType": "bytes32",
          "name": "role",
          "type": "bytes32"
        },
        {
          "internalType": "address",
          "name": "account",
          "type": "address"
        }
      ],
      "name": "hasRole",
      "outputs": [
        {
          "internalType": "bool",
          "name": "",
          "type": "bool"
        }
      ],
      "stateMutability": "view",
      "type": "function"
    },
    {
      "inputs": [],
      "name": "initialize",
      "outputs": [],
      "stateMutability": "nonpayable",
      "type": "function"
    },
    {
      "inputs": [],
      "name": "m2m",
      "outputs": [
        {
          "internalType": "contract IMark2Market",
          "name": "",
          "type": "address"
        }
      ],
      "stateMutability": "view",
      "type": "function"
    },
    {
      "inputs": [],
      "name": "proxiableUUID",
      "outputs": [
        {
          "internalType": "bytes32",
          "name": "",
          "type": "bytes32"
        }
      ],
      "stateMutability": "view",
      "type": "function"
    },
    {
      "inputs": [
        {
          "internalType": "bytes32",
          "name": "role",
          "type": "bytes32"
        },
        {
          "internalType": "address",
          "name": "account",
          "type": "address"
        }
      ],
      "name": "renounceRole",
      "outputs": [],
      "stateMutability": "nonpayable",
      "type": "function"
    },
    {
      "inputs": [
        {
          "internalType": "bytes32",
          "name": "role",
          "type": "bytes32"
        },
        {
          "internalType": "address",
          "name": "account",
          "type": "address"
        }
      ],
      "name": "revokeRole",
      "outputs": [],
      "stateMutability": "nonpayable",
      "type": "function"
    },
    {
      "inputs": [
        {
          "internalType": "address",
          "name": "_asset",
          "type": "address"
        }
      ],
      "name": "setAsset",
      "outputs": [],
      "stateMutability": "nonpayable",
      "type": "function"
    },
    {
      "inputs": [
        {
          "internalType": "address",
          "name": "_cashStrategy",
          "type": "address"
        }
      ],
      "name": "setCashStrategy",
      "outputs": [],
      "stateMutability": "nonpayable",
      "type": "function"
    },
    {
      "inputs": [
        {
          "internalType": "address",
          "name": "_exchanger",
          "type": "address"
        }
      ],
      "name": "setExchanger",
      "outputs": [],
      "stateMutability": "nonpayable",
      "type": "function"
    },
    {
      "inputs": [
        {
          "internalType": "address",
          "name": "_m2m",
          "type": "address"
        }
      ],
      "name": "setMark2Market",
      "outputs": [],
      "stateMutability": "nonpayable",
      "type": "function"
    },
    {
      "inputs": [
        {
          "components": [
            {
              "internalType": "address",
              "name": "strategy",
              "type": "address"
            },
            {
              "internalType": "uint256",
              "name": "minWeight",
              "type": "uint256"
            },
            {
              "internalType": "uint256",
              "name": "targetWeight",
              "type": "uint256"
            },
            {
              "internalType": "uint256",
              "name": "maxWeight",
              "type": "uint256"
            },
            {
              "internalType": "bool",
              "name": "enabled",
              "type": "bool"
            },
            {
              "internalType": "bool",
              "name": "enabledReward",
              "type": "bool"
            }
          ],
          "internalType": "struct IPortfolioManager.StrategyWeight[]",
          "name": "_strategyWeights",
          "type": "tuple[]"
        }
      ],
      "name": "setStrategyWeights",
      "outputs": [],
      "stateMutability": "nonpayable",
      "type": "function"
    },
    {
      "inputs": [
        {
          "internalType": "address",
          "name": "",
          "type": "address"
        }
      ],
      "name": "strategyWeightPositions",
      "outputs": [
        {
          "internalType": "uint256",
          "name": "",
          "type": "uint256"
        }
      ],
      "stateMutability": "view",
      "type": "function"
    },
    {
      "inputs": [
        {
          "internalType": "uint256",
          "name": "",
          "type": "uint256"
        }
      ],
      "name": "strategyWeights",
      "outputs": [
        {
          "internalType": "address",
          "name": "strategy",
          "type": "address"
        },
        {
          "internalType": "uint256",
          "name": "minWeight",
          "type": "uint256"
        },
        {
          "internalType": "uint256",
          "name": "targetWeight",
          "type": "uint256"
        },
        {
          "internalType": "uint256",
          "name": "maxWeight",
          "type": "uint256"
        },
        {
          "internalType": "bool",
          "name": "enabled",
          "type": "bool"
        },
        {
          "internalType": "bool",
          "name": "enabledReward",
          "type": "bool"
        }
      ],
      "stateMutability": "view",
      "type": "function"
    },
    {
      "inputs": [
        {
          "internalType": "bytes4",
          "name": "interfaceId",
          "type": "bytes4"
        }
      ],
      "name": "supportsInterface",
      "outputs": [
        {
          "internalType": "bool",
          "name": "",
          "type": "bool"
        }
      ],
      "stateMutability": "view",
      "type": "function"
    },
    {
      "inputs": [
        {
          "internalType": "address",
          "name": "newImplementation",
          "type": "address"
        }
      ],
      "name": "upgradeTo",
      "outputs": [],
      "stateMutability": "nonpayable",
      "type": "function"
    },
    {
      "inputs": [
        {
          "internalType": "address",
          "name": "newImplementation",
          "type": "address"
        },
        {
          "internalType": "bytes",
          "name": "data",
          "type": "bytes"
        }
      ],
      "name": "upgradeToAndCall",
      "outputs": [],
      "stateMutability": "payable",
      "type": "function"
    },
    {
      "inputs": [
        {
          "internalType": "contract IERC20",
          "name": "_token",
          "type": "address"
        },
        {
          "internalType": "uint256",
          "name": "_amount",
          "type": "uint256"
        }
      ],
      "name": "withdraw",
      "outputs": [
        {
          "internalType": "uint256",
          "name": "",
          "type": "uint256"
        }
      ],
      "stateMutability": "nonpayable",
      "type": "function"
    }
  ],
  "numDeployments": 2,
  "solcInputHash": "e2e909bba26b191e04773b49a062baf5",
  "bytecode": "0x60a06040523060601b6080523480156200001857600080fd5b50600054610100900460ff16158080156200003a5750600054600160ff909116105b806200006a575062000057306200014460201b62001e081760201c565b1580156200006a575060005460ff166001145b620000d25760405162461bcd60e51b815260206004820152602e60248201527f496e697469616c697a61626c653a20636f6e747261637420697320616c72656160448201526d191e481a5b9a5d1a585b1a5e995960921b606482015260840160405180910390fd5b6000805460ff191660011790558015620000f6576000805461ff0019166101001790555b80156200013d576000805461ff0019169055604051600181527f7f26b83ff96e1f2b6a682f133852f6798a09c465da95921460cefb38474024989060200160405180910390a15b5062000153565b6001600160a01b03163b151590565b60805160601c613a6e6200018e600039600081816107ba015281816107fa01528181610dc601528181610e060152610e950152613a6e6000f3fe6080604052600436106101cd5760003560e01c806375e8bdfa116100f7578063c6bbf4cb11610095578063ed2a2f9d11610064578063ed2a2f9d14610573578063f281d4381461058a578063f3fef3a3146105ac578063f72c0d8b146105cc57600080fd5b8063c6bbf4cb146104fe578063d0d552dd14610513578063d547741f14610533578063da909b091461055357600080fd5b806391d14854116100d157806391d1485414610492578063a217fddf146104b2578063b69ef8a8146104c7578063bd0f1053146104dc57600080fd5b806375e8bdfa146103f55780638129fc1c146104225780638e6c8ab31461043757600080fd5b8063370447711161016f5780634f1ef2861161013e5780634f1ef2861461038d57806352d1902d146103a057806359d57c1a146103b55780636115640c146103d557600080fd5b8063370447711461030c5780633d92c38b1461032c57806347e7ef241461034d5780634d12fca41461036d57600080fd5b806329cb1bee116101ab57806329cb1bee146102725780632f2ff15d146102aa57806336568abe146102cc5780633659cfe6146102ec57600080fd5b806301ffc9a7146101d257806306e7392414610207578063248a9ca314610234575b600080fd5b3480156101de57600080fd5b506101f26101ed3660046133ec565b610600565b60405190151581526020015b60405180910390f35b34801561021357600080fd5b50610227610222366004613233565b610637565b6040516101fe919061380d565b34801561024057600080fd5b5061026461024f36600461338a565b60009081526065602052604090206001015490565b6040519081526020016101fe565b34801561027e57600080fd5b5060ff54610292906001600160a01b031681565b6040516001600160a01b0390911681526020016101fe565b3480156102b657600080fd5b506102ca6102c53660046133bc565b610702565b005b3480156102d857600080fd5b506102ca6102e73660046133bc565b61072c565b3480156102f857600080fd5b506102ca610307366004613233565b6107af565b34801561031857600080fd5b506102ca610327366004613233565b61088f565b34801561033857600080fd5b5061010054610292906001600160a01b031681565b34801561035957600080fd5b506102ca610368366004613416565b610932565b34801561037957600080fd5b5060fb54610292906001600160a01b031681565b6102ca61039b366004613250565b610dbb565b3480156103ac57600080fd5b50610264610e88565b3480156103c157600080fd5b506102ca6103d0366004613233565b610f3b565b3480156103e157600080fd5b506102ca6103f03660046132f8565b61128d565b34801561040157600080fd5b50610264610410366004613233565b60fd6020526000908152604090205481565b34801561042e57600080fd5b506102ca6115ea565b34801561044357600080fd5b5061045761045236600461338a565b611731565b604080516001600160a01b039097168752602087019590955293850192909252606084015215156080830152151560a082015260c0016101fe565b34801561049e57600080fd5b506101f26104ad3660046133bc565b611788565b3480156104be57600080fd5b50610264600081565b3480156104d357600080fd5b506102ca6117b3565b3480156104e857600080fd5b506102646000805160206139d283398151915281565b34801561050a57600080fd5b506102ca61180d565b34801561051f57600080fd5b506102ca61052e366004613233565b611853565b34801561053f57600080fd5b506102ca61054e3660046133bc565b6118ee565b34801561055f57600080fd5b506102ca61056e366004613233565b611913565b34801561057f57600080fd5b50610264620186a081565b34801561059657600080fd5b5061059f6119eb565b6040516101fe9190613658565b3480156105b857600080fd5b506102646105c7366004613416565b611a94565b3480156105d857600080fd5b506102647f189ab7a9244df0848122154315af71fe140f3db0fe014031783b0946b8c9d2e381565b60006001600160e01b03198216637965db0b60e01b148061063157506301ffc9a760e01b6001600160e01b03198316145b92915050565b6040805160c08101825260008082526020808301829052828401829052606083018290526080830182905260a083018290526001600160a01b038516825260fd9052919091205460fe8054909190811061069357610693613982565b60009182526020918290206040805160c081018252600590930290910180546001600160a01b031683526001810154938301939093526002830154908201526003820154606082015260049091015460ff8082161515608084015261010090910416151560a082015292915050565b60008281526065602052604090206001015461071d81611e17565b6107278383611e21565b505050565b6001600160a01b03811633146107a15760405162461bcd60e51b815260206004820152602f60248201527f416363657373436f6e74726f6c3a2063616e206f6e6c792072656e6f756e636560448201526e103937b632b9903337b91039b2b63360891b60648201526084015b60405180910390fd5b6107ab8282611ea7565b5050565b306001600160a01b037f00000000000000000000000000000000000000000000000000000000000000001614156107f85760405162461bcd60e51b815260040161079890613710565b7f00000000000000000000000000000000000000000000000000000000000000006001600160a01b03166108416000805160206139f2833981519152546001600160a01b031690565b6001600160a01b0316146108675760405162461bcd60e51b81526004016107989061375c565b61087081611f0e565b6040805160008082526020820190925261088c91839190611f38565b50565b61089a600033611788565b6108b65760405162461bcd60e51b8152600401610798906137a8565b6001600160a01b0381166108dc5760405162461bcd60e51b8152600401610798906137d6565b61010080546001600160a01b0319166001600160a01b0383169081179091556040519081527f2387291c358bb5414b9fdcdfeb40efddb696908065a6533e47bf60b395f7dcfd906020015b60405180910390a150565b61094a6000805160206139d283398151915233611788565b6109665760405162461bcd60e51b8152600401610798906136d9565b60ff546001600160a01b03166109ba5760405162461bcd60e51b815260206004820152601960248201527810d85cda081cdd1c985d1959de481b9bdd081cd95d081e595d603a1b6044820152606401610798565b60fc546001600160a01b03838116911614610a235760405162461bcd60e51b815260206004820152602360248201527f504d3a204f6e6c7920617373657420617661696c61626c6520746f206465706f6044820152621cda5d60ea1b6064820152608401610798565b60fc546040516370a0823160e01b81523060048201526000916001600160a01b0316906370a082319060240160206040518083038186803b158015610a6757600080fd5b505afa158015610a7b573d6000803e3d6000fd5b505050506040513d601f19601f82011682018060405250810190610a9f91906133a3565b905080610aab57505050565b806000805b60fe5460ff82161015610be35760fe8160ff1681548110610ad357610ad3613982565b600091825260209091206004600590920201015460ff16610af357610bd1565b60fe8160ff1681548110610b0957610b09613982565b6000918252602091829020600590910201546040805163146ce76760e31b815290516001600160a01b039092169263a3673b3892600480840193829003018186803b158015610b5757600080fd5b505afa158015610b6b573d6000803e3d6000fd5b505050506040513d601f19601f82011682018060405250810190610b8f91906133a3565b610b99908461384c565b925060fe8160ff1681548110610bb157610bb1613982565b90600052602060002090600502016002015482610bce919061384c565b91505b80610bdb8161390c565b915050610ab0565b5060ff546040805163146ce76760e31b815290516000926001600160a01b03169163a3673b38916004808301926020929190829003018186803b158015610c2957600080fd5b505afa158015610c3d573d6000803e3d6000fd5b505050506040513d601f19601f82011682018060405250810190610c6191906133a3565b60ff54909150600090610c7c906001600160a01b0316610637565b9050600083826060015186610c919190613878565b610c9b9190613864565b905080610ca8878561384c565b1015610da95760fc5460ff5460405163a9059cbb60e01b81526001600160a01b0391821660048201526024810189905291169063a9059cbb90604401602060405180830381600087803b158015610cfe57600080fd5b505af1158015610d12573d6000803e3d6000fd5b505050506040513d601f19601f82011682018060405250810190610d36919061336d565b5060ff5460fc546040516356e4bb9760e11b81526001600160a01b0391821660048201526024810189905291169063adc9772e90604401600060405180830381600087803b158015610d8757600080fd5b505af1158015610d9b573d6000803e3d6000fd5b505050505050505050505050565b610db16120b2565b5050505050505050565b306001600160a01b037f0000000000000000000000000000000000000000000000000000000000000000161415610e045760405162461bcd60e51b815260040161079890613710565b7f00000000000000000000000000000000000000000000000000000000000000006001600160a01b0316610e4d6000805160206139f2833981519152546001600160a01b031690565b6001600160a01b031614610e735760405162461bcd60e51b81526004016107989061375c565b610e7c82611f0e565b6107ab82826001611f38565b6000306001600160a01b037f00000000000000000000000000000000000000000000000000000000000000001614610f285760405162461bcd60e51b815260206004820152603860248201527f555550535570677261646561626c653a206d757374206e6f742062652063616c60448201527f6c6564207468726f7567682064656c656761746563616c6c00000000000000006064820152608401610798565b506000805160206139f283398151915290565b610f46600033611788565b610f625760405162461bcd60e51b8152600401610798906137a8565b6001600160a01b038116610f885760405162461bcd60e51b8152600401610798906137d6565b60ff546001600160a01b0382811691161415610fd7576040516001600160a01b03821681527f47ffb57d9975263bcf9c547a81d76b51e81fd87f6a69b8189e744921dda0005c90602001610927565b60ff546001600160a01b03161580159061107b5760ff5460fc5460405163f6f6b88160e01b81526001600160a01b039283169263f6f6b8819261102792911690600090309060019060040161362e565b602060405180830381600087803b15801561104157600080fd5b505af1158015611055573d6000803e3d6000fd5b505050506040513d601f19601f8201168201806040525081019061107991906133a3565b505b60ff80546001600160a01b0319166001600160a01b038416179055801561124d5760fc546040516370a0823160e01b81523060048201526000916001600160a01b0316906370a082319060240160206040518083038186803b1580156110e057600080fd5b505afa1580156110f4573d6000803e3d6000fd5b505050506040513d601f19601f8201168201806040525081019061111891906133a3565b9050801561124b5760fc5460ff5460405163a9059cbb60e01b81526001600160a01b0391821660048201526024810184905291169063a9059cbb90604401602060405180830381600087803b15801561117057600080fd5b505af1158015611184573d6000803e3d6000fd5b505050506040513d601f19601f820116820180604052508101906111a8919061336d565b5060ff5460fc546040516356e4bb9760e11b81526001600160a01b0391821660048201526024810184905291169063adc9772e90604401600060405180830381600087803b1580156111f957600080fd5b505af115801561120d573d6000803e3d6000fd5b505050507f0eab4ceb0e0bf74211211d85efd51fec6d84d5ce7719dd107af8818194bcd97f8160405161124291815260200190565b60405180910390a15b505b6040516001600160a01b03831681527fd82ec5aca3f5d594d6f9a7d8a97e332f1e6319efddf9b0bf445d87348ac4b0e39060200160405180910390a15050565b611298600033611788565b6112b45760405162461bcd60e51b8152600401610798906137a8565b6000805b60ff811683111561144957600084848360ff168181106112da576112da613982565b905060c002018036038101906112f09190613442565b80519091506001600160a01b031661134a5760405162461bcd60e51b815260206004820152601760248201527f77656967687420776974686f75742073747261746567790000000000000000006044820152606401610798565b8060400151816020015111156113b75760405162461bcd60e51b815260206004820152602c60248201527f6d696e5765696768742073686f756c646e277420686967686572207468616e2060448201526b1d185c99d95d15d95a59da1d60a21b6064820152608401610798565b8060600151816040015111156114245760405162461bcd60e51b815260206004820152602c60248201527f7461726765745765696768742073686f756c646e27742068696768657220746860448201526b185b881b585e15d95a59da1d60a21b6064820152608401610798565b6040810151611433908461384c565b92505080806114419061390c565b9150506112b8565b50620186a081146114ae5760405162461bcd60e51b815260206004820152602960248201527f546f74616c207461726765742073686f756c6420657175616c20746f20544f54604482015268105317d5d15251d21560ba1b6064820152608401610798565b60005b60ff811683111561154d576114f384848360ff168181106114d4576114d4613982565b905060c002018036038101906114ea9190613442565b8260ff166120bd565b8060ff1660fd600060fe8460ff168154811061151157611511613982565b600091825260208083206005909202909101546001600160a01b03168352820192909252604001902055806115458161390c565b9150506114b1565b5060fe548210156107275760fe54600090611569908490613897565b905060005b818160ff1610156115e35760fe80548061158a5761158a61396c565b60008281526020812060056000199093019283020180546001600160a01b031916815560018101829055600281018290556003810191909155600401805461ffff191690559055806115db8161390c565b91505061156e565b5050505050565b600054610100900460ff161580801561160a5750600054600160ff909116105b806116245750303b158015611624575060005460ff166001145b6116875760405162461bcd60e51b815260206004820152602e60248201527f496e697469616c697a61626c653a20636f6e747261637420697320616c72656160448201526d191e481a5b9a5d1a585b1a5e995960921b6064820152608401610798565b6000805460ff1916600117905580156116aa576000805461ff0019166101001790555b6116b2612235565b6116ba612235565b6116c5600033611e21565b6116ef7f189ab7a9244df0848122154315af71fe140f3db0fe014031783b0946b8c9d2e333611e21565b801561088c576000805461ff0019169055604051600181527f7f26b83ff96e1f2b6a682f133852f6798a09c465da95921460cefb384740249890602001610927565b60fe818154811061174157600080fd5b6000918252602090912060059091020180546001820154600283015460038401546004909401546001600160a01b0390931694509092909160ff8082169161010090041686565b60009182526065602090815260408084206001600160a01b0393909316845291905290205460ff1690565b6117be600033611788565b6117da5760405162461bcd60e51b8152600401610798906137a8565b6117e26120b2565b6040517f0ef67887023bd7b8411cf35c89d19498bc1c980684932ef5f5b0559bfac80d9a90600090a1565b6118256000805160206139d283398151915233611788565b6118415760405162461bcd60e51b8152600401610798906136d9565b6118496122a0565b6118516120b2565b565b61185e600033611788565b61187a5760405162461bcd60e51b8152600401610798906137a8565b6001600160a01b0381166118a05760405162461bcd60e51b8152600401610798906137d6565b60fc80546001600160a01b0319166001600160a01b0383169081179091556040519081527f80758ef37af3558d372b5a6b2d6906a49e09a13921e7de88ad18525a6f6d5a9a90602001610927565b60008281526065602052604090206001015461190981611e17565b6107278383611ea7565b61191e600033611788565b61193a5760405162461bcd60e51b8152600401610798906137a8565b6001600160a01b0381166119605760405162461bcd60e51b8152600401610798906137d6565b60fb54611985906000805160206139d2833981519152906001600160a01b03166118ee565b61199d6000805160206139d283398151915282610702565b60fb80546001600160a01b0319166001600160a01b0383169081179091556040519081527f1af34e943bb581f62718acd39caf1a640e9ff89789a197745e259d1f40cd9bd690602001610927565b606060fe805480602002602001604051908101604052809291908181526020016000905b82821015611a8b5760008481526020908190206040805160c0810182526005860290920180546001600160a01b0316835260018082015484860152600282015492840192909252600381015460608401526004015460ff8082161515608085015261010090910416151560a08301529083529092019101611a0f565b50505050905090565b6000611aae6000805160206139d283398151915233611788565b611aca5760405162461bcd60e51b8152600401610798906136d9565b60ff546001600160a01b0316611b1e5760405162461bcd60e51b815260206004820152601960248201527810d85cda081cdd1c985d1959de481b9bdd081cd95d081e595d603a1b6044820152606401610798565b60fc546001600160a01b03848116911614611b875760405162461bcd60e51b8152602060048201526024808201527f504d3a204f6e6c7920617373657420617661696c61626c6520746f20776974686044820152636472617760e01b6064820152608401610798565b60ff54604080516312bb732d60e11b815290516000926001600160a01b031691632576e65a916004808301926020929190829003018186803b158015611bcc57600080fd5b505afa158015611be0573d6000803e3d6000fd5b505050506040513d601f19601f82011682018060405250810190611c0491906133a3565b905082811115611ca15760ff5460fc5460405163f6f6b88160e01b81526001600160a01b039283169263f6f6b88192611c49929116908790309060009060040161362e565b602060405180830381600087803b158015611c6357600080fd5b505af1158015611c77573d6000803e3d6000fd5b505050506040513d601f19601f82011682018060405250810190611c9b91906133a3565b50611cab565b611cab8484612377565b6040516370a0823160e01b81523060048201526000906001600160a01b038616906370a082319060240160206040518083038186803b158015611ced57600080fd5b505afa158015611d01573d6000803e3d6000fd5b505050506040513d601f19601f82011682018060405250810190611d2591906133a3565b905083811015611d7857611d3881612cf5565b611d4185612cf5565b604051602001611d52929190613534565b60408051601f198184030181529082905262461bcd60e51b8252610798916004016136a6565b60fb5460405163a9059cbb60e01b81526001600160a01b039182166004820152602481018690529086169063a9059cbb90604401602060405180830381600087803b158015611dc657600080fd5b505af1158015611dda573d6000803e3d6000fd5b505050506040513d601f19601f82011682018060405250810190611dfe919061336d565b5092949350505050565b6001600160a01b03163b151590565b61088c8133612dfb565b611e2b8282611788565b6107ab5760008281526065602090815260408083206001600160a01b03851684529091529020805460ff19166001179055611e633390565b6001600160a01b0316816001600160a01b0316837f2f8788117e7eff1d82e926ec794901d17c78024a50270940304540a733656f0d60405160405180910390a45050565b611eb18282611788565b156107ab5760008281526065602090815260408083206001600160a01b0385168085529252808320805460ff1916905551339285917ff6391f5c32d9c69d2a47ea670b442974b53935d1edc7fd64eb21e047a839171b9190a45050565b7f189ab7a9244df0848122154315af71fe140f3db0fe014031783b0946b8c9d2e36107ab81611e17565b7f4910fdfa16fed3260ed0e7147f7cc6da11a60208b5b9406d12a635614ffd91435460ff1615611f6b5761072783612e39565b826001600160a01b03166352d1902d6040518163ffffffff1660e01b815260040160206040518083038186803b158015611fa457600080fd5b505afa925050508015611fd4575060408051601f3d908101601f19168201909252611fd1918101906133a3565b60015b6120375760405162461bcd60e51b815260206004820152602e60248201527f45524331393637557067726164653a206e657720696d706c656d656e7461746960448201526d6f6e206973206e6f74205555505360901b6064820152608401610798565b6000805160206139f283398151915281146120a65760405162461bcd60e51b815260206004820152602960248201527f45524331393637557067726164653a20756e737570706f727465642070726f786044820152681a58589b195555525160ba1b6064820152608401610798565b50610727838383612ed5565b611851600080612377565b60fe548015806120d65750816120d4600183613897565b105b156121235760006120e78284613897565b6120f290600161384c565b905060005b818160ff1610156121205760fe80546001018155600052806121188161390c565b9150506120f7565b50505b8260fe838154811061213757612137613982565b600091825260209182902083516005929092020180546001600160a01b039283166001600160a01b0319909116178155838301516001820155604080850151600283015560608086015160038401556080808701516004909401805460a09889015115156101000261ff00199615159690961661ffff1990911617949094179093558851898601518a8401518b8401518c8701518d8b015187518e815295909916998501999099529483019190915291810191909152918201529115159282019290925290151560c08201527fd94cc62d90f129d20553201fe591ba953b840f15c77827e542b9810e444161f29060e00160405180910390a1505050565b600054610100900460ff166118515760405162461bcd60e51b815260206004820152602b60248201527f496e697469616c697a61626c653a20636f6e7472616374206973206e6f74206960448201526a6e697469616c697a696e6760a81b6064820152608401610798565b60006122aa6119eb565b905060005b81518160ff1610156107ab576000828260ff16815181106122d2576122d2613982565b602002602001015190508060a0015115612364578051604051633bd73ee360e21b81523060048201526001600160a01b039091169063ef5cfb8c90602401602060405180830381600087803b15801561232a57600080fd5b505af115801561233e573d6000803e3d6000fd5b505050506040513d601f19601f8201168201806040525081019061236291906133a3565b505b508061236f8161390c565b9150506122af565b600061240a61010060009054906101000a90046001600160a01b03166001600160a01b031663890a8c4f6040518163ffffffff1660e01b815260040160206040518083038186803b1580156123cb57600080fd5b505afa1580156123df573d6000803e3d6000fd5b505050506040513d601f19601f8201168201806040525081019061240391906133a3565b6004612f00565b90506124168282613897565b905060006124226119eb565b60fc546040516370a0823160e01b81523060048201529192506000916001600160a01b03909116906370a082319060240160206040518083038186803b15801561246b57600080fd5b505afa15801561247f573d6000803e3d6000fd5b505050506040513d601f19601f820116820180604052508101906124a391906133a3565b90506000805b83518160ff1610156126a357838160ff16815181106124ca576124ca613982565b6020026020010151608001516124df57612691565b838160ff16815181106124f4576124f4613982565b602002602001015160400151600014156125c557838160ff168151811061251d5761251d613982565b60209081029190910101515160fc5460405163f6f6b88160e01b81526001600160a01b039283169263f6f6b8819261256292911690600090309060019060040161362e565b602060405180830381600087803b15801561257c57600080fd5b505af1158015612590573d6000803e3d6000fd5b505050506040513d601f19601f820116820180604052508101906125b491906133a3565b6125be908461384c565b9250612691565b838160ff16815181106125da576125da613982565b6020026020010151600001516001600160a01b031663a3673b386040518163ffffffff1660e01b815260040160206040518083038186803b15801561261e57600080fd5b505afa158015612632573d6000803e3d6000fd5b505050506040513d601f19601f8201168201806040525081019061265691906133a3565b612660908461384c565b9250838160ff168151811061267757612677613982565b6020026020010151604001518261268e919061384c565b91505b8061269b8161390c565b9150506124a9565b5060fc546001600160a01b038781169116141561272d57848210156127205760405162461bcd60e51b815260206004820152602d60248201527f547279696e67207769746864726177206d6f7265207468616e206c697175696460448201526c69747920617661696c61626c6560981b6064820152608401610798565b61272a8583613897565b91505b6000835167ffffffffffffffff81111561274957612749613998565b60405190808252806020026020018201604052801561279457816020015b60408051606081018252600080825260208083018290529282015282526000199092019101816127675790505b5090506000805b85518160ff161015612a3b57858160ff16815181106127bc576127bc613982565b6020026020010151608001516127d157612a29565b6000868260ff16815181106127e8576127e8613982565b602002602001015160400151600014156128045750600061283e565b84878360ff168151811061281a5761281a613982565b602002602001015160400151876128319190613878565b61283b9190613864565b90505b6000878360ff168151811061285557612855613982565b6020026020010151600001516001600160a01b031663a3673b386040518163ffffffff1660e01b815260040160206040518083038186803b15801561289957600080fd5b505afa1580156128ad573d6000803e3d6000fd5b505050506040513d601f19601f820116820180604052508101906128d191906133a3565b9050808214156128e2575050612a29565b808210156129a557878360ff16815181106128ff576128ff613982565b60209081029190910101515160fc546001600160a01b039182169163f6f6b881911661292b8585613897565b3060006040518563ffffffff1660e01b815260040161294d949392919061362e565b602060405180830381600087803b15801561296757600080fd5b505af115801561297b573d6000803e3d6000fd5b505050506040513d601f19601f8201168201806040525081019061299f91906133a3565b50612a26565b6040518060600160405280600115158152602001898560ff16815181106129ce576129ce613982565b6020026020010151600001516001600160a01b0316815260200182846129f49190613897565b815250858560ff1681518110612a0c57612a0c613982565b60200260200101819052508380612a229061390c565b9450505b50505b80612a338161390c565b91505061279b565b5060005b8160ff168160ff161015612c29576000838260ff1681518110612a6457612a64613982565b60200260200101516020015190506000848360ff1681518110612a8957612a89613982565b602090810291909101015160409081015160fc5491516370a0823160e01b81523060048201529092506000916001600160a01b0316906370a082319060240160206040518083038186803b158015612ae057600080fd5b505afa158015612af4573d6000803e3d6000fd5b505050506040513d601f19601f82011682018060405250810190612b1891906133a3565b905081811015612b26578091505b60fc5460405163a9059cbb60e01b81526001600160a01b038581166004830152602482018590529091169063a9059cbb90604401602060405180830381600087803b158015612b7457600080fd5b505af1158015612b88573d6000803e3d6000fd5b505050506040513d601f19601f82011682018060405250810190612bac919061336d565b5060fc546040516356e4bb9760e11b81526001600160a01b039182166004820152602481018490529084169063adc9772e90604401600060405180830381600087803b158015612bfb57600080fd5b505af1158015612c0f573d6000803e3d6000fd5b505050505050508080612c219061390c565b915050612a3f565b50610100546040805163890a8c4f60e01b8152905188926001600160a01b03169163890a8c4f916004808301926020929190829003018186803b158015612c6f57600080fd5b505afa158015612c83573d6000803e3d6000fd5b505050506040513d601f19601f82011682018060405250810190612ca791906133a3565b1015610db15760405162461bcd60e51b815260206004820152601a60248201527f504d3a204e4156206c657373207468616e2065787065637465640000000000006044820152606401610798565b606081612d195750506040805180820190915260018152600360fc1b602082015290565b8160005b8115612d435780612d2d816138f1565b9150612d3c9050600a83613864565b9150612d1d565b60008167ffffffffffffffff811115612d5e57612d5e613998565b6040519080825280601f01601f191660200182016040528015612d88576020820181803683370190505b5090505b8415612df357612d9d600183613897565b9150612daa600a8661392c565b612db590603061384c565b60f81b818381518110612dca57612dca613982565b60200101906001600160f81b031916908160001a905350612dec600a86613864565b9450612d8c565b949350505050565b612e058282611788565b6107ab57612e1d816001600160a01b03166014612f2a565b612e28836020612f2a565b604051602001611d529291906135b9565b6001600160a01b0381163b612ea65760405162461bcd60e51b815260206004820152602d60248201527f455243313936373a206e657720696d706c656d656e746174696f6e206973206e60448201526c1bdd08184818dbdb9d1c9858dd609a1b6064820152608401610798565b6000805160206139f283398151915280546001600160a01b0319166001600160a01b0392909216919091179055565b612ede836130c6565b600082511180612eeb5750805b1561072757612efa8383613106565b50505050565b6000612710612f0f8382613897565b612f199085613878565b612f239190613864565b9392505050565b60606000612f39836002613878565b612f4490600261384c565b67ffffffffffffffff811115612f5c57612f5c613998565b6040519080825280601f01601f191660200182016040528015612f86576020820181803683370190505b509050600360fc1b81600081518110612fa157612fa1613982565b60200101906001600160f81b031916908160001a905350600f60fb1b81600181518110612fd057612fd0613982565b60200101906001600160f81b031916908160001a9053506000612ff4846002613878565b612fff90600161384c565b90505b6001811115613077576f181899199a1a9b1b9c1cb0b131b232b360811b85600f166010811061303357613033613982565b1a60f81b82828151811061304957613049613982565b60200101906001600160f81b031916908160001a90535060049490941c93613070816138da565b9050613002565b508315612f235760405162461bcd60e51b815260206004820181905260248201527f537472696e67733a20686578206c656e67746820696e73756666696369656e746044820152606401610798565b6130cf81612e39565b6040516001600160a01b038216907fbc7cd75a20ee27fd9adebab32041f755214dbc6bffa90cc0225b39da2e5c2d3b90600090a250565b60606001600160a01b0383163b61316e5760405162461bcd60e51b815260206004820152602660248201527f416464726573733a2064656c65676174652063616c6c20746f206e6f6e2d636f6044820152651b9d1c9858dd60d21b6064820152608401610798565b600080846001600160a01b0316846040516131899190613518565b600060405180830381855af49150503d80600081146131c4576040519150601f19603f3d011682016040523d82523d6000602084013e6131c9565b606091505b50915091506131f18282604051806060016040528060278152602001613a12602791396131fa565b95945050505050565b60608315613209575081612f23565b8251156132195782518084602001fd5b8160405162461bcd60e51b815260040161079891906136a6565b60006020828403121561324557600080fd5b8135612f23816139ae565b6000806040838503121561326357600080fd5b823561326e816139ae565b915060208381013567ffffffffffffffff8082111561328c57600080fd5b818601915086601f8301126132a057600080fd5b8135818111156132b2576132b2613998565b6132c4601f8201601f1916850161381b565b915080825287848285010111156132da57600080fd5b80848401858401376000848284010152508093505050509250929050565b6000806020838503121561330b57600080fd5b823567ffffffffffffffff8082111561332357600080fd5b818501915085601f83011261333757600080fd5b81358181111561334657600080fd5b86602060c08302850101111561335b57600080fd5b60209290920196919550909350505050565b60006020828403121561337f57600080fd5b8151612f23816139c3565b60006020828403121561339c57600080fd5b5035919050565b6000602082840312156133b557600080fd5b5051919050565b600080604083850312156133cf57600080fd5b8235915060208301356133e1816139ae565b809150509250929050565b6000602082840312156133fe57600080fd5b81356001600160e01b031981168114612f2357600080fd5b6000806040838503121561342957600080fd5b8235613434816139ae565b946020939093013593505050565b600060c0828403121561345457600080fd5b60405160c0810181811067ffffffffffffffff8211171561347757613477613998565b6040528235613485816139ae565b8082525060208301356020820152604083013560408201526060830135606082015260808301356134b5816139c3565b608082015260a08301356134c8816139c3565b60a08201529392505050565b80516001600160a01b0316825260208082015190830152604080820151908301526060808201519083015260808082015115159083015260a0908101511515910152565b6000825161352a8184602087016138ae565b9190910192915050565b7f496e20706f7274666f6c696f4d616e61676572206e6f7420656e6f7567682066815274037b9103a3930b739b332b9102fb0b6b7bab73a1d1605d1b60208201526000835161358a8160358501602088016138ae565b620101e160ed1b60359184019182015283516135ad8160388401602088016138ae565b01603801949350505050565b7f416363657373436f6e74726f6c3a206163636f756e74200000000000000000008152600083516135f18160178501602088016138ae565b7001034b99036b4b9b9b4b733903937b6329607d1b60179184019182015283516136228160288401602088016138ae565b01602801949350505050565b6001600160a01b039485168152602081019390935292166040820152901515606082015260800190565b6020808252825182820181905260009190848201906040850190845b8181101561369a576136878385516134d4565b9284019260c09290920191600101613674565b50909695505050505050565b60208152600082518060208401526136c58160408501602087016138ae565b601f01601f19169190910160400192915050565b6020808252601b908201527f43616c6c6572206973206e6f74207468652045584348414e4745520000000000604082015260600190565b6020808252602c908201527f46756e6374696f6e206d7573742062652063616c6c6564207468726f7567682060408201526b19195b1959d85d1958d85b1b60a21b606082015260800190565b6020808252602c908201527f46756e6374696f6e206d7573742062652063616c6c6564207468726f7567682060408201526b6163746976652070726f787960a01b606082015260800190565b6020808252601490820152735265737472696374656420746f2061646d696e7360601b604082015260600190565b60208082526018908201527f5a65726f2061646472657373206e6f7420616c6c6f7765640000000000000000604082015260600190565b60c0810161063182846134d4565b604051601f8201601f1916810167ffffffffffffffff8111828210171561384457613844613998565b604052919050565b6000821982111561385f5761385f613940565b500190565b60008261387357613873613956565b500490565b600081600019048311821515161561389257613892613940565b500290565b6000828210156138a9576138a9613940565b500390565b60005b838110156138c95781810151838201526020016138b1565b83811115612efa5750506000910152565b6000816138e9576138e9613940565b506000190190565b600060001982141561390557613905613940565b5060010190565b600060ff821660ff81141561392357613923613940565b60010192915050565b60008261393b5761393b613956565b500690565b634e487b7160e01b600052601160045260246000fd5b634e487b7160e01b600052601260045260246000fd5b634e487b7160e01b600052603160045260246000fd5b634e487b7160e01b600052603260045260246000fd5b634e487b7160e01b600052604160045260246000fd5b6001600160a01b038116811461088c57600080fd5b801515811461088c57600080fdfe3eb675f159e6ca6cf5de6bfbbc8c4521cfd428f5e9166e51094d5898504caf2d360894a13ba1a3210667c828492db98dca3e2076cc3735a920a3ca505d382bbc416464726573733a206c6f772d6c6576656c2064656c65676174652063616c6c206661696c6564a264697066735822122028d7ae41a90e0a52637ba65de7ed32759613518362a4ee2de4061a8d9f2ba6d864736f6c63430008060033",
  "devdoc": {
    "kind": "dev",
    "methods": {
      "constructor": {
        "custom:oz-upgrades-unsafe-allow": "constructor"
      },
      "getRoleAdmin(bytes32)": {
        "details": "Returns the admin role that controls `role`. See {grantRole} and {revokeRole}. To change a role's admin, use {_setRoleAdmin}."
      },
      "grantRole(bytes32,address)": {
        "details": "Grants `role` to `account`. If `account` had not been already granted `role`, emits a {RoleGranted} event. Requirements: - the caller must have ``role``'s admin role. May emit a {RoleGranted} event."
      },
      "hasRole(bytes32,address)": {
        "details": "Returns `true` if `account` has been granted `role`."
      },
      "proxiableUUID()": {
        "details": "Implementation of the ERC1822 {proxiableUUID} function. This returns the storage slot used by the implementation. It is used to validate that the this implementation remains valid after an upgrade. IMPORTANT: A proxy pointing at a proxiable contract should not be considered proxiable itself, because this risks bricking a proxy that upgrades to it, by delegating to itself until out of gas. Thus it is critical that this function revert if invoked through a proxy. This is guaranteed by the `notDelegated` modifier."
      },
      "renounceRole(bytes32,address)": {
        "details": "Revokes `role` from the calling account. Roles are often managed via {grantRole} and {revokeRole}: this function's purpose is to provide a mechanism for accounts to lose their privileges if they are compromised (such as when a trusted device is misplaced). If the calling account had been revoked `role`, emits a {RoleRevoked} event. Requirements: - the caller must be `account`. May emit a {RoleRevoked} event."
      },
      "revokeRole(bytes32,address)": {
        "details": "Revokes `role` from `account`. If `account` had been granted `role`, emits a {RoleRevoked} event. Requirements: - the caller must have ``role``'s admin role. May emit a {RoleRevoked} event."
      },
      "supportsInterface(bytes4)": {
        "details": "See {IERC165-supportsInterface}."
      },
      "upgradeTo(address)": {
        "details": "Upgrade the implementation of the proxy to `newImplementation`. Calls {_authorizeUpgrade}. Emits an {Upgraded} event."
      },
      "upgradeToAndCall(address,bytes)": {
        "details": "Upgrade the implementation of the proxy to `newImplementation`, and subsequently execute the function call encoded in `data`. Calls {_authorizeUpgrade}. Emits an {Upgraded} event."
      }
    },
    "version": 1
  },
  "userdoc": {
    "kind": "user",
    "methods": {},
    "version": 1
  },
  "storageLayout": {
    "storage": [
      {
        "astId": 808,
        "contract": "contracts/PortfolioManager.sol:PortfolioManager",
        "label": "_initialized",
        "offset": 0,
        "slot": "0",
        "type": "t_uint8"
      },
      {
        "astId": 811,
        "contract": "contracts/PortfolioManager.sol:PortfolioManager",
        "label": "_initializing",
        "offset": 1,
        "slot": "0",
        "type": "t_bool"
      },
      {
        "astId": 2589,
        "contract": "contracts/PortfolioManager.sol:PortfolioManager",
        "label": "__gap",
        "offset": 0,
        "slot": "1",
        "type": "t_array(t_uint256)50_storage"
      },
      {
        "astId": 2919,
        "contract": "contracts/PortfolioManager.sol:PortfolioManager",
        "label": "__gap",
        "offset": 0,
        "slot": "51",
        "type": "t_array(t_uint256)50_storage"
      },
      {
        "astId": 39,
        "contract": "contracts/PortfolioManager.sol:PortfolioManager",
        "label": "_roles",
        "offset": 0,
        "slot": "101",
        "type": "t_mapping(t_bytes32,t_struct(RoleData)34_storage)"
      },
      {
        "astId": 338,
        "contract": "contracts/PortfolioManager.sol:PortfolioManager",
        "label": "__gap",
        "offset": 0,
        "slot": "102",
        "type": "t_array(t_uint256)49_storage"
      },
      {
        "astId": 790,
        "contract": "contracts/PortfolioManager.sol:PortfolioManager",
        "label": "__gap",
        "offset": 0,
        "slot": "151",
        "type": "t_array(t_uint256)50_storage"
      },
      {
        "astId": 1087,
        "contract": "contracts/PortfolioManager.sol:PortfolioManager",
        "label": "__gap",
        "offset": 0,
        "slot": "201",
        "type": "t_array(t_uint256)50_storage"
      },
      {
        "astId": 6701,
        "contract": "contracts/PortfolioManager.sol:PortfolioManager",
        "label": "exchanger",
        "offset": 0,
        "slot": "251",
        "type": "t_address"
      },
      {
        "astId": 6704,
        "contract": "contracts/PortfolioManager.sol:PortfolioManager",
        "label": "asset",
        "offset": 0,
        "slot": "252",
        "type": "t_contract(IERC20)3596"
      },
      {
        "astId": 6708,
        "contract": "contracts/PortfolioManager.sol:PortfolioManager",
        "label": "strategyWeightPositions",
        "offset": 0,
        "slot": "253",
        "type": "t_mapping(t_address,t_uint256)"
      },
      {
        "astId": 6712,
        "contract": "contracts/PortfolioManager.sol:PortfolioManager",
        "label": "strategyWeights",
        "offset": 0,
        "slot": "254",
        "type": "t_array(t_struct(StrategyWeight)9615_storage)dyn_storage"
      },
      {
        "astId": 6715,
        "contract": "contracts/PortfolioManager.sol:PortfolioManager",
        "label": "cashStrategy",
        "offset": 0,
        "slot": "255",
        "type": "t_contract(IStrategy)9730"
      },
      {
        "astId": 6718,
        "contract": "contracts/PortfolioManager.sol:PortfolioManager",
        "label": "m2m",
        "offset": 0,
        "slot": "256",
        "type": "t_contract(IMark2Market)9586"
      }
    ],
    "types": {
      "t_address": {
        "encoding": "inplace",
        "label": "address",
        "numberOfBytes": "20"
      },
      "t_array(t_struct(StrategyWeight)9615_storage)dyn_storage": {
        "base": "t_struct(StrategyWeight)9615_storage",
        "encoding": "dynamic_array",
        "label": "struct IPortfolioManager.StrategyWeight[]",
        "numberOfBytes": "32"
      },
      "t_array(t_uint256)49_storage": {
        "base": "t_uint256",
        "encoding": "inplace",
        "label": "uint256[49]",
        "numberOfBytes": "1568"
      },
      "t_array(t_uint256)50_storage": {
        "base": "t_uint256",
        "encoding": "inplace",
        "label": "uint256[50]",
        "numberOfBytes": "1600"
      },
      "t_bool": {
        "encoding": "inplace",
        "label": "bool",
        "numberOfBytes": "1"
      },
      "t_bytes32": {
        "encoding": "inplace",
        "label": "bytes32",
        "numberOfBytes": "32"
      },
      "t_contract(IERC20)3596": {
        "encoding": "inplace",
        "label": "contract IERC20",
        "numberOfBytes": "20"
      },
      "t_contract(IMark2Market)9586": {
        "encoding": "inplace",
        "label": "contract IMark2Market",
        "numberOfBytes": "20"
      },
      "t_contract(IStrategy)9730": {
        "encoding": "inplace",
        "label": "contract IStrategy",
        "numberOfBytes": "20"
      },
      "t_mapping(t_address,t_bool)": {
        "encoding": "mapping",
        "key": "t_address",
        "label": "mapping(address => bool)",
        "numberOfBytes": "32",
        "value": "t_bool"
      },
      "t_mapping(t_address,t_uint256)": {
        "encoding": "mapping",
        "key": "t_address",
        "label": "mapping(address => uint256)",
        "numberOfBytes": "32",
        "value": "t_uint256"
      },
      "t_mapping(t_bytes32,t_struct(RoleData)34_storage)": {
        "encoding": "mapping",
        "key": "t_bytes32",
        "label": "mapping(bytes32 => struct AccessControlUpgradeable.RoleData)",
        "numberOfBytes": "32",
        "value": "t_struct(RoleData)34_storage"
      },
      "t_struct(RoleData)34_storage": {
        "encoding": "inplace",
        "label": "struct AccessControlUpgradeable.RoleData",
        "members": [
          {
            "astId": 31,
            "contract": "contracts/PortfolioManager.sol:PortfolioManager",
            "label": "members",
            "offset": 0,
            "slot": "0",
            "type": "t_mapping(t_address,t_bool)"
          },
          {
            "astId": 33,
            "contract": "contracts/PortfolioManager.sol:PortfolioManager",
            "label": "adminRole",
            "offset": 0,
            "slot": "1",
            "type": "t_bytes32"
          }
        ],
        "numberOfBytes": "64"
      },
      "t_struct(StrategyWeight)9615_storage": {
        "encoding": "inplace",
        "label": "struct IPortfolioManager.StrategyWeight",
        "members": [
          {
            "astId": 9604,
            "contract": "contracts/PortfolioManager.sol:PortfolioManager",
            "label": "strategy",
            "offset": 0,
            "slot": "0",
            "type": "t_address"
          },
          {
            "astId": 9606,
            "contract": "contracts/PortfolioManager.sol:PortfolioManager",
            "label": "minWeight",
            "offset": 0,
            "slot": "1",
            "type": "t_uint256"
          },
          {
            "astId": 9608,
            "contract": "contracts/PortfolioManager.sol:PortfolioManager",
            "label": "targetWeight",
            "offset": 0,
            "slot": "2",
            "type": "t_uint256"
          },
          {
            "astId": 9610,
            "contract": "contracts/PortfolioManager.sol:PortfolioManager",
            "label": "maxWeight",
            "offset": 0,
            "slot": "3",
            "type": "t_uint256"
          },
          {
            "astId": 9612,
            "contract": "contracts/PortfolioManager.sol:PortfolioManager",
            "label": "enabled",
            "offset": 0,
            "slot": "4",
            "type": "t_bool"
          },
          {
            "astId": 9614,
            "contract": "contracts/PortfolioManager.sol:PortfolioManager",
            "label": "enabledReward",
            "offset": 1,
            "slot": "4",
            "type": "t_bool"
          }
        ],
        "numberOfBytes": "160"
      },
      "t_uint256": {
        "encoding": "inplace",
        "label": "uint256",
        "numberOfBytes": "32"
      },
      "t_uint8": {
        "encoding": "inplace",
        "label": "uint8",
        "numberOfBytes": "1"
      }
    }
  }
}