{
  "address": "0x95bfd5F980aCc358Ecaafa84Ae61571750F46b1E",
  "abi": [
    {
      "inputs": [],
      "stateMutability": "nonpayable",
      "type": "constructor"
    },
    {
      "anonymous": false,
      "inputs": [
        {
          "indexed": false,
          "internalType": "address",
          "name": "previousAdmin",
          "type": "address"
        },
        {
          "indexed": false,
          "internalType": "address",
          "name": "newAdmin",
          "type": "address"
        }
      ],
      "name": "AdminChanged",
      "type": "event"
    },
    {
      "anonymous": false,
      "inputs": [
        {
          "indexed": true,
          "internalType": "address",
          "name": "beacon",
          "type": "address"
        }
      ],
      "name": "BeaconUpgraded",
      "type": "event"
    },
    {
      "anonymous": false,
      "inputs": [
        {
          "indexed": false,
          "internalType": "uint8",
          "name": "version",
          "type": "uint8"
        }
      ],
      "name": "Initialized",
      "type": "event"
    },
    {
      "anonymous": false,
      "inputs": [
        {
          "indexed": false,
          "internalType": "address",
          "name": "value",
          "type": "address"
        }
      ],
      "name": "PortfolioManagerUpdated",
      "type": "event"
    },
    {
      "anonymous": false,
      "inputs": [
        {
          "indexed": false,
          "internalType": "uint256",
          "name": "amount",
          "type": "uint256"
        }
      ],
      "name": "Reward",
      "type": "event"
    },
    {
      "anonymous": false,
      "inputs": [
        {
          "indexed": true,
          "internalType": "bytes32",
          "name": "role",
          "type": "bytes32"
        },
        {
          "indexed": true,
          "internalType": "bytes32",
          "name": "previousAdminRole",
          "type": "bytes32"
        },
        {
          "indexed": true,
          "internalType": "bytes32",
          "name": "newAdminRole",
          "type": "bytes32"
        }
      ],
      "name": "RoleAdminChanged",
      "type": "event"
    },
    {
      "anonymous": false,
      "inputs": [
        {
          "indexed": true,
          "internalType": "bytes32",
          "name": "role",
          "type": "bytes32"
        },
        {
          "indexed": true,
          "internalType": "address",
          "name": "account",
          "type": "address"
        },
        {
          "indexed": true,
          "internalType": "address",
          "name": "sender",
          "type": "address"
        }
      ],
      "name": "RoleGranted",
      "type": "event"
    },
    {
      "anonymous": false,
      "inputs": [
        {
          "indexed": true,
          "internalType": "bytes32",
          "name": "role",
          "type": "bytes32"
        },
        {
          "indexed": true,
          "internalType": "address",
          "name": "account",
          "type": "address"
        },
        {
          "indexed": true,
          "internalType": "address",
          "name": "sender",
          "type": "address"
        }
      ],
      "name": "RoleRevoked",
      "type": "event"
    },
    {
      "anonymous": false,
      "inputs": [
        {
          "indexed": false,
          "internalType": "uint256",
          "name": "swapSlippageBP",
          "type": "uint256"
        },
        {
          "indexed": false,
          "internalType": "uint256",
          "name": "navSlippageBP",
          "type": "uint256"
        },
        {
          "indexed": false,
          "internalType": "uint256",
          "name": "stakeSlippageBP",
          "type": "uint256"
        }
      ],
      "name": "SlippagesUpdated",
      "type": "event"
    },
    {
      "anonymous": false,
      "inputs": [
        {
          "indexed": false,
          "internalType": "uint256",
          "name": "amount",
          "type": "uint256"
        }
      ],
      "name": "Stake",
      "type": "event"
    },
    {
      "anonymous": false,
      "inputs": [],
      "name": "StrategyUpdatedParams",
      "type": "event"
    },
    {
      "anonymous": false,
      "inputs": [
        {
          "indexed": false,
          "internalType": "uint256",
          "name": "amount",
          "type": "uint256"
        },
        {
          "indexed": false,
          "internalType": "uint256",
          "name": "amountReceived",
          "type": "uint256"
        }
      ],
      "name": "Unstake",
      "type": "event"
    },
    {
      "anonymous": false,
      "inputs": [
        {
          "indexed": true,
          "internalType": "address",
          "name": "implementation",
          "type": "address"
        }
      ],
      "name": "Upgraded",
      "type": "event"
    },
    {
      "inputs": [],
      "name": "DEFAULT_ADMIN_ROLE",
      "outputs": [
        {
          "internalType": "bytes32",
          "name": "",
          "type": "bytes32"
        }
      ],
      "stateMutability": "view",
      "type": "function"
    },
    {
      "inputs": [],
      "name": "PORTFOLIO_AGENT_ROLE",
      "outputs": [
        {
          "internalType": "bytes32",
          "name": "",
          "type": "bytes32"
        }
      ],
      "stateMutability": "view",
      "type": "function"
    },
    {
      "inputs": [],
      "name": "PORTFOLIO_MANAGER",
      "outputs": [
        {
          "internalType": "bytes32",
          "name": "",
          "type": "bytes32"
        }
      ],
      "stateMutability": "view",
      "type": "function"
    },
    {
      "inputs": [],
      "name": "arbToken",
      "outputs": [
        {
          "internalType": "contract IERC20",
          "name": "",
          "type": "address"
        }
      ],
      "stateMutability": "view",
      "type": "function"
    },
    {
      "inputs": [],
      "name": "assetDm",
      "outputs": [
        {
          "internalType": "uint256",
          "name": "",
          "type": "uint256"
        }
      ],
      "stateMutability": "view",
      "type": "function"
    },
    {
      "inputs": [],
      "name": "camelotRouter",
      "outputs": [
        {
          "internalType": "contract ICamelotRouter",
          "name": "",
          "type": "address"
        }
      ],
      "stateMutability": "view",
      "type": "function"
    },
    {
      "inputs": [
        {
          "internalType": "address",
          "name": "_to",
          "type": "address"
        }
      ],
      "name": "claimRewards",
      "outputs": [
        {
          "internalType": "uint256",
          "name": "",
          "type": "uint256"
        }
      ],
      "stateMutability": "nonpayable",
      "type": "function"
    },
    {
      "inputs": [
        {
          "internalType": "bytes32",
          "name": "role",
          "type": "bytes32"
        }
      ],
      "name": "getRoleAdmin",
      "outputs": [
        {
          "internalType": "bytes32",
          "name": "",
          "type": "bytes32"
        }
      ],
      "stateMutability": "view",
      "type": "function"
    },
    {
      "inputs": [
        {
          "internalType": "bytes32",
          "name": "role",
          "type": "bytes32"
        },
        {
          "internalType": "address",
          "name": "account",
          "type": "address"
        }
      ],
      "name": "grantRole",
      "outputs": [],
      "stateMutability": "nonpayable",
      "type": "function"
    },
    {
      "inputs": [
        {
          "internalType": "bytes32",
          "name": "role",
          "type": "bytes32"
        },
        {
          "internalType": "address",
          "name": "account",
          "type": "address"
        }
      ],
      "name": "hasRole",
      "outputs": [
        {
          "internalType": "bool",
          "name": "",
          "type": "bool"
        }
      ],
      "stateMutability": "view",
      "type": "function"
    },
    {
      "inputs": [],
      "name": "inchSwapper",
      "outputs": [
        {
          "internalType": "contract IInchSwapper",
          "name": "",
          "type": "address"
        }
      ],
      "stateMutability": "view",
      "type": "function"
    },
    {
      "inputs": [],
      "name": "initialize",
      "outputs": [],
      "stateMutability": "nonpayable",
      "type": "function"
    },
    {
      "inputs": [],
      "name": "liquidationValue",
      "outputs": [
        {
          "internalType": "uint256",
          "name": "",
          "type": "uint256"
        }
      ],
      "stateMutability": "view",
      "type": "function"
    },
    {
      "inputs": [],
      "name": "navSlippageBP",
      "outputs": [
        {
          "internalType": "uint256",
          "name": "",
          "type": "uint256"
        }
      ],
      "stateMutability": "view",
      "type": "function"
    },
    {
      "inputs": [],
      "name": "netAssetValue",
      "outputs": [
        {
          "internalType": "uint256",
          "name": "",
          "type": "uint256"
        }
      ],
      "stateMutability": "view",
      "type": "function"
    },
    {
      "inputs": [],
      "name": "oracleAsset",
      "outputs": [
        {
          "internalType": "contract IPriceFeed",
          "name": "",
          "type": "address"
        }
      ],
      "stateMutability": "view",
      "type": "function"
    },
    {
      "inputs": [],
      "name": "oracleUnderlyingAsset",
      "outputs": [
        {
          "internalType": "contract IPriceFeed",
          "name": "",
          "type": "address"
        }
      ],
      "stateMutability": "view",
      "type": "function"
    },
    {
      "inputs": [],
      "name": "portfolioManager",
      "outputs": [
        {
          "internalType": "address",
          "name": "",
          "type": "address"
        }
      ],
      "stateMutability": "view",
      "type": "function"
    },
    {
      "inputs": [],
      "name": "proxiableUUID",
      "outputs": [
        {
          "internalType": "bytes32",
          "name": "",
          "type": "bytes32"
        }
      ],
      "stateMutability": "view",
      "type": "function"
    },
    {
      "inputs": [
        {
          "internalType": "bytes32",
          "name": "role",
          "type": "bytes32"
        },
        {
          "internalType": "address",
          "name": "account",
          "type": "address"
        }
      ],
      "name": "renounceRole",
      "outputs": [],
      "stateMutability": "nonpayable",
      "type": "function"
    },
    {
      "inputs": [
        {
          "internalType": "bytes32",
          "name": "role",
          "type": "bytes32"
        },
        {
          "internalType": "address",
          "name": "account",
          "type": "address"
        }
      ],
      "name": "revokeRole",
      "outputs": [],
      "stateMutability": "nonpayable",
      "type": "function"
    },
    {
      "inputs": [],
      "name": "rewardWallet",
      "outputs": [
        {
          "internalType": "address",
          "name": "",
          "type": "address"
        }
      ],
      "stateMutability": "view",
      "type": "function"
    },
    {
      "inputs": [],
      "name": "roleManager",
      "outputs": [
        {
          "internalType": "contract IRoleManager",
          "name": "",
          "type": "address"
        }
      ],
      "stateMutability": "view",
      "type": "function"
    },
    {
      "inputs": [
        {
          "components": [
            {
              "internalType": "address",
              "name": "usdc",
              "type": "address"
            },
            {
              "internalType": "address",
              "name": "silo",
              "type": "address"
            },
            {
              "internalType": "address",
              "name": "siloIncentivesController",
              "type": "address"
            },
            {
              "internalType": "address",
              "name": "siloTower",
              "type": "address"
            },
            {
              "internalType": "address",
              "name": "siloToken",
              "type": "address"
            },
            {
              "internalType": "address",
              "name": "arbToken",
              "type": "address"
            },
            {
              "internalType": "address",
              "name": "rewardWallet",
              "type": "address"
            },
            {
              "internalType": "address",
              "name": "wethToken",
              "type": "address"
            },
            {
              "internalType": "address",
              "name": "camelotRouter",
              "type": "address"
            },
            {
              "internalType": "address",
              "name": "underlyingAsset",
              "type": "address"
            },
            {
              "internalType": "address",
              "name": "oracleAsset",
              "type": "address"
            },
            {
              "internalType": "address",
              "name": "oracleUnderlyingAsset",
              "type": "address"
            },
            {
              "internalType": "address",
              "name": "inchSwapper",
              "type": "address"
            }
          ],
          "internalType": "struct StrategySiloUsdc.StrategyParams",
          "name": "params",
          "type": "tuple"
        }
      ],
      "name": "setParams",
      "outputs": [],
      "stateMutability": "nonpayable",
      "type": "function"
    },
    {
      "inputs": [
        {
          "internalType": "uint256",
          "name": "_swapSlippageBP",
          "type": "uint256"
        },
        {
          "internalType": "uint256",
          "name": "_navSlippageBP",
          "type": "uint256"
        },
        {
          "internalType": "uint256",
          "name": "_stakeSlippageBP",
          "type": "uint256"
        }
      ],
      "name": "setSlippages",
      "outputs": [],
      "stateMutability": "nonpayable",
      "type": "function"
    },
    {
      "inputs": [
        {
          "internalType": "address",
          "name": "_portfolioManager",
          "type": "address"
        },
        {
          "internalType": "address",
          "name": "_roleManager",
          "type": "address"
        }
      ],
      "name": "setStrategyParams",
      "outputs": [],
      "stateMutability": "nonpayable",
      "type": "function"
    },
    {
      "inputs": [],
      "name": "silo",
      "outputs": [
        {
          "internalType": "contract ISilo",
          "name": "",
          "type": "address"
        }
      ],
      "stateMutability": "view",
      "type": "function"
    },
    {
      "inputs": [],
      "name": "siloIncentivesController",
      "outputs": [
        {
          "internalType": "contract ISiloIncentivesController",
          "name": "",
          "type": "address"
        }
      ],
      "stateMutability": "view",
      "type": "function"
    },
    {
      "inputs": [],
      "name": "siloToken",
      "outputs": [
        {
          "internalType": "contract IERC20",
          "name": "",
          "type": "address"
        }
      ],
      "stateMutability": "view",
      "type": "function"
    },
    {
      "inputs": [],
      "name": "siloTower",
      "outputs": [
        {
          "internalType": "address",
          "name": "",
          "type": "address"
        }
      ],
      "stateMutability": "view",
      "type": "function"
    },
    {
      "inputs": [
        {
          "internalType": "address",
          "name": "_asset",
          "type": "address"
        },
        {
          "internalType": "uint256",
          "name": "_amount",
          "type": "uint256"
        }
      ],
      "name": "stake",
      "outputs": [],
      "stateMutability": "nonpayable",
      "type": "function"
    },
    {
      "inputs": [],
      "name": "stakeSlippageBP",
      "outputs": [
        {
          "internalType": "uint256",
          "name": "",
          "type": "uint256"
        }
      ],
      "stateMutability": "view",
      "type": "function"
    },
    {
      "inputs": [
        {
          "internalType": "bytes4",
          "name": "interfaceId",
          "type": "bytes4"
        }
      ],
      "name": "supportsInterface",
      "outputs": [
        {
          "internalType": "bool",
          "name": "",
          "type": "bool"
        }
      ],
      "stateMutability": "view",
      "type": "function"
    },
    {
      "inputs": [],
      "name": "swapSlippageBP",
      "outputs": [
        {
          "internalType": "uint256",
          "name": "",
          "type": "uint256"
        }
      ],
      "stateMutability": "view",
      "type": "function"
    },
    {
      "inputs": [],
      "name": "underlyingAsset",
      "outputs": [
        {
          "internalType": "contract IERC20",
          "name": "",
          "type": "address"
        }
      ],
      "stateMutability": "view",
      "type": "function"
    },
    {
      "inputs": [],
      "name": "underlyingAssetDm",
      "outputs": [
        {
          "internalType": "uint256",
          "name": "",
          "type": "uint256"
        }
      ],
      "stateMutability": "view",
      "type": "function"
    },
    {
      "inputs": [
        {
          "internalType": "address",
          "name": "_asset",
          "type": "address"
        },
        {
          "internalType": "uint256",
          "name": "_amount",
          "type": "uint256"
        },
        {
          "internalType": "address",
          "name": "_beneficiary",
          "type": "address"
        },
        {
          "internalType": "bool",
          "name": "_targetIsZero",
          "type": "bool"
        }
      ],
      "name": "unstake",
      "outputs": [
        {
          "internalType": "uint256",
          "name": "",
          "type": "uint256"
        }
      ],
      "stateMutability": "nonpayable",
      "type": "function"
    },
    {
      "inputs": [
        {
          "internalType": "address",
          "name": "newImplementation",
          "type": "address"
        }
      ],
      "name": "upgradeTo",
      "outputs": [],
      "stateMutability": "nonpayable",
      "type": "function"
    },
    {
      "inputs": [
        {
          "internalType": "address",
          "name": "newImplementation",
          "type": "address"
        },
        {
          "internalType": "bytes",
          "name": "data",
          "type": "bytes"
        }
      ],
      "name": "upgradeToAndCall",
      "outputs": [],
      "stateMutability": "payable",
      "type": "function"
    },
    {
      "inputs": [],
      "name": "usdc",
      "outputs": [
        {
          "internalType": "contract IERC20",
          "name": "",
          "type": "address"
        }
      ],
      "stateMutability": "view",
      "type": "function"
    },
    {
      "inputs": [],
      "name": "wethToken",
      "outputs": [
        {
          "internalType": "contract IERC20",
          "name": "",
          "type": "address"
        }
      ],
      "stateMutability": "view",
      "type": "function"
    }
  ],
  "numDeployments": 7,
  "solcInputHash": "3665e72afc3ef6f599f3b7e73aecc194",
  "bytecode": "0x60a0604052306080523480156200001557600080fd5b50600054610100900460ff1615808015620000375750600054600160ff909116105b8062000067575062000054306200014160201b620018571760201c565b15801562000067575060005460ff166001145b620000cf5760405162461bcd60e51b815260206004820152602e60248201527f496e697469616c697a61626c653a20636f6e747261637420697320616c72656160448201526d191e481a5b9a5d1a585b1a5e995960921b606482015260840160405180910390fd5b6000805460ff191660011790558015620000f3576000805461ff0019166101001790555b80156200013a576000805461ff0019169055604051600181527f7f26b83ff96e1f2b6a682f133852f6798a09c465da95921460cefb38474024989060200160405180910390a15b5062000150565b6001600160a01b03163b151590565b60805161469c62000188600039600081816108c80152818161090801528181610990015281816109d00152610a48015261469c6000f3fe6080604052600436106102455760003560e01c806360d95f6a11610139578063aacd344d116100b6578063df313cc71161007a578063df313cc7146106ae578063e5700fd4146106ce578063eb3beb29146106ef578063ef5cfb8c14610710578063f6f6b88114610730578063fb75b2c71461075057600080fd5b8063aacd344d14610617578063adc9772e14610638578063ae30c11014610658578063bf52e08014610678578063d547741f1461068e57600080fd5b80637d5f5802116100fd5780637d5f5802146105845780638129fc1c146105b857806391d14854146105cd578063a217fddf146105ed578063a3673b381461060257600080fd5b806360d95f6a146104eb57806360e45b041461050257806360f8b01414610522578063620b75df146105435780637158da7c1461056357600080fd5b806336568abe116101c757806352d1902d1161018b57806352d1902d1461045457806357a8b8ed146104695780635c6335e9146104805780635ca558f8146104a15780635dbd733a146104b757600080fd5b806336568abe146103bf5780633659cfe6146103df5780633e413bee146103ff5780634b57b0be146104205780634f1ef2861461044157600080fd5b8063248a9ca31161020e578063248a9ca3146103165780632576e65a1461034657806327c0541b1461035b5780632c0d98141461037c5780632f2ff15d1461039d57600080fd5b8062435da51461024a57806301ffc9a7146102805780630b90686e146102b0578063119cd879146102d15780631ae8432d146102f5575b600080fd5b34801561025657600080fd5b5060ff5461026a906001600160a01b031681565b6040516102779190613ade565b60405180910390f35b34801561028c57600080fd5b506102a061029b366004613af2565b610771565b6040519015158152602001610277565b3480156102bc57600080fd5b5061013b5461026a906001600160a01b031681565b3480156102dd57600080fd5b506102e760fd5481565b604051908152602001610277565b34801561030157600080fd5b506101345461026a906001600160a01b031681565b34801561032257600080fd5b506102e7610331366004613b1c565b60009081526065602052604090206001015490565b34801561035257600080fd5b506102e76107a8565b34801561036757600080fd5b506101375461026a906001600160a01b031681565b34801561038857600080fd5b506101315461026a906001600160a01b031681565b3480156103a957600080fd5b506103bd6103b8366004613b4a565b610811565b005b3480156103cb57600080fd5b506103bd6103da366004613b4a565b61083b565b3480156103eb57600080fd5b506103bd6103fa366004613b7a565b6108be565b34801561040b57600080fd5b5061012d5461026a906001600160a01b031681565b34801561042c57600080fd5b506101325461026a906001600160a01b031681565b6103bd61044f366004613bde565b610986565b34801561046057600080fd5b506102e7610a3b565b34801561047557600080fd5b506102e76101395481565b34801561048c57600080fd5b506101305461026a906001600160a01b031681565b3480156104ad57600080fd5b506102e760fe5481565b3480156104c357600080fd5b506102e77fd67ad422505496469a1adf6cdf9e5ee92ac5d33992843c9ecc4b2f6d6cde913781565b3480156104f757600080fd5b506102e761013a5481565b34801561050e57600080fd5b506103bd61051d366004613c86565b610ae9565b34801561052e57600080fd5b5061012f5461026a906001600160a01b031681565b34801561054f57600080fd5b5060fb5461026a906001600160a01b031681565b34801561056f57600080fd5b506101365461026a906001600160a01b031681565b34801561059057600080fd5b506102e77f90c2aa7471c04182221f68e80c07ab1e5946e4c63f8693e14ca40385d529f05181565b3480156105c457600080fd5b506103bd610b8a565b3480156105d957600080fd5b506102a06105e8366004613b4a565b610c5b565b3480156105f957600080fd5b506102e7600081565b34801561060e57600080fd5b506102e7610c86565b34801561062357600080fd5b506101385461026a906001600160a01b031681565b34801561064457600080fd5b506103bd610653366004613cb4565b610e99565b34801561066457600080fd5b506103bd610673366004613ce0565b611064565b34801561068457600080fd5b506102e760fc5481565b34801561069a57600080fd5b506103bd6106a9366004613b4a565b61118f565b3480156106ba57600080fd5b506103bd6106c9366004613d0c565b6111b4565b3480156106da57600080fd5b506101335461026a906001600160a01b031681565b3480156106fb57600080fd5b5061012e5461026a906001600160a01b031681565b34801561071c57600080fd5b506102e761072b366004613b7a565b611562565b34801561073c57600080fd5b506102e761074b366004613d33565b6115de565b34801561075c57600080fd5b506101355461026a906001600160a01b031681565b60006001600160e01b03198216637965db0b60e01b14806107a257506301ffc9a760e01b6001600160e01b03198316145b92915050565b6000306001600160a01b031663a3673b386040518163ffffffff1660e01b8152600401602060405180830381865afa1580156107e8573d6000803e3d6000fd5b505050506040513d601f19601f8201168201806040525081019061080c9190613d86565b905090565b60008281526065602052604090206001015461082c81611866565b6108368383611870565b505050565b6001600160a01b03811633146108b05760405162461bcd60e51b815260206004820152602f60248201527f416363657373436f6e74726f6c3a2063616e206f6e6c792072656e6f756e636560448201526e103937b632b9903337b91039b2b63360891b60648201526084015b60405180910390fd5b6108ba82826118f6565b5050565b6001600160a01b037f00000000000000000000000000000000000000000000000000000000000000001630036109065760405162461bcd60e51b81526004016108a790613d9f565b7f00000000000000000000000000000000000000000000000000000000000000006001600160a01b031661093861195d565b6001600160a01b03161461095e5760405162461bcd60e51b81526004016108a790613deb565b61096781611979565b6040805160008082526020820190925261098391839190611984565b50565b6001600160a01b037f00000000000000000000000000000000000000000000000000000000000000001630036109ce5760405162461bcd60e51b81526004016108a790613d9f565b7f00000000000000000000000000000000000000000000000000000000000000006001600160a01b0316610a0061195d565b6001600160a01b031614610a265760405162461bcd60e51b81526004016108a790613deb565b610a2f82611979565b6108ba82826001611984565b6000306001600160a01b037f00000000000000000000000000000000000000000000000000000000000000001614610ad65760405162461bcd60e51b815260206004820152603860248201527f555550535570677261646561626c653a206d757374206e6f742062652063616c6044820152771b1959081d1a1c9bdd59da0819195b1959d85d1958d85b1b60421b60648201526084016108a7565b506000805160206145f583398151915290565b610af4600033610c5b565b610b105760405162461bcd60e51b81526004016108a790613e37565b6001600160a01b038216610b365760405162461bcd60e51b81526004016108a790613e65565b6001600160a01b038116610b5c5760405162461bcd60e51b81526004016108a790613e65565b60fb80546001600160a01b039384166001600160a01b03199182161790915560ff8054929093169116179055565b600054610100900460ff1615808015610baa5750600054600160ff909116105b80610bcb5750610bb930611857565b158015610bcb575060005460ff166001145b610be75760405162461bcd60e51b81526004016108a790613e97565b6000805460ff191660011790558015610c0a576000805461ff0019166101001790555b610c12611aef565b8015610983576000805461ff0019169055604051600181527f7f26b83ff96e1f2b6a682f133852f6798a09c465da95921460cefb3847402498906020015b60405180910390a150565b60009182526065602090815260408084206001600160a01b0393909316845291905290205460ff1690565b61013054604051631fc597f560e31b815260009182916001600160a01b039091169063fe2cbfa890610cba90600401613ee5565b602060405180830381865afa158015610cd7573d6000803e3d6000fd5b505050506040513d601f19601f82011682018060405250810190610cfb9190613f07565b61012e5461013654604051632c00fb0560e21b81529293506000926001600160a01b038086169363b003ec1493610d3c939183169216903090600401613f24565b602060405180830381865afa158015610d59573d6000803e3d6000fd5b505050506040513d601f19601f82011682018060405250810190610d7d9190613d86565b61012d546040516370a0823160e01b81529192506000916001600160a01b03909116906370a0823190610db4903090600401613ade565b602060405180830381865afa158015610dd1573d6000803e3d6000fd5b505050506040513d601f19601f82011682018060405250810190610df59190613d86565b610136546040516370a0823160e01b81529192506000916001600160a01b03909116906370a0823190610e2c903090600401613ade565b602060405180830381865afa158015610e49573d6000803e3d6000fd5b505050506040513d601f19601f82011682018060405250810190610e6d9190613d86565b90506000610e83610e7e8584613f5d565b611bdb565b9050610e8f8382613f5d565b9550505050505090565b60fb546001600160a01b03163314610ec35760405162461bcd60e51b81526004016108a790613f70565b6000610f32306001600160a01b031663a3673b386040518163ffffffff1660e01b8152600401602060405180830381865afa158015610f06573d6000803e3d6000fd5b505050506040513d601f19601f82011682018060405250810190610f2a9190613d86565b60fd54611c27565b9050610faa83846001600160a01b03166370a08231306040518263ffffffff1660e01b8152600401610f649190613ade565b602060405180830381865afa158015610f81573d6000803e3d6000fd5b505050506040513d601f19601f82011682018060405250810190610fa59190613d86565b611c51565b80306001600160a01b031663a3673b386040518163ffffffff1660e01b8152600401602060405180830381865afa158015610fe9573d6000803e3d6000fd5b505050506040513d601f19601f8201168201806040525081019061100d9190613d86565b101561102b5760405162461bcd60e51b81526004016108a790613fa7565b6040518281527f227a473b70d2f893cc7659219575c030a63b5743024fe1e0c1a680e708b1525a906020015b60405180910390a1505050565b60ff54604051632474521560e21b81527fd67ad422505496469a1adf6cdf9e5ee92ac5d33992843c9ecc4b2f6d6cde913760048201523360248201526001600160a01b03909116906391d1485490604401602060405180830381865afa1580156110d2573d6000803e3d6000fd5b505050506040513d601f19601f820116820180604052508101906110f69190613fde565b6111425760405162461bcd60e51b815260206004820152601d60248201527f5265737472696374656420746f20506f7274666f6c696f204167656e7400000060448201526064016108a7565b60fc83905560fd82905560fe81905560408051848152602081018490529081018290527f116fbf1e97a2be629ad98abfb6c332733c8996c2dfb174dd2efe8440df381d1a90606001611057565b6000828152606560205260409020600101546111aa81611866565b61083683836118f6565b6111bf600033610c5b565b6111db5760405162461bcd60e51b81526004016108a790613e37565b6111e86020820182613b7a565b61012d80546001600160a01b0319166001600160a01b03929092169190911790556112196040820160208301613b7a565b61012e80546001600160a01b0319166001600160a01b039290921691909117905561124a6060820160408301613b7a565b61012f80546001600160a01b0319166001600160a01b039290921691909117905561127b6080820160608301613b7a565b61013080546001600160a01b0319166001600160a01b03929092169190911790556112ac60a0820160808301613b7a565b61013180546001600160a01b0319166001600160a01b03929092169190911790556112dd60c0820160a08301613b7a565b61013480546001600160a01b0319166001600160a01b039290921691909117905561130f610100820160e08301613b7a565b61013280546001600160a01b0319166001600160a01b039290921691909117905561134060e0820160c08301613b7a565b61013580546001600160a01b0319166001600160a01b039290921691909117905561137361012082016101008301613b7a565b61013380546001600160a01b0319166001600160a01b03929092169190911790556113a661014082016101208301613b7a565b61013680546001600160a01b0319166001600160a01b03929092169190911790556113d96101a082016101808301613b7a565b61013b80546001600160a01b0319166001600160a01b039290921691909117905561140c61016082016101408301613b7a565b61013780546001600160a01b0319166001600160a01b039290921691909117905561143f61018082016101608301613b7a565b61013880546001600160a01b0319166001600160a01b039290921691909117905561146d6020820182613b7a565b6001600160a01b031663313ce5676040518163ffffffff1660e01b8152600401602060405180830381865afa1580156114aa573d6000803e3d6000fd5b505050506040513d601f19601f820116820180604052508101906114ce9190613ffb565b6114d990600a614102565b610139556114ef61014082016101208301613b7a565b6001600160a01b031663313ce5676040518163ffffffff1660e01b8152600401602060405180830381865afa15801561152c573d6000803e3d6000fd5b505050506040513d601f19601f820116820180604052508101906115509190613ffb565b61155b90600a614102565b61013a5550565b60fb546000906001600160a01b0316331461158f5760405162461bcd60e51b81526004016108a790613f70565b600061159a83612063565b905080156115d6576040518181527f3ac0594a85a20354f9dc74f33728416d19ce00d04a406c108cc2dcf2cecea1349060200160405180910390a15b90505b919050565b60fb546000906001600160a01b0316331461160b5760405162461bcd60e51b81526004016108a790613f70565b600061164e306001600160a01b031663a3673b386040518163ffffffff1660e01b8152600401602060405180830381865afa158015610f06573d6000803e3d6000fd5b905060008084156116755761166286612063565b905061166e8887612844565b91506116e4565b611680888888612e16565b9150868210156116e45760405162461bcd60e51b815260206004820152602960248201527f52657475726e65642076616c7565206c657373207468616e2072657175657374604482015268195908185b5bdd5b9d60ba1b60648201526084016108a7565b82306001600160a01b031663a3673b386040518163ffffffff1660e01b8152600401602060405180830381865afa158015611723573d6000803e3d6000fd5b505050506040513d601f19601f820116820180604052508101906117479190613d86565b10156117655760405162461bcd60e51b81526004016108a790613fa7565b60405163a9059cbb60e01b81526001600160a01b0389169063a9059cbb906117939089908690600401614111565b6020604051808303816000875af11580156117b2573d6000803e3d6000fd5b505050506040513d601f19601f820116820180604052508101906117d69190613fde565b5060408051888152602081018490527f9045c2ac9b2026de8075f2701bbdde882cd5e830b3b1ead9a15b22f2b5b93742910160405180910390a1801561184a576040518181527f3ac0594a85a20354f9dc74f33728416d19ce00d04a406c108cc2dcf2cecea1349060200160405180910390a15b509150505b949350505050565b6001600160a01b03163b151590565b6109838133613108565b61187a8282610c5b565b6108ba5760008281526065602090815260408083206001600160a01b03851684529091529020805460ff191660011790556118b23390565b6001600160a01b0316816001600160a01b0316837f2f8788117e7eff1d82e926ec794901d17c78024a50270940304540a733656f0d60405160405180910390a45050565b6119008282610c5b565b156108ba5760008281526065602090815260408083206001600160a01b0385168085529252808320805460ff1916905551339285917ff6391f5c32d9c69d2a47ea670b442974b53935d1edc7fd64eb21e047a839171b9190a45050565b6000805160206145f5833981519152546001600160a01b031690565b60006108ba81611866565b7f4910fdfa16fed3260ed0e7147f7cc6da11a60208b5b9406d12a635614ffd91435460ff16156119b75761083683613161565b826001600160a01b03166352d1902d6040518163ffffffff1660e01b8152600401602060405180830381865afa925050508015611a11575060408051601f3d908101601f19168201909252611a0e91810190613d86565b60015b611a745760405162461bcd60e51b815260206004820152602e60248201527f45524331393637557067726164653a206e657720696d706c656d656e7461746960448201526d6f6e206973206e6f74205555505360901b60648201526084016108a7565b6000805160206145f58339815191528114611ae35760405162461bcd60e51b815260206004820152602960248201527f45524331393637557067726164653a20756e737570706f727465642070726f786044820152681a58589b195555525160ba1b60648201526084016108a7565b506108368383836131fb565b600054610100900460ff1615808015611b0f5750600054600160ff909116105b80611b305750611b1e30611857565b158015611b30575060005460ff166001145b611b4c5760405162461bcd60e51b81526004016108a790613e97565b6000805460ff191660011790558015611b6f576000805461ff0019166101001790555b611b77613226565b611b7f613226565b611b8a600033611870565b601460fc81905560fd55600460fe558015610983576000805461ff0019169055604051600181527f7f26b83ff96e1f2b6a682f133852f6798a09c465da95921460cefb384740249890602001610c50565b610137546000908190611bf6906001600160a01b0316613293565b61013854909150600090611c12906001600160a01b0316613293565b905061184f8461013a546101395484866133a2565b6000612710611c36838261412a565b611c40908561413d565b611c4a9190614154565b9392505050565b61012d54610136546001600160a01b03918216911603611de05761012d546040516370a0823160e01b81526000916001600160a01b0316906370a0823190611c9d903090600401613ade565b602060405180830381865afa158015611cba573d6000803e3d6000fd5b505050506040513d601f19601f82011682018060405250810190611cde9190613d86565b61012d5461012e5460405163095ea7b360e01b81529293506001600160a01b039182169263095ea7b392611d189216908590600401614111565b6020604051808303816000875af1158015611d37573d6000803e3d6000fd5b505050506040513d601f19601f82011682018060405250810190611d5b9190613fde565b5061012e5461012d546040516307dba22560e31b81526001600160a01b0392831692633edd112892611d97929116908590600090600401614176565b60408051808303816000875af1158015611db5573d6000803e3d6000fd5b505050506040513d601f19601f82011682018060405250810190611dd99190614199565b5050505050565b61012d5461013b5460405163095ea7b360e01b81526001600160a01b039283169263095ea7b392611e18929116908590600401614111565b6020604051808303816000875af1158015611e37573d6000803e3d6000fd5b505050506040513d601f19601f82011682018060405250810190611e5b9190613fde565b506000611e72611e6a836133d7565b60fc54611c27565b61013b5461012d54610136546040516371a1ff0960e11b81529394506001600160a01b039283169363e343fe1293611eb993309390821692911690889088906004016141bd565b600060405180830381600087803b158015611ed357600080fd5b505af1158015611ee7573d6000803e3d6000fd5b5050610136546040516370a0823160e01b8152600093506001600160a01b0390911691506370a0823190611f1f903090600401613ade565b602060405180830381865afa158015611f3c573d6000803e3d6000fd5b505050506040513d601f19601f82011682018060405250810190611f609190613d86565b6101365461012e5460405163095ea7b360e01b81529293506001600160a01b039182169263095ea7b392611f9a9216908590600401614111565b6020604051808303816000875af1158015611fb9573d6000803e3d6000fd5b505050506040513d601f19601f82011682018060405250810190611fdd9190613fde565b5061012e54610136546040516307dba22560e31b81526001600160a01b0392831692633edd112892612019929116908590600090600401614176565b60408051808303816000875af1158015612037573d6000803e3d6000fd5b505050506040513d601f19601f8201168201806040525081019061205b9190614199565b505050505050565b61012d546040516370a0823160e01b815260009182916001600160a01b03909116906370a0823190612099903090600401613ade565b602060405180830381865afa1580156120b6573d6000803e3d6000fd5b505050506040513d601f19601f820116820180604052508101906120da9190613d86565b610136546040516370a0823160e01b81529192506000916001600160a01b03909116906370a0823190612111903090600401613ade565b602060405180830381865afa15801561212e573d6000803e3d6000fd5b505050506040513d601f19601f820116820180604052508101906121529190613d86565b90506121816040518060400160405280600c81526020016b636c61696d5265776172647360a01b815250613423565b61012e546101365460405163bf27304160e01b81526000926001600160a01b039081169263bf273041926121bb9290911690600401613ade565b60c060405180830381865afa1580156121d8573d6000803e3d6000fd5b505050506040513d601f19601f820116820180604052508101906121fc91906141f1565b600001519050612237604051806040016040528060148152602001736265666f726520636c61696d207265776172647360601b815250613423565b60408051600180825281830190925260009160208083019080368337019050509050818160008151811061226d5761226d614286565b60200260200101906001600160a01b031690816001600160a01b0316815250506122c3604051806040016040528060158152602001743132b337b9329031b630b4b6903932bbb0b932399960591b815250613423565b61012f54604051633111e7b360e01b81526001600160a01b0390911690633111e7b3906122fa9084906000199030906004016142e0565b6020604051808303816000875af1158015612319573d6000803e3d6000fd5b505050506040513d601f19601f8201168201806040525081019061233d9190613d86565b50610131546040516370a0823160e01b81526000916001600160a01b0316906370a0823190612370903090600401613ade565b602060405180830381865afa15801561238d573d6000803e3d6000fd5b505050506040513d601f19601f820116820180604052508101906123b19190613d86565b610134546040516370a0823160e01b81529192506000916001600160a01b03909116906370a08231906123e8903090600401613ade565b602060405180830381865afa158015612405573d6000803e3d6000fd5b505050506040513d601f19601f820116820180604052508101906124299190613d86565b905080156124ae57610134546101355460405163a9059cbb60e01b81526001600160a01b039283169263a9059cbb92612469929116908590600401614111565b6020604051808303816000875af1158015612488573d6000803e3d6000fd5b505050506040513d601f19601f820116820180604052508101906124ac9190613fde565b505b6124e160405180604001604052806012815260200171069662073696c6f42616c616e6365203e20360741b815250613423565b81156125685761013354610131546101325461013654600093612519936001600160a01b039182169390821692908216911687613466565b905080156125665761013354610131546101325461013654612566936001600160a01b03908116938116928116911687606461255688606361413d565b6125609190614154565b306135b0565b505b6125896040518060600160405280602b815260200161463c602b9139613423565b610136546040516370a0823160e01b815260009187916001600160a01b03909116906370a08231906125bf903090600401613ade565b602060405180830381865afa1580156125dc573d6000803e3d6000fd5b505050506040513d601f19601f820116820180604052508101906126009190613d86565b61260a919061412a565b90508015612736576101365461013b5460405163095ea7b360e01b81526001600160a01b039283169263095ea7b39261264a929116908590600401614111565b6020604051808303816000875af1158015612669573d6000803e3d6000fd5b505050506040513d601f19601f8201168201806040525081019061268d9190613fde565b50600061269c611e6a83611bdb565b90506126bf6040518060600160405280602b81526020016145a5602b9139613423565b61013b546101365461012d546040516371a1ff0960e11b81526001600160a01b039384169363e343fe1293612702933093918316921690889088906004016141bd565b600060405180830381600087803b15801561271c57600080fd5b505af1158015612730573d6000803e3d6000fd5b50505050505b61012d546040516370a0823160e01b815260009189916001600160a01b03909116906370a082319061276c903090600401613ade565b602060405180830381865afa158015612789573d6000803e3d6000fd5b505050506040513d601f19601f820116820180604052508101906127ad9190613d86565b6127b7919061412a565b905080156128375761012d5460405163a9059cbb60e01b81526001600160a01b039091169063a9059cbb906127f2908d908590600401614111565b6020604051808303816000875af1158015612811573d6000803e3d6000fd5b505050506040513d601f19601f820116820180604052508101906128359190613fde565b505b9998505050505050505050565b6000306001600160a01b031663a3673b386040518163ffffffff1660e01b8152600401602060405180830381865afa158015612884573d6000803e3d6000fd5b505050506040513d601f19601f820116820180604052508101906128a89190613d86565b6000036128b7575060006107a2565b6128d86040518060600160405280602581526020016145d060259139613423565b61012e546101365460405163ead5d35960e01b81526001600160a01b039283169263ead5d3599261291492911690600190600090600401614176565b60408051808303816000875af1158015612932573d6000803e3d6000fd5b505050506040513d601f19601f820116820180604052508101906129569190614199565b50506129836040518060400160405280600a8152602001697769746864726177203160b01b815250613423565b61013054604051631fc597f560e31b81526000916001600160a01b03169063fe2cbfa8906129b390600401613ee5565b602060405180830381865afa1580156129d0573d6000803e3d6000fd5b505050506040513d601f19601f820116820180604052508101906129f49190613f07565b61012e5461013654604051632c00fb0560e21b81529293506000926001600160a01b038086169363b003ec1493612a35939183169216903090600401613f24565b602060405180830381865afa158015612a52573d6000803e3d6000fd5b505050506040513d601f19601f82011682018060405250810190612a769190613d86565b9050612aae6040518060400160405280601481526020017303130b630b731b2a4b721b7b63630ba32b930b6160651b81525082613743565b61012e546101365460405163ead5d35960e01b81526001600160a01b039283169263ead5d35992612ae9929116908590600090600401614176565b60408051808303816000875af1158015612b07573d6000803e3d6000fd5b505050506040513d601f19601f82011682018060405250810190612b2b9190614199565b505061012d54610136546001600160a01b03918216911603612bc25761012d546040516370a0823160e01b81526001600160a01b03909116906370a0823190612b78903090600401613ade565b602060405180830381865afa158015612b95573d6000803e3d6000fd5b505050506040513d601f19601f82011682018060405250810190612bb99190613d86565b925050506107a2565b610136546040516370a0823160e01b81526000916001600160a01b0316906370a0823190612bf4903090600401613ade565b602060405180830381865afa158015612c11573d6000803e3d6000fd5b505050506040513d601f19601f82011682018060405250810190612c359190613d86565b6101365461013b5460405163095ea7b360e01b81529293506001600160a01b039182169263095ea7b392612c6f9216908590600401614111565b6020604051808303816000875af1158015612c8e573d6000803e3d6000fd5b505050506040513d601f19601f82011682018060405250810190612cb29190613fde565b506000612cc1611e6a83611bdb565b9050612cf660405180604001604052806011815260200170756e6465726c79696e6742616c616e636560781b81525083613743565b612d246040518060400160405280600c81526020016b30b6b7bab73a27baba26b4b760a11b81525082613743565b61013b546101365461012d546040516371a1ff0960e11b81526001600160a01b039384169363e343fe1293612d67933093918316921690889088906004016141bd565b600060405180830381600087803b158015612d8157600080fd5b505af1158015612d95573d6000803e3d6000fd5b505061012d546040516370a0823160e01b81526001600160a01b0390911692506370a082319150612dca903090600401613ade565b602060405180830381865afa158015612de7573d6000803e3d6000fd5b505050506040513d601f19601f82011682018060405250810190612e0b9190613d86565b979650505050505050565b61012d54610136546000916001600160a01b03908116911603612f2b5761012e5461012d5460405163ead5d35960e01b81526001600160a01b039283169263ead5d35992612e6e929116908790600090600401614176565b60408051808303816000875af1158015612e8c573d6000803e3d6000fd5b505050506040513d601f19601f82011682018060405250810190612eb09190614199565b505061012d546040516370a0823160e01b81526001600160a01b03909116906370a0823190612ee3903090600401613ade565b602060405180830381865afa158015612f00573d6000803e3d6000fd5b505050506040513d601f19601f82011682018060405250810190612f249190613d86565b9050611c4a565b6000612f41612f39856133d7565b60fc54613788565b61012e546101365460405163ead5d35960e01b81529293506001600160a01b039182169263ead5d35992612f7e9216908590600090600401614176565b60408051808303816000875af1158015612f9c573d6000803e3d6000fd5b505050506040513d601f19601f82011682018060405250810190612fc09190614199565b5050610136546040516370a0823160e01b81526000916001600160a01b0316906370a0823190612ff4903090600401613ade565b602060405180830381865afa158015613011573d6000803e3d6000fd5b505050506040513d601f19601f820116820180604052508101906130359190613d86565b6101365461013b5460405163095ea7b360e01b81529293506001600160a01b039182169263095ea7b39261306f9216908590600401614111565b6020604051808303816000875af115801561308e573d6000803e3d6000fd5b505050506040513d601f19601f820116820180604052508101906130b29190613fde565b5060006130c1611e6a83611bdb565b61013b546101365461012d546040516371a1ff0960e11b81529394506001600160a01b039283169363e343fe1293612d6793309390821692911690889088906004016141bd565b6131128282610c5b565b6108ba5761311f81613797565b61312a8360206137a9565b60405160200161313b929190614337565b60408051601f198184030181529082905262461bcd60e51b82526108a7916004016143d2565b61316a81611857565b6131cc5760405162461bcd60e51b815260206004820152602d60248201527f455243313936373a206e657720696d706c656d656e746174696f6e206973206e60448201526c1bdd08184818dbdb9d1c9858dd609a1b60648201526084016108a7565b6000805160206145f583398151915280546001600160a01b0319166001600160a01b0392909216919091179055565b61320483613945565b6000825111806132115750805b15610836576132208383613985565b50505050565b600054610100900460ff166132915760405162461bcd60e51b815260206004820152602b60248201527f496e697469616c697a61626c653a20636f6e7472616374206973206e6f74206960448201526a6e697469616c697a696e6760a81b60648201526084016108a7565b565b6000806000806000856001600160a01b031663feaf968c6040518163ffffffff1660e01b815260040160a060405180830381865afa1580156132d9573d6000803e3d6000fd5b505050506040513d601f19601f820116820180604052508101906132fd91906143fc565b945094505093509350836001600160501b0316816001600160501b031610156133535760405162461bcd60e51b81526020600482015260086024820152674f6c64206461746160c01b60448201526064016108a7565b600082116133985760405162461bcd60e51b8152602060048201526012602482015271526f756e64206e6f7420636f6d706c65746560701b60448201526064016108a7565b5090949350505050565b60006133ae828661413d565b836133b9868961413d565b6133c3919061413d565b6133cd9190614154565b9695505050505050565b6101375460009081906133f2906001600160a01b0316613293565b6101385490915060009061340e906001600160a01b0316613293565b905061184f846101395461013a5485856133a2565b6109838160405160240161343791906143d2565b60408051601f198184030181529190526020810180516001600160e01b031663104c13eb60e21b1790526139aa565b604080516003808252608082019092526000918291906020820160608036833701905050905085816000815181106134a0576134a0614286565b60200260200101906001600160a01b031690816001600160a01b03168152505084816001815181106134d4576134d4614286565b60200260200101906001600160a01b031690816001600160a01b031681525050838160028151811061350857613508614286565b6001600160a01b03928316602091820292909201015260405163d06ca61f60e01b81529088169063d06ca61f90613545908690859060040161444c565b600060405180830381865afa158015613562573d6000803e3d6000fd5b505050506040513d6000823e601f3d908101601f1916820160405261358a9190810190614465565b60028151811061359c5761359c614286565b602002602001015191505095945050505050565b60405163095ea7b360e01b81526001600160a01b0387169063095ea7b3906135de908a908790600401614111565b6020604051808303816000875af11580156135fd573d6000803e3d6000fd5b505050506040513d601f19601f820116820180604052508101906136219190613fde565b506040805160038082526080820190925260009160208201606080368337019050509050868160008151811061365957613659614286565b60200260200101906001600160a01b031690816001600160a01b031681525050858160018151811061368d5761368d614286565b60200260200101906001600160a01b031690816001600160a01b03168152505084816002815181106136c1576136c1614286565b6001600160a01b03928316602091820292909201015260405163561c49dd60e11b81529089169063ac3893ba90613707908790879086908890600090429060040161450b565b600060405180830381600087803b15801561372157600080fd5b505af1158015613735573d6000803e3d6000fd5b505050505050505050505050565b6108ba828260405160240161375992919061454f565b60408051601f198184030181529190526020810180516001600160e01b0316632d839cb360e21b1790526139aa565b6000612710611c368382613f5d565b60606107a26001600160a01b03831660145b606060006137b883600261413d565b6137c3906002613f5d565b67ffffffffffffffff8111156137db576137db613b97565b6040519080825280601f01601f191660200182016040528015613805576020820181803683370190505b509050600360fc1b8160008151811061382057613820614286565b60200101906001600160f81b031916908160001a905350600f60fb1b8160018151811061384f5761384f614286565b60200101906001600160f81b031916908160001a905350600061387384600261413d565b61387e906001613f5d565b90505b60018111156138f6576f181899199a1a9b1b9c1cb0b131b232b360811b85600f16601081106138b2576138b2614286565b1a60f81b8282815181106138c8576138c8614286565b60200101906001600160f81b031916908160001a90535060049490941c936138ef81614571565b9050613881565b508315611c4a5760405162461bcd60e51b815260206004820181905260248201527f537472696e67733a20686578206c656e67746820696e73756666696369656e7460448201526064016108a7565b61394e81613161565b6040516001600160a01b038216907fbc7cd75a20ee27fd9adebab32041f755214dbc6bffa90cc0225b39da2e5c2d3b90600090a250565b6060611c4a8383604051806060016040528060278152602001614615602791396139b3565b61098381613a21565b6060600080856001600160a01b0316856040516139d09190614588565b600060405180830381855af49150503d8060008114613a0b576040519150601f19603f3d011682016040523d82523d6000602084013e613a10565b606091505b50915091506133cd86838387613a42565b60006a636f6e736f6c652e6c6f679050600080835160208501845afa505050565b60608315613aaf578251600003613aa857613a5c85611857565b613aa85760405162461bcd60e51b815260206004820152601d60248201527f416464726573733a2063616c6c20746f206e6f6e2d636f6e747261637400000060448201526064016108a7565b508161184f565b61184f8383815115613ac45781518083602001fd5b8060405162461bcd60e51b81526004016108a791906143d2565b6001600160a01b0391909116815260200190565b600060208284031215613b0457600080fd5b81356001600160e01b031981168114611c4a57600080fd5b600060208284031215613b2e57600080fd5b5035919050565b6001600160a01b038116811461098357600080fd5b60008060408385031215613b5d57600080fd5b823591506020830135613b6f81613b35565b809150509250929050565b600060208284031215613b8c57600080fd5b8135611c4a81613b35565b634e487b7160e01b600052604160045260246000fd5b604051601f8201601f1916810167ffffffffffffffff81118282101715613bd657613bd6613b97565b604052919050565b60008060408385031215613bf157600080fd5b8235613bfc81613b35565b915060208381013567ffffffffffffffff80821115613c1a57600080fd5b818601915086601f830112613c2e57600080fd5b813581811115613c4057613c40613b97565b613c52601f8201601f19168501613bad565b91508082528784828501011115613c6857600080fd5b80848401858401376000848284010152508093505050509250929050565b60008060408385031215613c9957600080fd5b8235613ca481613b35565b91506020830135613b6f81613b35565b60008060408385031215613cc757600080fd5b8235613cd281613b35565b946020939093013593505050565b600080600060608486031215613cf557600080fd5b505081359360208301359350604090920135919050565b60006101a08284031215613d1f57600080fd5b50919050565b801515811461098357600080fd5b60008060008060808587031215613d4957600080fd5b8435613d5481613b35565b9350602085013592506040850135613d6b81613b35565b91506060850135613d7b81613d25565b939692955090935050565b600060208284031215613d9857600080fd5b5051919050565b6020808252602c908201527f46756e6374696f6e206d7573742062652063616c6c6564207468726f7567682060408201526b19195b1959d85d1958d85b1b60a21b606082015260800190565b6020808252602c908201527f46756e6374696f6e206d7573742062652063616c6c6564207468726f7567682060408201526b6163746976652070726f787960a01b606082015260800190565b6020808252601490820152735265737472696374656420746f2061646d696e7360601b604082015260600190565b60208082526018908201527716995c9bc81859191c995cdcc81b9bdd08185b1b1bddd95960421b604082015260600190565b6020808252602e908201527f496e697469616c697a61626c653a20636f6e747261637420697320616c72656160408201526d191e481a5b9a5d1a585b1a5e995960921b606082015260800190565b60208082526008908201526753696c6f4c656e7360c01b604082015260600190565b600060208284031215613f1957600080fd5b8151611c4a81613b35565b6001600160a01b0393841681529183166020830152909116604082015260600190565b634e487b7160e01b600052601160045260246000fd5b808201808211156107a2576107a2613f47565b6020808252601f908201527f5265737472696374656420746f20504f5254464f4c494f5f4d414e4147455200604082015260600190565b6020808252601f908201527f5374726174656779204e4156206c657373207468616e20657870656374656400604082015260600190565b600060208284031215613ff057600080fd5b8151611c4a81613d25565b60006020828403121561400d57600080fd5b815160ff81168114611c4a57600080fd5b600181815b8085111561405957816000190482111561403f5761403f613f47565b8085161561404c57918102915b93841c9390800290614023565b509250929050565b600082614070575060016107a2565b8161407d575060006107a2565b8160018114614093576002811461409d576140b9565b60019150506107a2565b60ff8411156140ae576140ae613f47565b50506001821b6107a2565b5060208310610133831016604e8410600b84101617156140dc575081810a6107a2565b6140e6838361401e565b80600019048211156140fa576140fa613f47565b029392505050565b6000611c4a60ff841683614061565b6001600160a01b03929092168252602082015260400190565b818103818111156107a2576107a2613f47565b80820281158282048414176107a2576107a2613f47565b60008261417157634e487b7160e01b600052601260045260246000fd5b500490565b6001600160a01b0393909316835260208301919091521515604082015260600190565b600080604083850312156141ac57600080fd5b505080516020909101519092909150565b6001600160a01b03958616815293851660208501529190931660408301526060820192909252608081019190915260a00190565b600060c0828403121561420357600080fd5b60405160c0810181811067ffffffffffffffff8211171561422657614226613b97565b604052825161423481613b35565b8152602083015161424481613b35565b6020820152604083015161425781613b35565b80604083015250606083015160608201526080830151608082015260a083015160a08201528091505092915050565b634e487b7160e01b600052603260045260246000fd5b600081518084526020808501945080840160005b838110156142d55781516001600160a01b0316875295820195908201906001016142b0565b509495945050505050565b6060815260006142f3606083018661429c565b6020830194909452506001600160a01b0391909116604090910152919050565b60005b8381101561432e578181015183820152602001614316565b50506000910152565b76020b1b1b2b9b9a1b7b73a3937b61d1030b1b1b7bab73a1604d1b815260008351614369816017850160208801614313565b7001034b99036b4b9b9b4b733903937b6329607d1b601791840191820152835161439a816028840160208801614313565b01602801949350505050565b600081518084526143be816020860160208601614313565b601f01601f19169290920160200192915050565b602081526000611c4a60208301846143a6565b80516001600160501b03811681146115d957600080fd5b600080600080600060a0868803121561441457600080fd5b61441d866143e5565b9450602086015193506040860151925060608601519150614440608087016143e5565b90509295509295909350565b82815260406020820152600061184f604083018461429c565b6000602080838503121561447857600080fd5b825167ffffffffffffffff8082111561449057600080fd5b818501915085601f8301126144a457600080fd5b8151818111156144b6576144b6613b97565b8060051b91506144c7848301613bad565b81815291830184019184810190888411156144e157600080fd5b938501935b838510156144ff578451825293850193908501906144e6565b98975050505050505050565b86815285602082015260c06040820152600061452a60c083018761429c565b6001600160a01b03958616606084015293909416608082015260a00152949350505050565b60408152600061456260408301856143a6565b90508260208301529392505050565b60008161458057614580613f47565b506000190190565b6000825161459a818460208701614313565b919091019291505056fe6265666f7265207377617020746f20696e63685377617070657231206f6e20636c61696d72657761726473756e7374616b652066756c6c206166746572206e6574617373657476616c7565203d3d2030360894a13ba1a3210667c828492db98dca3e2076cc3735a920a3ca505d382bbc416464726573733a206c6f772d6c6576656c2064656c65676174652063616c6c206661696c65646265666f7265207377617020746f20696e636853776170706572206f6e20636c61696d2072657761726473a2646970667358221220aec8583838c219804628ab98d59212d1a839c11ed7839e274a589d01af907fe764736f6c63430008110033",
  "implementation": "0x69221D91989F764fcA847F2c0cfA5fa5E0Eba9bf",
  "devdoc": {
    "kind": "dev",
    "methods": {
      "constructor": {
        "custom:oz-upgrades-unsafe-allow": "constructor"
      },
      "getRoleAdmin(bytes32)": {
        "details": "Returns the admin role that controls `role`. See {grantRole} and {revokeRole}. To change a role's admin, use {_setRoleAdmin}."
      },
      "grantRole(bytes32,address)": {
        "details": "Grants `role` to `account`. If `account` had not been already granted `role`, emits a {RoleGranted} event. Requirements: - the caller must have ``role``'s admin role. May emit a {RoleGranted} event."
      },
      "hasRole(bytes32,address)": {
        "details": "Returns `true` if `account` has been granted `role`."
      },
      "proxiableUUID()": {
        "details": "Implementation of the ERC1822 {proxiableUUID} function. This returns the storage slot used by the implementation. It is used to validate the implementation's compatibility when performing an upgrade. IMPORTANT: A proxy pointing at a proxiable contract should not be considered proxiable itself, because this risks bricking a proxy that upgrades to it, by delegating to itself until out of gas. Thus it is critical that this function revert if invoked through a proxy. This is guaranteed by the `notDelegated` modifier."
      },
      "renounceRole(bytes32,address)": {
        "details": "Revokes `role` from the calling account. Roles are often managed via {grantRole} and {revokeRole}: this function's purpose is to provide a mechanism for accounts to lose their privileges if they are compromised (such as when a trusted device is misplaced). If the calling account had been revoked `role`, emits a {RoleRevoked} event. Requirements: - the caller must be `account`. May emit a {RoleRevoked} event."
      },
      "revokeRole(bytes32,address)": {
        "details": "Revokes `role` from `account`. If `account` had been granted `role`, emits a {RoleRevoked} event. Requirements: - the caller must have ``role``'s admin role. May emit a {RoleRevoked} event."
      },
      "supportsInterface(bytes4)": {
        "details": "See {IERC165-supportsInterface}."
      },
      "upgradeTo(address)": {
        "custom:oz-upgrades-unsafe-allow-reachable": "delegatecall",
        "details": "Upgrade the implementation of the proxy to `newImplementation`. Calls {_authorizeUpgrade}. Emits an {Upgraded} event."
      },
      "upgradeToAndCall(address,bytes)": {
        "custom:oz-upgrades-unsafe-allow-reachable": "delegatecall",
        "details": "Upgrade the implementation of the proxy to `newImplementation`, and subsequently execute the function call encoded in `data`. Calls {_authorizeUpgrade}. Emits an {Upgraded} event."
      }
    },
    "version": 1
  },
  "userdoc": {
    "kind": "user",
    "methods": {},
    "version": 1
  },
  "storageLayout": {
    "storage": [
      {
        "astId": 782,
        "contract": "contracts/StrategySiloUsdc.sol:StrategySiloUsdc",
        "label": "_initialized",
        "offset": 0,
        "slot": "0",
        "type": "t_uint8"
      },
      {
        "astId": 785,
        "contract": "contracts/StrategySiloUsdc.sol:StrategySiloUsdc",
        "label": "_initializing",
        "offset": 1,
        "slot": "0",
        "type": "t_bool"
      },
      {
        "astId": 1461,
        "contract": "contracts/StrategySiloUsdc.sol:StrategySiloUsdc",
        "label": "__gap",
        "offset": 0,
        "slot": "1",
        "type": "t_array(t_uint256)50_storage"
      },
      {
        "astId": 1845,
        "contract": "contracts/StrategySiloUsdc.sol:StrategySiloUsdc",
        "label": "__gap",
        "offset": 0,
        "slot": "51",
        "type": "t_array(t_uint256)50_storage"
      },
      {
        "astId": 28,
        "contract": "contracts/StrategySiloUsdc.sol:StrategySiloUsdc",
        "label": "_roles",
        "offset": 0,
        "slot": "101",
        "type": "t_mapping(t_bytes32,t_struct(RoleData)23_storage)"
      },
      {
        "astId": 335,
        "contract": "contracts/StrategySiloUsdc.sol:StrategySiloUsdc",
        "label": "__gap",
        "offset": 0,
        "slot": "102",
        "type": "t_array(t_uint256)49_storage"
      },
      {
        "astId": 764,
        "contract": "contracts/StrategySiloUsdc.sol:StrategySiloUsdc",
        "label": "__gap",
        "offset": 0,
        "slot": "151",
        "type": "t_array(t_uint256)50_storage"
      },
      {
        "astId": 1080,
        "contract": "contracts/StrategySiloUsdc.sol:StrategySiloUsdc",
        "label": "__gap",
        "offset": 0,
        "slot": "201",
        "type": "t_array(t_uint256)50_storage"
      },
      {
        "astId": 5214,
        "contract": "contracts/StrategySiloUsdc.sol:StrategySiloUsdc",
        "label": "portfolioManager",
        "offset": 0,
        "slot": "251",
        "type": "t_address"
      },
      {
        "astId": 5216,
        "contract": "contracts/StrategySiloUsdc.sol:StrategySiloUsdc",
        "label": "swapSlippageBP",
        "offset": 0,
        "slot": "252",
        "type": "t_uint256"
      },
      {
        "astId": 5218,
        "contract": "contracts/StrategySiloUsdc.sol:StrategySiloUsdc",
        "label": "navSlippageBP",
        "offset": 0,
        "slot": "253",
        "type": "t_uint256"
      },
      {
        "astId": 5220,
        "contract": "contracts/StrategySiloUsdc.sol:StrategySiloUsdc",
        "label": "stakeSlippageBP",
        "offset": 0,
        "slot": "254",
        "type": "t_uint256"
      },
      {
        "astId": 5223,
        "contract": "contracts/StrategySiloUsdc.sol:StrategySiloUsdc",
        "label": "roleManager",
        "offset": 0,
        "slot": "255",
        "type": "t_contract(IRoleManager)5684"
      },
      {
        "astId": 5603,
        "contract": "contracts/StrategySiloUsdc.sol:StrategySiloUsdc",
        "label": "__gap",
        "offset": 0,
        "slot": "256",
        "type": "t_array(t_uint256)45_storage"
      },
      {
        "astId": 5764,
        "contract": "contracts/StrategySiloUsdc.sol:StrategySiloUsdc",
        "label": "usdc",
        "offset": 0,
        "slot": "301",
        "type": "t_contract(IERC20)2907"
      },
      {
        "astId": 5767,
        "contract": "contracts/StrategySiloUsdc.sol:StrategySiloUsdc",
        "label": "silo",
        "offset": 0,
        "slot": "302",
        "type": "t_contract(ISilo)4580"
      },
      {
        "astId": 5770,
        "contract": "contracts/StrategySiloUsdc.sol:StrategySiloUsdc",
        "label": "siloIncentivesController",
        "offset": 0,
        "slot": "303",
        "type": "t_contract(ISiloIncentivesController)5159"
      },
      {
        "astId": 5772,
        "contract": "contracts/StrategySiloUsdc.sol:StrategySiloUsdc",
        "label": "siloTower",
        "offset": 0,
        "slot": "304",
        "type": "t_address"
      },
      {
        "astId": 5775,
        "contract": "contracts/StrategySiloUsdc.sol:StrategySiloUsdc",
        "label": "siloToken",
        "offset": 0,
        "slot": "305",
        "type": "t_contract(IERC20)2907"
      },
      {
        "astId": 5778,
        "contract": "contracts/StrategySiloUsdc.sol:StrategySiloUsdc",
        "label": "wethToken",
        "offset": 0,
        "slot": "306",
        "type": "t_contract(IERC20)2907"
      },
      {
        "astId": 5781,
        "contract": "contracts/StrategySiloUsdc.sol:StrategySiloUsdc",
        "label": "camelotRouter",
        "offset": 0,
        "slot": "307",
        "type": "t_contract(ICamelotRouter)3233"
      },
      {
        "astId": 5784,
        "contract": "contracts/StrategySiloUsdc.sol:StrategySiloUsdc",
        "label": "arbToken",
        "offset": 0,
        "slot": "308",
        "type": "t_contract(IERC20)2907"
      },
      {
        "astId": 5786,
        "contract": "contracts/StrategySiloUsdc.sol:StrategySiloUsdc",
        "label": "rewardWallet",
        "offset": 0,
        "slot": "309",
        "type": "t_address"
      },
      {
        "astId": 5789,
        "contract": "contracts/StrategySiloUsdc.sol:StrategySiloUsdc",
        "label": "underlyingAsset",
        "offset": 0,
        "slot": "310",
        "type": "t_contract(IERC20)2907"
      },
      {
        "astId": 5792,
        "contract": "contracts/StrategySiloUsdc.sol:StrategySiloUsdc",
        "label": "oracleAsset",
        "offset": 0,
        "slot": "311",
        "type": "t_contract(IPriceFeed)4056"
      },
      {
        "astId": 5795,
        "contract": "contracts/StrategySiloUsdc.sol:StrategySiloUsdc",
        "label": "oracleUnderlyingAsset",
        "offset": 0,
        "slot": "312",
        "type": "t_contract(IPriceFeed)4056"
      },
      {
        "astId": 5797,
        "contract": "contracts/StrategySiloUsdc.sol:StrategySiloUsdc",
        "label": "assetDm",
        "offset": 0,
        "slot": "313",
        "type": "t_uint256"
      },
      {
        "astId": 5799,
        "contract": "contracts/StrategySiloUsdc.sol:StrategySiloUsdc",
        "label": "underlyingAssetDm",
        "offset": 0,
        "slot": "314",
        "type": "t_uint256"
      },
      {
        "astId": 5802,
        "contract": "contracts/StrategySiloUsdc.sol:StrategySiloUsdc",
        "label": "inchSwapper",
        "offset": 0,
        "slot": "315",
        "type": "t_contract(IInchSwapper)5672"
      }
    ],
    "types": {
      "t_address": {
        "encoding": "inplace",
        "label": "address",
        "numberOfBytes": "20"
      },
      "t_array(t_uint256)45_storage": {
        "base": "t_uint256",
        "encoding": "inplace",
        "label": "uint256[45]",
        "numberOfBytes": "1440"
      },
      "t_array(t_uint256)49_storage": {
        "base": "t_uint256",
        "encoding": "inplace",
        "label": "uint256[49]",
        "numberOfBytes": "1568"
      },
      "t_array(t_uint256)50_storage": {
        "base": "t_uint256",
        "encoding": "inplace",
        "label": "uint256[50]",
        "numberOfBytes": "1600"
      },
      "t_bool": {
        "encoding": "inplace",
        "label": "bool",
        "numberOfBytes": "1"
      },
      "t_bytes32": {
        "encoding": "inplace",
        "label": "bytes32",
        "numberOfBytes": "32"
      },
      "t_contract(ICamelotRouter)3233": {
        "encoding": "inplace",
        "label": "contract ICamelotRouter",
        "numberOfBytes": "20"
      },
      "t_contract(IERC20)2907": {
        "encoding": "inplace",
        "label": "contract IERC20",
        "numberOfBytes": "20"
      },
      "t_contract(IInchSwapper)5672": {
        "encoding": "inplace",
        "label": "contract IInchSwapper",
        "numberOfBytes": "20"
      },
      "t_contract(IPriceFeed)4056": {
        "encoding": "inplace",
        "label": "contract IPriceFeed",
        "numberOfBytes": "20"
      },
      "t_contract(IRoleManager)5684": {
        "encoding": "inplace",
        "label": "contract IRoleManager",
        "numberOfBytes": "20"
      },
      "t_contract(ISilo)4580": {
        "encoding": "inplace",
        "label": "contract ISilo",
        "numberOfBytes": "20"
      },
      "t_contract(ISiloIncentivesController)5159": {
        "encoding": "inplace",
        "label": "contract ISiloIncentivesController",
        "numberOfBytes": "20"
      },
      "t_mapping(t_address,t_bool)": {
        "encoding": "mapping",
        "key": "t_address",
        "label": "mapping(address => bool)",
        "numberOfBytes": "32",
        "value": "t_bool"
      },
      "t_mapping(t_bytes32,t_struct(RoleData)23_storage)": {
        "encoding": "mapping",
        "key": "t_bytes32",
        "label": "mapping(bytes32 => struct AccessControlUpgradeable.RoleData)",
        "numberOfBytes": "32",
        "value": "t_struct(RoleData)23_storage"
      },
      "t_struct(RoleData)23_storage": {
        "encoding": "inplace",
        "label": "struct AccessControlUpgradeable.RoleData",
        "members": [
          {
            "astId": 20,
            "contract": "contracts/StrategySiloUsdc.sol:StrategySiloUsdc",
            "label": "members",
            "offset": 0,
            "slot": "0",
            "type": "t_mapping(t_address,t_bool)"
          },
          {
            "astId": 22,
            "contract": "contracts/StrategySiloUsdc.sol:StrategySiloUsdc",
            "label": "adminRole",
            "offset": 0,
            "slot": "1",
            "type": "t_bytes32"
          }
        ],
        "numberOfBytes": "64"
      },
      "t_uint256": {
        "encoding": "inplace",
        "label": "uint256",
        "numberOfBytes": "32"
      },
      "t_uint8": {
        "encoding": "inplace",
        "label": "uint8",
        "numberOfBytes": "1"
      }
    }
  }
}