{
  "address": "0x026D48E51649bEC30E0b546A4Ce1c3Ab6c028942",
  "abi": [
    {
      "inputs": [],
      "stateMutability": "nonpayable",
      "type": "constructor"
    },
    {
      "anonymous": false,
      "inputs": [
        {
          "indexed": false,
          "internalType": "address",
          "name": "previousAdmin",
          "type": "address"
        },
        {
          "indexed": false,
          "internalType": "address",
          "name": "newAdmin",
          "type": "address"
        }
      ],
      "name": "AdminChanged",
      "type": "event"
    },
    {
      "anonymous": false,
      "inputs": [
        {
          "indexed": true,
          "internalType": "address",
          "name": "beacon",
          "type": "address"
        }
      ],
      "name": "BeaconUpgraded",
      "type": "event"
    },
    {
      "anonymous": false,
      "inputs": [
        {
          "indexed": false,
          "internalType": "uint8",
          "name": "version",
          "type": "uint8"
        }
      ],
      "name": "Initialized",
      "type": "event"
    },
    {
      "anonymous": false,
      "inputs": [
        {
          "indexed": false,
          "internalType": "address",
          "name": "value",
          "type": "address"
        }
      ],
      "name": "PortfolioManagerUpdated",
      "type": "event"
    },
    {
      "anonymous": false,
      "inputs": [
        {
          "indexed": false,
          "internalType": "uint256",
          "name": "amount",
          "type": "uint256"
        }
      ],
      "name": "Reward",
      "type": "event"
    },
    {
      "anonymous": false,
      "inputs": [
        {
          "indexed": true,
          "internalType": "bytes32",
          "name": "role",
          "type": "bytes32"
        },
        {
          "indexed": true,
          "internalType": "bytes32",
          "name": "previousAdminRole",
          "type": "bytes32"
        },
        {
          "indexed": true,
          "internalType": "bytes32",
          "name": "newAdminRole",
          "type": "bytes32"
        }
      ],
      "name": "RoleAdminChanged",
      "type": "event"
    },
    {
      "anonymous": false,
      "inputs": [
        {
          "indexed": true,
          "internalType": "bytes32",
          "name": "role",
          "type": "bytes32"
        },
        {
          "indexed": true,
          "internalType": "address",
          "name": "account",
          "type": "address"
        },
        {
          "indexed": true,
          "internalType": "address",
          "name": "sender",
          "type": "address"
        }
      ],
      "name": "RoleGranted",
      "type": "event"
    },
    {
      "anonymous": false,
      "inputs": [
        {
          "indexed": true,
          "internalType": "bytes32",
          "name": "role",
          "type": "bytes32"
        },
        {
          "indexed": true,
          "internalType": "address",
          "name": "account",
          "type": "address"
        },
        {
          "indexed": true,
          "internalType": "address",
          "name": "sender",
          "type": "address"
        }
      ],
      "name": "RoleRevoked",
      "type": "event"
    },
    {
      "anonymous": false,
      "inputs": [
        {
          "indexed": false,
          "internalType": "uint256",
          "name": "swapSlippageBP",
          "type": "uint256"
        },
        {
          "indexed": false,
          "internalType": "uint256",
          "name": "navSlippageBP",
          "type": "uint256"
        },
        {
          "indexed": false,
          "internalType": "uint256",
          "name": "stakeSlippageBP",
          "type": "uint256"
        }
      ],
      "name": "SlippagesUpdated",
      "type": "event"
    },
    {
      "anonymous": false,
      "inputs": [
        {
          "indexed": false,
          "internalType": "uint256",
          "name": "amount",
          "type": "uint256"
        }
      ],
      "name": "Stake",
      "type": "event"
    },
    {
      "anonymous": false,
      "inputs": [],
      "name": "StrategyUpdatedParams",
      "type": "event"
    },
    {
      "anonymous": false,
      "inputs": [
        {
          "indexed": false,
          "internalType": "uint256",
          "name": "amount",
          "type": "uint256"
        },
        {
          "indexed": false,
          "internalType": "uint256",
          "name": "amountReceived",
          "type": "uint256"
        }
      ],
      "name": "Unstake",
      "type": "event"
    },
    {
      "anonymous": false,
      "inputs": [
        {
          "indexed": true,
          "internalType": "address",
          "name": "implementation",
          "type": "address"
        }
      ],
      "name": "Upgraded",
      "type": "event"
    },
    {
      "inputs": [],
      "name": "DEFAULT_ADMIN_ROLE",
      "outputs": [
        {
          "internalType": "bytes32",
          "name": "",
          "type": "bytes32"
        }
      ],
      "stateMutability": "view",
      "type": "function"
    },
    {
      "inputs": [],
      "name": "PORTFOLIO_AGENT_ROLE",
      "outputs": [
        {
          "internalType": "bytes32",
          "name": "",
          "type": "bytes32"
        }
      ],
      "stateMutability": "view",
      "type": "function"
    },
    {
      "inputs": [],
      "name": "PORTFOLIO_MANAGER",
      "outputs": [
        {
          "internalType": "bytes32",
          "name": "",
          "type": "bytes32"
        }
      ],
      "stateMutability": "view",
      "type": "function"
    },
    {
      "inputs": [
        {
          "internalType": "address",
          "name": "_to",
          "type": "address"
        }
      ],
      "name": "claimRewards",
      "outputs": [
        {
          "internalType": "uint256",
          "name": "",
          "type": "uint256"
        }
      ],
      "stateMutability": "nonpayable",
      "type": "function"
    },
    {
      "inputs": [],
      "name": "getCurrentSqrtRatio",
      "outputs": [
        {
          "internalType": "uint160",
          "name": "sqrtRatioX96",
          "type": "uint160"
        }
      ],
      "stateMutability": "view",
      "type": "function"
    },
    {
      "inputs": [],
      "name": "getLiquidity",
      "outputs": [
        {
          "internalType": "uint128",
          "name": "liquidity",
          "type": "uint128"
        }
      ],
      "stateMutability": "view",
      "type": "function"
    },
    {
      "inputs": [
        {
          "internalType": "int24",
          "name": "lowerTick",
          "type": "int24"
        },
        {
          "internalType": "int24",
          "name": "upperTick",
          "type": "int24"
        }
      ],
      "name": "getPreviousTicks",
      "outputs": [
        {
          "internalType": "int24",
          "name": "lowerPrevious",
          "type": "int24"
        },
        {
          "internalType": "int24",
          "name": "upperPrevious",
          "type": "int24"
        }
      ],
      "stateMutability": "view",
      "type": "function"
    },
    {
      "inputs": [
        {
          "internalType": "bytes32",
          "name": "role",
          "type": "bytes32"
        }
      ],
      "name": "getRoleAdmin",
      "outputs": [
        {
          "internalType": "bytes32",
          "name": "",
          "type": "bytes32"
        }
      ],
      "stateMutability": "view",
      "type": "function"
    },
    {
      "inputs": [
        {
          "internalType": "bytes32",
          "name": "role",
          "type": "bytes32"
        },
        {
          "internalType": "address",
          "name": "account",
          "type": "address"
        }
      ],
      "name": "grantRole",
      "outputs": [],
      "stateMutability": "nonpayable",
      "type": "function"
    },
    {
      "inputs": [
        {
          "internalType": "bytes32",
          "name": "role",
          "type": "bytes32"
        },
        {
          "internalType": "address",
          "name": "account",
          "type": "address"
        }
      ],
      "name": "hasRole",
      "outputs": [
        {
          "internalType": "bool",
          "name": "",
          "type": "bool"
        }
      ],
      "stateMutability": "view",
      "type": "function"
    },
    {
      "inputs": [],
      "name": "initialize",
      "outputs": [],
      "stateMutability": "nonpayable",
      "type": "function"
    },
    {
      "inputs": [],
      "name": "liquidationValue",
      "outputs": [
        {
          "internalType": "uint256",
          "name": "",
          "type": "uint256"
        }
      ],
      "stateMutability": "view",
      "type": "function"
    },
    {
      "inputs": [],
      "name": "lm",
      "outputs": [
        {
          "internalType": "contract KyberSwapElasticLM",
          "name": "",
          "type": "address"
        }
      ],
      "stateMutability": "view",
      "type": "function"
    },
    {
      "inputs": [],
      "name": "navSlippageBP",
      "outputs": [
        {
          "internalType": "uint256",
          "name": "",
          "type": "uint256"
        }
      ],
      "stateMutability": "view",
      "type": "function"
    },
    {
      "inputs": [],
      "name": "netAssetValue",
      "outputs": [
        {
          "internalType": "uint256",
          "name": "",
          "type": "uint256"
        }
      ],
      "stateMutability": "view",
      "type": "function"
    },
    {
      "inputs": [],
      "name": "npm",
      "outputs": [
        {
          "internalType": "contract AntiSnipAttackPositionManager",
          "name": "",
          "type": "address"
        }
      ],
      "stateMutability": "view",
      "type": "function"
    },
    {
      "inputs": [],
      "name": "oracleUsdc",
      "outputs": [
        {
          "internalType": "contract IPriceFeed",
          "name": "",
          "type": "address"
        }
      ],
      "stateMutability": "view",
      "type": "function"
    },
    {
      "inputs": [],
      "name": "oracleUsdt",
      "outputs": [
        {
          "internalType": "contract IPriceFeed",
          "name": "",
          "type": "address"
        }
      ],
      "stateMutability": "view",
      "type": "function"
    },
    {
      "inputs": [],
      "name": "pool",
      "outputs": [
        {
          "internalType": "contract Pool",
          "name": "",
          "type": "address"
        }
      ],
      "stateMutability": "view",
      "type": "function"
    },
    {
      "inputs": [],
      "name": "portfolioManager",
      "outputs": [
        {
          "internalType": "address",
          "name": "",
          "type": "address"
        }
      ],
      "stateMutability": "view",
      "type": "function"
    },
    {
      "inputs": [],
      "name": "proxiableUUID",
      "outputs": [
        {
          "internalType": "bytes32",
          "name": "",
          "type": "bytes32"
        }
      ],
      "stateMutability": "view",
      "type": "function"
    },
    {
      "inputs": [
        {
          "internalType": "bytes32",
          "name": "role",
          "type": "bytes32"
        },
        {
          "internalType": "address",
          "name": "account",
          "type": "address"
        }
      ],
      "name": "renounceRole",
      "outputs": [],
      "stateMutability": "nonpayable",
      "type": "function"
    },
    {
      "inputs": [
        {
          "internalType": "bytes32",
          "name": "role",
          "type": "bytes32"
        },
        {
          "internalType": "address",
          "name": "account",
          "type": "address"
        }
      ],
      "name": "revokeRole",
      "outputs": [],
      "stateMutability": "nonpayable",
      "type": "function"
    },
    {
      "inputs": [
        {
          "components": [
            {
              "internalType": "address",
              "name": "usdc",
              "type": "address"
            },
            {
              "internalType": "address",
              "name": "usdt",
              "type": "address"
            },
            {
              "internalType": "address",
              "name": "oracleUsdc",
              "type": "address"
            },
            {
              "internalType": "address",
              "name": "oracleUsdt",
              "type": "address"
            },
            {
              "internalType": "address",
              "name": "uniswapV3Router",
              "type": "address"
            },
            {
              "internalType": "address",
              "name": "pool",
              "type": "address"
            },
            {
              "internalType": "address",
              "name": "npm",
              "type": "address"
            },
            {
              "internalType": "address",
              "name": "lm",
              "type": "address"
            },
            {
              "internalType": "uint24",
              "name": "fee",
              "type": "uint24"
            },
            {
              "internalType": "uint256",
              "name": "poolId",
              "type": "uint256"
            },
            {
              "internalType": "int24",
              "name": "lowerTick",
              "type": "int24"
            },
            {
              "internalType": "int24",
              "name": "upperTick",
              "type": "int24"
            }
          ],
          "internalType": "struct StrategyKyberSwapUsdcUsdt.StrategyParams",
          "name": "params",
          "type": "tuple"
        }
      ],
      "name": "setParams",
      "outputs": [],
      "stateMutability": "nonpayable",
      "type": "function"
    },
    {
      "inputs": [
        {
          "internalType": "address",
          "name": "_value",
          "type": "address"
        }
      ],
      "name": "setPortfolioManager",
      "outputs": [],
      "stateMutability": "nonpayable",
      "type": "function"
    },
    {
      "inputs": [
        {
          "internalType": "uint256",
          "name": "_swapSlippageBP",
          "type": "uint256"
        },
        {
          "internalType": "uint256",
          "name": "_navSlippageBP",
          "type": "uint256"
        },
        {
          "internalType": "uint256",
          "name": "_stakeSlippageBP",
          "type": "uint256"
        }
      ],
      "name": "setSlippages",
      "outputs": [],
      "stateMutability": "nonpayable",
      "type": "function"
    },
    {
      "inputs": [
        {
          "internalType": "address",
          "name": "_asset",
          "type": "address"
        },
        {
          "internalType": "uint256",
          "name": "_amount",
          "type": "uint256"
        }
      ],
      "name": "stake",
      "outputs": [],
      "stateMutability": "nonpayable",
      "type": "function"
    },
    {
      "inputs": [],
      "name": "stakeSlippageBP",
      "outputs": [
        {
          "internalType": "uint256",
          "name": "",
          "type": "uint256"
        }
      ],
      "stateMutability": "view",
      "type": "function"
    },
    {
      "inputs": [
        {
          "internalType": "bytes4",
          "name": "interfaceId",
          "type": "bytes4"
        }
      ],
      "name": "supportsInterface",
      "outputs": [
        {
          "internalType": "bool",
          "name": "",
          "type": "bool"
        }
      ],
      "stateMutability": "view",
      "type": "function"
    },
    {
      "inputs": [],
      "name": "swapSlippageBP",
      "outputs": [
        {
          "internalType": "uint256",
          "name": "",
          "type": "uint256"
        }
      ],
      "stateMutability": "view",
      "type": "function"
    },
    {
      "inputs": [],
      "name": "uniswapV3Router",
      "outputs": [
        {
          "internalType": "contract ISwapRouter",
          "name": "",
          "type": "address"
        }
      ],
      "stateMutability": "view",
      "type": "function"
    },
    {
      "inputs": [
        {
          "internalType": "address",
          "name": "_asset",
          "type": "address"
        },
        {
          "internalType": "uint256",
          "name": "_amount",
          "type": "uint256"
        },
        {
          "internalType": "address",
          "name": "_beneficiary",
          "type": "address"
        },
        {
          "internalType": "bool",
          "name": "_targetIsZero",
          "type": "bool"
        }
      ],
      "name": "unstake",
      "outputs": [
        {
          "internalType": "uint256",
          "name": "",
          "type": "uint256"
        }
      ],
      "stateMutability": "nonpayable",
      "type": "function"
    },
    {
      "inputs": [
        {
          "internalType": "address",
          "name": "newImplementation",
          "type": "address"
        }
      ],
      "name": "upgradeTo",
      "outputs": [],
      "stateMutability": "nonpayable",
      "type": "function"
    },
    {
      "inputs": [
        {
          "internalType": "address",
          "name": "newImplementation",
          "type": "address"
        },
        {
          "internalType": "bytes",
          "name": "data",
          "type": "bytes"
        }
      ],
      "name": "upgradeToAndCall",
      "outputs": [],
      "stateMutability": "payable",
      "type": "function"
    },
    {
      "inputs": [],
      "name": "usdc",
      "outputs": [
        {
          "internalType": "contract IERC20",
          "name": "",
          "type": "address"
        }
      ],
      "stateMutability": "view",
      "type": "function"
    },
    {
      "inputs": [],
      "name": "usdcDm",
      "outputs": [
        {
          "internalType": "uint256",
          "name": "",
          "type": "uint256"
        }
      ],
      "stateMutability": "view",
      "type": "function"
    },
    {
      "inputs": [],
      "name": "usdt",
      "outputs": [
        {
          "internalType": "contract IERC20",
          "name": "",
          "type": "address"
        }
      ],
      "stateMutability": "view",
      "type": "function"
    },
    {
      "inputs": [],
      "name": "usdtDm",
      "outputs": [
        {
          "internalType": "uint256",
          "name": "",
          "type": "uint256"
        }
      ],
      "stateMutability": "view",
      "type": "function"
    }
  ],
  "numDeployments": 2,
  "solcInputHash": "544d4dfea72c466b06cb76cd93075148",
  "bytecode": "0x60a06040523060601b6080523480156200001857600080fd5b50600054610100900460ff16158080156200003a5750600054600160ff909116105b806200006a575062000057306200014460201b62001d161760201c565b1580156200006a575060005460ff166001145b620000d25760405162461bcd60e51b815260206004820152602e60248201527f496e697469616c697a61626c653a20636f6e747261637420697320616c72656160448201526d191e481a5b9a5d1a585b1a5e995960921b606482015260840160405180910390fd5b6000805460ff191660011790558015620000f6576000805461ff0019166101001790555b80156200013d576000805461ff0019169055604051600181527f7f26b83ff96e1f2b6a682f133852f6798a09c465da95921460cefb38474024989060200160405180910390a15b5062000153565b6001600160a01b03163b151590565b60805160601c615a006200018e600039600081816108a0015281816108e001528181610980015281816109c00152610a4f0152615a006000f3fe6080604052600436106102255760003560e01c8063620b75df11610123578063a440b21a116100ab578063d547741f1161006f578063d547741f14610655578063ea127c9e14610675578063ee3af0db146106af578063ef5cfb8c146106c4578063f6f6b881146106e457600080fd5b8063a440b21a146105be578063adc9772e146105de578063ae30c110146105fe578063bf52e0801461061e578063cc6522c31461063457600080fd5b8063803ba97e116100f2578063803ba97e146105375780638129fc1c1461055f57806391d1485414610574578063a217fddf14610594578063a3673b38146105a957600080fd5b8063620b75df146104b457806372971209146104d45780637d5f5802146104f45780637f1e9ef61461051657600080fd5b80632f2ff15d116101b15780634f1ef286116101755780634f1ef2861461042157806352d1902d146104345780635ca558f8146104495780635dbd733a1461045f5780635fea9cbb1461049357600080fd5b80632f2ff15d1461037d5780632f48ab7d1461039f57806336568abe146103c05780633659cfe6146103e05780633e413bee1461040057600080fd5b806316f0115b116101f857806316f0115b146102c75780631b1e7ddc14610300578063248a9ca3146103175780632576e65a146103475780632c76d7a61461035c57600080fd5b806301ffc9a71461022a5780630910a5101461025f5780630f9033f71461028c578063119cd879146102b1575b600080fd5b34801561023657600080fd5b5061024a610245366004614da4565b610704565b60405190151581526020015b60405180910390f35b34801561026b57600080fd5b5061027461073b565b6040516001600160801b039091168152602001610256565b34801561029857600080fd5b506102a36101325481565b604051908152602001610256565b3480156102bd57600080fd5b506102a360fd5481565b3480156102d357600080fd5b50610135546102e8906001600160a01b031681565b6040516001600160a01b039091168152602001610256565b34801561030c57600080fd5b506102a36101315481565b34801561032357600080fd5b506102a3610332366004614d42565b60009081526065602052604090206001015490565b34801561035357600080fd5b506102a36107d7565b34801561036857600080fd5b50610133546102e8906001600160a01b031681565b34801561038957600080fd5b5061039d610398366004614d74565b6107e8565b005b3480156103ab57600080fd5b5061012d546102e8906001600160a01b031681565b3480156103cc57600080fd5b5061039d6103db366004614d74565b610812565b3480156103ec57600080fd5b5061039d6103fb366004614b0b565b610895565b34801561040c57600080fd5b5061012e546102e8906001600160a01b031681565b61039d61042f366004614b28565b610975565b34801561044057600080fd5b506102a3610a42565b34801561045557600080fd5b506102a360fe5481565b34801561046b57600080fd5b506102a37fd67ad422505496469a1adf6cdf9e5ee92ac5d33992843c9ecc4b2f6d6cde913781565b34801561049f57600080fd5b5061012f546102e8906001600160a01b031681565b3480156104c057600080fd5b5060fb546102e8906001600160a01b031681565b3480156104e057600080fd5b5061039d6104ef366004614ee9565b610af5565b34801561050057600080fd5b506102a360008051602061596483398151915281565b34801561052257600080fd5b50610134546102e8906001600160a01b031681565b34801561054357600080fd5b50610138546102e890600160301b90046001600160a01b031681565b34801561056b57600080fd5b5061039d611092565b34801561058057600080fd5b5061024a61058f366004614d74565b61115c565b3480156105a057600080fd5b506102a3600081565b3480156105b557600080fd5b506102a3611187565b3480156105ca57600080fd5b5061039d6105d9366004614b0b565b611193565b3480156105ea57600080fd5b5061039d6105f9366004614bd0565b6112c2565b34801561060a57600080fd5b5061039d61061936600461509c565b6114f2565b34801561062a57600080fd5b506102a360fc5481565b34801561064057600080fd5b50610130546102e8906001600160a01b031681565b34801561066157600080fd5b5061039d610670366004614d74565b611667565b34801561068157600080fd5b50610695610690366004614deb565b61168c565b60408051600293840b81529190920b602082015201610256565b3480156106bb57600080fd5b506102e861193f565b3480156106d057600080fd5b506102a36106df366004614b0b565b6119c6565b3480156106f057600080fd5b506102a36106ff366004614bfc565b611a4b565b60006001600160e01b03198216637965db0b60e01b148061073557506301ffc9a760e01b6001600160e01b03198316145b92915050565b61013654600090156107d457610134546101365460405163133f757160e31b815260048101919091526000916001600160a01b0316906399fbab88906024016101606040518083038186803b15801561079357600080fd5b505afa1580156107a7573d6000803e3d6000fd5b505050506040513d601f19601f820116820180604052508101906107cb9190614e19565b5060a001519150505b90565b60006107e36000611d25565b905090565b60008281526065602052604090206001015461080381611f10565b61080d8383611f1a565b505050565b6001600160a01b03811633146108875760405162461bcd60e51b815260206004820152602f60248201527f416363657373436f6e74726f6c3a2063616e206f6e6c792072656e6f756e636560448201526e103937b632b9903337b91039b2b63360891b60648201526084015b60405180910390fd5b6108918282611fa0565b5050565b306001600160a01b037f00000000000000000000000000000000000000000000000000000000000000001614156108de5760405162461bcd60e51b815260040161087e906153a2565b7f00000000000000000000000000000000000000000000000000000000000000006001600160a01b0316610927600080516020615984833981519152546001600160a01b031690565b6001600160a01b03161461094d5760405162461bcd60e51b815260040161087e906153ee565b61095681612007565b6040805160008082526020820190925261097291839190612012565b50565b306001600160a01b037f00000000000000000000000000000000000000000000000000000000000000001614156109be5760405162461bcd60e51b815260040161087e906153a2565b7f00000000000000000000000000000000000000000000000000000000000000006001600160a01b0316610a07600080516020615984833981519152546001600160a01b031690565b6001600160a01b031614610a2d5760405162461bcd60e51b815260040161087e906153ee565b610a3682612007565b61089182826001612012565b6000306001600160a01b037f00000000000000000000000000000000000000000000000000000000000000001614610ae25760405162461bcd60e51b815260206004820152603860248201527f555550535570677261646561626c653a206d757374206e6f742062652063616c60448201527f6c6564207468726f7567682064656c656761746563616c6c0000000000000000606482015260840161087e565b5060008051602061598483398151915290565b610b0060003361115c565b610b435760405162461bcd60e51b81526020600482015260146024820152735265737472696374656420746f2061646d696e7360601b604482015260640161087e565b610b506020820182614b0b565b61012e80546001600160a01b0319166001600160a01b0392909216919091179055610b816040820160208301614b0b565b61012d80546001600160a01b0319166001600160a01b0392909216919091179055610bb26060820160408301614b0b565b61012f80546001600160a01b0319166001600160a01b0392909216919091179055610be36080820160608301614b0b565b61013080546001600160a01b0319166001600160a01b0392909216919091179055610c1460a0820160808301614b0b565b61013380546001600160a01b0319166001600160a01b0392909216919091179055610c426020820182614b0b565b6001600160a01b031663313ce5676040518163ffffffff1660e01b815260040160206040518083038186803b158015610c7a57600080fd5b505afa158015610c8e573d6000803e3d6000fd5b505050506040513d601f19601f82011682018060405250810190610cb29190615146565b610cbd90600a61574b565b61013155610cd16040820160208301614b0b565b6001600160a01b031663313ce5676040518163ffffffff1660e01b815260040160206040518083038186803b158015610d0957600080fd5b505afa158015610d1d573d6000803e3d6000fd5b505050506040513d601f19601f82011682018060405250810190610d419190615146565b610d4c90600a61574b565b61013255610d6060c0820160a08301614b0b565b61013580546001600160a01b0319166001600160a01b0392909216919091179055610d9160e0820160c08301614b0b565b61013480546001600160a01b0319166001600160a01b0392909216919091179055610dc3610100820160e08301614b0b565b61013880546001600160a01b0392909216600160301b026601000000000000600160d01b031990921691909117905561012081013561013755610e0e61016082016101408301614dce565b610138805460029290920b62ffffff1662ffffff19909216919091179055610e3e61018082016101608301614dce565b610138805460029290920b62ffffff1663010000000265ffffff00000019909216919091179055610e7761012082016101008301614fd6565b610135805462ffffff92909216600160a01b0262ffffff60a01b1990921691909117905561012e546001600160a01b031663095ea7b3610ebd60e0840160c08501614b0b565b6040516001600160e01b031960e084901b1681526001600160a01b0390911660048201526000196024820152604401602060405180830381600087803b158015610f0657600080fd5b505af1158015610f1a573d6000803e3d6000fd5b505050506040513d601f19601f82011682018060405250810190610f3e9190614d25565b5061012d546001600160a01b031663095ea7b3610f6160e0840160c08501614b0b565b6040516001600160e01b031960e084901b1681526001600160a01b0390911660048201526000196024820152604401602060405180830381600087803b158015610faa57600080fd5b505af1158015610fbe573d6000803e3d6000fd5b505050506040513d601f19601f82011682018060405250810190610fe29190614d25565b50610134546001600160a01b031663a22cb465611006610100840160e08501614b0b565b6040516001600160e01b031960e084901b1681526001600160a01b03909116600482015260016024820152604401600060405180830381600087803b15801561104e57600080fd5b505af1158015611062573d6000803e3d6000fd5b50506040517fea5646eb3528e525944447a4a97de700dd472298626e5c0481d1c82c3da86ea5925060009150a150565b600054610100900460ff16158080156110b25750600054600160ff909116105b806110cc5750303b1580156110cc575060005460ff166001145b6110e85760405162461bcd60e51b815260040161087e9061543a565b6000805460ff19166001179055801561110b576000805461ff0019166101001790555b61111361218c565b8015610972576000805461ff0019169055604051600181527f7f26b83ff96e1f2b6a682f133852f6798a09c465da95921460cefb3847402498906020015b60405180910390a150565b60009182526065602090815260408084206001600160a01b0393909316845291905290205460ff1690565b60006107e36001611d25565b61119e60003361115c565b6111e15760405162461bcd60e51b81526020600482015260146024820152735265737472696374656420746f2061646d696e7360601b604482015260640161087e565b6001600160a01b0381166112375760405162461bcd60e51b815260206004820152601860248201527f5a65726f2061646472657373206e6f7420616c6c6f7765640000000000000000604482015260640161087e565b60fb5461125c90600080516020615964833981519152906001600160a01b0316611667565b611274600080516020615964833981519152826107e8565b60fb80546001600160a01b0319166001600160a01b0383169081179091556040519081527ff7b449fcd5cfb7379dcd34cb69428dd9f882033b15be33d83b42d91daa28eeb790602001611151565b6112da6000805160206159648339815191523361115c565b6112f65760405162461bcd60e51b815260040161087e9061536b565b6000611374306001600160a01b031663a3673b386040518163ffffffff1660e01b815260040160206040518083038186803b15801561133457600080fd5b505afa158015611348573d6000803e3d6000fd5b505050506040513d601f19601f8201168201806040525081019061136c9190614d5b565b60fd54612271565b6040516370a0823160e01b81523060048201529091506113f99084906001600160a01b038216906370a082319060240160206040518083038186803b1580156113bc57600080fd5b505afa1580156113d0573d6000803e3d6000fd5b505050506040513d601f19601f820116820180604052508101906113f49190614d5b565b61229b565b80306001600160a01b031663a3673b386040518163ffffffff1660e01b815260040160206040518083038186803b15801561143357600080fd5b505afa158015611447573d6000803e3d6000fd5b505050506040513d601f19601f8201168201806040525081019061146b9190614d5b565b10156114b95760405162461bcd60e51b815260206004820152601f60248201527f5374726174656779204e4156206c657373207468616e20657870656374656400604482015260640161087e565b6040518281527f227a473b70d2f893cc7659219575c030a63b5743024fe1e0c1a680e708b1525a906020015b60405180910390a1505050565b61151c7fd67ad422505496469a1adf6cdf9e5ee92ac5d33992843c9ecc4b2f6d6cde91373361115c565b806115c3575060fb54604051632474521560e21b81527fd67ad422505496469a1adf6cdf9e5ee92ac5d33992843c9ecc4b2f6d6cde913760048201523360248201526001600160a01b03909116906391d148549060440160206040518083038186803b15801561158b57600080fd5b505afa15801561159f573d6000803e3d6000fd5b505050506040513d601f19601f820116820180604052508101906115c39190614d25565b61161a5760405162461bcd60e51b815260206004820152602260248201527f5265737472696374656420746f20504f5254464f4c494f5f4147454e545f524f6044820152614c4560f01b606482015260840161087e565b60fc83905560fd82905560fe81905560408051848152602081018490529081018290527f116fbf1e97a2be629ad98abfb6c332733c8996c2dfb174dd2efe8440df381d1a906060016114e5565b60008281526065602052604090206001015461168281611f10565b61080d8383611fa0565b61013554604051636bea486560e01b81526001600160a01b039091166004820152620d89e7196024820152609660448201526000908190738fd8cb948965d9305999d767a02bf79833eadbb39082908290636bea48659060640160006040518083038186803b1580156116fe57600080fd5b505afa158015611712573d6000803e3d6000fd5b505050506040513d6000823e601f3d908101601f1916820160405261173a9190810190614c4f565b90506000806001835161174d919061583d565b905060005b8161175e8460016156dc565b10156117b257600261177083856156dc565b61177a91906156f4565b90508860020b848281518110611792576117926158f4565b602002602001015160020b136117aa57809250611752565b809150611752565b8860020b8484815181106117c8576117c86158f4565b602002602001015160020b136117f5578383815181106117ea576117ea6158f4565b602002602001015196505b8860020b84838151811061180b5761180b6158f4565b602002602001015160020b136118385783828151811061182d5761182d6158f4565b602002602001015196505b600092506001845161184a919061583d565b91505b816118598460016156dc565b10156118ad57600261186b83856156dc565b61187591906156f4565b90508760020b84828151811061188d5761188d6158f4565b602002602001015160020b136118a55780925061184d565b80915061184d565b8760020b8484815181106118c3576118c36158f4565b602002602001015160020b136118f0578383815181106118e5576118e56158f4565b602002602001015195505b8760020b848381518110611906576119066158f4565b602002602001015160020b1361193357838281518110611928576119286158f4565b602002602001015195505b50505050509250929050565b610135546040805163217ac23760e01b815290516000926001600160a01b03169163217ac237916004808301926080929190829003018186803b15801561198557600080fd5b505afa158015611999573d6000803e3d6000fd5b505050506040513d601f19601f820116820180604052508101906119bd9190614f82565b50919392505050565b60006119e06000805160206159648339815191523361115c565b6119fc5760405162461bcd60e51b815260040161087e9061536b565b6000611a07836125d0565b90508015611a43576040518181527f3ac0594a85a20354f9dc74f33728416d19ce00d04a406c108cc2dcf2cecea1349060200160405180910390a15b90505b919050565b6000611a656000805160206159648339815191523361115c565b611a815760405162461bcd60e51b815260040161087e9061536b565b6000611abf306001600160a01b031663a3673b386040518163ffffffff1660e01b815260040160206040518083038186803b15801561133457600080fd5b90506000808415611ae657611ad3866125d0565b9050611adf8887612a6c565b9150611b55565b611af1888888612c87565b915086821015611b555760405162461bcd60e51b815260206004820152602960248201527f52657475726e65642076616c7565206c657373207468616e2072657175657374604482015268195908185b5bdd5b9d60ba1b606482015260840161087e565b82306001600160a01b031663a3673b386040518163ffffffff1660e01b815260040160206040518083038186803b158015611b8f57600080fd5b505afa158015611ba3573d6000803e3d6000fd5b505050506040513d601f19601f82011682018060405250810190611bc79190614d5b565b1015611c155760405162461bcd60e51b815260206004820152601f60248201527f5374726174656779204e4156206c657373207468616e20657870656374656400604482015260640161087e565b60405163a9059cbb60e01b81526001600160a01b0387811660048301526024820184905289169063a9059cbb90604401602060405180830381600087803b158015611c5f57600080fd5b505af1158015611c73573d6000803e3d6000fd5b505050506040513d601f19601f82011682018060405250810190611c979190614d25565b5060408051888152602081018490527f9045c2ac9b2026de8075f2701bbdde882cd5e830b3b1ead9a15b22f2b5b93742910160405180910390a18015611d0b576040518181527f3ac0594a85a20354f9dc74f33728416d19ce00d04a406c108cc2dcf2cecea1349060200160405180910390a15b509695505050505050565b6001600160a01b03163b151590565b61012e546040516370a0823160e01b815230600482015260009182916001600160a01b03909116906370a082319060240160206040518083038186803b158015611d6e57600080fd5b505afa158015611d82573d6000803e3d6000fd5b505050506040513d601f19601f82011682018060405250810190611da69190614d5b565b61012d546040516370a0823160e01b81523060048201529192506000916001600160a01b03909116906370a082319060240160206040518083038186803b158015611df057600080fd5b505afa158015611e04573d6000803e3d6000fd5b505050506040513d601f19601f82011682018060405250810190611e289190614d5b565b6101365490915015611ec2576000611e3e61073b565b90506001600160801b03811615611ec0576000611e5961193f565b61013854909150600090611e6f9060020b612e19565b61013854909150600090611e8c906301000000900460020b612e19565b9050600080611e9d858585896131f3565b9092509050611eac81896156dc565b9750611eb882886156dc565b965050505050505b505b8015611f09578315611ee857611ed78161328f565b611ee190836156dc565b9150611f09565b611efc611ef48261328f565b60fc54612271565b611f0690836156dc565b91505b5092915050565b61097281336132db565b611f24828261115c565b6108915760008281526065602090815260408083206001600160a01b03851684529091529020805460ff19166001179055611f5c3390565b6001600160a01b0316816001600160a01b0316837f2f8788117e7eff1d82e926ec794901d17c78024a50270940304540a733656f0d60405160405180910390a45050565b611faa828261115c565b156108915760008281526065602090815260408083206001600160a01b0385168085529252808320805460ff1916905551339285917ff6391f5c32d9c69d2a47ea670b442974b53935d1edc7fd64eb21e047a839171b9190a45050565b600061089181611f10565b7f4910fdfa16fed3260ed0e7147f7cc6da11a60208b5b9406d12a635614ffd91435460ff16156120455761080d83613334565b826001600160a01b03166352d1902d6040518163ffffffff1660e01b815260040160206040518083038186803b15801561207e57600080fd5b505afa9250505080156120ae575060408051601f3d908101601f191682019092526120ab91810190614d5b565b60015b6121115760405162461bcd60e51b815260206004820152602e60248201527f45524331393637557067726164653a206e657720696d706c656d656e7461746960448201526d6f6e206973206e6f74205555505360901b606482015260840161087e565b60008051602061598483398151915281146121805760405162461bcd60e51b815260206004820152602960248201527f45524331393637557067726164653a20756e737570706f727465642070726f786044820152681a58589b195555525160ba1b606482015260840161087e565b5061080d8383836133d0565b600054610100900460ff16158080156121ac5750600054600160ff909116105b806121c65750303b1580156121c6575060005460ff166001145b6121e25760405162461bcd60e51b815260040161087e9061543a565b6000805460ff191660011790558015612205576000805461ff0019166101001790555b61220d6133fb565b6122156133fb565b612220600033611f1a565b601460fc81905560fd55600460fe558015610972576000805461ff0019169055604051600181527f7f26b83ff96e1f2b6a682f133852f6798a09c465da95921460cefb384740249890602001611151565b6000612710612280838261583d565b61228a90856157f6565b61229491906156f4565b9392505050565b6122a3613468565b61012e546040516370a0823160e01b81523060048201526000916001600160a01b0316906370a082319060240160206040518083038186803b1580156122e857600080fd5b505afa1580156122fc573d6000803e3d6000fd5b505050506040513d601f19601f820116820180604052508101906123209190614d5b565b61012d546040516370a0823160e01b81523060048201529192506000916001600160a01b03909116906370a082319060240160206040518083038186803b15801561236a57600080fd5b505afa15801561237e573d6000803e3d6000fd5b505050506040513d601f19601f820116820180604052508101906123a29190614d5b565b90506123ac6149bc565b610138546123c890600281810b9163010000009004900b61168c565b600290810b810b602084015290810b900b8152610136546124f957604080516101808101825261012d546001600160a01b03908116825261012e548116602083015261013554600160a01b900462ffffff168284015261013854600281810b810b60608501526301000000909104810b900b608083015260a0820184905260c0820185905260e0820186905260006101008301819052610120830152306101408301524261016083015261013454925163752a031960e11b81529192169063ea5406329061249a908490600401615546565b608060405180830381600087803b1580156124b457600080fd5b505af11580156124c8573d6000803e3d6000fd5b505050506040513d601f19601f820116820180604052508101906124ec9190615060565b50505061013655506125c1565b6125016135c8565b6040805160e081018252610136548152602081018390528082018490526060810185905260006080820181905260a08201524260c082015261013454915163c238a3a360e01b815290916001600160a01b03169063c238a3a3906125699084906004016154f1565b608060405180830381600087803b15801561258357600080fd5b505af1158015612597573d6000803e3d6000fd5b505050506040513d601f19601f820116820180604052508101906125bb9190614f45565b50505050505b6125c96137c8565b5050505050565b600061013654600014806125e957506125e761393b565b155b156125f657506000919050565b60408051600180825281830190925260009160208083019080368337019050509050610136548160008151811061262f5761262f6158f4565b60209081029190910101526040805160018082528183019092526000918160200160208202803683370190505090506101375481600081518110612675576126756158f4565b6020908102919091010152604080516001808252818301909252600091816020015b60608152602001906001900390816126975790505090506040518060200160405280838152506040516020016126cd91906154d6565b604051602081830303815290604052816000815181106126ef576126ef6158f4565b602090810291909101015261013854604051630c07c01b60e11b8152600160301b9091046001600160a01b03169063180f803690612733908690859060040161529f565b600060405180830381600087803b15801561274d57600080fd5b505af1158015612761573d6000803e3d6000fd5b50506040516370a0823160e01b815230600482015273e4dddfe67e7164b0fe14e218d80dc4c08edc01cb925073912ce59144191c1204e64559fe8253a0e49e65489150735979d7b546e38e414f7e9822514be443a4800529907382af49447d8a07e3bd95bd0d56f35241523fbab190600090819086906370a082319060240160206040518083038186803b1580156127f857600080fd5b505afa15801561280c573d6000803e3d6000fd5b505050506040513d601f19601f820116820180604052508101906128309190614d5b565b6040516370a0823160e01b81523060048201529091506000906001600160a01b038716906370a082319060240160206040518083038186803b15801561287557600080fd5b505afa158015612889573d6000803e3d6000fd5b505050506040513d601f19601f820116820180604052508101906128ad9190614d5b565b905081156129945773f9c2b5746c946ef883ab2660bbbb1f10a5bdeab46128dc8189886103e8308860006139d5565b506040516370a0823160e01b81523060048201526000906001600160a01b038816906370a082319060240160206040518083038186803b15801561291f57600080fd5b505afa158015612933573d6000803e3d6000fd5b505050506040513d601f19601f820116820180604052508101906129579190614d5b565b6101335461012e54919250612985916001600160a01b03918216918a918a911660646101f430886000613b71565b61298f90866156dc565b945050505b80156129cd576101335461012e546129c0916001600160a01b0390811691899116606430866000613d03565b6129ca90846156dc565b92505b8215612a5c5761012e5460405163a9059cbb60e01b81526001600160a01b038e81166004830152602482018690529091169063a9059cbb90604401602060405180830381600087803b158015612a2257600080fd5b505af1158015612a36573d6000803e3d6000fd5b505050506040513d601f19601f82011682018060405250810190612a5a9190614d25565b505b50909a9950505050505050505050565b6101365460009015612c0b576000612a8261073b565b610134546101365460405163133f757160e31b81526001600160801b039390931693506000926001600160a01b03909216916399fbab8891612aca9160040190815260200190565b6101606040518083038186803b158015612ae357600080fd5b505afa158015612af7573d6000803e3d6000fd5b505050506040513d601f19601f82011682018060405250810190612b1b9190614e19565b5060c081015190915015612be957604080516001808252818301909252600091602080830190803683370190505090506101365481600081518110612b6257612b626158f4565b6020908102919091010152610138546101355460405163b825627560e01b81526001600160a01b03600160301b90930483169263b825627592612bb5928692600092839291169082904290600401615311565b600060405180830381600087803b158015612bcf57600080fd5b505af1158015612be3573d6000803e3d6000fd5b50505050505b612bf16135c8565b612bfa82613e33565b600061013655612c08613fbd565b50505b61012e546040516370a0823160e01b81523060048201526001600160a01b03909116906370a082319060240160206040518083038186803b158015612c4f57600080fd5b505afa158015612c63573d6000803e3d6000fd5b505050506040513d601f19601f820116820180604052508101906122949190614d5b565b6000612c958360fc5461406e565b92506000612ca28461407d565b90506000612cb0828661583d565b9050612cba6135c8565b610135546040805163217ac23760e01b815290516000926001600160a01b03169163217ac237916004808301926080929190829003018186803b158015612d0057600080fd5b505afa158015612d14573d6000803e3d6000fd5b505050506040513d601f19601f82011682018060405250810190612d389190614f82565b505061013854919250600091612d7591508390612d579060020b612e19565b61013854612d6e906301000000900460020b612e19565b878761421f565b9050612d89816001600160801b0316613e33565b612d91613fbd565b61012e546040516370a0823160e01b81523060048201526001600160a01b03909116906370a082319060240160206040518083038186803b158015612dd557600080fd5b505afa158015612de9573d6000803e3d6000fd5b505050506040513d601f19601f82011682018060405250810190612e0d9190614d5b565b98975050505050505050565b60008060008360020b12612e30578260020b612e3d565b8260020b612e3d906158ab565b9050600060018216612e5357600160801b612e65565b6ffffcb933bd6fad37aa2d162d1a5940015b70ffffffffffffffffffffffffffffffffff1690506002821615612ea4576080612e9f826ffff97272373d413259a46990580e213a6157f6565b901c90505b6004821615612ece576080612ec9826ffff2e50f5f656932ef12357cf3c7fdcc6157f6565b901c90505b6008821615612ef8576080612ef3826fffe5caca7e10e4e61c3624eaa0941cd06157f6565b901c90505b6010821615612f22576080612f1d826fffcb9843d60f6159c9db58835c9266446157f6565b901c90505b6020821615612f4c576080612f47826fff973b41fa98c081472e6896dfb254c06157f6565b901c90505b6040821615612f76576080612f71826fff2ea16466c96a3843ec78b326b528616157f6565b901c90505b6080821615612fa0576080612f9b826ffe5dee046a99a2a811c461f1969c30536157f6565b901c90505b610100821615612fcb576080612fc6826ffcbe86c7900a88aedcffc83b479aa3a46157f6565b901c90505b610200821615612ff6576080612ff1826ff987a7253ac413176f2b074cf7815e546157f6565b901c90505b61040082161561302157608061301c826ff3392b0822b70005940c7a398e4b70f36157f6565b901c90505b61080082161561304c576080613047826fe7159475a2c29b7443b29c7fa6e889d96157f6565b901c90505b611000821615613077576080613072826fd097f3bdfd2022b8845ad8f792aa58256157f6565b901c90505b6120008216156130a257608061309d826fa9f746462d870fdf8a65dc1f90e061e56157f6565b901c90505b6140008216156130cd5760806130c8826f70d869a156d2a1b890bb3df62baf32f76157f6565b901c90505b6180008216156130f85760806130f3826f31be135f97d08fd981231505542fcfa66157f6565b901c90505b6201000082161561312457608061311f826f09aa508b5b7a84e1c677de54f3e99bc96157f6565b901c90505b6202000082161561314f57608061314a826e5d6af8dedb81196699c329225ee6046157f6565b901c90505b62040000821615613179576080613174826d2216e584f5fa1ea926041bedfe986157f6565b901c90505b620800008216156131a157608061319c826b048a170391f7dc42444e8fa26157f6565b901c90505b60008460020b13156131bc576131b9816000196156f4565b90505b6131cb64010000000082615897565b156131d75760016131da565b60005b6131eb9060ff16602083901c6156dc565b949350505050565b600080836001600160a01b0316856001600160a01b03161115613214579293925b846001600160a01b0316866001600160a01b03161161323f576132388585856142e3565b9150613286565b836001600160a01b0316866001600160a01b03161015613278576132648685856142e3565b9150613271858785614356565b9050613286565b613283858585614356565b90505b94509492505050565b6101305460009081906132aa906001600160a01b03166143a0565b61012f549091506000906132c6906001600160a01b03166143a0565b90506131eb84610132546101315485856144c4565b6132e5828261115c565b610891576132f2816144ef565b6132fd836020614501565b60405160200161330e929190615217565b60408051601f198184030181529082905262461bcd60e51b825261087e91600401615358565b6001600160a01b0381163b6133a15760405162461bcd60e51b815260206004820152602d60248201527f455243313936373a206e657720696d706c656d656e746174696f6e206973206e60448201526c1bdd08184818dbdb9d1c9858dd609a1b606482015260840161087e565b60008051602061598483398151915280546001600160a01b0319166001600160a01b0392909216919091179055565b6133d98361469d565b6000825111806133e65750805b1561080d576133f583836146dd565b50505050565b600054610100900460ff166134665760405162461bcd60e51b815260206004820152602b60248201527f496e697469616c697a61626c653a20636f6e7472616374206973206e6f74206960448201526a6e697469616c697a696e6760a81b606482015260840161087e565b565b61012d546040516370a0823160e01b81523060048201526000916001600160a01b0316906370a082319060240160206040518083038186803b1580156134ad57600080fd5b505afa1580156134c1573d6000803e3d6000fd5b505050506040513d601f19601f820116820180604052508101906134e59190614d5b565b61012e546040516370a0823160e01b81523060048201529192506000916001600160a01b03909116906370a082319060240160206040518083038186803b15801561352f57600080fd5b505afa158015613543573d6000803e3d6000fd5b505050506040513d601f19601f820116820180604052508101906135679190614d5b565b90506135758160fc5461406e565b9050600061358b613586848461583d565b61407d565b9050801561080d576101335461012e5461012d546133f5926001600160a01b039081169281169116606430866135c3611ef4826147c8565b613d03565b604080516001808252818301909252600091602080830190803683370190505090506101365481600081518110613601576136016158f4565b60200260200101818152505061361561393b565b15613763576040805160018082528183019092526000916020808301908036833701905050610138546101365461013754604051636e0b454960e11b815260048101929092526024820152919250600160301b90046001600160a01b03169063dc168a929060440160006040518083038186803b15801561369557600080fd5b505afa1580156136a9573d6000803e3d6000fd5b505050506040513d6000823e601f3d908101601f191682016040526136d19190810190614ff3565b905050816000815181106136e7576136e76158f4565b602090810291909101015261013854610137546040516319ad699960e21b8152600160301b9092046001600160a01b0316916366b5a6649161372f9186908690600401615628565b600060405180830381600087803b15801561374957600080fd5b505af115801561375d573d6000803e3d6000fd5b50505050505b61013854604051634c1ecae760e11b8152600160301b9091046001600160a01b03169063983d95ce9061379a90849060040161528c565b600060405180830381600087803b1580156137b457600080fd5b505af11580156125c9573d6000803e3d6000fd5b604080516001808252818301909252600091602080830190803683370190505090506101365481600081518110613801576138016158f4565b602090810291909101015260408051600180825281830190925260009181602001602082028036833701905050905061383861073b565b6001600160801b031681600081518110613854576138546158f4565b60209081029190910101526101385460405163598b8e7160e01b8152600160301b9091046001600160a01b03169063598b8e719061389690859060040161528c565b600060405180830381600087803b1580156138b057600080fd5b505af11580156138c4573d6000803e3d6000fd5b505061013854610137546040516341e817ab60e01b8152600160301b9092046001600160a01b031693506341e817ab92506139059186908690600401615628565b600060405180830381600087803b15801561391f57600080fd5b505af1158015613933573d6000803e3d6000fd5b505050505050565b610138546101365460405163705b5bef60e01b815260048101919091526000918291600160301b9091046001600160a01b03169063705b5bef9060240160006040518083038186803b15801561399057600080fd5b505afa1580156139a4573d6000803e3d6000fd5b505050506040513d6000823e601f3d908101601f191682016040526139cc9190810190614cf0565b51151592915050565b60405163095ea7b360e01b81526001600160a01b038881166004830152602482018490526000919088169063095ea7b390604401602060405180830381600087803b158015613a2357600080fd5b505af1158015613a37573d6000803e3d6000fd5b505050506040513d601f19601f82011682018060405250810190613a5b9190614d25565b5060408051610100810182526001600160a01b0389811682528881166020830190815262ffffff89811684860190815289841660608601908152426080870190815260a087018b815260c088018b8152600060e08a01908152995163a8c9ed6760e01b815289518916600482015296518816602488015293519094166044860152905185166064850152516084840152905160a48301525160c48201529251811660e48401529091908a169063a8c9ed6790610104015b602060405180830381600087803b158015613b2c57600080fd5b505af1158015613b40573d6000803e3d6000fd5b505050506040513d601f19601f82011682018060405250810190613b649190614d5b565b9998505050505050505050565b60405163095ea7b360e01b81526001600160a01b038a8116600483015260248201849052600091908a169063095ea7b390604401602060405180830381600087803b158015613bbf57600080fd5b505af1158015613bd3573d6000803e3d6000fd5b505050506040513d601f19601f82011682018060405250810190613bf79190614d25565b50604080516080810182526bffffffffffffffffffffffff1960608c811b821660a08401526001600160e81b031960e88b811b821660b48601528d831b841660b78601528a901b1660cb8401528a811b90911660ce830152825180830360c201815260e28301845282526001600160a01b038781166020840152828401879052908201859052915163b858183f60e01b815290918c169063b858183f90613ca2908490600401615488565b602060405180830381600087803b158015613cbc57600080fd5b505af1158015613cd0573d6000803e3d6000fd5b505050506040513d601f19601f82011682018060405250810190613cf49190614d5b565b9b9a5050505050505050505050565b60405163095ea7b360e01b81526001600160a01b038881166004830152602482018490526000919088169063095ea7b390604401602060405180830381600087803b158015613d5157600080fd5b505af1158015613d65573d6000803e3d6000fd5b505050506040513d601f19601f82011682018060405250810190613d899190614d25565b506040805160e0810182526001600160a01b0389811682528881166020830190815262ffffff89811684860190815289841660608601908152608086018a815260a087018a8152600060c0890190815298516304e45aaf60e01b8152885188166004820152955187166024870152925190931660448501525184166064840152905160848301525160a48201529251811660c48401529091908a16906304e45aaf9060e401613b12565b6040805160a0810182526101365481526001600160801b038381166020830190815260008385018181526060850191825242608086019081526101345496516398e04d7760e01b815286516004820152935190941660248401525160448301525160648201529051608482015290916001600160a01b0316906398e04d779060a401606060405180830381600087803b158015613ecf57600080fd5b505af1158015613ee3573d6000803e3d6000fd5b505050506040513d601f19601f82011682018060405250810190613f0791906150c8565b50506101345461012e5460405163bf1316c160e01b81526001600160a01b039182166004820152600060248201523060448201529116915063bf1316c190606401600060405180830381600087803b158015613f6257600080fd5b505af1158015613f76573d6000803e3d6000fd5b50506101345461012d5460405163bf1316c160e01b81526001600160a01b039182166004820152600060248201523060448201529116925063bf1316c19150606401613905565b61012d546040516370a0823160e01b81523060048201526000916001600160a01b0316906370a082319060240160206040518083038186803b15801561400257600080fd5b505afa158015614016573d6000803e3d6000fd5b505050506040513d601f19601f8201168201806040525081019061403a9190614d5b565b6101335461012d5461012e54929350610891926001600160a01b03928316929182169116606430866135c3611ef48261328f565b600061271061228083826156dc565b60008061013560009054906101000a90046001600160a01b03166001600160a01b031663217ac2376040518163ffffffff1660e01b815260040160806040518083038186803b1580156140cf57600080fd5b505afa1580156140e3573d6000803e3d6000fd5b505050506040513d601f19601f820116820180604052508101906141079190614f82565b5050509050600061013560009054906101000a90046001600160a01b03166001600160a01b031663ab612f2b6040518163ffffffff1660e01b815260040160606040518083038186803b15801561415d57600080fd5b505afa158015614171573d6000803e3d6000fd5b505050506040513d601f19601f820116820180604052508101906141959190614f02565b50506101385490915060009081906141d29085906141b59060020b612e19565b610138546141cc906301000000900460020b612e19565b866131f3565b915091506000826101315461013254846141ec91906157f6565b6141f691906156f4565b61420091906156dc565b61420a84896157f6565b61421491906156f4565b979650505050505050565b6000836001600160a01b0316856001600160a01b0316111561423f579293925b846001600160a01b0316866001600160a01b03161161426a57614263858585614814565b90506142da565b836001600160a01b0316866001600160a01b031610156142cc576000614291878686614814565b905060006142a087898661487e565b9050806001600160801b0316826001600160801b0316106142c157806142c3565b815b925050506142da565b6142d785858461487e565b90505b95945050505050565b6000826001600160a01b0316846001600160a01b03161115614303579192915b6001600160a01b03841661434c6fffffffffffffffffffffffffffffffff60601b606085901b166143348787615815565b6001600160a01b0316866001600160a01b03166148b4565b6131eb91906156f4565b6000826001600160a01b0316846001600160a01b03161115614376579192915b6131eb6001600160801b03831661438d8686615815565b6001600160a01b0316600160601b6148b4565b6000806000806000856001600160a01b031663feaf968c6040518163ffffffff1660e01b815260040160a06040518083038186803b1580156143e157600080fd5b505afa1580156143f5573d6000803e3d6000fd5b505050506040513d601f19601f8201168201806040525081019061441991906150f6565b9450945050935093508369ffffffffffffffffffff168169ffffffffffffffffffff1610156144755760405162461bcd60e51b81526020600482015260086024820152674f6c64206461746160c01b604482015260640161087e565b600082116144ba5760405162461bcd60e51b8152602060048201526012602482015271526f756e64206e6f7420636f6d706c65746560701b604482015260640161087e565b5090949350505050565b60006144d082866157f6565b836144db86896157f6565b6144e591906157f6565b6142d791906156f4565b60606107356001600160a01b03831660145b606060006145108360026157f6565b61451b9060026156dc565b67ffffffffffffffff8111156145335761453361590a565b6040519080825280601f01601f19166020018201604052801561455d576020820181803683370190505b509050600360fc1b81600081518110614578576145786158f4565b60200101906001600160f81b031916908160001a905350600f60fb1b816001815181106145a7576145a76158f4565b60200101906001600160f81b031916908160001a90535060006145cb8460026157f6565b6145d69060016156dc565b90505b600181111561464e576f181899199a1a9b1b9c1cb0b131b232b360811b85600f166010811061460a5761460a6158f4565b1a60f81b828281518110614620576146206158f4565b60200101906001600160f81b031916908160001a90535060049490941c9361464781615880565b90506145d9565b5083156122945760405162461bcd60e51b815260206004820181905260248201527f537472696e67733a20686578206c656e67746820696e73756666696369656e74604482015260640161087e565b6146a681613334565b6040516001600160a01b038216907fbc7cd75a20ee27fd9adebab32041f755214dbc6bffa90cc0225b39da2e5c2d3b90600090a250565b60606001600160a01b0383163b6147455760405162461bcd60e51b815260206004820152602660248201527f416464726573733a2064656c65676174652063616c6c20746f206e6f6e2d636f6044820152651b9d1c9858dd60d21b606482015260840161087e565b600080846001600160a01b03168460405161476091906151fb565b600060405180830381855af49150503d806000811461479b576040519150601f19603f3d011682016040523d82523d6000602084013e6147a0565b606091505b50915091506142da82826040518060600160405280602781526020016159a460279139614963565b6101305460009081906147e3906001600160a01b03166143a0565b61012f549091506000906147ff906001600160a01b03166143a0565b90506131eb84610131546101325484866144c4565b6000826001600160a01b0316846001600160a01b03161115614834579192915b6000614857856001600160a01b0316856001600160a01b0316600160601b6148b4565b90506142da614879848361486b8989615815565b6001600160a01b03166148b4565b61497c565b6000826001600160a01b0316846001600160a01b0316111561489e579192915b6131eb61487983600160601b61486b8888615815565b6000808060001985870985870292508281108382030391505080600014156148ee57600084116148e357600080fd5b508290049050612294565b8084116148fa57600080fd5b60008486880960026001871981018816978890046003810283188082028403028082028403028082028403028082028403028082028403029081029092039091026000889003889004909101858311909403939093029303949094049190911702949350505050565b60608315614972575081612294565b6122948383614992565b806001600160801b0381168114611a4657600080fd5b8151156149a25781518083602001fd5b8060405162461bcd60e51b815260040161087e9190615358565b60405180604001604052806002906020820280368337509192915050565b8051611a4681615920565b600082601f8301126149f657600080fd5b81516020614a0b614a06836156b8565b615687565b80838252828201915082860187848660051b8901011115614a2b57600080fd5b60005b85811015614a4a57815184529284019290840190600101614a2e565b5090979650505050505050565b8051611a4681615943565b600060608284031215614a7457600080fd5b6040516060810181811067ffffffffffffffff82111715614a9757614a9761590a565b80604052508091508251614aaa81615920565b81526020830151614aba81615952565b60208201526040830151614acd81615920565b6040919091015292915050565b80516001600160801b0381168114611a4657600080fd5b805169ffffffffffffffffffff81168114611a4657600080fd5b600060208284031215614b1d57600080fd5b813561229481615920565b60008060408385031215614b3b57600080fd5b8235614b4681615920565b915060208381013567ffffffffffffffff80821115614b6457600080fd5b818601915086601f830112614b7857600080fd5b813581811115614b8a57614b8a61590a565b614b9c601f8201601f19168501615687565b91508082528784828501011115614bb257600080fd5b80848401858401376000848284010152508093505050509250929050565b60008060408385031215614be357600080fd5b8235614bee81615920565b946020939093013593505050565b60008060008060808587031215614c1257600080fd5b8435614c1d81615920565b9350602085013592506040850135614c3481615920565b91506060850135614c4481615935565b939692955090935050565b60006020808385031215614c6257600080fd5b825167ffffffffffffffff811115614c7957600080fd5b8301601f81018513614c8a57600080fd5b8051614c98614a06826156b8565b80828252848201915084840188868560051b8701011115614cb857600080fd5b600094505b83851015614ce4578051614cd081615943565b835260019490940193918501918501614cbd565b50979650505050505050565b600060208284031215614d0257600080fd5b815167ffffffffffffffff811115614d1957600080fd5b6131eb848285016149e5565b600060208284031215614d3757600080fd5b815161229481615935565b600060208284031215614d5457600080fd5b5035919050565b600060208284031215614d6d57600080fd5b5051919050565b60008060408385031215614d8757600080fd5b823591506020830135614d9981615920565b809150509250929050565b600060208284031215614db657600080fd5b81356001600160e01b03198116811461229457600080fd5b600060208284031215614de057600080fd5b813561229481615943565b60008060408385031215614dfe57600080fd5b8235614e0981615943565b91506020830135614d9981615943565b600080828403610160811215614e2e57600080fd5b61010080821215614e3e57600080fd5b614e4661565d565b915084516bffffffffffffffffffffffff81168114614e6457600080fd5b8252614e72602086016149da565b6020830152614e8360408601614af1565b6040830152614e9460608601614a57565b6060830152614ea560808601614a57565b6080830152614eb660a08601614ada565b60a083015260c085015160c083015260e085015160e0830152819350614ede86828701614a62565b925050509250929050565b60006101808284031215614efc57600080fd5b50919050565b600080600060608486031215614f1757600080fd5b614f2084614ada565b9250614f2e60208501614ada565b9150614f3c60408501614ada565b90509250925092565b60008060008060808587031215614f5b57600080fd5b614f6485614ada565b60208601516040870151606090970151919890975090945092505050565b60008060008060808587031215614f9857600080fd5b8451614fa381615920565b6020860151909450614fb481615943565b6040860151909350614fc581615943565b6060860151909250614c4481615935565b600060208284031215614fe857600080fd5b813561229481615952565b60008060006060848603121561500857600080fd5b83519250602084015167ffffffffffffffff8082111561502757600080fd5b615033878388016149e5565b9350604086015191508082111561504957600080fd5b50615056868287016149e5565b9150509250925092565b6000806000806080858703121561507657600080fd5b8451935061508660208601614ada565b6040860151606090960151949790965092505050565b6000806000606084860312156150b157600080fd5b505081359360208301359350604090920135919050565b6000806000606084860312156150dd57600080fd5b8351925060208401519150604084015190509250925092565b600080600080600060a0868803121561510e57600080fd5b61511786614af1565b945060208601519350604086015192506060860151915061513a60808701614af1565b90509295509295909350565b60006020828403121561515857600080fd5b815160ff8116811461229457600080fd5b8060005b600280821061517c57506133f5565b8251900b84526020938401939091019060010161516d565b600081518084526020808501945080840160005b838110156151c4578151875295820195908201906001016151a8565b509495945050505050565b600081518084526151e7816020860160208601615854565b601f01601f19169290920160200192915050565b6000825161520d818460208701615854565b9190910192915050565b7f416363657373436f6e74726f6c3a206163636f756e742000000000000000000081526000835161524f816017850160208801615854565b7001034b99036b4b9b9b4b733903937b6329607d1b6017918401918201528351615280816028840160208801615854565b01602801949350505050565b6020815260006122946020830184615194565b6040815260006152b26040830185615194565b6020838203818501528185518084528284019150828160051b85010183880160005b8381101561530257601f198784030185526152f08383516151cf565b948601949250908501906001016152d4565b50909998505050505050505050565b60c08152600061532460c0830189615194565b60208301979097525060408101949094526001600160a01b039290921660608401521515608083015260a090910152919050565b60208152600061229460208301846151cf565b6020808252601f908201527f5265737472696374656420746f20504f5254464f4c494f5f4d414e4147455200604082015260600190565b6020808252602c908201527f46756e6374696f6e206d7573742062652063616c6c6564207468726f7567682060408201526b19195b1959d85d1958d85b1b60a21b606082015260800190565b6020808252602c908201527f46756e6374696f6e206d7573742062652063616c6c6564207468726f7567682060408201526b6163746976652070726f787960a01b606082015260800190565b6020808252602e908201527f496e697469616c697a61626c653a20636f6e747261637420697320616c72656160408201526d191e481a5b9a5d1a585b1a5e995960921b606082015260800190565b6020815260008251608060208401526154a460a08401826151cf565b905060018060a01b03602085015116604084015260408401516060840152606084015160808401528091505092915050565b60208152600082516020808401526131eb6040840182615194565b8151815260208083015161010083019161550d90840182615169565b506040830151606083015260608301516080830152608083015160a083015260a083015160c083015260c083015160e083015292915050565b81516001600160a01b031681526101a08101602083015161557260208401826001600160a01b03169052565b506040830151615589604084018262ffffff169052565b50606083015161559e606084018260020b9052565b5060808301516155b3608084018260020b9052565b5060a08301516155c660a0840182615169565b5060c083015160e083810191909152830151610100808401919091528301516101208084019190915283015161014080840191909152830151610160615616818501836001600160a01b03169052565b80850151610180850152505092915050565b8381526060602082015260006156416060830185615194565b82810360408401526156538185615194565b9695505050505050565b604051610100810167ffffffffffffffff811182821017156156815761568161590a565b60405290565b604051601f8201601f1916810167ffffffffffffffff811182821017156156b0576156b061590a565b604052919050565b600067ffffffffffffffff8211156156d2576156d261590a565b5060051b60200190565b600082198211156156ef576156ef6158c8565b500190565b600082615703576157036158de565b500490565b600181815b80851115615743578160001904821115615729576157296158c8565b8085161561573657918102915b93841c939080029061570d565b509250929050565b600061229460ff84168360008261576457506001610735565b8161577157506000610735565b81600181146157875760028114615791576157ad565b6001915050610735565b60ff8411156157a2576157a26158c8565b50506001821b610735565b5060208310610133831016604e8410600b84101617156157d0575081810a610735565b6157da8383615708565b80600019048211156157ee576157ee6158c8565b029392505050565b6000816000190483118215151615615810576158106158c8565b500290565b60006001600160a01b0383811690831681811015615835576158356158c8565b039392505050565b60008282101561584f5761584f6158c8565b500390565b60005b8381101561586f578181015183820152602001615857565b838111156133f55750506000910152565b60008161588f5761588f6158c8565b506000190190565b6000826158a6576158a66158de565b500690565b6000600160ff1b8214156158c1576158c16158c8565b5060000390565b634e487b7160e01b600052601160045260246000fd5b634e487b7160e01b600052601260045260246000fd5b634e487b7160e01b600052603260045260246000fd5b634e487b7160e01b600052604160045260246000fd5b6001600160a01b038116811461097257600080fd5b801515811461097257600080fd5b8060020b811461097257600080fd5b62ffffff8116811461097257600080fdfe90c2aa7471c04182221f68e80c07ab1e5946e4c63f8693e14ca40385d529f051360894a13ba1a3210667c828492db98dca3e2076cc3735a920a3ca505d382bbc416464726573733a206c6f772d6c6576656c2064656c65676174652063616c6c206661696c6564a2646970667358221220aea80a19016d3dfded363783bb29cd0351d6cf512f507a24816d00f79a88934464736f6c63430008060033",
  "implementation": "0x179a97EF6dC0Da16146E89829C4c5c519634e1DD",
  "devdoc": {
    "kind": "dev",
    "methods": {
      "constructor": {
        "custom:oz-upgrades-unsafe-allow": "constructor"
      },
      "getRoleAdmin(bytes32)": {
        "details": "Returns the admin role that controls `role`. See {grantRole} and {revokeRole}. To change a role's admin, use {_setRoleAdmin}."
      },
      "grantRole(bytes32,address)": {
        "details": "Grants `role` to `account`. If `account` had not been already granted `role`, emits a {RoleGranted} event. Requirements: - the caller must have ``role``'s admin role. May emit a {RoleGranted} event."
      },
      "hasRole(bytes32,address)": {
        "details": "Returns `true` if `account` has been granted `role`."
      },
      "proxiableUUID()": {
        "details": "Implementation of the ERC1822 {proxiableUUID} function. This returns the storage slot used by the implementation. It is used to validate the implementation's compatibility when performing an upgrade. IMPORTANT: A proxy pointing at a proxiable contract should not be considered proxiable itself, because this risks bricking a proxy that upgrades to it, by delegating to itself until out of gas. Thus it is critical that this function revert if invoked through a proxy. This is guaranteed by the `notDelegated` modifier."
      },
      "renounceRole(bytes32,address)": {
        "details": "Revokes `role` from the calling account. Roles are often managed via {grantRole} and {revokeRole}: this function's purpose is to provide a mechanism for accounts to lose their privileges if they are compromised (such as when a trusted device is misplaced). If the calling account had been revoked `role`, emits a {RoleRevoked} event. Requirements: - the caller must be `account`. May emit a {RoleRevoked} event."
      },
      "revokeRole(bytes32,address)": {
        "details": "Revokes `role` from `account`. If `account` had been granted `role`, emits a {RoleRevoked} event. Requirements: - the caller must have ``role``'s admin role. May emit a {RoleRevoked} event."
      },
      "supportsInterface(bytes4)": {
        "details": "See {IERC165-supportsInterface}."
      },
      "upgradeTo(address)": {
        "details": "Upgrade the implementation of the proxy to `newImplementation`. Calls {_authorizeUpgrade}. Emits an {Upgraded} event."
      },
      "upgradeToAndCall(address,bytes)": {
        "details": "Upgrade the implementation of the proxy to `newImplementation`, and subsequently execute the function call encoded in `data`. Calls {_authorizeUpgrade}. Emits an {Upgraded} event."
      }
    },
    "version": 1
  },
  "userdoc": {
    "kind": "user",
    "methods": {},
    "version": 1
  },
  "storageLayout": {
    "storage": [
      {
        "astId": 804,
        "contract": "contracts/StrategyKyberSwapUsdcUsdt.sol:StrategyKyberSwapUsdcUsdt",
        "label": "_initialized",
        "offset": 0,
        "slot": "0",
        "type": "t_uint8"
      },
      {
        "astId": 807,
        "contract": "contracts/StrategyKyberSwapUsdcUsdt.sol:StrategyKyberSwapUsdcUsdt",
        "label": "_initializing",
        "offset": 1,
        "slot": "0",
        "type": "t_bool"
      },
      {
        "astId": 1427,
        "contract": "contracts/StrategyKyberSwapUsdcUsdt.sol:StrategyKyberSwapUsdcUsdt",
        "label": "__gap",
        "offset": 0,
        "slot": "1",
        "type": "t_array(t_uint256)50_storage"
      },
      {
        "astId": 1706,
        "contract": "contracts/StrategyKyberSwapUsdcUsdt.sol:StrategyKyberSwapUsdcUsdt",
        "label": "__gap",
        "offset": 0,
        "slot": "51",
        "type": "t_array(t_uint256)50_storage"
      },
      {
        "astId": 39,
        "contract": "contracts/StrategyKyberSwapUsdcUsdt.sol:StrategyKyberSwapUsdcUsdt",
        "label": "_roles",
        "offset": 0,
        "slot": "101",
        "type": "t_mapping(t_bytes32,t_struct(RoleData)34_storage)"
      },
      {
        "astId": 334,
        "contract": "contracts/StrategyKyberSwapUsdcUsdt.sol:StrategyKyberSwapUsdcUsdt",
        "label": "__gap",
        "offset": 0,
        "slot": "102",
        "type": "t_array(t_uint256)49_storage"
      },
      {
        "astId": 786,
        "contract": "contracts/StrategyKyberSwapUsdcUsdt.sol:StrategyKyberSwapUsdcUsdt",
        "label": "__gap",
        "offset": 0,
        "slot": "151",
        "type": "t_array(t_uint256)50_storage"
      },
      {
        "astId": 1101,
        "contract": "contracts/StrategyKyberSwapUsdcUsdt.sol:StrategyKyberSwapUsdcUsdt",
        "label": "__gap",
        "offset": 0,
        "slot": "201",
        "type": "t_array(t_uint256)50_storage"
      },
      {
        "astId": 6741,
        "contract": "contracts/StrategyKyberSwapUsdcUsdt.sol:StrategyKyberSwapUsdcUsdt",
        "label": "portfolioManager",
        "offset": 0,
        "slot": "251",
        "type": "t_address"
      },
      {
        "astId": 6743,
        "contract": "contracts/StrategyKyberSwapUsdcUsdt.sol:StrategyKyberSwapUsdcUsdt",
        "label": "swapSlippageBP",
        "offset": 0,
        "slot": "252",
        "type": "t_uint256"
      },
      {
        "astId": 6745,
        "contract": "contracts/StrategyKyberSwapUsdcUsdt.sol:StrategyKyberSwapUsdcUsdt",
        "label": "navSlippageBP",
        "offset": 0,
        "slot": "253",
        "type": "t_uint256"
      },
      {
        "astId": 6747,
        "contract": "contracts/StrategyKyberSwapUsdcUsdt.sol:StrategyKyberSwapUsdcUsdt",
        "label": "stakeSlippageBP",
        "offset": 0,
        "slot": "254",
        "type": "t_uint256"
      },
      {
        "astId": 7132,
        "contract": "contracts/StrategyKyberSwapUsdcUsdt.sol:StrategyKyberSwapUsdcUsdt",
        "label": "__gap",
        "offset": 0,
        "slot": "255",
        "type": "t_array(t_uint256)46_storage"
      },
      {
        "astId": 8796,
        "contract": "contracts/StrategyKyberSwapUsdcUsdt.sol:StrategyKyberSwapUsdcUsdt",
        "label": "usdt",
        "offset": 0,
        "slot": "301",
        "type": "t_contract(IERC20)2662"
      },
      {
        "astId": 8799,
        "contract": "contracts/StrategyKyberSwapUsdcUsdt.sol:StrategyKyberSwapUsdcUsdt",
        "label": "usdc",
        "offset": 0,
        "slot": "302",
        "type": "t_contract(IERC20)2662"
      },
      {
        "astId": 8802,
        "contract": "contracts/StrategyKyberSwapUsdcUsdt.sol:StrategyKyberSwapUsdcUsdt",
        "label": "oracleUsdc",
        "offset": 0,
        "slot": "303",
        "type": "t_contract(IPriceFeed)3025"
      },
      {
        "astId": 8805,
        "contract": "contracts/StrategyKyberSwapUsdcUsdt.sol:StrategyKyberSwapUsdcUsdt",
        "label": "oracleUsdt",
        "offset": 0,
        "slot": "304",
        "type": "t_contract(IPriceFeed)3025"
      },
      {
        "astId": 8807,
        "contract": "contracts/StrategyKyberSwapUsdcUsdt.sol:StrategyKyberSwapUsdcUsdt",
        "label": "usdcDm",
        "offset": 0,
        "slot": "305",
        "type": "t_uint256"
      },
      {
        "astId": 8809,
        "contract": "contracts/StrategyKyberSwapUsdcUsdt.sol:StrategyKyberSwapUsdcUsdt",
        "label": "usdtDm",
        "offset": 0,
        "slot": "306",
        "type": "t_uint256"
      },
      {
        "astId": 8812,
        "contract": "contracts/StrategyKyberSwapUsdcUsdt.sol:StrategyKyberSwapUsdcUsdt",
        "label": "uniswapV3Router",
        "offset": 0,
        "slot": "307",
        "type": "t_contract(ISwapRouter)4644"
      },
      {
        "astId": 8815,
        "contract": "contracts/StrategyKyberSwapUsdcUsdt.sol:StrategyKyberSwapUsdcUsdt",
        "label": "npm",
        "offset": 0,
        "slot": "308",
        "type": "t_contract(AntiSnipAttackPositionManager)4227"
      },
      {
        "astId": 8818,
        "contract": "contracts/StrategyKyberSwapUsdcUsdt.sol:StrategyKyberSwapUsdcUsdt",
        "label": "pool",
        "offset": 0,
        "slot": "309",
        "type": "t_contract(Pool)4258"
      },
      {
        "astId": 8820,
        "contract": "contracts/StrategyKyberSwapUsdcUsdt.sol:StrategyKyberSwapUsdcUsdt",
        "label": "fee",
        "offset": 20,
        "slot": "309",
        "type": "t_uint24"
      },
      {
        "astId": 8822,
        "contract": "contracts/StrategyKyberSwapUsdcUsdt.sol:StrategyKyberSwapUsdcUsdt",
        "label": "tokenId",
        "offset": 0,
        "slot": "310",
        "type": "t_uint256"
      },
      {
        "astId": 8824,
        "contract": "contracts/StrategyKyberSwapUsdcUsdt.sol:StrategyKyberSwapUsdcUsdt",
        "label": "poolId",
        "offset": 0,
        "slot": "311",
        "type": "t_uint256"
      },
      {
        "astId": 8826,
        "contract": "contracts/StrategyKyberSwapUsdcUsdt.sol:StrategyKyberSwapUsdcUsdt",
        "label": "lowerTick",
        "offset": 0,
        "slot": "312",
        "type": "t_int24"
      },
      {
        "astId": 8828,
        "contract": "contracts/StrategyKyberSwapUsdcUsdt.sol:StrategyKyberSwapUsdcUsdt",
        "label": "upperTick",
        "offset": 3,
        "slot": "312",
        "type": "t_int24"
      },
      {
        "astId": 8831,
        "contract": "contracts/StrategyKyberSwapUsdcUsdt.sol:StrategyKyberSwapUsdcUsdt",
        "label": "lm",
        "offset": 6,
        "slot": "312",
        "type": "t_contract(KyberSwapElasticLM)4357"
      }
    ],
    "types": {
      "t_address": {
        "encoding": "inplace",
        "label": "address",
        "numberOfBytes": "20"
      },
      "t_array(t_uint256)46_storage": {
        "base": "t_uint256",
        "encoding": "inplace",
        "label": "uint256[46]",
        "numberOfBytes": "1472"
      },
      "t_array(t_uint256)49_storage": {
        "base": "t_uint256",
        "encoding": "inplace",
        "label": "uint256[49]",
        "numberOfBytes": "1568"
      },
      "t_array(t_uint256)50_storage": {
        "base": "t_uint256",
        "encoding": "inplace",
        "label": "uint256[50]",
        "numberOfBytes": "1600"
      },
      "t_bool": {
        "encoding": "inplace",
        "label": "bool",
        "numberOfBytes": "1"
      },
      "t_bytes32": {
        "encoding": "inplace",
        "label": "bytes32",
        "numberOfBytes": "32"
      },
      "t_contract(AntiSnipAttackPositionManager)4227": {
        "encoding": "inplace",
        "label": "contract AntiSnipAttackPositionManager",
        "numberOfBytes": "20"
      },
      "t_contract(IERC20)2662": {
        "encoding": "inplace",
        "label": "contract IERC20",
        "numberOfBytes": "20"
      },
      "t_contract(IPriceFeed)3025": {
        "encoding": "inplace",
        "label": "contract IPriceFeed",
        "numberOfBytes": "20"
      },
      "t_contract(ISwapRouter)4644": {
        "encoding": "inplace",
        "label": "contract ISwapRouter",
        "numberOfBytes": "20"
      },
      "t_contract(KyberSwapElasticLM)4357": {
        "encoding": "inplace",
        "label": "contract KyberSwapElasticLM",
        "numberOfBytes": "20"
      },
      "t_contract(Pool)4258": {
        "encoding": "inplace",
        "label": "contract Pool",
        "numberOfBytes": "20"
      },
      "t_int24": {
        "encoding": "inplace",
        "label": "int24",
        "numberOfBytes": "3"
      },
      "t_mapping(t_address,t_bool)": {
        "encoding": "mapping",
        "key": "t_address",
        "label": "mapping(address => bool)",
        "numberOfBytes": "32",
        "value": "t_bool"
      },
      "t_mapping(t_bytes32,t_struct(RoleData)34_storage)": {
        "encoding": "mapping",
        "key": "t_bytes32",
        "label": "mapping(bytes32 => struct AccessControlUpgradeable.RoleData)",
        "numberOfBytes": "32",
        "value": "t_struct(RoleData)34_storage"
      },
      "t_struct(RoleData)34_storage": {
        "encoding": "inplace",
        "label": "struct AccessControlUpgradeable.RoleData",
        "members": [
          {
            "astId": 31,
            "contract": "contracts/StrategyKyberSwapUsdcUsdt.sol:StrategyKyberSwapUsdcUsdt",
            "label": "members",
            "offset": 0,
            "slot": "0",
            "type": "t_mapping(t_address,t_bool)"
          },
          {
            "astId": 33,
            "contract": "contracts/StrategyKyberSwapUsdcUsdt.sol:StrategyKyberSwapUsdcUsdt",
            "label": "adminRole",
            "offset": 0,
            "slot": "1",
            "type": "t_bytes32"
          }
        ],
        "numberOfBytes": "64"
      },
      "t_uint24": {
        "encoding": "inplace",
        "label": "uint24",
        "numberOfBytes": "3"
      },
      "t_uint256": {
        "encoding": "inplace",
        "label": "uint256",
        "numberOfBytes": "32"
      },
      "t_uint8": {
        "encoding": "inplace",
        "label": "uint8",
        "numberOfBytes": "1"
      }
    }
  }
}