{
  "address": "0xb73a962205D00E28DB4B5A400DF7E35355b61CA6",
  "abi": [
    {
      "inputs": [],
      "stateMutability": "nonpayable",
      "type": "constructor"
    },
    {
      "anonymous": false,
      "inputs": [
        {
          "indexed": false,
          "internalType": "address",
          "name": "previousAdmin",
          "type": "address"
        },
        {
          "indexed": false,
          "internalType": "address",
          "name": "newAdmin",
          "type": "address"
        }
      ],
      "name": "AdminChanged",
      "type": "event"
    },
    {
      "anonymous": false,
      "inputs": [
        {
          "indexed": true,
          "internalType": "address",
          "name": "beacon",
          "type": "address"
        }
      ],
      "name": "BeaconUpgraded",
      "type": "event"
    },
    {
      "anonymous": false,
      "inputs": [
        {
          "indexed": false,
          "internalType": "uint8",
          "name": "version",
          "type": "uint8"
        }
      ],
      "name": "Initialized",
      "type": "event"
    },
    {
      "anonymous": false,
      "inputs": [
        {
          "indexed": false,
          "internalType": "address",
          "name": "value",
          "type": "address"
        }
      ],
      "name": "PortfolioManagerUpdated",
      "type": "event"
    },
    {
      "anonymous": false,
      "inputs": [
        {
          "indexed": false,
          "internalType": "uint256",
          "name": "amount",
          "type": "uint256"
        }
      ],
      "name": "Reward",
      "type": "event"
    },
    {
      "anonymous": false,
      "inputs": [
        {
          "indexed": true,
          "internalType": "bytes32",
          "name": "role",
          "type": "bytes32"
        },
        {
          "indexed": true,
          "internalType": "bytes32",
          "name": "previousAdminRole",
          "type": "bytes32"
        },
        {
          "indexed": true,
          "internalType": "bytes32",
          "name": "newAdminRole",
          "type": "bytes32"
        }
      ],
      "name": "RoleAdminChanged",
      "type": "event"
    },
    {
      "anonymous": false,
      "inputs": [
        {
          "indexed": true,
          "internalType": "bytes32",
          "name": "role",
          "type": "bytes32"
        },
        {
          "indexed": true,
          "internalType": "address",
          "name": "account",
          "type": "address"
        },
        {
          "indexed": true,
          "internalType": "address",
          "name": "sender",
          "type": "address"
        }
      ],
      "name": "RoleGranted",
      "type": "event"
    },
    {
      "anonymous": false,
      "inputs": [
        {
          "indexed": true,
          "internalType": "bytes32",
          "name": "role",
          "type": "bytes32"
        },
        {
          "indexed": true,
          "internalType": "address",
          "name": "account",
          "type": "address"
        },
        {
          "indexed": true,
          "internalType": "address",
          "name": "sender",
          "type": "address"
        }
      ],
      "name": "RoleRevoked",
      "type": "event"
    },
    {
      "anonymous": false,
      "inputs": [
        {
          "indexed": false,
          "internalType": "uint256",
          "name": "swapSlippageBP",
          "type": "uint256"
        },
        {
          "indexed": false,
          "internalType": "uint256",
          "name": "navSlippageBP",
          "type": "uint256"
        },
        {
          "indexed": false,
          "internalType": "uint256",
          "name": "stakeSlippageBP",
          "type": "uint256"
        }
      ],
      "name": "SlippagesUpdated",
      "type": "event"
    },
    {
      "anonymous": false,
      "inputs": [
        {
          "indexed": false,
          "internalType": "uint256",
          "name": "amount",
          "type": "uint256"
        }
      ],
      "name": "Stake",
      "type": "event"
    },
    {
      "anonymous": false,
      "inputs": [],
      "name": "StrategyUpdatedParams",
      "type": "event"
    },
    {
      "anonymous": false,
      "inputs": [
        {
          "indexed": false,
          "internalType": "uint256",
          "name": "amount",
          "type": "uint256"
        },
        {
          "indexed": false,
          "internalType": "uint256",
          "name": "amountReceived",
          "type": "uint256"
        }
      ],
      "name": "Unstake",
      "type": "event"
    },
    {
      "anonymous": false,
      "inputs": [
        {
          "indexed": true,
          "internalType": "address",
          "name": "implementation",
          "type": "address"
        }
      ],
      "name": "Upgraded",
      "type": "event"
    },
    {
      "inputs": [],
      "name": "DEFAULT_ADMIN_ROLE",
      "outputs": [
        {
          "internalType": "bytes32",
          "name": "",
          "type": "bytes32"
        }
      ],
      "stateMutability": "view",
      "type": "function"
    },
    {
      "inputs": [],
      "name": "PORTFOLIO_AGENT_ROLE",
      "outputs": [
        {
          "internalType": "bytes32",
          "name": "",
          "type": "bytes32"
        }
      ],
      "stateMutability": "view",
      "type": "function"
    },
    {
      "inputs": [],
      "name": "PORTFOLIO_MANAGER",
      "outputs": [
        {
          "internalType": "bytes32",
          "name": "",
          "type": "bytes32"
        }
      ],
      "stateMutability": "view",
      "type": "function"
    },
    {
      "inputs": [],
      "name": "assetWombat",
      "outputs": [
        {
          "internalType": "contract IWombatAsset",
          "name": "",
          "type": "address"
        }
      ],
      "stateMutability": "view",
      "type": "function"
    },
    {
      "inputs": [],
      "name": "assetWombatDm",
      "outputs": [
        {
          "internalType": "uint256",
          "name": "",
          "type": "uint256"
        }
      ],
      "stateMutability": "view",
      "type": "function"
    },
    {
      "inputs": [],
      "name": "camelotRouter",
      "outputs": [
        {
          "internalType": "contract ICamelotRouter",
          "name": "",
          "type": "address"
        }
      ],
      "stateMutability": "view",
      "type": "function"
    },
    {
      "inputs": [
        {
          "internalType": "address",
          "name": "_to",
          "type": "address"
        }
      ],
      "name": "claimRewards",
      "outputs": [
        {
          "internalType": "uint256",
          "name": "",
          "type": "uint256"
        }
      ],
      "stateMutability": "nonpayable",
      "type": "function"
    },
    {
      "inputs": [
        {
          "internalType": "bytes32",
          "name": "role",
          "type": "bytes32"
        }
      ],
      "name": "getRoleAdmin",
      "outputs": [
        {
          "internalType": "bytes32",
          "name": "",
          "type": "bytes32"
        }
      ],
      "stateMutability": "view",
      "type": "function"
    },
    {
      "inputs": [
        {
          "internalType": "bytes32",
          "name": "role",
          "type": "bytes32"
        },
        {
          "internalType": "address",
          "name": "account",
          "type": "address"
        }
      ],
      "name": "grantRole",
      "outputs": [],
      "stateMutability": "nonpayable",
      "type": "function"
    },
    {
      "inputs": [
        {
          "internalType": "bytes32",
          "name": "role",
          "type": "bytes32"
        },
        {
          "internalType": "address",
          "name": "account",
          "type": "address"
        }
      ],
      "name": "hasRole",
      "outputs": [
        {
          "internalType": "bool",
          "name": "",
          "type": "bool"
        }
      ],
      "stateMutability": "view",
      "type": "function"
    },
    {
      "inputs": [],
      "name": "initialize",
      "outputs": [],
      "stateMutability": "nonpayable",
      "type": "function"
    },
    {
      "inputs": [],
      "name": "liquidationValue",
      "outputs": [
        {
          "internalType": "uint256",
          "name": "",
          "type": "uint256"
        }
      ],
      "stateMutability": "view",
      "type": "function"
    },
    {
      "inputs": [],
      "name": "navSlippageBP",
      "outputs": [
        {
          "internalType": "uint256",
          "name": "",
          "type": "uint256"
        }
      ],
      "stateMutability": "view",
      "type": "function"
    },
    {
      "inputs": [],
      "name": "netAssetValue",
      "outputs": [
        {
          "internalType": "uint256",
          "name": "",
          "type": "uint256"
        }
      ],
      "stateMutability": "view",
      "type": "function"
    },
    {
      "inputs": [],
      "name": "poolFee0",
      "outputs": [
        {
          "internalType": "uint24",
          "name": "",
          "type": "uint24"
        }
      ],
      "stateMutability": "view",
      "type": "function"
    },
    {
      "inputs": [],
      "name": "poolFee1",
      "outputs": [
        {
          "internalType": "uint24",
          "name": "",
          "type": "uint24"
        }
      ],
      "stateMutability": "view",
      "type": "function"
    },
    {
      "inputs": [],
      "name": "poolWombat",
      "outputs": [
        {
          "internalType": "contract IWombatPool",
          "name": "",
          "type": "address"
        }
      ],
      "stateMutability": "view",
      "type": "function"
    },
    {
      "inputs": [],
      "name": "portfolioManager",
      "outputs": [
        {
          "internalType": "address",
          "name": "",
          "type": "address"
        }
      ],
      "stateMutability": "view",
      "type": "function"
    },
    {
      "inputs": [],
      "name": "proxiableUUID",
      "outputs": [
        {
          "internalType": "bytes32",
          "name": "",
          "type": "bytes32"
        }
      ],
      "stateMutability": "view",
      "type": "function"
    },
    {
      "inputs": [
        {
          "internalType": "bytes32",
          "name": "role",
          "type": "bytes32"
        },
        {
          "internalType": "address",
          "name": "account",
          "type": "address"
        }
      ],
      "name": "renounceRole",
      "outputs": [],
      "stateMutability": "nonpayable",
      "type": "function"
    },
    {
      "inputs": [
        {
          "internalType": "bytes32",
          "name": "role",
          "type": "bytes32"
        },
        {
          "internalType": "address",
          "name": "account",
          "type": "address"
        }
      ],
      "name": "revokeRole",
      "outputs": [],
      "stateMutability": "nonpayable",
      "type": "function"
    },
    {
      "inputs": [],
      "name": "router",
      "outputs": [
        {
          "internalType": "contract IWombatRouter",
          "name": "",
          "type": "address"
        }
      ],
      "stateMutability": "view",
      "type": "function"
    },
    {
      "inputs": [
        {
          "components": [
            {
              "internalType": "address",
              "name": "usdc",
              "type": "address"
            },
            {
              "internalType": "address",
              "name": "usdt",
              "type": "address"
            },
            {
              "internalType": "address",
              "name": "usdp",
              "type": "address"
            },
            {
              "internalType": "address",
              "name": "wom",
              "type": "address"
            },
            {
              "internalType": "address",
              "name": "wmx",
              "type": "address"
            },
            {
              "internalType": "address",
              "name": "assetWombat",
              "type": "address"
            },
            {
              "internalType": "address",
              "name": "poolWombat",
              "type": "address"
            },
            {
              "internalType": "address",
              "name": "wombatRouter",
              "type": "address"
            },
            {
              "internalType": "address",
              "name": "uniswapV3Router",
              "type": "address"
            },
            {
              "internalType": "uint24",
              "name": "poolFee0",
              "type": "uint24"
            },
            {
              "internalType": "uint24",
              "name": "poolFee1",
              "type": "uint24"
            },
            {
              "internalType": "address",
              "name": "wombexBooster",
              "type": "address"
            },
            {
              "internalType": "uint256",
              "name": "wombexBoosterPid",
              "type": "uint256"
            },
            {
              "internalType": "address",
              "name": "wombexVault",
              "type": "address"
            },
            {
              "internalType": "address",
              "name": "camelotRouter",
              "type": "address"
            }
          ],
          "internalType": "struct StrategyWombatOvnUsdp.StrategyParams",
          "name": "params",
          "type": "tuple"
        }
      ],
      "name": "setParams",
      "outputs": [],
      "stateMutability": "nonpayable",
      "type": "function"
    },
    {
      "inputs": [
        {
          "internalType": "address",
          "name": "_value",
          "type": "address"
        }
      ],
      "name": "setPortfolioManager",
      "outputs": [],
      "stateMutability": "nonpayable",
      "type": "function"
    },
    {
      "inputs": [
        {
          "internalType": "uint256",
          "name": "_swapSlippageBP",
          "type": "uint256"
        },
        {
          "internalType": "uint256",
          "name": "_navSlippageBP",
          "type": "uint256"
        },
        {
          "internalType": "uint256",
          "name": "_stakeSlippageBP",
          "type": "uint256"
        }
      ],
      "name": "setSlippages",
      "outputs": [],
      "stateMutability": "nonpayable",
      "type": "function"
    },
    {
      "inputs": [
        {
          "internalType": "address",
          "name": "_asset",
          "type": "address"
        },
        {
          "internalType": "uint256",
          "name": "_amount",
          "type": "uint256"
        }
      ],
      "name": "stake",
      "outputs": [],
      "stateMutability": "nonpayable",
      "type": "function"
    },
    {
      "inputs": [],
      "name": "stakeSlippageBP",
      "outputs": [
        {
          "internalType": "uint256",
          "name": "",
          "type": "uint256"
        }
      ],
      "stateMutability": "view",
      "type": "function"
    },
    {
      "inputs": [
        {
          "internalType": "bytes4",
          "name": "interfaceId",
          "type": "bytes4"
        }
      ],
      "name": "supportsInterface",
      "outputs": [
        {
          "internalType": "bool",
          "name": "",
          "type": "bool"
        }
      ],
      "stateMutability": "view",
      "type": "function"
    },
    {
      "inputs": [],
      "name": "swapSlippageBP",
      "outputs": [
        {
          "internalType": "uint256",
          "name": "",
          "type": "uint256"
        }
      ],
      "stateMutability": "view",
      "type": "function"
    },
    {
      "inputs": [],
      "name": "transferUsdp",
      "outputs": [],
      "stateMutability": "nonpayable",
      "type": "function"
    },
    {
      "inputs": [],
      "name": "uniswapV3Router",
      "outputs": [
        {
          "internalType": "contract ISwapRouter",
          "name": "",
          "type": "address"
        }
      ],
      "stateMutability": "view",
      "type": "function"
    },
    {
      "inputs": [
        {
          "internalType": "address",
          "name": "_asset",
          "type": "address"
        },
        {
          "internalType": "uint256",
          "name": "_amount",
          "type": "uint256"
        },
        {
          "internalType": "address",
          "name": "_beneficiary",
          "type": "address"
        },
        {
          "internalType": "bool",
          "name": "_targetIsZero",
          "type": "bool"
        }
      ],
      "name": "unstake",
      "outputs": [
        {
          "internalType": "uint256",
          "name": "",
          "type": "uint256"
        }
      ],
      "stateMutability": "nonpayable",
      "type": "function"
    },
    {
      "inputs": [
        {
          "internalType": "uint256",
          "name": "_amount",
          "type": "uint256"
        }
      ],
      "name": "unstakeAmount",
      "outputs": [],
      "stateMutability": "nonpayable",
      "type": "function"
    },
    {
      "inputs": [],
      "name": "unstakeUsdp",
      "outputs": [],
      "stateMutability": "nonpayable",
      "type": "function"
    },
    {
      "inputs": [
        {
          "internalType": "address",
          "name": "newImplementation",
          "type": "address"
        }
      ],
      "name": "upgradeTo",
      "outputs": [],
      "stateMutability": "nonpayable",
      "type": "function"
    },
    {
      "inputs": [
        {
          "internalType": "address",
          "name": "newImplementation",
          "type": "address"
        },
        {
          "internalType": "bytes",
          "name": "data",
          "type": "bytes"
        }
      ],
      "name": "upgradeToAndCall",
      "outputs": [],
      "stateMutability": "payable",
      "type": "function"
    },
    {
      "inputs": [],
      "name": "usdc",
      "outputs": [
        {
          "internalType": "contract IERC20",
          "name": "",
          "type": "address"
        }
      ],
      "stateMutability": "view",
      "type": "function"
    },
    {
      "inputs": [],
      "name": "usdp",
      "outputs": [
        {
          "internalType": "contract IERC20",
          "name": "",
          "type": "address"
        }
      ],
      "stateMutability": "view",
      "type": "function"
    },
    {
      "inputs": [],
      "name": "usdt",
      "outputs": [
        {
          "internalType": "contract IERC20",
          "name": "",
          "type": "address"
        }
      ],
      "stateMutability": "view",
      "type": "function"
    },
    {
      "inputs": [],
      "name": "wmx",
      "outputs": [
        {
          "internalType": "contract IERC20",
          "name": "",
          "type": "address"
        }
      ],
      "stateMutability": "view",
      "type": "function"
    },
    {
      "inputs": [],
      "name": "wom",
      "outputs": [
        {
          "internalType": "contract IERC20",
          "name": "",
          "type": "address"
        }
      ],
      "stateMutability": "view",
      "type": "function"
    },
    {
      "inputs": [],
      "name": "wombexBooster",
      "outputs": [
        {
          "internalType": "contract IWombexBooster",
          "name": "",
          "type": "address"
        }
      ],
      "stateMutability": "view",
      "type": "function"
    },
    {
      "inputs": [],
      "name": "wombexBoosterPid",
      "outputs": [
        {
          "internalType": "uint256",
          "name": "",
          "type": "uint256"
        }
      ],
      "stateMutability": "view",
      "type": "function"
    },
    {
      "inputs": [],
      "name": "wombexVault",
      "outputs": [
        {
          "internalType": "contract IWombexVault",
          "name": "",
          "type": "address"
        }
      ],
      "stateMutability": "view",
      "type": "function"
    }
  ],
  "numDeployments": 8,
  "solcInputHash": "e7110e64409cb4787061ecbe562add48",
  "bytecode": "0x60a06040523060601b6080523480156200001857600080fd5b50600054610100900460ff16158080156200003a5750600054600160ff909116105b806200006a575062000057306200014460201b62001b261760201c565b1580156200006a575060005460ff166001145b620000d25760405162461bcd60e51b815260206004820152602e60248201527f496e697469616c697a61626c653a20636f6e747261637420697320616c72656160448201526d191e481a5b9a5d1a585b1a5e995960921b606482015260840160405180910390fd5b6000805460ff191660011790558015620000f6576000805461ff0019166101001790555b80156200013d576000805461ff0019169055604051600181527f7f26b83ff96e1f2b6a682f133852f6798a09c465da95921460cefb38474024989060200160405180910390a15b5062000153565b6001600160a01b03163b151590565b60805160601c6132436200018e600039600081816108db0152818161091b01528181610b9d01528181610bdd0152610c6c01526132436000f3fe6080604052600436106102675760003560e01c80637d5f580211610144578063af23ccc4116100b6578063d8f0b7eb1161007a578063d8f0b7eb1461072d578063e5700fd414610744578063ef5cfb8c14610765578063f25d02eb14610785578063f6f6b8811461079a578063f887ea40146107ba57600080fd5b8063af23ccc41461067a578063bf52e080146106b2578063c5a6222e146106c8578063d547741f146106e9578063d7e6b1c81461070957600080fd5b8063a217fddf11610108578063a217fddf146105cf578063a3673b38146105e4578063a440b21a146105f9578063adc9772e14610619578063ae2220cb14610639578063ae30c1101461065a57600080fd5b80637d5f5802146105415780638129fc1c146105635780638a0627a61461057857806391d148541461058f578063a07c599f146105af57600080fd5b80633e413bee116101dd5780635a20aab8116101a15780635a20aab8146104925780635ca558f8146104a75780635dbd733a146104bd578063620b75df146104df57806374e6076c146104ff5780637610d9571461052057600080fd5b80633e413bee14610408578063459e657f146104295780634f1ef28614610449578063522d58c61461045c57806352d1902d1461047d57600080fd5b80632576e65a1161022f5780632576e65a1461034f5780632c76d7a6146103645780632f2ff15d146103855780632f48ab7d146103a757806336568abe146103c85780633659cfe6146103e857600080fd5b806301ffc9a71461026c578063083975d4146102a15780631032b052146102da578063119cd879146102fb578063248a9ca31461031f575b600080fd5b34801561027857600080fd5b5061028c610287366004612c32565b6107db565b60405190151581526020015b60405180910390f35b3480156102ad57600080fd5b50610139546102c2906001600160a01b031681565b6040516001600160a01b039091168152602001610298565b3480156102e657600080fd5b50610131546102c2906001600160a01b031681565b34801561030757600080fd5b5061031160fd5481565b604051908152602001610298565b34801561032b57600080fd5b5061031161033a366004612bd4565b60009081526065602052604090206001015490565b34801561035b57600080fd5b50610311610812565b34801561037057600080fd5b50610134546102c2906001600160a01b031681565b34801561039157600080fd5b506103a56103a0366004612c06565b610823565b005b3480156103b357600080fd5b5061012f546102c2906001600160a01b031681565b3480156103d457600080fd5b506103a56103e3366004612c06565b61084d565b3480156103f457600080fd5b506103a5610403366004612a61565b6108d0565b34801561041457600080fd5b5061012d546102c2906001600160a01b031681565b34801561043557600080fd5b506103a5610444366004612bd4565b6109b0565b6103a5610457366004612a7c565b610b92565b34801561046857600080fd5b50610138546102c2906001600160a01b031681565b34801561048957600080fd5b50610311610c5f565b34801561049e57600080fd5b506103a5610d12565b3480156104b357600080fd5b5061031160fe5481565b3480156104c957600080fd5b506103116000805160206131a783398151915281565b3480156104eb57600080fd5b5060fb546102c2906001600160a01b031681565b34801561050b57600080fd5b5061012e546102c2906001600160a01b031681565b34801561052c57600080fd5b50610133546102c2906001600160a01b031681565b34801561054d57600080fd5b5061031160008051602061318783398151915281565b34801561056f57600080fd5b506103a5610efb565b34801561058457600080fd5b506103116101375481565b34801561059b57600080fd5b5061028c6105aa366004612c06565b610fc5565b3480156105bb57600080fd5b506103a56105ca366004612c5c565b610ff0565b3480156105db57600080fd5b50610311600081565b3480156105f057600080fd5b5061031161139a565b34801561060557600080fd5b506103a5610614366004612a61565b6113a6565b34801561062557600080fd5b506103a5610634366004612b3e565b6114ae565b34801561064557600080fd5b50610136546102c2906001600160a01b031681565b34801561066657600080fd5b506103a5610675366004612cbe565b611645565b34801561068657600080fd5b506101355461069e90600160b81b900462ffffff1681565b60405162ffffff9091168152602001610298565b3480156106be57600080fd5b5061031160fc5481565b3480156106d457600080fd5b50610130546102c2906001600160a01b031681565b3480156106f557600080fd5b506103a5610704366004612c06565b61175b565b34801561071557600080fd5b506101355461069e90600160a01b900462ffffff1681565b34801561073957600080fd5b506103116101325481565b34801561075057600080fd5b5061013a546102c2906001600160a01b031681565b34801561077157600080fd5b50610311610780366004612a61565b611780565b34801561079157600080fd5b506103a56117bf565b3480156107a657600080fd5b506103116107b5366004612b68565b6118fe565b3480156107c657600080fd5b50610135546102c2906001600160a01b031681565b60006001600160e01b03198216637965db0b60e01b148061080c57506301ffc9a760e01b6001600160e01b03198316145b92915050565b600061081e6000611b35565b905090565b60008281526065602052604090206001015461083e81611d6d565b6108488383611d77565b505050565b6001600160a01b03811633146108c25760405162461bcd60e51b815260206004820152602f60248201527f416363657373436f6e74726f6c3a2063616e206f6e6c792072656e6f756e636560448201526e103937b632b9903337b91039b2b63360891b60648201526084015b60405180910390fd5b6108cc8282611dfd565b5050565b306001600160a01b037f00000000000000000000000000000000000000000000000000000000000000001614156109195760405162461bcd60e51b81526004016108b990612e81565b7f00000000000000000000000000000000000000000000000000000000000000006001600160a01b03166109626000805160206131c7833981519152546001600160a01b031690565b6001600160a01b0316146109885760405162461bcd60e51b81526004016108b990612ecd565b61099181611e64565b604080516000808252602082019092526109ad91839190611e6f565b50565b6109c86000805160206131a783398151915233610fc5565b80610a5d575060fb54604051632474521560e21b81526000805160206131a783398151915260048201523360248201526001600160a01b03909116906391d148549060440160206040518083038186803b158015610a2557600080fd5b505afa158015610a39573d6000803e3d6000fd5b505050506040513d601f19601f82011682018060405250810190610a5d9190612bb7565b610a795760405162461bcd60e51b81526004016108b990612e3f565b6000610af7306001600160a01b031663a3673b386040518163ffffffff1660e01b815260040160206040518083038186803b158015610ab757600080fd5b505afa158015610acb573d6000803e3d6000fd5b505050506040513d601f19601f82011682018060405250810190610aef9190612bed565b60fd54611fe9565b9050610b0282612013565b80306001600160a01b031663a3673b386040518163ffffffff1660e01b815260040160206040518083038186803b158015610b3c57600080fd5b505afa158015610b50573d6000803e3d6000fd5b505050506040513d601f19601f82011682018060405250810190610b749190612bed565b10156108cc5760405162461bcd60e51b81526004016108b990612e08565b306001600160a01b037f0000000000000000000000000000000000000000000000000000000000000000161415610bdb5760405162461bcd60e51b81526004016108b990612e81565b7f00000000000000000000000000000000000000000000000000000000000000006001600160a01b0316610c246000805160206131c7833981519152546001600160a01b031690565b6001600160a01b031614610c4a5760405162461bcd60e51b81526004016108b990612ecd565b610c5382611e64565b6108cc82826001611e6f565b6000306001600160a01b037f00000000000000000000000000000000000000000000000000000000000000001614610cff5760405162461bcd60e51b815260206004820152603860248201527f555550535570677261646561626c653a206d757374206e6f742062652063616c60448201527f6c6564207468726f7567682064656c656761746563616c6c000000000000000060648201526084016108b9565b506000805160206131c783398151915290565b610d2a6000805160206131a783398151915233610fc5565b80610dbf575060fb54604051632474521560e21b81526000805160206131a783398151915260048201523360248201526001600160a01b03909116906391d148549060440160206040518083038186803b158015610d8757600080fd5b505afa158015610d9b573d6000803e3d6000fd5b505050506040513d601f19601f82011682018060405250810190610dbf9190612bb7565b610ddb5760405162461bcd60e51b81526004016108b990612e3f565b61012d5461012e546040516370a0823160e01b81523060048201527373cb180bf0521828d8849bc8cf2b920918e23032928392631e9a6950926001600160a01b0392831692909116906370a082319060240160206040518083038186803b158015610e4557600080fd5b505afa158015610e59573d6000803e3d6000fd5b505050506040513d601f19601f82011682018060405250810190610e7d9190612bed565b6040516001600160e01b031960e085901b1681526001600160a01b0390921660048301526024820152604401602060405180830381600087803b158015610ec357600080fd5b505af1158015610ed7573d6000803e3d6000fd5b505050506040513d601f19601f820116820180604052508101906108cc9190612bed565b600054610100900460ff1615808015610f1b5750600054600160ff909116105b80610f355750303b158015610f35575060005460ff166001145b610f515760405162461bcd60e51b81526004016108b990612f19565b6000805460ff191660011790558015610f74576000805461ff0019166101001790555b610f7c61242c565b80156109ad576000805461ff0019169055604051600181527f7f26b83ff96e1f2b6a682f133852f6798a09c465da95921460cefb3847402498906020015b60405180910390a150565b60009182526065602090815260408084206001600160a01b0393909316845291905290205460ff1690565b610ffb600033610fc5565b6110175760405162461bcd60e51b81526004016108b990612f67565b6110246020820182612a61565b61012d80546001600160a01b0319166001600160a01b03929092169190911790556110556040820160208301612a61565b61012f80546001600160a01b0319166001600160a01b03929092169190911790556110866060820160408301612a61565b61012e80546001600160a01b0319166001600160a01b03929092169190911790556110b76080820160608301612a61565b61013080546001600160a01b0319166001600160a01b03929092169190911790556110e860a0820160808301612a61565b61013980546001600160a01b0319166001600160a01b039290921691909117905561111960c0820160a08301612a61565b61013180546001600160a01b0319166001600160a01b039290921691909117905561114a60e0820160c08301612a61565b61013380546001600160a01b0319166001600160a01b039290921691909117905561117c610100820160e08301612a61565b61013580546001600160a01b0319166001600160a01b03929092169190911790556111af61012082016101008301612a61565b61013480546001600160a01b0319166001600160a01b03929092169190911790556111e261014082016101208301612c75565b610135805462ffffff92909216600160a01b0262ffffff60a01b1990921691909117905561121861016082016101408301612c75565b610135805462ffffff92909216600160b81b0262ffffff60b81b1990921691909117905561124c60c0820160a08301612a61565b6001600160a01b031663313ce5676040518163ffffffff1660e01b815260040160206040518083038186803b15801561128457600080fd5b505afa158015611298573d6000803e3d6000fd5b505050506040513d601f19601f820116820180604052508101906112bc9190612cea565b6112c790600a613012565b610132556112dd61018082016101608301612a61565b61013680546001600160a01b0319166001600160a01b03929092169190911790556101808101356101375561131a6101c082016101a08301612a61565b61013880546001600160a01b0319166001600160a01b039290921691909117905561134d6101e082016101c08301612a61565b61013a80546001600160a01b0319166001600160a01b03929092169190911790556040517fea5646eb3528e525944447a4a97de700dd472298626e5c0481d1c82c3da86ea590600090a150565b600061081e6001611b35565b6113b1600033610fc5565b6113cd5760405162461bcd60e51b81526004016108b990612f67565b6001600160a01b0381166114235760405162461bcd60e51b815260206004820152601860248201527f5a65726f2061646472657373206e6f7420616c6c6f776564000000000000000060448201526064016108b9565b60fb5461144890600080516020613187833981519152906001600160a01b031661175b565b61146060008051602061318783398151915282610823565b60fb80546001600160a01b0319166001600160a01b0383169081179091556040519081527ff7b449fcd5cfb7379dcd34cb69428dd9f882033b15be33d83b42d91daa28eeb790602001610fba565b6114c660008051602061318783398151915233610fc5565b6114e25760405162461bcd60e51b81526004016108b990612dd1565b6000611520306001600160a01b031663a3673b386040518163ffffffff1660e01b815260040160206040518083038186803b158015610ab757600080fd5b6040516370a0823160e01b815230600482015290915061157c9084906001600160a01b038216906370a082319060240160206040518083038186803b15801561156857600080fd5b505afa158015610ed7573d6000803e3d6000fd5b80306001600160a01b031663a3673b386040518163ffffffff1660e01b815260040160206040518083038186803b1580156115b657600080fd5b505afa1580156115ca573d6000803e3d6000fd5b505050506040513d601f19601f820116820180604052508101906115ee9190612bed565b101561160c5760405162461bcd60e51b81526004016108b990612e08565b6040518281527f227a473b70d2f893cc7659219575c030a63b5743024fe1e0c1a680e708b1525a906020015b60405180910390a1505050565b61165d6000805160206131a783398151915233610fc5565b806116f2575060fb54604051632474521560e21b81526000805160206131a783398151915260048201523360248201526001600160a01b03909116906391d148549060440160206040518083038186803b1580156116ba57600080fd5b505afa1580156116ce573d6000803e3d6000fd5b505050506040513d601f19601f820116820180604052508101906116f29190612bb7565b61170e5760405162461bcd60e51b81526004016108b990612e3f565b60fc83905560fd82905560fe81905560408051848152602081018490529081018290527f116fbf1e97a2be629ad98abfb6c332733c8996c2dfb174dd2efe8440df381d1a90606001611638565b60008281526065602052604090206001015461177681611d6d565b6108488383611dfd565b600061179a60008051602061318783398151915233610fc5565b6117b65760405162461bcd60e51b81526004016108b990612dd1565b5060005b919050565b6117ca600033610fc5565b6117e65760405162461bcd60e51b81526004016108b990612f67565b61012e546040516370a0823160e01b81523060048201526001600160a01b039091169063a9059cbb90739030d5c596d636eefc8f0ad7b2788ae7e9ef3d469083906370a082319060240160206040518083038186803b15801561184857600080fd5b505afa15801561185c573d6000803e3d6000fd5b505050506040513d601f19601f820116820180604052508101906118809190612bed565b6040516001600160e01b031960e085901b1681526001600160a01b0390921660048301526024820152604401602060405180830381600087803b1580156118c657600080fd5b505af11580156118da573d6000803e3d6000fd5b505050506040513d601f19601f820116820180604052508101906109ad9190612bb7565b600061191860008051602061318783398151915233610fc5565b6119345760405162461bcd60e51b81526004016108b990612dd1565b6000611972306001600160a01b031663a3673b386040518163ffffffff1660e01b815260040160206040518083038186803b158015610ab757600080fd5b905060008084156119915750600061198a8887612511565b9150611995565b8691505b82306001600160a01b031663a3673b386040518163ffffffff1660e01b815260040160206040518083038186803b1580156119cf57600080fd5b505afa1580156119e3573d6000803e3d6000fd5b505050506040513d601f19601f82011682018060405250810190611a079190612bed565b1015611a255760405162461bcd60e51b81526004016108b990612e08565b60405163a9059cbb60e01b81526001600160a01b0387811660048301526024820184905289169063a9059cbb90604401602060405180830381600087803b158015611a6f57600080fd5b505af1158015611a83573d6000803e3d6000fd5b505050506040513d601f19601f82011682018060405250810190611aa79190612bb7565b5060408051888152602081018490527f9045c2ac9b2026de8075f2701bbdde882cd5e830b3b1ead9a15b22f2b5b93742910160405180910390a18015611b1b576040518181527f3ac0594a85a20354f9dc74f33728416d19ce00d04a406c108cc2dcf2cecea1349060200160405180910390a15b509695505050505050565b6001600160a01b03163b151590565b61012d546040516370a0823160e01b815230600482015260009182916001600160a01b03909116906370a082319060240160206040518083038186803b158015611b7e57600080fd5b505afa158015611b92573d6000803e3d6000fd5b505050506040513d601f19601f82011682018060405250810190611bb69190612bed565b61012e546040516370a0823160e01b81523060048201529192506001600160a01b0316906370a082319060240160206040518083038186803b158015611bfb57600080fd5b505afa158015611c0f573d6000803e3d6000fd5b505050506040513d601f19601f82011682018060405250810190611c339190612bed565b611c3d9082612f95565b610138546040516370a0823160e01b81523060048201529192506000916001600160a01b03909116906370a082319060240160206040518083038186803b158015611c8757600080fd5b505afa158015611c9b573d6000803e3d6000fd5b505050506040513d601f19601f82011682018060405250810190611cbf9190612bed565b90508015611d66576101335461012e5460405163907448ed60e01b81526001600160a01b039182166004820152602481018490526000928392169063907448ed90604401604080518083038186803b158015611d1a57600080fd5b505afa158015611d2e573d6000803e3d6000fd5b505050506040513d601f19601f82011682018060405250810190611d529190612c9a565b9092509050611d618285612f95565b935050505b5092915050565b6109ad813361258e565b611d818282610fc5565b6108cc5760008281526065602090815260408083206001600160a01b03851684529091529020805460ff19166001179055611db93390565b6001600160a01b0316816001600160a01b0316837f2f8788117e7eff1d82e926ec794901d17c78024a50270940304540a733656f0d60405160405180910390a45050565b611e078282610fc5565b156108cc5760008281526065602090815260408083206001600160a01b0385168085529252808320805460ff1916905551339285917ff6391f5c32d9c69d2a47ea670b442974b53935d1edc7fd64eb21e047a839171b9190a45050565b60006108cc81611d6d565b7f4910fdfa16fed3260ed0e7147f7cc6da11a60208b5b9406d12a635614ffd91435460ff1615611ea257610848836125e7565b826001600160a01b03166352d1902d6040518163ffffffff1660e01b815260040160206040518083038186803b158015611edb57600080fd5b505afa925050508015611f0b575060408051601f3d908101601f19168201909252611f0891810190612bed565b60015b611f6e5760405162461bcd60e51b815260206004820152602e60248201527f45524331393637557067726164653a206e657720696d706c656d656e7461746960448201526d6f6e206973206e6f74205555505360901b60648201526084016108b9565b6000805160206131c78339815191528114611fdd5760405162461bcd60e51b815260206004820152602960248201527f45524331393637557067726164653a20756e737570706f727465642070726f786044820152681a58589b195555525160ba1b60648201526084016108b9565b50610848838383612683565b6000612710611ff883826130dc565b61200290856130bd565b61200c9190612fad565b9392505050565b6101335461012e546101325460405163907448ed60e01b81526001600160a01b0392831660048201526024810191909152600092919091169063907448ed90604401604080518083038186803b15801561206c57600080fd5b505afa158015612080573d6000803e3d6000fd5b505050506040513d601f19601f820116820180604052508101906120a49190612c9a565b50610138546040516370a0823160e01b81523060048201529192506000916001600160a01b03909116906370a082319060240160206040518083038186803b1580156120ef57600080fd5b505afa158015612103573d6000803e3d6000fd5b505050506040513d601f19601f820116820180604052508101906121279190612bed565b9050600083612137575080612169565b82610132546121488660fc546126ae565b61215291906130bd565b61215c9190612fad565b9050818111156121695750805b61013854604051636197390160e11b815260048101839052600060248201526001600160a01b039091169063c32e720290604401600060405180830381600087803b1580156121b757600080fd5b505af11580156121cb573d6000803e3d6000fd5b5050610131546101335460405163095ea7b360e01b81526001600160a01b039182166004820152602481018690529116925063095ea7b39150604401602060405180830381600087803b15801561222157600080fd5b505af1158015612235573d6000803e3d6000fd5b505050506040513d601f19601f820116820180604052508101906122599190612bb7565b506101335461012e5460405163907448ed60e01b81526001600160a01b0391821660048201526024810184905273eb8e93a0c7504bffd8a8ffa56cd754c63aaebfe892600092839291169063907448ed90604401604080518083038186803b1580156122c457600080fd5b505afa1580156122d8573d6000803e3d6000fd5b505050506040513d601f19601f820116820180604052508101906122fc9190612c9a565b6101335461012d5460405163907448ed60e01b81526001600160a01b0391821660048201526024810189905293955091935060009283929091169063907448ed90604401604080518083038186803b15801561235757600080fd5b505afa15801561236b573d6000803e3d6000fd5b505050506040513d601f19601f8201168201806040525081019061238f9190612c9a565b6101335460405163907448ed60e01b81526001600160a01b038981166004830152602482018b9052939550919350600092839291169063907448ed90604401604080518083038186803b1580156123e557600080fd5b505afa1580156123f9573d6000803e3d6000fd5b505050506040513d601f19601f8201168201806040525081019061241d9190612c9a565b50505050505050505050505050565b600054610100900460ff161580801561244c5750600054600160ff909116105b806124665750303b158015612466575060005460ff166001145b6124825760405162461bcd60e51b81526004016108b990612f19565b6000805460ff1916600117905580156124a5576000805461ff0019166101001790555b6124ad6126bd565b6124b56126bd565b6124c0600033611d77565b601460fc81905560fd55600460fe5580156109ad576000805461ff0019169055604051600181527f7f26b83ff96e1f2b6a682f133852f6798a09c465da95921460cefb384740249890602001610fba565b61012d546040516370a0823160e01b81523060048201526000916001600160a01b0316906370a082319060240160206040518083038186803b15801561255657600080fd5b505afa15801561256a573d6000803e3d6000fd5b505050506040513d601f19601f8201168201806040525081019061200c9190612bed565b6125988282610fc5565b6108cc576125a58161272a565b6125b083602061273c565b6040516020016125c1929190612d29565b60408051601f198184030181529082905262461bcd60e51b82526108b991600401612d9e565b6001600160a01b0381163b6126545760405162461bcd60e51b815260206004820152602d60248201527f455243313936373a206e657720696d706c656d656e746174696f6e206973206e60448201526c1bdd08184818dbdb9d1c9858dd609a1b60648201526084016108b9565b6000805160206131c783398151915280546001600160a01b0319166001600160a01b0392909216919091179055565b61268c836128d8565b6000825111806126995750805b15610848576126a88383612918565b50505050565b6000612710611ff88382612f95565b600054610100900460ff166127285760405162461bcd60e51b815260206004820152602b60248201527f496e697469616c697a61626c653a20636f6e7472616374206973206e6f74206960448201526a6e697469616c697a696e6760a81b60648201526084016108b9565b565b606061080c6001600160a01b03831660145b6060600061274b8360026130bd565b612756906002612f95565b67ffffffffffffffff81111561276e5761276e613162565b6040519080825280601f01601f191660200182016040528015612798576020820181803683370190505b509050600360fc1b816000815181106127b3576127b361314c565b60200101906001600160f81b031916908160001a905350600f60fb1b816001815181106127e2576127e261314c565b60200101906001600160f81b031916908160001a90535060006128068460026130bd565b612811906001612f95565b90505b6001811115612889576f181899199a1a9b1b9c1cb0b131b232b360811b85600f16601081106128455761284561314c565b1a60f81b82828151811061285b5761285b61314c565b60200101906001600160f81b031916908160001a90535060049490941c936128828161311f565b9050612814565b50831561200c5760405162461bcd60e51b815260206004820181905260248201527f537472696e67733a20686578206c656e67746820696e73756666696369656e7460448201526064016108b9565b6128e1816125e7565b6040516001600160a01b038216907fbc7cd75a20ee27fd9adebab32041f755214dbc6bffa90cc0225b39da2e5c2d3b90600090a250565b60606001600160a01b0383163b6129805760405162461bcd60e51b815260206004820152602660248201527f416464726573733a2064656c65676174652063616c6c20746f206e6f6e2d636f6044820152651b9d1c9858dd60d21b60648201526084016108b9565b600080846001600160a01b03168460405161299b9190612d0d565b600060405180830381855af49150503d80600081146129d6576040519150601f19603f3d011682016040523d82523d6000602084013e6129db565b606091505b5091509150612a0382826040518060600160405280602781526020016131e760279139612a0c565b95945050505050565b60608315612a1b57508161200c565b61200c8383815115612a305781518083602001fd5b8060405162461bcd60e51b81526004016108b99190612d9e565b80356001600160a01b03811681146117ba57600080fd5b600060208284031215612a7357600080fd5b61200c82612a4a565b60008060408385031215612a8f57600080fd5b612a9883612a4a565b9150602083013567ffffffffffffffff80821115612ab557600080fd5b818501915085601f830112612ac957600080fd5b813581811115612adb57612adb613162565b604051601f8201601f19908116603f01168101908382118183101715612b0357612b03613162565b81604052828152886020848701011115612b1c57600080fd5b8260208601602083013760006020848301015280955050505050509250929050565b60008060408385031215612b5157600080fd5b612b5a83612a4a565b946020939093013593505050565b60008060008060808587031215612b7e57600080fd5b612b8785612a4a565b935060208501359250612b9c60408601612a4a565b91506060850135612bac81613178565b939692955090935050565b600060208284031215612bc957600080fd5b815161200c81613178565b600060208284031215612be657600080fd5b5035919050565b600060208284031215612bff57600080fd5b5051919050565b60008060408385031215612c1957600080fd5b82359150612c2960208401612a4a565b90509250929050565b600060208284031215612c4457600080fd5b81356001600160e01b03198116811461200c57600080fd5b60006101e08284031215612c6f57600080fd5b50919050565b600060208284031215612c8757600080fd5b813562ffffff8116811461200c57600080fd5b60008060408385031215612cad57600080fd5b505080516020909101519092909150565b600080600060608486031215612cd357600080fd5b505081359360208301359350604090920135919050565b600060208284031215612cfc57600080fd5b815160ff8116811461200c57600080fd5b60008251612d1f8184602087016130f3565b9190910192915050565b7f416363657373436f6e74726f6c3a206163636f756e7420000000000000000000815260008351612d618160178501602088016130f3565b7001034b99036b4b9b9b4b733903937b6329607d1b6017918401918201528351612d928160288401602088016130f3565b01602801949350505050565b6020815260008251806020840152612dbd8160408501602087016130f3565b601f01601f19169190910160400192915050565b6020808252601f908201527f5265737472696374656420746f20504f5254464f4c494f5f4d414e4147455200604082015260600190565b6020808252601f908201527f5374726174656779204e4156206c657373207468616e20657870656374656400604082015260600190565b60208082526022908201527f5265737472696374656420746f20504f5254464f4c494f5f4147454e545f524f6040820152614c4560f01b606082015260800190565b6020808252602c908201527f46756e6374696f6e206d7573742062652063616c6c6564207468726f7567682060408201526b19195b1959d85d1958d85b1b60a21b606082015260800190565b6020808252602c908201527f46756e6374696f6e206d7573742062652063616c6c6564207468726f7567682060408201526b6163746976652070726f787960a01b606082015260800190565b6020808252602e908201527f496e697469616c697a61626c653a20636f6e747261637420697320616c72656160408201526d191e481a5b9a5d1a585b1a5e995960921b606082015260800190565b6020808252601490820152735265737472696374656420746f2061646d696e7360601b604082015260600190565b60008219821115612fa857612fa8613136565b500190565b600082612fca57634e487b7160e01b600052601260045260246000fd5b500490565b600181815b8085111561300a578160001904821115612ff057612ff0613136565b80851615612ffd57918102915b93841c9390800290612fd4565b509250929050565b600061200c60ff84168360008261302b5750600161080c565b816130385750600061080c565b816001811461304e576002811461305857613074565b600191505061080c565b60ff84111561306957613069613136565b50506001821b61080c565b5060208310610133831016604e8410600b8410161715613097575081810a61080c565b6130a18383612fcf565b80600019048211156130b5576130b5613136565b029392505050565b60008160001904831182151516156130d7576130d7613136565b500290565b6000828210156130ee576130ee613136565b500390565b60005b8381101561310e5781810151838201526020016130f6565b838111156126a85750506000910152565b60008161312e5761312e613136565b506000190190565b634e487b7160e01b600052601160045260246000fd5b634e487b7160e01b600052603260045260246000fd5b634e487b7160e01b600052604160045260246000fd5b80151581146109ad57600080fdfe90c2aa7471c04182221f68e80c07ab1e5946e4c63f8693e14ca40385d529f051d67ad422505496469a1adf6cdf9e5ee92ac5d33992843c9ecc4b2f6d6cde9137360894a13ba1a3210667c828492db98dca3e2076cc3735a920a3ca505d382bbc416464726573733a206c6f772d6c6576656c2064656c65676174652063616c6c206661696c6564a2646970667358221220798d980540e9116fcca4354947c1bfdf5e96e39458460a214ce7ba52c7dbaaa464736f6c63430008060033",
  "implementation": "0x644b7B43dED571a67783aB8f0d247ED3B6a1fB58",
  "devdoc": {
    "details": "Self-investment strategy 1) sell all USDC -> buy USD+ on UniswapV3 (0.01%) 2) invest USD+ to Overnight pool on Wombat 3) Stake lp tokens in Wombex Sell rewards: - WOM on UniswapV3 - WMX on Camelot",
    "kind": "dev",
    "methods": {
      "constructor": {
        "custom:oz-upgrades-unsafe-allow": "constructor"
      },
      "getRoleAdmin(bytes32)": {
        "details": "Returns the admin role that controls `role`. See {grantRole} and {revokeRole}. To change a role's admin, use {_setRoleAdmin}."
      },
      "grantRole(bytes32,address)": {
        "details": "Grants `role` to `account`. If `account` had not been already granted `role`, emits a {RoleGranted} event. Requirements: - the caller must have ``role``'s admin role. May emit a {RoleGranted} event."
      },
      "hasRole(bytes32,address)": {
        "details": "Returns `true` if `account` has been granted `role`."
      },
      "proxiableUUID()": {
        "details": "Implementation of the ERC1822 {proxiableUUID} function. This returns the storage slot used by the implementation. It is used to validate the implementation's compatibility when performing an upgrade. IMPORTANT: A proxy pointing at a proxiable contract should not be considered proxiable itself, because this risks bricking a proxy that upgrades to it, by delegating to itself until out of gas. Thus it is critical that this function revert if invoked through a proxy. This is guaranteed by the `notDelegated` modifier."
      },
      "renounceRole(bytes32,address)": {
        "details": "Revokes `role` from the calling account. Roles are often managed via {grantRole} and {revokeRole}: this function's purpose is to provide a mechanism for accounts to lose their privileges if they are compromised (such as when a trusted device is misplaced). If the calling account had been revoked `role`, emits a {RoleRevoked} event. Requirements: - the caller must be `account`. May emit a {RoleRevoked} event."
      },
      "revokeRole(bytes32,address)": {
        "details": "Revokes `role` from `account`. If `account` had been granted `role`, emits a {RoleRevoked} event. Requirements: - the caller must have ``role``'s admin role. May emit a {RoleRevoked} event."
      },
      "supportsInterface(bytes4)": {
        "details": "See {IERC165-supportsInterface}."
      },
      "upgradeTo(address)": {
        "details": "Upgrade the implementation of the proxy to `newImplementation`. Calls {_authorizeUpgrade}. Emits an {Upgraded} event."
      },
      "upgradeToAndCall(address,bytes)": {
        "details": "Upgrade the implementation of the proxy to `newImplementation`, and subsequently execute the function call encoded in `data`. Calls {_authorizeUpgrade}. Emits an {Upgraded} event."
      }
    },
    "version": 1
  },
  "userdoc": {
    "kind": "user",
    "methods": {},
    "version": 1
  },
  "storageLayout": {
    "storage": [
      {
        "astId": 804,
        "contract": "contracts/StrategyWombatOvnUsdp.sol:StrategyWombatOvnUsdp",
        "label": "_initialized",
        "offset": 0,
        "slot": "0",
        "type": "t_uint8"
      },
      {
        "astId": 807,
        "contract": "contracts/StrategyWombatOvnUsdp.sol:StrategyWombatOvnUsdp",
        "label": "_initializing",
        "offset": 1,
        "slot": "0",
        "type": "t_bool"
      },
      {
        "astId": 1427,
        "contract": "contracts/StrategyWombatOvnUsdp.sol:StrategyWombatOvnUsdp",
        "label": "__gap",
        "offset": 0,
        "slot": "1",
        "type": "t_array(t_uint256)50_storage"
      },
      {
        "astId": 1706,
        "contract": "contracts/StrategyWombatOvnUsdp.sol:StrategyWombatOvnUsdp",
        "label": "__gap",
        "offset": 0,
        "slot": "51",
        "type": "t_array(t_uint256)50_storage"
      },
      {
        "astId": 39,
        "contract": "contracts/StrategyWombatOvnUsdp.sol:StrategyWombatOvnUsdp",
        "label": "_roles",
        "offset": 0,
        "slot": "101",
        "type": "t_mapping(t_bytes32,t_struct(RoleData)34_storage)"
      },
      {
        "astId": 334,
        "contract": "contracts/StrategyWombatOvnUsdp.sol:StrategyWombatOvnUsdp",
        "label": "__gap",
        "offset": 0,
        "slot": "102",
        "type": "t_array(t_uint256)49_storage"
      },
      {
        "astId": 786,
        "contract": "contracts/StrategyWombatOvnUsdp.sol:StrategyWombatOvnUsdp",
        "label": "__gap",
        "offset": 0,
        "slot": "151",
        "type": "t_array(t_uint256)50_storage"
      },
      {
        "astId": 1101,
        "contract": "contracts/StrategyWombatOvnUsdp.sol:StrategyWombatOvnUsdp",
        "label": "__gap",
        "offset": 0,
        "slot": "201",
        "type": "t_array(t_uint256)50_storage"
      },
      {
        "astId": 7750,
        "contract": "contracts/StrategyWombatOvnUsdp.sol:StrategyWombatOvnUsdp",
        "label": "portfolioManager",
        "offset": 0,
        "slot": "251",
        "type": "t_address"
      },
      {
        "astId": 7752,
        "contract": "contracts/StrategyWombatOvnUsdp.sol:StrategyWombatOvnUsdp",
        "label": "swapSlippageBP",
        "offset": 0,
        "slot": "252",
        "type": "t_uint256"
      },
      {
        "astId": 7754,
        "contract": "contracts/StrategyWombatOvnUsdp.sol:StrategyWombatOvnUsdp",
        "label": "navSlippageBP",
        "offset": 0,
        "slot": "253",
        "type": "t_uint256"
      },
      {
        "astId": 7756,
        "contract": "contracts/StrategyWombatOvnUsdp.sol:StrategyWombatOvnUsdp",
        "label": "stakeSlippageBP",
        "offset": 0,
        "slot": "254",
        "type": "t_uint256"
      },
      {
        "astId": 8141,
        "contract": "contracts/StrategyWombatOvnUsdp.sol:StrategyWombatOvnUsdp",
        "label": "__gap",
        "offset": 0,
        "slot": "255",
        "type": "t_array(t_uint256)46_storage"
      },
      {
        "astId": 8335,
        "contract": "contracts/StrategyWombatOvnUsdp.sol:StrategyWombatOvnUsdp",
        "label": "usdc",
        "offset": 0,
        "slot": "301",
        "type": "t_contract(IERC20)2662"
      },
      {
        "astId": 8338,
        "contract": "contracts/StrategyWombatOvnUsdp.sol:StrategyWombatOvnUsdp",
        "label": "usdp",
        "offset": 0,
        "slot": "302",
        "type": "t_contract(IERC20)2662"
      },
      {
        "astId": 8341,
        "contract": "contracts/StrategyWombatOvnUsdp.sol:StrategyWombatOvnUsdp",
        "label": "usdt",
        "offset": 0,
        "slot": "303",
        "type": "t_contract(IERC20)2662"
      },
      {
        "astId": 8344,
        "contract": "contracts/StrategyWombatOvnUsdp.sol:StrategyWombatOvnUsdp",
        "label": "wom",
        "offset": 0,
        "slot": "304",
        "type": "t_contract(IERC20)2662"
      },
      {
        "astId": 8347,
        "contract": "contracts/StrategyWombatOvnUsdp.sol:StrategyWombatOvnUsdp",
        "label": "assetWombat",
        "offset": 0,
        "slot": "305",
        "type": "t_contract(IWombatAsset)6537"
      },
      {
        "astId": 8349,
        "contract": "contracts/StrategyWombatOvnUsdp.sol:StrategyWombatOvnUsdp",
        "label": "assetWombatDm",
        "offset": 0,
        "slot": "306",
        "type": "t_uint256"
      },
      {
        "astId": 8352,
        "contract": "contracts/StrategyWombatOvnUsdp.sol:StrategyWombatOvnUsdp",
        "label": "poolWombat",
        "offset": 0,
        "slot": "307",
        "type": "t_contract(IWombatPool)6453"
      },
      {
        "astId": 8355,
        "contract": "contracts/StrategyWombatOvnUsdp.sol:StrategyWombatOvnUsdp",
        "label": "uniswapV3Router",
        "offset": 0,
        "slot": "308",
        "type": "t_contract(ISwapRouter)4245"
      },
      {
        "astId": 8358,
        "contract": "contracts/StrategyWombatOvnUsdp.sol:StrategyWombatOvnUsdp",
        "label": "router",
        "offset": 0,
        "slot": "309",
        "type": "t_contract(IWombatRouter)6809"
      },
      {
        "astId": 8360,
        "contract": "contracts/StrategyWombatOvnUsdp.sol:StrategyWombatOvnUsdp",
        "label": "poolFee0",
        "offset": 20,
        "slot": "309",
        "type": "t_uint24"
      },
      {
        "astId": 8362,
        "contract": "contracts/StrategyWombatOvnUsdp.sol:StrategyWombatOvnUsdp",
        "label": "poolFee1",
        "offset": 23,
        "slot": "309",
        "type": "t_uint24"
      },
      {
        "astId": 8365,
        "contract": "contracts/StrategyWombatOvnUsdp.sol:StrategyWombatOvnUsdp",
        "label": "wombexBooster",
        "offset": 0,
        "slot": "310",
        "type": "t_contract(IWombexBooster)7402"
      },
      {
        "astId": 8367,
        "contract": "contracts/StrategyWombatOvnUsdp.sol:StrategyWombatOvnUsdp",
        "label": "wombexBoosterPid",
        "offset": 0,
        "slot": "311",
        "type": "t_uint256"
      },
      {
        "astId": 8370,
        "contract": "contracts/StrategyWombatOvnUsdp.sol:StrategyWombatOvnUsdp",
        "label": "wombexVault",
        "offset": 0,
        "slot": "312",
        "type": "t_contract(IWombexVault)7419"
      },
      {
        "astId": 8373,
        "contract": "contracts/StrategyWombatOvnUsdp.sol:StrategyWombatOvnUsdp",
        "label": "wmx",
        "offset": 0,
        "slot": "313",
        "type": "t_contract(IERC20)2662"
      },
      {
        "astId": 8376,
        "contract": "contracts/StrategyWombatOvnUsdp.sol:StrategyWombatOvnUsdp",
        "label": "camelotRouter",
        "offset": 0,
        "slot": "314",
        "type": "t_contract(ICamelotRouter)2988"
      }
    ],
    "types": {
      "t_address": {
        "encoding": "inplace",
        "label": "address",
        "numberOfBytes": "20"
      },
      "t_array(t_uint256)46_storage": {
        "base": "t_uint256",
        "encoding": "inplace",
        "label": "uint256[46]",
        "numberOfBytes": "1472"
      },
      "t_array(t_uint256)49_storage": {
        "base": "t_uint256",
        "encoding": "inplace",
        "label": "uint256[49]",
        "numberOfBytes": "1568"
      },
      "t_array(t_uint256)50_storage": {
        "base": "t_uint256",
        "encoding": "inplace",
        "label": "uint256[50]",
        "numberOfBytes": "1600"
      },
      "t_bool": {
        "encoding": "inplace",
        "label": "bool",
        "numberOfBytes": "1"
      },
      "t_bytes32": {
        "encoding": "inplace",
        "label": "bytes32",
        "numberOfBytes": "32"
      },
      "t_contract(ICamelotRouter)2988": {
        "encoding": "inplace",
        "label": "contract ICamelotRouter",
        "numberOfBytes": "20"
      },
      "t_contract(IERC20)2662": {
        "encoding": "inplace",
        "label": "contract IERC20",
        "numberOfBytes": "20"
      },
      "t_contract(ISwapRouter)4245": {
        "encoding": "inplace",
        "label": "contract ISwapRouter",
        "numberOfBytes": "20"
      },
      "t_contract(IWombatAsset)6537": {
        "encoding": "inplace",
        "label": "contract IWombatAsset",
        "numberOfBytes": "20"
      },
      "t_contract(IWombatPool)6453": {
        "encoding": "inplace",
        "label": "contract IWombatPool",
        "numberOfBytes": "20"
      },
      "t_contract(IWombatRouter)6809": {
        "encoding": "inplace",
        "label": "contract IWombatRouter",
        "numberOfBytes": "20"
      },
      "t_contract(IWombexBooster)7402": {
        "encoding": "inplace",
        "label": "contract IWombexBooster",
        "numberOfBytes": "20"
      },
      "t_contract(IWombexVault)7419": {
        "encoding": "inplace",
        "label": "contract IWombexVault",
        "numberOfBytes": "20"
      },
      "t_mapping(t_address,t_bool)": {
        "encoding": "mapping",
        "key": "t_address",
        "label": "mapping(address => bool)",
        "numberOfBytes": "32",
        "value": "t_bool"
      },
      "t_mapping(t_bytes32,t_struct(RoleData)34_storage)": {
        "encoding": "mapping",
        "key": "t_bytes32",
        "label": "mapping(bytes32 => struct AccessControlUpgradeable.RoleData)",
        "numberOfBytes": "32",
        "value": "t_struct(RoleData)34_storage"
      },
      "t_struct(RoleData)34_storage": {
        "encoding": "inplace",
        "label": "struct AccessControlUpgradeable.RoleData",
        "members": [
          {
            "astId": 31,
            "contract": "contracts/StrategyWombatOvnUsdp.sol:StrategyWombatOvnUsdp",
            "label": "members",
            "offset": 0,
            "slot": "0",
            "type": "t_mapping(t_address,t_bool)"
          },
          {
            "astId": 33,
            "contract": "contracts/StrategyWombatOvnUsdp.sol:StrategyWombatOvnUsdp",
            "label": "adminRole",
            "offset": 0,
            "slot": "1",
            "type": "t_bytes32"
          }
        ],
        "numberOfBytes": "64"
      },
      "t_uint24": {
        "encoding": "inplace",
        "label": "uint24",
        "numberOfBytes": "3"
      },
      "t_uint256": {
        "encoding": "inplace",
        "label": "uint256",
        "numberOfBytes": "32"
      },
      "t_uint8": {
        "encoding": "inplace",
        "label": "uint8",
        "numberOfBytes": "1"
      }
    }
  }
}