{
  "address": "0x7dA4F46A9DDFEb4452AB68fda34D37fAb39f4071",
  "abi": [
    {
      "inputs": [],
      "stateMutability": "nonpayable",
      "type": "constructor"
    },
    {
      "anonymous": false,
      "inputs": [
        {
          "indexed": false,
          "internalType": "address",
          "name": "previousAdmin",
          "type": "address"
        },
        {
          "indexed": false,
          "internalType": "address",
          "name": "newAdmin",
          "type": "address"
        }
      ],
      "name": "AdminChanged",
      "type": "event"
    },
    {
      "anonymous": false,
      "inputs": [
        {
          "indexed": true,
          "internalType": "address",
          "name": "beacon",
          "type": "address"
        }
      ],
      "name": "BeaconUpgraded",
      "type": "event"
    },
    {
      "anonymous": false,
      "inputs": [
        {
          "indexed": false,
          "internalType": "uint8",
          "name": "version",
          "type": "uint8"
        }
      ],
      "name": "Initialized",
      "type": "event"
    },
    {
      "anonymous": false,
      "inputs": [
        {
          "indexed": false,
          "internalType": "address",
          "name": "value",
          "type": "address"
        }
      ],
      "name": "PortfolioManagerUpdated",
      "type": "event"
    },
    {
      "anonymous": false,
      "inputs": [
        {
          "indexed": false,
          "internalType": "uint256",
          "name": "amount",
          "type": "uint256"
        }
      ],
      "name": "Reward",
      "type": "event"
    },
    {
      "anonymous": false,
      "inputs": [
        {
          "indexed": true,
          "internalType": "bytes32",
          "name": "role",
          "type": "bytes32"
        },
        {
          "indexed": true,
          "internalType": "bytes32",
          "name": "previousAdminRole",
          "type": "bytes32"
        },
        {
          "indexed": true,
          "internalType": "bytes32",
          "name": "newAdminRole",
          "type": "bytes32"
        }
      ],
      "name": "RoleAdminChanged",
      "type": "event"
    },
    {
      "anonymous": false,
      "inputs": [
        {
          "indexed": true,
          "internalType": "bytes32",
          "name": "role",
          "type": "bytes32"
        },
        {
          "indexed": true,
          "internalType": "address",
          "name": "account",
          "type": "address"
        },
        {
          "indexed": true,
          "internalType": "address",
          "name": "sender",
          "type": "address"
        }
      ],
      "name": "RoleGranted",
      "type": "event"
    },
    {
      "anonymous": false,
      "inputs": [
        {
          "indexed": true,
          "internalType": "bytes32",
          "name": "role",
          "type": "bytes32"
        },
        {
          "indexed": true,
          "internalType": "address",
          "name": "account",
          "type": "address"
        },
        {
          "indexed": true,
          "internalType": "address",
          "name": "sender",
          "type": "address"
        }
      ],
      "name": "RoleRevoked",
      "type": "event"
    },
    {
      "anonymous": false,
      "inputs": [
        {
          "indexed": false,
          "internalType": "uint256",
          "name": "swapSlippageBP",
          "type": "uint256"
        },
        {
          "indexed": false,
          "internalType": "uint256",
          "name": "navSlippageBP",
          "type": "uint256"
        },
        {
          "indexed": false,
          "internalType": "uint256",
          "name": "stakeSlippageBP",
          "type": "uint256"
        }
      ],
      "name": "SlippagesUpdated",
      "type": "event"
    },
    {
      "anonymous": false,
      "inputs": [
        {
          "indexed": false,
          "internalType": "uint256",
          "name": "amount",
          "type": "uint256"
        }
      ],
      "name": "Stake",
      "type": "event"
    },
    {
      "anonymous": false,
      "inputs": [],
      "name": "StrategyUpdatedParams",
      "type": "event"
    },
    {
      "anonymous": false,
      "inputs": [
        {
          "indexed": false,
          "internalType": "uint256",
          "name": "amount",
          "type": "uint256"
        },
        {
          "indexed": false,
          "internalType": "uint256",
          "name": "amountReceived",
          "type": "uint256"
        }
      ],
      "name": "Unstake",
      "type": "event"
    },
    {
      "anonymous": false,
      "inputs": [
        {
          "indexed": true,
          "internalType": "address",
          "name": "implementation",
          "type": "address"
        }
      ],
      "name": "Upgraded",
      "type": "event"
    },
    {
      "inputs": [],
      "name": "DEFAULT_ADMIN_ROLE",
      "outputs": [
        {
          "internalType": "bytes32",
          "name": "",
          "type": "bytes32"
        }
      ],
      "stateMutability": "view",
      "type": "function"
    },
    {
      "inputs": [],
      "name": "PORTFOLIO_AGENT_ROLE",
      "outputs": [
        {
          "internalType": "bytes32",
          "name": "",
          "type": "bytes32"
        }
      ],
      "stateMutability": "view",
      "type": "function"
    },
    {
      "inputs": [],
      "name": "PORTFOLIO_MANAGER",
      "outputs": [
        {
          "internalType": "bytes32",
          "name": "",
          "type": "bytes32"
        }
      ],
      "stateMutability": "view",
      "type": "function"
    },
    {
      "inputs": [
        {
          "internalType": "address",
          "name": "_to",
          "type": "address"
        }
      ],
      "name": "claimRewards",
      "outputs": [
        {
          "internalType": "uint256",
          "name": "",
          "type": "uint256"
        }
      ],
      "stateMutability": "nonpayable",
      "type": "function"
    },
    {
      "inputs": [],
      "name": "curvePool",
      "outputs": [
        {
          "internalType": "address",
          "name": "",
          "type": "address"
        }
      ],
      "stateMutability": "view",
      "type": "function"
    },
    {
      "inputs": [],
      "name": "depositHelperMgp",
      "outputs": [
        {
          "internalType": "contract PendleMarketDepositHelper",
          "name": "",
          "type": "address"
        }
      ],
      "stateMutability": "view",
      "type": "function"
    },
    {
      "inputs": [],
      "name": "getAmountsByLp",
      "outputs": [
        {
          "internalType": "uint256",
          "name": "syAmount",
          "type": "uint256"
        },
        {
          "internalType": "uint256",
          "name": "ptAmount",
          "type": "uint256"
        }
      ],
      "stateMutability": "view",
      "type": "function"
    },
    {
      "inputs": [
        {
          "internalType": "bytes32",
          "name": "role",
          "type": "bytes32"
        }
      ],
      "name": "getRoleAdmin",
      "outputs": [
        {
          "internalType": "bytes32",
          "name": "",
          "type": "bytes32"
        }
      ],
      "stateMutability": "view",
      "type": "function"
    },
    {
      "inputs": [
        {
          "internalType": "bytes32",
          "name": "role",
          "type": "bytes32"
        },
        {
          "internalType": "address",
          "name": "account",
          "type": "address"
        }
      ],
      "name": "grantRole",
      "outputs": [],
      "stateMutability": "nonpayable",
      "type": "function"
    },
    {
      "inputs": [
        {
          "internalType": "bytes32",
          "name": "role",
          "type": "bytes32"
        },
        {
          "internalType": "address",
          "name": "account",
          "type": "address"
        }
      ],
      "name": "hasRole",
      "outputs": [
        {
          "internalType": "bool",
          "name": "",
          "type": "bool"
        }
      ],
      "stateMutability": "view",
      "type": "function"
    },
    {
      "inputs": [],
      "name": "initialize",
      "outputs": [],
      "stateMutability": "nonpayable",
      "type": "function"
    },
    {
      "inputs": [],
      "name": "liquidationValue",
      "outputs": [
        {
          "internalType": "uint256",
          "name": "",
          "type": "uint256"
        }
      ],
      "stateMutability": "view",
      "type": "function"
    },
    {
      "inputs": [],
      "name": "lp",
      "outputs": [
        {
          "internalType": "contract IPendleMarket",
          "name": "",
          "type": "address"
        }
      ],
      "stateMutability": "view",
      "type": "function"
    },
    {
      "inputs": [],
      "name": "masterMgp",
      "outputs": [
        {
          "internalType": "contract MasterMagpie",
          "name": "",
          "type": "address"
        }
      ],
      "stateMutability": "view",
      "type": "function"
    },
    {
      "inputs": [],
      "name": "navSlippageBP",
      "outputs": [
        {
          "internalType": "uint256",
          "name": "",
          "type": "uint256"
        }
      ],
      "stateMutability": "view",
      "type": "function"
    },
    {
      "inputs": [],
      "name": "netAssetValue",
      "outputs": [
        {
          "internalType": "uint256",
          "name": "",
          "type": "uint256"
        }
      ],
      "stateMutability": "view",
      "type": "function"
    },
    {
      "inputs": [],
      "name": "oracleUsdc",
      "outputs": [
        {
          "internalType": "contract IPriceFeed",
          "name": "",
          "type": "address"
        }
      ],
      "stateMutability": "view",
      "type": "function"
    },
    {
      "inputs": [],
      "name": "oracleUsdt",
      "outputs": [
        {
          "internalType": "contract IPriceFeed",
          "name": "",
          "type": "address"
        }
      ],
      "stateMutability": "view",
      "type": "function"
    },
    {
      "inputs": [],
      "name": "pendle",
      "outputs": [
        {
          "internalType": "contract IERC20",
          "name": "",
          "type": "address"
        }
      ],
      "stateMutability": "view",
      "type": "function"
    },
    {
      "inputs": [],
      "name": "pendleRouter",
      "outputs": [
        {
          "internalType": "contract IPendleRouter",
          "name": "",
          "type": "address"
        }
      ],
      "stateMutability": "view",
      "type": "function"
    },
    {
      "inputs": [],
      "name": "portfolioManager",
      "outputs": [
        {
          "internalType": "address",
          "name": "",
          "type": "address"
        }
      ],
      "stateMutability": "view",
      "type": "function"
    },
    {
      "inputs": [],
      "name": "proxiableUUID",
      "outputs": [
        {
          "internalType": "bytes32",
          "name": "",
          "type": "bytes32"
        }
      ],
      "stateMutability": "view",
      "type": "function"
    },
    {
      "inputs": [],
      "name": "pt",
      "outputs": [
        {
          "internalType": "contract IERC20",
          "name": "",
          "type": "address"
        }
      ],
      "stateMutability": "view",
      "type": "function"
    },
    {
      "inputs": [],
      "name": "ptOracle",
      "outputs": [
        {
          "internalType": "contract IPendlePtOracle",
          "name": "",
          "type": "address"
        }
      ],
      "stateMutability": "view",
      "type": "function"
    },
    {
      "inputs": [
        {
          "internalType": "bytes32",
          "name": "role",
          "type": "bytes32"
        },
        {
          "internalType": "address",
          "name": "account",
          "type": "address"
        }
      ],
      "name": "renounceRole",
      "outputs": [],
      "stateMutability": "nonpayable",
      "type": "function"
    },
    {
      "inputs": [
        {
          "internalType": "bytes32",
          "name": "role",
          "type": "bytes32"
        },
        {
          "internalType": "address",
          "name": "account",
          "type": "address"
        }
      ],
      "name": "revokeRole",
      "outputs": [],
      "stateMutability": "nonpayable",
      "type": "function"
    },
    {
      "inputs": [
        {
          "components": [
            {
              "internalType": "address",
              "name": "usdc",
              "type": "address"
            },
            {
              "internalType": "address",
              "name": "usdt",
              "type": "address"
            },
            {
              "internalType": "address",
              "name": "ptAddress",
              "type": "address"
            },
            {
              "internalType": "address",
              "name": "ytAddress",
              "type": "address"
            },
            {
              "internalType": "address",
              "name": "syAddress",
              "type": "address"
            },
            {
              "internalType": "address",
              "name": "lpAddress",
              "type": "address"
            },
            {
              "internalType": "address",
              "name": "pendleRouterAddress",
              "type": "address"
            },
            {
              "internalType": "address",
              "name": "stargateUsdtAddress",
              "type": "address"
            },
            {
              "internalType": "address",
              "name": "pendlePtOracleAddress",
              "type": "address"
            },
            {
              "internalType": "address",
              "name": "uniswapV3Router",
              "type": "address"
            },
            {
              "internalType": "address",
              "name": "curvePool",
              "type": "address"
            },
            {
              "internalType": "address",
              "name": "stgAddress",
              "type": "address"
            },
            {
              "internalType": "address",
              "name": "pendleAddress",
              "type": "address"
            },
            {
              "internalType": "address",
              "name": "depositHelperMgp",
              "type": "address"
            },
            {
              "internalType": "address",
              "name": "masterMgp",
              "type": "address"
            }
          ],
          "internalType": "struct StrategyPendleUsdcUsdt.StrategyParams",
          "name": "params",
          "type": "tuple"
        }
      ],
      "name": "setParams",
      "outputs": [],
      "stateMutability": "nonpayable",
      "type": "function"
    },
    {
      "inputs": [
        {
          "internalType": "address",
          "name": "_value",
          "type": "address"
        }
      ],
      "name": "setPortfolioManager",
      "outputs": [],
      "stateMutability": "nonpayable",
      "type": "function"
    },
    {
      "inputs": [
        {
          "internalType": "uint256",
          "name": "_swapSlippageBP",
          "type": "uint256"
        },
        {
          "internalType": "uint256",
          "name": "_navSlippageBP",
          "type": "uint256"
        },
        {
          "internalType": "uint256",
          "name": "_stakeSlippageBP",
          "type": "uint256"
        }
      ],
      "name": "setSlippages",
      "outputs": [],
      "stateMutability": "nonpayable",
      "type": "function"
    },
    {
      "inputs": [
        {
          "internalType": "address",
          "name": "_asset",
          "type": "address"
        },
        {
          "internalType": "uint256",
          "name": "_amount",
          "type": "uint256"
        }
      ],
      "name": "stake",
      "outputs": [],
      "stateMutability": "nonpayable",
      "type": "function"
    },
    {
      "inputs": [],
      "name": "stakeSlippageBP",
      "outputs": [
        {
          "internalType": "uint256",
          "name": "",
          "type": "uint256"
        }
      ],
      "stateMutability": "view",
      "type": "function"
    },
    {
      "inputs": [],
      "name": "stargateUsdtAddress",
      "outputs": [
        {
          "internalType": "address",
          "name": "",
          "type": "address"
        }
      ],
      "stateMutability": "view",
      "type": "function"
    },
    {
      "inputs": [],
      "name": "stg",
      "outputs": [
        {
          "internalType": "contract IERC20",
          "name": "",
          "type": "address"
        }
      ],
      "stateMutability": "view",
      "type": "function"
    },
    {
      "inputs": [
        {
          "internalType": "bytes4",
          "name": "interfaceId",
          "type": "bytes4"
        }
      ],
      "name": "supportsInterface",
      "outputs": [
        {
          "internalType": "bool",
          "name": "",
          "type": "bool"
        }
      ],
      "stateMutability": "view",
      "type": "function"
    },
    {
      "inputs": [],
      "name": "swapSlippageBP",
      "outputs": [
        {
          "internalType": "uint256",
          "name": "",
          "type": "uint256"
        }
      ],
      "stateMutability": "view",
      "type": "function"
    },
    {
      "inputs": [],
      "name": "sy",
      "outputs": [
        {
          "internalType": "contract IPendleStargateLPSY",
          "name": "",
          "type": "address"
        }
      ],
      "stateMutability": "view",
      "type": "function"
    },
    {
      "inputs": [
        {
          "internalType": "uint256",
          "name": "amount",
          "type": "uint256"
        }
      ],
      "name": "syToUsdt",
      "outputs": [
        {
          "internalType": "uint256",
          "name": "",
          "type": "uint256"
        }
      ],
      "stateMutability": "view",
      "type": "function"
    },
    {
      "inputs": [],
      "name": "thresholdBalancePercent",
      "outputs": [
        {
          "internalType": "uint256",
          "name": "",
          "type": "uint256"
        }
      ],
      "stateMutability": "view",
      "type": "function"
    },
    {
      "inputs": [],
      "name": "uniswapV3Router",
      "outputs": [
        {
          "internalType": "contract ISwapRouter",
          "name": "",
          "type": "address"
        }
      ],
      "stateMutability": "view",
      "type": "function"
    },
    {
      "inputs": [
        {
          "internalType": "address",
          "name": "_asset",
          "type": "address"
        },
        {
          "internalType": "uint256",
          "name": "_amount",
          "type": "uint256"
        },
        {
          "internalType": "address",
          "name": "_beneficiary",
          "type": "address"
        },
        {
          "internalType": "bool",
          "name": "_targetIsZero",
          "type": "bool"
        }
      ],
      "name": "unstake",
      "outputs": [
        {
          "internalType": "uint256",
          "name": "",
          "type": "uint256"
        }
      ],
      "stateMutability": "nonpayable",
      "type": "function"
    },
    {
      "inputs": [
        {
          "internalType": "address",
          "name": "newImplementation",
          "type": "address"
        }
      ],
      "name": "upgradeTo",
      "outputs": [],
      "stateMutability": "nonpayable",
      "type": "function"
    },
    {
      "inputs": [
        {
          "internalType": "address",
          "name": "newImplementation",
          "type": "address"
        },
        {
          "internalType": "bytes",
          "name": "data",
          "type": "bytes"
        }
      ],
      "name": "upgradeToAndCall",
      "outputs": [],
      "stateMutability": "payable",
      "type": "function"
    },
    {
      "inputs": [],
      "name": "usdc",
      "outputs": [
        {
          "internalType": "contract IERC20",
          "name": "",
          "type": "address"
        }
      ],
      "stateMutability": "view",
      "type": "function"
    },
    {
      "inputs": [],
      "name": "usdt",
      "outputs": [
        {
          "internalType": "contract IERC20",
          "name": "",
          "type": "address"
        }
      ],
      "stateMutability": "view",
      "type": "function"
    },
    {
      "inputs": [
        {
          "internalType": "uint256",
          "name": "amount",
          "type": "uint256"
        }
      ],
      "name": "usdtToSy",
      "outputs": [
        {
          "internalType": "uint256",
          "name": "",
          "type": "uint256"
        }
      ],
      "stateMutability": "view",
      "type": "function"
    },
    {
      "inputs": [],
      "name": "yt",
      "outputs": [
        {
          "internalType": "contract IERC20",
          "name": "",
          "type": "address"
        }
      ],
      "stateMutability": "view",
      "type": "function"
    }
  ],
  "numDeployments": 2,
  "solcInputHash": "92aa0e95c2c4e8aa9e26ebfcb3de884c",
  "bytecode": "0x60a06040523060601b6080523480156200001857600080fd5b50600054610100900460ff16158080156200003a5750600054600160ff909116105b806200006a575062000057306200014460201b620021501760201c565b1580156200006a575060005460ff166001145b620000d25760405162461bcd60e51b815260206004820152602e60248201527f496e697469616c697a61626c653a20636f6e747261637420697320616c72656160448201526d191e481a5b9a5d1a585b1a5e995960921b606482015260840160405180910390fd5b6000805460ff191660011790558015620000f6576000805461ff0019166101001790555b80156200013d576000805461ff0019169055604051600181527f7f26b83ff96e1f2b6a682f133852f6798a09c465da95921460cefb38474024989060200160405180910390a15b5062000153565b6001600160a01b03163b151590565b60805160601c615fdd6200018e600039600081816109550152818161099501528181610a3501528181610a750152610b040152615fdd6000f3fe60806040526004361061027d5760003560e01c8063733b40881161014f578063adc9772e116100c1578063dc2630221161007a578063dc26302214610792578063e71c47cf146107b3578063ef5cfb8c146107d4578063f6f6b881146107f4578063fdbbc3f614610814578063feee3da51461083457600080fd5b8063adc9772e146106da578063ae30c110146106fa578063bf52e0801461071a578063c544057014610730578063cc6522c314610751578063d547741f1461077257600080fd5b80639392e3d8116101135780639392e3d81461062e5780639ec6823b1461064f578063a217fddf1461066f578063a2c530da14610684578063a3673b38146106a5578063a440b21a146106ba57600080fd5b8063733b40881461058d5780637d5f5802146105b75780638129fc1c146105d957806386f7189c146105ee57806391d148541461060e57600080fd5b8063313c06a0116101f35780635ca558f8116101ac5780635ca558f8146104ca5780635dbd733a146104e05780635fea9cbb14610514578063620b75df1461053557806368370317146105555780636866afe31461056c57600080fd5b8063313c06a01461042057806336568abe146104415780633659cfe6146104615780633e413bee146104815780634f1ef286146104a257806352d1902d146104b557600080fd5b8063218751b211610245578063218751b214610356578063248a9ca3146103775780632576e65a146103a75780632c76d7a6146103bc5780632f2ff15d146103dd5780632f48ab7d146103ff57600080fd5b806301ffc9a71461028257806305d7b9a2146102b7578063119cd879146102f0578063181cc05b14610314578063206aeab314610335575b600080fd5b34801561028e57600080fd5b506102a261029d3660046157d2565b610855565b60405190151581526020015b60405180910390f35b3480156102c357600080fd5b50610134546102d8906001600160a01b031681565b6040516001600160a01b0390911681526020016102ae565b3480156102fc57600080fd5b5061030660fd5481565b6040519081526020016102ae565b34801561032057600080fd5b50610132546102d8906001600160a01b031681565b34801561034157600080fd5b50610131546102d8906001600160a01b031681565b34801561036257600080fd5b50610137546102d8906001600160a01b031681565b34801561038357600080fd5b50610306610392366004615770565b60009081526065602052604090206001015490565b3480156103b357600080fd5b5061030661088c565b3480156103c857600080fd5b50610136546102d8906001600160a01b031681565b3480156103e957600080fd5b506103fd6103f83660046157a2565b61089d565b005b34801561040b57600080fd5b5061012e546102d8906001600160a01b031681565b34801561042c57600080fd5b50610133546102d8906001600160a01b031681565b34801561044d57600080fd5b506103fd61045c3660046157a2565b6108c7565b34801561046d57600080fd5b506103fd61047c3660046155f2565b61094a565b34801561048d57600080fd5b5061012d546102d8906001600160a01b031681565b6103fd6104b036600461562c565b610a2a565b3480156104c157600080fd5b50610306610af7565b3480156104d657600080fd5b5061030660fe5481565b3480156104ec57600080fd5b506103067fd67ad422505496469a1adf6cdf9e5ee92ac5d33992843c9ecc4b2f6d6cde913781565b34801561052057600080fd5b50610138546102d8906001600160a01b031681565b34801561054157600080fd5b5060fb546102d8906001600160a01b031681565b34801561056157600080fd5b5061030661013c5481565b34801561057857600080fd5b5061013e546102d8906001600160a01b031681565b34801561059957600080fd5b506105a2610baa565b604080519283526020830191909152016102ae565b3480156105c357600080fd5b50610306600080516020615f4183398151915281565b3480156105e557600080fd5b506103fd610e1c565b3480156105fa57600080fd5b50610306610609366004615770565b610ee6565b34801561061a57600080fd5b506102a26106293660046157a2565b610fff565b34801561063a57600080fd5b50610135546102d8906001600160a01b031681565b34801561065b57600080fd5b5061030661066a366004615770565b61102a565b34801561067b57600080fd5b50610306600081565b34801561069057600080fd5b5061013b546102d8906001600160a01b031681565b3480156106b157600080fd5b506103066110f7565b3480156106c657600080fd5b506103fd6106d53660046155f2565b611103565b3480156106e657600080fd5b506103fd6106f53660046156d4565b611232565b34801561070657600080fd5b506103fd6107153660046158eb565b611462565b34801561072657600080fd5b5061030660fc5481565b34801561073c57600080fd5b50610130546102d8906001600160a01b031681565b34801561075d57600080fd5b50610139546102d8906001600160a01b031681565b34801561077e57600080fd5b506103fd61078d3660046157a2565b6115d7565b34801561079e57600080fd5b5061012f546102d8906001600160a01b031681565b3480156107bf57600080fd5b5061013d546102d8906001600160a01b031681565b3480156107e057600080fd5b506103066107ef3660046155f2565b6115fc565b34801561080057600080fd5b5061030661080f366004615700565b611681565b34801561082057600080fd5b506103fd61082f3660046158ae565b61194c565b34801561084057600080fd5b5061013a546102d8906001600160a01b031681565b60006001600160e01b03198216637965db0b60e01b148061088657506301ffc9a760e01b6001600160e01b03198316145b92915050565b6000610898600061215f565b905090565b6000828152606560205260409020600101546108b8816124df565b6108c283836124e9565b505050565b6001600160a01b038116331461093c5760405162461bcd60e51b815260206004820152602f60248201527f416363657373436f6e74726f6c3a2063616e206f6e6c792072656e6f756e636560448201526e103937b632b9903337b91039b2b63360891b60648201526084015b60405180910390fd5b610946828261256f565b5050565b306001600160a01b037f00000000000000000000000000000000000000000000000000000000000000001614156109935760405162461bcd60e51b815260040161093390615c92565b7f00000000000000000000000000000000000000000000000000000000000000006001600160a01b03166109dc600080516020615f61833981519152546001600160a01b031690565b6001600160a01b031614610a025760405162461bcd60e51b815260040161093390615cde565b610a0b816125d6565b60408051600080825260208201909252610a27918391906125e1565b50565b306001600160a01b037f0000000000000000000000000000000000000000000000000000000000000000161415610a735760405162461bcd60e51b815260040161093390615c92565b7f00000000000000000000000000000000000000000000000000000000000000006001600160a01b0316610abc600080516020615f61833981519152546001600160a01b031690565b6001600160a01b031614610ae25760405162461bcd60e51b815260040161093390615cde565b610aeb826125d6565b610946828260016125e1565b6000306001600160a01b037f00000000000000000000000000000000000000000000000000000000000000001614610b975760405162461bcd60e51b815260206004820152603860248201527f555550535570677261646561626c653a206d757374206e6f742062652063616c60448201527f6c6564207468726f7567682064656c656761746563616c6c00000000000000006064820152608401610933565b50600080516020615f6183398151915290565b61013d546101335460405163b203bb9960e01b81526001600160a01b0391821660048201523060248201526000928392839291169063b203bb999060440160206040518083038186803b158015610c0057600080fd5b505afa158015610c14573d6000803e3d6000fd5b505050506040513d601f19601f82011682018060405250810190610c389190615789565b610133546040516370a0823160e01b81523060048201529192506001600160a01b0316906370a082319060240160206040518083038186803b158015610c7d57600080fd5b505afa158015610c91573d6000803e3d6000fd5b505050506040513d601f19601f82011682018060405250810190610cb59190615789565b610cbf9082615df7565b9050600061013360009054906101000a90046001600160a01b03166001600160a01b031663c3fb90d66040518163ffffffff1660e01b815260040160c06040518083038186803b158015610d1257600080fd5b505afa158015610d26573d6000803e3d6000fd5b505050506040513d601f19601f82011682018060405250810190610d4a91906157fc565b805160208083015161013354604080516318160ddd60e01b815290519596506001600160801b039485169594909216936000936001600160a01b03909216926318160ddd926004808301939192829003018186803b158015610dab57600080fd5b505afa158015610dbf573d6000803e3d6000fd5b505050506040513d601f19601f82011682018060405250810190610de39190615789565b905080610df08684615e31565b610dfa9190615e0f565b965080610e078685615e31565b610e119190615e0f565b955050505050509091565b600054610100900460ff1615808015610e3c5750600054600160ff909116105b80610e565750303b158015610e56575060005460ff166001145b610e725760405162461bcd60e51b815260040161093390615d2a565b6000805460ff191660011790558015610e95576000805461ff0019166101001790555b610e9d61275b565b8015610a27576000805461ff0019169055604051600181527f7f26b83ff96e1f2b6a682f133852f6798a09c465da95921460cefb3847402498906020015b60405180910390a150565b6101355460408051630abb87c960e11b815290516000926001600160a01b0316916315770f92916004808301926020929190829003018186803b158015610f2c57600080fd5b505afa158015610f40573d6000803e3d6000fd5b505050506040513d601f19601f82011682018060405250810190610f649190615789565b61013560009054906101000a90046001600160a01b03166001600160a01b03166318160ddd6040518163ffffffff1660e01b815260040160206040518083038186803b158015610fb357600080fd5b505afa158015610fc7573d6000803e3d6000fd5b505050506040513d601f19601f82011682018060405250810190610feb9190615789565b610ff59084615e31565b6108869190615e0f565b60009182526065602090815260408084206001600160a01b0393909316845291905290205460ff1690565b61013554604080516318160ddd60e01b815290516000926001600160a01b0316916318160ddd916004808301926020929190829003018186803b15801561107057600080fd5b505afa158015611084573d6000803e3d6000fd5b505050506040513d601f19601f820116820180604052508101906110a89190615789565b61013560009054906101000a90046001600160a01b03166001600160a01b03166315770f926040518163ffffffff1660e01b815260040160206040518083038186803b158015610fb357600080fd5b6000610898600161215f565b61110e600033610fff565b6111515760405162461bcd60e51b81526020600482015260146024820152735265737472696374656420746f2061646d696e7360601b6044820152606401610933565b6001600160a01b0381166111a75760405162461bcd60e51b815260206004820152601860248201527f5a65726f2061646472657373206e6f7420616c6c6f77656400000000000000006044820152606401610933565b60fb546111cc90600080516020615f41833981519152906001600160a01b03166115d7565b6111e4600080516020615f418339815191528261089d565b60fb80546001600160a01b0319166001600160a01b0383169081179091556040519081527ff7b449fcd5cfb7379dcd34cb69428dd9f882033b15be33d83b42d91daa28eeb790602001610edb565b61124a600080516020615f4183398151915233610fff565b6112665760405162461bcd60e51b815260040161093390615c5b565b60006112e4306001600160a01b031663a3673b386040518163ffffffff1660e01b815260040160206040518083038186803b1580156112a457600080fd5b505afa1580156112b8573d6000803e3d6000fd5b505050506040513d601f19601f820116820180604052508101906112dc9190615789565b60fd54612840565b6040516370a0823160e01b81523060048201529091506113699084906001600160a01b038216906370a082319060240160206040518083038186803b15801561132c57600080fd5b505afa158015611340573d6000803e3d6000fd5b505050506040513d601f19601f820116820180604052508101906113649190615789565b61286a565b80306001600160a01b031663a3673b386040518163ffffffff1660e01b815260040160206040518083038186803b1580156113a357600080fd5b505afa1580156113b7573d6000803e3d6000fd5b505050506040513d601f19601f820116820180604052508101906113db9190615789565b10156114295760405162461bcd60e51b815260206004820152601f60248201527f5374726174656779204e4156206c657373207468616e206578706563746564006044820152606401610933565b6040518281527f227a473b70d2f893cc7659219575c030a63b5743024fe1e0c1a680e708b1525a906020015b60405180910390a1505050565b61148c7fd67ad422505496469a1adf6cdf9e5ee92ac5d33992843c9ecc4b2f6d6cde913733610fff565b80611533575060fb54604051632474521560e21b81527fd67ad422505496469a1adf6cdf9e5ee92ac5d33992843c9ecc4b2f6d6cde913760048201523360248201526001600160a01b03909116906391d148549060440160206040518083038186803b1580156114fb57600080fd5b505afa15801561150f573d6000803e3d6000fd5b505050506040513d601f19601f820116820180604052508101906115339190615753565b61158a5760405162461bcd60e51b815260206004820152602260248201527f5265737472696374656420746f20504f5254464f4c494f5f4147454e545f524f6044820152614c4560f01b6064820152608401610933565b60fc83905560fd82905560fe81905560408051848152602081018490529081018290527f116fbf1e97a2be629ad98abfb6c332733c8996c2dfb174dd2efe8440df381d1a90606001611455565b6000828152606560205260409020600101546115f2816124df565b6108c2838361256f565b6000611616600080516020615f4183398151915233610fff565b6116325760405162461bcd60e51b815260040161093390615c5b565b600061163d8361316f565b90508015611679576040518181527f3ac0594a85a20354f9dc74f33728416d19ce00d04a406c108cc2dcf2cecea1349060200160405180910390a15b90505b919050565b600061169b600080516020615f4183398151915233610fff565b6116b75760405162461bcd60e51b815260040161093390615c5b565b60006116f5306001600160a01b031663a3673b386040518163ffffffff1660e01b815260040160206040518083038186803b1580156112a457600080fd5b9050600080841561171c576117098661316f565b905061171588876135d6565b915061178b565b6117278888886136e6565b91508682101561178b5760405162461bcd60e51b815260206004820152602960248201527f52657475726e65642076616c7565206c657373207468616e2072657175657374604482015268195908185b5bdd5b9d60ba1b6064820152608401610933565b82306001600160a01b031663a3673b386040518163ffffffff1660e01b815260040160206040518083038186803b1580156117c557600080fd5b505afa1580156117d9573d6000803e3d6000fd5b505050506040513d601f19601f820116820180604052508101906117fd9190615789565b101561184b5760405162461bcd60e51b815260206004820152601f60248201527f5374726174656779204e4156206c657373207468616e206578706563746564006044820152606401610933565b60405163a9059cbb60e01b81526001600160a01b0389169063a9059cbb906118799089908690600401615b5f565b602060405180830381600087803b15801561189357600080fd5b505af11580156118a7573d6000803e3d6000fd5b505050506040513d601f19601f820116820180604052508101906118cb9190615753565b5060408051888152602081018490527f9045c2ac9b2026de8075f2701bbdde882cd5e830b3b1ead9a15b22f2b5b93742910160405180910390a1801561193f576040518181527f3ac0594a85a20354f9dc74f33728416d19ce00d04a406c108cc2dcf2cecea1349060200160405180910390a15b509150505b949350505050565b611957600033610fff565b61199a5760405162461bcd60e51b81526020600482015260146024820152735265737472696374656420746f2061646d696e7360601b6044820152606401610933565b6119a760208201826155f2565b61012d80546001600160a01b0319166001600160a01b03929092169190911790556119d860408201602083016155f2565b61012e80546001600160a01b0319166001600160a01b0392909216919091179055611a0960608201604083016155f2565b61012f80546001600160a01b0319166001600160a01b0392909216919091179055611a3a60808201606083016155f2565b61013080546001600160a01b0319166001600160a01b0392909216919091179055611a6b60a08201608083016155f2565b61013280546001600160a01b0319166001600160a01b0392909216919091179055611a9c60c0820160a083016155f2565b61013380546001600160a01b0319166001600160a01b0392909216919091179055611ace610100820160e083016155f2565b61013580546001600160a01b0319166001600160a01b0392909216919091179055611aff60e0820160c083016155f2565b61013180546001600160a01b0319166001600160a01b0392909216919091179055611b32610140820161012083016155f2565b61013680546001600160a01b0319166001600160a01b0392909216919091179055611b65610120820161010083016155f2565b61013480546001600160a01b03929092166001600160a01b0319928316179055610138805482167350834f3163758fcc1df9973b6e91f0f0f0434ad31790556101398054909116733f3f5df88dc9f13eac63df89ec16ef6e7e25dde7179055611bd6610160820161014083016155f2565b61013780546001600160a01b0319166001600160a01b0392909216919091179055611c09610180820161016083016155f2565b61013a80546001600160a01b0319166001600160a01b0392909216919091179055611c3c6101a0820161018083016155f2565b61013b80546001600160a01b0319166001600160a01b0392909216919091179055611c6f6101c082016101a083016155f2565b61013d80546001600160a01b0319166001600160a01b0392909216919091179055611ca26101e082016101c083016155f2565b61013e80546001600160a01b0319166001600160a01b03928316179055600561013c5561012e546101325460405163095ea7b360e01b8152600019939283169263095ea7b392611cf9929116908590600401615b5f565b602060405180830381600087803b158015611d1357600080fd5b505af1158015611d27573d6000803e3d6000fd5b505050506040513d601f19601f82011682018060405250810190611d4b9190615753565b5061012e546101315460405163095ea7b360e01b81526001600160a01b039283169263095ea7b392611d84929116908590600401615b5f565b602060405180830381600087803b158015611d9e57600080fd5b505af1158015611db2573d6000803e3d6000fd5b505050506040513d601f19601f82011682018060405250810190611dd69190615753565b506101325460405163095ea7b360e01b81526001600160a01b039091169063095ea7b390611e0a9083908590600401615b5f565b602060405180830381600087803b158015611e2457600080fd5b505af1158015611e38573d6000803e3d6000fd5b505050506040513d601f19601f82011682018060405250810190611e5c9190615753565b50610132546101315460405163095ea7b360e01b81526001600160a01b039283169263095ea7b392611e95929116908590600401615b5f565b602060405180830381600087803b158015611eaf57600080fd5b505af1158015611ec3573d6000803e3d6000fd5b505050506040513d601f19601f82011682018060405250810190611ee79190615753565b5061012f546101315460405163095ea7b360e01b81526001600160a01b039283169263095ea7b392611f20929116908590600401615b5f565b602060405180830381600087803b158015611f3a57600080fd5b505af1158015611f4e573d6000803e3d6000fd5b505050506040513d601f19601f82011682018060405250810190611f729190615753565b50610130546101315460405163095ea7b360e01b81526001600160a01b039283169263095ea7b392611fab929116908590600401615b5f565b602060405180830381600087803b158015611fc557600080fd5b505af1158015611fd9573d6000803e3d6000fd5b505050506040513d601f19601f82011682018060405250810190611ffd9190615753565b50610133546101315460405163095ea7b360e01b81526001600160a01b039283169263095ea7b392612036929116908590600401615b5f565b602060405180830381600087803b15801561205057600080fd5b505af1158015612064573d6000803e3d6000fd5b505050506040513d601f19601f820116820180604052508101906120889190615753565b506101335460405163095ea7b360e01b81526001600160a01b039091169063095ea7b3906120d090736db96bbeb081d2a85e0954c252f2c1dc108b3f81908590600401615b5f565b602060405180830381600087803b1580156120ea57600080fd5b505af11580156120fe573d6000803e3d6000fd5b505050506040513d601f19601f820116820180604052508101906121229190615753565b506040517fea5646eb3528e525944447a4a97de700dd472298626e5c0481d1c82c3da86ea590600090a15050565b6001600160a01b03163b151590565b600080600061216c610baa565b610132546040516370a0823160e01b81523060048201529294509092506001600160a01b0316906370a082319060240160206040518083038186803b1580156121b457600080fd5b505afa1580156121c8573d6000803e3d6000fd5b505050506040513d601f19601f820116820180604052508101906121ec9190615789565b6121f69083615df7565b61012f546040516370a0823160e01b81523060048201529193506001600160a01b0316906370a082319060240160206040518083038186803b15801561223b57600080fd5b505afa15801561224f573d6000803e3d6000fd5b505050506040513d601f19601f820116820180604052508101906122739190615789565b61227d9082615df7565b610130546040516370a0823160e01b81523060048201529192506000916001600160a01b03909116906370a082319060240160206040518083038186803b1580156122c757600080fd5b505afa1580156122db573d6000803e3d6000fd5b505050506040513d601f19601f820116820180604052508101906122ff9190615789565b61012e546040516370a0823160e01b81523060048201529192506000916001600160a01b03909116906370a082319060240160206040518083038186803b15801561234957600080fd5b505afa15801561235d573d6000803e3d6000fd5b505050506040513d601f19601f820116820180604052508101906123819190615789565b61012d546040516370a0823160e01b81523060048201529192506000916001600160a01b03909116906370a082319060240160206040518083038186803b1580156123cb57600080fd5b505afa1580156123df573d6000803e3d6000fd5b505050506040513d601f19601f820116820180604052508101906124039190615789565b905060008385106124145783612416565b845b9050806124228761102a565b61242c9190615df7565b6124369084615df7565b92506124428186615e50565b945061244e8185615e50565b935060008061245d878761378f565b909250905061246c8183615df7565b6124769086615df7565b945084156124d157891561249e5761248d85613871565b6124979085615df7565b93506124d1565b6101375461012e5461012d546124c4926001600160a01b039081169281169116886138ba565b6124ce9085615df7565b93505b509198975050505050505050565b610a2781336139ab565b6124f38282610fff565b6109465760008281526065602090815260408083206001600160a01b03851684529091529020805460ff1916600117905561252b3390565b6001600160a01b0316816001600160a01b0316837f2f8788117e7eff1d82e926ec794901d17c78024a50270940304540a733656f0d60405160405180910390a45050565b6125798282610fff565b156109465760008281526065602090815260408083206001600160a01b0385168085529252808320805460ff1916905551339285917ff6391f5c32d9c69d2a47ea670b442974b53935d1edc7fd64eb21e047a839171b9190a45050565b6000610946816124df565b7f4910fdfa16fed3260ed0e7147f7cc6da11a60208b5b9406d12a635614ffd91435460ff1615612614576108c283613a04565b826001600160a01b03166352d1902d6040518163ffffffff1660e01b815260040160206040518083038186803b15801561264d57600080fd5b505afa92505050801561267d575060408051601f3d908101601f1916820190925261267a91810190615789565b60015b6126e05760405162461bcd60e51b815260206004820152602e60248201527f45524331393637557067726164653a206e657720696d706c656d656e7461746960448201526d6f6e206973206e6f74205555505360901b6064820152608401610933565b600080516020615f61833981519152811461274f5760405162461bcd60e51b815260206004820152602960248201527f45524331393637557067726164653a20756e737570706f727465642070726f786044820152681a58589b195555525160ba1b6064820152608401610933565b506108c2838383613aa0565b600054610100900460ff161580801561277b5750600054600160ff909116105b806127955750303b158015612795575060005460ff166001145b6127b15760405162461bcd60e51b815260040161093390615d2a565b6000805460ff1916600117905580156127d4576000805461ff0019166101001790555b6127dc613acb565b6127e4613acb565b6127ef6000336124e9565b601460fc81905560fd55600460fe558015610a27576000805461ff0019169055604051600181527f7f26b83ff96e1f2b6a682f133852f6798a09c465da95921460cefb384740249890602001610edb565b600061271061284f8382615e50565b6128599085615e31565b6128639190615e0f565b9392505050565b6101375461012d5461012e546040516370a0823160e01b815230600482015261298f936001600160a01b0390811693811692169082906370a082319060240160206040518083038186803b1580156128c157600080fd5b505afa1580156128d5573d6000803e3d6000fd5b505050506040513d601f19601f820116820180604052508101906128f99190615789565b61012d546040516370a0823160e01b815230600482015261298a91612982916001600160a01b03909116906370a082319060240160206040518083038186803b15801561294557600080fd5b505afa158015612959573d6000803e3d6000fd5b505050506040513d601f19601f8201168201806040525081019061297d9190615789565b613b38565b60fc54612840565b613b81565b5061012e546040516370a0823160e01b81523060048201526000916001600160a01b0316906370a082319060240160206040518083038186803b1580156129d557600080fd5b505afa1580156129e9573d6000803e3d6000fd5b505050506040513d601f19601f82011682018060405250810190612a0d9190615789565b610132546040516370a0823160e01b81523060048201529192506000916001600160a01b03909116906370a082319060240160206040518083038186803b158015612a5757600080fd5b505afa158015612a6b573d6000803e3d6000fd5b505050506040513d601f19601f82011682018060405250810190612a8f9190615789565b9050600061013360009054906101000a90046001600160a01b03166001600160a01b031663c3fb90d66040518163ffffffff1660e01b815260040160c06040518083038186803b158015612ae257600080fd5b505afa158015612af6573d6000803e3d6000fd5b505050506040513d601f19601f82011682018060405250810190612b1a91906157fc565b80516020808301516101355460408051630abb87c960e11b815290519596506001600160801b039485169594909216936000936001600160a01b03909216926315770f92926004808301939192829003018186803b158015612b7b57600080fd5b505afa158015612b8f573d6000803e3d6000fd5b505050506040513d601f19601f82011682018060405250810190612bb39190615789565b9050600061013560009054906101000a90046001600160a01b03166001600160a01b03166318160ddd6040518163ffffffff1660e01b815260040160206040518083038186803b158015612c0657600080fd5b505afa158015612c1a573d6000803e3d6000fd5b505050506040513d601f19601f82011682018060405250810190612c3e9190615789565b90506000612c8783612c508988615e31565b612c5a8b88615e31565b612c649190615e50565b612c6e8589615e31565b612c788888615e31565b612c829190615df7565b613d60565b6101325461012e546040516320e8c56560e01b81529293506001600160a01b03918216926320e8c56592612cc79230929116908690600090600401615b36565b602060405180830381600087803b158015612ce157600080fd5b505af1158015612cf5573d6000803e3d6000fd5b505050506040513d601f19601f82011682018060405250810190612d199190615789565b5050505050505050506000604051806080016040528060006003811115612d4257612d42615edb565b815260200160006001600160a01b03168152602001604051602401612d7290602080825260009082015260400190565b60408051601f19818403018152918152602080830180516001600160e01b031663c5d2460160e01b1790529183526000928201839052805160c08101825261012e546001600160a01b031680825291516370a0823160e01b81523060048201529495509293918301916370a082319060240160206040518083038186803b158015612dfc57600080fd5b505afa158015612e10573d6000803e3d6000fd5b505050506040513d601f19601f82011682018060405250810190612e349190615789565b815261012e546001600160a01b039081166020830152600060408084018290526060840182905260809093018690526101315461013054935163237596db60e11b81529495508216936346eb2db693612e969330939116918790600401615b03565b602060405180830381600087803b158015612eb057600080fd5b505af1158015612ec4573d6000803e3d6000fd5b505050506040513d601f19601f82011682018060405250810190612ee89190615789565b50506101315461013354610132546040516370a0823160e01b815230600482018190526001600160a01b0394851695506397ee279e94909381169216906370a082319060240160206040518083038186803b158015612f4657600080fd5b505afa158015612f5a573d6000803e3d6000fd5b505050506040513d601f19601f82011682018060405250810190612f7e9190615789565b61012f546040516370a0823160e01b81523060048201526001600160a01b03909116906370a082319060240160206040518083038186803b158015612fc257600080fd5b505afa158015612fd6573d6000803e3d6000fd5b505050506040513d601f19601f82011682018060405250810190612ffa9190615789565b6040516001600160e01b031960e087901b1681526001600160a01b039485166004820152939092166024840152604483015260648201526000608482015260a401606060405180830381600087803b15801561305557600080fd5b505af1158015613069573d6000803e3d6000fd5b505050506040513d601f19601f8201168201806040525081019061308d9190615917565b505061013d54610133546040516370a0823160e01b81523060048201526001600160a01b03928316935063bad55ca1929091169081906370a082319060240160206040518083038186803b1580156130e457600080fd5b505afa1580156130f8573d6000803e3d6000fd5b505050506040513d601f19601f8201168201806040525081019061311c9190615789565b6040518363ffffffff1660e01b8152600401613139929190615b5f565b600060405180830381600087803b15801561315357600080fd5b505af1158015613167573d6000803e3d6000fd5b505050505050565b61013d546101335460405163072e008f60e11b81526001600160a01b0391821660048201526000929190911690630e5c011e90602401600060405180830381600087803b1580156131bf57600080fd5b505af11580156131d3573d6000803e3d6000fd5b5060009250600191506131e39050565b60405190808252806020026020018201604052801561320c578160200160208202803683370190505b506101335481519192506001600160a01b031690829060009061323157613231615ef1565b6001600160a01b03929092166020928302919091018201526040805160028082526060820183526000939192909183019080368337505061013a5482519293506001600160a01b03169183915060009061328d5761328d615ef1565b6001600160a01b03928316602091820292909201015261013b548251911690829060019081106132bf576132bf615ef1565b6001600160a01b039290921660209283029190910190910152604080516001808252818301909252600091816020015b60608152602001906001900390816132ef579050509050818160008151811061331a5761331a615ef1565b602090810291909101015261013e54604051634531146360e01b81526001600160a01b03909116906345311463906133589086908590600401615b78565b600060405180830381600087803b15801561337257600080fd5b505af1158015613386573d6000803e3d6000fd5b50505050613392613e0f565b61013a546040516370a0823160e01b81523060048201526000917382af49447d8a07e3bd95bd0d56f35241523fbab19183916001600160a01b0316906370a082319060240160206040518083038186803b1580156133ef57600080fd5b505afa158015613403573d6000803e3d6000fd5b505050506040513d601f19601f820116820180604052508101906134279190615789565b90508015613473576101365461013a5461012d54600092613463926001600160a01b039182169290821691879116610bb86101f4308989613fe4565b905061346f8185615df7565b9350505b61013b546040516370a0823160e01b81523060048201526000916001600160a01b0316906370a082319060240160206040518083038186803b1580156134b857600080fd5b505afa1580156134cc573d6000803e3d6000fd5b505050506040513d601f19601f820116820180604052508101906134f09190615789565b9050801561353c576101365461013b5461012d5460009261352c926001600160a01b039182169290821691889116610bb86101f4308989613fe4565b90506135388186615df7565b9450505b83156135c95761012d5460405163a9059cbb60e01b81526001600160a01b039091169063a9059cbb90613575908c908890600401615b5f565b602060405180830381600087803b15801561358f57600080fd5b505af11580156135a3573d6000803e3d6000fd5b505050506040513d601f19601f820116820180604052508101906135c79190615753565b505b5091979650505050505050565b61013d546101335460405163b203bb9960e01b81526001600160a01b03918216600482015230602482015260009261366a92169063b203bb999060440160206040518083038186803b15801561362b57600080fd5b505afa15801561363f573d6000803e3d6000fd5b505050506040513d601f19601f820116820180604052508101906136639190615789565b6001614173565b61012d546040516370a0823160e01b81523060048201526001600160a01b03909116906370a082319060240160206040518083038186803b1580156136ae57600080fd5b505afa1580156136c2573d6000803e3d6000fd5b505050506040513d601f19601f820116820180604052508101906128639190615789565b6000806136fd6136f88560fe5461489d565b6148ac565b905061370a816000614173565b61012d546040516370a0823160e01b81523060048201526001600160a01b03909116906370a082319060240160206040518083038186803b15801561374e57600080fd5b505afa158015613762573d6000803e3d6000fd5b505050506040513d601f19601f820116820180604052508101906137869190615789565b95945050505050565b610134546101335460405163abca0eab60e01b81526001600160a01b039182166004820152603260248201526000928392839291169063abca0eab9060440160206040518083038186803b1580156137e657600080fd5b505afa1580156137fa573d6000803e3d6000fd5b505050506040513d601f19601f8201168201806040525081019061381e9190615789565b9050670de0b6b3a76400006138338683615e31565b61383d9190615e0f565b9250670de0b6b3a7640000846138538383615e50565b61385d9190615e31565b6138679190615e0f565b9150509250929050565b61013954600090819061388c906001600160a01b0316614c46565b610138549091506000906138a8906001600160a01b0316614c46565b905061194484620f4240808585614d6a565b6000806000806138cb888888614d9f565b925092509250801561396c576040516307211ef760e01b8152600f84810b600483015283900b6024820152604481018690526001600160a01b038916906307211ef7906064015b60206040518083038186803b15801561392a57600080fd5b505afa15801561393e573d6000803e3d6000fd5b505050506040513d601f19601f820116820180604052508101906139629190615789565b9350505050611944565b604051635e0d443f60e01b8152600f84810b600483015283900b6024820152604481018690526001600160a01b03891690635e0d443f90606401613912565b6139b58282610fff565b610946576139c281614ff4565b6139cd836020615006565b6040516020016139de929190615a8e565b60408051601f198184030181529082905262461bcd60e51b825261093391600401615c48565b6001600160a01b0381163b613a715760405162461bcd60e51b815260206004820152602d60248201527f455243313936373a206e657720696d706c656d656e746174696f6e206973206e60448201526c1bdd08184818dbdb9d1c9858dd609a1b6064820152608401610933565b600080516020615f6183398151915280546001600160a01b0319166001600160a01b0392909216919091179055565b613aa9836151a2565b600082511180613ab65750805b156108c257613ac583836151e2565b50505050565b600054610100900460ff16613b365760405162461bcd60e51b815260206004820152602b60248201527f496e697469616c697a61626c653a20636f6e7472616374206973206e6f74206960448201526a6e697469616c697a696e6760a81b6064820152608401610933565b565b610139546000908190613b53906001600160a01b0316614c46565b61013854909150600090613b6f906001600160a01b0316614c46565b905061194484620f4240808486614d6a565b60405163095ea7b360e01b81526000906001600160a01b0386169063095ea7b390613bb29089908790600401615b5f565b602060405180830381600087803b158015613bcc57600080fd5b505af1158015613be0573d6000803e3d6000fd5b505050506040513d601f19601f82011682018060405250810190613c049190615753565b506000806000613c15898989614d9f565b92509250925060008115613cbd57604051635320bf6b60e11b8152600f85810b600483015284900b602482015260448101889052606481018790526001600160a01b038b169063a6417ed690608401602060405180830381600087803b158015613c7e57600080fd5b505af1158015613c92573d6000803e3d6000fd5b505050506040513d601f19601f82011682018060405250810190613cb69190615789565b9050613d53565b604051630f7c084960e21b8152600f85810b600483015284900b602482015260448101889052606481018790526001600160a01b038b1690633df0212490608401602060405180830381600087803b158015613d1857600080fd5b505af1158015613d2c573d6000803e3d6000fd5b505050506040513d601f19601f82011682018060405250810190613d509190615789565b90505b9998505050505050505050565b600080806000198587098587029250828110838203039150508060001415613d9a5760008411613d8f57600080fd5b508290049050612863565b808411613da657600080fd5b60008486880960026001871981018816978890046003810283188082028403028082028403028082028403028082028403028082028403029081029092039091026000889003889004909101858311909403939093029303949094049190911702949350505050565b6000613e19610baa565b61012f546040516370a0823160e01b81523060048201529193506001600160a01b031691506370a082319060240160206040518083038186803b158015613e5f57600080fd5b505afa158015613e73573d6000803e3d6000fd5b505050506040513d601f19601f82011682018060405250810190613e979190615789565b613ea19082615df7565b610130546040516370a0823160e01b81523060048201529192506000916001600160a01b03909116906370a082319060240160206040518083038186803b158015613eeb57600080fd5b505afa158015613eff573d6000803e3d6000fd5b505050506040513d601f19601f82011682018060405250810190613f239190615789565b90506000806000613f34600161215f565b905083851115613f9057613f52613f4b8587615e50565b600061378f565b508093505082606461013c5483613f699190615e31565b613f739190615e0f565b1015613f8b57613f8b613f868587615e50565b6152cd565b613fdd565b613fa46000613f9f8787615e50565b61378f565b61013c54909350839150606490613fbb9084615e31565b613fc59190615e0f565b1015613fdd57613fdd613fd88686615e50565b6153ec565b5050505050565b60405163095ea7b360e01b81526000906001600160a01b038a169063095ea7b390614015908d908790600401615b5f565b602060405180830381600087803b15801561402f57600080fd5b505af1158015614043573d6000803e3d6000fd5b505050506040513d601f19601f820116820180604052508101906140679190615753565b50604080516080810182526bffffffffffffffffffffffff1960608c811b821660a08401526001600160e81b031960e88b811b821660b48601528d831b841660b78601528a901b1660cb8401528a811b90911660ce830152825180830360c201815260e28301845282526001600160a01b038781166020840152828401879052908201859052915163b858183f60e01b815290918c169063b858183f90614112908490600401615d78565b602060405180830381600087803b15801561412c57600080fd5b505af1158015614140573d6000803e3d6000fd5b505050506040513d601f19601f820116820180604052508101906141649190615789565b9b9a5050505050505050505050565b61013d54610133546040516310ee444960e01b81526001600160a01b03928316926310ee4449926141ab929116908690600401615b5f565b600060405180830381600087803b1580156141c557600080fd5b505af11580156141d9573d6000803e3d6000fd5b5050610131546101335460405163b7d75b8b60e01b81523060048201526001600160a01b0391821660248201526044810187905260006064820181905260848201529116925063b7d75b8b915060a4016040805180830381600087803b15801561424257600080fd5b505af1158015614256573d6000803e3d6000fd5b505050506040513d601f19601f8201168201806040525081019061427a91906158c7565b5050610130546040516370a0823160e01b81523060048201526000916001600160a01b0316906370a082319060240160206040518083038186803b1580156142c157600080fd5b505afa1580156142d5573d6000803e3d6000fd5b505050506040513d601f19601f820116820180604052508101906142f99190615789565b61012f546040516370a0823160e01b81523060048201526001600160a01b03909116906370a082319060240160206040518083038186803b15801561433d57600080fd5b505afa158015614351573d6000803e3d6000fd5b505050506040513d601f19601f820116820180604052508101906143759190615789565b106143fb57610130546040516370a0823160e01b81523060048201526001600160a01b03909116906370a082319060240160206040518083038186803b1580156143be57600080fd5b505afa1580156143d2573d6000803e3d6000fd5b505050506040513d601f19601f820116820180604052508101906143f69190615789565b614477565b61012f546040516370a0823160e01b81523060048201526001600160a01b03909116906370a082319060240160206040518083038186803b15801561443f57600080fd5b505afa158015614453573d6000803e3d6000fd5b505050506040513d601f19601f820116820180604052508101906144779190615789565b9050600060405180608001604052806000600381111561449957614499615edb565b815260200160006001600160a01b031681526020016040516024016144c990602080825260009082015260400190565b60408051601f19818403018152918152602080830180516001600160e01b031663c5d2460160e01b1790529183526000928201839052805160c08101825261012e546001600160a01b039081168083529382018590528183019390935260608101849052608081019390935260a083018490526101315461013054915163527df19960e01b815294955092939282169263527df1999261457492309291169088908790600401615b03565b602060405180830381600087803b15801561458e57600080fd5b505af11580156145a2573d6000803e3d6000fd5b505050506040513d601f19601f820116820180604052508101906145c69190615789565b5050505080156146cc5761012f546040516370a0823160e01b815230600482015261464e916001600160a01b0316906370a082319060240160206040518083038186803b15801561461657600080fd5b505afa15801561462a573d6000803e3d6000fd5b505050506040513d601f19601f82011682018060405250810190613f869190615789565b610130546040516370a0823160e01b81523060048201526146cc916001600160a01b0316906370a082319060240160206040518083038186803b15801561469457600080fd5b505afa1580156146a8573d6000803e3d6000fd5b505050506040513d601f19601f82011682018060405250810190613fd89190615789565b610132546040516370a0823160e01b815230600482018190526001600160a01b039092169163769f8e5d9183906370a082319060240160206040518083038186803b15801561471a57600080fd5b505afa15801561472e573d6000803e3d6000fd5b505050506040513d601f19601f820116820180604052508101906147529190615789565b61012e5460405160e085901b6001600160e01b03191681526001600160a01b0393841660048201526024810192909252919091166044820152600060648201819052608482015260a401602060405180830381600087803b1580156147b657600080fd5b505af11580156147ca573d6000803e3d6000fd5b505050506040513d601f19601f820116820180604052508101906147ee9190615789565b5061012e546040516370a0823160e01b81523060048201526000916001600160a01b0316906370a082319060240160206040518083038186803b15801561483457600080fd5b505afa158015614848573d6000803e3d6000fd5b505050506040513d601f19601f8201168201806040525081019061486c9190615789565b6101375461012e5461012d54929350613ac5926001600160a01b039283169291821691168461298a61298282613871565b600061271061284f8382615df7565b60008060008061013360009054906101000a90046001600160a01b03166001600160a01b031663c3fb90d66040518163ffffffff1660e01b815260040160c06040518083038186803b15801561490157600080fd5b505afa158015614915573d6000803e3d6000fd5b505050506040513d601f19601f8201168201806040525081019061493991906157fc565b805160209182015161013354604080516318160ddd60e01b815290516001600160801b039485169850939092169550600094506001600160a01b0316926318160ddd92600480840193829003018186803b15801561499657600080fd5b505afa1580156149aa573d6000803e3d6000fd5b505050506040513d601f19601f820116820180604052508101906149ce9190615789565b9050600061013560009054906101000a90046001600160a01b03166001600160a01b03166315770f926040518163ffffffff1660e01b815260040160206040518083038186803b158015614a2157600080fd5b505afa158015614a35573d6000803e3d6000fd5b505050506040513d601f19601f82011682018060405250810190614a599190615789565b9050600061013560009054906101000a90046001600160a01b03166001600160a01b03166318160ddd6040518163ffffffff1660e01b815260040160206040518083038186803b158015614aac57600080fd5b505afa158015614ac0573d6000803e3d6000fd5b505050506040513d601f19601f82011682018060405250810190614ae49190615789565b9050600083614af687620f4240615e31565b614b009190615e0f565b828585614b1089620f4240615e31565b614b1a9190615e31565b614b249190615e0f565b614b2e9190615e0f565b614b389190615df7565b90506000828585614b4c89620f4240615e31565b614b569190615e31565b614b609190615e0f565b614b6a9190615e0f565b9050600082614b7c8b620f4240615e31565b614b869190615e0f565b610130546040516370a0823160e01b815230600482015291925060009184916001600160a01b0316906370a082319060240160206040518083038186803b158015614bd057600080fd5b505afa158015614be4573d6000803e3d6000fd5b505050506040513d601f19601f82011682018060405250810190614c089190615789565b614c12908d615e50565b614c1f90620f4240615e31565b614c299190615e0f565b9050808211614c385780614164565b509998505050505050505050565b6000806000806000856001600160a01b031663feaf968c6040518163ffffffff1660e01b815260040160a06040518083038186803b158015614c8757600080fd5b505afa158015614c9b573d6000803e3d6000fd5b505050506040513d601f19601f82011682018060405250810190614cbf9190615945565b9450945050935093508369ffffffffffffffffffff168169ffffffffffffffffffff161015614d1b5760405162461bcd60e51b81526020600482015260086024820152674f6c64206461746160c01b6044820152606401610933565b60008211614d605760405162461bcd60e51b8152602060048201526012602482015271526f756e64206e6f7420636f6d706c65746560701b6044820152606401610933565b5090949350505050565b6000614d768286615e31565b83614d818689615e31565b614d8b9190615e31565b614d959190615e0f565b9695505050505050565b6000808060016001607f1b0380825b6000614dba8a836154b9565b90506001600160a01b038116614dd05750614e23565b886001600160a01b0316816001600160a01b03161415614df257819350614e10565b876001600160a01b0316816001600160a01b03161415614e10578192505b81614e1a81615eaa565b92505050614dae565b600f83900b60016001607f1b0314801590614e495750600f82900b60016001607f1b0314155b15614e5d5750909350915060009050614feb565b600f83900b60016001607f1b03141580614e825750600f82900b60016001607f1b0314155b15614edb5760405162461bcd60e51b815260206004820152602360248201527f437572766553503a20696e636f727265637420746f6b656e207061697220736560448201526207475760ec1b6064820152608401610933565b5060005b6000614eeb8a83615546565b90506001600160a01b038116614f015750614f54565b886001600160a01b0316816001600160a01b03161415614f2357819350614f41565b876001600160a01b0316816001600160a01b03161415614f41578192505b81614f4b81615eaa565b92505050614edf565b600f83900b60016001607f1b0314801590614f7a5750600f82900b60016001607f1b0314155b15614f8e5750909350915060019050614feb565b60405162461bcd60e51b815260206004820152602c60248201527f437572766553503a2043616e27742066696e6420696e64657820666f7220746f60448201526b1ad95b9cc81a5b881c1bdbdb60a21b6064820152608401610933565b93509350939050565b60606108866001600160a01b03831660145b60606000615015836002615e31565b615020906002615df7565b67ffffffffffffffff81111561503857615038615f07565b6040519080825280601f01601f191660200182016040528015615062576020820181803683370190505b509050600360fc1b8160008151811061507d5761507d615ef1565b60200101906001600160f81b031916908160001a905350600f60fb1b816001815181106150ac576150ac615ef1565b60200101906001600160f81b031916908160001a90535060006150d0846002615e31565b6150db906001615df7565b90505b6001811115615153576f181899199a1a9b1b9c1cb0b131b232b360811b85600f166010811061510f5761510f615ef1565b1a60f81b82828151811061512557615125615ef1565b60200101906001600160f81b031916908160001a90535060049490941c9361514c81615e93565b90506150de565b5083156128635760405162461bcd60e51b815260206004820181905260248201527f537472696e67733a20686578206c656e67746820696e73756666696369656e746044820152606401610933565b6151ab81613a04565b6040516001600160a01b038216907fbc7cd75a20ee27fd9adebab32041f755214dbc6bffa90cc0225b39da2e5c2d3b90600090a250565b60606001600160a01b0383163b61524a5760405162461bcd60e51b815260206004820152602660248201527f416464726573733a2064656c65676174652063616c6c20746f206e6f6e2d636f6044820152651b9d1c9858dd60d21b6064820152608401610933565b600080846001600160a01b0316846040516152659190615a72565b600060405180830381855af49150503d80600081146152a0576040519150601f19603f3d011682016040523d82523d6000602084013e6152a5565b606091505b50915091506137868282604051806060016040528060278152602001615f8160279139615576565b600081118015615358575061012f546040516370a0823160e01b81523060048201526001600160a01b03909116906370a082319060240160206040518083038186803b15801561531c57600080fd5b505afa158015615330573d6000803e3d6000fd5b505050506040513d601f19601f820116820180604052508101906153549190615789565b8111155b15610a27576101315461013354604051632032aecd60e01b81526001600160a01b0392831692632032aecd9261539b923092909116908690600090600401615b36565b6040805180830381600087803b1580156153b457600080fd5b505af11580156153c8573d6000803e3d6000fd5b505050506040513d601f19601f820116820180604052508101906108c291906158c7565b6000811180156154775750610130546040516370a0823160e01b81523060048201526001600160a01b03909116906370a082319060240160206040518083038186803b15801561543b57600080fd5b505afa15801561544f573d6000803e3d6000fd5b505050506040513d601f19601f820116820180604052508101906154739190615789565b8111155b15610a2757610131546101335460405162d5f59560e61b81526001600160a01b039283169263357d65409261539b923092909116908690600090600401615b36565b60405163c661065760e01b8152600481018290526000906001600160a01b0384169063c6610657906024015b60206040518083038186803b1580156154fd57600080fd5b505afa92505050801561552d575060408051601f3d908101601f1916820190925261552a9181019061560f565b60015b6155365761553d565b9050610886565b50600092915050565b604051630b9947eb60e41b8152600481018290526000906001600160a01b0384169063b9947eb0906024016154e5565b60608315615585575081612863565b612863838381511561559a5781518083602001fd5b8060405162461bcd60e51b81526004016109339190615c48565b8051600f81900b811461167c57600080fd5b805161ffff8116811461167c57600080fd5b805169ffffffffffffffffffff8116811461167c57600080fd5b60006020828403121561560457600080fd5b813561286381615f1d565b60006020828403121561562157600080fd5b815161286381615f1d565b6000806040838503121561563f57600080fd5b823561564a81615f1d565b915060208381013567ffffffffffffffff8082111561566857600080fd5b818601915086601f83011261567c57600080fd5b81358181111561568e5761568e615f07565b6156a0601f8201601f19168501615dc6565b915080825287848285010111156156b657600080fd5b80848401858401376000848284010152508093505050509250929050565b600080604083850312156156e757600080fd5b82356156f281615f1d565b946020939093013593505050565b6000806000806080858703121561571657600080fd5b843561572181615f1d565b935060208501359250604085013561573881615f1d565b9150606085013561574881615f32565b939692955090935050565b60006020828403121561576557600080fd5b815161286381615f32565b60006020828403121561578257600080fd5b5035919050565b60006020828403121561579b57600080fd5b5051919050565b600080604083850312156157b557600080fd5b8235915060208301356157c781615f1d565b809150509250929050565b6000602082840312156157e457600080fd5b81356001600160e01b03198116811461286357600080fd5b600060c0828403121561580e57600080fd5b60405160c0810181811067ffffffffffffffff8211171561583157615831615f07565b60405261583d836155b4565b815261584b602084016155b4565b602082015260408301516bffffffffffffffffffffffff8116811461586f57600080fd5b6040820152615880606084016155c6565b6060820152615891608084016155c6565b60808201526158a260a084016155c6565b60a08201529392505050565b60006101e082840312156158c157600080fd5b50919050565b600080604083850312156158da57600080fd5b505080516020909101519092909150565b60008060006060848603121561590057600080fd5b505081359360208301359350604090920135919050565b60008060006060848603121561592c57600080fd5b8351925060208401519150604084015190509250925092565b600080600080600060a0868803121561595d57600080fd5b615966866155d8565b9450602086015193506040860151925060608601519150615989608087016155d8565b90509295509295909350565b600081518084526159ad816020860160208601615e67565b601f01601f19169290920160200192915050565b600060018060a01b038083511684526020830151602085015280604084015116604085015280606084015116606085015280608084015116608085015260a083015160c060a0860152805160048110615a2a57634e487b7160e01b600052602160045260246000fd5b60c0860152602081015190911660e08501526040810151608061010086015290615a58610140860183615995565b915060608101511515610120860152508091505092915050565b60008251615a84818460208701615e67565b9190910192915050565b7f416363657373436f6e74726f6c3a206163636f756e7420000000000000000000815260008351615ac6816017850160208801615e67565b7001034b99036b4b9b9b4b733903937b6329607d1b6017918401918201528351615af7816028840160208801615e67565b01602801949350505050565b6001600160a01b0385811682528416602082015260408101839052608060608201819052600090614d95908301846159c1565b6001600160a01b0394851681529290931660208301526040820152606081019190915260800190565b6001600160a01b03929092168252602082015260400190565b604080825283519082018190526000906020906060840190828701845b82811015615bba5781516001600160a01b031684529284019290840190600101615b95565b50505083810382850152845180825282820190600581901b8301840187850160005b83811015615c3957858303601f1901855281518051808552908801908885019060005b81811015615c245783516001600160a01b03168352928a0192918a0191600101615bff565b50509588019593505090860190600101615bdc565b50909998505050505050505050565b6020815260006128636020830184615995565b6020808252601f908201527f5265737472696374656420746f20504f5254464f4c494f5f4d414e4147455200604082015260600190565b6020808252602c908201527f46756e6374696f6e206d7573742062652063616c6c6564207468726f7567682060408201526b19195b1959d85d1958d85b1b60a21b606082015260800190565b6020808252602c908201527f46756e6374696f6e206d7573742062652063616c6c6564207468726f7567682060408201526b6163746976652070726f787960a01b606082015260800190565b6020808252602e908201527f496e697469616c697a61626c653a20636f6e747261637420697320616c72656160408201526d191e481a5b9a5d1a585b1a5e995960921b606082015260800190565b602081526000825160806020840152615d9460a0840182615995565b905060018060a01b03602085015116604084015260408401516060840152606084015160808401528091505092915050565b604051601f8201601f1916810167ffffffffffffffff81118282101715615def57615def615f07565b604052919050565b60008219821115615e0a57615e0a615ec5565b500190565b600082615e2c57634e487b7160e01b600052601260045260246000fd5b500490565b6000816000190483118215151615615e4b57615e4b615ec5565b500290565b600082821015615e6257615e62615ec5565b500390565b60005b83811015615e82578181015183820152602001615e6a565b83811115613ac55750506000910152565b600081615ea257615ea2615ec5565b506000190190565b6000600019821415615ebe57615ebe615ec5565b5060010190565b634e487b7160e01b600052601160045260246000fd5b634e487b7160e01b600052602160045260246000fd5b634e487b7160e01b600052603260045260246000fd5b634e487b7160e01b600052604160045260246000fd5b6001600160a01b0381168114610a2757600080fd5b8015158114610a2757600080fdfe90c2aa7471c04182221f68e80c07ab1e5946e4c63f8693e14ca40385d529f051360894a13ba1a3210667c828492db98dca3e2076cc3735a920a3ca505d382bbc416464726573733a206c6f772d6c6576656c2064656c65676174652063616c6c206661696c6564a26469706673582212206cb0c0037d771b026e02487164a650ddbe65faae45cf00ac28cccf45eb35d12564736f6c63430008060033",
  "implementation": "0xF73b0D870836B0914B7fA24D44231F5a7F54c304",
  "devdoc": {
    "kind": "dev",
    "methods": {
      "constructor": {
        "custom:oz-upgrades-unsafe-allow": "constructor"
      },
      "getRoleAdmin(bytes32)": {
        "details": "Returns the admin role that controls `role`. See {grantRole} and {revokeRole}. To change a role's admin, use {_setRoleAdmin}."
      },
      "grantRole(bytes32,address)": {
        "details": "Grants `role` to `account`. If `account` had not been already granted `role`, emits a {RoleGranted} event. Requirements: - the caller must have ``role``'s admin role. May emit a {RoleGranted} event."
      },
      "hasRole(bytes32,address)": {
        "details": "Returns `true` if `account` has been granted `role`."
      },
      "proxiableUUID()": {
        "details": "Implementation of the ERC1822 {proxiableUUID} function. This returns the storage slot used by the implementation. It is used to validate the implementation's compatibility when performing an upgrade. IMPORTANT: A proxy pointing at a proxiable contract should not be considered proxiable itself, because this risks bricking a proxy that upgrades to it, by delegating to itself until out of gas. Thus it is critical that this function revert if invoked through a proxy. This is guaranteed by the `notDelegated` modifier."
      },
      "renounceRole(bytes32,address)": {
        "details": "Revokes `role` from the calling account. Roles are often managed via {grantRole} and {revokeRole}: this function's purpose is to provide a mechanism for accounts to lose their privileges if they are compromised (such as when a trusted device is misplaced). If the calling account had been revoked `role`, emits a {RoleRevoked} event. Requirements: - the caller must be `account`. May emit a {RoleRevoked} event."
      },
      "revokeRole(bytes32,address)": {
        "details": "Revokes `role` from `account`. If `account` had been granted `role`, emits a {RoleRevoked} event. Requirements: - the caller must have ``role``'s admin role. May emit a {RoleRevoked} event."
      },
      "supportsInterface(bytes4)": {
        "details": "See {IERC165-supportsInterface}."
      },
      "upgradeTo(address)": {
        "details": "Upgrade the implementation of the proxy to `newImplementation`. Calls {_authorizeUpgrade}. Emits an {Upgraded} event."
      },
      "upgradeToAndCall(address,bytes)": {
        "details": "Upgrade the implementation of the proxy to `newImplementation`, and subsequently execute the function call encoded in `data`. Calls {_authorizeUpgrade}. Emits an {Upgraded} event."
      }
    },
    "version": 1
  },
  "userdoc": {
    "kind": "user",
    "methods": {},
    "version": 1
  },
  "storageLayout": {
    "storage": [
      {
        "astId": 804,
        "contract": "contracts/StrategyPendleUsdcUsdt.sol:StrategyPendleUsdcUsdt",
        "label": "_initialized",
        "offset": 0,
        "slot": "0",
        "type": "t_uint8"
      },
      {
        "astId": 807,
        "contract": "contracts/StrategyPendleUsdcUsdt.sol:StrategyPendleUsdcUsdt",
        "label": "_initializing",
        "offset": 1,
        "slot": "0",
        "type": "t_bool"
      },
      {
        "astId": 1427,
        "contract": "contracts/StrategyPendleUsdcUsdt.sol:StrategyPendleUsdcUsdt",
        "label": "__gap",
        "offset": 0,
        "slot": "1",
        "type": "t_array(t_uint256)50_storage"
      },
      {
        "astId": 1706,
        "contract": "contracts/StrategyPendleUsdcUsdt.sol:StrategyPendleUsdcUsdt",
        "label": "__gap",
        "offset": 0,
        "slot": "51",
        "type": "t_array(t_uint256)50_storage"
      },
      {
        "astId": 39,
        "contract": "contracts/StrategyPendleUsdcUsdt.sol:StrategyPendleUsdcUsdt",
        "label": "_roles",
        "offset": 0,
        "slot": "101",
        "type": "t_mapping(t_bytes32,t_struct(RoleData)34_storage)"
      },
      {
        "astId": 334,
        "contract": "contracts/StrategyPendleUsdcUsdt.sol:StrategyPendleUsdcUsdt",
        "label": "__gap",
        "offset": 0,
        "slot": "102",
        "type": "t_array(t_uint256)49_storage"
      },
      {
        "astId": 786,
        "contract": "contracts/StrategyPendleUsdcUsdt.sol:StrategyPendleUsdcUsdt",
        "label": "__gap",
        "offset": 0,
        "slot": "151",
        "type": "t_array(t_uint256)50_storage"
      },
      {
        "astId": 1101,
        "contract": "contracts/StrategyPendleUsdcUsdt.sol:StrategyPendleUsdcUsdt",
        "label": "__gap",
        "offset": 0,
        "slot": "201",
        "type": "t_array(t_uint256)50_storage"
      },
      {
        "astId": 7303,
        "contract": "contracts/StrategyPendleUsdcUsdt.sol:StrategyPendleUsdcUsdt",
        "label": "portfolioManager",
        "offset": 0,
        "slot": "251",
        "type": "t_address"
      },
      {
        "astId": 7305,
        "contract": "contracts/StrategyPendleUsdcUsdt.sol:StrategyPendleUsdcUsdt",
        "label": "swapSlippageBP",
        "offset": 0,
        "slot": "252",
        "type": "t_uint256"
      },
      {
        "astId": 7307,
        "contract": "contracts/StrategyPendleUsdcUsdt.sol:StrategyPendleUsdcUsdt",
        "label": "navSlippageBP",
        "offset": 0,
        "slot": "253",
        "type": "t_uint256"
      },
      {
        "astId": 7309,
        "contract": "contracts/StrategyPendleUsdcUsdt.sol:StrategyPendleUsdcUsdt",
        "label": "stakeSlippageBP",
        "offset": 0,
        "slot": "254",
        "type": "t_uint256"
      },
      {
        "astId": 7694,
        "contract": "contracts/StrategyPendleUsdcUsdt.sol:StrategyPendleUsdcUsdt",
        "label": "__gap",
        "offset": 0,
        "slot": "255",
        "type": "t_array(t_uint256)46_storage"
      },
      {
        "astId": 7819,
        "contract": "contracts/StrategyPendleUsdcUsdt.sol:StrategyPendleUsdcUsdt",
        "label": "usdc",
        "offset": 0,
        "slot": "301",
        "type": "t_contract(IERC20)2662"
      },
      {
        "astId": 7822,
        "contract": "contracts/StrategyPendleUsdcUsdt.sol:StrategyPendleUsdcUsdt",
        "label": "usdt",
        "offset": 0,
        "slot": "302",
        "type": "t_contract(IERC20)2662"
      },
      {
        "astId": 7825,
        "contract": "contracts/StrategyPendleUsdcUsdt.sol:StrategyPendleUsdcUsdt",
        "label": "pt",
        "offset": 0,
        "slot": "303",
        "type": "t_contract(IERC20)2662"
      },
      {
        "astId": 7828,
        "contract": "contracts/StrategyPendleUsdcUsdt.sol:StrategyPendleUsdcUsdt",
        "label": "yt",
        "offset": 0,
        "slot": "304",
        "type": "t_contract(IERC20)2662"
      },
      {
        "astId": 7831,
        "contract": "contracts/StrategyPendleUsdcUsdt.sol:StrategyPendleUsdcUsdt",
        "label": "pendleRouter",
        "offset": 0,
        "slot": "305",
        "type": "t_contract(IPendleRouter)4710"
      },
      {
        "astId": 7834,
        "contract": "contracts/StrategyPendleUsdcUsdt.sol:StrategyPendleUsdcUsdt",
        "label": "sy",
        "offset": 0,
        "slot": "306",
        "type": "t_contract(IPendleStargateLPSY)4755"
      },
      {
        "astId": 7837,
        "contract": "contracts/StrategyPendleUsdcUsdt.sol:StrategyPendleUsdcUsdt",
        "label": "lp",
        "offset": 0,
        "slot": "307",
        "type": "t_contract(IPendleMarket)4783"
      },
      {
        "astId": 7840,
        "contract": "contracts/StrategyPendleUsdcUsdt.sol:StrategyPendleUsdcUsdt",
        "label": "ptOracle",
        "offset": 0,
        "slot": "308",
        "type": "t_contract(IPendlePtOracle)4817"
      },
      {
        "astId": 7842,
        "contract": "contracts/StrategyPendleUsdcUsdt.sol:StrategyPendleUsdcUsdt",
        "label": "stargateUsdtAddress",
        "offset": 0,
        "slot": "309",
        "type": "t_address"
      },
      {
        "astId": 7845,
        "contract": "contracts/StrategyPendleUsdcUsdt.sol:StrategyPendleUsdcUsdt",
        "label": "uniswapV3Router",
        "offset": 0,
        "slot": "310",
        "type": "t_contract(ISwapRouter)5229"
      },
      {
        "astId": 7847,
        "contract": "contracts/StrategyPendleUsdcUsdt.sol:StrategyPendleUsdcUsdt",
        "label": "curvePool",
        "offset": 0,
        "slot": "311",
        "type": "t_address"
      },
      {
        "astId": 7850,
        "contract": "contracts/StrategyPendleUsdcUsdt.sol:StrategyPendleUsdcUsdt",
        "label": "oracleUsdc",
        "offset": 0,
        "slot": "312",
        "type": "t_contract(IPriceFeed)2870"
      },
      {
        "astId": 7853,
        "contract": "contracts/StrategyPendleUsdcUsdt.sol:StrategyPendleUsdcUsdt",
        "label": "oracleUsdt",
        "offset": 0,
        "slot": "313",
        "type": "t_contract(IPriceFeed)2870"
      },
      {
        "astId": 7856,
        "contract": "contracts/StrategyPendleUsdcUsdt.sol:StrategyPendleUsdcUsdt",
        "label": "stg",
        "offset": 0,
        "slot": "314",
        "type": "t_contract(IERC20)2662"
      },
      {
        "astId": 7859,
        "contract": "contracts/StrategyPendleUsdcUsdt.sol:StrategyPendleUsdcUsdt",
        "label": "pendle",
        "offset": 0,
        "slot": "315",
        "type": "t_contract(IERC20)2662"
      },
      {
        "astId": 7861,
        "contract": "contracts/StrategyPendleUsdcUsdt.sol:StrategyPendleUsdcUsdt",
        "label": "thresholdBalancePercent",
        "offset": 0,
        "slot": "316",
        "type": "t_uint256"
      },
      {
        "astId": 7864,
        "contract": "contracts/StrategyPendleUsdcUsdt.sol:StrategyPendleUsdcUsdt",
        "label": "depositHelperMgp",
        "offset": 0,
        "slot": "317",
        "type": "t_contract(PendleMarketDepositHelper)4532"
      },
      {
        "astId": 7867,
        "contract": "contracts/StrategyPendleUsdcUsdt.sol:StrategyPendleUsdcUsdt",
        "label": "masterMgp",
        "offset": 0,
        "slot": "318",
        "type": "t_contract(MasterMagpie)4502"
      }
    ],
    "types": {
      "t_address": {
        "encoding": "inplace",
        "label": "address",
        "numberOfBytes": "20"
      },
      "t_array(t_uint256)46_storage": {
        "base": "t_uint256",
        "encoding": "inplace",
        "label": "uint256[46]",
        "numberOfBytes": "1472"
      },
      "t_array(t_uint256)49_storage": {
        "base": "t_uint256",
        "encoding": "inplace",
        "label": "uint256[49]",
        "numberOfBytes": "1568"
      },
      "t_array(t_uint256)50_storage": {
        "base": "t_uint256",
        "encoding": "inplace",
        "label": "uint256[50]",
        "numberOfBytes": "1600"
      },
      "t_bool": {
        "encoding": "inplace",
        "label": "bool",
        "numberOfBytes": "1"
      },
      "t_bytes32": {
        "encoding": "inplace",
        "label": "bytes32",
        "numberOfBytes": "32"
      },
      "t_contract(IERC20)2662": {
        "encoding": "inplace",
        "label": "contract IERC20",
        "numberOfBytes": "20"
      },
      "t_contract(IPendleMarket)4783": {
        "encoding": "inplace",
        "label": "contract IPendleMarket",
        "numberOfBytes": "20"
      },
      "t_contract(IPendlePtOracle)4817": {
        "encoding": "inplace",
        "label": "contract IPendlePtOracle",
        "numberOfBytes": "20"
      },
      "t_contract(IPendleRouter)4710": {
        "encoding": "inplace",
        "label": "contract IPendleRouter",
        "numberOfBytes": "20"
      },
      "t_contract(IPendleStargateLPSY)4755": {
        "encoding": "inplace",
        "label": "contract IPendleStargateLPSY",
        "numberOfBytes": "20"
      },
      "t_contract(IPriceFeed)2870": {
        "encoding": "inplace",
        "label": "contract IPriceFeed",
        "numberOfBytes": "20"
      },
      "t_contract(ISwapRouter)5229": {
        "encoding": "inplace",
        "label": "contract ISwapRouter",
        "numberOfBytes": "20"
      },
      "t_contract(MasterMagpie)4502": {
        "encoding": "inplace",
        "label": "contract MasterMagpie",
        "numberOfBytes": "20"
      },
      "t_contract(PendleMarketDepositHelper)4532": {
        "encoding": "inplace",
        "label": "contract PendleMarketDepositHelper",
        "numberOfBytes": "20"
      },
      "t_mapping(t_address,t_bool)": {
        "encoding": "mapping",
        "key": "t_address",
        "label": "mapping(address => bool)",
        "numberOfBytes": "32",
        "value": "t_bool"
      },
      "t_mapping(t_bytes32,t_struct(RoleData)34_storage)": {
        "encoding": "mapping",
        "key": "t_bytes32",
        "label": "mapping(bytes32 => struct AccessControlUpgradeable.RoleData)",
        "numberOfBytes": "32",
        "value": "t_struct(RoleData)34_storage"
      },
      "t_struct(RoleData)34_storage": {
        "encoding": "inplace",
        "label": "struct AccessControlUpgradeable.RoleData",
        "members": [
          {
            "astId": 31,
            "contract": "contracts/StrategyPendleUsdcUsdt.sol:StrategyPendleUsdcUsdt",
            "label": "members",
            "offset": 0,
            "slot": "0",
            "type": "t_mapping(t_address,t_bool)"
          },
          {
            "astId": 33,
            "contract": "contracts/StrategyPendleUsdcUsdt.sol:StrategyPendleUsdcUsdt",
            "label": "adminRole",
            "offset": 0,
            "slot": "1",
            "type": "t_bytes32"
          }
        ],
        "numberOfBytes": "64"
      },
      "t_uint256": {
        "encoding": "inplace",
        "label": "uint256",
        "numberOfBytes": "32"
      },
      "t_uint8": {
        "encoding": "inplace",
        "label": "uint8",
        "numberOfBytes": "1"
      }
    }
  }
}