{
  "address": "0xE92D7F8865a2d6484114FC5882b8d1599f7487ad",
  "abi": [
    {
      "inputs": [],
      "stateMutability": "nonpayable",
      "type": "constructor"
    },
    {
      "anonymous": false,
      "inputs": [
        {
          "indexed": false,
          "internalType": "address",
          "name": "previousAdmin",
          "type": "address"
        },
        {
          "indexed": false,
          "internalType": "address",
          "name": "newAdmin",
          "type": "address"
        }
      ],
      "name": "AdminChanged",
      "type": "event"
    },
    {
      "anonymous": false,
      "inputs": [
        {
          "indexed": true,
          "internalType": "address",
          "name": "beacon",
          "type": "address"
        }
      ],
      "name": "BeaconUpgraded",
      "type": "event"
    },
    {
      "anonymous": false,
      "inputs": [
        {
          "indexed": false,
          "internalType": "uint8",
          "name": "version",
          "type": "uint8"
        }
      ],
      "name": "Initialized",
      "type": "event"
    },
    {
      "anonymous": false,
      "inputs": [
        {
          "indexed": false,
          "internalType": "address",
          "name": "value",
          "type": "address"
        }
      ],
      "name": "PortfolioManagerUpdated",
      "type": "event"
    },
    {
      "anonymous": false,
      "inputs": [
        {
          "indexed": false,
          "internalType": "uint256",
          "name": "amount",
          "type": "uint256"
        }
      ],
      "name": "Reward",
      "type": "event"
    },
    {
      "anonymous": false,
      "inputs": [
        {
          "indexed": true,
          "internalType": "bytes32",
          "name": "role",
          "type": "bytes32"
        },
        {
          "indexed": true,
          "internalType": "bytes32",
          "name": "previousAdminRole",
          "type": "bytes32"
        },
        {
          "indexed": true,
          "internalType": "bytes32",
          "name": "newAdminRole",
          "type": "bytes32"
        }
      ],
      "name": "RoleAdminChanged",
      "type": "event"
    },
    {
      "anonymous": false,
      "inputs": [
        {
          "indexed": true,
          "internalType": "bytes32",
          "name": "role",
          "type": "bytes32"
        },
        {
          "indexed": true,
          "internalType": "address",
          "name": "account",
          "type": "address"
        },
        {
          "indexed": true,
          "internalType": "address",
          "name": "sender",
          "type": "address"
        }
      ],
      "name": "RoleGranted",
      "type": "event"
    },
    {
      "anonymous": false,
      "inputs": [
        {
          "indexed": true,
          "internalType": "bytes32",
          "name": "role",
          "type": "bytes32"
        },
        {
          "indexed": true,
          "internalType": "address",
          "name": "account",
          "type": "address"
        },
        {
          "indexed": true,
          "internalType": "address",
          "name": "sender",
          "type": "address"
        }
      ],
      "name": "RoleRevoked",
      "type": "event"
    },
    {
      "anonymous": false,
      "inputs": [
        {
          "indexed": false,
          "internalType": "uint256",
          "name": "swapSlippageBP",
          "type": "uint256"
        },
        {
          "indexed": false,
          "internalType": "uint256",
          "name": "navSlippageBP",
          "type": "uint256"
        },
        {
          "indexed": false,
          "internalType": "uint256",
          "name": "stakeSlippageBP",
          "type": "uint256"
        }
      ],
      "name": "SlippagesUpdated",
      "type": "event"
    },
    {
      "anonymous": false,
      "inputs": [
        {
          "indexed": false,
          "internalType": "uint256",
          "name": "amount",
          "type": "uint256"
        }
      ],
      "name": "Stake",
      "type": "event"
    },
    {
      "anonymous": false,
      "inputs": [],
      "name": "StrategyUpdatedParams",
      "type": "event"
    },
    {
      "anonymous": false,
      "inputs": [
        {
          "indexed": false,
          "internalType": "uint256",
          "name": "amount",
          "type": "uint256"
        },
        {
          "indexed": false,
          "internalType": "uint256",
          "name": "amountReceived",
          "type": "uint256"
        }
      ],
      "name": "Unstake",
      "type": "event"
    },
    {
      "anonymous": false,
      "inputs": [
        {
          "indexed": true,
          "internalType": "address",
          "name": "implementation",
          "type": "address"
        }
      ],
      "name": "Upgraded",
      "type": "event"
    },
    {
      "inputs": [],
      "name": "DEFAULT_ADMIN_ROLE",
      "outputs": [
        {
          "internalType": "bytes32",
          "name": "",
          "type": "bytes32"
        }
      ],
      "stateMutability": "view",
      "type": "function"
    },
    {
      "inputs": [],
      "name": "PORTFOLIO_AGENT_ROLE",
      "outputs": [
        {
          "internalType": "bytes32",
          "name": "",
          "type": "bytes32"
        }
      ],
      "stateMutability": "view",
      "type": "function"
    },
    {
      "inputs": [],
      "name": "PORTFOLIO_MANAGER",
      "outputs": [
        {
          "internalType": "bytes32",
          "name": "",
          "type": "bytes32"
        }
      ],
      "stateMutability": "view",
      "type": "function"
    },
    {
      "inputs": [
        {
          "internalType": "address",
          "name": "_to",
          "type": "address"
        }
      ],
      "name": "claimRewards",
      "outputs": [
        {
          "internalType": "uint256",
          "name": "",
          "type": "uint256"
        }
      ],
      "stateMutability": "nonpayable",
      "type": "function"
    },
    {
      "inputs": [],
      "name": "curvePool",
      "outputs": [
        {
          "internalType": "address",
          "name": "",
          "type": "address"
        }
      ],
      "stateMutability": "view",
      "type": "function"
    },
    {
      "inputs": [],
      "name": "gauge",
      "outputs": [
        {
          "internalType": "contract ISterlingGauge",
          "name": "",
          "type": "address"
        }
      ],
      "stateMutability": "view",
      "type": "function"
    },
    {
      "inputs": [
        {
          "internalType": "bytes32",
          "name": "role",
          "type": "bytes32"
        }
      ],
      "name": "getRoleAdmin",
      "outputs": [
        {
          "internalType": "bytes32",
          "name": "",
          "type": "bytes32"
        }
      ],
      "stateMutability": "view",
      "type": "function"
    },
    {
      "inputs": [
        {
          "internalType": "bytes32",
          "name": "role",
          "type": "bytes32"
        },
        {
          "internalType": "address",
          "name": "account",
          "type": "address"
        }
      ],
      "name": "grantRole",
      "outputs": [],
      "stateMutability": "nonpayable",
      "type": "function"
    },
    {
      "inputs": [
        {
          "internalType": "bytes32",
          "name": "role",
          "type": "bytes32"
        },
        {
          "internalType": "address",
          "name": "account",
          "type": "address"
        }
      ],
      "name": "hasRole",
      "outputs": [
        {
          "internalType": "bool",
          "name": "",
          "type": "bool"
        }
      ],
      "stateMutability": "view",
      "type": "function"
    },
    {
      "inputs": [],
      "name": "initialize",
      "outputs": [],
      "stateMutability": "nonpayable",
      "type": "function"
    },
    {
      "inputs": [],
      "name": "liquidationValue",
      "outputs": [
        {
          "internalType": "uint256",
          "name": "",
          "type": "uint256"
        }
      ],
      "stateMutability": "view",
      "type": "function"
    },
    {
      "inputs": [],
      "name": "navSlippageBP",
      "outputs": [
        {
          "internalType": "uint256",
          "name": "",
          "type": "uint256"
        }
      ],
      "stateMutability": "view",
      "type": "function"
    },
    {
      "inputs": [],
      "name": "netAssetValue",
      "outputs": [
        {
          "internalType": "uint256",
          "name": "",
          "type": "uint256"
        }
      ],
      "stateMutability": "view",
      "type": "function"
    },
    {
      "inputs": [],
      "name": "oracleUsdc",
      "outputs": [
        {
          "internalType": "contract IPriceFeed",
          "name": "",
          "type": "address"
        }
      ],
      "stateMutability": "view",
      "type": "function"
    },
    {
      "inputs": [],
      "name": "oracleUsdt",
      "outputs": [
        {
          "internalType": "contract IPriceFeed",
          "name": "",
          "type": "address"
        }
      ],
      "stateMutability": "view",
      "type": "function"
    },
    {
      "inputs": [],
      "name": "pair",
      "outputs": [
        {
          "internalType": "contract ISterlingPair",
          "name": "",
          "type": "address"
        }
      ],
      "stateMutability": "view",
      "type": "function"
    },
    {
      "inputs": [],
      "name": "portfolioManager",
      "outputs": [
        {
          "internalType": "address",
          "name": "",
          "type": "address"
        }
      ],
      "stateMutability": "view",
      "type": "function"
    },
    {
      "inputs": [],
      "name": "proxiableUUID",
      "outputs": [
        {
          "internalType": "bytes32",
          "name": "",
          "type": "bytes32"
        }
      ],
      "stateMutability": "view",
      "type": "function"
    },
    {
      "inputs": [
        {
          "internalType": "bytes32",
          "name": "role",
          "type": "bytes32"
        },
        {
          "internalType": "address",
          "name": "account",
          "type": "address"
        }
      ],
      "name": "renounceRole",
      "outputs": [],
      "stateMutability": "nonpayable",
      "type": "function"
    },
    {
      "inputs": [
        {
          "internalType": "bytes32",
          "name": "role",
          "type": "bytes32"
        },
        {
          "internalType": "address",
          "name": "account",
          "type": "address"
        }
      ],
      "name": "revokeRole",
      "outputs": [],
      "stateMutability": "nonpayable",
      "type": "function"
    },
    {
      "inputs": [],
      "name": "router",
      "outputs": [
        {
          "internalType": "contract ISterlingRouter",
          "name": "",
          "type": "address"
        }
      ],
      "stateMutability": "view",
      "type": "function"
    },
    {
      "inputs": [
        {
          "components": [
            {
              "internalType": "address",
              "name": "usdc",
              "type": "address"
            },
            {
              "internalType": "address",
              "name": "usdt",
              "type": "address"
            },
            {
              "internalType": "address",
              "name": "str",
              "type": "address"
            },
            {
              "internalType": "address",
              "name": "router",
              "type": "address"
            },
            {
              "internalType": "address",
              "name": "gauge",
              "type": "address"
            },
            {
              "internalType": "address",
              "name": "pair",
              "type": "address"
            },
            {
              "internalType": "address",
              "name": "oracleUsdc",
              "type": "address"
            },
            {
              "internalType": "address",
              "name": "oracleUsdt",
              "type": "address"
            },
            {
              "internalType": "address",
              "name": "curvePool",
              "type": "address"
            }
          ],
          "internalType": "struct StrategySterlingUsdcUsdt.StrategyParams",
          "name": "params",
          "type": "tuple"
        }
      ],
      "name": "setParams",
      "outputs": [],
      "stateMutability": "nonpayable",
      "type": "function"
    },
    {
      "inputs": [
        {
          "internalType": "address",
          "name": "_value",
          "type": "address"
        }
      ],
      "name": "setPortfolioManager",
      "outputs": [],
      "stateMutability": "nonpayable",
      "type": "function"
    },
    {
      "inputs": [
        {
          "internalType": "uint256",
          "name": "_swapSlippageBP",
          "type": "uint256"
        },
        {
          "internalType": "uint256",
          "name": "_navSlippageBP",
          "type": "uint256"
        },
        {
          "internalType": "uint256",
          "name": "_stakeSlippageBP",
          "type": "uint256"
        }
      ],
      "name": "setSlippages",
      "outputs": [],
      "stateMutability": "nonpayable",
      "type": "function"
    },
    {
      "inputs": [
        {
          "internalType": "address",
          "name": "_asset",
          "type": "address"
        },
        {
          "internalType": "uint256",
          "name": "_amount",
          "type": "uint256"
        }
      ],
      "name": "stake",
      "outputs": [],
      "stateMutability": "nonpayable",
      "type": "function"
    },
    {
      "inputs": [],
      "name": "stakeSlippageBP",
      "outputs": [
        {
          "internalType": "uint256",
          "name": "",
          "type": "uint256"
        }
      ],
      "stateMutability": "view",
      "type": "function"
    },
    {
      "inputs": [],
      "name": "str",
      "outputs": [
        {
          "internalType": "contract IERC20",
          "name": "",
          "type": "address"
        }
      ],
      "stateMutability": "view",
      "type": "function"
    },
    {
      "inputs": [
        {
          "internalType": "bytes4",
          "name": "interfaceId",
          "type": "bytes4"
        }
      ],
      "name": "supportsInterface",
      "outputs": [
        {
          "internalType": "bool",
          "name": "",
          "type": "bool"
        }
      ],
      "stateMutability": "view",
      "type": "function"
    },
    {
      "inputs": [],
      "name": "swapSlippageBP",
      "outputs": [
        {
          "internalType": "uint256",
          "name": "",
          "type": "uint256"
        }
      ],
      "stateMutability": "view",
      "type": "function"
    },
    {
      "inputs": [
        {
          "internalType": "address",
          "name": "_asset",
          "type": "address"
        },
        {
          "internalType": "uint256",
          "name": "_amount",
          "type": "uint256"
        },
        {
          "internalType": "address",
          "name": "_beneficiary",
          "type": "address"
        },
        {
          "internalType": "bool",
          "name": "_targetIsZero",
          "type": "bool"
        }
      ],
      "name": "unstake",
      "outputs": [
        {
          "internalType": "uint256",
          "name": "",
          "type": "uint256"
        }
      ],
      "stateMutability": "nonpayable",
      "type": "function"
    },
    {
      "inputs": [
        {
          "internalType": "address",
          "name": "newImplementation",
          "type": "address"
        }
      ],
      "name": "upgradeTo",
      "outputs": [],
      "stateMutability": "nonpayable",
      "type": "function"
    },
    {
      "inputs": [
        {
          "internalType": "address",
          "name": "newImplementation",
          "type": "address"
        },
        {
          "internalType": "bytes",
          "name": "data",
          "type": "bytes"
        }
      ],
      "name": "upgradeToAndCall",
      "outputs": [],
      "stateMutability": "payable",
      "type": "function"
    },
    {
      "inputs": [],
      "name": "usdc",
      "outputs": [
        {
          "internalType": "contract IERC20",
          "name": "",
          "type": "address"
        }
      ],
      "stateMutability": "view",
      "type": "function"
    },
    {
      "inputs": [],
      "name": "usdcDm",
      "outputs": [
        {
          "internalType": "uint256",
          "name": "",
          "type": "uint256"
        }
      ],
      "stateMutability": "view",
      "type": "function"
    },
    {
      "inputs": [],
      "name": "usdt",
      "outputs": [
        {
          "internalType": "contract IERC20",
          "name": "",
          "type": "address"
        }
      ],
      "stateMutability": "view",
      "type": "function"
    },
    {
      "inputs": [],
      "name": "usdtDm",
      "outputs": [
        {
          "internalType": "uint256",
          "name": "",
          "type": "uint256"
        }
      ],
      "stateMutability": "view",
      "type": "function"
    }
  ],
  "numDeployments": 1,
  "solcInputHash": "29c3458e690e86188bea1672c2e48750",
  "bytecode": "0x60a06040523060601b6080523480156200001857600080fd5b50600054610100900460ff16158080156200003a5750600054600160ff909116105b806200006a575062000057306200014460201b6200167b1760201c565b1580156200006a575060005460ff166001145b620000d25760405162461bcd60e51b815260206004820152602e60248201527f496e697469616c697a61626c653a20636f6e747261637420697320616c72656160448201526d191e481a5b9a5d1a585b1a5e995960921b606482015260840160405180910390fd5b6000805460ff191660011790558015620000f6576000805461ff0019166101001790555b80156200013d576000805461ff0019169055604051600181527f7f26b83ff96e1f2b6a682f133852f6798a09c465da95921460cefb38474024989060200160405180910390a15b5062000153565b6001600160a01b03163b151590565b60805160601c614d196200018e6000396000818161078c015281816107cc0152818161086c015281816108ac015261093b0152614d196000f3fe60806040526004361061020f5760003560e01c80637d5f580211610118578063ae30c110116100a0578063d44f49c91161006f578063d44f49c9146105eb578063d547741f1461060b578063ef5cfb8c1461062b578063f6f6b8811461064b578063f887ea401461066b57600080fd5b8063ae30c11014610573578063bf52e08014610593578063c15bae84146105a9578063cc6522c3146105ca57600080fd5b8063a3673b38116100e7578063a3673b38146104dc578063a440b21a146104f1578063a6f19c8414610511578063a8aa1b3114610532578063adc9772e1461055357600080fd5b80637d5f5802146104705780638129fc1c1461049257806391d14854146104a7578063a217fddf146104c757600080fd5b806336568abe1161019b57806352d1902d1161016a57806352d1902d146103d05780635ca558f8146103e55780635dbd733a146103fb5780635fea9cbb1461042f578063620b75df1461045057600080fd5b806336568abe1461035c5780633659cfe61461037c5780633e413bee1461039c5780634f1ef286146103bd57600080fd5b8063218751b2116101e2578063218751b21461029b578063248a9ca3146102d45780632576e65a146103045780632f2ff15d146103195780632f48ab7d1461033b57600080fd5b806301ffc9a7146102145780630f9033f714610249578063119cd8791461026e5780631b1e7ddc14610284575b600080fd5b34801561022057600080fd5b5061023461022f3660046145bc565b61068c565b60405190151581526020015b60405180910390f35b34801561025557600080fd5b506102606101315481565b604051908152602001610240565b34801561027a57600080fd5b5061026060fd5481565b34801561029057600080fd5b506102606101305481565b3480156102a757600080fd5b50610137546102bc906001600160a01b031681565b6040516001600160a01b039091168152602001610240565b3480156102e057600080fd5b506102606102ef36600461455a565b60009081526065602052604090206001015490565b34801561031057600080fd5b506102606106c3565b34801561032557600080fd5b5061033961033436600461458c565b6106d4565b005b34801561034757600080fd5b5061012e546102bc906001600160a01b031681565b34801561036857600080fd5b5061033961037736600461458c565b6106fe565b34801561038857600080fd5b5061033961039736600461432f565b610781565b3480156103a857600080fd5b5061012d546102bc906001600160a01b031681565b6103396103cb366004614369565b610861565b3480156103dc57600080fd5b5061026061092e565b3480156103f157600080fd5b5061026060fe5481565b34801561040757600080fd5b506102607fd67ad422505496469a1adf6cdf9e5ee92ac5d33992843c9ecc4b2f6d6cde913781565b34801561043b57600080fd5b50610135546102bc906001600160a01b031681565b34801561045c57600080fd5b5060fb546102bc906001600160a01b031681565b34801561047c57600080fd5b50610260600080516020614c7d83398151915281565b34801561049e57600080fd5b506103396109e1565b3480156104b357600080fd5b506102346104c236600461458c565b610aab565b3480156104d357600080fd5b50610260600081565b3480156104e857600080fd5b50610260610ad6565b3480156104fd57600080fd5b5061033961050c36600461432f565b610ae2565b34801561051d57600080fd5b50610133546102bc906001600160a01b031681565b34801561053e57600080fd5b50610134546102bc906001600160a01b031681565b34801561055f57600080fd5b5061033961056e366004614411565b610c11565b34801561057f57600080fd5b5061033961058e366004614623565b610e41565b34801561059f57600080fd5b5061026060fc5481565b3480156105b557600080fd5b5061012f546102bc906001600160a01b031681565b3480156105d657600080fd5b50610136546102bc906001600160a01b031681565b3480156105f757600080fd5b506103396106063660046145e6565b610fb6565b34801561061757600080fd5b5061033961062636600461458c565b611304565b34801561063757600080fd5b5061026061064636600461432f565b611329565b34801561065757600080fd5b5061026061066636600461443d565b6113ae565b34801561067757600080fd5b50610132546102bc906001600160a01b031681565b60006001600160e01b03198216637965db0b60e01b14806106bd57506301ffc9a760e01b6001600160e01b03198316145b92915050565b60006106cf600061168a565b905090565b6000828152606560205260409020600101546106ef816119c8565b6106f983836119d2565b505050565b6001600160a01b03811633146107735760405162461bcd60e51b815260206004820152602f60248201527f416363657373436f6e74726f6c3a2063616e206f6e6c792072656e6f756e636560448201526e103937b632b9903337b91039b2b63360891b60648201526084015b60405180910390fd5b61077d8282611a58565b5050565b306001600160a01b037f00000000000000000000000000000000000000000000000000000000000000001614156107ca5760405162461bcd60e51b815260040161076a906148ef565b7f00000000000000000000000000000000000000000000000000000000000000006001600160a01b0316610813600080516020614c9d833981519152546001600160a01b031690565b6001600160a01b0316146108395760405162461bcd60e51b815260040161076a9061493b565b61084281611abf565b6040805160008082526020820190925261085e91839190611aca565b50565b306001600160a01b037f00000000000000000000000000000000000000000000000000000000000000001614156108aa5760405162461bcd60e51b815260040161076a906148ef565b7f00000000000000000000000000000000000000000000000000000000000000006001600160a01b03166108f3600080516020614c9d833981519152546001600160a01b031690565b6001600160a01b0316146109195760405162461bcd60e51b815260040161076a9061493b565b61092282611abf565b61077d82826001611aca565b6000306001600160a01b037f000000000000000000000000000000000000000000000000000000000000000016146109ce5760405162461bcd60e51b815260206004820152603860248201527f555550535570677261646561626c653a206d757374206e6f742062652063616c60448201527f6c6564207468726f7567682064656c656761746563616c6c0000000000000000606482015260840161076a565b50600080516020614c9d83398151915290565b600054610100900460ff1615808015610a015750600054600160ff909116105b80610a1b5750303b158015610a1b575060005460ff166001145b610a375760405162461bcd60e51b815260040161076a90614987565b6000805460ff191660011790558015610a5a576000805461ff0019166101001790555b610a62611c44565b801561085e576000805461ff0019169055604051600181527f7f26b83ff96e1f2b6a682f133852f6798a09c465da95921460cefb3847402498906020015b60405180910390a150565b60009182526065602090815260408084206001600160a01b0393909316845291905290205460ff1690565b60006106cf600161168a565b610aed600033610aab565b610b305760405162461bcd60e51b81526020600482015260146024820152735265737472696374656420746f2061646d696e7360601b604482015260640161076a565b6001600160a01b038116610b865760405162461bcd60e51b815260206004820152601860248201527f5a65726f2061646472657373206e6f7420616c6c6f7765640000000000000000604482015260640161076a565b60fb54610bab90600080516020614c7d833981519152906001600160a01b0316611304565b610bc3600080516020614c7d833981519152826106d4565b60fb80546001600160a01b0319166001600160a01b0383169081179091556040519081527ff7b449fcd5cfb7379dcd34cb69428dd9f882033b15be33d83b42d91daa28eeb790602001610aa0565b610c29600080516020614c7d83398151915233610aab565b610c455760405162461bcd60e51b815260040161076a906148b8565b6000610cc3306001600160a01b031663a3673b386040518163ffffffff1660e01b815260040160206040518083038186803b158015610c8357600080fd5b505afa158015610c97573d6000803e3d6000fd5b505050506040513d601f19601f82011682018060405250810190610cbb9190614573565b60fd54611d29565b6040516370a0823160e01b8152306004820152909150610d489084906001600160a01b038216906370a082319060240160206040518083038186803b158015610d0b57600080fd5b505afa158015610d1f573d6000803e3d6000fd5b505050506040513d601f19601f82011682018060405250810190610d439190614573565b611d53565b80306001600160a01b031663a3673b386040518163ffffffff1660e01b815260040160206040518083038186803b158015610d8257600080fd5b505afa158015610d96573d6000803e3d6000fd5b505050506040513d601f19601f82011682018060405250810190610dba9190614573565b1015610e085760405162461bcd60e51b815260206004820152601f60248201527f5374726174656779204e4156206c657373207468616e20657870656374656400604482015260640161076a565b6040518281527f227a473b70d2f893cc7659219575c030a63b5743024fe1e0c1a680e708b1525a906020015b60405180910390a1505050565b610e6b7fd67ad422505496469a1adf6cdf9e5ee92ac5d33992843c9ecc4b2f6d6cde913733610aab565b80610f12575060fb54604051632474521560e21b81527fd67ad422505496469a1adf6cdf9e5ee92ac5d33992843c9ecc4b2f6d6cde913760048201523360248201526001600160a01b03909116906391d148549060440160206040518083038186803b158015610eda57600080fd5b505afa158015610eee573d6000803e3d6000fd5b505050506040513d601f19601f82011682018060405250810190610f12919061453d565b610f695760405162461bcd60e51b815260206004820152602260248201527f5265737472696374656420746f20504f5254464f4c494f5f4147454e545f524f6044820152614c4560f01b606482015260840161076a565b60fc83905560fd82905560fe81905560408051848152602081018490529081018290527f116fbf1e97a2be629ad98abfb6c332733c8996c2dfb174dd2efe8440df381d1a90606001610e34565b610fc1600033610aab565b6110045760405162461bcd60e51b81526020600482015260146024820152735265737472696374656420746f2061646d696e7360601b604482015260640161076a565b611011602082018261432f565b61012d80546001600160a01b0319166001600160a01b0392909216919091179055611042604082016020830161432f565b61012e80546001600160a01b0319166001600160a01b0392909216919091179055611073606082016040830161432f565b61012f80546001600160a01b0319166001600160a01b03929092169190911790556110a1602082018261432f565b6001600160a01b031663313ce5676040518163ffffffff1660e01b815260040160206040518083038186803b1580156110d957600080fd5b505afa1580156110ed573d6000803e3d6000fd5b505050506040513d601f19601f8201168201806040525081019061111191906146cd565b61111c90600a614ad8565b61013055611130604082016020830161432f565b6001600160a01b031663313ce5676040518163ffffffff1660e01b815260040160206040518083038186803b15801561116857600080fd5b505afa15801561117c573d6000803e3d6000fd5b505050506040513d601f19601f820116820180604052508101906111a091906146cd565b6111ab90600a614ad8565b610131556111bf608082016060830161432f565b61013280546001600160a01b0319166001600160a01b03929092169190911790556111f060a082016080830161432f565b61013380546001600160a01b0319166001600160a01b039290921691909117905561122160c0820160a0830161432f565b61013480546001600160a01b0319166001600160a01b039290921691909117905561125260e0820160c0830161432f565b61013580546001600160a01b0319166001600160a01b0392909216919091179055611284610100820160e0830161432f565b61013680546001600160a01b0319166001600160a01b03929092169190911790556112b76101208201610100830161432f565b61013780546001600160a01b0319166001600160a01b03929092169190911790556040517fea5646eb3528e525944447a4a97de700dd472298626e5c0481d1c82c3da86ea590600090a150565b60008281526065602052604090206001015461131f816119c8565b6106f98383611a58565b6000611343600080516020614c7d83398151915233610aab565b61135f5760405162461bcd60e51b815260040161076a906148b8565b600061136a83612448565b905080156113a6576040518181527f3ac0594a85a20354f9dc74f33728416d19ce00d04a406c108cc2dcf2cecea1349060200160405180910390a15b90505b919050565b60006113c8600080516020614c7d83398151915233610aab565b6113e45760405162461bcd60e51b815260040161076a906148b8565b6000611422306001600160a01b031663a3673b386040518163ffffffff1660e01b815260040160206040518083038186803b158015610c8357600080fd5b905060008084156114495761143686612448565b9050611442888761272e565b91506114b8565b611454888888612c64565b9150868210156114b85760405162461bcd60e51b815260206004820152602960248201527f52657475726e65642076616c7565206c657373207468616e2072657175657374604482015268195908185b5bdd5b9d60ba1b606482015260840161076a565b82306001600160a01b031663a3673b386040518163ffffffff1660e01b815260040160206040518083038186803b1580156114f257600080fd5b505afa158015611506573d6000803e3d6000fd5b505050506040513d601f19601f8201168201806040525081019061152a9190614573565b10156115785760405162461bcd60e51b815260206004820152601f60248201527f5374726174656779204e4156206c657373207468616e20657870656374656400604482015260640161076a565b60405163a9059cbb60e01b81526001600160a01b0387811660048301526024820184905289169063a9059cbb90604401602060405180830381600087803b1580156115c257600080fd5b505af11580156115d6573d6000803e3d6000fd5b505050506040513d601f19601f820116820180604052508101906115fa919061453d565b5060408051888152602081018490527f9045c2ac9b2026de8075f2701bbdde882cd5e830b3b1ead9a15b22f2b5b93742910160405180910390a1801561166e576040518181527f3ac0594a85a20354f9dc74f33728416d19ce00d04a406c108cc2dcf2cecea1349060200160405180910390a15b509150505b949350505050565b6001600160a01b03163b151590565b61012d546040516370a0823160e01b815230600482015260009182916001600160a01b03909116906370a082319060240160206040518083038186803b1580156116d357600080fd5b505afa1580156116e7573d6000803e3d6000fd5b505050506040513d601f19601f8201168201806040525081019061170b9190614573565b61012e546040516370a0823160e01b81523060048201529192506000916001600160a01b03909116906370a082319060240160206040518083038186803b15801561175557600080fd5b505afa158015611769573d6000803e3d6000fd5b505050506040513d601f19601f8201168201806040525081019061178d9190614573565b610133546040516370a0823160e01b81523060048201529192506000916001600160a01b03909116906370a082319060240160206040518083038186803b1580156117d757600080fd5b505afa1580156117eb573d6000803e3d6000fd5b505050506040513d601f19601f8201168201806040525081019061180f9190614573565b9050801561196d5761013454604080516318160ddd60e01b815290516000926001600160a01b0316916318160ddd916004808301926020929190829003018186803b15801561185d57600080fd5b505afa158015611871573d6000803e3d6000fd5b505050506040513d601f19601f820116820180604052508101906118959190614573565b905060008061013460009054906101000a90046001600160a01b03166001600160a01b0316630902f1ac6040518163ffffffff1660e01b815260040160606040518083038186803b1580156118e957600080fd5b505afa1580156118fd573d6000803e3d6000fd5b505050506040513d601f19601f82011682018060405250810190611921919061464f565b509092509050826119328583614b83565b61193c9190614a73565b6119469087614a5b565b9550826119538584614b83565b61195d9190614a73565b6119679086614a5b565b94505050505b600082156119b457851561198b576119848361316c565b90506119b4565b6101375461012e5461012d546119b1926001600160a01b039081169281169116866131b8565b90505b6119be8185614a5b565b9695505050505050565b61085e81336132a9565b6119dc8282610aab565b61077d5760008281526065602090815260408083206001600160a01b03851684529091529020805460ff19166001179055611a143390565b6001600160a01b0316816001600160a01b0316837f2f8788117e7eff1d82e926ec794901d17c78024a50270940304540a733656f0d60405160405180910390a45050565b611a628282610aab565b1561077d5760008281526065602090815260408083206001600160a01b0385168085529252808320805460ff1916905551339285917ff6391f5c32d9c69d2a47ea670b442974b53935d1edc7fd64eb21e047a839171b9190a45050565b600061077d816119c8565b7f4910fdfa16fed3260ed0e7147f7cc6da11a60208b5b9406d12a635614ffd91435460ff1615611afd576106f98361330d565b826001600160a01b03166352d1902d6040518163ffffffff1660e01b815260040160206040518083038186803b158015611b3657600080fd5b505afa925050508015611b66575060408051601f3d908101601f19168201909252611b6391810190614573565b60015b611bc95760405162461bcd60e51b815260206004820152602e60248201527f45524331393637557067726164653a206e657720696d706c656d656e7461746960448201526d6f6e206973206e6f74205555505360901b606482015260840161076a565b600080516020614c9d8339815191528114611c385760405162461bcd60e51b815260206004820152602960248201527f45524331393637557067726164653a20756e737570706f727465642070726f786044820152681a58589b195555525160ba1b606482015260840161076a565b506106f98383836133a9565b600054610100900460ff1615808015611c645750600054600160ff909116105b80611c7e5750303b158015611c7e575060005460ff166001145b611c9a5760405162461bcd60e51b815260040161076a90614987565b6000805460ff191660011790558015611cbd576000805461ff0019166101001790555b611cc56133d4565b611ccd6133d4565b611cd86000336119d2565b601460fc81905560fd55600460fe55801561085e576000805461ff0019169055604051600181527f7f26b83ff96e1f2b6a682f133852f6798a09c465da95921460cefb384740249890602001610aa0565b6000612710611d388382614ba2565b611d429085614b83565b611d4c9190614a73565b9392505050565b60008061013460009054906101000a90046001600160a01b03166001600160a01b0316630902f1ac6040518163ffffffff1660e01b815260040160606040518083038186803b158015611da557600080fd5b505afa158015611db9573d6000803e3d6000fd5b505050506040513d601f19601f82011682018060405250810190611ddd919061464f565b50915091506103e882118015611df457506103e881115b611e4b5760405162461bcd60e51b815260206004820152602260248201527f4c6971756964697479206c70546f6b656e20726573657276657320746f6f206c6044820152616f7760f01b606482015260840161076a565b61012d546040516370a0823160e01b81523060048201526000916001600160a01b0316906370a082319060240160206040518083038186803b158015611e9057600080fd5b505afa158015611ea4573d6000803e3d6000fd5b505050506040513d601f19601f82011682018060405250810190611ec89190614573565b61012e546040516370a0823160e01b81523060048201529192506000916001600160a01b03909116906370a082319060240160206040518083038186803b158015611f1257600080fd5b505afa158015611f26573d6000803e3d6000fd5b505050506040513d601f19601f82011682018060405250810190611f4a9190614573565b6101375461012d5461012e546101305461013154949550600094611f86946001600160a01b0390811694811693169188918a918c916001613441565b6101375461012d5461012e54929350611fc4926001600160a01b0392831692918216911684611fbf611fb7826134ec565b60fc54611d29565b613538565b5061012d546040516370a0823160e01b81523060048201526001600160a01b03909116906370a082319060240160206040518083038186803b15801561200957600080fd5b505afa15801561201d573d6000803e3d6000fd5b505050506040513d601f19601f820116820180604052508101906120419190614573565b61012e546040516370a0823160e01b81523060048201529194506001600160a01b0316906370a082319060240160206040518083038186803b15801561208657600080fd5b505afa15801561209a573d6000803e3d6000fd5b505050506040513d601f19601f820116820180604052508101906120be9190614573565b61012d546101325460405163095ea7b360e01b81526001600160a01b03918216600482015260248101879052929450169063095ea7b390604401602060405180830381600087803b15801561211257600080fd5b505af1158015612126573d6000803e3d6000fd5b505050506040513d601f19601f8201168201806040525081019061214a919061453d565b5061012e546101325460405163095ea7b360e01b81526001600160a01b0391821660048201526024810185905291169063095ea7b390604401602060405180830381600087803b15801561219d57600080fd5b505af11580156121b1573d6000803e3d6000fd5b505050506040513d601f19601f820116820180604052508101906121d5919061453d565b506101325461012e5461012d5460fe546001600160a01b0393841693635a47ddc39381169216906001908790899061220e908390611d29565b61221a8b60fe54611d29565b6040516001600160e01b031960e08a901b1681526001600160a01b03978816600482015296909516602487015292151560448601526064850191909152608484015260a483015260c48201523060e48201524261010482015261012401606060405180830381600087803b15801561229157600080fd5b505af11580156122a5573d6000803e3d6000fd5b505050506040513d601f19601f820116820180604052508101906122c9919061464f565b5050610134546040516370a0823160e01b8152306004820152600092506001600160a01b03909116906370a082319060240160206040518083038186803b15801561231357600080fd5b505afa158015612327573d6000803e3d6000fd5b505050506040513d601f19601f8201168201806040525081019061234b9190614573565b610134546101335460405163095ea7b360e01b81526001600160a01b03918216600482015260248101849052929350169063095ea7b390604401602060405180830381600087803b15801561239f57600080fd5b505af11580156123b3573d6000803e3d6000fd5b505050506040513d601f19601f820116820180604052508101906123d7919061453d565b5061013354604051631c57762b60e31b815260048101839052600060248201526001600160a01b039091169063e2bbb15890604401600060405180830381600087803b15801561242657600080fd5b505af115801561243a573d6000803e3d6000fd5b505050505050505050505050565b610133546040516370a0823160e01b81523060048201526000916001600160a01b0316906370a082319060240160206040518083038186803b15801561248d57600080fd5b505afa1580156124a1573d6000803e3d6000fd5b505050506040513d601f19601f820116820180604052508101906124c59190614573565b6124d157506000919050565b60408051600180825281830190925260009160208083019080368337505061012f5482519293506001600160a01b03169183915060009061251457612514614c2d565b6001600160a01b039283166020918202929092010152610133546040516331279d3d60e01b81529116906331279d3d906125549030908590600401614829565b600060405180830381600087803b15801561256e57600080fd5b505af1158015612582573d6000803e3d6000fd5b505061012f546040516370a0823160e01b8152306004820152600093508392506001600160a01b03909116906370a082319060240160206040518083038186803b1580156125cf57600080fd5b505afa1580156125e3573d6000803e3d6000fd5b505050506040513d601f19601f820116820180604052508101906126079190614573565b90508015612697576101325461012f5461012d5460009261263a926001600160a01b03918216929082169116848661371a565b90508015612695576101325461012f5461012d54600092612685926001600160a01b0391821692908216911684876064612675896063614b83565b61267f9190614a73565b306138a8565b90506126918185614a5b565b9350505b505b81156127265761012d5460405163a9059cbb60e01b81526001600160a01b038781166004830152602482018590529091169063a9059cbb90604401602060405180830381600087803b1580156126ec57600080fd5b505af1158015612700573d6000803e3d6000fd5b505050506040513d601f19601f82011682018060405250810190612724919061453d565b505b509392505050565b610133546040516370a0823160e01b815230600482015260009182916001600160a01b03909116906370a082319060240160206040518083038186803b15801561277757600080fd5b505afa15801561278b573d6000803e3d6000fd5b505050506040513d601f19601f820116820180604052508101906127af9190614573565b90508061283a5761012d546040516370a0823160e01b81523060048201526001600160a01b03909116906370a082319060240160206040518083038186803b1580156127fa57600080fd5b505afa15801561280e573d6000803e3d6000fd5b505050506040513d601f19601f820116820180604052508101906128329190614573565b9150506106bd565b61013354604051632e1a7d4d60e01b8152600481018390526001600160a01b0390911690632e1a7d4d90602401600060405180830381600087803b15801561288157600080fd5b505af1158015612895573d6000803e3d6000fd5b50505050600061013460009054906101000a90046001600160a01b03166001600160a01b03166318160ddd6040518163ffffffff1660e01b815260040160206040518083038186803b1580156128ea57600080fd5b505afa1580156128fe573d6000803e3d6000fd5b505050506040513d601f19601f820116820180604052508101906129229190614573565b905060008061013460009054906101000a90046001600160a01b03166001600160a01b0316630902f1ac6040518163ffffffff1660e01b815260040160606040518083038186803b15801561297657600080fd5b505afa15801561298a573d6000803e3d6000fd5b505050506040513d601f19601f820116820180604052508101906129ae919061464f565b5090925090506000836129c18684614b83565b6129cb9190614a73565b90506000846129da8786614b83565b6129e49190614a73565b610134546101325460405163095ea7b360e01b81526001600160a01b039182166004820152602481018a9052929350169063095ea7b390604401602060405180830381600087803b158015612a3857600080fd5b505af1158015612a4c573d6000803e3d6000fd5b505050506040513d601f19601f82011682018060405250810190612a70919061453d565b506101325461012e5461012d5460fe546001600160a01b0393841693630dede6c49381169216906001908b90612aa7908890611d29565b612ab38960fe54611d29565b30426040518963ffffffff1660e01b8152600401612ad89897969594939291906147e0565b6040805180830381600087803b158015612af157600080fd5b505af1158015612b05573d6000803e3d6000fd5b505050506040513d601f19601f82011682018060405250810190612b2991906145ff565b505061012e546040516370a0823160e01b81523060048201526000916001600160a01b0316906370a082319060240160206040518083038186803b158015612b7057600080fd5b505afa158015612b84573d6000803e3d6000fd5b505050506040513d601f19601f82011682018060405250810190612ba89190614573565b6101375461012e5461012d54929350612bd9926001600160a01b0392831692918216911684611fbf611fb78261316c565b5061012d546040516370a0823160e01b81523060048201526001600160a01b03909116906370a082319060240160206040518083038186803b158015612c1e57600080fd5b505afa158015612c32573d6000803e3d6000fd5b505050506040513d601f19601f82011682018060405250810190612c569190614573565b9a9950505050505050505050565b60008061013460009054906101000a90046001600160a01b03166001600160a01b03166318160ddd6040518163ffffffff1660e01b815260040160206040518083038186803b158015612cb657600080fd5b505afa158015612cca573d6000803e3d6000fd5b505050506040513d601f19601f82011682018060405250810190612cee9190614573565b905060008061013460009054906101000a90046001600160a01b03166001600160a01b0316630902f1ac6040518163ffffffff1660e01b815260040160606040518083038186803b158015612d4257600080fd5b505afa158015612d56573d6000803e3d6000fd5b505050506040513d601f19601f82011682018060405250810190612d7a919061464f565b506101375461012d5461012e54939550919350600092612dcc926001600160a01b03928316929081169116612dba612db38c600a614a5b565b6001613ac4565b88878961013054610131546001613ad3565b610133546040516370a0823160e01b81523060048201529192506000916001600160a01b03909116906370a082319060240160206040518083038186803b158015612e1657600080fd5b505afa158015612e2a573d6000803e3d6000fd5b505050506040513d601f19601f82011682018060405250810190612e4e9190614573565b905080821115612e5c578091505b600085612e698486614b83565b612e739190614a73565b9050600086612e828588614b83565b612e8c9190614a73565b61013354604051632e1a7d4d60e01b8152600481018790529192506001600160a01b031690632e1a7d4d90602401600060405180830381600087803b158015612ed457600080fd5b505af1158015612ee8573d6000803e3d6000fd5b5050610134546101325460405163095ea7b360e01b81526001600160a01b039182166004820152602481018990529116925063095ea7b39150604401602060405180830381600087803b158015612f3e57600080fd5b505af1158015612f52573d6000803e3d6000fd5b505050506040513d601f19601f82011682018060405250810190612f76919061453d565b506101325461012e5461012d5460fe546001600160a01b0393841693630dede6c49381169216906001908990612fad908890611d29565b612fb98960fe54611d29565b30426040518963ffffffff1660e01b8152600401612fde9897969594939291906147e0565b6040805180830381600087803b158015612ff757600080fd5b505af115801561300b573d6000803e3d6000fd5b505050506040513d601f19601f8201168201806040525081019061302f91906145ff565b505061012e546040516370a0823160e01b81523060048201526000916001600160a01b0316906370a082319060240160206040518083038186803b15801561307657600080fd5b505afa15801561308a573d6000803e3d6000fd5b505050506040513d601f19601f820116820180604052508101906130ae9190614573565b6101375461012e5461012d549293506130df926001600160a01b0392831692918216911684611fbf611fb78261316c565b5061012d546040516370a0823160e01b81523060048201526001600160a01b03909116906370a082319060240160206040518083038186803b15801561312457600080fd5b505afa158015613138573d6000803e3d6000fd5b505050506040513d601f19601f8201168201806040525081019061315c9190614573565b9c9b505050505050505050505050565b610136546000908190613187906001600160a01b0316613bab565b610135549091506000906131a3906001600160a01b0316613bab565b90506116738461013154610130548585613ccf565b6000806000806131c9888888613cfa565b925092509250801561326a576040516307211ef760e01b8152600f84810b600483015283900b6024820152604481018690526001600160a01b038916906307211ef7906064015b60206040518083038186803b15801561322857600080fd5b505afa15801561323c573d6000803e3d6000fd5b505050506040513d601f19601f820116820180604052508101906132609190614573565b9350505050611673565b604051635e0d443f60e01b8152600f84810b600483015283900b6024820152604481018690526001600160a01b03891690635e0d443f90606401613210565b6132b38282610aab565b61077d576132cb816001600160a01b03166014613f4f565b6132d6836020613f4f565b6040516020016132e792919061476b565b60408051601f198184030181529082905262461bcd60e51b825261076a91600401614885565b6001600160a01b0381163b61337a5760405162461bcd60e51b815260206004820152602d60248201527f455243313936373a206e657720696d706c656d656e746174696f6e206973206e60448201526c1bdd08184818dbdb9d1c9858dd609a1b606482015260840161076a565b600080516020614c9d83398151915280546001600160a01b0319166001600160a01b0392909216919091179055565b6133b2836140eb565b6000825111806133bf5750805b156106f9576133ce838361412b565b50505050565b600054610100900460ff1661343f5760405162461bcd60e51b815260206004820152602b60248201527f496e697469616c697a61626c653a20636f6e7472616374206973206e6f74206960448201526a6e697469616c697a696e6760a81b606482015260840161076a565b565b6000848461344f8589614b83565b6134599190614a73565b6134639190614a5b565b61346d8689614b83565b6134779190614a73565b905060005b828110156134de5760006134928c8c8c866131b8565b905086836134a0838b614b83565b6134aa9190614a73565b6134b49190614a5b565b6134be888b614b83565b6134c89190614a73565b92505080806134d690614bfc565b91505061347c565b509998505050505050505050565b610136546000908190613507906001600160a01b0316613bab565b61013554909150600090613523906001600160a01b0316613bab565b90506116738461013054610131548486613ccf565b60405163095ea7b360e01b81526001600160a01b038681166004830152602482018490526000919086169063095ea7b390604401602060405180830381600087803b15801561358657600080fd5b505af115801561359a573d6000803e3d6000fd5b505050506040513d601f19601f820116820180604052508101906135be919061453d565b5060008060006135cf898989613cfa565b9250925092506000811561367757604051635320bf6b60e11b8152600f85810b600483015284900b602482015260448101889052606481018790526001600160a01b038b169063a6417ed690608401602060405180830381600087803b15801561363857600080fd5b505af115801561364c573d6000803e3d6000fd5b505050506040513d601f19601f820116820180604052508101906136709190614573565b905061370d565b604051630f7c084960e21b8152600f85810b600483015284900b602482015260448101889052606481018790526001600160a01b038b1690633df0212490608401602060405180830381600087803b1580156136d257600080fd5b505af11580156136e6573d6000803e3d6000fd5b505050506040513d601f19601f8201168201806040525081019061370a9190614573565b90505b9998505050505050505050565b604080516001808252818301909252600091829190816020015b6040805160608101825260008082526020808301829052928201528252600019909201910181613734579050509050858160008151811061377757613777614c2d565b6020026020010151600001906001600160a01b031690816001600160a01b03168152505084816000815181106137af576137af614c2d565b6020026020010151602001906001600160a01b031690816001600160a01b03168152505083816000815181106137e7576137e7614c2d565b6020908102919091010151901515604091820152516326207f2d60e21b81526000906001600160a01b03891690639881fcb49061382a90879086906004016149d5565b60006040518083038186803b15801561384257600080fd5b505afa158015613856573d6000803e3d6000fd5b505050506040513d6000823e601f3d908101601f1916820160405261387e9190810190614490565b90508060018151811061389357613893614c2d565b60200260200101519250505095945050505050565b60405163095ea7b360e01b81526001600160a01b038881166004830152602482018590526000919088169063095ea7b390604401602060405180830381600087803b1580156138f657600080fd5b505af115801561390a573d6000803e3d6000fd5b505050506040513d601f19601f8201168201806040525081019061392e919061453d565b50604080516001808252818301909252600091816020015b6040805160608101825260008082526020808301829052928201528252600019909201910181613946579050509050878160008151811061398957613989614c2d565b6020026020010151600001906001600160a01b031690816001600160a01b03168152505086816000815181106139c1576139c1614c2d565b6020026020010151602001906001600160a01b031690816001600160a01b03168152505085816000815181106139f9576139f9614c2d565b602090810291909101015190151560409182015251631e82ecdb60e31b81526000906001600160a01b038b169063f41766d890613a42908990899087908a9042906004016149ee565b600060405180830381600087803b158015613a5c57600080fd5b505af1158015613a70573d6000803e3d6000fd5b505050506040513d6000823e601f3d908101601f19168201604052613a989190810190614490565b905080600181518110613aad57613aad614c2d565b602002602001015192505050979650505050505050565b6000612710611d388382614a5b565b6000613adf8486614b83565b613ae98488614b83565b613af39190614a5b565b83613afe8a8a614b83565b613b089190614b83565b613b129190614a73565b905060005b82811015613b9c57600088613b2c8489614b83565b613b369190614a73565b90506000613b468e8d8f856131b8565b9050613b528189614b83565b613b5c838b614b83565b613b669190614a5b565b82613b718d8d614b83565b613b7b9190614b83565b613b859190614a73565b935050508080613b9490614bfc565b915050613b17565b509a9950505050505050505050565b6000806000806000856001600160a01b031663feaf968c6040518163ffffffff1660e01b815260040160a06040518083038186803b158015613bec57600080fd5b505afa158015613c00573d6000803e3d6000fd5b505050506040513d601f19601f82011682018060405250810190613c24919061467d565b9450945050935093508369ffffffffffffffffffff168169ffffffffffffffffffff161015613c805760405162461bcd60e51b81526020600482015260086024820152674f6c64206461746160c01b604482015260640161076a565b60008211613cc55760405162461bcd60e51b8152602060048201526012602482015271526f756e64206e6f7420636f6d706c65746560701b604482015260640161076a565b5090949350505050565b6000613cdb8286614b83565b83613ce68689614b83565b613cf09190614b83565b6119be9190614a73565b6000808060016001607f1b0380825b6000613d158a8361421f565b90506001600160a01b038116613d2b5750613d7e565b886001600160a01b0316816001600160a01b03161415613d4d57819350613d6b565b876001600160a01b0316816001600160a01b03161415613d6b578192505b81613d7581614bfc565b92505050613d09565b600f83900b60016001607f1b0314801590613da45750600f82900b60016001607f1b0314155b15613db85750909350915060009050613f46565b600f83900b60016001607f1b03141580613ddd5750600f82900b60016001607f1b0314155b15613e365760405162461bcd60e51b815260206004820152602360248201527f437572766553503a20696e636f727265637420746f6b656e207061697220736560448201526207475760ec1b606482015260840161076a565b5060005b6000613e468a836142ac565b90506001600160a01b038116613e5c5750613eaf565b886001600160a01b0316816001600160a01b03161415613e7e57819350613e9c565b876001600160a01b0316816001600160a01b03161415613e9c578192505b81613ea681614bfc565b92505050613e3a565b600f83900b60016001607f1b0314801590613ed55750600f82900b60016001607f1b0314155b15613ee95750909350915060019050613f46565b60405162461bcd60e51b815260206004820152602c60248201527f437572766553503a2043616e27742066696e6420696e64657820666f7220746f60448201526b1ad95b9cc81a5b881c1bdbdb60a21b606482015260840161076a565b93509350939050565b60606000613f5e836002614b83565b613f69906002614a5b565b67ffffffffffffffff811115613f8157613f81614c43565b6040519080825280601f01601f191660200182016040528015613fab576020820181803683370190505b509050600360fc1b81600081518110613fc657613fc6614c2d565b60200101906001600160f81b031916908160001a905350600f60fb1b81600181518110613ff557613ff5614c2d565b60200101906001600160f81b031916908160001a9053506000614019846002614b83565b614024906001614a5b565b90505b600181111561409c576f181899199a1a9b1b9c1cb0b131b232b360811b85600f166010811061405857614058614c2d565b1a60f81b82828151811061406e5761406e614c2d565b60200101906001600160f81b031916908160001a90535060049490941c9361409581614be5565b9050614027565b508315611d4c5760405162461bcd60e51b815260206004820181905260248201527f537472696e67733a20686578206c656e67746820696e73756666696369656e74604482015260640161076a565b6140f48161330d565b6040516001600160a01b038216907fbc7cd75a20ee27fd9adebab32041f755214dbc6bffa90cc0225b39da2e5c2d3b90600090a250565b60606001600160a01b0383163b6141935760405162461bcd60e51b815260206004820152602660248201527f416464726573733a2064656c65676174652063616c6c20746f206e6f6e2d636f6044820152651b9d1c9858dd60d21b606482015260840161076a565b600080846001600160a01b0316846040516141ae919061474f565b600060405180830381855af49150503d80600081146141e9576040519150601f19603f3d011682016040523d82523d6000602084013e6141ee565b606091505b50915091506142168282604051806060016040528060278152602001614cbd602791396142dc565b95945050505050565b60405163c661065760e01b8152600481018290526000906001600160a01b0384169063c6610657906024015b60206040518083038186803b15801561426357600080fd5b505afa925050508015614293575060408051601f3d908101601f191682019092526142909181019061434c565b60015b61429c576142a3565b90506106bd565b50600092915050565b604051630b9947eb60e41b8152600481018290526000906001600160a01b0384169063b9947eb09060240161424b565b606083156142eb575081611d4c565b8251156142fb5782518084602001fd5b8160405162461bcd60e51b815260040161076a9190614885565b805169ffffffffffffffffffff811681146113a957600080fd5b60006020828403121561434157600080fd5b8135611d4c81614c59565b60006020828403121561435e57600080fd5b8151611d4c81614c59565b6000806040838503121561437c57600080fd5b823561438781614c59565b915060208381013567ffffffffffffffff808211156143a557600080fd5b818601915086601f8301126143b957600080fd5b8135818111156143cb576143cb614c43565b6143dd601f8201601f19168501614a2a565b915080825287848285010111156143f357600080fd5b80848401858401376000848284010152508093505050509250929050565b6000806040838503121561442457600080fd5b823561442f81614c59565b946020939093013593505050565b6000806000806080858703121561445357600080fd5b843561445e81614c59565b935060208501359250604085013561447581614c59565b9150606085013561448581614c6e565b939692955090935050565b600060208083850312156144a357600080fd5b825167ffffffffffffffff808211156144bb57600080fd5b818501915085601f8301126144cf57600080fd5b8151818111156144e1576144e1614c43565b8060051b91506144f2848301614a2a565b8181528481019084860184860187018a101561450d57600080fd5b600095505b83861015614530578051835260019590950194918601918601614512565b5098975050505050505050565b60006020828403121561454f57600080fd5b8151611d4c81614c6e565b60006020828403121561456c57600080fd5b5035919050565b60006020828403121561458557600080fd5b5051919050565b6000806040838503121561459f57600080fd5b8235915060208301356145b181614c59565b809150509250929050565b6000602082840312156145ce57600080fd5b81356001600160e01b031981168114611d4c57600080fd5b600061012082840312156145f957600080fd5b50919050565b6000806040838503121561461257600080fd5b505080516020909101519092909150565b60008060006060848603121561463857600080fd5b505081359360208301359350604090920135919050565b60008060006060848603121561466457600080fd5b8351925060208401519150604084015190509250925092565b600080600080600060a0868803121561469557600080fd5b61469e86614315565b94506020860151935060408601519250606086015191506146c160808701614315565b90509295509295909350565b6000602082840312156146df57600080fd5b815160ff81168114611d4c57600080fd5b600081518084526020808501945080840160005b8381101561474457815180516001600160a01b03908116895284820151168489015260409081015115159088015260609096019590820190600101614704565b509495945050505050565b60008251614761818460208701614bb9565b9190910192915050565b7f416363657373436f6e74726f6c3a206163636f756e74200000000000000000008152600083516147a3816017850160208801614bb9565b7001034b99036b4b9b9b4b733903937b6329607d1b60179184019182015283516147d4816028840160208801614bb9565b01602801949350505050565b6001600160a01b039889168152968816602088015294151560408701526060860193909352608085019190915260a084015290921660c082015260e08101919091526101000190565b6001600160a01b038381168252604060208084018290528451918401829052600092858201929091906060860190855b81811015614877578551851683529483019491830191600101614859565b509098975050505050505050565b60208152600082518060208401526148a4816040850160208701614bb9565b601f01601f19169190910160400192915050565b6020808252601f908201527f5265737472696374656420746f20504f5254464f4c494f5f4d414e4147455200604082015260600190565b6020808252602c908201527f46756e6374696f6e206d7573742062652063616c6c6564207468726f7567682060408201526b19195b1959d85d1958d85b1b60a21b606082015260800190565b6020808252602c908201527f46756e6374696f6e206d7573742062652063616c6c6564207468726f7567682060408201526b6163746976652070726f787960a01b606082015260800190565b6020808252602e908201527f496e697469616c697a61626c653a20636f6e747261637420697320616c72656160408201526d191e481a5b9a5d1a585b1a5e995960921b606082015260800190565b82815260406020820152600061167360408301846146f0565b85815284602082015260a060408201526000614a0d60a08301866146f0565b6001600160a01b0394909416606083015250608001529392505050565b604051601f8201601f1916810167ffffffffffffffff81118282101715614a5357614a53614c43565b604052919050565b60008219821115614a6e57614a6e614c17565b500190565b600082614a9057634e487b7160e01b600052601260045260246000fd5b500490565b600181815b80851115614ad0578160001904821115614ab657614ab6614c17565b80851615614ac357918102915b93841c9390800290614a9a565b509250929050565b6000611d4c60ff841683600082614af1575060016106bd565b81614afe575060006106bd565b8160018114614b145760028114614b1e57614b3a565b60019150506106bd565b60ff841115614b2f57614b2f614c17565b50506001821b6106bd565b5060208310610133831016604e8410600b8410161715614b5d575081810a6106bd565b614b678383614a95565b8060001904821115614b7b57614b7b614c17565b029392505050565b6000816000190483118215151615614b9d57614b9d614c17565b500290565b600082821015614bb457614bb4614c17565b500390565b60005b83811015614bd4578181015183820152602001614bbc565b838111156133ce5750506000910152565b600081614bf457614bf4614c17565b506000190190565b6000600019821415614c1057614c10614c17565b5060010190565b634e487b7160e01b600052601160045260246000fd5b634e487b7160e01b600052603260045260246000fd5b634e487b7160e01b600052604160045260246000fd5b6001600160a01b038116811461085e57600080fd5b801515811461085e57600080fdfe90c2aa7471c04182221f68e80c07ab1e5946e4c63f8693e14ca40385d529f051360894a13ba1a3210667c828492db98dca3e2076cc3735a920a3ca505d382bbc416464726573733a206c6f772d6c6576656c2064656c65676174652063616c6c206661696c6564a26469706673582212205f5d604d4e05bbc2dc5cfcfa2f2d465704c8230ceca44d45f3f27bcfcb89693064736f6c63430008060033",
  "implementation": "0x2d4ebFae4d8aE622C5A7216a638fcECdcCa32bD1",
  "devdoc": {
    "kind": "dev",
    "methods": {
      "constructor": {
        "custom:oz-upgrades-unsafe-allow": "constructor"
      },
      "getRoleAdmin(bytes32)": {
        "details": "Returns the admin role that controls `role`. See {grantRole} and {revokeRole}. To change a role's admin, use {_setRoleAdmin}."
      },
      "grantRole(bytes32,address)": {
        "details": "Grants `role` to `account`. If `account` had not been already granted `role`, emits a {RoleGranted} event. Requirements: - the caller must have ``role``'s admin role. May emit a {RoleGranted} event."
      },
      "hasRole(bytes32,address)": {
        "details": "Returns `true` if `account` has been granted `role`."
      },
      "proxiableUUID()": {
        "details": "Implementation of the ERC1822 {proxiableUUID} function. This returns the storage slot used by the implementation. It is used to validate that the this implementation remains valid after an upgrade. IMPORTANT: A proxy pointing at a proxiable contract should not be considered proxiable itself, because this risks bricking a proxy that upgrades to it, by delegating to itself until out of gas. Thus it is critical that this function revert if invoked through a proxy. This is guaranteed by the `notDelegated` modifier."
      },
      "renounceRole(bytes32,address)": {
        "details": "Revokes `role` from the calling account. Roles are often managed via {grantRole} and {revokeRole}: this function's purpose is to provide a mechanism for accounts to lose their privileges if they are compromised (such as when a trusted device is misplaced). If the calling account had been revoked `role`, emits a {RoleRevoked} event. Requirements: - the caller must be `account`. May emit a {RoleRevoked} event."
      },
      "revokeRole(bytes32,address)": {
        "details": "Revokes `role` from `account`. If `account` had been granted `role`, emits a {RoleRevoked} event. Requirements: - the caller must have ``role``'s admin role. May emit a {RoleRevoked} event."
      },
      "supportsInterface(bytes4)": {
        "details": "See {IERC165-supportsInterface}."
      },
      "upgradeTo(address)": {
        "details": "Upgrade the implementation of the proxy to `newImplementation`. Calls {_authorizeUpgrade}. Emits an {Upgraded} event."
      },
      "upgradeToAndCall(address,bytes)": {
        "details": "Upgrade the implementation of the proxy to `newImplementation`, and subsequently execute the function call encoded in `data`. Calls {_authorizeUpgrade}. Emits an {Upgraded} event."
      }
    },
    "version": 1
  },
  "userdoc": {
    "kind": "user",
    "methods": {},
    "version": 1
  },
  "storageLayout": {
    "storage": [
      {
        "astId": 808,
        "contract": "contracts/StrategySterlingUsdcUsdt.sol:StrategySterlingUsdcUsdt",
        "label": "_initialized",
        "offset": 0,
        "slot": "0",
        "type": "t_uint8"
      },
      {
        "astId": 811,
        "contract": "contracts/StrategySterlingUsdcUsdt.sol:StrategySterlingUsdcUsdt",
        "label": "_initializing",
        "offset": 1,
        "slot": "0",
        "type": "t_bool"
      },
      {
        "astId": 1372,
        "contract": "contracts/StrategySterlingUsdcUsdt.sol:StrategySterlingUsdcUsdt",
        "label": "__gap",
        "offset": 0,
        "slot": "1",
        "type": "t_array(t_uint256)50_storage"
      },
      {
        "astId": 1702,
        "contract": "contracts/StrategySterlingUsdcUsdt.sol:StrategySterlingUsdcUsdt",
        "label": "__gap",
        "offset": 0,
        "slot": "51",
        "type": "t_array(t_uint256)50_storage"
      },
      {
        "astId": 39,
        "contract": "contracts/StrategySterlingUsdcUsdt.sol:StrategySterlingUsdcUsdt",
        "label": "_roles",
        "offset": 0,
        "slot": "101",
        "type": "t_mapping(t_bytes32,t_struct(RoleData)34_storage)"
      },
      {
        "astId": 338,
        "contract": "contracts/StrategySterlingUsdcUsdt.sol:StrategySterlingUsdcUsdt",
        "label": "__gap",
        "offset": 0,
        "slot": "102",
        "type": "t_array(t_uint256)49_storage"
      },
      {
        "astId": 790,
        "contract": "contracts/StrategySterlingUsdcUsdt.sol:StrategySterlingUsdcUsdt",
        "label": "__gap",
        "offset": 0,
        "slot": "151",
        "type": "t_array(t_uint256)50_storage"
      },
      {
        "astId": 1087,
        "contract": "contracts/StrategySterlingUsdcUsdt.sol:StrategySterlingUsdcUsdt",
        "label": "__gap",
        "offset": 0,
        "slot": "201",
        "type": "t_array(t_uint256)50_storage"
      },
      {
        "astId": 4537,
        "contract": "contracts/StrategySterlingUsdcUsdt.sol:StrategySterlingUsdcUsdt",
        "label": "portfolioManager",
        "offset": 0,
        "slot": "251",
        "type": "t_address"
      },
      {
        "astId": 4539,
        "contract": "contracts/StrategySterlingUsdcUsdt.sol:StrategySterlingUsdcUsdt",
        "label": "swapSlippageBP",
        "offset": 0,
        "slot": "252",
        "type": "t_uint256"
      },
      {
        "astId": 4541,
        "contract": "contracts/StrategySterlingUsdcUsdt.sol:StrategySterlingUsdcUsdt",
        "label": "navSlippageBP",
        "offset": 0,
        "slot": "253",
        "type": "t_uint256"
      },
      {
        "astId": 4543,
        "contract": "contracts/StrategySterlingUsdcUsdt.sol:StrategySterlingUsdcUsdt",
        "label": "stakeSlippageBP",
        "offset": 0,
        "slot": "254",
        "type": "t_uint256"
      },
      {
        "astId": 4928,
        "contract": "contracts/StrategySterlingUsdcUsdt.sol:StrategySterlingUsdcUsdt",
        "label": "__gap",
        "offset": 0,
        "slot": "255",
        "type": "t_array(t_uint256)46_storage"
      },
      {
        "astId": 5021,
        "contract": "contracts/StrategySterlingUsdcUsdt.sol:StrategySterlingUsdcUsdt",
        "label": "usdc",
        "offset": 0,
        "slot": "301",
        "type": "t_contract(IERC20)1793"
      },
      {
        "astId": 5024,
        "contract": "contracts/StrategySterlingUsdcUsdt.sol:StrategySterlingUsdcUsdt",
        "label": "usdt",
        "offset": 0,
        "slot": "302",
        "type": "t_contract(IERC20)1793"
      },
      {
        "astId": 5027,
        "contract": "contracts/StrategySterlingUsdcUsdt.sol:StrategySterlingUsdcUsdt",
        "label": "str",
        "offset": 0,
        "slot": "303",
        "type": "t_contract(IERC20)1793"
      },
      {
        "astId": 5029,
        "contract": "contracts/StrategySterlingUsdcUsdt.sol:StrategySterlingUsdcUsdt",
        "label": "usdcDm",
        "offset": 0,
        "slot": "304",
        "type": "t_uint256"
      },
      {
        "astId": 5031,
        "contract": "contracts/StrategySterlingUsdcUsdt.sol:StrategySterlingUsdcUsdt",
        "label": "usdtDm",
        "offset": 0,
        "slot": "305",
        "type": "t_uint256"
      },
      {
        "astId": 5034,
        "contract": "contracts/StrategySterlingUsdcUsdt.sol:StrategySterlingUsdcUsdt",
        "label": "router",
        "offset": 0,
        "slot": "306",
        "type": "t_contract(ISterlingRouter)3880"
      },
      {
        "astId": 5037,
        "contract": "contracts/StrategySterlingUsdcUsdt.sol:StrategySterlingUsdcUsdt",
        "label": "gauge",
        "offset": 0,
        "slot": "307",
        "type": "t_contract(ISterlingGauge)3942"
      },
      {
        "astId": 5040,
        "contract": "contracts/StrategySterlingUsdcUsdt.sol:StrategySterlingUsdcUsdt",
        "label": "pair",
        "offset": 0,
        "slot": "308",
        "type": "t_contract(ISterlingPair)3914"
      },
      {
        "astId": 5043,
        "contract": "contracts/StrategySterlingUsdcUsdt.sol:StrategySterlingUsdcUsdt",
        "label": "oracleUsdc",
        "offset": 0,
        "slot": "309",
        "type": "t_contract(IPriceFeed)2001"
      },
      {
        "astId": 5046,
        "contract": "contracts/StrategySterlingUsdcUsdt.sol:StrategySterlingUsdcUsdt",
        "label": "oracleUsdt",
        "offset": 0,
        "slot": "310",
        "type": "t_contract(IPriceFeed)2001"
      },
      {
        "astId": 5048,
        "contract": "contracts/StrategySterlingUsdcUsdt.sol:StrategySterlingUsdcUsdt",
        "label": "curvePool",
        "offset": 0,
        "slot": "311",
        "type": "t_address"
      }
    ],
    "types": {
      "t_address": {
        "encoding": "inplace",
        "label": "address",
        "numberOfBytes": "20"
      },
      "t_array(t_uint256)46_storage": {
        "base": "t_uint256",
        "encoding": "inplace",
        "label": "uint256[46]",
        "numberOfBytes": "1472"
      },
      "t_array(t_uint256)49_storage": {
        "base": "t_uint256",
        "encoding": "inplace",
        "label": "uint256[49]",
        "numberOfBytes": "1568"
      },
      "t_array(t_uint256)50_storage": {
        "base": "t_uint256",
        "encoding": "inplace",
        "label": "uint256[50]",
        "numberOfBytes": "1600"
      },
      "t_bool": {
        "encoding": "inplace",
        "label": "bool",
        "numberOfBytes": "1"
      },
      "t_bytes32": {
        "encoding": "inplace",
        "label": "bytes32",
        "numberOfBytes": "32"
      },
      "t_contract(IERC20)1793": {
        "encoding": "inplace",
        "label": "contract IERC20",
        "numberOfBytes": "20"
      },
      "t_contract(IPriceFeed)2001": {
        "encoding": "inplace",
        "label": "contract IPriceFeed",
        "numberOfBytes": "20"
      },
      "t_contract(ISterlingGauge)3942": {
        "encoding": "inplace",
        "label": "contract ISterlingGauge",
        "numberOfBytes": "20"
      },
      "t_contract(ISterlingPair)3914": {
        "encoding": "inplace",
        "label": "contract ISterlingPair",
        "numberOfBytes": "20"
      },
      "t_contract(ISterlingRouter)3880": {
        "encoding": "inplace",
        "label": "contract ISterlingRouter",
        "numberOfBytes": "20"
      },
      "t_mapping(t_address,t_bool)": {
        "encoding": "mapping",
        "key": "t_address",
        "label": "mapping(address => bool)",
        "numberOfBytes": "32",
        "value": "t_bool"
      },
      "t_mapping(t_bytes32,t_struct(RoleData)34_storage)": {
        "encoding": "mapping",
        "key": "t_bytes32",
        "label": "mapping(bytes32 => struct AccessControlUpgradeable.RoleData)",
        "numberOfBytes": "32",
        "value": "t_struct(RoleData)34_storage"
      },
      "t_struct(RoleData)34_storage": {
        "encoding": "inplace",
        "label": "struct AccessControlUpgradeable.RoleData",
        "members": [
          {
            "astId": 31,
            "contract": "contracts/StrategySterlingUsdcUsdt.sol:StrategySterlingUsdcUsdt",
            "label": "members",
            "offset": 0,
            "slot": "0",
            "type": "t_mapping(t_address,t_bool)"
          },
          {
            "astId": 33,
            "contract": "contracts/StrategySterlingUsdcUsdt.sol:StrategySterlingUsdcUsdt",
            "label": "adminRole",
            "offset": 0,
            "slot": "1",
            "type": "t_bytes32"
          }
        ],
        "numberOfBytes": "64"
      },
      "t_uint256": {
        "encoding": "inplace",
        "label": "uint256",
        "numberOfBytes": "32"
      },
      "t_uint8": {
        "encoding": "inplace",
        "label": "uint8",
        "numberOfBytes": "1"
      }
    }
  }
}