{
  "address": "0x95bfd5F980aCc358Ecaafa84Ae61571750F46b1E",
  "abi": [
    {
      "inputs": [],
      "stateMutability": "nonpayable",
      "type": "constructor"
    },
    {
      "anonymous": false,
      "inputs": [
        {
          "indexed": false,
          "internalType": "address",
          "name": "previousAdmin",
          "type": "address"
        },
        {
          "indexed": false,
          "internalType": "address",
          "name": "newAdmin",
          "type": "address"
        }
      ],
      "name": "AdminChanged",
      "type": "event"
    },
    {
      "anonymous": false,
      "inputs": [
        {
          "indexed": true,
          "internalType": "address",
          "name": "beacon",
          "type": "address"
        }
      ],
      "name": "BeaconUpgraded",
      "type": "event"
    },
    {
      "anonymous": false,
      "inputs": [
        {
          "indexed": false,
          "internalType": "uint8",
          "name": "version",
          "type": "uint8"
        }
      ],
      "name": "Initialized",
      "type": "event"
    },
    {
      "anonymous": false,
      "inputs": [
        {
          "indexed": false,
          "internalType": "address",
          "name": "value",
          "type": "address"
        }
      ],
      "name": "PortfolioManagerUpdated",
      "type": "event"
    },
    {
      "anonymous": false,
      "inputs": [
        {
          "indexed": false,
          "internalType": "uint256",
          "name": "amount",
          "type": "uint256"
        }
      ],
      "name": "Reward",
      "type": "event"
    },
    {
      "anonymous": false,
      "inputs": [
        {
          "indexed": true,
          "internalType": "bytes32",
          "name": "role",
          "type": "bytes32"
        },
        {
          "indexed": true,
          "internalType": "bytes32",
          "name": "previousAdminRole",
          "type": "bytes32"
        },
        {
          "indexed": true,
          "internalType": "bytes32",
          "name": "newAdminRole",
          "type": "bytes32"
        }
      ],
      "name": "RoleAdminChanged",
      "type": "event"
    },
    {
      "anonymous": false,
      "inputs": [
        {
          "indexed": true,
          "internalType": "bytes32",
          "name": "role",
          "type": "bytes32"
        },
        {
          "indexed": true,
          "internalType": "address",
          "name": "account",
          "type": "address"
        },
        {
          "indexed": true,
          "internalType": "address",
          "name": "sender",
          "type": "address"
        }
      ],
      "name": "RoleGranted",
      "type": "event"
    },
    {
      "anonymous": false,
      "inputs": [
        {
          "indexed": true,
          "internalType": "bytes32",
          "name": "role",
          "type": "bytes32"
        },
        {
          "indexed": true,
          "internalType": "address",
          "name": "account",
          "type": "address"
        },
        {
          "indexed": true,
          "internalType": "address",
          "name": "sender",
          "type": "address"
        }
      ],
      "name": "RoleRevoked",
      "type": "event"
    },
    {
      "anonymous": false,
      "inputs": [
        {
          "indexed": false,
          "internalType": "uint256",
          "name": "swapSlippageBP",
          "type": "uint256"
        },
        {
          "indexed": false,
          "internalType": "uint256",
          "name": "navSlippageBP",
          "type": "uint256"
        },
        {
          "indexed": false,
          "internalType": "uint256",
          "name": "stakeSlippageBP",
          "type": "uint256"
        }
      ],
      "name": "SlippagesUpdated",
      "type": "event"
    },
    {
      "anonymous": false,
      "inputs": [
        {
          "indexed": false,
          "internalType": "uint256",
          "name": "amount",
          "type": "uint256"
        }
      ],
      "name": "Stake",
      "type": "event"
    },
    {
      "anonymous": false,
      "inputs": [],
      "name": "StrategyUpdatedParams",
      "type": "event"
    },
    {
      "anonymous": false,
      "inputs": [
        {
          "indexed": false,
          "internalType": "uint256",
          "name": "amount",
          "type": "uint256"
        },
        {
          "indexed": false,
          "internalType": "uint256",
          "name": "amountReceived",
          "type": "uint256"
        }
      ],
      "name": "Unstake",
      "type": "event"
    },
    {
      "anonymous": false,
      "inputs": [
        {
          "indexed": true,
          "internalType": "address",
          "name": "implementation",
          "type": "address"
        }
      ],
      "name": "Upgraded",
      "type": "event"
    },
    {
      "inputs": [],
      "name": "DEFAULT_ADMIN_ROLE",
      "outputs": [
        {
          "internalType": "bytes32",
          "name": "",
          "type": "bytes32"
        }
      ],
      "stateMutability": "view",
      "type": "function"
    },
    {
      "inputs": [],
      "name": "PORTFOLIO_AGENT_ROLE",
      "outputs": [
        {
          "internalType": "bytes32",
          "name": "",
          "type": "bytes32"
        }
      ],
      "stateMutability": "view",
      "type": "function"
    },
    {
      "inputs": [],
      "name": "PORTFOLIO_MANAGER",
      "outputs": [
        {
          "internalType": "bytes32",
          "name": "",
          "type": "bytes32"
        }
      ],
      "stateMutability": "view",
      "type": "function"
    },
    {
      "inputs": [],
      "name": "arbToken",
      "outputs": [
        {
          "internalType": "contract IERC20",
          "name": "",
          "type": "address"
        }
      ],
      "stateMutability": "view",
      "type": "function"
    },
    {
      "inputs": [],
      "name": "assetDm",
      "outputs": [
        {
          "internalType": "uint256",
          "name": "",
          "type": "uint256"
        }
      ],
      "stateMutability": "view",
      "type": "function"
    },
    {
      "inputs": [],
      "name": "camelotRouter",
      "outputs": [
        {
          "internalType": "contract ICamelotRouter",
          "name": "",
          "type": "address"
        }
      ],
      "stateMutability": "view",
      "type": "function"
    },
    {
      "inputs": [
        {
          "internalType": "address",
          "name": "_to",
          "type": "address"
        }
      ],
      "name": "claimRewards",
      "outputs": [
        {
          "internalType": "uint256",
          "name": "",
          "type": "uint256"
        }
      ],
      "stateMutability": "nonpayable",
      "type": "function"
    },
    {
      "inputs": [],
      "name": "distributor",
      "outputs": [
        {
          "internalType": "contract IDistributor",
          "name": "",
          "type": "address"
        }
      ],
      "stateMutability": "view",
      "type": "function"
    },
    {
      "inputs": [
        {
          "internalType": "bytes32",
          "name": "role",
          "type": "bytes32"
        }
      ],
      "name": "getRoleAdmin",
      "outputs": [
        {
          "internalType": "bytes32",
          "name": "",
          "type": "bytes32"
        }
      ],
      "stateMutability": "view",
      "type": "function"
    },
    {
      "inputs": [
        {
          "internalType": "bytes32",
          "name": "role",
          "type": "bytes32"
        },
        {
          "internalType": "address",
          "name": "account",
          "type": "address"
        }
      ],
      "name": "grantRole",
      "outputs": [],
      "stateMutability": "nonpayable",
      "type": "function"
    },
    {
      "inputs": [
        {
          "internalType": "bytes32",
          "name": "role",
          "type": "bytes32"
        },
        {
          "internalType": "address",
          "name": "account",
          "type": "address"
        }
      ],
      "name": "hasRole",
      "outputs": [
        {
          "internalType": "bool",
          "name": "",
          "type": "bool"
        }
      ],
      "stateMutability": "view",
      "type": "function"
    },
    {
      "inputs": [],
      "name": "inchSwapper",
      "outputs": [
        {
          "internalType": "contract IInchSwapper",
          "name": "",
          "type": "address"
        }
      ],
      "stateMutability": "view",
      "type": "function"
    },
    {
      "inputs": [],
      "name": "initialize",
      "outputs": [],
      "stateMutability": "nonpayable",
      "type": "function"
    },
    {
      "inputs": [],
      "name": "liquidationValue",
      "outputs": [
        {
          "internalType": "uint256",
          "name": "",
          "type": "uint256"
        }
      ],
      "stateMutability": "view",
      "type": "function"
    },
    {
      "inputs": [],
      "name": "name",
      "outputs": [
        {
          "internalType": "string",
          "name": "",
          "type": "string"
        }
      ],
      "stateMutability": "view",
      "type": "function"
    },
    {
      "inputs": [],
      "name": "navSlippageBP",
      "outputs": [
        {
          "internalType": "uint256",
          "name": "",
          "type": "uint256"
        }
      ],
      "stateMutability": "view",
      "type": "function"
    },
    {
      "inputs": [],
      "name": "netAssetValue",
      "outputs": [
        {
          "internalType": "uint256",
          "name": "",
          "type": "uint256"
        }
      ],
      "stateMutability": "view",
      "type": "function"
    },
    {
      "inputs": [],
      "name": "oracleAsset",
      "outputs": [
        {
          "internalType": "contract IPriceFeed",
          "name": "",
          "type": "address"
        }
      ],
      "stateMutability": "view",
      "type": "function"
    },
    {
      "inputs": [],
      "name": "oracleUnderlyingAsset",
      "outputs": [
        {
          "internalType": "contract IPriceFeed",
          "name": "",
          "type": "address"
        }
      ],
      "stateMutability": "view",
      "type": "function"
    },
    {
      "inputs": [],
      "name": "portfolioManager",
      "outputs": [
        {
          "internalType": "address",
          "name": "",
          "type": "address"
        }
      ],
      "stateMutability": "view",
      "type": "function"
    },
    {
      "inputs": [],
      "name": "proxiableUUID",
      "outputs": [
        {
          "internalType": "bytes32",
          "name": "",
          "type": "bytes32"
        }
      ],
      "stateMutability": "view",
      "type": "function"
    },
    {
      "inputs": [
        {
          "internalType": "bytes32",
          "name": "role",
          "type": "bytes32"
        },
        {
          "internalType": "address",
          "name": "account",
          "type": "address"
        }
      ],
      "name": "renounceRole",
      "outputs": [],
      "stateMutability": "nonpayable",
      "type": "function"
    },
    {
      "inputs": [
        {
          "internalType": "bytes32",
          "name": "role",
          "type": "bytes32"
        },
        {
          "internalType": "address",
          "name": "account",
          "type": "address"
        }
      ],
      "name": "revokeRole",
      "outputs": [],
      "stateMutability": "nonpayable",
      "type": "function"
    },
    {
      "inputs": [],
      "name": "rewardWallet",
      "outputs": [
        {
          "internalType": "address",
          "name": "",
          "type": "address"
        }
      ],
      "stateMutability": "view",
      "type": "function"
    },
    {
      "inputs": [],
      "name": "roleManager",
      "outputs": [
        {
          "internalType": "contract IRoleManager",
          "name": "",
          "type": "address"
        }
      ],
      "stateMutability": "view",
      "type": "function"
    },
    {
      "inputs": [
        {
          "components": [
            {
              "internalType": "address",
              "name": "usdc",
              "type": "address"
            },
            {
              "internalType": "address",
              "name": "silo",
              "type": "address"
            },
            {
              "internalType": "address",
              "name": "siloIncentivesController",
              "type": "address"
            },
            {
              "internalType": "address",
              "name": "siloTower",
              "type": "address"
            },
            {
              "internalType": "address",
              "name": "siloToken",
              "type": "address"
            },
            {
              "internalType": "address",
              "name": "arbToken",
              "type": "address"
            },
            {
              "internalType": "address",
              "name": "rewardWallet",
              "type": "address"
            },
            {
              "internalType": "address",
              "name": "wethToken",
              "type": "address"
            },
            {
              "internalType": "address",
              "name": "camelotRouter",
              "type": "address"
            },
            {
              "internalType": "address",
              "name": "underlyingAsset",
              "type": "address"
            },
            {
              "internalType": "address",
              "name": "oracleAsset",
              "type": "address"
            },
            {
              "internalType": "address",
              "name": "oracleUnderlyingAsset",
              "type": "address"
            },
            {
              "internalType": "address",
              "name": "inchSwapper",
              "type": "address"
            },
            {
              "internalType": "address",
              "name": "distributor",
              "type": "address"
            }
          ],
          "internalType": "struct StrategySiloUsdc.StrategyParams",
          "name": "params",
          "type": "tuple"
        }
      ],
      "name": "setParams",
      "outputs": [],
      "stateMutability": "nonpayable",
      "type": "function"
    },
    {
      "inputs": [
        {
          "internalType": "uint256",
          "name": "_swapSlippageBP",
          "type": "uint256"
        },
        {
          "internalType": "uint256",
          "name": "_navSlippageBP",
          "type": "uint256"
        },
        {
          "internalType": "uint256",
          "name": "_stakeSlippageBP",
          "type": "uint256"
        }
      ],
      "name": "setSlippages",
      "outputs": [],
      "stateMutability": "nonpayable",
      "type": "function"
    },
    {
      "inputs": [
        {
          "internalType": "address",
          "name": "_portfolioManager",
          "type": "address"
        },
        {
          "internalType": "address",
          "name": "_roleManager",
          "type": "address"
        },
        {
          "internalType": "string",
          "name": "_name",
          "type": "string"
        }
      ],
      "name": "setStrategyParams",
      "outputs": [],
      "stateMutability": "nonpayable",
      "type": "function"
    },
    {
      "inputs": [],
      "name": "silo",
      "outputs": [
        {
          "internalType": "contract ISilo",
          "name": "",
          "type": "address"
        }
      ],
      "stateMutability": "view",
      "type": "function"
    },
    {
      "inputs": [],
      "name": "siloIncentivesController",
      "outputs": [
        {
          "internalType": "contract ISiloIncentivesController",
          "name": "",
          "type": "address"
        }
      ],
      "stateMutability": "view",
      "type": "function"
    },
    {
      "inputs": [],
      "name": "siloToken",
      "outputs": [
        {
          "internalType": "contract IERC20",
          "name": "",
          "type": "address"
        }
      ],
      "stateMutability": "view",
      "type": "function"
    },
    {
      "inputs": [],
      "name": "siloTower",
      "outputs": [
        {
          "internalType": "address",
          "name": "",
          "type": "address"
        }
      ],
      "stateMutability": "view",
      "type": "function"
    },
    {
      "inputs": [
        {
          "internalType": "address",
          "name": "_asset",
          "type": "address"
        },
        {
          "internalType": "uint256",
          "name": "_amount",
          "type": "uint256"
        }
      ],
      "name": "stake",
      "outputs": [],
      "stateMutability": "nonpayable",
      "type": "function"
    },
    {
      "inputs": [],
      "name": "stakeSlippageBP",
      "outputs": [
        {
          "internalType": "uint256",
          "name": "",
          "type": "uint256"
        }
      ],
      "stateMutability": "view",
      "type": "function"
    },
    {
      "inputs": [
        {
          "internalType": "bytes4",
          "name": "interfaceId",
          "type": "bytes4"
        }
      ],
      "name": "supportsInterface",
      "outputs": [
        {
          "internalType": "bool",
          "name": "",
          "type": "bool"
        }
      ],
      "stateMutability": "view",
      "type": "function"
    },
    {
      "inputs": [],
      "name": "swapSlippageBP",
      "outputs": [
        {
          "internalType": "uint256",
          "name": "",
          "type": "uint256"
        }
      ],
      "stateMutability": "view",
      "type": "function"
    },
    {
      "inputs": [],
      "name": "underlyingAsset",
      "outputs": [
        {
          "internalType": "contract IERC20",
          "name": "",
          "type": "address"
        }
      ],
      "stateMutability": "view",
      "type": "function"
    },
    {
      "inputs": [],
      "name": "underlyingAssetDm",
      "outputs": [
        {
          "internalType": "uint256",
          "name": "",
          "type": "uint256"
        }
      ],
      "stateMutability": "view",
      "type": "function"
    },
    {
      "inputs": [
        {
          "internalType": "address",
          "name": "_asset",
          "type": "address"
        },
        {
          "internalType": "uint256",
          "name": "_amount",
          "type": "uint256"
        },
        {
          "internalType": "address",
          "name": "_beneficiary",
          "type": "address"
        },
        {
          "internalType": "bool",
          "name": "_targetIsZero",
          "type": "bool"
        }
      ],
      "name": "unstake",
      "outputs": [
        {
          "internalType": "uint256",
          "name": "",
          "type": "uint256"
        }
      ],
      "stateMutability": "nonpayable",
      "type": "function"
    },
    {
      "inputs": [
        {
          "internalType": "address",
          "name": "newImplementation",
          "type": "address"
        }
      ],
      "name": "upgradeTo",
      "outputs": [],
      "stateMutability": "nonpayable",
      "type": "function"
    },
    {
      "inputs": [
        {
          "internalType": "address",
          "name": "newImplementation",
          "type": "address"
        },
        {
          "internalType": "bytes",
          "name": "data",
          "type": "bytes"
        }
      ],
      "name": "upgradeToAndCall",
      "outputs": [],
      "stateMutability": "payable",
      "type": "function"
    },
    {
      "inputs": [],
      "name": "usdc",
      "outputs": [
        {
          "internalType": "contract IERC20",
          "name": "",
          "type": "address"
        }
      ],
      "stateMutability": "view",
      "type": "function"
    },
    {
      "inputs": [],
      "name": "wethToken",
      "outputs": [
        {
          "internalType": "contract IERC20",
          "name": "",
          "type": "address"
        }
      ],
      "stateMutability": "view",
      "type": "function"
    },
    {
      "inputs": [
        {
          "internalType": "address",
          "name": "operator",
          "type": "address"
        }
      ],
      "name": "whitelistAngleOperator",
      "outputs": [],
      "stateMutability": "nonpayable",
      "type": "function"
    },
    {
      "inputs": [
        {
          "internalType": "address",
          "name": "to",
          "type": "address"
        },
        {
          "internalType": "uint256",
          "name": "amount",
          "type": "uint256"
        }
      ],
      "name": "withdrawArbRewards",
      "outputs": [],
      "stateMutability": "nonpayable",
      "type": "function"
    }
  ],
  "numDeployments": 10,
  "solcInputHash": "2662c65e1c573d5a6ca77f99f212fb23",
  "bytecode": "0x60a0604052306080523480156200001557600080fd5b50600054610100900460ff1615808015620000375750600054600160ff909116105b8062000067575062000054306200014160201b62001b691760201c565b15801562000067575060005460ff166001145b620000cf5760405162461bcd60e51b815260206004820152602e60248201527f496e697469616c697a61626c653a20636f6e747261637420697320616c72656160448201526d191e481a5b9a5d1a585b1a5e995960921b606482015260840160405180910390fd5b6000805460ff191660011790558015620000f3576000805461ff0019166101001790555b80156200013a576000805461ff0019169055604051600181527f7f26b83ff96e1f2b6a682f133852f6798a09c465da95921460cefb38474024989060200160405180910390a15b5062000150565b6001600160a01b03163b151590565b60805161470d62000188600039600081816109f401528181610a3401528181610abc01528181610afc0152610b74015261470d6000f3fe6080604052600436106102715760003560e01c806360d95f6a1161014f578063aacd344d116100c1578063e5700fd41161007a578063e5700fd41461074b578063eb3beb291461076c578063ef5cfb8c1461078d578063f6f6b881146107ad578063fa2ae9ff146107cd578063fb75b2c7146107ed57600080fd5b8063aacd344d14610693578063adc9772e146106b4578063ae30c110146106d4578063bf52e080146106f4578063bfe109281461070a578063d547741f1461072b57600080fd5b80638129fc1c116101135780638129fc1c146105f457806386925e2a146106095780638a5ddc031461062957806391d1485414610649578063a217fddf14610669578063a3673b381461067e57600080fd5b806360d95f6a1461054757806360f8b0141461055e578063620b75df1461057f5780637158da7c1461059f5780637d5f5802146105c057600080fd5b806336568abe116101e857806352d1902d116101ac57806352d1902d146104a257806357a8b8ed146104b75780635c6335e9146104ce5780635c9bb1c9146104ef5780635ca558f81461050f5780635dbd733a1461052557600080fd5b806336568abe1461040d5780633659cfe61461042d5780633e413bee1461044d5780634b57b0be1461046e5780634f1ef2861461048f57600080fd5b80631ae8432d1161023a5780631ae8432d14610343578063248a9ca3146103645780632576e65a1461039457806327c0541b146103a95780632c0d9814146103ca5780632f2ff15d146103eb57600080fd5b8062435da51461027657806301ffc9a7146102ac57806306fdde03146102dc5780630b90686e146102fe578063119cd8791461031f575b600080fd5b34801561028257600080fd5b5060ff54610296906001600160a01b031681565b6040516102a39190613a12565b60405180910390f35b3480156102b857600080fd5b506102cc6102c7366004613a26565b61080e565b60405190151581526020016102a3565b3480156102e857600080fd5b506102f1610845565b6040516102a39190613a74565b34801561030a57600080fd5b5061013b54610296906001600160a01b031681565b34801561032b57600080fd5b5061033560fd5481565b6040519081526020016102a3565b34801561034f57600080fd5b5061013454610296906001600160a01b031681565b34801561037057600080fd5b5061033561037f366004613aa7565b60009081526065602052604090206001015490565b3480156103a057600080fd5b506103356108d4565b3480156103b557600080fd5b5061013754610296906001600160a01b031681565b3480156103d657600080fd5b5061013154610296906001600160a01b031681565b3480156103f757600080fd5b5061040b610406366004613ad5565b61093d565b005b34801561041957600080fd5b5061040b610428366004613ad5565b610967565b34801561043957600080fd5b5061040b610448366004613b05565b6109ea565b34801561045957600080fd5b5061012d54610296906001600160a01b031681565b34801561047a57600080fd5b5061013254610296906001600160a01b031681565b61040b61049d366004613bbf565b610ab2565b3480156104ae57600080fd5b50610335610b67565b3480156104c357600080fd5b506103356101395481565b3480156104da57600080fd5b5061013054610296906001600160a01b031681565b3480156104fb57600080fd5b5061040b61050a366004613c22565b610c15565b34801561051b57600080fd5b5061033560fe5481565b34801561053157600080fd5b5061033560008051602061467183398151915281565b34801561055357600080fd5b5061033561013a5481565b34801561056a57600080fd5b5061012f54610296906001600160a01b031681565b34801561058b57600080fd5b5060fb54610296906001600160a01b031681565b3480156105ab57600080fd5b5061013654610296906001600160a01b031681565b3480156105cc57600080fd5b506103357f90c2aa7471c04182221f68e80c07ab1e5946e4c63f8693e14ca40385d529f05181565b34801561060057600080fd5b5061040b610ff6565b34801561061557600080fd5b5061040b610624366004613b05565b6110c7565b34801561063557600080fd5b5061040b610644366004613c3b565b611157565b34801561065557600080fd5b506102cc610664366004613ad5565b6112a7565b34801561067557600080fd5b50610335600081565b34801561068a57600080fd5b506103356112d2565b34801561069f57600080fd5b5061013854610296906001600160a01b031681565b3480156106c057600080fd5b5061040b6106cf366004613c3b565b6114e5565b3480156106e057600080fd5b5061040b6106ef366004613c67565b6116b0565b34801561070057600080fd5b5061033560fc5481565b34801561071657600080fd5b5061013c54610296906001600160a01b031681565b34801561073757600080fd5b5061040b610746366004613ad5565b611799565b34801561075757600080fd5b5061013354610296906001600160a01b031681565b34801561077857600080fd5b5061012e54610296906001600160a01b031681565b34801561079957600080fd5b506103356107a8366004613b05565b6117be565b3480156107b957600080fd5b506103356107c8366004613ca1565b61183a565b3480156107d957600080fd5b5061040b6107e8366004613cf4565b611ab3565b3480156107f957600080fd5b5061013554610296906001600160a01b031681565b60006001600160e01b03198216637965db0b60e01b148061083f57506301ffc9a760e01b6001600160e01b03198316145b92915050565b610100805461085390613d69565b80601f016020809104026020016040519081016040528092919081815260200182805461087f90613d69565b80156108cc5780601f106108a1576101008083540402835291602001916108cc565b820191906000526020600020905b8154815290600101906020018083116108af57829003601f168201915b505050505081565b6000306001600160a01b031663a3673b386040518163ffffffff1660e01b8152600401602060405180830381865afa158015610914573d6000803e3d6000fd5b505050506040513d601f19601f820116820180604052508101906109389190613d9d565b905090565b60008281526065602052604090206001015461095881611b78565b6109628383611b82565b505050565b6001600160a01b03811633146109dc5760405162461bcd60e51b815260206004820152602f60248201527f416363657373436f6e74726f6c3a2063616e206f6e6c792072656e6f756e636560448201526e103937b632b9903337b91039b2b63360891b60648201526084015b60405180910390fd5b6109e68282611c08565b5050565b6001600160a01b037f0000000000000000000000000000000000000000000000000000000000000000163003610a325760405162461bcd60e51b81526004016109d390613db6565b7f00000000000000000000000000000000000000000000000000000000000000006001600160a01b0316610a64611c6f565b6001600160a01b031614610a8a5760405162461bcd60e51b81526004016109d390613e02565b610a9381611c8b565b60408051600080825260208201909252610aaf91839190611c96565b50565b6001600160a01b037f0000000000000000000000000000000000000000000000000000000000000000163003610afa5760405162461bcd60e51b81526004016109d390613db6565b7f00000000000000000000000000000000000000000000000000000000000000006001600160a01b0316610b2c611c6f565b6001600160a01b031614610b525760405162461bcd60e51b81526004016109d390613e02565b610b5b82611c8b565b6109e682826001611c96565b6000306001600160a01b037f00000000000000000000000000000000000000000000000000000000000000001614610c025760405162461bcd60e51b815260206004820152603860248201527f555550535570677261646561626c653a206d757374206e6f742062652063616c6044820152771b1959081d1a1c9bdd59da0819195b1959d85d1958d85b1b60421b60648201526084016109d3565b5060008051602061469183398151915290565b610c206000336112a7565b610c3c5760405162461bcd60e51b81526004016109d390613e4e565b610c496020820182613b05565b61012d80546001600160a01b0319166001600160a01b0392909216919091179055610c7a6040820160208301613b05565b61012e80546001600160a01b0319166001600160a01b0392909216919091179055610cab6060820160408301613b05565b61012f80546001600160a01b0319166001600160a01b0392909216919091179055610cdc6080820160608301613b05565b61013080546001600160a01b0319166001600160a01b0392909216919091179055610d0d60a0820160808301613b05565b61013180546001600160a01b0319166001600160a01b0392909216919091179055610d3e60c0820160a08301613b05565b61013480546001600160a01b0319166001600160a01b0392909216919091179055610d70610100820160e08301613b05565b61013280546001600160a01b0319166001600160a01b0392909216919091179055610da160e0820160c08301613b05565b61013580546001600160a01b0319166001600160a01b0392909216919091179055610dd461012082016101008301613b05565b61013380546001600160a01b0319166001600160a01b0392909216919091179055610e0761014082016101208301613b05565b61013680546001600160a01b0319166001600160a01b0392909216919091179055610e3a6101a082016101808301613b05565b61013b80546001600160a01b0319166001600160a01b0392909216919091179055610e6d61016082016101408301613b05565b61013780546001600160a01b0319166001600160a01b0392909216919091179055610ea061018082016101608301613b05565b61013880546001600160a01b0319166001600160a01b0392909216919091179055610ece6020820182613b05565b6001600160a01b031663313ce5676040518163ffffffff1660e01b8152600401602060405180830381865afa158015610f0b573d6000803e3d6000fd5b505050506040513d601f19601f82011682018060405250810190610f2f9190613e7c565b610f3a90600a613f99565b61013955610f5061014082016101208301613b05565b6001600160a01b031663313ce5676040518163ffffffff1660e01b8152600401602060405180830381865afa158015610f8d573d6000803e3d6000fd5b505050506040513d601f19601f82011682018060405250810190610fb19190613e7c565b610fbc90600a613f99565b61013a55610fd26101c082016101a08301613b05565b61013c80546001600160a01b0319166001600160a01b039290921691909117905550565b600054610100900460ff16158080156110165750600054600160ff909116105b80611037575061102530611b69565b158015611037575060005460ff166001145b6110535760405162461bcd60e51b81526004016109d390613fa8565b6000805460ff191660011790558015611076576000805461ff0019166101001790555b61107e611e01565b8015610aaf576000805461ff0019169055604051600181527f7f26b83ff96e1f2b6a682f133852f6798a09c465da95921460cefb3847402498906020015b60405180910390a150565b6110d26000336112a7565b6110ee5760405162461bcd60e51b81526004016109d390613e4e565b61013c5460405163bdac7ca360e01b81523060048201526001600160a01b0383811660248301529091169063bdac7ca390604401600060405180830381600087803b15801561113c57600080fd5b505af1158015611150573d6000803e3d6000fd5b5050505050565b60ff54604051632474521560e21b815260008051602061467183398151915260048201523360248201526001600160a01b03909116906391d1485490604401602060405180830381865afa1580156111b3573d6000803e3d6000fd5b505050506040513d601f19601f820116820180604052508101906111d79190613ff6565b6111f35760405162461bcd60e51b81526004016109d390614013565b6101345460405163a9059cbb60e01b81526001600160a01b039091169063a9059cbb90611226908590859060040161404a565b6020604051808303816000875af1158015611245573d6000803e3d6000fd5b505050506040513d601f19601f820116820180604052508101906112699190613ff6565b6109e65760405162461bcd60e51b815260206004820152600f60248201526e151c985b9cd9995c8819985a5b1959608a1b60448201526064016109d3565b60009182526065602090815260408084206001600160a01b0393909316845291905290205460ff1690565b61013054604051631fc597f560e31b815260009182916001600160a01b039091169063fe2cbfa89061130690600401614063565b602060405180830381865afa158015611323573d6000803e3d6000fd5b505050506040513d601f19601f820116820180604052508101906113479190614085565b61012e5461013654604051632c00fb0560e21b81529293506000926001600160a01b038086169363b003ec14936113889391831692169030906004016140a2565b602060405180830381865afa1580156113a5573d6000803e3d6000fd5b505050506040513d601f19601f820116820180604052508101906113c99190613d9d565b61012d546040516370a0823160e01b81529192506000916001600160a01b03909116906370a0823190611400903090600401613a12565b602060405180830381865afa15801561141d573d6000803e3d6000fd5b505050506040513d601f19601f820116820180604052508101906114419190613d9d565b610136546040516370a0823160e01b81529192506000916001600160a01b03909116906370a0823190611478903090600401613a12565b602060405180830381865afa158015611495573d6000803e3d6000fd5b505050506040513d601f19601f820116820180604052508101906114b99190613d9d565b905060006114cf6114ca85846140c5565b611eed565b90506114db83826140c5565b9550505050505090565b60fb546001600160a01b0316331461150f5760405162461bcd60e51b81526004016109d3906140d8565b600061157e306001600160a01b031663a3673b386040518163ffffffff1660e01b8152600401602060405180830381865afa158015611552573d6000803e3d6000fd5b505050506040513d601f19601f820116820180604052508101906115769190613d9d565b60fd54611f39565b90506115f683846001600160a01b03166370a08231306040518263ffffffff1660e01b81526004016115b09190613a12565b602060405180830381865afa1580156115cd573d6000803e3d6000fd5b505050506040513d601f19601f820116820180604052508101906115f19190613d9d565b611f63565b80306001600160a01b031663a3673b386040518163ffffffff1660e01b8152600401602060405180830381865afa158015611635573d6000803e3d6000fd5b505050506040513d601f19601f820116820180604052508101906116599190613d9d565b10156116775760405162461bcd60e51b81526004016109d39061410f565b6040518281527f227a473b70d2f893cc7659219575c030a63b5743024fe1e0c1a680e708b1525a906020015b60405180910390a1505050565b60ff54604051632474521560e21b815260008051602061467183398151915260048201523360248201526001600160a01b03909116906391d1485490604401602060405180830381865afa15801561170c573d6000803e3d6000fd5b505050506040513d601f19601f820116820180604052508101906117309190613ff6565b61174c5760405162461bcd60e51b81526004016109d390614013565b60fc83905560fd82905560fe81905560408051848152602081018490529081018290527f116fbf1e97a2be629ad98abfb6c332733c8996c2dfb174dd2efe8440df381d1a906060016116a3565b6000828152606560205260409020600101546117b481611b78565b6109628383611c08565b60fb546000906001600160a01b031633146117eb5760405162461bcd60e51b81526004016109d3906140d8565b60006117f68361236e565b90508015611832576040518181527f3ac0594a85a20354f9dc74f33728416d19ce00d04a406c108cc2dcf2cecea1349060200160405180910390a15b90505b919050565b60fb546000906001600160a01b031633146118675760405162461bcd60e51b81526004016109d3906140d8565b60006118aa306001600160a01b031663a3673b386040518163ffffffff1660e01b8152600401602060405180830381865afa158015611552573d6000803e3d6000fd5b905060008084156118d1576118be8661236e565b90506118ca8887612a30565b9150611940565b6118dc888888612f21565b9150868210156119405760405162461bcd60e51b815260206004820152602960248201527f52657475726e65642076616c7565206c657373207468616e2072657175657374604482015268195908185b5bdd5b9d60ba1b60648201526084016109d3565b82306001600160a01b031663a3673b386040518163ffffffff1660e01b8152600401602060405180830381865afa15801561197f573d6000803e3d6000fd5b505050506040513d601f19601f820116820180604052508101906119a39190613d9d565b10156119c15760405162461bcd60e51b81526004016109d39061410f565b60405163a9059cbb60e01b81526001600160a01b0389169063a9059cbb906119ef908990869060040161404a565b6020604051808303816000875af1158015611a0e573d6000803e3d6000fd5b505050506040513d601f19601f82011682018060405250810190611a329190613ff6565b5060408051888152602081018490527f9045c2ac9b2026de8075f2701bbdde882cd5e830b3b1ead9a15b22f2b5b93742910160405180910390a18015611aa6576040518181527f3ac0594a85a20354f9dc74f33728416d19ce00d04a406c108cc2dcf2cecea1349060200160405180910390a15b509150505b949350505050565b611abe6000336112a7565b611ada5760405162461bcd60e51b81526004016109d390613e4e565b6001600160a01b038316611b005760405162461bcd60e51b81526004016109d390614146565b6001600160a01b038216611b265760405162461bcd60e51b81526004016109d390614146565b60fb80546001600160a01b038086166001600160a01b03199283161790925560ff805492851692909116919091179055610100611b6382826141be565b50505050565b6001600160a01b03163b151590565b610aaf81336130ff565b611b8c82826112a7565b6109e65760008281526065602090815260408083206001600160a01b03851684529091529020805460ff19166001179055611bc43390565b6001600160a01b0316816001600160a01b0316837f2f8788117e7eff1d82e926ec794901d17c78024a50270940304540a733656f0d60405160405180910390a45050565b611c1282826112a7565b156109e65760008281526065602090815260408083206001600160a01b0385168085529252808320805460ff1916905551339285917ff6391f5c32d9c69d2a47ea670b442974b53935d1edc7fd64eb21e047a839171b9190a45050565b600080516020614691833981519152546001600160a01b031690565b60006109e681611b78565b7f4910fdfa16fed3260ed0e7147f7cc6da11a60208b5b9406d12a635614ffd91435460ff1615611cc95761096283613158565b826001600160a01b03166352d1902d6040518163ffffffff1660e01b8152600401602060405180830381865afa925050508015611d23575060408051601f3d908101601f19168201909252611d2091810190613d9d565b60015b611d865760405162461bcd60e51b815260206004820152602e60248201527f45524331393637557067726164653a206e657720696d706c656d656e7461746960448201526d6f6e206973206e6f74205555505360901b60648201526084016109d3565b6000805160206146918339815191528114611df55760405162461bcd60e51b815260206004820152602960248201527f45524331393637557067726164653a20756e737570706f727465642070726f786044820152681a58589b195555525160ba1b60648201526084016109d3565b506109628383836131f2565b600054610100900460ff1615808015611e215750600054600160ff909116105b80611e425750611e3030611b69565b158015611e42575060005460ff166001145b611e5e5760405162461bcd60e51b81526004016109d390613fa8565b6000805460ff191660011790558015611e81576000805461ff0019166101001790555b611e89613217565b611e91613217565b611e9c600033611b82565b601460fc81905560fd55600460fe558015610aaf576000805461ff0019169055604051600181527f7f26b83ff96e1f2b6a682f133852f6798a09c465da95921460cefb3847402498906020016110bc565b610137546000908190611f08906001600160a01b0316613284565b61013854909150600090611f24906001600160a01b0316613284565b9050611aab8461013a54610139548486613393565b6000612710611f48838261427d565b611f529085614290565b611f5c91906142a7565b9392505050565b61012d54610136546001600160a01b039182169116036120eb5761012d546040516370a0823160e01b81526000916001600160a01b0316906370a0823190611faf903090600401613a12565b602060405180830381865afa158015611fcc573d6000803e3d6000fd5b505050506040513d601f19601f82011682018060405250810190611ff09190613d9d565b61012d5461012e5460405163095ea7b360e01b81529293506001600160a01b039182169263095ea7b39261202a921690859060040161404a565b6020604051808303816000875af1158015612049573d6000803e3d6000fd5b505050506040513d601f19601f8201168201806040525081019061206d9190613ff6565b5061012e5461012d546040516307dba22560e31b81526001600160a01b0392831692633edd1128926120a99291169085906000906004016142c9565b60408051808303816000875af11580156120c7573d6000803e3d6000fd5b505050506040513d601f19601f8201168201806040525081019061115091906142ec565b61012d5461013b5460405163095ea7b360e01b81526001600160a01b039283169263095ea7b39261212392911690859060040161404a565b6020604051808303816000875af1158015612142573d6000803e3d6000fd5b505050506040513d601f19601f820116820180604052508101906121669190613ff6565b50600061217d612175836133c8565b60fc54611f39565b61013b5461012d54610136546040516371a1ff0960e11b81529394506001600160a01b039283169363e343fe12936121c49330939082169291169088908890600401614310565b600060405180830381600087803b1580156121de57600080fd5b505af11580156121f2573d6000803e3d6000fd5b5050610136546040516370a0823160e01b8152600093506001600160a01b0390911691506370a082319061222a903090600401613a12565b602060405180830381865afa158015612247573d6000803e3d6000fd5b505050506040513d601f19601f8201168201806040525081019061226b9190613d9d565b6101365461012e5460405163095ea7b360e01b81529293506001600160a01b039182169263095ea7b3926122a5921690859060040161404a565b6020604051808303816000875af11580156122c4573d6000803e3d6000fd5b505050506040513d601f19601f820116820180604052508101906122e89190613ff6565b5061012e54610136546040516307dba22560e31b81526001600160a01b0392831692633edd1128926123249291169085906000906004016142c9565b60408051808303816000875af1158015612342573d6000803e3d6000fd5b505050506040513d601f19601f8201168201806040525081019061236691906142ec565b505050505050565b61012d546040516370a0823160e01b815260009182916001600160a01b03909116906370a08231906123a4903090600401613a12565b602060405180830381865afa1580156123c1573d6000803e3d6000fd5b505050506040513d601f19601f820116820180604052508101906123e59190613d9d565b610136546040516370a0823160e01b81529192506000916001600160a01b03909116906370a082319061241c903090600401613a12565b602060405180830381865afa158015612439573d6000803e3d6000fd5b505050506040513d601f19601f8201168201806040525081019061245d9190613d9d565b61012e546101365460405163bf27304160e01b81529293506000926001600160a01b039283169263bf2730419261249992911690600401613a12565b60c060405180830381865afa1580156124b6573d6000803e3d6000fd5b505050506040513d601f19601f820116820180604052508101906124da9190614344565b5160408051600180825281830190925291925060009190602080830190803683370190505090508181600081518110612515576125156143d8565b6001600160a01b03928316602091820292909201015261012f54604051633111e7b360e01b8152911690633111e7b390612559908490600019903090600401614432565b6020604051808303816000875af1158015612578573d6000803e3d6000fd5b505050506040513d601f19601f8201168201806040525081019061259c9190613d9d565b50610131546040516370a0823160e01b81526000916001600160a01b0316906370a08231906125cf903090600401613a12565b602060405180830381865afa1580156125ec573d6000803e3d6000fd5b505050506040513d601f19601f820116820180604052508101906126109190613d9d565b610134546040516370a0823160e01b81529192506000916001600160a01b03909116906370a0823190612647903090600401613a12565b602060405180830381865afa158015612664573d6000803e3d6000fd5b505050506040513d601f19601f820116820180604052508101906126889190613d9d565b9050801561270d57610134546101355460405163a9059cbb60e01b81526001600160a01b039283169263a9059cbb926126c892911690859060040161404a565b6020604051808303816000875af11580156126e7573d6000803e3d6000fd5b505050506040513d601f19601f8201168201806040525081019061270b9190613ff6565b505b81156127945761013354610131546101325461013654600093612745936001600160a01b039182169390821692908216911687613414565b905080156127925761013354610131546101325461013654612792936001600160a01b039081169381169281169116876064612782886063614290565b61278c91906142a7565b3061355e565b505b610136546040516370a0823160e01b815260009187916001600160a01b03909116906370a08231906127ca903090600401613a12565b602060405180830381865afa1580156127e7573d6000803e3d6000fd5b505050506040513d601f19601f8201168201806040525081019061280b9190613d9d565b612815919061427d565b90508015612922576101365461013b5460405163095ea7b360e01b81526001600160a01b039283169263095ea7b39261285592911690859060040161404a565b6020604051808303816000875af1158015612874573d6000803e3d6000fd5b505050506040513d601f19601f820116820180604052508101906128989190613ff6565b5060006128a761217583611eed565b61013b546101365461012d546040516371a1ff0960e11b81529394506001600160a01b039283169363e343fe12936128ee9330939082169291169088908890600401614310565b600060405180830381600087803b15801561290857600080fd5b505af115801561291c573d6000803e3d6000fd5b50505050505b61012d546040516370a0823160e01b815260009189916001600160a01b03909116906370a0823190612958903090600401613a12565b602060405180830381865afa158015612975573d6000803e3d6000fd5b505050506040513d601f19601f820116820180604052508101906129999190613d9d565b6129a3919061427d565b90508015612a235761012d5460405163a9059cbb60e01b81526001600160a01b039091169063a9059cbb906129de908d90859060040161404a565b6020604051808303816000875af11580156129fd573d6000803e3d6000fd5b505050506040513d601f19601f82011682018060405250810190612a219190613ff6565b505b9998505050505050505050565b6000306001600160a01b031663a3673b386040518163ffffffff1660e01b8152600401602060405180830381865afa158015612a70573d6000803e3d6000fd5b505050506040513d601f19601f82011682018060405250810190612a949190613d9d565b600003612aa35750600061083f565b61012e546101365460405163ead5d35960e01b81526001600160a01b039283169263ead5d35992612adf929116906001906000906004016142c9565b60408051808303816000875af1158015612afd573d6000803e3d6000fd5b505050506040513d601f19601f82011682018060405250810190612b2191906142ec565b505061013054604051631fc597f560e31b81526000916001600160a01b03169063fe2cbfa890612b5390600401614063565b602060405180830381865afa158015612b70573d6000803e3d6000fd5b505050506040513d601f19601f82011682018060405250810190612b949190614085565b61012e5461013654604051632c00fb0560e21b81529293506000926001600160a01b038086169363b003ec1493612bd59391831692169030906004016140a2565b602060405180830381865afa158015612bf2573d6000803e3d6000fd5b505050506040513d601f19601f82011682018060405250810190612c169190613d9d565b61012e546101365460405163ead5d35960e01b81529293506001600160a01b039182169263ead5d35992612c5392169085906000906004016142c9565b60408051808303816000875af1158015612c71573d6000803e3d6000fd5b505050506040513d601f19601f82011682018060405250810190612c9591906142ec565b505061012d54610136546001600160a01b03918216911603612d2c5761012d546040516370a0823160e01b81526001600160a01b03909116906370a0823190612ce2903090600401613a12565b602060405180830381865afa158015612cff573d6000803e3d6000fd5b505050506040513d601f19601f82011682018060405250810190612d239190613d9d565b9250505061083f565b610136546040516370a0823160e01b81526000916001600160a01b0316906370a0823190612d5e903090600401613a12565b602060405180830381865afa158015612d7b573d6000803e3d6000fd5b505050506040513d601f19601f82011682018060405250810190612d9f9190613d9d565b6101365461013b5460405163095ea7b360e01b81529293506001600160a01b039182169263095ea7b392612dd9921690859060040161404a565b6020604051808303816000875af1158015612df8573d6000803e3d6000fd5b505050506040513d601f19601f82011682018060405250810190612e1c9190613ff6565b506000612e2b61217583611eed565b61013b546101365461012d546040516371a1ff0960e11b81529394506001600160a01b039283169363e343fe1293612e729330939082169291169088908890600401614310565b600060405180830381600087803b158015612e8c57600080fd5b505af1158015612ea0573d6000803e3d6000fd5b505061012d546040516370a0823160e01b81526001600160a01b0390911692506370a082319150612ed5903090600401613a12565b602060405180830381865afa158015612ef2573d6000803e3d6000fd5b505050506040513d601f19601f82011682018060405250810190612f169190613d9d565b979650505050505050565b61012d54610136546000916001600160a01b039081169116036130365761012e5461012d5460405163ead5d35960e01b81526001600160a01b039283169263ead5d35992612f799291169087906000906004016142c9565b60408051808303816000875af1158015612f97573d6000803e3d6000fd5b505050506040513d601f19601f82011682018060405250810190612fbb91906142ec565b505061012d546040516370a0823160e01b81526001600160a01b03909116906370a0823190612fee903090600401613a12565b602060405180830381865afa15801561300b573d6000803e3d6000fd5b505050506040513d601f19601f8201168201806040525081019061302f9190613d9d565b9050611f5c565b600061304c613044856133c8565b60fc546136f1565b61012e546101365460405163ead5d35960e01b81529293506001600160a01b039182169263ead5d3599261308992169085906000906004016142c9565b60408051808303816000875af11580156130a7573d6000803e3d6000fd5b505050506040513d601f19601f820116820180604052508101906130cb91906142ec565b5050610136546040516370a0823160e01b81526000916001600160a01b0316906370a0823190612d5e903090600401613a12565b61310982826112a7565b6109e65761311681613700565b613121836020613712565b604051602001613132929190614465565b60408051601f198184030181529082905262461bcd60e51b82526109d391600401613a74565b61316181611b69565b6131c35760405162461bcd60e51b815260206004820152602d60248201527f455243313936373a206e657720696d706c656d656e746174696f6e206973206e60448201526c1bdd08184818dbdb9d1c9858dd609a1b60648201526084016109d3565b60008051602061469183398151915280546001600160a01b0319166001600160a01b0392909216919091179055565b6131fb836138ad565b6000825111806132085750805b1561096257611b6383836138ed565b600054610100900460ff166132825760405162461bcd60e51b815260206004820152602b60248201527f496e697469616c697a61626c653a20636f6e7472616374206973206e6f74206960448201526a6e697469616c697a696e6760a81b60648201526084016109d3565b565b6000806000806000856001600160a01b031663feaf968c6040518163ffffffff1660e01b815260040160a060405180830381865afa1580156132ca573d6000803e3d6000fd5b505050506040513d601f19601f820116820180604052508101906132ee91906144eb565b945094505093509350836001600160501b0316816001600160501b031610156133445760405162461bcd60e51b81526020600482015260086024820152674f6c64206461746160c01b60448201526064016109d3565b600082116133895760405162461bcd60e51b8152602060048201526012602482015271526f756e64206e6f7420636f6d706c65746560701b60448201526064016109d3565b5090949350505050565b600061339f8286614290565b836133aa8689614290565b6133b49190614290565b6133be91906142a7565b9695505050505050565b6101375460009081906133e3906001600160a01b0316613284565b610138549091506000906133ff906001600160a01b0316613284565b9050611aab846101395461013a548585613393565b6040805160038082526080820190925260009182919060208201606080368337019050509050858160008151811061344e5761344e6143d8565b60200260200101906001600160a01b031690816001600160a01b0316815250508481600181518110613482576134826143d8565b60200260200101906001600160a01b031690816001600160a01b03168152505083816002815181106134b6576134b66143d8565b6001600160a01b03928316602091820292909201015260405163d06ca61f60e01b81529088169063d06ca61f906134f3908690859060040161453b565b600060405180830381865afa158015613510573d6000803e3d6000fd5b505050506040513d6000823e601f3d908101601f191682016040526135389190810190614554565b60028151811061354a5761354a6143d8565b602002602001015191505095945050505050565b60405163095ea7b360e01b81526001600160a01b0387169063095ea7b39061358c908a90879060040161404a565b6020604051808303816000875af11580156135ab573d6000803e3d6000fd5b505050506040513d601f19601f820116820180604052508101906135cf9190613ff6565b5060408051600380825260808201909252600091602082016060803683370190505090508681600081518110613607576136076143d8565b60200260200101906001600160a01b031690816001600160a01b031681525050858160018151811061363b5761363b6143d8565b60200260200101906001600160a01b031690816001600160a01b031681525050848160028151811061366f5761366f6143d8565b6001600160a01b03928316602091820292909201015260405163561c49dd60e11b81529089169063ac3893ba906136b590879087908690889060009042906004016145f9565b600060405180830381600087803b1580156136cf57600080fd5b505af11580156136e3573d6000803e3d6000fd5b505050505050505050505050565b6000612710611f4883826140c5565b606061083f6001600160a01b03831660145b60606000613721836002614290565b61372c9060026140c5565b6001600160401b0381111561374357613743613b22565b6040519080825280601f01601f19166020018201604052801561376d576020820181803683370190505b509050600360fc1b81600081518110613788576137886143d8565b60200101906001600160f81b031916908160001a905350600f60fb1b816001815181106137b7576137b76143d8565b60200101906001600160f81b031916908160001a90535060006137db846002614290565b6137e69060016140c5565b90505b600181111561385e576f181899199a1a9b1b9c1cb0b131b232b360811b85600f166010811061381a5761381a6143d8565b1a60f81b828281518110613830576138306143d8565b60200101906001600160f81b031916908160001a90535060049490941c936138578161463d565b90506137e9565b508315611f5c5760405162461bcd60e51b815260206004820181905260248201527f537472696e67733a20686578206c656e67746820696e73756666696369656e7460448201526064016109d3565b6138b681613158565b6040516001600160a01b038216907fbc7cd75a20ee27fd9adebab32041f755214dbc6bffa90cc0225b39da2e5c2d3b90600090a250565b6060611f5c83836040518060600160405280602781526020016146b1602791396060600080856001600160a01b03168560405161392a9190614654565b600060405180830381855af49150503d8060008114613965576040519150601f19603f3d011682016040523d82523d6000602084013e61396a565b606091505b50915091506133be86838387606083156139e35782516000036139dc5761399085611b69565b6139dc5760405162461bcd60e51b815260206004820152601d60248201527f416464726573733a2063616c6c20746f206e6f6e2d636f6e747261637400000060448201526064016109d3565b5081611aab565b611aab83838151156139f85781518083602001fd5b8060405162461bcd60e51b81526004016109d39190613a74565b6001600160a01b0391909116815260200190565b600060208284031215613a3857600080fd5b81356001600160e01b031981168114611f5c57600080fd5b60005b83811015613a6b578181015183820152602001613a53565b50506000910152565b6020815260008251806020840152613a93816040850160208701613a50565b601f01601f19169190910160400192915050565b600060208284031215613ab957600080fd5b5035919050565b6001600160a01b0381168114610aaf57600080fd5b60008060408385031215613ae857600080fd5b823591506020830135613afa81613ac0565b809150509250929050565b600060208284031215613b1757600080fd5b8135611f5c81613ac0565b634e487b7160e01b600052604160045260246000fd5b604051601f8201601f191681016001600160401b0381118282101715613b6057613b60613b22565b604052919050565b60006001600160401b03831115613b8157613b81613b22565b613b94601f8401601f1916602001613b38565b9050828152838383011115613ba857600080fd5b828260208301376000602084830101529392505050565b60008060408385031215613bd257600080fd5b8235613bdd81613ac0565b915060208301356001600160401b03811115613bf857600080fd5b8301601f81018513613c0957600080fd5b613c1885823560208401613b68565b9150509250929050565b60006101c08284031215613c3557600080fd5b50919050565b60008060408385031215613c4e57600080fd5b8235613c5981613ac0565b946020939093013593505050565b600080600060608486031215613c7c57600080fd5b505081359360208301359350604090920135919050565b8015158114610aaf57600080fd5b60008060008060808587031215613cb757600080fd5b8435613cc281613ac0565b9350602085013592506040850135613cd981613ac0565b91506060850135613ce981613c93565b939692955090935050565b600080600060608486031215613d0957600080fd5b8335613d1481613ac0565b92506020840135613d2481613ac0565b915060408401356001600160401b03811115613d3f57600080fd5b8401601f81018613613d5057600080fd5b613d5f86823560208401613b68565b9150509250925092565b600181811c90821680613d7d57607f821691505b602082108103613c3557634e487b7160e01b600052602260045260246000fd5b600060208284031215613daf57600080fd5b5051919050565b6020808252602c908201527f46756e6374696f6e206d7573742062652063616c6c6564207468726f7567682060408201526b19195b1959d85d1958d85b1b60a21b606082015260800190565b6020808252602c908201527f46756e6374696f6e206d7573742062652063616c6c6564207468726f7567682060408201526b6163746976652070726f787960a01b606082015260800190565b6020808252601490820152735265737472696374656420746f2061646d696e7360601b604082015260600190565b600060208284031215613e8e57600080fd5b815160ff81168114611f5c57600080fd5b634e487b7160e01b600052601160045260246000fd5b600181815b80851115613ef0578160001904821115613ed657613ed6613e9f565b80851615613ee357918102915b93841c9390800290613eba565b509250929050565b600082613f075750600161083f565b81613f145750600061083f565b8160018114613f2a5760028114613f3457613f50565b600191505061083f565b60ff841115613f4557613f45613e9f565b50506001821b61083f565b5060208310610133831016604e8410600b8410161715613f73575081810a61083f565b613f7d8383613eb5565b8060001904821115613f9157613f91613e9f565b029392505050565b6000611f5c60ff841683613ef8565b6020808252602e908201527f496e697469616c697a61626c653a20636f6e747261637420697320616c72656160408201526d191e481a5b9a5d1a585b1a5e995960921b606082015260800190565b60006020828403121561400857600080fd5b8151611f5c81613c93565b6020808252601d908201527f5265737472696374656420746f20506f7274666f6c696f204167656e74000000604082015260600190565b6001600160a01b03929092168252602082015260400190565b60208082526008908201526753696c6f4c656e7360c01b604082015260600190565b60006020828403121561409757600080fd5b8151611f5c81613ac0565b6001600160a01b0393841681529183166020830152909116604082015260600190565b8082018082111561083f5761083f613e9f565b6020808252601f908201527f5265737472696374656420746f20504f5254464f4c494f5f4d414e4147455200604082015260600190565b6020808252601f908201527f5374726174656779204e4156206c657373207468616e20657870656374656400604082015260600190565b60208082526018908201527716995c9bc81859191c995cdcc81b9bdd08185b1b1bddd95960421b604082015260600190565b601f82111561096257600081815260208120601f850160051c8101602086101561419f5750805b601f850160051c820191505b81811015612366578281556001016141ab565b81516001600160401b038111156141d7576141d7613b22565b6141eb816141e58454613d69565b84614178565b602080601f83116001811461422057600084156142085750858301515b600019600386901b1c1916600185901b178555612366565b600085815260208120601f198616915b8281101561424f57888601518255948401946001909101908401614230565b508582101561426d5787850151600019600388901b60f8161c191681555b5050505050600190811b01905550565b8181038181111561083f5761083f613e9f565b808202811582820484141761083f5761083f613e9f565b6000826142c457634e487b7160e01b600052601260045260246000fd5b500490565b6001600160a01b0393909316835260208301919091521515604082015260600190565b600080604083850312156142ff57600080fd5b505080516020909101519092909150565b6001600160a01b03958616815293851660208501529190931660408301526060820192909252608081019190915260a00190565b600060c0828403121561435657600080fd5b60405160c081018181106001600160401b038211171561437857614378613b22565b604052825161438681613ac0565b8152602083015161439681613ac0565b602082015260408301516143a981613ac0565b80604083015250606083015160608201526080830151608082015260a083015160a08201528091505092915050565b634e487b7160e01b600052603260045260246000fd5b600081518084526020808501945080840160005b838110156144275781516001600160a01b031687529582019590820190600101614402565b509495945050505050565b60608152600061444560608301866143ee565b6020830194909452506001600160a01b0391909116604090910152919050565b76020b1b1b2b9b9a1b7b73a3937b61d1030b1b1b7bab73a1604d1b815260008351614497816017850160208801613a50565b7001034b99036b4b9b9b4b733903937b6329607d1b60179184019182015283516144c8816028840160208801613a50565b01602801949350505050565b80516001600160501b038116811461183557600080fd5b600080600080600060a0868803121561450357600080fd5b61450c866144d4565b945060208601519350604086015192506060860151915061452f608087016144d4565b90509295509295909350565b828152604060208201526000611aab60408301846143ee565b6000602080838503121561456757600080fd5b82516001600160401b038082111561457e57600080fd5b818501915085601f83011261459257600080fd5b8151818111156145a4576145a4613b22565b8060051b91506145b5848301613b38565b81815291830184019184810190888411156145cf57600080fd5b938501935b838510156145ed578451825293850193908501906145d4565b98975050505050505050565b86815285602082015260c06040820152600061461860c08301876143ee565b6001600160a01b03958616606084015293909416608082015260a00152949350505050565b60008161464c5761464c613e9f565b506000190190565b60008251614666818460208701613a50565b919091019291505056fed67ad422505496469a1adf6cdf9e5ee92ac5d33992843c9ecc4b2f6d6cde9137360894a13ba1a3210667c828492db98dca3e2076cc3735a920a3ca505d382bbc416464726573733a206c6f772d6c6576656c2064656c65676174652063616c6c206661696c6564a264697066735822122015a061002e92ad6817e6a4ee022047a6a3044938b92198885a78f562558521f564736f6c63430008110033",
  "implementation": "0x7FeDB8e26e5DdfE76A695aC2cbB784cC02B36e0C",
  "devdoc": {
    "kind": "dev",
    "methods": {
      "constructor": {
        "custom:oz-upgrades-unsafe-allow": "constructor"
      },
      "getRoleAdmin(bytes32)": {
        "details": "Returns the admin role that controls `role`. See {grantRole} and {revokeRole}. To change a role's admin, use {_setRoleAdmin}."
      },
      "grantRole(bytes32,address)": {
        "details": "Grants `role` to `account`. If `account` had not been already granted `role`, emits a {RoleGranted} event. Requirements: - the caller must have ``role``'s admin role. May emit a {RoleGranted} event."
      },
      "hasRole(bytes32,address)": {
        "details": "Returns `true` if `account` has been granted `role`."
      },
      "proxiableUUID()": {
        "details": "Implementation of the ERC1822 {proxiableUUID} function. This returns the storage slot used by the implementation. It is used to validate the implementation's compatibility when performing an upgrade. IMPORTANT: A proxy pointing at a proxiable contract should not be considered proxiable itself, because this risks bricking a proxy that upgrades to it, by delegating to itself until out of gas. Thus it is critical that this function revert if invoked through a proxy. This is guaranteed by the `notDelegated` modifier."
      },
      "renounceRole(bytes32,address)": {
        "details": "Revokes `role` from the calling account. Roles are often managed via {grantRole} and {revokeRole}: this function's purpose is to provide a mechanism for accounts to lose their privileges if they are compromised (such as when a trusted device is misplaced). If the calling account had been revoked `role`, emits a {RoleRevoked} event. Requirements: - the caller must be `account`. May emit a {RoleRevoked} event."
      },
      "revokeRole(bytes32,address)": {
        "details": "Revokes `role` from `account`. If `account` had been granted `role`, emits a {RoleRevoked} event. Requirements: - the caller must have ``role``'s admin role. May emit a {RoleRevoked} event."
      },
      "supportsInterface(bytes4)": {
        "details": "See {IERC165-supportsInterface}."
      },
      "upgradeTo(address)": {
        "custom:oz-upgrades-unsafe-allow-reachable": "delegatecall",
        "details": "Upgrade the implementation of the proxy to `newImplementation`. Calls {_authorizeUpgrade}. Emits an {Upgraded} event."
      },
      "upgradeToAndCall(address,bytes)": {
        "custom:oz-upgrades-unsafe-allow-reachable": "delegatecall",
        "details": "Upgrade the implementation of the proxy to `newImplementation`, and subsequently execute the function call encoded in `data`. Calls {_authorizeUpgrade}. Emits an {Upgraded} event."
      }
    },
    "version": 1
  },
  "userdoc": {
    "kind": "user",
    "methods": {},
    "version": 1
  },
  "storageLayout": {
    "storage": [
      {
        "astId": 782,
        "contract": "contracts/StrategySiloUsdc.sol:StrategySiloUsdc",
        "label": "_initialized",
        "offset": 0,
        "slot": "0",
        "type": "t_uint8"
      },
      {
        "astId": 785,
        "contract": "contracts/StrategySiloUsdc.sol:StrategySiloUsdc",
        "label": "_initializing",
        "offset": 1,
        "slot": "0",
        "type": "t_bool"
      },
      {
        "astId": 1539,
        "contract": "contracts/StrategySiloUsdc.sol:StrategySiloUsdc",
        "label": "__gap",
        "offset": 0,
        "slot": "1",
        "type": "t_array(t_uint256)50_storage"
      },
      {
        "astId": 1923,
        "contract": "contracts/StrategySiloUsdc.sol:StrategySiloUsdc",
        "label": "__gap",
        "offset": 0,
        "slot": "51",
        "type": "t_array(t_uint256)50_storage"
      },
      {
        "astId": 28,
        "contract": "contracts/StrategySiloUsdc.sol:StrategySiloUsdc",
        "label": "_roles",
        "offset": 0,
        "slot": "101",
        "type": "t_mapping(t_bytes32,t_struct(RoleData)23_storage)"
      },
      {
        "astId": 335,
        "contract": "contracts/StrategySiloUsdc.sol:StrategySiloUsdc",
        "label": "__gap",
        "offset": 0,
        "slot": "102",
        "type": "t_array(t_uint256)49_storage"
      },
      {
        "astId": 764,
        "contract": "contracts/StrategySiloUsdc.sol:StrategySiloUsdc",
        "label": "__gap",
        "offset": 0,
        "slot": "151",
        "type": "t_array(t_uint256)50_storage"
      },
      {
        "astId": 1080,
        "contract": "contracts/StrategySiloUsdc.sol:StrategySiloUsdc",
        "label": "__gap",
        "offset": 0,
        "slot": "201",
        "type": "t_array(t_uint256)50_storage"
      },
      {
        "astId": 29781,
        "contract": "contracts/StrategySiloUsdc.sol:StrategySiloUsdc",
        "label": "portfolioManager",
        "offset": 0,
        "slot": "251",
        "type": "t_address"
      },
      {
        "astId": 29783,
        "contract": "contracts/StrategySiloUsdc.sol:StrategySiloUsdc",
        "label": "swapSlippageBP",
        "offset": 0,
        "slot": "252",
        "type": "t_uint256"
      },
      {
        "astId": 29785,
        "contract": "contracts/StrategySiloUsdc.sol:StrategySiloUsdc",
        "label": "navSlippageBP",
        "offset": 0,
        "slot": "253",
        "type": "t_uint256"
      },
      {
        "astId": 29787,
        "contract": "contracts/StrategySiloUsdc.sol:StrategySiloUsdc",
        "label": "stakeSlippageBP",
        "offset": 0,
        "slot": "254",
        "type": "t_uint256"
      },
      {
        "astId": 29790,
        "contract": "contracts/StrategySiloUsdc.sol:StrategySiloUsdc",
        "label": "roleManager",
        "offset": 0,
        "slot": "255",
        "type": "t_contract(IRoleManager)30448"
      },
      {
        "astId": 29792,
        "contract": "contracts/StrategySiloUsdc.sol:StrategySiloUsdc",
        "label": "name",
        "offset": 0,
        "slot": "256",
        "type": "t_string_storage"
      },
      {
        "astId": 30178,
        "contract": "contracts/StrategySiloUsdc.sol:StrategySiloUsdc",
        "label": "__gap",
        "offset": 0,
        "slot": "257",
        "type": "t_array(t_uint256)44_storage"
      },
      {
        "astId": 49252,
        "contract": "contracts/StrategySiloUsdc.sol:StrategySiloUsdc",
        "label": "usdc",
        "offset": 0,
        "slot": "301",
        "type": "t_contract(IERC20)3575"
      },
      {
        "astId": 49255,
        "contract": "contracts/StrategySiloUsdc.sol:StrategySiloUsdc",
        "label": "silo",
        "offset": 0,
        "slot": "302",
        "type": "t_contract(ISilo)19408"
      },
      {
        "astId": 49258,
        "contract": "contracts/StrategySiloUsdc.sol:StrategySiloUsdc",
        "label": "siloIncentivesController",
        "offset": 0,
        "slot": "303",
        "type": "t_contract(ISiloIncentivesController)20002"
      },
      {
        "astId": 49260,
        "contract": "contracts/StrategySiloUsdc.sol:StrategySiloUsdc",
        "label": "siloTower",
        "offset": 0,
        "slot": "304",
        "type": "t_address"
      },
      {
        "astId": 49263,
        "contract": "contracts/StrategySiloUsdc.sol:StrategySiloUsdc",
        "label": "siloToken",
        "offset": 0,
        "slot": "305",
        "type": "t_contract(IERC20)3575"
      },
      {
        "astId": 49266,
        "contract": "contracts/StrategySiloUsdc.sol:StrategySiloUsdc",
        "label": "wethToken",
        "offset": 0,
        "slot": "306",
        "type": "t_contract(IERC20)3575"
      },
      {
        "astId": 49269,
        "contract": "contracts/StrategySiloUsdc.sol:StrategySiloUsdc",
        "label": "camelotRouter",
        "offset": 0,
        "slot": "307",
        "type": "t_contract(ICamelotRouter)10473"
      },
      {
        "astId": 49272,
        "contract": "contracts/StrategySiloUsdc.sol:StrategySiloUsdc",
        "label": "arbToken",
        "offset": 0,
        "slot": "308",
        "type": "t_contract(IERC20)3575"
      },
      {
        "astId": 49274,
        "contract": "contracts/StrategySiloUsdc.sol:StrategySiloUsdc",
        "label": "rewardWallet",
        "offset": 0,
        "slot": "309",
        "type": "t_address"
      },
      {
        "astId": 49277,
        "contract": "contracts/StrategySiloUsdc.sol:StrategySiloUsdc",
        "label": "underlyingAsset",
        "offset": 0,
        "slot": "310",
        "type": "t_contract(IERC20)3575"
      },
      {
        "astId": 49280,
        "contract": "contracts/StrategySiloUsdc.sol:StrategySiloUsdc",
        "label": "oracleAsset",
        "offset": 0,
        "slot": "311",
        "type": "t_contract(IPriceFeed)11296"
      },
      {
        "astId": 49283,
        "contract": "contracts/StrategySiloUsdc.sol:StrategySiloUsdc",
        "label": "oracleUnderlyingAsset",
        "offset": 0,
        "slot": "312",
        "type": "t_contract(IPriceFeed)11296"
      },
      {
        "astId": 49285,
        "contract": "contracts/StrategySiloUsdc.sol:StrategySiloUsdc",
        "label": "assetDm",
        "offset": 0,
        "slot": "313",
        "type": "t_uint256"
      },
      {
        "astId": 49287,
        "contract": "contracts/StrategySiloUsdc.sol:StrategySiloUsdc",
        "label": "underlyingAssetDm",
        "offset": 0,
        "slot": "314",
        "type": "t_uint256"
      },
      {
        "astId": 49290,
        "contract": "contracts/StrategySiloUsdc.sol:StrategySiloUsdc",
        "label": "inchSwapper",
        "offset": 0,
        "slot": "315",
        "type": "t_contract(IInchSwapper)30358"
      },
      {
        "astId": 49293,
        "contract": "contracts/StrategySiloUsdc.sol:StrategySiloUsdc",
        "label": "distributor",
        "offset": 0,
        "slot": "316",
        "type": "t_contract(IDistributor)6820"
      }
    ],
    "types": {
      "t_address": {
        "encoding": "inplace",
        "label": "address",
        "numberOfBytes": "20"
      },
      "t_array(t_uint256)44_storage": {
        "base": "t_uint256",
        "encoding": "inplace",
        "label": "uint256[44]",
        "numberOfBytes": "1408"
      },
      "t_array(t_uint256)49_storage": {
        "base": "t_uint256",
        "encoding": "inplace",
        "label": "uint256[49]",
        "numberOfBytes": "1568"
      },
      "t_array(t_uint256)50_storage": {
        "base": "t_uint256",
        "encoding": "inplace",
        "label": "uint256[50]",
        "numberOfBytes": "1600"
      },
      "t_bool": {
        "encoding": "inplace",
        "label": "bool",
        "numberOfBytes": "1"
      },
      "t_bytes32": {
        "encoding": "inplace",
        "label": "bytes32",
        "numberOfBytes": "32"
      },
      "t_contract(ICamelotRouter)10473": {
        "encoding": "inplace",
        "label": "contract ICamelotRouter",
        "numberOfBytes": "20"
      },
      "t_contract(IDistributor)6820": {
        "encoding": "inplace",
        "label": "contract IDistributor",
        "numberOfBytes": "20"
      },
      "t_contract(IERC20)3575": {
        "encoding": "inplace",
        "label": "contract IERC20",
        "numberOfBytes": "20"
      },
      "t_contract(IInchSwapper)30358": {
        "encoding": "inplace",
        "label": "contract IInchSwapper",
        "numberOfBytes": "20"
      },
      "t_contract(IPriceFeed)11296": {
        "encoding": "inplace",
        "label": "contract IPriceFeed",
        "numberOfBytes": "20"
      },
      "t_contract(IRoleManager)30448": {
        "encoding": "inplace",
        "label": "contract IRoleManager",
        "numberOfBytes": "20"
      },
      "t_contract(ISilo)19408": {
        "encoding": "inplace",
        "label": "contract ISilo",
        "numberOfBytes": "20"
      },
      "t_contract(ISiloIncentivesController)20002": {
        "encoding": "inplace",
        "label": "contract ISiloIncentivesController",
        "numberOfBytes": "20"
      },
      "t_mapping(t_address,t_bool)": {
        "encoding": "mapping",
        "key": "t_address",
        "label": "mapping(address => bool)",
        "numberOfBytes": "32",
        "value": "t_bool"
      },
      "t_mapping(t_bytes32,t_struct(RoleData)23_storage)": {
        "encoding": "mapping",
        "key": "t_bytes32",
        "label": "mapping(bytes32 => struct AccessControlUpgradeable.RoleData)",
        "numberOfBytes": "32",
        "value": "t_struct(RoleData)23_storage"
      },
      "t_string_storage": {
        "encoding": "bytes",
        "label": "string",
        "numberOfBytes": "32"
      },
      "t_struct(RoleData)23_storage": {
        "encoding": "inplace",
        "label": "struct AccessControlUpgradeable.RoleData",
        "members": [
          {
            "astId": 20,
            "contract": "contracts/StrategySiloUsdc.sol:StrategySiloUsdc",
            "label": "members",
            "offset": 0,
            "slot": "0",
            "type": "t_mapping(t_address,t_bool)"
          },
          {
            "astId": 22,
            "contract": "contracts/StrategySiloUsdc.sol:StrategySiloUsdc",
            "label": "adminRole",
            "offset": 0,
            "slot": "1",
            "type": "t_bytes32"
          }
        ],
        "numberOfBytes": "64"
      },
      "t_uint256": {
        "encoding": "inplace",
        "label": "uint256",
        "numberOfBytes": "32"
      },
      "t_uint8": {
        "encoding": "inplace",
        "label": "uint8",
        "numberOfBytes": "1"
      }
    }
  }
}