{
  "address": "0xb7b258AC0e01C52997B1926cd2Fc6Aa8961CB2bE",
  "abi": [
    {
      "inputs": [],
      "stateMutability": "nonpayable",
      "type": "constructor"
    },
    {
      "anonymous": false,
      "inputs": [
        {
          "indexed": false,
          "internalType": "address",
          "name": "previousAdmin",
          "type": "address"
        },
        {
          "indexed": false,
          "internalType": "address",
          "name": "newAdmin",
          "type": "address"
        }
      ],
      "name": "AdminChanged",
      "type": "event"
    },
    {
      "anonymous": false,
      "inputs": [
        {
          "indexed": true,
          "internalType": "address",
          "name": "beacon",
          "type": "address"
        }
      ],
      "name": "BeaconUpgraded",
      "type": "event"
    },
    {
      "anonymous": false,
      "inputs": [
        {
          "indexed": false,
          "internalType": "uint8",
          "name": "version",
          "type": "uint8"
        }
      ],
      "name": "Initialized",
      "type": "event"
    },
    {
      "anonymous": false,
      "inputs": [
        {
          "indexed": false,
          "internalType": "address",
          "name": "value",
          "type": "address"
        }
      ],
      "name": "PortfolioManagerUpdated",
      "type": "event"
    },
    {
      "anonymous": false,
      "inputs": [
        {
          "indexed": false,
          "internalType": "uint256",
          "name": "amount",
          "type": "uint256"
        }
      ],
      "name": "Reward",
      "type": "event"
    },
    {
      "anonymous": false,
      "inputs": [
        {
          "indexed": true,
          "internalType": "bytes32",
          "name": "role",
          "type": "bytes32"
        },
        {
          "indexed": true,
          "internalType": "bytes32",
          "name": "previousAdminRole",
          "type": "bytes32"
        },
        {
          "indexed": true,
          "internalType": "bytes32",
          "name": "newAdminRole",
          "type": "bytes32"
        }
      ],
      "name": "RoleAdminChanged",
      "type": "event"
    },
    {
      "anonymous": false,
      "inputs": [
        {
          "indexed": true,
          "internalType": "bytes32",
          "name": "role",
          "type": "bytes32"
        },
        {
          "indexed": true,
          "internalType": "address",
          "name": "account",
          "type": "address"
        },
        {
          "indexed": true,
          "internalType": "address",
          "name": "sender",
          "type": "address"
        }
      ],
      "name": "RoleGranted",
      "type": "event"
    },
    {
      "anonymous": false,
      "inputs": [
        {
          "indexed": true,
          "internalType": "bytes32",
          "name": "role",
          "type": "bytes32"
        },
        {
          "indexed": true,
          "internalType": "address",
          "name": "account",
          "type": "address"
        },
        {
          "indexed": true,
          "internalType": "address",
          "name": "sender",
          "type": "address"
        }
      ],
      "name": "RoleRevoked",
      "type": "event"
    },
    {
      "anonymous": false,
      "inputs": [
        {
          "indexed": false,
          "internalType": "uint256",
          "name": "swapSlippageBP",
          "type": "uint256"
        },
        {
          "indexed": false,
          "internalType": "uint256",
          "name": "navSlippageBP",
          "type": "uint256"
        },
        {
          "indexed": false,
          "internalType": "uint256",
          "name": "stakeSlippageBP",
          "type": "uint256"
        }
      ],
      "name": "SlippagesUpdated",
      "type": "event"
    },
    {
      "anonymous": false,
      "inputs": [
        {
          "indexed": false,
          "internalType": "uint256",
          "name": "amount",
          "type": "uint256"
        }
      ],
      "name": "Stake",
      "type": "event"
    },
    {
      "anonymous": false,
      "inputs": [],
      "name": "StrategyUpdatedParams",
      "type": "event"
    },
    {
      "anonymous": false,
      "inputs": [
        {
          "indexed": false,
          "internalType": "uint256",
          "name": "amount",
          "type": "uint256"
        },
        {
          "indexed": false,
          "internalType": "uint256",
          "name": "amountReceived",
          "type": "uint256"
        }
      ],
      "name": "Unstake",
      "type": "event"
    },
    {
      "anonymous": false,
      "inputs": [
        {
          "indexed": true,
          "internalType": "address",
          "name": "implementation",
          "type": "address"
        }
      ],
      "name": "Upgraded",
      "type": "event"
    },
    {
      "inputs": [],
      "name": "DEFAULT_ADMIN_ROLE",
      "outputs": [
        {
          "internalType": "bytes32",
          "name": "",
          "type": "bytes32"
        }
      ],
      "stateMutability": "view",
      "type": "function"
    },
    {
      "inputs": [],
      "name": "PORTFOLIO_AGENT_ROLE",
      "outputs": [
        {
          "internalType": "bytes32",
          "name": "",
          "type": "bytes32"
        }
      ],
      "stateMutability": "view",
      "type": "function"
    },
    {
      "inputs": [],
      "name": "PORTFOLIO_MANAGER",
      "outputs": [
        {
          "internalType": "bytes32",
          "name": "",
          "type": "bytes32"
        }
      ],
      "stateMutability": "view",
      "type": "function"
    },
    {
      "inputs": [
        {
          "internalType": "address",
          "name": "_to",
          "type": "address"
        }
      ],
      "name": "claimRewards",
      "outputs": [
        {
          "internalType": "uint256",
          "name": "",
          "type": "uint256"
        }
      ],
      "stateMutability": "nonpayable",
      "type": "function"
    },
    {
      "inputs": [
        {
          "internalType": "bytes32",
          "name": "role",
          "type": "bytes32"
        }
      ],
      "name": "getRoleAdmin",
      "outputs": [
        {
          "internalType": "bytes32",
          "name": "",
          "type": "bytes32"
        }
      ],
      "stateMutability": "view",
      "type": "function"
    },
    {
      "inputs": [
        {
          "internalType": "bytes32",
          "name": "role",
          "type": "bytes32"
        },
        {
          "internalType": "address",
          "name": "account",
          "type": "address"
        }
      ],
      "name": "grantRole",
      "outputs": [],
      "stateMutability": "nonpayable",
      "type": "function"
    },
    {
      "inputs": [
        {
          "internalType": "bytes32",
          "name": "role",
          "type": "bytes32"
        },
        {
          "internalType": "address",
          "name": "account",
          "type": "address"
        }
      ],
      "name": "hasRole",
      "outputs": [
        {
          "internalType": "bool",
          "name": "",
          "type": "bool"
        }
      ],
      "stateMutability": "view",
      "type": "function"
    },
    {
      "inputs": [],
      "name": "initialize",
      "outputs": [],
      "stateMutability": "nonpayable",
      "type": "function"
    },
    {
      "inputs": [],
      "name": "liquidationValue",
      "outputs": [
        {
          "internalType": "uint256",
          "name": "",
          "type": "uint256"
        }
      ],
      "stateMutability": "view",
      "type": "function"
    },
    {
      "inputs": [],
      "name": "masterMgp",
      "outputs": [
        {
          "internalType": "contract MasterMagpie",
          "name": "",
          "type": "address"
        }
      ],
      "stateMutability": "view",
      "type": "function"
    },
    {
      "inputs": [],
      "name": "mgp",
      "outputs": [
        {
          "internalType": "contract IERC20",
          "name": "",
          "type": "address"
        }
      ],
      "stateMutability": "view",
      "type": "function"
    },
    {
      "inputs": [],
      "name": "mgpLp",
      "outputs": [
        {
          "internalType": "contract IERC20",
          "name": "",
          "type": "address"
        }
      ],
      "stateMutability": "view",
      "type": "function"
    },
    {
      "inputs": [],
      "name": "navSlippageBP",
      "outputs": [
        {
          "internalType": "uint256",
          "name": "",
          "type": "uint256"
        }
      ],
      "stateMutability": "view",
      "type": "function"
    },
    {
      "inputs": [],
      "name": "netAssetValue",
      "outputs": [
        {
          "internalType": "uint256",
          "name": "",
          "type": "uint256"
        }
      ],
      "stateMutability": "view",
      "type": "function"
    },
    {
      "inputs": [],
      "name": "poolFee0",
      "outputs": [
        {
          "internalType": "uint24",
          "name": "",
          "type": "uint24"
        }
      ],
      "stateMutability": "view",
      "type": "function"
    },
    {
      "inputs": [],
      "name": "poolFee1",
      "outputs": [
        {
          "internalType": "uint24",
          "name": "",
          "type": "uint24"
        }
      ],
      "stateMutability": "view",
      "type": "function"
    },
    {
      "inputs": [],
      "name": "poolHelperMgp",
      "outputs": [
        {
          "internalType": "contract MagpiePoolHelper",
          "name": "",
          "type": "address"
        }
      ],
      "stateMutability": "view",
      "type": "function"
    },
    {
      "inputs": [],
      "name": "poolWombat",
      "outputs": [
        {
          "internalType": "contract IWombatPool",
          "name": "",
          "type": "address"
        }
      ],
      "stateMutability": "view",
      "type": "function"
    },
    {
      "inputs": [],
      "name": "portfolioManager",
      "outputs": [
        {
          "internalType": "address",
          "name": "",
          "type": "address"
        }
      ],
      "stateMutability": "view",
      "type": "function"
    },
    {
      "inputs": [],
      "name": "proxiableUUID",
      "outputs": [
        {
          "internalType": "bytes32",
          "name": "",
          "type": "bytes32"
        }
      ],
      "stateMutability": "view",
      "type": "function"
    },
    {
      "inputs": [
        {
          "internalType": "bytes32",
          "name": "role",
          "type": "bytes32"
        },
        {
          "internalType": "address",
          "name": "account",
          "type": "address"
        }
      ],
      "name": "renounceRole",
      "outputs": [],
      "stateMutability": "nonpayable",
      "type": "function"
    },
    {
      "inputs": [
        {
          "internalType": "bytes32",
          "name": "role",
          "type": "bytes32"
        },
        {
          "internalType": "address",
          "name": "account",
          "type": "address"
        }
      ],
      "name": "revokeRole",
      "outputs": [],
      "stateMutability": "nonpayable",
      "type": "function"
    },
    {
      "inputs": [
        {
          "components": [
            {
              "internalType": "address",
              "name": "usdc",
              "type": "address"
            },
            {
              "internalType": "address",
              "name": "usdt",
              "type": "address"
            },
            {
              "internalType": "address",
              "name": "weth",
              "type": "address"
            },
            {
              "internalType": "address",
              "name": "wom",
              "type": "address"
            },
            {
              "internalType": "address",
              "name": "mgp",
              "type": "address"
            },
            {
              "internalType": "address",
              "name": "mgpLp",
              "type": "address"
            },
            {
              "internalType": "address",
              "name": "stakingWombat",
              "type": "address"
            },
            {
              "internalType": "address",
              "name": "poolWombat",
              "type": "address"
            },
            {
              "internalType": "address",
              "name": "masterMgp",
              "type": "address"
            },
            {
              "internalType": "address",
              "name": "poolHelperMgp",
              "type": "address"
            },
            {
              "internalType": "address",
              "name": "uniswapV3Router",
              "type": "address"
            },
            {
              "internalType": "uint24",
              "name": "poolFee0",
              "type": "uint24"
            },
            {
              "internalType": "uint24",
              "name": "poolFee1",
              "type": "uint24"
            },
            {
              "internalType": "address",
              "name": "traderJoeRouter",
              "type": "address"
            }
          ],
          "internalType": "struct StrategyMagpieOvnUsdc.StrategyParams",
          "name": "params",
          "type": "tuple"
        }
      ],
      "name": "setParams",
      "outputs": [],
      "stateMutability": "nonpayable",
      "type": "function"
    },
    {
      "inputs": [
        {
          "internalType": "address",
          "name": "_value",
          "type": "address"
        }
      ],
      "name": "setPortfolioManager",
      "outputs": [],
      "stateMutability": "nonpayable",
      "type": "function"
    },
    {
      "inputs": [
        {
          "internalType": "uint256",
          "name": "_swapSlippageBP",
          "type": "uint256"
        },
        {
          "internalType": "uint256",
          "name": "_navSlippageBP",
          "type": "uint256"
        },
        {
          "internalType": "uint256",
          "name": "_stakeSlippageBP",
          "type": "uint256"
        }
      ],
      "name": "setSlippages",
      "outputs": [],
      "stateMutability": "nonpayable",
      "type": "function"
    },
    {
      "inputs": [
        {
          "internalType": "address",
          "name": "_asset",
          "type": "address"
        },
        {
          "internalType": "uint256",
          "name": "_amount",
          "type": "uint256"
        }
      ],
      "name": "stake",
      "outputs": [],
      "stateMutability": "nonpayable",
      "type": "function"
    },
    {
      "inputs": [],
      "name": "stakeSlippageBP",
      "outputs": [
        {
          "internalType": "uint256",
          "name": "",
          "type": "uint256"
        }
      ],
      "stateMutability": "view",
      "type": "function"
    },
    {
      "inputs": [],
      "name": "stakingWombat",
      "outputs": [
        {
          "internalType": "address",
          "name": "",
          "type": "address"
        }
      ],
      "stateMutability": "view",
      "type": "function"
    },
    {
      "inputs": [
        {
          "internalType": "bytes4",
          "name": "interfaceId",
          "type": "bytes4"
        }
      ],
      "name": "supportsInterface",
      "outputs": [
        {
          "internalType": "bool",
          "name": "",
          "type": "bool"
        }
      ],
      "stateMutability": "view",
      "type": "function"
    },
    {
      "inputs": [],
      "name": "swapSlippageBP",
      "outputs": [
        {
          "internalType": "uint256",
          "name": "",
          "type": "uint256"
        }
      ],
      "stateMutability": "view",
      "type": "function"
    },
    {
      "inputs": [],
      "name": "traderJoeRouter",
      "outputs": [
        {
          "internalType": "contract JoeRouterV3",
          "name": "",
          "type": "address"
        }
      ],
      "stateMutability": "view",
      "type": "function"
    },
    {
      "inputs": [],
      "name": "uniswapV3Router",
      "outputs": [
        {
          "internalType": "contract ISwapRouter",
          "name": "",
          "type": "address"
        }
      ],
      "stateMutability": "view",
      "type": "function"
    },
    {
      "inputs": [
        {
          "internalType": "address",
          "name": "_asset",
          "type": "address"
        },
        {
          "internalType": "uint256",
          "name": "_amount",
          "type": "uint256"
        },
        {
          "internalType": "address",
          "name": "_beneficiary",
          "type": "address"
        },
        {
          "internalType": "bool",
          "name": "_targetIsZero",
          "type": "bool"
        }
      ],
      "name": "unstake",
      "outputs": [
        {
          "internalType": "uint256",
          "name": "",
          "type": "uint256"
        }
      ],
      "stateMutability": "nonpayable",
      "type": "function"
    },
    {
      "inputs": [
        {
          "internalType": "address",
          "name": "newImplementation",
          "type": "address"
        }
      ],
      "name": "upgradeTo",
      "outputs": [],
      "stateMutability": "nonpayable",
      "type": "function"
    },
    {
      "inputs": [
        {
          "internalType": "address",
          "name": "newImplementation",
          "type": "address"
        },
        {
          "internalType": "bytes",
          "name": "data",
          "type": "bytes"
        }
      ],
      "name": "upgradeToAndCall",
      "outputs": [],
      "stateMutability": "payable",
      "type": "function"
    },
    {
      "inputs": [],
      "name": "usdc",
      "outputs": [
        {
          "internalType": "contract IERC20",
          "name": "",
          "type": "address"
        }
      ],
      "stateMutability": "view",
      "type": "function"
    },
    {
      "inputs": [],
      "name": "usdt",
      "outputs": [
        {
          "internalType": "contract IERC20",
          "name": "",
          "type": "address"
        }
      ],
      "stateMutability": "view",
      "type": "function"
    },
    {
      "inputs": [],
      "name": "weth",
      "outputs": [
        {
          "internalType": "contract IERC20",
          "name": "",
          "type": "address"
        }
      ],
      "stateMutability": "view",
      "type": "function"
    },
    {
      "inputs": [],
      "name": "wom",
      "outputs": [
        {
          "internalType": "contract IERC20",
          "name": "",
          "type": "address"
        }
      ],
      "stateMutability": "view",
      "type": "function"
    }
  ],
  "numDeployments": 1,
  "solcInputHash": "268dff894ec86e96d011240676e957ba",
  "bytecode": "0x60a06040523060601b6080523480156200001857600080fd5b50600054610100900460ff16158080156200003a5750600054600160ff909116105b806200006a575062000057306200014460201b620017221760201c565b1580156200006a575060005460ff166001145b620000d25760405162461bcd60e51b815260206004820152602e60248201527f496e697469616c697a61626c653a20636f6e747261637420697320616c72656160448201526d191e481a5b9a5d1a585b1a5e995960921b606482015260840160405180910390fd5b6000805460ff191660011790558015620000f6576000805461ff0019166101001790555b80156200013d576000805461ff0019169055604051600181527f7f26b83ff96e1f2b6a682f133852f6798a09c465da95921460cefb38474024989060200160405180910390a15b5062000153565b6001600160a01b03163b151590565b60805160601c6138e66200018e6000396000818161083e0152818161087e0152818161091e0152818161095e01526109ed01526138e66000f3fe6080604052600436106102305760003560e01c80636866afe31161012e578063ae30c110116100ab578063ced2e32c1161006f578063ced2e32c14610699578063d547741f146106ba578063d7e6b1c8146106da578063ef5cfb8c146106fe578063f6f6b8811461071e57600080fd5b8063ae30c110146105ea578063af23ccc41461060a578063b550be9214610642578063bf52e08014610662578063c5a6222e1461067857600080fd5b806391d14854116100f257806391d1485414610560578063a217fddf14610580578063a3673b3814610595578063a440b21a146105aa578063adc9772e146105ca57600080fd5b80636866afe3146104c657806373806d10146104e75780637610d957146105085780637d5f5802146105295780638129fc1c1461054b57600080fd5b80633659cfe6116101bc578063525fc78f11610180578063525fc78f1461042657806352d1902d146104475780635ca558f81461045c5780635dbd733a14610472578063620b75df146104a657600080fd5b80633659cfe6146103905780633e413bee146103b05780633e993b03146103d15780633fc8cef3146103f25780634f1ef2861461041357600080fd5b80632c76d7a6116102035780632c76d7a6146102d35780632f2ff15d1461030c5780632f48ab7d1461032e5780632faff4271461034f57806336568abe1461037057600080fd5b806301ffc9a714610235578063119cd8791461026a578063248a9ca31461028e5780632576e65a146102be575b600080fd5b34801561024157600080fd5b50610255610250366004613226565b61073e565b60405190151581526020015b60405180910390f35b34801561027657600080fd5b5061028060fd5481565b604051908152602001610261565b34801561029a57600080fd5b506102806102a93660046131c8565b60009081526065602052604090206001015490565b3480156102ca57600080fd5b50610280610775565b3480156102df57600080fd5b50610137546102f4906001600160a01b031681565b6040516001600160a01b039091168152602001610261565b34801561031857600080fd5b5061032c6103273660046131fa565b610786565b005b34801561033a57600080fd5b5061012e546102f4906001600160a01b031681565b34801561035b57600080fd5b50610139546102f4906001600160a01b031681565b34801561037c57600080fd5b5061032c61038b3660046131fa565b6107b0565b34801561039c57600080fd5b5061032c6103ab366004613055565b610833565b3480156103bc57600080fd5b5061012d546102f4906001600160a01b031681565b3480156103dd57600080fd5b50610132546102f4906001600160a01b031681565b3480156103fe57600080fd5b5061012f546102f4906001600160a01b031681565b61032c610421366004613070565b610913565b34801561043257600080fd5b50610133546102f4906001600160a01b031681565b34801561045357600080fd5b506102806109e0565b34801561046857600080fd5b5061028060fe5481565b34801561047e57600080fd5b506102807fd67ad422505496469a1adf6cdf9e5ee92ac5d33992843c9ecc4b2f6d6cde913781565b3480156104b257600080fd5b5060fb546102f4906001600160a01b031681565b3480156104d257600080fd5b50610136546102f4906001600160a01b031681565b3480156104f357600080fd5b50610131546102f4906001600160a01b031681565b34801561051457600080fd5b50610134546102f4906001600160a01b031681565b34801561053557600080fd5b5061028060008051602061384a83398151915281565b34801561055757600080fd5b5061032c610a93565b34801561056c57600080fd5b5061025561057b3660046131fa565b610b5d565b34801561058c57600080fd5b50610280600081565b3480156105a157600080fd5b50610280610b88565b3480156105b657600080fd5b5061032c6105c5366004613055565b610b94565b3480156105d657600080fd5b5061032c6105e5366004613132565b610cc3565b3480156105f657600080fd5b5061032c6106053660046132b2565b610ef3565b34801561061657600080fd5b506101375461062e90600160b81b900462ffffff1681565b60405162ffffff9091168152602001610261565b34801561064e57600080fd5b5061032c61065d366004613250565b611068565b34801561066e57600080fd5b5061028060fc5481565b34801561068457600080fd5b50610130546102f4906001600160a01b031681565b3480156106a557600080fd5b50610135546102f4906001600160a01b031681565b3480156106c657600080fd5b5061032c6106d53660046131fa565b6113ad565b3480156106e657600080fd5b506101375461062e90600160a01b900462ffffff1681565b34801561070a57600080fd5b50610280610719366004613055565b6113d2565b34801561072a57600080fd5b5061028061073936600461315c565b611457565b60006001600160e01b03198216637965db0b60e01b148061076f57506301ffc9a760e01b6001600160e01b03198316145b92915050565b60006107816000611731565b905090565b6000828152606560205260409020600101546107a1816118e0565b6107ab83836118ea565b505050565b6001600160a01b03811633146108255760405162461bcd60e51b815260206004820152602f60248201527f416363657373436f6e74726f6c3a2063616e206f6e6c792072656e6f756e636560448201526e103937b632b9903337b91039b2b63360891b60648201526084015b60405180910390fd5b61082f8282611970565b5050565b306001600160a01b037f000000000000000000000000000000000000000000000000000000000000000016141561087c5760405162461bcd60e51b815260040161081c906134f9565b7f00000000000000000000000000000000000000000000000000000000000000006001600160a01b03166108c560008051602061386a833981519152546001600160a01b031690565b6001600160a01b0316146108eb5760405162461bcd60e51b815260040161081c90613545565b6108f4816119d7565b60408051600080825260208201909252610910918391906119e2565b50565b306001600160a01b037f000000000000000000000000000000000000000000000000000000000000000016141561095c5760405162461bcd60e51b815260040161081c906134f9565b7f00000000000000000000000000000000000000000000000000000000000000006001600160a01b03166109a560008051602061386a833981519152546001600160a01b031690565b6001600160a01b0316146109cb5760405162461bcd60e51b815260040161081c90613545565b6109d4826119d7565b61082f828260016119e2565b6000306001600160a01b037f00000000000000000000000000000000000000000000000000000000000000001614610a805760405162461bcd60e51b815260206004820152603860248201527f555550535570677261646561626c653a206d757374206e6f742062652063616c60448201527f6c6564207468726f7567682064656c656761746563616c6c0000000000000000606482015260840161081c565b5060008051602061386a83398151915290565b600054610100900460ff1615808015610ab35750600054600160ff909116105b80610acd5750303b158015610acd575060005460ff166001145b610ae95760405162461bcd60e51b815260040161081c90613591565b6000805460ff191660011790558015610b0c576000805461ff0019166101001790555b610b14611b5c565b8015610910576000805461ff0019169055604051600181527f7f26b83ff96e1f2b6a682f133852f6798a09c465da95921460cefb3847402498906020015b60405180910390a150565b60009182526065602090815260408084206001600160a01b0393909316845291905290205460ff1690565b60006107816001611731565b610b9f600033610b5d565b610be25760405162461bcd60e51b81526020600482015260146024820152735265737472696374656420746f2061646d696e7360601b604482015260640161081c565b6001600160a01b038116610c385760405162461bcd60e51b815260206004820152601860248201527f5a65726f2061646472657373206e6f7420616c6c6f7765640000000000000000604482015260640161081c565b60fb54610c5d9060008051602061384a833981519152906001600160a01b03166113ad565b610c7560008051602061384a83398151915282610786565b60fb80546001600160a01b0319166001600160a01b0383169081179091556040519081527ff7b449fcd5cfb7379dcd34cb69428dd9f882033b15be33d83b42d91daa28eeb790602001610b52565b610cdb60008051602061384a83398151915233610b5d565b610cf75760405162461bcd60e51b815260040161081c906134c2565b6000610d75306001600160a01b031663a3673b386040518163ffffffff1660e01b815260040160206040518083038186803b158015610d3557600080fd5b505afa158015610d49573d6000803e3d6000fd5b505050506040513d601f19601f82011682018060405250810190610d6d91906131e1565b60fd54611c41565b6040516370a0823160e01b8152306004820152909150610dfa9084906001600160a01b038216906370a082319060240160206040518083038186803b158015610dbd57600080fd5b505afa158015610dd1573d6000803e3d6000fd5b505050506040513d601f19601f82011682018060405250810190610df591906131e1565b611c6b565b80306001600160a01b031663a3673b386040518163ffffffff1660e01b815260040160206040518083038186803b158015610e3457600080fd5b505afa158015610e48573d6000803e3d6000fd5b505050506040513d601f19601f82011682018060405250810190610e6c91906131e1565b1015610eba5760405162461bcd60e51b815260206004820152601f60248201527f5374726174656779204e4156206c657373207468616e20657870656374656400604482015260640161081c565b6040518281527f227a473b70d2f893cc7659219575c030a63b5743024fe1e0c1a680e708b1525a906020015b60405180910390a1505050565b610f1d7fd67ad422505496469a1adf6cdf9e5ee92ac5d33992843c9ecc4b2f6d6cde913733610b5d565b80610fc4575060fb54604051632474521560e21b81527fd67ad422505496469a1adf6cdf9e5ee92ac5d33992843c9ecc4b2f6d6cde913760048201523360248201526001600160a01b03909116906391d148549060440160206040518083038186803b158015610f8c57600080fd5b505afa158015610fa0573d6000803e3d6000fd5b505050506040513d601f19601f82011682018060405250810190610fc491906131ab565b61101b5760405162461bcd60e51b815260206004820152602260248201527f5265737472696374656420746f20504f5254464f4c494f5f4147454e545f524f6044820152614c4560f01b606482015260840161081c565b60fc83905560fd82905560fe81905560408051848152602081018490529081018290527f116fbf1e97a2be629ad98abfb6c332733c8996c2dfb174dd2efe8440df381d1a90606001610ee6565b611073600033610b5d565b6110b65760405162461bcd60e51b81526020600482015260146024820152735265737472696374656420746f2061646d696e7360601b604482015260640161081c565b6110c36020820182613055565b61012d80546001600160a01b0319166001600160a01b03929092169190911790556110f46040820160208301613055565b61012e80546001600160a01b0319166001600160a01b03929092169190911790556111256060820160408301613055565b61012f80546001600160a01b0319166001600160a01b03929092169190911790556111566080820160608301613055565b61013080546001600160a01b0319166001600160a01b039290921691909117905561118760a0820160808301613055565b61013180546001600160a01b0319166001600160a01b03929092169190911790556111b860c0820160a08301613055565b61013280546001600160a01b0319166001600160a01b03929092169190911790556111e960e0820160c08301613055565b61013380546001600160a01b0319166001600160a01b039290921691909117905561121c61014082016101208301613055565b61013580546001600160a01b0319166001600160a01b039290921691909117905561124f61012082016101008301613055565b61013680546001600160a01b0319166001600160a01b0392909216919091179055611281610100820160e08301613055565b61013480546001600160a01b0319166001600160a01b03929092169190911790556112b461016082016101408301613055565b61013780546001600160a01b0319166001600160a01b03929092169190911790556112e761018082016101608301613269565b610137805462ffffff92909216600160a01b0262ffffff60a01b1990921691909117905561131d6101a082016101808301613269565b610137805462ffffff92909216600160b81b0262ffffff60b81b19909216919091179055670de0b6b3a7640000610138556113606101c082016101a08301613055565b61013980546001600160a01b0319166001600160a01b03929092169190911790556040517fea5646eb3528e525944447a4a97de700dd472298626e5c0481d1c82c3da86ea590600090a150565b6000828152606560205260409020600101546113c8816118e0565b6107ab8383611970565b60006113ec60008051602061384a83398151915233610b5d565b6114085760405162461bcd60e51b815260040161081c906134c2565b600061141383611dfe565b9050801561144f576040518181527f3ac0594a85a20354f9dc74f33728416d19ce00d04a406c108cc2dcf2cecea1349060200160405180910390a15b90505b919050565b600061147160008051602061384a83398151915233610b5d565b61148d5760405162461bcd60e51b815260040161081c906134c2565b60006114cb306001600160a01b031663a3673b386040518163ffffffff1660e01b815260040160206040518083038186803b158015610d3557600080fd5b905060008084156114f2576114df86611dfe565b90506114eb888761264d565b9150611561565b6114fd8888886127c8565b9150868210156115615760405162461bcd60e51b815260206004820152602960248201527f52657475726e65642076616c7565206c657373207468616e2072657175657374604482015268195908185b5bdd5b9d60ba1b606482015260840161081c565b82306001600160a01b031663a3673b386040518163ffffffff1660e01b815260040160206040518083038186803b15801561159b57600080fd5b505afa1580156115af573d6000803e3d6000fd5b505050506040513d601f19601f820116820180604052508101906115d391906131e1565b10156116215760405162461bcd60e51b815260206004820152601f60248201527f5374726174656779204e4156206c657373207468616e20657870656374656400604482015260640161081c565b60405163a9059cbb60e01b81526001600160a01b0387811660048301526024820184905289169063a9059cbb90604401602060405180830381600087803b15801561166b57600080fd5b505af115801561167f573d6000803e3d6000fd5b505050506040513d601f19601f820116820180604052508101906116a391906131ab565b5060408051888152602081018490527f9045c2ac9b2026de8075f2701bbdde882cd5e830b3b1ead9a15b22f2b5b93742910160405180910390a18015611717576040518181527f3ac0594a85a20354f9dc74f33728416d19ce00d04a406c108cc2dcf2cecea1349060200160405180910390a15b509695505050505050565b6001600160a01b03163b151590565b61012d546040516370a0823160e01b815230600482015260009182916001600160a01b03909116906370a082319060240160206040518083038186803b15801561177a57600080fd5b505afa15801561178e573d6000803e3d6000fd5b505050506040513d601f19601f820116820180604052508101906117b291906131e1565b6101355460405163e3d670d760e01b81523060048201529192506000916001600160a01b039091169063e3d670d79060240160206040518083038186803b1580156117fc57600080fd5b505afa158015611810573d6000803e3d6000fd5b505050506040513d601f19601f8201168201806040525081019061183491906131e1565b905080156118d9576101345461012d5460405163907448ed60e01b81526001600160a01b03918216600482015260248101849052600092919091169063907448ed90604401604080518083038186803b15801561189057600080fd5b505afa1580156118a4573d6000803e3d6000fd5b505050506040513d601f19601f820116820180604052508101906118c8919061328e565b5090506118d58184613730565b9250505b5092915050565b61091081336129fe565b6118f48282610b5d565b61082f5760008281526065602090815260408083206001600160a01b03851684529091529020805460ff1916600117905561192c3390565b6001600160a01b0316816001600160a01b0316837f2f8788117e7eff1d82e926ec794901d17c78024a50270940304540a733656f0d60405160405180910390a45050565b61197a8282610b5d565b1561082f5760008281526065602090815260408083206001600160a01b0385168085529252808320805460ff1916905551339285917ff6391f5c32d9c69d2a47ea670b442974b53935d1edc7fd64eb21e047a839171b9190a45050565b600061082f816118e0565b7f4910fdfa16fed3260ed0e7147f7cc6da11a60208b5b9406d12a635614ffd91435460ff1615611a15576107ab83612a57565b826001600160a01b03166352d1902d6040518163ffffffff1660e01b815260040160206040518083038186803b158015611a4e57600080fd5b505afa925050508015611a7e575060408051601f3d908101601f19168201909252611a7b918101906131e1565b60015b611ae15760405162461bcd60e51b815260206004820152602e60248201527f45524331393637557067726164653a206e657720696d706c656d656e7461746960448201526d6f6e206973206e6f74205555505360901b606482015260840161081c565b60008051602061386a8339815191528114611b505760405162461bcd60e51b815260206004820152602960248201527f45524331393637557067726164653a20756e737570706f727465642070726f786044820152681a58589b195555525160ba1b606482015260840161081c565b506107ab838383612af3565b600054610100900460ff1615808015611b7c5750600054600160ff909116105b80611b965750303b158015611b96575060005460ff166001145b611bb25760405162461bcd60e51b815260040161081c90613591565b6000805460ff191660011790558015611bd5576000805461ff0019166101001790555b611bdd612b1e565b611be5612b1e565b611bf06000336118ea565b601460fc81905560fd55600460fe558015610910576000805461ff0019169055604051600181527f7f26b83ff96e1f2b6a682f133852f6798a09c465da95921460cefb384740249890602001610b52565b6000612710611c508382613789565b611c5a908561376a565b611c649190613748565b9392505050565b6101345461012d546040516361858e2360e01b81526001600160a01b0391821660048201526024810184905260009291909116906361858e2390604401604080518083038186803b158015611cbf57600080fd5b505afa158015611cd3573d6000803e3d6000fd5b505050506040513d601f19601f82011682018060405250810190611cf7919061328e565b5061012d546101335460405163095ea7b360e01b81526001600160a01b03918216600482015260248101869052929350169063095ea7b390604401602060405180830381600087803b158015611d4c57600080fd5b505af1158015611d60573d6000803e3d6000fd5b505050506040513d601f19601f82011682018060405250810190611d8491906131ab565b50610135546001600160a01b031663e2bbb15883611da3846001611c41565b6040516001600160e01b031960e085901b16815260048101929092526024820152604401600060405180830381600087803b158015611de157600080fd5b505af1158015611df5573d6000803e3d6000fd5b50505050505050565b6101355460405163e3d670d760e01b81523060048201526000916001600160a01b03169063e3d670d79060240160206040518083038186803b158015611e4357600080fd5b505afa158015611e57573d6000803e3d6000fd5b505050506040513d601f19601f82011682018060405250810190611e7b91906131e1565b611e8757506000919050565b6040805160018082528183019092526000916020808301908036833750506101325482519293506001600160a01b031691839150600090611eca57611eca61380f565b6001600160a01b0392909216602092830291909101820152604080516002808252606082018352600093919290918301908036833750506101305482519293506001600160a01b031691839150600090611f2657611f2661380f565b6001600160a01b03928316602091820292909201015261013154825191169082906001908110611f5857611f5861380f565b6001600160a01b039290921660209283029190910190910152604080516001808252818301909252600091816020015b6060815260200190600190039081611f885790505090508181600081518110611fb357611fb361380f565b602090810291909101015261013654604051634531146360e01b81526001600160a01b0390911690634531146390611ff190869085906004016133df565b600060405180830381600087803b15801561200b57600080fd5b505af115801561201f573d6000803e3d6000fd5b505061012d546040516370a0823160e01b8152306004820152600093506001600160a01b0390911691506370a082319060240160206040518083038186803b15801561206a57600080fd5b505afa15801561207e573d6000803e3d6000fd5b505050506040513d601f19601f820116820180604052508101906120a291906131e1565b610130546040516370a0823160e01b81523060048201529192506000916001600160a01b03909116906370a082319060240160206040518083038186803b1580156120ec57600080fd5b505afa158015612100573d6000803e3d6000fd5b505050506040513d601f19601f8201168201806040525081019061212491906131e1565b9050801561217b57610137546101305461012e5461012d54600093612178936001600160a01b0380831694918116939181169291169062ffffff600160a01b8204811691600160b81b900416308989612b8b565b50505b610131546040516370a0823160e01b81523060048201526000916001600160a01b0316906370a082319060240160206040518083038186803b1580156121c057600080fd5b505afa1580156121d4573d6000803e3d6000fd5b505050506040513d601f19601f820116820180604052508101906121f891906131e1565b9050801561252557604080516003808252608082019092526000916020820160608036833750506101315482519293506001600160a01b0316918391506000906122445761224461380f565b6001600160a01b03928316602091820292909201015261012f548251911690829060019081106122765761227661380f565b6001600160a01b03928316602091820292909201015261012d548251911690829060029081106122a8576122a861380f565b6001600160a01b039290921660209283029190910182015260408051600280825260608201835260009391929091830190803683370190505090506000816000815181106122f8576122f861380f565b6020026020010181815250506000816001815181106123195761231961380f565b60209081029190910101526040805160028082526060820190925260009181602001602082028036833701905050905060008160008151811061235e5761235e61380f565b60200260200101906002811115612377576123776137f9565b9081600281111561238a5761238a6137f9565b815250506000816001815181106123a3576123a361380f565b602002602001019060028111156123bc576123bc6137f9565b908160028111156123cf576123cf6137f9565b815250506123f760405180606001604052806060815260200160608152602001606081525090565b8281526040808201859052602082018390526101315461013954915163095ea7b360e01b81526001600160a01b0392831660048201526024810188905291169063095ea7b390604401602060405180830381600087803b15801561245a57600080fd5b505af115801561246e573d6000803e3d6000fd5b505050506040513d601f19601f8201168201806040525081019061249291906131ab565b50610139546040516315221fd760e11b81526001600160a01b0390911690632a443fae906124cd90889060009086903090429060040161362d565b602060405180830381600087803b1580156124e757600080fd5b505af11580156124fb573d6000803e3d6000fd5b505050506040513d601f19601f8201168201806040525081019061251f91906131e1565b50505050505b61012d546040516370a0823160e01b815230600482015260009185916001600160a01b03909116906370a082319060240160206040518083038186803b15801561256e57600080fd5b505afa158015612582573d6000803e3d6000fd5b505050506040513d601f19601f820116820180604052508101906125a691906131e1565b6125b09190613789565b905080156126415761012d5460405163a9059cbb60e01b81526001600160a01b038b81166004830152602482018490529091169063a9059cbb90604401602060405180830381600087803b15801561260757600080fd5b505af115801561261b573d6000803e3d6000fd5b505050506040513d601f19601f8201168201806040525081019061263f91906131ab565b505b98975050505050505050565b6101355460405163e3d670d760e01b815230600482015260009182916001600160a01b039091169063e3d670d79060240160206040518083038186803b15801561269657600080fd5b505afa1580156126aa573d6000803e3d6000fd5b505050506040513d601f19601f820116820180604052508101906126ce91906131e1565b610135549091506001600160a01b031663441a3e70826126ee6000611731565b6040516001600160e01b031960e085901b16815260048101929092526024820152604401600060405180830381600087803b15801561272c57600080fd5b505af1158015612740573d6000803e3d6000fd5b505061012d546040516370a0823160e01b81523060048201526001600160a01b0390911692506370a08231915060240160206040518083038186803b15801561278857600080fd5b505afa15801561279c573d6000803e3d6000fd5b505050506040513d601f19601f820116820180604052508101906127c091906131e1565b949350505050565b6101345461012d546101385460405163907448ed60e01b81526001600160a01b03928316600482015260248101919091526000928392169063907448ed90604401604080518083038186803b15801561282057600080fd5b505afa158015612834573d6000803e3d6000fd5b505050506040513d601f19601f82011682018060405250810190612858919061328e565b5090506000816101385461286d876001612d1d565b612877919061376a565b6128819190613748565b6101355460405163e3d670d760e01b81523060048201529192506000916001600160a01b039091169063e3d670d79060240160206040518083038186803b1580156128cb57600080fd5b505afa1580156128df573d6000803e3d6000fd5b505050506040513d601f19601f8201168201806040525081019061290391906131e1565b905080821115612911578091505b61013554604051630441a3e760e41b815260048101849052602481018890526001600160a01b039091169063441a3e7090604401600060405180830381600087803b15801561295f57600080fd5b505af1158015612973573d6000803e3d6000fd5b505061012d546040516370a0823160e01b81523060048201526001600160a01b0390911692506370a08231915060240160206040518083038186803b1580156129bb57600080fd5b505afa1580156129cf573d6000803e3d6000fd5b505050506040513d601f19601f820116820180604052508101906129f391906131e1565b979650505050505050565b612a088282610b5d565b61082f57612a1581612d2c565b612a20836020612d3e565b604051602001612a3192919061336a565b60408051601f198184030181529082905262461bcd60e51b825261081c916004016134af565b6001600160a01b0381163b612ac45760405162461bcd60e51b815260206004820152602d60248201527f455243313936373a206e657720696d706c656d656e746174696f6e206973206e60448201526c1bdd08184818dbdb9d1c9858dd609a1b606482015260840161081c565b60008051602061386a83398151915280546001600160a01b0319166001600160a01b0392909216919091179055565b612afc83612eda565b600082511180612b095750805b156107ab57612b188383612f1a565b50505050565b600054610100900460ff16612b895760405162461bcd60e51b815260206004820152602b60248201527f496e697469616c697a61626c653a20636f6e7472616374206973206e6f74206960448201526a6e697469616c697a696e6760a81b606482015260840161081c565b565b60405163095ea7b360e01b81526001600160a01b038a8116600483015260248201849052600091908a169063095ea7b390604401602060405180830381600087803b158015612bd957600080fd5b505af1158015612bed573d6000803e3d6000fd5b505050506040513d601f19601f82011682018060405250810190612c1191906131ab565b50604080516080810182526bffffffffffffffffffffffff1960608c811b821660a08401526001600160e81b031960e88b811b821660b48601528d831b841660b78601528a901b1660cb8401528a811b90911660ce830152825180830360c201815260e28301845282526001600160a01b038781166020840152828401879052908201859052915163b858183f60e01b815290918c169063b858183f90612cbc9084906004016135df565b602060405180830381600087803b158015612cd657600080fd5b505af1158015612cea573d6000803e3d6000fd5b505050506040513d601f19601f82011682018060405250810190612d0e91906131e1565b9b9a5050505050505050505050565b6000612710611c508382613730565b606061076f6001600160a01b03831660145b60606000612d4d83600261376a565b612d58906002613730565b67ffffffffffffffff811115612d7057612d70613825565b6040519080825280601f01601f191660200182016040528015612d9a576020820181803683370190505b509050600360fc1b81600081518110612db557612db561380f565b60200101906001600160f81b031916908160001a905350600f60fb1b81600181518110612de457612de461380f565b60200101906001600160f81b031916908160001a9053506000612e0884600261376a565b612e13906001613730565b90505b6001811115612e8b576f181899199a1a9b1b9c1cb0b131b232b360811b85600f1660108110612e4757612e4761380f565b1a60f81b828281518110612e5d57612e5d61380f565b60200101906001600160f81b031916908160001a90535060049490941c93612e84816137cc565b9050612e16565b508315611c645760405162461bcd60e51b815260206004820181905260248201527f537472696e67733a20686578206c656e67746820696e73756666696369656e74604482015260640161081c565b612ee381612a57565b6040516001600160a01b038216907fbc7cd75a20ee27fd9adebab32041f755214dbc6bffa90cc0225b39da2e5c2d3b90600090a250565b60606001600160a01b0383163b612f825760405162461bcd60e51b815260206004820152602660248201527f416464726573733a2064656c65676174652063616c6c20746f206e6f6e2d636f6044820152651b9d1c9858dd60d21b606482015260840161081c565b600080846001600160a01b031684604051612f9d919061334e565b600060405180830381855af49150503d8060008114612fd8576040519150601f19603f3d011682016040523d82523d6000602084013e612fdd565b606091505b50915091506118d5828260405180606001604052806027815260200161388a602791396060831561300f575081611c64565b611c6483838151156130245781518083602001fd5b8060405162461bcd60e51b815260040161081c91906134af565b80356001600160a01b038116811461145257600080fd5b60006020828403121561306757600080fd5b611c648261303e565b6000806040838503121561308357600080fd5b61308c8361303e565b9150602083013567ffffffffffffffff808211156130a957600080fd5b818501915085601f8301126130bd57600080fd5b8135818111156130cf576130cf613825565b604051601f8201601f19908116603f011681019083821181831017156130f7576130f7613825565b8160405282815288602084870101111561311057600080fd5b8260208601602083013760006020848301015280955050505050509250929050565b6000806040838503121561314557600080fd5b61314e8361303e565b946020939093013593505050565b6000806000806080858703121561317257600080fd5b61317b8561303e565b9350602085013592506131906040860161303e565b915060608501356131a08161383b565b939692955090935050565b6000602082840312156131bd57600080fd5b8151611c648161383b565b6000602082840312156131da57600080fd5b5035919050565b6000602082840312156131f357600080fd5b5051919050565b6000806040838503121561320d57600080fd5b8235915061321d6020840161303e565b90509250929050565b60006020828403121561323857600080fd5b81356001600160e01b031981168114611c6457600080fd5b60006101c0828403121561326357600080fd5b50919050565b60006020828403121561327b57600080fd5b813562ffffff81168114611c6457600080fd5b600080604083850312156132a157600080fd5b505080516020909101519092909150565b6000806000606084860312156132c757600080fd5b505081359360208301359350604090920135919050565b600081518084526020808501945080840160005b838110156133175781516001600160a01b0316875295820195908201906001016132f2565b509495945050505050565b6000815180845261333a8160208601602086016137a0565b601f01601f19169290920160200192915050565b600082516133608184602087016137a0565b9190910192915050565b7f416363657373436f6e74726f6c3a206163636f756e74200000000000000000008152600083516133a28160178501602088016137a0565b7001034b99036b4b9b9b4b733903937b6329607d1b60179184019182015283516133d38160288401602088016137a0565b01602801949350505050565b604080825283519082018190526000906020906060840190828701845b828110156134215781516001600160a01b0316845292840192908401906001016133fc565b50505083810382850152845180825282820190600581901b8301840187850160005b838110156134a057858303601f1901855281518051808552908801908885019060005b8181101561348b5783516001600160a01b03168352928a0192918a0191600101613466565b50509588019593505090860190600101613443565b50909998505050505050505050565b602081526000611c646020830184613322565b6020808252601f908201527f5265737472696374656420746f20504f5254464f4c494f5f4d414e4147455200604082015260600190565b6020808252602c908201527f46756e6374696f6e206d7573742062652063616c6c6564207468726f7567682060408201526b19195b1959d85d1958d85b1b60a21b606082015260800190565b6020808252602c908201527f46756e6374696f6e206d7573742062652063616c6c6564207468726f7567682060408201526b6163746976652070726f787960a01b606082015260800190565b6020808252602e908201527f496e697469616c697a61626c653a20636f6e747261637420697320616c72656160408201526d191e481a5b9a5d1a585b1a5e995960921b606082015260800190565b6020815260008251608060208401526135fb60a0840182613322565b905060018060a01b03602085015116604084015260408401516060840152606084015160808401528091505092915050565b85815260006020868184015260a0604084015261010083018651606060a0860152818151808452610120870191508483019350600092505b808310156136855783518252928401926001929092019190840190613665565b5083890151609f19878303810160c08901528151808452918601945092506000918501905b808310156136e8578451600381106136d257634e487b7160e01b600052602160045260246000fd5b82529385019360019290920191908501906136aa565b5060408a01519450828782030160e088015261370481866132de565b9550505050505061372060608301856001600160a01b03169052565b8260808301529695505050505050565b60008219821115613743576137436137e3565b500190565b60008261376557634e487b7160e01b600052601260045260246000fd5b500490565b6000816000190483118215151615613784576137846137e3565b500290565b60008282101561379b5761379b6137e3565b500390565b60005b838110156137bb5781810151838201526020016137a3565b83811115612b185750506000910152565b6000816137db576137db6137e3565b506000190190565b634e487b7160e01b600052601160045260246000fd5b634e487b7160e01b600052602160045260246000fd5b634e487b7160e01b600052603260045260246000fd5b634e487b7160e01b600052604160045260246000fd5b801515811461091057600080fdfe90c2aa7471c04182221f68e80c07ab1e5946e4c63f8693e14ca40385d529f051360894a13ba1a3210667c828492db98dca3e2076cc3735a920a3ca505d382bbc416464726573733a206c6f772d6c6576656c2064656c65676174652063616c6c206661696c6564a264697066735822122005773d15cbc3d1a272cbfd97cfe9c93225bb53316039fb199904c5bc9d60bfe964736f6c63430008060033",
  "implementation": "0x44374CF797aC7903aac8Dc415060D2F583D3eba3",
  "devdoc": {
    "details": "Invest strategy 1) invest USDC to Overnight pool on Wombat 3) Stake lp tokens in Magpie Sell rewards: - WOM on UniswapV3 - MGP on TraderJoe",
    "kind": "dev",
    "methods": {
      "constructor": {
        "custom:oz-upgrades-unsafe-allow": "constructor"
      },
      "getRoleAdmin(bytes32)": {
        "details": "Returns the admin role that controls `role`. See {grantRole} and {revokeRole}. To change a role's admin, use {_setRoleAdmin}."
      },
      "grantRole(bytes32,address)": {
        "details": "Grants `role` to `account`. If `account` had not been already granted `role`, emits a {RoleGranted} event. Requirements: - the caller must have ``role``'s admin role. May emit a {RoleGranted} event."
      },
      "hasRole(bytes32,address)": {
        "details": "Returns `true` if `account` has been granted `role`."
      },
      "proxiableUUID()": {
        "details": "Implementation of the ERC1822 {proxiableUUID} function. This returns the storage slot used by the implementation. It is used to validate the implementation's compatibility when performing an upgrade. IMPORTANT: A proxy pointing at a proxiable contract should not be considered proxiable itself, because this risks bricking a proxy that upgrades to it, by delegating to itself until out of gas. Thus it is critical that this function revert if invoked through a proxy. This is guaranteed by the `notDelegated` modifier."
      },
      "renounceRole(bytes32,address)": {
        "details": "Revokes `role` from the calling account. Roles are often managed via {grantRole} and {revokeRole}: this function's purpose is to provide a mechanism for accounts to lose their privileges if they are compromised (such as when a trusted device is misplaced). If the calling account had been revoked `role`, emits a {RoleRevoked} event. Requirements: - the caller must be `account`. May emit a {RoleRevoked} event."
      },
      "revokeRole(bytes32,address)": {
        "details": "Revokes `role` from `account`. If `account` had been granted `role`, emits a {RoleRevoked} event. Requirements: - the caller must have ``role``'s admin role. May emit a {RoleRevoked} event."
      },
      "supportsInterface(bytes4)": {
        "details": "See {IERC165-supportsInterface}."
      },
      "upgradeTo(address)": {
        "details": "Upgrade the implementation of the proxy to `newImplementation`. Calls {_authorizeUpgrade}. Emits an {Upgraded} event."
      },
      "upgradeToAndCall(address,bytes)": {
        "details": "Upgrade the implementation of the proxy to `newImplementation`, and subsequently execute the function call encoded in `data`. Calls {_authorizeUpgrade}. Emits an {Upgraded} event."
      }
    },
    "version": 1
  },
  "userdoc": {
    "kind": "user",
    "methods": {},
    "version": 1
  },
  "storageLayout": {
    "storage": [
      {
        "astId": 804,
        "contract": "contracts/StrategyMagpieOvnUsdc.sol:StrategyMagpieOvnUsdc",
        "label": "_initialized",
        "offset": 0,
        "slot": "0",
        "type": "t_uint8"
      },
      {
        "astId": 807,
        "contract": "contracts/StrategyMagpieOvnUsdc.sol:StrategyMagpieOvnUsdc",
        "label": "_initializing",
        "offset": 1,
        "slot": "0",
        "type": "t_bool"
      },
      {
        "astId": 1427,
        "contract": "contracts/StrategyMagpieOvnUsdc.sol:StrategyMagpieOvnUsdc",
        "label": "__gap",
        "offset": 0,
        "slot": "1",
        "type": "t_array(t_uint256)50_storage"
      },
      {
        "astId": 1706,
        "contract": "contracts/StrategyMagpieOvnUsdc.sol:StrategyMagpieOvnUsdc",
        "label": "__gap",
        "offset": 0,
        "slot": "51",
        "type": "t_array(t_uint256)50_storage"
      },
      {
        "astId": 39,
        "contract": "contracts/StrategyMagpieOvnUsdc.sol:StrategyMagpieOvnUsdc",
        "label": "_roles",
        "offset": 0,
        "slot": "101",
        "type": "t_mapping(t_bytes32,t_struct(RoleData)34_storage)"
      },
      {
        "astId": 334,
        "contract": "contracts/StrategyMagpieOvnUsdc.sol:StrategyMagpieOvnUsdc",
        "label": "__gap",
        "offset": 0,
        "slot": "102",
        "type": "t_array(t_uint256)49_storage"
      },
      {
        "astId": 786,
        "contract": "contracts/StrategyMagpieOvnUsdc.sol:StrategyMagpieOvnUsdc",
        "label": "__gap",
        "offset": 0,
        "slot": "151",
        "type": "t_array(t_uint256)50_storage"
      },
      {
        "astId": 1101,
        "contract": "contracts/StrategyMagpieOvnUsdc.sol:StrategyMagpieOvnUsdc",
        "label": "__gap",
        "offset": 0,
        "slot": "201",
        "type": "t_array(t_uint256)50_storage"
      },
      {
        "astId": 14673,
        "contract": "contracts/StrategyMagpieOvnUsdc.sol:StrategyMagpieOvnUsdc",
        "label": "portfolioManager",
        "offset": 0,
        "slot": "251",
        "type": "t_address"
      },
      {
        "astId": 14675,
        "contract": "contracts/StrategyMagpieOvnUsdc.sol:StrategyMagpieOvnUsdc",
        "label": "swapSlippageBP",
        "offset": 0,
        "slot": "252",
        "type": "t_uint256"
      },
      {
        "astId": 14677,
        "contract": "contracts/StrategyMagpieOvnUsdc.sol:StrategyMagpieOvnUsdc",
        "label": "navSlippageBP",
        "offset": 0,
        "slot": "253",
        "type": "t_uint256"
      },
      {
        "astId": 14679,
        "contract": "contracts/StrategyMagpieOvnUsdc.sol:StrategyMagpieOvnUsdc",
        "label": "stakeSlippageBP",
        "offset": 0,
        "slot": "254",
        "type": "t_uint256"
      },
      {
        "astId": 15064,
        "contract": "contracts/StrategyMagpieOvnUsdc.sol:StrategyMagpieOvnUsdc",
        "label": "__gap",
        "offset": 0,
        "slot": "255",
        "type": "t_array(t_uint256)46_storage"
      },
      {
        "astId": 15995,
        "contract": "contracts/StrategyMagpieOvnUsdc.sol:StrategyMagpieOvnUsdc",
        "label": "usdc",
        "offset": 0,
        "slot": "301",
        "type": "t_contract(IERC20)2662"
      },
      {
        "astId": 15998,
        "contract": "contracts/StrategyMagpieOvnUsdc.sol:StrategyMagpieOvnUsdc",
        "label": "usdt",
        "offset": 0,
        "slot": "302",
        "type": "t_contract(IERC20)2662"
      },
      {
        "astId": 16001,
        "contract": "contracts/StrategyMagpieOvnUsdc.sol:StrategyMagpieOvnUsdc",
        "label": "weth",
        "offset": 0,
        "slot": "303",
        "type": "t_contract(IERC20)2662"
      },
      {
        "astId": 16004,
        "contract": "contracts/StrategyMagpieOvnUsdc.sol:StrategyMagpieOvnUsdc",
        "label": "wom",
        "offset": 0,
        "slot": "304",
        "type": "t_contract(IERC20)2662"
      },
      {
        "astId": 16007,
        "contract": "contracts/StrategyMagpieOvnUsdc.sol:StrategyMagpieOvnUsdc",
        "label": "mgp",
        "offset": 0,
        "slot": "305",
        "type": "t_contract(IERC20)2662"
      },
      {
        "astId": 16010,
        "contract": "contracts/StrategyMagpieOvnUsdc.sol:StrategyMagpieOvnUsdc",
        "label": "mgpLp",
        "offset": 0,
        "slot": "306",
        "type": "t_contract(IERC20)2662"
      },
      {
        "astId": 16012,
        "contract": "contracts/StrategyMagpieOvnUsdc.sol:StrategyMagpieOvnUsdc",
        "label": "stakingWombat",
        "offset": 0,
        "slot": "307",
        "type": "t_address"
      },
      {
        "astId": 16015,
        "contract": "contracts/StrategyMagpieOvnUsdc.sol:StrategyMagpieOvnUsdc",
        "label": "poolWombat",
        "offset": 0,
        "slot": "308",
        "type": "t_contract(IWombatPool)12315"
      },
      {
        "astId": 16018,
        "contract": "contracts/StrategyMagpieOvnUsdc.sol:StrategyMagpieOvnUsdc",
        "label": "poolHelperMgp",
        "offset": 0,
        "slot": "309",
        "type": "t_contract(MagpiePoolHelper)7019"
      },
      {
        "astId": 16021,
        "contract": "contracts/StrategyMagpieOvnUsdc.sol:StrategyMagpieOvnUsdc",
        "label": "masterMgp",
        "offset": 0,
        "slot": "310",
        "type": "t_contract(MasterMagpie)7030"
      },
      {
        "astId": 16024,
        "contract": "contracts/StrategyMagpieOvnUsdc.sol:StrategyMagpieOvnUsdc",
        "label": "uniswapV3Router",
        "offset": 0,
        "slot": "311",
        "type": "t_contract(ISwapRouter)10149"
      },
      {
        "astId": 16026,
        "contract": "contracts/StrategyMagpieOvnUsdc.sol:StrategyMagpieOvnUsdc",
        "label": "poolFee0",
        "offset": 20,
        "slot": "311",
        "type": "t_uint24"
      },
      {
        "astId": 16028,
        "contract": "contracts/StrategyMagpieOvnUsdc.sol:StrategyMagpieOvnUsdc",
        "label": "poolFee1",
        "offset": 23,
        "slot": "311",
        "type": "t_uint24"
      },
      {
        "astId": 16030,
        "contract": "contracts/StrategyMagpieOvnUsdc.sol:StrategyMagpieOvnUsdc",
        "label": "assetWombatDm",
        "offset": 0,
        "slot": "312",
        "type": "t_uint256"
      },
      {
        "astId": 16033,
        "contract": "contracts/StrategyMagpieOvnUsdc.sol:StrategyMagpieOvnUsdc",
        "label": "traderJoeRouter",
        "offset": 0,
        "slot": "313",
        "type": "t_contract(JoeRouterV3)9400"
      }
    ],
    "types": {
      "t_address": {
        "encoding": "inplace",
        "label": "address",
        "numberOfBytes": "20"
      },
      "t_array(t_uint256)46_storage": {
        "base": "t_uint256",
        "encoding": "inplace",
        "label": "uint256[46]",
        "numberOfBytes": "1472"
      },
      "t_array(t_uint256)49_storage": {
        "base": "t_uint256",
        "encoding": "inplace",
        "label": "uint256[49]",
        "numberOfBytes": "1568"
      },
      "t_array(t_uint256)50_storage": {
        "base": "t_uint256",
        "encoding": "inplace",
        "label": "uint256[50]",
        "numberOfBytes": "1600"
      },
      "t_bool": {
        "encoding": "inplace",
        "label": "bool",
        "numberOfBytes": "1"
      },
      "t_bytes32": {
        "encoding": "inplace",
        "label": "bytes32",
        "numberOfBytes": "32"
      },
      "t_contract(IERC20)2662": {
        "encoding": "inplace",
        "label": "contract IERC20",
        "numberOfBytes": "20"
      },
      "t_contract(ISwapRouter)10149": {
        "encoding": "inplace",
        "label": "contract ISwapRouter",
        "numberOfBytes": "20"
      },
      "t_contract(IWombatPool)12315": {
        "encoding": "inplace",
        "label": "contract IWombatPool",
        "numberOfBytes": "20"
      },
      "t_contract(JoeRouterV3)9400": {
        "encoding": "inplace",
        "label": "contract JoeRouterV3",
        "numberOfBytes": "20"
      },
      "t_contract(MagpiePoolHelper)7019": {
        "encoding": "inplace",
        "label": "contract MagpiePoolHelper",
        "numberOfBytes": "20"
      },
      "t_contract(MasterMagpie)7030": {
        "encoding": "inplace",
        "label": "contract MasterMagpie",
        "numberOfBytes": "20"
      },
      "t_mapping(t_address,t_bool)": {
        "encoding": "mapping",
        "key": "t_address",
        "label": "mapping(address => bool)",
        "numberOfBytes": "32",
        "value": "t_bool"
      },
      "t_mapping(t_bytes32,t_struct(RoleData)34_storage)": {
        "encoding": "mapping",
        "key": "t_bytes32",
        "label": "mapping(bytes32 => struct AccessControlUpgradeable.RoleData)",
        "numberOfBytes": "32",
        "value": "t_struct(RoleData)34_storage"
      },
      "t_struct(RoleData)34_storage": {
        "encoding": "inplace",
        "label": "struct AccessControlUpgradeable.RoleData",
        "members": [
          {
            "astId": 31,
            "contract": "contracts/StrategyMagpieOvnUsdc.sol:StrategyMagpieOvnUsdc",
            "label": "members",
            "offset": 0,
            "slot": "0",
            "type": "t_mapping(t_address,t_bool)"
          },
          {
            "astId": 33,
            "contract": "contracts/StrategyMagpieOvnUsdc.sol:StrategyMagpieOvnUsdc",
            "label": "adminRole",
            "offset": 0,
            "slot": "1",
            "type": "t_bytes32"
          }
        ],
        "numberOfBytes": "64"
      },
      "t_uint24": {
        "encoding": "inplace",
        "label": "uint24",
        "numberOfBytes": "3"
      },
      "t_uint256": {
        "encoding": "inplace",
        "label": "uint256",
        "numberOfBytes": "32"
      },
      "t_uint8": {
        "encoding": "inplace",
        "label": "uint8",
        "numberOfBytes": "1"
      }
    }
  }
}