{
  "address": "0xF4e58b63FD822E6543245128a42fE8Ad22db161d",
  "abi": [
    {
      "inputs": [],
      "stateMutability": "nonpayable",
      "type": "constructor"
    },
    {
      "anonymous": false,
      "inputs": [
        {
          "indexed": false,
          "internalType": "address",
          "name": "previousAdmin",
          "type": "address"
        },
        {
          "indexed": false,
          "internalType": "address",
          "name": "newAdmin",
          "type": "address"
        }
      ],
      "name": "AdminChanged",
      "type": "event"
    },
    {
      "anonymous": false,
      "inputs": [
        {
          "indexed": true,
          "internalType": "address",
          "name": "beacon",
          "type": "address"
        }
      ],
      "name": "BeaconUpgraded",
      "type": "event"
    },
    {
      "anonymous": false,
      "inputs": [
        {
          "indexed": false,
          "internalType": "uint8",
          "name": "version",
          "type": "uint8"
        }
      ],
      "name": "Initialized",
      "type": "event"
    },
    {
      "anonymous": false,
      "inputs": [
        {
          "indexed": false,
          "internalType": "address",
          "name": "value",
          "type": "address"
        }
      ],
      "name": "PortfolioManagerUpdated",
      "type": "event"
    },
    {
      "anonymous": false,
      "inputs": [
        {
          "indexed": false,
          "internalType": "uint256",
          "name": "amount",
          "type": "uint256"
        }
      ],
      "name": "Reward",
      "type": "event"
    },
    {
      "anonymous": false,
      "inputs": [
        {
          "indexed": true,
          "internalType": "bytes32",
          "name": "role",
          "type": "bytes32"
        },
        {
          "indexed": true,
          "internalType": "bytes32",
          "name": "previousAdminRole",
          "type": "bytes32"
        },
        {
          "indexed": true,
          "internalType": "bytes32",
          "name": "newAdminRole",
          "type": "bytes32"
        }
      ],
      "name": "RoleAdminChanged",
      "type": "event"
    },
    {
      "anonymous": false,
      "inputs": [
        {
          "indexed": true,
          "internalType": "bytes32",
          "name": "role",
          "type": "bytes32"
        },
        {
          "indexed": true,
          "internalType": "address",
          "name": "account",
          "type": "address"
        },
        {
          "indexed": true,
          "internalType": "address",
          "name": "sender",
          "type": "address"
        }
      ],
      "name": "RoleGranted",
      "type": "event"
    },
    {
      "anonymous": false,
      "inputs": [
        {
          "indexed": true,
          "internalType": "bytes32",
          "name": "role",
          "type": "bytes32"
        },
        {
          "indexed": true,
          "internalType": "address",
          "name": "account",
          "type": "address"
        },
        {
          "indexed": true,
          "internalType": "address",
          "name": "sender",
          "type": "address"
        }
      ],
      "name": "RoleRevoked",
      "type": "event"
    },
    {
      "anonymous": false,
      "inputs": [
        {
          "indexed": false,
          "internalType": "uint256",
          "name": "swapSlippageBP",
          "type": "uint256"
        },
        {
          "indexed": false,
          "internalType": "uint256",
          "name": "navSlippageBP",
          "type": "uint256"
        },
        {
          "indexed": false,
          "internalType": "uint256",
          "name": "stakeSlippageBP",
          "type": "uint256"
        }
      ],
      "name": "SlippagesUpdated",
      "type": "event"
    },
    {
      "anonymous": false,
      "inputs": [
        {
          "indexed": false,
          "internalType": "uint256",
          "name": "amount",
          "type": "uint256"
        }
      ],
      "name": "Stake",
      "type": "event"
    },
    {
      "anonymous": false,
      "inputs": [],
      "name": "StrategyUpdatedParams",
      "type": "event"
    },
    {
      "anonymous": false,
      "inputs": [
        {
          "indexed": false,
          "internalType": "uint256",
          "name": "amount",
          "type": "uint256"
        },
        {
          "indexed": false,
          "internalType": "uint256",
          "name": "amountReceived",
          "type": "uint256"
        }
      ],
      "name": "Unstake",
      "type": "event"
    },
    {
      "anonymous": false,
      "inputs": [
        {
          "indexed": true,
          "internalType": "address",
          "name": "implementation",
          "type": "address"
        }
      ],
      "name": "Upgraded",
      "type": "event"
    },
    {
      "inputs": [],
      "name": "DEFAULT_ADMIN_ROLE",
      "outputs": [
        {
          "internalType": "bytes32",
          "name": "",
          "type": "bytes32"
        }
      ],
      "stateMutability": "view",
      "type": "function"
    },
    {
      "inputs": [],
      "name": "PORTFOLIO_AGENT_ROLE",
      "outputs": [
        {
          "internalType": "bytes32",
          "name": "",
          "type": "bytes32"
        }
      ],
      "stateMutability": "view",
      "type": "function"
    },
    {
      "inputs": [],
      "name": "PORTFOLIO_MANAGER",
      "outputs": [
        {
          "internalType": "bytes32",
          "name": "",
          "type": "bytes32"
        }
      ],
      "stateMutability": "view",
      "type": "function"
    },
    {
      "inputs": [],
      "name": "camelotRouter",
      "outputs": [
        {
          "internalType": "contract ICamelotRouter",
          "name": "",
          "type": "address"
        }
      ],
      "stateMutability": "view",
      "type": "function"
    },
    {
      "inputs": [
        {
          "internalType": "address",
          "name": "_to",
          "type": "address"
        }
      ],
      "name": "claimRewards",
      "outputs": [
        {
          "internalType": "uint256",
          "name": "",
          "type": "uint256"
        }
      ],
      "stateMutability": "nonpayable",
      "type": "function"
    },
    {
      "inputs": [
        {
          "internalType": "bytes32",
          "name": "role",
          "type": "bytes32"
        }
      ],
      "name": "getRoleAdmin",
      "outputs": [
        {
          "internalType": "bytes32",
          "name": "",
          "type": "bytes32"
        }
      ],
      "stateMutability": "view",
      "type": "function"
    },
    {
      "inputs": [
        {
          "internalType": "bytes32",
          "name": "role",
          "type": "bytes32"
        },
        {
          "internalType": "address",
          "name": "account",
          "type": "address"
        }
      ],
      "name": "grantRole",
      "outputs": [],
      "stateMutability": "nonpayable",
      "type": "function"
    },
    {
      "inputs": [
        {
          "internalType": "bytes32",
          "name": "role",
          "type": "bytes32"
        },
        {
          "internalType": "address",
          "name": "account",
          "type": "address"
        }
      ],
      "name": "hasRole",
      "outputs": [
        {
          "internalType": "bool",
          "name": "",
          "type": "bool"
        }
      ],
      "stateMutability": "view",
      "type": "function"
    },
    {
      "inputs": [],
      "name": "initialize",
      "outputs": [],
      "stateMutability": "nonpayable",
      "type": "function"
    },
    {
      "inputs": [],
      "name": "liquidationValue",
      "outputs": [
        {
          "internalType": "uint256",
          "name": "",
          "type": "uint256"
        }
      ],
      "stateMutability": "view",
      "type": "function"
    },
    {
      "inputs": [],
      "name": "navSlippageBP",
      "outputs": [
        {
          "internalType": "uint256",
          "name": "",
          "type": "uint256"
        }
      ],
      "stateMutability": "view",
      "type": "function"
    },
    {
      "inputs": [],
      "name": "netAssetValue",
      "outputs": [
        {
          "internalType": "uint256",
          "name": "",
          "type": "uint256"
        }
      ],
      "stateMutability": "view",
      "type": "function"
    },
    {
      "inputs": [],
      "name": "portfolioManager",
      "outputs": [
        {
          "internalType": "address",
          "name": "",
          "type": "address"
        }
      ],
      "stateMutability": "view",
      "type": "function"
    },
    {
      "inputs": [],
      "name": "proxiableUUID",
      "outputs": [
        {
          "internalType": "bytes32",
          "name": "",
          "type": "bytes32"
        }
      ],
      "stateMutability": "view",
      "type": "function"
    },
    {
      "inputs": [
        {
          "internalType": "bytes32",
          "name": "role",
          "type": "bytes32"
        },
        {
          "internalType": "address",
          "name": "account",
          "type": "address"
        }
      ],
      "name": "renounceRole",
      "outputs": [],
      "stateMutability": "nonpayable",
      "type": "function"
    },
    {
      "inputs": [
        {
          "internalType": "bytes32",
          "name": "role",
          "type": "bytes32"
        },
        {
          "internalType": "address",
          "name": "account",
          "type": "address"
        }
      ],
      "name": "revokeRole",
      "outputs": [],
      "stateMutability": "nonpayable",
      "type": "function"
    },
    {
      "inputs": [
        {
          "components": [
            {
              "internalType": "address",
              "name": "usdc",
              "type": "address"
            },
            {
              "internalType": "address",
              "name": "silo",
              "type": "address"
            },
            {
              "internalType": "address",
              "name": "siloIncentivesController",
              "type": "address"
            },
            {
              "internalType": "address",
              "name": "siloTower",
              "type": "address"
            },
            {
              "internalType": "address",
              "name": "siloToken",
              "type": "address"
            },
            {
              "internalType": "address",
              "name": "wethToken",
              "type": "address"
            },
            {
              "internalType": "address",
              "name": "camelotRouter",
              "type": "address"
            }
          ],
          "internalType": "struct StrategySiloUsdc.StrategyParams",
          "name": "params",
          "type": "tuple"
        }
      ],
      "name": "setParams",
      "outputs": [],
      "stateMutability": "nonpayable",
      "type": "function"
    },
    {
      "inputs": [
        {
          "internalType": "address",
          "name": "_value",
          "type": "address"
        }
      ],
      "name": "setPortfolioManager",
      "outputs": [],
      "stateMutability": "nonpayable",
      "type": "function"
    },
    {
      "inputs": [
        {
          "internalType": "uint256",
          "name": "_swapSlippageBP",
          "type": "uint256"
        },
        {
          "internalType": "uint256",
          "name": "_navSlippageBP",
          "type": "uint256"
        },
        {
          "internalType": "uint256",
          "name": "_stakeSlippageBP",
          "type": "uint256"
        }
      ],
      "name": "setSlippages",
      "outputs": [],
      "stateMutability": "nonpayable",
      "type": "function"
    },
    {
      "inputs": [],
      "name": "silo",
      "outputs": [
        {
          "internalType": "contract ISilo",
          "name": "",
          "type": "address"
        }
      ],
      "stateMutability": "view",
      "type": "function"
    },
    {
      "inputs": [],
      "name": "siloIncentivesController",
      "outputs": [
        {
          "internalType": "contract ISiloIncentivesController",
          "name": "",
          "type": "address"
        }
      ],
      "stateMutability": "view",
      "type": "function"
    },
    {
      "inputs": [],
      "name": "siloToken",
      "outputs": [
        {
          "internalType": "contract IERC20",
          "name": "",
          "type": "address"
        }
      ],
      "stateMutability": "view",
      "type": "function"
    },
    {
      "inputs": [],
      "name": "siloTower",
      "outputs": [
        {
          "internalType": "address",
          "name": "",
          "type": "address"
        }
      ],
      "stateMutability": "view",
      "type": "function"
    },
    {
      "inputs": [
        {
          "internalType": "address",
          "name": "_asset",
          "type": "address"
        },
        {
          "internalType": "uint256",
          "name": "_amount",
          "type": "uint256"
        }
      ],
      "name": "stake",
      "outputs": [],
      "stateMutability": "nonpayable",
      "type": "function"
    },
    {
      "inputs": [],
      "name": "stakeSlippageBP",
      "outputs": [
        {
          "internalType": "uint256",
          "name": "",
          "type": "uint256"
        }
      ],
      "stateMutability": "view",
      "type": "function"
    },
    {
      "inputs": [
        {
          "internalType": "bytes4",
          "name": "interfaceId",
          "type": "bytes4"
        }
      ],
      "name": "supportsInterface",
      "outputs": [
        {
          "internalType": "bool",
          "name": "",
          "type": "bool"
        }
      ],
      "stateMutability": "view",
      "type": "function"
    },
    {
      "inputs": [],
      "name": "swapSlippageBP",
      "outputs": [
        {
          "internalType": "uint256",
          "name": "",
          "type": "uint256"
        }
      ],
      "stateMutability": "view",
      "type": "function"
    },
    {
      "inputs": [
        {
          "internalType": "address",
          "name": "_asset",
          "type": "address"
        },
        {
          "internalType": "uint256",
          "name": "_amount",
          "type": "uint256"
        },
        {
          "internalType": "address",
          "name": "_beneficiary",
          "type": "address"
        },
        {
          "internalType": "bool",
          "name": "_targetIsZero",
          "type": "bool"
        }
      ],
      "name": "unstake",
      "outputs": [
        {
          "internalType": "uint256",
          "name": "",
          "type": "uint256"
        }
      ],
      "stateMutability": "nonpayable",
      "type": "function"
    },
    {
      "inputs": [
        {
          "internalType": "address",
          "name": "newImplementation",
          "type": "address"
        }
      ],
      "name": "upgradeTo",
      "outputs": [],
      "stateMutability": "nonpayable",
      "type": "function"
    },
    {
      "inputs": [
        {
          "internalType": "address",
          "name": "newImplementation",
          "type": "address"
        },
        {
          "internalType": "bytes",
          "name": "data",
          "type": "bytes"
        }
      ],
      "name": "upgradeToAndCall",
      "outputs": [],
      "stateMutability": "payable",
      "type": "function"
    },
    {
      "inputs": [],
      "name": "usdc",
      "outputs": [
        {
          "internalType": "contract IERC20",
          "name": "",
          "type": "address"
        }
      ],
      "stateMutability": "view",
      "type": "function"
    },
    {
      "inputs": [],
      "name": "wethToken",
      "outputs": [
        {
          "internalType": "contract IERC20",
          "name": "",
          "type": "address"
        }
      ],
      "stateMutability": "view",
      "type": "function"
    }
  ],
  "numDeployments": 1,
  "solcInputHash": "d50ff4912dc3578bdd9341e5e8098c61",
  "bytecode": "0x60a0604052306080523480156200001557600080fd5b50600054610100900460ff1615808015620000375750600054600160ff909116105b8062000067575062000054306200014160201b620015bf1760201c565b15801562000067575060005460ff166001145b620000cf5760405162461bcd60e51b815260206004820152602e60248201527f496e697469616c697a61626c653a20636f6e747261637420697320616c72656160448201526d191e481a5b9a5d1a585b1a5e995960921b606482015260840160405180910390fd5b6000805460ff191660011790558015620000f3576000805461ff0019166101001790555b80156200013a576000805461ff0019169055604051600181527f7f26b83ff96e1f2b6a682f133852f6798a09c465da95921460cefb38474024989060200160405180910390a15b5062000150565b6001600160a01b03163b151590565b608051613223620001886000396000818161074701528181610787015281816108260152818161086601526108f501526132236000f3fe6080604052600436106101e35760003560e01c8063620b75df11610102578063adc9772e11610095578063e5700fd411610064578063e5700fd41461056e578063eb3beb291461058f578063ef5cfb8c146105b0578063f6f6b881146105d057600080fd5b8063adc9772e146104f8578063ae30c11014610518578063bf52e08014610538578063d547741f1461054e57600080fd5b806391d14854116100d157806391d148541461048e578063a217fddf146104ae578063a3673b38146104c3578063a440b21a146104d857600080fd5b8063620b75df146104175780636ef6b24e146104375780637d5f5802146104575780638129fc1c1461047957600080fd5b80633e413bee1161017a5780635c6335e9116101495780635c6335e91461038b5780635ca558f8146103ac5780635dbd733a146103c257806360f8b014146103f657600080fd5b80633e413bee146103215780634b57b0be146103425780634f1ef2861461036357806352d1902d1461037657600080fd5b80632c0d9814116101b65780632c0d9814146102865780632f2ff15d146102bf57806336568abe146102e15780633659cfe61461030157600080fd5b806301ffc9a7146101e8578063119cd8791461021d578063248a9ca3146102415780632576e65a14610271575b600080fd5b3480156101f457600080fd5b506102086102033660046129d1565b6105f0565b60405190151581526020015b60405180910390f35b34801561022957600080fd5b5061023360fd5481565b604051908152602001610214565b34801561024d57600080fd5b5061023361025c3660046129fb565b60009081526065602052604090206001015490565b34801561027d57600080fd5b50610233610627565b34801561029257600080fd5b50610131546102a7906001600160a01b031681565b6040516001600160a01b039091168152602001610214565b3480156102cb57600080fd5b506102df6102da366004612a29565b610690565b005b3480156102ed57600080fd5b506102df6102fc366004612a29565b6106ba565b34801561030d57600080fd5b506102df61031c366004612a59565b61073d565b34801561032d57600080fd5b5061012d546102a7906001600160a01b031681565b34801561034e57600080fd5b50610132546102a7906001600160a01b031681565b6102df610371366004612abd565b61081c565b34801561038257600080fd5b506102336108e8565b34801561039757600080fd5b50610130546102a7906001600160a01b031681565b3480156103b857600080fd5b5061023360fe5481565b3480156103ce57600080fd5b506102337fd67ad422505496469a1adf6cdf9e5ee92ac5d33992843c9ecc4b2f6d6cde913781565b34801561040257600080fd5b5061012f546102a7906001600160a01b031681565b34801561042357600080fd5b5060fb546102a7906001600160a01b031681565b34801561044357600080fd5b506102df610452366004612b65565b61099b565b34801561046357600080fd5b5061023360008051602061318783398151915281565b34801561048557600080fd5b506102df610b40565b34801561049a57600080fd5b506102086104a9366004612a29565b610c0a565b3480156104ba57600080fd5b50610233600081565b3480156104cf57600080fd5b50610233610c35565b3480156104e457600080fd5b506102df6104f3366004612a59565b610dce565b34801561050457600080fd5b506102df610513366004612b7d565b610efd565b34801561052457600080fd5b506102df610533366004612ba9565b611100565b34801561054457600080fd5b5061023360fc5481565b34801561055a57600080fd5b506102df610569366004612a29565b611266565b34801561057a57600080fd5b50610133546102a7906001600160a01b031681565b34801561059b57600080fd5b5061012e546102a7906001600160a01b031681565b3480156105bc57600080fd5b506102336105cb366004612a59565b61128b565b3480156105dc57600080fd5b506102336105eb366004612be3565b61130d565b60006001600160e01b03198216637965db0b60e01b148061062157506301ffc9a760e01b6001600160e01b03198316145b92915050565b6000306001600160a01b031663a3673b386040518163ffffffff1660e01b8152600401602060405180830381865afa158015610667573d6000803e3d6000fd5b505050506040513d601f19601f8201168201806040525081019061068b9190612c36565b905090565b6000828152606560205260409020600101546106ab816115ce565b6106b583836115d8565b505050565b6001600160a01b038116331461072f5760405162461bcd60e51b815260206004820152602f60248201527f416363657373436f6e74726f6c3a2063616e206f6e6c792072656e6f756e636560448201526e103937b632b9903337b91039b2b63360891b60648201526084015b60405180910390fd5b610739828261165e565b5050565b6001600160a01b037f00000000000000000000000000000000000000000000000000000000000000001630036107855760405162461bcd60e51b815260040161072690612c4f565b7f00000000000000000000000000000000000000000000000000000000000000006001600160a01b03166107ce6000805160206131a7833981519152546001600160a01b031690565b6001600160a01b0316146107f45760405162461bcd60e51b815260040161072690612c9b565b6107fd816116c5565b60408051600080825260208201909252610819918391906116d0565b50565b6001600160a01b037f00000000000000000000000000000000000000000000000000000000000000001630036108645760405162461bcd60e51b815260040161072690612c4f565b7f00000000000000000000000000000000000000000000000000000000000000006001600160a01b03166108ad6000805160206131a7833981519152546001600160a01b031690565b6001600160a01b0316146108d35760405162461bcd60e51b815260040161072690612c9b565b6108dc826116c5565b610739828260016116d0565b6000306001600160a01b037f000000000000000000000000000000000000000000000000000000000000000016146109885760405162461bcd60e51b815260206004820152603860248201527f555550535570677261646561626c653a206d757374206e6f742062652063616c60448201527f6c6564207468726f7567682064656c656761746563616c6c00000000000000006064820152608401610726565b506000805160206131a783398151915290565b6109a6600033610c0a565b6109e95760405162461bcd60e51b81526020600482015260146024820152735265737472696374656420746f2061646d696e7360601b6044820152606401610726565b6109f66020820182612a59565b61012d80546001600160a01b0319166001600160a01b0392909216919091179055610a276040820160208301612a59565b61012e80546001600160a01b0319166001600160a01b0392909216919091179055610a586060820160408301612a59565b61012f80546001600160a01b0319166001600160a01b0392909216919091179055610a896080820160608301612a59565b61013080546001600160a01b0319166001600160a01b0392909216919091179055610aba60a0820160808301612a59565b61013180546001600160a01b0319166001600160a01b0392909216919091179055610aeb60c0820160a08301612a59565b61013280546001600160a01b0319166001600160a01b0392909216919091179055610b1c60e0820160c08301612a59565b61013380546001600160a01b0319166001600160a01b039290921691909117905550565b600054610100900460ff1615808015610b605750600054600160ff909116105b80610b7a5750303b158015610b7a575060005460ff166001145b610b965760405162461bcd60e51b815260040161072690612ce7565b6000805460ff191660011790558015610bb9576000805461ff0019166101001790555b610bc161183b565b8015610819576000805461ff0019169055604051600181527f7f26b83ff96e1f2b6a682f133852f6798a09c465da95921460cefb3847402498906020015b60405180910390a150565b60009182526065602090815260408084206001600160a01b0393909316845291905290205460ff1690565b61013054604051631fc597f560e31b815260206004820152600860248201526753696c6f4c656e7360c01b604482015260009182916001600160a01b039091169063fe2cbfa890606401602060405180830381865afa158015610c9c573d6000803e3d6000fd5b505050506040513d601f19601f82011682018060405250810190610cc09190612d35565b61012e5461012d54604051632c00fb0560e21b81526001600160a01b03928316600482015290821660248201523060448201529192506000919083169063b003ec1490606401602060405180830381865afa158015610d23573d6000803e3d6000fd5b505050506040513d601f19601f82011682018060405250810190610d479190612c36565b61012d546040516370a0823160e01b81523060048201529192506000916001600160a01b03909116906370a0823190602401602060405180830381865afa158015610d96573d6000803e3d6000fd5b505050506040513d601f19601f82011682018060405250810190610dba9190612c36565b9050610dc68183612d68565b935050505090565b610dd9600033610c0a565b610e1c5760405162461bcd60e51b81526020600482015260146024820152735265737472696374656420746f2061646d696e7360601b6044820152606401610726565b6001600160a01b038116610e725760405162461bcd60e51b815260206004820152601860248201527f5a65726f2061646472657373206e6f7420616c6c6f77656400000000000000006044820152606401610726565b60fb54610e9790600080516020613187833981519152906001600160a01b0316611266565b610eaf60008051602061318783398151915282610690565b60fb80546001600160a01b0319166001600160a01b0383169081179091556040519081527ff7b449fcd5cfb7379dcd34cb69428dd9f882033b15be33d83b42d91daa28eeb790602001610bff565b610f1560008051602061318783398151915233610c0a565b610f315760405162461bcd60e51b815260040161072690612d7b565b6000610fa0306001600160a01b031663a3673b386040518163ffffffff1660e01b8152600401602060405180830381865afa158015610f74573d6000803e3d6000fd5b505050506040513d601f19601f82011682018060405250810190610f989190612c36565b60fd54611920565b6040516370a0823160e01b81523060048201529091506110169084906001600160a01b038216906370a0823190602401602060405180830381865afa158015610fed573d6000803e3d6000fd5b505050506040513d601f19601f820116820180604052508101906110119190612c36565b61194a565b80306001600160a01b031663a3673b386040518163ffffffff1660e01b8152600401602060405180830381865afa158015611055573d6000803e3d6000fd5b505050506040513d601f19601f820116820180604052508101906110799190612c36565b10156110c75760405162461bcd60e51b815260206004820152601f60248201527f5374726174656779204e4156206c657373207468616e206578706563746564006044820152606401610726565b6040518281527f227a473b70d2f893cc7659219575c030a63b5743024fe1e0c1a680e708b1525a906020015b60405180910390a1505050565b61112a7fd67ad422505496469a1adf6cdf9e5ee92ac5d33992843c9ecc4b2f6d6cde913733610c0a565b806111c2575060fb54604051632474521560e21b81527fd67ad422505496469a1adf6cdf9e5ee92ac5d33992843c9ecc4b2f6d6cde913760048201523360248201526001600160a01b03909116906391d1485490604401602060405180830381865afa15801561119e573d6000803e3d6000fd5b505050506040513d601f19601f820116820180604052508101906111c29190612db2565b6112195760405162461bcd60e51b815260206004820152602260248201527f5265737472696374656420746f20504f5254464f4c494f5f4147454e545f524f6044820152614c4560f01b6064820152608401610726565b60fc83905560fd82905560fe81905560408051848152602081018490529081018290527f116fbf1e97a2be629ad98abfb6c332733c8996c2dfb174dd2efe8440df381d1a906060016110f3565b600082815260656020526040902060010154611281816115ce565b6106b5838361165e565b60006112a560008051602061318783398151915233610c0a565b6112c15760405162461bcd60e51b815260040161072690612d7b565b60006112cc83611aba565b90508015610621576040518181527f3ac0594a85a20354f9dc74f33728416d19ce00d04a406c108cc2dcf2cecea1349060200160405180910390a192915050565b600061132760008051602061318783398151915233610c0a565b6113435760405162461bcd60e51b815260040161072690612d7b565b6000611386306001600160a01b031663a3673b386040518163ffffffff1660e01b8152600401602060405180830381865afa158015610f74573d6000803e3d6000fd5b905060008084156113ad5761139a86611aba565b90506113a68887611e64565b915061141c565b6113b888888861215c565b91508682101561141c5760405162461bcd60e51b815260206004820152602960248201527f52657475726e65642076616c7565206c657373207468616e2072657175657374604482015268195908185b5bdd5b9d60ba1b6064820152608401610726565b82306001600160a01b031663a3673b386040518163ffffffff1660e01b8152600401602060405180830381865afa15801561145b573d6000803e3d6000fd5b505050506040513d601f19601f8201168201806040525081019061147f9190612c36565b10156114cd5760405162461bcd60e51b815260206004820152601f60248201527f5374726174656779204e4156206c657373207468616e206578706563746564006044820152606401610726565b60405163a9059cbb60e01b81526001600160a01b0387811660048301526024820184905289169063a9059cbb906044016020604051808303816000875af115801561151c573d6000803e3d6000fd5b505050506040513d601f19601f820116820180604052508101906115409190612db2565b5060408051888152602081018490527f9045c2ac9b2026de8075f2701bbdde882cd5e830b3b1ead9a15b22f2b5b93742910160405180910390a180156115b4576040518181527f3ac0594a85a20354f9dc74f33728416d19ce00d04a406c108cc2dcf2cecea1349060200160405180910390a15b509695505050505050565b6001600160a01b03163b151590565b6108198133612253565b6115e28282610c0a565b6107395760008281526065602090815260408083206001600160a01b03851684529091529020805460ff1916600117905561161a3390565b6001600160a01b0316816001600160a01b0316837f2f8788117e7eff1d82e926ec794901d17c78024a50270940304540a733656f0d60405160405180910390a45050565b6116688282610c0a565b156107395760008281526065602090815260408083206001600160a01b0385168085529252808320805460ff1916905551339285917ff6391f5c32d9c69d2a47ea670b442974b53935d1edc7fd64eb21e047a839171b9190a45050565b6000610739816115ce565b7f4910fdfa16fed3260ed0e7147f7cc6da11a60208b5b9406d12a635614ffd91435460ff1615611703576106b5836122ac565b826001600160a01b03166352d1902d6040518163ffffffff1660e01b8152600401602060405180830381865afa92505050801561175d575060408051601f3d908101601f1916820190925261175a91810190612c36565b60015b6117c05760405162461bcd60e51b815260206004820152602e60248201527f45524331393637557067726164653a206e657720696d706c656d656e7461746960448201526d6f6e206973206e6f74205555505360901b6064820152608401610726565b6000805160206131a7833981519152811461182f5760405162461bcd60e51b815260206004820152602960248201527f45524331393637557067726164653a20756e737570706f727465642070726f786044820152681a58589b195555525160ba1b6064820152608401610726565b506106b5838383612348565b600054610100900460ff161580801561185b5750600054600160ff909116105b806118755750303b158015611875575060005460ff166001145b6118915760405162461bcd60e51b815260040161072690612ce7565b6000805460ff1916600117905580156118b4576000805461ff0019166101001790555b6118bc612373565b6118c4612373565b6118cf6000336115d8565b601460fc81905560fd55600460fe558015610819576000805461ff0019169055604051600181527f7f26b83ff96e1f2b6a682f133852f6798a09c465da95921460cefb384740249890602001610bff565b600061271061192f8382612dcf565b6119399085612de2565b6119439190612df9565b9392505050565b61012d546040516370a0823160e01b81523060048201526000916001600160a01b0316906370a0823190602401602060405180830381865afa158015611994573d6000803e3d6000fd5b505050506040513d601f19601f820116820180604052508101906119b89190612c36565b61012d5461012e5460405163095ea7b360e01b81526001600160a01b03918216600482015260248101849052929350169063095ea7b3906044016020604051808303816000875af1158015611a11573d6000803e3d6000fd5b505050506040513d601f19601f82011682018060405250810190611a359190612db2565b5061012e5461012d546040516307dba22560e31b81526001600160a01b0392831692633edd112892611a71929116908590600090600401612e1b565b60408051808303816000875af1158015611a8f573d6000803e3d6000fd5b505050506040513d601f19601f82011682018060405250810190611ab39190612e3e565b5050505050565b61012d546040516370a0823160e01b815230600482015260009182916001600160a01b03909116906370a0823190602401602060405180830381865afa158015611b08573d6000803e3d6000fd5b505050506040513d601f19601f82011682018060405250810190611b2c9190612c36565b61012e5461012d5460405163bf27304160e01b81526001600160a01b03918216600482015292935060009291169063bf2730419060240160c060405180830381865afa158015611b80573d6000803e3d6000fd5b505050506040513d601f19601f82011682018060405250810190611ba49190612e62565b5160408051600180825281830190925291925060009190602080830190803683370190505090508181600081518110611bdf57611bdf612ef7565b6001600160a01b03928316602091820292909201015261012f54604051633111e7b360e01b8152911690633111e7b390611c23908490600019903090600401612f51565b6020604051808303816000875af1158015611c42573d6000803e3d6000fd5b505050506040513d601f19601f82011682018060405250810190611c669190612c36565b50610131546040516370a0823160e01b81523060048201526000916001600160a01b0316906370a0823190602401602060405180830381865afa158015611cb1573d6000803e3d6000fd5b505050506040513d601f19601f82011682018060405250810190611cd59190612c36565b90508015611d5e5761013354610131546101325461012d54600093611d0f936001600160a01b0391821693908216929082169116866123e0565b90508015611d5c5761013354610131546101325461012d54611d5c936001600160a01b039081169381169281169116866064611d4c886063612de2565b611d569190612df9565b3061252a565b505b61012d546040516370a0823160e01b815230600482015260009186916001600160a01b03909116906370a0823190602401602060405180830381865afa158015611dac573d6000803e3d6000fd5b505050506040513d601f19601f82011682018060405250810190611dd09190612c36565b611dda9190612dcf565b90508015611e5a5761012d5460405163a9059cbb60e01b81526001600160a01b038981166004830152602482018490529091169063a9059cbb906044016020604051808303816000875af1158015611e36573d6000803e3d6000fd5b505050506040513d601f19601f820116820180604052508101906115b49190612db2565b9695505050505050565b6000306001600160a01b031663a3673b386040518163ffffffff1660e01b8152600401602060405180830381865afa158015611ea4573d6000803e3d6000fd5b505050506040513d601f19601f82011682018060405250810190611ec89190612c36565b600003611ed757506000610621565b61012e5461012d5460405163ead5d35960e01b81526001600160a01b039283169263ead5d35992611f1392911690600190600090600401612e1b565b60408051808303816000875af1158015611f31573d6000803e3d6000fd5b505050506040513d601f19601f82011682018060405250810190611f559190612e3e565b505061013054604051631fc597f560e31b815260206004820152600860248201526753696c6f4c656e7360c01b60448201526000916001600160a01b03169063fe2cbfa890606401602060405180830381865afa158015611fba573d6000803e3d6000fd5b505050506040513d601f19601f82011682018060405250810190611fde9190612d35565b61012e5461012d54604051632c00fb0560e21b81526001600160a01b03928316600482015290821660248201523060448201529192506000919083169063b003ec1490606401602060405180830381865afa158015612041573d6000803e3d6000fd5b505050506040513d601f19601f820116820180604052508101906120659190612c36565b61012e5461012d5460405163ead5d35960e01b81529293506001600160a01b039182169263ead5d359926120a29216908590600090600401612e1b565b60408051808303816000875af11580156120c0573d6000803e3d6000fd5b505050506040513d601f19601f820116820180604052508101906120e49190612e3e565b505061012d546040516370a0823160e01b81523060048201526001600160a01b03909116906370a0823190602401602060405180830381865afa15801561212f573d6000803e3d6000fd5b505050506040513d601f19601f820116820180604052508101906121539190612c36565b95945050505050565b61012e5461012d5460405163ead5d35960e01b81526000926001600160a01b039081169263ead5d3599261219a929091169087908690600401612e1b565b60408051808303816000875af11580156121b8573d6000803e3d6000fd5b505050506040513d601f19601f820116820180604052508101906121dc9190612e3e565b505061012d546040516370a0823160e01b81523060048201526001600160a01b03909116906370a0823190602401602060405180830381865afa158015612227573d6000803e3d6000fd5b505050506040513d601f19601f8201168201806040525081019061224b9190612c36565b949350505050565b61225d8282610c0a565b6107395761226a816126bf565b6122758360206126d1565b604051602001612286929190612fa8565b60408051601f198184030181529082905262461bcd60e51b82526107269160040161301d565b6001600160a01b0381163b6123195760405162461bcd60e51b815260206004820152602d60248201527f455243313936373a206e657720696d706c656d656e746174696f6e206973206e60448201526c1bdd08184818dbdb9d1c9858dd609a1b6064820152608401610726565b6000805160206131a783398151915280546001600160a01b0319166001600160a01b0392909216919091179055565b6123518361286d565b60008251118061235e5750805b156106b55761236d83836128ad565b50505050565b600054610100900460ff166123de5760405162461bcd60e51b815260206004820152602b60248201527f496e697469616c697a61626c653a20636f6e7472616374206973206e6f74206960448201526a6e697469616c697a696e6760a81b6064820152608401610726565b565b6040805160038082526080820190925260009182919060208201606080368337019050509050858160008151811061241a5761241a612ef7565b60200260200101906001600160a01b031690816001600160a01b031681525050848160018151811061244e5761244e612ef7565b60200260200101906001600160a01b031690816001600160a01b031681525050838160028151811061248257612482612ef7565b6001600160a01b03928316602091820292909201015260405163d06ca61f60e01b81529088169063d06ca61f906124bf9086908590600401613050565b600060405180830381865afa1580156124dc573d6000803e3d6000fd5b505050506040513d6000823e601f3d908101601f191682016040526125049190810190613069565b60028151811061251657612516612ef7565b602002602001015191505095945050505050565b60405163095ea7b360e01b81526001600160a01b0388811660048301526024820185905287169063095ea7b3906044016020604051808303816000875af1158015612579573d6000803e3d6000fd5b505050506040513d601f19601f8201168201806040525081019061259d9190612db2565b50604080516003808252608082019092526000916020820160608036833701905050905086816000815181106125d5576125d5612ef7565b60200260200101906001600160a01b031690816001600160a01b031681525050858160018151811061260957612609612ef7565b60200260200101906001600160a01b031690816001600160a01b031681525050848160028151811061263d5761263d612ef7565b6001600160a01b03928316602091820292909201015260405163561c49dd60e11b81529089169063ac3893ba90612683908790879086908890600090429060040161310f565b600060405180830381600087803b15801561269d57600080fd5b505af11580156126b1573d6000803e3d6000fd5b505050505050505050505050565b60606106216001600160a01b03831660145b606060006126e0836002612de2565b6126eb906002612d68565b67ffffffffffffffff81111561270357612703612a76565b6040519080825280601f01601f19166020018201604052801561272d576020820181803683370190505b509050600360fc1b8160008151811061274857612748612ef7565b60200101906001600160f81b031916908160001a905350600f60fb1b8160018151811061277757612777612ef7565b60200101906001600160f81b031916908160001a905350600061279b846002612de2565b6127a6906001612d68565b90505b600181111561281e576f181899199a1a9b1b9c1cb0b131b232b360811b85600f16601081106127da576127da612ef7565b1a60f81b8282815181106127f0576127f0612ef7565b60200101906001600160f81b031916908160001a90535060049490941c9361281781613153565b90506127a9565b5083156119435760405162461bcd60e51b815260206004820181905260248201527f537472696e67733a20686578206c656e67746820696e73756666696369656e746044820152606401610726565b612876816122ac565b6040516001600160a01b038216907fbc7cd75a20ee27fd9adebab32041f755214dbc6bffa90cc0225b39da2e5c2d3b90600090a250565b60606001600160a01b0383163b6129155760405162461bcd60e51b815260206004820152602660248201527f416464726573733a2064656c65676174652063616c6c20746f206e6f6e2d636f6044820152651b9d1c9858dd60d21b6064820152608401610726565b600080846001600160a01b031684604051612930919061316a565b600060405180830381855af49150503d806000811461296b576040519150601f19603f3d011682016040523d82523d6000602084013e612970565b606091505b509150915061215382826040518060600160405280602781526020016131c760279139606083156129a2575081611943565b61194383838151156129b75781518083602001fd5b8060405162461bcd60e51b8152600401610726919061301d565b6000602082840312156129e357600080fd5b81356001600160e01b03198116811461194357600080fd5b600060208284031215612a0d57600080fd5b5035919050565b6001600160a01b038116811461081957600080fd5b60008060408385031215612a3c57600080fd5b823591506020830135612a4e81612a14565b809150509250929050565b600060208284031215612a6b57600080fd5b813561194381612a14565b634e487b7160e01b600052604160045260246000fd5b604051601f8201601f1916810167ffffffffffffffff81118282101715612ab557612ab5612a76565b604052919050565b60008060408385031215612ad057600080fd5b8235612adb81612a14565b915060208381013567ffffffffffffffff80821115612af957600080fd5b818601915086601f830112612b0d57600080fd5b813581811115612b1f57612b1f612a76565b612b31601f8201601f19168501612a8c565b91508082528784828501011115612b4757600080fd5b80848401858401376000848284010152508093505050509250929050565b600060e08284031215612b7757600080fd5b50919050565b60008060408385031215612b9057600080fd5b8235612b9b81612a14565b946020939093013593505050565b600080600060608486031215612bbe57600080fd5b505081359360208301359350604090920135919050565b801515811461081957600080fd5b60008060008060808587031215612bf957600080fd5b8435612c0481612a14565b9350602085013592506040850135612c1b81612a14565b91506060850135612c2b81612bd5565b939692955090935050565b600060208284031215612c4857600080fd5b5051919050565b6020808252602c908201527f46756e6374696f6e206d7573742062652063616c6c6564207468726f7567682060408201526b19195b1959d85d1958d85b1b60a21b606082015260800190565b6020808252602c908201527f46756e6374696f6e206d7573742062652063616c6c6564207468726f7567682060408201526b6163746976652070726f787960a01b606082015260800190565b6020808252602e908201527f496e697469616c697a61626c653a20636f6e747261637420697320616c72656160408201526d191e481a5b9a5d1a585b1a5e995960921b606082015260800190565b600060208284031215612d4757600080fd5b815161194381612a14565b634e487b7160e01b600052601160045260246000fd5b8082018082111561062157610621612d52565b6020808252601f908201527f5265737472696374656420746f20504f5254464f4c494f5f4d414e4147455200604082015260600190565b600060208284031215612dc457600080fd5b815161194381612bd5565b8181038181111561062157610621612d52565b808202811582820484141761062157610621612d52565b600082612e1657634e487b7160e01b600052601260045260246000fd5b500490565b6001600160a01b0393909316835260208301919091521515604082015260600190565b60008060408385031215612e5157600080fd5b505080516020909101519092909150565b600060c08284031215612e7457600080fd5b60405160c0810181811067ffffffffffffffff82111715612e9757612e97612a76565b6040528251612ea581612a14565b81526020830151612eb581612a14565b60208201526040830151612ec881612a14565b80604083015250606083015160608201526080830151608082015260a083015160a08201528091505092915050565b634e487b7160e01b600052603260045260246000fd5b600081518084526020808501945080840160005b83811015612f465781516001600160a01b031687529582019590820190600101612f21565b509495945050505050565b606081526000612f646060830186612f0d565b6020830194909452506001600160a01b0391909116604090910152919050565b60005b83811015612f9f578181015183820152602001612f87565b50506000910152565b7f416363657373436f6e74726f6c3a206163636f756e7420000000000000000000815260008351612fe0816017850160208801612f84565b7001034b99036b4b9b9b4b733903937b6329607d1b6017918401918201528351613011816028840160208801612f84565b01602801949350505050565b602081526000825180602084015261303c816040850160208701612f84565b601f01601f19169190910160400192915050565b82815260406020820152600061224b6040830184612f0d565b6000602080838503121561307c57600080fd5b825167ffffffffffffffff8082111561309457600080fd5b818501915085601f8301126130a857600080fd5b8151818111156130ba576130ba612a76565b8060051b91506130cb848301612a8c565b81815291830184019184810190888411156130e557600080fd5b938501935b83851015613103578451825293850193908501906130ea565b98975050505050505050565b86815285602082015260c06040820152600061312e60c0830187612f0d565b6001600160a01b03958616606084015293909416608082015260a00152949350505050565b60008161316257613162612d52565b506000190190565b6000825161317c818460208701612f84565b919091019291505056fe90c2aa7471c04182221f68e80c07ab1e5946e4c63f8693e14ca40385d529f051360894a13ba1a3210667c828492db98dca3e2076cc3735a920a3ca505d382bbc416464726573733a206c6f772d6c6576656c2064656c65676174652063616c6c206661696c6564a2646970667358221220aac0e96d77b92f45d61909c3cdba1345d928e354751254d095c2b0a25962789964736f6c63430008110033",
  "implementation": "0x5696f57879300B2FCDb9d9ADD4793f504400440b",
  "devdoc": {
    "kind": "dev",
    "methods": {
      "constructor": {
        "custom:oz-upgrades-unsafe-allow": "constructor"
      },
      "getRoleAdmin(bytes32)": {
        "details": "Returns the admin role that controls `role`. See {grantRole} and {revokeRole}. To change a role's admin, use {_setRoleAdmin}."
      },
      "grantRole(bytes32,address)": {
        "details": "Grants `role` to `account`. If `account` had not been already granted `role`, emits a {RoleGranted} event. Requirements: - the caller must have ``role``'s admin role. May emit a {RoleGranted} event."
      },
      "hasRole(bytes32,address)": {
        "details": "Returns `true` if `account` has been granted `role`."
      },
      "proxiableUUID()": {
        "details": "Implementation of the ERC1822 {proxiableUUID} function. This returns the storage slot used by the implementation. It is used to validate the implementation's compatibility when performing an upgrade. IMPORTANT: A proxy pointing at a proxiable contract should not be considered proxiable itself, because this risks bricking a proxy that upgrades to it, by delegating to itself until out of gas. Thus it is critical that this function revert if invoked through a proxy. This is guaranteed by the `notDelegated` modifier."
      },
      "renounceRole(bytes32,address)": {
        "details": "Revokes `role` from the calling account. Roles are often managed via {grantRole} and {revokeRole}: this function's purpose is to provide a mechanism for accounts to lose their privileges if they are compromised (such as when a trusted device is misplaced). If the calling account had been revoked `role`, emits a {RoleRevoked} event. Requirements: - the caller must be `account`. May emit a {RoleRevoked} event."
      },
      "revokeRole(bytes32,address)": {
        "details": "Revokes `role` from `account`. If `account` had been granted `role`, emits a {RoleRevoked} event. Requirements: - the caller must have ``role``'s admin role. May emit a {RoleRevoked} event."
      },
      "supportsInterface(bytes4)": {
        "details": "See {IERC165-supportsInterface}."
      },
      "upgradeTo(address)": {
        "details": "Upgrade the implementation of the proxy to `newImplementation`. Calls {_authorizeUpgrade}. Emits an {Upgraded} event."
      },
      "upgradeToAndCall(address,bytes)": {
        "details": "Upgrade the implementation of the proxy to `newImplementation`, and subsequently execute the function call encoded in `data`. Calls {_authorizeUpgrade}. Emits an {Upgraded} event."
      }
    },
    "version": 1
  },
  "userdoc": {
    "kind": "user",
    "methods": {},
    "version": 1
  },
  "storageLayout": {
    "storage": [
      {
        "astId": 804,
        "contract": "contracts/StrategySiloUsdc.sol:StrategySiloUsdc",
        "label": "_initialized",
        "offset": 0,
        "slot": "0",
        "type": "t_uint8"
      },
      {
        "astId": 807,
        "contract": "contracts/StrategySiloUsdc.sol:StrategySiloUsdc",
        "label": "_initializing",
        "offset": 1,
        "slot": "0",
        "type": "t_bool"
      },
      {
        "astId": 1427,
        "contract": "contracts/StrategySiloUsdc.sol:StrategySiloUsdc",
        "label": "__gap",
        "offset": 0,
        "slot": "1",
        "type": "t_array(t_uint256)50_storage"
      },
      {
        "astId": 1706,
        "contract": "contracts/StrategySiloUsdc.sol:StrategySiloUsdc",
        "label": "__gap",
        "offset": 0,
        "slot": "51",
        "type": "t_array(t_uint256)50_storage"
      },
      {
        "astId": 39,
        "contract": "contracts/StrategySiloUsdc.sol:StrategySiloUsdc",
        "label": "_roles",
        "offset": 0,
        "slot": "101",
        "type": "t_mapping(t_bytes32,t_struct(RoleData)34_storage)"
      },
      {
        "astId": 334,
        "contract": "contracts/StrategySiloUsdc.sol:StrategySiloUsdc",
        "label": "__gap",
        "offset": 0,
        "slot": "102",
        "type": "t_array(t_uint256)49_storage"
      },
      {
        "astId": 786,
        "contract": "contracts/StrategySiloUsdc.sol:StrategySiloUsdc",
        "label": "__gap",
        "offset": 0,
        "slot": "151",
        "type": "t_array(t_uint256)50_storage"
      },
      {
        "astId": 1101,
        "contract": "contracts/StrategySiloUsdc.sol:StrategySiloUsdc",
        "label": "__gap",
        "offset": 0,
        "slot": "201",
        "type": "t_array(t_uint256)50_storage"
      },
      {
        "astId": 27209,
        "contract": "contracts/StrategySiloUsdc.sol:StrategySiloUsdc",
        "label": "portfolioManager",
        "offset": 0,
        "slot": "251",
        "type": "t_address"
      },
      {
        "astId": 27211,
        "contract": "contracts/StrategySiloUsdc.sol:StrategySiloUsdc",
        "label": "swapSlippageBP",
        "offset": 0,
        "slot": "252",
        "type": "t_uint256"
      },
      {
        "astId": 27213,
        "contract": "contracts/StrategySiloUsdc.sol:StrategySiloUsdc",
        "label": "navSlippageBP",
        "offset": 0,
        "slot": "253",
        "type": "t_uint256"
      },
      {
        "astId": 27215,
        "contract": "contracts/StrategySiloUsdc.sol:StrategySiloUsdc",
        "label": "stakeSlippageBP",
        "offset": 0,
        "slot": "254",
        "type": "t_uint256"
      },
      {
        "astId": 27600,
        "contract": "contracts/StrategySiloUsdc.sol:StrategySiloUsdc",
        "label": "__gap",
        "offset": 0,
        "slot": "255",
        "type": "t_array(t_uint256)46_storage"
      },
      {
        "astId": 46133,
        "contract": "contracts/StrategySiloUsdc.sol:StrategySiloUsdc",
        "label": "usdc",
        "offset": 0,
        "slot": "301",
        "type": "t_contract(IERC20)3249"
      },
      {
        "astId": 46136,
        "contract": "contracts/StrategySiloUsdc.sol:StrategySiloUsdc",
        "label": "silo",
        "offset": 0,
        "slot": "302",
        "type": "t_contract(ISilo)17502"
      },
      {
        "astId": 46139,
        "contract": "contracts/StrategySiloUsdc.sol:StrategySiloUsdc",
        "label": "siloIncentivesController",
        "offset": 0,
        "slot": "303",
        "type": "t_contract(ISiloIncentivesController)18081"
      },
      {
        "astId": 46141,
        "contract": "contracts/StrategySiloUsdc.sol:StrategySiloUsdc",
        "label": "siloTower",
        "offset": 0,
        "slot": "304",
        "type": "t_address"
      },
      {
        "astId": 46144,
        "contract": "contracts/StrategySiloUsdc.sol:StrategySiloUsdc",
        "label": "siloToken",
        "offset": 0,
        "slot": "305",
        "type": "t_contract(IERC20)3249"
      },
      {
        "astId": 46147,
        "contract": "contracts/StrategySiloUsdc.sol:StrategySiloUsdc",
        "label": "wethToken",
        "offset": 0,
        "slot": "306",
        "type": "t_contract(IERC20)3249"
      },
      {
        "astId": 46150,
        "contract": "contracts/StrategySiloUsdc.sol:StrategySiloUsdc",
        "label": "camelotRouter",
        "offset": 0,
        "slot": "307",
        "type": "t_contract(ICamelotRouter)9394"
      }
    ],
    "types": {
      "t_address": {
        "encoding": "inplace",
        "label": "address",
        "numberOfBytes": "20"
      },
      "t_array(t_uint256)46_storage": {
        "base": "t_uint256",
        "encoding": "inplace",
        "label": "uint256[46]",
        "numberOfBytes": "1472"
      },
      "t_array(t_uint256)49_storage": {
        "base": "t_uint256",
        "encoding": "inplace",
        "label": "uint256[49]",
        "numberOfBytes": "1568"
      },
      "t_array(t_uint256)50_storage": {
        "base": "t_uint256",
        "encoding": "inplace",
        "label": "uint256[50]",
        "numberOfBytes": "1600"
      },
      "t_bool": {
        "encoding": "inplace",
        "label": "bool",
        "numberOfBytes": "1"
      },
      "t_bytes32": {
        "encoding": "inplace",
        "label": "bytes32",
        "numberOfBytes": "32"
      },
      "t_contract(ICamelotRouter)9394": {
        "encoding": "inplace",
        "label": "contract ICamelotRouter",
        "numberOfBytes": "20"
      },
      "t_contract(IERC20)3249": {
        "encoding": "inplace",
        "label": "contract IERC20",
        "numberOfBytes": "20"
      },
      "t_contract(ISilo)17502": {
        "encoding": "inplace",
        "label": "contract ISilo",
        "numberOfBytes": "20"
      },
      "t_contract(ISiloIncentivesController)18081": {
        "encoding": "inplace",
        "label": "contract ISiloIncentivesController",
        "numberOfBytes": "20"
      },
      "t_mapping(t_address,t_bool)": {
        "encoding": "mapping",
        "key": "t_address",
        "label": "mapping(address => bool)",
        "numberOfBytes": "32",
        "value": "t_bool"
      },
      "t_mapping(t_bytes32,t_struct(RoleData)34_storage)": {
        "encoding": "mapping",
        "key": "t_bytes32",
        "label": "mapping(bytes32 => struct AccessControlUpgradeable.RoleData)",
        "numberOfBytes": "32",
        "value": "t_struct(RoleData)34_storage"
      },
      "t_struct(RoleData)34_storage": {
        "encoding": "inplace",
        "label": "struct AccessControlUpgradeable.RoleData",
        "members": [
          {
            "astId": 31,
            "contract": "contracts/StrategySiloUsdc.sol:StrategySiloUsdc",
            "label": "members",
            "offset": 0,
            "slot": "0",
            "type": "t_mapping(t_address,t_bool)"
          },
          {
            "astId": 33,
            "contract": "contracts/StrategySiloUsdc.sol:StrategySiloUsdc",
            "label": "adminRole",
            "offset": 0,
            "slot": "1",
            "type": "t_bytes32"
          }
        ],
        "numberOfBytes": "64"
      },
      "t_uint256": {
        "encoding": "inplace",
        "label": "uint256",
        "numberOfBytes": "32"
      },
      "t_uint8": {
        "encoding": "inplace",
        "label": "uint8",
        "numberOfBytes": "1"
      }
    }
  }
}