{
  "address": "0xe7aAA880bbB7F22489f6279Ab28CEfB76912dA81",
  "abi": [
    {
      "inputs": [],
      "stateMutability": "nonpayable",
      "type": "constructor"
    },
    {
      "anonymous": false,
      "inputs": [
        {
          "indexed": false,
          "internalType": "address",
          "name": "previousAdmin",
          "type": "address"
        },
        {
          "indexed": false,
          "internalType": "address",
          "name": "newAdmin",
          "type": "address"
        }
      ],
      "name": "AdminChanged",
      "type": "event"
    },
    {
      "anonymous": false,
      "inputs": [
        {
          "indexed": true,
          "internalType": "address",
          "name": "beacon",
          "type": "address"
        }
      ],
      "name": "BeaconUpgraded",
      "type": "event"
    },
    {
      "anonymous": false,
      "inputs": [
        {
          "indexed": false,
          "internalType": "address",
          "name": "strategy",
          "type": "address"
        },
        {
          "indexed": false,
          "internalType": "bytes",
          "name": "msg",
          "type": "bytes"
        }
      ],
      "name": "ClaimRewardsError",
      "type": "event"
    },
    {
      "anonymous": false,
      "inputs": [
        {
          "indexed": false,
          "internalType": "address",
          "name": "strategy",
          "type": "address"
        },
        {
          "indexed": false,
          "internalType": "bytes",
          "name": "msg",
          "type": "bytes"
        }
      ],
      "name": "HealthFactorBalanceError",
      "type": "event"
    },
    {
      "anonymous": false,
      "inputs": [
        {
          "indexed": true,
          "internalType": "bytes32",
          "name": "role",
          "type": "bytes32"
        },
        {
          "indexed": true,
          "internalType": "bytes32",
          "name": "previousAdminRole",
          "type": "bytes32"
        },
        {
          "indexed": true,
          "internalType": "bytes32",
          "name": "newAdminRole",
          "type": "bytes32"
        }
      ],
      "name": "RoleAdminChanged",
      "type": "event"
    },
    {
      "anonymous": false,
      "inputs": [
        {
          "indexed": true,
          "internalType": "bytes32",
          "name": "role",
          "type": "bytes32"
        },
        {
          "indexed": true,
          "internalType": "address",
          "name": "account",
          "type": "address"
        },
        {
          "indexed": true,
          "internalType": "address",
          "name": "sender",
          "type": "address"
        }
      ],
      "name": "RoleGranted",
      "type": "event"
    },
    {
      "anonymous": false,
      "inputs": [
        {
          "indexed": true,
          "internalType": "bytes32",
          "name": "role",
          "type": "bytes32"
        },
        {
          "indexed": true,
          "internalType": "address",
          "name": "account",
          "type": "address"
        },
        {
          "indexed": true,
          "internalType": "address",
          "name": "sender",
          "type": "address"
        }
      ],
      "name": "RoleRevoked",
      "type": "event"
    },
    {
      "anonymous": false,
      "inputs": [
        {
          "indexed": true,
          "internalType": "address",
          "name": "implementation",
          "type": "address"
        }
      ],
      "name": "Upgraded",
      "type": "event"
    },
    {
      "inputs": [],
      "name": "DEFAULT_ADMIN_ROLE",
      "outputs": [
        {
          "internalType": "bytes32",
          "name": "",
          "type": "bytes32"
        }
      ],
      "stateMutability": "view",
      "type": "function"
    },
    {
      "inputs": [
        {
          "internalType": "address",
          "name": "_strategy",
          "type": "address"
        },
        {
          "internalType": "uint256",
          "name": "_amount",
          "type": "uint256"
        }
      ],
      "name": "addStrategy",
      "outputs": [],
      "stateMutability": "nonpayable",
      "type": "function"
    },
    {
      "inputs": [],
      "name": "claimRewardsAndBalance",
      "outputs": [],
      "stateMutability": "nonpayable",
      "type": "function"
    },
    {
      "inputs": [
        {
          "internalType": "bytes32",
          "name": "role",
          "type": "bytes32"
        }
      ],
      "name": "getRoleAdmin",
      "outputs": [
        {
          "internalType": "bytes32",
          "name": "",
          "type": "bytes32"
        }
      ],
      "stateMutability": "view",
      "type": "function"
    },
    {
      "inputs": [],
      "name": "getStrategies",
      "outputs": [
        {
          "internalType": "address[]",
          "name": "",
          "type": "address[]"
        }
      ],
      "stateMutability": "view",
      "type": "function"
    },
    {
      "inputs": [
        {
          "internalType": "bytes32",
          "name": "role",
          "type": "bytes32"
        },
        {
          "internalType": "address",
          "name": "account",
          "type": "address"
        }
      ],
      "name": "grantRole",
      "outputs": [],
      "stateMutability": "nonpayable",
      "type": "function"
    },
    {
      "inputs": [
        {
          "internalType": "bytes32",
          "name": "role",
          "type": "bytes32"
        },
        {
          "internalType": "address",
          "name": "account",
          "type": "address"
        }
      ],
      "name": "hasRole",
      "outputs": [
        {
          "internalType": "bool",
          "name": "",
          "type": "bool"
        }
      ],
      "stateMutability": "view",
      "type": "function"
    },
    {
      "inputs": [],
      "name": "initialize",
      "outputs": [],
      "stateMutability": "nonpayable",
      "type": "function"
    },
    {
      "inputs": [],
      "name": "proxiableUUID",
      "outputs": [
        {
          "internalType": "bytes32",
          "name": "",
          "type": "bytes32"
        }
      ],
      "stateMutability": "view",
      "type": "function"
    },
    {
      "inputs": [
        {
          "internalType": "address",
          "name": "_strategy",
          "type": "address"
        }
      ],
      "name": "removeStrategy",
      "outputs": [],
      "stateMutability": "nonpayable",
      "type": "function"
    },
    {
      "inputs": [
        {
          "internalType": "bytes32",
          "name": "role",
          "type": "bytes32"
        },
        {
          "internalType": "address",
          "name": "account",
          "type": "address"
        }
      ],
      "name": "renounceRole",
      "outputs": [],
      "stateMutability": "nonpayable",
      "type": "function"
    },
    {
      "inputs": [
        {
          "internalType": "bytes32",
          "name": "role",
          "type": "bytes32"
        },
        {
          "internalType": "address",
          "name": "account",
          "type": "address"
        }
      ],
      "name": "revokeRole",
      "outputs": [],
      "stateMutability": "nonpayable",
      "type": "function"
    },
    {
      "inputs": [
        {
          "internalType": "address",
          "name": "_usdc",
          "type": "address"
        }
      ],
      "name": "setUsdc",
      "outputs": [],
      "stateMutability": "nonpayable",
      "type": "function"
    },
    {
      "inputs": [
        {
          "internalType": "uint256",
          "name": "",
          "type": "uint256"
        }
      ],
      "name": "strategies",
      "outputs": [
        {
          "internalType": "address",
          "name": "",
          "type": "address"
        }
      ],
      "stateMutability": "view",
      "type": "function"
    },
    {
      "inputs": [
        {
          "internalType": "bytes4",
          "name": "interfaceId",
          "type": "bytes4"
        }
      ],
      "name": "supportsInterface",
      "outputs": [
        {
          "internalType": "bool",
          "name": "",
          "type": "bool"
        }
      ],
      "stateMutability": "view",
      "type": "function"
    },
    {
      "inputs": [
        {
          "internalType": "address",
          "name": "_to",
          "type": "address"
        }
      ],
      "name": "takeBank",
      "outputs": [],
      "stateMutability": "nonpayable",
      "type": "function"
    },
    {
      "inputs": [
        {
          "internalType": "address",
          "name": "newImplementation",
          "type": "address"
        }
      ],
      "name": "upgradeTo",
      "outputs": [],
      "stateMutability": "nonpayable",
      "type": "function"
    },
    {
      "inputs": [
        {
          "internalType": "address",
          "name": "newImplementation",
          "type": "address"
        },
        {
          "internalType": "bytes",
          "name": "data",
          "type": "bytes"
        }
      ],
      "name": "upgradeToAndCall",
      "outputs": [],
      "stateMutability": "payable",
      "type": "function"
    },
    {
      "inputs": [],
      "name": "usdc",
      "outputs": [
        {
          "internalType": "contract IERC20",
          "name": "",
          "type": "address"
        }
      ],
      "stateMutability": "view",
      "type": "function"
    }
  ],
  "numDeployments": 1,
  "solcInputHash": "cb5d29a152dbe01f0d1c76147665fe83",
  "bytecode": "0x60a06040523060601b6080523480156200001857600080fd5b50600054610100900460ff16620000365760005460ff161562000040565b62000040620000e5565b620000a85760405162461bcd60e51b815260206004820152602e60248201527f496e697469616c697a61626c653a20636f6e747261637420697320616c72656160448201526d191e481a5b9a5d1a585b1a5e995960921b606482015260840160405180910390fd5b600054610100900460ff16158015620000cb576000805461ffff19166101011790555b8015620000de576000805461ff00191690555b5062000112565b6000620000fd306200010360201b620011121760201c565b15905090565b6001600160a01b03163b151590565b60805160601c611db96200014d600039600081816108580152818161089801528181610938015281816109780152610a070152611db96000f3fe6080604052600436106101145760003560e01c806352d1902d116100a0578063b49a60bb11610064578063b49a60bb146102ed578063c9411e221461030f578063cb1468791461032f578063d547741f1461034f578063d574ea3d1461036f57600080fd5b806352d1902d146102795780638129fc1c1461028e5780638b68f891146102a357806391d14854146102b8578063a217fddf146102d857600080fd5b80632f2ff15d116100e75780632f2ff15d146101ce57806336568abe146101ee5780633659cfe61461020e5780633e413bee1461022e5780634f1ef2861461026657600080fd5b806301ffc9a714610119578063175188e81461014e578063248a9ca3146101705780632ecde7e4146101ae575b600080fd5b34801561012557600080fd5b506101396101343660046119df565b61038f565b60405190151581526020015b60405180910390f35b34801561015a57600080fd5b5061016e610169366004611858565b6103c6565b005b34801561017c57600080fd5b506101a061018b366004611981565b60009081526065602052604090206001015490565b604051908152602001610145565b3480156101ba57600080fd5b5061016e6101c9366004611858565b61067f565b3480156101da57600080fd5b5061016e6101e93660046119b3565b6107ad565b3480156101fa57600080fd5b5061016e6102093660046119b3565b6107d3565b34801561021a57600080fd5b5061016e610229366004611858565b61084d565b34801561023a57600080fd5b5060fc5461024e906001600160a01b031681565b6040516001600160a01b039091168152602001610145565b61016e610274366004611873565b61092d565b34801561028557600080fd5b506101a06109fa565b34801561029a57600080fd5b5061016e610aad565b3480156102af57600080fd5b5061016e610b80565b3480156102c457600080fd5b506101396102d33660046119b3565b610de7565b3480156102e457600080fd5b506101a0600081565b3480156102f957600080fd5b50610302610e12565b6040516101459190611af2565b34801561031b57600080fd5b5061016e61032a366004611935565b610e74565b34801561033b57600080fd5b5061016e61034a366004611858565b611079565b34801561035b57600080fd5b5061016e61036a3660046119b3565b6110c2565b34801561037b57600080fd5b5061024e61038a366004611981565b6110e8565b60006001600160e01b03198216637965db0b60e01b14806103c057506301ffc9a760e01b6001600160e01b03198316145b92915050565b6103d1600033610de7565b6103f65760405162461bcd60e51b81526004016103ed90611bea565b60405180910390fd5b6000805b60fb5460ff8216101561045b57826001600160a01b031660fb8260ff168154811061042757610427611d10565b6000918252602090912001546001600160a01b03161415610449578060ff1691505b8061045381611cc4565b9150506103fa565b5060fb54811061049d5760405162461bcd60e51b815260206004820152600d60248201526c4f7574206f6620626f756e647360981b60448201526064016103ed565b805b60fb546104ae90600190611c4f565b8110156105395760fb6104c2826001611c18565b815481106104d2576104d2611d10565b60009182526020909120015460fb80546001600160a01b0390921691839081106104fe576104fe611d10565b600091825260209091200180546001600160a01b0319166001600160a01b03929092169190911790558061053181611ca9565b91505061049f565b5060fb80548061054b5761054b611cfa565b600082815260209020600019908201810180546001600160a01b0319169055019055604051633bd73ee360e21b81523060048201526001600160a01b0383169063ef5cfb8c90602401602060405180830381600087803b1580156105ae57600080fd5b505af11580156105c2573d6000803e3d6000fd5b505050506040513d601f19601f820116820180604052508101906105e6919061199a565b5060fc5460405163f6f6b88160e01b81526001600160a01b03918216600482015260006024820152306044820152600160648201529083169063f6f6b88190608401602060405180830381600087803b15801561064257600080fd5b505af1158015610656573d6000803e3d6000fd5b505050506040513d601f19601f8201168201806040525081019061067a919061199a565b505050565b61068a600033610de7565b6106a65760405162461bcd60e51b81526004016103ed90611bea565b60fc546040516370a0823160e01b81523060048201526001600160a01b039091169063a9059cbb90839083906370a082319060240160206040518083038186803b1580156106f357600080fd5b505afa158015610707573d6000803e3d6000fd5b505050506040513d601f19601f8201168201806040525081019061072b919061199a565b6040516001600160e01b031960e085901b1681526001600160a01b0390921660048301526024820152604401602060405180830381600087803b15801561077157600080fd5b505af1158015610785573d6000803e3d6000fd5b505050506040513d601f19601f820116820180604052508101906107a9919061195f565b5050565b6000828152606560205260409020600101546107c98133611121565b61067a8383611185565b6001600160a01b03811633146108435760405162461bcd60e51b815260206004820152602f60248201527f416363657373436f6e74726f6c3a2063616e206f6e6c792072656e6f756e636560448201526e103937b632b9903337b91039b2b63360891b60648201526084016103ed565b6107a9828261120b565b306001600160a01b037f00000000000000000000000000000000000000000000000000000000000000001614156108965760405162461bcd60e51b81526004016103ed90611b52565b7f00000000000000000000000000000000000000000000000000000000000000006001600160a01b03166108df600080516020611d3d833981519152546001600160a01b031690565b6001600160a01b0316146109055760405162461bcd60e51b81526004016103ed90611b9e565b61090e81611272565b6040805160008082526020820190925261092a9183919061127e565b50565b306001600160a01b037f00000000000000000000000000000000000000000000000000000000000000001614156109765760405162461bcd60e51b81526004016103ed90611b52565b7f00000000000000000000000000000000000000000000000000000000000000006001600160a01b03166109bf600080516020611d3d833981519152546001600160a01b031690565b6001600160a01b0316146109e55760405162461bcd60e51b81526004016103ed90611b9e565b6109ee82611272565b6107a98282600161127e565b6000306001600160a01b037f00000000000000000000000000000000000000000000000000000000000000001614610a9a5760405162461bcd60e51b815260206004820152603860248201527f555550535570677261646561626c653a206d757374206e6f742062652063616c60448201527f6c6564207468726f7567682064656c656761746563616c6c000000000000000060648201526084016103ed565b50600080516020611d3d83398151915290565b600054610100900460ff16610ac85760005460ff1615610acc565b303b155b610b2f5760405162461bcd60e51b815260206004820152602e60248201527f496e697469616c697a61626c653a20636f6e747261637420697320616c72656160448201526d191e481a5b9a5d1a585b1a5e995960921b60648201526084016103ed565b600054610100900460ff16158015610b51576000805461ffff19166101011790555b610b596113f8565b610b616113f8565b610b6c600033611185565b801561092a576000805461ff001916905550565b610b8b600033610de7565b610ba75760405162461bcd60e51b81526004016103ed90611bea565b60005b60fb5460ff8216101561092a57600060fb8260ff1681548110610bcf57610bcf611d10565b600091825260209091200154604051633bd73ee360e21b81523060048201526001600160a01b039091169150819063ef5cfb8c90602401602060405180830381600087803b158015610c2057600080fd5b505af1925050508015610c50575060408051601f3d908101601f19168201909252610c4d9181019061199a565b60015b610ced573d808015610c7e576040519150601f19603f3d011682016040523d82523d6000602084013e610c83565b606091505b507f33ec0b9da514cd5df9a7439f44386d05982342560e83174d0bc4f3f78d872a9760fb8460ff1681548110610cbb57610cbb611d10565b600091825260209091200154604051610cdf916001600160a01b0316908490611ac6565b60405180910390a150610cef565b505b806001600160a01b0316637b73aa4e6040518163ffffffff1660e01b8152600401600060405180830381600087803b158015610d2a57600080fd5b505af1925050508015610d3b575060015b610dd4573d808015610d69576040519150601f19603f3d011682016040523d82523d6000602084013e610d6e565b606091505b507fb287f7c5889efe840895006aa7a8c6c80c24339526969b5606291ee8b9e67cd860fb8460ff1681548110610da657610da6611d10565b600091825260209091200154604051610dca916001600160a01b0316908490611ac6565b60405180910390a1505b5080610ddf81611cc4565b915050610baa565b60009182526065602090815260408084206001600160a01b0393909316845291905290205460ff1690565b606060fb805480602002602001604051908101604052809291908181526020018280548015610e6a57602002820191906000526020600020905b81546001600160a01b03168152600190910190602001808311610e4c575b5050505050905090565b610e7f600033610de7565b610e9b5760405162461bcd60e51b81526004016103ed90611bea565b60005b60fb5460ff82161015610f4057826001600160a01b031660fb8260ff1681548110610ecb57610ecb611d10565b6000918252602090912001546001600160a01b03161415610f2e5760405162461bcd60e51b815260206004820152601760248201527f737472617465677920616c72656164792065786973747300000000000000000060448201526064016103ed565b80610f3881611cc4565b915050610e9e565b5060fb80546001810182556000919091527f3e7257b7272bb46d49cd6019b04ddee20da7c0cb13f7c1ec3391291b2ccebabc0180546001600160a01b0319166001600160a01b0384811691821790925560fc5460405163a9059cbb60e01b81526004810192909252602482018490529091169063a9059cbb90604401602060405180830381600087803b158015610fd657600080fd5b505af1158015610fea573d6000803e3d6000fd5b505050506040513d601f19601f8201168201806040525081019061100e919061195f565b5060fc546040516356e4bb9760e11b81526001600160a01b039182166004820152602481018390529083169063adc9772e90604401600060405180830381600087803b15801561105d57600080fd5b505af1158015611071573d6000803e3d6000fd5b505050505050565b611084600033610de7565b6110a05760405162461bcd60e51b81526004016103ed90611bea565b60fc80546001600160a01b0319166001600160a01b0392909216919091179055565b6000828152606560205260409020600101546110de8133611121565b61067a838361120b565b60fb81815481106110f857600080fd5b6000918252602090912001546001600160a01b0316905081565b6001600160a01b03163b151590565b61112b8282610de7565b6107a957611143816001600160a01b03166014611465565b61114e836020611465565b60405160200161115f929190611a51565b60408051601f198184030181529082905262461bcd60e51b82526103ed91600401611b3f565b61118f8282610de7565b6107a95760008281526065602090815260408083206001600160a01b03851684529091529020805460ff191660011790556111c73390565b6001600160a01b0316816001600160a01b0316837f2f8788117e7eff1d82e926ec794901d17c78024a50270940304540a733656f0d60405160405180910390a45050565b6112158282610de7565b156107a95760008281526065602090815260408083206001600160a01b0385168085529252808320805460ff1916905551339285917ff6391f5c32d9c69d2a47ea670b442974b53935d1edc7fd64eb21e047a839171b9190a45050565b60006107a98133611121565b7f4910fdfa16fed3260ed0e7147f7cc6da11a60208b5b9406d12a635614ffd91435460ff16156112b15761067a83611608565b826001600160a01b03166352d1902d6040518163ffffffff1660e01b815260040160206040518083038186803b1580156112ea57600080fd5b505afa92505050801561131a575060408051601f3d908101601f191682019092526113179181019061199a565b60015b61137d5760405162461bcd60e51b815260206004820152602e60248201527f45524331393637557067726164653a206e657720696d706c656d656e7461746960448201526d6f6e206973206e6f74205555505360901b60648201526084016103ed565b600080516020611d3d83398151915281146113ec5760405162461bcd60e51b815260206004820152602960248201527f45524331393637557067726164653a20756e737570706f727465642070726f786044820152681a58589b195555525160ba1b60648201526084016103ed565b5061067a8383836116a4565b600054610100900460ff166114635760405162461bcd60e51b815260206004820152602b60248201527f496e697469616c697a61626c653a20636f6e7472616374206973206e6f74206960448201526a6e697469616c697a696e6760a81b60648201526084016103ed565b565b60606000611474836002611c30565b61147f906002611c18565b67ffffffffffffffff81111561149757611497611d26565b6040519080825280601f01601f1916602001820160405280156114c1576020820181803683370190505b509050600360fc1b816000815181106114dc576114dc611d10565b60200101906001600160f81b031916908160001a905350600f60fb1b8160018151811061150b5761150b611d10565b60200101906001600160f81b031916908160001a905350600061152f846002611c30565b61153a906001611c18565b90505b60018111156115b2576f181899199a1a9b1b9c1cb0b131b232b360811b85600f166010811061156e5761156e611d10565b1a60f81b82828151811061158457611584611d10565b60200101906001600160f81b031916908160001a90535060049490941c936115ab81611c92565b905061153d565b5083156116015760405162461bcd60e51b815260206004820181905260248201527f537472696e67733a20686578206c656e67746820696e73756666696369656e7460448201526064016103ed565b9392505050565b6001600160a01b0381163b6116755760405162461bcd60e51b815260206004820152602d60248201527f455243313936373a206e657720696d706c656d656e746174696f6e206973206e60448201526c1bdd08184818dbdb9d1c9858dd609a1b60648201526084016103ed565b600080516020611d3d83398151915280546001600160a01b0319166001600160a01b0392909216919091179055565b6116ad836116cf565b6000825111806116ba5750805b1561067a576116c9838361170f565b50505050565b6116d881611608565b6040516001600160a01b038216907fbc7cd75a20ee27fd9adebab32041f755214dbc6bffa90cc0225b39da2e5c2d3b90600090a250565b60606001600160a01b0383163b6117775760405162461bcd60e51b815260206004820152602660248201527f416464726573733a2064656c65676174652063616c6c20746f206e6f6e2d636f6044820152651b9d1c9858dd60d21b60648201526084016103ed565b600080846001600160a01b0316846040516117929190611a35565b600060405180830381855af49150503d80600081146117cd576040519150601f19603f3d011682016040523d82523d6000602084013e6117d2565b606091505b50915091506117fa8282604051806060016040528060278152602001611d5d60279139611803565b95945050505050565b60608315611812575081611601565b8251156118225782518084602001fd5b8160405162461bcd60e51b81526004016103ed9190611b3f565b80356001600160a01b038116811461185357600080fd5b919050565b60006020828403121561186a57600080fd5b6116018261183c565b6000806040838503121561188657600080fd5b61188f8361183c565b9150602083013567ffffffffffffffff808211156118ac57600080fd5b818501915085601f8301126118c057600080fd5b8135818111156118d2576118d2611d26565b604051601f8201601f19908116603f011681019083821181831017156118fa576118fa611d26565b8160405282815288602084870101111561191357600080fd5b8260208601602083013760006020848301015280955050505050509250929050565b6000806040838503121561194857600080fd5b6119518361183c565b946020939093013593505050565b60006020828403121561197157600080fd5b8151801515811461160157600080fd5b60006020828403121561199357600080fd5b5035919050565b6000602082840312156119ac57600080fd5b5051919050565b600080604083850312156119c657600080fd5b823591506119d66020840161183c565b90509250929050565b6000602082840312156119f157600080fd5b81356001600160e01b03198116811461160157600080fd5b60008151808452611a21816020860160208601611c66565b601f01601f19169290920160200192915050565b60008251611a47818460208701611c66565b9190910192915050565b7f416363657373436f6e74726f6c3a206163636f756e7420000000000000000000815260008351611a89816017850160208801611c66565b7001034b99036b4b9b9b4b733903937b6329607d1b6017918401918201528351611aba816028840160208801611c66565b01602801949350505050565b6001600160a01b0383168152604060208201819052600090611aea90830184611a09565b949350505050565b6020808252825182820181905260009190848201906040850190845b81811015611b335783516001600160a01b031683529284019291840191600101611b0e565b50909695505050505050565b6020815260006116016020830184611a09565b6020808252602c908201527f46756e6374696f6e206d7573742062652063616c6c6564207468726f7567682060408201526b19195b1959d85d1958d85b1b60a21b606082015260800190565b6020808252602c908201527f46756e6374696f6e206d7573742062652063616c6c6564207468726f7567682060408201526b6163746976652070726f787960a01b606082015260800190565b6020808252601490820152735265737472696374656420746f2061646d696e7360601b604082015260600190565b60008219821115611c2b57611c2b611ce4565b500190565b6000816000190483118215151615611c4a57611c4a611ce4565b500290565b600082821015611c6157611c61611ce4565b500390565b60005b83811015611c81578181015183820152602001611c69565b838111156116c95750506000910152565b600081611ca157611ca1611ce4565b506000190190565b6000600019821415611cbd57611cbd611ce4565b5060010190565b600060ff821660ff811415611cdb57611cdb611ce4565b60010192915050565b634e487b7160e01b600052601160045260246000fd5b634e487b7160e01b600052603160045260246000fd5b634e487b7160e01b600052603260045260246000fd5b634e487b7160e01b600052604160045260246000fdfe360894a13ba1a3210667c828492db98dca3e2076cc3735a920a3ca505d382bbc416464726573733a206c6f772d6c6576656c2064656c65676174652063616c6c206661696c6564a26469706673582212200751c75b7a6d336fc5c8c3f22a27a08f8c172d95a56833ddb8fcd82bbbe0684a64736f6c63430008060033",
  "devdoc": {
    "kind": "dev",
    "methods": {
      "constructor": {
        "custom:oz-upgrades-unsafe-allow": "constructor"
      },
      "getRoleAdmin(bytes32)": {
        "details": "Returns the admin role that controls `role`. See {grantRole} and {revokeRole}. To change a role's admin, use {_setRoleAdmin}."
      },
      "grantRole(bytes32,address)": {
        "details": "Grants `role` to `account`. If `account` had not been already granted `role`, emits a {RoleGranted} event. Requirements: - the caller must have ``role``'s admin role."
      },
      "hasRole(bytes32,address)": {
        "details": "Returns `true` if `account` has been granted `role`."
      },
      "proxiableUUID()": {
        "details": "Implementation of the ERC1822 {proxiableUUID} function. This returns the storage slot used by the implementation. It is used to validate that the this implementation remains valid after an upgrade. IMPORTANT: A proxy pointing at a proxiable contract should not be considered proxiable itself, because this risks bricking a proxy that upgrades to it, by delegating to itself until out of gas. Thus it is critical that this function revert if invoked through a proxy. This is guaranteed by the `notDelegated` modifier."
      },
      "renounceRole(bytes32,address)": {
        "details": "Revokes `role` from the calling account. Roles are often managed via {grantRole} and {revokeRole}: this function's purpose is to provide a mechanism for accounts to lose their privileges if they are compromised (such as when a trusted device is misplaced). If the calling account had been revoked `role`, emits a {RoleRevoked} event. Requirements: - the caller must be `account`."
      },
      "revokeRole(bytes32,address)": {
        "details": "Revokes `role` from `account`. If `account` had been granted `role`, emits a {RoleRevoked} event. Requirements: - the caller must have ``role``'s admin role."
      },
      "supportsInterface(bytes4)": {
        "details": "See {IERC165-supportsInterface}."
      },
      "upgradeTo(address)": {
        "details": "Upgrade the implementation of the proxy to `newImplementation`. Calls {_authorizeUpgrade}. Emits an {Upgraded} event."
      },
      "upgradeToAndCall(address,bytes)": {
        "details": "Upgrade the implementation of the proxy to `newImplementation`, and subsequently execute the function call encoded in `data`. Calls {_authorizeUpgrade}. Emits an {Upgraded} event."
      }
    },
    "version": 1
  },
  "userdoc": {
    "kind": "user",
    "methods": {},
    "version": 1
  },
  "storageLayout": {
    "storage": [
      {
        "astId": 797,
        "contract": "contracts/AnalyticsPlatform.sol:AnalyticsPlatform",
        "label": "_initialized",
        "offset": 0,
        "slot": "0",
        "type": "t_bool"
      },
      {
        "astId": 800,
        "contract": "contracts/AnalyticsPlatform.sol:AnalyticsPlatform",
        "label": "_initializing",
        "offset": 1,
        "slot": "0",
        "type": "t_bool"
      },
      {
        "astId": 1284,
        "contract": "contracts/AnalyticsPlatform.sol:AnalyticsPlatform",
        "label": "__gap",
        "offset": 0,
        "slot": "1",
        "type": "t_array(t_uint256)50_storage"
      },
      {
        "astId": 1591,
        "contract": "contracts/AnalyticsPlatform.sol:AnalyticsPlatform",
        "label": "__gap",
        "offset": 0,
        "slot": "51",
        "type": "t_array(t_uint256)50_storage"
      },
      {
        "astId": 39,
        "contract": "contracts/AnalyticsPlatform.sol:AnalyticsPlatform",
        "label": "_roles",
        "offset": 0,
        "slot": "101",
        "type": "t_mapping(t_bytes32,t_struct(RoleData)34_storage)"
      },
      {
        "astId": 327,
        "contract": "contracts/AnalyticsPlatform.sol:AnalyticsPlatform",
        "label": "__gap",
        "offset": 0,
        "slot": "102",
        "type": "t_array(t_uint256)49_storage"
      },
      {
        "astId": 779,
        "contract": "contracts/AnalyticsPlatform.sol:AnalyticsPlatform",
        "label": "__gap",
        "offset": 0,
        "slot": "151",
        "type": "t_array(t_uint256)50_storage"
      },
      {
        "astId": 999,
        "contract": "contracts/AnalyticsPlatform.sol:AnalyticsPlatform",
        "label": "__gap",
        "offset": 0,
        "slot": "201",
        "type": "t_array(t_uint256)50_storage"
      },
      {
        "astId": 1904,
        "contract": "contracts/AnalyticsPlatform.sol:AnalyticsPlatform",
        "label": "strategies",
        "offset": 0,
        "slot": "251",
        "type": "t_array(t_address)dyn_storage"
      },
      {
        "astId": 1907,
        "contract": "contracts/AnalyticsPlatform.sol:AnalyticsPlatform",
        "label": "usdc",
        "offset": 0,
        "slot": "252",
        "type": "t_contract(IERC20)1682"
      }
    ],
    "types": {
      "t_address": {
        "encoding": "inplace",
        "label": "address",
        "numberOfBytes": "20"
      },
      "t_array(t_address)dyn_storage": {
        "base": "t_address",
        "encoding": "dynamic_array",
        "label": "address[]",
        "numberOfBytes": "32"
      },
      "t_array(t_uint256)49_storage": {
        "base": "t_uint256",
        "encoding": "inplace",
        "label": "uint256[49]",
        "numberOfBytes": "1568"
      },
      "t_array(t_uint256)50_storage": {
        "base": "t_uint256",
        "encoding": "inplace",
        "label": "uint256[50]",
        "numberOfBytes": "1600"
      },
      "t_bool": {
        "encoding": "inplace",
        "label": "bool",
        "numberOfBytes": "1"
      },
      "t_bytes32": {
        "encoding": "inplace",
        "label": "bytes32",
        "numberOfBytes": "32"
      },
      "t_contract(IERC20)1682": {
        "encoding": "inplace",
        "label": "contract IERC20",
        "numberOfBytes": "20"
      },
      "t_mapping(t_address,t_bool)": {
        "encoding": "mapping",
        "key": "t_address",
        "label": "mapping(address => bool)",
        "numberOfBytes": "32",
        "value": "t_bool"
      },
      "t_mapping(t_bytes32,t_struct(RoleData)34_storage)": {
        "encoding": "mapping",
        "key": "t_bytes32",
        "label": "mapping(bytes32 => struct AccessControlUpgradeable.RoleData)",
        "numberOfBytes": "32",
        "value": "t_struct(RoleData)34_storage"
      },
      "t_struct(RoleData)34_storage": {
        "encoding": "inplace",
        "label": "struct AccessControlUpgradeable.RoleData",
        "members": [
          {
            "astId": 31,
            "contract": "contracts/AnalyticsPlatform.sol:AnalyticsPlatform",
            "label": "members",
            "offset": 0,
            "slot": "0",
            "type": "t_mapping(t_address,t_bool)"
          },
          {
            "astId": 33,
            "contract": "contracts/AnalyticsPlatform.sol:AnalyticsPlatform",
            "label": "adminRole",
            "offset": 0,
            "slot": "1",
            "type": "t_bytes32"
          }
        ],
        "numberOfBytes": "64"
      },
      "t_uint256": {
        "encoding": "inplace",
        "label": "uint256",
        "numberOfBytes": "32"
      }
    }
  }
}