{
  "address": "0x019D17272687904F855D235dbBA7fD9268088Ea5",
  "abi": [
    {
      "inputs": [],
      "stateMutability": "nonpayable",
      "type": "constructor"
    },
    {
      "anonymous": false,
      "inputs": [
        {
          "indexed": false,
          "internalType": "address",
          "name": "previousAdmin",
          "type": "address"
        },
        {
          "indexed": false,
          "internalType": "address",
          "name": "newAdmin",
          "type": "address"
        }
      ],
      "name": "AdminChanged",
      "type": "event"
    },
    {
      "anonymous": false,
      "inputs": [
        {
          "indexed": true,
          "internalType": "address",
          "name": "beacon",
          "type": "address"
        }
      ],
      "name": "BeaconUpgraded",
      "type": "event"
    },
    {
      "anonymous": false,
      "inputs": [
        {
          "indexed": false,
          "internalType": "uint8",
          "name": "version",
          "type": "uint8"
        }
      ],
      "name": "Initialized",
      "type": "event"
    },
    {
      "anonymous": false,
      "inputs": [
        {
          "indexed": true,
          "internalType": "bytes32",
          "name": "role",
          "type": "bytes32"
        },
        {
          "indexed": true,
          "internalType": "bytes32",
          "name": "previousAdminRole",
          "type": "bytes32"
        },
        {
          "indexed": true,
          "internalType": "bytes32",
          "name": "newAdminRole",
          "type": "bytes32"
        }
      ],
      "name": "RoleAdminChanged",
      "type": "event"
    },
    {
      "anonymous": false,
      "inputs": [
        {
          "indexed": true,
          "internalType": "bytes32",
          "name": "role",
          "type": "bytes32"
        },
        {
          "indexed": true,
          "internalType": "address",
          "name": "account",
          "type": "address"
        },
        {
          "indexed": true,
          "internalType": "address",
          "name": "sender",
          "type": "address"
        }
      ],
      "name": "RoleGranted",
      "type": "event"
    },
    {
      "anonymous": false,
      "inputs": [
        {
          "indexed": true,
          "internalType": "bytes32",
          "name": "role",
          "type": "bytes32"
        },
        {
          "indexed": true,
          "internalType": "address",
          "name": "account",
          "type": "address"
        },
        {
          "indexed": true,
          "internalType": "address",
          "name": "sender",
          "type": "address"
        }
      ],
      "name": "RoleRevoked",
      "type": "event"
    },
    {
      "anonymous": false,
      "inputs": [
        {
          "indexed": true,
          "internalType": "address",
          "name": "token0",
          "type": "address"
        },
        {
          "indexed": true,
          "internalType": "address",
          "name": "token1",
          "type": "address"
        },
        {
          "indexed": false,
          "internalType": "address",
          "name": "pool",
          "type": "address"
        },
        {
          "indexed": false,
          "internalType": "string",
          "name": "swapPlaceType",
          "type": "string"
        }
      ],
      "name": "SwapPlaceInfoRegistered",
      "type": "event"
    },
    {
      "anonymous": false,
      "inputs": [
        {
          "indexed": true,
          "internalType": "address",
          "name": "token0",
          "type": "address"
        },
        {
          "indexed": true,
          "internalType": "address",
          "name": "token1",
          "type": "address"
        },
        {
          "indexed": false,
          "internalType": "address",
          "name": "pool",
          "type": "address"
        }
      ],
      "name": "SwapPlaceInfoRemoved",
      "type": "event"
    },
    {
      "anonymous": false,
      "inputs": [
        {
          "indexed": false,
          "internalType": "string",
          "name": "swapPlaceType",
          "type": "string"
        },
        {
          "indexed": false,
          "internalType": "address",
          "name": "swapPlace",
          "type": "address"
        }
      ],
      "name": "SwapPlaceRegistered",
      "type": "event"
    },
    {
      "anonymous": false,
      "inputs": [
        {
          "indexed": false,
          "internalType": "string",
          "name": "swapPlaceType",
          "type": "string"
        }
      ],
      "name": "SwapPlaceRemoved",
      "type": "event"
    },
    {
      "anonymous": false,
      "inputs": [
        {
          "indexed": true,
          "internalType": "address",
          "name": "implementation",
          "type": "address"
        }
      ],
      "name": "Upgraded",
      "type": "event"
    },
    {
      "inputs": [],
      "name": "DEFAULT_ADMIN_ROLE",
      "outputs": [
        {
          "internalType": "bytes32",
          "name": "",
          "type": "bytes32"
        }
      ],
      "stateMutability": "view",
      "type": "function"
    },
    {
      "inputs": [],
      "name": "OPERATOR",
      "outputs": [
        {
          "internalType": "bytes32",
          "name": "",
          "type": "bytes32"
        }
      ],
      "stateMutability": "view",
      "type": "function"
    },
    {
      "inputs": [],
      "name": "UPGRADER_ROLE",
      "outputs": [
        {
          "internalType": "bytes32",
          "name": "",
          "type": "bytes32"
        }
      ],
      "stateMutability": "view",
      "type": "function"
    },
    {
      "inputs": [
        {
          "components": [
            {
              "internalType": "address",
              "name": "tokenIn",
              "type": "address"
            },
            {
              "internalType": "address",
              "name": "tokenOut",
              "type": "address"
            },
            {
              "internalType": "uint256",
              "name": "amountIn",
              "type": "uint256"
            },
            {
              "internalType": "uint256",
              "name": "amountOutMin",
              "type": "uint256"
            },
            {
              "internalType": "uint256",
              "name": "partsAmount",
              "type": "uint256"
            }
          ],
          "internalType": "struct ISwapper.SwapParams",
          "name": "params",
          "type": "tuple"
        }
      ],
      "name": "getAmountOut",
      "outputs": [
        {
          "internalType": "uint256",
          "name": "",
          "type": "uint256"
        }
      ],
      "stateMutability": "view",
      "type": "function"
    },
    {
      "inputs": [
        {
          "internalType": "bytes32",
          "name": "role",
          "type": "bytes32"
        }
      ],
      "name": "getRoleAdmin",
      "outputs": [
        {
          "internalType": "bytes32",
          "name": "",
          "type": "bytes32"
        }
      ],
      "stateMutability": "view",
      "type": "function"
    },
    {
      "inputs": [
        {
          "internalType": "bytes32",
          "name": "role",
          "type": "bytes32"
        },
        {
          "internalType": "address",
          "name": "account",
          "type": "address"
        }
      ],
      "name": "grantRole",
      "outputs": [],
      "stateMutability": "nonpayable",
      "type": "function"
    },
    {
      "inputs": [
        {
          "internalType": "bytes32",
          "name": "role",
          "type": "bytes32"
        },
        {
          "internalType": "address",
          "name": "account",
          "type": "address"
        }
      ],
      "name": "hasRole",
      "outputs": [
        {
          "internalType": "bool",
          "name": "",
          "type": "bool"
        }
      ],
      "stateMutability": "view",
      "type": "function"
    },
    {
      "inputs": [],
      "name": "initialize",
      "outputs": [],
      "stateMutability": "nonpayable",
      "type": "function"
    },
    {
      "inputs": [
        {
          "internalType": "address",
          "name": "",
          "type": "address"
        }
      ],
      "name": "poolSwapPlaceTypes",
      "outputs": [
        {
          "internalType": "string",
          "name": "",
          "type": "string"
        }
      ],
      "stateMutability": "view",
      "type": "function"
    },
    {
      "inputs": [],
      "name": "proxiableUUID",
      "outputs": [
        {
          "internalType": "bytes32",
          "name": "",
          "type": "bytes32"
        }
      ],
      "stateMutability": "view",
      "type": "function"
    },
    {
      "inputs": [
        {
          "internalType": "bytes32",
          "name": "role",
          "type": "bytes32"
        },
        {
          "internalType": "address",
          "name": "account",
          "type": "address"
        }
      ],
      "name": "renounceRole",
      "outputs": [],
      "stateMutability": "nonpayable",
      "type": "function"
    },
    {
      "inputs": [
        {
          "internalType": "bytes32",
          "name": "role",
          "type": "bytes32"
        },
        {
          "internalType": "address",
          "name": "account",
          "type": "address"
        }
      ],
      "name": "revokeRole",
      "outputs": [],
      "stateMutability": "nonpayable",
      "type": "function"
    },
    {
      "inputs": [
        {
          "internalType": "bytes4",
          "name": "interfaceId",
          "type": "bytes4"
        }
      ],
      "name": "supportsInterface",
      "outputs": [
        {
          "internalType": "bool",
          "name": "",
          "type": "bool"
        }
      ],
      "stateMutability": "view",
      "type": "function"
    },
    {
      "inputs": [
        {
          "components": [
            {
              "internalType": "address",
              "name": "tokenIn",
              "type": "address"
            },
            {
              "internalType": "address",
              "name": "tokenOut",
              "type": "address"
            },
            {
              "internalType": "uint256",
              "name": "amountIn",
              "type": "uint256"
            },
            {
              "internalType": "uint256",
              "name": "amountOutMin",
              "type": "uint256"
            },
            {
              "internalType": "uint256",
              "name": "partsAmount",
              "type": "uint256"
            }
          ],
          "internalType": "struct ISwapper.SwapParams",
          "name": "params",
          "type": "tuple"
        }
      ],
      "name": "swap",
      "outputs": [
        {
          "internalType": "uint256",
          "name": "",
          "type": "uint256"
        }
      ],
      "stateMutability": "nonpayable",
      "type": "function"
    },
    {
      "inputs": [
        {
          "internalType": "address",
          "name": "tokenIn",
          "type": "address"
        },
        {
          "internalType": "uint256",
          "name": "amountIn",
          "type": "uint256"
        },
        {
          "internalType": "address",
          "name": "tokenOut",
          "type": "address"
        },
        {
          "internalType": "uint256",
          "name": "amountOutMin",
          "type": "uint256"
        },
        {
          "components": [
            {
              "internalType": "address",
              "name": "tokenIn",
              "type": "address"
            },
            {
              "internalType": "address",
              "name": "tokenOut",
              "type": "address"
            },
            {
              "internalType": "uint256",
              "name": "amountIn",
              "type": "uint256"
            },
            {
              "internalType": "uint256",
              "name": "amountOut",
              "type": "uint256"
            },
            {
              "internalType": "address",
              "name": "swapPlace",
              "type": "address"
            },
            {
              "internalType": "address",
              "name": "pool",
              "type": "address"
            }
          ],
          "internalType": "struct Structures.SwapRoute[]",
          "name": "swapRoutes",
          "type": "tuple[]"
        }
      ],
      "name": "swapBySwapRoutes",
      "outputs": [
        {
          "internalType": "uint256",
          "name": "",
          "type": "uint256"
        }
      ],
      "stateMutability": "nonpayable",
      "type": "function"
    },
    {
      "inputs": [
        {
          "components": [
            {
              "internalType": "address",
              "name": "tokenIn",
              "type": "address"
            },
            {
              "internalType": "address",
              "name": "tokenOut",
              "type": "address"
            },
            {
              "internalType": "uint256",
              "name": "amountIn",
              "type": "uint256"
            },
            {
              "internalType": "uint256",
              "name": "amountOutMin",
              "type": "uint256"
            },
            {
              "internalType": "uint256",
              "name": "partsAmount",
              "type": "uint256"
            }
          ],
          "internalType": "struct ISwapper.SwapParams",
          "name": "params",
          "type": "tuple"
        },
        {
          "components": [
            {
              "internalType": "address",
              "name": "tokenIn",
              "type": "address"
            },
            {
              "internalType": "address",
              "name": "tokenOut",
              "type": "address"
            },
            {
              "internalType": "uint256",
              "name": "amountIn",
              "type": "uint256"
            },
            {
              "internalType": "uint256",
              "name": "amountOut",
              "type": "uint256"
            },
            {
              "internalType": "address",
              "name": "swapPlace",
              "type": "address"
            },
            {
              "internalType": "address",
              "name": "pool",
              "type": "address"
            }
          ],
          "internalType": "struct Structures.SwapRoute[]",
          "name": "swapRoutes",
          "type": "tuple[]"
        }
      ],
      "name": "swapBySwapRoutes",
      "outputs": [
        {
          "internalType": "uint256",
          "name": "",
          "type": "uint256"
        }
      ],
      "stateMutability": "nonpayable",
      "type": "function"
    },
    {
      "inputs": [
        {
          "components": [
            {
              "internalType": "address",
              "name": "tokenIn",
              "type": "address"
            },
            {
              "internalType": "address",
              "name": "tokenOut",
              "type": "address"
            },
            {
              "internalType": "uint256",
              "name": "amountIn",
              "type": "uint256"
            },
            {
              "internalType": "uint256",
              "name": "amountOutMin",
              "type": "uint256"
            },
            {
              "internalType": "address",
              "name": "pool",
              "type": "address"
            }
          ],
          "internalType": "struct ISwapper.SwapParamsExact",
          "name": "params",
          "type": "tuple"
        }
      ],
      "name": "swapExact",
      "outputs": [
        {
          "internalType": "uint256",
          "name": "",
          "type": "uint256"
        }
      ],
      "stateMutability": "nonpayable",
      "type": "function"
    },
    {
      "inputs": [
        {
          "components": [
            {
              "internalType": "address",
              "name": "tokenIn",
              "type": "address"
            },
            {
              "internalType": "address",
              "name": "tokenOut",
              "type": "address"
            },
            {
              "internalType": "uint256",
              "name": "amountIn",
              "type": "uint256"
            },
            {
              "internalType": "uint256",
              "name": "amountOutMin",
              "type": "uint256"
            },
            {
              "internalType": "uint256",
              "name": "partsAmount",
              "type": "uint256"
            }
          ],
          "internalType": "struct ISwapper.SwapParams",
          "name": "params",
          "type": "tuple"
        }
      ],
      "name": "swapPath",
      "outputs": [
        {
          "components": [
            {
              "internalType": "address",
              "name": "tokenIn",
              "type": "address"
            },
            {
              "internalType": "address",
              "name": "tokenOut",
              "type": "address"
            },
            {
              "internalType": "uint256",
              "name": "amountIn",
              "type": "uint256"
            },
            {
              "internalType": "uint256",
              "name": "amountOut",
              "type": "uint256"
            },
            {
              "internalType": "address",
              "name": "swapPlace",
              "type": "address"
            },
            {
              "internalType": "address",
              "name": "pool",
              "type": "address"
            }
          ],
          "internalType": "struct Structures.SwapRoute[]",
          "name": "",
          "type": "tuple[]"
        }
      ],
      "stateMutability": "view",
      "type": "function"
    },
    {
      "inputs": [
        {
          "internalType": "address",
          "name": "token0",
          "type": "address"
        },
        {
          "internalType": "address",
          "name": "token1",
          "type": "address"
        }
      ],
      "name": "swapPlaceInfoLength",
      "outputs": [
        {
          "internalType": "uint256",
          "name": "",
          "type": "uint256"
        }
      ],
      "stateMutability": "view",
      "type": "function"
    },
    {
      "inputs": [
        {
          "internalType": "address",
          "name": "token0",
          "type": "address"
        },
        {
          "internalType": "address",
          "name": "token1",
          "type": "address"
        },
        {
          "internalType": "address",
          "name": "pool",
          "type": "address"
        },
        {
          "internalType": "string",
          "name": "swapPlaceType",
          "type": "string"
        }
      ],
      "name": "swapPlaceInfoRegister",
      "outputs": [],
      "stateMutability": "nonpayable",
      "type": "function"
    },
    {
      "inputs": [
        {
          "internalType": "address",
          "name": "token0",
          "type": "address"
        },
        {
          "internalType": "address",
          "name": "token1",
          "type": "address"
        },
        {
          "internalType": "address",
          "name": "pool",
          "type": "address"
        }
      ],
      "name": "swapPlaceInfoRemove",
      "outputs": [],
      "stateMutability": "nonpayable",
      "type": "function"
    },
    {
      "inputs": [
        {
          "internalType": "address",
          "name": "",
          "type": "address"
        },
        {
          "internalType": "address",
          "name": "",
          "type": "address"
        },
        {
          "internalType": "uint256",
          "name": "",
          "type": "uint256"
        }
      ],
      "name": "swapPlaceInfos",
      "outputs": [
        {
          "internalType": "address",
          "name": "pool",
          "type": "address"
        },
        {
          "internalType": "string",
          "name": "swapPlaceType",
          "type": "string"
        }
      ],
      "stateMutability": "view",
      "type": "function"
    },
    {
      "inputs": [
        {
          "internalType": "string",
          "name": "swapPlaceType",
          "type": "string"
        },
        {
          "internalType": "address",
          "name": "swapPlace",
          "type": "address"
        }
      ],
      "name": "swapPlaceRegister",
      "outputs": [],
      "stateMutability": "nonpayable",
      "type": "function"
    },
    {
      "inputs": [
        {
          "internalType": "string",
          "name": "swapPlaceType",
          "type": "string"
        }
      ],
      "name": "swapPlaceRemove",
      "outputs": [],
      "stateMutability": "nonpayable",
      "type": "function"
    },
    {
      "inputs": [
        {
          "internalType": "string",
          "name": "",
          "type": "string"
        }
      ],
      "name": "swapPlaces",
      "outputs": [
        {
          "internalType": "address",
          "name": "",
          "type": "address"
        }
      ],
      "stateMutability": "view",
      "type": "function"
    },
    {
      "inputs": [
        {
          "internalType": "address",
          "name": "newImplementation",
          "type": "address"
        }
      ],
      "name": "upgradeTo",
      "outputs": [],
      "stateMutability": "nonpayable",
      "type": "function"
    },
    {
      "inputs": [
        {
          "internalType": "address",
          "name": "newImplementation",
          "type": "address"
        },
        {
          "internalType": "bytes",
          "name": "data",
          "type": "bytes"
        }
      ],
      "name": "upgradeToAndCall",
      "outputs": [],
      "stateMutability": "payable",
      "type": "function"
    }
  ],
  "numDeployments": 1,
  "solcInputHash": "80f6ed4829d9b63bc1f1970b0ca13625",
  "bytecode": "0x60a06040523060601b6080523480156200001857600080fd5b50600054610100900460ff16158080156200003a5750600054600160ff909116105b806200006a575062000057306200014460201b62001c961760201c565b1580156200006a575060005460ff166001145b620000d25760405162461bcd60e51b815260206004820152602e60248201527f496e697469616c697a61626c653a20636f6e747261637420697320616c72656160448201526d191e481a5b9a5d1a585b1a5e995960921b606482015260840160405180910390fd5b6000805460ff191660011790558015620000f6576000805461ff0019166101001790555b80156200013d576000805461ff0019169055604051600181527f7f26b83ff96e1f2b6a682f133852f6798a09c465da95921460cefb38474024989060200160405180910390a15b5062000153565b6001600160a01b03163b151590565b60805160601c613ce46200018e60003960008181610899015281816108d901528181610a1701528181610a570152610ae60152613ce46000f3fe60806040526004361061019c5760003560e01c80638536758c116100ec578063a217fddf1161008a578063c37d710711610064578063c37d710714610511578063d547741f14610531578063d718a27114610551578063f72c0d8b1461057157600080fd5b8063a217fddf14610496578063a8726be2146104ab578063a925e346146104cb57600080fd5b806391d14854116100c657806391d1485414610407578063983d2737146104275780639b390384146104495780639f3795761461046957600080fd5b80638536758c1461036e57806390a1ecc4146103c757806390b5cd18146103e757600080fd5b806344bf0ff2116101595780635a9adcfd116101335780635a9adcfd146102eb578063701fbc111461030b5780637c6e2561146103395780638129fc1c1461035957600080fd5b806344bf0ff2146102a35780634f1ef286146102c357806352d1902d146102d657600080fd5b806301ffc9a7146101a1578063176b83e3146101d6578063248a9ca3146102035780632f2ff15d1461024157806336568abe146102635780633659cfe614610283575b600080fd5b3480156101ad57600080fd5b506101c16101bc3660046135d1565b6105a5565b60405190151581526020015b60405180910390f35b3480156101e257600080fd5b506101f66101f13660046136ce565b6105dc565b6040516101cd91906138df565b34801561020f57600080fd5b5061023361021e36600461357c565b60009081526065602052604090206001015490565b6040519081526020016101cd565b34801561024d57600080fd5b5061026161025c3660046135ae565b6107e6565b005b34801561026f57600080fd5b5061026161027e3660046135ae565b610810565b34801561028f57600080fd5b5061026161029e366004613346565b61088e565b3480156102af57600080fd5b506102616102be3660046135fb565b61096e565b6102616102d1366004613488565b610a0c565b3480156102e257600080fd5b50610233610ad9565b3480156102f757600080fd5b506102616103063660046133d7565b610b8c565b34801561031757600080fd5b5061032b61032636600461344c565b610eeb565b6040516101cd9291906138bb565b34801561034557600080fd5b506102336103543660046134e9565b610fca565b34801561036557600080fd5b50610261611253565b34801561037a57600080fd5b506103af610389366004613686565b805160208183018101805160fc825292820191909301209152546001600160a01b031681565b6040516001600160a01b0390911681526020016101cd565b3480156103d357600080fd5b506102616103e2366004613394565b6113b8565b3480156103f357600080fd5b506102336104023660046136ea565b611757565b34801561041357600080fd5b506101c16104223660046135ae565b61178f565b34801561043357600080fd5b50610233600080516020613c4883398151915281565b34801561045557600080fd5b506102336104643660046136ce565b6117ba565b34801561047557600080fd5b50610489610484366004613346565b611a84565b6040516101cd919061396d565b3480156104a257600080fd5b50610233600081565b3480156104b757600080fd5b506102616104c636600461363c565b611b1e565b3480156104d757600080fd5b506102336104e6366004613361565b6001600160a01b03918216600090815260fb6020908152604080832093909416825291909152205490565b34801561051d57600080fd5b5061023361052c3660046136ce565b611bf9565b34801561053d57600080fd5b5061026161054c3660046135ae565b611c11565b34801561055d57600080fd5b5061023361056c3660046136ce565b611c36565b34801561057d57600080fd5b506102337f189ab7a9244df0848122154315af71fe140f3db0fe014031783b0946b8c9d2e381565b60006001600160e01b03198216637965db0b60e01b14806105d657506301ffc9a760e01b6001600160e01b03198316145b92915050565b606060008260800135116106375760405162461bcd60e51b815260206004820152601e60248201527f7061727473416d6f756e74206d7573742062652061626f7665207a65726f000060448201526064015b60405180910390fd5b8160800135826040013510156106a25760405162461bcd60e51b815260206004820152602a60248201527f616d6f756e74496e206d757374206265206e6f6e206c657373207468616e2070604482015269185c9d1cd05b5bdd5b9d60b21b606482015260840161062e565b600060fb816106b46020860186613346565b6001600160a01b03166001600160a01b0316815260200190815260200160002060008460200160208101906106e99190613346565b6001600160a01b03168152602081019190915260400160002080549091506107535760405162461bcd60e51b815260206004820152601d60248201527f43616e742066696e642073776170506c61636520627920746f6b656e73000000604482015260640161062e565b600060808401356107665750805461076d565b5060808301355b600061077d826040870135613b04565b9050600061078c848784611ca5565b9050600061079c87858585611fb4565b905060006107aa8585613b26565b6107b89060408a0135613b45565b905080156107cd576107cd888585858561219a565b60006107d98985612308565b9998505050505050505050565b600082815260656020526040902060010154610801816124e4565b61080b83836124ee565b505050565b6001600160a01b03811633146108805760405162461bcd60e51b815260206004820152602f60248201527f416363657373436f6e74726f6c3a2063616e206f6e6c792072656e6f756e636560448201526e103937b632b9903337b91039b2b63360891b606482015260840161062e565b61088a8282612574565b5050565b306001600160a01b037f00000000000000000000000000000000000000000000000000000000000000001614156108d75760405162461bcd60e51b815260040161062e90613980565b7f00000000000000000000000000000000000000000000000000000000000000006001600160a01b0316610920600080516020613c68833981519152546001600160a01b031690565b6001600160a01b0316146109465760405162461bcd60e51b815260040161062e906139cc565b61094f816125db565b6040805160008082526020820190925261096b91839190612605565b50565b610986600080516020613c488339815191523361178f565b6109a25760405162461bcd60e51b815260040161062e90613a18565b60fc82826040516109b49291906137e6565b90815260405190819003602001812080546001600160a01b03191690557fe0b70fa56ae909375e1dd4a1198ef2c82d57f124c2f53b5a9bb61749697a667190610a00908490849061392d565b60405180910390a15050565b306001600160a01b037f0000000000000000000000000000000000000000000000000000000000000000161415610a555760405162461bcd60e51b815260040161062e90613980565b7f00000000000000000000000000000000000000000000000000000000000000006001600160a01b0316610a9e600080516020613c68833981519152546001600160a01b031690565b6001600160a01b031614610ac45760405162461bcd60e51b815260040161062e906139cc565b610acd826125db565b61088a82826001612605565b6000306001600160a01b037f00000000000000000000000000000000000000000000000000000000000000001614610b795760405162461bcd60e51b815260206004820152603860248201527f555550535570677261646561626c653a206d757374206e6f742062652063616c60448201527f6c6564207468726f7567682064656c656761746563616c6c0000000000000000606482015260840161062e565b50600080516020613c6883398151915290565b610ba4600080516020613c488339815191523361178f565b610bc05760405162461bcd60e51b815260040161062e90613a18565b6001600160a01b038516610be65760405162461bcd60e51b815260040161062e90613a4f565b6001600160a01b038416610c0c5760405162461bcd60e51b815260040161062e90613a4f565b6001600160a01b038316610c325760405162461bcd60e51b815260040161062e90613a4f565b6001600160a01b03808616600090815260fb60209081526040808320938816835292905220805415610cf45760005b8154811015610cf257846001600160a01b0316828281548110610c8657610c86613c1b565b60009182526020909120600290910201546001600160a01b03161415610ce05760405162461bcd60e51b815260206004820152600f60248201526e105b1c9958591e481a5b881b1a5cdd608a1b604482015260640161062e565b80610cea81613bd4565b915050610c61565b505b6001600160a01b038416600090815260fd60205260409020610d17908484612fc9565b506001600160a01b03808716600090815260fb6020908152604080832089851684528252918290208251808401845293881684528251601f870183900483028101830190935285835292918282019187908790819084018382808284376000920182905250939094525050835460018082018655948252602091829020845160029092020180546001600160a01b0319166001600160a01b0390921691909117815583820151805194959194610dd3945091850192019061304d565b5050506001600160a01b03808616600090815260fb602090815260408083208a851684528252918290208251808401845293881684528251601f870183900483028101830190935285835292918282019187908790819084018382808284376000920182905250939094525050835460018082018655948252602091829020845160029092020180546001600160a01b0319166001600160a01b0390921691909117815583820151805194959194610e91945091850192019061304d565b505050846001600160a01b0316866001600160a01b03167f9d0cbae512d030f2bf38a1aee49e673429adfdc7d3f0e175451bd5c8ffea8a2e868686604051610edb93929190613896565b60405180910390a3505050505050565b60fb6020528260005260406000206020528160005260406000208181548110610f1357600080fd5b6000918252602090912060029091020180546001820180546001600160a01b039092169550919350909150610f4790613b9f565b80601f0160208091040260200160405190810160405280929190818152602001828054610f7390613b9f565b8015610fc05780601f10610f9557610100808354040283529160200191610fc0565b820191906000526020600020905b815481529060010190602001808311610fa357829003601f168201915b5050505050905082565b6000610fe16001600160a01b03871633308861277f565b6000805b835181101561102b5783818151811061100057611000613c1b565b602002602001015160600151826110179190613aec565b91508061102381613bd4565b915050610fe5565b508381101561107c5760405162461bcd60e51b815260206004820152601a60248201527f616d6f756e744f7574206c657373207468616e206e6565646564000000000000604482015260640161062e565b60005b835181101561116757600084828151811061109c5761109c613c1b565b602002602001015190506110d08160800151826040015183600001516001600160a01b03166127f09092919063ffffffff16565b80608001516001600160a01b0316635acbbdf5826040518263ffffffff1660e01b81526004016111009190613a86565b602060405180830381600087803b15801561111a57600080fd5b505af115801561112e573d6000803e3d6000fd5b505050506040513d601f19601f820116820180604052508101906111529190613595565b5050808061115f90613bd4565b91505061107f565b506040516370a0823160e01b81523060048201526000906001600160a01b038716906370a082319060240160206040518083038186803b1580156111aa57600080fd5b505afa1580156111be573d6000803e3d6000fd5b505050506040513d601f19601f820116820180604052508101906111e29190613595565b9050818110156112345760405162461bcd60e51b815260206004820152601f60248201527f62616c616e63654f7574206c6f776572207468616e20616d6f756e744f757400604482015260640161062e565b6112486001600160a01b03871633836127f0565b979650505050505050565b600054610100900460ff16158080156112735750600054600160ff909116105b8061128d5750303b15801561128d575060005460ff166001145b6112f05760405162461bcd60e51b815260206004820152602e60248201527f496e697469616c697a61626c653a20636f6e747261637420697320616c72656160448201526d191e481a5b9a5d1a585b1a5e995960921b606482015260840161062e565b6000805460ff191660011790558015611313576000805461ff0019166101001790555b61131b612820565b611323612820565b61132e6000336124ee565b6113587f189ab7a9244df0848122154315af71fe140f3db0fe014031783b0946b8c9d2e3336124ee565b611370600080516020613c48833981519152336124ee565b801561096b576000805461ff0019169055604051600181527f7f26b83ff96e1f2b6a682f133852f6798a09c465da95921460cefb38474024989060200160405180910390a150565b6113d0600080516020613c488339815191523361178f565b6113ec5760405162461bcd60e51b815260040161062e90613a18565b6001600160a01b0383166114125760405162461bcd60e51b815260040161062e90613a4f565b6001600160a01b0382166114385760405162461bcd60e51b815260040161062e90613a4f565b6001600160a01b03811661145e5760405162461bcd60e51b815260040161062e90613a4f565b6001600160a01b03808416600090815260fb6020908152604080832093861683529290522080546114d15760405162461bcd60e51b815260206004820152601c60248201527f43616e742072656d6f76652066726f6d20656d70747920617272617900000000604482015260640161062e565b6000805b825481101561153457836001600160a01b03168382815481106114fa576114fa613c1b565b60009182526020909120600290910201546001600160a01b0316141561152257809150611534565b8061152c81613bd4565b9150506114d5565b508154829061154590600190613b45565b8154811061155557611555613c1b565b906000526020600020906002020182828154811061157557611575613c1b565b60009182526020909120825460029092020180546001600160a01b0319166001600160a01b0390921691909117815560018083018054918301916115b890613b9f565b6115c39291906130c1565b50905050818054806115d7576115d7613c05565b60008281526020812060026000199093019283020180546001600160a01b031916815590611608600183018261313c565b505090556001600160a01b03808516600090815260fb602090815260408083209389168352929052208054909250829061164490600190613b45565b8154811061165457611654613c1b565b906000526020600020906002020182828154811061167457611674613c1b565b60009182526020909120825460029092020180546001600160a01b0319166001600160a01b0390921691909117815560018083018054918301916116b790613b9f565b6116c29291906130c1565b50905050818054806116d6576116d6613c05565b60008281526020812060026000199093019283020180546001600160a01b031916815590611707600183018261313c565b505090556040516001600160a01b03848116825280861691908716907f1f9a469ed47a9f47e76973a24662a9d2f3af3937ce8e9c834c2694b4e0d861a89060200160405180910390a35050505050565b60006117886117696020850185613346565b6040850180359061177d9060208801613346565b866060013586610fca565b9392505050565b60009182526065602090815260408084206001600160a01b0393909316845291905290205460ff1690565b60008060fd816117d060a0860160808701613346565b6001600160a01b03166001600160a01b0316815260200190815260200160002080546117fb90613b9f565b80601f016020809104026020016040519081016040528092919081815260200182805461182790613b9f565b80156118745780601f1061184957610100808354040283529160200191611874565b820191906000526020600020905b81548152906001019060200180831161185757829003601f168201915b5050505050905060008151116118cc5760405162461bcd60e51b815260206004820181905260248201527f4e6f7420666f756e642073776170506c6163655479706520666f7220706f6f6c604482015260640161062e565b600060fc826040516118de91906137ca565b908152604051908190036020019020546001600160a01b03169050806119465760405162461bcd60e51b815260206004820181905260248201527f4e6f7420666f756e642073776170506c6163655479706520666f7220706f6f6c604482015260640161062e565b604080516001808252818301909252600091816020015b6040805160c08101825260008082526020808301829052928201819052606082018190526080820181905260a0820152825260001990920191018161195d5750506040805160c08101909152909150806119ba6020880188613346565b6001600160a01b031681526020018660200160208101906119db9190613346565b6001600160a01b031681526020018660400135815260200160008152602001836001600160a01b03168152602001866080016020810190611a1c9190613346565b6001600160a01b031681525081600081518110611a3b57611a3b613c1b565b6020026020010181905250611a7b856000016020810190611a5c9190613346565b60408701803590611a709060208a01613346565b886060013585610fca565b95945050505050565b60fd6020526000908152604090208054611a9d90613b9f565b80601f0160208091040260200160405190810160405280929190818152602001828054611ac990613b9f565b8015611b165780601f10611aeb57610100808354040283529160200191611b16565b820191906000526020600020905b815481529060010190602001808311611af957829003601f168201915b505050505081565b611b36600080516020613c488339815191523361178f565b611b525760405162461bcd60e51b815260040161062e90613a18565b6001600160a01b038116611b785760405162461bcd60e51b815260040161062e90613a4f565b8060fc8484604051611b8b9291906137e6565b90815260405190819003602001812080546001600160a01b03939093166001600160a01b0319909316929092179091557fcedcf854f035085cd91c1369b9e268683a38e870be9110c6fe67b18ffc13a34d90611bec90859085908590613941565b60405180910390a1505050565b600080611c05836105dc565b90506117888382611757565b600082815260656020526040902060010154611c2c816124e4565b61080b8383612574565b600080611c42836105dc565b90506000805b8251811015611c8e57828181518110611c6357611c63613c1b565b60200260200101516060015182611c7a9190613aec565b915080611c8681613bd4565b915050611c48565b509392505050565b6001600160a01b03163b151590565b82546060906001600160401b03811115611cc157611cc1613c31565b604051908082528060200260200182016040528015611d4c57816020015b611d3960405180610100016040528060006001600160a01b0316815260200160006001600160a01b031681526020016000815260200160008152602001600081526020016000815260200160008152602001600081525090565b815260200190600190039081611cdf5790505b50905060005b8454811015611c8e576000858281548110611d6f57611d6f613c1b565b60009182526020918290206040805180820190915260029092020180546001600160a01b031682526001810180549293919291840191611dae90613b9f565b80601f0160208091040260200160405190810160405280929190818152602001828054611dda90613b9f565b8015611e275780601f10611dfc57610100808354040283529160200191611e27565b820191906000526020600020905b815481529060010190602001808311611e0a57829003601f168201915b5050505050815250509050600060fc8260200151604051611e4891906137ca565b90815260405160209181900382019020546001600160a01b0316915060009082906388030a9890611e7b908a018a613346565b611e8b60408b0160208c01613346565b898c8981548110611e9e57611e9e613c1b565b60009182526020909120600290910201546040516001600160e01b031960e087901b168152611edc949392916001600160a01b03169060040161386b565b60206040518083038186803b158015611ef457600080fd5b505afa158015611f08573d6000803e3d6000fd5b505050506040513d601f19601f82011682018060405250810190611f2c9190613595565b9050604051806101000160405280836001600160a01b0316815260200184600001516001600160a01b0316815260200160008152602001600081526020016000815260200187815260200182815260200182815250858581518110611f9357611f93613c1b565b60200260200101819052505050508080611fac90613bd4565b915050611d52565b60008060005b6000611fc58561288d565b905081611fd181613bd4565b925050868210611fe2579150612190565b600080868381518110611ff757611ff7613c1b565b602002602001015160400151600161200f9190613aec565b9050888114156120255789604001359150612032565b61202f8189613b26565b91505b600087848151811061204657612046613c1b565b6020026020010151600001516001600160a01b03166388030a988c60000160208101906120739190613346565b8d60200160208101906120869190613346565b868c898151811061209957612099613c1b565b6020026020010151602001516040518563ffffffff1660e01b81526004016120c4949392919061386b565b60206040518083038186803b1580156120dc57600080fd5b505afa1580156120f0573d6000803e3d6000fd5b505050506040513d601f19601f820116820180604052508101906121149190613595565b90508288858151811061212957612129613c1b565b602002602001015160a00181815250508088858151811061214c5761214c613c1b565b602090810291909101015160c001526121658282613b04565b88858151811061217757612177613c1b565b602002602001015160e001818152505050505050611fba565b5095945050505050565b60008383815181106121ae576121ae613c1b565b602002602001015160400151905060008282876121cb9190613b26565b6121d59190613aec565b905060008585815181106121eb576121eb613c1b565b6020026020010151600001516001600160a01b03166388030a988960000160208101906122189190613346565b61222860408c0160208d01613346565b858a8a8151811061223b5761223b613c1b565b6020026020010151602001516040518563ffffffff1660e01b8152600401612266949392919061386b565b60206040518083038186803b15801561227e57600080fd5b505afa158015612292573d6000803e3d6000fd5b505050506040513d601f19601f820116820180604052508101906122b69190613595565b9050818686815181106122cb576122cb613c1b565b60200260200101516060018181525050808686815181106122ee576122ee613c1b565b602002602001015160800181815250505050505050505050565b60606000805b835181101561236257600084828151811061232b5761232b613c1b565b60200260200101519050806040015160001461234f578261234b81613bd4565b9350505b508061235a81613bd4565b91505061230e565b50806001600160401b0381111561237b5761237b613c31565b6040519080825280602002602001820160405280156123db57816020015b6040805160c08101825260008082526020808301829052928201819052606082018190526080820181905260a082015282526000199092019101816123995790505b5091506000805b84518110156124db5760008582815181106123ff576123ff613c1b565b6020026020010151905080604001516000141561241c57506124c9565b6040805160c081019091528061243560208a018a613346565b6001600160a01b031681526020018860200160208101906124569190613346565b6001600160a01b03168152602001826060015181526020018260800151815260200182600001516001600160a01b0316815260200182602001516001600160a01b03168152508584815181106124ae576124ae613c1b565b602002602001018190525082806124c490613bd4565b935050505b806124d381613bd4565b9150506123e2565b50505092915050565b61096b8133612996565b6124f8828261178f565b61088a5760008281526065602090815260408083206001600160a01b03851684529091529020805460ff191660011790556125303390565b6001600160a01b0316816001600160a01b0316837f2f8788117e7eff1d82e926ec794901d17c78024a50270940304540a733656f0d60405160405180910390a45050565b61257e828261178f565b1561088a5760008281526065602090815260408083206001600160a01b0385168085529252808320805460ff1916905551339285917ff6391f5c32d9c69d2a47ea670b442974b53935d1edc7fd64eb21e047a839171b9190a45050565b7f189ab7a9244df0848122154315af71fe140f3db0fe014031783b0946b8c9d2e361088a816124e4565b7f4910fdfa16fed3260ed0e7147f7cc6da11a60208b5b9406d12a635614ffd91435460ff16156126385761080b836129fa565b826001600160a01b03166352d1902d6040518163ffffffff1660e01b815260040160206040518083038186803b15801561267157600080fd5b505afa9250505080156126a1575060408051601f3d908101601f1916820190925261269e91810190613595565b60015b6127045760405162461bcd60e51b815260206004820152602e60248201527f45524331393637557067726164653a206e657720696d706c656d656e7461746960448201526d6f6e206973206e6f74205555505360901b606482015260840161062e565b600080516020613c6883398151915281146127735760405162461bcd60e51b815260206004820152602960248201527f45524331393637557067726164653a20756e737570706f727465642070726f786044820152681a58589b195555525160ba1b606482015260840161062e565b5061080b838383612a96565b6040516001600160a01b03808516602483015283166044820152606481018290526127ea9085906323b872dd60e01b906084015b60408051601f198184030181529190526020810180516001600160e01b03166001600160e01b031990931692909217909152612abb565b50505050565b6040516001600160a01b03831660248201526044810182905261080b90849063a9059cbb60e01b906064016127b3565b600054610100900460ff1661288b5760405162461bcd60e51b815260206004820152602b60248201527f496e697469616c697a61626c653a20636f6e7472616374206973206e6f74206960448201526a6e697469616c697a696e6760a81b606482015260840161062e565b565b60008080805b84518110156128e05760008582815181106128b0576128b0613c1b565b602002602001015160e001519050808410156128cd578093508192505b50806128d881613bd4565b915050612893565b508381815181106128f3576128f3613c1b565b602002602001015160a0015184828151811061291157612911613c1b565b6020026020010151606001818152505083818151811061293357612933613c1b565b602002602001015160c0015184828151811061295157612951613c1b565b6020026020010151608001818152505083818151811061297357612973613c1b565b6020026020010151604001805180919061298c90613bd4565b9052509392505050565b6129a0828261178f565b61088a576129b8816001600160a01b03166014612b8d565b6129c3836020612b8d565b6040516020016129d49291906137f6565b60408051601f198184030181529082905262461bcd60e51b825261062e9160040161396d565b6001600160a01b0381163b612a675760405162461bcd60e51b815260206004820152602d60248201527f455243313936373a206e657720696d706c656d656e746174696f6e206973206e60448201526c1bdd08184818dbdb9d1c9858dd609a1b606482015260840161062e565b600080516020613c6883398151915280546001600160a01b0319166001600160a01b0392909216919091179055565b612a9f83612d28565b600082511180612aac5750805b1561080b576127ea8383612d68565b6000612b10826040518060400160405280602081526020017f5361666545524332303a206c6f772d6c6576656c2063616c6c206661696c6564815250856001600160a01b0316612e539092919063ffffffff16565b80519091501561080b5780806020019051810190612b2e919061355a565b61080b5760405162461bcd60e51b815260206004820152602a60248201527f5361666545524332303a204552433230206f7065726174696f6e20646964206e6044820152691bdd081cdd58d8d9595960b21b606482015260840161062e565b60606000612b9c836002613b26565b612ba7906002613aec565b6001600160401b03811115612bbe57612bbe613c31565b6040519080825280601f01601f191660200182016040528015612be8576020820181803683370190505b509050600360fc1b81600081518110612c0357612c03613c1b565b60200101906001600160f81b031916908160001a905350600f60fb1b81600181518110612c3257612c32613c1b565b60200101906001600160f81b031916908160001a9053506000612c56846002613b26565b612c61906001613aec565b90505b6001811115612cd9576f181899199a1a9b1b9c1cb0b131b232b360811b85600f1660108110612c9557612c95613c1b565b1a60f81b828281518110612cab57612cab613c1b565b60200101906001600160f81b031916908160001a90535060049490941c93612cd281613b88565b9050612c64565b5083156117885760405162461bcd60e51b815260206004820181905260248201527f537472696e67733a20686578206c656e67746820696e73756666696369656e74604482015260640161062e565b612d31816129fa565b6040516001600160a01b038216907fbc7cd75a20ee27fd9adebab32041f755214dbc6bffa90cc0225b39da2e5c2d3b90600090a250565b60606001600160a01b0383163b612dd05760405162461bcd60e51b815260206004820152602660248201527f416464726573733a2064656c65676174652063616c6c20746f206e6f6e2d636f6044820152651b9d1c9858dd60d21b606482015260840161062e565b600080846001600160a01b031684604051612deb91906137ca565b600060405180830381855af49150503d8060008114612e26576040519150601f19603f3d011682016040523d82523d6000602084013e612e2b565b606091505b5091509150611a7b8282604051806060016040528060278152602001613c8860279139612e6a565b6060612e628484600085612ea3565b949350505050565b60608315612e79575081611788565b825115612e895782518084602001fd5b8160405162461bcd60e51b815260040161062e919061396d565b606082471015612f045760405162461bcd60e51b815260206004820152602660248201527f416464726573733a20696e73756666696369656e742062616c616e636520666f6044820152651c8818d85b1b60d21b606482015260840161062e565b6001600160a01b0385163b612f5b5760405162461bcd60e51b815260206004820152601d60248201527f416464726573733a2063616c6c20746f206e6f6e2d636f6e7472616374000000604482015260640161062e565b600080866001600160a01b03168587604051612f7791906137ca565b60006040518083038185875af1925050503d8060008114612fb4576040519150601f19603f3d011682016040523d82523d6000602084013e612fb9565b606091505b5091509150611248828286612e6a565b828054612fd590613b9f565b90600052602060002090601f016020900481019282612ff7576000855561303d565b82601f106130105782800160ff1982351617855561303d565b8280016001018555821561303d579182015b8281111561303d578235825591602001919060010190613022565b50613049929150613172565b5090565b82805461305990613b9f565b90600052602060002090601f01602090048101928261307b576000855561303d565b82601f1061309457805160ff191683800117855561303d565b8280016001018555821561303d579182015b8281111561303d5782518255916020019190600101906130a6565b8280546130cd90613b9f565b90600052602060002090601f0160209004810192826130ef576000855561303d565b82601f10613100578054855561303d565b8280016001018555821561303d57600052602060002091601f016020900482015b8281111561303d578254825591600101919060010190613121565b50805461314890613b9f565b6000825580601f10613158575050565b601f01602090049060005260206000209081019061096b91905b5b808211156130495760008155600101613173565b60006001600160401b038311156131a0576131a0613c31565b6131b3601f8401601f1916602001613abc565b90508281528383830111156131c757600080fd5b828260208301376000602084830101529392505050565b80356001600160a01b03811681146131f557600080fd5b919050565b600082601f83011261320b57600080fd5b813560206001600160401b0382111561322657613226613c31565b613234818360051b01613abc565b8281528181019085830160c08086028801850189101561325357600080fd5b6000805b878110156132d75782848c03121561326d578182fd5b613275613a94565b61327e856131de565b815261328b8886016131de565b81890152604085810135908201526060808601359082015260806132b08187016131de565b9082015260a06132c18682016131de565b9082015286529486019492820192600101613257565b50929998505050505050505050565b60008083601f8401126132f857600080fd5b5081356001600160401b0381111561330f57600080fd5b60208301915083602082850101111561332757600080fd5b9250929050565b600060a0828403121561334057600080fd5b50919050565b60006020828403121561335857600080fd5b611788826131de565b6000806040838503121561337457600080fd5b61337d836131de565b915061338b602084016131de565b90509250929050565b6000806000606084860312156133a957600080fd5b6133b2846131de565b92506133c0602085016131de565b91506133ce604085016131de565b90509250925092565b6000806000806000608086880312156133ef57600080fd5b6133f8866131de565b9450613406602087016131de565b9350613414604087016131de565b925060608601356001600160401b0381111561342f57600080fd5b61343b888289016132e6565b969995985093965092949392505050565b60008060006060848603121561346157600080fd5b61346a846131de565b9250613478602085016131de565b9150604084013590509250925092565b6000806040838503121561349b57600080fd5b6134a4836131de565b915060208301356001600160401b038111156134bf57600080fd5b8301601f810185136134d057600080fd5b6134df85823560208401613187565b9150509250929050565b600080600080600060a0868803121561350157600080fd5b61350a866131de565b94506020860135935061351f604087016131de565b92506060860135915060808601356001600160401b0381111561354157600080fd5b61354d888289016131fa565b9150509295509295909350565b60006020828403121561356c57600080fd5b8151801515811461178857600080fd5b60006020828403121561358e57600080fd5b5035919050565b6000602082840312156135a757600080fd5b5051919050565b600080604083850312156135c157600080fd5b8235915061338b602084016131de565b6000602082840312156135e357600080fd5b81356001600160e01b03198116811461178857600080fd5b6000806020838503121561360e57600080fd5b82356001600160401b0381111561362457600080fd5b613630858286016132e6565b90969095509350505050565b60008060006040848603121561365157600080fd5b83356001600160401b0381111561366757600080fd5b613673868287016132e6565b90945092506133ce9050602085016131de565b60006020828403121561369857600080fd5b81356001600160401b038111156136ae57600080fd5b8201601f810184136136bf57600080fd5b612e6284823560208401613187565b600060a082840312156136e057600080fd5b611788838361332e565b60008060c083850312156136fd57600080fd5b613707848461332e565b915060a08301356001600160401b0381111561372257600080fd5b6134df858286016131fa565b81835281816020850137506000828201602090810191909152601f909101601f19169091010190565b6000815180845261376f816020860160208601613b5c565b601f01601f19169290920160200192915050565b80516001600160a01b039081168352602080830151821690840152604080830151908401526060808301519084015260808083015182169084015260a09182015116910152565b600082516137dc818460208701613b5c565b9190910192915050565b8183823760009101908152919050565b7f416363657373436f6e74726f6c3a206163636f756e742000000000000000000081526000835161382e816017850160208801613b5c565b7001034b99036b4b9b9b4b733903937b6329607d1b601791840191820152835161385f816028840160208801613b5c565b01602801949350505050565b6001600160a01b03948516815292841660208401526040830191909152909116606082015260800190565b6001600160a01b0384168152604060208201819052600090611a7b908301848661372e565b6001600160a01b0383168152604060208201819052600090612e6290830184613757565b6020808252825182820181905260009190848201906040850190845b818110156139215761390e838551613783565b9284019260c092909201916001016138fb565b50909695505050505050565b602081526000612e6260208301848661372e565b60408152600061395560408301858761372e565b905060018060a01b0383166020830152949350505050565b6020815260006117886020830184613757565b6020808252602c908201527f46756e6374696f6e206d7573742062652063616c6c6564207468726f7567682060408201526b19195b1959d85d1958d85b1b60a21b606082015260800190565b6020808252602c908201527f46756e6374696f6e206d7573742062652063616c6c6564207468726f7567682060408201526b6163746976652070726f787960a01b606082015260800190565b60208082526017908201527f5265737472696374656420746f206f70657261746f7273000000000000000000604082015260600190565b60208082526018908201527f5a65726f2061646472657373206e6f7420616c6c6f7765640000000000000000604082015260600190565b60c081016105d68284613783565b60405160c081016001600160401b0381118282101715613ab657613ab6613c31565b60405290565b604051601f8201601f191681016001600160401b0381118282101715613ae457613ae4613c31565b604052919050565b60008219821115613aff57613aff613bef565b500190565b600082613b2157634e487b7160e01b600052601260045260246000fd5b500490565b6000816000190483118215151615613b4057613b40613bef565b500290565b600082821015613b5757613b57613bef565b500390565b60005b83811015613b77578181015183820152602001613b5f565b838111156127ea5750506000910152565b600081613b9757613b97613bef565b506000190190565b600181811c90821680613bb357607f821691505b6020821081141561334057634e487b7160e01b600052602260045260246000fd5b6000600019821415613be857613be8613bef565b5060010190565b634e487b7160e01b600052601160045260246000fd5b634e487b7160e01b600052603160045260246000fd5b634e487b7160e01b600052603260045260246000fd5b634e487b7160e01b600052604160045260246000fdfe523a704056dcd17bcf83bed8b68c59416dac1119be77755efe3bde0a64e46e0c360894a13ba1a3210667c828492db98dca3e2076cc3735a920a3ca505d382bbc416464726573733a206c6f772d6c6576656c2064656c65676174652063616c6c206661696c6564a2646970667358221220f356368ba7005d37a7eb518e0641cf647216c6338ad22924b6c2ead3b2c646a964736f6c63430008060033",
  "devdoc": {
    "kind": "dev",
    "methods": {
      "constructor": {
        "custom:oz-upgrades-unsafe-allow": "constructor"
      },
      "getRoleAdmin(bytes32)": {
        "details": "Returns the admin role that controls `role`. See {grantRole} and {revokeRole}. To change a role's admin, use {_setRoleAdmin}."
      },
      "grantRole(bytes32,address)": {
        "details": "Grants `role` to `account`. If `account` had not been already granted `role`, emits a {RoleGranted} event. Requirements: - the caller must have ``role``'s admin role. May emit a {RoleGranted} event."
      },
      "hasRole(bytes32,address)": {
        "details": "Returns `true` if `account` has been granted `role`."
      },
      "proxiableUUID()": {
        "details": "Implementation of the ERC1822 {proxiableUUID} function. This returns the storage slot used by the implementation. It is used to validate that the this implementation remains valid after an upgrade. IMPORTANT: A proxy pointing at a proxiable contract should not be considered proxiable itself, because this risks bricking a proxy that upgrades to it, by delegating to itself until out of gas. Thus it is critical that this function revert if invoked through a proxy. This is guaranteed by the `notDelegated` modifier."
      },
      "renounceRole(bytes32,address)": {
        "details": "Revokes `role` from the calling account. Roles are often managed via {grantRole} and {revokeRole}: this function's purpose is to provide a mechanism for accounts to lose their privileges if they are compromised (such as when a trusted device is misplaced). If the calling account had been revoked `role`, emits a {RoleRevoked} event. Requirements: - the caller must be `account`. May emit a {RoleRevoked} event."
      },
      "revokeRole(bytes32,address)": {
        "details": "Revokes `role` from `account`. If `account` had been granted `role`, emits a {RoleRevoked} event. Requirements: - the caller must have ``role``'s admin role. May emit a {RoleRevoked} event."
      },
      "supportsInterface(bytes4)": {
        "details": "See {IERC165-supportsInterface}."
      },
      "upgradeTo(address)": {
        "details": "Upgrade the implementation of the proxy to `newImplementation`. Calls {_authorizeUpgrade}. Emits an {Upgraded} event."
      },
      "upgradeToAndCall(address,bytes)": {
        "details": "Upgrade the implementation of the proxy to `newImplementation`, and subsequently execute the function call encoded in `data`. Calls {_authorizeUpgrade}. Emits an {Upgraded} event."
      }
    },
    "version": 1
  },
  "userdoc": {
    "kind": "user",
    "methods": {},
    "version": 1
  },
  "storageLayout": {
    "storage": [
      {
        "astId": 808,
        "contract": "contracts/Swapper.sol:Swapper",
        "label": "_initialized",
        "offset": 0,
        "slot": "0",
        "type": "t_uint8"
      },
      {
        "astId": 811,
        "contract": "contracts/Swapper.sol:Swapper",
        "label": "_initializing",
        "offset": 1,
        "slot": "0",
        "type": "t_bool"
      },
      {
        "astId": 1767,
        "contract": "contracts/Swapper.sol:Swapper",
        "label": "__gap",
        "offset": 0,
        "slot": "1",
        "type": "t_array(t_uint256)50_storage"
      },
      {
        "astId": 2097,
        "contract": "contracts/Swapper.sol:Swapper",
        "label": "__gap",
        "offset": 0,
        "slot": "51",
        "type": "t_array(t_uint256)50_storage"
      },
      {
        "astId": 39,
        "contract": "contracts/Swapper.sol:Swapper",
        "label": "_roles",
        "offset": 0,
        "slot": "101",
        "type": "t_mapping(t_bytes32,t_struct(RoleData)34_storage)"
      },
      {
        "astId": 338,
        "contract": "contracts/Swapper.sol:Swapper",
        "label": "__gap",
        "offset": 0,
        "slot": "102",
        "type": "t_array(t_uint256)49_storage"
      },
      {
        "astId": 790,
        "contract": "contracts/Swapper.sol:Swapper",
        "label": "__gap",
        "offset": 0,
        "slot": "151",
        "type": "t_array(t_uint256)50_storage"
      },
      {
        "astId": 1087,
        "contract": "contracts/Swapper.sol:Swapper",
        "label": "__gap",
        "offset": 0,
        "slot": "201",
        "type": "t_array(t_uint256)50_storage"
      },
      {
        "astId": 3033,
        "contract": "contracts/Swapper.sol:Swapper",
        "label": "swapPlaceInfos",
        "offset": 0,
        "slot": "251",
        "type": "t_mapping(t_address,t_mapping(t_address,t_array(t_struct(SwapPlaceInfo)2891_storage)dyn_storage))"
      },
      {
        "astId": 3037,
        "contract": "contracts/Swapper.sol:Swapper",
        "label": "swapPlaces",
        "offset": 0,
        "slot": "252",
        "type": "t_mapping(t_string_memory_ptr,t_address)"
      },
      {
        "astId": 3041,
        "contract": "contracts/Swapper.sol:Swapper",
        "label": "poolSwapPlaceTypes",
        "offset": 0,
        "slot": "253",
        "type": "t_mapping(t_address,t_string_storage)"
      }
    ],
    "types": {
      "t_address": {
        "encoding": "inplace",
        "label": "address",
        "numberOfBytes": "20"
      },
      "t_array(t_struct(SwapPlaceInfo)2891_storage)dyn_storage": {
        "base": "t_struct(SwapPlaceInfo)2891_storage",
        "encoding": "dynamic_array",
        "label": "struct ISwapper.SwapPlaceInfo[]",
        "numberOfBytes": "32"
      },
      "t_array(t_uint256)49_storage": {
        "base": "t_uint256",
        "encoding": "inplace",
        "label": "uint256[49]",
        "numberOfBytes": "1568"
      },
      "t_array(t_uint256)50_storage": {
        "base": "t_uint256",
        "encoding": "inplace",
        "label": "uint256[50]",
        "numberOfBytes": "1600"
      },
      "t_bool": {
        "encoding": "inplace",
        "label": "bool",
        "numberOfBytes": "1"
      },
      "t_bytes32": {
        "encoding": "inplace",
        "label": "bytes32",
        "numberOfBytes": "32"
      },
      "t_mapping(t_address,t_array(t_struct(SwapPlaceInfo)2891_storage)dyn_storage)": {
        "encoding": "mapping",
        "key": "t_address",
        "label": "mapping(address => struct ISwapper.SwapPlaceInfo[])",
        "numberOfBytes": "32",
        "value": "t_array(t_struct(SwapPlaceInfo)2891_storage)dyn_storage"
      },
      "t_mapping(t_address,t_bool)": {
        "encoding": "mapping",
        "key": "t_address",
        "label": "mapping(address => bool)",
        "numberOfBytes": "32",
        "value": "t_bool"
      },
      "t_mapping(t_address,t_mapping(t_address,t_array(t_struct(SwapPlaceInfo)2891_storage)dyn_storage))": {
        "encoding": "mapping",
        "key": "t_address",
        "label": "mapping(address => mapping(address => struct ISwapper.SwapPlaceInfo[]))",
        "numberOfBytes": "32",
        "value": "t_mapping(t_address,t_array(t_struct(SwapPlaceInfo)2891_storage)dyn_storage)"
      },
      "t_mapping(t_address,t_string_storage)": {
        "encoding": "mapping",
        "key": "t_address",
        "label": "mapping(address => string)",
        "numberOfBytes": "32",
        "value": "t_string_storage"
      },
      "t_mapping(t_bytes32,t_struct(RoleData)34_storage)": {
        "encoding": "mapping",
        "key": "t_bytes32",
        "label": "mapping(bytes32 => struct AccessControlUpgradeable.RoleData)",
        "numberOfBytes": "32",
        "value": "t_struct(RoleData)34_storage"
      },
      "t_mapping(t_string_memory_ptr,t_address)": {
        "encoding": "mapping",
        "key": "t_string_memory_ptr",
        "label": "mapping(string => address)",
        "numberOfBytes": "32",
        "value": "t_address"
      },
      "t_string_memory_ptr": {
        "encoding": "bytes",
        "label": "string",
        "numberOfBytes": "32"
      },
      "t_string_storage": {
        "encoding": "bytes",
        "label": "string",
        "numberOfBytes": "32"
      },
      "t_struct(RoleData)34_storage": {
        "encoding": "inplace",
        "label": "struct AccessControlUpgradeable.RoleData",
        "members": [
          {
            "astId": 31,
            "contract": "contracts/Swapper.sol:Swapper",
            "label": "members",
            "offset": 0,
            "slot": "0",
            "type": "t_mapping(t_address,t_bool)"
          },
          {
            "astId": 33,
            "contract": "contracts/Swapper.sol:Swapper",
            "label": "adminRole",
            "offset": 0,
            "slot": "1",
            "type": "t_bytes32"
          }
        ],
        "numberOfBytes": "64"
      },
      "t_struct(SwapPlaceInfo)2891_storage": {
        "encoding": "inplace",
        "label": "struct ISwapper.SwapPlaceInfo",
        "members": [
          {
            "astId": 2888,
            "contract": "contracts/Swapper.sol:Swapper",
            "label": "pool",
            "offset": 0,
            "slot": "0",
            "type": "t_address"
          },
          {
            "astId": 2890,
            "contract": "contracts/Swapper.sol:Swapper",
            "label": "swapPlaceType",
            "offset": 0,
            "slot": "1",
            "type": "t_string_storage"
          }
        ],
        "numberOfBytes": "64"
      },
      "t_uint256": {
        "encoding": "inplace",
        "label": "uint256",
        "numberOfBytes": "32"
      },
      "t_uint8": {
        "encoding": "inplace",
        "label": "uint8",
        "numberOfBytes": "1"
      }
    }
  }
}