{
  "address": "0x4ed7c70F96B99c776995fB64377f0d4aB3B0e1C1",
  "abi": [
    {
      "inputs": [],
      "stateMutability": "nonpayable",
      "type": "constructor"
    },
    {
      "anonymous": false,
      "inputs": [
        {
          "indexed": false,
          "internalType": "address",
          "name": "previousAdmin",
          "type": "address"
        },
        {
          "indexed": false,
          "internalType": "address",
          "name": "newAdmin",
          "type": "address"
        }
      ],
      "name": "AdminChanged",
      "type": "event"
    },
    {
      "anonymous": false,
      "inputs": [
        {
          "indexed": true,
          "internalType": "address",
          "name": "beacon",
          "type": "address"
        }
      ],
      "name": "BeaconUpgraded",
      "type": "event"
    },
    {
      "anonymous": false,
      "inputs": [
        {
          "indexed": false,
          "internalType": "uint8",
          "name": "version",
          "type": "uint8"
        }
      ],
      "name": "Initialized",
      "type": "event"
    },
    {
      "anonymous": false,
      "inputs": [
        {
          "indexed": false,
          "internalType": "address",
          "name": "value",
          "type": "address"
        }
      ],
      "name": "PortfolioManagerUpdated",
      "type": "event"
    },
    {
      "anonymous": false,
      "inputs": [
        {
          "indexed": false,
          "internalType": "uint256",
          "name": "amount",
          "type": "uint256"
        }
      ],
      "name": "Reward",
      "type": "event"
    },
    {
      "anonymous": false,
      "inputs": [
        {
          "indexed": true,
          "internalType": "bytes32",
          "name": "role",
          "type": "bytes32"
        },
        {
          "indexed": true,
          "internalType": "bytes32",
          "name": "previousAdminRole",
          "type": "bytes32"
        },
        {
          "indexed": true,
          "internalType": "bytes32",
          "name": "newAdminRole",
          "type": "bytes32"
        }
      ],
      "name": "RoleAdminChanged",
      "type": "event"
    },
    {
      "anonymous": false,
      "inputs": [
        {
          "indexed": true,
          "internalType": "bytes32",
          "name": "role",
          "type": "bytes32"
        },
        {
          "indexed": true,
          "internalType": "address",
          "name": "account",
          "type": "address"
        },
        {
          "indexed": true,
          "internalType": "address",
          "name": "sender",
          "type": "address"
        }
      ],
      "name": "RoleGranted",
      "type": "event"
    },
    {
      "anonymous": false,
      "inputs": [
        {
          "indexed": true,
          "internalType": "bytes32",
          "name": "role",
          "type": "bytes32"
        },
        {
          "indexed": true,
          "internalType": "address",
          "name": "account",
          "type": "address"
        },
        {
          "indexed": true,
          "internalType": "address",
          "name": "sender",
          "type": "address"
        }
      ],
      "name": "RoleRevoked",
      "type": "event"
    },
    {
      "anonymous": false,
      "inputs": [
        {
          "indexed": false,
          "internalType": "uint256",
          "name": "swapSlippageBP",
          "type": "uint256"
        },
        {
          "indexed": false,
          "internalType": "uint256",
          "name": "navSlippageBP",
          "type": "uint256"
        },
        {
          "indexed": false,
          "internalType": "uint256",
          "name": "stakeSlippageBP",
          "type": "uint256"
        }
      ],
      "name": "SlippagesUpdated",
      "type": "event"
    },
    {
      "anonymous": false,
      "inputs": [
        {
          "indexed": false,
          "internalType": "uint256",
          "name": "amount",
          "type": "uint256"
        }
      ],
      "name": "Stake",
      "type": "event"
    },
    {
      "anonymous": false,
      "inputs": [
        {
          "indexed": false,
          "internalType": "uint256",
          "name": "tokenId",
          "type": "uint256"
        }
      ],
      "name": "Staked",
      "type": "event"
    },
    {
      "anonymous": false,
      "inputs": [],
      "name": "StrategyUpdatedParams",
      "type": "event"
    },
    {
      "anonymous": false,
      "inputs": [
        {
          "indexed": false,
          "internalType": "string",
          "name": "message",
          "type": "string"
        }
      ],
      "name": "SwapErrorInternal",
      "type": "event"
    },
    {
      "anonymous": false,
      "inputs": [
        {
          "indexed": false,
          "internalType": "uint256",
          "name": "amount",
          "type": "uint256"
        },
        {
          "indexed": false,
          "internalType": "uint256",
          "name": "amountReceived",
          "type": "uint256"
        }
      ],
      "name": "Unstake",
      "type": "event"
    },
    {
      "anonymous": false,
      "inputs": [
        {
          "indexed": true,
          "internalType": "address",
          "name": "implementation",
          "type": "address"
        }
      ],
      "name": "Upgraded",
      "type": "event"
    },
    {
      "inputs": [],
      "name": "DEFAULT_ADMIN_ROLE",
      "outputs": [
        {
          "internalType": "bytes32",
          "name": "",
          "type": "bytes32"
        }
      ],
      "stateMutability": "view",
      "type": "function"
    },
    {
      "inputs": [],
      "name": "PORTFOLIO_AGENT_ROLE",
      "outputs": [
        {
          "internalType": "bytes32",
          "name": "",
          "type": "bytes32"
        }
      ],
      "stateMutability": "view",
      "type": "function"
    },
    {
      "inputs": [],
      "name": "PORTFOLIO_MANAGER",
      "outputs": [
        {
          "internalType": "bytes32",
          "name": "",
          "type": "bytes32"
        }
      ],
      "stateMutability": "view",
      "type": "function"
    },
    {
      "inputs": [],
      "name": "binSearchIterations",
      "outputs": [
        {
          "internalType": "uint256",
          "name": "",
          "type": "uint256"
        }
      ],
      "stateMutability": "view",
      "type": "function"
    },
    {
      "inputs": [
        {
          "internalType": "address",
          "name": "_to",
          "type": "address"
        }
      ],
      "name": "claimRewards",
      "outputs": [
        {
          "internalType": "uint256",
          "name": "",
          "type": "uint256"
        }
      ],
      "stateMutability": "nonpayable",
      "type": "function"
    },
    {
      "inputs": [
        {
          "internalType": "bytes32",
          "name": "role",
          "type": "bytes32"
        }
      ],
      "name": "getRoleAdmin",
      "outputs": [
        {
          "internalType": "bytes32",
          "name": "",
          "type": "bytes32"
        }
      ],
      "stateMutability": "view",
      "type": "function"
    },
    {
      "inputs": [
        {
          "internalType": "bytes32",
          "name": "role",
          "type": "bytes32"
        },
        {
          "internalType": "address",
          "name": "account",
          "type": "address"
        }
      ],
      "name": "grantRole",
      "outputs": [],
      "stateMutability": "nonpayable",
      "type": "function"
    },
    {
      "inputs": [
        {
          "internalType": "bytes32",
          "name": "role",
          "type": "bytes32"
        },
        {
          "internalType": "address",
          "name": "account",
          "type": "address"
        }
      ],
      "name": "hasRole",
      "outputs": [
        {
          "internalType": "bool",
          "name": "",
          "type": "bool"
        }
      ],
      "stateMutability": "view",
      "type": "function"
    },
    {
      "inputs": [],
      "name": "hyper",
      "outputs": [
        {
          "internalType": "contract IERC20",
          "name": "",
          "type": "address"
        }
      ],
      "stateMutability": "view",
      "type": "function"
    },
    {
      "inputs": [],
      "name": "initialize",
      "outputs": [],
      "stateMutability": "nonpayable",
      "type": "function"
    },
    {
      "inputs": [],
      "name": "liquidationValue",
      "outputs": [
        {
          "internalType": "uint256",
          "name": "",
          "type": "uint256"
        }
      ],
      "stateMutability": "view",
      "type": "function"
    },
    {
      "inputs": [],
      "name": "name",
      "outputs": [
        {
          "internalType": "string",
          "name": "",
          "type": "string"
        }
      ],
      "stateMutability": "view",
      "type": "function"
    },
    {
      "inputs": [],
      "name": "navSlippageBP",
      "outputs": [
        {
          "internalType": "uint256",
          "name": "",
          "type": "uint256"
        }
      ],
      "stateMutability": "view",
      "type": "function"
    },
    {
      "inputs": [],
      "name": "netAssetValue",
      "outputs": [
        {
          "internalType": "uint256",
          "name": "",
          "type": "uint256"
        }
      ],
      "stateMutability": "view",
      "type": "function"
    },
    {
      "inputs": [],
      "name": "nfpBooster",
      "outputs": [
        {
          "internalType": "contract INFPBooster",
          "name": "",
          "type": "address"
        }
      ],
      "stateMutability": "view",
      "type": "function"
    },
    {
      "inputs": [],
      "name": "npm",
      "outputs": [
        {
          "internalType": "contract INonfungiblePositionManager",
          "name": "",
          "type": "address"
        }
      ],
      "stateMutability": "view",
      "type": "function"
    },
    {
      "inputs": [
        {
          "internalType": "address",
          "name": "",
          "type": "address"
        },
        {
          "internalType": "address",
          "name": "",
          "type": "address"
        },
        {
          "internalType": "uint256",
          "name": "",
          "type": "uint256"
        },
        {
          "internalType": "bytes",
          "name": "",
          "type": "bytes"
        }
      ],
      "name": "onERC721Received",
      "outputs": [
        {
          "internalType": "bytes4",
          "name": "",
          "type": "bytes4"
        }
      ],
      "stateMutability": "pure",
      "type": "function"
    },
    {
      "inputs": [],
      "name": "pool",
      "outputs": [
        {
          "internalType": "contract ICLPool",
          "name": "",
          "type": "address"
        }
      ],
      "stateMutability": "view",
      "type": "function"
    },
    {
      "inputs": [],
      "name": "portfolioManager",
      "outputs": [
        {
          "internalType": "address",
          "name": "",
          "type": "address"
        }
      ],
      "stateMutability": "view",
      "type": "function"
    },
    {
      "inputs": [],
      "name": "proxiableUUID",
      "outputs": [
        {
          "internalType": "bytes32",
          "name": "",
          "type": "bytes32"
        }
      ],
      "stateMutability": "view",
      "type": "function"
    },
    {
      "inputs": [
        {
          "internalType": "bytes32",
          "name": "role",
          "type": "bytes32"
        },
        {
          "internalType": "address",
          "name": "account",
          "type": "address"
        }
      ],
      "name": "renounceRole",
      "outputs": [],
      "stateMutability": "nonpayable",
      "type": "function"
    },
    {
      "inputs": [
        {
          "internalType": "bytes32",
          "name": "role",
          "type": "bytes32"
        },
        {
          "internalType": "address",
          "name": "account",
          "type": "address"
        }
      ],
      "name": "revokeRole",
      "outputs": [],
      "stateMutability": "nonpayable",
      "type": "function"
    },
    {
      "inputs": [],
      "name": "roleManager",
      "outputs": [
        {
          "internalType": "contract IRoleManager",
          "name": "",
          "type": "address"
        }
      ],
      "stateMutability": "view",
      "type": "function"
    },
    {
      "inputs": [
        {
          "components": [
            {
              "internalType": "address",
              "name": "pool",
              "type": "address"
            },
            {
              "internalType": "int24[]",
              "name": "tickRange",
              "type": "int24[]"
            },
            {
              "internalType": "uint256",
              "name": "binSearchIterations",
              "type": "uint256"
            },
            {
              "internalType": "address",
              "name": "swapSimulatorAddress",
              "type": "address"
            },
            {
              "internalType": "address",
              "name": "npmAddress",
              "type": "address"
            },
            {
              "internalType": "address",
              "name": "hyperTokenAddress",
              "type": "address"
            },
            {
              "internalType": "address",
              "name": "thrustTokenAddress",
              "type": "address"
            },
            {
              "internalType": "address",
              "name": "wethTokenAddress",
              "type": "address"
            },
            {
              "internalType": "address",
              "name": "poolUsdbWeth",
              "type": "address"
            },
            {
              "internalType": "address",
              "name": "poolWethHyper",
              "type": "address"
            },
            {
              "internalType": "address",
              "name": "poolWethThrust",
              "type": "address"
            },
            {
              "internalType": "uint256",
              "name": "rewardSwapSlippageBP",
              "type": "uint256"
            },
            {
              "internalType": "address",
              "name": "nfpBooster",
              "type": "address"
            }
          ],
          "internalType": "struct StrategyThrusterSwap.StrategyParams",
          "name": "params",
          "type": "tuple"
        }
      ],
      "name": "setParams",
      "outputs": [],
      "stateMutability": "nonpayable",
      "type": "function"
    },
    {
      "inputs": [
        {
          "internalType": "uint256",
          "name": "_swapSlippageBP",
          "type": "uint256"
        },
        {
          "internalType": "uint256",
          "name": "_navSlippageBP",
          "type": "uint256"
        },
        {
          "internalType": "uint256",
          "name": "_stakeSlippageBP",
          "type": "uint256"
        }
      ],
      "name": "setSlippages",
      "outputs": [],
      "stateMutability": "nonpayable",
      "type": "function"
    },
    {
      "inputs": [
        {
          "internalType": "address",
          "name": "_portfolioManager",
          "type": "address"
        },
        {
          "internalType": "address",
          "name": "_roleManager",
          "type": "address"
        },
        {
          "internalType": "string",
          "name": "_name",
          "type": "string"
        }
      ],
      "name": "setStrategyParams",
      "outputs": [],
      "stateMutability": "nonpayable",
      "type": "function"
    },
    {
      "inputs": [
        {
          "internalType": "address",
          "name": "_asset",
          "type": "address"
        },
        {
          "internalType": "uint256",
          "name": "_amount",
          "type": "uint256"
        }
      ],
      "name": "stake",
      "outputs": [],
      "stateMutability": "nonpayable",
      "type": "function"
    },
    {
      "inputs": [],
      "name": "stakeSlippageBP",
      "outputs": [
        {
          "internalType": "uint256",
          "name": "",
          "type": "uint256"
        }
      ],
      "stateMutability": "view",
      "type": "function"
    },
    {
      "inputs": [
        {
          "internalType": "bytes4",
          "name": "interfaceId",
          "type": "bytes4"
        }
      ],
      "name": "supportsInterface",
      "outputs": [
        {
          "internalType": "bool",
          "name": "",
          "type": "bool"
        }
      ],
      "stateMutability": "view",
      "type": "function"
    },
    {
      "inputs": [],
      "name": "swapSimulator",
      "outputs": [
        {
          "internalType": "contract ISwapSimulator",
          "name": "",
          "type": "address"
        }
      ],
      "stateMutability": "view",
      "type": "function"
    },
    {
      "inputs": [],
      "name": "swapSlippageBP",
      "outputs": [
        {
          "internalType": "uint256",
          "name": "",
          "type": "uint256"
        }
      ],
      "stateMutability": "view",
      "type": "function"
    },
    {
      "inputs": [],
      "name": "thrust",
      "outputs": [
        {
          "internalType": "contract IERC20",
          "name": "",
          "type": "address"
        }
      ],
      "stateMutability": "view",
      "type": "function"
    },
    {
      "inputs": [
        {
          "internalType": "uint256",
          "name": "",
          "type": "uint256"
        }
      ],
      "name": "tickRange",
      "outputs": [
        {
          "internalType": "int24",
          "name": "",
          "type": "int24"
        }
      ],
      "stateMutability": "view",
      "type": "function"
    },
    {
      "inputs": [],
      "name": "tokenLP",
      "outputs": [
        {
          "internalType": "uint256",
          "name": "",
          "type": "uint256"
        }
      ],
      "stateMutability": "view",
      "type": "function"
    },
    {
      "inputs": [
        {
          "internalType": "address",
          "name": "_asset",
          "type": "address"
        },
        {
          "internalType": "uint256",
          "name": "_amount",
          "type": "uint256"
        },
        {
          "internalType": "address",
          "name": "_beneficiary",
          "type": "address"
        },
        {
          "internalType": "bool",
          "name": "_targetIsZero",
          "type": "bool"
        }
      ],
      "name": "unstake",
      "outputs": [
        {
          "internalType": "uint256",
          "name": "",
          "type": "uint256"
        }
      ],
      "stateMutability": "nonpayable",
      "type": "function"
    },
    {
      "inputs": [
        {
          "internalType": "address",
          "name": "newImplementation",
          "type": "address"
        }
      ],
      "name": "upgradeTo",
      "outputs": [],
      "stateMutability": "nonpayable",
      "type": "function"
    },
    {
      "inputs": [
        {
          "internalType": "address",
          "name": "newImplementation",
          "type": "address"
        },
        {
          "internalType": "bytes",
          "name": "data",
          "type": "bytes"
        }
      ],
      "name": "upgradeToAndCall",
      "outputs": [],
      "stateMutability": "payable",
      "type": "function"
    },
    {
      "inputs": [],
      "name": "usdPlus",
      "outputs": [
        {
          "internalType": "contract IERC20",
          "name": "",
          "type": "address"
        }
      ],
      "stateMutability": "view",
      "type": "function"
    },
    {
      "inputs": [],
      "name": "usdb",
      "outputs": [
        {
          "internalType": "contract IERC20",
          "name": "",
          "type": "address"
        }
      ],
      "stateMutability": "view",
      "type": "function"
    },
    {
      "inputs": [],
      "name": "weth",
      "outputs": [
        {
          "internalType": "contract IERC20",
          "name": "",
          "type": "address"
        }
      ],
      "stateMutability": "view",
      "type": "function"
    }
  ],
  "numDeployments": 1,
  "solcInputHash": "42f434b9400e9d299993f971450e1175",
  "bytecode": "0x60a0604052306080523480156200001557600080fd5b50600054610100900460ff1615808015620000375750600054600160ff909116105b8062000067575062000054306200014160201b620016831760201c565b15801562000067575060005460ff166001145b620000cf5760405162461bcd60e51b815260206004820152602e60248201527f496e697469616c697a61626c653a20636f6e747261637420697320616c72656160448201526d191e481a5b9a5d1a585b1a5e995960921b606482015260840160405180910390fd5b6000805460ff191660011790558015620000f3576000805461ff0019166101001790555b80156200013a576000805461ff0019169055604051600181527f7f26b83ff96e1f2b6a682f133852f6798a09c465da95921460cefb38474024989060200160405180910390a15b5062000150565b6001600160a01b03163b151590565b608051615a7e620001886000396000818161092a0152818161096a015281816109f201528181610a320152610aaa0152615a7e6000f3fe6080604052600436106102395760003560e01c80635ca558f81161012e578063a3673b38116100ab578063d547741f1161006f578063d547741f146106c5578063ef5cfb8c146106e5578063f6f6b88114610705578063fa2ae9ff14610725578063fcb777ef1461074557600080fd5b8063a3673b38146103d4578063adc9772e1461064e578063ae30c1101461066e578063bf52e0801461068e578063cd5a62be146106a457600080fd5b80637d5f5802116100f25780637d5f5802146105af5780637f1e9ef6146105e35780638129fc1c1461060457806391d1485414610619578063a217fddf1461063957600080fd5b80635ca558f8146105045780635dbd733a1461051a578063620b75df1461054e5780636bd0a9831461056e5780637be6ef8d1461058f57600080fd5b806328ffce26116101bc578063477e86be11610180578063477e86be146104835780634f1ef286146104a4578063514e460a146104b757806352d1902d146104d85780635536fc70146104ed57600080fd5b806328ffce26146103e95780632f2ff15d1461040057806336568abe146104225780633659cfe6146104425780633fc8cef31461046257600080fd5b8063119cd87911610203578063119cd8791461031a578063150b7a021461033e57806316f0115b14610383578063248a9ca3146103a45780632576e65a146103d457600080fd5b8062435da51461023e5780626f7d001461027457806301ffc9a71461029557806306fdde03146102c55780630bfc8055146102e7575b600080fd5b34801561024a57600080fd5b5060ff5461025e906001600160a01b031681565b60405161026b919061493b565b60405180910390f35b34801561028057600080fd5b5061012d5461025e906001600160a01b031681565b3480156102a157600080fd5b506102b56102b036600461494f565b610766565b604051901515815260200161026b565b3480156102d157600080fd5b506102da61079d565b60405161026b919061499d565b3480156102f357600080fd5b506103076103023660046149d0565b61082c565b60405160029190910b815260200161026b565b34801561032657600080fd5b5061033060fd5481565b60405190815260200161026b565b34801561034a57600080fd5b5061036a6103593660046149fe565b630a85bd0160e11b95945050505050565b6040516001600160e01b0319909116815260200161026b565b34801561038f57600080fd5b506101385461025e906001600160a01b031681565b3480156103b057600080fd5b506103306103bf3660046149d0565b60009081526065602052604090206001015490565b3480156103e057600080fd5b50610330610864565b3480156103f557600080fd5b506103306101335481565b34801561040c57600080fd5b5061042061041b366004614a9c565b610873565b005b34801561042e57600080fd5b5061042061043d366004614a9c565b61089d565b34801561044e57600080fd5b5061042061045d366004614acc565b610920565b34801561046e57600080fd5b506101315461025e906001600160a01b031681565b34801561048f57600080fd5b506101305461025e906001600160a01b031681565b6104206104b2366004614b88565b6109e8565b3480156104c357600080fd5b5061012e5461025e906001600160a01b031681565b3480156104e457600080fd5b50610330610a9d565b3480156104f957600080fd5b5061033061013c5481565b34801561051057600080fd5b5061033060fe5481565b34801561052657600080fd5b506103307fd67ad422505496469a1adf6cdf9e5ee92ac5d33992843c9ecc4b2f6d6cde913781565b34801561055a57600080fd5b5060fb5461025e906001600160a01b031681565b34801561057a57600080fd5b5061013b5461025e906001600160a01b031681565b34801561059b57600080fd5b506104206105aa366004614beb565b610b4c565b3480156105bb57600080fd5b506103307f90c2aa7471c04182221f68e80c07ab1e5946e4c63f8693e14ca40385d529f05181565b3480156105ef57600080fd5b506101395461025e906001600160a01b031681565b34801561061057600080fd5b50610420610ec0565b34801561062557600080fd5b506102b5610634366004614a9c565b610f91565b34801561064557600080fd5b50610330600081565b34801561065a57600080fd5b50610420610669366004614c26565b610fbc565b34801561067a57600080fd5b50610420610689366004614c52565b611187565b34801561069a57600080fd5b5061033060fc5481565b3480156106b057600080fd5b5061012f5461025e906001600160a01b031681565b3480156106d157600080fd5b506104206106e0366004614a9c565b6112b3565b3480156106f157600080fd5b50610330610700366004614acc565b6112d8565b34801561071157600080fd5b50610330610720366004614c8c565b611354565b34801561073157600080fd5b50610420610740366004614cdf565b6115cd565b34801561075157600080fd5b5061013a5461025e906001600160a01b031681565b60006001600160e01b03198216637965db0b60e01b148061079757506301ffc9a760e01b6001600160e01b03198316145b92915050565b61010080546107ab90614d54565b80601f01602080910402602001604051908101604052809291908181526020018280546107d790614d54565b80156108245780601f106107f957610100808354040283529160200191610824565b820191906000526020600020905b81548152906001019060200180831161080757829003601f168201915b505050505081565b610132818154811061083d57600080fd5b90600052602060002090600a9182820401919006600302915054906101000a900460020b81565b600061086e611692565b905090565b60008281526065602052604090206001015461088e81611911565b610898838361191b565b505050565b6001600160a01b03811633146109125760405162461bcd60e51b815260206004820152602f60248201527f416363657373436f6e74726f6c3a2063616e206f6e6c792072656e6f756e636560448201526e103937b632b9903337b91039b2b63360891b60648201526084015b60405180910390fd5b61091c82826119a1565b5050565b6001600160a01b037f00000000000000000000000000000000000000000000000000000000000000001630036109685760405162461bcd60e51b815260040161090990614d8e565b7f00000000000000000000000000000000000000000000000000000000000000006001600160a01b031661099a611a08565b6001600160a01b0316146109c05760405162461bcd60e51b815260040161090990614dda565b6109c981611a24565b604080516000808252602082019092526109e591839190611a2f565b50565b6001600160a01b037f0000000000000000000000000000000000000000000000000000000000000000163003610a305760405162461bcd60e51b815260040161090990614d8e565b7f00000000000000000000000000000000000000000000000000000000000000006001600160a01b0316610a62611a08565b6001600160a01b031614610a885760405162461bcd60e51b815260040161090990614dda565b610a9182611a24565b61091c82826001611a2f565b6000306001600160a01b037f00000000000000000000000000000000000000000000000000000000000000001614610b385760405162461bcd60e51b815260206004820152603860248201527f555550535570677261646561626c653a206d757374206e6f742062652063616c6044820152771b1959081d1a1c9bdd59da0819195b1959d85d1958d85b1b60421b6064820152608401610909565b50600080516020615a028339815191525b90565b610b57600033610f91565b610b735760405162461bcd60e51b815260040161090990614e26565b610b806020820182614acc565b61013880546001600160a01b0319166001600160a01b0392909216918217905560408051630dfe168160e01b81529051630dfe1681916004808201926020929091908290030181865afa158015610bdb573d6000803e3d6000fd5b505050506040513d601f19601f82011682018060405250810190610bff9190614e5f565b61012d80546001600160a01b0319166001600160a01b03928316179055610138546040805163d21220a760e01b81529051919092169163d21220a79160048083019260209291908290030181865afa158015610c5f573d6000803e3d6000fd5b505050506040513d601f19601f82011682018060405250810190610c839190614e5f565b61012e80546001600160a01b0319166001600160a01b0392909216919091179055610cb16020820182614e7c565b610cbe916101329161487b565b50604081013561013355610cd86080820160608301614acc565b61013a80546001600160a01b0319166001600160a01b0392909216919091179055610d0960a0820160808301614acc565b61013980546001600160a01b0319166001600160a01b0392909216919091179055610d3c6101a082016101808301614acc565b61013b80546001600160a01b0319166001600160a01b0392909216919091179055610d6d60c0820160a08301614acc565b61012f80546001600160a01b0319166001600160a01b0392909216919091179055610d9e60e0820160c08301614acc565b61013080546001600160a01b0319166001600160a01b0392909216919091179055610dd0610100820160e08301614acc565b61013180546001600160a01b0319166001600160a01b0392909216919091179055610e0361012082016101008301614acc565b61013480546001600160a01b0319166001600160a01b0392909216919091179055610e3661014082016101208301614acc565b61013580546001600160a01b0319166001600160a01b0392909216919091179055610e6961016082016101408301614acc565b61013680546001600160a01b0319166001600160a01b0392909216919091179055610160810135610137556040517fea5646eb3528e525944447a4a97de700dd472298626e5c0481d1c82c3da86ea590600090a150565b600054610100900460ff1615808015610ee05750600054600160ff909116105b80610f015750610eef30611683565b158015610f01575060005460ff166001145b610f1d5760405162461bcd60e51b815260040161090990614ecc565b6000805460ff191660011790558015610f40576000805461ff0019166101001790555b610f48611b9a565b80156109e5576000805461ff0019169055604051600181527f7f26b83ff96e1f2b6a682f133852f6798a09c465da95921460cefb3847402498906020015b60405180910390a150565b60009182526065602090815260408084206001600160a01b0393909316845291905290205460ff1690565b60fb546001600160a01b03163314610fe65760405162461bcd60e51b815260040161090990614f1a565b6000611055306001600160a01b031663a3673b386040518163ffffffff1660e01b8152600401602060405180830381865afa158015611029573d6000803e3d6000fd5b505050506040513d601f19601f8201168201806040525081019061104d9190614f51565b60fd54611c86565b90506110cd83846001600160a01b03166370a08231306040518263ffffffff1660e01b8152600401611087919061493b565b602060405180830381865afa1580156110a4573d6000803e3d6000fd5b505050506040513d601f19601f820116820180604052508101906110c89190614f51565b611cb0565b80306001600160a01b031663a3673b386040518163ffffffff1660e01b8152600401602060405180830381865afa15801561110c573d6000803e3d6000fd5b505050506040513d601f19601f820116820180604052508101906111309190614f51565b101561114e5760405162461bcd60e51b815260040161090990614f6a565b6040518281527f227a473b70d2f893cc7659219575c030a63b5743024fe1e0c1a680e708b1525a906020015b60405180910390a1505050565b60ff54604051632474521560e21b81526001600160a01b03909116906391d14854906111d9907fd67ad422505496469a1adf6cdf9e5ee92ac5d33992843c9ecc4b2f6d6cde9137903390600401614fa1565b602060405180830381865afa1580156111f6573d6000803e3d6000fd5b505050506040513d601f19601f8201168201806040525081019061121a9190614fb8565b6112665760405162461bcd60e51b815260206004820152601d60248201527f5265737472696374656420746f20506f7274666f6c696f204167656e740000006044820152606401610909565b60fc83905560fd82905560fe81905560408051848152602081018490529081018290527f116fbf1e97a2be629ad98abfb6c332733c8996c2dfb174dd2efe8440df381d1a9060600161117a565b6000828152606560205260409020600101546112ce81611911565b61089883836119a1565b60fb546000906001600160a01b031633146113055760405162461bcd60e51b815260040161090990614f1a565b600061131083611da0565b9050801561134c576040518181527f3ac0594a85a20354f9dc74f33728416d19ce00d04a406c108cc2dcf2cecea1349060200160405180910390a15b90505b919050565b60fb546000906001600160a01b031633146113815760405162461bcd60e51b815260040161090990614f1a565b60006113c4306001600160a01b031663a3673b386040518163ffffffff1660e01b8152600401602060405180830381865afa158015611029573d6000803e3d6000fd5b905060008084156113eb576113d886611da0565b90506113e4888761277e565b915061145a565b6113f68888886127f8565b91508682101561145a5760405162461bcd60e51b815260206004820152602960248201527f52657475726e65642076616c7565206c657373207468616e2072657175657374604482015268195908185b5bdd5b9d60ba1b6064820152608401610909565b82306001600160a01b031663a3673b386040518163ffffffff1660e01b8152600401602060405180830381865afa158015611499573d6000803e3d6000fd5b505050506040513d601f19601f820116820180604052508101906114bd9190614f51565b10156114db5760405162461bcd60e51b815260040161090990614f6a565b60405163a9059cbb60e01b81526001600160a01b0389169063a9059cbb906115099089908690600401614fd5565b6020604051808303816000875af1158015611528573d6000803e3d6000fd5b505050506040513d601f19601f8201168201806040525081019061154c9190614fb8565b5060408051888152602081018490527f9045c2ac9b2026de8075f2701bbdde882cd5e830b3b1ead9a15b22f2b5b93742910160405180910390a180156115c0576040518181527f3ac0594a85a20354f9dc74f33728416d19ce00d04a406c108cc2dcf2cecea1349060200160405180910390a15b509150505b949350505050565b6115d8600033610f91565b6115f45760405162461bcd60e51b815260040161090990614e26565b6001600160a01b03831661161a5760405162461bcd60e51b815260040161090990614fee565b6001600160a01b0382166116405760405162461bcd60e51b815260040161090990614fee565b60fb80546001600160a01b038086166001600160a01b03199283161790925560ff80549285169290911691909117905561010061167d8282615066565b50505050565b6001600160a01b03163b151590565b61013c54600090819081901561180e576101385460408051633850c7bd60e01b815290516000926001600160a01b031691633850c7bd9160048083019260e09291908290030181865afa1580156116ed573d6000803e3d6000fd5b505050506040513d601f19601f820116820180604052508101906117119190615149565b50506101395461013c5460405163133f757160e31b81529697506000966001600160a01b0390921695506399fbab8894506117559350915060040190815260200190565b61018060405180830381865afa158015611773573d6000803e3d6000fd5b505050506040513d601f19601f8201168201806040525081019061179791906151f5565b50505050975050505050505050611806826117e86101326000815481106117c0576117c06152d6565b90600052602060002090600a91828204019190066003029054906101000a900460020b6128cb565b6118006101326001815481106117c0576117c06152d6565b84612c96565b909450925050505b61012e546040516370a0823160e01b81526000916001600160a01b0316906370a082319061184090309060040161493b565b602060405180830381865afa15801561185d573d6000803e3d6000fd5b505050506040513d601f19601f820116820180604052508101906118819190614f51565b61012d546040516370a0823160e01b81526001600160a01b03909116906370a08231906118b290309060040161493b565b602060405180830381865afa1580156118cf573d6000803e3d6000fd5b505050506040513d601f19601f820116820180604052508101906118f39190614f51565b6118fd8486615302565b6119079190615302565b6115c59190615302565b6109e58133612d32565b6119258282610f91565b61091c5760008281526065602090815260408083206001600160a01b03851684529091529020805460ff1916600117905561195d3390565b6001600160a01b0316816001600160a01b0316837f2f8788117e7eff1d82e926ec794901d17c78024a50270940304540a733656f0d60405160405180910390a45050565b6119ab8282610f91565b1561091c5760008281526065602090815260408083206001600160a01b0385168085529252808320805460ff1916905551339285917ff6391f5c32d9c69d2a47ea670b442974b53935d1edc7fd64eb21e047a839171b9190a45050565b600080516020615a02833981519152546001600160a01b031690565b600061091c81611911565b7f4910fdfa16fed3260ed0e7147f7cc6da11a60208b5b9406d12a635614ffd91435460ff1615611a625761089883612d8b565b826001600160a01b03166352d1902d6040518163ffffffff1660e01b8152600401602060405180830381865afa925050508015611abc575060408051601f3d908101601f19168201909252611ab991810190614f51565b60015b611b1f5760405162461bcd60e51b815260206004820152602e60248201527f45524331393637557067726164653a206e657720696d706c656d656e7461746960448201526d6f6e206973206e6f74205555505360901b6064820152608401610909565b600080516020615a028339815191528114611b8e5760405162461bcd60e51b815260206004820152602960248201527f45524331393637557067726164653a20756e737570706f727465642070726f786044820152681a58589b195555525160ba1b6064820152608401610909565b50610898838383612e25565b600054610100900460ff1615808015611bba5750600054600160ff909116105b80611bdb5750611bc930611683565b158015611bdb575060005460ff166001145b611bf75760405162461bcd60e51b815260040161090990614ecc565b6000805460ff191660011790558015611c1a576000805461ff0019166101001790555b611c22612e4a565b611c2a612e4a565b611c3560003361191b565b601460fc81905560fd55600460fe5580156109e5576000805461ff0019169055604051600181527f7f26b83ff96e1f2b6a682f133852f6798a09c465da95921460cefb384740249890602001610f86565b6000612710611c958382615315565b611c9f9085615328565b611ca99190615355565b9392505050565b61012d546040516370a0823160e01b815261091c916001600160a01b0316906370a0823190611ce390309060040161493b565b602060405180830381865afa158015611d00573d6000803e3d6000fd5b505050506040513d601f19601f82011682018060405250810190611d249190614f51565b61012e546040516370a0823160e01b81526001600160a01b03909116906370a0823190611d5590309060040161493b565b602060405180830381865afa158015611d72573d6000803e3d6000fd5b505050506040513d601f19601f82011682018060405250810190611d969190614f51565b6000806001612eb7565b600061013c54600003611db557506000919050565b61013b5461013c54604051627b8a6760e11b81526001600160a01b039092169162f714ce91611de8913090600401614fa1565b600060405180830381600087803b158015611e0257600080fd5b505af1158015611e16573d6000803e3d6000fd5b50505050611e22613894565b61012f546040516370a0823160e01b81526000916001600160a01b0316906370a0823190611e5490309060040161493b565b602060405180830381865afa158015611e71573d6000803e3d6000fd5b505050506040513d601f19601f82011682018060405250810190611e959190614f51565b610130546040516370a0823160e01b81529192506000916001600160a01b03909116906370a0823190611ecc90309060040161493b565b602060405180830381865afa158015611ee9573d6000803e3d6000fd5b505050506040513d601f19601f82011682018060405250810190611f0d9190614f51565b9050600061013560009054906101000a90046001600160a01b03166001600160a01b0316633850c7bd6040518163ffffffff1660e01b815260040160e060405180830381865afa158015611f65573d6000803e3d6000fd5b505050506040513d601f19601f82011682018060405250810190611f899190615149565b505061012f5461013a5460405163a9059cbb60e01b81529697506001600160a01b039182169663a9059cbb9650611fca955091169250889150600401614fd5565b6020604051808303816000875af1158015611fe9573d6000803e3d6000fd5b505050506040513d601f19601f8201168201806040525081019061200d9190614fb8565b5061013a5461013554610137546001600160a01b039283169263cde8ce7a92169086906000908190612710906120439082615315565b61204d9190615355565b6120579088615369565b6127106101375461271061206b9190615302565b6120759190615355565b61207f9089615369565b6040518763ffffffff1660e01b81526004016120a09695949392919061539b565b600060405180830381600087803b1580156120ba57600080fd5b505af11580156120ce573d6000803e3d6000fd5b505061013a5461013554604051630fa09e6360e41b81526001600160a01b03928316945063fa09e6309350612109929091169060040161493b565b600060405180830381600087803b15801561212357600080fd5b505af1158015612137573d6000803e3d6000fd5b50505050600061013660009054906101000a90046001600160a01b03166001600160a01b0316633850c7bd6040518163ffffffff1660e01b815260040160e060405180830381865afa158015612191573d6000803e3d6000fd5b505050506040513d601f19601f820116820180604052508101906121b59190615149565b50506101305461013a5460405163a9059cbb60e01b81529697506001600160a01b039182169663a9059cbb96506121f6955091169250889150600401614fd5565b6020604051808303816000875af1158015612215573d6000803e3d6000fd5b505050506040513d601f19601f820116820180604052508101906122399190614fb8565b5061013a5461013654610137546001600160a01b039283169263cde8ce7a921690869060009081906127109061226f9082615315565b6122799190615355565b6122839088615369565b612710610137546127106122979190615302565b6122a19190615355565b6122ab9089615369565b6040518763ffffffff1660e01b81526004016122cc9695949392919061539b565b600060405180830381600087803b1580156122e657600080fd5b505af11580156122fa573d6000803e3d6000fd5b505061013a5461013654604051630fa09e6360e41b81526001600160a01b03928316945063fa09e6309350612335929091169060040161493b565b600060405180830381600087803b15801561234f57600080fd5b505af1158015612363573d6000803e3d6000fd5b5050610131546040516370a0823160e01b8152600093506001600160a01b0390911691506370a082319061239b90309060040161493b565b602060405180830381865afa1580156123b8573d6000803e3d6000fd5b505050506040513d601f19601f820116820180604052508101906123dc9190614f51565b9050600061013660009054906101000a90046001600160a01b03166001600160a01b0316633850c7bd6040518163ffffffff1660e01b815260040160e060405180830381865afa158015612434573d6000803e3d6000fd5b505050506040513d601f19601f820116820180604052508101906124589190615149565b50506101305461013a5460405163a9059cbb60e01b81529697506001600160a01b039182169663a9059cbb96506124999550911692508a9150600401614fd5565b6020604051808303816000875af11580156124b8573d6000803e3d6000fd5b505050506040513d601f19601f820116820180604052508101906124dc9190614fb8565b5061013a5461013454610137546001600160a01b039283169263cde8ce7a9216908590600090600190612710906125139082615315565b61251d9190615355565b6125279088615369565b6127106101375461271061253b9190615302565b6125459190615355565b61254f9089615369565b6040518763ffffffff1660e01b81526004016125709695949392919061539b565b600060405180830381600087803b15801561258a57600080fd5b505af115801561259e573d6000803e3d6000fd5b505061013a5461013454604051630fa09e6360e41b81526001600160a01b03928316945063fa09e63093506125d9929091169060040161493b565b600060405180830381600087803b1580156125f357600080fd5b505af1158015612607573d6000803e3d6000fd5b505061012e546040516370a0823160e01b8152600093506001600160a01b0390911691506370a082319061263f90309060040161493b565b602060405180830381865afa15801561265c573d6000803e3d6000fd5b505050506040513d601f19601f820116820180604052508101906126809190614f51565b61012e5490915061269a906001600160a01b031682611cb0565b6101395461013b5461013c5460405163095ea7b360e01b81526001600160a01b039384169363095ea7b3936126d493911691600401614fd5565b600060405180830381600087803b1580156126ee57600080fd5b505af1158015612702573d6000803e3d6000fd5b505061013b5461013c5460405163b6b55f2560e01b81526001600160a01b03909216935063b6b55f25925061273d9160040190815260200190565b600060405180830381600087803b15801561275757600080fd5b505af115801561276b573d6000803e3d6000fd5b5060009c9b505050505050505050505050565b61012d546000906001600160a01b03848116911614806127ac575061012e546001600160a01b038481169116145b6127c85760405162461bcd60e51b8152600401610909906153d5565b61013c546000036127eb5760405162461bcd60e51b81526004016109099061540c565b611ca9836000600161392f565b61012d546000906001600160a01b0385811691161480612826575061012e546001600160a01b038581169116145b6128425760405162461bcd60e51b8152600401610909906153d5565b6000831161289c5760405162461bcd60e51b815260206004820152602160248201527f416d6f756e74206973206c657373207468616e206f7220657175616c20746f206044820152600360fc1b6064820152608401610909565b61013c546000036128bf5760405162461bcd60e51b81526004016109099061540c565b6115c58484600061392f565b60008060008360020b126128e2578260020b6128ef565b8260020b6128ef90615430565b905060008160011660000361290857600160801b61291a565b6ffffcb933bd6fad37aa2d162d1a5940015b6001600160881b03169050600282161561294f57608061294a826ffff97272373d413259a46990580e213a615328565b901c90505b6004821615612979576080612974826ffff2e50f5f656932ef12357cf3c7fdcc615328565b901c90505b60088216156129a357608061299e826fffe5caca7e10e4e61c3624eaa0941cd0615328565b901c90505b60108216156129cd5760806129c8826fffcb9843d60f6159c9db58835c926644615328565b901c90505b60208216156129f75760806129f2826fff973b41fa98c081472e6896dfb254c0615328565b901c90505b6040821615612a21576080612a1c826fff2ea16466c96a3843ec78b326b52861615328565b901c90505b6080821615612a4b576080612a46826ffe5dee046a99a2a811c461f1969c3053615328565b901c90505b610100821615612a76576080612a71826ffcbe86c7900a88aedcffc83b479aa3a4615328565b901c90505b610200821615612aa1576080612a9c826ff987a7253ac413176f2b074cf7815e54615328565b901c90505b610400821615612acc576080612ac7826ff3392b0822b70005940c7a398e4b70f3615328565b901c90505b610800821615612af7576080612af2826fe7159475a2c29b7443b29c7fa6e889d9615328565b901c90505b611000821615612b22576080612b1d826fd097f3bdfd2022b8845ad8f792aa5825615328565b901c90505b612000821615612b4d576080612b48826fa9f746462d870fdf8a65dc1f90e061e5615328565b901c90505b614000821615612b78576080612b73826f70d869a156d2a1b890bb3df62baf32f7615328565b901c90505b618000821615612ba3576080612b9e826f31be135f97d08fd981231505542fcfa6615328565b901c90505b62010000821615612bcf576080612bca826f09aa508b5b7a84e1c677de54f3e99bc9615328565b901c90505b62020000821615612bfa576080612bf5826e5d6af8dedb81196699c329225ee604615328565b901c90505b62040000821615612c24576080612c1f826d2216e584f5fa1ea926041bedfe98615328565b901c90505b62080000821615612c4c576080612c47826b048a170391f7dc42444e8fa2615328565b901c90505b60008460020b1315612c6757612c6481600019615355565b90505b612c766401000000008261544c565b15612c82576001612c85565b60005b6115c59060ff16602083901c615302565b600080836001600160a01b0316856001600160a01b03161115612cb7579293925b846001600160a01b0316866001600160a01b031611612ce257612cdb85858561402d565b9150612d29565b836001600160a01b0316866001600160a01b03161015612d1b57612d0786858561402d565b9150612d14858785614097565b9050612d29565b612d26858585614097565b90505b94509492505050565b612d3c8282610f91565b61091c57612d49816140e1565b612d548360206140f3565b604051602001612d65929190615460565b60408051601f198184030181529082905262461bcd60e51b82526109099160040161499d565b612d9481611683565b612df65760405162461bcd60e51b815260206004820152602d60248201527f455243313936373a206e657720696d706c656d656e746174696f6e206973206e60448201526c1bdd08184818dbdb9d1c9858dd609a1b6064820152608401610909565b600080516020615a0283398151915280546001600160a01b0319166001600160a01b0392909216919091179055565b612e2e8361428e565b600082511180612e3b5750805b156108985761167d83836142ce565b600054610100900460ff16612eb55760405162461bcd60e51b815260206004820152602b60248201527f496e697469616c697a61626c653a20636f6e7472616374206973206e6f74206960448201526a6e697469616c697a696e6760a81b6064820152608401610909565b565b61012d5461013a5460405163a9059cbb60e01b81526001600160a01b039283169263a9059cbb92612eef929116908990600401614fd5565b6020604051808303816000875af1158015612f0e573d6000803e3d6000fd5b505050506040513d601f19601f82011682018060405250810190612f329190614fb8565b5061012e5461013a5460405163a9059cbb60e01b81526001600160a01b039283169263a9059cbb92612f6b929116908890600401614fd5565b6020604051808303816000875af1158015612f8a573d6000803e3d6000fd5b505050506040513d601f19601f82011682018060405250810190612fae9190614fb8565b506000612fbc8686846142f3565b905080156130515761013a54610138546040516366f4673d60e11b81526001600160a01b039283169263cde8ce7a9261301e92911690859060009088906bfffcb933bd6fad37aa2d162e906c0100068db8bac710cb295e9e1c9060040161539b565b600060405180830381600087803b15801561303857600080fd5b505af115801561304c573d6000803e3d6000fd5b505050505b61013a5461013854604051630fa09e6360e41b81526001600160a01b039283169263fa09e630926130879291169060040161493b565b600060405180830381600087803b1580156130a157600080fd5b505af11580156130b5573d6000803e3d6000fd5b505061012d546040516370a0823160e01b81528793506001600160a01b0390911691506370a08231906130ec90309060040161493b565b602060405180830381865afa158015613109573d6000803e3d6000fd5b505050506040513d601f19601f8201168201806040525081019061312d9190614f51565b6131379190615315565b61012e546040516370a0823160e01b815291975084916001600160a01b03909116906370a082319061316d90309060040161493b565b602060405180830381865afa15801561318a573d6000803e3d6000fd5b505050506040513d601f19601f820116820180604052508101906131ae9190614f51565b6131b89190615315565b61012d546101395460405163095ea7b360e01b81529297506001600160a01b039182169263095ea7b3926131f29216908a90600401614fd5565b6020604051808303816000875af1158015613211573d6000803e3d6000fd5b505050506040513d601f19601f820116820180604052508101906132359190614fb8565b5061012e546101395460405163095ea7b360e01b81526001600160a01b039283169263095ea7b39261326e929116908990600401614fd5565b6020604051808303816000875af115801561328d573d6000803e3d6000fd5b505050506040513d601f19601f820116820180604052508101906132b19190614fb8565b5061013c546000036136815760408051610180810180835261013854630dfe168160e01b909152915160009282916001600160a01b0390911690630dfe168190610184808501916020918187030181865afa158015613314573d6000803e3d6000fd5b505050506040513d601f19601f820116820180604052508101906133389190614e5f565b6001600160a01b0316815260200161013860009054906101000a90046001600160a01b03166001600160a01b031663d21220a76040518163ffffffff1660e01b8152600401602060405180830381865afa15801561339a573d6000803e3d6000fd5b505050506040513d601f19601f820116820180604052508101906133be9190614e5f565b6001600160a01b0316815260200161013860009054906101000a90046001600160a01b03166001600160a01b031663d0c93a7c6040518163ffffffff1660e01b8152600401602060405180830381865afa158015613420573d6000803e3d6000fd5b505050506040513d601f19601f8201168201806040525081019061344491906154cf565b60020b8152602001610132600081548110613461576134616152d6565b90600052602060002090600a91828204019190066003029054906101000a900460020b60020b81526020016101326001815481106134a1576134a16152d6565b60009182526020808320600a8084049091015492066003026101000a90910460020b835282018a905260408083018a905260608301829052608083018290523060a08401524260c084015260e09092015261013954905163b5007d1f60e01b81529192506001600160a01b03169063b5007d1f906135239084906004016154ea565b6080604051808303816000875af1158015613542573d6000803e3d6000fd5b505050506040513d601f19601f8201168201806040525081019061356691906155c3565b50505061013c8190556101395461013b5460405163095ea7b360e01b81526001600160a01b039283169363095ea7b3936135a4931691600401614fd5565b600060405180830381600087803b1580156135be57600080fd5b505af11580156135d2573d6000803e3d6000fd5b505061013b5461013c5460405163b6b55f2560e01b81526001600160a01b03909216935063b6b55f25925061360d9160040190815260200190565b600060405180830381600087803b15801561362757600080fd5b505af115801561363b573d6000803e3d6000fd5b505050507feebbaa86c348cb664e392b180fd0ff2e1998af9fa833ef69a778cb0b42d3ca2761013c5460405161367391815260200190565b60405180910390a15061388c565b61013b5461013c54604051627b8a6760e11b81526001600160a01b039092169162f714ce916136b4913090600401614fa1565b600060405180830381600087803b1580156136ce57600080fd5b505af11580156136e2573d6000803e3d6000fd5b505050506136ee61464a565b6040805160c08101825261013c54815260208101888152818301888152600060608401818152608085019182524260a0860190815261013954965163219f5d1760e01b81528651600482015294516024860152925160448501525160648401525160848301525160a482015290916001600160a01b03169063219f5d179060c4016060604051808303816000875af115801561378e573d6000803e3d6000fd5b505050506040513d601f19601f820116820180604052508101906137b291906155ff565b50506101395461013b5461013c5460405163095ea7b360e01b81526001600160a01b03938416945063095ea7b3936137ef93169190600401614fd5565b600060405180830381600087803b15801561380957600080fd5b505af115801561381d573d6000803e3d6000fd5b505061013b5461013c5460405163b6b55f2560e01b81526001600160a01b03909216935063b6b55f2592506138589160040190815260200190565b600060405180830381600087803b15801561387257600080fd5b505af1158015613886573d6000803e3d6000fd5b50505050505b505050505050565b6040805160808101825261013c5481523060208201526001600160801b03818301819052606082015261013b54915163fc6f786560e01b815290916001600160a01b03169063fc6f7865906138ed908490600401615634565b60408051808303816000875af115801561390b573d6000803e3d6000fd5b505050506040513d601f19601f820116820180604052508101906108989190615678565b61013b5461013c54604051627b8a6760e11b81526000926001600160a01b03169162f714ce9161396491903090600401614fa1565b600060405180830381600087803b15801561397e57600080fd5b505af1158015613992573d6000803e3d6000fd5b5050505061399e613894565b6101395461013c5460405163133f757160e31b815260048101919091526000916001600160a01b0316906399fbab889060240161018060405180830381865afa1580156139ef573d6000803e3d6000fd5b505050506040513d601f19601f82011682018060405250810190613a1391906151f5565b50505050975050505050505050806001600160801b0316600003613a3b576000915050611ca9565b6040805160a08101825261013c5481526001600160801b03838116602083019081526000838501818152606085019182524260808601908152610139549651630624e65f60e11b815286516004820152935190941660248401525160448301525160648201529051608482015290916001600160a01b031690630c49ccbe9060a40160408051808303816000875af1158015613adb573d6000803e3d6000fd5b505050506040513d601f19601f82011682018060405250810190613aff9190615678565b5050613b0961464a565b83613d445761012d546040516370a0823160e01b81526000916001600160a01b0316906370a0823190613b4090309060040161493b565b602060405180830381865afa158015613b5d573d6000803e3d6000fd5b505050506040513d601f19601f82011682018060405250810190613b819190614f51565b61012e546040516370a0823160e01b81529192506000916001600160a01b03909116906370a0823190613bb890309060040161493b565b602060405180830381865afa158015613bd5573d6000803e3d6000fd5b505050506040513d601f19601f82011682018060405250810190613bf99190614f51565b905060008088841115613c1a57613c108985615315565b9350889150613d2d565b61012e5461013a5460405163a9059cbb60e01b81526001600160a01b039283169263a9059cbb92613c52929116908790600401614fd5565b6020604051808303816000875af1158015613c71573d6000803e3d6000fd5b505050506040513d601f19601f82011682018060405250810190613c959190614fb8565b5061013a54610138546001600160a01b039182169163cde8ce7a9116613cbb878d615315565b6000806bfffcb933bd6fad37aa2d162e6c0100068db8bac710cb295e9e1c6040518763ffffffff1660e01b8152600401613cfa9695949392919061539b565b600060405180830381600087803b158015613d1457600080fd5b505af1158015613d28573d6000803e3d6000fd5b505050505b613d3b848484846000612eb7565b50505050613fb6565b6101395461013c54604051630852cd8d60e31b81526001600160a01b03909216916342966c6891613d7b9160040190815260200190565b600060405180830381600087803b158015613d9557600080fd5b505af1158015613da9573d6000803e3d6000fd5b5050600061013c55505061012d546001600160a01b0390811690871603613f4d5761012e546040516370a0823160e01b81526001600160a01b03909116906370a0823190613dfb90309060040161493b565b602060405180830381865afa158015613e18573d6000803e3d6000fd5b505050506040513d601f19601f82011682018060405250810190613e3c9190614f51565b94508415613f4d5761012e5461013a5460405163a9059cbb60e01b81526001600160a01b039283169263a9059cbb92613e7c929116908990600401614fd5565b6020604051808303816000875af1158015613e9b573d6000803e3d6000fd5b505050506040513d601f19601f82011682018060405250810190613ebf9190614fb8565b5061013a54610138546040516366f4673d60e11b81526001600160a01b039283169263cde8ce7a92613f1a92911690899060009081906bfffcb933bd6fad37aa2d162e906c0100068db8bac710cb295e9e1c9060040161539b565b600060405180830381600087803b158015613f3457600080fd5b505af1158015613f48573d6000803e3d6000fd5b505050505b61013a5461013854604051630fa09e6360e41b81526001600160a01b039283169263fa09e63092613f839291169060040161493b565b600060405180830381600087803b158015613f9d57600080fd5b505af1158015613fb1573d6000803e3d6000fd5b505050505b6040516370a0823160e01b81526001600160a01b038716906370a0823190613fe290309060040161493b565b602060405180830381865afa158015613fff573d6000803e3d6000fd5b505050506040513d601f19601f820116820180604052508101906140239190614f51565b9695505050505050565b6000826001600160a01b0316846001600160a01b0316111561404d579192915b6001600160a01b03841661408d600160601b600160e01b03606085901b16614075878761569c565b6001600160a01b0316866001600160a01b03166146a3565b6115c59190615355565b6000826001600160a01b0316846001600160a01b031611156140b7579192915b6115c56001600160801b0383166140ce868661569c565b6001600160a01b0316600160601b6146a3565b60606107976001600160a01b03831660145b60606000614102836002615328565b61410d906002615302565b6001600160401b0381111561412457614124614ae9565b6040519080825280601f01601f19166020018201604052801561414e576020820181803683370190505b509050600360fc1b81600081518110614169576141696152d6565b60200101906001600160f81b031916908160001a905350600f60fb1b81600181518110614198576141986152d6565b60200101906001600160f81b031916908160001a90535060006141bc846002615328565b6141c7906001615302565b90505b600181111561423f576f181899199a1a9b1b9c1cb0b131b232b360811b85600f16601081106141fb576141fb6152d6565b1a60f81b828281518110614211576142116152d6565b60200101906001600160f81b031916908160001a90535060049490941c93614238816156c3565b90506141ca565b508315611ca95760405162461bcd60e51b815260206004820181905260248201527f537472696e67733a20686578206c656e67746820696e73756666696369656e746044820152606401610909565b61429781612d8b565b6040516001600160a01b038216907fbc7cd75a20ee27fd9adebab32041f755214dbc6bffa90cc0225b39da2e5c2d3b90600090a250565b6060611ca98383604051806060016040528060278152602001615a2260279139614751565b600061431960405180606001604052806000815260200160008152602001600081525090565b8385116143265783614328565b845b602082015260005b6101335481101561463d576020820151825160029161434e91615302565b6143589190615355565b604083018190521561463d5761013a546101385460408085015190516379bf8c2d60e01b81526001600160a01b03938416936379bf8c2d936143a8939116916000908a90610132906004016156da565b600060405180830381600087803b1580156143c257600080fd5b505af19250505080156143d3575060015b61462b576143df6158f2565b806308c379a00361443b57506143f361590d565b806143fe575061443d565b7fcfe5be2eb0e35083a07a1b03709c019a1bb2714d5df326008632b8e4e78e75298160405161442d919061499d565b60405180910390a15061463d565b505b3d808015614467576040519150601f19603f3d011682016040523d82523d6000602084013e61446c565b606091505b5060408051600480825260a08201909252828201916000919060208201608080368337019050509050818060200190518101906144a99190615996565b846000815181106144bc576144bc6152d6565b60200260200101856001815181106144d6576144d66152d6565b60200260200101866002815181106144f0576144f06152d6565b602002602001018760038151811061450a5761450a6152d6565b602090810291909101019390935292909152919052526000876145a05761459b8260018151811061453d5761453d6152d6565b602002602001015183600081518110614558576145586152d6565b602002602001015184600381518110614573576145736152d6565b60200260200101518560028151811061458e5761458e6152d6565b60200260200101516147bf565b614607565b614607826000815181106145b6576145b66152d6565b6020026020010151836001815181106145d1576145d16152d6565b6020026020010151846002815181106145ec576145ec6152d6565b60200260200101518560038151811061458e5761458e6152d6565b9050801561461b5760408601518652614626565b604086015160208701525b505050505b80614635816159cc565b915050614330565b5060400151949350505050565b6040805160808101825261013c5481523060208201526001600160801b03818301819052606082015261013954915163fc6f786560e01b815290916001600160a01b03169063fc6f7865906138ed908490600401615634565b60008080600019858709858702925082811083820303915050806000036146dc57600084116146d157600080fd5b508290049050611ca9565b8084116146e857600080fd5b60008486880960026001871981018816978890046003810283188082028403028082028403028082028403028082028403028082028403029081029092039091026000889003889004909101858311909403939093029303949094049190911702949350505050565b6060600080856001600160a01b03168560405161476e91906159e5565b600060405180830381855af49150503d80600081146147a9576040519150601f19603f3d011682016040523d82523d6000602084013e6147ae565b606091505b5091509150614023868383876147df565b60006147cb8385615328565b6147d58387615328565b1195945050505050565b6060831561484c578251600003614845576147f985611683565b6148455760405162461bcd60e51b815260206004820152601d60248201527f416464726573733a2063616c6c20746f206e6f6e2d636f6e74726163740000006044820152606401610909565b50816115c5565b6115c583838151156148615781518083602001fd5b8060405162461bcd60e51b8152600401610909919061499d565b82805482825590600052602060002090600901600a900481019282156149165791602002820160005b838211156148e557825462ffffff8535811661010084900a9081029102199091161783556020938401936005820104928301926001036003909101026148a4565b80156149145782816101000a81549062ffffff02191690556003016020816002010492830192600103026148e5565b505b50614922929150614926565b5090565b5b808211156149225760008155600101614927565b6001600160a01b0391909116815260200190565b60006020828403121561496157600080fd5b81356001600160e01b031981168114611ca957600080fd5b60005b8381101561499457818101518382015260200161497c565b50506000910152565b60208152600082518060208401526149bc816040850160208701614979565b601f01601f19169190910160400192915050565b6000602082840312156149e257600080fd5b5035919050565b6001600160a01b03811681146109e557600080fd5b600080600080600060808688031215614a1657600080fd5b8535614a21816149e9565b94506020860135614a31816149e9565b93506040860135925060608601356001600160401b0380821115614a5457600080fd5b818801915088601f830112614a6857600080fd5b813581811115614a7757600080fd5b896020828501011115614a8957600080fd5b9699959850939650602001949392505050565b60008060408385031215614aaf57600080fd5b823591506020830135614ac1816149e9565b809150509250929050565b600060208284031215614ade57600080fd5b8135611ca9816149e9565b634e487b7160e01b600052604160045260246000fd5b601f8201601f191681016001600160401b0381118282101715614b2457614b24614ae9565b6040525050565b60006001600160401b03831115614b4457614b44614ae9565b604051614b5b601f8501601f191660200182614aff565b809150838152848484011115614b7057600080fd5b83836020830137600060208583010152509392505050565b60008060408385031215614b9b57600080fd5b8235614ba6816149e9565b915060208301356001600160401b03811115614bc157600080fd5b8301601f81018513614bd257600080fd5b614be185823560208401614b2b565b9150509250929050565b600060208284031215614bfd57600080fd5b81356001600160401b03811115614c1357600080fd5b82016101a08185031215611ca957600080fd5b60008060408385031215614c3957600080fd5b8235614c44816149e9565b946020939093013593505050565b600080600060608486031215614c6757600080fd5b505081359360208301359350604090920135919050565b80151581146109e557600080fd5b60008060008060808587031215614ca257600080fd5b8435614cad816149e9565b9350602085013592506040850135614cc4816149e9565b91506060850135614cd481614c7e565b939692955090935050565b600080600060608486031215614cf457600080fd5b8335614cff816149e9565b92506020840135614d0f816149e9565b915060408401356001600160401b03811115614d2a57600080fd5b8401601f81018613614d3b57600080fd5b614d4a86823560208401614b2b565b9150509250925092565b600181811c90821680614d6857607f821691505b602082108103614d8857634e487b7160e01b600052602260045260246000fd5b50919050565b6020808252602c908201527f46756e6374696f6e206d7573742062652063616c6c6564207468726f7567682060408201526b19195b1959d85d1958d85b1b60a21b606082015260800190565b6020808252602c908201527f46756e6374696f6e206d7573742062652063616c6c6564207468726f7567682060408201526b6163746976652070726f787960a01b606082015260800190565b6020808252601490820152735265737472696374656420746f2061646d696e7360601b604082015260600190565b805161134f816149e9565b600060208284031215614e7157600080fd5b8151611ca9816149e9565b6000808335601e19843603018112614e9357600080fd5b8301803591506001600160401b03821115614ead57600080fd5b6020019150600581901b3603821315614ec557600080fd5b9250929050565b6020808252602e908201527f496e697469616c697a61626c653a20636f6e747261637420697320616c72656160408201526d191e481a5b9a5d1a585b1a5e995960921b606082015260800190565b6020808252601f908201527f5265737472696374656420746f20504f5254464f4c494f5f4d414e4147455200604082015260600190565b600060208284031215614f6357600080fd5b5051919050565b6020808252601f908201527f5374726174656779204e4156206c657373207468616e20657870656374656400604082015260600190565b9182526001600160a01b0316602082015260400190565b600060208284031215614fca57600080fd5b8151611ca981614c7e565b6001600160a01b03929092168252602082015260400190565b60208082526018908201527716995c9bc81859191c995cdcc81b9bdd08185b1b1bddd95960421b604082015260600190565b601f82111561089857600081815260208120601f850160051c810160208610156150475750805b601f850160051c820191505b8181101561388c57828155600101615053565b81516001600160401b0381111561507f5761507f614ae9565b6150938161508d8454614d54565b84615020565b602080601f8311600181146150c857600084156150b05750858301515b600019600386901b1c1916600185901b17855561388c565b600085815260208120601f198616915b828110156150f7578886015182559484019460019091019084016150d8565b50858210156151155787850151600019600388901b60f8161c191681555b5050505050600190811b01905550565b8051600281900b811461134f57600080fd5b805161ffff8116811461134f57600080fd5b600080600080600080600060e0888a03121561516457600080fd5b875161516f816149e9565b965061517d60208901615125565b955061518b60408901615137565b945061519960608901615137565b93506151a760808901615137565b925060a088015160ff811681146151bd57600080fd5b60c08901519092506151ce81614c7e565b8091505092959891949750929550565b80516001600160801b038116811461134f57600080fd5b6000806000806000806000806000806000806101808d8f03121561521857600080fd5b8c516bffffffffffffffffffffffff8116811461523457600080fd5b9b5061524260208e01614e54565b9a5061525060408e01614e54565b995061525e60608e01614e54565b985061526c60808e01615125565b975061527a60a08e01615125565b965061528860c08e01615125565b955061529660e08e016151de565b94506101008d015193506101208d015192506152b56101408e016151de565b91506152c46101608e016151de565b90509295989b509295989b509295989b565b634e487b7160e01b600052603260045260246000fd5b634e487b7160e01b600052601160045260246000fd5b80820180821115610797576107976152ec565b81810381811115610797576107976152ec565b8082028115828204841417610797576107976152ec565b634e487b7160e01b600052601260045260246000fd5b6000826153645761536461533f565b500490565b6001600160a01b03828116828216818102831692918115828504821417615392576153926152ec565b50505092915050565b6001600160a01b0396871681526020810195909552928516604085015290151560608401528316608083015290911660a082015260c00190565b6020808252601e908201527f536f6d6520746f6b656e7320617265206e6f7420636f6d70617469626c650000604082015260600190565b6020808252600a9082015269139bdd081cdd185ad95960b21b604082015260600190565b6000600160ff1b8201615445576154456152ec565b5060000390565b60008261545b5761545b61533f565b500690565b76020b1b1b2b9b9a1b7b73a3937b61d1030b1b1b7bab73a1604d1b815260008351615492816017850160208801614979565b7001034b99036b4b9b9b4b733903937b6329607d1b60179184019182015283516154c3816028840160208801614979565b01602801949350505050565b6000602082840312156154e157600080fd5b611ca982615125565b81516001600160a01b031681526101808101602083015161551660208401826001600160a01b03169052565b50604083015161552b604084018260020b9052565b506060830151615540606084018260020b9052565b506080830151615555608084018260020b9052565b5060a083015160a083015260c083015160c083015260e083015160e08301526101008084015181840152506101208084015161559b828501826001600160a01b03169052565b50506101408381015190830152610160928301516001600160a01b0316929091019190915290565b600080600080608085870312156155d957600080fd5b845193506155e9602086016151de565b6040860151606090960151949790965092505050565b60008060006060848603121561561457600080fd5b61561d846151de565b925060208401519150604084015190509250925092565b608081016107978284805182526020808201516001600160a01b0316908301526040808201516001600160801b039081169184019190915260609182015116910152565b6000806040838503121561568b57600080fd5b505080516020909101519092909150565b6001600160a01b038281168282160390808211156156bc576156bc6152ec565b5092915050565b6000816156d2576156d26152ec565b506000190190565b600060a080830160018060a01b03808a168552602089818701526040828a1681880152606092508815158388015260808581890152848954615720818890815260200190565b60008c81526020812098509092505b816009820110156157de578754600281810b8552601882901c810b88860152603082901c810b87860152604882901c810b8986015281891c810b86860152607882901c810b8b86015260c061578d8187018460901c840b60020b9052565b6157a160e087018460a81c840b60020b9052565b82811c820b60020b610100870152506157c561012086018360d81c830b60020b9052565b5050600197909701966101409290920191600a0161572f565b87549850818110156157f957600289900b8352918501916001015b8181101561581357601889901c60020b8352918501916001015b8181101561582d57603089901c60020b8352918501916001015b8181101561584757604889901c60020b8352918501916001015b8181101561585f5788871c60020b8352918501916001015b8181101561587957607889901c60020b8352918501916001015b8181101561589357609089901c60020b8352918501916001015b818110156158ad5760a889901c60020b8352918501916001015b818110156158c75760c089901c60020b8352918501916001015b818110156158de5760d889901c60020b8352918501915b50909e9d5050505050505050505050505050565b600060033d1115610b495760046000803e5060005160e01c90565b600060443d101561591b5790565b6040516003193d81016004833e81513d6001600160401b03816024840111818411171561594a57505050505090565b82850191508151818111156159625750505050505090565b843d870101602082850101111561597c5750505050505090565b61598b60208286010187614aff565b509095945050505050565b600080600080608085870312156159ac57600080fd5b505082516020840151604085015160609095015191969095509092509050565b6000600182016159de576159de6152ec565b5060010190565b600082516159f7818460208701614979565b919091019291505056fe360894a13ba1a3210667c828492db98dca3e2076cc3735a920a3ca505d382bbc416464726573733a206c6f772d6c6576656c2064656c65676174652063616c6c206661696c6564a2646970667358221220ddb7e3cc9131032a004f10f93abf2464e8ba5a6374f6db34b421236d7c9c4dc664736f6c63430008110033",
  "implementation": "0x322813Fd9A801c5507c9de605d63CEA4f2CE6c44",
  "devdoc": {
    "kind": "dev",
    "methods": {
      "constructor": {
        "custom:oz-upgrades-unsafe-allow": "constructor"
      },
      "getRoleAdmin(bytes32)": {
        "details": "Returns the admin role that controls `role`. See {grantRole} and {revokeRole}. To change a role's admin, use {_setRoleAdmin}."
      },
      "grantRole(bytes32,address)": {
        "details": "Grants `role` to `account`. If `account` had not been already granted `role`, emits a {RoleGranted} event. Requirements: - the caller must have ``role``'s admin role. May emit a {RoleGranted} event."
      },
      "hasRole(bytes32,address)": {
        "details": "Returns `true` if `account` has been granted `role`."
      },
      "proxiableUUID()": {
        "details": "Implementation of the ERC1822 {proxiableUUID} function. This returns the storage slot used by the implementation. It is used to validate the implementation's compatibility when performing an upgrade. IMPORTANT: A proxy pointing at a proxiable contract should not be considered proxiable itself, because this risks bricking a proxy that upgrades to it, by delegating to itself until out of gas. Thus it is critical that this function revert if invoked through a proxy. This is guaranteed by the `notDelegated` modifier."
      },
      "renounceRole(bytes32,address)": {
        "details": "Revokes `role` from the calling account. Roles are often managed via {grantRole} and {revokeRole}: this function's purpose is to provide a mechanism for accounts to lose their privileges if they are compromised (such as when a trusted device is misplaced). If the calling account had been revoked `role`, emits a {RoleRevoked} event. Requirements: - the caller must be `account`. May emit a {RoleRevoked} event."
      },
      "revokeRole(bytes32,address)": {
        "details": "Revokes `role` from `account`. If `account` had been granted `role`, emits a {RoleRevoked} event. Requirements: - the caller must have ``role``'s admin role. May emit a {RoleRevoked} event."
      },
      "supportsInterface(bytes4)": {
        "details": "See {IERC165-supportsInterface}."
      },
      "upgradeTo(address)": {
        "custom:oz-upgrades-unsafe-allow-reachable": "delegatecall",
        "details": "Upgrade the implementation of the proxy to `newImplementation`. Calls {_authorizeUpgrade}. Emits an {Upgraded} event."
      },
      "upgradeToAndCall(address,bytes)": {
        "custom:oz-upgrades-unsafe-allow-reachable": "delegatecall",
        "details": "Upgrade the implementation of the proxy to `newImplementation`, and subsequently execute the function call encoded in `data`. Calls {_authorizeUpgrade}. Emits an {Upgraded} event."
      }
    },
    "version": 1
  },
  "userdoc": {
    "kind": "user",
    "methods": {},
    "version": 1
  },
  "storageLayout": {
    "storage": [
      {
        "astId": 782,
        "contract": "contracts/StrategyThrusterSwap.sol:StrategyThrusterSwap",
        "label": "_initialized",
        "offset": 0,
        "slot": "0",
        "type": "t_uint8"
      },
      {
        "astId": 785,
        "contract": "contracts/StrategyThrusterSwap.sol:StrategyThrusterSwap",
        "label": "_initializing",
        "offset": 1,
        "slot": "0",
        "type": "t_bool"
      },
      {
        "astId": 1461,
        "contract": "contracts/StrategyThrusterSwap.sol:StrategyThrusterSwap",
        "label": "__gap",
        "offset": 0,
        "slot": "1",
        "type": "t_array(t_uint256)50_storage"
      },
      {
        "astId": 1845,
        "contract": "contracts/StrategyThrusterSwap.sol:StrategyThrusterSwap",
        "label": "__gap",
        "offset": 0,
        "slot": "51",
        "type": "t_array(t_uint256)50_storage"
      },
      {
        "astId": 28,
        "contract": "contracts/StrategyThrusterSwap.sol:StrategyThrusterSwap",
        "label": "_roles",
        "offset": 0,
        "slot": "101",
        "type": "t_mapping(t_bytes32,t_struct(RoleData)23_storage)"
      },
      {
        "astId": 335,
        "contract": "contracts/StrategyThrusterSwap.sol:StrategyThrusterSwap",
        "label": "__gap",
        "offset": 0,
        "slot": "102",
        "type": "t_array(t_uint256)49_storage"
      },
      {
        "astId": 764,
        "contract": "contracts/StrategyThrusterSwap.sol:StrategyThrusterSwap",
        "label": "__gap",
        "offset": 0,
        "slot": "151",
        "type": "t_array(t_uint256)50_storage"
      },
      {
        "astId": 1080,
        "contract": "contracts/StrategyThrusterSwap.sol:StrategyThrusterSwap",
        "label": "__gap",
        "offset": 0,
        "slot": "201",
        "type": "t_array(t_uint256)50_storage"
      },
      {
        "astId": 6988,
        "contract": "contracts/StrategyThrusterSwap.sol:StrategyThrusterSwap",
        "label": "portfolioManager",
        "offset": 0,
        "slot": "251",
        "type": "t_address"
      },
      {
        "astId": 6990,
        "contract": "contracts/StrategyThrusterSwap.sol:StrategyThrusterSwap",
        "label": "swapSlippageBP",
        "offset": 0,
        "slot": "252",
        "type": "t_uint256"
      },
      {
        "astId": 6992,
        "contract": "contracts/StrategyThrusterSwap.sol:StrategyThrusterSwap",
        "label": "navSlippageBP",
        "offset": 0,
        "slot": "253",
        "type": "t_uint256"
      },
      {
        "astId": 6994,
        "contract": "contracts/StrategyThrusterSwap.sol:StrategyThrusterSwap",
        "label": "stakeSlippageBP",
        "offset": 0,
        "slot": "254",
        "type": "t_uint256"
      },
      {
        "astId": 6997,
        "contract": "contracts/StrategyThrusterSwap.sol:StrategyThrusterSwap",
        "label": "roleManager",
        "offset": 0,
        "slot": "255",
        "type": "t_contract(IRoleManager)7398"
      },
      {
        "astId": 6999,
        "contract": "contracts/StrategyThrusterSwap.sol:StrategyThrusterSwap",
        "label": "name",
        "offset": 0,
        "slot": "256",
        "type": "t_string_storage"
      },
      {
        "astId": 7385,
        "contract": "contracts/StrategyThrusterSwap.sol:StrategyThrusterSwap",
        "label": "__gap",
        "offset": 0,
        "slot": "257",
        "type": "t_array(t_uint256)44_storage"
      },
      {
        "astId": 7545,
        "contract": "contracts/StrategyThrusterSwap.sol:StrategyThrusterSwap",
        "label": "usdb",
        "offset": 0,
        "slot": "301",
        "type": "t_contract(IERC20)2987"
      },
      {
        "astId": 7548,
        "contract": "contracts/StrategyThrusterSwap.sol:StrategyThrusterSwap",
        "label": "usdPlus",
        "offset": 0,
        "slot": "302",
        "type": "t_contract(IERC20)2987"
      },
      {
        "astId": 7551,
        "contract": "contracts/StrategyThrusterSwap.sol:StrategyThrusterSwap",
        "label": "hyper",
        "offset": 0,
        "slot": "303",
        "type": "t_contract(IERC20)2987"
      },
      {
        "astId": 7554,
        "contract": "contracts/StrategyThrusterSwap.sol:StrategyThrusterSwap",
        "label": "thrust",
        "offset": 0,
        "slot": "304",
        "type": "t_contract(IERC20)2987"
      },
      {
        "astId": 7557,
        "contract": "contracts/StrategyThrusterSwap.sol:StrategyThrusterSwap",
        "label": "weth",
        "offset": 0,
        "slot": "305",
        "type": "t_contract(IERC20)2987"
      },
      {
        "astId": 7560,
        "contract": "contracts/StrategyThrusterSwap.sol:StrategyThrusterSwap",
        "label": "tickRange",
        "offset": 0,
        "slot": "306",
        "type": "t_array(t_int24)dyn_storage"
      },
      {
        "astId": 7562,
        "contract": "contracts/StrategyThrusterSwap.sol:StrategyThrusterSwap",
        "label": "binSearchIterations",
        "offset": 0,
        "slot": "307",
        "type": "t_uint256"
      },
      {
        "astId": 7565,
        "contract": "contracts/StrategyThrusterSwap.sol:StrategyThrusterSwap",
        "label": "poolUsdbWeth",
        "offset": 0,
        "slot": "308",
        "type": "t_contract(ICLPool)5812"
      },
      {
        "astId": 7568,
        "contract": "contracts/StrategyThrusterSwap.sol:StrategyThrusterSwap",
        "label": "poolWethHyper",
        "offset": 0,
        "slot": "309",
        "type": "t_contract(ICLPool)5812"
      },
      {
        "astId": 7571,
        "contract": "contracts/StrategyThrusterSwap.sol:StrategyThrusterSwap",
        "label": "poolWethThrust",
        "offset": 0,
        "slot": "310",
        "type": "t_contract(ICLPool)5812"
      },
      {
        "astId": 7573,
        "contract": "contracts/StrategyThrusterSwap.sol:StrategyThrusterSwap",
        "label": "rewardSwapSlippageBP",
        "offset": 0,
        "slot": "311",
        "type": "t_uint256"
      },
      {
        "astId": 7576,
        "contract": "contracts/StrategyThrusterSwap.sol:StrategyThrusterSwap",
        "label": "pool",
        "offset": 0,
        "slot": "312",
        "type": "t_contract(ICLPool)5812"
      },
      {
        "astId": 7579,
        "contract": "contracts/StrategyThrusterSwap.sol:StrategyThrusterSwap",
        "label": "npm",
        "offset": 0,
        "slot": "313",
        "type": "t_contract(INonfungiblePositionManager)6959"
      },
      {
        "astId": 7582,
        "contract": "contracts/StrategyThrusterSwap.sol:StrategyThrusterSwap",
        "label": "swapSimulator",
        "offset": 0,
        "slot": "314",
        "type": "t_contract(ISwapSimulator)7538"
      },
      {
        "astId": 7585,
        "contract": "contracts/StrategyThrusterSwap.sol:StrategyThrusterSwap",
        "label": "nfpBooster",
        "offset": 0,
        "slot": "315",
        "type": "t_contract(INFPBooster)5844"
      },
      {
        "astId": 7587,
        "contract": "contracts/StrategyThrusterSwap.sol:StrategyThrusterSwap",
        "label": "tokenLP",
        "offset": 0,
        "slot": "316",
        "type": "t_uint256"
      }
    ],
    "types": {
      "t_address": {
        "encoding": "inplace",
        "label": "address",
        "numberOfBytes": "20"
      },
      "t_array(t_int24)dyn_storage": {
        "base": "t_int24",
        "encoding": "dynamic_array",
        "label": "int24[]",
        "numberOfBytes": "32"
      },
      "t_array(t_uint256)44_storage": {
        "base": "t_uint256",
        "encoding": "inplace",
        "label": "uint256[44]",
        "numberOfBytes": "1408"
      },
      "t_array(t_uint256)49_storage": {
        "base": "t_uint256",
        "encoding": "inplace",
        "label": "uint256[49]",
        "numberOfBytes": "1568"
      },
      "t_array(t_uint256)50_storage": {
        "base": "t_uint256",
        "encoding": "inplace",
        "label": "uint256[50]",
        "numberOfBytes": "1600"
      },
      "t_bool": {
        "encoding": "inplace",
        "label": "bool",
        "numberOfBytes": "1"
      },
      "t_bytes32": {
        "encoding": "inplace",
        "label": "bytes32",
        "numberOfBytes": "32"
      },
      "t_contract(ICLPool)5812": {
        "encoding": "inplace",
        "label": "contract ICLPool",
        "numberOfBytes": "20"
      },
      "t_contract(IERC20)2987": {
        "encoding": "inplace",
        "label": "contract IERC20",
        "numberOfBytes": "20"
      },
      "t_contract(INFPBooster)5844": {
        "encoding": "inplace",
        "label": "contract INFPBooster",
        "numberOfBytes": "20"
      },
      "t_contract(INonfungiblePositionManager)6959": {
        "encoding": "inplace",
        "label": "contract INonfungiblePositionManager",
        "numberOfBytes": "20"
      },
      "t_contract(IRoleManager)7398": {
        "encoding": "inplace",
        "label": "contract IRoleManager",
        "numberOfBytes": "20"
      },
      "t_contract(ISwapSimulator)7538": {
        "encoding": "inplace",
        "label": "contract ISwapSimulator",
        "numberOfBytes": "20"
      },
      "t_int24": {
        "encoding": "inplace",
        "label": "int24",
        "numberOfBytes": "3"
      },
      "t_mapping(t_address,t_bool)": {
        "encoding": "mapping",
        "key": "t_address",
        "label": "mapping(address => bool)",
        "numberOfBytes": "32",
        "value": "t_bool"
      },
      "t_mapping(t_bytes32,t_struct(RoleData)23_storage)": {
        "encoding": "mapping",
        "key": "t_bytes32",
        "label": "mapping(bytes32 => struct AccessControlUpgradeable.RoleData)",
        "numberOfBytes": "32",
        "value": "t_struct(RoleData)23_storage"
      },
      "t_string_storage": {
        "encoding": "bytes",
        "label": "string",
        "numberOfBytes": "32"
      },
      "t_struct(RoleData)23_storage": {
        "encoding": "inplace",
        "label": "struct AccessControlUpgradeable.RoleData",
        "members": [
          {
            "astId": 20,
            "contract": "contracts/StrategyThrusterSwap.sol:StrategyThrusterSwap",
            "label": "members",
            "offset": 0,
            "slot": "0",
            "type": "t_mapping(t_address,t_bool)"
          },
          {
            "astId": 22,
            "contract": "contracts/StrategyThrusterSwap.sol:StrategyThrusterSwap",
            "label": "adminRole",
            "offset": 0,
            "slot": "1",
            "type": "t_bytes32"
          }
        ],
        "numberOfBytes": "64"
      },
      "t_uint256": {
        "encoding": "inplace",
        "label": "uint256",
        "numberOfBytes": "32"
      },
      "t_uint8": {
        "encoding": "inplace",
        "label": "uint8",
        "numberOfBytes": "1"
      }
    }
  }
}