{
  "address": "0xB5f161eD93669eF8e566C435Fc591038c234C5EB",
  "abi": [
    {
      "inputs": [],
      "stateMutability": "nonpayable",
      "type": "constructor"
    },
    {
      "inputs": [],
      "name": "InvalidAddressString",
      "type": "error"
    },
    {
      "inputs": [],
      "name": "NotApprovedByGateway",
      "type": "error"
    },
    {
      "anonymous": false,
      "inputs": [
        {
          "indexed": false,
          "internalType": "address",
          "name": "previousAdmin",
          "type": "address"
        },
        {
          "indexed": false,
          "internalType": "address",
          "name": "newAdmin",
          "type": "address"
        }
      ],
      "name": "AdminChanged",
      "type": "event"
    },
    {
      "anonymous": false,
      "inputs": [
        {
          "indexed": true,
          "internalType": "address",
          "name": "beacon",
          "type": "address"
        }
      ],
      "name": "BeaconUpgraded",
      "type": "event"
    },
    {
      "anonymous": false,
      "inputs": [
        {
          "indexed": true,
          "internalType": "bytes32",
          "name": "id",
          "type": "bytes32"
        },
        {
          "indexed": true,
          "internalType": "uint256",
          "name": "index",
          "type": "uint256"
        },
        {
          "indexed": false,
          "internalType": "address",
          "name": "target",
          "type": "address"
        },
        {
          "indexed": false,
          "internalType": "uint256",
          "name": "value",
          "type": "uint256"
        },
        {
          "indexed": false,
          "internalType": "bytes",
          "name": "data",
          "type": "bytes"
        }
      ],
      "name": "CallExecuted",
      "type": "event"
    },
    {
      "anonymous": false,
      "inputs": [
        {
          "indexed": true,
          "internalType": "bytes32",
          "name": "id",
          "type": "bytes32"
        },
        {
          "indexed": false,
          "internalType": "bytes32",
          "name": "salt",
          "type": "bytes32"
        }
      ],
      "name": "CallSalt",
      "type": "event"
    },
    {
      "anonymous": false,
      "inputs": [
        {
          "indexed": true,
          "internalType": "bytes32",
          "name": "id",
          "type": "bytes32"
        },
        {
          "indexed": true,
          "internalType": "uint256",
          "name": "index",
          "type": "uint256"
        },
        {
          "indexed": false,
          "internalType": "address",
          "name": "target",
          "type": "address"
        },
        {
          "indexed": false,
          "internalType": "uint256",
          "name": "value",
          "type": "uint256"
        },
        {
          "indexed": false,
          "internalType": "bytes",
          "name": "data",
          "type": "bytes"
        },
        {
          "indexed": false,
          "internalType": "bytes32",
          "name": "predecessor",
          "type": "bytes32"
        },
        {
          "indexed": false,
          "internalType": "uint256",
          "name": "delay",
          "type": "uint256"
        }
      ],
      "name": "CallScheduled",
      "type": "event"
    },
    {
      "anonymous": false,
      "inputs": [
        {
          "indexed": true,
          "internalType": "bytes32",
          "name": "id",
          "type": "bytes32"
        }
      ],
      "name": "Cancelled",
      "type": "event"
    },
    {
      "anonymous": false,
      "inputs": [
        {
          "indexed": false,
          "internalType": "uint8",
          "name": "version",
          "type": "uint8"
        }
      ],
      "name": "Initialized",
      "type": "event"
    },
    {
      "anonymous": false,
      "inputs": [
        {
          "indexed": false,
          "internalType": "uint256",
          "name": "oldDuration",
          "type": "uint256"
        },
        {
          "indexed": false,
          "internalType": "uint256",
          "name": "newDuration",
          "type": "uint256"
        }
      ],
      "name": "MinDelayChange",
      "type": "event"
    },
    {
      "anonymous": false,
      "inputs": [
        {
          "indexed": false,
          "internalType": "address",
          "name": "newImplementation",
          "type": "address"
        }
      ],
      "name": "NewImplementationUpdate",
      "type": "event"
    },
    {
      "anonymous": false,
      "inputs": [
        {
          "indexed": false,
          "internalType": "address",
          "name": "ovnAgent",
          "type": "address"
        }
      ],
      "name": "OvnAgentUpdated",
      "type": "event"
    },
    {
      "anonymous": false,
      "inputs": [
        {
          "indexed": true,
          "internalType": "address",
          "name": "implementation",
          "type": "address"
        }
      ],
      "name": "Upgraded",
      "type": "event"
    },
    {
      "inputs": [],
      "name": "_onlyAgent",
      "outputs": [],
      "stateMutability": "nonpayable",
      "type": "function"
    },
    {
      "inputs": [],
      "name": "_onlyAgentMembers",
      "outputs": [],
      "stateMutability": "nonpayable",
      "type": "function"
    },
    {
      "inputs": [
        {
          "internalType": "bytes32",
          "name": "id",
          "type": "bytes32"
        }
      ],
      "name": "cancel",
      "outputs": [],
      "stateMutability": "nonpayable",
      "type": "function"
    },
    {
      "inputs": [
        {
          "internalType": "address",
          "name": "target",
          "type": "address"
        },
        {
          "internalType": "uint256",
          "name": "value",
          "type": "uint256"
        },
        {
          "internalType": "bytes",
          "name": "payload",
          "type": "bytes"
        },
        {
          "internalType": "bytes32",
          "name": "predecessor",
          "type": "bytes32"
        },
        {
          "internalType": "bytes32",
          "name": "salt",
          "type": "bytes32"
        }
      ],
      "name": "execute",
      "outputs": [],
      "stateMutability": "payable",
      "type": "function"
    },
    {
      "inputs": [
        {
          "internalType": "bytes32",
          "name": "commandId",
          "type": "bytes32"
        },
        {
          "internalType": "string",
          "name": "sourceChain",
          "type": "string"
        },
        {
          "internalType": "string",
          "name": "sourceAddress",
          "type": "string"
        },
        {
          "internalType": "bytes",
          "name": "payload",
          "type": "bytes"
        }
      ],
      "name": "execute",
      "outputs": [],
      "stateMutability": "nonpayable",
      "type": "function"
    },
    {
      "inputs": [
        {
          "internalType": "address[]",
          "name": "targets",
          "type": "address[]"
        },
        {
          "internalType": "uint256[]",
          "name": "values",
          "type": "uint256[]"
        },
        {
          "internalType": "bytes[]",
          "name": "payloads",
          "type": "bytes[]"
        },
        {
          "internalType": "bytes32",
          "name": "predecessor",
          "type": "bytes32"
        },
        {
          "internalType": "bytes32",
          "name": "salt",
          "type": "bytes32"
        }
      ],
      "name": "executeBatch",
      "outputs": [],
      "stateMutability": "payable",
      "type": "function"
    },
    {
      "inputs": [],
      "name": "gateway",
      "outputs": [
        {
          "internalType": "contract IAxelarGateway",
          "name": "",
          "type": "address"
        }
      ],
      "stateMutability": "view",
      "type": "function"
    },
    {
      "inputs": [],
      "name": "getMinDelay",
      "outputs": [
        {
          "internalType": "uint256",
          "name": "",
          "type": "uint256"
        }
      ],
      "stateMutability": "view",
      "type": "function"
    },
    {
      "inputs": [
        {
          "internalType": "bytes32",
          "name": "id",
          "type": "bytes32"
        }
      ],
      "name": "getTimestamp",
      "outputs": [
        {
          "internalType": "uint256",
          "name": "",
          "type": "uint256"
        }
      ],
      "stateMutability": "view",
      "type": "function"
    },
    {
      "inputs": [
        {
          "internalType": "address",
          "name": "target",
          "type": "address"
        },
        {
          "internalType": "uint256",
          "name": "value",
          "type": "uint256"
        },
        {
          "internalType": "bytes",
          "name": "data",
          "type": "bytes"
        },
        {
          "internalType": "bytes32",
          "name": "predecessor",
          "type": "bytes32"
        },
        {
          "internalType": "bytes32",
          "name": "salt",
          "type": "bytes32"
        }
      ],
      "name": "hashOperation",
      "outputs": [
        {
          "internalType": "bytes32",
          "name": "",
          "type": "bytes32"
        }
      ],
      "stateMutability": "pure",
      "type": "function"
    },
    {
      "inputs": [
        {
          "internalType": "address[]",
          "name": "targets",
          "type": "address[]"
        },
        {
          "internalType": "uint256[]",
          "name": "values",
          "type": "uint256[]"
        },
        {
          "internalType": "bytes[]",
          "name": "payloads",
          "type": "bytes[]"
        },
        {
          "internalType": "bytes32",
          "name": "predecessor",
          "type": "bytes32"
        },
        {
          "internalType": "bytes32",
          "name": "salt",
          "type": "bytes32"
        }
      ],
      "name": "hashOperationBatch",
      "outputs": [
        {
          "internalType": "bytes32",
          "name": "",
          "type": "bytes32"
        }
      ],
      "stateMutability": "pure",
      "type": "function"
    },
    {
      "inputs": [
        {
          "internalType": "address",
          "name": "_gateway",
          "type": "address"
        },
        {
          "internalType": "address",
          "name": "_motherTimelock",
          "type": "address"
        },
        {
          "internalType": "address",
          "name": "_ovnAgent",
          "type": "address"
        },
        {
          "internalType": "string",
          "name": "_motherChainId",
          "type": "string"
        }
      ],
      "name": "initialize",
      "outputs": [],
      "stateMutability": "nonpayable",
      "type": "function"
    },
    {
      "inputs": [],
      "name": "isMotherChain",
      "outputs": [
        {
          "internalType": "bool",
          "name": "",
          "type": "bool"
        }
      ],
      "stateMutability": "view",
      "type": "function"
    },
    {
      "inputs": [
        {
          "internalType": "bytes32",
          "name": "id",
          "type": "bytes32"
        }
      ],
      "name": "isOperation",
      "outputs": [
        {
          "internalType": "bool",
          "name": "",
          "type": "bool"
        }
      ],
      "stateMutability": "view",
      "type": "function"
    },
    {
      "inputs": [
        {
          "internalType": "bytes32",
          "name": "id",
          "type": "bytes32"
        }
      ],
      "name": "isOperationDone",
      "outputs": [
        {
          "internalType": "bool",
          "name": "",
          "type": "bool"
        }
      ],
      "stateMutability": "view",
      "type": "function"
    },
    {
      "inputs": [
        {
          "internalType": "bytes32",
          "name": "id",
          "type": "bytes32"
        }
      ],
      "name": "isOperationPending",
      "outputs": [
        {
          "internalType": "bool",
          "name": "",
          "type": "bool"
        }
      ],
      "stateMutability": "view",
      "type": "function"
    },
    {
      "inputs": [
        {
          "internalType": "bytes32",
          "name": "id",
          "type": "bytes32"
        }
      ],
      "name": "isOperationReady",
      "outputs": [
        {
          "internalType": "bool",
          "name": "",
          "type": "bool"
        }
      ],
      "stateMutability": "view",
      "type": "function"
    },
    {
      "inputs": [],
      "name": "motherChainId",
      "outputs": [
        {
          "internalType": "string",
          "name": "",
          "type": "string"
        }
      ],
      "stateMutability": "view",
      "type": "function"
    },
    {
      "inputs": [],
      "name": "motherTimelock",
      "outputs": [
        {
          "internalType": "address",
          "name": "",
          "type": "address"
        }
      ],
      "stateMutability": "view",
      "type": "function"
    },
    {
      "inputs": [],
      "name": "newImplementation",
      "outputs": [
        {
          "internalType": "address",
          "name": "",
          "type": "address"
        }
      ],
      "stateMutability": "view",
      "type": "function"
    },
    {
      "inputs": [
        {
          "internalType": "address",
          "name": "",
          "type": "address"
        },
        {
          "internalType": "address",
          "name": "",
          "type": "address"
        },
        {
          "internalType": "uint256[]",
          "name": "",
          "type": "uint256[]"
        },
        {
          "internalType": "uint256[]",
          "name": "",
          "type": "uint256[]"
        },
        {
          "internalType": "bytes",
          "name": "",
          "type": "bytes"
        }
      ],
      "name": "onERC1155BatchReceived",
      "outputs": [
        {
          "internalType": "bytes4",
          "name": "",
          "type": "bytes4"
        }
      ],
      "stateMutability": "nonpayable",
      "type": "function"
    },
    {
      "inputs": [
        {
          "internalType": "address",
          "name": "",
          "type": "address"
        },
        {
          "internalType": "address",
          "name": "",
          "type": "address"
        },
        {
          "internalType": "uint256",
          "name": "",
          "type": "uint256"
        },
        {
          "internalType": "uint256",
          "name": "",
          "type": "uint256"
        },
        {
          "internalType": "bytes",
          "name": "",
          "type": "bytes"
        }
      ],
      "name": "onERC1155Received",
      "outputs": [
        {
          "internalType": "bytes4",
          "name": "",
          "type": "bytes4"
        }
      ],
      "stateMutability": "nonpayable",
      "type": "function"
    },
    {
      "inputs": [
        {
          "internalType": "address",
          "name": "",
          "type": "address"
        },
        {
          "internalType": "address",
          "name": "",
          "type": "address"
        },
        {
          "internalType": "uint256",
          "name": "",
          "type": "uint256"
        },
        {
          "internalType": "bytes",
          "name": "",
          "type": "bytes"
        }
      ],
      "name": "onERC721Received",
      "outputs": [
        {
          "internalType": "bytes4",
          "name": "",
          "type": "bytes4"
        }
      ],
      "stateMutability": "nonpayable",
      "type": "function"
    },
    {
      "inputs": [],
      "name": "ovnAgent",
      "outputs": [
        {
          "internalType": "address",
          "name": "",
          "type": "address"
        }
      ],
      "stateMutability": "view",
      "type": "function"
    },
    {
      "inputs": [],
      "name": "proxiableUUID",
      "outputs": [
        {
          "internalType": "bytes32",
          "name": "",
          "type": "bytes32"
        }
      ],
      "stateMutability": "view",
      "type": "function"
    },
    {
      "inputs": [
        {
          "internalType": "address",
          "name": "target",
          "type": "address"
        },
        {
          "internalType": "uint256",
          "name": "value",
          "type": "uint256"
        },
        {
          "internalType": "bytes",
          "name": "data",
          "type": "bytes"
        },
        {
          "internalType": "bytes32",
          "name": "predecessor",
          "type": "bytes32"
        },
        {
          "internalType": "bytes32",
          "name": "salt",
          "type": "bytes32"
        },
        {
          "internalType": "uint256",
          "name": "delay",
          "type": "uint256"
        }
      ],
      "name": "schedule",
      "outputs": [],
      "stateMutability": "nonpayable",
      "type": "function"
    },
    {
      "inputs": [
        {
          "internalType": "address[]",
          "name": "targets",
          "type": "address[]"
        },
        {
          "internalType": "uint256[]",
          "name": "values",
          "type": "uint256[]"
        },
        {
          "internalType": "bytes[]",
          "name": "payloads",
          "type": "bytes[]"
        },
        {
          "internalType": "bytes32",
          "name": "predecessor",
          "type": "bytes32"
        },
        {
          "internalType": "bytes32",
          "name": "salt",
          "type": "bytes32"
        },
        {
          "internalType": "uint256",
          "name": "delay",
          "type": "uint256"
        }
      ],
      "name": "scheduleBatch",
      "outputs": [],
      "stateMutability": "nonpayable",
      "type": "function"
    },
    {
      "inputs": [
        {
          "internalType": "address",
          "name": "_newImplementation",
          "type": "address"
        }
      ],
      "name": "setNewImplementation",
      "outputs": [],
      "stateMutability": "nonpayable",
      "type": "function"
    },
    {
      "inputs": [
        {
          "internalType": "address",
          "name": "_ovnAgent",
          "type": "address"
        }
      ],
      "name": "setOvnAgent",
      "outputs": [],
      "stateMutability": "nonpayable",
      "type": "function"
    },
    {
      "inputs": [
        {
          "internalType": "bytes4",
          "name": "interfaceId",
          "type": "bytes4"
        }
      ],
      "name": "supportsInterface",
      "outputs": [
        {
          "internalType": "bool",
          "name": "",
          "type": "bool"
        }
      ],
      "stateMutability": "view",
      "type": "function"
    },
    {
      "inputs": [
        {
          "internalType": "uint256",
          "name": "newDelay",
          "type": "uint256"
        }
      ],
      "name": "updateDelay",
      "outputs": [],
      "stateMutability": "nonpayable",
      "type": "function"
    },
    {
      "inputs": [
        {
          "internalType": "address",
          "name": "newImplementation",
          "type": "address"
        }
      ],
      "name": "upgradeTo",
      "outputs": [],
      "stateMutability": "nonpayable",
      "type": "function"
    },
    {
      "inputs": [
        {
          "internalType": "address",
          "name": "newImplementation",
          "type": "address"
        },
        {
          "internalType": "bytes",
          "name": "data",
          "type": "bytes"
        }
      ],
      "name": "upgradeToAndCall",
      "outputs": [],
      "stateMutability": "payable",
      "type": "function"
    },
    {
      "stateMutability": "payable",
      "type": "receive"
    }
  ],
  "numDeployments": 1,
  "solcInputHash": "79af382f854d51c7b347c16d0423f3c4",
  "bytecode": "0x60a06040523060601b6080523480156200001857600080fd5b506200002362000029565b620000ea565b600054610100900460ff1615620000965760405162461bcd60e51b815260206004820152602760248201527f496e697469616c697a61626c653a20636f6e747261637420697320696e697469604482015266616c697a696e6760c81b606482015260840160405180910390fd5b60005460ff90811614620000e8576000805460ff191660ff9081179091556040519081527f7f26b83ff96e1f2b6a682f133852f6798a09c465da95921460cefb38474024989060200160405180910390a15b565b60805160601c61302b62000125600039600081816107f90152818161084201528181610afa01528181610b3a0152610bcd015261302b6000f3fe6080604052600436106101f25760003560e01c806364d623531161010d578063adb3ce92116100a0578063d45c44351161006f578063d45c4435146105c8578063e38335e5146105f5578063f23a6e6114610608578063f27a0c9214610634578063fd8163e51461064957600080fd5b8063adb3ce921461053c578063b1c5f4271461055c578063bc197c811461057c578063c4d252f5146105a857600080fd5b806387968bc4116100dc57806387968bc4146104c55780638b677b03146104da5780638f2a0bb0146104fa57806390ef0bc71461051a57600080fd5b806364d623531461044657806365e8e4f4146104665780638065657f146104865780638419b435146104a657600080fd5b806331d50750116101855780634f1ef286116101545780634f1ef286146103db57806352d1902d146103ee578063584b153e14610411578063616ec3a21461043157600080fd5b806331d507501461035b578063334844551461037b5780633659cfe61461039b57806349160658146103bb57600080fd5b806313bc9f20116101c157806313bc9f20146102b15780631485227c146102d1578063150b7a02146102f15780632ab0f5291461032a57600080fd5b806301d5062a146101fe57806301ffc9a714610220578063116191b614610266578063134008d31461029e57600080fd5b366101f957005b600080fd5b34801561020a57600080fd5b5061021e6102193660046121cf565b610669565b005b34801561022c57600080fd5b5061025161023b366004612245565b6001600160e01b031916630271189760e51b1490565b60405190151581526020015b60405180910390f35b34801561027257600080fd5b50609a54610286906001600160a01b031681565b6040516001600160a01b03909116815260200161025d565b61021e6102ac36600461226f565b61071c565b3480156102bd57600080fd5b506102516102cc3660046122dc565b61079e565b3480156102dd57600080fd5b50609754610286906001600160a01b031681565b3480156102fd57600080fd5b5061031161030c3660046123b2565b6107c4565b6040516001600160e01b0319909116815260200161025d565b34801561033657600080fd5b506102516103453660046122dc565b6000908152600160208190526040909120541490565b34801561036757600080fd5b506102516103763660046122dc565b6107d5565b34801561038757600080fd5b50609854610286906001600160a01b031681565b3480156103a757600080fd5b5061021e6103b636600461241d565b6107ee565b3480156103c757600080fd5b5061021e6103d636600461243a565b6108d7565b61021e6103e93660046124dd565b610aef565b3480156103fa57600080fd5b50610403610bc0565b60405190815260200161025d565b34801561041d57600080fd5b5061025161042c3660046122dc565b610c73565b34801561043d57600080fd5b5061021e610c89565b34801561045257600080fd5b5061021e6104613660046122dc565b610cd5565b34801561047257600080fd5b5061021e61048136600461252c565b610d79565b34801561049257600080fd5b506104036104a136600461226f565b610fe9565b3480156104b257600080fd5b50609a546001600160a01b031615610251565b3480156104d157600080fd5b5061021e611028565b3480156104e657600080fd5b50609b54610286906001600160a01b031681565b34801561050657600080fd5b5061021e6105153660046125ec565b611167565b34801561052657600080fd5b5061052f6112d7565b60405161025d91906126c9565b34801561054857600080fd5b5061021e61055736600461241d565b611365565b34801561056857600080fd5b506104036105773660046126fc565b6113e6565b34801561058857600080fd5b50610311610597366004612832565b63bc197c8160e01b95945050505050565b3480156105b457600080fd5b5061021e6105c33660046122dc565b61142b565b3480156105d457600080fd5b506104036105e33660046122dc565b60009081526001602052604090205490565b61021e6106033660046126fc565b6114dd565b34801561061457600080fd5b506103116106233660046128df565b63f23a6e6160e01b95945050505050565b34801561064057600080fd5b50600254610403565b34801561065557600080fd5b5061021e61066436600461241d565b611634565b610671610c89565b6000610681888888888888610fe9565b905061068d81836116b5565b6000817f4cf4410cc57040e44862ef0f45f3dd5a5e02db8eb8add648d4b0e236f1d07dca8a8a8a8a8a896040516106c996959493929190612970565b60405180910390a3821561071257807f20fda5fd27a1ea7bf5b9567f143ac5470bb059374a27e8f67cb44f946f6d03878460405161070991815260200190565b60405180910390a25b5050505050505050565b610724611028565b6000610734878787878787610fe9565b905061074081846117a4565b61074c87878787611840565b6000817fc2617efa69bab66782fa219543714338489c4e9e178271560a91b82c3f612b588989898960405161078494939291906129ad565b60405180910390a36107958161190c565b50505050505050565b6000818152600160205260408120546001811180156107bd5750428111155b9392505050565b630a85bd0160e11b5b949350505050565b60008181526001602052604081205481905b1192915050565b306001600160a01b037f00000000000000000000000000000000000000000000000000000000000000001614156108405760405162461bcd60e51b8152600401610837906129d5565b60405180910390fd5b7f00000000000000000000000000000000000000000000000000000000000000006001600160a01b0316610889600080516020612faf833981519152546001600160a01b031690565b6001600160a01b0316146108af5760405162461bcd60e51b815260040161083790612a21565b6108b881611945565b604080516000808252602082019092526108d4918391906119da565b50565b609a546001600160a01b03166109215760405162461bcd60e51b815260206004820152600f60248201526e3737ba1036b7ba3432b921b430b4b760891b6044820152606401610837565b60008282604051610933929190612a6d565b604051908190038120609a54635f6970c360e01b83529092506001600160a01b031690635f6970c390610974908b908b908b908b908b908990600401612a7d565b602060405180830381600087803b15801561098e57600080fd5b505af11580156109a2573d6000803e3d6000fd5b505050506040513d601f19601f820116820180604052508101906109c69190612abe565b6109e357604051631403112d60e21b815260040160405180910390fd5b6000610a2486868080601f016020809104026020016040519081016040528093929190818152602001838380828437600092019190915250611b5992505050565b6098549091506001600160a01b03808316911614610a545760405162461bcd60e51b815260040161083790612ae0565b6099604051610a639190612b48565b60405180910390208888604051610a7b929190612a6d565b604051809103902014610ac55760405162461bcd60e51b81526020600482015260126024820152711bdb9b1e481b5bdd1a195c90da185a5b925960721b6044820152606401610837565b600080610ad485870187612be4565b91509150610ae28282611cd8565b5050505050505050505050565b306001600160a01b037f0000000000000000000000000000000000000000000000000000000000000000161415610b385760405162461bcd60e51b8152600401610837906129d5565b7f00000000000000000000000000000000000000000000000000000000000000006001600160a01b0316610b81600080516020612faf833981519152546001600160a01b031690565b6001600160a01b031614610ba75760405162461bcd60e51b815260040161083790612a21565b610bb082611945565b610bbc828260016119da565b5050565b6000306001600160a01b037f00000000000000000000000000000000000000000000000000000000000000001614610c605760405162461bcd60e51b815260206004820152603860248201527f555550535570677261646561626c653a206d757374206e6f742062652063616c60448201527f6c6564207468726f7567682064656c656761746563616c6c00000000000000006064820152608401610837565b50600080516020612faf83398151915290565b60008181526001602081905260408220546107e7565b6097546001600160a01b03163314610cd35760405162461bcd60e51b815260206004820152600d60248201526c1bdb9b1e481bdd9b9059d95b9d609a1b6044820152606401610837565b565b333014610d385760405162461bcd60e51b815260206004820152602b60248201527f54696d656c6f636b436f6e74726f6c6c65723a2063616c6c6572206d7573742060448201526a62652074696d656c6f636b60a81b6064820152608401610837565b60025460408051918252602082018390527f11c24f4ead16507c69ac467fbd5e4eed5fb5c699626d2cc6d66421df253886d5910160405180910390a1600255565b600054610100900460ff1615808015610d995750600054600160ff909116105b80610db35750303b158015610db3575060005460ff166001145b610e165760405162461bcd60e51b815260206004820152602e60248201527f496e697469616c697a61626c653a20636f6e747261637420697320616c72656160448201526d191e481a5b9a5d1a585b1a5e995960921b6064820152608401610837565b6000805460ff191660011790558015610e39576000805461ff0019166101001790555b6001600160a01b038416610e885760405162461bcd60e51b81526020600482015260166024820152756d6f7468657254696d656c6f636b206973207a65726f60501b6044820152606401610837565b6001600160a01b038316610ed15760405162461bcd60e51b815260206004820152601060248201526f6f766e4167656e74206973207a65726f60801b6044820152606401610837565b8151610f1f5760405162461bcd60e51b815260206004820152601760248201527f5f6d6f74686572436861696e496420697320656d7074790000000000000000006044820152606401610837565b6001600160a01b03851615610f4a57609a80546001600160a01b0319166001600160a01b0387161790555b609880546001600160a01b0319166001600160a01b0386161790558151610f789060999060208501906120d9565b50609780546001600160a01b0319166001600160a01b038516179055610f9c611e34565b8015610fe2576000805461ff0019169055604051600181527f7f26b83ff96e1f2b6a682f133852f6798a09c465da95921460cefb38474024989060200160405180910390a15b5050505050565b600086868686868660405160200161100696959493929190612970565b6040516020818303038152906040528051906020012090509695505050505050565b6097546001600160a01b031633148061111a576097546040805163a0e67e2b60e01b815290516000926001600160a01b03169163a0e67e2b9160048083019286929190829003018186803b15801561107f57600080fd5b505afa158015611093573d6000803e3d6000fd5b505050506040513d6000823e601f3d908101601f191682016040526110bb9190810190612c21565b905060005b815181101561111757336001600160a01b03168282815181106110e5576110e5612cba565b60200260200101516001600160a01b031614156111055760019250611117565b8061110f81612ce6565b9150506110c0565b50505b806108d45760405162461bcd60e51b815260206004820152601f60248201527f6f6e6c79206f766e4167656e74206f72206f766e4167656e744d656d626572006044820152606401610837565b61116f610c89565b87861461118e5760405162461bcd60e51b815260040161083790612d01565b8784146111ad5760405162461bcd60e51b815260040161083790612d01565b60006111bf8a8a8a8a8a8a8a8a6113e6565b90506111cb81836116b5565b60005b898110156112895780827f4cf4410cc57040e44862ef0f45f3dd5a5e02db8eb8add648d4b0e236f1d07dca8d8d8581811061120b5761120b612cba565b9050602002016020810190611220919061241d565b8c8c8681811061123257611232612cba565b905060200201358b8b8781811061124b5761124b612cba565b905060200281019061125d9190612d44565b8b8a60405161127196959493929190612970565b60405180910390a361128281612ce6565b90506111ce565b5082156112cb57807f20fda5fd27a1ea7bf5b9567f143ac5470bb059374a27e8f67cb44f946f6d0387846040516112c291815260200190565b60405180910390a25b50505050505050505050565b609980546112e490612b0d565b80601f016020809104026020016040519081016040528092919081815260200182805461131090612b0d565b801561135d5780601f106113325761010080835404028352916020019161135d565b820191906000526020600020905b81548152906001019060200180831161134057829003601f168201915b505050505081565b609a546001600160a01b0316156113b15760405162461bcd60e51b815260206004820152601060248201526f37b7363c9036b7ba3432b921b430b4b760811b6044820152606401610837565b6098546001600160a01b031633146113db5760405162461bcd60e51b815260040161083790612ae0565b6108d4600182611cd8565b60008888888888888888604051602001611407989796959493929190612e1a565b60405160208183030381529060405280519060200120905098975050505050505050565b611433611028565b61143c81610c73565b6114a25760405162461bcd60e51b815260206004820152603160248201527f54696d656c6f636b436f6e74726f6c6c65723a206f7065726174696f6e2063616044820152701b9b9bdd0818994818d85b98d95b1b1959607a1b6064820152608401610837565b6000818152600160205260408082208290555182917fbaa1eb22f2a492ba1a5fea61b8df4d27c6c8b5f3971e63bb58fa14ff72eedb7091a250565b6114e5611028565b8685146115045760405162461bcd60e51b815260040161083790612d01565b8683146115235760405162461bcd60e51b815260040161083790612d01565b600061153589898989898989896113e6565b905061154181846117a4565b60005b8881101561161f5760008a8a8381811061156057611560612cba565b9050602002016020810190611575919061241d565b9050600089898481811061158b5761158b612cba565b9050602002013590503660008989868181106115a9576115a9612cba565b90506020028101906115bb9190612d44565b915091506115cb84848484611840565b84867fc2617efa69bab66782fa219543714338489c4e9e178271560a91b82c3f612b588686868660405161160294939291906129ad565b60405180910390a3505050508061161890612ce6565b9050611544565b506116298161190c565b505050505050505050565b609a546001600160a01b0316156116805760405162461bcd60e51b815260206004820152601060248201526f37b7363c9036b7ba3432b921b430b4b760811b6044820152606401610837565b6098546001600160a01b031633146116aa5760405162461bcd60e51b815260040161083790612ae0565b6108d4600082611cd8565b6116be826107d5565b156117235760405162461bcd60e51b815260206004820152602f60248201527f54696d656c6f636b436f6e74726f6c6c65723a206f7065726174696f6e20616c60448201526e1c9958591e481cd8da19591d5b1959608a1b6064820152608401610837565b6002548110156117845760405162461bcd60e51b815260206004820152602660248201527f54696d656c6f636b436f6e74726f6c6c65723a20696e73756666696369656e746044820152652064656c617960d01b6064820152608401610837565b61178e8142612ec7565b6000928352600160205260409092209190915550565b6117ad8261079e565b6117c95760405162461bcd60e51b815260040161083790612edf565b8015806117e55750600081815260016020819052604090912054145b610bbc5760405162461bcd60e51b815260206004820152602660248201527f54696d656c6f636b436f6e74726f6c6c65723a206d697373696e6720646570656044820152656e64656e637960d01b6064820152608401610837565b6000846001600160a01b031684848460405161185d929190612a6d565b60006040518083038185875af1925050503d806000811461189a576040519150601f19603f3d011682016040523d82523d6000602084013e61189f565b606091505b5050905080610fe25760405162461bcd60e51b815260206004820152603360248201527f54696d656c6f636b436f6e74726f6c6c65723a20756e6465726c79696e6720746044820152721c985b9cd858dd1a5bdb881c995d995c9d1959606a1b6064820152608401610837565b6119158161079e565b6119315760405162461bcd60e51b815260040161083790612edf565b600090815260016020819052604090912055565b61194d611028565b609b546001600160a01b031661197d57609b80546001600160a01b0383166001600160a01b031990911617905550565b609b546001600160a01b038281169116146108d45760405162461bcd60e51b815260206004820152601c60248201527f4e657720696d706c656d656e746174696f6e206e6f7420657175616c000000006044820152606401610837565b7f4910fdfa16fed3260ed0e7147f7cc6da11a60208b5b9406d12a635614ffd91435460ff1615611a1257611a0d83611e9f565b505050565b826001600160a01b03166352d1902d6040518163ffffffff1660e01b815260040160206040518083038186803b158015611a4b57600080fd5b505afa925050508015611a7b575060408051601f3d908101601f19168201909252611a7891810190612f29565b60015b611ade5760405162461bcd60e51b815260206004820152602e60248201527f45524331393637557067726164653a206e657720696d706c656d656e7461746960448201526d6f6e206973206e6f74205555505360901b6064820152608401610837565b600080516020612faf8339815191528114611b4d5760405162461bcd60e51b815260206004820152602960248201527f45524331393637557067726164653a20756e737570706f727465642070726f786044820152681a58589b195555525160ba1b6064820152608401610837565b50611a0d838383611f3b565b6000808290506000808251602a141580611b99575082600081518110611b8157611b81612cba565b6020910101516001600160f81b031916600360fc1b14155b80611bca575082600181518110611bb257611bb2612cba565b6020910101516001600160f81b031916600f60fb1b14155b15611be857604051636fa478cf60e11b815260040160405180910390fd5b60025b602a811015611cce57838181518110611c0657611c06612cba565b016020015160f81c915060618210801590611c25575060668260ff1611155b15611c3c57611c35605783612f42565b9150611ca5565b60418260ff1610158015611c54575060468260ff1611155b15611c6457611c35603783612f42565b60308260ff1610158015611c7c575060398260ff1611155b15611c8c57611c35603083612f42565b604051636fa478cf60e11b815260040160405180910390fd5b6002611cb2826029612f65565b60ff8416911b1b9290921791611cc781612ce6565b9050611beb565b5090949350505050565b6001600160a01b038116611d235760405162461bcd60e51b815260206004820152601260248201527173657441646472657373206973207a65726f60701b6044820152606401610837565b6000826001811115611d3757611d37612f7c565b1415611d9357609780546001600160a01b0319166001600160a01b0383169081179091556040519081527f3e225b458c4d2a88650a05f1633b5f87336c0c67a43ea4338c3240fd2d762427906020015b60405180910390a15050565b6001826001811115611da757611da7612f7c565b1415611dfb57609b80546001600160a01b0319166001600160a01b0383169081179091556040519081527f20d3b0c7398674ab7b0dfb6f79e18990b5d29b056f2e59ed40aa40d2813c34f390602001611d87565b60405162461bcd60e51b815260206004820152600e60248201526d2ab735b737bbb71030b1ba34b7b760911b6044820152606401610837565b600054610100900460ff16610cd35760405162461bcd60e51b815260206004820152602b60248201527f496e697469616c697a61626c653a20636f6e7472616374206973206e6f74206960448201526a6e697469616c697a696e6760a81b6064820152608401610837565b6001600160a01b0381163b611f0c5760405162461bcd60e51b815260206004820152602d60248201527f455243313936373a206e657720696d706c656d656e746174696f6e206973206e60448201526c1bdd08184818dbdb9d1c9858dd609a1b6064820152608401610837565b600080516020612faf83398151915280546001600160a01b0319166001600160a01b0392909216919091179055565b611f4483611f66565b600082511180611f515750805b15611a0d57611f608383611fa6565b50505050565b611f6f81611e9f565b6040516001600160a01b038216907fbc7cd75a20ee27fd9adebab32041f755214dbc6bffa90cc0225b39da2e5c2d3b90600090a250565b60606107bd8383604051806060016040528060278152602001612fcf602791396060600080856001600160a01b031685604051611fe39190612f92565b600060405180830381855af49150503d806000811461201e576040519150601f19603f3d011682016040523d82523d6000602084013e612023565b606091505b50915091506120348683838761203e565b9695505050505050565b606083156120aa5782516120a3576001600160a01b0385163b6120a35760405162461bcd60e51b815260206004820152601d60248201527f416464726573733a2063616c6c20746f206e6f6e2d636f6e74726163740000006044820152606401610837565b50816107cd565b6107cd83838151156120bf5781518083602001fd5b8060405162461bcd60e51b815260040161083791906126c9565b8280546120e590612b0d565b90600052602060002090601f016020900481019282612107576000855561214d565b82601f1061212057805160ff191683800117855561214d565b8280016001018555821561214d579182015b8281111561214d578251825591602001919060010190612132565b5061215992915061215d565b5090565b5b80821115612159576000815560010161215e565b6001600160a01b03811681146108d457600080fd5b60008083601f84011261219957600080fd5b5081356001600160401b038111156121b057600080fd5b6020830191508360208285010111156121c857600080fd5b9250929050565b600080600080600080600060c0888a0312156121ea57600080fd5b87356121f581612172565b96506020880135955060408801356001600160401b0381111561221757600080fd5b6122238a828b01612187565b989b979a50986060810135976080820135975060a09091013595509350505050565b60006020828403121561225757600080fd5b81356001600160e01b0319811681146107bd57600080fd5b60008060008060008060a0878903121561228857600080fd5b863561229381612172565b95506020870135945060408701356001600160401b038111156122b557600080fd5b6122c189828a01612187565b979a9699509760608101359660809091013595509350505050565b6000602082840312156122ee57600080fd5b5035919050565b634e487b7160e01b600052604160045260246000fd5b604051601f8201601f191681016001600160401b0381118282101715612333576123336122f5565b604052919050565b60006001600160401b03831115612354576123546122f5565b612367601f8401601f191660200161230b565b905082815283838301111561237b57600080fd5b828260208301376000602084830101529392505050565b600082601f8301126123a357600080fd5b6107bd8383356020850161233b565b600080600080608085870312156123c857600080fd5b84356123d381612172565b935060208501356123e381612172565b92506040850135915060608501356001600160401b0381111561240557600080fd5b61241187828801612392565b91505092959194509250565b60006020828403121561242f57600080fd5b81356107bd81612172565b60008060008060008060006080888a03121561245557600080fd5b8735965060208801356001600160401b038082111561247357600080fd5b61247f8b838c01612187565b909850965060408a013591508082111561249857600080fd5b6124a48b838c01612187565b909650945060608a01359150808211156124bd57600080fd5b506124ca8a828b01612187565b989b979a50959850939692959293505050565b600080604083850312156124f057600080fd5b82356124fb81612172565b915060208301356001600160401b0381111561251657600080fd5b61252285828601612392565b9150509250929050565b6000806000806080858703121561254257600080fd5b843561254d81612172565b9350602085013561255d81612172565b9250604085013561256d81612172565b915060608501356001600160401b0381111561258857600080fd5b8501601f8101871361259957600080fd5b6124118782356020840161233b565b60008083601f8401126125ba57600080fd5b5081356001600160401b038111156125d157600080fd5b6020830191508360208260051b85010111156121c857600080fd5b600080600080600080600080600060c08a8c03121561260a57600080fd5b89356001600160401b038082111561262157600080fd5b61262d8d838e016125a8565b909b50995060208c013591508082111561264657600080fd5b6126528d838e016125a8565b909950975060408c013591508082111561266b57600080fd5b506126788c828d016125a8565b9a9d999c50979a969997986060880135976080810135975060a0013595509350505050565b60005b838110156126b85781810151838201526020016126a0565b83811115611f605750506000910152565b60208152600082518060208401526126e881604085016020870161269d565b601f01601f19169190910160400192915050565b60008060008060008060008060a0898b03121561271857600080fd5b88356001600160401b038082111561272f57600080fd5b61273b8c838d016125a8565b909a50985060208b013591508082111561275457600080fd5b6127608c838d016125a8565b909850965060408b013591508082111561277957600080fd5b506127868b828c016125a8565b999c989b509699959896976060870135966080013595509350505050565b60006001600160401b038211156127bd576127bd6122f5565b5060051b60200190565b600082601f8301126127d857600080fd5b813560206127ed6127e8836127a4565b61230b565b82815260059290921b8401810191818101908684111561280c57600080fd5b8286015b848110156128275780358352918301918301612810565b509695505050505050565b600080600080600060a0868803121561284a57600080fd5b853561285581612172565b9450602086013561286581612172565b935060408601356001600160401b038082111561288157600080fd5b61288d89838a016127c7565b945060608801359150808211156128a357600080fd5b6128af89838a016127c7565b935060808801359150808211156128c557600080fd5b506128d288828901612392565b9150509295509295909350565b600080600080600060a086880312156128f757600080fd5b853561290281612172565b9450602086013561291281612172565b9350604086013592506060860135915060808601356001600160401b0381111561293b57600080fd5b6128d288828901612392565b81835281816020850137506000828201602090810191909152601f909101601f19169091010190565b60018060a01b038716815285602082015260a06040820152600061299860a083018688612947565b60608301949094525060800152949350505050565b60018060a01b0385168152836020820152606060408201526000612034606083018486612947565b6020808252602c908201527f46756e6374696f6e206d7573742062652063616c6c6564207468726f7567682060408201526b19195b1959d85d1958d85b1b60a21b606082015260800190565b6020808252602c908201527f46756e6374696f6e206d7573742062652063616c6c6564207468726f7567682060408201526b6163746976652070726f787960a01b606082015260800190565b8183823760009101908152919050565b868152608060208201526000612a97608083018789612947565b8281036040840152612aaa818688612947565b915050826060830152979650505050505050565b600060208284031215612ad057600080fd5b815180151581146107bd57600080fd5b6020808252601390820152726f6e6c79206d6f7468657254696d656c6f636b60681b604082015260600190565b600181811c90821680612b2157607f821691505b60208210811415612b4257634e487b7160e01b600052602260045260246000fd5b50919050565b600080835481600182811c915080831680612b6457607f831692505b6020808410821415612b8457634e487b7160e01b86526022600452602486fd5b818015612b985760018114612ba957612bd6565b60ff19861689528489019650612bd6565b60008a81526020902060005b86811015612bce5781548b820152908501908301612bb5565b505084890196505b509498975050505050505050565b60008060408385031215612bf757600080fd5b823560028110612c0657600080fd5b91506020830135612c1681612172565b809150509250929050565b60006020808385031215612c3457600080fd5b82516001600160401b03811115612c4a57600080fd5b8301601f81018513612c5b57600080fd5b8051612c696127e8826127a4565b81815260059190911b82018301908381019087831115612c8857600080fd5b928401925b82841015612caf578351612ca081612172565b82529284019290840190612c8d565b979650505050505050565b634e487b7160e01b600052603260045260246000fd5b634e487b7160e01b600052601160045260246000fd5b6000600019821415612cfa57612cfa612cd0565b5060010190565b60208082526023908201527f54696d656c6f636b436f6e74726f6c6c65723a206c656e677468206d69736d616040820152620e8c6d60eb1b606082015260800190565b6000808335601e19843603018112612d5b57600080fd5b8301803591506001600160401b03821115612d7557600080fd5b6020019150368190038213156121c857600080fd5b81835260006020808501808196508560051b810191508460005b87811015612e0d5782840389528135601e19883603018112612dc557600080fd5b870180356001600160401b03811115612ddd57600080fd5b803603891315612dec57600080fd5b612df98682898501612947565b9a87019a9550505090840190600101612da4565b5091979650505050505050565b60a0808252810188905260008960c08301825b8b811015612e5d578235612e4081612172565b6001600160a01b0316825260209283019290910190600101612e2d565b5083810360208501528881526001600160fb1b03891115612e7d57600080fd5b8860051b9150818a602083013781810191505060208101600081526020848303016040850152612eae81888a612d8a565b6060850196909652505050608001529695505050505050565b60008219821115612eda57612eda612cd0565b500190565b6020808252602a908201527f54696d656c6f636b436f6e74726f6c6c65723a206f7065726174696f6e206973604082015269206e6f7420726561647960b01b606082015260800190565b600060208284031215612f3b57600080fd5b5051919050565b600060ff821660ff841680821015612f5c57612f5c612cd0565b90039392505050565b600082821015612f7757612f77612cd0565b500390565b634e487b7160e01b600052602160045260246000fd5b60008251612fa481846020870161269d565b919091019291505056fe360894a13ba1a3210667c828492db98dca3e2076cc3735a920a3ca505d382bbc416464726573733a206c6f772d6c6576656c2064656c65676174652063616c6c206661696c6564a2646970667358221220c6ce96e57c90881fde3081534bc05d6fd0f78218fface6f2ceb3d02e0f00a95864736f6c63430008080033",
  "implementation": "0x80522Ed45676b765c2b43733829bcE8139DF05D9",
  "devdoc": {
    "details": "Modified OpenZeppelin Timelock under requirements Overnight Support two mode: - MOTHER CHAIN - CHILD CHAIN In Mother Chain mode: MotherTimelock exist on same chain with AgentTimelock. MotherTimelock directly change ovnAgent or upgrade AgentTimelock Available methods: - setOvnAgent - setNewImplementation In Child Chain Mode: MotherTimelock exist on a different basic chain from AgentTimelock MotherTimelock send transaction to Axelar on Mother Chain Axelar send translation to Child Chain Axelar Gateway on Child Chain call method directly: execute Available methods: - execute [Not to be confused with methods Timelock: execute, executeBatch]",
    "kind": "dev",
    "methods": {
      "_onlyAgent()": {
        "details": "Calling in modifier onlyAgent (see TimelockControllerUpgradeable) Checks permissions for executing methods: - schedule - scheduleBatch"
      },
      "_onlyAgentMembers()": {
        "details": "Calling in modifier onlyAgentMembers (see TimelockControllerUpgradeable) Checks permissions for executing methods: - cancel - execute - executeBatch Allow calling methods only ovnAgent or members of ovnAgent"
      },
      "cancel(bytes32)": {
        "details": "Cancel an operation. Requirements: - the caller must have the 'canceller' role."
      },
      "constructor": {
        "custom:oz-upgrades-unsafe-allow": "constructor"
      },
      "execute(address,uint256,bytes,bytes32,bytes32)": {
        "details": "Execute an (ready) operation containing a single transaction. Emits a {CallExecuted} event. Requirements: - the caller must have the 'executor' role."
      },
      "execute(bytes32,string,string,bytes)": {
        "details": "Allow to update ovnAgent or newImplementation by Axelar How is it working? MotherTimelock (Optimism) > send translation to Axelar -> Axelar Gateway execute it Working only on CHILD Chain",
        "params": {
          "payload": "- ['ActionOnAgent(uint256)', 'setAddress(address)'] Available params: ActionOnAgent:  0 - SET_NEW_AGENT  1 -  UPGRADE_TIMELOCK setAddress: - Address a new OvnAgent - Address a new implementation"
        }
      },
      "executeBatch(address[],uint256[],bytes[],bytes32,bytes32)": {
        "details": "Execute an (ready) operation containing a batch of transactions. Emits one {CallExecuted} event per transaction in the batch. Requirements: - the caller must have the 'executor' role."
      },
      "getMinDelay()": {
        "details": "Returns the minimum delay for an operation to become valid. This value can be changed by executing an operation that calls `updateDelay`."
      },
      "getTimestamp(bytes32)": {
        "details": "Returns the timestamp at which an operation becomes ready (0 for unset operations, 1 for done operations)."
      },
      "hashOperation(address,uint256,bytes,bytes32,bytes32)": {
        "details": "Returns the identifier of an operation containing a single transaction."
      },
      "hashOperationBatch(address[],uint256[],bytes[],bytes32,bytes32)": {
        "details": "Returns the identifier of an operation containing a batch of transactions."
      },
      "isOperation(bytes32)": {
        "details": "Returns whether an id correspond to a registered operation. This includes both Pending, Ready and Done operations."
      },
      "isOperationDone(bytes32)": {
        "details": "Returns whether an operation is done or not."
      },
      "isOperationPending(bytes32)": {
        "details": "Returns whether an operation is pending or not. Note that a \"pending\" operation may also be \"ready\"."
      },
      "isOperationReady(bytes32)": {
        "details": "Returns whether an operation is ready for execution. Note that a \"ready\" operation is also \"pending\"."
      },
      "onERC1155BatchReceived(address,address,uint256[],uint256[],bytes)": {
        "details": "See {IERC1155Receiver-onERC1155BatchReceived}."
      },
      "onERC1155Received(address,address,uint256,uint256,bytes)": {
        "details": "See {IERC1155Receiver-onERC1155Received}."
      },
      "onERC721Received(address,address,uint256,bytes)": {
        "details": "See {IERC721Receiver-onERC721Received}."
      },
      "proxiableUUID()": {
        "details": "Implementation of the ERC1822 {proxiableUUID} function. This returns the storage slot used by the implementation. It is used to validate the implementation's compatibility when performing an upgrade. IMPORTANT: A proxy pointing at a proxiable contract should not be considered proxiable itself, because this risks bricking a proxy that upgrades to it, by delegating to itself until out of gas. Thus it is critical that this function revert if invoked through a proxy. This is guaranteed by the `notDelegated` modifier."
      },
      "schedule(address,uint256,bytes,bytes32,bytes32,uint256)": {
        "details": "Schedule an operation containing a single transaction. Emits {CallSalt} if salt is nonzero, and {CallScheduled}. Requirements: - the caller must have the 'proposer' role."
      },
      "scheduleBatch(address[],uint256[],bytes[],bytes32,bytes32,uint256)": {
        "details": "Schedule an operation containing a batch of transactions. Emits {CallSalt} if salt is nonzero, and one {CallScheduled} event per transaction in the batch. Requirements: - the caller must have the 'proposer' role."
      },
      "setNewImplementation(address)": {
        "details": "Set a new implementation address Working only on MOTHER Chain Calling only MOTHER TIMELOCK"
      },
      "setOvnAgent(address)": {
        "details": "Set a new OVN Agent Working only on MOTHER Chain Calling only MOTHER TIMELOCK"
      },
      "supportsInterface(bytes4)": {
        "details": "See {IERC165-supportsInterface}."
      },
      "updateDelay(uint256)": {
        "details": "Changes the minimum timelock duration for future operations. Emits a {MinDelayChange} event. Requirements: - the caller must be the timelock itself. This can only be achieved by scheduling and later executing an operation where the timelock is the target and the data is the ABI-encoded call to this function."
      },
      "upgradeTo(address)": {
        "custom:oz-upgrades-unsafe-allow-reachable": "delegatecall",
        "details": "Upgrade the implementation of the proxy to `newImplementation`. Calls {_authorizeUpgrade}. Emits an {Upgraded} event."
      },
      "upgradeToAndCall(address,bytes)": {
        "custom:oz-upgrades-unsafe-allow-reachable": "delegatecall",
        "details": "Upgrade the implementation of the proxy to `newImplementation`, and subsequently execute the function call encoded in `data`. Calls {_authorizeUpgrade}. Emits an {Upgraded} event."
      }
    },
    "stateVariables": {
      "motherTimelock": {
        "details": "Timelock to allow to change ovnAgent If is it mother chain (Optimism) then need to execute method: setOvnAgent() if is it child chain (!Optimism) then need to use Axelar Gateway"
      },
      "ovnAgent": {
        "details": "Confidant MultiSig - allow to change protocol USD+ Can execute methods: - schedule - scheduleBatch Members of MultiSig: Can execute methods: - cancel - execute - executeBatch"
      }
    },
    "version": 1
  },
  "userdoc": {
    "kind": "user",
    "methods": {
      "execute(bytes32,string,string,bytes)": {
        "notice": "[ONLY CHILD CHAIN MODE]"
      },
      "setNewImplementation(address)": {
        "notice": "[ONLY MOTHER CHAIN MODE]"
      },
      "setOvnAgent(address)": {
        "notice": "[ONLY MOTHER CHAIN MODE]"
      }
    },
    "version": 1
  },
  "storageLayout": {
    "storage": [
      {
        "astId": 1044,
        "contract": "contracts/AgentTimelock.sol:AgentTimelock",
        "label": "_initialized",
        "offset": 0,
        "slot": "0",
        "type": "t_uint8"
      },
      {
        "astId": 1047,
        "contract": "contracts/AgentTimelock.sol:AgentTimelock",
        "label": "_initializing",
        "offset": 1,
        "slot": "0",
        "type": "t_bool"
      },
      {
        "astId": 2322,
        "contract": "contracts/AgentTimelock.sol:AgentTimelock",
        "label": "_timestamps",
        "offset": 0,
        "slot": "1",
        "type": "t_mapping(t_bytes32,t_uint256)"
      },
      {
        "astId": 2324,
        "contract": "contracts/AgentTimelock.sol:AgentTimelock",
        "label": "_minDelay",
        "offset": 0,
        "slot": "2",
        "type": "t_uint256"
      },
      {
        "astId": 3104,
        "contract": "contracts/AgentTimelock.sol:AgentTimelock",
        "label": "__gap",
        "offset": 0,
        "slot": "3",
        "type": "t_array(t_uint256)48_storage"
      },
      {
        "astId": 1026,
        "contract": "contracts/AgentTimelock.sol:AgentTimelock",
        "label": "__gap",
        "offset": 0,
        "slot": "51",
        "type": "t_array(t_uint256)50_storage"
      },
      {
        "astId": 1341,
        "contract": "contracts/AgentTimelock.sol:AgentTimelock",
        "label": "__gap",
        "offset": 0,
        "slot": "101",
        "type": "t_array(t_uint256)50_storage"
      },
      {
        "astId": 1874,
        "contract": "contracts/AgentTimelock.sol:AgentTimelock",
        "label": "ovnAgent",
        "offset": 0,
        "slot": "151",
        "type": "t_address"
      },
      {
        "astId": 1877,
        "contract": "contracts/AgentTimelock.sol:AgentTimelock",
        "label": "motherTimelock",
        "offset": 0,
        "slot": "152",
        "type": "t_address"
      },
      {
        "astId": 1879,
        "contract": "contracts/AgentTimelock.sol:AgentTimelock",
        "label": "motherChainId",
        "offset": 0,
        "slot": "153",
        "type": "t_string_storage"
      },
      {
        "astId": 1882,
        "contract": "contracts/AgentTimelock.sol:AgentTimelock",
        "label": "gateway",
        "offset": 0,
        "slot": "154",
        "type": "t_contract(IAxelarGateway)395"
      },
      {
        "astId": 1884,
        "contract": "contracts/AgentTimelock.sol:AgentTimelock",
        "label": "newImplementation",
        "offset": 0,
        "slot": "155",
        "type": "t_address"
      }
    ],
    "types": {
      "t_address": {
        "encoding": "inplace",
        "label": "address",
        "numberOfBytes": "20"
      },
      "t_array(t_uint256)48_storage": {
        "base": "t_uint256",
        "encoding": "inplace",
        "label": "uint256[48]",
        "numberOfBytes": "1536"
      },
      "t_array(t_uint256)50_storage": {
        "base": "t_uint256",
        "encoding": "inplace",
        "label": "uint256[50]",
        "numberOfBytes": "1600"
      },
      "t_bool": {
        "encoding": "inplace",
        "label": "bool",
        "numberOfBytes": "1"
      },
      "t_bytes32": {
        "encoding": "inplace",
        "label": "bytes32",
        "numberOfBytes": "32"
      },
      "t_contract(IAxelarGateway)395": {
        "encoding": "inplace",
        "label": "contract IAxelarGateway",
        "numberOfBytes": "20"
      },
      "t_mapping(t_bytes32,t_uint256)": {
        "encoding": "mapping",
        "key": "t_bytes32",
        "label": "mapping(bytes32 => uint256)",
        "numberOfBytes": "32",
        "value": "t_uint256"
      },
      "t_string_storage": {
        "encoding": "bytes",
        "label": "string",
        "numberOfBytes": "32"
      },
      "t_uint256": {
        "encoding": "inplace",
        "label": "uint256",
        "numberOfBytes": "32"
      },
      "t_uint8": {
        "encoding": "inplace",
        "label": "uint8",
        "numberOfBytes": "1"
      }
    }
  }
}