{
  "contractName": "A3CrvGaugePriceGetter",
  "abi": [
    {
      "anonymous": false,
      "inputs": [
        {
          "indexed": true,
          "internalType": "address",
          "name": "previousOwner",
          "type": "address"
        },
        {
          "indexed": true,
          "internalType": "address",
          "name": "newOwner",
          "type": "address"
        }
      ],
      "name": "OwnershipTransferred",
      "type": "event"
    },
    {
      "anonymous": false,
      "inputs": [
        {
          "indexed": false,
          "internalType": "address",
          "name": "a3CrvPriceGetter",
          "type": "address"
        }
      ],
      "name": "UpdatedA3CrvPriceGetter",
      "type": "event"
    },
    {
      "inputs": [],
      "name": "DENOMINATOR",
      "outputs": [
        {
          "internalType": "uint256",
          "name": "",
          "type": "uint256"
        }
      ],
      "stateMutability": "view",
      "type": "function",
      "constant": true
    },
    {
      "inputs": [],
      "name": "a3CrvPriceGetter",
      "outputs": [
        {
          "internalType": "contract A3CrvPriceGetter",
          "name": "",
          "type": "address"
        }
      ],
      "stateMutability": "view",
      "type": "function",
      "constant": true
    },
    {
      "inputs": [],
      "name": "denominator",
      "outputs": [
        {
          "internalType": "uint256",
          "name": "",
          "type": "uint256"
        }
      ],
      "stateMutability": "view",
      "type": "function",
      "constant": true
    },
    {
      "inputs": [],
      "name": "owner",
      "outputs": [
        {
          "internalType": "address",
          "name": "",
          "type": "address"
        }
      ],
      "stateMutability": "view",
      "type": "function",
      "constant": true
    },
    {
      "inputs": [],
      "name": "renounceOwnership",
      "outputs": [],
      "stateMutability": "nonpayable",
      "type": "function"
    },
    {
      "inputs": [
        {
          "internalType": "bytes32",
          "name": "",
          "type": "bytes32"
        }
      ],
      "name": "rolemap",
      "outputs": [
        {
          "internalType": "address",
          "name": "",
          "type": "address"
        }
      ],
      "stateMutability": "view",
      "type": "function",
      "constant": true
    },
    {
      "inputs": [
        {
          "internalType": "bytes32",
          "name": "_role",
          "type": "bytes32"
        },
        {
          "internalType": "address",
          "name": "_actor",
          "type": "address"
        }
      ],
      "name": "setRole",
      "outputs": [],
      "stateMutability": "nonpayable",
      "type": "function"
    },
    {
      "inputs": [
        {
          "internalType": "address",
          "name": "newOwner",
          "type": "address"
        }
      ],
      "name": "transferOwnership",
      "outputs": [],
      "stateMutability": "nonpayable",
      "type": "function"
    },
    {
      "inputs": [
        {
          "internalType": "address",
          "name": "_a3CrvPriceGetter",
          "type": "address"
        }
      ],
      "name": "setA3CrvPriceGetter",
      "outputs": [],
      "stateMutability": "nonpayable",
      "type": "function"
    },
    {
      "inputs": [],
      "name": "getUsdcBuyPrice",
      "outputs": [
        {
          "internalType": "uint256",
          "name": "",
          "type": "uint256"
        }
      ],
      "stateMutability": "view",
      "type": "function",
      "constant": true
    },
    {
      "inputs": [],
      "name": "getUsdcSellPrice",
      "outputs": [
        {
          "internalType": "uint256",
          "name": "",
          "type": "uint256"
        }
      ],
      "stateMutability": "view",
      "type": "function",
      "constant": true
    }
  ],
  "bytecode": "0x608060405234801561001057600080fd5b5061002d61002261003260201b60201c565b61003a60201b60201c565b6101eb565b600033905090565b600073ffffffffffffffffffffffffffffffffffffffff168173ffffffffffffffffffffffffffffffffffffffff1614156100aa576040517f08c379a00000000000000000000000000000000000000000000000000000000081526004016100a190610191565b60405180910390fd5b60008060009054906101000a900473ffffffffffffffffffffffffffffffffffffffff169050816000806101000a81548173ffffffffffffffffffffffffffffffffffffffff021916908373ffffffffffffffffffffffffffffffffffffffff1602179055508173ffffffffffffffffffffffffffffffffffffffff168173ffffffffffffffffffffffffffffffffffffffff167f8be0079c531659141344cd1fd0a4f28419497f9722a3daafe3b4186f6b6457e060405160405180910390a35050565b600061017b6018836101b1565b9150610186826101c2565b602082019050919050565b600060208201905081810360008301526101aa8161016e565b9050919050565b600082825260208201905092915050565b7f5a65726f2061646472657373206e6f7420616c6c6f7765640000000000000000600082015250565b610c4e806101fa6000396000f3fe608060405234801561001057600080fd5b50600436106100a95760003560e01c80638da5cb5b116100715780638da5cb5b14610140578063918f86741461015e57806396ce07951461017c578063dff872031461019a578063ea249784146101b6578063f2fde38b146101d4576100a9565b80632b8455f1146100ae5780632caa60af146100cc5780632dc10a54146100ea5780635d5c33821461011a578063715018a614610136575b600080fd5b6100b66101f0565b6040516100c39190610ac0565b60405180910390f35b6100d4610297565b6040516100e19190610a65565b60405180910390f35b61010460048036038101906100ff919061093d565b6102bd565b6040516101119190610a4a565b60405180910390f35b610134600480360381019061012f9190610910565b6102f0565b005b61013e610457565b005b6101486104df565b6040516101559190610a4a565b60405180910390f35b610166610508565b6040516101739190610ac0565b60405180910390f35b610184610514565b6040516101919190610ac0565b60405180910390f35b6101b460048036038101906101af919061096a565b610524565b005b6101be610666565b6040516101cb9190610ac0565b60405180910390f35b6101ee60048036038101906101e99190610910565b61070d565b005b6000600260009054906101000a900473ffffffffffffffffffffffffffffffffffffffff1673ffffffffffffffffffffffffffffffffffffffff16632b8455f16040518163ffffffff1660e01b815260040160206040518083038186803b15801561025a57600080fd5b505afa15801561026e573d6000803e3d6000fd5b505050506040513d601f19601f8201168201806040525081019061029291906109aa565b905090565b600260009054906101000a900473ffffffffffffffffffffffffffffffffffffffff1681565b60016020528060005260406000206000915054906101000a900473ffffffffffffffffffffffffffffffffffffffff1681565b6102f8610795565b73ffffffffffffffffffffffffffffffffffffffff166103166104df565b73ffffffffffffffffffffffffffffffffffffffff161461036c576040517f08c379a000000000000000000000000000000000000000000000000000000000815260040161036390610a80565b60405180910390fd5b600073ffffffffffffffffffffffffffffffffffffffff168173ffffffffffffffffffffffffffffffffffffffff1614156103dc576040517f08c379a00000000000000000000000000000000000000000000000000000000081526004016103d390610aa0565b60405180910390fd5b80600260006101000a81548173ffffffffffffffffffffffffffffffffffffffff021916908373ffffffffffffffffffffffffffffffffffffffff1602179055507f141c66e26ced3b033749b13f5b0cdef42b6399f107ef096dafff2f23b557ae378160405161044c9190610a4a565b60405180910390a150565b61045f610795565b73ffffffffffffffffffffffffffffffffffffffff1661047d6104df565b73ffffffffffffffffffffffffffffffffffffffff16146104d3576040517f08c379a00000000000000000000000000000000000000000000000000000000081526004016104ca90610a80565b60405180910390fd5b6104dd600061079d565b565b60008060009054906101000a900473ffffffffffffffffffffffffffffffffffffffff16905090565b670de0b6b3a764000081565b6000670de0b6b3a7640000905090565b61052c610795565b73ffffffffffffffffffffffffffffffffffffffff1661054a6104df565b73ffffffffffffffffffffffffffffffffffffffff16146105a0576040517f08c379a000000000000000000000000000000000000000000000000000000000815260040161059790610a80565b60405180910390fd5b600073ffffffffffffffffffffffffffffffffffffffff168173ffffffffffffffffffffffffffffffffffffffff161415610610576040517f08c379a000000000000000000000000000000000000000000000000000000000815260040161060790610aa0565b60405180910390fd5b806001600084815260200190815260200160002060006101000a81548173ffffffffffffffffffffffffffffffffffffffff021916908373ffffffffffffffffffffffffffffffffffffffff1602179055505050565b6000600260009054906101000a900473ffffffffffffffffffffffffffffffffffffffff1673ffffffffffffffffffffffffffffffffffffffff1663ea2497846040518163ffffffff1660e01b815260040160206040518083038186803b1580156106d057600080fd5b505afa1580156106e4573d6000803e3d6000fd5b505050506040513d601f19601f8201168201806040525081019061070891906109aa565b905090565b610715610795565b73ffffffffffffffffffffffffffffffffffffffff166107336104df565b73ffffffffffffffffffffffffffffffffffffffff1614610789576040517f08c379a000000000000000000000000000000000000000000000000000000000815260040161078090610a80565b60405180910390fd5b6107928161079d565b50565b600033905090565b600073ffffffffffffffffffffffffffffffffffffffff168173ffffffffffffffffffffffffffffffffffffffff16141561080d576040517f08c379a000000000000000000000000000000000000000000000000000000000815260040161080490610aa0565b60405180910390fd5b60008060009054906101000a900473ffffffffffffffffffffffffffffffffffffffff169050816000806101000a81548173ffffffffffffffffffffffffffffffffffffffff021916908373ffffffffffffffffffffffffffffffffffffffff1602179055508173ffffffffffffffffffffffffffffffffffffffff168173ffffffffffffffffffffffffffffffffffffffff167f8be0079c531659141344cd1fd0a4f28419497f9722a3daafe3b4186f6b6457e060405160405180910390a35050565b6000813590506108e081610bd3565b92915050565b6000813590506108f581610bea565b92915050565b60008151905061090a81610c01565b92915050565b60006020828403121561092657610925610b56565b5b6000610934848285016108d1565b91505092915050565b60006020828403121561095357610952610b56565b5b6000610961848285016108e6565b91505092915050565b6000806040838503121561098157610980610b56565b5b600061098f858286016108e6565b92505060206109a0858286016108d1565b9150509250929050565b6000602082840312156109c0576109bf610b56565b5b60006109ce848285016108fb565b91505092915050565b6109e081610aec565b82525050565b6109ef81610b32565b82525050565b6000610a02602383610adb565b9150610a0d82610b5b565b604082019050919050565b6000610a25601883610adb565b9150610a3082610baa565b602082019050919050565b610a4481610b28565b82525050565b6000602082019050610a5f60008301846109d7565b92915050565b6000602082019050610a7a60008301846109e6565b92915050565b60006020820190508181036000830152610a99816109f5565b9050919050565b60006020820190508181036000830152610ab981610a18565b9050919050565b6000602082019050610ad56000830184610a3b565b92915050565b600082825260208201905092915050565b6000610af782610b08565b9050919050565b6000819050919050565b600073ffffffffffffffffffffffffffffffffffffffff82169050919050565b6000819050919050565b6000610b3d82610b44565b9050919050565b6000610b4f82610b08565b9050919050565b600080fd5b7f4f776e61626c654578743a2063616c6c6572206973206e6f7420746865206f7760008201527f6e65720000000000000000000000000000000000000000000000000000000000602082015250565b7f5a65726f2061646472657373206e6f7420616c6c6f7765640000000000000000600082015250565b610bdc81610aec565b8114610be757600080fd5b50565b610bf381610afe565b8114610bfe57600080fd5b50565b610c0a81610b28565b8114610c1557600080fd5b5056fea26469706673582212205c6810c98af2da3289d697ad02c40f7974ceab4b07d8b3197ed7a1044620bcf464736f6c63430008060033",
  "immutableReferences": {},
  "source": "// SPDX-License-Identifier: MIT\r\npragma solidity >=0.8.0 <0.9.0;\r\n\r\nimport \"@openzeppelin/contracts/token/ERC20/IERC20.sol\";\r\nimport \"../price_getters/AbstractPriceGetter.sol\";\r\nimport \"../price_getters/A3CrvPriceGetter.sol\";\r\nimport \"../interfaces/IConnector.sol\";\r\nimport \"../connectors/curve/interfaces/iCurvePool.sol\";\r\nimport \"../OwnableExt.sol\";\r\n\r\ncontract A3CrvGaugePriceGetter is AbstractPriceGetter, OwnableExt {\r\n    A3CrvPriceGetter public a3CrvPriceGetter;\r\n\r\n    event UpdatedA3CrvPriceGetter(address a3CrvPriceGetter);\r\n\r\n    function setA3CrvPriceGetter(address _a3CrvPriceGetter) public onlyOwner {\r\n        require(_a3CrvPriceGetter != address(0), \"Zero address not allowed\");\r\n        a3CrvPriceGetter = A3CrvPriceGetter(_a3CrvPriceGetter);\r\n        emit UpdatedA3CrvPriceGetter(_a3CrvPriceGetter);\r\n    }\r\n\r\n    function getUsdcBuyPrice() external view override returns (uint256) {\r\n        // a3CrvGauge is 1:1 to a3Crv\r\n        return a3CrvPriceGetter.getUsdcBuyPrice();\r\n    }\r\n\r\n    function getUsdcSellPrice() external view override returns (uint256) {\r\n        // a3CrvGauge is 1:1 to a3Crv\r\n        return a3CrvPriceGetter.getUsdcSellPrice();\r\n    }\r\n}\r\n",
  "sourcePath": "C:\\work\\overnight\\ovngt-mvp\\contracts\\price_getters\\A3CrvGaugePriceGetter.sol",
  "compiler": {
    "name": "solc",
    "version": "0.8.6+commit.11564f7e.Emscripten.clang"
  },
  "schemaVersion": "3.4.2",
  "updatedAt": "2021-10-20T11:29:18.980Z",
  "networkType": "ethereum",
  "devdoc": {
    "kind": "dev",
    "methods": {
      "owner()": {
        "details": "Returns the address of the current owner."
      },
      "renounceOwnership()": {
        "details": "Leaves the contract without owner. It will not be possible to call `onlyOwner` functions anymore. Can only be called by the current owner. NOTE: Renouncing ownership will leave the contract without an owner, thereby removing any functionality that is only available to the owner."
      },
      "transferOwnership(address)": {
        "details": "Transfers ownership of the contract to a new account (`newOwner`). Can only be called by the current owner."
      }
    },
    "version": 1
  },
  "userdoc": {
    "kind": "user",
    "methods": {
      "denominator()": {
        "notice": "Denominator for normalization. Default 10**18."
      },
      "getUsdcBuyPrice()": {
        "notice": "Token buy price at USDC. Amount of USDC we should spend to buy one token. Returned value is [USDC/token] Usage: tokenAmount = usdcAmount * denominator() / getUsdcBuyPrice() Normilized to 10**18"
      },
      "getUsdcSellPrice()": {
        "notice": "Token sell price at USDC. Amount of USDC we got if sell one token. Returned value is [USDC/token] Usage: usdcAmount = tokenAmount * getUsdcSellPrice() / denominator() Normilized to 10**18"
      }
    },
    "version": 1
  }
}