{
  "contractName": "A3Crv2A3CrvGaugeTokenExchange",
  "abi": [
    {
      "inputs": [
        {
          "internalType": "address",
          "name": "_curveGauge",
          "type": "address"
        }
      ],
      "stateMutability": "nonpayable",
      "type": "constructor"
    },
    {
      "inputs": [
        {
          "internalType": "address",
          "name": "spender",
          "type": "address"
        },
        {
          "internalType": "contract IERC20",
          "name": "from",
          "type": "address"
        },
        {
          "internalType": "address",
          "name": "receiver",
          "type": "address"
        },
        {
          "internalType": "contract IERC20",
          "name": "to",
          "type": "address"
        },
        {
          "internalType": "uint256",
          "name": "amount",
          "type": "uint256"
        }
      ],
      "name": "exchange",
      "outputs": [],
      "stateMutability": "nonpayable",
      "type": "function"
    }
  ],
  "bytecode": "0x60806040523480156200001157600080fd5b50604051620019213803806200192183398181016040528101906200003791906200022d565b600073ffffffffffffffffffffffffffffffffffffffff168173ffffffffffffffffffffffffffffffffffffffff161415620000aa576040517f08c379a0000000000000000000000000000000000000000000000000000000008152600401620000a19062000286565b60405180910390fd5b806000806101000a81548173ffffffffffffffffffffffffffffffffffffffff021916908373ffffffffffffffffffffffffffffffffffffffff16021790555060008054906101000a900473ffffffffffffffffffffffffffffffffffffffff1673ffffffffffffffffffffffffffffffffffffffff166382c630666040518163ffffffff1660e01b8152600401602060405180830381600087803b1580156200015357600080fd5b505af115801562000168573d6000803e3d6000fd5b505050506040513d601f19601f820116820180604052508101906200018e91906200022d565b600160006101000a81548173ffffffffffffffffffffffffffffffffffffffff021916908373ffffffffffffffffffffffffffffffffffffffff16021790555080600260006101000a81548173ffffffffffffffffffffffffffffffffffffffff021916908373ffffffffffffffffffffffffffffffffffffffff1602179055505062000335565b60008151905062000227816200031b565b92915050565b600060208284031215620002465762000245620002ed565b5b6000620002568482850162000216565b91505092915050565b60006200026e601883620002a8565b91506200027b82620002f2565b602082019050919050565b60006020820190508181036000830152620002a1816200025f565b9050919050565b600082825260208201905092915050565b6000620002c682620002cd565b9050919050565b600073ffffffffffffffffffffffffffffffffffffffff82169050919050565b600080fd5b7f5a65726f2061646472657373206e6f7420616c6c6f7765640000000000000000600082015250565b6200032681620002b9565b81146200033257600080fd5b50565b6115dc80620003456000396000f3fe608060405234801561001057600080fd5b506004361061002b5760003560e01c806362ac753814610030575b600080fd5b61004a60048036038101906100459190610e34565b61004c565b005b600160009054906101000a900473ffffffffffffffffffffffffffffffffffffffff1673ffffffffffffffffffffffffffffffffffffffff168473ffffffffffffffffffffffffffffffffffffffff161480156100f65750600260009054906101000a900473ffffffffffffffffffffffffffffffffffffffff1673ffffffffffffffffffffffffffffffffffffffff168273ffffffffffffffffffffffffffffffffffffffff16145b806101a75750600260009054906101000a900473ffffffffffffffffffffffffffffffffffffffff1673ffffffffffffffffffffffffffffffffffffffff168473ffffffffffffffffffffffffffffffffffffffff161480156101a65750600160009054906101000a900473ffffffffffffffffffffffffffffffffffffffff1673ffffffffffffffffffffffffffffffffffffffff168273ffffffffffffffffffffffffffffffffffffffff16145b5b6101e6576040517f08c379a00000000000000000000000000000000000000000000000000000000081526004016101dd90611053565b60405180910390fd5b600081141561030a578373ffffffffffffffffffffffffffffffffffffffff1663a9059cbb868673ffffffffffffffffffffffffffffffffffffffff166370a08231306040518263ffffffff1660e01b81526004016102459190610fef565b60206040518083038186803b15801561025d57600080fd5b505afa158015610271573d6000803e3d6000fd5b505050506040513d601f19601f820116820180604052508101906102959190610edc565b6040518363ffffffff1660e01b81526004016102b292919061100a565b602060405180830381600087803b1580156102cc57600080fd5b505af11580156102e0573d6000803e3d6000fd5b505050506040513d601f19601f820116820180604052508101906103049190610eaf565b50610daf565b600160009054906101000a900473ffffffffffffffffffffffffffffffffffffffff1673ffffffffffffffffffffffffffffffffffffffff168473ffffffffffffffffffffffffffffffffffffffff161480156103b45750600260009054906101000a900473ffffffffffffffffffffffffffffffffffffffff1673ffffffffffffffffffffffffffffffffffffffff168273ffffffffffffffffffffffffffffffffffffffff16145b156107fb576000600160009054906101000a900473ffffffffffffffffffffffffffffffffffffffff1673ffffffffffffffffffffffffffffffffffffffff1663313ce5676040518163ffffffff1660e01b815260040160206040518083038186803b15801561042357600080fd5b505afa158015610437573d6000803e3d6000fd5b505050506040513d601f19601f8201168201806040525081019061045b9190610f09565b601261046791906112c6565b600a61047391906111a8565b905080826104819190611124565b915081600160009054906101000a900473ffffffffffffffffffffffffffffffffffffffff1673ffffffffffffffffffffffffffffffffffffffff166370a08231306040518263ffffffff1660e01b81526004016104df9190610fef565b60206040518083038186803b1580156104f757600080fd5b505afa15801561050b573d6000803e3d6000fd5b505050506040513d601f19601f8201168201806040525081019061052f9190610edc565b1015610570576040517f08c379a000000000000000000000000000000000000000000000000000000000815260040161056790611093565b60405180910390fd5b6000821415610695578473ffffffffffffffffffffffffffffffffffffffff1663a9059cbb878773ffffffffffffffffffffffffffffffffffffffff166370a08231306040518263ffffffff1660e01b81526004016105cf9190610fef565b60206040518083038186803b1580156105e757600080fd5b505afa1580156105fb573d6000803e3d6000fd5b505050506040513d601f19601f8201168201806040525081019061061f9190610edc565b6040518363ffffffff1660e01b815260040161063c92919061100a565b602060405180830381600087803b15801561065657600080fd5b505af115801561066a573d6000803e3d6000fd5b505050506040513d601f19601f8201168201806040525081019061068e9190610eaf565b5050610daf565b600160009054906101000a900473ffffffffffffffffffffffffffffffffffffffff1673ffffffffffffffffffffffffffffffffffffffff1663095ea7b360008054906101000a900473ffffffffffffffffffffffffffffffffffffffff16846040518363ffffffff1660e01b815260040161071292919061100a565b602060405180830381600087803b15801561072c57600080fd5b505af1158015610740573d6000803e3d6000fd5b505050506040513d601f19601f820116820180604052508101906107649190610eaf565b5060008054906101000a900473ffffffffffffffffffffffffffffffffffffffff1673ffffffffffffffffffffffffffffffffffffffff166383df6747838660006040518463ffffffff1660e01b81526004016107c3939291906110b3565b600060405180830381600087803b1580156107dd57600080fd5b505af11580156107f1573d6000803e3d6000fd5b5050505050610dae565b6000600260009054906101000a900473ffffffffffffffffffffffffffffffffffffffff1673ffffffffffffffffffffffffffffffffffffffff1663313ce5676040518163ffffffff1660e01b815260040160206040518083038186803b15801561086557600080fd5b505afa158015610879573d6000803e3d6000fd5b505050506040513d601f19601f8201168201806040525081019061089d9190610f09565b60126108a991906112c6565b600a6108b591906111a8565b905080826108c39190611124565b915081600260009054906101000a900473ffffffffffffffffffffffffffffffffffffffff1673ffffffffffffffffffffffffffffffffffffffff166370a08231306040518263ffffffff1660e01b81526004016109219190610fef565b60206040518083038186803b15801561093957600080fd5b505afa15801561094d573d6000803e3d6000fd5b505050506040513d601f19601f820116820180604052508101906109719190610edc565b10156109b2576040517f08c379a00000000000000000000000000000000000000000000000000000000081526004016109a990611033565b60405180910390fd5b6000821415610ad7578473ffffffffffffffffffffffffffffffffffffffff1663a9059cbb878773ffffffffffffffffffffffffffffffffffffffff166370a08231306040518263ffffffff1660e01b8152600401610a119190610fef565b60206040518083038186803b158015610a2957600080fd5b505afa158015610a3d573d6000803e3d6000fd5b505050506040513d601f19601f82011682018060405250810190610a619190610edc565b6040518363ffffffff1660e01b8152600401610a7e92919061100a565b602060405180830381600087803b158015610a9857600080fd5b505af1158015610aac573d6000803e3d6000fd5b505050506040513d601f19601f82011682018060405250810190610ad09190610eaf565b5050610daf565b60008054906101000a900473ffffffffffffffffffffffffffffffffffffffff1673ffffffffffffffffffffffffffffffffffffffff166338d074368360006040518363ffffffff1660e01b8152600401610b339291906110ea565b600060405180830381600087803b158015610b4d57600080fd5b505af1158015610b61573d6000803e3d6000fd5b5050505081600160009054906101000a900473ffffffffffffffffffffffffffffffffffffffff1673ffffffffffffffffffffffffffffffffffffffff166370a08231306040518263ffffffff1660e01b8152600401610bc19190610fef565b60206040518083038186803b158015610bd957600080fd5b505afa158015610bed573d6000803e3d6000fd5b505050506040513d601f19601f82011682018060405250810190610c119190610edc565b1015610c52576040517f08c379a0000000000000000000000000000000000000000000000000000000008152600401610c4990611073565b60405180910390fd5b600160009054906101000a900473ffffffffffffffffffffffffffffffffffffffff1673ffffffffffffffffffffffffffffffffffffffff1663a9059cbb85600160009054906101000a900473ffffffffffffffffffffffffffffffffffffffff1673ffffffffffffffffffffffffffffffffffffffff166370a08231306040518263ffffffff1660e01b8152600401610cec9190610fef565b60206040518083038186803b158015610d0457600080fd5b505afa158015610d18573d6000803e3d6000fd5b505050506040513d601f19601f82011682018060405250810190610d3c9190610edc565b6040518363ffffffff1660e01b8152600401610d5992919061100a565b602060405180830381600087803b158015610d7357600080fd5b505af1158015610d87573d6000803e3d6000fd5b505050506040513d601f19601f82011682018060405250810190610dab9190610eaf565b50505b5b5050505050565b600081359050610dc581611533565b92915050565b600081519050610dda8161154a565b92915050565b600081359050610def81611561565b92915050565b600081359050610e0481611578565b92915050565b600081519050610e1981611578565b92915050565b600081519050610e2e8161158f565b92915050565b600080600080600060a08688031215610e5057610e4f6113bf565b5b6000610e5e88828901610db6565b9550506020610e6f88828901610de0565b9450506040610e8088828901610db6565b9350506060610e9188828901610de0565b9250506080610ea288828901610df5565b9150509295509295909350565b600060208284031215610ec557610ec46113bf565b5b6000610ed384828501610dcb565b91505092915050565b600060208284031215610ef257610ef16113bf565b5b6000610f0084828501610e0a565b91505092915050565b600060208284031215610f1f57610f1e6113bf565b5b6000610f2d84828501610e1f565b91505092915050565b610f3f816112fa565b82525050565b610f4e8161130c565b82525050565b6000610f61603983611113565b9150610f6c826113d1565b604082019050919050565b6000610f84603883611113565b9150610f8f82611420565b604082019050919050565b6000610fa7604383611113565b9150610fb28261146f565b606082019050919050565b6000610fca603483611113565b9150610fd5826114e4565b604082019050919050565b610fe98161134a565b82525050565b60006020820190506110046000830184610f36565b92915050565b600060408201905061101f6000830185610f36565b61102c6020830184610fe0565b9392505050565b6000602082019050818103600083015261104c81610f54565b9050919050565b6000602082019050818103600083015261106c81610f77565b9050919050565b6000602082019050818103600083015261108c81610f9a565b9050919050565b600060208201905081810360008301526110ac81610fbd565b9050919050565b60006060820190506110c86000830186610fe0565b6110d56020830185610f36565b6110e26040830184610f45565b949350505050565b60006040820190506110ff6000830185610fe0565b61110c6020830184610f45565b9392505050565b600082825260208201905092915050565b600061112f8261134a565b915061113a8361134a565b92508261114a57611149611390565b5b828204905092915050565b6000808291508390505b600185111561119f5780860481111561117b5761117a611361565b5b600185161561118a5780820291505b8081029050611198856113c4565b945061115f565b94509492505050565b60006111b38261134a565b91506111be83611354565b92506111eb7fffffffffffffffffffffffffffffffffffffffffffffffffffffffffffffffff84846111f3565b905092915050565b60008261120357600190506112bf565b8161121157600090506112bf565b8160018114611227576002811461123157611260565b60019150506112bf565b60ff84111561124357611242611361565b5b8360020a91508482111561125a57611259611361565b5b506112bf565b5060208310610133831016604e8410600b84101617156112955782820a9050838111156112905761128f611361565b5b6112bf565b6112a28484846001611155565b925090508184048111156112b9576112b8611361565b5b81810290505b9392505050565b60006112d182611354565b91506112dc83611354565b9250828210156112ef576112ee611361565b5b828203905092915050565b60006113058261132a565b9050919050565b60008115159050919050565b6000611323826112fa565b9050919050565b600073ffffffffffffffffffffffffffffffffffffffff82169050919050565b6000819050919050565b600060ff82169050919050565b7f4e487b7100000000000000000000000000000000000000000000000000000000600052601160045260246000fd5b7f4e487b7100000000000000000000000000000000000000000000000000000000600052601260045260246000fd5b600080fd5b60008160011c9050919050565b7f41334372763241334372764761756765546f6b656e45786368616e67653a204e60008201527f6f7420656e6f7567682061334372764761756765546f6b656e00000000000000602082015250565b7f41334372763241334372764761756765546f6b656e45786368616e67653a205360008201527f6f6d6520746f6b656e206e6f7420636f6d70617469626c650000000000000000602082015250565b7f41334372763241334372764761756765546f6b656e45786368616e67653a204e60008201527f6f7420656e6f756768206133437276546f6b656e20616674657220776974686460208201527f7261770000000000000000000000000000000000000000000000000000000000604082015250565b7f41334372763241334372764761756765546f6b656e45786368616e67653a204e60008201527f6f7420656e6f756768206133437276546f6b656e000000000000000000000000602082015250565b61153c816112fa565b811461154757600080fd5b50565b6115538161130c565b811461155e57600080fd5b50565b61156a81611318565b811461157557600080fd5b50565b6115818161134a565b811461158c57600080fd5b50565b61159881611354565b81146115a357600080fd5b5056fea264697066735822122054713389874913bf25ae8a2b2c8d9fa7d63c4cc33e2389cceb734fa94734d80064736f6c63430008060033",
  "immutableReferences": {},
  "source": "// SPDX-License-Identifier: MIT\r\npragma solidity >=0.8.0 <0.9.0;\r\n\r\nimport \"@openzeppelin/contracts/token/ERC20/IERC20.sol\";\r\nimport \"@openzeppelin/contracts/token/ERC20/extensions/IERC20Metadata.sol\";\r\nimport \"../interfaces/ITokenExchange.sol\";\r\nimport \"../connectors/curve/interfaces/IRewardOnlyGauge.sol\";\r\n\r\ncontract A3Crv2A3CrvGaugeTokenExchange is ITokenExchange {\r\n    IRewardOnlyGauge rewardGauge;\r\n    IERC20 a3CrvToken;\r\n    IERC20 a3CrvGaugeToken;\r\n\r\n    constructor(address _curveGauge) {\r\n        require(_curveGauge != address(0), \"Zero address not allowed\");\r\n\r\n        rewardGauge = IRewardOnlyGauge(_curveGauge);\r\n        a3CrvToken = IERC20(rewardGauge.lp_token());\r\n        a3CrvGaugeToken = IERC20(_curveGauge);\r\n    }\r\n\r\n    function exchange(\r\n        address spender,\r\n        IERC20 from,\r\n        address receiver,\r\n        IERC20 to,\r\n        uint256 amount\r\n    ) external override {\r\n        require(\r\n            (from == a3CrvToken && to == a3CrvGaugeToken) ||\r\n                (from == a3CrvGaugeToken && to == a3CrvToken),\r\n            \"A3Crv2A3CrvGaugeTokenExchange: Some token not compatible\"\r\n        );\r\n\r\n        if (amount == 0) {\r\n            from.transfer(spender, from.balanceOf(address(this)));\r\n            return;\r\n        }\r\n\r\n        if (from == a3CrvToken && to == a3CrvGaugeToken) {\r\n            //TODO: denominator usage\r\n            uint256 denominator = 10**(18 - IERC20Metadata(address(a3CrvToken)).decimals());\r\n            amount = amount / denominator;\r\n\r\n            require(\r\n                a3CrvToken.balanceOf(address(this)) >= amount,\r\n                \"A3Crv2A3CrvGaugeTokenExchange: Not enough a3CrvToken\"\r\n            );\r\n\r\n            // check after denormilization\r\n            if (amount == 0) {\r\n                from.transfer(spender, from.balanceOf(address(this)));\r\n                return;\r\n            }\r\n\r\n            // gauge need approve on deposit cause by transferFrom inside deposit\r\n            a3CrvToken.approve(address(rewardGauge), amount);\r\n            rewardGauge.deposit(amount, receiver, false);\r\n        } else {\r\n            //TODO: denominator usage\r\n            uint256 denominator = 10**(18 - IERC20Metadata(address(a3CrvGaugeToken)).decimals());\r\n            amount = amount / denominator;\r\n\r\n            require(\r\n                a3CrvGaugeToken.balanceOf(address(this)) >= amount,\r\n                \"A3Crv2A3CrvGaugeTokenExchange: Not enough a3CrvGaugeToken\"\r\n            );\r\n\r\n            // check after denormilization\r\n            if (amount == 0) {\r\n                from.transfer(spender, from.balanceOf(address(this)));\r\n                return;\r\n            }\r\n\r\n            // gauge doesn't need approve on withdraw, but we should have amount token\r\n            // on tokenExchange\r\n            rewardGauge.withdraw(amount, false);\r\n            require(\r\n                a3CrvToken.balanceOf(address(this)) >= amount,\r\n                \"A3Crv2A3CrvGaugeTokenExchange: Not enough a3CrvToken after withdraw\"\r\n            );\r\n            // reward gauge transfer tokens to msg.sender, so transfer to receiver\r\n            a3CrvToken.transfer(receiver, a3CrvToken.balanceOf(address(this)));\r\n        }\r\n    }\r\n}\r\n",
  "sourcePath": "C:\\work\\overnight\\ovngt-mvp\\contracts\\token_exchanges\\A3Crv2A3CrvGaugeTokenExchange.sol",
  "compiler": {
    "name": "solc",
    "version": "0.8.6+commit.11564f7e.Emscripten.clang"
  },
  "schemaVersion": "3.4.2",
  "updatedAt": "2021-10-18T00:18:03.113Z",
  "devdoc": {
    "kind": "dev",
    "methods": {},
    "version": 1
  },
  "userdoc": {
    "kind": "user",
    "methods": {},
    "version": 1
  }
}