{
  "contractName": "AbstractPriceGetter",
  "abi": [
    {
      "inputs": [],
      "name": "DENOMINATOR",
      "outputs": [
        {
          "internalType": "uint256",
          "name": "",
          "type": "uint256"
        }
      ],
      "stateMutability": "view",
      "type": "function"
    },
    {
      "inputs": [],
      "name": "getUsdcBuyPrice",
      "outputs": [
        {
          "internalType": "uint256",
          "name": "",
          "type": "uint256"
        }
      ],
      "stateMutability": "view",
      "type": "function"
    },
    {
      "inputs": [],
      "name": "getUsdcSellPrice",
      "outputs": [
        {
          "internalType": "uint256",
          "name": "",
          "type": "uint256"
        }
      ],
      "stateMutability": "view",
      "type": "function"
    },
    {
      "inputs": [],
      "name": "denominator",
      "outputs": [
        {
          "internalType": "uint256",
          "name": "",
          "type": "uint256"
        }
      ],
      "stateMutability": "view",
      "type": "function"
    }
  ],
  "bytecode": "0x608060405234801561001057600080fd5b5061016f806100206000396000f3fe608060405234801561001057600080fd5b506004361061004c5760003560e01c80632b8455f114610051578063918f86741461006f57806396ce07951461008d578063ea249784146100ab575b600080fd5b6100596100c9565b6040516100669190610114565b60405180910390f35b6100776100d9565b6040516100849190610114565b60405180910390f35b6100956100e5565b6040516100a29190610114565b60405180910390f35b6100b36100f5565b6040516100c09190610114565b60405180910390f35b6000670de0b6b3a7640000905090565b670de0b6b3a764000081565b6000670de0b6b3a7640000905090565b6000670de0b6b3a7640000905090565b61010e8161012f565b82525050565b60006020820190506101296000830184610105565b92915050565b600081905091905056fea2646970667358221220b1ce8f7517e10a394c9bfb827930d09da38412da8da77b590c6f32e5fe32320c64736f6c63430008060033",
  "immutableReferences": {},
  "source": "// SPDX-License-Identifier: MIT\r\npragma solidity >=0.8.0 <0.9.0;\r\n\r\nimport \"../interfaces/IPriceGetter.sol\";\r\n\r\ncontract AbstractPriceGetter is IPriceGetter {\r\n    uint256 public constant DENOMINATOR = 10**18;\r\n\r\n    function getUsdcBuyPrice() external view virtual override returns (uint256) {\r\n        return DENOMINATOR;\r\n    }\r\n\r\n    function getUsdcSellPrice() external view virtual override returns (uint256) {\r\n        return DENOMINATOR;\r\n    }\r\n\r\n    function denominator() external view virtual override returns (uint256) {\r\n        return DENOMINATOR;\r\n    }\r\n}\r\n",
  "sourcePath": "C:\\work\\overnight\\ovngt-mvp\\contracts\\price_getters\\AbstractPriceGetter.sol",
  "compiler": {
    "name": "solc",
    "version": "0.8.6+commit.11564f7e.Emscripten.clang"
  },
  "schemaVersion": "3.4.2",
  "updatedAt": "2021-10-19T06:40:13.241Z",
  "devdoc": {
    "kind": "dev",
    "methods": {},
    "version": 1
  },
  "userdoc": {
    "kind": "user",
    "methods": {
      "denominator()": {
        "notice": "Denominator for normalization. Default 10**18."
      },
      "getUsdcBuyPrice()": {
        "notice": "Token buy price at USDC. Amount of USDC we should spend to buy one token. Returned value is [USDC/token] Usage: tokenAmount = usdcAmount * denominator() / getUsdcBuyPrice() Normilized to 10**18"
      },
      "getUsdcSellPrice()": {
        "notice": "Token sell price at USDC. Amount of USDC we got if sell one token. Returned value is [USDC/token] Usage: usdcAmount = tokenAmount * getUsdcSellPrice() / denominator() Normilized to 10**18"
      }
    },
    "version": 1
  }
}