{
  "contractName": "AUsdc2A3CrvActionBuilder",
  "abi": [
    {
      "inputs": [
        {
          "internalType": "address",
          "name": "_tokenExchange",
          "type": "address"
        },
        {
          "internalType": "address",
          "name": "_aUsdcToken",
          "type": "address"
        },
        {
          "internalType": "address",
          "name": "_a3CrvToken",
          "type": "address"
        },
        {
          "internalType": "address",
          "name": "_usdc2AUsdcActionBuilder",
          "type": "address"
        }
      ],
      "stateMutability": "nonpayable",
      "type": "constructor"
    },
    {
      "inputs": [],
      "name": "a3CrvToken",
      "outputs": [
        {
          "internalType": "contract IERC20",
          "name": "",
          "type": "address"
        }
      ],
      "stateMutability": "view",
      "type": "function",
      "constant": true
    },
    {
      "inputs": [],
      "name": "aUsdcToken",
      "outputs": [
        {
          "internalType": "contract IERC20",
          "name": "",
          "type": "address"
        }
      ],
      "stateMutability": "view",
      "type": "function",
      "constant": true
    },
    {
      "inputs": [],
      "name": "tokenExchange",
      "outputs": [
        {
          "internalType": "contract ITokenExchange",
          "name": "",
          "type": "address"
        }
      ],
      "stateMutability": "view",
      "type": "function",
      "constant": true
    },
    {
      "inputs": [],
      "name": "usdc2AUsdcActionBuilder",
      "outputs": [
        {
          "internalType": "contract IActionBuilder",
          "name": "",
          "type": "address"
        }
      ],
      "stateMutability": "view",
      "type": "function",
      "constant": true
    },
    {
      "inputs": [],
      "name": "getActionCode",
      "outputs": [
        {
          "internalType": "bytes32",
          "name": "",
          "type": "bytes32"
        }
      ],
      "stateMutability": "pure",
      "type": "function",
      "constant": true
    },
    {
      "inputs": [
        {
          "components": [
            {
              "components": [
                {
                  "internalType": "address",
                  "name": "asset",
                  "type": "address"
                },
                {
                  "internalType": "uint256",
                  "name": "amountInVault",
                  "type": "uint256"
                },
                {
                  "internalType": "uint256",
                  "name": "usdcPriceInVault",
                  "type": "uint256"
                },
                {
                  "internalType": "uint256",
                  "name": "diffToTarget",
                  "type": "uint256"
                },
                {
                  "internalType": "int8",
                  "name": "diffToTargetSign",
                  "type": "int8"
                },
                {
                  "internalType": "bool",
                  "name": "targetIsZero",
                  "type": "bool"
                },
                {
                  "internalType": "uint256",
                  "name": "usdcPriceDenominator",
                  "type": "uint256"
                },
                {
                  "internalType": "uint256",
                  "name": "usdcSellPrice",
                  "type": "uint256"
                },
                {
                  "internalType": "uint256",
                  "name": "usdcBuyPrice",
                  "type": "uint256"
                },
                {
                  "internalType": "uint256",
                  "name": "decimals",
                  "type": "uint256"
                },
                {
                  "internalType": "string",
                  "name": "name",
                  "type": "string"
                },
                {
                  "internalType": "string",
                  "name": "symbol",
                  "type": "string"
                }
              ],
              "internalType": "struct IMark2Market.AssetPrices[]",
              "name": "assetPrices",
              "type": "tuple[]"
            },
            {
              "internalType": "uint256",
              "name": "totalUsdcPrice",
              "type": "uint256"
            }
          ],
          "internalType": "struct IMark2Market.TotalAssetPrices",
          "name": "totalAssetPrices",
          "type": "tuple"
        },
        {
          "components": [
            {
              "internalType": "contract ITokenExchange",
              "name": "tokenExchange",
              "type": "address"
            },
            {
              "internalType": "bytes32",
              "name": "code",
              "type": "bytes32"
            },
            {
              "internalType": "contract IERC20",
              "name": "from",
              "type": "address"
            },
            {
              "internalType": "contract IERC20",
              "name": "to",
              "type": "address"
            },
            {
              "internalType": "uint256",
              "name": "amount",
              "type": "uint256"
            },
            {
              "internalType": "bool",
              "name": "exchangeAll",
              "type": "bool"
            },
            {
              "internalType": "bool",
              "name": "executed",
              "type": "bool"
            }
          ],
          "internalType": "struct IActionBuilder.ExchangeAction[]",
          "name": "actions",
          "type": "tuple[]"
        }
      ],
      "name": "buildAction",
      "outputs": [
        {
          "components": [
            {
              "internalType": "contract ITokenExchange",
              "name": "tokenExchange",
              "type": "address"
            },
            {
              "internalType": "bytes32",
              "name": "code",
              "type": "bytes32"
            },
            {
              "internalType": "contract IERC20",
              "name": "from",
              "type": "address"
            },
            {
              "internalType": "contract IERC20",
              "name": "to",
              "type": "address"
            },
            {
              "internalType": "uint256",
              "name": "amount",
              "type": "uint256"
            },
            {
              "internalType": "bool",
              "name": "exchangeAll",
              "type": "bool"
            },
            {
              "internalType": "bool",
              "name": "executed",
              "type": "bool"
            }
          ],
          "internalType": "struct IActionBuilder.ExchangeAction",
          "name": "",
          "type": "tuple"
        }
      ],
      "stateMutability": "view",
      "type": "function",
      "constant": true
    }
  ],
  "bytecode": "0x60806040523480156200001157600080fd5b506040516200196438038062001964833981810160405281019062000037919062000327565b600073ffffffffffffffffffffffffffffffffffffffff168473ffffffffffffffffffffffffffffffffffffffff161415620000aa576040517f08c379a0000000000000000000000000000000000000000000000000000000008152600401620000a190620003c0565b60405180910390fd5b600073ffffffffffffffffffffffffffffffffffffffff168373ffffffffffffffffffffffffffffffffffffffff1614156200011d576040517f08c379a00000000000000000000000000000000000000000000000000000000081526004016200011490620003c0565b60405180910390fd5b600073ffffffffffffffffffffffffffffffffffffffff168273ffffffffffffffffffffffffffffffffffffffff16141562000190576040517f08c379a00000000000000000000000000000000000000000000000000000000081526004016200018790620003c0565b60405180910390fd5b600073ffffffffffffffffffffffffffffffffffffffff168173ffffffffffffffffffffffffffffffffffffffff16141562000203576040517f08c379a0000000000000000000000000000000000000000000000000000000008152600401620001fa90620003c0565b60405180910390fd5b836000806101000a81548173ffffffffffffffffffffffffffffffffffffffff021916908373ffffffffffffffffffffffffffffffffffffffff16021790555082600160006101000a81548173ffffffffffffffffffffffffffffffffffffffff021916908373ffffffffffffffffffffffffffffffffffffffff16021790555081600260006101000a81548173ffffffffffffffffffffffffffffffffffffffff021916908373ffffffffffffffffffffffffffffffffffffffff16021790555080600360006101000a81548173ffffffffffffffffffffffffffffffffffffffff021916908373ffffffffffffffffffffffffffffffffffffffff160217905550505050506200046f565b600081519050620003218162000455565b92915050565b6000806000806080858703121562000344576200034362000427565b5b6000620003548782880162000310565b9450506020620003678782880162000310565b93505060406200037a8782880162000310565b92505060606200038d8782880162000310565b91505092959194509250565b6000620003a8601883620003e2565b9150620003b5826200042c565b602082019050919050565b60006020820190508181036000830152620003db8162000399565b9050919050565b600082825260208201905092915050565b6000620004008262000407565b9050919050565b600073ffffffffffffffffffffffffffffffffffffffff82169050919050565b600080fd5b7f5a65726f2061646472657373206e6f7420616c6c6f7765640000000000000000600082015250565b6200046081620003f3565b81146200046c57600080fd5b50565b6114e5806200047f6000396000f3fe608060405234801561001057600080fd5b50600436106100625760003560e01c806318ad3088146100675780632d86475214610085578063636f6159146100a357806383909eeb146100c15780638a0aeb85146100df578063cc3d6cf71461010f575b600080fd5b61006f61012d565b60405161007c9190610fa8565b60405180910390f35b61008d610155565b60405161009a9190610fde565b60405180910390f35b6100ab61017b565b6040516100b89190610ff9565b60405180910390f35b6100c961019f565b6040516100d69190610fc3565b60405180910390f35b6100f960048036038101906100f49190610df8565b6101c5565b6040516101069190611034565b60405180910390f35b6101176106cf565b6040516101249190610fde565b60405180910390f35b60007fc1be4323348a37ae69ece55f3e69ca17827a2e81977d80591ce3d28155a4296a905090565b600260009054906101000a900473ffffffffffffffffffffffffffffffffffffffff1681565b60008054906101000a900473ffffffffffffffffffffffffffffffffffffffff1681565b600360009054906101000a900473ffffffffffffffffffffffffffffffffffffffff1681565b6101cd6107de565b6000836000015190506101de610864565b6101e6610864565b60005b83518160ff16101561034157600160009054906101000a900473ffffffffffffffffffffffffffffffffffffffff1673ffffffffffffffffffffffffffffffffffffffff16848260ff16815181106102445761024361132d565b5b60200260200101516000015173ffffffffffffffffffffffffffffffffffffffff16141561029157838160ff16815181106102825761028161132d565b5b6020026020010151925061032e565b600260009054906101000a900473ffffffffffffffffffffffffffffffffffffffff1673ffffffffffffffffffffffffffffffffffffffff16848260ff16815181106102e0576102df61132d565b5b60200260200101516000015173ffffffffffffffffffffffffffffffffffffffff16141561032d57838160ff168151811061031e5761031d61132d565b5b6020026020010151915061032e565b5b8080610339906112d4565b9150506101e9565b5061034a6107de565b6000600360009054906101000a900473ffffffffffffffffffffffffffffffffffffffff1673ffffffffffffffffffffffffffffffffffffffff166318ad30886040518163ffffffff1660e01b815260040160206040518083038186803b1580156103b457600080fd5b505afa1580156103c8573d6000803e3d6000fd5b505050506040513d601f19601f820116820180604052508101906103ec9190610dcb565b90506000805b88518160ff1610156104635782898260ff16815181106104155761041461132d565b5b602002602001015160200151141561045057888160ff168151811061043d5761043c61132d565b5b6020026020010151935060019150610463565b808061045b906112d4565b9150506103f2565b50806104a4576040517f08c379a000000000000000000000000000000000000000000000000000000000815260040161049b90611014565b60405180910390fd5b600085606001519050600086608001519050846060015173ffffffffffffffffffffffffffffffffffffffff16600160009054906101000a900473ffffffffffffffffffffffffffffffffffffffff1673ffffffffffffffffffffffffffffffffffffffff16141561052c5761051f828287608001516106f5565b8092508193505050610544565b61053b82828760800151610779565b80925081935050505b6000806000808460000b12156105aa57600160009054906101000a900473ffffffffffffffffffffffffffffffffffffffff169250600260009054906101000a900473ffffffffffffffffffffffffffffffffffffffff1691508960a0015190506105fc565b600260009054906101000a900473ffffffffffffffffffffffffffffffffffffffff169250600160009054906101000a900473ffffffffffffffffffffffffffffffffffffffff1691508860a0015190505b60006040518060e0016040528060008054906101000a900473ffffffffffffffffffffffffffffffffffffffff1673ffffffffffffffffffffffffffffffffffffffff1681526020017fc1be4323348a37ae69ece55f3e69ca17827a2e81977d80591ce3d28155a4296a81526020018573ffffffffffffffffffffffffffffffffffffffff1681526020018473ffffffffffffffffffffffffffffffffffffffff1681526020018781526020018315158152602001600015158152509050809c5050505050505050505050505092915050565b600160009054906101000a900473ffffffffffffffffffffffffffffffffffffffff1681565b600080600084905060008560000b131561075b578386111561072457838661071d9190611164565b9550610756565b85846107309190611164565b95507fffffffffffffffffffffffffffffffffffffffffffffffffffffffffffffffff90505b61076a565b8386610767919061110e565b95505b85819250925050935093915050565b600080600084905060008560000b12156107c057838611156107a85783866107a19190611164565b95506107bb565b85846107b49190611164565b9550600190505b6107cf565b83866107cc919061110e565b95505b85819250925050935093915050565b6040518060e00160405280600073ffffffffffffffffffffffffffffffffffffffff16815260200160008019168152602001600073ffffffffffffffffffffffffffffffffffffffff168152602001600073ffffffffffffffffffffffffffffffffffffffff168152602001600081526020016000151581526020016000151581525090565b604051806101800160405280600073ffffffffffffffffffffffffffffffffffffffff1681526020016000815260200160008152602001600081526020016000800b81526020016000151581526020016000815260200160008152602001600081526020016000815260200160608152602001606081525090565b60006108f26108ed84611074565b61104f565b905080838252602082019050828560208602820111156109155761091461139a565b5b60005b8581101561096357813567ffffffffffffffff81111561093b5761093a61138b565b5b8086016109488982610b3c565b85526020850194506020840193505050600181019050610918565b5050509392505050565b600061098061097b846110a0565b61104f565b905080838252602082019050828560e08602820111156109a3576109a261139a565b5b60005b858110156109d357816109b98882610c96565b845260208401935060e083019250506001810190506109a6565b5050509392505050565b60006109f06109eb846110cc565b61104f565b905082815260208101848484011115610a0c57610a0b61139f565b5b610a17848285611294565b509392505050565b600081359050610a2e8161140e565b92915050565b600082601f830112610a4957610a4861138b565b5b8135610a598482602086016108df565b91505092915050565b600082601f830112610a7757610a7661138b565b5b8135610a8784826020860161096d565b91505092915050565b600081359050610a9f81611425565b92915050565b600081359050610ab48161143c565b92915050565b600081519050610ac98161143c565b92915050565b600081359050610ade81611453565b92915050565b600081359050610af38161146a565b92915050565b600081359050610b0881611481565b92915050565b600082601f830112610b2357610b2261138b565b5b8135610b338482602086016109dd565b91505092915050565b60006101808284031215610b5357610b52611390565b5b610b5e61018061104f565b90506000610b6e84828501610a1f565b6000830152506020610b8284828501610db6565b6020830152506040610b9684828501610db6565b6040830152506060610baa84828501610db6565b6060830152506080610bbe84828501610af9565b60808301525060a0610bd284828501610a90565b60a08301525060c0610be684828501610db6565b60c08301525060e0610bfa84828501610db6565b60e083015250610100610c0f84828501610db6565b61010083015250610120610c2584828501610db6565b6101208301525061014082013567ffffffffffffffff811115610c4b57610c4a611395565b5b610c5784828501610b0e565b6101408301525061016082013567ffffffffffffffff811115610c7d57610c7c611395565b5b610c8984828501610b0e565b6101608301525092915050565b600060e08284031215610cac57610cab611390565b5b610cb660e061104f565b90506000610cc684828501610ae4565b6000830152506020610cda84828501610aa5565b6020830152506040610cee84828501610acf565b6040830152506060610d0284828501610acf565b6060830152506080610d1684828501610db6565b60808301525060a0610d2a84828501610a90565b60a08301525060c0610d3e84828501610a90565b60c08301525092915050565b600060408284031215610d6057610d5f611390565b5b610d6a604061104f565b9050600082013567ffffffffffffffff811115610d8a57610d89611395565b5b610d9684828501610a34565b6000830152506020610daa84828501610db6565b60208301525092915050565b600081359050610dc581611498565b92915050565b600060208284031215610de157610de06113a9565b5b6000610def84828501610aba565b91505092915050565b60008060408385031215610e0f57610e0e6113a9565b5b600083013567ffffffffffffffff811115610e2d57610e2c6113a4565b5b610e3985828601610d4a565b925050602083013567ffffffffffffffff811115610e5a57610e596113a4565b5b610e6685828601610a62565b9150509250929050565b610e79816111aa565b82525050565b610e88816111b6565b82525050565b610e97816111b6565b82525050565b610ea681611228565b82525050565b610eb58161124c565b82525050565b610ec48161124c565b82525050565b610ed381611270565b82525050565b610ee281611270565b82525050565b6000610ef56037836110fd565b9150610f00826113bf565b604082019050919050565b60e082016000820151610f216000850182610eca565b506020820151610f346020850182610e7f565b506040820151610f476040850182610eac565b506060820151610f5a6060850182610eac565b506080820151610f6d6080850182610f99565b5060a0820151610f8060a0850182610e70565b5060c0820151610f9360c0850182610e70565b50505050565b610fa281611211565b82525050565b6000602082019050610fbd6000830184610e8e565b92915050565b6000602082019050610fd86000830184610e9d565b92915050565b6000602082019050610ff36000830184610ebb565b92915050565b600060208201905061100e6000830184610ed9565b92915050565b6000602082019050818103600083015261102d81610ee8565b9050919050565b600060e0820190506110496000830184610f0b565b92915050565b600061105961106a565b905061106582826112a3565b919050565b6000604051905090565b600067ffffffffffffffff82111561108f5761108e61135c565b5b602082029050602081019050919050565b600067ffffffffffffffff8211156110bb576110ba61135c565b5b602082029050602081019050919050565b600067ffffffffffffffff8211156110e7576110e661135c565b5b6110f0826113ae565b9050602081019050919050565b600082825260208201905092915050565b600061111982611211565b915061112483611211565b9250827fffffffffffffffffffffffffffffffffffffffffffffffffffffffffffffffff03821115611159576111586112fe565b5b828201905092915050565b600061116f82611211565b915061117a83611211565b92508282101561118d5761118c6112fe565b5b828203905092915050565b60006111a3826111f1565b9050919050565b60008115159050919050565b6000819050919050565b60006111cb82611198565b9050919050565b60006111dd82611198565b9050919050565b60008160000b9050919050565b600073ffffffffffffffffffffffffffffffffffffffff82169050919050565b6000819050919050565b600060ff82169050919050565b60006112338261123a565b9050919050565b6000611245826111f1565b9050919050565b60006112578261125e565b9050919050565b6000611269826111f1565b9050919050565b600061127b82611282565b9050919050565b600061128d826111f1565b9050919050565b82818337600083830152505050565b6112ac826113ae565b810181811067ffffffffffffffff821117156112cb576112ca61135c565b5b80604052505050565b60006112df8261121b565b915060ff8214156112f3576112f26112fe565b5b600182019050919050565b7f4e487b7100000000000000000000000000000000000000000000000000000000600052601160045260246000fd5b7f4e487b7100000000000000000000000000000000000000000000000000000000600052603260045260246000fd5b7f4e487b7100000000000000000000000000000000000000000000000000000000600052604160045260246000fd5b600080fd5b600080fd5b600080fd5b600080fd5b600080fd5b600080fd5b600080fd5b6000601f19601f8301169050919050565b7f526571756972656420616374696f6e206e6f7420696e20616374696f6e206c6960008201527f73742c20636865636b2063616c63206f72646572696e67000000000000000000602082015250565b61141781611198565b811461142257600080fd5b50565b61142e816111aa565b811461143957600080fd5b50565b611445816111b6565b811461145057600080fd5b50565b61145c816111c0565b811461146757600080fd5b50565b611473816111d2565b811461147e57600080fd5b50565b61148a816111e4565b811461149557600080fd5b50565b6114a181611211565b81146114ac57600080fd5b5056fea264697066735822122019628a4f98edd12fb40e140563fd631434096adb2ef251bacdb0cef397bb8bd864736f6c63430008060033",
  "immutableReferences": {},
  "source": "// SPDX-License-Identifier: MIT\r\npragma solidity >=0.8.0 <0.9.0;\r\n\r\nimport \"@openzeppelin/contracts/token/ERC20/IERC20.sol\";\r\nimport \"../interfaces/ITokenExchange.sol\";\r\nimport \"../interfaces/IActionBuilder.sol\";\r\nimport \"../interfaces/IMark2Market.sol\";\r\n\r\ncontract AUsdc2A3CrvActionBuilder is IActionBuilder {\r\n    bytes32 constant ACTION_CODE = keccak256(\"AUsdc2A3Crv\");\r\n\r\n    ITokenExchange public tokenExchange;\r\n    IERC20 public aUsdcToken;\r\n    IERC20 public a3CrvToken;\r\n    IActionBuilder public usdc2AUsdcActionBuilder;\r\n\r\n    constructor(\r\n        address _tokenExchange,\r\n        address _aUsdcToken,\r\n        address _a3CrvToken,\r\n        address _usdc2AUsdcActionBuilder\r\n    ) {\r\n        require(_tokenExchange != address(0), \"Zero address not allowed\");\r\n        require(_aUsdcToken != address(0), \"Zero address not allowed\");\r\n        require(_a3CrvToken != address(0), \"Zero address not allowed\");\r\n        require(_usdc2AUsdcActionBuilder != address(0), \"Zero address not allowed\");\r\n\r\n        tokenExchange = ITokenExchange(_tokenExchange);\r\n        aUsdcToken = IERC20(_aUsdcToken);\r\n        a3CrvToken = IERC20(_a3CrvToken);\r\n        usdc2AUsdcActionBuilder = IActionBuilder(_usdc2AUsdcActionBuilder);\r\n    }\r\n\r\n    function getActionCode() external pure override returns (bytes32) {\r\n        return ACTION_CODE;\r\n    }\r\n\r\n    function buildAction(\r\n        IMark2Market.TotalAssetPrices memory totalAssetPrices,\r\n        ExchangeAction[] memory actions\r\n    ) external view override returns (ExchangeAction memory) {\r\n        IMark2Market.AssetPrices[] memory assetPrices = totalAssetPrices.assetPrices;\r\n\r\n        // get diff from iteration over prices because can't use mapping in memory params to external functions\r\n        IMark2Market.AssetPrices memory aUsdcPrices;\r\n        IMark2Market.AssetPrices memory a3CrvPrices;\r\n        for (uint8 i = 0; i < assetPrices.length; i++) {\r\n            if (assetPrices[i].asset == address(aUsdcToken)) {\r\n                aUsdcPrices = assetPrices[i];\r\n                continue;\r\n            }\r\n            if (assetPrices[i].asset == address(a3CrvToken)) {\r\n                a3CrvPrices = assetPrices[i];\r\n                continue;\r\n            }\r\n        }\r\n\r\n        // get diffUsdc2AUsdc to correct current diff\r\n        ExchangeAction memory usdc2AUsdcAction;\r\n        bytes32 usdc2AUsdcActionCode = usdc2AUsdcActionBuilder.getActionCode();\r\n        bool foundDependencyAction = false;\r\n        for (uint8 i = 0; i < actions.length; i++) {\r\n            // here we need USDC diff to make action right\r\n            if (actions[i].code == usdc2AUsdcActionCode) {\r\n                usdc2AUsdcAction = actions[i];\r\n                foundDependencyAction = true;\r\n                break;\r\n            }\r\n        }\r\n        require(foundDependencyAction, \"Required action not in action list, check calc ordering\");\r\n\r\n        // use aUsdc diff to start calc diff\r\n        uint256 diff = aUsdcPrices.diffToTarget;\r\n        int8 sign = aUsdcPrices.diffToTargetSign;\r\n\r\n        // correct diff value by usdc2AUsdc diff\r\n        if (address(aUsdcToken) == address(usdc2AUsdcAction.to)) {\r\n            // if in action move aUsdc->usdc then we should decrease diff (sub)\r\n            (diff, sign) = unsignSub(diff, sign, usdc2AUsdcAction.amount);\r\n        } else {\r\n            // if in action move usdc->aUsdc then we should encrease diff (add)\r\n            (diff, sign) = unsignAdd(diff, sign, usdc2AUsdcAction.amount);\r\n        }\r\n\r\n        IERC20 from;\r\n        IERC20 to;\r\n        bool targetIsZero;\r\n        //TODO: need to define needed of usage for targetIsZero\r\n        if (sign < 0) {\r\n            from = aUsdcToken;\r\n            to = a3CrvToken;\r\n            targetIsZero = aUsdcPrices.targetIsZero;\r\n        } else {\r\n            from = a3CrvToken;\r\n            to = aUsdcToken;\r\n            targetIsZero = a3CrvPrices.targetIsZero;\r\n        }\r\n\r\n        ExchangeAction memory action = ExchangeAction(\r\n            tokenExchange,\r\n            ACTION_CODE,\r\n            from,\r\n            to,\r\n            diff,\r\n            targetIsZero,\r\n            false\r\n        );\r\n\r\n        return action;\r\n    }\r\n\r\n    function unsignAdd(\r\n        uint256 value,\r\n        int8 sign,\r\n        uint256 addAmount\r\n    ) internal pure returns (uint256, int8) {\r\n        int8 resSign = sign;\r\n        if (sign < 0) {\r\n            if (value > addAmount) {\r\n                value = value - addAmount;\r\n            } else {\r\n                value = addAmount - value;\r\n                resSign = int8(1);\r\n            }\r\n        } else {\r\n            value = value + addAmount;\r\n        }\r\n        return (value, resSign);\r\n    }\r\n\r\n    function unsignSub(\r\n        uint256 value,\r\n        int8 sign,\r\n        uint256 subAmount\r\n    ) internal pure returns (uint256, int8) {\r\n        int8 resSign = sign;\r\n        if (sign > 0) {\r\n            if (value > subAmount) {\r\n                value = value - subAmount;\r\n            } else {\r\n                value = subAmount - value;\r\n                resSign = int8(-1);\r\n            }\r\n        } else {\r\n            value = value + subAmount;\r\n        }\r\n        return (value, resSign);\r\n    }\r\n}\r\n",
  "sourcePath": "C:\\work\\overnight\\ovngt-mvp\\contracts\\action_builders\\AUsdc2A3CrvActionBuilder.sol",
  "compiler": {
    "name": "solc",
    "version": "0.8.6+commit.11564f7e.Emscripten.clang"
  },
  "schemaVersion": "3.4.2",
  "updatedAt": "2021-10-20T11:28:56.650Z",
  "networkType": "ethereum",
  "devdoc": {
    "kind": "dev",
    "methods": {},
    "version": 1
  },
  "userdoc": {
    "kind": "user",
    "methods": {},
    "version": 1
  }
}