{
  "contractName": "Balancer",
  "abi": [
    {
      "inputs": [],
      "stateMutability": "nonpayable",
      "type": "constructor"
    },
    {
      "anonymous": false,
      "inputs": [
        {
          "indexed": false,
          "internalType": "string",
          "name": "str",
          "type": "string"
        }
      ],
      "name": "ConsoleLog",
      "type": "event"
    },
    {
      "anonymous": false,
      "inputs": [
        {
          "indexed": true,
          "internalType": "bytes32",
          "name": "role",
          "type": "bytes32"
        },
        {
          "indexed": true,
          "internalType": "bytes32",
          "name": "previousAdminRole",
          "type": "bytes32"
        },
        {
          "indexed": true,
          "internalType": "bytes32",
          "name": "newAdminRole",
          "type": "bytes32"
        }
      ],
      "name": "RoleAdminChanged",
      "type": "event"
    },
    {
      "anonymous": false,
      "inputs": [
        {
          "indexed": true,
          "internalType": "bytes32",
          "name": "role",
          "type": "bytes32"
        },
        {
          "indexed": true,
          "internalType": "address",
          "name": "account",
          "type": "address"
        },
        {
          "indexed": true,
          "internalType": "address",
          "name": "sender",
          "type": "address"
        }
      ],
      "name": "RoleGranted",
      "type": "event"
    },
    {
      "anonymous": false,
      "inputs": [
        {
          "indexed": true,
          "internalType": "bytes32",
          "name": "role",
          "type": "bytes32"
        },
        {
          "indexed": true,
          "internalType": "address",
          "name": "account",
          "type": "address"
        },
        {
          "indexed": true,
          "internalType": "address",
          "name": "sender",
          "type": "address"
        }
      ],
      "name": "RoleRevoked",
      "type": "event"
    },
    {
      "inputs": [],
      "name": "DEFAULT_ADMIN_ROLE",
      "outputs": [
        {
          "internalType": "bytes32",
          "name": "",
          "type": "bytes32"
        }
      ],
      "stateMutability": "view",
      "type": "function"
    },
    {
      "inputs": [
        {
          "internalType": "bytes32",
          "name": "role",
          "type": "bytes32"
        }
      ],
      "name": "getRoleAdmin",
      "outputs": [
        {
          "internalType": "bytes32",
          "name": "",
          "type": "bytes32"
        }
      ],
      "stateMutability": "view",
      "type": "function"
    },
    {
      "inputs": [
        {
          "internalType": "bytes32",
          "name": "role",
          "type": "bytes32"
        },
        {
          "internalType": "address",
          "name": "account",
          "type": "address"
        }
      ],
      "name": "grantRole",
      "outputs": [],
      "stateMutability": "nonpayable",
      "type": "function"
    },
    {
      "inputs": [
        {
          "internalType": "bytes32",
          "name": "role",
          "type": "bytes32"
        },
        {
          "internalType": "address",
          "name": "account",
          "type": "address"
        }
      ],
      "name": "hasRole",
      "outputs": [
        {
          "internalType": "bool",
          "name": "",
          "type": "bool"
        }
      ],
      "stateMutability": "view",
      "type": "function"
    },
    {
      "inputs": [
        {
          "internalType": "bytes32",
          "name": "role",
          "type": "bytes32"
        },
        {
          "internalType": "address",
          "name": "account",
          "type": "address"
        }
      ],
      "name": "renounceRole",
      "outputs": [],
      "stateMutability": "nonpayable",
      "type": "function"
    },
    {
      "inputs": [
        {
          "internalType": "bytes32",
          "name": "role",
          "type": "bytes32"
        },
        {
          "internalType": "address",
          "name": "account",
          "type": "address"
        }
      ],
      "name": "revokeRole",
      "outputs": [],
      "stateMutability": "nonpayable",
      "type": "function"
    },
    {
      "inputs": [
        {
          "internalType": "bytes4",
          "name": "interfaceId",
          "type": "bytes4"
        }
      ],
      "name": "supportsInterface",
      "outputs": [
        {
          "internalType": "bool",
          "name": "",
          "type": "bool"
        }
      ],
      "stateMutability": "view",
      "type": "function"
    },
    {
      "inputs": [
        {
          "internalType": "address",
          "name": "_m2m",
          "type": "address"
        }
      ],
      "name": "setMark2Market",
      "outputs": [],
      "stateMutability": "nonpayable",
      "type": "function"
    },
    {
      "inputs": [
        {
          "internalType": "address[]",
          "name": "_actionBuildersInOrder",
          "type": "address[]"
        }
      ],
      "name": "setActionBuilders",
      "outputs": [],
      "stateMutability": "nonpayable",
      "type": "function"
    },
    {
      "inputs": [
        {
          "internalType": "address",
          "name": "actionBuilder",
          "type": "address"
        },
        {
          "internalType": "uint256",
          "name": "index",
          "type": "uint256"
        }
      ],
      "name": "addActionBuilderAt",
      "outputs": [],
      "stateMutability": "nonpayable",
      "type": "function"
    },
    {
      "inputs": [
        {
          "internalType": "contract IERC20",
          "name": "withdrawToken",
          "type": "address"
        },
        {
          "internalType": "uint256",
          "name": "withdrawAmount",
          "type": "uint256"
        }
      ],
      "name": "buildBalanceActions",
      "outputs": [
        {
          "components": [
            {
              "internalType": "contract ITokenExchange",
              "name": "tokenExchange",
              "type": "address"
            },
            {
              "internalType": "bytes32",
              "name": "code",
              "type": "bytes32"
            },
            {
              "internalType": "contract IERC20",
              "name": "from",
              "type": "address"
            },
            {
              "internalType": "contract IERC20",
              "name": "to",
              "type": "address"
            },
            {
              "internalType": "uint256",
              "name": "amount",
              "type": "uint256"
            },
            {
              "internalType": "bool",
              "name": "exchangeAll",
              "type": "bool"
            },
            {
              "internalType": "bool",
              "name": "executed",
              "type": "bool"
            }
          ],
          "internalType": "struct IActionBuilder.ExchangeAction[]",
          "name": "",
          "type": "tuple[]"
        }
      ],
      "stateMutability": "nonpayable",
      "type": "function"
    },
    {
      "inputs": [],
      "name": "buildBalanceActions",
      "outputs": [
        {
          "components": [
            {
              "internalType": "contract ITokenExchange",
              "name": "tokenExchange",
              "type": "address"
            },
            {
              "internalType": "bytes32",
              "name": "code",
              "type": "bytes32"
            },
            {
              "internalType": "contract IERC20",
              "name": "from",
              "type": "address"
            },
            {
              "internalType": "contract IERC20",
              "name": "to",
              "type": "address"
            },
            {
              "internalType": "uint256",
              "name": "amount",
              "type": "uint256"
            },
            {
              "internalType": "bool",
              "name": "exchangeAll",
              "type": "bool"
            },
            {
              "internalType": "bool",
              "name": "executed",
              "type": "bool"
            }
          ],
          "internalType": "struct IActionBuilder.ExchangeAction[]",
          "name": "",
          "type": "tuple[]"
        }
      ],
      "stateMutability": "nonpayable",
      "type": "function"
    }
  ],
  "bytecode": "0x60806040523480156200001157600080fd5b50620000276000801b336200002d60201b60201c565b620001a6565b6200003f82826200004360201b60201c565b5050565b6200005582826200013460201b60201c565b6200013057600160008084815260200190815260200160002060000160008373ffffffffffffffffffffffffffffffffffffffff1673ffffffffffffffffffffffffffffffffffffffff16815260200190815260200160002060006101000a81548160ff021916908315150217905550620000d56200019e60201b60201c565b73ffffffffffffffffffffffffffffffffffffffff168173ffffffffffffffffffffffffffffffffffffffff16837f2f8788117e7eff1d82e926ec794901d17c78024a50270940304540a733656f0d60405160405180910390a45b5050565b600080600084815260200190815260200160002060000160008373ffffffffffffffffffffffffffffffffffffffff1673ffffffffffffffffffffffffffffffffffffffff16815260200190815260200160002060009054906101000a900460ff16905092915050565b600033905090565b61317980620001b66000396000f3fe608060405234801561001057600080fd5b50600436106100b45760003560e01c806386c9a1ac1161007157806386c9a1ac1461018957806391d14854146101a5578063a217fddf146101d5578063c7fa6b9e146101f3578063d4341b9914610223578063d547741f14610241576100b4565b806301ffc9a7146100b95780631ef70eca146100e9578063248a9ca3146101055780632f2ff15d1461013557806336568abe14610151578063370447711461016d575b600080fd5b6100d360048036038101906100ce9190611cea565b61025d565b6040516100e091906124ae565b60405180910390f35b61010360048036038101906100fe9190611c03565b6102d7565b005b61011f600480360381019061011a9190611c50565b610416565b60405161012c91906124c9565b60405180910390f35b61014f600480360381019061014a9190611caa565b610435565b005b61016b60048036038101906101669190611caa565b61045e565b005b61018760048036038101906101829190611b96565b6104e1565b005b6101a3600480360381019061019e9190611bc3565b6105e1565b005b6101bf60048036038101906101ba9190611caa565b61063b565b6040516101cc91906124ae565b60405180910390f35b6101dd6106a5565b6040516101ea91906124c9565b60405180910390f35b61020d60048036038101906102089190611d17565b6106ac565b60405161021a919061248c565b60405180910390f35b61022b610c0a565b604051610238919061248c565b60405180910390f35b61025b60048036038101906102569190611caa565b610c1c565b005b60007f7965db0b000000000000000000000000000000000000000000000000000000007bffffffffffffffffffffffffffffffffffffffffffffffffffffffff1916827bffffffffffffffffffffffffffffffffffffffffffffffffffffffff191614806102d057506102cf82610c45565b5b9050919050565b6102e46000801b3361063b565b610323576040517f08c379a000000000000000000000000000000000000000000000000000000000815260040161031a90612526565b60405180910390fd5b60005b828290508160ff16101561037e5761036b83838360ff1681811061034d5761034c612d13565b5b90506020020160208101906103629190611b96565b8260ff16610caf565b808061037690612c21565b915050610326565b50818190506003805490501115610412576000828290506003805490506103a591906129de565b905060005b818160ff16101561040f5760038054806103c7576103c6612ce4565b5b6001900381819060005260206000200160006101000a81549073ffffffffffffffffffffffffffffffffffffffff02191690559055808061040790612c21565b9150506103aa565b50505b5050565b6000806000838152602001908152602001600020600101549050919050565b61043e82610416565b61044f8161044a610da2565b610daa565b6104598383610e47565b505050565b610466610da2565b73ffffffffffffffffffffffffffffffffffffffff168173ffffffffffffffffffffffffffffffffffffffff16146104d3576040517f08c379a00000000000000000000000000000000000000000000000000000000081526004016104ca90612566565b60405180910390fd5b6104dd8282610f27565b5050565b6104ee6000801b3361063b565b61052d576040517f08c379a000000000000000000000000000000000000000000000000000000000815260040161052490612526565b60405180910390fd5b600073ffffffffffffffffffffffffffffffffffffffff168173ffffffffffffffffffffffffffffffffffffffff16141561059d576040517f08c379a000000000000000000000000000000000000000000000000000000000815260040161059490612546565b60405180910390fd5b80600160006101000a81548173ffffffffffffffffffffffffffffffffffffffff021916908373ffffffffffffffffffffffffffffffffffffffff16021790555050565b6105ee6000801b3361063b565b61062d576040517f08c379a000000000000000000000000000000000000000000000000000000000815260040161062490612526565b60405180910390fd5b6106378282610caf565b5050565b600080600084815260200190815260200160002060000160008373ffffffffffffffffffffffffffffffffffffffff1673ffffffffffffffffffffffffffffffffffffffff16815260200190815260200160002060009054906101000a900460ff16905092915050565b6000801b81565b6060600160009054906101000a900473ffffffffffffffffffffffffffffffffffffffff1673ffffffffffffffffffffffffffffffffffffffff1663734bd75d84846040518363ffffffff1660e01b815260040161070b929190612463565b600060405180830381600087803b15801561072557600080fd5b505af192505050801561075b57506040513d6000823e3d601f19601f820116820180604052508101906107589190611d84565b60015b61083457610767612d71565b806308c379a014156107c4575061077c612ff5565b8061078757506107c6565b806040517f08c379a00000000000000000000000000000000000000000000000000000000081526004016107bb91906124e4565b60405180910390fd5b505b6107cf83611008565b6107d8836111cb565b6040516020016107e99291906123e4565b6040516020818303038152906040526040517f08c379a000000000000000000000000000000000000000000000000000000000815260040161082b91906124e4565b60405180910390fd5b60008160200151905061087c6040518060400160405280601081526020017f746f74616c5573646350726963653a200000000000000000000000000000000081525082611332565b600060038054905067ffffffffffffffff81111561089d5761089c612d42565b5b6040519080825280602002602001820160405280156108d657816020015b6108c3611618565b8152602001906001900390816108bb5790505b50905061091d6040518060400160405280601e81526020017f616374696f6e4275696c64657273496e4f726465722e6c656e6774683a200000815250600380549050611332565b60005b6003805490508160ff161015610bbd5760038160ff168154811061094757610946612d13565b5b9060005260206000200160009054906101000a900473ffffffffffffffffffffffffffffffffffffffff1673ffffffffffffffffffffffffffffffffffffffff16638a0aeb8585846040518363ffffffff1660e01b81526004016109ac929190612586565b60e06040518083038186803b1580156109c457600080fd5b505afa9250505080156109f557506040513d601f19601f820116820180604052508101906109f29190611d57565b60015b610b8757610a01612d71565b806308c379a01415610a5e5750610a16612ff5565b80610a215750610a60565b806040517f08c379a0000000000000000000000000000000000000000000000000000000008152600401610a5591906124e4565b60405180910390fd5b505b610a6c8160ff166111cb565b60038260ff1681548110610a8357610a82612d13565b5b9060005260206000200160009054906101000a900473ffffffffffffffffffffffffffffffffffffffff1673ffffffffffffffffffffffffffffffffffffffff166318ad30886040518163ffffffff1660e01b815260040160206040518083038186803b158015610af357600080fd5b505afa158015610b07573d6000803e3d6000fd5b505050506040513d601f19601f82011682018060405250810190610b2b9190611c7d565b604051602001610b3c9291906123a6565b6040516020818303038152906040526040517f08c379a0000000000000000000000000000000000000000000000000000000008152600401610b7e91906124e4565b60405180910390fd5b80838360ff1681518110610b9e57610b9d612d13565b5b6020026020010181905250508080610bb590612c21565b915050610920565b50610bfe6040518060400160405280601481526020017f616374696f6e4f726465722e6c656e6774683a200000000000000000000000008152508251611332565b80935050505092915050565b6060610c176000806106ac565b905090565b610c2582610416565b610c3681610c31610da2565b610daa565b610c408383610f27565b505050565b60007f01ffc9a7000000000000000000000000000000000000000000000000000000007bffffffffffffffffffffffffffffffffffffffffffffffffffffffff1916827bffffffffffffffffffffffffffffffffffffffffffffffffffffffff1916149050919050565b600060038054905090506000811480610cd3575081600182610cd191906129de565b105b15610d4057600060018284610ce891906129de565b610cf291906126e9565b905060005b818160ff161015610d3d576003600181600181540180825580915050039060005260206000200160009054906101000a9050508080610d3590612c21565b915050610cf7565b50505b8260038381548110610d5557610d54612d13565b5b9060005260206000200160006101000a81548173ffffffffffffffffffffffffffffffffffffffff021916908373ffffffffffffffffffffffffffffffffffffffff160217905550505050565b600033905090565b610db4828261063b565b610e4357610dd98173ffffffffffffffffffffffffffffffffffffffff166014611396565b610de78360001c6020611396565b604051602001610df8929190612429565b6040516020818303038152906040526040517f08c379a0000000000000000000000000000000000000000000000000000000008152600401610e3a91906124e4565b60405180910390fd5b5050565b610e51828261063b565b610f2357600160008084815260200190815260200160002060000160008373ffffffffffffffffffffffffffffffffffffffff1673ffffffffffffffffffffffffffffffffffffffff16815260200190815260200160002060006101000a81548160ff021916908315150217905550610ec8610da2565b73ffffffffffffffffffffffffffffffffffffffff168173ffffffffffffffffffffffffffffffffffffffff16837f2f8788117e7eff1d82e926ec794901d17c78024a50270940304540a733656f0d60405160405180910390a45b5050565b610f31828261063b565b1561100457600080600084815260200190815260200160002060000160008373ffffffffffffffffffffffffffffffffffffffff1673ffffffffffffffffffffffffffffffffffffffff16815260200190815260200160002060006101000a81548160ff021916908315150217905550610fa9610da2565b73ffffffffffffffffffffffffffffffffffffffff168173ffffffffffffffffffffffffffffffffffffffff16837ff6391f5c32d9c69d2a47ea670b442974b53935d1edc7fd64eb21e047a839171b60405160405180910390a45b5050565b60606000602867ffffffffffffffff81111561102757611026612d42565b5b6040519080825280601f01601f1916602001820160405280156110595781602001600182028036833780820191505090505b50905060005b60148110156111c157600081601361107791906129de565b60086110839190612949565b600261108f919061282b565b8573ffffffffffffffffffffffffffffffffffffffff166110b09190612776565b60f81b9050600060108260f81c6110c791906127a7565b60f81b905060008160f81c60106110de91906129a3565b8360f81c6110ec9190612a12565b60f81b90506110fa826115d2565b858560026111089190612949565b8151811061111957611118612d13565b5b60200101907effffffffffffffffffffffffffffffffffffffffffffffffffffffffffffff1916908160001a905350611151816115d2565b8560018660026111619190612949565b61116b91906126e9565b8151811061117c5761117b612d13565b5b60200101907effffffffffffffffffffffffffffffffffffffffffffffffffffffffffffff1916908160001a90535050505080806111b990612bd8565b91505061105f565b5080915050919050565b60606000821415611213576040518060400160405280600181526020017f3000000000000000000000000000000000000000000000000000000000000000815250905061132d565b600082905060005b6000821461124557808061122e90612bd8565b915050600a8261123e9190612776565b915061121b565b60008167ffffffffffffffff81111561126157611260612d42565b5b6040519080825280601f01601f1916602001820160405280156112935781602001600182028036833780820191505090505b50905060008290505b60008614611325576001816112b191906129de565b9050600a866112c09190612c55565b60306112cc91906126e9565b60f81b8282815181106112e2576112e1612d13565b5b60200101907effffffffffffffffffffffffffffffffffffffffffffffffffffffffffffff1916908160001a905350600a8661131e9190612776565b955061129c565b819450505050505b919050565b7f0f8db0708c4e6b233e2c285fe1ed66015dee71bd374ac8e835534be5f592d6a28261135d836111cb565b60405160200161136e929190612382565b60405160208183030381529060405260405161138a91906124e4565b60405180910390a15050565b6060600060028360026113a99190612949565b6113b391906126e9565b67ffffffffffffffff8111156113cc576113cb612d42565b5b6040519080825280601f01601f1916602001820160405280156113fe5781602001600182028036833780820191505090505b5090507f30000000000000000000000000000000000000000000000000000000000000008160008151811061143657611435612d13565b5b60200101907effffffffffffffffffffffffffffffffffffffffffffffffffffffffffffff1916908160001a9053507f78000000000000000000000000000000000000000000000000000000000000008160018151811061149a57611499612d13565b5b60200101907effffffffffffffffffffffffffffffffffffffffffffffffffffffffffffff1916908160001a905350600060018460026114da9190612949565b6114e491906126e9565b90505b6001811115611584577f3031323334353637383961626364656600000000000000000000000000000000600f86166010811061152657611525612d13565b5b1a60f81b82828151811061153d5761153c612d13565b5b60200101907effffffffffffffffffffffffffffffffffffffffffffffffffffffffffffff1916908160001a905350600485901c94508061157d90612b7d565b90506114e7565b50600084146115c8576040517f08c379a00000000000000000000000000000000000000000000000000000000081526004016115bf90612506565b60405180910390fd5b8091505092915050565b6000600a8260f81c60ff1610156115fd5760308260f81c6115f3919061273f565b60f81b9050611613565b60578260f81c61160d919061273f565b60f81b90505b919050565b6040518060e00160405280600073ffffffffffffffffffffffffffffffffffffffff16815260200160008019168152602001600073ffffffffffffffffffffffffffffffffffffffff168152602001600073ffffffffffffffffffffffffffffffffffffffff168152602001600081526020016000151581526020016000151581525090565b60006116b16116ac846125e2565b6125bd565b905080838252602082019050828560208602820111156116d4576116d3612da7565b5b60005b8581101561172257815167ffffffffffffffff8111156116fa576116f9612d98565b5b80860161170789826118f2565b855260208501945060208401935050506001810190506116d7565b5050509392505050565b600061173f61173a8461260e565b6125bd565b90508281526020810184848401111561175b5761175a612dac565b5b611766848285612b4a565b509392505050565b60008135905061177d8161308b565b92915050565b6000815190506117928161308b565b92915050565b60008083601f8401126117ae576117ad612d98565b5b8235905067ffffffffffffffff8111156117cb576117ca612d93565b5b6020830191508360208202830111156117e7576117e6612da7565b5b9250929050565b600082601f83011261180357611802612d98565b5b815161181384826020860161169e565b91505092915050565b60008151905061182b816130a2565b92915050565b600081359050611840816130b9565b92915050565b600081519050611855816130b9565b92915050565b60008135905061186a816130d0565b92915050565b60008135905061187f816130e7565b92915050565b600081519050611894816130e7565b92915050565b6000815190506118a9816130fe565b92915050565b6000815190506118be81613115565b92915050565b600082601f8301126118d9576118d8612d98565b5b81516118e984826020860161172c565b91505092915050565b6000610180828403121561190957611908612d9d565b5b6119146101806125bd565b9050600061192484828501611783565b600083015250602061193884828501611b81565b602083015250604061194c84828501611b81565b604083015250606061196084828501611b81565b6060830152506080611974848285016118af565b60808301525060a06119888482850161181c565b60a08301525060c061199c84828501611b81565b60c08301525060e06119b084828501611b81565b60e0830152506101006119c584828501611b81565b610100830152506101206119db84828501611b81565b6101208301525061014082015167ffffffffffffffff811115611a0157611a00612da2565b5b611a0d848285016118c4565b6101408301525061016082015167ffffffffffffffff811115611a3357611a32612da2565b5b611a3f848285016118c4565b6101608301525092915050565b600060e08284031215611a6257611a61612d9d565b5b611a6c60e06125bd565b90506000611a7c8482850161189a565b6000830152506020611a9084828501611846565b6020830152506040611aa484828501611885565b6040830152506060611ab884828501611885565b6060830152506080611acc84828501611b81565b60808301525060a0611ae08482850161181c565b60a08301525060c0611af48482850161181c565b60c08301525092915050565b600060408284031215611b1657611b15612d9d565b5b611b2060406125bd565b9050600082015167ffffffffffffffff811115611b4057611b3f612da2565b5b611b4c848285016117ee565b6000830152506020611b6084828501611b81565b60208301525092915050565b600081359050611b7b8161312c565b92915050565b600081519050611b908161312c565b92915050565b600060208284031215611bac57611bab612db6565b5b6000611bba8482850161176e565b91505092915050565b60008060408385031215611bda57611bd9612db6565b5b6000611be88582860161176e565b9250506020611bf985828601611b6c565b9150509250929050565b60008060208385031215611c1a57611c19612db6565b5b600083013567ffffffffffffffff811115611c3857611c37612db1565b5b611c4485828601611798565b92509250509250929050565b600060208284031215611c6657611c65612db6565b5b6000611c7484828501611831565b91505092915050565b600060208284031215611c9357611c92612db6565b5b6000611ca184828501611846565b91505092915050565b60008060408385031215611cc157611cc0612db6565b5b6000611ccf85828601611831565b9250506020611ce08582860161176e565b9150509250929050565b600060208284031215611d0057611cff612db6565b5b6000611d0e8482850161185b565b91505092915050565b60008060408385031215611d2e57611d2d612db6565b5b6000611d3c85828601611870565b9250506020611d4d85828601611b6c565b9150509250929050565b600060e08284031215611d6d57611d6c612db6565b5b6000611d7b84828501611a4c565b91505092915050565b600060208284031215611d9a57611d99612db6565b5b600082015167ffffffffffffffff811115611db857611db7612db1565b5b611dc484828501611b00565b91505092915050565b6000611dd9838361218e565b905092915050565b6000611ded8383612299565b60e08301905092915050565b611e0281612a46565b82525050565b611e1181612a46565b82525050565b6000611e228261265f565b611e2c818561269a565b935083602082028501611e3e8561263f565b8060005b85811015611e7a5784840389528151611e5b8582611dcd565b9450611e6683612680565b925060208a01995050600181019050611e42565b50829750879550505050505092915050565b6000611e978261266a565b611ea181856126ab565b9350611eac8361264f565b8060005b83811015611edd578151611ec48882611de1565b9750611ecf8361268d565b925050600181019050611eb0565b5085935050505092915050565b611ef381612a58565b82525050565b611f0281612a58565b82525050565b611f1181612a64565b82525050565b611f2081612a64565b82525050565b611f37611f3282612a64565b612c4b565b82525050565b611f4681612b02565b82525050565b611f5581612b26565b82525050565b611f6481612abe565b82525050565b6000611f7582612675565b611f7f81856126bc565b9350611f8f818560208601612b4a565b611f9881612dbb565b840191505092915050565b6000611fae82612675565b611fb881856126cd565b9350611fc8818560208601612b4a565b611fd181612dbb565b840191505092915050565b6000611fe782612675565b611ff181856126de565b9350612001818560208601612b4a565b80840191505092915050565b600061201a6020836126cd565b915061202582612de6565b602082019050919050565b600061203d6010836126de565b915061204882612e0f565b601082019050919050565b60006120606014836126cd565b915061206b82612e38565b602082019050919050565b60006120836025836126de565b915061208e82612e61565b602582019050919050565b60006120a66007836126de565b91506120b182612eb0565b600782019050919050565b60006120c96017836126de565b91506120d482612ed9565b601782019050919050565b60006120ec6018836126cd565b91506120f782612f02565b602082019050919050565b600061210f600f836126de565b915061211a82612f2b565b600f82019050919050565b60006121326017836126de565b915061213d82612f54565b601782019050919050565b60006121556011836126de565b915061216082612f7d565b601182019050919050565b6000612178602f836126cd565b915061218382612fa6565b604082019050919050565b6000610180830160008301516121a76000860182611df9565b5060208301516121ba6020860182612364565b5060408301516121cd6040860182612364565b5060608301516121e06060860182612364565b5060808301516121f36080860182611f5b565b5060a083015161220660a0860182611eea565b5060c083015161221960c0860182612364565b5060e083015161222c60e0860182612364565b50610100830151612241610100860182612364565b50610120830151612256610120860182612364565b506101408301518482036101408601526122708282611f6a565b91505061016083015184820361016086015261228c8282611f6a565b9150508091505092915050565b60e0820160008201516122af6000850182611f4c565b5060208201516122c26020850182611f08565b5060408201516122d56040850182611f3d565b5060608201516122e86060850182611f3d565b5060808201516122fb6080850182612364565b5060a082015161230e60a0850182611eea565b5060c082015161232160c0850182611eea565b50505050565b600060408301600083015184820360008601526123448282611e17565b91505060208301516123596020860182612364565b508091505092915050565b61236d81612aeb565b82525050565b61237c81612aeb565b82525050565b600061238e8285611fdc565b915061239a8284611fdc565b91508190509392505050565b60006123b28285611fdc565b91506123bd826120bc565b91506123c882612099565b91506123d48284611f26565b6020820191508190509392505050565b60006123ef82612076565b91506123fa82612102565b91506124068285611fdc565b915061241182612030565b915061241d8284611fdc565b91508190509392505050565b600061243482612125565b91506124408285611fdc565b915061244b82612148565b91506124578284611fdc565b91508190509392505050565b60006040820190506124786000830185611e08565b6124856020830184612373565b9392505050565b600060208201905081810360008301526124a68184611e8c565b905092915050565b60006020820190506124c36000830184611ef9565b92915050565b60006020820190506124de6000830184611f17565b92915050565b600060208201905081810360008301526124fe8184611fa3565b905092915050565b6000602082019050818103600083015261251f8161200d565b9050919050565b6000602082019050818103600083015261253f81612053565b9050919050565b6000602082019050818103600083015261255f816120df565b9050919050565b6000602082019050818103600083015261257f8161216b565b9050919050565b600060408201905081810360008301526125a08185612327565b905081810360208301526125b48184611e8c565b90509392505050565b60006125c76125d8565b90506125d38282612ba7565b919050565b6000604051905090565b600067ffffffffffffffff8211156125fd576125fc612d42565b5b602082029050602081019050919050565b600067ffffffffffffffff82111561262957612628612d42565b5b61263282612dbb565b9050602081019050919050565b6000819050602082019050919050565b6000819050602082019050919050565b600081519050919050565b600081519050919050565b600081519050919050565b6000602082019050919050565b6000602082019050919050565b600082825260208201905092915050565b600082825260208201905092915050565b600082825260208201905092915050565b600082825260208201905092915050565b600081905092915050565b60006126f482612aeb565b91506126ff83612aeb565b9250827fffffffffffffffffffffffffffffffffffffffffffffffffffffffffffffffff0382111561273457612733612c86565b5b828201905092915050565b600061274a82612af5565b915061275583612af5565b92508260ff0382111561276b5761276a612c86565b5b828201905092915050565b600061278182612aeb565b915061278c83612aeb565b92508261279c5761279b612cb5565b5b828204905092915050565b60006127b282612af5565b91506127bd83612af5565b9250826127cd576127cc612cb5565b5b828204905092915050565b6000808291508390505b6001851115612822578086048111156127fe576127fd612c86565b5b600185161561280d5780820291505b808102905061281b85612dcc565b94506127e2565b94509492505050565b600061283682612aeb565b915061284183612aeb565b925061286e7fffffffffffffffffffffffffffffffffffffffffffffffffffffffffffffffff8484612876565b905092915050565b6000826128865760019050612942565b816128945760009050612942565b81600181146128aa57600281146128b4576128e3565b6001915050612942565b60ff8411156128c6576128c5612c86565b5b8360020a9150848211156128dd576128dc612c86565b5b50612942565b5060208310610133831016604e8410600b84101617156129185782820a90508381111561291357612912612c86565b5b612942565b61292584848460016127d8565b9250905081840481111561293c5761293b612c86565b5b81810290505b9392505050565b600061295482612aeb565b915061295f83612aeb565b9250817fffffffffffffffffffffffffffffffffffffffffffffffffffffffffffffffff048311821515161561299857612997612c86565b5b828202905092915050565b60006129ae82612af5565b91506129b983612af5565b92508160ff04831182151516156129d3576129d2612c86565b5b828202905092915050565b60006129e982612aeb565b91506129f483612aeb565b925082821015612a0757612a06612c86565b5b828203905092915050565b6000612a1d82612af5565b9150612a2883612af5565b925082821015612a3b57612a3a612c86565b5b828203905092915050565b6000612a5182612acb565b9050919050565b60008115159050919050565b6000819050919050565b60007fffffffff0000000000000000000000000000000000000000000000000000000082169050919050565b6000612aa582612a46565b9050919050565b6000612ab782612a46565b9050919050565b60008160000b9050919050565b600073ffffffffffffffffffffffffffffffffffffffff82169050919050565b6000819050919050565b600060ff82169050919050565b6000612b0d82612b14565b9050919050565b6000612b1f82612acb565b9050919050565b6000612b3182612b38565b9050919050565b6000612b4382612acb565b9050919050565b60005b83811015612b68578082015181840152602081019050612b4d565b83811115612b77576000848401525b50505050565b6000612b8882612aeb565b91506000821415612b9c57612b9b612c86565b5b600182039050919050565b612bb082612dbb565b810181811067ffffffffffffffff82111715612bcf57612bce612d42565b5b80604052505050565b6000612be382612aeb565b91507fffffffffffffffffffffffffffffffffffffffffffffffffffffffffffffffff821415612c1657612c15612c86565b5b600182019050919050565b6000612c2c82612af5565b915060ff821415612c4057612c3f612c86565b5b600182019050919050565b6000819050919050565b6000612c6082612aeb565b9150612c6b83612aeb565b925082612c7b57612c7a612cb5565b5b828206905092915050565b7f4e487b7100000000000000000000000000000000000000000000000000000000600052601160045260246000fd5b7f4e487b7100000000000000000000000000000000000000000000000000000000600052601260045260246000fd5b7f4e487b7100000000000000000000000000000000000000000000000000000000600052603160045260246000fd5b7f4e487b7100000000000000000000000000000000000000000000000000000000600052603260045260246000fd5b7f4e487b7100000000000000000000000000000000000000000000000000000000600052604160045260246000fd5b600060033d1115612d905760046000803e612d8d600051612dd9565b90505b90565b600080fd5b600080fd5b600080fd5b600080fd5b600080fd5b600080fd5b600080fd5b600080fd5b6000601f19601f8301169050919050565b60008160011c9050919050565b60008160e01c9050919050565b7f537472696e67733a20686578206c656e67746820696e73756666696369656e74600082015250565b7f207769746864726177416d6f756e742000000000000000000000000000000000600082015250565b7f5265737472696374656420746f2061646d696e73000000000000000000000000600082015250565b7f6d326d2e6173736574507269636573466f7242616c616e63653a204e6f20726560008201527f61736f6e20000000000000000000000000000000000000000000000000000000602082015250565b7f20636f64653a2000000000000000000000000000000000000000000000000000600082015250565b7f6275696c64416374696f6e3a204e6f20726561736f6e20000000000000000000600082015250565b7f5a65726f2061646472657373206e6f7420616c6c6f7765640000000000000000600082015250565b7f207769746864726177546f6b656e200000000000000000000000000000000000600082015250565b7f416363657373436f6e74726f6c3a206163636f756e7420000000000000000000600082015250565b7f206973206d697373696e6720726f6c6520000000000000000000000000000000600082015250565b7f416363657373436f6e74726f6c3a2063616e206f6e6c792072656e6f756e636560008201527f20726f6c657320666f722073656c660000000000000000000000000000000000602082015250565b600060443d101561300557613088565b61300d6125d8565b60043d036004823e80513d602482011167ffffffffffffffff82111715613035575050613088565b808201805167ffffffffffffffff8111156130535750505050613088565b80602083010160043d038501811115613070575050505050613088565b61307f82602001850186612ba7565b82955050505050505b90565b61309481612a46565b811461309f57600080fd5b50565b6130ab81612a58565b81146130b657600080fd5b50565b6130c281612a64565b81146130cd57600080fd5b50565b6130d981612a6e565b81146130e457600080fd5b50565b6130f081612a9a565b81146130fb57600080fd5b50565b61310781612aac565b811461311257600080fd5b50565b61311e81612abe565b811461312957600080fd5b50565b61313581612aeb565b811461314057600080fd5b5056fea2646970667358221220d51274a78115d70a9f47ba29c0cb3804f73234f98d0ad90f0ba542240865f6d864736f6c63430008060033",
  "immutableReferences": {},
  "source": "// SPDX-License-Identifier: MIT\r\npragma solidity >=0.8.0 <0.9.0;\r\n\r\nimport \"@openzeppelin/contracts/token/ERC20/IERC20.sol\";\r\nimport \"@openzeppelin/contracts/access/AccessControl.sol\";\r\nimport \"./interfaces/IMark2Market.sol\";\r\nimport \"./interfaces/IActionBuilder.sol\";\r\nimport \"./interfaces/ITokenExchange.sol\";\r\nimport \"./registries/InvestmentPortfolio.sol\";\r\nimport \"./token_exchanges/Usdc2AUsdcTokenExchange.sol\";\r\n\r\n//TODO: use AccessControl or Ownable from zeppelin\r\ncontract Balancer is AccessControl {\r\n    // ---  fields\r\n\r\n    IMark2Market m2m;\r\n    InvestmentPortfolio investmentPortfolio;\r\n    address[] actionBuildersInOrder;\r\n\r\n    // ---  events\r\n\r\n    //TODO: remove\r\n    event ConsoleLog(string str);\r\n\r\n    // ---  modifiers\r\n\r\n    modifier onlyAdmin() {\r\n        require(hasRole(DEFAULT_ADMIN_ROLE, msg.sender), \"Restricted to admins\");\r\n        _;\r\n    }\r\n\r\n    // ---  constructor\r\n\r\n    constructor() {\r\n        _setupRole(DEFAULT_ADMIN_ROLE, msg.sender);\r\n    }\r\n\r\n    // ---  setters\r\n\r\n    function setMark2Market(address _m2m) external onlyAdmin {\r\n        require(_m2m != address(0), \"Zero address not allowed\");\r\n        m2m = IMark2Market(_m2m);\r\n    }\r\n\r\n    function setActionBuilders(address[] calldata _actionBuildersInOrder) external onlyAdmin {\r\n        for (uint8 i = 0; i < _actionBuildersInOrder.length; i++) {\r\n            _addActionBuilderAt(_actionBuildersInOrder[i], i);\r\n        }\r\n        // truncate array if needed\r\n        if (actionBuildersInOrder.length > _actionBuildersInOrder.length) {\r\n            uint256 removeCount = actionBuildersInOrder.length - _actionBuildersInOrder.length;\r\n            for (uint8 i = 0; i < removeCount; i++) {\r\n                actionBuildersInOrder.pop();\r\n            }\r\n        }\r\n    }\r\n\r\n    function addActionBuilderAt(address actionBuilder, uint256 index) external onlyAdmin {\r\n        _addActionBuilderAt(actionBuilder, index);\r\n    }\r\n\r\n    function _addActionBuilderAt(address actionBuilder, uint256 index) internal {\r\n        uint256 currentlength = actionBuildersInOrder.length;\r\n        // expand array id needed\r\n        if (currentlength == 0 || currentlength - 1 < index) {\r\n            uint256 additionalCount = index - currentlength + 1;\r\n            for (uint8 i = 0; i < additionalCount; i++) {\r\n                actionBuildersInOrder.push();\r\n            }\r\n        }\r\n        actionBuildersInOrder[index] = actionBuilder;\r\n    }\r\n\r\n    // ---  logic\r\n\r\n    function buildBalanceActions() public returns (IActionBuilder.ExchangeAction[] memory) {\r\n        // Same to zero withdrawal balance\r\n        return buildBalanceActions(IERC20(address(0)), 0);\r\n    }\r\n\r\n    function buildBalanceActions(IERC20 withdrawToken, uint256 withdrawAmount)\r\n        public\r\n        returns (IActionBuilder.ExchangeAction[] memory)\r\n    {\r\n        try m2m.assetPricesForBalance(address(withdrawToken), withdrawAmount) returns (\r\n            IMark2Market.TotalAssetPrices memory assetPrices\r\n        ) {\r\n            // // 1. get current prices from M2M\r\n            // IMark2Market.TotalAssetPrices memory assetPrices = m2m.assetPricesForBalance(\r\n            //     address(withdrawToken),\r\n            //     withdrawAmount\r\n            // );\r\n\r\n            // 2. calc total price\r\n            uint256 totalUsdcPrice = assetPrices.totalUsdcPrice;\r\n\r\n            //TODO: remove\r\n            log(\"totalUsdcPrice: \", totalUsdcPrice);\r\n\r\n            // 3. make actions\r\n            IActionBuilder.ExchangeAction[]\r\n                memory actionOrder = new IActionBuilder.ExchangeAction[](\r\n                    actionBuildersInOrder.length\r\n                );\r\n            //TODO: remove\r\n            log(\"actionBuildersInOrder.length: \", actionBuildersInOrder.length);\r\n\r\n            for (uint8 i = 0; i < actionBuildersInOrder.length; i++) {\r\n                try\r\n                    IActionBuilder(actionBuildersInOrder[i]).buildAction(assetPrices, actionOrder)\r\n                returns (IActionBuilder.ExchangeAction memory action) {\r\n                    actionOrder[i] = action;\r\n                } catch Error(string memory reason) {\r\n                    revert(reason);\r\n                } catch {\r\n                    revert(\r\n                        string(\r\n                            abi.encodePacked(\r\n                                uint2str(i),\r\n                                \"buildAction: No reason \",\r\n                                \" code: \",\r\n                                IActionBuilder(actionBuildersInOrder[i]).getActionCode()\r\n                            )\r\n                        )\r\n                    );\r\n                }\r\n\r\n                // IActionBuilder.ExchangeAction memory action = IActionBuilder(actionBuildersInOrder[i])\r\n                //     .buildAction(assetPrices, actionOrder);\r\n                // actionOrder[i] = action;\r\n            }\r\n            //TODO: remove\r\n            log(\"actionOrder.length: \", actionOrder.length);\r\n\r\n            return actionOrder;\r\n        } catch Error(string memory reason) {\r\n            revert(reason);\r\n        } catch {\r\n            revert(\r\n                string(\r\n                    abi.encodePacked(\r\n                        \"m2m.assetPricesForBalance: No reason \",\r\n                        \" withdrawToken \",\r\n                        toAsciiString(address(withdrawToken)),\r\n                        \" withdrawAmount \",\r\n                        uint2str(withdrawAmount)\r\n                    )\r\n                )\r\n            );\r\n        }\r\n    }\r\n\r\n    //TODO: remove\r\n    function log(string memory message, uint value) internal {\r\n        emit ConsoleLog(string(abi.encodePacked(message, uint2str(value))));\r\n    }\r\n\r\n    //TODO: remove\r\n    function toAsciiString(address x) internal pure returns (string memory) {\r\n        bytes memory s = new bytes(40);\r\n        for (uint i = 0; i < 20; i++) {\r\n            bytes1 b = bytes1(uint8(uint(uint160(x)) / (2**(8 * (19 - i)))));\r\n            bytes1 hi = bytes1(uint8(b) / 16);\r\n            bytes1 lo = bytes1(uint8(b) - 16 * uint8(hi));\r\n            s[2 * i] = char(hi);\r\n            s[2 * i + 1] = char(lo);\r\n        }\r\n        return string(s);\r\n    }\r\n\r\n    //TODO: remove\r\n    function char(bytes1 b) internal pure returns (bytes1 c) {\r\n        if (uint8(b) < 10) return bytes1(uint8(b) + 0x30);\r\n        else return bytes1(uint8(b) + 0x57);\r\n    }\r\n\r\n    //TODO: remove\r\n    function uint2str(uint _i) internal pure returns (string memory _uintAsString) {\r\n        if (_i == 0) {\r\n            return \"0\";\r\n        }\r\n        uint j = _i;\r\n        uint len;\r\n        while (j != 0) {\r\n            len++;\r\n            j /= 10;\r\n        }\r\n        bytes memory bstr = new bytes(len);\r\n        uint k = len;\r\n        while (_i != 0) {\r\n            k = k - 1;\r\n            bstr[k] = bytes1(uint8(48 + (_i % 10)));\r\n            _i /= 10;\r\n        }\r\n        return string(bstr);\r\n    }\r\n}\r\n",
  "sourcePath": "C:\\work\\overnight\\ovngt-mvp\\contracts\\Balancer.sol",
  "compiler": {
    "name": "solc",
    "version": "0.8.6+commit.11564f7e.Emscripten.clang"
  },
  "schemaVersion": "3.4.2",
  "updatedAt": "2021-10-18T00:18:02.823Z",
  "devdoc": {
    "kind": "dev",
    "methods": {
      "getRoleAdmin(bytes32)": {
        "details": "Returns the admin role that controls `role`. See {grantRole} and {revokeRole}. To change a role's admin, use {_setRoleAdmin}."
      },
      "grantRole(bytes32,address)": {
        "details": "Grants `role` to `account`. If `account` had not been already granted `role`, emits a {RoleGranted} event. Requirements: - the caller must have ``role``'s admin role."
      },
      "hasRole(bytes32,address)": {
        "details": "Returns `true` if `account` has been granted `role`."
      },
      "renounceRole(bytes32,address)": {
        "details": "Revokes `role` from the calling account. Roles are often managed via {grantRole} and {revokeRole}: this function's purpose is to provide a mechanism for accounts to lose their privileges if they are compromised (such as when a trusted device is misplaced). If the calling account had been granted `role`, emits a {RoleRevoked} event. Requirements: - the caller must be `account`."
      },
      "revokeRole(bytes32,address)": {
        "details": "Revokes `role` from `account`. If `account` had been granted `role`, emits a {RoleRevoked} event. Requirements: - the caller must have ``role``'s admin role."
      },
      "supportsInterface(bytes4)": {
        "details": "See {IERC165-supportsInterface}."
      }
    },
    "version": 1
  },
  "userdoc": {
    "kind": "user",
    "methods": {},
    "version": 1
  }
}