{
  "contractName": "BuyonSwap",
  "abi": [
    {
      "inputs": [
        {
          "internalType": "address",
          "name": "_addrActive2",
          "type": "address"
        },
        {
          "internalType": "address",
          "name": "_router",
          "type": "address"
        }
      ],
      "name": "buy",
      "outputs": [],
      "stateMutability": "payable",
      "type": "function",
      "payable": true
    }
  ],
  "bytecode": "0x608060405234801561001057600080fd5b506108f0806100206000396000f3fe60806040526004361061001e5760003560e01c8063ad7fadc514610023575b600080fd5b61003d6004803603810190610038919061042b565b61003f565b005b600081905060606000600267ffffffffffffffff81111561006357610062610838565b5b6040519080825280602002602001820160405280156100915781602001602082028036833780820191505090505b5090508273ffffffffffffffffffffffffffffffffffffffff1663ad5c46486040518163ffffffff1660e01b815260040160206040518083038186803b1580156100da57600080fd5b505afa1580156100ee573d6000803e3d6000fd5b505050506040513d601f19601f8201168201806040525081019061011291906103fe565b8160008151811061012657610125610809565b5b602002602001019073ffffffffffffffffffffffffffffffffffffffff16908173ffffffffffffffffffffffffffffffffffffffff1681525050848160018151811061017557610174610809565b5b602002602001019073ffffffffffffffffffffffffffffffffffffffff16908173ffffffffffffffffffffffffffffffffffffffff16815250508273ffffffffffffffffffffffffffffffffffffffff1663d06ca61f34836040518363ffffffff1660e01b81526004016101ea929190610557565b60006040518083038186803b15801561020257600080fd5b505afa158015610216573d6000803e3d6000fd5b505050506040513d6000823e3d601f19601f8201168201806040525081019061023f919061046b565b91508273ffffffffffffffffffffffffffffffffffffffff16637ff36ab534600a60098660018151811061027657610275610809565b5b602002602001015161028891906106e4565b61029291906106b3565b8433610258426102a2919061065d565b6040518663ffffffff1660e01b81526004016102c19493929190610587565b6000604051808303818588803b1580156102da57600080fd5b505af11580156102ee573d6000803e3d6000fd5b50505050506040513d6000823e3d601f19601f82011682018060405250810190610318919061046b565b91505050505050565b600061033461032f846105f8565b6105d3565b905080838252602082019050828560208602820111156103575761035661086c565b5b60005b85811015610387578161036d88826103e9565b84526020840193506020830192505060018101905061035a565b5050509392505050565b6000813590506103a08161088c565b92915050565b6000815190506103b58161088c565b92915050565b600082601f8301126103d0576103cf610867565b5b81516103e0848260208601610321565b91505092915050565b6000815190506103f8816108a3565b92915050565b60006020828403121561041457610413610876565b5b6000610422848285016103a6565b91505092915050565b6000806040838503121561044257610441610876565b5b600061045085828601610391565b925050602061046185828601610391565b9150509250929050565b60006020828403121561048157610480610876565b5b600082015167ffffffffffffffff81111561049f5761049e610871565b5b6104ab848285016103bb565b91505092915050565b60006104c083836104cc565b60208301905092915050565b6104d58161073e565b82525050565b6104e48161073e565b82525050565b60006104f582610634565b6104ff818561064c565b935061050a83610624565b8060005b8381101561053b57815161052288826104b4565b975061052d8361063f565b92505060018101905061050e565b5085935050505092915050565b61055181610770565b82525050565b600060408201905061056c6000830185610548565b818103602083015261057e81846104ea565b90509392505050565b600060808201905061059c6000830187610548565b81810360208301526105ae81866104ea565b90506105bd60408301856104db565b6105ca6060830184610548565b95945050505050565b60006105dd6105ee565b90506105e9828261077a565b919050565b6000604051905090565b600067ffffffffffffffff82111561061357610612610838565b5b602082029050602081019050919050565b6000819050602082019050919050565b600081519050919050565b6000602082019050919050565b600082825260208201905092915050565b600061066882610770565b915061067383610770565b9250827fffffffffffffffffffffffffffffffffffffffffffffffffffffffffffffffff038211156106a8576106a76107ab565b5b828201905092915050565b60006106be82610770565b91506106c983610770565b9250826106d9576106d86107da565b5b828204905092915050565b60006106ef82610770565b91506106fa83610770565b9250817fffffffffffffffffffffffffffffffffffffffffffffffffffffffffffffffff0483118215151615610733576107326107ab565b5b828202905092915050565b600061074982610750565b9050919050565b600073ffffffffffffffffffffffffffffffffffffffff82169050919050565b6000819050919050565b6107838261087b565b810181811067ffffffffffffffff821117156107a2576107a1610838565b5b80604052505050565b7f4e487b7100000000000000000000000000000000000000000000000000000000600052601160045260246000fd5b7f4e487b7100000000000000000000000000000000000000000000000000000000600052601260045260246000fd5b7f4e487b7100000000000000000000000000000000000000000000000000000000600052603260045260246000fd5b7f4e487b7100000000000000000000000000000000000000000000000000000000600052604160045260246000fd5b600080fd5b600080fd5b600080fd5b600080fd5b6000601f19601f8301169050919050565b6108958161073e565b81146108a057600080fd5b50565b6108ac81610770565b81146108b757600080fd5b5056fea264697066735822122011fd35aa2deabb6b3aacc2c522156ede46578937e305bdbba0be94fd089643a064736f6c63430008060033",
  "immutableReferences": {},
  "source": "pragma solidity >=0.8.0 <0.9.0;\nimport \"../connectors/swaps/interfaces/IUniswapV2Router02.sol\";\n\ncontract BuyonSwap {\n    function buy(address _addrActive2, address _router) public payable {\n        IUniswapV2Router02 r2 = IUniswapV2Router02(_router);\n        uint[] memory amountRet;\n\n        address[] memory path = new address[](2);\n        path[0] = r2.WETH();\n        path[1] = _addrActive2;\n        amountRet = r2.getAmountsOut(msg.value, path);\n\n        amountRet = r2.swapExactETHForTokens{value: msg.value}(\n            (amountRet[1] * 9) / 10,\n            path,\n            msg.sender,\n            block.timestamp + 600\n        );\n    }\n}\n",
  "sourcePath": "/home/vorh/IdeaProjects/Projects-Work/overnight/ovngt-mvp/contracts/tests/BuyonSwap.sol",
  "compiler": {
    "name": "solc",
    "version": "0.8.6+commit.11564f7e.Emscripten.clang"
  },
  "schemaVersion": "3.4.1",
  "updatedAt": "2021-09-12T09:02:40.330Z",
  "networkType": "ethereum",
  "devdoc": {
    "kind": "dev",
    "methods": {},
    "version": 1
  },
  "userdoc": {
    "kind": "user",
    "methods": {},
    "version": 1
  }
}