{
  "contractName": "ConnectorAAVE",
  "abi": [
    {
      "anonymous": false,
      "inputs": [
        {
          "indexed": true,
          "internalType": "address",
          "name": "previousOwner",
          "type": "address"
        },
        {
          "indexed": true,
          "internalType": "address",
          "name": "newOwner",
          "type": "address"
        }
      ],
      "name": "OwnershipTransferred",
      "type": "event"
    },
    {
      "inputs": [],
      "name": "owner",
      "outputs": [
        {
          "internalType": "address",
          "name": "",
          "type": "address"
        }
      ],
      "stateMutability": "view",
      "type": "function",
      "constant": true
    },
    {
      "inputs": [],
      "name": "renounceOwnership",
      "outputs": [],
      "stateMutability": "nonpayable",
      "type": "function"
    },
    {
      "inputs": [
        {
          "internalType": "bytes32",
          "name": "",
          "type": "bytes32"
        }
      ],
      "name": "rolemap",
      "outputs": [
        {
          "internalType": "address",
          "name": "",
          "type": "address"
        }
      ],
      "stateMutability": "view",
      "type": "function",
      "constant": true
    },
    {
      "inputs": [
        {
          "internalType": "bytes32",
          "name": "_role",
          "type": "bytes32"
        },
        {
          "internalType": "address",
          "name": "_actor",
          "type": "address"
        }
      ],
      "name": "setRole",
      "outputs": [],
      "stateMutability": "nonpayable",
      "type": "function"
    },
    {
      "inputs": [
        {
          "internalType": "address",
          "name": "newOwner",
          "type": "address"
        }
      ],
      "name": "transferOwnership",
      "outputs": [],
      "stateMutability": "nonpayable",
      "type": "function"
    },
    {
      "inputs": [
        {
          "internalType": "address",
          "name": "_LPAP",
          "type": "address"
        },
        {
          "internalType": "address",
          "name": "_USDC",
          "type": "address"
        }
      ],
      "name": "setAAVE",
      "outputs": [],
      "stateMutability": "nonpayable",
      "type": "function"
    },
    {
      "inputs": [
        {
          "internalType": "address",
          "name": "_addrAL",
          "type": "address"
        }
      ],
      "name": "setAddr",
      "outputs": [],
      "stateMutability": "nonpayable",
      "type": "function"
    },
    {
      "inputs": [
        {
          "internalType": "address",
          "name": "_asset",
          "type": "address"
        },
        {
          "internalType": "address",
          "name": "_pool",
          "type": "address"
        },
        {
          "internalType": "uint256",
          "name": "_amount",
          "type": "uint256"
        },
        {
          "internalType": "address",
          "name": "_beneficiar",
          "type": "address"
        }
      ],
      "name": "stake",
      "outputs": [],
      "stateMutability": "nonpayable",
      "type": "function"
    },
    {
      "inputs": [
        {
          "internalType": "address",
          "name": "_asset",
          "type": "address"
        },
        {
          "internalType": "address",
          "name": "_pool",
          "type": "address"
        },
        {
          "internalType": "uint256",
          "name": "_amount",
          "type": "uint256"
        },
        {
          "internalType": "address",
          "name": "_to",
          "type": "address"
        }
      ],
      "name": "unstake",
      "outputs": [
        {
          "internalType": "uint256",
          "name": "",
          "type": "uint256"
        }
      ],
      "stateMutability": "nonpayable",
      "type": "function"
    },
    {
      "inputs": [
        {
          "internalType": "address",
          "name": "_asset",
          "type": "address"
        },
        {
          "internalType": "address",
          "name": "_pool",
          "type": "address"
        }
      ],
      "name": "getPriceOffer",
      "outputs": [
        {
          "internalType": "uint256",
          "name": "",
          "type": "uint256"
        }
      ],
      "stateMutability": "view",
      "type": "function",
      "constant": true
    },
    {
      "inputs": [
        {
          "internalType": "address",
          "name": "_asset",
          "type": "address"
        },
        {
          "internalType": "address",
          "name": "_addrWault",
          "type": "address"
        },
        {
          "internalType": "address",
          "name": "_pool",
          "type": "address"
        }
      ],
      "name": "getBookValue",
      "outputs": [
        {
          "internalType": "uint256",
          "name": "",
          "type": "uint256"
        }
      ],
      "stateMutability": "view",
      "type": "function",
      "constant": true
    },
    {
      "inputs": [
        {
          "internalType": "address",
          "name": "_asset",
          "type": "address"
        },
        {
          "internalType": "address",
          "name": "_addrWault",
          "type": "address"
        },
        {
          "internalType": "address",
          "name": "_pool",
          "type": "address"
        }
      ],
      "name": "getLiqValue",
      "outputs": [
        {
          "internalType": "uint256",
          "name": "",
          "type": "uint256"
        }
      ],
      "stateMutability": "view",
      "type": "function",
      "constant": true
    }
  ],
  "bytecode": "0x608060405234801561001057600080fd5b5061002d61002261003260201b60201c565b61003a60201b60201c565b6100fe565b600033905090565b60008060009054906101000a900473ffffffffffffffffffffffffffffffffffffffff169050816000806101000a81548173ffffffffffffffffffffffffffffffffffffffff021916908373ffffffffffffffffffffffffffffffffffffffff1602179055508173ffffffffffffffffffffffffffffffffffffffff168173ffffffffffffffffffffffffffffffffffffffff167f8be0079c531659141344cd1fd0a4f28419497f9722a3daafe3b4186f6b6457e060405160405180910390a35050565b611d3c8061010d6000396000f3fe608060405234801561001057600080fd5b50600436106100b45760003560e01c8063bf56700a11610071578063bf56700a1461018d578063c3a543a9146101a9578063d1d80fdf146101d9578063dff87203146101f5578063ed633e8314610211578063f2fde38b14610241576100b4565b80632dc10a54146100b95780636291027c146100e95780637113c90814610105578063715018a6146101355780638b0493f11461013f5780638da5cb5b1461016f575b600080fd5b6100d360048036038101906100ce91906115a3565b61025d565b6040516100e09190611724565b60405180910390f35b61010360048036038101906100fe919061150f565b610290565b005b61011f600480360381019061011a919061147c565b61043b565b60405161012c9190611864565b60405180910390f35b61013d61064e565b005b610159600480360381019061015491906114bc565b6106d6565b6040516101669190611864565b60405180910390f35b6101776108ee565b6040516101849190611724565b60405180910390f35b6101a760048036038101906101a2919061147c565b610917565b005b6101c360048036038101906101be919061150f565b610a19565b6040516101d09190611864565b60405180910390f35b6101f360048036038101906101ee9190611422565b610d0b565b005b61020f600480360381019061020a91906115d0565b610dcb565b005b61022b600480360381019061022691906114bc565b610e9d565b6040516102389190611864565b60405180910390f35b61025b60048036038101906102569190611422565b610f31565b005b60016020528060005260406000206000915054906101000a900473ffffffffffffffffffffffffffffffffffffffff1681565b6000600460009054906101000a900473ffffffffffffffffffffffffffffffffffffffff1673ffffffffffffffffffffffffffffffffffffffff16630261bf8b6040518163ffffffff1660e01b815260040160206040518083038186803b1580156102fa57600080fd5b505afa15801561030e573d6000803e3d6000fd5b505050506040513d601f19601f82011682018060405250810190610332919061144f565b90508473ffffffffffffffffffffffffffffffffffffffff1663095ea7b382856040518363ffffffff1660e01b815260040161036f92919061173f565b602060405180830381600087803b15801561038957600080fd5b505af115801561039d573d6000803e3d6000fd5b505050506040513d601f19601f820116820180604052508101906103c19190611576565b508073ffffffffffffffffffffffffffffffffffffffff1663e8eda9df86858560006040518563ffffffff1660e01b8152600401610402949392919061179f565b600060405180830381600087803b15801561041c57600080fd5b505af1158015610430573d6000803e3d6000fd5b505050505050505050565b600080600460009054906101000a900473ffffffffffffffffffffffffffffffffffffffff1673ffffffffffffffffffffffffffffffffffffffff1663fca513a86040518163ffffffff1660e01b815260040160206040518083038186803b1580156104a657600080fd5b505afa1580156104ba573d6000803e3d6000fd5b505050506040513d601f19601f820116820180604052508101906104de919061144f565b90508073ffffffffffffffffffffffffffffffffffffffff1663b3596f07856040518263ffffffff1660e01b81526004016105199190611724565b60206040518083038186803b15801561053157600080fd5b505afa92505050801561056257506040513d601f19601f8201168201806040525081019061055f919061163e565b60015b610570576000915050610648565b8173ffffffffffffffffffffffffffffffffffffffff1663b3596f07600360009054906101000a900473ffffffffffffffffffffffffffffffffffffffff166040518263ffffffff1660e01b81526004016105cb9190611724565b60206040518083038186803b1580156105e357600080fd5b505afa92505050801561061457506040513d601f19601f82011682018060405250810190610611919061163e565b60015b61062357600092505050610648565b80670de0b6b3a764000083610638919061193c565b610642919061190b565b93505050505b92915050565b610656611029565b73ffffffffffffffffffffffffffffffffffffffff166106746108ee565b73ffffffffffffffffffffffffffffffffffffffff16146106ca576040517f08c379a00000000000000000000000000000000000000000000000000000000081526004016106c190611824565b60405180910390fd5b6106d46000611031565b565b6000808473ffffffffffffffffffffffffffffffffffffffff166370a08231856040518263ffffffff1660e01b81526004016107129190611724565b60206040518083038186803b15801561072a57600080fd5b505afa15801561073e573d6000803e3d6000fd5b505050506040513d601f19601f82011682018060405250810190610762919061163e565b90506000600460009054906101000a900473ffffffffffffffffffffffffffffffffffffffff1673ffffffffffffffffffffffffffffffffffffffff16630261bf8b6040518163ffffffff1660e01b815260040160206040518083038186803b1580156107ce57600080fd5b505afa1580156107e2573d6000803e3d6000fd5b505050506040513d601f19601f82011682018060405250810190610806919061144f565b905060008173ffffffffffffffffffffffffffffffffffffffff166335ea6a75886040518263ffffffff1660e01b81526004016108439190611724565b6101806040518083038186803b15801561085c57600080fd5b505afa158015610870573d6000803e3d6000fd5b505050506040513d601f19601f820116820180604052508101906108949190611610565b9050600081602001516fffffffffffffffffffffffffffffffff1611156108e1576108de81602001516fffffffffffffffffffffffffffffffff16846110f590919063ffffffff16565b92505b8293505050509392505050565b60008060009054906101000a900473ffffffffffffffffffffffffffffffffffffffff16905090565b61091f611029565b73ffffffffffffffffffffffffffffffffffffffff1661093d6108ee565b73ffffffffffffffffffffffffffffffffffffffff1614610993576040517f08c379a000000000000000000000000000000000000000000000000000000000815260040161098a90611824565b60405180910390fd5b81600460006101000a81548173ffffffffffffffffffffffffffffffffffffffff021916908373ffffffffffffffffffffffffffffffffffffffff16021790555080600360006101000a81548173ffffffffffffffffffffffffffffffffffffffff021916908373ffffffffffffffffffffffffffffffffffffffff1602179055505050565b600080600460009054906101000a900473ffffffffffffffffffffffffffffffffffffffff1673ffffffffffffffffffffffffffffffffffffffff16630261bf8b6040518163ffffffff1660e01b815260040160206040518083038186803b158015610a8457600080fd5b505afa158015610a98573d6000803e3d6000fd5b505050506040513d601f19601f82011682018060405250810190610abc919061144f565b905060008173ffffffffffffffffffffffffffffffffffffffff166369328dec8887876040518463ffffffff1660e01b8152600401610afd93929190611768565b602060405180830381600087803b158015610b1757600080fd5b505af1158015610b2b573d6000803e3d6000fd5b505050506040513d601f19601f82011682018060405250810190610b4f919061163e565b905060008273ffffffffffffffffffffffffffffffffffffffff166335ea6a75896040518263ffffffff1660e01b8152600401610b8c9190611724565b6101806040518083038186803b158015610ba557600080fd5b505afa158015610bb9573d6000803e3d6000fd5b505050506040513d601f19601f82011682018060405250810190610bdd9190611610565b90508060e0015173ffffffffffffffffffffffffffffffffffffffff1663a9059cbb338360e0015173ffffffffffffffffffffffffffffffffffffffff166370a08231306040518263ffffffff1660e01b8152600401610c3d9190611724565b60206040518083038186803b158015610c5557600080fd5b505afa158015610c69573d6000803e3d6000fd5b505050506040513d601f19601f82011682018060405250810190610c8d919061163e565b6040518363ffffffff1660e01b8152600401610caa92919061173f565b602060405180830381600087803b158015610cc457600080fd5b505af1158015610cd8573d6000803e3d6000fd5b505050506040513d601f19601f82011682018060405250810190610cfc9190611576565b50819350505050949350505050565b610d13611029565b73ffffffffffffffffffffffffffffffffffffffff16610d316108ee565b73ffffffffffffffffffffffffffffffffffffffff1614610d87576040517f08c379a0000000000000000000000000000000000000000000000000000000008152600401610d7e90611824565b60405180910390fd5b80600260006101000a81548173ffffffffffffffffffffffffffffffffffffffff021916908373ffffffffffffffffffffffffffffffffffffffff16021790555050565b610dd3611029565b73ffffffffffffffffffffffffffffffffffffffff16610df16108ee565b73ffffffffffffffffffffffffffffffffffffffff1614610e47576040517f08c379a0000000000000000000000000000000000000000000000000000000008152600401610e3e90611824565b60405180910390fd5b806001600084815260200190815260200160002060006101000a81548173ffffffffffffffffffffffffffffffffffffffff021916908373ffffffffffffffffffffffffffffffffffffffff1602179055505050565b60008373ffffffffffffffffffffffffffffffffffffffff166370a08231846040518263ffffffff1660e01b8152600401610ed89190611724565b60206040518083038186803b158015610ef057600080fd5b505afa158015610f04573d6000803e3d6000fd5b505050506040513d601f19601f82011682018060405250810190610f28919061163e565b90509392505050565b610f39611029565b73ffffffffffffffffffffffffffffffffffffffff16610f576108ee565b73ffffffffffffffffffffffffffffffffffffffff1614610fad576040517f08c379a0000000000000000000000000000000000000000000000000000000008152600401610fa490611824565b60405180910390fd5b600073ffffffffffffffffffffffffffffffffffffffff168173ffffffffffffffffffffffffffffffffffffffff16141561101d576040517f08c379a0000000000000000000000000000000000000000000000000000000008152600401611014906117e4565b60405180910390fd5b61102681611031565b50565b600033905090565b60008060009054906101000a900473ffffffffffffffffffffffffffffffffffffffff169050816000806101000a81548173ffffffffffffffffffffffffffffffffffffffff021916908373ffffffffffffffffffffffffffffffffffffffff1602179055508173ffffffffffffffffffffffffffffffffffffffff168173ffffffffffffffffffffffffffffffffffffffff167f8be0079c531659141344cd1fd0a4f28419497f9722a3daafe3b4186f6b6457e060405160405180910390a35050565b60008082141561113a576040517f08c379a000000000000000000000000000000000000000000000000000000000815260040161113190611844565b60405180910390fd5b6000600283611149919061190b565b90506b033b2e3c9fd0803ce8000000817fffffffffffffffffffffffffffffffffffffffffffffffffffffffffffffffff6111849190611996565b61118e919061190b565b8411156111d0576040517f08c379a00000000000000000000000000000000000000000000000000000000081526004016111c790611804565b60405180910390fd5b82816b033b2e3c9fd0803ce8000000866111ea919061193c565b6111f491906118b5565b6111fe919061190b565b91505092915050565b60008135905061121681611c65565b92915050565b60008151905061122b81611c65565b92915050565b60008151905061124081611c7c565b92915050565b60008135905061125581611c93565b92915050565b60006020828403121561127157611270611b34565b5b61127b602061187f565b9050600061128b848285016113e3565b60008301525092915050565b600061018082840312156112ae576112ad611b34565b5b6112b961018061187f565b905060006112c98482850161125b565b60008301525060206112dd848285016113b9565b60208301525060406112f1848285016113b9565b6040830152506060611305848285016113b9565b6060830152506080611319848285016113b9565b60808301525060a061132d848285016113b9565b60a08301525060c0611341848285016113f8565b60c08301525060e06113558482850161121c565b60e08301525061010061136a8482850161121c565b610100830152506101206113808482850161121c565b610120830152506101406113968482850161121c565b610140830152506101606113ac8482850161140d565b6101608301525092915050565b6000815190506113c881611caa565b92915050565b6000813590506113dd81611cc1565b92915050565b6000815190506113f281611cc1565b92915050565b60008151905061140781611cd8565b92915050565b60008151905061141c81611cef565b92915050565b60006020828403121561143857611437611b39565b5b600061144684828501611207565b91505092915050565b60006020828403121561146557611464611b39565b5b60006114738482850161121c565b91505092915050565b6000806040838503121561149357611492611b39565b5b60006114a185828601611207565b92505060206114b285828601611207565b9150509250929050565b6000806000606084860312156114d5576114d4611b39565b5b60006114e386828701611207565b93505060206114f486828701611207565b925050604061150586828701611207565b9150509250925092565b6000806000806080858703121561152957611528611b39565b5b600061153787828801611207565b945050602061154887828801611207565b9350506040611559878288016113ce565b925050606061156a87828801611207565b91505092959194509250565b60006020828403121561158c5761158b611b39565b5b600061159a84828501611231565b91505092915050565b6000602082840312156115b9576115b8611b39565b5b60006115c784828501611246565b91505092915050565b600080604083850312156115e7576115e6611b39565b5b60006115f585828601611246565b925050602061160685828601611207565b9150509250929050565b6000610180828403121561162757611626611b39565b5b600061163584828501611297565b91505092915050565b60006020828403121561165457611653611b39565b5b6000611662848285016113e3565b91505092915050565b611674816119ca565b82525050565b61168381611a64565b82525050565b60006116966029836118a4565b91506116a182611b4f565b604082019050919050565b60006116b96023836118a4565b91506116c482611b9e565b604082019050919050565b60006116dc6023836118a4565b91506116e782611bed565b604082019050919050565b60006116ff601c836118a4565b915061170a82611c3c565b602082019050919050565b61171e81611a3c565b82525050565b6000602082019050611739600083018461166b565b92915050565b6000604082019050611754600083018561166b565b6117616020830184611715565b9392505050565b600060608201905061177d600083018661166b565b61178a6020830185611715565b611797604083018461166b565b949350505050565b60006080820190506117b4600083018761166b565b6117c16020830186611715565b6117ce604083018561166b565b6117db606083018461167a565b95945050505050565b600060208201905081810360008301526117fd81611689565b9050919050565b6000602082019050818103600083015261181d816116ac565b9050919050565b6000602082019050818103600083015261183d816116cf565b9050919050565b6000602082019050818103600083015261185d816116f2565b9050919050565b60006020820190506118796000830184611715565b92915050565b600061188961189a565b90506118958282611a76565b919050565b6000604051905090565b600082825260208201905092915050565b60006118c082611a3c565b91506118cb83611a3c565b9250827fffffffffffffffffffffffffffffffffffffffffffffffffffffffffffffffff03821115611900576118ff611aa7565b5b828201905092915050565b600061191682611a3c565b915061192183611a3c565b92508261193157611930611ad6565b5b828204905092915050565b600061194782611a3c565b915061195283611a3c565b9250817fffffffffffffffffffffffffffffffffffffffffffffffffffffffffffffffff048311821515161561198b5761198a611aa7565b5b828202905092915050565b60006119a182611a3c565b91506119ac83611a3c565b9250828210156119bf576119be611aa7565b5b828203905092915050565b60006119d582611a1c565b9050919050565b60008115159050919050565b6000819050919050565b60006fffffffffffffffffffffffffffffffff82169050919050565b600061ffff82169050919050565b600073ffffffffffffffffffffffffffffffffffffffff82169050919050565b6000819050919050565b600064ffffffffff82169050919050565b600060ff82169050919050565b6000611a6f82611a0e565b9050919050565b611a7f82611b3e565b810181811067ffffffffffffffff82111715611a9e57611a9d611b05565b5b80604052505050565b7f4e487b7100000000000000000000000000000000000000000000000000000000600052601160045260246000fd5b7f4e487b7100000000000000000000000000000000000000000000000000000000600052601260045260246000fd5b7f4e487b7100000000000000000000000000000000000000000000000000000000600052604160045260246000fd5b600080fd5b600080fd5b6000601f19601f8301169050919050565b7f4f776e61626c654578743a206e6577206f776e657220697320746865207a657260008201527f6f20616464726573730000000000000000000000000000000000000000000000602082015250565b7f4572726f72732e4d4154485f4d554c5449504c49434154494f4e5f4f5645524660008201527f4c4f570000000000000000000000000000000000000000000000000000000000602082015250565b7f4f776e61626c654578743a2063616c6c6572206973206e6f7420746865206f7760008201527f6e65720000000000000000000000000000000000000000000000000000000000602082015250565b7f4572726f72732e4d4154485f4449564953494f4e5f42595f5a45524f00000000600082015250565b611c6e816119ca565b8114611c7957600080fd5b50565b611c85816119dc565b8114611c9057600080fd5b50565b611c9c816119e8565b8114611ca757600080fd5b50565b611cb3816119f2565b8114611cbe57600080fd5b50565b611cca81611a3c565b8114611cd557600080fd5b50565b611ce181611a46565b8114611cec57600080fd5b50565b611cf881611a57565b8114611d0357600080fd5b5056fea2646970667358221220d673eb94037e5c6eb94338b293f817c8d8a0da9c88071146490a594a7286c8a364736f6c63430008060033",
  "immutableReferences": {},
  "source": "// SPDX-License-Identifier: GPL-3.0\n\npragma solidity >=0.8.0 <0.9.0;\nimport \"../interfaces/IConnector.sol\";\nimport \"./aave/interfaces/ILendingPool.sol\";\nimport \"./aave/interfaces/ILendingPoolAddressesProvider.sol\";\nimport \"./aave/interfaces/IPriceOracleGetter.sol\";\nimport \"../interfaces/IActivesList.sol\";\n\nimport \"@openzeppelin/contracts/token/ERC20/IERC20.sol\";\nimport {WadRayMath} from \"./aave/libraries/math/WadRayMath.sol\";\n\nimport \"../OwnableExt.sol\";\n\ncontract ConnectorAAVE is IConnector, OwnableExt {\n    using WadRayMath for uint256;\n    IActivesList actList;\n    address USDC;\n    ILendingPoolAddressesProvider lpap;\n\n    function setAAVE(address _LPAP, address _USDC) public onlyOwner {\n        lpap = ILendingPoolAddressesProvider(_LPAP);\n        USDC = _USDC;\n    }\n\n    function setAddr(address _addrAL) external onlyOwner {\n        actList = IActivesList(_addrAL);\n    }\n\n    function stake(\n        address _asset,\n        address _pool,\n        uint256 _amount,\n        address _beneficiar\n    ) public override {\n        ILendingPool pool = ILendingPool(lpap.getLendingPool());\n        //IERC20(_asset).transferFrom(msg.sender, address(this), _amount);\n        IERC20(_asset).approve(address(pool), _amount);\n        //   DataTypes.ReserveData memory res = pool.getReserveData(_asset);\n\n        pool.deposit(_asset, _amount, _beneficiar, 0);\n        // actList.changeBal(_asset, -int128(uint128(_amount)));\n\n        // actList.changeBal(pool.lp_token(), int128(uint128(retAmount)));\n    }\n\n    function unstake(\n        address _asset,\n        address _pool,\n        uint256 _amount,\n        address _to\n    ) public override returns (uint256) {\n        ILendingPool pool = ILendingPool(lpap.getLendingPool());\n        // IERC20(_asset).transfer(address(pool), _amount);\n        uint256 w = pool.withdraw(_asset, _amount, _to);\n        DataTypes.ReserveData memory res = pool.getReserveData(_asset);\n\n        IERC20(res.aTokenAddress).transfer(\n            msg.sender,\n            IERC20(res.aTokenAddress).balanceOf(address(this))\n        );\n        return w;\n    }\n\n    function getPriceOffer(address _asset, address _pool) public view override returns (uint256) {\n        IPriceOracleGetter oraclePrice = IPriceOracleGetter(lpap.getPriceOracle());\n\n        try oraclePrice.getAssetPrice(_asset) returns (uint256 price) {\n            try oraclePrice.getAssetPrice(USDC) returns (uint256 priceUSDC) {\n                return (price * 10**18) / priceUSDC;\n            } catch {\n                return 0;\n            }\n        } catch {\n            return 0;\n        }\n    }\n\n    function getBookValue(\n        address _asset,\n        address _addrWault,\n        address _pool\n    ) external view override returns (uint256) {\n        return IERC20(_asset).balanceOf(_addrWault);\n    }\n\n    function getLiqValue(\n        address _asset,\n        address _addrWault,\n        address _pool\n    ) external view override returns (uint256) {\n        uint256 balance = IERC20(_asset).balanceOf(_addrWault);\n        ILendingPool pool = ILendingPool(lpap.getLendingPool());\n        DataTypes.ReserveData memory res = pool.getReserveData(_asset);\n        if (res.liquidityIndex > 0) {\n            balance = balance.rayDiv(res.liquidityIndex);\n        }\n        return balance;\n    }\n}\n",
  "sourcePath": "/home/vorh/IdeaProjects/Projects-Work/overnight/ovngt-mvp/contracts/connectors/ConnectorAAVE.sol",
  "compiler": {
    "name": "solc",
    "version": "0.8.6+commit.11564f7e.Emscripten.clang"
  },
  "schemaVersion": "3.4.1",
  "updatedAt": "2021-09-12T09:26:23.957Z",
  "networkType": "ethereum",
  "devdoc": {
    "kind": "dev",
    "methods": {
      "owner()": {
        "details": "Returns the address of the current owner."
      },
      "renounceOwnership()": {
        "details": "Leaves the contract without owner. It will not be possible to call `onlyOwner` functions anymore. Can only be called by the current owner. NOTE: Renouncing ownership will leave the contract without an owner, thereby removing any functionality that is only available to the owner."
      },
      "transferOwnership(address)": {
        "details": "Transfers ownership of the contract to a new account (`newOwner`). Can only be called by the current owner."
      }
    },
    "version": 1
  },
  "userdoc": {
    "kind": "user",
    "methods": {
      "getBookValue(address,address,address)": {
        "notice": "   , _pool - legacy"
      },
      "getLiqValue(address,address,address)": {
        "notice": "  ,        , _pool - legacy"
      }
    },
    "version": 1
  }
}