{
  "contractName": "Exchange",
  "abi": [
    {
      "inputs": [],
      "stateMutability": "nonpayable",
      "type": "constructor"
    },
    {
      "anonymous": false,
      "inputs": [
        {
          "indexed": false,
          "internalType": "string",
          "name": "label",
          "type": "string"
        },
        {
          "indexed": false,
          "internalType": "uint256",
          "name": "beforeAmount",
          "type": "uint256"
        },
        {
          "indexed": false,
          "internalType": "uint256",
          "name": "afterAmount",
          "type": "uint256"
        }
      ],
      "name": "BusinessEvent",
      "type": "event"
    },
    {
      "anonymous": false,
      "inputs": [
        {
          "indexed": false,
          "internalType": "string",
          "name": "label",
          "type": "string"
        },
        {
          "components": [
            {
              "internalType": "address",
              "name": "addr",
              "type": "address"
            },
            {
              "internalType": "string",
              "name": "name",
              "type": "string"
            },
            {
              "internalType": "string",
              "name": "symbol",
              "type": "string"
            },
            {
              "internalType": "uint256",
              "name": "decimals",
              "type": "uint256"
            },
            {
              "internalType": "uint256",
              "name": "price",
              "type": "uint256"
            },
            {
              "internalType": "uint256",
              "name": "bookValue",
              "type": "uint256"
            },
            {
              "internalType": "uint256",
              "name": "liquidationValue",
              "type": "uint256"
            }
          ],
          "indexed": false,
          "internalType": "struct IMark2Market.ActivesPrices",
          "name": "prices",
          "type": "tuple"
        }
      ],
      "name": "BusinessEventPrice",
      "type": "event"
    },
    {
      "anonymous": false,
      "inputs": [
        {
          "indexed": false,
          "internalType": "string",
          "name": "label",
          "type": "string"
        },
        {
          "indexed": false,
          "internalType": "uint256",
          "name": "amount",
          "type": "uint256"
        }
      ],
      "name": "EventExchange",
      "type": "event"
    },
    {
      "anonymous": false,
      "inputs": [
        {
          "indexed": false,
          "internalType": "uint256",
          "name": "totalOvn",
          "type": "uint256"
        },
        {
          "indexed": false,
          "internalType": "uint256",
          "name": "totalUsdc",
          "type": "uint256"
        },
        {
          "indexed": false,
          "internalType": "uint256",
          "name": "totallyAmountRewarded",
          "type": "uint256"
        },
        {
          "indexed": false,
          "internalType": "uint256",
          "name": "totallySaved",
          "type": "uint256"
        }
      ],
      "name": "RewardEvent",
      "type": "event"
    },
    {
      "anonymous": false,
      "inputs": [
        {
          "indexed": true,
          "internalType": "bytes32",
          "name": "role",
          "type": "bytes32"
        },
        {
          "indexed": true,
          "internalType": "bytes32",
          "name": "previousAdminRole",
          "type": "bytes32"
        },
        {
          "indexed": true,
          "internalType": "bytes32",
          "name": "newAdminRole",
          "type": "bytes32"
        }
      ],
      "name": "RoleAdminChanged",
      "type": "event"
    },
    {
      "anonymous": false,
      "inputs": [
        {
          "indexed": true,
          "internalType": "bytes32",
          "name": "role",
          "type": "bytes32"
        },
        {
          "indexed": true,
          "internalType": "address",
          "name": "account",
          "type": "address"
        },
        {
          "indexed": true,
          "internalType": "address",
          "name": "sender",
          "type": "address"
        }
      ],
      "name": "RoleGranted",
      "type": "event"
    },
    {
      "anonymous": false,
      "inputs": [
        {
          "indexed": true,
          "internalType": "bytes32",
          "name": "role",
          "type": "bytes32"
        },
        {
          "indexed": true,
          "internalType": "address",
          "name": "account",
          "type": "address"
        },
        {
          "indexed": true,
          "internalType": "address",
          "name": "sender",
          "type": "address"
        }
      ],
      "name": "RoleRevoked",
      "type": "event"
    },
    {
      "inputs": [],
      "name": "DEFAULT_ADMIN_ROLE",
      "outputs": [
        {
          "internalType": "bytes32",
          "name": "",
          "type": "bytes32"
        }
      ],
      "stateMutability": "view",
      "type": "function",
      "constant": true
    },
    {
      "inputs": [
        {
          "internalType": "bytes32",
          "name": "role",
          "type": "bytes32"
        }
      ],
      "name": "getRoleAdmin",
      "outputs": [
        {
          "internalType": "bytes32",
          "name": "",
          "type": "bytes32"
        }
      ],
      "stateMutability": "view",
      "type": "function",
      "constant": true
    },
    {
      "inputs": [
        {
          "internalType": "bytes32",
          "name": "role",
          "type": "bytes32"
        },
        {
          "internalType": "address",
          "name": "account",
          "type": "address"
        }
      ],
      "name": "grantRole",
      "outputs": [],
      "stateMutability": "nonpayable",
      "type": "function"
    },
    {
      "inputs": [
        {
          "internalType": "bytes32",
          "name": "role",
          "type": "bytes32"
        },
        {
          "internalType": "address",
          "name": "account",
          "type": "address"
        }
      ],
      "name": "hasRole",
      "outputs": [
        {
          "internalType": "bool",
          "name": "",
          "type": "bool"
        }
      ],
      "stateMutability": "view",
      "type": "function",
      "constant": true
    },
    {
      "inputs": [
        {
          "internalType": "bytes32",
          "name": "role",
          "type": "bytes32"
        },
        {
          "internalType": "address",
          "name": "account",
          "type": "address"
        }
      ],
      "name": "renounceRole",
      "outputs": [],
      "stateMutability": "nonpayable",
      "type": "function"
    },
    {
      "inputs": [
        {
          "internalType": "bytes32",
          "name": "role",
          "type": "bytes32"
        },
        {
          "internalType": "address",
          "name": "account",
          "type": "address"
        }
      ],
      "name": "revokeRole",
      "outputs": [],
      "stateMutability": "nonpayable",
      "type": "function"
    },
    {
      "inputs": [
        {
          "internalType": "bytes4",
          "name": "interfaceId",
          "type": "bytes4"
        }
      ],
      "name": "supportsInterface",
      "outputs": [
        {
          "internalType": "bool",
          "name": "",
          "type": "bool"
        }
      ],
      "stateMutability": "view",
      "type": "function",
      "constant": true
    },
    {
      "inputs": [
        {
          "internalType": "address",
          "name": "_ovn",
          "type": "address"
        },
        {
          "internalType": "address",
          "name": "_usdc",
          "type": "address"
        }
      ],
      "name": "setTokens",
      "outputs": [],
      "stateMutability": "nonpayable",
      "type": "function"
    },
    {
      "inputs": [
        {
          "internalType": "address",
          "name": "_addrAL",
          "type": "address"
        },
        {
          "internalType": "address",
          "name": "_addrPM",
          "type": "address"
        },
        {
          "internalType": "address",
          "name": "_addrM2M",
          "type": "address"
        }
      ],
      "name": "setAddr",
      "outputs": [],
      "stateMutability": "nonpayable",
      "type": "function"
    },
    {
      "inputs": [
        {
          "internalType": "address",
          "name": "_addrTok",
          "type": "address"
        },
        {
          "internalType": "uint256",
          "name": "_amount",
          "type": "uint256"
        }
      ],
      "name": "buy",
      "outputs": [],
      "stateMutability": "nonpayable",
      "type": "function"
    },
    {
      "inputs": [],
      "name": "balance",
      "outputs": [
        {
          "internalType": "uint256",
          "name": "",
          "type": "uint256"
        }
      ],
      "stateMutability": "view",
      "type": "function",
      "constant": true
    },
    {
      "inputs": [
        {
          "internalType": "address",
          "name": "_addrTok",
          "type": "address"
        },
        {
          "internalType": "uint256",
          "name": "_amount",
          "type": "uint256"
        }
      ],
      "name": "redeem",
      "outputs": [],
      "stateMutability": "nonpayable",
      "type": "function"
    },
    {
      "inputs": [],
      "name": "reward",
      "outputs": [],
      "stateMutability": "nonpayable",
      "type": "function"
    }
  ],
  "bytecode": "0x60806040523480156200001157600080fd5b50620000276000801b336200002d60201b60201c565b620001a6565b6200003f82826200004360201b60201c565b5050565b6200005582826200013460201b60201c565b6200013057600160008084815260200190815260200160002060000160008373ffffffffffffffffffffffffffffffffffffffff1673ffffffffffffffffffffffffffffffffffffffff16815260200190815260200160002060006101000a81548160ff021916908315150217905550620000d56200019e60201b60201c565b73ffffffffffffffffffffffffffffffffffffffff168173ffffffffffffffffffffffffffffffffffffffff16837f2f8788117e7eff1d82e926ec794901d17c78024a50270940304540a733656f0d60405160405180910390a45b5050565b600080600084815260200190815260200160002060000160008373ffffffffffffffffffffffffffffffffffffffff1673ffffffffffffffffffffffffffffffffffffffff16815260200190815260200160002060009054906101000a900460ff16905092915050565b600033905090565b612dab80620001b66000396000f3fe608060405234801561001057600080fd5b50600436106100cf5760003560e01c80636153c8c11161008c578063b69ef8a811610066578063b69ef8a8146101fc578063cbc7854e1461021a578063cce7ec1314610236578063d547741f14610252576100cf565b80636153c8c11461019257806391d14854146101ae578063a217fddf146101de576100cf565b806301ffc9a7146100d45780631e9a695014610104578063228cb73314610120578063248a9ca31461012a5780632f2ff15d1461015a57806336568abe14610176575b600080fd5b6100ee60048036038101906100e991906120a6565b61026e565b6040516100fb91906124ba565b60405180910390f35b61011e60048036038101906101199190611fcc565b6102e8565b005b61012861058c565b005b610144600480360381019061013f9190612039565b610e4c565b60405161015191906124d5565b60405180910390f35b610174600480360381019061016f9190612066565b610e6b565b005b610190600480360381019061018b9190612066565b610e94565b005b6101ac60048036038101906101a79190611f79565b610f17565b005b6101c860048036038101906101c39190612066565b61102b565b6040516101d591906124ba565b60405180910390f35b6101e6611095565b6040516101f391906124d5565b60405180910390f35b61020461109c565b60405161021191906125ee565b60405180910390f35b610234600480360381019061022f9190611f39565b61114e565b005b610250600480360381019061024b9190611fcc565b611220565b005b61026c60048036038101906102679190612066565b611619565b005b60007f7965db0b000000000000000000000000000000000000000000000000000000007bffffffffffffffffffffffffffffffffffffffffffffffffffffffff1916827bffffffffffffffffffffffffffffffffffffffffffffffffffffffff191614806102e157506102e082611642565b5b9050919050565b7fe05220aa7f4f94eba183e0264ab8fc510924fb7b592d6a6d4a51dc3a34c79adf816040516103179190612552565b60405180910390a16000600460009054906101000a900473ffffffffffffffffffffffffffffffffffffffff1673ffffffffffffffffffffffffffffffffffffffff1663c2a672e084846040518363ffffffff1660e01b815260040161037e929190612491565b602060405180830381600087803b15801561039857600080fd5b505af11580156103ac573d6000803e3d6000fd5b505050506040513d601f19601f820116820180604052508101906103d0919061211c565b9050600160009054906101000a900473ffffffffffffffffffffffffffffffffffffffff1673ffffffffffffffffffffffffffffffffffffffff16639dc29fac33846040518363ffffffff1660e01b815260040161042f929190612491565b600060405180830381600087803b15801561044957600080fd5b505af115801561045d573d6000803e3d6000fd5b50505050600360009054906101000a900473ffffffffffffffffffffffffffffffffffffffff1673ffffffffffffffffffffffffffffffffffffffff16636bb7782b84836104aa906129e0565b6040518363ffffffff1660e01b81526004016104c7929190612468565b600060405180830381600087803b1580156104e157600080fd5b505af11580156104f5573d6000803e3d6000fd5b505050508273ffffffffffffffffffffffffffffffffffffffff1663a9059cbb33836040518363ffffffff1660e01b8152600401610534929190612491565b602060405180830381600087803b15801561054e57600080fd5b505af1158015610562573d6000803e3d6000fd5b505050506040513d601f19601f82011682018060405250810190610586919061200c565b50505050565b6105996000801b3361102b565b6105d8576040517f08c379a00000000000000000000000000000000000000000000000000000000081526004016105cf906125ae565b60405180910390fd5b6000600160009054906101000a900473ffffffffffffffffffffffffffffffffffffffff1673ffffffffffffffffffffffffffffffffffffffff166318160ddd6040518163ffffffff1660e01b815260040160206040518083038186803b15801561064257600080fd5b505afa158015610656573d6000803e3d6000fd5b505050506040513d601f19601f8201168201806040525081019061067a919061211c565b90506000600260009054906101000a900473ffffffffffffffffffffffffffffffffffffffff1673ffffffffffffffffffffffffffffffffffffffff166370a08231600460009054906101000a900473ffffffffffffffffffffffffffffffffffffffff166040518263ffffffff1660e01b81526004016106fb91906123df565b60206040518083038186803b15801561071357600080fd5b505afa158015610727573d6000803e3d6000fd5b505050506040513d601f19601f8201168201806040525081019061074b919061211c565b90506000600360009054906101000a900473ffffffffffffffffffffffffffffffffffffffff1673ffffffffffffffffffffffffffffffffffffffff1663daea3e3a600260009054906101000a900473ffffffffffffffffffffffffffffffffffffffff166040518263ffffffff1660e01b81526004016107cc91906123df565b60006040518083038186803b1580156107e457600080fd5b505afa1580156107f8573d6000803e3d6000fd5b505050506040513d6000823e3d601f19601f8201168201806040525081019061082191906120d3565b90506000816020015173ffffffffffffffffffffffffffffffffffffffff1663ed633e83600360009054906101000a900473ffffffffffffffffffffffffffffffffffffffff1673ffffffffffffffffffffffffffffffffffffffff1663daea3e3a85610100015160008151811061089c5761089b612a87565b5b60200260200101516040518263ffffffff1660e01b81526004016108c091906123df565b60006040518083038186803b1580156108d857600080fd5b505afa1580156108ec573d6000803e3d6000fd5b505050506040513d6000823e3d601f19601f8201168201806040525081019061091591906120d3565b60000151600460009054906101000a900473ffffffffffffffffffffffffffffffffffffffff16600360009054906101000a900473ffffffffffffffffffffffffffffffffffffffff1673ffffffffffffffffffffffffffffffffffffffff1663daea3e3a87610100015160008151811061099357610992612a87565b5b60200260200101516040518263ffffffff1660e01b81526004016109b791906123df565b60006040518083038186803b1580156109cf57600080fd5b505afa1580156109e3573d6000803e3d6000fd5b505050506040513d6000823e3d601f19601f82011682018060405250810190610a0c91906120d3565b604001516040518463ffffffff1660e01b8152600401610a2e939291906123fa565b60206040518083038186803b158015610a4657600080fd5b505afa158015610a5a573d6000803e3d6000fd5b505050506040513d601f19601f82011682018060405250810190610a7e919061211c565b905060008184610a8e91906126e1565b9050848111610a9c826116ac565b610aa5876116ac565b604051602001610ab692919061236b565b60405160208183030381529060405290610b06576040517f08c379a0000000000000000000000000000000000000000000000000000000008152600401610afd91906124f0565b60405180910390fd5b5060008582610b1591906127c2565b90506000805b600160009054906101000a900473ffffffffffffffffffffffffffffffffffffffff1673ffffffffffffffffffffffffffffffffffffffff16623660886040518163ffffffff1660e01b815260040160206040518083038186803b158015610b8257600080fd5b505afa158015610b96573d6000803e3d6000fd5b505050506040513d601f19601f82011682018060405250810190610bba919061211c565b8160ff161015610dfa576000600160009054906101000a900473ffffffffffffffffffffffffffffffffffffffff1673ffffffffffffffffffffffffffffffffffffffff166324359879836040518263ffffffff1660e01b8152600401610c21919061264e565b60206040518083038186803b158015610c3957600080fd5b505afa158015610c4d573d6000803e3d6000fd5b505050506040513d601f19601f82011682018060405250810190610c719190611f0c565b90506000600160009054906101000a900473ffffffffffffffffffffffffffffffffffffffff1673ffffffffffffffffffffffffffffffffffffffff166370a08231836040518263ffffffff1660e01b8152600401610cd091906123df565b60206040518083038186803b158015610ce857600080fd5b505afa158015610cfc573d6000803e3d6000fd5b505050506040513d601f19601f82011682018060405250810190610d20919061211c565b905060008a8683610d319190612768565b610d3b9190612737565b90506000811115610de457600160009054906101000a900473ffffffffffffffffffffffffffffffffffffffff1673ffffffffffffffffffffffffffffffffffffffff166340c10f1984836040518363ffffffff1660e01b8152600401610da3929190612491565b600060405180830381600087803b158015610dbd57600080fd5b505af1158015610dd1573d6000803e3d6000fd5b505050508085610de191906126e1565b94505b5050508080610df290612985565b915050610b1b565b507f6997cdab3aebbbb5a28dbdf7c61a3c7e9ee2c38784bbe66b9c4e58078e3b587f8784838486610e2b91906127c2565b604051610e3b9493929190612609565b60405180910390a150505050505050565b6000806000838152602001908152602001600020600101549050919050565b610e7482610e4c565b610e8581610e80611813565b61181b565b610e8f83836118b8565b505050565b610e9c611813565b73ffffffffffffffffffffffffffffffffffffffff168173ffffffffffffffffffffffffffffffffffffffff1614610f09576040517f08c379a0000000000000000000000000000000000000000000000000000000008152600401610f00906125ce565b60405180910390fd5b610f138282611998565b5050565b610f246000801b3361102b565b610f63576040517f08c379a0000000000000000000000000000000000000000000000000000000008152600401610f5a906125ae565b60405180910390fd5b82600360006101000a81548173ffffffffffffffffffffffffffffffffffffffff021916908373ffffffffffffffffffffffffffffffffffffffff16021790555081600460006101000a81548173ffffffffffffffffffffffffffffffffffffffff021916908373ffffffffffffffffffffffffffffffffffffffff16021790555080600560006101000a81548173ffffffffffffffffffffffffffffffffffffffff021916908373ffffffffffffffffffffffffffffffffffffffff160217905550505050565b600080600084815260200190815260200160002060000160008373ffffffffffffffffffffffffffffffffffffffff1673ffffffffffffffffffffffffffffffffffffffff16815260200190815260200160002060009054906101000a900460ff16905092915050565b6000801b81565b6000600160009054906101000a900473ffffffffffffffffffffffffffffffffffffffff1673ffffffffffffffffffffffffffffffffffffffff166370a08231336040518263ffffffff1660e01b81526004016110f991906123df565b60206040518083038186803b15801561111157600080fd5b505afa158015611125573d6000803e3d6000fd5b505050506040513d601f19601f82011682018060405250810190611149919061211c565b905090565b61115b6000801b3361102b565b61119a576040517f08c379a0000000000000000000000000000000000000000000000000000000008152600401611191906125ae565b60405180910390fd5b81600160006101000a81548173ffffffffffffffffffffffffffffffffffffffff021916908373ffffffffffffffffffffffffffffffffffffffff16021790555080600260006101000a81548173ffffffffffffffffffffffffffffffffffffffff021916908373ffffffffffffffffffffffffffffffffffffffff1602179055505050565b7fe05220aa7f4f94eba183e0264ab8fc510924fb7b592d6a6d4a51dc3a34c79adf8160405161124f9190612580565b60405180910390a160008273ffffffffffffffffffffffffffffffffffffffff166370a08231336040518263ffffffff1660e01b815260040161129291906123df565b60206040518083038186803b1580156112aa57600080fd5b505afa1580156112be573d6000803e3d6000fd5b505050506040513d601f19601f820116820180604052508101906112e2919061211c565b905081811015611327576040517f08c379a000000000000000000000000000000000000000000000000000000000815260040161131e90612532565b60405180910390fd5b8273ffffffffffffffffffffffffffffffffffffffff166323b872dd3330856040518463ffffffff1660e01b815260040161136493929190612431565b602060405180830381600087803b15801561137e57600080fd5b505af1158015611392573d6000803e3d6000fd5b505050506040513d601f19601f820116820180604052508101906113b6919061200c565b50600160009054906101000a900473ffffffffffffffffffffffffffffffffffffffff1673ffffffffffffffffffffffffffffffffffffffff166340c10f1933846040518363ffffffff1660e01b8152600401611414929190612491565b600060405180830381600087803b15801561142e57600080fd5b505af1158015611442573d6000803e3d6000fd5b50505050600360009054906101000a900473ffffffffffffffffffffffffffffffffffffffff1673ffffffffffffffffffffffffffffffffffffffff16636bb7782b84846040518363ffffffff1660e01b81526004016114a3929190612468565b600060405180830381600087803b1580156114bd57600080fd5b505af11580156114d1573d6000803e3d6000fd5b505050508273ffffffffffffffffffffffffffffffffffffffff1663a9059cbb600460009054906101000a900473ffffffffffffffffffffffffffffffffffffffff16846040518363ffffffff1660e01b8152600401611532929190612491565b602060405180830381600087803b15801561154c57600080fd5b505af1158015611560573d6000803e3d6000fd5b505050506040513d601f19601f82011682018060405250810190611584919061200c565b50600460009054906101000a900473ffffffffffffffffffffffffffffffffffffffff1673ffffffffffffffffffffffffffffffffffffffff1663adc9772e84846040518363ffffffff1660e01b81526004016115e2929190612491565b600060405180830381600087803b1580156115fc57600080fd5b505af1158015611610573d6000803e3d6000fd5b50505050505050565b61162282610e4c565b6116338161162e611813565b61181b565b61163d8383611998565b505050565b60007f01ffc9a7000000000000000000000000000000000000000000000000000000007bffffffffffffffffffffffffffffffffffffffffffffffffffffffff1916827bffffffffffffffffffffffffffffffffffffffffffffffffffffffff1916149050919050565b606060008214156116f4576040518060400160405280600181526020017f3000000000000000000000000000000000000000000000000000000000000000815250905061180e565b600082905060005b6000821461172657808061170f9061293c565b915050600a8261171f9190612737565b91506116fc565b60008167ffffffffffffffff81111561174257611741612ab6565b5b6040519080825280601f01601f1916602001820160405280156117745781602001600182028036833780820191505090505b50905060008290505b600086146118065760018161179291906127c2565b9050600a866117a191906129af565b60306117ad91906126e1565b60f81b8282815181106117c3576117c2612a87565b5b60200101907effffffffffffffffffffffffffffffffffffffffffffffffffffffffffffff1916908160001a905350600a866117ff9190612737565b955061177d565b819450505050505b919050565b600033905090565b611825828261102b565b6118b45761184a8173ffffffffffffffffffffffffffffffffffffffff166014611a79565b6118588360001c6020611a79565b6040516020016118699291906123a5565b6040516020818303038152906040526040517f08c379a00000000000000000000000000000000000000000000000000000000081526004016118ab91906124f0565b60405180910390fd5b5050565b6118c2828261102b565b61199457600160008084815260200190815260200160002060000160008373ffffffffffffffffffffffffffffffffffffffff1673ffffffffffffffffffffffffffffffffffffffff16815260200190815260200160002060006101000a81548160ff021916908315150217905550611939611813565b73ffffffffffffffffffffffffffffffffffffffff168173ffffffffffffffffffffffffffffffffffffffff16837f2f8788117e7eff1d82e926ec794901d17c78024a50270940304540a733656f0d60405160405180910390a45b5050565b6119a2828261102b565b15611a7557600080600084815260200190815260200160002060000160008373ffffffffffffffffffffffffffffffffffffffff1673ffffffffffffffffffffffffffffffffffffffff16815260200190815260200160002060006101000a81548160ff021916908315150217905550611a1a611813565b73ffffffffffffffffffffffffffffffffffffffff168173ffffffffffffffffffffffffffffffffffffffff16837ff6391f5c32d9c69d2a47ea670b442974b53935d1edc7fd64eb21e047a839171b60405160405180910390a45b5050565b606060006002836002611a8c9190612768565b611a9691906126e1565b67ffffffffffffffff811115611aaf57611aae612ab6565b5b6040519080825280601f01601f191660200182016040528015611ae15781602001600182028036833780820191505090505b5090507f300000000000000000000000000000000000000000000000000000000000000081600081518110611b1957611b18612a87565b5b60200101907effffffffffffffffffffffffffffffffffffffffffffffffffffffffffffff1916908160001a9053507f780000000000000000000000000000000000000000000000000000000000000081600181518110611b7d57611b7c612a87565b5b60200101907effffffffffffffffffffffffffffffffffffffffffffffffffffffffffffff1916908160001a90535060006001846002611bbd9190612768565b611bc791906126e1565b90505b6001811115611c67577f3031323334353637383961626364656600000000000000000000000000000000600f861660108110611c0957611c08612a87565b5b1a60f81b828281518110611c2057611c1f612a87565b5b60200101907effffffffffffffffffffffffffffffffffffffffffffffffffffffffffffff1916908160001a905350600485901c945080611c60906128e1565b9050611bca565b5060008414611cab576040517f08c379a0000000000000000000000000000000000000000000000000000000008152600401611ca290612512565b60405180910390fd5b8091505092915050565b6000611cc8611cc38461268e565b612669565b90508083825260208201905082856020860282011115611ceb57611cea612af4565b5b60005b85811015611d1b5781611d018882611d3a565b845260208401935060208301925050600181019050611cee565b5050509392505050565b600081359050611d3481612cd4565b92915050565b600081519050611d4981612cd4565b92915050565b600082601f830112611d6457611d63612ae5565b5b8151611d74848260208601611cb5565b91505092915050565b600081519050611d8c81612ceb565b92915050565b600081359050611da181612d02565b92915050565b600081359050611db681612d19565b92915050565b60006101208284031215611dd357611dd2612aea565b5b611dde610120612669565b90506000611dee84828501611d3a565b6000830152506020611e0284828501611d3a565b6020830152506040611e1684828501611d3a565b6040830152506060611e2a84828501611d3a565b6060830152506080611e3e84828501611ee2565b60808301525060a0611e5284828501611eb8565b60a08301525060c0611e6684828501611eb8565b60c08301525060e0611e7a84828501611ef7565b60e08301525061010082015167ffffffffffffffff811115611e9f57611e9e612aef565b5b611eab84828501611d4f565b6101008301525092915050565b600081519050611ec781612d30565b92915050565b600081359050611edc81612d47565b92915050565b600081519050611ef181612d47565b92915050565b600081519050611f0681612d5e565b92915050565b600060208284031215611f2257611f21612afe565b5b6000611f3084828501611d3a565b91505092915050565b60008060408385031215611f5057611f4f612afe565b5b6000611f5e85828601611d25565b9250506020611f6f85828601611d25565b9150509250929050565b600080600060608486031215611f9257611f91612afe565b5b6000611fa086828701611d25565b9350506020611fb186828701611d25565b9250506040611fc286828701611d25565b9150509250925092565b60008060408385031215611fe357611fe2612afe565b5b6000611ff185828601611d25565b925050602061200285828601611ecd565b9150509250929050565b60006020828403121561202257612021612afe565b5b600061203084828501611d7d565b91505092915050565b60006020828403121561204f5761204e612afe565b5b600061205d84828501611d92565b91505092915050565b6000806040838503121561207d5761207c612afe565b5b600061208b85828601611d92565b925050602061209c85828601611d25565b9150509250929050565b6000602082840312156120bc576120bb612afe565b5b60006120ca84828501611da7565b91505092915050565b6000602082840312156120e9576120e8612afe565b5b600082015167ffffffffffffffff81111561210757612106612af9565b5b61211384828501611dbc565b91505092915050565b60006020828403121561213257612131612afe565b5b600061214084828501611ee2565b91505092915050565b612152816127f6565b82525050565b61216181612808565b82525050565b61217081612814565b82525050565b61217f8161284a565b82525050565b6000612190826126ba565b61219a81856126c5565b93506121aa8185602086016128ae565b6121b381612b03565b840191505092915050565b60006121c9826126ba565b6121d381856126d6565b93506121e38185602086016128ae565b80840191505092915050565b60006121fc6020836126c5565b915061220782612b14565b602082019050919050565b600061221f6018836126c5565b915061222a82612b3d565b602082019050919050565b6000612242601c836126d6565b915061224d82612b66565b601c82019050919050565b60006122656006836126c5565b915061227082612b8f565b602082019050919050565b60006122886003836126c5565b915061229382612bb8565b602082019050919050565b60006122ab6004836126d6565b91506122b682612be1565b600482019050919050565b60006122ce6014836126c5565b91506122d982612c0a565b602082019050919050565b60006122f16017836126d6565b91506122fc82612c33565b601782019050919050565b60006123146011836126d6565b915061231f82612c5c565b601182019050919050565b6000612337602f836126c5565b915061234282612c85565b604082019050919050565b61235681612885565b82525050565b6123658161289c565b82525050565b600061237682612235565b915061238282856121be565b915061238d8261229e565b915061239982846121be565b91508190509392505050565b60006123b0826122e4565b91506123bc82856121be565b91506123c782612307565b91506123d382846121be565b91508190509392505050565b60006020820190506123f46000830184612149565b92915050565b600060608201905061240f6000830186612149565b61241c6020830185612149565b6124296040830184612149565b949350505050565b60006060820190506124466000830186612149565b6124536020830185612149565b612460604083018461234d565b949350505050565b600060408201905061247d6000830185612149565b61248a6020830184612176565b9392505050565b60006040820190506124a66000830185612149565b6124b3602083018461234d565b9392505050565b60006020820190506124cf6000830184612158565b92915050565b60006020820190506124ea6000830184612167565b92915050565b6000602082019050818103600083015261250a8184612185565b905092915050565b6000602082019050818103600083015261252b816121ef565b9050919050565b6000602082019050818103600083015261254b81612212565b9050919050565b6000604082019050818103600083015261256b81612258565b905061257a602083018461234d565b92915050565b600060408201905081810360008301526125998161227b565b90506125a8602083018461234d565b92915050565b600060208201905081810360008301526125c7816122c1565b9050919050565b600060208201905081810360008301526125e78161232a565b9050919050565b6000602082019050612603600083018461234d565b92915050565b600060808201905061261e600083018761234d565b61262b602083018661234d565b612638604083018561234d565b612645606083018461234d565b95945050505050565b6000602082019050612663600083018461235c565b92915050565b6000612673612684565b905061267f828261290b565b919050565b6000604051905090565b600067ffffffffffffffff8211156126a9576126a8612ab6565b5b602082029050602081019050919050565b600081519050919050565b600082825260208201905092915050565b600081905092915050565b60006126ec82612885565b91506126f783612885565b9250827fffffffffffffffffffffffffffffffffffffffffffffffffffffffffffffffff0382111561272c5761272b612a29565b5b828201905092915050565b600061274282612885565b915061274d83612885565b92508261275d5761275c612a58565b5b828204905092915050565b600061277382612885565b915061277e83612885565b9250817fffffffffffffffffffffffffffffffffffffffffffffffffffffffffffffffff04831182151516156127b7576127b6612a29565b5b828202905092915050565b60006127cd82612885565b91506127d883612885565b9250828210156127eb576127ea612a29565b5b828203905092915050565b600061280182612865565b9050919050565b60008115159050919050565b6000819050919050565b60007fffffffff0000000000000000000000000000000000000000000000000000000082169050919050565b600081600f0b9050919050565b600061ffff82169050919050565b600073ffffffffffffffffffffffffffffffffffffffff82169050919050565b6000819050919050565b600060ff82169050919050565b60006128a78261288f565b9050919050565b60005b838110156128cc5780820151818401526020810190506128b1565b838111156128db576000848401525b50505050565b60006128ec82612885565b91506000821415612900576128ff612a29565b5b600182039050919050565b61291482612b03565b810181811067ffffffffffffffff8211171561293357612932612ab6565b5b80604052505050565b600061294782612885565b91507fffffffffffffffffffffffffffffffffffffffffffffffffffffffffffffffff82141561297a57612979612a29565b5b600182019050919050565b60006129908261288f565b915060ff8214156129a4576129a3612a29565b5b600182019050919050565b60006129ba82612885565b91506129c583612885565b9250826129d5576129d4612a58565b5b828206905092915050565b60006129eb8261284a565b91507fffffffffffffffffffffffffffffffff80000000000000000000000000000000821415612a1e57612a1d612a29565b5b816000039050919050565b7f4e487b7100000000000000000000000000000000000000000000000000000000600052601160045260246000fd5b7f4e487b7100000000000000000000000000000000000000000000000000000000600052601260045260246000fd5b7f4e487b7100000000000000000000000000000000000000000000000000000000600052603260045260246000fd5b7f4e487b7100000000000000000000000000000000000000000000000000000000600052604160045260246000fd5b600080fd5b600080fd5b600080fd5b600080fd5b600080fd5b600080fd5b6000601f19601f8301169050919050565b7f537472696e67733a20686578206c656e67746820696e73756666696369656e74600082015250565b7f4e6f7420656e6f75676820746f6b656e7320746f206275790000000000000000600082015250565b7f4e6f7420656e6f756768207573646320666f7220726577617264732000000000600082015250565b7f72656465656d0000000000000000000000000000000000000000000000000000600082015250565b7f6275790000000000000000000000000000000000000000000000000000000000600082015250565b7f203c3d2000000000000000000000000000000000000000000000000000000000600082015250565b7f5265737472696374656420746f2061646d696e73000000000000000000000000600082015250565b7f416363657373436f6e74726f6c3a206163636f756e7420000000000000000000600082015250565b7f206973206d697373696e6720726f6c6520000000000000000000000000000000600082015250565b7f416363657373436f6e74726f6c3a2063616e206f6e6c792072656e6f756e636560008201527f20726f6c657320666f722073656c660000000000000000000000000000000000602082015250565b612cdd816127f6565b8114612ce857600080fd5b50565b612cf481612808565b8114612cff57600080fd5b50565b612d0b81612814565b8114612d1657600080fd5b50565b612d228161281e565b8114612d2d57600080fd5b50565b612d3981612857565b8114612d4457600080fd5b50565b612d5081612885565b8114612d5b57600080fd5b50565b612d678161288f565b8114612d7257600080fd5b5056fea2646970667358221220de6efe18c4d070d5035a8dba1117a3b41cd1ced617e4b1cefb537401f28fddc864736f6c63430008060033",
  "immutableReferences": {},
  "source": "// SPDX-License-Identifier: MIT\npragma solidity >=0.8 <0.9.0;\n\nimport \"@openzeppelin/contracts/token/ERC20/IERC20.sol\";\nimport \"./interfaces/IERC20MintableBurnable.sol\";\nimport \"./interfaces/IActivesList.sol\";\nimport \"./interfaces/IConnector.sol\";\nimport \"./OvernightToken.sol\";\nimport \"./interfaces/IPortfolioManager.sol\";\nimport \"./interfaces/IMark2Market.sol\";\nimport \"@openzeppelin/contracts/access/AccessControl.sol\";\nimport \"./interfaces/IActivesList.sol\";\n\ncontract Exchange is AccessControl {\n    OvernightToken ovn;\n    IERC20 usdc;\n    IActivesList actList;\n    IPortfolioManager PM; //portfolio manager contract\n    IMark2Market m2m;\n\n    event EventExchange(string label, uint256 amount);\n    event BusinessEvent(string label, uint256 beforeAmount, uint256 afterAmount);\n    event BusinessEventPrice(string label, IMark2Market.ActivesPrices prices);\n    event RewardEvent(uint256 totalOvn, uint256 totalUsdc, uint256 totallyAmountRewarded, uint256 totallySaved);\n\n    modifier onlyAdmin()\n    {\n        require(hasRole(DEFAULT_ADMIN_ROLE, msg.sender), \"Restricted to admins\");\n        _;\n    }\n\n    constructor() {\n        _setupRole(DEFAULT_ADMIN_ROLE, msg.sender);\n    }\n\n    function setTokens(address _ovn, address _usdc) external onlyAdmin{\n        ovn = OvernightToken(_ovn);\n        usdc = IERC20(_usdc);\n    }\n\n    function setAddr(address _addrAL, address _addrPM, address _addrM2M) external onlyAdmin {\n        actList = IActivesList(_addrAL);\n        PM = IPortfolioManager(_addrPM);\n        m2m = IMark2Market(_addrM2M);\n    }\n\n    function buy(address _addrTok, uint256 _amount) public {\n        emit EventExchange(\"buy\", _amount);\n\n\n        uint256 balance = IERC20(_addrTok).balanceOf(msg.sender);\n        require(balance >= _amount, \"Not enough tokens to buy\");\n\n        IERC20(_addrTok).transferFrom(msg.sender, address(this), _amount);\n        ovn.mint(msg.sender, _amount);\n        actList.changeBal(_addrTok, int128(uint128(_amount)));\n        IERC20(_addrTok).transfer(address(PM), _amount);\n        PM.stake(_addrTok, _amount);\n\n    }\n\n    function balance() public view returns (uint256) {\n        return ovn.balanceOf(msg.sender);\n    }\n\n    function redeem(address _addrTok, uint256 _amount) public {\n        emit EventExchange(\"redeem\", _amount);\n\n        //TODO: Real unstacke amount may be different to _amount\n        uint256 unstakedAmount = PM.unstake(_addrTok, _amount);\n        // Or just burn from sender\n        ovn.burn(msg.sender, _amount);\n        actList.changeBal(_addrTok, - int128(uint128(unstakedAmount)));\n        // TODO: correct amount by rates or oracles\n        // TODO: check threshhold limits to withdraw deposite\n        IERC20(_addrTok).transfer(msg.sender, unstakedAmount);\n\n\n\n    }\n\n    function reward() public onlyAdmin {\n        // 1. get current amount of OVN\n        // 2. get current amount of USDC\n        // 3. get current amount of USDC that we will get from AAVE by total amount of aUSDC\n        // 4. get total sum of USDC we can get from any source\n        // 5. calc difference between total count of OVN and USDC\n        // 6. go through all OVN owners and mint to their addresses proportionally OVN\n\n        uint totalOvnSupply = ovn.totalSupply();\n        uint amountUsdcAtPM = usdc.balanceOf(address(PM));\n        IActivesList.Active memory active = actList.getActive(address(usdc));\n        uint amountUsdcAtPMByAave = IConnector(active.connector).getBookValue(\n            actList.getActive(active.derivatives[0]).actAddress,\n            address(PM),\n            actList.getActive(active.derivatives[0]).poolPrice\n        );\n\n        uint totalUsdc = amountUsdcAtPM + amountUsdcAtPMByAave;\n        require(totalUsdc > totalOvnSupply, string(abi.encodePacked(\"Not enough usdc for rewards \", uint2str(totalUsdc), \" <= \", uint2str(totalOvnSupply))));\n        uint difference  = totalUsdc - totalOvnSupply;\n\n        uint totallyAmountRewarded = 0;\n        for (uint8 i = 0; i < ovn.ownerLength(); i++) {\n            address ovnOwnerAddress = ovn.ownerAt(i);\n            uint ovnBalance = ovn.balanceOf(ovnOwnerAddress);\n            uint additionalMintAmount = ovnBalance * difference / totalOvnSupply;\n            if (additionalMintAmount > 0) {\n                ovn.mint(ovnOwnerAddress, additionalMintAmount);\n                totallyAmountRewarded += additionalMintAmount;\n            }\n        }\n        //TODO: what to do with saved usdc? Do we need to mint it to PM\n\n        emit RewardEvent(\n            totalOvnSupply,\n            totalUsdc,\n            totallyAmountRewarded,\n            difference - totallyAmountRewarded\n        );\n\n    }\n\n    function uint2str(uint _i) internal pure returns (string memory _uintAsString) {\n        if (_i == 0) {\n            return \"0\";\n        }\n        uint j = _i;\n        uint len;\n        while (j != 0) {\n            len++;\n            j /= 10;\n        }\n        bytes memory bstr = new bytes(len);\n        uint k = len;\n        while (_i != 0) {\n            k=k-1;\n            bstr[k] = bytes1(uint8(48 + _i % 10));\n            _i /= 10;\n        }\n        return string(bstr);\n    }\n}\n",
  "sourcePath": "/home/vorh/IdeaProjects/Projects-Work/overnight/ovngt-mvp/contracts/Exchange.sol",
  "compiler": {
    "name": "solc",
    "version": "0.8.6+commit.11564f7e.Emscripten.clang"
  },
  "schemaVersion": "3.4.1",
  "updatedAt": "2021-09-12T09:25:17.565Z",
  "networkType": "ethereum",
  "devdoc": {
    "kind": "dev",
    "methods": {
      "getRoleAdmin(bytes32)": {
        "details": "Returns the admin role that controls `role`. See {grantRole} and {revokeRole}. To change a role's admin, use {_setRoleAdmin}."
      },
      "grantRole(bytes32,address)": {
        "details": "Grants `role` to `account`. If `account` had not been already granted `role`, emits a {RoleGranted} event. Requirements: - the caller must have ``role``'s admin role."
      },
      "hasRole(bytes32,address)": {
        "details": "Returns `true` if `account` has been granted `role`."
      },
      "renounceRole(bytes32,address)": {
        "details": "Revokes `role` from the calling account. Roles are often managed via {grantRole} and {revokeRole}: this function's purpose is to provide a mechanism for accounts to lose their privileges if they are compromised (such as when a trusted device is misplaced). If the calling account had been granted `role`, emits a {RoleRevoked} event. Requirements: - the caller must be `account`."
      },
      "revokeRole(bytes32,address)": {
        "details": "Revokes `role` from `account`. If `account` had been granted `role`, emits a {RoleRevoked} event. Requirements: - the caller must have ``role``'s admin role."
      },
      "supportsInterface(bytes4)": {
        "details": "See {IERC165-supportsInterface}."
      }
    },
    "version": 1
  },
  "userdoc": {
    "kind": "user",
    "methods": {},
    "version": 1
  }
}