{
  "contractName": "Exchange",
  "abi": [
    {
      "inputs": [],
      "stateMutability": "nonpayable",
      "type": "constructor"
    },
    {
      "anonymous": false,
      "inputs": [
        {
          "indexed": false,
          "internalType": "string",
          "name": "reason",
          "type": "string"
        }
      ],
      "name": "ErrorLogging",
      "type": "event"
    },
    {
      "anonymous": false,
      "inputs": [
        {
          "indexed": false,
          "internalType": "string",
          "name": "label",
          "type": "string"
        },
        {
          "indexed": false,
          "internalType": "uint256",
          "name": "amount",
          "type": "uint256"
        },
        {
          "indexed": false,
          "internalType": "uint256",
          "name": "fee",
          "type": "uint256"
        },
        {
          "indexed": false,
          "internalType": "address",
          "name": "sender",
          "type": "address"
        }
      ],
      "name": "EventExchange",
      "type": "event"
    },
    {
      "anonymous": false,
      "inputs": [
        {
          "indexed": false,
          "internalType": "uint256",
          "name": "totalOvn",
          "type": "uint256"
        },
        {
          "indexed": false,
          "internalType": "uint256",
          "name": "totalUsdc",
          "type": "uint256"
        }
      ],
      "name": "NoEnoughForRewardEvent",
      "type": "event"
    },
    {
      "anonymous": false,
      "inputs": [
        {
          "indexed": false,
          "internalType": "uint256",
          "name": "amount",
          "type": "uint256"
        },
        {
          "indexed": false,
          "internalType": "uint256",
          "name": "feeAmount",
          "type": "uint256"
        }
      ],
      "name": "PaidBuyFee",
      "type": "event"
    },
    {
      "anonymous": false,
      "inputs": [
        {
          "indexed": false,
          "internalType": "uint256",
          "name": "amount",
          "type": "uint256"
        },
        {
          "indexed": false,
          "internalType": "uint256",
          "name": "feeAmount",
          "type": "uint256"
        }
      ],
      "name": "PaidRedeemFee",
      "type": "event"
    },
    {
      "anonymous": false,
      "inputs": [
        {
          "indexed": false,
          "internalType": "uint256",
          "name": "totalOvn",
          "type": "uint256"
        },
        {
          "indexed": false,
          "internalType": "uint256",
          "name": "totalUsdc",
          "type": "uint256"
        },
        {
          "indexed": false,
          "internalType": "uint256",
          "name": "totallyAmountRewarded",
          "type": "uint256"
        },
        {
          "indexed": false,
          "internalType": "uint256",
          "name": "totallySaved",
          "type": "uint256"
        }
      ],
      "name": "RewardEvent",
      "type": "event"
    },
    {
      "anonymous": false,
      "inputs": [
        {
          "indexed": true,
          "internalType": "bytes32",
          "name": "role",
          "type": "bytes32"
        },
        {
          "indexed": true,
          "internalType": "bytes32",
          "name": "previousAdminRole",
          "type": "bytes32"
        },
        {
          "indexed": true,
          "internalType": "bytes32",
          "name": "newAdminRole",
          "type": "bytes32"
        }
      ],
      "name": "RoleAdminChanged",
      "type": "event"
    },
    {
      "anonymous": false,
      "inputs": [
        {
          "indexed": true,
          "internalType": "bytes32",
          "name": "role",
          "type": "bytes32"
        },
        {
          "indexed": true,
          "internalType": "address",
          "name": "account",
          "type": "address"
        },
        {
          "indexed": true,
          "internalType": "address",
          "name": "sender",
          "type": "address"
        }
      ],
      "name": "RoleGranted",
      "type": "event"
    },
    {
      "anonymous": false,
      "inputs": [
        {
          "indexed": true,
          "internalType": "bytes32",
          "name": "role",
          "type": "bytes32"
        },
        {
          "indexed": true,
          "internalType": "address",
          "name": "account",
          "type": "address"
        },
        {
          "indexed": true,
          "internalType": "address",
          "name": "sender",
          "type": "address"
        }
      ],
      "name": "RoleRevoked",
      "type": "event"
    },
    {
      "anonymous": false,
      "inputs": [
        {
          "indexed": false,
          "internalType": "uint256",
          "name": "fee",
          "type": "uint256"
        },
        {
          "indexed": false,
          "internalType": "uint256",
          "name": "feeDenominator",
          "type": "uint256"
        }
      ],
      "name": "UpdatedBuyFee",
      "type": "event"
    },
    {
      "anonymous": false,
      "inputs": [
        {
          "indexed": false,
          "internalType": "uint256",
          "name": "fee",
          "type": "uint256"
        },
        {
          "indexed": false,
          "internalType": "uint256",
          "name": "feeDenominator",
          "type": "uint256"
        }
      ],
      "name": "UpdatedRedeemFee",
      "type": "event"
    },
    {
      "inputs": [],
      "name": "DEFAULT_ADMIN_ROLE",
      "outputs": [
        {
          "internalType": "bytes32",
          "name": "",
          "type": "bytes32"
        }
      ],
      "stateMutability": "view",
      "type": "function",
      "constant": true
    },
    {
      "inputs": [],
      "name": "buyFee",
      "outputs": [
        {
          "internalType": "uint256",
          "name": "",
          "type": "uint256"
        }
      ],
      "stateMutability": "view",
      "type": "function",
      "constant": true
    },
    {
      "inputs": [],
      "name": "buyFeeDenominator",
      "outputs": [
        {
          "internalType": "uint256",
          "name": "",
          "type": "uint256"
        }
      ],
      "stateMutability": "view",
      "type": "function",
      "constant": true
    },
    {
      "inputs": [
        {
          "internalType": "bytes32",
          "name": "role",
          "type": "bytes32"
        }
      ],
      "name": "getRoleAdmin",
      "outputs": [
        {
          "internalType": "bytes32",
          "name": "",
          "type": "bytes32"
        }
      ],
      "stateMutability": "view",
      "type": "function",
      "constant": true
    },
    {
      "inputs": [
        {
          "internalType": "bytes32",
          "name": "role",
          "type": "bytes32"
        },
        {
          "internalType": "address",
          "name": "account",
          "type": "address"
        }
      ],
      "name": "grantRole",
      "outputs": [],
      "stateMutability": "nonpayable",
      "type": "function"
    },
    {
      "inputs": [
        {
          "internalType": "bytes32",
          "name": "role",
          "type": "bytes32"
        },
        {
          "internalType": "address",
          "name": "account",
          "type": "address"
        }
      ],
      "name": "hasRole",
      "outputs": [
        {
          "internalType": "bool",
          "name": "",
          "type": "bool"
        }
      ],
      "stateMutability": "view",
      "type": "function",
      "constant": true
    },
    {
      "inputs": [],
      "name": "m2m",
      "outputs": [
        {
          "internalType": "contract IMark2Market",
          "name": "",
          "type": "address"
        }
      ],
      "stateMutability": "view",
      "type": "function",
      "constant": true
    },
    {
      "inputs": [],
      "name": "ovn",
      "outputs": [
        {
          "internalType": "contract OvernightToken",
          "name": "",
          "type": "address"
        }
      ],
      "stateMutability": "view",
      "type": "function",
      "constant": true
    },
    {
      "inputs": [],
      "name": "pm",
      "outputs": [
        {
          "internalType": "contract PortfolioManager",
          "name": "",
          "type": "address"
        }
      ],
      "stateMutability": "view",
      "type": "function",
      "constant": true
    },
    {
      "inputs": [],
      "name": "redeemFee",
      "outputs": [
        {
          "internalType": "uint256",
          "name": "",
          "type": "uint256"
        }
      ],
      "stateMutability": "view",
      "type": "function",
      "constant": true
    },
    {
      "inputs": [],
      "name": "redeemFeeDenominator",
      "outputs": [
        {
          "internalType": "uint256",
          "name": "",
          "type": "uint256"
        }
      ],
      "stateMutability": "view",
      "type": "function",
      "constant": true
    },
    {
      "inputs": [
        {
          "internalType": "bytes32",
          "name": "role",
          "type": "bytes32"
        },
        {
          "internalType": "address",
          "name": "account",
          "type": "address"
        }
      ],
      "name": "renounceRole",
      "outputs": [],
      "stateMutability": "nonpayable",
      "type": "function"
    },
    {
      "inputs": [
        {
          "internalType": "bytes32",
          "name": "role",
          "type": "bytes32"
        },
        {
          "internalType": "address",
          "name": "account",
          "type": "address"
        }
      ],
      "name": "revokeRole",
      "outputs": [],
      "stateMutability": "nonpayable",
      "type": "function"
    },
    {
      "inputs": [
        {
          "internalType": "bytes4",
          "name": "interfaceId",
          "type": "bytes4"
        }
      ],
      "name": "supportsInterface",
      "outputs": [
        {
          "internalType": "bool",
          "name": "",
          "type": "bool"
        }
      ],
      "stateMutability": "view",
      "type": "function",
      "constant": true
    },
    {
      "inputs": [],
      "name": "usdc",
      "outputs": [
        {
          "internalType": "contract IERC20",
          "name": "",
          "type": "address"
        }
      ],
      "stateMutability": "view",
      "type": "function",
      "constant": true
    },
    {
      "inputs": [
        {
          "internalType": "address",
          "name": "_ovn",
          "type": "address"
        },
        {
          "internalType": "address",
          "name": "_usdc",
          "type": "address"
        }
      ],
      "name": "setTokens",
      "outputs": [],
      "stateMutability": "nonpayable",
      "type": "function"
    },
    {
      "inputs": [
        {
          "internalType": "address",
          "name": "_addrPM",
          "type": "address"
        },
        {
          "internalType": "address",
          "name": "_addrM2M",
          "type": "address"
        }
      ],
      "name": "setAddr",
      "outputs": [],
      "stateMutability": "nonpayable",
      "type": "function"
    },
    {
      "inputs": [
        {
          "internalType": "uint256",
          "name": "_fee",
          "type": "uint256"
        },
        {
          "internalType": "uint256",
          "name": "_feeDenominator",
          "type": "uint256"
        }
      ],
      "name": "setBuyFee",
      "outputs": [],
      "stateMutability": "nonpayable",
      "type": "function"
    },
    {
      "inputs": [
        {
          "internalType": "uint256",
          "name": "_fee",
          "type": "uint256"
        },
        {
          "internalType": "uint256",
          "name": "_feeDenominator",
          "type": "uint256"
        }
      ],
      "name": "setRedeemFee",
      "outputs": [],
      "stateMutability": "nonpayable",
      "type": "function"
    },
    {
      "inputs": [],
      "name": "balance",
      "outputs": [
        {
          "internalType": "uint256",
          "name": "",
          "type": "uint256"
        }
      ],
      "stateMutability": "view",
      "type": "function",
      "constant": true
    },
    {
      "inputs": [
        {
          "internalType": "address",
          "name": "_addrTok",
          "type": "address"
        },
        {
          "internalType": "uint256",
          "name": "_amount",
          "type": "uint256"
        }
      ],
      "name": "buy",
      "outputs": [],
      "stateMutability": "nonpayable",
      "type": "function"
    },
    {
      "inputs": [
        {
          "internalType": "address",
          "name": "_addrTok",
          "type": "address"
        },
        {
          "internalType": "uint256",
          "name": "_amount",
          "type": "uint256"
        }
      ],
      "name": "redeem",
      "outputs": [],
      "stateMutability": "nonpayable",
      "type": "function"
    },
    {
      "inputs": [],
      "name": "reward",
      "outputs": [],
      "stateMutability": "nonpayable",
      "type": "function"
    }
  ],
  "bytecode": "0x60806040526028600555620186a06006556028600755620186a06008553480156200002957600080fd5b506200003f6000801b336200004560201b60201c565b620001be565b6200005782826200005b60201b60201c565b5050565b6200006d82826200014c60201b60201c565b6200014857600160008084815260200190815260200160002060000160008373ffffffffffffffffffffffffffffffffffffffff1673ffffffffffffffffffffffffffffffffffffffff16815260200190815260200160002060006101000a81548160ff021916908315150217905550620000ed620001b660201b60201c565b73ffffffffffffffffffffffffffffffffffffffff168173ffffffffffffffffffffffffffffffffffffffff16837f2f8788117e7eff1d82e926ec794901d17c78024a50270940304540a733656f0d60405160405180910390a45b5050565b600080600084815260200190815260200160002060000160008373ffffffffffffffffffffffffffffffffffffffff1673ffffffffffffffffffffffffffffffffffffffff16815260200190815260200160002060009054906101000a900460ff16905092915050565b600033905090565b61348a80620001ce6000396000f3fe608060405234801561001057600080fd5b506004361061014d5760003560e01c806391d14854116100c3578063cbc7854e1161007c578063cbc7854e1461036a578063cce7ec1314610386578063d0b78489146103a2578063d547741f146103c0578063ebcb00e0146103dc578063fb0ecfa4146103f85761014d565b806391d14854146102a6578063965fa21e146102d6578063a217fddf146102f4578063b69ef8a814610312578063bc56bebf14610330578063c12e90e91461034c5761014d565b806336568abe1161011557806336568abe146101f45780633d92c38b146102105780633e413bee1461022e578063470624021461024c57806362f098951461026a5780638970cdff146102885761014d565b806301ffc9a7146101525780631e9a695014610182578063228cb7331461019e578063248a9ca3146101a85780632f2ff15d146101d8575b600080fd5b61016c600480360381019061016791906124e8565b610414565b6040516101799190612938565b60405180910390f35b61019c6004803603810190610197919061240e565b61048e565b005b6101a6610863565b005b6101c260048036038101906101bd919061247b565b610eaa565b6040516101cf9190612953565b60405180910390f35b6101f260048036038101906101ed91906124a8565b610ec9565b005b61020e600480360381019061020991906124a8565b610ef2565b005b610218610f75565b60405161022591906129b2565b60405180910390f35b610236610f9b565b604051610243919061296e565b60405180910390f35b610254610fc1565b6040516102619190612bd9565b60405180910390f35b610272610fc7565b60405161027f9190612bd9565b60405180910390f35b610290610fcd565b60405161029d91906129e8565b60405180910390f35b6102c060048036038101906102bb91906124a8565b610ff3565b6040516102cd9190612938565b60405180910390f35b6102de61105d565b6040516102eb9190612bd9565b60405180910390f35b6102fc611063565b6040516103099190612953565b60405180910390f35b61031a61106a565b6040516103279190612bd9565b60405180910390f35b61034a6004803603810190610345919061258b565b61111c565b005b6103546111fb565b6040516103619190612bd9565b60405180910390f35b610384600480360381019061037f91906123ce565b611201565b005b6103a0600480360381019061039b919061240e565b6113b3565b005b6103aa61181b565b6040516103b791906129cd565b60405180910390f35b6103da60048036038101906103d591906124a8565b611841565b005b6103f660048036038101906103f191906123ce565b61186a565b005b610412600480360381019061040d919061258b565b611a1c565b005b60007f7965db0b000000000000000000000000000000000000000000000000000000007bffffffffffffffffffffffffffffffffffffffffffffffffffffffff1916827bffffffffffffffffffffffffffffffffffffffffffffffffffffffff19161480610487575061048682611afb565b5b9050919050565b600260009054906101000a900473ffffffffffffffffffffffffffffffffffffffff1673ffffffffffffffffffffffffffffffffffffffff168273ffffffffffffffffffffffffffffffffffffffff161461051e576040517f08c379a000000000000000000000000000000000000000000000000000000000815260040161051590612af9565b60405180910390fd5b6000600854600754836105319190612dad565b61053b9190612d7c565b90506000818361054b9190612e07565b90507fa95a790e5c54b3292db47a5f1a6ff76b459c701961dfc6c7c88448e7a2b7024d818360405161057e929190612bf4565b60405180910390a17f50823024c91e825c5bec1552c988716271357a1b55f2759e0c1659c9e3f6340f8183336040516105b993929190612a65565b60405180910390a16000600360009054906101000a900473ffffffffffffffffffffffffffffffffffffffff1673ffffffffffffffffffffffffffffffffffffffff1663f3fef3a386846040518363ffffffff1660e01b8152600401610620929190612989565b602060405180830381600087803b15801561063a57600080fd5b505af115801561064e573d6000803e3d6000fd5b505050506040513d601f19601f82011682018060405250810190610672919061255e565b9050600160009054906101000a900473ffffffffffffffffffffffffffffffffffffffff1673ffffffffffffffffffffffffffffffffffffffff16639dc29fac33866040518363ffffffff1660e01b81526004016106d192919061290f565b600060405180830381600087803b1580156106eb57600080fd5b505af11580156106ff573d6000803e3d6000fd5b50505050808573ffffffffffffffffffffffffffffffffffffffff166370a08231306040518263ffffffff1660e01b815260040161073d91906128bd565b60206040518083038186803b15801561075557600080fd5b505afa158015610769573d6000803e3d6000fd5b505050506040513d601f19601f8201168201806040525081019061078d919061255e565b10156107ce576040517f08c379a00000000000000000000000000000000000000000000000000000000081526004016107c590612b39565b60405180910390fd5b8473ffffffffffffffffffffffffffffffffffffffff1663a9059cbb33836040518363ffffffff1660e01b815260040161080992919061290f565b602060405180830381600087803b15801561082357600080fd5b505af1158015610837573d6000803e3d6000fd5b505050506040513d601f19601f8201168201806040525081019061085b919061244e565b505050505050565b6108706000801b33610ff3565b6108af576040517f08c379a00000000000000000000000000000000000000000000000000000000081526004016108a690612b19565b60405180910390fd5b600360009054906101000a900473ffffffffffffffffffffffffffffffffffffffff1673ffffffffffffffffffffffffffffffffffffffff1663372500ab6040518163ffffffff1660e01b8152600401600060405180830381600087803b15801561091957600080fd5b505af115801561092d573d6000803e3d6000fd5b50505050600360009054906101000a900473ffffffffffffffffffffffffffffffffffffffff1673ffffffffffffffffffffffffffffffffffffffff1663b69f88c86040518163ffffffff1660e01b8152600401600060405180830381600087803b15801561099b57600080fd5b505af11580156109af573d6000803e3d6000fd5b505050506000600160009054906101000a900473ffffffffffffffffffffffffffffffffffffffff1673ffffffffffffffffffffffffffffffffffffffff166318160ddd6040518163ffffffff1660e01b815260040160206040518083038186803b158015610a1d57600080fd5b505afa158015610a31573d6000803e3d6000fd5b505050506040513d601f19601f82011682018060405250810190610a55919061255e565b90506000600460009054906101000a900473ffffffffffffffffffffffffffffffffffffffff1673ffffffffffffffffffffffffffffffffffffffff166358a8316c6040518163ffffffff1660e01b8152600401600060405180830381600087803b158015610ac357600080fd5b505af1158015610ad7573d6000803e3d6000fd5b505050506040513d6000823e3d601f19601f82011682018060405250810190610b009190612515565b905060008160200151905064e8d4a5100081610b1c9190612d7c565b9050828111610b66577fc9a5a6e7e78e6646dc3ae5bc0e1d80203bc1c34dccf547ee4af37f6d946c29e88382604051610b56929190612bf4565b60405180910390a1505050610ea8565b60008382610b749190612e07565b90506000805b600160009054906101000a900473ffffffffffffffffffffffffffffffffffffffff1673ffffffffffffffffffffffffffffffffffffffff16623660886040518163ffffffff1660e01b815260040160206040518083038186803b158015610be157600080fd5b505afa158015610bf5573d6000803e3d6000fd5b505050506040513d601f19601f82011682018060405250810190610c19919061255e565b8160ff161015610e59576000600160009054906101000a900473ffffffffffffffffffffffffffffffffffffffff1673ffffffffffffffffffffffffffffffffffffffff166324359879836040518263ffffffff1660e01b8152600401610c809190612c62565b60206040518083038186803b158015610c9857600080fd5b505afa158015610cac573d6000803e3d6000fd5b505050506040513d601f19601f82011682018060405250810190610cd091906123a1565b90506000600160009054906101000a900473ffffffffffffffffffffffffffffffffffffffff1673ffffffffffffffffffffffffffffffffffffffff166370a08231836040518263ffffffff1660e01b8152600401610d2f91906128bd565b60206040518083038186803b158015610d4757600080fd5b505afa158015610d5b573d6000803e3d6000fd5b505050506040513d601f19601f82011682018060405250810190610d7f919061255e565b90506000888683610d909190612dad565b610d9a9190612d7c565b90506000811115610e4357600160009054906101000a900473ffffffffffffffffffffffffffffffffffffffff1673ffffffffffffffffffffffffffffffffffffffff166340c10f1984836040518363ffffffff1660e01b8152600401610e0292919061290f565b600060405180830381600087803b158015610e1c57600080fd5b505af1158015610e30573d6000803e3d6000fd5b505050508085610e409190612d26565b94505b5050508080610e5190613003565b915050610b7a565b507f6997cdab3aebbbb5a28dbdf7c61a3c7e9ee2c38784bbe66b9c4e58078e3b587f8584838486610e8a9190612e07565b604051610e9a9493929190612c1d565b60405180910390a150505050505b565b6000806000838152602001908152602001600020600101549050919050565b610ed282610eaa565b610ee381610ede611b65565b611b6d565b610eed8383611c0a565b505050565b610efa611b65565b73ffffffffffffffffffffffffffffffffffffffff168173ffffffffffffffffffffffffffffffffffffffff1614610f67576040517f08c379a0000000000000000000000000000000000000000000000000000000008152600401610f5e90612bb9565b60405180910390fd5b610f718282611cea565b5050565b600460009054906101000a900473ffffffffffffffffffffffffffffffffffffffff1681565b600260009054906101000a900473ffffffffffffffffffffffffffffffffffffffff1681565b60055481565b60065481565b600360009054906101000a900473ffffffffffffffffffffffffffffffffffffffff1681565b600080600084815260200190815260200160002060000160008373ffffffffffffffffffffffffffffffffffffffff1673ffffffffffffffffffffffffffffffffffffffff16815260200190815260200160002060009054906101000a900460ff16905092915050565b60075481565b6000801b81565b6000600160009054906101000a900473ffffffffffffffffffffffffffffffffffffffff1673ffffffffffffffffffffffffffffffffffffffff166370a08231336040518263ffffffff1660e01b81526004016110c791906128bd565b60206040518083038186803b1580156110df57600080fd5b505afa1580156110f3573d6000803e3d6000fd5b505050506040513d601f19601f82011682018060405250810190611117919061255e565b905090565b6111296000801b33610ff3565b611168576040517f08c379a000000000000000000000000000000000000000000000000000000000815260040161115f90612b19565b60405180910390fd5b60008114156111ac576040517f08c379a00000000000000000000000000000000000000000000000000000000081526004016111a390612b99565b60405180910390fd5b81600781905550806008819055507f0851a60c5c9f333586efd6a17e635855c951deaa68c3dbb31b3263a26a98271e6007546008546040516111ef929190612bf4565b60405180910390a15050565b60085481565b61120e6000801b33610ff3565b61124d576040517f08c379a000000000000000000000000000000000000000000000000000000000815260040161124490612b19565b60405180910390fd5b600073ffffffffffffffffffffffffffffffffffffffff168273ffffffffffffffffffffffffffffffffffffffff1614156112bd576040517f08c379a00000000000000000000000000000000000000000000000000000000081526004016112b490612b79565b60405180910390fd5b600073ffffffffffffffffffffffffffffffffffffffff168173ffffffffffffffffffffffffffffffffffffffff16141561132d576040517f08c379a000000000000000000000000000000000000000000000000000000000815260040161132490612b79565b60405180910390fd5b81600160006101000a81548173ffffffffffffffffffffffffffffffffffffffff021916908373ffffffffffffffffffffffffffffffffffffffff16021790555080600260006101000a81548173ffffffffffffffffffffffffffffffffffffffff021916908373ffffffffffffffffffffffffffffffffffffffff1602179055505050565b600260009054906101000a900473ffffffffffffffffffffffffffffffffffffffff1673ffffffffffffffffffffffffffffffffffffffff168273ffffffffffffffffffffffffffffffffffffffff1614611443576040517f08c379a000000000000000000000000000000000000000000000000000000000815260040161143a90612b59565b60405180910390fd5b60008273ffffffffffffffffffffffffffffffffffffffff166370a08231336040518263ffffffff1660e01b815260040161147e91906128bd565b60206040518083038186803b15801561149657600080fd5b505afa1580156114aa573d6000803e3d6000fd5b505050506040513d601f19601f820116820180604052508101906114ce919061255e565b905081811015611513576040517f08c379a000000000000000000000000000000000000000000000000000000000815260040161150a90612a45565b60405180910390fd5b8273ffffffffffffffffffffffffffffffffffffffff166323b872dd3330856040518463ffffffff1660e01b8152600401611550939291906128d8565b602060405180830381600087803b15801561156a57600080fd5b505af115801561157e573d6000803e3d6000fd5b505050506040513d601f19601f820116820180604052508101906115a2919061244e565b506000600654600554846115b69190612dad565b6115c09190612d7c565b9050600081846115d09190612e07565b90507fadcdce2403b31a56ae72c878c17b5cd8aaa8f5b92b7fe536355619df57a523878183604051611603929190612bf4565b60405180910390a17f50823024c91e825c5bec1552c988716271357a1b55f2759e0c1659c9e3f6340f81833360405161163e93929190612aaf565b60405180910390a1600160009054906101000a900473ffffffffffffffffffffffffffffffffffffffff1673ffffffffffffffffffffffffffffffffffffffff166340c10f1933836040518363ffffffff1660e01b81526004016116a392919061290f565b600060405180830381600087803b1580156116bd57600080fd5b505af11580156116d1573d6000803e3d6000fd5b505050508473ffffffffffffffffffffffffffffffffffffffff1663a9059cbb600360009054906101000a900473ffffffffffffffffffffffffffffffffffffffff16866040518363ffffffff1660e01b815260040161173292919061290f565b602060405180830381600087803b15801561174c57600080fd5b505af1158015611760573d6000803e3d6000fd5b505050506040513d601f19601f82011682018060405250810190611784919061244e565b50600360009054906101000a900473ffffffffffffffffffffffffffffffffffffffff1673ffffffffffffffffffffffffffffffffffffffff1663b9b8c24686866040518363ffffffff1660e01b81526004016117e2929190612989565b600060405180830381600087803b1580156117fc57600080fd5b505af1158015611810573d6000803e3d6000fd5b505050505050505050565b600160009054906101000a900473ffffffffffffffffffffffffffffffffffffffff1681565b61184a82610eaa565b61185b81611856611b65565b611b6d565b6118658383611cea565b505050565b6118776000801b33610ff3565b6118b6576040517f08c379a00000000000000000000000000000000000000000000000000000000081526004016118ad90612b19565b60405180910390fd5b600073ffffffffffffffffffffffffffffffffffffffff168273ffffffffffffffffffffffffffffffffffffffff161415611926576040517f08c379a000000000000000000000000000000000000000000000000000000000815260040161191d90612b79565b60405180910390fd5b600073ffffffffffffffffffffffffffffffffffffffff168173ffffffffffffffffffffffffffffffffffffffff161415611996576040517f08c379a000000000000000000000000000000000000000000000000000000000815260040161198d90612b79565b60405180910390fd5b81600360006101000a81548173ffffffffffffffffffffffffffffffffffffffff021916908373ffffffffffffffffffffffffffffffffffffffff16021790555080600460006101000a81548173ffffffffffffffffffffffffffffffffffffffff021916908373ffffffffffffffffffffffffffffffffffffffff1602179055505050565b611a296000801b33610ff3565b611a68576040517f08c379a0000000000000000000000000000000000000000000000000000000008152600401611a5f90612b19565b60405180910390fd5b6000811415611aac576040517f08c379a0000000000000000000000000000000000000000000000000000000008152600401611aa390612b99565b60405180910390fd5b81600581905550806006819055507f0851a60c5c9f333586efd6a17e635855c951deaa68c3dbb31b3263a26a98271e600554600654604051611aef929190612bf4565b60405180910390a15050565b60007f01ffc9a7000000000000000000000000000000000000000000000000000000007bffffffffffffffffffffffffffffffffffffffffffffffffffffffff1916827bffffffffffffffffffffffffffffffffffffffffffffffffffffffff1916149050919050565b600033905090565b611b778282610ff3565b611c0657611b9c8173ffffffffffffffffffffffffffffffffffffffff166014611dcb565b611baa8360001c6020611dcb565b604051602001611bbb929190612883565b6040516020818303038152906040526040517f08c379a0000000000000000000000000000000000000000000000000000000008152600401611bfd9190612a03565b60405180910390fd5b5050565b611c148282610ff3565b611ce657600160008084815260200190815260200160002060000160008373ffffffffffffffffffffffffffffffffffffffff1673ffffffffffffffffffffffffffffffffffffffff16815260200190815260200160002060006101000a81548160ff021916908315150217905550611c8b611b65565b73ffffffffffffffffffffffffffffffffffffffff168173ffffffffffffffffffffffffffffffffffffffff16837f2f8788117e7eff1d82e926ec794901d17c78024a50270940304540a733656f0d60405160405180910390a45b5050565b611cf48282610ff3565b15611dc757600080600084815260200190815260200160002060000160008373ffffffffffffffffffffffffffffffffffffffff1673ffffffffffffffffffffffffffffffffffffffff16815260200190815260200160002060006101000a81548160ff021916908315150217905550611d6c611b65565b73ffffffffffffffffffffffffffffffffffffffff168173ffffffffffffffffffffffffffffffffffffffff16837ff6391f5c32d9c69d2a47ea670b442974b53935d1edc7fd64eb21e047a839171b60405160405180910390a45b5050565b606060006002836002611dde9190612dad565b611de89190612d26565b67ffffffffffffffff811115611e0157611e006130ba565b5b6040519080825280601f01601f191660200182016040528015611e335781602001600182028036833780820191505090505b5090507f300000000000000000000000000000000000000000000000000000000000000081600081518110611e6b57611e6a61308b565b5b60200101907effffffffffffffffffffffffffffffffffffffffffffffffffffffffffffff1916908160001a9053507f780000000000000000000000000000000000000000000000000000000000000081600181518110611ecf57611ece61308b565b5b60200101907effffffffffffffffffffffffffffffffffffffffffffffffffffffffffffff1916908160001a90535060006001846002611f0f9190612dad565b611f199190612d26565b90505b6001811115611fb9577f3031323334353637383961626364656600000000000000000000000000000000600f861660108110611f5b57611f5a61308b565b5b1a60f81b828281518110611f7257611f7161308b565b5b60200101907effffffffffffffffffffffffffffffffffffffffffffffffffffffffffffff1916908160001a905350600485901c945080611fb290612fa8565b9050611f1c565b5060008414611ffd576040517f08c379a0000000000000000000000000000000000000000000000000000000008152600401611ff490612a25565b60405180910390fd5b8091505092915050565b600061201a61201584612ca2565b612c7d565b9050808382526020820190508285602086028201111561203d5761203c6130f8565b5b60005b8581101561208b57815167ffffffffffffffff811115612063576120626130e9565b5b80860161207089826121b1565b85526020850194506020840193505050600181019050612040565b5050509392505050565b60006120a86120a384612cce565b612c7d565b9050828152602081018484840111156120c4576120c36130fd565b5b6120cf848285612f75565b509392505050565b6000813590506120e6816133ca565b92915050565b6000815190506120fb816133ca565b92915050565b600082601f830112612116576121156130e9565b5b8151612126848260208601612007565b91505092915050565b60008151905061213e816133e1565b92915050565b600081359050612153816133f8565b92915050565b6000813590506121688161340f565b92915050565b60008151905061217d81613426565b92915050565b600082601f830112612198576121976130e9565b5b81516121a8848260208601612095565b91505092915050565b600061018082840312156121c8576121c76130ee565b5b6121d3610180612c7d565b905060006121e3848285016120ec565b60008301525060206121f78482850161238c565b602083015250604061220b8482850161238c565b604083015250606061221f8482850161238c565b60608301525060806122338482850161216e565b60808301525060a06122478482850161212f565b60a08301525060c061225b8482850161238c565b60c08301525060e061226f8482850161238c565b60e0830152506101006122848482850161238c565b6101008301525061012061229a8482850161238c565b6101208301525061014082015167ffffffffffffffff8111156122c0576122bf6130f3565b5b6122cc84828501612183565b6101408301525061016082015167ffffffffffffffff8111156122f2576122f16130f3565b5b6122fe84828501612183565b6101608301525092915050565b600060408284031215612321576123206130ee565b5b61232b6040612c7d565b9050600082015167ffffffffffffffff81111561234b5761234a6130f3565b5b61235784828501612101565b600083015250602061236b8482850161238c565b60208301525092915050565b6000813590506123868161343d565b92915050565b60008151905061239b8161343d565b92915050565b6000602082840312156123b7576123b6613107565b5b60006123c5848285016120ec565b91505092915050565b600080604083850312156123e5576123e4613107565b5b60006123f3858286016120d7565b9250506020612404858286016120d7565b9150509250929050565b6000806040838503121561242557612424613107565b5b6000612433858286016120d7565b925050602061244485828601612377565b9150509250929050565b60006020828403121561246457612463613107565b5b60006124728482850161212f565b91505092915050565b60006020828403121561249157612490613107565b5b600061249f84828501612144565b91505092915050565b600080604083850312156124bf576124be613107565b5b60006124cd85828601612144565b92505060206124de858286016120d7565b9150509250929050565b6000602082840312156124fe576124fd613107565b5b600061250c84828501612159565b91505092915050565b60006020828403121561252b5761252a613107565b5b600082015167ffffffffffffffff81111561254957612548613102565b5b6125558482850161230b565b91505092915050565b60006020828403121561257457612573613107565b5b60006125828482850161238c565b91505092915050565b600080604083850312156125a2576125a1613107565b5b60006125b085828601612377565b92505060206125c185828601612377565b9150509250929050565b6125d481612e3b565b82525050565b6125e381612e4d565b82525050565b6125f281612e59565b82525050565b61260181612ed3565b82525050565b61261081612ef7565b82525050565b61261f81612f1b565b82525050565b61262e81612f3f565b82525050565b600061263f82612cff565b6126498185612d0a565b9350612659818560208601612f75565b6126628161310c565b840191505092915050565b600061267882612cff565b6126828185612d1b565b9350612692818560208601612f75565b80840191505092915050565b60006126ab602083612d0a565b91506126b68261311d565b602082019050919050565b60006126ce601883612d0a565b91506126d982613146565b602082019050919050565b60006126f1600683612d0a565b91506126fc8261316f565b602082019050919050565b6000612714600383612d0a565b915061271f82613198565b602082019050919050565b6000612737602f83612d0a565b9150612742826131c1565b604082019050919050565b600061275a601483612d0a565b915061276582613210565b602082019050919050565b600061277d602683612d0a565b915061278882613239565b604082019050919050565b60006127a0602c83612d0a565b91506127ab82613288565b604082019050919050565b60006127c3601883612d0a565b91506127ce826132d7565b602082019050919050565b60006127e6601783612d1b565b91506127f182613300565b601782019050919050565b6000612809601c83612d0a565b915061281482613329565b602082019050919050565b600061282c601183612d1b565b915061283782613352565b601182019050919050565b600061284f602f83612d0a565b915061285a8261337b565b604082019050919050565b61286e81612ebc565b82525050565b61287d81612f63565b82525050565b600061288e826127d9565b915061289a828561266d565b91506128a58261281f565b91506128b1828461266d565b91508190509392505050565b60006020820190506128d260008301846125cb565b92915050565b60006060820190506128ed60008301866125cb565b6128fa60208301856125cb565b6129076040830184612865565b949350505050565b600060408201905061292460008301856125cb565b6129316020830184612865565b9392505050565b600060208201905061294d60008301846125da565b92915050565b600060208201905061296860008301846125e9565b92915050565b600060208201905061298360008301846125f8565b92915050565b600060408201905061299e60008301856125f8565b6129ab6020830184612865565b9392505050565b60006020820190506129c76000830184612607565b92915050565b60006020820190506129e26000830184612616565b92915050565b60006020820190506129fd6000830184612625565b92915050565b60006020820190508181036000830152612a1d8184612634565b905092915050565b60006020820190508181036000830152612a3e8161269e565b9050919050565b60006020820190508181036000830152612a5e816126c1565b9050919050565b60006080820190508181036000830152612a7e816126e4565b9050612a8d6020830186612865565b612a9a6040830185612865565b612aa760608301846125cb565b949350505050565b60006080820190508181036000830152612ac881612707565b9050612ad76020830186612865565b612ae46040830185612865565b612af160608301846125cb565b949350505050565b60006020820190508181036000830152612b128161272a565b9050919050565b60006020820190508181036000830152612b328161274d565b9050919050565b60006020820190508181036000830152612b5281612770565b9050919050565b60006020820190508181036000830152612b7281612793565b9050919050565b60006020820190508181036000830152612b92816127b6565b9050919050565b60006020820190508181036000830152612bb2816127fc565b9050919050565b60006020820190508181036000830152612bd281612842565b9050919050565b6000602082019050612bee6000830184612865565b92915050565b6000604082019050612c096000830185612865565b612c166020830184612865565b9392505050565b6000608082019050612c326000830187612865565b612c3f6020830186612865565b612c4c6040830185612865565b612c596060830184612865565b95945050505050565b6000602082019050612c776000830184612874565b92915050565b6000612c87612c98565b9050612c938282612fd2565b919050565b6000604051905090565b600067ffffffffffffffff821115612cbd57612cbc6130ba565b5b602082029050602081019050919050565b600067ffffffffffffffff821115612ce957612ce86130ba565b5b612cf28261310c565b9050602081019050919050565b600081519050919050565b600082825260208201905092915050565b600081905092915050565b6000612d3182612ebc565b9150612d3c83612ebc565b9250827fffffffffffffffffffffffffffffffffffffffffffffffffffffffffffffffff03821115612d7157612d7061302d565b5b828201905092915050565b6000612d8782612ebc565b9150612d9283612ebc565b925082612da257612da161305c565b5b828204905092915050565b6000612db882612ebc565b9150612dc383612ebc565b9250817fffffffffffffffffffffffffffffffffffffffffffffffffffffffffffffffff0483118215151615612dfc57612dfb61302d565b5b828202905092915050565b6000612e1282612ebc565b9150612e1d83612ebc565b925082821015612e3057612e2f61302d565b5b828203905092915050565b6000612e4682612e9c565b9050919050565b60008115159050919050565b6000819050919050565b60007fffffffff0000000000000000000000000000000000000000000000000000000082169050919050565b60008160000b9050919050565b600073ffffffffffffffffffffffffffffffffffffffff82169050919050565b6000819050919050565b600060ff82169050919050565b6000612ede82612ee5565b9050919050565b6000612ef082612e9c565b9050919050565b6000612f0282612f09565b9050919050565b6000612f1482612e9c565b9050919050565b6000612f2682612f2d565b9050919050565b6000612f3882612e9c565b9050919050565b6000612f4a82612f51565b9050919050565b6000612f5c82612e9c565b9050919050565b6000612f6e82612ec6565b9050919050565b60005b83811015612f93578082015181840152602081019050612f78565b83811115612fa2576000848401525b50505050565b6000612fb382612ebc565b91506000821415612fc757612fc661302d565b5b600182039050919050565b612fdb8261310c565b810181811067ffffffffffffffff82111715612ffa57612ff96130ba565b5b80604052505050565b600061300e82612ec6565b915060ff8214156130225761302161302d565b5b600182019050919050565b7f4e487b7100000000000000000000000000000000000000000000000000000000600052601160045260246000fd5b7f4e487b7100000000000000000000000000000000000000000000000000000000600052601260045260246000fd5b7f4e487b7100000000000000000000000000000000000000000000000000000000600052603260045260246000fd5b7f4e487b7100000000000000000000000000000000000000000000000000000000600052604160045260246000fd5b600080fd5b600080fd5b600080fd5b600080fd5b600080fd5b600080fd5b600080fd5b6000601f19601f8301169050919050565b7f537472696e67733a20686578206c656e67746820696e73756666696369656e74600082015250565b7f4e6f7420656e6f75676820746f6b656e7320746f206275790000000000000000600082015250565b7f72656465656d0000000000000000000000000000000000000000000000000000600082015250565b7f6275790000000000000000000000000000000000000000000000000000000000600082015250565b7f4f6e6c79205553444320746f6b656e732063757272656e746c7920617661696c60008201527f61626c6520666f722072656465656d0000000000000000000000000000000000602082015250565b7f5265737472696374656420746f2061646d696e73000000000000000000000000600082015250565b7f4e6f7420656e6f75676820666f72207472616e7366657220756e7374616b656460008201527f416d6f756e740000000000000000000000000000000000000000000000000000602082015250565b7f4f6e6c79205553444320746f6b656e732063757272656e746c7920617661696c60008201527f61626c6520666f72206275790000000000000000000000000000000000000000602082015250565b7f5a65726f2061646472657373206e6f7420616c6c6f7765640000000000000000600082015250565b7f416363657373436f6e74726f6c3a206163636f756e7420000000000000000000600082015250565b7f5a65726f2064656e6f6d696e61746f72206e6f7420616c6c6f77656400000000600082015250565b7f206973206d697373696e6720726f6c6520000000000000000000000000000000600082015250565b7f416363657373436f6e74726f6c3a2063616e206f6e6c792072656e6f756e636560008201527f20726f6c657320666f722073656c660000000000000000000000000000000000602082015250565b6133d381612e3b565b81146133de57600080fd5b50565b6133ea81612e4d565b81146133f557600080fd5b50565b61340181612e59565b811461340c57600080fd5b50565b61341881612e63565b811461342357600080fd5b50565b61342f81612e8f565b811461343a57600080fd5b50565b61344681612ebc565b811461345157600080fd5b5056fea264697066735822122036fc72ef3230629b6253416f56d22eefdab562e2544b27105413ca781e487dc564736f6c63430008060033",
  "immutableReferences": {},
  "source": "// SPDX-License-Identifier: MIT\npragma solidity >=0.8.0 <0.9.0;\n\nimport \"@openzeppelin/contracts/token/ERC20/IERC20.sol\";\nimport \"@openzeppelin/contracts/access/AccessControl.sol\";\nimport \"./interfaces/IERC20MintableBurnable.sol\";\nimport \"./interfaces/IConnector.sol\";\nimport \"./OvernightToken.sol\";\nimport \"./interfaces/IPortfolioManager.sol\";\nimport \"./PortfolioManager.sol\";\nimport \"./interfaces/IMark2Market.sol\";\n\ncontract Exchange is AccessControl {\n    OvernightToken public ovn;\n    IERC20 public usdc;\n    PortfolioManager public pm; //portfolio manager contract\n    IMark2Market public m2m;\n\n    uint256 public buyFee = 40;\n    uint256 public buyFeeDenominator = 100000; // ~ 100 %\n\n    uint256 public redeemFee = 40;\n    uint256 public redeemFeeDenominator = 100000; // ~ 100 %\n\n    event EventExchange(string label, uint256 amount, uint256 fee, address sender);\n    event RewardEvent(\n        uint256 totalOvn,\n        uint256 totalUsdc,\n        uint256 totallyAmountRewarded,\n        uint256 totallySaved\n    );\n    event NoEnoughForRewardEvent(uint256 totalOvn, uint256 totalUsdc);\n    event UpdatedBuyFee(uint256 fee, uint256 feeDenominator);\n    event UpdatedRedeemFee(uint256 fee, uint256 feeDenominator);\n    event PaidBuyFee(uint256 amount, uint256 feeAmount);\n    event PaidRedeemFee(uint256 amount, uint256 feeAmount);\n\n    modifier onlyAdmin() {\n        require(hasRole(DEFAULT_ADMIN_ROLE, msg.sender), \"Restricted to admins\");\n        _;\n    }\n\n    constructor() {\n        _setupRole(DEFAULT_ADMIN_ROLE, msg.sender);\n    }\n\n    function setTokens(address _ovn, address _usdc) external onlyAdmin {\n        require(_ovn != address(0), \"Zero address not allowed\");\n        require(_usdc != address(0), \"Zero address not allowed\");\n        ovn = OvernightToken(_ovn);\n        usdc = IERC20(_usdc);\n    }\n\n    function setAddr(address _addrPM, address _addrM2M) external onlyAdmin {\n        require(_addrPM != address(0), \"Zero address not allowed\");\n        require(_addrM2M != address(0), \"Zero address not allowed\");\n        pm = PortfolioManager(_addrPM);\n        m2m = IMark2Market(_addrM2M);\n    }\n\n    function setBuyFee(uint256 _fee, uint256 _feeDenominator) external onlyAdmin {\n        require(_feeDenominator != 0, \"Zero denominator not allowed\");\n        buyFee = _fee;\n        buyFeeDenominator = _feeDenominator;\n        emit UpdatedBuyFee(buyFee, buyFeeDenominator);\n    }\n\n    function setRedeemFee(uint256 _fee, uint256 _feeDenominator) external onlyAdmin {\n        require(_feeDenominator != 0, \"Zero denominator not allowed\");\n        redeemFee = _fee;\n        redeemFeeDenominator = _feeDenominator;\n        emit UpdatedBuyFee(redeemFee, redeemFeeDenominator);\n    }\n\n    function balance() public view returns (uint256) {\n        return ovn.balanceOf(msg.sender);\n    }\n\n    function buy(address _addrTok, uint256 _amount) external {\n        require(_addrTok == address(usdc), \"Only USDC tokens currently available for buy\");\n\n        uint256 balance = IERC20(_addrTok).balanceOf(msg.sender);\n        require(balance >= _amount, \"Not enough tokens to buy\");\n\n        IERC20(_addrTok).transferFrom(msg.sender, address(this), _amount);\n\n        uint256 buyFeeAmount = (_amount * buyFee) / buyFeeDenominator;\n        uint256 buyAmount = _amount - buyFeeAmount;\n        emit PaidBuyFee(buyAmount, buyFeeAmount);\n\n        emit EventExchange(\"buy\", buyAmount, buyFeeAmount, msg.sender);\n\n    ovn.mint(msg.sender, buyAmount);\n\n        IERC20(_addrTok).transfer(address(pm), _amount);\n        pm.invest(IERC20(_addrTok), _amount);\n    }\n\n    event ErrorLogging(string reason);\n\n    function redeem(address _addrTok, uint256 _amount) external {\n        require(_addrTok == address(usdc), \"Only USDC tokens currently available for redeem\");\n\n        uint256 redeemFeeAmount = (_amount * redeemFee) / redeemFeeDenominator;\n        uint256 redeemAmount = _amount - redeemFeeAmount;\n        emit PaidRedeemFee(redeemAmount, redeemFeeAmount);\n\n        emit EventExchange(\"redeem\", redeemAmount, redeemFeeAmount, msg.sender);\n\n        //TODO: Real unstacke amount may be different to _amount\n\n        // try PM.withdraw(IERC20(_addrTok), _amount) returns (uint256 unstakedAmount) {\n\n        //     // Or just burn from sender\n        //     ovn.burn(msg.sender, _amount);\n\n        //     // TODO: correct amount by rates or oracles\n        //     // TODO: check threshhold limits to withdraw deposite\n        //     IERC20(_addrTok).transfer(msg.sender, unstakedAmount);\n\n        // } catch Error(string memory reason) {\n        //     // This may occur if there is an overflow with the two numbers and the `AddNumbers` contract explicitly fails with a `revert()`\n        //     emit ErrorLogging(reason);\n        // } catch {\n        //     emit ErrorLogging(\"No reason\");\n        //     // revert (string(buf.buf));\n        // }\n\n        uint256 unstakedAmount = pm.withdraw(IERC20(_addrTok), redeemAmount);\n\n        // Or just burn from sender\n        ovn.burn(msg.sender, _amount);\n\n        // TODO: correct amount by rates or oracles\n        // TODO: check threshhold limits to withdraw deposite\n        require(\n            IERC20(_addrTok).balanceOf(address(this)) >= unstakedAmount,\n            \"Not enough for transfer unstakedAmount\"\n        );\n        IERC20(_addrTok).transfer(msg.sender, unstakedAmount);\n    }\n\n    function reward() external onlyAdmin {\n        // 0. call claiming reward and rebalancing on PM TODO: may be need move to another place\n        // 1. get current amount of OVN\n        // 2. get total sum of USDC we can get from any source\n        // 3. calc difference between total count of OVN and USDC\n        // 4. go through all OVN owners and mint to their addresses proportionally OVN\n\n        pm.claimRewards();\n        pm.balanceOnReward();\n\n        uint256 totalOvnSupply = ovn.totalSupply();\n        IMark2Market.TotalAssetPrices memory assetPrices = m2m.assetPricesForBalance();\n        uint256 totalUsdc = assetPrices.totalUsdcPrice;\n        // denormilize from 10**18 to 10**6 as OVN decimals\n        totalUsdc = totalUsdc / 10**12;\n        if (totalUsdc <= totalOvnSupply) {\n            emit NoEnoughForRewardEvent(totalOvnSupply, totalUsdc);\n            return;\n        }\n        uint difference = totalUsdc - totalOvnSupply;\n\n        uint totallyAmountRewarded = 0;\n        for (uint8 i = 0; i < ovn.ownerLength(); i++) {\n            address ovnOwnerAddress = ovn.ownerAt(i);\n            uint ovnBalance = ovn.balanceOf(ovnOwnerAddress);\n            uint additionalMintAmount = (ovnBalance * difference) / totalOvnSupply;\n            if (additionalMintAmount > 0) {\n                ovn.mint(ovnOwnerAddress, additionalMintAmount);\n                totallyAmountRewarded += additionalMintAmount;\n            }\n        }\n        //TODO: what to do with saved usdc? Do we need to mint it to PM\n\n        emit RewardEvent(\n            totalOvnSupply,\n            totalUsdc,\n            totallyAmountRewarded,\n            difference - totallyAmountRewarded\n        );\n    }\n\n    function uint2str(uint _i) internal pure returns (string memory _uintAsString) {\n        if (_i == 0) {\n            return \"0\";\n        }\n        uint j = _i;\n        uint len;\n        while (j != 0) {\n            len++;\n            j /= 10;\n        }\n        bytes memory bstr = new bytes(len);\n        uint k = len;\n        while (_i != 0) {\n            k = k - 1;\n            bstr[k] = bytes1(uint8(48 + (_i % 10)));\n            _i /= 10;\n        }\n        return string(bstr);\n    }\n}\n",
  "sourcePath": "/home/vorh/IdeaProjects/Projects-Work/overnight/ovngt-mvp/contracts/Exchange.sol",
  "compiler": {
    "name": "solc",
    "version": "0.8.6+commit.11564f7e.Emscripten.clang"
  },
  "schemaVersion": "3.4.1",
  "updatedAt": "2021-11-02T19:18:15.441Z",
  "networkType": "ethereum",
  "devdoc": {
    "kind": "dev",
    "methods": {
      "getRoleAdmin(bytes32)": {
        "details": "Returns the admin role that controls `role`. See {grantRole} and {revokeRole}. To change a role's admin, use {_setRoleAdmin}."
      },
      "grantRole(bytes32,address)": {
        "details": "Grants `role` to `account`. If `account` had not been already granted `role`, emits a {RoleGranted} event. Requirements: - the caller must have ``role``'s admin role."
      },
      "hasRole(bytes32,address)": {
        "details": "Returns `true` if `account` has been granted `role`."
      },
      "renounceRole(bytes32,address)": {
        "details": "Revokes `role` from the calling account. Roles are often managed via {grantRole} and {revokeRole}: this function's purpose is to provide a mechanism for accounts to lose their privileges if they are compromised (such as when a trusted device is misplaced). If the calling account had been granted `role`, emits a {RoleRevoked} event. Requirements: - the caller must be `account`."
      },
      "revokeRole(bytes32,address)": {
        "details": "Revokes `role` from `account`. If `account` had been granted `role`, emits a {RoleRevoked} event. Requirements: - the caller must have ``role``'s admin role."
      },
      "supportsInterface(bytes4)": {
        "details": "See {IERC165-supportsInterface}."
      }
    },
    "version": 1
  },
  "userdoc": {
    "kind": "user",
    "methods": {},
    "version": 1
  }
}