{
  "contractName": "InvestmentPortfolio",
  "abi": [
    {
      "inputs": [],
      "stateMutability": "nonpayable",
      "type": "constructor"
    },
    {
      "anonymous": false,
      "inputs": [
        {
          "indexed": false,
          "internalType": "string",
          "name": "str",
          "type": "string"
        }
      ],
      "name": "ConsoleLog",
      "type": "event"
    },
    {
      "anonymous": false,
      "inputs": [
        {
          "indexed": true,
          "internalType": "bytes32",
          "name": "role",
          "type": "bytes32"
        },
        {
          "indexed": true,
          "internalType": "bytes32",
          "name": "previousAdminRole",
          "type": "bytes32"
        },
        {
          "indexed": true,
          "internalType": "bytes32",
          "name": "newAdminRole",
          "type": "bytes32"
        }
      ],
      "name": "RoleAdminChanged",
      "type": "event"
    },
    {
      "anonymous": false,
      "inputs": [
        {
          "indexed": true,
          "internalType": "bytes32",
          "name": "role",
          "type": "bytes32"
        },
        {
          "indexed": true,
          "internalType": "address",
          "name": "account",
          "type": "address"
        },
        {
          "indexed": true,
          "internalType": "address",
          "name": "sender",
          "type": "address"
        }
      ],
      "name": "RoleGranted",
      "type": "event"
    },
    {
      "anonymous": false,
      "inputs": [
        {
          "indexed": true,
          "internalType": "bytes32",
          "name": "role",
          "type": "bytes32"
        },
        {
          "indexed": true,
          "internalType": "address",
          "name": "account",
          "type": "address"
        },
        {
          "indexed": true,
          "internalType": "address",
          "name": "sender",
          "type": "address"
        }
      ],
      "name": "RoleRevoked",
      "type": "event"
    },
    {
      "inputs": [],
      "name": "DEFAULT_ADMIN_ROLE",
      "outputs": [
        {
          "internalType": "bytes32",
          "name": "",
          "type": "bytes32"
        }
      ],
      "stateMutability": "view",
      "type": "function",
      "constant": true
    },
    {
      "inputs": [],
      "name": "TOTAL_WEIGHT",
      "outputs": [
        {
          "internalType": "uint256",
          "name": "",
          "type": "uint256"
        }
      ],
      "stateMutability": "view",
      "type": "function",
      "constant": true
    },
    {
      "inputs": [
        {
          "internalType": "uint256",
          "name": "",
          "type": "uint256"
        }
      ],
      "name": "assetWeights",
      "outputs": [
        {
          "internalType": "address",
          "name": "asset",
          "type": "address"
        },
        {
          "internalType": "uint256",
          "name": "minWeight",
          "type": "uint256"
        },
        {
          "internalType": "uint256",
          "name": "targetWeight",
          "type": "uint256"
        },
        {
          "internalType": "uint256",
          "name": "maxWeight",
          "type": "uint256"
        }
      ],
      "stateMutability": "view",
      "type": "function",
      "constant": true
    },
    {
      "inputs": [
        {
          "internalType": "bytes32",
          "name": "role",
          "type": "bytes32"
        }
      ],
      "name": "getRoleAdmin",
      "outputs": [
        {
          "internalType": "bytes32",
          "name": "",
          "type": "bytes32"
        }
      ],
      "stateMutability": "view",
      "type": "function",
      "constant": true
    },
    {
      "inputs": [
        {
          "internalType": "bytes32",
          "name": "role",
          "type": "bytes32"
        },
        {
          "internalType": "address",
          "name": "account",
          "type": "address"
        }
      ],
      "name": "grantRole",
      "outputs": [],
      "stateMutability": "nonpayable",
      "type": "function"
    },
    {
      "inputs": [
        {
          "internalType": "bytes32",
          "name": "role",
          "type": "bytes32"
        },
        {
          "internalType": "address",
          "name": "account",
          "type": "address"
        }
      ],
      "name": "hasRole",
      "outputs": [
        {
          "internalType": "bool",
          "name": "",
          "type": "bool"
        }
      ],
      "stateMutability": "view",
      "type": "function",
      "constant": true
    },
    {
      "inputs": [
        {
          "internalType": "bytes32",
          "name": "role",
          "type": "bytes32"
        },
        {
          "internalType": "address",
          "name": "account",
          "type": "address"
        }
      ],
      "name": "renounceRole",
      "outputs": [],
      "stateMutability": "nonpayable",
      "type": "function"
    },
    {
      "inputs": [
        {
          "internalType": "bytes32",
          "name": "role",
          "type": "bytes32"
        },
        {
          "internalType": "address",
          "name": "account",
          "type": "address"
        }
      ],
      "name": "revokeRole",
      "outputs": [],
      "stateMutability": "nonpayable",
      "type": "function"
    },
    {
      "inputs": [
        {
          "internalType": "bytes4",
          "name": "interfaceId",
          "type": "bytes4"
        }
      ],
      "name": "supportsInterface",
      "outputs": [
        {
          "internalType": "bool",
          "name": "",
          "type": "bool"
        }
      ],
      "stateMutability": "view",
      "type": "function",
      "constant": true
    },
    {
      "inputs": [
        {
          "components": [
            {
              "internalType": "address",
              "name": "asset",
              "type": "address"
            },
            {
              "internalType": "address",
              "name": "priceGetter",
              "type": "address"
            }
          ],
          "internalType": "struct InvestmentPortfolio.AssetInfo[]",
          "name": "_assetInfos",
          "type": "tuple[]"
        }
      ],
      "name": "setAssetInfos",
      "outputs": [],
      "stateMutability": "nonpayable",
      "type": "function"
    },
    {
      "inputs": [
        {
          "components": [
            {
              "internalType": "address",
              "name": "asset",
              "type": "address"
            },
            {
              "internalType": "address",
              "name": "priceGetter",
              "type": "address"
            }
          ],
          "internalType": "struct InvestmentPortfolio.AssetInfo",
          "name": "assetInfo",
          "type": "tuple"
        },
        {
          "internalType": "uint256",
          "name": "index",
          "type": "uint256"
        }
      ],
      "name": "addAssetInfoAt",
      "outputs": [],
      "stateMutability": "nonpayable",
      "type": "function"
    },
    {
      "inputs": [
        {
          "components": [
            {
              "internalType": "address",
              "name": "asset",
              "type": "address"
            },
            {
              "internalType": "uint256",
              "name": "minWeight",
              "type": "uint256"
            },
            {
              "internalType": "uint256",
              "name": "targetWeight",
              "type": "uint256"
            },
            {
              "internalType": "uint256",
              "name": "maxWeight",
              "type": "uint256"
            }
          ],
          "internalType": "struct InvestmentPortfolio.AssetWeight[]",
          "name": "_assetWeights",
          "type": "tuple[]"
        }
      ],
      "name": "setWeights",
      "outputs": [],
      "stateMutability": "nonpayable",
      "type": "function"
    },
    {
      "inputs": [],
      "name": "getAllAssets",
      "outputs": [
        {
          "components": [
            {
              "internalType": "address",
              "name": "asset",
              "type": "address"
            },
            {
              "internalType": "address",
              "name": "priceGetter",
              "type": "address"
            }
          ],
          "internalType": "struct InvestmentPortfolio.AssetInfo[]",
          "name": "",
          "type": "tuple[]"
        }
      ],
      "stateMutability": "view",
      "type": "function",
      "constant": true
    },
    {
      "inputs": [
        {
          "internalType": "address",
          "name": "asset",
          "type": "address"
        }
      ],
      "name": "getAssetInfo",
      "outputs": [
        {
          "components": [
            {
              "internalType": "address",
              "name": "asset",
              "type": "address"
            },
            {
              "internalType": "address",
              "name": "priceGetter",
              "type": "address"
            }
          ],
          "internalType": "struct InvestmentPortfolio.AssetInfo",
          "name": "",
          "type": "tuple"
        }
      ],
      "stateMutability": "view",
      "type": "function",
      "constant": true
    },
    {
      "inputs": [
        {
          "internalType": "address",
          "name": "asset",
          "type": "address"
        }
      ],
      "name": "getAssetWeight",
      "outputs": [
        {
          "components": [
            {
              "internalType": "address",
              "name": "asset",
              "type": "address"
            },
            {
              "internalType": "uint256",
              "name": "minWeight",
              "type": "uint256"
            },
            {
              "internalType": "uint256",
              "name": "targetWeight",
              "type": "uint256"
            },
            {
              "internalType": "uint256",
              "name": "maxWeight",
              "type": "uint256"
            }
          ],
          "internalType": "struct InvestmentPortfolio.AssetWeight",
          "name": "",
          "type": "tuple"
        }
      ],
      "stateMutability": "view",
      "type": "function",
      "constant": true
    },
    {
      "inputs": [],
      "name": "getAllAssetWeights",
      "outputs": [
        {
          "components": [
            {
              "internalType": "address",
              "name": "asset",
              "type": "address"
            },
            {
              "internalType": "uint256",
              "name": "minWeight",
              "type": "uint256"
            },
            {
              "internalType": "uint256",
              "name": "targetWeight",
              "type": "uint256"
            },
            {
              "internalType": "uint256",
              "name": "maxWeight",
              "type": "uint256"
            }
          ],
          "internalType": "struct InvestmentPortfolio.AssetWeight[]",
          "name": "",
          "type": "tuple[]"
        }
      ],
      "stateMutability": "nonpayable",
      "type": "function"
    }
  ],
  "bytecode": "0x60806040523480156200001157600080fd5b50620000276000801b336200002d60201b60201c565b620001a6565b6200003f82826200004360201b60201c565b5050565b6200005582826200013460201b60201c565b6200013057600160008084815260200190815260200160002060000160008373ffffffffffffffffffffffffffffffffffffffff1673ffffffffffffffffffffffffffffffffffffffff16815260200190815260200160002060006101000a81548160ff021916908315150217905550620000d56200019e60201b60201c565b73ffffffffffffffffffffffffffffffffffffffff168173ffffffffffffffffffffffffffffffffffffffff16837f2f8788117e7eff1d82e926ec794901d17c78024a50270940304540a733656f0d60405160405180910390a45b5050565b600080600084815260200190815260200160002060000160008373ffffffffffffffffffffffffffffffffffffffff1673ffffffffffffffffffffffffffffffffffffffff16815260200190815260200160002060009054906101000a900460ff16905092915050565b600033905090565b612ca280620001b66000396000f3fe608060405234801561001057600080fd5b50600436106101005760003560e01c8063504056c711610097578063a217fddf11610066578063a217fddf146102c0578063afad2e16146102de578063d547741f1461030e578063ed2a2f9d1461032a57610100565b8063504056c71461023c57806391d14854146102585780639d814e9c146102885780639ec2cdbc146102a457610100565b806336568abe116100d357806336568abe1461019f5780633a7e9db0146101bb5780633ff94f04146101eb57806344a778d61461020957610100565b806301ffc9a714610105578063248a9ca3146101355780632acada4d146101655780632f2ff15d14610183575b600080fd5b61011f600480360381019061011a9190611bf8565b610348565b60405161012c9190612244565b60405180910390f35b61014f600480360381019061014a9190611b8b565b6103c2565b60405161015c919061225f565b60405180910390f35b61016d6103e1565b60405161017a9190612200565b60405180910390f35b61019d60048036038101906101989190611bb8565b6104ec565b005b6101b960048036038101906101b49190611bb8565b610515565b005b6101d560048036038101906101d09190611ac4565b610598565b6040516101e29190612397565b60405180910390f35b6101f3610687565b6040516102009190612222565b60405180910390f35b610223600480360381019061021e9190611c92565b6107bd565b60405161023394939291906121bb565b60405180910390f35b61025660048036038101906102519190611b3e565b61081d565b005b610272600480360381019061026d9190611bb8565b610c87565b60405161027f9190612244565b60405180910390f35b6102a2600480360381019061029d9190611af1565b610cf1565b005b6102be60048036038101906102b99190611c25565b610e53565b005b6102c8610ead565b6040516102d5919061225f565b60405180910390f35b6102f860048036038101906102f39190611ac4565b610eb4565b604051610305919061237c565b60405180910390f35b61032860048036038101906103239190611bb8565b610fdb565b005b610332611004565b60405161033f91906123b2565b60405180910390f35b60007f7965db0b000000000000000000000000000000000000000000000000000000007bffffffffffffffffffffffffffffffffffffffffffffffffffffffff1916827bffffffffffffffffffffffffffffffffffffffffffffffffffffffff191614806103bb57506103ba8261100b565b5b9050919050565b6000806000838152602001908152602001600020600101549050919050565b60606002805480602002602001604051908101604052809291908181526020016000905b828210156104e357838290600052602060002090600202016040518060400160405290816000820160009054906101000a900473ffffffffffffffffffffffffffffffffffffffff1673ffffffffffffffffffffffffffffffffffffffff1673ffffffffffffffffffffffffffffffffffffffff1681526020016001820160009054906101000a900473ffffffffffffffffffffffffffffffffffffffff1673ffffffffffffffffffffffffffffffffffffffff1673ffffffffffffffffffffffffffffffffffffffff168152505081526020019060010190610405565b50505050905090565b6104f5826103c2565b61050681610501611075565b61107d565b610510838361111a565b505050565b61051d611075565b73ffffffffffffffffffffffffffffffffffffffff168173ffffffffffffffffffffffffffffffffffffffff161461058a576040517f08c379a00000000000000000000000000000000000000000000000000000000081526004016105819061235c565b60405180910390fd5b61059482826111fa565b5050565b6105a06118a9565b6004600360008473ffffffffffffffffffffffffffffffffffffffff1673ffffffffffffffffffffffffffffffffffffffff16815260200190815260200160002054815481106105f3576105f2612866565b5b90600052602060002090600402016040518060800160405290816000820160009054906101000a900473ffffffffffffffffffffffffffffffffffffffff1673ffffffffffffffffffffffffffffffffffffffff1673ffffffffffffffffffffffffffffffffffffffff16815260200160018201548152602001600282015481526020016003820154815250509050919050565b60607f0f8db0708c4e6b233e2c285fe1ed66015dee71bd374ac8e835534be5f592d6a26106b86004805490506112db565b6040516020016106c8919061213d565b6040516020818303038152906040526040516106e4919061227a565b60405180910390a16004805480602002602001604051908101604052809291908181526020016000905b828210156107b457838290600052602060002090600402016040518060800160405290816000820160009054906101000a900473ffffffffffffffffffffffffffffffffffffffff1673ffffffffffffffffffffffffffffffffffffffff1673ffffffffffffffffffffffffffffffffffffffff16815260200160018201548152602001600282015481526020016003820154815250508152602001906001019061070e565b50505050905090565b600481815481106107cd57600080fd5b90600052602060002090600402016000915090508060000160009054906101000a900473ffffffffffffffffffffffffffffffffffffffff16908060010154908060020154908060030154905084565b61082a6000801b33610c87565b610869576040517f08c379a00000000000000000000000000000000000000000000000000000000081526004016108609061231c565b60405180910390fd5b7f0f8db0708c4e6b233e2c285fe1ed66015dee71bd374ac8e835534be5f592d6a2610896838390506112db565b6040516020016108a69190612199565b6040516020818303038152906040526040516108c2919061227a565b60405180910390a16000805b838390508160ff161015610a3c57600084848360ff168181106108f4576108f3612866565b5b90506080020180360381019061090a9190611c65565b9050600073ffffffffffffffffffffffffffffffffffffffff16816000015173ffffffffffffffffffffffffffffffffffffffff161415610980576040517f08c379a0000000000000000000000000000000000000000000000000000000008152600401610977906122bc565b60405180910390fd5b8060400151816020015111156109cb576040517f08c379a00000000000000000000000000000000000000000000000000000000081526004016109c2906122fc565b60405180910390fd5b806060015181604001511115610a16576040517f08c379a0000000000000000000000000000000000000000000000000000000008152600401610a0d9061233c565b60405180910390fd5b806040015183610a26919061248b565b9250508080610a349061277e565b9150506108ce565b50620186a08114610a82576040517f08c379a0000000000000000000000000000000000000000000000000000000008152600401610a79906122dc565b60405180910390fd5b7f0f8db0708c4e6b233e2c285fe1ed66015dee71bd374ac8e835534be5f592d6a2610aac826112db565b604051602001610abc919061211b565b604051602081830303815290604052604051610ad8919061227a565b60405180910390a160005b838390508160ff161015610bcb57610b2984848360ff16818110610b0a57610b09612866565b5b905060800201803603810190610b209190611c65565b8260ff16611442565b8060ff166003600060048460ff1681548110610b4857610b47612866565b5b906000526020600020906004020160000160009054906101000a900473ffffffffffffffffffffffffffffffffffffffff1673ffffffffffffffffffffffffffffffffffffffff1673ffffffffffffffffffffffffffffffffffffffff168152602001908152602001600020819055508080610bc39061277e565b915050610ae3565b50828290506004805490501115610c8257600083839050600480549050610bf2919061256c565b905060005b818160ff161015610c7f576004805480610c1457610c13612837565b5b6001900381819060005260206000209060040201600080820160006101000a81549073ffffffffffffffffffffffffffffffffffffffff0219169055600182016000905560028201600090556003820160009055505090558080610c779061277e565b915050610bf7565b50505b505050565b600080600084815260200190815260200160002060000160008373ffffffffffffffffffffffffffffffffffffffff1673ffffffffffffffffffffffffffffffffffffffff16815260200190815260200160002060009054906101000a900460ff16905092915050565b610cfe6000801b33610c87565b610d3d576040517f08c379a0000000000000000000000000000000000000000000000000000000008152600401610d349061231c565b60405180910390fd5b60005b828290508160ff161015610d8957610d7683838360ff16818110610d6757610d66612866565b5b9050604002018260ff16611559565b8080610d819061277e565b915050610d40565b50818190506002805490501115610e4f57600082829050600280549050610db0919061256c565b905060005b818160ff161015610e4c576002805480610dd257610dd1612837565b5b6001900381819060005260206000209060020201600080820160006101000a81549073ffffffffffffffffffffffffffffffffffffffff02191690556001820160006101000a81549073ffffffffffffffffffffffffffffffffffffffff0219169055505090558080610e449061277e565b915050610db5565b50505b5050565b610e606000801b33610c87565b610e9f576040517f08c379a0000000000000000000000000000000000000000000000000000000008152600401610e969061231c565b60405180910390fd5b610ea98282611559565b5050565b6000801b81565b610ebc6118e7565b6002600160008473ffffffffffffffffffffffffffffffffffffffff1673ffffffffffffffffffffffffffffffffffffffff1681526020019081526020016000205481548110610f0f57610f0e612866565b5b90600052602060002090600202016040518060400160405290816000820160009054906101000a900473ffffffffffffffffffffffffffffffffffffffff1673ffffffffffffffffffffffffffffffffffffffff1673ffffffffffffffffffffffffffffffffffffffff1681526020016001820160009054906101000a900473ffffffffffffffffffffffffffffffffffffffff1673ffffffffffffffffffffffffffffffffffffffff1673ffffffffffffffffffffffffffffffffffffffff16815250509050919050565b610fe4826103c2565b610ff581610ff0611075565b61107d565b610fff83836111fa565b505050565b620186a081565b60007f01ffc9a7000000000000000000000000000000000000000000000000000000007bffffffffffffffffffffffffffffffffffffffffffffffffffffffff1916827bffffffffffffffffffffffffffffffffffffffffffffffffffffffff1916149050919050565b600033905090565b6110878282610c87565b611116576110ac8173ffffffffffffffffffffffffffffffffffffffff16601461166d565b6110ba8360001c602061166d565b6040516020016110cb92919061215f565b6040516020818303038152906040526040517f08c379a000000000000000000000000000000000000000000000000000000000815260040161110d919061227a565b60405180910390fd5b5050565b6111248282610c87565b6111f657600160008084815260200190815260200160002060000160008373ffffffffffffffffffffffffffffffffffffffff1673ffffffffffffffffffffffffffffffffffffffff16815260200190815260200160002060006101000a81548160ff02191690831515021790555061119b611075565b73ffffffffffffffffffffffffffffffffffffffff168173ffffffffffffffffffffffffffffffffffffffff16837f2f8788117e7eff1d82e926ec794901d17c78024a50270940304540a733656f0d60405160405180910390a45b5050565b6112048282610c87565b156112d757600080600084815260200190815260200160002060000160008373ffffffffffffffffffffffffffffffffffffffff1673ffffffffffffffffffffffffffffffffffffffff16815260200190815260200160002060006101000a81548160ff02191690831515021790555061127c611075565b73ffffffffffffffffffffffffffffffffffffffff168173ffffffffffffffffffffffffffffffffffffffff16837ff6391f5c32d9c69d2a47ea670b442974b53935d1edc7fd64eb21e047a839171b60405160405180910390a45b5050565b60606000821415611323576040518060400160405280600181526020017f3000000000000000000000000000000000000000000000000000000000000000815250905061143d565b600082905060005b6000821461135557808061133e90612735565b915050600a8261134e91906124e1565b915061132b565b60008167ffffffffffffffff81111561137157611370612895565b5b6040519080825280601f01601f1916602001820160405280156113a35781602001600182028036833780820191505090505b50905060008290505b60008614611435576001816113c1919061256c565b9050600a866113d091906127a8565b60306113dc919061248b565b60f81b8282815181106113f2576113f1612866565b5b60200101907effffffffffffffffffffffffffffffffffffffffffffffffffffffffffffff1916908160001a905350600a8661142e91906124e1565b95506113ac565b819450505050505b919050565b600060048054905090506000811480611466575081600182611464919061256c565b105b156114c95760006001828461147b919061256c565b611485919061248b565b905060005b818160ff1610156114c65760046001816001815401808255809150500390600052602060002090505080806114be9061277e565b91505061148a565b50505b82600483815481106114de576114dd612866565b5b906000526020600020906004020160008201518160000160006101000a81548173ffffffffffffffffffffffffffffffffffffffff021916908373ffffffffffffffffffffffffffffffffffffffff160217905550602082015181600101556040820151816002015560608201518160030155905050505050565b60006002805490509050600081148061157d57508160018261157b919061256c565b105b156115e057600060018284611592919061256c565b61159c919061248b565b905060005b818160ff1610156115dd5760026001816001815401808255809150500390600052602060002090505080806115d59061277e565b9150506115a1565b50505b82600283815481106115f5576115f4612866565b5b9060005260206000209060020201818161160f9190612c02565b905050816001600085600001602081019061162a9190611ac4565b73ffffffffffffffffffffffffffffffffffffffff1673ffffffffffffffffffffffffffffffffffffffff16815260200190815260200160002081905550505050565b6060600060028360026116809190612512565b61168a919061248b565b67ffffffffffffffff8111156116a3576116a2612895565b5b6040519080825280601f01601f1916602001820160405280156116d55781602001600182028036833780820191505090505b5090507f30000000000000000000000000000000000000000000000000000000000000008160008151811061170d5761170c612866565b5b60200101907effffffffffffffffffffffffffffffffffffffffffffffffffffffffffffff1916908160001a9053507f78000000000000000000000000000000000000000000000000000000000000008160018151811061177157611770612866565b5b60200101907effffffffffffffffffffffffffffffffffffffffffffffffffffffffffffff1916908160001a905350600060018460026117b19190612512565b6117bb919061248b565b90505b600181111561185b577f3031323334353637383961626364656600000000000000000000000000000000600f8616601081106117fd576117fc612866565b5b1a60f81b82828151811061181457611813612866565b5b60200101907effffffffffffffffffffffffffffffffffffffffffffffffffffffffffffff1916908160001a905350600485901c945080611854906126da565b90506117be565b506000841461189f576040517f08c379a00000000000000000000000000000000000000000000000000000000081526004016118969061229c565b60405180910390fd5b8091505092915050565b6040518060800160405280600073ffffffffffffffffffffffffffffffffffffffff1681526020016000815260200160008152602001600081525090565b6040518060400160405280600073ffffffffffffffffffffffffffffffffffffffff168152602001600073ffffffffffffffffffffffffffffffffffffffff1681525090565b60008135905061193c81612c10565b92915050565b60008083601f840112611958576119576128e9565b5b8235905067ffffffffffffffff811115611975576119746128e4565b5b602083019150836040820283011115611991576119906128f8565b5b9250929050565b60008083601f8401126119ae576119ad6128e9565b5b8235905067ffffffffffffffff8111156119cb576119ca6128e4565b5b6020830191508360808202830111156119e7576119e66128f8565b5b9250929050565b6000813590506119fd81612c27565b92915050565b600081359050611a1281612c3e565b92915050565b600060408284031215611a2e57611a2d6128ee565b5b81905092915050565b600060808284031215611a4d57611a4c6128f3565b5b611a5760806123cd565b90506000611a678482850161192d565b6000830152506020611a7b84828501611aaf565b6020830152506040611a8f84828501611aaf565b6040830152506060611aa384828501611aaf565b60608301525092915050565b600081359050611abe81612c55565b92915050565b600060208284031215611ada57611ad9612902565b5b6000611ae88482850161192d565b91505092915050565b60008060208385031215611b0857611b07612902565b5b600083013567ffffffffffffffff811115611b2657611b256128fd565b5b611b3285828601611942565b92509250509250929050565b60008060208385031215611b5557611b54612902565b5b600083013567ffffffffffffffff811115611b7357611b726128fd565b5b611b7f85828601611998565b92509250509250929050565b600060208284031215611ba157611ba0612902565b5b6000611baf848285016119ee565b91505092915050565b60008060408385031215611bcf57611bce612902565b5b6000611bdd858286016119ee565b9250506020611bee8582860161192d565b9150509250929050565b600060208284031215611c0e57611c0d612902565b5b6000611c1c84828501611a03565b91505092915050565b60008060608385031215611c3c57611c3b612902565b5b6000611c4a85828601611a18565b9250506040611c5b85828601611aaf565b9150509250929050565b600060808284031215611c7b57611c7a612902565b5b6000611c8984828501611a37565b91505092915050565b600060208284031215611ca857611ca7612902565b5b6000611cb684828501611aaf565b91505092915050565b6000611ccb8383611ff5565b60408301905092915050565b6000611ce38383612053565b60808301905092915050565b611cf8816125a0565b82525050565b611d07816125a0565b82525050565b6000611d1882612412565b611d22818561244d565b9350611d2d836123f2565b8060005b83811015611d5e578151611d458882611cbf565b9750611d5083612433565b925050600181019050611d31565b5085935050505092915050565b6000611d768261241d565b611d80818561245e565b9350611d8b83612402565b8060005b83811015611dbc578151611da38882611cd7565b9750611dae83612440565b925050600181019050611d8f565b5085935050505092915050565b611dd2816125b2565b82525050565b611de1816125be565b82525050565b6000611df282612428565b611dfc818561246f565b9350611e0c818560208601612661565b611e1581612907565b840191505092915050565b6000611e2b82612428565b611e358185612480565b9350611e45818560208601612661565b80840191505092915050565b6000611e5e60208361246f565b9150611e6982612925565b602082019050919050565b6000611e8160148361246f565b9150611e8c8261294e565b602082019050919050565b6000611ea460298361246f565b9150611eaf82612977565b604082019050919050565b6000611ec7602c8361246f565b9150611ed2826129c6565b604082019050919050565b6000611eea600d83612480565b9150611ef582612a15565b600d82019050919050565b6000611f0d60148361246f565b9150611f1882612a3e565b602082019050919050565b6000611f30601583612480565b9150611f3b82612a67565b601582019050919050565b6000611f53601783612480565b9150611f5e82612a90565b601782019050919050565b6000611f76601683612480565b9150611f8182612ab9565b601682019050919050565b6000611f99602c8361246f565b9150611fa482612ae2565b604082019050919050565b6000611fbc601183612480565b9150611fc782612b31565b601182019050919050565b6000611fdf602f8361246f565b9150611fea82612b5a565b604082019050919050565b60408201600082015161200b6000850182611cef565b50602082015161201e6020850182611cef565b50505050565b60408201600082015161203a6000850182611cef565b50602082015161204d6020850182611cef565b50505050565b6080820160008201516120696000850182611cef565b50602082015161207c60208501826120fd565b50604082015161208f60408501826120fd565b5060608201516120a260608501826120fd565b50505050565b6080820160008201516120be6000850182611cef565b5060208201516120d160208501826120fd565b5060408201516120e460408501826120fd565b5060608201516120f760608501826120fd565b50505050565b61210681612614565b82525050565b61211581612614565b82525050565b600061212682611edd565b91506121328284611e20565b915081905092915050565b600061214882611f23565b91506121548284611e20565b915081905092915050565b600061216a82611f46565b91506121768285611e20565b915061218182611faf565b915061218d8284611e20565b91508190509392505050565b60006121a482611f69565b91506121b08284611e20565b915081905092915050565b60006080820190506121d06000830187611cfe565b6121dd602083018661210c565b6121ea604083018561210c565b6121f7606083018461210c565b95945050505050565b6000602082019050818103600083015261221a8184611d0d565b905092915050565b6000602082019050818103600083015261223c8184611d6b565b905092915050565b60006020820190506122596000830184611dc9565b92915050565b60006020820190506122746000830184611dd8565b92915050565b600060208201905081810360008301526122948184611de7565b905092915050565b600060208201905081810360008301526122b581611e51565b9050919050565b600060208201905081810360008301526122d581611e74565b9050919050565b600060208201905081810360008301526122f581611e97565b9050919050565b6000602082019050818103600083015261231581611eba565b9050919050565b6000602082019050818103600083015261233581611f00565b9050919050565b6000602082019050818103600083015261235581611f8c565b9050919050565b6000602082019050818103600083015261237581611fd2565b9050919050565b60006040820190506123916000830184612024565b92915050565b60006080820190506123ac60008301846120a8565b92915050565b60006020820190506123c7600083018461210c565b92915050565b60006123d76123e8565b90506123e38282612704565b919050565b6000604051905090565b6000819050602082019050919050565b6000819050602082019050919050565b600081519050919050565b600081519050919050565b600081519050919050565b6000602082019050919050565b6000602082019050919050565b600082825260208201905092915050565b600082825260208201905092915050565b600082825260208201905092915050565b600081905092915050565b600061249682612614565b91506124a183612614565b9250827fffffffffffffffffffffffffffffffffffffffffffffffffffffffffffffffff038211156124d6576124d56127d9565b5b828201905092915050565b60006124ec82612614565b91506124f783612614565b92508261250757612506612808565b5b828204905092915050565b600061251d82612614565b915061252883612614565b9250817fffffffffffffffffffffffffffffffffffffffffffffffffffffffffffffffff0483118215151615612561576125606127d9565b5b828202905092915050565b600061257782612614565b915061258283612614565b925082821015612595576125946127d9565b5b828203905092915050565b60006125ab826125f4565b9050919050565b60008115159050919050565b6000819050919050565b60007fffffffff0000000000000000000000000000000000000000000000000000000082169050919050565b600073ffffffffffffffffffffffffffffffffffffffff82169050919050565b6000819050919050565b600060ff82169050919050565b60006126368261263d565b9050919050565b60006126488261264f565b9050919050565b600061265a826125f4565b9050919050565b60005b8381101561267f578082015181840152602081019050612664565b8381111561268e576000848401525b50505050565b6000810160008301806126a6816128ce565b90506126b28184612bdf565b5050506001810160208301806126c7816128ce565b90506126d38184612bdf565b5050505050565b60006126e582612614565b915060008214156126f9576126f86127d9565b5b600182039050919050565b61270d82612907565b810181811067ffffffffffffffff8211171561272c5761272b612895565b5b80604052505050565b600061274082612614565b91507fffffffffffffffffffffffffffffffffffffffffffffffffffffffffffffffff821415612773576127726127d9565b5b600182019050919050565b60006127898261261e565b915060ff82141561279d5761279c6127d9565b5b600182019050919050565b60006127b382612614565b91506127be83612614565b9250826127ce576127cd612808565b5b828206905092915050565b7f4e487b7100000000000000000000000000000000000000000000000000000000600052601160045260246000fd5b7f4e487b7100000000000000000000000000000000000000000000000000000000600052601260045260246000fd5b7f4e487b7100000000000000000000000000000000000000000000000000000000600052603160045260246000fd5b7f4e487b7100000000000000000000000000000000000000000000000000000000600052603260045260246000fd5b7f4e487b7100000000000000000000000000000000000000000000000000000000600052604160045260246000fd5b6000819050919050565b600081356128db81612c10565b80915050919050565b600080fd5b600080fd5b600080fd5b600080fd5b600080fd5b600080fd5b600080fd5b6000601f19601f8301169050919050565b60008160001b9050919050565b7f537472696e67733a20686578206c656e67746820696e73756666696369656e74600082015250565b7f77656967687420776974686f7574206173736574000000000000000000000000600082015250565b7f546f74616c207461726765742073686f756c6420657175616c20746f20544f5460008201527f414c5f5745494748540000000000000000000000000000000000000000000000602082015250565b7f6d696e5765696768742073686f756c646e277420686967686572207468616e2060008201527f7461726765745765696768740000000000000000000000000000000000000000602082015250565b7f746f74616c5461726765743a2000000000000000000000000000000000000000600082015250565b7f5265737472696374656420746f2061646d696e73000000000000000000000000600082015250565b7f6173736574576569676874732e6c656e6774683a200000000000000000000000600082015250565b7f416363657373436f6e74726f6c3a206163636f756e7420000000000000000000600082015250565b7f5f6173736574576569676874732e6c656e6774683a2000000000000000000000600082015250565b7f7461726765745765696768742073686f756c646e27742068696768657220746860008201527f616e206d61785765696768740000000000000000000000000000000000000000602082015250565b7f206973206d697373696e6720726f6c6520000000000000000000000000000000600082015250565b7f416363657373436f6e74726f6c3a2063616e206f6e6c792072656e6f756e636560008201527f20726f6c657320666f722073656c660000000000000000000000000000000000602082015250565b600073ffffffffffffffffffffffffffffffffffffffff612bc984612918565b9350801983169250808416831791505092915050565b612be88261262b565b612bfb612bf4826128c4565b8354612ba9565b8255505050565b612c0c8282612694565b5050565b612c19816125a0565b8114612c2457600080fd5b50565b612c30816125be565b8114612c3b57600080fd5b50565b612c47816125c8565b8114612c5257600080fd5b50565b612c5e81612614565b8114612c6957600080fd5b5056fea264697066735822122071374701ee0aab1f751895ea80ba2a28e313dc7823f70d0e3cb53769e7f2827a64736f6c63430008060033",
  "immutableReferences": {},
  "source": "// SPDX-License-Identifier: GPL-3.0\r\npragma solidity >=0.8.0 <0.9.0;\r\n\r\nimport \"@openzeppelin/contracts/token/ERC20/IERC20.sol\";\r\nimport \"@openzeppelin/contracts/access/AccessControl.sol\";\r\n\r\ncontract InvestmentPortfolio is AccessControl {\r\n    uint256 public constant TOTAL_WEIGHT = 100000; // 100000 ~ 100%\r\n\r\n    mapping(address => uint256) private assetInfoPositions;\r\n    AssetInfo[] assetInfos;\r\n    mapping(address => uint256) private assetWeightPositions;\r\n    AssetWeight[] public assetWeights;\r\n\r\n    //TODO: remove\r\n    event ConsoleLog(string str);\r\n\r\n    struct AssetWeight {\r\n        address asset;\r\n        uint256 minWeight;\r\n        uint256 targetWeight;\r\n        uint256 maxWeight;\r\n    }\r\n\r\n    struct AssetInfo {\r\n        address asset;\r\n        address priceGetter;\r\n    }\r\n\r\n    modifier onlyAdmin() {\r\n        require(hasRole(DEFAULT_ADMIN_ROLE, msg.sender), \"Restricted to admins\");\r\n        _;\r\n    }\r\n\r\n    constructor() {\r\n        _setupRole(DEFAULT_ADMIN_ROLE, msg.sender);\r\n    }\r\n\r\n    function setAssetInfos(AssetInfo[] calldata _assetInfos) external onlyAdmin {\r\n        for (uint8 i = 0; i < _assetInfos.length; i++) {\r\n            _addAssetInfoAt(_assetInfos[i], i);\r\n        }\r\n        // truncate array if needed\r\n        if (assetInfos.length > _assetInfos.length) {\r\n            uint256 removeCount = assetInfos.length - _assetInfos.length;\r\n            for (uint8 i = 0; i < removeCount; i++) {\r\n                //TODO: do we need remove from mapping?\r\n                assetInfos.pop();\r\n            }\r\n        }\r\n    }\r\n\r\n    function addAssetInfoAt(AssetInfo calldata assetInfo, uint256 index) external onlyAdmin {\r\n        _addAssetInfoAt(assetInfo, index);\r\n    }\r\n\r\n    function _addAssetInfoAt(AssetInfo calldata assetInfo, uint256 index) internal {\r\n        uint256 currentlength = assetInfos.length;\r\n        // expand array id needed\r\n        if (currentlength == 0 || currentlength - 1 < index) {\r\n            uint256 additionalCount = index - currentlength + 1;\r\n            for (uint8 i = 0; i < additionalCount; i++) {\r\n                assetInfos.push();\r\n            }\r\n        }\r\n        assetInfos[index] = assetInfo;\r\n        assetInfoPositions[assetInfo.asset] = index;\r\n    }\r\n\r\n    function setWeights(AssetWeight[] calldata _assetWeights) external onlyAdmin {\r\n        //TODO: remove\r\n        emit ConsoleLog(\r\n            string(abi.encodePacked(\"_assetWeights.length: \", uint2str(_assetWeights.length)))\r\n        );\r\n\r\n        uint256 totalTarget = 0;\r\n        for (uint8 i = 0; i < _assetWeights.length; i++) {\r\n            AssetWeight memory assetWeight = _assetWeights[i];\r\n            require(assetWeight.asset != address(0), \"weight without asset\");\r\n            require(\r\n                assetWeight.minWeight <= assetWeight.targetWeight,\r\n                \"minWeight shouldn't higher than targetWeight\"\r\n            );\r\n            require(\r\n                assetWeight.targetWeight <= assetWeight.maxWeight,\r\n                \"targetWeight shouldn't higher than maxWeight\"\r\n            );\r\n            totalTarget += assetWeight.targetWeight;\r\n        }\r\n        require(totalTarget == TOTAL_WEIGHT, \"Total target should equal to TOTAL_WEIGHT\");\r\n        //TODO: remove\r\n        emit ConsoleLog(string(abi.encodePacked(\"totalTarget: \", uint2str(totalTarget))));\r\n\r\n        for (uint8 i = 0; i < _assetWeights.length; i++) {\r\n            _addWeightAt(_assetWeights[i], i);\r\n            assetWeightPositions[assetWeights[i].asset] = i;\r\n        }\r\n\r\n        // truncate if need\r\n        if (assetWeights.length > _assetWeights.length) {\r\n            uint256 removeCount = assetWeights.length - _assetWeights.length;\r\n            for (uint8 i = 0; i < removeCount; i++) {\r\n                assetWeights.pop();\r\n            }\r\n        }\r\n    }\r\n\r\n    function _addWeightAt(AssetWeight memory assetWeight, uint256 index) internal {\r\n        uint256 currentlength = assetWeights.length;\r\n        // expand if need\r\n        if (currentlength == 0 || currentlength - 1 < index) {\r\n            uint256 additionalCount = index - currentlength + 1;\r\n            for (uint8 i = 0; i < additionalCount; i++) {\r\n                assetWeights.push();\r\n            }\r\n        }\r\n        assetWeights[index] = assetWeight;\r\n    }\r\n\r\n    function getAllAssets() external view returns (AssetInfo[] memory) {\r\n        return assetInfos;\r\n    }\r\n\r\n    function getAssetInfo(address asset) external view returns (AssetInfo memory) {\r\n        return assetInfos[assetInfoPositions[asset]];\r\n    }\r\n\r\n    function getAssetWeight(address asset) external view returns (AssetWeight memory) {\r\n        return assetWeights[assetWeightPositions[asset]];\r\n    }\r\n\r\n    //TODO: add `view` after removing event emitting\r\n    function getAllAssetWeights() external returns (AssetWeight[] memory) {\r\n        //TODO: remove\r\n        emit ConsoleLog(\r\n            string(abi.encodePacked(\"assetWeights.length: \", uint2str(assetWeights.length)))\r\n        );\r\n\r\n        return assetWeights;\r\n    }\r\n\r\n    //TODO: remove\r\n    function uint2str(uint _i) internal pure returns (string memory _uintAsString) {\r\n        if (_i == 0) {\r\n            return \"0\";\r\n        }\r\n        uint j = _i;\r\n        uint len;\r\n        while (j != 0) {\r\n            len++;\r\n            j /= 10;\r\n        }\r\n        bytes memory bstr = new bytes(len);\r\n        uint k = len;\r\n        while (_i != 0) {\r\n            k = k - 1;\r\n            bstr[k] = bytes1(uint8(48 + (_i % 10)));\r\n            _i /= 10;\r\n        }\r\n        return string(bstr);\r\n    }\r\n}\r\n",
  "sourcePath": "C:\\work\\overnight\\ovngt-mvp\\contracts\\registries\\InvestmentPortfolio.sol",
  "compiler": {
    "name": "solc",
    "version": "0.8.6+commit.11564f7e.Emscripten.clang"
  },
  "schemaVersion": "3.4.2",
  "updatedAt": "2021-10-19T06:44:03.065Z",
  "networkType": "ethereum",
  "devdoc": {
    "kind": "dev",
    "methods": {
      "getRoleAdmin(bytes32)": {
        "details": "Returns the admin role that controls `role`. See {grantRole} and {revokeRole}. To change a role's admin, use {_setRoleAdmin}."
      },
      "grantRole(bytes32,address)": {
        "details": "Grants `role` to `account`. If `account` had not been already granted `role`, emits a {RoleGranted} event. Requirements: - the caller must have ``role``'s admin role."
      },
      "hasRole(bytes32,address)": {
        "details": "Returns `true` if `account` has been granted `role`."
      },
      "renounceRole(bytes32,address)": {
        "details": "Revokes `role` from the calling account. Roles are often managed via {grantRole} and {revokeRole}: this function's purpose is to provide a mechanism for accounts to lose their privileges if they are compromised (such as when a trusted device is misplaced). If the calling account had been granted `role`, emits a {RoleRevoked} event. Requirements: - the caller must be `account`."
      },
      "revokeRole(bytes32,address)": {
        "details": "Revokes `role` from `account`. If `account` had been granted `role`, emits a {RoleRevoked} event. Requirements: - the caller must have ``role``'s admin role."
      },
      "supportsInterface(bytes4)": {
        "details": "See {IERC165-supportsInterface}."
      }
    },
    "version": 1
  },
  "userdoc": {
    "kind": "user",
    "methods": {},
    "version": 1
  }
}