{
  "contractName": "WMatic2UsdcTokenExchange",
  "abi": [
    {
      "inputs": [
        {
          "internalType": "address",
          "name": "_swapRouter",
          "type": "address"
        },
        {
          "internalType": "address",
          "name": "_usdcToken",
          "type": "address"
        },
        {
          "internalType": "address",
          "name": "_wMaticToken",
          "type": "address"
        }
      ],
      "stateMutability": "nonpayable",
      "type": "constructor"
    },
    {
      "inputs": [
        {
          "internalType": "address",
          "name": "spender",
          "type": "address"
        },
        {
          "internalType": "contract IERC20",
          "name": "from",
          "type": "address"
        },
        {
          "internalType": "address",
          "name": "receiver",
          "type": "address"
        },
        {
          "internalType": "contract IERC20",
          "name": "to",
          "type": "address"
        },
        {
          "internalType": "uint256",
          "name": "amount",
          "type": "uint256"
        }
      ],
      "name": "exchange",
      "outputs": [],
      "stateMutability": "nonpayable",
      "type": "function"
    }
  ],
  "bytecode": "0x60806040523480156200001157600080fd5b5060405162001a8c38038062001a8c833981810160405281019062000037919062000272565b600073ffffffffffffffffffffffffffffffffffffffff168373ffffffffffffffffffffffffffffffffffffffff161415620000aa576040517f08c379a0000000000000000000000000000000000000000000000000000000008152600401620000a190620002f5565b60405180910390fd5b600073ffffffffffffffffffffffffffffffffffffffff168273ffffffffffffffffffffffffffffffffffffffff1614156200011d576040517f08c379a00000000000000000000000000000000000000000000000000000000081526004016200011490620002f5565b60405180910390fd5b600073ffffffffffffffffffffffffffffffffffffffff168173ffffffffffffffffffffffffffffffffffffffff16141562000190576040517f08c379a00000000000000000000000000000000000000000000000000000000081526004016200018790620002f5565b60405180910390fd5b826000806101000a81548173ffffffffffffffffffffffffffffffffffffffff021916908373ffffffffffffffffffffffffffffffffffffffff16021790555081600160006101000a81548173ffffffffffffffffffffffffffffffffffffffff021916908373ffffffffffffffffffffffffffffffffffffffff16021790555080600260006101000a81548173ffffffffffffffffffffffffffffffffffffffff021916908373ffffffffffffffffffffffffffffffffffffffff160217905550505050620003a4565b6000815190506200026c816200038a565b92915050565b6000806000606084860312156200028e576200028d6200035c565b5b60006200029e868287016200025b565b9350506020620002b1868287016200025b565b9250506040620002c4868287016200025b565b9150509250925092565b6000620002dd60188362000317565b9150620002ea8262000361565b602082019050919050565b600060208201905081810360008301526200031081620002ce565b9050919050565b600082825260208201905092915050565b600062000335826200033c565b9050919050565b600073ffffffffffffffffffffffffffffffffffffffff82169050919050565b600080fd5b7f5a65726f2061646472657373206e6f7420616c6c6f7765640000000000000000600082015250565b620003958162000328565b8114620003a157600080fd5b50565b6116d880620003b46000396000f3fe608060405234801561001057600080fd5b506004361061002b5760003560e01c806362ac753814610030575b600080fd5b61004a60048036038101906100459190610cf5565b61004c565b005b600160009054906101000a900473ffffffffffffffffffffffffffffffffffffffff1673ffffffffffffffffffffffffffffffffffffffff168473ffffffffffffffffffffffffffffffffffffffff161480156100f65750600260009054906101000a900473ffffffffffffffffffffffffffffffffffffffff1673ffffffffffffffffffffffffffffffffffffffff168273ffffffffffffffffffffffffffffffffffffffff16145b806101a75750600260009054906101000a900473ffffffffffffffffffffffffffffffffffffffff1673ffffffffffffffffffffffffffffffffffffffff168473ffffffffffffffffffffffffffffffffffffffff161480156101a65750600160009054906101000a900473ffffffffffffffffffffffffffffffffffffffff1673ffffffffffffffffffffffffffffffffffffffff168273ffffffffffffffffffffffffffffffffffffffff16145b5b6101e6576040517f08c379a00000000000000000000000000000000000000000000000000000000081526004016101dd90610f9f565b60405180910390fd5b600081141561030a578373ffffffffffffffffffffffffffffffffffffffff1663a9059cbb868673ffffffffffffffffffffffffffffffffffffffff166370a08231306040518263ffffffff1660e01b81526004016102459190610f5b565b60206040518083038186803b15801561025d57600080fd5b505afa158015610271573d6000803e3d6000fd5b505050506040513d601f19601f820116820180604052508101906102959190610de6565b6040518363ffffffff1660e01b81526004016102b2929190610f76565b602060405180830381600087803b1580156102cc57600080fd5b505af11580156102e0573d6000803e3d6000fd5b505050506040513d601f19601f820116820180604052508101906103049190610db9565b50610bd2565b600160009054906101000a900473ffffffffffffffffffffffffffffffffffffffff1673ffffffffffffffffffffffffffffffffffffffff168473ffffffffffffffffffffffffffffffffffffffff161480156103b45750600260009054906101000a900473ffffffffffffffffffffffffffffffffffffffff1673ffffffffffffffffffffffffffffffffffffffff168273ffffffffffffffffffffffffffffffffffffffff16145b156103f4576040517f08c379a00000000000000000000000000000000000000000000000000000000081526004016103eb90610fbf565b60405180910390fd5b6000600260009054906101000a900473ffffffffffffffffffffffffffffffffffffffff1673ffffffffffffffffffffffffffffffffffffffff1663313ce5676040518163ffffffff1660e01b815260040160206040518083038186803b15801561045e57600080fd5b505afa158015610472573d6000803e3d6000fd5b505050506040513d601f19601f820116820180604052508101906104969190610e13565b60126104a29190611376565b600a6104ae91906111fe565b905080826104bc919061117a565b915081600260009054906101000a900473ffffffffffffffffffffffffffffffffffffffff1673ffffffffffffffffffffffffffffffffffffffff166370a08231306040518263ffffffff1660e01b815260040161051a9190610f5b565b60206040518083038186803b15801561053257600080fd5b505afa158015610546573d6000803e3d6000fd5b505050506040513d601f19601f8201168201806040525081019061056a9190610de6565b10156105ab576040517f08c379a00000000000000000000000000000000000000000000000000000000081526004016105a290610fdf565b60405180910390fd5b60008214156106d0578473ffffffffffffffffffffffffffffffffffffffff1663a9059cbb878773ffffffffffffffffffffffffffffffffffffffff166370a08231306040518263ffffffff1660e01b815260040161060a9190610f5b565b60206040518083038186803b15801561062257600080fd5b505afa158015610636573d6000803e3d6000fd5b505050506040513d601f19601f8201168201806040525081019061065a9190610de6565b6040518363ffffffff1660e01b8152600401610677929190610f76565b602060405180830381600087803b15801561069157600080fd5b505af11580156106a5573d6000803e3d6000fd5b505050506040513d601f19601f820116820180604052508101906106c99190610db9565b5050610bd2565b6000600267ffffffffffffffff8111156106ed576106ec6114e1565b5b60405190808252806020026020018201604052801561071b5781602001602082028036833780820191505090505b509050600260009054906101000a900473ffffffffffffffffffffffffffffffffffffffff1681600081518110610755576107546114b2565b5b602002602001019073ffffffffffffffffffffffffffffffffffffffff16908173ffffffffffffffffffffffffffffffffffffffff1681525050600160009054906101000a900473ffffffffffffffffffffffffffffffffffffffff16816001815181106107c6576107c56114b2565b5b602002602001019073ffffffffffffffffffffffffffffffffffffffff16908173ffffffffffffffffffffffffffffffffffffffff168152505060008060009054906101000a900473ffffffffffffffffffffffffffffffffffffffff1673ffffffffffffffffffffffffffffffffffffffff1663d06ca61f85846040518363ffffffff1660e01b815260040161085e929190610fff565b60006040518083038186803b15801561087657600080fd5b505afa15801561088a573d6000803e3d6000fd5b505050506040513d6000823e3d601f19601f820116820180604052508101906108b39190610d70565b90506000816000815181106108cb576108ca6114b2565b5b6020026020010151670de0b6b3a7640000836001815181106108f0576108ef6114b2565b5b6020026020010151610902919061131c565b61090c919061117a565b90506003811015610a36578773ffffffffffffffffffffffffffffffffffffffff1663a9059cbb8a8a73ffffffffffffffffffffffffffffffffffffffff166370a08231306040518263ffffffff1660e01b815260040161096d9190610f5b565b60206040518083038186803b15801561098557600080fd5b505afa158015610999573d6000803e3d6000fd5b505050506040513d601f19601f820116820180604052508101906109bd9190610de6565b6040518363ffffffff1660e01b81526004016109da929190610f76565b602060405180830381600087803b1580156109f457600080fd5b505af1158015610a08573d6000803e3d6000fd5b505050506040513d601f19601f82011682018060405250810190610a2c9190610db9565b5050505050610bd2565b600260009054906101000a900473ffffffffffffffffffffffffffffffffffffffff1673ffffffffffffffffffffffffffffffffffffffff1663095ea7b360008054906101000a900473ffffffffffffffffffffffffffffffffffffffff16876040518363ffffffff1660e01b8152600401610ab3929190610f76565b602060405180830381600087803b158015610acd57600080fd5b505af1158015610ae1573d6000803e3d6000fd5b505050506040513d601f19601f82011682018060405250810190610b059190610db9565b5060008054906101000a900473ffffffffffffffffffffffffffffffffffffffff1673ffffffffffffffffffffffffffffffffffffffff166338ed1739866000868b61025842610b559190611124565b6040518663ffffffff1660e01b8152600401610b7595949392919061102f565b600060405180830381600087803b158015610b8f57600080fd5b505af1158015610ba3573d6000803e3d6000fd5b505050506040513d6000823e3d601f19601f82011682018060405250810190610bcc9190610d70565b50505050505b5050505050565b6000610bec610be7846110ae565b611089565b90508083825260208201905082856020860282011115610c0f57610c0e611515565b5b60005b85811015610c3f5781610c258882610ccb565b845260208401935060208301925050600181019050610c12565b5050509392505050565b600081359050610c588161162f565b92915050565b600082601f830112610c7357610c72611510565b5b8151610c83848260208601610bd9565b91505092915050565b600081519050610c9b81611646565b92915050565b600081359050610cb08161165d565b92915050565b600081359050610cc581611674565b92915050565b600081519050610cda81611674565b92915050565b600081519050610cef8161168b565b92915050565b600080600080600060a08688031215610d1157610d1061151f565b5b6000610d1f88828901610c49565b9550506020610d3088828901610ca1565b9450506040610d4188828901610c49565b9350506060610d5288828901610ca1565b9250506080610d6388828901610cb6565b9150509295509295909350565b600060208284031215610d8657610d8561151f565b5b600082015167ffffffffffffffff811115610da457610da361151a565b5b610db084828501610c5e565b91505092915050565b600060208284031215610dcf57610dce61151f565b5b6000610ddd84828501610c8c565b91505092915050565b600060208284031215610dfc57610dfb61151f565b5b6000610e0a84828501610ccb565b91505092915050565b600060208284031215610e2957610e2861151f565b5b6000610e3784828501610ce0565b91505092915050565b6000610e4c8383610e58565b60208301905092915050565b610e61816113aa565b82525050565b610e70816113aa565b82525050565b6000610e81826110ea565b610e8b8185611102565b9350610e96836110da565b8060005b83811015610ec7578151610eae8882610e40565b9750610eb9836110f5565b925050600181019050610e9a565b5085935050505092915050565b610edd81611411565b82525050565b6000610ef0603383611113565b9150610efb82611542565b604082019050919050565b6000610f13603e83611113565b9150610f1e82611591565b604082019050919050565b6000610f36603083611113565b9150610f41826115e0565b604082019050919050565b610f55816113fa565b82525050565b6000602082019050610f706000830184610e67565b92915050565b6000604082019050610f8b6000830185610e67565b610f986020830184610f4c565b9392505050565b60006020820190508181036000830152610fb881610ee3565b9050919050565b60006020820190508181036000830152610fd881610f06565b9050919050565b60006020820190508181036000830152610ff881610f29565b9050919050565b60006040820190506110146000830185610f4c565b81810360208301526110268184610e76565b90509392505050565b600060a0820190506110446000830188610f4c565b6110516020830187610ed4565b81810360408301526110638186610e76565b90506110726060830185610e67565b61107f6080830184610f4c565b9695505050505050565b60006110936110a4565b905061109f8282611423565b919050565b6000604051905090565b600067ffffffffffffffff8211156110c9576110c86114e1565b5b602082029050602081019050919050565b6000819050602082019050919050565b600081519050919050565b6000602082019050919050565b600082825260208201905092915050565b600082825260208201905092915050565b600061112f826113fa565b915061113a836113fa565b9250827fffffffffffffffffffffffffffffffffffffffffffffffffffffffffffffffff0382111561116f5761116e611454565b5b828201905092915050565b6000611185826113fa565b9150611190836113fa565b9250826111a05761119f611483565b5b828204905092915050565b6000808291508390505b60018511156111f5578086048111156111d1576111d0611454565b5b60018516156111e05780820291505b80810290506111ee85611535565b94506111b5565b94509492505050565b6000611209826113fa565b915061121483611404565b92506112417fffffffffffffffffffffffffffffffffffffffffffffffffffffffffffffffff8484611249565b905092915050565b6000826112595760019050611315565b816112675760009050611315565b816001811461127d5760028114611287576112b6565b6001915050611315565b60ff84111561129957611298611454565b5b8360020a9150848211156112b0576112af611454565b5b50611315565b5060208310610133831016604e8410600b84101617156112eb5782820a9050838111156112e6576112e5611454565b5b611315565b6112f884848460016111ab565b9250905081840481111561130f5761130e611454565b5b81810290505b9392505050565b6000611327826113fa565b9150611332836113fa565b9250817fffffffffffffffffffffffffffffffffffffffffffffffffffffffffffffffff048311821515161561136b5761136a611454565b5b828202905092915050565b600061138182611404565b915061138c83611404565b92508282101561139f5761139e611454565b5b828203905092915050565b60006113b5826113da565b9050919050565b60008115159050919050565b60006113d3826113aa565b9050919050565b600073ffffffffffffffffffffffffffffffffffffffff82169050919050565b6000819050919050565b600060ff82169050919050565b600061141c826113fa565b9050919050565b61142c82611524565b810181811067ffffffffffffffff8211171561144b5761144a6114e1565b5b80604052505050565b7f4e487b7100000000000000000000000000000000000000000000000000000000600052601160045260246000fd5b7f4e487b7100000000000000000000000000000000000000000000000000000000600052601260045260246000fd5b7f4e487b7100000000000000000000000000000000000000000000000000000000600052603260045260246000fd5b7f4e487b7100000000000000000000000000000000000000000000000000000000600052604160045260246000fd5b600080fd5b600080fd5b600080fd5b600080fd5b6000601f19601f8301169050919050565b60008160011c9050919050565b7f574d617469633255736463546f6b656e45786368616e67653a20536f6d65207460008201527f6f6b656e206e6f7420636f6d70617469626c6500000000000000000000000000602082015250565b7f574d617469633255736463546f6b656e45786368616e67653a20416c6c6f776560008201527f64206f6e6c792065786368616e676520774d6174696320746f20555344430000602082015250565b7f574d617469633255736463546f6b656e45786368616e67653a204e6f7420656e60008201527f6f75676820774d61746963546f6b656e00000000000000000000000000000000602082015250565b611638816113aa565b811461164357600080fd5b50565b61164f816113bc565b811461165a57600080fd5b50565b611666816113c8565b811461167157600080fd5b50565b61167d816113fa565b811461168857600080fd5b50565b61169481611404565b811461169f57600080fd5b5056fea2646970667358221220e6b9452eb8d9fe8b8da11401c070d81a3619b260217d38301d799d301a4d62fb64736f6c63430008060033",
  "immutableReferences": {},
  "source": "// SPDX-License-Identifier: MIT\r\npragma solidity >=0.8.0 <0.9.0;\r\n\r\nimport \"@openzeppelin/contracts/token/ERC20/IERC20.sol\";\r\nimport \"@openzeppelin/contracts/token/ERC20/extensions/IERC20Metadata.sol\";\r\nimport \"../interfaces/ITokenExchange.sol\";\r\nimport \"../connectors/swaps/interfaces/IUniswapV2Router02.sol\";\r\n\r\ncontract WMatic2UsdcTokenExchange is ITokenExchange {\r\n    IUniswapV2Router02 swapRouter;\r\n    IERC20 usdcToken;\r\n    IERC20 wMaticToken;\r\n\r\n    constructor(\r\n        address _swapRouter,\r\n        address _usdcToken,\r\n        address _wMaticToken\r\n    ) {\r\n        require(_swapRouter != address(0), \"Zero address not allowed\");\r\n        require(_usdcToken != address(0), \"Zero address not allowed\");\r\n        require(_wMaticToken != address(0), \"Zero address not allowed\");\r\n\r\n        swapRouter = IUniswapV2Router02(_swapRouter);\r\n        usdcToken = IERC20(_usdcToken);\r\n        wMaticToken = IERC20(_wMaticToken);\r\n    }\r\n\r\n    function exchange(\r\n        address spender,\r\n        IERC20 from,\r\n        address receiver,\r\n        IERC20 to,\r\n        uint256 amount\r\n    ) external override {\r\n        require(\r\n            (from == usdcToken && to == wMaticToken) || (from == wMaticToken && to == usdcToken),\r\n            \"WMatic2UsdcTokenExchange: Some token not compatible\"\r\n        );\r\n\r\n        if (amount == 0) {\r\n            from.transfer(spender, from.balanceOf(address(this)));\r\n            return;\r\n        }\r\n\r\n        if (from == usdcToken && to == wMaticToken) {\r\n            revert(\"WMatic2UsdcTokenExchange: Allowed only exchange wMatic to USDC\");\r\n        } else {\r\n            //TODO: denominator usage\r\n            uint256 denominator = 10**(18 - IERC20Metadata(address(wMaticToken)).decimals());\r\n            amount = amount / denominator;\r\n\r\n            require(\r\n                wMaticToken.balanceOf(address(this)) >= amount,\r\n                \"WMatic2UsdcTokenExchange: Not enough wMaticToken\"\r\n            );\r\n\r\n            // check after denormilization\r\n            if (amount == 0) {\r\n                from.transfer(spender, from.balanceOf(address(this)));\r\n                return;\r\n            }\r\n\r\n            address[] memory path = new address[](2);\r\n            path[0] = address(wMaticToken);\r\n            path[1] = address(usdcToken);\r\n\r\n            uint[] memory amountsOut = swapRouter.getAmountsOut(amount, path);\r\n            // 6 + 18 - 18 = 6 - not normilized USDC in native 6 decimals\r\n            uint256 estimateUsdcOut = (amountsOut[1] * (10**18)) / amountsOut[0];\r\n            // skip exchange if estimate USDC less than 3 shares to prevent INSUFFICIENT_OUTPUT_AMOUNT error\r\n            // TODO: may be enough 2 or insert check ratio IN/OUT to make decision\r\n            if (estimateUsdcOut < 3) {\r\n                from.transfer(spender, from.balanceOf(address(this)));\r\n                return;\r\n            }\r\n\r\n            wMaticToken.approve(address(swapRouter), amount);\r\n\r\n            // TODO: use some calculation or Oracle call instead of usage '0' as amountOutMin\r\n            swapRouter.swapExactTokensForTokens(\r\n                amount, //    uint amountIn,\r\n                0, //          uint amountOutMin,\r\n                path,\r\n                receiver,\r\n                block.timestamp + 600 // 10 mins\r\n            );\r\n        }\r\n    }\r\n}\r\n",
  "sourcePath": "C:\\work\\overnight\\ovngt-mvp\\contracts\\token_exchanges\\WMatic2UsdcTokenExchange.sol",
  "compiler": {
    "name": "solc",
    "version": "0.8.6+commit.11564f7e.Emscripten.clang"
  },
  "schemaVersion": "3.4.2",
  "updatedAt": "2021-10-18T00:18:03.150Z",
  "devdoc": {
    "kind": "dev",
    "methods": {},
    "version": 1
  },
  "userdoc": {
    "kind": "user",
    "methods": {},
    "version": 1
  }
}