{
  "address": "0xEA4eE8e40109EC34C5eac187919427bcD9645D4E",
  "abi": [
    {
      "inputs": [],
      "stateMutability": "nonpayable",
      "type": "constructor"
    },
    {
      "anonymous": false,
      "inputs": [
        {
          "indexed": false,
          "internalType": "address",
          "name": "previousAdmin",
          "type": "address"
        },
        {
          "indexed": false,
          "internalType": "address",
          "name": "newAdmin",
          "type": "address"
        }
      ],
      "name": "AdminChanged",
      "type": "event"
    },
    {
      "anonymous": false,
      "inputs": [
        {
          "indexed": true,
          "internalType": "address",
          "name": "owner",
          "type": "address"
        },
        {
          "indexed": true,
          "internalType": "address",
          "name": "spender",
          "type": "address"
        },
        {
          "indexed": false,
          "internalType": "uint256",
          "name": "value",
          "type": "uint256"
        }
      ],
      "name": "Approval",
      "type": "event"
    },
    {
      "anonymous": false,
      "inputs": [
        {
          "indexed": true,
          "internalType": "address",
          "name": "beacon",
          "type": "address"
        }
      ],
      "name": "BeaconUpgraded",
      "type": "event"
    },
    {
      "anonymous": false,
      "inputs": [
        {
          "indexed": false,
          "internalType": "address",
          "name": "depositor",
          "type": "address"
        }
      ],
      "name": "DepositorUpdated",
      "type": "event"
    },
    {
      "anonymous": false,
      "inputs": [
        {
          "indexed": false,
          "internalType": "address",
          "name": "exchange",
          "type": "address"
        }
      ],
      "name": "ExchangerUpdated",
      "type": "event"
    },
    {
      "anonymous": false,
      "inputs": [
        {
          "indexed": false,
          "internalType": "uint8",
          "name": "version",
          "type": "uint8"
        }
      ],
      "name": "Initialized",
      "type": "event"
    },
    {
      "anonymous": false,
      "inputs": [
        {
          "indexed": false,
          "internalType": "address",
          "name": "account",
          "type": "address"
        }
      ],
      "name": "Paused",
      "type": "event"
    },
    {
      "anonymous": false,
      "inputs": [
        {
          "indexed": true,
          "internalType": "bytes32",
          "name": "role",
          "type": "bytes32"
        },
        {
          "indexed": true,
          "internalType": "bytes32",
          "name": "previousAdminRole",
          "type": "bytes32"
        },
        {
          "indexed": true,
          "internalType": "bytes32",
          "name": "newAdminRole",
          "type": "bytes32"
        }
      ],
      "name": "RoleAdminChanged",
      "type": "event"
    },
    {
      "anonymous": false,
      "inputs": [
        {
          "indexed": true,
          "internalType": "bytes32",
          "name": "role",
          "type": "bytes32"
        },
        {
          "indexed": true,
          "internalType": "address",
          "name": "account",
          "type": "address"
        },
        {
          "indexed": true,
          "internalType": "address",
          "name": "sender",
          "type": "address"
        }
      ],
      "name": "RoleGranted",
      "type": "event"
    },
    {
      "anonymous": false,
      "inputs": [
        {
          "indexed": false,
          "internalType": "address",
          "name": "roleManager",
          "type": "address"
        }
      ],
      "name": "RoleManagerUpdated",
      "type": "event"
    },
    {
      "anonymous": false,
      "inputs": [
        {
          "indexed": true,
          "internalType": "bytes32",
          "name": "role",
          "type": "bytes32"
        },
        {
          "indexed": true,
          "internalType": "address",
          "name": "account",
          "type": "address"
        },
        {
          "indexed": true,
          "internalType": "address",
          "name": "sender",
          "type": "address"
        }
      ],
      "name": "RoleRevoked",
      "type": "event"
    },
    {
      "anonymous": false,
      "inputs": [
        {
          "indexed": false,
          "internalType": "uint256",
          "name": "totalSupply",
          "type": "uint256"
        },
        {
          "indexed": false,
          "internalType": "uint256",
          "name": "rebasingCredits",
          "type": "uint256"
        },
        {
          "indexed": false,
          "internalType": "uint256",
          "name": "rebasingCreditsPerToken",
          "type": "uint256"
        }
      ],
      "name": "TotalSupplyUpdatedHighres",
      "type": "event"
    },
    {
      "anonymous": false,
      "inputs": [
        {
          "indexed": true,
          "internalType": "address",
          "name": "from",
          "type": "address"
        },
        {
          "indexed": true,
          "internalType": "address",
          "name": "to",
          "type": "address"
        },
        {
          "indexed": false,
          "internalType": "uint256",
          "name": "value",
          "type": "uint256"
        }
      ],
      "name": "Transfer",
      "type": "event"
    },
    {
      "anonymous": false,
      "inputs": [
        {
          "indexed": false,
          "internalType": "address",
          "name": "account",
          "type": "address"
        }
      ],
      "name": "Unpaused",
      "type": "event"
    },
    {
      "anonymous": false,
      "inputs": [
        {
          "indexed": true,
          "internalType": "address",
          "name": "implementation",
          "type": "address"
        }
      ],
      "name": "Upgraded",
      "type": "event"
    },
    {
      "inputs": [],
      "name": "DEFAULT_ADMIN_ROLE",
      "outputs": [
        {
          "internalType": "bytes32",
          "name": "",
          "type": "bytes32"
        }
      ],
      "stateMutability": "view",
      "type": "function"
    },
    {
      "inputs": [
        {
          "internalType": "address",
          "name": "_owner",
          "type": "address"
        },
        {
          "internalType": "address",
          "name": "_spender",
          "type": "address"
        }
      ],
      "name": "allowance",
      "outputs": [
        {
          "internalType": "uint256",
          "name": "",
          "type": "uint256"
        }
      ],
      "stateMutability": "view",
      "type": "function"
    },
    {
      "inputs": [
        {
          "internalType": "address",
          "name": "_spender",
          "type": "address"
        },
        {
          "internalType": "uint256",
          "name": "_value",
          "type": "uint256"
        }
      ],
      "name": "approve",
      "outputs": [
        {
          "internalType": "bool",
          "name": "",
          "type": "bool"
        }
      ],
      "stateMutability": "nonpayable",
      "type": "function"
    },
    {
      "inputs": [
        {
          "internalType": "uint256",
          "name": "amount",
          "type": "uint256"
        }
      ],
      "name": "assetToCredit",
      "outputs": [
        {
          "internalType": "uint256",
          "name": "credit",
          "type": "uint256"
        }
      ],
      "stateMutability": "view",
      "type": "function"
    },
    {
      "inputs": [
        {
          "internalType": "address",
          "name": "_account",
          "type": "address"
        }
      ],
      "name": "balanceOf",
      "outputs": [
        {
          "internalType": "uint256",
          "name": "",
          "type": "uint256"
        }
      ],
      "stateMutability": "view",
      "type": "function"
    },
    {
      "inputs": [
        {
          "internalType": "address",
          "name": "account",
          "type": "address"
        },
        {
          "internalType": "uint256",
          "name": "amount",
          "type": "uint256"
        }
      ],
      "name": "burn",
      "outputs": [],
      "stateMutability": "nonpayable",
      "type": "function"
    },
    {
      "inputs": [
        {
          "internalType": "address",
          "name": "_account",
          "type": "address"
        },
        {
          "internalType": "uint256",
          "name": "_amount",
          "type": "uint256"
        }
      ],
      "name": "burnShares",
      "outputs": [],
      "stateMutability": "nonpayable",
      "type": "function"
    },
    {
      "inputs": [
        {
          "internalType": "uint256",
          "name": "_newTotalSupply",
          "type": "uint256"
        }
      ],
      "name": "changeNegativeSupply",
      "outputs": [],
      "stateMutability": "nonpayable",
      "type": "function"
    },
    {
      "inputs": [
        {
          "internalType": "uint256",
          "name": "_newTotalSupply",
          "type": "uint256"
        },
        {
          "internalType": "uint256",
          "name": "_totalDeposit",
          "type": "uint256"
        }
      ],
      "name": "changeSupply",
      "outputs": [],
      "stateMutability": "nonpayable",
      "type": "function"
    },
    {
      "inputs": [
        {
          "internalType": "uint256",
          "name": "credit",
          "type": "uint256"
        }
      ],
      "name": "creditToAsset",
      "outputs": [
        {
          "internalType": "uint256",
          "name": "asset",
          "type": "uint256"
        }
      ],
      "stateMutability": "view",
      "type": "function"
    },
    {
      "inputs": [
        {
          "internalType": "address",
          "name": "_account",
          "type": "address"
        }
      ],
      "name": "creditsBalanceOf",
      "outputs": [
        {
          "internalType": "uint256",
          "name": "",
          "type": "uint256"
        },
        {
          "internalType": "uint256",
          "name": "",
          "type": "uint256"
        }
      ],
      "stateMutability": "view",
      "type": "function"
    },
    {
      "inputs": [],
      "name": "decimals",
      "outputs": [
        {
          "internalType": "uint8",
          "name": "",
          "type": "uint8"
        }
      ],
      "stateMutability": "view",
      "type": "function"
    },
    {
      "inputs": [
        {
          "internalType": "address",
          "name": "_spender",
          "type": "address"
        },
        {
          "internalType": "uint256",
          "name": "_subtractedValue",
          "type": "uint256"
        }
      ],
      "name": "decreaseAllowance",
      "outputs": [
        {
          "internalType": "bool",
          "name": "",
          "type": "bool"
        }
      ],
      "stateMutability": "nonpayable",
      "type": "function"
    },
    {
      "inputs": [],
      "name": "depositor",
      "outputs": [
        {
          "internalType": "address",
          "name": "",
          "type": "address"
        }
      ],
      "stateMutability": "view",
      "type": "function"
    },
    {
      "inputs": [],
      "name": "exchange",
      "outputs": [
        {
          "internalType": "address",
          "name": "",
          "type": "address"
        }
      ],
      "stateMutability": "view",
      "type": "function"
    },
    {
      "inputs": [
        {
          "internalType": "bytes32",
          "name": "role",
          "type": "bytes32"
        }
      ],
      "name": "getRoleAdmin",
      "outputs": [
        {
          "internalType": "bytes32",
          "name": "",
          "type": "bytes32"
        }
      ],
      "stateMutability": "view",
      "type": "function"
    },
    {
      "inputs": [
        {
          "internalType": "address",
          "name": "_account",
          "type": "address"
        },
        {
          "internalType": "uint256",
          "name": "_amount",
          "type": "uint256"
        }
      ],
      "name": "giveShares",
      "outputs": [],
      "stateMutability": "nonpayable",
      "type": "function"
    },
    {
      "inputs": [
        {
          "internalType": "bytes32",
          "name": "role",
          "type": "bytes32"
        },
        {
          "internalType": "address",
          "name": "account",
          "type": "address"
        }
      ],
      "name": "grantRole",
      "outputs": [],
      "stateMutability": "nonpayable",
      "type": "function"
    },
    {
      "inputs": [
        {
          "internalType": "bytes32",
          "name": "role",
          "type": "bytes32"
        },
        {
          "internalType": "address",
          "name": "account",
          "type": "address"
        }
      ],
      "name": "hasRole",
      "outputs": [
        {
          "internalType": "bool",
          "name": "",
          "type": "bool"
        }
      ],
      "stateMutability": "view",
      "type": "function"
    },
    {
      "inputs": [
        {
          "internalType": "address",
          "name": "_spender",
          "type": "address"
        },
        {
          "internalType": "uint256",
          "name": "_addedValue",
          "type": "uint256"
        }
      ],
      "name": "increaseAllowance",
      "outputs": [
        {
          "internalType": "bool",
          "name": "",
          "type": "bool"
        }
      ],
      "stateMutability": "nonpayable",
      "type": "function"
    },
    {
      "inputs": [
        {
          "internalType": "string",
          "name": "name",
          "type": "string"
        },
        {
          "internalType": "string",
          "name": "symbol",
          "type": "string"
        },
        {
          "internalType": "uint8",
          "name": "decimals",
          "type": "uint8"
        }
      ],
      "name": "initialize",
      "outputs": [],
      "stateMutability": "nonpayable",
      "type": "function"
    },
    {
      "inputs": [
        {
          "internalType": "address",
          "name": "_account",
          "type": "address"
        },
        {
          "internalType": "uint256",
          "name": "_amount",
          "type": "uint256"
        }
      ],
      "name": "mint",
      "outputs": [],
      "stateMutability": "nonpayable",
      "type": "function"
    },
    {
      "inputs": [],
      "name": "name",
      "outputs": [
        {
          "internalType": "string",
          "name": "",
          "type": "string"
        }
      ],
      "stateMutability": "view",
      "type": "function"
    },
    {
      "inputs": [],
      "name": "ownersLength",
      "outputs": [
        {
          "internalType": "uint256",
          "name": "",
          "type": "uint256"
        }
      ],
      "stateMutability": "view",
      "type": "function"
    },
    {
      "inputs": [],
      "name": "paused",
      "outputs": [
        {
          "internalType": "bool",
          "name": "",
          "type": "bool"
        }
      ],
      "stateMutability": "view",
      "type": "function"
    },
    {
      "inputs": [],
      "name": "proxiableUUID",
      "outputs": [
        {
          "internalType": "bytes32",
          "name": "",
          "type": "bytes32"
        }
      ],
      "stateMutability": "view",
      "type": "function"
    },
    {
      "inputs": [],
      "name": "rebasingCredits",
      "outputs": [
        {
          "internalType": "uint256",
          "name": "",
          "type": "uint256"
        }
      ],
      "stateMutability": "view",
      "type": "function"
    },
    {
      "inputs": [],
      "name": "rebasingCreditsPerToken",
      "outputs": [
        {
          "internalType": "uint256",
          "name": "",
          "type": "uint256"
        }
      ],
      "stateMutability": "view",
      "type": "function"
    },
    {
      "inputs": [
        {
          "internalType": "bytes32",
          "name": "role",
          "type": "bytes32"
        },
        {
          "internalType": "address",
          "name": "account",
          "type": "address"
        }
      ],
      "name": "renounceRole",
      "outputs": [],
      "stateMutability": "nonpayable",
      "type": "function"
    },
    {
      "inputs": [
        {
          "internalType": "bytes32",
          "name": "role",
          "type": "bytes32"
        },
        {
          "internalType": "address",
          "name": "account",
          "type": "address"
        }
      ],
      "name": "revokeRole",
      "outputs": [],
      "stateMutability": "nonpayable",
      "type": "function"
    },
    {
      "inputs": [],
      "name": "roleManager",
      "outputs": [
        {
          "internalType": "contract IRoleManager",
          "name": "",
          "type": "address"
        }
      ],
      "stateMutability": "view",
      "type": "function"
    },
    {
      "inputs": [
        {
          "internalType": "address",
          "name": "_depositor",
          "type": "address"
        }
      ],
      "name": "setDepositor",
      "outputs": [],
      "stateMutability": "nonpayable",
      "type": "function"
    },
    {
      "inputs": [
        {
          "internalType": "address",
          "name": "_exchanger",
          "type": "address"
        }
      ],
      "name": "setExchanger",
      "outputs": [],
      "stateMutability": "nonpayable",
      "type": "function"
    },
    {
      "inputs": [
        {
          "internalType": "address",
          "name": "_roleManager",
          "type": "address"
        }
      ],
      "name": "setRoleManager",
      "outputs": [],
      "stateMutability": "nonpayable",
      "type": "function"
    },
    {
      "inputs": [
        {
          "internalType": "address",
          "name": "_account",
          "type": "address"
        }
      ],
      "name": "sharesBalanceOf",
      "outputs": [
        {
          "internalType": "uint256",
          "name": "",
          "type": "uint256"
        }
      ],
      "stateMutability": "view",
      "type": "function"
    },
    {
      "inputs": [
        {
          "internalType": "uint256",
          "name": "credit1",
          "type": "uint256"
        },
        {
          "internalType": "uint256",
          "name": "credit2",
          "type": "uint256"
        },
        {
          "internalType": "string",
          "name": "errorText",
          "type": "string"
        }
      ],
      "name": "subCredits",
      "outputs": [
        {
          "internalType": "uint256",
          "name": "resultCredit",
          "type": "uint256"
        }
      ],
      "stateMutability": "view",
      "type": "function"
    },
    {
      "inputs": [
        {
          "internalType": "bytes4",
          "name": "interfaceId",
          "type": "bytes4"
        }
      ],
      "name": "supportsInterface",
      "outputs": [
        {
          "internalType": "bool",
          "name": "",
          "type": "bool"
        }
      ],
      "stateMutability": "view",
      "type": "function"
    },
    {
      "inputs": [],
      "name": "symbol",
      "outputs": [
        {
          "internalType": "string",
          "name": "",
          "type": "string"
        }
      ],
      "stateMutability": "view",
      "type": "function"
    },
    {
      "inputs": [],
      "name": "totalShares",
      "outputs": [
        {
          "internalType": "uint256",
          "name": "",
          "type": "uint256"
        }
      ],
      "stateMutability": "view",
      "type": "function"
    },
    {
      "inputs": [],
      "name": "totalSupply",
      "outputs": [
        {
          "internalType": "uint256",
          "name": "",
          "type": "uint256"
        }
      ],
      "stateMutability": "view",
      "type": "function"
    },
    {
      "inputs": [
        {
          "internalType": "address",
          "name": "_to",
          "type": "address"
        },
        {
          "internalType": "uint256",
          "name": "_value",
          "type": "uint256"
        }
      ],
      "name": "transfer",
      "outputs": [
        {
          "internalType": "bool",
          "name": "",
          "type": "bool"
        }
      ],
      "stateMutability": "nonpayable",
      "type": "function"
    },
    {
      "inputs": [
        {
          "internalType": "address",
          "name": "_from",
          "type": "address"
        },
        {
          "internalType": "address",
          "name": "_to",
          "type": "address"
        },
        {
          "internalType": "uint256",
          "name": "_value",
          "type": "uint256"
        }
      ],
      "name": "transferFrom",
      "outputs": [
        {
          "internalType": "bool",
          "name": "",
          "type": "bool"
        }
      ],
      "stateMutability": "nonpayable",
      "type": "function"
    },
    {
      "inputs": [
        {
          "internalType": "address",
          "name": "_account",
          "type": "address"
        },
        {
          "internalType": "uint256",
          "name": "_amount",
          "type": "uint256"
        }
      ],
      "name": "transferShares",
      "outputs": [],
      "stateMutability": "nonpayable",
      "type": "function"
    },
    {
      "inputs": [
        {
          "internalType": "address",
          "name": "newImplementation",
          "type": "address"
        }
      ],
      "name": "upgradeTo",
      "outputs": [],
      "stateMutability": "nonpayable",
      "type": "function"
    },
    {
      "inputs": [
        {
          "internalType": "address",
          "name": "newImplementation",
          "type": "address"
        },
        {
          "internalType": "bytes",
          "name": "data",
          "type": "bytes"
        }
      ],
      "name": "upgradeToAndCall",
      "outputs": [],
      "stateMutability": "payable",
      "type": "function"
    }
  ],
  "numDeployments": 1,
  "solcInputHash": "09ce73ba2c155a01c78884e36c7ff81c",
  "bytecode": "0x60a0604052306080523480156200001557600080fd5b506200002062000026565b620000e7565b600054610100900460ff1615620000935760405162461bcd60e51b815260206004820152602760248201527f496e697469616c697a61626c653a20636f6e747261637420697320696e697469604482015266616c697a696e6760c81b606482015260840160405180910390fd5b60005460ff90811614620000e5576000805460ff191660ff9081179091556040519081527f7f26b83ff96e1f2b6a682f133852f6798a09c465da95921460cefb38474024989060200160405180910390a15b565b6080516136176200011f60003960008181610d7601528181610db601528181610f3801528181610f78015261105901526136176000f3fe6080604052600436106102715760003560e01c806370a082311161014f578063a9059cbb116100c1578063dd62ed3e1161007a578063dd62ed3e14610752578063e899ef1414610772578063ee7a7c0414610792578063f1d588c5146107b2578063f2c098b7146107d2578063f9854bfc146107f257600080fd5b8063a9059cbb1461069d578063b18f1943146106bd578063c7c4ff46146106d2578063d2f7265a146106f2578063d547741f14610712578063da909b091461073257600080fd5b806391d148541161011357806391d14854146105f357806395d89b41146106135780639dc29fac14610628578063a217fddf14610648578063a457c2d71461065d578063a6a53fe91461067d57600080fd5b806370a082311461053c5780637254153d1461055c57806373971d151461057c578063891ad93f146105b35780638fcb4e5b146105d357600080fd5b8063313ce567116101e857806340c10f19116101ac57806340c10f191461049f5780634f1ef286146104bf57806350c85329146104d257806352d1902d146104f25780635c975abb146105075780636691cb3d1461052657600080fd5b8063313ce5671461040657806336568abe146104295780633659cfe61461044957806339509351146104695780633a98ef391461048957600080fd5b80631624f6c61161023a5780631624f6c61461033e57806318160ddd146103605780632355183b1461037657806323b872dd14610396578063248a9ca3146103b65780632f2ff15d146103e657600080fd5b8062435da51461027657806301ffc9a7146102ac57806306fdde03146102dc578063077f22b7146102fe578063095ea7b31461031e575b600080fd5b34801561028257600080fd5b50609954610296906001600160a01b031681565b6040516102a39190612cd6565b60405180910390f35b3480156102b857600080fd5b506102cc6102c7366004612cea565b610827565b60405190151581526020016102a3565b3480156102e857600080fd5b506102f161085e565b6040516102a39190612d38565b34801561030a57600080fd5b5061016b545b6040519081526020016102a3565b34801561032a57600080fd5b506102cc610339366004612d87565b6108f1565b34801561034a57600080fd5b5061035e610359366004612df9565b610936565b005b34801561036c57600080fd5b5061016454610310565b34801561038257600080fd5b5061035e610391366004612d87565b610aaa565b3480156103a257600080fd5b506102cc6103b1366004612e82565b610b81565b3480156103c257600080fd5b506103106103d1366004612ebe565b60009081526065602052604090206001015490565b3480156103f257600080fd5b5061035e610401366004612ed7565b610cc4565b34801561041257600080fd5b5061016a5460405160ff90911681526020016102a3565b34801561043557600080fd5b5061035e610444366004612ed7565b610cee565b34801561045557600080fd5b5061035e610464366004612f03565b610d6c565b34801561047557600080fd5b506102cc610484366004612d87565b610e34565b34801561049557600080fd5b5061016554610310565b3480156104ab57600080fd5b5061035e6104ba366004612d87565b610ee0565b61035e6104cd366004612fa9565b610f2e565b3480156104de57600080fd5b506103106104ed366004612ebe565b610fe3565b3480156104fe57600080fd5b5061031061104c565b34801561051357600080fd5b50609954600160a01b900460ff166102cc565b34801561053257600080fd5b5061016c54610310565b34801561054857600080fd5b50610310610557366004612f03565b6110fa565b34801561056857600080fd5b50610310610577366004612ebe565b611144565b34801561058857600080fd5b50610310610597366004612f03565b6001600160a01b03166000908152610162602052604090205490565b3480156105bf57600080fd5b506103106105ce36600461300a565b61119e565b3480156105df57600080fd5b5061035e6105ee366004612d87565b611214565b3480156105ff57600080fd5b506102cc61060e366004612ed7565b6112ca565b34801561061f57600080fd5b506102f16112f5565b34801561063457600080fd5b5061035e610643366004612d87565b611305565b34801561065457600080fd5b50610310600081565b34801561066957600080fd5b506102cc610678366004612d87565b611341565b34801561068957600080fd5b5061035e61069836600461306d565b6113bc565b3480156106a957600080fd5b506102cc6106b8366004612d87565b61172b565b3480156106c957600080fd5b506103106117c5565b3480156106de57600080fd5b50609854610296906001600160a01b031681565b3480156106fe57600080fd5b50609754610296906001600160a01b031681565b34801561071e57600080fd5b5061035e61072d366004612ed7565b6117d7565b34801561073e57600080fd5b5061035e61074d366004612f03565b6117fc565b34801561075e57600080fd5b5061031061076d36600461308f565b6118cb565b34801561077e57600080fd5b5061035e61078d366004612ebe565b611905565b34801561079e57600080fd5b5061035e6107ad366004612d87565b611957565b3480156107be57600080fd5b5061035e6107cd366004612f03565b611a97565b3480156107de57600080fd5b5061035e6107ed366004612f03565b611b5a565b3480156107fe57600080fd5b5061081261080d366004612f03565b611c1e565b604080519283526020830191909152016102a3565b60006001600160e01b03198216637965db0b60e01b148061085857506301ffc9a760e01b6001600160e01b03198316145b92915050565b6060610168805461086e906130b9565b80601f016020809104026020016040519081016040528092919081815260200182805461089a906130b9565b80156108e75780601f106108bc576101008083540402835291602001916108e7565b820191906000526020600020905b8154815290600101906020018083116108ca57829003601f168201915b5050505050905090565b60006108fb611c4f565b600061090683611144565b336000908152610163602090815260408083206001600160a01b0389168452909152902055506001905092915050565b600054610100900460ff16158080156109565750600054600160ff909116105b806109705750303b158015610970575060005460ff166001145b6109d85760405162461bcd60e51b815260206004820152602e60248201527f496e697469616c697a61626c653a20636f6e747261637420697320616c72656160448201526d191e481a5b9a5d1a585b1a5e995960921b60648201526084015b60405180910390fd5b6000805460ff1916600117905580156109fb576000805461ff0019166101001790555b610a03611c9e565b610168610a11868883613139565b50610169610a20848683613139565b50610a29611c9e565b610a31611c9e565b610a3c600033611d09565b61016a805460ff191660ff8416179055676765c793fa10079d601b1b61016c558015610aa2576000805461ff0019169055604051600181527f7f26b83ff96e1f2b6a682f133852f6798a09c465da95921460cefb38474024989060200160405180910390a15b505050505050565b610ab2611c4f565b6098546001600160a01b03163314610adc5760405162461bcd60e51b81526004016109cf906131f9565b6001600160a01b038216610b025760405162461bcd60e51b81526004016109cf9061322a565b6001600160a01b0382166000908152610162602052604081208054839290610b2b908490613272565b909155505061016554610b3e9082611d8f565b61016555610b4e60008383611d9b565b6040518181526001600160a01b038316906000906000805160206135c28339815191529060200160405180910390a35050565b6000610b8b611c4f565b6001600160a01b038316610bb15760405162461bcd60e51b81526004016109cf90613285565b610bba846110fa565b821115610bd95760405162461bcd60e51b81526004016109cf906132b7565b6000610be483611144565b6001600160a01b0386166000908152610163602090815260408083203384528252918290205482518084019093528183527f416c6c6f77616e636520616d6f756e7420657863656564732062616c616e636591830191909152919250610c4c9190839061119e565b6001600160a01b038616600090815261016360209081526040808320338452909152902055610c7c858585611e8f565b836001600160a01b0316856001600160a01b03166000805160206135c283398151915285604051610caf91815260200190565b60405180910390a360019150505b9392505050565b600082815260656020526040902060010154610cdf81611f5a565b610ce98383611d09565b505050565b6001600160a01b0381163314610d5e5760405162461bcd60e51b815260206004820152602f60248201527f416363657373436f6e74726f6c3a2063616e206f6e6c792072656e6f756e636560448201526e103937b632b9903337b91039b2b63360891b60648201526084016109cf565b610d688282611f64565b5050565b6001600160a01b037f0000000000000000000000000000000000000000000000000000000000000000163003610db45760405162461bcd60e51b81526004016109cf906132ee565b7f00000000000000000000000000000000000000000000000000000000000000006001600160a01b0316610de6611fcb565b6001600160a01b031614610e0c5760405162461bcd60e51b81526004016109cf9061333a565b610e1581611fe7565b60408051600080825260208201909252610e3191839190611ff2565b50565b6000610e3e611c4f565b6000610e4983611144565b336000908152610163602090815260408083206001600160a01b0389168452909152902054909150610e7b9082611d8f565b336000818152610163602090815260408083206001600160a01b038a16808552908352928190208590555193845290927f8c5be1e5ebec7d5bd14f71427d1e84f3dd0314c0f7b2291e5b200ac8c7c3b925910160405180910390a35060019392505050565b610ee8611c4f565b6097546001600160a01b03163314610f125760405162461bcd60e51b81526004016109cf90613386565b610f1a61215d565b610f2482826121b6565b610d68600160cb55565b6001600160a01b037f0000000000000000000000000000000000000000000000000000000000000000163003610f765760405162461bcd60e51b81526004016109cf906132ee565b7f00000000000000000000000000000000000000000000000000000000000000006001600160a01b0316610fa8611fcb565b6001600160a01b031614610fce5760405162461bcd60e51b81526004016109cf9061333a565b610fd782611fe7565b610d6882826001611ff2565b60006110006ec097ce7bc90715b34b9f10000000006000196133bd565b821061100f5750600019919050565b600061101a8361228c565b9050600061102a61016c5461228c565b9050600061103883836122cb565b9050611043816123a8565b95945050505050565b6000306001600160a01b037f000000000000000000000000000000000000000000000000000000000000000016146110e75760405162461bcd60e51b815260206004820152603860248201527f555550535570677261646561626c653a206d757374206e6f742062652063616c6044820152771b1959081d1a1c9bdd59da0819195b1959d85d1958d85b1b60421b60648201526084016109cf565b5060008051602061357b83398151915290565b6001600160a01b038116600090815261016160205260408120548103611121576000610858565b6001600160a01b0382166000908152610161602052604090205461085890610fe3565b6000611165722cd76fe086b93ce2f768a00b22a000000000006000196133bd565b8211156111755750600019919050565b60006111808361228c565b9050600061119061016c5461228c565b905060006110388383612428565b6000806111aa85610fe3565b905060006111b785610fe3565b90506000198214806111d35750806111d0836001613272565b10155b156111fa57848610156111e75760006111f1565b6111f185876133df565b92505050610cbd565b8360405162461bcd60e51b81526004016109cf9190612d38565b6001600160a01b03821661123a5760405162461bcd60e51b81526004016109cf90613285565b336000908152610162602052604090205481111561126a5760405162461bcd60e51b81526004016109cf906132b7565b6001600160a01b0382166000908152610162602052604081208054839290611293908490613272565b90915550503360009081526101626020526040812080548392906112b89084906133df565b90915550610d68905060008383611d9b565b60009182526065602090815260408084206001600160a01b0393909316845291905290205460ff1690565b6060610169805461086e906130b9565b61130d611c4f565b6097546001600160a01b031633146113375760405162461bcd60e51b81526004016109cf90613386565b610d6882826124c3565b600061134b611c4f565b600061135683611144565b336000908152610163602090815260408083206001600160a01b038916845290915290205490915081111561138c576000610e7b565b336000908152610163602090815260408083206001600160a01b0388168452909152902054610e7b9082906133df565b6097546001600160a01b031633146113e65760405162461bcd60e51b81526004016109cf90613386565b6113ee61215d565b6113f6611c4f565b600061016454116114495760405162461bcd60e51b815260206004820152601b60248201527f43616e6e6f7420696e637265617365207a65726f20737570706c79000000000060448201526064016109cf565b80610164546114589190613272565b8210156114a75760405162461bcd60e51b815260206004820152601b60248201527f4e6567617469766520726562617365206e6f7420616c6c6f776564000000000060448201526064016109cf565b816101645403611500576101645461016b5461016c5460408051938452602084019290925282820152517f41645eb819d3011b13f97696a8109d14bfcddfaca7d063ec0564d62a3e2572359181900360600190a1610f24565b600081610164548461151291906133df565b61151c91906133df565b90506000826101645461152f9190613272565b61153984846133f2565b61154391906133bd565b9050600061155182846133df565b9050600061155d6117c5565b905060001982610164546115719190613272565b1161158a5781610164546115859190613272565b61158e565b6000195b61016481905561016b546115a1916126a8565b61016c5561016554156116465760005b6115bc6001836133df565b8110156116445760006115d1610166836126c9565b6001600160a01b038116600090815261016260205260409020549091501561163157610165546001600160a01b038216600090815261016260205260409020546116319183916116229089906133f2565b61162c91906133bd565b6121b6565b508061163c81613409565b9150506115b1565b505b600085610164548861165891906133df565b61166291906133df565b905061168461167e6116756001856133df565b610166906126c9565b826121b6565b600061016c54116116d25760405162461bcd60e51b8152602060048201526018602482015277496e76616c6964206368616e676520696e20737570706c7960401b60448201526064016109cf565b6101645461016b5461016c5460408051938452602084019290925282820152517f41645eb819d3011b13f97696a8109d14bfcddfaca7d063ec0564d62a3e2572359181900360600190a15050505050610d68600160cb55565b6000611735611c4f565b6001600160a01b03831661175b5760405162461bcd60e51b81526004016109cf90613285565b611764336110fa565b8211156117835760405162461bcd60e51b81526004016109cf906132b7565b61178e338484611e8f565b6040518281526001600160a01b0384169033906000805160206135c28339815191529060200160405180910390a350600192915050565b60006117d26101666126d5565b905090565b6000828152606560205260409020600101546117f281611f5a565b610ce98383611f64565b6118076000336112ca565b6118235760405162461bcd60e51b81526004016109cf90613422565b6001600160a01b0381166118755760405162461bcd60e51b815260206004820152601960248201527845786368616e676572206973207a65726f206164647265737360381b60448201526064016109cf565b609780546001600160a01b0319166001600160a01b0383161790556040517f1af34e943bb581f62718acd39caf1a640e9ff89789a197745e259d1f40cd9bd6906118c0908390612cd6565b60405180910390a150565b6001600160a01b038083166000908152610163602090815260408083209385168352929052908120546118fd81610fe3565b949350505050565b6097546001600160a01b0316331461192f5760405162461bcd60e51b81526004016109cf90613386565b61016b5461193d90826126a8565b61016c81905561016b54611950916126a8565b6101645550565b61195f611c4f565b6098546001600160a01b031633146119895760405162461bcd60e51b81526004016109cf906131f9565b6001600160a01b0382166119d85760405162461bcd60e51b81526020600482015260166024820152754275726e2066726f6d207a65726f206164647265737360501b60448201526064016109cf565b6001600160a01b03821660009081526101626020526040902054811115611a4d5760405162461bcd60e51b815260206004820152602360248201527f4163636f756e7420646f6573206e6f74206861766520656e6f7567682073686160448201526272657360e81b60648201526084016109cf565b806101656000828254611a6091906133df565b90915550506001600160a01b0382166000908152610162602052604081208054839290611a8e9084906133df565b90915550505050565b611aa26000336112ca565b611abe5760405162461bcd60e51b81526004016109cf90613422565b6001600160a01b038116611b0f5760405162461bcd60e51b815260206004820152601860248201527716995c9bc81859191c995cdcc81b9bdd08185b1b1bddd95960421b60448201526064016109cf565b609980546001600160a01b0319166001600160a01b0383161790556040517f5a7ef52f6714a981ffe676ce3c4a14db59929bd3f8ca82bb6cf9e230fa8a50c9906118c0908390612cd6565b611b656000336112ca565b611b815760405162461bcd60e51b81526004016109cf90613422565b6001600160a01b038116611bd35760405162461bcd60e51b81526020600482015260196024820152784465706f7369746f72206973207a65726f206164647265737360381b60448201526064016109cf565b609880546001600160a01b0319166001600160a01b0383161790556040517f8cf8be695b910a30beed2532e7990699dfe014923098dc301a0e96205e46e25a906118c0908390612cd6565b6000806000611c2d61016c5490565b6001600160a01b03909416600090815261016160205260409020549492505050565b609954600160a01b900460ff1615611c9c5760405162461bcd60e51b815260206004820152601060248201526f14185d5cd8589b194e881c185d5cd95960821b60448201526064016109cf565b565b600054610100900460ff16611c9c5760405162461bcd60e51b815260206004820152602b60248201527f496e697469616c697a61626c653a20636f6e7472616374206973206e6f74206960448201526a6e697469616c697a696e6760a81b60648201526084016109cf565b611d1382826112ca565b610d685760008281526065602090815260408083206001600160a01b03851684529091529020805460ff19166001179055611d4b3390565b6001600160a01b0316816001600160a01b0316837f2f8788117e7eff1d82e926ec794901d17c78024a50270940304540a733656f0d60405160405180910390a45050565b6000610cbd8284613272565b816001600160a01b0316836001600160a01b031603611db957505050565b6001600160a01b038316611dd957611dd3610166836126df565b50505050565b6001600160a01b038216611e2557611df0836110fa565b158015611e1457506001600160a01b03831660009081526101626020526040902054155b15610ce957611dd3610166846126f4565b611e2e836110fa565b158015611e5257506001600160a01b03831660009081526101626020526040902054155b15611e6957611e63610166846126f4565b50611e7d565b8015611e7d57611e7b610166836126df565b505b8015610ce957611dd3610166836126df565b6000611e9a82611144565b9050611f026101616000866001600160a01b03166001600160a01b0316815260200190815260200160002054826040518060400160405280601f81526020017f5472616e7366657220616d6f756e7420657863656564732062616c616e63650081525061119e565b6001600160a01b03808616600090815261016160205260408082209390935590851681522054611f329082611d8f565b6001600160a01b03841660009081526101616020526040812091909155611dd3908484611d9b565b610e318133612709565b611f6e82826112ca565b15610d685760008281526065602090815260408083206001600160a01b0385168085529252808320805460ff1916905551339285917ff6391f5c32d9c69d2a47ea670b442974b53935d1edc7fd64eb21e047a839171b9190a45050565b60008051602061357b833981519152546001600160a01b031690565b6000610d6881611f5a565b7f4910fdfa16fed3260ed0e7147f7cc6da11a60208b5b9406d12a635614ffd91435460ff161561202557610ce983612762565b826001600160a01b03166352d1902d6040518163ffffffff1660e01b8152600401602060405180830381865afa92505050801561207f575060408051601f3d908101601f1916820190925261207c91810190613450565b60015b6120e25760405162461bcd60e51b815260206004820152602e60248201527f45524331393637557067726164653a206e657720696d706c656d656e7461746960448201526d6f6e206973206e6f74205555505360901b60648201526084016109cf565b60008051602061357b83398151915281146121515760405162461bcd60e51b815260206004820152602960248201527f45524331393637557067726164653a20756e737570706f727465642070726f786044820152681a58589b195555525160ba1b60648201526084016109cf565b50610ce98383836127fe565b600260cb54036121af5760405162461bcd60e51b815260206004820152601f60248201527f5265656e7472616e637947756172643a207265656e7472616e742063616c6c0060448201526064016109cf565b600260cb55565b6001600160a01b0382166121dc5760405162461bcd60e51b81526004016109cf9061322a565b60006121e782611144565b6001600160a01b0384166000908152610161602052604090205490915061220e9082611d8f565b6001600160a01b0384166000908152610161602052604090205561016b546122369082611d8f565b61016b55610164546122489083611d8f565b6101645561225860008484611d9b565b6040518281526001600160a01b038416906000906000805160206135c28339815191529060200160405180910390a3505050565b60008061229d633b9aca00846133f2565b9050826122ae633b9aca00836133bd565b146108585760405162461bcd60e51b81526004016109cf90613469565b60008160000361231d5760405162461bcd60e51b815260206004820152601c60248201527f4572726f72732e4d4154485f4449564953494f4e5f42595f5a45524f0000000060448201526064016109cf565b8260000361232d57506000610858565b600061233a6002846133bd565b9050676765c793fa10079d601b1b612354826000196133df565b61235e91906133bd565b84111561237d5760405162461bcd60e51b81526004016109cf90613469565b8281612394676765c793fa10079d601b1b876133f2565b61239e9190613272565b6118fd91906133bd565b6000806123ba6002633b9aca006133bd565b905060006123c88483613272565b90508181101561241a5760405162461bcd60e51b815260206004820152601d60248201527f4572726f72732e4d4154485f4144444954494f4e5f4f564552464c4f5700000060448201526064016109cf565b6118fd633b9aca00826133bd565b6000821580612435575081155b1561244257506000610858565b816124596002676765c793fa10079d601b1b6133bd565b612465906000196133df565b61246f91906133bd565b83111561248e5760405162461bcd60e51b81526004016109cf90613469565b676765c793fa10079d601b1b6124a56002826133bd565b6124af84866133f2565b6124b99190613272565b610cbd91906133bd565b6124cb61215d565b6001600160a01b0382166125215760405162461bcd60e51b815260206004820152601a60248201527f4275726e2066726f6d20746865207a65726f206164647265737300000000000060448201526064016109cf565b61252a826110fa565b8111156125775760405162461bcd60e51b815260206004820152601b60248201527a4275726e20616d6f756e7420657863656564732062616c616e636560281b60448201526064016109cf565b806000036125b3576040518181526000906001600160a01b038416906000805160206135c28339815191529060200160405180910390a3610f24565b60006125be82611144565b90506126246101616000856001600160a01b03166001600160a01b0316815260200190815260200160002054826040518060400160405280601b81526020017a4275726e20616d6f756e7420657863656564732062616c616e636560281b81525061119e565b6001600160a01b0384166000908152610161602052604090205561016b5461264c9082612823565b61016b556101645461265e9083612823565b6101645561266e83600084611d9b565b6040518281526000906001600160a01b038516906000805160206135c28339815191529060200160405180910390a350610d68600160cb55565b6000806126bd84670de0b6b3a764000061282f565b90506118fd818461283b565b6000610cbd8383612847565b6000610858825490565b6000610cbd836001600160a01b038416612871565b6000610cbd836001600160a01b0384166128c0565b61271382826112ca565b610d6857612720816129b3565b61272b8360206129c5565b60405160200161273c9291906134ac565b60408051601f198184030181529082905262461bcd60e51b82526109cf91600401612d38565b6001600160a01b0381163b6127cf5760405162461bcd60e51b815260206004820152602d60248201527f455243313936373a206e657720696d706c656d656e746174696f6e206973206e60448201526c1bdd08184818dbdb9d1c9858dd609a1b60648201526084016109cf565b60008051602061357b83398151915280546001600160a01b0319166001600160a01b0392909216919091179055565b61280783612b60565b6000825111806128145750805b15610ce957611dd38383612ba0565b6000610cbd82846133df565b6000610cbd82846133f2565b6000610cbd82846133bd565b600082600001828154811061285e5761285e61351b565b9060005260206000200154905092915050565b60008181526001830160205260408120546128b857508154600181810184556000848152602080822090930184905584548482528286019093526040902091909155610858565b506000610858565b600081815260018301602052604081205480156129a95760006128e46001836133df565b85549091506000906128f8906001906133df565b905081811461295d5760008660000182815481106129185761291861351b565b906000526020600020015490508087600001848154811061293b5761293b61351b565b6000918252602080832090910192909255918252600188019052604090208390555b855486908061296e5761296e613531565b600190038181906000526020600020016000905590558560010160008681526020019081526020016000206000905560019350505050610858565b6000915050610858565b60606108586001600160a01b03831660145b606060006129d48360026133f2565b6129df906002613272565b6001600160401b038111156129f6576129f6612f1e565b6040519080825280601f01601f191660200182016040528015612a20576020820181803683370190505b509050600360fc1b81600081518110612a3b57612a3b61351b565b60200101906001600160f81b031916908160001a905350600f60fb1b81600181518110612a6a57612a6a61351b565b60200101906001600160f81b031916908160001a9053506000612a8e8460026133f2565b612a99906001613272565b90505b6001811115612b11576f181899199a1a9b1b9c1cb0b131b232b360811b85600f1660108110612acd57612acd61351b565b1a60f81b828281518110612ae357612ae361351b565b60200101906001600160f81b031916908160001a90535060049490941c93612b0a81613547565b9050612a9c565b508315610cbd5760405162461bcd60e51b815260206004820181905260248201527f537472696e67733a20686578206c656e67746820696e73756666696369656e7460448201526064016109cf565b612b6981612762565b6040516001600160a01b038216907fbc7cd75a20ee27fd9adebab32041f755214dbc6bffa90cc0225b39da2e5c2d3b90600090a250565b6060610cbd838360405180606001604052806027815260200161359b602791396060600080856001600160a01b031685604051612bdd919061355e565b600060405180830381855af49150503d8060008114612c18576040519150601f19603f3d011682016040523d82523d6000602084013e612c1d565b606091505b5091509150612c2e86838387612c38565b9695505050505050565b60608315612ca7578251600003612ca0576001600160a01b0385163b612ca05760405162461bcd60e51b815260206004820152601d60248201527f416464726573733a2063616c6c20746f206e6f6e2d636f6e747261637400000060448201526064016109cf565b50816118fd565b6118fd8383815115612cbc5781518083602001fd5b8060405162461bcd60e51b81526004016109cf9190612d38565b6001600160a01b0391909116815260200190565b600060208284031215612cfc57600080fd5b81356001600160e01b031981168114610cbd57600080fd5b60005b83811015612d2f578181015183820152602001612d17565b50506000910152565b6020815260008251806020840152612d57816040850160208701612d14565b601f01601f19169190910160400192915050565b80356001600160a01b0381168114612d8257600080fd5b919050565b60008060408385031215612d9a57600080fd5b612da383612d6b565b946020939093013593505050565b60008083601f840112612dc357600080fd5b5081356001600160401b03811115612dda57600080fd5b602083019150836020828501011115612df257600080fd5b9250929050565b600080600080600060608688031215612e1157600080fd5b85356001600160401b0380821115612e2857600080fd5b612e3489838a01612db1565b90975095506020880135915080821115612e4d57600080fd5b50612e5a88828901612db1565b909450925050604086013560ff81168114612e7457600080fd5b809150509295509295909350565b600080600060608486031215612e9757600080fd5b612ea084612d6b565b9250612eae60208501612d6b565b9150604084013590509250925092565b600060208284031215612ed057600080fd5b5035919050565b60008060408385031215612eea57600080fd5b82359150612efa60208401612d6b565b90509250929050565b600060208284031215612f1557600080fd5b610cbd82612d6b565b634e487b7160e01b600052604160045260246000fd5b60006001600160401b0380841115612f4e57612f4e612f1e565b604051601f8501601f19908116603f01168101908282118183101715612f7657612f76612f1e565b81604052809350858152868686011115612f8f57600080fd5b858560208301376000602087830101525050509392505050565b60008060408385031215612fbc57600080fd5b612fc583612d6b565b915060208301356001600160401b03811115612fe057600080fd5b8301601f81018513612ff157600080fd5b61300085823560208401612f34565b9150509250929050565b60008060006060848603121561301f57600080fd5b833592506020840135915060408401356001600160401b0381111561304357600080fd5b8401601f8101861361305457600080fd5b61306386823560208401612f34565b9150509250925092565b6000806040838503121561308057600080fd5b50508035926020909101359150565b600080604083850312156130a257600080fd5b6130ab83612d6b565b9150612efa60208401612d6b565b600181811c908216806130cd57607f821691505b6020821081036130ed57634e487b7160e01b600052602260045260246000fd5b50919050565b601f821115610ce957600081815260208120601f850160051c8101602086101561311a5750805b601f850160051c820191505b81811015610aa257828155600101613126565b6001600160401b0383111561315057613150612f1e565b6131648361315e83546130b9565b836130f3565b6000601f84116001811461319857600085156131805750838201355b600019600387901b1c1916600186901b1783556131f2565b600083815260209020601f19861690835b828110156131c957868501358255602094850194600190920191016131a9565b50868210156131e65760001960f88860031b161c19848701351681555b505060018560011b0183555b5050505050565b6020808252601790820152762932b9ba3934b1ba32b2103a37902232b837b9b4ba37b960491b604082015260600190565b6020808252601890820152774d696e7420746f20746865207a65726f206164647265737360401b604082015260600190565b634e487b7160e01b600052601160045260246000fd5b808201808211156108585761085861325c565b6020808252601890820152775472616e7366657220746f207a65726f206164647265737360401b604082015260600190565b6020808252601f908201527f5472616e7366657220616d6f756e7420657863656564732062616c616e636500604082015260600190565b6020808252602c908201527f46756e6374696f6e206d7573742062652063616c6c6564207468726f7567682060408201526b19195b1959d85d1958d85b1b60a21b606082015260800190565b6020808252602c908201527f46756e6374696f6e206d7573742062652063616c6c6564207468726f7567682060408201526b6163746976652070726f787960a01b606082015260800190565b6020808252601b908201527f43616c6c6572206973206e6f74207468652045584348414e4745520000000000604082015260600190565b6000826133da57634e487b7160e01b600052601260045260246000fd5b500490565b818103818111156108585761085861325c565b80820281158282048414176108585761085861325c565b60006001820161341b5761341b61325c565b5060010190565b6020808252601490820152735265737472696374656420746f2061646d696e7360601b604082015260600190565b60006020828403121561346257600080fd5b5051919050565b60208082526023908201527f4572726f72732e4d4154485f4d554c5449504c49434154494f4e5f4f564552466040820152624c4f5760e81b606082015260800190565b76020b1b1b2b9b9a1b7b73a3937b61d1030b1b1b7bab73a1604d1b8152600083516134de816017850160208801612d14565b7001034b99036b4b9b9b4b733903937b6329607d1b601791840191820152835161350f816028840160208801612d14565b01602801949350505050565b634e487b7160e01b600052603260045260246000fd5b634e487b7160e01b600052603160045260246000fd5b6000816135565761355661325c565b506000190190565b60008251613570818460208701612d14565b919091019291505056fe360894a13ba1a3210667c828492db98dca3e2076cc3735a920a3ca505d382bbc416464726573733a206c6f772d6c6576656c2064656c65676174652063616c6c206661696c6564ddf252ad1be2c89b69c2b068fc378daa952ba7f163c4a11628f55a4df523b3efa2646970667358221220e3f35ce5ce852562e2d09af7c4b02dcc321465e544f8c5082ec7e4ca93ba5eed64736f6c63430008110033",
  "implementation": "0xBE0309c23fDAe4A6B6B125fBF13DD946f2385679",
  "devdoc": {
    "details": "Inherits multiple OpenZeppelin contracts for security and upgradeability.",
    "kind": "dev",
    "methods": {
      "allowance(address,address)": {
        "params": {
          "_owner": "The owner address.",
          "_spender": "The spender address."
        }
      },
      "approve(address,uint256)": {
        "params": {
          "_spender": "The spender address.",
          "_value": "The amount to approve."
        }
      },
      "assetToCredit(uint256)": {
        "params": {
          "amount": "The amount in tokens."
        }
      },
      "balanceOf(address)": {
        "params": {
          "_account": "The address to query the balance of."
        }
      },
      "burn(address,uint256)": {
        "params": {
          "account": "The address to burn from.",
          "amount": "The amount to burn."
        }
      },
      "burnShares(address,uint256)": {
        "params": {
          "_account": "The address to burn shares from.",
          "_amount": "The amount of shares to burn."
        }
      },
      "changeNegativeSupply(uint256)": {
        "params": {
          "_newTotalSupply": "The new total supply after adjustment."
        }
      },
      "changeSupply(uint256,uint256)": {
        "params": {
          "_newTotalSupply": "The new total supply of tokens.",
          "_totalDeposit": "The total deposit amount."
        }
      },
      "constructor": {
        "custom:oz-upgrades-unsafe-allow": "constructor"
      },
      "creditToAsset(uint256)": {
        "params": {
          "credit": "The amount in credits."
        }
      },
      "creditsBalanceOf(address)": {
        "params": {
          "_account": "The address to query."
        }
      },
      "decreaseAllowance(address,uint256)": {
        "params": {
          "_spender": "The spender address.",
          "_subtractedValue": "The amount to decrease."
        }
      },
      "getRoleAdmin(bytes32)": {
        "details": "Returns the admin role that controls `role`. See {grantRole} and {revokeRole}. To change a role's admin, use {_setRoleAdmin}."
      },
      "giveShares(address,uint256)": {
        "params": {
          "_account": "The recipient address.",
          "_amount": "The amount of shares."
        }
      },
      "grantRole(bytes32,address)": {
        "details": "Grants `role` to `account`. If `account` had not been already granted `role`, emits a {RoleGranted} event. Requirements: - the caller must have ``role``'s admin role. May emit a {RoleGranted} event."
      },
      "hasRole(bytes32,address)": {
        "details": "Returns `true` if `account` has been granted `role`."
      },
      "increaseAllowance(address,uint256)": {
        "params": {
          "_addedValue": "The additional amount to approve.",
          "_spender": "The spender address."
        }
      },
      "initialize(string,string,uint8)": {
        "params": {
          "decimals": "The number of decimals the token uses.",
          "name": "The name of the token.",
          "symbol": "The symbol of the token."
        }
      },
      "mint(address,uint256)": {
        "params": {
          "_account": "The recipient address.",
          "_amount": "The amount to mint."
        }
      },
      "paused()": {
        "details": "Returns true if the contract is paused, and false otherwise."
      },
      "proxiableUUID()": {
        "details": "Implementation of the ERC1822 {proxiableUUID} function. This returns the storage slot used by the implementation. It is used to validate the implementation's compatibility when performing an upgrade. IMPORTANT: A proxy pointing at a proxiable contract should not be considered proxiable itself, because this risks bricking a proxy that upgrades to it, by delegating to itself until out of gas. Thus it is critical that this function revert if invoked through a proxy. This is guaranteed by the `notDelegated` modifier."
      },
      "renounceRole(bytes32,address)": {
        "details": "Revokes `role` from the calling account. Roles are often managed via {grantRole} and {revokeRole}: this function's purpose is to provide a mechanism for accounts to lose their privileges if they are compromised (such as when a trusted device is misplaced). If the calling account had been revoked `role`, emits a {RoleRevoked} event. Requirements: - the caller must be `account`. May emit a {RoleRevoked} event."
      },
      "revokeRole(bytes32,address)": {
        "details": "Revokes `role` from `account`. If `account` had been granted `role`, emits a {RoleRevoked} event. Requirements: - the caller must have ``role``'s admin role. May emit a {RoleRevoked} event."
      },
      "sharesBalanceOf(address)": {
        "params": {
          "_account": "The address to query the shares balance of."
        }
      },
      "subCredits(uint256,uint256,string)": {
        "params": {
          "credit1": "The minuend in credits.",
          "credit2": "The subtrahend in credits.",
          "errorText": "The error message if subtraction fails."
        }
      },
      "supportsInterface(bytes4)": {
        "details": "See {IERC165-supportsInterface}."
      },
      "transfer(address,uint256)": {
        "params": {
          "_to": "The address to transfer to.",
          "_value": "The amount to be transferred."
        }
      },
      "transferFrom(address,address,uint256)": {
        "params": {
          "_from": "The address to send tokens from.",
          "_to": "The address to transfer to.",
          "_value": "The amount of tokens to be transferred."
        }
      },
      "transferShares(address,uint256)": {
        "params": {
          "_account": "The recipient address.",
          "_amount": "The amount of shares to transfer."
        }
      },
      "upgradeTo(address)": {
        "custom:oz-upgrades-unsafe-allow-reachable": "delegatecall",
        "details": "Upgrade the implementation of the proxy to `newImplementation`. Calls {_authorizeUpgrade}. Emits an {Upgraded} event."
      },
      "upgradeToAndCall(address,bytes)": {
        "custom:oz-upgrades-unsafe-allow-reachable": "delegatecall",
        "details": "Upgrade the implementation of the proxy to `newImplementation`, and subsequently execute the function call encoded in `data`. Calls {_authorizeUpgrade}. Emits an {Upgraded} event."
      }
    },
    "title": "MotivationalFund",
    "version": 1
  },
  "userdoc": {
    "kind": "user",
    "methods": {
      "allowance(address,address)": {
        "notice": "Returns the amount of tokens that an owner allowed to a spender."
      },
      "approve(address,uint256)": {
        "notice": "Approves a spender to spend a specific amount of tokens."
      },
      "assetToCredit(uint256)": {
        "notice": "Converts asset amount to credits."
      },
      "balanceOf(address)": {
        "notice": "Returns the balance of a specific address."
      },
      "burn(address,uint256)": {
        "notice": "Burns tokens from a specified address."
      },
      "burnShares(address,uint256)": {
        "notice": "Burns shares from an address."
      },
      "changeNegativeSupply(uint256)": {
        "notice": "Adjusts the total supply negatively."
      },
      "changeSupply(uint256,uint256)": {
        "notice": "Changes the supply without minting new tokens for regular FUND holders."
      },
      "creditToAsset(uint256)": {
        "notice": "Converts credits to asset amount."
      },
      "creditsBalanceOf(address)": {
        "notice": "Returns the credit balance and credits per token of an address."
      },
      "decimals()": {
        "notice": "Returns the number of decimals used to get its user representation."
      },
      "decreaseAllowance(address,uint256)": {
        "notice": "Decreases the allowance granted to a spender."
      },
      "giveShares(address,uint256)": {
        "notice": "Assigns shares to an address."
      },
      "increaseAllowance(address,uint256)": {
        "notice": "Increases the allowance granted to a spender."
      },
      "initialize(string,string,uint8)": {
        "notice": "Initializes the contract with a name, symbol, and decimals."
      },
      "mint(address,uint256)": {
        "notice": "Mints new tokens to a specified address."
      },
      "name()": {
        "notice": "Returns the name of the token."
      },
      "ownersLength()": {
        "notice": "Returns the number of token owners."
      },
      "rebasingCredits()": {
        "notice": "Returns the total number of rebasing credits."
      },
      "rebasingCreditsPerToken()": {
        "notice": "Returns the high-resolution rebasing credits per token."
      },
      "sharesBalanceOf(address)": {
        "notice": "Returns the shares balance of a specific address."
      },
      "subCredits(uint256,uint256,string)": {
        "notice": "Subtracts credits with consideration for rounding errors."
      },
      "symbol()": {
        "notice": "Returns the symbol of the token."
      },
      "totalShares()": {
        "notice": "Returns the total shares of the fund."
      },
      "totalSupply()": {
        "notice": "Returns the total token supply."
      },
      "transfer(address,uint256)": {
        "notice": "Transfers tokens to a specified address."
      },
      "transferFrom(address,address,uint256)": {
        "notice": "Transfers tokens from one address to another."
      },
      "transferShares(address,uint256)": {
        "notice": "Transfers shares to another address."
      }
    },
    "notice": "A smart contract that manages a motivational fund with ERC20 functionality.",
    "version": 1
  },
  "storageLayout": {
    "storage": [
      {
        "astId": 782,
        "contract": "contracts/MotivationalFund.sol:MotivationalFund",
        "label": "_initialized",
        "offset": 0,
        "slot": "0",
        "type": "t_uint8"
      },
      {
        "astId": 785,
        "contract": "contracts/MotivationalFund.sol:MotivationalFund",
        "label": "_initializing",
        "offset": 1,
        "slot": "0",
        "type": "t_bool"
      },
      {
        "astId": 1777,
        "contract": "contracts/MotivationalFund.sol:MotivationalFund",
        "label": "__gap",
        "offset": 0,
        "slot": "1",
        "type": "t_array(t_uint256)50_storage"
      },
      {
        "astId": 2161,
        "contract": "contracts/MotivationalFund.sol:MotivationalFund",
        "label": "__gap",
        "offset": 0,
        "slot": "51",
        "type": "t_array(t_uint256)50_storage"
      },
      {
        "astId": 28,
        "contract": "contracts/MotivationalFund.sol:MotivationalFund",
        "label": "_roles",
        "offset": 0,
        "slot": "101",
        "type": "t_mapping(t_bytes32,t_struct(RoleData)23_storage)"
      },
      {
        "astId": 335,
        "contract": "contracts/MotivationalFund.sol:MotivationalFund",
        "label": "__gap",
        "offset": 0,
        "slot": "102",
        "type": "t_array(t_uint256)49_storage"
      },
      {
        "astId": 6198,
        "contract": "contracts/MotivationalFund.sol:MotivationalFund",
        "label": "exchange",
        "offset": 0,
        "slot": "151",
        "type": "t_address"
      },
      {
        "astId": 6200,
        "contract": "contracts/MotivationalFund.sol:MotivationalFund",
        "label": "depositor",
        "offset": 0,
        "slot": "152",
        "type": "t_address"
      },
      {
        "astId": 6203,
        "contract": "contracts/MotivationalFund.sol:MotivationalFund",
        "label": "roleManager",
        "offset": 0,
        "slot": "153",
        "type": "t_contract(IRoleManager)6188"
      },
      {
        "astId": 1103,
        "contract": "contracts/MotivationalFund.sol:MotivationalFund",
        "label": "_paused",
        "offset": 20,
        "slot": "153",
        "type": "t_bool"
      },
      {
        "astId": 1208,
        "contract": "contracts/MotivationalFund.sol:MotivationalFund",
        "label": "__gap",
        "offset": 0,
        "slot": "154",
        "type": "t_array(t_uint256)49_storage"
      },
      {
        "astId": 1224,
        "contract": "contracts/MotivationalFund.sol:MotivationalFund",
        "label": "_status",
        "offset": 0,
        "slot": "203",
        "type": "t_uint256"
      },
      {
        "astId": 1293,
        "contract": "contracts/MotivationalFund.sol:MotivationalFund",
        "label": "__gap",
        "offset": 0,
        "slot": "204",
        "type": "t_array(t_uint256)49_storage"
      },
      {
        "astId": 764,
        "contract": "contracts/MotivationalFund.sol:MotivationalFund",
        "label": "__gap",
        "offset": 0,
        "slot": "253",
        "type": "t_array(t_uint256)50_storage"
      },
      {
        "astId": 1080,
        "contract": "contracts/MotivationalFund.sol:MotivationalFund",
        "label": "__gap",
        "offset": 0,
        "slot": "303",
        "type": "t_array(t_uint256)50_storage"
      },
      {
        "astId": 4772,
        "contract": "contracts/MotivationalFund.sol:MotivationalFund",
        "label": "_creditBalances",
        "offset": 0,
        "slot": "353",
        "type": "t_mapping(t_address,t_uint256)"
      },
      {
        "astId": 4776,
        "contract": "contracts/MotivationalFund.sol:MotivationalFund",
        "label": "_sharesBalances",
        "offset": 0,
        "slot": "354",
        "type": "t_mapping(t_address,t_uint256)"
      },
      {
        "astId": 4782,
        "contract": "contracts/MotivationalFund.sol:MotivationalFund",
        "label": "_allowances",
        "offset": 0,
        "slot": "355",
        "type": "t_mapping(t_address,t_mapping(t_address,t_uint256))"
      },
      {
        "astId": 4784,
        "contract": "contracts/MotivationalFund.sol:MotivationalFund",
        "label": "_totalSupply",
        "offset": 0,
        "slot": "356",
        "type": "t_uint256"
      },
      {
        "astId": 4786,
        "contract": "contracts/MotivationalFund.sol:MotivationalFund",
        "label": "_totalShares",
        "offset": 0,
        "slot": "357",
        "type": "t_uint256"
      },
      {
        "astId": 4789,
        "contract": "contracts/MotivationalFund.sol:MotivationalFund",
        "label": "owners",
        "offset": 0,
        "slot": "358",
        "type": "t_struct(AddressSet)3783_storage"
      },
      {
        "astId": 4791,
        "contract": "contracts/MotivationalFund.sol:MotivationalFund",
        "label": "_name",
        "offset": 0,
        "slot": "360",
        "type": "t_string_storage"
      },
      {
        "astId": 4793,
        "contract": "contracts/MotivationalFund.sol:MotivationalFund",
        "label": "_symbol",
        "offset": 0,
        "slot": "361",
        "type": "t_string_storage"
      },
      {
        "astId": 4795,
        "contract": "contracts/MotivationalFund.sol:MotivationalFund",
        "label": "_decimals",
        "offset": 0,
        "slot": "362",
        "type": "t_uint8"
      },
      {
        "astId": 4797,
        "contract": "contracts/MotivationalFund.sol:MotivationalFund",
        "label": "_rebasingCredits",
        "offset": 0,
        "slot": "363",
        "type": "t_uint256"
      },
      {
        "astId": 4799,
        "contract": "contracts/MotivationalFund.sol:MotivationalFund",
        "label": "_rebasingCreditsPerToken",
        "offset": 0,
        "slot": "364",
        "type": "t_uint256"
      }
    ],
    "types": {
      "t_address": {
        "encoding": "inplace",
        "label": "address",
        "numberOfBytes": "20"
      },
      "t_array(t_bytes32)dyn_storage": {
        "base": "t_bytes32",
        "encoding": "dynamic_array",
        "label": "bytes32[]",
        "numberOfBytes": "32"
      },
      "t_array(t_uint256)49_storage": {
        "base": "t_uint256",
        "encoding": "inplace",
        "label": "uint256[49]",
        "numberOfBytes": "1568"
      },
      "t_array(t_uint256)50_storage": {
        "base": "t_uint256",
        "encoding": "inplace",
        "label": "uint256[50]",
        "numberOfBytes": "1600"
      },
      "t_bool": {
        "encoding": "inplace",
        "label": "bool",
        "numberOfBytes": "1"
      },
      "t_bytes32": {
        "encoding": "inplace",
        "label": "bytes32",
        "numberOfBytes": "32"
      },
      "t_contract(IRoleManager)6188": {
        "encoding": "inplace",
        "label": "contract IRoleManager",
        "numberOfBytes": "20"
      },
      "t_mapping(t_address,t_bool)": {
        "encoding": "mapping",
        "key": "t_address",
        "label": "mapping(address => bool)",
        "numberOfBytes": "32",
        "value": "t_bool"
      },
      "t_mapping(t_address,t_mapping(t_address,t_uint256))": {
        "encoding": "mapping",
        "key": "t_address",
        "label": "mapping(address => mapping(address => uint256))",
        "numberOfBytes": "32",
        "value": "t_mapping(t_address,t_uint256)"
      },
      "t_mapping(t_address,t_uint256)": {
        "encoding": "mapping",
        "key": "t_address",
        "label": "mapping(address => uint256)",
        "numberOfBytes": "32",
        "value": "t_uint256"
      },
      "t_mapping(t_bytes32,t_struct(RoleData)23_storage)": {
        "encoding": "mapping",
        "key": "t_bytes32",
        "label": "mapping(bytes32 => struct AccessControlUpgradeable.RoleData)",
        "numberOfBytes": "32",
        "value": "t_struct(RoleData)23_storage"
      },
      "t_mapping(t_bytes32,t_uint256)": {
        "encoding": "mapping",
        "key": "t_bytes32",
        "label": "mapping(bytes32 => uint256)",
        "numberOfBytes": "32",
        "value": "t_uint256"
      },
      "t_string_storage": {
        "encoding": "bytes",
        "label": "string",
        "numberOfBytes": "32"
      },
      "t_struct(AddressSet)3783_storage": {
        "encoding": "inplace",
        "label": "struct EnumerableSet.AddressSet",
        "members": [
          {
            "astId": 3782,
            "contract": "contracts/MotivationalFund.sol:MotivationalFund",
            "label": "_inner",
            "offset": 0,
            "slot": "0",
            "type": "t_struct(Set)3468_storage"
          }
        ],
        "numberOfBytes": "64"
      },
      "t_struct(RoleData)23_storage": {
        "encoding": "inplace",
        "label": "struct AccessControlUpgradeable.RoleData",
        "members": [
          {
            "astId": 20,
            "contract": "contracts/MotivationalFund.sol:MotivationalFund",
            "label": "members",
            "offset": 0,
            "slot": "0",
            "type": "t_mapping(t_address,t_bool)"
          },
          {
            "astId": 22,
            "contract": "contracts/MotivationalFund.sol:MotivationalFund",
            "label": "adminRole",
            "offset": 0,
            "slot": "1",
            "type": "t_bytes32"
          }
        ],
        "numberOfBytes": "64"
      },
      "t_struct(Set)3468_storage": {
        "encoding": "inplace",
        "label": "struct EnumerableSet.Set",
        "members": [
          {
            "astId": 3463,
            "contract": "contracts/MotivationalFund.sol:MotivationalFund",
            "label": "_values",
            "offset": 0,
            "slot": "0",
            "type": "t_array(t_bytes32)dyn_storage"
          },
          {
            "astId": 3467,
            "contract": "contracts/MotivationalFund.sol:MotivationalFund",
            "label": "_indexes",
            "offset": 0,
            "slot": "1",
            "type": "t_mapping(t_bytes32,t_uint256)"
          }
        ],
        "numberOfBytes": "64"
      },
      "t_uint256": {
        "encoding": "inplace",
        "label": "uint256",
        "numberOfBytes": "32"
      },
      "t_uint8": {
        "encoding": "inplace",
        "label": "uint8",
        "numberOfBytes": "1"
      }
    }
  }
}