{
  "address": "0x33efB0868A6f12aEce19B451e0fcf62302Ec4A72",
  "abi": [
    {
      "inputs": [],
      "stateMutability": "nonpayable",
      "type": "constructor"
    },
    {
      "anonymous": false,
      "inputs": [
        {
          "indexed": false,
          "internalType": "address",
          "name": "previousAdmin",
          "type": "address"
        },
        {
          "indexed": false,
          "internalType": "address",
          "name": "newAdmin",
          "type": "address"
        }
      ],
      "name": "AdminChanged",
      "type": "event"
    },
    {
      "anonymous": false,
      "inputs": [
        {
          "indexed": true,
          "internalType": "address",
          "name": "beacon",
          "type": "address"
        }
      ],
      "name": "BeaconUpgraded",
      "type": "event"
    },
    {
      "anonymous": false,
      "inputs": [
        {
          "indexed": false,
          "internalType": "address",
          "name": "portfolio",
          "type": "address"
        }
      ],
      "name": "PortfolioManagerUpdated",
      "type": "event"
    },
    {
      "anonymous": false,
      "inputs": [
        {
          "indexed": true,
          "internalType": "bytes32",
          "name": "role",
          "type": "bytes32"
        },
        {
          "indexed": true,
          "internalType": "bytes32",
          "name": "previousAdminRole",
          "type": "bytes32"
        },
        {
          "indexed": true,
          "internalType": "bytes32",
          "name": "newAdminRole",
          "type": "bytes32"
        }
      ],
      "name": "RoleAdminChanged",
      "type": "event"
    },
    {
      "anonymous": false,
      "inputs": [
        {
          "indexed": true,
          "internalType": "bytes32",
          "name": "role",
          "type": "bytes32"
        },
        {
          "indexed": true,
          "internalType": "address",
          "name": "account",
          "type": "address"
        },
        {
          "indexed": true,
          "internalType": "address",
          "name": "sender",
          "type": "address"
        }
      ],
      "name": "RoleGranted",
      "type": "event"
    },
    {
      "anonymous": false,
      "inputs": [
        {
          "indexed": true,
          "internalType": "bytes32",
          "name": "role",
          "type": "bytes32"
        },
        {
          "indexed": true,
          "internalType": "address",
          "name": "account",
          "type": "address"
        },
        {
          "indexed": true,
          "internalType": "address",
          "name": "sender",
          "type": "address"
        }
      ],
      "name": "RoleRevoked",
      "type": "event"
    },
    {
      "anonymous": false,
      "inputs": [
        {
          "indexed": true,
          "internalType": "address",
          "name": "implementation",
          "type": "address"
        }
      ],
      "name": "Upgraded",
      "type": "event"
    },
    {
      "inputs": [],
      "name": "DEFAULT_ADMIN_ROLE",
      "outputs": [
        {
          "internalType": "bytes32",
          "name": "",
          "type": "bytes32"
        }
      ],
      "stateMutability": "view",
      "type": "function"
    },
    {
      "inputs": [],
      "name": "UPGRADER_ROLE",
      "outputs": [
        {
          "internalType": "bytes32",
          "name": "",
          "type": "bytes32"
        }
      ],
      "stateMutability": "view",
      "type": "function"
    },
    {
      "inputs": [
        {
          "internalType": "bytes32",
          "name": "role",
          "type": "bytes32"
        }
      ],
      "name": "getRoleAdmin",
      "outputs": [
        {
          "internalType": "bytes32",
          "name": "",
          "type": "bytes32"
        }
      ],
      "stateMutability": "view",
      "type": "function"
    },
    {
      "inputs": [
        {
          "internalType": "bytes32",
          "name": "role",
          "type": "bytes32"
        },
        {
          "internalType": "address",
          "name": "account",
          "type": "address"
        }
      ],
      "name": "grantRole",
      "outputs": [],
      "stateMutability": "nonpayable",
      "type": "function"
    },
    {
      "inputs": [
        {
          "internalType": "bytes32",
          "name": "role",
          "type": "bytes32"
        },
        {
          "internalType": "address",
          "name": "account",
          "type": "address"
        }
      ],
      "name": "hasRole",
      "outputs": [
        {
          "internalType": "bool",
          "name": "",
          "type": "bool"
        }
      ],
      "stateMutability": "view",
      "type": "function"
    },
    {
      "inputs": [],
      "name": "initialize",
      "outputs": [],
      "stateMutability": "nonpayable",
      "type": "function"
    },
    {
      "inputs": [],
      "name": "portfolioManager",
      "outputs": [
        {
          "internalType": "contract IPortfolioManager",
          "name": "",
          "type": "address"
        }
      ],
      "stateMutability": "view",
      "type": "function"
    },
    {
      "inputs": [],
      "name": "proxiableUUID",
      "outputs": [
        {
          "internalType": "bytes32",
          "name": "",
          "type": "bytes32"
        }
      ],
      "stateMutability": "view",
      "type": "function"
    },
    {
      "inputs": [
        {
          "internalType": "bytes32",
          "name": "role",
          "type": "bytes32"
        },
        {
          "internalType": "address",
          "name": "account",
          "type": "address"
        }
      ],
      "name": "renounceRole",
      "outputs": [],
      "stateMutability": "nonpayable",
      "type": "function"
    },
    {
      "inputs": [
        {
          "internalType": "bytes32",
          "name": "role",
          "type": "bytes32"
        },
        {
          "internalType": "address",
          "name": "account",
          "type": "address"
        }
      ],
      "name": "revokeRole",
      "outputs": [],
      "stateMutability": "nonpayable",
      "type": "function"
    },
    {
      "inputs": [
        {
          "internalType": "address",
          "name": "_value",
          "type": "address"
        }
      ],
      "name": "setPortfolioManager",
      "outputs": [],
      "stateMutability": "nonpayable",
      "type": "function"
    },
    {
      "inputs": [],
      "name": "strategyAssets",
      "outputs": [
        {
          "components": [
            {
              "internalType": "address",
              "name": "strategy",
              "type": "address"
            },
            {
              "internalType": "uint256",
              "name": "netAssetValue",
              "type": "uint256"
            },
            {
              "internalType": "uint256",
              "name": "liquidationValue",
              "type": "uint256"
            }
          ],
          "internalType": "struct IMark2Market.StrategyAsset[]",
          "name": "",
          "type": "tuple[]"
        }
      ],
      "stateMutability": "view",
      "type": "function"
    },
    {
      "inputs": [
        {
          "internalType": "bytes4",
          "name": "interfaceId",
          "type": "bytes4"
        }
      ],
      "name": "supportsInterface",
      "outputs": [
        {
          "internalType": "bool",
          "name": "",
          "type": "bool"
        }
      ],
      "stateMutability": "view",
      "type": "function"
    },
    {
      "inputs": [],
      "name": "totalLiquidationAssets",
      "outputs": [
        {
          "internalType": "uint256",
          "name": "",
          "type": "uint256"
        }
      ],
      "stateMutability": "view",
      "type": "function"
    },
    {
      "inputs": [],
      "name": "totalNetAssets",
      "outputs": [
        {
          "internalType": "uint256",
          "name": "",
          "type": "uint256"
        }
      ],
      "stateMutability": "view",
      "type": "function"
    },
    {
      "inputs": [
        {
          "internalType": "address",
          "name": "newImplementation",
          "type": "address"
        }
      ],
      "name": "upgradeTo",
      "outputs": [],
      "stateMutability": "nonpayable",
      "type": "function"
    },
    {
      "inputs": [
        {
          "internalType": "address",
          "name": "newImplementation",
          "type": "address"
        },
        {
          "internalType": "bytes",
          "name": "data",
          "type": "bytes"
        }
      ],
      "name": "upgradeToAndCall",
      "outputs": [],
      "stateMutability": "payable",
      "type": "function"
    }
  ],
  "numDeployments": 2,
  "solcInputHash": "28a58dcd122ef338f3a9118034eabd0f",
  "bytecode": "0x60a06040523060601b6080523480156200001857600080fd5b50600054610100900460ff16620000365760005460ff161562000040565b62000040620000e5565b620000a85760405162461bcd60e51b815260206004820152602e60248201527f496e697469616c697a61626c653a20636f6e747261637420697320616c72656160448201526d191e481a5b9a5d1a585b1a5e995960921b606482015260840160405180910390fd5b600054610100900460ff16158015620000cb576000805461ffff19166101011790555b8015620000de576000805461ff00191690555b5062000112565b6000620000fd306200010360201b62000b761760201c565b15905090565b6001600160a01b03163b151590565b60805160601c611aa56200014d6000396000818161043201528181610472015281816105120152818161055201526105e10152611aa56000f3fe6080604052600436106100fe5760003560e01c80638129fc1c11610095578063a217fddf11610064578063a217fddf14610297578063a440b21a146102ac578063b4d0c36b146102cc578063d547741f146102ee578063f72c0d8b1461030e57600080fd5b80638129fc1c14610238578063890a8c4f1461024d5780638e99426b1461026257806391d148541461027757600080fd5b80633659cfe6116100d15780633659cfe6146101b85780634f1ef286146101d857806352d1902d146101eb578063620b75df1461020057600080fd5b806301ffc9a714610103578063248a9ca3146101385780632f2ff15d1461017657806336568abe14610198575b600080fd5b34801561010f57600080fd5b5061012361011e3660046116f5565b610342565b60405190151581526020015b60405180910390f35b34801561014457600080fd5b50610168610153366004611693565b60009081526065602052604090206001015490565b60405190815260200161012f565b34801561018257600080fd5b506101966101913660046116c5565b610379565b005b3480156101a457600080fd5b506101966101b33660046116c5565b6103a4565b3480156101c457600080fd5b506101966101d33660046114bf565b610427565b6101966101e63660046114dc565b610507565b3480156101f757600080fd5b506101686105d4565b34801561020c57600080fd5b5060fb54610220906001600160a01b031681565b6040516001600160a01b03909116815260200161012f565b34801561024457600080fd5b50610196610687565b34801561025957600080fd5b50610168610784565b34801561026e57600080fd5b50610168610795565b34801561028357600080fd5b506101236102923660046116c5565b6107a1565b3480156102a357600080fd5b50610168600081565b3480156102b857600080fd5b506101966102c73660046114bf565b6107cc565b3480156102d857600080fd5b506102e16108c4565b60405161012f91906117b0565b3480156102fa57600080fd5b506101966103093660046116c5565b610b50565b34801561031a57600080fd5b506101687f189ab7a9244df0848122154315af71fe140f3db0fe014031783b0946b8c9d2e381565b60006001600160e01b03198216637965db0b60e01b148061037357506301ffc9a760e01b6001600160e01b03198316145b92915050565b6000828152606560205260409020600101546103958133610b85565b61039f8383610be9565b505050565b6001600160a01b03811633146104195760405162461bcd60e51b815260206004820152602f60248201527f416363657373436f6e74726f6c3a2063616e206f6e6c792072656e6f756e636560448201526e103937b632b9903337b91039b2b63360891b60648201526084015b60405180910390fd5b6104238282610c6f565b5050565b306001600160a01b037f00000000000000000000000000000000000000000000000000000000000000001614156104705760405162461bcd60e51b815260040161041090611845565b7f00000000000000000000000000000000000000000000000000000000000000006001600160a01b03166104b9600080516020611a29833981519152546001600160a01b031690565b6001600160a01b0316146104df5760405162461bcd60e51b815260040161041090611891565b6104e881610cd6565b6040805160008082526020820190925261050491839190610d01565b50565b306001600160a01b037f00000000000000000000000000000000000000000000000000000000000000001614156105505760405162461bcd60e51b815260040161041090611845565b7f00000000000000000000000000000000000000000000000000000000000000006001600160a01b0316610599600080516020611a29833981519152546001600160a01b031690565b6001600160a01b0316146105bf5760405162461bcd60e51b815260040161041090611891565b6105c882610cd6565b61042382826001610d01565b6000306001600160a01b037f000000000000000000000000000000000000000000000000000000000000000016146106745760405162461bcd60e51b815260206004820152603860248201527f555550535570677261646561626c653a206d757374206e6f742062652063616c60448201527f6c6564207468726f7567682064656c656761746563616c6c00000000000000006064820152608401610410565b50600080516020611a2983398151915290565b600054610100900460ff166106a25760005460ff16156106a6565b303b155b6107095760405162461bcd60e51b815260206004820152602e60248201527f496e697469616c697a61626c653a20636f6e747261637420697320616c72656160448201526d191e481a5b9a5d1a585b1a5e995960921b6064820152608401610410565b600054610100900460ff1615801561072b576000805461ffff19166101011790555b610733610e7b565b61073b610e7b565b610746600033610be9565b6107707f189ab7a9244df0848122154315af71fe140f3db0fe014031783b0946b8c9d2e333610be9565b8015610504576000805461ff001916905550565b60006107906000610ee8565b905090565b60006107906001610ee8565b60009182526065602090815260408084206001600160a01b0393909316845291905290205460ff1690565b6107d76000336107a1565b61081a5760405162461bcd60e51b81526020600482015260146024820152735265737472696374656420746f2061646d696e7360601b6044820152606401610410565b6001600160a01b0381166108705760405162461bcd60e51b815260206004820152601860248201527f5a65726f2061646472657373206e6f7420616c6c6f77656400000000000000006044820152606401610410565b60fb80546001600160a01b0319166001600160a01b0383169081179091556040519081527ff7b449fcd5cfb7379dcd34cb69428dd9f882033b15be33d83b42d91daa28eeb79060200160405180910390a150565b6060600060fb60009054906101000a90046001600160a01b03166001600160a01b031663f281d4386040518163ffffffff1660e01b815260040160006040518083038186803b15801561091657600080fd5b505afa15801561092a573d6000803e3d6000fd5b505050506040513d6000823e601f3d908101601f191682016040526109529190810190611584565b805190915060008167ffffffffffffffff811115610972576109726119fd565b6040519080825280602002602001820160405280156109d057816020015b6109bd604051806060016040528060006001600160a01b0316815260200160008152602001600081525090565b8152602001906001900390816109905790505b50905060005b828160ff161015610b48576000848260ff16815181106109f8576109f86119e7565b60200260200101519050600081600001519050604051806060016040528083600001516001600160a01b03168152602001826001600160a01b031663a3673b386040518163ffffffff1660e01b815260040160206040518083038186803b158015610a6257600080fd5b505afa158015610a76573d6000803e3d6000fd5b505050506040513d601f19601f82011682018060405250810190610a9a91906116ac565b8152602001826001600160a01b0316632576e65a6040518163ffffffff1660e01b815260040160206040518083038186803b158015610ad857600080fd5b505afa158015610aec573d6000803e3d6000fd5b505050506040513d601f19601f82011682018060405250810190610b1091906116ac565b815250848460ff1681518110610b2857610b286119e7565b602002602001018190525050508080610b40906119b1565b9150506109d6565b509392505050565b600082815260656020526040902060010154610b6c8133610b85565b61039f8383610c6f565b6001600160a01b03163b151590565b610b8f82826107a1565b61042357610ba7816001600160a01b031660146110d3565b610bb28360206110d3565b604051602001610bc392919061173b565b60408051601f198184030181529082905262461bcd60e51b825261041091600401611812565b610bf382826107a1565b6104235760008281526065602090815260408083206001600160a01b03851684529091529020805460ff19166001179055610c2b3390565b6001600160a01b0316816001600160a01b0316837f2f8788117e7eff1d82e926ec794901d17c78024a50270940304540a733656f0d60405160405180910390a45050565b610c7982826107a1565b156104235760008281526065602090815260408083206001600160a01b0385168085529252808320805460ff1916905551339285917ff6391f5c32d9c69d2a47ea670b442974b53935d1edc7fd64eb21e047a839171b9190a45050565b7f189ab7a9244df0848122154315af71fe140f3db0fe014031783b0946b8c9d2e36104238133610b85565b7f4910fdfa16fed3260ed0e7147f7cc6da11a60208b5b9406d12a635614ffd91435460ff1615610d345761039f83611276565b826001600160a01b03166352d1902d6040518163ffffffff1660e01b815260040160206040518083038186803b158015610d6d57600080fd5b505afa925050508015610d9d575060408051601f3d908101601f19168201909252610d9a918101906116ac565b60015b610e005760405162461bcd60e51b815260206004820152602e60248201527f45524331393637557067726164653a206e657720696d706c656d656e7461746960448201526d6f6e206973206e6f74205555505360901b6064820152608401610410565b600080516020611a298339815191528114610e6f5760405162461bcd60e51b815260206004820152602960248201527f45524331393637557067726164653a20756e737570706f727465642070726f786044820152681a58589b195555525160ba1b6064820152608401610410565b5061039f838383611312565b600054610100900460ff16610ee65760405162461bcd60e51b815260206004820152602b60248201527f496e697469616c697a61626c653a20636f6e7472616374206973206e6f74206960448201526a6e697469616c697a696e6760a81b6064820152608401610410565b565b60008060009050600060fb60009054906101000a90046001600160a01b03166001600160a01b031663f281d4386040518163ffffffff1660e01b815260040160006040518083038186803b158015610f3f57600080fd5b505afa158015610f53573d6000803e3d6000fd5b505050506040513d6000823e601f3d908101601f19168201604052610f7b9190810190611584565b905060005b81518160ff1610156110ca576000828260ff1681518110610fa357610fa36119e7565b6020026020010151600001519050851561103957806001600160a01b0316632576e65a6040518163ffffffff1660e01b815260040160206040518083038186803b158015610ff057600080fd5b505afa158015611004573d6000803e3d6000fd5b505050506040513d601f19601f8201168201806040525081019061102891906116ac565b6110329085611937565b93506110b7565b806001600160a01b031663a3673b386040518163ffffffff1660e01b815260040160206040518083038186803b15801561107257600080fd5b505afa158015611086573d6000803e3d6000fd5b505050506040513d601f19601f820116820180604052508101906110aa91906116ac565b6110b49085611937565b93505b50806110c2816119b1565b915050610f80565b50909392505050565b606060006110e283600261194f565b6110ed906002611937565b67ffffffffffffffff811115611105576111056119fd565b6040519080825280601f01601f19166020018201604052801561112f576020820181803683370190505b509050600360fc1b8160008151811061114a5761114a6119e7565b60200101906001600160f81b031916908160001a905350600f60fb1b81600181518110611179576111796119e7565b60200101906001600160f81b031916908160001a905350600061119d84600261194f565b6111a8906001611937565b90505b6001811115611220576f181899199a1a9b1b9c1cb0b131b232b360811b85600f16601081106111dc576111dc6119e7565b1a60f81b8282815181106111f2576111f26119e7565b60200101906001600160f81b031916908160001a90535060049490941c936112198161199a565b90506111ab565b50831561126f5760405162461bcd60e51b815260206004820181905260248201527f537472696e67733a20686578206c656e67746820696e73756666696369656e746044820152606401610410565b9392505050565b6001600160a01b0381163b6112e35760405162461bcd60e51b815260206004820152602d60248201527f455243313936373a206e657720696d706c656d656e746174696f6e206973206e60448201526c1bdd08184818dbdb9d1c9858dd609a1b6064820152608401610410565b600080516020611a2983398151915280546001600160a01b0319166001600160a01b0392909216919091179055565b61131b8361133d565b6000825111806113285750805b1561039f57611337838361137d565b50505050565b61134681611276565b6040516001600160a01b038216907fbc7cd75a20ee27fd9adebab32041f755214dbc6bffa90cc0225b39da2e5c2d3b90600090a250565b60606001600160a01b0383163b6113e55760405162461bcd60e51b815260206004820152602660248201527f416464726573733a2064656c65676174652063616c6c20746f206e6f6e2d636f6044820152651b9d1c9858dd60d21b6064820152608401610410565b600080846001600160a01b031684604051611400919061171f565b600060405180830381855af49150503d806000811461143b576040519150601f19603f3d011682016040523d82523d6000602084013e611440565b606091505b50915091506114688282604051806060016040528060278152602001611a4960279139611471565b95945050505050565b6060831561148057508161126f565b8251156114905782518084602001fd5b8160405162461bcd60e51b81526004016104109190611812565b805180151581146114ba57600080fd5b919050565b6000602082840312156114d157600080fd5b813561126f81611a13565b600080604083850312156114ef57600080fd5b82356114fa81611a13565b915060208381013567ffffffffffffffff8082111561151857600080fd5b818601915086601f83011261152c57600080fd5b81358181111561153e5761153e6119fd565b611550601f8201601f19168501611906565b9150808252878482850101111561156657600080fd5b80848401858401376000848284010152508093505050509250929050565b6000602080838503121561159757600080fd5b825167ffffffffffffffff808211156115af57600080fd5b818501915085601f8301126115c357600080fd5b8151818111156115d5576115d56119fd565b6115e3848260051b01611906565b818152848101925083850160c0808402860187018a101561160357600080fd5b60009550855b848110156116845781838c03121561161f578687fd5b6116276118dd565b835161163281611a13565b815283890151898201526040808501519082015260608085015190820152608061165d8186016114aa565b9082015260a061166e8582016114aa565b9082015286529487019491810191600101611609565b50919998505050505050505050565b6000602082840312156116a557600080fd5b5035919050565b6000602082840312156116be57600080fd5b5051919050565b600080604083850312156116d857600080fd5b8235915060208301356116ea81611a13565b809150509250929050565b60006020828403121561170757600080fd5b81356001600160e01b03198116811461126f57600080fd5b6000825161173181846020870161196e565b9190910192915050565b7f416363657373436f6e74726f6c3a206163636f756e742000000000000000000081526000835161177381601785016020880161196e565b7001034b99036b4b9b9b4b733903937b6329607d1b60179184019182015283516117a481602884016020880161196e565b01602801949350505050565b602080825282518282018190526000919060409081850190868401855b8281101561180557815180516001600160a01b03168552868101518786015285015185850152606090930192908501906001016117cd565b5091979650505050505050565b602081526000825180602084015261183181604085016020870161196e565b601f01601f19169190910160400192915050565b6020808252602c908201527f46756e6374696f6e206d7573742062652063616c6c6564207468726f7567682060408201526b19195b1959d85d1958d85b1b60a21b606082015260800190565b6020808252602c908201527f46756e6374696f6e206d7573742062652063616c6c6564207468726f7567682060408201526b6163746976652070726f787960a01b606082015260800190565b60405160c0810167ffffffffffffffff81118282101715611900576119006119fd565b60405290565b604051601f8201601f1916810167ffffffffffffffff8111828210171561192f5761192f6119fd565b604052919050565b6000821982111561194a5761194a6119d1565b500190565b6000816000190483118215151615611969576119696119d1565b500290565b60005b83811015611989578181015183820152602001611971565b838111156113375750506000910152565b6000816119a9576119a96119d1565b506000190190565b600060ff821660ff8114156119c8576119c86119d1565b60010192915050565b634e487b7160e01b600052601160045260246000fd5b634e487b7160e01b600052603260045260246000fd5b634e487b7160e01b600052604160045260246000fd5b6001600160a01b038116811461050457600080fdfe360894a13ba1a3210667c828492db98dca3e2076cc3735a920a3ca505d382bbc416464726573733a206c6f772d6c6576656c2064656c65676174652063616c6c206661696c6564a2646970667358221220ca6a78a5341285d64a3af87b4d2f9f0699f2bdef5b59c63900ba61e8f1ee338564736f6c63430008060033",
  "devdoc": {
    "kind": "dev",
    "methods": {
      "constructor": {
        "custom:oz-upgrades-unsafe-allow": "constructor"
      },
      "getRoleAdmin(bytes32)": {
        "details": "Returns the admin role that controls `role`. See {grantRole} and {revokeRole}. To change a role's admin, use {_setRoleAdmin}."
      },
      "grantRole(bytes32,address)": {
        "details": "Grants `role` to `account`. If `account` had not been already granted `role`, emits a {RoleGranted} event. Requirements: - the caller must have ``role``'s admin role."
      },
      "hasRole(bytes32,address)": {
        "details": "Returns `true` if `account` has been granted `role`."
      },
      "proxiableUUID()": {
        "details": "Implementation of the ERC1822 {proxiableUUID} function. This returns the storage slot used by the implementation. It is used to validate that the this implementation remains valid after an upgrade. IMPORTANT: A proxy pointing at a proxiable contract should not be considered proxiable itself, because this risks bricking a proxy that upgrades to it, by delegating to itself until out of gas. Thus it is critical that this function revert if invoked through a proxy. This is guaranteed by the `notDelegated` modifier."
      },
      "renounceRole(bytes32,address)": {
        "details": "Revokes `role` from the calling account. Roles are often managed via {grantRole} and {revokeRole}: this function's purpose is to provide a mechanism for accounts to lose their privileges if they are compromised (such as when a trusted device is misplaced). If the calling account had been revoked `role`, emits a {RoleRevoked} event. Requirements: - the caller must be `account`."
      },
      "revokeRole(bytes32,address)": {
        "details": "Revokes `role` from `account`. If `account` had been granted `role`, emits a {RoleRevoked} event. Requirements: - the caller must have ``role``'s admin role."
      },
      "supportsInterface(bytes4)": {
        "details": "See {IERC165-supportsInterface}."
      },
      "upgradeTo(address)": {
        "details": "Upgrade the implementation of the proxy to `newImplementation`. Calls {_authorizeUpgrade}. Emits an {Upgraded} event."
      },
      "upgradeToAndCall(address,bytes)": {
        "details": "Upgrade the implementation of the proxy to `newImplementation`, and subsequently execute the function call encoded in `data`. Calls {_authorizeUpgrade}. Emits an {Upgraded} event."
      }
    },
    "version": 1
  },
  "userdoc": {
    "kind": "user",
    "methods": {},
    "version": 1
  },
  "storageLayout": {
    "storage": [
      {
        "astId": 797,
        "contract": "contracts/Mark2Market.sol:Mark2Market",
        "label": "_initialized",
        "offset": 0,
        "slot": "0",
        "type": "t_bool"
      },
      {
        "astId": 800,
        "contract": "contracts/Mark2Market.sol:Mark2Market",
        "label": "_initializing",
        "offset": 1,
        "slot": "0",
        "type": "t_bool"
      },
      {
        "astId": 2394,
        "contract": "contracts/Mark2Market.sol:Mark2Market",
        "label": "__gap",
        "offset": 0,
        "slot": "1",
        "type": "t_array(t_uint256)50_storage"
      },
      {
        "astId": 2701,
        "contract": "contracts/Mark2Market.sol:Mark2Market",
        "label": "__gap",
        "offset": 0,
        "slot": "51",
        "type": "t_array(t_uint256)50_storage"
      },
      {
        "astId": 39,
        "contract": "contracts/Mark2Market.sol:Mark2Market",
        "label": "_roles",
        "offset": 0,
        "slot": "101",
        "type": "t_mapping(t_bytes32,t_struct(RoleData)34_storage)"
      },
      {
        "astId": 327,
        "contract": "contracts/Mark2Market.sol:Mark2Market",
        "label": "__gap",
        "offset": 0,
        "slot": "102",
        "type": "t_array(t_uint256)49_storage"
      },
      {
        "astId": 779,
        "contract": "contracts/Mark2Market.sol:Mark2Market",
        "label": "__gap",
        "offset": 0,
        "slot": "151",
        "type": "t_array(t_uint256)50_storage"
      },
      {
        "astId": 999,
        "contract": "contracts/Mark2Market.sol:Mark2Market",
        "label": "__gap",
        "offset": 0,
        "slot": "201",
        "type": "t_array(t_uint256)50_storage"
      },
      {
        "astId": 5412,
        "contract": "contracts/Mark2Market.sol:Mark2Market",
        "label": "portfolioManager",
        "offset": 0,
        "slot": "251",
        "type": "t_contract(IPortfolioManager)8971"
      }
    ],
    "types": {
      "t_address": {
        "encoding": "inplace",
        "label": "address",
        "numberOfBytes": "20"
      },
      "t_array(t_uint256)49_storage": {
        "base": "t_uint256",
        "encoding": "inplace",
        "label": "uint256[49]",
        "numberOfBytes": "1568"
      },
      "t_array(t_uint256)50_storage": {
        "base": "t_uint256",
        "encoding": "inplace",
        "label": "uint256[50]",
        "numberOfBytes": "1600"
      },
      "t_bool": {
        "encoding": "inplace",
        "label": "bool",
        "numberOfBytes": "1"
      },
      "t_bytes32": {
        "encoding": "inplace",
        "label": "bytes32",
        "numberOfBytes": "32"
      },
      "t_contract(IPortfolioManager)8971": {
        "encoding": "inplace",
        "label": "contract IPortfolioManager",
        "numberOfBytes": "20"
      },
      "t_mapping(t_address,t_bool)": {
        "encoding": "mapping",
        "key": "t_address",
        "label": "mapping(address => bool)",
        "numberOfBytes": "32",
        "value": "t_bool"
      },
      "t_mapping(t_bytes32,t_struct(RoleData)34_storage)": {
        "encoding": "mapping",
        "key": "t_bytes32",
        "label": "mapping(bytes32 => struct AccessControlUpgradeable.RoleData)",
        "numberOfBytes": "32",
        "value": "t_struct(RoleData)34_storage"
      },
      "t_struct(RoleData)34_storage": {
        "encoding": "inplace",
        "label": "struct AccessControlUpgradeable.RoleData",
        "members": [
          {
            "astId": 31,
            "contract": "contracts/Mark2Market.sol:Mark2Market",
            "label": "members",
            "offset": 0,
            "slot": "0",
            "type": "t_mapping(t_address,t_bool)"
          },
          {
            "astId": 33,
            "contract": "contracts/Mark2Market.sol:Mark2Market",
            "label": "adminRole",
            "offset": 0,
            "slot": "1",
            "type": "t_bytes32"
          }
        ],
        "numberOfBytes": "64"
      },
      "t_uint256": {
        "encoding": "inplace",
        "label": "uint256",
        "numberOfBytes": "32"
      }
    }
  }
}