{
  "address": "0x5d9D8509C522a47D9285b9e4e9ec686e6A580850",
  "abi": [
    {
      "inputs": [
        {
          "internalType": "address",
          "name": "usdPlusTokenAddress",
          "type": "address"
        }
      ],
      "stateMutability": "nonpayable",
      "type": "constructor"
    },
    {
      "anonymous": false,
      "inputs": [
        {
          "indexed": true,
          "internalType": "address",
          "name": "owner",
          "type": "address"
        },
        {
          "indexed": true,
          "internalType": "address",
          "name": "spender",
          "type": "address"
        },
        {
          "indexed": false,
          "internalType": "uint256",
          "name": "value",
          "type": "uint256"
        }
      ],
      "name": "Approval",
      "type": "event"
    },
    {
      "anonymous": false,
      "inputs": [
        {
          "indexed": true,
          "internalType": "address",
          "name": "caller",
          "type": "address"
        },
        {
          "indexed": true,
          "internalType": "address",
          "name": "owner",
          "type": "address"
        },
        {
          "indexed": false,
          "internalType": "uint256",
          "name": "assets",
          "type": "uint256"
        },
        {
          "indexed": false,
          "internalType": "uint256",
          "name": "shares",
          "type": "uint256"
        }
      ],
      "name": "Deposit",
      "type": "event"
    },
    {
      "anonymous": false,
      "inputs": [
        {
          "indexed": true,
          "internalType": "address",
          "name": "from",
          "type": "address"
        },
        {
          "indexed": true,
          "internalType": "address",
          "name": "to",
          "type": "address"
        },
        {
          "indexed": false,
          "internalType": "uint256",
          "name": "value",
          "type": "uint256"
        }
      ],
      "name": "Transfer",
      "type": "event"
    },
    {
      "anonymous": false,
      "inputs": [
        {
          "indexed": true,
          "internalType": "address",
          "name": "caller",
          "type": "address"
        },
        {
          "indexed": true,
          "internalType": "address",
          "name": "receiver",
          "type": "address"
        },
        {
          "indexed": true,
          "internalType": "address",
          "name": "owner",
          "type": "address"
        },
        {
          "indexed": false,
          "internalType": "uint256",
          "name": "assets",
          "type": "uint256"
        },
        {
          "indexed": false,
          "internalType": "uint256",
          "name": "shares",
          "type": "uint256"
        }
      ],
      "name": "Withdraw",
      "type": "event"
    },
    {
      "inputs": [
        {
          "internalType": "address",
          "name": "owner",
          "type": "address"
        },
        {
          "internalType": "address",
          "name": "spender",
          "type": "address"
        }
      ],
      "name": "allowance",
      "outputs": [
        {
          "internalType": "uint256",
          "name": "",
          "type": "uint256"
        }
      ],
      "stateMutability": "view",
      "type": "function"
    },
    {
      "inputs": [
        {
          "internalType": "address",
          "name": "spender",
          "type": "address"
        },
        {
          "internalType": "uint256",
          "name": "amount",
          "type": "uint256"
        }
      ],
      "name": "approve",
      "outputs": [
        {
          "internalType": "bool",
          "name": "",
          "type": "bool"
        }
      ],
      "stateMutability": "nonpayable",
      "type": "function"
    },
    {
      "inputs": [],
      "name": "asset",
      "outputs": [
        {
          "internalType": "address",
          "name": "",
          "type": "address"
        }
      ],
      "stateMutability": "view",
      "type": "function"
    },
    {
      "inputs": [
        {
          "internalType": "address",
          "name": "depositor",
          "type": "address"
        }
      ],
      "name": "assetsOf",
      "outputs": [
        {
          "internalType": "uint256",
          "name": "",
          "type": "uint256"
        }
      ],
      "stateMutability": "view",
      "type": "function"
    },
    {
      "inputs": [
        {
          "internalType": "address",
          "name": "account",
          "type": "address"
        }
      ],
      "name": "balanceOf",
      "outputs": [
        {
          "internalType": "uint256",
          "name": "",
          "type": "uint256"
        }
      ],
      "stateMutability": "view",
      "type": "function"
    },
    {
      "inputs": [],
      "name": "decimals",
      "outputs": [
        {
          "internalType": "uint8",
          "name": "",
          "type": "uint8"
        }
      ],
      "stateMutability": "view",
      "type": "function"
    },
    {
      "inputs": [
        {
          "internalType": "address",
          "name": "spender",
          "type": "address"
        },
        {
          "internalType": "uint256",
          "name": "subtractedValue",
          "type": "uint256"
        }
      ],
      "name": "decreaseAllowance",
      "outputs": [
        {
          "internalType": "bool",
          "name": "",
          "type": "bool"
        }
      ],
      "stateMutability": "nonpayable",
      "type": "function"
    },
    {
      "inputs": [
        {
          "internalType": "uint256",
          "name": "assets",
          "type": "uint256"
        },
        {
          "internalType": "address",
          "name": "receiver",
          "type": "address"
        }
      ],
      "name": "deposit",
      "outputs": [
        {
          "internalType": "uint256",
          "name": "",
          "type": "uint256"
        }
      ],
      "stateMutability": "nonpayable",
      "type": "function"
    },
    {
      "inputs": [
        {
          "internalType": "address",
          "name": "account",
          "type": "address"
        }
      ],
      "name": "dynamicBalanceOf",
      "outputs": [
        {
          "internalType": "uint256",
          "name": "",
          "type": "uint256"
        }
      ],
      "stateMutability": "view",
      "type": "function"
    },
    {
      "inputs": [
        {
          "internalType": "uint256",
          "name": "amount",
          "type": "uint256"
        }
      ],
      "name": "dynamicToStaticAmount",
      "outputs": [
        {
          "internalType": "uint256",
          "name": "",
          "type": "uint256"
        }
      ],
      "stateMutability": "view",
      "type": "function"
    },
    {
      "inputs": [
        {
          "internalType": "address",
          "name": "spender",
          "type": "address"
        },
        {
          "internalType": "uint256",
          "name": "addedValue",
          "type": "uint256"
        }
      ],
      "name": "increaseAllowance",
      "outputs": [
        {
          "internalType": "bool",
          "name": "",
          "type": "bool"
        }
      ],
      "stateMutability": "nonpayable",
      "type": "function"
    },
    {
      "inputs": [],
      "name": "mainToken",
      "outputs": [
        {
          "internalType": "address",
          "name": "",
          "type": "address"
        }
      ],
      "stateMutability": "view",
      "type": "function"
    },
    {
      "inputs": [],
      "name": "name",
      "outputs": [
        {
          "internalType": "string",
          "name": "",
          "type": "string"
        }
      ],
      "stateMutability": "view",
      "type": "function"
    },
    {
      "inputs": [],
      "name": "rate",
      "outputs": [
        {
          "internalType": "uint256",
          "name": "",
          "type": "uint256"
        }
      ],
      "stateMutability": "view",
      "type": "function"
    },
    {
      "inputs": [
        {
          "internalType": "uint256",
          "name": "shares",
          "type": "uint256"
        },
        {
          "internalType": "address",
          "name": "receiver",
          "type": "address"
        },
        {
          "internalType": "address",
          "name": "owner",
          "type": "address"
        }
      ],
      "name": "redeem",
      "outputs": [
        {
          "internalType": "uint256",
          "name": "",
          "type": "uint256"
        }
      ],
      "stateMutability": "nonpayable",
      "type": "function"
    },
    {
      "inputs": [
        {
          "internalType": "uint256",
          "name": "amount",
          "type": "uint256"
        }
      ],
      "name": "staticToDynamicAmount",
      "outputs": [
        {
          "internalType": "uint256",
          "name": "",
          "type": "uint256"
        }
      ],
      "stateMutability": "view",
      "type": "function"
    },
    {
      "inputs": [],
      "name": "symbol",
      "outputs": [
        {
          "internalType": "string",
          "name": "",
          "type": "string"
        }
      ],
      "stateMutability": "view",
      "type": "function"
    },
    {
      "inputs": [],
      "name": "totalAssets",
      "outputs": [
        {
          "internalType": "uint256",
          "name": "",
          "type": "uint256"
        }
      ],
      "stateMutability": "view",
      "type": "function"
    },
    {
      "inputs": [],
      "name": "totalSupply",
      "outputs": [
        {
          "internalType": "uint256",
          "name": "",
          "type": "uint256"
        }
      ],
      "stateMutability": "view",
      "type": "function"
    },
    {
      "inputs": [
        {
          "internalType": "address",
          "name": "recipient",
          "type": "address"
        },
        {
          "internalType": "uint256",
          "name": "amount",
          "type": "uint256"
        }
      ],
      "name": "transfer",
      "outputs": [
        {
          "internalType": "bool",
          "name": "",
          "type": "bool"
        }
      ],
      "stateMutability": "nonpayable",
      "type": "function"
    },
    {
      "inputs": [
        {
          "internalType": "address",
          "name": "sender",
          "type": "address"
        },
        {
          "internalType": "address",
          "name": "recipient",
          "type": "address"
        },
        {
          "internalType": "uint256",
          "name": "amount",
          "type": "uint256"
        }
      ],
      "name": "transferFrom",
      "outputs": [
        {
          "internalType": "bool",
          "name": "",
          "type": "bool"
        }
      ],
      "stateMutability": "nonpayable",
      "type": "function"
    }
  ],
  "transactionHash": "0x6392d805b5ca0515862ad85e10450708304d2a5717daaa701e4d3ad3ee74b23f",
  "args": [
    "0x236eeC6359fb44CCe8f97E99387aa7F8cd5cdE1f"
  ],
  "solcInputHash": "8c725d66a56f11e90bba792301056675",
  "bytecode": "0x60806040523480156200001157600080fd5b506040516200176938038062001769833981016040819052620000349162000170565b604080518082018252601281527129ba30ba34b1aab9b228363ab9aa37b5b2b760711b6020808301918252835180850190945260048452635553442b60e01b9084015281519192916200008a91600391620000ca565b508051620000a0906004906020840190620000ca565b5050600580546001600160a01b0319166001600160a01b03939093169290921790915550620001df565b828054620000d890620001a2565b90600052602060002090601f016020900481019282620000fc576000855562000147565b82601f106200011757805160ff191683800117855562000147565b8280016001018555821562000147579182015b82811115620001475782518255916020019190600101906200012a565b506200015592915062000159565b5090565b5b808211156200015557600081556001016200015a565b6000602082840312156200018357600080fd5b81516001600160a01b03811681146200019b57600080fd5b9392505050565b600181811c90821680620001b757607f821691505b60208210811415620001d957634e487b7160e01b600052602260045260246000fd5b50919050565b61157a80620001ef6000396000f3fe608060405234801561001057600080fd5b50600436106101375760003560e01c806339509351116100b857806395d89b411161007c57806395d89b4114610264578063a457c2d71461026c578063a9059cbb1461027f578063ba08765214610292578063dd62ed3e146102a5578063f57d0b40146102de57600080fd5b806339509351146102025780633fc15f15146101e757806344b68c3f146102155780636e553f651461022857806370a082311461023b57600080fd5b80632c4e722e116100ff5780632c4e722e146101aa5780632c62fa10146101b2578063313ce567146101c557806336a5a6d6146101d457806338d52e0f146101e757600080fd5b806301e1d1141461013c57806306fdde0314610157578063095ea7b31461016c57806318160ddd1461018f57806323b872dd14610197575b600080fd5b6101446102f1565b6040519081526020015b60405180910390f35b61015f610304565b60405161014e91906113a6565b61017f61017a3660046112c9565b610396565b604051901515815260200161014e565b600254610144565b61017f6101a536600461128d565b6103ad565b61014461045c565b6101446101c036600461123f565b6104d9565b6040516006815260200161014e565b6101446101e2366004611315565b61059b565b6005546040516001600160a01b03909116815260200161014e565b61017f6102103660046112c9565b61062d565b61014461022336600461123f565b610669565b610144610236366004611347565b61068b565b61014461024936600461123f565b6001600160a01b031660009081526020819052604090205490565b61015f6107ef565b61017f61027a3660046112c9565b6107fe565b61017f61028d3660046112c9565b610897565b6101446102a036600461136a565b6108a4565b6101446102b336600461125a565b6001600160a01b03918216600090815260016020908152604080832093909416825291909152205490565b6101446102ec366004611315565b610b00565b60006102ff6102ec60025490565b905090565b606060038054610313906114f3565b80601f016020809104026020016040519081016040528092919081815260200182805461033f906114f3565b801561038c5780601f106103615761010080835404028352916020019161038c565b820191906000526020600020905b81548152906001019060200180831161036f57829003601f168201915b5050505050905090565b60006103a3338484610b92565b5060015b92915050565b60006103ba848484610cb7565b6001600160a01b0384166000908152600160209081526040808320338452909152902054828110156104445760405162461bcd60e51b815260206004820152602860248201527f45524332303a207472616e7366657220616d6f756e74206578636565647320616044820152676c6c6f77616e636560c01b60648201526084015b60405180910390fd5b6104518533858403610b92565b506001949350505050565b6005546040805163bbf44f3360e01b815290516000926001600160a01b03169163bbf44f33916004808301926020929190829003018186803b1580156104a157600080fd5b505afa1580156104b5573d6000803e3d6000fd5b505050506040513d601f19601f820116820180604052508101906102ff919061132e565b60006b033b2e3c9fd0803ce8000000600560009054906101000a90046001600160a01b03166001600160a01b031663bbf44f336040518163ffffffff1660e01b815260040160206040518083038186803b15801561053657600080fd5b505afa15801561054a573d6000803e3d6000fd5b505050506040513d601f19601f8201168201806040525081019061056e919061132e565b6001600160a01b03841660009081526020819052604090205461059191906114bd565b6103a7919061149b565b60006103a7600560009054906101000a90046001600160a01b03166001600160a01b031663bbf44f336040518163ffffffff1660e01b815260040160206040518083038186803b1580156105ee57600080fd5b505afa158015610602573d6000803e3d6000fd5b505050506040513d601f19601f82011682018060405250810190610626919061132e565b8390610e86565b3360008181526001602090815260408083206001600160a01b038716845290915281205490916103a3918590610664908690611483565b610b92565b6001600160a01b0381166000908152602081905260408120546103a790610b00565b6000826106da5760405162461bcd60e51b815260206004820152601760248201527f5a65726f20617373657473206e6f7420616c6c6f776564000000000000000000604482015260640161043b565b6001600160a01b0382166107005760405162461bcd60e51b815260040161043b906113fb565b6005546040516323b872dd60e01b8152336004820152306024820152604481018590526001600160a01b03909116906323b872dd90606401602060405180830381600087803b15801561075257600080fd5b505af1158015610766573d6000803e3d6000fd5b505050506040513d601f19601f8201168201806040525081019061078a91906112f3565b5060006107968461059b565b90506107a28382610f5a565b60408051858152602081018390526001600160a01b0385169133917fdcbc1c05240f31ff3ad067ef1ee35ce4997762752e3a095284754544f4c709d7910160405180910390a39392505050565b606060048054610313906114f3565b3360009081526001602090815260408083206001600160a01b0386168452909152812054828110156108805760405162461bcd60e51b815260206004820152602560248201527f45524332303a2064656372656173656420616c6c6f77616e63652062656c6f77604482015264207a65726f60d81b606482015260840161043b565b61088d3385858403610b92565b5060019392505050565b60006103a3338484610cb7565b6000836108f35760405162461bcd60e51b815260206004820152601760248201527f5a65726f20736861726573206e6f7420616c6c6f776564000000000000000000604482015260640161043b565b6001600160a01b0383166109195760405162461bcd60e51b815260040161043b906113fb565b6001600160a01b03821661097a5760405162461bcd60e51b815260206004820152602260248201527f5a65726f206164647265737320666f72206f776e6572206e6f7420616c6c6f77604482015261195960f21b606482015260840161043b565b6001600160a01b0382163314610a0f576001600160a01b0382166000908152600160209081526040808320338452909152902054848110156109fe5760405162461bcd60e51b815260206004820152601f60248201527f52656465656d20616d6f756e74206578636565647320616c6c6f77616e636500604482015260640161043b565b610a0d833361066488856114dc565b505b610a198285611039565b6000610a2485610b00565b60055460405163a9059cbb60e01b81526001600160a01b0387811660048301526024820184905292935091169063a9059cbb90604401602060405180830381600087803b158015610a7457600080fd5b505af1158015610a88573d6000803e3d6000fd5b505050506040513d601f19601f82011682018060405250810190610aac91906112f3565b5060408051828152602081018790526001600160a01b03808616929087169133917ffbde797d201c681b91056529119e0b02407c7bb96a4a2c75c01fc9667232c8db910160405180910390a4949350505050565b60006103a7600560009054906101000a90046001600160a01b03166001600160a01b031663bbf44f336040518163ffffffff1660e01b815260040160206040518083038186803b158015610b5357600080fd5b505afa158015610b67573d6000803e3d6000fd5b505050506040513d601f19601f82011682018060405250810190610b8b919061132e565b839061117f565b6001600160a01b038316610bf45760405162461bcd60e51b8152602060048201526024808201527f45524332303a20617070726f76652066726f6d20746865207a65726f206164646044820152637265737360e01b606482015260840161043b565b6001600160a01b038216610c555760405162461bcd60e51b815260206004820152602260248201527f45524332303a20617070726f766520746f20746865207a65726f206164647265604482015261737360f01b606482015260840161043b565b6001600160a01b0383811660008181526001602090815260408083209487168084529482529182902085905590518481527f8c5be1e5ebec7d5bd14f71427d1e84f3dd0314c0f7b2291e5b200ac8c7c3b92591015b60405180910390a3505050565b6001600160a01b038316610d1b5760405162461bcd60e51b815260206004820152602560248201527f45524332303a207472616e736665722066726f6d20746865207a65726f206164604482015264647265737360d81b606482015260840161043b565b6001600160a01b038216610d7d5760405162461bcd60e51b815260206004820152602360248201527f45524332303a207472616e7366657220746f20746865207a65726f206164647260448201526265737360e81b606482015260840161043b565b6001600160a01b03831660009081526020819052604090205481811015610df55760405162461bcd60e51b815260206004820152602660248201527f45524332303a207472616e7366657220616d6f756e7420657863656564732062604482015265616c616e636560d01b606482015260840161043b565b6001600160a01b03808516600090815260208190526040808220858503905591851681529081208054849290610e2c908490611483565b92505081905550826001600160a01b0316846001600160a01b03167fddf252ad1be2c89b69c2b068fc378daa952ba7f163c4a11628f55a4df523b3ef84604051610e7891815260200190565b60405180910390a350505050565b600081610ed55760405162461bcd60e51b815260206004820152601c60248201527f4572726f72732e4d4154485f4449564953494f4e5f42595f5a45524f00000000604482015260640161043b565b6000610ee260028461149b565b90506b033b2e3c9fd0803ce8000000610efd826000196114dc565b610f07919061149b565b841115610f265760405162461bcd60e51b815260040161043b90611440565b8281610f3e6b033b2e3c9fd0803ce8000000876114bd565b610f489190611483565b610f52919061149b565b949350505050565b6001600160a01b038216610fb05760405162461bcd60e51b815260206004820152601f60248201527f45524332303a206d696e7420746f20746865207a65726f206164647265737300604482015260640161043b565b8060026000828254610fc29190611483565b90915550506001600160a01b03821660009081526020819052604081208054839290610fef908490611483565b90915550506040518181526001600160a01b038316906000907fddf252ad1be2c89b69c2b068fc378daa952ba7f163c4a11628f55a4df523b3ef9060200160405180910390a35050565b6001600160a01b0382166110995760405162461bcd60e51b815260206004820152602160248201527f45524332303a206275726e2066726f6d20746865207a65726f206164647265736044820152607360f81b606482015260840161043b565b6001600160a01b0382166000908152602081905260409020548181101561110d5760405162461bcd60e51b815260206004820152602260248201527f45524332303a206275726e20616d6f756e7420657863656564732062616c616e604482015261636560f01b606482015260840161043b565b6001600160a01b038316600090815260208190526040812083830390556002805484929061113c9084906114dc565b90915550506040518281526000906001600160a01b038516907fddf252ad1be2c89b69c2b068fc378daa952ba7f163c4a11628f55a4df523b3ef90602001610caa565b600082158061118c575081155b15611199575060006103a7565b816111b160026b033b2e3c9fd0803ce800000061149b565b6111bd906000196114dc565b6111c7919061149b565b8311156111e65760405162461bcd60e51b815260040161043b90611440565b6b033b2e3c9fd0803ce80000006111fe60028261149b565b61120884866114bd565b6112129190611483565b61121c919061149b565b9392505050565b80356001600160a01b038116811461123a57600080fd5b919050565b60006020828403121561125157600080fd5b61121c82611223565b6000806040838503121561126d57600080fd5b61127683611223565b915061128460208401611223565b90509250929050565b6000806000606084860312156112a257600080fd5b6112ab84611223565b92506112b960208501611223565b9150604084013590509250925092565b600080604083850312156112dc57600080fd5b6112e583611223565b946020939093013593505050565b60006020828403121561130557600080fd5b8151801515811461121c57600080fd5b60006020828403121561132757600080fd5b5035919050565b60006020828403121561134057600080fd5b5051919050565b6000806040838503121561135a57600080fd5b8235915061128460208401611223565b60008060006060848603121561137f57600080fd5b8335925061138f60208501611223565b915061139d60408501611223565b90509250925092565b600060208083528351808285015260005b818110156113d3578581018301518582016040015282016113b7565b818111156113e5576000604083870101525b50601f01601f1916929092016040019392505050565b60208082526025908201527f5a65726f206164647265737320666f72207265636569766572206e6f7420616c6040820152641b1bddd95960da1b606082015260800190565b60208082526023908201527f4572726f72732e4d4154485f4d554c5449504c49434154494f4e5f4f564552466040820152624c4f5760e81b606082015260800190565b600082198211156114965761149661152e565b500190565b6000826114b857634e487b7160e01b600052601260045260246000fd5b500490565b60008160001904831182151516156114d7576114d761152e565b500290565b6000828210156114ee576114ee61152e565b500390565b600181811c9082168061150757607f821691505b6020821081141561152857634e487b7160e01b600052602260045260246000fd5b50919050565b634e487b7160e01b600052601160045260246000fdfea264697066735822122042aaa5261ce16d264a902cc7bb4b3f4655904eaa4c0f91bbcdd937f7e331b27264736f6c63430008060033",
  "devdoc": {
    "kind": "dev",
    "methods": {
      "allowance(address,address)": {
        "details": "See {IERC20-allowance}."
      },
      "approve(address,uint256)": {
        "details": "See {IERC20-approve}. Requirements: - `spender` cannot be the zero address."
      },
      "asset()": {
        "details": "The address of the underlying token used for the Vault uses for accounting, depositing, and withdrawing*"
      },
      "assetsOf(address)": {
        "details": "Total number of underlying assets that depositors shares represent.*"
      },
      "balanceOf(address)": {
        "details": "See {IERC20-balanceOf}."
      },
      "constructor": {
        "params": {
          "usdPlusTokenAddress": "The address of UsdPlusToken, this is `asset` in 4626 terms"
        }
      },
      "decimals()": {
        "details": "Returns the number of decimals used to get its user representation. For example, if `decimals` equals `2`, a balance of `505` tokens should be displayed to a user as `5.05` (`505 / 10 ** 2`). Tokens usually opt for a value of 18, imitating the relationship between Ether and Wei. This is the value {ERC20} uses, unless this function is overridden; NOTE: This information is only used for _display_ purposes: it in no way affects any of the arithmetic of the contract, including {IERC20-balanceOf} and {IERC20-transfer}."
      },
      "decreaseAllowance(address,uint256)": {
        "details": "Atomically decreases the allowance granted to `spender` by the caller. This is an alternative to {approve} that can be used as a mitigation for problems described in {IERC20-approve}. Emits an {Approval} event indicating the updated allowance. Requirements: - `spender` cannot be the zero address. - `spender` must have allowance for the caller of at least `subtractedValue`."
      },
      "deposit(uint256,address)": {
        "details": "Mints `shares` Vault shares to `receiver` by depositing exactly `amount` of underlying tokens."
      },
      "dynamicBalanceOf(address)": {
        "details": "Utility method to get the current UsdPlusToken balance of an user",
        "params": {
          "account": "The address of the user"
        },
        "returns": {
          "_0": "uint256 The UsdPlusToken balance*"
        }
      },
      "dynamicToStaticAmount(uint256)": {
        "details": "Utility method to get converted from dynamic to static amount by rate",
        "params": {
          "amount": "The dynamic amount (UsdPlusToken) to convert from"
        },
        "returns": {
          "_0": "uint256 The static amount (StaticUsdPlusToken)*"
        }
      },
      "increaseAllowance(address,uint256)": {
        "details": "Atomically increases the allowance granted to `spender` by the caller. This is an alternative to {approve} that can be used as a mitigation for problems described in {IERC20-approve}. Emits an {Approval} event indicating the updated allowance. Requirements: - `spender` cannot be the zero address."
      },
      "mainToken()": {
        "details": "Returns UsdPlusToken address",
        "returns": {
          "_0": "address The address of UsdPlusToken*"
        }
      },
      "name()": {
        "details": "Returns the name of the token."
      },
      "rate()": {
        "details": "Returns UsdPlusToken liquidity index in e27 (ray)",
        "returns": {
          "_0": "rate Rate between StaticUsdPlusToken and UsdPlusToken in e27 (ray)*"
        }
      },
      "redeem(uint256,address,address)": {
        "details": "Redeems `shares` from `owner` and sends `assets` of underlying tokens to `receiver`."
      },
      "staticToDynamicAmount(uint256)": {
        "details": "Utility method to get converted from static to dynamic amount by rate",
        "params": {
          "amount": "The static amount (StaticUsdPlusToken) to convert from"
        },
        "returns": {
          "_0": "uint256 The dynamic amount (UsdPlusToken)*"
        }
      },
      "symbol()": {
        "details": "Returns the symbol of the token, usually a shorter version of the name."
      },
      "totalAssets()": {
        "details": "Total amount of the underlying asset that is managed by Vault*"
      },
      "totalSupply()": {
        "details": "See {IERC20-totalSupply}."
      },
      "transfer(address,uint256)": {
        "details": "See {IERC20-transfer}. Requirements: - `recipient` cannot be the zero address. - the caller must have a balance of at least `amount`."
      },
      "transferFrom(address,address,uint256)": {
        "details": "See {IERC20-transferFrom}. Emits an {Approval} event indicating the updated allowance. This is not required by the EIP. See the note at the beginning of {ERC20}. Requirements: - `sender` and `recipient` cannot be the zero address. - `sender` must have a balance of at least `amount`. - the caller must have allowance for ``sender``'s tokens of at least `amount`."
      }
    },
    "version": 1
  },
  "userdoc": {
    "kind": "user",
    "methods": {},
    "version": 1
  },
  "storageLayout": {
    "storage": [
      {
        "astId": 8314,
        "contract": "contracts/StaticUsdPlusToken.sol:StaticUsdPlusToken",
        "label": "_balances",
        "offset": 0,
        "slot": "0",
        "type": "t_mapping(t_address,t_uint256)"
      },
      {
        "astId": 8320,
        "contract": "contracts/StaticUsdPlusToken.sol:StaticUsdPlusToken",
        "label": "_allowances",
        "offset": 0,
        "slot": "1",
        "type": "t_mapping(t_address,t_mapping(t_address,t_uint256))"
      },
      {
        "astId": 8322,
        "contract": "contracts/StaticUsdPlusToken.sol:StaticUsdPlusToken",
        "label": "_totalSupply",
        "offset": 0,
        "slot": "2",
        "type": "t_uint256"
      },
      {
        "astId": 8324,
        "contract": "contracts/StaticUsdPlusToken.sol:StaticUsdPlusToken",
        "label": "_name",
        "offset": 0,
        "slot": "3",
        "type": "t_string_storage"
      },
      {
        "astId": 8326,
        "contract": "contracts/StaticUsdPlusToken.sol:StaticUsdPlusToken",
        "label": "_symbol",
        "offset": 0,
        "slot": "4",
        "type": "t_string_storage"
      },
      {
        "astId": 14980,
        "contract": "contracts/StaticUsdPlusToken.sol:StaticUsdPlusToken",
        "label": "_mainToken",
        "offset": 0,
        "slot": "5",
        "type": "t_contract(UsdPlusToken)16418"
      }
    ],
    "types": {
      "t_address": {
        "encoding": "inplace",
        "label": "address",
        "numberOfBytes": "20"
      },
      "t_contract(UsdPlusToken)16418": {
        "encoding": "inplace",
        "label": "contract UsdPlusToken",
        "numberOfBytes": "20"
      },
      "t_mapping(t_address,t_mapping(t_address,t_uint256))": {
        "encoding": "mapping",
        "key": "t_address",
        "label": "mapping(address => mapping(address => uint256))",
        "numberOfBytes": "32",
        "value": "t_mapping(t_address,t_uint256)"
      },
      "t_mapping(t_address,t_uint256)": {
        "encoding": "mapping",
        "key": "t_address",
        "label": "mapping(address => uint256)",
        "numberOfBytes": "32",
        "value": "t_uint256"
      },
      "t_string_storage": {
        "encoding": "bytes",
        "label": "string",
        "numberOfBytes": "32"
      },
      "t_uint256": {
        "encoding": "inplace",
        "label": "uint256",
        "numberOfBytes": "32"
      }
    }
  }
}