{
  "address": "0x4e36D8006416EA1d939A0EeaE73AFDAcA86BD376",
  "abi": [
    {
      "inputs": [],
      "stateMutability": "nonpayable",
      "type": "constructor"
    },
    {
      "anonymous": false,
      "inputs": [
        {
          "indexed": false,
          "internalType": "address",
          "name": "previousAdmin",
          "type": "address"
        },
        {
          "indexed": false,
          "internalType": "address",
          "name": "newAdmin",
          "type": "address"
        }
      ],
      "name": "AdminChanged",
      "type": "event"
    },
    {
      "anonymous": false,
      "inputs": [
        {
          "indexed": true,
          "internalType": "address",
          "name": "owner",
          "type": "address"
        },
        {
          "indexed": true,
          "internalType": "address",
          "name": "spender",
          "type": "address"
        },
        {
          "indexed": false,
          "internalType": "uint256",
          "name": "value",
          "type": "uint256"
        }
      ],
      "name": "Approval",
      "type": "event"
    },
    {
      "anonymous": false,
      "inputs": [
        {
          "indexed": true,
          "internalType": "address",
          "name": "beacon",
          "type": "address"
        }
      ],
      "name": "BeaconUpgraded",
      "type": "event"
    },
    {
      "anonymous": false,
      "inputs": [
        {
          "indexed": true,
          "internalType": "address",
          "name": "caller",
          "type": "address"
        },
        {
          "indexed": true,
          "internalType": "address",
          "name": "owner",
          "type": "address"
        },
        {
          "indexed": false,
          "internalType": "uint256",
          "name": "assets",
          "type": "uint256"
        },
        {
          "indexed": false,
          "internalType": "uint256",
          "name": "shares",
          "type": "uint256"
        }
      ],
      "name": "Deposit",
      "type": "event"
    },
    {
      "anonymous": false,
      "inputs": [
        {
          "indexed": false,
          "internalType": "uint8",
          "name": "version",
          "type": "uint8"
        }
      ],
      "name": "Initialized",
      "type": "event"
    },
    {
      "anonymous": false,
      "inputs": [
        {
          "indexed": true,
          "internalType": "bytes32",
          "name": "role",
          "type": "bytes32"
        },
        {
          "indexed": true,
          "internalType": "bytes32",
          "name": "previousAdminRole",
          "type": "bytes32"
        },
        {
          "indexed": true,
          "internalType": "bytes32",
          "name": "newAdminRole",
          "type": "bytes32"
        }
      ],
      "name": "RoleAdminChanged",
      "type": "event"
    },
    {
      "anonymous": false,
      "inputs": [
        {
          "indexed": true,
          "internalType": "bytes32",
          "name": "role",
          "type": "bytes32"
        },
        {
          "indexed": true,
          "internalType": "address",
          "name": "account",
          "type": "address"
        },
        {
          "indexed": true,
          "internalType": "address",
          "name": "sender",
          "type": "address"
        }
      ],
      "name": "RoleGranted",
      "type": "event"
    },
    {
      "anonymous": false,
      "inputs": [
        {
          "indexed": true,
          "internalType": "bytes32",
          "name": "role",
          "type": "bytes32"
        },
        {
          "indexed": true,
          "internalType": "address",
          "name": "account",
          "type": "address"
        },
        {
          "indexed": true,
          "internalType": "address",
          "name": "sender",
          "type": "address"
        }
      ],
      "name": "RoleRevoked",
      "type": "event"
    },
    {
      "anonymous": false,
      "inputs": [
        {
          "indexed": true,
          "internalType": "address",
          "name": "from",
          "type": "address"
        },
        {
          "indexed": true,
          "internalType": "address",
          "name": "to",
          "type": "address"
        },
        {
          "indexed": false,
          "internalType": "uint256",
          "name": "value",
          "type": "uint256"
        }
      ],
      "name": "Transfer",
      "type": "event"
    },
    {
      "anonymous": false,
      "inputs": [
        {
          "indexed": true,
          "internalType": "address",
          "name": "implementation",
          "type": "address"
        }
      ],
      "name": "Upgraded",
      "type": "event"
    },
    {
      "anonymous": false,
      "inputs": [
        {
          "indexed": true,
          "internalType": "address",
          "name": "caller",
          "type": "address"
        },
        {
          "indexed": true,
          "internalType": "address",
          "name": "receiver",
          "type": "address"
        },
        {
          "indexed": true,
          "internalType": "address",
          "name": "owner",
          "type": "address"
        },
        {
          "indexed": false,
          "internalType": "uint256",
          "name": "assets",
          "type": "uint256"
        },
        {
          "indexed": false,
          "internalType": "uint256",
          "name": "shares",
          "type": "uint256"
        }
      ],
      "name": "Withdraw",
      "type": "event"
    },
    {
      "inputs": [],
      "name": "DEFAULT_ADMIN_ROLE",
      "outputs": [
        {
          "internalType": "bytes32",
          "name": "",
          "type": "bytes32"
        }
      ],
      "stateMutability": "view",
      "type": "function"
    },
    {
      "inputs": [],
      "name": "UPGRADER_ROLE",
      "outputs": [
        {
          "internalType": "bytes32",
          "name": "",
          "type": "bytes32"
        }
      ],
      "stateMutability": "view",
      "type": "function"
    },
    {
      "inputs": [
        {
          "internalType": "address",
          "name": "owner",
          "type": "address"
        },
        {
          "internalType": "address",
          "name": "spender",
          "type": "address"
        }
      ],
      "name": "allowance",
      "outputs": [
        {
          "internalType": "uint256",
          "name": "",
          "type": "uint256"
        }
      ],
      "stateMutability": "view",
      "type": "function"
    },
    {
      "inputs": [
        {
          "internalType": "address",
          "name": "spender",
          "type": "address"
        },
        {
          "internalType": "uint256",
          "name": "amount",
          "type": "uint256"
        }
      ],
      "name": "approve",
      "outputs": [
        {
          "internalType": "bool",
          "name": "",
          "type": "bool"
        }
      ],
      "stateMutability": "nonpayable",
      "type": "function"
    },
    {
      "inputs": [],
      "name": "asset",
      "outputs": [
        {
          "internalType": "contract IUsdPlusToken",
          "name": "",
          "type": "address"
        }
      ],
      "stateMutability": "view",
      "type": "function"
    },
    {
      "inputs": [
        {
          "internalType": "address",
          "name": "account",
          "type": "address"
        }
      ],
      "name": "balanceOf",
      "outputs": [
        {
          "internalType": "uint256",
          "name": "",
          "type": "uint256"
        }
      ],
      "stateMutability": "view",
      "type": "function"
    },
    {
      "inputs": [
        {
          "internalType": "uint256",
          "name": "shares",
          "type": "uint256"
        }
      ],
      "name": "convertToAssets",
      "outputs": [
        {
          "internalType": "uint256",
          "name": "",
          "type": "uint256"
        }
      ],
      "stateMutability": "view",
      "type": "function"
    },
    {
      "inputs": [
        {
          "internalType": "uint256",
          "name": "assets",
          "type": "uint256"
        }
      ],
      "name": "convertToShares",
      "outputs": [
        {
          "internalType": "uint256",
          "name": "",
          "type": "uint256"
        }
      ],
      "stateMutability": "view",
      "type": "function"
    },
    {
      "inputs": [],
      "name": "decimals",
      "outputs": [
        {
          "internalType": "uint8",
          "name": "",
          "type": "uint8"
        }
      ],
      "stateMutability": "view",
      "type": "function"
    },
    {
      "inputs": [
        {
          "internalType": "address",
          "name": "spender",
          "type": "address"
        },
        {
          "internalType": "uint256",
          "name": "subtractedValue",
          "type": "uint256"
        }
      ],
      "name": "decreaseAllowance",
      "outputs": [
        {
          "internalType": "bool",
          "name": "",
          "type": "bool"
        }
      ],
      "stateMutability": "nonpayable",
      "type": "function"
    },
    {
      "inputs": [
        {
          "internalType": "uint256",
          "name": "assets",
          "type": "uint256"
        },
        {
          "internalType": "address",
          "name": "receiver",
          "type": "address"
        }
      ],
      "name": "deposit",
      "outputs": [
        {
          "internalType": "uint256",
          "name": "",
          "type": "uint256"
        }
      ],
      "stateMutability": "nonpayable",
      "type": "function"
    },
    {
      "inputs": [
        {
          "internalType": "bytes32",
          "name": "role",
          "type": "bytes32"
        }
      ],
      "name": "getRoleAdmin",
      "outputs": [
        {
          "internalType": "bytes32",
          "name": "",
          "type": "bytes32"
        }
      ],
      "stateMutability": "view",
      "type": "function"
    },
    {
      "inputs": [
        {
          "internalType": "bytes32",
          "name": "role",
          "type": "bytes32"
        },
        {
          "internalType": "address",
          "name": "account",
          "type": "address"
        }
      ],
      "name": "grantRole",
      "outputs": [],
      "stateMutability": "nonpayable",
      "type": "function"
    },
    {
      "inputs": [
        {
          "internalType": "bytes32",
          "name": "role",
          "type": "bytes32"
        },
        {
          "internalType": "address",
          "name": "account",
          "type": "address"
        }
      ],
      "name": "hasRole",
      "outputs": [
        {
          "internalType": "bool",
          "name": "",
          "type": "bool"
        }
      ],
      "stateMutability": "view",
      "type": "function"
    },
    {
      "inputs": [
        {
          "internalType": "address",
          "name": "spender",
          "type": "address"
        },
        {
          "internalType": "uint256",
          "name": "addedValue",
          "type": "uint256"
        }
      ],
      "name": "increaseAllowance",
      "outputs": [
        {
          "internalType": "bool",
          "name": "",
          "type": "bool"
        }
      ],
      "stateMutability": "nonpayable",
      "type": "function"
    },
    {
      "inputs": [
        {
          "internalType": "address",
          "name": "usdPlusTokenAddress",
          "type": "address"
        }
      ],
      "name": "initialize",
      "outputs": [],
      "stateMutability": "nonpayable",
      "type": "function"
    },
    {
      "inputs": [
        {
          "internalType": "address",
          "name": "receiver",
          "type": "address"
        }
      ],
      "name": "maxDeposit",
      "outputs": [
        {
          "internalType": "uint256",
          "name": "",
          "type": "uint256"
        }
      ],
      "stateMutability": "view",
      "type": "function"
    },
    {
      "inputs": [
        {
          "internalType": "address",
          "name": "receiver",
          "type": "address"
        }
      ],
      "name": "maxMint",
      "outputs": [
        {
          "internalType": "uint256",
          "name": "",
          "type": "uint256"
        }
      ],
      "stateMutability": "view",
      "type": "function"
    },
    {
      "inputs": [
        {
          "internalType": "address",
          "name": "owner",
          "type": "address"
        }
      ],
      "name": "maxRedeem",
      "outputs": [
        {
          "internalType": "uint256",
          "name": "",
          "type": "uint256"
        }
      ],
      "stateMutability": "view",
      "type": "function"
    },
    {
      "inputs": [
        {
          "internalType": "address",
          "name": "owner",
          "type": "address"
        }
      ],
      "name": "maxWithdraw",
      "outputs": [
        {
          "internalType": "uint256",
          "name": "",
          "type": "uint256"
        }
      ],
      "stateMutability": "view",
      "type": "function"
    },
    {
      "inputs": [
        {
          "internalType": "uint256",
          "name": "shares",
          "type": "uint256"
        },
        {
          "internalType": "address",
          "name": "receiver",
          "type": "address"
        }
      ],
      "name": "mint",
      "outputs": [
        {
          "internalType": "uint256",
          "name": "",
          "type": "uint256"
        }
      ],
      "stateMutability": "nonpayable",
      "type": "function"
    },
    {
      "inputs": [],
      "name": "name",
      "outputs": [
        {
          "internalType": "string",
          "name": "",
          "type": "string"
        }
      ],
      "stateMutability": "view",
      "type": "function"
    },
    {
      "inputs": [
        {
          "internalType": "uint256",
          "name": "assets",
          "type": "uint256"
        }
      ],
      "name": "previewDeposit",
      "outputs": [
        {
          "internalType": "uint256",
          "name": "",
          "type": "uint256"
        }
      ],
      "stateMutability": "view",
      "type": "function"
    },
    {
      "inputs": [
        {
          "internalType": "uint256",
          "name": "shares",
          "type": "uint256"
        }
      ],
      "name": "previewMint",
      "outputs": [
        {
          "internalType": "uint256",
          "name": "",
          "type": "uint256"
        }
      ],
      "stateMutability": "view",
      "type": "function"
    },
    {
      "inputs": [
        {
          "internalType": "uint256",
          "name": "shares",
          "type": "uint256"
        }
      ],
      "name": "previewRedeem",
      "outputs": [
        {
          "internalType": "uint256",
          "name": "",
          "type": "uint256"
        }
      ],
      "stateMutability": "view",
      "type": "function"
    },
    {
      "inputs": [
        {
          "internalType": "uint256",
          "name": "assets",
          "type": "uint256"
        }
      ],
      "name": "previewWithdraw",
      "outputs": [
        {
          "internalType": "uint256",
          "name": "",
          "type": "uint256"
        }
      ],
      "stateMutability": "view",
      "type": "function"
    },
    {
      "inputs": [],
      "name": "proxiableUUID",
      "outputs": [
        {
          "internalType": "bytes32",
          "name": "",
          "type": "bytes32"
        }
      ],
      "stateMutability": "view",
      "type": "function"
    },
    {
      "inputs": [],
      "name": "rate",
      "outputs": [
        {
          "internalType": "uint256",
          "name": "",
          "type": "uint256"
        }
      ],
      "stateMutability": "view",
      "type": "function"
    },
    {
      "inputs": [
        {
          "internalType": "uint256",
          "name": "shares",
          "type": "uint256"
        },
        {
          "internalType": "address",
          "name": "receiver",
          "type": "address"
        },
        {
          "internalType": "address",
          "name": "owner",
          "type": "address"
        }
      ],
      "name": "redeem",
      "outputs": [
        {
          "internalType": "uint256",
          "name": "",
          "type": "uint256"
        }
      ],
      "stateMutability": "nonpayable",
      "type": "function"
    },
    {
      "inputs": [
        {
          "internalType": "bytes32",
          "name": "role",
          "type": "bytes32"
        },
        {
          "internalType": "address",
          "name": "account",
          "type": "address"
        }
      ],
      "name": "renounceRole",
      "outputs": [],
      "stateMutability": "nonpayable",
      "type": "function"
    },
    {
      "inputs": [
        {
          "internalType": "bytes32",
          "name": "role",
          "type": "bytes32"
        },
        {
          "internalType": "address",
          "name": "account",
          "type": "address"
        }
      ],
      "name": "revokeRole",
      "outputs": [],
      "stateMutability": "nonpayable",
      "type": "function"
    },
    {
      "inputs": [
        {
          "internalType": "bytes4",
          "name": "interfaceId",
          "type": "bytes4"
        }
      ],
      "name": "supportsInterface",
      "outputs": [
        {
          "internalType": "bool",
          "name": "",
          "type": "bool"
        }
      ],
      "stateMutability": "view",
      "type": "function"
    },
    {
      "inputs": [],
      "name": "symbol",
      "outputs": [
        {
          "internalType": "string",
          "name": "",
          "type": "string"
        }
      ],
      "stateMutability": "view",
      "type": "function"
    },
    {
      "inputs": [],
      "name": "totalAssets",
      "outputs": [
        {
          "internalType": "uint256",
          "name": "",
          "type": "uint256"
        }
      ],
      "stateMutability": "view",
      "type": "function"
    },
    {
      "inputs": [],
      "name": "totalSupply",
      "outputs": [
        {
          "internalType": "uint256",
          "name": "",
          "type": "uint256"
        }
      ],
      "stateMutability": "view",
      "type": "function"
    },
    {
      "inputs": [
        {
          "internalType": "address",
          "name": "to",
          "type": "address"
        },
        {
          "internalType": "uint256",
          "name": "amount",
          "type": "uint256"
        }
      ],
      "name": "transfer",
      "outputs": [
        {
          "internalType": "bool",
          "name": "",
          "type": "bool"
        }
      ],
      "stateMutability": "nonpayable",
      "type": "function"
    },
    {
      "inputs": [
        {
          "internalType": "address",
          "name": "from",
          "type": "address"
        },
        {
          "internalType": "address",
          "name": "to",
          "type": "address"
        },
        {
          "internalType": "uint256",
          "name": "amount",
          "type": "uint256"
        }
      ],
      "name": "transferFrom",
      "outputs": [
        {
          "internalType": "bool",
          "name": "",
          "type": "bool"
        }
      ],
      "stateMutability": "nonpayable",
      "type": "function"
    },
    {
      "inputs": [
        {
          "internalType": "address",
          "name": "newImplementation",
          "type": "address"
        }
      ],
      "name": "upgradeTo",
      "outputs": [],
      "stateMutability": "nonpayable",
      "type": "function"
    },
    {
      "inputs": [
        {
          "internalType": "address",
          "name": "newImplementation",
          "type": "address"
        },
        {
          "internalType": "bytes",
          "name": "data",
          "type": "bytes"
        }
      ],
      "name": "upgradeToAndCall",
      "outputs": [],
      "stateMutability": "payable",
      "type": "function"
    },
    {
      "inputs": [
        {
          "internalType": "uint256",
          "name": "assets",
          "type": "uint256"
        },
        {
          "internalType": "address",
          "name": "receiver",
          "type": "address"
        },
        {
          "internalType": "address",
          "name": "owner",
          "type": "address"
        }
      ],
      "name": "withdraw",
      "outputs": [
        {
          "internalType": "uint256",
          "name": "",
          "type": "uint256"
        }
      ],
      "stateMutability": "nonpayable",
      "type": "function"
    }
  ],
  "numDeployments": 1,
  "solcInputHash": "f178a851c1e0326e5601dba81b2baa61",
  "bytecode": "0x60a06040523060601b6080523480156200001857600080fd5b5060006200002760016200008e565b9050801562000040576000805461ff0019166101001790555b801562000087576000805461ff0019169055604051600181527f7f26b83ff96e1f2b6a682f133852f6798a09c465da95921460cefb38474024989060200160405180910390a15b50620001af565b60008054610100900460ff161562000127578160ff166001148015620000c75750620000c530620001a060201b620016431760201c565b155b6200011f5760405162461bcd60e51b815260206004820152602e602482015260008051602062002eb383398151915260448201526d191e481a5b9a5d1a585b1a5e995960921b60648201526084015b60405180910390fd5b506000919050565b60005460ff808416911610620001865760405162461bcd60e51b815260206004820152602e602482015260008051602062002eb383398151915260448201526d191e481a5b9a5d1a585b1a5e995960921b606482015260840162000116565b506000805460ff191660ff92909216919091179055600190565b6001600160a01b03163b151590565b60805160601c612cc9620001ea600039600081816109f701528181610a3701528181610b0401528181610b440152610bd30152612cc96000f3fe60806040526004361061023b5760003560e01c80636e553f651161012e578063ba087652116100ab578063d547741f1161006f578063d547741f14610675578063d905777e14610695578063dd62ed3e146106b5578063ef8b30f7146102fa578063f72c0d8b146106d557600080fd5b8063ba087652146105f5578063c4d66de814610615578063c63d75b61461046b578063c6e6f59214610635578063ce96cb771461065557600080fd5b8063a217fddf116100f2578063a217fddf14610580578063a457c2d714610595578063a9059cbb146105b5578063b3d7f6b91461048d578063b460af94146105d557600080fd5b80636e553f65146104d557806370a08231146104f557806391d148541461052b57806394bf804d1461054b57806395d89b411461056b57600080fd5b80632f2ff15d116101bc5780633950935111610180578063395093511461044b578063402d267d1461046b5780634cdad5061461048d5780634f1ef286146104ad57806352d1902d146104c057600080fd5b80632f2ff15d14610394578063313ce567146103b657806336568abe146103d25780633659cfe6146103f257806338d52e0f1461041257600080fd5b80630a28a477116102035780630a28a477146102fa57806318160ddd1461031a57806323b872dd1461032f578063248a9ca31461034f5780632c4e722e1461037f57600080fd5b806301e1d1141461024057806301ffc9a71461026857806306fdde031461029857806307a2d13a146102ba578063095ea7b3146102da575b600080fd5b34801561024c57600080fd5b50610255610709565b6040519081526020015b60405180910390f35b34801561027457600080fd5b506102886102833660046127f7565b61071c565b604051901515815260200161025f565b3480156102a457600080fd5b506102ad610753565b60405161025f91906128ee565b3480156102c657600080fd5b506102556102d53660046127a2565b6107e5565b3480156102e657600080fd5b506102886102f5366004612756565b610878565b34801561030657600080fd5b506102556103153660046127a2565b610890565b34801561032657600080fd5b50603554610255565b34801561033b57600080fd5b5061028861034a366004612658565b61089b565b34801561035b57600080fd5b5061025561036a3660046127a2565b60009081526097602052604090206001015490565b34801561038b57600080fd5b506102556108c1565b3480156103a057600080fd5b506103b46103af3660046127d4565b61093f565b005b3480156103c257600080fd5b506040516006815260200161025f565b3480156103de57600080fd5b506103b46103ed3660046127d4565b610969565b3480156103fe57600080fd5b506103b461040d36600461260a565b6109ec565b34801561041e57600080fd5b5061012d54610433906001600160a01b031681565b6040516001600160a01b03909116815260200161025f565b34801561045757600080fd5b50610288610466366004612756565b610acc565b34801561047757600080fd5b5061025561048636600461260a565b5060001990565b34801561049957600080fd5b506102556104a83660046127a2565b610aee565b6103b46104bb366004612694565b610af9565b3480156104cc57600080fd5b50610255610bc6565b3480156104e157600080fd5b506102556104f03660046127d4565b610c79565b34801561050157600080fd5b5061025561051036600461260a565b6001600160a01b031660009081526033602052604090205490565b34801561053757600080fd5b506102886105463660046127d4565b610dd9565b34801561055757600080fd5b506102556105663660046127d4565b610e04565b34801561057757600080fd5b506102ad610f58565b34801561058c57600080fd5b50610255600081565b3480156105a157600080fd5b506102886105b0366004612756565b610f67565b3480156105c157600080fd5b506102886105d0366004612756565b610fed565b3480156105e157600080fd5b506102556105f0366004612821565b610ffb565b34801561060157600080fd5b50610255610610366004612821565b61120c565b34801561062157600080fd5b506103b461063036600461260a565b611407565b34801561064157600080fd5b506102556106503660046127a2565b611520565b34801561066157600080fd5b5061025561067036600461260a565b6115b3565b34801561068157600080fd5b506103b46106903660046127d4565b6115d5565b3480156106a157600080fd5b506102556106b036600461260a565b6115fa565b3480156106c157600080fd5b506102556106d0366004612625565b611618565b3480156106e157600080fd5b506102557f189ab7a9244df0848122154315af71fe140f3db0fe014031783b0946b8c9d2e381565b60006107176102d560355490565b905090565b60006001600160e01b03198216637965db0b60e01b148061074d57506301ffc9a760e01b6001600160e01b03198316145b92915050565b60606036805461076290612bcf565b80601f016020809104026020016040519081016040528092919081815260200182805461078e90612bcf565b80156107db5780601f106107b0576101008083540402835291602001916107db565b820191906000526020600020905b8154815290600101906020018083116107be57829003601f168201915b5050505050905090565b600061074d61012d60009054906101000a90046001600160a01b03166001600160a01b031663bbf44f336040518163ffffffff1660e01b815260040160206040518083038186803b15801561083957600080fd5b505afa15801561084d573d6000803e3d6000fd5b505050506040513d601f19601f8201168201806040525081019061087191906127bb565b8390611652565b6000336108868185856116ef565b5060019392505050565b600061074d82611520565b6000336108a9858285611813565b6108b485858561188d565b60019150505b9392505050565b61012d546040805163bbf44f3360e01b815290516000926001600160a01b03169163bbf44f33916004808301926020929190829003018186803b15801561090757600080fd5b505afa15801561091b573d6000803e3d6000fd5b505050506040513d601f19601f8201168201806040525081019061071791906127bb565b60008281526097602052604090206001015461095a81611a5b565b6109648383611a65565b505050565b6001600160a01b03811633146109de5760405162461bcd60e51b815260206004820152602f60248201527f416363657373436f6e74726f6c3a2063616e206f6e6c792072656e6f756e636560448201526e103937b632b9903337b91039b2b63360891b60648201526084015b60405180910390fd5b6109e88282611aeb565b5050565b306001600160a01b037f0000000000000000000000000000000000000000000000000000000000000000161415610a355760405162461bcd60e51b81526004016109d590612963565b7f00000000000000000000000000000000000000000000000000000000000000006001600160a01b0316610a7e600080516020612c4d833981519152546001600160a01b031690565b6001600160a01b031614610aa45760405162461bcd60e51b81526004016109d5906129af565b610aad81611b52565b60408051600080825260208201909252610ac991839190611b7c565b50565b600033610886818585610adf8383611618565b610ae99190612b1c565b6116ef565b600061074d826107e5565b306001600160a01b037f0000000000000000000000000000000000000000000000000000000000000000161415610b425760405162461bcd60e51b81526004016109d590612963565b7f00000000000000000000000000000000000000000000000000000000000000006001600160a01b0316610b8b600080516020612c4d833981519152546001600160a01b031690565b6001600160a01b031614610bb15760405162461bcd60e51b81526004016109d5906129af565b610bba82611b52565b6109e882826001611b7c565b6000306001600160a01b037f00000000000000000000000000000000000000000000000000000000000000001614610c665760405162461bcd60e51b815260206004820152603860248201527f555550535570677261646561626c653a206d757374206e6f742062652063616c60448201527f6c6564207468726f7567682064656c656761746563616c6c000000000000000060648201526084016109d5565b50600080516020612c4d83398151915290565b600082610cc25760405162461bcd60e51b815260206004820152601760248201527616995c9bc8185cdcd95d1cc81b9bdd08185b1b1bddd959604a1b60448201526064016109d5565b6001600160a01b038216610ce85760405162461bcd60e51b81526004016109d5906129fb565b61012d546040516323b872dd60e01b8152336004820152306024820152604481018590526001600160a01b03909116906323b872dd90606401602060405180830381600087803b158015610d3b57600080fd5b505af1158015610d4f573d6000803e3d6000fd5b505050506040513d601f19601f82011682018060405250810190610d739190612780565b506000610d7f84611520565b9050610d8b8382611cf6565b60408051858152602081018390526001600160a01b0385169133917fdcbc1c05240f31ff3ad067ef1ee35ce4997762752e3a095284754544f4c709d791015b60405180910390a39392505050565b60009182526097602090815260408084206001600160a01b0393909316845291905290205460ff1690565b600082610e4d5760405162461bcd60e51b815260206004820152601760248201527616995c9bc81cda185c995cc81b9bdd08185b1b1bddd959604a1b60448201526064016109d5565b6001600160a01b038216610e735760405162461bcd60e51b81526004016109d5906129fb565b6000610e7e846107e5565b61012d546040516323b872dd60e01b8152336004820152306024820152604481018390529192506001600160a01b0316906323b872dd90606401602060405180830381600087803b158015610ed257600080fd5b505af1158015610ee6573d6000803e3d6000fd5b505050506040513d601f19601f82011682018060405250810190610f0a9190612780565b50610f158385611cf6565b60408051828152602081018690526001600160a01b0385169133917fdcbc1c05240f31ff3ad067ef1ee35ce4997762752e3a095284754544f4c709d79101610dca565b60606037805461076290612bcf565b60003381610f758286611618565b905083811015610fd55760405162461bcd60e51b815260206004820152602560248201527f45524332303a2064656372656173656420616c6c6f77616e63652062656c6f77604482015264207a65726f60d81b60648201526084016109d5565b610fe282868684036116ef565b506001949350505050565b60003361088681858561188d565b6000836110445760405162461bcd60e51b815260206004820152601760248201527616995c9bc8185cdcd95d1cc81b9bdd08185b1b1bddd959604a1b60448201526064016109d5565b6001600160a01b03831661106a5760405162461bcd60e51b81526004016109d5906129fb565b6001600160a01b0382166110905760405162461bcd60e51b81526004016109d590612921565b600061109b85611520565b90506001600160a01b03831633146111265760006110b98433611618565b9050818110156111155760405162461bcd60e51b815260206004820152602160248201527f576974686472617720616d6f756e74206578636565647320616c6c6f77616e636044820152606560f81b60648201526084016109d5565b6111248433610ae98585612b75565b505b6111308382611dd5565b61012d5460405163a9059cbb60e01b81526001600160a01b038681166004830152602482018890529091169063a9059cbb90604401602060405180830381600087803b15801561117f57600080fd5b505af1158015611193573d6000803e3d6000fd5b505050506040513d601f19601f820116820180604052508101906111b79190612780565b5060408051868152602081018390526001600160a01b03808616929087169133917ffbde797d201c681b91056529119e0b02407c7bb96a4a2c75c01fc9667232c8db91015b60405180910390a4949350505050565b6000836112555760405162461bcd60e51b815260206004820152601760248201527616995c9bc81cda185c995cc81b9bdd08185b1b1bddd959604a1b60448201526064016109d5565b6001600160a01b03831661127b5760405162461bcd60e51b81526004016109d5906129fb565b6001600160a01b0382166112a15760405162461bcd60e51b81526004016109d590612921565b6001600160a01b03821633146113205760006112bd8333611618565b90508481101561130f5760405162461bcd60e51b815260206004820152601f60248201527f52656465656d20616d6f756e74206578636565647320616c6c6f77616e63650060448201526064016109d5565b61131e8333610ae98885612b75565b505b61132a8285611dd5565b6000611335856107e5565b61012d5460405163a9059cbb60e01b81526001600160a01b0387811660048301526024820184905292935091169063a9059cbb90604401602060405180830381600087803b15801561138657600080fd5b505af115801561139a573d6000803e3d6000fd5b505050506040513d601f19601f820116820180604052508101906113be9190612780565b5060408051828152602081018790526001600160a01b03808616929087169133917ffbde797d201c681b91056529119e0b02407c7bb96a4a2c75c01fc9667232c8db91016111fc565b60006114136001611f23565b9050801561142b576000805461ff0019166101001790555b6114766040518060400160405280600c81526020016b57726170706564205553442b60a01b81525060405180604001604052806005815260200164775553442b60d81b815250611fb0565b61147e611fe1565b611486611fe1565b611491600033611a65565b6114bb7f189ab7a9244df0848122154315af71fe140f3db0fe014031783b0946b8c9d2e333611a65565b61012d80546001600160a01b0319166001600160a01b03841617905580156109e8576000805461ff0019169055604051600181527f7f26b83ff96e1f2b6a682f133852f6798a09c465da95921460cefb38474024989060200160405180910390a15050565b600061074d61012d60009054906101000a90046001600160a01b03166001600160a01b031663bbf44f336040518163ffffffff1660e01b815260040160206040518083038186803b15801561157457600080fd5b505afa158015611588573d6000803e3d6000fd5b505050506040513d601f19601f820116820180604052508101906115ac91906127bb565b839061200a565b6001600160a01b03811660009081526033602052604081205461074d906107e5565b6000828152609760205260409020600101546115f081611a5b565b6109648383611aeb565b6001600160a01b03811660009081526033602052604081205461074d565b6001600160a01b03918216600090815260346020908152604080832093909416825291909152205490565b6001600160a01b03163b151590565b600082158061165f575081155b1561166c5750600061074d565b8161168460026b033b2e3c9fd0803ce8000000612b34565b61169090600019612b75565b61169a9190612b34565b8311156116b95760405162461bcd60e51b81526004016109d590612a8e565b6b033b2e3c9fd0803ce80000006116d1600282612b34565b6116db8486612b56565b6116e59190612b1c565b6108ba9190612b34565b6001600160a01b0383166117515760405162461bcd60e51b8152602060048201526024808201527f45524332303a20617070726f76652066726f6d20746865207a65726f206164646044820152637265737360e01b60648201526084016109d5565b6001600160a01b0382166117b25760405162461bcd60e51b815260206004820152602260248201527f45524332303a20617070726f766520746f20746865207a65726f206164647265604482015261737360f01b60648201526084016109d5565b6001600160a01b0383811660008181526034602090815260408083209487168084529482529182902085905590518481527f8c5be1e5ebec7d5bd14f71427d1e84f3dd0314c0f7b2291e5b200ac8c7c3b925910160405180910390a3505050565b600061181f8484611618565b90506000198114611887578181101561187a5760405162461bcd60e51b815260206004820152601d60248201527f45524332303a20696e73756666696369656e7420616c6c6f77616e636500000060448201526064016109d5565b61188784848484036116ef565b50505050565b6001600160a01b0383166118f15760405162461bcd60e51b815260206004820152602560248201527f45524332303a207472616e736665722066726f6d20746865207a65726f206164604482015264647265737360d81b60648201526084016109d5565b6001600160a01b0382166119535760405162461bcd60e51b815260206004820152602360248201527f45524332303a207472616e7366657220746f20746865207a65726f206164647260448201526265737360e81b60648201526084016109d5565b6001600160a01b038316600090815260336020526040902054818110156119cb5760405162461bcd60e51b815260206004820152602660248201527f45524332303a207472616e7366657220616d6f756e7420657863656564732062604482015265616c616e636560d01b60648201526084016109d5565b6001600160a01b03808516600090815260336020526040808220858503905591851681529081208054849290611a02908490612b1c565b92505081905550826001600160a01b0316846001600160a01b03167fddf252ad1be2c89b69c2b068fc378daa952ba7f163c4a11628f55a4df523b3ef84604051611a4e91815260200190565b60405180910390a3611887565b610ac981336120de565b611a6f8282610dd9565b6109e85760008281526097602090815260408083206001600160a01b03851684529091529020805460ff19166001179055611aa73390565b6001600160a01b0316816001600160a01b0316837f2f8788117e7eff1d82e926ec794901d17c78024a50270940304540a733656f0d60405160405180910390a45050565b611af58282610dd9565b156109e85760008281526097602090815260408083206001600160a01b0385168085529252808320805460ff1916905551339285917ff6391f5c32d9c69d2a47ea670b442974b53935d1edc7fd64eb21e047a839171b9190a45050565b7f189ab7a9244df0848122154315af71fe140f3db0fe014031783b0946b8c9d2e36109e881611a5b565b7f4910fdfa16fed3260ed0e7147f7cc6da11a60208b5b9406d12a635614ffd91435460ff1615611baf5761096483612142565b826001600160a01b03166352d1902d6040518163ffffffff1660e01b815260040160206040518083038186803b158015611be857600080fd5b505afa925050508015611c18575060408051601f3d908101601f19168201909252611c15918101906127bb565b60015b611c7b5760405162461bcd60e51b815260206004820152602e60248201527f45524331393637557067726164653a206e657720696d706c656d656e7461746960448201526d6f6e206973206e6f74205555505360901b60648201526084016109d5565b600080516020612c4d8339815191528114611cea5760405162461bcd60e51b815260206004820152602960248201527f45524331393637557067726164653a20756e737570706f727465642070726f786044820152681a58589b195555525160ba1b60648201526084016109d5565b506109648383836121de565b6001600160a01b038216611d4c5760405162461bcd60e51b815260206004820152601f60248201527f45524332303a206d696e7420746f20746865207a65726f20616464726573730060448201526064016109d5565b8060356000828254611d5e9190612b1c565b90915550506001600160a01b03821660009081526033602052604081208054839290611d8b908490612b1c565b90915550506040518181526001600160a01b038316906000907fddf252ad1be2c89b69c2b068fc378daa952ba7f163c4a11628f55a4df523b3ef9060200160405180910390a35050565b6001600160a01b038216611e355760405162461bcd60e51b815260206004820152602160248201527f45524332303a206275726e2066726f6d20746865207a65726f206164647265736044820152607360f81b60648201526084016109d5565b6001600160a01b03821660009081526033602052604090205481811015611ea95760405162461bcd60e51b815260206004820152602260248201527f45524332303a206275726e20616d6f756e7420657863656564732062616c616e604482015261636560f01b60648201526084016109d5565b6001600160a01b0383166000908152603360205260408120838303905560358054849290611ed8908490612b75565b90915550506040518281526000906001600160a01b038516907fddf252ad1be2c89b69c2b068fc378daa952ba7f163c4a11628f55a4df523b3ef9060200160405180910390a3505050565b60008054610100900460ff1615611f6a578160ff166001148015611f465750303b155b611f625760405162461bcd60e51b81526004016109d590612a40565b506000919050565b60005460ff808416911610611f915760405162461bcd60e51b81526004016109d590612a40565b506000805460ff191660ff92909216919091179055600190565b919050565b600054610100900460ff16611fd75760405162461bcd60e51b81526004016109d590612ad1565b6109e88282612203565b600054610100900460ff166120085760405162461bcd60e51b81526004016109d590612ad1565b565b6000816120595760405162461bcd60e51b815260206004820152601c60248201527f4572726f72732e4d4154485f4449564953494f4e5f42595f5a45524f0000000060448201526064016109d5565b6000612066600284612b34565b90506b033b2e3c9fd0803ce800000061208182600019612b75565b61208b9190612b34565b8411156120aa5760405162461bcd60e51b81526004016109d590612a8e565b82816120c26b033b2e3c9fd0803ce800000087612b56565b6120cc9190612b1c565b6120d69190612b34565b949350505050565b6120e88282610dd9565b6109e857612100816001600160a01b03166014612251565b61210b836020612251565b60405160200161211c929190612879565b60408051601f198184030181529082905262461bcd60e51b82526109d5916004016128ee565b6001600160a01b0381163b6121af5760405162461bcd60e51b815260206004820152602d60248201527f455243313936373a206e657720696d706c656d656e746174696f6e206973206e60448201526c1bdd08184818dbdb9d1c9858dd609a1b60648201526084016109d5565b600080516020612c4d83398151915280546001600160a01b0319166001600160a01b0392909216919091179055565b6121e7836123ed565b6000825111806121f45750805b1561096457611887838361242d565b600054610100900460ff1661222a5760405162461bcd60e51b81526004016109d590612ad1565b815161223d90603690602085019061255a565b50805161096490603790602084019061255a565b60606000612260836002612b56565b61226b906002612b1c565b67ffffffffffffffff81111561228357612283612c36565b6040519080825280601f01601f1916602001820160405280156122ad576020820181803683370190505b509050600360fc1b816000815181106122c8576122c8612c20565b60200101906001600160f81b031916908160001a905350600f60fb1b816001815181106122f7576122f7612c20565b60200101906001600160f81b031916908160001a905350600061231b846002612b56565b612326906001612b1c565b90505b600181111561239e576f181899199a1a9b1b9c1cb0b131b232b360811b85600f166010811061235a5761235a612c20565b1a60f81b82828151811061237057612370612c20565b60200101906001600160f81b031916908160001a90535060049490941c9361239781612bb8565b9050612329565b5083156108ba5760405162461bcd60e51b815260206004820181905260248201527f537472696e67733a20686578206c656e67746820696e73756666696369656e7460448201526064016109d5565b6123f681612142565b6040516001600160a01b038216907fbc7cd75a20ee27fd9adebab32041f755214dbc6bffa90cc0225b39da2e5c2d3b90600090a250565b60606001600160a01b0383163b6124955760405162461bcd60e51b815260206004820152602660248201527f416464726573733a2064656c65676174652063616c6c20746f206e6f6e2d636f6044820152651b9d1c9858dd60d21b60648201526084016109d5565b600080846001600160a01b0316846040516124b0919061285d565b600060405180830381855af49150503d80600081146124eb576040519150601f19603f3d011682016040523d82523d6000602084013e6124f0565b606091505b50915091506125188282604051806060016040528060278152602001612c6d60279139612521565b95945050505050565b606083156125305750816108ba565b8251156125405782518084602001fd5b8160405162461bcd60e51b81526004016109d591906128ee565b82805461256690612bcf565b90600052602060002090601f01602090048101928261258857600085556125ce565b82601f106125a157805160ff19168380011785556125ce565b828001600101855582156125ce579182015b828111156125ce5782518255916020019190600101906125b3565b506125da9291506125de565b5090565b5b808211156125da57600081556001016125df565b80356001600160a01b0381168114611fab57600080fd5b60006020828403121561261c57600080fd5b6108ba826125f3565b6000806040838503121561263857600080fd5b612641836125f3565b915061264f602084016125f3565b90509250929050565b60008060006060848603121561266d57600080fd5b612676846125f3565b9250612684602085016125f3565b9150604084013590509250925092565b600080604083850312156126a757600080fd5b6126b0836125f3565b9150602083013567ffffffffffffffff808211156126cd57600080fd5b818501915085601f8301126126e157600080fd5b8135818111156126f3576126f3612c36565b604051601f8201601f19908116603f0116810190838211818310171561271b5761271b612c36565b8160405282815288602084870101111561273457600080fd5b8260208601602083013760006020848301015280955050505050509250929050565b6000806040838503121561276957600080fd5b612772836125f3565b946020939093013593505050565b60006020828403121561279257600080fd5b815180151581146108ba57600080fd5b6000602082840312156127b457600080fd5b5035919050565b6000602082840312156127cd57600080fd5b5051919050565b600080604083850312156127e757600080fd5b8235915061264f602084016125f3565b60006020828403121561280957600080fd5b81356001600160e01b0319811681146108ba57600080fd5b60008060006060848603121561283657600080fd5b83359250612846602085016125f3565b9150612854604085016125f3565b90509250925092565b6000825161286f818460208701612b8c565b9190910192915050565b7f416363657373436f6e74726f6c3a206163636f756e74200000000000000000008152600083516128b1816017850160208801612b8c565b7001034b99036b4b9b9b4b733903937b6329607d1b60179184019182015283516128e2816028840160208801612b8c565b01602801949350505050565b602081526000825180602084015261290d816040850160208701612b8c565b601f01601f19169190910160400192915050565b60208082526022908201527f5a65726f206164647265737320666f72206f776e6572206e6f7420616c6c6f77604082015261195960f21b606082015260800190565b6020808252602c908201527f46756e6374696f6e206d7573742062652063616c6c6564207468726f7567682060408201526b19195b1959d85d1958d85b1b60a21b606082015260800190565b6020808252602c908201527f46756e6374696f6e206d7573742062652063616c6c6564207468726f7567682060408201526b6163746976652070726f787960a01b606082015260800190565b60208082526025908201527f5a65726f206164647265737320666f72207265636569766572206e6f7420616c6040820152641b1bddd95960da1b606082015260800190565b6020808252602e908201527f496e697469616c697a61626c653a20636f6e747261637420697320616c72656160408201526d191e481a5b9a5d1a585b1a5e995960921b606082015260800190565b60208082526023908201527f4572726f72732e4d4154485f4d554c5449504c49434154494f4e5f4f564552466040820152624c4f5760e81b606082015260800190565b6020808252602b908201527f496e697469616c697a61626c653a20636f6e7472616374206973206e6f74206960408201526a6e697469616c697a696e6760a81b606082015260800190565b60008219821115612b2f57612b2f612c0a565b500190565b600082612b5157634e487b7160e01b600052601260045260246000fd5b500490565b6000816000190483118215151615612b7057612b70612c0a565b500290565b600082821015612b8757612b87612c0a565b500390565b60005b83811015612ba7578181015183820152602001612b8f565b838111156118875750506000910152565b600081612bc757612bc7612c0a565b506000190190565b600181811c90821680612be357607f821691505b60208210811415612c0457634e487b7160e01b600052602260045260246000fd5b50919050565b634e487b7160e01b600052601160045260246000fd5b634e487b7160e01b600052603260045260246000fd5b634e487b7160e01b600052604160045260246000fdfe360894a13ba1a3210667c828492db98dca3e2076cc3735a920a3ca505d382bbc416464726573733a206c6f772d6c6576656c2064656c65676174652063616c6c206661696c6564a2646970667358221220bbdde8e93576400987d52643180239cc3bf653d11f48fe63e43290d42a830c4d64736f6c63430008060033496e697469616c697a61626c653a20636f6e747261637420697320616c726561",
  "devdoc": {
    "kind": "dev",
    "methods": {
      "allowance(address,address)": {
        "details": "See {IERC20-allowance}."
      },
      "approve(address,uint256)": {
        "details": "See {IERC20-approve}. NOTE: If `amount` is the maximum `uint256`, the allowance is not updated on `transferFrom`. This is semantically equivalent to an infinite approval. Requirements: - `spender` cannot be the zero address."
      },
      "balanceOf(address)": {
        "details": "See {IERC20-balanceOf}."
      },
      "constructor": {
        "custom:oz-upgrades-unsafe-allow": "constructor"
      },
      "convertToAssets(uint256)": {
        "details": "The amount of assets that the Vault would exchange for the amount of shares provided, in an ideal scenario where all the conditions are met."
      },
      "convertToShares(uint256)": {
        "details": "The amount of shares that the Vault would exchange for the amount of assets provided, in an ideal scenario where all the conditions are met."
      },
      "decimals()": {
        "details": "Returns the number of decimals used to get its user representation. For example, if `decimals` equals `2`, a balance of `505` tokens should be displayed to a user as `5.05` (`505 / 10 ** 2`). Tokens usually opt for a value of 18, imitating the relationship between Ether and Wei. This is the value {ERC20} uses, unless this function is overridden; NOTE: This information is only used for _display_ purposes: it in no way affects any of the arithmetic of the contract, including {IERC20-balanceOf} and {IERC20-transfer}."
      },
      "decreaseAllowance(address,uint256)": {
        "details": "Atomically decreases the allowance granted to `spender` by the caller. This is an alternative to {approve} that can be used as a mitigation for problems described in {IERC20-approve}. Emits an {Approval} event indicating the updated allowance. Requirements: - `spender` cannot be the zero address. - `spender` must have allowance for the caller of at least `subtractedValue`."
      },
      "deposit(uint256,address)": {
        "details": "Mints `shares` Vault shares to `receiver` by depositing exactly `amount` of underlying tokens."
      },
      "getRoleAdmin(bytes32)": {
        "details": "Returns the admin role that controls `role`. See {grantRole} and {revokeRole}. To change a role's admin, use {_setRoleAdmin}."
      },
      "grantRole(bytes32,address)": {
        "details": "Grants `role` to `account`. If `account` had not been already granted `role`, emits a {RoleGranted} event. Requirements: - the caller must have ``role``'s admin role."
      },
      "hasRole(bytes32,address)": {
        "details": "Returns `true` if `account` has been granted `role`."
      },
      "increaseAllowance(address,uint256)": {
        "details": "Atomically increases the allowance granted to `spender` by the caller. This is an alternative to {approve} that can be used as a mitigation for problems described in {IERC20-approve}. Emits an {Approval} event indicating the updated allowance. Requirements: - `spender` cannot be the zero address."
      },
      "maxDeposit(address)": {
        "details": "Maximum amount of the underlying asset that can be deposited into the Vault for the receiver, through a deposit call."
      },
      "maxMint(address)": {
        "details": "Maximum amount of shares that can be minted from the Vault for the receiver, through a mint call."
      },
      "maxRedeem(address)": {
        "details": "Maximum amount of Vault shares that can be redeemed from the owner balance in the Vault, through a redeem call."
      },
      "maxWithdraw(address)": {
        "details": "Maximum amount of the underlying asset that can be withdrawn from the owner balance in the Vault, through a withdraw call."
      },
      "mint(uint256,address)": {
        "details": "Mints exactly shares Vault shares to receiver by depositing amount of underlying tokens."
      },
      "name()": {
        "details": "Returns the name of the token."
      },
      "previewDeposit(uint256)": {
        "details": "Allows an on-chain or off-chain user to simulate the effects of their deposit at the current block, given current on-chain conditions."
      },
      "previewMint(uint256)": {
        "details": "Allows an on-chain or off-chain user to simulate the effects of their mint at the current block, given current on-chain conditions."
      },
      "previewRedeem(uint256)": {
        "details": "Allows an on-chain or off-chain user to simulate the effects of their redeemption at the current block, given current on-chain conditions."
      },
      "previewWithdraw(uint256)": {
        "details": "Allows an on-chain or off-chain user to simulate the effects of their withdrawal at the current block, given current on-chain conditions."
      },
      "proxiableUUID()": {
        "details": "Implementation of the ERC1822 {proxiableUUID} function. This returns the storage slot used by the implementation. It is used to validate that the this implementation remains valid after an upgrade. IMPORTANT: A proxy pointing at a proxiable contract should not be considered proxiable itself, because this risks bricking a proxy that upgrades to it, by delegating to itself until out of gas. Thus it is critical that this function revert if invoked through a proxy. This is guaranteed by the `notDelegated` modifier."
      },
      "rate()": {
        "details": "Returns UsdPlusToken liquidity index in e27 (ray)",
        "returns": {
          "_0": "rate Rate between WrappedUsdPlusToken and UsdPlusToken in e27 (ray)*"
        }
      },
      "redeem(uint256,address,address)": {
        "details": "Burns exactly shares from owner and sends assets of underlying tokens to receiver."
      },
      "renounceRole(bytes32,address)": {
        "details": "Revokes `role` from the calling account. Roles are often managed via {grantRole} and {revokeRole}: this function's purpose is to provide a mechanism for accounts to lose their privileges if they are compromised (such as when a trusted device is misplaced). If the calling account had been revoked `role`, emits a {RoleRevoked} event. Requirements: - the caller must be `account`."
      },
      "revokeRole(bytes32,address)": {
        "details": "Revokes `role` from `account`. If `account` had been granted `role`, emits a {RoleRevoked} event. Requirements: - the caller must have ``role``'s admin role."
      },
      "supportsInterface(bytes4)": {
        "details": "See {IERC165-supportsInterface}."
      },
      "symbol()": {
        "details": "Returns the symbol of the token, usually a shorter version of the name."
      },
      "totalAssets()": {
        "details": "Total amount of the underlying asset that is managed by Vault*"
      },
      "totalSupply()": {
        "details": "See {IERC20-totalSupply}."
      },
      "transfer(address,uint256)": {
        "details": "See {IERC20-transfer}. Requirements: - `to` cannot be the zero address. - the caller must have a balance of at least `amount`."
      },
      "transferFrom(address,address,uint256)": {
        "details": "See {IERC20-transferFrom}. Emits an {Approval} event indicating the updated allowance. This is not required by the EIP. See the note at the beginning of {ERC20}. NOTE: Does not update the allowance if the current allowance is the maximum `uint256`. Requirements: - `from` and `to` cannot be the zero address. - `from` must have a balance of at least `amount`. - the caller must have allowance for ``from``'s tokens of at least `amount`."
      },
      "upgradeTo(address)": {
        "details": "Upgrade the implementation of the proxy to `newImplementation`. Calls {_authorizeUpgrade}. Emits an {Upgraded} event."
      },
      "upgradeToAndCall(address,bytes)": {
        "details": "Upgrade the implementation of the proxy to `newImplementation`, and subsequently execute the function call encoded in `data`. Calls {_authorizeUpgrade}. Emits an {Upgraded} event."
      },
      "withdraw(uint256,address,address)": {
        "details": "Burns shares from owner and sends exactly assets of underlying tokens to receiver."
      }
    },
    "version": 1
  },
  "userdoc": {
    "kind": "user",
    "methods": {},
    "version": 1
  },
  "storageLayout": {
    "storage": [
      {
        "astId": 808,
        "contract": "contracts/WrappedUsdPlusToken.sol:WrappedUsdPlusToken",
        "label": "_initialized",
        "offset": 0,
        "slot": "0",
        "type": "t_uint8"
      },
      {
        "astId": 811,
        "contract": "contracts/WrappedUsdPlusToken.sol:WrappedUsdPlusToken",
        "label": "_initializing",
        "offset": 1,
        "slot": "0",
        "type": "t_bool"
      },
      {
        "astId": 2077,
        "contract": "contracts/WrappedUsdPlusToken.sol:WrappedUsdPlusToken",
        "label": "__gap",
        "offset": 0,
        "slot": "1",
        "type": "t_array(t_uint256)50_storage"
      },
      {
        "astId": 1098,
        "contract": "contracts/WrappedUsdPlusToken.sol:WrappedUsdPlusToken",
        "label": "_balances",
        "offset": 0,
        "slot": "51",
        "type": "t_mapping(t_address,t_uint256)"
      },
      {
        "astId": 1104,
        "contract": "contracts/WrappedUsdPlusToken.sol:WrappedUsdPlusToken",
        "label": "_allowances",
        "offset": 0,
        "slot": "52",
        "type": "t_mapping(t_address,t_mapping(t_address,t_uint256))"
      },
      {
        "astId": 1106,
        "contract": "contracts/WrappedUsdPlusToken.sol:WrappedUsdPlusToken",
        "label": "_totalSupply",
        "offset": 0,
        "slot": "53",
        "type": "t_uint256"
      },
      {
        "astId": 1108,
        "contract": "contracts/WrappedUsdPlusToken.sol:WrappedUsdPlusToken",
        "label": "_name",
        "offset": 0,
        "slot": "54",
        "type": "t_string_storage"
      },
      {
        "astId": 1110,
        "contract": "contracts/WrappedUsdPlusToken.sol:WrappedUsdPlusToken",
        "label": "_symbol",
        "offset": 0,
        "slot": "55",
        "type": "t_string_storage"
      },
      {
        "astId": 1689,
        "contract": "contracts/WrappedUsdPlusToken.sol:WrappedUsdPlusToken",
        "label": "__gap",
        "offset": 0,
        "slot": "56",
        "type": "t_array(t_uint256)45_storage"
      },
      {
        "astId": 2384,
        "contract": "contracts/WrappedUsdPlusToken.sol:WrappedUsdPlusToken",
        "label": "__gap",
        "offset": 0,
        "slot": "101",
        "type": "t_array(t_uint256)50_storage"
      },
      {
        "astId": 39,
        "contract": "contracts/WrappedUsdPlusToken.sol:WrappedUsdPlusToken",
        "label": "_roles",
        "offset": 0,
        "slot": "151",
        "type": "t_mapping(t_bytes32,t_struct(RoleData)34_storage)"
      },
      {
        "astId": 338,
        "contract": "contracts/WrappedUsdPlusToken.sol:WrappedUsdPlusToken",
        "label": "__gap",
        "offset": 0,
        "slot": "152",
        "type": "t_array(t_uint256)49_storage"
      },
      {
        "astId": 790,
        "contract": "contracts/WrappedUsdPlusToken.sol:WrappedUsdPlusToken",
        "label": "__gap",
        "offset": 0,
        "slot": "201",
        "type": "t_array(t_uint256)50_storage"
      },
      {
        "astId": 1078,
        "contract": "contracts/WrappedUsdPlusToken.sol:WrappedUsdPlusToken",
        "label": "__gap",
        "offset": 0,
        "slot": "251",
        "type": "t_array(t_uint256)50_storage"
      },
      {
        "astId": 5335,
        "contract": "contracts/WrappedUsdPlusToken.sol:WrappedUsdPlusToken",
        "label": "asset",
        "offset": 0,
        "slot": "301",
        "type": "t_contract(IUsdPlusToken)6183"
      }
    ],
    "types": {
      "t_address": {
        "encoding": "inplace",
        "label": "address",
        "numberOfBytes": "20"
      },
      "t_array(t_uint256)45_storage": {
        "base": "t_uint256",
        "encoding": "inplace",
        "label": "uint256[45]",
        "numberOfBytes": "1440"
      },
      "t_array(t_uint256)49_storage": {
        "base": "t_uint256",
        "encoding": "inplace",
        "label": "uint256[49]",
        "numberOfBytes": "1568"
      },
      "t_array(t_uint256)50_storage": {
        "base": "t_uint256",
        "encoding": "inplace",
        "label": "uint256[50]",
        "numberOfBytes": "1600"
      },
      "t_bool": {
        "encoding": "inplace",
        "label": "bool",
        "numberOfBytes": "1"
      },
      "t_bytes32": {
        "encoding": "inplace",
        "label": "bytes32",
        "numberOfBytes": "32"
      },
      "t_contract(IUsdPlusToken)6183": {
        "encoding": "inplace",
        "label": "contract IUsdPlusToken",
        "numberOfBytes": "20"
      },
      "t_mapping(t_address,t_bool)": {
        "encoding": "mapping",
        "key": "t_address",
        "label": "mapping(address => bool)",
        "numberOfBytes": "32",
        "value": "t_bool"
      },
      "t_mapping(t_address,t_mapping(t_address,t_uint256))": {
        "encoding": "mapping",
        "key": "t_address",
        "label": "mapping(address => mapping(address => uint256))",
        "numberOfBytes": "32",
        "value": "t_mapping(t_address,t_uint256)"
      },
      "t_mapping(t_address,t_uint256)": {
        "encoding": "mapping",
        "key": "t_address",
        "label": "mapping(address => uint256)",
        "numberOfBytes": "32",
        "value": "t_uint256"
      },
      "t_mapping(t_bytes32,t_struct(RoleData)34_storage)": {
        "encoding": "mapping",
        "key": "t_bytes32",
        "label": "mapping(bytes32 => struct AccessControlUpgradeable.RoleData)",
        "numberOfBytes": "32",
        "value": "t_struct(RoleData)34_storage"
      },
      "t_string_storage": {
        "encoding": "bytes",
        "label": "string",
        "numberOfBytes": "32"
      },
      "t_struct(RoleData)34_storage": {
        "encoding": "inplace",
        "label": "struct AccessControlUpgradeable.RoleData",
        "members": [
          {
            "astId": 31,
            "contract": "contracts/WrappedUsdPlusToken.sol:WrappedUsdPlusToken",
            "label": "members",
            "offset": 0,
            "slot": "0",
            "type": "t_mapping(t_address,t_bool)"
          },
          {
            "astId": 33,
            "contract": "contracts/WrappedUsdPlusToken.sol:WrappedUsdPlusToken",
            "label": "adminRole",
            "offset": 0,
            "slot": "1",
            "type": "t_bytes32"
          }
        ],
        "numberOfBytes": "64"
      },
      "t_uint256": {
        "encoding": "inplace",
        "label": "uint256",
        "numberOfBytes": "32"
      },
      "t_uint8": {
        "encoding": "inplace",
        "label": "uint8",
        "numberOfBytes": "1"
      }
    }
  }
}