{
  "address": "0x8767a49d90F6fD60295083eaDE854F3a67A67516",
  "abi": [
    {
      "inputs": [],
      "stateMutability": "nonpayable",
      "type": "constructor"
    },
    {
      "anonymous": false,
      "inputs": [
        {
          "indexed": false,
          "internalType": "address",
          "name": "previousAdmin",
          "type": "address"
        },
        {
          "indexed": false,
          "internalType": "address",
          "name": "newAdmin",
          "type": "address"
        }
      ],
      "name": "AdminChanged",
      "type": "event"
    },
    {
      "anonymous": false,
      "inputs": [
        {
          "indexed": true,
          "internalType": "address",
          "name": "beacon",
          "type": "address"
        }
      ],
      "name": "BeaconUpgraded",
      "type": "event"
    },
    {
      "anonymous": false,
      "inputs": [
        {
          "indexed": false,
          "internalType": "uint8",
          "name": "version",
          "type": "uint8"
        }
      ],
      "name": "Initialized",
      "type": "event"
    },
    {
      "anonymous": false,
      "inputs": [
        {
          "indexed": false,
          "internalType": "string",
          "name": "label",
          "type": "string"
        },
        {
          "indexed": false,
          "internalType": "uint256",
          "name": "amount",
          "type": "uint256"
        },
        {
          "indexed": false,
          "internalType": "uint256",
          "name": "fee",
          "type": "uint256"
        },
        {
          "indexed": false,
          "internalType": "address",
          "name": "sender",
          "type": "address"
        }
      ],
      "name": "MintBurn",
      "type": "event"
    },
    {
      "anonymous": false,
      "inputs": [
        {
          "indexed": false,
          "internalType": "address",
          "name": "account",
          "type": "address"
        }
      ],
      "name": "Paused",
      "type": "event"
    },
    {
      "anonymous": false,
      "inputs": [],
      "name": "Payout",
      "type": "event"
    },
    {
      "anonymous": false,
      "inputs": [
        {
          "indexed": true,
          "internalType": "bytes32",
          "name": "role",
          "type": "bytes32"
        },
        {
          "indexed": true,
          "internalType": "bytes32",
          "name": "previousAdminRole",
          "type": "bytes32"
        },
        {
          "indexed": true,
          "internalType": "bytes32",
          "name": "newAdminRole",
          "type": "bytes32"
        }
      ],
      "name": "RoleAdminChanged",
      "type": "event"
    },
    {
      "anonymous": false,
      "inputs": [
        {
          "indexed": true,
          "internalType": "bytes32",
          "name": "role",
          "type": "bytes32"
        },
        {
          "indexed": true,
          "internalType": "address",
          "name": "account",
          "type": "address"
        },
        {
          "indexed": true,
          "internalType": "address",
          "name": "sender",
          "type": "address"
        }
      ],
      "name": "RoleGranted",
      "type": "event"
    },
    {
      "anonymous": false,
      "inputs": [
        {
          "indexed": true,
          "internalType": "bytes32",
          "name": "role",
          "type": "bytes32"
        },
        {
          "indexed": true,
          "internalType": "address",
          "name": "account",
          "type": "address"
        },
        {
          "indexed": true,
          "internalType": "address",
          "name": "sender",
          "type": "address"
        }
      ],
      "name": "RoleRevoked",
      "type": "event"
    },
    {
      "anonymous": false,
      "inputs": [
        {
          "indexed": false,
          "internalType": "address",
          "name": "account",
          "type": "address"
        }
      ],
      "name": "Unpaused",
      "type": "event"
    },
    {
      "anonymous": false,
      "inputs": [
        {
          "indexed": true,
          "internalType": "address",
          "name": "implementation",
          "type": "address"
        }
      ],
      "name": "Upgraded",
      "type": "event"
    },
    {
      "inputs": [],
      "name": "DEFAULT_ADMIN_ROLE",
      "outputs": [
        {
          "internalType": "bytes32",
          "name": "",
          "type": "bytes32"
        }
      ],
      "stateMutability": "view",
      "type": "function"
    },
    {
      "inputs": [],
      "name": "PORTFOLIO_AGENT_ROLE",
      "outputs": [
        {
          "internalType": "bytes32",
          "name": "",
          "type": "bytes32"
        }
      ],
      "stateMutability": "view",
      "type": "function"
    },
    {
      "inputs": [],
      "name": "asset",
      "outputs": [
        {
          "internalType": "contract IERC20",
          "name": "",
          "type": "address"
        }
      ],
      "stateMutability": "view",
      "type": "function"
    },
    {
      "inputs": [],
      "name": "etsExchanger",
      "outputs": [
        {
          "internalType": "contract IHedgeExchanger",
          "name": "",
          "type": "address"
        }
      ],
      "stateMutability": "view",
      "type": "function"
    },
    {
      "inputs": [],
      "name": "etsToken",
      "outputs": [
        {
          "internalType": "contract IRebaseToken",
          "name": "",
          "type": "address"
        }
      ],
      "stateMutability": "view",
      "type": "function"
    },
    {
      "inputs": [],
      "name": "getAvgApy",
      "outputs": [
        {
          "internalType": "uint256",
          "name": "",
          "type": "uint256"
        }
      ],
      "stateMutability": "view",
      "type": "function"
    },
    {
      "inputs": [
        {
          "internalType": "bytes32",
          "name": "role",
          "type": "bytes32"
        }
      ],
      "name": "getRoleAdmin",
      "outputs": [
        {
          "internalType": "bytes32",
          "name": "",
          "type": "bytes32"
        }
      ],
      "stateMutability": "view",
      "type": "function"
    },
    {
      "inputs": [],
      "name": "getWeight",
      "outputs": [
        {
          "internalType": "uint256",
          "name": "",
          "type": "uint256"
        }
      ],
      "stateMutability": "view",
      "type": "function"
    },
    {
      "inputs": [
        {
          "internalType": "bytes32",
          "name": "role",
          "type": "bytes32"
        },
        {
          "internalType": "address",
          "name": "account",
          "type": "address"
        }
      ],
      "name": "grantRole",
      "outputs": [],
      "stateMutability": "nonpayable",
      "type": "function"
    },
    {
      "inputs": [
        {
          "internalType": "bytes32",
          "name": "role",
          "type": "bytes32"
        },
        {
          "internalType": "address",
          "name": "account",
          "type": "address"
        }
      ],
      "name": "hasRole",
      "outputs": [
        {
          "internalType": "bool",
          "name": "",
          "type": "bool"
        }
      ],
      "stateMutability": "view",
      "type": "function"
    },
    {
      "inputs": [],
      "name": "initialize",
      "outputs": [],
      "stateMutability": "nonpayable",
      "type": "function"
    },
    {
      "inputs": [],
      "name": "junior",
      "outputs": [
        {
          "internalType": "contract IRebaseToken",
          "name": "",
          "type": "address"
        }
      ],
      "stateMutability": "view",
      "type": "function"
    },
    {
      "inputs": [],
      "name": "lastBlockNumber",
      "outputs": [
        {
          "internalType": "uint256",
          "name": "",
          "type": "uint256"
        }
      ],
      "stateMutability": "view",
      "type": "function"
    },
    {
      "inputs": [],
      "name": "maxAvgApyAbroad",
      "outputs": [
        {
          "internalType": "uint256",
          "name": "",
          "type": "uint256"
        }
      ],
      "stateMutability": "view",
      "type": "function"
    },
    {
      "inputs": [],
      "name": "maxJuniorWeight",
      "outputs": [
        {
          "internalType": "uint256",
          "name": "",
          "type": "uint256"
        }
      ],
      "stateMutability": "view",
      "type": "function"
    },
    {
      "inputs": [],
      "name": "maxMintJunior",
      "outputs": [
        {
          "internalType": "uint256",
          "name": "",
          "type": "uint256"
        }
      ],
      "stateMutability": "view",
      "type": "function"
    },
    {
      "inputs": [],
      "name": "maxRedeemJunior",
      "outputs": [
        {
          "internalType": "uint256",
          "name": "",
          "type": "uint256"
        }
      ],
      "stateMutability": "view",
      "type": "function"
    },
    {
      "inputs": [],
      "name": "minAvgApyAbroad",
      "outputs": [
        {
          "internalType": "uint256",
          "name": "",
          "type": "uint256"
        }
      ],
      "stateMutability": "view",
      "type": "function"
    },
    {
      "inputs": [],
      "name": "minJuniorWeight",
      "outputs": [
        {
          "internalType": "uint256",
          "name": "",
          "type": "uint256"
        }
      ],
      "stateMutability": "view",
      "type": "function"
    },
    {
      "inputs": [
        {
          "components": [
            {
              "internalType": "uint256",
              "name": "amount",
              "type": "uint256"
            },
            {
              "internalType": "enum Insurance.TrancheType",
              "name": "tranche",
              "type": "uint8"
            }
          ],
          "internalType": "struct Insurance.InputMint",
          "name": "input",
          "type": "tuple"
        }
      ],
      "name": "mint",
      "outputs": [],
      "stateMutability": "nonpayable",
      "type": "function"
    },
    {
      "inputs": [],
      "name": "netAssetValue",
      "outputs": [
        {
          "internalType": "uint256",
          "name": "",
          "type": "uint256"
        }
      ],
      "stateMutability": "view",
      "type": "function"
    },
    {
      "inputs": [],
      "name": "paused",
      "outputs": [
        {
          "internalType": "bool",
          "name": "",
          "type": "bool"
        }
      ],
      "stateMutability": "view",
      "type": "function"
    },
    {
      "inputs": [
        {
          "internalType": "uint256",
          "name": "avgApy",
          "type": "uint256"
        }
      ],
      "name": "payout",
      "outputs": [],
      "stateMutability": "nonpayable",
      "type": "function"
    },
    {
      "inputs": [],
      "name": "proxiableUUID",
      "outputs": [
        {
          "internalType": "bytes32",
          "name": "",
          "type": "bytes32"
        }
      ],
      "stateMutability": "view",
      "type": "function"
    },
    {
      "inputs": [
        {
          "components": [
            {
              "internalType": "uint256",
              "name": "amount",
              "type": "uint256"
            },
            {
              "internalType": "enum Insurance.TrancheType",
              "name": "tranche",
              "type": "uint8"
            }
          ],
          "internalType": "struct Insurance.InputRedeem",
          "name": "input",
          "type": "tuple"
        }
      ],
      "name": "redeem",
      "outputs": [],
      "stateMutability": "nonpayable",
      "type": "function"
    },
    {
      "inputs": [
        {
          "internalType": "bytes32",
          "name": "role",
          "type": "bytes32"
        },
        {
          "internalType": "address",
          "name": "account",
          "type": "address"
        }
      ],
      "name": "renounceRole",
      "outputs": [],
      "stateMutability": "nonpayable",
      "type": "function"
    },
    {
      "inputs": [
        {
          "internalType": "bytes32",
          "name": "role",
          "type": "bytes32"
        },
        {
          "internalType": "address",
          "name": "account",
          "type": "address"
        }
      ],
      "name": "revokeRole",
      "outputs": [],
      "stateMutability": "nonpayable",
      "type": "function"
    },
    {
      "inputs": [],
      "name": "senior",
      "outputs": [
        {
          "internalType": "contract IRebaseToken",
          "name": "",
          "type": "address"
        }
      ],
      "stateMutability": "view",
      "type": "function"
    },
    {
      "inputs": [
        {
          "internalType": "uint256",
          "name": "_minAvgApyAbroad",
          "type": "uint256"
        },
        {
          "internalType": "uint256",
          "name": "_maxAvgApyAbroad",
          "type": "uint256"
        }
      ],
      "name": "setAvgApyAbroad",
      "outputs": [],
      "stateMutability": "nonpayable",
      "type": "function"
    },
    {
      "inputs": [
        {
          "components": [
            {
              "internalType": "address",
              "name": "senior",
              "type": "address"
            },
            {
              "internalType": "address",
              "name": "junior",
              "type": "address"
            },
            {
              "internalType": "address",
              "name": "asset",
              "type": "address"
            }
          ],
          "internalType": "struct Insurance.InsuranceParams",
          "name": "params",
          "type": "tuple"
        }
      ],
      "name": "setParams",
      "outputs": [],
      "stateMutability": "nonpayable",
      "type": "function"
    },
    {
      "inputs": [
        {
          "components": [
            {
              "internalType": "address",
              "name": "etsToken",
              "type": "address"
            },
            {
              "internalType": "address",
              "name": "etsExchanger",
              "type": "address"
            }
          ],
          "internalType": "struct InsuranceEtsOpUsdc.SetUpParams",
          "name": "params",
          "type": "tuple"
        }
      ],
      "name": "setSetup",
      "outputs": [],
      "stateMutability": "nonpayable",
      "type": "function"
    },
    {
      "inputs": [
        {
          "internalType": "uint256",
          "name": "_minJuniorWeight",
          "type": "uint256"
        },
        {
          "internalType": "uint256",
          "name": "_maxJuniorWeight",
          "type": "uint256"
        }
      ],
      "name": "setWeights",
      "outputs": [],
      "stateMutability": "nonpayable",
      "type": "function"
    },
    {
      "inputs": [
        {
          "internalType": "bytes4",
          "name": "interfaceId",
          "type": "bytes4"
        }
      ],
      "name": "supportsInterface",
      "outputs": [
        {
          "internalType": "bool",
          "name": "",
          "type": "bool"
        }
      ],
      "stateMutability": "view",
      "type": "function"
    },
    {
      "inputs": [],
      "name": "totalSupply",
      "outputs": [
        {
          "internalType": "uint256",
          "name": "",
          "type": "uint256"
        }
      ],
      "stateMutability": "view",
      "type": "function"
    },
    {
      "inputs": [
        {
          "internalType": "address",
          "name": "newImplementation",
          "type": "address"
        }
      ],
      "name": "upgradeTo",
      "outputs": [],
      "stateMutability": "nonpayable",
      "type": "function"
    },
    {
      "inputs": [
        {
          "internalType": "address",
          "name": "newImplementation",
          "type": "address"
        },
        {
          "internalType": "bytes",
          "name": "data",
          "type": "bytes"
        }
      ],
      "name": "upgradeToAndCall",
      "outputs": [],
      "stateMutability": "payable",
      "type": "function"
    }
  ],
  "numDeployments": 1,
  "solcInputHash": "25d00f4013cb93617b488639df895615",
  "bytecode": "0x60a06040523060601b6080523480156200001857600080fd5b50600054610100900460ff16158080156200003a5750600054600160ff909116105b806200006a575062000057306200022360201b620013fc1760201c565b1580156200006a575060005460ff166001145b620000c25760405162461bcd60e51b815260206004820152602e602482015260008051602062003b0683398151915260448201526d191e481a5b9a5d1a585b1a5e995960921b60648201526084015b60405180910390fd5b6000805460ff191660011790558015620000e6576000805461ff0019166101001790555b80156200011c576000805461ff00191690556040516001815260008051602062003b268339815191529060200160405180910390a15b50600054610100900460ff16158080156200013e5750600054600160ff909116105b806200016e57506200015b306200022360201b620013fc1760201c565b1580156200016e575060005460ff166001145b620001c25760405162461bcd60e51b815260206004820152602e602482015260008051602062003b0683398151915260448201526d191e481a5b9a5d1a585b1a5e995960921b6064820152608401620000b9565b6000805460ff191660011790558015620001e6576000805461ff0019166101001790555b80156200021c576000805461ff00191690556040516001815260008051602062003b268339815191529060200160405180910390a15b5062000232565b6001600160a01b03163b151590565b60805160601c6138996200026d600039600081816108e401528181610924015281816109c401528181610a040152610bee01526138996000f3fe60806040526004361061020f5760003560e01c80637fdbecaa11610118578063b84704d2116100a0578063e11523431161006f578063e1152343146105bd578063eab77ac9146105dd578063ef6ffef2146105fe578063f15086e51461061e578063f9e9dc4d1461063f57600080fd5b8063b84704d214610546578063bcabeac21461055d578063d547741f1461057d578063d9550b101461059d57600080fd5b8063a217fddf116100e7578063a217fddf146104d2578063a3673b38146104e7578063a9b4b780146104fc578063abd4dde014610511578063b34b9c461461052557600080fd5b80637fdbecaa146104665780638129fc1c1461047d5780638ef76ceb1461049257806391d14854146104b257600080fd5b806338d52e0f1161019b57806352d1902d1161016a57806352d1902d146103ce5780635c975abb146103e35780635d4bcd4b146103fb5780635dbd733a1461041b57806379480fe41461044f57600080fd5b806338d52e0f1461034c57806346ca0f4d146103855780634f1ef286146103a657806351e0d30c146103b957600080fd5b8063248a9ca3116101e2578063248a9ca3146102a55780632552317c146102d55780632f2ff15d146102ec57806336568abe1461030c5780633659cfe61461032c57600080fd5b806301ffc9a71461021457806311f8f93c14610249578063161567f21461026e57806318160ddd14610290575b600080fd5b34801561022057600080fd5b5061023461022f36600461329e565b610654565b60405190151581526020015b60405180910390f35b34801561025557600080fd5b506102606101305481565b604051908152602001610240565b34801561027a57600080fd5b5061028e6102893660046132e9565b61068b565b005b34801561029c57600080fd5b5061026061071d565b3480156102b157600080fd5b506102606102c0366004613240565b60009081526065602052604090206001015490565b3480156102e157600080fd5b506102606101325481565b3480156102f857600080fd5b5061028e610307366004613272565b610831565b34801561031857600080fd5b5061028e610327366004613272565b61085b565b34801561033857600080fd5b5061028e610347366004613141565b6108d9565b34801561035857600080fd5b5061012f5461036d906001600160a01b031681565b6040516001600160a01b039091168152602001610240565b34801561039157600080fd5b506101675461036d906001600160a01b031681565b61028e6103b436600461315c565b6109b9565b3480156103c557600080fd5b50610260610a86565b3480156103da57600080fd5b50610260610be1565b3480156103ef57600080fd5b5060fb5460ff16610234565b34801561040757600080fd5b5061028e610416366004613305565b610c94565b34801561042757600080fd5b506102607fd67ad422505496469a1adf6cdf9e5ee92ac5d33992843c9ecc4b2f6d6cde913781565b34801561045b57600080fd5b506102606101345481565b34801561047257600080fd5b506102606101315481565b34801561048957600080fd5b5061028e610e4f565b34801561049e57600080fd5b5061028e6104ad3660046132e9565b610f19565b3480156104be57600080fd5b506102346104cd366004613272565b610f76565b3480156104de57600080fd5b50610260600081565b3480156104f357600080fd5b50610260610fa1565b34801561050857600080fd5b5061026061101e565b34801561051d57600080fd5b506000610260565b34801561053157600080fd5b506101685461036d906001600160a01b031681565b34801561055257600080fd5b506102606101335481565b34801561056957600080fd5b5061028e610578366004613317565b6110d0565b34801561058957600080fd5b5061028e610598366004613272565b611104565b3480156105a957600080fd5b5061028e6105b83660046132e9565b611129565b3480156105c957600080fd5b5061028e6105d8366004613240565b611186565b3480156105e957600080fd5b5061012e5461036d906001600160a01b031681565b34801561060a57600080fd5b5061028e610619366004613317565b6111e5565b34801561062a57600080fd5b5061012d5461036d906001600160a01b031681565b34801561064b57600080fd5b50610260611268565b60006001600160e01b03198216637965db0b60e01b148061068557506301ffc9a760e01b6001600160e01b03198316145b92915050565b610696600033610f76565b6106bb5760405162461bcd60e51b81526004016106b290613581565b60405180910390fd5b6106c86020820182613141565b61016780546001600160a01b0319166001600160a01b03929092169190911790556106f96040820160208301613141565b61016880546001600160a01b0319166001600160a01b039290921691909117905550565b61012e54604080516318160ddd60e01b815290516000926001600160a01b0316916318160ddd916004808301926020929190829003018186803b15801561076357600080fd5b505afa158015610777573d6000803e3d6000fd5b505050506040513d601f19601f8201168201806040525081019061079b9190613259565b61012d60009054906101000a90046001600160a01b03166001600160a01b03166318160ddd6040518163ffffffff1660e01b815260040160206040518083038186803b1580156107ea57600080fd5b505afa1580156107fe573d6000803e3d6000fd5b505050506040513d601f19601f820116820180604052508101906108229190613259565b61082c9190613626565b905090565b60008281526065602052604090206001015461084c8161140b565b6108568383611415565b505050565b6001600160a01b03811633146108cb5760405162461bcd60e51b815260206004820152602f60248201527f416363657373436f6e74726f6c3a2063616e206f6e6c792072656e6f756e636560448201526e103937b632b9903337b91039b2b63360891b60648201526084016106b2565b6108d5828261149b565b5050565b306001600160a01b037f00000000000000000000000000000000000000000000000000000000000000001614156109225760405162461bcd60e51b81526004016106b290613464565b7f00000000000000000000000000000000000000000000000000000000000000006001600160a01b031661096b60008051602061381d833981519152546001600160a01b031690565b6001600160a01b0316146109915760405162461bcd60e51b81526004016106b2906134b0565b61099a81611502565b604080516000808252602082019092526109b69183919061150d565b50565b306001600160a01b037f0000000000000000000000000000000000000000000000000000000000000000161415610a025760405162461bcd60e51b81526004016106b290613464565b7f00000000000000000000000000000000000000000000000000000000000000006001600160a01b0316610a4b60008051602061381d833981519152546001600160a01b031690565b6001600160a01b031614610a715760405162461bcd60e51b81526004016106b2906134b0565b610a7a82611502565b6108d58282600161150d565b61012d54604080516318160ddd60e01b815290516000926001600160a01b0316916318160ddd916004808301926020929190829003018186803b158015610acc57600080fd5b505afa158015610ae0573d6000803e3d6000fd5b505050506040513d601f19601f82011682018060405250810190610b049190613259565b610b0e5750600090565b6000606461013154610b1e61071d565b610b28919061374b565b610b32919061363e565b9050600061012e60009054906101000a90046001600160a01b03166001600160a01b03166318160ddd6040518163ffffffff1660e01b815260040160206040518083038186803b158015610b8557600080fd5b505afa158015610b99573d6000803e3d6000fd5b505050506040513d601f19601f82011682018060405250810190610bbd9190613259565b905080821115610bd857610bd1818361376a565b9250505090565b60009250505090565b6000306001600160a01b037f00000000000000000000000000000000000000000000000000000000000000001614610c815760405162461bcd60e51b815260206004820152603860248201527f555550535570677261646561626c653a206d757374206e6f742062652063616c60448201527f6c6564207468726f7567682064656c656761746563616c6c000000000000000060648201526084016106b2565b5060008051602061381d83398151915290565b610c9f600033610f76565b610cbb5760405162461bcd60e51b81526004016106b290613581565b6000610ccd6040830160208401613141565b6001600160a01b03161415610d125760405162461bcd60e51b815260206004820152600b60248201526a6a756e696f72207a65726f60a81b60448201526064016106b2565b6000610d216020830183613141565b6001600160a01b03161415610d665760405162461bcd60e51b815260206004820152600b60248201526a73656e696f72207a65726f60a81b60448201526064016106b2565b6000610d786060830160408401613141565b6001600160a01b03161415610dbc5760405162461bcd60e51b815260206004820152600a6024820152696173736574207a65726f60b01b60448201526064016106b2565b610dc96020820182613141565b61012d80546001600160a01b0319166001600160a01b0392909216919091179055610dfa6040820160208301613141565b61012e80546001600160a01b0319166001600160a01b0392909216919091179055610e2b6060820160408301613141565b61012f80546001600160a01b0319166001600160a01b039290921691909117905550565b600054610100900460ff1615808015610e6f5750600054600160ff909116105b80610e895750303b158015610e89575060005460ff166001145b610ea55760405162461bcd60e51b81526004016106b290613533565b6000805460ff191660011790558015610ec8576000805461ff0019166101001790555b610ed0611687565b80156109b6576000805461ff0019169055604051600181527f7f26b83ff96e1f2b6a682f133852f6798a09c465da95921460cefb3847402498906020015b60405180910390a150565b610f21611782565b436101325410610f435760405162461bcd60e51b81526004016106b2906135af565b43610132556109b681356001610f5f60408501602086016132c8565b6001811115610f7057610f706137da565b146117ca565b60009182526065602090815260408084206001600160a01b0393909316845291905290205460ff1690565b610167546040516370a0823160e01b81523060048201526000916001600160a01b0316906370a082319060240160206040518083038186803b158015610fe657600080fd5b505afa158015610ffa573d6000803e3d6000fd5b505050506040513d601f19601f8201168201806040525081019061082c9190613259565b60008061012e60009054906101000a90046001600160a01b03166001600160a01b03166318160ddd6040518163ffffffff1660e01b815260040160206040518083038186803b15801561107057600080fd5b505afa158015611084573d6000803e3d6000fd5b505050506040513d601f19601f820116820180604052508101906110a89190613259565b905080156110c8576110b861071d565b6110c2908261363e565b91505090565b600091505090565b6110db600033610f76565b6110f75760405162461bcd60e51b81526004016106b290613581565b6101349190915561013355565b60008281526065602052604090206001015461111f8161140b565b610856838361149b565b611131611782565b4361013254106111535760405162461bcd60e51b81526004016106b2906135af565b43610132556109b68135600161116f60408501602086016132c8565b6001811115611180576111806137da565b14611b7b565b61118e611782565b4361013254106111b05760405162461bcd60e51b81526004016106b2906135af565b43610132556111c0600033610f76565b6111dc5760405162461bcd60e51b81526004016106b290613581565b6109b681611fba565b61120f7fd67ad422505496469a1adf6cdf9e5ee92ac5d33992843c9ecc4b2f6d6cde913733610f76565b61125b5760405162461bcd60e51b815260206004820152601d60248201527f5265737472696374656420746f20506f7274666f6c696f204167656e7400000060448201526064016106b2565b6101309190915561013155565b61012d54604080516318160ddd60e01b815290516000926001600160a01b0316916318160ddd916004808301926020929190829003018186803b1580156112ae57600080fd5b505afa1580156112c2573d6000803e3d6000fd5b505050506040513d601f19601f820116820180604052508101906112e69190613259565b6113395761012e60009054906101000a90046001600160a01b03166001600160a01b03166318160ddd6040518163ffffffff1660e01b815260040160206040518083038186803b158015610fe657600080fd5b600060646101305461134961071d565b611353919061374b565b61135d919061363e565b9050600061012e60009054906101000a90046001600160a01b03166001600160a01b03166318160ddd6040518163ffffffff1660e01b815260040160206040518083038186803b1580156113b057600080fd5b505afa1580156113c4573d6000803e3d6000fd5b505050506040513d601f19601f820116820180604052508101906113e89190613259565b905081811115610bd857610bd1828261376a565b6001600160a01b03163b151590565b6109b68133612717565b61141f8282610f76565b6108d55760008281526065602090815260408083206001600160a01b03851684529091529020805460ff191660011790556114573390565b6001600160a01b0316816001600160a01b0316837f2f8788117e7eff1d82e926ec794901d17c78024a50270940304540a733656f0d60405160405180910390a45050565b6114a58282610f76565b156108d55760008281526065602090815260408083206001600160a01b0385168085529252808320805460ff1916905551339285917ff6391f5c32d9c69d2a47ea670b442974b53935d1edc7fd64eb21e047a839171b9190a45050565b60006108d58161140b565b7f4910fdfa16fed3260ed0e7147f7cc6da11a60208b5b9406d12a635614ffd91435460ff1615611540576108568361277b565b826001600160a01b03166352d1902d6040518163ffffffff1660e01b815260040160206040518083038186803b15801561157957600080fd5b505afa9250505080156115a9575060408051601f3d908101601f191682019092526115a691810190613259565b60015b61160c5760405162461bcd60e51b815260206004820152602e60248201527f45524331393637557067726164653a206e657720696d706c656d656e7461746960448201526d6f6e206973206e6f74205555505360901b60648201526084016106b2565b60008051602061381d833981519152811461167b5760405162461bcd60e51b815260206004820152602960248201527f45524331393637557067726164653a20756e737570706f727465642070726f786044820152681a58589b195555525160ba1b60648201526084016106b2565b50610856838383612817565b600054610100900460ff16158080156116a75750600054600160ff909116105b806116c15750303b1580156116c1575060005460ff166001145b6116dd5760405162461bcd60e51b81526004016106b290613533565b6000805460ff191660011790558015611700576000805461ff0019166101001790555b611708612842565b611710612869565b611718612842565b611723600033611415565b600a61013055601e61013155623567e0610134556302aea5406101335580156109b6576000805461ff0019169055604051600181527f7f26b83ff96e1f2b6a682f133852f6798a09c465da95921460cefb384740249890602001610f0e565b60fb5460ff16156117c85760405162461bcd60e51b815260206004820152601060248201526f14185d5cd8589b194e881c185d5cd95960821b60448201526064016106b2565b565b600082116117ea5760405162461bcd60e51b81526004016106b2906134fc565b61012f546040516370a0823160e01b815233600482015283916001600160a01b0316906370a082319060240160206040518083038186803b15801561182e57600080fd5b505afa158015611842573d6000803e3d6000fd5b505050506040513d601f19601f820116820180604052508101906118669190613259565b10156118b45760405162461bcd60e51b815260206004820152601960248201527f4e6f7420656e6f75676820746f6b656e7320746f206d696e740000000000000060448201526064016106b2565b8015611903576118c2610a86565b8211156119035760405162461bcd60e51b815260206004820152600f60248201526e26b0bc1036b4b73a10353ab734b7b960891b60448201526064016106b2565b60008161191c5761012d546001600160a01b031661192a565b61012e546001600160a01b03165b61012f546040516323b872dd60e01b8152336004820152306024820152604481018690529192506001600160a01b0316906323b872dd90606401602060405180830381600087803b15801561197e57600080fd5b505af1158015611992573d6000803e3d6000fd5b505050506040513d601f19601f820116820180604052508101906119b6919061321e565b5060006119cb6119c4610fa1565b6004612898565b90506119d6846128c2565b806119df610fa1565b1015611a265760405162461bcd60e51b8152602060048201526016602482015275139055881b195cdcc81d1a185b88195e1c1958dd195960521b60448201526064016106b2565b6000611a3285846129dd565b905060008111611a845760405162461bcd60e51b815260206004820152601860248201527f416d6f756e74206f662053656e696f72206973207a65726f000000000000000060448201526064016106b2565b6040516340c10f1960e01b8152336004820152602481018290526001600160a01b038416906340c10f1990604401600060405180830381600087803b158015611acc57600080fd5b505af1158015611ae0573d6000803e3d6000fd5b505050507ffa6acd633ee08073d696f1ad14b9f42838087eb209ab689786d498e76269877884611b33576040518060400160405280600b81526020016a36b4b73a1d39b2b734b7b960a91b815250611b58565b6040518060400160405280600b81526020016a36b4b73a1d353ab734b7b960a91b8152505b82600033604051611b6c949392919061342c565b60405180910390a15050505050565b60008211611b9b5760405162461bcd60e51b81526004016106b2906134fc565b8015611bec57611ba9611268565b821115611bec5760405162461bcd60e51b815260206004820152601160248201527026b0bc103932b232b2b690353ab734b7b960791b60448201526064016106b2565b600081611c055761012d546001600160a01b0316611c13565b61012e546001600160a01b03165b6040516370a0823160e01b815233600482015290915083906001600160a01b038316906370a082319060240160206040518083038186803b158015611c5757600080fd5b505afa158015611c6b573d6000803e3d6000fd5b505050506040513d601f19601f82011682018060405250810190611c8f9190613259565b1015611cdd5760405162461bcd60e51b815260206004820152601b60248201527f4e6f7420656e6f75676820746f6b656e7320746f2072656465656d000000000060448201526064016106b2565b604051632770a7eb60e21b8152336004820152602481018490526001600160a01b03821690639dc29fac90604401600060405180830381600087803b158015611d2557600080fd5b505af1158015611d39573d6000803e3d6000fd5b505050506000611d498483612b3f565b905060008111611d6b5760405162461bcd60e51b81526004016106b2906134fc565b6000611d8382611d79610fa1565b6119c4919061376a565b9050611d8e82612ca2565b61012f546040516370a0823160e01b815230600482015283916001600160a01b0316906370a082319060240160206040518083038186803b158015611dd257600080fd5b505afa158015611de6573d6000803e3d6000fd5b505050506040513d601f19601f82011682018060405250810190611e0a9190613259565b1015611e585760405162461bcd60e51b815260206004820152601760248201527f4e6f7420656e6f75676820666f72207472616e7366657200000000000000000060448201526064016106b2565b61012f5460405163a9059cbb60e01b8152336004820152602481018490526001600160a01b039091169063a9059cbb90604401602060405180830381600087803b158015611ea557600080fd5b505af1158015611eb9573d6000803e3d6000fd5b505050506040513d601f19601f82011682018060405250810190611edd919061321e565b5080611ee7610fa1565b1015611f2e5760405162461bcd60e51b8152602060048201526016602482015275139055881b195cdcc81d1a185b88195e1c1958dd195960521b60448201526064016106b2565b7ffa6acd633ee08073d696f1ad14b9f42838087eb209ab689786d498e76269877884611f7f576040518060400160405280600d81526020016c3932b232b2b69d39b2b734b7b960991b815250611fa6565b6040518060400160405280600d81526020016c3932b232b2b69d353ab734b7b960991b8152505b86600033604051611b6c949392919061342c565b61012d60009054906101000a90046001600160a01b03166001600160a01b03166318160ddd6040518163ffffffff1660e01b815260040160206040518083038186803b15801561200957600080fd5b505afa15801561201d573d6000803e3d6000fd5b505050506040513d601f19601f820116820180604052508101906120419190613259565b15806120d1575061012e60009054906101000a90046001600160a01b03166001600160a01b03166318160ddd6040518163ffffffff1660e01b815260040160206040518083038186803b15801561209757600080fd5b505afa1580156120ab573d6000803e3d6000fd5b505050506040513d601f19601f820116820180604052508101906120cf9190613259565b155b156120d95750565b6101345481101580156120ef5750806101335410155b61212b5760405162461bcd60e51b815260206004820152600d60248201526c185d99d05c1e4818589c9bd859609a1b60448201526064016106b2565b600061213961016d8361363e565b90508061217b5760405162461bcd60e51b815260206004820152601060248201526f6461696c79417079206973207a65726f60801b60448201526064016106b2565b6000620f424082606461012d60009054906101000a90046001600160a01b03166001600160a01b03166318160ddd6040518163ffffffff1660e01b815260040160206040518083038186803b1580156121d357600080fd5b505afa1580156121e7573d6000803e3d6000fd5b505050506040513d601f19601f8201168201806040525081019061220b9190613259565b612215919061363e565b61221f919061374b565b612229919061363e565b61012d60009054906101000a90046001600160a01b03166001600160a01b03166318160ddd6040518163ffffffff1660e01b815260040160206040518083038186803b15801561227857600080fd5b505afa15801561228c573d6000803e3d6000fd5b505050506040513d601f19601f820116820180604052508101906122b09190613259565b6122ba9190613626565b9050600061012d60009054906101000a90046001600160a01b03166001600160a01b031663b1bf962d6040518163ffffffff1660e01b815260040160206040518083038186803b15801561230d57600080fd5b505afa158015612321573d6000803e3d6000fd5b505050506040513d601f19601f820116820180604052508101906123459190613259565b61234e83612d5f565b612364906b033b2e3c9fd0803ce800000061374b565b61236e919061363e565b61012d5460405163b2be259160e01b8152600481018390529192506001600160a01b03169063b2be259190602401600060405180830381600087803b1580156123b657600080fd5b505af11580156123ca573d6000803e3d6000fd5b5050505061012d60009054906101000a90046001600160a01b03166001600160a01b03166318160ddd6040518163ffffffff1660e01b815260040160206040518083038186803b15801561241d57600080fd5b505afa158015612431573d6000803e3d6000fd5b505050506040513d601f19601f820116820180604052508101906124559190613259565b821461249c5760405162461bcd60e51b81526020600482015260166024820152751cd95b9a5bdc8b9d1bdd185b081b9bdd08195c5d585b60521b60448201526064016106b2565b6000826124a7610fa1565b6124b1919061376a565b9050600061012e60009054906101000a90046001600160a01b03166001600160a01b031663b1bf962d6040518163ffffffff1660e01b815260040160206040518083038186803b15801561250457600080fd5b505afa158015612518573d6000803e3d6000fd5b505050506040513d601f19601f8201168201806040525081019061253c9190613259565b61254583612d5f565b61255b906b033b2e3c9fd0803ce800000061374b565b612565919061363e565b61012e5460405163b2be259160e01b8152600481018390529192506001600160a01b03169063b2be259190602401600060405180830381600087803b1580156125ad57600080fd5b505af11580156125c1573d6000803e3d6000fd5b5050505061012e60009054906101000a90046001600160a01b03166001600160a01b03166318160ddd6040518163ffffffff1660e01b815260040160206040518083038186803b15801561261457600080fd5b505afa158015612628573d6000803e3d6000fd5b505050506040513d601f19601f8201168201806040525081019061264c9190613259565b82146126935760405162461bcd60e51b81526020600482015260166024820152751a9d5b9a5bdc8b9d1bdd185b081b9bdd08195c5d585b60521b60448201526064016106b2565b61269b61071d565b6126a3610fa1565b146126e65760405162461bcd60e51b81526020600482015260136024820152721b985d881b9bdd08195c5d585b081d1bdd185b606a1b60448201526064016106b2565b6040517f354d7e40465161205ea9dee6ebfe67aee9bc460c83cd2397a35e68c5f6ef5e5190600090a1505050505050565b6127218282610f76565b6108d557612739816001600160a01b03166014612dda565b612744836020612dda565b6040516020016127559291906133a4565b60408051601f198184030181529082905262461bcd60e51b82526106b291600401613419565b6001600160a01b0381163b6127e85760405162461bcd60e51b815260206004820152602d60248201527f455243313936373a206e657720696d706c656d656e746174696f6e206973206e60448201526c1bdd08184818dbdb9d1c9858dd609a1b60648201526084016106b2565b60008051602061381d83398151915280546001600160a01b0319166001600160a01b0392909216919091179055565b61282083612f76565b60008251118061282d5750805b156108565761283c8383612fb6565b50505050565b600054610100900460ff166117c85760405162461bcd60e51b81526004016106b2906135db565b600054610100900460ff166128905760405162461bcd60e51b81526004016106b2906135db565b6117c86130a1565b60006127106128a7838261376a565b6128b1908561374b565b6128bb919061363e565b9392505050565b61012f546101685460405163095ea7b360e01b81526001600160a01b0391821660048201526024810184905291169063095ea7b390604401602060405180830381600087803b15801561291457600080fd5b505af1158015612928573d6000803e3d6000fd5b505050506040513d601f19601f8201168201806040525081019061294c919061321e565b5061016854604080516316fb876360e31b8152600481018490526024810191909152600060448201526001600160a01b039091169063b7dc3b18906064015b602060405180830381600087803b1580156129a557600080fd5b505af11580156129b9573d6000803e3d6000fd5b505050506040513d601f19601f820116820180604052508101906108d59190613259565b600080826001600160a01b031663313ce5676040518163ffffffff1660e01b815260040160206040518083038186803b158015612a1957600080fd5b505afa158015612a2d573d6000803e3d6000fd5b505050506040513d601f19601f82011682018060405250810190612a519190613339565b60ff169050600061012f60009054906101000a90046001600160a01b03166001600160a01b031663313ce5676040518163ffffffff1660e01b815260040160206040518083038186803b158015612aa757600080fd5b505afa158015612abb573d6000803e3d6000fd5b505050506040513d601f19601f82011682018060405250810190612adf9190613339565b60ff169050600082821115612b1457612af8838361376a565b612b0390600a6136a3565b612b0d908761363e565b9050612b36565b612b1e828461376a565b612b2990600a6136a3565b612b33908761374b565b90505b95945050505050565b600080600061012f60009054906101000a90046001600160a01b03166001600160a01b031663313ce5676040518163ffffffff1660e01b815260040160206040518083038186803b158015612b9357600080fd5b505afa158015612ba7573d6000803e3d6000fd5b505050506040513d601f19601f82011682018060405250810190612bcb9190613339565b60ff1690506000846001600160a01b031663313ce5676040518163ffffffff1660e01b815260040160206040518083038186803b158015612c0b57600080fd5b505afa158015612c1f573d6000803e3d6000fd5b505050506040513d601f19601f82011682018060405250810190612c439190613339565b60ff16905080821115612c7657612c5a818361376a565b612c6590600a6136a3565b612c6f908761374b565b9250612c98565b612c80828261376a565b612c8b90600a6136a3565b612c95908761363e565b92505b5090949350505050565b610167546101685460405163095ea7b360e01b81526001600160a01b0391821660048201526024810184905291169063095ea7b390604401602060405180830381600087803b158015612cf457600080fd5b505af1158015612d08573d6000803e3d6000fd5b505050506040513d601f19601f82011682018060405250810190612d2c919061321e565b506101685460405163db006a7560e01b8152600481018390526001600160a01b039091169063db006a759060240161298b565b600080612d70633b9aca008461374b565b905082612d81633b9aca008361363e565b146106855760405162461bcd60e51b815260206004820152602360248201527f4572726f72732e4d4154485f4d554c5449504c49434154494f4e5f4f564552466044820152624c4f5760e81b60648201526084016106b2565b60606000612de983600261374b565b612df4906002613626565b67ffffffffffffffff811115612e0c57612e0c613806565b6040519080825280601f01601f191660200182016040528015612e36576020820181803683370190505b509050600360fc1b81600081518110612e5157612e516137f0565b60200101906001600160f81b031916908160001a905350600f60fb1b81600181518110612e8057612e806137f0565b60200101906001600160f81b031916908160001a9053506000612ea484600261374b565b612eaf906001613626565b90505b6001811115612f27576f181899199a1a9b1b9c1cb0b131b232b360811b85600f1660108110612ee357612ee36137f0565b1a60f81b828281518110612ef957612ef96137f0565b60200101906001600160f81b031916908160001a90535060049490941c93612f20816137ad565b9050612eb2565b5083156128bb5760405162461bcd60e51b815260206004820181905260248201527f537472696e67733a20686578206c656e67746820696e73756666696369656e7460448201526064016106b2565b612f7f8161277b565b6040516001600160a01b038216907fbc7cd75a20ee27fd9adebab32041f755214dbc6bffa90cc0225b39da2e5c2d3b90600090a250565b60606001600160a01b0383163b61301e5760405162461bcd60e51b815260206004820152602660248201527f416464726573733a2064656c65676174652063616c6c20746f206e6f6e2d636f6044820152651b9d1c9858dd60d21b60648201526084016106b2565b600080846001600160a01b0316846040516130399190613388565b600060405180830381855af49150503d8060008114613074576040519150601f19603f3d011682016040523d82523d6000602084013e613079565b606091505b5091509150612b36828260405180606001604052806027815260200161383d602791396130d4565b600054610100900460ff166130c85760405162461bcd60e51b81526004016106b2906135db565b60fb805460ff19169055565b606083156130e35750816128bb565b8251156130f35782518084602001fd5b8160405162461bcd60e51b81526004016106b29190613419565b80356001600160a01b038116811461312457600080fd5b919050565b60006040828403121561313b57600080fd5b50919050565b60006020828403121561315357600080fd5b6128bb8261310d565b6000806040838503121561316f57600080fd5b6131788361310d565b9150602083013567ffffffffffffffff8082111561319557600080fd5b818501915085601f8301126131a957600080fd5b8135818111156131bb576131bb613806565b604051601f8201601f19908116603f011681019083821181831017156131e3576131e3613806565b816040528281528860208487010111156131fc57600080fd5b8260208601602083013760006020848301015280955050505050509250929050565b60006020828403121561323057600080fd5b815180151581146128bb57600080fd5b60006020828403121561325257600080fd5b5035919050565b60006020828403121561326b57600080fd5b5051919050565b6000806040838503121561328557600080fd5b823591506132956020840161310d565b90509250929050565b6000602082840312156132b057600080fd5b81356001600160e01b0319811681146128bb57600080fd5b6000602082840312156132da57600080fd5b8135600281106128bb57600080fd5b6000604082840312156132fb57600080fd5b6128bb8383613129565b60006060828403121561313b57600080fd5b6000806040838503121561332a57600080fd5b50508035926020909101359150565b60006020828403121561334b57600080fd5b815160ff811681146128bb57600080fd5b60008151808452613374816020860160208601613781565b601f01601f19169290920160200192915050565b6000825161339a818460208701613781565b9190910192915050565b7f416363657373436f6e74726f6c3a206163636f756e74200000000000000000008152600083516133dc816017850160208801613781565b7001034b99036b4b9b9b4b733903937b6329607d1b601791840191820152835161340d816028840160208801613781565b01602801949350505050565b6020815260006128bb602083018461335c565b60808152600061343f608083018761335c565b60208301959095525060408101929092526001600160a01b0316606090910152919050565b6020808252602c908201527f46756e6374696f6e206d7573742062652063616c6c6564207468726f7567682060408201526b19195b1959d85d1958d85b1b60a21b606082015260800190565b6020808252602c908201527f46756e6374696f6e206d7573742062652063616c6c6564207468726f7567682060408201526b6163746976652070726f787960a01b606082015260800190565b60208082526017908201527f416d6f756e74206f66206173736574206973207a65726f000000000000000000604082015260600190565b6020808252602e908201527f496e697469616c697a61626c653a20636f6e747261637420697320616c72656160408201526d191e481a5b9a5d1a585b1a5e995960921b606082015260800190565b6020808252601490820152735265737472696374656420746f2061646d696e7360601b604082015260600190565b6020808252601290820152714f6e6c79206f6e636520696e20626c6f636b60701b604082015260600190565b6020808252602b908201527f496e697469616c697a61626c653a20636f6e7472616374206973206e6f74206960408201526a6e697469616c697a696e6760a81b606082015260800190565b60008219821115613639576136396137c4565b500190565b60008261365b57634e487b7160e01b600052601260045260246000fd5b500490565b600181815b8085111561369b578160001904821115613681576136816137c4565b8085161561368e57918102915b93841c9390800290613665565b509250929050565b60006128bb83836000826136b957506001610685565b816136c657506000610685565b81600181146136dc57600281146136e657613702565b6001915050610685565b60ff8411156136f7576136f76137c4565b50506001821b610685565b5060208310610133831016604e8410600b8410161715613725575081810a610685565b61372f8383613660565b8060001904821115613743576137436137c4565b029392505050565b6000816000190483118215151615613765576137656137c4565b500290565b60008282101561377c5761377c6137c4565b500390565b60005b8381101561379c578181015183820152602001613784565b8381111561283c5750506000910152565b6000816137bc576137bc6137c4565b506000190190565b634e487b7160e01b600052601160045260246000fd5b634e487b7160e01b600052602160045260246000fd5b634e487b7160e01b600052603260045260246000fd5b634e487b7160e01b600052604160045260246000fdfe360894a13ba1a3210667c828492db98dca3e2076cc3735a920a3ca505d382bbc416464726573733a206c6f772d6c6576656c2064656c65676174652063616c6c206661696c6564a2646970667358221220d2c660c0f1178075abb174f75b28bf8e2b38494f791a43614a689bdc06f3099064736f6c63430008060033496e697469616c697a61626c653a20636f6e747261637420697320616c7265617f26b83ff96e1f2b6a682f133852f6798a09c465da95921460cefb3847402498",
  "devdoc": {
    "kind": "dev",
    "methods": {
      "constructor": {
        "custom:oz-upgrades-unsafe-allow": "constructor"
      },
      "getRoleAdmin(bytes32)": {
        "details": "Returns the admin role that controls `role`. See {grantRole} and {revokeRole}. To change a role's admin, use {_setRoleAdmin}."
      },
      "grantRole(bytes32,address)": {
        "details": "Grants `role` to `account`. If `account` had not been already granted `role`, emits a {RoleGranted} event. Requirements: - the caller must have ``role``'s admin role. May emit a {RoleGranted} event."
      },
      "hasRole(bytes32,address)": {
        "details": "Returns `true` if `account` has been granted `role`."
      },
      "paused()": {
        "details": "Returns true if the contract is paused, and false otherwise."
      },
      "proxiableUUID()": {
        "details": "Implementation of the ERC1822 {proxiableUUID} function. This returns the storage slot used by the implementation. It is used to validate that the this implementation remains valid after an upgrade. IMPORTANT: A proxy pointing at a proxiable contract should not be considered proxiable itself, because this risks bricking a proxy that upgrades to it, by delegating to itself until out of gas. Thus it is critical that this function revert if invoked through a proxy. This is guaranteed by the `notDelegated` modifier."
      },
      "renounceRole(bytes32,address)": {
        "details": "Revokes `role` from the calling account. Roles are often managed via {grantRole} and {revokeRole}: this function's purpose is to provide a mechanism for accounts to lose their privileges if they are compromised (such as when a trusted device is misplaced). If the calling account had been revoked `role`, emits a {RoleRevoked} event. Requirements: - the caller must be `account`. May emit a {RoleRevoked} event."
      },
      "revokeRole(bytes32,address)": {
        "details": "Revokes `role` from `account`. If `account` had been granted `role`, emits a {RoleRevoked} event. Requirements: - the caller must have ``role``'s admin role. May emit a {RoleRevoked} event."
      },
      "supportsInterface(bytes4)": {
        "details": "See {IERC165-supportsInterface}."
      },
      "upgradeTo(address)": {
        "details": "Upgrade the implementation of the proxy to `newImplementation`. Calls {_authorizeUpgrade}. Emits an {Upgraded} event."
      },
      "upgradeToAndCall(address,bytes)": {
        "details": "Upgrade the implementation of the proxy to `newImplementation`, and subsequently execute the function call encoded in `data`. Calls {_authorizeUpgrade}. Emits an {Upgraded} event."
      }
    },
    "version": 1
  },
  "userdoc": {
    "kind": "user",
    "methods": {},
    "version": 1
  },
  "storageLayout": {
    "storage": [
      {
        "astId": 808,
        "contract": "contracts/strategies/optimism/InsuranceEtsOpUsdc.sol:InsuranceEtsOpUsdc",
        "label": "_initialized",
        "offset": 0,
        "slot": "0",
        "type": "t_uint8"
      },
      {
        "astId": 811,
        "contract": "contracts/strategies/optimism/InsuranceEtsOpUsdc.sol:InsuranceEtsOpUsdc",
        "label": "_initializing",
        "offset": 1,
        "slot": "0",
        "type": "t_bool"
      },
      {
        "astId": 1602,
        "contract": "contracts/strategies/optimism/InsuranceEtsOpUsdc.sol:InsuranceEtsOpUsdc",
        "label": "__gap",
        "offset": 0,
        "slot": "1",
        "type": "t_array(t_uint256)50_storage"
      },
      {
        "astId": 1932,
        "contract": "contracts/strategies/optimism/InsuranceEtsOpUsdc.sol:InsuranceEtsOpUsdc",
        "label": "__gap",
        "offset": 0,
        "slot": "51",
        "type": "t_array(t_uint256)50_storage"
      },
      {
        "astId": 39,
        "contract": "contracts/strategies/optimism/InsuranceEtsOpUsdc.sol:InsuranceEtsOpUsdc",
        "label": "_roles",
        "offset": 0,
        "slot": "101",
        "type": "t_mapping(t_bytes32,t_struct(RoleData)34_storage)"
      },
      {
        "astId": 338,
        "contract": "contracts/strategies/optimism/InsuranceEtsOpUsdc.sol:InsuranceEtsOpUsdc",
        "label": "__gap",
        "offset": 0,
        "slot": "102",
        "type": "t_array(t_uint256)49_storage"
      },
      {
        "astId": 790,
        "contract": "contracts/strategies/optimism/InsuranceEtsOpUsdc.sol:InsuranceEtsOpUsdc",
        "label": "__gap",
        "offset": 0,
        "slot": "151",
        "type": "t_array(t_uint256)50_storage"
      },
      {
        "astId": 1087,
        "contract": "contracts/strategies/optimism/InsuranceEtsOpUsdc.sol:InsuranceEtsOpUsdc",
        "label": "__gap",
        "offset": 0,
        "slot": "201",
        "type": "t_array(t_uint256)50_storage"
      },
      {
        "astId": 1109,
        "contract": "contracts/strategies/optimism/InsuranceEtsOpUsdc.sol:InsuranceEtsOpUsdc",
        "label": "_paused",
        "offset": 0,
        "slot": "251",
        "type": "t_bool"
      },
      {
        "astId": 1214,
        "contract": "contracts/strategies/optimism/InsuranceEtsOpUsdc.sol:InsuranceEtsOpUsdc",
        "label": "__gap",
        "offset": 0,
        "slot": "252",
        "type": "t_array(t_uint256)49_storage"
      },
      {
        "astId": 3093,
        "contract": "contracts/strategies/optimism/InsuranceEtsOpUsdc.sol:InsuranceEtsOpUsdc",
        "label": "senior",
        "offset": 0,
        "slot": "301",
        "type": "t_contract(IRebaseToken)5501"
      },
      {
        "astId": 3096,
        "contract": "contracts/strategies/optimism/InsuranceEtsOpUsdc.sol:InsuranceEtsOpUsdc",
        "label": "junior",
        "offset": 0,
        "slot": "302",
        "type": "t_contract(IRebaseToken)5501"
      },
      {
        "astId": 3099,
        "contract": "contracts/strategies/optimism/InsuranceEtsOpUsdc.sol:InsuranceEtsOpUsdc",
        "label": "asset",
        "offset": 0,
        "slot": "303",
        "type": "t_contract(IERC20)2023"
      },
      {
        "astId": 3101,
        "contract": "contracts/strategies/optimism/InsuranceEtsOpUsdc.sol:InsuranceEtsOpUsdc",
        "label": "minJuniorWeight",
        "offset": 0,
        "slot": "304",
        "type": "t_uint256"
      },
      {
        "astId": 3103,
        "contract": "contracts/strategies/optimism/InsuranceEtsOpUsdc.sol:InsuranceEtsOpUsdc",
        "label": "maxJuniorWeight",
        "offset": 0,
        "slot": "305",
        "type": "t_uint256"
      },
      {
        "astId": 3105,
        "contract": "contracts/strategies/optimism/InsuranceEtsOpUsdc.sol:InsuranceEtsOpUsdc",
        "label": "lastBlockNumber",
        "offset": 0,
        "slot": "306",
        "type": "t_uint256"
      },
      {
        "astId": 3107,
        "contract": "contracts/strategies/optimism/InsuranceEtsOpUsdc.sol:InsuranceEtsOpUsdc",
        "label": "maxAvgApyAbroad",
        "offset": 0,
        "slot": "307",
        "type": "t_uint256"
      },
      {
        "astId": 3109,
        "contract": "contracts/strategies/optimism/InsuranceEtsOpUsdc.sol:InsuranceEtsOpUsdc",
        "label": "minAvgApyAbroad",
        "offset": 0,
        "slot": "308",
        "type": "t_uint256"
      },
      {
        "astId": 4061,
        "contract": "contracts/strategies/optimism/InsuranceEtsOpUsdc.sol:InsuranceEtsOpUsdc",
        "label": "__gap",
        "offset": 0,
        "slot": "309",
        "type": "t_array(t_uint256)50_storage"
      },
      {
        "astId": 5586,
        "contract": "contracts/strategies/optimism/InsuranceEtsOpUsdc.sol:InsuranceEtsOpUsdc",
        "label": "etsToken",
        "offset": 0,
        "slot": "359",
        "type": "t_contract(IRebaseToken)5501"
      },
      {
        "astId": 5589,
        "contract": "contracts/strategies/optimism/InsuranceEtsOpUsdc.sol:InsuranceEtsOpUsdc",
        "label": "etsExchanger",
        "offset": 0,
        "slot": "360",
        "type": "t_contract(IHedgeExchanger)5329"
      }
    ],
    "types": {
      "t_address": {
        "encoding": "inplace",
        "label": "address",
        "numberOfBytes": "20"
      },
      "t_array(t_uint256)49_storage": {
        "base": "t_uint256",
        "encoding": "inplace",
        "label": "uint256[49]",
        "numberOfBytes": "1568"
      },
      "t_array(t_uint256)50_storage": {
        "base": "t_uint256",
        "encoding": "inplace",
        "label": "uint256[50]",
        "numberOfBytes": "1600"
      },
      "t_bool": {
        "encoding": "inplace",
        "label": "bool",
        "numberOfBytes": "1"
      },
      "t_bytes32": {
        "encoding": "inplace",
        "label": "bytes32",
        "numberOfBytes": "32"
      },
      "t_contract(IERC20)2023": {
        "encoding": "inplace",
        "label": "contract IERC20",
        "numberOfBytes": "20"
      },
      "t_contract(IHedgeExchanger)5329": {
        "encoding": "inplace",
        "label": "contract IHedgeExchanger",
        "numberOfBytes": "20"
      },
      "t_contract(IRebaseToken)5501": {
        "encoding": "inplace",
        "label": "contract IRebaseToken",
        "numberOfBytes": "20"
      },
      "t_mapping(t_address,t_bool)": {
        "encoding": "mapping",
        "key": "t_address",
        "label": "mapping(address => bool)",
        "numberOfBytes": "32",
        "value": "t_bool"
      },
      "t_mapping(t_bytes32,t_struct(RoleData)34_storage)": {
        "encoding": "mapping",
        "key": "t_bytes32",
        "label": "mapping(bytes32 => struct AccessControlUpgradeable.RoleData)",
        "numberOfBytes": "32",
        "value": "t_struct(RoleData)34_storage"
      },
      "t_struct(RoleData)34_storage": {
        "encoding": "inplace",
        "label": "struct AccessControlUpgradeable.RoleData",
        "members": [
          {
            "astId": 31,
            "contract": "contracts/strategies/optimism/InsuranceEtsOpUsdc.sol:InsuranceEtsOpUsdc",
            "label": "members",
            "offset": 0,
            "slot": "0",
            "type": "t_mapping(t_address,t_bool)"
          },
          {
            "astId": 33,
            "contract": "contracts/strategies/optimism/InsuranceEtsOpUsdc.sol:InsuranceEtsOpUsdc",
            "label": "adminRole",
            "offset": 0,
            "slot": "1",
            "type": "t_bytes32"
          }
        ],
        "numberOfBytes": "64"
      },
      "t_uint256": {
        "encoding": "inplace",
        "label": "uint256",
        "numberOfBytes": "32"
      },
      "t_uint8": {
        "encoding": "inplace",
        "label": "uint8",
        "numberOfBytes": "1"
      }
    }
  }
}