{
  "address": "0xb1084db8D3C05CEbd5FA9335dF95EE4b8a0edc30",
  "abi": [
    {
      "inputs": [],
      "stateMutability": "nonpayable",
      "type": "constructor"
    },
    {
      "anonymous": false,
      "inputs": [
        {
          "indexed": false,
          "internalType": "address",
          "name": "previousAdmin",
          "type": "address"
        },
        {
          "indexed": false,
          "internalType": "address",
          "name": "newAdmin",
          "type": "address"
        }
      ],
      "name": "AdminChanged",
      "type": "event"
    },
    {
      "anonymous": false,
      "inputs": [
        {
          "indexed": true,
          "internalType": "address",
          "name": "owner",
          "type": "address"
        },
        {
          "indexed": true,
          "internalType": "address",
          "name": "spender",
          "type": "address"
        },
        {
          "indexed": false,
          "internalType": "uint256",
          "name": "value",
          "type": "uint256"
        }
      ],
      "name": "Approval",
      "type": "event"
    },
    {
      "anonymous": false,
      "inputs": [
        {
          "indexed": true,
          "internalType": "address",
          "name": "beacon",
          "type": "address"
        }
      ],
      "name": "BeaconUpgraded",
      "type": "event"
    },
    {
      "anonymous": false,
      "inputs": [
        {
          "indexed": false,
          "internalType": "address",
          "name": "exchanger",
          "type": "address"
        }
      ],
      "name": "ExchangerUpdated",
      "type": "event"
    },
    {
      "anonymous": false,
      "inputs": [
        {
          "indexed": false,
          "internalType": "uint8",
          "name": "version",
          "type": "uint8"
        }
      ],
      "name": "Initialized",
      "type": "event"
    },
    {
      "anonymous": false,
      "inputs": [
        {
          "indexed": false,
          "internalType": "address",
          "name": "payoutManager",
          "type": "address"
        }
      ],
      "name": "PayoutManagerUpdated",
      "type": "event"
    },
    {
      "anonymous": false,
      "inputs": [
        {
          "indexed": true,
          "internalType": "bytes32",
          "name": "role",
          "type": "bytes32"
        },
        {
          "indexed": true,
          "internalType": "bytes32",
          "name": "previousAdminRole",
          "type": "bytes32"
        },
        {
          "indexed": true,
          "internalType": "bytes32",
          "name": "newAdminRole",
          "type": "bytes32"
        }
      ],
      "name": "RoleAdminChanged",
      "type": "event"
    },
    {
      "anonymous": false,
      "inputs": [
        {
          "indexed": true,
          "internalType": "bytes32",
          "name": "role",
          "type": "bytes32"
        },
        {
          "indexed": true,
          "internalType": "address",
          "name": "account",
          "type": "address"
        },
        {
          "indexed": true,
          "internalType": "address",
          "name": "sender",
          "type": "address"
        }
      ],
      "name": "RoleGranted",
      "type": "event"
    },
    {
      "anonymous": false,
      "inputs": [
        {
          "indexed": false,
          "internalType": "address",
          "name": "roleManager",
          "type": "address"
        }
      ],
      "name": "RoleManagerUpdated",
      "type": "event"
    },
    {
      "anonymous": false,
      "inputs": [
        {
          "indexed": true,
          "internalType": "bytes32",
          "name": "role",
          "type": "bytes32"
        },
        {
          "indexed": true,
          "internalType": "address",
          "name": "account",
          "type": "address"
        },
        {
          "indexed": true,
          "internalType": "address",
          "name": "sender",
          "type": "address"
        }
      ],
      "name": "RoleRevoked",
      "type": "event"
    },
    {
      "anonymous": false,
      "inputs": [
        {
          "indexed": false,
          "internalType": "uint256",
          "name": "totalSupply",
          "type": "uint256"
        },
        {
          "indexed": false,
          "internalType": "uint256",
          "name": "rebasingCredits",
          "type": "uint256"
        },
        {
          "indexed": false,
          "internalType": "uint256",
          "name": "rebasingCreditsPerToken",
          "type": "uint256"
        }
      ],
      "name": "TotalSupplyUpdatedHighres",
      "type": "event"
    },
    {
      "anonymous": false,
      "inputs": [
        {
          "indexed": true,
          "internalType": "address",
          "name": "from",
          "type": "address"
        },
        {
          "indexed": true,
          "internalType": "address",
          "name": "to",
          "type": "address"
        },
        {
          "indexed": false,
          "internalType": "uint256",
          "name": "value",
          "type": "uint256"
        }
      ],
      "name": "Transfer",
      "type": "event"
    },
    {
      "anonymous": false,
      "inputs": [
        {
          "indexed": true,
          "internalType": "address",
          "name": "implementation",
          "type": "address"
        }
      ],
      "name": "Upgraded",
      "type": "event"
    },
    {
      "inputs": [],
      "name": "DEFAULT_ADMIN_ROLE",
      "outputs": [
        {
          "internalType": "bytes32",
          "name": "",
          "type": "bytes32"
        }
      ],
      "stateMutability": "view",
      "type": "function"
    },
    {
      "inputs": [],
      "name": "PORTFOLIO_AGENT_ROLE",
      "outputs": [
        {
          "internalType": "bytes32",
          "name": "",
          "type": "bytes32"
        }
      ],
      "stateMutability": "view",
      "type": "function"
    },
    {
      "inputs": [
        {
          "internalType": "address",
          "name": "_owner",
          "type": "address"
        },
        {
          "internalType": "address",
          "name": "_spender",
          "type": "address"
        }
      ],
      "name": "allowance",
      "outputs": [
        {
          "internalType": "uint256",
          "name": "",
          "type": "uint256"
        }
      ],
      "stateMutability": "view",
      "type": "function"
    },
    {
      "inputs": [
        {
          "internalType": "address",
          "name": "_spender",
          "type": "address"
        },
        {
          "internalType": "uint256",
          "name": "_value",
          "type": "uint256"
        }
      ],
      "name": "approve",
      "outputs": [
        {
          "internalType": "bool",
          "name": "",
          "type": "bool"
        }
      ],
      "stateMutability": "nonpayable",
      "type": "function"
    },
    {
      "inputs": [
        {
          "internalType": "address",
          "name": "owner",
          "type": "address"
        },
        {
          "internalType": "uint256",
          "name": "amount",
          "type": "uint256"
        }
      ],
      "name": "assetToCredit",
      "outputs": [
        {
          "internalType": "uint256",
          "name": "credit",
          "type": "uint256"
        }
      ],
      "stateMutability": "view",
      "type": "function"
    },
    {
      "inputs": [
        {
          "internalType": "address",
          "name": "_account",
          "type": "address"
        }
      ],
      "name": "balanceOf",
      "outputs": [
        {
          "internalType": "uint256",
          "name": "",
          "type": "uint256"
        }
      ],
      "stateMutability": "view",
      "type": "function"
    },
    {
      "inputs": [
        {
          "internalType": "address",
          "name": "account",
          "type": "address"
        },
        {
          "internalType": "uint256",
          "name": "amount",
          "type": "uint256"
        }
      ],
      "name": "burn",
      "outputs": [],
      "stateMutability": "nonpayable",
      "type": "function"
    },
    {
      "inputs": [
        {
          "internalType": "uint256",
          "name": "_newTotalSupply",
          "type": "uint256"
        }
      ],
      "name": "changeSupply",
      "outputs": [
        {
          "components": [
            {
              "internalType": "address",
              "name": "pool",
              "type": "address"
            },
            {
              "internalType": "uint256",
              "name": "amount",
              "type": "uint256"
            },
            {
              "internalType": "uint256[10]",
              "name": "__gap",
              "type": "uint256[10]"
            }
          ],
          "internalType": "struct NonRebaseInfo[]",
          "name": "",
          "type": "tuple[]"
        },
        {
          "internalType": "uint256",
          "name": "",
          "type": "uint256"
        }
      ],
      "stateMutability": "nonpayable",
      "type": "function"
    },
    {
      "inputs": [
        {
          "internalType": "address",
          "name": "owner",
          "type": "address"
        },
        {
          "internalType": "uint256",
          "name": "credit",
          "type": "uint256"
        }
      ],
      "name": "creditToAsset",
      "outputs": [
        {
          "internalType": "uint256",
          "name": "asset",
          "type": "uint256"
        }
      ],
      "stateMutability": "view",
      "type": "function"
    },
    {
      "inputs": [
        {
          "internalType": "address",
          "name": "_account",
          "type": "address"
        }
      ],
      "name": "creditsBalanceOf",
      "outputs": [
        {
          "internalType": "uint256",
          "name": "",
          "type": "uint256"
        },
        {
          "internalType": "uint256",
          "name": "",
          "type": "uint256"
        }
      ],
      "stateMutability": "view",
      "type": "function"
    },
    {
      "inputs": [
        {
          "internalType": "address",
          "name": "_account",
          "type": "address"
        }
      ],
      "name": "creditsBalanceOfHighres",
      "outputs": [
        {
          "internalType": "uint256",
          "name": "",
          "type": "uint256"
        },
        {
          "internalType": "uint256",
          "name": "",
          "type": "uint256"
        }
      ],
      "stateMutability": "view",
      "type": "function"
    },
    {
      "inputs": [],
      "name": "decimals",
      "outputs": [
        {
          "internalType": "uint8",
          "name": "",
          "type": "uint8"
        }
      ],
      "stateMutability": "view",
      "type": "function"
    },
    {
      "inputs": [
        {
          "internalType": "address",
          "name": "_spender",
          "type": "address"
        },
        {
          "internalType": "uint256",
          "name": "_subtractedValue",
          "type": "uint256"
        }
      ],
      "name": "decreaseAllowance",
      "outputs": [
        {
          "internalType": "bool",
          "name": "",
          "type": "bool"
        }
      ],
      "stateMutability": "nonpayable",
      "type": "function"
    },
    {
      "inputs": [],
      "name": "exchange",
      "outputs": [
        {
          "internalType": "address",
          "name": "",
          "type": "address"
        }
      ],
      "stateMutability": "view",
      "type": "function"
    },
    {
      "inputs": [
        {
          "internalType": "bytes32",
          "name": "role",
          "type": "bytes32"
        }
      ],
      "name": "getRoleAdmin",
      "outputs": [
        {
          "internalType": "bytes32",
          "name": "",
          "type": "bytes32"
        }
      ],
      "stateMutability": "view",
      "type": "function"
    },
    {
      "inputs": [
        {
          "internalType": "bytes32",
          "name": "role",
          "type": "bytes32"
        },
        {
          "internalType": "address",
          "name": "account",
          "type": "address"
        }
      ],
      "name": "grantRole",
      "outputs": [],
      "stateMutability": "nonpayable",
      "type": "function"
    },
    {
      "inputs": [
        {
          "internalType": "bytes32",
          "name": "role",
          "type": "bytes32"
        },
        {
          "internalType": "address",
          "name": "account",
          "type": "address"
        }
      ],
      "name": "hasRole",
      "outputs": [
        {
          "internalType": "bool",
          "name": "",
          "type": "bool"
        }
      ],
      "stateMutability": "view",
      "type": "function"
    },
    {
      "inputs": [
        {
          "internalType": "address",
          "name": "_spender",
          "type": "address"
        },
        {
          "internalType": "uint256",
          "name": "_addedValue",
          "type": "uint256"
        }
      ],
      "name": "increaseAllowance",
      "outputs": [
        {
          "internalType": "bool",
          "name": "",
          "type": "bool"
        }
      ],
      "stateMutability": "nonpayable",
      "type": "function"
    },
    {
      "inputs": [
        {
          "internalType": "string",
          "name": "name",
          "type": "string"
        },
        {
          "internalType": "string",
          "name": "symbol",
          "type": "string"
        },
        {
          "internalType": "uint8",
          "name": "decimals",
          "type": "uint8"
        }
      ],
      "name": "initialize",
      "outputs": [],
      "stateMutability": "nonpayable",
      "type": "function"
    },
    {
      "inputs": [
        {
          "internalType": "address",
          "name": "_account",
          "type": "address"
        },
        {
          "internalType": "uint256",
          "name": "_amount",
          "type": "uint256"
        }
      ],
      "name": "mint",
      "outputs": [],
      "stateMutability": "nonpayable",
      "type": "function"
    },
    {
      "inputs": [],
      "name": "name",
      "outputs": [
        {
          "internalType": "string",
          "name": "",
          "type": "string"
        }
      ],
      "stateMutability": "view",
      "type": "function"
    },
    {
      "inputs": [
        {
          "internalType": "address",
          "name": "",
          "type": "address"
        }
      ],
      "name": "nonRebasingCreditsPerToken",
      "outputs": [
        {
          "internalType": "uint256",
          "name": "",
          "type": "uint256"
        }
      ],
      "stateMutability": "view",
      "type": "function"
    },
    {
      "inputs": [],
      "name": "nonRebasingSupply",
      "outputs": [
        {
          "internalType": "uint256",
          "name": "",
          "type": "uint256"
        }
      ],
      "stateMutability": "view",
      "type": "function"
    },
    {
      "inputs": [
        {
          "internalType": "uint256",
          "name": "index",
          "type": "uint256"
        }
      ],
      "name": "ownerAt",
      "outputs": [
        {
          "internalType": "address",
          "name": "",
          "type": "address"
        }
      ],
      "stateMutability": "view",
      "type": "function"
    },
    {
      "inputs": [
        {
          "internalType": "uint256",
          "name": "index",
          "type": "uint256"
        }
      ],
      "name": "ownerBalanceAt",
      "outputs": [
        {
          "internalType": "uint256",
          "name": "",
          "type": "uint256"
        }
      ],
      "stateMutability": "view",
      "type": "function"
    },
    {
      "inputs": [],
      "name": "ownerLength",
      "outputs": [
        {
          "internalType": "uint256",
          "name": "",
          "type": "uint256"
        }
      ],
      "stateMutability": "view",
      "type": "function"
    },
    {
      "inputs": [],
      "name": "pause",
      "outputs": [],
      "stateMutability": "nonpayable",
      "type": "function"
    },
    {
      "inputs": [],
      "name": "paused",
      "outputs": [
        {
          "internalType": "bool",
          "name": "",
          "type": "bool"
        }
      ],
      "stateMutability": "view",
      "type": "function"
    },
    {
      "inputs": [],
      "name": "payoutManager",
      "outputs": [
        {
          "internalType": "address",
          "name": "",
          "type": "address"
        }
      ],
      "stateMutability": "view",
      "type": "function"
    },
    {
      "inputs": [],
      "name": "proxiableUUID",
      "outputs": [
        {
          "internalType": "bytes32",
          "name": "",
          "type": "bytes32"
        }
      ],
      "stateMutability": "view",
      "type": "function"
    },
    {
      "inputs": [
        {
          "internalType": "address",
          "name": "_address",
          "type": "address"
        }
      ],
      "name": "rebaseOptIn",
      "outputs": [],
      "stateMutability": "nonpayable",
      "type": "function"
    },
    {
      "inputs": [
        {
          "internalType": "address",
          "name": "_address",
          "type": "address"
        }
      ],
      "name": "rebaseOptOut",
      "outputs": [],
      "stateMutability": "nonpayable",
      "type": "function"
    },
    {
      "inputs": [
        {
          "internalType": "address",
          "name": "",
          "type": "address"
        }
      ],
      "name": "rebaseState",
      "outputs": [
        {
          "internalType": "enum UsdPlusToken.RebaseOptions",
          "name": "",
          "type": "uint8"
        }
      ],
      "stateMutability": "view",
      "type": "function"
    },
    {
      "inputs": [],
      "name": "rebasingCredits",
      "outputs": [
        {
          "internalType": "uint256",
          "name": "",
          "type": "uint256"
        }
      ],
      "stateMutability": "view",
      "type": "function"
    },
    {
      "inputs": [],
      "name": "rebasingCreditsHighres",
      "outputs": [
        {
          "internalType": "uint256",
          "name": "",
          "type": "uint256"
        }
      ],
      "stateMutability": "view",
      "type": "function"
    },
    {
      "inputs": [],
      "name": "rebasingCreditsPerToken",
      "outputs": [
        {
          "internalType": "uint256",
          "name": "",
          "type": "uint256"
        }
      ],
      "stateMutability": "view",
      "type": "function"
    },
    {
      "inputs": [],
      "name": "rebasingCreditsPerTokenHighres",
      "outputs": [
        {
          "internalType": "uint256",
          "name": "",
          "type": "uint256"
        }
      ],
      "stateMutability": "view",
      "type": "function"
    },
    {
      "inputs": [
        {
          "internalType": "bytes32",
          "name": "role",
          "type": "bytes32"
        },
        {
          "internalType": "address",
          "name": "account",
          "type": "address"
        }
      ],
      "name": "renounceRole",
      "outputs": [],
      "stateMutability": "nonpayable",
      "type": "function"
    },
    {
      "inputs": [
        {
          "internalType": "bytes32",
          "name": "role",
          "type": "bytes32"
        },
        {
          "internalType": "address",
          "name": "account",
          "type": "address"
        }
      ],
      "name": "revokeRole",
      "outputs": [],
      "stateMutability": "nonpayable",
      "type": "function"
    },
    {
      "inputs": [],
      "name": "roleManager",
      "outputs": [
        {
          "internalType": "contract IRoleManager",
          "name": "",
          "type": "address"
        }
      ],
      "stateMutability": "view",
      "type": "function"
    },
    {
      "inputs": [
        {
          "internalType": "address",
          "name": "_exchanger",
          "type": "address"
        }
      ],
      "name": "setExchanger",
      "outputs": [],
      "stateMutability": "nonpayable",
      "type": "function"
    },
    {
      "inputs": [
        {
          "internalType": "address",
          "name": "_payoutManager",
          "type": "address"
        }
      ],
      "name": "setPayoutManager",
      "outputs": [],
      "stateMutability": "nonpayable",
      "type": "function"
    },
    {
      "inputs": [
        {
          "internalType": "address",
          "name": "_roleManager",
          "type": "address"
        }
      ],
      "name": "setRoleManager",
      "outputs": [],
      "stateMutability": "nonpayable",
      "type": "function"
    },
    {
      "inputs": [
        {
          "internalType": "uint256",
          "name": "credit1",
          "type": "uint256"
        },
        {
          "internalType": "uint256",
          "name": "credit2",
          "type": "uint256"
        },
        {
          "internalType": "string",
          "name": "errorText",
          "type": "string"
        }
      ],
      "name": "subCredits",
      "outputs": [
        {
          "internalType": "uint256",
          "name": "resultCredit",
          "type": "uint256"
        }
      ],
      "stateMutability": "view",
      "type": "function"
    },
    {
      "inputs": [
        {
          "internalType": "bytes4",
          "name": "interfaceId",
          "type": "bytes4"
        }
      ],
      "name": "supportsInterface",
      "outputs": [
        {
          "internalType": "bool",
          "name": "",
          "type": "bool"
        }
      ],
      "stateMutability": "view",
      "type": "function"
    },
    {
      "inputs": [],
      "name": "symbol",
      "outputs": [
        {
          "internalType": "string",
          "name": "",
          "type": "string"
        }
      ],
      "stateMutability": "view",
      "type": "function"
    },
    {
      "inputs": [],
      "name": "totalSupply",
      "outputs": [
        {
          "internalType": "uint256",
          "name": "",
          "type": "uint256"
        }
      ],
      "stateMutability": "view",
      "type": "function"
    },
    {
      "inputs": [],
      "name": "totalSupplyOwners",
      "outputs": [
        {
          "internalType": "uint256",
          "name": "",
          "type": "uint256"
        }
      ],
      "stateMutability": "view",
      "type": "function"
    },
    {
      "inputs": [
        {
          "internalType": "address",
          "name": "_to",
          "type": "address"
        },
        {
          "internalType": "uint256",
          "name": "_value",
          "type": "uint256"
        }
      ],
      "name": "transfer",
      "outputs": [
        {
          "internalType": "bool",
          "name": "",
          "type": "bool"
        }
      ],
      "stateMutability": "nonpayable",
      "type": "function"
    },
    {
      "inputs": [
        {
          "internalType": "address",
          "name": "_from",
          "type": "address"
        },
        {
          "internalType": "address",
          "name": "_to",
          "type": "address"
        },
        {
          "internalType": "uint256",
          "name": "_value",
          "type": "uint256"
        }
      ],
      "name": "transferFrom",
      "outputs": [
        {
          "internalType": "bool",
          "name": "",
          "type": "bool"
        }
      ],
      "stateMutability": "nonpayable",
      "type": "function"
    },
    {
      "inputs": [],
      "name": "unpause",
      "outputs": [],
      "stateMutability": "nonpayable",
      "type": "function"
    },
    {
      "inputs": [
        {
          "internalType": "address",
          "name": "newImplementation",
          "type": "address"
        }
      ],
      "name": "upgradeTo",
      "outputs": [],
      "stateMutability": "nonpayable",
      "type": "function"
    },
    {
      "inputs": [
        {
          "internalType": "address",
          "name": "newImplementation",
          "type": "address"
        },
        {
          "internalType": "bytes",
          "name": "data",
          "type": "bytes"
        }
      ],
      "name": "upgradeToAndCall",
      "outputs": [],
      "stateMutability": "payable",
      "type": "function"
    }
  ],
  "numDeployments": 2,
  "solcInputHash": "3d0fee349dee900dc0f54a26ac1c84fa",
  "bytecode": "0x60a0604052306080523480156200001557600080fd5b50600054610100900460ff1615808015620000375750600054600160ff909116105b8062000067575062000054306200014160201b6200247a1760201c565b15801562000067575060005460ff166001145b620000cf5760405162461bcd60e51b815260206004820152602e60248201527f496e697469616c697a61626c653a20636f6e747261637420697320616c72656160448201526d191e481a5b9a5d1a585b1a5e995960921b606482015260840160405180910390fd5b6000805460ff191660011790558015620000f3576000805461ff0019166101001790555b80156200013a576000805461ff0019169055604051600181527f7f26b83ff96e1f2b6a682f133852f6798a09c465da95921460cefb38474024989060200160405180910390a15b5062000150565b6001600160a01b03163b151590565b608051613f2f6200018860003960008181610fe001528181611020015281816116e40152818161172401526117b30152613f2f6000f3fe6080604052600436106103185760003560e01c80635d907379116101ab578063a217fddf116100f7578063da909b0911610095578063e62603071161006f578063e626030714610970578063e696393a14610990578063f1d588c5146109a7578063f9854bfc146109c757600080fd5b8063da909b09146108fb578063dd62ed3e1461091b578063e5c4fffe1461093b57600080fd5b8063ab2c263d116100d1578063ab2c263d1461087a578063ce6df7be1461089a578063d2f7265a146108ba578063d547741f146108db57600080fd5b8063a217fddf14610825578063a457c2d71461083a578063a9059cbb1461085a57600080fd5b80637a46a9c511610164578063891ad93f1161013e578063891ad93f146107b057806391d14854146107d057806395d89b41146107f05780639dc29fac1461080557600080fd5b80637a46a9c51461076f5780637d0d66ff146107855780638456cb591461079b57600080fd5b80635d907379146106985780635dbd733a146106b8578063609350cd146106ec5780636691cb3d1461071a57806370a082311461072f5780637181896f1461074f57600080fd5b80633083a8e31161026a5780633f4ba83a116102235780634f1ef286116101fd5780634f1ef2861461064057806352d1902d1461065357806356b7cb31146106685780635c975abb1461067d57600080fd5b80633f4ba83a146105cd57806340c10f19146105e2578063456ee2861461060257600080fd5b80633083a8e3146104f1578063313ce5671461051257806336568abe1461053f5780633659cfe61461055f578063395093511461057f57806339a7919f1461059f57600080fd5b80631624f6c6116102d757806324359879116102b15780632435987914610461578063248a9ca31461048157806328570b4e146104b15780632f2ff15d146104d157600080fd5b80631624f6c61461040a57806318160ddd1461042c57806323b872dd1461044157600080fd5b80623660881461031d578062435da51461034557806301ffc9a71461038357806306fdde03146103b3578063077f22b7146103d5578063095ea7b3146103ea575b600080fd5b34801561032957600080fd5b506103326109e7565b6040519081526020015b60405180910390f35b34801561035157600080fd5b5061010e5461036b9061010090046001600160a01b031681565b6040516001600160a01b03909116815260200161033c565b34801561038f57600080fd5b506103a361039e3660046135a8565b6109f9565b604051901515815260200161033c565b3480156103bf57600080fd5b506103c8610a30565b60405161033c91906135f6565b3480156103e157600080fd5b50610332610ac2565b3480156103f657600080fd5b506103a3610405366004613640565b610ad7565b34801561041657600080fd5b5061042a6104253660046136b3565b610bab565b005b34801561043857600080fd5b5060fd54610332565b34801561044d57600080fd5b506103a361045c36600461373d565b610d22565b34801561046d57600080fd5b5061036b61047c366004613779565b610edc565b34801561048d57600080fd5b5061033261049c366004613779565b60009081526065602052604090206001015490565b3480156104bd57600080fd5b506103326104cc366004613640565b610eea565b3480156104dd57600080fd5b5061042a6104ec366004613792565b610f2e565b3480156104fd57600080fd5b506101085461036b906001600160a01b031681565b34801561051e57600080fd5b5061010754600160a01b900460ff1660405160ff909116815260200161033c565b34801561054b57600080fd5b5061042a61055a366004613792565b610f58565b34801561056b57600080fd5b5061042a61057a3660046137be565b610fd6565b34801561058b57600080fd5b506103a361059a366004613640565b6110b5565b3480156105ab57600080fd5b506105bf6105ba366004613779565b611170565b60405161033c9291906137d9565b3480156105d957600080fd5b5061042a611581565b3480156105ee57600080fd5b5061042a6105fd366004613640565b611681565b34801561060e57600080fd5b5061063361061d3660046137be565b61010a6020526000908152604090205460ff1681565b60405161033c919061387a565b61042a61064e36600461392e565b6116da565b34801561065f57600080fd5b506103326117a6565b34801561067457600080fd5b50610332611859565b34801561068957600080fd5b5061010e546103a39060ff1681565b3480156106a457600080fd5b5061042a6106b33660046137be565b61196a565b3480156106c457600080fd5b506103327fd67ad422505496469a1adf6cdf9e5ee92ac5d33992843c9ecc4b2f6d6cde913781565b3480156106f857600080fd5b506103326107073660046137be565b6101096020526000908152604090205481565b34801561072657600080fd5b50610332611b2e565b34801561073b57600080fd5b5061033261074a3660046137be565b611b43565b34801561075b57600080fd5b5061042a61076a3660046137be565b611b8d565b34801561077b57600080fd5b5061010154610332565b34801561079157600080fd5b5061010054610332565b3480156107a757600080fd5b5061042a611c5a565b3480156107bc57600080fd5b506103326107cb366004613990565b611d5d565b3480156107dc57600080fd5b506103a36107eb366004613792565b611dad565b3480156107fc57600080fd5b506103c8611dd8565b34801561081157600080fd5b5061042a610820366004613640565b611de7565b34801561083157600080fd5b50610332600081565b34801561084657600080fd5b506103a3610855366004613640565b611e40565b34801561086657600080fd5b506103a3610875366004613640565b611ed7565b34801561088657600080fd5b50610332610895366004613640565b611fe9565b3480156108a657600080fd5b506103326108b5366004613779565b612013565b3480156108c657600080fd5b506101075461036b906001600160a01b031681565b3480156108e757600080fd5b5061042a6108f6366004613792565b612024565b34801561090757600080fd5b5061042a6109163660046137be565b612049565b34801561092757600080fd5b506103326109363660046139f4565b61210a565b34801561094757600080fd5b5061095b6109563660046137be565b612171565b6040805192835260208301919091520161033c565b34801561097c57600080fd5b5061042a61098b3660046137be565b61219e565b34801561099c57600080fd5b506103326101025481565b3480156109b357600080fd5b5061042a6109c23660046137be565b61232b565b3480156109d357600080fd5b5061095b6109e23660046137be565b6123f7565b60006109f4610105612489565b905090565b60006001600160e01b03198216637965db0b60e01b1480610a2a57506301ffc9a760e01b6001600160e01b03198316145b92915050565b606060fe8054610a3f90613a1e565b80601f0160208091040260200160405190810160405280929190818152602001828054610a6b90613a1e565b8015610ab85780601f10610a8d57610100808354040283529160200191610ab8565b820191906000526020600020905b815481529060010190602001808311610a9b57829003601f168201915b5050505050905090565b6000633b9aca00610100546109f49190613a6e565b61010e5460009060ff1615610b075760405162461bcd60e51b8152600401610afe90613a90565b60405180910390fd5b6000610b28722cd76fe086b93ce2f768a00b22a00000000000600019613a6e565b831115610b385750600019610b45565b610b423384611fe9565b90505b33600081815260fc602090815260408083206001600160a01b03891680855290835292819020859055518481529192917f8c5be1e5ebec7d5bd14f71427d1e84f3dd0314c0f7b2291e5b200ac8c7c3b92591015b60405180910390a35060019392505050565b600054610100900460ff1615808015610bcb5750600054600160ff909116105b80610be55750303b158015610be5575060005460ff166001145b610c485760405162461bcd60e51b815260206004820152602e60248201527f496e697469616c697a61626c653a20636f6e747261637420697320616c72656160448201526d191e481a5b9a5d1a585b1a5e995960921b6064820152608401610afe565b6000805460ff191660011790558015610c6b576000805461ff0019166101001790555b610c73612493565b60fe610c80868883613af5565b5060ff610c8e848683613af5565b50610c97612493565b610c9f612493565b610caa600033612500565b610107805460ff60a01b1916600160a01b60ff8516021790556b033b2e3c9fd0803ce8000000610101558015610d1a576000805461ff0019169055604051600181527f7f26b83ff96e1f2b6a682f133852f6798a09c465da95921460cefb38474024989060200160405180910390a15b505050505050565b61010e5460009060ff1615610d495760405162461bcd60e51b8152600401610afe90613a90565b6001600160a01b038316610d9a5760405162461bcd60e51b81526020600482015260186024820152775472616e7366657220746f207a65726f206164647265737360401b6044820152606401610afe565b610da384611b43565b821115610df25760405162461bcd60e51b815260206004820152601d60248201527f5472616e736665722067726561746572207468616e2062616c616e63650000006044820152606401610afe565b6000610dfe8584611fe9565b6001600160a01b038616600090815260fc602090815260408083203384528252918290205482518084019093528183527f416c6c6f77616e636520616d6f756e7420657863656564732062616c616e636591830191909152919250610e6591908390611d5d565b6001600160a01b038616600090815260fc60209081526040808320338452909152902055610e94858585612586565b836001600160a01b0316856001600160a01b0316600080516020613eda83398151915285604051610ec791815260200190565b60405180910390a360019150505b9392505050565b6000610a2a610105836126eb565b600080610ef6836126f7565b90506000610f0b610f0686612736565b6126f7565b90506000610f198383612780565b9050610f248161285f565b9695505050505050565b600082815260656020526040902060010154610f49816128df565b610f538383612500565b505050565b6001600160a01b0381163314610fc85760405162461bcd60e51b815260206004820152602f60248201527f416363657373436f6e74726f6c3a2063616e206f6e6c792072656e6f756e636560448201526e103937b632b9903337b91039b2b63360891b6064820152608401610afe565b610fd282826128e9565b5050565b6001600160a01b037f000000000000000000000000000000000000000000000000000000000000000016300361101e5760405162461bcd60e51b8152600401610afe90613bb6565b7f00000000000000000000000000000000000000000000000000000000000000006001600160a01b0316611067600080516020613e93833981519152546001600160a01b031690565b6001600160a01b03161461108d5760405162461bcd60e51b8152600401610afe90613c02565b61109681612950565b604080516000808252602082019092526110b29183919061295b565b50565b61010e5460009060ff16156110dc5760405162461bcd60e51b8152600401610afe90613a90565b60006110e83384611fe9565b33600090815260fc602090815260408083206001600160a01b03891684529091529020549091506111199082612ac6565b33600081815260fc602090815260408083206001600160a01b038a16808552908352928190208590555193845290927f8c5be1e5ebec7d5bd14f71427d1e84f3dd0314c0f7b2291e5b200ac8c7c3b9259101610b99565b610107546060906000906001600160a01b031633146111a15760405162461bcd60e51b8152600401610afe90613c4e565b600261010d54036111c45760405162461bcd60e51b8152600401610afe90613c85565b600261010d5561010e5460ff16156111ee5760405162461bcd60e51b8152600401610afe90613a90565b600060fd54116112405760405162461bcd60e51b815260206004820152601860248201527f43616e6e6f7420696e637265617365203020737570706c7900000000000000006044820152606401610afe565b8260fd54036112cf5760fd54610100546101015460408051938452602084019290925282820152517f41645eb819d3011b13f97696a8109d14bfcddfaca7d063ec0564d62a3e2572359181900360600190a160408051600080825260208201909252906112c3565b6112b0613565565b8152602001906001900390816112a85790505b50600091509150611574565b600060fd54846112df9190613cbc565b9050600060fd5461010254836112f59190613ccf565b6112ff9190613a6e565b9050600061130d8284613cbc565b90506000198160fd546113209190613ce6565b11611338578060fd546113339190613ce6565b61133c565b6000195b60fd8190556101025461134f9190612ad2565b1561137e5761137961136f6101025460fd54612ad290919063ffffffff16565b6101005490612ade565b610101555b600061010154116113d15760405162461bcd60e51b815260206004820152601860248201527f496e76616c6964206368616e676520696e20737570706c7900000000000000006044820152606401610afe565b6113f7610102546113f16101015461010054612ade90919063ffffffff16565b90612ac6565b60fd55600061140761010b612489565b67ffffffffffffffff81111561141f5761141f6138a2565b60405190808252806020026020018201604052801561145857816020015b611445613565565b81526020019060019003908161143d5790505b50905060005b815181101561152257600061147561010b836126eb565b9050600061148282611b43565b90506000610102546000036114985760006114b0565b610102546114a68884613ccf565b6114b09190613a6e565b9050828585815181106114c5576114c5613cf9565b6020026020010151600001906001600160a01b031690816001600160a01b031681525050808585815181106114fc576114fc613cf9565b60200260200101516020018181525050505050808061151a90613d0f565b91505061145e565b5060fd54610100546101015460408051938452602084019290925282820152517f41645eb819d3011b13f97696a8109d14bfcddfaca7d063ec0564d62a3e2572359181900360600190a1945090925050505b600161010d559092909150565b61010e5461010090046001600160a01b03166391d148547fd67ad422505496469a1adf6cdf9e5ee92ac5d33992843c9ecc4b2f6d6cde9137336040516001600160e01b031960e085901b16815260048101929092526001600160a01b03166024820152604401602060405180830381865afa158015611604573d6000803e3d6000fd5b505050506040513d601f19601f820116820180604052508101906116289190613d28565b6116745760405162461bcd60e51b815260206004820152601d60248201527f5265737472696374656420746f20506f7274666f6c696f204167656e740000006044820152606401610afe565b61010e805460ff19169055565b61010e5460ff16156116a55760405162461bcd60e51b8152600401610afe90613a90565b610107546001600160a01b031633146116d05760405162461bcd60e51b8152600401610afe90613c4e565b610fd28282612aff565b6001600160a01b037f00000000000000000000000000000000000000000000000000000000000000001630036117225760405162461bcd60e51b8152600401610afe90613bb6565b7f00000000000000000000000000000000000000000000000000000000000000006001600160a01b031661176b600080516020613e93833981519152546001600160a01b031690565b6001600160a01b0316146117915760405162461bcd60e51b8152600401610afe90613c02565b61179a82612950565b610fd28282600161295b565b6000306001600160a01b037f000000000000000000000000000000000000000000000000000000000000000016146118465760405162461bcd60e51b815260206004820152603860248201527f555550535570677261646561626c653a206d757374206e6f742062652063616c60448201527f6c6564207468726f7567682064656c656761746563616c6c00000000000000006064820152608401610afe565b50600080516020613e9383398151915290565b600080306001600160a01b0316623660886040518163ffffffff1660e01b8152600401602060405180830381865afa158015611899573d6000803e3d6000fd5b505050506040513d601f19601f820116820180604052508101906118bd9190613d4a565b90506000805b8281101561196357306370a082316118dd610105846126eb565b6040516001600160e01b031960e084901b1681526001600160a01b039091166004820152602401602060405180830381865afa158015611921573d6000803e3d6000fd5b505050506040513d601f19601f820116820180604052508101906119459190613d4a565b61194f9083613ce6565b91508061195b81613d0f565b9150506118c3565b5092915050565b610108546001600160a01b031633146119c55760405162461bcd60e51b815260206004820181905260248201527f43616c6c6572206973206e6f7420746865205041594f55545f4d414e414745526044820152606401610afe565b61010e5460ff16156119e95760405162461bcd60e51b8152600401610afe90613a90565b600261010d5403611a0c5760405162461bcd60e51b8152600401610afe90613c85565b600261010d55611a1b81612c9d565b611a675760405162461bcd60e51b815260206004820152601960248201527f4163636f756e7420686173206e6f74206f70746564206f7574000000000000006044820152606401610afe565b6000611aa1611a7583612736565b610101546001600160a01b038516600090815260fb6020526040902054611a9b91612cd6565b90612ce2565b9050611ab9611aaf83611b43565b6101025490612ad2565b610102556001600160a01b038216600090815260fb6020526040902081905561010054611ae69082612ac6565b610100556001600160a01b038216600090815261010a60209081526040808320805460ff19169055610109909152812055611b2361010b83612cee565b5050600161010d5550565b6000633b9aca00610101546109f49190613a6e565b6001600160a01b038116600090815260fb60205260408120548103611b69576000610a2a565b6001600160a01b038216600090815260fb6020526040902054610a2a908390610eea565b611b98600033611dad565b611bb45760405162461bcd60e51b8152600401610afe90613d63565b306001600160a01b03821603611c045760405162461bcd60e51b81526020600482015260156024820152747061796f75744d616e61676572206973207a65726f60581b6044820152606401610afe565b61010880546001600160a01b0319166001600160a01b0383169081179091556040519081527f8e0ccc7f4e6827cf2d4ab435db02892d906e1e85ddc84fd35945393baad24cef906020015b60405180910390a150565b61010e5461010090046001600160a01b03166391d148547fd67ad422505496469a1adf6cdf9e5ee92ac5d33992843c9ecc4b2f6d6cde9137336040516001600160e01b031960e085901b16815260048101929092526001600160a01b03166024820152604401602060405180830381865afa158015611cdd573d6000803e3d6000fd5b505050506040513d601f19601f82011682018060405250810190611d019190613d28565b611d4d5760405162461bcd60e51b815260206004820152601d60248201527f5265737472696374656420746f20506f7274666f6c696f204167656e740000006044820152606401610afe565b61010e805460ff19166001179055565b6000828410611d7757611d708385613cbc565b9050610ed5565b620f4240611d858585613cbc565b1015611d9357506000610ed5565b8160405162461bcd60e51b8152600401610afe91906135f6565b60009182526065602090815260408084206001600160a01b0393909316845291905290205460ff1690565b606060ff8054610a3f90613a1e565b61010e5460ff1615611e0b5760405162461bcd60e51b8152600401610afe90613a90565b610107546001600160a01b03163314611e365760405162461bcd60e51b8152600401610afe90613c4e565b610fd28282612d03565b61010e5460009060ff1615611e675760405162461bcd60e51b8152600401610afe90613a90565b6000611e733384611fe9565b33600090815260fc602090815260408083206001600160a01b0389168452909152902054909150811115611ea8576000611119565b33600090815260fc602090815260408083206001600160a01b0388168452909152902054611119908290613cbc565b61010e5460009060ff1615611efe5760405162461bcd60e51b8152600401610afe90613a90565b6001600160a01b038316611f4f5760405162461bcd60e51b81526020600482015260186024820152775472616e7366657220746f207a65726f206164647265737360401b6044820152606401610afe565b611f5833611b43565b821115611fa75760405162461bcd60e51b815260206004820152601d60248201527f5472616e736665722067726561746572207468616e2062616c616e63650000006044820152606401610afe565b611fb2338484612586565b6040518281526001600160a01b038416903390600080516020613eda8339815191529060200160405180910390a350600192915050565b600080611ff5836126f7565b90506000612005610f0686612736565b90506000610f198383612e99565b6000610a2a61074a610105846126eb565b60008281526065602052604090206001015461203f816128df565b610f5383836128e9565b612054600033611dad565b6120705760405162461bcd60e51b8152600401610afe90613d63565b306001600160a01b038216036120bb5760405162461bcd60e51b815260206004820152601060248201526f65786368616e6765206973207a65726f60801b6044820152606401610afe565b61010780546001600160a01b0319166001600160a01b0383169081179091556040519081527f1af34e943bb581f62718acd39caf1a640e9ff89789a197745e259d1f40cd9bd690602001611c4f565b6001600160a01b03808316600090815260fc6020908152604080832093851683529290529081205461214d6ec097ce7bc90715b34b9f1000000000600019613a6e565b81111561215f57600019915050610a2a565b6121698482610eea565b949350505050565b6001600160a01b038116600090815260fb6020526040812054819061219584612736565b91509150915091565b610108546001600160a01b031633146121f95760405162461bcd60e51b815260206004820181905260248201527f43616c6c6572206973206e6f7420746865205041594f55545f4d414e414745526044820152606401610afe565b61010e5460ff161561221d5760405162461bcd60e51b8152600401610afe90613a90565b600261010d54036122405760405162461bcd60e51b8152600401610afe90613c85565b600261010d5561224f81612c9d565b1561229c5760405162461bcd60e51b815260206004820152601860248201527f4163636f756e7420686173206e6f74206f7074656420696e00000000000000006044820152606401610afe565b6122b26122a882611b43565b6101025490612ac6565b61010255610101546001600160a01b0382166000908152610109602090815260408083209390935560fb90522054610100546122ed91612ad2565b610100556001600160a01b038116600090815261010a60205260409020805460ff1916600117905561232161010b82612f36565b5050600161010d55565b612336600033611dad565b6123525760405162461bcd60e51b8152600401610afe90613d63565b306001600160a01b038216036123a05760405162461bcd60e51b8152602060048201526013602482015272726f6c654d616e61676572206973207a65726f60681b6044820152606401610afe565b61010e8054610100600160a81b0319166101006001600160a01b038416908102919091179091556040519081527f5a7ef52f6714a981ffe676ce3c4a14db59929bd3f8ca82bb6cf9e230fa8a50c990602001611c4f565b600080600061240584612736565b9050806b033b2e3c9fd0803ce80000000361243a576001600160a01b03909316600090815260fb602052604090205493915050565b6001600160a01b038416600090815260fb602052604090205461246290633b9aca0090613a6e565b612470633b9aca0083613a6e565b9250925050915091565b6001600160a01b03163b151590565b6000610a2a825490565b600054610100900460ff166124fe5760405162461bcd60e51b815260206004820152602b60248201527f496e697469616c697a61626c653a20636f6e7472616374206973206e6f74206960448201526a6e697469616c697a696e6760a81b6064820152608401610afe565b565b61250a8282611dad565b610fd25760008281526065602090815260408083206001600160a01b03851684529091529020805460ff191660011790556125423390565b6001600160a01b0316816001600160a01b0316837f2f8788117e7eff1d82e926ec794901d17c78024a50270940304540a733656f0d60405160405180910390a45050565b600061259183612c9d565b9050600061259e85612c9d565b905060006125ac8585611fe9565b905060006125ba8786611fe9565b905061262160fb6000896001600160a01b03166001600160a01b0316815260200190815260200160002054826040518060400160405280601f81526020017f5472616e7366657220616d6f756e7420657863656564732062616c616e636500815250611d5d565b6001600160a01b03808916600090815260fb602052604080822093909355908816815220546126509083612ac6565b6001600160a01b038716600090815260fb6020526040902055838015612674575082155b156126a257610102546126879086612ac6565b61010255610100546126999082612ad2565b610100556126d7565b831580156126ad5750825b156126d757610102546126c09086612ad2565b61010255610100546126d29083612ac6565b610100555b6126e2878787612f4b565b50505050505050565b6000610ed58383612fbf565b600080612708633b9aca0084613ccf565b905082612719633b9aca0083613a6e565b14610a2a5760405162461bcd60e51b8152600401610afe90613d91565b6001600160a01b038116600090815261010960205260408120541561277257506001600160a01b03166000908152610109602052604090205490565b50506101015490565b919050565b6000816000036127d25760405162461bcd60e51b815260206004820152601c60248201527f4572726f72732e4d4154485f4449564953494f4e5f42595f5a45524f000000006044820152606401610afe565b826000036127e257506000610a2a565b60006127ef600284613a6e565b90506b033b2e3c9fd0803ce800000061280a82600019613cbc565b6128149190613a6e565b8411156128335760405162461bcd60e51b8152600401610afe90613d91565b828161284b6b033b2e3c9fd0803ce800000087613ccf565b6128559190613ce6565b6121699190613a6e565b6000806128716002633b9aca00613a6e565b9050600061287f8483613ce6565b9050818110156128d15760405162461bcd60e51b815260206004820152601d60248201527f4572726f72732e4d4154485f4144444954494f4e5f4f564552464c4f570000006044820152606401610afe565b612169633b9aca0082613a6e565b6110b28133612fe9565b6128f38282611dad565b15610fd25760008281526065602090815260408083206001600160a01b0385168085529252808320805460ff1916905551339285917ff6391f5c32d9c69d2a47ea670b442974b53935d1edc7fd64eb21e047a839171b9190a45050565b6000610fd2816128df565b7f4910fdfa16fed3260ed0e7147f7cc6da11a60208b5b9406d12a635614ffd91435460ff161561298e57610f5383613042565b826001600160a01b03166352d1902d6040518163ffffffff1660e01b8152600401602060405180830381865afa9250505080156129e8575060408051601f3d908101601f191682019092526129e591810190613d4a565b60015b612a4b5760405162461bcd60e51b815260206004820152602e60248201527f45524331393637557067726164653a206e657720696d706c656d656e7461746960448201526d6f6e206973206e6f74205555505360901b6064820152608401610afe565b600080516020613e938339815191528114612aba5760405162461bcd60e51b815260206004820152602960248201527f45524331393637557067726164653a20756e737570706f727465642070726f786044820152681a58589b195555525160ba1b6064820152608401610afe565b50610f538383836130de565b6000610ed58284613ce6565b6000610ed58284613cbc565b600080612af384670de0b6b3a7640000612cd6565b90506121698184612ce2565b600261010d5403612b225760405162461bcd60e51b8152600401610afe90613c85565b600261010d556001600160a01b038216612b7e5760405162461bcd60e51b815260206004820152601860248201527f4d696e7420746f20746865207a65726f206164647265737300000000000000006044820152606401610afe565b6000612b8983612c9d565b90506000612b978484611fe9565b6001600160a01b038516600090815260fb6020526040902054909150612bbd9082612ac6565b6001600160a01b038516600090815260fb60205260409020558115612bf35761010254612bea9084612ac6565b61010255612c06565b61010054612c019082612ac6565b610100555b60fd54612c139084612ac6565b60fd81905560001911612c555760405162461bcd60e51b815260206004820152600a6024820152694d617820737570706c7960b01b6044820152606401610afe565b612c6160008585612f4b565b6040518381526001600160a01b03851690600090600080516020613eda833981519152906020015b60405180910390a35050600161010d555050565b600060016001600160a01b038316600090815261010a602052604090205460ff166001811115612ccf57612ccf613864565b1492915050565b6000610ed58284613ccf565b6000610ed58284613a6e565b6000610ed5836001600160a01b038416613103565b600261010d5403612d265760405162461bcd60e51b8152600401610afe90613c85565b600261010d556001600160a01b038216612d825760405162461bcd60e51b815260206004820152601a60248201527f4275726e2066726f6d20746865207a65726f20616464726573730000000000006044820152606401610afe565b8015612321576000612d9383612c9d565b90506000612da18484611fe9565b9050612e0860fb6000866001600160a01b03166001600160a01b0316815260200190815260200160002054826040518060400160405280601b81526020017f4275726e20616d6f756e7420657863656564732062616c616e63650000000000815250611d5d565b6001600160a01b038516600090815260fb60205260409020558115612e3e5761010254612e359084612ad2565b61010255612e51565b61010054612e4c9082612ad2565b610100555b60fd54612e5e9084612ad2565b60fd55612e6d60008585612f4b565b6040518381526000906001600160a01b03861690600080516020613eda83398151915290602001612c89565b6000821580612ea6575081155b15612eb357506000610a2a565b81612ecb60026b033b2e3c9fd0803ce8000000613a6e565b612ed790600019613cbc565b612ee19190613a6e565b831115612f005760405162461bcd60e51b8152600401610afe90613d91565b6b033b2e3c9fd0803ce8000000612f18600282613a6e565b612f228486613ccf565b612f2c9190613ce6565b610ed59190613a6e565b6000610ed5836001600160a01b0384166131f6565b6001600160a01b038316612f6b57612f6561010583612f36565b50505050565b6001600160a01b038216612f9557612f8283611b43565b600003610f5357612f6561010584612cee565b612f9e83611b43565b600003612fb357612fb161010584612cee565b505b612f6561010583612f36565b6000826000018281548110612fd657612fd6613cf9565b9060005260206000200154905092915050565b612ff38282611dad565b610fd25761300081613245565b61300b836020613257565b60405160200161301c929190613dd4565b60408051601f198184030181529082905262461bcd60e51b8252610afe916004016135f6565b6001600160a01b0381163b6130af5760405162461bcd60e51b815260206004820152602d60248201527f455243313936373a206e657720696d706c656d656e746174696f6e206973206e60448201526c1bdd08184818dbdb9d1c9858dd609a1b6064820152608401610afe565b600080516020613e9383398151915280546001600160a01b0319166001600160a01b0392909216919091179055565b6130e7836133f3565b6000825111806130f45750805b15610f5357612f658383613433565b600081815260018301602052604081205480156131ec576000613127600183613cbc565b855490915060009061313b90600190613cbc565b90508181146131a057600086600001828154811061315b5761315b613cf9565b906000526020600020015490508087600001848154811061317e5761317e613cf9565b6000918252602080832090910192909255918252600188019052604090208390555b85548690806131b1576131b1613e49565b600190038181906000526020600020016000905590558560010160008681526020019081526020016000206000905560019350505050610a2a565b6000915050610a2a565b600081815260018301602052604081205461323d57508154600181810184556000848152602080822090930184905584548482528286019093526040902091909155610a2a565b506000610a2a565b6060610a2a6001600160a01b03831660145b60606000613266836002613ccf565b613271906002613ce6565b67ffffffffffffffff811115613289576132896138a2565b6040519080825280601f01601f1916602001820160405280156132b3576020820181803683370190505b509050600360fc1b816000815181106132ce576132ce613cf9565b60200101906001600160f81b031916908160001a905350600f60fb1b816001815181106132fd576132fd613cf9565b60200101906001600160f81b031916908160001a9053506000613321846002613ccf565b61332c906001613ce6565b90505b60018111156133a4576f181899199a1a9b1b9c1cb0b131b232b360811b85600f166010811061336057613360613cf9565b1a60f81b82828151811061337657613376613cf9565b60200101906001600160f81b031916908160001a90535060049490941c9361339d81613e5f565b905061332f565b508315610ed55760405162461bcd60e51b815260206004820181905260248201527f537472696e67733a20686578206c656e67746820696e73756666696369656e746044820152606401610afe565b6133fc81613042565b6040516001600160a01b038216907fbc7cd75a20ee27fd9adebab32041f755214dbc6bffa90cc0225b39da2e5c2d3b90600090a250565b60606001600160a01b0383163b61349b5760405162461bcd60e51b815260206004820152602660248201527f416464726573733a2064656c65676174652063616c6c20746f206e6f6e2d636f6044820152651b9d1c9858dd60d21b6064820152608401610afe565b600080846001600160a01b0316846040516134b69190613e76565b600060405180830381855af49150503d80600081146134f1576040519150601f19603f3d011682016040523d82523d6000602084013e6134f6565b606091505b509150915061351e8282604051806060016040528060278152602001613eb360279139613527565b95945050505050565b60608315613536575081610ed5565b610ed5838381511561354b5781518083602001fd5b8060405162461bcd60e51b8152600401610afe91906135f6565b6040805160608101825260008082526020820152908101613584613589565b905290565b604051806101400160405280600a906020820280368337509192915050565b6000602082840312156135ba57600080fd5b81356001600160e01b031981168114610ed557600080fd5b60005b838110156135ed5781810151838201526020016135d5565b50506000910152565b60208152600082518060208401526136158160408501602087016135d2565b601f01601f19169190910160400192915050565b80356001600160a01b038116811461277b57600080fd5b6000806040838503121561365357600080fd5b61365c83613629565b946020939093013593505050565b60008083601f84011261367c57600080fd5b50813567ffffffffffffffff81111561369457600080fd5b6020830191508360208285010111156136ac57600080fd5b9250929050565b6000806000806000606086880312156136cb57600080fd5b853567ffffffffffffffff808211156136e357600080fd5b6136ef89838a0161366a565b9097509550602088013591508082111561370857600080fd5b506137158882890161366a565b909450925050604086013560ff8116811461372f57600080fd5b809150509295509295909350565b60008060006060848603121561375257600080fd5b61375b84613629565b925061376960208501613629565b9150604084013590509250925092565b60006020828403121561378b57600080fd5b5035919050565b600080604083850312156137a557600080fd5b823591506137b560208401613629565b90509250929050565b6000602082840312156137d057600080fd5b610ed582613629565b6040808252835182820181905260009190602090606085019082880185805b8381101561385357825180516001600160a01b031686528681015187870152870151878601835b600a81101561383c5782518252918801919088019060010161381f565b5050506101809490940193918501916001016137f8565b505050509301939093525092915050565b634e487b7160e01b600052602160045260246000fd5b602081016002831061389c57634e487b7160e01b600052602160045260246000fd5b91905290565b634e487b7160e01b600052604160045260246000fd5b600067ffffffffffffffff808411156138d3576138d36138a2565b604051601f8501601f19908116603f011681019082821181831017156138fb576138fb6138a2565b8160405280935085815286868601111561391457600080fd5b858560208301376000602087830101525050509392505050565b6000806040838503121561394157600080fd5b61394a83613629565b9150602083013567ffffffffffffffff81111561396657600080fd5b8301601f8101851361397757600080fd5b613986858235602084016138b8565b9150509250929050565b6000806000606084860312156139a557600080fd5b8335925060208401359150604084013567ffffffffffffffff8111156139ca57600080fd5b8401601f810186136139db57600080fd5b6139ea868235602084016138b8565b9150509250925092565b60008060408385031215613a0757600080fd5b613a1083613629565b91506137b560208401613629565b600181811c90821680613a3257607f821691505b602082108103613a5257634e487b7160e01b600052602260045260246000fd5b50919050565b634e487b7160e01b600052601160045260246000fd5b600082613a8b57634e487b7160e01b600052601260045260246000fd5b500490565b602080825260059082015264706175736560d81b604082015260600190565b601f821115610f5357600081815260208120601f850160051c81016020861015613ad65750805b601f850160051c820191505b81811015610d1a57828155600101613ae2565b67ffffffffffffffff831115613b0d57613b0d6138a2565b613b2183613b1b8354613a1e565b83613aaf565b6000601f841160018114613b555760008515613b3d5750838201355b600019600387901b1c1916600186901b178355613baf565b600083815260209020601f19861690835b82811015613b865786850135825560209485019460019092019101613b66565b5086821015613ba35760001960f88860031b161c19848701351681555b505060018560011b0183555b5050505050565b6020808252602c908201527f46756e6374696f6e206d7573742062652063616c6c6564207468726f7567682060408201526b19195b1959d85d1958d85b1b60a21b606082015260800190565b6020808252602c908201527f46756e6374696f6e206d7573742062652063616c6c6564207468726f7567682060408201526b6163746976652070726f787960a01b606082015260800190565b6020808252601b908201527f43616c6c6572206973206e6f74207468652045584348414e4745520000000000604082015260600190565b6020808252601f908201527f5265656e7472616e637947756172643a207265656e7472616e742063616c6c00604082015260600190565b81810381811115610a2a57610a2a613a58565b8082028115828204841417610a2a57610a2a613a58565b80820180821115610a2a57610a2a613a58565b634e487b7160e01b600052603260045260246000fd5b600060018201613d2157613d21613a58565b5060010190565b600060208284031215613d3a57600080fd5b81518015158114610ed557600080fd5b600060208284031215613d5c57600080fd5b5051919050565b6020808252601490820152735265737472696374656420746f2061646d696e7360601b604082015260600190565b60208082526023908201527f4572726f72732e4d4154485f4d554c5449504c49434154494f4e5f4f564552466040820152624c4f5760e81b606082015260800190565b7f416363657373436f6e74726f6c3a206163636f756e7420000000000000000000815260008351613e0c8160178501602088016135d2565b7001034b99036b4b9b9b4b733903937b6329607d1b6017918401918201528351613e3d8160288401602088016135d2565b01602801949350505050565b634e487b7160e01b600052603160045260246000fd5b600081613e6e57613e6e613a58565b506000190190565b60008251613e888184602087016135d2565b919091019291505056fe360894a13ba1a3210667c828492db98dca3e2076cc3735a920a3ca505d382bbc416464726573733a206c6f772d6c6576656c2064656c65676174652063616c6c206661696c6564ddf252ad1be2c89b69c2b068fc378daa952ba7f163c4a11628f55a4df523b3efa2646970667358221220feebc3bc03d9c5d44a82103b4200e0b7f93446245d05f5fe6d01872806fa91f464736f6c63430008110033",
  "implementation": "0x09D9E27DfCBB027758021DBC995Df159CCb13142",
  "devdoc": {
    "details": "Fork of OUSD version In previous version it was UsdPlusTokenOld.sol therefore save slot storage for deleted variables Different with OUSD: - changeSupply - PayoutManager: rebaseOptIn/rebaseOptOut - RoleManager",
    "kind": "dev",
    "methods": {
      "allowance(address,address)": {
        "details": "Function to check the amount of tokens that _owner has allowed to      `_spender`.",
        "params": {
          "_owner": "The address which owns the funds.",
          "_spender": "The address which will spend the funds."
        },
        "returns": {
          "_0": "The number of tokens still available for the _spender."
        }
      },
      "approve(address,uint256)": {
        "details": "Approve the passed address to spend the specified amount of tokens      on behalf of msg.sender. This method is included for ERC20      compatibility. `increaseAllowance` and `decreaseAllowance` should be      used instead.      Changing an allowance with this method brings the risk that someone      may transfer both the old and the new allowance - if they are both      greater than zero - if a transfer transaction is mined before the      later approve() call is mined.",
        "params": {
          "_spender": "The address which will spend the funds.",
          "_value": "The amount of tokens to be spent."
        }
      },
      "assetToCredit(address,uint256)": {
        "details": "Converts usd+ balance value to credits",
        "params": {
          "amount": "The amount for conversion in usd+",
          "owner": "The address which owns the funds."
        },
        "returns": {
          "credit": "The number of tokens in credits"
        }
      },
      "balanceOf(address)": {
        "details": "Gets the balance of the specified address.",
        "params": {
          "_account": "Address to query the balance of."
        },
        "returns": {
          "_0": "A uint256 representing the amount of base units owned by the         specified address."
        }
      },
      "burn(address,uint256)": {
        "details": "Burns tokens, decreasing totalSupply."
      },
      "changeSupply(uint256)": {
        "details": "Modify the supply without minting new tokens. This uses a change in      the exchange rate between \"credits\" and USD+ tokens to change balances.",
        "params": {
          "_newTotalSupply": "New total supply of USD+."
        }
      },
      "constructor": {
        "custom:oz-upgrades-unsafe-allow": "constructor"
      },
      "creditToAsset(address,uint256)": {
        "details": "Converts credits balance value to usd+",
        "params": {
          "credit": "The amount for conversion in credits",
          "owner": "The address which owns the funds."
        },
        "returns": {
          "asset": "The number of tokens in credits"
        }
      },
      "creditsBalanceOf(address)": {
        "details": "Gets the credits balance of the specified address.Backwards compatible with old low res credits per token.",
        "params": {
          "_account": "The address to query the balance of."
        },
        "returns": {
          "_0": "(uint256, uint256) Credit balance and credits per token of the         address"
        }
      },
      "creditsBalanceOfHighres(address)": {
        "details": "Gets the credits balance of the specified address.",
        "params": {
          "_account": "The address to query the balance of."
        },
        "returns": {
          "_0": "(uint256, uint256) Credit balance, credits per token of the address"
        }
      },
      "decreaseAllowance(address,uint256)": {
        "details": "Decrease the amount of tokens that an owner has allowed to `_spender`.",
        "params": {
          "_spender": "The address which will spend the funds.",
          "_subtractedValue": "The amount of tokens to decrease the allowance        by."
        }
      },
      "getRoleAdmin(bytes32)": {
        "details": "Returns the admin role that controls `role`. See {grantRole} and {revokeRole}. To change a role's admin, use {_setRoleAdmin}."
      },
      "grantRole(bytes32,address)": {
        "details": "Grants `role` to `account`. If `account` had not been already granted `role`, emits a {RoleGranted} event. Requirements: - the caller must have ``role``'s admin role. May emit a {RoleGranted} event."
      },
      "hasRole(bytes32,address)": {
        "details": "Returns `true` if `account` has been granted `role`."
      },
      "increaseAllowance(address,uint256)": {
        "details": "Increase the amount of tokens that an owner has allowed to      `_spender`.      This method should be used instead of approve() to avoid the double      approval vulnerability described above.",
        "params": {
          "_addedValue": "The amount of tokens to increase the allowance by.",
          "_spender": "The address which will spend the funds."
        }
      },
      "mint(address,uint256)": {
        "details": "Mints new tokens, increasing totalSupply."
      },
      "proxiableUUID()": {
        "details": "Implementation of the ERC1822 {proxiableUUID} function. This returns the storage slot used by the implementation. It is used to validate the implementation's compatibility when performing an upgrade. IMPORTANT: A proxy pointing at a proxiable contract should not be considered proxiable itself, because this risks bricking a proxy that upgrades to it, by delegating to itself until out of gas. Thus it is critical that this function revert if invoked through a proxy. This is guaranteed by the `notDelegated` modifier."
      },
      "rebaseOptIn(address)": {
        "details": "Add a contract address to the non-rebasing exception list. The address's balance will be part of rebases and the account will be exposed to upside and downside."
      },
      "rebaseOptOut(address)": {
        "details": "Explicitly mark that an address is non-rebasing."
      },
      "rebasingCredits()": {
        "returns": {
          "_0": "Low resolution total number of rebasing credits"
        }
      },
      "rebasingCreditsHighres()": {
        "returns": {
          "_0": "High resolution total number of rebasing credits"
        }
      },
      "rebasingCreditsPerToken()": {
        "returns": {
          "_0": "Low resolution rebasingCreditsPerToken"
        }
      },
      "rebasingCreditsPerTokenHighres()": {
        "returns": {
          "_0": "High resolution rebasingCreditsPerToken"
        }
      },
      "renounceRole(bytes32,address)": {
        "details": "Revokes `role` from the calling account. Roles are often managed via {grantRole} and {revokeRole}: this function's purpose is to provide a mechanism for accounts to lose their privileges if they are compromised (such as when a trusted device is misplaced). If the calling account had been revoked `role`, emits a {RoleRevoked} event. Requirements: - the caller must be `account`. May emit a {RoleRevoked} event."
      },
      "revokeRole(bytes32,address)": {
        "details": "Revokes `role` from `account`. If `account` had been granted `role`, emits a {RoleRevoked} event. Requirements: - the caller must have ``role``'s admin role. May emit a {RoleRevoked} event."
      },
      "subCredits(uint256,uint256,string)": {
        "details": "This method subtracts credits. Due to the fact that credits  are stored with increased accuracy (1e9), we consider as  the same number everything that differs by less than 1e6.",
        "params": {
          "credit1": "The minuend number in credits (increased accuracy)",
          "credit2": "The subtrahend number in credits (increased accuracy)",
          "errorText": "Text for error if the subtrahend is much greater than the minuend"
        },
        "returns": {
          "resultCredit": "The number of tokens in credits"
        }
      },
      "supportsInterface(bytes4)": {
        "details": "See {IERC165-supportsInterface}."
      },
      "totalSupply()": {
        "returns": {
          "_0": "The total supply of USD+."
        }
      },
      "transfer(address,uint256)": {
        "details": "Transfer tokens to a specified address.",
        "params": {
          "_to": "the address to transfer to.",
          "_value": "the amount to be transferred."
        },
        "returns": {
          "_0": "true on success."
        }
      },
      "transferFrom(address,address,uint256)": {
        "details": "Transfer tokens from one address to another.",
        "params": {
          "_from": "The address you want to send tokens from.",
          "_to": "The address you want to transfer to.",
          "_value": "The amount of tokens to be transferred."
        }
      },
      "upgradeTo(address)": {
        "details": "Upgrade the implementation of the proxy to `newImplementation`. Calls {_authorizeUpgrade}. Emits an {Upgraded} event."
      },
      "upgradeToAndCall(address,bytes)": {
        "details": "Upgrade the implementation of the proxy to `newImplementation`, and subsequently execute the function call encoded in `data`. Calls {_authorizeUpgrade}. Emits an {Upgraded} event."
      }
    },
    "version": 1
  },
  "userdoc": {
    "kind": "user",
    "methods": {
      "decimals()": {
        "notice": "Returns the number of decimals used to get its user representation. For example, if `decimals` equals `2`, a balance of `505` tokens should be displayed to a user as `5,05` (`505 / 10 ** 2`). Tokens usually opt for a value of 18, imitating the relationship between Ether and Wei. NOTE: This information is only used for _display_ purposes: it in no way affects any of the arithmetic of the contract, including {IERC20-balanceOf} and {IERC20-transfer}."
      },
      "name()": {
        "notice": "Returns the name of the token."
      },
      "symbol()": {
        "notice": "Returns the symbol of the token, usually a shorter version of the name."
      }
    },
    "version": 1
  },
  "storageLayout": {
    "storage": [
      {
        "astId": 804,
        "contract": "contracts/UsdPlusToken.sol:UsdPlusToken",
        "label": "_initialized",
        "offset": 0,
        "slot": "0",
        "type": "t_uint8"
      },
      {
        "astId": 807,
        "contract": "contracts/UsdPlusToken.sol:UsdPlusToken",
        "label": "_initializing",
        "offset": 1,
        "slot": "0",
        "type": "t_bool"
      },
      {
        "astId": 1530,
        "contract": "contracts/UsdPlusToken.sol:UsdPlusToken",
        "label": "__gap",
        "offset": 0,
        "slot": "1",
        "type": "t_array(t_uint256)50_storage"
      },
      {
        "astId": 1809,
        "contract": "contracts/UsdPlusToken.sol:UsdPlusToken",
        "label": "__gap",
        "offset": 0,
        "slot": "51",
        "type": "t_array(t_uint256)50_storage"
      },
      {
        "astId": 39,
        "contract": "contracts/UsdPlusToken.sol:UsdPlusToken",
        "label": "_roles",
        "offset": 0,
        "slot": "101",
        "type": "t_mapping(t_bytes32,t_struct(RoleData)34_storage)"
      },
      {
        "astId": 334,
        "contract": "contracts/UsdPlusToken.sol:UsdPlusToken",
        "label": "__gap",
        "offset": 0,
        "slot": "102",
        "type": "t_array(t_uint256)49_storage"
      },
      {
        "astId": 786,
        "contract": "contracts/UsdPlusToken.sol:UsdPlusToken",
        "label": "__gap",
        "offset": 0,
        "slot": "151",
        "type": "t_array(t_uint256)50_storage"
      },
      {
        "astId": 1101,
        "contract": "contracts/UsdPlusToken.sol:UsdPlusToken",
        "label": "__gap",
        "offset": 0,
        "slot": "201",
        "type": "t_array(t_uint256)50_storage"
      },
      {
        "astId": 4387,
        "contract": "contracts/UsdPlusToken.sol:UsdPlusToken",
        "label": "_creditBalances",
        "offset": 0,
        "slot": "251",
        "type": "t_mapping(t_address,t_uint256)"
      },
      {
        "astId": 4393,
        "contract": "contracts/UsdPlusToken.sol:UsdPlusToken",
        "label": "_allowances",
        "offset": 0,
        "slot": "252",
        "type": "t_mapping(t_address,t_mapping(t_address,t_uint256))"
      },
      {
        "astId": 4395,
        "contract": "contracts/UsdPlusToken.sol:UsdPlusToken",
        "label": "_totalSupply",
        "offset": 0,
        "slot": "253",
        "type": "t_uint256"
      },
      {
        "astId": 4397,
        "contract": "contracts/UsdPlusToken.sol:UsdPlusToken",
        "label": "_name",
        "offset": 0,
        "slot": "254",
        "type": "t_string_storage"
      },
      {
        "astId": 4399,
        "contract": "contracts/UsdPlusToken.sol:UsdPlusToken",
        "label": "_symbol",
        "offset": 0,
        "slot": "255",
        "type": "t_string_storage"
      },
      {
        "astId": 4401,
        "contract": "contracts/UsdPlusToken.sol:UsdPlusToken",
        "label": "_rebasingCredits",
        "offset": 0,
        "slot": "256",
        "type": "t_uint256"
      },
      {
        "astId": 4403,
        "contract": "contracts/UsdPlusToken.sol:UsdPlusToken",
        "label": "_rebasingCreditsPerToken",
        "offset": 0,
        "slot": "257",
        "type": "t_uint256"
      },
      {
        "astId": 4405,
        "contract": "contracts/UsdPlusToken.sol:UsdPlusToken",
        "label": "nonRebasingSupply",
        "offset": 0,
        "slot": "258",
        "type": "t_uint256"
      },
      {
        "astId": 4407,
        "contract": "contracts/UsdPlusToken.sol:UsdPlusToken",
        "label": "DELETED_1",
        "offset": 0,
        "slot": "259",
        "type": "t_uint256"
      },
      {
        "astId": 4409,
        "contract": "contracts/UsdPlusToken.sol:UsdPlusToken",
        "label": "DELETED_2",
        "offset": 0,
        "slot": "260",
        "type": "t_uint256"
      },
      {
        "astId": 4412,
        "contract": "contracts/UsdPlusToken.sol:UsdPlusToken",
        "label": "_owners",
        "offset": 0,
        "slot": "261",
        "type": "t_struct(AddressSet)4037_storage"
      },
      {
        "astId": 4414,
        "contract": "contracts/UsdPlusToken.sol:UsdPlusToken",
        "label": "exchange",
        "offset": 0,
        "slot": "263",
        "type": "t_address"
      },
      {
        "astId": 4416,
        "contract": "contracts/UsdPlusToken.sol:UsdPlusToken",
        "label": "_decimals",
        "offset": 20,
        "slot": "263",
        "type": "t_uint8"
      },
      {
        "astId": 4418,
        "contract": "contracts/UsdPlusToken.sol:UsdPlusToken",
        "label": "payoutManager",
        "offset": 0,
        "slot": "264",
        "type": "t_address"
      },
      {
        "astId": 4422,
        "contract": "contracts/UsdPlusToken.sol:UsdPlusToken",
        "label": "nonRebasingCreditsPerToken",
        "offset": 0,
        "slot": "265",
        "type": "t_mapping(t_address,t_uint256)"
      },
      {
        "astId": 4427,
        "contract": "contracts/UsdPlusToken.sol:UsdPlusToken",
        "label": "rebaseState",
        "offset": 0,
        "slot": "266",
        "type": "t_mapping(t_address,t_enum(RebaseOptions)4467)"
      },
      {
        "astId": 4430,
        "contract": "contracts/UsdPlusToken.sol:UsdPlusToken",
        "label": "_nonRebaseOwners",
        "offset": 0,
        "slot": "267",
        "type": "t_struct(AddressSet)4037_storage"
      },
      {
        "astId": 4432,
        "contract": "contracts/UsdPlusToken.sol:UsdPlusToken",
        "label": "_status",
        "offset": 0,
        "slot": "269",
        "type": "t_uint256"
      },
      {
        "astId": 4434,
        "contract": "contracts/UsdPlusToken.sol:UsdPlusToken",
        "label": "paused",
        "offset": 0,
        "slot": "270",
        "type": "t_bool"
      },
      {
        "astId": 4437,
        "contract": "contracts/UsdPlusToken.sol:UsdPlusToken",
        "label": "roleManager",
        "offset": 1,
        "slot": "270",
        "type": "t_contract(IRoleManager)6219"
      }
    ],
    "types": {
      "t_address": {
        "encoding": "inplace",
        "label": "address",
        "numberOfBytes": "20"
      },
      "t_array(t_bytes32)dyn_storage": {
        "base": "t_bytes32",
        "encoding": "dynamic_array",
        "label": "bytes32[]",
        "numberOfBytes": "32"
      },
      "t_array(t_uint256)49_storage": {
        "base": "t_uint256",
        "encoding": "inplace",
        "label": "uint256[49]",
        "numberOfBytes": "1568"
      },
      "t_array(t_uint256)50_storage": {
        "base": "t_uint256",
        "encoding": "inplace",
        "label": "uint256[50]",
        "numberOfBytes": "1600"
      },
      "t_bool": {
        "encoding": "inplace",
        "label": "bool",
        "numberOfBytes": "1"
      },
      "t_bytes32": {
        "encoding": "inplace",
        "label": "bytes32",
        "numberOfBytes": "32"
      },
      "t_contract(IRoleManager)6219": {
        "encoding": "inplace",
        "label": "contract IRoleManager",
        "numberOfBytes": "20"
      },
      "t_enum(RebaseOptions)4467": {
        "encoding": "inplace",
        "label": "enum UsdPlusToken.RebaseOptions",
        "numberOfBytes": "1"
      },
      "t_mapping(t_address,t_bool)": {
        "encoding": "mapping",
        "key": "t_address",
        "label": "mapping(address => bool)",
        "numberOfBytes": "32",
        "value": "t_bool"
      },
      "t_mapping(t_address,t_enum(RebaseOptions)4467)": {
        "encoding": "mapping",
        "key": "t_address",
        "label": "mapping(address => enum UsdPlusToken.RebaseOptions)",
        "numberOfBytes": "32",
        "value": "t_enum(RebaseOptions)4467"
      },
      "t_mapping(t_address,t_mapping(t_address,t_uint256))": {
        "encoding": "mapping",
        "key": "t_address",
        "label": "mapping(address => mapping(address => uint256))",
        "numberOfBytes": "32",
        "value": "t_mapping(t_address,t_uint256)"
      },
      "t_mapping(t_address,t_uint256)": {
        "encoding": "mapping",
        "key": "t_address",
        "label": "mapping(address => uint256)",
        "numberOfBytes": "32",
        "value": "t_uint256"
      },
      "t_mapping(t_bytes32,t_struct(RoleData)34_storage)": {
        "encoding": "mapping",
        "key": "t_bytes32",
        "label": "mapping(bytes32 => struct AccessControlUpgradeable.RoleData)",
        "numberOfBytes": "32",
        "value": "t_struct(RoleData)34_storage"
      },
      "t_mapping(t_bytes32,t_uint256)": {
        "encoding": "mapping",
        "key": "t_bytes32",
        "label": "mapping(bytes32 => uint256)",
        "numberOfBytes": "32",
        "value": "t_uint256"
      },
      "t_string_storage": {
        "encoding": "bytes",
        "label": "string",
        "numberOfBytes": "32"
      },
      "t_struct(AddressSet)4037_storage": {
        "encoding": "inplace",
        "label": "struct EnumerableSet.AddressSet",
        "members": [
          {
            "astId": 4036,
            "contract": "contracts/UsdPlusToken.sol:UsdPlusToken",
            "label": "_inner",
            "offset": 0,
            "slot": "0",
            "type": "t_struct(Set)3722_storage"
          }
        ],
        "numberOfBytes": "64"
      },
      "t_struct(RoleData)34_storage": {
        "encoding": "inplace",
        "label": "struct AccessControlUpgradeable.RoleData",
        "members": [
          {
            "astId": 31,
            "contract": "contracts/UsdPlusToken.sol:UsdPlusToken",
            "label": "members",
            "offset": 0,
            "slot": "0",
            "type": "t_mapping(t_address,t_bool)"
          },
          {
            "astId": 33,
            "contract": "contracts/UsdPlusToken.sol:UsdPlusToken",
            "label": "adminRole",
            "offset": 0,
            "slot": "1",
            "type": "t_bytes32"
          }
        ],
        "numberOfBytes": "64"
      },
      "t_struct(Set)3722_storage": {
        "encoding": "inplace",
        "label": "struct EnumerableSet.Set",
        "members": [
          {
            "astId": 3717,
            "contract": "contracts/UsdPlusToken.sol:UsdPlusToken",
            "label": "_values",
            "offset": 0,
            "slot": "0",
            "type": "t_array(t_bytes32)dyn_storage"
          },
          {
            "astId": 3721,
            "contract": "contracts/UsdPlusToken.sol:UsdPlusToken",
            "label": "_indexes",
            "offset": 0,
            "slot": "1",
            "type": "t_mapping(t_bytes32,t_uint256)"
          }
        ],
        "numberOfBytes": "64"
      },
      "t_uint256": {
        "encoding": "inplace",
        "label": "uint256",
        "numberOfBytes": "32"
      },
      "t_uint8": {
        "encoding": "inplace",
        "label": "uint8",
        "numberOfBytes": "1"
      }
    }
  }
}