{
  "address": "0xeb8E93A0c7504Bffd8A8fFa56CD754c63aAeBFe8",
  "abi": [
    {
      "inputs": [],
      "stateMutability": "nonpayable",
      "type": "constructor"
    },
    {
      "anonymous": false,
      "inputs": [
        {
          "indexed": false,
          "internalType": "address",
          "name": "previousAdmin",
          "type": "address"
        },
        {
          "indexed": false,
          "internalType": "address",
          "name": "newAdmin",
          "type": "address"
        }
      ],
      "name": "AdminChanged",
      "type": "event"
    },
    {
      "anonymous": false,
      "inputs": [
        {
          "indexed": true,
          "internalType": "address",
          "name": "owner",
          "type": "address"
        },
        {
          "indexed": true,
          "internalType": "address",
          "name": "spender",
          "type": "address"
        },
        {
          "indexed": false,
          "internalType": "uint256",
          "name": "value",
          "type": "uint256"
        }
      ],
      "name": "Approval",
      "type": "event"
    },
    {
      "anonymous": false,
      "inputs": [
        {
          "indexed": true,
          "internalType": "address",
          "name": "beacon",
          "type": "address"
        }
      ],
      "name": "BeaconUpgraded",
      "type": "event"
    },
    {
      "anonymous": false,
      "inputs": [
        {
          "indexed": false,
          "internalType": "address",
          "name": "exchanger",
          "type": "address"
        }
      ],
      "name": "ExchangerUpdated",
      "type": "event"
    },
    {
      "anonymous": false,
      "inputs": [
        {
          "indexed": false,
          "internalType": "uint8",
          "name": "version",
          "type": "uint8"
        }
      ],
      "name": "Initialized",
      "type": "event"
    },
    {
      "anonymous": false,
      "inputs": [
        {
          "indexed": false,
          "internalType": "address",
          "name": "payoutManager",
          "type": "address"
        }
      ],
      "name": "PayoutManagerUpdated",
      "type": "event"
    },
    {
      "anonymous": false,
      "inputs": [
        {
          "indexed": true,
          "internalType": "bytes32",
          "name": "role",
          "type": "bytes32"
        },
        {
          "indexed": true,
          "internalType": "bytes32",
          "name": "previousAdminRole",
          "type": "bytes32"
        },
        {
          "indexed": true,
          "internalType": "bytes32",
          "name": "newAdminRole",
          "type": "bytes32"
        }
      ],
      "name": "RoleAdminChanged",
      "type": "event"
    },
    {
      "anonymous": false,
      "inputs": [
        {
          "indexed": true,
          "internalType": "bytes32",
          "name": "role",
          "type": "bytes32"
        },
        {
          "indexed": true,
          "internalType": "address",
          "name": "account",
          "type": "address"
        },
        {
          "indexed": true,
          "internalType": "address",
          "name": "sender",
          "type": "address"
        }
      ],
      "name": "RoleGranted",
      "type": "event"
    },
    {
      "anonymous": false,
      "inputs": [
        {
          "indexed": false,
          "internalType": "address",
          "name": "roleManager",
          "type": "address"
        }
      ],
      "name": "RoleManagerUpdated",
      "type": "event"
    },
    {
      "anonymous": false,
      "inputs": [
        {
          "indexed": true,
          "internalType": "bytes32",
          "name": "role",
          "type": "bytes32"
        },
        {
          "indexed": true,
          "internalType": "address",
          "name": "account",
          "type": "address"
        },
        {
          "indexed": true,
          "internalType": "address",
          "name": "sender",
          "type": "address"
        }
      ],
      "name": "RoleRevoked",
      "type": "event"
    },
    {
      "anonymous": false,
      "inputs": [
        {
          "indexed": false,
          "internalType": "uint256",
          "name": "totalSupply",
          "type": "uint256"
        },
        {
          "indexed": false,
          "internalType": "uint256",
          "name": "rebasingCredits",
          "type": "uint256"
        },
        {
          "indexed": false,
          "internalType": "uint256",
          "name": "rebasingCreditsPerToken",
          "type": "uint256"
        }
      ],
      "name": "TotalSupplyUpdatedHighres",
      "type": "event"
    },
    {
      "anonymous": false,
      "inputs": [
        {
          "indexed": true,
          "internalType": "address",
          "name": "from",
          "type": "address"
        },
        {
          "indexed": true,
          "internalType": "address",
          "name": "to",
          "type": "address"
        },
        {
          "indexed": false,
          "internalType": "uint256",
          "name": "value",
          "type": "uint256"
        }
      ],
      "name": "Transfer",
      "type": "event"
    },
    {
      "anonymous": false,
      "inputs": [
        {
          "indexed": true,
          "internalType": "address",
          "name": "implementation",
          "type": "address"
        }
      ],
      "name": "Upgraded",
      "type": "event"
    },
    {
      "inputs": [],
      "name": "DEFAULT_ADMIN_ROLE",
      "outputs": [
        {
          "internalType": "bytes32",
          "name": "",
          "type": "bytes32"
        }
      ],
      "stateMutability": "view",
      "type": "function"
    },
    {
      "inputs": [],
      "name": "PORTFOLIO_AGENT_ROLE",
      "outputs": [
        {
          "internalType": "bytes32",
          "name": "",
          "type": "bytes32"
        }
      ],
      "stateMutability": "view",
      "type": "function"
    },
    {
      "inputs": [
        {
          "internalType": "address",
          "name": "_owner",
          "type": "address"
        },
        {
          "internalType": "address",
          "name": "_spender",
          "type": "address"
        }
      ],
      "name": "allowance",
      "outputs": [
        {
          "internalType": "uint256",
          "name": "",
          "type": "uint256"
        }
      ],
      "stateMutability": "view",
      "type": "function"
    },
    {
      "inputs": [
        {
          "internalType": "address",
          "name": "_spender",
          "type": "address"
        },
        {
          "internalType": "uint256",
          "name": "_value",
          "type": "uint256"
        }
      ],
      "name": "approve",
      "outputs": [
        {
          "internalType": "bool",
          "name": "",
          "type": "bool"
        }
      ],
      "stateMutability": "nonpayable",
      "type": "function"
    },
    {
      "inputs": [
        {
          "internalType": "address",
          "name": "_account",
          "type": "address"
        }
      ],
      "name": "balanceOf",
      "outputs": [
        {
          "internalType": "uint256",
          "name": "",
          "type": "uint256"
        }
      ],
      "stateMutability": "view",
      "type": "function"
    },
    {
      "inputs": [
        {
          "internalType": "address",
          "name": "account",
          "type": "address"
        },
        {
          "internalType": "uint256",
          "name": "amount",
          "type": "uint256"
        }
      ],
      "name": "burn",
      "outputs": [],
      "stateMutability": "nonpayable",
      "type": "function"
    },
    {
      "inputs": [
        {
          "internalType": "uint256",
          "name": "_newTotalSupply",
          "type": "uint256"
        }
      ],
      "name": "changeSupply",
      "outputs": [
        {
          "components": [
            {
              "internalType": "address",
              "name": "pool",
              "type": "address"
            },
            {
              "internalType": "uint256",
              "name": "amount",
              "type": "uint256"
            },
            {
              "internalType": "uint256[10]",
              "name": "__gap",
              "type": "uint256[10]"
            }
          ],
          "internalType": "struct NonRebaseInfo[]",
          "name": "",
          "type": "tuple[]"
        },
        {
          "internalType": "uint256",
          "name": "",
          "type": "uint256"
        }
      ],
      "stateMutability": "nonpayable",
      "type": "function"
    },
    {
      "inputs": [
        {
          "internalType": "address",
          "name": "_account",
          "type": "address"
        }
      ],
      "name": "creditsBalanceOf",
      "outputs": [
        {
          "internalType": "uint256",
          "name": "",
          "type": "uint256"
        },
        {
          "internalType": "uint256",
          "name": "",
          "type": "uint256"
        }
      ],
      "stateMutability": "view",
      "type": "function"
    },
    {
      "inputs": [
        {
          "internalType": "address",
          "name": "_account",
          "type": "address"
        }
      ],
      "name": "creditsBalanceOfHighres",
      "outputs": [
        {
          "internalType": "uint256",
          "name": "",
          "type": "uint256"
        },
        {
          "internalType": "uint256",
          "name": "",
          "type": "uint256"
        }
      ],
      "stateMutability": "view",
      "type": "function"
    },
    {
      "inputs": [],
      "name": "decimals",
      "outputs": [
        {
          "internalType": "uint8",
          "name": "",
          "type": "uint8"
        }
      ],
      "stateMutability": "view",
      "type": "function"
    },
    {
      "inputs": [
        {
          "internalType": "address",
          "name": "_spender",
          "type": "address"
        },
        {
          "internalType": "uint256",
          "name": "_subtractedValue",
          "type": "uint256"
        }
      ],
      "name": "decreaseAllowance",
      "outputs": [
        {
          "internalType": "bool",
          "name": "",
          "type": "bool"
        }
      ],
      "stateMutability": "nonpayable",
      "type": "function"
    },
    {
      "inputs": [],
      "name": "exchange",
      "outputs": [
        {
          "internalType": "address",
          "name": "",
          "type": "address"
        }
      ],
      "stateMutability": "view",
      "type": "function"
    },
    {
      "inputs": [
        {
          "internalType": "bytes32",
          "name": "role",
          "type": "bytes32"
        }
      ],
      "name": "getRoleAdmin",
      "outputs": [
        {
          "internalType": "bytes32",
          "name": "",
          "type": "bytes32"
        }
      ],
      "stateMutability": "view",
      "type": "function"
    },
    {
      "inputs": [
        {
          "internalType": "bytes32",
          "name": "role",
          "type": "bytes32"
        },
        {
          "internalType": "address",
          "name": "account",
          "type": "address"
        }
      ],
      "name": "grantRole",
      "outputs": [],
      "stateMutability": "nonpayable",
      "type": "function"
    },
    {
      "inputs": [
        {
          "internalType": "bytes32",
          "name": "role",
          "type": "bytes32"
        },
        {
          "internalType": "address",
          "name": "account",
          "type": "address"
        }
      ],
      "name": "hasRole",
      "outputs": [
        {
          "internalType": "bool",
          "name": "",
          "type": "bool"
        }
      ],
      "stateMutability": "view",
      "type": "function"
    },
    {
      "inputs": [
        {
          "internalType": "address",
          "name": "_spender",
          "type": "address"
        },
        {
          "internalType": "uint256",
          "name": "_addedValue",
          "type": "uint256"
        }
      ],
      "name": "increaseAllowance",
      "outputs": [
        {
          "internalType": "bool",
          "name": "",
          "type": "bool"
        }
      ],
      "stateMutability": "nonpayable",
      "type": "function"
    },
    {
      "inputs": [
        {
          "internalType": "string",
          "name": "name",
          "type": "string"
        },
        {
          "internalType": "string",
          "name": "symbol",
          "type": "string"
        },
        {
          "internalType": "uint8",
          "name": "decimals",
          "type": "uint8"
        }
      ],
      "name": "initialize",
      "outputs": [],
      "stateMutability": "nonpayable",
      "type": "function"
    },
    {
      "inputs": [
        {
          "internalType": "address",
          "name": "_account",
          "type": "address"
        },
        {
          "internalType": "uint256",
          "name": "_amount",
          "type": "uint256"
        }
      ],
      "name": "mint",
      "outputs": [],
      "stateMutability": "nonpayable",
      "type": "function"
    },
    {
      "inputs": [],
      "name": "name",
      "outputs": [
        {
          "internalType": "string",
          "name": "",
          "type": "string"
        }
      ],
      "stateMutability": "view",
      "type": "function"
    },
    {
      "inputs": [
        {
          "internalType": "address",
          "name": "",
          "type": "address"
        }
      ],
      "name": "nonRebasingCreditsPerToken",
      "outputs": [
        {
          "internalType": "uint256",
          "name": "",
          "type": "uint256"
        }
      ],
      "stateMutability": "view",
      "type": "function"
    },
    {
      "inputs": [],
      "name": "nonRebasingSupply",
      "outputs": [
        {
          "internalType": "uint256",
          "name": "",
          "type": "uint256"
        }
      ],
      "stateMutability": "view",
      "type": "function"
    },
    {
      "inputs": [
        {
          "internalType": "uint256",
          "name": "index",
          "type": "uint256"
        }
      ],
      "name": "ownerAt",
      "outputs": [
        {
          "internalType": "address",
          "name": "",
          "type": "address"
        }
      ],
      "stateMutability": "view",
      "type": "function"
    },
    {
      "inputs": [
        {
          "internalType": "uint256",
          "name": "index",
          "type": "uint256"
        }
      ],
      "name": "ownerBalanceAt",
      "outputs": [
        {
          "internalType": "uint256",
          "name": "",
          "type": "uint256"
        }
      ],
      "stateMutability": "view",
      "type": "function"
    },
    {
      "inputs": [],
      "name": "ownerLength",
      "outputs": [
        {
          "internalType": "uint256",
          "name": "",
          "type": "uint256"
        }
      ],
      "stateMutability": "view",
      "type": "function"
    },
    {
      "inputs": [],
      "name": "pause",
      "outputs": [],
      "stateMutability": "nonpayable",
      "type": "function"
    },
    {
      "inputs": [],
      "name": "paused",
      "outputs": [
        {
          "internalType": "bool",
          "name": "",
          "type": "bool"
        }
      ],
      "stateMutability": "view",
      "type": "function"
    },
    {
      "inputs": [],
      "name": "payoutManager",
      "outputs": [
        {
          "internalType": "address",
          "name": "",
          "type": "address"
        }
      ],
      "stateMutability": "view",
      "type": "function"
    },
    {
      "inputs": [],
      "name": "proxiableUUID",
      "outputs": [
        {
          "internalType": "bytes32",
          "name": "",
          "type": "bytes32"
        }
      ],
      "stateMutability": "view",
      "type": "function"
    },
    {
      "inputs": [
        {
          "internalType": "address",
          "name": "_address",
          "type": "address"
        }
      ],
      "name": "rebaseOptIn",
      "outputs": [],
      "stateMutability": "nonpayable",
      "type": "function"
    },
    {
      "inputs": [
        {
          "internalType": "address",
          "name": "_address",
          "type": "address"
        }
      ],
      "name": "rebaseOptOut",
      "outputs": [],
      "stateMutability": "nonpayable",
      "type": "function"
    },
    {
      "inputs": [
        {
          "internalType": "address",
          "name": "",
          "type": "address"
        }
      ],
      "name": "rebaseState",
      "outputs": [
        {
          "internalType": "enum UsdPlusToken.RebaseOptions",
          "name": "",
          "type": "uint8"
        }
      ],
      "stateMutability": "view",
      "type": "function"
    },
    {
      "inputs": [],
      "name": "rebasingCredits",
      "outputs": [
        {
          "internalType": "uint256",
          "name": "",
          "type": "uint256"
        }
      ],
      "stateMutability": "view",
      "type": "function"
    },
    {
      "inputs": [],
      "name": "rebasingCreditsHighres",
      "outputs": [
        {
          "internalType": "uint256",
          "name": "",
          "type": "uint256"
        }
      ],
      "stateMutability": "view",
      "type": "function"
    },
    {
      "inputs": [],
      "name": "rebasingCreditsPerToken",
      "outputs": [
        {
          "internalType": "uint256",
          "name": "",
          "type": "uint256"
        }
      ],
      "stateMutability": "view",
      "type": "function"
    },
    {
      "inputs": [],
      "name": "rebasingCreditsPerTokenHighres",
      "outputs": [
        {
          "internalType": "uint256",
          "name": "",
          "type": "uint256"
        }
      ],
      "stateMutability": "view",
      "type": "function"
    },
    {
      "inputs": [
        {
          "internalType": "bytes32",
          "name": "role",
          "type": "bytes32"
        },
        {
          "internalType": "address",
          "name": "account",
          "type": "address"
        }
      ],
      "name": "renounceRole",
      "outputs": [],
      "stateMutability": "nonpayable",
      "type": "function"
    },
    {
      "inputs": [
        {
          "internalType": "bytes32",
          "name": "role",
          "type": "bytes32"
        },
        {
          "internalType": "address",
          "name": "account",
          "type": "address"
        }
      ],
      "name": "revokeRole",
      "outputs": [],
      "stateMutability": "nonpayable",
      "type": "function"
    },
    {
      "inputs": [],
      "name": "roleManager",
      "outputs": [
        {
          "internalType": "contract IRoleManager",
          "name": "",
          "type": "address"
        }
      ],
      "stateMutability": "view",
      "type": "function"
    },
    {
      "inputs": [
        {
          "internalType": "address",
          "name": "_exchanger",
          "type": "address"
        }
      ],
      "name": "setExchanger",
      "outputs": [],
      "stateMutability": "nonpayable",
      "type": "function"
    },
    {
      "inputs": [
        {
          "internalType": "address",
          "name": "_payoutManager",
          "type": "address"
        }
      ],
      "name": "setPayoutManager",
      "outputs": [],
      "stateMutability": "nonpayable",
      "type": "function"
    },
    {
      "inputs": [
        {
          "internalType": "address",
          "name": "_roleManager",
          "type": "address"
        }
      ],
      "name": "setRoleManager",
      "outputs": [],
      "stateMutability": "nonpayable",
      "type": "function"
    },
    {
      "inputs": [
        {
          "internalType": "bytes4",
          "name": "interfaceId",
          "type": "bytes4"
        }
      ],
      "name": "supportsInterface",
      "outputs": [
        {
          "internalType": "bool",
          "name": "",
          "type": "bool"
        }
      ],
      "stateMutability": "view",
      "type": "function"
    },
    {
      "inputs": [],
      "name": "symbol",
      "outputs": [
        {
          "internalType": "string",
          "name": "",
          "type": "string"
        }
      ],
      "stateMutability": "view",
      "type": "function"
    },
    {
      "inputs": [],
      "name": "totalSupply",
      "outputs": [
        {
          "internalType": "uint256",
          "name": "",
          "type": "uint256"
        }
      ],
      "stateMutability": "view",
      "type": "function"
    },
    {
      "inputs": [],
      "name": "totalSupplyOwners",
      "outputs": [
        {
          "internalType": "uint256",
          "name": "",
          "type": "uint256"
        }
      ],
      "stateMutability": "view",
      "type": "function"
    },
    {
      "inputs": [
        {
          "internalType": "address",
          "name": "_to",
          "type": "address"
        },
        {
          "internalType": "uint256",
          "name": "_value",
          "type": "uint256"
        }
      ],
      "name": "transfer",
      "outputs": [
        {
          "internalType": "bool",
          "name": "",
          "type": "bool"
        }
      ],
      "stateMutability": "nonpayable",
      "type": "function"
    },
    {
      "inputs": [
        {
          "internalType": "address",
          "name": "_from",
          "type": "address"
        },
        {
          "internalType": "address",
          "name": "_to",
          "type": "address"
        },
        {
          "internalType": "uint256",
          "name": "_value",
          "type": "uint256"
        }
      ],
      "name": "transferFrom",
      "outputs": [
        {
          "internalType": "bool",
          "name": "",
          "type": "bool"
        }
      ],
      "stateMutability": "nonpayable",
      "type": "function"
    },
    {
      "inputs": [],
      "name": "unpause",
      "outputs": [],
      "stateMutability": "nonpayable",
      "type": "function"
    },
    {
      "inputs": [
        {
          "internalType": "address",
          "name": "newImplementation",
          "type": "address"
        }
      ],
      "name": "upgradeTo",
      "outputs": [],
      "stateMutability": "nonpayable",
      "type": "function"
    },
    {
      "inputs": [
        {
          "internalType": "address",
          "name": "newImplementation",
          "type": "address"
        },
        {
          "internalType": "bytes",
          "name": "data",
          "type": "bytes"
        }
      ],
      "name": "upgradeToAndCall",
      "outputs": [],
      "stateMutability": "payable",
      "type": "function"
    }
  ],
  "numDeployments": 2,
  "solcInputHash": "4119948cb9aef218bf8a55cd453edf66",
  "bytecode": "0x60a0604052306080523480156200001557600080fd5b50600054610100900460ff1615808015620000375750600054600160ff909116105b8062000067575062000054306200014160201b620022b21760201c565b15801562000067575060005460ff166001145b620000cf5760405162461bcd60e51b815260206004820152602e60248201527f496e697469616c697a61626c653a20636f6e747261637420697320616c72656160448201526d191e481a5b9a5d1a585b1a5e995960921b606482015260840160405180910390fd5b6000805460ff191660011790558015620000f3576000805461ff0019166101001790555b80156200013a576000805461ff0019169055604051600181527f7f26b83ff96e1f2b6a682f133852f6798a09c465da95921460cefb38474024989060200160405180910390a15b5062000150565b6001600160a01b03163b151590565b608051613b626200018860003960008181610e8f01528181610ecf01528181611586015281816115c601526116550152613b626000f3fe6080604052600436106102c75760003560e01c80635d90737911610175578063a217fddf116100dc578063da909b0911610095578063e62603071161006f578063e6260307146108e6578063e696393a14610906578063f1d588c51461091d578063f9854bfc1461093d57600080fd5b8063da909b091461084a578063dd62ed3e1461086a578063e5c4fffe146108b157600080fd5b8063a217fddf14610794578063a457c2d7146107a9578063a9059cbb146107c9578063ce6df7be146107e9578063d2f7265a14610809578063d547741f1461082a57600080fd5b80637a46a9c51161012e5780637a46a9c5146106fe5780637d0d66ff146107145780638456cb591461072a57806391d148541461073f57806395d89b411461075f5780639dc29fac1461077457600080fd5b80635d907379146106275780635dbd733a14610647578063609350cd1461067b5780636691cb3d146106a957806370a08231146106be5780637181896f146106de57600080fd5b80633083a8e3116102345780633f4ba83a116101ed5780634f1ef286116101c75780634f1ef286146105cf57806352d1902d146105e257806356b7cb31146105f75780635c975abb1461060c57600080fd5b80633f4ba83a1461055c57806340c10f1914610571578063456ee2861461059157600080fd5b80633083a8e314610480578063313ce567146104a157806336568abe146104ce5780633659cfe6146104ee578063395093511461050e57806339a7919f1461052e57600080fd5b80631624f6c6116102865780631624f6c6146103b957806318160ddd146103db57806323b872dd146103f05780632435987914610410578063248a9ca3146104305780632f2ff15d1461046057600080fd5b8062366088146102cc578062435da5146102f457806301ffc9a71461033257806306fdde0314610362578063077f22b714610384578063095ea7b314610399575b600080fd5b3480156102d857600080fd5b506102e161095d565b6040519081526020015b60405180910390f35b34801561030057600080fd5b5061010f5461031a9061010090046001600160a01b031681565b6040516001600160a01b0390911681526020016102eb565b34801561033e57600080fd5b5061035261034d366004613298565b61096f565b60405190151581526020016102eb565b34801561036e57600080fd5b506103776109a6565b6040516102eb91906132e6565b34801561039057600080fd5b506102e1610a38565b3480156103a557600080fd5b506103526103b4366004613330565b610a4d565b3480156103c557600080fd5b506103d96103d43660046133a3565b610ae3565b005b3480156103e757600080fd5b5060fd546102e1565b3480156103fc57600080fd5b5061035261040b36600461342d565b610c5a565b34801561041c57600080fd5b5061031a61042b366004613469565b610dcf565b34801561043c57600080fd5b506102e161044b366004613469565b60009081526065602052604090206001015490565b34801561046c57600080fd5b506103d961047b366004613482565b610ddd565b34801561048c57600080fd5b506101085461031a906001600160a01b031681565b3480156104ad57600080fd5b5061010754600160a01b900460ff1660405160ff90911681526020016102eb565b3480156104da57600080fd5b506103d96104e9366004613482565b610e07565b3480156104fa57600080fd5b506103d96105093660046134ae565b610e85565b34801561051a57600080fd5b50610352610529366004613330565b610f64565b34801561053a57600080fd5b5061054e610549366004613469565b611012565b6040516102eb9291906134c9565b34801561056857600080fd5b506103d9611423565b34801561057d57600080fd5b506103d961058c366004613330565b611523565b34801561059d57600080fd5b506105c26105ac3660046134ae565b61010a6020526000908152604090205460ff1681565b6040516102eb919061356a565b6103d96105dd3660046135a8565b61157c565b3480156105ee57600080fd5b506102e1611648565b34801561060357600080fd5b506102e16116fb565b34801561061857600080fd5b5061010f546103529060ff1681565b34801561063357600080fd5b506103d96106423660046134ae565b61180c565b34801561065357600080fd5b506102e17fd67ad422505496469a1adf6cdf9e5ee92ac5d33992843c9ecc4b2f6d6cde913781565b34801561068757600080fd5b506102e16106963660046134ae565b6101096020526000908152604090205481565b3480156106b557600080fd5b506102e16119d0565b3480156106ca57600080fd5b506102e16106d93660046134ae565b6119e5565b3480156106ea57600080fd5b506103d96106f93660046134ae565b611a37565b34801561070a57600080fd5b50610101546102e1565b34801561072057600080fd5b50610100546102e1565b34801561073657600080fd5b506103d9611b04565b34801561074b57600080fd5b5061035261075a366004613482565b611c07565b34801561076b57600080fd5b50610377611c32565b34801561078057600080fd5b506103d961078f366004613330565b611c41565b3480156107a057600080fd5b506102e1600081565b3480156107b557600080fd5b506103526107c4366004613330565b611c9a565b3480156107d557600080fd5b506103526107e4366004613330565b611dac565b3480156107f557600080fd5b506102e1610804366004613469565b611eb2565b34801561081557600080fd5b506101075461031a906001600160a01b031681565b34801561083657600080fd5b506103d9610845366004613482565b611ec3565b34801561085657600080fd5b506103d96108653660046134ae565b611ee8565b34801561087657600080fd5b506102e161088536600461366a565b6001600160a01b03918216600090815261010d6020908152604080832093909416825291909152205490565b3480156108bd57600080fd5b506108d16108cc3660046134ae565b611fa9565b604080519283526020830191909152016102eb565b3480156108f257600080fd5b506103d96109013660046134ae565b611fd6565b34801561091257600080fd5b506102e16101025481565b34801561092957600080fd5b506103d96109383660046134ae565b612163565b34801561094957600080fd5b506108d16109583660046134ae565b61222f565b600061096a6101056122c1565b905090565b60006001600160e01b03198216637965db0b60e01b14806109a057506301ffc9a760e01b6001600160e01b03198316145b92915050565b606060fe80546109b590613694565b80601f01602080910402602001604051908101604052809291908181526020018280546109e190613694565b8015610a2e5780601f10610a0357610100808354040283529160200191610a2e565b820191906000526020600020905b815481529060010190602001808311610a1157829003601f168201915b5050505050905090565b6000633b9aca006101005461096a91906136e4565b61010f5460009060ff1615610a7d5760405162461bcd60e51b8152600401610a7490613706565b60405180910390fd5b33600081815261010d602090815260408083206001600160a01b03881680855290835292819020869055518581529192917f8c5be1e5ebec7d5bd14f71427d1e84f3dd0314c0f7b2291e5b200ac8c7c3b92591015b60405180910390a350600192915050565b600054610100900460ff1615808015610b035750600054600160ff909116105b80610b1d5750303b158015610b1d575060005460ff166001145b610b805760405162461bcd60e51b815260206004820152602e60248201527f496e697469616c697a61626c653a20636f6e747261637420697320616c72656160448201526d191e481a5b9a5d1a585b1a5e995960921b6064820152608401610a74565b6000805460ff191660011790558015610ba3576000805461ff0019166101001790555b610bab6122cb565b60fe610bb886888361376b565b5060ff610bc684868361376b565b50610bcf6122cb565b610bd76122cb565b610be2600033612338565b610107805460ff60a01b1916600160a01b60ff8516021790556b033b2e3c9fd0803ce8000000610101558015610c52576000805461ff0019169055604051600181527f7f26b83ff96e1f2b6a682f133852f6798a09c465da95921460cefb38474024989060200160405180910390a15b505050505050565b61010f5460009060ff1615610c815760405162461bcd60e51b8152600401610a7490613706565b6001600160a01b038316610cd25760405162461bcd60e51b81526020600482015260186024820152775472616e7366657220746f207a65726f206164647265737360401b6044820152606401610a74565b610cdb846119e5565b821115610d2a5760405162461bcd60e51b815260206004820152601d60248201527f5472616e736665722067726561746572207468616e2062616c616e63650000006044820152606401610a74565b6001600160a01b038416600090815261010d60209081526040808320338452909152902054610d5990836123be565b6001600160a01b038516600090815261010d60209081526040808320338452909152902055610d898484846123ca565b826001600160a01b0316846001600160a01b0316600080516020613b0d83398151915284604051610dbc91815260200190565b60405180910390a35060015b9392505050565b60006109a06101058361254b565b600082815260656020526040902060010154610df881612557565b610e028383612338565b505050565b6001600160a01b0381163314610e775760405162461bcd60e51b815260206004820152602f60248201527f416363657373436f6e74726f6c3a2063616e206f6e6c792072656e6f756e636560448201526e103937b632b9903337b91039b2b63360891b6064820152608401610a74565b610e818282612561565b5050565b6001600160a01b037f0000000000000000000000000000000000000000000000000000000000000000163003610ecd5760405162461bcd60e51b8152600401610a749061382c565b7f00000000000000000000000000000000000000000000000000000000000000006001600160a01b0316610f16600080516020613ac6833981519152546001600160a01b031690565b6001600160a01b031614610f3c5760405162461bcd60e51b8152600401610a7490613878565b610f45816125c8565b60408051600080825260208201909252610f61918391906125d3565b50565b61010f5460009060ff1615610f8b5760405162461bcd60e51b8152600401610a7490613706565b33600090815261010d602090815260408083206001600160a01b0387168452909152902054610fba908361273e565b33600081815261010d602090815260408083206001600160a01b038916808552908352928190208590555193845290927f8c5be1e5ebec7d5bd14f71427d1e84f3dd0314c0f7b2291e5b200ac8c7c3b9259101610ad2565b610107546060906000906001600160a01b031633146110435760405162461bcd60e51b8152600401610a74906138c4565b600261010e54036110665760405162461bcd60e51b8152600401610a74906138fb565b600261010e5561010f5460ff16156110905760405162461bcd60e51b8152600401610a7490613706565b600060fd54116110e25760405162461bcd60e51b815260206004820152601860248201527f43616e6e6f7420696e637265617365203020737570706c7900000000000000006044820152606401610a74565b8260fd54036111715760fd54610100546101015460408051938452602084019290925282820152517f41645eb819d3011b13f97696a8109d14bfcddfaca7d063ec0564d62a3e2572359181900360600190a16040805160008082526020820190925290611165565b611152613255565b81526020019060019003908161114a5790505b50600091509150611416565b600060fd54846111819190613932565b9050600060fd5461010254836111979190613945565b6111a191906136e4565b905060006111af8284613932565b90506000198160fd546111c2919061395c565b116111da578060fd546111d5919061395c565b6111de565b6000195b60fd819055610102546111f191906123be565b156112205761121b6112116101025460fd546123be90919063ffffffff16565b610100549061274a565b610101555b600061010154116112735760405162461bcd60e51b815260206004820152601860248201527f496e76616c6964206368616e676520696e20737570706c7900000000000000006044820152606401610a74565b61129961010254611293610101546101005461274a90919063ffffffff16565b9061273e565b60fd5560006112a961010b6122c1565b67ffffffffffffffff8111156112c1576112c1613592565b6040519080825280602002602001820160405280156112fa57816020015b6112e7613255565b8152602001906001900390816112df5790505b50905060005b81518110156113c457600061131761010b8361254b565b90506000611324826119e5565b905060006101025460000361133a576000611352565b610102546113488884613945565b61135291906136e4565b9050828585815181106113675761136761396f565b6020026020010151600001906001600160a01b031690816001600160a01b0316815250508085858151811061139e5761139e61396f565b6020026020010151602001818152505050505080806113bc90613985565b915050611300565b5060fd54610100546101015460408051938452602084019290925282820152517f41645eb819d3011b13f97696a8109d14bfcddfaca7d063ec0564d62a3e2572359181900360600190a1945090925050505b600161010e559092909150565b61010f5461010090046001600160a01b03166391d148547fd67ad422505496469a1adf6cdf9e5ee92ac5d33992843c9ecc4b2f6d6cde9137336040516001600160e01b031960e085901b16815260048101929092526001600160a01b03166024820152604401602060405180830381865afa1580156114a6573d6000803e3d6000fd5b505050506040513d601f19601f820116820180604052508101906114ca919061399e565b6115165760405162461bcd60e51b815260206004820152601d60248201527f5265737472696374656420746f20506f7274666f6c696f204167656e740000006044820152606401610a74565b61010f805460ff19169055565b61010f5460ff16156115475760405162461bcd60e51b8152600401610a7490613706565b610107546001600160a01b031633146115725760405162461bcd60e51b8152600401610a74906138c4565b610e818282612773565b6001600160a01b037f00000000000000000000000000000000000000000000000000000000000000001630036115c45760405162461bcd60e51b8152600401610a749061382c565b7f00000000000000000000000000000000000000000000000000000000000000006001600160a01b031661160d600080516020613ac6833981519152546001600160a01b031690565b6001600160a01b0316146116335760405162461bcd60e51b8152600401610a7490613878565b61163c826125c8565b610e81828260016125d3565b6000306001600160a01b037f000000000000000000000000000000000000000000000000000000000000000016146116e85760405162461bcd60e51b815260206004820152603860248201527f555550535570677261646561626c653a206d757374206e6f742062652063616c60448201527f6c6564207468726f7567682064656c656761746563616c6c00000000000000006064820152608401610a74565b50600080516020613ac683398151915290565b600080306001600160a01b0316623660886040518163ffffffff1660e01b8152600401602060405180830381865afa15801561173b573d6000803e3d6000fd5b505050506040513d601f19601f8201168201806040525081019061175f91906139c0565b90506000805b8281101561180557306370a0823161177f6101058461254b565b6040516001600160e01b031960e084901b1681526001600160a01b039091166004820152602401602060405180830381865afa1580156117c3573d6000803e3d6000fd5b505050506040513d601f19601f820116820180604052508101906117e791906139c0565b6117f1908361395c565b9150806117fd81613985565b915050611765565b5092915050565b610108546001600160a01b031633146118675760405162461bcd60e51b815260206004820181905260248201527f43616c6c6572206973206e6f7420746865205041594f55545f4d414e414745526044820152606401610a74565b61010f5460ff161561188b5760405162461bcd60e51b8152600401610a7490613706565b600261010e54036118ae5760405162461bcd60e51b8152600401610a74906138fb565b600261010e556118bd81612919565b6119095760405162461bcd60e51b815260206004820152601960248201527f4163636f756e7420686173206e6f74206f70746564206f7574000000000000006044820152606401610a74565b600061194361191783612952565b610101546001600160a01b038516600090815260fb602052604090205461193d9161299c565b906129a8565b905061195b611951836119e5565b61010254906123be565b610102556001600160a01b038216600090815260fb6020526040902081905561010054611988908261273e565b610100556001600160a01b038216600090815261010a60209081526040808320805460ff191690556101099091528120556119c561010b836129b4565b5050600161010e5550565b6000633b9aca006101015461096a91906136e4565b6001600160a01b038116600090815260fb60205260408120548103611a0c57506000919050565b6109a0611a1883612952565b6001600160a01b038416600090815260fb60205260409020549061274a565b611a42600033611c07565b611a5e5760405162461bcd60e51b8152600401610a74906139d9565b306001600160a01b03821603611aae5760405162461bcd60e51b81526020600482015260156024820152747061796f75744d616e61676572206973207a65726f60581b6044820152606401610a74565b61010880546001600160a01b0319166001600160a01b0383169081179091556040519081527f8e0ccc7f4e6827cf2d4ab435db02892d906e1e85ddc84fd35945393baad24cef906020015b60405180910390a150565b61010f5461010090046001600160a01b03166391d148547fd67ad422505496469a1adf6cdf9e5ee92ac5d33992843c9ecc4b2f6d6cde9137336040516001600160e01b031960e085901b16815260048101929092526001600160a01b03166024820152604401602060405180830381865afa158015611b87573d6000803e3d6000fd5b505050506040513d601f19601f82011682018060405250810190611bab919061399e565b611bf75760405162461bcd60e51b815260206004820152601d60248201527f5265737472696374656420746f20506f7274666f6c696f204167656e740000006044820152606401610a74565b61010f805460ff19166001179055565b60009182526065602090815260408084206001600160a01b0393909316845291905290205460ff1690565b606060ff80546109b590613694565b61010f5460ff1615611c655760405162461bcd60e51b8152600401610a7490613706565b610107546001600160a01b03163314611c905760405162461bcd60e51b8152600401610a74906138c4565b610e8182826129c9565b61010f5460009060ff1615611cc15760405162461bcd60e51b8152600401610a7490613706565b33600090815261010d602090815260408083206001600160a01b0387168452909152902054808310611d175733600090815261010d602090815260408083206001600160a01b0388168452909152812055611d47565b611d2181846123be565b33600090815261010d602090815260408083206001600160a01b03891684529091529020555b33600081815261010d602090815260408083206001600160a01b038916808552908352928190205490519081529192917f8c5be1e5ebec7d5bd14f71427d1e84f3dd0314c0f7b2291e5b200ac8c7c3b925910160405180910390a35060019392505050565b61010f5460009060ff1615611dd35760405162461bcd60e51b8152600401610a7490613706565b6001600160a01b038316611e245760405162461bcd60e51b81526020600482015260186024820152775472616e7366657220746f207a65726f206164647265737360401b6044820152606401610a74565b611e2d336119e5565b821115611e7c5760405162461bcd60e51b815260206004820152601d60248201527f5472616e736665722067726561746572207468616e2062616c616e63650000006044820152606401610a74565b611e873384846123ca565b6040518281526001600160a01b038416903390600080516020613b0d83398151915290602001610ad2565b60006109a06106d96101058461254b565b600082815260656020526040902060010154611ede81612557565b610e028383612561565b611ef3600033611c07565b611f0f5760405162461bcd60e51b8152600401610a74906139d9565b306001600160a01b03821603611f5a5760405162461bcd60e51b815260206004820152601060248201526f65786368616e6765206973207a65726f60801b6044820152606401610a74565b61010780546001600160a01b0319166001600160a01b0383169081179091556040519081527f1af34e943bb581f62718acd39caf1a640e9ff89789a197745e259d1f40cd9bd690602001611af9565b6001600160a01b038116600090815260fb60205260408120548190611fcd84612952565b91509150915091565b610108546001600160a01b031633146120315760405162461bcd60e51b815260206004820181905260248201527f43616c6c6572206973206e6f7420746865205041594f55545f4d414e414745526044820152606401610a74565b61010f5460ff16156120555760405162461bcd60e51b8152600401610a7490613706565b600261010e54036120785760405162461bcd60e51b8152600401610a74906138fb565b600261010e5561208781612919565b156120d45760405162461bcd60e51b815260206004820152601860248201527f4163636f756e7420686173206e6f74206f7074656420696e00000000000000006044820152606401610a74565b6120ea6120e0826119e5565b610102549061273e565b61010255610101546001600160a01b0382166000908152610109602090815260408083209390935560fb9052205461010054612125916123be565b610100556001600160a01b038116600090815261010a60205260409020805460ff1916600117905561215961010b82612bd1565b5050600161010e55565b61216e600033611c07565b61218a5760405162461bcd60e51b8152600401610a74906139d9565b306001600160a01b038216036121d85760405162461bcd60e51b8152602060048201526013602482015272726f6c654d616e61676572206973207a65726f60681b6044820152606401610a74565b61010f8054610100600160a81b0319166101006001600160a01b038416908102919091179091556040519081527f5a7ef52f6714a981ffe676ce3c4a14db59929bd3f8ca82bb6cf9e230fa8a50c990602001611af9565b600080600061223d84612952565b9050806b033b2e3c9fd0803ce800000003612272576001600160a01b03909316600090815260fb602052604090205493915050565b6001600160a01b038416600090815260fb602052604090205461229a90633b9aca00906136e4565b6122a8633b9aca00836136e4565b9250925050915091565b6001600160a01b03163b151590565b60006109a0825490565b600054610100900460ff166123365760405162461bcd60e51b815260206004820152602b60248201527f496e697469616c697a61626c653a20636f6e7472616374206973206e6f74206960448201526a6e697469616c697a696e6760a81b6064820152608401610a74565b565b6123428282611c07565b610e815760008281526065602090815260408083206001600160a01b03851684529091529020805460ff1916600117905561237a3390565b6001600160a01b0316816001600160a01b0316837f2f8788117e7eff1d82e926ec794901d17c78024a50270940304540a733656f0d60405160405180910390a45050565b6000610dc88284613932565b60006123d583612919565b905060006123e285612919565b905060006123f96123f286612952565b8590612be6565b9050600061241061240988612952565b8690612be6565b9050612481816040518060400160405280601f81526020017f5472616e7366657220616d6f756e7420657863656564732062616c616e63650081525060fb60008b6001600160a01b03166001600160a01b0316815260200190815260200160002054612bfb9092919063ffffffff16565b6001600160a01b03808916600090815260fb602052604080822093909355908816815220546124b0908361273e565b6001600160a01b038716600090815260fb60205260409020558380156124d4575082155b1561250257610102546124e7908661273e565b61010255610100546124f990826123be565b61010055612537565b8315801561250d5750825b15612537576101025461252090866123be565b6101025561010054612532908361273e565b610100555b612542878787612c27565b50505050505050565b6000610dc88383612c9b565b610f618133612cc5565b61256b8282611c07565b15610e815760008281526065602090815260408083206001600160a01b0385168085529252808320805460ff1916905551339285917ff6391f5c32d9c69d2a47ea670b442974b53935d1edc7fd64eb21e047a839171b9190a45050565b6000610e8181612557565b7f4910fdfa16fed3260ed0e7147f7cc6da11a60208b5b9406d12a635614ffd91435460ff161561260657610e0283612d1e565b826001600160a01b03166352d1902d6040518163ffffffff1660e01b8152600401602060405180830381865afa925050508015612660575060408051601f3d908101601f1916820190925261265d918101906139c0565b60015b6126c35760405162461bcd60e51b815260206004820152602e60248201527f45524331393637557067726164653a206e657720696d706c656d656e7461746960448201526d6f6e206973206e6f74205555505360901b6064820152608401610a74565b600080516020613ac683398151915281146127325760405162461bcd60e51b815260206004820152602960248201527f45524331393637557067726164653a20756e737570706f727465642070726f786044820152681a58589b195555525160ba1b6064820152608401610a74565b50610e02838383612dba565b6000610dc8828461395c565b60008061275f84670de0b6b3a764000061299c565b905061276b81846129a8565b949350505050565b600261010e54036127965760405162461bcd60e51b8152600401610a74906138fb565b600261010e556001600160a01b0382166127f25760405162461bcd60e51b815260206004820152601860248201527f4d696e7420746f20746865207a65726f206164647265737300000000000000006044820152606401610a74565b60006127fd83612919565b9050600061281461280d85612952565b8490612be6565b6001600160a01b038516600090815260fb602052604090205490915061283a908261273e565b6001600160a01b038516600090815260fb602052604090205581156128705761010254612867908461273e565b61010255612883565b6101005461287e908261273e565b610100555b60fd54612890908461273e565b60fd819055600019116128d25760405162461bcd60e51b815260206004820152600a6024820152694d617820737570706c7960b01b6044820152606401610a74565b6128de60008585612c27565b6040518381526001600160a01b03851690600090600080516020613b0d8339815191529060200160405180910390a35050600161010e555050565b600060016001600160a01b038316600090815261010a602052604090205460ff16600181111561294b5761294b613554565b1492915050565b6001600160a01b038116600090815261010960205260408120541561298e57506001600160a01b03166000908152610109602052604090205490565b50506101015490565b919050565b6000610dc88284613945565b6000610dc882846136e4565b6000610dc8836001600160a01b038416612ddf565b600261010e54036129ec5760405162461bcd60e51b8152600401610a74906138fb565b600261010e556001600160a01b038216612a485760405162461bcd60e51b815260206004820152601a60248201527f4275726e2066726f6d20746865207a65726f20616464726573730000000000006044820152606401610a74565b8015612159576000612a5983612919565b90506000612a6961280d85612952565b6001600160a01b038516600090815260fb602052604090205490915080821480612a9c575081612a9a600183613932565b145b15612abf576001600160a01b038516600090815260fb6020526040812055612b49565b81811115612b08576001600160a01b038516600090815260fb6020526040902054612aea90836123be565b6001600160a01b038616600090815260fb6020526040902055612b49565b60405162461bcd60e51b815260206004820152601660248201527552656d6f766520657863656564732062616c616e636560501b6044820152606401610a74565b8215612b665761010254612b5d90856123be565b61010255612b79565b61010054612b7490836123be565b610100555b60fd54612b8690856123be565b60fd55612b9560008686612c27565b6040518481526000906001600160a01b03871690600080516020613b0d8339815191529060200160405180910390a35050505050600161010e55565b6000610dc8836001600160a01b038416612ed2565b6000610dc88383670de0b6b3a7640000612f21565b60008184841115612c1f5760405162461bcd60e51b8152600401610a7491906132e6565b505050900390565b6001600160a01b038316612c4757612c4161010583612bd1565b50505050565b6001600160a01b038216612c7157612c5e836119e5565b600003610e0257612c41610105846129b4565b612c7a836119e5565b600003612c8f57612c8d610105846129b4565b505b612c4161010583612bd1565b6000826000018281548110612cb257612cb261396f565b9060005260206000200154905092915050565b612ccf8282611c07565b610e8157612cdc81612f43565b612ce7836020612f55565b604051602001612cf8929190613a07565b60408051601f198184030181529082905262461bcd60e51b8252610a74916004016132e6565b6001600160a01b0381163b612d8b5760405162461bcd60e51b815260206004820152602d60248201527f455243313936373a206e657720696d706c656d656e746174696f6e206973206e60448201526c1bdd08184818dbdb9d1c9858dd609a1b6064820152608401610a74565b600080516020613ac683398151915280546001600160a01b0319166001600160a01b0392909216919091179055565b612dc3836130f1565b600082511180612dd05750805b15610e0257612c418383613131565b60008181526001830160205260408120548015612ec8576000612e03600183613932565b8554909150600090612e1790600190613932565b9050818114612e7c576000866000018281548110612e3757612e3761396f565b9060005260206000200154905080876000018481548110612e5a57612e5a61396f565b6000918252602080832090910192909255918252600188019052604090208390555b8554869080612e8d57612e8d613a7c565b6001900381819060005260206000200160009055905585600101600086815260200190815260200160002060009055600193505050506109a0565b60009150506109a0565b6000818152600183016020526040812054612f19575081546001818101845560008481526020808220909301849055845484825282860190935260409020919091556109a0565b5060006109a0565b600080612f2e858561299c565b9050612f3a81846129a8565b95945050505050565b60606109a06001600160a01b03831660145b60606000612f64836002613945565b612f6f90600261395c565b67ffffffffffffffff811115612f8757612f87613592565b6040519080825280601f01601f191660200182016040528015612fb1576020820181803683370190505b509050600360fc1b81600081518110612fcc57612fcc61396f565b60200101906001600160f81b031916908160001a905350600f60fb1b81600181518110612ffb57612ffb61396f565b60200101906001600160f81b031916908160001a905350600061301f846002613945565b61302a90600161395c565b90505b60018111156130a2576f181899199a1a9b1b9c1cb0b131b232b360811b85600f166010811061305e5761305e61396f565b1a60f81b8282815181106130745761307461396f565b60200101906001600160f81b031916908160001a90535060049490941c9361309b81613a92565b905061302d565b508315610dc85760405162461bcd60e51b815260206004820181905260248201527f537472696e67733a20686578206c656e67746820696e73756666696369656e746044820152606401610a74565b6130fa81612d1e565b6040516001600160a01b038216907fbc7cd75a20ee27fd9adebab32041f755214dbc6bffa90cc0225b39da2e5c2d3b90600090a250565b60606001600160a01b0383163b6131995760405162461bcd60e51b815260206004820152602660248201527f416464726573733a2064656c65676174652063616c6c20746f206e6f6e2d636f6044820152651b9d1c9858dd60d21b6064820152608401610a74565b600080846001600160a01b0316846040516131b49190613aa9565b600060405180830381855af49150503d80600081146131ef576040519150601f19603f3d011682016040523d82523d6000602084013e6131f4565b606091505b5091509150612f3a8282604051806060016040528060278152602001613ae66027913960608315613226575081610dc8565b610dc8838381511561323b5781518083602001fd5b8060405162461bcd60e51b8152600401610a7491906132e6565b6040805160608101825260008082526020820152908101613274613279565b905290565b604051806101400160405280600a906020820280368337509192915050565b6000602082840312156132aa57600080fd5b81356001600160e01b031981168114610dc857600080fd5b60005b838110156132dd5781810151838201526020016132c5565b50506000910152565b60208152600082518060208401526133058160408501602087016132c2565b601f01601f19169190910160400192915050565b80356001600160a01b038116811461299757600080fd5b6000806040838503121561334357600080fd5b61334c83613319565b946020939093013593505050565b60008083601f84011261336c57600080fd5b50813567ffffffffffffffff81111561338457600080fd5b60208301915083602082850101111561339c57600080fd5b9250929050565b6000806000806000606086880312156133bb57600080fd5b853567ffffffffffffffff808211156133d357600080fd5b6133df89838a0161335a565b909750955060208801359150808211156133f857600080fd5b506134058882890161335a565b909450925050604086013560ff8116811461341f57600080fd5b809150509295509295909350565b60008060006060848603121561344257600080fd5b61344b84613319565b925061345960208501613319565b9150604084013590509250925092565b60006020828403121561347b57600080fd5b5035919050565b6000806040838503121561349557600080fd5b823591506134a560208401613319565b90509250929050565b6000602082840312156134c057600080fd5b610dc882613319565b6040808252835182820181905260009190602090606085019082880185805b8381101561354357825180516001600160a01b031686528681015187870152870151878601835b600a81101561352c5782518252918801919088019060010161350f565b5050506101809490940193918501916001016134e8565b505050509301939093525092915050565b634e487b7160e01b600052602160045260246000fd5b602081016002831061358c57634e487b7160e01b600052602160045260246000fd5b91905290565b634e487b7160e01b600052604160045260246000fd5b600080604083850312156135bb57600080fd5b6135c483613319565b9150602083013567ffffffffffffffff808211156135e157600080fd5b818501915085601f8301126135f557600080fd5b81358181111561360757613607613592565b604051601f8201601f19908116603f0116810190838211818310171561362f5761362f613592565b8160405282815288602084870101111561364857600080fd5b8260208601602083013760006020848301015280955050505050509250929050565b6000806040838503121561367d57600080fd5b61368683613319565b91506134a560208401613319565b600181811c908216806136a857607f821691505b6020821081036136c857634e487b7160e01b600052602260045260246000fd5b50919050565b634e487b7160e01b600052601160045260246000fd5b60008261370157634e487b7160e01b600052601260045260246000fd5b500490565b602080825260059082015264706175736560d81b604082015260600190565b601f821115610e0257600081815260208120601f850160051c8101602086101561374c5750805b601f850160051c820191505b81811015610c5257828155600101613758565b67ffffffffffffffff83111561378357613783613592565b613797836137918354613694565b83613725565b6000601f8411600181146137cb57600085156137b35750838201355b600019600387901b1c1916600186901b178355613825565b600083815260209020601f19861690835b828110156137fc57868501358255602094850194600190920191016137dc565b50868210156138195760001960f88860031b161c19848701351681555b505060018560011b0183555b5050505050565b6020808252602c908201527f46756e6374696f6e206d7573742062652063616c6c6564207468726f7567682060408201526b19195b1959d85d1958d85b1b60a21b606082015260800190565b6020808252602c908201527f46756e6374696f6e206d7573742062652063616c6c6564207468726f7567682060408201526b6163746976652070726f787960a01b606082015260800190565b6020808252601b908201527f43616c6c6572206973206e6f74207468652045584348414e4745520000000000604082015260600190565b6020808252601f908201527f5265656e7472616e637947756172643a207265656e7472616e742063616c6c00604082015260600190565b818103818111156109a0576109a06136ce565b80820281158282048414176109a0576109a06136ce565b808201808211156109a0576109a06136ce565b634e487b7160e01b600052603260045260246000fd5b600060018201613997576139976136ce565b5060010190565b6000602082840312156139b057600080fd5b81518015158114610dc857600080fd5b6000602082840312156139d257600080fd5b5051919050565b6020808252601490820152735265737472696374656420746f2061646d696e7360601b604082015260600190565b7f416363657373436f6e74726f6c3a206163636f756e7420000000000000000000815260008351613a3f8160178501602088016132c2565b7001034b99036b4b9b9b4b733903937b6329607d1b6017918401918201528351613a708160288401602088016132c2565b01602801949350505050565b634e487b7160e01b600052603160045260246000fd5b600081613aa157613aa16136ce565b506000190190565b60008251613abb8184602087016132c2565b919091019291505056fe360894a13ba1a3210667c828492db98dca3e2076cc3735a920a3ca505d382bbc416464726573733a206c6f772d6c6576656c2064656c65676174652063616c6c206661696c6564ddf252ad1be2c89b69c2b068fc378daa952ba7f163c4a11628f55a4df523b3efa26469706673582212201a582d3bd9acbf89ca56a43f6648bff3d0cfd92063616af7a786a38c2cafa06d64736f6c63430008110033",
  "implementation": "0x4F268ef41F76e5503144886A668fced37b674CE0",
  "devdoc": {
    "details": "Fork of OUSD version In previous version it was UsdPlusTokenOld.sol therefore save slot storage for deleted variables Different with OUSD: - changeSupply - PayoutManager: rebaseOptIn/rebaseOptOut - RoleManager",
    "kind": "dev",
    "methods": {
      "allowance(address,address)": {
        "details": "Function to check the amount of tokens that _owner has allowed to      `_spender`.",
        "params": {
          "_owner": "The address which owns the funds.",
          "_spender": "The address which will spend the funds."
        },
        "returns": {
          "_0": "The number of tokens still available for the _spender."
        }
      },
      "approve(address,uint256)": {
        "details": "Approve the passed address to spend the specified amount of tokens      on behalf of msg.sender. This method is included for ERC20      compatibility. `increaseAllowance` and `decreaseAllowance` should be      used instead.      Changing an allowance with this method brings the risk that someone      may transfer both the old and the new allowance - if they are both      greater than zero - if a transfer transaction is mined before the      later approve() call is mined.",
        "params": {
          "_spender": "The address which will spend the funds.",
          "_value": "The amount of tokens to be spent."
        }
      },
      "balanceOf(address)": {
        "details": "Gets the balance of the specified address.",
        "params": {
          "_account": "Address to query the balance of."
        },
        "returns": {
          "_0": "A uint256 representing the amount of base units owned by the         specified address."
        }
      },
      "burn(address,uint256)": {
        "details": "Burns tokens, decreasing totalSupply."
      },
      "changeSupply(uint256)": {
        "details": "Modify the supply without minting new tokens. This uses a change in      the exchange rate between \"credits\" and USD+ tokens to change balances.",
        "params": {
          "_newTotalSupply": "New total supply of USD+."
        }
      },
      "constructor": {
        "custom:oz-upgrades-unsafe-allow": "constructor"
      },
      "creditsBalanceOf(address)": {
        "details": "Gets the credits balance of the specified address.Backwards compatible with old low res credits per token.",
        "params": {
          "_account": "The address to query the balance of."
        },
        "returns": {
          "_0": "(uint256, uint256) Credit balance and credits per token of the         address"
        }
      },
      "creditsBalanceOfHighres(address)": {
        "details": "Gets the credits balance of the specified address.",
        "params": {
          "_account": "The address to query the balance of."
        },
        "returns": {
          "_0": "(uint256, uint256) Credit balance, credits per token of the address"
        }
      },
      "decreaseAllowance(address,uint256)": {
        "details": "Decrease the amount of tokens that an owner has allowed to `_spender`.",
        "params": {
          "_spender": "The address which will spend the funds.",
          "_subtractedValue": "The amount of tokens to decrease the allowance        by."
        }
      },
      "getRoleAdmin(bytes32)": {
        "details": "Returns the admin role that controls `role`. See {grantRole} and {revokeRole}. To change a role's admin, use {_setRoleAdmin}."
      },
      "grantRole(bytes32,address)": {
        "details": "Grants `role` to `account`. If `account` had not been already granted `role`, emits a {RoleGranted} event. Requirements: - the caller must have ``role``'s admin role. May emit a {RoleGranted} event."
      },
      "hasRole(bytes32,address)": {
        "details": "Returns `true` if `account` has been granted `role`."
      },
      "increaseAllowance(address,uint256)": {
        "details": "Increase the amount of tokens that an owner has allowed to      `_spender`.      This method should be used instead of approve() to avoid the double      approval vulnerability described above.",
        "params": {
          "_addedValue": "The amount of tokens to increase the allowance by.",
          "_spender": "The address which will spend the funds."
        }
      },
      "mint(address,uint256)": {
        "details": "Mints new tokens, increasing totalSupply."
      },
      "proxiableUUID()": {
        "details": "Implementation of the ERC1822 {proxiableUUID} function. This returns the storage slot used by the implementation. It is used to validate the implementation's compatibility when performing an upgrade. IMPORTANT: A proxy pointing at a proxiable contract should not be considered proxiable itself, because this risks bricking a proxy that upgrades to it, by delegating to itself until out of gas. Thus it is critical that this function revert if invoked through a proxy. This is guaranteed by the `notDelegated` modifier."
      },
      "rebaseOptIn(address)": {
        "details": "Add a contract address to the non-rebasing exception list. The address's balance will be part of rebases and the account will be exposed to upside and downside."
      },
      "rebaseOptOut(address)": {
        "details": "Explicitly mark that an address is non-rebasing."
      },
      "rebasingCredits()": {
        "returns": {
          "_0": "Low resolution total number of rebasing credits"
        }
      },
      "rebasingCreditsHighres()": {
        "returns": {
          "_0": "High resolution total number of rebasing credits"
        }
      },
      "rebasingCreditsPerToken()": {
        "returns": {
          "_0": "Low resolution rebasingCreditsPerToken"
        }
      },
      "rebasingCreditsPerTokenHighres()": {
        "returns": {
          "_0": "High resolution rebasingCreditsPerToken"
        }
      },
      "renounceRole(bytes32,address)": {
        "details": "Revokes `role` from the calling account. Roles are often managed via {grantRole} and {revokeRole}: this function's purpose is to provide a mechanism for accounts to lose their privileges if they are compromised (such as when a trusted device is misplaced). If the calling account had been revoked `role`, emits a {RoleRevoked} event. Requirements: - the caller must be `account`. May emit a {RoleRevoked} event."
      },
      "revokeRole(bytes32,address)": {
        "details": "Revokes `role` from `account`. If `account` had been granted `role`, emits a {RoleRevoked} event. Requirements: - the caller must have ``role``'s admin role. May emit a {RoleRevoked} event."
      },
      "supportsInterface(bytes4)": {
        "details": "See {IERC165-supportsInterface}."
      },
      "totalSupply()": {
        "returns": {
          "_0": "The total supply of USD+."
        }
      },
      "transfer(address,uint256)": {
        "details": "Transfer tokens to a specified address.",
        "params": {
          "_to": "the address to transfer to.",
          "_value": "the amount to be transferred."
        },
        "returns": {
          "_0": "true on success."
        }
      },
      "transferFrom(address,address,uint256)": {
        "details": "Transfer tokens from one address to another.",
        "params": {
          "_from": "The address you want to send tokens from.",
          "_to": "The address you want to transfer to.",
          "_value": "The amount of tokens to be transferred."
        }
      },
      "upgradeTo(address)": {
        "details": "Upgrade the implementation of the proxy to `newImplementation`. Calls {_authorizeUpgrade}. Emits an {Upgraded} event."
      },
      "upgradeToAndCall(address,bytes)": {
        "details": "Upgrade the implementation of the proxy to `newImplementation`, and subsequently execute the function call encoded in `data`. Calls {_authorizeUpgrade}. Emits an {Upgraded} event."
      }
    },
    "version": 1
  },
  "userdoc": {
    "kind": "user",
    "methods": {
      "decimals()": {
        "notice": "Returns the number of decimals used to get its user representation. For example, if `decimals` equals `2`, a balance of `505` tokens should be displayed to a user as `5,05` (`505 / 10 ** 2`). Tokens usually opt for a value of 18, imitating the relationship between Ether and Wei. NOTE: This information is only used for _display_ purposes: it in no way affects any of the arithmetic of the contract, including {IERC20-balanceOf} and {IERC20-transfer}."
      },
      "name()": {
        "notice": "Returns the name of the token."
      },
      "symbol()": {
        "notice": "Returns the symbol of the token, usually a shorter version of the name."
      }
    },
    "version": 1
  },
  "storageLayout": {
    "storage": [
      {
        "astId": 974,
        "contract": "contracts/UsdPlusToken.sol:UsdPlusToken",
        "label": "_initialized",
        "offset": 0,
        "slot": "0",
        "type": "t_uint8"
      },
      {
        "astId": 977,
        "contract": "contracts/UsdPlusToken.sol:UsdPlusToken",
        "label": "_initializing",
        "offset": 1,
        "slot": "0",
        "type": "t_bool"
      },
      {
        "astId": 1827,
        "contract": "contracts/UsdPlusToken.sol:UsdPlusToken",
        "label": "__gap",
        "offset": 0,
        "slot": "1",
        "type": "t_array(t_uint256)50_storage"
      },
      {
        "astId": 2106,
        "contract": "contracts/UsdPlusToken.sol:UsdPlusToken",
        "label": "__gap",
        "offset": 0,
        "slot": "51",
        "type": "t_array(t_uint256)50_storage"
      },
      {
        "astId": 184,
        "contract": "contracts/UsdPlusToken.sol:UsdPlusToken",
        "label": "_roles",
        "offset": 0,
        "slot": "101",
        "type": "t_mapping(t_bytes32,t_struct(RoleData)179_storage)"
      },
      {
        "astId": 479,
        "contract": "contracts/UsdPlusToken.sol:UsdPlusToken",
        "label": "__gap",
        "offset": 0,
        "slot": "102",
        "type": "t_array(t_uint256)49_storage"
      },
      {
        "astId": 956,
        "contract": "contracts/UsdPlusToken.sol:UsdPlusToken",
        "label": "__gap",
        "offset": 0,
        "slot": "151",
        "type": "t_array(t_uint256)50_storage"
      },
      {
        "astId": 1271,
        "contract": "contracts/UsdPlusToken.sol:UsdPlusToken",
        "label": "__gap",
        "offset": 0,
        "slot": "201",
        "type": "t_array(t_uint256)50_storage"
      },
      {
        "astId": 25719,
        "contract": "contracts/UsdPlusToken.sol:UsdPlusToken",
        "label": "_creditBalances",
        "offset": 0,
        "slot": "251",
        "type": "t_mapping(t_address,t_uint256)"
      },
      {
        "astId": 25721,
        "contract": "contracts/UsdPlusToken.sol:UsdPlusToken",
        "label": "DELETED_0",
        "offset": 0,
        "slot": "252",
        "type": "t_bytes32"
      },
      {
        "astId": 25723,
        "contract": "contracts/UsdPlusToken.sol:UsdPlusToken",
        "label": "_totalSupply",
        "offset": 0,
        "slot": "253",
        "type": "t_uint256"
      },
      {
        "astId": 25725,
        "contract": "contracts/UsdPlusToken.sol:UsdPlusToken",
        "label": "_name",
        "offset": 0,
        "slot": "254",
        "type": "t_string_storage"
      },
      {
        "astId": 25727,
        "contract": "contracts/UsdPlusToken.sol:UsdPlusToken",
        "label": "_symbol",
        "offset": 0,
        "slot": "255",
        "type": "t_string_storage"
      },
      {
        "astId": 25729,
        "contract": "contracts/UsdPlusToken.sol:UsdPlusToken",
        "label": "_rebasingCredits",
        "offset": 0,
        "slot": "256",
        "type": "t_uint256"
      },
      {
        "astId": 25731,
        "contract": "contracts/UsdPlusToken.sol:UsdPlusToken",
        "label": "_rebasingCreditsPerToken",
        "offset": 0,
        "slot": "257",
        "type": "t_uint256"
      },
      {
        "astId": 25733,
        "contract": "contracts/UsdPlusToken.sol:UsdPlusToken",
        "label": "nonRebasingSupply",
        "offset": 0,
        "slot": "258",
        "type": "t_uint256"
      },
      {
        "astId": 25735,
        "contract": "contracts/UsdPlusToken.sol:UsdPlusToken",
        "label": "DELETED_1",
        "offset": 0,
        "slot": "259",
        "type": "t_uint256"
      },
      {
        "astId": 25737,
        "contract": "contracts/UsdPlusToken.sol:UsdPlusToken",
        "label": "DELETED_2",
        "offset": 0,
        "slot": "260",
        "type": "t_uint256"
      },
      {
        "astId": 25740,
        "contract": "contracts/UsdPlusToken.sol:UsdPlusToken",
        "label": "_owners",
        "offset": 0,
        "slot": "261",
        "type": "t_struct(AddressSet)6767_storage"
      },
      {
        "astId": 25742,
        "contract": "contracts/UsdPlusToken.sol:UsdPlusToken",
        "label": "exchange",
        "offset": 0,
        "slot": "263",
        "type": "t_address"
      },
      {
        "astId": 25744,
        "contract": "contracts/UsdPlusToken.sol:UsdPlusToken",
        "label": "_decimals",
        "offset": 20,
        "slot": "263",
        "type": "t_uint8"
      },
      {
        "astId": 25746,
        "contract": "contracts/UsdPlusToken.sol:UsdPlusToken",
        "label": "payoutManager",
        "offset": 0,
        "slot": "264",
        "type": "t_address"
      },
      {
        "astId": 25750,
        "contract": "contracts/UsdPlusToken.sol:UsdPlusToken",
        "label": "nonRebasingCreditsPerToken",
        "offset": 0,
        "slot": "265",
        "type": "t_mapping(t_address,t_uint256)"
      },
      {
        "astId": 25755,
        "contract": "contracts/UsdPlusToken.sol:UsdPlusToken",
        "label": "rebaseState",
        "offset": 0,
        "slot": "266",
        "type": "t_mapping(t_address,t_enum(RebaseOptions)25801)"
      },
      {
        "astId": 25758,
        "contract": "contracts/UsdPlusToken.sol:UsdPlusToken",
        "label": "_nonRebaseOwners",
        "offset": 0,
        "slot": "267",
        "type": "t_struct(AddressSet)6767_storage"
      },
      {
        "astId": 25764,
        "contract": "contracts/UsdPlusToken.sol:UsdPlusToken",
        "label": "_allowances",
        "offset": 0,
        "slot": "269",
        "type": "t_mapping(t_address,t_mapping(t_address,t_uint256))"
      },
      {
        "astId": 25766,
        "contract": "contracts/UsdPlusToken.sol:UsdPlusToken",
        "label": "_status",
        "offset": 0,
        "slot": "270",
        "type": "t_uint256"
      },
      {
        "astId": 25768,
        "contract": "contracts/UsdPlusToken.sol:UsdPlusToken",
        "label": "paused",
        "offset": 0,
        "slot": "271",
        "type": "t_bool"
      },
      {
        "astId": 25771,
        "contract": "contracts/UsdPlusToken.sol:UsdPlusToken",
        "label": "roleManager",
        "offset": 1,
        "slot": "271",
        "type": "t_contract(IRoleManager)32417"
      }
    ],
    "types": {
      "t_address": {
        "encoding": "inplace",
        "label": "address",
        "numberOfBytes": "20"
      },
      "t_array(t_bytes32)dyn_storage": {
        "base": "t_bytes32",
        "encoding": "dynamic_array",
        "label": "bytes32[]",
        "numberOfBytes": "32"
      },
      "t_array(t_uint256)49_storage": {
        "base": "t_uint256",
        "encoding": "inplace",
        "label": "uint256[49]",
        "numberOfBytes": "1568"
      },
      "t_array(t_uint256)50_storage": {
        "base": "t_uint256",
        "encoding": "inplace",
        "label": "uint256[50]",
        "numberOfBytes": "1600"
      },
      "t_bool": {
        "encoding": "inplace",
        "label": "bool",
        "numberOfBytes": "1"
      },
      "t_bytes32": {
        "encoding": "inplace",
        "label": "bytes32",
        "numberOfBytes": "32"
      },
      "t_contract(IRoleManager)32417": {
        "encoding": "inplace",
        "label": "contract IRoleManager",
        "numberOfBytes": "20"
      },
      "t_enum(RebaseOptions)25801": {
        "encoding": "inplace",
        "label": "enum UsdPlusToken.RebaseOptions",
        "numberOfBytes": "1"
      },
      "t_mapping(t_address,t_bool)": {
        "encoding": "mapping",
        "key": "t_address",
        "label": "mapping(address => bool)",
        "numberOfBytes": "32",
        "value": "t_bool"
      },
      "t_mapping(t_address,t_enum(RebaseOptions)25801)": {
        "encoding": "mapping",
        "key": "t_address",
        "label": "mapping(address => enum UsdPlusToken.RebaseOptions)",
        "numberOfBytes": "32",
        "value": "t_enum(RebaseOptions)25801"
      },
      "t_mapping(t_address,t_mapping(t_address,t_uint256))": {
        "encoding": "mapping",
        "key": "t_address",
        "label": "mapping(address => mapping(address => uint256))",
        "numberOfBytes": "32",
        "value": "t_mapping(t_address,t_uint256)"
      },
      "t_mapping(t_address,t_uint256)": {
        "encoding": "mapping",
        "key": "t_address",
        "label": "mapping(address => uint256)",
        "numberOfBytes": "32",
        "value": "t_uint256"
      },
      "t_mapping(t_bytes32,t_struct(RoleData)179_storage)": {
        "encoding": "mapping",
        "key": "t_bytes32",
        "label": "mapping(bytes32 => struct AccessControlUpgradeable.RoleData)",
        "numberOfBytes": "32",
        "value": "t_struct(RoleData)179_storage"
      },
      "t_mapping(t_bytes32,t_uint256)": {
        "encoding": "mapping",
        "key": "t_bytes32",
        "label": "mapping(bytes32 => uint256)",
        "numberOfBytes": "32",
        "value": "t_uint256"
      },
      "t_string_storage": {
        "encoding": "bytes",
        "label": "string",
        "numberOfBytes": "32"
      },
      "t_struct(AddressSet)6767_storage": {
        "encoding": "inplace",
        "label": "struct EnumerableSet.AddressSet",
        "members": [
          {
            "astId": 6766,
            "contract": "contracts/UsdPlusToken.sol:UsdPlusToken",
            "label": "_inner",
            "offset": 0,
            "slot": "0",
            "type": "t_struct(Set)6452_storage"
          }
        ],
        "numberOfBytes": "64"
      },
      "t_struct(RoleData)179_storage": {
        "encoding": "inplace",
        "label": "struct AccessControlUpgradeable.RoleData",
        "members": [
          {
            "astId": 176,
            "contract": "contracts/UsdPlusToken.sol:UsdPlusToken",
            "label": "members",
            "offset": 0,
            "slot": "0",
            "type": "t_mapping(t_address,t_bool)"
          },
          {
            "astId": 178,
            "contract": "contracts/UsdPlusToken.sol:UsdPlusToken",
            "label": "adminRole",
            "offset": 0,
            "slot": "1",
            "type": "t_bytes32"
          }
        ],
        "numberOfBytes": "64"
      },
      "t_struct(Set)6452_storage": {
        "encoding": "inplace",
        "label": "struct EnumerableSet.Set",
        "members": [
          {
            "astId": 6447,
            "contract": "contracts/UsdPlusToken.sol:UsdPlusToken",
            "label": "_values",
            "offset": 0,
            "slot": "0",
            "type": "t_array(t_bytes32)dyn_storage"
          },
          {
            "astId": 6451,
            "contract": "contracts/UsdPlusToken.sol:UsdPlusToken",
            "label": "_indexes",
            "offset": 0,
            "slot": "1",
            "type": "t_mapping(t_bytes32,t_uint256)"
          }
        ],
        "numberOfBytes": "64"
      },
      "t_uint256": {
        "encoding": "inplace",
        "label": "uint256",
        "numberOfBytes": "32"
      },
      "t_uint8": {
        "encoding": "inplace",
        "label": "uint8",
        "numberOfBytes": "1"
      }
    }
  }
}