{
  "contractName": "ConnectorAAVE",
  "abi": [
    {
      "anonymous": false,
      "inputs": [
        {
          "indexed": true,
          "internalType": "address",
          "name": "previousOwner",
          "type": "address"
        },
        {
          "indexed": true,
          "internalType": "address",
          "name": "newOwner",
          "type": "address"
        }
      ],
      "name": "OwnershipTransferred",
      "type": "event"
    },
    {
      "inputs": [],
      "name": "owner",
      "outputs": [
        {
          "internalType": "address",
          "name": "",
          "type": "address"
        }
      ],
      "stateMutability": "view",
      "type": "function"
    },
    {
      "inputs": [],
      "name": "renounceOwnership",
      "outputs": [],
      "stateMutability": "nonpayable",
      "type": "function"
    },
    {
      "inputs": [
        {
          "internalType": "bytes32",
          "name": "",
          "type": "bytes32"
        }
      ],
      "name": "rolemap",
      "outputs": [
        {
          "internalType": "address",
          "name": "",
          "type": "address"
        }
      ],
      "stateMutability": "view",
      "type": "function"
    },
    {
      "inputs": [
        {
          "internalType": "bytes32",
          "name": "_role",
          "type": "bytes32"
        },
        {
          "internalType": "address",
          "name": "_actor",
          "type": "address"
        }
      ],
      "name": "setRole",
      "outputs": [],
      "stateMutability": "nonpayable",
      "type": "function"
    },
    {
      "inputs": [
        {
          "internalType": "address",
          "name": "newOwner",
          "type": "address"
        }
      ],
      "name": "transferOwnership",
      "outputs": [],
      "stateMutability": "nonpayable",
      "type": "function"
    },
    {
      "inputs": [
        {
          "internalType": "address",
          "name": "_LPAP",
          "type": "address"
        }
      ],
      "name": "setAAVE",
      "outputs": [],
      "stateMutability": "nonpayable",
      "type": "function"
    },
    {
      "inputs": [
        {
          "internalType": "address",
          "name": "_asset",
          "type": "address"
        },
        {
          "internalType": "address",
          "name": "_pool",
          "type": "address"
        },
        {
          "internalType": "uint256",
          "name": "_amount",
          "type": "uint256"
        },
        {
          "internalType": "address",
          "name": "_beneficiar",
          "type": "address"
        }
      ],
      "name": "stake",
      "outputs": [],
      "stateMutability": "nonpayable",
      "type": "function"
    },
    {
      "inputs": [
        {
          "internalType": "address",
          "name": "_asset",
          "type": "address"
        },
        {
          "internalType": "address",
          "name": "_pool",
          "type": "address"
        },
        {
          "internalType": "uint256",
          "name": "_amount",
          "type": "uint256"
        },
        {
          "internalType": "address",
          "name": "_to",
          "type": "address"
        }
      ],
      "name": "unstake",
      "outputs": [
        {
          "internalType": "uint256",
          "name": "",
          "type": "uint256"
        }
      ],
      "stateMutability": "nonpayable",
      "type": "function"
    },
    {
      "inputs": [
        {
          "internalType": "address",
          "name": "_asset",
          "type": "address"
        },
        {
          "internalType": "address",
          "name": "_pool",
          "type": "address"
        }
      ],
      "name": "getPriceOffer",
      "outputs": [
        {
          "internalType": "uint256",
          "name": "",
          "type": "uint256"
        }
      ],
      "stateMutability": "view",
      "type": "function"
    },
    {
      "inputs": [
        {
          "internalType": "address",
          "name": "_asset",
          "type": "address"
        },
        {
          "internalType": "address",
          "name": "_where",
          "type": "address"
        }
      ],
      "name": "getBalance",
      "outputs": [
        {
          "internalType": "uint256",
          "name": "",
          "type": "uint256"
        }
      ],
      "stateMutability": "view",
      "type": "function"
    },
    {
      "inputs": [
        {
          "internalType": "address",
          "name": "_asset",
          "type": "address"
        },
        {
          "internalType": "address",
          "name": "_where",
          "type": "address"
        }
      ],
      "name": "getLiqBalance",
      "outputs": [
        {
          "internalType": "uint256",
          "name": "",
          "type": "uint256"
        }
      ],
      "stateMutability": "view",
      "type": "function"
    }
  ],
  "bytecode": "0x608060405234801561001057600080fd5b5061002d61002261003260201b60201c565b61003a60201b60201c565b6100fe565b600033905090565b60008060009054906101000a900473ffffffffffffffffffffffffffffffffffffffff169050816000806101000a81548173ffffffffffffffffffffffffffffffffffffffff021916908373ffffffffffffffffffffffffffffffffffffffff1602179055508173ffffffffffffffffffffffffffffffffffffffff168173ffffffffffffffffffffffffffffffffffffffff167f8be0079c531659141344cd1fd0a4f28419497f9722a3daafe3b4186f6b6457e060405160405180910390a35050565b6117488061010d6000396000f3fe608060405234801561001057600080fd5b50600436106100a95760003560e01c80638da5cb5b116100715780638da5cb5b14610150578063c3a543a91461016e578063cbf7d4d31461019e578063d4fac45d146101ce578063dff87203146101fe578063f2fde38b1461021a576100a9565b80632dc10a54146100ae5780634c0f83c7146100de5780636291027c146100fa5780637113c90814610116578063715018a614610146575b600080fd5b6100c860048036038101906100c39190611103565b610236565b6040516100d5919061123e565b60405180910390f35b6100f860048036038101906100f39190610fd5565b610269565b005b610114600480360381019061010f919061106f565b610329565b005b610130600480360381019061012b919061102f565b610563565b60405161013d919061133e565b60405180910390f35b61014e61069a565b005b610158610722565b604051610165919061123e565b60405180910390f35b6101886004803603810190610183919061106f565b61074b565b604051610195919061133e565b60405180910390f35b6101b860048036038101906101b3919061102f565b610889565b6040516101c5919061133e565b60405180910390f35b6101e860048036038101906101e3919061102f565b610a91565b6040516101f5919061133e565b60405180910390f35b61021860048036038101906102139190611130565b610b24565b005b610234600480360381019061022f9190610fd5565b610bf6565b005b60016020528060005260406000206000915054906101000a900473ffffffffffffffffffffffffffffffffffffffff1681565b610271610cee565b73ffffffffffffffffffffffffffffffffffffffff1661028f610722565b73ffffffffffffffffffffffffffffffffffffffff16146102e5576040517f08c379a00000000000000000000000000000000000000000000000000000000081526004016102dc9061131e565b60405180910390fd5b80600260006101000a81548173ffffffffffffffffffffffffffffffffffffffff021916908373ffffffffffffffffffffffffffffffffffffffff16021790555050565b6000600260009054906101000a900473ffffffffffffffffffffffffffffffffffffffff1673ffffffffffffffffffffffffffffffffffffffff16630261bf8b6040518163ffffffff1660e01b815260040160206040518083038186803b15801561039357600080fd5b505afa1580156103a7573d6000803e3d6000fd5b505050506040513d601f19601f820116820180604052508101906103cb9190611002565b90508473ffffffffffffffffffffffffffffffffffffffff1663095ea7b382856040518363ffffffff1660e01b8152600401610408929190611259565b602060405180830381600087803b15801561042257600080fd5b505af1158015610436573d6000803e3d6000fd5b505050506040513d601f19601f8201168201806040525081019061045a91906110d6565b5060008173ffffffffffffffffffffffffffffffffffffffff166335ea6a75876040518263ffffffff1660e01b8152600401610496919061123e565b6101806040518083038186803b1580156104af57600080fd5b505afa1580156104c3573d6000803e3d6000fd5b505050506040513d601f19601f820116820180604052508101906104e79190611170565b90508173ffffffffffffffffffffffffffffffffffffffff1663e8eda9df87868660006040518563ffffffff1660e01b815260040161052994939291906112b9565b600060405180830381600087803b15801561054357600080fd5b505af1158015610557573d6000803e3d6000fd5b50505050505050505050565b600080600260009054906101000a900473ffffffffffffffffffffffffffffffffffffffff1673ffffffffffffffffffffffffffffffffffffffff1663fca513a86040518163ffffffff1660e01b815260040160206040518083038186803b1580156105ce57600080fd5b505afa1580156105e2573d6000803e3d6000fd5b505050506040513d601f19601f820116820180604052508101906106069190611002565b90508073ffffffffffffffffffffffffffffffffffffffff1663b3596f07856040518263ffffffff1660e01b8152600401610641919061123e565b60206040518083038186803b15801561065957600080fd5b505afa15801561066d573d6000803e3d6000fd5b505050506040513d601f19601f82011682018060405250810190610691919061119e565b91505092915050565b6106a2610cee565b73ffffffffffffffffffffffffffffffffffffffff166106c0610722565b73ffffffffffffffffffffffffffffffffffffffff1614610716576040517f08c379a000000000000000000000000000000000000000000000000000000000815260040161070d9061131e565b60405180910390fd5b6107206000610cf6565b565b60008060009054906101000a900473ffffffffffffffffffffffffffffffffffffffff16905090565b600080600260009054906101000a900473ffffffffffffffffffffffffffffffffffffffff1673ffffffffffffffffffffffffffffffffffffffff16630261bf8b6040518163ffffffff1660e01b815260040160206040518083038186803b1580156107b657600080fd5b505afa1580156107ca573d6000803e3d6000fd5b505050506040513d601f19601f820116820180604052508101906107ee9190611002565b90508073ffffffffffffffffffffffffffffffffffffffff166369328dec8786866040518463ffffffff1660e01b815260040161082d93929190611282565b602060405180830381600087803b15801561084757600080fd5b505af115801561085b573d6000803e3d6000fd5b505050506040513d601f19601f8201168201806040525081019061087f919061119e565b5050949350505050565b6000808373ffffffffffffffffffffffffffffffffffffffff166370a08231846040518263ffffffff1660e01b81526004016108c5919061123e565b60206040518083038186803b1580156108dd57600080fd5b505afa1580156108f1573d6000803e3d6000fd5b505050506040513d601f19601f82011682018060405250810190610915919061119e565b90506000600260009054906101000a900473ffffffffffffffffffffffffffffffffffffffff1673ffffffffffffffffffffffffffffffffffffffff16630261bf8b6040518163ffffffff1660e01b815260040160206040518083038186803b15801561098157600080fd5b505afa158015610995573d6000803e3d6000fd5b505050506040513d601f19601f820116820180604052508101906109b99190611002565b905060008173ffffffffffffffffffffffffffffffffffffffff166335ea6a75876040518263ffffffff1660e01b81526004016109f6919061123e565b6101806040518083038186803b158015610a0f57600080fd5b505afa158015610a23573d6000803e3d6000fd5b505050506040513d601f19601f82011682018060405250810190610a479190611170565b9050606481602001516064610a5c919061141a565b6fffffffffffffffffffffffffffffffff1684610a7991906113c0565b610a83919061138f565b925082935050505092915050565b60008273ffffffffffffffffffffffffffffffffffffffff166370a08231836040518263ffffffff1660e01b8152600401610acc919061123e565b60206040518083038186803b158015610ae457600080fd5b505afa158015610af8573d6000803e3d6000fd5b505050506040513d601f19601f82011682018060405250810190610b1c919061119e565b905092915050565b610b2c610cee565b73ffffffffffffffffffffffffffffffffffffffff16610b4a610722565b73ffffffffffffffffffffffffffffffffffffffff1614610ba0576040517f08c379a0000000000000000000000000000000000000000000000000000000008152600401610b979061131e565b60405180910390fd5b806001600084815260200190815260200160002060006101000a81548173ffffffffffffffffffffffffffffffffffffffff021916908373ffffffffffffffffffffffffffffffffffffffff1602179055505050565b610bfe610cee565b73ffffffffffffffffffffffffffffffffffffffff16610c1c610722565b73ffffffffffffffffffffffffffffffffffffffff1614610c72576040517f08c379a0000000000000000000000000000000000000000000000000000000008152600401610c699061131e565b60405180910390fd5b600073ffffffffffffffffffffffffffffffffffffffff168173ffffffffffffffffffffffffffffffffffffffff161415610ce2576040517f08c379a0000000000000000000000000000000000000000000000000000000008152600401610cd9906112fe565b60405180910390fd5b610ceb81610cf6565b50565b600033905090565b60008060009054906101000a900473ffffffffffffffffffffffffffffffffffffffff169050816000806101000a81548173ffffffffffffffffffffffffffffffffffffffff021916908373ffffffffffffffffffffffffffffffffffffffff1602179055508173ffffffffffffffffffffffffffffffffffffffff168173ffffffffffffffffffffffffffffffffffffffff167f8be0079c531659141344cd1fd0a4f28419497f9722a3daafe3b4186f6b6457e060405160405180910390a35050565b600081359050610dc981611671565b92915050565b600081519050610dde81611671565b92915050565b600081519050610df381611688565b92915050565b600081359050610e088161169f565b92915050565b600060208284031215610e2457610e236115b8565b5b610e2e6020611359565b90506000610e3e84828501610f96565b60008301525092915050565b60006101808284031215610e6157610e606115b8565b5b610e6c610180611359565b90506000610e7c84828501610e0e565b6000830152506020610e9084828501610f6c565b6020830152506040610ea484828501610f6c565b6040830152506060610eb884828501610f6c565b6060830152506080610ecc84828501610f6c565b60808301525060a0610ee084828501610f6c565b60a08301525060c0610ef484828501610fab565b60c08301525060e0610f0884828501610dcf565b60e083015250610100610f1d84828501610dcf565b61010083015250610120610f3384828501610dcf565b61012083015250610140610f4984828501610dcf565b61014083015250610160610f5f84828501610fc0565b6101608301525092915050565b600081519050610f7b816116b6565b92915050565b600081359050610f90816116cd565b92915050565b600081519050610fa5816116cd565b92915050565b600081519050610fba816116e4565b92915050565b600081519050610fcf816116fb565b92915050565b600060208284031215610feb57610fea6115bd565b5b6000610ff984828501610dba565b91505092915050565b600060208284031215611018576110176115bd565b5b600061102684828501610dcf565b91505092915050565b60008060408385031215611046576110456115bd565b5b600061105485828601610dba565b925050602061106585828601610dba565b9150509250929050565b60008060008060808587031215611089576110886115bd565b5b600061109787828801610dba565b94505060206110a887828801610dba565b93505060406110b987828801610f81565b92505060606110ca87828801610dba565b91505092959194509250565b6000602082840312156110ec576110eb6115bd565b5b60006110fa84828501610de4565b91505092915050565b600060208284031215611119576111186115bd565b5b600061112784828501610df9565b91505092915050565b60008060408385031215611147576111466115bd565b5b600061115585828601610df9565b925050602061116685828601610dba565b9150509250929050565b60006101808284031215611187576111866115bd565b5b600061119584828501610e4a565b91505092915050565b6000602082840312156111b4576111b36115bd565b5b60006111c284828501610f96565b91505092915050565b6111d48161144e565b82525050565b6111e3816114e8565b82525050565b60006111f660298361137e565b9150611201826115d3565b604082019050919050565b600061121960238361137e565b915061122482611622565b604082019050919050565b611238816114c0565b82525050565b600060208201905061125360008301846111cb565b92915050565b600060408201905061126e60008301856111cb565b61127b602083018461122f565b9392505050565b600060608201905061129760008301866111cb565b6112a4602083018561122f565b6112b160408301846111cb565b949350505050565b60006080820190506112ce60008301876111cb565b6112db602083018661122f565b6112e860408301856111cb565b6112f560608301846111da565b95945050505050565b60006020820190508181036000830152611317816111e9565b9050919050565b600060208201905081810360008301526113378161120c565b9050919050565b6000602082019050611353600083018461122f565b92915050565b6000611363611374565b905061136f82826114fa565b919050565b6000604051905090565b600082825260208201905092915050565b600061139a826114c0565b91506113a5836114c0565b9250826113b5576113b461155a565b5b828204905092915050565b60006113cb826114c0565b91506113d6836114c0565b9250817fffffffffffffffffffffffffffffffffffffffffffffffffffffffffffffffff048311821515161561140f5761140e61152b565b5b828202905092915050565b600061142582611476565b915061143083611476565b9250828210156114435761144261152b565b5b828203905092915050565b6000611459826114a0565b9050919050565b60008115159050919050565b6000819050919050565b60006fffffffffffffffffffffffffffffffff82169050919050565b600061ffff82169050919050565b600073ffffffffffffffffffffffffffffffffffffffff82169050919050565b6000819050919050565b600064ffffffffff82169050919050565b600060ff82169050919050565b60006114f382611492565b9050919050565b611503826115c2565b810181811067ffffffffffffffff8211171561152257611521611589565b5b80604052505050565b7f4e487b7100000000000000000000000000000000000000000000000000000000600052601160045260246000fd5b7f4e487b7100000000000000000000000000000000000000000000000000000000600052601260045260246000fd5b7f4e487b7100000000000000000000000000000000000000000000000000000000600052604160045260246000fd5b600080fd5b600080fd5b6000601f19601f8301169050919050565b7f4f776e61626c654578743a206e6577206f776e657220697320746865207a657260008201527f6f20616464726573730000000000000000000000000000000000000000000000602082015250565b7f4f776e61626c654578743a2063616c6c6572206973206e6f7420746865206f7760008201527f6e65720000000000000000000000000000000000000000000000000000000000602082015250565b61167a8161144e565b811461168557600080fd5b50565b61169181611460565b811461169c57600080fd5b50565b6116a88161146c565b81146116b357600080fd5b50565b6116bf81611476565b81146116ca57600080fd5b50565b6116d6816114c0565b81146116e157600080fd5b50565b6116ed816114ca565b81146116f857600080fd5b50565b611704816114db565b811461170f57600080fd5b5056fea2646970667358221220d9064bda07f21b87130be9f1c4fec721a04c7b09692a9c78ef8c7c5a72c038ed64736f6c63430008060033",
  "immutableReferences": {},
  "source": "// SPDX-License-Identifier: GPL-3.0\n\npragma solidity >=0.8.0 <0.9.0;\nimport \"../interfaces/IConnector.sol\";\nimport \"./aave/interfaces/ILendingPool.sol\";\nimport \"./aave/interfaces/ILendingPoolAddressesProvider.sol\";\nimport \"./aave/interfaces/IPriceOracleGetter.sol\";\n\nimport \"@openzeppelin/contracts/token/ERC20/IERC20.sol\";\n\nimport \"../OwnableExt.sol\";\n\n\ncontract ConnectorAAVE is IConnector, OwnableExt {\n    ILendingPoolAddressesProvider lpap;\n    \n    function setAAVE  (address _LPAP) public onlyOwner {\n        lpap = ILendingPoolAddressesProvider(_LPAP);\n\n    }\n\n\n    function stake (address _asset, address _pool, uint256 _amount, address _beneficiar ) public override  {\n       ILendingPool pool = ILendingPool(lpap.getLendingPool());\n    //IERC20(_asset).transferFrom(msg.sender, address(this), _amount);\n        IERC20(_asset).approve(address(pool), _amount);\n        DataTypes.ReserveData memory res = pool.getReserveData(_asset);\n        pool.deposit(_asset, _amount, _beneficiar, 0);\n        }\n\n\n    function unstake (address _asset, address _pool,uint256 _amount, address _to  ) public override  returns (uint256) {\n       ILendingPool pool = ILendingPool(lpap.getLendingPool());\n        pool.withdraw(_asset, _amount, _to);\n        }\n\n    function getPriceOffer (address _asset,  address _pool) public view override returns (uint256) {\n       IPriceOracleGetter  oraclePrice = IPriceOracleGetter (lpap.getPriceOracle()); \n\n        return  oraclePrice.getAssetPrice(_asset);\n    }\n\n\n    function getBalance (address _asset, address _where) external view override returns (uint256) {\n\n        return IERC20(_asset).balanceOf(_where);\n    }\n\n    function getLiqBalance (address _asset, address _where) external view override returns (uint256) {\n        uint balance = IERC20(_asset).balanceOf(_where);\n        ILendingPool pool = ILendingPool(lpap.getLendingPool());\n        DataTypes.ReserveData memory res = pool.getReserveData(_asset);\n        balance = balance * (100-res.liquidityIndex)/100;\n        return balance;\n    }\n\n\n}\n\n\n\n",
  "sourcePath": "/home/st/Documents/work/OVN/ovngt-mvp/contracts/connectors/ConnectorAAVE.sol",
  "compiler": {
    "name": "solc",
    "version": "0.8.6+commit.11564f7e.Emscripten.clang"
  },
  "schemaVersion": "3.4.0",
  "updatedAt": "2021-08-20T13:52:20.965Z",
  "devdoc": {
    "kind": "dev",
    "methods": {
      "owner()": {
        "details": "Returns the address of the current owner."
      },
      "renounceOwnership()": {
        "details": "Leaves the contract without owner. It will not be possible to call `onlyOwner` functions anymore. Can only be called by the current owner. NOTE: Renouncing ownership will leave the contract without an owner, thereby removing any functionality that is only available to the owner."
      },
      "transferOwnership(address)": {
        "details": "Transfers ownership of the contract to a new account (`newOwner`). Can only be called by the current owner."
      }
    },
    "version": 1
  },
  "userdoc": {
    "kind": "user",
    "methods": {},
    "version": 1
  }
}