{
  "contractName": "ConnectorAAVE",
  "abi": [
    {
      "anonymous": false,
      "inputs": [
        {
          "indexed": true,
          "internalType": "address",
          "name": "previousOwner",
          "type": "address"
        },
        {
          "indexed": true,
          "internalType": "address",
          "name": "newOwner",
          "type": "address"
        }
      ],
      "name": "OwnershipTransferred",
      "type": "event"
    },
    {
      "inputs": [],
      "name": "owner",
      "outputs": [
        {
          "internalType": "address",
          "name": "",
          "type": "address"
        }
      ],
      "stateMutability": "view",
      "type": "function",
      "constant": true
    },
    {
      "inputs": [],
      "name": "renounceOwnership",
      "outputs": [],
      "stateMutability": "nonpayable",
      "type": "function"
    },
    {
      "inputs": [
        {
          "internalType": "bytes32",
          "name": "",
          "type": "bytes32"
        }
      ],
      "name": "rolemap",
      "outputs": [
        {
          "internalType": "address",
          "name": "",
          "type": "address"
        }
      ],
      "stateMutability": "view",
      "type": "function",
      "constant": true
    },
    {
      "inputs": [
        {
          "internalType": "bytes32",
          "name": "_role",
          "type": "bytes32"
        },
        {
          "internalType": "address",
          "name": "_actor",
          "type": "address"
        }
      ],
      "name": "setRole",
      "outputs": [],
      "stateMutability": "nonpayable",
      "type": "function"
    },
    {
      "inputs": [
        {
          "internalType": "address",
          "name": "newOwner",
          "type": "address"
        }
      ],
      "name": "transferOwnership",
      "outputs": [],
      "stateMutability": "nonpayable",
      "type": "function"
    },
    {
      "inputs": [
        {
          "internalType": "address",
          "name": "_oracle",
          "type": "address"
        }
      ],
      "name": "setOraclePrice",
      "outputs": [],
      "stateMutability": "nonpayable",
      "type": "function"
    },
    {
      "inputs": [
        {
          "internalType": "address",
          "name": "_asset",
          "type": "address"
        },
        {
          "internalType": "address",
          "name": "_pool",
          "type": "address"
        },
        {
          "internalType": "uint256",
          "name": "_amount",
          "type": "uint256"
        },
        {
          "internalType": "address",
          "name": "_beneficiar",
          "type": "address"
        }
      ],
      "name": "stake",
      "outputs": [],
      "stateMutability": "nonpayable",
      "type": "function"
    },
    {
      "inputs": [
        {
          "internalType": "address",
          "name": "_asset",
          "type": "address"
        },
        {
          "internalType": "address",
          "name": "_pool",
          "type": "address"
        },
        {
          "internalType": "uint256",
          "name": "_amount",
          "type": "uint256"
        },
        {
          "internalType": "address",
          "name": "_to",
          "type": "address"
        }
      ],
      "name": "unstake",
      "outputs": [
        {
          "internalType": "uint256",
          "name": "",
          "type": "uint256"
        }
      ],
      "stateMutability": "nonpayable",
      "type": "function"
    },
    {
      "inputs": [
        {
          "internalType": "address",
          "name": "_asset",
          "type": "address"
        },
        {
          "internalType": "address",
          "name": "_pool",
          "type": "address"
        }
      ],
      "name": "getPriceOffer",
      "outputs": [
        {
          "internalType": "uint256",
          "name": "",
          "type": "uint256"
        }
      ],
      "stateMutability": "view",
      "type": "function",
      "constant": true
    },
    {
      "inputs": [
        {
          "internalType": "address",
          "name": "_asset",
          "type": "address"
        },
        {
          "internalType": "address",
          "name": "_pool",
          "type": "address"
        },
        {
          "internalType": "uint256",
          "name": "_balance",
          "type": "uint256"
        }
      ],
      "name": "getPriceLiq",
      "outputs": [
        {
          "internalType": "uint256",
          "name": "",
          "type": "uint256"
        }
      ],
      "stateMutability": "view",
      "type": "function",
      "constant": true
    }
  ],
  "bytecode": "0x608060405234801561001057600080fd5b5061002d61002261003260201b60201c565b61003a60201b60201c565b6100fe565b600033905090565b60008060009054906101000a900473ffffffffffffffffffffffffffffffffffffffff169050816000806101000a81548173ffffffffffffffffffffffffffffffffffffffff021916908373ffffffffffffffffffffffffffffffffffffffff1602179055508173ffffffffffffffffffffffffffffffffffffffff168173ffffffffffffffffffffffffffffffffffffffff167f8be0079c531659141344cd1fd0a4f28419497f9722a3daafe3b4186f6b6457e060405160405180910390a35050565b610fe58061010d6000396000f3fe608060405234801561001057600080fd5b506004361061009e5760003560e01c80638da5cb5b116100665780638da5cb5b14610159578063af44f6b614610177578063c3a543a914610193578063dff87203146101c3578063f2fde38b146101df5761009e565b80632dc10a54146100a35780636291027c146100d35780637113c908146100ef578063715018a61461011f5780637e566dbf14610129575b600080fd5b6100bd60048036038101906100b89190610b1c565b6101fb565b6040516100ca9190610c29565b60405180910390f35b6100ed60048036038101906100e89190610a88565b61022e565b005b610109600480360381019061010491906109f5565b61033a565b6040516101169190610d29565b60405180910390f35b6101276103ef565b005b610143600480360381019061013e9190610a35565b610477565b6040516101509190610d29565b60405180910390f35b610161610541565b60405161016e9190610c29565b60405180910390f35b610191600480360381019061018c91906109c8565b61056a565b005b6101ad60048036038101906101a89190610a88565b61062a565b6040516101ba9190610d29565b60405180910390f35b6101dd60048036038101906101d89190610b49565b6106c9565b005b6101f960048036038101906101f491906109c8565b61079b565b005b60016020528060005260406000206000915054906101000a900473ffffffffffffffffffffffffffffffffffffffff1681565b60008390508473ffffffffffffffffffffffffffffffffffffffff1663095ea7b382856040518363ffffffff1660e01b815260040161026e929190610c44565b602060405180830381600087803b15801561028857600080fd5b505af115801561029c573d6000803e3d6000fd5b505050506040513d601f19601f820116820180604052508101906102c09190610aef565b508073ffffffffffffffffffffffffffffffffffffffff1663e8eda9df86858560006040518563ffffffff1660e01b81526004016103019493929190610ca4565b600060405180830381600087803b15801561031b57600080fd5b505af115801561032f573d6000803e3d6000fd5b505050505050505050565b6000600260009054906101000a900473ffffffffffffffffffffffffffffffffffffffff1673ffffffffffffffffffffffffffffffffffffffff1663b3596f07846040518263ffffffff1660e01b81526004016103979190610c29565b60206040518083038186803b1580156103af57600080fd5b505afa1580156103c3573d6000803e3d6000fd5b505050506040513d601f19601f820116820180604052508101906103e79190610b89565b905092915050565b6103f7610893565b73ffffffffffffffffffffffffffffffffffffffff16610415610541565b73ffffffffffffffffffffffffffffffffffffffff161461046b576040517f08c379a000000000000000000000000000000000000000000000000000000000815260040161046290610d09565b60405180910390fd5b610475600061089b565b565b600080610484858561033a565b905060008473ffffffffffffffffffffffffffffffffffffffff1663d15e0053876040518263ffffffff1660e01b81526004016104c19190610c29565b60206040518083038186803b1580156104d957600080fd5b505afa1580156104ed573d6000803e3d6000fd5b505050506040513d601f19601f820116820180604052508101906105119190610b89565b90506b033b2e3c9fd0803ce8000000818361052c9190610d86565b6105369190610d55565b925050509392505050565b60008060009054906101000a900473ffffffffffffffffffffffffffffffffffffffff16905090565b610572610893565b73ffffffffffffffffffffffffffffffffffffffff16610590610541565b73ffffffffffffffffffffffffffffffffffffffff16146105e6576040517f08c379a00000000000000000000000000000000000000000000000000000000081526004016105dd90610d09565b60405180910390fd5b80600260006101000a81548173ffffffffffffffffffffffffffffffffffffffff021916908373ffffffffffffffffffffffffffffffffffffffff16021790555050565b6000808490508073ffffffffffffffffffffffffffffffffffffffff166369328dec8786866040518463ffffffff1660e01b815260040161066d93929190610c6d565b602060405180830381600087803b15801561068757600080fd5b505af115801561069b573d6000803e3d6000fd5b505050506040513d601f19601f820116820180604052508101906106bf9190610b89565b5050949350505050565b6106d1610893565b73ffffffffffffffffffffffffffffffffffffffff166106ef610541565b73ffffffffffffffffffffffffffffffffffffffff1614610745576040517f08c379a000000000000000000000000000000000000000000000000000000000815260040161073c90610d09565b60405180910390fd5b806001600084815260200190815260200160002060006101000a81548173ffffffffffffffffffffffffffffffffffffffff021916908373ffffffffffffffffffffffffffffffffffffffff1602179055505050565b6107a3610893565b73ffffffffffffffffffffffffffffffffffffffff166107c1610541565b73ffffffffffffffffffffffffffffffffffffffff1614610817576040517f08c379a000000000000000000000000000000000000000000000000000000000815260040161080e90610d09565b60405180910390fd5b600073ffffffffffffffffffffffffffffffffffffffff168173ffffffffffffffffffffffffffffffffffffffff161415610887576040517f08c379a000000000000000000000000000000000000000000000000000000000815260040161087e90610ce9565b60405180910390fd5b6108908161089b565b50565b600033905090565b60008060009054906101000a900473ffffffffffffffffffffffffffffffffffffffff169050816000806101000a81548173ffffffffffffffffffffffffffffffffffffffff021916908373ffffffffffffffffffffffffffffffffffffffff1602179055508173ffffffffffffffffffffffffffffffffffffffff168173ffffffffffffffffffffffffffffffffffffffff167f8be0079c531659141344cd1fd0a4f28419497f9722a3daafe3b4186f6b6457e060405160405180910390a35050565b60008135905061096e81610f53565b92915050565b60008151905061098381610f6a565b92915050565b60008135905061099881610f81565b92915050565b6000813590506109ad81610f98565b92915050565b6000815190506109c281610f98565b92915050565b6000602082840312156109de576109dd610eb0565b5b60006109ec8482850161095f565b91505092915050565b60008060408385031215610a0c57610a0b610eb0565b5b6000610a1a8582860161095f565b9250506020610a2b8582860161095f565b9150509250929050565b600080600060608486031215610a4e57610a4d610eb0565b5b6000610a5c8682870161095f565b9350506020610a6d8682870161095f565b9250506040610a7e8682870161099e565b9150509250925092565b60008060008060808587031215610aa257610aa1610eb0565b5b6000610ab08782880161095f565b9450506020610ac18782880161095f565b9350506040610ad28782880161099e565b9250506060610ae38782880161095f565b91505092959194509250565b600060208284031215610b0557610b04610eb0565b5b6000610b1384828501610974565b91505092915050565b600060208284031215610b3257610b31610eb0565b5b6000610b4084828501610989565b91505092915050565b60008060408385031215610b6057610b5f610eb0565b5b6000610b6e85828601610989565b9250506020610b7f8582860161095f565b9150509250929050565b600060208284031215610b9f57610b9e610eb0565b5b6000610bad848285016109b3565b91505092915050565b610bbf81610de0565b82525050565b610bce81610e40565b82525050565b6000610be1602983610d44565b9150610bec82610eb5565b604082019050919050565b6000610c04602383610d44565b9150610c0f82610f04565b604082019050919050565b610c2381610e36565b82525050565b6000602082019050610c3e6000830184610bb6565b92915050565b6000604082019050610c596000830185610bb6565b610c666020830184610c1a565b9392505050565b6000606082019050610c826000830186610bb6565b610c8f6020830185610c1a565b610c9c6040830184610bb6565b949350505050565b6000608082019050610cb96000830187610bb6565b610cc66020830186610c1a565b610cd36040830185610bb6565b610ce06060830184610bc5565b95945050505050565b60006020820190508181036000830152610d0281610bd4565b9050919050565b60006020820190508181036000830152610d2281610bf7565b9050919050565b6000602082019050610d3e6000830184610c1a565b92915050565b600082825260208201905092915050565b6000610d6082610e36565b9150610d6b83610e36565b925082610d7b57610d7a610e81565b5b828204905092915050565b6000610d9182610e36565b9150610d9c83610e36565b9250817fffffffffffffffffffffffffffffffffffffffffffffffffffffffffffffffff0483118215151615610dd557610dd4610e52565b5b828202905092915050565b6000610deb82610e16565b9050919050565b60008115159050919050565b6000819050919050565b600061ffff82169050919050565b600073ffffffffffffffffffffffffffffffffffffffff82169050919050565b6000819050919050565b6000610e4b82610e08565b9050919050565b7f4e487b7100000000000000000000000000000000000000000000000000000000600052601160045260246000fd5b7f4e487b7100000000000000000000000000000000000000000000000000000000600052601260045260246000fd5b600080fd5b7f4f776e61626c654578743a206e6577206f776e657220697320746865207a657260008201527f6f20616464726573730000000000000000000000000000000000000000000000602082015250565b7f4f776e61626c654578743a2063616c6c6572206973206e6f7420746865206f7760008201527f6e65720000000000000000000000000000000000000000000000000000000000602082015250565b610f5c81610de0565b8114610f6757600080fd5b50565b610f7381610df2565b8114610f7e57600080fd5b50565b610f8a81610dfe565b8114610f9557600080fd5b50565b610fa181610e36565b8114610fac57600080fd5b5056fea26469706673582212205f123bea1e3de4ad20be11b7f7eb8008f8bbe8865455abef51fb4202f59b959a64736f6c63430008070033",
  "immutableReferences": {},
  "source": "// SPDX-License-Identifier: GPL-3.0\n\npragma solidity >=0.8.0 <0.9.0;\nimport \"../interfaces/IConnector.sol\";\nimport \"./aave/interfaces/ILendingPool.sol\";\nimport \"./aave/interfaces/ILendingPoolAddressesProvider.sol\";\nimport \"./aave/interfaces/IPriceOracleGetter.sol\";\n\nimport \"@openzeppelin/contracts/token/ERC20/IERC20.sol\";\n\nimport \"../OwnableExt.sol\";\n\n\ncontract ConnectorAAVE is IConnector, OwnableExt {\n    IPriceOracleGetter oraclePrice; \n\n    function setOraclePrice  (address _oracle) public onlyOwner {\n        oraclePrice =     IPriceOracleGetter (_oracle); \n\n    }\n\n\n    function stake (address _asset, address _pool, uint256 _amount, address _beneficiar ) public override  {\n        ILendingPool pool = ILendingPool(_pool);\n        IERC20(_asset).approve(address(pool), _amount);\n\n        pool.deposit(_asset, _amount, _beneficiar, 0);\n        }\n\n\n    function unstake (address _asset, address _pool,uint256 _amount, address _to  ) public override  returns (uint256) {\n        ILendingPool pool = ILendingPool(_pool);\n        pool.withdraw(_asset, _amount, _to);\n        }\n\n    function getPriceOffer (address _asset,  address _pool) public view override returns (uint256) {\n\n        return oraclePrice.getAssetPrice(_asset);\n    }\n\n\n    function getPriceLiq (address _asset, address _pool, uint256 _balance) external view override returns (uint256) {\n\n        uint price = getPriceOffer (_asset, _pool);\n        uint income =  ILendingPool(_pool).getReserveNormalizedIncome(_asset);\n        return price*income / 10**27;\n    }\n\n}\n\n\n\n",
  "sourcePath": "/home/st/Documents/work/OVN/ovngt-mvp/contracts/connectors/ConnectorAAVE.sol",
  "compiler": {
    "name": "solc",
    "version": "0.8.7+commit.e28d00a7.Emscripten.clang"
  },
  "schemaVersion": "3.4.0",
  "updatedAt": "2021-08-16T08:44:11.176Z",
  "networkType": "ethereum",
  "devdoc": {
    "kind": "dev",
    "methods": {
      "owner()": {
        "details": "Returns the address of the current owner."
      },
      "renounceOwnership()": {
        "details": "Leaves the contract without owner. It will not be possible to call `onlyOwner` functions anymore. Can only be called by the current owner. NOTE: Renouncing ownership will leave the contract without an owner, thereby removing any functionality that is only available to the owner."
      },
      "transferOwnership(address)": {
        "details": "Transfers ownership of the contract to a new account (`newOwner`). Can only be called by the current owner."
      }
    },
    "version": 1
  },
  "userdoc": {
    "kind": "user",
    "methods": {},
    "version": 1
  }
}