{
  "contractName": "ConnectorAAVE",
  "abi": [
    {
      "anonymous": false,
      "inputs": [
        {
          "indexed": true,
          "internalType": "address",
          "name": "previousOwner",
          "type": "address"
        },
        {
          "indexed": true,
          "internalType": "address",
          "name": "newOwner",
          "type": "address"
        }
      ],
      "name": "OwnershipTransferred",
      "type": "event"
    },
    {
      "inputs": [],
      "name": "owner",
      "outputs": [
        {
          "internalType": "address",
          "name": "",
          "type": "address"
        }
      ],
      "stateMutability": "view",
      "type": "function",
      "constant": true
    },
    {
      "inputs": [],
      "name": "renounceOwnership",
      "outputs": [],
      "stateMutability": "nonpayable",
      "type": "function"
    },
    {
      "inputs": [
        {
          "internalType": "bytes32",
          "name": "",
          "type": "bytes32"
        }
      ],
      "name": "rolemap",
      "outputs": [
        {
          "internalType": "address",
          "name": "",
          "type": "address"
        }
      ],
      "stateMutability": "view",
      "type": "function",
      "constant": true
    },
    {
      "inputs": [
        {
          "internalType": "bytes32",
          "name": "_role",
          "type": "bytes32"
        },
        {
          "internalType": "address",
          "name": "_actor",
          "type": "address"
        }
      ],
      "name": "setRole",
      "outputs": [],
      "stateMutability": "nonpayable",
      "type": "function"
    },
    {
      "inputs": [
        {
          "internalType": "address",
          "name": "newOwner",
          "type": "address"
        }
      ],
      "name": "transferOwnership",
      "outputs": [],
      "stateMutability": "nonpayable",
      "type": "function"
    },
    {
      "inputs": [
        {
          "internalType": "address",
          "name": "_LPAP",
          "type": "address"
        }
      ],
      "name": "setAAVE",
      "outputs": [],
      "stateMutability": "nonpayable",
      "type": "function"
    },
    {
      "inputs": [
        {
          "internalType": "address",
          "name": "_asset",
          "type": "address"
        },
        {
          "internalType": "address",
          "name": "_pool",
          "type": "address"
        },
        {
          "internalType": "uint256",
          "name": "_amount",
          "type": "uint256"
        },
        {
          "internalType": "address",
          "name": "_beneficiar",
          "type": "address"
        }
      ],
      "name": "stake",
      "outputs": [],
      "stateMutability": "nonpayable",
      "type": "function"
    },
    {
      "inputs": [
        {
          "internalType": "address",
          "name": "_asset",
          "type": "address"
        },
        {
          "internalType": "address",
          "name": "_pool",
          "type": "address"
        },
        {
          "internalType": "uint256",
          "name": "_amount",
          "type": "uint256"
        },
        {
          "internalType": "address",
          "name": "_to",
          "type": "address"
        }
      ],
      "name": "unstake",
      "outputs": [
        {
          "internalType": "uint256",
          "name": "",
          "type": "uint256"
        }
      ],
      "stateMutability": "nonpayable",
      "type": "function"
    },
    {
      "inputs": [
        {
          "internalType": "address",
          "name": "_asset",
          "type": "address"
        },
        {
          "internalType": "address",
          "name": "_pool",
          "type": "address"
        }
      ],
      "name": "getPriceOffer",
      "outputs": [
        {
          "internalType": "uint256",
          "name": "",
          "type": "uint256"
        }
      ],
      "stateMutability": "view",
      "type": "function",
      "constant": true
    },
    {
      "inputs": [
        {
          "internalType": "address",
          "name": "_asset",
          "type": "address"
        },
        {
          "internalType": "address",
          "name": "_pool",
          "type": "address"
        },
        {
          "internalType": "uint256",
          "name": "_balance",
          "type": "uint256"
        }
      ],
      "name": "getPriceLiq",
      "outputs": [
        {
          "internalType": "uint256",
          "name": "",
          "type": "uint256"
        }
      ],
      "stateMutability": "view",
      "type": "function",
      "constant": true
    }
  ],
  "bytecode": "0x608060405234801561001057600080fd5b5061002d61002261003260201b60201c565b61003a60201b60201c565b6100fe565b600033905090565b60008060009054906101000a900473ffffffffffffffffffffffffffffffffffffffff169050816000806101000a81548173ffffffffffffffffffffffffffffffffffffffff021916908373ffffffffffffffffffffffffffffffffffffffff1602179055508173ffffffffffffffffffffffffffffffffffffffff168173ffffffffffffffffffffffffffffffffffffffff167f8be0079c531659141344cd1fd0a4f28419497f9722a3daafe3b4186f6b6457e060405160405180910390a35050565b6111eb8061010d6000396000f3fe608060405234801561001057600080fd5b506004361061009e5760003560e01c80637e566dbf116100665780637e566dbf146101455780638da5cb5b14610175578063c3a543a914610193578063dff87203146101c3578063f2fde38b146101df5761009e565b80632dc10a54146100a35780634c0f83c7146100d35780636291027c146100ef5780637113c9081461010b578063715018a61461013b575b600080fd5b6100bd60048036038101906100b89190610d22565b6101fb565b6040516100ca9190610e2f565b60405180910390f35b6100ed60048036038101906100e89190610ba1565b61022e565b005b61010960048036038101906101049190610c8e565b610435565b005b61012560048036038101906101209190610bfb565b61057f565b6040516101329190610f2f565b60405180910390f35b610143610634565b005b61015f600480360381019061015a9190610c3b565b6106bc565b60405161016c9190610f2f565b60405180910390f35b61017d6107a8565b60405161018a9190610e2f565b60405180910390f35b6101ad60048036038101906101a89190610c8e565b6107d1565b6040516101ba9190610f2f565b60405180910390f35b6101dd60048036038101906101d89190610d4f565b61088d565b005b6101f960048036038101906101f49190610ba1565b61095f565b005b60016020528060005260406000206000915054906101000a900473ffffffffffffffffffffffffffffffffffffffff1681565b610236610a57565b73ffffffffffffffffffffffffffffffffffffffff166102546107a8565b73ffffffffffffffffffffffffffffffffffffffff16146102aa576040517f08c379a00000000000000000000000000000000000000000000000000000000081526004016102a190610f0f565b60405180910390fd5b600081905060008173ffffffffffffffffffffffffffffffffffffffff1663fca513a86040518163ffffffff1660e01b815260040160206040518083038186803b1580156102f757600080fd5b505afa15801561030b573d6000803e3d6000fd5b505050506040513d601f19601f8201168201806040525081019061032f9190610bce565b905080600260006101000a81548173ffffffffffffffffffffffffffffffffffffffff021916908373ffffffffffffffffffffffffffffffffffffffff1602179055508173ffffffffffffffffffffffffffffffffffffffff16630261bf8b6040518163ffffffff1660e01b815260040160206040518083038186803b1580156103b857600080fd5b505afa1580156103cc573d6000803e3d6000fd5b505050506040513d601f19601f820116820180604052508101906103f09190610bce565b600360006101000a81548173ffffffffffffffffffffffffffffffffffffffff021916908373ffffffffffffffffffffffffffffffffffffffff160217905550505050565b8373ffffffffffffffffffffffffffffffffffffffff1663095ea7b3600360009054906101000a900473ffffffffffffffffffffffffffffffffffffffff16846040518363ffffffff1660e01b8152600401610492929190610e4a565b602060405180830381600087803b1580156104ac57600080fd5b505af11580156104c0573d6000803e3d6000fd5b505050506040513d601f19601f820116820180604052508101906104e49190610cf5565b50600360009054906101000a900473ffffffffffffffffffffffffffffffffffffffff1673ffffffffffffffffffffffffffffffffffffffff1663e8eda9df85848460006040518563ffffffff1660e01b81526004016105479493929190610eaa565b600060405180830381600087803b15801561056157600080fd5b505af1158015610575573d6000803e3d6000fd5b5050505050505050565b6000600260009054906101000a900473ffffffffffffffffffffffffffffffffffffffff1673ffffffffffffffffffffffffffffffffffffffff1663b3596f07846040518263ffffffff1660e01b81526004016105dc9190610e2f565b60206040518083038186803b1580156105f457600080fd5b505afa158015610608573d6000803e3d6000fd5b505050506040513d601f19601f8201168201806040525081019061062c9190610d8f565b905092915050565b61063c610a57565b73ffffffffffffffffffffffffffffffffffffffff1661065a6107a8565b73ffffffffffffffffffffffffffffffffffffffff16146106b0576040517f08c379a00000000000000000000000000000000000000000000000000000000081526004016106a790610f0f565b60405180910390fd5b6106ba6000610a5f565b565b6000806106c9858561057f565b90506000600360009054906101000a900473ffffffffffffffffffffffffffffffffffffffff1673ffffffffffffffffffffffffffffffffffffffff1663d15e0053876040518263ffffffff1660e01b81526004016107289190610e2f565b60206040518083038186803b15801561074057600080fd5b505afa158015610754573d6000803e3d6000fd5b505050506040513d601f19601f820116820180604052508101906107789190610d8f565b90506b033b2e3c9fd0803ce800000081836107939190610f8c565b61079d9190610f5b565b925050509392505050565b60008060009054906101000a900473ffffffffffffffffffffffffffffffffffffffff16905090565b6000600360009054906101000a900473ffffffffffffffffffffffffffffffffffffffff1673ffffffffffffffffffffffffffffffffffffffff166369328dec8685856040518463ffffffff1660e01b815260040161083293929190610e73565b602060405180830381600087803b15801561084c57600080fd5b505af1158015610860573d6000803e3d6000fd5b505050506040513d601f19601f820116820180604052508101906108849190610d8f565b50949350505050565b610895610a57565b73ffffffffffffffffffffffffffffffffffffffff166108b36107a8565b73ffffffffffffffffffffffffffffffffffffffff1614610909576040517f08c379a000000000000000000000000000000000000000000000000000000000815260040161090090610f0f565b60405180910390fd5b806001600084815260200190815260200160002060006101000a81548173ffffffffffffffffffffffffffffffffffffffff021916908373ffffffffffffffffffffffffffffffffffffffff1602179055505050565b610967610a57565b73ffffffffffffffffffffffffffffffffffffffff166109856107a8565b73ffffffffffffffffffffffffffffffffffffffff16146109db576040517f08c379a00000000000000000000000000000000000000000000000000000000081526004016109d290610f0f565b60405180910390fd5b600073ffffffffffffffffffffffffffffffffffffffff168173ffffffffffffffffffffffffffffffffffffffff161415610a4b576040517f08c379a0000000000000000000000000000000000000000000000000000000008152600401610a4290610eef565b60405180910390fd5b610a5481610a5f565b50565b600033905090565b60008060009054906101000a900473ffffffffffffffffffffffffffffffffffffffff169050816000806101000a81548173ffffffffffffffffffffffffffffffffffffffff021916908373ffffffffffffffffffffffffffffffffffffffff1602179055508173ffffffffffffffffffffffffffffffffffffffff168173ffffffffffffffffffffffffffffffffffffffff167f8be0079c531659141344cd1fd0a4f28419497f9722a3daafe3b4186f6b6457e060405160405180910390a35050565b600081359050610b3281611159565b92915050565b600081519050610b4781611159565b92915050565b600081519050610b5c81611170565b92915050565b600081359050610b7181611187565b92915050565b600081359050610b868161119e565b92915050565b600081519050610b9b8161119e565b92915050565b600060208284031215610bb757610bb66110b6565b5b6000610bc584828501610b23565b91505092915050565b600060208284031215610be457610be36110b6565b5b6000610bf284828501610b38565b91505092915050565b60008060408385031215610c1257610c116110b6565b5b6000610c2085828601610b23565b9250506020610c3185828601610b23565b9150509250929050565b600080600060608486031215610c5457610c536110b6565b5b6000610c6286828701610b23565b9350506020610c7386828701610b23565b9250506040610c8486828701610b77565b9150509250925092565b60008060008060808587031215610ca857610ca76110b6565b5b6000610cb687828801610b23565b9450506020610cc787828801610b23565b9350506040610cd887828801610b77565b9250506060610ce987828801610b23565b91505092959194509250565b600060208284031215610d0b57610d0a6110b6565b5b6000610d1984828501610b4d565b91505092915050565b600060208284031215610d3857610d376110b6565b5b6000610d4684828501610b62565b91505092915050565b60008060408385031215610d6657610d656110b6565b5b6000610d7485828601610b62565b9250506020610d8585828601610b23565b9150509250929050565b600060208284031215610da557610da46110b6565b5b6000610db384828501610b8c565b91505092915050565b610dc581610fe6565b82525050565b610dd481611046565b82525050565b6000610de7602983610f4a565b9150610df2826110bb565b604082019050919050565b6000610e0a602383610f4a565b9150610e158261110a565b604082019050919050565b610e298161103c565b82525050565b6000602082019050610e446000830184610dbc565b92915050565b6000604082019050610e5f6000830185610dbc565b610e6c6020830184610e20565b9392505050565b6000606082019050610e886000830186610dbc565b610e956020830185610e20565b610ea26040830184610dbc565b949350505050565b6000608082019050610ebf6000830187610dbc565b610ecc6020830186610e20565b610ed96040830185610dbc565b610ee66060830184610dcb565b95945050505050565b60006020820190508181036000830152610f0881610dda565b9050919050565b60006020820190508181036000830152610f2881610dfd565b9050919050565b6000602082019050610f446000830184610e20565b92915050565b600082825260208201905092915050565b6000610f668261103c565b9150610f718361103c565b925082610f8157610f80611087565b5b828204905092915050565b6000610f978261103c565b9150610fa28361103c565b9250817fffffffffffffffffffffffffffffffffffffffffffffffffffffffffffffffff0483118215151615610fdb57610fda611058565b5b828202905092915050565b6000610ff18261101c565b9050919050565b60008115159050919050565b6000819050919050565b600061ffff82169050919050565b600073ffffffffffffffffffffffffffffffffffffffff82169050919050565b6000819050919050565b60006110518261100e565b9050919050565b7f4e487b7100000000000000000000000000000000000000000000000000000000600052601160045260246000fd5b7f4e487b7100000000000000000000000000000000000000000000000000000000600052601260045260246000fd5b600080fd5b7f4f776e61626c654578743a206e6577206f776e657220697320746865207a657260008201527f6f20616464726573730000000000000000000000000000000000000000000000602082015250565b7f4f776e61626c654578743a2063616c6c6572206973206e6f7420746865206f7760008201527f6e65720000000000000000000000000000000000000000000000000000000000602082015250565b61116281610fe6565b811461116d57600080fd5b50565b61117981610ff8565b811461118457600080fd5b50565b61119081611004565b811461119b57600080fd5b50565b6111a78161103c565b81146111b257600080fd5b5056fea2646970667358221220afb4cd0079c68bb64a13333a64bbf0d1539acfefb8c588d25dce61999c9a2a4464736f6c63430008060033",
  "immutableReferences": {},
  "source": "// SPDX-License-Identifier: GPL-3.0\n\npragma solidity >=0.8.0 <0.9.0;\nimport \"../interfaces/IConnector.sol\";\nimport \"./aave/interfaces/ILendingPool.sol\";\nimport \"./aave/interfaces/ILendingPoolAddressesProvider.sol\";\nimport \"./aave/interfaces/IPriceOracleGetter.sol\";\n\nimport \"@openzeppelin/contracts/token/ERC20/IERC20.sol\";\n\nimport \"../OwnableExt.sol\";\n\n\ncontract ConnectorAAVE is IConnector, OwnableExt {\n    IPriceOracleGetter oraclePrice; \n    ILendingPool pool;\n    function setAAVE  (address _LPAP) public onlyOwner {\n        ILendingPoolAddressesProvider lpap = ILendingPoolAddressesProvider(_LPAP);\n        address oracle = lpap.getPriceOracle();\n        oraclePrice = IPriceOracleGetter (oracle); \n        pool = ILendingPool(lpap.getLendingPool());\n\n    }\n\n\n    function stake (address _asset, address _pool, uint256 _amount, address _beneficiar ) public override  {\n     //   ILendingPool pool = ILendingPool(_pool);\n        IERC20(_asset).approve(address(pool), _amount);\n\n        pool.deposit(_asset, _amount, _beneficiar, 0);\n        }\n\n\n    function unstake (address _asset, address _pool,uint256 _amount, address _to  ) public override  returns (uint256) {\n     //   ILendingPool pool = ILendingPool(_pool);\n        pool.withdraw(_asset, _amount, _to);\n        }\n\n    function getPriceOffer (address _asset,  address _pool) public view override returns (uint256) {\n\n        return  oraclePrice.getAssetPrice(_asset);\n    }\n\n\n    function getPriceLiq (address _asset, address _pool, uint256 _balance) external view override returns (uint256) {\n\n        uint price = getPriceOffer (_asset, _pool);\n        uint income = pool.getReserveNormalizedIncome(_asset);\n        return price*income / 10**27;\n    }\n\n}\n\n\n\n",
  "sourcePath": "/home/st/Documents/work/OVN/ovngt-mvp/contracts/connectors/ConnectorAAVE.sol",
  "compiler": {
    "name": "solc",
    "version": "0.8.6+commit.11564f7e.Emscripten.clang"
  },
  "schemaVersion": "3.4.0",
  "updatedAt": "2021-08-19T08:09:11.216Z",
  "networkType": "ethereum",
  "devdoc": {
    "kind": "dev",
    "methods": {
      "owner()": {
        "details": "Returns the address of the current owner."
      },
      "renounceOwnership()": {
        "details": "Leaves the contract without owner. It will not be possible to call `onlyOwner` functions anymore. Can only be called by the current owner. NOTE: Renouncing ownership will leave the contract without an owner, thereby removing any functionality that is only available to the owner."
      },
      "transferOwnership(address)": {
        "details": "Transfers ownership of the contract to a new account (`newOwner`). Can only be called by the current owner."
      }
    },
    "version": 1
  },
  "userdoc": {
    "kind": "user",
    "methods": {},
    "version": 1
  }
}