{
  "contractName": "DepositAAVE",
  "abi": [
    {
      "inputs": [
        {
          "internalType": "address",
          "name": "_asset",
          "type": "address"
        },
        {
          "internalType": "uint256",
          "name": "_amount",
          "type": "uint256"
        },
        {
          "internalType": "address",
          "name": "_ben",
          "type": "address"
        },
        {
          "internalType": "address",
          "name": "_LPAP",
          "type": "address"
        }
      ],
      "name": "deposit",
      "outputs": [],
      "stateMutability": "payable",
      "type": "function",
      "payable": true
    }
  ],
  "bytecode": "0x608060405234801561001057600080fd5b5061052d806100206000396000f3fe60806040526004361061001e5760003560e01c8063c6f1649f14610023575b600080fd5b61003d600480360381019061003891906102df565b61003f565b005b600081905060008173ffffffffffffffffffffffffffffffffffffffff16630261bf8b6040518163ffffffff1660e01b815260040160206040518083038186803b15801561008c57600080fd5b505afa1580156100a0573d6000803e3d6000fd5b505050506040513d601f19601f820116820180604052508101906100c491906102b2565b90508573ffffffffffffffffffffffffffffffffffffffff166323b872dd3330886040518463ffffffff1660e01b8152600401610103939291906103a0565b602060405180830381600087803b15801561011d57600080fd5b505af1158015610131573d6000803e3d6000fd5b505050506040513d601f19601f820116820180604052508101906101559190610346565b508573ffffffffffffffffffffffffffffffffffffffff1663095ea7b382876040518363ffffffff1660e01b81526004016101919291906103d7565b602060405180830381600087803b1580156101ab57600080fd5b505af11580156101bf573d6000803e3d6000fd5b505050506040513d601f19601f820116820180604052508101906101e39190610346565b508073ffffffffffffffffffffffffffffffffffffffff1663e8eda9df87878760006040518563ffffffff1660e01b81526004016102249493929190610400565b600060405180830381600087803b15801561023e57600080fd5b505af1158015610252573d6000803e3d6000fd5b50505050505050505050565b60008135905061026d816104b2565b92915050565b600081519050610282816104b2565b92915050565b600081519050610297816104c9565b92915050565b6000813590506102ac816104e0565b92915050565b6000602082840312156102c8576102c76104ad565b5b60006102d684828501610273565b91505092915050565b600080600080608085870312156102f9576102f86104ad565b5b60006103078782880161025e565b94505060206103188782880161029d565b93505060406103298782880161025e565b925050606061033a8782880161025e565b91505092959194509250565b60006020828403121561035c5761035b6104ad565b5b600061036a84828501610288565b91505092915050565b61037c81610445565b82525050565b61038b8161049b565b82525050565b61039a81610491565b82525050565b60006060820190506103b56000830186610373565b6103c26020830185610373565b6103cf6040830184610391565b949350505050565b60006040820190506103ec6000830185610373565b6103f96020830184610391565b9392505050565b60006080820190506104156000830187610373565b6104226020830186610391565b61042f6040830185610373565b61043c6060830184610382565b95945050505050565b600061045082610471565b9050919050565b60008115159050919050565b600061ffff82169050919050565b600073ffffffffffffffffffffffffffffffffffffffff82169050919050565b6000819050919050565b60006104a682610463565b9050919050565b600080fd5b6104bb81610445565b81146104c657600080fd5b50565b6104d281610457565b81146104dd57600080fd5b50565b6104e981610491565b81146104f457600080fd5b5056fea2646970667358221220b2e3031ff80e68a7aecb6de90ded39030fcb8c3edbd0087c1565e06260eab59664736f6c63430008060033",
  "immutableReferences": {},
  "source": "pragma solidity >=0.8.0 <0.9.0;\nimport \"../connectors/aave/interfaces/ILendingPool.sol\";\nimport \"../connectors/aave/interfaces/ILendingPoolAddressesProvider.sol\";\nimport \"@openzeppelin/contracts/token/ERC20/IERC20.sol\";\n\n\ncontract DepositAAVE {\n    function deposit (address _asset, uint _amount, address _ben, address _LPAP ) public payable {\n        ILendingPoolAddressesProvider lpap = ILendingPoolAddressesProvider(_LPAP);\n        ILendingPool pool = ILendingPool(lpap.getLendingPool());\n        IERC20(_asset).transferFrom(msg.sender, address(this), _amount);\n        IERC20(_asset).approve(address(pool), _amount);\n        pool.deposit(_asset, _amount, _ben , 0);\n   \n\n    }\n}",
  "sourcePath": "/home/st/Documents/work/OVN/ovngt-mvp/contracts/tests/DepositAAVE.sol",
  "compiler": {
    "name": "solc",
    "version": "0.8.6+commit.11564f7e.Emscripten.clang"
  },
  "schemaVersion": "3.4.0",
  "updatedAt": "2021-08-20T10:32:46.382Z",
  "networkType": "ethereum",
  "devdoc": {
    "kind": "dev",
    "methods": {},
    "version": 1
  },
  "userdoc": {
    "kind": "user",
    "methods": {},
    "version": 1
  }
}