{
  "contractName": "Exchange",
  "abi": [
    {
      "inputs": [
        {
          "internalType": "address",
          "name": "_ovn",
          "type": "address"
        },
        {
          "internalType": "address",
          "name": "_usdc",
          "type": "address"
        }
      ],
      "name": "setTokens",
      "outputs": [],
      "stateMutability": "nonpayable",
      "type": "function"
    },
    {
      "inputs": [
        {
          "internalType": "uint256",
          "name": "_amount",
          "type": "uint256"
        }
      ],
      "name": "buy",
      "outputs": [],
      "stateMutability": "nonpayable",
      "type": "function"
    },
    {
      "inputs": [],
      "name": "balance",
      "outputs": [
        {
          "internalType": "uint256",
          "name": "",
          "type": "uint256"
        }
      ],
      "stateMutability": "view",
      "type": "function",
      "constant": true
    },
    {
      "inputs": [
        {
          "internalType": "uint256",
          "name": "_amount",
          "type": "uint256"
        }
      ],
      "name": "redeem",
      "outputs": [],
      "stateMutability": "nonpayable",
      "type": "function"
    }
  ],
  "bytecode": "0x608060405234801561001057600080fd5b506107c2806100206000396000f3fe608060405234801561001057600080fd5b506004361061004c5760003560e01c8063b69ef8a814610051578063cbc7854e1461006f578063d96a094a1461008b578063db006a75146100a7575b600080fd5b6100596100c3565b60405161006691906106df565b60405180910390f35b6100896004803603810190610084919061057f565b610174565b005b6100a560048036038101906100a091906105ec565b6101f9565b005b6100c160048036038101906100bc91906105ec565b61033b565b005b60008060009054906101000a900473ffffffffffffffffffffffffffffffffffffffff1673ffffffffffffffffffffffffffffffffffffffff166370a08231336040518263ffffffff1660e01b815260040161011f9190610664565b60206040518083038186803b15801561013757600080fd5b505afa15801561014b573d6000803e3d6000fd5b505050506040513d601f19601f8201168201806040525081019061016f9190610619565b905090565b816000806101000a81548173ffffffffffffffffffffffffffffffffffffffff021916908373ffffffffffffffffffffffffffffffffffffffff16021790555080600160006101000a81548173ffffffffffffffffffffffffffffffffffffffff021916908373ffffffffffffffffffffffffffffffffffffffff1602179055505050565b600160009054906101000a900473ffffffffffffffffffffffffffffffffffffffff1673ffffffffffffffffffffffffffffffffffffffff166323b872dd3330846040518463ffffffff1660e01b81526004016102589392919061067f565b602060405180830381600087803b15801561027257600080fd5b505af1158015610286573d6000803e3d6000fd5b505050506040513d601f19601f820116820180604052508101906102aa91906105bf565b5060008054906101000a900473ffffffffffffffffffffffffffffffffffffffff1673ffffffffffffffffffffffffffffffffffffffff166340c10f1933836040518363ffffffff1660e01b81526004016103069291906106b6565b600060405180830381600087803b15801561032057600080fd5b505af1158015610334573d6000803e3d6000fd5b5050505050565b60008054906101000a900473ffffffffffffffffffffffffffffffffffffffff1673ffffffffffffffffffffffffffffffffffffffff166323b872dd3330846040518463ffffffff1660e01b81526004016103989392919061067f565b602060405180830381600087803b1580156103b257600080fd5b505af11580156103c6573d6000803e3d6000fd5b505050506040513d601f19601f820116820180604052508101906103ea91906105bf565b5060008054906101000a900473ffffffffffffffffffffffffffffffffffffffff1673ffffffffffffffffffffffffffffffffffffffff16639dc29fac33836040518363ffffffff1660e01b81526004016104469291906106b6565b600060405180830381600087803b15801561046057600080fd5b505af1158015610474573d6000803e3d6000fd5b50505050600160009054906101000a900473ffffffffffffffffffffffffffffffffffffffff1673ffffffffffffffffffffffffffffffffffffffff1663a9059cbb33836040518363ffffffff1660e01b81526004016104d59291906106b6565b602060405180830381600087803b1580156104ef57600080fd5b505af1158015610503573d6000803e3d6000fd5b505050506040513d601f19601f8201168201806040525081019061052791906105bf565b5050565b60008135905061053a81610747565b92915050565b60008151905061054f8161075e565b92915050565b60008135905061056481610775565b92915050565b60008151905061057981610775565b92915050565b6000806040838503121561059657610595610742565b5b60006105a48582860161052b565b92505060206105b58582860161052b565b9150509250929050565b6000602082840312156105d5576105d4610742565b5b60006105e384828501610540565b91505092915050565b60006020828403121561060257610601610742565b5b600061061084828501610555565b91505092915050565b60006020828403121561062f5761062e610742565b5b600061063d8482850161056a565b91505092915050565b61064f816106fa565b82525050565b61065e81610738565b82525050565b60006020820190506106796000830184610646565b92915050565b60006060820190506106946000830186610646565b6106a16020830185610646565b6106ae6040830184610655565b949350505050565b60006040820190506106cb6000830185610646565b6106d86020830184610655565b9392505050565b60006020820190506106f46000830184610655565b92915050565b600061070582610718565b9050919050565b60008115159050919050565b600073ffffffffffffffffffffffffffffffffffffffff82169050919050565b6000819050919050565b600080fd5b610750816106fa565b811461075b57600080fd5b50565b6107678161070c565b811461077257600080fd5b50565b61077e81610738565b811461078957600080fd5b5056fea2646970667358221220379c017bb73139b16585d86818d84c1ff050c5125777b958fe80d7b41622532a64736f6c63430008070033",
  "immutableReferences": {},
  "source": "// SPDX-License-Identifier: MIT\npragma solidity >=0.5 <0.9.0;\n\nimport \"@openzeppelin/contracts/token/ERC20/IERC20.sol\";\nimport \"./interfaces/IERC20MintableBurnable.sol\";\n\ncontract Exchange {\n    IERC20MintableBurnable ovn;\n    IERC20 usdc;\n\n\n    function setTokens(address _ovn, address _usdc) public {\n        ovn = IERC20MintableBurnable(_ovn);\n        usdc = IERC20(_usdc);\n    }\n\n    function buy(uint256 _amount) public {\n      \n        usdc.transferFrom(msg.sender, address(this), _amount);\n        ovn.mint(msg.sender, _amount);\n\n    }\n\n    function balance() public view returns (uint) {\n        return ovn.balanceOf(msg.sender);\n    }\n\n    function redeem(uint256 _amount) public {\n\n        ovn.transferFrom(msg.sender, address(this), _amount);\n        ovn.burn(msg.sender, _amount);\n\n        // TODO: correct amount by rates or oracles\n        // TODO: check threshhold limits to withdraw deposite\n        usdc.transfer(msg.sender, _amount);\n    }\n}\n",
  "sourcePath": "/home/vorh/IdeaProjects/Projects-Work/overnight/ovngt-mvp/contracts/Exchange.sol",
  "compiler": {
    "name": "solc",
    "version": "0.8.7+commit.e28d00a7.Emscripten.clang"
  },
  "schemaVersion": "3.4.1",
  "updatedAt": "2021-08-14T08:38:15.100Z",
  "networkType": "ethereum",
  "devdoc": {
    "kind": "dev",
    "methods": {},
    "version": 1
  },
  "userdoc": {
    "kind": "user",
    "methods": {},
    "version": 1
  }
}