{
  "contractName": "Exchange",
  "abi": [
    {
      "anonymous": false,
      "inputs": [
        {
          "indexed": true,
          "internalType": "address",
          "name": "previousOwner",
          "type": "address"
        },
        {
          "indexed": true,
          "internalType": "address",
          "name": "newOwner",
          "type": "address"
        }
      ],
      "name": "OwnershipTransferred",
      "type": "event"
    },
    {
      "inputs": [],
      "name": "owner",
      "outputs": [
        {
          "internalType": "address",
          "name": "",
          "type": "address"
        }
      ],
      "stateMutability": "view",
      "type": "function"
    },
    {
      "inputs": [],
      "name": "renounceOwnership",
      "outputs": [],
      "stateMutability": "nonpayable",
      "type": "function"
    },
    {
      "inputs": [
        {
          "internalType": "bytes32",
          "name": "",
          "type": "bytes32"
        }
      ],
      "name": "rolemap",
      "outputs": [
        {
          "internalType": "address",
          "name": "",
          "type": "address"
        }
      ],
      "stateMutability": "view",
      "type": "function"
    },
    {
      "inputs": [
        {
          "internalType": "bytes32",
          "name": "_role",
          "type": "bytes32"
        },
        {
          "internalType": "address",
          "name": "_actor",
          "type": "address"
        }
      ],
      "name": "setRole",
      "outputs": [],
      "stateMutability": "nonpayable",
      "type": "function"
    },
    {
      "inputs": [
        {
          "internalType": "address",
          "name": "newOwner",
          "type": "address"
        }
      ],
      "name": "transferOwnership",
      "outputs": [],
      "stateMutability": "nonpayable",
      "type": "function"
    },
    {
      "inputs": [
        {
          "internalType": "address",
          "name": "_ovn",
          "type": "address"
        },
        {
          "internalType": "address",
          "name": "_usdc",
          "type": "address"
        }
      ],
      "name": "setTokens",
      "outputs": [],
      "stateMutability": "nonpayable",
      "type": "function"
    },
    {
      "inputs": [
        {
          "internalType": "address",
          "name": "_addrAL",
          "type": "address"
        },
        {
          "internalType": "address",
          "name": "_addrPM",
          "type": "address"
        }
      ],
      "name": "setAddr",
      "outputs": [],
      "stateMutability": "nonpayable",
      "type": "function"
    },
    {
      "inputs": [
        {
          "internalType": "address",
          "name": "_addrTok",
          "type": "address"
        },
        {
          "internalType": "uint256",
          "name": "_amount",
          "type": "uint256"
        }
      ],
      "name": "buy",
      "outputs": [],
      "stateMutability": "nonpayable",
      "type": "function"
    },
    {
      "inputs": [],
      "name": "balance",
      "outputs": [
        {
          "internalType": "uint256",
          "name": "",
          "type": "uint256"
        }
      ],
      "stateMutability": "view",
      "type": "function"
    },
    {
      "inputs": [
        {
          "internalType": "address",
          "name": "_addrTok",
          "type": "address"
        },
        {
          "internalType": "uint256",
          "name": "_amount",
          "type": "uint256"
        }
      ],
      "name": "redeem",
      "outputs": [],
      "stateMutability": "nonpayable",
      "type": "function"
    }
  ],
  "bytecode": "0x608060405234801561001057600080fd5b5061002d61002261003260201b60201c565b61003a60201b60201c565b6100fe565b600033905090565b60008060009054906101000a900473ffffffffffffffffffffffffffffffffffffffff169050816000806101000a81548173ffffffffffffffffffffffffffffffffffffffff021916908373ffffffffffffffffffffffffffffffffffffffff1602179055508173ffffffffffffffffffffffffffffffffffffffff168173ffffffffffffffffffffffffffffffffffffffff167f8be0079c531659141344cd1fd0a4f28419497f9722a3daafe3b4186f6b6457e060405160405180910390a35050565b6112078061010d6000396000f3fe608060405234801561001057600080fd5b506004361061009e5760003560e01c8063cbc7854e11610066578063cbc7854e14610135578063cce7ec1314610151578063dff872031461016d578063ebcb00e014610189578063f2fde38b146101a55761009e565b80631e9a6950146100a35780632dc10a54146100bf578063715018a6146100ef5780638da5cb5b146100f9578063b69ef8a814610117575b600080fd5b6100bd60048036038101906100b89190610d71565b6101c1565b005b6100d960048036038101906100d49190610dde565b61037a565b6040516100e69190610eeb565b60405180910390f35b6100f76103ad565b005b610101610435565b60405161010e9190610eeb565b60405180910390f35b61011f61045e565b60405161012c9190610fcf565b60405180910390f35b61014f600480360381019061014a9190610d31565b610510565b005b61016b60048036038101906101669190610d71565b610612565b005b61018760048036038101906101829190610e0b565b610903565b005b6101a3600480360381019061019e9190610d31565b6109d5565b005b6101bf60048036038101906101ba9190610d04565b610ad7565b005b600260009054906101000a900473ffffffffffffffffffffffffffffffffffffffff1673ffffffffffffffffffffffffffffffffffffffff16639dc29fac33836040518363ffffffff1660e01b815260040161021e929190610f66565b600060405180830381600087803b15801561023857600080fd5b505af115801561024c573d6000803e3d6000fd5b50505050600460009054906101000a900473ffffffffffffffffffffffffffffffffffffffff1673ffffffffffffffffffffffffffffffffffffffff16636bb7782b83836102999061105a565b6040518363ffffffff1660e01b81526004016102b6929190610f3d565b600060405180830381600087803b1580156102d057600080fd5b505af11580156102e4573d6000803e3d6000fd5b505050508173ffffffffffffffffffffffffffffffffffffffff1663a9059cbb33836040518363ffffffff1660e01b8152600401610323929190610f66565b602060405180830381600087803b15801561033d57600080fd5b505af1158015610351573d6000803e3d6000fd5b505050506040513d601f19601f820116820180604052508101906103759190610db1565b505050565b60016020528060005260406000206000915054906101000a900473ffffffffffffffffffffffffffffffffffffffff1681565b6103b5610bcf565b73ffffffffffffffffffffffffffffffffffffffff166103d3610435565b73ffffffffffffffffffffffffffffffffffffffff1614610429576040517f08c379a000000000000000000000000000000000000000000000000000000000815260040161042090610faf565b60405180910390fd5b6104336000610bd7565b565b60008060009054906101000a900473ffffffffffffffffffffffffffffffffffffffff16905090565b6000600260009054906101000a900473ffffffffffffffffffffffffffffffffffffffff1673ffffffffffffffffffffffffffffffffffffffff166370a08231336040518263ffffffff1660e01b81526004016104bb9190610eeb565b60206040518083038186803b1580156104d357600080fd5b505afa1580156104e7573d6000803e3d6000fd5b505050506040513d601f19601f8201168201806040525081019061050b9190610e4b565b905090565b610518610bcf565b73ffffffffffffffffffffffffffffffffffffffff16610536610435565b73ffffffffffffffffffffffffffffffffffffffff161461058c576040517f08c379a000000000000000000000000000000000000000000000000000000000815260040161058390610faf565b60405180910390fd5b81600260006101000a81548173ffffffffffffffffffffffffffffffffffffffff021916908373ffffffffffffffffffffffffffffffffffffffff16021790555080600360006101000a81548173ffffffffffffffffffffffffffffffffffffffff021916908373ffffffffffffffffffffffffffffffffffffffff1602179055505050565b8173ffffffffffffffffffffffffffffffffffffffff166323b872dd3330846040518463ffffffff1660e01b815260040161064f93929190610f06565b602060405180830381600087803b15801561066957600080fd5b505af115801561067d573d6000803e3d6000fd5b505050506040513d601f19601f820116820180604052508101906106a19190610db1565b50600260009054906101000a900473ffffffffffffffffffffffffffffffffffffffff1673ffffffffffffffffffffffffffffffffffffffff166340c10f1933836040518363ffffffff1660e01b81526004016106ff929190610f66565b600060405180830381600087803b15801561071957600080fd5b505af115801561072d573d6000803e3d6000fd5b50505050600460009054906101000a900473ffffffffffffffffffffffffffffffffffffffff1673ffffffffffffffffffffffffffffffffffffffff16636bb7782b83836040518363ffffffff1660e01b815260040161078e929190610f3d565b600060405180830381600087803b1580156107a857600080fd5b505af11580156107bc573d6000803e3d6000fd5b505050508173ffffffffffffffffffffffffffffffffffffffff1663a9059cbb600560009054906101000a900473ffffffffffffffffffffffffffffffffffffffff16836040518363ffffffff1660e01b815260040161081d929190610f66565b602060405180830381600087803b15801561083757600080fd5b505af115801561084b573d6000803e3d6000fd5b505050506040513d601f19601f8201168201806040525081019061086f9190610db1565b50600560009054906101000a900473ffffffffffffffffffffffffffffffffffffffff1673ffffffffffffffffffffffffffffffffffffffff1663adc9772e83836040518363ffffffff1660e01b81526004016108cd929190610f66565b600060405180830381600087803b1580156108e757600080fd5b505af11580156108fb573d6000803e3d6000fd5b505050505050565b61090b610bcf565b73ffffffffffffffffffffffffffffffffffffffff16610929610435565b73ffffffffffffffffffffffffffffffffffffffff161461097f576040517f08c379a000000000000000000000000000000000000000000000000000000000815260040161097690610faf565b60405180910390fd5b806001600084815260200190815260200160002060006101000a81548173ffffffffffffffffffffffffffffffffffffffff021916908373ffffffffffffffffffffffffffffffffffffffff1602179055505050565b6109dd610bcf565b73ffffffffffffffffffffffffffffffffffffffff166109fb610435565b73ffffffffffffffffffffffffffffffffffffffff1614610a51576040517f08c379a0000000000000000000000000000000000000000000000000000000008152600401610a4890610faf565b60405180910390fd5b81600460006101000a81548173ffffffffffffffffffffffffffffffffffffffff021916908373ffffffffffffffffffffffffffffffffffffffff16021790555080600560006101000a81548173ffffffffffffffffffffffffffffffffffffffff021916908373ffffffffffffffffffffffffffffffffffffffff1602179055505050565b610adf610bcf565b73ffffffffffffffffffffffffffffffffffffffff16610afd610435565b73ffffffffffffffffffffffffffffffffffffffff1614610b53576040517f08c379a0000000000000000000000000000000000000000000000000000000008152600401610b4a90610faf565b60405180910390fd5b600073ffffffffffffffffffffffffffffffffffffffff168173ffffffffffffffffffffffffffffffffffffffff161415610bc3576040517f08c379a0000000000000000000000000000000000000000000000000000000008152600401610bba90610f8f565b60405180910390fd5b610bcc81610bd7565b50565b600033905090565b60008060009054906101000a900473ffffffffffffffffffffffffffffffffffffffff169050816000806101000a81548173ffffffffffffffffffffffffffffffffffffffff021916908373ffffffffffffffffffffffffffffffffffffffff1602179055508173ffffffffffffffffffffffffffffffffffffffff168173ffffffffffffffffffffffffffffffffffffffff167f8be0079c531659141344cd1fd0a4f28419497f9722a3daafe3b4186f6b6457e060405160405180910390a35050565b600081359050610caa81611175565b92915050565b600081519050610cbf8161118c565b92915050565b600081359050610cd4816111a3565b92915050565b600081359050610ce9816111ba565b92915050565b600081519050610cfe816111ba565b92915050565b600060208284031215610d1a57610d196110d2565b5b6000610d2884828501610c9b565b91505092915050565b60008060408385031215610d4857610d476110d2565b5b6000610d5685828601610c9b565b9250506020610d6785828601610c9b565b9150509250929050565b60008060408385031215610d8857610d876110d2565b5b6000610d9685828601610c9b565b9250506020610da785828601610cda565b9150509250929050565b600060208284031215610dc757610dc66110d2565b5b6000610dd584828501610cb0565b91505092915050565b600060208284031215610df457610df36110d2565b5b6000610e0284828501610cc5565b91505092915050565b60008060408385031215610e2257610e216110d2565b5b6000610e3085828601610cc5565b9250506020610e4185828601610c9b565b9150509250929050565b600060208284031215610e6157610e606110d2565b5b6000610e6f84828501610cef565b91505092915050565b610e8181610ffb565b82525050565b610e9081611023565b82525050565b6000610ea3602983610fea565b9150610eae826110d7565b604082019050919050565b6000610ec6602383610fea565b9150610ed182611126565b604082019050919050565b610ee581611050565b82525050565b6000602082019050610f006000830184610e78565b92915050565b6000606082019050610f1b6000830186610e78565b610f286020830185610e78565b610f356040830184610edc565b949350505050565b6000604082019050610f526000830185610e78565b610f5f6020830184610e87565b9392505050565b6000604082019050610f7b6000830185610e78565b610f886020830184610edc565b9392505050565b60006020820190508181036000830152610fa881610e96565b9050919050565b60006020820190508181036000830152610fc881610eb9565b9050919050565b6000602082019050610fe46000830184610edc565b92915050565b600082825260208201905092915050565b600061100682611030565b9050919050565b60008115159050919050565b6000819050919050565b600081600f0b9050919050565b600073ffffffffffffffffffffffffffffffffffffffff82169050919050565b6000819050919050565b600061106582611023565b91507fffffffffffffffffffffffffffffffff80000000000000000000000000000000821415611098576110976110a3565b5b816000039050919050565b7f4e487b7100000000000000000000000000000000000000000000000000000000600052601160045260246000fd5b600080fd5b7f4f776e61626c654578743a206e6577206f776e657220697320746865207a657260008201527f6f20616464726573730000000000000000000000000000000000000000000000602082015250565b7f4f776e61626c654578743a2063616c6c6572206973206e6f7420746865206f7760008201527f6e65720000000000000000000000000000000000000000000000000000000000602082015250565b61117e81610ffb565b811461118957600080fd5b50565b6111958161100d565b81146111a057600080fd5b50565b6111ac81611019565b81146111b757600080fd5b50565b6111c381611050565b81146111ce57600080fd5b5056fea2646970667358221220b4aeb4b399826e9f94d2e470b0e92481be997e6c9d81edd8351e1014346dc7d664736f6c63430008060033",
  "immutableReferences": {},
  "source": "// SPDX-License-Identifier: MIT\npragma solidity >=0.8 <0.9.0;\n\nimport \"@openzeppelin/contracts/token/ERC20/IERC20.sol\";\nimport \"./interfaces/IERC20MintableBurnable.sol\";\nimport \"./interfaces/IActivesList.sol\";\nimport \"./OwnableExt.sol\";\nimport \"./interfaces/IPortfolioManager.sol\";\n\n\ncontract Exchange is OwnableExt {\n    IERC20MintableBurnable ovn;\n    IERC20 usdc;\n    IActivesList actList;\n    IPortfolioManager PM; //portfolio manager contract\n\n    function setTokens(address _ovn, address _usdc) external onlyOwner {\n        ovn = IERC20MintableBurnable(_ovn);\n        usdc = IERC20(_usdc);\n    }\n\n    function setAddr (address _addrAL, address _addrPM  ) external onlyOwner {\n        actList = IActivesList(_addrAL);\n        PM = IPortfolioManager(_addrPM);\n    }\n\n    function buy(address _addrTok, uint256 _amount) public {\n\n        IERC20(_addrTok).transferFrom(msg.sender, address(this), _amount);\n        ovn.mint(msg.sender, _amount);\n        actList.changeBal(_addrTok, int128(uint128(_amount)));\n// call portfolio manager\n        IERC20(_addrTok).transfer(address(PM), _amount);\n        PM.stake ( _addrTok, _amount);\n    }\n\n    function balance() public view returns (uint) {\n        return ovn.balanceOf(msg.sender);\n    }\n\n    function redeem(address _addrTok, uint256 _amount) public {\n\n        // Transfer from sender to contract then burn from contract\n        // ovn.transferFrom(msg.sender, address(this), _amount);\n        // ovn.burn(address(this), _amount);\n\n        // Or just burn from sender\n        ovn.burn(msg.sender, _amount);\n\n        actList.changeBal(_addrTok, -int128(uint128(_amount)));\n\n        // TODO: correct amount by rates or oracles\n        // TODO: check threshhold limits to withdraw deposite\n        IERC20(_addrTok).transfer(msg.sender, _amount);\n    }\n}\n",
  "sourcePath": "/home/st/Documents/work/OVN/ovngt-mvp/contracts/Exchange.sol",
  "compiler": {
    "name": "solc",
    "version": "0.8.6+commit.11564f7e.Emscripten.clang"
  },
  "schemaVersion": "3.4.0",
  "updatedAt": "2021-08-20T13:52:20.648Z",
  "devdoc": {
    "kind": "dev",
    "methods": {
      "owner()": {
        "details": "Returns the address of the current owner."
      },
      "renounceOwnership()": {
        "details": "Leaves the contract without owner. It will not be possible to call `onlyOwner` functions anymore. Can only be called by the current owner. NOTE: Renouncing ownership will leave the contract without an owner, thereby removing any functionality that is only available to the owner."
      },
      "transferOwnership(address)": {
        "details": "Transfers ownership of the contract to a new account (`newOwner`). Can only be called by the current owner."
      }
    },
    "version": 1
  },
  "userdoc": {
    "kind": "user",
    "methods": {},
    "version": 1
  }
}