{
  "contractName": "Mark2Market",
  "abi": [
    {
      "anonymous": false,
      "inputs": [
        {
          "indexed": true,
          "internalType": "address",
          "name": "previousOwner",
          "type": "address"
        },
        {
          "indexed": true,
          "internalType": "address",
          "name": "newOwner",
          "type": "address"
        }
      ],
      "name": "OwnershipTransferred",
      "type": "event"
    },
    {
      "inputs": [],
      "name": "owner",
      "outputs": [
        {
          "internalType": "address",
          "name": "",
          "type": "address"
        }
      ],
      "stateMutability": "view",
      "type": "function",
      "constant": true
    },
    {
      "inputs": [],
      "name": "renounceOwnership",
      "outputs": [],
      "stateMutability": "nonpayable",
      "type": "function"
    },
    {
      "inputs": [
        {
          "internalType": "bytes32",
          "name": "",
          "type": "bytes32"
        }
      ],
      "name": "rolemap",
      "outputs": [
        {
          "internalType": "address",
          "name": "",
          "type": "address"
        }
      ],
      "stateMutability": "view",
      "type": "function",
      "constant": true
    },
    {
      "inputs": [
        {
          "internalType": "bytes32",
          "name": "_role",
          "type": "bytes32"
        },
        {
          "internalType": "address",
          "name": "_actor",
          "type": "address"
        }
      ],
      "name": "setRole",
      "outputs": [],
      "stateMutability": "nonpayable",
      "type": "function"
    },
    {
      "inputs": [
        {
          "internalType": "address",
          "name": "newOwner",
          "type": "address"
        }
      ],
      "name": "transferOwnership",
      "outputs": [],
      "stateMutability": "nonpayable",
      "type": "function"
    },
    {
      "inputs": [
        {
          "internalType": "address",
          "name": "_addr",
          "type": "address"
        }
      ],
      "name": "setActList",
      "outputs": [],
      "stateMutability": "nonpayable",
      "type": "function"
    },
    {
      "inputs": [],
      "name": "activesPrices",
      "outputs": [
        {
          "components": [
            {
              "components": [
                {
                  "internalType": "address",
                  "name": "actAddress",
                  "type": "address"
                },
                {
                  "internalType": "address",
                  "name": "poolPriceAddr",
                  "type": "address"
                },
                {
                  "internalType": "address",
                  "name": "connectorStakeAddr",
                  "type": "address"
                },
                {
                  "internalType": "uint256",
                  "name": "balance",
                  "type": "uint256"
                },
                {
                  "internalType": "uint16",
                  "name": "minShare",
                  "type": "uint16"
                },
                {
                  "internalType": "uint16",
                  "name": "maxShare",
                  "type": "uint16"
                },
                {
                  "internalType": "uint8",
                  "name": "isWork",
                  "type": "uint8"
                }
              ],
              "internalType": "struct IActivesList.Active",
              "name": "active",
              "type": "tuple"
            },
            {
              "internalType": "uint256",
              "name": "price",
              "type": "uint256"
            }
          ],
          "internalType": "struct IMark2Market.ActivesPrices[10]",
          "name": "ap",
          "type": "tuple[10]"
        }
      ],
      "stateMutability": "view",
      "type": "function",
      "constant": true
    },
    {
      "inputs": [
        {
          "internalType": "uint256",
          "name": "_tst",
          "type": "uint256"
        }
      ],
      "name": "tstPrice",
      "outputs": [],
      "stateMutability": "nonpayable",
      "type": "function"
    }
  ],
  "bytecode": "0x608060405234801561001057600080fd5b5061002d61002261003260201b60201c565b61003a60201b60201c565b6100fe565b600033905090565b60008060009054906101000a900473ffffffffffffffffffffffffffffffffffffffff169050816000806101000a81548173ffffffffffffffffffffffffffffffffffffffff021916908373ffffffffffffffffffffffffffffffffffffffff1602179055508173ffffffffffffffffffffffffffffffffffffffff168173ffffffffffffffffffffffffffffffffffffffff167f8be0079c531659141344cd1fd0a4f28419497f9722a3daafe3b4186f6b6457e060405160405180910390a35050565b6112808061010d6000396000f3fe608060405234801561001057600080fd5b50600436106100885760003560e01c80638f5e842c1161005b5780638f5e842c14610101578063dff872031461011d578063f2fde38b14610139578063f4a937101461015557610088565b80632dc10a541461008d578063402748b3146100bd578063715018a6146100d95780638da5cb5b146100e3575b600080fd5b6100a760048036038101906100a29190610bf4565b610173565b6040516100b49190610e89565b60405180910390f35b6100d760048036038101906100d29190610b7e565b6101a6565b005b6100e1610266565b005b6100eb6102ee565b6040516100f89190610e89565b60405180910390f35b61011b60048036038101906101169190610c61565b610317565b005b61013760048036038101906101329190610c21565b6103b0565b005b610153600480360381019061014e9190610b7e565b610482565b005b61015d61057a565b60405161016a9190610edb565b60405180910390f35b60016020528060005260406000206000915054906101000a900473ffffffffffffffffffffffffffffffffffffffff1681565b6101ae6107f5565b73ffffffffffffffffffffffffffffffffffffffff166101cc6102ee565b73ffffffffffffffffffffffffffffffffffffffff1614610222576040517f08c379a000000000000000000000000000000000000000000000000000000000815260040161021990610f17565b60405180910390fd5b80600260006101000a81548173ffffffffffffffffffffffffffffffffffffffff021916908373ffffffffffffffffffffffffffffffffffffffff16021790555050565b61026e6107f5565b73ffffffffffffffffffffffffffffffffffffffff1661028c6102ee565b73ffffffffffffffffffffffffffffffffffffffff16146102e2576040517f08c379a00000000000000000000000000000000000000000000000000000000081526004016102d990610f17565b60405180910390fd5b6102ec60006107fd565b565b60008060009054906101000a900473ffffffffffffffffffffffffffffffffffffffff16905090565b61031f6107f5565b73ffffffffffffffffffffffffffffffffffffffff1661033d6102ee565b73ffffffffffffffffffffffffffffffffffffffff1614610393576040517f08c379a000000000000000000000000000000000000000000000000000000000815260040161038a90610f17565b60405180910390fd5b61039b6108c1565b6103a361057a565b9050816003819055505050565b6103b86107f5565b73ffffffffffffffffffffffffffffffffffffffff166103d66102ee565b73ffffffffffffffffffffffffffffffffffffffff161461042c576040517f08c379a000000000000000000000000000000000000000000000000000000000815260040161042390610f17565b60405180910390fd5b806001600084815260200190815260200160002060006101000a81548173ffffffffffffffffffffffffffffffffffffffff021916908373ffffffffffffffffffffffffffffffffffffffff1602179055505050565b61048a6107f5565b73ffffffffffffffffffffffffffffffffffffffff166104a86102ee565b73ffffffffffffffffffffffffffffffffffffffff16146104fe576040517f08c379a00000000000000000000000000000000000000000000000000000000081526004016104f590610f17565b60405180910390fd5b600073ffffffffffffffffffffffffffffffffffffffff168173ffffffffffffffffffffffffffffffffffffffff16141561056e576040517f08c379a000000000000000000000000000000000000000000000000000000000815260040161056590610ef7565b60405180910390fd5b610577816107fd565b50565b6105826108c1565b6000600260009054906101000a900473ffffffffffffffffffffffffffffffffffffffff1673ffffffffffffffffffffffffffffffffffffffff1663e9843b126040518163ffffffff1660e01b815260040160006040518083038186803b1580156105ec57600080fd5b505afa158015610600573d6000803e3d6000fd5b505050506040513d6000823e3d601f19601f820116820180604052508101906106299190610bab565b905060005b81518160ff16108015610644575060648160ff16105b156107f0576000828260ff1681518110610661576106606110b1565b5b602002602001015160c0015160ff1611156107dd576000828260ff168151811061068e5761068d6110b1565b5b60200260200101516020015173ffffffffffffffffffffffffffffffffffffffff16637e566dbf848460ff16815181106106cb576106ca6110b1565b5b602002602001015160000151858560ff16815181106106ed576106ec6110b1565b5b602002602001015160200151868660ff168151811061070f5761070e6110b1565b5b6020026020010151606001516040518463ffffffff1660e01b815260040161073993929190610ea4565b60206040518083038186803b15801561075157600080fd5b505afa158015610765573d6000803e3d6000fd5b505050506040513d601f19601f820116820180604052508101906107899190610c8e565b90506040518060400160405280848460ff16815181106107ac576107ab6110b1565b5b6020026020010151815260200182815250848360ff16600a81106107d3576107d26110b1565b5b6020020181905250505b80806107e890611058565b91505061062e565b505090565b600033905090565b60008060009054906101000a900473ffffffffffffffffffffffffffffffffffffffff169050816000806101000a81548173ffffffffffffffffffffffffffffffffffffffff021916908373ffffffffffffffffffffffffffffffffffffffff1602179055508173ffffffffffffffffffffffffffffffffffffffff168173ffffffffffffffffffffffffffffffffffffffff167f8be0079c531659141344cd1fd0a4f28419497f9722a3daafe3b4186f6b6457e060405160405180910390a35050565b604051806101400160405280600a905b6108d96108ef565b8152602001906001900390816108d15790505090565b604051806040016040528061090261090f565b8152602001600081525090565b6040518060e00160405280600073ffffffffffffffffffffffffffffffffffffffff168152602001600073ffffffffffffffffffffffffffffffffffffffff168152602001600073ffffffffffffffffffffffffffffffffffffffff16815260200160008152602001600061ffff168152602001600061ffff168152602001600060ff1681525090565b60006109ac6109a784610f5c565b610f37565b905080838252602082019050828560e08602820111156109cf576109ce611119565b5b60005b858110156109ff57816109e58882610a76565b845260208401935060e083019250506001810190506109d2565b5050509392505050565b600081359050610a18816111d7565b92915050565b600081519050610a2d816111d7565b92915050565b600082601f830112610a4857610a4761110f565b5b8151610a58848260208601610999565b91505092915050565b600081359050610a70816111ee565b92915050565b600060e08284031215610a8c57610a8b611114565b5b610a9660e0610f37565b90506000610aa684828501610a1e565b6000830152506020610aba84828501610a1e565b6020830152506040610ace84828501610a1e565b6040830152506060610ae284828501610b54565b6060830152506080610af684828501610b2a565b60808301525060a0610b0a84828501610b2a565b60a08301525060c0610b1e84828501610b69565b60c08301525092915050565b600081519050610b3981611205565b92915050565b600081359050610b4e8161121c565b92915050565b600081519050610b638161121c565b92915050565b600081519050610b7881611233565b92915050565b600060208284031215610b9457610b93611123565b5b6000610ba284828501610a09565b91505092915050565b600060208284031215610bc157610bc0611123565b5b600082015167ffffffffffffffff811115610bdf57610bde61111e565b5b610beb84828501610a33565b91505092915050565b600060208284031215610c0a57610c09611123565b5b6000610c1884828501610a61565b91505092915050565b60008060408385031215610c3857610c37611123565b5b6000610c4685828601610a61565b9250506020610c5785828601610a09565b9150509250929050565b600060208284031215610c7757610c76611123565b5b6000610c8584828501610b3f565b91505092915050565b600060208284031215610ca457610ca3611123565b5b6000610cb284828501610b54565b91505092915050565b6000610cc78383610e1d565b6101008301905092915050565b610cdd81610fc6565b82525050565b610cec81610fc6565b82525050565b610cfb81610f92565b610d058184610faa565b9250610d1082610f88565b8060005b83811015610d41578151610d288782610cbb565b9650610d3383610f9d565b925050600181019050610d14565b505050505050565b6000610d56602983610fb5565b9150610d6182611139565b604082019050919050565b6000610d79602383610fb5565b9150610d8482611188565b604082019050919050565b60e082016000820151610da56000850182610cd4565b506020820151610db86020850182610cd4565b506040820151610dcb6040850182610cd4565b506060820151610dde6060850182610e5c565b506080820151610df16080850182610e4d565b5060a0820151610e0460a0850182610e4d565b5060c0820151610e1760c0850182610e7a565b50505050565b61010082016000820151610e346000850182610d8f565b506020820151610e4760e0850182610e5c565b50505050565b610e5681610fe2565b82525050565b610e6581611010565b82525050565b610e7481611010565b82525050565b610e838161101a565b82525050565b6000602082019050610e9e6000830184610ce3565b92915050565b6000606082019050610eb96000830186610ce3565b610ec66020830185610ce3565b610ed36040830184610e6b565b949350505050565b6000610a0082019050610ef16000830184610cf2565b92915050565b60006020820190508181036000830152610f1081610d49565b9050919050565b60006020820190508181036000830152610f3081610d6c565b9050919050565b6000610f41610f52565b9050610f4d8282611027565b919050565b6000604051905090565b600067ffffffffffffffff821115610f7757610f766110e0565b5b602082029050602081019050919050565b6000819050919050565b6000600a9050919050565b6000602082019050919050565b600081905092915050565b600082825260208201905092915050565b6000610fd182610ff0565b9050919050565b6000819050919050565b600061ffff82169050919050565b600073ffffffffffffffffffffffffffffffffffffffff82169050919050565b6000819050919050565b600060ff82169050919050565b61103082611128565b810181811067ffffffffffffffff8211171561104f5761104e6110e0565b5b80604052505050565b60006110638261101a565b915060ff82141561107757611076611082565b5b600182019050919050565b7f4e487b7100000000000000000000000000000000000000000000000000000000600052601160045260246000fd5b7f4e487b7100000000000000000000000000000000000000000000000000000000600052603260045260246000fd5b7f4e487b7100000000000000000000000000000000000000000000000000000000600052604160045260246000fd5b600080fd5b600080fd5b600080fd5b600080fd5b600080fd5b6000601f19601f8301169050919050565b7f4f776e61626c654578743a206e6577206f776e657220697320746865207a657260008201527f6f20616464726573730000000000000000000000000000000000000000000000602082015250565b7f4f776e61626c654578743a2063616c6c6572206973206e6f7420746865206f7760008201527f6e65720000000000000000000000000000000000000000000000000000000000602082015250565b6111e081610fc6565b81146111eb57600080fd5b50565b6111f781610fd8565b811461120257600080fd5b50565b61120e81610fe2565b811461121957600080fd5b50565b61122581611010565b811461123057600080fd5b50565b61123c8161101a565b811461124757600080fd5b5056fea264697066735822122050ca6b471673168b9748a7ef85a72e8b993a3cfb0466d49f8c2004051677cd8f64736f6c63430008060033",
  "immutableReferences": {},
  "source": "// SPDX-License-Identifier: GPL-3.0\n\npragma solidity >=0.8.0 <0.9.0;\nimport \"./interfaces/IActivesList.sol\";\nimport \"./interfaces/IMark2Market.sol\";\nimport \"./interfaces/IConnector.sol\";\nimport \"./OwnableExt.sol\";\n\ncontract Mark2Market is IMark2Market, OwnableExt {\n    IActivesList actListContr;\n\n    uint testprice ;\n    function setActList (address _addr) public onlyOwner{\n        actListContr = IActivesList(_addr);\n    }\n\n    function activesPrices () public view override returns (ActivesPrices[10] memory ap ) {\n        IActivesList.Active[] memory actives = actListContr.getAllActives();\n        //calculate total activites sum\n        \n        for (uint8 a = 0; a<actives.length && a<100; a++) {\n            \n            \n            if (actives[a].isWork > 0) { \n                 uint price = IConnector(actives[a].poolPriceAddr).getPriceLiq(actives[a].actAddress, \n                    actives[a].poolPriceAddr,\n                    actives[a].balance); \n                ap[a] =  ActivesPrices( actives[a], price);\n               \n            }\n            \n        }\n    }\n\n    function tstPrice (uint256 _tst)  public onlyOwner {\n        ActivesPrices[10] memory ap;\n        ap = activesPrices ();\n        \n        testprice = _tst;\n    }\n\n    }\n\n    /* // function m2m () {\n\n    // calculate proportions and changes value\n        for (uint8 a = 0; a<actives.length; a++) {\n                totalSum +=  (uint128 (actives[a].balance)) * priceAct;\n\n\n        }\n\n    }\n */\n\n\n",
  "sourcePath": "/home/st/Documents/work/OVN/ovngt-mvp/contracts/Mark2Market.sol",
  "compiler": {
    "name": "solc",
    "version": "0.8.6+commit.11564f7e.Emscripten.clang"
  },
  "schemaVersion": "3.4.0",
  "updatedAt": "2021-08-17T12:11:45.283Z",
  "networkType": "ethereum",
  "devdoc": {
    "kind": "dev",
    "methods": {
      "owner()": {
        "details": "Returns the address of the current owner."
      },
      "renounceOwnership()": {
        "details": "Leaves the contract without owner. It will not be possible to call `onlyOwner` functions anymore. Can only be called by the current owner. NOTE: Renouncing ownership will leave the contract without an owner, thereby removing any functionality that is only available to the owner."
      },
      "transferOwnership(address)": {
        "details": "Transfers ownership of the contract to a new account (`newOwner`). Can only be called by the current owner."
      }
    },
    "version": 1
  },
  "userdoc": {
    "kind": "user",
    "methods": {},
    "version": 1
  }
}