{
  "contractName": "PortfolioManager",
  "abi": [
    {
      "anonymous": false,
      "inputs": [
        {
          "indexed": true,
          "internalType": "address",
          "name": "previousOwner",
          "type": "address"
        },
        {
          "indexed": true,
          "internalType": "address",
          "name": "newOwner",
          "type": "address"
        }
      ],
      "name": "OwnershipTransferred",
      "type": "event"
    },
    {
      "inputs": [],
      "name": "owner",
      "outputs": [
        {
          "internalType": "address",
          "name": "",
          "type": "address"
        }
      ],
      "stateMutability": "view",
      "type": "function"
    },
    {
      "inputs": [],
      "name": "renounceOwnership",
      "outputs": [],
      "stateMutability": "nonpayable",
      "type": "function"
    },
    {
      "inputs": [
        {
          "internalType": "bytes32",
          "name": "",
          "type": "bytes32"
        }
      ],
      "name": "rolemap",
      "outputs": [
        {
          "internalType": "address",
          "name": "",
          "type": "address"
        }
      ],
      "stateMutability": "view",
      "type": "function"
    },
    {
      "inputs": [
        {
          "internalType": "bytes32",
          "name": "_role",
          "type": "bytes32"
        },
        {
          "internalType": "address",
          "name": "_actor",
          "type": "address"
        }
      ],
      "name": "setRole",
      "outputs": [],
      "stateMutability": "nonpayable",
      "type": "function"
    },
    {
      "inputs": [
        {
          "internalType": "address",
          "name": "newOwner",
          "type": "address"
        }
      ],
      "name": "transferOwnership",
      "outputs": [],
      "stateMutability": "nonpayable",
      "type": "function"
    },
    {
      "inputs": [
        {
          "internalType": "address",
          "name": "_addrAL",
          "type": "address"
        }
      ],
      "name": "setAddr",
      "outputs": [],
      "stateMutability": "nonpayable",
      "type": "function"
    },
    {
      "inputs": [
        {
          "internalType": "address",
          "name": "_asset",
          "type": "address"
        },
        {
          "internalType": "uint256",
          "name": "_amount",
          "type": "uint256"
        }
      ],
      "name": "stake",
      "outputs": [],
      "stateMutability": "nonpayable",
      "type": "function"
    },
    {
      "inputs": [
        {
          "internalType": "address",
          "name": "_asset",
          "type": "address"
        },
        {
          "internalType": "uint256",
          "name": "_amount",
          "type": "uint256"
        }
      ],
      "name": "unstake",
      "outputs": [],
      "stateMutability": "nonpayable",
      "type": "function"
    }
  ],
  "bytecode": "0x608060405234801561001057600080fd5b5061002d61002261003260201b60201c565b61003a60201b60201c565b6100fe565b600033905090565b60008060009054906101000a900473ffffffffffffffffffffffffffffffffffffffff169050816000806101000a81548173ffffffffffffffffffffffffffffffffffffffff021916908373ffffffffffffffffffffffffffffffffffffffff1602179055508173ffffffffffffffffffffffffffffffffffffffff168173ffffffffffffffffffffffffffffffffffffffff167f8be0079c531659141344cd1fd0a4f28419497f9722a3daafe3b4186f6b6457e060405160405180910390a35050565b610dbf8061010d6000396000f3fe608060405234801561001057600080fd5b50600436106100885760003560e01c8063c2a672e01161005b578063c2a672e014610101578063d1d80fdf1461011d578063dff8720314610139578063f2fde38b1461015557610088565b80632dc10a541461008d578063715018a6146100bd5780638da5cb5b146100c7578063adc9772e146100e5575b600080fd5b6100a760048036038101906100a2919061097b565b610171565b6040516100b49190610a7a565b60405180910390f35b6100c56101a4565b005b6100cf61022c565b6040516100dc9190610a7a565b60405180910390f35b6100ff60048036038101906100fa919061090e565b610255565b005b61011b6004803603810190610116919061090e565b610415565b005b610137600480360381019061013291906108e1565b610419565b005b610153600480360381019061014e91906109a8565b6104d9565b005b61016f600480360381019061016a91906108e1565b6105ab565b005b60016020528060005260406000206000915054906101000a900473ffffffffffffffffffffffffffffffffffffffff1681565b6101ac6106a3565b73ffffffffffffffffffffffffffffffffffffffff166101ca61022c565b73ffffffffffffffffffffffffffffffffffffffff1614610220576040517f08c379a000000000000000000000000000000000000000000000000000000000815260040161021790610b23565b60405180910390fd5b61022a60006106ab565b565b60008060009054906101000a900473ffffffffffffffffffffffffffffffffffffffff16905090565b6000600260009054906101000a900473ffffffffffffffffffffffffffffffffffffffff1673ffffffffffffffffffffffffffffffffffffffff1663daea3e3a846040518263ffffffff1660e01b81526004016102b29190610a7a565b6101006040518083038186803b1580156102cb57600080fd5b505afa1580156102df573d6000803e3d6000fd5b505050506040513d601f19601f8201168201806040525081019061030391906109e8565b90508273ffffffffffffffffffffffffffffffffffffffff1663a9059cbb8260200151846040518363ffffffff1660e01b8152600401610344929190610ada565b602060405180830381600087803b15801561035e57600080fd5b505af1158015610372573d6000803e3d6000fd5b505050506040513d601f19601f82011682018060405250810190610396919061094e565b50806020015173ffffffffffffffffffffffffffffffffffffffff16636291027c84836060015185306040518563ffffffff1660e01b81526004016103de9493929190610a95565b600060405180830381600087803b1580156103f857600080fd5b505af115801561040c573d6000803e3d6000fd5b50505050505050565b5050565b6104216106a3565b73ffffffffffffffffffffffffffffffffffffffff1661043f61022c565b73ffffffffffffffffffffffffffffffffffffffff1614610495576040517f08c379a000000000000000000000000000000000000000000000000000000000815260040161048c90610b23565b60405180910390fd5b80600260006101000a81548173ffffffffffffffffffffffffffffffffffffffff021916908373ffffffffffffffffffffffffffffffffffffffff16021790555050565b6104e16106a3565b73ffffffffffffffffffffffffffffffffffffffff166104ff61022c565b73ffffffffffffffffffffffffffffffffffffffff1614610555576040517f08c379a000000000000000000000000000000000000000000000000000000000815260040161054c90610b23565b60405180910390fd5b806001600084815260200190815260200160002060006101000a81548173ffffffffffffffffffffffffffffffffffffffff021916908373ffffffffffffffffffffffffffffffffffffffff1602179055505050565b6105b36106a3565b73ffffffffffffffffffffffffffffffffffffffff166105d161022c565b73ffffffffffffffffffffffffffffffffffffffff1614610627576040517f08c379a000000000000000000000000000000000000000000000000000000000815260040161061e90610b23565b60405180910390fd5b600073ffffffffffffffffffffffffffffffffffffffff168173ffffffffffffffffffffffffffffffffffffffff161415610697576040517f08c379a000000000000000000000000000000000000000000000000000000000815260040161068e90610b03565b60405180910390fd5b6106a0816106ab565b50565b600033905090565b60008060009054906101000a900473ffffffffffffffffffffffffffffffffffffffff169050816000806101000a81548173ffffffffffffffffffffffffffffffffffffffff021916908373ffffffffffffffffffffffffffffffffffffffff1602179055508173ffffffffffffffffffffffffffffffffffffffff168173ffffffffffffffffffffffffffffffffffffffff167f8be0079c531659141344cd1fd0a4f28419497f9722a3daafe3b4186f6b6457e060405160405180910390a35050565b60008135905061077e81610cff565b92915050565b60008151905061079381610cff565b92915050565b6000815190506107a881610d16565b92915050565b6000813590506107bd81610d2d565b92915050565b600061010082840312156107da576107d9610c46565b5b6107e5610100610b43565b905060006107f584828501610784565b600083015250602061080984828501610784565b602083015250604061081d84828501610784565b604083015250606061083184828501610784565b6060830152506080610845848285016108b7565b60808301525060a06108598482850161088d565b60a08301525060c061086d8482850161088d565b60c08301525060e0610881848285016108cc565b60e08301525092915050565b60008151905061089c81610d44565b92915050565b6000813590506108b181610d5b565b92915050565b6000815190506108c681610d5b565b92915050565b6000815190506108db81610d72565b92915050565b6000602082840312156108f7576108f6610c4b565b5b60006109058482850161076f565b91505092915050565b6000806040838503121561092557610924610c4b565b5b60006109338582860161076f565b9250506020610944858286016108a2565b9150509250929050565b60006020828403121561096457610963610c4b565b5b600061097284828501610799565b91505092915050565b60006020828403121561099157610990610c4b565b5b600061099f848285016107ae565b91505092915050565b600080604083850312156109bf576109be610c4b565b5b60006109cd858286016107ae565b92505060206109de8582860161076f565b9150509250929050565b600061010082840312156109ff576109fe610c4b565b5b6000610a0d848285016107c3565b91505092915050565b610a1f81610b79565b82525050565b6000610a32602983610b68565b9150610a3d82610c61565b604082019050919050565b6000610a55602383610b68565b9150610a6082610cb0565b604082019050919050565b610a7481610bcf565b82525050565b6000602082019050610a8f6000830184610a16565b92915050565b6000608082019050610aaa6000830187610a16565b610ab76020830186610a16565b610ac46040830185610a6b565b610ad16060830184610a16565b95945050505050565b6000604082019050610aef6000830185610a16565b610afc6020830184610a6b565b9392505050565b60006020820190508181036000830152610b1c81610a25565b9050919050565b60006020820190508181036000830152610b3c81610a48565b9050919050565b6000610b4d610b5e565b9050610b598282610be6565b919050565b6000604051905090565b600082825260208201905092915050565b6000610b8482610baf565b9050919050565b60008115159050919050565b6000819050919050565b600061ffff82169050919050565b600073ffffffffffffffffffffffffffffffffffffffff82169050919050565b6000819050919050565b600060ff82169050919050565b610bef82610c50565b810181811067ffffffffffffffff82111715610c0e57610c0d610c17565b5b80604052505050565b7f4e487b7100000000000000000000000000000000000000000000000000000000600052604160045260246000fd5b600080fd5b600080fd5b6000601f19601f8301169050919050565b7f4f776e61626c654578743a206e6577206f776e657220697320746865207a657260008201527f6f20616464726573730000000000000000000000000000000000000000000000602082015250565b7f4f776e61626c654578743a2063616c6c6572206973206e6f7420746865206f7760008201527f6e65720000000000000000000000000000000000000000000000000000000000602082015250565b610d0881610b79565b8114610d1357600080fd5b50565b610d1f81610b8b565b8114610d2a57600080fd5b50565b610d3681610b97565b8114610d4157600080fd5b50565b610d4d81610ba1565b8114610d5857600080fd5b50565b610d6481610bcf565b8114610d6f57600080fd5b50565b610d7b81610bd9565b8114610d8657600080fd5b5056fea2646970667358221220e865b0b1ee13e9450b956dae20b9a0deeb55e4a4659462b575d200e991c3dfe164736f6c63430008060033",
  "immutableReferences": {},
  "source": "// SPDX-License-Identifier: MIT\npragma solidity >=0.8.0 <0.9.0;\n\n/// @title Common inrterface to DeFi protocol connectors\n/// @author @Stanta\n/// @notice Every connector have to implement this function\n/// @dev Choosing of connector releasing by changing address of connector's contract\n\nimport \"./interfaces/IPortfolioManager.sol\";\nimport \"@openzeppelin/contracts/token/ERC20/IERC20.sol\";\nimport \"./interfaces/IActivesList.sol\";\nimport \"./interfaces/IConnector.sol\";\n\nimport \"./OwnableExt.sol\";\n\n\ncontract PortfolioManager is  IPortfolioManager, OwnableExt {\n    IActivesList actList;\n\n   function setAddr (address _addrAL) external onlyOwner {\n        actList = IActivesList(_addrAL);\n    }\n\n    \nfunction stake (address _asset, uint256 _amount) external override {\n\n    // 1. get actives data from active list\n    IActivesList.Active memory active = actList.getActive(_asset);\n    // 2. sent liquidity to connetor\n    IERC20(_asset).transfer(active.connector, _amount);\n    // 3. stake\n    IConnector(active.connector).stake(_asset, active.poolStake, _amount, address(this));\n\n}\n\nfunction unstake (address _asset,uint256 _amount ) external override {\nreturn;\n}\n\n\n}",
  "sourcePath": "/home/st/Documents/work/OVN/ovngt-mvp/contracts/PortfolioManager.sol",
  "compiler": {
    "name": "solc",
    "version": "0.8.6+commit.11564f7e.Emscripten.clang"
  },
  "schemaVersion": "3.4.0",
  "updatedAt": "2021-08-20T13:52:20.832Z",
  "devdoc": {
    "kind": "dev",
    "methods": {
      "owner()": {
        "details": "Returns the address of the current owner."
      },
      "renounceOwnership()": {
        "details": "Leaves the contract without owner. It will not be possible to call `onlyOwner` functions anymore. Can only be called by the current owner. NOTE: Renouncing ownership will leave the contract without an owner, thereby removing any functionality that is only available to the owner."
      },
      "transferOwnership(address)": {
        "details": "Transfers ownership of the contract to a new account (`newOwner`). Can only be called by the current owner."
      }
    },
    "version": 1
  },
  "userdoc": {
    "kind": "user",
    "methods": {},
    "version": 1
  }
}