{
  "contractName": "SimpleStorage",
  "abi": [
    {
      "anonymous": false,
      "inputs": [
        {
          "indexed": false,
          "internalType": "string",
          "name": "_message",
          "type": "string"
        }
      ],
      "name": "StorageSet",
      "type": "event"
    },
    {
      "inputs": [],
      "name": "storedData",
      "outputs": [
        {
          "internalType": "uint256",
          "name": "",
          "type": "uint256"
        }
      ],
      "stateMutability": "view",
      "type": "function"
    },
    {
      "inputs": [
        {
          "internalType": "uint256",
          "name": "x",
          "type": "uint256"
        }
      ],
      "name": "set",
      "outputs": [],
      "stateMutability": "nonpayable",
      "type": "function"
    }
  ],
  "bytecode": "0x608060405234801561001057600080fd5b506101ff806100206000396000f3fe608060405234801561001057600080fd5b50600436106100365760003560e01c80632a1afcd91461003b57806360fe47b114610059575b600080fd5b610043610075565b604051610050919061014e565b60405180910390f35b610073600480360381019061006e91906100cf565b61007b565b005b60005481565b806000819055507f60cdc157ca4737a5d39a0e107532616e7bf6946e615228812c7f9bc9f81797a66040516100af9061012e565b60405180910390a150565b6000813590506100c9816101b2565b92915050565b6000602082840312156100e5576100e4610184565b5b60006100f3848285016100ba565b91505092915050565b6000610109601983610169565b915061011482610189565b602082019050919050565b6101288161017a565b82525050565b60006020820190508181036000830152610147816100fc565b9050919050565b6000602082019050610163600083018461011f565b92915050565b600082825260208201905092915050565b6000819050919050565b600080fd5b7f446174612073746f726564207375636365737366756c6c792100000000000000600082015250565b6101bb8161017a565b81146101c657600080fd5b5056fea264697066735822122044c961934a92516da50e9ec519d78aced3b7fcbe665b3b824fcde5747bde5ad264736f6c63430008070033",
  "immutableReferences": {},
  "source": "// SPDX-License-Identifier: MIT\npragma solidity >=0.8.0 <0.9.0;\n\ncontract SimpleStorage {\n    event StorageSet(string _message);\n\n    uint public storedData;\n\n    function set(uint x) public {\n        storedData = x;\n\n        emit StorageSet(\"Data stored successfully!\");\n    }\n}\n",
  "sourcePath": "/mnt/512-2/OVN/ovngt-mvp/contracts/SimpleStorage.sol",
  "compiler": {
    "name": "solc",
    "version": "0.8.7+commit.e28d00a7.Emscripten.clang"
  },
  "schemaVersion": "3.3.4",
  "updatedAt": "2021-08-12T09:49:53.814Z",
  "devdoc": {
    "kind": "dev",
    "methods": {},
    "version": 1
  },
  "userdoc": {
    "kind": "user",
    "methods": {},
    "version": 1
  }
}