{
  "address": "0x77614fAC81D5842823Ec321b117B73a74A43c57d",
  "abi": [
    {
      "inputs": [],
      "stateMutability": "nonpayable",
      "type": "constructor"
    },
    {
      "anonymous": false,
      "inputs": [
        {
          "indexed": false,
          "internalType": "address",
          "name": "previousAdmin",
          "type": "address"
        },
        {
          "indexed": false,
          "internalType": "address",
          "name": "newAdmin",
          "type": "address"
        }
      ],
      "name": "AdminChanged",
      "type": "event"
    },
    {
      "anonymous": false,
      "inputs": [
        {
          "indexed": true,
          "internalType": "address",
          "name": "beacon",
          "type": "address"
        }
      ],
      "name": "BeaconUpgraded",
      "type": "event"
    },
    {
      "anonymous": false,
      "inputs": [
        {
          "indexed": false,
          "internalType": "address",
          "name": "value",
          "type": "address"
        }
      ],
      "name": "PortfolioManagerUpdated",
      "type": "event"
    },
    {
      "anonymous": false,
      "inputs": [
        {
          "indexed": false,
          "internalType": "uint256",
          "name": "amount",
          "type": "uint256"
        }
      ],
      "name": "Reward",
      "type": "event"
    },
    {
      "anonymous": false,
      "inputs": [
        {
          "indexed": true,
          "internalType": "bytes32",
          "name": "role",
          "type": "bytes32"
        },
        {
          "indexed": true,
          "internalType": "bytes32",
          "name": "previousAdminRole",
          "type": "bytes32"
        },
        {
          "indexed": true,
          "internalType": "bytes32",
          "name": "newAdminRole",
          "type": "bytes32"
        }
      ],
      "name": "RoleAdminChanged",
      "type": "event"
    },
    {
      "anonymous": false,
      "inputs": [
        {
          "indexed": true,
          "internalType": "bytes32",
          "name": "role",
          "type": "bytes32"
        },
        {
          "indexed": true,
          "internalType": "address",
          "name": "account",
          "type": "address"
        },
        {
          "indexed": true,
          "internalType": "address",
          "name": "sender",
          "type": "address"
        }
      ],
      "name": "RoleGranted",
      "type": "event"
    },
    {
      "anonymous": false,
      "inputs": [
        {
          "indexed": true,
          "internalType": "bytes32",
          "name": "role",
          "type": "bytes32"
        },
        {
          "indexed": true,
          "internalType": "address",
          "name": "account",
          "type": "address"
        },
        {
          "indexed": true,
          "internalType": "address",
          "name": "sender",
          "type": "address"
        }
      ],
      "name": "RoleRevoked",
      "type": "event"
    },
    {
      "anonymous": false,
      "inputs": [
        {
          "indexed": false,
          "internalType": "address",
          "name": "uniswapRouter",
          "type": "address"
        }
      ],
      "name": "StrategyIdleUpdatedParams",
      "type": "event"
    },
    {
      "anonymous": false,
      "inputs": [
        {
          "indexed": false,
          "internalType": "address",
          "name": "usdcToken",
          "type": "address"
        },
        {
          "indexed": false,
          "internalType": "address",
          "name": "idleToken",
          "type": "address"
        },
        {
          "indexed": false,
          "internalType": "address",
          "name": "wmaticToken",
          "type": "address"
        },
        {
          "indexed": false,
          "internalType": "uint256",
          "name": "usdcTokenDenominator",
          "type": "uint256"
        },
        {
          "indexed": false,
          "internalType": "uint256",
          "name": "idleTokenDenominator",
          "type": "uint256"
        },
        {
          "indexed": false,
          "internalType": "uint256",
          "name": "wmaticTokenDenominator",
          "type": "uint256"
        }
      ],
      "name": "StrategyIdleUpdatedTokens",
      "type": "event"
    },
    {
      "anonymous": false,
      "inputs": [
        {
          "indexed": true,
          "internalType": "address",
          "name": "implementation",
          "type": "address"
        }
      ],
      "name": "Upgraded",
      "type": "event"
    },
    {
      "inputs": [],
      "name": "DEFAULT_ADMIN_ROLE",
      "outputs": [
        {
          "internalType": "bytes32",
          "name": "",
          "type": "bytes32"
        }
      ],
      "stateMutability": "view",
      "type": "function"
    },
    {
      "inputs": [],
      "name": "PORTFOLIO_MANAGER",
      "outputs": [
        {
          "internalType": "bytes32",
          "name": "",
          "type": "bytes32"
        }
      ],
      "stateMutability": "view",
      "type": "function"
    },
    {
      "inputs": [],
      "name": "UPGRADER_ROLE",
      "outputs": [
        {
          "internalType": "bytes32",
          "name": "",
          "type": "bytes32"
        }
      ],
      "stateMutability": "view",
      "type": "function"
    },
    {
      "inputs": [
        {
          "internalType": "address",
          "name": "_to",
          "type": "address"
        }
      ],
      "name": "claimRewards",
      "outputs": [
        {
          "internalType": "uint256",
          "name": "",
          "type": "uint256"
        }
      ],
      "stateMutability": "nonpayable",
      "type": "function"
    },
    {
      "inputs": [
        {
          "internalType": "bytes32",
          "name": "role",
          "type": "bytes32"
        }
      ],
      "name": "getRoleAdmin",
      "outputs": [
        {
          "internalType": "bytes32",
          "name": "",
          "type": "bytes32"
        }
      ],
      "stateMutability": "view",
      "type": "function"
    },
    {
      "inputs": [
        {
          "internalType": "bytes32",
          "name": "role",
          "type": "bytes32"
        },
        {
          "internalType": "address",
          "name": "account",
          "type": "address"
        }
      ],
      "name": "grantRole",
      "outputs": [],
      "stateMutability": "nonpayable",
      "type": "function"
    },
    {
      "inputs": [
        {
          "internalType": "bytes32",
          "name": "role",
          "type": "bytes32"
        },
        {
          "internalType": "address",
          "name": "account",
          "type": "address"
        }
      ],
      "name": "hasRole",
      "outputs": [
        {
          "internalType": "bool",
          "name": "",
          "type": "bool"
        }
      ],
      "stateMutability": "view",
      "type": "function"
    },
    {
      "inputs": [],
      "name": "idleToken",
      "outputs": [
        {
          "internalType": "contract IIdleToken",
          "name": "",
          "type": "address"
        }
      ],
      "stateMutability": "view",
      "type": "function"
    },
    {
      "inputs": [],
      "name": "idleTokenDenominator",
      "outputs": [
        {
          "internalType": "uint256",
          "name": "",
          "type": "uint256"
        }
      ],
      "stateMutability": "view",
      "type": "function"
    },
    {
      "inputs": [],
      "name": "initialize",
      "outputs": [],
      "stateMutability": "nonpayable",
      "type": "function"
    },
    {
      "inputs": [],
      "name": "liquidationValue",
      "outputs": [
        {
          "internalType": "uint256",
          "name": "",
          "type": "uint256"
        }
      ],
      "stateMutability": "view",
      "type": "function"
    },
    {
      "inputs": [],
      "name": "netAssetValue",
      "outputs": [
        {
          "internalType": "uint256",
          "name": "",
          "type": "uint256"
        }
      ],
      "stateMutability": "view",
      "type": "function"
    },
    {
      "inputs": [],
      "name": "portfolioManager",
      "outputs": [
        {
          "internalType": "address",
          "name": "",
          "type": "address"
        }
      ],
      "stateMutability": "view",
      "type": "function"
    },
    {
      "inputs": [
        {
          "internalType": "bytes32",
          "name": "role",
          "type": "bytes32"
        },
        {
          "internalType": "address",
          "name": "account",
          "type": "address"
        }
      ],
      "name": "renounceRole",
      "outputs": [],
      "stateMutability": "nonpayable",
      "type": "function"
    },
    {
      "inputs": [
        {
          "internalType": "bytes32",
          "name": "role",
          "type": "bytes32"
        },
        {
          "internalType": "address",
          "name": "account",
          "type": "address"
        }
      ],
      "name": "revokeRole",
      "outputs": [],
      "stateMutability": "nonpayable",
      "type": "function"
    },
    {
      "inputs": [
        {
          "internalType": "address",
          "name": "_uniswapRouter",
          "type": "address"
        }
      ],
      "name": "setParams",
      "outputs": [],
      "stateMutability": "nonpayable",
      "type": "function"
    },
    {
      "inputs": [
        {
          "internalType": "address",
          "name": "_value",
          "type": "address"
        }
      ],
      "name": "setPortfolioManager",
      "outputs": [],
      "stateMutability": "nonpayable",
      "type": "function"
    },
    {
      "inputs": [
        {
          "internalType": "address",
          "name": "_usdcToken",
          "type": "address"
        },
        {
          "internalType": "address",
          "name": "_idleToken",
          "type": "address"
        },
        {
          "internalType": "address",
          "name": "_wmaticToken",
          "type": "address"
        }
      ],
      "name": "setTokens",
      "outputs": [],
      "stateMutability": "nonpayable",
      "type": "function"
    },
    {
      "inputs": [
        {
          "internalType": "address",
          "name": "_asset",
          "type": "address"
        },
        {
          "internalType": "uint256",
          "name": "_amount",
          "type": "uint256"
        }
      ],
      "name": "stake",
      "outputs": [],
      "stateMutability": "nonpayable",
      "type": "function"
    },
    {
      "inputs": [
        {
          "internalType": "bytes4",
          "name": "interfaceId",
          "type": "bytes4"
        }
      ],
      "name": "supportsInterface",
      "outputs": [
        {
          "internalType": "bool",
          "name": "",
          "type": "bool"
        }
      ],
      "stateMutability": "view",
      "type": "function"
    },
    {
      "inputs": [
        {
          "internalType": "address",
          "name": "_asset",
          "type": "address"
        },
        {
          "internalType": "uint256",
          "name": "_amount",
          "type": "uint256"
        },
        {
          "internalType": "address",
          "name": "_beneficiary",
          "type": "address"
        },
        {
          "internalType": "bool",
          "name": "_targetIsZero",
          "type": "bool"
        }
      ],
      "name": "unstake",
      "outputs": [
        {
          "internalType": "uint256",
          "name": "",
          "type": "uint256"
        }
      ],
      "stateMutability": "nonpayable",
      "type": "function"
    },
    {
      "inputs": [
        {
          "internalType": "address",
          "name": "newImplementation",
          "type": "address"
        }
      ],
      "name": "upgradeTo",
      "outputs": [],
      "stateMutability": "nonpayable",
      "type": "function"
    },
    {
      "inputs": [
        {
          "internalType": "address",
          "name": "newImplementation",
          "type": "address"
        },
        {
          "internalType": "bytes",
          "name": "data",
          "type": "bytes"
        }
      ],
      "name": "upgradeToAndCall",
      "outputs": [],
      "stateMutability": "payable",
      "type": "function"
    },
    {
      "inputs": [],
      "name": "usdcToken",
      "outputs": [
        {
          "internalType": "contract IERC20",
          "name": "",
          "type": "address"
        }
      ],
      "stateMutability": "view",
      "type": "function"
    },
    {
      "inputs": [],
      "name": "usdcTokenDenominator",
      "outputs": [
        {
          "internalType": "uint256",
          "name": "",
          "type": "uint256"
        }
      ],
      "stateMutability": "view",
      "type": "function"
    },
    {
      "inputs": [],
      "name": "wmaticToken",
      "outputs": [
        {
          "internalType": "contract IERC20",
          "name": "",
          "type": "address"
        }
      ],
      "stateMutability": "view",
      "type": "function"
    },
    {
      "inputs": [],
      "name": "wmaticTokenDenominator",
      "outputs": [
        {
          "internalType": "uint256",
          "name": "",
          "type": "uint256"
        }
      ],
      "stateMutability": "view",
      "type": "function"
    }
  ],
  "solcInputHash": "a27cd7b5673f19cd14cb47bda955a19c",
  "bytecode": "0x60a06040523060601b60805234801561001757600080fd5b50600054610100900460ff1680610031575060005460ff16155b6100985760405162461bcd60e51b815260206004820152602e60248201527f496e697469616c697a61626c653a20636f6e747261637420697320616c72656160448201526d191e481a5b9a5d1a585b1a5e995960921b606482015260840160405180910390fd5b600054610100900460ff161580156100ba576000805461ffff19166101011790555b80156100cc576000805461ff00191690555b5060805160601c6129d3620001016000396000818161071e0152818161075e01528181610b5d0152610b9d01526129d36000f3fe60806040526004361061019c5760003560e01c8063620b75df116100ec578063a440b21a1161008a578063d547741f11610064578063d547741f1461046a578063ef5cfb8c1461048a578063f6f6b881146104aa578063f72c0d8b146104ca57600080fd5b8063a440b21a14610409578063abf4be0114610429578063adc9772e1461044a57600080fd5b80638129fc1c116100c65780638129fc1c146103bf57806391d14854146103d4578063a217fddf146103f4578063a3673b381461027b57600080fd5b8063620b75df1461036657806362b67652146103865780637d5f58021461039d57600080fd5b80632dd60c5e116101595780633659cfe6116101335780633659cfe6146102f3578063443be209146103135780634e49acac146103335780634f1ef2861461035357600080fd5b80632dd60c5e146102905780632f2ff15d146102b157806336568abe146102d357600080fd5b806301ffc9a7146101a157806306da3f2e146101d65780630cc8d47b146101fb57806311eac85514610212578063248a9ca31461024b5780632576e65a1461027b575b600080fd5b3480156101ad57600080fd5b506101c16101bc3660046123c7565b6104fe565b60405190151581526020015b60405180910390f35b3480156101e257600080fd5b506101ed6101625481565b6040519081526020016101cd565b34801561020757600080fd5b506101ed6101635481565b34801561021e57600080fd5b5061015f54610233906001600160a01b031681565b6040516001600160a01b0390911681526020016101cd565b34801561025757600080fd5b506101ed610266366004612382565b60009081526065602052604090206001015490565b34801561028757600080fd5b506101ed610535565b34801561029c57600080fd5b5061016054610233906001600160a01b031681565b3480156102bd57600080fd5b506102d16102cc36600461239b565b610665565b005b3480156102df57600080fd5b506102d16102ee36600461239b565b610690565b3480156102ff57600080fd5b506102d161030e36600461213b565b610713565b34801561031f57600080fd5b506102d161032e366004612156565b6107dc565b34801561033f57600080fd5b506102d161034e36600461213b565b610aa9565b6102d1610361366004612199565b610b52565b34801561037257600080fd5b5060fb54610233906001600160a01b031681565b34801561039257600080fd5b506101ed6101645481565b3480156103a957600080fd5b506101ed60008051602061295783398151915281565b3480156103cb57600080fd5b506102d1610c08565b3480156103e057600080fd5b506101c16103ef36600461239b565b610c7b565b34801561040057600080fd5b506101ed600081565b34801561041557600080fd5b506102d161042436600461213b565b610ca6565b34801561043557600080fd5b5061016154610233906001600160a01b031681565b34801561045657600080fd5b506102d161046536600461223f565b610d7e565b34801561047657600080fd5b506102d161048536600461239b565b610dbc565b34801561049657600080fd5b506101ed6104a536600461213b565b610de2565b3480156104b657600080fd5b506101ed6104c5366004612269565b610e66565b3480156104d657600080fd5b506101ed7f189ab7a9244df0848122154315af71fe140f3db0fe014031783b0946b8c9d2e381565b60006001600160e01b03198216637965db0b60e01b148061052f57506301ffc9a760e01b6001600160e01b03198316145b92915050565b610160546040516370a0823160e01b815230600482015260009182916001600160a01b03909116906370a082319060240160206040518083038186803b15801561057e57600080fd5b505afa158015610592573d6000803e3d6000fd5b505050506040513d601f19601f820116820180604052508101906105b691906123f1565b9050806105c557600091505090565b6101605460408051633ffcdacb60e11b815290516000926001600160a01b031691637ff9b596916004808301926020929190829003018186803b15801561060b57600080fd5b505afa15801561061f573d6000803e3d6000fd5b505050506040513d601f19601f8201168201806040525081019061064391906123f1565b6101635490915061065482846128a4565b61065e9190612794565b9250505090565b6000828152606560205260409020600101546106818133610fb0565b61068b8383611014565b505050565b6001600160a01b03811633146107055760405162461bcd60e51b815260206004820152602f60248201527f416363657373436f6e74726f6c3a2063616e206f6e6c792072656e6f756e636560448201526e103937b632b9903337b91039b2b63360891b60648201526084015b60405180910390fd5b61070f828261109a565b5050565b306001600160a01b037f000000000000000000000000000000000000000000000000000000000000000016141561075c5760405162461bcd60e51b81526004016106fc9061256c565b7f00000000000000000000000000000000000000000000000000000000000000006001600160a01b031661078e611101565b6001600160a01b0316146107b45760405162461bcd60e51b81526004016106fc906125b8565b6107bd8161112f565b604080516000808252602082019092526107d99183919061115a565b50565b6107e7600033610c7b565b6108035760405162461bcd60e51b81526004016106fc90612652565b6001600160a01b0383166108295760405162461bcd60e51b81526004016106fc906126b7565b6001600160a01b03821661084f5760405162461bcd60e51b81526004016106fc906126b7565b6001600160a01b0381166108755760405162461bcd60e51b81526004016106fc906126b7565b61015f80546001600160a01b038086166001600160a01b0319928316811790935561016080548683169084161790556101618054918516919092161790556040805163313ce56760e01b8152905163313ce56791600480820192602092909190829003018186803b1580156108e957600080fd5b505afa1580156108fd573d6000803e3d6000fd5b505050506040513d601f19601f82011682018060405250810190610921919061240a565b61092c90600a6127f9565b61016281905550816001600160a01b031663313ce5676040518163ffffffff1660e01b815260040160206040518083038186803b15801561096c57600080fd5b505afa158015610980573d6000803e3d6000fd5b505050506040513d601f19601f820116820180604052508101906109a4919061240a565b6109af90600a6127f9565b61016381905550806001600160a01b031663313ce5676040518163ffffffff1660e01b815260040160206040518083038186803b1580156109ef57600080fd5b505afa158015610a03573d6000803e3d6000fd5b505050506040513d601f19601f82011682018060405250810190610a27919061240a565b610a3290600a6127f9565b6101648190556101625461016354604080516001600160a01b03808916825280881660208301528616918101919091526060810192909252608082015260a08101919091527f6f6d699433e1de21bd176bdd49b1a748fefa53094c39010765e392f590696a2d9060c00160405180910390a1505050565b610ab4600033610c7b565b610ad05760405162461bcd60e51b81526004016106fc90612652565b6001600160a01b038116610af65760405162461bcd60e51b81526004016106fc906126b7565b61012d80546001600160a01b0319166001600160a01b0383161790556040516001600160a01b03821681527ff2ea0bda686d2968316572c800e276ddf36c2a6fb23d2c55e340cd87035c4b8f906020015b60405180910390a150565b306001600160a01b037f0000000000000000000000000000000000000000000000000000000000000000161415610b9b5760405162461bcd60e51b81526004016106fc9061256c565b7f00000000000000000000000000000000000000000000000000000000000000006001600160a01b0316610bcd611101565b6001600160a01b031614610bf35760405162461bcd60e51b81526004016106fc906125b8565b610bfc8261112f565b61070f8282600161115a565b600054610100900460ff1680610c21575060005460ff16155b610c3d5760405162461bcd60e51b81526004016106fc90612604565b600054610100900460ff16158015610c5f576000805461ffff19166101011790555b610c676112a5565b80156107d9576000805461ff001916905550565b60009182526065602090815260408084206001600160a01b0393909316845291905290205460ff1690565b610cb1600033610c7b565b610ccd5760405162461bcd60e51b81526004016106fc90612652565b6001600160a01b038116610cf35760405162461bcd60e51b81526004016106fc906126b7565b60fb54610d1890600080516020612957833981519152906001600160a01b0316610dbc565b610d3060008051602061295783398151915282610665565b60fb80546001600160a01b0319166001600160a01b0383169081179091556040519081527ff7b449fcd5cfb7379dcd34cb69428dd9f882033b15be33d83b42d91daa28eeb790602001610b47565b610d9660008051602061295783398151915233610c7b565b610db25760405162461bcd60e51b81526004016106fc90612535565b61070f8282611341565b600082815260656020526040902060010154610dd88133610fb0565b61068b838361109a565b6000610dfc60008051602061295783398151915233610c7b565b610e185760405162461bcd60e51b81526004016106fc90612535565b6000610e238361148d565b90507f3ac0594a85a20354f9dc74f33728416d19ce00d04a406c108cc2dcf2cecea13481604051610e5691815260200190565b60405180910390a190505b919050565b6000610e8060008051602061295783398151915233610c7b565b610e9c5760405162461bcd60e51b81526004016106fc90612535565b60008215610eb557610eae8685611557565b9050610f24565b610ec086868661168a565b905084811015610f245760405162461bcd60e51b815260206004820152602960248201527f52657475726e65642076616c7565206c657373207468616e2072657175657374604482015268195908185b5bdd5b9d60ba1b60648201526084016106fc565b60405163a9059cbb60e01b81526001600160a01b0385811660048301526024820183905287169063a9059cbb90604401602060405180830381600087803b158015610f6e57600080fd5b505af1158015610f82573d6000803e3d6000fd5b505050506040513d601f19601f82011682018060405250810190610fa69190612365565b5095945050505050565b610fba8282610c7b565b61070f57610fd2816001600160a01b0316601461180a565b610fdd83602061180a565b604051602001610fee92919061248d565b60408051601f198184030181529082905262461bcd60e51b82526106fc91600401612502565b61101e8282610c7b565b61070f5760008281526065602090815260408083206001600160a01b03851684529091529020805460ff191660011790556110563390565b6001600160a01b0316816001600160a01b0316837f2f8788117e7eff1d82e926ec794901d17c78024a50270940304540a733656f0d60405160405180910390a45050565b6110a48282610c7b565b1561070f5760008281526065602090815260408083206001600160a01b0385168085529252808320805460ff1916905551339285917ff6391f5c32d9c69d2a47ea670b442974b53935d1edc7fd64eb21e047a839171b9190a45050565b7f360894a13ba1a3210667c828492db98dca3e2076cc3735a920a3ca505d382bbc546001600160a01b031690565b7f189ab7a9244df0848122154315af71fe140f3db0fe014031783b0946b8c9d2e361070f8133610fb0565b6000611164611101565b905061116f846119a6565b60008351118061117c5750815b1561118d5761118b8484611a4b565b505b7f4910fdfa16fed3260ed0e7147f7cc6da11a60208b5b9406d12a635614ffd9143805460ff1661129e57805460ff191660011781556040516001600160a01b038316602482015261120c90869060440160408051601f198184030181529190526020810180516001600160e01b0316631b2ce7f360e11b179052611a4b565b50805460ff1916815561121d611101565b6001600160a01b0316826001600160a01b0316146112955760405162461bcd60e51b815260206004820152602f60248201527f45524331393637557067726164653a207570677261646520627265616b73206660448201526e75727468657220757067726164657360881b60648201526084016106fc565b61129e85611b2d565b5050505050565b600054610100900460ff16806112be575060005460ff16155b6112da5760405162461bcd60e51b81526004016106fc90612604565b600054610100900460ff161580156112fc576000805461ffff19166101011790555b611304611b6d565b61130c611bdc565b611317600033611014565b610c677f189ab7a9244df0848122154315af71fe140f3db0fe014031783b0946b8c9d2e333611014565b61015f546001600160a01b0383811691161461136f5760405162461bcd60e51b81526004016106fc90612680565b61015f546101605460405163095ea7b360e01b81526001600160a01b0391821660048201526024810184905291169063095ea7b390604401602060405180830381600087803b1580156113c157600080fd5b505af11580156113d5573d6000803e3d6000fd5b505050506040513d601f19601f820116820180604052508101906113f99190612365565b5061016054604051632befabbf60e01b815260048101839052600160248201523060448201526000916001600160a01b031690632befabbf90606401602060405180830381600087803b15801561144f57600080fd5b505af1158015611463573d6000803e3d6000fd5b505050506040513d601f19601f8201168201806040525081019061148791906123f1565b50505050565b610161546040516370a0823160e01b8152306004820152600091829182916001600160a01b0316906370a082319060240160206040518083038186803b1580156114d657600080fd5b505afa1580156114ea573d6000803e3d6000fd5b505050506040513d601f19601f8201168201806040525081019061150e91906123f1565b90508015611550576101615461015f5461016454600092611540926001600160a01b0391821692911690308987611c3a565b905061154c818461277c565b9250505b5092915050565b61015f546000906001600160a01b038481169116146115885760405162461bcd60e51b81526004016106fc90612680565b610160546040516370a0823160e01b81523060048201526000916001600160a01b0316906370a082319060240160206040518083038186803b1580156115cd57600080fd5b505afa1580156115e1573d6000803e3d6000fd5b505050506040513d601f19601f8201168201806040525081019061160591906123f1565b610160546040516345985a8b60e11b8152600481018390529192506000916001600160a01b0390911690638b30b51690602401602060405180830381600087803b15801561165257600080fd5b505af1158015611666573d6000803e3d6000fd5b505050506040513d601f19601f8201168201806040525081019061154c91906123f1565b61015f546000906001600160a01b038581169116146116bb5760405162461bcd60e51b81526004016106fc90612680565b600060646116ca8560656128a4565b6116d49190612794565b9050600061016060009054906101000a90046001600160a01b03166001600160a01b0316637ff9b5966040518163ffffffff1660e01b815260040160206040518083038186803b15801561172757600080fd5b505afa15801561173b573d6000803e3d6000fd5b505050506040513d601f19601f8201168201806040525081019061175f91906123f1565b826101635461176e91906128a4565b6117789190612794565b610160546040516345985a8b60e11b8152600481018390529192506000916001600160a01b0390911690638b30b51690602401602060405180830381600087803b1580156117c557600080fd5b505af11580156117d9573d6000803e3d6000fd5b505050506040513d601f19601f820116820180604052508101906117fd91906123f1565b93505050505b9392505050565b606060006118198360026128a4565b61182490600261277c565b67ffffffffffffffff81111561183c5761183c612932565b6040519080825280601f01601f191660200182016040528015611866576020820181803683370190505b509050600360fc1b816000815181106118815761188161291c565b60200101906001600160f81b031916908160001a905350600f60fb1b816001815181106118b0576118b061291c565b60200101906001600160f81b031916908160001a90535060006118d48460026128a4565b6118df90600161277c565b90505b6001811115611957576f181899199a1a9b1b9c1cb0b131b232b360811b85600f16601081106119135761191361291c565b1a60f81b8282815181106119295761192961291c565b60200101906001600160f81b031916908160001a90535060049490941c93611950816128ef565b90506118e2565b5083156118035760405162461bcd60e51b815260206004820181905260248201527f537472696e67733a20686578206c656e67746820696e73756666696369656e7460448201526064016106fc565b803b611a0a5760405162461bcd60e51b815260206004820152602d60248201527f455243313936373a206e657720696d706c656d656e746174696f6e206973206e60448201526c1bdd08184818dbdb9d1c9858dd609a1b60648201526084016106fc565b7f360894a13ba1a3210667c828492db98dca3e2076cc3735a920a3ca505d382bbc80546001600160a01b0319166001600160a01b0392909216919091179055565b6060823b611aaa5760405162461bcd60e51b815260206004820152602660248201527f416464726573733a2064656c65676174652063616c6c20746f206e6f6e2d636f6044820152651b9d1c9858dd60d21b60648201526084016106fc565b600080846001600160a01b031684604051611ac59190612471565b600060405180830381855af49150503d8060008114611b00576040519150601f19603f3d011682016040523d82523d6000602084013e611b05565b606091505b509150915061154c828260405180606001604052806027815260200161297760279139611f23565b611b36816119a6565b6040516001600160a01b038216907fbc7cd75a20ee27fd9adebab32041f755214dbc6bffa90cc0225b39da2e5c2d3b90600090a250565b600054610100900460ff1680611b86575060005460ff16155b611ba25760405162461bcd60e51b81526004016106fc90612604565b600054610100900460ff16158015611bc4576000805461ffff19166101011790555b611bcc611f5c565b611bd4611f5c565b610c67611f5c565b600054610100900460ff1680611bf5575060005460ff16155b611c115760405162461bcd60e51b81526004016106fc90612604565b600054610100900460ff16158015611bcc576000805461ffff1916610101179055611bd4611f5c565b600080611c4988888886611fc6565b90506003811015611d60576040516370a0823160e01b81526001600160a01b03858116600483015289169063a9059cbb90879083906370a082319060240160206040518083038186803b158015611c9f57600080fd5b505afa158015611cb3573d6000803e3d6000fd5b505050506040513d601f19601f82011682018060405250810190611cd791906123f1565b6040516001600160e01b031960e085901b1681526001600160a01b0390921660048301526024820152604401602060405180830381600087803b158015611d1d57600080fd5b505af1158015611d31573d6000803e3d6000fd5b505050506040513d601f19601f82011682018060405250810190611d559190612365565b506000915050611f19565b61012d5460405163095ea7b360e01b81526001600160a01b039182166004820152602481018590526000918a169063095ea7b390604401602060405180830381600087803b158015611db157600080fd5b505af1158015611dc5573d6000803e3d6000fd5b505050506040513d601f19601f82011682018060405250810190611de99190612365565b506040805160028082526060820183526000926020830190803683370190505090508981600081518110611e1f57611e1f61291c565b60200260200101906001600160a01b031690816001600160a01b0316815250508881600181518110611e5357611e5361291c565b6001600160a01b03928316602091820292909201015261012d54166338ed17398684848a611e834261025861277c565b6040518663ffffffff1660e01b8152600401611ea395949392919061270f565b600060405180830381600087803b158015611ebd57600080fd5b505af1158015611ed1573d6000803e3d6000fd5b505050506040513d6000823e601f3d908101601f19168201604052611ef991908101906122b8565b600181518110611f0b57611f0b61291c565b602002602001015193505050505b9695505050505050565b60608315611f32575081611803565b825115611f425782518084602001fd5b8160405162461bcd60e51b81526004016106fc9190612502565b600054610100900460ff1680611f75575060005460ff16155b611f915760405162461bcd60e51b81526004016106fc90612604565b600054610100900460ff16158015610c67576000805461ffff191661010117905580156107d9576000805461ff001916905550565b604080516002808252606082018352600092839291906020830190803683370190505090508581600081518110611fff57611fff61291c565b60200260200101906001600160a01b031690816001600160a01b03168152505084816001815181106120335761203361291c565b6001600160a01b03928316602091820292909201015261012d5460405163d06ca61f60e01b8152600092919091169063d06ca61f9061207890879086906004016126ee565b60006040518083038186803b15801561209057600080fd5b505afa1580156120a4573d6000803e3d6000fd5b505050506040513d6000823e601f3d908101601f191682016040526120cc91908101906122b8565b9050806000815181106120e1576120e161291c565b6020026020010151816001815181106120fc576120fc61291c565b60200260200101518661210f91906128a4565b6121199190612794565b979650505050505050565b80356001600160a01b0381168114610e6157600080fd5b60006020828403121561214d57600080fd5b61180382612124565b60008060006060848603121561216b57600080fd5b61217484612124565b925061218260208501612124565b915061219060408501612124565b90509250925092565b600080604083850312156121ac57600080fd5b6121b583612124565b915060208084013567ffffffffffffffff808211156121d357600080fd5b818601915086601f8301126121e757600080fd5b8135818111156121f9576121f9612932565b61220b601f8201601f1916850161274b565b9150808252878482850101111561222157600080fd5b80848401858401376000848284010152508093505050509250929050565b6000806040838503121561225257600080fd5b61225b83612124565b946020939093013593505050565b6000806000806080858703121561227f57600080fd5b61228885612124565b93506020850135925061229d60408601612124565b915060608501356122ad81612948565b939692955090935050565b600060208083850312156122cb57600080fd5b825167ffffffffffffffff808211156122e357600080fd5b818501915085601f8301126122f757600080fd5b81518181111561230957612309612932565b8060051b915061231a84830161274b565b8181528481019084860184860187018a101561233557600080fd5b600095505b8386101561235857805183526001959095019491860191860161233a565b5098975050505050505050565b60006020828403121561237757600080fd5b815161180381612948565b60006020828403121561239457600080fd5b5035919050565b600080604083850312156123ae57600080fd5b823591506123be60208401612124565b90509250929050565b6000602082840312156123d957600080fd5b81356001600160e01b03198116811461180357600080fd5b60006020828403121561240357600080fd5b5051919050565b60006020828403121561241c57600080fd5b815160ff8116811461180357600080fd5b600081518084526020808501945080840160005b838110156124665781516001600160a01b031687529582019590820190600101612441565b509495945050505050565b600082516124838184602087016128c3565b9190910192915050565b7f416363657373436f6e74726f6c3a206163636f756e74200000000000000000008152600083516124c58160178501602088016128c3565b7001034b99036b4b9b9b4b733903937b6329607d1b60179184019182015283516124f68160288401602088016128c3565b01602801949350505050565b60208152600082518060208401526125218160408501602087016128c3565b601f01601f19169190910160400192915050565b6020808252601f908201527f5265737472696374656420746f20504f5254464f4c494f5f4d414e4147455200604082015260600190565b6020808252602c908201527f46756e6374696f6e206d7573742062652063616c6c6564207468726f7567682060408201526b19195b1959d85d1958d85b1b60a21b606082015260800190565b6020808252602c908201527f46756e6374696f6e206d7573742062652063616c6c6564207468726f7567682060408201526b6163746976652070726f787960a01b606082015260800190565b6020808252602e908201527f496e697469616c697a61626c653a20636f6e747261637420697320616c72656160408201526d191e481a5b9a5d1a585b1a5e995960921b606082015260800190565b6020808252601490820152735265737472696374656420746f2061646d696e7360601b604082015260600190565b60208082526019908201527f536f6d6520746f6b656e206e6f7420636f6d70617469626c6500000000000000604082015260600190565b60208082526018908201527f5a65726f2061646472657373206e6f7420616c6c6f7765640000000000000000604082015260600190565b828152604060208201526000612707604083018461242d565b949350505050565b85815284602082015260a06040820152600061272e60a083018661242d565b6001600160a01b0394909416606083015250608001529392505050565b604051601f8201601f1916810167ffffffffffffffff8111828210171561277457612774612932565b604052919050565b6000821982111561278f5761278f612906565b500190565b6000826127b157634e487b7160e01b600052601260045260246000fd5b500490565b600181815b808511156127f15781600019048211156127d7576127d7612906565b808516156127e457918102915b93841c93908002906127bb565b509250929050565b600061180360ff8416836000826128125750600161052f565b8161281f5750600061052f565b8160018114612835576002811461283f5761285b565b600191505061052f565b60ff84111561285057612850612906565b50506001821b61052f565b5060208310610133831016604e8410600b841016171561287e575081810a61052f565b61288883836127b6565b806000190482111561289c5761289c612906565b029392505050565b60008160001904831182151516156128be576128be612906565b500290565b60005b838110156128de5781810151838201526020016128c6565b838111156114875750506000910152565b6000816128fe576128fe612906565b506000190190565b634e487b7160e01b600052601160045260246000fd5b634e487b7160e01b600052603260045260246000fd5b634e487b7160e01b600052604160045260246000fd5b80151581146107d957600080fdfe90c2aa7471c04182221f68e80c07ab1e5946e4c63f8693e14ca40385d529f051416464726573733a206c6f772d6c6576656c2064656c65676174652063616c6c206661696c6564a26469706673582212201b3b2db0b6c679677aa7fef0b3665a65f6a5307767510ee0b738a8cbe602de5a64736f6c63430008060033",
  "devdoc": {
    "kind": "dev",
    "methods": {
      "constructor": {
        "custom:oz-upgrades-unsafe-allow": "constructor"
      },
      "getRoleAdmin(bytes32)": {
        "details": "Returns the admin role that controls `role`. See {grantRole} and {revokeRole}. To change a role's admin, use {_setRoleAdmin}."
      },
      "grantRole(bytes32,address)": {
        "details": "Grants `role` to `account`. If `account` had not been already granted `role`, emits a {RoleGranted} event. Requirements: - the caller must have ``role``'s admin role."
      },
      "hasRole(bytes32,address)": {
        "details": "Returns `true` if `account` has been granted `role`."
      },
      "renounceRole(bytes32,address)": {
        "details": "Revokes `role` from the calling account. Roles are often managed via {grantRole} and {revokeRole}: this function's purpose is to provide a mechanism for accounts to lose their privileges if they are compromised (such as when a trusted device is misplaced). If the calling account had been revoked `role`, emits a {RoleRevoked} event. Requirements: - the caller must be `account`."
      },
      "revokeRole(bytes32,address)": {
        "details": "Revokes `role` from `account`. If `account` had been granted `role`, emits a {RoleRevoked} event. Requirements: - the caller must have ``role``'s admin role."
      },
      "supportsInterface(bytes4)": {
        "details": "See {IERC165-supportsInterface}."
      },
      "upgradeTo(address)": {
        "details": "Upgrade the implementation of the proxy to `newImplementation`. Calls {_authorizeUpgrade}. Emits an {Upgraded} event."
      },
      "upgradeToAndCall(address,bytes)": {
        "details": "Upgrade the implementation of the proxy to `newImplementation`, and subsequently execute the function call encoded in `data`. Calls {_authorizeUpgrade}. Emits an {Upgraded} event."
      }
    },
    "version": 1
  },
  "userdoc": {
    "kind": "user",
    "methods": {},
    "version": 1
  },
  "storageLayout": {
    "storage": [
      {
        "astId": 823,
        "contract": "contracts/strategies/StrategyIdle.sol:StrategyIdle",
        "label": "_initialized",
        "offset": 0,
        "slot": "0",
        "type": "t_bool"
      },
      {
        "astId": 826,
        "contract": "contracts/strategies/StrategyIdle.sol:StrategyIdle",
        "label": "_initializing",
        "offset": 1,
        "slot": "0",
        "type": "t_bool"
      },
      {
        "astId": 2943,
        "contract": "contracts/strategies/StrategyIdle.sol:StrategyIdle",
        "label": "__gap",
        "offset": 0,
        "slot": "1",
        "type": "t_array(t_uint256)50_storage"
      },
      {
        "astId": 3865,
        "contract": "contracts/strategies/StrategyIdle.sol:StrategyIdle",
        "label": "__gap",
        "offset": 0,
        "slot": "51",
        "type": "t_array(t_uint256)50_storage"
      },
      {
        "astId": 48,
        "contract": "contracts/strategies/StrategyIdle.sol:StrategyIdle",
        "label": "_roles",
        "offset": 0,
        "slot": "101",
        "type": "t_mapping(t_bytes32,t_struct(RoleData)43_storage)"
      },
      {
        "astId": 335,
        "contract": "contracts/strategies/StrategyIdle.sol:StrategyIdle",
        "label": "__gap",
        "offset": 0,
        "slot": "102",
        "type": "t_array(t_uint256)49_storage"
      },
      {
        "astId": 806,
        "contract": "contracts/strategies/StrategyIdle.sol:StrategyIdle",
        "label": "__gap",
        "offset": 0,
        "slot": "151",
        "type": "t_array(t_uint256)50_storage"
      },
      {
        "astId": 973,
        "contract": "contracts/strategies/StrategyIdle.sol:StrategyIdle",
        "label": "__gap",
        "offset": 0,
        "slot": "201",
        "type": "t_array(t_uint256)50_storage"
      },
      {
        "astId": 21050,
        "contract": "contracts/strategies/StrategyIdle.sol:StrategyIdle",
        "label": "portfolioManager",
        "offset": 0,
        "slot": "251",
        "type": "t_address"
      },
      {
        "astId": 21299,
        "contract": "contracts/strategies/StrategyIdle.sol:StrategyIdle",
        "label": "__gap",
        "offset": 0,
        "slot": "252",
        "type": "t_array(t_uint256)49_storage"
      },
      {
        "astId": 16058,
        "contract": "contracts/strategies/StrategyIdle.sol:StrategyIdle",
        "label": "uniswapRouter",
        "offset": 0,
        "slot": "301",
        "type": "t_contract(IUniswapV2Router02)19846"
      },
      {
        "astId": 16289,
        "contract": "contracts/strategies/StrategyIdle.sol:StrategyIdle",
        "label": "__gap",
        "offset": 0,
        "slot": "302",
        "type": "t_array(t_uint256)49_storage"
      },
      {
        "astId": 23705,
        "contract": "contracts/strategies/StrategyIdle.sol:StrategyIdle",
        "label": "usdcToken",
        "offset": 0,
        "slot": "351",
        "type": "t_contract(IERC20)8922"
      },
      {
        "astId": 23708,
        "contract": "contracts/strategies/StrategyIdle.sol:StrategyIdle",
        "label": "idleToken",
        "offset": 0,
        "slot": "352",
        "type": "t_contract(IIdleToken)18620"
      },
      {
        "astId": 23711,
        "contract": "contracts/strategies/StrategyIdle.sol:StrategyIdle",
        "label": "wmaticToken",
        "offset": 0,
        "slot": "353",
        "type": "t_contract(IERC20)8922"
      },
      {
        "astId": 23713,
        "contract": "contracts/strategies/StrategyIdle.sol:StrategyIdle",
        "label": "usdcTokenDenominator",
        "offset": 0,
        "slot": "354",
        "type": "t_uint256"
      },
      {
        "astId": 23715,
        "contract": "contracts/strategies/StrategyIdle.sol:StrategyIdle",
        "label": "idleTokenDenominator",
        "offset": 0,
        "slot": "355",
        "type": "t_uint256"
      },
      {
        "astId": 23717,
        "contract": "contracts/strategies/StrategyIdle.sol:StrategyIdle",
        "label": "wmaticTokenDenominator",
        "offset": 0,
        "slot": "356",
        "type": "t_uint256"
      }
    ],
    "types": {
      "t_address": {
        "encoding": "inplace",
        "label": "address",
        "numberOfBytes": "20"
      },
      "t_array(t_uint256)49_storage": {
        "base": "t_uint256",
        "encoding": "inplace",
        "label": "uint256[49]",
        "numberOfBytes": "1568"
      },
      "t_array(t_uint256)50_storage": {
        "base": "t_uint256",
        "encoding": "inplace",
        "label": "uint256[50]",
        "numberOfBytes": "1600"
      },
      "t_bool": {
        "encoding": "inplace",
        "label": "bool",
        "numberOfBytes": "1"
      },
      "t_bytes32": {
        "encoding": "inplace",
        "label": "bytes32",
        "numberOfBytes": "32"
      },
      "t_contract(IERC20)8922": {
        "encoding": "inplace",
        "label": "contract IERC20",
        "numberOfBytes": "20"
      },
      "t_contract(IIdleToken)18620": {
        "encoding": "inplace",
        "label": "contract IIdleToken",
        "numberOfBytes": "20"
      },
      "t_contract(IUniswapV2Router02)19846": {
        "encoding": "inplace",
        "label": "contract IUniswapV2Router02",
        "numberOfBytes": "20"
      },
      "t_mapping(t_address,t_bool)": {
        "encoding": "mapping",
        "key": "t_address",
        "label": "mapping(address => bool)",
        "numberOfBytes": "32",
        "value": "t_bool"
      },
      "t_mapping(t_bytes32,t_struct(RoleData)43_storage)": {
        "encoding": "mapping",
        "key": "t_bytes32",
        "label": "mapping(bytes32 => struct AccessControlUpgradeable.RoleData)",
        "numberOfBytes": "32",
        "value": "t_struct(RoleData)43_storage"
      },
      "t_struct(RoleData)43_storage": {
        "encoding": "inplace",
        "label": "struct AccessControlUpgradeable.RoleData",
        "members": [
          {
            "astId": 40,
            "contract": "contracts/strategies/StrategyIdle.sol:StrategyIdle",
            "label": "members",
            "offset": 0,
            "slot": "0",
            "type": "t_mapping(t_address,t_bool)"
          },
          {
            "astId": 42,
            "contract": "contracts/strategies/StrategyIdle.sol:StrategyIdle",
            "label": "adminRole",
            "offset": 0,
            "slot": "1",
            "type": "t_bytes32"
          }
        ],
        "numberOfBytes": "64"
      },
      "t_uint256": {
        "encoding": "inplace",
        "label": "uint256",
        "numberOfBytes": "32"
      }
    }
  }
}