{
  "address": "0xAd463d772a88C994a5675167ceA30A987325a4B2",
  "abi": [
    {
      "inputs": [],
      "stateMutability": "nonpayable",
      "type": "constructor"
    },
    {
      "anonymous": false,
      "inputs": [
        {
          "indexed": false,
          "internalType": "address",
          "name": "previousAdmin",
          "type": "address"
        },
        {
          "indexed": false,
          "internalType": "address",
          "name": "newAdmin",
          "type": "address"
        }
      ],
      "name": "AdminChanged",
      "type": "event"
    },
    {
      "anonymous": false,
      "inputs": [
        {
          "indexed": true,
          "internalType": "address",
          "name": "beacon",
          "type": "address"
        }
      ],
      "name": "BeaconUpgraded",
      "type": "event"
    },
    {
      "anonymous": false,
      "inputs": [
        {
          "indexed": false,
          "internalType": "address",
          "name": "value",
          "type": "address"
        }
      ],
      "name": "PortfolioManagerUpdated",
      "type": "event"
    },
    {
      "anonymous": false,
      "inputs": [
        {
          "indexed": false,
          "internalType": "uint256",
          "name": "amount",
          "type": "uint256"
        }
      ],
      "name": "Reward",
      "type": "event"
    },
    {
      "anonymous": false,
      "inputs": [
        {
          "indexed": true,
          "internalType": "bytes32",
          "name": "role",
          "type": "bytes32"
        },
        {
          "indexed": true,
          "internalType": "bytes32",
          "name": "previousAdminRole",
          "type": "bytes32"
        },
        {
          "indexed": true,
          "internalType": "bytes32",
          "name": "newAdminRole",
          "type": "bytes32"
        }
      ],
      "name": "RoleAdminChanged",
      "type": "event"
    },
    {
      "anonymous": false,
      "inputs": [
        {
          "indexed": true,
          "internalType": "bytes32",
          "name": "role",
          "type": "bytes32"
        },
        {
          "indexed": true,
          "internalType": "address",
          "name": "account",
          "type": "address"
        },
        {
          "indexed": true,
          "internalType": "address",
          "name": "sender",
          "type": "address"
        }
      ],
      "name": "RoleGranted",
      "type": "event"
    },
    {
      "anonymous": false,
      "inputs": [
        {
          "indexed": true,
          "internalType": "bytes32",
          "name": "role",
          "type": "bytes32"
        },
        {
          "indexed": true,
          "internalType": "address",
          "name": "account",
          "type": "address"
        },
        {
          "indexed": true,
          "internalType": "address",
          "name": "sender",
          "type": "address"
        }
      ],
      "name": "RoleRevoked",
      "type": "event"
    },
    {
      "anonymous": false,
      "inputs": [
        {
          "indexed": false,
          "internalType": "address",
          "name": "usdcToken",
          "type": "address"
        },
        {
          "indexed": false,
          "internalType": "address",
          "name": "idleToken",
          "type": "address"
        },
        {
          "indexed": false,
          "internalType": "address",
          "name": "wmaticToken",
          "type": "address"
        },
        {
          "indexed": false,
          "internalType": "address",
          "name": "quickswapExchange",
          "type": "address"
        },
        {
          "indexed": false,
          "internalType": "uint256",
          "name": "usdcTokenDenominator",
          "type": "uint256"
        },
        {
          "indexed": false,
          "internalType": "uint256",
          "name": "idleTokenDenominator",
          "type": "uint256"
        },
        {
          "indexed": false,
          "internalType": "uint256",
          "name": "wmaticTokenDenominator",
          "type": "uint256"
        }
      ],
      "name": "StrategyIdleUpdate",
      "type": "event"
    },
    {
      "anonymous": false,
      "inputs": [
        {
          "indexed": true,
          "internalType": "address",
          "name": "implementation",
          "type": "address"
        }
      ],
      "name": "Upgraded",
      "type": "event"
    },
    {
      "inputs": [],
      "name": "DEFAULT_ADMIN_ROLE",
      "outputs": [
        {
          "internalType": "bytes32",
          "name": "",
          "type": "bytes32"
        }
      ],
      "stateMutability": "view",
      "type": "function"
    },
    {
      "inputs": [],
      "name": "PORTFOLIO_MANAGER",
      "outputs": [
        {
          "internalType": "bytes32",
          "name": "",
          "type": "bytes32"
        }
      ],
      "stateMutability": "view",
      "type": "function"
    },
    {
      "inputs": [],
      "name": "UPGRADER_ROLE",
      "outputs": [
        {
          "internalType": "bytes32",
          "name": "",
          "type": "bytes32"
        }
      ],
      "stateMutability": "view",
      "type": "function"
    },
    {
      "inputs": [
        {
          "internalType": "address",
          "name": "_to",
          "type": "address"
        }
      ],
      "name": "claimRewards",
      "outputs": [
        {
          "internalType": "uint256",
          "name": "",
          "type": "uint256"
        }
      ],
      "stateMutability": "nonpayable",
      "type": "function"
    },
    {
      "inputs": [
        {
          "internalType": "bytes32",
          "name": "role",
          "type": "bytes32"
        }
      ],
      "name": "getRoleAdmin",
      "outputs": [
        {
          "internalType": "bytes32",
          "name": "",
          "type": "bytes32"
        }
      ],
      "stateMutability": "view",
      "type": "function"
    },
    {
      "inputs": [
        {
          "internalType": "bytes32",
          "name": "role",
          "type": "bytes32"
        },
        {
          "internalType": "address",
          "name": "account",
          "type": "address"
        }
      ],
      "name": "grantRole",
      "outputs": [],
      "stateMutability": "nonpayable",
      "type": "function"
    },
    {
      "inputs": [
        {
          "internalType": "bytes32",
          "name": "role",
          "type": "bytes32"
        },
        {
          "internalType": "address",
          "name": "account",
          "type": "address"
        }
      ],
      "name": "hasRole",
      "outputs": [
        {
          "internalType": "bool",
          "name": "",
          "type": "bool"
        }
      ],
      "stateMutability": "view",
      "type": "function"
    },
    {
      "inputs": [],
      "name": "idleToken",
      "outputs": [
        {
          "internalType": "contract IIdleToken",
          "name": "",
          "type": "address"
        }
      ],
      "stateMutability": "view",
      "type": "function"
    },
    {
      "inputs": [],
      "name": "idleTokenDenominator",
      "outputs": [
        {
          "internalType": "uint256",
          "name": "",
          "type": "uint256"
        }
      ],
      "stateMutability": "view",
      "type": "function"
    },
    {
      "inputs": [],
      "name": "initialize",
      "outputs": [],
      "stateMutability": "nonpayable",
      "type": "function"
    },
    {
      "inputs": [],
      "name": "liquidationValue",
      "outputs": [
        {
          "internalType": "uint256",
          "name": "",
          "type": "uint256"
        }
      ],
      "stateMutability": "view",
      "type": "function"
    },
    {
      "inputs": [],
      "name": "netAssetValue",
      "outputs": [
        {
          "internalType": "uint256",
          "name": "",
          "type": "uint256"
        }
      ],
      "stateMutability": "view",
      "type": "function"
    },
    {
      "inputs": [],
      "name": "portfolioManager",
      "outputs": [
        {
          "internalType": "address",
          "name": "",
          "type": "address"
        }
      ],
      "stateMutability": "view",
      "type": "function"
    },
    {
      "inputs": [],
      "name": "quickswapExchange",
      "outputs": [
        {
          "internalType": "contract QuickswapExchange",
          "name": "",
          "type": "address"
        }
      ],
      "stateMutability": "view",
      "type": "function"
    },
    {
      "inputs": [
        {
          "internalType": "bytes32",
          "name": "role",
          "type": "bytes32"
        },
        {
          "internalType": "address",
          "name": "account",
          "type": "address"
        }
      ],
      "name": "renounceRole",
      "outputs": [],
      "stateMutability": "nonpayable",
      "type": "function"
    },
    {
      "inputs": [
        {
          "internalType": "bytes32",
          "name": "role",
          "type": "bytes32"
        },
        {
          "internalType": "address",
          "name": "account",
          "type": "address"
        }
      ],
      "name": "revokeRole",
      "outputs": [],
      "stateMutability": "nonpayable",
      "type": "function"
    },
    {
      "inputs": [
        {
          "internalType": "address",
          "name": "_usdcToken",
          "type": "address"
        },
        {
          "internalType": "address",
          "name": "_idleToken",
          "type": "address"
        },
        {
          "internalType": "address",
          "name": "_wmaticToken",
          "type": "address"
        },
        {
          "internalType": "address",
          "name": "_quickswapExchange",
          "type": "address"
        }
      ],
      "name": "setParams",
      "outputs": [],
      "stateMutability": "nonpayable",
      "type": "function"
    },
    {
      "inputs": [
        {
          "internalType": "address",
          "name": "_value",
          "type": "address"
        }
      ],
      "name": "setPortfolioManager",
      "outputs": [],
      "stateMutability": "nonpayable",
      "type": "function"
    },
    {
      "inputs": [
        {
          "internalType": "address",
          "name": "_asset",
          "type": "address"
        },
        {
          "internalType": "uint256",
          "name": "_amount",
          "type": "uint256"
        }
      ],
      "name": "stake",
      "outputs": [],
      "stateMutability": "nonpayable",
      "type": "function"
    },
    {
      "inputs": [
        {
          "internalType": "bytes4",
          "name": "interfaceId",
          "type": "bytes4"
        }
      ],
      "name": "supportsInterface",
      "outputs": [
        {
          "internalType": "bool",
          "name": "",
          "type": "bool"
        }
      ],
      "stateMutability": "view",
      "type": "function"
    },
    {
      "inputs": [
        {
          "internalType": "address",
          "name": "_asset",
          "type": "address"
        },
        {
          "internalType": "uint256",
          "name": "_amount",
          "type": "uint256"
        },
        {
          "internalType": "address",
          "name": "_beneficiary",
          "type": "address"
        }
      ],
      "name": "unstake",
      "outputs": [
        {
          "internalType": "uint256",
          "name": "",
          "type": "uint256"
        }
      ],
      "stateMutability": "nonpayable",
      "type": "function"
    },
    {
      "inputs": [
        {
          "internalType": "address",
          "name": "newImplementation",
          "type": "address"
        }
      ],
      "name": "upgradeTo",
      "outputs": [],
      "stateMutability": "nonpayable",
      "type": "function"
    },
    {
      "inputs": [
        {
          "internalType": "address",
          "name": "newImplementation",
          "type": "address"
        },
        {
          "internalType": "bytes",
          "name": "data",
          "type": "bytes"
        }
      ],
      "name": "upgradeToAndCall",
      "outputs": [],
      "stateMutability": "payable",
      "type": "function"
    },
    {
      "inputs": [],
      "name": "usdcToken",
      "outputs": [
        {
          "internalType": "contract IERC20",
          "name": "",
          "type": "address"
        }
      ],
      "stateMutability": "view",
      "type": "function"
    },
    {
      "inputs": [],
      "name": "usdcTokenDenominator",
      "outputs": [
        {
          "internalType": "uint256",
          "name": "",
          "type": "uint256"
        }
      ],
      "stateMutability": "view",
      "type": "function"
    },
    {
      "inputs": [],
      "name": "wmaticToken",
      "outputs": [
        {
          "internalType": "contract IERC20",
          "name": "",
          "type": "address"
        }
      ],
      "stateMutability": "view",
      "type": "function"
    },
    {
      "inputs": [],
      "name": "wmaticTokenDenominator",
      "outputs": [
        {
          "internalType": "uint256",
          "name": "",
          "type": "uint256"
        }
      ],
      "stateMutability": "view",
      "type": "function"
    }
  ],
  "solcInputHash": "a2cc2f4fd377a646b20efd9614b8db35",
  "bytecode": "0x60a06040523060601b60805234801561001757600080fd5b50600054610100900460ff1680610031575060005460ff16155b6100985760405162461bcd60e51b815260206004820152602e60248201527f496e697469616c697a61626c653a20636f6e747261637420697320616c72656160448201526d191e481a5b9a5d1a585b1a5e995960921b606482015260840160405180910390fd5b600054610100900460ff161580156100ba576000805461ffff19166101011790555b80156100cc576000805461ff00191690555b5060805160601c6122fe610100600039600081816106e30152818161072301528181610ad80152610b1801526122fe6000f3fe60806040526004361061019c5760003560e01c8063620b75df116100ec578063a3673b381161008a578063adc9772e11610064578063adc9772e14610467578063d547741f14610487578063ef5cfb8c146104a7578063f72c0d8b1461039b57600080fd5b8063a3673b381461029a578063a440b21a14610427578063abf4be011461044757600080fd5b80638129fc1c116100c65780638129fc1c146103bd57806391d14854146103d2578063926e31d6146103f2578063a217fddf1461041257600080fd5b8063620b75df1461036457806362b67652146103845780637d5f58021461039b57600080fd5b80632576e65a1161015957806336568abe1161013357806336568abe146102f15780633659cfe6146103115780633dd5f1a4146103315780634f1ef2861461035157600080fd5b80632576e65a1461029a5780632dd60c5e146102af5780632f2ff15d146102cf57600080fd5b806301ffc9a7146101a157806306da3f2e146101d65780630cc8d47b146101fb57806311eac85514610212578063185f55b81461024a578063248a9ca31461026a575b600080fd5b3480156101ad57600080fd5b506101c16101bc366004611e09565b6104c7565b60405190151581526020015b60405180910390f35b3480156101e257600080fd5b506101ed6101005481565b6040519081526020016101cd565b34801561020757600080fd5b506101ed6101015481565b34801561021e57600080fd5b5060fc54610232906001600160a01b031681565b6040516001600160a01b0390911681526020016101cd565b34801561025657600080fd5b5060ff54610232906001600160a01b031681565b34801561027657600080fd5b506101ed610285366004611dc4565b60009081526065602052604090206001015490565b3480156102a657600080fd5b506101ed6104fe565b3480156102bb57600080fd5b5060fd54610232906001600160a01b031681565b3480156102db57600080fd5b506102ef6102ea366004611ddd565b61062a565b005b3480156102fd57600080fd5b506102ef61030c366004611ddd565b610655565b34801561031d57600080fd5b506102ef61032c366004611c0b565b6106d8565b34801561033d57600080fd5b506102ef61034c366004611c26565b6107a1565b6102ef61035f366004611c7a565b610acd565b34801561037057600080fd5b5060fb54610232906001600160a01b031681565b34801561039057600080fd5b506101ed6101025481565b3480156103a757600080fd5b506101ed60008051602061228283398151915281565b3480156103c957600080fd5b506102ef610b83565b3480156103de57600080fd5b506101c16103ed366004611ddd565b610c21565b3480156103fe57600080fd5b506101ed61040d366004611d66565b610c4c565b34801561041e57600080fd5b506101ed600081565b34801561043357600080fd5b506102ef610442366004611c0b565b610f7d565b34801561045357600080fd5b5060fe54610232906001600160a01b031681565b34801561047357600080fd5b506102ef610482366004611d3c565b611082565b34801561049357600080fd5b506102ef6104a2366004611ddd565b611223565b3480156104b357600080fd5b506101ed6104c2366004611c0b565b611249565b60006001600160e01b03198216637965db0b60e01b14806104f857506301ffc9a760e01b6001600160e01b03198316145b92915050565b60fd546040516370a0823160e01b815230600482015260009182916001600160a01b03909116906370a082319060240160206040518083038186803b15801561054657600080fd5b505afa15801561055a573d6000803e3d6000fd5b505050506040513d601f19601f8201168201806040525081019061057e9190611e33565b9050600060fd60009054906101000a90046001600160a01b03166001600160a01b0316637ff9b5966040518163ffffffff1660e01b815260040160206040518083038186803b1580156105d057600080fd5b505afa1580156105e4573d6000803e3d6000fd5b505050506040513d601f19601f820116820180604052508101906106089190611e33565b6101015490915061061982846121dd565b61062391906120cd565b9250505090565b60008281526065602052604090206001015461064681336113cf565b6106508383611433565b505050565b6001600160a01b03811633146106ca5760405162461bcd60e51b815260206004820152602f60248201527f416363657373436f6e74726f6c3a2063616e206f6e6c792072656e6f756e636560448201526e103937b632b9903337b91039b2b63360891b60648201526084015b60405180910390fd5b6106d482826114b9565b5050565b306001600160a01b037f00000000000000000000000000000000000000000000000000000000000000001614156107215760405162461bcd60e51b81526004016106c190611f98565b7f00000000000000000000000000000000000000000000000000000000000000006001600160a01b0316610753611520565b6001600160a01b0316146107795760405162461bcd60e51b81526004016106c190611fe4565b6107828161154e565b6040805160008082526020820190925261079e91839190611567565b50565b6107ac600033610c21565b6107ef5760405162461bcd60e51b81526020600482015260146024820152735265737472696374656420746f2061646d696e7360601b60448201526064016106c1565b6001600160a01b0384166108155760405162461bcd60e51b81526004016106c19061207e565b6001600160a01b03831661083b5760405162461bcd60e51b81526004016106c19061207e565b6001600160a01b0382166108615760405162461bcd60e51b81526004016106c19061207e565b6001600160a01b0381166108875760405162461bcd60e51b81526004016106c19061207e565b60fc80546001600160a01b038087166001600160a01b0319928316811790935560fd805487831690841617905560fe805486831690841617905560ff8054918516919092161790556040805163313ce56760e01b8152905163313ce56791600480820192602092909190829003018186803b15801561090557600080fd5b505afa158015610919573d6000803e3d6000fd5b505050506040513d601f19601f8201168201806040525081019061093d9190611e4c565b61094890600a612132565b61010081905550826001600160a01b031663313ce5676040518163ffffffff1660e01b815260040160206040518083038186803b15801561098857600080fd5b505afa15801561099c573d6000803e3d6000fd5b505050506040513d601f19601f820116820180604052508101906109c09190611e4c565b6109cb90600a612132565b61010181905550816001600160a01b031663313ce5676040518163ffffffff1660e01b815260040160206040518083038186803b158015610a0b57600080fd5b505afa158015610a1f573d6000803e3d6000fd5b505050506040513d601f19601f82011682018060405250810190610a439190611e4c565b610a4e90600a612132565b6101028190556101005461010154604080516001600160a01b03898116825288811660208301528781168284015286166060820152608081019390935260a083019190915260c082019290925290517f41468f0fa21ef5a1e7f28e0fff6974d0da924edf12e58302ad25be6a6d3fe4a39181900360e00190a150505050565b306001600160a01b037f0000000000000000000000000000000000000000000000000000000000000000161415610b165760405162461bcd60e51b81526004016106c190611f98565b7f00000000000000000000000000000000000000000000000000000000000000006001600160a01b0316610b48611520565b6001600160a01b031614610b6e5760405162461bcd60e51b81526004016106c190611fe4565b610b778261154e565b6106d482826001611567565b600054610100900460ff1680610b9c575060005460ff16155b610bb85760405162461bcd60e51b81526004016106c190612030565b600054610100900460ff16158015610bda576000805461ffff19166101011790555b610be26116b2565b610bea611721565b610bf5600033611433565b610c0d60008051602061228283398151915233611433565b801561079e576000805461ff001916905550565b60009182526065602090815260408084206001600160a01b0393909316845291905290205460ff1690565b6000610c6660008051602061228283398151915233610c21565b610c825760405162461bcd60e51b81526004016106c190611f61565b60fc546001600160a01b03858116911614610cd65760405162461bcd60e51b8152602060048201526014602482015273556e7374616b65206f6e6c7920696e207573646360601b60448201526064016106c1565b6000610ce36064856120cd565b610cee9060016121dd565b610cf890856120b5565b905060fd60009054906101000a90046001600160a01b03166001600160a01b0316637ff9b5966040518163ffffffff1660e01b815260040160206040518083038186803b158015610d4857600080fd5b505afa158015610d5c573d6000803e3d6000fd5b505050506040513d601f19601f82011682018060405250810190610d809190611e33565b610d9282670de0b6b3a76400006121dd565b610d9c91906120cd565b60fd546040516345985a8b60e11b8152600481018390529192506000916001600160a01b0390911690638b30b51690602401602060405180830381600087803b158015610de857600080fd5b505af1158015610dfc573d6000803e3d6000fd5b505050506040513d601f19601f82011682018060405250810190610e209190611e33565b60fc5460405163a9059cbb60e01b81526001600160a01b0387811660048301526024820184905292935091169063a9059cbb90604401602060405180830381600087803b158015610e7057600080fd5b505af1158015610e84573d6000803e3d6000fd5b505050506040513d601f19601f82011682018060405250810190610ea89190611da2565b5060408051808201909152600981526852656465656d20257360b81b6020820152610edf90610eda620f4240846120cd565b61177f565b604080518082019091526009815268416d6f756e7420257360b81b6020820152610f1090610eda620f4240886120cd565b84811015610f725760405162461bcd60e51b815260206004820152602960248201527f52657475726e65642076616c7565206c657373207468616e2072657175657374604482015268195908185b5bdd5b9d60ba1b60648201526084016106c1565b9150505b9392505050565b610f88600033610c21565b610fcb5760405162461bcd60e51b81526020600482015260146024820152735265737472696374656420746f2061646d696e7360601b60448201526064016106c1565b6001600160a01b038116610ff15760405162461bcd60e51b81526004016106c19061207e565b60fb5461101690600080516020612282833981519152906001600160a01b0316611223565b61102e6000805160206122828339815191528261062a565b60fb80546001600160a01b0319166001600160a01b0383169081179091556040519081527ff7b449fcd5cfb7379dcd34cb69428dd9f882033b15be33d83b42d91daa28eeb79060200160405180910390a150565b61109a60008051602061228283398151915233610c21565b6110b65760405162461bcd60e51b81526004016106c190611f61565b60fc546001600160a01b038381169116146111085760405162461bcd60e51b81526020600482015260126024820152715374616b65206f6e6c7920696e207573646360701b60448201526064016106c1565b60fc5460fd5460405163095ea7b360e01b81526001600160a01b0391821660048201526024810184905291169063095ea7b390604401602060405180830381600087803b15801561115857600080fd5b505af115801561116c573d6000803e3d6000fd5b505050506040513d601f19601f820116820180604052508101906111909190611da2565b5060fd54604051632befabbf60e01b815260048101839052600160248201523060448201526000916001600160a01b031690632befabbf90606401602060405180830381600087803b1580156111e557600080fd5b505af11580156111f9573d6000803e3d6000fd5b505050506040513d601f19601f8201168201806040525081019061121d9190611e33565b50505050565b60008281526065602052604090206001015461123f81336113cf565b61065083836114b9565b600061126360008051602061228283398151915233610c21565b61127f5760405162461bcd60e51b81526004016106c190611f61565b60fe546040516370a0823160e01b815230600482015260009182916001600160a01b03909116906370a082319060240160206040518083038186803b1580156112c757600080fd5b505afa1580156112db573d6000803e3d6000fd5b505050506040513d601f19601f820116820180604052508101906112ff9190611e33565b905080156113c65760ff5460fe5460fc546101025460405163ec2adebd60e01b81526001600160a01b03938416600482015291831660248301526044820152306064820152868216608482015260a48101849052600092919091169063ec2adebd9060c401602060405180830381600087803b15801561137e57600080fd5b505af1158015611392573d6000803e3d6000fd5b505050506040513d601f19601f820116820180604052508101906113b69190611e33565b90506113c281846120b5565b9250505b5090505b919050565b6113d98282610c21565b6106d4576113f1816001600160a01b031660146117c4565b6113fc8360206117c4565b60405160200161140d929190611eb7565b60408051601f198184030181529082905262461bcd60e51b82526106c191600401611f2c565b61143d8282610c21565b6106d45760008281526065602090815260408083206001600160a01b03851684529091529020805460ff191660011790556114753390565b6001600160a01b0316816001600160a01b0316837f2f8788117e7eff1d82e926ec794901d17c78024a50270940304540a733656f0d60405160405180910390a45050565b6114c38282610c21565b156106d45760008281526065602090815260408083206001600160a01b0385168085529252808320805460ff1916905551339285917ff6391f5c32d9c69d2a47ea670b442974b53935d1edc7fd64eb21e047a839171b9190a45050565b7f360894a13ba1a3210667c828492db98dca3e2076cc3735a920a3ca505d382bbc546001600160a01b031690565b6000805160206122828339815191526106d481336113cf565b6000611571611520565b905061157c84611960565b6000835111806115895750815b1561159a576115988484611a05565b505b7f4910fdfa16fed3260ed0e7147f7cc6da11a60208b5b9406d12a635614ffd9143805460ff166116ab57805460ff191660011781556040516001600160a01b038316602482015261161990869060440160408051601f198184030181529190526020810180516001600160e01b0316631b2ce7f360e11b179052611a05565b50805460ff1916815561162a611520565b6001600160a01b0316826001600160a01b0316146116a25760405162461bcd60e51b815260206004820152602f60248201527f45524331393637557067726164653a207570677261646520627265616b73206660448201526e75727468657220757067726164657360881b60648201526084016106c1565b6116ab85611af0565b5050505050565b600054610100900460ff16806116cb575060005460ff16155b6116e75760405162461bcd60e51b81526004016106c190612030565b600054610100900460ff16158015611709576000805461ffff19166101011790555b611711611b30565b611719611b30565b610c0d611b30565b600054610100900460ff168061173a575060005460ff16155b6117565760405162461bcd60e51b81526004016106c190612030565b600054610100900460ff16158015611711576000805461ffff1916610101179055611719611b30565b6106d48282604051602401611795929190611f3f565b60408051601f198184030181529190526020810180516001600160e01b03166309710a9d60e41b179052611b9a565b606060006117d38360026121dd565b6117de9060026120b5565b67ffffffffffffffff8111156117f6576117f661226b565b6040519080825280601f01601f191660200182016040528015611820576020820181803683370190505b509050600360fc1b8160008151811061183b5761183b612255565b60200101906001600160f81b031916908160001a905350600f60fb1b8160018151811061186a5761186a612255565b60200101906001600160f81b031916908160001a905350600061188e8460026121dd565b6118999060016120b5565b90505b6001811115611911576f181899199a1a9b1b9c1cb0b131b232b360811b85600f16601081106118cd576118cd612255565b1a60f81b8282815181106118e3576118e3612255565b60200101906001600160f81b031916908160001a90535060049490941c9361190a81612228565b905061189c565b508315610f765760405162461bcd60e51b815260206004820181905260248201527f537472696e67733a20686578206c656e67746820696e73756666696369656e7460448201526064016106c1565b803b6119c45760405162461bcd60e51b815260206004820152602d60248201527f455243313936373a206e657720696d706c656d656e746174696f6e206973206e60448201526c1bdd08184818dbdb9d1c9858dd609a1b60648201526084016106c1565b7f360894a13ba1a3210667c828492db98dca3e2076cc3735a920a3ca505d382bbc80546001600160a01b0319166001600160a01b0392909216919091179055565b6060823b611a645760405162461bcd60e51b815260206004820152602660248201527f416464726573733a2064656c65676174652063616c6c20746f206e6f6e2d636f6044820152651b9d1c9858dd60d21b60648201526084016106c1565b600080846001600160a01b031684604051611a7f9190611e9b565b600060405180830381855af49150503d8060008114611aba576040519150601f19603f3d011682016040523d82523d6000602084013e611abf565b606091505b5091509150611ae782826040518060600160405280602781526020016122a260279139611bbb565b95945050505050565b611af981611960565b6040516001600160a01b038216907fbc7cd75a20ee27fd9adebab32041f755214dbc6bffa90cc0225b39da2e5c2d3b90600090a250565b600054610100900460ff1680611b49575060005460ff16155b611b655760405162461bcd60e51b81526004016106c190612030565b600054610100900460ff16158015610c0d576000805461ffff1916610101179055801561079e576000805461ff001916905550565b80516a636f6e736f6c652e6c6f67602083016000808483855afa5050505050565b60608315611bca575081610f76565b825115611bda5782518084602001fd5b8160405162461bcd60e51b81526004016106c19190611f2c565b80356001600160a01b03811681146113ca57600080fd5b600060208284031215611c1d57600080fd5b610f7682611bf4565b60008060008060808587031215611c3c57600080fd5b611c4585611bf4565b9350611c5360208601611bf4565b9250611c6160408601611bf4565b9150611c6f60608601611bf4565b905092959194509250565b60008060408385031215611c8d57600080fd5b611c9683611bf4565b9150602083013567ffffffffffffffff80821115611cb357600080fd5b818501915085601f830112611cc757600080fd5b813581811115611cd957611cd961226b565b604051601f8201601f19908116603f01168101908382118183101715611d0157611d0161226b565b81604052828152886020848701011115611d1a57600080fd5b8260208601602083013760006020848301015280955050505050509250929050565b60008060408385031215611d4f57600080fd5b611d5883611bf4565b946020939093013593505050565b600080600060608486031215611d7b57600080fd5b611d8484611bf4565b925060208401359150611d9960408501611bf4565b90509250925092565b600060208284031215611db457600080fd5b81518015158114610f7657600080fd5b600060208284031215611dd657600080fd5b5035919050565b60008060408385031215611df057600080fd5b82359150611e0060208401611bf4565b90509250929050565b600060208284031215611e1b57600080fd5b81356001600160e01b031981168114610f7657600080fd5b600060208284031215611e4557600080fd5b5051919050565b600060208284031215611e5e57600080fd5b815160ff81168114610f7657600080fd5b60008151808452611e878160208601602086016121fc565b601f01601f19169290920160200192915050565b60008251611ead8184602087016121fc565b9190910192915050565b7f416363657373436f6e74726f6c3a206163636f756e7420000000000000000000815260008351611eef8160178501602088016121fc565b7001034b99036b4b9b9b4b733903937b6329607d1b6017918401918201528351611f208160288401602088016121fc565b01602801949350505050565b602081526000610f766020830184611e6f565b604081526000611f526040830185611e6f565b90508260208301529392505050565b6020808252601f908201527f5265737472696374656420746f20504f5254464f4c494f5f4d414e4147455200604082015260600190565b6020808252602c908201527f46756e6374696f6e206d7573742062652063616c6c6564207468726f7567682060408201526b19195b1959d85d1958d85b1b60a21b606082015260800190565b6020808252602c908201527f46756e6374696f6e206d7573742062652063616c6c6564207468726f7567682060408201526b6163746976652070726f787960a01b606082015260800190565b6020808252602e908201527f496e697469616c697a61626c653a20636f6e747261637420697320616c72656160408201526d191e481a5b9a5d1a585b1a5e995960921b606082015260800190565b60208082526018908201527f5a65726f2061646472657373206e6f7420616c6c6f7765640000000000000000604082015260600190565b600082198211156120c8576120c861223f565b500190565b6000826120ea57634e487b7160e01b600052601260045260246000fd5b500490565b600181815b8085111561212a5781600019048211156121105761211061223f565b8085161561211d57918102915b93841c93908002906120f4565b509250929050565b6000610f7660ff84168360008261214b575060016104f8565b81612158575060006104f8565b816001811461216e576002811461217857612194565b60019150506104f8565b60ff8411156121895761218961223f565b50506001821b6104f8565b5060208310610133831016604e8410600b84101617156121b7575081810a6104f8565b6121c183836120ef565b80600019048211156121d5576121d561223f565b029392505050565b60008160001904831182151516156121f7576121f761223f565b500290565b60005b838110156122175781810151838201526020016121ff565b8381111561121d5750506000910152565b6000816122375761223761223f565b506000190190565b634e487b7160e01b600052601160045260246000fd5b634e487b7160e01b600052603260045260246000fd5b634e487b7160e01b600052604160045260246000fdfe189ab7a9244df0848122154315af71fe140f3db0fe014031783b0946b8c9d2e3416464726573733a206c6f772d6c6576656c2064656c65676174652063616c6c206661696c6564a26469706673582212202af60e0d4de474e8849e89b922051b68a977aba7583fb246c5d4805a76b6dfed64736f6c63430008060033",
  "devdoc": {
    "kind": "dev",
    "methods": {
      "constructor": {
        "custom:oz-upgrades-unsafe-allow": "constructor"
      },
      "getRoleAdmin(bytes32)": {
        "details": "Returns the admin role that controls `role`. See {grantRole} and {revokeRole}. To change a role's admin, use {_setRoleAdmin}."
      },
      "grantRole(bytes32,address)": {
        "details": "Grants `role` to `account`. If `account` had not been already granted `role`, emits a {RoleGranted} event. Requirements: - the caller must have ``role``'s admin role."
      },
      "hasRole(bytes32,address)": {
        "details": "Returns `true` if `account` has been granted `role`."
      },
      "renounceRole(bytes32,address)": {
        "details": "Revokes `role` from the calling account. Roles are often managed via {grantRole} and {revokeRole}: this function's purpose is to provide a mechanism for accounts to lose their privileges if they are compromised (such as when a trusted device is misplaced). If the calling account had been revoked `role`, emits a {RoleRevoked} event. Requirements: - the caller must be `account`."
      },
      "revokeRole(bytes32,address)": {
        "details": "Revokes `role` from `account`. If `account` had been granted `role`, emits a {RoleRevoked} event. Requirements: - the caller must have ``role``'s admin role."
      },
      "supportsInterface(bytes4)": {
        "details": "See {IERC165-supportsInterface}."
      },
      "upgradeTo(address)": {
        "details": "Upgrade the implementation of the proxy to `newImplementation`. Calls {_authorizeUpgrade}. Emits an {Upgraded} event."
      },
      "upgradeToAndCall(address,bytes)": {
        "details": "Upgrade the implementation of the proxy to `newImplementation`, and subsequently execute the function call encoded in `data`. Calls {_authorizeUpgrade}. Emits an {Upgraded} event."
      }
    },
    "version": 1
  },
  "userdoc": {
    "kind": "user",
    "methods": {},
    "version": 1
  },
  "storageLayout": {
    "storage": [
      {
        "astId": 823,
        "contract": "contracts/strategies/StrategyIdle.sol:StrategyIdle",
        "label": "_initialized",
        "offset": 0,
        "slot": "0",
        "type": "t_bool"
      },
      {
        "astId": 826,
        "contract": "contracts/strategies/StrategyIdle.sol:StrategyIdle",
        "label": "_initializing",
        "offset": 1,
        "slot": "0",
        "type": "t_bool"
      },
      {
        "astId": 2943,
        "contract": "contracts/strategies/StrategyIdle.sol:StrategyIdle",
        "label": "__gap",
        "offset": 0,
        "slot": "1",
        "type": "t_array(t_uint256)50_storage"
      },
      {
        "astId": 3865,
        "contract": "contracts/strategies/StrategyIdle.sol:StrategyIdle",
        "label": "__gap",
        "offset": 0,
        "slot": "51",
        "type": "t_array(t_uint256)50_storage"
      },
      {
        "astId": 48,
        "contract": "contracts/strategies/StrategyIdle.sol:StrategyIdle",
        "label": "_roles",
        "offset": 0,
        "slot": "101",
        "type": "t_mapping(t_bytes32,t_struct(RoleData)43_storage)"
      },
      {
        "astId": 335,
        "contract": "contracts/strategies/StrategyIdle.sol:StrategyIdle",
        "label": "__gap",
        "offset": 0,
        "slot": "102",
        "type": "t_array(t_uint256)49_storage"
      },
      {
        "astId": 806,
        "contract": "contracts/strategies/StrategyIdle.sol:StrategyIdle",
        "label": "__gap",
        "offset": 0,
        "slot": "151",
        "type": "t_array(t_uint256)50_storage"
      },
      {
        "astId": 973,
        "contract": "contracts/strategies/StrategyIdle.sol:StrategyIdle",
        "label": "__gap",
        "offset": 0,
        "slot": "201",
        "type": "t_array(t_uint256)50_storage"
      },
      {
        "astId": 23425,
        "contract": "contracts/strategies/StrategyIdle.sol:StrategyIdle",
        "label": "portfolioManager",
        "offset": 0,
        "slot": "251",
        "type": "t_address"
      },
      {
        "astId": 23428,
        "contract": "contracts/strategies/StrategyIdle.sol:StrategyIdle",
        "label": "usdcToken",
        "offset": 0,
        "slot": "252",
        "type": "t_contract(IERC20)8922"
      },
      {
        "astId": 23431,
        "contract": "contracts/strategies/StrategyIdle.sol:StrategyIdle",
        "label": "idleToken",
        "offset": 0,
        "slot": "253",
        "type": "t_contract(IIdleToken)18417"
      },
      {
        "astId": 23434,
        "contract": "contracts/strategies/StrategyIdle.sol:StrategyIdle",
        "label": "wmaticToken",
        "offset": 0,
        "slot": "254",
        "type": "t_contract(IERC20)8922"
      },
      {
        "astId": 23437,
        "contract": "contracts/strategies/StrategyIdle.sol:StrategyIdle",
        "label": "quickswapExchange",
        "offset": 0,
        "slot": "255",
        "type": "t_contract(QuickswapExchange)16100"
      },
      {
        "astId": 23439,
        "contract": "contracts/strategies/StrategyIdle.sol:StrategyIdle",
        "label": "usdcTokenDenominator",
        "offset": 0,
        "slot": "256",
        "type": "t_uint256"
      },
      {
        "astId": 23441,
        "contract": "contracts/strategies/StrategyIdle.sol:StrategyIdle",
        "label": "idleTokenDenominator",
        "offset": 0,
        "slot": "257",
        "type": "t_uint256"
      },
      {
        "astId": 23443,
        "contract": "contracts/strategies/StrategyIdle.sol:StrategyIdle",
        "label": "wmaticTokenDenominator",
        "offset": 0,
        "slot": "258",
        "type": "t_uint256"
      }
    ],
    "types": {
      "t_address": {
        "encoding": "inplace",
        "label": "address",
        "numberOfBytes": "20"
      },
      "t_array(t_uint256)49_storage": {
        "base": "t_uint256",
        "encoding": "inplace",
        "label": "uint256[49]",
        "numberOfBytes": "1568"
      },
      "t_array(t_uint256)50_storage": {
        "base": "t_uint256",
        "encoding": "inplace",
        "label": "uint256[50]",
        "numberOfBytes": "1600"
      },
      "t_bool": {
        "encoding": "inplace",
        "label": "bool",
        "numberOfBytes": "1"
      },
      "t_bytes32": {
        "encoding": "inplace",
        "label": "bytes32",
        "numberOfBytes": "32"
      },
      "t_contract(IERC20)8922": {
        "encoding": "inplace",
        "label": "contract IERC20",
        "numberOfBytes": "20"
      },
      "t_contract(IIdleToken)18417": {
        "encoding": "inplace",
        "label": "contract IIdleToken",
        "numberOfBytes": "20"
      },
      "t_contract(QuickswapExchange)16100": {
        "encoding": "inplace",
        "label": "contract QuickswapExchange",
        "numberOfBytes": "20"
      },
      "t_mapping(t_address,t_bool)": {
        "encoding": "mapping",
        "key": "t_address",
        "label": "mapping(address => bool)",
        "numberOfBytes": "32",
        "value": "t_bool"
      },
      "t_mapping(t_bytes32,t_struct(RoleData)43_storage)": {
        "encoding": "mapping",
        "key": "t_bytes32",
        "label": "mapping(bytes32 => struct AccessControlUpgradeable.RoleData)",
        "numberOfBytes": "32",
        "value": "t_struct(RoleData)43_storage"
      },
      "t_struct(RoleData)43_storage": {
        "encoding": "inplace",
        "label": "struct AccessControlUpgradeable.RoleData",
        "members": [
          {
            "astId": 40,
            "contract": "contracts/strategies/StrategyIdle.sol:StrategyIdle",
            "label": "members",
            "offset": 0,
            "slot": "0",
            "type": "t_mapping(t_address,t_bool)"
          },
          {
            "astId": 42,
            "contract": "contracts/strategies/StrategyIdle.sol:StrategyIdle",
            "label": "adminRole",
            "offset": 0,
            "slot": "1",
            "type": "t_bytes32"
          }
        ],
        "numberOfBytes": "64"
      },
      "t_uint256": {
        "encoding": "inplace",
        "label": "uint256",
        "numberOfBytes": "32"
      }
    }
  }
}