{
  "address": "0xfA8Bb3CED390eDB598000A118491d990304df550",
  "abi": [
    {
      "inputs": [],
      "stateMutability": "nonpayable",
      "type": "constructor"
    },
    {
      "anonymous": false,
      "inputs": [
        {
          "indexed": false,
          "internalType": "address",
          "name": "previousAdmin",
          "type": "address"
        },
        {
          "indexed": false,
          "internalType": "address",
          "name": "newAdmin",
          "type": "address"
        }
      ],
      "name": "AdminChanged",
      "type": "event"
    },
    {
      "anonymous": false,
      "inputs": [
        {
          "indexed": true,
          "internalType": "address",
          "name": "beacon",
          "type": "address"
        }
      ],
      "name": "BeaconUpgraded",
      "type": "event"
    },
    {
      "anonymous": false,
      "inputs": [
        {
          "indexed": false,
          "internalType": "address",
          "name": "value",
          "type": "address"
        }
      ],
      "name": "PortfolioManagerUpdated",
      "type": "event"
    },
    {
      "anonymous": false,
      "inputs": [
        {
          "indexed": false,
          "internalType": "uint256",
          "name": "amount",
          "type": "uint256"
        }
      ],
      "name": "Reward",
      "type": "event"
    },
    {
      "anonymous": false,
      "inputs": [
        {
          "indexed": true,
          "internalType": "bytes32",
          "name": "role",
          "type": "bytes32"
        },
        {
          "indexed": true,
          "internalType": "bytes32",
          "name": "previousAdminRole",
          "type": "bytes32"
        },
        {
          "indexed": true,
          "internalType": "bytes32",
          "name": "newAdminRole",
          "type": "bytes32"
        }
      ],
      "name": "RoleAdminChanged",
      "type": "event"
    },
    {
      "anonymous": false,
      "inputs": [
        {
          "indexed": true,
          "internalType": "bytes32",
          "name": "role",
          "type": "bytes32"
        },
        {
          "indexed": true,
          "internalType": "address",
          "name": "account",
          "type": "address"
        },
        {
          "indexed": true,
          "internalType": "address",
          "name": "sender",
          "type": "address"
        }
      ],
      "name": "RoleGranted",
      "type": "event"
    },
    {
      "anonymous": false,
      "inputs": [
        {
          "indexed": true,
          "internalType": "bytes32",
          "name": "role",
          "type": "bytes32"
        },
        {
          "indexed": true,
          "internalType": "address",
          "name": "account",
          "type": "address"
        },
        {
          "indexed": true,
          "internalType": "address",
          "name": "sender",
          "type": "address"
        }
      ],
      "name": "RoleRevoked",
      "type": "event"
    },
    {
      "anonymous": false,
      "inputs": [
        {
          "indexed": false,
          "internalType": "address",
          "name": "balancerVault",
          "type": "address"
        },
        {
          "indexed": false,
          "internalType": "address",
          "name": "uniswapRouter",
          "type": "address"
        },
        {
          "indexed": false,
          "internalType": "bytes32",
          "name": "balancerPoolId1",
          "type": "bytes32"
        },
        {
          "indexed": false,
          "internalType": "bytes32",
          "name": "balancerPoolId2",
          "type": "bytes32"
        }
      ],
      "name": "StrategyBalancerUpdatedParams",
      "type": "event"
    },
    {
      "anonymous": false,
      "inputs": [
        {
          "indexed": false,
          "internalType": "address",
          "name": "usdcToken",
          "type": "address"
        },
        {
          "indexed": false,
          "internalType": "address",
          "name": "bpspTUsdToken",
          "type": "address"
        },
        {
          "indexed": false,
          "internalType": "address",
          "name": "balToken",
          "type": "address"
        },
        {
          "indexed": false,
          "internalType": "address",
          "name": "wmaticToken",
          "type": "address"
        },
        {
          "indexed": false,
          "internalType": "address",
          "name": "tusdToken",
          "type": "address"
        },
        {
          "indexed": false,
          "internalType": "uint256",
          "name": "usdcTokenDenominator",
          "type": "uint256"
        },
        {
          "indexed": false,
          "internalType": "uint256",
          "name": "bpspTUsdTokenDenominator",
          "type": "uint256"
        },
        {
          "indexed": false,
          "internalType": "uint256",
          "name": "balTokenDenominator",
          "type": "uint256"
        },
        {
          "indexed": false,
          "internalType": "uint256",
          "name": "wmaticTokenDenominator",
          "type": "uint256"
        },
        {
          "indexed": false,
          "internalType": "uint256",
          "name": "tusdTokenDenominator",
          "type": "uint256"
        }
      ],
      "name": "StrategyBalancerUpdatedTokens",
      "type": "event"
    },
    {
      "anonymous": false,
      "inputs": [
        {
          "indexed": true,
          "internalType": "address",
          "name": "implementation",
          "type": "address"
        }
      ],
      "name": "Upgraded",
      "type": "event"
    },
    {
      "inputs": [],
      "name": "DEFAULT_ADMIN_ROLE",
      "outputs": [
        {
          "internalType": "bytes32",
          "name": "",
          "type": "bytes32"
        }
      ],
      "stateMutability": "view",
      "type": "function"
    },
    {
      "inputs": [],
      "name": "MAX_VALUE",
      "outputs": [
        {
          "internalType": "int256",
          "name": "",
          "type": "int256"
        }
      ],
      "stateMutability": "view",
      "type": "function"
    },
    {
      "inputs": [],
      "name": "PORTFOLIO_MANAGER",
      "outputs": [
        {
          "internalType": "bytes32",
          "name": "",
          "type": "bytes32"
        }
      ],
      "stateMutability": "view",
      "type": "function"
    },
    {
      "inputs": [],
      "name": "UPGRADER_ROLE",
      "outputs": [
        {
          "internalType": "bytes32",
          "name": "",
          "type": "bytes32"
        }
      ],
      "stateMutability": "view",
      "type": "function"
    },
    {
      "inputs": [],
      "name": "balToken",
      "outputs": [
        {
          "internalType": "contract IERC20",
          "name": "",
          "type": "address"
        }
      ],
      "stateMutability": "view",
      "type": "function"
    },
    {
      "inputs": [],
      "name": "balTokenDenominator",
      "outputs": [
        {
          "internalType": "uint256",
          "name": "",
          "type": "uint256"
        }
      ],
      "stateMutability": "view",
      "type": "function"
    },
    {
      "inputs": [],
      "name": "balancerPoolId1",
      "outputs": [
        {
          "internalType": "bytes32",
          "name": "",
          "type": "bytes32"
        }
      ],
      "stateMutability": "view",
      "type": "function"
    },
    {
      "inputs": [],
      "name": "balancerPoolId2",
      "outputs": [
        {
          "internalType": "bytes32",
          "name": "",
          "type": "bytes32"
        }
      ],
      "stateMutability": "view",
      "type": "function"
    },
    {
      "inputs": [],
      "name": "balancerVault",
      "outputs": [
        {
          "internalType": "contract IVault",
          "name": "",
          "type": "address"
        }
      ],
      "stateMutability": "view",
      "type": "function"
    },
    {
      "inputs": [],
      "name": "bpspTUsdToken",
      "outputs": [
        {
          "internalType": "contract IERC20",
          "name": "",
          "type": "address"
        }
      ],
      "stateMutability": "view",
      "type": "function"
    },
    {
      "inputs": [],
      "name": "bpspTUsdTokenDenominator",
      "outputs": [
        {
          "internalType": "uint256",
          "name": "",
          "type": "uint256"
        }
      ],
      "stateMutability": "view",
      "type": "function"
    },
    {
      "inputs": [
        {
          "internalType": "address",
          "name": "_to",
          "type": "address"
        }
      ],
      "name": "claimRewards",
      "outputs": [
        {
          "internalType": "uint256",
          "name": "",
          "type": "uint256"
        }
      ],
      "stateMutability": "nonpayable",
      "type": "function"
    },
    {
      "inputs": [
        {
          "internalType": "bytes32",
          "name": "role",
          "type": "bytes32"
        }
      ],
      "name": "getRoleAdmin",
      "outputs": [
        {
          "internalType": "bytes32",
          "name": "",
          "type": "bytes32"
        }
      ],
      "stateMutability": "view",
      "type": "function"
    },
    {
      "inputs": [
        {
          "internalType": "bytes32",
          "name": "role",
          "type": "bytes32"
        },
        {
          "internalType": "address",
          "name": "account",
          "type": "address"
        }
      ],
      "name": "grantRole",
      "outputs": [],
      "stateMutability": "nonpayable",
      "type": "function"
    },
    {
      "inputs": [
        {
          "internalType": "bytes32",
          "name": "role",
          "type": "bytes32"
        },
        {
          "internalType": "address",
          "name": "account",
          "type": "address"
        }
      ],
      "name": "hasRole",
      "outputs": [
        {
          "internalType": "bool",
          "name": "",
          "type": "bool"
        }
      ],
      "stateMutability": "view",
      "type": "function"
    },
    {
      "inputs": [],
      "name": "initialize",
      "outputs": [],
      "stateMutability": "nonpayable",
      "type": "function"
    },
    {
      "inputs": [],
      "name": "liquidationValue",
      "outputs": [
        {
          "internalType": "uint256",
          "name": "",
          "type": "uint256"
        }
      ],
      "stateMutability": "view",
      "type": "function"
    },
    {
      "inputs": [],
      "name": "netAssetValue",
      "outputs": [
        {
          "internalType": "uint256",
          "name": "",
          "type": "uint256"
        }
      ],
      "stateMutability": "view",
      "type": "function"
    },
    {
      "inputs": [],
      "name": "portfolioManager",
      "outputs": [
        {
          "internalType": "address",
          "name": "",
          "type": "address"
        }
      ],
      "stateMutability": "view",
      "type": "function"
    },
    {
      "inputs": [
        {
          "internalType": "bytes32",
          "name": "role",
          "type": "bytes32"
        },
        {
          "internalType": "address",
          "name": "account",
          "type": "address"
        }
      ],
      "name": "renounceRole",
      "outputs": [],
      "stateMutability": "nonpayable",
      "type": "function"
    },
    {
      "inputs": [
        {
          "internalType": "bytes32",
          "name": "role",
          "type": "bytes32"
        },
        {
          "internalType": "address",
          "name": "account",
          "type": "address"
        }
      ],
      "name": "revokeRole",
      "outputs": [],
      "stateMutability": "nonpayable",
      "type": "function"
    },
    {
      "inputs": [
        {
          "internalType": "address",
          "name": "_balancerVault",
          "type": "address"
        },
        {
          "internalType": "address",
          "name": "_uniswapRouter",
          "type": "address"
        },
        {
          "internalType": "bytes32",
          "name": "_balancerPoolId1",
          "type": "bytes32"
        },
        {
          "internalType": "bytes32",
          "name": "_balancerPoolId2",
          "type": "bytes32"
        }
      ],
      "name": "setParams",
      "outputs": [],
      "stateMutability": "nonpayable",
      "type": "function"
    },
    {
      "inputs": [
        {
          "internalType": "address",
          "name": "_value",
          "type": "address"
        }
      ],
      "name": "setPortfolioManager",
      "outputs": [],
      "stateMutability": "nonpayable",
      "type": "function"
    },
    {
      "inputs": [
        {
          "internalType": "address",
          "name": "_usdcToken",
          "type": "address"
        },
        {
          "internalType": "address",
          "name": "_bpspTUsdToken",
          "type": "address"
        },
        {
          "internalType": "address",
          "name": "_balToken",
          "type": "address"
        },
        {
          "internalType": "address",
          "name": "_wmaticToken",
          "type": "address"
        },
        {
          "internalType": "address",
          "name": "_tusdToken",
          "type": "address"
        }
      ],
      "name": "setTokens",
      "outputs": [],
      "stateMutability": "nonpayable",
      "type": "function"
    },
    {
      "inputs": [
        {
          "internalType": "address",
          "name": "_asset",
          "type": "address"
        },
        {
          "internalType": "uint256",
          "name": "_amount",
          "type": "uint256"
        }
      ],
      "name": "stake",
      "outputs": [],
      "stateMutability": "nonpayable",
      "type": "function"
    },
    {
      "inputs": [
        {
          "internalType": "bytes4",
          "name": "interfaceId",
          "type": "bytes4"
        }
      ],
      "name": "supportsInterface",
      "outputs": [
        {
          "internalType": "bool",
          "name": "",
          "type": "bool"
        }
      ],
      "stateMutability": "view",
      "type": "function"
    },
    {
      "inputs": [],
      "name": "tusdToken",
      "outputs": [
        {
          "internalType": "contract IERC20",
          "name": "",
          "type": "address"
        }
      ],
      "stateMutability": "view",
      "type": "function"
    },
    {
      "inputs": [],
      "name": "tusdTokenDenominator",
      "outputs": [
        {
          "internalType": "uint256",
          "name": "",
          "type": "uint256"
        }
      ],
      "stateMutability": "view",
      "type": "function"
    },
    {
      "inputs": [
        {
          "internalType": "address",
          "name": "_asset",
          "type": "address"
        },
        {
          "internalType": "uint256",
          "name": "_amount",
          "type": "uint256"
        },
        {
          "internalType": "address",
          "name": "_beneficiary",
          "type": "address"
        },
        {
          "internalType": "bool",
          "name": "_targetIsZero",
          "type": "bool"
        }
      ],
      "name": "unstake",
      "outputs": [
        {
          "internalType": "uint256",
          "name": "",
          "type": "uint256"
        }
      ],
      "stateMutability": "nonpayable",
      "type": "function"
    },
    {
      "inputs": [
        {
          "internalType": "address",
          "name": "newImplementation",
          "type": "address"
        }
      ],
      "name": "upgradeTo",
      "outputs": [],
      "stateMutability": "nonpayable",
      "type": "function"
    },
    {
      "inputs": [
        {
          "internalType": "address",
          "name": "newImplementation",
          "type": "address"
        },
        {
          "internalType": "bytes",
          "name": "data",
          "type": "bytes"
        }
      ],
      "name": "upgradeToAndCall",
      "outputs": [],
      "stateMutability": "payable",
      "type": "function"
    },
    {
      "inputs": [],
      "name": "usdcToken",
      "outputs": [
        {
          "internalType": "contract IERC20",
          "name": "",
          "type": "address"
        }
      ],
      "stateMutability": "view",
      "type": "function"
    },
    {
      "inputs": [],
      "name": "usdcTokenDenominator",
      "outputs": [
        {
          "internalType": "uint256",
          "name": "",
          "type": "uint256"
        }
      ],
      "stateMutability": "view",
      "type": "function"
    },
    {
      "inputs": [],
      "name": "wmaticToken",
      "outputs": [
        {
          "internalType": "contract IERC20",
          "name": "",
          "type": "address"
        }
      ],
      "stateMutability": "view",
      "type": "function"
    },
    {
      "inputs": [],
      "name": "wmaticTokenDenominator",
      "outputs": [
        {
          "internalType": "uint256",
          "name": "",
          "type": "uint256"
        }
      ],
      "stateMutability": "view",
      "type": "function"
    }
  ],
  "solcInputHash": "a27cd7b5673f19cd14cb47bda955a19c",
  "bytecode": "0x60a06040523060601b6080523480156200001857600080fd5b50600054610100900460ff168062000033575060005460ff16155b6200009b5760405162461bcd60e51b815260206004820152602e60248201527f496e697469616c697a61626c653a20636f6e747261637420697320616c72656160448201526d191e481a5b9a5d1a585b1a5e995960921b606482015260840160405180910390fd5b600054610100900460ff16158015620000be576000805461ffff19166101011790555b8015620000d1576000805461ff00191690555b5060805160601c6145726200010660003960008181610e0301528181610e4301528181610ecc0152610f0c01526145726000f3fe6080604052600436106102045760003560e01c806362b6765211610118578063a69dc7f8116100a0578063d547741f1161006f578063d547741f146105af578063ef5cfb8c146105cf578063f6f6b881146105ef578063f72c0d8b1461060f578063fddf5af81461064357600080fd5b8063a69dc7f814610536578063abf4be0114610557578063adc9772e14610578578063b7c2c1771461059857600080fd5b806391d14854116100e757806391d14854146104ab578063a217fddf146104cb578063a3673b38146104e0578063a440b21a146104f5578063a56b74891461051557600080fd5b806362b67652146104465780637d5f58021461045d5780638129fc1c1461047f5780638a5693cd1461049457600080fd5b80632576e65a1161019b5780633659cfe61161016a5780633659cfe6146103bb57806338d54645146103db5780634f1ef286146103fc5780635f7793441461040f578063620b75df1461042657600080fd5b80632576e65a1461034f5780632bb20a35146103645780632f2ff15d1461037b57806336568abe1461039b57600080fd5b806311eac855116101d757806311eac855146102a5578063158274a5146102de57806320ee1d40146102ff578063248a9ca31461031f57600080fd5b806301ffc9a714610209578063063bde241461023e57806306da3f2e1461026c5780630fc55bfd14610283575b600080fd5b34801561021557600080fd5b50610229610224366004613bcc565b61065a565b60405190151581526020015b60405180910390f35b34801561024a57600080fd5b5061025e6b033b2e3c9fd0803ce800000081565b604051908152602001610235565b34801561027857600080fd5b5061025e6101965481565b34801561028f57600080fd5b506102a361029e366004613843565b610691565b005b3480156102b157600080fd5b50610191546102c6906001600160a01b031681565b6040516001600160a01b039091168152602001610235565b3480156102ea57600080fd5b5061019b546102c6906001600160a01b031681565b34801561030b57600080fd5b506102a361031a3660046138b4565b610afe565b34801561032b57600080fd5b5061025e61033a366004613b8e565b60009081526065602052604090206001015490565b34801561035b57600080fd5b5061025e610cb0565b34801561037057600080fd5b5061025e61019d5481565b34801561038757600080fd5b506102a3610396366004613ba7565b610d4f565b3480156103a757600080fd5b506102a36103b6366004613ba7565b610d7a565b3480156103c757600080fd5b506102a36103d6366004613826565b610df8565b3480156103e757600080fd5b50610193546102c6906001600160a01b031681565b6102a361040a3660046138fa565b610ec1565b34801561041b57600080fd5b5061025e6101985481565b34801561043257600080fd5b5060fb546102c6906001600160a01b031681565b34801561045257600080fd5b5061025e6101995481565b34801561046957600080fd5b5061025e6000805160206144f683398151915281565b34801561048b57600080fd5b506102a3610f77565b3480156104a057600080fd5b5061025e61019a5481565b3480156104b757600080fd5b506102296104c6366004613ba7565b610fea565b3480156104d757600080fd5b5061025e600081565b3480156104ec57600080fd5b5061025e611015565b34801561050157600080fd5b506102a3610510366004613826565b6110ae565b34801561052157600080fd5b50610192546102c6906001600160a01b031681565b34801561054257600080fd5b50610195546102c6906001600160a01b031681565b34801561056357600080fd5b50610194546102c6906001600160a01b031681565b34801561058457600080fd5b506102a36105933660046139e0565b61118c565b3480156105a457600080fd5b5061025e6101975481565b3480156105bb57600080fd5b506102a36105ca366004613ba7565b6111ca565b3480156105db57600080fd5b5061025e6105ea366004613826565b6111f0565b3480156105fb57600080fd5b5061025e61060a366004613a0c565b611272565b34801561061b57600080fd5b5061025e7f189ab7a9244df0848122154315af71fe140f3db0fe014031783b0946b8c9d2e381565b34801561064f57600080fd5b5061025e61019c5481565b60006001600160e01b03198216637965db0b60e01b148061068b57506301ffc9a760e01b6001600160e01b03198316145b92915050565b61069c600033610fea565b6106c15760405162461bcd60e51b81526004016106b890614029565b60405180910390fd5b6001600160a01b0385166106e75760405162461bcd60e51b81526004016106b89061408e565b6001600160a01b03841661070d5760405162461bcd60e51b81526004016106b89061408e565b6001600160a01b0383166107335760405162461bcd60e51b81526004016106b89061408e565b6001600160a01b0382166107595760405162461bcd60e51b81526004016106b89061408e565b6001600160a01b03811661077f5760405162461bcd60e51b81526004016106b89061408e565b61019180546001600160a01b038088166001600160a01b031992831681179093556101928054888316908416179055610193805487831690841617905561019480548683169084161790556101958054918516919092161790556040805163313ce56760e01b8152905163313ce56791600480820192602092909190829003018186803b15801561080f57600080fd5b505afa158015610823573d6000803e3d6000fd5b505050506040513d601f19601f820116820180604052508101906108479190613c0f565b61085290600a61432e565b61019681905550836001600160a01b031663313ce5676040518163ffffffff1660e01b815260040160206040518083038186803b15801561089257600080fd5b505afa1580156108a6573d6000803e3d6000fd5b505050506040513d601f19601f820116820180604052508101906108ca9190613c0f565b6108d590600a61432e565b61019781905550826001600160a01b031663313ce5676040518163ffffffff1660e01b815260040160206040518083038186803b15801561091557600080fd5b505afa158015610929573d6000803e3d6000fd5b505050506040513d601f19601f8201168201806040525081019061094d9190613c0f565b61095890600a61432e565b61019881905550816001600160a01b031663313ce5676040518163ffffffff1660e01b815260040160206040518083038186803b15801561099857600080fd5b505afa1580156109ac573d6000803e3d6000fd5b505050506040513d601f19601f820116820180604052508101906109d09190613c0f565b6109db90600a61432e565b61019981905550806001600160a01b031663313ce5676040518163ffffffff1660e01b815260040160206040518083038186803b158015610a1b57600080fd5b505afa158015610a2f573d6000803e3d6000fd5b505050506040513d601f19601f82011682018060405250810190610a539190613c0f565b610a5e90600a61432e565b61019a81905561019654610197546101985461019954604080516001600160a01b038c811682528b811660208301528a81168284015289811660608301528816608082015260a081019590955260c085019390935260e084019190915261010083015261012082019290925290517fc6bd2e093caafbb58566a0f8883461883dde4ef7923eff7d1e3793910ab22dda918190036101400190a15050505050565b610b09600033610fea565b610b255760405162461bcd60e51b81526004016106b890614029565b6001600160a01b038416610b4b5760405162461bcd60e51b81526004016106b89061408e565b6001600160a01b038316610b715760405162461bcd60e51b81526004016106b89061408e565b81610bba5760405162461bcd60e51b8152602060048201526019602482015278115b5c1d1e481c1bdbdb081a59081b9bdd08185b1b1bddd959603a1b60448201526064016106b8565b80610c035760405162461bcd60e51b8152602060048201526019602482015278115b5c1d1e481c1bdbdb081a59081b9bdd08185b1b1bddd959603a1b60448201526064016106b8565b61019b80546001600160a01b0386166001600160a01b0319918216811790925561012d8054909116909117905561015f80546001600160a01b0319166001600160a01b03851617905561019c82905561019d819055604080516001600160a01b03808716825285166020820152908101839052606081018290527ff5f639b4e2a027f403b6a061091e5ed2fc94c48a708df1878cc8e38636c2bf3d9060800160405180910390a150505050565b610192546040516370a0823160e01b815230600482015260009182916001600160a01b03909116906370a082319060240160206040518083038186803b158015610cf957600080fd5b505afa158015610d0d573d6000803e3d6000fd5b505050506040513d601f19601f82011682018060405250810190610d319190613bf6565b905080610d4057600091505090565b610d49816113bc565b91505090565b600082815260656020526040902060010154610d6b81336115cb565b610d75838361162f565b505050565b6001600160a01b0381163314610dea5760405162461bcd60e51b815260206004820152602f60248201527f416363657373436f6e74726f6c3a2063616e206f6e6c792072656e6f756e636560448201526e103937b632b9903337b91039b2b63360891b60648201526084016106b8565b610df482826116b5565b5050565b306001600160a01b037f0000000000000000000000000000000000000000000000000000000000000000161415610e415760405162461bcd60e51b81526004016106b890613f43565b7f00000000000000000000000000000000000000000000000000000000000000006001600160a01b0316610e7361171c565b6001600160a01b031614610e995760405162461bcd60e51b81526004016106b890613f8f565b610ea28161174a565b60408051600080825260208201909252610ebe91839190611775565b50565b306001600160a01b037f0000000000000000000000000000000000000000000000000000000000000000161415610f0a5760405162461bcd60e51b81526004016106b890613f43565b7f00000000000000000000000000000000000000000000000000000000000000006001600160a01b0316610f3c61171c565b6001600160a01b031614610f625760405162461bcd60e51b81526004016106b890613f8f565b610f6b8261174a565b610df482826001611775565b600054610100900460ff1680610f90575060005460ff16155b610fac5760405162461bcd60e51b81526004016106b890613fdb565b600054610100900460ff16158015610fce576000805461ffff19166101011790555b610fd66118c0565b8015610ebe576000805461ff001916905550565b60009182526065602090815260408084206001600160a01b0393909316845291905290205460ff1690565b610192546040516370a0823160e01b815230600482015260009182916001600160a01b03909116906370a082319060240160206040518083038186803b15801561105e57600080fd5b505afa158015611072573d6000803e3d6000fd5b505050506040513d601f19601f820116820180604052508101906110969190613bf6565b9050806110a557600091505090565b610d498161195c565b6110b9600033610fea565b6110d55760405162461bcd60e51b81526004016106b890614029565b6001600160a01b0381166110fb5760405162461bcd60e51b81526004016106b89061408e565b60fb54611120906000805160206144f6833981519152906001600160a01b03166111ca565b6111386000805160206144f683398151915282610d4f565b60fb80546001600160a01b0319166001600160a01b0383169081179091556040519081527ff7b449fcd5cfb7379dcd34cb69428dd9f882033b15be33d83b42d91daa28eeb79060200160405180910390a150565b6111a46000805160206144f683398151915233610fea565b6111c05760405162461bcd60e51b81526004016106b890613f0c565b610df48282611b66565b6000828152606560205260409020600101546111e681336115cb565b610d7583836116b5565b600061120a6000805160206144f683398151915233610fea565b6112265760405162461bcd60e51b81526004016106b890613f0c565b600061123183611ef7565b90507f3ac0594a85a20354f9dc74f33728416d19ce00d04a406c108cc2dcf2cecea1348160405161126491815260200190565b60405180910390a192915050565b600061128c6000805160206144f683398151915233610fea565b6112a85760405162461bcd60e51b81526004016106b890613f0c565b600082156112c1576112ba8685612146565b9050611330565b6112cc868686612519565b9050848110156113305760405162461bcd60e51b815260206004820152602960248201527f52657475726e65642076616c7565206c657373207468616e2072657175657374604482015268195908185b5bdd5b9d60ba1b60648201526084016106b8565b60405163a9059cbb60e01b81526001600160a01b0385811660048301526024820183905287169063a9059cbb90604401602060405180830381600087803b15801561137a57600080fd5b505af115801561138e573d6000803e3d6000fd5b505050506040513d601f19601f820116820180604052508101906113b29190613b71565b5095945050505050565b60008061019260009054906101000a90046001600160a01b03166001600160a01b03166318160ddd6040518163ffffffff1660e01b815260040160206040518083038186803b15801561140e57600080fd5b505afa158015611422573d6000803e3d6000fd5b505050506040513d601f19601f820116820180604052508101906114469190613bf6565b61019b5461019c54604051631f29a8cd60e31b815260048101919091529192506000918291829182916001600160a01b03169063f94d46689060240160006040518083038186803b15801561149a57600080fd5b505afa1580156114ae573d6000803e3d6000fd5b505050506040513d6000823e601f3d908101601f191682016040526114d69190810190613a5f565b92509250925060005b83518110156115bf57600086898584815181106114fe576114fe6144a6565b602002602001015161151091906143d9565b61151a91906142c9565b6101915486519192506001600160a01b03169086908490811061153f5761153f6144a6565b60200260200101516001600160a01b03161461159f5761158e61019c546000878581518110611570576115706144a6565b6020908102919091010151610191546001600160a01b031685612884565b61159890876142b1565b95506115ac565b6115a981876142b1565b95505b50806115b78161443f565b9150506114df565b50929695505050505050565b6115d58282610fea565b610df4576115ed816001600160a01b03166014612ca1565b6115f8836020612ca1565b604051602001611609929190613e52565b60408051601f198184030181529082905262461bcd60e51b82526106b891600401613ef9565b6116398282610fea565b610df45760008281526065602090815260408083206001600160a01b03851684529091529020805460ff191660011790556116713390565b6001600160a01b0316816001600160a01b0316837f2f8788117e7eff1d82e926ec794901d17c78024a50270940304540a733656f0d60405160405180910390a45050565b6116bf8282610fea565b15610df45760008281526065602090815260408083206001600160a01b0385168085529252808320805460ff1916905551339285917ff6391f5c32d9c69d2a47ea670b442974b53935d1edc7fd64eb21e047a839171b9190a45050565b7f360894a13ba1a3210667c828492db98dca3e2076cc3735a920a3ca505d382bbc546001600160a01b031690565b7f189ab7a9244df0848122154315af71fe140f3db0fe014031783b0946b8c9d2e3610df481336115cb565b600061177f61171c565b905061178a84612e3d565b6000835111806117975750815b156117a8576117a68484612ee2565b505b7f4910fdfa16fed3260ed0e7147f7cc6da11a60208b5b9406d12a635614ffd9143805460ff166118b957805460ff191660011781556040516001600160a01b038316602482015261182790869060440160408051601f198184030181529190526020810180516001600160e01b0316631b2ce7f360e11b179052612ee2565b50805460ff1916815561183861171c565b6001600160a01b0316826001600160a01b0316146118b05760405162461bcd60e51b815260206004820152602f60248201527f45524331393637557067726164653a207570677261646520627265616b73206660448201526e75727468657220757067726164657360881b60648201526084016106b8565b6118b985612fc4565b5050505050565b600054610100900460ff16806118d9575060005460ff16155b6118f55760405162461bcd60e51b81526004016106b890613fdb565b600054610100900460ff16158015611917576000805461ffff19166101011790555b61191f613004565b611927613073565b61193260003361162f565b610fd67f189ab7a9244df0848122154315af71fe140f3db0fe014031783b0946b8c9d2e33361162f565b60008061019260009054906101000a90046001600160a01b03166001600160a01b03166318160ddd6040518163ffffffff1660e01b815260040160206040518083038186803b1580156119ae57600080fd5b505afa1580156119c2573d6000803e3d6000fd5b505050506040513d601f19601f820116820180604052508101906119e69190613bf6565b61019b5461019c54604051631f29a8cd60e31b815260048101919091529192506000918291829182916001600160a01b03169063f94d46689060240160006040518083038186803b158015611a3a57600080fd5b505afa158015611a4e573d6000803e3d6000fd5b505050506040513d6000823e601f3d908101601f19168201604052611a769190810190613a5f565b92509250925060005b83518110156115bf5760008689858481518110611a9e57611a9e6144a6565b6020026020010151611ab091906143d9565b611aba91906142c9565b6101915486519192506001600160a01b031690869084908110611adf57611adf6144a6565b60200260200101516001600160a01b031614611b4657611b3561019c54600161019160009054906101000a90046001600160a01b0316888681518110611b2757611b276144a6565b602002602001015185612884565b611b3f90876142b1565b9550611b53565b611b5081876142b1565b95505b5080611b5e8161443f565b915050611a7f565b610191546001600160a01b03838116911614611b945760405162461bcd60e51b81526004016106b890614057565b6101915461019b5460405163095ea7b360e01b81526001600160a01b0391821660048201526024810184905291169063095ea7b390604401602060405180830381600087803b158015611be657600080fd5b505af1158015611bfa573d6000803e3d6000fd5b505050506040513d601f19601f82011682018060405250810190611c1e9190613b71565b5061019b5461019c54604051631f29a8cd60e31b81526004810191909152600091829182916001600160a01b03169063f94d46689060240160006040518083038186803b158015611c6e57600080fd5b505afa158015611c82573d6000803e3d6000fd5b505050506040513d6000823e601f3d908101601f19168201604052611caa9190810190613a5f565b60408051600480825260a0820190925293965091945092506000919060208201608080368337505060408051600480825260a08201909252929350600092915060208201608080368337505060408051600480825260a0820190925292935060009291506020820160808036833701905050905060005b8651811015611e3457868181518110611d3c57611d3c6144a6565b6020026020010151848281518110611d5657611d566144a6565b6001600160a01b039283166020918202929092010152610191548851911690889083908110611d8757611d876144a6565b60200260200101516001600160a01b03161415611de15787838281518110611db157611db16144a6565b60200260200101818152505087828281518110611dd057611dd06144a6565b602002602001018181525050611e22565b6000838281518110611df557611df56144a6565b6020026020010181815250506000828281518110611e1557611e156144a6565b6020026020010181815250505b80611e2c8161443f565b915050611d21565b50600060019050600080828483604051602001611e53939291906141f7565b60408051601f19818403018152608083018252888352602083018890528282018190526000606084015261019b5461019c54925163172b958560e31b81529194506001600160a01b03169163b95cac2891611eb79190309081908790600401613ec7565b600060405180830381600087803b158015611ed157600080fd5b505af1158015611ee5573d6000803e3d6000fd5b50505050505050505050505050505050565b610193546040516370a0823160e01b8152306004820152600091829182916001600160a01b0316906370a082319060240160206040518083038186803b158015611f4057600080fd5b505afa158015611f54573d6000803e3d6000fd5b505050506040513d601f19601f82011682018060405250810190611f789190613bf6565b90508015611fbc5761019d546101935461019154600092611fac92909184916001600160a01b039081169116308a886130d1565b9050611fb881846142b1565b9250505b610194546040516370a0823160e01b81523060048201526000916001600160a01b0316906370a082319060240160206040518083038186803b15801561200157600080fd5b505afa158015612015573d6000803e3d6000fd5b505050506040513d601f19601f820116820180604052508101906120399190613bf6565b9050801561207b5761019454610191546101995460009261206b926001600160a01b0391821692911690308a876132ca565b905061207781856142b1565b9350505b610195546040516370a0823160e01b81523060048201526000916001600160a01b0316906370a082319060240160206040518083038186803b1580156120c057600080fd5b505afa1580156120d4573d6000803e3d6000fd5b505050506040513d601f19601f820116820180604052508101906120f89190613bf6565b9050801561213c5761019c54610195546101915460009261212c92909184916001600160a01b039081169116308c886130d1565b905061213881866142b1565b9450505b5091949350505050565b610191546000906001600160a01b038481169116146121775760405162461bcd60e51b81526004016106b890614057565b610192546040516370a0823160e01b81523060048201526000916001600160a01b0316906370a082319060240160206040518083038186803b1580156121bc57600080fd5b505afa1580156121d0573d6000803e3d6000fd5b505050506040513d601f19601f820116820180604052508101906121f49190613bf6565b90506000612201826113bc565b61019b5461019c54604051631f29a8cd60e31b8152929350600092839283926001600160a01b039091169163f94d4668916122429160040190815260200190565b60006040518083038186803b15801561225a57600080fd5b505afa15801561226e573d6000803e3d6000fd5b505050506040513d6000823e601f3d908101601f191682016040526122969190810190613a5f565b60408051600480825260a0820190925293965091945092506000919060208201608080368337505060408051600480825260a0820190925292935060009291506020820160808036833701905050905060005b85518110156123d357858181518110612304576123046144a6565b602002602001015183828151811061231e5761231e6144a6565b6001600160a01b03928316602091820292909201015261019154875191169087908390811061234f5761234f6144a6565b60200260200101516001600160a01b031614156123a05760646123738860636143d9565b61237d91906142c9565b82828151811061238f5761238f6144a6565b6020026020010181815250506123c1565b60008282815181106123b4576123b46144a6565b6020026020010181815250505b806123cb8161443f565b9150506122e9565b5060408051600060208201819052918101899052606081018290528190819060800160408051601f19818403018152608083018252878352602083018790528282018190526000606084015261019b5461019c549251638bdb391360e01b81529194506001600160a01b031691638bdb3913916124599190309081908790600401613ec7565b600060405180830381600087803b15801561247357600080fd5b505af1158015612487573d6000803e3d6000fd5b5050610191546040516370a0823160e01b81523060048201526001600160a01b0390911692506370a08231915060240160206040518083038186803b1580156124cf57600080fd5b505afa1580156124e3573d6000803e3d6000fd5b505050506040513d601f19601f820116820180604052508101906125079190613bf6565b9e9d5050505050505050505050505050565b610191546000906001600160a01b0385811691161461254a5760405162461bcd60e51b81526004016106b890614057565b61019b5461019c54604051631f29a8cd60e31b81526004810191909152600091829182916001600160a01b03169063f94d46689060240160006040518083038186803b15801561259957600080fd5b505afa1580156125ad573d6000803e3d6000fd5b505050506040513d6000823e601f3d908101601f191682016040526125d59190810190613a5f565b60408051600480825260a0820190925293965091945092506000919060208201608080368337505060408051600480825260a0820190925292935060009291506020820160808036833701905050905060005b855181101561271257858181518110612643576126436144a6565b602002602001015183828151811061265d5761265d6144a6565b6001600160a01b03928316602091820292909201015261019154875191169087908390811061268e5761268e6144a6565b60200260200101516001600160a01b031614156126df5760646126b28a60636143d9565b6126bc91906142c9565b8282815181106126ce576126ce6144a6565b602002602001018181525050612700565b60008282815181106126f3576126f36144a6565b6020026020010181815250505b8061270a8161443f565b915050612628565b506000806000612724610197546113bc565b8b6101975461273391906143d9565b61273d91906142c9565b60408051602081018690529081018290526060810184905290915060009060800160408051601f19818403018152608083018252888352602083018890528282018190526000606084015261019b5461019c549251638bdb391360e01b81529194506001600160a01b031691638bdb3913916127c29190309081908790600401613ec7565b600060405180830381600087803b1580156127dc57600080fd5b505af11580156127f0573d6000803e3d6000fd5b5050610191546040516370a0823160e01b81523060048201526001600160a01b0390911692506370a08231915060240160206040518083038186803b15801561283857600080fd5b505afa15801561284c573d6000803e3d6000fd5b505050506040513d601f19601f820116820180604052508101906128709190613bf6565b9a50505050505050505050505b9392505050565b604080516101208101825260008082526020820181905291810182905260608082018390526080820183905260a0820183905260c0820183905260e08201839052610100820152808660018111156128de576128de614490565b908160018111156128f1576128f1614490565b9052506001600160a01b0385811660208301528481166040808401919091526060830185905261012d549051631f29a8cd60e31b8152600481018a90526000928392839291169063f94d46689060240160006040518083038186803b15801561295957600080fd5b505afa15801561296d573d6000803e3d6000fd5b505050506040513d6000823e601f3d908101601f191682016040526129959190810190613a5f565b61012d5460405163f6c0092760e01b8152600481018f9052939650919450925060009182916001600160a01b03169063f6c0092790602401604080518083038186803b1580156129e457600080fd5b505afa1580156129f8573d6000803e3d6000fd5b505050506040513d601f19601f82011682018060405250810190612a1c91906139a2565b90925090506000816002811115612a3557612a35614490565b1415612b6e5760008060005b87518160ff161015612add578c6001600160a01b0316888260ff1681518110612a6c57612a6c6144a6565b60200260200101516001600160a01b03161415612a8e578060ff169250612acb565b8b6001600160a01b0316888260ff1681518110612aad57612aad6144a6565b60200260200101516001600160a01b03161415612acb578060ff1691505b80612ad58161445a565b915050612a41565b5060405162f64aa560e11b81526001600160a01b038516906301ec954a90612b0f908b908a9087908790600401614180565b60206040518083038186803b158015612b2757600080fd5b505afa158015612b3b573d6000803e3d6000fd5b505050506040513d601f19601f82011682018060405250810190612b5f9190613bf6565b98505050505050505050612c98565b6001816002811115612b8257612b82614490565b1415612c8d5760008060005b87518160ff161015612c5c578c6001600160a01b0316888260ff1681518110612bb957612bb96144a6565b60200260200101516001600160a01b03161415612bf457868160ff1681518110612be557612be56144a6565b60200260200101519250612c4a565b8b6001600160a01b0316888260ff1681518110612c1357612c136144a6565b60200260200101516001600160a01b03161415612c4a57868160ff1681518110612c3f57612c3f6144a6565b602002602001015191505b80612c548161445a565b915050612b8e565b5060405163274b044360e21b81526001600160a01b03851690639d2c110c90612b0f908b90869086906004016141b9565b600096505050505050505b95945050505050565b60606000612cb08360026143d9565b612cbb9060026142b1565b67ffffffffffffffff811115612cd357612cd36144bc565b6040519080825280601f01601f191660200182016040528015612cfd576020820181803683370190505b509050600360fc1b81600081518110612d1857612d186144a6565b60200101906001600160f81b031916908160001a905350600f60fb1b81600181518110612d4757612d476144a6565b60200101906001600160f81b031916908160001a9053506000612d6b8460026143d9565b612d769060016142b1565b90505b6001811115612dee576f181899199a1a9b1b9c1cb0b131b232b360811b85600f1660108110612daa57612daa6144a6565b1a60f81b828281518110612dc057612dc06144a6565b60200101906001600160f81b031916908160001a90535060049490941c93612de781614428565b9050612d79565b50831561287d5760405162461bcd60e51b815260206004820181905260248201527f537472696e67733a20686578206c656e67746820696e73756666696369656e7460448201526064016106b8565b803b612ea15760405162461bcd60e51b815260206004820152602d60248201527f455243313936373a206e657720696d706c656d656e746174696f6e206973206e60448201526c1bdd08184818dbdb9d1c9858dd609a1b60648201526084016106b8565b7f360894a13ba1a3210667c828492db98dca3e2076cc3735a920a3ca505d382bbc80546001600160a01b0319166001600160a01b0392909216919091179055565b6060823b612f415760405162461bcd60e51b815260206004820152602660248201527f416464726573733a2064656c65676174652063616c6c20746f206e6f6e2d636f6044820152651b9d1c9858dd60d21b60648201526084016106b8565b600080846001600160a01b031684604051612f5c9190613e36565b600060405180830381855af49150503d8060008114612f97576040519150601f19603f3d011682016040523d82523d6000602084013e612f9c565b606091505b5091509150612c988282604051806060016040528060278152602001614516602791396135b3565b612fcd81612e3d565b6040516001600160a01b038216907fbc7cd75a20ee27fd9adebab32041f755214dbc6bffa90cc0225b39da2e5c2d3b90600090a250565b600054610100900460ff168061301d575060005460ff16155b6130395760405162461bcd60e51b81526004016106b890613fdb565b600054610100900460ff1615801561305b576000805461ffff19166101011790555b6130636135ec565b61306b6135ec565b610fd66135ec565b600054610100900460ff168061308c575060005460ff16155b6130a85760405162461bcd60e51b81526004016106b890613fdb565b600054610100900460ff16158015613063576000805461ffff191661010117905561306b6135ec565b61012d5460405163095ea7b360e01b81526001600160a01b0391821660048201526024810183905260009187169063095ea7b390604401602060405180830381600087803b15801561312257600080fd5b505af1158015613136573d6000803e3d6000fd5b505050506040513d601f19601f8201168201806040525081019061315a9190613b71565b506131a76040805160c0810190915260008082526020820190815260200160006001600160a01b0316815260200160006001600160a01b0316815260200160008152602001606081525090565b888152602081018860018111156131c0576131c0614490565b908160018111156131d3576131d3614490565b9052506001600160a01b038781166040838101919091528782166060808501919091526080808501879052825190810183526000602082018190529181019190915287831681528683169181019190915261012d549091166352bbbe2983836b033b2e3c9fd0803ce800000061324b426102586142b1565b6040518563ffffffff1660e01b815260040161326a94939291906140c5565b602060405180830381600087803b15801561328457600080fd5b505af1158015613298573d6000803e3d6000fd5b505050506040513d601f19601f820116820180604052508101906132bc9190613bf6565b9a9950505050505050505050565b6000806132d988888886613656565b905060038110156133f0576040516370a0823160e01b81526001600160a01b03858116600483015289169063a9059cbb90879083906370a082319060240160206040518083038186803b15801561332f57600080fd5b505afa158015613343573d6000803e3d6000fd5b505050506040513d601f19601f820116820180604052508101906133679190613bf6565b6040516001600160e01b031960e085901b1681526001600160a01b0390921660048301526024820152604401602060405180830381600087803b1580156133ad57600080fd5b505af11580156133c1573d6000803e3d6000fd5b505050506040513d601f19601f820116820180604052508101906133e59190613b71565b5060009150506135a9565b61015f5460405163095ea7b360e01b81526001600160a01b039182166004820152602481018590526000918a169063095ea7b390604401602060405180830381600087803b15801561344157600080fd5b505af1158015613455573d6000803e3d6000fd5b505050506040513d601f19601f820116820180604052508101906134799190613b71565b5060408051600280825260608201835260009260208301908036833701905050905089816000815181106134af576134af6144a6565b60200260200101906001600160a01b031690816001600160a01b03168152505088816001815181106134e3576134e36144a6565b6001600160a01b03928316602091820292909201015261015f54166338ed17398684848a613513426102586142b1565b6040518663ffffffff1660e01b8152600401613533959493929190614220565b600060405180830381600087803b15801561354d57600080fd5b505af1158015613561573d6000803e3d6000fd5b505050506040513d6000823e601f3d908101601f191682016040526135899190810190613b34565b60018151811061359b5761359b6144a6565b602002602001015193505050505b9695505050505050565b606083156135c257508161287d565b8251156135d25782518084602001fd5b8160405162461bcd60e51b81526004016106b89190613ef9565b600054610100900460ff1680613605575060005460ff16155b6136215760405162461bcd60e51b81526004016106b890613fdb565b600054610100900460ff16158015610fd6576000805461ffff19166101011790558015610ebe576000805461ff001916905550565b60408051600280825260608201835260009283929190602083019080368337019050509050858160008151811061368f5761368f6144a6565b60200260200101906001600160a01b031690816001600160a01b03168152505084816001815181106136c3576136c36144a6565b6001600160a01b03928316602091820292909201015261015f5460405163d06ca61f60e01b8152600092919091169063d06ca61f9061370890879086906004016141de565b60006040518083038186803b15801561372057600080fd5b505afa158015613734573d6000803e3d6000fd5b505050506040513d6000823e601f3d908101601f1916820160405261375c9190810190613b34565b905080600081518110613771576137716144a6565b60200260200101518160018151811061378c5761378c6144a6565b60200260200101518661379f91906143d9565b6137a991906142c9565b979650505050505050565b600082601f8301126137c557600080fd5b815160206137da6137d58361428d565b61425c565b80838252828201915082860187848660051b89010111156137fa57600080fd5b60005b85811015613819578151845292840192908401906001016137fd565b5090979650505050505050565b60006020828403121561383857600080fd5b813561287d816144d2565b600080600080600060a0868803121561385b57600080fd5b8535613866816144d2565b94506020860135613876816144d2565b93506040860135613886816144d2565b92506060860135613896816144d2565b915060808601356138a6816144d2565b809150509295509295909350565b600080600080608085870312156138ca57600080fd5b84356138d5816144d2565b935060208501356138e5816144d2565b93969395505050506040820135916060013590565b6000806040838503121561390d57600080fd5b8235613918816144d2565b915060208381013567ffffffffffffffff8082111561393657600080fd5b818601915086601f83011261394a57600080fd5b81358181111561395c5761395c6144bc565b61396e601f8201601f1916850161425c565b9150808252878482850101111561398457600080fd5b80848401858401376000848284010152508093505050509250929050565b600080604083850312156139b557600080fd5b82516139c0816144d2565b6020840151909250600381106139d557600080fd5b809150509250929050565b600080604083850312156139f357600080fd5b82356139fe816144d2565b946020939093013593505050565b60008060008060808587031215613a2257600080fd5b8435613a2d816144d2565b9350602085013592506040850135613a44816144d2565b91506060850135613a54816144e7565b939692955090935050565b600080600060608486031215613a7457600080fd5b835167ffffffffffffffff80821115613a8c57600080fd5b818601915086601f830112613aa057600080fd5b81516020613ab06137d58361428d565b8083825282820191508286018b848660051b8901011115613ad057600080fd5b600096505b84871015613afc578051613ae8816144d2565b835260019690960195918301918301613ad5565b5091890151919750909350505080821115613b1657600080fd5b50613b23868287016137b4565b925050604084015190509250925092565b600060208284031215613b4657600080fd5b815167ffffffffffffffff811115613b5d57600080fd5b613b69848285016137b4565b949350505050565b600060208284031215613b8357600080fd5b815161287d816144e7565b600060208284031215613ba057600080fd5b5035919050565b60008060408385031215613bba57600080fd5b8235915060208301356139d5816144d2565b600060208284031215613bde57600080fd5b81356001600160e01b03198116811461287d57600080fd5b600060208284031215613c0857600080fd5b5051919050565b600060208284031215613c2157600080fd5b815160ff8116811461287d57600080fd5b600081518084526020808501945080840160005b83811015613c6b5781516001600160a01b031687529582019590820190600101613c46565b509495945050505050565b600081518084526020808501945080840160005b83811015613c6b57815187529582019590820190600101613c8a565b60008151808452613cbe8160208601602086016143f8565b601f01601f19169290920160200192915050565b60028110613cf057634e487b7160e01b600052602160045260246000fd5b9052565b8051608080845281519084018190526000916020919082019060a0860190845b81811015613d395783516001600160a01b031683529284019291840191600101613d14565b505082850151915085810383870152613d528183613c76565b9250505060408301518482036040860152613d6d8282613ca6565b9150506060830151613d83606086018215159052565b509392505050565b6000610120613d9b848451613cd2565b6020838101516001600160a01b03169085015260408084015190613dc9908601826001600160a01b03169052565b50606083015160608501526080830151608085015260a083015160a085015260c0830151613e0260c08601826001600160a01b03169052565b5060e0830151613e1d60e08601826001600160a01b03169052565b506101008084015182828701526135a983870182613ca6565b60008251613e488184602087016143f8565b9190910192915050565b7f416363657373436f6e74726f6c3a206163636f756e7420000000000000000000815260008351613e8a8160178501602088016143f8565b7001034b99036b4b9b9b4b733903937b6329607d1b6017918401918201528351613ebb8160288401602088016143f8565b01602801949350505050565b8481526001600160a01b038481166020830152831660408201526080606082018190526000906135a990830184613cf4565b60208152600061287d6020830184613ca6565b6020808252601f908201527f5265737472696374656420746f20504f5254464f4c494f5f4d414e4147455200604082015260600190565b6020808252602c908201527f46756e6374696f6e206d7573742062652063616c6c6564207468726f7567682060408201526b19195b1959d85d1958d85b1b60a21b606082015260800190565b6020808252602c908201527f46756e6374696f6e206d7573742062652063616c6c6564207468726f7567682060408201526b6163746976652070726f787960a01b606082015260800190565b6020808252602e908201527f496e697469616c697a61626c653a20636f6e747261637420697320616c72656160408201526d191e481a5b9a5d1a585b1a5e995960921b606082015260800190565b6020808252601490820152735265737472696374656420746f2061646d696e7360601b604082015260600190565b60208082526019908201527f536f6d6520746f6b656e206e6f7420636f6d70617469626c6500000000000000604082015260600190565b60208082526018908201527f5a65726f2061646472657373206e6f7420616c6c6f7765640000000000000000604082015260600190565b60e08152845160e0820152600060208601516140e5610100840182613cd2565b5060408601516001600160a01b03908116610120840152606087015116610140830152608086015161016083015260a086015160c061018084015261412e6101a0840182613ca6565b91505061416e602083018680516001600160a01b039081168352602080830151151590840152604080830151909116908301526060908101511515910152565b60a082019390935260c0015292915050565b6080815260006141936080830187613d8b565b82810360208401526141a58187613c76565b604084019590955250506060015292915050565b6060815260006141cc6060830186613d8b565b60208301949094525060400152919050565b828152604060208201526000613b696040830184613c32565b8381526060602082015260006142106060830185613c76565b9050826040830152949350505050565b85815284602082015260a06040820152600061423f60a0830186613c32565b6001600160a01b0394909416606083015250608001529392505050565b604051601f8201601f1916810167ffffffffffffffff81118282101715614285576142856144bc565b604052919050565b600067ffffffffffffffff8211156142a7576142a76144bc565b5060051b60200190565b600082198211156142c4576142c461447a565b500190565b6000826142e657634e487b7160e01b600052601260045260246000fd5b500490565b600181815b8085111561432657816000190482111561430c5761430c61447a565b8085161561431957918102915b93841c93908002906142f0565b509250929050565b600061287d60ff8416836000826143475750600161068b565b816143545750600061068b565b816001811461436a576002811461437457614390565b600191505061068b565b60ff8411156143855761438561447a565b50506001821b61068b565b5060208310610133831016604e8410600b84101617156143b3575081810a61068b565b6143bd83836142eb565b80600019048211156143d1576143d161447a565b029392505050565b60008160001904831182151516156143f3576143f361447a565b500290565b60005b838110156144135781810151838201526020016143fb565b83811115614422576000848401525b50505050565b6000816144375761443761447a565b506000190190565b60006000198214156144535761445361447a565b5060010190565b600060ff821660ff8114156144715761447161447a565b60010192915050565b634e487b7160e01b600052601160045260246000fd5b634e487b7160e01b600052602160045260246000fd5b634e487b7160e01b600052603260045260246000fd5b634e487b7160e01b600052604160045260246000fd5b6001600160a01b0381168114610ebe57600080fd5b8015158114610ebe57600080fdfe90c2aa7471c04182221f68e80c07ab1e5946e4c63f8693e14ca40385d529f051416464726573733a206c6f772d6c6576656c2064656c65676174652063616c6c206661696c6564a26469706673582212207500d3ed72fb08e4fb2915061e34d18aae4d0a5f66af961925a1cfa0c570787664736f6c63430008060033",
  "devdoc": {
    "kind": "dev",
    "methods": {
      "constructor": {
        "custom:oz-upgrades-unsafe-allow": "constructor"
      },
      "getRoleAdmin(bytes32)": {
        "details": "Returns the admin role that controls `role`. See {grantRole} and {revokeRole}. To change a role's admin, use {_setRoleAdmin}."
      },
      "grantRole(bytes32,address)": {
        "details": "Grants `role` to `account`. If `account` had not been already granted `role`, emits a {RoleGranted} event. Requirements: - the caller must have ``role``'s admin role."
      },
      "hasRole(bytes32,address)": {
        "details": "Returns `true` if `account` has been granted `role`."
      },
      "renounceRole(bytes32,address)": {
        "details": "Revokes `role` from the calling account. Roles are often managed via {grantRole} and {revokeRole}: this function's purpose is to provide a mechanism for accounts to lose their privileges if they are compromised (such as when a trusted device is misplaced). If the calling account had been revoked `role`, emits a {RoleRevoked} event. Requirements: - the caller must be `account`."
      },
      "revokeRole(bytes32,address)": {
        "details": "Revokes `role` from `account`. If `account` had been granted `role`, emits a {RoleRevoked} event. Requirements: - the caller must have ``role``'s admin role."
      },
      "supportsInterface(bytes4)": {
        "details": "See {IERC165-supportsInterface}."
      },
      "upgradeTo(address)": {
        "details": "Upgrade the implementation of the proxy to `newImplementation`. Calls {_authorizeUpgrade}. Emits an {Upgraded} event."
      },
      "upgradeToAndCall(address,bytes)": {
        "details": "Upgrade the implementation of the proxy to `newImplementation`, and subsequently execute the function call encoded in `data`. Calls {_authorizeUpgrade}. Emits an {Upgraded} event."
      }
    },
    "version": 1
  },
  "userdoc": {
    "kind": "user",
    "methods": {},
    "version": 1
  },
  "storageLayout": {
    "storage": [
      {
        "astId": 823,
        "contract": "contracts/strategies/StrategyBalancer.sol:StrategyBalancer",
        "label": "_initialized",
        "offset": 0,
        "slot": "0",
        "type": "t_bool"
      },
      {
        "astId": 826,
        "contract": "contracts/strategies/StrategyBalancer.sol:StrategyBalancer",
        "label": "_initializing",
        "offset": 1,
        "slot": "0",
        "type": "t_bool"
      },
      {
        "astId": 2943,
        "contract": "contracts/strategies/StrategyBalancer.sol:StrategyBalancer",
        "label": "__gap",
        "offset": 0,
        "slot": "1",
        "type": "t_array(t_uint256)50_storage"
      },
      {
        "astId": 3865,
        "contract": "contracts/strategies/StrategyBalancer.sol:StrategyBalancer",
        "label": "__gap",
        "offset": 0,
        "slot": "51",
        "type": "t_array(t_uint256)50_storage"
      },
      {
        "astId": 48,
        "contract": "contracts/strategies/StrategyBalancer.sol:StrategyBalancer",
        "label": "_roles",
        "offset": 0,
        "slot": "101",
        "type": "t_mapping(t_bytes32,t_struct(RoleData)43_storage)"
      },
      {
        "astId": 335,
        "contract": "contracts/strategies/StrategyBalancer.sol:StrategyBalancer",
        "label": "__gap",
        "offset": 0,
        "slot": "102",
        "type": "t_array(t_uint256)49_storage"
      },
      {
        "astId": 806,
        "contract": "contracts/strategies/StrategyBalancer.sol:StrategyBalancer",
        "label": "__gap",
        "offset": 0,
        "slot": "151",
        "type": "t_array(t_uint256)50_storage"
      },
      {
        "astId": 973,
        "contract": "contracts/strategies/StrategyBalancer.sol:StrategyBalancer",
        "label": "__gap",
        "offset": 0,
        "slot": "201",
        "type": "t_array(t_uint256)50_storage"
      },
      {
        "astId": 21050,
        "contract": "contracts/strategies/StrategyBalancer.sol:StrategyBalancer",
        "label": "portfolioManager",
        "offset": 0,
        "slot": "251",
        "type": "t_address"
      },
      {
        "astId": 21299,
        "contract": "contracts/strategies/StrategyBalancer.sol:StrategyBalancer",
        "label": "__gap",
        "offset": 0,
        "slot": "252",
        "type": "t_array(t_uint256)49_storage"
      },
      {
        "astId": 15483,
        "contract": "contracts/strategies/StrategyBalancer.sol:StrategyBalancer",
        "label": "balancerVault",
        "offset": 0,
        "slot": "301",
        "type": "t_contract(IVault)18236"
      },
      {
        "astId": 16050,
        "contract": "contracts/strategies/StrategyBalancer.sol:StrategyBalancer",
        "label": "__gap",
        "offset": 0,
        "slot": "302",
        "type": "t_array(t_uint256)49_storage"
      },
      {
        "astId": 16058,
        "contract": "contracts/strategies/StrategyBalancer.sol:StrategyBalancer",
        "label": "uniswapRouter",
        "offset": 0,
        "slot": "351",
        "type": "t_contract(IUniswapV2Router02)19846"
      },
      {
        "astId": 16289,
        "contract": "contracts/strategies/StrategyBalancer.sol:StrategyBalancer",
        "label": "__gap",
        "offset": 0,
        "slot": "352",
        "type": "t_array(t_uint256)49_storage"
      },
      {
        "astId": 21648,
        "contract": "contracts/strategies/StrategyBalancer.sol:StrategyBalancer",
        "label": "usdcToken",
        "offset": 0,
        "slot": "401",
        "type": "t_contract(IERC20)8922"
      },
      {
        "astId": 21651,
        "contract": "contracts/strategies/StrategyBalancer.sol:StrategyBalancer",
        "label": "bpspTUsdToken",
        "offset": 0,
        "slot": "402",
        "type": "t_contract(IERC20)8922"
      },
      {
        "astId": 21654,
        "contract": "contracts/strategies/StrategyBalancer.sol:StrategyBalancer",
        "label": "balToken",
        "offset": 0,
        "slot": "403",
        "type": "t_contract(IERC20)8922"
      },
      {
        "astId": 21657,
        "contract": "contracts/strategies/StrategyBalancer.sol:StrategyBalancer",
        "label": "wmaticToken",
        "offset": 0,
        "slot": "404",
        "type": "t_contract(IERC20)8922"
      },
      {
        "astId": 21660,
        "contract": "contracts/strategies/StrategyBalancer.sol:StrategyBalancer",
        "label": "tusdToken",
        "offset": 0,
        "slot": "405",
        "type": "t_contract(IERC20)8922"
      },
      {
        "astId": 21662,
        "contract": "contracts/strategies/StrategyBalancer.sol:StrategyBalancer",
        "label": "usdcTokenDenominator",
        "offset": 0,
        "slot": "406",
        "type": "t_uint256"
      },
      {
        "astId": 21664,
        "contract": "contracts/strategies/StrategyBalancer.sol:StrategyBalancer",
        "label": "bpspTUsdTokenDenominator",
        "offset": 0,
        "slot": "407",
        "type": "t_uint256"
      },
      {
        "astId": 21666,
        "contract": "contracts/strategies/StrategyBalancer.sol:StrategyBalancer",
        "label": "balTokenDenominator",
        "offset": 0,
        "slot": "408",
        "type": "t_uint256"
      },
      {
        "astId": 21668,
        "contract": "contracts/strategies/StrategyBalancer.sol:StrategyBalancer",
        "label": "wmaticTokenDenominator",
        "offset": 0,
        "slot": "409",
        "type": "t_uint256"
      },
      {
        "astId": 21670,
        "contract": "contracts/strategies/StrategyBalancer.sol:StrategyBalancer",
        "label": "tusdTokenDenominator",
        "offset": 0,
        "slot": "410",
        "type": "t_uint256"
      },
      {
        "astId": 21673,
        "contract": "contracts/strategies/StrategyBalancer.sol:StrategyBalancer",
        "label": "balancerVault",
        "offset": 0,
        "slot": "411",
        "type": "t_contract(IVault)18236"
      },
      {
        "astId": 21675,
        "contract": "contracts/strategies/StrategyBalancer.sol:StrategyBalancer",
        "label": "balancerPoolId1",
        "offset": 0,
        "slot": "412",
        "type": "t_bytes32"
      },
      {
        "astId": 21677,
        "contract": "contracts/strategies/StrategyBalancer.sol:StrategyBalancer",
        "label": "balancerPoolId2",
        "offset": 0,
        "slot": "413",
        "type": "t_bytes32"
      }
    ],
    "types": {
      "t_address": {
        "encoding": "inplace",
        "label": "address",
        "numberOfBytes": "20"
      },
      "t_array(t_uint256)49_storage": {
        "base": "t_uint256",
        "encoding": "inplace",
        "label": "uint256[49]",
        "numberOfBytes": "1568"
      },
      "t_array(t_uint256)50_storage": {
        "base": "t_uint256",
        "encoding": "inplace",
        "label": "uint256[50]",
        "numberOfBytes": "1600"
      },
      "t_bool": {
        "encoding": "inplace",
        "label": "bool",
        "numberOfBytes": "1"
      },
      "t_bytes32": {
        "encoding": "inplace",
        "label": "bytes32",
        "numberOfBytes": "32"
      },
      "t_contract(IERC20)8922": {
        "encoding": "inplace",
        "label": "contract IERC20",
        "numberOfBytes": "20"
      },
      "t_contract(IUniswapV2Router02)19846": {
        "encoding": "inplace",
        "label": "contract IUniswapV2Router02",
        "numberOfBytes": "20"
      },
      "t_contract(IVault)18236": {
        "encoding": "inplace",
        "label": "contract IVault",
        "numberOfBytes": "20"
      },
      "t_mapping(t_address,t_bool)": {
        "encoding": "mapping",
        "key": "t_address",
        "label": "mapping(address => bool)",
        "numberOfBytes": "32",
        "value": "t_bool"
      },
      "t_mapping(t_bytes32,t_struct(RoleData)43_storage)": {
        "encoding": "mapping",
        "key": "t_bytes32",
        "label": "mapping(bytes32 => struct AccessControlUpgradeable.RoleData)",
        "numberOfBytes": "32",
        "value": "t_struct(RoleData)43_storage"
      },
      "t_struct(RoleData)43_storage": {
        "encoding": "inplace",
        "label": "struct AccessControlUpgradeable.RoleData",
        "members": [
          {
            "astId": 40,
            "contract": "contracts/strategies/StrategyBalancer.sol:StrategyBalancer",
            "label": "members",
            "offset": 0,
            "slot": "0",
            "type": "t_mapping(t_address,t_bool)"
          },
          {
            "astId": 42,
            "contract": "contracts/strategies/StrategyBalancer.sol:StrategyBalancer",
            "label": "adminRole",
            "offset": 0,
            "slot": "1",
            "type": "t_bytes32"
          }
        ],
        "numberOfBytes": "64"
      },
      "t_uint256": {
        "encoding": "inplace",
        "label": "uint256",
        "numberOfBytes": "32"
      }
    }
  }
}