{
  "address": "0xa9F3A8B608922545e8E5f5f8E61161263D70C64e",
  "abi": [
    {
      "inputs": [],
      "stateMutability": "nonpayable",
      "type": "constructor"
    },
    {
      "anonymous": false,
      "inputs": [
        {
          "indexed": false,
          "internalType": "address",
          "name": "previousAdmin",
          "type": "address"
        },
        {
          "indexed": false,
          "internalType": "address",
          "name": "newAdmin",
          "type": "address"
        }
      ],
      "name": "AdminChanged",
      "type": "event"
    },
    {
      "anonymous": false,
      "inputs": [
        {
          "indexed": true,
          "internalType": "address",
          "name": "owner",
          "type": "address"
        },
        {
          "indexed": true,
          "internalType": "address",
          "name": "spender",
          "type": "address"
        },
        {
          "indexed": false,
          "internalType": "uint256",
          "name": "value",
          "type": "uint256"
        }
      ],
      "name": "Approval",
      "type": "event"
    },
    {
      "anonymous": false,
      "inputs": [
        {
          "indexed": true,
          "internalType": "address",
          "name": "beacon",
          "type": "address"
        }
      ],
      "name": "BeaconUpgraded",
      "type": "event"
    },
    {
      "anonymous": false,
      "inputs": [
        {
          "indexed": false,
          "internalType": "address",
          "name": "exchanger",
          "type": "address"
        }
      ],
      "name": "ExchangerUpdated",
      "type": "event"
    },
    {
      "anonymous": false,
      "inputs": [
        {
          "indexed": false,
          "internalType": "uint8",
          "name": "version",
          "type": "uint8"
        }
      ],
      "name": "Initialized",
      "type": "event"
    },
    {
      "anonymous": false,
      "inputs": [
        {
          "indexed": false,
          "internalType": "uint256",
          "name": "changeTime",
          "type": "uint256"
        },
        {
          "indexed": false,
          "internalType": "uint256",
          "name": "liquidityIndex",
          "type": "uint256"
        }
      ],
      "name": "LiquidityIndexUpdated",
      "type": "event"
    },
    {
      "anonymous": false,
      "inputs": [
        {
          "indexed": true,
          "internalType": "bytes32",
          "name": "role",
          "type": "bytes32"
        },
        {
          "indexed": true,
          "internalType": "bytes32",
          "name": "previousAdminRole",
          "type": "bytes32"
        },
        {
          "indexed": true,
          "internalType": "bytes32",
          "name": "newAdminRole",
          "type": "bytes32"
        }
      ],
      "name": "RoleAdminChanged",
      "type": "event"
    },
    {
      "anonymous": false,
      "inputs": [
        {
          "indexed": true,
          "internalType": "bytes32",
          "name": "role",
          "type": "bytes32"
        },
        {
          "indexed": true,
          "internalType": "address",
          "name": "account",
          "type": "address"
        },
        {
          "indexed": true,
          "internalType": "address",
          "name": "sender",
          "type": "address"
        }
      ],
      "name": "RoleGranted",
      "type": "event"
    },
    {
      "anonymous": false,
      "inputs": [
        {
          "indexed": true,
          "internalType": "bytes32",
          "name": "role",
          "type": "bytes32"
        },
        {
          "indexed": true,
          "internalType": "address",
          "name": "account",
          "type": "address"
        },
        {
          "indexed": true,
          "internalType": "address",
          "name": "sender",
          "type": "address"
        }
      ],
      "name": "RoleRevoked",
      "type": "event"
    },
    {
      "anonymous": false,
      "inputs": [
        {
          "indexed": true,
          "internalType": "address",
          "name": "from",
          "type": "address"
        },
        {
          "indexed": true,
          "internalType": "address",
          "name": "to",
          "type": "address"
        },
        {
          "indexed": false,
          "internalType": "uint256",
          "name": "value",
          "type": "uint256"
        }
      ],
      "name": "Transfer",
      "type": "event"
    },
    {
      "anonymous": false,
      "inputs": [
        {
          "indexed": true,
          "internalType": "address",
          "name": "implementation",
          "type": "address"
        }
      ],
      "name": "Upgraded",
      "type": "event"
    },
    {
      "inputs": [],
      "name": "DEFAULT_ADMIN_ROLE",
      "outputs": [
        {
          "internalType": "bytes32",
          "name": "",
          "type": "bytes32"
        }
      ],
      "stateMutability": "view",
      "type": "function"
    },
    {
      "inputs": [],
      "name": "EXCHANGER",
      "outputs": [
        {
          "internalType": "bytes32",
          "name": "",
          "type": "bytes32"
        }
      ],
      "stateMutability": "view",
      "type": "function"
    },
    {
      "inputs": [],
      "name": "UPGRADER_ROLE",
      "outputs": [
        {
          "internalType": "bytes32",
          "name": "",
          "type": "bytes32"
        }
      ],
      "stateMutability": "view",
      "type": "function"
    },
    {
      "inputs": [
        {
          "internalType": "address",
          "name": "owner",
          "type": "address"
        },
        {
          "internalType": "address",
          "name": "spender",
          "type": "address"
        }
      ],
      "name": "allowance",
      "outputs": [
        {
          "internalType": "uint256",
          "name": "",
          "type": "uint256"
        }
      ],
      "stateMutability": "view",
      "type": "function"
    },
    {
      "inputs": [
        {
          "internalType": "address",
          "name": "spender",
          "type": "address"
        },
        {
          "internalType": "uint256",
          "name": "amount",
          "type": "uint256"
        }
      ],
      "name": "approve",
      "outputs": [
        {
          "internalType": "bool",
          "name": "",
          "type": "bool"
        }
      ],
      "stateMutability": "nonpayable",
      "type": "function"
    },
    {
      "inputs": [
        {
          "internalType": "address",
          "name": "user",
          "type": "address"
        }
      ],
      "name": "balanceOf",
      "outputs": [
        {
          "internalType": "uint256",
          "name": "",
          "type": "uint256"
        }
      ],
      "stateMutability": "view",
      "type": "function"
    },
    {
      "inputs": [
        {
          "internalType": "address",
          "name": "_sender",
          "type": "address"
        },
        {
          "internalType": "uint256",
          "name": "_amount",
          "type": "uint256"
        }
      ],
      "name": "burn",
      "outputs": [],
      "stateMutability": "nonpayable",
      "type": "function"
    },
    {
      "inputs": [],
      "name": "decimals",
      "outputs": [
        {
          "internalType": "uint8",
          "name": "",
          "type": "uint8"
        }
      ],
      "stateMutability": "pure",
      "type": "function"
    },
    {
      "inputs": [
        {
          "internalType": "address",
          "name": "spender",
          "type": "address"
        },
        {
          "internalType": "uint256",
          "name": "subtractedValue",
          "type": "uint256"
        }
      ],
      "name": "decreaseAllowance",
      "outputs": [
        {
          "internalType": "bool",
          "name": "",
          "type": "bool"
        }
      ],
      "stateMutability": "nonpayable",
      "type": "function"
    },
    {
      "inputs": [],
      "name": "exchange",
      "outputs": [
        {
          "internalType": "address",
          "name": "",
          "type": "address"
        }
      ],
      "stateMutability": "view",
      "type": "function"
    },
    {
      "inputs": [
        {
          "internalType": "bytes32",
          "name": "role",
          "type": "bytes32"
        }
      ],
      "name": "getRoleAdmin",
      "outputs": [
        {
          "internalType": "bytes32",
          "name": "",
          "type": "bytes32"
        }
      ],
      "stateMutability": "view",
      "type": "function"
    },
    {
      "inputs": [
        {
          "internalType": "bytes32",
          "name": "role",
          "type": "bytes32"
        },
        {
          "internalType": "address",
          "name": "account",
          "type": "address"
        }
      ],
      "name": "grantRole",
      "outputs": [],
      "stateMutability": "nonpayable",
      "type": "function"
    },
    {
      "inputs": [
        {
          "internalType": "bytes32",
          "name": "role",
          "type": "bytes32"
        },
        {
          "internalType": "address",
          "name": "account",
          "type": "address"
        }
      ],
      "name": "hasRole",
      "outputs": [
        {
          "internalType": "bool",
          "name": "",
          "type": "bool"
        }
      ],
      "stateMutability": "view",
      "type": "function"
    },
    {
      "inputs": [
        {
          "internalType": "address",
          "name": "spender",
          "type": "address"
        },
        {
          "internalType": "uint256",
          "name": "addedValue",
          "type": "uint256"
        }
      ],
      "name": "increaseAllowance",
      "outputs": [
        {
          "internalType": "bool",
          "name": "",
          "type": "bool"
        }
      ],
      "stateMutability": "nonpayable",
      "type": "function"
    },
    {
      "inputs": [],
      "name": "initialize",
      "outputs": [],
      "stateMutability": "nonpayable",
      "type": "function"
    },
    {
      "inputs": [],
      "name": "liquidityIndex",
      "outputs": [
        {
          "internalType": "uint256",
          "name": "",
          "type": "uint256"
        }
      ],
      "stateMutability": "view",
      "type": "function"
    },
    {
      "inputs": [],
      "name": "liquidityIndexChangeTime",
      "outputs": [
        {
          "internalType": "uint256",
          "name": "",
          "type": "uint256"
        }
      ],
      "stateMutability": "view",
      "type": "function"
    },
    {
      "inputs": [],
      "name": "liquidityIndexDenominator",
      "outputs": [
        {
          "internalType": "uint256",
          "name": "",
          "type": "uint256"
        }
      ],
      "stateMutability": "view",
      "type": "function"
    },
    {
      "inputs": [
        {
          "internalType": "address",
          "name": "_sender",
          "type": "address"
        },
        {
          "internalType": "uint256",
          "name": "_amount",
          "type": "uint256"
        }
      ],
      "name": "mint",
      "outputs": [],
      "stateMutability": "nonpayable",
      "type": "function"
    },
    {
      "inputs": [],
      "name": "name",
      "outputs": [
        {
          "internalType": "string",
          "name": "",
          "type": "string"
        }
      ],
      "stateMutability": "view",
      "type": "function"
    },
    {
      "inputs": [
        {
          "internalType": "uint256",
          "name": "index",
          "type": "uint256"
        }
      ],
      "name": "ownerAt",
      "outputs": [
        {
          "internalType": "address",
          "name": "",
          "type": "address"
        }
      ],
      "stateMutability": "view",
      "type": "function"
    },
    {
      "inputs": [
        {
          "internalType": "uint256",
          "name": "index",
          "type": "uint256"
        }
      ],
      "name": "ownerBalanceAt",
      "outputs": [
        {
          "internalType": "uint256",
          "name": "",
          "type": "uint256"
        }
      ],
      "stateMutability": "view",
      "type": "function"
    },
    {
      "inputs": [],
      "name": "ownerLength",
      "outputs": [
        {
          "internalType": "uint256",
          "name": "",
          "type": "uint256"
        }
      ],
      "stateMutability": "view",
      "type": "function"
    },
    {
      "inputs": [],
      "name": "proxiableUUID",
      "outputs": [
        {
          "internalType": "bytes32",
          "name": "",
          "type": "bytes32"
        }
      ],
      "stateMutability": "view",
      "type": "function"
    },
    {
      "inputs": [
        {
          "internalType": "bytes32",
          "name": "role",
          "type": "bytes32"
        },
        {
          "internalType": "address",
          "name": "account",
          "type": "address"
        }
      ],
      "name": "renounceRole",
      "outputs": [],
      "stateMutability": "nonpayable",
      "type": "function"
    },
    {
      "inputs": [
        {
          "internalType": "bytes32",
          "name": "role",
          "type": "bytes32"
        },
        {
          "internalType": "address",
          "name": "account",
          "type": "address"
        }
      ],
      "name": "revokeRole",
      "outputs": [],
      "stateMutability": "nonpayable",
      "type": "function"
    },
    {
      "inputs": [
        {
          "internalType": "address",
          "name": "user",
          "type": "address"
        }
      ],
      "name": "scaledBalanceOf",
      "outputs": [
        {
          "internalType": "uint256",
          "name": "",
          "type": "uint256"
        }
      ],
      "stateMutability": "view",
      "type": "function"
    },
    {
      "inputs": [],
      "name": "scaledTotalSupply",
      "outputs": [
        {
          "internalType": "uint256",
          "name": "",
          "type": "uint256"
        }
      ],
      "stateMutability": "view",
      "type": "function"
    },
    {
      "inputs": [
        {
          "internalType": "address",
          "name": "_exchanger",
          "type": "address"
        }
      ],
      "name": "setExchanger",
      "outputs": [],
      "stateMutability": "nonpayable",
      "type": "function"
    },
    {
      "inputs": [
        {
          "internalType": "uint256",
          "name": "_liquidityIndex",
          "type": "uint256"
        }
      ],
      "name": "setLiquidityIndex",
      "outputs": [],
      "stateMutability": "nonpayable",
      "type": "function"
    },
    {
      "inputs": [
        {
          "internalType": "string",
          "name": "name",
          "type": "string"
        },
        {
          "internalType": "string",
          "name": "symbol",
          "type": "string"
        }
      ],
      "name": "setName",
      "outputs": [],
      "stateMutability": "nonpayable",
      "type": "function"
    },
    {
      "inputs": [
        {
          "internalType": "bytes4",
          "name": "interfaceId",
          "type": "bytes4"
        }
      ],
      "name": "supportsInterface",
      "outputs": [
        {
          "internalType": "bool",
          "name": "",
          "type": "bool"
        }
      ],
      "stateMutability": "view",
      "type": "function"
    },
    {
      "inputs": [],
      "name": "symbol",
      "outputs": [
        {
          "internalType": "string",
          "name": "",
          "type": "string"
        }
      ],
      "stateMutability": "view",
      "type": "function"
    },
    {
      "inputs": [],
      "name": "totalBurn",
      "outputs": [
        {
          "internalType": "uint256",
          "name": "",
          "type": "uint256"
        }
      ],
      "stateMutability": "view",
      "type": "function"
    },
    {
      "inputs": [],
      "name": "totalMint",
      "outputs": [
        {
          "internalType": "uint256",
          "name": "",
          "type": "uint256"
        }
      ],
      "stateMutability": "view",
      "type": "function"
    },
    {
      "inputs": [],
      "name": "totalSupply",
      "outputs": [
        {
          "internalType": "uint256",
          "name": "",
          "type": "uint256"
        }
      ],
      "stateMutability": "view",
      "type": "function"
    },
    {
      "inputs": [
        {
          "internalType": "address",
          "name": "recipient",
          "type": "address"
        },
        {
          "internalType": "uint256",
          "name": "amount",
          "type": "uint256"
        }
      ],
      "name": "transfer",
      "outputs": [
        {
          "internalType": "bool",
          "name": "",
          "type": "bool"
        }
      ],
      "stateMutability": "nonpayable",
      "type": "function"
    },
    {
      "inputs": [
        {
          "internalType": "address",
          "name": "sender",
          "type": "address"
        },
        {
          "internalType": "address",
          "name": "recipient",
          "type": "address"
        },
        {
          "internalType": "uint256",
          "name": "amount",
          "type": "uint256"
        }
      ],
      "name": "transferFrom",
      "outputs": [
        {
          "internalType": "bool",
          "name": "",
          "type": "bool"
        }
      ],
      "stateMutability": "nonpayable",
      "type": "function"
    },
    {
      "inputs": [
        {
          "internalType": "address",
          "name": "newImplementation",
          "type": "address"
        }
      ],
      "name": "upgradeTo",
      "outputs": [],
      "stateMutability": "nonpayable",
      "type": "function"
    },
    {
      "inputs": [
        {
          "internalType": "address",
          "name": "newImplementation",
          "type": "address"
        },
        {
          "internalType": "bytes",
          "name": "data",
          "type": "bytes"
        }
      ],
      "name": "upgradeToAndCall",
      "outputs": [],
      "stateMutability": "payable",
      "type": "function"
    }
  ],
  "numDeployments": 1,
  "solcInputHash": "78f7950fab42bade8b5feb6d911fa821",
  "bytecode": "0x60a06040523060601b6080523480156200001857600080fd5b5060006200002760016200008e565b9050801562000040576000805461ff0019166101001790555b801562000087576000805461ff0019169055604051600181527f7f26b83ff96e1f2b6a682f133852f6798a09c465da95921460cefb38474024989060200160405180910390a15b50620001af565b60008054610100900460ff161562000127578160ff166001148015620000c75750620000c530620001a060201b620014c61760201c565b155b6200011f5760405162461bcd60e51b815260206004820152602e602482015260008051602062002e8783398151915260448201526d191e481a5b9a5d1a585b1a5e995960921b60648201526084015b60405180910390fd5b506000919050565b60005460ff808416911610620001865760405162461bcd60e51b815260206004820152602e602482015260008051602062002e8783398151915260448201526d191e481a5b9a5d1a585b1a5e995960921b606482015260840162000116565b506000805460ff191660ff92909216919091179055600190565b6001600160a01b03163b151590565b60805160601c612c9d620001ea60003960008181610aad01528181610aed01528181610ccb01528181610d0b0152610d9a0152612c9d6000f3fe60806040526004361061023a5760003560e01c806370a082311161012e578063b2be2591116100ab578063d2f7265a1161006f578063d2f7265a14610661578063d547741f14610682578063da909b09146106a2578063dd62ed3e146106c2578063f72c0d8b146106e257600080fd5b8063b2be2591146105d1578063bbf44f33146105f1578063bd0f105314610608578063cb45d0e71461062a578063ce6df7be1461064157600080fd5b80639dc29fac116100f25780639dc29fac14610547578063a217fddf14610567578063a457c2d71461057c578063a9059cbb1461059c578063b1bf962d146105bc57600080fd5b806370a08231146104c65780638129fc1c146104e657806384f1abca146104fb57806391d148541461051257806395d89b411461053257600080fd5b8063313ce567116101bc57806340c10f191161018057806340c10f19146104495780634f1ef2861461046957806352d1902d1461047c57806359a7715a146104915780635c707f07146104a657600080fd5b8063313ce567146103b857806336568abe146103d45780633659cfe6146103f457806339509351146104145780633c9f861d1461043457600080fd5b80631da24f3e116102035780631da24f3e146102ee57806323b872dd1461030e578063243598791461032e578063248a9ca3146103665780632f2ff15d1461039657600080fd5b80623660881461023f57806301ffc9a71461026757806306fdde0314610297578063095ea7b3146102b957806318160ddd146102d9575b600080fd5b34801561024b57600080fd5b50610254610716565b6040519081526020015b60405180910390f35b34801561027357600080fd5b506102876102823660046127f2565b610728565b604051901515815260200161025e565b3480156102a357600080fd5b506102ac61075f565b60405161025e9190612907565b3480156102c557600080fd5b506102876102d4366004612773565b6107f1565b3480156102e557600080fd5b5061025461085d565b3480156102fa57600080fd5b50610254610309366004612687565b610887565b34801561031a57600080fd5b506102876103293660046126d5565b6108a5565b34801561033a57600080fd5b5061034e61034936600461279d565b6109ec565b6040516001600160a01b03909116815260200161025e565b34801561037257600080fd5b5061025461038136600461279d565b60009081526065602052604090206001015490565b3480156103a257600080fd5b506103b66103b13660046127cf565b6109fa565b005b3480156103c457600080fd5b506040516006815260200161025e565b3480156103e057600080fd5b506103b66103ef3660046127cf565b610a24565b34801561040057600080fd5b506103b661040f366004612687565b610aa2565b34801561042057600080fd5b5061028761042f366004612773565b610b82565b34801561044057600080fd5b50610254610be3565b34801561045557600080fd5b506103b6610464366004612773565b610c10565b6103b6610477366004612711565b610cc0565b34801561048857600080fd5b50610254610d8d565b34801561049d57600080fd5b50610254610e40565b3480156104b257600080fd5b506103b66104c136600461281c565b610e5c565b3480156104d257600080fd5b506102546104e1366004612687565b610ed1565b3480156104f257600080fd5b506103b6610f15565b34801561050757600080fd5b506102546101045481565b34801561051e57600080fd5b5061028761052d3660046127cf565b610fe6565b34801561053e57600080fd5b506102ac611011565b34801561055357600080fd5b506103b6610562366004612773565b611020565b34801561057357600080fd5b50610254600081565b34801561058857600080fd5b50610287610597366004612773565b6110f7565b3480156105a857600080fd5b506102876105b7366004612773565b6111f3565b3480156105c857600080fd5b5060fd54610254565b3480156105dd57600080fd5b506103b66105ec36600461279d565b611283565b3480156105fd57600080fd5b506102546101035481565b34801561061457600080fd5b50610254600080516020612be183398151915281565b34801561063657600080fd5b506102546101025481565b34801561064d57600080fd5b5061025461065c36600461279d565b61134a565b34801561066d57600080fd5b506101075461034e906001600160a01b031681565b34801561068e57600080fd5b506103b661069d3660046127cf565b61135b565b3480156106ae57600080fd5b506103b66106bd366004612687565b611380565b3480156106ce57600080fd5b506102546106dd3660046126a2565b61146d565b3480156106ee57600080fd5b506102547f189ab7a9244df0848122154315af71fe140f3db0fe014031783b0946b8c9d2e381565b60006107236101056114d5565b905090565b60006001600160e01b03198216637965db0b60e01b148061075957506301ffc9a760e01b6001600160e01b03198316145b92915050565b606060fe805461076e90612b4d565b80601f016020809104026020016040519081016040528092919081815260200182805461079a90612b4d565b80156107e75780601f106107bc576101008083540402835291602001916107e7565b820191906000526020600020905b8154815290600101906020018083116107ca57829003601f168201915b5050505050905090565b600080633b9aca006101035460001961080a9190612ab2565b6108149190612ab2565b8311156108245750600019610848565b61082d836114df565b9050610845610103548261151e90919063ffffffff16565b90505b6108533385836115f7565b5060019392505050565b60fd5461010354600091908290610875908390611713565b9050610880816117b0565b9250505090565b6001600160a01b038116600090815260fb6020526040812054610759565b6000806108b185610ed1565b8314156108d757506001600160a01b038416600090815260fb60205260409020546108fb565b6108e0836114df565b90506108f8610103548261151e90919063ffffffff16565b90505b610906858583611830565b6001600160a01b038516600090815260fc60209081526040808320338452909152902054818110156109965760405162461bcd60e51b815260206004820152602e60248201527f526562617365546f6b656e3a207472616e7366657220616d6f756e742065786360448201526d6565647320616c6c6f77616e636560901b60648201526084015b60405180910390fd5b6109a386338484036115f7565b846001600160a01b0316866001600160a01b0316600080516020612c48833981519152866040516109d691815260200190565b60405180910390a36001925050505b9392505050565b6000610759610105836119bc565b600082815260656020526040902060010154610a15816119c8565b610a1f83836119d2565b505050565b6001600160a01b0381163314610a945760405162461bcd60e51b815260206004820152602f60248201527f416363657373436f6e74726f6c3a2063616e206f6e6c792072656e6f756e636560448201526e103937b632b9903337b91039b2b63360891b606482015260840161098d565b610a9e8282611a58565b5050565b306001600160a01b037f0000000000000000000000000000000000000000000000000000000000000000161415610aeb5760405162461bcd60e51b815260040161098d90612971565b7f00000000000000000000000000000000000000000000000000000000000000006001600160a01b0316610b34600080516020612c01833981519152546001600160a01b031690565b6001600160a01b031614610b5a5760405162461bcd60e51b815260040161098d906129bd565b610b6381611abf565b60408051600080825260208201909252610b7f91839190611ae9565b50565b600080610b8e836114df565b9050610ba6610103548261151e90919063ffffffff16565b33600081815260fc602090815260408083206001600160a01b038a168452909152902054919250610853918690610bde908590612a9a565b6115f7565b600080610bff610103546101015461171390919063ffffffff16565b9050610c0a816117b0565b91505090565b610c28600080516020612be183398151915233610fe6565b610c445760405162461bcd60e51b815260040161098d9061293a565b6000610c4f826114df565b9050610c67610103548261151e90919063ffffffff16565b9050610c738382611c63565b806101006000828254610c869190612a9a565b90915550506040518281526001600160a01b03841690600090600080516020612c48833981519152906020015b60405180910390a3505050565b306001600160a01b037f0000000000000000000000000000000000000000000000000000000000000000161415610d095760405162461bcd60e51b815260040161098d90612971565b7f00000000000000000000000000000000000000000000000000000000000000006001600160a01b0316610d52600080516020612c01833981519152546001600160a01b031690565b6001600160a01b031614610d785760405162461bcd60e51b815260040161098d906129bd565b610d8182611abf565b610a9e82826001611ae9565b6000306001600160a01b037f00000000000000000000000000000000000000000000000000000000000000001614610e2d5760405162461bcd60e51b815260206004820152603860248201527f555550535570677261646561626c653a206d757374206e6f742062652063616c60448201527f6c6564207468726f7567682064656c656761746563616c6c0000000000000000606482015260840161098d565b50600080516020612c0183398151915290565b600080610bff610103546101005461171390919063ffffffff16565b610e67600033610fe6565b610eaa5760405162461bcd60e51b81526020600482015260146024820152735265737472696374656420746f2061646d696e7360601b604482015260640161098d565b8151610ebd9060fe906020850190612541565b508051610a1f9060ff906020840190612541565b6001600160a01b038116600090815260fb60205260408120546000610f02610103548361171390919063ffffffff16565b9050610f0d816117b0565b949350505050565b6000610f216001611d0a565b90508015610f39576000805461ff0019166101001790555b610f41611d97565b610f49611d97565b610f51611d97565b610f5c6000336119d2565b610f867f189ab7a9244df0848122154315af71fe140f3db0fe014031783b0946b8c9d2e3336119d2565b6b033b2e3c9fd0803ce8000000610103819055610104558015610b7f576000805461ff0019169055604051600181527f7f26b83ff96e1f2b6a682f133852f6798a09c465da95921460cefb3847402498906020015b60405180910390a150565b60009182526065602090815260408084206001600160a01b0393909316845291905290205460ff1690565b606060ff805461076e90612b4d565b611038600080516020612be183398151915233610fe6565b6110545760405162461bcd60e51b815260040161098d9061293a565b600061105f83610ed1565b82141561108557506001600160a01b038216600090815260fb60205260409020546110a9565b61108e826114df565b90506110a6610103548261151e90919063ffffffff16565b90505b6110b38382611e04565b8061010160008282546110c69190612a9a565b90915550506040518281526000906001600160a01b03851690600080516020612c4883398151915290602001610cb3565b600080611104338561146d565b831415611135575033600090815260fc602090815260408083206001600160a01b0387168452909152902054611159565b61113e836114df565b9050611156610103548261151e90919063ffffffff16565b90505b33600090815260fc602090815260408083206001600160a01b0388168452909152902054818110156111db5760405162461bcd60e51b815260206004820152602560248201527f45524332303a2064656372656173656420616c6c6f77616e63652062656c6f77604482015264207a65726f60d81b606482015260840161098d565b6111e833868484036115f7565b506001949350505050565b6000806111ff33610ed1565b83141561121c575033600090815260fb6020526040902054611240565b611225836114df565b905061123d610103548261151e90919063ffffffff16565b90505b61124b338583611830565b6040518381526001600160a01b038516903390600080516020612c488339815191529060200160405180910390a35060019392505050565b61129b600080516020612be183398151915233610fe6565b6112b75760405162461bcd60e51b815260040161098d9061293a565b600081116113075760405162461bcd60e51b815260206004820181905260248201527f5a65726f206c697175696469747920696e646578206e6f7420616c6c6f776564604482015260640161098d565b6101038190554261010281905560408051918252602082018390527f0e4040116352d1db096d8c6873996691dc7c5fe194f0a5094f63e55f28372e119101610fdb565b60006107596104e1610105846119bc565b600082815260656020526040902060010154611376816119c8565b610a1f8383611a58565b61138b600033610fe6565b6113ce5760405162461bcd60e51b81526020600482015260146024820152735265737472696374656420746f2061646d696e7360601b604482015260640161098d565b610107546001600160a01b031615611406576101075461140690600080516020612be1833981519152906001600160a01b031661135b565b61141e600080516020612be1833981519152826109fa565b61010780546001600160a01b0319166001600160a01b0383169081179091556040519081527f1af34e943bb581f62718acd39caf1a640e9ff89789a197745e259d1f40cd9bd690602001610fdb565b6001600160a01b03828116600090815260fc60209081526040808320938516835292905290812054610103546114a590600019612ab2565b8111156114b757600019915050610759565b61010354610f02908290611713565b6001600160a01b03163b151590565b6000610759825490565b6000806114f0633b9aca0084612ad4565b905082611501633b9aca0083612ab2565b146107595760405162461bcd60e51b815260040161098d90612a57565b60008161156d5760405162461bcd60e51b815260206004820152601c60248201527f4572726f72732e4d4154485f4449564953494f4e5f42595f5a45524f00000000604482015260640161098d565b8261157a57506000610759565b6000611587600284612ab2565b90506b033b2e3c9fd0803ce80000006115a282600019612af3565b6115ac9190612ab2565b8411156115cb5760405162461bcd60e51b815260040161098d90612a57565b82816115e36b033b2e3c9fd0803ce800000087612ad4565b6115ed9190612a9a565b610f0d9190612ab2565b6001600160a01b0383166116595760405162461bcd60e51b8152602060048201526024808201527f45524332303a20617070726f76652066726f6d20746865207a65726f206164646044820152637265737360e01b606482015260840161098d565b6001600160a01b0382166116ba5760405162461bcd60e51b815260206004820152602260248201527f45524332303a20617070726f766520746f20746865207a65726f206164647265604482015261737360f01b606482015260840161098d565b6001600160a01b03838116600081815260fc602090815260408083209487168084529482529182902085905590518481527f8c5be1e5ebec7d5bd14f71427d1e84f3dd0314c0f7b2291e5b200ac8c7c3b9259101610cb3565b6000821580611720575081155b1561172d57506000610759565b8161174560026b033b2e3c9fd0803ce8000000612ab2565b61175190600019612af3565b61175b9190612ab2565b83111561177a5760405162461bcd60e51b815260040161098d90612a57565b6b033b2e3c9fd0803ce8000000611792600282612ab2565b61179c8486612ad4565b6117a69190612a9a565b6109e59190612ab2565b6000806117c26002633b9aca00612ab2565b905060006117d08483612a9a565b9050818110156118225760405162461bcd60e51b815260206004820152601d60248201527f4572726f72732e4d4154485f4144444954494f4e5f4f564552464c4f57000000604482015260640161098d565b610f0d633b9aca0082612ab2565b6001600160a01b0383166118945760405162461bcd60e51b815260206004820152602560248201527f45524332303a207472616e736665722066726f6d20746865207a65726f206164604482015264647265737360d81b606482015260840161098d565b6001600160a01b0382166118f65760405162461bcd60e51b815260206004820152602360248201527f45524332303a207472616e7366657220746f20746865207a65726f206164647260448201526265737360e81b606482015260840161098d565b6001600160a01b038316600090815260fb60205260409020548181101561196e5760405162461bcd60e51b815260206004820152602660248201527f45524332303a207472616e7366657220616d6f756e7420657863656564732062604482015265616c616e636560d01b606482015260840161098d565b6001600160a01b03808516600090815260fb60205260408082208585039055918516815290812080548492906119a5908490612a9a565b909155506119b69050848484611f15565b50505050565b60006109e58383611f7d565b610b7f8133611fa7565b6119dc8282610fe6565b610a9e5760008281526065602090815260408083206001600160a01b03851684529091529020805460ff19166001179055611a143390565b6001600160a01b0316816001600160a01b0316837f2f8788117e7eff1d82e926ec794901d17c78024a50270940304540a733656f0d60405160405180910390a45050565b611a628282610fe6565b15610a9e5760008281526065602090815260408083206001600160a01b0385168085529252808320805460ff1916905551339285917ff6391f5c32d9c69d2a47ea670b442974b53935d1edc7fd64eb21e047a839171b9190a45050565b7f189ab7a9244df0848122154315af71fe140f3db0fe014031783b0946b8c9d2e3610a9e816119c8565b7f4910fdfa16fed3260ed0e7147f7cc6da11a60208b5b9406d12a635614ffd91435460ff1615611b1c57610a1f8361200b565b826001600160a01b03166352d1902d6040518163ffffffff1660e01b815260040160206040518083038186803b158015611b5557600080fd5b505afa925050508015611b85575060408051601f3d908101601f19168201909252611b82918101906127b6565b60015b611be85760405162461bcd60e51b815260206004820152602e60248201527f45524331393637557067726164653a206e657720696d706c656d656e7461746960448201526d6f6e206973206e6f74205555505360901b606482015260840161098d565b600080516020612c018339815191528114611c575760405162461bcd60e51b815260206004820152602960248201527f45524331393637557067726164653a20756e737570706f727465642070726f786044820152681a58589b195555525160ba1b606482015260840161098d565b50610a1f8383836120a7565b6001600160a01b038216611cb95760405162461bcd60e51b815260206004820152601f60248201527f45524332303a206d696e7420746f20746865207a65726f206164647265737300604482015260640161098d565b8060fd6000828254611ccb9190612a9a565b90915550506001600160a01b038216600090815260fb602052604081208054839290611cf8908490612a9a565b90915550610a9e905060008383611f15565b60008054610100900460ff1615611d51578160ff166001148015611d2d5750303b155b611d495760405162461bcd60e51b815260040161098d90612a09565b506000919050565b60005460ff808416911610611d785760405162461bcd60e51b815260040161098d90612a09565b506000805460ff191660ff92909216919091179055600190565b919050565b600054610100900460ff16611e025760405162461bcd60e51b815260206004820152602b60248201527f496e697469616c697a61626c653a20636f6e7472616374206973206e6f74206960448201526a6e697469616c697a696e6760a81b606482015260840161098d565b565b6001600160a01b038216611e645760405162461bcd60e51b815260206004820152602160248201527f45524332303a206275726e2066726f6d20746865207a65726f206164647265736044820152607360f81b606482015260840161098d565b6001600160a01b038216600090815260fb602052604090205481811015611ed85760405162461bcd60e51b815260206004820152602260248201527f45524332303a206275726e20616d6f756e7420657863656564732062616c616e604482015261636560f01b606482015260840161098d565b6001600160a01b038316600090815260fb60205260408120838303905560fd8054849290611f07908490612af3565b90915550610a1f9050836000845b6001600160a01b038316611f2f576119b6610105836120cc565b6001600160a01b038216611f5657611f4683610ed1565b610a1f576119b6610105846120e1565b611f5f83610ed1565b611f7157611f6f610105846120e1565b505b6119b6610105836120cc565b6000826000018281548110611f9457611f94612bb4565b9060005260206000200154905092915050565b611fb18282610fe6565b610a9e57611fc9816001600160a01b031660146120f6565b611fd48360206120f6565b604051602001611fe5929190612892565b60408051601f198184030181529082905262461bcd60e51b825261098d91600401612907565b6001600160a01b0381163b6120785760405162461bcd60e51b815260206004820152602d60248201527f455243313936373a206e657720696d706c656d656e746174696f6e206973206e60448201526c1bdd08184818dbdb9d1c9858dd609a1b606482015260840161098d565b600080516020612c0183398151915280546001600160a01b0319166001600160a01b0392909216919091179055565b6120b083612292565b6000825111806120bd5750805b15610a1f576119b683836122d2565b60006109e5836001600160a01b0384166123c6565b60006109e5836001600160a01b038416612415565b60606000612105836002612ad4565b612110906002612a9a565b67ffffffffffffffff81111561212857612128612bca565b6040519080825280601f01601f191660200182016040528015612152576020820181803683370190505b509050600360fc1b8160008151811061216d5761216d612bb4565b60200101906001600160f81b031916908160001a905350600f60fb1b8160018151811061219c5761219c612bb4565b60200101906001600160f81b031916908160001a90535060006121c0846002612ad4565b6121cb906001612a9a565b90505b6001811115612243576f181899199a1a9b1b9c1cb0b131b232b360811b85600f16601081106121ff576121ff612bb4565b1a60f81b82828151811061221557612215612bb4565b60200101906001600160f81b031916908160001a90535060049490941c9361223c81612b36565b90506121ce565b5083156109e55760405162461bcd60e51b815260206004820181905260248201527f537472696e67733a20686578206c656e67746820696e73756666696369656e74604482015260640161098d565b61229b8161200b565b6040516001600160a01b038216907fbc7cd75a20ee27fd9adebab32041f755214dbc6bffa90cc0225b39da2e5c2d3b90600090a250565b60606001600160a01b0383163b61233a5760405162461bcd60e51b815260206004820152602660248201527f416464726573733a2064656c65676174652063616c6c20746f206e6f6e2d636f6044820152651b9d1c9858dd60d21b606482015260840161098d565b600080846001600160a01b0316846040516123559190612876565b600060405180830381855af49150503d8060008114612390576040519150601f19603f3d011682016040523d82523d6000602084013e612395565b606091505b50915091506123bd8282604051806060016040528060278152602001612c2160279139612508565b95945050505050565b600081815260018301602052604081205461240d57508154600181810184556000848152602080822090930184905584548482528286019093526040902091909155610759565b506000610759565b600081815260018301602052604081205480156124fe576000612439600183612af3565b855490915060009061244d90600190612af3565b90508181146124b257600086600001828154811061246d5761246d612bb4565b906000526020600020015490508087600001848154811061249057612490612bb4565b6000918252602080832090910192909255918252600188019052604090208390555b85548690806124c3576124c3612b9e565b600190038181906000526020600020016000905590558560010160008681526020019081526020016000206000905560019350505050610759565b6000915050610759565b606083156125175750816109e5565b8251156125275782518084602001fd5b8160405162461bcd60e51b815260040161098d9190612907565b82805461254d90612b4d565b90600052602060002090601f01602090048101928261256f57600085556125b5565b82601f1061258857805160ff19168380011785556125b5565b828001600101855582156125b5579182015b828111156125b557825182559160200191906001019061259a565b506125c19291506125c5565b5090565b5b808211156125c157600081556001016125c6565b600067ffffffffffffffff808411156125f5576125f5612bca565b604051601f8501601f19908116603f0116810190828211818310171561261d5761261d612bca565b8160405280935085815286868601111561263657600080fd5b858560208301376000602087830101525050509392505050565b80356001600160a01b0381168114611d9257600080fd5b600082601f83011261267857600080fd5b6109e5838335602085016125da565b60006020828403121561269957600080fd5b6109e582612650565b600080604083850312156126b557600080fd5b6126be83612650565b91506126cc60208401612650565b90509250929050565b6000806000606084860312156126ea57600080fd5b6126f384612650565b925061270160208501612650565b9150604084013590509250925092565b6000806040838503121561272457600080fd5b61272d83612650565b9150602083013567ffffffffffffffff81111561274957600080fd5b8301601f8101851361275a57600080fd5b612769858235602084016125da565b9150509250929050565b6000806040838503121561278657600080fd5b61278f83612650565b946020939093013593505050565b6000602082840312156127af57600080fd5b5035919050565b6000602082840312156127c857600080fd5b5051919050565b600080604083850312156127e257600080fd5b823591506126cc60208401612650565b60006020828403121561280457600080fd5b81356001600160e01b0319811681146109e557600080fd5b6000806040838503121561282f57600080fd5b823567ffffffffffffffff8082111561284757600080fd5b61285386838701612667565b9350602085013591508082111561286957600080fd5b5061276985828601612667565b60008251612888818460208701612b0a565b9190910192915050565b7f416363657373436f6e74726f6c3a206163636f756e74200000000000000000008152600083516128ca816017850160208801612b0a565b7001034b99036b4b9b9b4b733903937b6329607d1b60179184019182015283516128fb816028840160208801612b0a565b01602801949350505050565b6020815260008251806020840152612926816040850160208701612b0a565b601f01601f19169190910160400192915050565b6020808252601b908201527f43616c6c6572206973206e6f74207468652045584348414e4745520000000000604082015260600190565b6020808252602c908201527f46756e6374696f6e206d7573742062652063616c6c6564207468726f7567682060408201526b19195b1959d85d1958d85b1b60a21b606082015260800190565b6020808252602c908201527f46756e6374696f6e206d7573742062652063616c6c6564207468726f7567682060408201526b6163746976652070726f787960a01b606082015260800190565b6020808252602e908201527f496e697469616c697a61626c653a20636f6e747261637420697320616c72656160408201526d191e481a5b9a5d1a585b1a5e995960921b606082015260800190565b60208082526023908201527f4572726f72732e4d4154485f4d554c5449504c49434154494f4e5f4f564552466040820152624c4f5760e81b606082015260800190565b60008219821115612aad57612aad612b88565b500190565b600082612acf57634e487b7160e01b600052601260045260246000fd5b500490565b6000816000190483118215151615612aee57612aee612b88565b500290565b600082821015612b0557612b05612b88565b500390565b60005b83811015612b25578181015183820152602001612b0d565b838111156119b65750506000910152565b600081612b4557612b45612b88565b506000190190565b600181811c90821680612b6157607f821691505b60208210811415612b8257634e487b7160e01b600052602260045260246000fd5b50919050565b634e487b7160e01b600052601160045260246000fd5b634e487b7160e01b600052603160045260246000fd5b634e487b7160e01b600052603260045260246000fd5b634e487b7160e01b600052604160045260246000fdfe3eb675f159e6ca6cf5de6bfbbc8c4521cfd428f5e9166e51094d5898504caf2d360894a13ba1a3210667c828492db98dca3e2076cc3735a920a3ca505d382bbc416464726573733a206c6f772d6c6576656c2064656c65676174652063616c6c206661696c6564ddf252ad1be2c89b69c2b068fc378daa952ba7f163c4a11628f55a4df523b3efa26469706673582212201bac78c198f27607b5c85d54e7f3ade23424de9278ddbf691269ca3d446166c264736f6c63430008060033496e697469616c697a61626c653a20636f6e747261637420697320616c726561",
  "devdoc": {
    "kind": "dev",
    "methods": {
      "allowance(address,address)": {
        "details": "See {IERC20-allowance}."
      },
      "approve(address,uint256)": {
        "details": "See {IERC20-approve}."
      },
      "balanceOf(address)": {
        "details": "Calculates the balance of the user: principal balance + interest generated by the principal",
        "params": {
          "user": "The user whose balance is calculated"
        },
        "returns": {
          "_0": "The balance of the user*"
        }
      },
      "constructor": {
        "custom:oz-upgrades-unsafe-allow": "constructor"
      },
      "decimals()": {
        "details": "Returns the number of decimals used to get its user representation. For example, if `decimals` equals `2`, a balance of `505` tokens should be displayed to a user as `5.05` (`505 / 10 ** 2`). Tokens usually opt for a value of 18, imitating the relationship between Ether and Wei. This is the value {ERC20} uses, unless this function is overridden; NOTE: This information is only used for _display_ purposes: it in no way affects any of the arithmetic of the contract, including {IERC20-balanceOf} and {IERC20-transfer}."
      },
      "decreaseAllowance(address,uint256)": {
        "details": "Atomically decreases the allowance granted to `spender` by the caller. This is an alternative to {approve} that can be used as a mitigation for problems described in {IERC20-approve}. Emits an {Approval} event indicating the updated allowance. Requirements: - `spender` cannot be the zero address. - `spender` must have allowance for the caller of at least `subtractedValue`."
      },
      "getRoleAdmin(bytes32)": {
        "details": "Returns the admin role that controls `role`. See {grantRole} and {revokeRole}. To change a role's admin, use {_setRoleAdmin}."
      },
      "grantRole(bytes32,address)": {
        "details": "Grants `role` to `account`. If `account` had not been already granted `role`, emits a {RoleGranted} event. Requirements: - the caller must have ``role``'s admin role."
      },
      "hasRole(bytes32,address)": {
        "details": "Returns `true` if `account` has been granted `role`."
      },
      "increaseAllowance(address,uint256)": {
        "details": "Atomically increases the allowance granted to `spender` by the caller. This is an alternative to {approve} that can be used as a mitigation for problems described in {IERC20-approve}. Emits an {Approval} event indicating the updated allowance. Requirements: - `spender` cannot be the zero address."
      },
      "name()": {
        "details": "Returns the name of the token."
      },
      "proxiableUUID()": {
        "details": "Implementation of the ERC1822 {proxiableUUID} function. This returns the storage slot used by the implementation. It is used to validate that the this implementation remains valid after an upgrade. IMPORTANT: A proxy pointing at a proxiable contract should not be considered proxiable itself, because this risks bricking a proxy that upgrades to it, by delegating to itself until out of gas. Thus it is critical that this function revert if invoked through a proxy. This is guaranteed by the `notDelegated` modifier."
      },
      "renounceRole(bytes32,address)": {
        "details": "Revokes `role` from the calling account. Roles are often managed via {grantRole} and {revokeRole}: this function's purpose is to provide a mechanism for accounts to lose their privileges if they are compromised (such as when a trusted device is misplaced). If the calling account had been revoked `role`, emits a {RoleRevoked} event. Requirements: - the caller must be `account`."
      },
      "revokeRole(bytes32,address)": {
        "details": "Revokes `role` from `account`. If `account` had been granted `role`, emits a {RoleRevoked} event. Requirements: - the caller must have ``role``'s admin role."
      },
      "scaledBalanceOf(address)": {
        "details": "Returns the scaled balance of the user. The scaled balance is the sum of all the updated stored balance divided by the reserve's liquidity index at the moment of the update",
        "params": {
          "user": "The user whose balance is calculated"
        },
        "returns": {
          "_0": "The scaled balance of the user*"
        }
      },
      "scaledTotalSupply()": {
        "details": "Returns the scaled total supply of the variable debt token",
        "returns": {
          "_0": "the scaled total supply*"
        }
      },
      "supportsInterface(bytes4)": {
        "details": "See {IERC165-supportsInterface}."
      },
      "symbol()": {
        "details": "Returns the symbol of the token, usually a shorter version of the name."
      },
      "totalSupply()": {
        "details": "calculates the total supply of the specific aToken since the balance of every single user increases over time, the total supply does that too.",
        "returns": {
          "_0": "the current total supply*"
        }
      },
      "transfer(address,uint256)": {
        "details": "See {IERC20-transfer}."
      },
      "upgradeTo(address)": {
        "details": "Upgrade the implementation of the proxy to `newImplementation`. Calls {_authorizeUpgrade}. Emits an {Upgraded} event."
      },
      "upgradeToAndCall(address,bytes)": {
        "details": "Upgrade the implementation of the proxy to `newImplementation`, and subsequently execute the function call encoded in `data`. Calls {_authorizeUpgrade}. Emits an {Upgraded} event."
      }
    },
    "version": 1
  },
  "userdoc": {
    "kind": "user",
    "methods": {},
    "version": 1
  },
  "storageLayout": {
    "storage": [
      {
        "astId": 808,
        "contract": "contracts/RebaseToken.sol:RebaseToken",
        "label": "_initialized",
        "offset": 0,
        "slot": "0",
        "type": "t_uint8"
      },
      {
        "astId": 811,
        "contract": "contracts/RebaseToken.sol:RebaseToken",
        "label": "_initializing",
        "offset": 1,
        "slot": "0",
        "type": "t_bool"
      },
      {
        "astId": 2188,
        "contract": "contracts/RebaseToken.sol:RebaseToken",
        "label": "__gap",
        "offset": 0,
        "slot": "1",
        "type": "t_array(t_uint256)50_storage"
      },
      {
        "astId": 2495,
        "contract": "contracts/RebaseToken.sol:RebaseToken",
        "label": "__gap",
        "offset": 0,
        "slot": "51",
        "type": "t_array(t_uint256)50_storage"
      },
      {
        "astId": 39,
        "contract": "contracts/RebaseToken.sol:RebaseToken",
        "label": "_roles",
        "offset": 0,
        "slot": "101",
        "type": "t_mapping(t_bytes32,t_struct(RoleData)34_storage)"
      },
      {
        "astId": 338,
        "contract": "contracts/RebaseToken.sol:RebaseToken",
        "label": "__gap",
        "offset": 0,
        "slot": "102",
        "type": "t_array(t_uint256)49_storage"
      },
      {
        "astId": 790,
        "contract": "contracts/RebaseToken.sol:RebaseToken",
        "label": "__gap",
        "offset": 0,
        "slot": "151",
        "type": "t_array(t_uint256)50_storage"
      },
      {
        "astId": 1078,
        "contract": "contracts/RebaseToken.sol:RebaseToken",
        "label": "__gap",
        "offset": 0,
        "slot": "201",
        "type": "t_array(t_uint256)50_storage"
      },
      {
        "astId": 7402,
        "contract": "contracts/RebaseToken.sol:RebaseToken",
        "label": "_balances",
        "offset": 0,
        "slot": "251",
        "type": "t_mapping(t_address,t_uint256)"
      },
      {
        "astId": 7408,
        "contract": "contracts/RebaseToken.sol:RebaseToken",
        "label": "_allowances",
        "offset": 0,
        "slot": "252",
        "type": "t_mapping(t_address,t_mapping(t_address,t_uint256))"
      },
      {
        "astId": 7410,
        "contract": "contracts/RebaseToken.sol:RebaseToken",
        "label": "_totalSupply",
        "offset": 0,
        "slot": "253",
        "type": "t_uint256"
      },
      {
        "astId": 7412,
        "contract": "contracts/RebaseToken.sol:RebaseToken",
        "label": "_name",
        "offset": 0,
        "slot": "254",
        "type": "t_string_storage"
      },
      {
        "astId": 7414,
        "contract": "contracts/RebaseToken.sol:RebaseToken",
        "label": "_symbol",
        "offset": 0,
        "slot": "255",
        "type": "t_string_storage"
      },
      {
        "astId": 7416,
        "contract": "contracts/RebaseToken.sol:RebaseToken",
        "label": "_totalMint",
        "offset": 0,
        "slot": "256",
        "type": "t_uint256"
      },
      {
        "astId": 7418,
        "contract": "contracts/RebaseToken.sol:RebaseToken",
        "label": "_totalBurn",
        "offset": 0,
        "slot": "257",
        "type": "t_uint256"
      },
      {
        "astId": 7420,
        "contract": "contracts/RebaseToken.sol:RebaseToken",
        "label": "liquidityIndexChangeTime",
        "offset": 0,
        "slot": "258",
        "type": "t_uint256"
      },
      {
        "astId": 7422,
        "contract": "contracts/RebaseToken.sol:RebaseToken",
        "label": "liquidityIndex",
        "offset": 0,
        "slot": "259",
        "type": "t_uint256"
      },
      {
        "astId": 7424,
        "contract": "contracts/RebaseToken.sol:RebaseToken",
        "label": "liquidityIndexDenominator",
        "offset": 0,
        "slot": "260",
        "type": "t_uint256"
      },
      {
        "astId": 7427,
        "contract": "contracts/RebaseToken.sol:RebaseToken",
        "label": "_owners",
        "offset": 0,
        "slot": "261",
        "type": "t_struct(AddressSet)2923_storage"
      },
      {
        "astId": 7429,
        "contract": "contracts/RebaseToken.sol:RebaseToken",
        "label": "exchange",
        "offset": 0,
        "slot": "263",
        "type": "t_address"
      }
    ],
    "types": {
      "t_address": {
        "encoding": "inplace",
        "label": "address",
        "numberOfBytes": "20"
      },
      "t_array(t_bytes32)dyn_storage": {
        "base": "t_bytes32",
        "encoding": "dynamic_array",
        "label": "bytes32[]",
        "numberOfBytes": "32"
      },
      "t_array(t_uint256)49_storage": {
        "base": "t_uint256",
        "encoding": "inplace",
        "label": "uint256[49]",
        "numberOfBytes": "1568"
      },
      "t_array(t_uint256)50_storage": {
        "base": "t_uint256",
        "encoding": "inplace",
        "label": "uint256[50]",
        "numberOfBytes": "1600"
      },
      "t_bool": {
        "encoding": "inplace",
        "label": "bool",
        "numberOfBytes": "1"
      },
      "t_bytes32": {
        "encoding": "inplace",
        "label": "bytes32",
        "numberOfBytes": "32"
      },
      "t_mapping(t_address,t_bool)": {
        "encoding": "mapping",
        "key": "t_address",
        "label": "mapping(address => bool)",
        "numberOfBytes": "32",
        "value": "t_bool"
      },
      "t_mapping(t_address,t_mapping(t_address,t_uint256))": {
        "encoding": "mapping",
        "key": "t_address",
        "label": "mapping(address => mapping(address => uint256))",
        "numberOfBytes": "32",
        "value": "t_mapping(t_address,t_uint256)"
      },
      "t_mapping(t_address,t_uint256)": {
        "encoding": "mapping",
        "key": "t_address",
        "label": "mapping(address => uint256)",
        "numberOfBytes": "32",
        "value": "t_uint256"
      },
      "t_mapping(t_bytes32,t_struct(RoleData)34_storage)": {
        "encoding": "mapping",
        "key": "t_bytes32",
        "label": "mapping(bytes32 => struct AccessControlUpgradeable.RoleData)",
        "numberOfBytes": "32",
        "value": "t_struct(RoleData)34_storage"
      },
      "t_mapping(t_bytes32,t_uint256)": {
        "encoding": "mapping",
        "key": "t_bytes32",
        "label": "mapping(bytes32 => uint256)",
        "numberOfBytes": "32",
        "value": "t_uint256"
      },
      "t_string_storage": {
        "encoding": "bytes",
        "label": "string",
        "numberOfBytes": "32"
      },
      "t_struct(AddressSet)2923_storage": {
        "encoding": "inplace",
        "label": "struct EnumerableSet.AddressSet",
        "members": [
          {
            "astId": 2922,
            "contract": "contracts/RebaseToken.sol:RebaseToken",
            "label": "_inner",
            "offset": 0,
            "slot": "0",
            "type": "t_struct(Set)2622_storage"
          }
        ],
        "numberOfBytes": "64"
      },
      "t_struct(RoleData)34_storage": {
        "encoding": "inplace",
        "label": "struct AccessControlUpgradeable.RoleData",
        "members": [
          {
            "astId": 31,
            "contract": "contracts/RebaseToken.sol:RebaseToken",
            "label": "members",
            "offset": 0,
            "slot": "0",
            "type": "t_mapping(t_address,t_bool)"
          },
          {
            "astId": 33,
            "contract": "contracts/RebaseToken.sol:RebaseToken",
            "label": "adminRole",
            "offset": 0,
            "slot": "1",
            "type": "t_bytes32"
          }
        ],
        "numberOfBytes": "64"
      },
      "t_struct(Set)2622_storage": {
        "encoding": "inplace",
        "label": "struct EnumerableSet.Set",
        "members": [
          {
            "astId": 2617,
            "contract": "contracts/RebaseToken.sol:RebaseToken",
            "label": "_values",
            "offset": 0,
            "slot": "0",
            "type": "t_array(t_bytes32)dyn_storage"
          },
          {
            "astId": 2621,
            "contract": "contracts/RebaseToken.sol:RebaseToken",
            "label": "_indexes",
            "offset": 0,
            "slot": "1",
            "type": "t_mapping(t_bytes32,t_uint256)"
          }
        ],
        "numberOfBytes": "64"
      },
      "t_uint256": {
        "encoding": "inplace",
        "label": "uint256",
        "numberOfBytes": "32"
      },
      "t_uint8": {
        "encoding": "inplace",
        "label": "uint8",
        "numberOfBytes": "1"
      }
    }
  }
}