{
  "address": "0x17063128e986d47C855dc54845B318bEE7d5bF4a",
  "abi": [
    {
      "inputs": [],
      "stateMutability": "nonpayable",
      "type": "constructor"
    },
    {
      "anonymous": false,
      "inputs": [
        {
          "indexed": false,
          "internalType": "address",
          "name": "previousAdmin",
          "type": "address"
        },
        {
          "indexed": false,
          "internalType": "address",
          "name": "newAdmin",
          "type": "address"
        }
      ],
      "name": "AdminChanged",
      "type": "event"
    },
    {
      "anonymous": false,
      "inputs": [
        {
          "indexed": true,
          "internalType": "address",
          "name": "beacon",
          "type": "address"
        }
      ],
      "name": "BeaconUpgraded",
      "type": "event"
    },
    {
      "anonymous": false,
      "inputs": [
        {
          "indexed": false,
          "internalType": "uint8",
          "name": "version",
          "type": "uint8"
        }
      ],
      "name": "Initialized",
      "type": "event"
    },
    {
      "anonymous": false,
      "inputs": [
        {
          "indexed": false,
          "internalType": "address",
          "name": "exchange",
          "type": "address"
        }
      ],
      "name": "MarketUpdatedParams",
      "type": "event"
    },
    {
      "anonymous": false,
      "inputs": [
        {
          "indexed": false,
          "internalType": "address",
          "name": "usdcToken",
          "type": "address"
        },
        {
          "indexed": false,
          "internalType": "address",
          "name": "usdPlusToken",
          "type": "address"
        },
        {
          "indexed": false,
          "internalType": "address",
          "name": "wrappedUsdPlusToken",
          "type": "address"
        }
      ],
      "name": "MarketUpdatedTokens",
      "type": "event"
    },
    {
      "anonymous": false,
      "inputs": [
        {
          "indexed": true,
          "internalType": "bytes32",
          "name": "role",
          "type": "bytes32"
        },
        {
          "indexed": true,
          "internalType": "bytes32",
          "name": "previousAdminRole",
          "type": "bytes32"
        },
        {
          "indexed": true,
          "internalType": "bytes32",
          "name": "newAdminRole",
          "type": "bytes32"
        }
      ],
      "name": "RoleAdminChanged",
      "type": "event"
    },
    {
      "anonymous": false,
      "inputs": [
        {
          "indexed": true,
          "internalType": "bytes32",
          "name": "role",
          "type": "bytes32"
        },
        {
          "indexed": true,
          "internalType": "address",
          "name": "account",
          "type": "address"
        },
        {
          "indexed": true,
          "internalType": "address",
          "name": "sender",
          "type": "address"
        }
      ],
      "name": "RoleGranted",
      "type": "event"
    },
    {
      "anonymous": false,
      "inputs": [
        {
          "indexed": true,
          "internalType": "bytes32",
          "name": "role",
          "type": "bytes32"
        },
        {
          "indexed": true,
          "internalType": "address",
          "name": "account",
          "type": "address"
        },
        {
          "indexed": true,
          "internalType": "address",
          "name": "sender",
          "type": "address"
        }
      ],
      "name": "RoleRevoked",
      "type": "event"
    },
    {
      "anonymous": false,
      "inputs": [
        {
          "indexed": false,
          "internalType": "address",
          "name": "asset",
          "type": "address"
        },
        {
          "indexed": false,
          "internalType": "uint256",
          "name": "amount",
          "type": "uint256"
        },
        {
          "indexed": false,
          "internalType": "address",
          "name": "receiver",
          "type": "address"
        },
        {
          "indexed": false,
          "internalType": "uint256",
          "name": "unwrappedUsdPlusAmount",
          "type": "uint256"
        }
      ],
      "name": "Unwrap",
      "type": "event"
    },
    {
      "anonymous": false,
      "inputs": [
        {
          "indexed": true,
          "internalType": "address",
          "name": "implementation",
          "type": "address"
        }
      ],
      "name": "Upgraded",
      "type": "event"
    },
    {
      "anonymous": false,
      "inputs": [
        {
          "indexed": false,
          "internalType": "address",
          "name": "asset",
          "type": "address"
        },
        {
          "indexed": false,
          "internalType": "uint256",
          "name": "amount",
          "type": "uint256"
        },
        {
          "indexed": false,
          "internalType": "address",
          "name": "receiver",
          "type": "address"
        },
        {
          "indexed": false,
          "internalType": "uint256",
          "name": "wrappedUsdPlusAmount",
          "type": "uint256"
        }
      ],
      "name": "Wrap",
      "type": "event"
    },
    {
      "inputs": [],
      "name": "DEFAULT_ADMIN_ROLE",
      "outputs": [
        {
          "internalType": "bytes32",
          "name": "",
          "type": "bytes32"
        }
      ],
      "stateMutability": "view",
      "type": "function"
    },
    {
      "inputs": [],
      "name": "exchange",
      "outputs": [
        {
          "internalType": "contract IExchange",
          "name": "",
          "type": "address"
        }
      ],
      "stateMutability": "view",
      "type": "function"
    },
    {
      "inputs": [
        {
          "internalType": "bytes32",
          "name": "role",
          "type": "bytes32"
        }
      ],
      "name": "getRoleAdmin",
      "outputs": [
        {
          "internalType": "bytes32",
          "name": "",
          "type": "bytes32"
        }
      ],
      "stateMutability": "view",
      "type": "function"
    },
    {
      "inputs": [
        {
          "internalType": "bytes32",
          "name": "role",
          "type": "bytes32"
        },
        {
          "internalType": "address",
          "name": "account",
          "type": "address"
        }
      ],
      "name": "grantRole",
      "outputs": [],
      "stateMutability": "nonpayable",
      "type": "function"
    },
    {
      "inputs": [
        {
          "internalType": "bytes32",
          "name": "role",
          "type": "bytes32"
        },
        {
          "internalType": "address",
          "name": "account",
          "type": "address"
        }
      ],
      "name": "hasRole",
      "outputs": [
        {
          "internalType": "bool",
          "name": "",
          "type": "bool"
        }
      ],
      "stateMutability": "view",
      "type": "function"
    },
    {
      "inputs": [],
      "name": "initialize",
      "outputs": [],
      "stateMutability": "nonpayable",
      "type": "function"
    },
    {
      "inputs": [
        {
          "internalType": "address",
          "name": "asset",
          "type": "address"
        },
        {
          "internalType": "uint256",
          "name": "amount",
          "type": "uint256"
        }
      ],
      "name": "previewUnwrap",
      "outputs": [
        {
          "internalType": "uint256",
          "name": "",
          "type": "uint256"
        }
      ],
      "stateMutability": "view",
      "type": "function"
    },
    {
      "inputs": [
        {
          "internalType": "address",
          "name": "asset",
          "type": "address"
        },
        {
          "internalType": "uint256",
          "name": "amount",
          "type": "uint256"
        }
      ],
      "name": "previewWrap",
      "outputs": [
        {
          "internalType": "uint256",
          "name": "",
          "type": "uint256"
        }
      ],
      "stateMutability": "view",
      "type": "function"
    },
    {
      "inputs": [],
      "name": "proxiableUUID",
      "outputs": [
        {
          "internalType": "bytes32",
          "name": "",
          "type": "bytes32"
        }
      ],
      "stateMutability": "view",
      "type": "function"
    },
    {
      "inputs": [
        {
          "internalType": "bytes32",
          "name": "role",
          "type": "bytes32"
        },
        {
          "internalType": "address",
          "name": "account",
          "type": "address"
        }
      ],
      "name": "renounceRole",
      "outputs": [],
      "stateMutability": "nonpayable",
      "type": "function"
    },
    {
      "inputs": [
        {
          "internalType": "bytes32",
          "name": "role",
          "type": "bytes32"
        },
        {
          "internalType": "address",
          "name": "account",
          "type": "address"
        }
      ],
      "name": "revokeRole",
      "outputs": [],
      "stateMutability": "nonpayable",
      "type": "function"
    },
    {
      "inputs": [
        {
          "internalType": "address",
          "name": "_exchange",
          "type": "address"
        }
      ],
      "name": "setParams",
      "outputs": [],
      "stateMutability": "nonpayable",
      "type": "function"
    },
    {
      "inputs": [
        {
          "internalType": "address",
          "name": "_usdcToken",
          "type": "address"
        },
        {
          "internalType": "address",
          "name": "_usdPlusToken",
          "type": "address"
        },
        {
          "internalType": "address",
          "name": "_wrappedUsdPlusToken",
          "type": "address"
        }
      ],
      "name": "setTokens",
      "outputs": [],
      "stateMutability": "nonpayable",
      "type": "function"
    },
    {
      "inputs": [
        {
          "internalType": "bytes4",
          "name": "interfaceId",
          "type": "bytes4"
        }
      ],
      "name": "supportsInterface",
      "outputs": [
        {
          "internalType": "bool",
          "name": "",
          "type": "bool"
        }
      ],
      "stateMutability": "view",
      "type": "function"
    },
    {
      "inputs": [
        {
          "internalType": "address",
          "name": "asset",
          "type": "address"
        },
        {
          "internalType": "uint256",
          "name": "amount",
          "type": "uint256"
        },
        {
          "internalType": "address",
          "name": "receiver",
          "type": "address"
        }
      ],
      "name": "unwrap",
      "outputs": [
        {
          "internalType": "uint256",
          "name": "",
          "type": "uint256"
        }
      ],
      "stateMutability": "nonpayable",
      "type": "function"
    },
    {
      "inputs": [
        {
          "internalType": "address",
          "name": "newImplementation",
          "type": "address"
        }
      ],
      "name": "upgradeTo",
      "outputs": [],
      "stateMutability": "nonpayable",
      "type": "function"
    },
    {
      "inputs": [
        {
          "internalType": "address",
          "name": "newImplementation",
          "type": "address"
        },
        {
          "internalType": "bytes",
          "name": "data",
          "type": "bytes"
        }
      ],
      "name": "upgradeToAndCall",
      "outputs": [],
      "stateMutability": "payable",
      "type": "function"
    },
    {
      "inputs": [],
      "name": "usdPlusToken",
      "outputs": [
        {
          "internalType": "contract IUsdPlusToken",
          "name": "",
          "type": "address"
        }
      ],
      "stateMutability": "view",
      "type": "function"
    },
    {
      "inputs": [],
      "name": "usdcToken",
      "outputs": [
        {
          "internalType": "contract IERC20",
          "name": "",
          "type": "address"
        }
      ],
      "stateMutability": "view",
      "type": "function"
    },
    {
      "inputs": [
        {
          "internalType": "address",
          "name": "asset",
          "type": "address"
        },
        {
          "internalType": "uint256",
          "name": "amount",
          "type": "uint256"
        },
        {
          "internalType": "address",
          "name": "receiver",
          "type": "address"
        }
      ],
      "name": "wrap",
      "outputs": [
        {
          "internalType": "uint256",
          "name": "",
          "type": "uint256"
        }
      ],
      "stateMutability": "nonpayable",
      "type": "function"
    },
    {
      "inputs": [],
      "name": "wrappedUsdPlusToken",
      "outputs": [
        {
          "internalType": "contract IWrappedUsdPlusToken",
          "name": "",
          "type": "address"
        }
      ],
      "stateMutability": "view",
      "type": "function"
    }
  ],
  "numDeployments": 1,
  "solcInputHash": "c48d1c6e515d748c7e7e8fa547a82564",
  "bytecode": "0x60a0604052306080523480156200001557600080fd5b50600054610100900460ff1615808015620000375750600054600160ff909116105b8062000067575062000054306200014160201b620018c21760201c565b15801562000067575060005460ff166001145b620000cf5760405162461bcd60e51b815260206004820152602e60248201527f496e697469616c697a61626c653a20636f6e747261637420697320616c72656160448201526d191e481a5b9a5d1a585b1a5e995960921b606482015260840160405180910390fd5b6000805460ff191660011790558015620000f3576000805461ff0019166101001790555b80156200013a576000805461ff0019169055604051600181527f7f26b83ff96e1f2b6a682f133852f6798a09c465da95921460cefb38474024989060200160405180910390a15b5062000150565b6001600160a01b03163b151590565b6080516126ab620001886000396000818161078c015281816107cc01528181610a1301528181610a530152610acb01526126ab6000f3fe60806040526004361061012a5760003560e01c80634f1ef286116100ab5780639a5bf2da1161006f5780639a5bf2da14610339578063a217fddf14610359578063b68f43451461036e578063d2f7265a1461038e578063d547741f146103ae578063d614dedf146103ce57600080fd5b80634f1ef286146102bc57806352d1902d146102cf5780635c15155e146102e45780638129fc1c1461030457806391d148541461031957600080fd5b80632f2ff15d116100f25780632f2ff15d1461021a57806336568abe1461023c5780633659cfe61461025c578063443be2091461027c5780634e49acac1461029c57600080fd5b80630110c4d81461012f57806301ffc9a71461016c57806311eac8551461019c578063248a9ca3146101bc5780632eba6021146101fa575b600080fd5b34801561013b57600080fd5b5060fd5461014f906001600160a01b031681565b6040516001600160a01b0390911681526020015b60405180910390f35b34801561017857600080fd5b5061018c61018736600461201b565b6103ee565b6040519015158152602001610163565b3480156101a857600080fd5b5060fb5461014f906001600160a01b031681565b3480156101c857600080fd5b506101ec6101d7366004612045565b60009081526065602052604090206001015490565b604051908152602001610163565b34801561020657600080fd5b506101ec61021536600461207a565b610425565b34801561022657600080fd5b5061023a6102353660046120a4565b6106da565b005b34801561024857600080fd5b5061023a6102573660046120a4565b610704565b34801561026857600080fd5b5061023a6102773660046120d0565b610782565b34801561028857600080fd5b5061023a6102973660046120eb565b61084a565b3480156102a857600080fd5b5061023a6102b73660046120d0565b610967565b61023a6102ca366004612144565b610a09565b3480156102db57600080fd5b506101ec610abe565b3480156102f057600080fd5b506101ec6102ff366004612206565b610b6c565b34801561031057600080fd5b5061023a61101d565b34801561032557600080fd5b5061018c6103343660046120a4565b611141565b34801561034557600080fd5b506101ec61035436600461207a565b61116c565b34801561036557600080fd5b506101ec600081565b34801561037a57600080fd5b506101ec610389366004612206565b61138f565b34801561039a57600080fd5b5060fe5461014f906001600160a01b031681565b3480156103ba57600080fd5b5061023a6103c93660046120a4565b61189d565b3480156103da57600080fd5b5060fc5461014f906001600160a01b031681565b60006001600160e01b03198216637965db0b60e01b148061041f57506301ffc9a760e01b6001600160e01b03198316145b92915050565b60006001600160a01b0383166104565760405162461bcd60e51b815260040161044d90612239565b60405180910390fd5b816000036104765760405162461bcd60e51b815260040161044d9061227b565b60fb546001600160a01b03908116908416036106155760fd5460405163266d6a8360e11b8152600481018490526000916001600160a01b031690634cdad50690602401602060405180830381865afa1580156104d6573d6000803e3d6000fd5b505050506040513d601f19601f820116820180604052508101906104fa91906122ac565b9050600060fe60009054906101000a90046001600160a01b03166001600160a01b031663c12e90e96040518163ffffffff1660e01b8152600401602060405180830381865afa158015610551573d6000803e3d6000fd5b505050506040513d601f19601f8201168201806040525081019061057591906122ac565b60fe60009054906101000a90046001600160a01b03166001600160a01b031663965fa21e6040518163ffffffff1660e01b8152600401602060405180830381865afa1580156105c8573d6000803e3d6000fd5b505050506040513d601f19601f820116820180604052508101906105ec91906122ac565b6105f690846122db565b61060091906122f2565b905061060c8183612314565b9250505061041f565b60fc546001600160a01b03908116908416036106a05760fd5460405163266d6a8360e11b8152600481018490526001600160a01b0390911690634cdad506906024015b602060405180830381865afa158015610675573d6000803e3d6000fd5b505050506040513d601f19601f8201168201806040525081019061069991906122ac565b905061041f565b60405162461bcd60e51b815260206004820152600f60248201526e105cdcd95d081b9bdd08199bdd5b99608a1b604482015260640161044d565b6000828152606560205260409020600101546106f5816118d1565b6106ff83836118db565b505050565b6001600160a01b03811633146107745760405162461bcd60e51b815260206004820152602f60248201527f416363657373436f6e74726f6c3a2063616e206f6e6c792072656e6f756e636560448201526e103937b632b9903337b91039b2b63360891b606482015260840161044d565b61077e8282611961565b5050565b6001600160a01b037f00000000000000000000000000000000000000000000000000000000000000001630036107ca5760405162461bcd60e51b815260040161044d90612327565b7f00000000000000000000000000000000000000000000000000000000000000006001600160a01b03166107fc6119c8565b6001600160a01b0316146108225760405162461bcd60e51b815260040161044d90612373565b61082b816119e4565b60408051600080825260208201909252610847918391906119ef565b50565b610855600033611141565b6108715760405162461bcd60e51b815260040161044d906123bf565b6001600160a01b0383166108975760405162461bcd60e51b815260040161044d906123ed565b6001600160a01b0382166108bd5760405162461bcd60e51b815260040161044d906123ed565b6001600160a01b0381166108e35760405162461bcd60e51b815260040161044d906123ed565b60fb80546001600160a01b038581166001600160a01b0319928316811790935560fc8054868316908416811790915560fd8054928616929093168217909255604080519384526020840192909252908201527fa472adc169d9e53a73157dedbd106a4d6b268066dd633d916dd767b5ab8782109060600160405180910390a1505050565b610972600033611141565b61098e5760405162461bcd60e51b815260040161044d906123bf565b6001600160a01b0381166109b45760405162461bcd60e51b815260040161044d906123ed565b60fe80546001600160a01b0319166001600160a01b0383169081179091556040519081527fffc77c5ea9b830a63821a682834d62a9a7930c32afa6c37bad32a0e1b8d974a8906020015b60405180910390a150565b6001600160a01b037f0000000000000000000000000000000000000000000000000000000000000000163003610a515760405162461bcd60e51b815260040161044d90612327565b7f00000000000000000000000000000000000000000000000000000000000000006001600160a01b0316610a836119c8565b6001600160a01b031614610aa95760405162461bcd60e51b815260040161044d90612373565b610ab2826119e4565b61077e828260016119ef565b6000306001600160a01b037f00000000000000000000000000000000000000000000000000000000000000001614610b595760405162461bcd60e51b815260206004820152603860248201527f555550535570677261646561626c653a206d757374206e6f742062652063616c6044820152771b1959081d1a1c9bdd59da0819195b1959d85d1958d85b1b60421b606482015260840161044d565b5060008051602061262f83398151915290565b60006001600160a01b038416610b945760405162461bcd60e51b815260040161044d90612239565b82600003610bb45760405162461bcd60e51b815260040161044d9061227b565b6001600160a01b038216610bda5760405162461bcd60e51b815260040161044d9061241f565b60fb546000906001600160a01b0390811690861603610e565760fb546040516323b872dd60e01b81526001600160a01b03909116906323b872dd90610c2790339030908990600401612464565b6020604051808303816000875af1158015610c46573d6000803e3d6000fd5b505050506040513d601f19601f82011682018060405250810190610c6a9190612488565b5060fb5460fe5460405163095ea7b360e01b81526001600160a01b039283169263095ea7b392610ca19291169088906004016124aa565b6020604051808303816000875af1158015610cc0573d6000803e3d6000fd5b505050506040513d601f19601f82011682018060405250810190610ce49190612488565b5060fe5460405163cce7ec1360e01b81526000916001600160a01b03169063cce7ec1390610d1890899089906004016124aa565b6020604051808303816000875af1158015610d37573d6000803e3d6000fd5b505050506040513d601f19601f82011682018060405250810190610d5b91906122ac565b60fc5460fd5460405163095ea7b360e01b81529293506001600160a01b039182169263095ea7b392610d9392169085906004016124aa565b6020604051808303816000875af1158015610db2573d6000803e3d6000fd5b505050506040513d601f19601f82011682018060405250810190610dd69190612488565b5060fd54604051636e553f6560e01b8152600481018390526001600160a01b03868116602483015290911690636e553f65906044016020604051808303816000875af1158015610e2a573d6000803e3d6000fd5b505050506040513d601f19601f82011682018060405250810190610e4e91906122ac565b915050610fd8565b60fc546001600160a01b03908116908616036106a05760fc546040516323b872dd60e01b81526001600160a01b03909116906323b872dd90610ea090339030908990600401612464565b6020604051808303816000875af1158015610ebf573d6000803e3d6000fd5b505050506040513d601f19601f82011682018060405250810190610ee39190612488565b5060fc5460fd5460405163095ea7b360e01b81526001600160a01b039283169263095ea7b392610f1a9291169088906004016124aa565b6020604051808303816000875af1158015610f39573d6000803e3d6000fd5b505050506040513d601f19601f82011682018060405250810190610f5d9190612488565b5060fd54604051636e553f6560e01b8152600481018690526001600160a01b03858116602483015290911690636e553f65906044016020604051808303816000875af1158015610fb1573d6000803e3d6000fd5b505050506040513d601f19601f82011682018060405250810190610fd591906122ac565b90505b7fdb9918e6f54663727eda47fc875748fb8691ebd19248060b18aefe3d46c55a528585858460405161100d94939291906124c3565b60405180910390a1949350505050565b600054610100900460ff161580801561103d5750600054600160ff909116105b8061105e575061104c306118c2565b15801561105e575060005460ff166001145b6110c15760405162461bcd60e51b815260206004820152602e60248201527f496e697469616c697a61626c653a20636f6e747261637420697320616c72656160448201526d191e481a5b9a5d1a585b1a5e995960921b606482015260840161044d565b6000805460ff1916600117905580156110e4576000805461ff0019166101001790555b6110ec611b5a565b6110f4611b5a565b6110ff6000336118db565b8015610847576000805461ff0019169055604051600181527f7f26b83ff96e1f2b6a682f133852f6798a09c465da95921460cefb3847402498906020016109fe565b60009182526065602090815260408084206001600160a01b0393909316845291905290205460ff1690565b60006001600160a01b0383166111945760405162461bcd60e51b815260040161044d90612239565b816000036111b45760405162461bcd60e51b815260040161044d9061227b565b60fb546001600160a01b03908116908416036113485760fe54604080516362f0989560e01b815290516000926001600160a01b0316916362f098959160048083019260209291908290030181865afa158015611214573d6000803e3d6000fd5b505050506040513d601f19601f8201168201806040525081019061123891906122ac565b60fe60009054906101000a90046001600160a01b03166001600160a01b031663470624026040518163ffffffff1660e01b8152600401602060405180830381865afa15801561128b573d6000803e3d6000fd5b505050506040513d601f19601f820116820180604052508101906112af91906122ac565b6112b990856122db565b6112c391906122f2565b60fd549091506001600160a01b031663ef8b30f76112e18386612314565b6040518263ffffffff1660e01b81526004016112ff91815260200190565b602060405180830381865afa15801561131c573d6000803e3d6000fd5b505050506040513d601f19601f8201168201806040525081019061134091906122ac565b91505061041f565b60fc546001600160a01b03908116908416036106a05760fd5460405163ef8b30f760e01b8152600481018490526001600160a01b039091169063ef8b30f790602401610658565b60006001600160a01b0384166113b75760405162461bcd60e51b815260040161044d90612239565b826000036113d75760405162461bcd60e51b815260040161044d9061227b565b6001600160a01b0382166113fd5760405162461bcd60e51b815260040161044d9061241f565b60fb546000906001600160a01b03908116908616036116ea5760fd546040516323b872dd60e01b81526001600160a01b03909116906323b872dd9061144a90339030908990600401612464565b6020604051808303816000875af1158015611469573d6000803e3d6000fd5b505050506040513d601f19601f8201168201806040525081019061148d9190612488565b5060fd5460405163095ea7b360e01b81526001600160a01b039091169063095ea7b3906114c090839088906004016124aa565b6020604051808303816000875af11580156114df573d6000803e3d6000fd5b505050506040513d601f19601f820116820180604052508101906115039190612488565b5060fd54604051635d043b2960e11b81526000916001600160a01b03169063ba08765290611539908890309081906004016124ed565b6020604051808303816000875af1158015611558573d6000803e3d6000fd5b505050506040513d601f19601f8201168201806040525081019061157c91906122ac565b60fc5460fe5460405163095ea7b360e01b81529293506001600160a01b039182169263095ea7b3926115b492169085906004016124aa565b6020604051808303816000875af11580156115d3573d6000803e3d6000fd5b505050506040513d601f19601f820116820180604052508101906115f79190612488565b5060fe546040516301e9a69560e41b81526001600160a01b0390911690631e9a69509061162a90899085906004016124aa565b6020604051808303816000875af1158015611649573d6000803e3d6000fd5b505050506040513d601f19601f8201168201806040525081019061166d91906122ac565b60fb5460405163a9059cbb60e01b81529193506001600160a01b03169063a9059cbb906116a090879086906004016124aa565b6020604051808303816000875af11580156116bf573d6000803e3d6000fd5b505050506040513d601f19601f820116820180604052508101906116e39190612488565b5050611868565b60fc546001600160a01b03908116908616036106a05760fd546040516323b872dd60e01b81526001600160a01b03909116906323b872dd9061173490339030908990600401612464565b6020604051808303816000875af1158015611753573d6000803e3d6000fd5b505050506040513d601f19601f820116820180604052508101906117779190612488565b5060fd5460405163095ea7b360e01b81526001600160a01b039091169063095ea7b3906117aa90839088906004016124aa565b6020604051808303816000875af11580156117c9573d6000803e3d6000fd5b505050506040513d601f19601f820116820180604052508101906117ed9190612488565b5060fd54604051635d043b2960e11b81526001600160a01b039091169063ba08765290611822908790879030906004016124ed565b6020604051808303816000875af1158015611841573d6000803e3d6000fd5b505050506040513d601f19601f8201168201806040525081019061186591906122ac565b90505b7f10cb633fc1dd54394de83417bf67e51b0b1389a4e078c9b76a7a6492c190cd3f8585858460405161100d94939291906124c3565b6000828152606560205260409020600101546118b8816118d1565b6106ff8383611961565b6001600160a01b03163b151590565b6108478133611bc7565b6118e58282611141565b61077e5760008281526065602090815260408083206001600160a01b03851684529091529020805460ff1916600117905561191d3390565b6001600160a01b0316816001600160a01b0316837f2f8788117e7eff1d82e926ec794901d17c78024a50270940304540a733656f0d60405160405180910390a45050565b61196b8282611141565b1561077e5760008281526065602090815260408083206001600160a01b0385168085529252808320805460ff1916905551339285917ff6391f5c32d9c69d2a47ea670b442974b53935d1edc7fd64eb21e047a839171b9190a45050565b60008051602061262f833981519152546001600160a01b031690565b600061077e816118d1565b7f4910fdfa16fed3260ed0e7147f7cc6da11a60208b5b9406d12a635614ffd91435460ff1615611a22576106ff83611c20565b826001600160a01b03166352d1902d6040518163ffffffff1660e01b8152600401602060405180830381865afa925050508015611a7c575060408051601f3d908101601f19168201909252611a79918101906122ac565b60015b611adf5760405162461bcd60e51b815260206004820152602e60248201527f45524331393637557067726164653a206e657720696d706c656d656e7461746960448201526d6f6e206973206e6f74205555505360901b606482015260840161044d565b60008051602061262f8339815191528114611b4e5760405162461bcd60e51b815260206004820152602960248201527f45524331393637557067726164653a20756e737570706f727465642070726f786044820152681a58589b195555525160ba1b606482015260840161044d565b506106ff838383611cba565b600054610100900460ff16611bc55760405162461bcd60e51b815260206004820152602b60248201527f496e697469616c697a61626c653a20636f6e7472616374206973206e6f74206960448201526a6e697469616c697a696e6760a81b606482015260840161044d565b565b611bd18282611141565b61077e57611bde81611ce5565b611be9836020611cf7565b604051602001611bfa929190612530565b60408051601f198184030181529082905262461bcd60e51b825261044d9160040161259f565b611c29816118c2565b611c8b5760405162461bcd60e51b815260206004820152602d60248201527f455243313936373a206e657720696d706c656d656e746174696f6e206973206e60448201526c1bdd08184818dbdb9d1c9858dd609a1b606482015260840161044d565b60008051602061262f83398151915280546001600160a01b0319166001600160a01b0392909216919091179055565b611cc383611e9a565b600082511180611cd05750805b156106ff57611cdf8383611eda565b50505050565b606061041f6001600160a01b03831660145b60606000611d068360026122db565b611d119060026125d2565b67ffffffffffffffff811115611d2957611d2961212e565b6040519080825280601f01601f191660200182016040528015611d53576020820181803683370190505b509050600360fc1b81600081518110611d6e57611d6e6125e5565b60200101906001600160f81b031916908160001a905350600f60fb1b81600181518110611d9d57611d9d6125e5565b60200101906001600160f81b031916908160001a9053506000611dc18460026122db565b611dcc9060016125d2565b90505b6001811115611e44576f181899199a1a9b1b9c1cb0b131b232b360811b85600f1660108110611e0057611e006125e5565b1a60f81b828281518110611e1657611e166125e5565b60200101906001600160f81b031916908160001a90535060049490941c93611e3d816125fb565b9050611dcf565b508315611e935760405162461bcd60e51b815260206004820181905260248201527f537472696e67733a20686578206c656e67746820696e73756666696369656e74604482015260640161044d565b9392505050565b611ea381611c20565b6040516001600160a01b038216907fbc7cd75a20ee27fd9adebab32041f755214dbc6bffa90cc0225b39da2e5c2d3b90600090a250565b6060611e93838360405180606001604052806027815260200161264f602791396060600080856001600160a01b031685604051611f179190612612565b600060405180830381855af49150503d8060008114611f52576040519150601f19603f3d011682016040523d82523d6000602084013e611f57565b606091505b5091509150611f6886838387611f72565b9695505050505050565b60608315611fdf578251600003611fd857611f8c856118c2565b611fd85760405162461bcd60e51b815260206004820152601d60248201527f416464726573733a2063616c6c20746f206e6f6e2d636f6e7472616374000000604482015260640161044d565b5081611fe9565b611fe98383611ff1565b949350505050565b8151156120015781518083602001fd5b8060405162461bcd60e51b815260040161044d919061259f565b60006020828403121561202d57600080fd5b81356001600160e01b031981168114611e9357600080fd5b60006020828403121561205757600080fd5b5035919050565b80356001600160a01b038116811461207557600080fd5b919050565b6000806040838503121561208d57600080fd5b6120968361205e565b946020939093013593505050565b600080604083850312156120b757600080fd5b823591506120c76020840161205e565b90509250929050565b6000602082840312156120e257600080fd5b611e938261205e565b60008060006060848603121561210057600080fd5b6121098461205e565b92506121176020850161205e565b91506121256040850161205e565b90509250925092565b634e487b7160e01b600052604160045260246000fd5b6000806040838503121561215757600080fd5b6121608361205e565b9150602083013567ffffffffffffffff8082111561217d57600080fd5b818501915085601f83011261219157600080fd5b8135818111156121a3576121a361212e565b604051601f8201601f19908116603f011681019083821181831017156121cb576121cb61212e565b816040528281528860208487010111156121e457600080fd5b8260208601602083013760006020848301015280955050505050509250929050565b60008060006060848603121561221b57600080fd5b6122248461205e565b9250602084013591506121256040850161205e565b60208082526022908201527f5a65726f206164647265737320666f72206173736574206e6f7420616c6c6f77604082015261195960f21b606082015260800190565b60208082526017908201527616995c9bc8185b5bdd5b9d081b9bdd08185b1b1bddd959604a1b604082015260600190565b6000602082840312156122be57600080fd5b5051919050565b634e487b7160e01b600052601160045260246000fd5b808202811582820484141761041f5761041f6122c5565b60008261230f57634e487b7160e01b600052601260045260246000fd5b500490565b8181038181111561041f5761041f6122c5565b6020808252602c908201527f46756e6374696f6e206d7573742062652063616c6c6564207468726f7567682060408201526b19195b1959d85d1958d85b1b60a21b606082015260800190565b6020808252602c908201527f46756e6374696f6e206d7573742062652063616c6c6564207468726f7567682060408201526b6163746976652070726f787960a01b606082015260800190565b6020808252601490820152735265737472696374656420746f2061646d696e7360601b604082015260600190565b60208082526018908201527716995c9bc81859191c995cdcc81b9bdd08185b1b1bddd95960421b604082015260600190565b60208082526025908201527f5a65726f206164647265737320666f72207265636569766572206e6f7420616c6040820152641b1bddd95960da1b606082015260800190565b6001600160a01b039384168152919092166020820152604081019190915260600190565b60006020828403121561249a57600080fd5b81518015158114611e9357600080fd5b6001600160a01b03929092168252602082015260400190565b6001600160a01b039485168152602081019390935292166040820152606081019190915260800190565b9283526001600160a01b03918216602084015216604082015260600190565b60005b8381101561252757818101518382015260200161250f565b50506000910152565b76020b1b1b2b9b9a1b7b73a3937b61d1030b1b1b7bab73a1604d1b81526000835161256281601785016020880161250c565b7001034b99036b4b9b9b4b733903937b6329607d1b601791840191820152835161259381602884016020880161250c565b01602801949350505050565b60208152600082518060208401526125be81604085016020870161250c565b601f01601f19169190910160400192915050565b8082018082111561041f5761041f6122c5565b634e487b7160e01b600052603260045260246000fd5b60008161260a5761260a6122c5565b506000190190565b6000825161262481846020870161250c565b919091019291505056fe360894a13ba1a3210667c828492db98dca3e2076cc3735a920a3ca505d382bbc416464726573733a206c6f772d6c6576656c2064656c65676174652063616c6c206661696c6564a2646970667358221220876a61c9f2978cb29e9c86ff904174e03131e406c51e668bb634f6f59083705764736f6c63430008110033",
  "implementation": "0x62660e6920E3377192B97806d9992019e81b1E0d",
  "devdoc": {
    "kind": "dev",
    "methods": {
      "constructor": {
        "custom:oz-upgrades-unsafe-allow": "constructor"
      },
      "getRoleAdmin(bytes32)": {
        "details": "Returns the admin role that controls `role`. See {grantRole} and {revokeRole}. To change a role's admin, use {_setRoleAdmin}."
      },
      "grantRole(bytes32,address)": {
        "details": "Grants `role` to `account`. If `account` had not been already granted `role`, emits a {RoleGranted} event. Requirements: - the caller must have ``role``'s admin role. May emit a {RoleGranted} event."
      },
      "hasRole(bytes32,address)": {
        "details": "Returns `true` if `account` has been granted `role`."
      },
      "previewUnwrap(address,uint256)": {
        "details": "preview unwrap `amount` of wUSD+ to `asset`. This is an estimate amount, real amount may vary. Requirements: - `asset` cannot be the zero address. - `amount` cannot be the zero."
      },
      "previewWrap(address,uint256)": {
        "details": "preview wrap `amount` of `asset` to wUSD+. This is an estimate amount, real amount may vary. Requirements: - `asset` cannot be the zero address. - `amount` cannot be the zero."
      },
      "proxiableUUID()": {
        "details": "Implementation of the ERC1822 {proxiableUUID} function. This returns the storage slot used by the implementation. It is used to validate the implementation's compatibility when performing an upgrade. IMPORTANT: A proxy pointing at a proxiable contract should not be considered proxiable itself, because this risks bricking a proxy that upgrades to it, by delegating to itself until out of gas. Thus it is critical that this function revert if invoked through a proxy. This is guaranteed by the `notDelegated` modifier."
      },
      "renounceRole(bytes32,address)": {
        "details": "Revokes `role` from the calling account. Roles are often managed via {grantRole} and {revokeRole}: this function's purpose is to provide a mechanism for accounts to lose their privileges if they are compromised (such as when a trusted device is misplaced). If the calling account had been revoked `role`, emits a {RoleRevoked} event. Requirements: - the caller must be `account`. May emit a {RoleRevoked} event."
      },
      "revokeRole(bytes32,address)": {
        "details": "Revokes `role` from `account`. If `account` had been granted `role`, emits a {RoleRevoked} event. Requirements: - the caller must have ``role``'s admin role. May emit a {RoleRevoked} event."
      },
      "supportsInterface(bytes4)": {
        "details": "See {IERC165-supportsInterface}."
      },
      "unwrap(address,uint256,address)": {
        "details": "Unwrap `amount` of wUSD+ from `msg.sender` to `asset` of `receiver`. Emits a {Unwrap} event. Requirements: - `asset` cannot be the zero address. - `amount` cannot be the zero. - `receiver` cannot be the zero address."
      },
      "upgradeTo(address)": {
        "custom:oz-upgrades-unsafe-allow-reachable": "delegatecall",
        "details": "Upgrade the implementation of the proxy to `newImplementation`. Calls {_authorizeUpgrade}. Emits an {Upgraded} event."
      },
      "upgradeToAndCall(address,bytes)": {
        "custom:oz-upgrades-unsafe-allow-reachable": "delegatecall",
        "details": "Upgrade the implementation of the proxy to `newImplementation`, and subsequently execute the function call encoded in `data`. Calls {_authorizeUpgrade}. Emits an {Upgraded} event."
      },
      "wrap(address,uint256,address)": {
        "details": "Wrap `amount` of `asset` from `msg.sender` to wUSD+ of `receiver`. Emits a {Wrap} event. Requirements: - `asset` cannot be the zero address. - `amount` cannot be the zero. - `receiver` cannot be the zero address."
      }
    },
    "version": 1
  },
  "userdoc": {
    "kind": "user",
    "methods": {},
    "version": 1
  },
  "storageLayout": {
    "storage": [
      {
        "astId": 915,
        "contract": "contracts/Market.sol:Market",
        "label": "_initialized",
        "offset": 0,
        "slot": "0",
        "type": "t_uint8"
      },
      {
        "astId": 918,
        "contract": "contracts/Market.sol:Market",
        "label": "_initializing",
        "offset": 1,
        "slot": "0",
        "type": "t_bool"
      },
      {
        "astId": 2807,
        "contract": "contracts/Market.sol:Market",
        "label": "__gap",
        "offset": 0,
        "slot": "1",
        "type": "t_array(t_uint256)50_storage"
      },
      {
        "astId": 3191,
        "contract": "contracts/Market.sol:Market",
        "label": "__gap",
        "offset": 0,
        "slot": "51",
        "type": "t_array(t_uint256)50_storage"
      },
      {
        "astId": 28,
        "contract": "contracts/Market.sol:Market",
        "label": "_roles",
        "offset": 0,
        "slot": "101",
        "type": "t_mapping(t_bytes32,t_struct(RoleData)23_storage)"
      },
      {
        "astId": 335,
        "contract": "contracts/Market.sol:Market",
        "label": "__gap",
        "offset": 0,
        "slot": "102",
        "type": "t_array(t_uint256)49_storage"
      },
      {
        "astId": 897,
        "contract": "contracts/Market.sol:Market",
        "label": "__gap",
        "offset": 0,
        "slot": "151",
        "type": "t_array(t_uint256)50_storage"
      },
      {
        "astId": 1213,
        "contract": "contracts/Market.sol:Market",
        "label": "__gap",
        "offset": 0,
        "slot": "201",
        "type": "t_array(t_uint256)50_storage"
      },
      {
        "astId": 36264,
        "contract": "contracts/Market.sol:Market",
        "label": "usdcToken",
        "offset": 0,
        "slot": "251",
        "type": "t_contract(IERC20)4730"
      },
      {
        "astId": 36267,
        "contract": "contracts/Market.sol:Market",
        "label": "usdPlusToken",
        "offset": 0,
        "slot": "252",
        "type": "t_contract(IUsdPlusToken)35583"
      },
      {
        "astId": 36270,
        "contract": "contracts/Market.sol:Market",
        "label": "wrappedUsdPlusToken",
        "offset": 0,
        "slot": "253",
        "type": "t_contract(IWrappedUsdPlusToken)39943"
      },
      {
        "astId": 36273,
        "contract": "contracts/Market.sol:Market",
        "label": "exchange",
        "offset": 0,
        "slot": "254",
        "type": "t_contract(IExchange)35283"
      }
    ],
    "types": {
      "t_address": {
        "encoding": "inplace",
        "label": "address",
        "numberOfBytes": "20"
      },
      "t_array(t_uint256)49_storage": {
        "base": "t_uint256",
        "encoding": "inplace",
        "label": "uint256[49]",
        "numberOfBytes": "1568"
      },
      "t_array(t_uint256)50_storage": {
        "base": "t_uint256",
        "encoding": "inplace",
        "label": "uint256[50]",
        "numberOfBytes": "1600"
      },
      "t_bool": {
        "encoding": "inplace",
        "label": "bool",
        "numberOfBytes": "1"
      },
      "t_bytes32": {
        "encoding": "inplace",
        "label": "bytes32",
        "numberOfBytes": "32"
      },
      "t_contract(IERC20)4730": {
        "encoding": "inplace",
        "label": "contract IERC20",
        "numberOfBytes": "20"
      },
      "t_contract(IExchange)35283": {
        "encoding": "inplace",
        "label": "contract IExchange",
        "numberOfBytes": "20"
      },
      "t_contract(IUsdPlusToken)35583": {
        "encoding": "inplace",
        "label": "contract IUsdPlusToken",
        "numberOfBytes": "20"
      },
      "t_contract(IWrappedUsdPlusToken)39943": {
        "encoding": "inplace",
        "label": "contract IWrappedUsdPlusToken",
        "numberOfBytes": "20"
      },
      "t_mapping(t_address,t_bool)": {
        "encoding": "mapping",
        "key": "t_address",
        "label": "mapping(address => bool)",
        "numberOfBytes": "32",
        "value": "t_bool"
      },
      "t_mapping(t_bytes32,t_struct(RoleData)23_storage)": {
        "encoding": "mapping",
        "key": "t_bytes32",
        "label": "mapping(bytes32 => struct AccessControlUpgradeable.RoleData)",
        "numberOfBytes": "32",
        "value": "t_struct(RoleData)23_storage"
      },
      "t_struct(RoleData)23_storage": {
        "encoding": "inplace",
        "label": "struct AccessControlUpgradeable.RoleData",
        "members": [
          {
            "astId": 20,
            "contract": "contracts/Market.sol:Market",
            "label": "members",
            "offset": 0,
            "slot": "0",
            "type": "t_mapping(t_address,t_bool)"
          },
          {
            "astId": 22,
            "contract": "contracts/Market.sol:Market",
            "label": "adminRole",
            "offset": 0,
            "slot": "1",
            "type": "t_bytes32"
          }
        ],
        "numberOfBytes": "64"
      },
      "t_uint256": {
        "encoding": "inplace",
        "label": "uint256",
        "numberOfBytes": "32"
      },
      "t_uint8": {
        "encoding": "inplace",
        "label": "uint8",
        "numberOfBytes": "1"
      }
    }
  }
}