{
  "address": "0xEBaBC76B822EA658059Fc63252C53547696ee333",
  "abi": [
    {
      "inputs": [
        {
          "internalType": "uint256",
          "name": "balance0",
          "type": "uint256"
        },
        {
          "internalType": "uint256",
          "name": "balance1",
          "type": "uint256"
        },
        {
          "internalType": "uint256",
          "name": "ratio0",
          "type": "uint256"
        },
        {
          "internalType": "uint256",
          "name": "ratio1",
          "type": "uint256"
        }
      ],
      "name": "SwapError",
      "type": "error"
    },
    {
      "inputs": [
        {
          "internalType": "address",
          "name": "pool",
          "type": "address"
        },
        {
          "internalType": "uint256",
          "name": "amountIn",
          "type": "uint256"
        },
        {
          "internalType": "uint160",
          "name": "sqrtPriceLimitX96",
          "type": "uint160"
        },
        {
          "internalType": "bool",
          "name": "zeroForOne",
          "type": "bool"
        },
        {
          "internalType": "int24[]",
          "name": "tickRange",
          "type": "int24[]"
        }
      ],
      "name": "simulateSwap",
      "outputs": [],
      "stateMutability": "nonpayable",
      "type": "function"
    },
    {
      "inputs": [
        {
          "internalType": "address",
          "name": "pair",
          "type": "address"
        },
        {
          "internalType": "uint256",
          "name": "amountIn",
          "type": "uint256"
        },
        {
          "internalType": "uint160",
          "name": "sqrtPriceLimitX96",
          "type": "uint160"
        },
        {
          "internalType": "bool",
          "name": "zeroForOne",
          "type": "bool"
        }
      ],
      "name": "swap",
      "outputs": [],
      "stateMutability": "nonpayable",
      "type": "function"
    },
    {
      "inputs": [
        {
          "internalType": "int256",
          "name": "amount0Delta",
          "type": "int256"
        },
        {
          "internalType": "int256",
          "name": "amount1Delta",
          "type": "int256"
        },
        {
          "internalType": "bytes",
          "name": "_data",
          "type": "bytes"
        }
      ],
      "name": "uniswapV3SwapCallback",
      "outputs": [],
      "stateMutability": "nonpayable",
      "type": "function"
    }
  ],
  "transactionHash": "0x80201f88875260562faddcaf1d7b1210191e92b37302d79cf35f51d121591f9a",
  "args": [],
  "numDeployments": 7,
  "solcInputHash": "a4a6b74513018218737da30d5551e561",
  "bytecode": "0x608060405234801561001057600080fd5b50610fba806100206000396000f3fe608060405234801561001057600080fd5b50600436106100415760003560e01c806379bf8c2d14610046578063e25d44d11461005b578063fa461e331461006e575b600080fd5b610059610054366004610ac2565b610081565b005b610059610069366004610bb8565b610352565b61005961007c366004610c0b565b6105fd565b3033146100a95760405162461bcd60e51b81526004016100a090610c8b565b60405180910390fd5b83600081116100ca5760405162461bcd60e51b81526004016100a090610cba565b60405163ca4f280360e01b815230906000908190839063ca4f2803906100f4908c90600401610cea565b6040805180830381865afa158015610110573d6000803e3d6000fd5b505050506040513d601f19601f820116820180604052508101906101349190610cfe565b9150915061014489898989610352565b60408051600280825260608201835260009260208301908036833750506040516328ee6e4d60e11b8152919250506001600160a01b038516906351dcdc9a90610193908d908a90600401610d38565b6040805180830381865afa1580156101af573d6000803e3d6000fd5b505050506040513d601f19601f820116820180604052508101906101d39190610d91565b826000815181106101e6576101e6610db5565b602002602001018360018151811061020057610200610db5565b6020908102919091010191909152526040516370a0823160e01b81526001600160a01b038416906370a082319061023b903090600401610cea565b602060405180830381865afa158015610258573d6000803e3d6000fd5b505050506040513d601f19601f8201168201806040525081019061027c9190610dcb565b6040516370a0823160e01b81526001600160a01b038416906370a08231906102a8903090600401610cea565b602060405180830381865afa1580156102c5573d6000803e3d6000fd5b505050506040513d601f19601f820116820180604052508101906102e99190610dcb565b826000815181106102fc576102fc610db5565b60200260200101518360018151811061031757610317610db5565b602002602001015160405163a0ad33dd60e01b81526004016100a0949392919093845260208401929092526040830152606082015260800190565b3033146103715760405162461bcd60e51b81526004016100a090610c8b565b82600081116103925760405162461bcd60e51b81526004016100a090610cba565b600085905060006040518060600160405280836001600160a01b0316630dfe16816040518163ffffffff1660e01b8152600401602060405180830381865afa1580156103e2573d6000803e3d6000fd5b505050506040513d601f19601f820116820180604052508101906104069190610de4565b6001600160a01b03168152602001836001600160a01b031663d21220a76040518163ffffffff1660e01b8152600401602060405180830381865afa158015610452573d6000803e3d6000fd5b505050506040513d601f19601f820116820180604052508101906104769190610de4565b6001600160a01b03168152602001836001600160a01b031663d0c93a7c6040518163ffffffff1660e01b8152600401602060405180830381865afa1580156104c2573d6000803e3d6000fd5b505050506040513d601f19601f820116820180604052508101906104e69190610e01565b60020b8152509050816001600160a01b031663128acb08308689896001600160a01b03166000146105175789610550565b886105405761053b600173fffd8963efd1fc6a506488495d951d5263988d26610e34565b610550565b6105506401000276a36001610e5b565b6040805188516001600160a01b039081166020808401919091528a015116818301529088015160020b60608201526080016040516020818303038152906040526040518663ffffffff1660e01b81526004016105b0959493929190610e7b565b60408051808303816000875af11580156105ce573d6000803e3d6000fd5b505050506040513d601f19601f820116820180604052508101906105f29190610d91565b505050505050505050565b600061060b82840184610ef5565b905060007f515bff1426cf6c4fb5ebb9b3e24eeca6b61f1bf3996e6c15108dda282fa29a4360010160009054906101000a90046001600160a01b03166001600160a01b031663c45a01556040518163ffffffff1660e01b8152600401602060405180830381865afa158015610684573d6000803e3d6000fd5b505050506040513d601f19601f820116820180604052508101906106a89190610de4565b90506106c281836000015184602001518560400151610815565b50600080600088136106f15783600001516001600160a01b031684602001516001600160a01b03161087610710565b83602001516001600160a01b031684600001516001600160a01b031610885b91509150811561079457835160405163a9059cbb60e01b8152336004820152602481018390526001600160a01b039091169063a9059cbb906044016020604051808303816000875af115801561076a573d6000803e3d6000fd5b505050506040513d601f19601f8201168201806040525081019061078e9190610f67565b5061080b565b602084015160405163a9059cbb60e01b8152336004820152602481018390526001600160a01b039091169063a9059cbb906044016020604051808303816000875af11580156107e7573d6000803e3d6000fd5b505050506040513d601f19601f820116820180604052508101906105f29190610f67565b5050505050505050565b600061082b85610826868686610834565b61089d565b95945050505050565b6040805160608101825260008082526020820181905291810191909152826001600160a01b0316846001600160a01b0316111561086f579192915b50604080516060810182526001600160a01b03948516815292909316602083015260020b9181019190915290565b60006108a98383610902565b9050336001600160a01b038216146108fc5760405162461bcd60e51b81526020600482015260166024820152751cddd85c081d985b1a59185d1a5bdb8819985a5b195960521b60448201526064016100a0565b92915050565b600081602001516001600160a01b031682600001516001600160a01b03161061092a57600080fd5b610a3f836001600160a01b031663cefa77996040518163ffffffff1660e01b8152600401602060405180830381865afa15801561096b573d6000803e3d6000fd5b505050506040513d601f19601f8201168201806040525081019061098f9190610de4565b835160208086015160408088015190516109cc9493016001600160a01b03938416815291909216602082015260029190910b604082015260600190565b604051602081830303815290604052805190602001208560405160388101919091526f5af43d82803e903d91602b57fd5bf3ff60248201526014810192909252733d602d80600a3d3981f3363d3d373d3d3d363d73825260588201526037600c8201206078820152605560439091012090565b9392505050565b6001600160a01b0381168114610a5b57600080fd5b50565b8015158114610a5b57600080fd5b634e487b7160e01b600052604160045260246000fd5b604051601f8201601f1916810167ffffffffffffffff81118282101715610aab57610aab610a6c565b604052919050565b8060020b8114610a5b57600080fd5b600080600080600060a08688031215610ada57600080fd5b8535610ae581610a46565b945060208681013594506040870135610afd81610a46565b93506060870135610b0d81610a5e565b9250608087013567ffffffffffffffff80821115610b2a57600080fd5b818901915089601f830112610b3e57600080fd5b813581811115610b5057610b50610a6c565b8060051b9150610b61848301610a82565b818152918301840191848101908c841115610b7b57600080fd5b938501935b83851015610ba55784359250610b9583610ab3565b8282529385019390850190610b80565b8096505050505050509295509295909350565b60008060008060808587031215610bce57600080fd5b8435610bd981610a46565b9350602085013592506040850135610bf081610a46565b91506060850135610c0081610a5e565b939692955090935050565b60008060008060608587031215610c2157600080fd5b8435935060208501359250604085013567ffffffffffffffff80821115610c4757600080fd5b818701915087601f830112610c5b57600080fd5b813581811115610c6a57600080fd5b886020828501011115610c7c57600080fd5b95989497505060200194505050565b60208082526015908201527414995cdd1c9a58dd1959081d1bc8111a585b5bdb99605a1b604082015260600190565b602080825260169082015275416d6f756e7420746f2073776170206973207a65726f60501b604082015260600190565b6001600160a01b0391909116815260200190565b60008060408385031215610d1157600080fd5b8251610d1c81610a46565b6020840151909250610d2d81610a46565b809150509250929050565b6001600160a01b038316815260406020808301829052835191830182905260009184820191906060850190845b81811015610d8457845160020b83529383019391830191600101610d65565b5090979650505050505050565b60008060408385031215610da457600080fd5b505080516020909101519092909150565b634e487b7160e01b600052603260045260246000fd5b600060208284031215610ddd57600080fd5b5051919050565b600060208284031215610df657600080fd5b8151610a3f81610a46565b600060208284031215610e1357600080fd5b8151610a3f81610ab3565b634e487b7160e01b600052601160045260246000fd5b6001600160a01b03828116828216039080821115610e5457610e54610e1e565b5092915050565b6001600160a01b03818116838216019080821115610e5457610e54610e1e565b600060018060a01b038088168352602087151581850152866040850152818616606085015260a06080850152845191508160a085015260005b82811015610ed05785810182015185820160c001528101610eb4565b5050600060c0828501015260c0601f19601f8301168401019150509695505050505050565b600060608284031215610f0757600080fd5b6040516060810181811067ffffffffffffffff82111715610f2a57610f2a610a6c565b6040528235610f3881610a46565b81526020830135610f4881610a46565b60208201526040830135610f5b81610ab3565b60408201529392505050565b600060208284031215610f7957600080fd5b8151610a3f81610a5e56fea26469706673582212209bbde76e28eebc4ba91fad4be6df102135b860f7ec967efc628d181ee24b440964736f6c63430008110033",
  "devdoc": {
    "errors": {
      "SwapError(uint256,uint256,uint256,uint256)": [
        {
          "params": {
            "balance0": "The balance of token0 after the swap",
            "balance1": "The balance of token1 after the swap",
            "ratio0": "The ratio of token0 in the pool after the swap",
            "ratio1": "The ratio of token1 in the pool after the swap"
          }
        }
      ]
    },
    "kind": "dev",
    "methods": {
      "swap(address,uint256,uint160,bool)": {
        "params": {
          "amountIn": "The amount of tokens to swap",
          "pair": "The address of the token pool",
          "sqrtPriceLimitX96": "The price limit for the swap",
          "zeroForOne": "True if swapping token0 for token1, false otherwise"
        }
      }
    },
    "version": 1
  },
  "userdoc": {
    "errors": {
      "SwapError(uint256,uint256,uint256,uint256)": [
        {
          "notice": "Error containing information about a swap (for a simulation)"
        }
      ]
    },
    "kind": "user",
    "methods": {
      "swap(address,uint256,uint160,bool)": {
        "notice": "Executes a swap operation"
      }
    },
    "version": 1
  },
  "storageLayout": {
    "storage": [],
    "types": null
  }
}