{
  "address": "0x84819D6B98F16de1F5AC15d55488C25C950b05C0",
  "abi": [
    {
      "inputs": [
        {
          "internalType": "uint160",
          "name": "sqrtRatioX96",
          "type": "uint160"
        },
        {
          "internalType": "uint160",
          "name": "sqrtRatioAX96",
          "type": "uint160"
        },
        {
          "internalType": "uint160",
          "name": "sqrtRatioBX96",
          "type": "uint160"
        },
        {
          "internalType": "uint128",
          "name": "liquidity",
          "type": "uint128"
        }
      ],
      "name": "getAmountsForLiquidity",
      "outputs": [
        {
          "internalType": "uint256",
          "name": "",
          "type": "uint256"
        },
        {
          "internalType": "uint256",
          "name": "",
          "type": "uint256"
        }
      ],
      "stateMutability": "view",
      "type": "function"
    },
    {
      "inputs": [
        {
          "internalType": "uint160",
          "name": "sqrtRatioX96",
          "type": "uint160"
        },
        {
          "internalType": "uint160",
          "name": "sqrtRatioAX96",
          "type": "uint160"
        },
        {
          "internalType": "uint160",
          "name": "sqrtRatioBX96",
          "type": "uint160"
        },
        {
          "internalType": "uint256",
          "name": "amount0",
          "type": "uint256"
        },
        {
          "internalType": "uint256",
          "name": "amount1",
          "type": "uint256"
        }
      ],
      "name": "getLiquidityForAmounts",
      "outputs": [
        {
          "internalType": "uint128",
          "name": "",
          "type": "uint128"
        }
      ],
      "stateMutability": "view",
      "type": "function"
    },
    {
      "inputs": [
        {
          "internalType": "address",
          "name": "pair",
          "type": "address"
        }
      ],
      "name": "getPoolDecimals",
      "outputs": [
        {
          "internalType": "uint256",
          "name": "",
          "type": "uint256"
        },
        {
          "internalType": "uint256",
          "name": "",
          "type": "uint256"
        }
      ],
      "stateMutability": "view",
      "type": "function"
    },
    {
      "inputs": [
        {
          "internalType": "address",
          "name": "pair",
          "type": "address"
        }
      ],
      "name": "getPoolSqrtRatioX96",
      "outputs": [
        {
          "internalType": "uint160",
          "name": "sqrtRatioX96",
          "type": "uint160"
        }
      ],
      "stateMutability": "view",
      "type": "function"
    },
    {
      "inputs": [
        {
          "internalType": "address",
          "name": "pair",
          "type": "address"
        }
      ],
      "name": "getPoolTick",
      "outputs": [
        {
          "internalType": "int24",
          "name": "tick",
          "type": "int24"
        }
      ],
      "stateMutability": "view",
      "type": "function"
    },
    {
      "inputs": [
        {
          "internalType": "address",
          "name": "pair",
          "type": "address"
        }
      ],
      "name": "getPoolTickSpacing",
      "outputs": [
        {
          "internalType": "int24",
          "name": "",
          "type": "int24"
        }
      ],
      "stateMutability": "view",
      "type": "function"
    },
    {
      "inputs": [
        {
          "internalType": "address",
          "name": "pair",
          "type": "address"
        }
      ],
      "name": "getPoolTokens",
      "outputs": [
        {
          "internalType": "address",
          "name": "",
          "type": "address"
        },
        {
          "internalType": "address",
          "name": "",
          "type": "address"
        }
      ],
      "stateMutability": "view",
      "type": "function"
    },
    {
      "inputs": [
        {
          "internalType": "int24",
          "name": "tick",
          "type": "int24"
        }
      ],
      "name": "getSqrtRatioAtTick",
      "outputs": [
        {
          "internalType": "uint160",
          "name": "",
          "type": "uint160"
        }
      ],
      "stateMutability": "view",
      "type": "function"
    },
    {
      "inputs": [
        {
          "internalType": "uint160",
          "name": "sqrtPriceX96",
          "type": "uint160"
        }
      ],
      "name": "getTickAtSqrtRatio",
      "outputs": [
        {
          "internalType": "int24",
          "name": "",
          "type": "int24"
        }
      ],
      "stateMutability": "view",
      "type": "function"
    },
    {
      "inputs": [
        {
          "internalType": "address",
          "name": "pair",
          "type": "address"
        },
        {
          "internalType": "int24",
          "name": "tickRange0",
          "type": "int24"
        },
        {
          "internalType": "int24",
          "name": "tickRange1",
          "type": "int24"
        },
        {
          "internalType": "uint256",
          "name": "amountOut0",
          "type": "uint256"
        },
        {
          "internalType": "uint256",
          "name": "amountOut1",
          "type": "uint256"
        }
      ],
      "name": "mintPosition",
      "outputs": [
        {
          "internalType": "uint256",
          "name": "tokenId",
          "type": "uint256"
        }
      ],
      "stateMutability": "nonpayable",
      "type": "function"
    },
    {
      "inputs": [
        {
          "internalType": "uint256",
          "name": "a",
          "type": "uint256"
        },
        {
          "internalType": "uint256",
          "name": "b",
          "type": "uint256"
        },
        {
          "internalType": "uint256",
          "name": "denominator",
          "type": "uint256"
        }
      ],
      "name": "mulDiv",
      "outputs": [
        {
          "internalType": "uint256",
          "name": "",
          "type": "uint256"
        }
      ],
      "stateMutability": "view",
      "type": "function"
    },
    {
      "inputs": [
        {
          "internalType": "uint256",
          "name": "y",
          "type": "uint256"
        }
      ],
      "name": "toUint160",
      "outputs": [
        {
          "internalType": "uint160",
          "name": "",
          "type": "uint160"
        }
      ],
      "stateMutability": "view",
      "type": "function"
    }
  ],
  "transactionHash": "0x96d6a9c6ef3537e547141ee509c0da4cd170525a9218409cf795b63f4b779b2c",
  "args": [],
  "numDeployments": 1,
  "solcInputHash": "5bba150108a90b1535a0e64b77b7756a",
  "bytecode": "0x608060405234801561001057600080fd5b50611b3f806100206000396000f3fe608060405234801561001057600080fd5b50600436106100b45760003560e01c8063c1cd258111610071578063c1cd258114610181578063c72e160b14610194578063ca4f2803146101bc578063d620e6fb146101ef578063d79357fb14610202578063dfef6beb1461021557600080fd5b806307f70777146100b95780634f76c058146100e45780635730ba08146100f75780636098fd4a14610122578063986cfba31461014d578063aa9a091214610160575b600080fd5b6100cc6100c73660046115e8565b610228565b60405160029190910b81526020015b60405180910390f35b6100cc6100f23660046115e8565b6102d0565b61010a6101053660046115e8565b61030e565b6040516001600160a01b0390911681526020016100db565b610135610130366004611605565b6103b1565b6040516001600160801b0390911681526020016100db565b61010a61015b36600461166f565b6103ff565b61017361016e36600461168c565b61043d565b6040519081526020016100db565b6100cc61018f3660046115e8565b610487565b6101a76101a23660046116cd565b61052a565b604080519283526020830191909152016100db565b6101cf6101ca3660046115e8565b61057a565b604080516001600160a01b039384168152929091166020830152016100db565b6101736101fd366004611729565b610683565b6101a76102103660046115e8565b61090f565b61010a61022336600461176c565b610ae0565b600033610233610b1e565b600301546001600160a01b0316146102665760405162461bcd60e51b815260040161025d90611785565b60405180910390fd5b816001600160a01b031663d0c93a7c6040518163ffffffff1660e01b8152600401602060405180830381865afa1580156102a4573d6000803e3d6000fd5b505050506040513d601f19601f820116820180604052508101906102c891906117b4565b90505b919050565b6000336102db610b1e565b600301546001600160a01b0316146103055760405162461bcd60e51b815260040161025d90611785565b6102c882610b42565b600033610319610b1e565b600301546001600160a01b0316146103435760405162461bcd60e51b815260040161025d90611785565b816001600160a01b0316633850c7bd6040518163ffffffff1660e01b815260040160c060405180830381865afa158015610381573d6000803e3d6000fd5b505050506040513d601f19601f820116820180604052508101906103a591906117e3565b50939695505050505050565b6000336103bc610b1e565b600301546001600160a01b0316146103e65760405162461bcd60e51b815260040161025d90611785565b6103f38686868686610e7c565b90505b95945050505050565b60003361040a610b1e565b600301546001600160a01b0316146104345760405162461bcd60e51b815260040161025d90611785565b6102c882610f34565b600033610448610b1e565b600301546001600160a01b0316146104725760405162461bcd60e51b815260040161025d90611785565b61047d848484611307565b90505b9392505050565b600033610492610b1e565b600301546001600160a01b0316146104bc5760405162461bcd60e51b815260040161025d90611785565b816001600160a01b0316633850c7bd6040518163ffffffff1660e01b815260040160c060405180830381865afa1580156104fa573d6000803e3d6000fd5b505050506040513d601f19601f8201168201806040525081019061051e91906117e3565b50929695505050505050565b60008033610536610b1e565b600301546001600160a01b0316146105605760405162461bcd60e51b815260040161025d90611785565b61056c868686866113b5565b915091505b94509492505050565b60008033610586610b1e565b600301546001600160a01b0316146105b05760405162461bcd60e51b815260040161025d90611785565b6000839050806001600160a01b0316630dfe16816040518163ffffffff1660e01b8152600401602060405180830381865afa1580156105f3573d6000803e3d6000fd5b505050506040513d601f19601f820116820180604052508101906106179190611865565b816001600160a01b031663d21220a76040518163ffffffff1660e01b8152600401602060405180830381865afa158015610655573d6000803e3d6000fd5b505050506040513d601f19601f820116820180604052508101906106799190611865565b9250925050915091565b60003361068e610b1e565b600301546001600160a01b0316146106b85760405162461bcd60e51b815260040161025d90611785565b60006106c2610b1e565b60010160009054906101000a90046001600160a01b0316905060008790506000816001600160a01b0316630dfe16816040518163ffffffff1660e01b8152600401602060405180830381865afa158015610720573d6000803e3d6000fd5b505050506040513d601f19601f820116820180604052508101906107449190611865565b90506000826001600160a01b031663d21220a76040518163ffffffff1660e01b8152600401602060405180830381865afa158015610786573d6000803e3d6000fd5b505050506040513d601f19601f820116820180604052508101906107aa9190611865565b9050836001600160a01b031663b5007d1f604051806101800160405280856001600160a01b03168152602001846001600160a01b03168152602001866001600160a01b031663d0c93a7c6040518163ffffffff1660e01b8152600401602060405180830381865afa158015610823573d6000803e3d6000fd5b505050506040513d601f19601f8201168201806040525081019061084791906117b4565b60020b81526020018c60020b81526020018b60020b81526020018a81526020018981526020016000815260200160008152602001336001600160a01b0316815260200142815260200160006001600160a01b03168152506040518263ffffffff1660e01b81526004016108ba9190611882565b6080604051808303816000875af11580156108d9573d6000803e3d6000fd5b505050506040513d601f19601f820116820180604052508101906108fd919061195e565b50919c9b505050505050505050505050565b6000803361091b610b1e565b600301546001600160a01b0316146109455760405162461bcd60e51b815260040161025d90611785565b6000839050806001600160a01b0316630dfe16816040518163ffffffff1660e01b8152600401602060405180830381865afa158015610988573d6000803e3d6000fd5b505050506040513d601f19601f820116820180604052508101906109ac9190611865565b6001600160a01b031663313ce5676040518163ffffffff1660e01b8152600401602060405180830381865afa1580156109e9573d6000803e3d6000fd5b505050506040513d601f19601f82011682018060405250810190610a0d919061199c565b816001600160a01b031663d21220a76040518163ffffffff1660e01b8152600401602060405180830381865afa158015610a4b573d6000803e3d6000fd5b505050506040513d601f19601f82011682018060405250810190610a6f9190611865565b6001600160a01b031663313ce5676040518163ffffffff1660e01b8152600401602060405180830381865afa158015610aac573d6000803e3d6000fd5b505050506040513d601f19601f82011682018060405250810190610ad0919061199c565b60ff918216945016915050915091565b600033610aeb610b1e565b600301546001600160a01b031614610b155760405162461bcd60e51b815260040161025d90611785565b6102c882611450565b7f515bff1426cf6c4fb5ebb9b3e24eeca6b61f1bf3996e6c15108dda282fa29a4390565b60006401000276a36001600160a01b03831610801590610b7e575073fffd8963efd1fc6a506488495d951d5263988d266001600160a01b038316105b610bae5760405162461bcd60e51b81526020600482015260016024820152602960f91b604482015260640161025d565b640100000000600160c01b03602083901b166001600160801b03811160071b81811c67ffffffffffffffff811160061b90811c63ffffffff811160051b90811c61ffff811160041b90811c60ff8111600390811b91821c600f811160021b90811c918211600190811b92831c97908811961790941790921717909117171760808110610c4957610c3f607f826119d5565b83901c9150610c5a565b610c5481607f6119d5565b83901b91505b60006040610c696080846119ee565b901b9050828302607f1c92508260801c80603f1b8217915083811c935050828302607f1c92508260801c80603e1b8217915083811c935050828302607f1c92508260801c80603d1b8217915083811c935050828302607f1c92508260801c80603c1b8217915083811c935050828302607f1c92508260801c80603b1b8217915083811c935050828302607f1c92508260801c80603a1b8217915083811c935050828302607f1c92508260801c8060391b8217915083811c935050828302607f1c92508260801c8060381b8217915083811c935050828302607f1c92508260801c8060371b8217915083811c935050828302607f1c92508260801c8060361b8217915083811c935050828302607f1c92508260801c8060351b8217915083811c935050828302607f1c92508260801c8060341b8217915083811c935050828302607f1c92508260801c8060331b8217915083811c935050828302607f1c92508260801c8060321b8217915050600081693627a301d71055774c85610dec9190611a15565b905060006080610e0c6f028f6481ab7f045a5af012a19d003aaa846119ee565b901d905060006080610e2e846fdb2df09e81959a81455e260799a0632f611a45565b901d90508060020b8260020b14610e6d57886001600160a01b0316610e5282610f34565b6001600160a01b03161115610e675781610e6f565b80610e6f565b815b9998505050505050505050565b6000836001600160a01b0316856001600160a01b03161115610e9c579293925b846001600160a01b0316866001600160a01b031611610ec757610ec0858585611466565b90506103f6565b836001600160a01b0316866001600160a01b03161015610f29576000610eee878686611466565b90506000610efd8789866114d0565b9050806001600160801b0316826001600160801b031610610f1e5780610f20565b815b925050506103f6565b6103f38585846114d0565b60008060008360020b12610f4b578260020b610f58565b8260020b610f5890611a65565b9050600081600116600003610f7157600160801b610f83565b6ffffcb933bd6fad37aa2d162d1a5940015b6001600160881b031690506002821615610fb8576080610fb3826ffff97272373d413259a46990580e213a611a81565b901c90505b6004821615610fe2576080610fdd826ffff2e50f5f656932ef12357cf3c7fdcc611a81565b901c90505b600882161561100c576080611007826fffe5caca7e10e4e61c3624eaa0941cd0611a81565b901c90505b6010821615611036576080611031826fffcb9843d60f6159c9db58835c926644611a81565b901c90505b602082161561106057608061105b826fff973b41fa98c081472e6896dfb254c0611a81565b901c90505b604082161561108a576080611085826fff2ea16466c96a3843ec78b326b52861611a81565b901c90505b60808216156110b45760806110af826ffe5dee046a99a2a811c461f1969c3053611a81565b901c90505b6101008216156110df5760806110da826ffcbe86c7900a88aedcffc83b479aa3a4611a81565b901c90505b61020082161561110a576080611105826ff987a7253ac413176f2b074cf7815e54611a81565b901c90505b610400821615611135576080611130826ff3392b0822b70005940c7a398e4b70f3611a81565b901c90505b61080082161561116057608061115b826fe7159475a2c29b7443b29c7fa6e889d9611a81565b901c90505b61100082161561118b576080611186826fd097f3bdfd2022b8845ad8f792aa5825611a81565b901c90505b6120008216156111b65760806111b1826fa9f746462d870fdf8a65dc1f90e061e5611a81565b901c90505b6140008216156111e15760806111dc826f70d869a156d2a1b890bb3df62baf32f7611a81565b901c90505b61800082161561120c576080611207826f31be135f97d08fd981231505542fcfa6611a81565b901c90505b62010000821615611238576080611233826f09aa508b5b7a84e1c677de54f3e99bc9611a81565b901c90505b6202000082161561126357608061125e826e5d6af8dedb81196699c329225ee604611a81565b901c90505b6204000082161561128d576080611288826d2216e584f5fa1ea926041bedfe98611a81565b901c90505b620800008216156112b55760806112b0826b048a170391f7dc42444e8fa2611a81565b901c90505b60008460020b13156112d0576112cd81600019611aae565b90505b6112df64010000000082611ac2565b156112eb5760016112ee565b60005b6112ff9060ff16602083901c611ad6565b949350505050565b6000808060001985870985870292508281108382030391505080600003611340576000841161133557600080fd5b508290049050610480565b80841161134c57600080fd5b60008486880960026001871981018816978890046003810283188082028403028082028403028082028403028082028403028082028403029081029092039091026000889003889004909101858311909403939093029303949094049190911702949350505050565b600080836001600160a01b0316856001600160a01b031611156113d6579293925b846001600160a01b0316866001600160a01b031611611401576113fa858585611506565b9150610571565b836001600160a01b0316866001600160a01b0316101561143a57611426868585611506565b9150611433858785611570565b9050610571565b611445858585611570565b905094509492505050565b806001600160a01b03811681146102cb57600080fd5b6000826001600160a01b0316846001600160a01b03161115611486579192915b60006114a9856001600160a01b0316856001600160a01b0316600160601b611307565b90506103f66114cb84836114bd8989611ae9565b6001600160a01b0316611307565b6115ba565b6000826001600160a01b0316846001600160a01b031611156114f0579192915b61047d6114cb83600160601b6114bd8888611ae9565b6000826001600160a01b0316846001600160a01b03161115611526579192915b6001600160a01b038416611566600160601b600160e01b03606085901b1661154e8787611ae9565b6001600160a01b0316866001600160a01b0316611307565b61047d9190611aae565b6000826001600160a01b0316846001600160a01b03161115611590579192915b61047d6001600160801b0383166115a78686611ae9565b6001600160a01b0316600160601b611307565b806001600160801b03811681146102cb57600080fd5b6001600160a01b03811681146115e557600080fd5b50565b6000602082840312156115fa57600080fd5b8135610480816115d0565b600080600080600060a0868803121561161d57600080fd5b8535611628816115d0565b94506020860135611638816115d0565b93506040860135611648816115d0565b94979396509394606081013594506080013592915050565b8060020b81146115e557600080fd5b60006020828403121561168157600080fd5b813561048081611660565b6000806000606084860312156116a157600080fd5b505081359360208301359350604090920135919050565b6001600160801b03811681146115e557600080fd5b600080600080608085870312156116e357600080fd5b84356116ee816115d0565b935060208501356116fe816115d0565b9250604085013561170e816115d0565b9150606085013561171e816116b8565b939692955090935050565b600080600080600060a0868803121561174157600080fd5b853561174c816115d0565b9450602086013561175c81611660565b9350604086013561164881611660565b60006020828403121561177e57600080fd5b5035919050565b60208082526015908201527414995cdd1c9a58dd1959081d1bc8111a585b5bdb99605a1b604082015260600190565b6000602082840312156117c657600080fd5b815161048081611660565b805161ffff811681146102cb57600080fd5b60008060008060008060c087890312156117fc57600080fd5b8651611807816115d0565b602088015190965061181881611660565b9450611826604088016117d1565b9350611834606088016117d1565b9250611842608088016117d1565b915060a0870151801515811461185757600080fd5b809150509295509295509295565b60006020828403121561187757600080fd5b8151610480816115d0565b81516001600160a01b03168152610180810160208301516118ae60208401826001600160a01b03169052565b5060408301516118c3604084018260020b9052565b5060608301516118d8606084018260020b9052565b5060808301516118ed608084018260020b9052565b5060a083015160a083015260c083015160c083015260e083015160e083015261010080840151818401525061012080840151611933828501826001600160a01b03169052565b50506101408381015190830152610160808401516001600160a01b038116828501525b505092915050565b6000806000806080858703121561197457600080fd5b845193506020850151611986816116b8565b6040860151606090960151949790965092505050565b6000602082840312156119ae57600080fd5b815160ff8116811461048057600080fd5b634e487b7160e01b600052601160045260246000fd5b818103818111156119e8576119e86119bf565b92915050565b8181036000831280158383131683831282161715611a0e57611a0e6119bf565b5092915050565b80820260008212600160ff1b84141615611a3157611a316119bf565b81810583148215176119e8576119e86119bf565b8082018281126000831280158216821582161715611956576119566119bf565b6000600160ff1b8201611a7a57611a7a6119bf565b5060000390565b80820281158282048414176119e8576119e86119bf565b634e487b7160e01b600052601260045260246000fd5b600082611abd57611abd611a98565b500490565b600082611ad157611ad1611a98565b500690565b808201808211156119e8576119e86119bf565b6001600160a01b03828116828216039080821115611a0e57611a0e6119bf56fea2646970667358221220b540f8a90e94a65b95c6df158ff1162b31af5ee202c410eb0894972d0c45899b64736f6c63430008110033",
  "devdoc": {
    "kind": "dev",
    "methods": {},
    "version": 1
  },
  "userdoc": {
    "kind": "user",
    "methods": {},
    "version": 1
  },
  "storageLayout": {
    "storage": [],
    "types": null
  }
}