{
  "address": "0xbE7551f5352E56434a3254208b74E61e63907aA7",
  "abi": [
    {
      "inputs": [
        {
          "internalType": "uint256",
          "name": "limit",
          "type": "uint256"
        },
        {
          "internalType": "uint256",
          "name": "offset",
          "type": "uint256"
        }
      ],
      "name": "fetchPools",
      "outputs": [
        {
          "components": [
            {
              "internalType": "address",
              "name": "poolId",
              "type": "address"
            },
            {
              "components": [
                {
                  "internalType": "address",
                  "name": "tokenId",
                  "type": "address"
                },
                {
                  "internalType": "uint8",
                  "name": "decimals",
                  "type": "uint8"
                },
                {
                  "internalType": "string",
                  "name": "name",
                  "type": "string"
                },
                {
                  "internalType": "string",
                  "name": "symbol",
                  "type": "string"
                }
              ],
              "internalType": "struct IPoolFetcherFacet.TokenInfo",
              "name": "token0",
              "type": "tuple"
            },
            {
              "components": [
                {
                  "internalType": "address",
                  "name": "tokenId",
                  "type": "address"
                },
                {
                  "internalType": "uint8",
                  "name": "decimals",
                  "type": "uint8"
                },
                {
                  "internalType": "string",
                  "name": "name",
                  "type": "string"
                },
                {
                  "internalType": "string",
                  "name": "symbol",
                  "type": "string"
                }
              ],
              "internalType": "struct IPoolFetcherFacet.TokenInfo",
              "name": "token1",
              "type": "tuple"
            },
            {
              "internalType": "uint256",
              "name": "amount0",
              "type": "uint256"
            },
            {
              "internalType": "uint256",
              "name": "amount1",
              "type": "uint256"
            },
            {
              "internalType": "int24",
              "name": "tickSpacing",
              "type": "int24"
            },
            {
              "internalType": "address",
              "name": "gauge",
              "type": "address"
            }
          ],
          "internalType": "struct IPoolFetcherFacet.PoolInfo[]",
          "name": "result",
          "type": "tuple[]"
        }
      ],
      "stateMutability": "view",
      "type": "function"
    },
    {
      "inputs": [],
      "name": "fetchTokens",
      "outputs": [
        {
          "components": [
            {
              "internalType": "address",
              "name": "tokenId",
              "type": "address"
            },
            {
              "internalType": "uint8",
              "name": "decimals",
              "type": "uint8"
            },
            {
              "internalType": "string",
              "name": "name",
              "type": "string"
            },
            {
              "internalType": "string",
              "name": "symbol",
              "type": "string"
            }
          ],
          "internalType": "struct IPoolFetcherFacet.TokenInfo[]",
          "name": "result",
          "type": "tuple[]"
        }
      ],
      "stateMutability": "view",
      "type": "function"
    },
    {
      "inputs": [],
      "name": "getPoolsAmount",
      "outputs": [
        {
          "internalType": "uint256",
          "name": "",
          "type": "uint256"
        }
      ],
      "stateMutability": "view",
      "type": "function"
    },
    {
      "inputs": [],
      "name": "getTokensAmount",
      "outputs": [
        {
          "internalType": "uint256",
          "name": "",
          "type": "uint256"
        }
      ],
      "stateMutability": "view",
      "type": "function"
    }
  ],
  "transactionHash": "0xa3a7df34ada1dfb2278a0d41d8562368947859461f8adf135860f916d799aa6e",
  "args": [],
  "numDeployments": 5,
  "solcInputHash": "1a03f1335299b45b1051e0704af1d073",
  "bytecode": "0x608060405234801561001057600080fd5b5061195e806100206000396000f3fe608060405234801561001057600080fd5b506004361061004c5760003560e01c80630a326c861461005157806334aca83e1461006c57806362486d421461008c578063cd84f59714610094575b600080fd5b6100596100a9565b6040519081526020015b60405180910390f35b61007f61007a36600461143f565b610196565b6040516100639190611507565b610059610646565b61009c610655565b60405161006391906115d5565b6000806100b4610b38565b60010160009054906101000a90046001600160a01b03166001600160a01b031663c45a01556040518163ffffffff1660e01b8152600401602060405180830381865afa158015610108573d6000803e3d6000fd5b505050506040513d601f19601f8201168201806040525081019061012c919061164f565b9050806001600160a01b031663efde4e646040518163ffffffff1660e01b8152600401602060405180830381865afa15801561016c573d6000803e3d6000fd5b505050506040513d601f19601f82011682018060405250810190610190919061166c565b91505090565b606060006101a2610b38565b60010160009054906101000a90046001600160a01b03166001600160a01b031663c45a01556040518163ffffffff1660e01b8152600401602060405180830381865afa1580156101f6573d6000803e3d6000fd5b505050506040513d601f19601f8201168201806040525081019061021a919061164f565b90506000816001600160a01b031663efde4e646040518163ffffffff1660e01b8152600401602060405180830381865afa15801561025c573d6000803e3d6000fd5b505050506040513d601f19601f82011682018060405250810190610280919061166c565b90506000818510156102af5781610297878761169b565b116102a257856102ac565b6102ac85836116b4565b90505b8067ffffffffffffffff8111156102c8576102c86116c7565b60405190808252806020026020018201604052801561030157816020015b6102ee6113c7565b8152602001906001900390816102e65790505b509350845b610310828761169b565b81101561063c57600061032387836116b4565b6040516341d1de9760e01b8152600481018490529091506000906001600160a01b038716906341d1de9790602401602060405180830381865afa15801561036e573d6000803e3d6000fd5b505050506040513d601f19601f82011682018060405250810190610392919061164f565b9050808783815181106103a7576103a76116dd565b6020026020010151600001906001600160a01b031690816001600160a01b031681525050610435816001600160a01b0316630dfe16816040518163ffffffff1660e01b8152600401602060405180830381865afa15801561040c573d6000803e3d6000fd5b505050506040513d601f19601f82011682018060405250810190610430919061164f565b610b5c565b878381518110610447576104476116dd565b602002602001015160200181905250610497816001600160a01b031663d21220a76040518163ffffffff1660e01b8152600401602060405180830381865afa15801561040c573d6000803e3d6000fd5b8783815181106104a9576104a96116dd565b602002602001015160400181905250806001600160a01b031663d0c93a7c6040518163ffffffff1660e01b8152600401602060405180830381865afa1580156104f6573d6000803e3d6000fd5b505050506040513d601f19601f8201168201806040525081019061051a919061170a565b87838151811061052c5761052c6116dd565b602002602001015160a0019060020b908160020b81525050806001600160a01b031663a6f19c846040518163ffffffff1660e01b8152600401602060405180830381865afa158015610582573d6000803e3d6000fd5b505050506040513d601f19601f820116820180604052508101906105a6919061164f565b8783815181106105b8576105b86116dd565b602002602001015160c001906001600160a01b031690816001600160a01b0316815250506105e581610cc7565b8884815181106105f7576105f76116dd565b6020026020010151606001898581518110610614576106146116dd565b602090810291909101015160800191909152525081905061063481611725565b915050610306565b5050505092915050565b6000610650610dcb565b905090565b60606000610661610dcb565b905060008167ffffffffffffffff81111561067e5761067e6116c7565b6040519080825280602002602001820160405280156106b757816020015b6106a4611419565b81526020019060019003908161069c5790505b50925060008267ffffffffffffffff8111156106d5576106d56116c7565b6040519080825280602002602001820160405280156106fe578160200160208202803683370190505b509050600061070b610b38565b60010160009054906101000a90046001600160a01b03166001600160a01b031663c45a01556040518163ffffffff1660e01b8152600401602060405180830381865afa15801561075f573d6000803e3d6000fd5b505050506040513d601f19601f82011682018060405250810190610783919061164f565b90506000816001600160a01b031663efde4e646040518163ffffffff1660e01b8152600401602060405180830381865afa1580156107c5573d6000803e3d6000fd5b505050506040513d601f19601f820116820180604052508101906107e9919061166c565b905060005b81811015610b2f576040516341d1de9760e01b8152600481018290526000906001600160a01b038516906341d1de9790602401602060405180830381865afa15801561083e573d6000803e3d6000fd5b505050506040513d601f19601f82011682018060405250810190610862919061164f565b90506108d085826001600160a01b0316630dfe16816040518163ffffffff1660e01b8152600401602060405180830381865afa1580156108a6573d6000803e3d6000fd5b505050506040513d601f19601f820116820180604052508101906108ca919061164f565b8861115e565b6109d557806001600160a01b0316630dfe16816040518163ffffffff1660e01b8152600401602060405180830381865afa158015610912573d6000803e3d6000fd5b505050506040513d601f19601f82011682018060405250810190610936919061164f565b858781518110610948576109486116dd565b60200260200101906001600160a01b031690816001600160a01b0316815250506109a9816001600160a01b0316630dfe16816040518163ffffffff1660e01b8152600401602060405180830381865afa15801561040c573d6000803e3d6000fd5b8887815181106109bb576109bb6116dd565b602002602001018190525085806109d190611725565b9650505b610a1785826001600160a01b031663d21220a76040518163ffffffff1660e01b8152600401602060405180830381865afa1580156108a6573d6000803e3d6000fd5b610b1c57806001600160a01b031663d21220a76040518163ffffffff1660e01b8152600401602060405180830381865afa158015610a59573d6000803e3d6000fd5b505050506040513d601f19601f82011682018060405250810190610a7d919061164f565b858781518110610a8f57610a8f6116dd565b60200260200101906001600160a01b031690816001600160a01b031681525050610af0816001600160a01b031663d21220a76040518163ffffffff1660e01b8152600401602060405180830381865afa15801561040c573d6000803e3d6000fd5b888781518110610b0257610b026116dd565b60200260200101819052508580610b1890611725565b9650505b5080610b2781611725565b9150506107ee565b50505050505090565b7f515bff1426cf6c4fb5ebb9b3e24eeca6b61f1bf3996e6c15108dda282fa29a4390565b610b64611419565b60008290506040518060800160405280846001600160a01b03168152602001826001600160a01b031663313ce5676040518163ffffffff1660e01b8152600401602060405180830381865afa158015610bc1573d6000803e3d6000fd5b505050506040513d601f19601f82011682018060405250810190610be5919061173e565b60ff168152602001826001600160a01b03166306fdde036040518163ffffffff1660e01b8152600401600060405180830381865afa158015610c2b573d6000803e3d6000fd5b505050506040513d6000823e601f3d908101601f19168201604052610c539190810190611761565b8152602001826001600160a01b03166395d89b416040518163ffffffff1660e01b8152600401600060405180830381865afa158015610c96573d6000803e3d6000fd5b505050506040513d6000823e601f3d908101601f19168201604052610cbe9190810190611761565b90529392505050565b6000806000836001600160a01b0316633850c7bd6040518163ffffffff1660e01b815260040160c060405180830381865afa158015610d0a573d6000803e3d6000fd5b505050506040513d601f19601f82011682018060405250810190610d2e9190611820565b505050505090506000846001600160a01b0316631a6865026040518163ffffffff1660e01b8152600401602060405180830381865afa158015610d75573d6000803e3d6000fd5b505050506040513d601f19601f82011682018060405250810190610d99919061189f565b9050610dc0826401000276a373fffd8963efd1fc6a506488495d951d5263988d26846111c5565b935093505050915091565b600080610dd6610b38565b60010160009054906101000a90046001600160a01b03166001600160a01b031663c45a01556040518163ffffffff1660e01b8152600401602060405180830381865afa158015610e2a573d6000803e3d6000fd5b505050506040513d601f19601f82011682018060405250810190610e4e919061164f565b9050600091506000816001600160a01b031663efde4e646040518163ffffffff1660e01b8152600401602060405180830381865afa158015610e94573d6000803e3d6000fd5b505050506040513d601f19601f82011682018060405250810190610eb8919061166c565b90506000610ec78260026118c8565b67ffffffffffffffff811115610edf57610edf6116c7565b604051908082528060200260200182016040528015610f08578160200160208202803683370190505b50905060005b82811015611157576040516341d1de9760e01b8152600481018290526000906001600160a01b038616906341d1de9790602401602060405180830381865afa158015610f5e573d6000803e3d6000fd5b505050506040513d601f19601f82011682018060405250810190610f82919061164f565b9050610fc683826001600160a01b0316630dfe16816040518163ffffffff1660e01b8152600401602060405180830381865afa1580156108a6573d6000803e3d6000fd5b61106457806001600160a01b0316630dfe16816040518163ffffffff1660e01b8152600401602060405180830381865afa158015611008573d6000803e3d6000fd5b505050506040513d601f19601f8201168201806040525081019061102c919061164f565b83878151811061103e5761103e6116dd565b6001600160a01b03909216602092830291909101909101528561106081611725565b9650505b6110a683826001600160a01b031663d21220a76040518163ffffffff1660e01b8152600401602060405180830381865afa1580156108a6573d6000803e3d6000fd5b61114457806001600160a01b031663d21220a76040518163ffffffff1660e01b8152600401602060405180830381865afa1580156110e8573d6000803e3d6000fd5b505050506040513d601f19601f8201168201806040525081019061110c919061164f565b83878151811061111e5761111e6116dd565b6001600160a01b03909216602092830291909101909101528561114081611725565b9650505b508061114f81611725565b915050610f0e565b5050505090565b6000805b828110156111b857836001600160a01b0316858281518110611186576111866116dd565b60200260200101516001600160a01b0316036111a65760019150506111be565b806111b081611725565b915050611162565b50600090505b9392505050565b600080836001600160a01b0316856001600160a01b031611156111e6579293925b846001600160a01b0316866001600160a01b0316116112115761120a858585611261565b9150611258565b836001600160a01b0316866001600160a01b0316101561124a57611236868585611261565b91506112438587856112d3565b9050611258565b6112558585856112d3565b90505b94509492505050565b6000826001600160a01b0316846001600160a01b03161115611281579192915b6001600160a01b0384166112c1600160601b600160e01b03606085901b166112a987876118df565b6001600160a01b0316866001600160a01b0316611319565b6112cb9190611906565b949350505050565b6000826001600160a01b0316846001600160a01b031611156112f3579192915b6112cb6001600160801b03831661130a86866118df565b6001600160a01b0316600160601b5b6000808060001985870985870292508281108382030391505080600003611352576000841161134757600080fd5b5082900490506111be565b80841161135e57600080fd5b60008486880960026001871981018816978890046003810283188082028403028082028403028082028403028082028403028082028403029081029092039091026000889003889004909101858311909403939093029303949094049190911702949350505050565b6040518060e0016040528060006001600160a01b031681526020016113ea611419565b81526020016113f7611419565b8152600060208201819052604082018190526060820181905260809091015290565b604080516080810182526000808252602082015260609181018290528181019190915290565b6000806040838503121561145257600080fd5b50508035926020909101359150565b60005b8381101561147c578181015183820152602001611464565b50506000910152565b6000815180845261149d816020860160208601611461565b601f01601f19169290920160200192915050565b60018060a01b03815116825260ff602082015116602083015260006040820151608060408501526114e56080850182611485565b9050606083015184820360608601526114fe8282611485565b95945050505050565b60006020808301818452808551808352604092508286019150828160051b87010184880160005b838110156115c757888303603f19018552815180516001600160a01b0390811685528882015160e08a8701819052919061156a838801826114b1565b925050888301518683038a88015261158283826114b1565b606085810151908901526080808601519089015260a08086015160020b9089015260c0948501519092169390960192909252509487019492509086019060010161152e565b509098975050505050505050565b6000602080830181845280855180835260408601915060408160051b870101925083870160005b8281101561162a57603f198886030184526116188583516114b1565b945092850192908501906001016115fc565b5092979650505050505050565b6001600160a01b038116811461164c57600080fd5b50565b60006020828403121561166157600080fd5b81516111be81611637565b60006020828403121561167e57600080fd5b5051919050565b634e487b7160e01b600052601160045260246000fd5b808201808211156116ae576116ae611685565b92915050565b818103818111156116ae576116ae611685565b634e487b7160e01b600052604160045260246000fd5b634e487b7160e01b600052603260045260246000fd5b8051600281900b811461170557600080fd5b919050565b60006020828403121561171c57600080fd5b6111be826116f3565b60006001820161173757611737611685565b5060010190565b60006020828403121561175057600080fd5b815160ff811681146111be57600080fd5b60006020828403121561177357600080fd5b815167ffffffffffffffff8082111561178b57600080fd5b818401915084601f83011261179f57600080fd5b8151818111156117b1576117b16116c7565b604051601f8201601f19908116603f011681019083821181831017156117d9576117d96116c7565b816040528281528760208487010111156117f257600080fd5b611803836020830160208801611461565b979650505050505050565b805161ffff8116811461170557600080fd5b60008060008060008060c0878903121561183957600080fd5b865161184481611637565b9550611852602088016116f3565b94506118606040880161180e565b935061186e6060880161180e565b925061187c6080880161180e565b915060a0870151801515811461189157600080fd5b809150509295509295509295565b6000602082840312156118b157600080fd5b81516001600160801b03811681146111be57600080fd5b80820281158282048414176116ae576116ae611685565b6001600160a01b038281168282160390808211156118ff576118ff611685565b5092915050565b60008261192357634e487b7160e01b600052601260045260246000fd5b50049056fea2646970667358221220a68db13a39d7085f194a7944b92021249e411b8cedecbf4172fa65af748dbc7764736f6c63430008110033",
  "devdoc": {
    "kind": "dev",
    "methods": {},
    "version": 1
  },
  "userdoc": {
    "kind": "user",
    "methods": {},
    "version": 1
  },
  "storageLayout": {
    "storage": [],
    "types": null
  }
}