{
  "address": "0xe8EcAafb74681461d0494290733f5f919c4D9F44",
  "abi": [
    {
      "anonymous": false,
      "inputs": [
        {
          "indexed": false,
          "internalType": "uint256",
          "name": "amount0",
          "type": "uint256"
        },
        {
          "indexed": false,
          "internalType": "uint256",
          "name": "amount1",
          "type": "uint256"
        }
      ],
      "name": "CollectRewards",
      "type": "event"
    },
    {
      "inputs": [
        {
          "internalType": "uint256",
          "name": "tokenId",
          "type": "uint256"
        },
        {
          "internalType": "address",
          "name": "sender",
          "type": "address"
        }
      ],
      "name": "checkForOwner",
      "outputs": [],
      "stateMutability": "view",
      "type": "function"
    },
    {
      "inputs": [
        {
          "internalType": "uint256",
          "name": "tokenId",
          "type": "uint256"
        },
        {
          "internalType": "address",
          "name": "recipient",
          "type": "address"
        },
        {
          "internalType": "address",
          "name": "feeRecipient",
          "type": "address"
        }
      ],
      "name": "closePosition",
      "outputs": [],
      "stateMutability": "nonpayable",
      "type": "function"
    },
    {
      "inputs": [
        {
          "internalType": "uint256",
          "name": "tokenId",
          "type": "uint256"
        }
      ],
      "name": "getPositionAmounts",
      "outputs": [
        {
          "internalType": "uint256",
          "name": "",
          "type": "uint256"
        },
        {
          "internalType": "uint256",
          "name": "",
          "type": "uint256"
        }
      ],
      "stateMutability": "view",
      "type": "function"
    },
    {
      "inputs": [
        {
          "internalType": "address",
          "name": "wallet",
          "type": "address"
        }
      ],
      "name": "getPositions",
      "outputs": [
        {
          "components": [
            {
              "internalType": "string",
              "name": "platform",
              "type": "string"
            },
            {
              "internalType": "uint256",
              "name": "tokenId",
              "type": "uint256"
            },
            {
              "internalType": "address",
              "name": "poolId",
              "type": "address"
            },
            {
              "internalType": "address",
              "name": "token0",
              "type": "address"
            },
            {
              "internalType": "address",
              "name": "token1",
              "type": "address"
            },
            {
              "internalType": "uint256",
              "name": "amount0",
              "type": "uint256"
            },
            {
              "internalType": "uint256",
              "name": "amount1",
              "type": "uint256"
            },
            {
              "internalType": "uint256",
              "name": "fee0",
              "type": "uint256"
            },
            {
              "internalType": "uint256",
              "name": "fee1",
              "type": "uint256"
            },
            {
              "internalType": "uint256",
              "name": "emissions",
              "type": "uint256"
            },
            {
              "internalType": "int24",
              "name": "tickLower",
              "type": "int24"
            },
            {
              "internalType": "int24",
              "name": "tickUpper",
              "type": "int24"
            },
            {
              "internalType": "int24",
              "name": "currentTick",
              "type": "int24"
            }
          ],
          "internalType": "struct IPositionManagerFacet.PositionInfo[]",
          "name": "result",
          "type": "tuple[]"
        }
      ],
      "stateMutability": "view",
      "type": "function"
    },
    {
      "inputs": [
        {
          "internalType": "address",
          "name": "pair",
          "type": "address"
        },
        {
          "internalType": "int24",
          "name": "tickRange0",
          "type": "int24"
        },
        {
          "internalType": "int24",
          "name": "tickRange1",
          "type": "int24"
        },
        {
          "internalType": "uint256",
          "name": "amountOut0",
          "type": "uint256"
        },
        {
          "internalType": "uint256",
          "name": "amountOut1",
          "type": "uint256"
        },
        {
          "internalType": "address",
          "name": "recipient",
          "type": "address"
        }
      ],
      "name": "mintPosition",
      "outputs": [
        {
          "internalType": "uint256",
          "name": "tokenId",
          "type": "uint256"
        }
      ],
      "stateMutability": "nonpayable",
      "type": "function"
    }
  ],
  "transactionHash": "0xa369baa7e0bc157185b7179d2d16fc287b43bbf99c83db200975066408bbe311",
  "args": [],
  "numDeployments": 11,
  "solcInputHash": "0f1ceacb4e9ea07c008b645eea27e67f",
  "bytecode": "0x608060405234801561001057600080fd5b50612fd0806100206000396000f3fe608060405234801561001057600080fd5b50600436106100575760003560e01c80631587d2b51461005c5780633eeb530e146100825780639ac23861146100a2578063a855840a146100b7578063d26265e0146100ca575b600080fd5b61006f61006a3660046126ce565b6100f2565b6040519081526020015b60405180910390f35b61009561009036600461273e565b610371565b60405161007991906127ae565b6100b56100b03660046128da565b6108b9565b005b6100b56100c536600461290a565b610a2f565b6100dd6100d836600461294c565b610c22565b60408051928352602083019190915201610079565b6000336100fd610c37565b600301546001600160a01b0316146101305760405162461bcd60e51b815260040161012790612965565b60405180910390fd5b60008790506000816001600160a01b0316630dfe16816040518163ffffffff1660e01b8152600401602060405180830381865afa158015610175573d6000803e3d6000fd5b505050506040513d601f19601f8201168201806040525081019061019991906129a4565b90506000826001600160a01b031663d21220a76040518163ffffffff1660e01b8152600401602060405180830381865afa1580156101db573d6000803e3d6000fd5b505050506040513d601f19601f820116820180604052508101906101ff91906129a4565b90506000604051806101800160405280846001600160a01b03168152602001836001600160a01b03168152602001856001600160a01b031663d0c93a7c6040518163ffffffff1660e01b8152600401602060405180830381865afa15801561026b573d6000803e3d6000fd5b505050506040513d601f19601f8201168201806040525081019061028f91906129cc565b60020b81526020018b60020b81526020018a60020b81526020018981526020018881526020016000815260200160008152602001876001600160a01b0316815260200142815260200160006001600160a01b031681525090506102f0610c5b565b6001600160a01b031663b5007d1f826040518263ffffffff1660e01b815260040161031b91906129e9565b6080604051808303816000875af115801561033a573d6000803e3d6000fd5b505050506040513d601f19601f8201168201806040525081019061035e9190612acb565b50919d9c50505050505050505050505050565b6060600061037e83610c77565b9050600061038b84611002565b90506000610397610c5b565b6001600160a01b03166370a08231866040518263ffffffff1660e01b81526004016103c29190612b07565b602060405180830381865afa1580156103df573d6000803e3d6000fd5b505050506040513d601f19601f820116820180604052508101906104039190612b1b565b905060006104118385612b4a565b67ffffffffffffffff81111561042957610429612b5d565b60405190808252806020026020018201604052801561046257816020015b61044f61261b565b8152602001906001900390816104475790505b509450600061046f610c5b565b6001600160a01b031663c45a01556040518163ffffffff1660e01b8152600401602060405180830381865afa1580156104ac573d6000803e3d6000fd5b505050506040513d601f19601f820116820180604052508101906104d091906129a4565b90506000816001600160a01b031663efde4e646040518163ffffffff1660e01b8152600401602060405180830381865afa158015610512573d6000803e3d6000fd5b505050506040513d601f19601f820116820180604052508101906105369190612b1b565b905060005b818110156107c4576040516341d1de9760e01b8152600481018290526000906001600160a01b038516906341d1de9790602401602060405180830381865afa15801561058b573d6000803e3d6000fd5b505050506040513d601f19601f820116820180604052508101906105af91906129a4565b905060006001600160a01b0316816001600160a01b031663a6f19c846040518163ffffffff1660e01b8152600401602060405180830381865afa1580156105fa573d6000803e3d6000fd5b505050506040513d601f19601f8201168201806040525081019061061e91906129a4565b6001600160a01b03160361063257506107b2565b6000816001600160a01b031663a6f19c846040518163ffffffff1660e01b8152600401602060405180830381865afa158015610672573d6000803e3d6000fd5b505050506040513d601f19601f8201168201806040525081019061069691906129a4565b90506000816001600160a01b0316634b9377638d6040518263ffffffff1660e01b81526004016106c69190612b07565b600060405180830381865afa1580156106e3573d6000803e3d6000fd5b505050506040513d6000823e601f3d908101601f1916820160405261070b9190810190612b73565b905060005b81518110156107ad57600061073d83838151811061073057610730612c31565b6020026020010151611142565b6001600160801b0316111561079b5761076f8d83838151811061076257610762612c31565b60200260200101516111cd565b8c898151811061078157610781612c31565b6020026020010181905250878061079790612c47565b9850505b806107a581612c47565b915050610710565b505050505b806107bc81612c47565b91505061053b565b5060005b848110156108ad5760006107da610c5b565b6001600160a01b0316632f745c598b846040518363ffffffff1660e01b8152600401610807929190612c60565b602060405180830381865afa158015610824573d6000803e3d6000fd5b505050506040513d601f19601f820116820180604052508101906108489190612b1b565b9050600061085582611142565b6001600160801b0316111561089a5761086e8a826111cd565b89868151811061088057610880612c31565b6020026020010181905250848061089690612c47565b9550505b50806108a581612c47565b9150506107c8565b50505050505050919050565b6000806108c4610c5b565b6001600160a01b03166370a08231846040518263ffffffff1660e01b81526004016108ef9190612b07565b602060405180830381865afa15801561090c573d6000803e3d6000fd5b505050506040513d601f19601f820116820180604052508101906109309190612b1b565b905060005b818110156109db576000610947610c5b565b6001600160a01b0316632f745c5986846040518363ffffffff1660e01b8152600401610974929190612c60565b602060405180830381865afa158015610991573d6000803e3d6000fd5b505050506040513d601f19601f820116820180604052508101906109b59190612b1b565b90508086036109c85760019350506109db565b50806109d381612c47565b915050610935565b5081610a295760405162461bcd60e51b815260206004820152601c60248201527f43616c6c657220646f65736e2774206f776e2074686520746f6b656e000000006044820152606401610127565b50505050565b33610a38610c37565b600301546001600160a01b031614610a625760405162461bcd60e51b815260040161012790612965565b60006040518060a00160405280858152602001610a7e86611142565b6001600160801b031681526020016000815260200160008152602001428152509050600080610aad86856115be565b60408051838152602081018390529294509092507f3bb500040acf6744b9c1f9f77110724e120e1a451602598b17d9d1df202c5242910160405180910390a160208301516001600160801b031615610ba757610b07610c5b565b60408051630624e65f60e11b81528551600482015260208601516001600160801b0316602482015290850151604482015260608501516064820152608085015160848201526001600160a01b039190911690630c49ccbe9060a40160408051808303816000875af1158015610b80573d6000803e3d6000fd5b505050506040513d601f19601f82011682018060405250810190610ba49190612c79565b50505b610bb186866115be565b5050610bbb610c5b565b6001600160a01b03166342966c68876040518263ffffffff1660e01b8152600401610be891815260200190565b600060405180830381600087803b158015610c0257600080fd5b505af1158015610c16573d6000803e3d6000fd5b50505050505050505050565b600080610c2e836116a0565b91509150915091565b7f515bff1426cf6c4fb5ebb9b3e24eeca6b61f1bf3996e6c15108dda282fa29a4390565b6000610c65610c37565b600101546001600160a01b0316919050565b600080610c82610c5b565b6001600160a01b031663c45a01556040518163ffffffff1660e01b8152600401602060405180830381865afa158015610cbf573d6000803e3d6000fd5b505050506040513d601f19601f82011682018060405250810190610ce391906129a4565b90506000816001600160a01b031663efde4e646040518163ffffffff1660e01b8152600401602060405180830381865afa158015610d25573d6000803e3d6000fd5b505050506040513d601f19601f82011682018060405250810190610d499190612b1b565b905060005b81811015610ffa576040516341d1de9760e01b8152600481018290526000906001600160a01b038516906341d1de9790602401602060405180830381865afa158015610d9e573d6000803e3d6000fd5b505050506040513d601f19601f82011682018060405250810190610dc291906129a4565b905060006001600160a01b0316816001600160a01b031663a6f19c846040518163ffffffff1660e01b8152600401602060405180830381865afa158015610e0d573d6000803e3d6000fd5b505050506040513d601f19601f82011682018060405250810190610e3191906129a4565b6001600160a01b031603610e455750610fe8565b6000816001600160a01b031663a6f19c846040518163ffffffff1660e01b8152600401602060405180830381865afa158015610e85573d6000803e3d6000fd5b505050506040513d601f19601f82011682018060405250810190610ea991906129a4565b90506000816001600160a01b031663ae775c32896040518263ffffffff1660e01b8152600401610ed99190612b07565b602060405180830381865afa158015610ef6573d6000803e3d6000fd5b505050506040513d601f19601f82011682018060405250810190610f1a9190612b1b565b90506000826001600160a01b0316634b9377638a6040518263ffffffff1660e01b8152600401610f4a9190612b07565b600060405180830381865afa158015610f67573d6000803e3d6000fd5b505050506040513d6000823e601f3d908101601f19168201604052610f8f9190810190612b73565b905060005b82811015610fe2576000610fb383838151811061073057610730612c31565b6001600160801b03161115610fd05788610fcc81612c47565b9950505b80610fda81612c47565b915050610f94565b50505050505b80610ff281612c47565b915050610d4e565b505050919050565b60008061100d610c5b565b6001600160a01b03166370a08231846040518263ffffffff1660e01b81526004016110389190612b07565b602060405180830381865afa158015611055573d6000803e3d6000fd5b505050506040513d601f19601f820116820180604052508101906110799190612b1b565b905060005b8181101561113b576000611090610c5b565b6001600160a01b0316632f745c5986846040518363ffffffff1660e01b81526004016110bd929190612c60565b602060405180830381865afa1580156110da573d6000803e3d6000fd5b505050506040513d601f19601f820116820180604052508101906110fe9190612b1b565b9050600061110b82611142565b6001600160801b03161115611128578361112481612c47565b9450505b508061113381612c47565b91505061107e565b5050919050565b600061114c610c5b565b6001600160a01b03166399fbab88836040518263ffffffff1660e01b815260040161117991815260200190565b61018060405180830381865afa158015611197573d6000803e3d6000fd5b505050506040513d601f19601f820116820180604052508101906111bb9190612c9d565b50929c9b505050505050505050505050565b6111d561261b565b6111dd61261b565b6040805180820190915260098152684165726f64726f6d6560b81b6020808301919091529082528101839052611212836117e0565b6001600160a01b0390811660808401521660608201526112318361186f565b600290810b6101608401520b6101408201526112cf61124e610c5b565b6001600160a01b031663c45a01556040518163ffffffff1660e01b8152600401602060405180830381865afa15801561128b573d6000803e3d6000fd5b505050506040513d601f19601f820116820180604052508101906112af91906129a4565b6112ca836060015184608001516112c5886118fe565b611989565b6119fe565b6001600160a01b031660408083018290528051633850c7bd60e01b815290518291633850c7bd9160048083019260c09291908290030181865afa15801561131a573d6000803e3d6000fd5b505050506040513d601f19601f8201168201806040525081019061133e9190612da0565b5050505060020b61018084015250611355846116a0565b60c084015260a083015261136884611b3b565b61010084015260e0830152604080516329bc672160e21b815290516000916001600160a01b0384169163a6f19c84916004808201926020929091908290030181865afa1580156113bc573d6000803e3d6000fd5b505050506040513d601f19601f820116820180604052508101906113e091906129a4565b6001600160a01b0316146115b4576000816001600160a01b031663a6f19c846040518163ffffffff1660e01b8152600401602060405180830381865afa15801561142e573d6000803e3d6000fd5b505050506040513d601f19601f8201168201806040525081019061145291906129a4565b60405163c69deec560e01b81529091506001600160a01b0382169063c69deec5906114839089908990600401612c60565b602060405180830381865afa1580156114a0573d6000803e3d6000fd5b505050506040513d601f19601f820116820180604052508101906114c49190612e19565b156115b257604051637980d7a160e11b8152600481018690526001600160a01b0382169063f301af4290602401602060405180830381865afa15801561150e573d6000803e3d6000fd5b505050506040513d601f19601f820116820180604052508101906115329190612b1b565b604051633e491d4760e01b81526001600160a01b03831690633e491d4790611560908a908a90600401612c60565b602060405180830381865afa15801561157d573d6000803e3d6000fd5b505050506040513d601f19601f820116820180604052508101906115a19190612b1b565b6115ab9190612b4a565b6101208401525b505b5090505b92915050565b604080516080810182528381526001600160a01b03831660208201526001600160801b03918101829052606081019190915260009081906115fd610c5b565b6040805163fc6f786560e01b81528351600482015260208401516001600160a01b039081166024830152918401516001600160801b039081166044830152606085015116606482015291169063fc6f78659060840160408051808303816000875af1158015611670573d6000803e3d6000fd5b505050506040513d601f19601f820116820180604052508101906116949190612c79565b92509250509250929050565b6000806000806116af856117e0565b91509150600061172f6116c0610c5b565b6001600160a01b031663c45a01556040518163ffffffff1660e01b8152600401602060405180830381865afa1580156116fd573d6000803e3d6000fd5b505050506040513d601f19601f8201168201806040525081019061172191906129a4565b6112ca85856112c58b6118fe565b905060008061173d8861186f565b915091506000836001600160a01b0316633850c7bd6040518163ffffffff1660e01b815260040160c060405180830381865afa158015611781573d6000803e3d6000fd5b505050506040513d601f19601f820116820180604052508101906117a59190612da0565b505050505090506117d0816117b985611b59565b6117c285611b59565b6117cb8d611142565b611f2c565b909a909950975050505050505050565b6000806117eb610c5b565b6001600160a01b03166399fbab88846040518263ffffffff1660e01b815260040161181891815260200190565b61018060405180830381865afa158015611836573d6000803e3d6000fd5b505050506040513d601f19601f8201168201806040525081019061185a9190612c9d565b50979d969c50959a5050505050505050505050565b60008061187a610c5b565b6001600160a01b03166399fbab88846040518263ffffffff1660e01b81526004016118a791815260200190565b61018060405180830381865afa1580156118c5573d6000803e3d6000fd5b505050506040513d601f19601f820116820180604052508101906118e99190612c9d565b50949d939c50929a5050505050505050505050565b6000611908610c5b565b6001600160a01b03166399fbab88836040518263ffffffff1660e01b815260040161193591815260200190565b61018060405180830381865afa158015611953573d6000803e3d6000fd5b505050506040513d601f19601f820116820180604052508101906119779190612c9d565b50959c9b505050505050505050505050565b6040805160608101825260008082526020820181905291810191909152826001600160a01b0316846001600160a01b031611156119c4579192915b6040518060600160405280856001600160a01b03168152602001846001600160a01b031681526020018360020b81525090505b9392505050565b600081602001516001600160a01b031682600001516001600160a01b031610611a2657600080fd5b6119f7836001600160a01b031663cefa77996040518163ffffffff1660e01b8152600401602060405180830381865afa158015611a67573d6000803e3d6000fd5b505050506040513d601f19601f82011682018060405250810190611a8b91906129a4565b83516020808601516040808801519051611ac89493016001600160a01b03938416815291909216602082015260029190910b604082015260600190565b604051602081830303815290604052805190602001208560405160388101919091526f5af43d82803e903d91602b57fd5bf3ff60248201526014810192909252733d602d80600a3d3981f3363d3d373d3d3d363d73825260588201526037600c8201206078820152605560439091012090565b600080611b4f611b49610c5b565b84611fc8565b9094909350915050565b60008060008360020b12611b70578260020b611b7d565b8260020b611b7d90612e34565b9050600081600116600003611b9657600160801b611ba8565b6ffffcb933bd6fad37aa2d162d1a5940015b6001600160881b031690506002821615611bdd576080611bd8826ffff97272373d413259a46990580e213a612e50565b901c90505b6004821615611c07576080611c02826ffff2e50f5f656932ef12357cf3c7fdcc612e50565b901c90505b6008821615611c31576080611c2c826fffe5caca7e10e4e61c3624eaa0941cd0612e50565b901c90505b6010821615611c5b576080611c56826fffcb9843d60f6159c9db58835c926644612e50565b901c90505b6020821615611c85576080611c80826fff973b41fa98c081472e6896dfb254c0612e50565b901c90505b6040821615611caf576080611caa826fff2ea16466c96a3843ec78b326b52861612e50565b901c90505b6080821615611cd9576080611cd4826ffe5dee046a99a2a811c461f1969c3053612e50565b901c90505b610100821615611d04576080611cff826ffcbe86c7900a88aedcffc83b479aa3a4612e50565b901c90505b610200821615611d2f576080611d2a826ff987a7253ac413176f2b074cf7815e54612e50565b901c90505b610400821615611d5a576080611d55826ff3392b0822b70005940c7a398e4b70f3612e50565b901c90505b610800821615611d85576080611d80826fe7159475a2c29b7443b29c7fa6e889d9612e50565b901c90505b611000821615611db0576080611dab826fd097f3bdfd2022b8845ad8f792aa5825612e50565b901c90505b612000821615611ddb576080611dd6826fa9f746462d870fdf8a65dc1f90e061e5612e50565b901c90505b614000821615611e06576080611e01826f70d869a156d2a1b890bb3df62baf32f7612e50565b901c90505b618000821615611e31576080611e2c826f31be135f97d08fd981231505542fcfa6612e50565b901c90505b62010000821615611e5d576080611e58826f09aa508b5b7a84e1c677de54f3e99bc9612e50565b901c90505b62020000821615611e88576080611e83826e5d6af8dedb81196699c329225ee604612e50565b901c90505b62040000821615611eb2576080611ead826d2216e584f5fa1ea926041bedfe98612e50565b901c90505b62080000821615611eda576080611ed5826b048a170391f7dc42444e8fa2612e50565b901c90505b60008460020b1315611ef557611ef281600019612e7d565b90505b611f0464010000000082612e91565b15611f10576001611f13565b60005b611f249060ff16602083901c612b4a565b949350505050565b600080836001600160a01b0316856001600160a01b03161115611f4d579293925b846001600160a01b0316866001600160a01b031611611f7857611f718585856120fa565b9150611fbf565b836001600160a01b0316866001600160a01b03161015611fb157611f9d8685856120fa565b9150611faa858785612164565b9050611fbf565b611fbc858585612164565b90505b94509492505050565b6000806000806000806000806000806000808d6001600160a01b03166399fbab888e6040518263ffffffff1660e01b815260040161200891815260200190565b61018060405180830381865afa158015612026573d6000803e3d6000fd5b505050506040513d601f19601f8201168201806040525081019061204a9190612c9d565b6001600160801b03169b506001600160801b03169b509b509b509b509b509b509b509b509b5050506120e58e6040518061014001604052808d6001600160a01b031681526020018c6001600160a01b031681526020018b60020b81526020018a60020b81526020018960020b8152602001886001600160801b03168152602001878152602001868152602001858152602001848152506121ae565b9b509b50505050505050505050509250929050565b6000826001600160a01b0316846001600160a01b0316111561211a579192915b6001600160a01b03841661215a600160601b600160e01b03606085901b166121428787612ea5565b6001600160a01b0316866001600160a01b03166122db565b611f249190612e7d565b6000826001600160a01b0316846001600160a01b03161115612184579192915b611f246001600160801b03831661219b8686612ea5565b6001600160a01b0316600160601b6122db565b6000808261010001519150826101200151905060008061227c61226d876001600160a01b031663c45a01556040518163ffffffff1660e01b8152600401602060405180830381865afa158015612208573d6000803e3d6000fd5b505050506040513d601f19601f8201168201806040525081019061222c91906129a4565b604051806060016040528089600001516001600160a01b0316815260200189602001516001600160a01b03168152602001896040015160020b8152506119fe565b86606001518760800151612389565b915091506122a9612291838760c00151900390565b8660a001516001600160801b0316600160801b6122db565b6122b39085612b4a565b93506122c6612291828760e00151900390565b6122d09084612b4a565b925050509250929050565b6000808060001985870985870292508281108382030391505080600003612314576000841161230957600080fd5b5082900490506119f7565b80841161232057600080fd5b60008486880960026001871981018816978890046003810283188082028403028082028403028082028403028082028403028082028403029081029092039091026000889003889004909101858311909403939093029303949094049190911702949350505050565b6000806000856001600160a01b0316633850c7bd6040518163ffffffff1660e01b815260040160c060405180830381865afa1580156123cc573d6000803e3d6000fd5b505050506040513d601f19601f820116820180604052508101906123f09190612da0565b505060405163f30dba9360e01b815260028a900b60048201529294506000935083926001600160a01b038b16925063f30dba93915060240161014060405180830381865afa158015612446573d6000803e3d6000fd5b505050506040513d601f19601f8201168201806040525081019061246a9190612ede565b505060405163f30dba9360e01b815260028f900b60048201529499509297506000965086955050506001600160a01b038d16925063f30dba9391602401905061014060405180830381865afa1580156124c7573d6000803e3d6000fd5b505050506040513d601f19601f820116820180604052508101906124eb9190612ede565b5050505050945094505050508860020b8560020b1215612514578184039650808303955061260e565b8760020b8560020b12156126035760008a6001600160a01b031663f30583996040518163ffffffff1660e01b8152600401602060405180830381865afa158015612562573d6000803e3d6000fd5b505050506040513d601f19601f820116820180604052508101906125869190612b1b565b905060008b6001600160a01b031663461413196040518163ffffffff1660e01b8152600401602060405180830381865afa1580156125c8573d6000803e3d6000fd5b505050506040513d601f19601f820116820180604052508101906125ec9190612b1b565b91869003849003985050839003819003955061260e565b838203965082810395505b5050505050935093915050565b604051806101a00160405280606081526020016000815260200160006001600160a01b0316815260200160006001600160a01b0316815260200160006001600160a01b031681526020016000815260200160008152602001600081526020016000815260200160008152602001600060020b8152602001600060020b8152602001600060020b81525090565b6001600160a01b03811681146126bc57600080fd5b50565b8060020b81146126bc57600080fd5b60008060008060008060c087890312156126e757600080fd5b86356126f2816126a7565b95506020870135612702816126bf565b94506040870135612712816126bf565b9350606087013592506080870135915060a0870135612730816126a7565b809150509295509295509295565b60006020828403121561275057600080fd5b81356119f7816126a7565b6000815180845260005b8181101561278157602081850181015186830182015201612765565b506000602082860101526020601f19601f83011685010191505092915050565b6001600160a01b03169052565b60006020808301818452808551808352604092508286019150828160051b87010184880160005b838110156128cc57603f1989840301855281516101a081518186526127fc8287018261275b565b915050888201518986015287820151612817898701826127a1565b5060608083015161282a828801826127a1565b505060808083015161283e828801826127a1565b505060a0828101519086015260c0808301519086015260e0808301519086015261010080830151908601526101208083015190860152610140808301516128898288018260020b9052565b5050610160808301516128a08288018260020b9052565b505061018091820151916128b88682018460020b9052565b5095880195935050908601906001016127d5565b509098975050505050505050565b600080604083850312156128ed57600080fd5b8235915060208301356128ff816126a7565b809150509250929050565b60008060006060848603121561291f57600080fd5b833592506020840135612931816126a7565b91506040840135612941816126a7565b809150509250925092565b60006020828403121561295e57600080fd5b5035919050565b60208082526015908201527414995cdd1c9a58dd1959081d1bc8111a585b5bdb99605a1b604082015260600190565b805161299f816126a7565b919050565b6000602082840312156129b657600080fd5b81516119f7816126a7565b805161299f816126bf565b6000602082840312156129de57600080fd5b81516119f7816126bf565b6000610180820190506129fd8284516127a1565b6020830151612a0f60208401826127a1565b506040830151612a24604084018260020b9052565b506060830151612a39606084018260020b9052565b506080830151612a4e608084018260020b9052565b5060a083015160a083015260c083015160c083015260e083015160e083015261010080840151818401525061012080840151612a8c828501826127a1565b5050610140838101519083015261016080840151612aac828501826127a1565b505092915050565b80516001600160801b038116811461299f57600080fd5b60008060008060808587031215612ae157600080fd5b84519350612af160208601612ab4565b6040860151606090960151949790965092505050565b6001600160a01b0391909116815260200190565b600060208284031215612b2d57600080fd5b5051919050565b634e487b7160e01b600052601160045260246000fd5b808201808211156115b8576115b8612b34565b634e487b7160e01b600052604160045260246000fd5b60006020808385031215612b8657600080fd5b825167ffffffffffffffff80821115612b9e57600080fd5b818501915085601f830112612bb257600080fd5b815181811115612bc457612bc4612b5d565b8060051b604051601f19603f83011681018181108582111715612be957612be9612b5d565b604052918252848201925083810185019188831115612c0757600080fd5b938501935b82851015612c2557845184529385019392850192612c0c565b98975050505050505050565b634e487b7160e01b600052603260045260246000fd5b600060018201612c5957612c59612b34565b5060010190565b6001600160a01b03929092168252602082015260400190565b60008060408385031215612c8c57600080fd5b505080516020909101519092909150565b6000806000806000806000806000806000806101808d8f031215612cc057600080fd5b8c516bffffffffffffffffffffffff81168114612cdc57600080fd5b9b50612cea60208e01612994565b9a50612cf860408e01612994565b9950612d0660608e01612994565b9850612d1460808e016129c1565b9750612d2260a08e016129c1565b9650612d3060c08e016129c1565b9550612d3e60e08e01612ab4565b94506101008d015193506101208d01519250612d5d6101408e01612ab4565b9150612d6c6101608e01612ab4565b90509295989b509295989b509295989b565b805161ffff8116811461299f57600080fd5b8051801515811461299f57600080fd5b60008060008060008060c08789031215612db957600080fd5b8651612dc4816126a7565b6020880151909650612dd5816126bf565b9450612de360408801612d7e565b9350612df160608801612d7e565b9250612dff60808801612d7e565b9150612e0d60a08801612d90565b90509295509295509295565b600060208284031215612e2b57600080fd5b6119f782612d90565b6000600160ff1b8201612e4957612e49612b34565b5060000390565b80820281158282048414176115b8576115b8612b34565b634e487b7160e01b600052601260045260246000fd5b600082612e8c57612e8c612e67565b500490565b600082612ea057612ea0612e67565b500690565b6001600160a01b03828116828216039080821115612ec557612ec5612b34565b5092915050565b8051600f81900b811461299f57600080fd5b6000806000806000806000806000806101408b8d031215612efe57600080fd5b612f078b612ab4565b9950612f1560208c01612ecc565b9850612f2360408c01612ecc565b975060608b0151965060808b0151955060a08b0151945060c08b01518060060b8114612f4e57600080fd5b60e08c0151909450612f5f816126a7565b6101008c015190935063ffffffff81168114612f7a57600080fd5b9150612f896101208c01612d90565b90509295989b9194979a509295985056fea26469706673582212203404a3ee4f33823dc8515837fbe2b7a4968fcab0dc750aa71d5a61ce096b39f064736f6c63430008110033",
  "devdoc": {
    "kind": "dev",
    "methods": {},
    "version": 1
  },
  "userdoc": {
    "kind": "user",
    "methods": {},
    "version": 1
  },
  "storageLayout": {
    "storage": [],
    "types": null
  }
}