{
  "address": "0xdAaCb9C7053c44F3161684c4b0a98A11Aa19dcd0",
  "abi": [
    {
      "inputs": [
        {
          "internalType": "uint256",
          "name": "tokenId",
          "type": "uint256"
        },
        {
          "internalType": "address",
          "name": "poolId",
          "type": "address"
        },
        {
          "internalType": "int24[]",
          "name": "tickRange",
          "type": "int24[]"
        },
        {
          "components": [
            {
              "internalType": "address",
              "name": "tokenAddress",
              "type": "address"
            },
            {
              "internalType": "uint256",
              "name": "price",
              "type": "uint256"
            }
          ],
          "internalType": "struct IProportionFacet.PoolTokenPrices[]",
          "name": "prices",
          "type": "tuple[]"
        }
      ],
      "name": "getProportionForRebalance",
      "outputs": [
        {
          "components": [
            {
              "internalType": "address[]",
              "name": "inputTokenAddresses",
              "type": "address[]"
            },
            {
              "internalType": "uint256[]",
              "name": "inputTokenAmounts",
              "type": "uint256[]"
            },
            {
              "internalType": "address[]",
              "name": "outputTokenAddresses",
              "type": "address[]"
            },
            {
              "internalType": "uint256[]",
              "name": "outputTokenProportions",
              "type": "uint256[]"
            },
            {
              "internalType": "uint256[]",
              "name": "outputTokenAmounts",
              "type": "uint256[]"
            },
            {
              "internalType": "uint256[]",
              "name": "poolProportionsUsd",
              "type": "uint256[]"
            },
            {
              "internalType": "uint256[]",
              "name": "outputSwapExpected",
              "type": "uint256[]"
            }
          ],
          "internalType": "struct IProportionFacet.ResultOfProportion",
          "name": "result",
          "type": "tuple"
        }
      ],
      "stateMutability": "view",
      "type": "function"
    },
    {
      "inputs": [
        {
          "internalType": "address",
          "name": "pair",
          "type": "address"
        },
        {
          "internalType": "int24[]",
          "name": "tickRange",
          "type": "int24[]"
        },
        {
          "components": [
            {
              "internalType": "address",
              "name": "tokenAddress",
              "type": "address"
            },
            {
              "internalType": "uint256",
              "name": "amount",
              "type": "uint256"
            },
            {
              "internalType": "uint256",
              "name": "price",
              "type": "uint256"
            }
          ],
          "internalType": "struct IProportionFacet.InputSwapToken[]",
          "name": "inputTokens",
          "type": "tuple[]"
        },
        {
          "components": [
            {
              "internalType": "address",
              "name": "tokenAddress",
              "type": "address"
            },
            {
              "internalType": "uint256",
              "name": "price",
              "type": "uint256"
            }
          ],
          "internalType": "struct IProportionFacet.PoolTokenPrices[]",
          "name": "prices",
          "type": "tuple[]"
        }
      ],
      "name": "getProportionForZap",
      "outputs": [
        {
          "components": [
            {
              "internalType": "address[]",
              "name": "inputTokenAddresses",
              "type": "address[]"
            },
            {
              "internalType": "uint256[]",
              "name": "inputTokenAmounts",
              "type": "uint256[]"
            },
            {
              "internalType": "address[]",
              "name": "outputTokenAddresses",
              "type": "address[]"
            },
            {
              "internalType": "uint256[]",
              "name": "outputTokenProportions",
              "type": "uint256[]"
            },
            {
              "internalType": "uint256[]",
              "name": "outputTokenAmounts",
              "type": "uint256[]"
            },
            {
              "internalType": "uint256[]",
              "name": "poolProportionsUsd",
              "type": "uint256[]"
            },
            {
              "internalType": "uint256[]",
              "name": "outputSwapExpected",
              "type": "uint256[]"
            }
          ],
          "internalType": "struct IProportionFacet.ResultOfProportion",
          "name": "result",
          "type": "tuple"
        }
      ],
      "stateMutability": "view",
      "type": "function"
    }
  ],
  "transactionHash": "0xcd9e08df79405371f92ea29a135dd38e126fec57b063466ba820d182d1bb840b",
  "args": [],
  "numDeployments": 7,
  "solcInputHash": "43afb12b01ee97793a487968576e5e8c",
  "bytecode": "0x608060405234801561001057600080fd5b506133fe806100206000396000f3fe608060405234801561001057600080fd5b50600436106100365760003560e01c8063b298ad6e1461003b578063ffaf3a9a14610064575b600080fd5b61004e610049366004612e49565b610077565b60405161005b9190612f3c565b60405180910390f35b61004e610072366004613012565b6110f1565b61007f612bf0565b81516002146100c35760405162461bcd60e51b815260206004820152600b60248201526a213d203220746f6b656e7360a81b60448201526064015b60405180910390fd5b604080516002808252606082018352309260009291906020830190803683375050604080516002808252606082019092529293506000929150602082015b610109612c2d565b81526020019060019003908161010157505060405163ca4f280360e01b81529091506000906001600160a01b0385169063ca4f28039061014d908b90600401613128565b6040805180830381865afa158015610169573d6000803e3d6000fd5b505050506040513d601f19601f8201168201806040525081019061018d919061313c565b836000815181106101a0576101a0613176565b602002602001015160e001846001815181106101be576101be613176565b60209081029190910101516001600160a01b0392831660e09091015291169052855186906000906101f1576101f1613176565b6020026020010151600001516001600160a01b03168260008151811061021957610219613176565b602002602001015160e001516001600160a01b031614801561028857508560018151811061024957610249613176565b6020026020010151600001516001600160a01b03168260018151811061027157610271613176565b602002602001015160e001516001600160a01b0316145b6102cb5760405162461bcd60e51b8152602060048201526014602482015273496e76616c696420696e70757420746f6b656e7360601b60448201526064016100ba565b60408051600180825281830190925290602080830190803683375050508552604080516001808252818301909252906020808301908036833701905050602086015260408051600180825281830190925290816020016020820280368337505050604086810191909152805160018082528183019092529060208083019080368337505050606086810191909152604080516002808252928101825291906020830190803683375050506080860152604080516002808252606082018352909160208301908036833750505060a086015260408051600280825260608201835290916020830190803683370190505060c0860152604051630693132f60e51b8152600481018a90526001600160a01b0385169063d26265e0906024016040805180830381865afa158015610403573d6000803e3d6000fd5b505050506040513d601f19601f82011682018060405250810190610427919061318c565b8360008151811061043a5761043a613176565b60200260200101516020018460018151811061045857610458613176565b60209081029190910181015101919091525260005b600281101561063e5786818151811061048857610488613176565b6020026020010151600001516001600160a01b031663313ce5676040518163ffffffff1660e01b8152600401602060405180830381865afa1580156104d1573d6000803e3d6000fd5b505050506040513d601f19601f820116820180604052508101906104f591906131b0565b84828151811061050757610507613176565b602002602001019060ff16908160ff16815250506000856001600160a01b031663aa9a091289848151811061053e5761053e613176565b60200260200101516020015186858151811061055c5761055c613176565b60200260200101516020015188868151811061057a5761057a613176565b6020026020010151600a61058e91906132d6565b6040516001600160e01b031960e086901b168152600481019390935260248301919091526044820152606401602060405180830381865afa1580156105d7573d6000803e3d6000fd5b505050506040513d601f19601f820116820180604052508101906105fb91906132e5565b905061060781846132fe565b92508084838151811061061c5761061c613176565b602090810291909101015160400152508061063681613311565b91505061046d565b5061064988886126f3565b8360008151811061065c5761065c613176565b60200260200101516080018460018151811061067a5761067a613176565b602090810291909101015160800191909152526040516384cc315b60e01b81526001600160a01b038516906384cc315b906106b9908b90600401613128565b602060405180830381865afa1580156106d6573d6000803e3d6000fd5b505050506040513d601f19601f820116820180604052508101906106fa91906132e5565b8260008151811061070d5761070d613176565b602002602001015160800151610723919061332a565b8260008151811061073657610736613176565b602002602001015160600181815250508260018151811061075957610759613176565b6020026020010151600a61076d91906132d6565b8260018151811061078057610780613176565b602002602001015160800151610796919061332a565b826000815181106107a9576107a9613176565b6020026020010151606001516107bf91906132fe565b826001815181106107d2576107d2613176565b60200260200101516060018181525050836001600160a01b031663aa9a0912828460008151811061080557610805613176565b6020026020010151606001518560018151811061082457610824613176565b6020026020010151606001516040518463ffffffff1660e01b815260040161085f939291909283526020830191909152604082015260600190565b602060405180830381865afa15801561087c573d6000803e3d6000fd5b505050506040513d601f19601f820116820180604052508101906108a091906132e5565b8560a001516000815181106108b7576108b7613176565b6020026020010181815250508460a001516000815181106108da576108da613176565b6020026020010151816108ed9190613341565b8560a0015160018151811061090457610904613176565b602002602001018181525050836001600160a01b031663aa9a09128660a0015160008151811061093657610936613176565b60200260200101518460008151811061095157610951613176565b602002602001015160e001516001600160a01b031663313ce5676040518163ffffffff1660e01b8152600401602060405180830381865afa15801561099a573d6000803e3d6000fd5b505050506040513d601f19601f820116820180604052508101906109be91906131b0565b6109c990600a6132d6565b896000815181106109dc576109dc613176565b6020026020010151602001516040518463ffffffff1660e01b8152600401610a17939291909283526020830191909152604082015260600190565b602060405180830381865afa158015610a34573d6000803e3d6000fd5b505050506040513d601f19601f82011682018060405250810190610a5891906132e5565b8560c00151600081518110610a6f57610a6f613176565b602002602001018181525050836001600160a01b031663aa9a09128660a00151600181518110610aa157610aa1613176565b602002602001015184600181518110610abc57610abc613176565b602002602001015160e001516001600160a01b031663313ce5676040518163ffffffff1660e01b8152600401602060405180830381865afa158015610b05573d6000803e3d6000fd5b505050506040513d601f19601f82011682018060405250810190610b2991906131b0565b610b3490600a6132d6565b89600181518110610b4757610b47613176565b6020026020010151602001516040518463ffffffff1660e01b8152600401610b82939291909283526020830191909152604082015260600190565b602060405180830381865afa158015610b9f573d6000803e3d6000fd5b505050506040513d601f19601f82011682018060405250810190610bc391906132e5565b8560c00151600181518110610bda57610bda613176565b60200260200101818152505060005b60028110156110e357828181518110610c0457610c04613176565b6020026020010151604001518660a001518281518110610c2657610c26613176565b602002602001015110156110d157846001600160a01b031663aa9a09128760a001518381518110610c5957610c59613176565b6020026020010151858481518110610c7357610c73613176565b602002602001015160400151610c899190613341565b868481518110610c9b57610c9b613176565b6020026020010151600a610caf91906132d6565b8a8581518110610cc157610cc1613176565b6020026020010151602001516040518463ffffffff1660e01b8152600401610cfc939291909283526020830191909152604082015260600190565b602060405180830381865afa158015610d19573d6000803e3d6000fd5b505050506040513d601f19601f82011682018060405250810190610d3d91906132e5565b838281518110610d4f57610d4f613176565b602002602001015160a0018181525050868181518110610d7157610d71613176565b6020026020010151600001518660000151600081518110610d9457610d94613176565b60200260200101906001600160a01b031690816001600160a01b031681525050828181518110610dc657610dc6613176565b602002602001015160a001518660200151600081518110610de957610de9613176565b602090810291909101015282610e00826001613341565b81518110610e1057610e10613176565b602002602001015160e001518660400151600081518110610e3357610e33613176565b60200260200101906001600160a01b031690816001600160a01b031681525050620f42408660600151600081518110610e6e57610e6e613176565b602002602001018181525050828181518110610e8c57610e8c613176565b602002602001015160a00151838281518110610eaa57610eaa613176565b602002602001015160200151610ec09190613341565b86608001518281518110610ed657610ed6613176565b602090810291909101015282610eed826001613341565b81518110610efd57610efd613176565b6020026020010151602001518660800151826001610f1b9190613341565b81518110610f2b57610f2b613176565b60200260200101818152505085608001518181518110610f4d57610f4d613176565b60200260200101518660c001518281518110610f6b57610f6b613176565b602002602001015111610f7f576000610fc5565b85608001518181518110610f9557610f95613176565b60200260200101518660c001518281518110610fb357610fb3613176565b6020026020010151610fc59190613341565b8660c001518281518110610fdb57610fdb613176565b60209081029190910101526080860151610ff6826001613341565b8151811061100657611006613176565b60200260200101518660c001518260016110209190613341565b8151811061103057611030613176565b6020026020010151116110445760006110a0565b6080860151611054826001613341565b8151811061106457611064613176565b60200260200101518660c0015182600161107e9190613341565b8151811061108e5761108e613176565b60200260200101516110a09190613341565b60c08701516110b0836001613341565b815181106110c0576110c0613176565b6020026020010181815250506110e3565b806110db81613311565b915050610be9565b50505050505b949350505050565b6110f9612bf0565b815160021461113f5760405162461bcd60e51b815260206004820152601260248201527170726963657320213d203220746f6b656e7360701b60448201526064016100ba565b825130906000906001600160401b0381111561115d5761115d612c93565b604051908082528060200260200182016040528015611186578160200160208202803683370190505b506040805160028082526060820190925291925060009190816020015b6111ab612c2d565b8152602001906001900390816111a357905050905060008651826000815181106111d7576111d7613176565b602002602001015160000181815250508651826001815181106111fc576111fc613176565b60209081029190910101515260405163ca4f280360e01b81526001600160a01b0385169063ca4f280390611234908c90600401613128565b6040805180830381865afa158015611250573d6000803e3d6000fd5b505050506040513d601f19601f82011682018060405250810190611274919061313c565b8360008151811061128757611287613176565b602002602001015160e001846001815181106112a5576112a5613176565b60209081029190910101516001600160a01b0392831660e09091015291169052855186906000906112d8576112d8613176565b6020026020010151600001516001600160a01b03168260008151811061130057611300613176565b602002602001015160e001516001600160a01b031614801561136f57508560018151811061133057611330613176565b6020026020010151600001516001600160a01b03168260018151811061135857611358613176565b602002602001015160e001516001600160a01b0316145b6113b25760405162461bcd60e51b8152602060048201526014602482015273496e76616c696420707269636520746f6b656e7360601b60448201526064016100ba565b86516001600160401b038111156113cb576113cb612c93565b6040519080825280602002602001820160405280156113f4578160200160208202803683370190505b50855286516001600160401b0381111561141057611410612c93565b604051908082528060200260200182016040528015611439578160200160208202803683370190505b5060208601526040805160028082526060820190925290816020016020820280368337505050604086810191909152805160028082526060820183529091602083019080368337505050606086810191909152604080516002808252928101825291906020830190803683375050506080860152604080516002808252606082018352909160208301908036833750505060a0860152604080516002808252606082018352909160208301908036833750505060c086015260005b87518110156118665787818151811061150f5761150f613176565b6020026020010151600001516001600160a01b031663313ce5676040518163ffffffff1660e01b8152600401602060405180830381865afa158015611558573d6000803e3d6000fd5b505050506040513d601f19601f8201168201806040525081019061157c91906131b0565b84828151811061158e5761158e613176565b602002602001019060ff16908160ff16815250506000856001600160a01b031663aa9a09128a84815181106115c5576115c5613176565b6020026020010151604001518b85815181106115e3576115e3613176565b60200260200101516020015188868151811061160157611601613176565b6020026020010151600a61161591906132d6565b6040516001600160e01b031960e086901b168152600481019390935260248301919091526044820152606401602060405180830381865afa15801561165e573d6000803e3d6000fd5b505050506040513d601f19601f8201168201806040525081019061168291906132e5565b905061168e81846132fe565b9250836000815181106116a3576116a3613176565b602002602001015160e001516001600160a01b03168983815181106116ca576116ca613176565b6020026020010151600001516001600160a01b0316036117325781846000815181106116f8576116f8613176565b60200260200101516000018181525050808460008151811061171c5761171c613176565b6020026020010151604001818152505050611854565b8360018151811061174557611745613176565b602002602001015160e001516001600160a01b031689838151811061176c5761176c613176565b6020026020010151600001516001600160a01b0316036117be57818460018151811061179a5761179a613176565b60200260200101516000018181525050808460018151811061171c5761171c613176565b8882815181106117d0576117d0613176565b602002602001015160000151876000015183815181106117f2576117f2613176565b60200260200101906001600160a01b031690816001600160a01b03168152505088828151811061182457611824613176565b6020026020010151602001518760200151838151811061184657611846613176565b602002602001018181525050505b8061185e81613311565b9150506114f4565b5061187189896126f3565b8360008151811061188457611884613176565b6020026020010151608001846001815181106118a2576118a2613176565b602090810291909101015160800191909152526040516384cc315b60e01b81526001600160a01b038516906384cc315b906118e1908c90600401613128565b602060405180830381865afa1580156118fe573d6000803e3d6000fd5b505050506040513d601f19601f8201168201806040525081019061192291906132e5565b8260008151811061193557611935613176565b60200260200101516080015161194b919061332a565b8260008151811061195e5761195e613176565b602002602001015160600181815250508160018151811061198157611981613176565b602002602001015160e001516001600160a01b031663313ce5676040518163ffffffff1660e01b8152600401602060405180830381865afa1580156119ca573d6000803e3d6000fd5b505050506040513d601f19601f820116820180604052508101906119ee91906131b0565b6119f990600a6132d6565b82600181518110611a0c57611a0c613176565b602002602001015160800151611a22919061332a565b82600081518110611a3557611a35613176565b602002602001015160600151611a4b91906132fe565b82600181518110611a5e57611a5e613176565b60200260200101516060018181525050836001600160a01b031663aa9a09128284600081518110611a9157611a91613176565b60200260200101516060015185600181518110611ab057611ab0613176565b6020026020010151606001516040518463ffffffff1660e01b8152600401611aeb939291909283526020830191909152604082015260600190565b602060405180830381865afa158015611b08573d6000803e3d6000fd5b505050506040513d601f19601f82011682018060405250810190611b2c91906132e5565b8560a00151600081518110611b4357611b43613176565b6020026020010181815250508460a00151600081518110611b6657611b66613176565b602002602001015181611b799190613341565b8560a00151600181518110611b9057611b90613176565b602002602001018181525050836001600160a01b031663aa9a09128660a00151600081518110611bc257611bc2613176565b602002602001015184600081518110611bdd57611bdd613176565b602002602001015160e001516001600160a01b031663313ce5676040518163ffffffff1660e01b8152600401602060405180830381865afa158015611c26573d6000803e3d6000fd5b505050506040513d601f19601f82011682018060405250810190611c4a91906131b0565b611c5590600a6132d6565b89600081518110611c6857611c68613176565b6020026020010151602001516040518463ffffffff1660e01b8152600401611ca3939291909283526020830191909152604082015260600190565b602060405180830381865afa158015611cc0573d6000803e3d6000fd5b505050506040513d601f19601f82011682018060405250810190611ce491906132e5565b8560c00151600081518110611cfb57611cfb613176565b602002602001018181525050836001600160a01b031663aa9a09128660a00151600181518110611d2d57611d2d613176565b602002602001015184600181518110611d4857611d48613176565b602002602001015160e001516001600160a01b031663313ce5676040518163ffffffff1660e01b8152600401602060405180830381865afa158015611d91573d6000803e3d6000fd5b505050506040513d601f19601f82011682018060405250810190611db591906131b0565b611dc090600a6132d6565b89600181518110611dd357611dd3613176565b6020026020010151602001516040518463ffffffff1660e01b8152600401611e0e939291909283526020830191909152604082015260600190565b602060405180830381865afa158015611e2b573d6000803e3d6000fd5b505050506040513d601f19601f82011682018060405250810190611e4f91906132e5565b8560c00151600181518110611e6657611e66613176565b60200260200101818152505081600081518110611e8557611e85613176565b6020026020010151604001518560a00151600081518110611ea857611ea8613176565b6020026020010151148015611ef8575081600181518110611ecb57611ecb613176565b6020026020010151604001518560a00151600181518110611eee57611eee613176565b6020026020010151145b8015611f67575081600081518110611f1257611f12613176565b60200260200101516060015160001480611f67575081600181518110611f3a57611f3a613176565b60200260200101516060015182600081518110611f5957611f59613176565b602002602001015160600151145b15611f995760608086526020860152611f838783876000612ab0565b611f908783876001612ab0565b505050506110e9565b60005b600281101561244b578751838281518110611fb957611fb9613176565b60200260200101516000015110801561200b5750828181518110611fdf57611fdf613176565b6020026020010151604001518660a00151828151811061200157612001613176565b6020026020010151105b1561243957846001600160a01b031663aa9a09128760a00151838151811061203557612035613176565b602002602001015185848151811061204f5761204f613176565b6020026020010151604001516120659190613341565b8686858151811061207857612078613176565b6020026020010151600001518151811061209457612094613176565b6020026020010151600a6120a891906132d6565b8b8786815181106120bb576120bb613176565b602002602001015160000151815181106120d7576120d7613176565b6020026020010151604001516040518463ffffffff1660e01b8152600401612112939291909283526020830191909152604082015260600190565b602060405180830381865afa15801561212f573d6000803e3d6000fd5b505050506040513d601f19601f8201168201806040525081019061215391906132e5565b83828151811061216557612165613176565b602002602001015160a00181815250508783828151811061218857612188613176565b602002602001015160000151815181106121a4576121a4613176565b60200260200101516000015186600001518483815181106121c7576121c7613176565b602002602001015160000151815181106121e3576121e3613176565b60200260200101906001600160a01b031690816001600160a01b03168152505082818151811061221557612215613176565b602002602001015160a00151866020015184838151811061223857612238613176565b6020026020010151600001518151811061225457612254613176565b60209081029190910101528261226b826001613341565b8151811061227b5761227b613176565b602002602001015160e00151866040015160008151811061229e5761229e613176565b60200260200101906001600160a01b031690816001600160a01b031681525050620f424086606001516000815181106122d9576122d9613176565b6020026020010181815250508281815181106122f7576122f7613176565b602002602001015160a001518884838151811061231657612316613176565b6020026020010151600001518151811061233257612332613176565b6020026020010151602001516123489190613341565b8660800151828151811061235e5761235e613176565b6020026020010181815250508560800151818151811061238057612380613176565b60200260200101518660c00151828151811061239e5761239e613176565b6020026020010151116123b25760006123f8565b856080015181815181106123c8576123c8613176565b60200260200101518660c0015182815181106123e6576123e6613176565b60200260200101516123f89190613341565b8660c00151828151811061240e5761240e613176565b602090810291909101015261242f88848861242a856001613341565b612ab0565b50505050506110e9565b8061244381613311565b915050611f9c565b508160008151811061245f5761245f613176565b602002602001015160e00151856040015160008151811061248257612482613176565b60200260200101906001600160a01b031690816001600160a01b031681525050816001815181106124b5576124b5613176565b602002602001015160e0015185604001516001815181106124d8576124d8613176565b60200260200101906001600160a01b031690816001600160a01b031681525050836001600160a01b031663aa9a09128360008151811061251a5761251a613176565b6020026020010151604001518760a0015160008151811061253d5761253d613176565b602002602001015161254f9190613341565b620f42408560018151811061256657612566613176565b6020026020010151604001518660008151811061258557612585613176565b60200260200101516040015161259b91906132fe565b8960a001516001815181106125b2576125b2613176565b60200260200101518a60a001516000815181106125d1576125d1613176565b60200260200101516125e391906132fe565b6125ed9190613341565b6040516001600160e01b031960e086901b168152600481019390935260248301919091526044820152606401602060405180830381865afa158015612636573d6000803e3d6000fd5b505050506040513d601f19601f8201168201806040525081019061265a91906132e5565b856060015160008151811061267157612671613176565b602002602001018181525050846060015160008151811061269457612694613176565b6020026020010151620f42406126aa9190613341565b85606001516001815181106126c1576126c1613176565b6020026020010181815250506126da8783876000612ab0565b6126e78783876001612ab0565b50505050949350505050565b60405163d79357fb60e01b81526000908190309082908190839063d79357fb90612721908a90600401613128565b6040805180830381865afa15801561273d573d6000803e3d6000fd5b505050506040513d601f19601f82011682018060405250810190612761919061318c565b9092509050600061277383600a613354565b9050600061278283600a613354565b90506000856001600160a01b0316635730ba088b6040518263ffffffff1660e01b81526004016127b29190613128565b602060405180830381865afa1580156127cf573d6000803e3d6000fd5b505050506040513d601f19601f820116820180604052508101906127f39190613360565b90506000866001600160a01b031663986cfba38b60008151811061281957612819613176565b60200260200101516040518263ffffffff1660e01b8152600401612846919060029190910b815260200190565b602060405180830381865afa158015612863573d6000803e3d6000fd5b505050506040513d601f19601f820116820180604052508101906128879190613360565b90506000876001600160a01b031663986cfba38c6001815181106128ad576128ad613176565b60200260200101516040518263ffffffff1660e01b81526004016128da919060029190910b815260200190565b602060405180830381865afa1580156128f7573d6000803e3d6000fd5b505050506040513d601f19601f8201168201806040525081019061291b9190613360565b905060006001600160a01b038916636098fd4a85858561293d8b6103e861332a565b6129498b6103e861332a565b6040516001600160e01b031960e088901b1681526001600160a01b03958616600482015293851660248501529390911660448301526064820152608481019190915260a401602060405180830381865afa1580156129ab573d6000803e3d6000fd5b505050506040513d601f19601f820116820180604052508101906129cf919061337d565b60405163c72e160b60e01b81526001600160a01b038681166004830152858116602483015284811660448301526001600160801b0383166064830152919250908a169063c72e160b906084016040805180830381865afa158015612a37573d6000803e3d6000fd5b505050506040513d601f19601f82011682018060405250810190612a5b919061318c565b909b5099506000858711612a6f5785612a71565b865b9050612a7d87826133a6565b612a87908d61332a565b9b50612a9386826133a6565b612a9d908c61332a565b9a50505050505050505050509250929050565b8351838281518110612ac457612ac4613176565b60200260200101516000015110612adc576000612b18565b83838281518110612aef57612aef613176565b60200260200101516000015181518110612b0b57612b0b613176565b6020026020010151602001515b82608001518281518110612b2e57612b2e613176565b60200260200101818152505081608001518181518110612b5057612b50613176565b60200260200101518260c001518281518110612b6e57612b6e613176565b602002602001015111612b82576000612bc8565b81608001518181518110612b9857612b98613176565b60200260200101518260c001518281518110612bb657612bb6613176565b6020026020010151612bc89190613341565b8260c001518281518110612bde57612bde613176565b60200260200101818152505050505050565b6040518060e00160405280606081526020016060815260200160608152602001606081526020016060815260200160608152602001606081525090565b6040518061010001604052806000815260200160008152602001600081526020016000815260200160008152602001600081526020016000815260200160006001600160a01b031681525090565b6001600160a01b0381168114612c9057600080fd5b50565b634e487b7160e01b600052604160045260246000fd5b604080519081016001600160401b0381118282101715612ccb57612ccb612c93565b60405290565b604051606081016001600160401b0381118282101715612ccb57612ccb612c93565b604051601f8201601f191681016001600160401b0381118282101715612d1b57612d1b612c93565b604052919050565b60006001600160401b03821115612d3c57612d3c612c93565b5060051b60200190565b600082601f830112612d5757600080fd5b81356020612d6c612d6783612d23565b612cf3565b82815260059290921b84018101918181019086841115612d8b57600080fd5b8286015b84811015612db65780358060020b8114612da95760008081fd5b8352918301918301612d8f565b509695505050505050565b600082601f830112612dd257600080fd5b81356020612de2612d6783612d23565b82815260069290921b84018101918181019086841115612e0157600080fd5b8286015b84811015612db65760408189031215612e1e5760008081fd5b612e26612ca9565b8135612e3181612c7b565b81528185013585820152835291830191604001612e05565b60008060008060808587031215612e5f57600080fd5b843593506020850135612e7181612c7b565b925060408501356001600160401b0380821115612e8d57600080fd5b612e9988838901612d46565b93506060870135915080821115612eaf57600080fd5b50612ebc87828801612dc1565b91505092959194509250565b600081518084526020808501945080840160005b83811015612f015781516001600160a01b031687529582019590820190600101612edc565b509495945050505050565b600081518084526020808501945080840160005b83811015612f0157815187529582019590820190600101612f20565b602081526000825160e06020840152612f59610100840182612ec8565b90506020840151601f1980858403016040860152612f778383612f0c565b92506040860151915080858403016060860152612f948383612ec8565b92506060860151915080858403016080860152612fb18383612f0c565b925060808601519150808584030160a0860152612fce8383612f0c565b925060a08601519150808584030160c0860152612feb8383612f0c565b925060c08601519150808584030160e0860152506130098282612f0c565b95945050505050565b6000806000806080858703121561302857600080fd5b843561303381612c7b565b93506020858101356001600160401b038082111561305057600080fd5b61305c89838a01612d46565b955060409150818801358181111561307357600080fd5b8801601f81018a1361308457600080fd5b8035613092612d6782612d23565b8181526060918202830186019186820191908d8411156130b157600080fd5b938701935b838510156131025780858f0312156130ce5760008081fd5b6130d6612cd1565b85356130e181612c7b565b815285890135898201528786013588820152835293840193918701916130b6565b9098508b013595505050508083111561311a57600080fd5b5050612ebc87828801612dc1565b6001600160a01b0391909116815260200190565b6000806040838503121561314f57600080fd5b825161315a81612c7b565b602084015190925061316b81612c7b565b809150509250929050565b634e487b7160e01b600052603260045260246000fd5b6000806040838503121561319f57600080fd5b505080516020909101519092909150565b6000602082840312156131c257600080fd5b815160ff811681146131d357600080fd5b9392505050565b634e487b7160e01b600052601160045260246000fd5b600181815b8085111561322b578160001904821115613211576132116131da565b8085161561321e57918102915b93841c93908002906131f5565b509250929050565b600082613242575060016132d0565b8161324f575060006132d0565b8160018114613265576002811461326f5761328b565b60019150506132d0565b60ff841115613280576132806131da565b50506001821b6132d0565b5060208310610133831016604e8410600b84101617156132ae575081810a6132d0565b6132b883836131f0565b80600019048211156132cc576132cc6131da565b0290505b92915050565b60006131d360ff841683613233565b6000602082840312156132f757600080fd5b5051919050565b808201808211156132d0576132d06131da565b600060018201613323576133236131da565b5060010190565b80820281158282048414176132d0576132d06131da565b818103818111156132d0576132d06131da565b60006131d38383613233565b60006020828403121561337257600080fd5b81516131d381612c7b565b60006020828403121561338f57600080fd5b81516001600160801b03811681146131d357600080fd5b6000826133c357634e487b7160e01b600052601260045260246000fd5b50049056fea2646970667358221220cb14d56adbbe91241ffb5f31889515a85aca634eb0fdfe280368cf2d93d8633a64736f6c63430008110033",
  "devdoc": {
    "kind": "dev",
    "methods": {},
    "version": 1
  },
  "userdoc": {
    "kind": "user",
    "methods": {},
    "version": 1
  },
  "storageLayout": {
    "storage": [],
    "types": null
  }
}