{
  "address": "0x2FcEFE385A9d819F815Cd4C719fCfa9E719c102E",
  "abi": [
    {
      "inputs": [
        {
          "internalType": "address",
          "name": "pair",
          "type": "address"
        },
        {
          "internalType": "int24[]",
          "name": "tickRange",
          "type": "int24[]"
        }
      ],
      "name": "getProportion",
      "outputs": [
        {
          "internalType": "uint256",
          "name": "token0Amount",
          "type": "uint256"
        },
        {
          "internalType": "uint256",
          "name": "token1Amount",
          "type": "uint256"
        }
      ],
      "stateMutability": "view",
      "type": "function"
    },
    {
      "inputs": [
        {
          "internalType": "address",
          "name": "pair",
          "type": "address"
        },
        {
          "internalType": "int24[]",
          "name": "tickRange",
          "type": "int24[]"
        },
        {
          "components": [
            {
              "internalType": "address",
              "name": "tokenAddress",
              "type": "address"
            },
            {
              "internalType": "uint256",
              "name": "amount",
              "type": "uint256"
            },
            {
              "internalType": "uint256",
              "name": "price",
              "type": "uint256"
            }
          ],
          "internalType": "struct IProportionFacet.InputSwapToken[]",
          "name": "inputTokens",
          "type": "tuple[]"
        },
        {
          "internalType": "uint256",
          "name": "tokenId",
          "type": "uint256"
        }
      ],
      "name": "getProportionForZap",
      "outputs": [
        {
          "components": [
            {
              "internalType": "address[]",
              "name": "inputTokenAddresses",
              "type": "address[]"
            },
            {
              "internalType": "uint256[]",
              "name": "inputTokenAmounts",
              "type": "uint256[]"
            },
            {
              "internalType": "address[]",
              "name": "outputTokenAddresses",
              "type": "address[]"
            },
            {
              "internalType": "uint256[]",
              "name": "outputTokenProportions",
              "type": "uint256[]"
            },
            {
              "internalType": "uint256[]",
              "name": "outputTokenAmounts",
              "type": "uint256[]"
            },
            {
              "internalType": "uint256[]",
              "name": "poolProportionsUsd",
              "type": "uint256[]"
            }
          ],
          "internalType": "struct IProportionFacet.ResultOfProportion",
          "name": "result",
          "type": "tuple"
        }
      ],
      "stateMutability": "view",
      "type": "function"
    }
  ],
  "transactionHash": "0x1d2702838d1786a7b8a1930ef4367d104852b0bc307d13cfa7cbfc0c7fbd7e32",
  "args": [],
  "numDeployments": 5,
  "solcInputHash": "8e13236ac8a4b3dd85786f9ebb42b7d5",
  "bytecode": "0x608060405234801561001057600080fd5b50611fae806100206000396000f3fe608060405234801561001057600080fd5b50600436106100365760003560e01c806351dcdc9a1461003b57806395eb1f5714610068575b600080fd5b61004e610049366004611a57565b610088565b604080519283526020830191909152015b60405180910390f35b61007b610076366004611aa6565b610445565b60405161005f9190611c20565b60405163d79357fb60e01b81526000908190309082908190839063d79357fb906100b6908a90600401611cd8565b6040805180830381865afa1580156100d2573d6000803e3d6000fd5b505050506040513d601f19601f820116820180604052508101906100f69190611cec565b9092509050600061010883600a611e0c565b9050600061011783600a611e0c565b90506000856001600160a01b0316635730ba088b6040518263ffffffff1660e01b81526004016101479190611cd8565b602060405180830381865afa158015610164573d6000803e3d6000fd5b505050506040513d601f19601f820116820180604052508101906101889190611e1f565b90506000866001600160a01b031663986cfba38b6000815181106101ae576101ae611e3c565b60200260200101516040518263ffffffff1660e01b81526004016101db919060029190910b815260200190565b602060405180830381865afa1580156101f8573d6000803e3d6000fd5b505050506040513d601f19601f8201168201806040525081019061021c9190611e1f565b90506000876001600160a01b031663986cfba38c60018151811061024257610242611e3c565b60200260200101516040518263ffffffff1660e01b815260040161026f919060029190910b815260200190565b602060405180830381865afa15801561028c573d6000803e3d6000fd5b505050506040513d601f19601f820116820180604052508101906102b09190611e1f565b905060006001600160a01b038916636098fd4a8585856102d28b6103e8611e52565b6102de8b6103e8611e52565b6040516001600160e01b031960e088901b1681526001600160a01b03958616600482015293851660248501529390911660448301526064820152608481019190915260a401602060405180830381865afa158015610340573d6000803e3d6000fd5b505050506040513d601f19601f820116820180604052508101906103649190611e69565b60405163c72e160b60e01b81526001600160a01b038681166004830152858116602483015284811660448301526001600160801b0383166064830152919250908a169063c72e160b906084016040805180830381865afa1580156103cc573d6000803e3d6000fd5b505050506040513d601f19601f820116820180604052508101906103f09190611cec565b909b50995060008587116104045785610406565b865b90506104128782611e92565b61041c908d611e52565b9b506104288682611e92565b610432908c611e52565b9a50505050505050505050509250929050565b61047e6040518060c001604052806060815260200160608152602001606081526020016060815260200160608152602001606081525090565b825130906000906001600160401b0381111561049c5761049c61194b565b6040519080825280602002602001820160405280156104c5578160200160208202803683370190505b506040805160028082526060820190925291925060009190816020015b6105336040518061010001604052806000815260200160008152602001600081526020016000815260200160008152602001600081526020016000815260200160006001600160a01b031681525090565b8152602001906001900390816104e2579050509050600086518260008151811061055f5761055f611e3c565b6020026020010151600001818152505086518260018151811061058457610584611e3c565b60209081029190910101515260405163ca4f280360e01b81526001600160a01b0385169063ca4f2803906105bc908c90600401611cd8565b6040805180830381865afa1580156105d8573d6000803e3d6000fd5b505050506040513d601f19601f820116820180604052508101906105fc9190611eb4565b8360008151811061060f5761060f611e3c565b602002602001015160e0018460018151811061062d5761062d611e3c565b60209081029190910101516001600160a01b0392831660e0909101529116905286516001600160401b038111156106665761066661194b565b60405190808252806020026020018201604052801561068f578160200160208202803683370190505b50855286516001600160401b038111156106ab576106ab61194b565b6040519080825280602002602001820160405280156106d4578160200160208202803683370190505b5060208601526040805160028082526060820190925290816020016020820280368337505050604086810191909152805160028082526060820183529091602083019080368337505050606086810191909152604080516002808252928101825291906020830190803683375050506080860152604080516002808252606082018352909160208301908036833750505060a086015260005b8751811015610adf5787818151811061078857610788611e3c565b6020026020010151600001516001600160a01b031663313ce5676040518163ffffffff1660e01b8152600401602060405180830381865afa1580156107d1573d6000803e3d6000fd5b505050506040513d601f19601f820116820180604052508101906107f59190611eee565b84828151811061080757610807611e3c565b602002602001019060ff16908160ff16815250506000856001600160a01b031663aa9a09128a848151811061083e5761083e611e3c565b6020026020010151604001518b858151811061085c5761085c611e3c565b60200260200101516020015188868151811061087a5761087a611e3c565b6020026020010151600a61088e9190611f11565b6040516001600160e01b031960e086901b168152600481019390935260248301919091526044820152606401602060405180830381865afa1580156108d7573d6000803e3d6000fd5b505050506040513d601f19601f820116820180604052508101906108fb9190611f20565b90506109078184611f39565b92508360008151811061091c5761091c611e3c565b602002602001015160e001516001600160a01b031689838151811061094357610943611e3c565b6020026020010151600001516001600160a01b0316036109ab57818460008151811061097157610971611e3c565b60200260200101516000018181525050808460008151811061099557610995611e3c565b6020026020010151604001818152505050610acd565b836001815181106109be576109be611e3c565b602002602001015160e001516001600160a01b03168983815181106109e5576109e5611e3c565b6020026020010151600001516001600160a01b031603610a37578184600181518110610a1357610a13611e3c565b60200260200101516000018181525050808460018151811061099557610995611e3c565b888281518110610a4957610a49611e3c565b60200260200101516000015187600001518381518110610a6b57610a6b611e3c565b60200260200101906001600160a01b031690816001600160a01b031681525050888281518110610a9d57610a9d611e3c565b60200260200101516020015187602001518381518110610abf57610abf611e3c565b602002602001018181525050505b80610ad781611f4c565b91505061076d565b5085600003610b3b57610af28989610088565b83600081518110610b0557610b05611e3c565b602002602001015160800184600181518110610b2357610b23611e3c565b60209081029190910101516080019190915252610be8565b604051630693132f60e51b8152600481018790526001600160a01b0385169063d26265e0906024016040805180830381865afa158015610b7f573d6000803e3d6000fd5b505050506040513d601f19601f82011682018060405250810190610ba39190611cec565b83600081518110610bb657610bb6611e3c565b602002602001015160800184600181518110610bd457610bd4611e3c565b602090810291909101015160800191909152525b6040516384cc315b60e01b81526001600160a01b038516906384cc315b90610c14908c90600401611cd8565b602060405180830381865afa158015610c31573d6000803e3d6000fd5b505050506040513d601f19601f82011682018060405250810190610c559190611f20565b82600081518110610c6857610c68611e3c565b602002602001015160800151610c7e9190611e52565b82600081518110610c9157610c91611e3c565b6020026020010151606001818152505081600181518110610cb457610cb4611e3c565b602002602001015160e001516001600160a01b031663313ce5676040518163ffffffff1660e01b8152600401602060405180830381865afa158015610cfd573d6000803e3d6000fd5b505050506040513d601f19601f82011682018060405250810190610d219190611eee565b610d2c90600a611f11565b82600181518110610d3f57610d3f611e3c565b602002602001015160800151610d559190611e52565b82600081518110610d6857610d68611e3c565b602002602001015160600151610d7e9190611f39565b82600181518110610d9157610d91611e3c565b60200260200101516060018181525050836001600160a01b031663aa9a09128284600081518110610dc457610dc4611e3c565b60200260200101516060015185600181518110610de357610de3611e3c565b6020026020010151606001516040518463ffffffff1660e01b8152600401610e1e939291909283526020830191909152604082015260600190565b602060405180830381865afa158015610e3b573d6000803e3d6000fd5b505050506040513d601f19601f82011682018060405250810190610e5f9190611f20565b8560a00151600081518110610e7657610e76611e3c565b6020026020010181815250508460a00151600081518110610e9957610e99611e3c565b602002602001015181610eac9190611f65565b8560a00151600181518110610ec357610ec3611e3c565b60200260200101818152505081600081518110610ee257610ee2611e3c565b6020026020010151604001518560a00151600081518110610f0557610f05611e3c565b6020026020010151148015610f55575081600181518110610f2857610f28611e3c565b6020026020010151604001518560a00151600181518110610f4b57610f4b611e3c565b6020026020010151145b8015610fc4575081600081518110610f6f57610f6f611e3c565b60200260200101516060015160001480610fc4575081600181518110610f9757610f97611e3c565b60200260200101516060015182600081518110610fb657610fb6611e3c565b602002602001015160600151145b156110f65760608086526020860152865182518390600090610fe857610fe8611e3c565b6020026020010151600001511061100057600061103d565b868260008151811061101457611014611e3c565b6020026020010151600001518151811061103057611030611e3c565b6020026020010151602001515b856080015160008151811061105457611054611e3c565b60200260200101818152505086518260018151811061107557611075611e3c565b6020026020010151600001511061108d5760006110ca565b86826001815181106110a1576110a1611e3c565b602002602001015160000151815181106110bd576110bd611e3c565b6020026020010151602001515b85608001516001815181106110e1576110e1611e3c565b6020026020010181815250505050505061192b565b60005b600281101561158a57875183828151811061111657611116611e3c565b602002602001015160000151108015611168575082818151811061113c5761113c611e3c565b6020026020010151604001518660a00151828151811061115e5761115e611e3c565b6020026020010151105b1561157857846001600160a01b031663aa9a09128760a00151838151811061119257611192611e3c565b60200260200101518584815181106111ac576111ac611e3c565b6020026020010151604001516111c29190611f65565b868685815181106111d5576111d5611e3c565b602002602001015160000151815181106111f1576111f1611e3c565b6020026020010151600a6112059190611f11565b8b87868151811061121857611218611e3c565b6020026020010151600001518151811061123457611234611e3c565b6020026020010151604001516040518463ffffffff1660e01b815260040161126f939291909283526020830191909152604082015260600190565b602060405180830381865afa15801561128c573d6000803e3d6000fd5b505050506040513d601f19601f820116820180604052508101906112b09190611f20565b8382815181106112c2576112c2611e3c565b602002602001015160a0018181525050878382815181106112e5576112e5611e3c565b6020026020010151600001518151811061130157611301611e3c565b602002602001015160000151866000015184838151811061132457611324611e3c565b6020026020010151600001518151811061134057611340611e3c565b60200260200101906001600160a01b031690816001600160a01b03168152505082818151811061137257611372611e3c565b602002602001015160a00151866020015184838151811061139557611395611e3c565b602002602001015160000151815181106113b1576113b1611e3c565b6020908102919091010152826113c8826001611f65565b815181106113d8576113d8611e3c565b602002602001015160e0015186604001516000815181106113fb576113fb611e3c565b60200260200101906001600160a01b031690816001600160a01b031681525050620f4240866060015160008151811061143657611436611e3c565b60200260200101818152505082818151811061145457611454611e3c565b602002602001015160a001518884838151811061147357611473611e3c565b6020026020010151600001518151811061148f5761148f611e3c565b6020026020010151602001516114a59190611f65565b866080015182815181106114bb576114bb611e3c565b60209081029190910101528751836114d4836001611f65565b815181106114e4576114e4611e3c565b602002602001015160000151106114fc576000611542565b8783611509836001611f65565b8151811061151957611519611e3c565b6020026020010151600001518151811061153557611535611e3c565b6020026020010151602001515b6080870151611552836001611f65565b8151811061156257611562611e3c565b602002602001018181525050505050505061192b565b8061158281611f4c565b9150506110f9565b508160008151811061159e5761159e611e3c565b602002602001015160e0015185604001516000815181106115c1576115c1611e3c565b60200260200101906001600160a01b031690816001600160a01b031681525050816001815181106115f4576115f4611e3c565b602002602001015160e00151856040015160018151811061161757611617611e3c565b60200260200101906001600160a01b031690816001600160a01b031681525050836001600160a01b031663aa9a09128360008151811061165957611659611e3c565b6020026020010151604001518760a0015160008151811061167c5761167c611e3c565b602002602001015161168e9190611f65565b620f4240856001815181106116a5576116a5611e3c565b602002602001015160400151866000815181106116c4576116c4611e3c565b6020026020010151604001516116da9190611f39565b8960a001516001815181106116f1576116f1611e3c565b60200260200101518a60a0015160008151811061171057611710611e3c565b60200260200101516117229190611f39565b61172c9190611f65565b6040516001600160e01b031960e086901b168152600481019390935260248301919091526044820152606401602060405180830381865afa158015611775573d6000803e3d6000fd5b505050506040513d601f19601f820116820180604052508101906117999190611f20565b85606001516000815181106117b0576117b0611e3c565b60200260200101818152505084606001516000815181106117d3576117d3611e3c565b6020026020010151620f42406117e99190611f65565b856060015160018151811061180057611800611e3c565b60200260200101818152505086518260008151811061182157611821611e3c565b60200260200101516000015110611839576000611876565b868260008151811061184d5761184d611e3c565b6020026020010151600001518151811061186957611869611e3c565b6020026020010151602001515b856080015160008151811061188d5761188d611e3c565b6020026020010181815250508651826001815181106118ae576118ae611e3c565b602002602001015160000151106118c6576000611903565b86826001815181106118da576118da611e3c565b602002602001015160000151815181106118f6576118f6611e3c565b6020026020010151602001515b856080015160018151811061191a5761191a611e3c565b602002602001018181525050505050505b949350505050565b6001600160a01b038116811461194857600080fd5b50565b634e487b7160e01b600052604160045260246000fd5b604051606081016001600160401b03811182821017156119835761198361194b565b60405290565b604051601f8201601f191681016001600160401b03811182821017156119b1576119b161194b565b604052919050565b60006001600160401b038211156119d2576119d261194b565b5060051b60200190565b600082601f8301126119ed57600080fd5b81356020611a026119fd836119b9565b611989565b82815260059290921b84018101918181019086841115611a2157600080fd5b8286015b84811015611a4c5780358060020b8114611a3f5760008081fd5b8352918301918301611a25565b509695505050505050565b60008060408385031215611a6a57600080fd5b8235611a7581611933565b915060208301356001600160401b03811115611a9057600080fd5b611a9c858286016119dc565b9150509250929050565b60008060008060808587031215611abc57600080fd5b8435611ac781611933565b93506020858101356001600160401b0380821115611ae457600080fd5b611af089838a016119dc565b9550604091508188013581811115611b0757600080fd5b88019050601f81018913611b1a57600080fd5b8035611b286119fd826119b9565b8181526060918202830185019185820191908c841115611b4757600080fd5b938601935b83851015611b985780858e031215611b645760008081fd5b611b6c611961565b8535611b7781611933565b81528588013588820152868601358782015283529384019391860191611b4c565b999c989b5099909801359750505050505050565b600081518084526020808501945080840160005b83811015611be55781516001600160a01b031687529582019590820190600101611bc0565b509495945050505050565b600081518084526020808501945080840160005b83811015611be557815187529582019590820190600101611c04565b602081526000825160c06020840152611c3c60e0840182611bac565b90506020840151601f1980858403016040860152611c5a8383611bf0565b92506040860151915080858403016060860152611c778383611bac565b92506060860151915080858403016080860152611c948383611bf0565b925060808601519150808584030160a0860152611cb18383611bf0565b925060a08601519150808584030160c086015250611ccf8282611bf0565b95945050505050565b6001600160a01b0391909116815260200190565b60008060408385031215611cff57600080fd5b505080516020909101519092909150565b634e487b7160e01b600052601160045260246000fd5b600181815b80851115611d61578160001904821115611d4757611d47611d10565b80851615611d5457918102915b93841c9390800290611d2b565b509250929050565b600082611d7857506001611e06565b81611d8557506000611e06565b8160018114611d9b5760028114611da557611dc1565b6001915050611e06565b60ff841115611db657611db6611d10565b50506001821b611e06565b5060208310610133831016604e8410600b8410161715611de4575081810a611e06565b611dee8383611d26565b8060001904821115611e0257611e02611d10565b0290505b92915050565b6000611e188383611d69565b9392505050565b600060208284031215611e3157600080fd5b8151611e1881611933565b634e487b7160e01b600052603260045260246000fd5b8082028115828204841417611e0657611e06611d10565b600060208284031215611e7b57600080fd5b81516001600160801b0381168114611e1857600080fd5b600082611eaf57634e487b7160e01b600052601260045260246000fd5b500490565b60008060408385031215611ec757600080fd5b8251611ed281611933565b6020840151909250611ee381611933565b809150509250929050565b600060208284031215611f0057600080fd5b815160ff81168114611e1857600080fd5b6000611e1860ff841683611d69565b600060208284031215611f3257600080fd5b5051919050565b80820180821115611e0657611e06611d10565b600060018201611f5e57611f5e611d10565b5060010190565b81810381811115611e0657611e06611d1056fea2646970667358221220d1e8bbb80a44269bd53fd0fc239df8d73ea67e4883c3e3de1a7867e580b5a67264736f6c63430008110033",
  "devdoc": {
    "kind": "dev",
    "methods": {},
    "version": 1
  },
  "userdoc": {
    "kind": "user",
    "methods": {},
    "version": 1
  },
  "storageLayout": {
    "storage": [],
    "types": null
  }
}