{
  "address": "0xba90572Aa6166e6A84eE0B6a81b1Ba745E8F20a4",
  "abi": [
    {
      "inputs": [
        {
          "internalType": "address",
          "name": "pair",
          "type": "address"
        },
        {
          "internalType": "int24[]",
          "name": "tickRange",
          "type": "int24[]"
        },
        {
          "components": [
            {
              "internalType": "address",
              "name": "tokenAddress",
              "type": "address"
            },
            {
              "internalType": "uint256",
              "name": "amount",
              "type": "uint256"
            },
            {
              "internalType": "uint256",
              "name": "price",
              "type": "uint256"
            }
          ],
          "internalType": "struct IProportionFacet.InputSwapToken[]",
          "name": "inputTokens",
          "type": "tuple[]"
        }
      ],
      "name": "getProportionForZap",
      "outputs": [
        {
          "components": [
            {
              "internalType": "address[]",
              "name": "inputTokenAddresses",
              "type": "address[]"
            },
            {
              "internalType": "uint256[]",
              "name": "inputTokenAmounts",
              "type": "uint256[]"
            },
            {
              "internalType": "address[]",
              "name": "outputTokenAddresses",
              "type": "address[]"
            },
            {
              "internalType": "uint256[]",
              "name": "outputTokenProportions",
              "type": "uint256[]"
            },
            {
              "internalType": "uint256[]",
              "name": "outputTokenAmounts",
              "type": "uint256[]"
            },
            {
              "internalType": "uint256[]",
              "name": "poolProportionsUsd",
              "type": "uint256[]"
            }
          ],
          "internalType": "struct IProportionFacet.ResultOfProportion",
          "name": "result",
          "type": "tuple"
        }
      ],
      "stateMutability": "view",
      "type": "function"
    }
  ],
  "transactionHash": "0x86a4b535ae20e35e50ccf2f839160e73456e3ce2e3a7c02d98c7b324799c40b3",
  "args": [],
  "numDeployments": 1,
  "solcInputHash": "e4e29db725c5131624a64ffbc85474e6",
  "bytecode": "0x608060405234801561001057600080fd5b50611e85806100206000396000f3fe608060405234801561001057600080fd5b506004361061002b5760003560e01c80638866c09f14610030575b600080fd5b61004361003e3660046119ae565b610059565b6040516100509190611afe565b60405180910390f35b6100926040518060c001604052806060815260200160608152602001606081526020016060815260200160608152602001606081525090565b815130906000906001600160401b038111156100b0576100b061187b565b6040519080825280602002602001820160405280156100d9578160200160208202803683370190505b506040805160028082526060820190925291925060009190816020015b61013f6040518060e0016040528060008152602001600081526020016000815260200160008152602001600081526020016000815260200160006001600160a01b031681525090565b8152602001906001900390816100f6579050509050600085518260008151811061016b5761016b611bb6565b6020026020010151600001818152505085518260018151811061019057610190611bb6565b60209081029190910101515260405163ca4f280360e01b81526001600160a01b0385169063ca4f2803906101c8908b90600401611bcc565b6040805180830381865afa1580156101e4573d6000803e3d6000fd5b505050506040513d601f19601f820116820180604052508101906102089190611be0565b8360008151811061021b5761021b611bb6565b602002602001015160c0018460018151811061023957610239611bb6565b60209081029190910101516001600160a01b0392831660c0909101529116905285516001600160401b038111156102725761027261187b565b60405190808252806020026020018201604052801561029b578160200160208202803683370190505b50855285516001600160401b038111156102b7576102b761187b565b6040519080825280602002602001820160405280156102e0578160200160208202803683370190505b5060208601526040805160028082526060820190925290816020016020820280368337505050604086810191909152805160028082526060820183529091602083019080368337505050606086810191909152604080516002808252928101825291906020830190803683375050506080860152604080516002808252606082018352909160208301908036833750505060a086015260005b86518110156106eb5786818151811061039457610394611bb6565b6020026020010151600001516001600160a01b031663313ce5676040518163ffffffff1660e01b8152600401602060405180830381865afa1580156103dd573d6000803e3d6000fd5b505050506040513d601f19601f820116820180604052508101906104019190611c1a565b84828151811061041357610413611bb6565b602002602001019060ff16908160ff16815250506000856001600160a01b031663aa9a091289848151811061044a5761044a611bb6565b6020026020010151604001518a858151811061046857610468611bb6565b60200260200101516020015188868151811061048657610486611bb6565b6020026020010151600a61049a9190611d39565b6040516001600160e01b031960e086901b168152600481019390935260248301919091526044820152606401602060405180830381865afa1580156104e3573d6000803e3d6000fd5b505050506040513d601f19601f820116820180604052508101906105079190611d48565b90506105138184611d61565b92508360008151811061052857610528611bb6565b602002602001015160c001516001600160a01b031688838151811061054f5761054f611bb6565b6020026020010151600001516001600160a01b0316036105b757818460008151811061057d5761057d611bb6565b6020026020010151600001818152505080846000815181106105a1576105a1611bb6565b60200260200101516020018181525050506106d9565b836001815181106105ca576105ca611bb6565b602002602001015160c001516001600160a01b03168883815181106105f1576105f1611bb6565b6020026020010151600001516001600160a01b03160361064357818460018151811061061f5761061f611bb6565b6020026020010151600001818152505080846001815181106105a1576105a1611bb6565b87828151811061065557610655611bb6565b6020026020010151600001518760000151838151811061067757610677611bb6565b60200260200101906001600160a01b031690816001600160a01b0316815250508782815181106106a9576106a9611bb6565b602002602001015160200151876020015183815181106106cb576106cb611bb6565b602002602001018181525050505b806106e381611d74565b915050610379565b506106f688886114a6565b8360008151811061070957610709611bb6565b60200260200101516060018460018151811061072757610727611bb6565b602090810291909101015160600191909152526040516384cc315b60e01b81526001600160a01b038516906384cc315b90610766908b90600401611bcc565b602060405180830381865afa158015610783573d6000803e3d6000fd5b505050506040513d601f19601f820116820180604052508101906107a79190611d48565b826000815181106107ba576107ba611bb6565b6020026020010151606001516107d09190611d8d565b826000815181106107e3576107e3611bb6565b602002602001015160400181815250508160018151811061080657610806611bb6565b602002602001015160c001516001600160a01b031663313ce5676040518163ffffffff1660e01b8152600401602060405180830381865afa15801561084f573d6000803e3d6000fd5b505050506040513d601f19601f820116820180604052508101906108739190611c1a565b61087e90600a611d39565b8260018151811061089157610891611bb6565b6020026020010151606001516108a79190611d8d565b826000815181106108ba576108ba611bb6565b6020026020010151604001516108d09190611d61565b826001815181106108e3576108e3611bb6565b60200260200101516040018181525050836001600160a01b031663aa9a0912828460008151811061091657610916611bb6565b6020026020010151604001518560018151811061093557610935611bb6565b6020026020010151604001516040518463ffffffff1660e01b8152600401610970939291909283526020830191909152604082015260600190565b602060405180830381865afa15801561098d573d6000803e3d6000fd5b505050506040513d601f19601f820116820180604052508101906109b19190611d48565b8560a001516000815181106109c8576109c8611bb6565b6020026020010181815250508460a001516000815181106109eb576109eb611bb6565b6020026020010151816109fe9190611da4565b8560a00151600181518110610a1557610a15611bb6565b60200260200101818152505081600081518110610a3457610a34611bb6565b6020026020010151602001518560a00151600081518110610a5757610a57611bb6565b6020026020010151148015610aa7575081600181518110610a7a57610a7a611bb6565b6020026020010151602001518560a00151600181518110610a9d57610a9d611bb6565b6020026020010151145b8015610b16575081600081518110610ac157610ac1611bb6565b60200260200101516040015160001480610b16575081600181518110610ae957610ae9611bb6565b60200260200101516040015182600081518110610b0857610b08611bb6565b602002602001015160400151145b15610c485760608086526020860152855182518390600090610b3a57610b3a611bb6565b60200260200101516000015110610b52576000610b8f565b8582600081518110610b6657610b66611bb6565b60200260200101516000015181518110610b8257610b82611bb6565b6020026020010151602001515b8560800151600081518110610ba657610ba6611bb6565b602002602001018181525050855182600181518110610bc757610bc7611bb6565b60200260200101516000015110610bdf576000610c1c565b8582600181518110610bf357610bf3611bb6565b60200260200101516000015181518110610c0f57610c0f611bb6565b6020026020010151602001515b8560800151600181518110610c3357610c33611bb6565b6020026020010181815250505050505061149f565b60005b60028110156110fe578651838281518110610c6857610c68611bb6565b602002602001015160000151108015610cba5750828181518110610c8e57610c8e611bb6565b6020026020010151602001518660a001518281518110610cb057610cb0611bb6565b6020026020010151105b156110ec57846001600160a01b031663aa9a09128760a001518381518110610ce457610ce4611bb6565b6020026020010151858481518110610cfe57610cfe611bb6565b602002602001015160200151610d149190611da4565b86868581518110610d2757610d27611bb6565b60200260200101516000015181518110610d4357610d43611bb6565b6020026020010151600a610d579190611d39565b8a878681518110610d6a57610d6a611bb6565b60200260200101516000015181518110610d8657610d86611bb6565b6020026020010151604001516040518463ffffffff1660e01b8152600401610dc1939291909283526020830191909152604082015260600190565b602060405180830381865afa158015610dde573d6000803e3d6000fd5b505050506040513d601f19601f82011682018060405250810190610e029190611d48565b838281518110610e1457610e14611bb6565b6020026020010151608001818152505086838281518110610e3757610e37611bb6565b60200260200101516000015181518110610e5357610e53611bb6565b6020026020010151600001518660000151848381518110610e7657610e76611bb6565b60200260200101516000015181518110610e9257610e92611bb6565b60200260200101906001600160a01b031690816001600160a01b031681525050828181518110610ec457610ec4611bb6565b6020026020010151608001518660200151848381518110610ee757610ee7611bb6565b60200260200101516000015181518110610f0357610f03611bb6565b60209081029190910101528015610f385782600081518110610f2757610f27611bb6565b602002602001015160c00151610f58565b82600181518110610f4b57610f4b611bb6565b602002602001015160c001515b8660400151600081518110610f6f57610f6f611bb6565b60200260200101906001600160a01b031690816001600160a01b031681525050620f42408660600151600081518110610faa57610faa611bb6565b602002602001018181525050828181518110610fc857610fc8611bb6565b60200260200101516080015187848381518110610fe757610fe7611bb6565b6020026020010151600001518151811061100357611003611bb6565b6020026020010151602001516110199190611da4565b8660800151828151811061102f5761102f611bb6565b6020908102919091010152865183611048836001611da4565b8151811061105857611058611bb6565b602002602001015160000151106110705760006110b6565b868361107d836001611da4565b8151811061108d5761108d611bb6565b602002602001015160000151815181106110a9576110a9611bb6565b6020026020010151602001515b60808701516110c6836001611da4565b815181106110d6576110d6611bb6565b602002602001018181525050505050505061149f565b806110f681611d74565b915050610c4b565b508160008151811061111257611112611bb6565b602002602001015160c00151856040015160008151811061113557611135611bb6565b60200260200101906001600160a01b031690816001600160a01b0316815250508160018151811061116857611168611bb6565b602002602001015160c00151856040015160018151811061118b5761118b611bb6565b60200260200101906001600160a01b031690816001600160a01b031681525050836001600160a01b031663aa9a0912836000815181106111cd576111cd611bb6565b6020026020010151602001518760a001516000815181106111f0576111f0611bb6565b60200260200101516112029190611da4565b620f42408560018151811061121957611219611bb6565b6020026020010151602001518660008151811061123857611238611bb6565b60200260200101516020015161124e9190611d61565b8960a0015160018151811061126557611265611bb6565b60200260200101518a60a0015160008151811061128457611284611bb6565b60200260200101516112969190611d61565b6112a09190611da4565b6040516001600160e01b031960e086901b168152600481019390935260248301919091526044820152606401602060405180830381865afa1580156112e9573d6000803e3d6000fd5b505050506040513d601f19601f8201168201806040525081019061130d9190611d48565b856060015160008151811061132457611324611bb6565b602002602001018181525050846060015160008151811061134757611347611bb6565b6020026020010151620f424061135d9190611da4565b856060015160018151811061137457611374611bb6565b60200260200101818152505085518260008151811061139557611395611bb6565b602002602001015160000151106113ad5760006113ea565b85826000815181106113c1576113c1611bb6565b602002602001015160000151815181106113dd576113dd611bb6565b6020026020010151602001515b856080015160008151811061140157611401611bb6565b60200260200101818152505085518260018151811061142257611422611bb6565b6020026020010151600001511061143a576000611477565b858260018151811061144e5761144e611bb6565b6020026020010151600001518151811061146a5761146a611bb6565b6020026020010151602001515b856080015160018151811061148e5761148e611bb6565b602002602001018181525050505050505b9392505050565b60405163d79357fb60e01b81526000908190309082908190839063d79357fb906114d4908a90600401611bcc565b6040805180830381865afa1580156114f0573d6000803e3d6000fd5b505050506040513d601f19601f820116820180604052508101906115149190611db7565b9092509050600061152683600a611ddb565b9050600061153583600a611ddb565b90506000856001600160a01b0316635730ba088b6040518263ffffffff1660e01b81526004016115659190611bcc565b602060405180830381865afa158015611582573d6000803e3d6000fd5b505050506040513d601f19601f820116820180604052508101906115a69190611de7565b90506000866001600160a01b031663986cfba38b6000815181106115cc576115cc611bb6565b60200260200101516040518263ffffffff1660e01b81526004016115f9919060029190910b815260200190565b602060405180830381865afa158015611616573d6000803e3d6000fd5b505050506040513d601f19601f8201168201806040525081019061163a9190611de7565b90506000876001600160a01b031663986cfba38c60018151811061166057611660611bb6565b60200260200101516040518263ffffffff1660e01b815260040161168d919060029190910b815260200190565b602060405180830381865afa1580156116aa573d6000803e3d6000fd5b505050506040513d601f19601f820116820180604052508101906116ce9190611de7565b905060006001600160a01b038916636098fd4a8585856116f08b6103e8611d8d565b6116fc8b6103e8611d8d565b6040516001600160e01b031960e088901b1681526001600160a01b03958616600482015293851660248501529390911660448301526064820152608481019190915260a401602060405180830381865afa15801561175e573d6000803e3d6000fd5b505050506040513d601f19601f820116820180604052508101906117829190611e04565b60405163c72e160b60e01b81526001600160a01b038681166004830152858116602483015284811660448301526001600160801b0383166064830152919250908a169063c72e160b906084016040805180830381865afa1580156117ea573d6000803e3d6000fd5b505050506040513d601f19601f8201168201806040525081019061180e9190611db7565b909b50995060008587116118225785611824565b865b90506118308782611e2d565b61183a908d611d8d565b9b506118468682611e2d565b611850908c611d8d565b9a50505050505050505050509250929050565b6001600160a01b038116811461187857600080fd5b50565b634e487b7160e01b600052604160045260246000fd5b604051606081016001600160401b03811182821017156118b3576118b361187b565b60405290565b604051601f8201601f191681016001600160401b03811182821017156118e1576118e161187b565b604052919050565b60006001600160401b038211156119025761190261187b565b5060051b60200190565b600082601f83011261191d57600080fd5b8135602061193261192d836118e9565b6118b9565b8281526060928302850182019282820191908785111561195157600080fd5b8387015b858110156119a15781818a03121561196d5760008081fd5b611975611891565b813561198081611863565b81528186013586820152604080830135908201528452928401928101611955565b5090979650505050505050565b6000806000606084860312156119c357600080fd5b83356119ce81611863565b92506020848101356001600160401b03808211156119eb57600080fd5b818701915087601f8301126119ff57600080fd5b8135611a0d61192d826118e9565b81815260059190911b8301840190848101908a831115611a2c57600080fd5b938501935b82851015611a5a5784358060020b8114611a4b5760008081fd5b82529385019390850190611a31565b965050506040870135925080831115611a7257600080fd5b5050611a808682870161190c565b9150509250925092565b600081518084526020808501945080840160005b83811015611ac35781516001600160a01b031687529582019590820190600101611a9e565b509495945050505050565b600081518084526020808501945080840160005b83811015611ac357815187529582019590820190600101611ae2565b602081526000825160c06020840152611b1a60e0840182611a8a565b90506020840151601f1980858403016040860152611b388383611ace565b92506040860151915080858403016060860152611b558383611a8a565b92506060860151915080858403016080860152611b728383611ace565b925060808601519150808584030160a0860152611b8f8383611ace565b925060a08601519150808584030160c086015250611bad8282611ace565b95945050505050565b634e487b7160e01b600052603260045260246000fd5b6001600160a01b0391909116815260200190565b60008060408385031215611bf357600080fd5b8251611bfe81611863565b6020840151909250611c0f81611863565b809150509250929050565b600060208284031215611c2c57600080fd5b815160ff8116811461149f57600080fd5b634e487b7160e01b600052601160045260246000fd5b600181815b80851115611c8e578160001904821115611c7457611c74611c3d565b80851615611c8157918102915b93841c9390800290611c58565b509250929050565b600082611ca557506001611d33565b81611cb257506000611d33565b8160018114611cc85760028114611cd257611cee565b6001915050611d33565b60ff841115611ce357611ce3611c3d565b50506001821b611d33565b5060208310610133831016604e8410600b8410161715611d11575081810a611d33565b611d1b8383611c53565b8060001904821115611d2f57611d2f611c3d565b0290505b92915050565b600061149f60ff841683611c96565b600060208284031215611d5a57600080fd5b5051919050565b80820180821115611d3357611d33611c3d565b600060018201611d8657611d86611c3d565b5060010190565b8082028115828204841417611d3357611d33611c3d565b81810381811115611d3357611d33611c3d565b60008060408385031215611dca57600080fd5b505080516020909101519092909150565b600061149f8383611c96565b600060208284031215611df957600080fd5b815161149f81611863565b600060208284031215611e1657600080fd5b81516001600160801b038116811461149f57600080fd5b600082611e4a57634e487b7160e01b600052601260045260246000fd5b50049056fea264697066735822122014cc1a2b394c2646fe59408341d678ddda92aacca71a8ec51ae91aa40b1c890364736f6c63430008110033",
  "devdoc": {
    "kind": "dev",
    "methods": {},
    "version": 1
  },
  "userdoc": {
    "kind": "user",
    "methods": {},
    "version": 1
  },
  "storageLayout": {
    "storage": [],
    "types": null
  }
}