{
  "address": "0x5Ad22d5b0E1Abf44518fDE15902DA081B21b1DCC",
  "abi": [
    {
      "inputs": [],
      "name": "npm",
      "outputs": [
        {
          "internalType": "address",
          "name": "",
          "type": "address"
        }
      ],
      "stateMutability": "view",
      "type": "function"
    },
    {
      "inputs": [],
      "name": "odosRouter",
      "outputs": [
        {
          "internalType": "address",
          "name": "",
          "type": "address"
        }
      ],
      "stateMutability": "view",
      "type": "function"
    },
    {
      "inputs": [
        {
          "components": [
            {
              "internalType": "address",
              "name": "odosRouter",
              "type": "address"
            },
            {
              "internalType": "address",
              "name": "npm",
              "type": "address"
            }
          ],
          "internalType": "struct SetUpFacet.Args",
          "name": "args",
          "type": "tuple"
        }
      ],
      "name": "setCoreParams",
      "outputs": [],
      "stateMutability": "nonpayable",
      "type": "function"
    },
    {
      "inputs": [
        {
          "internalType": "uint256",
          "name": "stakeSlippage",
          "type": "uint256"
        }
      ],
      "name": "setSlippages",
      "outputs": [],
      "stateMutability": "nonpayable",
      "type": "function"
    },
    {
      "inputs": [],
      "name": "stakeSlippageBP",
      "outputs": [
        {
          "internalType": "uint256",
          "name": "",
          "type": "uint256"
        }
      ],
      "stateMutability": "view",
      "type": "function"
    }
  ],
  "transactionHash": "0x31f7fe8c4865ebb729ea28e83618e3e3623c3026bb1e3c8b8aebd972b613731c",
  "args": [],
  "numDeployments": 2,
  "solcInputHash": "961a1f927a70c2b472ed83e98a4257e8",
  "bytecode": "0x608060405234801561001057600080fd5b506103e6806100206000396000f3fe608060405234801561001057600080fd5b50600436106100575760003560e01c80635ca558f81461005c5780637f1e9ef6146100775780638321928d14610097578063884b2b8b1461009f578063ce238c78146100b4575b600080fd5b6100646100c7565b6040519081526020015b60405180910390f35b61007f6100da565b6040516001600160a01b03909116815260200161006e565b61007f6100f6565b6100b26100ad3660046102e5565b61010f565b005b6100b26100c236600461031a565b61014f565b60006100d1610265565b60020154905090565b60006100e4610265565b600101546001600160a01b0316919050565b6000610100610265565b546001600160a01b0316919050565b61011a600033610289565b61013f5760405162461bcd60e51b815260040161013690610383565b60405180910390fd5b80610148610265565b6002015550565b61015a600033610289565b6101765760405162461bcd60e51b815260040161013690610383565b80516001600160a01b03166101c35760405162461bcd60e51b81526020600482015260136024820152726f646f73526f7574657220697320656d70747960681b6044820152606401610136565b60208101516001600160a01b031661020c5760405162461bcd60e51b815260206004820152600c60248201526b6e706d20697320656d70747960a01b6044820152606401610136565b8051610216610265565b80546001600160a01b0319166001600160a01b03929092169190911790556020810151610241610265565b60010180546001600160a01b0319166001600160a01b039290921691909117905550565b7f515bff1426cf6c4fb5ebb9b3e24eeca6b61f1bf3996e6c15108dda282fa29a4390565b60006102de827f6891d55ec5f39745a8d2e578beced3b89c2702e96df8aac9e4f965508783ef2f600086815260209190915260409020906001600160a01b038116600090815260018301602052604081205415155b9392505050565b6000602082840312156102f757600080fd5b5035919050565b80356001600160a01b038116811461031557600080fd5b919050565b60006040828403121561032c57600080fd5b6040516040810181811067ffffffffffffffff8211171561035d57634e487b7160e01b600052604160045260246000fd5b604052610369836102fe565b8152610377602084016102fe565b60208201529392505050565b6020808252601390820152722932b9ba3934b1ba32b2103a379020b236b4b760691b60408201526060019056fea2646970667358221220ee40d33a2edf3aef47873720443ba4160e10f3992c1105aa531e911243386e3b64736f6c63430008110033",
  "devdoc": {
    "kind": "dev",
    "methods": {},
    "version": 1
  },
  "userdoc": {
    "kind": "user",
    "methods": {},
    "version": 1
  },
  "storageLayout": {
    "storage": [],
    "types": null
  }
}