{
  "address": "0x1C33a944c1b20655F8Da7eDbe96B3D7C169C66A1",
  "abi": [
    {
      "inputs": [
        {
          "internalType": "address",
          "name": "tokenAddress",
          "type": "address"
        },
        {
          "internalType": "uint256",
          "name": "amountMin",
          "type": "uint256"
        },
        {
          "internalType": "uint256",
          "name": "amountReceived",
          "type": "uint256"
        }
      ],
      "name": "BelowAmountMin",
      "type": "error"
    },
    {
      "anonymous": false,
      "inputs": [
        {
          "indexed": false,
          "internalType": "address[]",
          "name": "tokens",
          "type": "address[]"
        },
        {
          "indexed": false,
          "internalType": "uint256[]",
          "name": "amounts",
          "type": "uint256[]"
        }
      ],
      "name": "InitialTokens",
      "type": "event"
    },
    {
      "anonymous": false,
      "inputs": [
        {
          "indexed": false,
          "internalType": "address[]",
          "name": "tokens",
          "type": "address[]"
        },
        {
          "indexed": false,
          "internalType": "uint256[]",
          "name": "amounts",
          "type": "uint256[]"
        }
      ],
      "name": "InputTokens",
      "type": "event"
    },
    {
      "anonymous": false,
      "inputs": [
        {
          "indexed": false,
          "internalType": "address[]",
          "name": "tokens",
          "type": "address[]"
        },
        {
          "indexed": false,
          "internalType": "uint256[]",
          "name": "amounts",
          "type": "uint256[]"
        }
      ],
      "name": "OutputTokens",
      "type": "event"
    },
    {
      "anonymous": false,
      "inputs": [
        {
          "indexed": false,
          "internalType": "uint256",
          "name": "price",
          "type": "uint256"
        }
      ],
      "name": "PoolPriceAfterOdosSwap",
      "type": "event"
    },
    {
      "anonymous": false,
      "inputs": [
        {
          "indexed": false,
          "internalType": "uint256",
          "name": "price",
          "type": "uint256"
        }
      ],
      "name": "PoolPriceAfterSwap",
      "type": "event"
    },
    {
      "anonymous": false,
      "inputs": [
        {
          "indexed": false,
          "internalType": "uint256",
          "name": "price",
          "type": "uint256"
        }
      ],
      "name": "PoolPriceInitial",
      "type": "event"
    },
    {
      "anonymous": false,
      "inputs": [
        {
          "indexed": false,
          "internalType": "address[]",
          "name": "tokens",
          "type": "address[]"
        },
        {
          "indexed": false,
          "internalType": "uint256[]",
          "name": "amounts",
          "type": "uint256[]"
        }
      ],
      "name": "PutIntoPool",
      "type": "event"
    },
    {
      "anonymous": false,
      "inputs": [
        {
          "indexed": false,
          "internalType": "address[]",
          "name": "tokens",
          "type": "address[]"
        },
        {
          "indexed": false,
          "internalType": "uint256[]",
          "name": "amounts",
          "type": "uint256[]"
        }
      ],
      "name": "ReturnedToUser",
      "type": "event"
    },
    {
      "anonymous": false,
      "inputs": [
        {
          "indexed": false,
          "internalType": "address[]",
          "name": "tokens",
          "type": "address[]"
        },
        {
          "indexed": false,
          "internalType": "uint256[]",
          "name": "amounts",
          "type": "uint256[]"
        }
      ],
      "name": "SwapedIntoPool",
      "type": "event"
    },
    {
      "anonymous": false,
      "inputs": [
        {
          "indexed": false,
          "internalType": "uint256",
          "name": "tokenId",
          "type": "uint256"
        }
      ],
      "name": "TokenId",
      "type": "event"
    },
    {
      "inputs": [
        {
          "components": [
            {
              "components": [
                {
                  "internalType": "address",
                  "name": "tokenAddress",
                  "type": "address"
                },
                {
                  "internalType": "uint256",
                  "name": "amountIn",
                  "type": "uint256"
                }
              ],
              "internalType": "struct IZapFacet.InputToken[]",
              "name": "inputs",
              "type": "tuple[]"
            },
            {
              "components": [
                {
                  "internalType": "address",
                  "name": "tokenAddress",
                  "type": "address"
                },
                {
                  "internalType": "address",
                  "name": "receiver",
                  "type": "address"
                },
                {
                  "internalType": "uint256",
                  "name": "amountMin",
                  "type": "uint256"
                }
              ],
              "internalType": "struct IZapFacet.OutputToken[]",
              "name": "outputs",
              "type": "tuple[]"
            },
            {
              "internalType": "bytes",
              "name": "data",
              "type": "bytes"
            }
          ],
          "internalType": "struct IZapFacet.SwapData",
          "name": "swapData",
          "type": "tuple"
        },
        {
          "components": [
            {
              "internalType": "address",
              "name": "pair",
              "type": "address"
            },
            {
              "internalType": "int24[]",
              "name": "tickRange",
              "type": "int24[]"
            },
            {
              "internalType": "uint256[]",
              "name": "amountsOut",
              "type": "uint256[]"
            }
          ],
          "internalType": "struct IZapFacet.ZapInParams",
          "name": "paramsData",
          "type": "tuple"
        },
        {
          "internalType": "uint256",
          "name": "tokenId",
          "type": "uint256"
        }
      ],
      "name": "increase",
      "outputs": [],
      "stateMutability": "nonpayable",
      "type": "function"
    },
    {
      "inputs": [
        {
          "components": [
            {
              "components": [
                {
                  "internalType": "address",
                  "name": "tokenAddress",
                  "type": "address"
                },
                {
                  "internalType": "uint256",
                  "name": "amountIn",
                  "type": "uint256"
                }
              ],
              "internalType": "struct IZapFacet.InputToken[]",
              "name": "inputs",
              "type": "tuple[]"
            },
            {
              "components": [
                {
                  "internalType": "address",
                  "name": "tokenAddress",
                  "type": "address"
                },
                {
                  "internalType": "address",
                  "name": "receiver",
                  "type": "address"
                },
                {
                  "internalType": "uint256",
                  "name": "amountMin",
                  "type": "uint256"
                }
              ],
              "internalType": "struct IZapFacet.OutputToken[]",
              "name": "outputs",
              "type": "tuple[]"
            },
            {
              "internalType": "bytes",
              "name": "data",
              "type": "bytes"
            }
          ],
          "internalType": "struct IZapFacet.SwapData",
          "name": "swapData",
          "type": "tuple"
        },
        {
          "components": [
            {
              "internalType": "address",
              "name": "pair",
              "type": "address"
            },
            {
              "internalType": "int24[]",
              "name": "tickRange",
              "type": "int24[]"
            },
            {
              "internalType": "uint256[]",
              "name": "amountsOut",
              "type": "uint256[]"
            }
          ],
          "internalType": "struct IZapFacet.ZapInParams",
          "name": "paramsData",
          "type": "tuple"
        },
        {
          "internalType": "uint256",
          "name": "tokenIn",
          "type": "uint256"
        },
        {
          "internalType": "uint256[]",
          "name": "tokensOut",
          "type": "uint256[]"
        }
      ],
      "name": "merge",
      "outputs": [],
      "stateMutability": "nonpayable",
      "type": "function"
    },
    {
      "inputs": [
        {
          "components": [
            {
              "components": [
                {
                  "internalType": "address",
                  "name": "tokenAddress",
                  "type": "address"
                },
                {
                  "internalType": "uint256",
                  "name": "amountIn",
                  "type": "uint256"
                }
              ],
              "internalType": "struct IZapFacet.InputToken[]",
              "name": "inputs",
              "type": "tuple[]"
            },
            {
              "components": [
                {
                  "internalType": "address",
                  "name": "tokenAddress",
                  "type": "address"
                },
                {
                  "internalType": "address",
                  "name": "receiver",
                  "type": "address"
                },
                {
                  "internalType": "uint256",
                  "name": "amountMin",
                  "type": "uint256"
                }
              ],
              "internalType": "struct IZapFacet.OutputToken[]",
              "name": "outputs",
              "type": "tuple[]"
            },
            {
              "internalType": "bytes",
              "name": "data",
              "type": "bytes"
            }
          ],
          "internalType": "struct IZapFacet.SwapData",
          "name": "swapData",
          "type": "tuple"
        },
        {
          "components": [
            {
              "internalType": "address",
              "name": "pair",
              "type": "address"
            },
            {
              "internalType": "int24[]",
              "name": "tickRange",
              "type": "int24[]"
            },
            {
              "internalType": "uint256[]",
              "name": "amountsOut",
              "type": "uint256[]"
            }
          ],
          "internalType": "struct IZapFacet.ZapInParams",
          "name": "paramsData",
          "type": "tuple"
        },
        {
          "internalType": "uint256",
          "name": "tokenId",
          "type": "uint256"
        }
      ],
      "name": "rebalance",
      "outputs": [],
      "stateMutability": "nonpayable",
      "type": "function"
    },
    {
      "inputs": [
        {
          "components": [
            {
              "components": [
                {
                  "internalType": "address",
                  "name": "tokenAddress",
                  "type": "address"
                },
                {
                  "internalType": "uint256",
                  "name": "amountIn",
                  "type": "uint256"
                }
              ],
              "internalType": "struct IZapFacet.InputToken[]",
              "name": "inputs",
              "type": "tuple[]"
            },
            {
              "components": [
                {
                  "internalType": "address",
                  "name": "tokenAddress",
                  "type": "address"
                },
                {
                  "internalType": "address",
                  "name": "receiver",
                  "type": "address"
                },
                {
                  "internalType": "uint256",
                  "name": "amountMin",
                  "type": "uint256"
                }
              ],
              "internalType": "struct IZapFacet.OutputToken[]",
              "name": "outputs",
              "type": "tuple[]"
            },
            {
              "internalType": "bytes",
              "name": "data",
              "type": "bytes"
            }
          ],
          "internalType": "struct IZapFacet.SwapData",
          "name": "swapData",
          "type": "tuple"
        },
        {
          "components": [
            {
              "internalType": "address",
              "name": "pair",
              "type": "address"
            },
            {
              "internalType": "int24[]",
              "name": "tickRange",
              "type": "int24[]"
            },
            {
              "internalType": "uint256[]",
              "name": "amountsOut",
              "type": "uint256[]"
            }
          ],
          "internalType": "struct IZapFacet.ZapInParams",
          "name": "paramsData",
          "type": "tuple"
        }
      ],
      "name": "zapIn",
      "outputs": [],
      "stateMutability": "nonpayable",
      "type": "function"
    },
    {
      "inputs": [
        {
          "internalType": "uint256",
          "name": "tokenId",
          "type": "uint256"
        }
      ],
      "name": "zapOut",
      "outputs": [],
      "stateMutability": "nonpayable",
      "type": "function"
    },
    {
      "stateMutability": "payable",
      "type": "receive"
    }
  ],
  "transactionHash": "0x17e594002784c57c0afd754166cba35e23677027307754b83855395bbc1eeb25",
  "args": [],
  "numDeployments": 1,
  "solcInputHash": "0f2d31033222fabfcbd8b7c9bdcd7f74",
  "bytecode": "0x608060405234801561001057600080fd5b50613205806100206000396000f3fe60806040526004361061004e5760003560e01c80638b17a5da1461005a578063bfe75c951461007c578063d96564b11461009c578063fe07b427146100bc578063fe27824a146100dc57600080fd5b3661005557005b600080fd5b34801561006657600080fd5b5061007a610075366004612d37565b6100fc565b005b34801561008857600080fd5b5061007a610097366004612dc8565b610152565b3480156100a857600080fd5b5061007a6100b7366004612dc8565b61016f565b3480156100c857600080fd5b5061007a6100d7366004612e34565b61017c565b3480156100e857600080fd5b5061007a6100f7366004612e97565b61018e565b60005b815181101561013e5761012c82828151811061011d5761011d612eb0565b6020026020010151303361019c565b8061013681612edc565b9150506100ff565b5061014c8484600085610263565b50505050565b61015d81303361019c565b61016a8383600080610263565b505050565b61016a8383600184610263565b61018a828260016000610263565b5050565b61019981333361019c565b50565b604051639ac2386160e01b81526004810184905233602482015230908190639ac238619060440160006040518083038186803b1580156101db57600080fd5b505afa1580156101ef573d6000803e3d6000fd5b505060405163542ac20560e11b8152600481018790526001600160a01b03868116602483015285811660448301528416925063a855840a9150606401600060405180830381600087803b15801561024557600080fd5b505af1158015610259573d6000803e3d6000fd5b5050505050505050565b604080516002808252606082018352309260009291906020830190803683375050604080516002808252606082018352939450600093909250906020830190803683375050604080516002808252606082018352939450600093909250906020830190803683375050885160405163ca4f280360e01b81529293506000926001600160a01b038816925063ca4f2803916102ff91600401612ef5565b6040805180830381865afa15801561031b573d6000803e3d6000fd5b505050506040513d601f19601f8201168201806040525081019061033f9190612f09565b8460008151811061035257610352612eb0565b602002602001018560018151811061036c5761036c612eb0565b6001600160a01b039384166020918202929092010152911690526103908988610fec565b87516040516384cc315b60e01b81527f528b1ffc1d8e7aaf92bc4e4180d5f4cccefbe267b6e563eeea54860dd61dee8c916001600160a01b038816916384cc315b916103de91600401612ef5565b602060405180830381865afa1580156103fb573d6000803e3d6000fd5b505050506040513d601f19601f8201168201806040525081019061041f9190612f43565b60405190815260200160405180910390a15a905061043c89611465565b6104746040518060400160405280600c81526020016b737761704f646f732067617360a01b8152505a61046f9084612f5c565b611670565b87516040516384cc315b60e01b81527f700200cfa94f3261d8932391e64f1a299cd3ec649793ceb1b8ce090fb9b5f86e916001600160a01b038816916384cc315b916104c291600401612ef5565b602060405180830381865afa1580156104df573d6000803e3d6000fd5b505050506040513d601f19601f820116820180604052508101906105039190612f43565b60405190815260200160405180910390a18851516000906001600160401b03811115610531576105316128fc565b60405190808252806020026020018201604052801561055a578160200160208202803683370190505b50905060008a60000151516001600160401b0381111561057c5761057c6128fc565b6040519080825280602002602001820160405280156105a5578160200160208202803683370190505b50905060005b8b515181101561064e578b518051829081106105c9576105c9612eb0565b6020026020010151600001518382815181106105e7576105e7612eb0565b6001600160a01b03909216602092830291909101909101528b5180518290811061061357610613612eb0565b60200260200101516020015182828151811061063157610631612eb0565b60209081029190910101528061064681612edc565b9150506105ab565b507f9aad82eab80e5230385f748130c9d61069cfefaffd6f4137cc0ad62c86ed252b8282604051610680929190612f6f565b60405180910390a1505060008960200151516001600160401b038111156106a9576106a96128fc565b6040519080825280602002602001820160405280156106d2578160200160208202803683370190505b50905060008a60200151516001600160401b038111156106f4576106f46128fc565b60405190808252806020026020018201604052801561071d578160200160208202803683370190505b50905060005b8b6020015151811015610839578b60200151818151811061074657610746612eb0565b60200260200101516000015183828151811061076457610764612eb0565b60200260200101906001600160a01b031690816001600160a01b03168152505082818151811061079657610796612eb0565b60200260200101516001600160a01b03166370a08231306040518263ffffffff1660e01b81526004016107c99190612ef5565b602060405180830381865afa1580156107e6573d6000803e3d6000fd5b505050506040513d601f19601f8201168201806040525081019061080a9190612f43565b82828151811061081c5761081c612eb0565b60209081029190910101528061083181612edc565b915050610723565b507fab6ed7963a309572d0d275f1fd5dbee4188c4c37c79dd797674ad5d7be6d4c24828260405161086b929190612f6f565b60405180910390a1505060408051600280825260608201835260009260208301908036833701905050905060005b6002811015610af1578481815181106108b4576108b4612eb0565b60200260200101518682815181106108ce576108ce612eb0565b60200260200101906001600160a01b031690816001600160a01b031681525050888015610918575060008a60400151828151811061090e5761090e612eb0565b6020026020010151115b156109c85785818151811061092f5761092f612eb0565b60200260200101516001600160a01b03166323b872dd33308d60400151858151811061095d5761095d612eb0565b60200260200101516040518463ffffffff1660e01b815260040161098393929190612fe6565b6020604051808303816000875af11580156109a2573d6000803e3d6000fd5b505050506040513d601f19601f820116820180604052508101906109c6919061300a565b505b8581815181106109da576109da612eb0565b60200260200101516001600160a01b03166370a08231306040518263ffffffff1660e01b8152600401610a0d9190612ef5565b602060405180830381865afa158015610a2a573d6000803e3d6000fd5b505050506040513d601f19601f82011682018060405250810190610a4e9190612f43565b848281518110610a6057610a60612eb0565b602002602001018181525050838181518110610a7e57610a7e612eb0565b60200260200101518a604001518281518110610a9c57610a9c612eb0565b602002602001018181525050838181518110610aba57610aba612eb0565b6020026020010151828281518110610ad457610ad4612eb0565b602090810291909101015280610ae981612edc565b915050610899565b507f9dc5ecb9dffba0a351fc9f415ca60e32cad1f9143e07ddb550ea26873bbd8d1f8482604051610b23929190612f6f565b60405180910390a15a9150610b3889886116b5565b9650610b74604051806040016040528060138152602001726d616e6167654c69717569646974792067617360681b8152505a61046f9085612f5c565b60005b6002811015610d0157858181518110610b9257610b92612eb0565b60200260200101516001600160a01b03166370a08231306040518263ffffffff1660e01b8152600401610bc59190612ef5565b602060405180830381865afa158015610be2573d6000803e3d6000fd5b505050506040513d601f19601f82011682018060405250810190610c069190612f43565b848281518110610c1857610c18612eb0565b6020026020010151610c2a9190612f5c565b848281518110610c3c57610c3c612eb0565b602002602001018181525050858181518110610c5a57610c5a612eb0565b60200260200101516001600160a01b03166370a08231306040518263ffffffff1660e01b8152600401610c8d9190612ef5565b602060405180830381865afa158015610caa573d6000803e3d6000fd5b505050506040513d601f19601f82011682018060405250810190610cce9190612f43565b8a604001518281518110610ce457610ce4612eb0565b602090810291909101015280610cf981612edc565b915050610b77565b507fa324f1f0770549b618d75aae687a67d7510eef00748723fd45ad9810a3f233b38484604051610d33929190612f6f565b60405180910390a15a9150610d488988611b4e565b610d7d6040518060400160405280600e81526020016d61646a757374537761702067617360901b8152505a61046f9085612f5c565b88516040516384cc315b60e01b81527f42e7150a62cd698406f168f35a7dfef6e80cd3a18361f08267e768505554997e916001600160a01b038916916384cc315b91610dcb91600401612ef5565b602060405180830381865afa158015610de8573d6000803e3d6000fd5b505050506040513d601f19601f82011682018060405250810190610e0c9190612f43565b60405190815260200160405180910390a160005b6002811015610fa657858181518110610e3b57610e3b612eb0565b60200260200101516001600160a01b03166370a08231306040518263ffffffff1660e01b8152600401610e6e9190612ef5565b602060405180830381865afa158015610e8b573d6000803e3d6000fd5b505050506040513d601f19601f82011682018060405250810190610eaf9190612f43565b848281518110610ec157610ec1612eb0565b6020026020010181815250506000848281518110610ee157610ee1612eb0565b60200260200101511115610f9457858181518110610f0157610f01612eb0565b60200260200101516001600160a01b031663a9059cbb33868481518110610f2a57610f2a612eb0565b60200260200101516040518363ffffffff1660e01b8152600401610f4f929190613033565b6020604051808303816000875af1158015610f6e573d6000803e3d6000fd5b505050506040513d601f19601f82011682018060405250810190610f92919061300a565b505b80610f9e81612edc565b915050610e20565b507f7f490cd31e2f9d203017cdc31810e1a21503cd8353bb2369a92024071585157d8484604051610fd8929190612f6f565b60405180910390a150505050505050505050565b60005b82602001515181101561115e5760005b8181101561114b578360200151818151811061101d5761101d612eb0565b6020026020010151600001516001600160a01b03168460200151838151811061104857611048612eb0565b6020026020010151600001516001600160a01b0316036110a95760405162461bcd60e51b81526020600482015260176024820152764475706c6963617465206f757470757420746f6b656e7360481b60448201526064015b60405180910390fd5b306001600160a01b0316846020015183815181106110c9576110c9612eb0565b6020026020010151602001516001600160a01b0316146111395760405162461bcd60e51b815260206004820152602560248201527f5265636569766572206f662073776170206973206e6f74207468697320636f6e6044820152641d1c9858dd60da1b60648201526084016110a0565b8061114381612edc565b915050610fff565b508061115681612edc565b915050610fef565b5060005b82515181101561016a5760005b8181101561122357835180518290811061118b5761118b612eb0565b6020026020010151600001516001600160a01b0316846000015183815181106111b6576111b6612eb0565b6020026020010151600001516001600160a01b0316036112115760405162461bcd60e51b81526020600482015260166024820152754475706c696361746520696e70757420746f6b656e7360501b60448201526064016110a0565b8061121b81612edc565b91505061116f565b5060005b8360200151518110156112e9578360200151818151811061124a5761124a612eb0565b6020026020010151600001516001600160a01b03168460000151838151811061127557611275612eb0565b6020026020010151600001516001600160a01b0316036112d75760405162461bcd60e51b815260206004820152601a60248201527f4475706c696361746520696e70757420616e64206f757470757400000000000060448201526064016110a0565b806112e181612edc565b915050611227565b5060008360000151828151811061130257611302612eb0565b602002602001015160000151905082156113ac57806001600160a01b03166323b872dd33308760000151868151811061133d5761133d612eb0565b6020026020010151602001516040518463ffffffff1660e01b815260040161136793929190612fe6565b6020604051808303816000875af1158015611386573d6000803e3d6000fd5b505050506040513d601f19601f820116820180604052508101906113aa919061300a565b505b806001600160a01b031663095ea7b36113c36128b3565b54865180516001600160a01b0390921691869081106113e4576113e4612eb0565b6020026020010151602001516040518363ffffffff1660e01b815260040161140d929190613033565b6020604051808303816000875af115801561142c573d6000803e3d6000fd5b505050506040513d601f19601f82011682018060405250810190611450919061300a565b5050808061145d90612edc565b915050611162565b600061146f6128b3565b5460408084015190516001600160a01b039092169160009161149091613070565b60006040518083038185875af1925050503d80600081146114cd576040519150601f19603f3d011682016040523d82523d6000602084013e6114d2565b606091505b50509050806115195760405162461bcd60e51b81526020600482015260136024820152721c9bdd5d195c881cddd85c081a5b9d985b1a59606a1b60448201526064016110a0565b60005b82602001515181101561016a5760008360200151828151811061154157611541612eb0565b6020026020010151600001516001600160a01b03166370a08231306040518263ffffffff1660e01b81526004016115789190612ef5565b602060405180830381865afa158015611595573d6000803e3d6000fd5b505050506040513d601f19601f820116820180604052508101906115b99190612f43565b9050836020015182815181106115d1576115d1612eb0565b60200260200101516040015181101561165d57836020015182815181106115fa576115fa612eb0565b6020026020010151600001518460200151838151811061161c5761161c612eb0565b602090810291909101015160409081015190516372ad0fbd60e01b81526001600160a01b0390921660048301526024820152604481018290526064016110a0565b508061166881612edc565b91505061151c565b61018a828260405160240161168692919061308c565b60408051601f198184030181529190526020810180516001600160e01b0316632d839cb360e21b1790526128d7565b604080516002808252606082018352600092839291906020830190803683375050855160405163ca4f280360e01b8152929350309283925063ca4f2803916116ff91600401612ef5565b6040805180830381865afa15801561171b573d6000803e3d6000fd5b505050506040513d601f19601f8201168201806040525081019061173f9190612f09565b8360008151811061175257611752612eb0565b602002602001018460018151811061176c5761176c612eb0565b6001600160a01b0393841660209182029290920101529116905281516000908390829061179b5761179b612eb0565b602002602001015190506000836001815181106117ba576117ba612eb0565b60200260200101519050816001600160a01b031663095ea7b36117db6128b3565b6001015460408a015180516001600160a01b039092169160009061180157611801612eb0565b60200260200101516040518363ffffffff1660e01b8152600401611826929190613033565b6020604051808303816000875af1158015611845573d6000803e3d6000fd5b505050506040513d601f19601f82011682018060405250810190611869919061300a565b50806001600160a01b031663095ea7b36118816128b3565b60019081015460408b015180516001600160a01b0390921692909181106118aa576118aa612eb0565b60200260200101516040518363ffffffff1660e01b81526004016118cf929190613033565b6020604051808303816000875af11580156118ee573d6000803e3d6000fd5b505050506040513d601f19601f82011682018060405250810190611912919061300a565b5085600003611a7e57826001600160a01b0316631587d2b58860000151896020015160008151811061194657611946612eb0565b60200260200101518a6020015160018151811061196557611965612eb0565b60200260200101518b6040015160008151811061198457611984612eb0565b60200260200101518c604001516001815181106119a3576119a3612eb0565b60209081029190910101516040516001600160e01b031960e088901b1681526001600160a01b039095166004860152600293840b60248601529190920b6044840152606483019190915260848201523360a482015260c4016020604051808303816000875af1158015611a1a573d6000803e3d6000fd5b505050506040513d601f19601f82011682018060405250810190611a3e9190612f43565b95507fa4e8e12e12124dbefe84fada6e584fcfaf4862f3b8284a8174f89be901ec4d7d86604051611a7191815260200190565b60405180910390a1611b40565b826001600160a01b031663e115bc5c878960400151600081518110611aa557611aa5612eb0565b60200260200101518a60400151600181518110611ac457611ac4612eb0565b60200260200101516040518463ffffffff1660e01b8152600401611afb939291909283526020830191909152604082015260600190565b6020604051808303816000875af1158015611b1a573d6000803e3d6000fd5b505050506040513d601f19601f82011682018060405250810190611b3e91906130c7565b505b859450505050505b92915050565b6040805160028082526060820183523092600092919060208301908036833750506040805160028082526060820183529394506000939092509060208301908036833701905050855160405163ca4f280360e01b81529192506001600160a01b0385169163ca4f280391611bc491600401612ef5565b6040805180830381865afa158015611be0573d6000803e3d6000fd5b505050506040513d601f19601f82011682018060405250810190611c049190612f09565b83600081518110611c1757611c17612eb0565b6020026020010184600181518110611c3157611c31612eb0565b6001600160a01b0393841660209182029290920101529116905281518290600090611c5e57611c5e612eb0565b602002602001015181600081518110611c7957611c79612eb0565b60200260200101906001600160a01b031690816001600160a01b03168152505081600181518110611cac57611cac612eb0565b602002602001015181600181518110611cc757611cc7612eb0565b60200260200101906001600160a01b031690816001600160a01b031681525050600081600181518110611cfc57611cfc612eb0565b60200260200101516001600160a01b03166370a08231306040518263ffffffff1660e01b8152600401611d2f9190612ef5565b602060405180830381865afa158015611d4c573d6000803e3d6000fd5b505050506040513d601f19601f82011682018060405250810190611d709190612f43565b82600081518110611d8357611d83612eb0565b60200260200101516001600160a01b03166370a08231306040518263ffffffff1660e01b8152600401611db69190612ef5565b602060405180830381865afa158015611dd3573d6000803e3d6000fd5b505050506040513d601f19601f82011682018060405250810190611df79190612f43565b119050611e1e60405180606001604052806000815260200160008152602001600081525090565b8282611e2b576001611e2e565b60005b60ff1681518110611e4157611e41612eb0565b60200260200101516001600160a01b03166370a08231306040518263ffffffff1660e01b8152600401611e749190612ef5565b602060405180830381865afa158015611e91573d6000803e3d6000fd5b505050506040513d601f19601f82011682018060405250810190611eb59190612f43565b602082015260005a905060005b600a81101561225c5760208301518351600291611ede916130f0565b611ee89190613103565b60408085018290528a5160208c015191516379bf8c2d60e01b81526001600160a01b038b16936379bf8c2d93611f2693926000918b91600401613125565b600060405180830381600087803b158015611f4057600080fd5b505af1925050508015611f51575060015b61224a573d808015611f7f576040519150601f19603f3d011682016040523d82523d6000602084013e611f84565b606091505b5060408051600480825260a0820190925282820191600091906020820160808036833701905050905081806020019051810190611fc19190613199565b84600081518110611fd457611fd4612eb0565b6020026020010185600181518110611fee57611fee612eb0565b602002602001018660028151811061200857612008612eb0565b602002602001018760038151811061202257612022612eb0565b60209081029190910101939093529290915291905252600087612135578a6001600160a01b03166341b34df38360018151811061206157612061612eb0565b60200260200101518460008151811061207c5761207c612eb0565b60200260200101518560038151811061209757612097612eb0565b6020026020010151866002815181106120b2576120b2612eb0565b60200260200101516040518563ffffffff1660e01b81526004016120ef949392919093845260208401929092526040830152606082015260800190565b602060405180830381865afa15801561210c573d6000803e3d6000fd5b505050506040513d601f19601f82011682018060405250810190612130919061300a565b612226565b8a6001600160a01b03166341b34df38360008151811061215757612157612eb0565b60200260200101518460018151811061217257612172612eb0565b60200260200101518560028151811061218d5761218d612eb0565b6020026020010151866003815181106121a8576121a8612eb0565b60200260200101516040518563ffffffff1660e01b81526004016121e5949392919093845260208401929092526040830152606082015260800190565b602060405180830381865afa158015612202573d6000803e3d6000fd5b505050506040513d601f19601f82011682018060405250810190612226919061300a565b9050801561223a5760408701518752612245565b604087015160208801525b505050505b8061225481612edc565b915050611ec2565b5061229e6040518060400160405280600e81526020016d62696e207365617263682067617360901b815250600a5a6122949085612f5c565b61046f9190613103565b8751604083810151905163e25d44d160e01b81526001600160a01b03928316600482015260248101919091526000604482015284151560648201529087169063e25d44d190608401600060405180830381600087803b15801561230057600080fd5b505af1158015612314573d6000803e3d6000fd5b505050508360008151811061232b5761232b612eb0565b60200260200101516001600160a01b03166370a08231306040518263ffffffff1660e01b815260040161235e9190612ef5565b602060405180830381865afa15801561237b573d6000803e3d6000fd5b505050506040513d601f19601f8201168201806040525081019061239f9190612f43565b88604001516000815181106123b6576123b6612eb0565b602002602001018181525050836001815181106123d5576123d5612eb0565b60200260200101516001600160a01b03166370a08231306040518263ffffffff1660e01b81526004016124089190612ef5565b602060405180830381865afa158015612425573d6000803e3d6000fd5b505050506040513d601f19601f820116820180604052508101906124499190612f43565b886040015160018151811061246057612460612eb0565b6020026020010181815250508360008151811061247f5761247f612eb0565b60200260200101516001600160a01b031663095ea7b361249d6128b3565b6001015460408b015180516001600160a01b03909216916000906124c3576124c3612eb0565b60200260200101516040518363ffffffff1660e01b81526004016124e8929190613033565b6020604051808303816000875af1158015612507573d6000803e3d6000fd5b505050506040513d601f19601f8201168201806040525081019061252b919061300a565b508360018151811061253f5761253f612eb0565b60200260200101516001600160a01b031663095ea7b361255d6128b3565b60019081015460408c015180516001600160a01b03909216929091811061258657612586612eb0565b60200260200101516040518363ffffffff1660e01b81526004016125ab929190613033565b6020604051808303816000875af11580156125ca573d6000803e3d6000fd5b505050506040513d601f19601f820116820180604052508101906125ee919061300a565b50856001600160a01b031663e115bc5c888a6040015160008151811061261657612616612eb0565b60200260200101518b6040015160018151811061263557612635612eb0565b60200260200101516040518463ffffffff1660e01b815260040161266c939291909283526020830191909152604082015260600190565b6020604051808303816000875af115801561268b573d6000803e3d6000fd5b505050506040513d601f19601f820116820180604052508101906126af91906130c7565b50604080516002808252606082018352600092602083019080368337019050509050846000815181106126e4576126e4612eb0565b60200260200101516001600160a01b03166370a08231306040518263ffffffff1660e01b81526004016127179190612ef5565b602060405180830381865afa158015612734573d6000803e3d6000fd5b505050506040513d601f19601f820116820180604052508101906127589190612f43565b896040015160008151811061276f5761276f612eb0565b60200260200101516127819190612f5c565b8160008151811061279457612794612eb0565b602002602001018181525050846001815181106127b3576127b3612eb0565b60200260200101516001600160a01b03166370a08231306040518263ffffffff1660e01b81526004016127e69190612ef5565b602060405180830381865afa158015612803573d6000803e3d6000fd5b505050506040513d601f19601f820116820180604052508101906128279190612f43565b896040015160018151811061283e5761283e612eb0565b60200260200101516128509190612f5c565b8160018151811061286357612863612eb0565b6020026020010181815250507f3e9fb9c40c0f1146ae7759c6025bf98ac496ed11f7fc335a38e9ad0e09b5ecc886826040516128a0929190612f6f565b60405180910390a1505050505050505050565b7f515bff1426cf6c4fb5ebb9b3e24eeca6b61f1bf3996e6c15108dda282fa29a4390565b6101998160006a636f6e736f6c652e6c6f679050600080835160208501845afa505050565b634e487b7160e01b600052604160045260246000fd5b604051606081016001600160401b0381118282101715612934576129346128fc565b60405290565b604080519081016001600160401b0381118282101715612934576129346128fc565b604051601f8201601f191681016001600160401b0381118282101715612984576129846128fc565b604052919050565b60006001600160401b038211156129a5576129a56128fc565b5060051b60200190565b6001600160a01b038116811461019957600080fd5b600082601f8301126129d557600080fd5b813560206129ea6129e58361298c565b61295c565b82815260609283028501820192828201919087851115612a0957600080fd5b8387015b85811015612a625781818a031215612a255760008081fd5b612a2d612912565b8135612a38816129af565b815281860135612a47816129af565b81870152604082810135908201528452928401928101612a0d565b5090979650505050505050565b600082601f830112612a8057600080fd5b81356001600160401b03811115612a9957612a996128fc565b612aac601f8201601f191660200161295c565b818152846020838601011115612ac157600080fd5b816020850160208301376000918101602001919091529392505050565b600060608284031215612af057600080fd5b612af8612912565b905081356001600160401b0380821115612b1157600080fd5b818401915084601f830112612b2557600080fd5b81356020612b356129e58361298c565b82815260069290921b84018101918181019088841115612b5457600080fd5b948201945b83861015612ba0576040868a031215612b725760008081fd5b612b7a61293a565b8635612b85816129af565b81528684013584820152825260409095019490820190612b59565b86525085810135935082841115612bb657600080fd5b612bc2878588016129c4565b90850152506040840135915080821115612bdb57600080fd5b50612be884828501612a6f565b60408301525092915050565b600082601f830112612c0557600080fd5b81356020612c156129e58361298c565b82815260059290921b84018101918181019086841115612c3457600080fd5b8286015b84811015612c4f5780358352918301918301612c38565b509695505050505050565b600060608284031215612c6c57600080fd5b612c74612912565b90508135612c81816129af565b81526020828101356001600160401b0380821115612c9e57600080fd5b818501915085601f830112612cb257600080fd5b8135612cc06129e58261298c565b81815260059190911b83018401908481019088831115612cdf57600080fd5b938501935b82851015612d0d5784358060020b8114612cfe5760008081fd5b82529385019390850190612ce4565b80868801525050506040850135925080831115612d2957600080fd5b5050612be884828501612bf4565b60008060008060808587031215612d4d57600080fd5b84356001600160401b0380821115612d6457600080fd5b612d7088838901612ade565b95506020870135915080821115612d8657600080fd5b612d9288838901612c5a565b9450604087013593506060870135915080821115612daf57600080fd5b50612dbc87828801612bf4565b91505092959194509250565b600080600060608486031215612ddd57600080fd5b83356001600160401b0380821115612df457600080fd5b612e0087838801612ade565b94506020860135915080821115612e1657600080fd5b50612e2386828701612c5a565b925050604084013590509250925092565b60008060408385031215612e4757600080fd5b82356001600160401b0380821115612e5e57600080fd5b612e6a86838701612ade565b93506020850135915080821115612e8057600080fd5b50612e8d85828601612c5a565b9150509250929050565b600060208284031215612ea957600080fd5b5035919050565b634e487b7160e01b600052603260045260246000fd5b634e487b7160e01b600052601160045260246000fd5b600060018201612eee57612eee612ec6565b5060010190565b6001600160a01b0391909116815260200190565b60008060408385031215612f1c57600080fd5b8251612f27816129af565b6020840151909250612f38816129af565b809150509250929050565b600060208284031215612f5557600080fd5b5051919050565b81810381811115611b4857611b48612ec6565b604080825283519082018190526000906020906060840190828701845b82811015612fb15781516001600160a01b031684529284019290840190600101612f8c565b5050508381038285015284518082528583019183019060005b81811015612a6257835183529284019291840191600101612fca565b6001600160a01b039384168152919092166020820152604081019190915260600190565b60006020828403121561301c57600080fd5b8151801515811461302c57600080fd5b9392505050565b6001600160a01b03929092168252602082015260400190565b60005b8381101561306757818101518382015260200161304f565b50506000910152565b6000825161308281846020870161304c565b9190910192915050565b60408152600083518060408401526130ab81606085016020880161304c565b602083019390935250601f91909101601f191601606001919050565b6000602082840312156130d957600080fd5b81516001600160801b038116811461302c57600080fd5b80820180821115611b4857611b48612ec6565b60008261312057634e487b7160e01b600052601260045260246000fd5b500490565b6001600160a01b03868116825260208083018790529085166040830152831515606083015260a06080830181905283519083018190526000918481019160c085019190845b8181101561318957845160020b8452938201939282019260010161316a565b50919a9950505050505050505050565b600080600080608085870312156131af57600080fd5b50508251602084015160408501516060909501519196909550909250905056fea26469706673582212205b65dfa36edf85cc84135535191ef70115c97076238f92beb31ccf3e453417ea64736f6c63430008110033",
  "devdoc": {
    "kind": "dev",
    "methods": {},
    "version": 1
  },
  "userdoc": {
    "kind": "user",
    "methods": {},
    "version": 1
  },
  "storageLayout": {
    "storage": [],
    "types": null
  }
}