{
  "address": "0xcCE2973CDc37eBa9f0C24A602f3D9B673E58ad80",
  "abi": [
    {
      "inputs": [
        {
          "internalType": "address",
          "name": "tokenAddress",
          "type": "address"
        },
        {
          "internalType": "uint256",
          "name": "amountMin",
          "type": "uint256"
        },
        {
          "internalType": "uint256",
          "name": "amountReceived",
          "type": "uint256"
        }
      ],
      "name": "BelowAmountMin",
      "type": "error"
    },
    {
      "anonymous": false,
      "inputs": [
        {
          "indexed": false,
          "internalType": "address[]",
          "name": "tokens",
          "type": "address[]"
        },
        {
          "indexed": false,
          "internalType": "uint256[]",
          "name": "amounts",
          "type": "uint256[]"
        }
      ],
      "name": "InitialTokens",
      "type": "event"
    },
    {
      "anonymous": false,
      "inputs": [
        {
          "indexed": false,
          "internalType": "address[]",
          "name": "tokens",
          "type": "address[]"
        },
        {
          "indexed": false,
          "internalType": "uint256[]",
          "name": "amounts",
          "type": "uint256[]"
        }
      ],
      "name": "InputTokens",
      "type": "event"
    },
    {
      "anonymous": false,
      "inputs": [
        {
          "indexed": false,
          "internalType": "address[]",
          "name": "tokens",
          "type": "address[]"
        },
        {
          "indexed": false,
          "internalType": "uint256[]",
          "name": "amounts",
          "type": "uint256[]"
        }
      ],
      "name": "OutputTokens",
      "type": "event"
    },
    {
      "anonymous": false,
      "inputs": [
        {
          "indexed": false,
          "internalType": "uint256",
          "name": "price",
          "type": "uint256"
        }
      ],
      "name": "PoolPriceAfterOdosSwap",
      "type": "event"
    },
    {
      "anonymous": false,
      "inputs": [
        {
          "indexed": false,
          "internalType": "uint256",
          "name": "price",
          "type": "uint256"
        }
      ],
      "name": "PoolPriceAfterSwap",
      "type": "event"
    },
    {
      "anonymous": false,
      "inputs": [
        {
          "indexed": false,
          "internalType": "uint256",
          "name": "price",
          "type": "uint256"
        }
      ],
      "name": "PoolPriceInitial",
      "type": "event"
    },
    {
      "anonymous": false,
      "inputs": [
        {
          "indexed": false,
          "internalType": "address[]",
          "name": "tokens",
          "type": "address[]"
        },
        {
          "indexed": false,
          "internalType": "uint256[]",
          "name": "amounts",
          "type": "uint256[]"
        }
      ],
      "name": "PutIntoPool",
      "type": "event"
    },
    {
      "anonymous": false,
      "inputs": [
        {
          "indexed": false,
          "internalType": "address[]",
          "name": "tokens",
          "type": "address[]"
        },
        {
          "indexed": false,
          "internalType": "uint256[]",
          "name": "amounts",
          "type": "uint256[]"
        }
      ],
      "name": "ReturnedToUser",
      "type": "event"
    },
    {
      "anonymous": false,
      "inputs": [
        {
          "indexed": false,
          "internalType": "address[]",
          "name": "tokens",
          "type": "address[]"
        },
        {
          "indexed": false,
          "internalType": "uint256[]",
          "name": "amounts",
          "type": "uint256[]"
        }
      ],
      "name": "SwappedIntoPool",
      "type": "event"
    },
    {
      "anonymous": false,
      "inputs": [
        {
          "indexed": false,
          "internalType": "uint256",
          "name": "tokenId",
          "type": "uint256"
        }
      ],
      "name": "TokenId",
      "type": "event"
    },
    {
      "inputs": [
        {
          "components": [
            {
              "components": [
                {
                  "internalType": "address",
                  "name": "tokenAddress",
                  "type": "address"
                },
                {
                  "internalType": "uint256",
                  "name": "amountIn",
                  "type": "uint256"
                }
              ],
              "internalType": "struct IZapFacet.InputToken[]",
              "name": "inputs",
              "type": "tuple[]"
            },
            {
              "components": [
                {
                  "internalType": "address",
                  "name": "tokenAddress",
                  "type": "address"
                },
                {
                  "internalType": "address",
                  "name": "receiver",
                  "type": "address"
                },
                {
                  "internalType": "uint256",
                  "name": "amountMin",
                  "type": "uint256"
                }
              ],
              "internalType": "struct IZapFacet.OutputToken[]",
              "name": "outputs",
              "type": "tuple[]"
            },
            {
              "internalType": "bytes",
              "name": "data",
              "type": "bytes"
            }
          ],
          "internalType": "struct IZapFacet.SwapData",
          "name": "swapData",
          "type": "tuple"
        },
        {
          "components": [
            {
              "internalType": "address",
              "name": "pair",
              "type": "address"
            },
            {
              "internalType": "int24[]",
              "name": "tickRange",
              "type": "int24[]"
            },
            {
              "internalType": "uint256[]",
              "name": "amountsOut",
              "type": "uint256[]"
            }
          ],
          "internalType": "struct IZapFacet.ZapInParams",
          "name": "paramsData",
          "type": "tuple"
        },
        {
          "internalType": "uint256",
          "name": "tokenId",
          "type": "uint256"
        }
      ],
      "name": "increase",
      "outputs": [],
      "stateMutability": "nonpayable",
      "type": "function"
    },
    {
      "inputs": [
        {
          "components": [
            {
              "components": [
                {
                  "internalType": "address",
                  "name": "tokenAddress",
                  "type": "address"
                },
                {
                  "internalType": "uint256",
                  "name": "amountIn",
                  "type": "uint256"
                }
              ],
              "internalType": "struct IZapFacet.InputToken[]",
              "name": "inputs",
              "type": "tuple[]"
            },
            {
              "components": [
                {
                  "internalType": "address",
                  "name": "tokenAddress",
                  "type": "address"
                },
                {
                  "internalType": "address",
                  "name": "receiver",
                  "type": "address"
                },
                {
                  "internalType": "uint256",
                  "name": "amountMin",
                  "type": "uint256"
                }
              ],
              "internalType": "struct IZapFacet.OutputToken[]",
              "name": "outputs",
              "type": "tuple[]"
            },
            {
              "internalType": "bytes",
              "name": "data",
              "type": "bytes"
            }
          ],
          "internalType": "struct IZapFacet.SwapData",
          "name": "swapData",
          "type": "tuple"
        },
        {
          "components": [
            {
              "internalType": "address",
              "name": "pair",
              "type": "address"
            },
            {
              "internalType": "int24[]",
              "name": "tickRange",
              "type": "int24[]"
            },
            {
              "internalType": "uint256[]",
              "name": "amountsOut",
              "type": "uint256[]"
            }
          ],
          "internalType": "struct IZapFacet.ZapInParams",
          "name": "paramsData",
          "type": "tuple"
        },
        {
          "internalType": "uint256",
          "name": "tokenIn",
          "type": "uint256"
        },
        {
          "internalType": "uint256[]",
          "name": "tokensOut",
          "type": "uint256[]"
        }
      ],
      "name": "merge",
      "outputs": [],
      "stateMutability": "nonpayable",
      "type": "function"
    },
    {
      "inputs": [
        {
          "components": [
            {
              "components": [
                {
                  "internalType": "address",
                  "name": "tokenAddress",
                  "type": "address"
                },
                {
                  "internalType": "uint256",
                  "name": "amountIn",
                  "type": "uint256"
                }
              ],
              "internalType": "struct IZapFacet.InputToken[]",
              "name": "inputs",
              "type": "tuple[]"
            },
            {
              "components": [
                {
                  "internalType": "address",
                  "name": "tokenAddress",
                  "type": "address"
                },
                {
                  "internalType": "address",
                  "name": "receiver",
                  "type": "address"
                },
                {
                  "internalType": "uint256",
                  "name": "amountMin",
                  "type": "uint256"
                }
              ],
              "internalType": "struct IZapFacet.OutputToken[]",
              "name": "outputs",
              "type": "tuple[]"
            },
            {
              "internalType": "bytes",
              "name": "data",
              "type": "bytes"
            }
          ],
          "internalType": "struct IZapFacet.SwapData",
          "name": "swapData",
          "type": "tuple"
        },
        {
          "components": [
            {
              "internalType": "address",
              "name": "pair",
              "type": "address"
            },
            {
              "internalType": "int24[]",
              "name": "tickRange",
              "type": "int24[]"
            },
            {
              "internalType": "uint256[]",
              "name": "amountsOut",
              "type": "uint256[]"
            }
          ],
          "internalType": "struct IZapFacet.ZapInParams",
          "name": "paramsData",
          "type": "tuple"
        },
        {
          "internalType": "uint256",
          "name": "tokenId",
          "type": "uint256"
        }
      ],
      "name": "rebalance",
      "outputs": [],
      "stateMutability": "nonpayable",
      "type": "function"
    },
    {
      "inputs": [
        {
          "components": [
            {
              "components": [
                {
                  "internalType": "address",
                  "name": "tokenAddress",
                  "type": "address"
                },
                {
                  "internalType": "uint256",
                  "name": "amountIn",
                  "type": "uint256"
                }
              ],
              "internalType": "struct IZapFacet.InputToken[]",
              "name": "inputs",
              "type": "tuple[]"
            },
            {
              "components": [
                {
                  "internalType": "address",
                  "name": "tokenAddress",
                  "type": "address"
                },
                {
                  "internalType": "address",
                  "name": "receiver",
                  "type": "address"
                },
                {
                  "internalType": "uint256",
                  "name": "amountMin",
                  "type": "uint256"
                }
              ],
              "internalType": "struct IZapFacet.OutputToken[]",
              "name": "outputs",
              "type": "tuple[]"
            },
            {
              "internalType": "bytes",
              "name": "data",
              "type": "bytes"
            }
          ],
          "internalType": "struct IZapFacet.SwapData",
          "name": "swapData",
          "type": "tuple"
        },
        {
          "components": [
            {
              "internalType": "address",
              "name": "pair",
              "type": "address"
            },
            {
              "internalType": "int24[]",
              "name": "tickRange",
              "type": "int24[]"
            },
            {
              "internalType": "uint256[]",
              "name": "amountsOut",
              "type": "uint256[]"
            }
          ],
          "internalType": "struct IZapFacet.ZapInParams",
          "name": "paramsData",
          "type": "tuple"
        }
      ],
      "name": "zapIn",
      "outputs": [],
      "stateMutability": "nonpayable",
      "type": "function"
    },
    {
      "inputs": [
        {
          "internalType": "uint256",
          "name": "tokenId",
          "type": "uint256"
        }
      ],
      "name": "zapOut",
      "outputs": [],
      "stateMutability": "nonpayable",
      "type": "function"
    },
    {
      "stateMutability": "payable",
      "type": "receive"
    }
  ],
  "transactionHash": "0xc29495fbbd249d8696ff4410db827804d7e2a2c255dd6327ff2cb0d286b93ae6",
  "args": [],
  "numDeployments": 8,
  "solcInputHash": "a1149e7f527763927bc0130bebe01424",
  "bytecode": "0x608060405234801561001057600080fd5b50612313806100206000396000f3fe60806040526004361061004e5760003560e01c80638b17a5da1461005a578063bfe75c951461007c578063d96564b11461009c578063fe07b427146100bc578063fe27824a146100dc57600080fd5b3661005557005b600080fd5b34801561006657600080fd5b5061007a610075366004611f70565b6100fc565b005b34801561008857600080fd5b5061007a610097366004612001565b610152565b3480156100a857600080fd5b5061007a6100b7366004612001565b61016f565b3480156100c857600080fd5b5061007a6100d736600461206d565b61017c565b3480156100e857600080fd5b5061007a6100f73660046120d0565b61018e565b60005b815181101561013e5761012c82828151811061011d5761011d6120e9565b6020026020010151303361019c565b8061013681612115565b9150506100ff565b5061014c8484600085610263565b50505050565b61015d81303361019c565b61016a8383600080610263565b505050565b61016a8383600184610263565b61018a828260016000610263565b5050565b61019981333361019c565b50565b604051639ac2386160e01b81526004810184905233602482015230908190639ac238619060440160006040518083038186803b1580156101db57600080fd5b505afa1580156101ef573d6000803e3d6000fd5b505060405163542ac20560e11b8152600481018790526001600160a01b03868116602483015285811660448301528416925063a855840a9150606401600060405180830381600087803b15801561024557600080fd5b505af1158015610259573d6000803e3d6000fd5b5050505050505050565b6040805160028082526060820183523092600092919060208301908036833750506040805160028082526060820183529394506000939092509060208301908036833750506040805160028082526060820183529394506000939092509060208301908036833701905050875160405163ca4f280360e01b81529192506001600160a01b0386169163ca4f2803916102fd9160040161212e565b6040805180830381865afa158015610319573d6000803e3d6000fd5b505050506040513d601f19601f8201168201806040525081019061033d9190612142565b83600081518110610350576103506120e9565b602002602001018460018151811061036a5761036a6120e9565b6001600160a01b0393841660209182029290920101529116905261038e8887610ff4565b86516040516384cc315b60e01b81527f528b1ffc1d8e7aaf92bc4e4180d5f4cccefbe267b6e563eeea54860dd61dee8c916001600160a01b038716916384cc315b916103dc9160040161212e565b602060405180830381865afa1580156103f9573d6000803e3d6000fd5b505050506040513d601f19601f8201168201806040525081019061041d919061217c565b60405190815260200160405180910390a16104378861146d565b86516040516384cc315b60e01b81527f700200cfa94f3261d8932391e64f1a299cd3ec649793ceb1b8ce090fb9b5f86e916001600160a01b038716916384cc315b916104859160040161212e565b602060405180830381865afa1580156104a2573d6000803e3d6000fd5b505050506040513d601f19601f820116820180604052508101906104c6919061217c565b60405190815260200160405180910390a18751516000906001600160401b038111156104f4576104f4611b35565b60405190808252806020026020018201604052801561051d578160200160208202803683370190505b50905060008960000151516001600160401b0381111561053f5761053f611b35565b604051908082528060200260200182016040528015610568578160200160208202803683370190505b50905060005b8a5151811015610611578a5180518290811061058c5761058c6120e9565b6020026020010151600001518382815181106105aa576105aa6120e9565b6001600160a01b03909216602092830291909101909101528a518051829081106105d6576105d66120e9565b6020026020010151602001518282815181106105f4576105f46120e9565b60209081029190910101528061060981612115565b91505061056e565b507f9aad82eab80e5230385f748130c9d61069cfefaffd6f4137cc0ad62c86ed252b8282604051610643929190612195565b60405180910390a1505060008860200151516001600160401b0381111561066c5761066c611b35565b604051908082528060200260200182016040528015610695578160200160208202803683370190505b50905060008960200151516001600160401b038111156106b7576106b7611b35565b6040519080825280602002602001820160405280156106e0578160200160208202803683370190505b50905060005b8a60200151518110156107fc578a602001518181518110610709576107096120e9565b602002602001015160000151838281518110610727576107276120e9565b60200260200101906001600160a01b031690816001600160a01b031681525050828181518110610759576107596120e9565b60200260200101516001600160a01b03166370a08231306040518263ffffffff1660e01b815260040161078c919061212e565b602060405180830381865afa1580156107a9573d6000803e3d6000fd5b505050506040513d601f19601f820116820180604052508101906107cd919061217c565b8282815181106107df576107df6120e9565b6020908102919091010152806107f481612115565b9150506106e6565b507fab6ed7963a309572d0d275f1fd5dbee4188c4c37c79dd797674ad5d7be6d4c24828260405161082e929190612195565b60405180910390a1505060005b6002811015610a5b57828181518110610856576108566120e9565b6020026020010151848281518110610870576108706120e9565b60200260200101906001600160a01b031690816001600160a01b0316815250508680156108ba57506000886040015182815181106108b0576108b06120e9565b6020026020010151115b1561096a578381815181106108d1576108d16120e9565b60200260200101516001600160a01b03166323b872dd33308b6040015185815181106108ff576108ff6120e9565b60200260200101516040518463ffffffff1660e01b81526004016109259392919061220c565b6020604051808303816000875af1158015610944573d6000803e3d6000fd5b505050506040513d601f19601f820116820180604052508101906109689190612230565b505b83818151811061097c5761097c6120e9565b60200260200101516001600160a01b03166370a08231306040518263ffffffff1660e01b81526004016109af919061212e565b602060405180830381865afa1580156109cc573d6000803e3d6000fd5b505050506040513d601f19601f820116820180604052508101906109f0919061217c565b828281518110610a0257610a026120e9565b602002602001018181525050818181518110610a2057610a206120e9565b602002602001015188604001518281518110610a3e57610a3e6120e9565b602090810291909101015280610a5381612115565b91505061083b565b507f9dc5ecb9dffba0a351fc9f415ca60e32cad1f9143e07ddb550ea26873bbd8d1f8282604051610a8d929190612195565b60405180910390a1610a9f8786611678565b945060005b6002811015610c2e57838181518110610abf57610abf6120e9565b60200260200101516001600160a01b03166370a08231306040518263ffffffff1660e01b8152600401610af2919061212e565b602060405180830381865afa158015610b0f573d6000803e3d6000fd5b505050506040513d601f19601f82011682018060405250810190610b33919061217c565b828281518110610b4557610b456120e9565b6020026020010151610b579190612259565b828281518110610b6957610b696120e9565b602002602001018181525050838181518110610b8757610b876120e9565b60200260200101516001600160a01b03166370a08231306040518263ffffffff1660e01b8152600401610bba919061212e565b602060405180830381865afa158015610bd7573d6000803e3d6000fd5b505050506040513d601f19601f82011682018060405250810190610bfb919061217c565b88604001518281518110610c1157610c116120e9565b602090810291909101015280610c2681612115565b915050610aa4565b507fa324f1f0770549b618d75aae687a67d7510eef00748723fd45ad9810a3f233b38282604051610c60929190612195565b60405180910390a186516040516384cc315b60e01b81527f42e7150a62cd698406f168f35a7dfef6e80cd3a18361f08267e768505554997e916001600160a01b038716916384cc315b91610cb69160040161212e565b602060405180830381865afa158015610cd3573d6000803e3d6000fd5b505050506040513d601f19601f82011682018060405250810190610cf7919061217c565b60405190815260200160405180910390a160005b6002811015610ded57838181518110610d2657610d266120e9565b60200260200101516001600160a01b03166370a08231306040518263ffffffff1660e01b8152600401610d59919061212e565b602060405180830381865afa158015610d76573d6000803e3d6000fd5b505050506040513d601f19601f82011682018060405250810190610d9a919061217c565b828281518110610dac57610dac6120e9565b6020026020010151610dbe9190612259565b828281518110610dd057610dd06120e9565b602090810291909101015280610de581612115565b915050610d0b565b507f976c8662927f7bf8024f889a52c96da456358194499c002b90f3a712fc8521778282604051610e1f929190612195565b60405180910390a160005b6002811015610fb057838181518110610e4557610e456120e9565b60200260200101516001600160a01b03166370a08231306040518263ffffffff1660e01b8152600401610e78919061212e565b602060405180830381865afa158015610e95573d6000803e3d6000fd5b505050506040513d601f19601f82011682018060405250810190610eb9919061217c565b828281518110610ecb57610ecb6120e9565b6020026020010181815250506000828281518110610eeb57610eeb6120e9565b60200260200101511115610f9e57838181518110610f0b57610f0b6120e9565b60200260200101516001600160a01b031663a9059cbb33848481518110610f3457610f346120e9565b60200260200101516040518363ffffffff1660e01b8152600401610f5992919061226c565b6020604051808303816000875af1158015610f78573d6000803e3d6000fd5b505050506040513d601f19601f82011682018060405250810190610f9c9190612230565b505b80610fa881612115565b915050610e2a565b507f7f490cd31e2f9d203017cdc31810e1a21503cd8353bb2369a92024071585157d8282604051610fe2929190612195565b60405180910390a15050505050505050565b60005b8260200151518110156111665760005b818110156111535783602001518181518110611025576110256120e9565b6020026020010151600001516001600160a01b031684602001518381518110611050576110506120e9565b6020026020010151600001516001600160a01b0316036110b15760405162461bcd60e51b81526020600482015260176024820152764475706c6963617465206f757470757420746f6b656e7360481b60448201526064015b60405180910390fd5b306001600160a01b0316846020015183815181106110d1576110d16120e9565b6020026020010151602001516001600160a01b0316146111415760405162461bcd60e51b815260206004820152602560248201527f5265636569766572206f662073776170206973206e6f74207468697320636f6e6044820152641d1c9858dd60da1b60648201526084016110a8565b8061114b81612115565b915050611007565b508061115e81612115565b915050610ff7565b5060005b82515181101561016a5760005b8181101561122b578351805182908110611193576111936120e9565b6020026020010151600001516001600160a01b0316846000015183815181106111be576111be6120e9565b6020026020010151600001516001600160a01b0316036112195760405162461bcd60e51b81526020600482015260166024820152754475706c696361746520696e70757420746f6b656e7360501b60448201526064016110a8565b8061122381612115565b915050611177565b5060005b8360200151518110156112f15783602001518181518110611252576112526120e9565b6020026020010151600001516001600160a01b03168460000151838151811061127d5761127d6120e9565b6020026020010151600001516001600160a01b0316036112df5760405162461bcd60e51b815260206004820152601a60248201527f4475706c696361746520696e70757420616e64206f757470757400000000000060448201526064016110a8565b806112e981612115565b91505061122f565b5060008360000151828151811061130a5761130a6120e9565b602002602001015160000151905082156113b457806001600160a01b03166323b872dd333087600001518681518110611345576113456120e9565b6020026020010151602001516040518463ffffffff1660e01b815260040161136f9392919061220c565b6020604051808303816000875af115801561138e573d6000803e3d6000fd5b505050506040513d601f19601f820116820180604052508101906113b29190612230565b505b806001600160a01b031663095ea7b36113cb611b11565b54865180516001600160a01b0390921691869081106113ec576113ec6120e9565b6020026020010151602001516040518363ffffffff1660e01b815260040161141592919061226c565b6020604051808303816000875af1158015611434573d6000803e3d6000fd5b505050506040513d601f19601f820116820180604052508101906114589190612230565b5050808061146590612115565b91505061116a565b6000611477611b11565b5460408084015190516001600160a01b039092169160009161149891612285565b60006040518083038185875af1925050503d80600081146114d5576040519150601f19603f3d011682016040523d82523d6000602084013e6114da565b606091505b50509050806115215760405162461bcd60e51b81526020600482015260136024820152721c9bdd5d195c881cddd85c081a5b9d985b1a59606a1b60448201526064016110a8565b60005b82602001515181101561016a57600083602001518281518110611549576115496120e9565b6020026020010151600001516001600160a01b03166370a08231306040518263ffffffff1660e01b8152600401611580919061212e565b602060405180830381865afa15801561159d573d6000803e3d6000fd5b505050506040513d601f19601f820116820180604052508101906115c1919061217c565b9050836020015182815181106115d9576115d96120e9565b6020026020010151604001518110156116655783602001518281518110611602576116026120e9565b60200260200101516000015184602001518381518110611624576116246120e9565b602090810291909101015160409081015190516372ad0fbd60e01b81526001600160a01b0390921660048301526024820152604481018290526064016110a8565b508061167081612115565b915050611524565b604080516002808252606082018352600092839291906020830190803683375050855160405163ca4f280360e01b8152929350309283925063ca4f2803916116c29160040161212e565b6040805180830381865afa1580156116de573d6000803e3d6000fd5b505050506040513d601f19601f820116820180604052508101906117029190612142565b83600081518110611715576117156120e9565b602002602001018460018151811061172f5761172f6120e9565b6001600160a01b0393841660209182029290920101529116905281516000908390829061175e5761175e6120e9565b6020026020010151905060008360018151811061177d5761177d6120e9565b60200260200101519050816001600160a01b031663095ea7b361179e611b11565b6001015460408a015180516001600160a01b03909216916000906117c4576117c46120e9565b60200260200101516040518363ffffffff1660e01b81526004016117e992919061226c565b6020604051808303816000875af1158015611808573d6000803e3d6000fd5b505050506040513d601f19601f8201168201806040525081019061182c9190612230565b50806001600160a01b031663095ea7b3611844611b11565b60019081015460408b015180516001600160a01b03909216929091811061186d5761186d6120e9565b60200260200101516040518363ffffffff1660e01b815260040161189292919061226c565b6020604051808303816000875af11580156118b1573d6000803e3d6000fd5b505050506040513d601f19601f820116820180604052508101906118d59190612230565b5085600003611a4157826001600160a01b0316631587d2b588600001518960200151600081518110611909576119096120e9565b60200260200101518a60200151600181518110611928576119286120e9565b60200260200101518b60400151600081518110611947576119476120e9565b60200260200101518c60400151600181518110611966576119666120e9565b60209081029190910101516040516001600160e01b031960e088901b1681526001600160a01b039095166004860152600293840b60248601529190920b6044840152606483019190915260848201523360a482015260c4016020604051808303816000875af11580156119dd573d6000803e3d6000fd5b505050506040513d601f19601f82011682018060405250810190611a01919061217c565b95507fa4e8e12e12124dbefe84fada6e584fcfaf4862f3b8284a8174f89be901ec4d7d86604051611a3491815260200190565b60405180910390a1611b03565b826001600160a01b031663e115bc5c878960400151600081518110611a6857611a686120e9565b60200260200101518a60400151600181518110611a8757611a876120e9565b60200260200101516040518463ffffffff1660e01b8152600401611abe939291909283526020830191909152604082015260600190565b6020604051808303816000875af1158015611add573d6000803e3d6000fd5b505050506040513d601f19601f82011682018060405250810190611b0191906122b4565b505b859450505050505b92915050565b7f515bff1426cf6c4fb5ebb9b3e24eeca6b61f1bf3996e6c15108dda282fa29a4390565b634e487b7160e01b600052604160045260246000fd5b604051606081016001600160401b0381118282101715611b6d57611b6d611b35565b60405290565b604080519081016001600160401b0381118282101715611b6d57611b6d611b35565b604051601f8201601f191681016001600160401b0381118282101715611bbd57611bbd611b35565b604052919050565b60006001600160401b03821115611bde57611bde611b35565b5060051b60200190565b6001600160a01b038116811461019957600080fd5b600082601f830112611c0e57600080fd5b81356020611c23611c1e83611bc5565b611b95565b82815260609283028501820192828201919087851115611c4257600080fd5b8387015b85811015611c9b5781818a031215611c5e5760008081fd5b611c66611b4b565b8135611c7181611be8565b815281860135611c8081611be8565b81870152604082810135908201528452928401928101611c46565b5090979650505050505050565b600082601f830112611cb957600080fd5b81356001600160401b03811115611cd257611cd2611b35565b611ce5601f8201601f1916602001611b95565b818152846020838601011115611cfa57600080fd5b816020850160208301376000918101602001919091529392505050565b600060608284031215611d2957600080fd5b611d31611b4b565b905081356001600160401b0380821115611d4a57600080fd5b818401915084601f830112611d5e57600080fd5b81356020611d6e611c1e83611bc5565b82815260069290921b84018101918181019088841115611d8d57600080fd5b948201945b83861015611dd9576040868a031215611dab5760008081fd5b611db3611b73565b8635611dbe81611be8565b81528684013584820152825260409095019490820190611d92565b86525085810135935082841115611def57600080fd5b611dfb87858801611bfd565b90850152506040840135915080821115611e1457600080fd5b50611e2184828501611ca8565b60408301525092915050565b600082601f830112611e3e57600080fd5b81356020611e4e611c1e83611bc5565b82815260059290921b84018101918181019086841115611e6d57600080fd5b8286015b84811015611e885780358352918301918301611e71565b509695505050505050565b600060608284031215611ea557600080fd5b611ead611b4b565b90508135611eba81611be8565b81526020828101356001600160401b0380821115611ed757600080fd5b818501915085601f830112611eeb57600080fd5b8135611ef9611c1e82611bc5565b81815260059190911b83018401908481019088831115611f1857600080fd5b938501935b82851015611f465784358060020b8114611f375760008081fd5b82529385019390850190611f1d565b80868801525050506040850135925080831115611f6257600080fd5b5050611e2184828501611e2d565b60008060008060808587031215611f8657600080fd5b84356001600160401b0380821115611f9d57600080fd5b611fa988838901611d17565b95506020870135915080821115611fbf57600080fd5b611fcb88838901611e93565b9450604087013593506060870135915080821115611fe857600080fd5b50611ff587828801611e2d565b91505092959194509250565b60008060006060848603121561201657600080fd5b83356001600160401b038082111561202d57600080fd5b61203987838801611d17565b9450602086013591508082111561204f57600080fd5b5061205c86828701611e93565b925050604084013590509250925092565b6000806040838503121561208057600080fd5b82356001600160401b038082111561209757600080fd5b6120a386838701611d17565b935060208501359150808211156120b957600080fd5b506120c685828601611e93565b9150509250929050565b6000602082840312156120e257600080fd5b5035919050565b634e487b7160e01b600052603260045260246000fd5b634e487b7160e01b600052601160045260246000fd5b600060018201612127576121276120ff565b5060010190565b6001600160a01b0391909116815260200190565b6000806040838503121561215557600080fd5b825161216081611be8565b602084015190925061217181611be8565b809150509250929050565b60006020828403121561218e57600080fd5b5051919050565b604080825283519082018190526000906020906060840190828701845b828110156121d75781516001600160a01b0316845292840192908401906001016121b2565b5050508381038285015284518082528583019183019060005b81811015611c9b578351835292840192918401916001016121f0565b6001600160a01b039384168152919092166020820152604081019190915260600190565b60006020828403121561224257600080fd5b8151801515811461225257600080fd5b9392505050565b81810381811115611b0b57611b0b6120ff565b6001600160a01b03929092168252602082015260400190565b6000825160005b818110156122a6576020818601810151858301520161228c565b506000920191825250919050565b6000602082840312156122c657600080fd5b81516001600160801b038116811461225257600080fdfea264697066735822122065d73361ba2f9ca98b7e5b341f98b85c06f8279ed422140569fd64a440b2af4164736f6c63430008110033",
  "devdoc": {
    "kind": "dev",
    "methods": {},
    "version": 1
  },
  "userdoc": {
    "kind": "user",
    "methods": {},
    "version": 1
  },
  "storageLayout": {
    "storage": [],
    "types": null
  }
}