{
  "address": "0x0932BB4c7e4bdD9cd717331b86d999046f8420E0",
  "abi": [
    {
      "inputs": [],
      "stateMutability": "nonpayable",
      "type": "constructor"
    },
    {
      "anonymous": false,
      "inputs": [
        {
          "indexed": false,
          "internalType": "address",
          "name": "previousAdmin",
          "type": "address"
        },
        {
          "indexed": false,
          "internalType": "address",
          "name": "newAdmin",
          "type": "address"
        }
      ],
      "name": "AdminChanged",
      "type": "event"
    },
    {
      "anonymous": false,
      "inputs": [
        {
          "indexed": false,
          "internalType": "address",
          "name": "value",
          "type": "address"
        }
      ],
      "name": "AssetUpdated",
      "type": "event"
    },
    {
      "anonymous": false,
      "inputs": [],
      "name": "Balance",
      "type": "event"
    },
    {
      "anonymous": false,
      "inputs": [
        {
          "indexed": true,
          "internalType": "address",
          "name": "beacon",
          "type": "address"
        }
      ],
      "name": "BeaconUpgraded",
      "type": "event"
    },
    {
      "anonymous": false,
      "inputs": [
        {
          "indexed": false,
          "internalType": "address",
          "name": "value",
          "type": "address"
        }
      ],
      "name": "CashStrategyAlreadySet",
      "type": "event"
    },
    {
      "anonymous": false,
      "inputs": [
        {
          "indexed": false,
          "internalType": "uint256",
          "name": "value",
          "type": "uint256"
        }
      ],
      "name": "CashStrategyRestaked",
      "type": "event"
    },
    {
      "anonymous": false,
      "inputs": [
        {
          "indexed": false,
          "internalType": "address",
          "name": "value",
          "type": "address"
        }
      ],
      "name": "CashStrategyUpdated",
      "type": "event"
    },
    {
      "anonymous": false,
      "inputs": [
        {
          "indexed": false,
          "internalType": "uint256",
          "name": "amount",
          "type": "uint256"
        },
        {
          "indexed": false,
          "internalType": "address",
          "name": "from",
          "type": "address"
        },
        {
          "indexed": false,
          "internalType": "address",
          "name": "to",
          "type": "address"
        }
      ],
      "name": "Exchanged",
      "type": "event"
    },
    {
      "anonymous": false,
      "inputs": [
        {
          "indexed": false,
          "internalType": "address",
          "name": "value",
          "type": "address"
        }
      ],
      "name": "ExchangerUpdated",
      "type": "event"
    },
    {
      "anonymous": false,
      "inputs": [
        {
          "indexed": false,
          "internalType": "uint8",
          "name": "version",
          "type": "uint8"
        }
      ],
      "name": "Initialized",
      "type": "event"
    },
    {
      "anonymous": false,
      "inputs": [
        {
          "indexed": false,
          "internalType": "address",
          "name": "value",
          "type": "address"
        }
      ],
      "name": "Mark2MarketUpdated",
      "type": "event"
    },
    {
      "anonymous": false,
      "inputs": [
        {
          "indexed": true,
          "internalType": "bytes32",
          "name": "role",
          "type": "bytes32"
        },
        {
          "indexed": true,
          "internalType": "bytes32",
          "name": "previousAdminRole",
          "type": "bytes32"
        },
        {
          "indexed": true,
          "internalType": "bytes32",
          "name": "newAdminRole",
          "type": "bytes32"
        }
      ],
      "name": "RoleAdminChanged",
      "type": "event"
    },
    {
      "anonymous": false,
      "inputs": [
        {
          "indexed": true,
          "internalType": "bytes32",
          "name": "role",
          "type": "bytes32"
        },
        {
          "indexed": true,
          "internalType": "address",
          "name": "account",
          "type": "address"
        },
        {
          "indexed": true,
          "internalType": "address",
          "name": "sender",
          "type": "address"
        }
      ],
      "name": "RoleGranted",
      "type": "event"
    },
    {
      "anonymous": false,
      "inputs": [
        {
          "indexed": true,
          "internalType": "bytes32",
          "name": "role",
          "type": "bytes32"
        },
        {
          "indexed": true,
          "internalType": "address",
          "name": "account",
          "type": "address"
        },
        {
          "indexed": true,
          "internalType": "address",
          "name": "sender",
          "type": "address"
        }
      ],
      "name": "RoleRevoked",
      "type": "event"
    },
    {
      "anonymous": false,
      "inputs": [
        {
          "indexed": false,
          "internalType": "uint256",
          "name": "index",
          "type": "uint256"
        },
        {
          "indexed": false,
          "internalType": "address",
          "name": "strategy",
          "type": "address"
        },
        {
          "indexed": false,
          "internalType": "uint256",
          "name": "minWeight",
          "type": "uint256"
        },
        {
          "indexed": false,
          "internalType": "uint256",
          "name": "targetWeight",
          "type": "uint256"
        },
        {
          "indexed": false,
          "internalType": "uint256",
          "name": "maxWeight",
          "type": "uint256"
        },
        {
          "indexed": false,
          "internalType": "uint256",
          "name": "riskFactor",
          "type": "uint256"
        },
        {
          "indexed": false,
          "internalType": "bool",
          "name": "enabled",
          "type": "bool"
        },
        {
          "indexed": false,
          "internalType": "bool",
          "name": "enabledReward",
          "type": "bool"
        }
      ],
      "name": "StrategyWeightUpdated",
      "type": "event"
    },
    {
      "anonymous": false,
      "inputs": [
        {
          "indexed": false,
          "internalType": "uint256",
          "name": "value",
          "type": "uint256"
        }
      ],
      "name": "TotalRiskFactorUpdated",
      "type": "event"
    },
    {
      "anonymous": false,
      "inputs": [
        {
          "indexed": true,
          "internalType": "address",
          "name": "implementation",
          "type": "address"
        }
      ],
      "name": "Upgraded",
      "type": "event"
    },
    {
      "inputs": [],
      "name": "DEFAULT_ADMIN_ROLE",
      "outputs": [
        {
          "internalType": "bytes32",
          "name": "",
          "type": "bytes32"
        }
      ],
      "stateMutability": "view",
      "type": "function"
    },
    {
      "inputs": [],
      "name": "EXCHANGER",
      "outputs": [
        {
          "internalType": "bytes32",
          "name": "",
          "type": "bytes32"
        }
      ],
      "stateMutability": "view",
      "type": "function"
    },
    {
      "inputs": [],
      "name": "PORTFOLIO_AGENT_ROLE",
      "outputs": [
        {
          "internalType": "bytes32",
          "name": "",
          "type": "bytes32"
        }
      ],
      "stateMutability": "view",
      "type": "function"
    },
    {
      "inputs": [],
      "name": "TOTAL_WEIGHT",
      "outputs": [
        {
          "internalType": "uint256",
          "name": "",
          "type": "uint256"
        }
      ],
      "stateMutability": "view",
      "type": "function"
    },
    {
      "inputs": [
        {
          "internalType": "address",
          "name": "_strategy",
          "type": "address"
        }
      ],
      "name": "addStrategy",
      "outputs": [],
      "stateMutability": "nonpayable",
      "type": "function"
    },
    {
      "inputs": [],
      "name": "balance",
      "outputs": [],
      "stateMutability": "nonpayable",
      "type": "function"
    },
    {
      "inputs": [],
      "name": "cashStrategy",
      "outputs": [
        {
          "internalType": "contract IStrategy",
          "name": "",
          "type": "address"
        }
      ],
      "stateMutability": "view",
      "type": "function"
    },
    {
      "inputs": [],
      "name": "claimAndBalance",
      "outputs": [],
      "stateMutability": "nonpayable",
      "type": "function"
    },
    {
      "inputs": [],
      "name": "deposit",
      "outputs": [],
      "stateMutability": "nonpayable",
      "type": "function"
    },
    {
      "inputs": [],
      "name": "exchanger",
      "outputs": [
        {
          "internalType": "address",
          "name": "",
          "type": "address"
        }
      ],
      "stateMutability": "view",
      "type": "function"
    },
    {
      "inputs": [],
      "name": "getAllStrategyWeights",
      "outputs": [
        {
          "components": [
            {
              "internalType": "address",
              "name": "strategy",
              "type": "address"
            },
            {
              "internalType": "uint256",
              "name": "minWeight",
              "type": "uint256"
            },
            {
              "internalType": "uint256",
              "name": "targetWeight",
              "type": "uint256"
            },
            {
              "internalType": "uint256",
              "name": "maxWeight",
              "type": "uint256"
            },
            {
              "internalType": "uint256",
              "name": "riskFactor",
              "type": "uint256"
            },
            {
              "internalType": "bool",
              "name": "enabled",
              "type": "bool"
            },
            {
              "internalType": "bool",
              "name": "enabledReward",
              "type": "bool"
            }
          ],
          "internalType": "struct IPortfolioManager.StrategyWeight[]",
          "name": "",
          "type": "tuple[]"
        }
      ],
      "stateMutability": "view",
      "type": "function"
    },
    {
      "inputs": [
        {
          "internalType": "bytes32",
          "name": "role",
          "type": "bytes32"
        }
      ],
      "name": "getRoleAdmin",
      "outputs": [
        {
          "internalType": "bytes32",
          "name": "",
          "type": "bytes32"
        }
      ],
      "stateMutability": "view",
      "type": "function"
    },
    {
      "inputs": [
        {
          "internalType": "address",
          "name": "strategy",
          "type": "address"
        }
      ],
      "name": "getStrategyWeight",
      "outputs": [
        {
          "components": [
            {
              "internalType": "address",
              "name": "strategy",
              "type": "address"
            },
            {
              "internalType": "uint256",
              "name": "minWeight",
              "type": "uint256"
            },
            {
              "internalType": "uint256",
              "name": "targetWeight",
              "type": "uint256"
            },
            {
              "internalType": "uint256",
              "name": "maxWeight",
              "type": "uint256"
            },
            {
              "internalType": "uint256",
              "name": "riskFactor",
              "type": "uint256"
            },
            {
              "internalType": "bool",
              "name": "enabled",
              "type": "bool"
            },
            {
              "internalType": "bool",
              "name": "enabledReward",
              "type": "bool"
            }
          ],
          "internalType": "struct IPortfolioManager.StrategyWeight",
          "name": "",
          "type": "tuple"
        }
      ],
      "stateMutability": "view",
      "type": "function"
    },
    {
      "inputs": [],
      "name": "getTotalRiskFactor",
      "outputs": [
        {
          "internalType": "uint256",
          "name": "",
          "type": "uint256"
        }
      ],
      "stateMutability": "view",
      "type": "function"
    },
    {
      "inputs": [
        {
          "internalType": "bytes32",
          "name": "role",
          "type": "bytes32"
        },
        {
          "internalType": "address",
          "name": "account",
          "type": "address"
        }
      ],
      "name": "grantRole",
      "outputs": [],
      "stateMutability": "nonpayable",
      "type": "function"
    },
    {
      "inputs": [
        {
          "internalType": "bytes32",
          "name": "role",
          "type": "bytes32"
        },
        {
          "internalType": "address",
          "name": "account",
          "type": "address"
        }
      ],
      "name": "hasRole",
      "outputs": [
        {
          "internalType": "bool",
          "name": "",
          "type": "bool"
        }
      ],
      "stateMutability": "view",
      "type": "function"
    },
    {
      "inputs": [],
      "name": "initialize",
      "outputs": [],
      "stateMutability": "nonpayable",
      "type": "function"
    },
    {
      "inputs": [],
      "name": "m2m",
      "outputs": [
        {
          "internalType": "contract IMark2Market",
          "name": "",
          "type": "address"
        }
      ],
      "stateMutability": "view",
      "type": "function"
    },
    {
      "inputs": [],
      "name": "navSlippageBp",
      "outputs": [
        {
          "internalType": "uint256",
          "name": "",
          "type": "uint256"
        }
      ],
      "stateMutability": "view",
      "type": "function"
    },
    {
      "inputs": [],
      "name": "proxiableUUID",
      "outputs": [
        {
          "internalType": "bytes32",
          "name": "",
          "type": "bytes32"
        }
      ],
      "stateMutability": "view",
      "type": "function"
    },
    {
      "inputs": [
        {
          "internalType": "address",
          "name": "_strategy",
          "type": "address"
        }
      ],
      "name": "removeStrategy",
      "outputs": [],
      "stateMutability": "nonpayable",
      "type": "function"
    },
    {
      "inputs": [
        {
          "internalType": "bytes32",
          "name": "role",
          "type": "bytes32"
        },
        {
          "internalType": "address",
          "name": "account",
          "type": "address"
        }
      ],
      "name": "renounceRole",
      "outputs": [],
      "stateMutability": "nonpayable",
      "type": "function"
    },
    {
      "inputs": [
        {
          "internalType": "bytes32",
          "name": "role",
          "type": "bytes32"
        },
        {
          "internalType": "address",
          "name": "account",
          "type": "address"
        }
      ],
      "name": "revokeRole",
      "outputs": [],
      "stateMutability": "nonpayable",
      "type": "function"
    },
    {
      "inputs": [
        {
          "internalType": "address",
          "name": "_asset",
          "type": "address"
        }
      ],
      "name": "setAsset",
      "outputs": [],
      "stateMutability": "nonpayable",
      "type": "function"
    },
    {
      "inputs": [
        {
          "internalType": "address",
          "name": "_cashStrategy",
          "type": "address"
        }
      ],
      "name": "setCashStrategy",
      "outputs": [],
      "stateMutability": "nonpayable",
      "type": "function"
    },
    {
      "inputs": [
        {
          "internalType": "address",
          "name": "_exchanger",
          "type": "address"
        }
      ],
      "name": "setExchanger",
      "outputs": [],
      "stateMutability": "nonpayable",
      "type": "function"
    },
    {
      "inputs": [
        {
          "internalType": "address",
          "name": "_m2m",
          "type": "address"
        }
      ],
      "name": "setMark2Market",
      "outputs": [],
      "stateMutability": "nonpayable",
      "type": "function"
    },
    {
      "inputs": [
        {
          "internalType": "uint256",
          "name": "_navSlippageBp",
          "type": "uint256"
        }
      ],
      "name": "setNavSlippageBp",
      "outputs": [],
      "stateMutability": "nonpayable",
      "type": "function"
    },
    {
      "inputs": [
        {
          "components": [
            {
              "internalType": "address",
              "name": "strategy",
              "type": "address"
            },
            {
              "internalType": "uint256",
              "name": "minWeight",
              "type": "uint256"
            },
            {
              "internalType": "uint256",
              "name": "targetWeight",
              "type": "uint256"
            },
            {
              "internalType": "uint256",
              "name": "maxWeight",
              "type": "uint256"
            },
            {
              "internalType": "uint256",
              "name": "riskFactor",
              "type": "uint256"
            },
            {
              "internalType": "bool",
              "name": "enabled",
              "type": "bool"
            },
            {
              "internalType": "bool",
              "name": "enabledReward",
              "type": "bool"
            }
          ],
          "internalType": "struct IPortfolioManager.StrategyWeight[]",
          "name": "_strategyWeights",
          "type": "tuple[]"
        }
      ],
      "name": "setStrategyWeights",
      "outputs": [],
      "stateMutability": "nonpayable",
      "type": "function"
    },
    {
      "inputs": [
        {
          "internalType": "address",
          "name": "",
          "type": "address"
        }
      ],
      "name": "strategyWeightPositions",
      "outputs": [
        {
          "internalType": "uint256",
          "name": "",
          "type": "uint256"
        }
      ],
      "stateMutability": "view",
      "type": "function"
    },
    {
      "inputs": [
        {
          "internalType": "uint256",
          "name": "",
          "type": "uint256"
        }
      ],
      "name": "strategyWeights",
      "outputs": [
        {
          "internalType": "address",
          "name": "strategy",
          "type": "address"
        },
        {
          "internalType": "uint256",
          "name": "minWeight",
          "type": "uint256"
        },
        {
          "internalType": "uint256",
          "name": "targetWeight",
          "type": "uint256"
        },
        {
          "internalType": "uint256",
          "name": "maxWeight",
          "type": "uint256"
        },
        {
          "internalType": "uint256",
          "name": "riskFactor",
          "type": "uint256"
        },
        {
          "internalType": "bool",
          "name": "enabled",
          "type": "bool"
        },
        {
          "internalType": "bool",
          "name": "enabledReward",
          "type": "bool"
        }
      ],
      "stateMutability": "view",
      "type": "function"
    },
    {
      "inputs": [
        {
          "internalType": "bytes4",
          "name": "interfaceId",
          "type": "bytes4"
        }
      ],
      "name": "supportsInterface",
      "outputs": [
        {
          "internalType": "bool",
          "name": "",
          "type": "bool"
        }
      ],
      "stateMutability": "view",
      "type": "function"
    },
    {
      "inputs": [],
      "name": "totalRiskFactor",
      "outputs": [
        {
          "internalType": "uint256",
          "name": "",
          "type": "uint256"
        }
      ],
      "stateMutability": "view",
      "type": "function"
    },
    {
      "inputs": [
        {
          "internalType": "address",
          "name": "newImplementation",
          "type": "address"
        }
      ],
      "name": "upgradeTo",
      "outputs": [],
      "stateMutability": "nonpayable",
      "type": "function"
    },
    {
      "inputs": [
        {
          "internalType": "address",
          "name": "newImplementation",
          "type": "address"
        },
        {
          "internalType": "bytes",
          "name": "data",
          "type": "bytes"
        }
      ],
      "name": "upgradeToAndCall",
      "outputs": [],
      "stateMutability": "payable",
      "type": "function"
    },
    {
      "inputs": [
        {
          "internalType": "uint256",
          "name": "_amount",
          "type": "uint256"
        }
      ],
      "name": "withdraw",
      "outputs": [
        {
          "internalType": "uint256",
          "name": "",
          "type": "uint256"
        },
        {
          "internalType": "bool",
          "name": "",
          "type": "bool"
        }
      ],
      "stateMutability": "nonpayable",
      "type": "function"
    }
  ],
  "numDeployments": 2,
  "solcInputHash": "0691423011d9bd942430686ccc5de3d5",
  "bytecode": "0x60a06040523060601b6080523480156200001857600080fd5b50600054610100900460ff16158080156200003a5750600054600160ff909116105b806200006a575062000057306200014460201b620024761760201c565b1580156200006a575060005460ff166001145b620000d25760405162461bcd60e51b815260206004820152602e60248201527f496e697469616c697a61626c653a20636f6e747261637420697320616c72656160448201526d191e481a5b9a5d1a585b1a5e995960921b606482015260840160405180910390fd5b6000805460ff191660011790558015620000f6576000805461ff0019166101001790555b80156200013d576000805461ff0019169055604051600181527f7f26b83ff96e1f2b6a682f133852f6798a09c465da95921460cefb38474024989060200160405180910390a15b5062000153565b6001600160a01b03163b151590565b60805160601c6141946200018e600039600081816111d2015281816112120152818161135501528181611395015261142401526141946000f3fe60806040526004361061020f5760003560e01c80635dbd733a11610118578063bd0f1053116100a0578063d0e30db01161006f578063d0e30db014610658578063d547741f1461066d578063da909b091461068d578063ed2a2f9d146106ad578063f281d438146106c457600080fd5b8063bd0f1053146105e1578063c6bbf4cb14610603578063cd3de5d414610618578063d0d552dd1461063857600080fd5b806391d14854116100e757806391d14854146105605780639b1dcfec14610580578063a217fddf146105a0578063acffa933146105b5578063b69ef8a8146105cc57600080fd5b80635dbd733a1461049957806375e8bdfa146104bb5780638129fc1c146104e85780638e6c8ab3146104fd57600080fd5b806336568abe1161019b5780634953bd071161016a5780634953bd071461041b5780634d12fca4146104315780634f1ef2861461045157806352d1902d1461046457806359d57c1a1461047957600080fd5b806336568abe1461039a5780633659cfe6146103ba57806337044771146103da5780633d92c38b146103fa57600080fd5b8063223e5479116101e2578063223e5479146102bd578063248a9ca3146102dd57806329cb1bee1461030d5780632e1a7d4d146103455780632f2ff15d1461037a57600080fd5b806301ffc9a71461021457806306e73924146102495780631181570114610276578063175188e81461029b575b600080fd5b34801561022057600080fd5b5061023461022f366004613ac5565b6106e6565b60405190151581526020015b60405180910390f35b34801561025557600080fd5b50610269610264366004613914565b61071d565b6040516102409190613f01565b34801561028257600080fd5b5061028d6101025481565b604051908152602001610240565b3480156102a757600080fd5b506102bb6102b6366004613914565b61089f565b005b3480156102c957600080fd5b506102bb6102d8366004613914565b610cb8565b3480156102e957600080fd5b5061028d6102f8366004613a67565b60009081526065602052604090206001015490565b34801561031957600080fd5b5060ff5461032d906001600160a01b031681565b6040516001600160a01b039091168152602001610240565b34801561035157600080fd5b50610365610360366004613a67565b610dfb565b60408051928352901515602083015201610240565b34801561038657600080fd5b506102bb610395366004613a99565b61111f565b3480156103a657600080fd5b506102bb6103b5366004613a99565b611149565b3480156103c657600080fd5b506102bb6103d5366004613914565b6111c7565b3480156103e657600080fd5b506102bb6103f5366004613914565b6112a7565b34801561040657600080fd5b506101005461032d906001600160a01b031681565b34801561042757600080fd5b506101015461028d565b34801561043d57600080fd5b5060fb5461032d906001600160a01b031681565b6102bb61045f36600461392f565b61134a565b34801561047057600080fd5b5061028d611417565b34801561048557600080fd5b506102bb610494366004613914565b6114ca565b3480156104a557600080fd5b5061028d6000805160206140f883398151915281565b3480156104c757600080fd5b5061028d6104d6366004613914565b60fd6020526000908152604090205481565b3480156104f457600080fd5b506102bb61181c565b34801561050957600080fd5b5061051d610518366004613a67565b61193f565b604080516001600160a01b03909816885260208801969096529486019390935260608501919091526080840152151560a0830152151560c082015260e001610240565b34801561056c57600080fd5b5061023461057b366004613a99565b61199b565b34801561058c57600080fd5b506102bb61059b3660046139d5565b6119c6565b3480156105ac57600080fd5b5061028d600081565b3480156105c157600080fd5b5061028d6101015481565b3480156105d857600080fd5b506102bb611f42565b3480156105ed57600080fd5b5061028d6000805160206140d883398151915281565b34801561060f57600080fd5b506102bb611fa9565b34801561062457600080fd5b506102bb610633366004613a67565b611fef565b34801561064457600080fd5b506102bb610653366004613914565b612029565b34801561066457600080fd5b506102bb6120c4565b34801561067957600080fd5b506102bb610688366004613a99565b6122c6565b34801561069957600080fd5b506102bb6106a8366004613914565b6122eb565b3480156106b957600080fd5b5061028d620186a081565b3480156106d057600080fd5b506106d96123c3565b6040516102409190613d15565b60006001600160e01b03198216637965db0b60e01b148061071757506301ffc9a760e01b6001600160e01b03198316145b92915050565b61076a6040518060e0016040528060006001600160a01b03168152602001600081526020016000815260200160008152602001600081526020016000151581526020016000151581525090565b60fe546107b35760405162461bcd60e51b815260206004820152601260248201527114dd1c985d1959de481b9bdd08199bdd5b9960721b60448201526064015b60405180910390fd5b6001600160a01b038216600090815260fd602052604081205460fe805490919081106107e1576107e161409d565b60009182526020918290206040805160e081018252600690930290910180546001600160a01b0390811680855260018301549585019590955260028201549284019290925260038101546060840152600481015460808401526005015460ff808216151560a085015261010090910416151560c08301529092508416146107175760405162461bcd60e51b815260206004820152601260248201527114dd1c985d1959de481b9bdd08199bdd5b9960721b60448201526064016107aa565b6108aa60003361199b565b6108c65760405162461bcd60e51b81526004016107aa90613e65565b6001600160a01b038116600090815260fd602052604081205460fe8054919291839081106108f6576108f661409d565b60009182526020918290206040805160e081018252600690930290910180546001600160a01b0390811680855260018301549585019590955260028201549284019290925260038101546060840152600481015460808401526005015460ff808216151560a085015261010090910416151560c08301529092508416146109bf5760405162461bcd60e51b815260206004820152601b60248201527f41646472657373207374726174656779206e6f7420657175616c73000000000060448201526064016107aa565b604081015115610a115760405162461bcd60e51b815260206004820152601760248201527f54617267657420776569676874206d757374206265203000000000000000000060448201526064016107aa565b80600001516001600160a01b031663a3673b386040518163ffffffff1660e01b815260040160206040518083038186803b158015610a4e57600080fd5b505afa158015610a62573d6000803e3d6000fd5b505050506040513d601f19601f82011682018060405250810190610a869190613a80565b15610acc5760405162461bcd60e51b815260206004820152601660248201527505374726174656779206e6176206d75737420626520360541b60448201526064016107aa565b815b60fe54610add90600190613fdc565b811015610c3a57600060fe610af3836001613f83565b81548110610b0357610b0361409d565b60009182526020918290206040805160e081018252600690930290910180546001600160a01b03168352600181015493830193909352600283015490820152600382015460608201526004820154608082015260059091015460ff808216151560a084015261010090910416151560c082015260fe8054919250829184908110610b8f57610b8f61409d565b6000918252602080832084516006939093020180546001600160a01b0319166001600160a01b039384161781558482015160018201556040808601516002830155606086015160038301556080860151600483015560a08601516005909201805460c09097015161ffff1990971692151561ff0019169290921761010096151596909602959095179055935116815260fd909252902081905580610c3281614036565b915050610ace565b5060fe805480610c4c57610c4c614087565b6000828152602080822060066000199094019384020180546001600160a01b031916815560018101839055600281018390556003810183905560048101839055600501805461ffff19169055919092556001600160a01b0394909416815260fd90935250506040812055565b610cc360003361199b565b610cdf5760405162461bcd60e51b81526004016107aa90613e65565b60005b60fe5460ff82161015610d8257816001600160a01b031660fe8260ff1681548110610d0f57610d0f61409d565b60009182526020909120600690910201546001600160a01b03161415610d705760405162461bcd60e51b815260206004820152601660248201527514dd1c985d1959de48185b1c9958591e48195e1a5cdd60521b60448201526064016107aa565b80610d7a81614051565b915050610ce2565b506040805160e0810182526001600160a01b0383168152600060208201819052918101829052606081018290526080810182905260a0810182905260c0810182905260fe5490919015610dd4575060fe545b610dde8282612485565b90516001600160a01b0316600090815260fd602052604090205550565b600080610e166000805160206140d88339815191523361199b565b610e325760405162461bcd60e51b81526004016107aa90613d96565b60ff546001600160a01b0316610e865760405162461bcd60e51b815260206004820152601960248201527810d85cda081cdd1c985d1959de481b9bdd081cd95d081e595d603a1b60448201526064016107aa565b60ff54604080516312bb732d60e11b815290516000926001600160a01b031691632576e65a916004808301926020929190829003018186803b158015610ecb57600080fd5b505afa158015610edf573d6000803e3d6000fd5b505050506040513d601f19601f82011682018060405250810190610f039190613a80565b9050600084821115610fa25760ff5460fc5460405163f6f6b88160e01b81526001600160a01b039283169263f6f6b88192610f4a9291169089903090600090600401613ceb565b602060405180830381600087803b158015610f6457600080fd5b505af1158015610f78573d6000803e3d6000fd5b505050506040513d601f19601f82011682018060405250810190610f9c9190613a80565b50610fbc565b60fc54610fb8906001600160a01b0316866125ec565b5060015b60fc546040516370a0823160e01b81523060048201526000916001600160a01b0316906370a082319060240160206040518083038186803b15801561100057600080fd5b505afa158015611014573d6000803e3d6000fd5b505050506040513d601f19601f820116820180604052508101906110389190613a80565b90508581101561108b5761104b81612f76565b61105487612f76565b604051602001611065929190613bf1565b60408051601f198184030181529082905262461bcd60e51b82526107aa91600401613d63565b60fc5460fb5460405163a9059cbb60e01b81526001600160a01b0391821660048201526024810189905291169063a9059cbb90604401602060405180830381600087803b1580156110db57600080fd5b505af11580156110ef573d6000803e3d6000fd5b505050506040513d601f19601f820116820180604052508101906111139190613a4a565b50949590945092505050565b60008281526065602052604090206001015461113a81613013565b611144838361301d565b505050565b6001600160a01b03811633146111b95760405162461bcd60e51b815260206004820152602f60248201527f416363657373436f6e74726f6c3a2063616e206f6e6c792072656e6f756e636560448201526e103937b632b9903337b91039b2b63360891b60648201526084016107aa565b6111c382826130a3565b5050565b306001600160a01b037f00000000000000000000000000000000000000000000000000000000000000001614156112105760405162461bcd60e51b81526004016107aa90613dcd565b7f00000000000000000000000000000000000000000000000000000000000000006001600160a01b0316611259600080516020614118833981519152546001600160a01b031690565b6001600160a01b03161461127f5760405162461bcd60e51b81526004016107aa90613e19565b6112888161310a565b604080516000808252602082019092526112a491839190613115565b50565b6112b260003361199b565b6112ce5760405162461bcd60e51b81526004016107aa90613e65565b6001600160a01b0381166112f45760405162461bcd60e51b81526004016107aa90613eca565b61010080546001600160a01b0319166001600160a01b0383169081179091556040519081527f2387291c358bb5414b9fdcdfeb40efddb696908065a6533e47bf60b395f7dcfd906020015b60405180910390a150565b306001600160a01b037f00000000000000000000000000000000000000000000000000000000000000001614156113935760405162461bcd60e51b81526004016107aa90613dcd565b7f00000000000000000000000000000000000000000000000000000000000000006001600160a01b03166113dc600080516020614118833981519152546001600160a01b031690565b6001600160a01b0316146114025760405162461bcd60e51b81526004016107aa90613e19565b61140b8261310a565b6111c382826001613115565b6000306001600160a01b037f000000000000000000000000000000000000000000000000000000000000000016146114b75760405162461bcd60e51b815260206004820152603860248201527f555550535570677261646561626c653a206d757374206e6f742062652063616c60448201527f6c6564207468726f7567682064656c656761746563616c6c000000000000000060648201526084016107aa565b5060008051602061411883398151915290565b6114d560003361199b565b6114f15760405162461bcd60e51b81526004016107aa90613e65565b6001600160a01b0381166115175760405162461bcd60e51b81526004016107aa90613eca565b60ff546001600160a01b0382811691161415611566576040516001600160a01b03821681527f47ffb57d9975263bcf9c547a81d76b51e81fd87f6a69b8189e744921dda0005c9060200161133f565b60ff546001600160a01b03161580159061160a5760ff5460fc5460405163f6f6b88160e01b81526001600160a01b039283169263f6f6b881926115b6929116906000903090600190600401613ceb565b602060405180830381600087803b1580156115d057600080fd5b505af11580156115e4573d6000803e3d6000fd5b505050506040513d601f19601f820116820180604052508101906116089190613a80565b505b60ff80546001600160a01b0319166001600160a01b03841617905580156117dc5760fc546040516370a0823160e01b81523060048201526000916001600160a01b0316906370a082319060240160206040518083038186803b15801561166f57600080fd5b505afa158015611683573d6000803e3d6000fd5b505050506040513d601f19601f820116820180604052508101906116a79190613a80565b905080156117da5760fc5460ff5460405163a9059cbb60e01b81526001600160a01b0391821660048201526024810184905291169063a9059cbb90604401602060405180830381600087803b1580156116ff57600080fd5b505af1158015611713573d6000803e3d6000fd5b505050506040513d601f19601f820116820180604052508101906117379190613a4a565b5060ff5460fc546040516356e4bb9760e11b81526001600160a01b0391821660048201526024810184905291169063adc9772e90604401600060405180830381600087803b15801561178857600080fd5b505af115801561179c573d6000803e3d6000fd5b505050507f0eab4ceb0e0bf74211211d85efd51fec6d84d5ce7719dd107af8818194bcd97f816040516117d191815260200190565b60405180910390a15b505b6040516001600160a01b03831681527fd82ec5aca3f5d594d6f9a7d8a97e332f1e6319efddf9b0bf445d87348ac4b0e39060200160405180910390a15050565b600054610100900460ff161580801561183c5750600054600160ff909116105b806118565750303b158015611856575060005460ff166001145b6118b95760405162461bcd60e51b815260206004820152602e60248201527f496e697469616c697a61626c653a20636f6e747261637420697320616c72656160448201526d191e481a5b9a5d1a585b1a5e995960921b60648201526084016107aa565b6000805460ff1916600117905580156118dc576000805461ff0019166101001790555b6118e461328f565b6118ec61328f565b6118f760003361301d565b60046101025580156112a4576000805461ff0019169055604051600181527f7f26b83ff96e1f2b6a682f133852f6798a09c465da95921460cefb38474024989060200161133f565b60fe818154811061194f57600080fd5b60009182526020909120600690910201805460018201546002830154600384015460048501546005909501546001600160a01b0390941695509193909260ff8082169161010090041687565b60009182526065602090815260408084206001600160a01b0393909316845291905290205460ff1690565b6119de6000805160206140f88339815191523361199b565b6119fa5760405162461bcd60e51b81526004016107aa90613e93565b60fe548114611a4b5760405162461bcd60e51b815260206004820152601a60248201527f57726f6e67206e756d626572206f66207374726174656769657300000000000060448201526064016107aa565b60fe54600090819067ffffffffffffffff811115611a6b57611a6b6140b3565b604051908082528060200260200182016040528015611a94578160200160208202803683370190505b5090506000805b60ff8116851115611e9d57600086868360ff16818110611abd57611abd61409d565b905060e00201803603810190611ad39190613aef565b80516001600160a01b0316600090815260fd6020526040902054855191925090859082908110611b0557611b0561409d565b60200260200101511515600115151415611b585760405162461bcd60e51b815260206004820152601460248201527314dd1c985d1959de481dd85cc81d5c19185d195960621b60448201526064016107aa565b600060fe8281548110611b6d57611b6d61409d565b60009182526020918290206040805160e081018252600690930290910180546001600160a01b0390811680855260018301549585019590955260028201549284019290925260038101546060840152600481015460808401526005015460ff808216151560a085015261010090910416151560c083015285519193501614611c375760405162461bcd60e51b815260206004820152601860248201527f496e636f727265637420737472617465677920696e646578000000000000000060448201526064016107aa565b826040015183602001511115611ca45760405162461bcd60e51b815260206004820152602c60248201527f6d696e5765696768742073686f756c646e277420686967686572207468616e2060448201526b1d185c99d95d15d95a59da1d60a21b60648201526084016107aa565b826060015183604001511115611d115760405162461bcd60e51b815260206004820152602c60248201527f7461726765745765696768742073686f756c646e27742068696768657220746860448201526b185b881b585e15d95a59da1d60a21b60648201526084016107aa565b6040830151611d209088613f83565b96508260fe8381548110611d3657611d3661409d565b600091825260209182902083516006929092020180546001600160a01b0319166001600160a01b039092169190911781559082015160018083019190915560408301516002830155606083015160038301556080830151600483015560a08301516005909201805460c09094015161ffff1990941692151561ff00191692909217610100931515939093029290921790558651879084908110611ddb57611ddb61409d565b6020026020010190151590811515815250506103e8836040015160648560800151611e069190613f9b565b611e109190613fbd565b611e1a9190613f9b565b611e249086613f83565b94507fc7d6a10819f5d6f3fd2acf9d38519fb9ca604adcf565d719841b60c161c6730182846000015185602001518660400151876060015188608001518960a001518a60c00151604051611e7f989796959493929190613f0f565b60405180910390a15050508080611e9590614051565b915050611a9b565b50620186a08314611f025760405162461bcd60e51b815260206004820152602960248201527f546f74616c207461726765742073686f756c6420657175616c20746f20544f54604482015268105317d5d15251d21560ba1b60648201526084016107aa565b6101018190556040518181527fe2ee1ef0b4d76337ccec0a920efb7ded63e020263ae1dc0a23754194693d62699060200160405180910390a15050505050565b611f5a6000805160206140f88339815191523361199b565b611f765760405162461bcd60e51b81526004016107aa90613e93565b611f7e6132fa565b6040517f0ef67887023bd7b8411cf35c89d19498bc1c980684932ef5f5b0559bfac80d9a90600090a1565b611fc16000805160206140d88339815191523361199b565b611fdd5760405162461bcd60e51b81526004016107aa90613d96565b611fe5613305565b611fed6132fa565b565b6120076000805160206140f88339815191523361199b565b6120235760405162461bcd60e51b81526004016107aa90613e93565b61010255565b61203460003361199b565b6120505760405162461bcd60e51b81526004016107aa90613e65565b6001600160a01b0381166120765760405162461bcd60e51b81526004016107aa90613eca565b60fc80546001600160a01b0319166001600160a01b0383169081179091556040519081527f80758ef37af3558d372b5a6b2d6906a49e09a13921e7de88ad18525a6f6d5a9a9060200161133f565b6120dc6000805160206140d88339815191523361199b565b6120f85760405162461bcd60e51b81526004016107aa90613d96565b60ff546001600160a01b031661214c5760405162461bcd60e51b815260206004820152601960248201527810d85cda081cdd1c985d1959de481b9bdd081cd95d081e595d603a1b60448201526064016107aa565b60fc546040516370a0823160e01b81523060048201526000916001600160a01b0316906370a082319060240160206040518083038186803b15801561219057600080fd5b505afa1580156121a4573d6000803e3d6000fd5b505050506040513d601f19601f820116820180604052508101906121c89190613a80565b9050806121d25750565b60fc5460ff5460405163a9059cbb60e01b81526001600160a01b0391821660048201526024810184905291169063a9059cbb90604401602060405180830381600087803b15801561222257600080fd5b505af1158015612236573d6000803e3d6000fd5b505050506040513d601f19601f8201168201806040525081019061225a9190613a4a565b5060ff5460fc546040516356e4bb9760e11b81526001600160a01b0391821660048201526024810184905291169063adc9772e90604401600060405180830381600087803b1580156122ab57600080fd5b505af11580156122bf573d6000803e3d6000fd5b5050505050565b6000828152606560205260409020600101546122e181613013565b61114483836130a3565b6122f660003361199b565b6123125760405162461bcd60e51b81526004016107aa90613e65565b6001600160a01b0381166123385760405162461bcd60e51b81526004016107aa90613eca565b60fb5461235d906000805160206140d8833981519152906001600160a01b03166122c6565b6123756000805160206140d88339815191528261111f565b60fb80546001600160a01b0319166001600160a01b0383169081179091556040519081527f1af34e943bb581f62718acd39caf1a640e9ff89789a197745e259d1f40cd9bd69060200161133f565b606060fe805480602002602001604051908101604052809291908181526020016000905b8282101561246d5760008481526020908190206040805160e0810182526006860290920180546001600160a01b031683526001808201548486015260028201549284019290925260038101546060840152600481015460808401526005015460ff808216151560a085015261010090910416151560c083015290835290920191016123e7565b50505050905090565b6001600160a01b03163b151590565b60fe5480158061249e57508161249c600183613fdc565b105b156124eb5760006124af8284613fdc565b6124ba906001613f83565b905060005b818160ff1610156124e85760fe80546001018155600052806124e081614051565b9150506124bf565b50505b8260fe83815481106124ff576124ff61409d565b6000918252602091829020835160069092020180546001600160a01b039092166001600160a01b031990921691909117815582820151600182015560408084015160028301556060808501516003840155608080860151600485015560a0808701516005909501805460c09889015115156101000261ff00199715159790971661ffff19909116179590951790945588519489015189840151928a0151918a0151948a0151968a015193517fc7d6a10819f5d6f3fd2acf9d38519fb9ca604adcf565d719841b60c161c67301976125df978b979096939594939092613f0f565b60405180910390a1505050565b600061268161010060009054906101000a90046001600160a01b03166001600160a01b031663890a8c4f6040518163ffffffff1660e01b815260040160206040518083038186803b15801561264057600080fd5b505afa158015612654573d6000803e3d6000fd5b505050506040513d601f19601f820116820180604052508101906126789190613a80565b610102546133dc565b905061268d8282613fdc565b905060006126996123c3565b60fc546040516370a0823160e01b81523060048201529192506000916001600160a01b03909116906370a082319060240160206040518083038186803b1580156126e257600080fd5b505afa1580156126f6573d6000803e3d6000fd5b505050506040513d601f19601f8201168201806040525081019061271a9190613a80565b90506000805b83518160ff16101561291a57838160ff16815181106127415761274161409d565b602002602001015160a0015161275657612908565b838160ff168151811061276b5761276b61409d565b6020026020010151604001516000141561283c57838160ff16815181106127945761279461409d565b60209081029190910101515160fc5460405163f6f6b88160e01b81526001600160a01b039283169263f6f6b881926127d9929116906000903090600190600401613ceb565b602060405180830381600087803b1580156127f357600080fd5b505af1158015612807573d6000803e3d6000fd5b505050506040513d601f19601f8201168201806040525081019061282b9190613a80565b6128359084613f83565b9250612908565b838160ff16815181106128515761285161409d565b6020026020010151600001516001600160a01b031663a3673b386040518163ffffffff1660e01b815260040160206040518083038186803b15801561289557600080fd5b505afa1580156128a9573d6000803e3d6000fd5b505050506040513d601f19601f820116820180604052508101906128cd9190613a80565b6128d79084613f83565b9250838160ff16815181106128ee576128ee61409d565b602002602001015160400151826129059190613f83565b91505b8061291281614051565b915050612720565b5060fc546001600160a01b03878116911614156129a457848210156129975760405162461bcd60e51b815260206004820152602d60248201527f547279696e67207769746864726177206d6f7265207468616e206c697175696460448201526c69747920617661696c61626c6560981b60648201526084016107aa565b6129a18583613fdc565b91505b6000835167ffffffffffffffff8111156129c0576129c06140b3565b604051908082528060200260200182016040528015612a0b57816020015b60408051606081018252600080825260208083018290529282015282526000199092019101816129de5790505b5090506000805b85518160ff161015612cb257858160ff1681518110612a3357612a3361409d565b602002602001015160a00151612a4857612ca0565b6000868260ff1681518110612a5f57612a5f61409d565b60200260200101516040015160001415612a7b57506000612ab5565b84878360ff1681518110612a9157612a9161409d565b60200260200101516040015187612aa89190613fbd565b612ab29190613f9b565b90505b6000878360ff1681518110612acc57612acc61409d565b6020026020010151600001516001600160a01b031663a3673b386040518163ffffffff1660e01b815260040160206040518083038186803b158015612b1057600080fd5b505afa158015612b24573d6000803e3d6000fd5b505050506040513d601f19601f82011682018060405250810190612b489190613a80565b905080821415612b59575050612ca0565b80821015612c1c57878360ff1681518110612b7657612b7661409d565b60209081029190910101515160fc546001600160a01b039182169163f6f6b8819116612ba28585613fdc565b3060006040518563ffffffff1660e01b8152600401612bc49493929190613ceb565b602060405180830381600087803b158015612bde57600080fd5b505af1158015612bf2573d6000803e3d6000fd5b505050506040513d601f19601f82011682018060405250810190612c169190613a80565b50612c9d565b6040518060600160405280600115158152602001898560ff1681518110612c4557612c4561409d565b6020026020010151600001516001600160a01b031681526020018284612c6b9190613fdc565b815250858560ff1681518110612c8357612c8361409d565b60200260200101819052508380612c9990614051565b9450505b50505b80612caa81614051565b915050612a12565b5060005b8160ff168160ff161015612ea0576000838260ff1681518110612cdb57612cdb61409d565b60200260200101516020015190506000848360ff1681518110612d0057612d0061409d565b602090810291909101015160409081015160fc5491516370a0823160e01b81523060048201529092506000916001600160a01b0316906370a082319060240160206040518083038186803b158015612d5757600080fd5b505afa158015612d6b573d6000803e3d6000fd5b505050506040513d601f19601f82011682018060405250810190612d8f9190613a80565b905081811015612d9d578091505b60fc5460405163a9059cbb60e01b81526001600160a01b038581166004830152602482018590529091169063a9059cbb90604401602060405180830381600087803b158015612deb57600080fd5b505af1158015612dff573d6000803e3d6000fd5b505050506040513d601f19601f82011682018060405250810190612e239190613a4a565b5060fc546040516356e4bb9760e11b81526001600160a01b039182166004820152602481018490529084169063adc9772e90604401600060405180830381600087803b158015612e7257600080fd5b505af1158015612e86573d6000803e3d6000fd5b505050505050508080612e9890614051565b915050612cb6565b50610100546040805163890a8c4f60e01b8152905188926001600160a01b03169163890a8c4f916004808301926020929190829003018186803b158015612ee657600080fd5b505afa158015612efa573d6000803e3d6000fd5b505050506040513d601f19601f82011682018060405250810190612f1e9190613a80565b1015612f6c5760405162461bcd60e51b815260206004820152601a60248201527f504d3a204e4156206c657373207468616e20657870656374656400000000000060448201526064016107aa565b5050505050505050565b60606000612f8383613406565b600101905060008167ffffffffffffffff811115612fa357612fa36140b3565b6040519080825280601f01601f191660200182016040528015612fcd576020820181803683370190505b5090508181016020015b600019016f181899199a1a9b1b9c1cb0b131b232b360811b600a86061a8153600a85049450846130065761300b565b612fd7565b509392505050565b6112a481336134de565b613027828261199b565b6111c35760008281526065602090815260408083206001600160a01b03851684529091529020805460ff1916600117905561305f3390565b6001600160a01b0316816001600160a01b0316837f2f8788117e7eff1d82e926ec794901d17c78024a50270940304540a733656f0d60405160405180910390a45050565b6130ad828261199b565b156111c35760008281526065602090815260408083206001600160a01b0385168085529252808320805460ff1916905551339285917ff6391f5c32d9c69d2a47ea670b442974b53935d1edc7fd64eb21e047a839171b9190a45050565b60006111c381613013565b7f4910fdfa16fed3260ed0e7147f7cc6da11a60208b5b9406d12a635614ffd91435460ff16156131485761114483613511565b826001600160a01b03166352d1902d6040518163ffffffff1660e01b815260040160206040518083038186803b15801561318157600080fd5b505afa9250505080156131b1575060408051601f3d908101601f191682019092526131ae91810190613a80565b60015b6132145760405162461bcd60e51b815260206004820152602e60248201527f45524331393637557067726164653a206e657720696d706c656d656e7461746960448201526d6f6e206973206e6f74205555505360901b60648201526084016107aa565b60008051602061411883398151915281146132835760405162461bcd60e51b815260206004820152602960248201527f45524331393637557067726164653a20756e737570706f727465642070726f786044820152681a58589b195555525160ba1b60648201526084016107aa565b506111448383836135ad565b600054610100900460ff16611fed5760405162461bcd60e51b815260206004820152602b60248201527f496e697469616c697a61626c653a20636f6e7472616374206973206e6f74206960448201526a6e697469616c697a696e6760a81b60648201526084016107aa565b611fed6000806125ec565b600061330f6123c3565b905060005b81518160ff1610156111c3576000828260ff16815181106133375761333761409d565b602002602001015190508060c00151156133c9578051604051633bd73ee360e21b81523060048201526001600160a01b039091169063ef5cfb8c90602401602060405180830381600087803b15801561338f57600080fd5b505af11580156133a3573d6000803e3d6000fd5b505050506040513d601f19601f820116820180604052508101906133c79190613a80565b505b50806133d481614051565b915050613314565b60006127106133eb8382613fdc565b6133f59085613fbd565b6133ff9190613f9b565b9392505050565b60008072184f03e93ff9f4daa797ed6e38ed64bf6a1f0160401b83106134455772184f03e93ff9f4daa797ed6e38ed64bf6a1f0160401b830492506040015b6d04ee2d6d415b85acef81000000008310613471576d04ee2d6d415b85acef8100000000830492506020015b662386f26fc10000831061348f57662386f26fc10000830492506010015b6305f5e10083106134a7576305f5e100830492506008015b61271083106134bb57612710830492506004015b606483106134cd576064830492506002015b600a83106107175760010192915050565b6134e8828261199b565b6111c3576134f5816135d8565b6135008360206135ea565b604051602001611065929190613c76565b6001600160a01b0381163b61357e5760405162461bcd60e51b815260206004820152602d60248201527f455243313936373a206e657720696d706c656d656e746174696f6e206973206e60448201526c1bdd08184818dbdb9d1c9858dd609a1b60648201526084016107aa565b60008051602061411883398151915280546001600160a01b0319166001600160a01b0392909216919091179055565b6135b683613786565b6000825111806135c35750805b15611144576135d283836137c6565b50505050565b60606107176001600160a01b03831660145b606060006135f9836002613fbd565b613604906002613f83565b67ffffffffffffffff81111561361c5761361c6140b3565b6040519080825280601f01601f191660200182016040528015613646576020820181803683370190505b509050600360fc1b816000815181106136615761366161409d565b60200101906001600160f81b031916908160001a905350600f60fb1b816001815181106136905761369061409d565b60200101906001600160f81b031916908160001a90535060006136b4846002613fbd565b6136bf906001613f83565b90505b6001811115613737576f181899199a1a9b1b9c1cb0b131b232b360811b85600f16601081106136f3576136f361409d565b1a60f81b8282815181106137095761370961409d565b60200101906001600160f81b031916908160001a90535060049490941c936137308161401f565b90506136c2565b5083156133ff5760405162461bcd60e51b815260206004820181905260248201527f537472696e67733a20686578206c656e67746820696e73756666696369656e7460448201526064016107aa565b61378f81613511565b6040516001600160a01b038216907fbc7cd75a20ee27fd9adebab32041f755214dbc6bffa90cc0225b39da2e5c2d3b90600090a250565b60606001600160a01b0383163b61382e5760405162461bcd60e51b815260206004820152602660248201527f416464726573733a2064656c65676174652063616c6c20746f206e6f6e2d636f6044820152651b9d1c9858dd60d21b60648201526084016107aa565b600080846001600160a01b0316846040516138499190613bd5565b600060405180830381855af49150503d8060008114613884576040519150601f19603f3d011682016040523d82523d6000602084013e613889565b606091505b50915091506138b18282604051806060016040528060278152602001614138602791396138ba565b95945050505050565b606083156138c95750816133ff565b6133ff83838151156138de5781518083602001fd5b8060405162461bcd60e51b81526004016107aa9190613d63565b80356001600160a01b038116811461390f57600080fd5b919050565b60006020828403121561392657600080fd5b6133ff826138f8565b6000806040838503121561394257600080fd5b61394b836138f8565b915060208084013567ffffffffffffffff8082111561396957600080fd5b818601915086601f83011261397d57600080fd5b81358181111561398f5761398f6140b3565b6139a1601f8201601f19168501613f52565b915080825287848285010111156139b757600080fd5b80848401858401376000848284010152508093505050509250929050565b600080602083850312156139e857600080fd5b823567ffffffffffffffff80821115613a0057600080fd5b818501915085601f830112613a1457600080fd5b813581811115613a2357600080fd5b86602060e083028501011115613a3857600080fd5b60209290920196919550909350505050565b600060208284031215613a5c57600080fd5b81516133ff816140c9565b600060208284031215613a7957600080fd5b5035919050565b600060208284031215613a9257600080fd5b5051919050565b60008060408385031215613aac57600080fd5b82359150613abc602084016138f8565b90509250929050565b600060208284031215613ad757600080fd5b81356001600160e01b0319811681146133ff57600080fd5b600060e08284031215613b0157600080fd5b60405160e0810181811067ffffffffffffffff82111715613b2457613b246140b3565b604052613b30836138f8565b81526020830135602082015260408301356040820152606083013560608201526080830135608082015260a0830135613b68816140c9565b60a082015260c0830135613b7b816140c9565b60c08201529392505050565b80516001600160a01b031682526020808201519083015260408082015190830152606080820151908301526080808201519083015260a08181015115159083015260c0908101511515910152565b60008251613be7818460208701613ff3565b9190910192915050565b7f496e20706f7274666f6c696f4d616e61676572206e6f7420656e6f7567682066815274037b9103a3930b739b332b9102fb0b6b7bab73a1d1605d1b602082015260008351613c47816035850160208801613ff3565b620101e160ed1b6035918401918201528351613c6a816038840160208801613ff3565b01603801949350505050565b7f416363657373436f6e74726f6c3a206163636f756e7420000000000000000000815260008351613cae816017850160208801613ff3565b7001034b99036b4b9b9b4b733903937b6329607d1b6017918401918201528351613cdf816028840160208801613ff3565b01602801949350505050565b6001600160a01b039485168152602081019390935292166040820152901515606082015260800190565b6020808252825182820181905260009190848201906040850190845b81811015613d5757613d44838551613b87565b9284019260e09290920191600101613d31565b50909695505050505050565b6020815260008251806020840152613d82816040850160208701613ff3565b601f01601f19169190910160400192915050565b6020808252601b908201527f43616c6c6572206973206e6f74207468652045584348414e4745520000000000604082015260600190565b6020808252602c908201527f46756e6374696f6e206d7573742062652063616c6c6564207468726f7567682060408201526b19195b1959d85d1958d85b1b60a21b606082015260800190565b6020808252602c908201527f46756e6374696f6e206d7573742062652063616c6c6564207468726f7567682060408201526b6163746976652070726f787960a01b606082015260800190565b6020808252601490820152735265737472696374656420746f2061646d696e7360601b604082015260600190565b6020808252601d908201527f5265737472696374656420746f20506f7274666f6c696f204167656e74000000604082015260600190565b60208082526018908201527f5a65726f2061646472657373206e6f7420616c6c6f7765640000000000000000604082015260600190565b60e081016107178284613b87565b9788526001600160a01b0396909616602088015260408701949094526060860192909252608085015260a0840152151560c0830152151560e08201526101000190565b604051601f8201601f1916810167ffffffffffffffff81118282101715613f7b57613f7b6140b3565b604052919050565b60008219821115613f9657613f96614071565b500190565b600082613fb857634e487b7160e01b600052601260045260246000fd5b500490565b6000816000190483118215151615613fd757613fd7614071565b500290565b600082821015613fee57613fee614071565b500390565b60005b8381101561400e578181015183820152602001613ff6565b838111156135d25750506000910152565b60008161402e5761402e614071565b506000190190565b600060001982141561404a5761404a614071565b5060010190565b600060ff821660ff81141561406857614068614071565b60010192915050565b634e487b7160e01b600052601160045260246000fd5b634e487b7160e01b600052603160045260246000fd5b634e487b7160e01b600052603260045260246000fd5b634e487b7160e01b600052604160045260246000fd5b80151581146112a457600080fdfe3eb675f159e6ca6cf5de6bfbbc8c4521cfd428f5e9166e51094d5898504caf2dd67ad422505496469a1adf6cdf9e5ee92ac5d33992843c9ecc4b2f6d6cde9137360894a13ba1a3210667c828492db98dca3e2076cc3735a920a3ca505d382bbc416464726573733a206c6f772d6c6576656c2064656c65676174652063616c6c206661696c6564a2646970667358221220bd20a01775ea72cc107b68e7d6d5e42d66506230f4db14593778bf02d3599cff64736f6c63430008060033",
  "implementation": "0x610c08C3858012Db7CEF4fd9E467733c99a2f4BA",
  "devdoc": {
    "kind": "dev",
    "methods": {
      "constructor": {
        "custom:oz-upgrades-unsafe-allow": "constructor"
      },
      "getRoleAdmin(bytes32)": {
        "details": "Returns the admin role that controls `role`. See {grantRole} and {revokeRole}. To change a role's admin, use {_setRoleAdmin}."
      },
      "grantRole(bytes32,address)": {
        "details": "Grants `role` to `account`. If `account` had not been already granted `role`, emits a {RoleGranted} event. Requirements: - the caller must have ``role``'s admin role. May emit a {RoleGranted} event."
      },
      "hasRole(bytes32,address)": {
        "details": "Returns `true` if `account` has been granted `role`."
      },
      "proxiableUUID()": {
        "details": "Implementation of the ERC1822 {proxiableUUID} function. This returns the storage slot used by the implementation. It is used to validate the implementation's compatibility when performing an upgrade. IMPORTANT: A proxy pointing at a proxiable contract should not be considered proxiable itself, because this risks bricking a proxy that upgrades to it, by delegating to itself until out of gas. Thus it is critical that this function revert if invoked through a proxy. This is guaranteed by the `notDelegated` modifier."
      },
      "renounceRole(bytes32,address)": {
        "details": "Revokes `role` from the calling account. Roles are often managed via {grantRole} and {revokeRole}: this function's purpose is to provide a mechanism for accounts to lose their privileges if they are compromised (such as when a trusted device is misplaced). If the calling account had been revoked `role`, emits a {RoleRevoked} event. Requirements: - the caller must be `account`. May emit a {RoleRevoked} event."
      },
      "revokeRole(bytes32,address)": {
        "details": "Revokes `role` from `account`. If `account` had been granted `role`, emits a {RoleRevoked} event. Requirements: - the caller must have ``role``'s admin role. May emit a {RoleRevoked} event."
      },
      "supportsInterface(bytes4)": {
        "details": "See {IERC165-supportsInterface}."
      },
      "upgradeTo(address)": {
        "details": "Upgrade the implementation of the proxy to `newImplementation`. Calls {_authorizeUpgrade}. Emits an {Upgraded} event."
      },
      "upgradeToAndCall(address,bytes)": {
        "details": "Upgrade the implementation of the proxy to `newImplementation`, and subsequently execute the function call encoded in `data`. Calls {_authorizeUpgrade}. Emits an {Upgraded} event."
      },
      "withdraw(uint256)": {
        "details": "Withdraw target amount assets from strategies Send amount to Exchanger",
        "returns": {
          "_0": "- how much PortfolioManager unstake from strategies",
          "_1": "- executed or not balance function on PortfolioManager"
        }
      }
    },
    "version": 1
  },
  "userdoc": {
    "kind": "user",
    "methods": {},
    "version": 1
  },
  "storageLayout": {
    "storage": [
      {
        "astId": 804,
        "contract": "contracts/PortfolioManager.sol:PortfolioManager",
        "label": "_initialized",
        "offset": 0,
        "slot": "0",
        "type": "t_uint8"
      },
      {
        "astId": 807,
        "contract": "contracts/PortfolioManager.sol:PortfolioManager",
        "label": "_initializing",
        "offset": 1,
        "slot": "0",
        "type": "t_bool"
      },
      {
        "astId": 1657,
        "contract": "contracts/PortfolioManager.sol:PortfolioManager",
        "label": "__gap",
        "offset": 0,
        "slot": "1",
        "type": "t_array(t_uint256)50_storage"
      },
      {
        "astId": 1936,
        "contract": "contracts/PortfolioManager.sol:PortfolioManager",
        "label": "__gap",
        "offset": 0,
        "slot": "51",
        "type": "t_array(t_uint256)50_storage"
      },
      {
        "astId": 39,
        "contract": "contracts/PortfolioManager.sol:PortfolioManager",
        "label": "_roles",
        "offset": 0,
        "slot": "101",
        "type": "t_mapping(t_bytes32,t_struct(RoleData)34_storage)"
      },
      {
        "astId": 334,
        "contract": "contracts/PortfolioManager.sol:PortfolioManager",
        "label": "__gap",
        "offset": 0,
        "slot": "102",
        "type": "t_array(t_uint256)49_storage"
      },
      {
        "astId": 786,
        "contract": "contracts/PortfolioManager.sol:PortfolioManager",
        "label": "__gap",
        "offset": 0,
        "slot": "151",
        "type": "t_array(t_uint256)50_storage"
      },
      {
        "astId": 1101,
        "contract": "contracts/PortfolioManager.sol:PortfolioManager",
        "label": "__gap",
        "offset": 0,
        "slot": "201",
        "type": "t_array(t_uint256)50_storage"
      },
      {
        "astId": 8372,
        "contract": "contracts/PortfolioManager.sol:PortfolioManager",
        "label": "exchanger",
        "offset": 0,
        "slot": "251",
        "type": "t_address"
      },
      {
        "astId": 8375,
        "contract": "contracts/PortfolioManager.sol:PortfolioManager",
        "label": "asset",
        "offset": 0,
        "slot": "252",
        "type": "t_contract(IERC20)2892"
      },
      {
        "astId": 8379,
        "contract": "contracts/PortfolioManager.sol:PortfolioManager",
        "label": "strategyWeightPositions",
        "offset": 0,
        "slot": "253",
        "type": "t_mapping(t_address,t_uint256)"
      },
      {
        "astId": 8383,
        "contract": "contracts/PortfolioManager.sol:PortfolioManager",
        "label": "strategyWeights",
        "offset": 0,
        "slot": "254",
        "type": "t_array(t_struct(StrategyWeight)11158_storage)dyn_storage"
      },
      {
        "astId": 8386,
        "contract": "contracts/PortfolioManager.sol:PortfolioManager",
        "label": "cashStrategy",
        "offset": 0,
        "slot": "255",
        "type": "t_contract(IStrategy)11428"
      },
      {
        "astId": 8389,
        "contract": "contracts/PortfolioManager.sol:PortfolioManager",
        "label": "m2m",
        "offset": 0,
        "slot": "256",
        "type": "t_contract(IMark2Market)11133"
      },
      {
        "astId": 8391,
        "contract": "contracts/PortfolioManager.sol:PortfolioManager",
        "label": "totalRiskFactor",
        "offset": 0,
        "slot": "257",
        "type": "t_uint256"
      },
      {
        "astId": 8393,
        "contract": "contracts/PortfolioManager.sol:PortfolioManager",
        "label": "navSlippageBp",
        "offset": 0,
        "slot": "258",
        "type": "t_uint256"
      }
    ],
    "types": {
      "t_address": {
        "encoding": "inplace",
        "label": "address",
        "numberOfBytes": "20"
      },
      "t_array(t_struct(StrategyWeight)11158_storage)dyn_storage": {
        "base": "t_struct(StrategyWeight)11158_storage",
        "encoding": "dynamic_array",
        "label": "struct IPortfolioManager.StrategyWeight[]",
        "numberOfBytes": "32"
      },
      "t_array(t_uint256)49_storage": {
        "base": "t_uint256",
        "encoding": "inplace",
        "label": "uint256[49]",
        "numberOfBytes": "1568"
      },
      "t_array(t_uint256)50_storage": {
        "base": "t_uint256",
        "encoding": "inplace",
        "label": "uint256[50]",
        "numberOfBytes": "1600"
      },
      "t_bool": {
        "encoding": "inplace",
        "label": "bool",
        "numberOfBytes": "1"
      },
      "t_bytes32": {
        "encoding": "inplace",
        "label": "bytes32",
        "numberOfBytes": "32"
      },
      "t_contract(IERC20)2892": {
        "encoding": "inplace",
        "label": "contract IERC20",
        "numberOfBytes": "20"
      },
      "t_contract(IMark2Market)11133": {
        "encoding": "inplace",
        "label": "contract IMark2Market",
        "numberOfBytes": "20"
      },
      "t_contract(IStrategy)11428": {
        "encoding": "inplace",
        "label": "contract IStrategy",
        "numberOfBytes": "20"
      },
      "t_mapping(t_address,t_bool)": {
        "encoding": "mapping",
        "key": "t_address",
        "label": "mapping(address => bool)",
        "numberOfBytes": "32",
        "value": "t_bool"
      },
      "t_mapping(t_address,t_uint256)": {
        "encoding": "mapping",
        "key": "t_address",
        "label": "mapping(address => uint256)",
        "numberOfBytes": "32",
        "value": "t_uint256"
      },
      "t_mapping(t_bytes32,t_struct(RoleData)34_storage)": {
        "encoding": "mapping",
        "key": "t_bytes32",
        "label": "mapping(bytes32 => struct AccessControlUpgradeable.RoleData)",
        "numberOfBytes": "32",
        "value": "t_struct(RoleData)34_storage"
      },
      "t_struct(RoleData)34_storage": {
        "encoding": "inplace",
        "label": "struct AccessControlUpgradeable.RoleData",
        "members": [
          {
            "astId": 31,
            "contract": "contracts/PortfolioManager.sol:PortfolioManager",
            "label": "members",
            "offset": 0,
            "slot": "0",
            "type": "t_mapping(t_address,t_bool)"
          },
          {
            "astId": 33,
            "contract": "contracts/PortfolioManager.sol:PortfolioManager",
            "label": "adminRole",
            "offset": 0,
            "slot": "1",
            "type": "t_bytes32"
          }
        ],
        "numberOfBytes": "64"
      },
      "t_struct(StrategyWeight)11158_storage": {
        "encoding": "inplace",
        "label": "struct IPortfolioManager.StrategyWeight",
        "members": [
          {
            "astId": 11145,
            "contract": "contracts/PortfolioManager.sol:PortfolioManager",
            "label": "strategy",
            "offset": 0,
            "slot": "0",
            "type": "t_address"
          },
          {
            "astId": 11147,
            "contract": "contracts/PortfolioManager.sol:PortfolioManager",
            "label": "minWeight",
            "offset": 0,
            "slot": "1",
            "type": "t_uint256"
          },
          {
            "astId": 11149,
            "contract": "contracts/PortfolioManager.sol:PortfolioManager",
            "label": "targetWeight",
            "offset": 0,
            "slot": "2",
            "type": "t_uint256"
          },
          {
            "astId": 11151,
            "contract": "contracts/PortfolioManager.sol:PortfolioManager",
            "label": "maxWeight",
            "offset": 0,
            "slot": "3",
            "type": "t_uint256"
          },
          {
            "astId": 11153,
            "contract": "contracts/PortfolioManager.sol:PortfolioManager",
            "label": "riskFactor",
            "offset": 0,
            "slot": "4",
            "type": "t_uint256"
          },
          {
            "astId": 11155,
            "contract": "contracts/PortfolioManager.sol:PortfolioManager",
            "label": "enabled",
            "offset": 0,
            "slot": "5",
            "type": "t_bool"
          },
          {
            "astId": 11157,
            "contract": "contracts/PortfolioManager.sol:PortfolioManager",
            "label": "enabledReward",
            "offset": 1,
            "slot": "5",
            "type": "t_bool"
          }
        ],
        "numberOfBytes": "192"
      },
      "t_uint256": {
        "encoding": "inplace",
        "label": "uint256",
        "numberOfBytes": "32"
      },
      "t_uint8": {
        "encoding": "inplace",
        "label": "uint8",
        "numberOfBytes": "1"
      }
    }
  }
}