{
  "address": "0x1E1F509963A6D33e169D9497b11c7DbFe73B7F13",
  "abi": [
    {
      "inputs": [],
      "stateMutability": "nonpayable",
      "type": "constructor"
    },
    {
      "anonymous": false,
      "inputs": [
        {
          "indexed": false,
          "internalType": "address",
          "name": "previousAdmin",
          "type": "address"
        },
        {
          "indexed": false,
          "internalType": "address",
          "name": "newAdmin",
          "type": "address"
        }
      ],
      "name": "AdminChanged",
      "type": "event"
    },
    {
      "anonymous": false,
      "inputs": [
        {
          "indexed": true,
          "internalType": "address",
          "name": "beacon",
          "type": "address"
        }
      ],
      "name": "BeaconUpgraded",
      "type": "event"
    },
    {
      "anonymous": false,
      "inputs": [
        {
          "indexed": false,
          "internalType": "address",
          "name": "value",
          "type": "address"
        }
      ],
      "name": "PortfolioManagerUpdated",
      "type": "event"
    },
    {
      "anonymous": false,
      "inputs": [
        {
          "indexed": false,
          "internalType": "uint256",
          "name": "amount",
          "type": "uint256"
        }
      ],
      "name": "Reward",
      "type": "event"
    },
    {
      "anonymous": false,
      "inputs": [
        {
          "indexed": true,
          "internalType": "bytes32",
          "name": "role",
          "type": "bytes32"
        },
        {
          "indexed": true,
          "internalType": "bytes32",
          "name": "previousAdminRole",
          "type": "bytes32"
        },
        {
          "indexed": true,
          "internalType": "bytes32",
          "name": "newAdminRole",
          "type": "bytes32"
        }
      ],
      "name": "RoleAdminChanged",
      "type": "event"
    },
    {
      "anonymous": false,
      "inputs": [
        {
          "indexed": true,
          "internalType": "bytes32",
          "name": "role",
          "type": "bytes32"
        },
        {
          "indexed": true,
          "internalType": "address",
          "name": "account",
          "type": "address"
        },
        {
          "indexed": true,
          "internalType": "address",
          "name": "sender",
          "type": "address"
        }
      ],
      "name": "RoleGranted",
      "type": "event"
    },
    {
      "anonymous": false,
      "inputs": [
        {
          "indexed": true,
          "internalType": "bytes32",
          "name": "role",
          "type": "bytes32"
        },
        {
          "indexed": true,
          "internalType": "address",
          "name": "account",
          "type": "address"
        },
        {
          "indexed": true,
          "internalType": "address",
          "name": "sender",
          "type": "address"
        }
      ],
      "name": "RoleRevoked",
      "type": "event"
    },
    {
      "anonymous": false,
      "inputs": [
        {
          "indexed": false,
          "internalType": "uint256",
          "name": "amount",
          "type": "uint256"
        }
      ],
      "name": "Stake",
      "type": "event"
    },
    {
      "anonymous": false,
      "inputs": [
        {
          "indexed": false,
          "internalType": "address",
          "name": "crvPool",
          "type": "address"
        },
        {
          "indexed": false,
          "internalType": "address",
          "name": "rewardGauge",
          "type": "address"
        },
        {
          "indexed": false,
          "internalType": "address",
          "name": "uniswapRouter",
          "type": "address"
        }
      ],
      "name": "StrategyCurve2PoolUpdatedParams",
      "type": "event"
    },
    {
      "anonymous": false,
      "inputs": [
        {
          "indexed": false,
          "internalType": "address",
          "name": "usdcToken",
          "type": "address"
        },
        {
          "indexed": false,
          "internalType": "address",
          "name": "crvPoolToken",
          "type": "address"
        },
        {
          "indexed": false,
          "internalType": "address",
          "name": "crvGaugeToken",
          "type": "address"
        },
        {
          "indexed": false,
          "internalType": "address",
          "name": "crvToken",
          "type": "address"
        },
        {
          "indexed": false,
          "internalType": "address",
          "name": "wFtmToken",
          "type": "address"
        },
        {
          "indexed": false,
          "internalType": "uint256",
          "name": "usdcTokenDenominator",
          "type": "uint256"
        },
        {
          "indexed": false,
          "internalType": "uint256",
          "name": "crvPoolTokenDenominator",
          "type": "uint256"
        },
        {
          "indexed": false,
          "internalType": "uint256",
          "name": "crvTokenDenominator",
          "type": "uint256"
        },
        {
          "indexed": false,
          "internalType": "uint256",
          "name": "wFtmTokenDenominator",
          "type": "uint256"
        }
      ],
      "name": "StrategyCurve2PoolUpdatedTokens",
      "type": "event"
    },
    {
      "anonymous": false,
      "inputs": [
        {
          "indexed": false,
          "internalType": "uint256",
          "name": "amount",
          "type": "uint256"
        },
        {
          "indexed": false,
          "internalType": "uint256",
          "name": "amountReceived",
          "type": "uint256"
        }
      ],
      "name": "Unstake",
      "type": "event"
    },
    {
      "anonymous": false,
      "inputs": [
        {
          "indexed": true,
          "internalType": "address",
          "name": "implementation",
          "type": "address"
        }
      ],
      "name": "Upgraded",
      "type": "event"
    },
    {
      "inputs": [],
      "name": "DEFAULT_ADMIN_ROLE",
      "outputs": [
        {
          "internalType": "bytes32",
          "name": "",
          "type": "bytes32"
        }
      ],
      "stateMutability": "view",
      "type": "function"
    },
    {
      "inputs": [],
      "name": "PORTFOLIO_MANAGER",
      "outputs": [
        {
          "internalType": "bytes32",
          "name": "",
          "type": "bytes32"
        }
      ],
      "stateMutability": "view",
      "type": "function"
    },
    {
      "inputs": [],
      "name": "UPGRADER_ROLE",
      "outputs": [
        {
          "internalType": "bytes32",
          "name": "",
          "type": "bytes32"
        }
      ],
      "stateMutability": "view",
      "type": "function"
    },
    {
      "inputs": [
        {
          "internalType": "address",
          "name": "_to",
          "type": "address"
        }
      ],
      "name": "claimRewards",
      "outputs": [
        {
          "internalType": "uint256",
          "name": "",
          "type": "uint256"
        }
      ],
      "stateMutability": "nonpayable",
      "type": "function"
    },
    {
      "inputs": [],
      "name": "crvGaugeToken",
      "outputs": [
        {
          "internalType": "contract IERC20",
          "name": "",
          "type": "address"
        }
      ],
      "stateMutability": "view",
      "type": "function"
    },
    {
      "inputs": [],
      "name": "crvPool",
      "outputs": [
        {
          "internalType": "contract IStableSwapPool",
          "name": "",
          "type": "address"
        }
      ],
      "stateMutability": "view",
      "type": "function"
    },
    {
      "inputs": [],
      "name": "crvPoolToken",
      "outputs": [
        {
          "internalType": "contract IERC20",
          "name": "",
          "type": "address"
        }
      ],
      "stateMutability": "view",
      "type": "function"
    },
    {
      "inputs": [],
      "name": "crvPoolTokenDenominator",
      "outputs": [
        {
          "internalType": "uint256",
          "name": "",
          "type": "uint256"
        }
      ],
      "stateMutability": "view",
      "type": "function"
    },
    {
      "inputs": [],
      "name": "crvToken",
      "outputs": [
        {
          "internalType": "contract IERC20",
          "name": "",
          "type": "address"
        }
      ],
      "stateMutability": "view",
      "type": "function"
    },
    {
      "inputs": [],
      "name": "crvTokenDenominator",
      "outputs": [
        {
          "internalType": "uint256",
          "name": "",
          "type": "uint256"
        }
      ],
      "stateMutability": "view",
      "type": "function"
    },
    {
      "inputs": [
        {
          "internalType": "bytes32",
          "name": "role",
          "type": "bytes32"
        }
      ],
      "name": "getRoleAdmin",
      "outputs": [
        {
          "internalType": "bytes32",
          "name": "",
          "type": "bytes32"
        }
      ],
      "stateMutability": "view",
      "type": "function"
    },
    {
      "inputs": [
        {
          "internalType": "bytes32",
          "name": "role",
          "type": "bytes32"
        },
        {
          "internalType": "address",
          "name": "account",
          "type": "address"
        }
      ],
      "name": "grantRole",
      "outputs": [],
      "stateMutability": "nonpayable",
      "type": "function"
    },
    {
      "inputs": [
        {
          "internalType": "bytes32",
          "name": "role",
          "type": "bytes32"
        },
        {
          "internalType": "address",
          "name": "account",
          "type": "address"
        }
      ],
      "name": "hasRole",
      "outputs": [
        {
          "internalType": "bool",
          "name": "",
          "type": "bool"
        }
      ],
      "stateMutability": "view",
      "type": "function"
    },
    {
      "inputs": [],
      "name": "initialize",
      "outputs": [],
      "stateMutability": "nonpayable",
      "type": "function"
    },
    {
      "inputs": [],
      "name": "liquidationValue",
      "outputs": [
        {
          "internalType": "uint256",
          "name": "",
          "type": "uint256"
        }
      ],
      "stateMutability": "view",
      "type": "function"
    },
    {
      "inputs": [],
      "name": "netAssetValue",
      "outputs": [
        {
          "internalType": "uint256",
          "name": "",
          "type": "uint256"
        }
      ],
      "stateMutability": "view",
      "type": "function"
    },
    {
      "inputs": [],
      "name": "portfolioManager",
      "outputs": [
        {
          "internalType": "address",
          "name": "",
          "type": "address"
        }
      ],
      "stateMutability": "view",
      "type": "function"
    },
    {
      "inputs": [],
      "name": "proxiableUUID",
      "outputs": [
        {
          "internalType": "bytes32",
          "name": "",
          "type": "bytes32"
        }
      ],
      "stateMutability": "view",
      "type": "function"
    },
    {
      "inputs": [
        {
          "internalType": "bytes32",
          "name": "role",
          "type": "bytes32"
        },
        {
          "internalType": "address",
          "name": "account",
          "type": "address"
        }
      ],
      "name": "renounceRole",
      "outputs": [],
      "stateMutability": "nonpayable",
      "type": "function"
    },
    {
      "inputs": [
        {
          "internalType": "bytes32",
          "name": "role",
          "type": "bytes32"
        },
        {
          "internalType": "address",
          "name": "account",
          "type": "address"
        }
      ],
      "name": "revokeRole",
      "outputs": [],
      "stateMutability": "nonpayable",
      "type": "function"
    },
    {
      "inputs": [],
      "name": "rewardGauge",
      "outputs": [
        {
          "internalType": "contract IRewardsOnlyGauge",
          "name": "",
          "type": "address"
        }
      ],
      "stateMutability": "view",
      "type": "function"
    },
    {
      "inputs": [
        {
          "internalType": "address",
          "name": "_crvPool",
          "type": "address"
        },
        {
          "internalType": "address",
          "name": "_rewardGauge",
          "type": "address"
        },
        {
          "internalType": "address",
          "name": "_uniswapRouter",
          "type": "address"
        }
      ],
      "name": "setParams",
      "outputs": [],
      "stateMutability": "nonpayable",
      "type": "function"
    },
    {
      "inputs": [
        {
          "internalType": "address",
          "name": "_value",
          "type": "address"
        }
      ],
      "name": "setPortfolioManager",
      "outputs": [],
      "stateMutability": "nonpayable",
      "type": "function"
    },
    {
      "inputs": [
        {
          "internalType": "address",
          "name": "_usdcToken",
          "type": "address"
        },
        {
          "internalType": "address",
          "name": "_crvPoolToken",
          "type": "address"
        },
        {
          "internalType": "address",
          "name": "_crvGaugeToken",
          "type": "address"
        },
        {
          "internalType": "address",
          "name": "_crvToken",
          "type": "address"
        },
        {
          "internalType": "address",
          "name": "_wFtmToken",
          "type": "address"
        }
      ],
      "name": "setTokens",
      "outputs": [],
      "stateMutability": "nonpayable",
      "type": "function"
    },
    {
      "inputs": [
        {
          "internalType": "address",
          "name": "_asset",
          "type": "address"
        },
        {
          "internalType": "uint256",
          "name": "_amount",
          "type": "uint256"
        }
      ],
      "name": "stake",
      "outputs": [],
      "stateMutability": "nonpayable",
      "type": "function"
    },
    {
      "inputs": [
        {
          "internalType": "bytes4",
          "name": "interfaceId",
          "type": "bytes4"
        }
      ],
      "name": "supportsInterface",
      "outputs": [
        {
          "internalType": "bool",
          "name": "",
          "type": "bool"
        }
      ],
      "stateMutability": "view",
      "type": "function"
    },
    {
      "inputs": [
        {
          "internalType": "address",
          "name": "_asset",
          "type": "address"
        },
        {
          "internalType": "uint256",
          "name": "_amount",
          "type": "uint256"
        },
        {
          "internalType": "address",
          "name": "_beneficiary",
          "type": "address"
        },
        {
          "internalType": "bool",
          "name": "_targetIsZero",
          "type": "bool"
        }
      ],
      "name": "unstake",
      "outputs": [
        {
          "internalType": "uint256",
          "name": "",
          "type": "uint256"
        }
      ],
      "stateMutability": "nonpayable",
      "type": "function"
    },
    {
      "inputs": [
        {
          "internalType": "address",
          "name": "newImplementation",
          "type": "address"
        }
      ],
      "name": "upgradeTo",
      "outputs": [],
      "stateMutability": "nonpayable",
      "type": "function"
    },
    {
      "inputs": [
        {
          "internalType": "address",
          "name": "newImplementation",
          "type": "address"
        },
        {
          "internalType": "bytes",
          "name": "data",
          "type": "bytes"
        }
      ],
      "name": "upgradeToAndCall",
      "outputs": [],
      "stateMutability": "payable",
      "type": "function"
    },
    {
      "inputs": [],
      "name": "usdcToken",
      "outputs": [
        {
          "internalType": "contract IERC20",
          "name": "",
          "type": "address"
        }
      ],
      "stateMutability": "view",
      "type": "function"
    },
    {
      "inputs": [],
      "name": "usdcTokenDenominator",
      "outputs": [
        {
          "internalType": "uint256",
          "name": "",
          "type": "uint256"
        }
      ],
      "stateMutability": "view",
      "type": "function"
    },
    {
      "inputs": [],
      "name": "wFtmToken",
      "outputs": [
        {
          "internalType": "contract IERC20",
          "name": "",
          "type": "address"
        }
      ],
      "stateMutability": "view",
      "type": "function"
    },
    {
      "inputs": [],
      "name": "wFtmTokenDenominator",
      "outputs": [
        {
          "internalType": "uint256",
          "name": "",
          "type": "uint256"
        }
      ],
      "stateMutability": "view",
      "type": "function"
    }
  ],
  "numDeployments": 1,
  "solcInputHash": "17bec5a5db63c378ad30b852e6abf5b4",
  "bytecode": "0x60a06040523060601b6080523480156200001857600080fd5b50600054610100900460ff16620000365760005460ff161562000040565b62000040620000e5565b620000a85760405162461bcd60e51b815260206004820152602e60248201527f496e697469616c697a61626c653a20636f6e747261637420697320616c72656160448201526d191e481a5b9a5d1a585b1a5e995960921b606482015260840160405180910390fd5b600054610100900460ff16158015620000cb576000805461ffff19166101011790555b8015620000de576000805461ff00191690555b5062000112565b6000620000fd306200010360201b620016c21760201c565b15905090565b6001600160a01b03163b151590565b60805160601c61367a6200014d60003960008181610ce201528181610d2201528181610dc201528181610e020152610e91015261367a6000f3fe6080604052600436106101ee5760003560e01c806367a16aa51161010d578063a440b21a116100a0578063d547741f1161006f578063d547741f14610560578063e0ef81a214610580578063ef5cfb8c146105a1578063f6f6b881146105c1578063f72c0d8b146105e157600080fd5b8063a440b21a146104e8578063adc9772e14610508578063b20fdc0d14610528578063b744bd701461054957600080fd5b8063a081df7f116100dc578063a081df7f14610487578063a217fddf146104a7578063a2894942146104bc578063a3673b38146104d357600080fd5b806367a16aa51461040f5780637d5f5802146104305780638129fc1c1461045257806391d148541461046757600080fd5b80632f804327116101855780633659cfe6116101545780633659cfe6146103a75780634f1ef286146103c757806352d1902d146103da578063620b75df146103ef57600080fd5b80632f8043271461032457806332d7d66d1461034557806334c0d4421461036657806336568abe1461038757600080fd5b8063248a9ca3116101c1578063248a9ca3146102a85780632576e65a146102d85780632c04664a146102ed5780632f2ff15d1461030457600080fd5b806301ffc9a7146101f357806306da3f2e146102285780630fc55bfd1461024d57806311eac8551461026f575b600080fd5b3480156101ff57600080fd5b5061021361020e366004613027565b610615565b60405190151581526020015b60405180910390f35b34801561023457600080fd5b5061023f6101645481565b60405190815260200161021f565b34801561025957600080fd5b5061026d610268366004612d63565b61064c565b005b34801561027b57600080fd5b5061015f54610290906001600160a01b031681565b6040516001600160a01b03909116815260200161021f565b3480156102b457600080fd5b5061023f6102c3366004612fc5565b60009081526065602052604090206001015490565b3480156102e457600080fd5b5061023f610a29565b3480156102f957600080fd5b5061023f6101665481565b34801561031057600080fd5b5061026d61031f366004612ff7565b610c2e565b34801561033057600080fd5b5061016054610290906001600160a01b031681565b34801561035157600080fd5b5061016254610290906001600160a01b031681565b34801561037257600080fd5b5061016954610290906001600160a01b031681565b34801561039357600080fd5b5061026d6103a2366004612ff7565b610c59565b3480156103b357600080fd5b5061026d6103c2366004612cde565b610cd7565b61026d6103d5366004612dd4565b610db7565b3480156103e657600080fd5b5061023f610e84565b3480156103fb57600080fd5b5060fb54610290906001600160a01b031681565b34801561041b57600080fd5b5061016354610290906001600160a01b031681565b34801561043c57600080fd5b5061023f6000805160206135de83398151915281565b34801561045e57600080fd5b5061026d610f37565b34801561047357600080fd5b50610213610482366004612ff7565b610fb0565b34801561049357600080fd5b5061026d6104a2366004612d18565b610fdb565b3480156104b357600080fd5b5061023f600081565b3480156104c857600080fd5b5061023f6101655481565b3480156104df57600080fd5b5061023f6110fa565b3480156104f457600080fd5b5061026d610503366004612cde565b611251565b34801561051457600080fd5b5061026d610523366004612e7c565b61132f565b34801561053457600080fd5b5061016854610290906001600160a01b031681565b34801561055557600080fd5b5061023f6101675481565b34801561056c57600080fd5b5061026d61057b366004612ff7565b611418565b34801561058c57600080fd5b5061016154610290906001600160a01b031681565b3480156105ad57600080fd5b5061023f6105bc366004612cde565b61143e565b3480156105cd57600080fd5b5061023f6105dc366004612ea8565b6114c0565b3480156105ed57600080fd5b5061023f7f189ab7a9244df0848122154315af71fe140f3db0fe014031783b0946b8c9d2e381565b60006001600160e01b03198216637965db0b60e01b148061064657506301ffc9a760e01b6001600160e01b03198316145b92915050565b610657600033610fb0565b61067c5760405162461bcd60e51b8152600401610673906132b0565b60405180910390fd5b6001600160a01b0385166106a25760405162461bcd60e51b815260040161067390613315565b6001600160a01b0384166106c85760405162461bcd60e51b815260040161067390613315565b6001600160a01b0383166106ee5760405162461bcd60e51b815260040161067390613315565b6001600160a01b0382166107145760405162461bcd60e51b815260040161067390613315565b6001600160a01b03811661073a5760405162461bcd60e51b815260040161067390613315565b61015f80546001600160a01b038088166001600160a01b031992831681179093556101608054888316908416179055610161805487831690841617905561016280548683169084161790556101638054918516919092161790556040805163313ce56760e01b8152905163313ce56791600480820192602092909190829003018186803b1580156107ca57600080fd5b505afa1580156107de573d6000803e3d6000fd5b505050506040513d601f19601f820116820180604052508101906108029190613051565b61080d90600a61346b565b61016481905550836001600160a01b031663313ce5676040518163ffffffff1660e01b815260040160206040518083038186803b15801561084d57600080fd5b505afa158015610861573d6000803e3d6000fd5b505050506040513d601f19601f820116820180604052508101906108859190613051565b61089090600a61346b565b61016581905550816001600160a01b031663313ce5676040518163ffffffff1660e01b815260040160206040518083038186803b1580156108d057600080fd5b505afa1580156108e4573d6000803e3d6000fd5b505050506040513d601f19601f820116820180604052508101906109089190613051565b61091390600a61346b565b61016681905550806001600160a01b031663313ce5676040518163ffffffff1660e01b815260040160206040518083038186803b15801561095357600080fd5b505afa158015610967573d6000803e3d6000fd5b505050506040513d601f19601f8201168201806040525081019061098b9190613051565b61099690600a61346b565b610167819055610164546101655461016654604080516001600160a01b038b811682528a811660208301528981168284015288811660608301528716608082015260a081019490945260c084019290925260e083015261010082019290925290517fb9ccbe246578f0b3ec779af7a7291bc82596cfb40da06af90f220e6445efcb70918190036101200190a15050505050565b61015f546101685460405163c661065760e01b8152600160048201526000926001600160a01b0390811692169063c66106579060240160206040518083038186803b158015610a7757600080fd5b505afa158015610a8b573d6000803e3d6000fd5b505050506040513d601f19601f82011682018060405250810190610aaf9190612cfb565b6001600160a01b031614610b165760405162461bcd60e51b815260206004820152602860248201527f496e76616c696420696e64657820666f72206c69717569646174696f6e56616c604482015267756520637572766560c01b6064820152608401610673565b610161546040516370a0823160e01b81523060048201526000916001600160a01b0316906370a082319060240160206040518083038186803b158015610b5b57600080fd5b505afa158015610b6f573d6000803e3d6000fd5b505050506040513d601f19601f82011682018060405250810190610b939190612fde565b905080610ba257600091505090565b6101685460405163cc2b27d760e01b815260048101839052600160248201526000916001600160a01b03169063cc2b27d79060440160206040518083038186803b158015610bef57600080fd5b505afa158015610c03573d6000803e3d6000fd5b505050506040513d601f19601f82011682018060405250810190610c279190612fde565b9392505050565b600082815260656020526040902060010154610c4a81336116d1565b610c548383611735565b505050565b6001600160a01b0381163314610cc95760405162461bcd60e51b815260206004820152602f60248201527f416363657373436f6e74726f6c3a2063616e206f6e6c792072656e6f756e636560448201526e103937b632b9903337b91039b2b63360891b6064820152608401610673565b610cd382826117bb565b5050565b306001600160a01b037f0000000000000000000000000000000000000000000000000000000000000000161415610d205760405162461bcd60e51b8152600401610673906131ca565b7f00000000000000000000000000000000000000000000000000000000000000006001600160a01b0316610d696000805160206135fe833981519152546001600160a01b031690565b6001600160a01b031614610d8f5760405162461bcd60e51b815260040161067390613216565b610d9881611822565b60408051600080825260208201909252610db49183919061184d565b50565b306001600160a01b037f0000000000000000000000000000000000000000000000000000000000000000161415610e005760405162461bcd60e51b8152600401610673906131ca565b7f00000000000000000000000000000000000000000000000000000000000000006001600160a01b0316610e496000805160206135fe833981519152546001600160a01b031690565b6001600160a01b031614610e6f5760405162461bcd60e51b815260040161067390613216565b610e7882611822565b610cd38282600161184d565b6000306001600160a01b037f00000000000000000000000000000000000000000000000000000000000000001614610f245760405162461bcd60e51b815260206004820152603860248201527f555550535570677261646561626c653a206d757374206e6f742062652063616c60448201527f6c6564207468726f7567682064656c656761746563616c6c00000000000000006064820152608401610673565b506000805160206135fe83398151915290565b600054610100900460ff16610f525760005460ff1615610f56565b303b155b610f725760405162461bcd60e51b815260040161067390613262565b600054610100900460ff16158015610f94576000805461ffff19166101011790555b610f9c6119c7565b8015610db4576000805461ff001916905550565b60009182526065602090815260408084206001600160a01b0393909316845291905290205460ff1690565b610fe6600033610fb0565b6110025760405162461bcd60e51b8152600401610673906132b0565b6001600160a01b0383166110285760405162461bcd60e51b815260040161067390613315565b6001600160a01b03821661104e5760405162461bcd60e51b815260040161067390613315565b6001600160a01b0381166110745760405162461bcd60e51b815260040161067390613315565b61016880546001600160a01b038581166001600160a01b031992831681179093556101698054868316908416811790915561012d805492861692909316821790925560408051938452602084019290925282820152517f8ed3fb668a46e073a37e454bd4a75086729b3900e7bd9768547ca83c15f85ccb916060908290030190a1505050565b610161546040516370a0823160e01b815230600482015260009182916001600160a01b03909116906370a082319060240160206040518083038186803b15801561114357600080fd5b505afa158015611157573d6000803e3d6000fd5b505050506040513d601f19601f8201168201806040525081019061117b9190612fde565b90508061118a57600091505090565b6000610165546101645461016860009054906101000a90046001600160a01b03166001600160a01b031663bb7b8b806040518163ffffffff1660e01b815260040160206040518083038186803b1580156111e357600080fd5b505afa1580156111f7573d6000803e3d6000fd5b505050506040513d601f19601f8201168201806040525081019061121b9190612fde565b6112259190613516565b61122f9190613406565b610165549091506112408284613516565b61124a9190613406565b9250505090565b61125c600033610fb0565b6112785760405162461bcd60e51b8152600401610673906132b0565b6001600160a01b03811661129e5760405162461bcd60e51b815260040161067390613315565b60fb546112c3906000805160206135de833981519152906001600160a01b0316611418565b6112db6000805160206135de83398151915282610c2e565b60fb80546001600160a01b0319166001600160a01b0383169081179091556040519081527ff7b449fcd5cfb7379dcd34cb69428dd9f882033b15be33d83b42d91daa28eeb79060200160405180910390a150565b6113476000805160206135de83398151915233610fb0565b6113635760405162461bcd60e51b815260040161067390613193565b6040518181527f227a473b70d2f893cc7659219575c030a63b5743024fe1e0c1a680e708b1525a9060200160405180910390a16040516370a0823160e01b8152306004820152610cd39083906001600160a01b038216906370a082319060240160206040518083038186803b1580156113db57600080fd5b505afa1580156113ef573d6000803e3d6000fd5b505050506040513d601f19601f820116820180604052508101906114139190612fde565b611a69565b60008281526065602052604090206001015461143481336116d1565b610c5483836117bb565b60006114586000805160206135de83398151915233610fb0565b6114745760405162461bcd60e51b815260040161067390613193565b600061147f83611eb7565b90507f3ac0594a85a20354f9dc74f33728416d19ce00d04a406c108cc2dcf2cecea134816040516114b291815260200190565b60405180910390a192915050565b60006114da6000805160206135de83398151915233610fb0565b6114f65760405162461bcd60e51b815260040161067390613193565b6000821561150f5761150886856121a6565b905061157e565b61151a8686866122d3565b90508481101561157e5760405162461bcd60e51b815260206004820152602960248201527f52657475726e65642076616c7565206c657373207468616e2072657175657374604482015268195908185b5bdd5b9d60ba1b6064820152608401610673565b6040516370a0823160e01b81523060048201526000906001600160a01b038816906370a082319060240160206040518083038186803b1580156115c057600080fd5b505afa1580156115d4573d6000803e3d6000fd5b505050506040513d601f19601f820116820180604052508101906115f89190612fde565b60405163a9059cbb60e01b81526001600160a01b038781166004830152602482018390529192509088169063a9059cbb90604401602060405180830381600087803b15801561164657600080fd5b505af115801561165a573d6000803e3d6000fd5b505050506040513d601f19601f8201168201806040525081019061167e9190612fa8565b5060408051878152602081018390527f9045c2ac9b2026de8075f2701bbdde882cd5e830b3b1ead9a15b22f2b5b93742910160405180910390a19695505050505050565b6001600160a01b03163b151590565b6116db8282610fb0565b610cd3576116f3816001600160a01b03166014612465565b6116fe836020612465565b60405160200161170f9291906130b3565b60408051601f198184030181529082905262461bcd60e51b825261067391600401613160565b61173f8282610fb0565b610cd35760008281526065602090815260408083206001600160a01b03851684529091529020805460ff191660011790556117773390565b6001600160a01b0316816001600160a01b0316837f2f8788117e7eff1d82e926ec794901d17c78024a50270940304540a733656f0d60405160405180910390a45050565b6117c58282610fb0565b15610cd35760008281526065602090815260408083206001600160a01b0385168085529252808320805460ff1916905551339285917ff6391f5c32d9c69d2a47ea670b442974b53935d1edc7fd64eb21e047a839171b9190a45050565b7f189ab7a9244df0848122154315af71fe140f3db0fe014031783b0946b8c9d2e3610cd381336116d1565b7f4910fdfa16fed3260ed0e7147f7cc6da11a60208b5b9406d12a635614ffd91435460ff161561188057610c5483612601565b826001600160a01b03166352d1902d6040518163ffffffff1660e01b815260040160206040518083038186803b1580156118b957600080fd5b505afa9250505080156118e9575060408051601f3d908101601f191682019092526118e691810190612fde565b60015b61194c5760405162461bcd60e51b815260206004820152602e60248201527f45524331393637557067726164653a206e657720696d706c656d656e7461746960448201526d6f6e206973206e6f74205555505360901b6064820152608401610673565b6000805160206135fe83398151915281146119bb5760405162461bcd60e51b815260206004820152602960248201527f45524331393637557067726164653a20756e737570706f727465642070726f786044820152681a58589b195555525160ba1b6064820152608401610673565b50610c5483838361269d565b600054610100900460ff166119e25760005460ff16156119e6565b303b155b611a025760405162461bcd60e51b815260040161067390613262565b600054610100900460ff16158015611a24576000805461ffff19166101011790555b611a2c6126c8565b611a346126c8565b611a3f600033611735565b610f9c7f189ab7a9244df0848122154315af71fe140f3db0fe014031783b0946b8c9d2e333611735565b61015f546001600160a01b03838116911614611a975760405162461bcd60e51b8152600401610673906132de565b61015f546101685460405163c661065760e01b8152600160048201526001600160a01b03928316929091169063c66106579060240160206040518083038186803b158015611ae457600080fd5b505afa158015611af8573d6000803e3d6000fd5b505050506040513d601f19601f82011682018060405250810190611b1c9190612cfb565b6001600160a01b031614611b725760405162461bcd60e51b815260206004820152601f60248201527f496e76616c696420696e64657820666f72207374616b696e67206375727665006044820152606401610673565b611b7a612cc0565b600081526020810182905261015f546101685460405163095ea7b360e01b81526001600160a01b0391821660048201526024810185905291169063095ea7b390604401602060405180830381600087803b158015611bd757600080fd5b505af1158015611beb573d6000803e3d6000fd5b505050506040513d601f19601f82011682018060405250810190611c0f9190612fa8565b506101685460405163ed8e84f360e01b81526000916001600160a01b03169063ed8e84f390611c45908590600190600401613128565b60206040518083038186803b158015611c5d57600080fd5b505afa158015611c71573d6000803e3d6000fd5b505050506040513d601f19601f82011682018060405250810190611c959190612fde565b610168549091506000906001600160a01b0316630b4c7e4d846064611cbb866063613516565b611cc59190613406565b6040518363ffffffff1660e01b8152600401611ce2929190613145565b602060405180830381600087803b158015611cfc57600080fd5b505af1158015611d10573d6000803e3d6000fd5b505050506040513d601f19601f82011682018060405250810190611d349190612fde565b610160546040516370a0823160e01b81523060048201529192506000916001600160a01b03909116906370a082319060240160206040518083038186803b158015611d7e57600080fd5b505afa158015611d92573d6000803e3d6000fd5b505050506040513d601f19601f82011682018060405250810190611db69190612fde565b610160546101695460405163095ea7b360e01b81526001600160a01b03918216600482015260248101849052929350169063095ea7b390604401602060405180830381600087803b158015611e0a57600080fd5b505af1158015611e1e573d6000803e3d6000fd5b505050506040513d601f19601f82011682018060405250810190611e429190612fa8565b50610169546040516383df674760e01b815260048101839052306024820152600060448201526001600160a01b03909116906383df674790606401600060405180830381600087803b158015611e9757600080fd5b505af1158015611eab573d6000803e3d6000fd5b50505050505050505050565b61016954604051634274debf60e11b81523060048201526000916001600160a01b0316906384e9bd7e90602401600060405180830381600087803b158015611efe57600080fd5b505af1158015611f12573d6000803e3d6000fd5b5050610162546040516370a0823160e01b8152306004820152600093508392506001600160a01b03909116906370a082319060240160206040518083038186803b158015611f5f57600080fd5b505afa158015611f73573d6000803e3d6000fd5b505050506040513d601f19601f82011682018060405250810190611f979190612fde565b90508015611fd9576101625461015f5461016654600092611fc9926001600160a01b0391821692911690308087612735565b9050611fd581846133ee565b9250505b610163546040516370a0823160e01b81523060048201526000916001600160a01b0316906370a082319060240160206040518083038186803b15801561201e57600080fd5b505afa158015612032573d6000803e3d6000fd5b505050506040513d601f19601f820116820180604052508101906120569190612fde565b90508015612098576101635461015f5461016754600092612088926001600160a01b0391821692911690308087612735565b905061209481856133ee565b9350505b61015f546040516370a0823160e01b81523060048201526001600160a01b039091169063a9059cbb90879083906370a082319060240160206040518083038186803b1580156120e657600080fd5b505afa1580156120fa573d6000803e3d6000fd5b505050506040513d601f19601f8201168201806040525081019061211e9190612fde565b6040516001600160e01b031960e085901b1681526001600160a01b0390921660048301526024820152604401602060405180830381600087803b15801561216457600080fd5b505af1158015612178573d6000803e3d6000fd5b505050506040513d601f19601f8201168201806040525081019061219c9190612fa8565b5091949350505050565b61015f546000906001600160a01b038481169116146121d75760405162461bcd60e51b8152600401610673906132de565b610161546040516370a0823160e01b81523060048201526000916001600160a01b0316906370a082319060240160206040518083038186803b15801561221c57600080fd5b505afa158015612230573d6000803e3d6000fd5b505050506040513d601f19601f820116820180604052508101906122549190612fde565b61016954604051631c683a1b60e11b8152600481018390526000602482015291925030916001600160a01b03909116906338d0743690604401600060405180830381600087803b1580156122a757600080fd5b505af11580156122bb573d6000803e3d6000fd5b5050505060006122c96128f9565b9695505050505050565b61015f546000906001600160a01b038581169116146123045760405162461bcd60e51b8152600401610673906132de565b60003090506000610165546101645461016860009054906101000a90046001600160a01b03166001600160a01b031663bb7b8b806040518163ffffffff1660e01b815260040160206040518083038186803b15801561236257600080fd5b505afa158015612376573d6000803e3d6000fd5b505050506040513d601f19601f8201168201806040525081019061239a9190612fde565b6123a49190613516565b6123ae9190613406565b9050600060646123bf876065613516565b6123c99190613406565b905060008282610165546123dd9190613516565b6123e79190613406565b61016954604051631c683a1b60e11b815260048101839052600060248201529192506001600160a01b0316906338d0743690604401600060405180830381600087803b15801561243657600080fd5b505af115801561244a573d6000803e3d6000fd5b5050505060006124586128f9565b9998505050505050505050565b60606000612474836002613516565b61247f9060026133ee565b67ffffffffffffffff811115612497576124976135a4565b6040519080825280601f01601f1916602001820160405280156124c1576020820181803683370190505b509050600360fc1b816000815181106124dc576124dc61358e565b60200101906001600160f81b031916908160001a905350600f60fb1b8160018151811061250b5761250b61358e565b60200101906001600160f81b031916908160001a905350600061252f846002613516565b61253a9060016133ee565b90505b60018111156125b2576f181899199a1a9b1b9c1cb0b131b232b360811b85600f166010811061256e5761256e61358e565b1a60f81b8282815181106125845761258461358e565b60200101906001600160f81b031916908160001a90535060049490941c936125ab81613561565b905061253d565b508315610c275760405162461bcd60e51b815260206004820181905260248201527f537472696e67733a20686578206c656e67746820696e73756666696369656e746044820152606401610673565b6001600160a01b0381163b61266e5760405162461bcd60e51b815260206004820152602d60248201527f455243313936373a206e657720696d706c656d656e746174696f6e206973206e60448201526c1bdd08184818dbdb9d1c9858dd609a1b6064820152608401610673565b6000805160206135fe83398151915280546001600160a01b0319166001600160a01b0392909216919091179055565b6126a683612b53565b6000825111806126b35750805b15610c54576126c28383612b93565b50505050565b600054610100900460ff166127335760405162461bcd60e51b815260206004820152602b60248201527f496e697469616c697a61626c653a20636f6e7472616374206973206e6f74206960448201526a6e697469616c697a696e6760a81b6064820152608401610673565b565b61012d5460405163095ea7b360e01b81526001600160a01b0391821660048201526024810183905260009182919089169063095ea7b390604401602060405180830381600087803b15801561278957600080fd5b505af115801561279d573d6000803e3d6000fd5b505050506040513d601f19601f820116820180604052508101906127c19190612fa8565b5060408051600280825260608201835260009260208301908036833701905050905088816000815181106127f7576127f761358e565b60200260200101906001600160a01b031690816001600160a01b031681525050878160018151811061282b5761282b61358e565b6001600160a01b03928316602091820292909201015261012d54166338ed17398584848961285b426102586133ee565b6040518663ffffffff1660e01b815260040161287b95949392919061334c565b600060405180830381600087803b15801561289557600080fd5b505af11580156128a9573d6000803e3d6000fd5b505050506040513d6000823e601f3d908101601f191682016040526128d19190810190612efb565b6001815181106128e3576128e361358e565b6020026020010151925050509695505050505050565b61015f546101685460405163c661065760e01b8152600160048201526000926001600160a01b0390811692169063c66106579060240160206040518083038186803b15801561294757600080fd5b505afa15801561295b573d6000803e3d6000fd5b505050506040513d601f19601f8201168201806040525081019061297f9190612cfb565b6001600160a01b0316146129df5760405162461bcd60e51b815260206004820152602160248201527f496e76616c696420696e64657820666f7220756e7374616b696e6720637572766044820152606560f81b6064820152608401610673565b610160546040516370a0823160e01b81523060048201526000916001600160a01b0316906370a082319060240160206040518083038186803b158015612a2457600080fd5b505afa158015612a38573d6000803e3d6000fd5b505050506040513d601f19601f82011682018060405250810190612a5c9190612fde565b610160546101685460405163095ea7b360e01b81526001600160a01b03918216600482015260248101849052929350169063095ea7b390604401602060405180830381600087803b158015612ab057600080fd5b505af1158015612ac4573d6000803e3d6000fd5b505050506040513d601f19601f82011682018060405250810190612ae89190612fa8565b5061016854604051630d2680e960e11b81526004810183905260016024820152600060448201819052916001600160a01b031690631a4d01d290606401602060405180830381600087803b158015612b3f57600080fd5b505af1158015610c03573d6000803e3d6000fd5b612b5c81612601565b6040516001600160a01b038216907fbc7cd75a20ee27fd9adebab32041f755214dbc6bffa90cc0225b39da2e5c2d3b90600090a250565b60606001600160a01b0383163b612bfb5760405162461bcd60e51b815260206004820152602660248201527f416464726573733a2064656c65676174652063616c6c20746f206e6f6e2d636f6044820152651b9d1c9858dd60d21b6064820152608401610673565b600080846001600160a01b031684604051612c169190613097565b600060405180830381855af49150503d8060008114612c51576040519150601f19603f3d011682016040523d82523d6000602084013e612c56565b606091505b5091509150612c7e828260405180606001604052806027815260200161361e60279139612c87565b95945050505050565b60608315612c96575081610c27565b825115612ca65782518084602001fd5b8160405162461bcd60e51b81526004016106739190613160565b60405180604001604052806002906020820280368337509192915050565b600060208284031215612cf057600080fd5b8135610c27816135ba565b600060208284031215612d0d57600080fd5b8151610c27816135ba565b600080600060608486031215612d2d57600080fd5b8335612d38816135ba565b92506020840135612d48816135ba565b91506040840135612d58816135ba565b809150509250925092565b600080600080600060a08688031215612d7b57600080fd5b8535612d86816135ba565b94506020860135612d96816135ba565b93506040860135612da6816135ba565b92506060860135612db6816135ba565b91506080860135612dc6816135ba565b809150509295509295909350565b60008060408385031215612de757600080fd5b8235612df2816135ba565b915060208381013567ffffffffffffffff80821115612e1057600080fd5b818601915086601f830112612e2457600080fd5b813581811115612e3657612e366135a4565b612e48601f8201601f191685016133bd565b91508082528784828501011115612e5e57600080fd5b80848401858401376000848284010152508093505050509250929050565b60008060408385031215612e8f57600080fd5b8235612e9a816135ba565b946020939093013593505050565b60008060008060808587031215612ebe57600080fd5b8435612ec9816135ba565b9350602085013592506040850135612ee0816135ba565b91506060850135612ef0816135cf565b939692955090935050565b60006020808385031215612f0e57600080fd5b825167ffffffffffffffff80821115612f2657600080fd5b818501915085601f830112612f3a57600080fd5b815181811115612f4c57612f4c6135a4565b8060051b9150612f5d8483016133bd565b8181528481019084860184860187018a1015612f7857600080fd5b600095505b83861015612f9b578051835260019590950194918601918601612f7d565b5098975050505050505050565b600060208284031215612fba57600080fd5b8151610c27816135cf565b600060208284031215612fd757600080fd5b5035919050565b600060208284031215612ff057600080fd5b5051919050565b6000806040838503121561300a57600080fd5b82359150602083013561301c816135ba565b809150509250929050565b60006020828403121561303957600080fd5b81356001600160e01b031981168114610c2757600080fd5b60006020828403121561306357600080fd5b815160ff81168114610c2757600080fd5b8060005b60028110156126c2578151845260209384019390910190600101613078565b600082516130a9818460208701613535565b9190910192915050565b7f416363657373436f6e74726f6c3a206163636f756e74200000000000000000008152600083516130eb816017850160208801613535565b7001034b99036b4b9b9b4b733903937b6329607d1b601791840191820152835161311c816028840160208801613535565b01602801949350505050565b606081016131368285613074565b82151560408301529392505050565b606081016131538285613074565b8260408301529392505050565b602081526000825180602084015261317f816040850160208701613535565b601f01601f19169190910160400192915050565b6020808252601f908201527f5265737472696374656420746f20504f5254464f4c494f5f4d414e4147455200604082015260600190565b6020808252602c908201527f46756e6374696f6e206d7573742062652063616c6c6564207468726f7567682060408201526b19195b1959d85d1958d85b1b60a21b606082015260800190565b6020808252602c908201527f46756e6374696f6e206d7573742062652063616c6c6564207468726f7567682060408201526b6163746976652070726f787960a01b606082015260800190565b6020808252602e908201527f496e697469616c697a61626c653a20636f6e747261637420697320616c72656160408201526d191e481a5b9a5d1a585b1a5e995960921b606082015260800190565b6020808252601490820152735265737472696374656420746f2061646d696e7360601b604082015260600190565b60208082526019908201527f536f6d6520746f6b656e206e6f7420636f6d70617469626c6500000000000000604082015260600190565b60208082526018908201527f5a65726f2061646472657373206e6f7420616c6c6f7765640000000000000000604082015260600190565b600060a082018783526020878185015260a0604085015281875180845260c086019150828901935060005b8181101561339c5784516001600160a01b031683529383019391830191600101613377565b50506001600160a01b03969096166060850152505050608001529392505050565b604051601f8201601f1916810167ffffffffffffffff811182821017156133e6576133e66135a4565b604052919050565b6000821982111561340157613401613578565b500190565b60008261342357634e487b7160e01b600052601260045260246000fd5b500490565b600181815b8085111561346357816000190482111561344957613449613578565b8085161561345657918102915b93841c939080029061342d565b509250929050565b6000610c2760ff84168360008261348457506001610646565b8161349157506000610646565b81600181146134a757600281146134b1576134cd565b6001915050610646565b60ff8411156134c2576134c2613578565b50506001821b610646565b5060208310610133831016604e8410600b84101617156134f0575081810a610646565b6134fa8383613428565b806000190482111561350e5761350e613578565b029392505050565b600081600019048311821515161561353057613530613578565b500290565b60005b83811015613550578181015183820152602001613538565b838111156126c25750506000910152565b60008161357057613570613578565b506000190190565b634e487b7160e01b600052601160045260246000fd5b634e487b7160e01b600052603260045260246000fd5b634e487b7160e01b600052604160045260246000fd5b6001600160a01b0381168114610db457600080fd5b8015158114610db457600080fdfe90c2aa7471c04182221f68e80c07ab1e5946e4c63f8693e14ca40385d529f051360894a13ba1a3210667c828492db98dca3e2076cc3735a920a3ca505d382bbc416464726573733a206c6f772d6c6576656c2064656c65676174652063616c6c206661696c6564a26469706673582212201f007ccd7bf465f883dfa25299786e9119873e1ebe3e8e0b774062c9a5117f2964736f6c63430008060033",
  "devdoc": {
    "kind": "dev",
    "methods": {
      "constructor": {
        "custom:oz-upgrades-unsafe-allow": "constructor"
      },
      "getRoleAdmin(bytes32)": {
        "details": "Returns the admin role that controls `role`. See {grantRole} and {revokeRole}. To change a role's admin, use {_setRoleAdmin}."
      },
      "grantRole(bytes32,address)": {
        "details": "Grants `role` to `account`. If `account` had not been already granted `role`, emits a {RoleGranted} event. Requirements: - the caller must have ``role``'s admin role."
      },
      "hasRole(bytes32,address)": {
        "details": "Returns `true` if `account` has been granted `role`."
      },
      "proxiableUUID()": {
        "details": "Implementation of the ERC1822 {proxiableUUID} function. This returns the storage slot used by the implementation. It is used to validate that the this implementation remains valid after an upgrade. IMPORTANT: A proxy pointing at a proxiable contract should not be considered proxiable itself, because this risks bricking a proxy that upgrades to it, by delegating to itself until out of gas. Thus it is critical that this function revert if invoked through a proxy. This is guaranteed by the `notDelegated` modifier."
      },
      "renounceRole(bytes32,address)": {
        "details": "Revokes `role` from the calling account. Roles are often managed via {grantRole} and {revokeRole}: this function's purpose is to provide a mechanism for accounts to lose their privileges if they are compromised (such as when a trusted device is misplaced). If the calling account had been revoked `role`, emits a {RoleRevoked} event. Requirements: - the caller must be `account`."
      },
      "revokeRole(bytes32,address)": {
        "details": "Revokes `role` from `account`. If `account` had been granted `role`, emits a {RoleRevoked} event. Requirements: - the caller must have ``role``'s admin role."
      },
      "supportsInterface(bytes4)": {
        "details": "See {IERC165-supportsInterface}."
      },
      "upgradeTo(address)": {
        "details": "Upgrade the implementation of the proxy to `newImplementation`. Calls {_authorizeUpgrade}. Emits an {Upgraded} event."
      },
      "upgradeToAndCall(address,bytes)": {
        "details": "Upgrade the implementation of the proxy to `newImplementation`, and subsequently execute the function call encoded in `data`. Calls {_authorizeUpgrade}. Emits an {Upgraded} event."
      }
    },
    "version": 1
  },
  "userdoc": {
    "kind": "user",
    "methods": {},
    "version": 1
  },
  "storageLayout": {
    "storage": [
      {
        "astId": 797,
        "contract": "contracts/StrategyCurve2Pool.sol:StrategyCurve2Pool",
        "label": "_initialized",
        "offset": 0,
        "slot": "0",
        "type": "t_bool"
      },
      {
        "astId": 800,
        "contract": "contracts/StrategyCurve2Pool.sol:StrategyCurve2Pool",
        "label": "_initializing",
        "offset": 1,
        "slot": "0",
        "type": "t_bool"
      },
      {
        "astId": 1284,
        "contract": "contracts/StrategyCurve2Pool.sol:StrategyCurve2Pool",
        "label": "__gap",
        "offset": 0,
        "slot": "1",
        "type": "t_array(t_uint256)50_storage"
      },
      {
        "astId": 1591,
        "contract": "contracts/StrategyCurve2Pool.sol:StrategyCurve2Pool",
        "label": "__gap",
        "offset": 0,
        "slot": "51",
        "type": "t_array(t_uint256)50_storage"
      },
      {
        "astId": 39,
        "contract": "contracts/StrategyCurve2Pool.sol:StrategyCurve2Pool",
        "label": "_roles",
        "offset": 0,
        "slot": "101",
        "type": "t_mapping(t_bytes32,t_struct(RoleData)34_storage)"
      },
      {
        "astId": 327,
        "contract": "contracts/StrategyCurve2Pool.sol:StrategyCurve2Pool",
        "label": "__gap",
        "offset": 0,
        "slot": "102",
        "type": "t_array(t_uint256)49_storage"
      },
      {
        "astId": 779,
        "contract": "contracts/StrategyCurve2Pool.sol:StrategyCurve2Pool",
        "label": "__gap",
        "offset": 0,
        "slot": "151",
        "type": "t_array(t_uint256)50_storage"
      },
      {
        "astId": 999,
        "contract": "contracts/StrategyCurve2Pool.sol:StrategyCurve2Pool",
        "label": "__gap",
        "offset": 0,
        "slot": "201",
        "type": "t_array(t_uint256)50_storage"
      },
      {
        "astId": 13449,
        "contract": "contracts/StrategyCurve2Pool.sol:StrategyCurve2Pool",
        "label": "portfolioManager",
        "offset": 0,
        "slot": "251",
        "type": "t_address"
      },
      {
        "astId": 13727,
        "contract": "contracts/StrategyCurve2Pool.sol:StrategyCurve2Pool",
        "label": "__gap",
        "offset": 0,
        "slot": "252",
        "type": "t_array(t_uint256)49_storage"
      },
      {
        "astId": 14406,
        "contract": "contracts/StrategyCurve2Pool.sol:StrategyCurve2Pool",
        "label": "uniswapRouter",
        "offset": 0,
        "slot": "301",
        "type": "t_contract(IUniswapV2Router02)13363"
      },
      {
        "astId": 14542,
        "contract": "contracts/StrategyCurve2Pool.sol:StrategyCurve2Pool",
        "label": "__gap",
        "offset": 0,
        "slot": "302",
        "type": "t_array(t_uint256)49_storage"
      },
      {
        "astId": 5811,
        "contract": "contracts/StrategyCurve2Pool.sol:StrategyCurve2Pool",
        "label": "usdcToken",
        "offset": 0,
        "slot": "351",
        "type": "t_contract(IERC20)2415"
      },
      {
        "astId": 5814,
        "contract": "contracts/StrategyCurve2Pool.sol:StrategyCurve2Pool",
        "label": "crvPoolToken",
        "offset": 0,
        "slot": "352",
        "type": "t_contract(IERC20)2415"
      },
      {
        "astId": 5817,
        "contract": "contracts/StrategyCurve2Pool.sol:StrategyCurve2Pool",
        "label": "crvGaugeToken",
        "offset": 0,
        "slot": "353",
        "type": "t_contract(IERC20)2415"
      },
      {
        "astId": 5820,
        "contract": "contracts/StrategyCurve2Pool.sol:StrategyCurve2Pool",
        "label": "crvToken",
        "offset": 0,
        "slot": "354",
        "type": "t_contract(IERC20)2415"
      },
      {
        "astId": 5823,
        "contract": "contracts/StrategyCurve2Pool.sol:StrategyCurve2Pool",
        "label": "wFtmToken",
        "offset": 0,
        "slot": "355",
        "type": "t_contract(IERC20)2415"
      },
      {
        "astId": 5825,
        "contract": "contracts/StrategyCurve2Pool.sol:StrategyCurve2Pool",
        "label": "usdcTokenDenominator",
        "offset": 0,
        "slot": "356",
        "type": "t_uint256"
      },
      {
        "astId": 5827,
        "contract": "contracts/StrategyCurve2Pool.sol:StrategyCurve2Pool",
        "label": "crvPoolTokenDenominator",
        "offset": 0,
        "slot": "357",
        "type": "t_uint256"
      },
      {
        "astId": 5829,
        "contract": "contracts/StrategyCurve2Pool.sol:StrategyCurve2Pool",
        "label": "crvTokenDenominator",
        "offset": 0,
        "slot": "358",
        "type": "t_uint256"
      },
      {
        "astId": 5831,
        "contract": "contracts/StrategyCurve2Pool.sol:StrategyCurve2Pool",
        "label": "wFtmTokenDenominator",
        "offset": 0,
        "slot": "359",
        "type": "t_uint256"
      },
      {
        "astId": 5834,
        "contract": "contracts/StrategyCurve2Pool.sol:StrategyCurve2Pool",
        "label": "crvPool",
        "offset": 0,
        "slot": "360",
        "type": "t_contract(IStableSwapPool)11719"
      },
      {
        "astId": 5837,
        "contract": "contracts/StrategyCurve2Pool.sol:StrategyCurve2Pool",
        "label": "rewardGauge",
        "offset": 0,
        "slot": "361",
        "type": "t_contract(IRewardsOnlyGauge)11537"
      }
    ],
    "types": {
      "t_address": {
        "encoding": "inplace",
        "label": "address",
        "numberOfBytes": "20"
      },
      "t_array(t_uint256)49_storage": {
        "base": "t_uint256",
        "encoding": "inplace",
        "label": "uint256[49]",
        "numberOfBytes": "1568"
      },
      "t_array(t_uint256)50_storage": {
        "base": "t_uint256",
        "encoding": "inplace",
        "label": "uint256[50]",
        "numberOfBytes": "1600"
      },
      "t_bool": {
        "encoding": "inplace",
        "label": "bool",
        "numberOfBytes": "1"
      },
      "t_bytes32": {
        "encoding": "inplace",
        "label": "bytes32",
        "numberOfBytes": "32"
      },
      "t_contract(IERC20)2415": {
        "encoding": "inplace",
        "label": "contract IERC20",
        "numberOfBytes": "20"
      },
      "t_contract(IRewardsOnlyGauge)11537": {
        "encoding": "inplace",
        "label": "contract IRewardsOnlyGauge",
        "numberOfBytes": "20"
      },
      "t_contract(IStableSwapPool)11719": {
        "encoding": "inplace",
        "label": "contract IStableSwapPool",
        "numberOfBytes": "20"
      },
      "t_contract(IUniswapV2Router02)13363": {
        "encoding": "inplace",
        "label": "contract IUniswapV2Router02",
        "numberOfBytes": "20"
      },
      "t_mapping(t_address,t_bool)": {
        "encoding": "mapping",
        "key": "t_address",
        "label": "mapping(address => bool)",
        "numberOfBytes": "32",
        "value": "t_bool"
      },
      "t_mapping(t_bytes32,t_struct(RoleData)34_storage)": {
        "encoding": "mapping",
        "key": "t_bytes32",
        "label": "mapping(bytes32 => struct AccessControlUpgradeable.RoleData)",
        "numberOfBytes": "32",
        "value": "t_struct(RoleData)34_storage"
      },
      "t_struct(RoleData)34_storage": {
        "encoding": "inplace",
        "label": "struct AccessControlUpgradeable.RoleData",
        "members": [
          {
            "astId": 31,
            "contract": "contracts/StrategyCurve2Pool.sol:StrategyCurve2Pool",
            "label": "members",
            "offset": 0,
            "slot": "0",
            "type": "t_mapping(t_address,t_bool)"
          },
          {
            "astId": 33,
            "contract": "contracts/StrategyCurve2Pool.sol:StrategyCurve2Pool",
            "label": "adminRole",
            "offset": 0,
            "slot": "1",
            "type": "t_bytes32"
          }
        ],
        "numberOfBytes": "64"
      },
      "t_uint256": {
        "encoding": "inplace",
        "label": "uint256",
        "numberOfBytes": "32"
      }
    }
  }
}