{
  "address": "0x3bE4a04d21D9cE2b38557CB9e89A9254AEE7c132",
  "abi": [
    {
      "inputs": [],
      "stateMutability": "nonpayable",
      "type": "constructor"
    },
    {
      "anonymous": false,
      "inputs": [
        {
          "indexed": false,
          "internalType": "address",
          "name": "previousAdmin",
          "type": "address"
        },
        {
          "indexed": false,
          "internalType": "address",
          "name": "newAdmin",
          "type": "address"
        }
      ],
      "name": "AdminChanged",
      "type": "event"
    },
    {
      "anonymous": false,
      "inputs": [
        {
          "indexed": true,
          "internalType": "address",
          "name": "beacon",
          "type": "address"
        }
      ],
      "name": "BeaconUpgraded",
      "type": "event"
    },
    {
      "anonymous": false,
      "inputs": [
        {
          "indexed": false,
          "internalType": "address",
          "name": "value",
          "type": "address"
        }
      ],
      "name": "PortfolioManagerUpdated",
      "type": "event"
    },
    {
      "anonymous": false,
      "inputs": [
        {
          "indexed": false,
          "internalType": "uint256",
          "name": "amount",
          "type": "uint256"
        }
      ],
      "name": "Reward",
      "type": "event"
    },
    {
      "anonymous": false,
      "inputs": [
        {
          "indexed": true,
          "internalType": "bytes32",
          "name": "role",
          "type": "bytes32"
        },
        {
          "indexed": true,
          "internalType": "bytes32",
          "name": "previousAdminRole",
          "type": "bytes32"
        },
        {
          "indexed": true,
          "internalType": "bytes32",
          "name": "newAdminRole",
          "type": "bytes32"
        }
      ],
      "name": "RoleAdminChanged",
      "type": "event"
    },
    {
      "anonymous": false,
      "inputs": [
        {
          "indexed": true,
          "internalType": "bytes32",
          "name": "role",
          "type": "bytes32"
        },
        {
          "indexed": true,
          "internalType": "address",
          "name": "account",
          "type": "address"
        },
        {
          "indexed": true,
          "internalType": "address",
          "name": "sender",
          "type": "address"
        }
      ],
      "name": "RoleGranted",
      "type": "event"
    },
    {
      "anonymous": false,
      "inputs": [
        {
          "indexed": true,
          "internalType": "bytes32",
          "name": "role",
          "type": "bytes32"
        },
        {
          "indexed": true,
          "internalType": "address",
          "name": "account",
          "type": "address"
        },
        {
          "indexed": true,
          "internalType": "address",
          "name": "sender",
          "type": "address"
        }
      ],
      "name": "RoleRevoked",
      "type": "event"
    },
    {
      "anonymous": false,
      "inputs": [
        {
          "indexed": false,
          "internalType": "uint256",
          "name": "amount",
          "type": "uint256"
        }
      ],
      "name": "Stake",
      "type": "event"
    },
    {
      "anonymous": false,
      "inputs": [
        {
          "indexed": false,
          "internalType": "address",
          "name": "tarotRouter",
          "type": "address"
        }
      ],
      "name": "StrategyTarotSpiritUsdcFtmUpdatedParams",
      "type": "event"
    },
    {
      "anonymous": false,
      "inputs": [
        {
          "indexed": false,
          "internalType": "address",
          "name": "usdcToken",
          "type": "address"
        },
        {
          "indexed": false,
          "internalType": "address",
          "name": "bTarotSpookyToken",
          "type": "address"
        },
        {
          "indexed": false,
          "internalType": "uint256",
          "name": "bTarotSpookyTokenDenominator",
          "type": "uint256"
        }
      ],
      "name": "StrategyTarotSpiritUsdcFtmUpdatedTokens",
      "type": "event"
    },
    {
      "anonymous": false,
      "inputs": [
        {
          "indexed": false,
          "internalType": "uint256",
          "name": "amount",
          "type": "uint256"
        },
        {
          "indexed": false,
          "internalType": "uint256",
          "name": "amountReceived",
          "type": "uint256"
        }
      ],
      "name": "Unstake",
      "type": "event"
    },
    {
      "anonymous": false,
      "inputs": [
        {
          "indexed": true,
          "internalType": "address",
          "name": "implementation",
          "type": "address"
        }
      ],
      "name": "Upgraded",
      "type": "event"
    },
    {
      "inputs": [],
      "name": "DEFAULT_ADMIN_ROLE",
      "outputs": [
        {
          "internalType": "bytes32",
          "name": "",
          "type": "bytes32"
        }
      ],
      "stateMutability": "view",
      "type": "function"
    },
    {
      "inputs": [],
      "name": "PORTFOLIO_MANAGER",
      "outputs": [
        {
          "internalType": "bytes32",
          "name": "",
          "type": "bytes32"
        }
      ],
      "stateMutability": "view",
      "type": "function"
    },
    {
      "inputs": [],
      "name": "UPGRADER_ROLE",
      "outputs": [
        {
          "internalType": "bytes32",
          "name": "",
          "type": "bytes32"
        }
      ],
      "stateMutability": "view",
      "type": "function"
    },
    {
      "inputs": [],
      "name": "bTarotSpookyToken",
      "outputs": [
        {
          "internalType": "contract IBorrowable",
          "name": "",
          "type": "address"
        }
      ],
      "stateMutability": "view",
      "type": "function"
    },
    {
      "inputs": [],
      "name": "bTarotSpookyTokenDenominator",
      "outputs": [
        {
          "internalType": "uint256",
          "name": "",
          "type": "uint256"
        }
      ],
      "stateMutability": "view",
      "type": "function"
    },
    {
      "inputs": [
        {
          "internalType": "address",
          "name": "_to",
          "type": "address"
        }
      ],
      "name": "claimRewards",
      "outputs": [
        {
          "internalType": "uint256",
          "name": "",
          "type": "uint256"
        }
      ],
      "stateMutability": "nonpayable",
      "type": "function"
    },
    {
      "inputs": [
        {
          "internalType": "bytes32",
          "name": "role",
          "type": "bytes32"
        }
      ],
      "name": "getRoleAdmin",
      "outputs": [
        {
          "internalType": "bytes32",
          "name": "",
          "type": "bytes32"
        }
      ],
      "stateMutability": "view",
      "type": "function"
    },
    {
      "inputs": [
        {
          "internalType": "bytes32",
          "name": "role",
          "type": "bytes32"
        },
        {
          "internalType": "address",
          "name": "account",
          "type": "address"
        }
      ],
      "name": "grantRole",
      "outputs": [],
      "stateMutability": "nonpayable",
      "type": "function"
    },
    {
      "inputs": [
        {
          "internalType": "bytes32",
          "name": "role",
          "type": "bytes32"
        },
        {
          "internalType": "address",
          "name": "account",
          "type": "address"
        }
      ],
      "name": "hasRole",
      "outputs": [
        {
          "internalType": "bool",
          "name": "",
          "type": "bool"
        }
      ],
      "stateMutability": "view",
      "type": "function"
    },
    {
      "inputs": [],
      "name": "initialize",
      "outputs": [],
      "stateMutability": "nonpayable",
      "type": "function"
    },
    {
      "inputs": [],
      "name": "liquidationValue",
      "outputs": [
        {
          "internalType": "uint256",
          "name": "",
          "type": "uint256"
        }
      ],
      "stateMutability": "view",
      "type": "function"
    },
    {
      "inputs": [],
      "name": "netAssetValue",
      "outputs": [
        {
          "internalType": "uint256",
          "name": "",
          "type": "uint256"
        }
      ],
      "stateMutability": "view",
      "type": "function"
    },
    {
      "inputs": [],
      "name": "portfolioManager",
      "outputs": [
        {
          "internalType": "address",
          "name": "",
          "type": "address"
        }
      ],
      "stateMutability": "view",
      "type": "function"
    },
    {
      "inputs": [],
      "name": "proxiableUUID",
      "outputs": [
        {
          "internalType": "bytes32",
          "name": "",
          "type": "bytes32"
        }
      ],
      "stateMutability": "view",
      "type": "function"
    },
    {
      "inputs": [
        {
          "internalType": "bytes32",
          "name": "role",
          "type": "bytes32"
        },
        {
          "internalType": "address",
          "name": "account",
          "type": "address"
        }
      ],
      "name": "renounceRole",
      "outputs": [],
      "stateMutability": "nonpayable",
      "type": "function"
    },
    {
      "inputs": [
        {
          "internalType": "bytes32",
          "name": "role",
          "type": "bytes32"
        },
        {
          "internalType": "address",
          "name": "account",
          "type": "address"
        }
      ],
      "name": "revokeRole",
      "outputs": [],
      "stateMutability": "nonpayable",
      "type": "function"
    },
    {
      "inputs": [
        {
          "internalType": "address",
          "name": "_tarotRouter",
          "type": "address"
        }
      ],
      "name": "setParams",
      "outputs": [],
      "stateMutability": "nonpayable",
      "type": "function"
    },
    {
      "inputs": [
        {
          "internalType": "address",
          "name": "_value",
          "type": "address"
        }
      ],
      "name": "setPortfolioManager",
      "outputs": [],
      "stateMutability": "nonpayable",
      "type": "function"
    },
    {
      "inputs": [
        {
          "internalType": "address",
          "name": "_usdcToken",
          "type": "address"
        },
        {
          "internalType": "address",
          "name": "_bTarotSpookyToken",
          "type": "address"
        }
      ],
      "name": "setTokens",
      "outputs": [],
      "stateMutability": "nonpayable",
      "type": "function"
    },
    {
      "inputs": [
        {
          "internalType": "address",
          "name": "_asset",
          "type": "address"
        },
        {
          "internalType": "uint256",
          "name": "_amount",
          "type": "uint256"
        }
      ],
      "name": "stake",
      "outputs": [],
      "stateMutability": "nonpayable",
      "type": "function"
    },
    {
      "inputs": [
        {
          "internalType": "bytes4",
          "name": "interfaceId",
          "type": "bytes4"
        }
      ],
      "name": "supportsInterface",
      "outputs": [
        {
          "internalType": "bool",
          "name": "",
          "type": "bool"
        }
      ],
      "stateMutability": "view",
      "type": "function"
    },
    {
      "inputs": [],
      "name": "tarotRouter",
      "outputs": [
        {
          "internalType": "contract IRouter02",
          "name": "",
          "type": "address"
        }
      ],
      "stateMutability": "view",
      "type": "function"
    },
    {
      "inputs": [
        {
          "internalType": "address",
          "name": "_asset",
          "type": "address"
        },
        {
          "internalType": "uint256",
          "name": "_amount",
          "type": "uint256"
        },
        {
          "internalType": "address",
          "name": "_beneficiary",
          "type": "address"
        },
        {
          "internalType": "bool",
          "name": "_targetIsZero",
          "type": "bool"
        }
      ],
      "name": "unstake",
      "outputs": [
        {
          "internalType": "uint256",
          "name": "",
          "type": "uint256"
        }
      ],
      "stateMutability": "nonpayable",
      "type": "function"
    },
    {
      "inputs": [
        {
          "internalType": "address",
          "name": "newImplementation",
          "type": "address"
        }
      ],
      "name": "upgradeTo",
      "outputs": [],
      "stateMutability": "nonpayable",
      "type": "function"
    },
    {
      "inputs": [
        {
          "internalType": "address",
          "name": "newImplementation",
          "type": "address"
        },
        {
          "internalType": "bytes",
          "name": "data",
          "type": "bytes"
        }
      ],
      "name": "upgradeToAndCall",
      "outputs": [],
      "stateMutability": "payable",
      "type": "function"
    },
    {
      "inputs": [],
      "name": "usdcToken",
      "outputs": [
        {
          "internalType": "contract IERC20",
          "name": "",
          "type": "address"
        }
      ],
      "stateMutability": "view",
      "type": "function"
    }
  ],
  "numDeployments": 1,
  "solcInputHash": "17bec5a5db63c378ad30b852e6abf5b4",
  "bytecode": "0x60a06040523060601b6080523480156200001857600080fd5b50600054610100900460ff16620000365760005460ff161562000040565b62000040620000e5565b620000a85760405162461bcd60e51b815260206004820152602e60248201527f496e697469616c697a61626c653a20636f6e747261637420697320616c72656160448201526d191e481a5b9a5d1a585b1a5e995960921b606482015260840160405180910390fd5b600054610100900460ff16158015620000cb576000805461ffff19166101011790555b8015620000de576000805461ff00191690555b5062000112565b6000620000fd306200010360201b620010401760201c565b15905090565b6001600160a01b03163b151590565b60805160601c6124f26200014d600039600081816106d2015281816107120152818161085501528181610895015261092401526124f26000f3fe6080604052600436106101815760003560e01c8063620b75df116100d1578063a440b21a1161008a578063d547741f11610064578063d547741f14610436578063ef5cfb8c14610456578063f6f6b88114610476578063f72c0d8b1461049657600080fd5b8063a440b21a146103d6578063adc9772e146103f6578063cbc7854e1461041657600080fd5b8063620b75df1461034a5780637d5f58021461036a5780638129fc1c1461038c57806391d14854146103a1578063a217fddf146103c1578063a3673b381461023257600080fd5b806336568abe1161013e5780634e49acac116101185780634e49acac146102e15780634f1ef2861461030157806352d1902d14610314578063575ba6a41461032957600080fd5b806336568abe146102805780633659cfe6146102a057806340b6e8b7146102c057600080fd5b806301ffc9a71461018657806311eac855146101bb578063248a9ca3146101f45780632576e65a146102325780632978c9d0146102475780632f2ff15d1461025e575b600080fd5b34801561019257600080fd5b506101a66101a1366004611f78565b6104ca565b60405190151581526020015b60405180910390f35b3480156101c757600080fd5b5061012d546101dc906001600160a01b031681565b6040516001600160a01b0390911681526020016101b2565b34801561020057600080fd5b5061022461020f366004611f23565b60009081526065602052604090206001015490565b6040519081526020016101b2565b34801561023e57600080fd5b50610224610501565b34801561025357600080fd5b5061022461012f5481565b34801561026a57600080fd5b5061027e610279366004611f55565b610619565b005b34801561028c57600080fd5b5061027e61029b366004611f55565b610644565b3480156102ac57600080fd5b5061027e6102bb366004611d7d565b6106c7565b3480156102cc57600080fd5b50610130546101dc906001600160a01b031681565b3480156102ed57600080fd5b5061027e6102fc366004611d7d565b6107a7565b61027e61030f366004611dcb565b61084a565b34801561032057600080fd5b50610224610917565b34801561033557600080fd5b5061012e546101dc906001600160a01b031681565b34801561035657600080fd5b5060fb546101dc906001600160a01b031681565b34801561037657600080fd5b5061022460008051602061245683398151915281565b34801561039857600080fd5b5061027e6109ca565b3480156103ad57600080fd5b506101a66103bc366004611f55565b610a43565b3480156103cd57600080fd5b50610224600081565b3480156103e257600080fd5b5061027e6103f1366004611d7d565b610a6e565b34801561040257600080fd5b5061027e610411366004611e8d565b610b46565b34801561042257600080fd5b5061027e610431366004611d98565b610c2f565b34801561044257600080fd5b5061027e610451366004611f55565b610d9f565b34801561046257600080fd5b50610224610471366004611d7d565b610dc5565b34801561048257600080fd5b50610224610491366004611eb7565b610e3e565b3480156104a257600080fd5b506102247f189ab7a9244df0848122154315af71fe140f3db0fe014031783b0946b8c9d2e381565b60006001600160e01b03198216637965db0b60e01b14806104fb57506301ffc9a760e01b6001600160e01b03198316145b92915050565b61012f5461012e5460408051635f1a071960e11b81529051600093926001600160a01b03169163be340e32916004808301926020929190829003018186803b15801561054c57600080fd5b505afa158015610560573d6000803e3d6000fd5b505050506040513d601f19601f820116820180604052508101906105849190611f3c565b61012e546040516370a0823160e01b81523060048201526001600160a01b03909116906370a082319060240160206040518083038186803b1580156105c857600080fd5b505afa1580156105dc573d6000803e3d6000fd5b505050506040513d601f19601f820116820180604052508101906106009190611f3c565b61060a91906123a3565b6106149190612293565b905090565b600082815260656020526040902060010154610635813361104f565b61063f83836110b3565b505050565b6001600160a01b03811633146106b95760405162461bcd60e51b815260206004820152602f60248201527f416363657373436f6e74726f6c3a2063616e206f6e6c792072656e6f756e636560448201526e103937b632b9903337b91039b2b63360891b60648201526084015b60405180910390fd5b6106c38282611139565b5050565b306001600160a01b037f00000000000000000000000000000000000000000000000000000000000000001614156107105760405162461bcd60e51b81526004016106b0906120f9565b7f00000000000000000000000000000000000000000000000000000000000000006001600160a01b0316610759600080516020612476833981519152546001600160a01b031690565b6001600160a01b03161461077f5760405162461bcd60e51b81526004016106b090612145565b610788816111a0565b604080516000808252602082019092526107a4918391906111cb565b50565b6107b2600033610a43565b6107ce5760405162461bcd60e51b81526004016106b0906121df565b6001600160a01b0381166107f45760405162461bcd60e51b81526004016106b090612244565b61013080546001600160a01b0319166001600160a01b0383169081179091556040519081527f1afc47707d1eb58a9bec8071fbe394f0839b98fdab4605d10b19afe125b4bacf906020015b60405180910390a150565b306001600160a01b037f00000000000000000000000000000000000000000000000000000000000000001614156108935760405162461bcd60e51b81526004016106b0906120f9565b7f00000000000000000000000000000000000000000000000000000000000000006001600160a01b03166108dc600080516020612476833981519152546001600160a01b031690565b6001600160a01b0316146109025760405162461bcd60e51b81526004016106b090612145565b61090b826111a0565b6106c3828260016111cb565b6000306001600160a01b037f000000000000000000000000000000000000000000000000000000000000000016146109b75760405162461bcd60e51b815260206004820152603860248201527f555550535570677261646561626c653a206d757374206e6f742062652063616c60448201527f6c6564207468726f7567682064656c656761746563616c6c000000000000000060648201526084016106b0565b5060008051602061247683398151915290565b600054610100900460ff166109e55760005460ff16156109e9565b303b155b610a055760405162461bcd60e51b81526004016106b090612191565b600054610100900460ff16158015610a27576000805461ffff19166101011790555b610a2f611345565b80156107a4576000805461ff001916905550565b60009182526065602090815260408084206001600160a01b0393909316845291905290205460ff1690565b610a79600033610a43565b610a955760405162461bcd60e51b81526004016106b0906121df565b6001600160a01b038116610abb5760405162461bcd60e51b81526004016106b090612244565b60fb54610ae090600080516020612456833981519152906001600160a01b0316610d9f565b610af860008051602061245683398151915282610619565b60fb80546001600160a01b0319166001600160a01b0383169081179091556040519081527ff7b449fcd5cfb7379dcd34cb69428dd9f882033b15be33d83b42d91daa28eeb79060200161083f565b610b5e60008051602061245683398151915233610a43565b610b7a5760405162461bcd60e51b81526004016106b0906120c2565b6040518181527f227a473b70d2f893cc7659219575c030a63b5743024fe1e0c1a680e708b1525a9060200160405180910390a16040516370a0823160e01b81523060048201526106c39083906001600160a01b038216906370a082319060240160206040518083038186803b158015610bf257600080fd5b505afa158015610c06573d6000803e3d6000fd5b505050506040513d601f19601f82011682018060405250810190610c2a9190611f3c565b6113e7565b610c3a600033610a43565b610c565760405162461bcd60e51b81526004016106b0906121df565b6001600160a01b038216610c7c5760405162461bcd60e51b81526004016106b090612244565b6001600160a01b038116610ca25760405162461bcd60e51b81526004016106b090612244565b61012d80546001600160a01b038085166001600160a01b03199283161790925561012e805492841692909116821790556040805163313ce56760e01b8152905163313ce56791600480820192602092909190829003018186803b158015610d0857600080fd5b505afa158015610d1c573d6000803e3d6000fd5b505050506040513d601f19601f82011682018060405250810190610d409190611fa2565b610d4b90600a6122f8565b61012f819055604080516001600160a01b0385811682528416602082015280820192909252517fc8d776d3f7aa52410a69757fe25d6d8053cce349819224a2abc90c91c77b35d69181900360600190a15050565b600082815260656020526040902060010154610dbb813361104f565b61063f8383611139565b6000610ddf60008051602061245683398151915233610a43565b610dfb5760405162461bcd60e51b81526004016106b0906120c2565b60007f3ac0594a85a20354f9dc74f33728416d19ce00d04a406c108cc2dcf2cecea13481604051610e2e91815260200190565b60405180910390a190505b919050565b6000610e5860008051602061245683398151915233610a43565b610e745760405162461bcd60e51b81526004016106b0906120c2565b60008215610e8d57610e868685611559565b9050610efc565b610e9886868661173a565b905084811015610efc5760405162461bcd60e51b815260206004820152602960248201527f52657475726e65642076616c7565206c657373207468616e2072657175657374604482015268195908185b5bdd5b9d60ba1b60648201526084016106b0565b6040516370a0823160e01b81523060048201526000906001600160a01b038816906370a082319060240160206040518083038186803b158015610f3e57600080fd5b505afa158015610f52573d6000803e3d6000fd5b505050506040513d601f19601f82011682018060405250810190610f769190611f3c565b60405163a9059cbb60e01b81526001600160a01b038781166004830152602482018390529192509088169063a9059cbb90604401602060405180830381600087803b158015610fc457600080fd5b505af1158015610fd8573d6000803e3d6000fd5b505050506040513d601f19601f82011682018060405250810190610ffc9190611f06565b5060408051878152602081018390527f9045c2ac9b2026de8075f2701bbdde882cd5e830b3b1ead9a15b22f2b5b93742910160405180910390a19695505050505050565b6001600160a01b03163b151590565b6110598282610a43565b6106c357611071816001600160a01b03166014611937565b61107c836020611937565b60405160200161108d929190611fe1565b60408051601f198184030181529082905262461bcd60e51b82526106b09160040161208f565b6110bd8282610a43565b6106c35760008281526065602090815260408083206001600160a01b03851684529091529020805460ff191660011790556110f53390565b6001600160a01b0316816001600160a01b0316837f2f8788117e7eff1d82e926ec794901d17c78024a50270940304540a733656f0d60405160405180910390a45050565b6111438282610a43565b156106c35760008281526065602090815260408083206001600160a01b0385168085529252808320805460ff1916905551339285917ff6391f5c32d9c69d2a47ea670b442974b53935d1edc7fd64eb21e047a839171b9190a45050565b7f189ab7a9244df0848122154315af71fe140f3db0fe014031783b0946b8c9d2e36106c3813361104f565b7f4910fdfa16fed3260ed0e7147f7cc6da11a60208b5b9406d12a635614ffd91435460ff16156111fe5761063f83611ad3565b826001600160a01b03166352d1902d6040518163ffffffff1660e01b815260040160206040518083038186803b15801561123757600080fd5b505afa925050508015611267575060408051601f3d908101601f1916820190925261126491810190611f3c565b60015b6112ca5760405162461bcd60e51b815260206004820152602e60248201527f45524331393637557067726164653a206e657720696d706c656d656e7461746960448201526d6f6e206973206e6f74205555505360901b60648201526084016106b0565b60008051602061247683398151915281146113395760405162461bcd60e51b815260206004820152602960248201527f45524331393637557067726164653a20756e737570706f727465642070726f786044820152681a58589b195555525160ba1b60648201526084016106b0565b5061063f838383611b6f565b600054610100900460ff166113605760005460ff1615611364565b303b155b6113805760405162461bcd60e51b81526004016106b090612191565b600054610100900460ff161580156113a2576000805461ffff19166101011790555b6113aa611b9a565b6113b2611b9a565b6113bd6000336110b3565b610a2f7f189ab7a9244df0848122154315af71fe140f3db0fe014031783b0946b8c9d2e3336110b3565b61012d546001600160a01b038381169116146114155760405162461bcd60e51b81526004016106b09061220d565b61012d546101305460405163095ea7b360e01b81526001600160a01b0391821660048201526024810184905291169063095ea7b390604401602060405180830381600087803b15801561146757600080fd5b505af115801561147b573d6000803e3d6000fd5b505050506040513d601f19601f8201168201806040525081019061149f9190611f06565b506101305461012e546001600160a01b0391821691633c173a4f911683306114c94261025861227b565b6040516001600160e01b031960e087901b1681526001600160a01b0394851660048201526024810193909352921660448201526064810191909152608401602060405180830381600087803b15801561152157600080fd5b505af1158015611535573d6000803e3d6000fd5b505050506040513d601f19601f8201168201806040525081019061063f9190611f3c565b61012d546000906001600160a01b0384811691161461158a5760405162461bcd60e51b81526004016106b09061220d565b61012e546040516370a0823160e01b81523060048201526000916001600160a01b0316906370a082319060240160206040518083038186803b1580156115cf57600080fd5b505afa1580156115e3573d6000803e3d6000fd5b505050506040513d601f19601f820116820180604052508101906116079190611f3c565b61012e546101305460405163095ea7b360e01b81526001600160a01b03918216600482015260248101849052929350169063095ea7b390604401602060405180830381600087803b15801561165b57600080fd5b505af115801561166f573d6000803e3d6000fd5b505050506040513d601f19601f820116820180604052508101906116939190611f06565b506101305461012e546000916001600160a01b0390811691631f1cc5bc911684306116c04261025861227b565b6040518563ffffffff1660e01b81526004016116df9493929190612056565b602060405180830381600087803b1580156116f957600080fd5b505af115801561170d573d6000803e3d6000fd5b505050506040513d601f19601f820116820180604052508101906117319190611f3c565b95945050505050565b61012d546000906001600160a01b0385811691161461176b5760405162461bcd60e51b81526004016106b09061220d565b61012e5460408051635f1a071960e11b815290516000926001600160a01b03169163be340e32916004808301926020929190829003018186803b1580156117b157600080fd5b505afa1580156117c5573d6000803e3d6000fd5b505050506040513d601f19601f820116820180604052508101906117e99190611f3c565b61012f546117f790866123a3565b6118019190612293565b61012e546101305460405163095ea7b360e01b81526001600160a01b03918216600482015260248101849052929350169063095ea7b390604401602060405180830381600087803b15801561185557600080fd5b505af1158015611869573d6000803e3d6000fd5b505050506040513d601f19601f8201168201806040525081019061188d9190611f06565b506101305461012e546000916001600160a01b0390811691631f1cc5bc911684306118ba4261025861227b565b6040518563ffffffff1660e01b81526004016118d99493929190612056565b602060405180830381600087803b1580156118f357600080fd5b505af1158015611907573d6000803e3d6000fd5b505050506040513d601f19601f8201168201806040525081019061192b9190611f3c565b925050505b9392505050565b606060006119468360026123a3565b61195190600261227b565b67ffffffffffffffff81111561196957611969612431565b6040519080825280601f01601f191660200182016040528015611993576020820181803683370190505b509050600360fc1b816000815181106119ae576119ae61241b565b60200101906001600160f81b031916908160001a905350600f60fb1b816001815181106119dd576119dd61241b565b60200101906001600160f81b031916908160001a9053506000611a018460026123a3565b611a0c90600161227b565b90505b6001811115611a84576f181899199a1a9b1b9c1cb0b131b232b360811b85600f1660108110611a4057611a4061241b565b1a60f81b828281518110611a5657611a5661241b565b60200101906001600160f81b031916908160001a90535060049490941c93611a7d816123ee565b9050611a0f565b5083156119305760405162461bcd60e51b815260206004820181905260248201527f537472696e67733a20686578206c656e67746820696e73756666696369656e7460448201526064016106b0565b6001600160a01b0381163b611b405760405162461bcd60e51b815260206004820152602d60248201527f455243313936373a206e657720696d706c656d656e746174696f6e206973206e60448201526c1bdd08184818dbdb9d1c9858dd609a1b60648201526084016106b0565b60008051602061247683398151915280546001600160a01b0319166001600160a01b0392909216919091179055565b611b7883611c07565b600082511180611b855750805b1561063f57611b948383611c47565b50505050565b600054610100900460ff16611c055760405162461bcd60e51b815260206004820152602b60248201527f496e697469616c697a61626c653a20636f6e7472616374206973206e6f74206960448201526a6e697469616c697a696e6760a81b60648201526084016106b0565b565b611c1081611ad3565b6040516001600160a01b038216907fbc7cd75a20ee27fd9adebab32041f755214dbc6bffa90cc0225b39da2e5c2d3b90600090a250565b60606001600160a01b0383163b611caf5760405162461bcd60e51b815260206004820152602660248201527f416464726573733a2064656c65676174652063616c6c20746f206e6f6e2d636f6044820152651b9d1c9858dd60d21b60648201526084016106b0565b600080846001600160a01b031684604051611cca9190611fc5565b600060405180830381855af49150503d8060008114611d05576040519150601f19603f3d011682016040523d82523d6000602084013e611d0a565b606091505b509150915061173182826040518060600160405280602781526020016124966027913960608315611d3c575081611930565b825115611d4c5782518084602001fd5b8160405162461bcd60e51b81526004016106b0919061208f565b80356001600160a01b0381168114610e3957600080fd5b600060208284031215611d8f57600080fd5b61193082611d66565b60008060408385031215611dab57600080fd5b611db483611d66565b9150611dc260208401611d66565b90509250929050565b60008060408385031215611dde57600080fd5b611de783611d66565b9150602083013567ffffffffffffffff80821115611e0457600080fd5b818501915085601f830112611e1857600080fd5b813581811115611e2a57611e2a612431565b604051601f8201601f19908116603f01168101908382118183101715611e5257611e52612431565b81604052828152886020848701011115611e6b57600080fd5b8260208601602083013760006020848301015280955050505050509250929050565b60008060408385031215611ea057600080fd5b611ea983611d66565b946020939093013593505050565b60008060008060808587031215611ecd57600080fd5b611ed685611d66565b935060208501359250611eeb60408601611d66565b91506060850135611efb81612447565b939692955090935050565b600060208284031215611f1857600080fd5b815161193081612447565b600060208284031215611f3557600080fd5b5035919050565b600060208284031215611f4e57600080fd5b5051919050565b60008060408385031215611f6857600080fd5b82359150611dc260208401611d66565b600060208284031215611f8a57600080fd5b81356001600160e01b03198116811461193057600080fd5b600060208284031215611fb457600080fd5b815160ff8116811461193057600080fd5b60008251611fd78184602087016123c2565b9190910192915050565b7f416363657373436f6e74726f6c3a206163636f756e74200000000000000000008152600083516120198160178501602088016123c2565b7001034b99036b4b9b9b4b733903937b6329607d1b601791840191820152835161204a8160288401602088016123c2565b01602801949350505050565b6001600160a01b039485168152602081019390935292166040820152606081019190915260a06080820181905260009082015260c00190565b60208152600082518060208401526120ae8160408501602087016123c2565b601f01601f19169190910160400192915050565b6020808252601f908201527f5265737472696374656420746f20504f5254464f4c494f5f4d414e4147455200604082015260600190565b6020808252602c908201527f46756e6374696f6e206d7573742062652063616c6c6564207468726f7567682060408201526b19195b1959d85d1958d85b1b60a21b606082015260800190565b6020808252602c908201527f46756e6374696f6e206d7573742062652063616c6c6564207468726f7567682060408201526b6163746976652070726f787960a01b606082015260800190565b6020808252602e908201527f496e697469616c697a61626c653a20636f6e747261637420697320616c72656160408201526d191e481a5b9a5d1a585b1a5e995960921b606082015260800190565b6020808252601490820152735265737472696374656420746f2061646d696e7360601b604082015260600190565b60208082526019908201527f536f6d6520746f6b656e206e6f7420636f6d70617469626c6500000000000000604082015260600190565b60208082526018908201527f5a65726f2061646472657373206e6f7420616c6c6f7765640000000000000000604082015260600190565b6000821982111561228e5761228e612405565b500190565b6000826122b057634e487b7160e01b600052601260045260246000fd5b500490565b600181815b808511156122f05781600019048211156122d6576122d6612405565b808516156122e357918102915b93841c93908002906122ba565b509250929050565b600061193060ff841683600082612311575060016104fb565b8161231e575060006104fb565b8160018114612334576002811461233e5761235a565b60019150506104fb565b60ff84111561234f5761234f612405565b50506001821b6104fb565b5060208310610133831016604e8410600b841016171561237d575081810a6104fb565b61238783836122b5565b806000190482111561239b5761239b612405565b029392505050565b60008160001904831182151516156123bd576123bd612405565b500290565b60005b838110156123dd5781810151838201526020016123c5565b83811115611b945750506000910152565b6000816123fd576123fd612405565b506000190190565b634e487b7160e01b600052601160045260246000fd5b634e487b7160e01b600052603260045260246000fd5b634e487b7160e01b600052604160045260246000fd5b80151581146107a457600080fdfe90c2aa7471c04182221f68e80c07ab1e5946e4c63f8693e14ca40385d529f051360894a13ba1a3210667c828492db98dca3e2076cc3735a920a3ca505d382bbc416464726573733a206c6f772d6c6576656c2064656c65676174652063616c6c206661696c6564a2646970667358221220bd933d67d3248a459e758e6248e99520747867cd208150c1399c84f909230bc264736f6c63430008060033",
  "devdoc": {
    "kind": "dev",
    "methods": {
      "constructor": {
        "custom:oz-upgrades-unsafe-allow": "constructor"
      },
      "getRoleAdmin(bytes32)": {
        "details": "Returns the admin role that controls `role`. See {grantRole} and {revokeRole}. To change a role's admin, use {_setRoleAdmin}."
      },
      "grantRole(bytes32,address)": {
        "details": "Grants `role` to `account`. If `account` had not been already granted `role`, emits a {RoleGranted} event. Requirements: - the caller must have ``role``'s admin role."
      },
      "hasRole(bytes32,address)": {
        "details": "Returns `true` if `account` has been granted `role`."
      },
      "proxiableUUID()": {
        "details": "Implementation of the ERC1822 {proxiableUUID} function. This returns the storage slot used by the implementation. It is used to validate that the this implementation remains valid after an upgrade. IMPORTANT: A proxy pointing at a proxiable contract should not be considered proxiable itself, because this risks bricking a proxy that upgrades to it, by delegating to itself until out of gas. Thus it is critical that this function revert if invoked through a proxy. This is guaranteed by the `notDelegated` modifier."
      },
      "renounceRole(bytes32,address)": {
        "details": "Revokes `role` from the calling account. Roles are often managed via {grantRole} and {revokeRole}: this function's purpose is to provide a mechanism for accounts to lose their privileges if they are compromised (such as when a trusted device is misplaced). If the calling account had been revoked `role`, emits a {RoleRevoked} event. Requirements: - the caller must be `account`."
      },
      "revokeRole(bytes32,address)": {
        "details": "Revokes `role` from `account`. If `account` had been granted `role`, emits a {RoleRevoked} event. Requirements: - the caller must have ``role``'s admin role."
      },
      "supportsInterface(bytes4)": {
        "details": "See {IERC165-supportsInterface}."
      },
      "upgradeTo(address)": {
        "details": "Upgrade the implementation of the proxy to `newImplementation`. Calls {_authorizeUpgrade}. Emits an {Upgraded} event."
      },
      "upgradeToAndCall(address,bytes)": {
        "details": "Upgrade the implementation of the proxy to `newImplementation`, and subsequently execute the function call encoded in `data`. Calls {_authorizeUpgrade}. Emits an {Upgraded} event."
      }
    },
    "version": 1
  },
  "userdoc": {
    "kind": "user",
    "methods": {},
    "version": 1
  },
  "storageLayout": {
    "storage": [
      {
        "astId": 797,
        "contract": "contracts/StrategyTarotSpookyUsdcFtm.sol:StrategyTarotSpookyUsdcFtm",
        "label": "_initialized",
        "offset": 0,
        "slot": "0",
        "type": "t_bool"
      },
      {
        "astId": 800,
        "contract": "contracts/StrategyTarotSpookyUsdcFtm.sol:StrategyTarotSpookyUsdcFtm",
        "label": "_initializing",
        "offset": 1,
        "slot": "0",
        "type": "t_bool"
      },
      {
        "astId": 1284,
        "contract": "contracts/StrategyTarotSpookyUsdcFtm.sol:StrategyTarotSpookyUsdcFtm",
        "label": "__gap",
        "offset": 0,
        "slot": "1",
        "type": "t_array(t_uint256)50_storage"
      },
      {
        "astId": 1591,
        "contract": "contracts/StrategyTarotSpookyUsdcFtm.sol:StrategyTarotSpookyUsdcFtm",
        "label": "__gap",
        "offset": 0,
        "slot": "51",
        "type": "t_array(t_uint256)50_storage"
      },
      {
        "astId": 39,
        "contract": "contracts/StrategyTarotSpookyUsdcFtm.sol:StrategyTarotSpookyUsdcFtm",
        "label": "_roles",
        "offset": 0,
        "slot": "101",
        "type": "t_mapping(t_bytes32,t_struct(RoleData)34_storage)"
      },
      {
        "astId": 327,
        "contract": "contracts/StrategyTarotSpookyUsdcFtm.sol:StrategyTarotSpookyUsdcFtm",
        "label": "__gap",
        "offset": 0,
        "slot": "102",
        "type": "t_array(t_uint256)49_storage"
      },
      {
        "astId": 779,
        "contract": "contracts/StrategyTarotSpookyUsdcFtm.sol:StrategyTarotSpookyUsdcFtm",
        "label": "__gap",
        "offset": 0,
        "slot": "151",
        "type": "t_array(t_uint256)50_storage"
      },
      {
        "astId": 999,
        "contract": "contracts/StrategyTarotSpookyUsdcFtm.sol:StrategyTarotSpookyUsdcFtm",
        "label": "__gap",
        "offset": 0,
        "slot": "201",
        "type": "t_array(t_uint256)50_storage"
      },
      {
        "astId": 13449,
        "contract": "contracts/StrategyTarotSpookyUsdcFtm.sol:StrategyTarotSpookyUsdcFtm",
        "label": "portfolioManager",
        "offset": 0,
        "slot": "251",
        "type": "t_address"
      },
      {
        "astId": 13727,
        "contract": "contracts/StrategyTarotSpookyUsdcFtm.sol:StrategyTarotSpookyUsdcFtm",
        "label": "__gap",
        "offset": 0,
        "slot": "252",
        "type": "t_array(t_uint256)49_storage"
      },
      {
        "astId": 7831,
        "contract": "contracts/StrategyTarotSpookyUsdcFtm.sol:StrategyTarotSpookyUsdcFtm",
        "label": "usdcToken",
        "offset": 0,
        "slot": "301",
        "type": "t_contract(IERC20)2415"
      },
      {
        "astId": 7834,
        "contract": "contracts/StrategyTarotSpookyUsdcFtm.sol:StrategyTarotSpookyUsdcFtm",
        "label": "bTarotSpookyToken",
        "offset": 0,
        "slot": "302",
        "type": "t_contract(IBorrowable)12198"
      },
      {
        "astId": 7836,
        "contract": "contracts/StrategyTarotSpookyUsdcFtm.sol:StrategyTarotSpookyUsdcFtm",
        "label": "bTarotSpookyTokenDenominator",
        "offset": 0,
        "slot": "303",
        "type": "t_uint256"
      },
      {
        "astId": 7839,
        "contract": "contracts/StrategyTarotSpookyUsdcFtm.sol:StrategyTarotSpookyUsdcFtm",
        "label": "tarotRouter",
        "offset": 0,
        "slot": "304",
        "type": "t_contract(IRouter02)12449"
      }
    ],
    "types": {
      "t_address": {
        "encoding": "inplace",
        "label": "address",
        "numberOfBytes": "20"
      },
      "t_array(t_uint256)49_storage": {
        "base": "t_uint256",
        "encoding": "inplace",
        "label": "uint256[49]",
        "numberOfBytes": "1568"
      },
      "t_array(t_uint256)50_storage": {
        "base": "t_uint256",
        "encoding": "inplace",
        "label": "uint256[50]",
        "numberOfBytes": "1600"
      },
      "t_bool": {
        "encoding": "inplace",
        "label": "bool",
        "numberOfBytes": "1"
      },
      "t_bytes32": {
        "encoding": "inplace",
        "label": "bytes32",
        "numberOfBytes": "32"
      },
      "t_contract(IBorrowable)12198": {
        "encoding": "inplace",
        "label": "contract IBorrowable",
        "numberOfBytes": "20"
      },
      "t_contract(IERC20)2415": {
        "encoding": "inplace",
        "label": "contract IERC20",
        "numberOfBytes": "20"
      },
      "t_contract(IRouter02)12449": {
        "encoding": "inplace",
        "label": "contract IRouter02",
        "numberOfBytes": "20"
      },
      "t_mapping(t_address,t_bool)": {
        "encoding": "mapping",
        "key": "t_address",
        "label": "mapping(address => bool)",
        "numberOfBytes": "32",
        "value": "t_bool"
      },
      "t_mapping(t_bytes32,t_struct(RoleData)34_storage)": {
        "encoding": "mapping",
        "key": "t_bytes32",
        "label": "mapping(bytes32 => struct AccessControlUpgradeable.RoleData)",
        "numberOfBytes": "32",
        "value": "t_struct(RoleData)34_storage"
      },
      "t_struct(RoleData)34_storage": {
        "encoding": "inplace",
        "label": "struct AccessControlUpgradeable.RoleData",
        "members": [
          {
            "astId": 31,
            "contract": "contracts/StrategyTarotSpookyUsdcFtm.sol:StrategyTarotSpookyUsdcFtm",
            "label": "members",
            "offset": 0,
            "slot": "0",
            "type": "t_mapping(t_address,t_bool)"
          },
          {
            "astId": 33,
            "contract": "contracts/StrategyTarotSpookyUsdcFtm.sol:StrategyTarotSpookyUsdcFtm",
            "label": "adminRole",
            "offset": 0,
            "slot": "1",
            "type": "t_bytes32"
          }
        ],
        "numberOfBytes": "64"
      },
      "t_uint256": {
        "encoding": "inplace",
        "label": "uint256",
        "numberOfBytes": "32"
      }
    }
  }
}