{
  "address": "0x12137868aA17d31586F2444e3Cd602279FabE6E8",
  "abi": [
    {
      "inputs": [],
      "stateMutability": "nonpayable",
      "type": "constructor"
    },
    {
      "anonymous": false,
      "inputs": [
        {
          "indexed": false,
          "internalType": "address",
          "name": "previousAdmin",
          "type": "address"
        },
        {
          "indexed": false,
          "internalType": "address",
          "name": "newAdmin",
          "type": "address"
        }
      ],
      "name": "AdminChanged",
      "type": "event"
    },
    {
      "anonymous": false,
      "inputs": [
        {
          "indexed": true,
          "internalType": "address",
          "name": "beacon",
          "type": "address"
        }
      ],
      "name": "BeaconUpgraded",
      "type": "event"
    },
    {
      "anonymous": false,
      "inputs": [
        {
          "indexed": false,
          "internalType": "address",
          "name": "value",
          "type": "address"
        }
      ],
      "name": "PortfolioManagerUpdated",
      "type": "event"
    },
    {
      "anonymous": false,
      "inputs": [
        {
          "indexed": false,
          "internalType": "uint256",
          "name": "amount",
          "type": "uint256"
        }
      ],
      "name": "Reward",
      "type": "event"
    },
    {
      "anonymous": false,
      "inputs": [
        {
          "indexed": true,
          "internalType": "bytes32",
          "name": "role",
          "type": "bytes32"
        },
        {
          "indexed": true,
          "internalType": "bytes32",
          "name": "previousAdminRole",
          "type": "bytes32"
        },
        {
          "indexed": true,
          "internalType": "bytes32",
          "name": "newAdminRole",
          "type": "bytes32"
        }
      ],
      "name": "RoleAdminChanged",
      "type": "event"
    },
    {
      "anonymous": false,
      "inputs": [
        {
          "indexed": true,
          "internalType": "bytes32",
          "name": "role",
          "type": "bytes32"
        },
        {
          "indexed": true,
          "internalType": "address",
          "name": "account",
          "type": "address"
        },
        {
          "indexed": true,
          "internalType": "address",
          "name": "sender",
          "type": "address"
        }
      ],
      "name": "RoleGranted",
      "type": "event"
    },
    {
      "anonymous": false,
      "inputs": [
        {
          "indexed": true,
          "internalType": "bytes32",
          "name": "role",
          "type": "bytes32"
        },
        {
          "indexed": true,
          "internalType": "address",
          "name": "account",
          "type": "address"
        },
        {
          "indexed": true,
          "internalType": "address",
          "name": "sender",
          "type": "address"
        }
      ],
      "name": "RoleRevoked",
      "type": "event"
    },
    {
      "anonymous": false,
      "inputs": [
        {
          "indexed": false,
          "internalType": "uint256",
          "name": "amount",
          "type": "uint256"
        }
      ],
      "name": "Stake",
      "type": "event"
    },
    {
      "anonymous": false,
      "inputs": [
        {
          "indexed": false,
          "internalType": "address",
          "name": "beethovenxVault",
          "type": "address"
        },
        {
          "indexed": false,
          "internalType": "address",
          "name": "beethovenxMasterChef",
          "type": "address"
        },
        {
          "indexed": false,
          "internalType": "bytes32",
          "name": "poolIdUsdcAsUsdc",
          "type": "bytes32"
        },
        {
          "indexed": false,
          "internalType": "bytes32",
          "name": "poolIdBeetsWFtm",
          "type": "bytes32"
        },
        {
          "indexed": false,
          "internalType": "bytes32",
          "name": "poolIdWFtmUsdc",
          "type": "bytes32"
        },
        {
          "indexed": false,
          "internalType": "uint256",
          "name": "pidUsdcAsUsdc",
          "type": "uint256"
        }
      ],
      "name": "StrategyBalancerUpdatedParams",
      "type": "event"
    },
    {
      "anonymous": false,
      "inputs": [
        {
          "indexed": false,
          "internalType": "address",
          "name": "usdcToken",
          "type": "address"
        },
        {
          "indexed": false,
          "internalType": "address",
          "name": "bptUsdcAsUsdcToken",
          "type": "address"
        },
        {
          "indexed": false,
          "internalType": "address",
          "name": "beetsToken",
          "type": "address"
        },
        {
          "indexed": false,
          "internalType": "address",
          "name": "wFtmToken",
          "type": "address"
        },
        {
          "indexed": false,
          "internalType": "uint256",
          "name": "usdcTokenDenominator",
          "type": "uint256"
        },
        {
          "indexed": false,
          "internalType": "uint256",
          "name": "asUsdcTokenDenominator",
          "type": "uint256"
        },
        {
          "indexed": false,
          "internalType": "address",
          "name": "asUsdcToken",
          "type": "address"
        }
      ],
      "name": "StrategyBalancerUpdatedTokens",
      "type": "event"
    },
    {
      "anonymous": false,
      "inputs": [
        {
          "indexed": false,
          "internalType": "uint256",
          "name": "amount",
          "type": "uint256"
        },
        {
          "indexed": false,
          "internalType": "uint256",
          "name": "amountReceived",
          "type": "uint256"
        }
      ],
      "name": "Unstake",
      "type": "event"
    },
    {
      "anonymous": false,
      "inputs": [
        {
          "indexed": true,
          "internalType": "address",
          "name": "implementation",
          "type": "address"
        }
      ],
      "name": "Upgraded",
      "type": "event"
    },
    {
      "inputs": [],
      "name": "BASIS_POINTS_FOR_SLIPPAGE",
      "outputs": [
        {
          "internalType": "uint256",
          "name": "",
          "type": "uint256"
        }
      ],
      "stateMutability": "view",
      "type": "function"
    },
    {
      "inputs": [],
      "name": "DEFAULT_ADMIN_ROLE",
      "outputs": [
        {
          "internalType": "bytes32",
          "name": "",
          "type": "bytes32"
        }
      ],
      "stateMutability": "view",
      "type": "function"
    },
    {
      "inputs": [],
      "name": "MAX_VALUE",
      "outputs": [
        {
          "internalType": "int256",
          "name": "",
          "type": "int256"
        }
      ],
      "stateMutability": "view",
      "type": "function"
    },
    {
      "inputs": [],
      "name": "PORTFOLIO_MANAGER",
      "outputs": [
        {
          "internalType": "bytes32",
          "name": "",
          "type": "bytes32"
        }
      ],
      "stateMutability": "view",
      "type": "function"
    },
    {
      "inputs": [],
      "name": "UPGRADER_ROLE",
      "outputs": [
        {
          "internalType": "bytes32",
          "name": "",
          "type": "bytes32"
        }
      ],
      "stateMutability": "view",
      "type": "function"
    },
    {
      "inputs": [],
      "name": "asUsdcToken",
      "outputs": [
        {
          "internalType": "contract IERC20",
          "name": "",
          "type": "address"
        }
      ],
      "stateMutability": "view",
      "type": "function"
    },
    {
      "inputs": [],
      "name": "asUsdcTokenDenominator",
      "outputs": [
        {
          "internalType": "uint256",
          "name": "",
          "type": "uint256"
        }
      ],
      "stateMutability": "view",
      "type": "function"
    },
    {
      "inputs": [],
      "name": "beethovenxMasterChef",
      "outputs": [
        {
          "internalType": "contract BeethovenxMasterChef",
          "name": "",
          "type": "address"
        }
      ],
      "stateMutability": "view",
      "type": "function"
    },
    {
      "inputs": [],
      "name": "beethovenxVault",
      "outputs": [
        {
          "internalType": "contract IVault",
          "name": "",
          "type": "address"
        }
      ],
      "stateMutability": "view",
      "type": "function"
    },
    {
      "inputs": [],
      "name": "beetsToken",
      "outputs": [
        {
          "internalType": "contract IERC20",
          "name": "",
          "type": "address"
        }
      ],
      "stateMutability": "view",
      "type": "function"
    },
    {
      "inputs": [],
      "name": "bptUsdcAsUsdcToken",
      "outputs": [
        {
          "internalType": "contract IERC20",
          "name": "",
          "type": "address"
        }
      ],
      "stateMutability": "view",
      "type": "function"
    },
    {
      "inputs": [
        {
          "internalType": "address",
          "name": "_to",
          "type": "address"
        }
      ],
      "name": "claimRewards",
      "outputs": [
        {
          "internalType": "uint256",
          "name": "",
          "type": "uint256"
        }
      ],
      "stateMutability": "nonpayable",
      "type": "function"
    },
    {
      "inputs": [
        {
          "internalType": "bytes32",
          "name": "role",
          "type": "bytes32"
        }
      ],
      "name": "getRoleAdmin",
      "outputs": [
        {
          "internalType": "bytes32",
          "name": "",
          "type": "bytes32"
        }
      ],
      "stateMutability": "view",
      "type": "function"
    },
    {
      "inputs": [
        {
          "internalType": "bytes32",
          "name": "role",
          "type": "bytes32"
        },
        {
          "internalType": "address",
          "name": "account",
          "type": "address"
        }
      ],
      "name": "grantRole",
      "outputs": [],
      "stateMutability": "nonpayable",
      "type": "function"
    },
    {
      "inputs": [
        {
          "internalType": "bytes32",
          "name": "role",
          "type": "bytes32"
        },
        {
          "internalType": "address",
          "name": "account",
          "type": "address"
        }
      ],
      "name": "hasRole",
      "outputs": [
        {
          "internalType": "bool",
          "name": "",
          "type": "bool"
        }
      ],
      "stateMutability": "view",
      "type": "function"
    },
    {
      "inputs": [],
      "name": "initialize",
      "outputs": [],
      "stateMutability": "nonpayable",
      "type": "function"
    },
    {
      "inputs": [],
      "name": "liquidationValue",
      "outputs": [
        {
          "internalType": "uint256",
          "name": "",
          "type": "uint256"
        }
      ],
      "stateMutability": "view",
      "type": "function"
    },
    {
      "inputs": [],
      "name": "netAssetValue",
      "outputs": [
        {
          "internalType": "uint256",
          "name": "",
          "type": "uint256"
        }
      ],
      "stateMutability": "view",
      "type": "function"
    },
    {
      "inputs": [],
      "name": "pidUsdcAsUsdc",
      "outputs": [
        {
          "internalType": "uint256",
          "name": "",
          "type": "uint256"
        }
      ],
      "stateMutability": "view",
      "type": "function"
    },
    {
      "inputs": [],
      "name": "poolIdBeetsWFtm",
      "outputs": [
        {
          "internalType": "bytes32",
          "name": "",
          "type": "bytes32"
        }
      ],
      "stateMutability": "view",
      "type": "function"
    },
    {
      "inputs": [],
      "name": "poolIdUsdcAsUsdc",
      "outputs": [
        {
          "internalType": "bytes32",
          "name": "",
          "type": "bytes32"
        }
      ],
      "stateMutability": "view",
      "type": "function"
    },
    {
      "inputs": [],
      "name": "poolIdWFtmUsdc",
      "outputs": [
        {
          "internalType": "bytes32",
          "name": "",
          "type": "bytes32"
        }
      ],
      "stateMutability": "view",
      "type": "function"
    },
    {
      "inputs": [],
      "name": "portfolioManager",
      "outputs": [
        {
          "internalType": "address",
          "name": "",
          "type": "address"
        }
      ],
      "stateMutability": "view",
      "type": "function"
    },
    {
      "inputs": [],
      "name": "proxiableUUID",
      "outputs": [
        {
          "internalType": "bytes32",
          "name": "",
          "type": "bytes32"
        }
      ],
      "stateMutability": "view",
      "type": "function"
    },
    {
      "inputs": [
        {
          "internalType": "bytes32",
          "name": "role",
          "type": "bytes32"
        },
        {
          "internalType": "address",
          "name": "account",
          "type": "address"
        }
      ],
      "name": "renounceRole",
      "outputs": [],
      "stateMutability": "nonpayable",
      "type": "function"
    },
    {
      "inputs": [
        {
          "internalType": "bytes32",
          "name": "role",
          "type": "bytes32"
        },
        {
          "internalType": "address",
          "name": "account",
          "type": "address"
        }
      ],
      "name": "revokeRole",
      "outputs": [],
      "stateMutability": "nonpayable",
      "type": "function"
    },
    {
      "inputs": [
        {
          "internalType": "address",
          "name": "_beethovenxVault",
          "type": "address"
        },
        {
          "internalType": "address",
          "name": "_beethovenxMasterChef",
          "type": "address"
        },
        {
          "internalType": "bytes32",
          "name": "_poolIdUsdcAsUsdc",
          "type": "bytes32"
        },
        {
          "internalType": "bytes32",
          "name": "_poolIdBeetsWFtm",
          "type": "bytes32"
        },
        {
          "internalType": "bytes32",
          "name": "_poolIdWFtmUsdc",
          "type": "bytes32"
        },
        {
          "internalType": "uint256",
          "name": "_pidUsdcAsUsdc",
          "type": "uint256"
        }
      ],
      "name": "setParams",
      "outputs": [],
      "stateMutability": "nonpayable",
      "type": "function"
    },
    {
      "inputs": [
        {
          "internalType": "address",
          "name": "_value",
          "type": "address"
        }
      ],
      "name": "setPortfolioManager",
      "outputs": [],
      "stateMutability": "nonpayable",
      "type": "function"
    },
    {
      "inputs": [
        {
          "internalType": "address",
          "name": "_usdcToken",
          "type": "address"
        },
        {
          "internalType": "address",
          "name": "_bptUsdcAsUsdcToken",
          "type": "address"
        },
        {
          "internalType": "address",
          "name": "_beetsToken",
          "type": "address"
        },
        {
          "internalType": "address",
          "name": "_wFtmToken",
          "type": "address"
        },
        {
          "internalType": "address",
          "name": "_asUsdcToken",
          "type": "address"
        }
      ],
      "name": "setTokens",
      "outputs": [],
      "stateMutability": "nonpayable",
      "type": "function"
    },
    {
      "inputs": [
        {
          "internalType": "address",
          "name": "_asset",
          "type": "address"
        },
        {
          "internalType": "uint256",
          "name": "_amount",
          "type": "uint256"
        }
      ],
      "name": "stake",
      "outputs": [],
      "stateMutability": "nonpayable",
      "type": "function"
    },
    {
      "inputs": [
        {
          "internalType": "bytes4",
          "name": "interfaceId",
          "type": "bytes4"
        }
      ],
      "name": "supportsInterface",
      "outputs": [
        {
          "internalType": "bool",
          "name": "",
          "type": "bool"
        }
      ],
      "stateMutability": "view",
      "type": "function"
    },
    {
      "inputs": [
        {
          "internalType": "address",
          "name": "_asset",
          "type": "address"
        },
        {
          "internalType": "uint256",
          "name": "_amount",
          "type": "uint256"
        },
        {
          "internalType": "address",
          "name": "_beneficiary",
          "type": "address"
        },
        {
          "internalType": "bool",
          "name": "_targetIsZero",
          "type": "bool"
        }
      ],
      "name": "unstake",
      "outputs": [
        {
          "internalType": "uint256",
          "name": "",
          "type": "uint256"
        }
      ],
      "stateMutability": "nonpayable",
      "type": "function"
    },
    {
      "inputs": [
        {
          "internalType": "address",
          "name": "newImplementation",
          "type": "address"
        }
      ],
      "name": "upgradeTo",
      "outputs": [],
      "stateMutability": "nonpayable",
      "type": "function"
    },
    {
      "inputs": [
        {
          "internalType": "address",
          "name": "newImplementation",
          "type": "address"
        },
        {
          "internalType": "bytes",
          "name": "data",
          "type": "bytes"
        }
      ],
      "name": "upgradeToAndCall",
      "outputs": [],
      "stateMutability": "payable",
      "type": "function"
    },
    {
      "inputs": [],
      "name": "usdcToken",
      "outputs": [
        {
          "internalType": "contract IERC20",
          "name": "",
          "type": "address"
        }
      ],
      "stateMutability": "view",
      "type": "function"
    },
    {
      "inputs": [],
      "name": "usdcTokenDenominator",
      "outputs": [
        {
          "internalType": "uint256",
          "name": "",
          "type": "uint256"
        }
      ],
      "stateMutability": "view",
      "type": "function"
    },
    {
      "inputs": [],
      "name": "wFtmToken",
      "outputs": [
        {
          "internalType": "contract IERC20",
          "name": "",
          "type": "address"
        }
      ],
      "stateMutability": "view",
      "type": "function"
    }
  ],
  "numDeployments": 1,
  "solcInputHash": "9bfe2bd245d30e329e9ec43ca0cf3846",
  "bytecode": "0x60a06040523060601b6080523480156200001857600080fd5b50600054610100900460ff16620000365760005460ff161562000040565b62000040620000e5565b620000a85760405162461bcd60e51b815260206004820152602e60248201527f496e697469616c697a61626c653a20636f6e747261637420697320616c72656160448201526d191e481a5b9a5d1a585b1a5e995960921b606482015260840160405180910390fd5b600054610100900460ff16158015620000cb576000805461ffff19166101011790555b8015620000de576000805461ff00191690555b5062000112565b6000620000fd306200010360201b620013a51760201c565b15905090565b6001600160a01b03163b151590565b60805160601c61479b6200014d60003960008181610abf01528181610aff01528181610b9f01528181610bdf0152610c6e015261479b6000f3fe60806040526004361061021a5760003560e01c80638129fc1c11610123578063c0959b2e116100ab578063ef5cfb8c1161006f578063ef5cfb8c146105ef578063f664b3d91461060f578063f6f6b88114610624578063f72c0d8b14610644578063f963f9171461067857600080fd5b8063c0959b2e14610556578063c44c40e314610576578063d0e23e8814610597578063d547741f146105b8578063e7ac903b146105d857600080fd5b8063a43a62cf116100f2578063a43a62cf146104bd578063a440b21a146104de578063adc9772e146104fe578063af4fc2391461051e578063bfb2a94e1461053557600080fd5b80638129fc1c1461047357806391d1485414610488578063a217fddf146104a8578063a3673b381461035c57600080fd5b80632f2ff15d116101a657806352d1902d1161017557806352d1902d146103e4578063620b75df146103f957806367a16aa5146104195780637d5f58021461043a5780637d6295ef1461045c57600080fd5b80632f2ff15d1461037157806336568abe146103915780633659cfe6146103b15780634f1ef286146103d157600080fd5b806311eac855116101ed57806311eac855146102bb578063145def69146102f4578063146a4d2b1461030b578063248a9ca31461032c5780632576e65a1461035c57600080fd5b806301ffc9a71461021f578063063bde241461025457806306da3f2e146102825780630fc55bfd14610299575b600080fd5b34801561022b57600080fd5b5061023f61023a366004613d79565b61068f565b60405190151581526020015b60405180910390f35b34801561026057600080fd5b506102746b033b2e3c9fd0803ce800000081565b60405190815260200161024b565b34801561028e57600080fd5b506102746101645481565b3480156102a557600080fd5b506102b96102b4366004613969565b6106c6565b005b3480156102c757600080fd5b5061015f546102dc906001600160a01b031681565b6040516001600160a01b03909116815260200161024b565b34801561030057600080fd5b506102746101685481565b34801561031757600080fd5b50610166546102dc906001600160a01b031681565b34801561033857600080fd5b50610274610347366004613d22565b60009081526065602052604090206001015490565b34801561036857600080fd5b50610274610960565b34801561037d57600080fd5b506102b961038c366004613d54565b610a0b565b34801561039d57600080fd5b506102b96103ac366004613d54565b610a36565b3480156103bd57600080fd5b506102b96103cc36600461394c565b610ab4565b6102b96103df366004613a33565b610b94565b3480156103f057600080fd5b50610274610c61565b34801561040557600080fd5b5060fb546102dc906001600160a01b031681565b34801561042557600080fd5b50610162546102dc906001600160a01b031681565b34801561044657600080fd5b506102746000805160206146ff83398151915281565b34801561046857600080fd5b506102746101695481565b34801561047f57600080fd5b506102b9610d14565b34801561049457600080fd5b5061023f6104a3366004613d54565b610d8d565b3480156104b457600080fd5b50610274600081565b3480156104c957600080fd5b50610160546102dc906001600160a01b031681565b3480156104ea57600080fd5b506102b96104f936600461394c565b610db8565b34801561050a57600080fd5b506102b9610519366004613b19565b610e96565b34801561052a57600080fd5b5061027461016b5481565b34801561054157600080fd5b50610167546102dc906001600160a01b031681565b34801561056257600080fd5b506102b96105713660046139da565b610f7f565b34801561058257600080fd5b50610161546102dc906001600160a01b031681565b3480156105a357600080fd5b50610163546102dc906001600160a01b031681565b3480156105c457600080fd5b506102b96105d3366004613d54565b6110fb565b3480156105e457600080fd5b5061027461016a5481565b3480156105fb57600080fd5b5061027461060a36600461394c565b611121565b34801561061b57600080fd5b50610274600481565b34801561063057600080fd5b5061027461063f366004613b45565b6111a3565b34801561065057600080fd5b506102747f189ab7a9244df0848122154315af71fe140f3db0fe014031783b0946b8c9d2e381565b34801561068457600080fd5b506102746101655481565b60006001600160e01b03198216637965db0b60e01b14806106c057506301ffc9a760e01b6001600160e01b03198316145b92915050565b6106d1600033610d8d565b6106f65760405162461bcd60e51b81526004016106ed906142ce565b60405180910390fd5b6001600160a01b03851661071c5760405162461bcd60e51b81526004016106ed9061436a565b6001600160a01b0384166107425760405162461bcd60e51b81526004016106ed9061436a565b6001600160a01b0383166107685760405162461bcd60e51b81526004016106ed9061436a565b6001600160a01b03821661078e5760405162461bcd60e51b81526004016106ed9061436a565b61015f80546001600160a01b038088166001600160a01b031992831681179093556101608054888316908416179055610161805487831690841617905561016280548683169084161790556101638054918516919092161790556040805163313ce56760e01b8152905163313ce56791600480820192602092909190829003018186803b15801561081e57600080fd5b505afa158015610832573d6000803e3d6000fd5b505050506040513d601f19601f820116820180604052508101906108569190613dc7565b61086190600a614506565b61016481905550806001600160a01b031663313ce5676040518163ffffffff1660e01b815260040160206040518083038186803b1580156108a157600080fd5b505afa1580156108b5573d6000803e3d6000fd5b505050506040513d601f19601f820116820180604052508101906108d99190613dc7565b6108e490600a614506565b61016581905561016454604080516001600160a01b0389811682528881166020830152878116828401528681166060830152608082019390935260a081019390935290831660c0830152517fa3a8adb0333a2f292df3a2291e20577272b9c603634a501cafdabb6872d38bd29181900360e00190a15050505050565b6101675461016b546040516393f1a40b60e01b8152600481019190915230602482015260009182916001600160a01b03909116906393f1a40b90604401604080518083038186803b1580156109b457600080fd5b505afa1580156109c8573d6000803e3d6000fd5b505050506040513d601f19601f820116820180604052508101906109ec9190613da3565b509050806109fc57600091505090565b610a05816113b4565b91505090565b600082815260656020526040902060010154610a2781336115c6565b610a31838361162a565b505050565b6001600160a01b0381163314610aa65760405162461bcd60e51b815260206004820152602f60248201527f416363657373436f6e74726f6c3a2063616e206f6e6c792072656e6f756e636560448201526e103937b632b9903337b91039b2b63360891b60648201526084016106ed565b610ab082826116b0565b5050565b306001600160a01b037f0000000000000000000000000000000000000000000000000000000000000000161415610afd5760405162461bcd60e51b81526004016106ed906141e8565b7f00000000000000000000000000000000000000000000000000000000000000006001600160a01b0316610b4660008051602061471f833981519152546001600160a01b031690565b6001600160a01b031614610b6c5760405162461bcd60e51b81526004016106ed90614234565b610b7581611717565b60408051600080825260208201909252610b9191839190611742565b50565b306001600160a01b037f0000000000000000000000000000000000000000000000000000000000000000161415610bdd5760405162461bcd60e51b81526004016106ed906141e8565b7f00000000000000000000000000000000000000000000000000000000000000006001600160a01b0316610c2660008051602061471f833981519152546001600160a01b031690565b6001600160a01b031614610c4c5760405162461bcd60e51b81526004016106ed90614234565b610c5582611717565b610ab082826001611742565b6000306001600160a01b037f00000000000000000000000000000000000000000000000000000000000000001614610d015760405162461bcd60e51b815260206004820152603860248201527f555550535570677261646561626c653a206d757374206e6f742062652063616c60448201527f6c6564207468726f7567682064656c656761746563616c6c000000000000000060648201526084016106ed565b5060008051602061471f83398151915290565b600054610100900460ff16610d2f5760005460ff1615610d33565b303b155b610d4f5760405162461bcd60e51b81526004016106ed90614280565b600054610100900460ff16158015610d71576000805461ffff19166101011790555b610d796118bc565b8015610b91576000805461ff001916905550565b60009182526065602090815260408084206001600160a01b0393909316845291905290205460ff1690565b610dc3600033610d8d565b610ddf5760405162461bcd60e51b81526004016106ed906142ce565b6001600160a01b038116610e055760405162461bcd60e51b81526004016106ed9061436a565b60fb54610e2a906000805160206146ff833981519152906001600160a01b03166110fb565b610e426000805160206146ff83398151915282610a0b565b60fb80546001600160a01b0319166001600160a01b0383169081179091556040519081527ff7b449fcd5cfb7379dcd34cb69428dd9f882033b15be33d83b42d91daa28eeb79060200160405180910390a150565b610eae6000805160206146ff83398151915233610d8d565b610eca5760405162461bcd60e51b81526004016106ed906141b1565b6040518181527f227a473b70d2f893cc7659219575c030a63b5743024fe1e0c1a680e708b1525a9060200160405180910390a16040516370a0823160e01b8152306004820152610ab09083906001600160a01b038216906370a082319060240160206040518083038186803b158015610f4257600080fd5b505afa158015610f56573d6000803e3d6000fd5b505050506040513d601f19601f82011682018060405250810190610f7a9190613d3b565b61195e565b610f8a600033610d8d565b610fa65760405162461bcd60e51b81526004016106ed906142ce565b6001600160a01b038616610fcc5760405162461bcd60e51b81526004016106ed9061436a565b6001600160a01b038516610ff25760405162461bcd60e51b81526004016106ed9061436a565b8361100f5760405162461bcd60e51b81526004016106ed90614333565b8261102c5760405162461bcd60e51b81526004016106ed90614333565b816110495760405162461bcd60e51b81526004016106ed90614333565b61012d80546001600160a01b038881166001600160a01b031992831681179093556101668054831684179055610167805490921690881690811790915561016886905561016985905561016a84905561016b839055604080519283526020830191909152818101869052606082018590526080820184905260a08201839052517fd130a2da455bb09d7dcd8e756e8c788b3a37e9967f552a13835ff2a297050ddb9181900360c00190a1505050505050565b60008281526065602052604090206001015461111781336115c6565b610a3183836116b0565b600061113b6000805160206146ff83398151915233610d8d565b6111575760405162461bcd60e51b81526004016106ed906141b1565b600061116283611e63565b90507f3ac0594a85a20354f9dc74f33728416d19ce00d04a406c108cc2dcf2cecea1348160405161119591815260200190565b60405180910390a192915050565b60006111bd6000805160206146ff83398151915233610d8d565b6111d95760405162461bcd60e51b81526004016106ed906141b1565b600082156111f2576111eb86856120ae565b9050611261565b6111fd8686866124e7565b9050848110156112615760405162461bcd60e51b815260206004820152602960248201527f52657475726e65642076616c7565206c657373207468616e2072657175657374604482015268195908185b5bdd5b9d60ba1b60648201526084016106ed565b6040516370a0823160e01b81523060048201526000906001600160a01b038816906370a082319060240160206040518083038186803b1580156112a357600080fd5b505afa1580156112b7573d6000803e3d6000fd5b505050506040513d601f19601f820116820180604052508101906112db9190613d3b565b60405163a9059cbb60e01b81526001600160a01b038781166004830152602482018390529192509088169063a9059cbb90604401602060405180830381600087803b15801561132957600080fd5b505af115801561133d573d6000803e3d6000fd5b505050506040513d601f19601f820116820180604052508101906113619190613d05565b5060408051878152602081018390527f9045c2ac9b2026de8075f2701bbdde882cd5e830b3b1ead9a15b22f2b5b93742910160405180910390a19695505050505050565b6001600160a01b03163b151590565b60008061016060009054906101000a90046001600160a01b03166001600160a01b03166318160ddd6040518163ffffffff1660e01b815260040160206040518083038186803b15801561140657600080fd5b505afa15801561141a573d6000803e3d6000fd5b505050506040513d601f19601f8201168201806040525081019061143e9190613d3b565b6101665461016854604051631f29a8cd60e31b8152929350600092839283926001600160a01b039091169163f94d46689161147f9160040190815260200190565b60006040518083038186803b15801561149757600080fd5b505afa1580156114ab573d6000803e3d6000fd5b505050506040513d6000823e601f3d908101601f191682016040526114d39190810190613b98565b509150915060005b82518110156115bb57600085888484815181106114fa576114fa6146af565b602002602001015161150c91906145b2565b6115169190614495565b61015f5485519192506001600160a01b03169085908490811061153b5761153b6146af565b60200260200101516001600160a01b03161461159b5761158a61016854600086858151811061156c5761156c6146af565b602090810291909101015161015f546001600160a01b0316856129e6565b611594908661447d565b94506115a8565b6115a5818661447d565b94505b50806115b38161462b565b9150506114db565b509195945050505050565b6115d08282610d8d565b610ab0576115e8816001600160a01b03166014612ec7565b6115f3836020612ec7565b604051602001611604929190613fde565b60408051601f198184030181529082905262461bcd60e51b82526106ed9160040161419e565b6116348282610d8d565b610ab05760008281526065602090815260408083206001600160a01b03851684529091529020805460ff1916600117905561166c3390565b6001600160a01b0316816001600160a01b0316837f2f8788117e7eff1d82e926ec794901d17c78024a50270940304540a733656f0d60405160405180910390a45050565b6116ba8282610d8d565b15610ab05760008281526065602090815260408083206001600160a01b0385168085529252808320805460ff1916905551339285917ff6391f5c32d9c69d2a47ea670b442974b53935d1edc7fd64eb21e047a839171b9190a45050565b7f189ab7a9244df0848122154315af71fe140f3db0fe014031783b0946b8c9d2e3610ab081336115c6565b7f4910fdfa16fed3260ed0e7147f7cc6da11a60208b5b9406d12a635614ffd91435460ff161561177557610a3183613063565b826001600160a01b03166352d1902d6040518163ffffffff1660e01b815260040160206040518083038186803b1580156117ae57600080fd5b505afa9250505080156117de575060408051601f3d908101601f191682019092526117db91810190613d3b565b60015b6118415760405162461bcd60e51b815260206004820152602e60248201527f45524331393637557067726164653a206e657720696d706c656d656e7461746960448201526d6f6e206973206e6f74205555505360901b60648201526084016106ed565b60008051602061471f83398151915281146118b05760405162461bcd60e51b815260206004820152602960248201527f45524331393637557067726164653a20756e737570706f727465642070726f786044820152681a58589b195555525160ba1b60648201526084016106ed565b50610a318383836130ff565b600054610100900460ff166118d75760005460ff16156118db565b303b155b6118f75760405162461bcd60e51b81526004016106ed90614280565b600054610100900460ff16158015611919576000805461ffff19166101011790555b61192161312a565b61192961312a565b61193460003361162a565b610d797f189ab7a9244df0848122154315af71fe140f3db0fe014031783b0946b8c9d2e33361162a565b61015f546001600160a01b0383811691161461198c5760405162461bcd60e51b81526004016106ed906142fc565b61015f546101665460405163095ea7b360e01b81526001600160a01b0391821660048201526024810184905291169063095ea7b390604401602060405180830381600087803b1580156119de57600080fd5b505af11580156119f2573d6000803e3d6000fd5b505050506040513d601f19601f82011682018060405250810190611a169190613d05565b506101665461016854604051631f29a8cd60e31b815260048101919091526000916001600160a01b03169063f94d46689060240160006040518083038186803b158015611a6257600080fd5b505afa158015611a76573d6000803e3d6000fd5b505050506040513d6000823e601f3d908101601f19168201604052611a9e9190810190613b98565b5050604080516002808252606082018352929350600092909160208301908036833750506040805160028082526060820183529394506000939092509060208301908036833750506040805160028082526060820183529394506000939092509060208301908036833701905050905060005b8451811015611c2457848181518110611b2c57611b2c6146af565b6020026020010151848281518110611b4657611b466146af565b6001600160a01b03928316602091820292909201015261015f548651911690869083908110611b7757611b776146af565b60200260200101516001600160a01b03161415611bd15785838281518110611ba157611ba16146af565b60200260200101818152505085828281518110611bc057611bc06146af565b602002602001018181525050611c12565b6000838281518110611be557611be56146af565b6020026020010181815250506000828281518110611c0557611c056146af565b6020026020010181815250505b80611c1c8161462b565b915050611b11565b50600060019050600080828483604051602001611c43939291906143ff565b60408051601f1981840301815260808301825288835260208301889052828201819052600060608401526101665461016854925163172b958560e31b81529194506001600160a01b03169163b95cac2891611ca79190309081908790600401614053565b600060405180830381600087803b158015611cc157600080fd5b505af1158015611cd5573d6000803e3d6000fd5b5050610160546040516370a0823160e01b8152306004820152600093506001600160a01b0390911691506370a082319060240160206040518083038186803b158015611d2057600080fd5b505afa158015611d34573d6000803e3d6000fd5b505050506040513d601f19601f82011682018060405250810190611d589190613d3b565b610160546101675460405163095ea7b360e01b81526001600160a01b03918216600482015260248101849052929350169063095ea7b390604401602060405180830381600087803b158015611dac57600080fd5b505af1158015611dc0573d6000803e3d6000fd5b505050506040513d601f19601f82011682018060405250810190611de49190613d05565b506101675461016b54604051638dbdbe6d60e01b81526004810191909152602481018390523060448201526001600160a01b0390911690638dbdbe6d90606401600060405180830381600087803b158015611e3e57600080fd5b505af1158015611e52573d6000803e3d6000fd5b505050505050505050505050505050565b6101675461016b54604051630c7e663b60e11b815260048101919091523060248201526000916001600160a01b0316906318fccc7690604401600060405180830381600087803b158015611eb657600080fd5b505af1158015611eca573d6000803e3d6000fd5b5050610161546040516370a0823160e01b8152306004820152600093508392506001600160a01b03909116906370a082319060240160206040518083038186803b158015611f1757600080fd5b505afa158015611f2b573d6000803e3d6000fd5b505050506040513d601f19601f82011682018060405250810190611f4f9190613d3b565b90508015611fa1576101695461016a54610161546101625461015f54600094611f91949093909286926001600160a01b0392831692918216911630808a613197565b9050611f9d818461447d565b9250505b61015f546040516370a0823160e01b81523060048201526001600160a01b039091169063a9059cbb90869083906370a082319060240160206040518083038186803b158015611fef57600080fd5b505afa158015612003573d6000803e3d6000fd5b505050506040513d601f19601f820116820180604052508101906120279190613d3b565b6040516001600160e01b031960e085901b1681526001600160a01b0390921660048301526024820152604401602060405180830381600087803b15801561206d57600080fd5b505af1158015612081573d6000803e3d6000fd5b505050506040513d601f19601f820116820180604052508101906120a59190613d05565b50909392505050565b61015f546000906001600160a01b038481169116146120df5760405162461bcd60e51b81526004016106ed906142fc565b6101675461016b546040516393f1a40b60e01b815260048101919091523060248201526000916001600160a01b0316906393f1a40b90604401604080518083038186803b15801561212f57600080fd5b505afa158015612143573d6000803e3d6000fd5b505050506040513d601f19601f820116820180604052508101906121679190613da3565b506101675461016b5460405163d1abb90760e01b81526004810191909152602481018390523060448201529192506001600160a01b03169063d1abb90790606401600060405180830381600087803b1580156121c257600080fd5b505af11580156121d6573d6000803e3d6000fd5b5050505060006121e5826113b4565b6101665461016854604051631f29a8cd60e31b81529293506000926001600160a01b039092169163f94d4668916122229160040190815260200190565b60006040518083038186803b15801561223a57600080fd5b505afa15801561224e573d6000803e3d6000fd5b505050506040513d6000823e601f3d908101601f191682016040526122769190810190613b98565b505060408051600280825260608201835292935060009290916020830190803683375050604080516002808252606082018352939450600093909250906020830190803683370190505090506000805b84518110156123a5578481815181106122e1576122e16146af565b60200260200101518482815181106122fb576122fb6146af565b6001600160a01b03928316602091820292909201015261015f54865191169086908390811061232c5761232c6146af565b60200260200101516001600160a01b031614156123725761234c86613637565b83828151811061235e5761235e6146af565b602002602001018181525050809150612393565b6000838281518110612386576123866146af565b6020026020010181815250505b8061239d8161462b565b9150506122c6565b506040805160006020820181905291810188905260608101839052819060800160408051601f19818403018152608083018252878352602083018790528282018190526000606084015261016654610168549251638bdb391360e01b81529194506001600160a01b031691638bdb3913916124299190309081908790600401614053565b600060405180830381600087803b15801561244357600080fd5b505af1158015612457573d6000803e3d6000fd5b505061015f546040516370a0823160e01b81523060048201526001600160a01b0390911692506370a08231915060240160206040518083038186803b15801561249f57600080fd5b505afa1580156124b3573d6000803e3d6000fd5b505050506040513d601f19601f820116820180604052508101906124d79190613d3b565b9c9b505050505050505050505050565b61015f546000906001600160a01b038581169116146125185760405162461bcd60e51b81526004016106ed906142fc565b8261252281613668565b6101665461016854604051631f29a8cd60e31b8152600481019190915291955060009182916001600160a01b03169063f94d46689060240160006040518083038186803b15801561257257600080fd5b505afa158015612586573d6000803e3d6000fd5b505050506040513d6000823e601f3d908101601f191682016040526125ae9190810190613b98565b5091509150600061268d87836000815181106125cc576125cc6146af565b6020026020010151846001815181106125e7576125e76146af565b602002602001015161016060009054906101000a90046001600160a01b03166001600160a01b03166318160ddd6040518163ffffffff1660e01b815260040160206040518083038186803b15801561263e57600080fd5b505afa158015612652573d6000803e3d6000fd5b505050506040513d601f19601f820116820180604052508101906126769190613d3b565b61016454610165546126889190614495565b61368e565b6101675461016b5460405163d1abb90760e01b81526004810191909152602481018390523060448201529192506001600160a01b03169063d1abb90790606401600060405180830381600087803b1580156126e757600080fd5b505af11580156126fb573d6000803e3d6000fd5b5050610160546040516370a0823160e01b81523060048201526001600160a01b0390911692506370a08231915060240160206040518083038186803b15801561274357600080fd5b505afa158015612757573d6000803e3d6000fd5b505050506040513d601f19601f8201168201806040525081019061277b9190613d3b565b60408051600280825260608201835292935060009290916020830190803683375050604080516002808252606082018352939450600093909250906020830190803683370190505090506000805b86518110156128a0578681815181106127e4576127e46146af565b60200260200101518482815181106127fe576127fe6146af565b6001600160a01b03928316602091820292909201015261015f54885191169088908390811061282f5761282f6146af565b60200260200101516001600160a01b0316141561286d5787838281518110612859576128596146af565b60200260200101818152505080915061288e565b6000838281518110612881576128816146af565b6020026020010181815250505b806128988161462b565b9150506127c9565b506040805160006020820181905291810186905260608101839052819060800160408051601f19818403018152608083018252878352602083018790528282018190526000606084015261016654610168549251638bdb391360e01b81529194506001600160a01b031691638bdb3913916129249190309081908790600401614053565b600060405180830381600087803b15801561293e57600080fd5b505af1158015612952573d6000803e3d6000fd5b505061015f546040516370a0823160e01b81523060048201526001600160a01b0390911692506370a08231915060240160206040518083038186803b15801561299a57600080fd5b505afa1580156129ae573d6000803e3d6000fd5b505050506040513d601f19601f820116820180604052508101906129d29190613d3b565b9a50505050505050505050505b9392505050565b604080516101208101825260008082526020820181905291810182905260608082018390526080820183905260a0820183905260c0820183905260e0820183905261010082015280866001811115612a4057612a40614699565b90816001811115612a5357612a53614699565b9052506001600160a01b0385811660208301528481166040808401919091526060830185905261012d549051631f29a8cd60e31b8152600481018a90526000928392169063f94d46689060240160006040518083038186803b158015612ab857600080fd5b505afa158015612acc573d6000803e3d6000fd5b505050506040513d6000823e601f3d908101601f19168201604052612af49190810190613b98565b5061012d5460405163f6c0092760e01b8152600481018d905292945090925060009182916001600160a01b03169063f6c0092790602401604080518083038186803b158015612b4257600080fd5b505afa158015612b56573d6000803e3d6000fd5b505050506040513d601f19601f82011682018060405250810190612b7a9190613adb565b90925090506000816002811115612b9357612b93614699565b1415612ccb5760008060005b86518160ff161015612c3b578b6001600160a01b0316878260ff1681518110612bca57612bca6146af565b60200260200101516001600160a01b03161415612bec578060ff169250612c29565b8a6001600160a01b0316878260ff1681518110612c0b57612c0b6146af565b60200260200101516001600160a01b03161415612c29578060ff1691505b80612c3381614646565b915050612b9f565b5060405162f64aa560e11b81526001600160a01b038516906301ec954a90612c6d908a908990879087906004016143a1565b60206040518083038186803b158015612c8557600080fd5b505afa158015612c99573d6000803e3d6000fd5b505050506040513d601f19601f82011682018060405250810190612cbd9190613d3b565b975050505050505050612ebe565b6001816002811115612cdf57612cdf614699565b1415612dea5760008060005b86518160ff161015612db9578b6001600160a01b0316878260ff1681518110612d1657612d166146af565b60200260200101516001600160a01b03161415612d5157858160ff1681518110612d4257612d426146af565b60200260200101519250612da7565b8a6001600160a01b0316878260ff1681518110612d7057612d706146af565b60200260200101516001600160a01b03161415612da757858160ff1681518110612d9c57612d9c6146af565b602002602001015191505b80612db181614646565b915050612ceb565b5060405163274b044360e21b81526001600160a01b03851690639d2c110c90612c6d908a90869086906004016143da565b60008060005b86518160ff161015612db9578b6001600160a01b0316878260ff1681518110612e1b57612e1b6146af565b60200260200101516001600160a01b03161415612e5657858160ff1681518110612e4757612e476146af565b60200260200101519250612eac565b8a6001600160a01b0316878260ff1681518110612e7557612e756146af565b60200260200101516001600160a01b03161415612eac57858160ff1681518110612ea157612ea16146af565b602002602001015191505b80612eb681614646565b915050612df0565b95945050505050565b60606000612ed68360026145b2565b612ee190600261447d565b67ffffffffffffffff811115612ef957612ef96146c5565b6040519080825280601f01601f191660200182016040528015612f23576020820181803683370190505b509050600360fc1b81600081518110612f3e57612f3e6146af565b60200101906001600160f81b031916908160001a905350600f60fb1b81600181518110612f6d57612f6d6146af565b60200101906001600160f81b031916908160001a9053506000612f918460026145b2565b612f9c90600161447d565b90505b6001811115613014576f181899199a1a9b1b9c1cb0b131b232b360811b85600f1660108110612fd057612fd06146af565b1a60f81b828281518110612fe657612fe66146af565b60200101906001600160f81b031916908160001a90535060049490941c9361300d81614614565b9050612f9f565b5083156129df5760405162461bcd60e51b815260206004820181905260248201527f537472696e67733a20686578206c656e67746820696e73756666696369656e7460448201526064016106ed565b6001600160a01b0381163b6130d05760405162461bcd60e51b815260206004820152602d60248201527f455243313936373a206e657720696d706c656d656e746174696f6e206973206e60448201526c1bdd08184818dbdb9d1c9858dd609a1b60648201526084016106ed565b60008051602061471f83398151915280546001600160a01b0319166001600160a01b0392909216919091179055565b6131088361377b565b6000825111806131155750805b15610a315761312483836137bb565b50505050565b600054610100900460ff166131955760405162461bcd60e51b815260206004820152602b60248201527f496e697469616c697a61626c653a20636f6e7472616374206973206e6f74206960448201526a6e697469616c697a696e6760a81b60648201526084016106ed565b565b61012d5460405163095ea7b360e01b81526001600160a01b0391821660048201526024810183905260009188169063095ea7b390604401602060405180830381600087803b1580156131e857600080fd5b505af11580156131fc573d6000803e3d6000fd5b505050506040513d601f19601f820116820180604052508101906132209190613d05565b5060408051600280825260608201909252600091816020015b61326e6040518060a0016040528060008019168152602001600081526020016000815260200160008152602001606081525090565b8152602001906001900390816132395790505090506132b86040518060a0016040528060008019168152602001600081526020016000815260200160008152602001606081525090565b8b815260006020820181905260016040830152606082018590528251829184916132e4576132e46146af565b60200260200101819052506133246040518060a0016040528060008019168152602001600081526020016000815260200160008152602001606081525090565b8b815260016020820181905260026040830152600060608301528351829185918110613352576133526146af565b6020908102919091010152604080516003808252608082019092526000918160200160208202803683370190505090508a81600081518110613396576133966146af565b60200260200101906001600160a01b031690816001600160a01b03168152505089816001815181106133ca576133ca6146af565b60200260200101906001600160a01b031690816001600160a01b03168152505088816002815181106133fe576133fe6146af565b6001600160a01b0392831660209182029290920181019190915260408051608080820183526000938201849052606082018490528c85168252938b1681830152815160038082529481019092529281602001602082028036833701905050905060008e600181111561347257613472614699565b1415613501576b033b2e3c9fd0803ce800000081600081518110613498576134986146af565b6020026020010181815250506b033b2e3c9fd0803ce8000000816001815181106134c4576134c46146af565b6020026020010181815250506b033b2e3c9fd0803ce8000000816002815181106134f0576134f06146af565b602002602001018181525050613565565b600081600081518110613516576135166146af565b602002602001018181525050600081600181518110613537576135376146af565b602002602001018181525050600081600281518110613558576135586146af565b6020026020010181815250505b61012d546001600160a01b031663945bcec98f888686866135884261025861447d565b6040518763ffffffff1660e01b81526004016135a996959493929190614085565b600060405180830381600087803b1580156135c357600080fd5b505af11580156135d7573d6000803e3d6000fd5b505050506040513d6000823e601f3d908101601f191682016040526135ff9190810190613c6d565b600281518110613611576136116146af565b602002602001015161362290614666565b96505050505050509998505050505050505050565b6000806136466004600a6144fa565b9050806136546004826145d1565b61365e90856145b2565b6129df9190614495565b6000806136776004600a6144fa565b90506136846004826145d1565b61365e82856145b2565b600080826001825b6002811015613730576136a9838a6145b2565b6136b3838a6145b2565b6136bd919061447d565b8a6136c8858a6145b2565b6136d291906145b2565b6136dc9190614495565b9350866136e9858a6145b2565b6136f39190614495565b610168546101635461015f5492955061371c926000916001600160a01b039081169116876129e6565b9150806137288161462b565b915050613696565b5061373b82896145b2565b61374582896145b2565b61374f919061447d565b8961375a84896145b2565b61376491906145b2565b61376e9190614495565b9998505050505050505050565b61378481613063565b6040516001600160a01b038216907fbc7cd75a20ee27fd9adebab32041f755214dbc6bffa90cc0225b39da2e5c2d3b90600090a250565b60606001600160a01b0383163b6138235760405162461bcd60e51b815260206004820152602660248201527f416464726573733a2064656c65676174652063616c6c20746f206e6f6e2d636f6044820152651b9d1c9858dd60d21b60648201526084016106ed565b600080846001600160a01b03168460405161383e9190613fc2565b600060405180830381855af49150503d8060008114613879576040519150601f19603f3d011682016040523d82523d6000602084013e61387e565b606091505b5091509150612ebe828260405180606001604052806027815260200161473f60279139606083156138b05750816129df565b8251156138c05782518084602001fd5b8160405162461bcd60e51b81526004016106ed919061419e565b600082601f8301126138eb57600080fd5b815160206139006138fb83614459565b614428565b80838252828201915082860187848660051b890101111561392057600080fd5b60005b8581101561393f57815184529284019290840190600101613923565b5090979650505050505050565b60006020828403121561395e57600080fd5b81356129df816146db565b600080600080600060a0868803121561398157600080fd5b853561398c816146db565b9450602086013561399c816146db565b935060408601356139ac816146db565b925060608601356139bc816146db565b915060808601356139cc816146db565b809150509295509295909350565b60008060008060008060c087890312156139f357600080fd5b86356139fe816146db565b95506020870135613a0e816146db565b95989597505050506040840135936060810135936080820135935060a0909101359150565b60008060408385031215613a4657600080fd5b8235613a51816146db565b915060208381013567ffffffffffffffff80821115613a6f57600080fd5b818601915086601f830112613a8357600080fd5b813581811115613a9557613a956146c5565b613aa7601f8201601f19168501614428565b91508082528784828501011115613abd57600080fd5b80848401858401376000848284010152508093505050509250929050565b60008060408385031215613aee57600080fd5b8251613af9816146db565b602084015190925060038110613b0e57600080fd5b809150509250929050565b60008060408385031215613b2c57600080fd5b8235613b37816146db565b946020939093013593505050565b60008060008060808587031215613b5b57600080fd5b8435613b66816146db565b9350602085013592506040850135613b7d816146db565b91506060850135613b8d816146f0565b939692955090935050565b600080600060608486031215613bad57600080fd5b835167ffffffffffffffff80821115613bc557600080fd5b818601915086601f830112613bd957600080fd5b81516020613be96138fb83614459565b8083825282820191508286018b848660051b8901011115613c0957600080fd5b600096505b84871015613c35578051613c21816146db565b835260019690960195918301918301613c0e565b5091890151919750909350505080821115613c4f57600080fd5b50613c5c868287016138da565b925050604084015190509250925092565b60006020808385031215613c8057600080fd5b825167ffffffffffffffff811115613c9757600080fd5b8301601f81018513613ca857600080fd5b8051613cb66138fb82614459565b80828252848201915084840188868560051b8701011115613cd657600080fd5b600094505b83851015613cf9578051835260019490940193918501918501613cdb565b50979650505050505050565b600060208284031215613d1757600080fd5b81516129df816146f0565b600060208284031215613d3457600080fd5b5035919050565b600060208284031215613d4d57600080fd5b5051919050565b60008060408385031215613d6757600080fd5b823591506020830135613b0e816146db565b600060208284031215613d8b57600080fd5b81356001600160e01b0319811681146129df57600080fd5b60008060408385031215613db657600080fd5b505080516020909101519092909150565b600060208284031215613dd957600080fd5b815160ff811681146129df57600080fd5b600081518084526020808501945080840160005b83811015613e235781516001600160a01b031687529582019590820190600101613dfe565b509495945050505050565b600081518084526020808501945080840160005b83811015613e2357815187529582019590820190600101613e42565b60008151808452613e768160208601602086016145e8565b601f01601f19169290920160200192915050565b60028110613ea857634e487b7160e01b600052602160045260246000fd5b9052565b6000815160808452613ec16080850182613dea565b905060208301518482036020860152613eda8282613e2e565b91505060408301518482036040860152613ef48282613e5e565b9150506060830151151560608501528091505092915050565b6000610120613f1d848451613e8a565b6020838101516001600160a01b03169085015260408084015190613f4b908601826001600160a01b03169052565b50606083015160608501526080830151608085015260a083015160a085015260c0830151613f8460c08601826001600160a01b03169052565b5060e0830151613f9f60e08601826001600160a01b03169052565b50610100808401518282870152613fb883870182613e5e565b9695505050505050565b60008251613fd48184602087016145e8565b9190910192915050565b7f416363657373436f6e74726f6c3a206163636f756e74200000000000000000008152600083516140168160178501602088016145e8565b7001034b99036b4b9b9b4b733903937b6329607d1b60179184019182015283516140478160288401602088016145e8565b01602801949350505050565b8481526001600160a01b03848116602083015283166040820152608060608201819052600090613fb890830184613eac565b6000610120808301614097848b613e8a565b60208481019290925288519081905261014080850192600583901b8601909101918a820160005b828110156141215787850361013f190186528151805186528481015185870152604080820151908701526060808201519087015260809081015160a09187018290529061410d81880183613e5e565b9786019796505050908301906001016140be565b5050505083810360408501526141378189613dea565b915050614177606084018780516001600160a01b039081168352602080830151151590840152604080830151909116908301526060908101511515910152565b82810360e08401526141898186613e2e565b91505082610100830152979650505050505050565b6020815260006129df6020830184613e5e565b6020808252601f908201527f5265737472696374656420746f20504f5254464f4c494f5f4d414e4147455200604082015260600190565b6020808252602c908201527f46756e6374696f6e206d7573742062652063616c6c6564207468726f7567682060408201526b19195b1959d85d1958d85b1b60a21b606082015260800190565b6020808252602c908201527f46756e6374696f6e206d7573742062652063616c6c6564207468726f7567682060408201526b6163746976652070726f787960a01b606082015260800190565b6020808252602e908201527f496e697469616c697a61626c653a20636f6e747261637420697320616c72656160408201526d191e481a5b9a5d1a585b1a5e995960921b606082015260800190565b6020808252601490820152735265737472696374656420746f2061646d696e7360601b604082015260600190565b60208082526019908201527f536f6d6520746f6b656e206e6f7420636f6d70617469626c6500000000000000604082015260600190565b60208082526019908201527f456d70747920706f6f6c206964206e6f7420616c6c6f77656400000000000000604082015260600190565b60208082526018908201527f5a65726f2061646472657373206e6f7420616c6c6f7765640000000000000000604082015260600190565b6080815260006143b46080830187613f0d565b82810360208401526143c68187613e2e565b604084019590955250506060015292915050565b6060815260006143ed6060830186613f0d565b60208301949094525060400152919050565b8381526060602082015260006144186060830185613e2e565b9050826040830152949350505050565b604051601f8201601f1916810167ffffffffffffffff81118282101715614451576144516146c5565b604052919050565b600067ffffffffffffffff821115614473576144736146c5565b5060051b60200190565b6000821982111561449057614490614683565b500190565b6000826144b257634e487b7160e01b600052601260045260246000fd5b500490565b600181815b808511156144f25781600019048211156144d8576144d8614683565b808516156144e557918102915b93841c93908002906144bc565b509250929050565b60006129df8383614511565b60006129df60ff8416835b600082614520575060016106c0565b8161452d575060006106c0565b8160018114614543576002811461454d57614569565b60019150506106c0565b60ff84111561455e5761455e614683565b50506001821b6106c0565b5060208310610133831016604e8410600b841016171561458c575081810a6106c0565b61459683836144b7565b80600019048211156145aa576145aa614683565b029392505050565b60008160001904831182151516156145cc576145cc614683565b500290565b6000828210156145e3576145e3614683565b500390565b60005b838110156146035781810151838201526020016145eb565b838111156131245750506000910152565b60008161462357614623614683565b506000190190565b600060001982141561463f5761463f614683565b5060010190565b600060ff821660ff81141561465d5761465d614683565b60010192915050565b6000600160ff1b82141561467c5761467c614683565b5060000390565b634e487b7160e01b600052601160045260246000fd5b634e487b7160e01b600052602160045260246000fd5b634e487b7160e01b600052603260045260246000fd5b634e487b7160e01b600052604160045260246000fd5b6001600160a01b0381168114610b9157600080fd5b8015158114610b9157600080fdfe90c2aa7471c04182221f68e80c07ab1e5946e4c63f8693e14ca40385d529f051360894a13ba1a3210667c828492db98dca3e2076cc3735a920a3ca505d382bbc416464726573733a206c6f772d6c6576656c2064656c65676174652063616c6c206661696c6564a2646970667358221220a7886fe3ce08320564a4520056e44c05e9597a96ad7f7f384aee7d093b08b8f764736f6c63430008060033",
  "devdoc": {
    "kind": "dev",
    "methods": {
      "constructor": {
        "custom:oz-upgrades-unsafe-allow": "constructor"
      },
      "getRoleAdmin(bytes32)": {
        "details": "Returns the admin role that controls `role`. See {grantRole} and {revokeRole}. To change a role's admin, use {_setRoleAdmin}."
      },
      "grantRole(bytes32,address)": {
        "details": "Grants `role` to `account`. If `account` had not been already granted `role`, emits a {RoleGranted} event. Requirements: - the caller must have ``role``'s admin role."
      },
      "hasRole(bytes32,address)": {
        "details": "Returns `true` if `account` has been granted `role`."
      },
      "proxiableUUID()": {
        "details": "Implementation of the ERC1822 {proxiableUUID} function. This returns the storage slot used by the implementation. It is used to validate that the this implementation remains valid after an upgrade. IMPORTANT: A proxy pointing at a proxiable contract should not be considered proxiable itself, because this risks bricking a proxy that upgrades to it, by delegating to itself until out of gas. Thus it is critical that this function revert if invoked through a proxy. This is guaranteed by the `notDelegated` modifier."
      },
      "renounceRole(bytes32,address)": {
        "details": "Revokes `role` from the calling account. Roles are often managed via {grantRole} and {revokeRole}: this function's purpose is to provide a mechanism for accounts to lose their privileges if they are compromised (such as when a trusted device is misplaced). If the calling account had been revoked `role`, emits a {RoleRevoked} event. Requirements: - the caller must be `account`."
      },
      "revokeRole(bytes32,address)": {
        "details": "Revokes `role` from `account`. If `account` had been granted `role`, emits a {RoleRevoked} event. Requirements: - the caller must have ``role``'s admin role."
      },
      "supportsInterface(bytes4)": {
        "details": "See {IERC165-supportsInterface}."
      },
      "upgradeTo(address)": {
        "details": "Upgrade the implementation of the proxy to `newImplementation`. Calls {_authorizeUpgrade}. Emits an {Upgraded} event."
      },
      "upgradeToAndCall(address,bytes)": {
        "details": "Upgrade the implementation of the proxy to `newImplementation`, and subsequently execute the function call encoded in `data`. Calls {_authorizeUpgrade}. Emits an {Upgraded} event."
      }
    },
    "version": 1
  },
  "userdoc": {
    "kind": "user",
    "methods": {},
    "version": 1
  },
  "storageLayout": {
    "storage": [
      {
        "astId": 797,
        "contract": "contracts/StrategyBeethovenxUsdcAsUsdc.sol:StrategyBeethovenxUsdcAsUsdc",
        "label": "_initialized",
        "offset": 0,
        "slot": "0",
        "type": "t_bool"
      },
      {
        "astId": 800,
        "contract": "contracts/StrategyBeethovenxUsdcAsUsdc.sol:StrategyBeethovenxUsdcAsUsdc",
        "label": "_initializing",
        "offset": 1,
        "slot": "0",
        "type": "t_bool"
      },
      {
        "astId": 1284,
        "contract": "contracts/StrategyBeethovenxUsdcAsUsdc.sol:StrategyBeethovenxUsdcAsUsdc",
        "label": "__gap",
        "offset": 0,
        "slot": "1",
        "type": "t_array(t_uint256)50_storage"
      },
      {
        "astId": 1591,
        "contract": "contracts/StrategyBeethovenxUsdcAsUsdc.sol:StrategyBeethovenxUsdcAsUsdc",
        "label": "__gap",
        "offset": 0,
        "slot": "51",
        "type": "t_array(t_uint256)50_storage"
      },
      {
        "astId": 39,
        "contract": "contracts/StrategyBeethovenxUsdcAsUsdc.sol:StrategyBeethovenxUsdcAsUsdc",
        "label": "_roles",
        "offset": 0,
        "slot": "101",
        "type": "t_mapping(t_bytes32,t_struct(RoleData)34_storage)"
      },
      {
        "astId": 327,
        "contract": "contracts/StrategyBeethovenxUsdcAsUsdc.sol:StrategyBeethovenxUsdcAsUsdc",
        "label": "__gap",
        "offset": 0,
        "slot": "102",
        "type": "t_array(t_uint256)49_storage"
      },
      {
        "astId": 779,
        "contract": "contracts/StrategyBeethovenxUsdcAsUsdc.sol:StrategyBeethovenxUsdcAsUsdc",
        "label": "__gap",
        "offset": 0,
        "slot": "151",
        "type": "t_array(t_uint256)50_storage"
      },
      {
        "astId": 999,
        "contract": "contracts/StrategyBeethovenxUsdcAsUsdc.sol:StrategyBeethovenxUsdcAsUsdc",
        "label": "__gap",
        "offset": 0,
        "slot": "201",
        "type": "t_array(t_uint256)50_storage"
      },
      {
        "astId": 21007,
        "contract": "contracts/StrategyBeethovenxUsdcAsUsdc.sol:StrategyBeethovenxUsdcAsUsdc",
        "label": "portfolioManager",
        "offset": 0,
        "slot": "251",
        "type": "t_address"
      },
      {
        "astId": 21477,
        "contract": "contracts/StrategyBeethovenxUsdcAsUsdc.sol:StrategyBeethovenxUsdcAsUsdc",
        "label": "__gap",
        "offset": 0,
        "slot": "252",
        "type": "t_array(t_uint256)49_storage"
      },
      {
        "astId": 21493,
        "contract": "contracts/StrategyBeethovenxUsdcAsUsdc.sol:StrategyBeethovenxUsdcAsUsdc",
        "label": "beethovenxVault",
        "offset": 0,
        "slot": "301",
        "type": "t_contract(IVault)18562"
      },
      {
        "astId": 22146,
        "contract": "contracts/StrategyBeethovenxUsdcAsUsdc.sol:StrategyBeethovenxUsdcAsUsdc",
        "label": "__gap",
        "offset": 0,
        "slot": "302",
        "type": "t_array(t_uint256)49_storage"
      },
      {
        "astId": 5848,
        "contract": "contracts/StrategyBeethovenxUsdcAsUsdc.sol:StrategyBeethovenxUsdcAsUsdc",
        "label": "usdcToken",
        "offset": 0,
        "slot": "351",
        "type": "t_contract(IERC20)2415"
      },
      {
        "astId": 5851,
        "contract": "contracts/StrategyBeethovenxUsdcAsUsdc.sol:StrategyBeethovenxUsdcAsUsdc",
        "label": "bptUsdcAsUsdcToken",
        "offset": 0,
        "slot": "352",
        "type": "t_contract(IERC20)2415"
      },
      {
        "astId": 5854,
        "contract": "contracts/StrategyBeethovenxUsdcAsUsdc.sol:StrategyBeethovenxUsdcAsUsdc",
        "label": "beetsToken",
        "offset": 0,
        "slot": "353",
        "type": "t_contract(IERC20)2415"
      },
      {
        "astId": 5857,
        "contract": "contracts/StrategyBeethovenxUsdcAsUsdc.sol:StrategyBeethovenxUsdcAsUsdc",
        "label": "wFtmToken",
        "offset": 0,
        "slot": "354",
        "type": "t_contract(IERC20)2415"
      },
      {
        "astId": 5860,
        "contract": "contracts/StrategyBeethovenxUsdcAsUsdc.sol:StrategyBeethovenxUsdcAsUsdc",
        "label": "asUsdcToken",
        "offset": 0,
        "slot": "355",
        "type": "t_contract(IERC20)2415"
      },
      {
        "astId": 5862,
        "contract": "contracts/StrategyBeethovenxUsdcAsUsdc.sol:StrategyBeethovenxUsdcAsUsdc",
        "label": "usdcTokenDenominator",
        "offset": 0,
        "slot": "356",
        "type": "t_uint256"
      },
      {
        "astId": 5864,
        "contract": "contracts/StrategyBeethovenxUsdcAsUsdc.sol:StrategyBeethovenxUsdcAsUsdc",
        "label": "asUsdcTokenDenominator",
        "offset": 0,
        "slot": "357",
        "type": "t_uint256"
      },
      {
        "astId": 5867,
        "contract": "contracts/StrategyBeethovenxUsdcAsUsdc.sol:StrategyBeethovenxUsdcAsUsdc",
        "label": "beethovenxVault",
        "offset": 0,
        "slot": "358",
        "type": "t_contract(IVault)18562"
      },
      {
        "astId": 5870,
        "contract": "contracts/StrategyBeethovenxUsdcAsUsdc.sol:StrategyBeethovenxUsdcAsUsdc",
        "label": "beethovenxMasterChef",
        "offset": 0,
        "slot": "359",
        "type": "t_contract(BeethovenxMasterChef)18127"
      },
      {
        "astId": 5872,
        "contract": "contracts/StrategyBeethovenxUsdcAsUsdc.sol:StrategyBeethovenxUsdcAsUsdc",
        "label": "poolIdUsdcAsUsdc",
        "offset": 0,
        "slot": "360",
        "type": "t_bytes32"
      },
      {
        "astId": 5874,
        "contract": "contracts/StrategyBeethovenxUsdcAsUsdc.sol:StrategyBeethovenxUsdcAsUsdc",
        "label": "poolIdBeetsWFtm",
        "offset": 0,
        "slot": "361",
        "type": "t_bytes32"
      },
      {
        "astId": 5876,
        "contract": "contracts/StrategyBeethovenxUsdcAsUsdc.sol:StrategyBeethovenxUsdcAsUsdc",
        "label": "poolIdWFtmUsdc",
        "offset": 0,
        "slot": "362",
        "type": "t_bytes32"
      },
      {
        "astId": 5878,
        "contract": "contracts/StrategyBeethovenxUsdcAsUsdc.sol:StrategyBeethovenxUsdcAsUsdc",
        "label": "pidUsdcAsUsdc",
        "offset": 0,
        "slot": "363",
        "type": "t_uint256"
      }
    ],
    "types": {
      "t_address": {
        "encoding": "inplace",
        "label": "address",
        "numberOfBytes": "20"
      },
      "t_array(t_uint256)49_storage": {
        "base": "t_uint256",
        "encoding": "inplace",
        "label": "uint256[49]",
        "numberOfBytes": "1568"
      },
      "t_array(t_uint256)50_storage": {
        "base": "t_uint256",
        "encoding": "inplace",
        "label": "uint256[50]",
        "numberOfBytes": "1600"
      },
      "t_bool": {
        "encoding": "inplace",
        "label": "bool",
        "numberOfBytes": "1"
      },
      "t_bytes32": {
        "encoding": "inplace",
        "label": "bytes32",
        "numberOfBytes": "32"
      },
      "t_contract(BeethovenxMasterChef)18127": {
        "encoding": "inplace",
        "label": "contract BeethovenxMasterChef",
        "numberOfBytes": "20"
      },
      "t_contract(IERC20)2415": {
        "encoding": "inplace",
        "label": "contract IERC20",
        "numberOfBytes": "20"
      },
      "t_contract(IVault)18562": {
        "encoding": "inplace",
        "label": "contract IVault",
        "numberOfBytes": "20"
      },
      "t_mapping(t_address,t_bool)": {
        "encoding": "mapping",
        "key": "t_address",
        "label": "mapping(address => bool)",
        "numberOfBytes": "32",
        "value": "t_bool"
      },
      "t_mapping(t_bytes32,t_struct(RoleData)34_storage)": {
        "encoding": "mapping",
        "key": "t_bytes32",
        "label": "mapping(bytes32 => struct AccessControlUpgradeable.RoleData)",
        "numberOfBytes": "32",
        "value": "t_struct(RoleData)34_storage"
      },
      "t_struct(RoleData)34_storage": {
        "encoding": "inplace",
        "label": "struct AccessControlUpgradeable.RoleData",
        "members": [
          {
            "astId": 31,
            "contract": "contracts/StrategyBeethovenxUsdcAsUsdc.sol:StrategyBeethovenxUsdcAsUsdc",
            "label": "members",
            "offset": 0,
            "slot": "0",
            "type": "t_mapping(t_address,t_bool)"
          },
          {
            "astId": 33,
            "contract": "contracts/StrategyBeethovenxUsdcAsUsdc.sol:StrategyBeethovenxUsdcAsUsdc",
            "label": "adminRole",
            "offset": 0,
            "slot": "1",
            "type": "t_bytes32"
          }
        ],
        "numberOfBytes": "64"
      },
      "t_uint256": {
        "encoding": "inplace",
        "label": "uint256",
        "numberOfBytes": "32"
      }
    }
  }
}