{
  "address": "0xF7d693CE960e70721F0353F967360046Ba7d4eFA",
  "abi": [
    {
      "inputs": [],
      "stateMutability": "nonpayable",
      "type": "constructor"
    },
    {
      "anonymous": false,
      "inputs": [
        {
          "indexed": false,
          "internalType": "address",
          "name": "previousAdmin",
          "type": "address"
        },
        {
          "indexed": false,
          "internalType": "address",
          "name": "newAdmin",
          "type": "address"
        }
      ],
      "name": "AdminChanged",
      "type": "event"
    },
    {
      "anonymous": false,
      "inputs": [
        {
          "indexed": true,
          "internalType": "address",
          "name": "beacon",
          "type": "address"
        }
      ],
      "name": "BeaconUpgraded",
      "type": "event"
    },
    {
      "anonymous": false,
      "inputs": [
        {
          "indexed": false,
          "internalType": "address",
          "name": "value",
          "type": "address"
        }
      ],
      "name": "PortfolioManagerUpdated",
      "type": "event"
    },
    {
      "anonymous": false,
      "inputs": [
        {
          "indexed": false,
          "internalType": "uint256",
          "name": "amount",
          "type": "uint256"
        }
      ],
      "name": "Reward",
      "type": "event"
    },
    {
      "anonymous": false,
      "inputs": [
        {
          "indexed": true,
          "internalType": "bytes32",
          "name": "role",
          "type": "bytes32"
        },
        {
          "indexed": true,
          "internalType": "bytes32",
          "name": "previousAdminRole",
          "type": "bytes32"
        },
        {
          "indexed": true,
          "internalType": "bytes32",
          "name": "newAdminRole",
          "type": "bytes32"
        }
      ],
      "name": "RoleAdminChanged",
      "type": "event"
    },
    {
      "anonymous": false,
      "inputs": [
        {
          "indexed": true,
          "internalType": "bytes32",
          "name": "role",
          "type": "bytes32"
        },
        {
          "indexed": true,
          "internalType": "address",
          "name": "account",
          "type": "address"
        },
        {
          "indexed": true,
          "internalType": "address",
          "name": "sender",
          "type": "address"
        }
      ],
      "name": "RoleGranted",
      "type": "event"
    },
    {
      "anonymous": false,
      "inputs": [
        {
          "indexed": true,
          "internalType": "bytes32",
          "name": "role",
          "type": "bytes32"
        },
        {
          "indexed": true,
          "internalType": "address",
          "name": "account",
          "type": "address"
        },
        {
          "indexed": true,
          "internalType": "address",
          "name": "sender",
          "type": "address"
        }
      ],
      "name": "RoleRevoked",
      "type": "event"
    },
    {
      "anonymous": false,
      "inputs": [
        {
          "indexed": false,
          "internalType": "uint256",
          "name": "amount",
          "type": "uint256"
        }
      ],
      "name": "Stake",
      "type": "event"
    },
    {
      "anonymous": false,
      "inputs": [
        {
          "indexed": false,
          "internalType": "address",
          "name": "tarotSupplyVaultRouter",
          "type": "address"
        }
      ],
      "name": "StrategyTarotSupplyVaultUsdcUpdatedParams",
      "type": "event"
    },
    {
      "anonymous": false,
      "inputs": [
        {
          "indexed": false,
          "internalType": "address",
          "name": "usdcToken",
          "type": "address"
        },
        {
          "indexed": false,
          "internalType": "address",
          "name": "tUsdcToken",
          "type": "address"
        },
        {
          "indexed": false,
          "internalType": "address",
          "name": "bTarotSpiritToken",
          "type": "address"
        },
        {
          "indexed": false,
          "internalType": "uint256",
          "name": "bTarotSpiritTokenDenominator",
          "type": "uint256"
        }
      ],
      "name": "StrategyTarotSupplyVaultUsdcUpdatedTokens",
      "type": "event"
    },
    {
      "anonymous": false,
      "inputs": [
        {
          "indexed": false,
          "internalType": "uint256",
          "name": "amount",
          "type": "uint256"
        },
        {
          "indexed": false,
          "internalType": "uint256",
          "name": "amountReceived",
          "type": "uint256"
        }
      ],
      "name": "Unstake",
      "type": "event"
    },
    {
      "anonymous": false,
      "inputs": [
        {
          "indexed": true,
          "internalType": "address",
          "name": "implementation",
          "type": "address"
        }
      ],
      "name": "Upgraded",
      "type": "event"
    },
    {
      "inputs": [],
      "name": "DEFAULT_ADMIN_ROLE",
      "outputs": [
        {
          "internalType": "bytes32",
          "name": "",
          "type": "bytes32"
        }
      ],
      "stateMutability": "view",
      "type": "function"
    },
    {
      "inputs": [],
      "name": "PORTFOLIO_MANAGER",
      "outputs": [
        {
          "internalType": "bytes32",
          "name": "",
          "type": "bytes32"
        }
      ],
      "stateMutability": "view",
      "type": "function"
    },
    {
      "inputs": [],
      "name": "UPGRADER_ROLE",
      "outputs": [
        {
          "internalType": "bytes32",
          "name": "",
          "type": "bytes32"
        }
      ],
      "stateMutability": "view",
      "type": "function"
    },
    {
      "inputs": [],
      "name": "bTarotSpiritToken",
      "outputs": [
        {
          "internalType": "contract IBorrowable",
          "name": "",
          "type": "address"
        }
      ],
      "stateMutability": "view",
      "type": "function"
    },
    {
      "inputs": [],
      "name": "bTarotSpiritTokenDenominator",
      "outputs": [
        {
          "internalType": "uint256",
          "name": "",
          "type": "uint256"
        }
      ],
      "stateMutability": "view",
      "type": "function"
    },
    {
      "inputs": [
        {
          "internalType": "address",
          "name": "_to",
          "type": "address"
        }
      ],
      "name": "claimRewards",
      "outputs": [
        {
          "internalType": "uint256",
          "name": "",
          "type": "uint256"
        }
      ],
      "stateMutability": "nonpayable",
      "type": "function"
    },
    {
      "inputs": [
        {
          "internalType": "bytes32",
          "name": "role",
          "type": "bytes32"
        }
      ],
      "name": "getRoleAdmin",
      "outputs": [
        {
          "internalType": "bytes32",
          "name": "",
          "type": "bytes32"
        }
      ],
      "stateMutability": "view",
      "type": "function"
    },
    {
      "inputs": [
        {
          "internalType": "bytes32",
          "name": "role",
          "type": "bytes32"
        },
        {
          "internalType": "address",
          "name": "account",
          "type": "address"
        }
      ],
      "name": "grantRole",
      "outputs": [],
      "stateMutability": "nonpayable",
      "type": "function"
    },
    {
      "inputs": [
        {
          "internalType": "bytes32",
          "name": "role",
          "type": "bytes32"
        },
        {
          "internalType": "address",
          "name": "account",
          "type": "address"
        }
      ],
      "name": "hasRole",
      "outputs": [
        {
          "internalType": "bool",
          "name": "",
          "type": "bool"
        }
      ],
      "stateMutability": "view",
      "type": "function"
    },
    {
      "inputs": [],
      "name": "initialize",
      "outputs": [],
      "stateMutability": "nonpayable",
      "type": "function"
    },
    {
      "inputs": [],
      "name": "liquidationValue",
      "outputs": [
        {
          "internalType": "uint256",
          "name": "",
          "type": "uint256"
        }
      ],
      "stateMutability": "view",
      "type": "function"
    },
    {
      "inputs": [],
      "name": "netAssetValue",
      "outputs": [
        {
          "internalType": "uint256",
          "name": "",
          "type": "uint256"
        }
      ],
      "stateMutability": "view",
      "type": "function"
    },
    {
      "inputs": [],
      "name": "portfolioManager",
      "outputs": [
        {
          "internalType": "address",
          "name": "",
          "type": "address"
        }
      ],
      "stateMutability": "view",
      "type": "function"
    },
    {
      "inputs": [],
      "name": "proxiableUUID",
      "outputs": [
        {
          "internalType": "bytes32",
          "name": "",
          "type": "bytes32"
        }
      ],
      "stateMutability": "view",
      "type": "function"
    },
    {
      "inputs": [
        {
          "internalType": "bytes32",
          "name": "role",
          "type": "bytes32"
        },
        {
          "internalType": "address",
          "name": "account",
          "type": "address"
        }
      ],
      "name": "renounceRole",
      "outputs": [],
      "stateMutability": "nonpayable",
      "type": "function"
    },
    {
      "inputs": [
        {
          "internalType": "bytes32",
          "name": "role",
          "type": "bytes32"
        },
        {
          "internalType": "address",
          "name": "account",
          "type": "address"
        }
      ],
      "name": "revokeRole",
      "outputs": [],
      "stateMutability": "nonpayable",
      "type": "function"
    },
    {
      "inputs": [
        {
          "internalType": "address",
          "name": "_tarotSupplyVaultRouter",
          "type": "address"
        }
      ],
      "name": "setParams",
      "outputs": [],
      "stateMutability": "nonpayable",
      "type": "function"
    },
    {
      "inputs": [
        {
          "internalType": "address",
          "name": "_value",
          "type": "address"
        }
      ],
      "name": "setPortfolioManager",
      "outputs": [],
      "stateMutability": "nonpayable",
      "type": "function"
    },
    {
      "inputs": [
        {
          "internalType": "address",
          "name": "_usdcToken",
          "type": "address"
        },
        {
          "internalType": "address",
          "name": "_tUsdcToken",
          "type": "address"
        },
        {
          "internalType": "address",
          "name": "_bTarotSpiritToken",
          "type": "address"
        }
      ],
      "name": "setTokens",
      "outputs": [],
      "stateMutability": "nonpayable",
      "type": "function"
    },
    {
      "inputs": [
        {
          "internalType": "address",
          "name": "_asset",
          "type": "address"
        },
        {
          "internalType": "uint256",
          "name": "_amount",
          "type": "uint256"
        }
      ],
      "name": "stake",
      "outputs": [],
      "stateMutability": "nonpayable",
      "type": "function"
    },
    {
      "inputs": [
        {
          "internalType": "bytes4",
          "name": "interfaceId",
          "type": "bytes4"
        }
      ],
      "name": "supportsInterface",
      "outputs": [
        {
          "internalType": "bool",
          "name": "",
          "type": "bool"
        }
      ],
      "stateMutability": "view",
      "type": "function"
    },
    {
      "inputs": [],
      "name": "tUsdcToken",
      "outputs": [
        {
          "internalType": "contract ISupplyVault",
          "name": "",
          "type": "address"
        }
      ],
      "stateMutability": "view",
      "type": "function"
    },
    {
      "inputs": [],
      "name": "tarotSupplyVaultRouter",
      "outputs": [
        {
          "internalType": "contract ISupplyVaultRouter01",
          "name": "",
          "type": "address"
        }
      ],
      "stateMutability": "view",
      "type": "function"
    },
    {
      "inputs": [
        {
          "internalType": "address",
          "name": "_asset",
          "type": "address"
        },
        {
          "internalType": "uint256",
          "name": "_amount",
          "type": "uint256"
        },
        {
          "internalType": "address",
          "name": "_beneficiary",
          "type": "address"
        },
        {
          "internalType": "bool",
          "name": "_targetIsZero",
          "type": "bool"
        }
      ],
      "name": "unstake",
      "outputs": [
        {
          "internalType": "uint256",
          "name": "",
          "type": "uint256"
        }
      ],
      "stateMutability": "nonpayable",
      "type": "function"
    },
    {
      "inputs": [
        {
          "internalType": "address",
          "name": "newImplementation",
          "type": "address"
        }
      ],
      "name": "upgradeTo",
      "outputs": [],
      "stateMutability": "nonpayable",
      "type": "function"
    },
    {
      "inputs": [
        {
          "internalType": "address",
          "name": "newImplementation",
          "type": "address"
        },
        {
          "internalType": "bytes",
          "name": "data",
          "type": "bytes"
        }
      ],
      "name": "upgradeToAndCall",
      "outputs": [],
      "stateMutability": "payable",
      "type": "function"
    },
    {
      "inputs": [],
      "name": "usdcToken",
      "outputs": [
        {
          "internalType": "contract IERC20",
          "name": "",
          "type": "address"
        }
      ],
      "stateMutability": "view",
      "type": "function"
    }
  ],
  "numDeployments": 1,
  "solcInputHash": "17bec5a5db63c378ad30b852e6abf5b4",
  "bytecode": "0x60a06040523060601b6080523480156200001857600080fd5b50600054610100900460ff16620000365760005460ff161562000040565b62000040620000e5565b620000a85760405162461bcd60e51b815260206004820152602e60248201527f496e697469616c697a61626c653a20636f6e747261637420697320616c72656160448201526d191e481a5b9a5d1a585b1a5e995960921b606482015260840160405180910390fd5b600054610100900460ff16158015620000cb576000805461ffff19166101011790555b8015620000de576000805461ff00191690555b5062000112565b6000620000fd306200010360201b62000fae1760201c565b15905090565b6001600160a01b03163b151590565b60805160601c61283e6200014d600039600081816106050152818161064501528181610935015281816109750152610a04015261283e6000f3fe60806040526004361061019c5760003560e01c806354b33777116100ec578063a440b21a1161008a578063e701cd7311610064578063e701cd731461047b578063ef5cfb8c14610492578063f6f6b881146104b2578063f72c0d8b146104d257600080fd5b8063a440b21a1461041b578063adc9772e1461043b578063d547741f1461045b57600080fd5b80638129fc1c116100c65780638129fc1c146103d157806391d14854146103e6578063a217fddf14610406578063a3673b381461026e57600080fd5b806354b337771461036e578063620b75df1461038f5780637d5f5802146103af57600080fd5b80632f2ff15d11610159578063443be20911610133578063443be209146103065780634e49acac146103265780634f1ef2861461034657806352d1902d1461035957600080fd5b80632f2ff15d146102a457806336568abe146102c65780633659cfe6146102e657600080fd5b806301ffc9a7146101a15780630b067daa146101d657806311eac8551461020f578063248a9ca3146102305780632576e65a1461026e5780632bb8d30f14610283575b600080fd5b3480156101ad57600080fd5b506101c16101bc3660046122ab565b610506565b60405190151581526020015b60405180910390f35b3480156101e257600080fd5b5061012f546101f7906001600160a01b031681565b6040516001600160a01b0390911681526020016101cd565b34801561021b57600080fd5b5061012d546101f7906001600160a01b031681565b34801561023c57600080fd5b5061026061024b366004612249565b60009081526065602052604090206001015490565b6040519081526020016101cd565b34801561027a57600080fd5b5061026061053d565b34801561028f57600080fd5b50610131546101f7906001600160a01b031681565b3480156102b057600080fd5b506102c46102bf36600461227b565b61054c565b005b3480156102d257600080fd5b506102c46102e136600461227b565b610577565b3480156102f257600080fd5b506102c4610301366004612081565b6105fa565b34801561031257600080fd5b506102c461032136600461209e565b6106da565b34801561033257600080fd5b506102c4610341366004612081565b610887565b6102c46103543660046120e9565b61092a565b34801561036557600080fd5b506102606109f7565b34801561037a57600080fd5b5061012e546101f7906001600160a01b031681565b34801561039b57600080fd5b5060fb546101f7906001600160a01b031681565b3480156103bb57600080fd5b506102606000805160206127a283398151915281565b3480156103dd57600080fd5b506102c4610aaa565b3480156103f257600080fd5b506101c161040136600461227b565b610b23565b34801561041257600080fd5b50610260600081565b34801561042757600080fd5b506102c4610436366004612081565b610b4e565b34801561044757600080fd5b506102c46104563660046121ad565b610c26565b34801561046757600080fd5b506102c461047636600461227b565b610d0f565b34801561048757600080fd5b506102606101305481565b34801561049e57600080fd5b506102606104ad366004612081565b610d35565b3480156104be57600080fd5b506102606104cd3660046121d9565b610dac565b3480156104de57600080fd5b506102607f189ab7a9244df0848122154315af71fe140f3db0fe014031783b0946b8c9d2e381565b60006001600160e01b03198216637965db0b60e01b148061053757506301ffc9a760e01b6001600160e01b03198316145b92915050565b6000610547610fbd565b905090565b60008281526065602052604090206001015461056881336113ac565b6105728383611410565b505050565b6001600160a01b03811633146105ec5760405162461bcd60e51b815260206004820152602f60248201527f416363657373436f6e74726f6c3a2063616e206f6e6c792072656e6f756e636560448201526e103937b632b9903337b91039b2b63360891b60648201526084015b60405180910390fd5b6105f68282611496565b5050565b306001600160a01b037f00000000000000000000000000000000000000000000000000000000000000001614156106435760405162461bcd60e51b81526004016105e390612410565b7f00000000000000000000000000000000000000000000000000000000000000006001600160a01b031661068c6000805160206127c2833981519152546001600160a01b031690565b6001600160a01b0316146106b25760405162461bcd60e51b81526004016105e39061245c565b6106bb816114fd565b604080516000808252602082019092526106d791839190611528565b50565b6106e5600033610b23565b6107015760405162461bcd60e51b81526004016105e3906124f6565b6001600160a01b0383166107275760405162461bcd60e51b81526004016105e39061255b565b6001600160a01b03821661074d5760405162461bcd60e51b81526004016105e39061255b565b6001600160a01b0381166107735760405162461bcd60e51b81526004016105e39061255b565b61012d80546001600160a01b038086166001600160a01b03199283161790925561012e805485841690831617905561012f805492841692909116821790556040805163313ce56760e01b8152905163313ce56791600480820192602092909190829003018186803b1580156107e757600080fd5b505afa1580156107fb573d6000803e3d6000fd5b505050506040513d601f19601f8201168201806040525081019061081f91906122f2565b61082a90600a61260f565b610130819055604080516001600160a01b03868116825285811660208301528416818301526060810192909252517f683969065b6edeb880b9233e6a278bd8ef899b1d9cbb1119a1800832d0bdefea9181900360800190a1505050565b610892600033610b23565b6108ae5760405162461bcd60e51b81526004016105e3906124f6565b6001600160a01b0381166108d45760405162461bcd60e51b81526004016105e39061255b565b61013180546001600160a01b0319166001600160a01b0383169081179091556040519081527f1f2ef902f56133b8dad1ebcb1243df6754bedbd15033cfd8dd22544a20cf458e906020015b60405180910390a150565b306001600160a01b037f00000000000000000000000000000000000000000000000000000000000000001614156109735760405162461bcd60e51b81526004016105e390612410565b7f00000000000000000000000000000000000000000000000000000000000000006001600160a01b03166109bc6000805160206127c2833981519152546001600160a01b031690565b6001600160a01b0316146109e25760405162461bcd60e51b81526004016105e39061245c565b6109eb826114fd565b6105f682826001611528565b6000306001600160a01b037f00000000000000000000000000000000000000000000000000000000000000001614610a975760405162461bcd60e51b815260206004820152603860248201527f555550535570677261646561626c653a206d757374206e6f742062652063616c60448201527f6c6564207468726f7567682064656c656761746563616c6c000000000000000060648201526084016105e3565b506000805160206127c283398151915290565b600054610100900460ff16610ac55760005460ff1615610ac9565b303b155b610ae55760405162461bcd60e51b81526004016105e3906124a8565b600054610100900460ff16158015610b07576000805461ffff19166101011790555b610b0f6116a2565b80156106d7576000805461ff001916905550565b60009182526065602090815260408084206001600160a01b0393909316845291905290205460ff1690565b610b59600033610b23565b610b755760405162461bcd60e51b81526004016105e3906124f6565b6001600160a01b038116610b9b5760405162461bcd60e51b81526004016105e39061255b565b60fb54610bc0906000805160206127a2833981519152906001600160a01b0316610d0f565b610bd86000805160206127a28339815191528261054c565b60fb80546001600160a01b0319166001600160a01b0383169081179091556040519081527ff7b449fcd5cfb7379dcd34cb69428dd9f882033b15be33d83b42d91daa28eeb79060200161091f565b610c3e6000805160206127a283398151915233610b23565b610c5a5760405162461bcd60e51b81526004016105e3906123d9565b6040518181527f227a473b70d2f893cc7659219575c030a63b5743024fe1e0c1a680e708b1525a9060200160405180910390a16040516370a0823160e01b81523060048201526105f69083906001600160a01b038216906370a082319060240160206040518083038186803b158015610cd257600080fd5b505afa158015610ce6573d6000803e3d6000fd5b505050506040513d601f19601f82011682018060405250810190610d0a9190612262565b611744565b600082815260656020526040902060010154610d2b81336113ac565b6105728383611496565b6000610d4f6000805160206127a283398151915233610b23565b610d6b5760405162461bcd60e51b81526004016105e3906123d9565b60007f3ac0594a85a20354f9dc74f33728416d19ce00d04a406c108cc2dcf2cecea13481604051610d9e91815260200190565b60405180910390a192915050565b6000610dc66000805160206127a283398151915233610b23565b610de25760405162461bcd60e51b81526004016105e3906123d9565b60008215610dfb57610df48685611893565b9050610e6a565b610e06868686611a5d565b905084811015610e6a5760405162461bcd60e51b815260206004820152602960248201527f52657475726e65642076616c7565206c657373207468616e2072657175657374604482015268195908185b5bdd5b9d60ba1b60648201526084016105e3565b6040516370a0823160e01b81523060048201526000906001600160a01b038816906370a082319060240160206040518083038186803b158015610eac57600080fd5b505afa158015610ec0573d6000803e3d6000fd5b505050506040513d601f19601f82011682018060405250810190610ee49190612262565b60405163a9059cbb60e01b81526001600160a01b038781166004830152602482018390529192509088169063a9059cbb90604401602060405180830381600087803b158015610f3257600080fd5b505af1158015610f46573d6000803e3d6000fd5b505050506040513d601f19601f82011682018060405250810190610f6a919061222c565b5060408051878152602081018390527f9045c2ac9b2026de8075f2701bbdde882cd5e830b3b1ead9a15b22f2b5b93742910160405180910390a19695505050505050565b6001600160a01b03163b151590565b60008060005b61012e60009054906101000a90046001600160a01b03166001600160a01b031663821beaf56040518163ffffffff1660e01b815260040160206040518083038186803b15801561101257600080fd5b505afa158015611026573d6000803e3d6000fd5b505050506040513d601f19601f8201168201806040525081019061104a9190612262565b8160ff1610156112815761012e5460405163ade37c1360e01b815260ff831660048201526000916001600160a01b03169063ade37c139060240160206040518083038186803b15801561109c57600080fd5b505afa1580156110b0573d6000803e3d6000fd5b505050506040513d601f19601f820116820180604052508101906110d491906122d5565b61012e546040516370a0823160e01b81526001600160a01b039182166004820152919250600091908316906370a082319060240160206040518083038186803b15801561112057600080fd5b505afa158015611134573d6000803e3d6000fd5b505050506040513d601f19601f820116820180604052508101906111589190612262565b90506000826001600160a01b031663313ce5676040518163ffffffff1660e01b815260040160206040518083038186803b15801561119557600080fd5b505afa1580156111a9573d6000803e3d6000fd5b505050506040513d601f19601f820116820180604052508101906111cd91906122f2565b6111d890600a61260f565b836001600160a01b031663be340e326040518163ffffffff1660e01b815260040160206040518083038186803b15801561121157600080fd5b505afa158015611225573d6000803e3d6000fd5b505050506040513d601f19601f820116820180604052508101906112499190612262565b61125390846126ba565b61125d91906125aa565b90506112698186612592565b945050505080806112799061271c565b915050610fc3565b5061012e546040516370a0823160e01b81523060048201526000916001600160a01b0316906370a082319060240160206040518083038186803b1580156112c757600080fd5b505afa1580156112db573d6000803e3d6000fd5b505050506040513d601f19601f820116820180604052508101906112ff9190612262565b9050600061012e60009054906101000a90046001600160a01b03166001600160a01b03166318160ddd6040518163ffffffff1660e01b815260040160206040518083038186803b15801561135257600080fd5b505afa158015611366573d6000803e3d6000fd5b505050506040513d601f19601f8201168201806040525081019061138a9190612262565b905060008161139985856126ba565b6113a391906125aa565b95945050505050565b6113b68282610b23565b6105f6576113ce816001600160a01b03166014611c52565b6113d9836020611c52565b6040516020016113ea929190612331565b60408051601f198184030181529082905262461bcd60e51b82526105e3916004016123a6565b61141a8282610b23565b6105f65760008281526065602090815260408083206001600160a01b03851684529091529020805460ff191660011790556114523390565b6001600160a01b0316816001600160a01b0316837f2f8788117e7eff1d82e926ec794901d17c78024a50270940304540a733656f0d60405160405180910390a45050565b6114a08282610b23565b156105f65760008281526065602090815260408083206001600160a01b0385168085529252808320805460ff1916905551339285917ff6391f5c32d9c69d2a47ea670b442974b53935d1edc7fd64eb21e047a839171b9190a45050565b7f189ab7a9244df0848122154315af71fe140f3db0fe014031783b0946b8c9d2e36105f681336113ac565b7f4910fdfa16fed3260ed0e7147f7cc6da11a60208b5b9406d12a635614ffd91435460ff161561155b5761057283611dee565b826001600160a01b03166352d1902d6040518163ffffffff1660e01b815260040160206040518083038186803b15801561159457600080fd5b505afa9250505080156115c4575060408051601f3d908101601f191682019092526115c191810190612262565b60015b6116275760405162461bcd60e51b815260206004820152602e60248201527f45524331393637557067726164653a206e657720696d706c656d656e7461746960448201526d6f6e206973206e6f74205555505360901b60648201526084016105e3565b6000805160206127c283398151915281146116965760405162461bcd60e51b815260206004820152602960248201527f45524331393637557067726164653a20756e737570706f727465642070726f786044820152681a58589b195555525160ba1b60648201526084016105e3565b50610572838383611e8a565b600054610100900460ff166116bd5760005460ff16156116c1565b303b155b6116dd5760405162461bcd60e51b81526004016105e3906124a8565b600054610100900460ff161580156116ff576000805461ffff19166101011790555b611707611eb5565b61170f611eb5565b61171a600033611410565b610b0f7f189ab7a9244df0848122154315af71fe140f3db0fe014031783b0946b8c9d2e333611410565b61012d546001600160a01b038381169116146117725760405162461bcd60e51b81526004016105e390612524565b61012d546101315460405163095ea7b360e01b81526001600160a01b0391821660048201526024810184905291169063095ea7b390604401602060405180830381600087803b1580156117c457600080fd5b505af11580156117d8573d6000803e3d6000fd5b505050506040513d601f19601f820116820180604052508101906117fc919061222c565b506101315461012e5461012f54604051630e42fa7f60e21b81526001600160a01b03928316600482015260248101859052908216604482015291169063390be9fc90606401602060405180830381600087803b15801561185b57600080fd5b505af115801561186f573d6000803e3d6000fd5b505050506040513d601f19601f820116820180604052508101906105729190612262565b61012d546000906001600160a01b038481169116146118c45760405162461bcd60e51b81526004016105e390612524565b61012e546040516370a0823160e01b81523060048201526000916001600160a01b0316906370a082319060240160206040518083038186803b15801561190957600080fd5b505afa15801561191d573d6000803e3d6000fd5b505050506040513d601f19601f820116820180604052508101906119419190612262565b61012e546101315460405163095ea7b360e01b81526001600160a01b03918216600482015260248101849052929350169063095ea7b390604401602060405180830381600087803b15801561199557600080fd5b505af11580156119a9573d6000803e3d6000fd5b505050506040513d601f19601f820116820180604052508101906119cd919061222c565b506101315461012e54604051636cb58c9360e01b81526001600160a01b039182166004820152602481018490526000929190911690636cb58c9390604401602060405180830381600087803b158015611a2557600080fd5b505af1158015611a39573d6000803e3d6000fd5b505050506040513d601f19601f820116820180604052508101906113a39190612262565b61012d546000906001600160a01b03858116911614611a8e5760405162461bcd60e51b81526004016105e390612524565b61012e5460405163db160f7560e01b8152600481018590526000916103e8916001600160a01b039091169063db160f7590602401602060405180830381600087803b158015611adc57600080fd5b505af1158015611af0573d6000803e3d6000fd5b505050506040513d601f19601f82011682018060405250810190611b149190612262565b611b20906103e96126ba565b611b2a91906125aa565b61012e546101315460405163095ea7b360e01b81526001600160a01b03918216600482015260248101849052929350169063095ea7b390604401602060405180830381600087803b158015611b7e57600080fd5b505af1158015611b92573d6000803e3d6000fd5b505050506040513d601f19601f82011682018060405250810190611bb6919061222c565b506101315461012e54604051636cb58c9360e01b81526001600160a01b039182166004820152602481018490526000929190911690636cb58c9390604401602060405180830381600087803b158015611c0e57600080fd5b505af1158015611c22573d6000803e3d6000fd5b505050506040513d601f19601f82011682018060405250810190611c469190612262565b925050505b9392505050565b60606000611c618360026126ba565b611c6c906002612592565b67ffffffffffffffff811115611c8457611c84612768565b6040519080825280601f01601f191660200182016040528015611cae576020820181803683370190505b509050600360fc1b81600081518110611cc957611cc9612752565b60200101906001600160f81b031916908160001a905350600f60fb1b81600181518110611cf857611cf8612752565b60200101906001600160f81b031916908160001a9053506000611d1c8460026126ba565b611d27906001612592565b90505b6001811115611d9f576f181899199a1a9b1b9c1cb0b131b232b360811b85600f1660108110611d5b57611d5b612752565b1a60f81b828281518110611d7157611d71612752565b60200101906001600160f81b031916908160001a90535060049490941c93611d9881612705565b9050611d2a565b508315611c4b5760405162461bcd60e51b815260206004820181905260248201527f537472696e67733a20686578206c656e67746820696e73756666696369656e7460448201526064016105e3565b6001600160a01b0381163b611e5b5760405162461bcd60e51b815260206004820152602d60248201527f455243313936373a206e657720696d706c656d656e746174696f6e206973206e60448201526c1bdd08184818dbdb9d1c9858dd609a1b60648201526084016105e3565b6000805160206127c283398151915280546001600160a01b0319166001600160a01b0392909216919091179055565b611e9383611f22565b600082511180611ea05750805b1561057257611eaf8383611f62565b50505050565b600054610100900460ff16611f205760405162461bcd60e51b815260206004820152602b60248201527f496e697469616c697a61626c653a20636f6e7472616374206973206e6f74206960448201526a6e697469616c697a696e6760a81b60648201526084016105e3565b565b611f2b81611dee565b6040516001600160a01b038216907fbc7cd75a20ee27fd9adebab32041f755214dbc6bffa90cc0225b39da2e5c2d3b90600090a250565b60606001600160a01b0383163b611fca5760405162461bcd60e51b815260206004820152602660248201527f416464726573733a2064656c65676174652063616c6c20746f206e6f6e2d636f6044820152651b9d1c9858dd60d21b60648201526084016105e3565b600080846001600160a01b031684604051611fe59190612315565b600060405180830381855af49150503d8060008114612020576040519150601f19603f3d011682016040523d82523d6000602084013e612025565b606091505b50915091506113a382826040518060600160405280602781526020016127e26027913960608315612057575081611c4b565b8251156120675782518084602001fd5b8160405162461bcd60e51b81526004016105e391906123a6565b60006020828403121561209357600080fd5b8135611c4b8161277e565b6000806000606084860312156120b357600080fd5b83356120be8161277e565b925060208401356120ce8161277e565b915060408401356120de8161277e565b809150509250925092565b600080604083850312156120fc57600080fd5b82356121078161277e565b9150602083013567ffffffffffffffff8082111561212457600080fd5b818501915085601f83011261213857600080fd5b81358181111561214a5761214a612768565b604051601f8201601f19908116603f0116810190838211818310171561217257612172612768565b8160405282815288602084870101111561218b57600080fd5b8260208601602083013760006020848301015280955050505050509250929050565b600080604083850312156121c057600080fd5b82356121cb8161277e565b946020939093013593505050565b600080600080608085870312156121ef57600080fd5b84356121fa8161277e565b93506020850135925060408501356122118161277e565b9150606085013561222181612793565b939692955090935050565b60006020828403121561223e57600080fd5b8151611c4b81612793565b60006020828403121561225b57600080fd5b5035919050565b60006020828403121561227457600080fd5b5051919050565b6000806040838503121561228e57600080fd5b8235915060208301356122a08161277e565b809150509250929050565b6000602082840312156122bd57600080fd5b81356001600160e01b031981168114611c4b57600080fd5b6000602082840312156122e757600080fd5b8151611c4b8161277e565b60006020828403121561230457600080fd5b815160ff81168114611c4b57600080fd5b600082516123278184602087016126d9565b9190910192915050565b7f416363657373436f6e74726f6c3a206163636f756e74200000000000000000008152600083516123698160178501602088016126d9565b7001034b99036b4b9b9b4b733903937b6329607d1b601791840191820152835161239a8160288401602088016126d9565b01602801949350505050565b60208152600082518060208401526123c58160408501602087016126d9565b601f01601f19169190910160400192915050565b6020808252601f908201527f5265737472696374656420746f20504f5254464f4c494f5f4d414e4147455200604082015260600190565b6020808252602c908201527f46756e6374696f6e206d7573742062652063616c6c6564207468726f7567682060408201526b19195b1959d85d1958d85b1b60a21b606082015260800190565b6020808252602c908201527f46756e6374696f6e206d7573742062652063616c6c6564207468726f7567682060408201526b6163746976652070726f787960a01b606082015260800190565b6020808252602e908201527f496e697469616c697a61626c653a20636f6e747261637420697320616c72656160408201526d191e481a5b9a5d1a585b1a5e995960921b606082015260800190565b6020808252601490820152735265737472696374656420746f2061646d696e7360601b604082015260600190565b60208082526019908201527f536f6d6520746f6b656e206e6f7420636f6d70617469626c6500000000000000604082015260600190565b60208082526018908201527f5a65726f2061646472657373206e6f7420616c6c6f7765640000000000000000604082015260600190565b600082198211156125a5576125a561273c565b500190565b6000826125c757634e487b7160e01b600052601260045260246000fd5b500490565b600181815b808511156126075781600019048211156125ed576125ed61273c565b808516156125fa57918102915b93841c93908002906125d1565b509250929050565b6000611c4b60ff84168360008261262857506001610537565b8161263557506000610537565b816001811461264b576002811461265557612671565b6001915050610537565b60ff8411156126665761266661273c565b50506001821b610537565b5060208310610133831016604e8410600b8410161715612694575081810a610537565b61269e83836125cc565b80600019048211156126b2576126b261273c565b029392505050565b60008160001904831182151516156126d4576126d461273c565b500290565b60005b838110156126f45781810151838201526020016126dc565b83811115611eaf5750506000910152565b6000816127145761271461273c565b506000190190565b600060ff821660ff8114156127335761273361273c565b60010192915050565b634e487b7160e01b600052601160045260246000fd5b634e487b7160e01b600052603260045260246000fd5b634e487b7160e01b600052604160045260246000fd5b6001600160a01b03811681146106d757600080fd5b80151581146106d757600080fdfe90c2aa7471c04182221f68e80c07ab1e5946e4c63f8693e14ca40385d529f051360894a13ba1a3210667c828492db98dca3e2076cc3735a920a3ca505d382bbc416464726573733a206c6f772d6c6576656c2064656c65676174652063616c6c206661696c6564a2646970667358221220f12d88c6673684b64b2d3c39d25da154ac23a706a6f663371a0de808c104cff564736f6c63430008060033",
  "devdoc": {
    "kind": "dev",
    "methods": {
      "constructor": {
        "custom:oz-upgrades-unsafe-allow": "constructor"
      },
      "getRoleAdmin(bytes32)": {
        "details": "Returns the admin role that controls `role`. See {grantRole} and {revokeRole}. To change a role's admin, use {_setRoleAdmin}."
      },
      "grantRole(bytes32,address)": {
        "details": "Grants `role` to `account`. If `account` had not been already granted `role`, emits a {RoleGranted} event. Requirements: - the caller must have ``role``'s admin role."
      },
      "hasRole(bytes32,address)": {
        "details": "Returns `true` if `account` has been granted `role`."
      },
      "proxiableUUID()": {
        "details": "Implementation of the ERC1822 {proxiableUUID} function. This returns the storage slot used by the implementation. It is used to validate that the this implementation remains valid after an upgrade. IMPORTANT: A proxy pointing at a proxiable contract should not be considered proxiable itself, because this risks bricking a proxy that upgrades to it, by delegating to itself until out of gas. Thus it is critical that this function revert if invoked through a proxy. This is guaranteed by the `notDelegated` modifier."
      },
      "renounceRole(bytes32,address)": {
        "details": "Revokes `role` from the calling account. Roles are often managed via {grantRole} and {revokeRole}: this function's purpose is to provide a mechanism for accounts to lose their privileges if they are compromised (such as when a trusted device is misplaced). If the calling account had been revoked `role`, emits a {RoleRevoked} event. Requirements: - the caller must be `account`."
      },
      "revokeRole(bytes32,address)": {
        "details": "Revokes `role` from `account`. If `account` had been granted `role`, emits a {RoleRevoked} event. Requirements: - the caller must have ``role``'s admin role."
      },
      "supportsInterface(bytes4)": {
        "details": "See {IERC165-supportsInterface}."
      },
      "upgradeTo(address)": {
        "details": "Upgrade the implementation of the proxy to `newImplementation`. Calls {_authorizeUpgrade}. Emits an {Upgraded} event."
      },
      "upgradeToAndCall(address,bytes)": {
        "details": "Upgrade the implementation of the proxy to `newImplementation`, and subsequently execute the function call encoded in `data`. Calls {_authorizeUpgrade}. Emits an {Upgraded} event."
      }
    },
    "version": 1
  },
  "userdoc": {
    "kind": "user",
    "methods": {},
    "version": 1
  },
  "storageLayout": {
    "storage": [
      {
        "astId": 797,
        "contract": "contracts/StrategyTarotSupplyVaultUsdc.sol:StrategyTarotSupplyVaultUsdc",
        "label": "_initialized",
        "offset": 0,
        "slot": "0",
        "type": "t_bool"
      },
      {
        "astId": 800,
        "contract": "contracts/StrategyTarotSupplyVaultUsdc.sol:StrategyTarotSupplyVaultUsdc",
        "label": "_initializing",
        "offset": 1,
        "slot": "0",
        "type": "t_bool"
      },
      {
        "astId": 1284,
        "contract": "contracts/StrategyTarotSupplyVaultUsdc.sol:StrategyTarotSupplyVaultUsdc",
        "label": "__gap",
        "offset": 0,
        "slot": "1",
        "type": "t_array(t_uint256)50_storage"
      },
      {
        "astId": 1591,
        "contract": "contracts/StrategyTarotSupplyVaultUsdc.sol:StrategyTarotSupplyVaultUsdc",
        "label": "__gap",
        "offset": 0,
        "slot": "51",
        "type": "t_array(t_uint256)50_storage"
      },
      {
        "astId": 39,
        "contract": "contracts/StrategyTarotSupplyVaultUsdc.sol:StrategyTarotSupplyVaultUsdc",
        "label": "_roles",
        "offset": 0,
        "slot": "101",
        "type": "t_mapping(t_bytes32,t_struct(RoleData)34_storage)"
      },
      {
        "astId": 327,
        "contract": "contracts/StrategyTarotSupplyVaultUsdc.sol:StrategyTarotSupplyVaultUsdc",
        "label": "__gap",
        "offset": 0,
        "slot": "102",
        "type": "t_array(t_uint256)49_storage"
      },
      {
        "astId": 779,
        "contract": "contracts/StrategyTarotSupplyVaultUsdc.sol:StrategyTarotSupplyVaultUsdc",
        "label": "__gap",
        "offset": 0,
        "slot": "151",
        "type": "t_array(t_uint256)50_storage"
      },
      {
        "astId": 999,
        "contract": "contracts/StrategyTarotSupplyVaultUsdc.sol:StrategyTarotSupplyVaultUsdc",
        "label": "__gap",
        "offset": 0,
        "slot": "201",
        "type": "t_array(t_uint256)50_storage"
      },
      {
        "astId": 13449,
        "contract": "contracts/StrategyTarotSupplyVaultUsdc.sol:StrategyTarotSupplyVaultUsdc",
        "label": "portfolioManager",
        "offset": 0,
        "slot": "251",
        "type": "t_address"
      },
      {
        "astId": 13727,
        "contract": "contracts/StrategyTarotSupplyVaultUsdc.sol:StrategyTarotSupplyVaultUsdc",
        "label": "__gap",
        "offset": 0,
        "slot": "252",
        "type": "t_array(t_uint256)49_storage"
      },
      {
        "astId": 8191,
        "contract": "contracts/StrategyTarotSupplyVaultUsdc.sol:StrategyTarotSupplyVaultUsdc",
        "label": "usdcToken",
        "offset": 0,
        "slot": "301",
        "type": "t_contract(IERC20)2415"
      },
      {
        "astId": 8194,
        "contract": "contracts/StrategyTarotSupplyVaultUsdc.sol:StrategyTarotSupplyVaultUsdc",
        "label": "tUsdcToken",
        "offset": 0,
        "slot": "302",
        "type": "t_contract(ISupplyVault)12836"
      },
      {
        "astId": 8197,
        "contract": "contracts/StrategyTarotSupplyVaultUsdc.sol:StrategyTarotSupplyVaultUsdc",
        "label": "bTarotSpiritToken",
        "offset": 0,
        "slot": "303",
        "type": "t_contract(IBorrowable)12198"
      },
      {
        "astId": 8199,
        "contract": "contracts/StrategyTarotSupplyVaultUsdc.sol:StrategyTarotSupplyVaultUsdc",
        "label": "bTarotSpiritTokenDenominator",
        "offset": 0,
        "slot": "304",
        "type": "t_uint256"
      },
      {
        "astId": 8202,
        "contract": "contracts/StrategyTarotSupplyVaultUsdc.sol:StrategyTarotSupplyVaultUsdc",
        "label": "tarotSupplyVaultRouter",
        "offset": 0,
        "slot": "305",
        "type": "t_contract(ISupplyVaultRouter01)12921"
      }
    ],
    "types": {
      "t_address": {
        "encoding": "inplace",
        "label": "address",
        "numberOfBytes": "20"
      },
      "t_array(t_uint256)49_storage": {
        "base": "t_uint256",
        "encoding": "inplace",
        "label": "uint256[49]",
        "numberOfBytes": "1568"
      },
      "t_array(t_uint256)50_storage": {
        "base": "t_uint256",
        "encoding": "inplace",
        "label": "uint256[50]",
        "numberOfBytes": "1600"
      },
      "t_bool": {
        "encoding": "inplace",
        "label": "bool",
        "numberOfBytes": "1"
      },
      "t_bytes32": {
        "encoding": "inplace",
        "label": "bytes32",
        "numberOfBytes": "32"
      },
      "t_contract(IBorrowable)12198": {
        "encoding": "inplace",
        "label": "contract IBorrowable",
        "numberOfBytes": "20"
      },
      "t_contract(IERC20)2415": {
        "encoding": "inplace",
        "label": "contract IERC20",
        "numberOfBytes": "20"
      },
      "t_contract(ISupplyVault)12836": {
        "encoding": "inplace",
        "label": "contract ISupplyVault",
        "numberOfBytes": "20"
      },
      "t_contract(ISupplyVaultRouter01)12921": {
        "encoding": "inplace",
        "label": "contract ISupplyVaultRouter01",
        "numberOfBytes": "20"
      },
      "t_mapping(t_address,t_bool)": {
        "encoding": "mapping",
        "key": "t_address",
        "label": "mapping(address => bool)",
        "numberOfBytes": "32",
        "value": "t_bool"
      },
      "t_mapping(t_bytes32,t_struct(RoleData)34_storage)": {
        "encoding": "mapping",
        "key": "t_bytes32",
        "label": "mapping(bytes32 => struct AccessControlUpgradeable.RoleData)",
        "numberOfBytes": "32",
        "value": "t_struct(RoleData)34_storage"
      },
      "t_struct(RoleData)34_storage": {
        "encoding": "inplace",
        "label": "struct AccessControlUpgradeable.RoleData",
        "members": [
          {
            "astId": 31,
            "contract": "contracts/StrategyTarotSupplyVaultUsdc.sol:StrategyTarotSupplyVaultUsdc",
            "label": "members",
            "offset": 0,
            "slot": "0",
            "type": "t_mapping(t_address,t_bool)"
          },
          {
            "astId": 33,
            "contract": "contracts/StrategyTarotSupplyVaultUsdc.sol:StrategyTarotSupplyVaultUsdc",
            "label": "adminRole",
            "offset": 0,
            "slot": "1",
            "type": "t_bytes32"
          }
        ],
        "numberOfBytes": "64"
      },
      "t_uint256": {
        "encoding": "inplace",
        "label": "uint256",
        "numberOfBytes": "32"
      }
    }
  }
}