{
  "address": "0x448e87779345cc2a4b3772DfD0f63200837B2615",
  "abi": [
    {
      "inputs": [],
      "stateMutability": "nonpayable",
      "type": "constructor"
    },
    {
      "anonymous": false,
      "inputs": [
        {
          "indexed": false,
          "internalType": "address",
          "name": "previousAdmin",
          "type": "address"
        },
        {
          "indexed": false,
          "internalType": "address",
          "name": "newAdmin",
          "type": "address"
        }
      ],
      "name": "AdminChanged",
      "type": "event"
    },
    {
      "anonymous": false,
      "inputs": [
        {
          "indexed": true,
          "internalType": "address",
          "name": "beacon",
          "type": "address"
        }
      ],
      "name": "BeaconUpgraded",
      "type": "event"
    },
    {
      "anonymous": false,
      "inputs": [
        {
          "indexed": false,
          "internalType": "address",
          "name": "value",
          "type": "address"
        }
      ],
      "name": "PortfolioManagerUpdated",
      "type": "event"
    },
    {
      "anonymous": false,
      "inputs": [
        {
          "indexed": false,
          "internalType": "uint256",
          "name": "amount",
          "type": "uint256"
        }
      ],
      "name": "Reward",
      "type": "event"
    },
    {
      "anonymous": false,
      "inputs": [
        {
          "indexed": true,
          "internalType": "bytes32",
          "name": "role",
          "type": "bytes32"
        },
        {
          "indexed": true,
          "internalType": "bytes32",
          "name": "previousAdminRole",
          "type": "bytes32"
        },
        {
          "indexed": true,
          "internalType": "bytes32",
          "name": "newAdminRole",
          "type": "bytes32"
        }
      ],
      "name": "RoleAdminChanged",
      "type": "event"
    },
    {
      "anonymous": false,
      "inputs": [
        {
          "indexed": true,
          "internalType": "bytes32",
          "name": "role",
          "type": "bytes32"
        },
        {
          "indexed": true,
          "internalType": "address",
          "name": "account",
          "type": "address"
        },
        {
          "indexed": true,
          "internalType": "address",
          "name": "sender",
          "type": "address"
        }
      ],
      "name": "RoleGranted",
      "type": "event"
    },
    {
      "anonymous": false,
      "inputs": [
        {
          "indexed": true,
          "internalType": "bytes32",
          "name": "role",
          "type": "bytes32"
        },
        {
          "indexed": true,
          "internalType": "address",
          "name": "account",
          "type": "address"
        },
        {
          "indexed": true,
          "internalType": "address",
          "name": "sender",
          "type": "address"
        }
      ],
      "name": "RoleRevoked",
      "type": "event"
    },
    {
      "anonymous": false,
      "inputs": [
        {
          "indexed": false,
          "internalType": "uint256",
          "name": "amount",
          "type": "uint256"
        }
      ],
      "name": "Stake",
      "type": "event"
    },
    {
      "anonymous": false,
      "inputs": [
        {
          "indexed": false,
          "internalType": "address",
          "name": "aaveProvider",
          "type": "address"
        }
      ],
      "name": "StrategyAaveUpdatedParams",
      "type": "event"
    },
    {
      "anonymous": false,
      "inputs": [
        {
          "indexed": false,
          "internalType": "address",
          "name": "usdcToken",
          "type": "address"
        },
        {
          "indexed": false,
          "internalType": "address",
          "name": "aUsdcToken",
          "type": "address"
        }
      ],
      "name": "StrategyAaveUpdatedTokens",
      "type": "event"
    },
    {
      "anonymous": false,
      "inputs": [
        {
          "indexed": false,
          "internalType": "uint256",
          "name": "amount",
          "type": "uint256"
        },
        {
          "indexed": false,
          "internalType": "uint256",
          "name": "amountReceived",
          "type": "uint256"
        }
      ],
      "name": "Unstake",
      "type": "event"
    },
    {
      "anonymous": false,
      "inputs": [
        {
          "indexed": true,
          "internalType": "address",
          "name": "implementation",
          "type": "address"
        }
      ],
      "name": "Upgraded",
      "type": "event"
    },
    {
      "inputs": [],
      "name": "DEFAULT_ADMIN_ROLE",
      "outputs": [
        {
          "internalType": "bytes32",
          "name": "",
          "type": "bytes32"
        }
      ],
      "stateMutability": "view",
      "type": "function"
    },
    {
      "inputs": [],
      "name": "PORTFOLIO_MANAGER",
      "outputs": [
        {
          "internalType": "bytes32",
          "name": "",
          "type": "bytes32"
        }
      ],
      "stateMutability": "view",
      "type": "function"
    },
    {
      "inputs": [],
      "name": "UPGRADER_ROLE",
      "outputs": [
        {
          "internalType": "bytes32",
          "name": "",
          "type": "bytes32"
        }
      ],
      "stateMutability": "view",
      "type": "function"
    },
    {
      "inputs": [],
      "name": "aUsdcToken",
      "outputs": [
        {
          "internalType": "contract IERC20",
          "name": "",
          "type": "address"
        }
      ],
      "stateMutability": "view",
      "type": "function"
    },
    {
      "inputs": [],
      "name": "aaveProvider",
      "outputs": [
        {
          "internalType": "contract IPoolAddressesProvider",
          "name": "",
          "type": "address"
        }
      ],
      "stateMutability": "view",
      "type": "function"
    },
    {
      "inputs": [
        {
          "internalType": "address",
          "name": "_to",
          "type": "address"
        }
      ],
      "name": "claimRewards",
      "outputs": [
        {
          "internalType": "uint256",
          "name": "",
          "type": "uint256"
        }
      ],
      "stateMutability": "nonpayable",
      "type": "function"
    },
    {
      "inputs": [
        {
          "internalType": "bytes32",
          "name": "role",
          "type": "bytes32"
        }
      ],
      "name": "getRoleAdmin",
      "outputs": [
        {
          "internalType": "bytes32",
          "name": "",
          "type": "bytes32"
        }
      ],
      "stateMutability": "view",
      "type": "function"
    },
    {
      "inputs": [
        {
          "internalType": "bytes32",
          "name": "role",
          "type": "bytes32"
        },
        {
          "internalType": "address",
          "name": "account",
          "type": "address"
        }
      ],
      "name": "grantRole",
      "outputs": [],
      "stateMutability": "nonpayable",
      "type": "function"
    },
    {
      "inputs": [
        {
          "internalType": "bytes32",
          "name": "role",
          "type": "bytes32"
        },
        {
          "internalType": "address",
          "name": "account",
          "type": "address"
        }
      ],
      "name": "hasRole",
      "outputs": [
        {
          "internalType": "bool",
          "name": "",
          "type": "bool"
        }
      ],
      "stateMutability": "view",
      "type": "function"
    },
    {
      "inputs": [],
      "name": "initialize",
      "outputs": [],
      "stateMutability": "nonpayable",
      "type": "function"
    },
    {
      "inputs": [],
      "name": "liquidationValue",
      "outputs": [
        {
          "internalType": "uint256",
          "name": "",
          "type": "uint256"
        }
      ],
      "stateMutability": "view",
      "type": "function"
    },
    {
      "inputs": [],
      "name": "netAssetValue",
      "outputs": [
        {
          "internalType": "uint256",
          "name": "",
          "type": "uint256"
        }
      ],
      "stateMutability": "view",
      "type": "function"
    },
    {
      "inputs": [],
      "name": "portfolioManager",
      "outputs": [
        {
          "internalType": "address",
          "name": "",
          "type": "address"
        }
      ],
      "stateMutability": "view",
      "type": "function"
    },
    {
      "inputs": [],
      "name": "proxiableUUID",
      "outputs": [
        {
          "internalType": "bytes32",
          "name": "",
          "type": "bytes32"
        }
      ],
      "stateMutability": "view",
      "type": "function"
    },
    {
      "inputs": [
        {
          "internalType": "bytes32",
          "name": "role",
          "type": "bytes32"
        },
        {
          "internalType": "address",
          "name": "account",
          "type": "address"
        }
      ],
      "name": "renounceRole",
      "outputs": [],
      "stateMutability": "nonpayable",
      "type": "function"
    },
    {
      "inputs": [
        {
          "internalType": "bytes32",
          "name": "role",
          "type": "bytes32"
        },
        {
          "internalType": "address",
          "name": "account",
          "type": "address"
        }
      ],
      "name": "revokeRole",
      "outputs": [],
      "stateMutability": "nonpayable",
      "type": "function"
    },
    {
      "inputs": [
        {
          "internalType": "address",
          "name": "_aaveProvider",
          "type": "address"
        }
      ],
      "name": "setParams",
      "outputs": [],
      "stateMutability": "nonpayable",
      "type": "function"
    },
    {
      "inputs": [
        {
          "internalType": "address",
          "name": "_value",
          "type": "address"
        }
      ],
      "name": "setPortfolioManager",
      "outputs": [],
      "stateMutability": "nonpayable",
      "type": "function"
    },
    {
      "inputs": [
        {
          "internalType": "address",
          "name": "_usdcToken",
          "type": "address"
        },
        {
          "internalType": "address",
          "name": "_aUsdcToken",
          "type": "address"
        }
      ],
      "name": "setTokens",
      "outputs": [],
      "stateMutability": "nonpayable",
      "type": "function"
    },
    {
      "inputs": [
        {
          "internalType": "address",
          "name": "_asset",
          "type": "address"
        },
        {
          "internalType": "uint256",
          "name": "_amount",
          "type": "uint256"
        }
      ],
      "name": "stake",
      "outputs": [],
      "stateMutability": "nonpayable",
      "type": "function"
    },
    {
      "inputs": [
        {
          "internalType": "bytes4",
          "name": "interfaceId",
          "type": "bytes4"
        }
      ],
      "name": "supportsInterface",
      "outputs": [
        {
          "internalType": "bool",
          "name": "",
          "type": "bool"
        }
      ],
      "stateMutability": "view",
      "type": "function"
    },
    {
      "inputs": [
        {
          "internalType": "address",
          "name": "_asset",
          "type": "address"
        },
        {
          "internalType": "uint256",
          "name": "_amount",
          "type": "uint256"
        },
        {
          "internalType": "address",
          "name": "_beneficiary",
          "type": "address"
        },
        {
          "internalType": "bool",
          "name": "_targetIsZero",
          "type": "bool"
        }
      ],
      "name": "unstake",
      "outputs": [
        {
          "internalType": "uint256",
          "name": "",
          "type": "uint256"
        }
      ],
      "stateMutability": "nonpayable",
      "type": "function"
    },
    {
      "inputs": [
        {
          "internalType": "address",
          "name": "newImplementation",
          "type": "address"
        }
      ],
      "name": "upgradeTo",
      "outputs": [],
      "stateMutability": "nonpayable",
      "type": "function"
    },
    {
      "inputs": [
        {
          "internalType": "address",
          "name": "newImplementation",
          "type": "address"
        },
        {
          "internalType": "bytes",
          "name": "data",
          "type": "bytes"
        }
      ],
      "name": "upgradeToAndCall",
      "outputs": [],
      "stateMutability": "payable",
      "type": "function"
    },
    {
      "inputs": [],
      "name": "usdcToken",
      "outputs": [
        {
          "internalType": "contract IERC20",
          "name": "",
          "type": "address"
        }
      ],
      "stateMutability": "view",
      "type": "function"
    }
  ],
  "numDeployments": 1,
  "solcInputHash": "17bec5a5db63c378ad30b852e6abf5b4",
  "bytecode": "0x60a06040523060601b6080523480156200001857600080fd5b50600054610100900460ff16620000365760005460ff161562000040565b62000040620000e5565b620000a85760405162461bcd60e51b815260206004820152602e60248201527f496e697469616c697a61626c653a20636f6e747261637420697320616c72656160448201526d191e481a5b9a5d1a585b1a5e995960921b606482015260840160405180910390fd5b600054610100900460ff16158015620000cb576000805461ffff19166101011790555b8015620000de576000805461ff00191690555b5062000112565b6000620000fd306200010360201b62000ee91760201c565b15905090565b6001600160a01b03163b151590565b60805160601c6122f36200014d6000396000818161060a0152818161064a0152818161078d015281816107cd015261085c01526122f36000f3fe6080604052600436106101665760003560e01c80638129fc1c116100d1578063adc9772e1161008a578063d547741f11610064578063d547741f14610404578063ef5cfb8c14610424578063f6f6b88114610444578063f72c0d8b1461046457600080fd5b8063adc9772e146103a3578063cbc7854e146103c3578063cc3d6cf7146103e357600080fd5b80638129fc1c1461031857806387429a9c1461032d57806391d148541461034e578063a217fddf1461036e578063a3673b3814610217578063a440b21a1461038357600080fd5b80633659cfe6116101235780633659cfe61461026e5780634e49acac1461028e5780634f1ef286146102ae57806352d1902d146102c1578063620b75df146102d65780637d5f5802146102f657600080fd5b806301ffc9a71461016b57806311eac855146101a0578063248a9ca3146101d95780632576e65a146102175780632f2ff15d1461022c57806336568abe1461024e575b600080fd5b34801561017757600080fd5b5061018b610186366004611ed0565b610498565b60405190151581526020015b60405180910390f35b3480156101ac57600080fd5b5061012d546101c1906001600160a01b031681565b6040516001600160a01b039091168152602001610197565b3480156101e557600080fd5b506102096101f4366004611e79565b60009081526065602052604090206001015490565b604051908152602001610197565b34801561022357600080fd5b506102096104cf565b34801561023857600080fd5b5061024c610247366004611eab565b610551565b005b34801561025a57600080fd5b5061024c610269366004611eab565b61057c565b34801561027a57600080fd5b5061024c610289366004611ca6565b6105ff565b34801561029a57600080fd5b5061024c6102a9366004611ca6565b6106df565b61024c6102bc366004611d19565b610782565b3480156102cd57600080fd5b5061020961084f565b3480156102e257600080fd5b5060fb546101c1906001600160a01b031681565b34801561030257600080fd5b5061020960008051602061225783398151915281565b34801561032457600080fd5b5061024c610902565b34801561033957600080fd5b5061012f546101c1906001600160a01b031681565b34801561035a57600080fd5b5061018b610369366004611eab565b61097b565b34801561037a57600080fd5b50610209600081565b34801561038f57600080fd5b5061024c61039e366004611ca6565b6109a6565b3480156103af57600080fd5b5061024c6103be366004611ddd565b610a7e565b3480156103cf57600080fd5b5061024c6103de366004611ce0565b610b67565b3480156103ef57600080fd5b5061012e546101c1906001600160a01b031681565b34801561041057600080fd5b5061024c61041f366004611eab565b610c4a565b34801561043057600080fd5b5061020961043f366004611ca6565b610c70565b34801561045057600080fd5b5061020961045f366004611e09565b610ce7565b34801561047057600080fd5b506102097f189ab7a9244df0848122154315af71fe140f3db0fe014031783b0946b8c9d2e381565b60006001600160e01b03198216637965db0b60e01b14806104c957506301ffc9a760e01b6001600160e01b03198316145b92915050565b61012e546040516370a0823160e01b81523060048201526000916001600160a01b0316906370a082319060240160206040518083038186803b15801561051457600080fd5b505afa158015610528573d6000803e3d6000fd5b505050506040513d601f19601f8201168201806040525081019061054c9190611e92565b905090565b60008281526065602052604090206001015461056d8133610ef8565b6105778383610f5c565b505050565b6001600160a01b03811633146105f15760405162461bcd60e51b815260206004820152602f60248201527f416363657373436f6e74726f6c3a2063616e206f6e6c792072656e6f756e636560448201526e103937b632b9903337b91039b2b63360891b60648201526084015b60405180910390fd5b6105fb8282610fe2565b5050565b306001600160a01b037f00000000000000000000000000000000000000000000000000000000000000001614156106485760405162461bcd60e51b81526004016105e890611ff5565b7f00000000000000000000000000000000000000000000000000000000000000006001600160a01b0316610691600080516020612277833981519152546001600160a01b031690565b6001600160a01b0316146106b75760405162461bcd60e51b81526004016105e890612041565b6106c081611049565b604080516000808252602082019092526106dc91839190611074565b50565b6106ea60003361097b565b6107065760405162461bcd60e51b81526004016105e8906120db565b6001600160a01b03811661072c5760405162461bcd60e51b81526004016105e890612140565b61012f80546001600160a01b0319166001600160a01b0383169081179091556040519081527f965d63a2679401e09fd82b199270ff04cc99133b1043023e6bb9c09d54d2ec90906020015b60405180910390a150565b306001600160a01b037f00000000000000000000000000000000000000000000000000000000000000001614156107cb5760405162461bcd60e51b81526004016105e890611ff5565b7f00000000000000000000000000000000000000000000000000000000000000006001600160a01b0316610814600080516020612277833981519152546001600160a01b031690565b6001600160a01b03161461083a5760405162461bcd60e51b81526004016105e890612041565b61084382611049565b6105fb82826001611074565b6000306001600160a01b037f000000000000000000000000000000000000000000000000000000000000000016146108ef5760405162461bcd60e51b815260206004820152603860248201527f555550535570677261646561626c653a206d757374206e6f742062652063616c60448201527f6c6564207468726f7567682064656c656761746563616c6c000000000000000060648201526084016105e8565b5060008051602061227783398151915290565b600054610100900460ff1661091d5760005460ff1615610921565b303b155b61093d5760405162461bcd60e51b81526004016105e89061208d565b600054610100900460ff1615801561095f576000805461ffff19166101011790555b6109676111ee565b80156106dc576000805461ff001916905550565b60009182526065602090815260408084206001600160a01b0393909316845291905290205460ff1690565b6109b160003361097b565b6109cd5760405162461bcd60e51b81526004016105e8906120db565b6001600160a01b0381166109f35760405162461bcd60e51b81526004016105e890612140565b60fb54610a1890600080516020612257833981519152906001600160a01b0316610c4a565b610a3060008051602061225783398151915282610551565b60fb80546001600160a01b0319166001600160a01b0383169081179091556040519081527ff7b449fcd5cfb7379dcd34cb69428dd9f882033b15be33d83b42d91daa28eeb790602001610777565b610a966000805160206122578339815191523361097b565b610ab25760405162461bcd60e51b81526004016105e890611fbe565b6040518181527f227a473b70d2f893cc7659219575c030a63b5743024fe1e0c1a680e708b1525a9060200160405180910390a16040516370a0823160e01b81523060048201526105fb9083906001600160a01b038216906370a082319060240160206040518083038186803b158015610b2a57600080fd5b505afa158015610b3e573d6000803e3d6000fd5b505050506040513d601f19601f82011682018060405250810190610b629190611e92565b611290565b610b7260003361097b565b610b8e5760405162461bcd60e51b81526004016105e8906120db565b6001600160a01b038216610bb45760405162461bcd60e51b81526004016105e890612140565b6001600160a01b038116610bda5760405162461bcd60e51b81526004016105e890612140565b61012d80546001600160a01b038481166001600160a01b0319928316811790935561012e80549185169190921681179091556040805192835260208301919091527f16fc1d4b0e3d56ab080a0ba375c75439b7625fa20b3ea921fcee9660e842ee8f910160405180910390a15050565b600082815260656020526040902060010154610c668133610ef8565b6105778383610fe2565b6000610c8a6000805160206122578339815191523361097b565b610ca65760405162461bcd60e51b81526004016105e890611fbe565b60007f3ac0594a85a20354f9dc74f33728416d19ce00d04a406c108cc2dcf2cecea13481604051610cd991815260200190565b60405180910390a192915050565b6000610d016000805160206122578339815191523361097b565b610d1d5760405162461bcd60e51b81526004016105e890611fbe565b60008215610d3657610d2f868561143f565b9050610da5565b610d41868686611698565b905084811015610da55760405162461bcd60e51b815260206004820152602960248201527f52657475726e65642076616c7565206c657373207468616e2072657175657374604482015268195908185b5bdd5b9d60ba1b60648201526084016105e8565b6040516370a0823160e01b81523060048201526000906001600160a01b038816906370a082319060240160206040518083038186803b158015610de757600080fd5b505afa158015610dfb573d6000803e3d6000fd5b505050506040513d601f19601f82011682018060405250810190610e1f9190611e92565b60405163a9059cbb60e01b81526001600160a01b038781166004830152602482018390529192509088169063a9059cbb90604401602060405180830381600087803b158015610e6d57600080fd5b505af1158015610e81573d6000803e3d6000fd5b505050506040513d601f19601f82011682018060405250810190610ea59190611e5c565b5060408051878152602081018390527f9045c2ac9b2026de8075f2701bbdde882cd5e830b3b1ead9a15b22f2b5b93742910160405180910390a19695505050505050565b6001600160a01b03163b151590565b610f02828261097b565b6105fb57610f1a816001600160a01b03166014611869565b610f25836020611869565b604051602001610f36929190611f16565b60408051601f198184030181529082905262461bcd60e51b82526105e891600401611f8b565b610f66828261097b565b6105fb5760008281526065602090815260408083206001600160a01b03851684529091529020805460ff19166001179055610f9e3390565b6001600160a01b0316816001600160a01b0316837f2f8788117e7eff1d82e926ec794901d17c78024a50270940304540a733656f0d60405160405180910390a45050565b610fec828261097b565b156105fb5760008281526065602090815260408083206001600160a01b0385168085529252808320805460ff1916905551339285917ff6391f5c32d9c69d2a47ea670b442974b53935d1edc7fd64eb21e047a839171b9190a45050565b7f189ab7a9244df0848122154315af71fe140f3db0fe014031783b0946b8c9d2e36105fb8133610ef8565b7f4910fdfa16fed3260ed0e7147f7cc6da11a60208b5b9406d12a635614ffd91435460ff16156110a75761057783611a05565b826001600160a01b03166352d1902d6040518163ffffffff1660e01b815260040160206040518083038186803b1580156110e057600080fd5b505afa925050508015611110575060408051601f3d908101601f1916820190925261110d91810190611e92565b60015b6111735760405162461bcd60e51b815260206004820152602e60248201527f45524331393637557067726164653a206e657720696d706c656d656e7461746960448201526d6f6e206973206e6f74205555505360901b60648201526084016105e8565b60008051602061227783398151915281146111e25760405162461bcd60e51b815260206004820152602960248201527f45524331393637557067726164653a20756e737570706f727465642070726f786044820152681a58589b195555525160ba1b60648201526084016105e8565b50610577838383611aa1565b600054610100900460ff166112095760005460ff161561120d565b303b155b6112295760405162461bcd60e51b81526004016105e89061208d565b600054610100900460ff1615801561124b576000805461ffff19166101011790555b611253611acc565b61125b611acc565b611266600033610f5c565b6109677f189ab7a9244df0848122154315af71fe140f3db0fe014031783b0946b8c9d2e333610f5c565b61012d546001600160a01b038381169116146112be5760405162461bcd60e51b81526004016105e890612109565b61012f546040805163026b1d5f60e01b815290516000926001600160a01b03169163026b1d5f916004808301926020929190829003018186803b15801561130457600080fd5b505afa158015611318573d6000803e3d6000fd5b505050506040513d601f19601f8201168201806040525081019061133c9190611cc3565b61012d5460405163095ea7b360e01b81526001600160a01b0380841660048301526024820186905292935091169063095ea7b390604401602060405180830381600087803b15801561138d57600080fd5b505af11580156113a1573d6000803e3d6000fd5b505050506040513d601f19601f820116820180604052508101906113c59190611e5c565b5061012d5460405163e8eda9df60e01b81526001600160a01b03918216600482015260248101849052306044820152600060648201529082169063e8eda9df90608401600060405180830381600087803b15801561142257600080fd5b505af1158015611436573d6000803e3d6000fd5b50505050505050565b61012d546000906001600160a01b038481169116146114705760405162461bcd60e51b81526004016105e890612109565b61012e546040516370a0823160e01b81523060048201526000916001600160a01b0316906370a082319060240160206040518083038186803b1580156114b557600080fd5b505afa1580156114c9573d6000803e3d6000fd5b505050506040513d601f19601f820116820180604052508101906114ed9190611e92565b9050600061012f60009054906101000a90046001600160a01b03166001600160a01b031663026b1d5f6040518163ffffffff1660e01b815260040160206040518083038186803b15801561154057600080fd5b505afa158015611554573d6000803e3d6000fd5b505050506040513d601f19601f820116820180604052508101906115789190611cc3565b61012e5460405163095ea7b360e01b81526001600160a01b0380841660048301526024820186905292935091169063095ea7b390604401602060405180830381600087803b1580156115c957600080fd5b505af11580156115dd573d6000803e3d6000fd5b505050506040513d601f19601f820116820180604052508101906116019190611e5c565b50604051631a4ca37b60e21b81526001600160a01b03868116600483015260248201849052306044830152600091908316906369328dec90606401602060405180830381600087803b15801561165657600080fd5b505af115801561166a573d6000803e3d6000fd5b505050506040513d601f19601f8201168201806040525081019061168e9190611e92565b9695505050505050565b61012d546000906001600160a01b038581169116146116c95760405162461bcd60e51b81526004016105e890612109565b61012f546040805163026b1d5f60e01b815290516000926001600160a01b03169163026b1d5f916004808301926020929190829003018186803b15801561170f57600080fd5b505afa158015611723573d6000803e3d6000fd5b505050506040513d601f19601f820116820180604052508101906117479190611cc3565b61012e5460405163095ea7b360e01b81526001600160a01b0380841660048301526024820188905292935091169063095ea7b390604401602060405180830381600087803b15801561179857600080fd5b505af11580156117ac573d6000803e3d6000fd5b505050506040513d601f19601f820116820180604052508101906117d09190611e5c565b50604051631a4ca37b60e21b81526001600160a01b03868116600483015260248201869052306044830152600091908316906369328dec90606401602060405180830381600087803b15801561182557600080fd5b505af1158015611839573d6000803e3d6000fd5b505050506040513d601f19601f8201168201806040525081019061185d9190611e92565b925050505b9392505050565b6060600061187883600261218f565b611883906002612177565b67ffffffffffffffff81111561189b5761189b61221d565b6040519080825280601f01601f1916602001820160405280156118c5576020820181803683370190505b509050600360fc1b816000815181106118e0576118e0612207565b60200101906001600160f81b031916908160001a905350600f60fb1b8160018151811061190f5761190f612207565b60200101906001600160f81b031916908160001a905350600061193384600261218f565b61193e906001612177565b90505b60018111156119b6576f181899199a1a9b1b9c1cb0b131b232b360811b85600f166010811061197257611972612207565b1a60f81b82828151811061198857611988612207565b60200101906001600160f81b031916908160001a90535060049490941c936119af816121da565b9050611941565b5083156118625760405162461bcd60e51b815260206004820181905260248201527f537472696e67733a20686578206c656e67746820696e73756666696369656e7460448201526064016105e8565b6001600160a01b0381163b611a725760405162461bcd60e51b815260206004820152602d60248201527f455243313936373a206e657720696d706c656d656e746174696f6e206973206e60448201526c1bdd08184818dbdb9d1c9858dd609a1b60648201526084016105e8565b60008051602061227783398151915280546001600160a01b0319166001600160a01b0392909216919091179055565b611aaa83611b39565b600082511180611ab75750805b1561057757611ac68383611b79565b50505050565b600054610100900460ff16611b375760405162461bcd60e51b815260206004820152602b60248201527f496e697469616c697a61626c653a20636f6e7472616374206973206e6f74206960448201526a6e697469616c697a696e6760a81b60648201526084016105e8565b565b611b4281611a05565b6040516001600160a01b038216907fbc7cd75a20ee27fd9adebab32041f755214dbc6bffa90cc0225b39da2e5c2d3b90600090a250565b60606001600160a01b0383163b611be15760405162461bcd60e51b815260206004820152602660248201527f416464726573733a2064656c65676174652063616c6c20746f206e6f6e2d636f6044820152651b9d1c9858dd60d21b60648201526084016105e8565b600080846001600160a01b031684604051611bfc9190611efa565b600060405180830381855af49150503d8060008114611c37576040519150601f19603f3d011682016040523d82523d6000602084013e611c3c565b606091505b5091509150611c64828260405180606001604052806027815260200161229760279139611c6d565b95945050505050565b60608315611c7c575081611862565b825115611c8c5782518084602001fd5b8160405162461bcd60e51b81526004016105e89190611f8b565b600060208284031215611cb857600080fd5b813561186281612233565b600060208284031215611cd557600080fd5b815161186281612233565b60008060408385031215611cf357600080fd5b8235611cfe81612233565b91506020830135611d0e81612233565b809150509250929050565b60008060408385031215611d2c57600080fd5b8235611d3781612233565b9150602083013567ffffffffffffffff80821115611d5457600080fd5b818501915085601f830112611d6857600080fd5b813581811115611d7a57611d7a61221d565b604051601f8201601f19908116603f01168101908382118183101715611da257611da261221d565b81604052828152886020848701011115611dbb57600080fd5b8260208601602083013760006020848301015280955050505050509250929050565b60008060408385031215611df057600080fd5b8235611dfb81612233565b946020939093013593505050565b60008060008060808587031215611e1f57600080fd5b8435611e2a81612233565b9350602085013592506040850135611e4181612233565b91506060850135611e5181612248565b939692955090935050565b600060208284031215611e6e57600080fd5b815161186281612248565b600060208284031215611e8b57600080fd5b5035919050565b600060208284031215611ea457600080fd5b5051919050565b60008060408385031215611ebe57600080fd5b823591506020830135611d0e81612233565b600060208284031215611ee257600080fd5b81356001600160e01b03198116811461186257600080fd5b60008251611f0c8184602087016121ae565b9190910192915050565b7f416363657373436f6e74726f6c3a206163636f756e7420000000000000000000815260008351611f4e8160178501602088016121ae565b7001034b99036b4b9b9b4b733903937b6329607d1b6017918401918201528351611f7f8160288401602088016121ae565b01602801949350505050565b6020815260008251806020840152611faa8160408501602087016121ae565b601f01601f19169190910160400192915050565b6020808252601f908201527f5265737472696374656420746f20504f5254464f4c494f5f4d414e4147455200604082015260600190565b6020808252602c908201527f46756e6374696f6e206d7573742062652063616c6c6564207468726f7567682060408201526b19195b1959d85d1958d85b1b60a21b606082015260800190565b6020808252602c908201527f46756e6374696f6e206d7573742062652063616c6c6564207468726f7567682060408201526b6163746976652070726f787960a01b606082015260800190565b6020808252602e908201527f496e697469616c697a61626c653a20636f6e747261637420697320616c72656160408201526d191e481a5b9a5d1a585b1a5e995960921b606082015260800190565b6020808252601490820152735265737472696374656420746f2061646d696e7360601b604082015260600190565b60208082526019908201527f536f6d6520746f6b656e206e6f7420636f6d70617469626c6500000000000000604082015260600190565b60208082526018908201527f5a65726f2061646472657373206e6f7420616c6c6f7765640000000000000000604082015260600190565b6000821982111561218a5761218a6121f1565b500190565b60008160001904831182151516156121a9576121a96121f1565b500290565b60005b838110156121c95781810151838201526020016121b1565b83811115611ac65750506000910152565b6000816121e9576121e96121f1565b506000190190565b634e487b7160e01b600052601160045260246000fd5b634e487b7160e01b600052603260045260246000fd5b634e487b7160e01b600052604160045260246000fd5b6001600160a01b03811681146106dc57600080fd5b80151581146106dc57600080fdfe90c2aa7471c04182221f68e80c07ab1e5946e4c63f8693e14ca40385d529f051360894a13ba1a3210667c828492db98dca3e2076cc3735a920a3ca505d382bbc416464726573733a206c6f772d6c6576656c2064656c65676174652063616c6c206661696c6564a26469706673582212205da8f608912bb61b25db5e590d59b4619a8dd27d42c0df4d57d787a0e0d651a964736f6c63430008060033",
  "devdoc": {
    "kind": "dev",
    "methods": {
      "constructor": {
        "custom:oz-upgrades-unsafe-allow": "constructor"
      },
      "getRoleAdmin(bytes32)": {
        "details": "Returns the admin role that controls `role`. See {grantRole} and {revokeRole}. To change a role's admin, use {_setRoleAdmin}."
      },
      "grantRole(bytes32,address)": {
        "details": "Grants `role` to `account`. If `account` had not been already granted `role`, emits a {RoleGranted} event. Requirements: - the caller must have ``role``'s admin role."
      },
      "hasRole(bytes32,address)": {
        "details": "Returns `true` if `account` has been granted `role`."
      },
      "proxiableUUID()": {
        "details": "Implementation of the ERC1822 {proxiableUUID} function. This returns the storage slot used by the implementation. It is used to validate that the this implementation remains valid after an upgrade. IMPORTANT: A proxy pointing at a proxiable contract should not be considered proxiable itself, because this risks bricking a proxy that upgrades to it, by delegating to itself until out of gas. Thus it is critical that this function revert if invoked through a proxy. This is guaranteed by the `notDelegated` modifier."
      },
      "renounceRole(bytes32,address)": {
        "details": "Revokes `role` from the calling account. Roles are often managed via {grantRole} and {revokeRole}: this function's purpose is to provide a mechanism for accounts to lose their privileges if they are compromised (such as when a trusted device is misplaced). If the calling account had been revoked `role`, emits a {RoleRevoked} event. Requirements: - the caller must be `account`."
      },
      "revokeRole(bytes32,address)": {
        "details": "Revokes `role` from `account`. If `account` had been granted `role`, emits a {RoleRevoked} event. Requirements: - the caller must have ``role``'s admin role."
      },
      "supportsInterface(bytes4)": {
        "details": "See {IERC165-supportsInterface}."
      },
      "upgradeTo(address)": {
        "details": "Upgrade the implementation of the proxy to `newImplementation`. Calls {_authorizeUpgrade}. Emits an {Upgraded} event."
      },
      "upgradeToAndCall(address,bytes)": {
        "details": "Upgrade the implementation of the proxy to `newImplementation`, and subsequently execute the function call encoded in `data`. Calls {_authorizeUpgrade}. Emits an {Upgraded} event."
      }
    },
    "version": 1
  },
  "userdoc": {
    "kind": "user",
    "methods": {},
    "version": 1
  },
  "storageLayout": {
    "storage": [
      {
        "astId": 797,
        "contract": "contracts/StrategyAave.sol:StrategyAave",
        "label": "_initialized",
        "offset": 0,
        "slot": "0",
        "type": "t_bool"
      },
      {
        "astId": 800,
        "contract": "contracts/StrategyAave.sol:StrategyAave",
        "label": "_initializing",
        "offset": 1,
        "slot": "0",
        "type": "t_bool"
      },
      {
        "astId": 1284,
        "contract": "contracts/StrategyAave.sol:StrategyAave",
        "label": "__gap",
        "offset": 0,
        "slot": "1",
        "type": "t_array(t_uint256)50_storage"
      },
      {
        "astId": 1591,
        "contract": "contracts/StrategyAave.sol:StrategyAave",
        "label": "__gap",
        "offset": 0,
        "slot": "51",
        "type": "t_array(t_uint256)50_storage"
      },
      {
        "astId": 39,
        "contract": "contracts/StrategyAave.sol:StrategyAave",
        "label": "_roles",
        "offset": 0,
        "slot": "101",
        "type": "t_mapping(t_bytes32,t_struct(RoleData)34_storage)"
      },
      {
        "astId": 327,
        "contract": "contracts/StrategyAave.sol:StrategyAave",
        "label": "__gap",
        "offset": 0,
        "slot": "102",
        "type": "t_array(t_uint256)49_storage"
      },
      {
        "astId": 779,
        "contract": "contracts/StrategyAave.sol:StrategyAave",
        "label": "__gap",
        "offset": 0,
        "slot": "151",
        "type": "t_array(t_uint256)50_storage"
      },
      {
        "astId": 999,
        "contract": "contracts/StrategyAave.sol:StrategyAave",
        "label": "__gap",
        "offset": 0,
        "slot": "201",
        "type": "t_array(t_uint256)50_storage"
      },
      {
        "astId": 13449,
        "contract": "contracts/StrategyAave.sol:StrategyAave",
        "label": "portfolioManager",
        "offset": 0,
        "slot": "251",
        "type": "t_address"
      },
      {
        "astId": 13727,
        "contract": "contracts/StrategyAave.sol:StrategyAave",
        "label": "__gap",
        "offset": 0,
        "slot": "252",
        "type": "t_array(t_uint256)49_storage"
      },
      {
        "astId": 4105,
        "contract": "contracts/StrategyAave.sol:StrategyAave",
        "label": "usdcToken",
        "offset": 0,
        "slot": "301",
        "type": "t_contract(IERC20)2415"
      },
      {
        "astId": 4108,
        "contract": "contracts/StrategyAave.sol:StrategyAave",
        "label": "aUsdcToken",
        "offset": 0,
        "slot": "302",
        "type": "t_contract(IERC20)2415"
      },
      {
        "astId": 4111,
        "contract": "contracts/StrategyAave.sol:StrategyAave",
        "label": "aaveProvider",
        "offset": 0,
        "slot": "303",
        "type": "t_contract(IPoolAddressesProvider)9463"
      }
    ],
    "types": {
      "t_address": {
        "encoding": "inplace",
        "label": "address",
        "numberOfBytes": "20"
      },
      "t_array(t_uint256)49_storage": {
        "base": "t_uint256",
        "encoding": "inplace",
        "label": "uint256[49]",
        "numberOfBytes": "1568"
      },
      "t_array(t_uint256)50_storage": {
        "base": "t_uint256",
        "encoding": "inplace",
        "label": "uint256[50]",
        "numberOfBytes": "1600"
      },
      "t_bool": {
        "encoding": "inplace",
        "label": "bool",
        "numberOfBytes": "1"
      },
      "t_bytes32": {
        "encoding": "inplace",
        "label": "bytes32",
        "numberOfBytes": "32"
      },
      "t_contract(IERC20)2415": {
        "encoding": "inplace",
        "label": "contract IERC20",
        "numberOfBytes": "20"
      },
      "t_contract(IPoolAddressesProvider)9463": {
        "encoding": "inplace",
        "label": "contract IPoolAddressesProvider",
        "numberOfBytes": "20"
      },
      "t_mapping(t_address,t_bool)": {
        "encoding": "mapping",
        "key": "t_address",
        "label": "mapping(address => bool)",
        "numberOfBytes": "32",
        "value": "t_bool"
      },
      "t_mapping(t_bytes32,t_struct(RoleData)34_storage)": {
        "encoding": "mapping",
        "key": "t_bytes32",
        "label": "mapping(bytes32 => struct AccessControlUpgradeable.RoleData)",
        "numberOfBytes": "32",
        "value": "t_struct(RoleData)34_storage"
      },
      "t_struct(RoleData)34_storage": {
        "encoding": "inplace",
        "label": "struct AccessControlUpgradeable.RoleData",
        "members": [
          {
            "astId": 31,
            "contract": "contracts/StrategyAave.sol:StrategyAave",
            "label": "members",
            "offset": 0,
            "slot": "0",
            "type": "t_mapping(t_address,t_bool)"
          },
          {
            "astId": 33,
            "contract": "contracts/StrategyAave.sol:StrategyAave",
            "label": "adminRole",
            "offset": 0,
            "slot": "1",
            "type": "t_bytes32"
          }
        ],
        "numberOfBytes": "64"
      },
      "t_uint256": {
        "encoding": "inplace",
        "label": "uint256",
        "numberOfBytes": "32"
      }
    }
  }
}