{
  "address": "0x08d387BAb84706946dC92651Dc794D41bb7eb6b5",
  "abi": [
    {
      "inputs": [],
      "stateMutability": "nonpayable",
      "type": "constructor"
    },
    {
      "anonymous": false,
      "inputs": [
        {
          "indexed": false,
          "internalType": "address",
          "name": "previousAdmin",
          "type": "address"
        },
        {
          "indexed": false,
          "internalType": "address",
          "name": "newAdmin",
          "type": "address"
        }
      ],
      "name": "AdminChanged",
      "type": "event"
    },
    {
      "anonymous": false,
      "inputs": [
        {
          "indexed": true,
          "internalType": "address",
          "name": "beacon",
          "type": "address"
        }
      ],
      "name": "BeaconUpgraded",
      "type": "event"
    },
    {
      "anonymous": false,
      "inputs": [
        {
          "indexed": false,
          "internalType": "address",
          "name": "value",
          "type": "address"
        }
      ],
      "name": "PortfolioManagerUpdated",
      "type": "event"
    },
    {
      "anonymous": false,
      "inputs": [
        {
          "indexed": false,
          "internalType": "uint256",
          "name": "amount",
          "type": "uint256"
        }
      ],
      "name": "Reward",
      "type": "event"
    },
    {
      "anonymous": false,
      "inputs": [
        {
          "indexed": true,
          "internalType": "bytes32",
          "name": "role",
          "type": "bytes32"
        },
        {
          "indexed": true,
          "internalType": "bytes32",
          "name": "previousAdminRole",
          "type": "bytes32"
        },
        {
          "indexed": true,
          "internalType": "bytes32",
          "name": "newAdminRole",
          "type": "bytes32"
        }
      ],
      "name": "RoleAdminChanged",
      "type": "event"
    },
    {
      "anonymous": false,
      "inputs": [
        {
          "indexed": true,
          "internalType": "bytes32",
          "name": "role",
          "type": "bytes32"
        },
        {
          "indexed": true,
          "internalType": "address",
          "name": "account",
          "type": "address"
        },
        {
          "indexed": true,
          "internalType": "address",
          "name": "sender",
          "type": "address"
        }
      ],
      "name": "RoleGranted",
      "type": "event"
    },
    {
      "anonymous": false,
      "inputs": [
        {
          "indexed": true,
          "internalType": "bytes32",
          "name": "role",
          "type": "bytes32"
        },
        {
          "indexed": true,
          "internalType": "address",
          "name": "account",
          "type": "address"
        },
        {
          "indexed": true,
          "internalType": "address",
          "name": "sender",
          "type": "address"
        }
      ],
      "name": "RoleRevoked",
      "type": "event"
    },
    {
      "anonymous": false,
      "inputs": [
        {
          "indexed": false,
          "internalType": "uint256",
          "name": "amount",
          "type": "uint256"
        }
      ],
      "name": "Stake",
      "type": "event"
    },
    {
      "anonymous": false,
      "inputs": [
        {
          "indexed": false,
          "internalType": "address",
          "name": "beethovenxVault",
          "type": "address"
        },
        {
          "indexed": false,
          "internalType": "address",
          "name": "beethovenxMasterChef",
          "type": "address"
        },
        {
          "indexed": false,
          "internalType": "bytes32",
          "name": "poolIdDeiUsdc",
          "type": "bytes32"
        },
        {
          "indexed": false,
          "internalType": "bytes32",
          "name": "poolIdBeetsWFtm",
          "type": "bytes32"
        },
        {
          "indexed": false,
          "internalType": "bytes32",
          "name": "poolIdDeusWFtm",
          "type": "bytes32"
        },
        {
          "indexed": false,
          "internalType": "bytes32",
          "name": "poolIdWFtmUsdc",
          "type": "bytes32"
        },
        {
          "indexed": false,
          "internalType": "uint256",
          "name": "pidDeiUsdc",
          "type": "uint256"
        }
      ],
      "name": "StrategyBalancerUpdatedParams",
      "type": "event"
    },
    {
      "anonymous": false,
      "inputs": [
        {
          "indexed": false,
          "internalType": "address",
          "name": "usdcToken",
          "type": "address"
        },
        {
          "indexed": false,
          "internalType": "address",
          "name": "bptDeiUsdcToken",
          "type": "address"
        },
        {
          "indexed": false,
          "internalType": "address",
          "name": "beetsToken",
          "type": "address"
        },
        {
          "indexed": false,
          "internalType": "address",
          "name": "deusToken",
          "type": "address"
        },
        {
          "indexed": false,
          "internalType": "address",
          "name": "wFtmToken",
          "type": "address"
        },
        {
          "indexed": false,
          "internalType": "uint256",
          "name": "usdcTokenDenominator",
          "type": "uint256"
        },
        {
          "indexed": false,
          "internalType": "uint256",
          "name": "deiTokenDenominator",
          "type": "uint256"
        },
        {
          "indexed": false,
          "internalType": "address",
          "name": "deiToken",
          "type": "address"
        }
      ],
      "name": "StrategyBalancerUpdatedTokens",
      "type": "event"
    },
    {
      "anonymous": false,
      "inputs": [
        {
          "indexed": false,
          "internalType": "uint256",
          "name": "amount",
          "type": "uint256"
        },
        {
          "indexed": false,
          "internalType": "uint256",
          "name": "amountReceived",
          "type": "uint256"
        }
      ],
      "name": "Unstake",
      "type": "event"
    },
    {
      "anonymous": false,
      "inputs": [
        {
          "indexed": true,
          "internalType": "address",
          "name": "implementation",
          "type": "address"
        }
      ],
      "name": "Upgraded",
      "type": "event"
    },
    {
      "inputs": [],
      "name": "BASIS_POINTS_FOR_SLIPPAGE",
      "outputs": [
        {
          "internalType": "uint256",
          "name": "",
          "type": "uint256"
        }
      ],
      "stateMutability": "view",
      "type": "function"
    },
    {
      "inputs": [],
      "name": "DEFAULT_ADMIN_ROLE",
      "outputs": [
        {
          "internalType": "bytes32",
          "name": "",
          "type": "bytes32"
        }
      ],
      "stateMutability": "view",
      "type": "function"
    },
    {
      "inputs": [],
      "name": "MAX_VALUE",
      "outputs": [
        {
          "internalType": "int256",
          "name": "",
          "type": "int256"
        }
      ],
      "stateMutability": "view",
      "type": "function"
    },
    {
      "inputs": [],
      "name": "PORTFOLIO_MANAGER",
      "outputs": [
        {
          "internalType": "bytes32",
          "name": "",
          "type": "bytes32"
        }
      ],
      "stateMutability": "view",
      "type": "function"
    },
    {
      "inputs": [],
      "name": "UPGRADER_ROLE",
      "outputs": [
        {
          "internalType": "bytes32",
          "name": "",
          "type": "bytes32"
        }
      ],
      "stateMutability": "view",
      "type": "function"
    },
    {
      "inputs": [],
      "name": "beethovenxMasterChef",
      "outputs": [
        {
          "internalType": "contract BeethovenxMasterChef",
          "name": "",
          "type": "address"
        }
      ],
      "stateMutability": "view",
      "type": "function"
    },
    {
      "inputs": [],
      "name": "beethovenxVault",
      "outputs": [
        {
          "internalType": "contract IVault",
          "name": "",
          "type": "address"
        }
      ],
      "stateMutability": "view",
      "type": "function"
    },
    {
      "inputs": [],
      "name": "beetsToken",
      "outputs": [
        {
          "internalType": "contract IERC20",
          "name": "",
          "type": "address"
        }
      ],
      "stateMutability": "view",
      "type": "function"
    },
    {
      "inputs": [],
      "name": "beetsTokenDenominator",
      "outputs": [
        {
          "internalType": "uint256",
          "name": "",
          "type": "uint256"
        }
      ],
      "stateMutability": "view",
      "type": "function"
    },
    {
      "inputs": [],
      "name": "bptDeiUsdcToken",
      "outputs": [
        {
          "internalType": "contract IERC20",
          "name": "",
          "type": "address"
        }
      ],
      "stateMutability": "view",
      "type": "function"
    },
    {
      "inputs": [],
      "name": "bptDeiUsdcTokenDenominator",
      "outputs": [
        {
          "internalType": "uint256",
          "name": "",
          "type": "uint256"
        }
      ],
      "stateMutability": "view",
      "type": "function"
    },
    {
      "inputs": [
        {
          "internalType": "address",
          "name": "_to",
          "type": "address"
        }
      ],
      "name": "claimRewards",
      "outputs": [
        {
          "internalType": "uint256",
          "name": "",
          "type": "uint256"
        }
      ],
      "stateMutability": "nonpayable",
      "type": "function"
    },
    {
      "inputs": [],
      "name": "deiToken",
      "outputs": [
        {
          "internalType": "contract IERC20",
          "name": "",
          "type": "address"
        }
      ],
      "stateMutability": "view",
      "type": "function"
    },
    {
      "inputs": [],
      "name": "deiTokenDenominator",
      "outputs": [
        {
          "internalType": "uint256",
          "name": "",
          "type": "uint256"
        }
      ],
      "stateMutability": "view",
      "type": "function"
    },
    {
      "inputs": [],
      "name": "deusToken",
      "outputs": [
        {
          "internalType": "contract IERC20",
          "name": "",
          "type": "address"
        }
      ],
      "stateMutability": "view",
      "type": "function"
    },
    {
      "inputs": [],
      "name": "deusTokenDenominator",
      "outputs": [
        {
          "internalType": "uint256",
          "name": "",
          "type": "uint256"
        }
      ],
      "stateMutability": "view",
      "type": "function"
    },
    {
      "inputs": [
        {
          "internalType": "bytes32",
          "name": "role",
          "type": "bytes32"
        }
      ],
      "name": "getRoleAdmin",
      "outputs": [
        {
          "internalType": "bytes32",
          "name": "",
          "type": "bytes32"
        }
      ],
      "stateMutability": "view",
      "type": "function"
    },
    {
      "inputs": [
        {
          "internalType": "bytes32",
          "name": "role",
          "type": "bytes32"
        },
        {
          "internalType": "address",
          "name": "account",
          "type": "address"
        }
      ],
      "name": "grantRole",
      "outputs": [],
      "stateMutability": "nonpayable",
      "type": "function"
    },
    {
      "inputs": [
        {
          "internalType": "bytes32",
          "name": "role",
          "type": "bytes32"
        },
        {
          "internalType": "address",
          "name": "account",
          "type": "address"
        }
      ],
      "name": "hasRole",
      "outputs": [
        {
          "internalType": "bool",
          "name": "",
          "type": "bool"
        }
      ],
      "stateMutability": "view",
      "type": "function"
    },
    {
      "inputs": [],
      "name": "initialize",
      "outputs": [],
      "stateMutability": "nonpayable",
      "type": "function"
    },
    {
      "inputs": [],
      "name": "liquidationValue",
      "outputs": [
        {
          "internalType": "uint256",
          "name": "",
          "type": "uint256"
        }
      ],
      "stateMutability": "view",
      "type": "function"
    },
    {
      "inputs": [],
      "name": "netAssetValue",
      "outputs": [
        {
          "internalType": "uint256",
          "name": "",
          "type": "uint256"
        }
      ],
      "stateMutability": "view",
      "type": "function"
    },
    {
      "inputs": [],
      "name": "pidDeiUsdc",
      "outputs": [
        {
          "internalType": "uint256",
          "name": "",
          "type": "uint256"
        }
      ],
      "stateMutability": "view",
      "type": "function"
    },
    {
      "inputs": [],
      "name": "poolIdBeetsWFtm",
      "outputs": [
        {
          "internalType": "bytes32",
          "name": "",
          "type": "bytes32"
        }
      ],
      "stateMutability": "view",
      "type": "function"
    },
    {
      "inputs": [],
      "name": "poolIdDeiUsdc",
      "outputs": [
        {
          "internalType": "bytes32",
          "name": "",
          "type": "bytes32"
        }
      ],
      "stateMutability": "view",
      "type": "function"
    },
    {
      "inputs": [],
      "name": "poolIdDeusWFtm",
      "outputs": [
        {
          "internalType": "bytes32",
          "name": "",
          "type": "bytes32"
        }
      ],
      "stateMutability": "view",
      "type": "function"
    },
    {
      "inputs": [],
      "name": "poolIdWFtmUsdc",
      "outputs": [
        {
          "internalType": "bytes32",
          "name": "",
          "type": "bytes32"
        }
      ],
      "stateMutability": "view",
      "type": "function"
    },
    {
      "inputs": [],
      "name": "portfolioManager",
      "outputs": [
        {
          "internalType": "address",
          "name": "",
          "type": "address"
        }
      ],
      "stateMutability": "view",
      "type": "function"
    },
    {
      "inputs": [],
      "name": "proxiableUUID",
      "outputs": [
        {
          "internalType": "bytes32",
          "name": "",
          "type": "bytes32"
        }
      ],
      "stateMutability": "view",
      "type": "function"
    },
    {
      "inputs": [
        {
          "internalType": "bytes32",
          "name": "role",
          "type": "bytes32"
        },
        {
          "internalType": "address",
          "name": "account",
          "type": "address"
        }
      ],
      "name": "renounceRole",
      "outputs": [],
      "stateMutability": "nonpayable",
      "type": "function"
    },
    {
      "inputs": [
        {
          "internalType": "bytes32",
          "name": "role",
          "type": "bytes32"
        },
        {
          "internalType": "address",
          "name": "account",
          "type": "address"
        }
      ],
      "name": "revokeRole",
      "outputs": [],
      "stateMutability": "nonpayable",
      "type": "function"
    },
    {
      "inputs": [
        {
          "internalType": "address",
          "name": "_beethovenxVault",
          "type": "address"
        },
        {
          "internalType": "address",
          "name": "_beethovenxMasterChef",
          "type": "address"
        },
        {
          "internalType": "bytes32",
          "name": "_poolIdDeiUsdc",
          "type": "bytes32"
        },
        {
          "internalType": "bytes32",
          "name": "_poolIdBeetsWFtm",
          "type": "bytes32"
        },
        {
          "internalType": "bytes32",
          "name": "_poolIdDeusWFtm",
          "type": "bytes32"
        },
        {
          "internalType": "bytes32",
          "name": "_poolIdWFtmUsdc",
          "type": "bytes32"
        },
        {
          "internalType": "uint256",
          "name": "_pidDeiUsdc",
          "type": "uint256"
        }
      ],
      "name": "setParams",
      "outputs": [],
      "stateMutability": "nonpayable",
      "type": "function"
    },
    {
      "inputs": [
        {
          "internalType": "address",
          "name": "_value",
          "type": "address"
        }
      ],
      "name": "setPortfolioManager",
      "outputs": [],
      "stateMutability": "nonpayable",
      "type": "function"
    },
    {
      "inputs": [
        {
          "internalType": "address",
          "name": "_usdcToken",
          "type": "address"
        },
        {
          "internalType": "address",
          "name": "_bptDeiUsdcToken",
          "type": "address"
        },
        {
          "internalType": "address",
          "name": "_beetsToken",
          "type": "address"
        },
        {
          "internalType": "address",
          "name": "_deusToken",
          "type": "address"
        },
        {
          "internalType": "address",
          "name": "_wFtmToken",
          "type": "address"
        },
        {
          "internalType": "address",
          "name": "_deiToken",
          "type": "address"
        }
      ],
      "name": "setTokens",
      "outputs": [],
      "stateMutability": "nonpayable",
      "type": "function"
    },
    {
      "inputs": [
        {
          "internalType": "address",
          "name": "_asset",
          "type": "address"
        },
        {
          "internalType": "uint256",
          "name": "_amount",
          "type": "uint256"
        }
      ],
      "name": "stake",
      "outputs": [],
      "stateMutability": "nonpayable",
      "type": "function"
    },
    {
      "inputs": [
        {
          "internalType": "bytes4",
          "name": "interfaceId",
          "type": "bytes4"
        }
      ],
      "name": "supportsInterface",
      "outputs": [
        {
          "internalType": "bool",
          "name": "",
          "type": "bool"
        }
      ],
      "stateMutability": "view",
      "type": "function"
    },
    {
      "inputs": [
        {
          "internalType": "address",
          "name": "_asset",
          "type": "address"
        },
        {
          "internalType": "uint256",
          "name": "_amount",
          "type": "uint256"
        },
        {
          "internalType": "address",
          "name": "_beneficiary",
          "type": "address"
        },
        {
          "internalType": "bool",
          "name": "_targetIsZero",
          "type": "bool"
        }
      ],
      "name": "unstake",
      "outputs": [
        {
          "internalType": "uint256",
          "name": "",
          "type": "uint256"
        }
      ],
      "stateMutability": "nonpayable",
      "type": "function"
    },
    {
      "inputs": [
        {
          "internalType": "address",
          "name": "newImplementation",
          "type": "address"
        }
      ],
      "name": "upgradeTo",
      "outputs": [],
      "stateMutability": "nonpayable",
      "type": "function"
    },
    {
      "inputs": [
        {
          "internalType": "address",
          "name": "newImplementation",
          "type": "address"
        },
        {
          "internalType": "bytes",
          "name": "data",
          "type": "bytes"
        }
      ],
      "name": "upgradeToAndCall",
      "outputs": [],
      "stateMutability": "payable",
      "type": "function"
    },
    {
      "inputs": [],
      "name": "usdcToken",
      "outputs": [
        {
          "internalType": "contract IERC20",
          "name": "",
          "type": "address"
        }
      ],
      "stateMutability": "view",
      "type": "function"
    },
    {
      "inputs": [],
      "name": "usdcTokenDenominator",
      "outputs": [
        {
          "internalType": "uint256",
          "name": "",
          "type": "uint256"
        }
      ],
      "stateMutability": "view",
      "type": "function"
    },
    {
      "inputs": [],
      "name": "wFtmToken",
      "outputs": [
        {
          "internalType": "contract IERC20",
          "name": "",
          "type": "address"
        }
      ],
      "stateMutability": "view",
      "type": "function"
    },
    {
      "inputs": [],
      "name": "wFtmTokenDenominator",
      "outputs": [
        {
          "internalType": "uint256",
          "name": "",
          "type": "uint256"
        }
      ],
      "stateMutability": "view",
      "type": "function"
    }
  ],
  "numDeployments": 2,
  "solcInputHash": "9bfe2bd245d30e329e9ec43ca0cf3846",
  "bytecode": "0x60a06040523060601b6080523480156200001857600080fd5b50600054610100900460ff16620000365760005460ff161562000040565b62000040620000e5565b620000a85760405162461bcd60e51b815260206004820152602e60248201527f496e697469616c697a61626c653a20636f6e747261637420697320616c72656160448201526d191e481a5b9a5d1a585b1a5e995960921b606482015260840160405180910390fd5b600054610100900460ff16158015620000cb576000805461ffff19166101011790555b8015620000de576000805461ff00191690555b5062000112565b6000620000fd306200010360201b620014e31760201c565b15905090565b6001600160a01b03163b151590565b60805160601c6149c36200014d60003960008181610aab01528181610aeb01528181610b8b01528181610bcb0152610c5a01526149c36000f3fe60806040526004361061025c5760003560e01c80637d895b5011610144578063ba8b3442116100b6578063ea19e83b1161007a578063ea19e83b146106a4578063ef5cfb8c146106c5578063f664b3d9146106e5578063f6f6b881146106fa578063f72c0d8b1461071a578063f98af9a01461074e57600080fd5b8063ba8b34421461060a578063bfb2a94e1461062b578063c44c40e31461064c578063d547741f1461066d578063e7ac903b1461068d57600080fd5b8063a217fddf11610108578063a217fddf1461057e578063a3673b3814610387578063a440b21a14610593578063a7ab2e4d146105b3578063adc9772e146105d3578063b744bd70146105f357600080fd5b80637d895b50146105045780637e09c2501461051b5780638129fc1c1461053257806391d14854146105475780639e9c2d3b1461056757600080fd5b806336568abe116101dd57806367a16aa5116101a157806367a16aa51461045b578063713858321461047c5780637222bfc81461049d578063761626f8146104b45780637d5f5802146104cb5780637d6295ef146104ed57600080fd5b806336568abe146103d35780633659cfe6146103f35780634f1ef2861461041357806352d1902d14610426578063620b75df1461043b57600080fd5b80631cea2a1f116102245780631cea2a1f14610335578063248a9ca3146103575780632576e65a146103875780632a1359f51461039c5780632f2ff15d146103b357600080fd5b806301ffc9a714610261578063063bde241461029657806306da3f2e146102c457806311eac855146102db578063146a4d2b14610314575b600080fd5b34801561026d57600080fd5b5061028161027c366004613fa1565b610765565b60405190151581526020015b60405180910390f35b3480156102a257600080fd5b506102b66b033b2e3c9fd0803ce800000081565b60405190815260200161028d565b3480156102d057600080fd5b506102b66101645481565b3480156102e757600080fd5b5061015f546102fc906001600160a01b031681565b6040516001600160a01b03909116815260200161028d565b34801561032057600080fd5b50610169546102fc906001600160a01b031681565b34801561034157600080fd5b50610355610350366004613bf9565b61079c565b005b34801561036357600080fd5b506102b6610372366004613f4a565b60009081526065602052604090206001015490565b34801561039357600080fd5b506102b661094c565b3480156103a857600080fd5b506102b661016b5481565b3480156103bf57600080fd5b506103556103ce366004613f7c565b6109f7565b3480156103df57600080fd5b506103556103ee366004613f7c565b610a22565b3480156103ff57600080fd5b5061035561040e366004613b5a565b610aa0565b610355610421366004613c5b565b610b80565b34801561043257600080fd5b506102b6610c4d565b34801561044757600080fd5b5060fb546102fc906001600160a01b031681565b34801561046757600080fd5b50610163546102fc906001600160a01b031681565b34801561048857600080fd5b50610160546102fc906001600160a01b031681565b3480156104a957600080fd5b506102b661016f5481565b3480156104c057600080fd5b506102b66101655481565b3480156104d757600080fd5b506102b660008051602061492783398151915281565b3480156104f957600080fd5b506102b661016c5481565b34801561051057600080fd5b506102b66101715481565b34801561052757600080fd5b506102b66101675481565b34801561053e57600080fd5b50610355610d00565b34801561055357600080fd5b50610281610562366004613f7c565b610d79565b34801561057357600080fd5b506102b661016d5481565b34801561058a57600080fd5b506102b6600081565b34801561059f57600080fd5b506103556105ae366004613b5a565b610da4565b3480156105bf57600080fd5b506103556105ce366004613b77565b610e82565b3480156105df57600080fd5b506103556105ee366004613d41565b611150565b3480156105ff57600080fd5b506102b66101685481565b34801561061657600080fd5b50610170546102fc906001600160a01b031681565b34801561063757600080fd5b5061016a546102fc906001600160a01b031681565b34801561065857600080fd5b50610161546102fc906001600160a01b031681565b34801561067957600080fd5b50610355610688366004613f7c565b611239565b34801561069957600080fd5b506102b661016e5481565b3480156106b057600080fd5b50610162546102fc906001600160a01b031681565b3480156106d157600080fd5b506102b66106e0366004613b5a565b61125f565b3480156106f157600080fd5b506102b6600481565b34801561070657600080fd5b506102b6610715366004613d6d565b6112e1565b34801561072657600080fd5b506102b67f189ab7a9244df0848122154315af71fe140f3db0fe014031783b0946b8c9d2e381565b34801561075a57600080fd5b506102b66101665481565b60006001600160e01b03198216637965db0b60e01b148061079657506301ffc9a760e01b6001600160e01b03198316145b92915050565b6107a7600033610d79565b6107cc5760405162461bcd60e51b81526004016107c3906144f6565b60405180910390fd5b6001600160a01b0387166107f25760405162461bcd60e51b81526004016107c390614592565b6001600160a01b0386166108185760405162461bcd60e51b81526004016107c390614592565b846108355760405162461bcd60e51b81526004016107c39061455b565b836108525760405162461bcd60e51b81526004016107c39061455b565b8261086f5760405162461bcd60e51b81526004016107c39061455b565b8161088c5760405162461bcd60e51b81526004016107c39061455b565b61012d80546001600160a01b038981166001600160a01b03199283168117909355610169805483168417905561016a805490921690891690811790915561016b87905561016c86905561016d85905561016e84905561016f839055604080519283526020830191909152818101879052606082018690526080820185905260a0820184905260c08201839052517f2a446798e1496d8c2de07fbde62e3bb672f4d41e496fbd6945aa030e46cc80119181900360e00190a150505050505050565b61016a5461016f546040516393f1a40b60e01b8152600481019190915230602482015260009182916001600160a01b03909116906393f1a40b90604401604080518083038186803b1580156109a057600080fd5b505afa1580156109b4573d6000803e3d6000fd5b505050506040513d601f19601f820116820180604052508101906109d89190613fcb565b509050806109e857600091505090565b6109f1816114f2565b91505090565b600082815260656020526040902060010154610a138133611704565b610a1d8383611768565b505050565b6001600160a01b0381163314610a925760405162461bcd60e51b815260206004820152602f60248201527f416363657373436f6e74726f6c3a2063616e206f6e6c792072656e6f756e636560448201526e103937b632b9903337b91039b2b63360891b60648201526084016107c3565b610a9c82826117ee565b5050565b306001600160a01b037f0000000000000000000000000000000000000000000000000000000000000000161415610ae95760405162461bcd60e51b81526004016107c390614410565b7f00000000000000000000000000000000000000000000000000000000000000006001600160a01b0316610b32600080516020614947833981519152546001600160a01b031690565b6001600160a01b031614610b585760405162461bcd60e51b81526004016107c39061445c565b610b6181611855565b60408051600080825260208201909252610b7d91839190611880565b50565b306001600160a01b037f0000000000000000000000000000000000000000000000000000000000000000161415610bc95760405162461bcd60e51b81526004016107c390614410565b7f00000000000000000000000000000000000000000000000000000000000000006001600160a01b0316610c12600080516020614947833981519152546001600160a01b031690565b6001600160a01b031614610c385760405162461bcd60e51b81526004016107c39061445c565b610c4182611855565b610a9c82826001611880565b6000306001600160a01b037f00000000000000000000000000000000000000000000000000000000000000001614610ced5760405162461bcd60e51b815260206004820152603860248201527f555550535570677261646561626c653a206d757374206e6f742062652063616c60448201527f6c6564207468726f7567682064656c656761746563616c6c000000000000000060648201526084016107c3565b5060008051602061494783398151915290565b600054610100900460ff16610d1b5760005460ff1615610d1f565b303b155b610d3b5760405162461bcd60e51b81526004016107c3906144a8565b600054610100900460ff16158015610d5d576000805461ffff19166101011790555b610d656119fa565b8015610b7d576000805461ff001916905550565b60009182526065602090815260408084206001600160a01b0393909316845291905290205460ff1690565b610daf600033610d79565b610dcb5760405162461bcd60e51b81526004016107c3906144f6565b6001600160a01b038116610df15760405162461bcd60e51b81526004016107c390614592565b60fb54610e1690600080516020614927833981519152906001600160a01b0316611239565b610e2e600080516020614927833981519152826109f7565b60fb80546001600160a01b0319166001600160a01b0383169081179091556040519081527ff7b449fcd5cfb7379dcd34cb69428dd9f882033b15be33d83b42d91daa28eeb79060200160405180910390a150565b610e8d600033610d79565b610ea95760405162461bcd60e51b81526004016107c3906144f6565b6001600160a01b038616610ecf5760405162461bcd60e51b81526004016107c390614592565b6001600160a01b038516610ef55760405162461bcd60e51b81526004016107c390614592565b6001600160a01b038416610f1b5760405162461bcd60e51b81526004016107c390614592565b6001600160a01b038316610f415760405162461bcd60e51b81526004016107c390614592565b6001600160a01b038216610f675760405162461bcd60e51b81526004016107c390614592565b61015f80546001600160a01b03199081166001600160a01b038981169182179093556101608054831689851617905561016180548316888516179055610162805483168785161790556101638054831686851617905561017080549092169284169290921790556040805163313ce56760e01b8152905163313ce56791600480820192602092909190829003018186803b15801561100457600080fd5b505afa158015611018573d6000803e3d6000fd5b505050506040513d601f19601f8201168201806040525081019061103c9190613fef565b61104790600a61472e565b61016481905550806001600160a01b031663313ce5676040518163ffffffff1660e01b815260040160206040518083038186803b15801561108757600080fd5b505afa15801561109b573d6000803e3d6000fd5b505050506040513d601f19601f820116820180604052508101906110bf9190613fef565b6110ca90600a61472e565b61017181905561016454604080516001600160a01b038a811682528981166020830152888116828401528781166060830152868116608083015260a082019390935260c081019390935290831660e0830152517f6515df4da7eaf1a2739cbd9a92c3f2554f25210a37e399b07f10c2e6c3ef95d3918190036101000190a1505050505050565b61116860008051602061492783398151915233610d79565b6111845760405162461bcd60e51b81526004016107c3906143d9565b6040518181527f227a473b70d2f893cc7659219575c030a63b5743024fe1e0c1a680e708b1525a9060200160405180910390a16040516370a0823160e01b8152306004820152610a9c9083906001600160a01b038216906370a082319060240160206040518083038186803b1580156111fc57600080fd5b505afa158015611210573d6000803e3d6000fd5b505050506040513d601f19601f820116820180604052508101906112349190613f63565b611a9c565b6000828152606560205260409020600101546112558133611704565b610a1d83836117ee565b600061127960008051602061492783398151915233610d79565b6112955760405162461bcd60e51b81526004016107c3906143d9565b60006112a083611fa1565b90507f3ac0594a85a20354f9dc74f33728416d19ce00d04a406c108cc2dcf2cecea134816040516112d391815260200190565b60405180910390a192915050565b60006112fb60008051602061492783398151915233610d79565b6113175760405162461bcd60e51b81526004016107c3906143d9565b600082156113305761132986856122bc565b905061139f565b61133b8686866126f5565b90508481101561139f5760405162461bcd60e51b815260206004820152602960248201527f52657475726e65642076616c7565206c657373207468616e2072657175657374604482015268195908185b5bdd5b9d60ba1b60648201526084016107c3565b6040516370a0823160e01b81523060048201526000906001600160a01b038816906370a082319060240160206040518083038186803b1580156113e157600080fd5b505afa1580156113f5573d6000803e3d6000fd5b505050506040513d601f19601f820116820180604052508101906114199190613f63565b60405163a9059cbb60e01b81526001600160a01b038781166004830152602482018390529192509088169063a9059cbb90604401602060405180830381600087803b15801561146757600080fd5b505af115801561147b573d6000803e3d6000fd5b505050506040513d601f19601f8201168201806040525081019061149f9190613f2d565b5060408051878152602081018390527f9045c2ac9b2026de8075f2701bbdde882cd5e830b3b1ead9a15b22f2b5b93742910160405180910390a19695505050505050565b6001600160a01b03163b151590565b60008061016060009054906101000a90046001600160a01b03166001600160a01b03166318160ddd6040518163ffffffff1660e01b815260040160206040518083038186803b15801561154457600080fd5b505afa158015611558573d6000803e3d6000fd5b505050506040513d601f19601f8201168201806040525081019061157c9190613f63565b6101695461016b54604051631f29a8cd60e31b8152929350600092839283926001600160a01b039091169163f94d4668916115bd9160040190815260200190565b60006040518083038186803b1580156115d557600080fd5b505afa1580156115e9573d6000803e3d6000fd5b505050506040513d6000823e601f3d908101601f191682016040526116119190810190613dc0565b509150915060005b82518110156116f95760008588848481518110611638576116386148d7565b602002602001015161164a91906147da565b61165491906146bd565b61015f5485519192506001600160a01b031690859084908110611679576116796148d7565b60200260200101516001600160a01b0316146116d9576116c861016b5460008685815181106116aa576116aa6148d7565b602090810291909101015161015f546001600160a01b031685612bf4565b6116d290866146a5565b94506116e6565b6116e381866146a5565b94505b50806116f181614853565b915050611619565b509195945050505050565b61170e8282610d79565b610a9c57611726816001600160a01b031660146130d5565b6117318360206130d5565b604051602001611742929190614206565b60408051601f198184030181529082905262461bcd60e51b82526107c3916004016143c6565b6117728282610d79565b610a9c5760008281526065602090815260408083206001600160a01b03851684529091529020805460ff191660011790556117aa3390565b6001600160a01b0316816001600160a01b0316837f2f8788117e7eff1d82e926ec794901d17c78024a50270940304540a733656f0d60405160405180910390a45050565b6117f88282610d79565b15610a9c5760008281526065602090815260408083206001600160a01b0385168085529252808320805460ff1916905551339285917ff6391f5c32d9c69d2a47ea670b442974b53935d1edc7fd64eb21e047a839171b9190a45050565b7f189ab7a9244df0848122154315af71fe140f3db0fe014031783b0946b8c9d2e3610a9c8133611704565b7f4910fdfa16fed3260ed0e7147f7cc6da11a60208b5b9406d12a635614ffd91435460ff16156118b357610a1d83613271565b826001600160a01b03166352d1902d6040518163ffffffff1660e01b815260040160206040518083038186803b1580156118ec57600080fd5b505afa92505050801561191c575060408051601f3d908101601f1916820190925261191991810190613f63565b60015b61197f5760405162461bcd60e51b815260206004820152602e60248201527f45524331393637557067726164653a206e657720696d706c656d656e7461746960448201526d6f6e206973206e6f74205555505360901b60648201526084016107c3565b60008051602061494783398151915281146119ee5760405162461bcd60e51b815260206004820152602960248201527f45524331393637557067726164653a20756e737570706f727465642070726f786044820152681a58589b195555525160ba1b60648201526084016107c3565b50610a1d83838361330d565b600054610100900460ff16611a155760005460ff1615611a19565b303b155b611a355760405162461bcd60e51b81526004016107c3906144a8565b600054610100900460ff16158015611a57576000805461ffff19166101011790555b611a5f613338565b611a67613338565b611a72600033611768565b610d657f189ab7a9244df0848122154315af71fe140f3db0fe014031783b0946b8c9d2e333611768565b61015f546001600160a01b03838116911614611aca5760405162461bcd60e51b81526004016107c390614524565b61015f546101695460405163095ea7b360e01b81526001600160a01b0391821660048201526024810184905291169063095ea7b390604401602060405180830381600087803b158015611b1c57600080fd5b505af1158015611b30573d6000803e3d6000fd5b505050506040513d601f19601f82011682018060405250810190611b549190613f2d565b506101695461016b54604051631f29a8cd60e31b815260048101919091526000916001600160a01b03169063f94d46689060240160006040518083038186803b158015611ba057600080fd5b505afa158015611bb4573d6000803e3d6000fd5b505050506040513d6000823e601f3d908101601f19168201604052611bdc9190810190613dc0565b5050604080516002808252606082018352929350600092909160208301908036833750506040805160028082526060820183529394506000939092509060208301908036833750506040805160028082526060820183529394506000939092509060208301908036833701905050905060005b8451811015611d6257848181518110611c6a57611c6a6148d7565b6020026020010151848281518110611c8457611c846148d7565b6001600160a01b03928316602091820292909201015261015f548651911690869083908110611cb557611cb56148d7565b60200260200101516001600160a01b03161415611d0f5785838281518110611cdf57611cdf6148d7565b60200260200101818152505085828281518110611cfe57611cfe6148d7565b602002602001018181525050611d50565b6000838281518110611d2357611d236148d7565b6020026020010181815250506000828281518110611d4357611d436148d7565b6020026020010181815250505b80611d5a81614853565b915050611c4f565b50600060019050600080828483604051602001611d8193929190614627565b60408051601f1981840301815260808301825288835260208301889052828201819052600060608401526101695461016b54925163172b958560e31b81529194506001600160a01b03169163b95cac2891611de5919030908190879060040161427b565b600060405180830381600087803b158015611dff57600080fd5b505af1158015611e13573d6000803e3d6000fd5b5050610160546040516370a0823160e01b8152306004820152600093506001600160a01b0390911691506370a082319060240160206040518083038186803b158015611e5e57600080fd5b505afa158015611e72573d6000803e3d6000fd5b505050506040513d601f19601f82011682018060405250810190611e969190613f63565b6101605461016a5460405163095ea7b360e01b81526001600160a01b03918216600482015260248101849052929350169063095ea7b390604401602060405180830381600087803b158015611eea57600080fd5b505af1158015611efe573d6000803e3d6000fd5b505050506040513d601f19601f82011682018060405250810190611f229190613f2d565b5061016a5461016f54604051638dbdbe6d60e01b81526004810191909152602481018390523060448201526001600160a01b0390911690638dbdbe6d90606401600060405180830381600087803b158015611f7c57600080fd5b505af1158015611f90573d6000803e3d6000fd5b505050505050505050505050505050565b61016a5461016f54604051630c7e663b60e11b815260048101919091523060248201526000916001600160a01b0316906318fccc7690604401600060405180830381600087803b158015611ff457600080fd5b505af1158015612008573d6000803e3d6000fd5b5050610161546040516370a0823160e01b8152306004820152600093508392506001600160a01b03909116906370a082319060240160206040518083038186803b15801561205557600080fd5b505afa158015612069573d6000803e3d6000fd5b505050506040513d601f19601f8201168201806040525081019061208d9190613f63565b905080156120df5761016c5461016e54610161546101635461015f546000946120cf949093909286926001600160a01b0392831692918216911630808a6133a5565b90506120db81846146a5565b9250505b610162546040516370a0823160e01b81523060048201526000916001600160a01b0316906370a082319060240160206040518083038186803b15801561212457600080fd5b505afa158015612138573d6000803e3d6000fd5b505050506040513d601f19601f8201168201806040525081019061215c9190613f63565b905080156121ae5761016d5461016e54610162546101635461015f5460009461219e949093909286926001600160a01b0392831692918216911630808a6133a5565b90506121aa81856146a5565b9350505b61015f546040516370a0823160e01b81523060048201526001600160a01b039091169063a9059cbb90879083906370a082319060240160206040518083038186803b1580156121fc57600080fd5b505afa158015612210573d6000803e3d6000fd5b505050506040513d601f19601f820116820180604052508101906122349190613f63565b6040516001600160e01b031960e085901b1681526001600160a01b0390921660048301526024820152604401602060405180830381600087803b15801561227a57600080fd5b505af115801561228e573d6000803e3d6000fd5b505050506040513d601f19601f820116820180604052508101906122b29190613f2d565b5091949350505050565b61015f546000906001600160a01b038481169116146122ed5760405162461bcd60e51b81526004016107c390614524565b61016a5461016f546040516393f1a40b60e01b815260048101919091523060248201526000916001600160a01b0316906393f1a40b90604401604080518083038186803b15801561233d57600080fd5b505afa158015612351573d6000803e3d6000fd5b505050506040513d601f19601f820116820180604052508101906123759190613fcb565b5061016a5461016f5460405163d1abb90760e01b81526004810191909152602481018390523060448201529192506001600160a01b03169063d1abb90790606401600060405180830381600087803b1580156123d057600080fd5b505af11580156123e4573d6000803e3d6000fd5b5050505060006123f3826114f2565b6101695461016b54604051631f29a8cd60e31b81529293506000926001600160a01b039092169163f94d4668916124309160040190815260200190565b60006040518083038186803b15801561244857600080fd5b505afa15801561245c573d6000803e3d6000fd5b505050506040513d6000823e601f3d908101601f191682016040526124849190810190613dc0565b505060408051600280825260608201835292935060009290916020830190803683375050604080516002808252606082018352939450600093909250906020830190803683370190505090506000805b84518110156125b3578481815181106124ef576124ef6148d7565b6020026020010151848281518110612509576125096148d7565b6001600160a01b03928316602091820292909201015261015f54865191169086908390811061253a5761253a6148d7565b60200260200101516001600160a01b031614156125805761255a86613845565b83828151811061256c5761256c6148d7565b6020026020010181815250508091506125a1565b6000838281518110612594576125946148d7565b6020026020010181815250505b806125ab81614853565b9150506124d4565b506040805160006020820181905291810188905260608101839052819060800160408051601f1981840301815260808301825287835260208301879052828201819052600060608401526101695461016b549251638bdb391360e01b81529194506001600160a01b031691638bdb391391612637919030908190879060040161427b565b600060405180830381600087803b15801561265157600080fd5b505af1158015612665573d6000803e3d6000fd5b505061015f546040516370a0823160e01b81523060048201526001600160a01b0390911692506370a08231915060240160206040518083038186803b1580156126ad57600080fd5b505afa1580156126c1573d6000803e3d6000fd5b505050506040513d601f19601f820116820180604052508101906126e59190613f63565b9c9b505050505050505050505050565b61015f546000906001600160a01b038581169116146127265760405162461bcd60e51b81526004016107c390614524565b8261273081613876565b6101695461016b54604051631f29a8cd60e31b8152600481019190915291955060009182916001600160a01b03169063f94d46689060240160006040518083038186803b15801561278057600080fd5b505afa158015612794573d6000803e3d6000fd5b505050506040513d6000823e601f3d908101601f191682016040526127bc9190810190613dc0565b5091509150600061289b87836000815181106127da576127da6148d7565b6020026020010151846001815181106127f5576127f56148d7565b602002602001015161016060009054906101000a90046001600160a01b03166001600160a01b03166318160ddd6040518163ffffffff1660e01b815260040160206040518083038186803b15801561284c57600080fd5b505afa158015612860573d6000803e3d6000fd5b505050506040513d601f19601f820116820180604052508101906128849190613f63565b610164546101715461289691906146bd565b61389c565b61016a5461016f5460405163d1abb90760e01b81526004810191909152602481018390523060448201529192506001600160a01b03169063d1abb90790606401600060405180830381600087803b1580156128f557600080fd5b505af1158015612909573d6000803e3d6000fd5b5050610160546040516370a0823160e01b81523060048201526001600160a01b0390911692506370a08231915060240160206040518083038186803b15801561295157600080fd5b505afa158015612965573d6000803e3d6000fd5b505050506040513d601f19601f820116820180604052508101906129899190613f63565b60408051600280825260608201835292935060009290916020830190803683375050604080516002808252606082018352939450600093909250906020830190803683370190505090506000805b8651811015612aae578681815181106129f2576129f26148d7565b6020026020010151848281518110612a0c57612a0c6148d7565b6001600160a01b03928316602091820292909201015261015f548851911690889083908110612a3d57612a3d6148d7565b60200260200101516001600160a01b03161415612a7b5787838281518110612a6757612a676148d7565b602002602001018181525050809150612a9c565b6000838281518110612a8f57612a8f6148d7565b6020026020010181815250505b80612aa681614853565b9150506129d7565b506040805160006020820181905291810186905260608101839052819060800160408051601f1981840301815260808301825287835260208301879052828201819052600060608401526101695461016b549251638bdb391360e01b81529194506001600160a01b031691638bdb391391612b32919030908190879060040161427b565b600060405180830381600087803b158015612b4c57600080fd5b505af1158015612b60573d6000803e3d6000fd5b505061015f546040516370a0823160e01b81523060048201526001600160a01b0390911692506370a08231915060240160206040518083038186803b158015612ba857600080fd5b505afa158015612bbc573d6000803e3d6000fd5b505050506040513d601f19601f82011682018060405250810190612be09190613f63565b9a50505050505050505050505b9392505050565b604080516101208101825260008082526020820181905291810182905260608082018390526080820183905260a0820183905260c0820183905260e0820183905261010082015280866001811115612c4e57612c4e6148c1565b90816001811115612c6157612c616148c1565b9052506001600160a01b0385811660208301528481166040808401919091526060830185905261012d549051631f29a8cd60e31b8152600481018a90526000928392169063f94d46689060240160006040518083038186803b158015612cc657600080fd5b505afa158015612cda573d6000803e3d6000fd5b505050506040513d6000823e601f3d908101601f19168201604052612d029190810190613dc0565b5061012d5460405163f6c0092760e01b8152600481018d905292945090925060009182916001600160a01b03169063f6c0092790602401604080518083038186803b158015612d5057600080fd5b505afa158015612d64573d6000803e3d6000fd5b505050506040513d601f19601f82011682018060405250810190612d889190613d03565b90925090506000816002811115612da157612da16148c1565b1415612ed95760008060005b86518160ff161015612e49578b6001600160a01b0316878260ff1681518110612dd857612dd86148d7565b60200260200101516001600160a01b03161415612dfa578060ff169250612e37565b8a6001600160a01b0316878260ff1681518110612e1957612e196148d7565b60200260200101516001600160a01b03161415612e37578060ff1691505b80612e418161486e565b915050612dad565b5060405162f64aa560e11b81526001600160a01b038516906301ec954a90612e7b908a908990879087906004016145c9565b60206040518083038186803b158015612e9357600080fd5b505afa158015612ea7573d6000803e3d6000fd5b505050506040513d601f19601f82011682018060405250810190612ecb9190613f63565b9750505050505050506130cc565b6001816002811115612eed57612eed6148c1565b1415612ff85760008060005b86518160ff161015612fc7578b6001600160a01b0316878260ff1681518110612f2457612f246148d7565b60200260200101516001600160a01b03161415612f5f57858160ff1681518110612f5057612f506148d7565b60200260200101519250612fb5565b8a6001600160a01b0316878260ff1681518110612f7e57612f7e6148d7565b60200260200101516001600160a01b03161415612fb557858160ff1681518110612faa57612faa6148d7565b602002602001015191505b80612fbf8161486e565b915050612ef9565b5060405163274b044360e21b81526001600160a01b03851690639d2c110c90612e7b908a9086908690600401614602565b60008060005b86518160ff161015612fc7578b6001600160a01b0316878260ff1681518110613029576130296148d7565b60200260200101516001600160a01b0316141561306457858160ff1681518110613055576130556148d7565b602002602001015192506130ba565b8a6001600160a01b0316878260ff1681518110613083576130836148d7565b60200260200101516001600160a01b031614156130ba57858160ff16815181106130af576130af6148d7565b602002602001015191505b806130c48161486e565b915050612ffe565b95945050505050565b606060006130e48360026147da565b6130ef9060026146a5565b67ffffffffffffffff811115613107576131076148ed565b6040519080825280601f01601f191660200182016040528015613131576020820181803683370190505b509050600360fc1b8160008151811061314c5761314c6148d7565b60200101906001600160f81b031916908160001a905350600f60fb1b8160018151811061317b5761317b6148d7565b60200101906001600160f81b031916908160001a905350600061319f8460026147da565b6131aa9060016146a5565b90505b6001811115613222576f181899199a1a9b1b9c1cb0b131b232b360811b85600f16601081106131de576131de6148d7565b1a60f81b8282815181106131f4576131f46148d7565b60200101906001600160f81b031916908160001a90535060049490941c9361321b8161483c565b90506131ad565b508315612bed5760405162461bcd60e51b815260206004820181905260248201527f537472696e67733a20686578206c656e67746820696e73756666696369656e7460448201526064016107c3565b6001600160a01b0381163b6132de5760405162461bcd60e51b815260206004820152602d60248201527f455243313936373a206e657720696d706c656d656e746174696f6e206973206e60448201526c1bdd08184818dbdb9d1c9858dd609a1b60648201526084016107c3565b60008051602061494783398151915280546001600160a01b0319166001600160a01b0392909216919091179055565b61331683613989565b6000825111806133235750805b15610a1d5761333283836139c9565b50505050565b600054610100900460ff166133a35760405162461bcd60e51b815260206004820152602b60248201527f496e697469616c697a61626c653a20636f6e7472616374206973206e6f74206960448201526a6e697469616c697a696e6760a81b60648201526084016107c3565b565b61012d5460405163095ea7b360e01b81526001600160a01b0391821660048201526024810183905260009188169063095ea7b390604401602060405180830381600087803b1580156133f657600080fd5b505af115801561340a573d6000803e3d6000fd5b505050506040513d601f19601f8201168201806040525081019061342e9190613f2d565b5060408051600280825260608201909252600091816020015b61347c6040518060a0016040528060008019168152602001600081526020016000815260200160008152602001606081525090565b8152602001906001900390816134475790505090506134c66040518060a0016040528060008019168152602001600081526020016000815260200160008152602001606081525090565b8b815260006020820181905260016040830152606082018590528251829184916134f2576134f26148d7565b60200260200101819052506135326040518060a0016040528060008019168152602001600081526020016000815260200160008152602001606081525090565b8b815260016020820181905260026040830152600060608301528351829185918110613560576135606148d7565b6020908102919091010152604080516003808252608082019092526000918160200160208202803683370190505090508a816000815181106135a4576135a46148d7565b60200260200101906001600160a01b031690816001600160a01b03168152505089816001815181106135d8576135d86148d7565b60200260200101906001600160a01b031690816001600160a01b031681525050888160028151811061360c5761360c6148d7565b6001600160a01b0392831660209182029290920181019190915260408051608080820183526000938201849052606082018490528c85168252938b1681830152815160038082529481019092529281602001602082028036833701905050905060008e6001811115613680576136806148c1565b141561370f576b033b2e3c9fd0803ce8000000816000815181106136a6576136a66148d7565b6020026020010181815250506b033b2e3c9fd0803ce8000000816001815181106136d2576136d26148d7565b6020026020010181815250506b033b2e3c9fd0803ce8000000816002815181106136fe576136fe6148d7565b602002602001018181525050613773565b600081600081518110613724576137246148d7565b602002602001018181525050600081600181518110613745576137456148d7565b602002602001018181525050600081600281518110613766576137666148d7565b6020026020010181815250505b61012d546001600160a01b031663945bcec98f88868686613796426102586146a5565b6040518763ffffffff1660e01b81526004016137b7969594939291906142ad565b600060405180830381600087803b1580156137d157600080fd5b505af11580156137e5573d6000803e3d6000fd5b505050506040513d6000823e601f3d908101601f1916820160405261380d9190810190613e95565b60028151811061381f5761381f6148d7565b60200260200101516138309061488e565b96505050505050509998505050505050505050565b6000806138546004600a614722565b9050806138626004826147f9565b61386c90856147da565b612bed91906146bd565b6000806138856004600a614722565b90506138926004826147f9565b61386c82856147da565b600080826001825b600281101561393e576138b7838a6147da565b6138c1838a6147da565b6138cb91906146a5565b8a6138d6858a6147da565b6138e091906147da565b6138ea91906146bd565b9350866138f7858a6147da565b61390191906146bd565b61016b546101705461015f5492955061392a926000916001600160a01b03908116911687612bf4565b91508061393681614853565b9150506138a4565b5061394982896147da565b61395382896147da565b61395d91906146a5565b8961396884896147da565b61397291906147da565b61397c91906146bd565b9998505050505050505050565b61399281613271565b6040516001600160a01b038216907fbc7cd75a20ee27fd9adebab32041f755214dbc6bffa90cc0225b39da2e5c2d3b90600090a250565b60606001600160a01b0383163b613a315760405162461bcd60e51b815260206004820152602660248201527f416464726573733a2064656c65676174652063616c6c20746f206e6f6e2d636f6044820152651b9d1c9858dd60d21b60648201526084016107c3565b600080846001600160a01b031684604051613a4c91906141ea565b600060405180830381855af49150503d8060008114613a87576040519150601f19603f3d011682016040523d82523d6000602084013e613a8c565b606091505b50915091506130cc82826040518060600160405280602781526020016149676027913960608315613abe575081612bed565b825115613ace5782518084602001fd5b8160405162461bcd60e51b81526004016107c391906143c6565b600082601f830112613af957600080fd5b81516020613b0e613b0983614681565b614650565b80838252828201915082860187848660051b8901011115613b2e57600080fd5b60005b85811015613b4d57815184529284019290840190600101613b31565b5090979650505050505050565b600060208284031215613b6c57600080fd5b8135612bed81614903565b60008060008060008060c08789031215613b9057600080fd5b8635613b9b81614903565b95506020870135613bab81614903565b94506040870135613bbb81614903565b93506060870135613bcb81614903565b92506080870135613bdb81614903565b915060a0870135613beb81614903565b809150509295509295509295565b600080600080600080600060e0888a031215613c1457600080fd5b8735613c1f81614903565b96506020880135613c2f81614903565b96999698505050506040850135946060810135946080820135945060a0820135935060c0909101359150565b60008060408385031215613c6e57600080fd5b8235613c7981614903565b915060208381013567ffffffffffffffff80821115613c9757600080fd5b818601915086601f830112613cab57600080fd5b813581811115613cbd57613cbd6148ed565b613ccf601f8201601f19168501614650565b91508082528784828501011115613ce557600080fd5b80848401858401376000848284010152508093505050509250929050565b60008060408385031215613d1657600080fd5b8251613d2181614903565b602084015190925060038110613d3657600080fd5b809150509250929050565b60008060408385031215613d5457600080fd5b8235613d5f81614903565b946020939093013593505050565b60008060008060808587031215613d8357600080fd5b8435613d8e81614903565b9350602085013592506040850135613da581614903565b91506060850135613db581614918565b939692955090935050565b600080600060608486031215613dd557600080fd5b835167ffffffffffffffff80821115613ded57600080fd5b818601915086601f830112613e0157600080fd5b81516020613e11613b0983614681565b8083825282820191508286018b848660051b8901011115613e3157600080fd5b600096505b84871015613e5d578051613e4981614903565b835260019690960195918301918301613e36565b5091890151919750909350505080821115613e7757600080fd5b50613e8486828701613ae8565b925050604084015190509250925092565b60006020808385031215613ea857600080fd5b825167ffffffffffffffff811115613ebf57600080fd5b8301601f81018513613ed057600080fd5b8051613ede613b0982614681565b80828252848201915084840188868560051b8701011115613efe57600080fd5b600094505b83851015613f21578051835260019490940193918501918501613f03565b50979650505050505050565b600060208284031215613f3f57600080fd5b8151612bed81614918565b600060208284031215613f5c57600080fd5b5035919050565b600060208284031215613f7557600080fd5b5051919050565b60008060408385031215613f8f57600080fd5b823591506020830135613d3681614903565b600060208284031215613fb357600080fd5b81356001600160e01b031981168114612bed57600080fd5b60008060408385031215613fde57600080fd5b505080516020909101519092909150565b60006020828403121561400157600080fd5b815160ff81168114612bed57600080fd5b600081518084526020808501945080840160005b8381101561404b5781516001600160a01b031687529582019590820190600101614026565b509495945050505050565b600081518084526020808501945080840160005b8381101561404b5781518752958201959082019060010161406a565b6000815180845261409e816020860160208601614810565b601f01601f19169290920160200192915050565b600281106140d057634e487b7160e01b600052602160045260246000fd5b9052565b60008151608084526140e96080850182614012565b9050602083015184820360208601526141028282614056565b9150506040830151848203604086015261411c8282614086565b9150506060830151151560608501528091505092915050565b60006101206141458484516140b2565b6020838101516001600160a01b03169085015260408084015190614173908601826001600160a01b03169052565b50606083015160608501526080830151608085015260a083015160a085015260c08301516141ac60c08601826001600160a01b03169052565b5060e08301516141c760e08601826001600160a01b03169052565b506101008084015182828701526141e083870182614086565b9695505050505050565b600082516141fc818460208701614810565b9190910192915050565b7f416363657373436f6e74726f6c3a206163636f756e742000000000000000000081526000835161423e816017850160208801614810565b7001034b99036b4b9b9b4b733903937b6329607d1b601791840191820152835161426f816028840160208801614810565b01602801949350505050565b8481526001600160a01b038481166020830152831660408201526080606082018190526000906141e0908301846140d4565b60006101208083016142bf848b6140b2565b60208481019290925288519081905261014080850192600583901b8601909101918a820160005b828110156143495787850361013f190186528151805186528481015185870152604080820151908701526060808201519087015260809081015160a09187018290529061433581880183614086565b9786019796505050908301906001016142e6565b50505050838103604085015261435f8189614012565b91505061439f606084018780516001600160a01b039081168352602080830151151590840152604080830151909116908301526060908101511515910152565b82810360e08401526143b18186614056565b91505082610100830152979650505050505050565b602081526000612bed6020830184614086565b6020808252601f908201527f5265737472696374656420746f20504f5254464f4c494f5f4d414e4147455200604082015260600190565b6020808252602c908201527f46756e6374696f6e206d7573742062652063616c6c6564207468726f7567682060408201526b19195b1959d85d1958d85b1b60a21b606082015260800190565b6020808252602c908201527f46756e6374696f6e206d7573742062652063616c6c6564207468726f7567682060408201526b6163746976652070726f787960a01b606082015260800190565b6020808252602e908201527f496e697469616c697a61626c653a20636f6e747261637420697320616c72656160408201526d191e481a5b9a5d1a585b1a5e995960921b606082015260800190565b6020808252601490820152735265737472696374656420746f2061646d696e7360601b604082015260600190565b60208082526019908201527f536f6d6520746f6b656e206e6f7420636f6d70617469626c6500000000000000604082015260600190565b60208082526019908201527f456d70747920706f6f6c206964206e6f7420616c6c6f77656400000000000000604082015260600190565b60208082526018908201527f5a65726f2061646472657373206e6f7420616c6c6f7765640000000000000000604082015260600190565b6080815260006145dc6080830187614135565b82810360208401526145ee8187614056565b604084019590955250506060015292915050565b6060815260006146156060830186614135565b60208301949094525060400152919050565b8381526060602082015260006146406060830185614056565b9050826040830152949350505050565b604051601f8201601f1916810167ffffffffffffffff81118282101715614679576146796148ed565b604052919050565b600067ffffffffffffffff82111561469b5761469b6148ed565b5060051b60200190565b600082198211156146b8576146b86148ab565b500190565b6000826146da57634e487b7160e01b600052601260045260246000fd5b500490565b600181815b8085111561471a578160001904821115614700576147006148ab565b8085161561470d57918102915b93841c93908002906146e4565b509250929050565b6000612bed8383614739565b6000612bed60ff8416835b60008261474857506001610796565b8161475557506000610796565b816001811461476b576002811461477557614791565b6001915050610796565b60ff841115614786576147866148ab565b50506001821b610796565b5060208310610133831016604e8410600b84101617156147b4575081810a610796565b6147be83836146df565b80600019048211156147d2576147d26148ab565b029392505050565b60008160001904831182151516156147f4576147f46148ab565b500290565b60008282101561480b5761480b6148ab565b500390565b60005b8381101561482b578181015183820152602001614813565b838111156133325750506000910152565b60008161484b5761484b6148ab565b506000190190565b6000600019821415614867576148676148ab565b5060010190565b600060ff821660ff811415614885576148856148ab565b60010192915050565b6000600160ff1b8214156148a4576148a46148ab565b5060000390565b634e487b7160e01b600052601160045260246000fd5b634e487b7160e01b600052602160045260246000fd5b634e487b7160e01b600052603260045260246000fd5b634e487b7160e01b600052604160045260246000fd5b6001600160a01b0381168114610b7d57600080fd5b8015158114610b7d57600080fdfe90c2aa7471c04182221f68e80c07ab1e5946e4c63f8693e14ca40385d529f051360894a13ba1a3210667c828492db98dca3e2076cc3735a920a3ca505d382bbc416464726573733a206c6f772d6c6576656c2064656c65676174652063616c6c206661696c6564a2646970667358221220be30e86a9361e2868cfd066249a71436ecc9a324f6aedcc4f5d7e5d59af1521b64736f6c63430008060033",
  "devdoc": {
    "kind": "dev",
    "methods": {
      "constructor": {
        "custom:oz-upgrades-unsafe-allow": "constructor"
      },
      "getRoleAdmin(bytes32)": {
        "details": "Returns the admin role that controls `role`. See {grantRole} and {revokeRole}. To change a role's admin, use {_setRoleAdmin}."
      },
      "grantRole(bytes32,address)": {
        "details": "Grants `role` to `account`. If `account` had not been already granted `role`, emits a {RoleGranted} event. Requirements: - the caller must have ``role``'s admin role."
      },
      "hasRole(bytes32,address)": {
        "details": "Returns `true` if `account` has been granted `role`."
      },
      "proxiableUUID()": {
        "details": "Implementation of the ERC1822 {proxiableUUID} function. This returns the storage slot used by the implementation. It is used to validate that the this implementation remains valid after an upgrade. IMPORTANT: A proxy pointing at a proxiable contract should not be considered proxiable itself, because this risks bricking a proxy that upgrades to it, by delegating to itself until out of gas. Thus it is critical that this function revert if invoked through a proxy. This is guaranteed by the `notDelegated` modifier."
      },
      "renounceRole(bytes32,address)": {
        "details": "Revokes `role` from the calling account. Roles are often managed via {grantRole} and {revokeRole}: this function's purpose is to provide a mechanism for accounts to lose their privileges if they are compromised (such as when a trusted device is misplaced). If the calling account had been revoked `role`, emits a {RoleRevoked} event. Requirements: - the caller must be `account`."
      },
      "revokeRole(bytes32,address)": {
        "details": "Revokes `role` from `account`. If `account` had been granted `role`, emits a {RoleRevoked} event. Requirements: - the caller must have ``role``'s admin role."
      },
      "supportsInterface(bytes4)": {
        "details": "See {IERC165-supportsInterface}."
      },
      "upgradeTo(address)": {
        "details": "Upgrade the implementation of the proxy to `newImplementation`. Calls {_authorizeUpgrade}. Emits an {Upgraded} event."
      },
      "upgradeToAndCall(address,bytes)": {
        "details": "Upgrade the implementation of the proxy to `newImplementation`, and subsequently execute the function call encoded in `data`. Calls {_authorizeUpgrade}. Emits an {Upgraded} event."
      }
    },
    "version": 1
  },
  "userdoc": {
    "kind": "user",
    "methods": {},
    "version": 1
  },
  "storageLayout": {
    "storage": [
      {
        "astId": 797,
        "contract": "contracts/StrategyBeethovenxDeiUsdc.sol:StrategyBeethovenxDeiUsdc",
        "label": "_initialized",
        "offset": 0,
        "slot": "0",
        "type": "t_bool"
      },
      {
        "astId": 800,
        "contract": "contracts/StrategyBeethovenxDeiUsdc.sol:StrategyBeethovenxDeiUsdc",
        "label": "_initializing",
        "offset": 1,
        "slot": "0",
        "type": "t_bool"
      },
      {
        "astId": 1284,
        "contract": "contracts/StrategyBeethovenxDeiUsdc.sol:StrategyBeethovenxDeiUsdc",
        "label": "__gap",
        "offset": 0,
        "slot": "1",
        "type": "t_array(t_uint256)50_storage"
      },
      {
        "astId": 1591,
        "contract": "contracts/StrategyBeethovenxDeiUsdc.sol:StrategyBeethovenxDeiUsdc",
        "label": "__gap",
        "offset": 0,
        "slot": "51",
        "type": "t_array(t_uint256)50_storage"
      },
      {
        "astId": 39,
        "contract": "contracts/StrategyBeethovenxDeiUsdc.sol:StrategyBeethovenxDeiUsdc",
        "label": "_roles",
        "offset": 0,
        "slot": "101",
        "type": "t_mapping(t_bytes32,t_struct(RoleData)34_storage)"
      },
      {
        "astId": 327,
        "contract": "contracts/StrategyBeethovenxDeiUsdc.sol:StrategyBeethovenxDeiUsdc",
        "label": "__gap",
        "offset": 0,
        "slot": "102",
        "type": "t_array(t_uint256)49_storage"
      },
      {
        "astId": 779,
        "contract": "contracts/StrategyBeethovenxDeiUsdc.sol:StrategyBeethovenxDeiUsdc",
        "label": "__gap",
        "offset": 0,
        "slot": "151",
        "type": "t_array(t_uint256)50_storage"
      },
      {
        "astId": 999,
        "contract": "contracts/StrategyBeethovenxDeiUsdc.sol:StrategyBeethovenxDeiUsdc",
        "label": "__gap",
        "offset": 0,
        "slot": "201",
        "type": "t_array(t_uint256)50_storage"
      },
      {
        "astId": 21007,
        "contract": "contracts/StrategyBeethovenxDeiUsdc.sol:StrategyBeethovenxDeiUsdc",
        "label": "portfolioManager",
        "offset": 0,
        "slot": "251",
        "type": "t_address"
      },
      {
        "astId": 21477,
        "contract": "contracts/StrategyBeethovenxDeiUsdc.sol:StrategyBeethovenxDeiUsdc",
        "label": "__gap",
        "offset": 0,
        "slot": "252",
        "type": "t_array(t_uint256)49_storage"
      },
      {
        "astId": 21493,
        "contract": "contracts/StrategyBeethovenxDeiUsdc.sol:StrategyBeethovenxDeiUsdc",
        "label": "beethovenxVault",
        "offset": 0,
        "slot": "301",
        "type": "t_contract(IVault)18562"
      },
      {
        "astId": 22146,
        "contract": "contracts/StrategyBeethovenxDeiUsdc.sol:StrategyBeethovenxDeiUsdc",
        "label": "__gap",
        "offset": 0,
        "slot": "302",
        "type": "t_array(t_uint256)49_storage"
      },
      {
        "astId": 4444,
        "contract": "contracts/StrategyBeethovenxDeiUsdc.sol:StrategyBeethovenxDeiUsdc",
        "label": "usdcToken",
        "offset": 0,
        "slot": "351",
        "type": "t_contract(IERC20)2415"
      },
      {
        "astId": 4447,
        "contract": "contracts/StrategyBeethovenxDeiUsdc.sol:StrategyBeethovenxDeiUsdc",
        "label": "bptDeiUsdcToken",
        "offset": 0,
        "slot": "352",
        "type": "t_contract(IERC20)2415"
      },
      {
        "astId": 4450,
        "contract": "contracts/StrategyBeethovenxDeiUsdc.sol:StrategyBeethovenxDeiUsdc",
        "label": "beetsToken",
        "offset": 0,
        "slot": "353",
        "type": "t_contract(IERC20)2415"
      },
      {
        "astId": 4453,
        "contract": "contracts/StrategyBeethovenxDeiUsdc.sol:StrategyBeethovenxDeiUsdc",
        "label": "deusToken",
        "offset": 0,
        "slot": "354",
        "type": "t_contract(IERC20)2415"
      },
      {
        "astId": 4456,
        "contract": "contracts/StrategyBeethovenxDeiUsdc.sol:StrategyBeethovenxDeiUsdc",
        "label": "wFtmToken",
        "offset": 0,
        "slot": "355",
        "type": "t_contract(IERC20)2415"
      },
      {
        "astId": 4458,
        "contract": "contracts/StrategyBeethovenxDeiUsdc.sol:StrategyBeethovenxDeiUsdc",
        "label": "usdcTokenDenominator",
        "offset": 0,
        "slot": "356",
        "type": "t_uint256"
      },
      {
        "astId": 4460,
        "contract": "contracts/StrategyBeethovenxDeiUsdc.sol:StrategyBeethovenxDeiUsdc",
        "label": "bptDeiUsdcTokenDenominator",
        "offset": 0,
        "slot": "357",
        "type": "t_uint256"
      },
      {
        "astId": 4462,
        "contract": "contracts/StrategyBeethovenxDeiUsdc.sol:StrategyBeethovenxDeiUsdc",
        "label": "beetsTokenDenominator",
        "offset": 0,
        "slot": "358",
        "type": "t_uint256"
      },
      {
        "astId": 4464,
        "contract": "contracts/StrategyBeethovenxDeiUsdc.sol:StrategyBeethovenxDeiUsdc",
        "label": "deusTokenDenominator",
        "offset": 0,
        "slot": "359",
        "type": "t_uint256"
      },
      {
        "astId": 4466,
        "contract": "contracts/StrategyBeethovenxDeiUsdc.sol:StrategyBeethovenxDeiUsdc",
        "label": "wFtmTokenDenominator",
        "offset": 0,
        "slot": "360",
        "type": "t_uint256"
      },
      {
        "astId": 4469,
        "contract": "contracts/StrategyBeethovenxDeiUsdc.sol:StrategyBeethovenxDeiUsdc",
        "label": "beethovenxVault",
        "offset": 0,
        "slot": "361",
        "type": "t_contract(IVault)18562"
      },
      {
        "astId": 4472,
        "contract": "contracts/StrategyBeethovenxDeiUsdc.sol:StrategyBeethovenxDeiUsdc",
        "label": "beethovenxMasterChef",
        "offset": 0,
        "slot": "362",
        "type": "t_contract(BeethovenxMasterChef)18127"
      },
      {
        "astId": 4474,
        "contract": "contracts/StrategyBeethovenxDeiUsdc.sol:StrategyBeethovenxDeiUsdc",
        "label": "poolIdDeiUsdc",
        "offset": 0,
        "slot": "363",
        "type": "t_bytes32"
      },
      {
        "astId": 4476,
        "contract": "contracts/StrategyBeethovenxDeiUsdc.sol:StrategyBeethovenxDeiUsdc",
        "label": "poolIdBeetsWFtm",
        "offset": 0,
        "slot": "364",
        "type": "t_bytes32"
      },
      {
        "astId": 4478,
        "contract": "contracts/StrategyBeethovenxDeiUsdc.sol:StrategyBeethovenxDeiUsdc",
        "label": "poolIdDeusWFtm",
        "offset": 0,
        "slot": "365",
        "type": "t_bytes32"
      },
      {
        "astId": 4480,
        "contract": "contracts/StrategyBeethovenxDeiUsdc.sol:StrategyBeethovenxDeiUsdc",
        "label": "poolIdWFtmUsdc",
        "offset": 0,
        "slot": "366",
        "type": "t_bytes32"
      },
      {
        "astId": 4482,
        "contract": "contracts/StrategyBeethovenxDeiUsdc.sol:StrategyBeethovenxDeiUsdc",
        "label": "pidDeiUsdc",
        "offset": 0,
        "slot": "367",
        "type": "t_uint256"
      },
      {
        "astId": 4485,
        "contract": "contracts/StrategyBeethovenxDeiUsdc.sol:StrategyBeethovenxDeiUsdc",
        "label": "deiToken",
        "offset": 0,
        "slot": "368",
        "type": "t_contract(IERC20)2415"
      },
      {
        "astId": 4487,
        "contract": "contracts/StrategyBeethovenxDeiUsdc.sol:StrategyBeethovenxDeiUsdc",
        "label": "deiTokenDenominator",
        "offset": 0,
        "slot": "369",
        "type": "t_uint256"
      }
    ],
    "types": {
      "t_address": {
        "encoding": "inplace",
        "label": "address",
        "numberOfBytes": "20"
      },
      "t_array(t_uint256)49_storage": {
        "base": "t_uint256",
        "encoding": "inplace",
        "label": "uint256[49]",
        "numberOfBytes": "1568"
      },
      "t_array(t_uint256)50_storage": {
        "base": "t_uint256",
        "encoding": "inplace",
        "label": "uint256[50]",
        "numberOfBytes": "1600"
      },
      "t_bool": {
        "encoding": "inplace",
        "label": "bool",
        "numberOfBytes": "1"
      },
      "t_bytes32": {
        "encoding": "inplace",
        "label": "bytes32",
        "numberOfBytes": "32"
      },
      "t_contract(BeethovenxMasterChef)18127": {
        "encoding": "inplace",
        "label": "contract BeethovenxMasterChef",
        "numberOfBytes": "20"
      },
      "t_contract(IERC20)2415": {
        "encoding": "inplace",
        "label": "contract IERC20",
        "numberOfBytes": "20"
      },
      "t_contract(IVault)18562": {
        "encoding": "inplace",
        "label": "contract IVault",
        "numberOfBytes": "20"
      },
      "t_mapping(t_address,t_bool)": {
        "encoding": "mapping",
        "key": "t_address",
        "label": "mapping(address => bool)",
        "numberOfBytes": "32",
        "value": "t_bool"
      },
      "t_mapping(t_bytes32,t_struct(RoleData)34_storage)": {
        "encoding": "mapping",
        "key": "t_bytes32",
        "label": "mapping(bytes32 => struct AccessControlUpgradeable.RoleData)",
        "numberOfBytes": "32",
        "value": "t_struct(RoleData)34_storage"
      },
      "t_struct(RoleData)34_storage": {
        "encoding": "inplace",
        "label": "struct AccessControlUpgradeable.RoleData",
        "members": [
          {
            "astId": 31,
            "contract": "contracts/StrategyBeethovenxDeiUsdc.sol:StrategyBeethovenxDeiUsdc",
            "label": "members",
            "offset": 0,
            "slot": "0",
            "type": "t_mapping(t_address,t_bool)"
          },
          {
            "astId": 33,
            "contract": "contracts/StrategyBeethovenxDeiUsdc.sol:StrategyBeethovenxDeiUsdc",
            "label": "adminRole",
            "offset": 0,
            "slot": "1",
            "type": "t_bytes32"
          }
        ],
        "numberOfBytes": "64"
      },
      "t_uint256": {
        "encoding": "inplace",
        "label": "uint256",
        "numberOfBytes": "32"
      }
    }
  }
}