{
  "address": "0x145F2a1aa70098031629606d856591dA0C717554",
  "abi": [
    {
      "inputs": [],
      "stateMutability": "nonpayable",
      "type": "constructor"
    },
    {
      "anonymous": false,
      "inputs": [
        {
          "indexed": false,
          "internalType": "address",
          "name": "token",
          "type": "address"
        },
        {
          "indexed": false,
          "internalType": "address",
          "name": "pool",
          "type": "address"
        }
      ],
      "name": "AddItem",
      "type": "event"
    },
    {
      "anonymous": false,
      "inputs": [
        {
          "indexed": false,
          "internalType": "address",
          "name": "previousAdmin",
          "type": "address"
        },
        {
          "indexed": false,
          "internalType": "address",
          "name": "newAdmin",
          "type": "address"
        }
      ],
      "name": "AdminChanged",
      "type": "event"
    },
    {
      "anonymous": false,
      "inputs": [
        {
          "indexed": true,
          "internalType": "address",
          "name": "beacon",
          "type": "address"
        }
      ],
      "name": "BeaconUpgraded",
      "type": "event"
    },
    {
      "anonymous": false,
      "inputs": [
        {
          "indexed": false,
          "internalType": "bool",
          "name": "value",
          "type": "bool"
        }
      ],
      "name": "DisabledUpdated",
      "type": "event"
    },
    {
      "anonymous": false,
      "inputs": [
        {
          "indexed": false,
          "internalType": "uint8",
          "name": "version",
          "type": "uint8"
        }
      ],
      "name": "Initialized",
      "type": "event"
    },
    {
      "anonymous": false,
      "inputs": [],
      "name": "PayoutDoneDisabled",
      "type": "event"
    },
    {
      "anonymous": false,
      "inputs": [
        {
          "indexed": false,
          "internalType": "string",
          "name": "dexName",
          "type": "string"
        },
        {
          "indexed": false,
          "internalType": "string",
          "name": "operation",
          "type": "string"
        },
        {
          "indexed": false,
          "internalType": "string",
          "name": "poolName",
          "type": "string"
        },
        {
          "indexed": false,
          "internalType": "address",
          "name": "pool",
          "type": "address"
        },
        {
          "indexed": false,
          "internalType": "address",
          "name": "token",
          "type": "address"
        },
        {
          "indexed": false,
          "internalType": "uint256",
          "name": "amount",
          "type": "uint256"
        },
        {
          "indexed": false,
          "internalType": "address",
          "name": "to",
          "type": "address"
        }
      ],
      "name": "PoolOperation",
      "type": "event"
    },
    {
      "anonymous": false,
      "inputs": [
        {
          "indexed": false,
          "internalType": "address",
          "name": "token",
          "type": "address"
        },
        {
          "indexed": false,
          "internalType": "address",
          "name": "pool",
          "type": "address"
        }
      ],
      "name": "RemoveItem",
      "type": "event"
    },
    {
      "anonymous": false,
      "inputs": [
        {
          "indexed": true,
          "internalType": "bytes32",
          "name": "role",
          "type": "bytes32"
        },
        {
          "indexed": true,
          "internalType": "bytes32",
          "name": "previousAdminRole",
          "type": "bytes32"
        },
        {
          "indexed": true,
          "internalType": "bytes32",
          "name": "newAdminRole",
          "type": "bytes32"
        }
      ],
      "name": "RoleAdminChanged",
      "type": "event"
    },
    {
      "anonymous": false,
      "inputs": [
        {
          "indexed": true,
          "internalType": "bytes32",
          "name": "role",
          "type": "bytes32"
        },
        {
          "indexed": true,
          "internalType": "address",
          "name": "account",
          "type": "address"
        },
        {
          "indexed": true,
          "internalType": "address",
          "name": "sender",
          "type": "address"
        }
      ],
      "name": "RoleGranted",
      "type": "event"
    },
    {
      "anonymous": false,
      "inputs": [
        {
          "indexed": true,
          "internalType": "bytes32",
          "name": "role",
          "type": "bytes32"
        },
        {
          "indexed": true,
          "internalType": "address",
          "name": "account",
          "type": "address"
        },
        {
          "indexed": true,
          "internalType": "address",
          "name": "sender",
          "type": "address"
        }
      ],
      "name": "RoleRevoked",
      "type": "event"
    },
    {
      "anonymous": false,
      "inputs": [
        {
          "indexed": true,
          "internalType": "address",
          "name": "implementation",
          "type": "address"
        }
      ],
      "name": "Upgraded",
      "type": "event"
    },
    {
      "inputs": [],
      "name": "DEFAULT_ADMIN_ROLE",
      "outputs": [
        {
          "internalType": "bytes32",
          "name": "",
          "type": "bytes32"
        }
      ],
      "stateMutability": "view",
      "type": "function"
    },
    {
      "inputs": [],
      "name": "EXCHANGER",
      "outputs": [
        {
          "internalType": "bytes32",
          "name": "",
          "type": "bytes32"
        }
      ],
      "stateMutability": "view",
      "type": "function"
    },
    {
      "inputs": [
        {
          "components": [
            {
              "internalType": "address",
              "name": "pool",
              "type": "address"
            },
            {
              "internalType": "address",
              "name": "token",
              "type": "address"
            },
            {
              "internalType": "string",
              "name": "poolName",
              "type": "string"
            },
            {
              "internalType": "address",
              "name": "bribe",
              "type": "address"
            },
            {
              "internalType": "enum GlobalPayoutListener.Operation",
              "name": "operation",
              "type": "uint8"
            },
            {
              "internalType": "address",
              "name": "to",
              "type": "address"
            },
            {
              "internalType": "string",
              "name": "dexName",
              "type": "string"
            }
          ],
          "internalType": "struct GlobalPayoutListener.Item",
          "name": "item",
          "type": "tuple"
        }
      ],
      "name": "addItem",
      "outputs": [],
      "stateMutability": "nonpayable",
      "type": "function"
    },
    {
      "inputs": [
        {
          "components": [
            {
              "internalType": "address",
              "name": "pool",
              "type": "address"
            },
            {
              "internalType": "address",
              "name": "token",
              "type": "address"
            },
            {
              "internalType": "string",
              "name": "poolName",
              "type": "string"
            },
            {
              "internalType": "address",
              "name": "bribe",
              "type": "address"
            },
            {
              "internalType": "enum GlobalPayoutListener.Operation",
              "name": "operation",
              "type": "uint8"
            },
            {
              "internalType": "address",
              "name": "to",
              "type": "address"
            },
            {
              "internalType": "string",
              "name": "dexName",
              "type": "string"
            }
          ],
          "internalType": "struct GlobalPayoutListener.Item[]",
          "name": "items",
          "type": "tuple[]"
        }
      ],
      "name": "addItems",
      "outputs": [],
      "stateMutability": "nonpayable",
      "type": "function"
    },
    {
      "inputs": [],
      "name": "disabled",
      "outputs": [
        {
          "internalType": "bool",
          "name": "",
          "type": "bool"
        }
      ],
      "stateMutability": "view",
      "type": "function"
    },
    {
      "inputs": [
        {
          "internalType": "bytes32",
          "name": "role",
          "type": "bytes32"
        }
      ],
      "name": "getRoleAdmin",
      "outputs": [
        {
          "internalType": "bytes32",
          "name": "",
          "type": "bytes32"
        }
      ],
      "stateMutability": "view",
      "type": "function"
    },
    {
      "inputs": [
        {
          "internalType": "bytes32",
          "name": "role",
          "type": "bytes32"
        },
        {
          "internalType": "address",
          "name": "account",
          "type": "address"
        }
      ],
      "name": "grantRole",
      "outputs": [],
      "stateMutability": "nonpayable",
      "type": "function"
    },
    {
      "inputs": [
        {
          "internalType": "bytes32",
          "name": "role",
          "type": "bytes32"
        },
        {
          "internalType": "address",
          "name": "account",
          "type": "address"
        }
      ],
      "name": "hasRole",
      "outputs": [
        {
          "internalType": "bool",
          "name": "",
          "type": "bool"
        }
      ],
      "stateMutability": "view",
      "type": "function"
    },
    {
      "inputs": [],
      "name": "initialize",
      "outputs": [],
      "stateMutability": "nonpayable",
      "type": "function"
    },
    {
      "inputs": [
        {
          "internalType": "uint256",
          "name": "",
          "type": "uint256"
        }
      ],
      "name": "items",
      "outputs": [
        {
          "internalType": "address",
          "name": "pool",
          "type": "address"
        },
        {
          "internalType": "address",
          "name": "token",
          "type": "address"
        },
        {
          "internalType": "string",
          "name": "poolName",
          "type": "string"
        },
        {
          "internalType": "address",
          "name": "bribe",
          "type": "address"
        },
        {
          "internalType": "enum GlobalPayoutListener.Operation",
          "name": "operation",
          "type": "uint8"
        },
        {
          "internalType": "address",
          "name": "to",
          "type": "address"
        },
        {
          "internalType": "string",
          "name": "dexName",
          "type": "string"
        }
      ],
      "stateMutability": "view",
      "type": "function"
    },
    {
      "inputs": [
        {
          "internalType": "address",
          "name": "token",
          "type": "address"
        }
      ],
      "name": "payoutDone",
      "outputs": [],
      "stateMutability": "nonpayable",
      "type": "function"
    },
    {
      "inputs": [],
      "name": "proxiableUUID",
      "outputs": [
        {
          "internalType": "bytes32",
          "name": "",
          "type": "bytes32"
        }
      ],
      "stateMutability": "view",
      "type": "function"
    },
    {
      "inputs": [
        {
          "internalType": "address",
          "name": "token",
          "type": "address"
        },
        {
          "internalType": "address",
          "name": "pool",
          "type": "address"
        }
      ],
      "name": "removeItem",
      "outputs": [],
      "stateMutability": "nonpayable",
      "type": "function"
    },
    {
      "inputs": [
        {
          "internalType": "bytes32",
          "name": "role",
          "type": "bytes32"
        },
        {
          "internalType": "address",
          "name": "account",
          "type": "address"
        }
      ],
      "name": "renounceRole",
      "outputs": [],
      "stateMutability": "nonpayable",
      "type": "function"
    },
    {
      "inputs": [
        {
          "internalType": "bytes32",
          "name": "role",
          "type": "bytes32"
        },
        {
          "internalType": "address",
          "name": "account",
          "type": "address"
        }
      ],
      "name": "revokeRole",
      "outputs": [],
      "stateMutability": "nonpayable",
      "type": "function"
    },
    {
      "inputs": [
        {
          "internalType": "bool",
          "name": "_value",
          "type": "bool"
        }
      ],
      "name": "setDisabled",
      "outputs": [],
      "stateMutability": "nonpayable",
      "type": "function"
    },
    {
      "inputs": [
        {
          "internalType": "bytes4",
          "name": "interfaceId",
          "type": "bytes4"
        }
      ],
      "name": "supportsInterface",
      "outputs": [
        {
          "internalType": "bool",
          "name": "",
          "type": "bool"
        }
      ],
      "stateMutability": "view",
      "type": "function"
    },
    {
      "inputs": [
        {
          "internalType": "address",
          "name": "newImplementation",
          "type": "address"
        }
      ],
      "name": "upgradeTo",
      "outputs": [],
      "stateMutability": "nonpayable",
      "type": "function"
    },
    {
      "inputs": [
        {
          "internalType": "address",
          "name": "newImplementation",
          "type": "address"
        },
        {
          "internalType": "bytes",
          "name": "data",
          "type": "bytes"
        }
      ],
      "name": "upgradeToAndCall",
      "outputs": [],
      "stateMutability": "payable",
      "type": "function"
    }
  ],
  "numDeployments": 1,
  "solcInputHash": "95aa163a3a6efea4777c304b3995efd7",
  "bytecode": "0x60a06040523060601b6080523480156200001857600080fd5b50600054610100900460ff16158080156200003a5750600054600160ff909116105b806200006a575062000057306200014460201b6200182c1760201c565b1580156200006a575060005460ff166001145b620000d25760405162461bcd60e51b815260206004820152602e60248201527f496e697469616c697a61626c653a20636f6e747261637420697320616c72656160448201526d191e481a5b9a5d1a585b1a5e995960921b606482015260840160405180910390fd5b6000805460ff191660011790558015620000f6576000805461ff0019166101001790555b80156200013d576000805461ff0019169055604051600181527f7f26b83ff96e1f2b6a682f133852f6798a09c465da95921460cefb38474024989060200160405180910390a15b5062000153565b6001600160a01b03163b151590565b60805160601c6130436200018e60003960008181610490015281816104d001528181610570015281816105b0015261063f01526130436000f3fe6080604052600436106101145760003560e01c80636e28e3d5116100a0578063bd0f105311610064578063bd0f1053146102e0578063bfb231d214610314578063c53963e614610347578063d547741f14610367578063ee0708051461038757600080fd5b80636e28e3d5146102565780638129fc1c1461027657806391d148541461028b578063a217fddf146102ab578063b7b415ac146102c057600080fd5b80633659cfe6116100e75780633659cfe6146101ce5780634f1ef286146101ee57806352d1902d146102015780635e989fbc146102165780636c5a7d1e1461023657600080fd5b806301ffc9a714610119578063248a9ca31461014e5780632f2ff15d1461018c57806336568abe146101ae575b600080fd5b34801561012557600080fd5b50610139610134366004612a54565b6103a1565b60405190151581526020015b60405180910390f35b34801561015a57600080fd5b5061017e6101693660046129ff565b60009081526065602052604090206001015490565b604051908152602001610145565b34801561019857600080fd5b506101ac6101a7366004612a31565b6103d8565b005b3480156101ba57600080fd5b506101ac6101c9366004612a31565b610402565b3480156101da57600080fd5b506101ac6101e936600461284d565b610485565b6101ac6101fc36600461289b565b610565565b34801561020d57600080fd5b5061017e610632565b34801561022257600080fd5b506101ac610231366004612a7e565b6106e5565b34801561024257600080fd5b506101ac6102513660046129c5565b610d7c565b34801561026257600080fd5b506101ac61027136600461284d565b610df1565b34801561028257600080fd5b506101ac61113e565b34801561029757600080fd5b506101396102a6366004612a31565b611201565b3480156102b757600080fd5b5061017e600081565b3480156102cc57600080fd5b506101ac6102db3660046128fd565b61122c565b3480156102ec57600080fd5b5061017e7f3eb675f159e6ca6cf5de6bfbbc8c4521cfd428f5e9166e51094d5898504caf2d81565b34801561032057600080fd5b5061033461032f3660046129ff565b611299565b6040516101459796959493929190612b78565b34801561035357600080fd5b506101ac610362366004612868565b61141a565b34801561037357600080fd5b506101ac610382366004612a31565b611807565b34801561039357600080fd5b5060fc546101399060ff1681565b60006001600160e01b03198216637965db0b60e01b14806103d257506301ffc9a760e01b6001600160e01b03198316145b92915050565b6000828152606560205260409020600101546103f38161183b565b6103fd8383611845565b505050565b6001600160a01b03811633146104775760405162461bcd60e51b815260206004820152602f60248201527f416363657373436f6e74726f6c3a2063616e206f6e6c792072656e6f756e636560448201526e103937b632b9903337b91039b2b63360891b60648201526084015b60405180910390fd5b61048182826118cb565b5050565b306001600160a01b037f00000000000000000000000000000000000000000000000000000000000000001614156104ce5760405162461bcd60e51b815260040161046e90612d0b565b7f00000000000000000000000000000000000000000000000000000000000000006001600160a01b0316610517600080516020612fc7833981519152546001600160a01b031690565b6001600160a01b03161461053d5760405162461bcd60e51b815260040161046e90612d57565b61054681611932565b604080516000808252602082019092526105629183919061193d565b50565b306001600160a01b037f00000000000000000000000000000000000000000000000000000000000000001614156105ae5760405162461bcd60e51b815260040161046e90612d0b565b7f00000000000000000000000000000000000000000000000000000000000000006001600160a01b03166105f7600080516020612fc7833981519152546001600160a01b031690565b6001600160a01b03161461061d5760405162461bcd60e51b815260040161046e90612d57565b61062682611932565b6104818282600161193d565b6000306001600160a01b037f000000000000000000000000000000000000000000000000000000000000000016146106d25760405162461bcd60e51b815260206004820152603860248201527f555550535570677261646561626c653a206d757374206e6f742062652063616c60448201527f6c6564207468726f7567682064656c656761746563616c6c0000000000000000606482015260840161046e565b50600080516020612fc783398151915290565b6106f0600033611201565b61070c5760405162461bcd60e51b815260040161046e90612df1565b60208101516001600160a01b03166107565760405162461bcd60e51b815260206004820152600d60248201526c746f6b656e206973207a65726f60981b604482015260640161046e565b80516001600160a01b031661079c5760405162461bcd60e51b815260206004820152600c60248201526b706f6f6c206973207a65726f60a01b604482015260640161046e565b6000816080015160038111156107b4576107b4612f76565b14156108065760a08101516001600160a01b03166108015760405162461bcd60e51b815260206004820152600a602482015269746f206973207a65726f60b01b604482015260640161046e565b61086e565b60028160800151600381111561081e5761081e612f76565b141561086e5760608101516001600160a01b031661086e5760405162461bcd60e51b815260206004820152600d60248201526c6272696265206973207a65726f60981b604482015260640161046e565b600160005b60fb54811015610bb957600060fb828154811061089257610892612f8c565b60009182526020918290206040805160e081018252600690930290910180546001600160a01b03908116845260018201541693830193909352600283018054929392918401916108e190612f0a565b80601f016020809104026020016040519081016040528092919081815260200182805461090d90612f0a565b801561095a5780601f1061092f5761010080835404028352916020019161095a565b820191906000526020600020905b81548152906001019060200180831161093d57829003601f168201915b50505091835250506003828101546001600160a01b0381166020840152604090920191600160a01b900460ff169081111561099757610997612f76565b60038111156109a8576109a8612f76565b815260048201546001600160a01b031660208201526005820180546040909201916109d290612f0a565b80601f01602080910402602001604051908101604052809291908181526020018280546109fe90612f0a565b8015610a4b5780601f10610a2057610100808354040283529160200191610a4b565b820191906000526020600020905b815481529060010190602001808311610a2e57829003601f168201915b505050505081525050905083602001516001600160a01b031681602001516001600160a01b0316148015610a8d5750835181516001600160a01b039081169116145b15610ba6578360fb8381548110610aa657610aa6612f8c565b6000918252602091829020835160069092020180546001600160a01b039283166001600160a01b03199182161782558484015160018301805491909416911617909155604083015180519192610b0492600285019290910190612617565b506060820151600380830180546001600160a01b039093166001600160a01b031984168117825560808601519391926001600160a81b03199092161790600160a01b908490811115610b5857610b58612f76565b021790555060a08201516004820180546001600160a01b0319166001600160a01b0390921691909117905560c08201518051610b9e916005840191602090910190612617565b506000945050505b5080610bb181612f45565b915050610873565b508015610d245760fb805460018101825560009190915282517f3e7257b7272bb46d49cd6019b04ddee20da7c0cb13f7c1ec3391291b2ccebabc600690920291820180546001600160a01b03199081166001600160a01b039384161782556020808701517f3e7257b7272bb46d49cd6019b04ddee20da7c0cb13f7c1ec3391291b2ccebabd8601805490931694169390931790556040850151805186949293610c86937f3e7257b7272bb46d49cd6019b04ddee20da7c0cb13f7c1ec3391291b2ccebabe01920190612617565b506060820151600380830180546001600160a01b039093166001600160a01b031984168117825560808601519391926001600160a81b03199092161790600160a01b908490811115610cda57610cda612f76565b021790555060a08201516004820180546001600160a01b0319166001600160a01b0390921691909117905560c08201518051610d20916005840191602090910190612617565b5050505b602082015182516040517f2ab4ebfadf1dbb6985345a1d09dabe17cafc9f765b05fc738368c0ab2886ab0392610d709290916001600160a01b0392831681529116602082015260400190565b60405180910390a15050565b610d87600033611201565b610da35760405162461bcd60e51b815260040161046e90612df1565b60fc805460ff191682151590811790915560405160ff909116151581527f0e836a283085867e84aa4dfd94164de8ce61ee6d9e57dfae5e0fcf1eff8f268c906020015b60405180910390a150565b610e1b7f3eb675f159e6ca6cf5de6bfbbc8c4521cfd428f5e9166e51094d5898504caf2d33611201565b610e675760405162461bcd60e51b815260206004820152601b60248201527f43616c6c6572206973206e6f74207468652045584348414e4745520000000000604482015260640161046e565b60fc5460ff1615610e9e576040517f2db5145a2d675741edae5a00c79aee42925aec079cd653aaa2745197e860b98e90600090a150565b60005b60fb5481101561048157600060fb8281548110610ec057610ec0612f8c565b60009182526020918290206040805160e081018252600690930290910180546001600160a01b0390811684526001820154169383019390935260028301805492939291840191610f0f90612f0a565b80601f0160208091040260200160405190810160405280929190818152602001828054610f3b90612f0a565b8015610f885780601f10610f5d57610100808354040283529160200191610f88565b820191906000526020600020905b815481529060010190602001808311610f6b57829003601f168201915b50505091835250506003828101546001600160a01b0381166020840152604090920191600160a01b900460ff1690811115610fc557610fc5612f76565b6003811115610fd657610fd6612f76565b815260048201546001600160a01b0316602082015260058201805460409092019161100090612f0a565b80601f016020809104026020016040519081016040528092919081815260200182805461102c90612f0a565b80156110795780601f1061104e57610100808354040283529160200191611079565b820191906000526020600020905b81548152906001019060200180831161105c57829003601f168201915b5050505050815250509050826001600160a01b031681602001516001600160a01b0316146110a7575061112c565b6000816080015160038111156110bf576110bf612f76565b14156110d3576110ce81611ab7565b61112a565b6001816080015160038111156110eb576110eb612f76565b14156110fa576110ce81611cf8565b60028160800151600381111561111257611112612f76565b1415611121576110ce81611d95565b61112a81612042565b505b8061113681612f45565b915050610ea1565b600054610100900460ff161580801561115e5750600054600160ff909116105b806111785750303b158015611178575060005460ff166001145b6111945760405162461bcd60e51b815260040161046e90612da3565b6000805460ff1916600117905580156111b7576000805461ff0019166101001790555b6111bf612083565b8015610562576000805461ff0019169055604051600181527f7f26b83ff96e1f2b6a682f133852f6798a09c465da95921460cefb384740249890602001610de6565b60009182526065602090815260408084206001600160a01b0393909316845291905290205460ff1690565b611237600033611201565b6112535760405162461bcd60e51b815260040161046e90612df1565b60005b815181101561048157600082828151811061127357611273612f8c565b60200260200101519050611286816106e5565b508061129181612f45565b915050611256565b60fb81815481106112a957600080fd5b60009182526020909120600690910201805460018201546002830180546001600160a01b0393841695509290911692916112e290612f0a565b80601f016020809104026020016040519081016040528092919081815260200182805461130e90612f0a565b801561135b5780601f106113305761010080835404028352916020019161135b565b820191906000526020600020905b81548152906001019060200180831161133e57829003601f168201915b505050506003830154600484015460058501805494956001600160a01b0380851696600160a01b90950460ff1695509092169261139790612f0a565b80601f01602080910402602001604051908101604052809291908181526020018280546113c390612f0a565b80156114105780601f106113e557610100808354040283529160200191611410565b820191906000526020600020905b8154815290600101906020018083116113f357829003601f168201915b5050505050905087565b611425600033611201565b6114415760405162461bcd60e51b815260040161046e90612df1565b6001600160a01b0382166114875760405162461bcd60e51b815260206004820152600d60248201526c746f6b656e206973207a65726f60981b604482015260640161046e565b6001600160a01b0381166114cc5760405162461bcd60e51b815260206004820152600c60248201526b706f6f6c206973207a65726f60a01b604482015260640161046e565b60005b60fb548110156117cd57600060fb82815481106114ee576114ee612f8c565b60009182526020918290206040805160e081018252600690930290910180546001600160a01b039081168452600182015416938301939093526002830180549293929184019161153d90612f0a565b80601f016020809104026020016040519081016040528092919081815260200182805461156990612f0a565b80156115b65780601f1061158b576101008083540402835291602001916115b6565b820191906000526020600020905b81548152906001019060200180831161159957829003601f168201915b50505091835250506003828101546001600160a01b0381166020840152604090920191600160a01b900460ff16908111156115f3576115f3612f76565b600381111561160457611604612f76565b815260048201546001600160a01b0316602082015260058201805460409092019161162e90612f0a565b80601f016020809104026020016040519081016040528092919081815260200182805461165a90612f0a565b80156116a75780601f1061167c576101008083540402835291602001916116a7565b820191906000526020600020905b81548152906001019060200180831161168a57829003601f168201915b5050505050815250509050836001600160a01b031681602001516001600160a01b03161480156116ec5750826001600160a01b031681600001516001600160a01b0316145b156117ba5760fb828154811061170457611704612f8c565b60009182526020822060069091020180546001600160a01b0319908116825560018201805490911690559061173c600283018261269b565b6003820180546001600160a81b03191690556004820180546001600160a01b031916905561176e60058301600061269b565b5050604080516001600160a01b038087168252851660208201527f68e2e4dc27ec3ffea1ce098b4fe6d29f6a1e663455d9a77a3bc859cc67027a2191015b60405180910390a150505050565b50806117c581612f45565b9150506114cf565b5060405162461bcd60e51b815260206004820152600e60248201526d1a5d195b481b9bdd08199bdd5b9960921b604482015260640161046e565b6000828152606560205260409020600101546118228161183b565b6103fd83836118cb565b6001600160a01b03163b151590565b6105628133612163565b61184f8282611201565b6104815760008281526065602090815260408083206001600160a01b03851684529091529020805460ff191660011790556118873390565b6001600160a01b0316816001600160a01b0316837f2f8788117e7eff1d82e926ec794901d17c78024a50270940304540a733656f0d60405160405180910390a45050565b6118d58282611201565b156104815760008281526065602090815260408083206001600160a01b0385168085529252808320805460ff1916905551339285917ff6391f5c32d9c69d2a47ea670b442974b53935d1edc7fd64eb21e047a839171b9190a45050565b60006104818161183b565b7f4910fdfa16fed3260ed0e7147f7cc6da11a60208b5b9406d12a635614ffd91435460ff1615611970576103fd836121bc565b826001600160a01b03166352d1902d6040518163ffffffff1660e01b815260040160206040518083038186803b1580156119a957600080fd5b505afa9250505080156119d9575060408051601f3d908101601f191682019092526119d691810190612a18565b60015b611a3c5760405162461bcd60e51b815260206004820152602e60248201527f45524331393637557067726164653a206e657720696d706c656d656e7461746960448201526d6f6e206973206e6f74205555505360901b606482015260840161046e565b600080516020612fc78339815191528114611aab5760405162461bcd60e51b815260206004820152602960248201527f45524331393637557067726164653a20756e737570706f727465642070726f786044820152681a58589b195555525160ba1b606482015260840161046e565b506103fd838383612258565b60208101516040516370a0823160e01b81523060048201526000906001600160a01b038316906370a082319060240160206040518083038186803b158015611afe57600080fd5b505afa158015611b12573d6000803e3d6000fd5b505050506040513d601f19601f82011682018060405250810190611b369190612a18565b835160405163bc25cf7760e01b81523060048201529192506001600160a01b03169063bc25cf7790602401600060405180830381600087803b158015611b7b57600080fd5b505af1158015611b8f573d6000803e3d6000fd5b50506040516370a0823160e01b8152306004820152600092508391506001600160a01b038516906370a082319060240160206040518083038186803b158015611bd757600080fd5b505afa158015611beb573d6000803e3d6000fd5b505050506040513d601f19601f82011682018060405250810190611c0f9190612a18565b611c199190612eb0565b90508015611cab5760a084015160405163a9059cbb60e01b81526001600160a01b039182166004820152602481018390529084169063a9059cbb90604401602060405180830381600087803b158015611c7157600080fd5b505af1158015611c85573d6000803e3d6000fd5b505050506040513d601f19601f82011682018060405250810190611ca991906129e2565b505b7fcb414e813f34d59db194a1937a70c199f2a691ccd6ee32704df2b38170acb6ed8460c00151856040015186600001518760200151858960a001516040516117ac96959493929190612c83565b80600001516001600160a01b031663fff6cae96040518163ffffffff1660e01b8152600401600060405180830381600087803b158015611d3757600080fd5b505af1158015611d4b573d6000803e3d6000fd5b50505060c08201516040808401518451602086015192517fcb414e813f34d59db194a1937a70c199f2a691ccd6ee32704df2b38170acb6ed9550610de69493906000908190612cc7565b60208101516040516370a0823160e01b81523060048201526000906001600160a01b038316906370a082319060240160206040518083038186803b158015611ddc57600080fd5b505afa158015611df0573d6000803e3d6000fd5b505050506040513d601f19601f82011682018060405250810190611e149190612a18565b835160405163bc25cf7760e01b81523060048201529192506001600160a01b03169063bc25cf7790602401600060405180830381600087803b158015611e5957600080fd5b505af1158015611e6d573d6000803e3d6000fd5b50506040516370a0823160e01b8152306004820152600092508391506001600160a01b038516906370a082319060240160206040518083038186803b158015611eb557600080fd5b505afa158015611ec9573d6000803e3d6000fd5b505050506040513d601f19601f82011682018060405250810190611eed9190612a18565b611ef79190612eb0565b90508015611ff557606084015160405163095ea7b360e01b81526001600160a01b039182166004820152602481018390529084169063095ea7b390604401602060405180830381600087803b158015611f4f57600080fd5b505af1158015611f63573d6000803e3d6000fd5b505050506040513d601f19601f82011682018060405250810190611f8791906129e2565b506060840151602085015160405163b66503cf60e01b81526001600160a01b0391821660048201526024810184905291169063b66503cf90604401600060405180830381600087803b158015611fdc57600080fd5b505af1158015611ff0573d6000803e3d6000fd5b505050505b7fcb414e813f34d59db194a1937a70c199f2a691ccd6ee32704df2b38170acb6ed8460c001518560400151866000015187602001518589606001516040516117ac96959493929190612c0a565b60405162461bcd60e51b815260206004820152601660248201527510dd5cdd1bdb481b9bdd081a5b5c1b195b595b9d195960521b604482015260640161046e565b600054610100900460ff16158080156120a35750600054600160ff909116105b806120bd5750303b1580156120bd575060005460ff166001145b6120d95760405162461bcd60e51b815260040161046e90612da3565b6000805460ff1916600117905580156120fc576000805461ff0019166101001790555b612104612283565b61210c612283565b612117600033611845565b60fc805460ff191690558015610562576000805461ff0019169055604051600181527f7f26b83ff96e1f2b6a682f133852f6798a09c465da95921460cefb384740249890602001610de6565b61216d8282611201565b6104815761217a816122f0565b612185836020612302565b604051602001612196929190612b03565b60408051601f198184030181529082905262461bcd60e51b825261046e91600401612bf7565b6001600160a01b0381163b6122295760405162461bcd60e51b815260206004820152602d60248201527f455243313936373a206e657720696d706c656d656e746174696f6e206973206e60448201526c1bdd08184818dbdb9d1c9858dd609a1b606482015260840161046e565b600080516020612fc783398151915280546001600160a01b0319166001600160a01b0392909216919091179055565b612261836124a5565b60008251118061226e5750805b156103fd5761227d83836124e5565b50505050565b600054610100900460ff166122ee5760405162461bcd60e51b815260206004820152602b60248201527f496e697469616c697a61626c653a20636f6e7472616374206973206e6f74206960448201526a6e697469616c697a696e6760a81b606482015260840161046e565b565b60606103d26001600160a01b03831660145b60606000612311836002612e91565b61231c906002612e79565b67ffffffffffffffff81111561233457612334612fa2565b6040519080825280601f01601f19166020018201604052801561235e576020820181803683370190505b509050600360fc1b8160008151811061237957612379612f8c565b60200101906001600160f81b031916908160001a905350600f60fb1b816001815181106123a8576123a8612f8c565b60200101906001600160f81b031916908160001a90535060006123cc846002612e91565b6123d7906001612e79565b90505b600181111561244f576f181899199a1a9b1b9c1cb0b131b232b360811b85600f166010811061240b5761240b612f8c565b1a60f81b82828151811061242157612421612f8c565b60200101906001600160f81b031916908160001a90535060049490941c9361244881612ef3565b90506123da565b50831561249e5760405162461bcd60e51b815260206004820181905260248201527f537472696e67733a20686578206c656e67746820696e73756666696369656e74604482015260640161046e565b9392505050565b6124ae816121bc565b6040516001600160a01b038216907fbc7cd75a20ee27fd9adebab32041f755214dbc6bffa90cc0225b39da2e5c2d3b90600090a250565b60606001600160a01b0383163b61254d5760405162461bcd60e51b815260206004820152602660248201527f416464726573733a2064656c65676174652063616c6c20746f206e6f6e2d636f6044820152651b9d1c9858dd60d21b606482015260840161046e565b600080846001600160a01b0316846040516125689190612ae7565b600060405180830381855af49150503d80600081146125a3576040519150601f19603f3d011682016040523d82523d6000602084013e6125a8565b606091505b50915091506125d08282604051806060016040528060278152602001612fe7602791396125d9565b95945050505050565b606083156125e857508161249e565b61249e83838151156125fd5781518083602001fd5b8060405162461bcd60e51b815260040161046e9190612bf7565b82805461262390612f0a565b90600052602060002090601f016020900481019282612645576000855561268b565b82601f1061265e57805160ff191683800117855561268b565b8280016001018555821561268b579182015b8281111561268b578251825591602001919060010190612670565b506126979291506126d1565b5090565b5080546126a790612f0a565b6000825580601f106126b7575050565b601f01602090049060005260206000209081019061056291905b5b8082111561269757600081556001016126d2565b600067ffffffffffffffff83111561270057612700612fa2565b612713601f8401601f1916602001612e48565b905082815283838301111561272757600080fd5b828260208301376000602084830101529392505050565b80356001600160a01b038116811461275557600080fd5b919050565b80356004811061275557600080fd5b600082601f83011261277a57600080fd5b61249e838335602085016126e6565b600060e0828403121561279b57600080fd5b6127a3612e1f565b90506127ae8261273e565b81526127bc6020830161273e565b6020820152604082013567ffffffffffffffff808211156127dc57600080fd5b6127e885838601612769565b60408401526127f96060850161273e565b606084015261280a6080850161275a565b608084015261281b60a0850161273e565b60a084015260c084013591508082111561283457600080fd5b5061284184828501612769565b60c08301525092915050565b60006020828403121561285f57600080fd5b61249e8261273e565b6000806040838503121561287b57600080fd5b6128848361273e565b91506128926020840161273e565b90509250929050565b600080604083850312156128ae57600080fd5b6128b78361273e565b9150602083013567ffffffffffffffff8111156128d357600080fd5b8301601f810185136128e457600080fd5b6128f3858235602084016126e6565b9150509250929050565b6000602080838503121561291057600080fd5b823567ffffffffffffffff8082111561292857600080fd5b818501915085601f83011261293c57600080fd5b81358181111561294e5761294e612fa2565b8060051b61295d858201612e48565b8281528581019085870183870188018b101561297857600080fd5b60009350835b858110156129b557813587811115612994578586fd5b6129a28d8b838c0101612789565b855250928801929088019060010161297e565b50909a9950505050505050505050565b6000602082840312156129d757600080fd5b813561249e81612fb8565b6000602082840312156129f457600080fd5b815161249e81612fb8565b600060208284031215612a1157600080fd5b5035919050565b600060208284031215612a2a57600080fd5b5051919050565b60008060408385031215612a4457600080fd5b823591506128926020840161273e565b600060208284031215612a6657600080fd5b81356001600160e01b03198116811461249e57600080fd5b600060208284031215612a9057600080fd5b813567ffffffffffffffff811115612aa757600080fd5b612ab384828501612789565b949350505050565b60008151808452612ad3816020860160208601612ec7565b601f01601f19169290920160200192915050565b60008251612af9818460208701612ec7565b9190910192915050565b7f416363657373436f6e74726f6c3a206163636f756e7420000000000000000000815260008351612b3b816017850160208801612ec7565b7001034b99036b4b9b9b4b733903937b6329607d1b6017918401918201528351612b6c816028840160208801612ec7565b01602801949350505050565b600060018060a01b03808a168352808916602084015260e06040840152612ba260e0840189612abb565b818816606085015260048710612bc857634e487b7160e01b600052602160045260246000fd5b86608085015281861660a085015283810360c0850152612be88186612abb565b9b9a5050505050505050505050565b60208152600061249e6020830184612abb565b60e081526000612c1d60e0830189612abb565b8281038060208501526005825264427269626560d81b602083015260408101604085015250612c4f6040820189612abb565b6001600160a01b0397881660608501529587166080840152505060a081019290925290921660c09092019190915292915050565b60e081526000612c9660e0830189612abb565b8281038060208501526004825263536b696d60e01b602083015260408101604085015250612c4f6040820189612abb565b60e081526000612cda60e0830189612abb565b828103806020850152600482526353796e6360e01b602083015260408101604085015250612c4f6040820189612abb565b6020808252602c908201527f46756e6374696f6e206d7573742062652063616c6c6564207468726f7567682060408201526b19195b1959d85d1958d85b1b60a21b606082015260800190565b6020808252602c908201527f46756e6374696f6e206d7573742062652063616c6c6564207468726f7567682060408201526b6163746976652070726f787960a01b606082015260800190565b6020808252602e908201527f496e697469616c697a61626c653a20636f6e747261637420697320616c72656160408201526d191e481a5b9a5d1a585b1a5e995960921b606082015260800190565b6020808252601490820152735265737472696374656420746f2061646d696e7360601b604082015260600190565b60405160e0810167ffffffffffffffff81118282101715612e4257612e42612fa2565b60405290565b604051601f8201601f1916810167ffffffffffffffff81118282101715612e7157612e71612fa2565b604052919050565b60008219821115612e8c57612e8c612f60565b500190565b6000816000190483118215151615612eab57612eab612f60565b500290565b600082821015612ec257612ec2612f60565b500390565b60005b83811015612ee2578181015183820152602001612eca565b8381111561227d5750506000910152565b600081612f0257612f02612f60565b506000190190565b600181811c90821680612f1e57607f821691505b60208210811415612f3f57634e487b7160e01b600052602260045260246000fd5b50919050565b6000600019821415612f5957612f59612f60565b5060010190565b634e487b7160e01b600052601160045260246000fd5b634e487b7160e01b600052602160045260246000fd5b634e487b7160e01b600052603260045260246000fd5b634e487b7160e01b600052604160045260246000fd5b801515811461056257600080fdfe360894a13ba1a3210667c828492db98dca3e2076cc3735a920a3ca505d382bbc416464726573733a206c6f772d6c6576656c2064656c65676174652063616c6c206661696c6564a2646970667358221220d6f8f641d532c25bca191c193a3d4106d090dc0b880fb2daa139c1b43aa20cf164736f6c63430008060033",
  "implementation": "0xa9fB2E37a61c272DDA0860e9f010bB3B9BEa8869",
  "devdoc": {
    "kind": "dev",
    "methods": {
      "constructor": {
        "custom:oz-upgrades-unsafe-allow": "constructor"
      },
      "getRoleAdmin(bytes32)": {
        "details": "Returns the admin role that controls `role`. See {grantRole} and {revokeRole}. To change a role's admin, use {_setRoleAdmin}."
      },
      "grantRole(bytes32,address)": {
        "details": "Grants `role` to `account`. If `account` had not been already granted `role`, emits a {RoleGranted} event. Requirements: - the caller must have ``role``'s admin role. May emit a {RoleGranted} event."
      },
      "hasRole(bytes32,address)": {
        "details": "Returns `true` if `account` has been granted `role`."
      },
      "proxiableUUID()": {
        "details": "Implementation of the ERC1822 {proxiableUUID} function. This returns the storage slot used by the implementation. It is used to validate the implementation's compatibility when performing an upgrade. IMPORTANT: A proxy pointing at a proxiable contract should not be considered proxiable itself, because this risks bricking a proxy that upgrades to it, by delegating to itself until out of gas. Thus it is critical that this function revert if invoked through a proxy. This is guaranteed by the `notDelegated` modifier."
      },
      "renounceRole(bytes32,address)": {
        "details": "Revokes `role` from the calling account. Roles are often managed via {grantRole} and {revokeRole}: this function's purpose is to provide a mechanism for accounts to lose their privileges if they are compromised (such as when a trusted device is misplaced). If the calling account had been revoked `role`, emits a {RoleRevoked} event. Requirements: - the caller must be `account`. May emit a {RoleRevoked} event."
      },
      "revokeRole(bytes32,address)": {
        "details": "Revokes `role` from `account`. If `account` had been granted `role`, emits a {RoleRevoked} event. Requirements: - the caller must have ``role``'s admin role. May emit a {RoleRevoked} event."
      },
      "supportsInterface(bytes4)": {
        "details": "See {IERC165-supportsInterface}."
      },
      "upgradeTo(address)": {
        "details": "Upgrade the implementation of the proxy to `newImplementation`. Calls {_authorizeUpgrade}. Emits an {Upgraded} event."
      },
      "upgradeToAndCall(address,bytes)": {
        "details": "Upgrade the implementation of the proxy to `newImplementation`, and subsequently execute the function call encoded in `data`. Calls {_authorizeUpgrade}. Emits an {Upgraded} event."
      }
    },
    "version": 1
  },
  "userdoc": {
    "kind": "user",
    "methods": {
      "addItem((address,address,string,address,uint8,address,string))": {
        "notice": "Add new item to list or update exist item"
      },
      "payoutDone(address)": {
        "notice": "This function executing in payout after increase/decrease liquidity index for USD+|DAI+|ETS tokens see details: Exchange.sol | HedgeExchanger.sol"
      },
      "removeItem(address,address)": {
        "notice": "Remove item from items"
      }
    },
    "version": 1
  },
  "storageLayout": {
    "storage": [
      {
        "astId": 804,
        "contract": "contracts/payoutlisteners/ArbitrumPayoutListener.sol:ArbitrumPayoutListener",
        "label": "_initialized",
        "offset": 0,
        "slot": "0",
        "type": "t_uint8"
      },
      {
        "astId": 807,
        "contract": "contracts/payoutlisteners/ArbitrumPayoutListener.sol:ArbitrumPayoutListener",
        "label": "_initializing",
        "offset": 1,
        "slot": "0",
        "type": "t_bool"
      },
      {
        "astId": 1657,
        "contract": "contracts/payoutlisteners/ArbitrumPayoutListener.sol:ArbitrumPayoutListener",
        "label": "__gap",
        "offset": 0,
        "slot": "1",
        "type": "t_array(t_uint256)50_storage"
      },
      {
        "astId": 1936,
        "contract": "contracts/payoutlisteners/ArbitrumPayoutListener.sol:ArbitrumPayoutListener",
        "label": "__gap",
        "offset": 0,
        "slot": "51",
        "type": "t_array(t_uint256)50_storage"
      },
      {
        "astId": 39,
        "contract": "contracts/payoutlisteners/ArbitrumPayoutListener.sol:ArbitrumPayoutListener",
        "label": "_roles",
        "offset": 0,
        "slot": "101",
        "type": "t_mapping(t_bytes32,t_struct(RoleData)34_storage)"
      },
      {
        "astId": 334,
        "contract": "contracts/payoutlisteners/ArbitrumPayoutListener.sol:ArbitrumPayoutListener",
        "label": "__gap",
        "offset": 0,
        "slot": "102",
        "type": "t_array(t_uint256)49_storage"
      },
      {
        "astId": 786,
        "contract": "contracts/payoutlisteners/ArbitrumPayoutListener.sol:ArbitrumPayoutListener",
        "label": "__gap",
        "offset": 0,
        "slot": "151",
        "type": "t_array(t_uint256)50_storage"
      },
      {
        "astId": 1101,
        "contract": "contracts/payoutlisteners/ArbitrumPayoutListener.sol:ArbitrumPayoutListener",
        "label": "__gap",
        "offset": 0,
        "slot": "201",
        "type": "t_array(t_uint256)50_storage"
      },
      {
        "astId": 5239,
        "contract": "contracts/payoutlisteners/ArbitrumPayoutListener.sol:ArbitrumPayoutListener",
        "label": "items",
        "offset": 0,
        "slot": "251",
        "type": "t_array(t_struct(Item)5230_storage)dyn_storage"
      },
      {
        "astId": 5241,
        "contract": "contracts/payoutlisteners/ArbitrumPayoutListener.sol:ArbitrumPayoutListener",
        "label": "disabled",
        "offset": 0,
        "slot": "252",
        "type": "t_bool"
      },
      {
        "astId": 5885,
        "contract": "contracts/payoutlisteners/ArbitrumPayoutListener.sol:ArbitrumPayoutListener",
        "label": "__gap",
        "offset": 0,
        "slot": "253",
        "type": "t_array(t_uint256)50_storage"
      }
    ],
    "types": {
      "t_address": {
        "encoding": "inplace",
        "label": "address",
        "numberOfBytes": "20"
      },
      "t_array(t_struct(Item)5230_storage)dyn_storage": {
        "base": "t_struct(Item)5230_storage",
        "encoding": "dynamic_array",
        "label": "struct GlobalPayoutListener.Item[]",
        "numberOfBytes": "32"
      },
      "t_array(t_uint256)49_storage": {
        "base": "t_uint256",
        "encoding": "inplace",
        "label": "uint256[49]",
        "numberOfBytes": "1568"
      },
      "t_array(t_uint256)50_storage": {
        "base": "t_uint256",
        "encoding": "inplace",
        "label": "uint256[50]",
        "numberOfBytes": "1600"
      },
      "t_bool": {
        "encoding": "inplace",
        "label": "bool",
        "numberOfBytes": "1"
      },
      "t_bytes32": {
        "encoding": "inplace",
        "label": "bytes32",
        "numberOfBytes": "32"
      },
      "t_enum(Operation)5235": {
        "encoding": "inplace",
        "label": "enum GlobalPayoutListener.Operation",
        "numberOfBytes": "1"
      },
      "t_mapping(t_address,t_bool)": {
        "encoding": "mapping",
        "key": "t_address",
        "label": "mapping(address => bool)",
        "numberOfBytes": "32",
        "value": "t_bool"
      },
      "t_mapping(t_bytes32,t_struct(RoleData)34_storage)": {
        "encoding": "mapping",
        "key": "t_bytes32",
        "label": "mapping(bytes32 => struct AccessControlUpgradeable.RoleData)",
        "numberOfBytes": "32",
        "value": "t_struct(RoleData)34_storage"
      },
      "t_string_storage": {
        "encoding": "bytes",
        "label": "string",
        "numberOfBytes": "32"
      },
      "t_struct(Item)5230_storage": {
        "encoding": "inplace",
        "label": "struct GlobalPayoutListener.Item",
        "members": [
          {
            "astId": 5216,
            "contract": "contracts/payoutlisteners/ArbitrumPayoutListener.sol:ArbitrumPayoutListener",
            "label": "pool",
            "offset": 0,
            "slot": "0",
            "type": "t_address"
          },
          {
            "astId": 5218,
            "contract": "contracts/payoutlisteners/ArbitrumPayoutListener.sol:ArbitrumPayoutListener",
            "label": "token",
            "offset": 0,
            "slot": "1",
            "type": "t_address"
          },
          {
            "astId": 5220,
            "contract": "contracts/payoutlisteners/ArbitrumPayoutListener.sol:ArbitrumPayoutListener",
            "label": "poolName",
            "offset": 0,
            "slot": "2",
            "type": "t_string_storage"
          },
          {
            "astId": 5222,
            "contract": "contracts/payoutlisteners/ArbitrumPayoutListener.sol:ArbitrumPayoutListener",
            "label": "bribe",
            "offset": 0,
            "slot": "3",
            "type": "t_address"
          },
          {
            "astId": 5225,
            "contract": "contracts/payoutlisteners/ArbitrumPayoutListener.sol:ArbitrumPayoutListener",
            "label": "operation",
            "offset": 20,
            "slot": "3",
            "type": "t_enum(Operation)5235"
          },
          {
            "astId": 5227,
            "contract": "contracts/payoutlisteners/ArbitrumPayoutListener.sol:ArbitrumPayoutListener",
            "label": "to",
            "offset": 0,
            "slot": "4",
            "type": "t_address"
          },
          {
            "astId": 5229,
            "contract": "contracts/payoutlisteners/ArbitrumPayoutListener.sol:ArbitrumPayoutListener",
            "label": "dexName",
            "offset": 0,
            "slot": "5",
            "type": "t_string_storage"
          }
        ],
        "numberOfBytes": "192"
      },
      "t_struct(RoleData)34_storage": {
        "encoding": "inplace",
        "label": "struct AccessControlUpgradeable.RoleData",
        "members": [
          {
            "astId": 31,
            "contract": "contracts/payoutlisteners/ArbitrumPayoutListener.sol:ArbitrumPayoutListener",
            "label": "members",
            "offset": 0,
            "slot": "0",
            "type": "t_mapping(t_address,t_bool)"
          },
          {
            "astId": 33,
            "contract": "contracts/payoutlisteners/ArbitrumPayoutListener.sol:ArbitrumPayoutListener",
            "label": "adminRole",
            "offset": 0,
            "slot": "1",
            "type": "t_bytes32"
          }
        ],
        "numberOfBytes": "64"
      },
      "t_uint256": {
        "encoding": "inplace",
        "label": "uint256",
        "numberOfBytes": "32"
      },
      "t_uint8": {
        "encoding": "inplace",
        "label": "uint8",
        "numberOfBytes": "1"
      }
    }
  }
}