{
  "address": "0x3ca375b8107cB2c7f520cA87b2DeF8dC5040aeb4",
  "abi": [
    {
      "inputs": [],
      "stateMutability": "nonpayable",
      "type": "constructor"
    },
    {
      "anonymous": false,
      "inputs": [
        {
          "indexed": false,
          "internalType": "address",
          "name": "token",
          "type": "address"
        },
        {
          "indexed": false,
          "internalType": "address",
          "name": "pool",
          "type": "address"
        }
      ],
      "name": "AddItem",
      "type": "event"
    },
    {
      "anonymous": false,
      "inputs": [
        {
          "indexed": false,
          "internalType": "address",
          "name": "previousAdmin",
          "type": "address"
        },
        {
          "indexed": false,
          "internalType": "address",
          "name": "newAdmin",
          "type": "address"
        }
      ],
      "name": "AdminChanged",
      "type": "event"
    },
    {
      "anonymous": false,
      "inputs": [
        {
          "indexed": true,
          "internalType": "address",
          "name": "beacon",
          "type": "address"
        }
      ],
      "name": "BeaconUpgraded",
      "type": "event"
    },
    {
      "anonymous": false,
      "inputs": [
        {
          "indexed": false,
          "internalType": "bool",
          "name": "value",
          "type": "bool"
        }
      ],
      "name": "DisabledUpdated",
      "type": "event"
    },
    {
      "anonymous": false,
      "inputs": [
        {
          "indexed": false,
          "internalType": "uint8",
          "name": "version",
          "type": "uint8"
        }
      ],
      "name": "Initialized",
      "type": "event"
    },
    {
      "anonymous": false,
      "inputs": [],
      "name": "PayoutDoneDisabled",
      "type": "event"
    },
    {
      "anonymous": false,
      "inputs": [
        {
          "indexed": false,
          "internalType": "string",
          "name": "dexName",
          "type": "string"
        },
        {
          "indexed": false,
          "internalType": "string",
          "name": "operation",
          "type": "string"
        },
        {
          "indexed": false,
          "internalType": "string",
          "name": "poolName",
          "type": "string"
        },
        {
          "indexed": false,
          "internalType": "address",
          "name": "pool",
          "type": "address"
        },
        {
          "indexed": false,
          "internalType": "address",
          "name": "token",
          "type": "address"
        },
        {
          "indexed": false,
          "internalType": "uint256",
          "name": "amount",
          "type": "uint256"
        },
        {
          "indexed": false,
          "internalType": "address",
          "name": "to",
          "type": "address"
        }
      ],
      "name": "PoolOperation",
      "type": "event"
    },
    {
      "anonymous": false,
      "inputs": [
        {
          "indexed": false,
          "internalType": "address",
          "name": "token",
          "type": "address"
        },
        {
          "indexed": false,
          "internalType": "address",
          "name": "pool",
          "type": "address"
        }
      ],
      "name": "RemoveItem",
      "type": "event"
    },
    {
      "anonymous": false,
      "inputs": [
        {
          "indexed": true,
          "internalType": "bytes32",
          "name": "role",
          "type": "bytes32"
        },
        {
          "indexed": true,
          "internalType": "bytes32",
          "name": "previousAdminRole",
          "type": "bytes32"
        },
        {
          "indexed": true,
          "internalType": "bytes32",
          "name": "newAdminRole",
          "type": "bytes32"
        }
      ],
      "name": "RoleAdminChanged",
      "type": "event"
    },
    {
      "anonymous": false,
      "inputs": [
        {
          "indexed": true,
          "internalType": "bytes32",
          "name": "role",
          "type": "bytes32"
        },
        {
          "indexed": true,
          "internalType": "address",
          "name": "account",
          "type": "address"
        },
        {
          "indexed": true,
          "internalType": "address",
          "name": "sender",
          "type": "address"
        }
      ],
      "name": "RoleGranted",
      "type": "event"
    },
    {
      "anonymous": false,
      "inputs": [
        {
          "indexed": true,
          "internalType": "bytes32",
          "name": "role",
          "type": "bytes32"
        },
        {
          "indexed": true,
          "internalType": "address",
          "name": "account",
          "type": "address"
        },
        {
          "indexed": true,
          "internalType": "address",
          "name": "sender",
          "type": "address"
        }
      ],
      "name": "RoleRevoked",
      "type": "event"
    },
    {
      "anonymous": false,
      "inputs": [
        {
          "indexed": true,
          "internalType": "address",
          "name": "implementation",
          "type": "address"
        }
      ],
      "name": "Upgraded",
      "type": "event"
    },
    {
      "inputs": [],
      "name": "DEFAULT_ADMIN_ROLE",
      "outputs": [
        {
          "internalType": "bytes32",
          "name": "",
          "type": "bytes32"
        }
      ],
      "stateMutability": "view",
      "type": "function"
    },
    {
      "inputs": [],
      "name": "EXCHANGER",
      "outputs": [
        {
          "internalType": "bytes32",
          "name": "",
          "type": "bytes32"
        }
      ],
      "stateMutability": "view",
      "type": "function"
    },
    {
      "inputs": [
        {
          "components": [
            {
              "internalType": "address",
              "name": "pool",
              "type": "address"
            },
            {
              "internalType": "address",
              "name": "token",
              "type": "address"
            },
            {
              "internalType": "string",
              "name": "poolName",
              "type": "string"
            },
            {
              "internalType": "address",
              "name": "bribe",
              "type": "address"
            },
            {
              "internalType": "enum GlobalPayoutListener.Operation",
              "name": "operation",
              "type": "uint8"
            },
            {
              "internalType": "address",
              "name": "to",
              "type": "address"
            },
            {
              "internalType": "string",
              "name": "dexName",
              "type": "string"
            },
            {
              "internalType": "uint24",
              "name": "feePercent",
              "type": "uint24"
            },
            {
              "internalType": "address",
              "name": "feeReceiver",
              "type": "address"
            },
            {
              "internalType": "uint256[10]",
              "name": "__gap",
              "type": "uint256[10]"
            }
          ],
          "internalType": "struct GlobalPayoutListener.Item",
          "name": "item",
          "type": "tuple"
        }
      ],
      "name": "addItem",
      "outputs": [],
      "stateMutability": "nonpayable",
      "type": "function"
    },
    {
      "inputs": [
        {
          "components": [
            {
              "internalType": "address",
              "name": "pool",
              "type": "address"
            },
            {
              "internalType": "address",
              "name": "token",
              "type": "address"
            },
            {
              "internalType": "string",
              "name": "poolName",
              "type": "string"
            },
            {
              "internalType": "address",
              "name": "bribe",
              "type": "address"
            },
            {
              "internalType": "enum GlobalPayoutListener.Operation",
              "name": "operation",
              "type": "uint8"
            },
            {
              "internalType": "address",
              "name": "to",
              "type": "address"
            },
            {
              "internalType": "string",
              "name": "dexName",
              "type": "string"
            },
            {
              "internalType": "uint24",
              "name": "feePercent",
              "type": "uint24"
            },
            {
              "internalType": "address",
              "name": "feeReceiver",
              "type": "address"
            },
            {
              "internalType": "uint256[10]",
              "name": "__gap",
              "type": "uint256[10]"
            }
          ],
          "internalType": "struct GlobalPayoutListener.Item[]",
          "name": "items",
          "type": "tuple[]"
        }
      ],
      "name": "addItems",
      "outputs": [],
      "stateMutability": "nonpayable",
      "type": "function"
    },
    {
      "inputs": [],
      "name": "arbitrum",
      "outputs": [],
      "stateMutability": "nonpayable",
      "type": "function"
    },
    {
      "inputs": [],
      "name": "disabled",
      "outputs": [
        {
          "internalType": "bool",
          "name": "",
          "type": "bool"
        }
      ],
      "stateMutability": "view",
      "type": "function"
    },
    {
      "inputs": [
        {
          "internalType": "address",
          "name": "pool",
          "type": "address"
        }
      ],
      "name": "findItemsByPool",
      "outputs": [
        {
          "components": [
            {
              "internalType": "address",
              "name": "pool",
              "type": "address"
            },
            {
              "internalType": "address",
              "name": "token",
              "type": "address"
            },
            {
              "internalType": "string",
              "name": "poolName",
              "type": "string"
            },
            {
              "internalType": "address",
              "name": "bribe",
              "type": "address"
            },
            {
              "internalType": "enum GlobalPayoutListener.Operation",
              "name": "operation",
              "type": "uint8"
            },
            {
              "internalType": "address",
              "name": "to",
              "type": "address"
            },
            {
              "internalType": "string",
              "name": "dexName",
              "type": "string"
            },
            {
              "internalType": "uint24",
              "name": "feePercent",
              "type": "uint24"
            },
            {
              "internalType": "address",
              "name": "feeReceiver",
              "type": "address"
            },
            {
              "internalType": "uint256[10]",
              "name": "__gap",
              "type": "uint256[10]"
            }
          ],
          "internalType": "struct GlobalPayoutListener.Item[]",
          "name": "",
          "type": "tuple[]"
        }
      ],
      "stateMutability": "view",
      "type": "function"
    },
    {
      "inputs": [],
      "name": "getItems",
      "outputs": [
        {
          "components": [
            {
              "internalType": "address",
              "name": "pool",
              "type": "address"
            },
            {
              "internalType": "address",
              "name": "token",
              "type": "address"
            },
            {
              "internalType": "string",
              "name": "poolName",
              "type": "string"
            },
            {
              "internalType": "address",
              "name": "bribe",
              "type": "address"
            },
            {
              "internalType": "enum GlobalPayoutListener.Operation",
              "name": "operation",
              "type": "uint8"
            },
            {
              "internalType": "address",
              "name": "to",
              "type": "address"
            },
            {
              "internalType": "string",
              "name": "dexName",
              "type": "string"
            },
            {
              "internalType": "uint24",
              "name": "feePercent",
              "type": "uint24"
            },
            {
              "internalType": "address",
              "name": "feeReceiver",
              "type": "address"
            },
            {
              "internalType": "uint256[10]",
              "name": "__gap",
              "type": "uint256[10]"
            }
          ],
          "internalType": "struct GlobalPayoutListener.Item[]",
          "name": "",
          "type": "tuple[]"
        }
      ],
      "stateMutability": "view",
      "type": "function"
    },
    {
      "inputs": [],
      "name": "getItemsLength",
      "outputs": [
        {
          "internalType": "uint256",
          "name": "",
          "type": "uint256"
        }
      ],
      "stateMutability": "view",
      "type": "function"
    },
    {
      "inputs": [
        {
          "internalType": "bytes32",
          "name": "role",
          "type": "bytes32"
        }
      ],
      "name": "getRoleAdmin",
      "outputs": [
        {
          "internalType": "bytes32",
          "name": "",
          "type": "bytes32"
        }
      ],
      "stateMutability": "view",
      "type": "function"
    },
    {
      "inputs": [
        {
          "internalType": "bytes32",
          "name": "role",
          "type": "bytes32"
        },
        {
          "internalType": "address",
          "name": "account",
          "type": "address"
        }
      ],
      "name": "grantRole",
      "outputs": [],
      "stateMutability": "nonpayable",
      "type": "function"
    },
    {
      "inputs": [
        {
          "internalType": "bytes32",
          "name": "role",
          "type": "bytes32"
        },
        {
          "internalType": "address",
          "name": "account",
          "type": "address"
        }
      ],
      "name": "hasRole",
      "outputs": [
        {
          "internalType": "bool",
          "name": "",
          "type": "bool"
        }
      ],
      "stateMutability": "view",
      "type": "function"
    },
    {
      "inputs": [],
      "name": "initialize",
      "outputs": [],
      "stateMutability": "nonpayable",
      "type": "function"
    },
    {
      "inputs": [
        {
          "internalType": "uint256",
          "name": "",
          "type": "uint256"
        }
      ],
      "name": "items",
      "outputs": [
        {
          "internalType": "address",
          "name": "pool",
          "type": "address"
        },
        {
          "internalType": "address",
          "name": "token",
          "type": "address"
        },
        {
          "internalType": "string",
          "name": "poolName",
          "type": "string"
        },
        {
          "internalType": "address",
          "name": "bribe",
          "type": "address"
        },
        {
          "internalType": "enum GlobalPayoutListener.Operation",
          "name": "operation",
          "type": "uint8"
        },
        {
          "internalType": "address",
          "name": "to",
          "type": "address"
        },
        {
          "internalType": "string",
          "name": "dexName",
          "type": "string"
        },
        {
          "internalType": "uint24",
          "name": "feePercent",
          "type": "uint24"
        },
        {
          "internalType": "address",
          "name": "feeReceiver",
          "type": "address"
        }
      ],
      "stateMutability": "view",
      "type": "function"
    },
    {
      "inputs": [
        {
          "internalType": "address",
          "name": "token",
          "type": "address"
        }
      ],
      "name": "payoutDone",
      "outputs": [],
      "stateMutability": "nonpayable",
      "type": "function"
    },
    {
      "inputs": [],
      "name": "proxiableUUID",
      "outputs": [
        {
          "internalType": "bytes32",
          "name": "",
          "type": "bytes32"
        }
      ],
      "stateMutability": "view",
      "type": "function"
    },
    {
      "inputs": [
        {
          "internalType": "address",
          "name": "token",
          "type": "address"
        },
        {
          "internalType": "address",
          "name": "pool",
          "type": "address"
        }
      ],
      "name": "removeItem",
      "outputs": [],
      "stateMutability": "nonpayable",
      "type": "function"
    },
    {
      "inputs": [],
      "name": "removeItems",
      "outputs": [],
      "stateMutability": "nonpayable",
      "type": "function"
    },
    {
      "inputs": [
        {
          "internalType": "bytes32",
          "name": "role",
          "type": "bytes32"
        },
        {
          "internalType": "address",
          "name": "account",
          "type": "address"
        }
      ],
      "name": "renounceRole",
      "outputs": [],
      "stateMutability": "nonpayable",
      "type": "function"
    },
    {
      "inputs": [
        {
          "internalType": "bytes32",
          "name": "role",
          "type": "bytes32"
        },
        {
          "internalType": "address",
          "name": "account",
          "type": "address"
        }
      ],
      "name": "revokeRole",
      "outputs": [],
      "stateMutability": "nonpayable",
      "type": "function"
    },
    {
      "inputs": [
        {
          "internalType": "bool",
          "name": "_value",
          "type": "bool"
        }
      ],
      "name": "setDisabled",
      "outputs": [],
      "stateMutability": "nonpayable",
      "type": "function"
    },
    {
      "inputs": [
        {
          "internalType": "bytes4",
          "name": "interfaceId",
          "type": "bytes4"
        }
      ],
      "name": "supportsInterface",
      "outputs": [
        {
          "internalType": "bool",
          "name": "",
          "type": "bool"
        }
      ],
      "stateMutability": "view",
      "type": "function"
    },
    {
      "inputs": [
        {
          "internalType": "address",
          "name": "newImplementation",
          "type": "address"
        }
      ],
      "name": "upgradeTo",
      "outputs": [],
      "stateMutability": "nonpayable",
      "type": "function"
    },
    {
      "inputs": [
        {
          "internalType": "address",
          "name": "newImplementation",
          "type": "address"
        },
        {
          "internalType": "bytes",
          "name": "data",
          "type": "bytes"
        }
      ],
      "name": "upgradeToAndCall",
      "outputs": [],
      "stateMutability": "payable",
      "type": "function"
    }
  ],
  "numDeployments": 5,
  "solcInputHash": "08d18ad8bf4efc61f937b4f647644b08",
  "bytecode": "0x60a06040523060601b6080523480156200001857600080fd5b50600054610100900460ff16158080156200003a5750600054600160ff909116105b806200006a575062000057306200014460201b620025ae1760201c565b1580156200006a575060005460ff166001145b620000d25760405162461bcd60e51b815260206004820152602e60248201527f496e697469616c697a61626c653a20636f6e747261637420697320616c72656160448201526d191e481a5b9a5d1a585b1a5e995960921b606482015260840160405180910390fd5b6000805460ff191660011790558015620000f6576000805461ff0019166101001790555b80156200013d576000805461ff0019169055604051600181527f7f26b83ff96e1f2b6a682f133852f6798a09c465da95921460cefb38474024989060200160405180910390a15b5062000153565b6001600160a01b03163b151590565b60805160601c6143146200018e600039600081816105400152818161058001528181610c1c01528181610c5c0152610ceb01526143146000f3fe60806040526004361061014b5760003560e01c80636e28e3d5116100b6578063bfb231d21161006f578063bfb231d214610393578063c53963e6146103c8578063d0b11c1e146103e8578063d547741f14610408578063ee07080514610428578063f7b04c671461044257600080fd5b80636e28e3d5146102d55780638129fc1c146102f557806391d148541461030a5780639d433fb51461032a578063a217fddf1461034a578063bd0f10531461035f57600080fd5b80633ca34eae116101085780633ca34eae14610236578063410d59cc146102635780634f1ef2861461027857806352d1902d1461028b5780636bc82839146102a05780636c5a7d1e146102b557600080fd5b806301ffc9a714610150578063194f479514610185578063248a9ca3146101a45780632f2ff15d146101d457806336568abe146101f65780633659cfe614610216575b600080fd5b34801561015c57600080fd5b5061017061016b366004613b4c565b610451565b60405190151581526020015b60405180910390f35b34801561019157600080fd5b5060fb545b60405190815260200161017c565b3480156101b057600080fd5b506101966101bf366004613af7565b60009081526065602052604090206001015490565b3480156101e057600080fd5b506101f46101ef366004613b29565b610488565b005b34801561020257600080fd5b506101f4610211366004613b29565b6104b2565b34801561022257600080fd5b506101f4610231366004613945565b610535565b34801561024257600080fd5b50610256610251366004613945565b610615565b60405161017c9190613d3a565b34801561026f57600080fd5b506102566109aa565b6101f4610286366004613993565b610c11565b34801561029757600080fd5b50610196610cde565b3480156102ac57600080fd5b506101f4610d91565b3480156102c157600080fd5b506101f46102d0366004613abd565b610e7d565b3480156102e157600080fd5b506101f46102f0366004613945565b610ef2565b34801561030157600080fd5b506101f46112a1565b34801561031657600080fd5b50610170610325366004613b29565b611364565b34801561033657600080fd5b506101f46103453660046139f5565b61138f565b34801561035657600080fd5b50610196600081565b34801561036b57600080fd5b506101967f3eb675f159e6ca6cf5de6bfbbc8c4521cfd428f5e9166e51094d5898504caf2d81565b34801561039f57600080fd5b506103b36103ae366004613af7565b6113fc565b60405161017c99989796959493929190613cb5565b3480156103d457600080fd5b506101f46103e3366004613960565b61159b565b3480156103f457600080fd5b506101f4610403366004613b76565b611de6565b34801561041457600080fd5b506101f4610423366004613b29565b612587565b34801561043457600080fd5b5060fc546101709060ff1681565b34801561044e57600080fd5b50005b60006001600160e01b03198216637965db0b60e01b148061048257506301ffc9a760e01b6001600160e01b03198316145b92915050565b6000828152606560205260409020600101546104a3816125bd565b6104ad83836125c7565b505050565b6001600160a01b03811633146105275760405162461bcd60e51b815260206004820152602f60248201527f416363657373436f6e74726f6c3a2063616e206f6e6c792072656e6f756e636560448201526e103937b632b9903337b91039b2b63360891b60648201526084015b60405180910390fd5b610531828261264d565b5050565b306001600160a01b037f000000000000000000000000000000000000000000000000000000000000000016141561057e5760405162461bcd60e51b815260040161051e90613f83565b7f00000000000000000000000000000000000000000000000000000000000000006001600160a01b03166105c7600080516020614278833981519152546001600160a01b031690565b6001600160a01b0316146105ed5760405162461bcd60e51b815260040161051e90613fcf565b6105f6816126b4565b60408051600080825260208201909252610612918391906126bf565b50565b60606000805b60fb5481101561068257836001600160a01b031660fb82815481106106425761064261423d565b60009182526020909120601190910201546001600160a01b03161415610670578161066c816141e0565b9250505b8061067a816141e0565b91505061061b565b5060008167ffffffffffffffff81111561069e5761069e614253565b6040519080825280602002602001820160405280156106d757816020015b6106c4613593565b8152602001906001900390816106bc5790505b5090506000805b60fb548110156109a057856001600160a01b031660fb82815481106107055761070561423d565b60009182526020909120601190910201546001600160a01b0316141561098e57600060fb828154811061073a5761073a61423d565b60009182526020918290206040805161014081018252601190930290910180546001600160a01b039081168452600182015416938301939093526002830180549293929184019161078a906141a5565b80601f01602080910402602001604051908101604052809291908181526020018280546107b6906141a5565b80156108035780601f106107d857610100808354040283529160200191610803565b820191906000526020600020905b8154815290600101906020018083116107e657829003601f168201915b50505091835250506003828101546001600160a01b0381166020840152604090920191600160a01b900460ff169081111561084057610840614211565b600381111561085157610851614211565b815260048201546001600160a01b0316602082015260058201805460409092019161087b906141a5565b80601f01602080910402602001604051908101604052809291908181526020018280546108a7906141a5565b80156108f45780601f106108c9576101008083540402835291602001916108f4565b820191906000526020600020905b8154815290600101906020018083116108d757829003601f168201915b5050509183525050600682015462ffffff81166020830152630100000090046001600160a01b03166040808301919091528051610140810191829052606090920191906007840190600a9082845b815481526020019060010190808311610942575050505050815250509050808484815181106109735761097361423d565b60200260200101819052508280610989906141e0565b935050505b80610998816141e0565b9150506106de565b5090949350505050565b606060fb805480602002602001604051908101604052809291908181526020016000905b82821015610c0857600084815260209081902060408051610140810182526011860290920180546001600160a01b0390811684526001820154169383019390935260028301805492939291840191610a25906141a5565b80601f0160208091040260200160405190810160405280929190818152602001828054610a51906141a5565b8015610a9e5780601f10610a7357610100808354040283529160200191610a9e565b820191906000526020600020905b815481529060010190602001808311610a8157829003601f168201915b50505091835250506003828101546001600160a01b0381166020840152604090920191600160a01b900460ff1690811115610adb57610adb614211565b6003811115610aec57610aec614211565b815260048201546001600160a01b03166020820152600582018054604090920191610b16906141a5565b80601f0160208091040260200160405190810160405280929190818152602001828054610b42906141a5565b8015610b8f5780601f10610b6457610100808354040283529160200191610b8f565b820191906000526020600020905b815481529060010190602001808311610b7257829003601f168201915b5050509183525050600682015462ffffff81166020830152630100000090046001600160a01b03166040808301919091528051610140810191829052606090920191906007840190600a9082845b815481526020019060010190808311610bdd57505050505081525050815260200190600101906109ce565b50505050905090565b306001600160a01b037f0000000000000000000000000000000000000000000000000000000000000000161415610c5a5760405162461bcd60e51b815260040161051e90613f83565b7f00000000000000000000000000000000000000000000000000000000000000006001600160a01b0316610ca3600080516020614278833981519152546001600160a01b031690565b6001600160a01b031614610cc95760405162461bcd60e51b815260040161051e90613fcf565b610cd2826126b4565b610531828260016126bf565b6000306001600160a01b037f00000000000000000000000000000000000000000000000000000000000000001614610d7e5760405162461bcd60e51b815260206004820152603860248201527f555550535570677261646561626c653a206d757374206e6f742062652063616c60448201527f6c6564207468726f7567682064656c656761746563616c6c0000000000000000606482015260840161051e565b5060008051602061427883398151915290565b610d9c600033611364565b610db85760405162461bcd60e51b815260040161051e90614069565b60fb5460005b818110156105315760fb805480610dd757610dd7614227565b60008281526020812060116000199093019283020180546001600160a01b03199081168255600182018054909116905590610e1560028301826135ec565b6003820180546001600160a81b03191690556004820180546001600160a01b0319169055610e476005830160006135ec565b6006820180546001600160b81b0319169055610e67600783016000613626565b5050905580610e75816141e0565b915050610dbe565b610e88600033611364565b610ea45760405162461bcd60e51b815260040161051e90614069565b60fc805460ff191682151590811790915560405160ff909116151581527f0e836a283085867e84aa4dfd94164de8ce61ee6d9e57dfae5e0fcf1eff8f268c906020015b60405180910390a150565b610f1c7f3eb675f159e6ca6cf5de6bfbbc8c4521cfd428f5e9166e51094d5898504caf2d33611364565b610f685760405162461bcd60e51b815260206004820152601b60248201527f43616c6c6572206973206e6f74207468652045584348414e4745520000000000604482015260640161051e565b60fc5460ff1615610f9f576040517f2db5145a2d675741edae5a00c79aee42925aec079cd653aaa2745197e860b98e90600090a150565b60005b60fb5481101561053157600060fb8281548110610fc157610fc161423d565b60009182526020918290206040805161014081018252601190930290910180546001600160a01b0390811684526001820154169383019390935260028301805492939291840191611011906141a5565b80601f016020809104026020016040519081016040528092919081815260200182805461103d906141a5565b801561108a5780601f1061105f5761010080835404028352916020019161108a565b820191906000526020600020905b81548152906001019060200180831161106d57829003601f168201915b50505091835250506003828101546001600160a01b0381166020840152604090920191600160a01b900460ff16908111156110c7576110c7614211565b60038111156110d8576110d8614211565b815260048201546001600160a01b03166020820152600582018054604090920191611102906141a5565b80601f016020809104026020016040519081016040528092919081815260200182805461112e906141a5565b801561117b5780601f106111505761010080835404028352916020019161117b565b820191906000526020600020905b81548152906001019060200180831161115e57829003601f168201915b5050509183525050600682015462ffffff81166020830152630100000090046001600160a01b03166040808301919091528051610140810191829052606090920191906007840190600a9082845b8154815260200190600101908083116111c9575050505050815250509050826001600160a01b031681602001516001600160a01b03161461120a575061128f565b60018160800151600381111561122257611222614211565b14156112365761123181612839565b61128d565b60008160800151600381111561124e5761124e614211565b141561125d57611231816128c4565b60028160800151600381111561127557611275614211565b14156112845761123181612c15565b61128d81612fc6565b505b80611299816141e0565b915050610fa2565b600054610100900460ff16158080156112c15750600054600160ff909116105b806112db5750303b1580156112db575060005460ff166001145b6112f75760405162461bcd60e51b815260040161051e9061401b565b6000805460ff19166001179055801561131a576000805461ff0019166101001790555b611322613007565b8015610612576000805461ff0019169055604051600181527f7f26b83ff96e1f2b6a682f133852f6798a09c465da95921460cefb384740249890602001610ee7565b60009182526065602090815260408084206001600160a01b0393909316845291905290205460ff1690565b61139a600033611364565b6113b65760405162461bcd60e51b815260040161051e90614069565b60005b81518110156105315760008282815181106113d6576113d661423d565b602002602001015190506113e981611de6565b50806113f4816141e0565b9150506113b9565b60fb818154811061140c57600080fd5b60009182526020909120601190910201805460018201546002830180546001600160a01b039384169550929091169291611445906141a5565b80601f0160208091040260200160405190810160405280929190818152602001828054611471906141a5565b80156114be5780601f10611493576101008083540402835291602001916114be565b820191906000526020600020905b8154815290600101906020018083116114a157829003601f168201915b505050506003830154600484015460058501805494956001600160a01b0380851696600160a01b90950460ff169550909216926114fa906141a5565b80601f0160208091040260200160405190810160405280929190818152602001828054611526906141a5565b80156115735780601f1061154857610100808354040283529160200191611573565b820191906000526020600020905b81548152906001019060200180831161155657829003601f168201915b5050506006909301549192505062ffffff8116906001600160a01b0363010000009091041689565b6115a6600033611364565b6115c25760405162461bcd60e51b815260040161051e90614069565b6001600160a01b0382166116085760405162461bcd60e51b815260206004820152600d60248201526c746f6b656e206973207a65726f60981b604482015260640161051e565b6001600160a01b03811661164d5760405162461bcd60e51b815260206004820152600c60248201526b706f6f6c206973207a65726f60a01b604482015260640161051e565b60005b60fb54811015611dac57600060fb828154811061166f5761166f61423d565b60009182526020918290206040805161014081018252601190930290910180546001600160a01b03908116845260018201541693830193909352600283018054929392918401916116bf906141a5565b80601f01602080910402602001604051908101604052809291908181526020018280546116eb906141a5565b80156117385780601f1061170d57610100808354040283529160200191611738565b820191906000526020600020905b81548152906001019060200180831161171b57829003601f168201915b50505091835250506003828101546001600160a01b0381166020840152604090920191600160a01b900460ff169081111561177557611775614211565b600381111561178657611786614211565b815260048201546001600160a01b031660208201526005820180546040909201916117b0906141a5565b80601f01602080910402602001604051908101604052809291908181526020018280546117dc906141a5565b80156118295780601f106117fe57610100808354040283529160200191611829565b820191906000526020600020905b81548152906001019060200180831161180c57829003601f168201915b5050509183525050600682015462ffffff81166020830152630100000090046001600160a01b03166040808301919091528051610140810191829052606090920191906007840190600a9082845b815481526020019060010190808311611877575050505050815250509050836001600160a01b031681602001516001600160a01b03161480156118cf5750826001600160a01b031681600001516001600160a01b0316145b15611d9957815b60fb546118e59060019061414b565b811015611ca957600060fb6118fb8360016140f2565b8154811061190b5761190b61423d565b60009182526020918290206040805161014081018252601190930290910180546001600160a01b039081168452600182015416938301939093526002830180549293929184019161195b906141a5565b80601f0160208091040260200160405190810160405280929190818152602001828054611987906141a5565b80156119d45780601f106119a9576101008083540402835291602001916119d4565b820191906000526020600020905b8154815290600101906020018083116119b757829003601f168201915b50505091835250506003828101546001600160a01b0381166020840152604090920191600160a01b900460ff1690811115611a1157611a11614211565b6003811115611a2257611a22614211565b815260048201546001600160a01b03166020820152600582018054604090920191611a4c906141a5565b80601f0160208091040260200160405190810160405280929190818152602001828054611a78906141a5565b8015611ac55780601f10611a9a57610100808354040283529160200191611ac5565b820191906000526020600020905b815481529060010190602001808311611aa857829003601f168201915b5050509183525050600682015462ffffff81166020830152630100000090046001600160a01b03166040808301919091528051610140810191829052606090920191906007840190600a9082845b815481526020019060010190808311611b135750505050508152505090508060fb8381548110611b4557611b4561423d565b6000918252602091829020835160119092020180546001600160a01b039283166001600160a01b03199182161782558484015160018301805491909416911617909155604083015180519192611ba392600285019290910190613635565b506060820151600380830180546001600160a01b039093166001600160a01b031984168117825560808601519391926001600160a81b03199092161790600160a01b908490811115611bf757611bf7614211565b021790555060a08201516004820180546001600160a01b0319166001600160a01b0390921691909117905560c08201518051611c3d916005840191602090910190613635565b5060e08201516006820180546101008501516001600160a01b03166301000000026001600160b81b031990911662ffffff90931692909217919091179055610120820151611c91906007830190600a6136b9565b50905050508080611ca1906141e0565b9150506118d6565b5060fb805480611cbb57611cbb614227565b60008281526020812060116000199093019283020180546001600160a01b03199081168255600182018054909116905590611cf960028301826135ec565b6003820180546001600160a81b03191690556004820180546001600160a01b0319169055611d2b6005830160006135ec565b6006820180546001600160b81b0319169055611d4b600783016000613626565b50509055604080516001600160a01b038087168252851660208201527f68e2e4dc27ec3ffea1ce098b4fe6d29f6a1e663455d9a77a3bc859cc67027a2191015b60405180910390a150505050565b5080611da4816141e0565b915050611650565b5060405162461bcd60e51b815260206004820152600e60248201526d1a5d195b481b9bdd08199bdd5b9960921b604482015260640161051e565b611df1600033611364565b611e0d5760405162461bcd60e51b815260040161051e90614069565b60208101516001600160a01b0316611e575760405162461bcd60e51b815260206004820152600d60248201526c746f6b656e206973207a65726f60981b604482015260640161051e565b80516001600160a01b0316611e9d5760405162461bcd60e51b815260206004820152600c60248201526b706f6f6c206973207a65726f60a01b604482015260640161051e565b600081608001516003811115611eb557611eb5614211565b1415611f075760a08101516001600160a01b0316611f025760405162461bcd60e51b815260206004820152600a602482015269746f206973207a65726f60b01b604482015260640161051e565b611f6f565b600281608001516003811115611f1f57611f1f614211565b1415611f6f5760608101516001600160a01b0316611f6f5760405162461bcd60e51b815260206004820152600d60248201526c6272696265206973207a65726f60981b604482015260640161051e565b600160005b60fb5481101561237057600060fb8281548110611f9357611f9361423d565b60009182526020918290206040805161014081018252601190930290910180546001600160a01b0390811684526001820154169383019390935260028301805492939291840191611fe3906141a5565b80601f016020809104026020016040519081016040528092919081815260200182805461200f906141a5565b801561205c5780601f106120315761010080835404028352916020019161205c565b820191906000526020600020905b81548152906001019060200180831161203f57829003601f168201915b50505091835250506003828101546001600160a01b0381166020840152604090920191600160a01b900460ff169081111561209957612099614211565b60038111156120aa576120aa614211565b815260048201546001600160a01b031660208201526005820180546040909201916120d4906141a5565b80601f0160208091040260200160405190810160405280929190818152602001828054612100906141a5565b801561214d5780601f106121225761010080835404028352916020019161214d565b820191906000526020600020905b81548152906001019060200180831161213057829003601f168201915b5050509183525050600682015462ffffff81166020830152630100000090046001600160a01b03166040808301919091528051610140810191829052606090920191906007840190600a9082845b81548152602001906001019080831161219b57505050505081525050905083602001516001600160a01b031681602001516001600160a01b03161480156121f05750835181516001600160a01b039081169116145b1561235d578360fb83815481106122095761220961423d565b6000918252602091829020835160119092020180546001600160a01b039283166001600160a01b0319918216178255848401516001830180549190941691161790915560408301518051919261226792600285019290910190613635565b506060820151600380830180546001600160a01b039093166001600160a01b031984168117825560808601519391926001600160a81b03199092161790600160a01b9084908111156122bb576122bb614211565b021790555060a08201516004820180546001600160a01b0319166001600160a01b0390921691909117905560c08201518051612301916005840191602090910190613635565b5060e08201516006820180546101008501516001600160a01b03166301000000026001600160b81b031990911662ffffff90931692909217919091179055610120820151612355906007830190600a6136b9565b506000945050505b5080612368816141e0565b915050611f74565b50801561252f5760fb805460018101825560009190915282517f3e7257b7272bb46d49cd6019b04ddee20da7c0cb13f7c1ec3391291b2ccebabc601190920291820180546001600160a01b03199081166001600160a01b039384161782556020808701517f3e7257b7272bb46d49cd6019b04ddee20da7c0cb13f7c1ec3391291b2ccebabd860180549093169416939093179055604085015180518694929361243d937f3e7257b7272bb46d49cd6019b04ddee20da7c0cb13f7c1ec3391291b2ccebabe01920190613635565b506060820151600380830180546001600160a01b039093166001600160a01b031984168117825560808601519391926001600160a81b03199092161790600160a01b90849081111561249157612491614211565b021790555060a08201516004820180546001600160a01b0319166001600160a01b0390921691909117905560c082015180516124d7916005840191602090910190613635565b5060e08201516006820180546101008501516001600160a01b03166301000000026001600160b81b031990911662ffffff9093169290921791909117905561012082015161252b906007830190600a6136b9565b5050505b602082015182516040517f2ab4ebfadf1dbb6985345a1d09dabe17cafc9f765b05fc738368c0ab2886ab039261257b9290916001600160a01b0392831681529116602082015260400190565b60405180910390a15050565b6000828152606560205260409020600101546125a2816125bd565b6104ad838361264d565b565b6001600160a01b03163b151590565b61061281336130e7565b6125d18282611364565b6105315760008281526065602090815260408083206001600160a01b03851684529091529020805460ff191660011790556126093390565b6001600160a01b0316816001600160a01b0316837f2f8788117e7eff1d82e926ec794901d17c78024a50270940304540a733656f0d60405160405180910390a45050565b6126578282611364565b156105315760008281526065602090815260408083206001600160a01b0385168085529252808320805460ff1916905551339285917ff6391f5c32d9c69d2a47ea670b442974b53935d1edc7fd64eb21e047a839171b9190a45050565b6000610531816125bd565b7f4910fdfa16fed3260ed0e7147f7cc6da11a60208b5b9406d12a635614ffd91435460ff16156126f2576104ad83613140565b826001600160a01b03166352d1902d6040518163ffffffff1660e01b815260040160206040518083038186803b15801561272b57600080fd5b505afa92505050801561275b575060408051601f3d908101601f1916820190925261275891810190613b10565b60015b6127be5760405162461bcd60e51b815260206004820152602e60248201527f45524331393637557067726164653a206e657720696d706c656d656e7461746960448201526d6f6e206973206e6f74205555505360901b606482015260840161051e565b600080516020614278833981519152811461282d5760405162461bcd60e51b815260206004820152602960248201527f45524331393637557067726164653a20756e737570706f727465642070726f786044820152681a58589b195555525160ba1b606482015260840161051e565b506104ad8383836131dc565b80600001516001600160a01b031663fff6cae96040518163ffffffff1660e01b8152600401600060405180830381600087803b15801561287857600080fd5b505af115801561288c573d6000803e3d6000fd5b50505060c08201516040808401518451602086015192516000805160206142988339815191529550610ee79493906000908190613f3f565b60208101516040516370a0823160e01b81523060048201526000906001600160a01b038316906370a082319060240160206040518083038186803b15801561290b57600080fd5b505afa15801561291f573d6000803e3d6000fd5b505050506040513d601f19601f820116820180604052508101906129439190613b10565b835160405163bc25cf7760e01b81523060048201529192506001600160a01b03169063bc25cf7790602401600060405180830381600087803b15801561298857600080fd5b505af115801561299c573d6000803e3d6000fd5b50506040516370a0823160e01b8152306004820152600092508391506001600160a01b038516906370a082319060240160206040518083038186803b1580156129e457600080fd5b505afa1580156129f8573d6000803e3d6000fd5b505050506040513d601f19601f82011682018060405250810190612a1c9190613b10565b612a26919061414b565b90508015612c0f5760e084015162ffffff1615612b4557600060648560e0015162ffffff1683612a56919061412c565b612a60919061410a565b9050612a6c818361414b565b91508015612b435761010085015160405163a9059cbb60e01b81526001600160a01b039182166004820152602481018390529085169063a9059cbb90604401602060405180830381600087803b158015612ac557600080fd5b505af1158015612ad9573d6000803e3d6000fd5b505050506040513d601f19601f82011682018060405250810190612afd9190613ada565b506000805160206142988339815191528560c00151866040015187600001518860200151858a6101000151604051612b3a96959493929190613efb565b60405180910390a15b505b8015612c0f5760a084015160405163a9059cbb60e01b81526001600160a01b039182166004820152602481018390529084169063a9059cbb90604401602060405180830381600087803b158015612b9b57600080fd5b505af1158015612baf573d6000803e3d6000fd5b505050506040513d601f19601f82011682018060405250810190612bd39190613ada565b506000805160206142988339815191528460c00151856040015186600001518760200151858960a00151604051611d8b96959493929190613efb565b50505050565b60208101516040516370a0823160e01b81523060048201526000906001600160a01b038316906370a082319060240160206040518083038186803b158015612c5c57600080fd5b505afa158015612c70573d6000803e3d6000fd5b505050506040513d601f19601f82011682018060405250810190612c949190613b10565b835160405163bc25cf7760e01b81523060048201529192506001600160a01b03169063bc25cf7790602401600060405180830381600087803b158015612cd957600080fd5b505af1158015612ced573d6000803e3d6000fd5b50506040516370a0823160e01b8152306004820152600092508391506001600160a01b038516906370a082319060240160206040518083038186803b158015612d3557600080fd5b505afa158015612d49573d6000803e3d6000fd5b505050506040513d601f19601f82011682018060405250810190612d6d9190613b10565b612d77919061414b565b90508015612c0f5760e084015162ffffff1615612e9657600060648560e0015162ffffff1683612da7919061412c565b612db1919061410a565b9050612dbd818361414b565b91508015612e945761010085015160405163a9059cbb60e01b81526001600160a01b039182166004820152602481018390529085169063a9059cbb90604401602060405180830381600087803b158015612e1657600080fd5b505af1158015612e2a573d6000803e3d6000fd5b505050506040513d601f19601f82011682018060405250810190612e4e9190613ada565b506000805160206142988339815191528560c00151866040015187600001518860200151858a6101000151604051612e8b96959493929190613e82565b60405180910390a15b505b8015612c0f57606084015160405163095ea7b360e01b81526001600160a01b039182166004820152602481018390529084169063095ea7b390604401602060405180830381600087803b158015612eec57600080fd5b505af1158015612f00573d6000803e3d6000fd5b505050506040513d601f19601f82011682018060405250810190612f249190613ada565b506060840151602085015160405163b66503cf60e01b81526001600160a01b0391821660048201526024810184905291169063b66503cf90604401600060405180830381600087803b158015612f7957600080fd5b505af1158015612f8d573d6000803e3d6000fd5b50505060c08501516040808701518751602089015160608a015193516000805160206142988339815191529650611d8b95948891613e82565b60405162461bcd60e51b815260206004820152601660248201527510dd5cdd1bdb481b9bdd081a5b5c1b195b595b9d195960521b604482015260640161051e565b600054610100900460ff16158080156130275750600054600160ff909116105b806130415750303b158015613041575060005460ff166001145b61305d5760405162461bcd60e51b815260040161051e9061401b565b6000805460ff191660011790558015613080576000805461ff0019166101001790555b613088613201565b613090613201565b61309b6000336125c7565b60fc805460ff191690558015610612576000805461ff0019169055604051600181527f7f26b83ff96e1f2b6a682f133852f6798a09c465da95921460cefb384740249890602001610ee7565b6130f18282611364565b610531576130fe8161326c565b61310983602061327e565b60405160200161311a929190613c40565b60408051601f198184030181529082905262461bcd60e51b825261051e91600401613e6f565b6001600160a01b0381163b6131ad5760405162461bcd60e51b815260206004820152602d60248201527f455243313936373a206e657720696d706c656d656e746174696f6e206973206e60448201526c1bdd08184818dbdb9d1c9858dd609a1b606482015260840161051e565b60008051602061427883398151915280546001600160a01b0319166001600160a01b0392909216919091179055565b6131e583613421565b6000825111806131f25750805b156104ad57612c0f8383613461565b600054610100900460ff166125ac5760405162461bcd60e51b815260206004820152602b60248201527f496e697469616c697a61626c653a20636f6e7472616374206973206e6f74206960448201526a6e697469616c697a696e6760a81b606482015260840161051e565b60606104826001600160a01b03831660145b6060600061328d83600261412c565b6132989060026140f2565b67ffffffffffffffff8111156132b0576132b0614253565b6040519080825280601f01601f1916602001820160405280156132da576020820181803683370190505b509050600360fc1b816000815181106132f5576132f561423d565b60200101906001600160f81b031916908160001a905350600f60fb1b816001815181106133245761332461423d565b60200101906001600160f81b031916908160001a905350600061334884600261412c565b6133539060016140f2565b90505b60018111156133cb576f181899199a1a9b1b9c1cb0b131b232b360811b85600f16601081106133875761338761423d565b1a60f81b82828151811061339d5761339d61423d565b60200101906001600160f81b031916908160001a90535060049490941c936133c48161418e565b9050613356565b50831561341a5760405162461bcd60e51b815260206004820181905260248201527f537472696e67733a20686578206c656e67746820696e73756666696369656e74604482015260640161051e565b9392505050565b61342a81613140565b6040516001600160a01b038216907fbc7cd75a20ee27fd9adebab32041f755214dbc6bffa90cc0225b39da2e5c2d3b90600090a250565b60606001600160a01b0383163b6134c95760405162461bcd60e51b815260206004820152602660248201527f416464726573733a2064656c65676174652063616c6c20746f206e6f6e2d636f6044820152651b9d1c9858dd60d21b606482015260840161051e565b600080846001600160a01b0316846040516134e49190613c24565b600060405180830381855af49150503d806000811461351f576040519150601f19603f3d011682016040523d82523d6000602084013e613524565b606091505b509150915061354c82826040518060600160405280602781526020016142b860279139613555565b95945050505050565b6060831561356457508161341a565b61341a83838151156135795781518083602001fd5b8060405162461bcd60e51b815260040161051e9190613e6f565b6040805161014081018252600080825260208201819052606092820183905291810182905290608082019081526000602082018190526060604083018190528201819052608082015260a0016135e76136e6565b905290565b5080546135f8906141a5565b6000825580601f10613608575050565b601f0160209004906000526020600020908101906106129190613705565b5061061290600a810190613705565b828054613641906141a5565b90600052602060002090601f01602090048101928261366357600085556136a9565b82601f1061367c57805160ff19168380011785556136a9565b828001600101855582156136a9579182015b828111156136a957825182559160200191906001019061368e565b506136b5929150613705565b5090565b82600a81019282156136a957916020028201828111156136a957825182559160200191906001019061368e565b604051806101400160405280600a906020820280368337509192915050565b5b808211156136b55760008155600101613706565b600067ffffffffffffffff83111561373457613734614253565b613747601f8401601f19166020016140c1565b905082815283838301111561375b57600080fd5b828260208301376000602084830101529392505050565b80356001600160a01b038116811461378957600080fd5b919050565b600082601f83011261379f57600080fd5b60405161014080820182811067ffffffffffffffff821117156137c4576137c4614253565b60405281848281018710156137d857600080fd5b600092505b600a8310156137fd578035825260019290920191602091820191016137dd565b509195945050505050565b80356004811061378957600080fd5b600082601f83011261382857600080fd5b61341a8383356020850161371a565b6000610260828403121561384a57600080fd5b613852614097565b905061385d82613772565b815261386b60208301613772565b6020820152604082013567ffffffffffffffff8082111561388b57600080fd5b61389785838601613817565b60408401526138a860608501613772565b60608401526138b960808501613808565b60808401526138ca60a08501613772565b60a084015260c08401359150808211156138e357600080fd5b506138f084828501613817565b60c08301525061390260e08301613932565b60e0820152610100613915818401613772565b908201526101206139288484830161378e565b9082015292915050565b803562ffffff8116811461378957600080fd5b60006020828403121561395757600080fd5b61341a82613772565b6000806040838503121561397357600080fd5b61397c83613772565b915061398a60208401613772565b90509250929050565b600080604083850312156139a657600080fd5b6139af83613772565b9150602083013567ffffffffffffffff8111156139cb57600080fd5b8301601f810185136139dc57600080fd5b6139eb8582356020840161371a565b9150509250929050565b60006020808385031215613a0857600080fd5b823567ffffffffffffffff80821115613a2057600080fd5b818501915085601f830112613a3457600080fd5b813581811115613a4657613a46614253565b8060051b613a558582016140c1565b8281528581019085870183870188018b1015613a7057600080fd5b60009350835b85811015613aad57813587811115613a8c578586fd5b613a9a8d8b838c0101613837565b8552509288019290880190600101613a76565b50909a9950505050505050505050565b600060208284031215613acf57600080fd5b813561341a81614269565b600060208284031215613aec57600080fd5b815161341a81614269565b600060208284031215613b0957600080fd5b5035919050565b600060208284031215613b2257600080fd5b5051919050565b60008060408385031215613b3c57600080fd5b8235915061398a60208401613772565b600060208284031215613b5e57600080fd5b81356001600160e01b03198116811461341a57600080fd5b600060208284031215613b8857600080fd5b813567ffffffffffffffff811115613b9f57600080fd5b613bab84828501613837565b949350505050565b8060005b600a811015612c0f578151845260209384019390910190600101613bb7565b60048110613bf457634e487b7160e01b600052602160045260246000fd5b9052565b60008151808452613c10816020860160208601614162565b601f01601f19169290920160200192915050565b60008251613c36818460208701614162565b9190910192915050565b7f416363657373436f6e74726f6c3a206163636f756e7420000000000000000000815260008351613c78816017850160208801614162565b7001034b99036b4b9b9b4b733903937b6329607d1b6017918401918201528351613ca9816028840160208801614162565b01602801949350505050565b6001600160a01b038a81168252898116602083015261012060408301819052600091613ce38483018c613bf8565b9150808a166060850152613cfa608085018a613bd6565b80881660a085015283820360c0850152613d148288613bf8565b925062ffffff861660e085015280851661010085015250509a9950505050505050505050565b60006020808301818452808551808352604092508286019150828160051b87010184880160005b83811015613e6157888303603f19018552815180516001600160a01b03168452610260818901516001600160a01b038116868b015250878201518189870152613dac82870182613bf8565b915050606080830151613dc9828801826001600160a01b03169052565b5050608080830151613ddd82880182613bd6565b505060a0828101516001600160a01b03169086015260c08083015186830382880152613e098382613bf8565b9250505060e080830151613e238288018262ffffff169052565b5050610100828101516001600160a01b0316908601526101209182015191613e4d81870184613bb3565b509588019593505090860190600101613d61565b509098975050505050505050565b60208152600061341a6020830184613bf8565b60e081526000613e9560e0830189613bf8565b8281038060208501526005825264427269626560d81b602083015260408101604085015250613ec76040820189613bf8565b6001600160a01b0397881660608501529587166080840152505060a081019290925290921660c09092019190915292915050565b60e081526000613f0e60e0830189613bf8565b8281038060208501526004825263536b696d60e01b602083015260408101604085015250613ec76040820189613bf8565b60e081526000613f5260e0830189613bf8565b828103806020850152600482526353796e6360e01b602083015260408101604085015250613ec76040820189613bf8565b6020808252602c908201527f46756e6374696f6e206d7573742062652063616c6c6564207468726f7567682060408201526b19195b1959d85d1958d85b1b60a21b606082015260800190565b6020808252602c908201527f46756e6374696f6e206d7573742062652063616c6c6564207468726f7567682060408201526b6163746976652070726f787960a01b606082015260800190565b6020808252602e908201527f496e697469616c697a61626c653a20636f6e747261637420697320616c72656160408201526d191e481a5b9a5d1a585b1a5e995960921b606082015260800190565b6020808252601490820152735265737472696374656420746f2061646d696e7360601b604082015260600190565b604051610140810167ffffffffffffffff811182821017156140bb576140bb614253565b60405290565b604051601f8201601f1916810167ffffffffffffffff811182821017156140ea576140ea614253565b604052919050565b60008219821115614105576141056141fb565b500190565b60008261412757634e487b7160e01b600052601260045260246000fd5b500490565b6000816000190483118215151615614146576141466141fb565b500290565b60008282101561415d5761415d6141fb565b500390565b60005b8381101561417d578181015183820152602001614165565b83811115612c0f5750506000910152565b60008161419d5761419d6141fb565b506000190190565b600181811c908216806141b957607f821691505b602082108114156141da57634e487b7160e01b600052602260045260246000fd5b50919050565b60006000198214156141f4576141f46141fb565b5060010190565b634e487b7160e01b600052601160045260246000fd5b634e487b7160e01b600052602160045260246000fd5b634e487b7160e01b600052603160045260246000fd5b634e487b7160e01b600052603260045260246000fd5b634e487b7160e01b600052604160045260246000fd5b801515811461061257600080fdfe360894a13ba1a3210667c828492db98dca3e2076cc3735a920a3ca505d382bbccb414e813f34d59db194a1937a70c199f2a691ccd6ee32704df2b38170acb6ed416464726573733a206c6f772d6c6576656c2064656c65676174652063616c6c206661696c6564a26469706673582212206593a892e453acfe118f97e66f447059da1a336868a6fccaadeb8a540f6698af64736f6c63430008060033",
  "implementation": "0xFAc722133a19D38833cc105b1349715717CF050E",
  "devdoc": {
    "kind": "dev",
    "methods": {
      "constructor": {
        "custom:oz-upgrades-unsafe-allow": "constructor"
      },
      "getRoleAdmin(bytes32)": {
        "details": "Returns the admin role that controls `role`. See {grantRole} and {revokeRole}. To change a role's admin, use {_setRoleAdmin}."
      },
      "grantRole(bytes32,address)": {
        "details": "Grants `role` to `account`. If `account` had not been already granted `role`, emits a {RoleGranted} event. Requirements: - the caller must have ``role``'s admin role. May emit a {RoleGranted} event."
      },
      "hasRole(bytes32,address)": {
        "details": "Returns `true` if `account` has been granted `role`."
      },
      "proxiableUUID()": {
        "details": "Implementation of the ERC1822 {proxiableUUID} function. This returns the storage slot used by the implementation. It is used to validate the implementation's compatibility when performing an upgrade. IMPORTANT: A proxy pointing at a proxiable contract should not be considered proxiable itself, because this risks bricking a proxy that upgrades to it, by delegating to itself until out of gas. Thus it is critical that this function revert if invoked through a proxy. This is guaranteed by the `notDelegated` modifier."
      },
      "renounceRole(bytes32,address)": {
        "details": "Revokes `role` from the calling account. Roles are often managed via {grantRole} and {revokeRole}: this function's purpose is to provide a mechanism for accounts to lose their privileges if they are compromised (such as when a trusted device is misplaced). If the calling account had been revoked `role`, emits a {RoleRevoked} event. Requirements: - the caller must be `account`. May emit a {RoleRevoked} event."
      },
      "revokeRole(bytes32,address)": {
        "details": "Revokes `role` from `account`. If `account` had been granted `role`, emits a {RoleRevoked} event. Requirements: - the caller must have ``role``'s admin role. May emit a {RoleRevoked} event."
      },
      "supportsInterface(bytes4)": {
        "details": "See {IERC165-supportsInterface}."
      },
      "upgradeTo(address)": {
        "details": "Upgrade the implementation of the proxy to `newImplementation`. Calls {_authorizeUpgrade}. Emits an {Upgraded} event."
      },
      "upgradeToAndCall(address,bytes)": {
        "details": "Upgrade the implementation of the proxy to `newImplementation`, and subsequently execute the function call encoded in `data`. Calls {_authorizeUpgrade}. Emits an {Upgraded} event."
      }
    },
    "version": 1
  },
  "userdoc": {
    "kind": "user",
    "methods": {
      "addItem((address,address,string,address,uint8,address,string,uint24,address,uint256[10]))": {
        "notice": "Add new item to list or update exist item"
      },
      "addItems((address,address,string,address,uint8,address,string,uint24,address,uint256[10])[])": {
        "notice": "Add new items to list or update exist items"
      },
      "findItemsByPool(address)": {
        "notice": "Find items by pool address"
      },
      "getItems()": {
        "notice": "Get items"
      },
      "getItemsLength()": {
        "notice": "Get items length"
      },
      "payoutDone(address)": {
        "notice": "This function executing in payout after increase/decrease liquidity index for USD+|DAI+|ETS tokens see details: Exchange.sol | HedgeExchanger.sol"
      },
      "removeItem(address,address)": {
        "notice": "Remove item from items"
      },
      "removeItems()": {
        "notice": "Remove items"
      }
    },
    "version": 1
  },
  "storageLayout": {
    "storage": [
      {
        "astId": 804,
        "contract": "contracts/payoutlisteners/ArbitrumPayoutListener.sol:ArbitrumPayoutListener",
        "label": "_initialized",
        "offset": 0,
        "slot": "0",
        "type": "t_uint8"
      },
      {
        "astId": 807,
        "contract": "contracts/payoutlisteners/ArbitrumPayoutListener.sol:ArbitrumPayoutListener",
        "label": "_initializing",
        "offset": 1,
        "slot": "0",
        "type": "t_bool"
      },
      {
        "astId": 1427,
        "contract": "contracts/payoutlisteners/ArbitrumPayoutListener.sol:ArbitrumPayoutListener",
        "label": "__gap",
        "offset": 0,
        "slot": "1",
        "type": "t_array(t_uint256)50_storage"
      },
      {
        "astId": 1706,
        "contract": "contracts/payoutlisteners/ArbitrumPayoutListener.sol:ArbitrumPayoutListener",
        "label": "__gap",
        "offset": 0,
        "slot": "51",
        "type": "t_array(t_uint256)50_storage"
      },
      {
        "astId": 39,
        "contract": "contracts/payoutlisteners/ArbitrumPayoutListener.sol:ArbitrumPayoutListener",
        "label": "_roles",
        "offset": 0,
        "slot": "101",
        "type": "t_mapping(t_bytes32,t_struct(RoleData)34_storage)"
      },
      {
        "astId": 334,
        "contract": "contracts/payoutlisteners/ArbitrumPayoutListener.sol:ArbitrumPayoutListener",
        "label": "__gap",
        "offset": 0,
        "slot": "102",
        "type": "t_array(t_uint256)49_storage"
      },
      {
        "astId": 786,
        "contract": "contracts/payoutlisteners/ArbitrumPayoutListener.sol:ArbitrumPayoutListener",
        "label": "__gap",
        "offset": 0,
        "slot": "151",
        "type": "t_array(t_uint256)50_storage"
      },
      {
        "astId": 1101,
        "contract": "contracts/payoutlisteners/ArbitrumPayoutListener.sol:ArbitrumPayoutListener",
        "label": "__gap",
        "offset": 0,
        "slot": "201",
        "type": "t_array(t_uint256)50_storage"
      },
      {
        "astId": 2715,
        "contract": "contracts/payoutlisteners/ArbitrumPayoutListener.sol:ArbitrumPayoutListener",
        "label": "items",
        "offset": 0,
        "slot": "251",
        "type": "t_array(t_struct(Item)2706_storage)dyn_storage"
      },
      {
        "astId": 2717,
        "contract": "contracts/payoutlisteners/ArbitrumPayoutListener.sol:ArbitrumPayoutListener",
        "label": "disabled",
        "offset": 0,
        "slot": "252",
        "type": "t_bool"
      },
      {
        "astId": 3639,
        "contract": "contracts/payoutlisteners/ArbitrumPayoutListener.sol:ArbitrumPayoutListener",
        "label": "__gap",
        "offset": 0,
        "slot": "253",
        "type": "t_array(t_uint256)50_storage"
      }
    ],
    "types": {
      "t_address": {
        "encoding": "inplace",
        "label": "address",
        "numberOfBytes": "20"
      },
      "t_array(t_struct(Item)2706_storage)dyn_storage": {
        "base": "t_struct(Item)2706_storage",
        "encoding": "dynamic_array",
        "label": "struct GlobalPayoutListener.Item[]",
        "numberOfBytes": "32"
      },
      "t_array(t_uint256)10_storage": {
        "base": "t_uint256",
        "encoding": "inplace",
        "label": "uint256[10]",
        "numberOfBytes": "320"
      },
      "t_array(t_uint256)49_storage": {
        "base": "t_uint256",
        "encoding": "inplace",
        "label": "uint256[49]",
        "numberOfBytes": "1568"
      },
      "t_array(t_uint256)50_storage": {
        "base": "t_uint256",
        "encoding": "inplace",
        "label": "uint256[50]",
        "numberOfBytes": "1600"
      },
      "t_bool": {
        "encoding": "inplace",
        "label": "bool",
        "numberOfBytes": "1"
      },
      "t_bytes32": {
        "encoding": "inplace",
        "label": "bytes32",
        "numberOfBytes": "32"
      },
      "t_enum(Operation)2711": {
        "encoding": "inplace",
        "label": "enum GlobalPayoutListener.Operation",
        "numberOfBytes": "1"
      },
      "t_mapping(t_address,t_bool)": {
        "encoding": "mapping",
        "key": "t_address",
        "label": "mapping(address => bool)",
        "numberOfBytes": "32",
        "value": "t_bool"
      },
      "t_mapping(t_bytes32,t_struct(RoleData)34_storage)": {
        "encoding": "mapping",
        "key": "t_bytes32",
        "label": "mapping(bytes32 => struct AccessControlUpgradeable.RoleData)",
        "numberOfBytes": "32",
        "value": "t_struct(RoleData)34_storage"
      },
      "t_string_storage": {
        "encoding": "bytes",
        "label": "string",
        "numberOfBytes": "32"
      },
      "t_struct(Item)2706_storage": {
        "encoding": "inplace",
        "label": "struct GlobalPayoutListener.Item",
        "members": [
          {
            "astId": 2684,
            "contract": "contracts/payoutlisteners/ArbitrumPayoutListener.sol:ArbitrumPayoutListener",
            "label": "pool",
            "offset": 0,
            "slot": "0",
            "type": "t_address"
          },
          {
            "astId": 2686,
            "contract": "contracts/payoutlisteners/ArbitrumPayoutListener.sol:ArbitrumPayoutListener",
            "label": "token",
            "offset": 0,
            "slot": "1",
            "type": "t_address"
          },
          {
            "astId": 2688,
            "contract": "contracts/payoutlisteners/ArbitrumPayoutListener.sol:ArbitrumPayoutListener",
            "label": "poolName",
            "offset": 0,
            "slot": "2",
            "type": "t_string_storage"
          },
          {
            "astId": 2690,
            "contract": "contracts/payoutlisteners/ArbitrumPayoutListener.sol:ArbitrumPayoutListener",
            "label": "bribe",
            "offset": 0,
            "slot": "3",
            "type": "t_address"
          },
          {
            "astId": 2693,
            "contract": "contracts/payoutlisteners/ArbitrumPayoutListener.sol:ArbitrumPayoutListener",
            "label": "operation",
            "offset": 20,
            "slot": "3",
            "type": "t_enum(Operation)2711"
          },
          {
            "astId": 2695,
            "contract": "contracts/payoutlisteners/ArbitrumPayoutListener.sol:ArbitrumPayoutListener",
            "label": "to",
            "offset": 0,
            "slot": "4",
            "type": "t_address"
          },
          {
            "astId": 2697,
            "contract": "contracts/payoutlisteners/ArbitrumPayoutListener.sol:ArbitrumPayoutListener",
            "label": "dexName",
            "offset": 0,
            "slot": "5",
            "type": "t_string_storage"
          },
          {
            "astId": 2699,
            "contract": "contracts/payoutlisteners/ArbitrumPayoutListener.sol:ArbitrumPayoutListener",
            "label": "feePercent",
            "offset": 0,
            "slot": "6",
            "type": "t_uint24"
          },
          {
            "astId": 2701,
            "contract": "contracts/payoutlisteners/ArbitrumPayoutListener.sol:ArbitrumPayoutListener",
            "label": "feeReceiver",
            "offset": 3,
            "slot": "6",
            "type": "t_address"
          },
          {
            "astId": 2705,
            "contract": "contracts/payoutlisteners/ArbitrumPayoutListener.sol:ArbitrumPayoutListener",
            "label": "__gap",
            "offset": 0,
            "slot": "7",
            "type": "t_array(t_uint256)10_storage"
          }
        ],
        "numberOfBytes": "544"
      },
      "t_struct(RoleData)34_storage": {
        "encoding": "inplace",
        "label": "struct AccessControlUpgradeable.RoleData",
        "members": [
          {
            "astId": 31,
            "contract": "contracts/payoutlisteners/ArbitrumPayoutListener.sol:ArbitrumPayoutListener",
            "label": "members",
            "offset": 0,
            "slot": "0",
            "type": "t_mapping(t_address,t_bool)"
          },
          {
            "astId": 33,
            "contract": "contracts/payoutlisteners/ArbitrumPayoutListener.sol:ArbitrumPayoutListener",
            "label": "adminRole",
            "offset": 0,
            "slot": "1",
            "type": "t_bytes32"
          }
        ],
        "numberOfBytes": "64"
      },
      "t_uint24": {
        "encoding": "inplace",
        "label": "uint24",
        "numberOfBytes": "3"
      },
      "t_uint256": {
        "encoding": "inplace",
        "label": "uint256",
        "numberOfBytes": "32"
      },
      "t_uint8": {
        "encoding": "inplace",
        "label": "uint8",
        "numberOfBytes": "1"
      }
    }
  }
}