{
  "address": "0x73cb180bf0521828d8849bc8CF2B920918e23032",
  "abi": [
    {
      "inputs": [],
      "stateMutability": "nonpayable",
      "type": "constructor"
    },
    {
      "anonymous": false,
      "inputs": [
        {
          "indexed": false,
          "internalType": "uint256",
          "name": "min",
          "type": "uint256"
        },
        {
          "indexed": false,
          "internalType": "uint256",
          "name": "max",
          "type": "uint256"
        }
      ],
      "name": "Abroad",
      "type": "event"
    },
    {
      "anonymous": false,
      "inputs": [
        {
          "indexed": false,
          "internalType": "address",
          "name": "previousAdmin",
          "type": "address"
        },
        {
          "indexed": false,
          "internalType": "address",
          "name": "newAdmin",
          "type": "address"
        }
      ],
      "name": "AdminChanged",
      "type": "event"
    },
    {
      "anonymous": false,
      "inputs": [
        {
          "indexed": true,
          "internalType": "address",
          "name": "beacon",
          "type": "address"
        }
      ],
      "name": "BeaconUpgraded",
      "type": "event"
    },
    {
      "anonymous": false,
      "inputs": [
        {
          "indexed": false,
          "internalType": "uint256",
          "name": "fee",
          "type": "uint256"
        },
        {
          "indexed": false,
          "internalType": "uint256",
          "name": "feeDenominator",
          "type": "uint256"
        }
      ],
      "name": "BuyFeeUpdated",
      "type": "event"
    },
    {
      "anonymous": false,
      "inputs": [
        {
          "indexed": false,
          "internalType": "uint256",
          "name": "compensateLoss",
          "type": "uint256"
        },
        {
          "indexed": false,
          "internalType": "uint256",
          "name": "denominator",
          "type": "uint256"
        }
      ],
      "name": "CompensateLossUpdate",
      "type": "event"
    },
    {
      "anonymous": false,
      "inputs": [
        {
          "indexed": false,
          "internalType": "string",
          "name": "label",
          "type": "string"
        },
        {
          "indexed": false,
          "internalType": "uint256",
          "name": "amount",
          "type": "uint256"
        },
        {
          "indexed": false,
          "internalType": "uint256",
          "name": "fee",
          "type": "uint256"
        },
        {
          "indexed": false,
          "internalType": "address",
          "name": "sender",
          "type": "address"
        },
        {
          "indexed": false,
          "internalType": "string",
          "name": "referral",
          "type": "string"
        }
      ],
      "name": "EventExchange",
      "type": "event"
    },
    {
      "anonymous": false,
      "inputs": [
        {
          "indexed": false,
          "internalType": "uint8",
          "name": "version",
          "type": "uint8"
        }
      ],
      "name": "Initialized",
      "type": "event"
    },
    {
      "anonymous": false,
      "inputs": [
        {
          "indexed": false,
          "internalType": "address",
          "name": "insurance",
          "type": "address"
        }
      ],
      "name": "InsuranceUpdated",
      "type": "event"
    },
    {
      "anonymous": false,
      "inputs": [
        {
          "indexed": false,
          "internalType": "address",
          "name": "mark2market",
          "type": "address"
        }
      ],
      "name": "Mark2MarketUpdated",
      "type": "event"
    },
    {
      "anonymous": false,
      "inputs": [
        {
          "indexed": false,
          "internalType": "uint256",
          "name": "nextPayoutTime",
          "type": "uint256"
        }
      ],
      "name": "NextPayoutTime",
      "type": "event"
    },
    {
      "anonymous": false,
      "inputs": [
        {
          "indexed": false,
          "internalType": "address",
          "name": "token",
          "type": "address"
        },
        {
          "indexed": false,
          "internalType": "uint256",
          "name": "amount",
          "type": "uint256"
        }
      ],
      "name": "OnNotEnoughLimitRedeemed",
      "type": "event"
    },
    {
      "anonymous": false,
      "inputs": [
        {
          "indexed": false,
          "internalType": "uint256",
          "name": "oracleLoss",
          "type": "uint256"
        },
        {
          "indexed": false,
          "internalType": "uint256",
          "name": "denominator",
          "type": "uint256"
        }
      ],
      "name": "OracleLossUpdate",
      "type": "event"
    },
    {
      "anonymous": false,
      "inputs": [
        {
          "indexed": false,
          "internalType": "uint256",
          "name": "amount",
          "type": "uint256"
        },
        {
          "indexed": false,
          "internalType": "uint256",
          "name": "feeAmount",
          "type": "uint256"
        }
      ],
      "name": "PaidBuyFee",
      "type": "event"
    },
    {
      "anonymous": false,
      "inputs": [
        {
          "indexed": false,
          "internalType": "uint256",
          "name": "amount",
          "type": "uint256"
        },
        {
          "indexed": false,
          "internalType": "uint256",
          "name": "feeAmount",
          "type": "uint256"
        }
      ],
      "name": "PaidRedeemFee",
      "type": "event"
    },
    {
      "anonymous": false,
      "inputs": [
        {
          "indexed": false,
          "internalType": "address",
          "name": "account",
          "type": "address"
        }
      ],
      "name": "Paused",
      "type": "event"
    },
    {
      "anonymous": false,
      "inputs": [
        {
          "indexed": false,
          "internalType": "uint256",
          "name": "delta",
          "type": "uint256"
        },
        {
          "indexed": false,
          "internalType": "uint256",
          "name": "deltaUsdPlus",
          "type": "uint256"
        }
      ],
      "name": "PayoutAbroad",
      "type": "event"
    },
    {
      "anonymous": false,
      "inputs": [
        {
          "indexed": false,
          "internalType": "uint256",
          "name": "profit",
          "type": "uint256"
        },
        {
          "indexed": false,
          "internalType": "uint256",
          "name": "newLiquidityIndex",
          "type": "uint256"
        },
        {
          "indexed": false,
          "internalType": "uint256",
          "name": "excessProfit",
          "type": "uint256"
        },
        {
          "indexed": false,
          "internalType": "uint256",
          "name": "insurancePremium",
          "type": "uint256"
        },
        {
          "indexed": false,
          "internalType": "uint256",
          "name": "insuranceLoss",
          "type": "uint256"
        }
      ],
      "name": "PayoutEvent",
      "type": "event"
    },
    {
      "anonymous": false,
      "inputs": [
        {
          "indexed": false,
          "internalType": "address",
          "name": "payoutListener",
          "type": "address"
        }
      ],
      "name": "PayoutListenerUpdated",
      "type": "event"
    },
    {
      "anonymous": false,
      "inputs": [
        {
          "indexed": false,
          "internalType": "uint256",
          "name": "nextPayoutTime",
          "type": "uint256"
        },
        {
          "indexed": false,
          "internalType": "uint256",
          "name": "payoutPeriod",
          "type": "uint256"
        },
        {
          "indexed": false,
          "internalType": "uint256",
          "name": "payoutTimeRange",
          "type": "uint256"
        }
      ],
      "name": "PayoutTimesUpdated",
      "type": "event"
    },
    {
      "anonymous": false,
      "inputs": [
        {
          "indexed": false,
          "internalType": "address",
          "name": "portfolioManager",
          "type": "address"
        }
      ],
      "name": "PortfolioManagerUpdated",
      "type": "event"
    },
    {
      "anonymous": false,
      "inputs": [
        {
          "indexed": false,
          "internalType": "address",
          "name": "recipient",
          "type": "address"
        }
      ],
      "name": "ProfitRecipientUpdated",
      "type": "event"
    },
    {
      "anonymous": false,
      "inputs": [
        {
          "indexed": false,
          "internalType": "uint256",
          "name": "fee",
          "type": "uint256"
        },
        {
          "indexed": false,
          "internalType": "uint256",
          "name": "feeDenominator",
          "type": "uint256"
        }
      ],
      "name": "RedeemFeeUpdated",
      "type": "event"
    },
    {
      "anonymous": false,
      "inputs": [
        {
          "indexed": true,
          "internalType": "bytes32",
          "name": "role",
          "type": "bytes32"
        },
        {
          "indexed": true,
          "internalType": "bytes32",
          "name": "previousAdminRole",
          "type": "bytes32"
        },
        {
          "indexed": true,
          "internalType": "bytes32",
          "name": "newAdminRole",
          "type": "bytes32"
        }
      ],
      "name": "RoleAdminChanged",
      "type": "event"
    },
    {
      "anonymous": false,
      "inputs": [
        {
          "indexed": true,
          "internalType": "bytes32",
          "name": "role",
          "type": "bytes32"
        },
        {
          "indexed": true,
          "internalType": "address",
          "name": "account",
          "type": "address"
        },
        {
          "indexed": true,
          "internalType": "address",
          "name": "sender",
          "type": "address"
        }
      ],
      "name": "RoleGranted",
      "type": "event"
    },
    {
      "anonymous": false,
      "inputs": [
        {
          "indexed": true,
          "internalType": "bytes32",
          "name": "role",
          "type": "bytes32"
        },
        {
          "indexed": true,
          "internalType": "address",
          "name": "account",
          "type": "address"
        },
        {
          "indexed": true,
          "internalType": "address",
          "name": "sender",
          "type": "address"
        }
      ],
      "name": "RoleRevoked",
      "type": "event"
    },
    {
      "anonymous": false,
      "inputs": [
        {
          "indexed": false,
          "internalType": "address",
          "name": "usdPlus",
          "type": "address"
        },
        {
          "indexed": false,
          "internalType": "address",
          "name": "asset",
          "type": "address"
        }
      ],
      "name": "TokensUpdated",
      "type": "event"
    },
    {
      "anonymous": false,
      "inputs": [
        {
          "indexed": false,
          "internalType": "address",
          "name": "account",
          "type": "address"
        }
      ],
      "name": "Unpaused",
      "type": "event"
    },
    {
      "anonymous": false,
      "inputs": [
        {
          "indexed": true,
          "internalType": "address",
          "name": "implementation",
          "type": "address"
        }
      ],
      "name": "Upgraded",
      "type": "event"
    },
    {
      "inputs": [],
      "name": "DEFAULT_ADMIN_ROLE",
      "outputs": [
        {
          "internalType": "bytes32",
          "name": "",
          "type": "bytes32"
        }
      ],
      "stateMutability": "view",
      "type": "function"
    },
    {
      "inputs": [],
      "name": "FISK_FACTOR_DM",
      "outputs": [
        {
          "internalType": "uint256",
          "name": "",
          "type": "uint256"
        }
      ],
      "stateMutability": "view",
      "type": "function"
    },
    {
      "inputs": [],
      "name": "FREE_RIDER_ROLE",
      "outputs": [
        {
          "internalType": "bytes32",
          "name": "",
          "type": "bytes32"
        }
      ],
      "stateMutability": "view",
      "type": "function"
    },
    {
      "inputs": [],
      "name": "LIQ_DELTA_DM",
      "outputs": [
        {
          "internalType": "uint256",
          "name": "",
          "type": "uint256"
        }
      ],
      "stateMutability": "view",
      "type": "function"
    },
    {
      "inputs": [],
      "name": "PORTFOLIO_AGENT_ROLE",
      "outputs": [
        {
          "internalType": "bytes32",
          "name": "",
          "type": "bytes32"
        }
      ],
      "stateMutability": "view",
      "type": "function"
    },
    {
      "inputs": [],
      "name": "UNIT_ROLE",
      "outputs": [
        {
          "internalType": "bytes32",
          "name": "",
          "type": "bytes32"
        }
      ],
      "stateMutability": "view",
      "type": "function"
    },
    {
      "inputs": [],
      "name": "abroadMax",
      "outputs": [
        {
          "internalType": "uint256",
          "name": "",
          "type": "uint256"
        }
      ],
      "stateMutability": "view",
      "type": "function"
    },
    {
      "inputs": [],
      "name": "abroadMin",
      "outputs": [
        {
          "internalType": "uint256",
          "name": "",
          "type": "uint256"
        }
      ],
      "stateMutability": "view",
      "type": "function"
    },
    {
      "inputs": [
        {
          "internalType": "address",
          "name": "_asset",
          "type": "address"
        },
        {
          "internalType": "uint256",
          "name": "_amount",
          "type": "uint256"
        }
      ],
      "name": "buy",
      "outputs": [
        {
          "internalType": "uint256",
          "name": "",
          "type": "uint256"
        }
      ],
      "stateMutability": "nonpayable",
      "type": "function"
    },
    {
      "inputs": [],
      "name": "buyFee",
      "outputs": [
        {
          "internalType": "uint256",
          "name": "",
          "type": "uint256"
        }
      ],
      "stateMutability": "view",
      "type": "function"
    },
    {
      "inputs": [],
      "name": "buyFeeDenominator",
      "outputs": [
        {
          "internalType": "uint256",
          "name": "",
          "type": "uint256"
        }
      ],
      "stateMutability": "view",
      "type": "function"
    },
    {
      "inputs": [],
      "name": "changeAdminRoles",
      "outputs": [],
      "stateMutability": "nonpayable",
      "type": "function"
    },
    {
      "inputs": [],
      "name": "compensateLoss",
      "outputs": [
        {
          "internalType": "uint256",
          "name": "",
          "type": "uint256"
        }
      ],
      "stateMutability": "view",
      "type": "function"
    },
    {
      "inputs": [],
      "name": "compensateLossDenominator",
      "outputs": [
        {
          "internalType": "uint256",
          "name": "",
          "type": "uint256"
        }
      ],
      "stateMutability": "view",
      "type": "function"
    },
    {
      "inputs": [
        {
          "internalType": "bytes32",
          "name": "role",
          "type": "bytes32"
        }
      ],
      "name": "getRoleAdmin",
      "outputs": [
        {
          "internalType": "bytes32",
          "name": "",
          "type": "bytes32"
        }
      ],
      "stateMutability": "view",
      "type": "function"
    },
    {
      "inputs": [
        {
          "internalType": "bytes32",
          "name": "role",
          "type": "bytes32"
        },
        {
          "internalType": "address",
          "name": "account",
          "type": "address"
        }
      ],
      "name": "grantRole",
      "outputs": [],
      "stateMutability": "nonpayable",
      "type": "function"
    },
    {
      "inputs": [
        {
          "internalType": "bytes32",
          "name": "role",
          "type": "bytes32"
        },
        {
          "internalType": "address",
          "name": "account",
          "type": "address"
        }
      ],
      "name": "hasRole",
      "outputs": [
        {
          "internalType": "bool",
          "name": "",
          "type": "bool"
        }
      ],
      "stateMutability": "view",
      "type": "function"
    },
    {
      "inputs": [],
      "name": "initialize",
      "outputs": [],
      "stateMutability": "nonpayable",
      "type": "function"
    },
    {
      "inputs": [],
      "name": "insurance",
      "outputs": [
        {
          "internalType": "address",
          "name": "",
          "type": "address"
        }
      ],
      "stateMutability": "view",
      "type": "function"
    },
    {
      "inputs": [],
      "name": "lastBlockNumber",
      "outputs": [
        {
          "internalType": "uint256",
          "name": "",
          "type": "uint256"
        }
      ],
      "stateMutability": "view",
      "type": "function"
    },
    {
      "inputs": [],
      "name": "mark2market",
      "outputs": [
        {
          "internalType": "contract IMark2Market",
          "name": "",
          "type": "address"
        }
      ],
      "stateMutability": "view",
      "type": "function"
    },
    {
      "inputs": [
        {
          "components": [
            {
              "internalType": "address",
              "name": "asset",
              "type": "address"
            },
            {
              "internalType": "uint256",
              "name": "amount",
              "type": "uint256"
            },
            {
              "internalType": "string",
              "name": "referral",
              "type": "string"
            }
          ],
          "internalType": "struct Exchange.MintParams",
          "name": "params",
          "type": "tuple"
        }
      ],
      "name": "mint",
      "outputs": [
        {
          "internalType": "uint256",
          "name": "",
          "type": "uint256"
        }
      ],
      "stateMutability": "nonpayable",
      "type": "function"
    },
    {
      "inputs": [],
      "name": "nextPayoutTime",
      "outputs": [
        {
          "internalType": "uint256",
          "name": "",
          "type": "uint256"
        }
      ],
      "stateMutability": "view",
      "type": "function"
    },
    {
      "inputs": [],
      "name": "oracleLoss",
      "outputs": [
        {
          "internalType": "uint256",
          "name": "",
          "type": "uint256"
        }
      ],
      "stateMutability": "view",
      "type": "function"
    },
    {
      "inputs": [],
      "name": "oracleLossDenominator",
      "outputs": [
        {
          "internalType": "uint256",
          "name": "",
          "type": "uint256"
        }
      ],
      "stateMutability": "view",
      "type": "function"
    },
    {
      "inputs": [],
      "name": "pause",
      "outputs": [],
      "stateMutability": "nonpayable",
      "type": "function"
    },
    {
      "inputs": [],
      "name": "paused",
      "outputs": [
        {
          "internalType": "bool",
          "name": "",
          "type": "bool"
        }
      ],
      "stateMutability": "view",
      "type": "function"
    },
    {
      "inputs": [],
      "name": "payout",
      "outputs": [],
      "stateMutability": "nonpayable",
      "type": "function"
    },
    {
      "inputs": [],
      "name": "payoutListener",
      "outputs": [
        {
          "internalType": "contract IPayoutListener",
          "name": "",
          "type": "address"
        }
      ],
      "stateMutability": "view",
      "type": "function"
    },
    {
      "inputs": [],
      "name": "payoutPeriod",
      "outputs": [
        {
          "internalType": "uint256",
          "name": "",
          "type": "uint256"
        }
      ],
      "stateMutability": "view",
      "type": "function"
    },
    {
      "inputs": [],
      "name": "payoutTimeRange",
      "outputs": [
        {
          "internalType": "uint256",
          "name": "",
          "type": "uint256"
        }
      ],
      "stateMutability": "view",
      "type": "function"
    },
    {
      "inputs": [],
      "name": "portfolioManager",
      "outputs": [
        {
          "internalType": "contract IPortfolioManager",
          "name": "",
          "type": "address"
        }
      ],
      "stateMutability": "view",
      "type": "function"
    },
    {
      "inputs": [],
      "name": "profitRecipient",
      "outputs": [
        {
          "internalType": "address",
          "name": "",
          "type": "address"
        }
      ],
      "stateMutability": "view",
      "type": "function"
    },
    {
      "inputs": [],
      "name": "proxiableUUID",
      "outputs": [
        {
          "internalType": "bytes32",
          "name": "",
          "type": "bytes32"
        }
      ],
      "stateMutability": "view",
      "type": "function"
    },
    {
      "inputs": [
        {
          "internalType": "address",
          "name": "_asset",
          "type": "address"
        },
        {
          "internalType": "uint256",
          "name": "_amount",
          "type": "uint256"
        }
      ],
      "name": "redeem",
      "outputs": [
        {
          "internalType": "uint256",
          "name": "",
          "type": "uint256"
        }
      ],
      "stateMutability": "nonpayable",
      "type": "function"
    },
    {
      "inputs": [],
      "name": "redeemFee",
      "outputs": [
        {
          "internalType": "uint256",
          "name": "",
          "type": "uint256"
        }
      ],
      "stateMutability": "view",
      "type": "function"
    },
    {
      "inputs": [],
      "name": "redeemFeeDenominator",
      "outputs": [
        {
          "internalType": "uint256",
          "name": "",
          "type": "uint256"
        }
      ],
      "stateMutability": "view",
      "type": "function"
    },
    {
      "inputs": [
        {
          "internalType": "bytes32",
          "name": "role",
          "type": "bytes32"
        },
        {
          "internalType": "address",
          "name": "account",
          "type": "address"
        }
      ],
      "name": "renounceRole",
      "outputs": [],
      "stateMutability": "nonpayable",
      "type": "function"
    },
    {
      "inputs": [
        {
          "internalType": "bytes32",
          "name": "role",
          "type": "bytes32"
        },
        {
          "internalType": "address",
          "name": "account",
          "type": "address"
        }
      ],
      "name": "revokeRole",
      "outputs": [],
      "stateMutability": "nonpayable",
      "type": "function"
    },
    {
      "inputs": [
        {
          "internalType": "uint256",
          "name": "_min",
          "type": "uint256"
        },
        {
          "internalType": "uint256",
          "name": "_max",
          "type": "uint256"
        }
      ],
      "name": "setAbroad",
      "outputs": [],
      "stateMutability": "nonpayable",
      "type": "function"
    },
    {
      "inputs": [
        {
          "internalType": "uint256",
          "name": "_fee",
          "type": "uint256"
        },
        {
          "internalType": "uint256",
          "name": "_feeDenominator",
          "type": "uint256"
        }
      ],
      "name": "setBuyFee",
      "outputs": [],
      "stateMutability": "nonpayable",
      "type": "function"
    },
    {
      "inputs": [
        {
          "internalType": "uint256",
          "name": "_compensateLoss",
          "type": "uint256"
        },
        {
          "internalType": "uint256",
          "name": "_denominator",
          "type": "uint256"
        }
      ],
      "name": "setCompensateLoss",
      "outputs": [],
      "stateMutability": "nonpayable",
      "type": "function"
    },
    {
      "inputs": [
        {
          "internalType": "address",
          "name": "_insurance",
          "type": "address"
        }
      ],
      "name": "setInsurance",
      "outputs": [],
      "stateMutability": "nonpayable",
      "type": "function"
    },
    {
      "inputs": [
        {
          "internalType": "address",
          "name": "_mark2market",
          "type": "address"
        }
      ],
      "name": "setMark2Market",
      "outputs": [],
      "stateMutability": "nonpayable",
      "type": "function"
    },
    {
      "inputs": [
        {
          "internalType": "uint256",
          "name": "_oracleLoss",
          "type": "uint256"
        },
        {
          "internalType": "uint256",
          "name": "_denominator",
          "type": "uint256"
        }
      ],
      "name": "setOracleLoss",
      "outputs": [],
      "stateMutability": "nonpayable",
      "type": "function"
    },
    {
      "inputs": [
        {
          "internalType": "address",
          "name": "_payoutListener",
          "type": "address"
        }
      ],
      "name": "setPayoutListener",
      "outputs": [],
      "stateMutability": "nonpayable",
      "type": "function"
    },
    {
      "inputs": [
        {
          "internalType": "uint256",
          "name": "_nextPayoutTime",
          "type": "uint256"
        },
        {
          "internalType": "uint256",
          "name": "_payoutPeriod",
          "type": "uint256"
        },
        {
          "internalType": "uint256",
          "name": "_payoutTimeRange",
          "type": "uint256"
        }
      ],
      "name": "setPayoutTimes",
      "outputs": [],
      "stateMutability": "nonpayable",
      "type": "function"
    },
    {
      "inputs": [
        {
          "internalType": "address",
          "name": "_portfolioManager",
          "type": "address"
        }
      ],
      "name": "setPortfolioManager",
      "outputs": [],
      "stateMutability": "nonpayable",
      "type": "function"
    },
    {
      "inputs": [
        {
          "internalType": "address",
          "name": "_profitRecipient",
          "type": "address"
        }
      ],
      "name": "setProfitRecipient",
      "outputs": [],
      "stateMutability": "nonpayable",
      "type": "function"
    },
    {
      "inputs": [
        {
          "internalType": "uint256",
          "name": "_fee",
          "type": "uint256"
        },
        {
          "internalType": "uint256",
          "name": "_feeDenominator",
          "type": "uint256"
        }
      ],
      "name": "setRedeemFee",
      "outputs": [],
      "stateMutability": "nonpayable",
      "type": "function"
    },
    {
      "inputs": [
        {
          "internalType": "address",
          "name": "_usdPlus",
          "type": "address"
        },
        {
          "internalType": "address",
          "name": "_asset",
          "type": "address"
        }
      ],
      "name": "setTokens",
      "outputs": [],
      "stateMutability": "nonpayable",
      "type": "function"
    },
    {
      "inputs": [
        {
          "internalType": "bytes4",
          "name": "interfaceId",
          "type": "bytes4"
        }
      ],
      "name": "supportsInterface",
      "outputs": [
        {
          "internalType": "bool",
          "name": "",
          "type": "bool"
        }
      ],
      "stateMutability": "view",
      "type": "function"
    },
    {
      "inputs": [],
      "name": "unpause",
      "outputs": [],
      "stateMutability": "nonpayable",
      "type": "function"
    },
    {
      "inputs": [
        {
          "internalType": "address",
          "name": "newImplementation",
          "type": "address"
        }
      ],
      "name": "upgradeTo",
      "outputs": [],
      "stateMutability": "nonpayable",
      "type": "function"
    },
    {
      "inputs": [
        {
          "internalType": "address",
          "name": "newImplementation",
          "type": "address"
        },
        {
          "internalType": "bytes",
          "name": "data",
          "type": "bytes"
        }
      ],
      "name": "upgradeToAndCall",
      "outputs": [],
      "stateMutability": "payable",
      "type": "function"
    },
    {
      "inputs": [],
      "name": "usdPlus",
      "outputs": [
        {
          "internalType": "contract UsdPlusToken",
          "name": "",
          "type": "address"
        }
      ],
      "stateMutability": "view",
      "type": "function"
    },
    {
      "inputs": [],
      "name": "usdc",
      "outputs": [
        {
          "internalType": "contract IERC20",
          "name": "",
          "type": "address"
        }
      ],
      "stateMutability": "view",
      "type": "function"
    }
  ],
  "numDeployments": 1,
  "solcInputHash": "ba1db3f0ade18ed4796ab481591d97b2",
  "bytecode": "0x60a06040523060601b6080523480156200001857600080fd5b50600054610100900460ff16158080156200003a5750600054600160ff909116105b806200006a575062000057306200014460201b62002cc01760201c565b1580156200006a575060005460ff166001145b620000d25760405162461bcd60e51b815260206004820152602e60248201527f496e697469616c697a61626c653a20636f6e747261637420697320616c72656160448201526d191e481a5b9a5d1a585b1a5e995960921b606482015260840160405180910390fd5b6000805460ff191660011790558015620000f6576000805461ff0019166101001790555b80156200013d576000805461ff0019169055604051600181527f7f26b83ff96e1f2b6a682f133852f6798a09c465da95921460cefb38474024989060200160405180910390a15b5062000153565b6001600160a01b03163b151590565b60805160601c6147446200018e60003960008181611081015281816110c1015281816112de0152818161131e01526113ad01526147446000f3fe6080604052600436106103765760003560e01c80636d8ebaa8116101d1578063a440b21a11610102578063ce1aa76b116100a0578063e3d9fc281161006f578063e3d9fc281461098b578063f3869e8d146109a2578063f6951693146109c2578063fb0ecfa4146109e357600080fd5b8063ce1aa76b14610926578063cecbbc071461093d578063d31a193414610954578063d547741f1461096b57600080fd5b8063bd2160c2116100dc578063bd2160c2146108af578063c12e90e9146108cf578063cbc7854e146108e6578063cce7ec131461090657600080fd5b8063a440b21a1461084f578063a4bb42a11461086f578063bc56bebf1461088f57600080fd5b806389cf32041161016f578063965fa21e11610149578063965fa21e146107ec5780639cca16d8146108035780639d70c12914610823578063a217fddf1461083a57600080fd5b806389cf32041461078b57806391d14854146107ac5780639629300c146107cc57600080fd5b80637c5261d8116101ab5780637c5261d8146107295780637e2bad1e146107405780638129fc1c146107615780638456cb591461077657600080fd5b80636d8ebaa8146106d95780637559c329146106f0578063771d147e1461071257600080fd5b80633f4ba83a116102ab5780635c975abb11610249578063620b75df11610223578063620b75df1461066c57806362f098951461068d57806363bd1d4a146106a45780636cd7751f146106b957600080fd5b80635c975abb1461061d5780635d8658b1146106355780635dbd733a1461064a57600080fd5b8063497d919211610285578063497d9192146105b25780634f1ef286146105d4578063514e460a146105e757806352d1902d1461060857600080fd5b80633f4ba83a14610566578063470624021461057b5780634795084f1461059257600080fd5b80632b78fe781161031857806336568abe116102f257806336568abe146104e55780633659cfe61461050557806337044771146105255780633e413bee1461054557600080fd5b80632b78fe781461048c5780632d8cc004146104a35780632f2ff15d146104c557600080fd5b80631e9a6950116103545780631e9a69501461040e578063248a9ca31461042e5780632552317c1461045e57806325990d631461047557600080fd5b806301ffc9a71461037b5780631346c9e7146103b0578063182531f8146103d5575b600080fd5b34801561038757600080fd5b5061039b610396366004614023565b610a03565b60405190151581526020015b60405180910390f35b3480156103bc57600080fd5b506103c76101405481565b6040519081526020016103a7565b3480156103e157600080fd5b50610138546103f6906001600160a01b031681565b6040516001600160a01b0390911681526020016103a7565b34801561041a57600080fd5b506103c7610429366004613f82565b610a3a565b34801561043a57600080fd5b506103c7610449366004613fce565b60009081526065602052604090206001015490565b34801561046a57600080fd5b506103c76101395481565b34801561048157600080fd5b506103c761013f5481565b34801561049857600080fd5b506103c761013a5481565b3480156104af57600080fd5b506104c36104be366004614088565b610f33565b005b3480156104d157600080fd5b506104c36104e0366004614000565b610fce565b3480156104f157600080fd5b506104c3610500366004614000565b610ff8565b34801561051157600080fd5b506104c3610520366004613e72565b611076565b34801561053157600080fd5b506104c3610540366004613e72565b611156565b34801561055157600080fd5b5061012e546103f6906001600160a01b031681565b34801561057257600080fd5b506104c36111f9565b34801561058757600080fd5b506103c76101315481565b34801561059e57600080fd5b506104c36105ad366004613e72565b611237565b3480156105be57600080fd5b506103c760008051602061466883398151915281565b6104c36105e2366004613ec0565b6112d3565b3480156105f357600080fd5b5061012d546103f6906001600160a01b031681565b34801561061457600080fd5b506103c76113a0565b34801561062957600080fd5b5060fb5460ff1661039b565b34801561064157600080fd5b506104c3611453565b34801561065657600080fd5b506103c76000805160206146a883398151915281565b34801561067857600080fd5b5061012f546103f6906001600160a01b031681565b34801561069957600080fd5b506103c76101325481565b3480156106b057600080fd5b506104c36114c6565b3480156106c557600080fd5b506104c36106d4366004613e72565b612315565b3480156106e557600080fd5b506103c76101355481565b3480156106fc57600080fd5b506103c760008051602061468883398151915281565b34801561071e57600080fd5b506103c7620186a081565b34801561073557600080fd5b506103c761013b5481565b34801561074c57600080fd5b50610141546103f6906001600160a01b031681565b34801561076d57600080fd5b506104c36123b1565b34801561078257600080fd5b506104c3612567565b34801561079757600080fd5b5061013c546103f6906001600160a01b031681565b3480156107b857600080fd5b5061039b6107c7366004614000565b6125a3565b3480156107d857600080fd5b506103c76107e736600461404d565b6125ce565b3480156107f857600080fd5b506103c76101335481565b34801561080f57600080fd5b506104c361081e366004614088565b61267c565b34801561082f57600080fd5b506103c761013e5481565b34801561084657600080fd5b506103c7600081565b34801561085b57600080fd5b506104c361086a366004613e72565b6126f2565b34801561087b57600080fd5b506104c361088a366004613e72565b61278e565b34801561089b57600080fd5b506104c36108aa366004614088565b612804565b3480156108bb57600080fd5b506104c36108ca366004614088565b612897565b3480156108db57600080fd5b506103c76101345481565b3480156108f257600080fd5b506104c3610901366004613e8d565b61292a565b34801561091257600080fd5b506103c7610921366004613f82565b612a06565b34801561093257600080fd5b506103c76101365481565b34801561094957600080fd5b506103c76101375481565b34801561096057600080fd5b506103c7620f424081565b34801561097757600080fd5b506104c3610986366004614000565b612a77565b34801561099757600080fd5b506103c761013d5481565b3480156109ae57600080fd5b506104c36109bd3660046140aa565b612a9c565b3480156109ce57600080fd5b50610130546103f6906001600160a01b031681565b3480156109ef57600080fd5b506104c36109fe366004614088565b612c2d565b60006001600160e01b03198216637965db0b60e01b1480610a3457506301ffc9a760e01b6001600160e01b03198316145b92915050565b6000610a44612ccf565b610a5c600080516020614688833981519152336125a3565b610a8b57436101395410610a8b5760405162461bcd60e51b8152600401610a82906142d2565b60405180910390fd5b436101395561012e546001600160a01b03848116911614610aee5760405162461bcd60e51b815260206004820152601f60248201527f4f6e6c7920617373657420617661696c61626c6520666f722072656465656d006044820152606401610a82565b60008211610b375760405162461bcd60e51b8152602060048201526016602482015275416d6f756e74206f66205553442b206973207a65726f60501b6044820152606401610a82565b61012d546040516370a0823160e01b815233600482015283916001600160a01b0316906370a082319060240160206040518083038186803b158015610b7b57600080fd5b505afa158015610b8f573d6000803e3d6000fd5b505050506040513d601f19601f82011682018060405250810190610bb39190613fe7565b1015610c015760405162461bcd60e51b815260206004820152601b60248201527f4e6f7420656e6f75676820746f6b656e7320746f2072656465656d00000000006044820152606401610a82565b6000610c0c83612d15565b905060008111610c585760405162461bcd60e51b8152602060048201526017602482015276416d6f756e74206f66206173736574206973207a65726f60481b6044820152606401610a82565b600080610c66836000612e8a565b61012f5461012e5460405163f3fef3a360e01b81526001600160a01b03918216600482015260248101859052929550929350919091169063f3fef3a390604401602060405180830381600087803b158015610cc057600080fd5b505af1158015610cd4573d6000803e3d6000fd5b505050506040513d601f19601f82011682018060405250810190610cf89190613fe7565b5061012d54604051632770a7eb60e21b8152336004820152602481018790526001600160a01b0390911690639dc29fac90604401600060405180830381600087803b158015610d4657600080fd5b505af1158015610d5a573d6000803e3d6000fd5b505061012e546040516370a0823160e01b81523060048201528493506001600160a01b0390911691506370a082319060240160206040518083038186803b158015610da457600080fd5b505afa158015610db8573d6000803e3d6000fd5b505050506040513d601f19601f82011682018060405250810190610ddc9190613fe7565b1015610e365760405162461bcd60e51b8152602060048201526024808201527f4e6f7420656e6f75676820666f72207472616e736665722072656465656d416d6044820152631bdd5b9d60e21b6064820152608401610a82565b61012e5460405163a9059cbb60e01b8152336004820152602481018390526001600160a01b039091169063a9059cbb90604401602060405180830381600087803b158015610e8357600080fd5b505af1158015610e97573d6000803e3d6000fd5b505050506040513d601f19601f82011682018060405250810190610ebb9190613fac565b506040805160a08082526006908201526572656465656d60d01b60c08201526020810183905290810183905233606082015260e0608082018190526000908201527f5215f03b099407f64e52d76ef2416a46b32915d572e87db5d40282538ed36484906101000160405180910390a195945050505050565b610f4b6000805160206146a8833981519152336125a3565b610f675760405162461bcd60e51b8152600401610a82906142fe565b80610f845760405162461bcd60e51b8152600401610a8290614409565b61013d82905561013e81905560408051838152602081018390527ffd477784a91e10a1a8ac1832d94895eef49a29940452ad3635cc3e8eab77e4b791015b60405180910390a15050565b600082815260656020526040902060010154610fe981612f13565b610ff38383612f1d565b505050565b6001600160a01b03811633146110685760405162461bcd60e51b815260206004820152602f60248201527f416363657373436f6e74726f6c3a2063616e206f6e6c792072656e6f756e636560448201526e103937b632b9903337b91039b2b63360891b6064820152608401610a82565b6110728282612fa3565b5050565b306001600160a01b037f00000000000000000000000000000000000000000000000000000000000000001614156110bf5760405162461bcd60e51b8152600401610a82906141c9565b7f00000000000000000000000000000000000000000000000000000000000000006001600160a01b03166111086000805160206146c8833981519152546001600160a01b031690565b6001600160a01b03161461112e5760405162461bcd60e51b8152600401610a8290614215565b6111378161300a565b6040805160008082526020820190925261115391839190613015565b50565b6111616000336125a3565b61117d5760405162461bcd60e51b8152600401610a82906142a4565b6001600160a01b0381166111a35760405162461bcd60e51b8152600401610a8290614335565b61013080546001600160a01b0319166001600160a01b0383169081179091556040519081527f2387291c358bb5414b9fdcdfeb40efddb696908065a6533e47bf60b395f7dcfd906020015b60405180910390a150565b6112116000805160206146a8833981519152336125a3565b61122d5760405162461bcd60e51b8152600401610a82906142fe565b61123561318f565b565b6112426000336125a3565b61125e5760405162461bcd60e51b8152600401610a82906142a4565b6001600160a01b0381166112845760405162461bcd60e51b8152600401610a8290614335565b61014180546001600160a01b0319166001600160a01b0383169081179091556040519081527f97519908572e1d17b754081a3fd2ac67644cf8cda617d672983db516e2308e7c906020016111ee565b306001600160a01b037f000000000000000000000000000000000000000000000000000000000000000016141561131c5760405162461bcd60e51b8152600401610a82906141c9565b7f00000000000000000000000000000000000000000000000000000000000000006001600160a01b03166113656000805160206146c8833981519152546001600160a01b031690565b6001600160a01b03161461138b5760405162461bcd60e51b8152600401610a8290614215565b6113948261300a565b61107282826001613015565b6000306001600160a01b037f000000000000000000000000000000000000000000000000000000000000000016146114405760405162461bcd60e51b815260206004820152603860248201527f555550535570677261646561626c653a206d757374206e6f742062652063616c60448201527f6c6564207468726f7567682064656c656761746563616c6c00000000000000006064820152608401610a82565b506000805160206146c883398151915290565b61145e6000336125a3565b61147a5760405162461bcd60e51b8152600401610a82906142a4565b6114a06000805160206146888339815191526000805160206146a88339815191526131e1565b6112356000805160206146688339815191526000805160206146a88339815191526131e1565b6114ce612ccf565b6114e6600080516020614668833981519152336125a3565b6115275760405162461bcd60e51b815260206004820152601260248201527114995cdd1c9a58dd1959081d1bc8155b9a5d60721b6044820152606401610a82565b61013554610137546115399042614487565b101561154157565b61012f60009054906101000a90046001600160a01b03166001600160a01b031663c6bbf4cb6040518163ffffffff1660e01b8152600401600060405180830381600087803b15801561159257600080fd5b505af11580156115a6573d6000803e3d6000fd5b50505050600061012d60009054906101000a90046001600160a01b03166001600160a01b03166318160ddd6040518163ffffffff1660e01b815260040160206040518083038186803b1580156115fb57600080fd5b505afa15801561160f573d6000803e3d6000fd5b505050506040513d601f19601f820116820180604052508101906116339190613fe7565b9050600081905060006116cb61013060009054906101000a90046001600160a01b03166001600160a01b031663890a8c4f6040518163ffffffff1660e01b815260040160206040518083038186803b15801561168e57600080fd5b505afa1580156116a2573d6000803e3d6000fd5b505050506040513d601f19601f820116820180604052508101906116c69190613fe7565b61322c565b9050600080600080600085881115611853576116e786896145cb565b9250600061013e5461013d548a6116fe91906145ac565b611708919061449f565b90508084116117465760405162461bcd60e51b815260206004820152600a6024820152694f7261636c654c6f737360b01b6044820152606401610a82565b6101405461013f54611758908b6145ac565b611762919061449f565b61176c9085614487565b935061177784612d15565b61013c5461012f54604051631ecf092b60e21b8152600481018490526001600160a01b0391821660248201529296501690637b3c24ac90604401600060405180830381600087803b1580156117cb57600080fd5b505af11580156117df573d6000803e3d6000fd5b505061012f5461012e546040516311f9fbc960e21b81526001600160a01b03918216600482015260248101899052911692506347e7ef249150604401600060405180830381600087803b15801561183557600080fd5b505af1158015611849573d6000803e3d6000fd5b5050505050611df6565b611904620186a061012f60009054906101000a90046001600160a01b03166001600160a01b0316634953bd076040518163ffffffff1660e01b815260040160206040518083038186803b1580156118a957600080fd5b505afa1580156118bd573d6000803e3d6000fd5b505050506040513d601f19601f820116820180604052508101906118e19190613fe7565b6118eb8b8a6145cb565b6118f591906145ac565b6118ff919061449f565b612d15565b93508315611a975761012f5461012e5460405163f3fef3a360e01b81526001600160a01b0391821660048201526024810187905291169063f3fef3a390604401602060405180830381600087803b15801561195e57600080fd5b505af1158015611972573d6000803e3d6000fd5b505050506040513d601f19601f820116820180604052508101906119969190613fe7565b5061012e5461013c5460405163a9059cbb60e01b81526001600160a01b0391821660048201526024810187905291169063a9059cbb90604401602060405180830381600087803b1580156119e957600080fd5b505af11580156119fd573d6000803e3d6000fd5b505050506040513d601f19601f82011682018060405250810190611a219190613fac565b5061013c5460405163c839f15f60e01b8152600481018690526001600160a01b039091169063c839f15f90602401600060405180830381600087803b158015611a6957600080fd5b505af1158015611a7d573d6000803e3d6000fd5b50505050611a8a8461322c565b611a9490876145cb565b95505b61012d546040805163b1bf962d60e01b81529051611b25926001600160a01b03169163b1bf962d916004808301926020929190829003018186803b158015611ade57600080fd5b505afa158015611af2573d6000803e3d6000fd5b505050506040513d601f19601f82011682018060405250810190611b169190613fe7565b611b1f8861338f565b906133ce565b915061012d60009054906101000a90046001600160a01b03166001600160a01b031663bbf44f336040518163ffffffff1660e01b815260040160206040518083038186803b158015611b7657600080fd5b505afa158015611b8a573d6000803e3d6000fd5b505050506040513d601f19601f82011682018060405250810190611bae9190613fe7565b611bbb620f4240846145ac565b611bc5919061449f565b90508061013b541015611df65761012d546040805163bbf44f3360e01b815290516000926001600160a01b03169163bbf44f33916004808301926020929190829003018186803b158015611c1857600080fd5b505afa158015611c2c573d6000803e3d6000fd5b505050506040513d601f19601f82011682018060405250810190611c509190613fe7565b90506000620f42408261013b54611c6791906145ac565b611c71919061449f565b90506000611c8282611b1f8b61338f565b9050600061012d60009054906101000a90046001600160a01b03166001600160a01b031663b1bf962d6040518163ffffffff1660e01b815260040160206040518083038186803b158015611cd557600080fd5b505afa158015611ce9573d6000803e3d6000fd5b505050506040513d601f19601f82011682018060405250810190611d0d9190613fe7565b611d1790836145cb565b9050611d2b611d2682866134af565b613515565b610141549099506001600160a01b0316611d875760405162461bcd60e51b815260206004820152601f60248201527f70726f666974526563697069656e742061646472657373206973207a65726f006044820152606401610a82565b61012d54610141546040516340c10f1960e01b81526001600160a01b039182166004820152602481018c90529116906340c10f1990604401600060405180830381600087803b158015611dd957600080fd5b505af1158015611ded573d6000803e3d6000fd5b50505050505050505b61012d60009054906101000a90046001600160a01b03166001600160a01b03166318160ddd6040518163ffffffff1660e01b815260040160206040518083038186803b158015611e4557600080fd5b505afa158015611e59573d6000803e3d6000fd5b505050506040513d601f19601f82011682018060405250810190611e7d9190613fe7565b9750611ed161013060009054906101000a90046001600160a01b03166001600160a01b031663890a8c4f6040518163ffffffff1660e01b815260040160206040518083038186803b15801561168e57600080fd5b9550611f2561012d60009054906101000a90046001600160a01b03166001600160a01b031663b1bf962d6040518163ffffffff1660e01b815260040160206040518083038186803b158015611ade57600080fd5b915061012d60009054906101000a90046001600160a01b03166001600160a01b031663bbf44f336040518163ffffffff1660e01b815260040160206040518083038186803b158015611f7657600080fd5b505afa158015611f8a573d6000803e3d6000fd5b505050506040513d601f19601f82011682018060405250810190611fae9190613fe7565b611fbb620f4240846145ac565b611fc5919061449f565b90506000611fd389886145cb565b9050600086611fe2838b614487565b611fec9190614487565b61012d5460405163b2be259160e01b8152600481018790529192506001600160a01b03169063b2be259190602401600060405180830381600087803b15801561203457600080fd5b505af1158015612048573d6000803e3d6000fd5b505050508761012d60009054906101000a90046001600160a01b03166001600160a01b03166318160ddd6040518163ffffffff1660e01b815260040160206040518083038186803b15801561209c57600080fd5b505afa1580156120b0573d6000803e3d6000fd5b505050506040513d601f19601f820116820180604052508101906120d49190613fe7565b146121105760405162461bcd60e51b815260206004820152600c60248201526b3a37ba30b610109e903730bb60a11b6044820152606401610a82565b61012d54604080516318160ddd60e01b8152905183926001600160a01b0316916318160ddd916004808301926020929190829003018186803b15801561215557600080fd5b505afa158015612169573d6000803e3d6000fd5b505050506040513d601f19601f8201168201806040525081019061218d9190613fe7565b146121ce5760405162461bcd60e51b81526020600482015260116024820152701d1bdd185b08084f48195e1c1958dd1959607a1b6044820152606401610a82565b610138546001600160a01b03161561224a5761013860009054906101000a90046001600160a01b03166001600160a01b031663f14a74386040518163ffffffff1660e01b8152600401600060405180830381600087803b15801561223157600080fd5b505af1158015612245573d6000803e3d6000fd5b505050505b604080518381526020810186905290810188905260608101879052608081018690527f8dd3783ac3ed2cabfce0fa4347c2cab93b8273171a7e30b28a83147b099c40389060a00160405180910390a15b61013754610135546122ac91906145cb565b42106122cd5761013654610135546122c49190614487565b6101355561229a565b7f6654b7187a0560c4c326844142156c2adf52738d0a615487e0e2a5cd9823c2c46101355460405161230191815260200190565b60405180910390a150505050505050505050565b6123206000336125a3565b61233c5760405162461bcd60e51b8152600401610a82906142a4565b6001600160a01b0381166123625760405162461bcd60e51b8152600401610a8290614335565b61013c80546001600160a01b0319166001600160a01b0383169081179091556040519081527f85a0f0b1d49c1f8eb76d236b1f5cdbb4acb94862ea575640d7399ae8530b0760906020016111ee565b600054610100900460ff16158080156123d15750600054600160ff909116105b806123eb5750303b1580156123eb575060005460ff166001145b61244e5760405162461bcd60e51b815260206004820152602e60248201527f496e697469616c697a61626c653a20636f6e747261637420697320616c72656160448201526d191e481a5b9a5d1a585b1a5e995960921b6064820152608401610a82565b6000805460ff191660011790558015612471576000805461ff0019166101001790555b612479613595565b6124816135bc565b612489613595565b612494600033612f1d565b6028610131819055620186a06101328190556101339190915561013455636195978061013555620151806101365561038461013755620f42a461013a55620f439e61013b556124ff6000805160206146888339815191526000805160206146a88339815191526131e1565b6125256000805160206146688339815191526000805160206146a88339815191526131e1565b8015611153576000805461ff0019169055604051600181527f7f26b83ff96e1f2b6a682f133852f6798a09c465da95921460cefb3847402498906020016111ee565b61257f6000805160206146a8833981519152336125a3565b61259b5760405162461bcd60e51b8152600401610a82906142fe565b6112356135eb565b60009182526065602090815260408084206001600160a01b0393909316845291905290205460ff1690565b60006125d8612ccf565b6125f0600080516020614688833981519152336125a3565b612616574361013954106126165760405162461bcd60e51b8152600401610a82906142d2565b4361013955610a3461262b6020840184613e72565b602084013561263d6040860186614440565b8080601f01602080910402602001604051908101604052809392919081815260200183838082843760009201919091525061362892505050565b919050565b6126946000805160206146a8833981519152336125a3565b6126b05760405162461bcd60e51b8152600401610a82906142fe565b61013a82905561013b81905560408051838152602081018390527f164d29c07aa1410447214bda4ceeae682b23796531b6b4d1d674f72953aa7f659101610fc2565b6126fd6000336125a3565b6127195760405162461bcd60e51b8152600401610a82906142a4565b6001600160a01b03811661273f5760405162461bcd60e51b8152600401610a8290614335565b61012f80546001600160a01b0319166001600160a01b0383169081179091556040519081527ff7b449fcd5cfb7379dcd34cb69428dd9f882033b15be33d83b42d91daa28eeb7906020016111ee565b6127996000336125a3565b6127b55760405162461bcd60e51b8152600401610a82906142a4565b61013880546001600160a01b0319166001600160a01b0383169081179091556040519081527fc388495b5a8a549e1885691ef3b8b1cb2b97a91365bbc9f26f488d28caaab84d906020016111ee565b61281c6000805160206146a8833981519152336125a3565b6128385760405162461bcd60e51b8152600401610a82906142fe565b806128555760405162461bcd60e51b8152600401610a8290614409565b61013382905561013481905560408051838152602081018390527f9fb7dbd1f2c1bd33dd68f78a38f699ff1ca487d7a7211ecc7df31d919f52043d9101610fc2565b6128af6000805160206146a8833981519152336125a3565b6128cb5760405162461bcd60e51b8152600401610a82906142fe565b806128e85760405162461bcd60e51b8152600401610a8290614409565b61013f82905561014081905560408051838152602081018390527f40406e80205f7a30d291067fc0c9c2b1c8715c2e7e8941c5d49feb4dc64f049b9101610fc2565b6129356000336125a3565b6129515760405162461bcd60e51b8152600401610a82906142a4565b6001600160a01b0382166129775760405162461bcd60e51b8152600401610a8290614335565b6001600160a01b03811661299d5760405162461bcd60e51b8152600401610a8290614335565b61012d80546001600160a01b038481166001600160a01b0319928316811790935561012e80549185169190921681179091556040805192835260208301919091527fdcc6331013de89f8c595d5328f0a724194f113cb6f8f2a707b3dff6de13f0d179101610fc2565b6000612a10612ccf565b612a28600080516020614688833981519152336125a3565b612a4e57436101395410612a4e5760405162461bcd60e51b8152600401610a82906142d2565b4361013981905550612a70838360405180602001604052806000815250613628565b9392505050565b600082815260656020526040902060010154612a9281612f13565b610ff38383612fa3565b612ab46000805160206146a8833981519152336125a3565b612ad05760405162461bcd60e51b8152600401610a82906142fe565b82612b1d5760405162461bcd60e51b815260206004820181905260248201527f5a65726f205f6e6578745061796f757454696d65206e6f7420616c6c6f7765646044820152606401610a82565b81612b6a5760405162461bcd60e51b815260206004820152601e60248201527f5a65726f205f7061796f7574506572696f64206e6f7420616c6c6f77656400006044820152606401610a82565b808311612bd55760405162461bcd60e51b815260206004820152603360248201527f5f6e6578745061796f757454696d652073686f7564206265206d6f7265207468604482015272616e205f7061796f757454696d6552616e676560681b6064820152608401610a82565b61013583905561013682905561013781905560408051848152602081018490529081018290527f182705f356ea3bbbd12c7b4761586a554d391a7703345f81166bbe3f946444999060600160405180910390a1505050565b612c456000805160206146a8833981519152336125a3565b612c615760405162461bcd60e51b8152600401610a82906142fe565b80612c7e5760405162461bcd60e51b8152600401610a8290614409565b61013182905561013281905560408051838152602081018390527f28e297c7c282931a994191b735b01eaf17558295f761512a7047f4e1b8dc3b0b9101610fc2565b6001600160a01b03163b151590565b60fb5460ff16156112355760405162461bcd60e51b815260206004820152601060248201526f14185d5cd8589b194e881c185d5cd95960821b6044820152606401610a82565b60008061012e60009054906101000a90046001600160a01b03166001600160a01b031663313ce5676040518163ffffffff1660e01b815260040160206040518083038186803b158015612d6757600080fd5b505afa158015612d7b573d6000803e3d6000fd5b505050506040513d601f19601f82011682018060405250810190612d9f91906140d6565b60ff169050600061012d60009054906101000a90046001600160a01b03166001600160a01b031663313ce5676040518163ffffffff1660e01b815260040160206040518083038186803b158015612df557600080fd5b505afa158015612e09573d6000803e3d6000fd5b505050506040513d601f19601f82011682018060405250810190612e2d91906140d6565b60ff16905080821115612e6057612e4481836145cb565b612e4f90600a614504565b612e5990856145ac565b9350612e82565b612e6a82826145cb565b612e7590600a614504565b612e7f908561449f565b93505b509192915050565b600080600083612e9d5761013354612ea2565b610131545b9050600084612eb45761013454612eb9565b610132545b9050600080612ed6600080516020614688833981519152336125a3565b612f025782612ee5858a6145ac565b612eef919061449f565b9150612efb82896145cb565b9050612f05565b50865b9450925050505b9250929050565b61115381336139ab565b612f2782826125a3565b6110725760008281526065602090815260408083206001600160a01b03851684529091529020805460ff19166001179055612f5f3390565b6001600160a01b0316816001600160a01b0316837f2f8788117e7eff1d82e926ec794901d17c78024a50270940304540a733656f0d60405160405180910390a45050565b612fad82826125a3565b156110725760008281526065602090815260408083206001600160a01b0385168085529252808320805460ff1916905551339285917ff6391f5c32d9c69d2a47ea670b442974b53935d1edc7fd64eb21e047a839171b9190a45050565b600061107281612f13565b7f4910fdfa16fed3260ed0e7147f7cc6da11a60208b5b9406d12a635614ffd91435460ff161561304857610ff383613a0f565b826001600160a01b03166352d1902d6040518163ffffffff1660e01b815260040160206040518083038186803b15801561308157600080fd5b505afa9250505080156130b1575060408051601f3d908101601f191682019092526130ae91810190613fe7565b60015b6131145760405162461bcd60e51b815260206004820152602e60248201527f45524331393637557067726164653a206e657720696d706c656d656e7461746960448201526d6f6e206973206e6f74205555505360901b6064820152608401610a82565b6000805160206146c883398151915281146131835760405162461bcd60e51b815260206004820152602960248201527f45524331393637557067726164653a20756e737570706f727465642070726f786044820152681a58589b195555525160ba1b6064820152608401610a82565b50610ff3838383613aab565b613197613ad6565b60fb805460ff191690557f5db9ee0a495bf2e6ff9c91a7834c1ba4fdd244a5e8aa4e537bd38aeae4b073aa335b6040516001600160a01b03909116815260200160405180910390a1565b600082815260656020526040808220600101805490849055905190918391839186917fbd79b86ffe0ab8e8776151514217cd7cacd52c909f66475c3af44e129f0b00ff9190a4505050565b60008061012e60009054906101000a90046001600160a01b03166001600160a01b031663313ce5676040518163ffffffff1660e01b815260040160206040518083038186803b15801561327e57600080fd5b505afa158015613292573d6000803e3d6000fd5b505050506040513d601f19601f820116820180604052508101906132b691906140d6565b60ff169050600061012d60009054906101000a90046001600160a01b03166001600160a01b031663313ce5676040518163ffffffff1660e01b815260040160206040518083038186803b15801561330c57600080fd5b505afa158015613320573d6000803e3d6000fd5b505050506040513d601f19601f8201168201806040525081019061334491906140d6565b60ff169050808211156133705761335b81836145cb565b61336690600a614504565b612e59908561449f565b61337a82826145cb565b61338590600a614504565b612e7f90856145ac565b6000806133a0633b9aca00846145ac565b9050826133b1633b9aca008361449f565b14610a345760405162461bcd60e51b8152600401610a8290614261565b60008161341d5760405162461bcd60e51b815260206004820152601c60248201527f4572726f72732e4d4154485f4449564953494f4e5f42595f5a45524f000000006044820152606401610a82565b8261342a57506000610a34565b600061343760028461449f565b90506b033b2e3c9fd0803ce8000000613452826000196145cb565b61345c919061449f565b84111561347b5760405162461bcd60e51b8152600401610a8290614261565b82816134936b033b2e3c9fd0803ce8000000876145ac565b61349d9190614487565b6134a7919061449f565b949350505050565b60008215806134bc575081155b156134c957506000610a34565b6134d58260001961449f565b8311156134f45760405162461bcd60e51b8152600401610a8290614261565b6b033b2e3c9fd0803ce800000061350b83856145ac565b612a70919061449f565b6000806135276002633b9aca0061449f565b905060006135358483614487565b9050818110156135875760405162461bcd60e51b815260206004820152601d60248201527f4572726f72732e4d4154485f4144444954494f4e5f4f564552464c4f570000006044820152606401610a82565b6134a7633b9aca008261449f565b600054610100900460ff166112355760405162461bcd60e51b8152600401610a829061436c565b600054610100900460ff166135e35760405162461bcd60e51b8152600401610a829061436c565b611235613b1f565b6135f3612ccf565b60fb805460ff191660011790557f62e78cea01bee320cd4e420270b5ea74000d11b0c9f74754ebdbfc544b05a2586131c43390565b61012e546000906001600160a01b038581169116146136895760405162461bcd60e51b815260206004820152601c60248201527f4f6e6c7920617373657420617661696c61626c6520666f7220627579000000006044820152606401610a82565b6040516370a0823160e01b81523360048201526000906001600160a01b038616906370a082319060240160206040518083038186803b1580156136cb57600080fd5b505afa1580156136df573d6000803e3d6000fd5b505050506040513d601f19601f820116820180604052508101906137039190613fe7565b9050838110156137555760405162461bcd60e51b815260206004820152601860248201527f4e6f7420656e6f75676820746f6b656e7320746f2062757900000000000000006044820152606401610a82565b6000841161379f5760405162461bcd60e51b8152602060048201526017602482015276416d6f756e74206f66206173736574206973207a65726f60481b6044820152606401610a82565b60006137aa8561322c565b9050600081116137f55760405162461bcd60e51b8152602060048201526016602482015275416d6f756e74206f66205553442b206973207a65726f60501b6044820152606401610a82565b61012f546040516323b872dd60e01b81523360048201526001600160a01b03918216602482015260448101879052908716906323b872dd90606401602060405180830381600087803b15801561384a57600080fd5b505af115801561385e573d6000803e3d6000fd5b505050506040513d601f19601f820116820180604052508101906138829190613fac565b5061012f546040516311f9fbc960e21b81526001600160a01b03888116600483015260248201889052909116906347e7ef2490604401600060405180830381600087803b1580156138d257600080fd5b505af11580156138e6573d6000803e3d6000fd5b505050506000806138f8836001612e8a565b61012d546040516340c10f1960e01b8152336004820152602481018490529194509192506001600160a01b03909116906340c10f1990604401600060405180830381600087803b15801561394b57600080fd5b505af115801561395f573d6000803e3d6000fd5b505050507f5215f03b099407f64e52d76ef2416a46b32915d572e87db5d40282538ed364848183338960405161399894939291906143b7565b60405180910390a1979650505050505050565b6139b582826125a3565b611072576139cd816001600160a01b03166014613b52565b6139d8836020613b52565b6040516020016139e9929190614141565b60408051601f198184030181529082905262461bcd60e51b8252610a82916004016141b6565b6001600160a01b0381163b613a7c5760405162461bcd60e51b815260206004820152602d60248201527f455243313936373a206e657720696d706c656d656e746174696f6e206973206e60448201526c1bdd08184818dbdb9d1c9858dd609a1b6064820152608401610a82565b6000805160206146c883398151915280546001600160a01b0319166001600160a01b0392909216919091179055565b613ab483613cee565b600082511180613ac15750805b15610ff357613ad08383613d2e565b50505050565b60fb5460ff166112355760405162461bcd60e51b815260206004820152601460248201527314185d5cd8589b194e881b9bdd081c185d5cd95960621b6044820152606401610a82565b600054610100900460ff16613b465760405162461bcd60e51b8152600401610a829061436c565b60fb805460ff19169055565b60606000613b618360026145ac565b613b6c906002614487565b67ffffffffffffffff811115613b8457613b84614651565b6040519080825280601f01601f191660200182016040528015613bae576020820181803683370190505b509050600360fc1b81600081518110613bc957613bc961463b565b60200101906001600160f81b031916908160001a905350600f60fb1b81600181518110613bf857613bf861463b565b60200101906001600160f81b031916908160001a9053506000613c1c8460026145ac565b613c27906001614487565b90505b6001811115613c9f576f181899199a1a9b1b9c1cb0b131b232b360811b85600f1660108110613c5b57613c5b61463b565b1a60f81b828281518110613c7157613c7161463b565b60200101906001600160f81b031916908160001a90535060049490941c93613c988161460e565b9050613c2a565b508315612a705760405162461bcd60e51b815260206004820181905260248201527f537472696e67733a20686578206c656e67746820696e73756666696369656e746044820152606401610a82565b613cf781613a0f565b6040516001600160a01b038216907fbc7cd75a20ee27fd9adebab32041f755214dbc6bffa90cc0225b39da2e5c2d3b90600090a250565b60606001600160a01b0383163b613d965760405162461bcd60e51b815260206004820152602660248201527f416464726573733a2064656c65676174652063616c6c20746f206e6f6e2d636f6044820152651b9d1c9858dd60d21b6064820152608401610a82565b600080846001600160a01b031684604051613db19190614125565b600060405180830381855af49150503d8060008114613dec576040519150601f19603f3d011682016040523d82523d6000602084013e613df1565b606091505b5091509150613e1982826040518060600160405280602781526020016146e860279139613e22565b95945050505050565b60608315613e31575081612a70565b825115613e415782518084602001fd5b8160405162461bcd60e51b8152600401610a8291906141b6565b80356001600160a01b038116811461267757600080fd5b600060208284031215613e8457600080fd5b612a7082613e5b565b60008060408385031215613ea057600080fd5b613ea983613e5b565b9150613eb760208401613e5b565b90509250929050565b60008060408385031215613ed357600080fd5b613edc83613e5b565b9150602083013567ffffffffffffffff80821115613ef957600080fd5b818501915085601f830112613f0d57600080fd5b813581811115613f1f57613f1f614651565b604051601f8201601f19908116603f01168101908382118183101715613f4757613f47614651565b81604052828152886020848701011115613f6057600080fd5b8260208601602083013760006020848301015280955050505050509250929050565b60008060408385031215613f9557600080fd5b613f9e83613e5b565b946020939093013593505050565b600060208284031215613fbe57600080fd5b81518015158114612a7057600080fd5b600060208284031215613fe057600080fd5b5035919050565b600060208284031215613ff957600080fd5b5051919050565b6000806040838503121561401357600080fd5b82359150613eb760208401613e5b565b60006020828403121561403557600080fd5b81356001600160e01b031981168114612a7057600080fd5b60006020828403121561405f57600080fd5b813567ffffffffffffffff81111561407657600080fd5b820160608185031215612a7057600080fd5b6000806040838503121561409b57600080fd5b50508035926020909101359150565b6000806000606084860312156140bf57600080fd5b505081359360208301359350604090920135919050565b6000602082840312156140e857600080fd5b815160ff81168114612a7057600080fd5b600081518084526141118160208601602086016145e2565b601f01601f19169290920160200192915050565b600082516141378184602087016145e2565b9190910192915050565b7f416363657373436f6e74726f6c3a206163636f756e74200000000000000000008152600083516141798160178501602088016145e2565b7001034b99036b4b9b9b4b733903937b6329607d1b60179184019182015283516141aa8160288401602088016145e2565b01602801949350505050565b602081526000612a7060208301846140f9565b6020808252602c908201527f46756e6374696f6e206d7573742062652063616c6c6564207468726f7567682060408201526b19195b1959d85d1958d85b1b60a21b606082015260800190565b6020808252602c908201527f46756e6374696f6e206d7573742062652063616c6c6564207468726f7567682060408201526b6163746976652070726f787960a01b606082015260800190565b60208082526023908201527f4572726f72732e4d4154485f4d554c5449504c49434154494f4e5f4f564552466040820152624c4f5760e81b606082015260800190565b6020808252601490820152735265737472696374656420746f2061646d696e7360601b604082015260600190565b6020808252601290820152714f6e6c79206f6e636520696e20626c6f636b60701b604082015260600190565b6020808252601d908201527f5265737472696374656420746f20506f7274666f6c696f204167656e74000000604082015260600190565b60208082526018908201527f5a65726f2061646472657373206e6f7420616c6c6f7765640000000000000000604082015260600190565b6020808252602b908201527f496e697469616c697a61626c653a20636f6e7472616374206973206e6f74206960408201526a6e697469616c697a696e6760a81b606082015260800190565b60a08152600460a0820152631b5a5b9d60e21b60c082015284602082015283604082015260018060a01b038316606082015260e0608082015260006143ff60e08301846140f9565b9695505050505050565b6020808252601c908201527f5a65726f2064656e6f6d696e61746f72206e6f7420616c6c6f77656400000000604082015260600190565b6000808335601e1984360301811261445757600080fd5b83018035915067ffffffffffffffff82111561447257600080fd5b602001915036819003821315612f0c57600080fd5b6000821982111561449a5761449a614625565b500190565b6000826144bc57634e487b7160e01b600052601260045260246000fd5b500490565b600181815b808511156144fc5781600019048211156144e2576144e2614625565b808516156144ef57918102915b93841c93908002906144c6565b509250929050565b6000612a70838360008261451a57506001610a34565b8161452757506000610a34565b816001811461453d576002811461454757614563565b6001915050610a34565b60ff84111561455857614558614625565b50506001821b610a34565b5060208310610133831016604e8410600b8410161715614586575081810a610a34565b61459083836144c1565b80600019048211156145a4576145a4614625565b029392505050565b60008160001904831182151516156145c6576145c6614625565b500290565b6000828210156145dd576145dd614625565b500390565b60005b838110156145fd5781810151838201526020016145e5565b83811115613ad05750506000910152565b60008161461d5761461d614625565b506000190190565b634e487b7160e01b600052601160045260246000fd5b634e487b7160e01b600052603260045260246000fd5b634e487b7160e01b600052604160045260246000fdfeede8101501d89b9894e78e4f219420b6ddb840e8e75dde35741a0745408476d7262f8dca0440d5010bae937fe18daeae459dacb80622baddc3b4f10759ac952ad67ad422505496469a1adf6cdf9e5ee92ac5d33992843c9ecc4b2f6d6cde9137360894a13ba1a3210667c828492db98dca3e2076cc3735a920a3ca505d382bbc416464726573733a206c6f772d6c6576656c2064656c65676174652063616c6c206661696c6564a2646970667358221220afa62b04c055d9c2b2f047c2d39ce17f8877ad203acfd885fd1c612888a3746564736f6c63430008060033",
  "implementation": "0xB79DD08EA68A908A97220C76d19A6aA9cBDE4376",
  "devdoc": {
    "kind": "dev",
    "methods": {
      "constructor": {
        "custom:oz-upgrades-unsafe-allow": "constructor"
      },
      "getRoleAdmin(bytes32)": {
        "details": "Returns the admin role that controls `role`. See {grantRole} and {revokeRole}. To change a role's admin, use {_setRoleAdmin}."
      },
      "grantRole(bytes32,address)": {
        "details": "Grants `role` to `account`. If `account` had not been already granted `role`, emits a {RoleGranted} event. Requirements: - the caller must have ``role``'s admin role. May emit a {RoleGranted} event."
      },
      "hasRole(bytes32,address)": {
        "details": "Returns `true` if `account` has been granted `role`."
      },
      "paused()": {
        "details": "Returns true if the contract is paused, and false otherwise."
      },
      "proxiableUUID()": {
        "details": "Implementation of the ERC1822 {proxiableUUID} function. This returns the storage slot used by the implementation. It is used to validate that the this implementation remains valid after an upgrade. IMPORTANT: A proxy pointing at a proxiable contract should not be considered proxiable itself, because this risks bricking a proxy that upgrades to it, by delegating to itself until out of gas. Thus it is critical that this function revert if invoked through a proxy. This is guaranteed by the `notDelegated` modifier."
      },
      "redeem(address,uint256)": {
        "params": {
          "_amount": "Amount of USD+ to burn",
          "_asset": "Asset to redeem"
        },
        "returns": {
          "_0": "Amount of asset unstacked and transferred to caller"
        }
      },
      "renounceRole(bytes32,address)": {
        "details": "Revokes `role` from the calling account. Roles are often managed via {grantRole} and {revokeRole}: this function's purpose is to provide a mechanism for accounts to lose their privileges if they are compromised (such as when a trusted device is misplaced). If the calling account had been revoked `role`, emits a {RoleRevoked} event. Requirements: - the caller must be `account`. May emit a {RoleRevoked} event."
      },
      "revokeRole(bytes32,address)": {
        "details": "Revokes `role` from `account`. If `account` had been granted `role`, emits a {RoleRevoked} event. Requirements: - the caller must have ``role``'s admin role. May emit a {RoleRevoked} event."
      },
      "supportsInterface(bytes4)": {
        "details": "See {IERC165-supportsInterface}."
      },
      "upgradeTo(address)": {
        "details": "Upgrade the implementation of the proxy to `newImplementation`. Calls {_authorizeUpgrade}. Emits an {Upgraded} event."
      },
      "upgradeToAndCall(address,bytes)": {
        "details": "Upgrade the implementation of the proxy to `newImplementation`, and subsequently execute the function call encoded in `data`. Calls {_authorizeUpgrade}. Emits an {Upgraded} event."
      }
    },
    "version": 1
  },
  "userdoc": {
    "kind": "user",
    "methods": {},
    "version": 1
  },
  "storageLayout": {
    "storage": [
      {
        "astId": 808,
        "contract": "contracts/Exchange.sol:Exchange",
        "label": "_initialized",
        "offset": 0,
        "slot": "0",
        "type": "t_uint8"
      },
      {
        "astId": 811,
        "contract": "contracts/Exchange.sol:Exchange",
        "label": "_initializing",
        "offset": 1,
        "slot": "0",
        "type": "t_bool"
      },
      {
        "astId": 2589,
        "contract": "contracts/Exchange.sol:Exchange",
        "label": "__gap",
        "offset": 0,
        "slot": "1",
        "type": "t_array(t_uint256)50_storage"
      },
      {
        "astId": 2919,
        "contract": "contracts/Exchange.sol:Exchange",
        "label": "__gap",
        "offset": 0,
        "slot": "51",
        "type": "t_array(t_uint256)50_storage"
      },
      {
        "astId": 39,
        "contract": "contracts/Exchange.sol:Exchange",
        "label": "_roles",
        "offset": 0,
        "slot": "101",
        "type": "t_mapping(t_bytes32,t_struct(RoleData)34_storage)"
      },
      {
        "astId": 338,
        "contract": "contracts/Exchange.sol:Exchange",
        "label": "__gap",
        "offset": 0,
        "slot": "102",
        "type": "t_array(t_uint256)49_storage"
      },
      {
        "astId": 790,
        "contract": "contracts/Exchange.sol:Exchange",
        "label": "__gap",
        "offset": 0,
        "slot": "151",
        "type": "t_array(t_uint256)50_storage"
      },
      {
        "astId": 1087,
        "contract": "contracts/Exchange.sol:Exchange",
        "label": "__gap",
        "offset": 0,
        "slot": "201",
        "type": "t_array(t_uint256)50_storage"
      },
      {
        "astId": 1109,
        "contract": "contracts/Exchange.sol:Exchange",
        "label": "_paused",
        "offset": 0,
        "slot": "251",
        "type": "t_bool"
      },
      {
        "astId": 1214,
        "contract": "contracts/Exchange.sol:Exchange",
        "label": "__gap",
        "offset": 0,
        "slot": "252",
        "type": "t_array(t_uint256)49_storage"
      },
      {
        "astId": 9057,
        "contract": "contracts/Exchange.sol:Exchange",
        "label": "usdPlus",
        "offset": 0,
        "slot": "301",
        "type": "t_contract(UsdPlusToken)16628"
      },
      {
        "astId": 9060,
        "contract": "contracts/Exchange.sol:Exchange",
        "label": "usdc",
        "offset": 0,
        "slot": "302",
        "type": "t_contract(IERC20)3596"
      },
      {
        "astId": 9063,
        "contract": "contracts/Exchange.sol:Exchange",
        "label": "portfolioManager",
        "offset": 0,
        "slot": "303",
        "type": "t_contract(IPortfolioManager)16785"
      },
      {
        "astId": 9066,
        "contract": "contracts/Exchange.sol:Exchange",
        "label": "mark2market",
        "offset": 0,
        "slot": "304",
        "type": "t_contract(IMark2Market)16709"
      },
      {
        "astId": 9068,
        "contract": "contracts/Exchange.sol:Exchange",
        "label": "buyFee",
        "offset": 0,
        "slot": "305",
        "type": "t_uint256"
      },
      {
        "astId": 9070,
        "contract": "contracts/Exchange.sol:Exchange",
        "label": "buyFeeDenominator",
        "offset": 0,
        "slot": "306",
        "type": "t_uint256"
      },
      {
        "astId": 9072,
        "contract": "contracts/Exchange.sol:Exchange",
        "label": "redeemFee",
        "offset": 0,
        "slot": "307",
        "type": "t_uint256"
      },
      {
        "astId": 9074,
        "contract": "contracts/Exchange.sol:Exchange",
        "label": "redeemFeeDenominator",
        "offset": 0,
        "slot": "308",
        "type": "t_uint256"
      },
      {
        "astId": 9076,
        "contract": "contracts/Exchange.sol:Exchange",
        "label": "nextPayoutTime",
        "offset": 0,
        "slot": "309",
        "type": "t_uint256"
      },
      {
        "astId": 9078,
        "contract": "contracts/Exchange.sol:Exchange",
        "label": "payoutPeriod",
        "offset": 0,
        "slot": "310",
        "type": "t_uint256"
      },
      {
        "astId": 9080,
        "contract": "contracts/Exchange.sol:Exchange",
        "label": "payoutTimeRange",
        "offset": 0,
        "slot": "311",
        "type": "t_uint256"
      },
      {
        "astId": 9083,
        "contract": "contracts/Exchange.sol:Exchange",
        "label": "payoutListener",
        "offset": 0,
        "slot": "312",
        "type": "t_contract(IPayoutListener)16715"
      },
      {
        "astId": 9085,
        "contract": "contracts/Exchange.sol:Exchange",
        "label": "lastBlockNumber",
        "offset": 0,
        "slot": "313",
        "type": "t_uint256"
      },
      {
        "astId": 9087,
        "contract": "contracts/Exchange.sol:Exchange",
        "label": "abroadMin",
        "offset": 0,
        "slot": "314",
        "type": "t_uint256"
      },
      {
        "astId": 9089,
        "contract": "contracts/Exchange.sol:Exchange",
        "label": "abroadMax",
        "offset": 0,
        "slot": "315",
        "type": "t_uint256"
      },
      {
        "astId": 9091,
        "contract": "contracts/Exchange.sol:Exchange",
        "label": "insurance",
        "offset": 0,
        "slot": "316",
        "type": "t_address"
      },
      {
        "astId": 9093,
        "contract": "contracts/Exchange.sol:Exchange",
        "label": "oracleLoss",
        "offset": 0,
        "slot": "317",
        "type": "t_uint256"
      },
      {
        "astId": 9095,
        "contract": "contracts/Exchange.sol:Exchange",
        "label": "oracleLossDenominator",
        "offset": 0,
        "slot": "318",
        "type": "t_uint256"
      },
      {
        "astId": 9097,
        "contract": "contracts/Exchange.sol:Exchange",
        "label": "compensateLoss",
        "offset": 0,
        "slot": "319",
        "type": "t_uint256"
      },
      {
        "astId": 9099,
        "contract": "contracts/Exchange.sol:Exchange",
        "label": "compensateLossDenominator",
        "offset": 0,
        "slot": "320",
        "type": "t_uint256"
      },
      {
        "astId": 9101,
        "contract": "contracts/Exchange.sol:Exchange",
        "label": "profitRecipient",
        "offset": 0,
        "slot": "321",
        "type": "t_address"
      }
    ],
    "types": {
      "t_address": {
        "encoding": "inplace",
        "label": "address",
        "numberOfBytes": "20"
      },
      "t_array(t_uint256)49_storage": {
        "base": "t_uint256",
        "encoding": "inplace",
        "label": "uint256[49]",
        "numberOfBytes": "1568"
      },
      "t_array(t_uint256)50_storage": {
        "base": "t_uint256",
        "encoding": "inplace",
        "label": "uint256[50]",
        "numberOfBytes": "1600"
      },
      "t_bool": {
        "encoding": "inplace",
        "label": "bool",
        "numberOfBytes": "1"
      },
      "t_bytes32": {
        "encoding": "inplace",
        "label": "bytes32",
        "numberOfBytes": "32"
      },
      "t_contract(IERC20)3596": {
        "encoding": "inplace",
        "label": "contract IERC20",
        "numberOfBytes": "20"
      },
      "t_contract(IMark2Market)16709": {
        "encoding": "inplace",
        "label": "contract IMark2Market",
        "numberOfBytes": "20"
      },
      "t_contract(IPayoutListener)16715": {
        "encoding": "inplace",
        "label": "contract IPayoutListener",
        "numberOfBytes": "20"
      },
      "t_contract(IPortfolioManager)16785": {
        "encoding": "inplace",
        "label": "contract IPortfolioManager",
        "numberOfBytes": "20"
      },
      "t_contract(UsdPlusToken)16628": {
        "encoding": "inplace",
        "label": "contract UsdPlusToken",
        "numberOfBytes": "20"
      },
      "t_mapping(t_address,t_bool)": {
        "encoding": "mapping",
        "key": "t_address",
        "label": "mapping(address => bool)",
        "numberOfBytes": "32",
        "value": "t_bool"
      },
      "t_mapping(t_bytes32,t_struct(RoleData)34_storage)": {
        "encoding": "mapping",
        "key": "t_bytes32",
        "label": "mapping(bytes32 => struct AccessControlUpgradeable.RoleData)",
        "numberOfBytes": "32",
        "value": "t_struct(RoleData)34_storage"
      },
      "t_struct(RoleData)34_storage": {
        "encoding": "inplace",
        "label": "struct AccessControlUpgradeable.RoleData",
        "members": [
          {
            "astId": 31,
            "contract": "contracts/Exchange.sol:Exchange",
            "label": "members",
            "offset": 0,
            "slot": "0",
            "type": "t_mapping(t_address,t_bool)"
          },
          {
            "astId": 33,
            "contract": "contracts/Exchange.sol:Exchange",
            "label": "adminRole",
            "offset": 0,
            "slot": "1",
            "type": "t_bytes32"
          }
        ],
        "numberOfBytes": "64"
      },
      "t_uint256": {
        "encoding": "inplace",
        "label": "uint256",
        "numberOfBytes": "32"
      },
      "t_uint8": {
        "encoding": "inplace",
        "label": "uint8",
        "numberOfBytes": "1"
      }
    }
  }
}