{
  "address": "0x49398b8886d7708cF4BFDd305C4D622963d80F3d",
  "abi": [
    {
      "inputs": [],
      "stateMutability": "nonpayable",
      "type": "constructor"
    },
    {
      "anonymous": false,
      "inputs": [
        {
          "indexed": false,
          "internalType": "address",
          "name": "previousAdmin",
          "type": "address"
        },
        {
          "indexed": false,
          "internalType": "address",
          "name": "newAdmin",
          "type": "address"
        }
      ],
      "name": "AdminChanged",
      "type": "event"
    },
    {
      "anonymous": false,
      "inputs": [
        {
          "indexed": true,
          "internalType": "address",
          "name": "beacon",
          "type": "address"
        }
      ],
      "name": "BeaconUpgraded",
      "type": "event"
    },
    {
      "anonymous": false,
      "inputs": [
        {
          "indexed": false,
          "internalType": "uint8",
          "name": "version",
          "type": "uint8"
        }
      ],
      "name": "Initialized",
      "type": "event"
    },
    {
      "anonymous": false,
      "inputs": [
        {
          "indexed": true,
          "internalType": "bytes32",
          "name": "role",
          "type": "bytes32"
        },
        {
          "indexed": true,
          "internalType": "bytes32",
          "name": "previousAdminRole",
          "type": "bytes32"
        },
        {
          "indexed": true,
          "internalType": "bytes32",
          "name": "newAdminRole",
          "type": "bytes32"
        }
      ],
      "name": "RoleAdminChanged",
      "type": "event"
    },
    {
      "anonymous": false,
      "inputs": [
        {
          "indexed": true,
          "internalType": "bytes32",
          "name": "role",
          "type": "bytes32"
        },
        {
          "indexed": true,
          "internalType": "address",
          "name": "account",
          "type": "address"
        },
        {
          "indexed": true,
          "internalType": "address",
          "name": "sender",
          "type": "address"
        }
      ],
      "name": "RoleGranted",
      "type": "event"
    },
    {
      "anonymous": false,
      "inputs": [
        {
          "indexed": true,
          "internalType": "bytes32",
          "name": "role",
          "type": "bytes32"
        },
        {
          "indexed": true,
          "internalType": "address",
          "name": "account",
          "type": "address"
        },
        {
          "indexed": true,
          "internalType": "address",
          "name": "sender",
          "type": "address"
        }
      ],
      "name": "RoleRevoked",
      "type": "event"
    },
    {
      "anonymous": false,
      "inputs": [
        {
          "indexed": true,
          "internalType": "address",
          "name": "implementation",
          "type": "address"
        }
      ],
      "name": "Upgraded",
      "type": "event"
    },
    {
      "inputs": [],
      "name": "DEFAULT_ADMIN_ROLE",
      "outputs": [
        {
          "internalType": "bytes32",
          "name": "",
          "type": "bytes32"
        }
      ],
      "stateMutability": "view",
      "type": "function"
    },
    {
      "inputs": [],
      "name": "UNIT_ROLE",
      "outputs": [
        {
          "internalType": "bytes32",
          "name": "",
          "type": "bytes32"
        }
      ],
      "stateMutability": "view",
      "type": "function"
    },
    {
      "inputs": [],
      "name": "blockGetter",
      "outputs": [
        {
          "internalType": "address",
          "name": "",
          "type": "address"
        }
      ],
      "stateMutability": "view",
      "type": "function"
    },
    {
      "inputs": [
        {
          "internalType": "address",
          "name": "tokenIn",
          "type": "address"
        },
        {
          "internalType": "address",
          "name": "tokenOut",
          "type": "address"
        }
      ],
      "name": "getPath",
      "outputs": [
        {
          "components": [
            {
              "internalType": "uint256",
              "name": "updateBlock",
              "type": "uint256"
            },
            {
              "internalType": "uint256",
              "name": "amount",
              "type": "uint256"
            },
            {
              "internalType": "uint256",
              "name": "flags",
              "type": "uint256"
            },
            {
              "internalType": "address",
              "name": "srcReceiver",
              "type": "address"
            },
            {
              "internalType": "bytes",
              "name": "data",
              "type": "bytes"
            },
            {
              "internalType": "uint256[]",
              "name": "pools",
              "type": "uint256[]"
            },
            {
              "internalType": "bool",
              "name": "isUniV3",
              "type": "bool"
            },
            {
              "internalType": "bool",
              "name": "isUsed",
              "type": "bool"
            }
          ],
          "internalType": "struct IInchSwapper.Route",
          "name": "",
          "type": "tuple"
        }
      ],
      "stateMutability": "view",
      "type": "function"
    },
    {
      "inputs": [
        {
          "internalType": "bytes32",
          "name": "role",
          "type": "bytes32"
        }
      ],
      "name": "getRoleAdmin",
      "outputs": [
        {
          "internalType": "bytes32",
          "name": "",
          "type": "bytes32"
        }
      ],
      "stateMutability": "view",
      "type": "function"
    },
    {
      "inputs": [
        {
          "internalType": "bytes32",
          "name": "role",
          "type": "bytes32"
        },
        {
          "internalType": "address",
          "name": "account",
          "type": "address"
        }
      ],
      "name": "grantRole",
      "outputs": [],
      "stateMutability": "nonpayable",
      "type": "function"
    },
    {
      "inputs": [
        {
          "internalType": "bytes32",
          "name": "role",
          "type": "bytes32"
        },
        {
          "internalType": "address",
          "name": "account",
          "type": "address"
        }
      ],
      "name": "hasRole",
      "outputs": [
        {
          "internalType": "bool",
          "name": "",
          "type": "bool"
        }
      ],
      "stateMutability": "view",
      "type": "function"
    },
    {
      "inputs": [],
      "name": "inchRouter",
      "outputs": [
        {
          "internalType": "contract IInchRouter",
          "name": "",
          "type": "address"
        }
      ],
      "stateMutability": "view",
      "type": "function"
    },
    {
      "inputs": [],
      "name": "initialize",
      "outputs": [],
      "stateMutability": "nonpayable",
      "type": "function"
    },
    {
      "inputs": [],
      "name": "proxiableUUID",
      "outputs": [
        {
          "internalType": "bytes32",
          "name": "",
          "type": "bytes32"
        }
      ],
      "stateMutability": "view",
      "type": "function"
    },
    {
      "inputs": [
        {
          "internalType": "bytes32",
          "name": "role",
          "type": "bytes32"
        },
        {
          "internalType": "address",
          "name": "account",
          "type": "address"
        }
      ],
      "name": "renounceRole",
      "outputs": [],
      "stateMutability": "nonpayable",
      "type": "function"
    },
    {
      "inputs": [
        {
          "internalType": "bytes32",
          "name": "role",
          "type": "bytes32"
        },
        {
          "internalType": "address",
          "name": "account",
          "type": "address"
        }
      ],
      "name": "revokeRole",
      "outputs": [],
      "stateMutability": "nonpayable",
      "type": "function"
    },
    {
      "inputs": [],
      "name": "roleManager",
      "outputs": [
        {
          "internalType": "contract IRoleManager",
          "name": "",
          "type": "address"
        }
      ],
      "stateMutability": "view",
      "type": "function"
    },
    {
      "inputs": [
        {
          "internalType": "address",
          "name": "_inchRouter",
          "type": "address"
        },
        {
          "internalType": "address",
          "name": "_blockGetter",
          "type": "address"
        },
        {
          "internalType": "address",
          "name": "_roleManager",
          "type": "address"
        }
      ],
      "name": "setParams",
      "outputs": [],
      "stateMutability": "nonpayable",
      "type": "function"
    },
    {
      "inputs": [
        {
          "internalType": "bytes4",
          "name": "interfaceId",
          "type": "bytes4"
        }
      ],
      "name": "supportsInterface",
      "outputs": [
        {
          "internalType": "bool",
          "name": "",
          "type": "bool"
        }
      ],
      "stateMutability": "view",
      "type": "function"
    },
    {
      "inputs": [
        {
          "internalType": "address",
          "name": "recipient",
          "type": "address"
        },
        {
          "internalType": "address",
          "name": "tokenIn",
          "type": "address"
        },
        {
          "internalType": "address",
          "name": "tokenOut",
          "type": "address"
        },
        {
          "internalType": "uint256",
          "name": "amountIn",
          "type": "uint256"
        },
        {
          "internalType": "uint256",
          "name": "amountMinOut",
          "type": "uint256"
        }
      ],
      "name": "swap",
      "outputs": [],
      "stateMutability": "nonpayable",
      "type": "function"
    },
    {
      "inputs": [
        {
          "components": [
            {
              "internalType": "address",
              "name": "tokenIn",
              "type": "address"
            },
            {
              "internalType": "address",
              "name": "tokenOut",
              "type": "address"
            },
            {
              "internalType": "uint256",
              "name": "amount",
              "type": "uint256"
            },
            {
              "internalType": "uint256",
              "name": "flags",
              "type": "uint256"
            },
            {
              "internalType": "uint256[]",
              "name": "pools",
              "type": "uint256[]"
            },
            {
              "internalType": "address",
              "name": "srcReceiver",
              "type": "address"
            },
            {
              "internalType": "bool",
              "name": "isUniV3",
              "type": "bool"
            }
          ],
          "internalType": "struct IInchSwapper.UpdateParams",
          "name": "params",
          "type": "tuple"
        },
        {
          "internalType": "bytes",
          "name": "path",
          "type": "bytes"
        }
      ],
      "name": "updatePath",
      "outputs": [],
      "stateMutability": "nonpayable",
      "type": "function"
    },
    {
      "inputs": [
        {
          "internalType": "address",
          "name": "newImplementation",
          "type": "address"
        }
      ],
      "name": "upgradeTo",
      "outputs": [],
      "stateMutability": "nonpayable",
      "type": "function"
    },
    {
      "inputs": [
        {
          "internalType": "address",
          "name": "newImplementation",
          "type": "address"
        },
        {
          "internalType": "bytes",
          "name": "data",
          "type": "bytes"
        }
      ],
      "name": "upgradeToAndCall",
      "outputs": [],
      "stateMutability": "payable",
      "type": "function"
    }
  ],
  "numDeployments": 5,
  "solcInputHash": "145995bdc83011d776240f8e8b59f611",
  "bytecode": "0x60a0604052306080523480156200001557600080fd5b50600054610100900460ff1615808015620000375750600054600160ff909116105b8062000067575062000054306200014160201b620012f71760201c565b15801562000067575060005460ff166001145b620000cf5760405162461bcd60e51b815260206004820152602e60248201527f496e697469616c697a61626c653a20636f6e747261637420697320616c72656160448201526d191e481a5b9a5d1a585b1a5e995960921b606482015260840160405180910390fd5b6000805460ff191660011790558015620000f3576000805461ff0019166101001790555b80156200013a576000805461ff0019169055604051600181527f7f26b83ff96e1f2b6a682f133852f6798a09c465da95921460cefb38474024989060200160405180910390a15b5062000150565b6001600160a01b03163b151590565b60805161243462000188600039600081816104a6015281816104e601528181610585015281816105c5015261065401526124346000f3fe6080604052600436106101135760003560e01c80634f1ef286116100a0578063a081df7f11610064578063a081df7f14610316578063a217fddf14610336578063d547741f1461034b578063d88e3e3b1461036b578063e343fe121461039857600080fd5b80634f1ef2861461029957806352d1902d146102ac5780638129fc1c146102c157806391d14854146102d65780639504b5e0146102f657600080fd5b806330205603116100e757806330205603146101e557806336568abe146102055780633659cfe6146102255780633936c8c414610245578063497d91921461026557600080fd5b8062435da51461011857806301ffc9a714610155578063248a9ca3146101855780632f2ff15d146101c3575b600080fd5b34801561012457600080fd5b5060fe54610138906001600160a01b031681565b6040516001600160a01b0390911681526020015b60405180910390f35b34801561016157600080fd5b50610175610170366004611a87565b6103b8565b604051901515815260200161014c565b34801561019157600080fd5b506101b56101a0366004611ab1565b60009081526065602052604090206001015490565b60405190815260200161014c565b3480156101cf57600080fd5b506101e36101de366004611ae6565b6103ef565b005b3480156101f157600080fd5b5060fc54610138906001600160a01b031681565b34801561021157600080fd5b506101e3610220366004611ae6565b610419565b34801561023157600080fd5b506101e3610240366004611b12565b61049c565b34801561025157600080fd5b5060fb54610138906001600160a01b031681565b34801561027157600080fd5b506101b57fede8101501d89b9894e78e4f219420b6ddb840e8e75dde35741a0745408476d781565b6101e36102a7366004611c0d565b61057b565b3480156102b857600080fd5b506101b5610647565b3480156102cd57600080fd5b506101e36106fa565b3480156102e257600080fd5b506101756102f1366004611ae6565b61081d565b34801561030257600080fd5b506101e3610311366004611cf4565b610848565b34801561032257600080fd5b506101e3610331366004611dd4565b610b48565b34801561034257600080fd5b506101b5600081565b34801561035757600080fd5b506101e3610366366004611ae6565b610bd5565b34801561037757600080fd5b5061038b610386366004611e17565b610bfa565b60405161014c9190611ecc565b3480156103a457600080fd5b506101e36103b3366004611f65565b610e92565b60006001600160e01b03198216637965db0b60e01b14806103e957506301ffc9a760e01b6001600160e01b03198316145b92915050565b60008281526065602052604090206001015461040a81611306565b6104148383611310565b505050565b6001600160a01b038116331461048e5760405162461bcd60e51b815260206004820152602f60248201527f416363657373436f6e74726f6c3a2063616e206f6e6c792072656e6f756e636560448201526e103937b632b9903337b91039b2b63360891b60648201526084015b60405180910390fd5b6104988282611396565b5050565b6001600160a01b037f00000000000000000000000000000000000000000000000000000000000000001630036104e45760405162461bcd60e51b815260040161048590611fba565b7f00000000000000000000000000000000000000000000000000000000000000006001600160a01b031661052d6000805160206123b8833981519152546001600160a01b031690565b6001600160a01b0316146105535760405162461bcd60e51b815260040161048590612006565b61055c816113fd565b6040805160008082526020820190925261057891839190611408565b50565b6001600160a01b037f00000000000000000000000000000000000000000000000000000000000000001630036105c35760405162461bcd60e51b815260040161048590611fba565b7f00000000000000000000000000000000000000000000000000000000000000006001600160a01b031661060c6000805160206123b8833981519152546001600160a01b031690565b6001600160a01b0316146106325760405162461bcd60e51b815260040161048590612006565b61063b826113fd565b61049882826001611408565b6000306001600160a01b037f000000000000000000000000000000000000000000000000000000000000000016146106e75760405162461bcd60e51b815260206004820152603860248201527f555550535570677261646561626c653a206d757374206e6f742062652063616c60448201527f6c6564207468726f7567682064656c656761746563616c6c00000000000000006064820152608401610485565b506000805160206123b883398151915290565b600054610100900460ff161580801561071a5750600054600160ff909116105b806107345750303b158015610734575060005460ff166001145b6107975760405162461bcd60e51b815260206004820152602e60248201527f496e697469616c697a61626c653a20636f6e747261637420697320616c72656160448201526d191e481a5b9a5d1a585b1a5e995960921b6064820152608401610485565b6000805460ff1916600117905580156107ba576000805461ff0019166101001790555b6107c2611573565b6107ca611573565b6107d5600033611310565b8015610578576000805461ff0019169055604051600181527f7f26b83ff96e1f2b6a682f133852f6798a09c465da95921460cefb38474024989060200160405180910390a150565b60009182526065602090815260408084206001600160a01b0393909316845291905290205460ff1690565b60fe54604051632474521560e21b81527fede8101501d89b9894e78e4f219420b6ddb840e8e75dde35741a0745408476d760048201523360248201526001600160a01b03909116906391d1485490604401602060405180830381865afa1580156108b6573d6000803e3d6000fd5b505050506040513d601f19601f820116820180604052508101906108da9190612052565b61091b5760405162461bcd60e51b815260206004820152601260248201527114995cdd1c9a58dd1959081d1bc8155b9a5d60721b6044820152606401610485565b81602001516001600160a01b031682600001516001600160a01b03161415801561094e575081516001600160a01b031615155b8015610966575060208201516001600160a01b031615155b6109a15760405162461bcd60e51b815260206004820152600c60248201526b77726f6e6720746f6b656e7360a01b6044820152606401610485565b60fc546000906001600160a01b031615610a335760fc60009054906101000a90046001600160a01b03166001600160a01b031663f2c9ecd86040518163ffffffff1660e01b8152600401602060405180830381865afa158015610a08573d6000803e3d6000fd5b505050506040513d601f19601f82011682018060405250810190610a2c919061206f565b9050610a36565b50435b604080516101008101825282815284820151602080830191825260608088015184860190815260a0808a01516001600160a01b0390811693870193845260808088018b8152908c01519288019290925260c0808c0151151590880152600060e088018190528b518216815260fd8652888120868d015183168252909552969093208551815593516001850155516002840155516003830180546001600160a01b031916919095161790935591519091906004820190610af59082612110565b5060a08201518051610b11916005840191602090910190611a27565b5060c08201516006909101805460e09093015115156101000261ff00199215159290921661ffff1990931692909217179055505050565b610b5360003361081d565b610b965760405162461bcd60e51b81526020600482015260146024820152735265737472696374656420746f2061646d696e7360601b6044820152606401610485565b60fb80546001600160a01b039485166001600160a01b03199182161790915560fc80549385169382169390931790925560fe8054919093169116179055565b600082815260656020526040902060010154610bf081611306565b6104148383611396565b610c4f60405180610100016040528060008152602001600081526020016000815260200160006001600160a01b0316815260200160608152602001606081526020016000151581526020016000151581525090565b60fe54604051632474521560e21b81527fede8101501d89b9894e78e4f219420b6ddb840e8e75dde35741a0745408476d760048201523360248201526001600160a01b03909116906391d1485490604401602060405180830381865afa158015610cbd573d6000803e3d6000fd5b505050506040513d601f19601f82011682018060405250810190610ce19190612052565b610d225760405162461bcd60e51b815260206004820152601260248201527114995cdd1c9a58dd1959081d1bc8155b9a5d60721b6044820152606401610485565b6001600160a01b03808416600090815260fd6020908152604080832086851684528252918290208251610100810184528154815260018201549281019290925260028101549282019290925260038201549092166060830152600481018054608084019190610d9090612088565b80601f0160208091040260200160405190810160405280929190818152602001828054610dbc90612088565b8015610e095780601f10610dde57610100808354040283529160200191610e09565b820191906000526020600020905b815481529060010190602001808311610dec57829003601f168201915b5050505050815260200160058201805480602002602001604051908101604052809291908181526020018280548015610e6157602002820191906000526020600020905b815481526020019060010190808311610e4d575b50505091835250506006919091015460ff808216151560208401526101009091041615156040909101529392505050565b6001600160a01b03808516600090815260fd6020908152604080832087851684528252808320815161010081018352815481526001820154938101939093526002810154918301919091526003810154909316606082015260048301805492939192608084019190610f0390612088565b80601f0160208091040260200160405190810160405280929190818152602001828054610f2f90612088565b8015610f7c5780601f10610f5157610100808354040283529160200191610f7c565b820191906000526020600020905b815481529060010190602001808311610f5f57829003601f168201915b5050505050815260200160058201805480602002602001604051908101604052809291908181526020018280548015610fd457602002820191906000526020600020905b815481526020019060010190808311610fc0575b50505091835250506006919091015460ff80821615156020840152610100909104161515604091820152516323b872dd60e01b8152336004820152306024820152604481018590529091506001600160a01b038616906323b872dd906064016020604051808303816000875af1158015611052573d6000803e3d6000fd5b505050506040513d601f19601f820116820180604052508101906110769190612052565b5060fb5460405163095ea7b360e01b81526001600160a01b039182166004820152602481018590529086169063095ea7b3906044016020604051808303816000875af11580156110ca573d6000803e3d6000fd5b505050506040513d601f19601f820116820180604052508101906110ee9190612052565b508060c00151156111f35760fb5460a0820151604051637224811760e11b81526000926001600160a01b03169163e449022e916111329188918891906004016121d0565b6020604051808303816000875af1158015611151573d6000803e3d6000fd5b505050506040513d601f19601f82011682018060405250810190611175919061206f565b60405163a9059cbb60e01b81526001600160a01b038981166004830152602482018390529192509086169063a9059cbb906044016020604051808303816000875af11580156111c8573d6000803e3d6000fd5b505050506040513d601f19601f820116820180604052508101906111ec9190612052565b50506112ba565b6040805160e0810182526001600160a01b0380881682528681166020830152606080850180518316848601528a831691840191909152608080840188905260a084018790528585015160c085015260fb5491519086015194516312aa3caf60e01b8152939491909216926312aa3caf926112749290918691906004016121ef565b60408051808303816000875af1158015611292573d6000803e3d6000fd5b505050506040513d601f19601f820116820180604052508101906112b69190612282565b5050505b5050506001600160a01b03918216600090815260fd602090815260408083209390941682529190915220600601805461ff00191661010017905550565b6001600160a01b03163b151590565b61057881336115e0565b61131a828261081d565b6104985760008281526065602090815260408083206001600160a01b03851684529091529020805460ff191660011790556113523390565b6001600160a01b0316816001600160a01b0316837f2f8788117e7eff1d82e926ec794901d17c78024a50270940304540a733656f0d60405160405180910390a45050565b6113a0828261081d565b156104985760008281526065602090815260408083206001600160a01b0385168085529252808320805460ff1916905551339285917ff6391f5c32d9c69d2a47ea670b442974b53935d1edc7fd64eb21e047a839171b9190a45050565b600061049881611306565b7f4910fdfa16fed3260ed0e7147f7cc6da11a60208b5b9406d12a635614ffd91435460ff161561143b5761041483611639565b826001600160a01b03166352d1902d6040518163ffffffff1660e01b8152600401602060405180830381865afa925050508015611495575060408051601f3d908101601f191682019092526114929181019061206f565b60015b6114f85760405162461bcd60e51b815260206004820152602e60248201527f45524331393637557067726164653a206e657720696d706c656d656e7461746960448201526d6f6e206973206e6f74205555505360901b6064820152608401610485565b6000805160206123b883398151915281146115675760405162461bcd60e51b815260206004820152602960248201527f45524331393637557067726164653a20756e737570706f727465642070726f786044820152681a58589b195555525160ba1b6064820152608401610485565b506104148383836116d5565b600054610100900460ff166115de5760405162461bcd60e51b815260206004820152602b60248201527f496e697469616c697a61626c653a20636f6e7472616374206973206e6f74206960448201526a6e697469616c697a696e6760a81b6064820152608401610485565b565b6115ea828261081d565b610498576115f781611700565b611602836020611712565b6040516020016116139291906122a6565b60408051601f198184030181529082905262461bcd60e51b82526104859160040161231b565b6001600160a01b0381163b6116a65760405162461bcd60e51b815260206004820152602d60248201527f455243313936373a206e657720696d706c656d656e746174696f6e206973206e60448201526c1bdd08184818dbdb9d1c9858dd609a1b6064820152608401610485565b6000805160206123b883398151915280546001600160a01b0319166001600160a01b0392909216919091179055565b6116de836118b5565b6000825111806116eb5750805b15610414576116fa83836118f5565b50505050565b60606103e96001600160a01b03831660145b60606000611721836002612344565b61172c90600261235b565b67ffffffffffffffff81111561174457611744611b2d565b6040519080825280601f01601f19166020018201604052801561176e576020820181803683370190505b509050600360fc1b816000815181106117895761178961236e565b60200101906001600160f81b031916908160001a905350600f60fb1b816001815181106117b8576117b861236e565b60200101906001600160f81b031916908160001a90535060006117dc846002612344565b6117e790600161235b565b90505b600181111561185f576f181899199a1a9b1b9c1cb0b131b232b360811b85600f166010811061181b5761181b61236e565b1a60f81b8282815181106118315761183161236e565b60200101906001600160f81b031916908160001a90535060049490941c9361185881612384565b90506117ea565b5083156118ae5760405162461bcd60e51b815260206004820181905260248201527f537472696e67733a20686578206c656e67746820696e73756666696369656e746044820152606401610485565b9392505050565b6118be81611639565b6040516001600160a01b038216907fbc7cd75a20ee27fd9adebab32041f755214dbc6bffa90cc0225b39da2e5c2d3b90600090a250565b60606001600160a01b0383163b61195d5760405162461bcd60e51b815260206004820152602660248201527f416464726573733a2064656c65676174652063616c6c20746f206e6f6e2d636f6044820152651b9d1c9858dd60d21b6064820152608401610485565b600080846001600160a01b031684604051611978919061239b565b600060405180830381855af49150503d80600081146119b3576040519150601f19603f3d011682016040523d82523d6000602084013e6119b8565b606091505b50915091506119e082826040518060600160405280602781526020016123d8602791396119e9565b95945050505050565b606083156119f85750816118ae565b6118ae8383815115611a0d5781518083602001fd5b8060405162461bcd60e51b8152600401610485919061231b565b828054828255906000526020600020908101928215611a62579160200282015b82811115611a62578251825591602001919060010190611a47565b50611a6e929150611a72565b5090565b5b80821115611a6e5760008155600101611a73565b600060208284031215611a9957600080fd5b81356001600160e01b0319811681146118ae57600080fd5b600060208284031215611ac357600080fd5b5035919050565b80356001600160a01b0381168114611ae157600080fd5b919050565b60008060408385031215611af957600080fd5b82359150611b0960208401611aca565b90509250929050565b600060208284031215611b2457600080fd5b6118ae82611aca565b634e487b7160e01b600052604160045260246000fd5b60405160e0810167ffffffffffffffff81118282101715611b6657611b66611b2d565b60405290565b604051601f8201601f1916810167ffffffffffffffff81118282101715611b9557611b95611b2d565b604052919050565b600082601f830112611bae57600080fd5b813567ffffffffffffffff811115611bc857611bc8611b2d565b611bdb601f8201601f1916602001611b6c565b818152846020838601011115611bf057600080fd5b816020850160208301376000918101602001919091529392505050565b60008060408385031215611c2057600080fd5b611c2983611aca565b9150602083013567ffffffffffffffff811115611c4557600080fd5b611c5185828601611b9d565b9150509250929050565b600082601f830112611c6c57600080fd5b8135602067ffffffffffffffff821115611c8857611c88611b2d565b8160051b611c97828201611b6c565b9283528481018201928281019087851115611cb157600080fd5b83870192505b84831015611cd057823582529183019190830190611cb7565b979650505050505050565b801515811461057857600080fd5b8035611ae181611cdb565b60008060408385031215611d0757600080fd5b823567ffffffffffffffff80821115611d1f57600080fd5b9084019060e08287031215611d3357600080fd5b611d3b611b43565b611d4483611aca565b8152611d5260208401611aca565b60208201526040830135604082015260608301356060820152608083013582811115611d7d57600080fd5b611d8988828601611c5b565b608083015250611d9b60a08401611aca565b60a0820152611dac60c08401611ce9565b60c082015293506020850135915080821115611dc757600080fd5b50611c5185828601611b9d565b600080600060608486031215611de957600080fd5b611df284611aca565b9250611e0060208501611aca565b9150611e0e60408501611aca565b90509250925092565b60008060408385031215611e2a57600080fd5b611e3383611aca565b9150611b0960208401611aca565b60005b83811015611e5c578181015183820152602001611e44565b50506000910152565b60008151808452611e7d816020860160208601611e41565b601f01601f19169290920160200192915050565b600081518084526020808501945080840160005b83811015611ec157815187529582019590820190600101611ea5565b509495945050505050565b6020815281516020820152602082015160408201526040820151606082015260018060a01b036060830151166080820152600060808301516101008060a0850152611f1b610120850183611e65565b915060a0850151601f198584030160c0860152611f388382611e91565b92505060c0850151611f4e60e086018215159052565b5060e0850151801515858301525090949350505050565b600080600080600060a08688031215611f7d57600080fd5b611f8686611aca565b9450611f9460208701611aca565b9350611fa260408701611aca565b94979396509394606081013594506080013592915050565b6020808252602c908201527f46756e6374696f6e206d7573742062652063616c6c6564207468726f7567682060408201526b19195b1959d85d1958d85b1b60a21b606082015260800190565b6020808252602c908201527f46756e6374696f6e206d7573742062652063616c6c6564207468726f7567682060408201526b6163746976652070726f787960a01b606082015260800190565b60006020828403121561206457600080fd5b81516118ae81611cdb565b60006020828403121561208157600080fd5b5051919050565b600181811c9082168061209c57607f821691505b6020821081036120bc57634e487b7160e01b600052602260045260246000fd5b50919050565b601f82111561041457600081815260208120601f850160051c810160208610156120e95750805b601f850160051c820191505b81811015612108578281556001016120f5565b505050505050565b815167ffffffffffffffff81111561212a5761212a611b2d565b61213e816121388454612088565b846120c2565b602080601f831160018114612173576000841561215b5750858301515b600019600386901b1c1916600185901b178555612108565b600085815260208120601f198616915b828110156121a257888601518255948401946001909101908401612183565b50858210156121c05787850151600019600388901b60f8161c191681555b5050505050600190811b01905550565b8381528260208201526060604082015260006119e06060830184611e91565b600061014060018060a01b03808716845280865116602085015280602087015116604085015280604087015116606085015280606087015116608085015250608085015160a084015260a085015160c084015260c085015160e0840152806101008401526122638184016000815260200190565b90508281036101208401526122788185611e65565b9695505050505050565b6000806040838503121561229557600080fd5b505080516020909101519092909150565b7f416363657373436f6e74726f6c3a206163636f756e74200000000000000000008152600083516122de816017850160208801611e41565b7001034b99036b4b9b9b4b733903937b6329607d1b601791840191820152835161230f816028840160208801611e41565b01602801949350505050565b6020815260006118ae6020830184611e65565b634e487b7160e01b600052601160045260246000fd5b80820281158282048414176103e9576103e961232e565b808201808211156103e9576103e961232e565b634e487b7160e01b600052603260045260246000fd5b6000816123935761239361232e565b506000190190565b600082516123ad818460208701611e41565b919091019291505056fe360894a13ba1a3210667c828492db98dca3e2076cc3735a920a3ca505d382bbc416464726573733a206c6f772d6c6576656c2064656c65676174652063616c6c206661696c6564a2646970667358221220f5d6d49d37dd00113735fa2cec900ea19c42dd6a0c4c88eeadef52e67b5d246764736f6c63430008110033",
  "implementation": "0x7c865105E1Fc3eD079e448e102a585d0577A7c98",
  "devdoc": {
    "kind": "dev",
    "methods": {
      "constructor": {
        "custom:oz-upgrades-unsafe-allow": "constructor"
      },
      "getRoleAdmin(bytes32)": {
        "details": "Returns the admin role that controls `role`. See {grantRole} and {revokeRole}. To change a role's admin, use {_setRoleAdmin}."
      },
      "grantRole(bytes32,address)": {
        "details": "Grants `role` to `account`. If `account` had not been already granted `role`, emits a {RoleGranted} event. Requirements: - the caller must have ``role``'s admin role. May emit a {RoleGranted} event."
      },
      "hasRole(bytes32,address)": {
        "details": "Returns `true` if `account` has been granted `role`."
      },
      "proxiableUUID()": {
        "details": "Implementation of the ERC1822 {proxiableUUID} function. This returns the storage slot used by the implementation. It is used to validate the implementation's compatibility when performing an upgrade. IMPORTANT: A proxy pointing at a proxiable contract should not be considered proxiable itself, because this risks bricking a proxy that upgrades to it, by delegating to itself until out of gas. Thus it is critical that this function revert if invoked through a proxy. This is guaranteed by the `notDelegated` modifier."
      },
      "renounceRole(bytes32,address)": {
        "details": "Revokes `role` from the calling account. Roles are often managed via {grantRole} and {revokeRole}: this function's purpose is to provide a mechanism for accounts to lose their privileges if they are compromised (such as when a trusted device is misplaced). If the calling account had been revoked `role`, emits a {RoleRevoked} event. Requirements: - the caller must be `account`. May emit a {RoleRevoked} event."
      },
      "revokeRole(bytes32,address)": {
        "details": "Revokes `role` from `account`. If `account` had been granted `role`, emits a {RoleRevoked} event. Requirements: - the caller must have ``role``'s admin role. May emit a {RoleRevoked} event."
      },
      "supportsInterface(bytes4)": {
        "details": "See {IERC165-supportsInterface}."
      },
      "upgradeTo(address)": {
        "details": "Upgrade the implementation of the proxy to `newImplementation`. Calls {_authorizeUpgrade}. Emits an {Upgraded} event."
      },
      "upgradeToAndCall(address,bytes)": {
        "details": "Upgrade the implementation of the proxy to `newImplementation`, and subsequently execute the function call encoded in `data`. Calls {_authorizeUpgrade}. Emits an {Upgraded} event."
      }
    },
    "version": 1
  },
  "userdoc": {
    "kind": "user",
    "methods": {},
    "version": 1
  },
  "storageLayout": {
    "storage": [
      {
        "astId": 974,
        "contract": "contracts/InchSwapper.sol:InchSwapper",
        "label": "_initialized",
        "offset": 0,
        "slot": "0",
        "type": "t_uint8"
      },
      {
        "astId": 977,
        "contract": "contracts/InchSwapper.sol:InchSwapper",
        "label": "_initializing",
        "offset": 1,
        "slot": "0",
        "type": "t_bool"
      },
      {
        "astId": 1827,
        "contract": "contracts/InchSwapper.sol:InchSwapper",
        "label": "__gap",
        "offset": 0,
        "slot": "1",
        "type": "t_array(t_uint256)50_storage"
      },
      {
        "astId": 2106,
        "contract": "contracts/InchSwapper.sol:InchSwapper",
        "label": "__gap",
        "offset": 0,
        "slot": "51",
        "type": "t_array(t_uint256)50_storage"
      },
      {
        "astId": 184,
        "contract": "contracts/InchSwapper.sol:InchSwapper",
        "label": "_roles",
        "offset": 0,
        "slot": "101",
        "type": "t_mapping(t_bytes32,t_struct(RoleData)179_storage)"
      },
      {
        "astId": 479,
        "contract": "contracts/InchSwapper.sol:InchSwapper",
        "label": "__gap",
        "offset": 0,
        "slot": "102",
        "type": "t_array(t_uint256)49_storage"
      },
      {
        "astId": 956,
        "contract": "contracts/InchSwapper.sol:InchSwapper",
        "label": "__gap",
        "offset": 0,
        "slot": "151",
        "type": "t_array(t_uint256)50_storage"
      },
      {
        "astId": 1271,
        "contract": "contracts/InchSwapper.sol:InchSwapper",
        "label": "__gap",
        "offset": 0,
        "slot": "201",
        "type": "t_array(t_uint256)50_storage"
      },
      {
        "astId": 18897,
        "contract": "contracts/InchSwapper.sol:InchSwapper",
        "label": "inchRouter",
        "offset": 0,
        "slot": "251",
        "type": "t_contract(IInchRouter)8585"
      },
      {
        "astId": 18899,
        "contract": "contracts/InchSwapper.sol:InchSwapper",
        "label": "blockGetter",
        "offset": 0,
        "slot": "252",
        "type": "t_address"
      },
      {
        "astId": 18906,
        "contract": "contracts/InchSwapper.sol:InchSwapper",
        "label": "routePathsMap",
        "offset": 0,
        "slot": "253",
        "type": "t_mapping(t_address,t_mapping(t_address,t_struct(Route)33445_storage))"
      },
      {
        "astId": 18909,
        "contract": "contracts/InchSwapper.sol:InchSwapper",
        "label": "roleManager",
        "offset": 0,
        "slot": "254",
        "type": "t_contract(IRoleManager)33852"
      }
    ],
    "types": {
      "t_address": {
        "encoding": "inplace",
        "label": "address",
        "numberOfBytes": "20"
      },
      "t_array(t_uint256)49_storage": {
        "base": "t_uint256",
        "encoding": "inplace",
        "label": "uint256[49]",
        "numberOfBytes": "1568"
      },
      "t_array(t_uint256)50_storage": {
        "base": "t_uint256",
        "encoding": "inplace",
        "label": "uint256[50]",
        "numberOfBytes": "1600"
      },
      "t_array(t_uint256)dyn_storage": {
        "base": "t_uint256",
        "encoding": "dynamic_array",
        "label": "uint256[]",
        "numberOfBytes": "32"
      },
      "t_bool": {
        "encoding": "inplace",
        "label": "bool",
        "numberOfBytes": "1"
      },
      "t_bytes32": {
        "encoding": "inplace",
        "label": "bytes32",
        "numberOfBytes": "32"
      },
      "t_bytes_storage": {
        "encoding": "bytes",
        "label": "bytes",
        "numberOfBytes": "32"
      },
      "t_contract(IInchRouter)8585": {
        "encoding": "inplace",
        "label": "contract IInchRouter",
        "numberOfBytes": "20"
      },
      "t_contract(IRoleManager)33852": {
        "encoding": "inplace",
        "label": "contract IRoleManager",
        "numberOfBytes": "20"
      },
      "t_mapping(t_address,t_bool)": {
        "encoding": "mapping",
        "key": "t_address",
        "label": "mapping(address => bool)",
        "numberOfBytes": "32",
        "value": "t_bool"
      },
      "t_mapping(t_address,t_mapping(t_address,t_struct(Route)33445_storage))": {
        "encoding": "mapping",
        "key": "t_address",
        "label": "mapping(address => mapping(address => struct IInchSwapper.Route))",
        "numberOfBytes": "32",
        "value": "t_mapping(t_address,t_struct(Route)33445_storage)"
      },
      "t_mapping(t_address,t_struct(Route)33445_storage)": {
        "encoding": "mapping",
        "key": "t_address",
        "label": "mapping(address => struct IInchSwapper.Route)",
        "numberOfBytes": "32",
        "value": "t_struct(Route)33445_storage"
      },
      "t_mapping(t_bytes32,t_struct(RoleData)179_storage)": {
        "encoding": "mapping",
        "key": "t_bytes32",
        "label": "mapping(bytes32 => struct AccessControlUpgradeable.RoleData)",
        "numberOfBytes": "32",
        "value": "t_struct(RoleData)179_storage"
      },
      "t_struct(RoleData)179_storage": {
        "encoding": "inplace",
        "label": "struct AccessControlUpgradeable.RoleData",
        "members": [
          {
            "astId": 176,
            "contract": "contracts/InchSwapper.sol:InchSwapper",
            "label": "members",
            "offset": 0,
            "slot": "0",
            "type": "t_mapping(t_address,t_bool)"
          },
          {
            "astId": 178,
            "contract": "contracts/InchSwapper.sol:InchSwapper",
            "label": "adminRole",
            "offset": 0,
            "slot": "1",
            "type": "t_bytes32"
          }
        ],
        "numberOfBytes": "64"
      },
      "t_struct(Route)33445_storage": {
        "encoding": "inplace",
        "label": "struct IInchSwapper.Route",
        "members": [
          {
            "astId": 33429,
            "contract": "contracts/InchSwapper.sol:InchSwapper",
            "label": "updateBlock",
            "offset": 0,
            "slot": "0",
            "type": "t_uint256"
          },
          {
            "astId": 33431,
            "contract": "contracts/InchSwapper.sol:InchSwapper",
            "label": "amount",
            "offset": 0,
            "slot": "1",
            "type": "t_uint256"
          },
          {
            "astId": 33433,
            "contract": "contracts/InchSwapper.sol:InchSwapper",
            "label": "flags",
            "offset": 0,
            "slot": "2",
            "type": "t_uint256"
          },
          {
            "astId": 33435,
            "contract": "contracts/InchSwapper.sol:InchSwapper",
            "label": "srcReceiver",
            "offset": 0,
            "slot": "3",
            "type": "t_address"
          },
          {
            "astId": 33437,
            "contract": "contracts/InchSwapper.sol:InchSwapper",
            "label": "data",
            "offset": 0,
            "slot": "4",
            "type": "t_bytes_storage"
          },
          {
            "astId": 33440,
            "contract": "contracts/InchSwapper.sol:InchSwapper",
            "label": "pools",
            "offset": 0,
            "slot": "5",
            "type": "t_array(t_uint256)dyn_storage"
          },
          {
            "astId": 33442,
            "contract": "contracts/InchSwapper.sol:InchSwapper",
            "label": "isUniV3",
            "offset": 0,
            "slot": "6",
            "type": "t_bool"
          },
          {
            "astId": 33444,
            "contract": "contracts/InchSwapper.sol:InchSwapper",
            "label": "isUsed",
            "offset": 1,
            "slot": "6",
            "type": "t_bool"
          }
        ],
        "numberOfBytes": "224"
      },
      "t_uint256": {
        "encoding": "inplace",
        "label": "uint256",
        "numberOfBytes": "32"
      },
      "t_uint8": {
        "encoding": "inplace",
        "label": "uint8",
        "numberOfBytes": "1"
      }
    }
  }
}