{
  "address": "0xe80772Eaf6e2E18B651F160Bc9158b2A5caFCA65",
  "abi": [
    {
      "inputs": [],
      "stateMutability": "nonpayable",
      "type": "constructor"
    },
    {
      "anonymous": false,
      "inputs": [
        {
          "indexed": false,
          "internalType": "address",
          "name": "previousAdmin",
          "type": "address"
        },
        {
          "indexed": false,
          "internalType": "address",
          "name": "newAdmin",
          "type": "address"
        }
      ],
      "name": "AdminChanged",
      "type": "event"
    },
    {
      "anonymous": false,
      "inputs": [
        {
          "indexed": true,
          "internalType": "address",
          "name": "owner",
          "type": "address"
        },
        {
          "indexed": true,
          "internalType": "address",
          "name": "spender",
          "type": "address"
        },
        {
          "indexed": false,
          "internalType": "uint256",
          "name": "value",
          "type": "uint256"
        }
      ],
      "name": "Approval",
      "type": "event"
    },
    {
      "anonymous": false,
      "inputs": [
        {
          "indexed": true,
          "internalType": "address",
          "name": "beacon",
          "type": "address"
        }
      ],
      "name": "BeaconUpgraded",
      "type": "event"
    },
    {
      "anonymous": false,
      "inputs": [
        {
          "indexed": false,
          "internalType": "address",
          "name": "exchanger",
          "type": "address"
        }
      ],
      "name": "ExchangerUpdated",
      "type": "event"
    },
    {
      "anonymous": false,
      "inputs": [
        {
          "indexed": false,
          "internalType": "uint8",
          "name": "version",
          "type": "uint8"
        }
      ],
      "name": "Initialized",
      "type": "event"
    },
    {
      "anonymous": false,
      "inputs": [
        {
          "indexed": false,
          "internalType": "uint256",
          "name": "changeTime",
          "type": "uint256"
        },
        {
          "indexed": false,
          "internalType": "uint256",
          "name": "liquidityIndex",
          "type": "uint256"
        }
      ],
      "name": "LiquidityIndexUpdated",
      "type": "event"
    },
    {
      "anonymous": false,
      "inputs": [
        {
          "indexed": true,
          "internalType": "bytes32",
          "name": "role",
          "type": "bytes32"
        },
        {
          "indexed": true,
          "internalType": "bytes32",
          "name": "previousAdminRole",
          "type": "bytes32"
        },
        {
          "indexed": true,
          "internalType": "bytes32",
          "name": "newAdminRole",
          "type": "bytes32"
        }
      ],
      "name": "RoleAdminChanged",
      "type": "event"
    },
    {
      "anonymous": false,
      "inputs": [
        {
          "indexed": true,
          "internalType": "bytes32",
          "name": "role",
          "type": "bytes32"
        },
        {
          "indexed": true,
          "internalType": "address",
          "name": "account",
          "type": "address"
        },
        {
          "indexed": true,
          "internalType": "address",
          "name": "sender",
          "type": "address"
        }
      ],
      "name": "RoleGranted",
      "type": "event"
    },
    {
      "anonymous": false,
      "inputs": [
        {
          "indexed": true,
          "internalType": "bytes32",
          "name": "role",
          "type": "bytes32"
        },
        {
          "indexed": true,
          "internalType": "address",
          "name": "account",
          "type": "address"
        },
        {
          "indexed": true,
          "internalType": "address",
          "name": "sender",
          "type": "address"
        }
      ],
      "name": "RoleRevoked",
      "type": "event"
    },
    {
      "anonymous": false,
      "inputs": [
        {
          "indexed": true,
          "internalType": "address",
          "name": "from",
          "type": "address"
        },
        {
          "indexed": true,
          "internalType": "address",
          "name": "to",
          "type": "address"
        },
        {
          "indexed": false,
          "internalType": "uint256",
          "name": "value",
          "type": "uint256"
        }
      ],
      "name": "Transfer",
      "type": "event"
    },
    {
      "anonymous": false,
      "inputs": [
        {
          "indexed": true,
          "internalType": "address",
          "name": "implementation",
          "type": "address"
        }
      ],
      "name": "Upgraded",
      "type": "event"
    },
    {
      "inputs": [],
      "name": "DEFAULT_ADMIN_ROLE",
      "outputs": [
        {
          "internalType": "bytes32",
          "name": "",
          "type": "bytes32"
        }
      ],
      "stateMutability": "view",
      "type": "function"
    },
    {
      "inputs": [],
      "name": "EXCHANGER",
      "outputs": [
        {
          "internalType": "bytes32",
          "name": "",
          "type": "bytes32"
        }
      ],
      "stateMutability": "view",
      "type": "function"
    },
    {
      "inputs": [],
      "name": "UPGRADER_ROLE",
      "outputs": [
        {
          "internalType": "bytes32",
          "name": "",
          "type": "bytes32"
        }
      ],
      "stateMutability": "view",
      "type": "function"
    },
    {
      "inputs": [
        {
          "internalType": "address",
          "name": "owner",
          "type": "address"
        },
        {
          "internalType": "address",
          "name": "spender",
          "type": "address"
        }
      ],
      "name": "allowance",
      "outputs": [
        {
          "internalType": "uint256",
          "name": "",
          "type": "uint256"
        }
      ],
      "stateMutability": "view",
      "type": "function"
    },
    {
      "inputs": [
        {
          "internalType": "address",
          "name": "spender",
          "type": "address"
        },
        {
          "internalType": "uint256",
          "name": "amount",
          "type": "uint256"
        }
      ],
      "name": "approve",
      "outputs": [
        {
          "internalType": "bool",
          "name": "",
          "type": "bool"
        }
      ],
      "stateMutability": "nonpayable",
      "type": "function"
    },
    {
      "inputs": [
        {
          "internalType": "address",
          "name": "user",
          "type": "address"
        }
      ],
      "name": "balanceOf",
      "outputs": [
        {
          "internalType": "uint256",
          "name": "",
          "type": "uint256"
        }
      ],
      "stateMutability": "view",
      "type": "function"
    },
    {
      "inputs": [
        {
          "internalType": "address",
          "name": "_sender",
          "type": "address"
        },
        {
          "internalType": "uint256",
          "name": "_amount",
          "type": "uint256"
        }
      ],
      "name": "burn",
      "outputs": [],
      "stateMutability": "nonpayable",
      "type": "function"
    },
    {
      "inputs": [],
      "name": "decimals",
      "outputs": [
        {
          "internalType": "uint8",
          "name": "",
          "type": "uint8"
        }
      ],
      "stateMutability": "view",
      "type": "function"
    },
    {
      "inputs": [
        {
          "internalType": "address",
          "name": "spender",
          "type": "address"
        },
        {
          "internalType": "uint256",
          "name": "subtractedValue",
          "type": "uint256"
        }
      ],
      "name": "decreaseAllowance",
      "outputs": [
        {
          "internalType": "bool",
          "name": "",
          "type": "bool"
        }
      ],
      "stateMutability": "nonpayable",
      "type": "function"
    },
    {
      "inputs": [],
      "name": "exchange",
      "outputs": [
        {
          "internalType": "address",
          "name": "",
          "type": "address"
        }
      ],
      "stateMutability": "view",
      "type": "function"
    },
    {
      "inputs": [
        {
          "internalType": "bytes32",
          "name": "role",
          "type": "bytes32"
        }
      ],
      "name": "getRoleAdmin",
      "outputs": [
        {
          "internalType": "bytes32",
          "name": "",
          "type": "bytes32"
        }
      ],
      "stateMutability": "view",
      "type": "function"
    },
    {
      "inputs": [
        {
          "internalType": "bytes32",
          "name": "role",
          "type": "bytes32"
        },
        {
          "internalType": "address",
          "name": "account",
          "type": "address"
        }
      ],
      "name": "grantRole",
      "outputs": [],
      "stateMutability": "nonpayable",
      "type": "function"
    },
    {
      "inputs": [
        {
          "internalType": "bytes32",
          "name": "role",
          "type": "bytes32"
        },
        {
          "internalType": "address",
          "name": "account",
          "type": "address"
        }
      ],
      "name": "hasRole",
      "outputs": [
        {
          "internalType": "bool",
          "name": "",
          "type": "bool"
        }
      ],
      "stateMutability": "view",
      "type": "function"
    },
    {
      "inputs": [
        {
          "internalType": "address",
          "name": "spender",
          "type": "address"
        },
        {
          "internalType": "uint256",
          "name": "addedValue",
          "type": "uint256"
        }
      ],
      "name": "increaseAllowance",
      "outputs": [
        {
          "internalType": "bool",
          "name": "",
          "type": "bool"
        }
      ],
      "stateMutability": "nonpayable",
      "type": "function"
    },
    {
      "inputs": [
        {
          "internalType": "string",
          "name": "name",
          "type": "string"
        },
        {
          "internalType": "string",
          "name": "symbol",
          "type": "string"
        },
        {
          "internalType": "uint8",
          "name": "decimals",
          "type": "uint8"
        }
      ],
      "name": "initialize",
      "outputs": [],
      "stateMutability": "nonpayable",
      "type": "function"
    },
    {
      "inputs": [],
      "name": "liquidityIndex",
      "outputs": [
        {
          "internalType": "uint256",
          "name": "",
          "type": "uint256"
        }
      ],
      "stateMutability": "view",
      "type": "function"
    },
    {
      "inputs": [],
      "name": "liquidityIndexChangeTime",
      "outputs": [
        {
          "internalType": "uint256",
          "name": "",
          "type": "uint256"
        }
      ],
      "stateMutability": "view",
      "type": "function"
    },
    {
      "inputs": [],
      "name": "liquidityIndexDenominator",
      "outputs": [
        {
          "internalType": "uint256",
          "name": "",
          "type": "uint256"
        }
      ],
      "stateMutability": "view",
      "type": "function"
    },
    {
      "inputs": [
        {
          "internalType": "address",
          "name": "_sender",
          "type": "address"
        },
        {
          "internalType": "uint256",
          "name": "_amount",
          "type": "uint256"
        }
      ],
      "name": "mint",
      "outputs": [],
      "stateMutability": "nonpayable",
      "type": "function"
    },
    {
      "inputs": [],
      "name": "name",
      "outputs": [
        {
          "internalType": "string",
          "name": "",
          "type": "string"
        }
      ],
      "stateMutability": "view",
      "type": "function"
    },
    {
      "inputs": [
        {
          "internalType": "uint256",
          "name": "index",
          "type": "uint256"
        }
      ],
      "name": "ownerAt",
      "outputs": [
        {
          "internalType": "address",
          "name": "",
          "type": "address"
        }
      ],
      "stateMutability": "view",
      "type": "function"
    },
    {
      "inputs": [
        {
          "internalType": "uint256",
          "name": "index",
          "type": "uint256"
        }
      ],
      "name": "ownerBalanceAt",
      "outputs": [
        {
          "internalType": "uint256",
          "name": "",
          "type": "uint256"
        }
      ],
      "stateMutability": "view",
      "type": "function"
    },
    {
      "inputs": [],
      "name": "ownerLength",
      "outputs": [
        {
          "internalType": "uint256",
          "name": "",
          "type": "uint256"
        }
      ],
      "stateMutability": "view",
      "type": "function"
    },
    {
      "inputs": [],
      "name": "proxiableUUID",
      "outputs": [
        {
          "internalType": "bytes32",
          "name": "",
          "type": "bytes32"
        }
      ],
      "stateMutability": "view",
      "type": "function"
    },
    {
      "inputs": [
        {
          "internalType": "bytes32",
          "name": "role",
          "type": "bytes32"
        },
        {
          "internalType": "address",
          "name": "account",
          "type": "address"
        }
      ],
      "name": "renounceRole",
      "outputs": [],
      "stateMutability": "nonpayable",
      "type": "function"
    },
    {
      "inputs": [
        {
          "internalType": "bytes32",
          "name": "role",
          "type": "bytes32"
        },
        {
          "internalType": "address",
          "name": "account",
          "type": "address"
        }
      ],
      "name": "revokeRole",
      "outputs": [],
      "stateMutability": "nonpayable",
      "type": "function"
    },
    {
      "inputs": [
        {
          "internalType": "address",
          "name": "user",
          "type": "address"
        }
      ],
      "name": "scaledBalanceOf",
      "outputs": [
        {
          "internalType": "uint256",
          "name": "",
          "type": "uint256"
        }
      ],
      "stateMutability": "view",
      "type": "function"
    },
    {
      "inputs": [],
      "name": "scaledTotalSupply",
      "outputs": [
        {
          "internalType": "uint256",
          "name": "",
          "type": "uint256"
        }
      ],
      "stateMutability": "view",
      "type": "function"
    },
    {
      "inputs": [
        {
          "internalType": "uint8",
          "name": "decimals",
          "type": "uint8"
        }
      ],
      "name": "setDecimals",
      "outputs": [],
      "stateMutability": "nonpayable",
      "type": "function"
    },
    {
      "inputs": [
        {
          "internalType": "address",
          "name": "_exchanger",
          "type": "address"
        }
      ],
      "name": "setExchanger",
      "outputs": [],
      "stateMutability": "nonpayable",
      "type": "function"
    },
    {
      "inputs": [
        {
          "internalType": "uint256",
          "name": "_liquidityIndex",
          "type": "uint256"
        }
      ],
      "name": "setLiquidityIndex",
      "outputs": [],
      "stateMutability": "nonpayable",
      "type": "function"
    },
    {
      "inputs": [
        {
          "internalType": "bytes4",
          "name": "interfaceId",
          "type": "bytes4"
        }
      ],
      "name": "supportsInterface",
      "outputs": [
        {
          "internalType": "bool",
          "name": "",
          "type": "bool"
        }
      ],
      "stateMutability": "view",
      "type": "function"
    },
    {
      "inputs": [],
      "name": "symbol",
      "outputs": [
        {
          "internalType": "string",
          "name": "",
          "type": "string"
        }
      ],
      "stateMutability": "view",
      "type": "function"
    },
    {
      "inputs": [],
      "name": "totalBurn",
      "outputs": [
        {
          "internalType": "uint256",
          "name": "",
          "type": "uint256"
        }
      ],
      "stateMutability": "view",
      "type": "function"
    },
    {
      "inputs": [],
      "name": "totalMint",
      "outputs": [
        {
          "internalType": "uint256",
          "name": "",
          "type": "uint256"
        }
      ],
      "stateMutability": "view",
      "type": "function"
    },
    {
      "inputs": [],
      "name": "totalSupply",
      "outputs": [
        {
          "internalType": "uint256",
          "name": "",
          "type": "uint256"
        }
      ],
      "stateMutability": "view",
      "type": "function"
    },
    {
      "inputs": [
        {
          "internalType": "address",
          "name": "recipient",
          "type": "address"
        },
        {
          "internalType": "uint256",
          "name": "amount",
          "type": "uint256"
        }
      ],
      "name": "transfer",
      "outputs": [
        {
          "internalType": "bool",
          "name": "",
          "type": "bool"
        }
      ],
      "stateMutability": "nonpayable",
      "type": "function"
    },
    {
      "inputs": [
        {
          "internalType": "address",
          "name": "sender",
          "type": "address"
        },
        {
          "internalType": "address",
          "name": "recipient",
          "type": "address"
        },
        {
          "internalType": "uint256",
          "name": "amount",
          "type": "uint256"
        }
      ],
      "name": "transferFrom",
      "outputs": [
        {
          "internalType": "bool",
          "name": "",
          "type": "bool"
        }
      ],
      "stateMutability": "nonpayable",
      "type": "function"
    },
    {
      "inputs": [
        {
          "internalType": "address",
          "name": "newImplementation",
          "type": "address"
        }
      ],
      "name": "upgradeTo",
      "outputs": [],
      "stateMutability": "nonpayable",
      "type": "function"
    },
    {
      "inputs": [
        {
          "internalType": "address",
          "name": "newImplementation",
          "type": "address"
        },
        {
          "internalType": "bytes",
          "name": "data",
          "type": "bytes"
        }
      ],
      "name": "upgradeToAndCall",
      "outputs": [],
      "stateMutability": "payable",
      "type": "function"
    }
  ],
  "numDeployments": 1,
  "solcInputHash": "ba1db3f0ade18ed4796ab481591d97b2",
  "bytecode": "0x60a06040523060601b6080523480156200001857600080fd5b50600054610100900460ff16158080156200003a5750600054600160ff909116105b806200006a575062000057306200014460201b6200164e1760201c565b1580156200006a575060005460ff166001145b620000d25760405162461bcd60e51b815260206004820152602e60248201527f496e697469616c697a61626c653a20636f6e747261637420697320616c72656160448201526d191e481a5b9a5d1a585b1a5e995960921b606482015260840160405180910390fd5b6000805460ff191660011790558015620000f6576000805461ff0019166101001790555b80156200013d576000805461ff0019169055604051600181527f7f26b83ff96e1f2b6a682f133852f6798a09c465da95921460cefb38474024989060200160405180910390a15b5062000153565b6001600160a01b03163b151590565b60805160601c612db56200018e60003960008181610cb301528181610cf301528181610ed101528181610f110152610fa00152612db56000f3fe60806040526004361061023a5760003560e01c806370a082311161012e578063b2be2591116100ab578063d2f7265a1161006f578063d2f7265a14610677578063d547741f14610698578063da909b09146106b8578063dd62ed3e146106d8578063f72c0d8b146106f857600080fd5b8063b2be2591146105e7578063bbf44f3314610607578063bd0f10531461061e578063cb45d0e714610640578063ce6df7be1461065757600080fd5b80639dc29fac116100f25780639dc29fac1461055d578063a217fddf1461057d578063a457c2d714610592578063a9059cbb146105b2578063b1bf962d146105d257600080fd5b806370a08231146104d15780637a1395aa146104f157806384f1abca1461051157806391d148541461052857806395d89b411461054857600080fd5b80632f2ff15d116101bc5780633c9f861d116101805780633c9f861d1461045f57806340c10f19146104745780634f1ef2861461049457806352d1902d146104a757806359a7715a146104bc57600080fd5b80632f2ff15d146103b8578063313ce567146103d857806336568abe146103ff5780633659cfe61461041f578063395093511461043f57600080fd5b806318160ddd1161020357806318160ddd146102fb5780631da24f3e1461031057806323b872dd146103305780632435987914610350578063248a9ca31461038857600080fd5b80623660881461023f57806301ffc9a71461026757806306fdde0314610297578063095ea7b3146102b95780631624f6c6146102d9575b600080fd5b34801561024b57600080fd5b5061025461072c565b6040519081526020015b60405180910390f35b34801561027357600080fd5b50610287610282366004612916565b61073e565b604051901515815260200161025e565b3480156102a357600080fd5b506102ac610775565b60405161025e9190612a6d565b3480156102c557600080fd5b506102876102d4366004612897565b610807565b3480156102e557600080fd5b506102f96102f4366004612940565b610873565b005b34801561030757600080fd5b50610254610a1d565b34801561031c57600080fd5b5061025461032b36600461274b565b610a47565b34801561033c57600080fd5b5061028761034b366004612799565b610a65565b34801561035c57600080fd5b5061037061036b3660046128c1565b610bc4565b6040516001600160a01b03909116815260200161025e565b34801561039457600080fd5b506102546103a33660046128c1565b60009081526065602052604090206001015490565b3480156103c457600080fd5b506102f96103d33660046128f3565b610bd2565b3480156103e457600080fd5b506103ed610bfc565b60405160ff909116815260200161025e565b34801561040b57600080fd5b506102f961041a3660046128f3565b610c2a565b34801561042b57600080fd5b506102f961043a36600461274b565b610ca8565b34801561044b57600080fd5b5061028761045a366004612897565b610d88565b34801561046b57600080fd5b50610254610de9565b34801561048057600080fd5b506102f961048f366004612897565b610e16565b6102f96104a23660046127d5565b610ec6565b3480156104b357600080fd5b50610254610f93565b3480156104c857600080fd5b50610254611046565b3480156104dd57600080fd5b506102546104ec36600461274b565b611062565b3480156104fd57600080fd5b506102f961050c3660046129c1565b6110a6565b34801561051d57600080fd5b506102546101045481565b34801561053457600080fd5b506102876105433660046128f3565b611167565b34801561055457600080fd5b506102ac611192565b34801561056957600080fd5b506102f9610578366004612897565b6111a1565b34801561058957600080fd5b50610254600081565b34801561059e57600080fd5b506102876105ad366004612897565b611278565b3480156105be57600080fd5b506102876105cd366004612897565b611374565b3480156105de57600080fd5b5060fd54610254565b3480156105f357600080fd5b506102f96106023660046128c1565b611404565b34801561061357600080fd5b506102546101035481565b34801561062a57600080fd5b50610254600080516020612cf983398151915281565b34801561064c57600080fd5b506102546101025481565b34801561066357600080fd5b506102546106723660046128c1565b6114d2565b34801561068357600080fd5b5061013954610370906001600160a01b031681565b3480156106a457600080fd5b506102f96106b33660046128f3565b6114e3565b3480156106c457600080fd5b506102f96106d336600461274b565b611508565b3480156106e457600080fd5b506102546106f3366004612766565b6115f5565b34801561070457600080fd5b506102547f189ab7a9244df0848122154315af71fe140f3db0fe014031783b0946b8c9d2e381565b600061073961010561165d565b905090565b60006001600160e01b03198216637965db0b60e01b148061076f57506301ffc9a760e01b6001600160e01b03198316145b92915050565b606060fe805461078490612c65565b80601f01602080910402602001604051908101604052809291908181526020018280546107b090612c65565b80156107fd5780601f106107d2576101008083540402835291602001916107fd565b820191906000526020600020905b8154815290600101906020018083116107e057829003601f168201915b5050505050905090565b600080633b9aca00610103546000196108209190612bca565b61082a9190612bca565b83111561083a575060001961085e565b61084383611667565b905061085b61010354826116a690919063ffffffff16565b90505b61086933858361177f565b5060019392505050565b600054610100900460ff16158080156108935750600054600160ff909116105b806108ad5750303b1580156108ad575060005460ff166001145b6109155760405162461bcd60e51b815260206004820152602e60248201527f496e697469616c697a61626c653a20636f6e747261637420697320616c72656160448201526d191e481a5b9a5d1a585b1a5e995960921b60648201526084015b60405180910390fd5b6000805460ff191660011790558015610938576000805461ff0019166101001790555b61094061189b565b61094c60fe878761263c565b5061095960ff858561263c565b5061096261189b565b61096a61189b565b610975600033611908565b61099f7f189ab7a9244df0848122154315af71fe140f3db0fe014031783b0946b8c9d2e333611908565b6b033b2e3c9fd0803ce800000061010381905561010455610139805460ff60a01b1916600160a01b60ff8516021790558015610a15576000805461ff0019169055604051600181527f7f26b83ff96e1f2b6a682f133852f6798a09c465da95921460cefb38474024989060200160405180910390a15b505050505050565b60fd5461010354600091908290610a3590839061198e565b9050610a4081611a2b565b9250505090565b6001600160a01b038116600090815260fb602052604081205461076f565b600080610a7185611062565b831415610a9757506001600160a01b038416600090815260fb6020526040902054610abb565b610aa083611667565b9050610ab861010354826116a690919063ffffffff16565b90505b610ac6858583611aab565b6000610ad286336115f5565b841415610ae0575080610b06565b506001600160a01b038516600090815260fc602090815260408083203384529091529020545b81811015610b6e5760405162461bcd60e51b815260206004820152602f60248201527f557364506c7573546f6b656e3a207472616e7366657220616d6f756e7420657860448201526e636565647320616c6c6f77616e636560881b606482015260840161090c565b610b7b863384840361177f565b846001600160a01b0316866001600160a01b0316600080516020612d6083398151915286604051610bae91815260200190565b60405180910390a36001925050505b9392505050565b600061076f61010583611c37565b600082815260656020526040902060010154610bed81611c43565b610bf78383611908565b505050565b61013954600090600160a01b900460ff1615610c24575061013954600160a01b900460ff1690565b50600690565b6001600160a01b0381163314610c9a5760405162461bcd60e51b815260206004820152602f60248201527f416363657373436f6e74726f6c3a2063616e206f6e6c792072656e6f756e636560448201526e103937b632b9903337b91039b2b63360891b606482015260840161090c565b610ca48282611c4d565b5050565b306001600160a01b037f0000000000000000000000000000000000000000000000000000000000000000161415610cf15760405162461bcd60e51b815260040161090c90612ad7565b7f00000000000000000000000000000000000000000000000000000000000000006001600160a01b0316610d3a600080516020612d19833981519152546001600160a01b031690565b6001600160a01b031614610d605760405162461bcd60e51b815260040161090c90612b23565b610d6981611cb4565b60408051600080825260208201909252610d8591839190611cde565b50565b600080610d9483611667565b9050610dac61010354826116a690919063ffffffff16565b33600081815260fc602090815260408083206001600160a01b038a168452909152902054919250610869918690610de4908590612bb2565b61177f565b600080610e05610103546101015461198e90919063ffffffff16565b9050610e1081611a2b565b91505090565b610e2e600080516020612cf983398151915233611167565b610e4a5760405162461bcd60e51b815260040161090c90612aa0565b6000610e5582611667565b9050610e6d61010354826116a690919063ffffffff16565b9050610e798382611e58565b806101006000828254610e8c9190612bb2565b90915550506040518281526001600160a01b03841690600090600080516020612d60833981519152906020015b60405180910390a3505050565b306001600160a01b037f0000000000000000000000000000000000000000000000000000000000000000161415610f0f5760405162461bcd60e51b815260040161090c90612ad7565b7f00000000000000000000000000000000000000000000000000000000000000006001600160a01b0316610f58600080516020612d19833981519152546001600160a01b031690565b6001600160a01b031614610f7e5760405162461bcd60e51b815260040161090c90612b23565b610f8782611cb4565b610ca482826001611cde565b6000306001600160a01b037f000000000000000000000000000000000000000000000000000000000000000016146110335760405162461bcd60e51b815260206004820152603860248201527f555550535570677261646561626c653a206d757374206e6f742062652063616c60448201527f6c6564207468726f7567682064656c656761746563616c6c0000000000000000606482015260840161090c565b50600080516020612d1983398151915290565b600080610e05610103546101005461198e90919063ffffffff16565b6001600160a01b038116600090815260fb60205260408120546000611093610103548361198e90919063ffffffff16565b905061109e81611a2b565b949350505050565b6110b1600033611167565b6110f45760405162461bcd60e51b81526020600482015260146024820152735265737472696374656420746f2061646d696e7360601b604482015260640161090c565b61013954600160a01b900460ff16156111465760405162461bcd60e51b8152602060048201526014602482015273111958da5b585b1cc8185b1c9958591e481cd95d60621b604482015260640161090c565b610139805460ff909216600160a01b0260ff60a01b19909216919091179055565b60009182526065602090815260408084206001600160a01b0393909316845291905290205460ff1690565b606060ff805461078490612c65565b6111b9600080516020612cf983398151915233611167565b6111d55760405162461bcd60e51b815260040161090c90612aa0565b60006111e083611062565b82141561120657506001600160a01b038216600090815260fb602052604090205461122a565b61120f82611667565b905061122761010354826116a690919063ffffffff16565b90505b6112348382611eff565b8061010160008282546112479190612bb2565b90915550506040518281526000906001600160a01b03851690600080516020612d6083398151915290602001610eb9565b60008061128533856115f5565b8314156112b6575033600090815260fc602090815260408083206001600160a01b03871684529091529020546112da565b6112bf83611667565b90506112d761010354826116a690919063ffffffff16565b90505b33600090815260fc602090815260408083206001600160a01b03881684529091529020548181101561135c5760405162461bcd60e51b815260206004820152602560248201527f45524332303a2064656372656173656420616c6c6f77616e63652062656c6f77604482015264207a65726f60d81b606482015260840161090c565b611369338684840361177f565b506001949350505050565b60008061138033611062565b83141561139d575033600090815260fb60205260409020546113c1565b6113a683611667565b90506113be61010354826116a690919063ffffffff16565b90505b6113cc338583611aab565b6040518381526001600160a01b038516903390600080516020612d608339815191529060200160405180910390a35060019392505050565b61141c600080516020612cf983398151915233611167565b6114385760405162461bcd60e51b815260040161090c90612aa0565b600081116114885760405162461bcd60e51b815260206004820181905260248201527f5a65726f206c697175696469747920696e646578206e6f7420616c6c6f776564604482015260640161090c565b6101038190554261010281905560408051918252602082018390527f0e4040116352d1db096d8c6873996691dc7c5fe194f0a5094f63e55f28372e1191015b60405180910390a150565b600061076f6104ec61010584611c37565b6000828152606560205260409020600101546114fe81611c43565b610bf78383611c4d565b611513600033611167565b6115565760405162461bcd60e51b81526020600482015260146024820152735265737472696374656420746f2061646d696e7360601b604482015260640161090c565b610139546001600160a01b03161561158e576101395461158e90600080516020612cf9833981519152906001600160a01b03166114e3565b6115a6600080516020612cf983398151915282610bd2565b61013980546001600160a01b0319166001600160a01b0383169081179091556040519081527f1af34e943bb581f62718acd39caf1a640e9ff89789a197745e259d1f40cd9bd6906020016114c7565b6001600160a01b03828116600090815260fc602090815260408083209385168352929052908120546101035461162d90600019612bca565b81111561163f5760001991505061076f565b6101035461109390829061198e565b6001600160a01b03163b151590565b600061076f825490565b600080611678633b9aca0084612bec565b905082611689633b9aca0083612bca565b1461076f5760405162461bcd60e51b815260040161090c90612b6f565b6000816116f55760405162461bcd60e51b815260206004820152601c60248201527f4572726f72732e4d4154485f4449564953494f4e5f42595f5a45524f00000000604482015260640161090c565b826117025750600061076f565b600061170f600284612bca565b90506b033b2e3c9fd0803ce800000061172a82600019612c0b565b6117349190612bca565b8411156117535760405162461bcd60e51b815260040161090c90612b6f565b828161176b6b033b2e3c9fd0803ce800000087612bec565b6117759190612bb2565b61109e9190612bca565b6001600160a01b0383166117e15760405162461bcd60e51b8152602060048201526024808201527f45524332303a20617070726f76652066726f6d20746865207a65726f206164646044820152637265737360e01b606482015260840161090c565b6001600160a01b0382166118425760405162461bcd60e51b815260206004820152602260248201527f45524332303a20617070726f766520746f20746865207a65726f206164647265604482015261737360f01b606482015260840161090c565b6001600160a01b03838116600081815260fc602090815260408083209487168084529482529182902085905590518481527f8c5be1e5ebec7d5bd14f71427d1e84f3dd0314c0f7b2291e5b200ac8c7c3b9259101610eb9565b600054610100900460ff166119065760405162461bcd60e51b815260206004820152602b60248201527f496e697469616c697a61626c653a20636f6e7472616374206973206e6f74206960448201526a6e697469616c697a696e6760a81b606482015260840161090c565b565b6119128282611167565b610ca45760008281526065602090815260408083206001600160a01b03851684529091529020805460ff1916600117905561194a3390565b6001600160a01b0316816001600160a01b0316837f2f8788117e7eff1d82e926ec794901d17c78024a50270940304540a733656f0d60405160405180910390a45050565b600082158061199b575081155b156119a85750600061076f565b816119c060026b033b2e3c9fd0803ce8000000612bca565b6119cc90600019612c0b565b6119d69190612bca565b8311156119f55760405162461bcd60e51b815260040161090c90612b6f565b6b033b2e3c9fd0803ce8000000611a0d600282612bca565b611a178486612bec565b611a219190612bb2565b610bbd9190612bca565b600080611a3d6002633b9aca00612bca565b90506000611a4b8483612bb2565b905081811015611a9d5760405162461bcd60e51b815260206004820152601d60248201527f4572726f72732e4d4154485f4144444954494f4e5f4f564552464c4f57000000604482015260640161090c565b61109e633b9aca0082612bca565b6001600160a01b038316611b0f5760405162461bcd60e51b815260206004820152602560248201527f45524332303a207472616e736665722066726f6d20746865207a65726f206164604482015264647265737360d81b606482015260840161090c565b6001600160a01b038216611b715760405162461bcd60e51b815260206004820152602360248201527f45524332303a207472616e7366657220746f20746865207a65726f206164647260448201526265737360e81b606482015260840161090c565b6001600160a01b038316600090815260fb602052604090205481811015611be95760405162461bcd60e51b815260206004820152602660248201527f45524332303a207472616e7366657220616d6f756e7420657863656564732062604482015265616c616e636560d01b606482015260840161090c565b6001600160a01b03808516600090815260fb6020526040808220858503905591851681529081208054849290611c20908490612bb2565b90915550611c319050848484612010565b50505050565b6000610bbd8383612078565b610d8581336120a2565b611c578282611167565b15610ca45760008281526065602090815260408083206001600160a01b0385168085529252808320805460ff1916905551339285917ff6391f5c32d9c69d2a47ea670b442974b53935d1edc7fd64eb21e047a839171b9190a45050565b7f189ab7a9244df0848122154315af71fe140f3db0fe014031783b0946b8c9d2e3610ca481611c43565b7f4910fdfa16fed3260ed0e7147f7cc6da11a60208b5b9406d12a635614ffd91435460ff1615611d1157610bf783612106565b826001600160a01b03166352d1902d6040518163ffffffff1660e01b815260040160206040518083038186803b158015611d4a57600080fd5b505afa925050508015611d7a575060408051601f3d908101601f19168201909252611d77918101906128da565b60015b611ddd5760405162461bcd60e51b815260206004820152602e60248201527f45524331393637557067726164653a206e657720696d706c656d656e7461746960448201526d6f6e206973206e6f74205555505360901b606482015260840161090c565b600080516020612d198339815191528114611e4c5760405162461bcd60e51b815260206004820152602960248201527f45524331393637557067726164653a20756e737570706f727465642070726f786044820152681a58589b195555525160ba1b606482015260840161090c565b50610bf78383836121a2565b6001600160a01b038216611eae5760405162461bcd60e51b815260206004820152601f60248201527f45524332303a206d696e7420746f20746865207a65726f206164647265737300604482015260640161090c565b8060fd6000828254611ec09190612bb2565b90915550506001600160a01b038216600090815260fb602052604081208054839290611eed908490612bb2565b90915550610ca4905060008383612010565b6001600160a01b038216611f5f5760405162461bcd60e51b815260206004820152602160248201527f45524332303a206275726e2066726f6d20746865207a65726f206164647265736044820152607360f81b606482015260840161090c565b6001600160a01b038216600090815260fb602052604090205481811015611fd35760405162461bcd60e51b815260206004820152602260248201527f45524332303a206275726e20616d6f756e7420657863656564732062616c616e604482015261636560f01b606482015260840161090c565b6001600160a01b038316600090815260fb60205260408120838303905560fd8054849290612002908490612c0b565b90915550610bf79050836000845b6001600160a01b03831661202a57611c31610105836121c7565b6001600160a01b0382166120515761204183611062565b610bf757611c31610105846121dc565b61205a83611062565b61206c5761206a610105846121dc565b505b611c31610105836121c7565b600082600001828154811061208f5761208f612ccc565b9060005260206000200154905092915050565b6120ac8282611167565b610ca4576120c4816001600160a01b031660146121f1565b6120cf8360206121f1565b6040516020016120e09291906129f8565b60408051601f198184030181529082905262461bcd60e51b825261090c91600401612a6d565b6001600160a01b0381163b6121735760405162461bcd60e51b815260206004820152602d60248201527f455243313936373a206e657720696d706c656d656e746174696f6e206973206e60448201526c1bdd08184818dbdb9d1c9858dd609a1b606482015260840161090c565b600080516020612d1983398151915280546001600160a01b0319166001600160a01b0392909216919091179055565b6121ab8361238d565b6000825111806121b85750805b15610bf757611c3183836123cd565b6000610bbd836001600160a01b0384166124c1565b6000610bbd836001600160a01b038416612510565b60606000612200836002612bec565b61220b906002612bb2565b67ffffffffffffffff81111561222357612223612ce2565b6040519080825280601f01601f19166020018201604052801561224d576020820181803683370190505b509050600360fc1b8160008151811061226857612268612ccc565b60200101906001600160f81b031916908160001a905350600f60fb1b8160018151811061229757612297612ccc565b60200101906001600160f81b031916908160001a90535060006122bb846002612bec565b6122c6906001612bb2565b90505b600181111561233e576f181899199a1a9b1b9c1cb0b131b232b360811b85600f16601081106122fa576122fa612ccc565b1a60f81b82828151811061231057612310612ccc565b60200101906001600160f81b031916908160001a90535060049490941c9361233781612c4e565b90506122c9565b508315610bbd5760405162461bcd60e51b815260206004820181905260248201527f537472696e67733a20686578206c656e67746820696e73756666696369656e74604482015260640161090c565b61239681612106565b6040516001600160a01b038216907fbc7cd75a20ee27fd9adebab32041f755214dbc6bffa90cc0225b39da2e5c2d3b90600090a250565b60606001600160a01b0383163b6124355760405162461bcd60e51b815260206004820152602660248201527f416464726573733a2064656c65676174652063616c6c20746f206e6f6e2d636f6044820152651b9d1c9858dd60d21b606482015260840161090c565b600080846001600160a01b03168460405161245091906129dc565b600060405180830381855af49150503d806000811461248b576040519150601f19603f3d011682016040523d82523d6000602084013e612490565b606091505b50915091506124b88282604051806060016040528060278152602001612d3960279139612603565b95945050505050565b60008181526001830160205260408120546125085750815460018181018455600084815260208082209093018490558454848252828601909352604090209190915561076f565b50600061076f565b600081815260018301602052604081205480156125f9576000612534600183612c0b565b855490915060009061254890600190612c0b565b90508181146125ad57600086600001828154811061256857612568612ccc565b906000526020600020015490508087600001848154811061258b5761258b612ccc565b6000918252602080832090910192909255918252600188019052604090208390555b85548690806125be576125be612cb6565b60019003818190600052602060002001600090559055856001016000868152602001908152602001600020600090556001935050505061076f565b600091505061076f565b60608315612612575081610bbd565b8251156126225782518084602001fd5b8160405162461bcd60e51b815260040161090c9190612a6d565b82805461264890612c65565b90600052602060002090601f01602090048101928261266a57600085556126b0565b82601f106126835782800160ff198235161785556126b0565b828001600101855582156126b0579182015b828111156126b0578235825591602001919060010190612695565b506126bc9291506126c0565b5090565b5b808211156126bc57600081556001016126c1565b80356001600160a01b03811681146126ec57600080fd5b919050565b60008083601f84011261270357600080fd5b50813567ffffffffffffffff81111561271b57600080fd5b60208301915083602082850101111561273357600080fd5b9250929050565b803560ff811681146126ec57600080fd5b60006020828403121561275d57600080fd5b610bbd826126d5565b6000806040838503121561277957600080fd5b612782836126d5565b9150612790602084016126d5565b90509250929050565b6000806000606084860312156127ae57600080fd5b6127b7846126d5565b92506127c5602085016126d5565b9150604084013590509250925092565b600080604083850312156127e857600080fd5b6127f1836126d5565b9150602083013567ffffffffffffffff8082111561280e57600080fd5b818501915085601f83011261282257600080fd5b81358181111561283457612834612ce2565b604051601f8201601f19908116603f0116810190838211818310171561285c5761285c612ce2565b8160405282815288602084870101111561287557600080fd5b8260208601602083013760006020848301015280955050505050509250929050565b600080604083850312156128aa57600080fd5b6128b3836126d5565b946020939093013593505050565b6000602082840312156128d357600080fd5b5035919050565b6000602082840312156128ec57600080fd5b5051919050565b6000806040838503121561290657600080fd5b82359150612790602084016126d5565b60006020828403121561292857600080fd5b81356001600160e01b031981168114610bbd57600080fd5b60008060008060006060868803121561295857600080fd5b853567ffffffffffffffff8082111561297057600080fd5b61297c89838a016126f1565b9097509550602088013591508082111561299557600080fd5b506129a2888289016126f1565b90945092506129b590506040870161273a565b90509295509295909350565b6000602082840312156129d357600080fd5b610bbd8261273a565b600082516129ee818460208701612c22565b9190910192915050565b7f416363657373436f6e74726f6c3a206163636f756e7420000000000000000000815260008351612a30816017850160208801612c22565b7001034b99036b4b9b9b4b733903937b6329607d1b6017918401918201528351612a61816028840160208801612c22565b01602801949350505050565b6020815260008251806020840152612a8c816040850160208701612c22565b601f01601f19169190910160400192915050565b6020808252601b908201527f43616c6c6572206973206e6f74207468652045584348414e4745520000000000604082015260600190565b6020808252602c908201527f46756e6374696f6e206d7573742062652063616c6c6564207468726f7567682060408201526b19195b1959d85d1958d85b1b60a21b606082015260800190565b6020808252602c908201527f46756e6374696f6e206d7573742062652063616c6c6564207468726f7567682060408201526b6163746976652070726f787960a01b606082015260800190565b60208082526023908201527f4572726f72732e4d4154485f4d554c5449504c49434154494f4e5f4f564552466040820152624c4f5760e81b606082015260800190565b60008219821115612bc557612bc5612ca0565b500190565b600082612be757634e487b7160e01b600052601260045260246000fd5b500490565b6000816000190483118215151615612c0657612c06612ca0565b500290565b600082821015612c1d57612c1d612ca0565b500390565b60005b83811015612c3d578181015183820152602001612c25565b83811115611c315750506000910152565b600081612c5d57612c5d612ca0565b506000190190565b600181811c90821680612c7957607f821691505b60208210811415612c9a57634e487b7160e01b600052602260045260246000fd5b50919050565b634e487b7160e01b600052601160045260246000fd5b634e487b7160e01b600052603160045260246000fd5b634e487b7160e01b600052603260045260246000fd5b634e487b7160e01b600052604160045260246000fdfe3eb675f159e6ca6cf5de6bfbbc8c4521cfd428f5e9166e51094d5898504caf2d360894a13ba1a3210667c828492db98dca3e2076cc3735a920a3ca505d382bbc416464726573733a206c6f772d6c6576656c2064656c65676174652063616c6c206661696c6564ddf252ad1be2c89b69c2b068fc378daa952ba7f163c4a11628f55a4df523b3efa26469706673582212208f774eef2993a45e345e4dd889d4c3b4c4c5300e7b1fd8b62178dcc0986b238464736f6c63430008060033",
  "implementation": "0x159f28F598b5C5340D6A902D34eB373D30499660",
  "devdoc": {
    "kind": "dev",
    "methods": {
      "allowance(address,address)": {
        "details": "See {IERC20-allowance}."
      },
      "approve(address,uint256)": {
        "details": "See {IERC20-approve}."
      },
      "balanceOf(address)": {
        "details": "Calculates the balance of the user: principal balance + interest generated by the principal",
        "params": {
          "user": "The user whose balance is calculated"
        },
        "returns": {
          "_0": "The balance of the user*"
        }
      },
      "constructor": {
        "custom:oz-upgrades-unsafe-allow": "constructor"
      },
      "decimals()": {
        "details": "Returns the number of decimals used to get its user representation. For example, if `decimals` equals `2`, a balance of `505` tokens should be displayed to a user as `5.05` (`505 / 10 ** 2`). Tokens usually opt for a value of 18, imitating the relationship between Ether and Wei. This is the value {ERC20} uses, unless this function is overridden; NOTE: This information is only used for _display_ purposes: it in no way affects any of the arithmetic of the contract, including {IERC20-balanceOf} and {IERC20-transfer}."
      },
      "decreaseAllowance(address,uint256)": {
        "details": "Atomically decreases the allowance granted to `spender` by the caller. This is an alternative to {approve} that can be used as a mitigation for problems described in {IERC20-approve}. Emits an {Approval} event indicating the updated allowance. Requirements: - `spender` cannot be the zero address. - `spender` must have allowance for the caller of at least `subtractedValue`."
      },
      "getRoleAdmin(bytes32)": {
        "details": "Returns the admin role that controls `role`. See {grantRole} and {revokeRole}. To change a role's admin, use {_setRoleAdmin}."
      },
      "grantRole(bytes32,address)": {
        "details": "Grants `role` to `account`. If `account` had not been already granted `role`, emits a {RoleGranted} event. Requirements: - the caller must have ``role``'s admin role. May emit a {RoleGranted} event."
      },
      "hasRole(bytes32,address)": {
        "details": "Returns `true` if `account` has been granted `role`."
      },
      "increaseAllowance(address,uint256)": {
        "details": "Atomically increases the allowance granted to `spender` by the caller. This is an alternative to {approve} that can be used as a mitigation for problems described in {IERC20-approve}. Emits an {Approval} event indicating the updated allowance. Requirements: - `spender` cannot be the zero address."
      },
      "name()": {
        "details": "Returns the name of the token."
      },
      "proxiableUUID()": {
        "details": "Implementation of the ERC1822 {proxiableUUID} function. This returns the storage slot used by the implementation. It is used to validate that the this implementation remains valid after an upgrade. IMPORTANT: A proxy pointing at a proxiable contract should not be considered proxiable itself, because this risks bricking a proxy that upgrades to it, by delegating to itself until out of gas. Thus it is critical that this function revert if invoked through a proxy. This is guaranteed by the `notDelegated` modifier."
      },
      "renounceRole(bytes32,address)": {
        "details": "Revokes `role` from the calling account. Roles are often managed via {grantRole} and {revokeRole}: this function's purpose is to provide a mechanism for accounts to lose their privileges if they are compromised (such as when a trusted device is misplaced). If the calling account had been revoked `role`, emits a {RoleRevoked} event. Requirements: - the caller must be `account`. May emit a {RoleRevoked} event."
      },
      "revokeRole(bytes32,address)": {
        "details": "Revokes `role` from `account`. If `account` had been granted `role`, emits a {RoleRevoked} event. Requirements: - the caller must have ``role``'s admin role. May emit a {RoleRevoked} event."
      },
      "scaledBalanceOf(address)": {
        "details": "Returns the scaled balance of the user. The scaled balance is the sum of all the updated stored balance divided by the reserve's liquidity index at the moment of the update",
        "params": {
          "user": "The user whose balance is calculated"
        },
        "returns": {
          "_0": "The scaled balance of the user*"
        }
      },
      "scaledTotalSupply()": {
        "details": "Returns the scaled total supply of the variable debt token",
        "returns": {
          "_0": "the scaled total supply*"
        }
      },
      "supportsInterface(bytes4)": {
        "details": "See {IERC165-supportsInterface}."
      },
      "symbol()": {
        "details": "Returns the symbol of the token, usually a shorter version of the name."
      },
      "totalSupply()": {
        "details": "calculates the total supply of the specific aToken since the balance of every single user increases over time, the total supply does that too.",
        "returns": {
          "_0": "the current total supply*"
        }
      },
      "transfer(address,uint256)": {
        "details": "See {IERC20-transfer}."
      },
      "upgradeTo(address)": {
        "details": "Upgrade the implementation of the proxy to `newImplementation`. Calls {_authorizeUpgrade}. Emits an {Upgraded} event."
      },
      "upgradeToAndCall(address,bytes)": {
        "details": "Upgrade the implementation of the proxy to `newImplementation`, and subsequently execute the function call encoded in `data`. Calls {_authorizeUpgrade}. Emits an {Upgraded} event."
      }
    },
    "version": 1
  },
  "userdoc": {
    "kind": "user",
    "methods": {
      "setDecimals(uint8)": {
        "notice": "Support method for old version tokens which not has field _decimals at deploy"
      }
    },
    "version": 1
  },
  "storageLayout": {
    "storage": [
      {
        "astId": 808,
        "contract": "contracts/UsdPlusToken.sol:UsdPlusToken",
        "label": "_initialized",
        "offset": 0,
        "slot": "0",
        "type": "t_uint8"
      },
      {
        "astId": 811,
        "contract": "contracts/UsdPlusToken.sol:UsdPlusToken",
        "label": "_initializing",
        "offset": 1,
        "slot": "0",
        "type": "t_bool"
      },
      {
        "astId": 2589,
        "contract": "contracts/UsdPlusToken.sol:UsdPlusToken",
        "label": "__gap",
        "offset": 0,
        "slot": "1",
        "type": "t_array(t_uint256)50_storage"
      },
      {
        "astId": 2919,
        "contract": "contracts/UsdPlusToken.sol:UsdPlusToken",
        "label": "__gap",
        "offset": 0,
        "slot": "51",
        "type": "t_array(t_uint256)50_storage"
      },
      {
        "astId": 39,
        "contract": "contracts/UsdPlusToken.sol:UsdPlusToken",
        "label": "_roles",
        "offset": 0,
        "slot": "101",
        "type": "t_mapping(t_bytes32,t_struct(RoleData)34_storage)"
      },
      {
        "astId": 338,
        "contract": "contracts/UsdPlusToken.sol:UsdPlusToken",
        "label": "__gap",
        "offset": 0,
        "slot": "102",
        "type": "t_array(t_uint256)49_storage"
      },
      {
        "astId": 790,
        "contract": "contracts/UsdPlusToken.sol:UsdPlusToken",
        "label": "__gap",
        "offset": 0,
        "slot": "151",
        "type": "t_array(t_uint256)50_storage"
      },
      {
        "astId": 1087,
        "contract": "contracts/UsdPlusToken.sol:UsdPlusToken",
        "label": "__gap",
        "offset": 0,
        "slot": "201",
        "type": "t_array(t_uint256)50_storage"
      },
      {
        "astId": 15398,
        "contract": "contracts/UsdPlusToken.sol:UsdPlusToken",
        "label": "_balances",
        "offset": 0,
        "slot": "251",
        "type": "t_mapping(t_address,t_uint256)"
      },
      {
        "astId": 15404,
        "contract": "contracts/UsdPlusToken.sol:UsdPlusToken",
        "label": "_allowances",
        "offset": 0,
        "slot": "252",
        "type": "t_mapping(t_address,t_mapping(t_address,t_uint256))"
      },
      {
        "astId": 15406,
        "contract": "contracts/UsdPlusToken.sol:UsdPlusToken",
        "label": "_totalSupply",
        "offset": 0,
        "slot": "253",
        "type": "t_uint256"
      },
      {
        "astId": 15408,
        "contract": "contracts/UsdPlusToken.sol:UsdPlusToken",
        "label": "_name",
        "offset": 0,
        "slot": "254",
        "type": "t_string_storage"
      },
      {
        "astId": 15410,
        "contract": "contracts/UsdPlusToken.sol:UsdPlusToken",
        "label": "_symbol",
        "offset": 0,
        "slot": "255",
        "type": "t_string_storage"
      },
      {
        "astId": 15422,
        "contract": "contracts/UsdPlusToken.sol:UsdPlusToken",
        "label": "_totalMint",
        "offset": 0,
        "slot": "256",
        "type": "t_uint256"
      },
      {
        "astId": 15424,
        "contract": "contracts/UsdPlusToken.sol:UsdPlusToken",
        "label": "_totalBurn",
        "offset": 0,
        "slot": "257",
        "type": "t_uint256"
      },
      {
        "astId": 15426,
        "contract": "contracts/UsdPlusToken.sol:UsdPlusToken",
        "label": "liquidityIndexChangeTime",
        "offset": 0,
        "slot": "258",
        "type": "t_uint256"
      },
      {
        "astId": 15428,
        "contract": "contracts/UsdPlusToken.sol:UsdPlusToken",
        "label": "liquidityIndex",
        "offset": 0,
        "slot": "259",
        "type": "t_uint256"
      },
      {
        "astId": 15430,
        "contract": "contracts/UsdPlusToken.sol:UsdPlusToken",
        "label": "liquidityIndexDenominator",
        "offset": 0,
        "slot": "260",
        "type": "t_uint256"
      },
      {
        "astId": 15433,
        "contract": "contracts/UsdPlusToken.sol:UsdPlusToken",
        "label": "_owners",
        "offset": 0,
        "slot": "261",
        "type": "t_struct(AddressSet)4493_storage"
      },
      {
        "astId": 15437,
        "contract": "contracts/UsdPlusToken.sol:UsdPlusToken",
        "label": "__gap",
        "offset": 0,
        "slot": "263",
        "type": "t_array(t_uint256)50_storage"
      },
      {
        "astId": 15439,
        "contract": "contracts/UsdPlusToken.sol:UsdPlusToken",
        "label": "exchange",
        "offset": 0,
        "slot": "313",
        "type": "t_address"
      },
      {
        "astId": 15441,
        "contract": "contracts/UsdPlusToken.sol:UsdPlusToken",
        "label": "_decimals",
        "offset": 20,
        "slot": "313",
        "type": "t_uint8"
      }
    ],
    "types": {
      "t_address": {
        "encoding": "inplace",
        "label": "address",
        "numberOfBytes": "20"
      },
      "t_array(t_bytes32)dyn_storage": {
        "base": "t_bytes32",
        "encoding": "dynamic_array",
        "label": "bytes32[]",
        "numberOfBytes": "32"
      },
      "t_array(t_uint256)49_storage": {
        "base": "t_uint256",
        "encoding": "inplace",
        "label": "uint256[49]",
        "numberOfBytes": "1568"
      },
      "t_array(t_uint256)50_storage": {
        "base": "t_uint256",
        "encoding": "inplace",
        "label": "uint256[50]",
        "numberOfBytes": "1600"
      },
      "t_bool": {
        "encoding": "inplace",
        "label": "bool",
        "numberOfBytes": "1"
      },
      "t_bytes32": {
        "encoding": "inplace",
        "label": "bytes32",
        "numberOfBytes": "32"
      },
      "t_mapping(t_address,t_bool)": {
        "encoding": "mapping",
        "key": "t_address",
        "label": "mapping(address => bool)",
        "numberOfBytes": "32",
        "value": "t_bool"
      },
      "t_mapping(t_address,t_mapping(t_address,t_uint256))": {
        "encoding": "mapping",
        "key": "t_address",
        "label": "mapping(address => mapping(address => uint256))",
        "numberOfBytes": "32",
        "value": "t_mapping(t_address,t_uint256)"
      },
      "t_mapping(t_address,t_uint256)": {
        "encoding": "mapping",
        "key": "t_address",
        "label": "mapping(address => uint256)",
        "numberOfBytes": "32",
        "value": "t_uint256"
      },
      "t_mapping(t_bytes32,t_struct(RoleData)34_storage)": {
        "encoding": "mapping",
        "key": "t_bytes32",
        "label": "mapping(bytes32 => struct AccessControlUpgradeable.RoleData)",
        "numberOfBytes": "32",
        "value": "t_struct(RoleData)34_storage"
      },
      "t_mapping(t_bytes32,t_uint256)": {
        "encoding": "mapping",
        "key": "t_bytes32",
        "label": "mapping(bytes32 => uint256)",
        "numberOfBytes": "32",
        "value": "t_uint256"
      },
      "t_string_storage": {
        "encoding": "bytes",
        "label": "string",
        "numberOfBytes": "32"
      },
      "t_struct(AddressSet)4493_storage": {
        "encoding": "inplace",
        "label": "struct EnumerableSet.AddressSet",
        "members": [
          {
            "astId": 4492,
            "contract": "contracts/UsdPlusToken.sol:UsdPlusToken",
            "label": "_inner",
            "offset": 0,
            "slot": "0",
            "type": "t_struct(Set)4192_storage"
          }
        ],
        "numberOfBytes": "64"
      },
      "t_struct(RoleData)34_storage": {
        "encoding": "inplace",
        "label": "struct AccessControlUpgradeable.RoleData",
        "members": [
          {
            "astId": 31,
            "contract": "contracts/UsdPlusToken.sol:UsdPlusToken",
            "label": "members",
            "offset": 0,
            "slot": "0",
            "type": "t_mapping(t_address,t_bool)"
          },
          {
            "astId": 33,
            "contract": "contracts/UsdPlusToken.sol:UsdPlusToken",
            "label": "adminRole",
            "offset": 0,
            "slot": "1",
            "type": "t_bytes32"
          }
        ],
        "numberOfBytes": "64"
      },
      "t_struct(Set)4192_storage": {
        "encoding": "inplace",
        "label": "struct EnumerableSet.Set",
        "members": [
          {
            "astId": 4187,
            "contract": "contracts/UsdPlusToken.sol:UsdPlusToken",
            "label": "_values",
            "offset": 0,
            "slot": "0",
            "type": "t_array(t_bytes32)dyn_storage"
          },
          {
            "astId": 4191,
            "contract": "contracts/UsdPlusToken.sol:UsdPlusToken",
            "label": "_indexes",
            "offset": 0,
            "slot": "1",
            "type": "t_mapping(t_bytes32,t_uint256)"
          }
        ],
        "numberOfBytes": "64"
      },
      "t_uint256": {
        "encoding": "inplace",
        "label": "uint256",
        "numberOfBytes": "32"
      },
      "t_uint8": {
        "encoding": "inplace",
        "label": "uint8",
        "numberOfBytes": "1"
      }
    }
  }
}