{
  "address": "0xd05c15AA8D3E8AEb9833826AbC6C5C591C762D9d",
  "abi": [
    {
      "inputs": [],
      "stateMutability": "nonpayable",
      "type": "constructor"
    },
    {
      "anonymous": false,
      "inputs": [
        {
          "indexed": false,
          "internalType": "address",
          "name": "previousAdmin",
          "type": "address"
        },
        {
          "indexed": false,
          "internalType": "address",
          "name": "newAdmin",
          "type": "address"
        }
      ],
      "name": "AdminChanged",
      "type": "event"
    },
    {
      "anonymous": false,
      "inputs": [
        {
          "indexed": true,
          "internalType": "address",
          "name": "beacon",
          "type": "address"
        }
      ],
      "name": "BeaconUpgraded",
      "type": "event"
    },
    {
      "anonymous": false,
      "inputs": [
        {
          "indexed": false,
          "internalType": "uint8",
          "name": "version",
          "type": "uint8"
        }
      ],
      "name": "Initialized",
      "type": "event"
    },
    {
      "anonymous": false,
      "inputs": [
        {
          "indexed": false,
          "internalType": "address",
          "name": "value",
          "type": "address"
        }
      ],
      "name": "PortfolioManagerUpdated",
      "type": "event"
    },
    {
      "anonymous": false,
      "inputs": [
        {
          "indexed": false,
          "internalType": "uint256",
          "name": "amount",
          "type": "uint256"
        }
      ],
      "name": "Reward",
      "type": "event"
    },
    {
      "anonymous": false,
      "inputs": [
        {
          "indexed": true,
          "internalType": "bytes32",
          "name": "role",
          "type": "bytes32"
        },
        {
          "indexed": true,
          "internalType": "bytes32",
          "name": "previousAdminRole",
          "type": "bytes32"
        },
        {
          "indexed": true,
          "internalType": "bytes32",
          "name": "newAdminRole",
          "type": "bytes32"
        }
      ],
      "name": "RoleAdminChanged",
      "type": "event"
    },
    {
      "anonymous": false,
      "inputs": [
        {
          "indexed": true,
          "internalType": "bytes32",
          "name": "role",
          "type": "bytes32"
        },
        {
          "indexed": true,
          "internalType": "address",
          "name": "account",
          "type": "address"
        },
        {
          "indexed": true,
          "internalType": "address",
          "name": "sender",
          "type": "address"
        }
      ],
      "name": "RoleGranted",
      "type": "event"
    },
    {
      "anonymous": false,
      "inputs": [
        {
          "indexed": true,
          "internalType": "bytes32",
          "name": "role",
          "type": "bytes32"
        },
        {
          "indexed": true,
          "internalType": "address",
          "name": "account",
          "type": "address"
        },
        {
          "indexed": true,
          "internalType": "address",
          "name": "sender",
          "type": "address"
        }
      ],
      "name": "RoleRevoked",
      "type": "event"
    },
    {
      "anonymous": false,
      "inputs": [
        {
          "indexed": false,
          "internalType": "uint256",
          "name": "swapSlippageBP",
          "type": "uint256"
        },
        {
          "indexed": false,
          "internalType": "uint256",
          "name": "navSlippageBP",
          "type": "uint256"
        },
        {
          "indexed": false,
          "internalType": "uint256",
          "name": "stakeSlippageBP",
          "type": "uint256"
        }
      ],
      "name": "SlippagesUpdated",
      "type": "event"
    },
    {
      "anonymous": false,
      "inputs": [
        {
          "indexed": false,
          "internalType": "uint256",
          "name": "amount",
          "type": "uint256"
        }
      ],
      "name": "Stake",
      "type": "event"
    },
    {
      "anonymous": false,
      "inputs": [],
      "name": "StrategyUpdatedParams",
      "type": "event"
    },
    {
      "anonymous": false,
      "inputs": [
        {
          "indexed": false,
          "internalType": "uint256",
          "name": "amount",
          "type": "uint256"
        },
        {
          "indexed": false,
          "internalType": "uint256",
          "name": "amountReceived",
          "type": "uint256"
        }
      ],
      "name": "Unstake",
      "type": "event"
    },
    {
      "anonymous": false,
      "inputs": [
        {
          "indexed": true,
          "internalType": "address",
          "name": "implementation",
          "type": "address"
        }
      ],
      "name": "Upgraded",
      "type": "event"
    },
    {
      "inputs": [],
      "name": "DEFAULT_ADMIN_ROLE",
      "outputs": [
        {
          "internalType": "bytes32",
          "name": "",
          "type": "bytes32"
        }
      ],
      "stateMutability": "view",
      "type": "function"
    },
    {
      "inputs": [],
      "name": "PORTFOLIO_AGENT_ROLE",
      "outputs": [
        {
          "internalType": "bytes32",
          "name": "",
          "type": "bytes32"
        }
      ],
      "stateMutability": "view",
      "type": "function"
    },
    {
      "inputs": [],
      "name": "PORTFOLIO_MANAGER",
      "outputs": [
        {
          "internalType": "bytes32",
          "name": "",
          "type": "bytes32"
        }
      ],
      "stateMutability": "view",
      "type": "function"
    },
    {
      "inputs": [
        {
          "internalType": "address",
          "name": "_to",
          "type": "address"
        }
      ],
      "name": "claimRewards",
      "outputs": [
        {
          "internalType": "uint256",
          "name": "",
          "type": "uint256"
        }
      ],
      "stateMutability": "nonpayable",
      "type": "function"
    },
    {
      "inputs": [],
      "name": "dai",
      "outputs": [
        {
          "internalType": "contract IERC20",
          "name": "",
          "type": "address"
        }
      ],
      "stateMutability": "view",
      "type": "function"
    },
    {
      "inputs": [],
      "name": "daiDm",
      "outputs": [
        {
          "internalType": "uint256",
          "name": "",
          "type": "uint256"
        }
      ],
      "stateMutability": "view",
      "type": "function"
    },
    {
      "inputs": [],
      "name": "exchange",
      "outputs": [
        {
          "internalType": "contract IExchange",
          "name": "",
          "type": "address"
        }
      ],
      "stateMutability": "view",
      "type": "function"
    },
    {
      "inputs": [
        {
          "internalType": "bytes32",
          "name": "role",
          "type": "bytes32"
        }
      ],
      "name": "getRoleAdmin",
      "outputs": [
        {
          "internalType": "bytes32",
          "name": "",
          "type": "bytes32"
        }
      ],
      "stateMutability": "view",
      "type": "function"
    },
    {
      "inputs": [],
      "name": "gmxRouter",
      "outputs": [
        {
          "internalType": "contract IRouter",
          "name": "",
          "type": "address"
        }
      ],
      "stateMutability": "view",
      "type": "function"
    },
    {
      "inputs": [
        {
          "internalType": "bytes32",
          "name": "role",
          "type": "bytes32"
        },
        {
          "internalType": "address",
          "name": "account",
          "type": "address"
        }
      ],
      "name": "grantRole",
      "outputs": [],
      "stateMutability": "nonpayable",
      "type": "function"
    },
    {
      "inputs": [
        {
          "internalType": "bytes32",
          "name": "role",
          "type": "bytes32"
        },
        {
          "internalType": "address",
          "name": "account",
          "type": "address"
        }
      ],
      "name": "hasRole",
      "outputs": [
        {
          "internalType": "bool",
          "name": "",
          "type": "bool"
        }
      ],
      "stateMutability": "view",
      "type": "function"
    },
    {
      "inputs": [],
      "name": "initialize",
      "outputs": [],
      "stateMutability": "nonpayable",
      "type": "function"
    },
    {
      "inputs": [],
      "name": "liquidationValue",
      "outputs": [
        {
          "internalType": "uint256",
          "name": "",
          "type": "uint256"
        }
      ],
      "stateMutability": "view",
      "type": "function"
    },
    {
      "inputs": [],
      "name": "navSlippageBP",
      "outputs": [
        {
          "internalType": "uint256",
          "name": "",
          "type": "uint256"
        }
      ],
      "stateMutability": "view",
      "type": "function"
    },
    {
      "inputs": [],
      "name": "netAssetValue",
      "outputs": [
        {
          "internalType": "uint256",
          "name": "",
          "type": "uint256"
        }
      ],
      "stateMutability": "view",
      "type": "function"
    },
    {
      "inputs": [],
      "name": "oracleDai",
      "outputs": [
        {
          "internalType": "contract IPriceFeed",
          "name": "",
          "type": "address"
        }
      ],
      "stateMutability": "view",
      "type": "function"
    },
    {
      "inputs": [],
      "name": "oracleUsdc",
      "outputs": [
        {
          "internalType": "contract IPriceFeed",
          "name": "",
          "type": "address"
        }
      ],
      "stateMutability": "view",
      "type": "function"
    },
    {
      "inputs": [],
      "name": "portfolioManager",
      "outputs": [
        {
          "internalType": "address",
          "name": "",
          "type": "address"
        }
      ],
      "stateMutability": "view",
      "type": "function"
    },
    {
      "inputs": [],
      "name": "proxiableUUID",
      "outputs": [
        {
          "internalType": "bytes32",
          "name": "",
          "type": "bytes32"
        }
      ],
      "stateMutability": "view",
      "type": "function"
    },
    {
      "inputs": [
        {
          "internalType": "bytes32",
          "name": "role",
          "type": "bytes32"
        },
        {
          "internalType": "address",
          "name": "account",
          "type": "address"
        }
      ],
      "name": "renounceRole",
      "outputs": [],
      "stateMutability": "nonpayable",
      "type": "function"
    },
    {
      "inputs": [
        {
          "internalType": "bytes32",
          "name": "role",
          "type": "bytes32"
        },
        {
          "internalType": "address",
          "name": "account",
          "type": "address"
        }
      ],
      "name": "revokeRole",
      "outputs": [],
      "stateMutability": "nonpayable",
      "type": "function"
    },
    {
      "inputs": [
        {
          "components": [
            {
              "internalType": "address",
              "name": "usdc",
              "type": "address"
            },
            {
              "internalType": "address",
              "name": "dai",
              "type": "address"
            },
            {
              "internalType": "address",
              "name": "usdPlus",
              "type": "address"
            },
            {
              "internalType": "address",
              "name": "exchange",
              "type": "address"
            },
            {
              "internalType": "address",
              "name": "oracleDai",
              "type": "address"
            },
            {
              "internalType": "address",
              "name": "oracleUsdc",
              "type": "address"
            },
            {
              "internalType": "address",
              "name": "gmxRouter",
              "type": "address"
            },
            {
              "internalType": "address",
              "name": "zyberPool",
              "type": "address"
            }
          ],
          "internalType": "struct StrategyUsdPlusDai.StrategyParams",
          "name": "params",
          "type": "tuple"
        }
      ],
      "name": "setParams",
      "outputs": [],
      "stateMutability": "nonpayable",
      "type": "function"
    },
    {
      "inputs": [
        {
          "internalType": "address",
          "name": "_value",
          "type": "address"
        }
      ],
      "name": "setPortfolioManager",
      "outputs": [],
      "stateMutability": "nonpayable",
      "type": "function"
    },
    {
      "inputs": [
        {
          "internalType": "uint256",
          "name": "_swapSlippageBP",
          "type": "uint256"
        },
        {
          "internalType": "uint256",
          "name": "_navSlippageBP",
          "type": "uint256"
        },
        {
          "internalType": "uint256",
          "name": "_stakeSlippageBP",
          "type": "uint256"
        }
      ],
      "name": "setSlippages",
      "outputs": [],
      "stateMutability": "nonpayable",
      "type": "function"
    },
    {
      "inputs": [
        {
          "internalType": "address",
          "name": "_asset",
          "type": "address"
        },
        {
          "internalType": "uint256",
          "name": "_amount",
          "type": "uint256"
        }
      ],
      "name": "stake",
      "outputs": [],
      "stateMutability": "nonpayable",
      "type": "function"
    },
    {
      "inputs": [],
      "name": "stakeSlippageBP",
      "outputs": [
        {
          "internalType": "uint256",
          "name": "",
          "type": "uint256"
        }
      ],
      "stateMutability": "view",
      "type": "function"
    },
    {
      "inputs": [
        {
          "internalType": "bytes4",
          "name": "interfaceId",
          "type": "bytes4"
        }
      ],
      "name": "supportsInterface",
      "outputs": [
        {
          "internalType": "bool",
          "name": "",
          "type": "bool"
        }
      ],
      "stateMutability": "view",
      "type": "function"
    },
    {
      "inputs": [],
      "name": "swapSlippageBP",
      "outputs": [
        {
          "internalType": "uint256",
          "name": "",
          "type": "uint256"
        }
      ],
      "stateMutability": "view",
      "type": "function"
    },
    {
      "inputs": [
        {
          "internalType": "address",
          "name": "_asset",
          "type": "address"
        },
        {
          "internalType": "uint256",
          "name": "_amount",
          "type": "uint256"
        },
        {
          "internalType": "address",
          "name": "_beneficiary",
          "type": "address"
        },
        {
          "internalType": "bool",
          "name": "_targetIsZero",
          "type": "bool"
        }
      ],
      "name": "unstake",
      "outputs": [
        {
          "internalType": "uint256",
          "name": "",
          "type": "uint256"
        }
      ],
      "stateMutability": "nonpayable",
      "type": "function"
    },
    {
      "inputs": [
        {
          "internalType": "address",
          "name": "newImplementation",
          "type": "address"
        }
      ],
      "name": "upgradeTo",
      "outputs": [],
      "stateMutability": "nonpayable",
      "type": "function"
    },
    {
      "inputs": [
        {
          "internalType": "address",
          "name": "newImplementation",
          "type": "address"
        },
        {
          "internalType": "bytes",
          "name": "data",
          "type": "bytes"
        }
      ],
      "name": "upgradeToAndCall",
      "outputs": [],
      "stateMutability": "payable",
      "type": "function"
    },
    {
      "inputs": [],
      "name": "usdPlus",
      "outputs": [
        {
          "internalType": "contract IUsdPlusToken",
          "name": "",
          "type": "address"
        }
      ],
      "stateMutability": "view",
      "type": "function"
    },
    {
      "inputs": [],
      "name": "usdc",
      "outputs": [
        {
          "internalType": "contract IERC20",
          "name": "",
          "type": "address"
        }
      ],
      "stateMutability": "view",
      "type": "function"
    },
    {
      "inputs": [],
      "name": "usdcDm",
      "outputs": [
        {
          "internalType": "uint256",
          "name": "",
          "type": "uint256"
        }
      ],
      "stateMutability": "view",
      "type": "function"
    },
    {
      "inputs": [],
      "name": "zyberPool",
      "outputs": [
        {
          "internalType": "contract IZyberSwap",
          "name": "",
          "type": "address"
        }
      ],
      "stateMutability": "view",
      "type": "function"
    }
  ],
  "numDeployments": 2,
  "solcInputHash": "2cfd20da21ea54bd7adabe5675af6aa3",
  "bytecode": "0x60a06040523060601b6080523480156200001857600080fd5b50600054610100900460ff16158080156200003a5750600054600160ff909116105b806200006a575062000057306200014460201b620017691760201c565b1580156200006a575060005460ff166001145b620000d25760405162461bcd60e51b815260206004820152602e60248201527f496e697469616c697a61626c653a20636f6e747261637420697320616c72656160448201526d191e481a5b9a5d1a585b1a5e995960921b606482015260840160405180910390fd5b6000805460ff191660011790558015620000f6576000805461ff0019166101001790555b80156200013d576000805461ff0019169055604051600181527f7f26b83ff96e1f2b6a682f133852f6798a09c465da95921460cefb38474024989060200160405180910390a15b5062000153565b6001600160a01b03163b151590565b60805160601c6133a36200018e6000396000818161087d015281816108bd0152818161095d0152818161099d0152610a2c01526133a36000f3fe6080604052600436106102045760003560e01c8063620b75df11610118578063adc9772e116100a0578063d2f7265a1161006f578063d2f7265a146105be578063d547741f146105df578063ef5cfb8c146105ff578063f4b9fa751461061f578063f6f6b8811461064057600080fd5b8063adc9772e14610547578063ae30c11014610567578063be44ad1e14610587578063bf52e080146105a857600080fd5b80638129fc1c116100e75780638129fc1c146104c857806391d14854146104dd578063a217fddf146104fd578063a3673b3814610512578063a440b21a1461052757600080fd5b8063620b75df1461044e578063634e31801461046e5780637d5f58021461048f578063811766fa146104b157600080fd5b80633e413bee1161019b578063561f07731161016a578063561f0773146103a25780635ca558f8146103c25780635dbd733a146103d85780635f07c5f31461040c5780635fea9cbb1461042d57600080fd5b80633e413bee146103205780634f1ef28614610359578063514e460a1461036c57806352d1902d1461038d57600080fd5b80632576e65a116101d75780632576e65a146102a95780632f2ff15d146102be57806336568abe146102e05780633659cfe61461030057600080fd5b806301ffc9a714610209578063119cd8791461023e5780631b1e7ddc14610262578063248a9ca314610279575b600080fd5b34801561021557600080fd5b50610229610224366004612e0f565b610660565b60405190151581526020015b60405180910390f35b34801561024a57600080fd5b5061025460fd5481565b604051908152602001610235565b34801561026e57600080fd5b506102546101305481565b34801561028557600080fd5b50610254610294366004612db1565b60009081526065602052604090206001015490565b3480156102b557600080fd5b50610254610697565b3480156102ca57600080fd5b506102de6102d9366004612de3565b6107c5565b005b3480156102ec57600080fd5b506102de6102fb366004612de3565b6107ef565b34801561030c57600080fd5b506102de61031b366004612c3e565b610872565b34801561032c57600080fd5b5061012e54610341906001600160a01b031681565b6040516001600160a01b039091168152602001610235565b6102de610367366004612c59565b610952565b34801561037857600080fd5b5061013154610341906001600160a01b031681565b34801561039957600080fd5b50610254610a1f565b3480156103ae57600080fd5b506102de6103bd366004612e39565b610ad2565b3480156103ce57600080fd5b5061025460fe5481565b3480156103e457600080fd5b506102547fd67ad422505496469a1adf6cdf9e5ee92ac5d33992843c9ecc4b2f6d6cde913781565b34801561041857600080fd5b5061013354610341906001600160a01b031681565b34801561043957600080fd5b5061013454610341906001600160a01b031681565b34801561045a57600080fd5b5060fb54610341906001600160a01b031681565b34801561047a57600080fd5b5061013554610341906001600160a01b031681565b34801561049b57600080fd5b5061025460008051602061330783398151915281565b3480156104bd57600080fd5b5061025461012f5481565b3480156104d457600080fd5b506102de610ded565b3480156104e957600080fd5b506102296104f8366004612de3565b610eb7565b34801561050957600080fd5b50610254600081565b34801561051e57600080fd5b50610254610ee2565b34801561053357600080fd5b506102de610542366004612c3e565b610f6e565b34801561055357600080fd5b506102de610562366004612d1b565b61109d565b34801561057357600080fd5b506102de610582366004612e52565b6112cd565b34801561059357600080fd5b5061013654610341906001600160a01b031681565b3480156105b457600080fd5b5061025460fc5481565b3480156105ca57600080fd5b5061013254610341906001600160a01b031681565b3480156105eb57600080fd5b506102de6105fa366004612de3565b611442565b34801561060b57600080fd5b5061025461061a366004612c3e565b611467565b34801561062b57600080fd5b5061012d54610341906001600160a01b031681565b34801561064c57600080fd5b5061025461065b366004612d45565b6114a6565b60006001600160e01b03198216637965db0b60e01b148061069157506301ffc9a760e01b6001600160e01b03198316145b92915050565b610131546040516370a0823160e01b815230600482015260009182916001600160a01b03909116906370a082319060240160206040518083038186803b1580156106e057600080fd5b505afa1580156106f4573d6000803e3d6000fd5b505050506040513d601f19601f820116820180604052508101906107189190612dca565b905061073961072682611778565b60fc54610734906004613115565b6117cc565b61012d546040516370a0823160e01b81523060048201526001600160a01b03909116906370a082319060240160206040518083038186803b15801561077d57600080fd5b505afa158015610791573d6000803e3d6000fd5b505050506040513d601f19601f820116820180604052508101906107b59190612dca565b6107bf9190613115565b91505090565b6000828152606560205260409020600101546107e0816117f6565b6107ea8383611800565b505050565b6001600160a01b03811633146108645760405162461bcd60e51b815260206004820152602f60248201527f416363657373436f6e74726f6c3a2063616e206f6e6c792072656e6f756e636560448201526e103937b632b9903337b91039b2b63360891b60648201526084015b60405180910390fd5b61086e8282611886565b5050565b306001600160a01b037f00000000000000000000000000000000000000000000000000000000000000001614156108bb5760405162461bcd60e51b815260040161085b90612ff8565b7f00000000000000000000000000000000000000000000000000000000000000006001600160a01b0316610904600080516020613327833981519152546001600160a01b031690565b6001600160a01b03161461092a5760405162461bcd60e51b815260040161085b90613044565b610933816118ed565b6040805160008082526020820190925261094f918391906118f8565b50565b306001600160a01b037f000000000000000000000000000000000000000000000000000000000000000016141561099b5760405162461bcd60e51b815260040161085b90612ff8565b7f00000000000000000000000000000000000000000000000000000000000000006001600160a01b03166109e4600080516020613327833981519152546001600160a01b031690565b6001600160a01b031614610a0a5760405162461bcd60e51b815260040161085b90613044565b610a13826118ed565b61086e828260016118f8565b6000306001600160a01b037f00000000000000000000000000000000000000000000000000000000000000001614610abf5760405162461bcd60e51b815260206004820152603860248201527f555550535570677261646561626c653a206d757374206e6f742062652063616c60448201527f6c6564207468726f7567682064656c656761746563616c6c0000000000000000606482015260840161085b565b5060008051602061332783398151915290565b610add600033610eb7565b610b205760405162461bcd60e51b81526020600482015260146024820152735265737472696374656420746f2061646d696e7360601b604482015260640161085b565b610b306040820160208301612c3e565b61012d80546001600160a01b0319166001600160a01b0392909216919091179055610b5e6020820182612c3e565b61012e80546001600160a01b0319166001600160a01b0392909216919091179055610b8f6060820160408301612c3e565b61013180546001600160a01b0319166001600160a01b0392909216919091179055610bc06080820160608301612c3e565b61013280546001600160a01b0319166001600160a01b0392909216919091179055610bf160a0820160808301612c3e565b61013380546001600160a01b0319166001600160a01b0392909216919091179055610c2260c0820160a08301612c3e565b61013480546001600160a01b0319166001600160a01b0392909216919091179055610c5360e0820160c08301612c3e565b61013580546001600160a01b0319166001600160a01b0392909216919091179055610c85610100820160e08301612c3e565b61013680546001600160a01b0319166001600160a01b0392909216919091179055610cb66040820160208301612c3e565b6001600160a01b031663313ce5676040518163ffffffff1660e01b815260040160206040518083038186803b158015610cee57600080fd5b505afa158015610d02573d6000803e3d6000fd5b505050506040513d601f19601f82011682018060405250810190610d269190612ece565b610d3190600a613192565b61012f55610d426020820182612c3e565b6001600160a01b031663313ce5676040518163ffffffff1660e01b815260040160206040518083038186803b158015610d7a57600080fd5b505afa158015610d8e573d6000803e3d6000fd5b505050506040513d601f19601f82011682018060405250810190610db29190612ece565b610dbd90600a613192565b610130556040517fea5646eb3528e525944447a4a97de700dd472298626e5c0481d1c82c3da86ea590600090a150565b600054610100900460ff1615808015610e0d5750600054600160ff909116105b80610e275750303b158015610e27575060005460ff166001145b610e435760405162461bcd60e51b815260040161085b90613090565b6000805460ff191660011790558015610e66576000805461ff0019166101001790555b610e6e611a72565b801561094f576000805461ff0019169055604051600181527f7f26b83ff96e1f2b6a682f133852f6798a09c465da95921460cefb3847402498906020015b60405180910390a150565b60009182526065602090815260408084206001600160a01b0393909316845291905290205460ff1690565b610131546040516370a0823160e01b815230600482015260009182916001600160a01b03909116906370a082319060240160206040518083038186803b158015610f2b57600080fd5b505afa158015610f3f573d6000803e3d6000fd5b505050506040513d601f19601f82011682018060405250810190610f639190612dca565b905061073981611778565b610f79600033610eb7565b610fbc5760405162461bcd60e51b81526020600482015260146024820152735265737472696374656420746f2061646d696e7360601b604482015260640161085b565b6001600160a01b0381166110125760405162461bcd60e51b815260206004820152601860248201527f5a65726f2061646472657373206e6f7420616c6c6f7765640000000000000000604482015260640161085b565b60fb5461103790600080516020613307833981519152906001600160a01b0316611442565b61104f600080516020613307833981519152826107c5565b60fb80546001600160a01b0319166001600160a01b0383169081179091556040519081527ff7b449fcd5cfb7379dcd34cb69428dd9f882033b15be33d83b42d91daa28eeb790602001610eac565b6110b560008051602061330783398151915233610eb7565b6110d15760405162461bcd60e51b815260040161085b90612fc1565b600061114f306001600160a01b031663a3673b386040518163ffffffff1660e01b815260040160206040518083038186803b15801561110f57600080fd5b505afa158015611123573d6000803e3d6000fd5b505050506040513d601f19601f820116820180604052508101906111479190612dca565b60fd546117cc565b6040516370a0823160e01b81523060048201529091506111d49084906001600160a01b038216906370a082319060240160206040518083038186803b15801561119757600080fd5b505afa1580156111ab573d6000803e3d6000fd5b505050506040513d601f19601f820116820180604052508101906111cf9190612dca565b611b57565b80306001600160a01b031663a3673b386040518163ffffffff1660e01b815260040160206040518083038186803b15801561120e57600080fd5b505afa158015611222573d6000803e3d6000fd5b505050506040513d601f19601f820116820180604052508101906112469190612dca565b10156112945760405162461bcd60e51b815260206004820152601f60248201527f5374726174656779204e4156206c657373207468616e20657870656374656400604482015260640161085b565b6040518281527f227a473b70d2f893cc7659219575c030a63b5743024fe1e0c1a680e708b1525a906020015b60405180910390a1505050565b6112f77fd67ad422505496469a1adf6cdf9e5ee92ac5d33992843c9ecc4b2f6d6cde913733610eb7565b8061139e575060fb54604051632474521560e21b81527fd67ad422505496469a1adf6cdf9e5ee92ac5d33992843c9ecc4b2f6d6cde913760048201523360248201526001600160a01b03909116906391d148549060440160206040518083038186803b15801561136657600080fd5b505afa15801561137a573d6000803e3d6000fd5b505050506040513d601f19601f8201168201806040525081019061139e9190612d94565b6113f55760405162461bcd60e51b815260206004820152602260248201527f5265737472696374656420746f20504f5254464f4c494f5f4147454e545f524f6044820152614c4560f01b606482015260840161085b565b60fc83905560fd82905560fe81905560408051848152602081018490529081018290527f116fbf1e97a2be629ad98abfb6c332733c8996c2dfb174dd2efe8440df381d1a906060016112c0565b60008281526065602052604090206001015461145d816117f6565b6107ea8383611886565b600061148160008051602061330783398151915233610eb7565b61149d5760405162461bcd60e51b815260040161085b90612fc1565b5060005b919050565b60006114c060008051602061330783398151915233610eb7565b6114dc5760405162461bcd60e51b815260040161085b90612fc1565b600061151a306001600160a01b031663a3673b386040518163ffffffff1660e01b815260040160206040518083038186803b15801561110f57600080fd5b90506000808415611539575060006115328887611ed3565b91506115a8565b61154488888861222b565b9150868210156115a85760405162461bcd60e51b815260206004820152602960248201527f52657475726e65642076616c7565206c657373207468616e2072657175657374604482015268195908185b5bdd5b9d60ba1b606482015260840161085b565b82306001600160a01b031663a3673b386040518163ffffffff1660e01b815260040160206040518083038186803b1580156115e257600080fd5b505afa1580156115f6573d6000803e3d6000fd5b505050506040513d601f19601f8201168201806040525081019061161a9190612dca565b10156116685760405162461bcd60e51b815260206004820152601f60248201527f5374726174656779204e4156206c657373207468616e20657870656374656400604482015260640161085b565b60405163a9059cbb60e01b81526001600160a01b0387811660048301526024820184905289169063a9059cbb90604401602060405180830381600087803b1580156116b257600080fd5b505af11580156116c6573d6000803e3d6000fd5b505050506040513d601f19601f820116820180604052508101906116ea9190612d94565b5060408051888152602081018490527f9045c2ac9b2026de8075f2701bbdde882cd5e830b3b1ead9a15b22f2b5b93742910160405180910390a1801561175e576040518181527f3ac0594a85a20354f9dc74f33728416d19ce00d04a406c108cc2dcf2cecea1349060200160405180910390a15b509695505050505050565b6001600160a01b03163b151590565b610133546000908190611793906001600160a01b03166125b6565b610134549091506000906117af906001600160a01b03166125b6565b90506117c4846101305461012f5484866126da565b949350505050565b60006127106117db838261325c565b6117e5908561323d565b6117ef919061312d565b9392505050565b61094f8133612705565b61180a8282610eb7565b61086e5760008281526065602090815260408083206001600160a01b03851684529091529020805460ff191660011790556118423390565b6001600160a01b0316816001600160a01b0316837f2f8788117e7eff1d82e926ec794901d17c78024a50270940304540a733656f0d60405160405180910390a45050565b6118908282610eb7565b1561086e5760008281526065602090815260408083206001600160a01b0385168085529252808320805460ff1916905551339285917ff6391f5c32d9c69d2a47ea670b442974b53935d1edc7fd64eb21e047a839171b9190a45050565b600061086e816117f6565b7f4910fdfa16fed3260ed0e7147f7cc6da11a60208b5b9406d12a635614ffd91435460ff161561192b576107ea8361275e565b826001600160a01b03166352d1902d6040518163ffffffff1660e01b815260040160206040518083038186803b15801561196457600080fd5b505afa925050508015611994575060408051601f3d908101601f1916820190925261199191810190612dca565b60015b6119f75760405162461bcd60e51b815260206004820152602e60248201527f45524331393637557067726164653a206e657720696d706c656d656e7461746960448201526d6f6e206973206e6f74205555505360901b606482015260840161085b565b6000805160206133278339815191528114611a665760405162461bcd60e51b815260206004820152602960248201527f45524331393637557067726164653a20756e737570706f727465642070726f786044820152681a58589b195555525160ba1b606482015260840161085b565b506107ea8383836127fa565b600054610100900460ff1615808015611a925750600054600160ff909116105b80611aac5750303b158015611aac575060005460ff166001145b611ac85760405162461bcd60e51b815260040161085b90613090565b6000805460ff191660011790558015611aeb576000805461ff0019166101001790555b611af3612825565b611afb612825565b611b06600033611800565b601460fc81905560fd55600460fe55801561094f576000805461ff0019169055604051600181527f7f26b83ff96e1f2b6a682f133852f6798a09c465da95921460cefb384740249890602001610eac565b61012d546040516370a0823160e01b81523060048201526000916001600160a01b0316906370a082319060240160206040518083038186803b158015611b9c57600080fd5b505afa158015611bb0573d6000803e3d6000fd5b505050506040513d601f19601f82011682018060405250810190611bd49190612dca565b90506000611bec611be483612892565b60fc546117cc565b61012d546101365460405163095ea7b360e01b81526001600160a01b03918216600482015260248101869052929350169063095ea7b390604401602060405180830381600087803b158015611c4057600080fd5b505af1158015611c54573d6000803e3d6000fd5b505050506040513d601f19601f82011682018060405250810190611c789190612d94565b50610136546040516348b4aac360e11b8152600260048201526000602482015260448101849052606481018390524260848201526001600160a01b039091169063916955869060a401602060405180830381600087803b158015611cdb57600080fd5b505af1158015611cef573d6000803e3d6000fd5b505050506040513d601f19601f82011682018060405250810190611d139190612dca565b5061012e546040516370a0823160e01b81523060048201526000916001600160a01b0316906370a082319060240160206040518083038186803b158015611d5957600080fd5b505afa158015611d6d573d6000803e3d6000fd5b505050506040513d601f19601f82011682018060405250810190611d919190612dca565b61012e546101325460405163095ea7b360e01b81526001600160a01b03918216600482015260248101849052929350169063095ea7b390604401602060405180830381600087803b158015611de557600080fd5b505af1158015611df9573d6000803e3d6000fd5b505050506040513d601f19601f82011682018060405250810190611e1d9190612d94565b506040805160608101825261012e546001600160a01b039081168252602080830185905283519081018452600081528284015261013254925163258a4c0360e21b815291921690639629300c90611e789084906004016130de565b602060405180830381600087803b158015611e9257600080fd5b505af1158015611ea6573d6000803e3d6000fd5b505050506040513d601f19601f82011682018060405250810190611eca9190612dca565b50505050505050565b610131546040516370a0823160e01b815230600482015260009182916001600160a01b03909116906370a082319060240160206040518083038186803b158015611f1c57600080fd5b505afa158015611f30573d6000803e3d6000fd5b505050506040513d601f19601f82011682018060405250810190611f549190612dca565b905080611f65576000915050610691565b6101325461012e546040516301e9a69560e41b81526001600160a01b03918216600482015260248101849052911690631e9a695090604401602060405180830381600087803b158015611fb757600080fd5b505af1158015611fcb573d6000803e3d6000fd5b505050506040513d601f19601f82011682018060405250810190611fef9190612dca565b5061012e546040516370a0823160e01b81523060048201526000916001600160a01b0316906370a082319060240160206040518083038186803b15801561203557600080fd5b505afa158015612049573d6000803e3d6000fd5b505050506040513d601f19601f8201168201806040525081019061206d9190612dca565b9050600061207d611be483611778565b61012e546101365460405163095ea7b360e01b81526001600160a01b03918216600482015260248101869052929350169063095ea7b390604401602060405180830381600087803b1580156120d157600080fd5b505af11580156120e5573d6000803e3d6000fd5b505050506040513d601f19601f820116820180604052508101906121099190612d94565b50610136546040516348b4aac360e11b8152600060048201526002602482015260448101849052606481018390524260848201526001600160a01b039091169063916955869060a401602060405180830381600087803b15801561216c57600080fd5b505af1158015612180573d6000803e3d6000fd5b505050506040513d601f19601f820116820180604052508101906121a49190612dca565b5061012d546040516370a0823160e01b81523060048201526001600160a01b03909116906370a082319060240160206040518083038186803b1580156121e957600080fd5b505afa1580156121fd573d6000803e3d6000fd5b505050506040513d601f19601f820116820180604052508101906122219190612dca565b9695505050505050565b610131546040516370a0823160e01b815230600482015260009182916001600160a01b03909116906370a082319060240160206040518083038186803b15801561227457600080fd5b505afa158015612288573d6000803e3d6000fd5b505050506040513d601f19601f820116820180604052508101906122ac9190612dca565b9050806122bd5760009150506117ef565b60006122e26122da6122d5876509184e72a000613115565b612892565b60fc546128de565b90508181106122ee5750805b6101325461012e546040516301e9a69560e41b81526001600160a01b03918216600482015260248101849052911690631e9a695090604401602060405180830381600087803b15801561234057600080fd5b505af1158015612354573d6000803e3d6000fd5b505050506040513d601f19601f820116820180604052508101906123789190612dca565b5061012e546040516370a0823160e01b81523060048201526000916001600160a01b0316906370a082319060240160206040518083038186803b1580156123be57600080fd5b505afa1580156123d2573d6000803e3d6000fd5b505050506040513d601f19601f820116820180604052508101906123f69190612dca565b90506000612406611be483611778565b61012e546101365460405163095ea7b360e01b81526001600160a01b03918216600482015260248101869052929350169063095ea7b390604401602060405180830381600087803b15801561245a57600080fd5b505af115801561246e573d6000803e3d6000fd5b505050506040513d601f19601f820116820180604052508101906124929190612d94565b50610136546040516348b4aac360e11b8152600060048201526002602482015260448101849052606481018390524260848201526001600160a01b039091169063916955869060a401602060405180830381600087803b1580156124f557600080fd5b505af1158015612509573d6000803e3d6000fd5b505050506040513d601f19601f8201168201806040525081019061252d9190612dca565b5061012d546040516370a0823160e01b81523060048201526001600160a01b03909116906370a082319060240160206040518083038186803b15801561257257600080fd5b505afa158015612586573d6000803e3d6000fd5b505050506040513d601f19601f820116820180604052508101906125aa9190612dca565b98975050505050505050565b6000806000806000856001600160a01b031663feaf968c6040518163ffffffff1660e01b815260040160a06040518083038186803b1580156125f757600080fd5b505afa15801561260b573d6000803e3d6000fd5b505050506040513d601f19601f8201168201806040525081019061262f9190612e7e565b9450945050935093508369ffffffffffffffffffff168169ffffffffffffffffffff16101561268b5760405162461bcd60e51b81526020600482015260086024820152674f6c64206461746160c01b604482015260640161085b565b600082116126d05760405162461bcd60e51b8152602060048201526012602482015271526f756e64206e6f7420636f6d706c65746560701b604482015260640161085b565b5090949350505050565b60006126e6828661323d565b836126f1868961323d565b6126fb919061323d565b612221919061312d565b61270f8282610eb7565b61086e5761271c816128ed565b6127278360206128ff565b604051602001612738929190612f39565b60408051601f198184030181529082905262461bcd60e51b825261085b91600401612fae565b6001600160a01b0381163b6127cb5760405162461bcd60e51b815260206004820152602d60248201527f455243313936373a206e657720696d706c656d656e746174696f6e206973206e60448201526c1bdd08184818dbdb9d1c9858dd609a1b606482015260840161085b565b60008051602061332783398151915280546001600160a01b0319166001600160a01b0392909216919091179055565b61280383612a9b565b6000825111806128105750805b156107ea5761281f8383612adb565b50505050565b600054610100900460ff166128905760405162461bcd60e51b815260206004820152602b60248201527f496e697469616c697a61626c653a20636f6e7472616374206973206e6f74206960448201526a6e697469616c697a696e6760a81b606482015260840161085b565b565b6101335460009081906128ad906001600160a01b03166125b6565b610134549091506000906128c9906001600160a01b03166125b6565b90506117c48461012f546101305485856126da565b60006127106117db8382613115565b60606106916001600160a01b03831660145b6060600061290e83600261323d565b612919906002613115565b67ffffffffffffffff811115612931576129316132e2565b6040519080825280601f01601f19166020018201604052801561295b576020820181803683370190505b509050600360fc1b81600081518110612976576129766132cc565b60200101906001600160f81b031916908160001a905350600f60fb1b816001815181106129a5576129a56132cc565b60200101906001600160f81b031916908160001a90535060006129c984600261323d565b6129d4906001613115565b90505b6001811115612a4c576f181899199a1a9b1b9c1cb0b131b232b360811b85600f1660108110612a0857612a086132cc565b1a60f81b828281518110612a1e57612a1e6132cc565b60200101906001600160f81b031916908160001a90535060049490941c93612a458161329f565b90506129d7565b5083156117ef5760405162461bcd60e51b815260206004820181905260248201527f537472696e67733a20686578206c656e67746820696e73756666696369656e74604482015260640161085b565b612aa48161275e565b6040516001600160a01b038216907fbc7cd75a20ee27fd9adebab32041f755214dbc6bffa90cc0225b39da2e5c2d3b90600090a250565b60606001600160a01b0383163b612b435760405162461bcd60e51b815260206004820152602660248201527f416464726573733a2064656c65676174652063616c6c20746f206e6f6e2d636f6044820152651b9d1c9858dd60d21b606482015260840161085b565b600080846001600160a01b031684604051612b5e9190612f1d565b600060405180830381855af49150503d8060008114612b99576040519150601f19603f3d011682016040523d82523d6000602084013e612b9e565b606091505b5091509150612bc6828260405180606001604052806027815260200161334760279139612bcf565b95945050505050565b60608315612bde5750816117ef565b6117ef8383815115612bf35781518083602001fd5b8060405162461bcd60e51b815260040161085b9190612fae565b80356001600160a01b03811681146114a157600080fd5b805169ffffffffffffffffffff811681146114a157600080fd5b600060208284031215612c5057600080fd5b6117ef82612c0d565b60008060408385031215612c6c57600080fd5b612c7583612c0d565b9150602083013567ffffffffffffffff80821115612c9257600080fd5b818501915085601f830112612ca657600080fd5b813581811115612cb857612cb86132e2565b604051601f8201601f19908116603f01168101908382118183101715612ce057612ce06132e2565b81604052828152886020848701011115612cf957600080fd5b8260208601602083013760006020848301015280955050505050509250929050565b60008060408385031215612d2e57600080fd5b612d3783612c0d565b946020939093013593505050565b60008060008060808587031215612d5b57600080fd5b612d6485612c0d565b935060208501359250612d7960408601612c0d565b91506060850135612d89816132f8565b939692955090935050565b600060208284031215612da657600080fd5b81516117ef816132f8565b600060208284031215612dc357600080fd5b5035919050565b600060208284031215612ddc57600080fd5b5051919050565b60008060408385031215612df657600080fd5b82359150612e0660208401612c0d565b90509250929050565b600060208284031215612e2157600080fd5b81356001600160e01b0319811681146117ef57600080fd5b60006101008284031215612e4c57600080fd5b50919050565b600080600060608486031215612e6757600080fd5b505081359360208301359350604090920135919050565b600080600080600060a08688031215612e9657600080fd5b612e9f86612c24565b9450602086015193506040860151925060608601519150612ec260808701612c24565b90509295509295909350565b600060208284031215612ee057600080fd5b815160ff811681146117ef57600080fd5b60008151808452612f09816020860160208601613273565b601f01601f19169290920160200192915050565b60008251612f2f818460208701613273565b9190910192915050565b7f416363657373436f6e74726f6c3a206163636f756e7420000000000000000000815260008351612f71816017850160208801613273565b7001034b99036b4b9b9b4b733903937b6329607d1b6017918401918201528351612fa2816028840160208801613273565b01602801949350505050565b6020815260006117ef6020830184612ef1565b6020808252601f908201527f5265737472696374656420746f20504f5254464f4c494f5f4d414e4147455200604082015260600190565b6020808252602c908201527f46756e6374696f6e206d7573742062652063616c6c6564207468726f7567682060408201526b19195b1959d85d1958d85b1b60a21b606082015260800190565b6020808252602c908201527f46756e6374696f6e206d7573742062652063616c6c6564207468726f7567682060408201526b6163746976652070726f787960a01b606082015260800190565b6020808252602e908201527f496e697469616c697a61626c653a20636f6e747261637420697320616c72656160408201526d191e481a5b9a5d1a585b1a5e995960921b606082015260800190565b6020815260018060a01b03825116602082015260208201516040820152600060408301516060808401526117c46080840182612ef1565b60008219821115613128576131286132b6565b500190565b60008261314a57634e487b7160e01b600052601260045260246000fd5b500490565b600181815b8085111561318a578160001904821115613170576131706132b6565b8085161561317d57918102915b93841c9390800290613154565b509250929050565b60006117ef60ff8416836000826131ab57506001610691565b816131b857506000610691565b81600181146131ce57600281146131d8576131f4565b6001915050610691565b60ff8411156131e9576131e96132b6565b50506001821b610691565b5060208310610133831016604e8410600b8410161715613217575081810a610691565b613221838361314f565b8060001904821115613235576132356132b6565b029392505050565b6000816000190483118215151615613257576132576132b6565b500290565b60008282101561326e5761326e6132b6565b500390565b60005b8381101561328e578181015183820152602001613276565b8381111561281f5750506000910152565b6000816132ae576132ae6132b6565b506000190190565b634e487b7160e01b600052601160045260246000fd5b634e487b7160e01b600052603260045260246000fd5b634e487b7160e01b600052604160045260246000fd5b801515811461094f57600080fdfe90c2aa7471c04182221f68e80c07ab1e5946e4c63f8693e14ca40385d529f051360894a13ba1a3210667c828492db98dca3e2076cc3735a920a3ca505d382bbc416464726573733a206c6f772d6c6576656c2064656c65676174652063616c6c206661696c6564a26469706673582212207527be90fbe40e18ed07a871fd4a694c623e7bac7daac7ca248c8fc2713a77c864736f6c63430008060033",
  "implementation": "0x0CaDbD2C6e91f78Aeb5D76ECd1CFC8baD289F9c2",
  "devdoc": {
    "kind": "dev",
    "methods": {
      "constructor": {
        "custom:oz-upgrades-unsafe-allow": "constructor"
      },
      "getRoleAdmin(bytes32)": {
        "details": "Returns the admin role that controls `role`. See {grantRole} and {revokeRole}. To change a role's admin, use {_setRoleAdmin}."
      },
      "grantRole(bytes32,address)": {
        "details": "Grants `role` to `account`. If `account` had not been already granted `role`, emits a {RoleGranted} event. Requirements: - the caller must have ``role``'s admin role. May emit a {RoleGranted} event."
      },
      "hasRole(bytes32,address)": {
        "details": "Returns `true` if `account` has been granted `role`."
      },
      "proxiableUUID()": {
        "details": "Implementation of the ERC1822 {proxiableUUID} function. This returns the storage slot used by the implementation. It is used to validate the implementation's compatibility when performing an upgrade. IMPORTANT: A proxy pointing at a proxiable contract should not be considered proxiable itself, because this risks bricking a proxy that upgrades to it, by delegating to itself until out of gas. Thus it is critical that this function revert if invoked through a proxy. This is guaranteed by the `notDelegated` modifier."
      },
      "renounceRole(bytes32,address)": {
        "details": "Revokes `role` from the calling account. Roles are often managed via {grantRole} and {revokeRole}: this function's purpose is to provide a mechanism for accounts to lose their privileges if they are compromised (such as when a trusted device is misplaced). If the calling account had been revoked `role`, emits a {RoleRevoked} event. Requirements: - the caller must be `account`. May emit a {RoleRevoked} event."
      },
      "revokeRole(bytes32,address)": {
        "details": "Revokes `role` from `account`. If `account` had been granted `role`, emits a {RoleRevoked} event. Requirements: - the caller must have ``role``'s admin role. May emit a {RoleRevoked} event."
      },
      "supportsInterface(bytes4)": {
        "details": "See {IERC165-supportsInterface}."
      },
      "upgradeTo(address)": {
        "details": "Upgrade the implementation of the proxy to `newImplementation`. Calls {_authorizeUpgrade}. Emits an {Upgraded} event."
      },
      "upgradeToAndCall(address,bytes)": {
        "details": "Upgrade the implementation of the proxy to `newImplementation`, and subsequently execute the function call encoded in `data`. Calls {_authorizeUpgrade}. Emits an {Upgraded} event."
      }
    },
    "version": 1
  },
  "userdoc": {
    "kind": "user",
    "methods": {},
    "version": 1
  },
  "storageLayout": {
    "storage": [
      {
        "astId": 804,
        "contract": "contracts/dai/StrategyUsdPlusDai.sol:StrategyUsdPlusDai",
        "label": "_initialized",
        "offset": 0,
        "slot": "0",
        "type": "t_uint8"
      },
      {
        "astId": 807,
        "contract": "contracts/dai/StrategyUsdPlusDai.sol:StrategyUsdPlusDai",
        "label": "_initializing",
        "offset": 1,
        "slot": "0",
        "type": "t_bool"
      },
      {
        "astId": 1427,
        "contract": "contracts/dai/StrategyUsdPlusDai.sol:StrategyUsdPlusDai",
        "label": "__gap",
        "offset": 0,
        "slot": "1",
        "type": "t_array(t_uint256)50_storage"
      },
      {
        "astId": 1706,
        "contract": "contracts/dai/StrategyUsdPlusDai.sol:StrategyUsdPlusDai",
        "label": "__gap",
        "offset": 0,
        "slot": "51",
        "type": "t_array(t_uint256)50_storage"
      },
      {
        "astId": 39,
        "contract": "contracts/dai/StrategyUsdPlusDai.sol:StrategyUsdPlusDai",
        "label": "_roles",
        "offset": 0,
        "slot": "101",
        "type": "t_mapping(t_bytes32,t_struct(RoleData)34_storage)"
      },
      {
        "astId": 334,
        "contract": "contracts/dai/StrategyUsdPlusDai.sol:StrategyUsdPlusDai",
        "label": "__gap",
        "offset": 0,
        "slot": "102",
        "type": "t_array(t_uint256)49_storage"
      },
      {
        "astId": 786,
        "contract": "contracts/dai/StrategyUsdPlusDai.sol:StrategyUsdPlusDai",
        "label": "__gap",
        "offset": 0,
        "slot": "151",
        "type": "t_array(t_uint256)50_storage"
      },
      {
        "astId": 1101,
        "contract": "contracts/dai/StrategyUsdPlusDai.sol:StrategyUsdPlusDai",
        "label": "__gap",
        "offset": 0,
        "slot": "201",
        "type": "t_array(t_uint256)50_storage"
      },
      {
        "astId": 4761,
        "contract": "contracts/dai/StrategyUsdPlusDai.sol:StrategyUsdPlusDai",
        "label": "portfolioManager",
        "offset": 0,
        "slot": "251",
        "type": "t_address"
      },
      {
        "astId": 4763,
        "contract": "contracts/dai/StrategyUsdPlusDai.sol:StrategyUsdPlusDai",
        "label": "swapSlippageBP",
        "offset": 0,
        "slot": "252",
        "type": "t_uint256"
      },
      {
        "astId": 4765,
        "contract": "contracts/dai/StrategyUsdPlusDai.sol:StrategyUsdPlusDai",
        "label": "navSlippageBP",
        "offset": 0,
        "slot": "253",
        "type": "t_uint256"
      },
      {
        "astId": 4767,
        "contract": "contracts/dai/StrategyUsdPlusDai.sol:StrategyUsdPlusDai",
        "label": "stakeSlippageBP",
        "offset": 0,
        "slot": "254",
        "type": "t_uint256"
      },
      {
        "astId": 5152,
        "contract": "contracts/dai/StrategyUsdPlusDai.sol:StrategyUsdPlusDai",
        "label": "__gap",
        "offset": 0,
        "slot": "255",
        "type": "t_array(t_uint256)46_storage"
      },
      {
        "astId": 5492,
        "contract": "contracts/dai/StrategyUsdPlusDai.sol:StrategyUsdPlusDai",
        "label": "dai",
        "offset": 0,
        "slot": "301",
        "type": "t_contract(IERC20)2662"
      },
      {
        "astId": 5495,
        "contract": "contracts/dai/StrategyUsdPlusDai.sol:StrategyUsdPlusDai",
        "label": "usdc",
        "offset": 0,
        "slot": "302",
        "type": "t_contract(IERC20)2662"
      },
      {
        "astId": 5497,
        "contract": "contracts/dai/StrategyUsdPlusDai.sol:StrategyUsdPlusDai",
        "label": "daiDm",
        "offset": 0,
        "slot": "303",
        "type": "t_uint256"
      },
      {
        "astId": 5499,
        "contract": "contracts/dai/StrategyUsdPlusDai.sol:StrategyUsdPlusDai",
        "label": "usdcDm",
        "offset": 0,
        "slot": "304",
        "type": "t_uint256"
      },
      {
        "astId": 5502,
        "contract": "contracts/dai/StrategyUsdPlusDai.sol:StrategyUsdPlusDai",
        "label": "usdPlus",
        "offset": 0,
        "slot": "305",
        "type": "t_contract(IUsdPlusToken)5461"
      },
      {
        "astId": 5505,
        "contract": "contracts/dai/StrategyUsdPlusDai.sol:StrategyUsdPlusDai",
        "label": "exchange",
        "offset": 0,
        "slot": "306",
        "type": "t_contract(IExchange)5231"
      },
      {
        "astId": 5508,
        "contract": "contracts/dai/StrategyUsdPlusDai.sol:StrategyUsdPlusDai",
        "label": "oracleDai",
        "offset": 0,
        "slot": "307",
        "type": "t_contract(IPriceFeed)2870"
      },
      {
        "astId": 5511,
        "contract": "contracts/dai/StrategyUsdPlusDai.sol:StrategyUsdPlusDai",
        "label": "oracleUsdc",
        "offset": 0,
        "slot": "308",
        "type": "t_contract(IPriceFeed)2870"
      },
      {
        "astId": 5514,
        "contract": "contracts/dai/StrategyUsdPlusDai.sol:StrategyUsdPlusDai",
        "label": "gmxRouter",
        "offset": 0,
        "slot": "309",
        "type": "t_contract(IRouter)3134"
      },
      {
        "astId": 5517,
        "contract": "contracts/dai/StrategyUsdPlusDai.sol:StrategyUsdPlusDai",
        "label": "zyberPool",
        "offset": 0,
        "slot": "310",
        "type": "t_contract(IZyberSwap)4732"
      }
    ],
    "types": {
      "t_address": {
        "encoding": "inplace",
        "label": "address",
        "numberOfBytes": "20"
      },
      "t_array(t_uint256)46_storage": {
        "base": "t_uint256",
        "encoding": "inplace",
        "label": "uint256[46]",
        "numberOfBytes": "1472"
      },
      "t_array(t_uint256)49_storage": {
        "base": "t_uint256",
        "encoding": "inplace",
        "label": "uint256[49]",
        "numberOfBytes": "1568"
      },
      "t_array(t_uint256)50_storage": {
        "base": "t_uint256",
        "encoding": "inplace",
        "label": "uint256[50]",
        "numberOfBytes": "1600"
      },
      "t_bool": {
        "encoding": "inplace",
        "label": "bool",
        "numberOfBytes": "1"
      },
      "t_bytes32": {
        "encoding": "inplace",
        "label": "bytes32",
        "numberOfBytes": "32"
      },
      "t_contract(IERC20)2662": {
        "encoding": "inplace",
        "label": "contract IERC20",
        "numberOfBytes": "20"
      },
      "t_contract(IExchange)5231": {
        "encoding": "inplace",
        "label": "contract IExchange",
        "numberOfBytes": "20"
      },
      "t_contract(IPriceFeed)2870": {
        "encoding": "inplace",
        "label": "contract IPriceFeed",
        "numberOfBytes": "20"
      },
      "t_contract(IRouter)3134": {
        "encoding": "inplace",
        "label": "contract IRouter",
        "numberOfBytes": "20"
      },
      "t_contract(IUsdPlusToken)5461": {
        "encoding": "inplace",
        "label": "contract IUsdPlusToken",
        "numberOfBytes": "20"
      },
      "t_contract(IZyberSwap)4732": {
        "encoding": "inplace",
        "label": "contract IZyberSwap",
        "numberOfBytes": "20"
      },
      "t_mapping(t_address,t_bool)": {
        "encoding": "mapping",
        "key": "t_address",
        "label": "mapping(address => bool)",
        "numberOfBytes": "32",
        "value": "t_bool"
      },
      "t_mapping(t_bytes32,t_struct(RoleData)34_storage)": {
        "encoding": "mapping",
        "key": "t_bytes32",
        "label": "mapping(bytes32 => struct AccessControlUpgradeable.RoleData)",
        "numberOfBytes": "32",
        "value": "t_struct(RoleData)34_storage"
      },
      "t_struct(RoleData)34_storage": {
        "encoding": "inplace",
        "label": "struct AccessControlUpgradeable.RoleData",
        "members": [
          {
            "astId": 31,
            "contract": "contracts/dai/StrategyUsdPlusDai.sol:StrategyUsdPlusDai",
            "label": "members",
            "offset": 0,
            "slot": "0",
            "type": "t_mapping(t_address,t_bool)"
          },
          {
            "astId": 33,
            "contract": "contracts/dai/StrategyUsdPlusDai.sol:StrategyUsdPlusDai",
            "label": "adminRole",
            "offset": 0,
            "slot": "1",
            "type": "t_bytes32"
          }
        ],
        "numberOfBytes": "64"
      },
      "t_uint256": {
        "encoding": "inplace",
        "label": "uint256",
        "numberOfBytes": "32"
      },
      "t_uint8": {
        "encoding": "inplace",
        "label": "uint8",
        "numberOfBytes": "1"
      }
    }
  }
}