{
  "address": "0x71081021ff37D38Dec956386EA5E467e58714951",
  "abi": [
    {
      "inputs": [],
      "stateMutability": "nonpayable",
      "type": "constructor"
    },
    {
      "anonymous": false,
      "inputs": [
        {
          "indexed": false,
          "internalType": "address",
          "name": "previousAdmin",
          "type": "address"
        },
        {
          "indexed": false,
          "internalType": "address",
          "name": "newAdmin",
          "type": "address"
        }
      ],
      "name": "AdminChanged",
      "type": "event"
    },
    {
      "anonymous": false,
      "inputs": [
        {
          "indexed": true,
          "internalType": "address",
          "name": "beacon",
          "type": "address"
        }
      ],
      "name": "BeaconUpgraded",
      "type": "event"
    },
    {
      "anonymous": false,
      "inputs": [
        {
          "indexed": false,
          "internalType": "uint8",
          "name": "version",
          "type": "uint8"
        }
      ],
      "name": "Initialized",
      "type": "event"
    },
    {
      "anonymous": false,
      "inputs": [
        {
          "indexed": false,
          "internalType": "address",
          "name": "value",
          "type": "address"
        }
      ],
      "name": "PortfolioManagerUpdated",
      "type": "event"
    },
    {
      "anonymous": false,
      "inputs": [
        {
          "indexed": false,
          "internalType": "uint256",
          "name": "amount",
          "type": "uint256"
        }
      ],
      "name": "Reward",
      "type": "event"
    },
    {
      "anonymous": false,
      "inputs": [
        {
          "indexed": true,
          "internalType": "bytes32",
          "name": "role",
          "type": "bytes32"
        },
        {
          "indexed": true,
          "internalType": "bytes32",
          "name": "previousAdminRole",
          "type": "bytes32"
        },
        {
          "indexed": true,
          "internalType": "bytes32",
          "name": "newAdminRole",
          "type": "bytes32"
        }
      ],
      "name": "RoleAdminChanged",
      "type": "event"
    },
    {
      "anonymous": false,
      "inputs": [
        {
          "indexed": true,
          "internalType": "bytes32",
          "name": "role",
          "type": "bytes32"
        },
        {
          "indexed": true,
          "internalType": "address",
          "name": "account",
          "type": "address"
        },
        {
          "indexed": true,
          "internalType": "address",
          "name": "sender",
          "type": "address"
        }
      ],
      "name": "RoleGranted",
      "type": "event"
    },
    {
      "anonymous": false,
      "inputs": [
        {
          "indexed": true,
          "internalType": "bytes32",
          "name": "role",
          "type": "bytes32"
        },
        {
          "indexed": true,
          "internalType": "address",
          "name": "account",
          "type": "address"
        },
        {
          "indexed": true,
          "internalType": "address",
          "name": "sender",
          "type": "address"
        }
      ],
      "name": "RoleRevoked",
      "type": "event"
    },
    {
      "anonymous": false,
      "inputs": [
        {
          "indexed": false,
          "internalType": "uint256",
          "name": "swapSlippageBP",
          "type": "uint256"
        },
        {
          "indexed": false,
          "internalType": "uint256",
          "name": "navSlippageBP",
          "type": "uint256"
        },
        {
          "indexed": false,
          "internalType": "uint256",
          "name": "stakeSlippageBP",
          "type": "uint256"
        }
      ],
      "name": "SlippagesUpdated",
      "type": "event"
    },
    {
      "anonymous": false,
      "inputs": [
        {
          "indexed": false,
          "internalType": "uint256",
          "name": "amount",
          "type": "uint256"
        }
      ],
      "name": "Stake",
      "type": "event"
    },
    {
      "anonymous": false,
      "inputs": [],
      "name": "StrategyUpdatedParams",
      "type": "event"
    },
    {
      "anonymous": false,
      "inputs": [
        {
          "indexed": false,
          "internalType": "uint256",
          "name": "amount",
          "type": "uint256"
        },
        {
          "indexed": false,
          "internalType": "uint256",
          "name": "amountReceived",
          "type": "uint256"
        }
      ],
      "name": "Unstake",
      "type": "event"
    },
    {
      "anonymous": false,
      "inputs": [
        {
          "indexed": true,
          "internalType": "address",
          "name": "implementation",
          "type": "address"
        }
      ],
      "name": "Upgraded",
      "type": "event"
    },
    {
      "inputs": [],
      "name": "DEFAULT_ADMIN_ROLE",
      "outputs": [
        {
          "internalType": "bytes32",
          "name": "",
          "type": "bytes32"
        }
      ],
      "stateMutability": "view",
      "type": "function"
    },
    {
      "inputs": [],
      "name": "PORTFOLIO_AGENT_ROLE",
      "outputs": [
        {
          "internalType": "bytes32",
          "name": "",
          "type": "bytes32"
        }
      ],
      "stateMutability": "view",
      "type": "function"
    },
    {
      "inputs": [],
      "name": "PORTFOLIO_MANAGER",
      "outputs": [
        {
          "internalType": "bytes32",
          "name": "",
          "type": "bytes32"
        }
      ],
      "stateMutability": "view",
      "type": "function"
    },
    {
      "inputs": [],
      "name": "assetWombat",
      "outputs": [
        {
          "internalType": "contract IWombatAsset",
          "name": "",
          "type": "address"
        }
      ],
      "stateMutability": "view",
      "type": "function"
    },
    {
      "inputs": [],
      "name": "assetWombatDm",
      "outputs": [
        {
          "internalType": "uint256",
          "name": "",
          "type": "uint256"
        }
      ],
      "stateMutability": "view",
      "type": "function"
    },
    {
      "inputs": [],
      "name": "basePoolWombat",
      "outputs": [
        {
          "internalType": "contract IWombatPool",
          "name": "",
          "type": "address"
        }
      ],
      "stateMutability": "view",
      "type": "function"
    },
    {
      "inputs": [],
      "name": "camelotRouter",
      "outputs": [
        {
          "internalType": "contract ICamelotRouter",
          "name": "",
          "type": "address"
        }
      ],
      "stateMutability": "view",
      "type": "function"
    },
    {
      "inputs": [
        {
          "internalType": "address",
          "name": "_to",
          "type": "address"
        }
      ],
      "name": "claimRewards",
      "outputs": [
        {
          "internalType": "uint256",
          "name": "",
          "type": "uint256"
        }
      ],
      "stateMutability": "nonpayable",
      "type": "function"
    },
    {
      "inputs": [],
      "name": "dai",
      "outputs": [
        {
          "internalType": "contract IERC20",
          "name": "",
          "type": "address"
        }
      ],
      "stateMutability": "view",
      "type": "function"
    },
    {
      "inputs": [],
      "name": "daiPlus",
      "outputs": [
        {
          "internalType": "contract IERC20",
          "name": "",
          "type": "address"
        }
      ],
      "stateMutability": "view",
      "type": "function"
    },
    {
      "inputs": [
        {
          "internalType": "bytes32",
          "name": "role",
          "type": "bytes32"
        }
      ],
      "name": "getRoleAdmin",
      "outputs": [
        {
          "internalType": "bytes32",
          "name": "",
          "type": "bytes32"
        }
      ],
      "stateMutability": "view",
      "type": "function"
    },
    {
      "inputs": [
        {
          "internalType": "bytes32",
          "name": "role",
          "type": "bytes32"
        },
        {
          "internalType": "address",
          "name": "account",
          "type": "address"
        }
      ],
      "name": "grantRole",
      "outputs": [],
      "stateMutability": "nonpayable",
      "type": "function"
    },
    {
      "inputs": [
        {
          "internalType": "bytes32",
          "name": "role",
          "type": "bytes32"
        },
        {
          "internalType": "address",
          "name": "account",
          "type": "address"
        }
      ],
      "name": "hasRole",
      "outputs": [
        {
          "internalType": "bool",
          "name": "",
          "type": "bool"
        }
      ],
      "stateMutability": "view",
      "type": "function"
    },
    {
      "inputs": [],
      "name": "initialize",
      "outputs": [],
      "stateMutability": "nonpayable",
      "type": "function"
    },
    {
      "inputs": [],
      "name": "liquidationValue",
      "outputs": [
        {
          "internalType": "uint256",
          "name": "",
          "type": "uint256"
        }
      ],
      "stateMutability": "view",
      "type": "function"
    },
    {
      "inputs": [],
      "name": "navSlippageBP",
      "outputs": [
        {
          "internalType": "uint256",
          "name": "",
          "type": "uint256"
        }
      ],
      "stateMutability": "view",
      "type": "function"
    },
    {
      "inputs": [],
      "name": "netAssetValue",
      "outputs": [
        {
          "internalType": "uint256",
          "name": "",
          "type": "uint256"
        }
      ],
      "stateMutability": "view",
      "type": "function"
    },
    {
      "inputs": [],
      "name": "poolFee0",
      "outputs": [
        {
          "internalType": "uint24",
          "name": "",
          "type": "uint24"
        }
      ],
      "stateMutability": "view",
      "type": "function"
    },
    {
      "inputs": [],
      "name": "poolFee1",
      "outputs": [
        {
          "internalType": "uint24",
          "name": "",
          "type": "uint24"
        }
      ],
      "stateMutability": "view",
      "type": "function"
    },
    {
      "inputs": [],
      "name": "poolWombat",
      "outputs": [
        {
          "internalType": "contract IWombatPool",
          "name": "",
          "type": "address"
        }
      ],
      "stateMutability": "view",
      "type": "function"
    },
    {
      "inputs": [],
      "name": "portfolioManager",
      "outputs": [
        {
          "internalType": "address",
          "name": "",
          "type": "address"
        }
      ],
      "stateMutability": "view",
      "type": "function"
    },
    {
      "inputs": [],
      "name": "proxiableUUID",
      "outputs": [
        {
          "internalType": "bytes32",
          "name": "",
          "type": "bytes32"
        }
      ],
      "stateMutability": "view",
      "type": "function"
    },
    {
      "inputs": [
        {
          "internalType": "bytes32",
          "name": "role",
          "type": "bytes32"
        },
        {
          "internalType": "address",
          "name": "account",
          "type": "address"
        }
      ],
      "name": "renounceRole",
      "outputs": [],
      "stateMutability": "nonpayable",
      "type": "function"
    },
    {
      "inputs": [
        {
          "internalType": "bytes32",
          "name": "role",
          "type": "bytes32"
        },
        {
          "internalType": "address",
          "name": "account",
          "type": "address"
        }
      ],
      "name": "revokeRole",
      "outputs": [],
      "stateMutability": "nonpayable",
      "type": "function"
    },
    {
      "inputs": [],
      "name": "router",
      "outputs": [
        {
          "internalType": "contract IWombatRouter",
          "name": "",
          "type": "address"
        }
      ],
      "stateMutability": "view",
      "type": "function"
    },
    {
      "inputs": [
        {
          "components": [
            {
              "internalType": "address",
              "name": "dai",
              "type": "address"
            },
            {
              "internalType": "address",
              "name": "daiPlus",
              "type": "address"
            },
            {
              "internalType": "address",
              "name": "usdt",
              "type": "address"
            },
            {
              "internalType": "address",
              "name": "usdc",
              "type": "address"
            },
            {
              "internalType": "address",
              "name": "wom",
              "type": "address"
            },
            {
              "internalType": "address",
              "name": "wmx",
              "type": "address"
            },
            {
              "internalType": "address",
              "name": "assetWombat",
              "type": "address"
            },
            {
              "internalType": "address",
              "name": "poolWombat",
              "type": "address"
            },
            {
              "internalType": "address",
              "name": "basePoolWombat",
              "type": "address"
            },
            {
              "internalType": "address",
              "name": "wombatRouter",
              "type": "address"
            },
            {
              "internalType": "address",
              "name": "uniswapV3Router",
              "type": "address"
            },
            {
              "internalType": "uint24",
              "name": "poolFee0",
              "type": "uint24"
            },
            {
              "internalType": "uint24",
              "name": "poolFee1",
              "type": "uint24"
            },
            {
              "internalType": "address",
              "name": "wombexBooster",
              "type": "address"
            },
            {
              "internalType": "uint256",
              "name": "wombexBoosterPid",
              "type": "uint256"
            },
            {
              "internalType": "address",
              "name": "wombexVault",
              "type": "address"
            },
            {
              "internalType": "address",
              "name": "camelotRouter",
              "type": "address"
            }
          ],
          "internalType": "struct StrategyWombatOvnDaiPlus.StrategyParams",
          "name": "params",
          "type": "tuple"
        }
      ],
      "name": "setParams",
      "outputs": [],
      "stateMutability": "nonpayable",
      "type": "function"
    },
    {
      "inputs": [
        {
          "internalType": "address",
          "name": "_value",
          "type": "address"
        }
      ],
      "name": "setPortfolioManager",
      "outputs": [],
      "stateMutability": "nonpayable",
      "type": "function"
    },
    {
      "inputs": [
        {
          "internalType": "uint256",
          "name": "_swapSlippageBP",
          "type": "uint256"
        },
        {
          "internalType": "uint256",
          "name": "_navSlippageBP",
          "type": "uint256"
        },
        {
          "internalType": "uint256",
          "name": "_stakeSlippageBP",
          "type": "uint256"
        }
      ],
      "name": "setSlippages",
      "outputs": [],
      "stateMutability": "nonpayable",
      "type": "function"
    },
    {
      "inputs": [
        {
          "internalType": "address",
          "name": "_asset",
          "type": "address"
        },
        {
          "internalType": "uint256",
          "name": "_amount",
          "type": "uint256"
        }
      ],
      "name": "stake",
      "outputs": [],
      "stateMutability": "nonpayable",
      "type": "function"
    },
    {
      "inputs": [],
      "name": "stakeSlippageBP",
      "outputs": [
        {
          "internalType": "uint256",
          "name": "",
          "type": "uint256"
        }
      ],
      "stateMutability": "view",
      "type": "function"
    },
    {
      "inputs": [
        {
          "internalType": "bytes4",
          "name": "interfaceId",
          "type": "bytes4"
        }
      ],
      "name": "supportsInterface",
      "outputs": [
        {
          "internalType": "bool",
          "name": "",
          "type": "bool"
        }
      ],
      "stateMutability": "view",
      "type": "function"
    },
    {
      "inputs": [],
      "name": "swapSlippageBP",
      "outputs": [
        {
          "internalType": "uint256",
          "name": "",
          "type": "uint256"
        }
      ],
      "stateMutability": "view",
      "type": "function"
    },
    {
      "inputs": [],
      "name": "uniswapV3Router",
      "outputs": [
        {
          "internalType": "contract ISwapRouter",
          "name": "",
          "type": "address"
        }
      ],
      "stateMutability": "view",
      "type": "function"
    },
    {
      "inputs": [
        {
          "internalType": "address",
          "name": "_asset",
          "type": "address"
        },
        {
          "internalType": "uint256",
          "name": "_amount",
          "type": "uint256"
        },
        {
          "internalType": "address",
          "name": "_beneficiary",
          "type": "address"
        },
        {
          "internalType": "bool",
          "name": "_targetIsZero",
          "type": "bool"
        }
      ],
      "name": "unstake",
      "outputs": [
        {
          "internalType": "uint256",
          "name": "",
          "type": "uint256"
        }
      ],
      "stateMutability": "nonpayable",
      "type": "function"
    },
    {
      "inputs": [
        {
          "internalType": "address",
          "name": "newImplementation",
          "type": "address"
        }
      ],
      "name": "upgradeTo",
      "outputs": [],
      "stateMutability": "nonpayable",
      "type": "function"
    },
    {
      "inputs": [
        {
          "internalType": "address",
          "name": "newImplementation",
          "type": "address"
        },
        {
          "internalType": "bytes",
          "name": "data",
          "type": "bytes"
        }
      ],
      "name": "upgradeToAndCall",
      "outputs": [],
      "stateMutability": "payable",
      "type": "function"
    },
    {
      "inputs": [],
      "name": "usdc",
      "outputs": [
        {
          "internalType": "contract IERC20",
          "name": "",
          "type": "address"
        }
      ],
      "stateMutability": "view",
      "type": "function"
    },
    {
      "inputs": [],
      "name": "usdt",
      "outputs": [
        {
          "internalType": "contract IERC20",
          "name": "",
          "type": "address"
        }
      ],
      "stateMutability": "view",
      "type": "function"
    },
    {
      "inputs": [],
      "name": "wmx",
      "outputs": [
        {
          "internalType": "contract IERC20",
          "name": "",
          "type": "address"
        }
      ],
      "stateMutability": "view",
      "type": "function"
    },
    {
      "inputs": [],
      "name": "wom",
      "outputs": [
        {
          "internalType": "contract IERC20",
          "name": "",
          "type": "address"
        }
      ],
      "stateMutability": "view",
      "type": "function"
    },
    {
      "inputs": [],
      "name": "wombexBooster",
      "outputs": [
        {
          "internalType": "contract IWombexBooster",
          "name": "",
          "type": "address"
        }
      ],
      "stateMutability": "view",
      "type": "function"
    },
    {
      "inputs": [],
      "name": "wombexBoosterPid",
      "outputs": [
        {
          "internalType": "uint256",
          "name": "",
          "type": "uint256"
        }
      ],
      "stateMutability": "view",
      "type": "function"
    },
    {
      "inputs": [],
      "name": "wombexVault",
      "outputs": [
        {
          "internalType": "contract IWombexVault",
          "name": "",
          "type": "address"
        }
      ],
      "stateMutability": "view",
      "type": "function"
    }
  ],
  "numDeployments": 2,
  "solcInputHash": "e1ea76cbd59246efaf066f2a0b703188",
  "bytecode": "0x60a06040523060601b6080523480156200001857600080fd5b50600054610100900460ff16158080156200003a5750600054600160ff909116105b806200006a575062000057306200014460201b620018ae1760201c565b1580156200006a575060005460ff166001145b620000d25760405162461bcd60e51b815260206004820152602e60248201527f496e697469616c697a61626c653a20636f6e747261637420697320616c72656160448201526d191e481a5b9a5d1a585b1a5e995960921b606482015260840160405180910390fd5b6000805460ff191660011790558015620000f6576000805461ff0019166101001790555b80156200013d576000805461ff0019169055604051600181527f7f26b83ff96e1f2b6a682f133852f6798a09c465da95921460cefb38474024989060200160405180910390a15b5062000153565b6001600160a01b03163b151590565b60805160601c6141d26200018e600039600081816108da0152818161091a01528181610df101528181610e310152610ec001526141d26000f3fe60806040526004361061025c5760003560e01c80637d5f580211610144578063af23ccc4116100b6578063d8f0b7eb1161007a578063d8f0b7eb14610720578063e5700fd414610737578063ef5cfb8c14610758578063f4b9fa7514610778578063f6f6b88114610799578063f887ea40146107b957600080fd5b8063af23ccc41461066d578063bf52e080146106a5578063c5a6222e146106bb578063d547741f146106dc578063d7e6b1c8146106fc57600080fd5b8063a217fddf11610108578063a217fddf146105c2578063a3673b38146105d7578063a440b21a146105ec578063adc9772e1461060c578063ae2220cb1461062c578063ae30c1101461064d57600080fd5b80637d5f5802146105335780638129fc1c146105555780638a0627a61461056a57806391d14854146105815780639cd55c9d146105a157600080fd5b806336568abe116101dd578063522d58c6116101a1578063522d58c61461047257806352d1902d146104935780635ca558f8146104a85780635dbd733a146104be578063620b75df146104f25780637610d9571461051257600080fd5b806336568abe146103de5780633659cfe6146103fe5780633e413bee1461041e5780634285fb651461043f5780634f1ef2861461045f57600080fd5b8063248a9ca311610224578063248a9ca3146103355780632576e65a146103655780632c76d7a61461037a5780632f2ff15d1461039b5780632f48ab7d146103bd57600080fd5b806301ffc9a714610261578063083975d4146102965780631032b052146102cf5780631074d2a2146102f0578063119cd87914610311575b600080fd5b34801561026d57600080fd5b5061028161027c366004613b3b565b6107da565b60405190151581526020015b60405180910390f35b3480156102a257600080fd5b5061013a546102b7906001600160a01b031681565b6040516001600160a01b03909116815260200161028d565b3480156102db57600080fd5b50610131546102b7906001600160a01b031681565b3480156102fc57600080fd5b5061012e546102b7906001600160a01b031681565b34801561031d57600080fd5b5061032760fd5481565b60405190815260200161028d565b34801561034157600080fd5b50610327610350366004613add565b60009081526065602052604090206001015490565b34801561037157600080fd5b50610327610811565b34801561038657600080fd5b50610136546102b7906001600160a01b031681565b3480156103a757600080fd5b506103bb6103b6366004613b0f565b610822565b005b3480156103c957600080fd5b5061012f546102b7906001600160a01b031681565b3480156103ea57600080fd5b506103bb6103f9366004613b0f565b61084c565b34801561040a57600080fd5b506103bb6104193660046138d9565b6108cf565b34801561042a57600080fd5b5061013b546102b7906001600160a01b031681565b34801561044b57600080fd5b506103bb61045a366004613b65565b6109af565b6103bb61046d3660046138f4565b610de6565b34801561047e57600080fd5b50610139546102b7906001600160a01b031681565b34801561049f57600080fd5b50610327610eb3565b3480156104b457600080fd5b5061032760fe5481565b3480156104ca57600080fd5b506103277fd67ad422505496469a1adf6cdf9e5ee92ac5d33992843c9ecc4b2f6d6cde913781565b3480156104fe57600080fd5b5060fb546102b7906001600160a01b031681565b34801561051e57600080fd5b50610134546102b7906001600160a01b031681565b34801561053f57600080fd5b5061032760008051602061413683398151915281565b34801561056157600080fd5b506103bb610f66565b34801561057657600080fd5b506103276101385481565b34801561058d57600080fd5b5061028161059c366004613b0f565b611030565b3480156105ad57600080fd5b50610133546102b7906001600160a01b031681565b3480156105ce57600080fd5b50610327600081565b3480156105e357600080fd5b5061032761105b565b3480156105f857600080fd5b506103bb6106073660046138d9565b611067565b34801561061857600080fd5b506103bb61062736600461399a565b611196565b34801561063857600080fd5b50610137546102b7906001600160a01b031681565b34801561065957600080fd5b506103bb610668366004613bc7565b6113c6565b34801561067957600080fd5b506101365461069190600160b81b900462ffffff1681565b60405162ffffff909116815260200161028d565b3480156106b157600080fd5b5061032760fc5481565b3480156106c757600080fd5b50610130546102b7906001600160a01b031681565b3480156106e857600080fd5b506103bb6106f7366004613b0f565b61153b565b34801561070857600080fd5b506101365461069190600160a01b900462ffffff1681565b34801561072c57600080fd5b506103276101325481565b34801561074357600080fd5b5061013c546102b7906001600160a01b031681565b34801561076457600080fd5b506103276107733660046138d9565b611560565b34801561078457600080fd5b5061012d546102b7906001600160a01b031681565b3480156107a557600080fd5b506103276107b43660046139c4565b6115e5565b3480156107c557600080fd5b50610135546102b7906001600160a01b031681565b60006001600160e01b03198216637965db0b60e01b148061080b57506301ffc9a760e01b6001600160e01b03198316145b92915050565b600061081d60006118bd565b905090565b60008281526065602052604090206001015461083d81611af2565b6108478383611afc565b505050565b6001600160a01b03811633146108c15760405162461bcd60e51b815260206004820152602f60248201527f416363657373436f6e74726f6c3a2063616e206f6e6c792072656e6f756e636560448201526e103937b632b9903337b91039b2b63360891b60648201526084015b60405180910390fd5b6108cb8282611b82565b5050565b306001600160a01b037f00000000000000000000000000000000000000000000000000000000000000001614156109185760405162461bcd60e51b81526004016108b890613d7a565b7f00000000000000000000000000000000000000000000000000000000000000006001600160a01b0316610961600080516020614156833981519152546001600160a01b031690565b6001600160a01b0316146109875760405162461bcd60e51b81526004016108b890613dc6565b61099081611be9565b604080516000808252602082019092526109ac91839190611bf4565b50565b6109ba600033611030565b6109fd5760405162461bcd60e51b81526020600482015260146024820152735265737472696374656420746f2061646d696e7360601b60448201526064016108b8565b610a0a60208201826138d9565b61012d80546001600160a01b0319166001600160a01b0392909216919091179055610a3b60408201602083016138d9565b61012e80546001600160a01b0319166001600160a01b0392909216919091179055610a6c60608201604083016138d9565b61012f80546001600160a01b0319166001600160a01b0392909216919091179055610a9d60808201606083016138d9565b61013b80546001600160a01b0319166001600160a01b0392909216919091179055610ace60a08201608083016138d9565b61013080546001600160a01b0319166001600160a01b0392909216919091179055610aff60c0820160a083016138d9565b61013a80546001600160a01b0319166001600160a01b0392909216919091179055610b3060e0820160c083016138d9565b61013180546001600160a01b0319166001600160a01b0392909216919091179055610b62610100820160e083016138d9565b61013480546001600160a01b0319166001600160a01b0392909216919091179055610b95610120820161010083016138d9565b61013380546001600160a01b0319166001600160a01b0392909216919091179055610bc8610140820161012083016138d9565b61013580546001600160a01b0319166001600160a01b0392909216919091179055610bfb610160820161014083016138d9565b61013680546001600160a01b0319166001600160a01b0392909216919091179055610c2e61018082016101608301613b7e565b610136805462ffffff92909216600160a01b0262ffffff60a01b19909216919091179055610c646101a082016101808301613b7e565b610136805462ffffff92909216600160b81b0262ffffff60b81b19909216919091179055610c9860e0820160c083016138d9565b6001600160a01b031663313ce5676040518163ffffffff1660e01b815260040160206040518083038186803b158015610cd057600080fd5b505afa158015610ce4573d6000803e3d6000fd5b505050506040513d601f19601f82011682018060405250810190610d089190613bf3565b610d1390600a613fc1565b61013255610d296101c082016101a083016138d9565b61013780546001600160a01b0319166001600160a01b03929092169190911790556101c081013561013855610d6661020082016101e083016138d9565b61013980546001600160a01b0319166001600160a01b0392909216919091179055610d99610220820161020083016138d9565b61013c80546001600160a01b0319166001600160a01b03929092169190911790556040517fea5646eb3528e525944447a4a97de700dd472298626e5c0481d1c82c3da86ea590600090a150565b306001600160a01b037f0000000000000000000000000000000000000000000000000000000000000000161415610e2f5760405162461bcd60e51b81526004016108b890613d7a565b7f00000000000000000000000000000000000000000000000000000000000000006001600160a01b0316610e78600080516020614156833981519152546001600160a01b031690565b6001600160a01b031614610e9e5760405162461bcd60e51b81526004016108b890613dc6565b610ea782611be9565b6108cb82826001611bf4565b6000306001600160a01b037f00000000000000000000000000000000000000000000000000000000000000001614610f535760405162461bcd60e51b815260206004820152603860248201527f555550535570677261646561626c653a206d757374206e6f742062652063616c60448201527f6c6564207468726f7567682064656c656761746563616c6c000000000000000060648201526084016108b8565b5060008051602061415683398151915290565b600054610100900460ff1615808015610f865750600054600160ff909116105b80610fa05750303b158015610fa0575060005460ff166001145b610fbc5760405162461bcd60e51b81526004016108b890613e12565b6000805460ff191660011790558015610fdf576000805461ff0019166101001790555b610fe7611d6e565b80156109ac576000805461ff0019169055604051600181527f7f26b83ff96e1f2b6a682f133852f6798a09c465da95921460cefb3847402498906020015b60405180910390a150565b60009182526065602090815260408084206001600160a01b0393909316845291905290205460ff1690565b600061081d60016118bd565b611072600033611030565b6110b55760405162461bcd60e51b81526020600482015260146024820152735265737472696374656420746f2061646d696e7360601b60448201526064016108b8565b6001600160a01b03811661110b5760405162461bcd60e51b815260206004820152601860248201527f5a65726f2061646472657373206e6f7420616c6c6f776564000000000000000060448201526064016108b8565b60fb5461113090600080516020614136833981519152906001600160a01b031661153b565b61114860008051602061413683398151915282610822565b60fb80546001600160a01b0319166001600160a01b0383169081179091556040519081527ff7b449fcd5cfb7379dcd34cb69428dd9f882033b15be33d83b42d91daa28eeb790602001611025565b6111ae60008051602061413683398151915233611030565b6111ca5760405162461bcd60e51b81526004016108b890613d43565b6000611248306001600160a01b031663a3673b386040518163ffffffff1660e01b815260040160206040518083038186803b15801561120857600080fd5b505afa15801561121c573d6000803e3d6000fd5b505050506040513d601f19601f820116820180604052508101906112409190613af6565b60fd54611e53565b6040516370a0823160e01b81523060048201529091506112cd9084906001600160a01b038216906370a082319060240160206040518083038186803b15801561129057600080fd5b505afa1580156112a4573d6000803e3d6000fd5b505050506040513d601f19601f820116820180604052508101906112c89190613af6565b611e7d565b80306001600160a01b031663a3673b386040518163ffffffff1660e01b815260040160206040518083038186803b15801561130757600080fd5b505afa15801561131b573d6000803e3d6000fd5b505050506040513d601f19601f8201168201806040525081019061133f9190613af6565b101561138d5760405162461bcd60e51b815260206004820152601f60248201527f5374726174656779204e4156206c657373207468616e2065787065637465640060448201526064016108b8565b6040518281527f227a473b70d2f893cc7659219575c030a63b5743024fe1e0c1a680e708b1525a906020015b60405180910390a1505050565b6113f07fd67ad422505496469a1adf6cdf9e5ee92ac5d33992843c9ecc4b2f6d6cde913733611030565b80611497575060fb54604051632474521560e21b81527fd67ad422505496469a1adf6cdf9e5ee92ac5d33992843c9ecc4b2f6d6cde913760048201523360248201526001600160a01b03909116906391d148549060440160206040518083038186803b15801561145f57600080fd5b505afa158015611473573d6000803e3d6000fd5b505050506040513d601f19601f820116820180604052508101906114979190613ac0565b6114ee5760405162461bcd60e51b815260206004820152602260248201527f5265737472696374656420746f20504f5254464f4c494f5f4147454e545f524f6044820152614c4560f01b60648201526084016108b8565b60fc83905560fd82905560fe81905560408051848152602081018490529081018290527f116fbf1e97a2be629ad98abfb6c332733c8996c2dfb174dd2efe8440df381d1a906060016113b9565b60008281526065602052604090206001015461155681611af2565b6108478383611b82565b600061157a60008051602061413683398151915233611030565b6115965760405162461bcd60e51b81526004016108b890613d43565b60006115a183612287565b905080156115dd576040518181527f3ac0594a85a20354f9dc74f33728416d19ce00d04a406c108cc2dcf2cecea1349060200160405180910390a15b90505b919050565b60006115ff60008051602061413683398151915233611030565b61161b5760405162461bcd60e51b81526004016108b890613d43565b6000611659306001600160a01b031663a3673b386040518163ffffffff1660e01b815260040160206040518083038186803b15801561120857600080fd5b905060008084156116805761166d86612287565b9050611679888761272b565b91506116ef565b61168b888888612a68565b9150868210156116ef5760405162461bcd60e51b815260206004820152602960248201527f52657475726e65642076616c7565206c657373207468616e2072657175657374604482015268195908185b5bdd5b9d60ba1b60648201526084016108b8565b82306001600160a01b031663a3673b386040518163ffffffff1660e01b815260040160206040518083038186803b15801561172957600080fd5b505afa15801561173d573d6000803e3d6000fd5b505050506040513d601f19601f820116820180604052508101906117619190613af6565b10156117af5760405162461bcd60e51b815260206004820152601f60248201527f5374726174656779204e4156206c657373207468616e2065787065637465640060448201526064016108b8565b60405163a9059cbb60e01b81526001600160a01b0389169063a9059cbb906117dd9089908690600401613d17565b602060405180830381600087803b1580156117f757600080fd5b505af115801561180b573d6000803e3d6000fd5b505050506040513d601f19601f8201168201806040525081019061182f9190613ac0565b5060408051888152602081018490527f9045c2ac9b2026de8075f2701bbdde882cd5e830b3b1ead9a15b22f2b5b93742910160405180910390a180156118a3576040518181527f3ac0594a85a20354f9dc74f33728416d19ce00d04a406c108cc2dcf2cecea1349060200160405180910390a15b509695505050505050565b6001600160a01b03163b151590565b61012d546040516370a0823160e01b815230600482015260009182916001600160a01b03909116906370a082319060240160206040518083038186803b15801561190657600080fd5b505afa15801561191a573d6000803e3d6000fd5b505050506040513d601f19601f8201168201806040525081019061193e9190613af6565b61012e546040516370a0823160e01b81523060048201529192506001600160a01b0316906370a082319060240160206040518083038186803b15801561198357600080fd5b505afa158015611997573d6000803e3d6000fd5b505050506040513d601f19601f820116820180604052508101906119bb9190613af6565b6119c59082613f44565b610139546040516370a0823160e01b81523060048201529192506000916001600160a01b03909116906370a082319060240160206040518083038186803b158015611a0f57600080fd5b505afa158015611a23573d6000803e3d6000fd5b505050506040513d601f19601f82011682018060405250810190611a479190613af6565b90508015611aeb576101345461012e5460405163907448ed60e01b81526000926001600160a01b039081169263907448ed92611a8b92909116908690600401613d17565b604080518083038186803b158015611aa257600080fd5b505afa158015611ab6573d6000803e3d6000fd5b505050506040513d601f19601f82011682018060405250810190611ada9190613ba3565b509050611ae78184613f44565b9250505b5092915050565b6109ac8133612dd0565b611b068282611030565b6108cb5760008281526065602090815260408083206001600160a01b03851684529091529020805460ff19166001179055611b3e3390565b6001600160a01b0316816001600160a01b0316837f2f8788117e7eff1d82e926ec794901d17c78024a50270940304540a733656f0d60405160405180910390a45050565b611b8c8282611030565b156108cb5760008281526065602090815260408083206001600160a01b0385168085529252808320805460ff1916905551339285917ff6391f5c32d9c69d2a47ea670b442974b53935d1edc7fd64eb21e047a839171b9190a45050565b60006108cb81611af2565b7f4910fdfa16fed3260ed0e7147f7cc6da11a60208b5b9406d12a635614ffd91435460ff1615611c275761084783612e29565b826001600160a01b03166352d1902d6040518163ffffffff1660e01b815260040160206040518083038186803b158015611c6057600080fd5b505afa925050508015611c90575060408051601f3d908101601f19168201909252611c8d91810190613af6565b60015b611cf35760405162461bcd60e51b815260206004820152602e60248201527f45524331393637557067726164653a206e657720696d706c656d656e7461746960448201526d6f6e206973206e6f74205555505360901b60648201526084016108b8565b6000805160206141568339815191528114611d625760405162461bcd60e51b815260206004820152602960248201527f45524331393637557067726164653a20756e737570706f727465642070726f786044820152681a58589b195555525160ba1b60648201526084016108b8565b50610847838383612ec5565b600054610100900460ff1615808015611d8e5750600054600160ff909116105b80611da85750303b158015611da8575060005460ff166001145b611dc45760405162461bcd60e51b81526004016108b890613e12565b6000805460ff191660011790558015611de7576000805461ff0019166101001790555b611def612ef0565b611df7612ef0565b611e02600033611afc565b601460fc81905560fd55600460fe5580156109ac576000805461ff0019169055604051600181527f7f26b83ff96e1f2b6a682f133852f6798a09c465da95921460cefb384740249890602001611025565b6000612710611e62838261408b565b611e6c908561406c565b611e769190613f5c565b9392505050565b611e85612f5d565b61012e546040516370a0823160e01b81523060048201526000916001600160a01b0316906370a082319060240160206040518083038186803b158015611eca57600080fd5b505afa158015611ede573d6000803e3d6000fd5b505050506040513d601f19601f82011682018060405250810190611f029190613af6565b6101345461012e546040516361858e2360e01b81529293506000926001600160a01b03928316926361858e2392611f40929116908690600401613d17565b604080518083038186803b158015611f5757600080fd5b505afa158015611f6b573d6000803e3d6000fd5b505050506040513d601f19601f82011682018060405250810190611f8f9190613ba3565b5061012e546101345460405163095ea7b360e01b81529293506001600160a01b039182169263095ea7b392611fca9216908690600401613d17565b602060405180830381600087803b158015611fe457600080fd5b505af1158015611ff8573d6000803e3d6000fd5b505050506040513d601f19601f8201168201806040525081019061201c9190613ac0565b506101345461012e5460fe546001600160a01b0392831692636281baef9216908590612049908690611e53565b6040516001600160e01b031960e086901b1681526001600160a01b03909316600484015260248301919091526044820152306064820152426084820152600060a482015260c401602060405180830381600087803b1580156120aa57600080fd5b505af11580156120be573d6000803e3d6000fd5b505050506040513d601f19601f820116820180604052508101906120e29190613af6565b50610131546040516370a0823160e01b81523060048201526000916001600160a01b0316906370a082319060240160206040518083038186803b15801561212857600080fd5b505afa15801561213c573d6000803e3d6000fd5b505050506040513d601f19601f820116820180604052508101906121609190613af6565b610131546101375460405163095ea7b360e01b81529293506001600160a01b039182169263095ea7b39261219a9216908590600401613d17565b602060405180830381600087803b1580156121b457600080fd5b505af11580156121c8573d6000803e3d6000fd5b505050506040513d601f19601f820116820180604052508101906121ec9190613ac0565b5061013754610138546040516321d0683360e11b8152600481019190915260248101839052600160448201526001600160a01b03909116906343a0d06690606401602060405180830381600087803b15801561224757600080fd5b505af115801561225b573d6000803e3d6000fd5b505050506040513d601f19601f8201168201806040525081019061227f9190613ac0565b505050505050565b61013954604051637050ccd960e01b8152306004820152600060248201819052916001600160a01b031690637050ccd990604401600060405180830381600087803b1580156122d557600080fd5b505af11580156122e9573d6000803e3d6000fd5b505061012d546040516370a0823160e01b8152306004820152600093506001600160a01b0390911691506370a082319060240160206040518083038186803b15801561233457600080fd5b505afa158015612348573d6000803e3d6000fd5b505050506040513d601f19601f8201168201806040525081019061236c9190613af6565b610130546040516370a0823160e01b81523060048201529192506000916001600160a01b03909116906370a082319060240160206040518083038186803b1580156123b657600080fd5b505afa1580156123ca573d6000803e3d6000fd5b505050506040513d601f19601f820116820180604052508101906123ee9190613af6565b9050801561244557610136546101305461012f5461012d54600093612442936001600160a01b0380831694918116939181169291169062ffffff600160a01b8204811691600160b81b900416308989613018565b50505b61013a546040516370a0823160e01b81523060048201526000916001600160a01b0316906370a082319060240160206040518083038186803b15801561248a57600080fd5b505afa15801561249e573d6000803e3d6000fd5b505050506040513d601f19601f820116820180604052508101906124c29190613af6565b905080156126085760408051600480825260a0820190925260009160208201608080368337505061013a5482519293506001600160a01b03169183915060009061250e5761250e6140fb565b6001600160a01b03928316602091820292909201015261012f54825191169082906001908110612540576125406140fb565b6001600160a01b03928316602091820292909201015261013b54825191169082906002908110612572576125726140fb565b6001600160a01b03928316602091820292909201015261012d548251911690829060039081106125a4576125a46140fb565b6001600160a01b03928316602091820292909201015261013c546000916125cd911683856131a7565b905080156126055761013c54612605906001600160a01b0316838560646125f586606361406c565b6125ff9190613f5c565b3061324f565b50505b61012d546040516370a0823160e01b815230600482015260009185916001600160a01b03909116906370a082319060240160206040518083038186803b15801561265157600080fd5b505afa158015612665573d6000803e3d6000fd5b505050506040513d601f19601f820116820180604052508101906126899190613af6565b612693919061408b565b905080156127225761012d5460405163a9059cbb60e01b81526001600160a01b039091169063a9059cbb906126ce9089908590600401613d17565b602060405180830381600087803b1580156126e857600080fd5b505af11580156126fc573d6000803e3d6000fd5b505050506040513d601f19601f820116820180604052508101906127209190613ac0565b505b95945050505050565b610139546040516370a0823160e01b815230600482015260009182916001600160a01b03909116906370a082319060240160206040518083038186803b15801561277457600080fd5b505afa158015612788573d6000803e3d6000fd5b505050506040513d601f19601f820116820180604052508101906127ac9190613af6565b61013954604051636197390160e11b815260048101839052600060248201529192506001600160a01b03169063c32e720290604401600060405180830381600087803b1580156127fb57600080fd5b505af115801561280f573d6000803e3d6000fd5b50506101345461012e5460405163907448ed60e01b8152600094506001600160a01b03928316935063907448ed9261284d9216908690600401613d17565b604080518083038186803b15801561286457600080fd5b505afa158015612878573d6000803e3d6000fd5b505050506040513d601f19601f8201168201806040525081019061289c9190613ba3565b50610131546101345460405163095ea7b360e01b81529293506001600160a01b039182169263095ea7b3926128d79216908690600401613d17565b602060405180830381600087803b1580156128f157600080fd5b505af1158015612905573d6000803e3d6000fd5b505050506040513d601f19601f820116820180604052508101906129299190613ac0565b506101345461012e546001600160a01b03918216916309a5fca3911684612951856001611e53565b6040516001600160e01b031960e086901b1681526001600160a01b0390931660048401526024830191909152604482015230606482015242608482015260a401602060405180830381600087803b1580156129ab57600080fd5b505af11580156129bf573d6000803e3d6000fd5b505050506040513d601f19601f820116820180604052508101906129e39190613af6565b506129ec61335a565b61012d546040516370a0823160e01b81523060048201526001600160a01b03909116906370a082319060240160206040518083038186803b158015612a3057600080fd5b505afa158015612a44573d6000803e3d6000fd5b505050506040513d601f19601f82011682018060405250810190611ae79190613af6565b6101345461012e546101325460405163907448ed60e01b815260009384936001600160a01b039182169363907448ed93612aa89390921691600401613d17565b604080518083038186803b158015612abf57600080fd5b505afa158015612ad3573d6000803e3d6000fd5b505050506040513d601f19601f82011682018060405250810190612af79190613ba3565b50905060008161013254612b0d8760fc54613415565b612b17919061406c565b612b219190613f5c565b610139546040516370a0823160e01b81523060048201529192506000916001600160a01b03909116906370a082319060240160206040518083038186803b158015612b6b57600080fd5b505afa158015612b7f573d6000803e3d6000fd5b505050506040513d601f19601f82011682018060405250810190612ba39190613af6565b905080821115612bb1578091505b61013954604051636197390160e11b815260048101849052600060248201526001600160a01b039091169063c32e720290604401600060405180830381600087803b158015612bff57600080fd5b505af1158015612c13573d6000803e3d6000fd5b5050610131546101345460405163095ea7b360e01b81526001600160a01b03928316945063095ea7b39350612c5092909116908690600401613d17565b602060405180830381600087803b158015612c6a57600080fd5b505af1158015612c7e573d6000803e3d6000fd5b505050506040513d601f19601f82011682018060405250810190612ca29190613ac0565b506101345461012e546040516309a5fca360e01b81526001600160a01b03918216600482015260248101859052604481018990523060648201524260848201529116906309a5fca39060a401602060405180830381600087803b158015612d0857600080fd5b505af1158015612d1c573d6000803e3d6000fd5b505050506040513d601f19601f82011682018060405250810190612d409190613af6565b50612d4961335a565b61012d546040516370a0823160e01b81523060048201526001600160a01b03909116906370a082319060240160206040518083038186803b158015612d8d57600080fd5b505afa158015612da1573d6000803e3d6000fd5b505050506040513d601f19601f82011682018060405250810190612dc59190613af6565b979650505050505050565b612dda8282611030565b6108cb57612de781613424565b612df2836020613436565b604051602001612e03929190613ca2565b60408051601f198184030181529082905262461bcd60e51b82526108b891600401613d30565b6001600160a01b0381163b612e965760405162461bcd60e51b815260206004820152602d60248201527f455243313936373a206e657720696d706c656d656e746174696f6e206973206e60448201526c1bdd08184818dbdb9d1c9858dd609a1b60648201526084016108b8565b60008051602061415683398151915280546001600160a01b0319166001600160a01b0392909216919091179055565b612ece836135d2565b600082511180612edb5750805b1561084757612eea8383613612565b50505050565b600054610100900460ff16612f5b5760405162461bcd60e51b815260206004820152602b60248201527f496e697469616c697a61626c653a20636f6e7472616374206973206e6f74206960448201526a6e697469616c697a696e6760a81b60648201526084016108b8565b565b61012d546040516370a0823160e01b81523060048201526000916001600160a01b0316906370a082319060240160206040518083038186803b158015612fa257600080fd5b505afa158015612fb6573d6000803e3d6000fd5b505050506040513d601f19601f82011682018060405250810190612fda9190613af6565b90506000612fea8260fc54611e53565b6101365461012d5461012e54929350610847926001600160a01b0392831692918216911660643087876136fd565b60405163095ea7b360e01b81526000906001600160a01b038a169063095ea7b390613049908d908790600401613d17565b602060405180830381600087803b15801561306357600080fd5b505af1158015613077573d6000803e3d6000fd5b505050506040513d601f19601f8201168201806040525081019061309b9190613ac0565b50604080516080810182526bffffffffffffffffffffffff1960608c811b821660a08401526001600160e81b031960e88b811b821660b48601528d831b841660b78601528a901b1660cb8401528a811b90911660ce830152825180830360c201815260e28301845282526001600160a01b038781166020840152828401879052908201859052915163b858183f60e01b815290918c169063b858183f90613146908490600401613e60565b602060405180830381600087803b15801561316057600080fd5b505af1158015613174573d6000803e3d6000fd5b505050506040513d601f19601f820116820180604052508101906131989190613af6565b9b9a5050505050505050505050565b60405163d06ca61f60e01b81526000906001600160a01b0385169063d06ca61f906131d89085908790600401613eae565b60006040518083038186803b1580156131f057600080fd5b505afa158015613204573d6000803e3d6000fd5b505050506040513d6000823e601f3d908101601f1916820160405261322c9190810190613a13565b60018151811061323e5761323e6140fb565b602002602001015190509392505050565b83600081518110613262576132626140fb565b60200260200101516001600160a01b031663095ea7b386856040518363ffffffff1660e01b8152600401613297929190613d17565b602060405180830381600087803b1580156132b157600080fd5b505af11580156132c5573d6000803e3d6000fd5b505050506040513d601f19601f820116820180604052508101906132e99190613ac0565b5060405163561c49dd60e11b81526001600160a01b0386169063ac3893ba906133219086908690899087906000904290600401613ecf565b600060405180830381600087803b15801561333b57600080fd5b505af115801561334f573d6000803e3d6000fd5b505050505050505050565b61012e546040516370a0823160e01b81523060048201526000916001600160a01b0316906370a082319060240160206040518083038186803b15801561339f57600080fd5b505afa1580156133b3573d6000803e3d6000fd5b505050506040513d601f19601f820116820180604052508101906133d79190613af6565b905060006133e78260fc54611e53565b6101365461012e5461012d54929350610847926001600160a01b0392831692918216911660643087876136fd565b6000612710611e628382613f44565b606061080b6001600160a01b03831660145b6060600061344583600261406c565b613450906002613f44565b67ffffffffffffffff81111561346857613468614111565b6040519080825280601f01601f191660200182016040528015613492576020820181803683370190505b509050600360fc1b816000815181106134ad576134ad6140fb565b60200101906001600160f81b031916908160001a905350600f60fb1b816001815181106134dc576134dc6140fb565b60200101906001600160f81b031916908160001a905350600061350084600261406c565b61350b906001613f44565b90505b6001811115613583576f181899199a1a9b1b9c1cb0b131b232b360811b85600f166010811061353f5761353f6140fb565b1a60f81b828281518110613555576135556140fb565b60200101906001600160f81b031916908160001a90535060049490941c9361357c816140ce565b905061350e565b508315611e765760405162461bcd60e51b815260206004820181905260248201527f537472696e67733a20686578206c656e67746820696e73756666696369656e7460448201526064016108b8565b6135db81612e29565b6040516001600160a01b038216907fbc7cd75a20ee27fd9adebab32041f755214dbc6bffa90cc0225b39da2e5c2d3b90600090a250565b60606001600160a01b0383163b61367a5760405162461bcd60e51b815260206004820152602660248201527f416464726573733a2064656c65676174652063616c6c20746f206e6f6e2d636f6044820152651b9d1c9858dd60d21b60648201526084016108b8565b600080846001600160a01b0316846040516136959190613c86565b600060405180830381855af49150503d80600081146136d0576040519150601f19603f3d011682016040523d82523d6000602084013e6136d5565b606091505b5091509150611ae7828260405180606001604052806027815260200161417660279139613884565b60405163095ea7b360e01b81526000906001600160a01b0388169063095ea7b39061372e908b908790600401613d17565b602060405180830381600087803b15801561374857600080fd5b505af115801561375c573d6000803e3d6000fd5b505050506040513d601f19601f820116820180604052508101906137809190613ac0565b506040805160e0810182526001600160a01b0389811682528881166020830190815262ffffff89811684860190815289841660608601908152608086018a815260a087018a8152600060c0890190815298516304e45aaf60e01b8152885188166004820152955187166024870152925190931660448501525184166064840152905160848301525160a48201529251811660c48401529091908a16906304e45aaf9060e401602060405180830381600087803b15801561383f57600080fd5b505af1158015613853573d6000803e3d6000fd5b505050506040513d601f19601f820116820180604052508101906138779190613af6565b9998505050505050505050565b60608315613893575081611e76565b611e7683838151156138a85781518083602001fd5b8060405162461bcd60e51b81526004016108b89190613d30565b80356001600160a01b03811681146115e057600080fd5b6000602082840312156138eb57600080fd5b611e76826138c2565b6000806040838503121561390757600080fd5b613910836138c2565b915060208084013567ffffffffffffffff8082111561392e57600080fd5b818601915086601f83011261394257600080fd5b81358181111561395457613954614111565b613966601f8201601f19168501613f13565b9150808252878482850101111561397c57600080fd5b80848401858401376000848284010152508093505050509250929050565b600080604083850312156139ad57600080fd5b6139b6836138c2565b946020939093013593505050565b600080600080608085870312156139da57600080fd5b6139e3856138c2565b9350602085013592506139f8604086016138c2565b91506060850135613a0881614127565b939692955090935050565b60006020808385031215613a2657600080fd5b825167ffffffffffffffff80821115613a3e57600080fd5b818501915085601f830112613a5257600080fd5b815181811115613a6457613a64614111565b8060051b9150613a75848301613f13565b8181528481019084860184860187018a1015613a9057600080fd5b600095505b83861015613ab3578051835260019590950194918601918601613a95565b5098975050505050505050565b600060208284031215613ad257600080fd5b8151611e7681614127565b600060208284031215613aef57600080fd5b5035919050565b600060208284031215613b0857600080fd5b5051919050565b60008060408385031215613b2257600080fd5b82359150613b32602084016138c2565b90509250929050565b600060208284031215613b4d57600080fd5b81356001600160e01b031981168114611e7657600080fd5b60006102208284031215613b7857600080fd5b50919050565b600060208284031215613b9057600080fd5b813562ffffff81168114611e7657600080fd5b60008060408385031215613bb657600080fd5b505080516020909101519092909150565b600080600060608486031215613bdc57600080fd5b505081359360208301359350604090920135919050565b600060208284031215613c0557600080fd5b815160ff81168114611e7657600080fd5b600081518084526020808501945080840160005b83811015613c4f5781516001600160a01b031687529582019590820190600101613c2a565b509495945050505050565b60008151808452613c728160208601602086016140a2565b601f01601f19169290920160200192915050565b60008251613c988184602087016140a2565b9190910192915050565b7f416363657373436f6e74726f6c3a206163636f756e7420000000000000000000815260008351613cda8160178501602088016140a2565b7001034b99036b4b9b9b4b733903937b6329607d1b6017918401918201528351613d0b8160288401602088016140a2565b01602801949350505050565b6001600160a01b03929092168252602082015260400190565b602081526000611e766020830184613c5a565b6020808252601f908201527f5265737472696374656420746f20504f5254464f4c494f5f4d414e4147455200604082015260600190565b6020808252602c908201527f46756e6374696f6e206d7573742062652063616c6c6564207468726f7567682060408201526b19195b1959d85d1958d85b1b60a21b606082015260800190565b6020808252602c908201527f46756e6374696f6e206d7573742062652063616c6c6564207468726f7567682060408201526b6163746976652070726f787960a01b606082015260800190565b6020808252602e908201527f496e697469616c697a61626c653a20636f6e747261637420697320616c72656160408201526d191e481a5b9a5d1a585b1a5e995960921b606082015260800190565b602081526000825160806020840152613e7c60a0840182613c5a565b905060018060a01b03602085015116604084015260408401516060840152606084015160808401528091505092915050565b828152604060208201526000613ec76040830184613c16565b949350505050565b86815285602082015260c060408201526000613eee60c0830187613c16565b6001600160a01b03958616606084015293909416608082015260a00152949350505050565b604051601f8201601f1916810167ffffffffffffffff81118282101715613f3c57613f3c614111565b604052919050565b60008219821115613f5757613f576140e5565b500190565b600082613f7957634e487b7160e01b600052601260045260246000fd5b500490565b600181815b80851115613fb9578160001904821115613f9f57613f9f6140e5565b80851615613fac57918102915b93841c9390800290613f83565b509250929050565b6000611e7660ff841683600082613fda5750600161080b565b81613fe75750600061080b565b8160018114613ffd576002811461400757614023565b600191505061080b565b60ff841115614018576140186140e5565b50506001821b61080b565b5060208310610133831016604e8410600b8410161715614046575081810a61080b565b6140508383613f7e565b8060001904821115614064576140646140e5565b029392505050565b6000816000190483118215151615614086576140866140e5565b500290565b60008282101561409d5761409d6140e5565b500390565b60005b838110156140bd5781810151838201526020016140a5565b83811115612eea5750506000910152565b6000816140dd576140dd6140e5565b506000190190565b634e487b7160e01b600052601160045260246000fd5b634e487b7160e01b600052603260045260246000fd5b634e487b7160e01b600052604160045260246000fd5b80151581146109ac57600080fdfe90c2aa7471c04182221f68e80c07ab1e5946e4c63f8693e14ca40385d529f051360894a13ba1a3210667c828492db98dca3e2076cc3735a920a3ca505d382bbc416464726573733a206c6f772d6c6576656c2064656c65676174652063616c6c206661696c6564a2646970667358221220740c293b98177f4d4133e7f242744a048ed9572bd5057df70cdc0ab033b0a30f64736f6c63430008060033",
  "implementation": "0xE11A951237F81E5F408B76E01C3914876c60c2d4",
  "devdoc": {
    "details": "Self-investment strategy 1) Buy DAI+ by next routing: (DAI->DAI+) in Uniswap v3 (0.01%) 2) invest DAI+ to Overnight pool on Wombat 3) Stake lp tokens in Wombex Sell rewards: - WOM on UniswapV3 - WMX on Camelot",
    "kind": "dev",
    "methods": {
      "constructor": {
        "custom:oz-upgrades-unsafe-allow": "constructor"
      },
      "getRoleAdmin(bytes32)": {
        "details": "Returns the admin role that controls `role`. See {grantRole} and {revokeRole}. To change a role's admin, use {_setRoleAdmin}."
      },
      "grantRole(bytes32,address)": {
        "details": "Grants `role` to `account`. If `account` had not been already granted `role`, emits a {RoleGranted} event. Requirements: - the caller must have ``role``'s admin role. May emit a {RoleGranted} event."
      },
      "hasRole(bytes32,address)": {
        "details": "Returns `true` if `account` has been granted `role`."
      },
      "proxiableUUID()": {
        "details": "Implementation of the ERC1822 {proxiableUUID} function. This returns the storage slot used by the implementation. It is used to validate the implementation's compatibility when performing an upgrade. IMPORTANT: A proxy pointing at a proxiable contract should not be considered proxiable itself, because this risks bricking a proxy that upgrades to it, by delegating to itself until out of gas. Thus it is critical that this function revert if invoked through a proxy. This is guaranteed by the `notDelegated` modifier."
      },
      "renounceRole(bytes32,address)": {
        "details": "Revokes `role` from the calling account. Roles are often managed via {grantRole} and {revokeRole}: this function's purpose is to provide a mechanism for accounts to lose their privileges if they are compromised (such as when a trusted device is misplaced). If the calling account had been revoked `role`, emits a {RoleRevoked} event. Requirements: - the caller must be `account`. May emit a {RoleRevoked} event."
      },
      "revokeRole(bytes32,address)": {
        "details": "Revokes `role` from `account`. If `account` had been granted `role`, emits a {RoleRevoked} event. Requirements: - the caller must have ``role``'s admin role. May emit a {RoleRevoked} event."
      },
      "supportsInterface(bytes4)": {
        "details": "See {IERC165-supportsInterface}."
      },
      "upgradeTo(address)": {
        "details": "Upgrade the implementation of the proxy to `newImplementation`. Calls {_authorizeUpgrade}. Emits an {Upgraded} event."
      },
      "upgradeToAndCall(address,bytes)": {
        "details": "Upgrade the implementation of the proxy to `newImplementation`, and subsequently execute the function call encoded in `data`. Calls {_authorizeUpgrade}. Emits an {Upgraded} event."
      }
    },
    "version": 1
  },
  "userdoc": {
    "kind": "user",
    "methods": {},
    "version": 1
  },
  "storageLayout": {
    "storage": [
      {
        "astId": 804,
        "contract": "contracts/dai/StrategyWombatOvnDaiPlus.sol:StrategyWombatOvnDaiPlus",
        "label": "_initialized",
        "offset": 0,
        "slot": "0",
        "type": "t_uint8"
      },
      {
        "astId": 807,
        "contract": "contracts/dai/StrategyWombatOvnDaiPlus.sol:StrategyWombatOvnDaiPlus",
        "label": "_initializing",
        "offset": 1,
        "slot": "0",
        "type": "t_bool"
      },
      {
        "astId": 1427,
        "contract": "contracts/dai/StrategyWombatOvnDaiPlus.sol:StrategyWombatOvnDaiPlus",
        "label": "__gap",
        "offset": 0,
        "slot": "1",
        "type": "t_array(t_uint256)50_storage"
      },
      {
        "astId": 1706,
        "contract": "contracts/dai/StrategyWombatOvnDaiPlus.sol:StrategyWombatOvnDaiPlus",
        "label": "__gap",
        "offset": 0,
        "slot": "51",
        "type": "t_array(t_uint256)50_storage"
      },
      {
        "astId": 39,
        "contract": "contracts/dai/StrategyWombatOvnDaiPlus.sol:StrategyWombatOvnDaiPlus",
        "label": "_roles",
        "offset": 0,
        "slot": "101",
        "type": "t_mapping(t_bytes32,t_struct(RoleData)34_storage)"
      },
      {
        "astId": 334,
        "contract": "contracts/dai/StrategyWombatOvnDaiPlus.sol:StrategyWombatOvnDaiPlus",
        "label": "__gap",
        "offset": 0,
        "slot": "102",
        "type": "t_array(t_uint256)49_storage"
      },
      {
        "astId": 786,
        "contract": "contracts/dai/StrategyWombatOvnDaiPlus.sol:StrategyWombatOvnDaiPlus",
        "label": "__gap",
        "offset": 0,
        "slot": "151",
        "type": "t_array(t_uint256)50_storage"
      },
      {
        "astId": 1101,
        "contract": "contracts/dai/StrategyWombatOvnDaiPlus.sol:StrategyWombatOvnDaiPlus",
        "label": "__gap",
        "offset": 0,
        "slot": "201",
        "type": "t_array(t_uint256)50_storage"
      },
      {
        "astId": 6916,
        "contract": "contracts/dai/StrategyWombatOvnDaiPlus.sol:StrategyWombatOvnDaiPlus",
        "label": "portfolioManager",
        "offset": 0,
        "slot": "251",
        "type": "t_address"
      },
      {
        "astId": 6918,
        "contract": "contracts/dai/StrategyWombatOvnDaiPlus.sol:StrategyWombatOvnDaiPlus",
        "label": "swapSlippageBP",
        "offset": 0,
        "slot": "252",
        "type": "t_uint256"
      },
      {
        "astId": 6920,
        "contract": "contracts/dai/StrategyWombatOvnDaiPlus.sol:StrategyWombatOvnDaiPlus",
        "label": "navSlippageBP",
        "offset": 0,
        "slot": "253",
        "type": "t_uint256"
      },
      {
        "astId": 6922,
        "contract": "contracts/dai/StrategyWombatOvnDaiPlus.sol:StrategyWombatOvnDaiPlus",
        "label": "stakeSlippageBP",
        "offset": 0,
        "slot": "254",
        "type": "t_uint256"
      },
      {
        "astId": 7307,
        "contract": "contracts/dai/StrategyWombatOvnDaiPlus.sol:StrategyWombatOvnDaiPlus",
        "label": "__gap",
        "offset": 0,
        "slot": "255",
        "type": "t_array(t_uint256)46_storage"
      },
      {
        "astId": 8239,
        "contract": "contracts/dai/StrategyWombatOvnDaiPlus.sol:StrategyWombatOvnDaiPlus",
        "label": "dai",
        "offset": 0,
        "slot": "301",
        "type": "t_contract(IERC20)2662"
      },
      {
        "astId": 8242,
        "contract": "contracts/dai/StrategyWombatOvnDaiPlus.sol:StrategyWombatOvnDaiPlus",
        "label": "daiPlus",
        "offset": 0,
        "slot": "302",
        "type": "t_contract(IERC20)2662"
      },
      {
        "astId": 8245,
        "contract": "contracts/dai/StrategyWombatOvnDaiPlus.sol:StrategyWombatOvnDaiPlus",
        "label": "usdt",
        "offset": 0,
        "slot": "303",
        "type": "t_contract(IERC20)2662"
      },
      {
        "astId": 8248,
        "contract": "contracts/dai/StrategyWombatOvnDaiPlus.sol:StrategyWombatOvnDaiPlus",
        "label": "wom",
        "offset": 0,
        "slot": "304",
        "type": "t_contract(IERC20)2662"
      },
      {
        "astId": 8251,
        "contract": "contracts/dai/StrategyWombatOvnDaiPlus.sol:StrategyWombatOvnDaiPlus",
        "label": "assetWombat",
        "offset": 0,
        "slot": "305",
        "type": "t_contract(IWombatAsset)5703"
      },
      {
        "astId": 8253,
        "contract": "contracts/dai/StrategyWombatOvnDaiPlus.sol:StrategyWombatOvnDaiPlus",
        "label": "assetWombatDm",
        "offset": 0,
        "slot": "306",
        "type": "t_uint256"
      },
      {
        "astId": 8256,
        "contract": "contracts/dai/StrategyWombatOvnDaiPlus.sol:StrategyWombatOvnDaiPlus",
        "label": "basePoolWombat",
        "offset": 0,
        "slot": "307",
        "type": "t_contract(IWombatPool)5619"
      },
      {
        "astId": 8259,
        "contract": "contracts/dai/StrategyWombatOvnDaiPlus.sol:StrategyWombatOvnDaiPlus",
        "label": "poolWombat",
        "offset": 0,
        "slot": "308",
        "type": "t_contract(IWombatPool)5619"
      },
      {
        "astId": 8262,
        "contract": "contracts/dai/StrategyWombatOvnDaiPlus.sol:StrategyWombatOvnDaiPlus",
        "label": "router",
        "offset": 0,
        "slot": "309",
        "type": "t_contract(IWombatRouter)5975"
      },
      {
        "astId": 8265,
        "contract": "contracts/dai/StrategyWombatOvnDaiPlus.sol:StrategyWombatOvnDaiPlus",
        "label": "uniswapV3Router",
        "offset": 0,
        "slot": "310",
        "type": "t_contract(ISwapRouter)3453"
      },
      {
        "astId": 8267,
        "contract": "contracts/dai/StrategyWombatOvnDaiPlus.sol:StrategyWombatOvnDaiPlus",
        "label": "poolFee0",
        "offset": 20,
        "slot": "310",
        "type": "t_uint24"
      },
      {
        "astId": 8269,
        "contract": "contracts/dai/StrategyWombatOvnDaiPlus.sol:StrategyWombatOvnDaiPlus",
        "label": "poolFee1",
        "offset": 23,
        "slot": "310",
        "type": "t_uint24"
      },
      {
        "astId": 8272,
        "contract": "contracts/dai/StrategyWombatOvnDaiPlus.sol:StrategyWombatOvnDaiPlus",
        "label": "wombexBooster",
        "offset": 0,
        "slot": "311",
        "type": "t_contract(IWombexBooster)6568"
      },
      {
        "astId": 8274,
        "contract": "contracts/dai/StrategyWombatOvnDaiPlus.sol:StrategyWombatOvnDaiPlus",
        "label": "wombexBoosterPid",
        "offset": 0,
        "slot": "312",
        "type": "t_uint256"
      },
      {
        "astId": 8277,
        "contract": "contracts/dai/StrategyWombatOvnDaiPlus.sol:StrategyWombatOvnDaiPlus",
        "label": "wombexVault",
        "offset": 0,
        "slot": "313",
        "type": "t_contract(IWombexVault)6585"
      },
      {
        "astId": 8280,
        "contract": "contracts/dai/StrategyWombatOvnDaiPlus.sol:StrategyWombatOvnDaiPlus",
        "label": "wmx",
        "offset": 0,
        "slot": "314",
        "type": "t_contract(IERC20)2662"
      },
      {
        "astId": 8283,
        "contract": "contracts/dai/StrategyWombatOvnDaiPlus.sol:StrategyWombatOvnDaiPlus",
        "label": "usdc",
        "offset": 0,
        "slot": "315",
        "type": "t_contract(IERC20)2662"
      },
      {
        "astId": 8286,
        "contract": "contracts/dai/StrategyWombatOvnDaiPlus.sol:StrategyWombatOvnDaiPlus",
        "label": "camelotRouter",
        "offset": 0,
        "slot": "316",
        "type": "t_contract(ICamelotRouter)2859"
      }
    ],
    "types": {
      "t_address": {
        "encoding": "inplace",
        "label": "address",
        "numberOfBytes": "20"
      },
      "t_array(t_uint256)46_storage": {
        "base": "t_uint256",
        "encoding": "inplace",
        "label": "uint256[46]",
        "numberOfBytes": "1472"
      },
      "t_array(t_uint256)49_storage": {
        "base": "t_uint256",
        "encoding": "inplace",
        "label": "uint256[49]",
        "numberOfBytes": "1568"
      },
      "t_array(t_uint256)50_storage": {
        "base": "t_uint256",
        "encoding": "inplace",
        "label": "uint256[50]",
        "numberOfBytes": "1600"
      },
      "t_bool": {
        "encoding": "inplace",
        "label": "bool",
        "numberOfBytes": "1"
      },
      "t_bytes32": {
        "encoding": "inplace",
        "label": "bytes32",
        "numberOfBytes": "32"
      },
      "t_contract(ICamelotRouter)2859": {
        "encoding": "inplace",
        "label": "contract ICamelotRouter",
        "numberOfBytes": "20"
      },
      "t_contract(IERC20)2662": {
        "encoding": "inplace",
        "label": "contract IERC20",
        "numberOfBytes": "20"
      },
      "t_contract(ISwapRouter)3453": {
        "encoding": "inplace",
        "label": "contract ISwapRouter",
        "numberOfBytes": "20"
      },
      "t_contract(IWombatAsset)5703": {
        "encoding": "inplace",
        "label": "contract IWombatAsset",
        "numberOfBytes": "20"
      },
      "t_contract(IWombatPool)5619": {
        "encoding": "inplace",
        "label": "contract IWombatPool",
        "numberOfBytes": "20"
      },
      "t_contract(IWombatRouter)5975": {
        "encoding": "inplace",
        "label": "contract IWombatRouter",
        "numberOfBytes": "20"
      },
      "t_contract(IWombexBooster)6568": {
        "encoding": "inplace",
        "label": "contract IWombexBooster",
        "numberOfBytes": "20"
      },
      "t_contract(IWombexVault)6585": {
        "encoding": "inplace",
        "label": "contract IWombexVault",
        "numberOfBytes": "20"
      },
      "t_mapping(t_address,t_bool)": {
        "encoding": "mapping",
        "key": "t_address",
        "label": "mapping(address => bool)",
        "numberOfBytes": "32",
        "value": "t_bool"
      },
      "t_mapping(t_bytes32,t_struct(RoleData)34_storage)": {
        "encoding": "mapping",
        "key": "t_bytes32",
        "label": "mapping(bytes32 => struct AccessControlUpgradeable.RoleData)",
        "numberOfBytes": "32",
        "value": "t_struct(RoleData)34_storage"
      },
      "t_struct(RoleData)34_storage": {
        "encoding": "inplace",
        "label": "struct AccessControlUpgradeable.RoleData",
        "members": [
          {
            "astId": 31,
            "contract": "contracts/dai/StrategyWombatOvnDaiPlus.sol:StrategyWombatOvnDaiPlus",
            "label": "members",
            "offset": 0,
            "slot": "0",
            "type": "t_mapping(t_address,t_bool)"
          },
          {
            "astId": 33,
            "contract": "contracts/dai/StrategyWombatOvnDaiPlus.sol:StrategyWombatOvnDaiPlus",
            "label": "adminRole",
            "offset": 0,
            "slot": "1",
            "type": "t_bytes32"
          }
        ],
        "numberOfBytes": "64"
      },
      "t_uint24": {
        "encoding": "inplace",
        "label": "uint24",
        "numberOfBytes": "3"
      },
      "t_uint256": {
        "encoding": "inplace",
        "label": "uint256",
        "numberOfBytes": "32"
      },
      "t_uint8": {
        "encoding": "inplace",
        "label": "uint8",
        "numberOfBytes": "1"
      }
    }
  }
}