{
  "address": "0xd05c15AA8D3E8AEb9833826AbC6C5C591C762D9d",
  "abi": [
    {
      "inputs": [],
      "stateMutability": "nonpayable",
      "type": "constructor"
    },
    {
      "anonymous": false,
      "inputs": [
        {
          "indexed": false,
          "internalType": "address",
          "name": "previousAdmin",
          "type": "address"
        },
        {
          "indexed": false,
          "internalType": "address",
          "name": "newAdmin",
          "type": "address"
        }
      ],
      "name": "AdminChanged",
      "type": "event"
    },
    {
      "anonymous": false,
      "inputs": [
        {
          "indexed": true,
          "internalType": "address",
          "name": "beacon",
          "type": "address"
        }
      ],
      "name": "BeaconUpgraded",
      "type": "event"
    },
    {
      "anonymous": false,
      "inputs": [
        {
          "indexed": false,
          "internalType": "uint8",
          "name": "version",
          "type": "uint8"
        }
      ],
      "name": "Initialized",
      "type": "event"
    },
    {
      "anonymous": false,
      "inputs": [
        {
          "indexed": false,
          "internalType": "address",
          "name": "value",
          "type": "address"
        }
      ],
      "name": "PortfolioManagerUpdated",
      "type": "event"
    },
    {
      "anonymous": false,
      "inputs": [
        {
          "indexed": false,
          "internalType": "uint256",
          "name": "amount",
          "type": "uint256"
        }
      ],
      "name": "Reward",
      "type": "event"
    },
    {
      "anonymous": false,
      "inputs": [
        {
          "indexed": true,
          "internalType": "bytes32",
          "name": "role",
          "type": "bytes32"
        },
        {
          "indexed": true,
          "internalType": "bytes32",
          "name": "previousAdminRole",
          "type": "bytes32"
        },
        {
          "indexed": true,
          "internalType": "bytes32",
          "name": "newAdminRole",
          "type": "bytes32"
        }
      ],
      "name": "RoleAdminChanged",
      "type": "event"
    },
    {
      "anonymous": false,
      "inputs": [
        {
          "indexed": true,
          "internalType": "bytes32",
          "name": "role",
          "type": "bytes32"
        },
        {
          "indexed": true,
          "internalType": "address",
          "name": "account",
          "type": "address"
        },
        {
          "indexed": true,
          "internalType": "address",
          "name": "sender",
          "type": "address"
        }
      ],
      "name": "RoleGranted",
      "type": "event"
    },
    {
      "anonymous": false,
      "inputs": [
        {
          "indexed": true,
          "internalType": "bytes32",
          "name": "role",
          "type": "bytes32"
        },
        {
          "indexed": true,
          "internalType": "address",
          "name": "account",
          "type": "address"
        },
        {
          "indexed": true,
          "internalType": "address",
          "name": "sender",
          "type": "address"
        }
      ],
      "name": "RoleRevoked",
      "type": "event"
    },
    {
      "anonymous": false,
      "inputs": [
        {
          "indexed": false,
          "internalType": "uint256",
          "name": "swapSlippageBP",
          "type": "uint256"
        },
        {
          "indexed": false,
          "internalType": "uint256",
          "name": "navSlippageBP",
          "type": "uint256"
        },
        {
          "indexed": false,
          "internalType": "uint256",
          "name": "stakeSlippageBP",
          "type": "uint256"
        }
      ],
      "name": "SlippagesUpdated",
      "type": "event"
    },
    {
      "anonymous": false,
      "inputs": [
        {
          "indexed": false,
          "internalType": "uint256",
          "name": "amount",
          "type": "uint256"
        }
      ],
      "name": "Stake",
      "type": "event"
    },
    {
      "anonymous": false,
      "inputs": [],
      "name": "StrategyUpdatedParams",
      "type": "event"
    },
    {
      "anonymous": false,
      "inputs": [
        {
          "indexed": false,
          "internalType": "uint256",
          "name": "amount",
          "type": "uint256"
        },
        {
          "indexed": false,
          "internalType": "uint256",
          "name": "amountReceived",
          "type": "uint256"
        }
      ],
      "name": "Unstake",
      "type": "event"
    },
    {
      "anonymous": false,
      "inputs": [
        {
          "indexed": true,
          "internalType": "address",
          "name": "implementation",
          "type": "address"
        }
      ],
      "name": "Upgraded",
      "type": "event"
    },
    {
      "inputs": [],
      "name": "DEFAULT_ADMIN_ROLE",
      "outputs": [
        {
          "internalType": "bytes32",
          "name": "",
          "type": "bytes32"
        }
      ],
      "stateMutability": "view",
      "type": "function"
    },
    {
      "inputs": [],
      "name": "PORTFOLIO_AGENT_ROLE",
      "outputs": [
        {
          "internalType": "bytes32",
          "name": "",
          "type": "bytes32"
        }
      ],
      "stateMutability": "view",
      "type": "function"
    },
    {
      "inputs": [],
      "name": "PORTFOLIO_MANAGER",
      "outputs": [
        {
          "internalType": "bytes32",
          "name": "",
          "type": "bytes32"
        }
      ],
      "stateMutability": "view",
      "type": "function"
    },
    {
      "inputs": [
        {
          "internalType": "address",
          "name": "_to",
          "type": "address"
        }
      ],
      "name": "claimRewards",
      "outputs": [
        {
          "internalType": "uint256",
          "name": "",
          "type": "uint256"
        }
      ],
      "stateMutability": "nonpayable",
      "type": "function"
    },
    {
      "inputs": [],
      "name": "dai",
      "outputs": [
        {
          "internalType": "contract IERC20",
          "name": "",
          "type": "address"
        }
      ],
      "stateMutability": "view",
      "type": "function"
    },
    {
      "inputs": [],
      "name": "daiDm",
      "outputs": [
        {
          "internalType": "uint256",
          "name": "",
          "type": "uint256"
        }
      ],
      "stateMutability": "view",
      "type": "function"
    },
    {
      "inputs": [],
      "name": "exchange",
      "outputs": [
        {
          "internalType": "contract IExchange",
          "name": "",
          "type": "address"
        }
      ],
      "stateMutability": "view",
      "type": "function"
    },
    {
      "inputs": [
        {
          "internalType": "bytes32",
          "name": "role",
          "type": "bytes32"
        }
      ],
      "name": "getRoleAdmin",
      "outputs": [
        {
          "internalType": "bytes32",
          "name": "",
          "type": "bytes32"
        }
      ],
      "stateMutability": "view",
      "type": "function"
    },
    {
      "inputs": [],
      "name": "gmxRouter",
      "outputs": [
        {
          "internalType": "contract IRouter",
          "name": "",
          "type": "address"
        }
      ],
      "stateMutability": "view",
      "type": "function"
    },
    {
      "inputs": [
        {
          "internalType": "bytes32",
          "name": "role",
          "type": "bytes32"
        },
        {
          "internalType": "address",
          "name": "account",
          "type": "address"
        }
      ],
      "name": "grantRole",
      "outputs": [],
      "stateMutability": "nonpayable",
      "type": "function"
    },
    {
      "inputs": [
        {
          "internalType": "bytes32",
          "name": "role",
          "type": "bytes32"
        },
        {
          "internalType": "address",
          "name": "account",
          "type": "address"
        }
      ],
      "name": "hasRole",
      "outputs": [
        {
          "internalType": "bool",
          "name": "",
          "type": "bool"
        }
      ],
      "stateMutability": "view",
      "type": "function"
    },
    {
      "inputs": [],
      "name": "initialize",
      "outputs": [],
      "stateMutability": "nonpayable",
      "type": "function"
    },
    {
      "inputs": [],
      "name": "liquidationValue",
      "outputs": [
        {
          "internalType": "uint256",
          "name": "",
          "type": "uint256"
        }
      ],
      "stateMutability": "view",
      "type": "function"
    },
    {
      "inputs": [],
      "name": "navSlippageBP",
      "outputs": [
        {
          "internalType": "uint256",
          "name": "",
          "type": "uint256"
        }
      ],
      "stateMutability": "view",
      "type": "function"
    },
    {
      "inputs": [],
      "name": "netAssetValue",
      "outputs": [
        {
          "internalType": "uint256",
          "name": "",
          "type": "uint256"
        }
      ],
      "stateMutability": "view",
      "type": "function"
    },
    {
      "inputs": [],
      "name": "oracleDai",
      "outputs": [
        {
          "internalType": "contract IPriceFeed",
          "name": "",
          "type": "address"
        }
      ],
      "stateMutability": "view",
      "type": "function"
    },
    {
      "inputs": [],
      "name": "oracleUsdc",
      "outputs": [
        {
          "internalType": "contract IPriceFeed",
          "name": "",
          "type": "address"
        }
      ],
      "stateMutability": "view",
      "type": "function"
    },
    {
      "inputs": [],
      "name": "portfolioManager",
      "outputs": [
        {
          "internalType": "address",
          "name": "",
          "type": "address"
        }
      ],
      "stateMutability": "view",
      "type": "function"
    },
    {
      "inputs": [],
      "name": "proxiableUUID",
      "outputs": [
        {
          "internalType": "bytes32",
          "name": "",
          "type": "bytes32"
        }
      ],
      "stateMutability": "view",
      "type": "function"
    },
    {
      "inputs": [
        {
          "internalType": "bytes32",
          "name": "role",
          "type": "bytes32"
        },
        {
          "internalType": "address",
          "name": "account",
          "type": "address"
        }
      ],
      "name": "renounceRole",
      "outputs": [],
      "stateMutability": "nonpayable",
      "type": "function"
    },
    {
      "inputs": [
        {
          "internalType": "bytes32",
          "name": "role",
          "type": "bytes32"
        },
        {
          "internalType": "address",
          "name": "account",
          "type": "address"
        }
      ],
      "name": "revokeRole",
      "outputs": [],
      "stateMutability": "nonpayable",
      "type": "function"
    },
    {
      "inputs": [
        {
          "components": [
            {
              "internalType": "address",
              "name": "usdc",
              "type": "address"
            },
            {
              "internalType": "address",
              "name": "dai",
              "type": "address"
            },
            {
              "internalType": "address",
              "name": "usdPlus",
              "type": "address"
            },
            {
              "internalType": "address",
              "name": "exchange",
              "type": "address"
            },
            {
              "internalType": "address",
              "name": "oracleDai",
              "type": "address"
            },
            {
              "internalType": "address",
              "name": "oracleUsdc",
              "type": "address"
            },
            {
              "internalType": "address",
              "name": "gmxRouter",
              "type": "address"
            }
          ],
          "internalType": "struct StrategyUsdPlusDai.StrategyParams",
          "name": "params",
          "type": "tuple"
        }
      ],
      "name": "setParams",
      "outputs": [],
      "stateMutability": "nonpayable",
      "type": "function"
    },
    {
      "inputs": [
        {
          "internalType": "address",
          "name": "_value",
          "type": "address"
        }
      ],
      "name": "setPortfolioManager",
      "outputs": [],
      "stateMutability": "nonpayable",
      "type": "function"
    },
    {
      "inputs": [
        {
          "internalType": "uint256",
          "name": "_swapSlippageBP",
          "type": "uint256"
        },
        {
          "internalType": "uint256",
          "name": "_navSlippageBP",
          "type": "uint256"
        },
        {
          "internalType": "uint256",
          "name": "_stakeSlippageBP",
          "type": "uint256"
        }
      ],
      "name": "setSlippages",
      "outputs": [],
      "stateMutability": "nonpayable",
      "type": "function"
    },
    {
      "inputs": [
        {
          "internalType": "address",
          "name": "_asset",
          "type": "address"
        },
        {
          "internalType": "uint256",
          "name": "_amount",
          "type": "uint256"
        }
      ],
      "name": "stake",
      "outputs": [],
      "stateMutability": "nonpayable",
      "type": "function"
    },
    {
      "inputs": [],
      "name": "stakeSlippageBP",
      "outputs": [
        {
          "internalType": "uint256",
          "name": "",
          "type": "uint256"
        }
      ],
      "stateMutability": "view",
      "type": "function"
    },
    {
      "inputs": [
        {
          "internalType": "bytes4",
          "name": "interfaceId",
          "type": "bytes4"
        }
      ],
      "name": "supportsInterface",
      "outputs": [
        {
          "internalType": "bool",
          "name": "",
          "type": "bool"
        }
      ],
      "stateMutability": "view",
      "type": "function"
    },
    {
      "inputs": [],
      "name": "swapSlippageBP",
      "outputs": [
        {
          "internalType": "uint256",
          "name": "",
          "type": "uint256"
        }
      ],
      "stateMutability": "view",
      "type": "function"
    },
    {
      "inputs": [
        {
          "internalType": "address",
          "name": "_asset",
          "type": "address"
        },
        {
          "internalType": "uint256",
          "name": "_amount",
          "type": "uint256"
        },
        {
          "internalType": "address",
          "name": "_beneficiary",
          "type": "address"
        },
        {
          "internalType": "bool",
          "name": "_targetIsZero",
          "type": "bool"
        }
      ],
      "name": "unstake",
      "outputs": [
        {
          "internalType": "uint256",
          "name": "",
          "type": "uint256"
        }
      ],
      "stateMutability": "nonpayable",
      "type": "function"
    },
    {
      "inputs": [
        {
          "internalType": "address",
          "name": "newImplementation",
          "type": "address"
        }
      ],
      "name": "upgradeTo",
      "outputs": [],
      "stateMutability": "nonpayable",
      "type": "function"
    },
    {
      "inputs": [
        {
          "internalType": "address",
          "name": "newImplementation",
          "type": "address"
        },
        {
          "internalType": "bytes",
          "name": "data",
          "type": "bytes"
        }
      ],
      "name": "upgradeToAndCall",
      "outputs": [],
      "stateMutability": "payable",
      "type": "function"
    },
    {
      "inputs": [],
      "name": "usdPlus",
      "outputs": [
        {
          "internalType": "contract IUsdPlusToken",
          "name": "",
          "type": "address"
        }
      ],
      "stateMutability": "view",
      "type": "function"
    },
    {
      "inputs": [],
      "name": "usdc",
      "outputs": [
        {
          "internalType": "contract IERC20",
          "name": "",
          "type": "address"
        }
      ],
      "stateMutability": "view",
      "type": "function"
    },
    {
      "inputs": [],
      "name": "usdcDm",
      "outputs": [
        {
          "internalType": "uint256",
          "name": "",
          "type": "uint256"
        }
      ],
      "stateMutability": "view",
      "type": "function"
    }
  ],
  "numDeployments": 1,
  "solcInputHash": "8e739e7f8eaeb37e554e5ff25b088cb2",
  "bytecode": "0x60a06040523060601b6080523480156200001857600080fd5b50600054610100900460ff16158080156200003a5750600054600160ff909116105b806200006a575062000057306200014460201b6200170b1760201c565b1580156200006a575060005460ff166001145b620000d25760405162461bcd60e51b815260206004820152602e60248201527f496e697469616c697a61626c653a20636f6e747261637420697320616c72656160448201526d191e481a5b9a5d1a585b1a5e995960921b606482015260840160405180910390fd5b6000805460ff191660011790558015620000f6576000805461ff0019166101001790555b80156200013d576000805461ff0019169055604051600181527f7f26b83ff96e1f2b6a682f133852f6798a09c465da95921460cefb38474024989060200160405180910390a15b5062000153565b6001600160a01b03163b151590565b60805160601c6134a96200018e600039600081816108510152818161089101528181610931015281816109710152610a0001526134a96000f3fe6080604052600436106101f95760003560e01c8063634e31801161010d578063a440b21a116100a0578063d2f7265a1161006f578063d2f7265a14610592578063d547741f146105b3578063ef5cfb8c146105d3578063f4b9fa75146105f3578063f6f6b8811461061457600080fd5b8063a440b21a1461051c578063adc9772e1461053c578063ae30c1101461055c578063bf52e0801461057c57600080fd5b80638129fc1c116100dc5780638129fc1c146104bd57806391d14854146104d2578063a217fddf146104f2578063a3673b381461050757600080fd5b8063634e3180146104435780636ef6b24e146104645780637d5f580214610484578063811766fa146104a657600080fd5b80633e413bee116101905780635ca558f81161015f5780635ca558f8146103975780635dbd733a146103ad5780635f07c5f3146103e15780635fea9cbb14610402578063620b75df1461042357600080fd5b80633e413bee146103155780634f1ef2861461034e578063514e460a1461036157806352d1902d1461038257600080fd5b80632576e65a116101cc5780632576e65a1461029e5780632f2ff15d146102b357806336568abe146102d55780633659cfe6146102f557600080fd5b806301ffc9a7146101fe578063119cd879146102335780631b1e7ddc14610257578063248a9ca31461026e575b600080fd5b34801561020a57600080fd5b5061021e610219366004612ead565b610634565b60405190151581526020015b60405180910390f35b34801561023f57600080fd5b5061024960fd5481565b60405190815260200161022a565b34801561026357600080fd5b506102496101305481565b34801561027a57600080fd5b50610249610289366004612e4f565b60009081526065602052604090206001015490565b3480156102aa57600080fd5b5061024961066b565b3480156102bf57600080fd5b506102d36102ce366004612e81565b610799565b005b3480156102e157600080fd5b506102d36102f0366004612e81565b6107c3565b34801561030157600080fd5b506102d3610310366004612cdc565b610846565b34801561032157600080fd5b5061012e54610336906001600160a01b031681565b6040516001600160a01b03909116815260200161022a565b6102d361035c366004612cf7565b610926565b34801561036d57600080fd5b5061013154610336906001600160a01b031681565b34801561038e57600080fd5b506102496109f3565b3480156103a357600080fd5b5061024960fe5481565b3480156103b957600080fd5b506102497fd67ad422505496469a1adf6cdf9e5ee92ac5d33992843c9ecc4b2f6d6cde913781565b3480156103ed57600080fd5b5061013354610336906001600160a01b031681565b34801561040e57600080fd5b5061013454610336906001600160a01b031681565b34801561042f57600080fd5b5060fb54610336906001600160a01b031681565b34801561044f57600080fd5b5061013554610336906001600160a01b031681565b34801561047057600080fd5b506102d361047f366004612ed7565b610aa6565b34801561049057600080fd5b5061024960008051602061340d83398151915281565b3480156104b257600080fd5b5061024961012f5481565b3480156104c957600080fd5b506102d3610d8f565b3480156104de57600080fd5b5061021e6104ed366004612e81565b610e59565b3480156104fe57600080fd5b50610249600081565b34801561051357600080fd5b50610249610e84565b34801561052857600080fd5b506102d3610537366004612cdc565b610f10565b34801561054857600080fd5b506102d3610557366004612db9565b61103f565b34801561056857600080fd5b506102d3610577366004612eef565b61126f565b34801561058857600080fd5b5061024960fc5481565b34801561059e57600080fd5b5061013254610336906001600160a01b031681565b3480156105bf57600080fd5b506102d36105ce366004612e81565b6113e4565b3480156105df57600080fd5b506102496105ee366004612cdc565b611409565b3480156105ff57600080fd5b5061012d54610336906001600160a01b031681565b34801561062057600080fd5b5061024961062f366004612de3565b611448565b60006001600160e01b03198216637965db0b60e01b148061066557506301ffc9a760e01b6001600160e01b03198316145b92915050565b610131546040516370a0823160e01b815230600482015260009182916001600160a01b03909116906370a082319060240160206040518083038186803b1580156106b457600080fd5b505afa1580156106c8573d6000803e3d6000fd5b505050506040513d601f19601f820116820180604052508101906106ec9190612e68565b905061070d6106fa8261171a565b60fc5461070890600461321b565b61176e565b61012d546040516370a0823160e01b81523060048201526001600160a01b03909116906370a082319060240160206040518083038186803b15801561075157600080fd5b505afa158015610765573d6000803e3d6000fd5b505050506040513d601f19601f820116820180604052508101906107899190612e68565b610793919061321b565b91505090565b6000828152606560205260409020600101546107b481611798565b6107be83836117a2565b505050565b6001600160a01b03811633146108385760405162461bcd60e51b815260206004820152602f60248201527f416363657373436f6e74726f6c3a2063616e206f6e6c792072656e6f756e636560448201526e103937b632b9903337b91039b2b63360891b60648201526084015b60405180910390fd5b6108428282611828565b5050565b306001600160a01b037f000000000000000000000000000000000000000000000000000000000000000016141561088f5760405162461bcd60e51b815260040161082f906130fe565b7f00000000000000000000000000000000000000000000000000000000000000006001600160a01b03166108d860008051602061342d833981519152546001600160a01b031690565b6001600160a01b0316146108fe5760405162461bcd60e51b815260040161082f9061314a565b6109078161188f565b604080516000808252602082019092526109239183919061189a565b50565b306001600160a01b037f000000000000000000000000000000000000000000000000000000000000000016141561096f5760405162461bcd60e51b815260040161082f906130fe565b7f00000000000000000000000000000000000000000000000000000000000000006001600160a01b03166109b860008051602061342d833981519152546001600160a01b031690565b6001600160a01b0316146109de5760405162461bcd60e51b815260040161082f9061314a565b6109e78261188f565b6108428282600161189a565b6000306001600160a01b037f00000000000000000000000000000000000000000000000000000000000000001614610a935760405162461bcd60e51b815260206004820152603860248201527f555550535570677261646561626c653a206d757374206e6f742062652063616c60448201527f6c6564207468726f7567682064656c656761746563616c6c0000000000000000606482015260840161082f565b5060008051602061342d83398151915290565b610ab1600033610e59565b610af45760405162461bcd60e51b81526020600482015260146024820152735265737472696374656420746f2061646d696e7360601b604482015260640161082f565b610b046040820160208301612cdc565b61012d80546001600160a01b0319166001600160a01b0392909216919091179055610b326020820182612cdc565b61012e80546001600160a01b0319166001600160a01b0392909216919091179055610b636060820160408301612cdc565b61013180546001600160a01b0319166001600160a01b0392909216919091179055610b946080820160608301612cdc565b61013280546001600160a01b0319166001600160a01b0392909216919091179055610bc560a0820160808301612cdc565b61013380546001600160a01b0319166001600160a01b0392909216919091179055610bf660c0820160a08301612cdc565b61013480546001600160a01b0319166001600160a01b0392909216919091179055610c2760e0820160c08301612cdc565b61013580546001600160a01b0319166001600160a01b0392909216919091179055610c586040820160208301612cdc565b6001600160a01b031663313ce5676040518163ffffffff1660e01b815260040160206040518083038186803b158015610c9057600080fd5b505afa158015610ca4573d6000803e3d6000fd5b505050506040513d601f19601f82011682018060405250810190610cc89190612f6b565b610cd390600a613298565b61012f55610ce46020820182612cdc565b6001600160a01b031663313ce5676040518163ffffffff1660e01b815260040160206040518083038186803b158015610d1c57600080fd5b505afa158015610d30573d6000803e3d6000fd5b505050506040513d601f19601f82011682018060405250810190610d549190612f6b565b610d5f90600a613298565b610130556040517fea5646eb3528e525944447a4a97de700dd472298626e5c0481d1c82c3da86ea590600090a150565b600054610100900460ff1615808015610daf5750600054600160ff909116105b80610dc95750303b158015610dc9575060005460ff166001145b610de55760405162461bcd60e51b815260040161082f90613196565b6000805460ff191660011790558015610e08576000805461ff0019166101001790555b610e10611a14565b8015610923576000805461ff0019169055604051600181527f7f26b83ff96e1f2b6a682f133852f6798a09c465da95921460cefb3847402498906020015b60405180910390a150565b60009182526065602090815260408084206001600160a01b0393909316845291905290205460ff1690565b610131546040516370a0823160e01b815230600482015260009182916001600160a01b03909116906370a082319060240160206040518083038186803b158015610ecd57600080fd5b505afa158015610ee1573d6000803e3d6000fd5b505050506040513d601f19601f82011682018060405250810190610f059190612e68565b905061070d8161171a565b610f1b600033610e59565b610f5e5760405162461bcd60e51b81526020600482015260146024820152735265737472696374656420746f2061646d696e7360601b604482015260640161082f565b6001600160a01b038116610fb45760405162461bcd60e51b815260206004820152601860248201527f5a65726f2061646472657373206e6f7420616c6c6f7765640000000000000000604482015260640161082f565b60fb54610fd99060008051602061340d833981519152906001600160a01b03166113e4565b610ff160008051602061340d83398151915282610799565b60fb80546001600160a01b0319166001600160a01b0383169081179091556040519081527ff7b449fcd5cfb7379dcd34cb69428dd9f882033b15be33d83b42d91daa28eeb790602001610e4e565b61105760008051602061340d83398151915233610e59565b6110735760405162461bcd60e51b815260040161082f906130c7565b60006110f1306001600160a01b031663a3673b386040518163ffffffff1660e01b815260040160206040518083038186803b1580156110b157600080fd5b505afa1580156110c5573d6000803e3d6000fd5b505050506040513d601f19601f820116820180604052508101906110e99190612e68565b60fd5461176e565b6040516370a0823160e01b81523060048201529091506111769084906001600160a01b038216906370a082319060240160206040518083038186803b15801561113957600080fd5b505afa15801561114d573d6000803e3d6000fd5b505050506040513d601f19601f820116820180604052508101906111719190612e68565b611af9565b80306001600160a01b031663a3673b386040518163ffffffff1660e01b815260040160206040518083038186803b1580156111b057600080fd5b505afa1580156111c4573d6000803e3d6000fd5b505050506040513d601f19601f820116820180604052508101906111e89190612e68565b10156112365760405162461bcd60e51b815260206004820152601f60248201527f5374726174656779204e4156206c657373207468616e20657870656374656400604482015260640161082f565b6040518281527f227a473b70d2f893cc7659219575c030a63b5743024fe1e0c1a680e708b1525a906020015b60405180910390a1505050565b6112997fd67ad422505496469a1adf6cdf9e5ee92ac5d33992843c9ecc4b2f6d6cde913733610e59565b80611340575060fb54604051632474521560e21b81527fd67ad422505496469a1adf6cdf9e5ee92ac5d33992843c9ecc4b2f6d6cde913760048201523360248201526001600160a01b03909116906391d148549060440160206040518083038186803b15801561130857600080fd5b505afa15801561131c573d6000803e3d6000fd5b505050506040513d601f19601f820116820180604052508101906113409190612e32565b6113975760405162461bcd60e51b815260206004820152602260248201527f5265737472696374656420746f20504f5254464f4c494f5f4147454e545f524f6044820152614c4560f01b606482015260840161082f565b60fc83905560fd82905560fe81905560408051848152602081018490529081018290527f116fbf1e97a2be629ad98abfb6c332733c8996c2dfb174dd2efe8440df381d1a90606001611262565b6000828152606560205260409020600101546113ff81611798565b6107be8383611828565b600061142360008051602061340d83398151915233610e59565b61143f5760405162461bcd60e51b815260040161082f906130c7565b5060005b919050565b600061146260008051602061340d83398151915233610e59565b61147e5760405162461bcd60e51b815260040161082f906130c7565b60006114bc306001600160a01b031663a3673b386040518163ffffffff1660e01b815260040160206040518083038186803b1580156110b157600080fd5b905060008084156114db575060006114d48887611ecb565b915061154a565b6114e6888888612277565b91508682101561154a5760405162461bcd60e51b815260206004820152602960248201527f52657475726e65642076616c7565206c657373207468616e2072657175657374604482015268195908185b5bdd5b9d60ba1b606482015260840161082f565b82306001600160a01b031663a3673b386040518163ffffffff1660e01b815260040160206040518083038186803b15801561158457600080fd5b505afa158015611598573d6000803e3d6000fd5b505050506040513d601f19601f820116820180604052508101906115bc9190612e68565b101561160a5760405162461bcd60e51b815260206004820152601f60248201527f5374726174656779204e4156206c657373207468616e20657870656374656400604482015260640161082f565b60405163a9059cbb60e01b81526001600160a01b0387811660048301526024820184905289169063a9059cbb90604401602060405180830381600087803b15801561165457600080fd5b505af1158015611668573d6000803e3d6000fd5b505050506040513d601f19601f8201168201806040525081019061168c9190612e32565b5060408051888152602081018490527f9045c2ac9b2026de8075f2701bbdde882cd5e830b3b1ead9a15b22f2b5b93742910160405180910390a18015611700576040518181527f3ac0594a85a20354f9dc74f33728416d19ce00d04a406c108cc2dcf2cecea1349060200160405180910390a15b509695505050505050565b6001600160a01b03163b151590565b610133546000908190611735906001600160a01b0316612656565b61013454909150600090611751906001600160a01b0316612656565b9050611766846101305461012f54848661277a565b949350505050565b600061271061177d8382613362565b6117879085613343565b6117919190613233565b9392505050565b61092381336127af565b6117ac8282610e59565b6108425760008281526065602090815260408083206001600160a01b03851684529091529020805460ff191660011790556117e43390565b6001600160a01b0316816001600160a01b0316837f2f8788117e7eff1d82e926ec794901d17c78024a50270940304540a733656f0d60405160405180910390a45050565b6118328282610e59565b156108425760008281526065602090815260408083206001600160a01b0385168085529252808320805460ff1916905551339285917ff6391f5c32d9c69d2a47ea670b442974b53935d1edc7fd64eb21e047a839171b9190a45050565b600061084281611798565b7f4910fdfa16fed3260ed0e7147f7cc6da11a60208b5b9406d12a635614ffd91435460ff16156118cd576107be83612813565b826001600160a01b03166352d1902d6040518163ffffffff1660e01b815260040160206040518083038186803b15801561190657600080fd5b505afa925050508015611936575060408051601f3d908101601f1916820190925261193391810190612e68565b60015b6119995760405162461bcd60e51b815260206004820152602e60248201527f45524331393637557067726164653a206e657720696d706c656d656e7461746960448201526d6f6e206973206e6f74205555505360901b606482015260840161082f565b60008051602061342d8339815191528114611a085760405162461bcd60e51b815260206004820152602960248201527f45524331393637557067726164653a20756e737570706f727465642070726f786044820152681a58589b195555525160ba1b606482015260840161082f565b506107be8383836128af565b600054610100900460ff1615808015611a345750600054600160ff909116105b80611a4e5750303b158015611a4e575060005460ff166001145b611a6a5760405162461bcd60e51b815260040161082f90613196565b6000805460ff191660011790558015611a8d576000805461ff0019166101001790555b611a956128da565b611a9d6128da565b611aa86000336117a2565b601460fc81905560fd55600460fe558015610923576000805461ff0019169055604051600181527f7f26b83ff96e1f2b6a682f133852f6798a09c465da95921460cefb384740249890602001610e4e565b604080516002808252606082018352600092602083019080368337505061012d5482519293506001600160a01b031691839150600090611b3b57611b3b6133d2565b6001600160a01b03928316602091820292909201015261012e54825191169082906001908110611b6d57611b6d6133d2565b6001600160a01b03928316602091820292909201015261012d546040516370a0823160e01b815230600482015260009291909116906370a082319060240160206040518083038186803b158015611bc357600080fd5b505afa158015611bd7573d6000803e3d6000fd5b505050506040513d601f19601f82011682018060405250810190611bfb9190612e68565b90506000611c13611c0b83612947565b60fc5461176e565b61012d546101355460405163095ea7b360e01b81526001600160a01b03918216600482015260248101869052929350169063095ea7b390604401602060405180830381600087803b158015611c6757600080fd5b505af1158015611c7b573d6000803e3d6000fd5b505050506040513d601f19601f82011682018060405250810190611c9f9190612e32565b5061013554604051633011f4b360e11b81526001600160a01b0390911690636023e96690611cd790869086908690309060040161304b565b600060405180830381600087803b158015611cf157600080fd5b505af1158015611d05573d6000803e3d6000fd5b505061012e546040516370a0823160e01b8152306004820152600093506001600160a01b0390911691506370a082319060240160206040518083038186803b158015611d5057600080fd5b505afa158015611d64573d6000803e3d6000fd5b505050506040513d601f19601f82011682018060405250810190611d889190612e68565b61012e546101325460405163095ea7b360e01b81526001600160a01b03918216600482015260248101849052929350169063095ea7b390604401602060405180830381600087803b158015611ddc57600080fd5b505af1158015611df0573d6000803e3d6000fd5b505050506040513d601f19601f82011682018060405250810190611e149190612e32565b506040805160608101825261012e546001600160a01b039081168252602080830185905283519081018452600081528284015261013254925163258a4c0360e21b815291921690639629300c90611e6f9084906004016131e4565b602060405180830381600087803b158015611e8957600080fd5b505af1158015611e9d573d6000803e3d6000fd5b505050506040513d601f19601f82011682018060405250810190611ec19190612e68565b5050505050505050565b610131546040516370a0823160e01b815230600482015260009182916001600160a01b03909116906370a082319060240160206040518083038186803b158015611f1457600080fd5b505afa158015611f28573d6000803e3d6000fd5b505050506040513d601f19601f82011682018060405250810190611f4c9190612e68565b905080611f5d576000915050610665565b6101325461012e546040516301e9a69560e41b81526001600160a01b03918216600482015260248101849052911690631e9a695090604401602060405180830381600087803b158015611faf57600080fd5b505af1158015611fc3573d6000803e3d6000fd5b505050506040513d601f19601f82011682018060405250810190611fe79190612e68565b50604080516002808252606082018352600092602083019080368337505061012e5482519293506001600160a01b03169183915060009061202a5761202a6133d2565b6001600160a01b03928316602091820292909201015261012d5482519116908290600190811061205c5761205c6133d2565b6001600160a01b03928316602091820292909201015261012e546040516370a0823160e01b815230600482015260009291909116906370a082319060240160206040518083038186803b1580156120b257600080fd5b505afa1580156120c6573d6000803e3d6000fd5b505050506040513d601f19601f820116820180604052508101906120ea9190612e68565b905060006120fa611c0b8361171a565b61012e546101355460405163095ea7b360e01b81526001600160a01b03918216600482015260248101869052929350169063095ea7b390604401602060405180830381600087803b15801561214e57600080fd5b505af1158015612162573d6000803e3d6000fd5b505050506040513d601f19601f820116820180604052508101906121869190612e32565b5061013554604051633011f4b360e11b81526001600160a01b0390911690636023e966906121be90869086908690309060040161304b565b600060405180830381600087803b1580156121d857600080fd5b505af11580156121ec573d6000803e3d6000fd5b505061012d546040516370a0823160e01b81523060048201526001600160a01b0390911692506370a08231915060240160206040518083038186803b15801561223457600080fd5b505afa158015612248573d6000803e3d6000fd5b505050506040513d601f19601f8201168201806040525081019061226c9190612e68565b979650505050505050565b610131546040516370a0823160e01b815230600482015260009182916001600160a01b03909116906370a082319060240160206040518083038186803b1580156122c057600080fd5b505afa1580156122d4573d6000803e3d6000fd5b505050506040513d601f19601f820116820180604052508101906122f89190612e68565b905080612309576000915050611791565b600061232e612326612321876509184e72a00061321b565b612947565b60fc54612993565b905081811061233a5750805b6101325461012e546040516301e9a69560e41b81526001600160a01b03918216600482015260248101849052911690631e9a695090604401602060405180830381600087803b15801561238c57600080fd5b505af11580156123a0573d6000803e3d6000fd5b505050506040513d601f19601f820116820180604052508101906123c49190612e68565b50604080516002808252606082018352600092602083019080368337505061012e5482519293506001600160a01b031691839150600090612407576124076133d2565b6001600160a01b03928316602091820292909201015261012d54825191169082906001908110612439576124396133d2565b6001600160a01b03928316602091820292909201015261012e546040516370a0823160e01b815230600482015260009291909116906370a082319060240160206040518083038186803b15801561248f57600080fd5b505afa1580156124a3573d6000803e3d6000fd5b505050506040513d601f19601f820116820180604052508101906124c79190612e68565b905060006124d7611c0b8361171a565b61012e546101355460405163095ea7b360e01b81526001600160a01b03918216600482015260248101869052929350169063095ea7b390604401602060405180830381600087803b15801561252b57600080fd5b505af115801561253f573d6000803e3d6000fd5b505050506040513d601f19601f820116820180604052508101906125639190612e32565b5061013554604051633011f4b360e11b81526001600160a01b0390911690636023e9669061259b90869086908690309060040161304b565b600060405180830381600087803b1580156125b557600080fd5b505af11580156125c9573d6000803e3d6000fd5b505061012d546040516370a0823160e01b81523060048201526001600160a01b0390911692506370a08231915060240160206040518083038186803b15801561261157600080fd5b505afa158015612625573d6000803e3d6000fd5b505050506040513d601f19601f820116820180604052508101906126499190612e68565b9998505050505050505050565b6000806000806000856001600160a01b031663feaf968c6040518163ffffffff1660e01b815260040160a06040518083038186803b15801561269757600080fd5b505afa1580156126ab573d6000803e3d6000fd5b505050506040513d601f19601f820116820180604052508101906126cf9190612f1b565b9450945050935093508369ffffffffffffffffffff168169ffffffffffffffffffff16101561272b5760405162461bcd60e51b81526020600482015260086024820152674f6c64206461746160c01b604482015260640161082f565b600082116127705760405162461bcd60e51b8152602060048201526012602482015271526f756e64206e6f7420636f6d706c65746560701b604482015260640161082f565b5090949350505050565b60006127868286613343565b836127918689613343565b61279b9190613343565b6127a59190613233565b9695505050505050565b6127b98282610e59565b610842576127d1816001600160a01b031660146129a2565b6127dc8360206129a2565b6040516020016127ed929190612fd6565b60408051601f198184030181529082905262461bcd60e51b825261082f916004016130b4565b6001600160a01b0381163b6128805760405162461bcd60e51b815260206004820152602d60248201527f455243313936373a206e657720696d706c656d656e746174696f6e206973206e60448201526c1bdd08184818dbdb9d1c9858dd609a1b606482015260840161082f565b60008051602061342d83398151915280546001600160a01b0319166001600160a01b0392909216919091179055565b6128b883612b3e565b6000825111806128c55750805b156107be576128d48383612b7e565b50505050565b600054610100900460ff166129455760405162461bcd60e51b815260206004820152602b60248201527f496e697469616c697a61626c653a20636f6e7472616374206973206e6f74206960448201526a6e697469616c697a696e6760a81b606482015260840161082f565b565b610133546000908190612962906001600160a01b0316612656565b6101345490915060009061297e906001600160a01b0316612656565b90506117668461012f5461013054858561277a565b600061271061177d838261321b565b606060006129b1836002613343565b6129bc90600261321b565b67ffffffffffffffff8111156129d4576129d46133e8565b6040519080825280601f01601f1916602001820160405280156129fe576020820181803683370190505b509050600360fc1b81600081518110612a1957612a196133d2565b60200101906001600160f81b031916908160001a905350600f60fb1b81600181518110612a4857612a486133d2565b60200101906001600160f81b031916908160001a9053506000612a6c846002613343565b612a7790600161321b565b90505b6001811115612aef576f181899199a1a9b1b9c1cb0b131b232b360811b85600f1660108110612aab57612aab6133d2565b1a60f81b828281518110612ac157612ac16133d2565b60200101906001600160f81b031916908160001a90535060049490941c93612ae8816133a5565b9050612a7a565b5083156117915760405162461bcd60e51b815260206004820181905260248201527f537472696e67733a20686578206c656e67746820696e73756666696369656e74604482015260640161082f565b612b4781612813565b6040516001600160a01b038216907fbc7cd75a20ee27fd9adebab32041f755214dbc6bffa90cc0225b39da2e5c2d3b90600090a250565b60606001600160a01b0383163b612be65760405162461bcd60e51b815260206004820152602660248201527f416464726573733a2064656c65676174652063616c6c20746f206e6f6e2d636f6044820152651b9d1c9858dd60d21b606482015260840161082f565b600080846001600160a01b031684604051612c019190612fba565b600060405180830381855af49150503d8060008114612c3c576040519150601f19603f3d011682016040523d82523d6000602084013e612c41565b606091505b5091509150612c69828260405180606001604052806027815260200161344d60279139612c72565b95945050505050565b60608315612c81575081611791565b825115612c915782518084602001fd5b8160405162461bcd60e51b815260040161082f91906130b4565b80356001600160a01b038116811461144357600080fd5b805169ffffffffffffffffffff8116811461144357600080fd5b600060208284031215612cee57600080fd5b61179182612cab565b60008060408385031215612d0a57600080fd5b612d1383612cab565b9150602083013567ffffffffffffffff80821115612d3057600080fd5b818501915085601f830112612d4457600080fd5b813581811115612d5657612d566133e8565b604051601f8201601f19908116603f01168101908382118183101715612d7e57612d7e6133e8565b81604052828152886020848701011115612d9757600080fd5b8260208601602083013760006020848301015280955050505050509250929050565b60008060408385031215612dcc57600080fd5b612dd583612cab565b946020939093013593505050565b60008060008060808587031215612df957600080fd5b612e0285612cab565b935060208501359250612e1760408601612cab565b91506060850135612e27816133fe565b939692955090935050565b600060208284031215612e4457600080fd5b8151611791816133fe565b600060208284031215612e6157600080fd5b5035919050565b600060208284031215612e7a57600080fd5b5051919050565b60008060408385031215612e9457600080fd5b82359150612ea460208401612cab565b90509250929050565b600060208284031215612ebf57600080fd5b81356001600160e01b03198116811461179157600080fd5b600060e08284031215612ee957600080fd5b50919050565b600080600060608486031215612f0457600080fd5b505081359360208301359350604090920135919050565b600080600080600060a08688031215612f3357600080fd5b612f3c86612cc2565b9450602086015193506040860151925060608601519150612f5f60808701612cc2565b90509295509295909350565b600060208284031215612f7d57600080fd5b815160ff8116811461179157600080fd5b60008151808452612fa6816020860160208601613379565b601f01601f19169290920160200192915050565b60008251612fcc818460208701613379565b9190910192915050565b7f416363657373436f6e74726f6c3a206163636f756e742000000000000000000081526000835161300e816017850160208801613379565b7001034b99036b4b9b9b4b733903937b6329607d1b601791840191820152835161303f816028840160208801613379565b01602801949350505050565b6080808252855190820181905260009060209060a0840190828901845b8281101561308d5781516001600160a01b031684529284019290840190600101613068565b505050908301959095525060408101929092526001600160a01b0316606090910152919050565b6020815260006117916020830184612f8e565b6020808252601f908201527f5265737472696374656420746f20504f5254464f4c494f5f4d414e4147455200604082015260600190565b6020808252602c908201527f46756e6374696f6e206d7573742062652063616c6c6564207468726f7567682060408201526b19195b1959d85d1958d85b1b60a21b606082015260800190565b6020808252602c908201527f46756e6374696f6e206d7573742062652063616c6c6564207468726f7567682060408201526b6163746976652070726f787960a01b606082015260800190565b6020808252602e908201527f496e697469616c697a61626c653a20636f6e747261637420697320616c72656160408201526d191e481a5b9a5d1a585b1a5e995960921b606082015260800190565b6020815260018060a01b03825116602082015260208201516040820152600060408301516060808401526117666080840182612f8e565b6000821982111561322e5761322e6133bc565b500190565b60008261325057634e487b7160e01b600052601260045260246000fd5b500490565b600181815b80851115613290578160001904821115613276576132766133bc565b8085161561328357918102915b93841c939080029061325a565b509250929050565b600061179160ff8416836000826132b157506001610665565b816132be57506000610665565b81600181146132d457600281146132de576132fa565b6001915050610665565b60ff8411156132ef576132ef6133bc565b50506001821b610665565b5060208310610133831016604e8410600b841016171561331d575081810a610665565b6133278383613255565b806000190482111561333b5761333b6133bc565b029392505050565b600081600019048311821515161561335d5761335d6133bc565b500290565b600082821015613374576133746133bc565b500390565b60005b8381101561339457818101518382015260200161337c565b838111156128d45750506000910152565b6000816133b4576133b46133bc565b506000190190565b634e487b7160e01b600052601160045260246000fd5b634e487b7160e01b600052603260045260246000fd5b634e487b7160e01b600052604160045260246000fd5b801515811461092357600080fdfe90c2aa7471c04182221f68e80c07ab1e5946e4c63f8693e14ca40385d529f051360894a13ba1a3210667c828492db98dca3e2076cc3735a920a3ca505d382bbc416464726573733a206c6f772d6c6576656c2064656c65676174652063616c6c206661696c6564a2646970667358221220b96418a900f1850ce8de8cdee3d6141d226f40a92761c382bf622be4f597445e64736f6c63430008060033",
  "implementation": "0x975429D5B99B6514fb961016a8CE554fA7946c3C",
  "devdoc": {
    "kind": "dev",
    "methods": {
      "constructor": {
        "custom:oz-upgrades-unsafe-allow": "constructor"
      },
      "getRoleAdmin(bytes32)": {
        "details": "Returns the admin role that controls `role`. See {grantRole} and {revokeRole}. To change a role's admin, use {_setRoleAdmin}."
      },
      "grantRole(bytes32,address)": {
        "details": "Grants `role` to `account`. If `account` had not been already granted `role`, emits a {RoleGranted} event. Requirements: - the caller must have ``role``'s admin role. May emit a {RoleGranted} event."
      },
      "hasRole(bytes32,address)": {
        "details": "Returns `true` if `account` has been granted `role`."
      },
      "proxiableUUID()": {
        "details": "Implementation of the ERC1822 {proxiableUUID} function. This returns the storage slot used by the implementation. It is used to validate that the this implementation remains valid after an upgrade. IMPORTANT: A proxy pointing at a proxiable contract should not be considered proxiable itself, because this risks bricking a proxy that upgrades to it, by delegating to itself until out of gas. Thus it is critical that this function revert if invoked through a proxy. This is guaranteed by the `notDelegated` modifier."
      },
      "renounceRole(bytes32,address)": {
        "details": "Revokes `role` from the calling account. Roles are often managed via {grantRole} and {revokeRole}: this function's purpose is to provide a mechanism for accounts to lose their privileges if they are compromised (such as when a trusted device is misplaced). If the calling account had been revoked `role`, emits a {RoleRevoked} event. Requirements: - the caller must be `account`. May emit a {RoleRevoked} event."
      },
      "revokeRole(bytes32,address)": {
        "details": "Revokes `role` from `account`. If `account` had been granted `role`, emits a {RoleRevoked} event. Requirements: - the caller must have ``role``'s admin role. May emit a {RoleRevoked} event."
      },
      "supportsInterface(bytes4)": {
        "details": "See {IERC165-supportsInterface}."
      },
      "upgradeTo(address)": {
        "details": "Upgrade the implementation of the proxy to `newImplementation`. Calls {_authorizeUpgrade}. Emits an {Upgraded} event."
      },
      "upgradeToAndCall(address,bytes)": {
        "details": "Upgrade the implementation of the proxy to `newImplementation`, and subsequently execute the function call encoded in `data`. Calls {_authorizeUpgrade}. Emits an {Upgraded} event."
      }
    },
    "version": 1
  },
  "userdoc": {
    "kind": "user",
    "methods": {},
    "version": 1
  },
  "storageLayout": {
    "storage": [
      {
        "astId": 808,
        "contract": "contracts/dai/StrategyUsdPlusDai.sol:StrategyUsdPlusDai",
        "label": "_initialized",
        "offset": 0,
        "slot": "0",
        "type": "t_uint8"
      },
      {
        "astId": 811,
        "contract": "contracts/dai/StrategyUsdPlusDai.sol:StrategyUsdPlusDai",
        "label": "_initializing",
        "offset": 1,
        "slot": "0",
        "type": "t_bool"
      },
      {
        "astId": 1372,
        "contract": "contracts/dai/StrategyUsdPlusDai.sol:StrategyUsdPlusDai",
        "label": "__gap",
        "offset": 0,
        "slot": "1",
        "type": "t_array(t_uint256)50_storage"
      },
      {
        "astId": 1702,
        "contract": "contracts/dai/StrategyUsdPlusDai.sol:StrategyUsdPlusDai",
        "label": "__gap",
        "offset": 0,
        "slot": "51",
        "type": "t_array(t_uint256)50_storage"
      },
      {
        "astId": 39,
        "contract": "contracts/dai/StrategyUsdPlusDai.sol:StrategyUsdPlusDai",
        "label": "_roles",
        "offset": 0,
        "slot": "101",
        "type": "t_mapping(t_bytes32,t_struct(RoleData)34_storage)"
      },
      {
        "astId": 338,
        "contract": "contracts/dai/StrategyUsdPlusDai.sol:StrategyUsdPlusDai",
        "label": "__gap",
        "offset": 0,
        "slot": "102",
        "type": "t_array(t_uint256)49_storage"
      },
      {
        "astId": 790,
        "contract": "contracts/dai/StrategyUsdPlusDai.sol:StrategyUsdPlusDai",
        "label": "__gap",
        "offset": 0,
        "slot": "151",
        "type": "t_array(t_uint256)50_storage"
      },
      {
        "astId": 1087,
        "contract": "contracts/dai/StrategyUsdPlusDai.sol:StrategyUsdPlusDai",
        "label": "__gap",
        "offset": 0,
        "slot": "201",
        "type": "t_array(t_uint256)50_storage"
      },
      {
        "astId": 2831,
        "contract": "contracts/dai/StrategyUsdPlusDai.sol:StrategyUsdPlusDai",
        "label": "portfolioManager",
        "offset": 0,
        "slot": "251",
        "type": "t_address"
      },
      {
        "astId": 2833,
        "contract": "contracts/dai/StrategyUsdPlusDai.sol:StrategyUsdPlusDai",
        "label": "swapSlippageBP",
        "offset": 0,
        "slot": "252",
        "type": "t_uint256"
      },
      {
        "astId": 2835,
        "contract": "contracts/dai/StrategyUsdPlusDai.sol:StrategyUsdPlusDai",
        "label": "navSlippageBP",
        "offset": 0,
        "slot": "253",
        "type": "t_uint256"
      },
      {
        "astId": 2837,
        "contract": "contracts/dai/StrategyUsdPlusDai.sol:StrategyUsdPlusDai",
        "label": "stakeSlippageBP",
        "offset": 0,
        "slot": "254",
        "type": "t_uint256"
      },
      {
        "astId": 3222,
        "contract": "contracts/dai/StrategyUsdPlusDai.sol:StrategyUsdPlusDai",
        "label": "__gap",
        "offset": 0,
        "slot": "255",
        "type": "t_array(t_uint256)46_storage"
      },
      {
        "astId": 3559,
        "contract": "contracts/dai/StrategyUsdPlusDai.sol:StrategyUsdPlusDai",
        "label": "dai",
        "offset": 0,
        "slot": "301",
        "type": "t_contract(IERC20)1793"
      },
      {
        "astId": 3562,
        "contract": "contracts/dai/StrategyUsdPlusDai.sol:StrategyUsdPlusDai",
        "label": "usdc",
        "offset": 0,
        "slot": "302",
        "type": "t_contract(IERC20)1793"
      },
      {
        "astId": 3564,
        "contract": "contracts/dai/StrategyUsdPlusDai.sol:StrategyUsdPlusDai",
        "label": "daiDm",
        "offset": 0,
        "slot": "303",
        "type": "t_uint256"
      },
      {
        "astId": 3566,
        "contract": "contracts/dai/StrategyUsdPlusDai.sol:StrategyUsdPlusDai",
        "label": "usdcDm",
        "offset": 0,
        "slot": "304",
        "type": "t_uint256"
      },
      {
        "astId": 3569,
        "contract": "contracts/dai/StrategyUsdPlusDai.sol:StrategyUsdPlusDai",
        "label": "usdPlus",
        "offset": 0,
        "slot": "305",
        "type": "t_contract(IUsdPlusToken)3531"
      },
      {
        "astId": 3572,
        "contract": "contracts/dai/StrategyUsdPlusDai.sol:StrategyUsdPlusDai",
        "label": "exchange",
        "offset": 0,
        "slot": "306",
        "type": "t_contract(IExchange)3301"
      },
      {
        "astId": 3575,
        "contract": "contracts/dai/StrategyUsdPlusDai.sol:StrategyUsdPlusDai",
        "label": "oracleDai",
        "offset": 0,
        "slot": "307",
        "type": "t_contract(IPriceFeed)2001"
      },
      {
        "astId": 3578,
        "contract": "contracts/dai/StrategyUsdPlusDai.sol:StrategyUsdPlusDai",
        "label": "oracleUsdc",
        "offset": 0,
        "slot": "308",
        "type": "t_contract(IPriceFeed)2001"
      },
      {
        "astId": 3581,
        "contract": "contracts/dai/StrategyUsdPlusDai.sol:StrategyUsdPlusDai",
        "label": "gmxRouter",
        "offset": 0,
        "slot": "309",
        "type": "t_contract(IRouter)2265"
      }
    ],
    "types": {
      "t_address": {
        "encoding": "inplace",
        "label": "address",
        "numberOfBytes": "20"
      },
      "t_array(t_uint256)46_storage": {
        "base": "t_uint256",
        "encoding": "inplace",
        "label": "uint256[46]",
        "numberOfBytes": "1472"
      },
      "t_array(t_uint256)49_storage": {
        "base": "t_uint256",
        "encoding": "inplace",
        "label": "uint256[49]",
        "numberOfBytes": "1568"
      },
      "t_array(t_uint256)50_storage": {
        "base": "t_uint256",
        "encoding": "inplace",
        "label": "uint256[50]",
        "numberOfBytes": "1600"
      },
      "t_bool": {
        "encoding": "inplace",
        "label": "bool",
        "numberOfBytes": "1"
      },
      "t_bytes32": {
        "encoding": "inplace",
        "label": "bytes32",
        "numberOfBytes": "32"
      },
      "t_contract(IERC20)1793": {
        "encoding": "inplace",
        "label": "contract IERC20",
        "numberOfBytes": "20"
      },
      "t_contract(IExchange)3301": {
        "encoding": "inplace",
        "label": "contract IExchange",
        "numberOfBytes": "20"
      },
      "t_contract(IPriceFeed)2001": {
        "encoding": "inplace",
        "label": "contract IPriceFeed",
        "numberOfBytes": "20"
      },
      "t_contract(IRouter)2265": {
        "encoding": "inplace",
        "label": "contract IRouter",
        "numberOfBytes": "20"
      },
      "t_contract(IUsdPlusToken)3531": {
        "encoding": "inplace",
        "label": "contract IUsdPlusToken",
        "numberOfBytes": "20"
      },
      "t_mapping(t_address,t_bool)": {
        "encoding": "mapping",
        "key": "t_address",
        "label": "mapping(address => bool)",
        "numberOfBytes": "32",
        "value": "t_bool"
      },
      "t_mapping(t_bytes32,t_struct(RoleData)34_storage)": {
        "encoding": "mapping",
        "key": "t_bytes32",
        "label": "mapping(bytes32 => struct AccessControlUpgradeable.RoleData)",
        "numberOfBytes": "32",
        "value": "t_struct(RoleData)34_storage"
      },
      "t_struct(RoleData)34_storage": {
        "encoding": "inplace",
        "label": "struct AccessControlUpgradeable.RoleData",
        "members": [
          {
            "astId": 31,
            "contract": "contracts/dai/StrategyUsdPlusDai.sol:StrategyUsdPlusDai",
            "label": "members",
            "offset": 0,
            "slot": "0",
            "type": "t_mapping(t_address,t_bool)"
          },
          {
            "astId": 33,
            "contract": "contracts/dai/StrategyUsdPlusDai.sol:StrategyUsdPlusDai",
            "label": "adminRole",
            "offset": 0,
            "slot": "1",
            "type": "t_bytes32"
          }
        ],
        "numberOfBytes": "64"
      },
      "t_uint256": {
        "encoding": "inplace",
        "label": "uint256",
        "numberOfBytes": "32"
      },
      "t_uint8": {
        "encoding": "inplace",
        "label": "uint8",
        "numberOfBytes": "1"
      }
    }
  }
}