{
  "address": "0x2010F74Cac71EC7aB720Bd4DB5f441ab69Dd038D",
  "abi": [
    {
      "inputs": [],
      "stateMutability": "nonpayable",
      "type": "constructor"
    },
    {
      "anonymous": false,
      "inputs": [
        {
          "indexed": false,
          "internalType": "address",
          "name": "previousAdmin",
          "type": "address"
        },
        {
          "indexed": false,
          "internalType": "address",
          "name": "newAdmin",
          "type": "address"
        }
      ],
      "name": "AdminChanged",
      "type": "event"
    },
    {
      "anonymous": false,
      "inputs": [
        {
          "indexed": true,
          "internalType": "address",
          "name": "beacon",
          "type": "address"
        }
      ],
      "name": "BeaconUpgraded",
      "type": "event"
    },
    {
      "anonymous": false,
      "inputs": [
        {
          "indexed": false,
          "internalType": "uint8",
          "name": "version",
          "type": "uint8"
        }
      ],
      "name": "Initialized",
      "type": "event"
    },
    {
      "anonymous": false,
      "inputs": [
        {
          "indexed": false,
          "internalType": "address",
          "name": "value",
          "type": "address"
        }
      ],
      "name": "PortfolioManagerUpdated",
      "type": "event"
    },
    {
      "anonymous": false,
      "inputs": [
        {
          "indexed": false,
          "internalType": "uint256",
          "name": "amount",
          "type": "uint256"
        }
      ],
      "name": "Reward",
      "type": "event"
    },
    {
      "anonymous": false,
      "inputs": [
        {
          "indexed": true,
          "internalType": "bytes32",
          "name": "role",
          "type": "bytes32"
        },
        {
          "indexed": true,
          "internalType": "bytes32",
          "name": "previousAdminRole",
          "type": "bytes32"
        },
        {
          "indexed": true,
          "internalType": "bytes32",
          "name": "newAdminRole",
          "type": "bytes32"
        }
      ],
      "name": "RoleAdminChanged",
      "type": "event"
    },
    {
      "anonymous": false,
      "inputs": [
        {
          "indexed": true,
          "internalType": "bytes32",
          "name": "role",
          "type": "bytes32"
        },
        {
          "indexed": true,
          "internalType": "address",
          "name": "account",
          "type": "address"
        },
        {
          "indexed": true,
          "internalType": "address",
          "name": "sender",
          "type": "address"
        }
      ],
      "name": "RoleGranted",
      "type": "event"
    },
    {
      "anonymous": false,
      "inputs": [
        {
          "indexed": true,
          "internalType": "bytes32",
          "name": "role",
          "type": "bytes32"
        },
        {
          "indexed": true,
          "internalType": "address",
          "name": "account",
          "type": "address"
        },
        {
          "indexed": true,
          "internalType": "address",
          "name": "sender",
          "type": "address"
        }
      ],
      "name": "RoleRevoked",
      "type": "event"
    },
    {
      "anonymous": false,
      "inputs": [
        {
          "indexed": false,
          "internalType": "uint256",
          "name": "swapSlippageBP",
          "type": "uint256"
        },
        {
          "indexed": false,
          "internalType": "uint256",
          "name": "navSlippageBP",
          "type": "uint256"
        },
        {
          "indexed": false,
          "internalType": "uint256",
          "name": "stakeSlippageBP",
          "type": "uint256"
        }
      ],
      "name": "SlippagesUpdated",
      "type": "event"
    },
    {
      "anonymous": false,
      "inputs": [
        {
          "indexed": false,
          "internalType": "uint256",
          "name": "amount",
          "type": "uint256"
        }
      ],
      "name": "Stake",
      "type": "event"
    },
    {
      "anonymous": false,
      "inputs": [],
      "name": "StrategyUpdatedParams",
      "type": "event"
    },
    {
      "anonymous": false,
      "inputs": [
        {
          "indexed": false,
          "internalType": "uint256",
          "name": "amount",
          "type": "uint256"
        },
        {
          "indexed": false,
          "internalType": "uint256",
          "name": "amountReceived",
          "type": "uint256"
        }
      ],
      "name": "Unstake",
      "type": "event"
    },
    {
      "anonymous": false,
      "inputs": [
        {
          "indexed": true,
          "internalType": "address",
          "name": "implementation",
          "type": "address"
        }
      ],
      "name": "Upgraded",
      "type": "event"
    },
    {
      "inputs": [],
      "name": "DEFAULT_ADMIN_ROLE",
      "outputs": [
        {
          "internalType": "bytes32",
          "name": "",
          "type": "bytes32"
        }
      ],
      "stateMutability": "view",
      "type": "function"
    },
    {
      "inputs": [],
      "name": "MAX_UINT_VALUE",
      "outputs": [
        {
          "internalType": "uint256",
          "name": "",
          "type": "uint256"
        }
      ],
      "stateMutability": "view",
      "type": "function"
    },
    {
      "inputs": [],
      "name": "PORTFOLIO_AGENT_ROLE",
      "outputs": [
        {
          "internalType": "bytes32",
          "name": "",
          "type": "bytes32"
        }
      ],
      "stateMutability": "view",
      "type": "function"
    },
    {
      "inputs": [],
      "name": "PORTFOLIO_MANAGER",
      "outputs": [
        {
          "internalType": "bytes32",
          "name": "",
          "type": "bytes32"
        }
      ],
      "stateMutability": "view",
      "type": "function"
    },
    {
      "inputs": [],
      "name": "balancerMinter",
      "outputs": [
        {
          "internalType": "contract IBalancerMinter",
          "name": "",
          "type": "address"
        }
      ],
      "stateMutability": "view",
      "type": "function"
    },
    {
      "inputs": [],
      "name": "bbamDai",
      "outputs": [
        {
          "internalType": "contract IBptToken",
          "name": "",
          "type": "address"
        }
      ],
      "stateMutability": "view",
      "type": "function"
    },
    {
      "inputs": [],
      "name": "bbamDaiPoolId",
      "outputs": [
        {
          "internalType": "bytes32",
          "name": "",
          "type": "bytes32"
        }
      ],
      "stateMutability": "view",
      "type": "function"
    },
    {
      "inputs": [],
      "name": "bbamUsdc",
      "outputs": [
        {
          "internalType": "contract IBptToken",
          "name": "",
          "type": "address"
        }
      ],
      "stateMutability": "view",
      "type": "function"
    },
    {
      "inputs": [],
      "name": "bbamUsdcPoolId",
      "outputs": [
        {
          "internalType": "bytes32",
          "name": "",
          "type": "bytes32"
        }
      ],
      "stateMutability": "view",
      "type": "function"
    },
    {
      "inputs": [],
      "name": "bbamUsdt",
      "outputs": [
        {
          "internalType": "contract IBptToken",
          "name": "",
          "type": "address"
        }
      ],
      "stateMutability": "view",
      "type": "function"
    },
    {
      "inputs": [],
      "name": "bbamUsdtPoolId",
      "outputs": [
        {
          "internalType": "bytes32",
          "name": "",
          "type": "bytes32"
        }
      ],
      "stateMutability": "view",
      "type": "function"
    },
    {
      "inputs": [],
      "name": "bpt",
      "outputs": [
        {
          "internalType": "contract IBptToken",
          "name": "",
          "type": "address"
        }
      ],
      "stateMutability": "view",
      "type": "function"
    },
    {
      "inputs": [
        {
          "internalType": "address",
          "name": "_to",
          "type": "address"
        }
      ],
      "name": "claimRewards",
      "outputs": [
        {
          "internalType": "uint256",
          "name": "",
          "type": "uint256"
        }
      ],
      "stateMutability": "nonpayable",
      "type": "function"
    },
    {
      "inputs": [],
      "name": "dai",
      "outputs": [
        {
          "internalType": "contract IERC20",
          "name": "",
          "type": "address"
        }
      ],
      "stateMutability": "view",
      "type": "function"
    },
    {
      "inputs": [],
      "name": "daiDm",
      "outputs": [
        {
          "internalType": "uint256",
          "name": "",
          "type": "uint256"
        }
      ],
      "stateMutability": "view",
      "type": "function"
    },
    {
      "inputs": [],
      "name": "gauge",
      "outputs": [
        {
          "internalType": "contract IGauge",
          "name": "",
          "type": "address"
        }
      ],
      "stateMutability": "view",
      "type": "function"
    },
    {
      "inputs": [
        {
          "internalType": "bytes32",
          "name": "role",
          "type": "bytes32"
        }
      ],
      "name": "getRoleAdmin",
      "outputs": [
        {
          "internalType": "bytes32",
          "name": "",
          "type": "bytes32"
        }
      ],
      "stateMutability": "view",
      "type": "function"
    },
    {
      "inputs": [
        {
          "internalType": "bytes32",
          "name": "role",
          "type": "bytes32"
        },
        {
          "internalType": "address",
          "name": "account",
          "type": "address"
        }
      ],
      "name": "grantRole",
      "outputs": [],
      "stateMutability": "nonpayable",
      "type": "function"
    },
    {
      "inputs": [
        {
          "internalType": "bytes32",
          "name": "role",
          "type": "bytes32"
        },
        {
          "internalType": "address",
          "name": "account",
          "type": "address"
        }
      ],
      "name": "hasRole",
      "outputs": [
        {
          "internalType": "bool",
          "name": "",
          "type": "bool"
        }
      ],
      "stateMutability": "view",
      "type": "function"
    },
    {
      "inputs": [],
      "name": "initialize",
      "outputs": [],
      "stateMutability": "nonpayable",
      "type": "function"
    },
    {
      "inputs": [],
      "name": "liquidationValue",
      "outputs": [
        {
          "internalType": "uint256",
          "name": "",
          "type": "uint256"
        }
      ],
      "stateMutability": "view",
      "type": "function"
    },
    {
      "inputs": [],
      "name": "navSlippageBP",
      "outputs": [
        {
          "internalType": "uint256",
          "name": "",
          "type": "uint256"
        }
      ],
      "stateMutability": "view",
      "type": "function"
    },
    {
      "inputs": [],
      "name": "netAssetValue",
      "outputs": [
        {
          "internalType": "uint256",
          "name": "",
          "type": "uint256"
        }
      ],
      "stateMutability": "view",
      "type": "function"
    },
    {
      "inputs": [],
      "name": "oracleDai",
      "outputs": [
        {
          "internalType": "contract IPriceFeed",
          "name": "",
          "type": "address"
        }
      ],
      "stateMutability": "view",
      "type": "function"
    },
    {
      "inputs": [],
      "name": "oracleUsdc",
      "outputs": [
        {
          "internalType": "contract IPriceFeed",
          "name": "",
          "type": "address"
        }
      ],
      "stateMutability": "view",
      "type": "function"
    },
    {
      "inputs": [],
      "name": "oracleUsdt",
      "outputs": [
        {
          "internalType": "contract IPriceFeed",
          "name": "",
          "type": "address"
        }
      ],
      "stateMutability": "view",
      "type": "function"
    },
    {
      "inputs": [],
      "name": "poolId",
      "outputs": [
        {
          "internalType": "bytes32",
          "name": "",
          "type": "bytes32"
        }
      ],
      "stateMutability": "view",
      "type": "function"
    },
    {
      "inputs": [],
      "name": "portfolioManager",
      "outputs": [
        {
          "internalType": "address",
          "name": "",
          "type": "address"
        }
      ],
      "stateMutability": "view",
      "type": "function"
    },
    {
      "inputs": [],
      "name": "proxiableUUID",
      "outputs": [
        {
          "internalType": "bytes32",
          "name": "",
          "type": "bytes32"
        }
      ],
      "stateMutability": "view",
      "type": "function"
    },
    {
      "inputs": [
        {
          "internalType": "bytes32",
          "name": "role",
          "type": "bytes32"
        },
        {
          "internalType": "address",
          "name": "account",
          "type": "address"
        }
      ],
      "name": "renounceRole",
      "outputs": [],
      "stateMutability": "nonpayable",
      "type": "function"
    },
    {
      "inputs": [
        {
          "internalType": "bytes32",
          "name": "role",
          "type": "bytes32"
        },
        {
          "internalType": "address",
          "name": "account",
          "type": "address"
        }
      ],
      "name": "revokeRole",
      "outputs": [],
      "stateMutability": "nonpayable",
      "type": "function"
    },
    {
      "inputs": [
        {
          "components": [
            {
              "internalType": "address",
              "name": "dai",
              "type": "address"
            },
            {
              "internalType": "address",
              "name": "usdc",
              "type": "address"
            },
            {
              "internalType": "address",
              "name": "usdt",
              "type": "address"
            },
            {
              "internalType": "address",
              "name": "bbamDai",
              "type": "address"
            },
            {
              "internalType": "address",
              "name": "bbamUsdc",
              "type": "address"
            },
            {
              "internalType": "address",
              "name": "bbamUsdt",
              "type": "address"
            },
            {
              "internalType": "address",
              "name": "bpt",
              "type": "address"
            },
            {
              "internalType": "address",
              "name": "vault",
              "type": "address"
            },
            {
              "internalType": "address",
              "name": "gauge",
              "type": "address"
            },
            {
              "internalType": "address",
              "name": "balancerMinter",
              "type": "address"
            },
            {
              "internalType": "bytes32",
              "name": "bbamDaiPoolId",
              "type": "bytes32"
            },
            {
              "internalType": "bytes32",
              "name": "bbamUsdcPoolId",
              "type": "bytes32"
            },
            {
              "internalType": "bytes32",
              "name": "bbamUsdtPoolId",
              "type": "bytes32"
            },
            {
              "internalType": "bytes32",
              "name": "poolId",
              "type": "bytes32"
            },
            {
              "internalType": "address",
              "name": "oracleDai",
              "type": "address"
            },
            {
              "internalType": "address",
              "name": "oracleUsdc",
              "type": "address"
            },
            {
              "internalType": "address",
              "name": "oracleUsdt",
              "type": "address"
            },
            {
              "internalType": "address",
              "name": "wombatRouter",
              "type": "address"
            },
            {
              "internalType": "address",
              "name": "wombatBasePool",
              "type": "address"
            }
          ],
          "internalType": "struct StrategyBalancerDai.StrategyParams",
          "name": "params",
          "type": "tuple"
        }
      ],
      "name": "setParams",
      "outputs": [],
      "stateMutability": "nonpayable",
      "type": "function"
    },
    {
      "inputs": [
        {
          "internalType": "address",
          "name": "_value",
          "type": "address"
        }
      ],
      "name": "setPortfolioManager",
      "outputs": [],
      "stateMutability": "nonpayable",
      "type": "function"
    },
    {
      "inputs": [
        {
          "internalType": "uint256",
          "name": "_swapSlippageBP",
          "type": "uint256"
        },
        {
          "internalType": "uint256",
          "name": "_navSlippageBP",
          "type": "uint256"
        },
        {
          "internalType": "uint256",
          "name": "_stakeSlippageBP",
          "type": "uint256"
        }
      ],
      "name": "setSlippages",
      "outputs": [],
      "stateMutability": "nonpayable",
      "type": "function"
    },
    {
      "inputs": [
        {
          "internalType": "address",
          "name": "_asset",
          "type": "address"
        },
        {
          "internalType": "uint256",
          "name": "_amount",
          "type": "uint256"
        }
      ],
      "name": "stake",
      "outputs": [],
      "stateMutability": "nonpayable",
      "type": "function"
    },
    {
      "inputs": [],
      "name": "stakeSlippageBP",
      "outputs": [
        {
          "internalType": "uint256",
          "name": "",
          "type": "uint256"
        }
      ],
      "stateMutability": "view",
      "type": "function"
    },
    {
      "inputs": [
        {
          "internalType": "bytes4",
          "name": "interfaceId",
          "type": "bytes4"
        }
      ],
      "name": "supportsInterface",
      "outputs": [
        {
          "internalType": "bool",
          "name": "",
          "type": "bool"
        }
      ],
      "stateMutability": "view",
      "type": "function"
    },
    {
      "inputs": [],
      "name": "swapSlippageBP",
      "outputs": [
        {
          "internalType": "uint256",
          "name": "",
          "type": "uint256"
        }
      ],
      "stateMutability": "view",
      "type": "function"
    },
    {
      "inputs": [
        {
          "internalType": "address",
          "name": "_asset",
          "type": "address"
        },
        {
          "internalType": "uint256",
          "name": "_amount",
          "type": "uint256"
        },
        {
          "internalType": "address",
          "name": "_beneficiary",
          "type": "address"
        },
        {
          "internalType": "bool",
          "name": "_targetIsZero",
          "type": "bool"
        }
      ],
      "name": "unstake",
      "outputs": [
        {
          "internalType": "uint256",
          "name": "",
          "type": "uint256"
        }
      ],
      "stateMutability": "nonpayable",
      "type": "function"
    },
    {
      "inputs": [
        {
          "internalType": "address",
          "name": "newImplementation",
          "type": "address"
        }
      ],
      "name": "upgradeTo",
      "outputs": [],
      "stateMutability": "nonpayable",
      "type": "function"
    },
    {
      "inputs": [
        {
          "internalType": "address",
          "name": "newImplementation",
          "type": "address"
        },
        {
          "internalType": "bytes",
          "name": "data",
          "type": "bytes"
        }
      ],
      "name": "upgradeToAndCall",
      "outputs": [],
      "stateMutability": "payable",
      "type": "function"
    },
    {
      "inputs": [],
      "name": "usdc",
      "outputs": [
        {
          "internalType": "contract IERC20",
          "name": "",
          "type": "address"
        }
      ],
      "stateMutability": "view",
      "type": "function"
    },
    {
      "inputs": [],
      "name": "usdcDm",
      "outputs": [
        {
          "internalType": "uint256",
          "name": "",
          "type": "uint256"
        }
      ],
      "stateMutability": "view",
      "type": "function"
    },
    {
      "inputs": [],
      "name": "usdt",
      "outputs": [
        {
          "internalType": "contract IERC20",
          "name": "",
          "type": "address"
        }
      ],
      "stateMutability": "view",
      "type": "function"
    },
    {
      "inputs": [],
      "name": "usdtDm",
      "outputs": [
        {
          "internalType": "uint256",
          "name": "",
          "type": "uint256"
        }
      ],
      "stateMutability": "view",
      "type": "function"
    },
    {
      "inputs": [],
      "name": "vault",
      "outputs": [
        {
          "internalType": "contract IVault",
          "name": "",
          "type": "address"
        }
      ],
      "stateMutability": "view",
      "type": "function"
    },
    {
      "inputs": [],
      "name": "wombatBasePool",
      "outputs": [
        {
          "internalType": "address",
          "name": "",
          "type": "address"
        }
      ],
      "stateMutability": "view",
      "type": "function"
    },
    {
      "inputs": [],
      "name": "wombatRouter",
      "outputs": [
        {
          "internalType": "contract IWombatRouter",
          "name": "",
          "type": "address"
        }
      ],
      "stateMutability": "view",
      "type": "function"
    }
  ],
  "numDeployments": 1,
  "solcInputHash": "191f7aaf1096e06c6ed3163c095b1bfd",
  "bytecode": "0x60a06040523060601b6080523480156200001857600080fd5b50600054610100900460ff16158080156200003a5750600054600160ff909116105b806200006a575062000057306200014460201b62001c411760201c565b1580156200006a575060005460ff166001145b620000d25760405162461bcd60e51b815260206004820152602e60248201527f496e697469616c697a61626c653a20636f6e747261637420697320616c72656160448201526d191e481a5b9a5d1a585b1a5e995960921b606482015260840160405180910390fd5b6000805460ff191660011790558015620000f6576000805461ff0019166101001790555b80156200013d576000805461ff0019169055604051600181527f7f26b83ff96e1f2b6a682f133852f6798a09c465da95921460cefb38474024989060200160405180910390a15b5062000153565b6001600160a01b03163b151590565b60805160601c615c606200018e600039600081816109470152818161098701528181610a2701528181610a670152610af60152615c606000f3fe6080604052600436106102925760003560e01c806378f9b56d1161015a578063bf52e080116100c1578063ef5cfb8c1161007a578063ef5cfb8c14610791578063f4b9fa75146107b1578063f6f6b881146107d2578063f704a2b0146107f2578063fb24974a14610812578063fbfa77cf1461082857600080fd5b8063bf52e080146106f5578063cc6522c31461070b578063d547741f1461072c578063dc279b731461074c578063ebc09def14610763578063ed37b3691461077a57600080fd5b8063a217fddf11610113578063a217fddf1461065f578063a3673b38146103a8578063a440b21a14610674578063a6f19c8414610694578063adc9772e146106b5578063ae30c110146106d557600080fd5b806378f9b56d146105af5780637d5f5802146105d05780637e731638146105f2578063811766fa146106135780638129fc1c1461062a57806391d148541461063f57600080fd5b80633e0dc34e116101fe5780635dbd733a116101b75780635dbd733a146104d75780635f07c5f31461050b5780635fea9cbb1461052c578063608961841461054d578063612c87df1461056e578063620b75df1461058f57600080fd5b80633e0dc34e146104405780633e413bee146104575780634f1ef2861461047857806352d1902d1461048b578063546af3c3146104a05780635ca558f8146104c157600080fd5b8063248a9ca311610250578063248a9ca3146103785780632576e65a146103a85780632f2ff15d146103bd5780632f48ab7d146103df57806336568abe146104005780633659cfe61461042057600080fd5b8062b17aaf1461029757806301ffc9a7146102d55780630f9033f714610305578063119cd8791461032a5780631b1e7ddc14610340578063244e59da14610357575b600080fd5b3480156102a357600080fd5b50610136546102b8906001600160a01b031681565b6040516001600160a01b0390911681526020015b60405180910390f35b3480156102e157600080fd5b506102f56102f03660046152cf565b610849565b60405190151581526020016102cc565b34801561031157600080fd5b5061031c6101425481565b6040519081526020016102cc565b34801561033657600080fd5b5061031c60fd5481565b34801561034c57600080fd5b5061031c6101415481565b34801561036357600080fd5b5061013f546102b8906001600160a01b031681565b34801561038457600080fd5b5061031c61039336600461526d565b60009081526065602052604090206001015490565b3480156103b457600080fd5b5061031c610880565b3480156103c957600080fd5b506103dd6103d836600461529f565b61088f565b005b3480156103eb57600080fd5b5061012f546102b8906001600160a01b031681565b34801561040c57600080fd5b506103dd61041b36600461529f565b6108b9565b34801561042c57600080fd5b506103dd61043b366004614f9f565b61093c565b34801561044c57600080fd5b5061031c61013a5481565b34801561046357600080fd5b5061012e546102b8906001600160a01b031681565b6103dd610486366004614fbc565b610a1c565b34801561049757600080fd5b5061031c610ae9565b3480156104ac57600080fd5b50610133546102b8906001600160a01b031681565b3480156104cd57600080fd5b5061031c60fe5481565b3480156104e357600080fd5b5061031c7fd67ad422505496469a1adf6cdf9e5ee92ac5d33992843c9ecc4b2f6d6cde913781565b34801561051757600080fd5b5061013b546102b8906001600160a01b031681565b34801561053857600080fd5b5061013c546102b8906001600160a01b031681565b34801561055957600080fd5b50610130546102b8906001600160a01b031681565b34801561057a57600080fd5b5061013e546102b8906001600160a01b031681565b34801561059b57600080fd5b5060fb546102b8906001600160a01b031681565b3480156105bb57600080fd5b50610131546102b8906001600160a01b031681565b3480156105dc57600080fd5b5061031c600080516020615bc483398151915281565b3480156105fe57600080fd5b50610132546102b8906001600160a01b031681565b34801561061f57600080fd5b5061031c6101405481565b34801561063657600080fd5b506103dd610b9c565b34801561064b57600080fd5b506102f561065a36600461529f565b610c66565b34801561066b57600080fd5b5061031c600081565b34801561068057600080fd5b506103dd61068f366004614f9f565b610c91565b3480156106a057600080fd5b50610135546102b8906001600160a01b031681565b3480156106c157600080fd5b506103dd6106d0366004615064565b610dc0565b3480156106e157600080fd5b506103dd6106f0366004615312565b610ff0565b34801561070157600080fd5b5061031c60fc5481565b34801561071757600080fd5b5061013d546102b8906001600160a01b031681565b34801561073857600080fd5b506103dd61074736600461529f565b611165565b34801561075857600080fd5b5061031c6101395481565b34801561076f57600080fd5b5061031c6101375481565b34801561078657600080fd5b5061031c6101385481565b34801561079d57600080fd5b5061031c6107ac366004614f9f565b61118a565b3480156107bd57600080fd5b5061012d546102b8906001600160a01b031681565b3480156107de57600080fd5b5061031c6107ed366004615090565b61120f565b3480156107fe57600080fd5b506103dd61080d3660046152f9565b6114da565b34801561081e57600080fd5b5061031c60001981565b34801561083457600080fd5b50610134546102b8906001600160a01b031681565b60006001600160e01b03198216637965db0b60e01b148061087a57506301ffc9a760e01b6001600160e01b03198316145b92915050565b600061088a611c50565b905090565b6000828152606560205260409020600101546108aa81612255565b6108b4838361225f565b505050565b6001600160a01b038116331461092e5760405162461bcd60e51b815260206004820152602f60248201527f416363657373436f6e74726f6c3a2063616e206f6e6c792072656e6f756e636560448201526e103937b632b9903337b91039b2b63360891b60648201526084015b60405180910390fd5b61093882826122e5565b5050565b306001600160a01b037f00000000000000000000000000000000000000000000000000000000000000001614156109855760405162461bcd60e51b815260040161092590615750565b7f00000000000000000000000000000000000000000000000000000000000000006001600160a01b03166109ce600080516020615be4833981519152546001600160a01b031690565b6001600160a01b0316146109f45760405162461bcd60e51b81526004016109259061579c565b6109fd8161234c565b60408051600080825260208201909252610a1991839190612357565b50565b306001600160a01b037f0000000000000000000000000000000000000000000000000000000000000000161415610a655760405162461bcd60e51b815260040161092590615750565b7f00000000000000000000000000000000000000000000000000000000000000006001600160a01b0316610aae600080516020615be4833981519152546001600160a01b031690565b6001600160a01b031614610ad45760405162461bcd60e51b81526004016109259061579c565b610add8261234c565b61093882826001612357565b6000306001600160a01b037f00000000000000000000000000000000000000000000000000000000000000001614610b895760405162461bcd60e51b815260206004820152603860248201527f555550535570677261646561626c653a206d757374206e6f742062652063616c60448201527f6c6564207468726f7567682064656c656761746563616c6c00000000000000006064820152608401610925565b50600080516020615be483398151915290565b600054610100900460ff1615808015610bbc5750600054600160ff909116105b80610bd65750303b158015610bd6575060005460ff166001145b610bf25760405162461bcd60e51b8152600401610925906157e8565b6000805460ff191660011790558015610c15576000805461ff0019166101001790555b610c1d6124d1565b8015610a19576000805461ff0019169055604051600181527f7f26b83ff96e1f2b6a682f133852f6798a09c465da95921460cefb3847402498906020015b60405180910390a150565b60009182526065602090815260408084206001600160a01b0393909316845291905290205460ff1690565b610c9c600033610c66565b610cdf5760405162461bcd60e51b81526020600482015260146024820152735265737472696374656420746f2061646d696e7360601b6044820152606401610925565b6001600160a01b038116610d355760405162461bcd60e51b815260206004820152601860248201527f5a65726f2061646472657373206e6f7420616c6c6f77656400000000000000006044820152606401610925565b60fb54610d5a90600080516020615bc4833981519152906001600160a01b0316611165565b610d72600080516020615bc48339815191528261088f565b60fb80546001600160a01b0319166001600160a01b0383169081179091556040519081527ff7b449fcd5cfb7379dcd34cb69428dd9f882033b15be33d83b42d91daa28eeb790602001610c5b565b610dd8600080516020615bc483398151915233610c66565b610df45760405162461bcd60e51b815260040161092590615719565b6000610e72306001600160a01b031663a3673b386040518163ffffffff1660e01b815260040160206040518083038186803b158015610e3257600080fd5b505afa158015610e46573d6000803e3d6000fd5b505050506040513d601f19601f82011682018060405250810190610e6a9190615286565b60fd546125b6565b6040516370a0823160e01b8152306004820152909150610ef79084906001600160a01b038216906370a082319060240160206040518083038186803b158015610eba57600080fd5b505afa158015610ece573d6000803e3d6000fd5b505050506040513d601f19601f82011682018060405250810190610ef29190615286565b6125e0565b80306001600160a01b031663a3673b386040518163ffffffff1660e01b815260040160206040518083038186803b158015610f3157600080fd5b505afa158015610f45573d6000803e3d6000fd5b505050506040513d601f19601f82011682018060405250810190610f699190615286565b1015610fb75760405162461bcd60e51b815260206004820152601f60248201527f5374726174656779204e4156206c657373207468616e206578706563746564006044820152606401610925565b6040518281527f227a473b70d2f893cc7659219575c030a63b5743024fe1e0c1a680e708b1525a906020015b60405180910390a1505050565b61101a7fd67ad422505496469a1adf6cdf9e5ee92ac5d33992843c9ecc4b2f6d6cde913733610c66565b806110c1575060fb54604051632474521560e21b81527fd67ad422505496469a1adf6cdf9e5ee92ac5d33992843c9ecc4b2f6d6cde913760048201523360248201526001600160a01b03909116906391d148549060440160206040518083038186803b15801561108957600080fd5b505afa15801561109d573d6000803e3d6000fd5b505050506040513d601f19601f820116820180604052508101906110c19190615250565b6111185760405162461bcd60e51b815260206004820152602260248201527f5265737472696374656420746f20504f5254464f4c494f5f4147454e545f524f6044820152614c4560f01b6064820152608401610925565b60fc83905560fd82905560fe81905560408051848152602081018490529081018290527f116fbf1e97a2be629ad98abfb6c332733c8996c2dfb174dd2efe8440df381d1a90606001610fe3565b60008281526065602052604090206001015461118081612255565b6108b483836122e5565b60006111a4600080516020615bc483398151915233610c66565b6111c05760405162461bcd60e51b815260040161092590615719565b60006111cb83612c52565b90508015611207576040518181527f3ac0594a85a20354f9dc74f33728416d19ce00d04a406c108cc2dcf2cecea1349060200160405180910390a15b90505b919050565b6000611229600080516020615bc483398151915233610c66565b6112455760405162461bcd60e51b815260040161092590615719565b6000611283306001600160a01b031663a3673b386040518163ffffffff1660e01b815260040160206040518083038186803b158015610e3257600080fd5b905060008084156112aa5761129786612c52565b90506112a38887612e7d565b9150611319565b6112b5888888612f90565b9150868210156113195760405162461bcd60e51b815260206004820152602960248201527f52657475726e65642076616c7565206c657373207468616e2072657175657374604482015268195908185b5bdd5b9d60ba1b6064820152608401610925565b82306001600160a01b031663a3673b386040518163ffffffff1660e01b815260040160206040518083038186803b15801561135357600080fd5b505afa158015611367573d6000803e3d6000fd5b505050506040513d601f19601f8201168201806040525081019061138b9190615286565b10156113d95760405162461bcd60e51b815260206004820152601f60248201527f5374726174656779204e4156206c657373207468616e206578706563746564006044820152606401610925565b60405163a9059cbb60e01b81526001600160a01b0387811660048301526024820184905289169063a9059cbb90604401602060405180830381600087803b15801561142357600080fd5b505af1158015611437573d6000803e3d6000fd5b505050506040513d601f19601f8201168201806040525081019061145b9190615250565b5060408051888152602081018490527f9045c2ac9b2026de8075f2701bbdde882cd5e830b3b1ead9a15b22f2b5b93742910160405180910390a180156114cf576040518181527f3ac0594a85a20354f9dc74f33728416d19ce00d04a406c108cc2dcf2cecea1349060200160405180910390a15b509695505050505050565b6114e5600033610c66565b6115285760405162461bcd60e51b81526020600482015260146024820152735265737472696374656420746f2061646d696e7360601b6044820152606401610925565b6115356020820182614f9f565b61012d80546001600160a01b0319166001600160a01b03929092169190911790556115666040820160208301614f9f565b61012e80546001600160a01b0319166001600160a01b03929092169190911790556115976060820160408301614f9f565b61012f80546001600160a01b0319166001600160a01b03929092169190911790556115c86080820160608301614f9f565b61013080546001600160a01b0319166001600160a01b03929092169190911790556115f960a0820160808301614f9f565b61013180546001600160a01b0319166001600160a01b039290921691909117905561162a60c0820160a08301614f9f565b61013280546001600160a01b0319166001600160a01b039290921691909117905561165b60e0820160c08301614f9f565b61013380546001600160a01b0319166001600160a01b039290921691909117905561168d610100820160e08301614f9f565b61013480546001600160a01b0319166001600160a01b03929092169190911790556116c061012082016101008301614f9f565b61013580546001600160a01b0319166001600160a01b03929092169190911790556116f361014082016101208301614f9f565b61013680546001600160a01b0319166001600160a01b03929092169190911790556101408101356101375561016081013561013855610180810135610139556101a081013561013a5561174e6101e082016101c08301614f9f565b61013b80546001600160a01b0319166001600160a01b039290921691909117905561178161020082016101e08301614f9f565b61013c80546001600160a01b0319166001600160a01b03929092169190911790556117b461022082016102008301614f9f565b61013d80546001600160a01b0319166001600160a01b03929092169190911790556117e761024082016102208301614f9f565b61013e80546001600160a01b0319166001600160a01b039290921691909117905561181a61026082016102408301614f9f565b61013f80546001600160a01b0319166001600160a01b03929092169190911790556118486020820182614f9f565b6001600160a01b031663313ce5676040518163ffffffff1660e01b815260040160206040518083038186803b15801561188057600080fd5b505afa158015611894573d6000803e3d6000fd5b505050506040513d601f19601f820116820180604052508101906118b8919061538e565b6118c390600a6159ec565b610140556118d76040820160208301614f9f565b6001600160a01b031663313ce5676040518163ffffffff1660e01b815260040160206040518083038186803b15801561190f57600080fd5b505afa158015611923573d6000803e3d6000fd5b505050506040513d601f19601f82011682018060405250810190611947919061538e565b61195290600a6159ec565b610141556119666060820160408301614f9f565b6001600160a01b031663313ce5676040518163ffffffff1660e01b815260040160206040518083038186803b15801561199e57600080fd5b505afa1580156119b2573d6000803e3d6000fd5b505050506040513d601f19601f820116820180604052508101906119d6919061538e565b6119e190600a6159ec565b61014255610130546101345460405163095ea7b360e01b81526001600160a01b039182166004820152600019602482015291169063095ea7b390604401602060405180830381600087803b158015611a3857600080fd5b505af1158015611a4c573d6000803e3d6000fd5b505050506040513d601f19601f82011682018060405250810190611a709190615250565b50610131546101345460405163095ea7b360e01b81526001600160a01b039182166004820152600019602482015291169063095ea7b390604401602060405180830381600087803b158015611ac457600080fd5b505af1158015611ad8573d6000803e3d6000fd5b505050506040513d601f19601f82011682018060405250810190611afc9190615250565b50610132546101345460405163095ea7b360e01b81526001600160a01b039182166004820152600019602482015291169063095ea7b390604401602060405180830381600087803b158015611b5057600080fd5b505af1158015611b64573d6000803e3d6000fd5b505050506040513d601f19601f82011682018060405250810190611b889190615250565b50610133546101355460405163095ea7b360e01b81526001600160a01b039182166004820152600019602482015291169063095ea7b390604401602060405180830381600087803b158015611bdc57600080fd5b505af1158015611bf0573d6000803e3d6000fd5b505050506040513d601f19601f82011682018060405250810190611c149190615250565b506040517fea5646eb3528e525944447a4a97de700dd472298626e5c0481d1c82c3da86ea590600090a150565b6001600160a01b03163b151590565b61012d546040516370a0823160e01b815230600482015260009182916001600160a01b03909116906370a082319060240160206040518083038186803b158015611c9957600080fd5b505afa158015611cad573d6000803e3d6000fd5b505050506040513d601f19601f82011682018060405250810190611cd19190615286565b61012e546040516370a0823160e01b81523060048201529192506000916001600160a01b03909116906370a082319060240160206040518083038186803b158015611d1b57600080fd5b505afa158015611d2f573d6000803e3d6000fd5b505050506040513d601f19601f82011682018060405250810190611d539190615286565b61012f546040516370a0823160e01b81523060048201529192506000916001600160a01b03909116906370a082319060240160206040518083038186803b158015611d9d57600080fd5b505afa158015611db1573d6000803e3d6000fd5b505050506040513d601f19601f82011682018060405250810190611dd59190615286565b610135546040516370a0823160e01b81523060048201529192506000916001600160a01b03909116906370a082319060240160206040518083038186803b158015611e1f57600080fd5b505afa158015611e33573d6000803e3d6000fd5b505050506040513d601f19601f82011682018060405250810190611e579190615286565b9050801561222457610133546040805163876f303b60e01b815290516000926001600160a01b03169163876f303b916004808301926020929190829003018186803b158015611ea557600080fd5b505afa158015611eb9573d6000803e3d6000fd5b505050506040513d601f19601f82011682018060405250810190611edd9190615286565b6101345461013a54604051631f29a8cd60e31b8152600481019190915291925060009182916001600160a01b03169063f94d46689060240160006040518083038186803b158015611f2d57600080fd5b505afa158015611f41573d6000803e3d6000fd5b505050506040513d6000823e601f3d908101601f19168201604052611f6991908101906150e3565b509150915060005b825181101561221f576000838281518110611f8e57611f8e615b74565b6020026020010151905060008587858581518110611fae57611fae615b74565b6020026020010151611fc09190615a97565b611fca9190615987565b610130549091506001600160a01b038381169116141561208e5761013054604080516333cd77e760e11b81529051670de0b6b3a7640000926001600160a01b03169163679aefce916004808301926020929190829003018186803b15801561203157600080fd5b505afa158015612045573d6000803e3d6000fd5b505050506040513d601f19601f820116820180604052508101906120699190615286565b6120739083615a97565b61207d9190615987565b612087908b61596f565b995061220a565b610131546001600160a01b03838116911614156121535761013154604080516333cd77e760e11b8152905168327cb2734119d3b7a9601e1b926001600160a01b03169163679aefce916004808301926020929190829003018186803b1580156120f657600080fd5b505afa15801561210a573d6000803e3d6000fd5b505050506040513d601f19601f8201168201806040525081019061212e9190615286565b6121389083615a97565b6121429190615987565b61214c908a61596f565b985061220a565b610132546001600160a01b038381169116141561220a5761013254604080516333cd77e760e11b8152905168327cb2734119d3b7a9601e1b926001600160a01b03169163679aefce916004808301926020929190829003018186803b1580156121bb57600080fd5b505afa1580156121cf573d6000803e3d6000fd5b505050506040513d601f19601f820116820180604052508101906121f39190615286565b6121fd9083615a97565b6122079190615987565b97505b5050808061221790615b10565b915050611f71565b505050505b61222d8361301f565b612237908561596f565b93506122428261306b565b61224c908561596f565b95945050505050565b610a1981336130b7565b6122698282610c66565b6109385760008281526065602090815260408083206001600160a01b03851684529091529020805460ff191660011790556122a13390565b6001600160a01b0316816001600160a01b0316837f2f8788117e7eff1d82e926ec794901d17c78024a50270940304540a733656f0d60405160405180910390a45050565b6122ef8282610c66565b156109385760008281526065602090815260408083206001600160a01b0385168085529252808320805460ff1916905551339285917ff6391f5c32d9c69d2a47ea670b442974b53935d1edc7fd64eb21e047a839171b9190a45050565b600061093881612255565b7f4910fdfa16fed3260ed0e7147f7cc6da11a60208b5b9406d12a635614ffd91435460ff161561238a576108b483613110565b826001600160a01b03166352d1902d6040518163ffffffff1660e01b815260040160206040518083038186803b1580156123c357600080fd5b505afa9250505080156123f3575060408051601f3d908101601f191682019092526123f091810190615286565b60015b6124565760405162461bcd60e51b815260206004820152602e60248201527f45524331393637557067726164653a206e657720696d706c656d656e7461746960448201526d6f6e206973206e6f74205555505360901b6064820152608401610925565b600080516020615be483398151915281146124c55760405162461bcd60e51b815260206004820152602960248201527f45524331393637557067726164653a20756e737570706f727465642070726f786044820152681a58589b195555525160ba1b6064820152608401610925565b506108b48383836131ac565b600054610100900460ff16158080156124f15750600054600160ff909116105b8061250b5750303b15801561250b575060005460ff166001145b6125275760405162461bcd60e51b8152600401610925906157e8565b6000805460ff19166001179055801561254a576000805461ff0019166101001790555b6125526131d7565b61255a6131d7565b61256560003361225f565b601460fc81905560fd55600460fe558015610a19576000805461ff0019169055604051600181527f7f26b83ff96e1f2b6a682f133852f6798a09c465da95921460cefb384740249890602001610c5b565b60006127106125c58382615ab6565b6125cf9085615a97565b6125d99190615987565b9392505050565b61012d546040516370a0823160e01b81523060048201526000918291612668916001600160a01b0316906370a082319060240160206040518083038186803b15801561262b57600080fd5b505afa15801561263f573d6000803e3d6000fd5b505050506040513d601f19601f820116820180604052508101906126639190615286565b613244565b915091506126768282613672565b61012d5461013054610137546126a2926001600160a01b03908116921690670de0b6b3a76400006136d3565b61012e5461013154610138546126d2926001600160a01b0390811692169068327cb2734119d3b7a9601e1b6136d3565b61012f546101325461013954612702926001600160a01b0390811692169068327cb2734119d3b7a9601e1b6136d3565b6101345461013a54604051631f29a8cd60e31b815260048101919091526000916001600160a01b03169063f94d46689060240160006040518083038186803b15801561274d57600080fd5b505afa158015612761573d6000803e3d6000fd5b505050506040513d6000823e601f3d908101601f1916820160405261278991908101906150e3565b505060408051600480825260a082019092529192506000919060208201608080368337505060408051600480825260a0820190925292935060009291506020820160808036833750506040805160038082526080820190925292935060009291506020820160608036833701905050905060005b8451811015612ab05784818151811061281857612818615b74565b602002602001015184828151811061283257612832615b74565b6001600160a01b03928316602091820292909201015261013054865191169086908390811061286357612863615b74565b60200260200101516001600160a01b0316141561293b57610130546040516370a0823160e01b81523060048201526001600160a01b03909116906370a08231906024015b60206040518083038186803b1580156128bf57600080fd5b505afa1580156128d3573d6000803e3d6000fd5b505050506040513d601f19601f820116820180604052508101906128f79190615286565b82828151811061290957612909615b74565b60200260200101818152505060001983828151811061292a5761292a615b74565b602002602001018181525050612a9e565b6101315485516001600160a01b039091169086908390811061295f5761295f615b74565b60200260200101516001600160a01b031614156129a757610131546040516370a0823160e01b81523060048201526001600160a01b03909116906370a08231906024016128a7565b6101325485516001600160a01b03909116908690839081106129cb576129cb615b74565b60200260200101516001600160a01b03161415612a9e57610132546040516370a0823160e01b81523060048201526001600160a01b03909116906370a082319060240160206040518083038186803b158015612a2657600080fd5b505afa158015612a3a573d6000803e3d6000fd5b505050506040513d601f19601f82011682018060405250810190612a5e9190615286565b828281518110612a7057612a70615b74565b602002602001018181525050600019838281518110612a9157612a91615b74565b6020026020010181815250505b80612aa881615b10565b9150506127fd565b506040516001908190600090612ace908390869082906020016158f1565b60408051601f1981840301815260808301825288835260208301889052828201819052600060608401526101345461013a54925163172b958560e31b81529194506001600160a01b03169163b95cac2891612b329190309081908790600401615558565b600060405180830381600087803b158015612b4c57600080fd5b505af1158015612b60573d6000803e3d6000fd5b5050610133546040516370a0823160e01b8152306004820152600093506001600160a01b0390911691506370a082319060240160206040518083038186803b158015612bab57600080fd5b505afa158015612bbf573d6000803e3d6000fd5b505050506040513d601f19601f82011682018060405250810190612be39190615286565b6101355460405163b6b55f2560e01b8152600481018390529192506001600160a01b03169063b6b55f2590602401600060405180830381600087803b158015612c2b57600080fd5b505af1158015612c3f573d6000803e3d6000fd5b5050505050505050505050505050505050565b610135546040516370a0823160e01b81523060048201526000916001600160a01b0316906370a082319060240160206040518083038186803b158015612c9757600080fd5b505afa158015612cab573d6000803e3d6000fd5b505050506040513d601f19601f82011682018060405250810190612ccf9190615286565b612cdb57506000919050565b61013654610135546040516335313c2160e11b81526001600160a01b039182166004820152911690636a62784290602401602060405180830381600087803b158015612d2657600080fd5b505af1158015612d3a573d6000803e3d6000fd5b505050506040513d601f19601f82011682018060405250810190612d5e9190615286565b50600073__$1e0a0e1dc704688c094f02620037e329cc$__63a6e464806040518163ffffffff1660e01b815260040160206040518083038186803b158015612da557600080fd5b505af4158015612db9573d6000803e3d6000fd5b505050506040513d601f19601f82011682018060405250810190612ddd9190615286565b612de7908261596f565b905080156112075761012d5460405163a9059cbb60e01b81526001600160a01b038581166004830152602482018490529091169063a9059cbb90604401602060405180830381600087803b158015612e3e57600080fd5b505af1158015612e52573d6000803e3d6000fd5b505050506040513d601f19601f82011682018060405250810190612e769190615250565b5092915050565b610135546040516370a0823160e01b815230600482015260009182916001600160a01b03909116906370a082319060240160206040518083038186803b158015612ec657600080fd5b505afa158015612eda573d6000803e3d6000fd5b505050506040513d601f19601f82011682018060405250810190612efe9190615286565b1115612f1457612f14612f0f611c50565b61380c565b61012d546040516370a0823160e01b81523060048201526001600160a01b03909116906370a082319060240160206040518083038186803b158015612f5857600080fd5b505afa158015612f6c573d6000803e3d6000fd5b505050506040513d601f19601f820116820180604052508101906125d99190615286565b6000612f9b8361380c565b61012d546040516370a0823160e01b81523060048201526001600160a01b03909116906370a082319060240160206040518083038186803b158015612fdf57600080fd5b505afa158015612ff3573d6000803e3d6000fd5b505050506040513d601f19601f820116820180604052508101906130179190615286565b949350505050565b61013c54600090819061303a906001600160a01b0316613a7e565b61013b54909150600090613056906001600160a01b0316613a7e565b90506130178461014154610140548585613ba2565b61013d546000908190613086906001600160a01b0316613a7e565b61013b549091506000906130a2906001600160a01b0316613a7e565b90506130178461014254610140548585613ba2565b6130c18282610c66565b610938576130ce81613bd7565b6130d9836020613be9565b6040516020016130ea92919061548f565b60408051601f198184030181529082905262461bcd60e51b825261092591600401615706565b6001600160a01b0381163b61317d5760405162461bcd60e51b815260206004820152602d60248201527f455243313936373a206e657720696d706c656d656e746174696f6e206973206e60448201526c1bdd08184818dbdb9d1c9858dd609a1b6064820152608401610925565b600080516020615be483398151915280546001600160a01b0319166001600160a01b0392909216919091179055565b6131b583613d85565b6000825111806131c25750805b156108b4576131d18383613dc5565b50505050565b600054610100900460ff166132425760405162461bcd60e51b815260206004820152602b60248201527f496e697469616c697a61626c653a20636f6e7472616374206973206e6f74206960448201526a6e697469616c697a696e6760a81b6064820152608401610925565b565b6101345461013a54604051631f29a8cd60e31b815260048101919091526000918291829182918291829182916001600160a01b03169063f94d46689060240160006040518083038186803b15801561329b57600080fd5b505afa1580156132af573d6000803e3d6000fd5b505050506040513d6000823e601f3d908101601f191682016040526132d791908101906150e3565b509150915060005b82518110156135945760008382815181106132fc576132fc615b74565b6020908102919091010151610130549091506001600160a01b03808316911614156133db5761013054604080516333cd77e760e11b81529051670de0b6b3a7640000926001600160a01b03169163679aefce916004808301926020929190829003018186803b15801561336e57600080fd5b505afa158015613382573d6000803e3d6000fd5b505050506040513d601f19601f820116820180604052508101906133a69190615286565b8484815181106133b8576133b8615b74565b60200260200101516133ca9190615a97565b6133d49190615987565b9650613581565b610131546001600160a01b03828116911614156134b05761013154604080516333cd77e760e11b8152905168327cb2734119d3b7a9601e1b926001600160a01b03169163679aefce916004808301926020929190829003018186803b15801561344357600080fd5b505afa158015613457573d6000803e3d6000fd5b505050506040513d601f19601f8201168201806040525081019061347b9190615286565b84848151811061348d5761348d615b74565b602002602001015161349f9190615a97565b6134a99190615987565b9550613581565b610132546001600160a01b03828116911614156135815761013254604080516333cd77e760e11b8152905168327cb2734119d3b7a9601e1b926001600160a01b03169163679aefce916004808301926020929190829003018186803b15801561351857600080fd5b505afa15801561352c573d6000803e3d6000fd5b505050506040513d601f19601f820116820180604052508101906135509190615286565b84848151811061356257613562615b74565b60200260200101516135749190615a97565b61357e9190615987565b94505b508061358c81615b10565b9150506132df565b5060006135a361014054613eb0565b905060006135b361014054613efc565b9050806135c08387615a97565b6135ca9190615987565b6101405487906135da858b615a97565b6135e49190615987565b6135ee919061596f565b6135f8919061596f565b613602878c615a97565b61360c9190615987565b9850848261361a8389615a97565b6136249190615987565b61014054613632848b615a97565b61363c9190615987565b613646919061596f565b613650919061596f565b61365a868c615a97565b6136649190615987565b975050505050505050915091565b61013e5461012d5461012e5461013f546136a2936001600160a01b03908116938116928116911686600030613f48565b5061013e5461012d5461012f5461013f546108b4936001600160a01b03908116938116928116911685600030613f48565b6040516370a0823160e01b81523060048201526000906001600160a01b038616906370a082319060240160206040518083038186803b15801561371557600080fd5b505afa158015613729573d6000803e3d6000fd5b505050506040513d601f19601f8201168201806040525081019061374d9190615286565b905060006137e1856001600160a01b031663679aefce6040518163ffffffff1660e01b815260040160206040518083038186803b15801561378d57600080fd5b505afa1580156137a1573d6000803e3d6000fd5b505050506040513d601f19601f820116820180604052508101906137c59190615286565b6137cf8585615a97565b6137d99190615987565b60fc546125b6565b61013454909150613803906001600160a01b031660008888888787308061412e565b50505050505050565b60008060006138256138208560fc546142e8565b6142f7565b91945092509050600081613839848661596f565b613843919061596f565b610135546040516370a0823160e01b81523060048201529192506000916001600160a01b03909116906370a082319060240160206040518083038186803b15801561388d57600080fd5b505afa1580156138a1573d6000803e3d6000fd5b505050506040513d601f19601f820116820180604052508101906138c59190615286565b9050808211156138d3578091505b61013554604051632e1a7d4d60e01b8152600481018490526001600160a01b0390911690632e1a7d4d90602401600060405180830381600087803b15801561391a57600080fd5b505af115801561392e573d6000803e3d6000fd5b505061013454610133546101305461012d5461013a546101375461397097506001600160a01b039586169650938516949283169392909116918b600030614948565b5061013454610133546101315461012e5461013a54610138546139ab956001600160a01b03908116958116948116931691908a600030614948565b5080821415613a3357610133546040516370a0823160e01b81523060048201526001600160a01b03909116906370a082319060240160206040518083038186803b1580156139f857600080fd5b505afa158015613a0c573d6000803e3d6000fd5b505050506040513d601f19601f82011682018060405250810190613a309190615286565b92505b61013454610133546101325461012f5461013a5461013954613a6d956001600160a01b039081169581169481169316919089600030614948565b50613a76614d70565b505050505050565b6000806000806000856001600160a01b031663feaf968c6040518163ffffffff1660e01b815260040160a06040518083038186803b158015613abf57600080fd5b505afa158015613ad3573d6000803e3d6000fd5b505050506040513d601f19601f82011682018060405250810190613af7919061533e565b9450945050935093508369ffffffffffffffffffff168169ffffffffffffffffffff161015613b535760405162461bcd60e51b81526020600482015260086024820152674f6c64206461746160c01b6044820152606401610925565b60008211613b985760405162461bcd60e51b8152602060048201526012602482015271526f756e64206e6f7420636f6d706c65746560701b6044820152606401610925565b5090949350505050565b6000613bae8286615a97565b83613bb98689615a97565b613bc39190615a97565b613bcd9190615987565b9695505050505050565b606061087a6001600160a01b03831660145b60606000613bf8836002615a97565b613c0390600261596f565b67ffffffffffffffff811115613c1b57613c1b615b8a565b6040519080825280601f01601f191660200182016040528015613c45576020820181803683370190505b509050600360fc1b81600081518110613c6057613c60615b74565b60200101906001600160f81b031916908160001a905350600f60fb1b81600181518110613c8f57613c8f615b74565b60200101906001600160f81b031916908160001a9053506000613cb3846002615a97565b613cbe90600161596f565b90505b6001811115613d36576f181899199a1a9b1b9c1cb0b131b232b360811b85600f1660108110613cf257613cf2615b74565b1a60f81b828281518110613d0857613d08615b74565b60200101906001600160f81b031916908160001a90535060049490941c93613d2f81615af9565b9050613cc1565b5083156125d95760405162461bcd60e51b815260206004820181905260248201527f537472696e67733a20686578206c656e67746820696e73756666696369656e746044820152606401610925565b613d8e81613110565b6040516001600160a01b038216907fbc7cd75a20ee27fd9adebab32041f755214dbc6bffa90cc0225b39da2e5c2d3b90600090a250565b60606001600160a01b0383163b613e2d5760405162461bcd60e51b815260206004820152602660248201527f416464726573733a2064656c65676174652063616c6c20746f206e6f6e2d636f6044820152651b9d1c9858dd60d21b6064820152608401610925565b600080846001600160a01b031684604051613e489190615473565b600060405180830381855af49150503d8060008114613e83576040519150601f19603f3d011682016040523d82523d6000602084013e613e88565b606091505b509150915061224c8282604051806060016040528060278152602001615c0460279139614ed5565b61013c546000908190613ecb906001600160a01b0316613a7e565b61013b54909150600090613ee7906001600160a01b0316613a7e565b90506130178461014054610141548486613ba2565b61013d546000908190613f17906001600160a01b0316613a7e565b61013b54909150600090613f33906001600160a01b0316613a7e565b90506130178461014054610142548486613ba2565b60405163095ea7b360e01b81526001600160a01b038881166004830152602482018590526000919088169063095ea7b390604401602060405180830381600087803b158015613f9657600080fd5b505af1158015613faa573d6000803e3d6000fd5b505050506040513d601f19601f82011682018060405250810190613fce9190615250565b50604080516002808252606082018352600092602083019080368337019050509050878160008151811061400457614004615b74565b60200260200101906001600160a01b031690816001600160a01b031681525050868160018151811061403857614038615b74565b6001600160a01b039290921660209283029190910190910152604080516001808252818301909252600091816020016020820280368337019050509050868160008151811061408957614089615b74565b6001600160a01b03928316602091820292909201015260405163351041e960e21b8152908b169063d44107a4906140ce90859085908b908b908b904290600401615504565b602060405180830381600087803b1580156140e857600080fd5b505af11580156140fc573d6000803e3d6000fd5b505050506040513d601f19601f820116820180604052508101906141209190615286565b9a9950505050505050505050565b60405163095ea7b360e01b81526001600160a01b038a81166004830152602482018690526000919089169063095ea7b390604401602060405180830381600087803b15801561417c57600080fd5b505af1158015614190573d6000803e3d6000fd5b505050506040513d601f19601f820116820180604052508101906141b49190615250565b5060006040518060c001604052808881526020018b60018111156141da576141da615b5e565b81526001600160a01b03808c1660208301528a1660408201526060810188905260800160006040519080825280601f01601f191660200182016040528015614229576020820181803683370190505b509052604080516080810182526001600160a01b03808816825260006020830181905287821683850152606083015291516352bbbe2960e01b815292935091908d16906352bbbe299061428690859085908b904290600401615836565b602060405180830381600087803b1580156142a057600080fd5b505af11580156142b4573d6000803e3d6000fd5b505050506040513d601f19601f820116820180604052508101906142d89190615286565b9c9b505050505050505050505050565b60006127106125c5838261596f565b6101345461013a54604051631f29a8cd60e31b8152600481019190915260009182918291829182916001600160a01b03169063f94d46689060240160006040518083038186803b15801561434a57600080fd5b505afa15801561435e573d6000803e3d6000fd5b505050506040513d6000823e601f3d908101601f1916820160405261438691908101906150e3565b50909250905060008080805b85518110156146475760008682815181106143af576143af615b74565b6020908102919091010151610130549091506001600160a01b038083169116141561448e5761013054604080516333cd77e760e11b81529051670de0b6b3a7640000926001600160a01b03169163679aefce916004808301926020929190829003018186803b15801561442157600080fd5b505afa158015614435573d6000803e3d6000fd5b505050506040513d601f19601f820116820180604052508101906144599190615286565b87848151811061446b5761446b615b74565b602002602001015161447d9190615a97565b6144879190615987565b9450614634565b610131546001600160a01b03828116911614156145635761013154604080516333cd77e760e11b8152905168327cb2734119d3b7a9601e1b926001600160a01b03169163679aefce916004808301926020929190829003018186803b1580156144f657600080fd5b505afa15801561450a573d6000803e3d6000fd5b505050506040513d601f19601f8201168201806040525081019061452e9190615286565b87848151811061454057614540615b74565b60200260200101516145529190615a97565b61455c9190615987565b9350614634565b610132546001600160a01b03828116911614156146345761013254604080516333cd77e760e11b8152905168327cb2734119d3b7a9601e1b926001600160a01b03169163679aefce916004808301926020929190829003018186803b1580156145cb57600080fd5b505afa1580156145df573d6000803e3d6000fd5b505050506040513d601f19601f820116820180604052508101906146039190615286565b87848151811061461557614615615b74565b60200260200101516146279190615a97565b6146319190615987565b92505b508061463f81615b10565b915050614392565b50600061465661014054613eb0565b9050600061466661014054613efc565b9050600081610140548561467a9190615a97565b6146849190615987565b8361014054876146949190615a97565b61469e9190615987565b6146a8908861596f565b6146b2919061596f565b6146bc868e615a97565b6146c69190615987565b905060008261014054866146da9190615a97565b6146e49190615987565b8461014054886146f49190615a97565b6146fe9190615987565b614708908961596f565b614712919061596f565b61471c868f615a97565b6147269190615987565b90506000866147358985615a97565b61473f9190615987565b905061013060009054906101000a90046001600160a01b03166001600160a01b031663679aefce6040518163ffffffff1660e01b815260040160206040518083038186803b15801561479057600080fd5b505afa1580156147a4573d6000803e3d6000fd5b505050506040513d601f19601f820116820180604052508101906147c89190615286565b6147da82670de0b6b3a7640000615a97565b6147e49190615987565b9c5061013160009054906101000a90046001600160a01b03166001600160a01b031663679aefce6040518163ffffffff1660e01b815260040160206040518083038186803b15801561483557600080fd5b505afa158015614849573d6000803e3d6000fd5b505050506040513d601f19601f8201168201806040525081019061486d9190615286565b6148838468327cb2734119d3b7a9601e1b615a97565b61488d9190615987565b9b5061013260009054906101000a90046001600160a01b03166001600160a01b031663679aefce6040518163ffffffff1660e01b815260040160206040518083038186803b1580156148de57600080fd5b505afa1580156148f2573d6000803e3d6000fd5b505050506040513d601f19601f820116820180604052508101906149169190615286565b61492c8368327cb2734119d3b7a9601e1b615a97565b6149369190615987565b9c9e9b9d505050505050505050505050565b60405163095ea7b360e01b81526001600160a01b038a8116600483015260248201859052600091908a169063095ea7b390604401602060405180830381600087803b15801561499657600080fd5b505af11580156149aa573d6000803e3d6000fd5b505050506040513d601f19601f820116820180604052508101906149ce9190615250565b5060408051600280825260608201909252600091816020015b614a1c6040518060a0016040528060008019168152602001600081526020016000815260200160008152602001606081525090565b8152602001906001900390816149e75790505090506040518060a001604052808881526020016000815260200160018152602001868152602001600067ffffffffffffffff811115614a7057614a70615b8a565b6040519080825280601f01601f191660200182016040528015614a9a576020820181803683370190505b5081525081600081518110614ab157614ab1615b74565b60200260200101819052506040518060a00160405280878152602001600181526020016002815260200160008152602001600067ffffffffffffffff811115614afc57614afc615b8a565b6040519080825280601f01601f191660200182016040528015614b26576020820181803683370190505b5081525081600181518110614b3d57614b3d615b74565b6020908102919091010152604080516003808252608082019092526000918160200160208202803683370190505090508a81600081518110614b8157614b81615b74565b60200260200101906001600160a01b031690816001600160a01b0316815250508981600181518110614bb557614bb5615b74565b60200260200101906001600160a01b031690816001600160a01b0316815250508881600281518110614be957614be9615b74565b6001600160a01b0392831660209182029290920181019190915260408051608080820183529388168082526000938201849052818301526060810183905281516003808252948101909252928160200160208202803683370190505090508781600081518110614c5b57614c5b615b74565b602002602001018181525050600081600181518110614c7c57614c7c615b74565b6020908102919091010152614c9087615b2b565b81600281518110614ca357614ca3615b74565b602090810291909101015260405163945bcec960e01b81526001600160a01b038f169063945bcec990614ce590600090889088908890889042906004016155ed565b600060405180830381600087803b158015614cff57600080fd5b505af1158015614d13573d6000803e3d6000fd5b505050506040513d6000823e601f3d908101601f19168201604052614d3b91908101906151b8565b600281518110614d4d57614d4d615b74565b6020026020010151614d5e90615b2b565b9e9d5050505050505050505050505050565b61012e546040516370a0823160e01b81523060048201526000916001600160a01b0316906370a082319060240160206040518083038186803b158015614db557600080fd5b505afa158015614dc9573d6000803e3d6000fd5b505050506040513d601f19601f82011682018060405250810190614ded9190615286565b61013e5461012e5461012d5461013f54939450614e22936001600160a01b039384169392831692918216911685600030613f48565b5061012f546040516370a0823160e01b81523060048201526000916001600160a01b0316906370a082319060240160206040518083038186803b158015614e6857600080fd5b505afa158015614e7c573d6000803e3d6000fd5b505050506040513d601f19601f82011682018060405250810190614ea09190615286565b61013e5461012f5461012d5461013f549394506108b4936001600160a01b039384169392831692918216911685600030613f48565b60608315614ee45750816125d9565b6125d98383815115614ef95781518083602001fd5b8060405162461bcd60e51b81526004016109259190615706565b600082601f830112614f2457600080fd5b81516020614f39614f348361594b565b61591a565b80838252828201915082860187848660051b8901011115614f5957600080fd5b60005b85811015614f7857815184529284019290840190600101614f5c565b5090979650505050505050565b805169ffffffffffffffffffff8116811461120a57600080fd5b600060208284031215614fb157600080fd5b81356125d981615ba0565b60008060408385031215614fcf57600080fd5b8235614fda81615ba0565b915060208381013567ffffffffffffffff80821115614ff857600080fd5b818601915086601f83011261500c57600080fd5b81358181111561501e5761501e615b8a565b615030601f8201601f1916850161591a565b9150808252878482850101111561504657600080fd5b80848401858401376000848284010152508093505050509250929050565b6000806040838503121561507757600080fd5b823561508281615ba0565b946020939093013593505050565b600080600080608085870312156150a657600080fd5b84356150b181615ba0565b93506020850135925060408501356150c881615ba0565b915060608501356150d881615bb5565b939692955090935050565b6000806000606084860312156150f857600080fd5b835167ffffffffffffffff8082111561511057600080fd5b818601915086601f83011261512457600080fd5b81516020615134614f348361594b565b8083825282820191508286018b848660051b890101111561515457600080fd5b600096505b8487101561518057805161516c81615ba0565b835260019690960195918301918301615159565b509189015191975090935050508082111561519a57600080fd5b506151a786828701614f13565b925050604084015190509250925092565b600060208083850312156151cb57600080fd5b825167ffffffffffffffff8111156151e257600080fd5b8301601f810185136151f357600080fd5b8051615201614f348261594b565b80828252848201915084840188868560051b870101111561522157600080fd5b600094505b83851015615244578051835260019490940193918501918501615226565b50979650505050505050565b60006020828403121561526257600080fd5b81516125d981615bb5565b60006020828403121561527f57600080fd5b5035919050565b60006020828403121561529857600080fd5b5051919050565b600080604083850312156152b257600080fd5b8235915060208301356152c481615ba0565b809150509250929050565b6000602082840312156152e157600080fd5b81356001600160e01b0319811681146125d957600080fd5b6000610260828403121561530c57600080fd5b50919050565b60008060006060848603121561532757600080fd5b505081359360208301359350604090920135919050565b600080600080600060a0868803121561535657600080fd5b61535f86614f85565b945060208601519350604086015192506060860151915061538260808701614f85565b90509295509295909350565b6000602082840312156153a057600080fd5b815160ff811681146125d957600080fd5b600081518084526020808501945080840160005b838110156153ea5781516001600160a01b0316875295820195908201906001016153c5565b509495945050505050565b600081518084526020808501945080840160005b838110156153ea57815187529582019590820190600101615409565b6000815180845261543d816020860160208601615acd565b601f01601f19169290920160200192915050565b6002811061546f57634e487b7160e01b600052602160045260246000fd5b9052565b60008251615485818460208701615acd565b9190910192915050565b7f416363657373436f6e74726f6c3a206163636f756e74200000000000000000008152600083516154c7816017850160208801615acd565b7001034b99036b4b9b9b4b733903937b6329607d1b60179184019182015283516154f8816028840160208801615acd565b01602801949350505050565b60c08152600061551760c08301896153b1565b828103602084015261552981896153b1565b6040840197909752505060608101939093526001600160a01b0391909116608083015260a09091015292915050565b8481526001600160a01b038481166020830152831660408201526080606082018190528251818301919091526000906155956101008401826153b1565b90506020840151607f19808584030160a08601526155b383836153f5565b925060408601519150808584030160c0860152506155d18282615425565b9150506060840151151560e08401528091505095945050505050565b60006101208083016155ff848b615451565b60208481019290925288519081905261014080850192600583901b8601909101918a820160005b828110156156895787850361013f190186528151805186528481015185870152604080820151908701526060808201519087015260809081015160a09187018290529061567581880183615425565b978601979650505090830190600101615626565b50505050838103604085015261569f81896153b1565b9150506156df606084018780516001600160a01b039081168352602080830151151590840152604080830151909116908301526060908101511515910152565b82810360e08401526156f181866153f5565b91505082610100830152979650505050505050565b6020815260006125d96020830184615425565b6020808252601f908201527f5265737472696374656420746f20504f5254464f4c494f5f4d414e4147455200604082015260600190565b6020808252602c908201527f46756e6374696f6e206d7573742062652063616c6c6564207468726f7567682060408201526b19195b1959d85d1958d85b1b60a21b606082015260800190565b6020808252602c908201527f46756e6374696f6e206d7573742062652063616c6c6564207468726f7567682060408201526b6163746976652070726f787960a01b606082015260800190565b6020808252602e908201527f496e697469616c697a61626c653a20636f6e747261637420697320616c72656160408201526d191e481a5b9a5d1a585b1a5e995960921b606082015260800190565b60e08152845160e082015260006020860151615856610100840182615451565b5060408601516001600160a01b03908116610120840152606087015116610140830152608086015161016083015260a086015160c061018084015261589f6101a0840182615425565b9150506158df602083018680516001600160a01b039081168352602080830151151590840152604080830151909116908301526060908101511515910152565b60a082019390935260c0015292915050565b83815260606020820152600061590a60608301856153f5565b9050826040830152949350505050565b604051601f8201601f1916810167ffffffffffffffff8111828210171561594357615943615b8a565b604052919050565b600067ffffffffffffffff82111561596557615965615b8a565b5060051b60200190565b6000821982111561598257615982615b48565b500190565b6000826159a457634e487b7160e01b600052601260045260246000fd5b500490565b600181815b808511156159e45781600019048211156159ca576159ca615b48565b808516156159d757918102915b93841c93908002906159ae565b509250929050565b60006125d960ff841683600082615a055750600161087a565b81615a125750600061087a565b8160018114615a285760028114615a3257615a4e565b600191505061087a565b60ff841115615a4357615a43615b48565b50506001821b61087a565b5060208310610133831016604e8410600b8410161715615a71575081810a61087a565b615a7b83836159a9565b8060001904821115615a8f57615a8f615b48565b029392505050565b6000816000190483118215151615615ab157615ab1615b48565b500290565b600082821015615ac857615ac8615b48565b500390565b60005b83811015615ae8578181015183820152602001615ad0565b838111156131d15750506000910152565b600081615b0857615b08615b48565b506000190190565b6000600019821415615b2457615b24615b48565b5060010190565b6000600160ff1b821415615b4157615b41615b48565b5060000390565b634e487b7160e01b600052601160045260246000fd5b634e487b7160e01b600052602160045260246000fd5b634e487b7160e01b600052603260045260246000fd5b634e487b7160e01b600052604160045260246000fd5b6001600160a01b0381168114610a1957600080fd5b8015158114610a1957600080fdfe90c2aa7471c04182221f68e80c07ab1e5946e4c63f8693e14ca40385d529f051360894a13ba1a3210667c828492db98dca3e2076cc3735a920a3ca505d382bbc416464726573733a206c6f772d6c6576656c2064656c65676174652063616c6c206661696c6564a26469706673582212205b786b0a3ce5d4de2c07b7efaa7a30cb39a63a02cac678e21da4ad7f56c870a464736f6c63430008060033",
  "implementation": "0x6d5b4CCE11B1e2d92E4431931B0600700649a0bb",
  "devdoc": {
    "kind": "dev",
    "methods": {
      "constructor": {
        "custom:oz-upgrades-unsafe-allow": "constructor"
      },
      "getRoleAdmin(bytes32)": {
        "details": "Returns the admin role that controls `role`. See {grantRole} and {revokeRole}. To change a role's admin, use {_setRoleAdmin}."
      },
      "grantRole(bytes32,address)": {
        "details": "Grants `role` to `account`. If `account` had not been already granted `role`, emits a {RoleGranted} event. Requirements: - the caller must have ``role``'s admin role. May emit a {RoleGranted} event."
      },
      "hasRole(bytes32,address)": {
        "details": "Returns `true` if `account` has been granted `role`."
      },
      "proxiableUUID()": {
        "details": "Implementation of the ERC1822 {proxiableUUID} function. This returns the storage slot used by the implementation. It is used to validate the implementation's compatibility when performing an upgrade. IMPORTANT: A proxy pointing at a proxiable contract should not be considered proxiable itself, because this risks bricking a proxy that upgrades to it, by delegating to itself until out of gas. Thus it is critical that this function revert if invoked through a proxy. This is guaranteed by the `notDelegated` modifier."
      },
      "renounceRole(bytes32,address)": {
        "details": "Revokes `role` from the calling account. Roles are often managed via {grantRole} and {revokeRole}: this function's purpose is to provide a mechanism for accounts to lose their privileges if they are compromised (such as when a trusted device is misplaced). If the calling account had been revoked `role`, emits a {RoleRevoked} event. Requirements: - the caller must be `account`. May emit a {RoleRevoked} event."
      },
      "revokeRole(bytes32,address)": {
        "details": "Revokes `role` from `account`. If `account` had been granted `role`, emits a {RoleRevoked} event. Requirements: - the caller must have ``role``'s admin role. May emit a {RoleRevoked} event."
      },
      "supportsInterface(bytes4)": {
        "details": "See {IERC165-supportsInterface}."
      },
      "upgradeTo(address)": {
        "details": "Upgrade the implementation of the proxy to `newImplementation`. Calls {_authorizeUpgrade}. Emits an {Upgraded} event."
      },
      "upgradeToAndCall(address,bytes)": {
        "details": "Upgrade the implementation of the proxy to `newImplementation`, and subsequently execute the function call encoded in `data`. Calls {_authorizeUpgrade}. Emits an {Upgraded} event."
      }
    },
    "version": 1
  },
  "userdoc": {
    "kind": "user",
    "methods": {},
    "version": 1
  },
  "storageLayout": {
    "storage": [
      {
        "astId": 804,
        "contract": "contracts/dai/StrategyBalancerDai.sol:StrategyBalancerDai",
        "label": "_initialized",
        "offset": 0,
        "slot": "0",
        "type": "t_uint8"
      },
      {
        "astId": 807,
        "contract": "contracts/dai/StrategyBalancerDai.sol:StrategyBalancerDai",
        "label": "_initializing",
        "offset": 1,
        "slot": "0",
        "type": "t_bool"
      },
      {
        "astId": 1427,
        "contract": "contracts/dai/StrategyBalancerDai.sol:StrategyBalancerDai",
        "label": "__gap",
        "offset": 0,
        "slot": "1",
        "type": "t_array(t_uint256)50_storage"
      },
      {
        "astId": 1706,
        "contract": "contracts/dai/StrategyBalancerDai.sol:StrategyBalancerDai",
        "label": "__gap",
        "offset": 0,
        "slot": "51",
        "type": "t_array(t_uint256)50_storage"
      },
      {
        "astId": 39,
        "contract": "contracts/dai/StrategyBalancerDai.sol:StrategyBalancerDai",
        "label": "_roles",
        "offset": 0,
        "slot": "101",
        "type": "t_mapping(t_bytes32,t_struct(RoleData)34_storage)"
      },
      {
        "astId": 334,
        "contract": "contracts/dai/StrategyBalancerDai.sol:StrategyBalancerDai",
        "label": "__gap",
        "offset": 0,
        "slot": "102",
        "type": "t_array(t_uint256)49_storage"
      },
      {
        "astId": 786,
        "contract": "contracts/dai/StrategyBalancerDai.sol:StrategyBalancerDai",
        "label": "__gap",
        "offset": 0,
        "slot": "151",
        "type": "t_array(t_uint256)50_storage"
      },
      {
        "astId": 1101,
        "contract": "contracts/dai/StrategyBalancerDai.sol:StrategyBalancerDai",
        "label": "__gap",
        "offset": 0,
        "slot": "201",
        "type": "t_array(t_uint256)50_storage"
      },
      {
        "astId": 10703,
        "contract": "contracts/dai/StrategyBalancerDai.sol:StrategyBalancerDai",
        "label": "portfolioManager",
        "offset": 0,
        "slot": "251",
        "type": "t_address"
      },
      {
        "astId": 10705,
        "contract": "contracts/dai/StrategyBalancerDai.sol:StrategyBalancerDai",
        "label": "swapSlippageBP",
        "offset": 0,
        "slot": "252",
        "type": "t_uint256"
      },
      {
        "astId": 10707,
        "contract": "contracts/dai/StrategyBalancerDai.sol:StrategyBalancerDai",
        "label": "navSlippageBP",
        "offset": 0,
        "slot": "253",
        "type": "t_uint256"
      },
      {
        "astId": 10709,
        "contract": "contracts/dai/StrategyBalancerDai.sol:StrategyBalancerDai",
        "label": "stakeSlippageBP",
        "offset": 0,
        "slot": "254",
        "type": "t_uint256"
      },
      {
        "astId": 11094,
        "contract": "contracts/dai/StrategyBalancerDai.sol:StrategyBalancerDai",
        "label": "__gap",
        "offset": 0,
        "slot": "255",
        "type": "t_array(t_uint256)46_storage"
      },
      {
        "astId": 16507,
        "contract": "contracts/dai/StrategyBalancerDai.sol:StrategyBalancerDai",
        "label": "dai",
        "offset": 0,
        "slot": "301",
        "type": "t_contract(IERC20)2662"
      },
      {
        "astId": 16510,
        "contract": "contracts/dai/StrategyBalancerDai.sol:StrategyBalancerDai",
        "label": "usdc",
        "offset": 0,
        "slot": "302",
        "type": "t_contract(IERC20)2662"
      },
      {
        "astId": 16513,
        "contract": "contracts/dai/StrategyBalancerDai.sol:StrategyBalancerDai",
        "label": "usdt",
        "offset": 0,
        "slot": "303",
        "type": "t_contract(IERC20)2662"
      },
      {
        "astId": 16516,
        "contract": "contracts/dai/StrategyBalancerDai.sol:StrategyBalancerDai",
        "label": "bbamDai",
        "offset": 0,
        "slot": "304",
        "type": "t_contract(IBptToken)6978"
      },
      {
        "astId": 16519,
        "contract": "contracts/dai/StrategyBalancerDai.sol:StrategyBalancerDai",
        "label": "bbamUsdc",
        "offset": 0,
        "slot": "305",
        "type": "t_contract(IBptToken)6978"
      },
      {
        "astId": 16522,
        "contract": "contracts/dai/StrategyBalancerDai.sol:StrategyBalancerDai",
        "label": "bbamUsdt",
        "offset": 0,
        "slot": "306",
        "type": "t_contract(IBptToken)6978"
      },
      {
        "astId": 16525,
        "contract": "contracts/dai/StrategyBalancerDai.sol:StrategyBalancerDai",
        "label": "bpt",
        "offset": 0,
        "slot": "307",
        "type": "t_contract(IBptToken)6978"
      },
      {
        "astId": 16528,
        "contract": "contracts/dai/StrategyBalancerDai.sol:StrategyBalancerDai",
        "label": "vault",
        "offset": 0,
        "slot": "308",
        "type": "t_contract(IVault)4893"
      },
      {
        "astId": 16531,
        "contract": "contracts/dai/StrategyBalancerDai.sol:StrategyBalancerDai",
        "label": "gauge",
        "offset": 0,
        "slot": "309",
        "type": "t_contract(IGauge)6999"
      },
      {
        "astId": 16534,
        "contract": "contracts/dai/StrategyBalancerDai.sol:StrategyBalancerDai",
        "label": "balancerMinter",
        "offset": 0,
        "slot": "310",
        "type": "t_contract(IBalancerMinter)5900"
      },
      {
        "astId": 16536,
        "contract": "contracts/dai/StrategyBalancerDai.sol:StrategyBalancerDai",
        "label": "bbamDaiPoolId",
        "offset": 0,
        "slot": "311",
        "type": "t_bytes32"
      },
      {
        "astId": 16538,
        "contract": "contracts/dai/StrategyBalancerDai.sol:StrategyBalancerDai",
        "label": "bbamUsdcPoolId",
        "offset": 0,
        "slot": "312",
        "type": "t_bytes32"
      },
      {
        "astId": 16540,
        "contract": "contracts/dai/StrategyBalancerDai.sol:StrategyBalancerDai",
        "label": "bbamUsdtPoolId",
        "offset": 0,
        "slot": "313",
        "type": "t_bytes32"
      },
      {
        "astId": 16542,
        "contract": "contracts/dai/StrategyBalancerDai.sol:StrategyBalancerDai",
        "label": "poolId",
        "offset": 0,
        "slot": "314",
        "type": "t_bytes32"
      },
      {
        "astId": 16545,
        "contract": "contracts/dai/StrategyBalancerDai.sol:StrategyBalancerDai",
        "label": "oracleDai",
        "offset": 0,
        "slot": "315",
        "type": "t_contract(IPriceFeed)7074"
      },
      {
        "astId": 16548,
        "contract": "contracts/dai/StrategyBalancerDai.sol:StrategyBalancerDai",
        "label": "oracleUsdc",
        "offset": 0,
        "slot": "316",
        "type": "t_contract(IPriceFeed)7074"
      },
      {
        "astId": 16551,
        "contract": "contracts/dai/StrategyBalancerDai.sol:StrategyBalancerDai",
        "label": "oracleUsdt",
        "offset": 0,
        "slot": "317",
        "type": "t_contract(IPriceFeed)7074"
      },
      {
        "astId": 16554,
        "contract": "contracts/dai/StrategyBalancerDai.sol:StrategyBalancerDai",
        "label": "wombatRouter",
        "offset": 0,
        "slot": "318",
        "type": "t_contract(IWombatRouter)10096"
      },
      {
        "astId": 16556,
        "contract": "contracts/dai/StrategyBalancerDai.sol:StrategyBalancerDai",
        "label": "wombatBasePool",
        "offset": 0,
        "slot": "319",
        "type": "t_address"
      },
      {
        "astId": 16558,
        "contract": "contracts/dai/StrategyBalancerDai.sol:StrategyBalancerDai",
        "label": "daiDm",
        "offset": 0,
        "slot": "320",
        "type": "t_uint256"
      },
      {
        "astId": 16560,
        "contract": "contracts/dai/StrategyBalancerDai.sol:StrategyBalancerDai",
        "label": "usdcDm",
        "offset": 0,
        "slot": "321",
        "type": "t_uint256"
      },
      {
        "astId": 16562,
        "contract": "contracts/dai/StrategyBalancerDai.sol:StrategyBalancerDai",
        "label": "usdtDm",
        "offset": 0,
        "slot": "322",
        "type": "t_uint256"
      }
    ],
    "types": {
      "t_address": {
        "encoding": "inplace",
        "label": "address",
        "numberOfBytes": "20"
      },
      "t_array(t_uint256)46_storage": {
        "base": "t_uint256",
        "encoding": "inplace",
        "label": "uint256[46]",
        "numberOfBytes": "1472"
      },
      "t_array(t_uint256)49_storage": {
        "base": "t_uint256",
        "encoding": "inplace",
        "label": "uint256[49]",
        "numberOfBytes": "1568"
      },
      "t_array(t_uint256)50_storage": {
        "base": "t_uint256",
        "encoding": "inplace",
        "label": "uint256[50]",
        "numberOfBytes": "1600"
      },
      "t_bool": {
        "encoding": "inplace",
        "label": "bool",
        "numberOfBytes": "1"
      },
      "t_bytes32": {
        "encoding": "inplace",
        "label": "bytes32",
        "numberOfBytes": "32"
      },
      "t_contract(IBalancerMinter)5900": {
        "encoding": "inplace",
        "label": "contract IBalancerMinter",
        "numberOfBytes": "20"
      },
      "t_contract(IBptToken)6978": {
        "encoding": "inplace",
        "label": "contract IBptToken",
        "numberOfBytes": "20"
      },
      "t_contract(IERC20)2662": {
        "encoding": "inplace",
        "label": "contract IERC20",
        "numberOfBytes": "20"
      },
      "t_contract(IGauge)6999": {
        "encoding": "inplace",
        "label": "contract IGauge",
        "numberOfBytes": "20"
      },
      "t_contract(IPriceFeed)7074": {
        "encoding": "inplace",
        "label": "contract IPriceFeed",
        "numberOfBytes": "20"
      },
      "t_contract(IVault)4893": {
        "encoding": "inplace",
        "label": "contract IVault",
        "numberOfBytes": "20"
      },
      "t_contract(IWombatRouter)10096": {
        "encoding": "inplace",
        "label": "contract IWombatRouter",
        "numberOfBytes": "20"
      },
      "t_mapping(t_address,t_bool)": {
        "encoding": "mapping",
        "key": "t_address",
        "label": "mapping(address => bool)",
        "numberOfBytes": "32",
        "value": "t_bool"
      },
      "t_mapping(t_bytes32,t_struct(RoleData)34_storage)": {
        "encoding": "mapping",
        "key": "t_bytes32",
        "label": "mapping(bytes32 => struct AccessControlUpgradeable.RoleData)",
        "numberOfBytes": "32",
        "value": "t_struct(RoleData)34_storage"
      },
      "t_struct(RoleData)34_storage": {
        "encoding": "inplace",
        "label": "struct AccessControlUpgradeable.RoleData",
        "members": [
          {
            "astId": 31,
            "contract": "contracts/dai/StrategyBalancerDai.sol:StrategyBalancerDai",
            "label": "members",
            "offset": 0,
            "slot": "0",
            "type": "t_mapping(t_address,t_bool)"
          },
          {
            "astId": 33,
            "contract": "contracts/dai/StrategyBalancerDai.sol:StrategyBalancerDai",
            "label": "adminRole",
            "offset": 0,
            "slot": "1",
            "type": "t_bytes32"
          }
        ],
        "numberOfBytes": "64"
      },
      "t_uint256": {
        "encoding": "inplace",
        "label": "uint256",
        "numberOfBytes": "32"
      },
      "t_uint8": {
        "encoding": "inplace",
        "label": "uint8",
        "numberOfBytes": "1"
      }
    }
  }
}