{
  "address": "0xa2FC2759cba72D91Cc7a834e16241FF41d022E94",
  "abi": [
    {
      "inputs": [],
      "stateMutability": "nonpayable",
      "type": "constructor"
    },
    {
      "anonymous": false,
      "inputs": [
        {
          "indexed": false,
          "internalType": "address",
          "name": "previousAdmin",
          "type": "address"
        },
        {
          "indexed": false,
          "internalType": "address",
          "name": "newAdmin",
          "type": "address"
        }
      ],
      "name": "AdminChanged",
      "type": "event"
    },
    {
      "anonymous": false,
      "inputs": [
        {
          "indexed": true,
          "internalType": "address",
          "name": "beacon",
          "type": "address"
        }
      ],
      "name": "BeaconUpgraded",
      "type": "event"
    },
    {
      "anonymous": false,
      "inputs": [
        {
          "indexed": false,
          "internalType": "uint8",
          "name": "version",
          "type": "uint8"
        }
      ],
      "name": "Initialized",
      "type": "event"
    },
    {
      "anonymous": false,
      "inputs": [
        {
          "indexed": false,
          "internalType": "address",
          "name": "value",
          "type": "address"
        }
      ],
      "name": "PortfolioManagerUpdated",
      "type": "event"
    },
    {
      "anonymous": false,
      "inputs": [
        {
          "indexed": false,
          "internalType": "uint256",
          "name": "amount",
          "type": "uint256"
        }
      ],
      "name": "Reward",
      "type": "event"
    },
    {
      "anonymous": false,
      "inputs": [
        {
          "indexed": true,
          "internalType": "bytes32",
          "name": "role",
          "type": "bytes32"
        },
        {
          "indexed": true,
          "internalType": "bytes32",
          "name": "previousAdminRole",
          "type": "bytes32"
        },
        {
          "indexed": true,
          "internalType": "bytes32",
          "name": "newAdminRole",
          "type": "bytes32"
        }
      ],
      "name": "RoleAdminChanged",
      "type": "event"
    },
    {
      "anonymous": false,
      "inputs": [
        {
          "indexed": true,
          "internalType": "bytes32",
          "name": "role",
          "type": "bytes32"
        },
        {
          "indexed": true,
          "internalType": "address",
          "name": "account",
          "type": "address"
        },
        {
          "indexed": true,
          "internalType": "address",
          "name": "sender",
          "type": "address"
        }
      ],
      "name": "RoleGranted",
      "type": "event"
    },
    {
      "anonymous": false,
      "inputs": [
        {
          "indexed": true,
          "internalType": "bytes32",
          "name": "role",
          "type": "bytes32"
        },
        {
          "indexed": true,
          "internalType": "address",
          "name": "account",
          "type": "address"
        },
        {
          "indexed": true,
          "internalType": "address",
          "name": "sender",
          "type": "address"
        }
      ],
      "name": "RoleRevoked",
      "type": "event"
    },
    {
      "anonymous": false,
      "inputs": [
        {
          "indexed": false,
          "internalType": "uint256",
          "name": "swapSlippageBP",
          "type": "uint256"
        },
        {
          "indexed": false,
          "internalType": "uint256",
          "name": "navSlippageBP",
          "type": "uint256"
        },
        {
          "indexed": false,
          "internalType": "uint256",
          "name": "stakeSlippageBP",
          "type": "uint256"
        }
      ],
      "name": "SlippagesUpdated",
      "type": "event"
    },
    {
      "anonymous": false,
      "inputs": [
        {
          "indexed": false,
          "internalType": "uint256",
          "name": "amount",
          "type": "uint256"
        }
      ],
      "name": "Stake",
      "type": "event"
    },
    {
      "anonymous": false,
      "inputs": [],
      "name": "StrategyUpdatedParams",
      "type": "event"
    },
    {
      "anonymous": false,
      "inputs": [
        {
          "indexed": false,
          "internalType": "uint256",
          "name": "amount",
          "type": "uint256"
        },
        {
          "indexed": false,
          "internalType": "uint256",
          "name": "amountReceived",
          "type": "uint256"
        }
      ],
      "name": "Unstake",
      "type": "event"
    },
    {
      "anonymous": false,
      "inputs": [
        {
          "indexed": true,
          "internalType": "address",
          "name": "implementation",
          "type": "address"
        }
      ],
      "name": "Upgraded",
      "type": "event"
    },
    {
      "inputs": [],
      "name": "DEFAULT_ADMIN_ROLE",
      "outputs": [
        {
          "internalType": "bytes32",
          "name": "",
          "type": "bytes32"
        }
      ],
      "stateMutability": "view",
      "type": "function"
    },
    {
      "inputs": [],
      "name": "PORTFOLIO_AGENT_ROLE",
      "outputs": [
        {
          "internalType": "bytes32",
          "name": "",
          "type": "bytes32"
        }
      ],
      "stateMutability": "view",
      "type": "function"
    },
    {
      "inputs": [],
      "name": "PORTFOLIO_MANAGER",
      "outputs": [
        {
          "internalType": "bytes32",
          "name": "",
          "type": "bytes32"
        }
      ],
      "stateMutability": "view",
      "type": "function"
    },
    {
      "inputs": [],
      "name": "baseRewardPool",
      "outputs": [
        {
          "internalType": "contract IBaseRewardPool",
          "name": "",
          "type": "address"
        }
      ],
      "stateMutability": "view",
      "type": "function"
    },
    {
      "inputs": [
        {
          "internalType": "address",
          "name": "_to",
          "type": "address"
        }
      ],
      "name": "claimRewards",
      "outputs": [
        {
          "internalType": "uint256",
          "name": "",
          "type": "uint256"
        }
      ],
      "stateMutability": "nonpayable",
      "type": "function"
    },
    {
      "inputs": [],
      "name": "dai",
      "outputs": [
        {
          "internalType": "contract IERC20",
          "name": "",
          "type": "address"
        }
      ],
      "stateMutability": "view",
      "type": "function"
    },
    {
      "inputs": [],
      "name": "eqbZap",
      "outputs": [
        {
          "internalType": "contract IEqbZap",
          "name": "",
          "type": "address"
        }
      ],
      "stateMutability": "view",
      "type": "function"
    },
    {
      "inputs": [],
      "name": "gDai",
      "outputs": [
        {
          "internalType": "contract IGToken",
          "name": "",
          "type": "address"
        }
      ],
      "stateMutability": "view",
      "type": "function"
    },
    {
      "inputs": [],
      "name": "getAmountsByLp",
      "outputs": [
        {
          "internalType": "uint256",
          "name": "syAmount",
          "type": "uint256"
        },
        {
          "internalType": "uint256",
          "name": "ptAmount",
          "type": "uint256"
        }
      ],
      "stateMutability": "view",
      "type": "function"
    },
    {
      "inputs": [
        {
          "internalType": "bytes32",
          "name": "role",
          "type": "bytes32"
        }
      ],
      "name": "getRoleAdmin",
      "outputs": [
        {
          "internalType": "bytes32",
          "name": "",
          "type": "bytes32"
        }
      ],
      "stateMutability": "view",
      "type": "function"
    },
    {
      "inputs": [
        {
          "internalType": "bytes32",
          "name": "role",
          "type": "bytes32"
        },
        {
          "internalType": "address",
          "name": "account",
          "type": "address"
        }
      ],
      "name": "grantRole",
      "outputs": [],
      "stateMutability": "nonpayable",
      "type": "function"
    },
    {
      "inputs": [
        {
          "internalType": "bytes32",
          "name": "role",
          "type": "bytes32"
        },
        {
          "internalType": "address",
          "name": "account",
          "type": "address"
        }
      ],
      "name": "hasRole",
      "outputs": [
        {
          "internalType": "bool",
          "name": "",
          "type": "bool"
        }
      ],
      "stateMutability": "view",
      "type": "function"
    },
    {
      "inputs": [],
      "name": "initialize",
      "outputs": [],
      "stateMutability": "nonpayable",
      "type": "function"
    },
    {
      "inputs": [],
      "name": "isActivePhase",
      "outputs": [
        {
          "internalType": "bool",
          "name": "",
          "type": "bool"
        }
      ],
      "stateMutability": "view",
      "type": "function"
    },
    {
      "inputs": [],
      "name": "liquidationValue",
      "outputs": [
        {
          "internalType": "uint256",
          "name": "",
          "type": "uint256"
        }
      ],
      "stateMutability": "view",
      "type": "function"
    },
    {
      "inputs": [],
      "name": "lp",
      "outputs": [
        {
          "internalType": "contract IPendleMarket",
          "name": "",
          "type": "address"
        }
      ],
      "stateMutability": "view",
      "type": "function"
    },
    {
      "inputs": [],
      "name": "makeWithdrawRequest",
      "outputs": [],
      "stateMutability": "nonpayable",
      "type": "function"
    },
    {
      "inputs": [],
      "name": "maxWithdrawNow",
      "outputs": [
        {
          "internalType": "uint256",
          "name": "",
          "type": "uint256"
        }
      ],
      "stateMutability": "view",
      "type": "function"
    },
    {
      "inputs": [],
      "name": "navSlippageBP",
      "outputs": [
        {
          "internalType": "uint256",
          "name": "",
          "type": "uint256"
        }
      ],
      "stateMutability": "view",
      "type": "function"
    },
    {
      "inputs": [],
      "name": "netAssetValue",
      "outputs": [
        {
          "internalType": "uint256",
          "name": "",
          "type": "uint256"
        }
      ],
      "stateMutability": "view",
      "type": "function"
    },
    {
      "inputs": [],
      "name": "pendleBooster",
      "outputs": [
        {
          "internalType": "contract IPendleBooster",
          "name": "",
          "type": "address"
        }
      ],
      "stateMutability": "view",
      "type": "function"
    },
    {
      "inputs": [],
      "name": "pendleRouter",
      "outputs": [
        {
          "internalType": "contract IPendleRouter",
          "name": "",
          "type": "address"
        }
      ],
      "stateMutability": "view",
      "type": "function"
    },
    {
      "inputs": [],
      "name": "portfolioManager",
      "outputs": [
        {
          "internalType": "address",
          "name": "",
          "type": "address"
        }
      ],
      "stateMutability": "view",
      "type": "function"
    },
    {
      "inputs": [],
      "name": "proxiableUUID",
      "outputs": [
        {
          "internalType": "bytes32",
          "name": "",
          "type": "bytes32"
        }
      ],
      "stateMutability": "view",
      "type": "function"
    },
    {
      "inputs": [],
      "name": "pt",
      "outputs": [
        {
          "internalType": "contract IERC20",
          "name": "",
          "type": "address"
        }
      ],
      "stateMutability": "view",
      "type": "function"
    },
    {
      "inputs": [],
      "name": "ptOracle",
      "outputs": [
        {
          "internalType": "contract IPendlePtOracle",
          "name": "",
          "type": "address"
        }
      ],
      "stateMutability": "view",
      "type": "function"
    },
    {
      "inputs": [
        {
          "internalType": "bytes32",
          "name": "role",
          "type": "bytes32"
        },
        {
          "internalType": "address",
          "name": "account",
          "type": "address"
        }
      ],
      "name": "renounceRole",
      "outputs": [],
      "stateMutability": "nonpayable",
      "type": "function"
    },
    {
      "inputs": [
        {
          "internalType": "bytes32",
          "name": "role",
          "type": "bytes32"
        },
        {
          "internalType": "address",
          "name": "account",
          "type": "address"
        }
      ],
      "name": "revokeRole",
      "outputs": [],
      "stateMutability": "nonpayable",
      "type": "function"
    },
    {
      "inputs": [
        {
          "components": [
            {
              "internalType": "address",
              "name": "daiAddress",
              "type": "address"
            },
            {
              "internalType": "address",
              "name": "ptAddress",
              "type": "address"
            },
            {
              "internalType": "address",
              "name": "ytAddress",
              "type": "address"
            },
            {
              "internalType": "address",
              "name": "syAddress",
              "type": "address"
            },
            {
              "internalType": "address",
              "name": "lpAddress",
              "type": "address"
            },
            {
              "internalType": "address",
              "name": "pendleRouterAddress",
              "type": "address"
            },
            {
              "internalType": "address",
              "name": "gDaiAddress",
              "type": "address"
            },
            {
              "internalType": "address",
              "name": "pendlePtOracleAddress",
              "type": "address"
            },
            {
              "internalType": "uint256",
              "name": "thresholdBalancePercent",
              "type": "uint256"
            }
          ],
          "internalType": "struct StrategyEquilibriaDaiGDai.StrategyParams",
          "name": "params",
          "type": "tuple"
        }
      ],
      "name": "setParams",
      "outputs": [],
      "stateMutability": "nonpayable",
      "type": "function"
    },
    {
      "inputs": [
        {
          "internalType": "address",
          "name": "_value",
          "type": "address"
        }
      ],
      "name": "setPortfolioManager",
      "outputs": [],
      "stateMutability": "nonpayable",
      "type": "function"
    },
    {
      "inputs": [
        {
          "internalType": "uint256",
          "name": "_swapSlippageBP",
          "type": "uint256"
        },
        {
          "internalType": "uint256",
          "name": "_navSlippageBP",
          "type": "uint256"
        },
        {
          "internalType": "uint256",
          "name": "_stakeSlippageBP",
          "type": "uint256"
        }
      ],
      "name": "setSlippages",
      "outputs": [],
      "stateMutability": "nonpayable",
      "type": "function"
    },
    {
      "inputs": [
        {
          "internalType": "address",
          "name": "_asset",
          "type": "address"
        },
        {
          "internalType": "uint256",
          "name": "_amount",
          "type": "uint256"
        }
      ],
      "name": "stake",
      "outputs": [],
      "stateMutability": "nonpayable",
      "type": "function"
    },
    {
      "inputs": [],
      "name": "stakeSlippageBP",
      "outputs": [
        {
          "internalType": "uint256",
          "name": "",
          "type": "uint256"
        }
      ],
      "stateMutability": "view",
      "type": "function"
    },
    {
      "inputs": [
        {
          "internalType": "bytes4",
          "name": "interfaceId",
          "type": "bytes4"
        }
      ],
      "name": "supportsInterface",
      "outputs": [
        {
          "internalType": "bool",
          "name": "",
          "type": "bool"
        }
      ],
      "stateMutability": "view",
      "type": "function"
    },
    {
      "inputs": [],
      "name": "swapSlippageBP",
      "outputs": [
        {
          "internalType": "uint256",
          "name": "",
          "type": "uint256"
        }
      ],
      "stateMutability": "view",
      "type": "function"
    },
    {
      "inputs": [],
      "name": "sy",
      "outputs": [
        {
          "internalType": "contract IPendleStargateLPSY",
          "name": "",
          "type": "address"
        }
      ],
      "stateMutability": "view",
      "type": "function"
    },
    {
      "inputs": [],
      "name": "thresholdBalancePercent",
      "outputs": [
        {
          "internalType": "uint256",
          "name": "",
          "type": "uint256"
        }
      ],
      "stateMutability": "view",
      "type": "function"
    },
    {
      "inputs": [],
      "name": "timeToPhaseEnd",
      "outputs": [
        {
          "internalType": "uint256",
          "name": "",
          "type": "uint256"
        }
      ],
      "stateMutability": "view",
      "type": "function"
    },
    {
      "inputs": [],
      "name": "uniswapV3Router",
      "outputs": [
        {
          "internalType": "contract ISwapRouter",
          "name": "",
          "type": "address"
        }
      ],
      "stateMutability": "view",
      "type": "function"
    },
    {
      "inputs": [
        {
          "internalType": "address",
          "name": "_asset",
          "type": "address"
        },
        {
          "internalType": "uint256",
          "name": "_amount",
          "type": "uint256"
        },
        {
          "internalType": "address",
          "name": "_beneficiary",
          "type": "address"
        },
        {
          "internalType": "bool",
          "name": "_targetIsZero",
          "type": "bool"
        }
      ],
      "name": "unstake",
      "outputs": [
        {
          "internalType": "uint256",
          "name": "",
          "type": "uint256"
        }
      ],
      "stateMutability": "nonpayable",
      "type": "function"
    },
    {
      "inputs": [
        {
          "internalType": "uint256",
          "name": "_amount",
          "type": "uint256"
        },
        {
          "internalType": "bool",
          "name": "isUnstakeFull",
          "type": "bool"
        }
      ],
      "name": "unstakeToGDaiAndMakeRequest",
      "outputs": [],
      "stateMutability": "nonpayable",
      "type": "function"
    },
    {
      "inputs": [
        {
          "internalType": "address",
          "name": "newImplementation",
          "type": "address"
        }
      ],
      "name": "upgradeTo",
      "outputs": [],
      "stateMutability": "nonpayable",
      "type": "function"
    },
    {
      "inputs": [
        {
          "internalType": "address",
          "name": "newImplementation",
          "type": "address"
        },
        {
          "internalType": "bytes",
          "name": "data",
          "type": "bytes"
        }
      ],
      "name": "upgradeToAndCall",
      "outputs": [],
      "stateMutability": "payable",
      "type": "function"
    },
    {
      "inputs": [],
      "name": "yt",
      "outputs": [
        {
          "internalType": "contract IERC20",
          "name": "",
          "type": "address"
        }
      ],
      "stateMutability": "view",
      "type": "function"
    }
  ],
  "numDeployments": 5,
  "solcInputHash": "ce4d30f30c34c594537860af11552d8a",
  "bytecode": "0x60a06040523060601b6080523480156200001857600080fd5b50600054610100900460ff16158080156200003a5750600054600160ff909116105b806200006a575062000057306200014460201b6200268e1760201c565b1580156200006a575060005460ff166001145b620000d25760405162461bcd60e51b815260206004820152602e60248201527f496e697469616c697a61626c653a20636f6e747261637420697320616c72656160448201526d191e481a5b9a5d1a585b1a5e995960921b606482015260840160405180910390fd5b6000805460ff191660011790558015620000f6576000805461ff0019166101001790555b80156200013d576000805461ff0019169055604051600181527f7f26b83ff96e1f2b6a682f133852f6798a09c465da95921460cefb38474024989060200160405180910390a15b5062000153565b6001600160a01b03163b151590565b60805160601c615b256200018e6000396000818161161801528181611658015281816116f801528181611738015261196e0152615b256000f3fe6080604052600436106102675760003560e01c8063620b75df11610144578063a440b21a116100b6578063d547741f1161007a578063d547741f146106f9578063dc26302214610719578063ef5cfb8c1461073a578063f4b9fa751461075a578063f6f6b8811461077b578063fdc631fe1461079b57600080fd5b8063a440b21a14610662578063adc9772e14610682578063ae30c110146106a2578063bf52e080146106c2578063c5440570146106d857600080fd5b80637d5f5802116101085780637d5f5802146105cc57806380fa573d146105ee5780638129fc1c1461060357806391d1485414610618578063a217fddf14610638578063a3673b381461064d57600080fd5b8063620b75df1461054157806368370317146105615780636ee8f38014610578578063727d335f1461058d578063733b4088146105a257600080fd5b80632c76d7a6116101dd578063475a91d1116101a1578063475a91d1146104ab5780634f1ef286146104cc57806351d30b38146104df57806352d1902d146104f45780635ca558f8146105095780635dbd733a1461051f57600080fd5b80632c76d7a6146104095780632f2ff15d1461042a578063313c06a01461044a57806336568abe1461046b5780633659cfe61461048b57600080fd5b8063119cd8791161022f578063119cd8791461033d578063181cc05b146103615780631a9eb0d914610382578063206aeab3146103a3578063248a9ca3146103c45780632576e65a146103f457600080fd5b806301ffc9a71461026c578063027f3212146102a157806303477f72146102da57806305d7b9a2146102fc5780630d277e9f1461031d575b600080fd5b34801561027857600080fd5b5061028c6102873660046153e5565b6107bc565b60405190151581526020015b60405180910390f35b3480156102ad57600080fd5b50610139546102c2906001600160a01b031681565b6040516001600160a01b039091168152602001610298565b3480156102e657600080fd5b506102fa6102f53660046154da565b6107f3565b005b34801561030857600080fd5b50610133546102c2906001600160a01b031681565b34801561032957600080fd5b506102fa6103383660046154c1565b610bf0565b34801561034957600080fd5b5061035360fd5481565b604051908152602001610298565b34801561036d57600080fd5b50610131546102c2906001600160a01b031681565b34801561038e57600080fd5b50610134546102c2906001600160a01b031681565b3480156103af57600080fd5b50610130546102c2906001600160a01b031681565b3480156103d057600080fd5b506103536103df366004615387565b60009081526065602052604090206001015490565b34801561040057600080fd5b50610353611559565b34801561041557600080fd5b50610135546102c2906001600160a01b031681565b34801561043657600080fd5b506102fa6104453660046153b9565b61156a565b34801561045657600080fd5b50610132546102c2906001600160a01b031681565b34801561047757600080fd5b506102fa6104863660046153b9565b61158f565b34801561049757600080fd5b506102fa6104a6366004615230565b61160d565b3480156104b757600080fd5b50610138546102c2906001600160a01b031681565b6102fa6104da36600461524b565b6116ed565b3480156104eb57600080fd5b506102fa6117ba565b34801561050057600080fd5b50610353611961565b34801561051557600080fd5b5061035360fe5481565b34801561052b57600080fd5b50610353600080516020615a8983398151915281565b34801561054d57600080fd5b5060fb546102c2906001600160a01b031681565b34801561056d57600080fd5b506103536101365481565b34801561058457600080fd5b5061028c611a14565b34801561059957600080fd5b50610353611aa6565b3480156105ae57600080fd5b506105b7611b23565b60408051928352602083019190915201610298565b3480156105d857600080fd5b50610353600080516020615a6983398151915281565b3480156105fa57600080fd5b50610353611d88565b34801561060f57600080fd5b506102fa611e45565b34801561062457600080fd5b5061028c6106333660046153b9565b611f0f565b34801561064457600080fd5b50610353600081565b34801561065957600080fd5b50610353611f3a565b34801561066e57600080fd5b506102fa61067d366004615230565b611f46565b34801561068e57600080fd5b506102fa61069d3660046152f1565b612075565b3480156106ae57600080fd5b506102fa6106bd36600461552e565b612235565b3480156106ce57600080fd5b5061035360fc5481565b3480156106e457600080fd5b5061012f546102c2906001600160a01b031681565b34801561070557600080fd5b506102fa6107143660046153b9565b61234b565b34801561072557600080fd5b5061012e546102c2906001600160a01b031681565b34801561074657600080fd5b50610353610755366004615230565b612370565b34801561076657600080fd5b5061012d546102c2906001600160a01b031681565b34801561078757600080fd5b5061035361079636600461531b565b6123f5565b3480156107a757600080fd5b50610137546102c2906001600160a01b031681565b60006001600160e01b03198216637965db0b60e01b14806107ed57506301ffc9a760e01b6001600160e01b03198316145b92915050565b61080b600080516020615a8983398151915233611f0f565b806108a0575060fb54604051632474521560e21b8152600080516020615a8983398151915260048201523360248201526001600160a01b03909116906391d148549060440160206040518083038186803b15801561086857600080fd5b505afa15801561087c573d6000803e3d6000fd5b505050506040513d601f19601f820116820180604052508101906108a0919061536a565b6108c55760405162461bcd60e51b81526004016108bc906157f6565b60405180910390fd5b6000610943306001600160a01b031663a3673b386040518163ffffffff1660e01b815260040160206040518083038186803b15801561090357600080fd5b505afa158015610917573d6000803e3d6000fd5b505050506040513d601f19601f8201168201806040525081019061093b91906153a0565b60fd5461269d565b905061094d611a14565b80156109d2575061013454604051632b40296960e21b81523060048201526001600160a01b039091169063ad00a5a49060240160206040518083038186803b15801561099857600080fd5b505afa1580156109ac573d6000803e3d6000fd5b505050506040513d601f19601f820116820180604052508101906109d091906153a0565b155b15610b5b576000826109f6576109f16109ec85600a6126c7565b6126d6565b610a72565b610138546040516370a0823160e01b81523060048201526001600160a01b03909116906370a082319060240160206040518083038186803b158015610a3a57600080fd5b505afa158015610a4e573d6000803e3d6000fd5b505050506040513d601f19601f82011682018060405250810190610a7291906153a0565b9050610a7e8184612a77565b610134546040516370a0823160e01b81523060048201526001600160a01b039091169063a8abe9059082906370a082319060240160206040518083038186803b158015610aca57600080fd5b505afa158015610ade573d6000803e3d6000fd5b505050506040513d601f19601f82011682018060405250810190610b0291906153a0565b6040516001600160e01b031960e084901b1681526004810191909152306024820152604401600060405180830381600087803b158015610b4157600080fd5b505af1158015610b55573d6000803e3d6000fd5b50505050505b80306001600160a01b031663a3673b386040518163ffffffff1660e01b815260040160206040518083038186803b158015610b9557600080fd5b505afa158015610ba9573d6000803e3d6000fd5b505050506040513d601f19601f82011682018060405250810190610bcd91906153a0565b1015610beb5760405162461bcd60e51b81526004016108bc906157bf565b505050565b610bfb600033611f0f565b610c3e5760405162461bcd60e51b81526020600482015260146024820152735265737472696374656420746f2061646d696e7360601b60448201526064016108bc565b610c4b6020820182615230565b61012d80546001600160a01b0319166001600160a01b0392909216919091179055610c7c6040820160208301615230565b61012e80546001600160a01b0319166001600160a01b0392909216919091179055610cad6060820160408301615230565b61012f80546001600160a01b0319166001600160a01b0392909216919091179055610cde6080820160608301615230565b61013180546001600160a01b0319166001600160a01b0392909216919091179055610d0f60a0820160808301615230565b61013280546001600160a01b0319166001600160a01b0392909216919091179055610d4060e0820160c08301615230565b61013480546001600160a01b0319166001600160a01b0392909216919091179055610d7160c0820160a08301615230565b61013080546001600160a01b0319166001600160a01b0392909216919091179055610da3610100820160e08301615230565b61013380546001600160a01b039283166001600160a01b0319918216179091556101008301356101365561013780548216734d32c8ff2facc771ec7efc70d6a8468bc30c26bf179055610138805482167303b86b5b4f49fd2059c813b3f928c0b276c88e4e179055610139805490911673c7517f481cc0a645e63f870830a4b2e580421e3217905561012d546101315460405163095ea7b360e01b8152600019939283169263095ea7b392610e5f92911690859060040161575c565b602060405180830381600087803b158015610e7957600080fd5b505af1158015610e8d573d6000803e3d6000fd5b505050506040513d601f19601f82011682018060405250810190610eb1919061536a565b5061012d546101305460405163095ea7b360e01b81526001600160a01b039283169263095ea7b392610eea92911690859060040161575c565b602060405180830381600087803b158015610f0457600080fd5b505af1158015610f18573d6000803e3d6000fd5b505050506040513d601f19601f82011682018060405250810190610f3c919061536a565b5061012d546101345460405163095ea7b360e01b81526001600160a01b039283169263095ea7b392610f7592911690859060040161575c565b602060405180830381600087803b158015610f8f57600080fd5b505af1158015610fa3573d6000803e3d6000fd5b505050506040513d601f19601f82011682018060405250810190610fc7919061536a565b506101345460405163095ea7b360e01b81526001600160a01b039091169063095ea7b390610ffb908390859060040161575c565b602060405180830381600087803b15801561101557600080fd5b505af1158015611029573d6000803e3d6000fd5b505050506040513d601f19601f8201168201806040525081019061104d919061536a565b506101345461012d5460405163095ea7b360e01b81526001600160a01b039283169263095ea7b39261108692911690859060040161575c565b602060405180830381600087803b1580156110a057600080fd5b505af11580156110b4573d6000803e3d6000fd5b505050506040513d601f19601f820116820180604052508101906110d8919061536a565b50610134546101315460405163095ea7b360e01b81526001600160a01b039283169263095ea7b39261111192911690859060040161575c565b602060405180830381600087803b15801561112b57600080fd5b505af115801561113f573d6000803e3d6000fd5b505050506040513d601f19601f82011682018060405250810190611163919061536a565b50610134546101305460405163095ea7b360e01b81526001600160a01b039283169263095ea7b39261119c92911690859060040161575c565b602060405180830381600087803b1580156111b657600080fd5b505af11580156111ca573d6000803e3d6000fd5b505050506040513d601f19601f820116820180604052508101906111ee919061536a565b506101315460405163095ea7b360e01b81526001600160a01b039091169063095ea7b390611222908390859060040161575c565b602060405180830381600087803b15801561123c57600080fd5b505af1158015611250573d6000803e3d6000fd5b505050506040513d601f19601f82011682018060405250810190611274919061536a565b50610131546101305460405163095ea7b360e01b81526001600160a01b039283169263095ea7b3926112ad92911690859060040161575c565b602060405180830381600087803b1580156112c757600080fd5b505af11580156112db573d6000803e3d6000fd5b505050506040513d601f19601f820116820180604052508101906112ff919061536a565b5061012e546101305460405163095ea7b360e01b81526001600160a01b039283169263095ea7b39261133892911690859060040161575c565b602060405180830381600087803b15801561135257600080fd5b505af1158015611366573d6000803e3d6000fd5b505050506040513d601f19601f8201168201806040525081019061138a919061536a565b5061012f546101305460405163095ea7b360e01b81526001600160a01b039283169263095ea7b3926113c392911690859060040161575c565b602060405180830381600087803b1580156113dd57600080fd5b505af11580156113f1573d6000803e3d6000fd5b505050506040513d601f19601f82011682018060405250810190611415919061536a565b50610132546101305460405163095ea7b360e01b81526001600160a01b039283169263095ea7b39261144e92911690859060040161575c565b602060405180830381600087803b15801561146857600080fd5b505af115801561147c573d6000803e3d6000fd5b505050506040513d601f19601f820116820180604052508101906114a0919061536a565b50610132546101375460405163095ea7b360e01b81526001600160a01b039283169263095ea7b3926114d992911690859060040161575c565b602060405180830381600087803b1580156114f357600080fd5b505af1158015611507573d6000803e3d6000fd5b505050506040513d601f19601f8201168201806040525081019061152b919061536a565b506040517fea5646eb3528e525944447a4a97de700dd472298626e5c0481d1c82c3da86ea590600090a15050565b60006115656000613196565b905090565b600082815260656020526040902060010154611585816135d9565b610beb83836135e3565b6001600160a01b03811633146115ff5760405162461bcd60e51b815260206004820152602f60248201527f416363657373436f6e74726f6c3a2063616e206f6e6c792072656e6f756e636560448201526e103937b632b9903337b91039b2b63360891b60648201526084016108bc565b6116098282613669565b5050565b306001600160a01b037f00000000000000000000000000000000000000000000000000000000000000001614156116565760405162461bcd60e51b81526004016108bc90615838565b7f00000000000000000000000000000000000000000000000000000000000000006001600160a01b031661169f600080516020615aa9833981519152546001600160a01b031690565b6001600160a01b0316146116c55760405162461bcd60e51b81526004016108bc90615884565b6116ce816136d0565b604080516000808252602082019092526116ea918391906136db565b50565b306001600160a01b037f00000000000000000000000000000000000000000000000000000000000000001614156117365760405162461bcd60e51b81526004016108bc90615838565b7f00000000000000000000000000000000000000000000000000000000000000006001600160a01b031661177f600080516020615aa9833981519152546001600160a01b031690565b6001600160a01b0316146117a55760405162461bcd60e51b81526004016108bc90615884565b6117ae826136d0565b611609828260016136db565b6117d2600080516020615a8983398151915233611f0f565b80611867575060fb54604051632474521560e21b8152600080516020615a8983398151915260048201523360248201526001600160a01b03909116906391d148549060440160206040518083038186803b15801561182f57600080fd5b505afa158015611843573d6000803e3d6000fd5b505050506040513d601f19601f82011682018060405250810190611867919061536a565b6118835760405162461bcd60e51b81526004016108bc906157f6565b610134546040516370a0823160e01b81523060048201526001600160a01b039091169063a8abe9059082906370a082319060240160206040518083038186803b1580156118cf57600080fd5b505afa1580156118e3573d6000803e3d6000fd5b505050506040513d601f19601f8201168201806040525081019061190791906153a0565b6040516001600160e01b031960e084901b16815260048101919091523060248201526044015b600060405180830381600087803b15801561194757600080fd5b505af115801561195b573d6000803e3d6000fd5b50505050565b6000306001600160a01b037f00000000000000000000000000000000000000000000000000000000000000001614611a015760405162461bcd60e51b815260206004820152603860248201527f555550535570677261646561626c653a206d757374206e6f742062652063616c60448201527f6c6564207468726f7567682064656c656761746563616c6c000000000000000060648201526084016108bc565b50600080516020615aa983398151915290565b60008073990ba9edd8a9615a23e4c452e63a80e519a4a23d9050806001600160a01b031663b8feee646040518163ffffffff1660e01b815260040160206040518083038186803b158015611a6757600080fd5b505afa158015611a7b573d6000803e3d6000fd5b505050506040513d601f19601f82011682018060405250810190611a9f91906153a0565b1592915050565b6101345460405163ce96cb7760e01b81523060048201526000916001600160a01b03169063ce96cb779060240160206040518083038186803b158015611aeb57600080fd5b505afa158015611aff573d6000803e3d6000fd5b505050506040513d601f19601f8201168201806040525081019061156591906153a0565b610138546040516370a0823160e01b8152306004820152600091829182916001600160a01b0316906370a082319060240160206040518083038186803b158015611b6c57600080fd5b505afa158015611b80573d6000803e3d6000fd5b505050506040513d601f19601f82011682018060405250810190611ba491906153a0565b610132546040516370a0823160e01b81523060048201529192506001600160a01b0316906370a082319060240160206040518083038186803b158015611be957600080fd5b505afa158015611bfd573d6000803e3d6000fd5b505050506040513d601f19601f82011682018060405250810190611c2191906153a0565b611c2b908261594f565b9050600061013260009054906101000a90046001600160a01b03166001600160a01b031663c3fb90d66040518163ffffffff1660e01b815260040160c06040518083038186803b158015611c7e57600080fd5b505afa158015611c92573d6000803e3d6000fd5b505050506040513d601f19601f82011682018060405250810190611cb6919061540f565b805160208083015161013254604080516318160ddd60e01b815290519596506001600160801b039485169594909216936000936001600160a01b03909216926318160ddd926004808301939192829003018186803b158015611d1757600080fd5b505afa158015611d2b573d6000803e3d6000fd5b505050506040513d601f19601f82011682018060405250810190611d4f91906153a0565b905080611d5c8684615989565b611d669190615967565b965080611d738685615989565b611d7d9190615967565b955050505050509091565b600042611d93611a14565b611da0576203f480611da5565b6202a3005b62ffffff1661013460009054906101000a90046001600160a01b03166001600160a01b03166361a8c8c46040518163ffffffff1660e01b815260040160206040518083038186803b158015611df957600080fd5b505afa158015611e0d573d6000803e3d6000fd5b505050506040513d601f19601f82011682018060405250810190611e3191906153a0565b611e3b919061594f565b61156591906159a8565b600054610100900460ff1615808015611e655750600054600160ff909116105b80611e7f5750303b158015611e7f575060005460ff166001145b611e9b5760405162461bcd60e51b81526004016108bc906158d0565b6000805460ff191660011790558015611ebe576000805461ff0019166101001790555b611ec6613855565b80156116ea576000805461ff0019169055604051600181527f7f26b83ff96e1f2b6a682f133852f6798a09c465da95921460cefb3847402498906020015b60405180910390a150565b60009182526065602090815260408084206001600160a01b0393909316845291905290205460ff1690565b60006115656001613196565b611f51600033611f0f565b611f945760405162461bcd60e51b81526020600482015260146024820152735265737472696374656420746f2061646d696e7360601b60448201526064016108bc565b6001600160a01b038116611fea5760405162461bcd60e51b815260206004820152601860248201527f5a65726f2061646472657373206e6f7420616c6c6f776564000000000000000060448201526064016108bc565b60fb5461200f90600080516020615a69833981519152906001600160a01b031661234b565b612027600080516020615a698339815191528261156a565b60fb80546001600160a01b0319166001600160a01b0383169081179091556040519081527ff7b449fcd5cfb7379dcd34cb69428dd9f882033b15be33d83b42d91daa28eeb790602001611f04565b61208d600080516020615a6983398151915233611f0f565b6120a95760405162461bcd60e51b81526004016108bc90615788565b60006120e7306001600160a01b031663a3673b386040518163ffffffff1660e01b815260040160206040518083038186803b15801561090357600080fd5b6040516370a0823160e01b815230600482015290915061216c9084906001600160a01b038216906370a082319060240160206040518083038186803b15801561212f57600080fd5b505afa158015612143573d6000803e3d6000fd5b505050506040513d601f19601f8201168201806040525081019061216791906153a0565b61393a565b80306001600160a01b031663a3673b386040518163ffffffff1660e01b815260040160206040518083038186803b1580156121a657600080fd5b505afa1580156121ba573d6000803e3d6000fd5b505050506040513d601f19601f820116820180604052508101906121de91906153a0565b10156121fc5760405162461bcd60e51b81526004016108bc906157bf565b6040518281527f227a473b70d2f893cc7659219575c030a63b5743024fe1e0c1a680e708b1525a906020015b60405180910390a1505050565b61224d600080516020615a8983398151915233611f0f565b806122e2575060fb54604051632474521560e21b8152600080516020615a8983398151915260048201523360248201526001600160a01b03909116906391d148549060440160206040518083038186803b1580156122aa57600080fd5b505afa1580156122be573d6000803e3d6000fd5b505050506040513d601f19601f820116820180604052508101906122e2919061536a565b6122fe5760405162461bcd60e51b81526004016108bc906157f6565b60fc83905560fd82905560fe81905560408051848152602081018490529081018290527f116fbf1e97a2be629ad98abfb6c332733c8996c2dfb174dd2efe8440df381d1a90606001612228565b600082815260656020526040902060010154612366816135d9565b610beb8383613669565b600061238a600080516020615a6983398151915233611f0f565b6123a65760405162461bcd60e51b81526004016108bc90615788565b60006123b183613942565b905080156123ed576040518181527f3ac0594a85a20354f9dc74f33728416d19ce00d04a406c108cc2dcf2cecea1349060200160405180910390a15b90505b919050565b600061240f600080516020615a6983398151915233611f0f565b61242b5760405162461bcd60e51b81526004016108bc90615788565b6000612469306001600160a01b031663a3673b386040518163ffffffff1660e01b815260040160206040518083038186803b15801561090357600080fd5b905060008084156124905761247d86613942565b90506124898887613ba9565b91506124ff565b61249b888888613db0565b9150868210156124ff5760405162461bcd60e51b815260206004820152602960248201527f52657475726e65642076616c7565206c657373207468616e2072657175657374604482015268195908185b5bdd5b9d60ba1b60648201526084016108bc565b82306001600160a01b031663a3673b386040518163ffffffff1660e01b815260040160206040518083038186803b15801561253957600080fd5b505afa15801561254d573d6000803e3d6000fd5b505050506040513d601f19601f8201168201806040525081019061257191906153a0565b101561258f5760405162461bcd60e51b81526004016108bc906157bf565b60405163a9059cbb60e01b81526001600160a01b0389169063a9059cbb906125bd908990869060040161575c565b602060405180830381600087803b1580156125d757600080fd5b505af11580156125eb573d6000803e3d6000fd5b505050506040513d601f19601f8201168201806040525081019061260f919061536a565b5060408051888152602081018490527f9045c2ac9b2026de8075f2701bbdde882cd5e830b3b1ead9a15b22f2b5b93742910160405180910390a18015612683576040518181527f3ac0594a85a20354f9dc74f33728416d19ce00d04a406c108cc2dcf2cecea1349060200160405180910390a15b509695505050505050565b6001600160a01b03163b151590565b60006127106126ac83826159a8565b6126b69085615989565b6126c09190615967565b9392505050565b60006127106126ac838261594f565b60008060008061013260009054906101000a90046001600160a01b03166001600160a01b031663c3fb90d66040518163ffffffff1660e01b815260040160c06040518083038186803b15801561272b57600080fd5b505afa15801561273f573d6000803e3d6000fd5b505050506040513d601f19601f82011682018060405250810190612763919061540f565b805160209182015161013254604080516318160ddd60e01b815290516001600160801b039485169850939092169550600094506001600160a01b0316926318160ddd92600480840193829003018186803b1580156127c057600080fd5b505afa1580156127d4573d6000803e3d6000fd5b505050506040513d601f19601f820116820180604052508101906127f891906153a0565b6101345460405163ef8b30f760e01b8152670de0b6b3a7640000600482018190529293506000916001600160a01b03169063ef8b30f79060240160206040518083038186803b15801561284a57600080fd5b505afa15801561285e573d6000803e3d6000fd5b505050506040513d601f19601f8201168201806040525081019061288291906153a0565b905060008361289487620f4240615989565b61289e9190615967565b8285856128ae89620f4240615989565b6128b89190615989565b6128c29190615967565b6128cc9190615967565b6128d6919061594f565b905060008285856128ea89620f4240615989565b6128f49190615989565b6128fe9190615967565b6129089190615967565b905060008261291a8b620f4240615989565b6129249190615967565b61012f546040516370a0823160e01b81523060048201529192508b916001600160a01b03909116906370a082319060240160206040518083038186803b15801561296d57600080fd5b505afa158015612981573d6000803e3d6000fd5b505050506040513d601f19601f820116820180604052508101906129a591906153a0565b1015612a665761012f546040516370a0823160e01b815230600482015260009184916001600160a01b03909116906370a082319060240160206040518083038186803b1580156129f457600080fd5b505afa158015612a08573d6000803e3d6000fd5b505050506040513d601f19601f82011682018060405250810190612a2c91906153a0565b612a36908d6159a8565b612a4390620f4240615989565b612a4d9190615967565b9050808211612a5c5780612a5e565b815b995050612a6a565b8098505b5050505050505050919050565b6101395460405163095ea7b360e01b815273183b30706ff2655e7ab0ab37867dd7af8cb75e7891829163095ea7b391612ac2916001600160a01b03909116906000199060040161575c565b602060405180830381600087803b158015612adc57600080fd5b505af1158015612af0573d6000803e3d6000fd5b505050506040513d601f19601f82011682018060405250810190612b14919061536a565b5061013954604051630441a3e760e41b815260026004820152602481018590526001600160a01b039091169063441a3e7090604401600060405180830381600087803b158015612b6357600080fd5b505af1158015612b77573d6000803e3d6000fd5b5050610130546101325460405163b7d75b8b60e01b81523060048201526001600160a01b0391821660248201526044810188905260006064820181905260848201529116925063b7d75b8b915060a4016040805180830381600087803b158015612be057600080fd5b505af1158015612bf4573d6000803e3d6000fd5b505050506040513d601f19601f82011682018060405250810190612c18919061550a565b505061012f546040516370a0823160e01b81523060048201526000916001600160a01b0316906370a082319060240160206040518083038186803b158015612c5f57600080fd5b505afa158015612c73573d6000803e3d6000fd5b505050506040513d601f19601f82011682018060405250810190612c9791906153a0565b61012e546040516370a0823160e01b81523060048201526001600160a01b03909116906370a082319060240160206040518083038186803b158015612cdb57600080fd5b505afa158015612cef573d6000803e3d6000fd5b505050506040513d601f19601f82011682018060405250810190612d1391906153a0565b10612d995761012f546040516370a0823160e01b81523060048201526001600160a01b03909116906370a082319060240160206040518083038186803b158015612d5c57600080fd5b505afa158015612d70573d6000803e3d6000fd5b505050506040513d601f19601f82011682018060405250810190612d9491906153a0565b612e15565b61012e546040516370a0823160e01b81523060048201526001600160a01b03909116906370a082319060240160206040518083038186803b158015612ddd57600080fd5b505afa158015612df1573d6000803e3d6000fd5b505050506040513d601f19601f82011682018060405250810190612e1591906153a0565b90506000604051806080016040528060006003811115612e3757612e37615a18565b815260200160006001600160a01b03168152602001604051602401612e6790602080825260009082015260400190565b60408051601f19818403018152918152602080830180516001600160e01b031663c5d2460160e01b1790529183526000928201839052805160c081018252610134546001600160a01b039081168083529382018590528183019390935260608101849052608081019390935260a083018490526101305461012f54915163527df19960e01b815294955092939282169263527df19992612f12923092911690889087906004016156f6565b602060405180830381600087803b158015612f2c57600080fd5b505af1158015612f40573d6000803e3d6000fd5b505050506040513d601f19601f82011682018060405250810190612f6491906153a0565b5050505081156130745761012e546040516370a0823160e01b8152306004820152612ff1916001600160a01b0316906370a082319060240160206040518083038186803b158015612fb457600080fd5b505afa158015612fc8573d6000803e3d6000fd5b505050506040513d601f19601f82011682018060405250810190612fec91906153a0565b613f48565b61012f546040516370a0823160e01b8152306004820152613074916001600160a01b0316906370a082319060240160206040518083038186803b15801561303757600080fd5b505afa15801561304b573d6000803e3d6000fd5b505050506040513d601f19601f8201168201806040525081019061306f91906153a0565b614067565b610131546040516370a0823160e01b815230600482018190526001600160a01b039092169163769f8e5d9183906370a082319060240160206040518083038186803b1580156130c257600080fd5b505afa1580156130d6573d6000803e3d6000fd5b505050506040513d601f19601f820116820180604052508101906130fa91906153a0565b6101345460405160e085901b6001600160e01b03191681526001600160a01b0393841660048201526024810192909252919091166044820152600060648201819052608482015260a401602060405180830381600087803b15801561315e57600080fd5b505af1158015613172573d6000803e3d6000fd5b505050506040513d601f19601f8201168201806040525081019061195b91906153a0565b60008060006131a3611b23565b610131546040516370a0823160e01b81523060048201529294509092506001600160a01b0316906370a082319060240160206040518083038186803b1580156131eb57600080fd5b505afa1580156131ff573d6000803e3d6000fd5b505050506040513d601f19601f8201168201806040525081019061322391906153a0565b61322d908361594f565b61012e546040516370a0823160e01b81523060048201529193506001600160a01b0316906370a082319060240160206040518083038186803b15801561327257600080fd5b505afa158015613286573d6000803e3d6000fd5b505050506040513d601f19601f820116820180604052508101906132aa91906153a0565b6132b4908261594f565b61012f546040516370a0823160e01b81523060048201529192506000916001600160a01b03909116906370a082319060240160206040518083038186803b1580156132fe57600080fd5b505afa158015613312573d6000803e3d6000fd5b505050506040513d601f19601f8201168201806040525081019061333691906153a0565b61012d546040516370a0823160e01b81523060048201529192506000916001600160a01b03909116906370a082319060240160206040518083038186803b15801561338057600080fd5b505afa158015613394573d6000803e3d6000fd5b505050506040513d601f19601f820116820180604052508101906133b891906153a0565b610134546040516370a0823160e01b81523060048201529192506000916001600160a01b03909116906370a082319060240160206040518083038186803b15801561340257600080fd5b505afa158015613416573d6000803e3d6000fd5b505050506040513d601f19601f8201168201806040525081019061343a91906153a0565b9050600083851061344b578361344d565b845b9050613459818461594f565b9250613465868361594f565b915061347181866159a8565b945061347d81856159a8565b935060008061348c8787614134565b909250905061349b818361594f565b6134a5908561594f565b935083156135cb57891561354157610134546040516303d1689d60e11b8152600481018690526001600160a01b03909116906307a2d13a9060240160206040518083038186803b1580156134f857600080fd5b505afa15801561350c573d6000803e3d6000fd5b505050506040513d601f19601f8201168201806040525081019061353091906153a0565b61353a908661594f565b94506135cb565b6101345460405163266d6a8360e11b8152600481018690526001600160a01b0390911690634cdad5069060240160206040518083038186803b15801561358657600080fd5b505afa15801561359a573d6000803e3d6000fd5b505050506040513d601f19601f820116820180604052508101906135be91906153a0565b6135c8908661594f565b94505b509298975050505050505050565b6116ea8133614216565b6135ed8282611f0f565b6116095760008281526065602090815260408083206001600160a01b03851684529091529020805460ff191660011790556136253390565b6001600160a01b0316816001600160a01b0316837f2f8788117e7eff1d82e926ec794901d17c78024a50270940304540a733656f0d60405160405180910390a45050565b6136738282611f0f565b156116095760008281526065602090815260408083206001600160a01b0385168085529252808320805460ff1916905551339285917ff6391f5c32d9c69d2a47ea670b442974b53935d1edc7fd64eb21e047a839171b9190a45050565b6000611609816135d9565b7f4910fdfa16fed3260ed0e7147f7cc6da11a60208b5b9406d12a635614ffd91435460ff161561370e57610beb8361426f565b826001600160a01b03166352d1902d6040518163ffffffff1660e01b815260040160206040518083038186803b15801561374757600080fd5b505afa925050508015613777575060408051601f3d908101601f19168201909252613774918101906153a0565b60015b6137da5760405162461bcd60e51b815260206004820152602e60248201527f45524331393637557067726164653a206e657720696d706c656d656e7461746960448201526d6f6e206973206e6f74205555505360901b60648201526084016108bc565b600080516020615aa983398151915281146138495760405162461bcd60e51b815260206004820152602960248201527f45524331393637557067726164653a20756e737570706f727465642070726f786044820152681a58589b195555525160ba1b60648201526084016108bc565b50610beb83838361430b565b600054610100900460ff16158080156138755750600054600160ff909116105b8061388f5750303b15801561388f575060005460ff166001145b6138ab5760405162461bcd60e51b81526004016108bc906158d0565b6000805460ff1916600117905580156138ce576000805461ff0019166101001790555b6138d6614330565b6138de614330565b6138e96000336135e3565b601460fc81905560fd55600460fe5580156116ea576000805461ff0019169055604051600181527f7f26b83ff96e1f2b6a682f133852f6798a09c465da95921460cefb384740249890602001611f04565b61160961439d565b61013854604051630c00007b60e41b81523060048201526000916001600160a01b03169063c00007b090602401600060405180830381600087803b15801561398957600080fd5b505af115801561399d573d6000803e3d6000fd5b505050506139a9614c5b565b73__$897da94c6096b79838ac7959e09b7f7238$__636aa7a1d16040518163ffffffff1660e01b815260040160006040518083038186803b1580156139ed57600080fd5b505af4158015613a01573d6000803e3d6000fd5b50505050600073__$897da94c6096b79838ac7959e09b7f7238$__630820c35f6040518163ffffffff1660e01b815260040160206040518083038186803b158015613a4b57600080fd5b505af4158015613a5f573d6000803e3d6000fd5b505050506040513d601f19601f82011682018060405250810190613a8391906153a0565b613a8d908261594f565b905073__$897da94c6096b79838ac7959e09b7f7238$__631d126b596040518163ffffffff1660e01b815260040160206040518083038186803b158015613ad357600080fd5b505af4158015613ae7573d6000803e3d6000fd5b505050506040513d601f19601f82011682018060405250810190613b0b91906153a0565b613b15908261594f565b905080156123ed5761012d5460405163a9059cbb60e01b81526001600160a01b039091169063a9059cbb90613b50908690859060040161575c565b602060405180830381600087803b158015613b6a57600080fd5b505af1158015613b7e573d6000803e3d6000fd5b505050506040513d601f19601f82011682018060405250810190613ba2919061536a565b5092915050565b6101345460405163ce96cb7760e01b815230600482015260009182916001600160a01b039091169063ce96cb779060240160206040518083038186803b158015613bf257600080fd5b505afa158015613c06573d6000803e3d6000fd5b505050506040513d601f19601f82011682018060405250810190613c2a91906153a0565b1115613d3457610134546040516370a0823160e01b81523060048201526001600160a01b039091169063ba0876529082906370a082319060240160206040518083038186803b158015613c7c57600080fd5b505afa158015613c90573d6000803e3d6000fd5b505050506040513d601f19601f82011682018060405250810190613cb491906153a0565b6040516001600160e01b031960e084901b168152600481019190915230602482018190526044820152606401602060405180830381600087803b158015613cfa57600080fd5b505af1158015613d0e573d6000803e3d6000fd5b505050506040513d601f19601f82011682018060405250810190613d3291906153a0565b505b61012d546040516370a0823160e01b81523060048201526001600160a01b03909116906370a082319060240160206040518083038186803b158015613d7857600080fd5b505afa158015613d8c573d6000803e3d6000fd5b505050506040513d601f19601f820116820180604052508101906126c091906153a0565b6101345460405163ce96cb7760e01b815230600482015260009184916001600160a01b039091169063ce96cb779060240160206040518083038186803b158015613df957600080fd5b505afa158015613e0d573d6000803e3d6000fd5b505050506040513d601f19601f82011682018060405250810190613e3191906153a0565b10613ec45761013454604051632d182be560e21b815260048101859052306024820181905260448201526001600160a01b039091169063b460af9490606401602060405180830381600087803b158015613e8a57600080fd5b505af1158015613e9e573d6000803e3d6000fd5b505050506040513d601f19601f82011682018060405250810190613ec291906153a0565b505b61012d546040516370a0823160e01b81523060048201526001600160a01b03909116906370a082319060240160206040518083038186803b158015613f0857600080fd5b505afa158015613f1c573d6000803e3d6000fd5b505050506040513d601f19601f82011682018060405250810190613f4091906153a0565b949350505050565b600081118015613fd3575061012e546040516370a0823160e01b81523060048201526001600160a01b03909116906370a082319060240160206040518083038186803b158015613f9757600080fd5b505afa158015613fab573d6000803e3d6000fd5b505050506040513d601f19601f82011682018060405250810190613fcf91906153a0565b8111155b156116ea576101305461013254604051632032aecd60e01b81526001600160a01b0392831692632032aecd92614016923092909116908690600090600401615733565b6040805180830381600087803b15801561402f57600080fd5b505af1158015614043573d6000803e3d6000fd5b505050506040513d601f19601f82011682018060405250810190610beb919061550a565b6000811180156140f2575061012f546040516370a0823160e01b81523060048201526001600160a01b03909116906370a082319060240160206040518083038186803b1580156140b657600080fd5b505afa1580156140ca573d6000803e3d6000fd5b505050506040513d601f19601f820116820180604052508101906140ee91906153a0565b8111155b156116ea57610130546101325460405162d5f59560e61b81526001600160a01b039283169263357d654092614016923092909116908690600090600401615733565b610133546101325460405163abca0eab60e01b81526001600160a01b039182166004820152603260248201526000928392839291169063abca0eab9060440160206040518083038186803b15801561418b57600080fd5b505afa15801561419f573d6000803e3d6000fd5b505050506040513d601f19601f820116820180604052508101906141c391906153a0565b9050670de0b6b3a76400006141d88683615989565b6141e29190615967565b9250670de0b6b3a7640000846141f883836159a8565b6142029190615989565b61420c9190615967565b9150509250929050565b6142208282611f0f565b6116095761422d81614e26565b614238836020614e38565b604051602001614249929190615681565b60408051601f198184030181529082905262461bcd60e51b82526108bc91600401615775565b6001600160a01b0381163b6142dc5760405162461bcd60e51b815260206004820152602d60248201527f455243313936373a206e657720696d706c656d656e746174696f6e206973206e60448201526c1bdd08184818dbdb9d1c9858dd609a1b60648201526084016108bc565b600080516020615aa983398151915280546001600160a01b0319166001600160a01b0392909216919091179055565b61431483614fd4565b6000825111806143215750805b15610beb5761195b8383615014565b600054610100900460ff1661439b5760405162461bcd60e51b815260206004820152602b60248201527f496e697469616c697a61626c653a20636f6e7472616374206973206e6f74206960448201526a6e697469616c697a696e6760a81b60648201526084016108bc565b565b61012d546040516370a0823160e01b81523060048201526000916001600160a01b0316906370a082319060240160206040518083038186803b1580156143e257600080fd5b505afa1580156143f6573d6000803e3d6000fd5b505050506040513d601f19601f8201168201806040525081019061441a91906153a0565b1115614521576101345461012d546040516370a0823160e01b81523060048201526001600160a01b0392831692636e553f659216906370a082319060240160206040518083038186803b15801561447057600080fd5b505afa158015614484573d6000803e3d6000fd5b505050506040513d601f19601f820116820180604052508101906144a891906153a0565b6040516001600160e01b031960e084901b1681526004810191909152306024820152604401602060405180830381600087803b1580156144e757600080fd5b505af11580156144fb573d6000803e3d6000fd5b505050506040513d601f19601f8201168201806040525081019061451f91906153a0565b505b610134546040516370a0823160e01b81523060048201526000916001600160a01b0316906370a082319060240160206040518083038186803b15801561456657600080fd5b505afa15801561457a573d6000803e3d6000fd5b505050506040513d601f19601f8201168201806040525081019061459e91906153a0565b610131546040516370a0823160e01b81523060048201529192506000916001600160a01b03909116906370a082319060240160206040518083038186803b1580156145e857600080fd5b505afa1580156145fc573d6000803e3d6000fd5b505050506040513d601f19601f8201168201806040525081019061462091906153a0565b9050600061013260009054906101000a90046001600160a01b03166001600160a01b031663c3fb90d66040518163ffffffff1660e01b815260040160c06040518083038186803b15801561467357600080fd5b505afa158015614687573d6000803e3d6000fd5b505050506040513d601f19601f820116820180604052508101906146ab919061540f565b805160208201516101345460405163ef8b30f760e01b8152670de0b6b3a7640000600482018190529495506001600160801b03938416949390921692916000916001600160a01b03169063ef8b30f79060240160206040518083038186803b15801561471657600080fd5b505afa15801561472a573d6000803e3d6000fd5b505050506040513d601f19601f8201168201806040525081019061474e91906153a0565b90506000614797836147608988615989565b61476a8b88615989565b61477491906159a8565b61477e8589615989565b6147888888615989565b614792919061594f565b615108565b61013154610134546040516320e8c56560e01b81529293506001600160a01b03918216926320e8c565926147d79230929116908690600090600401615733565b602060405180830381600087803b1580156147f157600080fd5b505af1158015614805573d6000803e3d6000fd5b505050506040513d601f19601f8201168201806040525081019061482991906153a0565b505050505050505050600060405180608001604052806000600381111561485257614852615a18565b815260200160006001600160a01b0316815260200160405160240161488290602080825260009082015260400190565b60408051601f19818403018152918152602080830180516001600160e01b031663c5d2460160e01b1790529183526000928201839052805160c081018252610134546001600160a01b031680825291516370a0823160e01b81523060048201529495509293918301916370a082319060240160206040518083038186803b15801561490c57600080fd5b505afa158015614920573d6000803e3d6000fd5b505050506040513d601f19601f8201168201806040525081019061494491906153a0565b8152610134546001600160a01b039081166020830152600060408084018290526060840182905260809093018690526101305461012f54935163237596db60e11b81529495508216936346eb2db6936149a693309391169187906004016156f6565b602060405180830381600087803b1580156149c057600080fd5b505af11580156149d4573d6000803e3d6000fd5b505050506040513d601f19601f820116820180604052508101906149f891906153a0565b50506101305461013254610131546040516370a0823160e01b815230600482018190526001600160a01b0394851695506397ee279e94909381169216906370a082319060240160206040518083038186803b158015614a5657600080fd5b505afa158015614a6a573d6000803e3d6000fd5b505050506040513d601f19601f82011682018060405250810190614a8e91906153a0565b61012e546040516370a0823160e01b81523060048201526001600160a01b03909116906370a082319060240160206040518083038186803b158015614ad257600080fd5b505afa158015614ae6573d6000803e3d6000fd5b505050506040513d601f19601f82011682018060405250810190614b0a91906153a0565b6040516001600160e01b031960e087901b1681526001600160a01b039485166004820152939092166024840152604483015260648201526000608482015260a401606060405180830381600087803b158015614b6557600080fd5b505af1158015614b79573d6000803e3d6000fd5b505050506040513d601f19601f82011682018060405250810190614b9d919061555a565b505061013754610132546040516370a0823160e01b81523060048201526001600160a01b0392831693506343a0d0669260029216906370a082319060240160206040518083038186803b158015614bf357600080fd5b505afa158015614c07573d6000803e3d6000fd5b505050506040513d601f19601f82011682018060405250810190614c2b91906153a0565b6040516001600160e01b031960e085901b168152600481019290925260248201526001604482015260640161192d565b6000614c65611b23565b61012e546040516370a0823160e01b81523060048201529193506001600160a01b031691506370a082319060240160206040518083038186803b158015614cab57600080fd5b505afa158015614cbf573d6000803e3d6000fd5b505050506040513d601f19601f82011682018060405250810190614ce391906153a0565b614ced908261594f565b61012f546040516370a0823160e01b81523060048201529192506000916001600160a01b03909116906370a082319060240160206040518083038186803b158015614d3757600080fd5b505afa158015614d4b573d6000803e3d6000fd5b505050506040513d601f19601f82011682018060405250810190614d6f91906153a0565b90506000806000614d806001613196565b905083851115614dd757614d9e614d9785876159a8565b6000614134565b50809350508260646101365483614db59190615989565b614dbf9190615967565b1015614dd257614dd2612fec85876159a8565b614e1f565b614deb6000614de687876159a8565b614134565b61013654909350839150606490614e029084615989565b614e0c9190615967565b1015614e1f57614e1f61306f86866159a8565b5050505050565b60606107ed6001600160a01b03831660145b60606000614e47836002615989565b614e5290600261594f565b67ffffffffffffffff811115614e6a57614e6a615a44565b6040519080825280601f01601f191660200182016040528015614e94576020820181803683370190505b509050600360fc1b81600081518110614eaf57614eaf615a2e565b60200101906001600160f81b031916908160001a905350600f60fb1b81600181518110614ede57614ede615a2e565b60200101906001600160f81b031916908160001a9053506000614f02846002615989565b614f0d90600161594f565b90505b6001811115614f85576f181899199a1a9b1b9c1cb0b131b232b360811b85600f1660108110614f4157614f41615a2e565b1a60f81b828281518110614f5757614f57615a2e565b60200101906001600160f81b031916908160001a90535060049490941c93614f7e816159eb565b9050614f10565b5083156126c05760405162461bcd60e51b815260206004820181905260248201527f537472696e67733a20686578206c656e67746820696e73756666696369656e7460448201526064016108bc565b614fdd8161426f565b6040516001600160a01b038216907fbc7cd75a20ee27fd9adebab32041f755214dbc6bffa90cc0225b39da2e5c2d3b90600090a250565b60606001600160a01b0383163b61507c5760405162461bcd60e51b815260206004820152602660248201527f416464726573733a2064656c65676174652063616c6c20746f206e6f6e2d636f6044820152651b9d1c9858dd60d21b60648201526084016108bc565b600080846001600160a01b0316846040516150979190615665565b600060405180830381855af49150503d80600081146150d2576040519150601f19603f3d011682016040523d82523d6000602084013e6150d7565b606091505b50915091506150ff8282604051806060016040528060278152602001615ac9602791396151b7565b95945050505050565b600080806000198587098587029250828110838203039150508060001415615142576000841161513757600080fd5b5082900490506126c0565b80841161514e57600080fd5b60008486880960026001871981018816978890046003810283188082028403028082028403028082028403028082028403028082028403029081029092039091026000889003889004909101858311909403939093029303949094049190911702949350505050565b606083156151c65750816126c0565b6126c083838151156151db5781518083602001fd5b8060405162461bcd60e51b81526004016108bc9190615775565b80356001600160a01b03811681146123f057600080fd5b8051600f81900b81146123f057600080fd5b805161ffff811681146123f057600080fd5b60006020828403121561524257600080fd5b6126c0826151f5565b6000806040838503121561525e57600080fd5b615267836151f5565b915060208084013567ffffffffffffffff8082111561528557600080fd5b818601915086601f83011261529957600080fd5b8135818111156152ab576152ab615a44565b6152bd601f8201601f1916850161591e565b915080825287848285010111156152d357600080fd5b80848401858401376000848284010152508093505050509250929050565b6000806040838503121561530457600080fd5b61530d836151f5565b946020939093013593505050565b6000806000806080858703121561533157600080fd5b61533a856151f5565b93506020850135925061534f604086016151f5565b9150606085013561535f81615a5a565b939692955090935050565b60006020828403121561537c57600080fd5b81516126c081615a5a565b60006020828403121561539957600080fd5b5035919050565b6000602082840312156153b257600080fd5b5051919050565b600080604083850312156153cc57600080fd5b823591506153dc602084016151f5565b90509250929050565b6000602082840312156153f757600080fd5b81356001600160e01b0319811681146126c057600080fd5b600060c0828403121561542157600080fd5b60405160c0810181811067ffffffffffffffff8211171561544457615444615a44565b6040526154508361520c565b815261545e6020840161520c565b602082015260408301516bffffffffffffffffffffffff8116811461548257600080fd5b60408201526154936060840161521e565b60608201526154a46080840161521e565b60808201526154b560a0840161521e565b60a08201529392505050565b600061012082840312156154d457600080fd5b50919050565b600080604083850312156154ed57600080fd5b8235915060208301356154ff81615a5a565b809150509250929050565b6000806040838503121561551d57600080fd5b505080516020909101519092909150565b60008060006060848603121561554357600080fd5b505081359360208301359350604090920135919050565b60008060006060848603121561556f57600080fd5b8351925060208401519150604084015190509250925092565b600081518084526155a08160208601602086016159bf565b601f01601f19169290920160200192915050565b600060018060a01b038083511684526020830151602085015280604084015116604085015280606084015116606085015280608084015116608085015260a083015160c060a086015280516004811061561d57634e487b7160e01b600052602160045260246000fd5b60c0860152602081015190911660e0850152604081015160806101008601529061564b610140860183615588565b915060608101511515610120860152508091505092915050565b600082516156778184602087016159bf565b9190910192915050565b7f416363657373436f6e74726f6c3a206163636f756e74200000000000000000008152600083516156b98160178501602088016159bf565b7001034b99036b4b9b9b4b733903937b6329607d1b60179184019182015283516156ea8160288401602088016159bf565b01602801949350505050565b6001600160a01b0385811682528416602082015260408101839052608060608201819052600090615729908301846155b4565b9695505050505050565b6001600160a01b0394851681529290931660208301526040820152606081019190915260800190565b6001600160a01b03929092168252602082015260400190565b6020815260006126c06020830184615588565b6020808252601f908201527f5265737472696374656420746f20504f5254464f4c494f5f4d414e4147455200604082015260600190565b6020808252601f908201527f5374726174656779204e4156206c657373207468616e20657870656374656400604082015260600190565b60208082526022908201527f5265737472696374656420746f20504f5254464f4c494f5f4147454e545f524f6040820152614c4560f01b606082015260800190565b6020808252602c908201527f46756e6374696f6e206d7573742062652063616c6c6564207468726f7567682060408201526b19195b1959d85d1958d85b1b60a21b606082015260800190565b6020808252602c908201527f46756e6374696f6e206d7573742062652063616c6c6564207468726f7567682060408201526b6163746976652070726f787960a01b606082015260800190565b6020808252602e908201527f496e697469616c697a61626c653a20636f6e747261637420697320616c72656160408201526d191e481a5b9a5d1a585b1a5e995960921b606082015260800190565b604051601f8201601f1916810167ffffffffffffffff8111828210171561594757615947615a44565b604052919050565b6000821982111561596257615962615a02565b500190565b60008261598457634e487b7160e01b600052601260045260246000fd5b500490565b60008160001904831182151516156159a3576159a3615a02565b500290565b6000828210156159ba576159ba615a02565b500390565b60005b838110156159da5781810151838201526020016159c2565b8381111561195b5750506000910152565b6000816159fa576159fa615a02565b506000190190565b634e487b7160e01b600052601160045260246000fd5b634e487b7160e01b600052602160045260246000fd5b634e487b7160e01b600052603260045260246000fd5b634e487b7160e01b600052604160045260246000fd5b80151581146116ea57600080fdfe90c2aa7471c04182221f68e80c07ab1e5946e4c63f8693e14ca40385d529f051d67ad422505496469a1adf6cdf9e5ee92ac5d33992843c9ecc4b2f6d6cde9137360894a13ba1a3210667c828492db98dca3e2076cc3735a920a3ca505d382bbc416464726573733a206c6f772d6c6576656c2064656c65676174652063616c6c206661696c6564a264697066735822122018a0a74210955f73588de2d5866fd5bd19dce4d0dce0af3c7e5d94451562d0ac64736f6c63430008060033",
  "implementation": "0xFCCE4611d810e93d823b351C53A01b9D27923a82",
  "devdoc": {
    "kind": "dev",
    "methods": {
      "constructor": {
        "custom:oz-upgrades-unsafe-allow": "constructor"
      },
      "getRoleAdmin(bytes32)": {
        "details": "Returns the admin role that controls `role`. See {grantRole} and {revokeRole}. To change a role's admin, use {_setRoleAdmin}."
      },
      "grantRole(bytes32,address)": {
        "details": "Grants `role` to `account`. If `account` had not been already granted `role`, emits a {RoleGranted} event. Requirements: - the caller must have ``role``'s admin role. May emit a {RoleGranted} event."
      },
      "hasRole(bytes32,address)": {
        "details": "Returns `true` if `account` has been granted `role`."
      },
      "proxiableUUID()": {
        "details": "Implementation of the ERC1822 {proxiableUUID} function. This returns the storage slot used by the implementation. It is used to validate the implementation's compatibility when performing an upgrade. IMPORTANT: A proxy pointing at a proxiable contract should not be considered proxiable itself, because this risks bricking a proxy that upgrades to it, by delegating to itself until out of gas. Thus it is critical that this function revert if invoked through a proxy. This is guaranteed by the `notDelegated` modifier."
      },
      "renounceRole(bytes32,address)": {
        "details": "Revokes `role` from the calling account. Roles are often managed via {grantRole} and {revokeRole}: this function's purpose is to provide a mechanism for accounts to lose their privileges if they are compromised (such as when a trusted device is misplaced). If the calling account had been revoked `role`, emits a {RoleRevoked} event. Requirements: - the caller must be `account`. May emit a {RoleRevoked} event."
      },
      "revokeRole(bytes32,address)": {
        "details": "Revokes `role` from `account`. If `account` had been granted `role`, emits a {RoleRevoked} event. Requirements: - the caller must have ``role``'s admin role. May emit a {RoleRevoked} event."
      },
      "supportsInterface(bytes4)": {
        "details": "See {IERC165-supportsInterface}."
      },
      "upgradeTo(address)": {
        "details": "Upgrade the implementation of the proxy to `newImplementation`. Calls {_authorizeUpgrade}. Emits an {Upgraded} event."
      },
      "upgradeToAndCall(address,bytes)": {
        "details": "Upgrade the implementation of the proxy to `newImplementation`, and subsequently execute the function call encoded in `data`. Calls {_authorizeUpgrade}. Emits an {Upgraded} event."
      }
    },
    "version": 1
  },
  "userdoc": {
    "kind": "user",
    "methods": {},
    "version": 1
  },
  "storageLayout": {
    "storage": [
      {
        "astId": 804,
        "contract": "contracts/dai/StrategyEquilibriaDaiGDai.sol:StrategyEquilibriaDaiGDai",
        "label": "_initialized",
        "offset": 0,
        "slot": "0",
        "type": "t_uint8"
      },
      {
        "astId": 807,
        "contract": "contracts/dai/StrategyEquilibriaDaiGDai.sol:StrategyEquilibriaDaiGDai",
        "label": "_initializing",
        "offset": 1,
        "slot": "0",
        "type": "t_bool"
      },
      {
        "astId": 1427,
        "contract": "contracts/dai/StrategyEquilibriaDaiGDai.sol:StrategyEquilibriaDaiGDai",
        "label": "__gap",
        "offset": 0,
        "slot": "1",
        "type": "t_array(t_uint256)50_storage"
      },
      {
        "astId": 1706,
        "contract": "contracts/dai/StrategyEquilibriaDaiGDai.sol:StrategyEquilibriaDaiGDai",
        "label": "__gap",
        "offset": 0,
        "slot": "51",
        "type": "t_array(t_uint256)50_storage"
      },
      {
        "astId": 39,
        "contract": "contracts/dai/StrategyEquilibriaDaiGDai.sol:StrategyEquilibriaDaiGDai",
        "label": "_roles",
        "offset": 0,
        "slot": "101",
        "type": "t_mapping(t_bytes32,t_struct(RoleData)34_storage)"
      },
      {
        "astId": 334,
        "contract": "contracts/dai/StrategyEquilibriaDaiGDai.sol:StrategyEquilibriaDaiGDai",
        "label": "__gap",
        "offset": 0,
        "slot": "102",
        "type": "t_array(t_uint256)49_storage"
      },
      {
        "astId": 786,
        "contract": "contracts/dai/StrategyEquilibriaDaiGDai.sol:StrategyEquilibriaDaiGDai",
        "label": "__gap",
        "offset": 0,
        "slot": "151",
        "type": "t_array(t_uint256)50_storage"
      },
      {
        "astId": 1101,
        "contract": "contracts/dai/StrategyEquilibriaDaiGDai.sol:StrategyEquilibriaDaiGDai",
        "label": "__gap",
        "offset": 0,
        "slot": "201",
        "type": "t_array(t_uint256)50_storage"
      },
      {
        "astId": 6537,
        "contract": "contracts/dai/StrategyEquilibriaDaiGDai.sol:StrategyEquilibriaDaiGDai",
        "label": "portfolioManager",
        "offset": 0,
        "slot": "251",
        "type": "t_address"
      },
      {
        "astId": 6539,
        "contract": "contracts/dai/StrategyEquilibriaDaiGDai.sol:StrategyEquilibriaDaiGDai",
        "label": "swapSlippageBP",
        "offset": 0,
        "slot": "252",
        "type": "t_uint256"
      },
      {
        "astId": 6541,
        "contract": "contracts/dai/StrategyEquilibriaDaiGDai.sol:StrategyEquilibriaDaiGDai",
        "label": "navSlippageBP",
        "offset": 0,
        "slot": "253",
        "type": "t_uint256"
      },
      {
        "astId": 6543,
        "contract": "contracts/dai/StrategyEquilibriaDaiGDai.sol:StrategyEquilibriaDaiGDai",
        "label": "stakeSlippageBP",
        "offset": 0,
        "slot": "254",
        "type": "t_uint256"
      },
      {
        "astId": 6928,
        "contract": "contracts/dai/StrategyEquilibriaDaiGDai.sol:StrategyEquilibriaDaiGDai",
        "label": "__gap",
        "offset": 0,
        "slot": "255",
        "type": "t_array(t_uint256)46_storage"
      },
      {
        "astId": 7042,
        "contract": "contracts/dai/StrategyEquilibriaDaiGDai.sol:StrategyEquilibriaDaiGDai",
        "label": "dai",
        "offset": 0,
        "slot": "301",
        "type": "t_contract(IERC20)2662"
      },
      {
        "astId": 7045,
        "contract": "contracts/dai/StrategyEquilibriaDaiGDai.sol:StrategyEquilibriaDaiGDai",
        "label": "pt",
        "offset": 0,
        "slot": "302",
        "type": "t_contract(IERC20)2662"
      },
      {
        "astId": 7048,
        "contract": "contracts/dai/StrategyEquilibriaDaiGDai.sol:StrategyEquilibriaDaiGDai",
        "label": "yt",
        "offset": 0,
        "slot": "303",
        "type": "t_contract(IERC20)2662"
      },
      {
        "astId": 7051,
        "contract": "contracts/dai/StrategyEquilibriaDaiGDai.sol:StrategyEquilibriaDaiGDai",
        "label": "pendleRouter",
        "offset": 0,
        "slot": "304",
        "type": "t_contract(IPendleRouter)3907"
      },
      {
        "astId": 7054,
        "contract": "contracts/dai/StrategyEquilibriaDaiGDai.sol:StrategyEquilibriaDaiGDai",
        "label": "sy",
        "offset": 0,
        "slot": "305",
        "type": "t_contract(IPendleStargateLPSY)3959"
      },
      {
        "astId": 7057,
        "contract": "contracts/dai/StrategyEquilibriaDaiGDai.sol:StrategyEquilibriaDaiGDai",
        "label": "lp",
        "offset": 0,
        "slot": "306",
        "type": "t_contract(IPendleMarket)3994"
      },
      {
        "astId": 7060,
        "contract": "contracts/dai/StrategyEquilibriaDaiGDai.sol:StrategyEquilibriaDaiGDai",
        "label": "ptOracle",
        "offset": 0,
        "slot": "307",
        "type": "t_contract(IPendlePtOracle)4028"
      },
      {
        "astId": 7063,
        "contract": "contracts/dai/StrategyEquilibriaDaiGDai.sol:StrategyEquilibriaDaiGDai",
        "label": "gDai",
        "offset": 0,
        "slot": "308",
        "type": "t_contract(IGToken)4144"
      },
      {
        "astId": 7066,
        "contract": "contracts/dai/StrategyEquilibriaDaiGDai.sol:StrategyEquilibriaDaiGDai",
        "label": "uniswapV3Router",
        "offset": 0,
        "slot": "309",
        "type": "t_contract(ISwapRouter)4440"
      },
      {
        "astId": 7068,
        "contract": "contracts/dai/StrategyEquilibriaDaiGDai.sol:StrategyEquilibriaDaiGDai",
        "label": "thresholdBalancePercent",
        "offset": 0,
        "slot": "310",
        "type": "t_uint256"
      },
      {
        "astId": 7071,
        "contract": "contracts/dai/StrategyEquilibriaDaiGDai.sol:StrategyEquilibriaDaiGDai",
        "label": "pendleBooster",
        "offset": 0,
        "slot": "311",
        "type": "t_contract(IPendleBooster)3701"
      },
      {
        "astId": 7074,
        "contract": "contracts/dai/StrategyEquilibriaDaiGDai.sol:StrategyEquilibriaDaiGDai",
        "label": "baseRewardPool",
        "offset": 0,
        "slot": "312",
        "type": "t_contract(IBaseRewardPool)3721"
      },
      {
        "astId": 7077,
        "contract": "contracts/dai/StrategyEquilibriaDaiGDai.sol:StrategyEquilibriaDaiGDai",
        "label": "eqbZap",
        "offset": 0,
        "slot": "313",
        "type": "t_contract(IEqbZap)3729"
      }
    ],
    "types": {
      "t_address": {
        "encoding": "inplace",
        "label": "address",
        "numberOfBytes": "20"
      },
      "t_array(t_uint256)46_storage": {
        "base": "t_uint256",
        "encoding": "inplace",
        "label": "uint256[46]",
        "numberOfBytes": "1472"
      },
      "t_array(t_uint256)49_storage": {
        "base": "t_uint256",
        "encoding": "inplace",
        "label": "uint256[49]",
        "numberOfBytes": "1568"
      },
      "t_array(t_uint256)50_storage": {
        "base": "t_uint256",
        "encoding": "inplace",
        "label": "uint256[50]",
        "numberOfBytes": "1600"
      },
      "t_bool": {
        "encoding": "inplace",
        "label": "bool",
        "numberOfBytes": "1"
      },
      "t_bytes32": {
        "encoding": "inplace",
        "label": "bytes32",
        "numberOfBytes": "32"
      },
      "t_contract(IBaseRewardPool)3721": {
        "encoding": "inplace",
        "label": "contract IBaseRewardPool",
        "numberOfBytes": "20"
      },
      "t_contract(IERC20)2662": {
        "encoding": "inplace",
        "label": "contract IERC20",
        "numberOfBytes": "20"
      },
      "t_contract(IEqbZap)3729": {
        "encoding": "inplace",
        "label": "contract IEqbZap",
        "numberOfBytes": "20"
      },
      "t_contract(IGToken)4144": {
        "encoding": "inplace",
        "label": "contract IGToken",
        "numberOfBytes": "20"
      },
      "t_contract(IPendleBooster)3701": {
        "encoding": "inplace",
        "label": "contract IPendleBooster",
        "numberOfBytes": "20"
      },
      "t_contract(IPendleMarket)3994": {
        "encoding": "inplace",
        "label": "contract IPendleMarket",
        "numberOfBytes": "20"
      },
      "t_contract(IPendlePtOracle)4028": {
        "encoding": "inplace",
        "label": "contract IPendlePtOracle",
        "numberOfBytes": "20"
      },
      "t_contract(IPendleRouter)3907": {
        "encoding": "inplace",
        "label": "contract IPendleRouter",
        "numberOfBytes": "20"
      },
      "t_contract(IPendleStargateLPSY)3959": {
        "encoding": "inplace",
        "label": "contract IPendleStargateLPSY",
        "numberOfBytes": "20"
      },
      "t_contract(ISwapRouter)4440": {
        "encoding": "inplace",
        "label": "contract ISwapRouter",
        "numberOfBytes": "20"
      },
      "t_mapping(t_address,t_bool)": {
        "encoding": "mapping",
        "key": "t_address",
        "label": "mapping(address => bool)",
        "numberOfBytes": "32",
        "value": "t_bool"
      },
      "t_mapping(t_bytes32,t_struct(RoleData)34_storage)": {
        "encoding": "mapping",
        "key": "t_bytes32",
        "label": "mapping(bytes32 => struct AccessControlUpgradeable.RoleData)",
        "numberOfBytes": "32",
        "value": "t_struct(RoleData)34_storage"
      },
      "t_struct(RoleData)34_storage": {
        "encoding": "inplace",
        "label": "struct AccessControlUpgradeable.RoleData",
        "members": [
          {
            "astId": 31,
            "contract": "contracts/dai/StrategyEquilibriaDaiGDai.sol:StrategyEquilibriaDaiGDai",
            "label": "members",
            "offset": 0,
            "slot": "0",
            "type": "t_mapping(t_address,t_bool)"
          },
          {
            "astId": 33,
            "contract": "contracts/dai/StrategyEquilibriaDaiGDai.sol:StrategyEquilibriaDaiGDai",
            "label": "adminRole",
            "offset": 0,
            "slot": "1",
            "type": "t_bytes32"
          }
        ],
        "numberOfBytes": "64"
      },
      "t_uint256": {
        "encoding": "inplace",
        "label": "uint256",
        "numberOfBytes": "32"
      },
      "t_uint8": {
        "encoding": "inplace",
        "label": "uint8",
        "numberOfBytes": "1"
      }
    }
  }
}