{
  "address": "0xC24E60BBc4f7dbFd8076D8aC87896E14499A13Ca",
  "abi": [
    {
      "inputs": [],
      "stateMutability": "nonpayable",
      "type": "constructor"
    },
    {
      "anonymous": false,
      "inputs": [
        {
          "indexed": false,
          "internalType": "address",
          "name": "previousAdmin",
          "type": "address"
        },
        {
          "indexed": false,
          "internalType": "address",
          "name": "newAdmin",
          "type": "address"
        }
      ],
      "name": "AdminChanged",
      "type": "event"
    },
    {
      "anonymous": false,
      "inputs": [
        {
          "indexed": true,
          "internalType": "address",
          "name": "beacon",
          "type": "address"
        }
      ],
      "name": "BeaconUpgraded",
      "type": "event"
    },
    {
      "anonymous": false,
      "inputs": [
        {
          "indexed": false,
          "internalType": "uint8",
          "name": "version",
          "type": "uint8"
        }
      ],
      "name": "Initialized",
      "type": "event"
    },
    {
      "anonymous": false,
      "inputs": [
        {
          "indexed": true,
          "internalType": "bytes32",
          "name": "role",
          "type": "bytes32"
        },
        {
          "indexed": true,
          "internalType": "bytes32",
          "name": "previousAdminRole",
          "type": "bytes32"
        },
        {
          "indexed": true,
          "internalType": "bytes32",
          "name": "newAdminRole",
          "type": "bytes32"
        }
      ],
      "name": "RoleAdminChanged",
      "type": "event"
    },
    {
      "anonymous": false,
      "inputs": [
        {
          "indexed": true,
          "internalType": "bytes32",
          "name": "role",
          "type": "bytes32"
        },
        {
          "indexed": true,
          "internalType": "address",
          "name": "account",
          "type": "address"
        },
        {
          "indexed": true,
          "internalType": "address",
          "name": "sender",
          "type": "address"
        }
      ],
      "name": "RoleGranted",
      "type": "event"
    },
    {
      "anonymous": false,
      "inputs": [
        {
          "indexed": true,
          "internalType": "bytes32",
          "name": "role",
          "type": "bytes32"
        },
        {
          "indexed": true,
          "internalType": "address",
          "name": "account",
          "type": "address"
        },
        {
          "indexed": true,
          "internalType": "address",
          "name": "sender",
          "type": "address"
        }
      ],
      "name": "RoleRevoked",
      "type": "event"
    },
    {
      "anonymous": false,
      "inputs": [
        {
          "indexed": true,
          "internalType": "address",
          "name": "implementation",
          "type": "address"
        }
      ],
      "name": "Upgraded",
      "type": "event"
    },
    {
      "inputs": [],
      "name": "DEFAULT_ADMIN_ROLE",
      "outputs": [
        {
          "internalType": "bytes32",
          "name": "",
          "type": "bytes32"
        }
      ],
      "stateMutability": "view",
      "type": "function"
    },
    {
      "inputs": [],
      "name": "STRATEGY_ROLE",
      "outputs": [
        {
          "internalType": "bytes32",
          "name": "",
          "type": "bytes32"
        }
      ],
      "stateMutability": "view",
      "type": "function"
    },
    {
      "inputs": [],
      "name": "UPGRADER_ROLE",
      "outputs": [
        {
          "internalType": "bytes32",
          "name": "",
          "type": "bytes32"
        }
      ],
      "stateMutability": "view",
      "type": "function"
    },
    {
      "inputs": [],
      "name": "aavePool",
      "outputs": [
        {
          "internalType": "contract IPool",
          "name": "",
          "type": "address"
        }
      ],
      "stateMutability": "view",
      "type": "function"
    },
    {
      "inputs": [],
      "name": "aavePoolAddressesProvider",
      "outputs": [
        {
          "internalType": "contract IPoolAddressesProvider",
          "name": "",
          "type": "address"
        }
      ],
      "stateMutability": "view",
      "type": "function"
    },
    {
      "inputs": [],
      "name": "balances",
      "outputs": [
        {
          "components": [
            {
              "internalType": "address",
              "name": "token",
              "type": "address"
            },
            {
              "internalType": "uint256",
              "name": "amountUSD",
              "type": "uint256"
            },
            {
              "internalType": "uint256",
              "name": "amount",
              "type": "uint256"
            },
            {
              "internalType": "bool",
              "name": "borrowed",
              "type": "bool"
            }
          ],
          "internalType": "struct IHedgeStrategy.BalanceItem[]",
          "name": "",
          "type": "tuple[]"
        }
      ],
      "stateMutability": "view",
      "type": "function"
    },
    {
      "inputs": [
        {
          "internalType": "enum Method",
          "name": "method",
          "type": "uint8"
        },
        {
          "internalType": "uint256",
          "name": "amount",
          "type": "uint256"
        }
      ],
      "name": "calcDeltas",
      "outputs": [],
      "stateMutability": "nonpayable",
      "type": "function"
    },
    {
      "inputs": [],
      "name": "currentAmounts",
      "outputs": [
        {
          "components": [
            {
              "internalType": "uint256",
              "name": "collateralAsset",
              "type": "uint256"
            },
            {
              "internalType": "uint256",
              "name": "borrowToken",
              "type": "uint256"
            },
            {
              "internalType": "uint256",
              "name": "poolToken",
              "type": "uint256"
            },
            {
              "internalType": "uint256",
              "name": "poolWbtc",
              "type": "uint256"
            },
            {
              "internalType": "uint256",
              "name": "freeWbtc",
              "type": "uint256"
            },
            {
              "internalType": "uint256",
              "name": "freeToken",
              "type": "uint256"
            }
          ],
          "internalType": "struct Amounts",
          "name": "",
          "type": "tuple"
        }
      ],
      "stateMutability": "view",
      "type": "function"
    },
    {
      "inputs": [],
      "name": "currentLiquidity",
      "outputs": [
        {
          "components": [
            {
              "internalType": "int256",
              "name": "collateralAsset",
              "type": "int256"
            },
            {
              "internalType": "int256",
              "name": "borrowToken",
              "type": "int256"
            },
            {
              "internalType": "int256",
              "name": "poolToken",
              "type": "int256"
            },
            {
              "internalType": "int256",
              "name": "poolWbtc",
              "type": "int256"
            },
            {
              "internalType": "int256",
              "name": "freeWbtc",
              "type": "int256"
            },
            {
              "internalType": "int256",
              "name": "freeToken",
              "type": "int256"
            }
          ],
          "internalType": "struct Liquidity",
          "name": "",
          "type": "tuple"
        }
      ],
      "stateMutability": "view",
      "type": "function"
    },
    {
      "inputs": [
        {
          "internalType": "int24",
          "name": "lowerTick",
          "type": "int24"
        },
        {
          "internalType": "int24",
          "name": "upperTick",
          "type": "int24"
        },
        {
          "internalType": "uint160",
          "name": "sqrtRatio",
          "type": "uint160"
        }
      ],
      "name": "getPoolAnotherPrice",
      "outputs": [
        {
          "internalType": "uint256",
          "name": "",
          "type": "uint256"
        }
      ],
      "stateMutability": "nonpayable",
      "type": "function"
    },
    {
      "inputs": [
        {
          "internalType": "int24",
          "name": "lowerTick",
          "type": "int24"
        },
        {
          "internalType": "int24",
          "name": "upperTick",
          "type": "int24"
        },
        {
          "internalType": "uint160",
          "name": "sqrtRatio",
          "type": "uint160"
        }
      ],
      "name": "getPoolPrice",
      "outputs": [
        {
          "internalType": "uint256",
          "name": "",
          "type": "uint256"
        }
      ],
      "stateMutability": "nonpayable",
      "type": "function"
    },
    {
      "inputs": [
        {
          "internalType": "uint160",
          "name": "sqrtRatio",
          "type": "uint160"
        }
      ],
      "name": "getPriceBySqrtRatio",
      "outputs": [
        {
          "internalType": "uint256",
          "name": "",
          "type": "uint256"
        }
      ],
      "stateMutability": "nonpayable",
      "type": "function"
    },
    {
      "inputs": [
        {
          "internalType": "int24",
          "name": "tick",
          "type": "int24"
        }
      ],
      "name": "getPriceByTick",
      "outputs": [
        {
          "internalType": "uint256",
          "name": "",
          "type": "uint256"
        }
      ],
      "stateMutability": "nonpayable",
      "type": "function"
    },
    {
      "inputs": [
        {
          "internalType": "bytes32",
          "name": "role",
          "type": "bytes32"
        }
      ],
      "name": "getRoleAdmin",
      "outputs": [
        {
          "internalType": "bytes32",
          "name": "",
          "type": "bytes32"
        }
      ],
      "stateMutability": "view",
      "type": "function"
    },
    {
      "inputs": [
        {
          "internalType": "bytes32",
          "name": "role",
          "type": "bytes32"
        },
        {
          "internalType": "address",
          "name": "account",
          "type": "address"
        }
      ],
      "name": "grantRole",
      "outputs": [],
      "stateMutability": "nonpayable",
      "type": "function"
    },
    {
      "inputs": [
        {
          "internalType": "bytes32",
          "name": "role",
          "type": "bytes32"
        },
        {
          "internalType": "address",
          "name": "account",
          "type": "address"
        }
      ],
      "name": "hasRole",
      "outputs": [
        {
          "internalType": "bool",
          "name": "",
          "type": "bool"
        }
      ],
      "stateMutability": "view",
      "type": "function"
    },
    {
      "inputs": [],
      "name": "healthFactor",
      "outputs": [
        {
          "internalType": "uint256",
          "name": "",
          "type": "uint256"
        }
      ],
      "stateMutability": "view",
      "type": "function"
    },
    {
      "inputs": [],
      "name": "initialize",
      "outputs": [],
      "stateMutability": "nonpayable",
      "type": "function"
    },
    {
      "inputs": [],
      "name": "liquidationThreshold",
      "outputs": [
        {
          "internalType": "uint256",
          "name": "",
          "type": "uint256"
        }
      ],
      "stateMutability": "view",
      "type": "function"
    },
    {
      "inputs": [
        {
          "components": [
            {
              "internalType": "int256",
              "name": "K1",
              "type": "int256"
            },
            {
              "internalType": "int256",
              "name": "K2",
              "type": "int256"
            },
            {
              "internalType": "int256",
              "name": "amount",
              "type": "int256"
            },
            {
              "components": [
                {
                  "internalType": "int256",
                  "name": "collateralAsset",
                  "type": "int256"
                },
                {
                  "internalType": "int256",
                  "name": "borrowToken",
                  "type": "int256"
                },
                {
                  "internalType": "int256",
                  "name": "poolToken",
                  "type": "int256"
                },
                {
                  "internalType": "int256",
                  "name": "poolWbtc",
                  "type": "int256"
                },
                {
                  "internalType": "int256",
                  "name": "freeWbtc",
                  "type": "int256"
                },
                {
                  "internalType": "int256",
                  "name": "freeToken",
                  "type": "int256"
                }
              ],
              "internalType": "struct Liquidity",
              "name": "liq",
              "type": "tuple"
            },
            {
              "internalType": "uint256",
              "name": "tokenAssetSlippagePercent",
              "type": "uint256"
            }
          ],
          "internalType": "struct CalcContext2",
          "name": "calcContext2",
          "type": "tuple"
        }
      ],
      "name": "liquidityToActions",
      "outputs": [
        {
          "components": [
            {
              "internalType": "uint256",
              "name": "actionType",
              "type": "uint256"
            },
            {
              "internalType": "uint256",
              "name": "amount",
              "type": "uint256"
            },
            {
              "internalType": "uint256",
              "name": "slippagePercent",
              "type": "uint256"
            }
          ],
          "internalType": "struct Action2[]",
          "name": "",
          "type": "tuple[]"
        },
        {
          "internalType": "uint256",
          "name": "",
          "type": "uint256"
        }
      ],
      "stateMutability": "view",
      "type": "function"
    },
    {
      "inputs": [],
      "name": "netAssetValue",
      "outputs": [
        {
          "internalType": "uint256",
          "name": "",
          "type": "uint256"
        }
      ],
      "stateMutability": "view",
      "type": "function"
    },
    {
      "inputs": [],
      "name": "nonfungiblePositionManager",
      "outputs": [
        {
          "internalType": "contract INonfungiblePositionManager",
          "name": "",
          "type": "address"
        }
      ],
      "stateMutability": "view",
      "type": "function"
    },
    {
      "inputs": [],
      "name": "oracleWbtc",
      "outputs": [
        {
          "internalType": "contract IPriceFeed",
          "name": "",
          "type": "address"
        }
      ],
      "stateMutability": "view",
      "type": "function"
    },
    {
      "inputs": [],
      "name": "oracleWeth",
      "outputs": [
        {
          "internalType": "contract IPriceFeed",
          "name": "",
          "type": "address"
        }
      ],
      "stateMutability": "view",
      "type": "function"
    },
    {
      "inputs": [],
      "name": "pool",
      "outputs": [
        {
          "internalType": "contract IUniswapV3Pool",
          "name": "",
          "type": "address"
        }
      ],
      "stateMutability": "view",
      "type": "function"
    },
    {
      "inputs": [],
      "name": "proxiableUUID",
      "outputs": [
        {
          "internalType": "bytes32",
          "name": "",
          "type": "bytes32"
        }
      ],
      "stateMutability": "view",
      "type": "function"
    },
    {
      "inputs": [
        {
          "internalType": "bytes32",
          "name": "role",
          "type": "bytes32"
        },
        {
          "internalType": "address",
          "name": "account",
          "type": "address"
        }
      ],
      "name": "renounceRole",
      "outputs": [],
      "stateMutability": "nonpayable",
      "type": "function"
    },
    {
      "inputs": [
        {
          "internalType": "bytes32",
          "name": "role",
          "type": "bytes32"
        },
        {
          "internalType": "address",
          "name": "account",
          "type": "address"
        }
      ],
      "name": "revokeRole",
      "outputs": [],
      "stateMutability": "nonpayable",
      "type": "function"
    },
    {
      "inputs": [
        {
          "internalType": "address payable",
          "name": "_strategy",
          "type": "address"
        }
      ],
      "name": "setStrategy",
      "outputs": [],
      "stateMutability": "nonpayable",
      "type": "function"
    },
    {
      "inputs": [],
      "name": "strategy",
      "outputs": [
        {
          "internalType": "contract StrategyWethWbtc",
          "name": "",
          "type": "address"
        }
      ],
      "stateMutability": "view",
      "type": "function"
    },
    {
      "inputs": [
        {
          "internalType": "bytes4",
          "name": "interfaceId",
          "type": "bytes4"
        }
      ],
      "name": "supportsInterface",
      "outputs": [
        {
          "internalType": "bool",
          "name": "",
          "type": "bool"
        }
      ],
      "stateMutability": "view",
      "type": "function"
    },
    {
      "inputs": [],
      "name": "tokenAssetSlippagePercent",
      "outputs": [
        {
          "internalType": "uint256",
          "name": "",
          "type": "uint256"
        }
      ],
      "stateMutability": "view",
      "type": "function"
    },
    {
      "inputs": [
        {
          "internalType": "address",
          "name": "newImplementation",
          "type": "address"
        }
      ],
      "name": "upgradeTo",
      "outputs": [],
      "stateMutability": "nonpayable",
      "type": "function"
    },
    {
      "inputs": [
        {
          "internalType": "address",
          "name": "newImplementation",
          "type": "address"
        },
        {
          "internalType": "bytes",
          "name": "data",
          "type": "bytes"
        }
      ],
      "name": "upgradeToAndCall",
      "outputs": [],
      "stateMutability": "payable",
      "type": "function"
    },
    {
      "inputs": [
        {
          "internalType": "uint256",
          "name": "liquidity",
          "type": "uint256"
        }
      ],
      "name": "usdToWbtc",
      "outputs": [
        {
          "internalType": "uint256",
          "name": "",
          "type": "uint256"
        }
      ],
      "stateMutability": "view",
      "type": "function"
    },
    {
      "inputs": [
        {
          "internalType": "uint256",
          "name": "liquidity",
          "type": "uint256"
        }
      ],
      "name": "usdToWeth",
      "outputs": [
        {
          "internalType": "uint256",
          "name": "",
          "type": "uint256"
        }
      ],
      "stateMutability": "view",
      "type": "function"
    },
    {
      "inputs": [],
      "name": "wbtc",
      "outputs": [
        {
          "internalType": "contract IERC20",
          "name": "",
          "type": "address"
        }
      ],
      "stateMutability": "view",
      "type": "function"
    },
    {
      "inputs": [],
      "name": "wbtcDm",
      "outputs": [
        {
          "internalType": "uint256",
          "name": "",
          "type": "uint256"
        }
      ],
      "stateMutability": "view",
      "type": "function"
    },
    {
      "inputs": [
        {
          "internalType": "uint256",
          "name": "amount",
          "type": "uint256"
        }
      ],
      "name": "wbtcToUsd",
      "outputs": [
        {
          "internalType": "uint256",
          "name": "",
          "type": "uint256"
        }
      ],
      "stateMutability": "view",
      "type": "function"
    },
    {
      "inputs": [],
      "name": "weth",
      "outputs": [
        {
          "internalType": "contract IERC20",
          "name": "",
          "type": "address"
        }
      ],
      "stateMutability": "view",
      "type": "function"
    },
    {
      "inputs": [],
      "name": "wethDm",
      "outputs": [
        {
          "internalType": "uint256",
          "name": "",
          "type": "uint256"
        }
      ],
      "stateMutability": "view",
      "type": "function"
    },
    {
      "inputs": [
        {
          "internalType": "uint256",
          "name": "amount",
          "type": "uint256"
        }
      ],
      "name": "wethToUsd",
      "outputs": [
        {
          "internalType": "uint256",
          "name": "",
          "type": "uint256"
        }
      ],
      "stateMutability": "view",
      "type": "function"
    }
  ],
  "numDeployments": 1,
  "solcInputHash": "3c06fdcdf9fca8d42569cd7a26a59052",
  "bytecode": "0x60a06040523060601b6080523480156200001857600080fd5b50600054610100900460ff16158080156200003a5750600054600160ff909116105b806200006a575062000057306200014460201b62002a141760201c565b1580156200006a575060005460ff166001145b620000d25760405162461bcd60e51b815260206004820152602e60248201527f496e697469616c697a61626c653a20636f6e747261637420697320616c72656160448201526d191e481a5b9a5d1a585b1a5e995960921b606482015260840160405180910390fd5b6000805460ff191660011790558015620000f6576000805461ff0019166101001790555b80156200013d576000805461ff0019169055604051600181527f7f26b83ff96e1f2b6a682f133852f6798a09c465da95921460cefb38474024989060200160405180910390a15b5062000153565b6001600160a01b03163b151590565b60805160601c6152336200018e600039600081816115240152818161156401528181611b5e01528181611b9e0152611c2d01526152336000f3fe6080604052600436106102515760003560e01c806369e4e00511610139578063a70f5afa116100b6578063d547741f1161007a578063d547741f1461072f578063d61629821461074f578063dc2cddf91461076f578063e18bdc9e14610786578063ece16e73146107a6578063f72c0d8b146107bc57600080fd5b8063a70f5afa14610657578063a8c62e7614610677578063b29d3e5014610697578063b44a2722146106f8578063cb987b4e1461071957600080fd5b8063a03e4bc3116100fd578063a03e4bc3146105d8578063a217fddf146105ed578063a3673b3814610602578063a6d236ac14610617578063a6fc196e1461063757600080fd5b806369e4e005146105325780637bb98a68146105535780637d9f30e2146105755780638129fc1c146105a357806391d14854146105b857600080fd5b80633659cfe6116101d257806346caf2ae1161019657806346caf2ae1461047357806348ea3acf146104955780634f1ef286146104b657806352d1902d146104c9578063580b7c2e146104de5780636231f6351461051257600080fd5b80633659cfe6146103db57806336e0d541146103fb5780633cdc53891461041c5780633fc8cef31461043c5780634031234c1461045c57600080fd5b806326cef2101161021957806326cef2101461033b578063291a16e21461035b5780632f2ff15d1461037b57806333a100ca1461039b57806336568abe146103bb57600080fd5b806301ffc9a71461025657806316f0115b1461028b57806322841f01146102c457806324127446146102e9578063248a9ca31461030b575b600080fd5b34801561026257600080fd5b506102766102713660046147fe565b6107f0565b60405190151581526020015b60405180910390f35b34801561029757600080fd5b50610100546102ac906001600160a01b031681565b6040516001600160a01b039091168152602001610282565b3480156102d057600080fd5b506102db6101075481565b604051908152602001610282565b3480156102f557600080fd5b50610309610304366004614828565b610827565b005b34801561031757600080fd5b506102db61032636600461479c565b60009081526065602052604090206001015490565b34801561034757600080fd5b506102db610356366004614892565b610c32565b34801561036757600080fd5b506102db61037636600461479c565b610cbf565b34801561038757600080fd5b506103096103963660046147ce565b610d5e565b3480156103a757600080fd5b506103096103b63660046145cb565b610d88565b3480156103c757600080fd5b506103096103d63660046147ce565b61149b565b3480156103e757600080fd5b506103096103f63660046145cb565b611519565b34801561040757600080fd5b50610103546102ac906001600160a01b031681565b34801561042857600080fd5b5060fd546102ac906001600160a01b031681565b34801561044857600080fd5b5060fc546102ac906001600160a01b031681565b34801561046857600080fd5b506102db6101065481565b34801561047f57600080fd5b506104886115f9565b6040516102829190614e61565b3480156104a157600080fd5b50610104546102ac906001600160a01b031681565b6103096104c4366004614605565b611b53565b3480156104d557600080fd5b506102db611c20565b3480156104ea57600080fd5b506102db7f928286c473ded01ff8bf61a1986f14a0579066072fa8261442d9fea514d93a4c81565b34801561051e57600080fd5b506102db61052d36600461479c565b611cd3565b34801561053e57600080fd5b50610102546102ac906001600160a01b031681565b34801561055f57600080fd5b50610568611d35565b6040516102829190614c68565b34801561058157600080fd5b506105956105903660046148dd565b612024565b604051610282929190614c08565b3480156105af57600080fd5b506103096121e4565b3480156105c457600080fd5b506102766105d33660046147ce565b612331565b3480156105e457600080fd5b506102ac61235c565b3480156105f957600080fd5b506102db600081565b34801561060e57600080fd5b506102db61237a565b34801561062357600080fd5b506102db61063236600461479c565b6123cf565b34801561064357600080fd5b506102db6106523660046145cb565b612470565b34801561066357600080fd5b506102db610672366004614858565b6124af565b34801561068357600080fd5b5060fb546102ac906001600160a01b031681565b3480156106a357600080fd5b506106ac612552565b6040516102829190600060c082019050825182526020830151602083015260408301516040830152606083015160608301526080830151608083015260a083015160a083015292915050565b34801561070457600080fd5b50610101546102ac906001600160a01b031681565b34801561072557600080fd5b506102db60ff5481565b34801561073b57600080fd5b5061030961074a3660046147ce565b6128ce565b34801561075b57600080fd5b506102db61076a366004614892565b6128f3565b34801561077b57600080fd5b506102db6101055481565b34801561079257600080fd5b506102db6107a136600461479c565b6129ba565b3480156107b257600080fd5b506102db60fe5481565b3480156107c857600080fd5b506102db7f189ab7a9244df0848122154315af71fe140f3db0fe014031783b0946b8c9d2e381565b60006001600160e01b03198216637965db0b60e01b148061082157506301ffc9a760e01b6001600160e01b03198316145b92915050565b6108517f928286c473ded01ff8bf61a1986f14a0579066072fa8261442d9fea514d93a4c33612331565b6108a25760405162461bcd60e51b815260206004820152601b60248201527f5265737472696374656420746f2053545241544547595f524f4c45000000000060448201526064015b60405180910390fd5b60006108ac6115f9565b90506108df6040518060400160405280600c81526020016b3432b0b63a342330b1ba37b960a11b81525061010754612a23565b610918604051806040016040528060148152602001731b1a5c5d5a59185d1a5bdb951a1c995cda1bdb1960621b81525061010654612a23565b60006109476101065461010754670de0b6b3a76400006109389190614fb1565b6109429190614f9d565b612a68565b90506000610965610956612ad6565b610942906402540be400614fb1565b90506000600286600281111561097d5761097d61512c565b1415610a5157600061098e8561300e565b90506109b8604051806040016040528060068152602001651b985d955cd960d21b81525082612a23565b60006109c6610942886123cf565b90506109f360405180604001604052806009815260200168185b5bdd5b9d155cd960ba1b81525082612a23565b80821215610a435760405162461bcd60e51b815260206004820152601a60248201527f4e6f7420656e6f756768204e415620666f7220554e5354414b450000000000006044820152606401610899565b610a4c816150e3565b925050505b60008073__$03c27806d1ec061bccdfd5843fc7e43f81$__63437559f96040518060a00160405280888152602001878152602001868152602001898152602001610105548152506040518263ffffffff1660e01b8152600401610ab49190614de7565b60006040518083038186803b158015610acc57600080fd5b505af4158015610ae0573d6000803e3d6000fd5b505050506040513d6000823e601f3d908101601f19168201604052610b0891908101906146ad565b91509150610b1582613065565b600080610b2061235c565b60fb54604051632fe4a15f60e21b81526001600160a01b03918216600482015291169063bf92857c9060240160c06040518083038186803b158015610b6457600080fd5b505afa158015610b78573d6000803e3d6000fd5b505050506040513d601f19601f82011682018060405250810190610b9c9190614a20565b9550509450505050610bc8604051806040016040528060028152602001611add60f21b81525083612a23565b60fb5460405163656bea3560e11b8152600481018390526001600160a01b039091169063cad7d46a90602401600060405180830381600087803b158015610c0e57600080fd5b505af1158015610c22573d6000803e3d6000fd5b5050505050505050505050505050565b600080610c46610c41866124af565b6131c2565b90506000610c56610c41866124af565b90506000610c66610c4186612470565b90506000610c748483615037565b610c7e8484614fb1565b610c889190614fb1565b610c928385615037565b610ca7906a52b7d2dcc80cd2e4000000614fb1565b610cb19190614f9d565b9450505050505b9392505050565b6000610821610ccf836064614fb1565b60fe5461010360009054906101000a90046001600160a01b03166001600160a01b03166350d25bcd6040518163ffffffff1660e01b815260040160206040518083038186803b158015610d2157600080fd5b505afa158015610d35573d6000803e3d6000fd5b505050506040513d601f19601f82011682018060405250810190610d5991906147b5565b61321a565b600082815260656020526040902060010154610d7981613239565b610d838383613243565b505050565b610db27f928286c473ded01ff8bf61a1986f14a0579066072fa8261442d9fea514d93a4c33612331565b610dfe5760405162461bcd60e51b815260206004820152601b60248201527f5265737472696374656420746f2053545241544547595f524f4c4500000000006044820152606401610899565b60fb80546001600160a01b0319166001600160a01b03831690811790915560408051633fc8cef360e01b81529051633fc8cef391600480820192602092909190829003018186803b158015610e5257600080fd5b505afa158015610e66573d6000803e3d6000fd5b505050506040513d601f19601f82011682018060405250810190610e8a91906145e8565b60fc80546001600160a01b0319166001600160a01b0392831617905560fb5460408051633cdc538960e01b815290519190921691633cdc5389916004808301926020929190829003018186803b158015610ee357600080fd5b505afa158015610ef7573d6000803e3d6000fd5b505050506040513d601f19601f82011682018060405250810190610f1b91906145e8565b60fd80546001600160a01b0319166001600160a01b0392831617905560fb546040805163ece16e7360e01b81529051919092169163ece16e73916004808301926020929190829003018186803b158015610f7457600080fd5b505afa158015610f88573d6000803e3d6000fd5b505050506040513d601f19601f82011682018060405250810190610fac91906147b5565b60fe5560fb54604080516365cc3da760e11b815290516001600160a01b039092169163cb987b4e91600480820192602092909190829003018186803b158015610ff457600080fd5b505afa158015611008573d6000803e3d6000fd5b505050506040513d601f19601f8201168201806040525081019061102c91906147b5565b60ff5560fb54604080516369e4e00560e01b815290516001600160a01b03909216916369e4e00591600480820192602092909190829003018186803b15801561107457600080fd5b505afa158015611088573d6000803e3d6000fd5b505050506040513d601f19601f820116820180604052508101906110ac91906145e8565b61010280546001600160a01b0319166001600160a01b0392831617905560fb54604080516336e0d54160e01b8152905191909216916336e0d541916004808301926020929190829003018186803b15801561110657600080fd5b505afa15801561111a573d6000803e3d6000fd5b505050506040513d601f19601f8201168201806040525081019061113e91906145e8565b61010380546001600160a01b0319166001600160a01b0392831617905560fb54604080516348ea3acf60e01b8152905191909216916348ea3acf916004808301926020929190829003018186803b15801561119857600080fd5b505afa1580156111ac573d6000803e3d6000fd5b505050506040513d601f19601f820116820180604052508101906111d091906145e8565b61010480546001600160a01b0319166001600160a01b0392831617905560fb546040805163dc2cddf960e01b81529051919092169163dc2cddf9916004808301926020929190829003018186803b15801561122a57600080fd5b505afa15801561123e573d6000803e3d6000fd5b505050506040513d601f19601f8201168201806040525081019061126291906147b5565b6101055560fb546040805163100c48d360e21b815290516001600160a01b0390921691634031234c91600480820192602092909190829003018186803b1580156112ab57600080fd5b505afa1580156112bf573d6000803e3d6000fd5b505050506040513d601f19601f820116820180604052508101906112e391906147b5565b6101065560fb54604080516322841f0160e01b815290516001600160a01b03909216916322841f0191600480820192602092909190829003018186803b15801561132c57600080fd5b505afa158015611340573d6000803e3d6000fd5b505050506040513d601f19601f8201168201806040525081019061136491906147b5565b6101075560fb54604080516316f0115b60e01b815290516001600160a01b03909216916316f0115b91600480820192602092909190829003018186803b1580156113ad57600080fd5b505afa1580156113c1573d6000803e3d6000fd5b505050506040513d601f19601f820116820180604052508101906113e591906145e8565b61010080546001600160a01b0319166001600160a01b0392831617905560fb5460408051635a25139160e11b81529051919092169163b44a2722916004808301926020929190829003018186803b15801561143f57600080fd5b505afa158015611453573d6000803e3d6000fd5b505050506040513d601f19601f8201168201806040525081019061147791906145e8565b61010180546001600160a01b0319166001600160a01b039290921691909117905550565b6001600160a01b038116331461150b5760405162461bcd60e51b815260206004820152602f60248201527f416363657373436f6e74726f6c3a2063616e206f6e6c792072656e6f756e636560448201526e103937b632b9903337b91039b2b63360891b6064820152608401610899565b61151582826132c9565b5050565b306001600160a01b037f00000000000000000000000000000000000000000000000000000000000000001614156115625760405162461bcd60e51b815260040161089990614d0c565b7f00000000000000000000000000000000000000000000000000000000000000006001600160a01b03166115ab600080516020615193833981519152546001600160a01b031690565b6001600160a01b0316146115d15760405162461bcd60e51b815260040161089990614d58565b6115da81613330565b604080516000808252602082019092526115f69183919061335a565b50565b6116326040518060c001604052806000815260200160008152602001600081526020016000815260200160008152602001600081525090565b6116636040518060400160405280601081526020016f63757272656e744c697175696469747960801b8152506134d4565b60008061166e613517565b91509150600061167d836129ba565b9050600061168a836123cf565b905060008061169761235c565b60fb54604051632fe4a15f60e21b81526001600160a01b03918216600482015291169063bf92857c9060240160c06040518083038186803b1580156116db57600080fd5b505afa1580156116ef573d6000803e3d6000fd5b505050506040513d601f19601f820116820180604052508101906117139190614a20565b50505050915091506064826117289190614f9d565b9150611735606482614f9d565b60fd5460fb546040516370a0823160e01b81526001600160a01b0391821660048201529293506000926117c09291909116906370a082319060240160206040518083038186803b15801561178857600080fd5b505afa15801561179c573d6000803e3d6000fd5b505050506040513d601f19601f8201168201806040525081019061063291906147b5565b60fc5460fb546040516370a0823160e01b81526001600160a01b03918216600482015292935060009261184b9291909116906370a082319060240160206040518083038186803b15801561181357600080fd5b505afa158015611827573d6000803e3d6000fd5b505050506040513d601f19601f820116820180604052508101906107a191906147b5565b604080518082018252600b81526a7762746342616c616e636560a81b602082015260fd5460fb5492516370a0823160e01b81526001600160a01b0393841660048201529394506118f793919216906370a082319060240160206040518083038186803b1580156118ba57600080fd5b505afa1580156118ce573d6000803e3d6000fd5b505050506040513d601f19601f820116820180604052508101906118f291906147b5565b612a23565b6119186040518060600160405280602481526020016151da602491396134d4565b61194c6040518060400160405280601281526020017103837b7b62a37b5b2b71010101010101010160751b81525089612a23565b6119806040518060400160405280601281526020017103837b7b62a37b5b2b72ab9b21010101010160751b81525087612a23565b6119b46040518060400160405280601281526020017103837b7b62bb13a31901010101010101010160751b81525088612a23565b6119e86040518060400160405280601281526020017103837b7b62bb13a31aab9b2101010101010160751b81525086612a23565b611a1c60405180604001604052806012815260200171030b0bb32a1b7b63630ba32b930b62ab9b2160751b81525085612a23565b611a5060405180604001604052806012815260200171030b0bb32a137b93937bbaab9b210101010160751b81525084612a23565b611a846040518060400160405280601281526020017103bb13a31a130b630b731b2aab9b2101010160751b81525083612a23565b611ab86040518060400160405280601281526020017103bb2ba342130b630b731b2aab9b2101010160751b81525082612a23565b611aea604051806040016040528060118152602001702d2d2d2d2d2d2d2d2d2d2d2d2d2d2d2d2d60781b8152506134d4565b6040518060c00160405280611afe86612a68565b8152602001611b0c85612a68565b8152602001611b1a88612a68565b8152602001611b2887612a68565b8152602001611b3684612a68565b8152602001611b4483612a68565b90529998505050505050505050565b306001600160a01b037f0000000000000000000000000000000000000000000000000000000000000000161415611b9c5760405162461bcd60e51b815260040161089990614d0c565b7f00000000000000000000000000000000000000000000000000000000000000006001600160a01b0316611be5600080516020615193833981519152546001600160a01b031690565b6001600160a01b031614611c0b5760405162461bcd60e51b815260040161089990614d58565b611c1482613330565b6115158282600161335a565b6000306001600160a01b037f00000000000000000000000000000000000000000000000000000000000000001614611cc05760405162461bcd60e51b815260206004820152603860248201527f555550535570677261646561626c653a206d757374206e6f742062652063616c60448201527f6c6564207468726f7567682064656c656761746563616c6c00000000000000006064820152608401610899565b5060008051602061519383398151915290565b6000610821611ce3836064614fb1565b60ff5461010460009054906101000a90046001600160a01b03166001600160a01b03166350d25bcd6040518163ffffffff1660e01b815260040160206040518083038186803b158015610d2157600080fd5b60606000611d416115f9565b90506000611d4d612552565b60408051600680825260e0820190925291925060009190816020015b604080516080810182526000808252602080830182905292820181905260608201528252600019909201910181611d69575050604080516080810190915260fc546001600160a01b03168152602085810151929350909190820190611dcd906138ec565b8152602001836020015181526020016001151581525081600081518110611df657611df6615142565b602090810291909101810191909152604080516080810190915260fd546001600160a01b0316815284519091820190611e2e906138ec565b8152835160208201526000604090910152815182906001908110611e5457611e54615142565b6020026020010181905250604051806080016040528060fc60009054906101000a90046001600160a01b03166001600160a01b03168152602001611e9b85604001516138ec565b815260408085015160208301526000910152815182906002908110611ec257611ec2615142565b6020026020010181905250604051806080016040528060fd60009054906101000a90046001600160a01b03166001600160a01b03168152602001611f0985606001516138ec565b8152602001836060015181526020016000151581525081600381518110611f3257611f32615142565b6020026020010181905250604051806080016040528060fd60009054906101000a90046001600160a01b03166001600160a01b03168152602001611f7985608001516138ec565b8152602001836080015181526020016000151581525081600481518110611fa257611fa2615142565b6020026020010181905250604051806080016040528060fc60009054906101000a90046001600160a01b03166001600160a01b03168152602001611fe98560a001516138ec565b81526020018360a001518152602001600015158152508160058151811061201257612012615142565b60209081029190910101529392505050565b6060600080600073__$03c27806d1ec061bccdfd5843fc7e43f81$__63437559f9866040518263ffffffff1660e01b81526004016120629190614de7565b60006040518083038186803b15801561207a57600080fd5b505af415801561208e573d6000803e3d6000fd5b505050506040513d6000823e601f3d908101601f191682016040526120b691908101906146ad565b915091506000825167ffffffffffffffff8111156120d6576120d6615158565b60405190808252806020026020018201604052801561212b57816020015b61211860405180606001604052806000815260200160008152602001600081525090565b8152602001906001900390816120f45790505b50905060005b83518110156121d95783818151811061214c5761214c615142565b60200260200101516020015182828151811061216a5761216a615142565b6020026020010151602001818152505083818151811061218c5761218c615142565b60200260200101516000015160078111156121a9576121a961512c565b8282815181106121bb576121bb615142565b602090810291909101015152806121d181615091565b915050612131565b509590945092505050565b600054610100900460ff16158080156122045750600054600160ff909116105b8061221e5750303b15801561221e575060005460ff166001145b6122815760405162461bcd60e51b815260206004820152602e60248201527f496e697469616c697a61626c653a20636f6e747261637420697320616c72656160448201526d191e481a5b9a5d1a585b1a5e995960921b6064820152608401610899565b6000805460ff1916600117905580156122a4576000805461ff0019166101001790555b6122ac61393e565b6122b461393e565b6122bf600033613243565b6122e97f189ab7a9244df0848122154315af71fe140f3db0fe014031783b0946b8c9d2e333613243565b80156115f6576000805461ff0019169055604051600181527f7f26b83ff96e1f2b6a682f133852f6798a09c465da95921460cefb38474024989060200160405180910390a150565b60009182526065602090815260408084206001600160a01b0393909316845291905290205460ff1690565b61010254600090612375906001600160a01b03166139ab565b905090565b6000806123856115f9565b905060006123928261300e565b90506123bc604051806040016040528060068152602001651b985d955cd960d21b81525082612a23565b6123c861052d826138ec565b9250505090565b600060646124668360ff5461010460009054906101000a90046001600160a01b03166001600160a01b03166350d25bcd6040518163ffffffff1660e01b815260040160206040518083038186803b15801561242957600080fd5b505afa15801561243d573d6000803e3d6000fd5b505050506040513d601f19601f8201168201806040525081019061246191906147b5565b613a1e565b6108219190614f9d565b600080610cb861248e6001600160a01b0385166402540be400614fb1565b6124a56001600160a01b0386166305f5e100614fb1565b600160c01b613a2b565b6000806124bb83613bb0565b90506124f36040518060400160405280600b81526020016a73717274526174696f313160a81b815250826001600160a01b0316612a23565b60006125276125106001600160a01b0384166402540be400614fb1565b6124a56001600160a01b0385166305f5e100614fb1565b9050610cb8604051806040016040528060078152602001667072696365313160c81b81525082612a23565b61258b6040518060c001604052806000815260200160008152602001600081526020016000815260200160008152602001600081525090565b6125ba6040518060400160405280600e81526020016d63757272656e74416d6f756e747360901b8152506134d4565b6000806125c5613517565b915091506125eb604051806040016040528060018152602001603160f81b8152506134d4565b6000806125f661235c565b60fb54604051632fe4a15f60e21b81526001600160a01b03918216600482015291169063bf92857c9060240160c06040518083038186803b15801561263a57600080fd5b505afa15801561264e573d6000803e3d6000fd5b505050506040513d601f19601f820116820180604052508101906126729190614a20565b505050509150915061269c604051806040016040528060018152602001601960f91b8152506134d4565b60006126f48260fe5461010360009054906101000a90046001600160a01b03166001600160a01b03166350d25bcd6040518163ffffffff1660e01b815260040160206040518083038186803b158015610d2157600080fd5b9050612718604051806040016040528060018152602001603360f81b8152506134d4565b60006127708460ff5461010460009054906101000a90046001600160a01b03166001600160a01b03166350d25bcd6040518163ffffffff1660e01b815260040160206040518083038186803b158015610d2157600080fd5b9050612794604051806040016040528060018152602001600d60fa1b8152506134d4565b6040805160c081018252828152602081018490528082018890526060810187905260fd5460fb5492516370a0823160e01b81526001600160a01b039384166004820152919260808401929116906370a082319060240160206040518083038186803b15801561280257600080fd5b505afa158015612816573d6000803e3d6000fd5b505050506040513d601f19601f8201168201806040525081019061283a91906147b5565b815260fc5460fb546040516370a0823160e01b81526001600160a01b0391821660048201526020909301929116906370a082319060240160206040518083038186803b15801561288957600080fd5b505afa15801561289d573d6000803e3d6000fd5b505050506040513d601f19601f820116820180604052508101906128c191906147b5565b9052979650505050505050565b6000828152606560205260409020600101546128e981613239565b610d8383836132c9565b600080612902610c41866124af565b90506000612912610c41866124af565b90506000612922610c4186612470565b905061294860405180604001604052806002815260200161736160f01b81525084612a23565b61296c6040518060400160405280600281526020016139b160f11b81525083612a23565b61299060405180604001604052806002815260200161073760f41b81525082612a23565b600061299c8284615037565b6129a68584615037565b6129b08585614fb1565b610ca79190614fb1565b600060646124668360fe5461010360009054906101000a90046001600160a01b03166001600160a01b03166350d25bcd6040518163ffffffff1660e01b815260040160206040518083038186803b15801561242957600080fd5b6001600160a01b03163b151590565b6115158282604051602401612a39929190614cea565b60408051601f198184030181529190526020810180516001600160e01b03166309710a9d60e41b179052613f82565b60006001600160ff1b03821115612ad25760405162461bcd60e51b815260206004820152602860248201527f53616665436173743a2076616c756520646f65736e27742066697420696e2061604482015267371034b73a191a9b60c11b6064820152608401610899565b5090565b60008061010060009054906101000a90046001600160a01b03166001600160a01b0316633850c7bd6040518163ffffffff1660e01b815260040160e06040518083038186803b158015612b2857600080fd5b505afa158015612b3c573d6000803e3d6000fd5b505050506040513d601f19601f82011682018060405250810190612b609190614983565b50505050505090506000612c7f60fb60009054906101000a90046001600160a01b03166001600160a01b0316639b1344ac6040518163ffffffff1660e01b815260040160206040518083038186803b158015612bbb57600080fd5b505afa158015612bcf573d6000803e3d6000fd5b505050506040513d601f19601f82011682018060405250810190612bf39190614875565b60fb60009054906101000a90046001600160a01b03166001600160a01b031663727dd2286040518163ffffffff1660e01b815260040160206040518083038186803b158015612c4157600080fd5b505afa158015612c55573d6000803e3d6000fd5b505050506040513d601f19601f82011682018060405250810190612c799190614875565b846128f3565b90506000612d9860fb60009054906101000a90046001600160a01b03166001600160a01b0316639b1344ac6040518163ffffffff1660e01b815260040160206040518083038186803b158015612cd457600080fd5b505afa158015612ce8573d6000803e3d6000fd5b505050506040513d601f19601f82011682018060405250810190612d0c9190614875565b60fb60009054906101000a90046001600160a01b03166001600160a01b031663727dd2286040518163ffffffff1660e01b815260040160206040518083038186803b158015612d5a57600080fd5b505afa158015612d6e573d6000803e3d6000fd5b505050506040513d601f19601f82011682018060405250810190612d929190614875565b85610c32565b9050612dc3604051806040016040528060078152602001660707269736521360cc1b81525083612a23565b612dec604051806040016040528060078152602001667072697365213160c81b81525082612a23565b6000612df7836123cf565b90506000612e086305f5e1006123cf565b90506000612e15846129ba565b90506000612e2a670de0b6b3a76400006129ba565b9050612e57604051806040016040528060098152602001681c1c9a58d94c5d5cd960ba1b81525085612a23565b612e836040518060400160405280600a8152602001691c1c9a58d94c5d5cd91160b21b81525084612a23565b612eae604051806040016040528060098152602001681c1c9a58d94c9d5cd960ba1b81525083612a23565b612eda6040518060400160405280600a8152602001691c1c9a58d94c9d5cd91160b21b81525082612a23565b600081612eeb866305f5e100614fb1565b612ef59190614f9d565b9050600085612f08846305f5e100614fb1565b612f129190614f9d565b9050600085612f25866305f5e100614fb1565b612f2f9190614f9d565b9050600085612f42886305f5e100614fb1565b612f4c9190614f9d565b9050612f7a6040518060400160405280600a8152602001697072696365316672616360b01b81525085612a23565b612fa66040518060400160405280600a8152602001697072696365326672616360b01b81525084612a23565b612fd26040518060400160405280600a8152602001697072696365336672616360b01b81525083612a23565b612ffe6040518060400160405280600a8152602001697072696365346672616360b01b81525082612a23565b50919a9950505050505050505050565b6000808260a0015183608001516130259190614f44565b9050826060015183604001518261303c9190614f44565b6130469190614f44565b602084015184519192509061305b9083614f44565b610cb89190614fd0565b6130a36040518060400160405280601981526020017f2d2d2d2d2d2d2d2d2d206578656375746520616374696f6e73000000000000008152506134d4565b60005b815181101561319757613105818383815181106130c5576130c5615142565b60200260200101516000015160078111156130e2576130e261512c565b8484815181106130f4576130f4615142565b602002602001015160200151613fa3565b60fb5482516001600160a01b039091169063b1ac6c709084908490811061312e5761312e615142565b60200260200101516040518263ffffffff1660e01b81526004016131529190614da4565b600060405180830381600087803b15801561316c57600080fd5b505af1158015613180573d6000803e3d6000fd5b50505050808061318f90615091565b9150506130a6565b506115f6604051806040016040528060098152602001682d2d2d2d2d2d2d2d2d60b81b8152506134d4565b6000806131d0600284614f9d565b6131db906001614f85565b90508291505b81811015613214579050806002816131f98186614f9d565b6132039190614f85565b61320d9190614f9d565b90506131e1565b50919050565b6000816132278486614fb1565b6132319190614f9d565b949350505050565b6115f68133613ff1565b61324d8282612331565b6115155760008281526065602090815260408083206001600160a01b03851684529091529020805460ff191660011790556132853390565b6001600160a01b0316816001600160a01b0316837f2f8788117e7eff1d82e926ec794901d17c78024a50270940304540a733656f0d60405160405180910390a45050565b6132d38282612331565b156115155760008281526065602090815260408083206001600160a01b0385168085529252808320805460ff1916905551339285917ff6391f5c32d9c69d2a47ea670b442974b53935d1edc7fd64eb21e047a839171b9190a45050565b7f189ab7a9244df0848122154315af71fe140f3db0fe014031783b0946b8c9d2e361151581613239565b7f4910fdfa16fed3260ed0e7147f7cc6da11a60208b5b9406d12a635614ffd91435460ff161561338d57610d8383614055565b826001600160a01b03166352d1902d6040518163ffffffff1660e01b815260040160206040518083038186803b1580156133c657600080fd5b505afa9250505080156133f6575060408051601f3d908101601f191682019092526133f3918101906147b5565b60015b6134595760405162461bcd60e51b815260206004820152602e60248201527f45524331393637557067726164653a206e657720696d706c656d656e7461746960448201526d6f6e206973206e6f74205555505360901b6064820152608401610899565b60008051602061519383398151915281146134c85760405162461bcd60e51b815260206004820152602960248201527f45524331393637557067726164653a20756e737570706f727465642070726f786044820152681a58589b195555525160ba1b6064820152608401610899565b50610d838383836140f1565b6115f6816040516024016134e89190614cd7565b60408051601f198184030181529190526020810180516001600160e01b031663104c13eb60e21b179052613f82565b60008060008061010060009054906101000a90046001600160a01b03166001600160a01b0316633850c7bd6040518163ffffffff1660e01b815260040160e06040518083038186803b15801561356c57600080fd5b505afa158015613580573d6000803e3d6000fd5b505050506040513d601f19601f820116820180604052508101906135a49190614983565b5050505050915091506135e46040518060400160405280600c81526020016b39b8b93a2930ba34b7ac1c9b60a11b815250836001600160a01b0316612a23565b613618604051806040016040528060048152602001637469636b60e01b8152508261360e906150c0565b62ffffff16612a23565b60fb54604080516305f5c3df60e21b815290516000926001600160a01b0316916317d70f7c916004808301926020929190829003018186803b15801561365d57600080fd5b505afa158015613671573d6000803e3d6000fd5b505050506040513d601f19601f8201168201806040525081019061369591906147b5565b156137a0576101015460fb54604080516305f5c3df60e21b815290516001600160a01b03938416936399fbab889316916317d70f7c916004808301926020929190829003018186803b1580156136ea57600080fd5b505afa1580156136fe573d6000803e3d6000fd5b505050506040513d601f19601f8201168201806040525081019061372291906147b5565b6040518263ffffffff1660e01b815260040161374091815260200190565b6101806040518083038186803b15801561375957600080fd5b505afa15801561376d573d6000803e3d6000fd5b505050506040513d601f19601f820116820180604052508101906137919190614a6a565b50929a50505050505050505050505b6137d56040518060400160405280600a8152602001696c69717569646974793160b01b815250826001600160801b0316612a23565b6138b68361386a60fb60009054906101000a90046001600160a01b03166001600160a01b0316639b1344ac6040518163ffffffff1660e01b815260040160206040518083038186803b15801561382a57600080fd5b505afa15801561383e573d6000803e3d6000fd5b505050506040513d601f19601f820116820180604052508101906138629190614875565b60020b613bb0565b60fb5460408051630e4fba4560e31b815290516138b0926001600160a01b03169163727dd228916004808301926020929190829003018186803b15801561382a57600080fd5b8461411c565b60408051808201909152600a8152693634b8bab4b234ba3c9960b11b602082015291965094506138e5906134d4565b5050509091565b600080821215612ad25760405162461bcd60e51b815260206004820181905260248201527f53616665436173743a2076616c7565206d75737420626520706f7369746976656044820152606401610899565b600054610100900460ff166139a95760405162461bcd60e51b815260206004820152602b60248201527f496e697469616c697a61626c653a20636f6e7472616374206973206e6f74206960448201526a6e697469616c697a696e6760a81b6064820152608401610899565b565b6000816001600160a01b031663026b1d5f6040518163ffffffff1660e01b815260040160206040518083038186803b1580156139e657600080fd5b505afa1580156139fa573d6000803e3d6000fd5b505050506040513d601f19601f8201168201806040525081019061082191906145e8565b6000826132278386614fb1565b600080806000198587098587029250828110838203039150508060001415613a655760008411613a5a57600080fd5b508290049050610cb8565b808411613a7157600080fd5b600084868809808403938111909203919050600085613a9281600019615037565b613a9d906001614f85565b16958690049593849004936000819003046001019050613abd8184614fb1565b909317926000613ace876003614fb1565b6002189050613add8188614fb1565b613ae8906002615037565b613af29082614fb1565b9050613afe8188614fb1565b613b09906002615037565b613b139082614fb1565b9050613b1f8188614fb1565b613b2a906002615037565b613b349082614fb1565b9050613b408188614fb1565b613b4b906002615037565b613b559082614fb1565b9050613b618188614fb1565b613b6c906002615037565b613b769082614fb1565b9050613b828188614fb1565b613b8d906002615037565b613b979082614fb1565b9050613ba38186614fb1565b9998505050505050505050565b60008060008360020b12613bc7578260020b613bd4565b8260020b613bd4906150e3565b9050600060018216613bea57600160801b613bfc565b6ffffcb933bd6fad37aa2d162d1a5940015b70ffffffffffffffffffffffffffffffffff1690506002821615613c3b576080613c36826ffff97272373d413259a46990580e213a614fb1565b901c90505b6004821615613c65576080613c60826ffff2e50f5f656932ef12357cf3c7fdcc614fb1565b901c90505b6008821615613c8f576080613c8a826fffe5caca7e10e4e61c3624eaa0941cd0614fb1565b901c90505b6010821615613cb9576080613cb4826fffcb9843d60f6159c9db58835c926644614fb1565b901c90505b6020821615613ce3576080613cde826fff973b41fa98c081472e6896dfb254c0614fb1565b901c90505b6040821615613d0d576080613d08826fff2ea16466c96a3843ec78b326b52861614fb1565b901c90505b6080821615613d37576080613d32826ffe5dee046a99a2a811c461f1969c3053614fb1565b901c90505b610100821615613d62576080613d5d826ffcbe86c7900a88aedcffc83b479aa3a4614fb1565b901c90505b610200821615613d8d576080613d88826ff987a7253ac413176f2b074cf7815e54614fb1565b901c90505b610400821615613db8576080613db3826ff3392b0822b70005940c7a398e4b70f3614fb1565b901c90505b610800821615613de3576080613dde826fe7159475a2c29b7443b29c7fa6e889d9614fb1565b901c90505b611000821615613e0e576080613e09826fd097f3bdfd2022b8845ad8f792aa5825614fb1565b901c90505b612000821615613e39576080613e34826fa9f746462d870fdf8a65dc1f90e061e5614fb1565b901c90505b614000821615613e64576080613e5f826f70d869a156d2a1b890bb3df62baf32f7614fb1565b901c90505b618000821615613e8f576080613e8a826f31be135f97d08fd981231505542fcfa6614fb1565b901c90505b62010000821615613ebb576080613eb6826f09aa508b5b7a84e1c677de54f3e99bc9614fb1565b901c90505b62020000821615613ee6576080613ee1826e5d6af8dedb81196699c329225ee604614fb1565b901c90505b62040000821615613f10576080613f0b826d2216e584f5fa1ea926041bedfe98614fb1565b901c90505b62080000821615613f38576080613f33826b048a170391f7dc42444e8fa2614fb1565b901c90505b60008460020b1315613f5357613f5081600019614f9d565b90505b613f62640100000000826150ac565b15613f6e576001613f71565b60005b6132319060ff16602083901c614f85565b80516a636f6e736f6c652e6c6f67602083016000808483855afa5050505050565b604051602481018490526044810183905260648101829052610d839060840160408051601f198184030181529190526020810180516001600160e01b03166339e0829d60e21b179052613f82565b613ffb8282612331565b61151557614013816001600160a01b031660146141b8565b61401e8360206141b8565b60405160200161402f929190614b93565b60408051601f198184030181529082905262461bcd60e51b825261089991600401614cd7565b6001600160a01b0381163b6140c25760405162461bcd60e51b815260206004820152602d60248201527f455243313936373a206e657720696d706c656d656e746174696f6e206973206e60448201526c1bdd08184818dbdb9d1c9858dd609a1b6064820152608401610899565b60008051602061519383398151915280546001600160a01b0319166001600160a01b0392909216919091179055565b6140fa83614354565b6000825111806141075750805b15610d83576141168383614394565b50505050565b600080836001600160a01b0316856001600160a01b0316111561413d579293925b846001600160a01b0316866001600160a01b03161161416857614161858585614488565b91506141af565b836001600160a01b0316866001600160a01b031610156141a15761418d868585614488565b915061419a8587856144f1565b90506141af565b6141ac8585856144f1565b90505b94509492505050565b606060006141c7836002614fb1565b6141d2906002614f85565b67ffffffffffffffff8111156141ea576141ea615158565b6040519080825280601f01601f191660200182016040528015614214576020820181803683370190505b509050600360fc1b8160008151811061422f5761422f615142565b60200101906001600160f81b031916908160001a905350600f60fb1b8160018151811061425e5761425e615142565b60200101906001600160f81b031916908160001a9053506000614282846002614fb1565b61428d906001614f85565b90505b6001811115614305576f181899199a1a9b1b9c1cb0b131b232b360811b85600f16601081106142c1576142c1615142565b1a60f81b8282815181106142d7576142d7615142565b60200101906001600160f81b031916908160001a90535060049490941c936142fe8161507a565b9050614290565b508315610cb85760405162461bcd60e51b815260206004820181905260248201527f537472696e67733a20686578206c656e67746820696e73756666696369656e746044820152606401610899565b61435d81614055565b6040516001600160a01b038216907fbc7cd75a20ee27fd9adebab32041f755214dbc6bffa90cc0225b39da2e5c2d3b90600090a250565b60606001600160a01b0383163b6143fc5760405162461bcd60e51b815260206004820152602660248201527f416464726573733a2064656c65676174652063616c6c20746f206e6f6e2d636f6044820152651b9d1c9858dd60d21b6064820152608401610899565b600080846001600160a01b0316846040516144179190614b77565b600060405180830381855af49150503d8060008114614452576040519150601f19603f3d011682016040523d82523d6000602084013e614457565b606091505b509150915061447f82826040518060600160405280602781526020016151b36027913961453b565b95945050505050565b6000826001600160a01b0316846001600160a01b031611156144a8579192915b6001600160a01b0384166132276fffffffffffffffffffffffffffffffff60601b606085901b166144d9878761500f565b6001600160a01b0316866001600160a01b0316613a2b565b6000826001600160a01b0316846001600160a01b03161115614511579192915b6132316001600160801b038316614528868661500f565b6001600160a01b0316600160601b613a2b565b6060831561454a575081610cb8565b82511561455a5782518084602001fd5b8160405162461bcd60e51b81526004016108999190614cd7565b805161457f8161516e565b919050565b805161457f81615183565b80516001600160801b038116811461457f57600080fd5b805161ffff8116811461457f57600080fd5b805162ffffff8116811461457f57600080fd5b6000602082840312156145dd57600080fd5b8135610cb88161516e565b6000602082840312156145fa57600080fd5b8151610cb88161516e565b6000806040838503121561461857600080fd5b82356146238161516e565b915060208381013567ffffffffffffffff8082111561464157600080fd5b818601915086601f83011261465557600080fd5b81358181111561466757614667615158565b614679601f8201601f19168501614f13565b9150808252878482850101111561468f57600080fd5b80848401858401376000848284010152508093505050509250929050565b60008060408084860312156146c157600080fd5b835167ffffffffffffffff808211156146d957600080fd5b818601915086601f8301126146ed57600080fd5b815160208282111561470157614701615158565b61470f818360051b01614f13565b82815281810193508482016060808502870184018c101561472f57600080fd5b600096505b8487101561478a5780828d03121561474b57600080fd5b614753614ea4565b82516008811061476257600080fd5b8152828501518582015288830151898201528652600196909601959483019490810190614734565b50509701519698969750505050505050565b6000602082840312156147ae57600080fd5b5035919050565b6000602082840312156147c757600080fd5b5051919050565b600080604083850312156147e157600080fd5b8235915060208301356147f38161516e565b809150509250929050565b60006020828403121561481057600080fd5b81356001600160e01b031981168114610cb857600080fd5b6000806040838503121561483b57600080fd5b82356003811061484a57600080fd5b946020939093013593505050565b60006020828403121561486a57600080fd5b8135610cb881615183565b60006020828403121561488757600080fd5b8151610cb881615183565b6000806000606084860312156148a757600080fd5b83356148b281615183565b925060208401356148c281615183565b915060408401356148d28161516e565b809150509250925092565b60008183036101408112156148f157600080fd5b6148f9614ecd565b83358152602084013560208201526040840135604082015260c0605f198301121561492357600080fd5b61492b614ef0565b9150606084013582526080840135602083015260a0840135604083015260c0840135606083015260e0840135608083015261010084013560a08301528160608201526101208401356080820152809250505092915050565b600080600080600080600060e0888a03121561499e57600080fd5b87516149a98161516e565b60208901519097506149ba81615183565b95506149c8604089016145a6565b94506149d6606089016145a6565b93506149e4608089016145a6565b925060a088015160ff811681146149fa57600080fd5b60c08901519092508015158114614a1057600080fd5b8091505092959891949750929550565b60008060008060008060c08789031215614a3957600080fd5b865195506020870151945060408701519350606087015192506080870151915060a087015190509295509295509295565b6000806000806000806000806000806000806101808d8f031215614a8d57600080fd5b8c516bffffffffffffffffffffffff81168114614aa957600080fd5b9b50614ab760208e01614574565b9a50614ac560408e01614574565b9950614ad360608e01614574565b9850614ae160808e016145b8565b9750614aef60a08e01614584565b9650614afd60c08e01614584565b9550614b0b60e08e0161458f565b94506101008d015193506101208d01519250614b2a6101408e0161458f565b9150614b396101608e0161458f565b90509295989b509295989b509295989b565b60008151808452614b6381602086016020860161504e565b601f01601f19169290920160200192915050565b60008251614b8981846020870161504e565b9190910192915050565b7f416363657373436f6e74726f6c3a206163636f756e7420000000000000000000815260008351614bcb81601785016020880161504e565b7001034b99036b4b9b9b4b733903937b6329607d1b6017918401918201528351614bfc81602884016020880161504e565b01602801949350505050565b6040808252835182820181905260009190606090818501906020808901865b83811015614c54578151805186528381015184870152870151878601529385019390820190600101614c27565b505095909501959095525092949350505050565b602080825282518282018190526000919060409081850190868401855b82811015614cca57815180516001600160a01b031685528681015187860152858101518686015260609081015115159085015260809093019290850190600101614c85565b5091979650505050505050565b602081526000610cb86020830184614b4b565b604081526000614cfd6040830185614b4b565b90508260208301529392505050565b6020808252602c908201527f46756e6374696f6e206d7573742062652063616c6c6564207468726f7567682060408201526b19195b1959d85d1958d85b1b60a21b606082015260800190565b6020808252602c908201527f46756e6374696f6e206d7573742062652063616c6c6564207468726f7567682060408201526b6163746976652070726f787960a01b606082015260800190565b8151606082019060088110614dc957634e487b7160e01b600052602160045260246000fd5b80835250602083015160208301526040830151604083015292915050565b6000610140820190508251825260208301516020830152604083015160408301526060830151614e4f6060840182805182526020810151602083015260408101516040830152606081015160608301526080810151608083015260a081015160a08301525050565b50608083015161012083015292915050565b60c081016108218284805182526020810151602083015260408101516040830152606081015160608301526080810151608083015260a081015160a08301525050565b6040516060810167ffffffffffffffff81118282101715614ec757614ec7615158565b60405290565b60405160a0810167ffffffffffffffff81118282101715614ec757614ec7615158565b60405160c0810167ffffffffffffffff81118282101715614ec757614ec7615158565b604051601f8201601f1916810167ffffffffffffffff81118282101715614f3c57614f3c615158565b604052919050565b600080821280156001600160ff1b0384900385131615614f6657614f66615100565b600160ff1b8390038412811615614f7f57614f7f615100565b50500190565b60008219821115614f9857614f98615100565b500190565b600082614fac57614fac615116565b500490565b6000816000190483118215151615614fcb57614fcb615100565b500290565b60008083128015600160ff1b850184121615614fee57614fee615100565b6001600160ff1b038401831381161561500957615009615100565b50500390565b60006001600160a01b038381169083168181101561502f5761502f615100565b039392505050565b60008282101561504957615049615100565b500390565b60005b83811015615069578181015183820152602001615051565b838111156141165750506000910152565b60008161508957615089615100565b506000190190565b60006000198214156150a5576150a5615100565b5060010190565b6000826150bb576150bb615116565b500690565b60008160020b627fffff198114156150da576150da615100565b60000392915050565b6000600160ff1b8214156150f9576150f9615100565b5060000390565b634e487b7160e01b600052601160045260246000fd5b634e487b7160e01b600052601260045260246000fd5b634e487b7160e01b600052602160045260246000fd5b634e487b7160e01b600052603260045260246000fd5b634e487b7160e01b600052604160045260246000fd5b6001600160a01b03811681146115f657600080fd5b8060020b81146115f657600080fdfe360894a13ba1a3210667c828492db98dca3e2076cc3735a920a3ca505d382bbc416464726573733a206c6f772d6c6576656c2064656c65676174652063616c6c206661696c65642d2d2d2d2d2d2d2d2d2d2d2d2d2d2d2d2d2063757272656e744c69717569646974792829a2646970667358221220bf46b05b9acafe12c62a6d3c748d91fd980cbe711321c595cf50287101605d4864736f6c63430008060033",
  "devdoc": {
    "kind": "dev",
    "methods": {
      "calcDeltas(uint8,uint256)": {
        "params": {
          "amount": "- USDC amount in e6"
        }
      },
      "constructor": {
        "custom:oz-upgrades-unsafe-allow": "constructor"
      },
      "getRoleAdmin(bytes32)": {
        "details": "Returns the admin role that controls `role`. See {grantRole} and {revokeRole}. To change a role's admin, use {_setRoleAdmin}."
      },
      "grantRole(bytes32,address)": {
        "details": "Grants `role` to `account`. If `account` had not been already granted `role`, emits a {RoleGranted} event. Requirements: - the caller must have ``role``'s admin role. May emit a {RoleGranted} event."
      },
      "hasRole(bytes32,address)": {
        "details": "Returns `true` if `account` has been granted `role`."
      },
      "netAssetValue()": {
        "returns": {
          "_0": "NAV in USDC"
        }
      },
      "proxiableUUID()": {
        "details": "Implementation of the ERC1822 {proxiableUUID} function. This returns the storage slot used by the implementation. It is used to validate that the this implementation remains valid after an upgrade. IMPORTANT: A proxy pointing at a proxiable contract should not be considered proxiable itself, because this risks bricking a proxy that upgrades to it, by delegating to itself until out of gas. Thus it is critical that this function revert if invoked through a proxy. This is guaranteed by the `notDelegated` modifier."
      },
      "renounceRole(bytes32,address)": {
        "details": "Revokes `role` from the calling account. Roles are often managed via {grantRole} and {revokeRole}: this function's purpose is to provide a mechanism for accounts to lose their privileges if they are compromised (such as when a trusted device is misplaced). If the calling account had been revoked `role`, emits a {RoleRevoked} event. Requirements: - the caller must be `account`. May emit a {RoleRevoked} event."
      },
      "revokeRole(bytes32,address)": {
        "details": "Revokes `role` from `account`. If `account` had been granted `role`, emits a {RoleRevoked} event. Requirements: - the caller must have ``role``'s admin role. May emit a {RoleRevoked} event."
      },
      "supportsInterface(bytes4)": {
        "details": "See {IERC165-supportsInterface}."
      },
      "upgradeTo(address)": {
        "details": "Upgrade the implementation of the proxy to `newImplementation`. Calls {_authorizeUpgrade}. Emits an {Upgraded} event."
      },
      "upgradeToAndCall(address,bytes)": {
        "details": "Upgrade the implementation of the proxy to `newImplementation`, and subsequently execute the function call encoded in `data`. Calls {_authorizeUpgrade}. Emits an {Upgraded} event."
      },
      "usdToWbtc(uint256)": {
        "params": {
          "liquidity": "USD liquidity in e6"
        }
      },
      "usdToWeth(uint256)": {
        "params": {
          "liquidity": "USD liquidity in e6"
        }
      },
      "wbtcToUsd(uint256)": {
        "params": {
          "amount": "USDC tokens amount"
        }
      },
      "wethToUsd(uint256)": {
        "params": {
          "amount": "WMATIC tokens amount"
        }
      }
    },
    "version": 1
  },
  "userdoc": {
    "kind": "user",
    "methods": {
      "currentLiquidity()": {
        "notice": "Get current liquidity in USD e6"
      },
      "netAssetValue()": {
        "notice": "NAV = sum of all tokens liquidity minus borrows."
      },
      "usdToWbtc(uint256)": {
        "notice": "Get USDC equivalent from USD liquidity"
      },
      "usdToWeth(uint256)": {
        "notice": "Get WMATIC equivalent from USD liquidity"
      },
      "wbtcToUsd(uint256)": {
        "notice": "Get USD equivalent in e6"
      },
      "wethToUsd(uint256)": {
        "notice": "Get USD equivalent in e6"
      }
    },
    "version": 1
  },
  "storageLayout": {
    "storage": [
      {
        "astId": 808,
        "contract": "contracts/control/ControlWethWbtc.sol:ControlWethWbtc",
        "label": "_initialized",
        "offset": 0,
        "slot": "0",
        "type": "t_uint8"
      },
      {
        "astId": 811,
        "contract": "contracts/control/ControlWethWbtc.sol:ControlWethWbtc",
        "label": "_initializing",
        "offset": 1,
        "slot": "0",
        "type": "t_bool"
      },
      {
        "astId": 1372,
        "contract": "contracts/control/ControlWethWbtc.sol:ControlWethWbtc",
        "label": "__gap",
        "offset": 0,
        "slot": "1",
        "type": "t_array(t_uint256)50_storage"
      },
      {
        "astId": 1702,
        "contract": "contracts/control/ControlWethWbtc.sol:ControlWethWbtc",
        "label": "__gap",
        "offset": 0,
        "slot": "51",
        "type": "t_array(t_uint256)50_storage"
      },
      {
        "astId": 39,
        "contract": "contracts/control/ControlWethWbtc.sol:ControlWethWbtc",
        "label": "_roles",
        "offset": 0,
        "slot": "101",
        "type": "t_mapping(t_bytes32,t_struct(RoleData)34_storage)"
      },
      {
        "astId": 338,
        "contract": "contracts/control/ControlWethWbtc.sol:ControlWethWbtc",
        "label": "__gap",
        "offset": 0,
        "slot": "102",
        "type": "t_array(t_uint256)49_storage"
      },
      {
        "astId": 790,
        "contract": "contracts/control/ControlWethWbtc.sol:ControlWethWbtc",
        "label": "__gap",
        "offset": 0,
        "slot": "151",
        "type": "t_array(t_uint256)50_storage"
      },
      {
        "astId": 1087,
        "contract": "contracts/control/ControlWethWbtc.sol:ControlWethWbtc",
        "label": "__gap",
        "offset": 0,
        "slot": "201",
        "type": "t_array(t_uint256)50_storage"
      },
      {
        "astId": 33426,
        "contract": "contracts/control/ControlWethWbtc.sol:ControlWethWbtc",
        "label": "strategy",
        "offset": 0,
        "slot": "251",
        "type": "t_contract(StrategyWethWbtc)26501"
      },
      {
        "astId": 33429,
        "contract": "contracts/control/ControlWethWbtc.sol:ControlWethWbtc",
        "label": "weth",
        "offset": 0,
        "slot": "252",
        "type": "t_contract(IERC20)2379"
      },
      {
        "astId": 33432,
        "contract": "contracts/control/ControlWethWbtc.sol:ControlWethWbtc",
        "label": "wbtc",
        "offset": 0,
        "slot": "253",
        "type": "t_contract(IERC20)2379"
      },
      {
        "astId": 33434,
        "contract": "contracts/control/ControlWethWbtc.sol:ControlWethWbtc",
        "label": "wethDm",
        "offset": 0,
        "slot": "254",
        "type": "t_uint256"
      },
      {
        "astId": 33436,
        "contract": "contracts/control/ControlWethWbtc.sol:ControlWethWbtc",
        "label": "wbtcDm",
        "offset": 0,
        "slot": "255",
        "type": "t_uint256"
      },
      {
        "astId": 33439,
        "contract": "contracts/control/ControlWethWbtc.sol:ControlWethWbtc",
        "label": "pool",
        "offset": 0,
        "slot": "256",
        "type": "t_contract(IUniswapV3Pool)15034"
      },
      {
        "astId": 33442,
        "contract": "contracts/control/ControlWethWbtc.sol:ControlWethWbtc",
        "label": "nonfungiblePositionManager",
        "offset": 0,
        "slot": "257",
        "type": "t_contract(INonfungiblePositionManager)14793"
      },
      {
        "astId": 33445,
        "contract": "contracts/control/ControlWethWbtc.sol:ControlWethWbtc",
        "label": "aavePoolAddressesProvider",
        "offset": 0,
        "slot": "258",
        "type": "t_contract(IPoolAddressesProvider)5218"
      },
      {
        "astId": 33448,
        "contract": "contracts/control/ControlWethWbtc.sol:ControlWethWbtc",
        "label": "oracleWeth",
        "offset": 0,
        "slot": "259",
        "type": "t_contract(IPriceFeed)6722"
      },
      {
        "astId": 33451,
        "contract": "contracts/control/ControlWethWbtc.sol:ControlWethWbtc",
        "label": "oracleWbtc",
        "offset": 0,
        "slot": "260",
        "type": "t_contract(IPriceFeed)6722"
      },
      {
        "astId": 33453,
        "contract": "contracts/control/ControlWethWbtc.sol:ControlWethWbtc",
        "label": "tokenAssetSlippagePercent",
        "offset": 0,
        "slot": "261",
        "type": "t_uint256"
      },
      {
        "astId": 33455,
        "contract": "contracts/control/ControlWethWbtc.sol:ControlWethWbtc",
        "label": "liquidationThreshold",
        "offset": 0,
        "slot": "262",
        "type": "t_uint256"
      },
      {
        "astId": 33457,
        "contract": "contracts/control/ControlWethWbtc.sol:ControlWethWbtc",
        "label": "healthFactor",
        "offset": 0,
        "slot": "263",
        "type": "t_uint256"
      }
    ],
    "types": {
      "t_address": {
        "encoding": "inplace",
        "label": "address",
        "numberOfBytes": "20"
      },
      "t_array(t_uint256)49_storage": {
        "base": "t_uint256",
        "encoding": "inplace",
        "label": "uint256[49]",
        "numberOfBytes": "1568"
      },
      "t_array(t_uint256)50_storage": {
        "base": "t_uint256",
        "encoding": "inplace",
        "label": "uint256[50]",
        "numberOfBytes": "1600"
      },
      "t_bool": {
        "encoding": "inplace",
        "label": "bool",
        "numberOfBytes": "1"
      },
      "t_bytes32": {
        "encoding": "inplace",
        "label": "bytes32",
        "numberOfBytes": "32"
      },
      "t_contract(IERC20)2379": {
        "encoding": "inplace",
        "label": "contract IERC20",
        "numberOfBytes": "20"
      },
      "t_contract(INonfungiblePositionManager)14793": {
        "encoding": "inplace",
        "label": "contract INonfungiblePositionManager",
        "numberOfBytes": "20"
      },
      "t_contract(IPoolAddressesProvider)5218": {
        "encoding": "inplace",
        "label": "contract IPoolAddressesProvider",
        "numberOfBytes": "20"
      },
      "t_contract(IPriceFeed)6722": {
        "encoding": "inplace",
        "label": "contract IPriceFeed",
        "numberOfBytes": "20"
      },
      "t_contract(IUniswapV3Pool)15034": {
        "encoding": "inplace",
        "label": "contract IUniswapV3Pool",
        "numberOfBytes": "20"
      },
      "t_contract(StrategyWethWbtc)26501": {
        "encoding": "inplace",
        "label": "contract StrategyWethWbtc",
        "numberOfBytes": "20"
      },
      "t_mapping(t_address,t_bool)": {
        "encoding": "mapping",
        "key": "t_address",
        "label": "mapping(address => bool)",
        "numberOfBytes": "32",
        "value": "t_bool"
      },
      "t_mapping(t_bytes32,t_struct(RoleData)34_storage)": {
        "encoding": "mapping",
        "key": "t_bytes32",
        "label": "mapping(bytes32 => struct AccessControlUpgradeable.RoleData)",
        "numberOfBytes": "32",
        "value": "t_struct(RoleData)34_storage"
      },
      "t_struct(RoleData)34_storage": {
        "encoding": "inplace",
        "label": "struct AccessControlUpgradeable.RoleData",
        "members": [
          {
            "astId": 31,
            "contract": "contracts/control/ControlWethWbtc.sol:ControlWethWbtc",
            "label": "members",
            "offset": 0,
            "slot": "0",
            "type": "t_mapping(t_address,t_bool)"
          },
          {
            "astId": 33,
            "contract": "contracts/control/ControlWethWbtc.sol:ControlWethWbtc",
            "label": "adminRole",
            "offset": 0,
            "slot": "1",
            "type": "t_bytes32"
          }
        ],
        "numberOfBytes": "64"
      },
      "t_uint256": {
        "encoding": "inplace",
        "label": "uint256",
        "numberOfBytes": "32"
      },
      "t_uint8": {
        "encoding": "inplace",
        "label": "uint8",
        "numberOfBytes": "1"
      }
    }
  }
}