{
  "address": "0x56Fad4F0095b35FD74eE8be48412dF49Bf90f29E",
  "abi": [
    {
      "inputs": [],
      "stateMutability": "nonpayable",
      "type": "constructor"
    },
    {
      "anonymous": false,
      "inputs": [
        {
          "indexed": false,
          "internalType": "address",
          "name": "previousAdmin",
          "type": "address"
        },
        {
          "indexed": false,
          "internalType": "address",
          "name": "newAdmin",
          "type": "address"
        }
      ],
      "name": "AdminChanged",
      "type": "event"
    },
    {
      "anonymous": false,
      "inputs": [
        {
          "indexed": true,
          "internalType": "address",
          "name": "beacon",
          "type": "address"
        }
      ],
      "name": "BeaconUpgraded",
      "type": "event"
    },
    {
      "anonymous": false,
      "inputs": [
        {
          "indexed": false,
          "internalType": "uint8",
          "name": "version",
          "type": "uint8"
        }
      ],
      "name": "Initialized",
      "type": "event"
    },
    {
      "anonymous": false,
      "inputs": [
        {
          "indexed": false,
          "internalType": "uint256",
          "name": "amount",
          "type": "uint256"
        }
      ],
      "name": "Reward",
      "type": "event"
    },
    {
      "anonymous": false,
      "inputs": [
        {
          "indexed": true,
          "internalType": "bytes32",
          "name": "role",
          "type": "bytes32"
        },
        {
          "indexed": true,
          "internalType": "bytes32",
          "name": "previousAdminRole",
          "type": "bytes32"
        },
        {
          "indexed": true,
          "internalType": "bytes32",
          "name": "newAdminRole",
          "type": "bytes32"
        }
      ],
      "name": "RoleAdminChanged",
      "type": "event"
    },
    {
      "anonymous": false,
      "inputs": [
        {
          "indexed": true,
          "internalType": "bytes32",
          "name": "role",
          "type": "bytes32"
        },
        {
          "indexed": true,
          "internalType": "address",
          "name": "account",
          "type": "address"
        },
        {
          "indexed": true,
          "internalType": "address",
          "name": "sender",
          "type": "address"
        }
      ],
      "name": "RoleGranted",
      "type": "event"
    },
    {
      "anonymous": false,
      "inputs": [
        {
          "indexed": true,
          "internalType": "bytes32",
          "name": "role",
          "type": "bytes32"
        },
        {
          "indexed": true,
          "internalType": "address",
          "name": "account",
          "type": "address"
        },
        {
          "indexed": true,
          "internalType": "address",
          "name": "sender",
          "type": "address"
        }
      ],
      "name": "RoleRevoked",
      "type": "event"
    },
    {
      "anonymous": false,
      "inputs": [
        {
          "indexed": false,
          "internalType": "uint256",
          "name": "healthFactor",
          "type": "uint256"
        }
      ],
      "name": "SetHealthFactor",
      "type": "event"
    },
    {
      "anonymous": false,
      "inputs": [
        {
          "indexed": false,
          "internalType": "uint256",
          "name": "amount",
          "type": "uint256"
        }
      ],
      "name": "Stake",
      "type": "event"
    },
    {
      "anonymous": false,
      "inputs": [
        {
          "indexed": false,
          "internalType": "uint256",
          "name": "amount",
          "type": "uint256"
        },
        {
          "indexed": false,
          "internalType": "uint256",
          "name": "amountReceived",
          "type": "uint256"
        }
      ],
      "name": "Unstake",
      "type": "event"
    },
    {
      "anonymous": false,
      "inputs": [
        {
          "indexed": true,
          "internalType": "address",
          "name": "implementation",
          "type": "address"
        }
      ],
      "name": "Upgraded",
      "type": "event"
    },
    {
      "inputs": [],
      "name": "BALANCING_BOT_ROLE",
      "outputs": [
        {
          "internalType": "bytes32",
          "name": "",
          "type": "bytes32"
        }
      ],
      "stateMutability": "view",
      "type": "function"
    },
    {
      "inputs": [],
      "name": "CONTROL_ROLE",
      "outputs": [
        {
          "internalType": "bytes32",
          "name": "",
          "type": "bytes32"
        }
      ],
      "stateMutability": "view",
      "type": "function"
    },
    {
      "inputs": [],
      "name": "DEFAULT_ADMIN_ROLE",
      "outputs": [
        {
          "internalType": "bytes32",
          "name": "",
          "type": "bytes32"
        }
      ],
      "stateMutability": "view",
      "type": "function"
    },
    {
      "inputs": [],
      "name": "EXCHANGER",
      "outputs": [
        {
          "internalType": "bytes32",
          "name": "",
          "type": "bytes32"
        }
      ],
      "stateMutability": "view",
      "type": "function"
    },
    {
      "inputs": [],
      "name": "INTEREST_RATE_MODE",
      "outputs": [
        {
          "internalType": "uint256",
          "name": "",
          "type": "uint256"
        }
      ],
      "stateMutability": "view",
      "type": "function"
    },
    {
      "inputs": [],
      "name": "MAX_UINT_VALUE",
      "outputs": [
        {
          "internalType": "uint256",
          "name": "",
          "type": "uint256"
        }
      ],
      "stateMutability": "view",
      "type": "function"
    },
    {
      "inputs": [],
      "name": "PORTFOLIO_AGENT_ROLE",
      "outputs": [
        {
          "internalType": "bytes32",
          "name": "",
          "type": "bytes32"
        }
      ],
      "stateMutability": "view",
      "type": "function"
    },
    {
      "inputs": [],
      "name": "REFERRAL_CODE",
      "outputs": [
        {
          "internalType": "uint16",
          "name": "",
          "type": "uint16"
        }
      ],
      "stateMutability": "view",
      "type": "function"
    },
    {
      "inputs": [],
      "name": "UPGRADER_ROLE",
      "outputs": [
        {
          "internalType": "bytes32",
          "name": "",
          "type": "bytes32"
        }
      ],
      "stateMutability": "view",
      "type": "function"
    },
    {
      "inputs": [],
      "name": "aavePoolAddressesProvider",
      "outputs": [
        {
          "internalType": "contract IPoolAddressesProvider",
          "name": "",
          "type": "address"
        }
      ],
      "stateMutability": "view",
      "type": "function"
    },
    {
      "inputs": [],
      "name": "asset",
      "outputs": [
        {
          "internalType": "contract IERC20",
          "name": "",
          "type": "address"
        }
      ],
      "stateMutability": "view",
      "type": "function"
    },
    {
      "inputs": [],
      "name": "balance",
      "outputs": [],
      "stateMutability": "nonpayable",
      "type": "function"
    },
    {
      "inputs": [],
      "name": "balances",
      "outputs": [
        {
          "components": [
            {
              "internalType": "address",
              "name": "token",
              "type": "address"
            },
            {
              "internalType": "uint256",
              "name": "amountUSD",
              "type": "uint256"
            },
            {
              "internalType": "uint256",
              "name": "amount",
              "type": "uint256"
            },
            {
              "internalType": "bool",
              "name": "borrowed",
              "type": "bool"
            }
          ],
          "internalType": "struct IHedgeStrategy.BalanceItem[]",
          "name": "",
          "type": "tuple[]"
        }
      ],
      "stateMutability": "view",
      "type": "function"
    },
    {
      "inputs": [
        {
          "internalType": "address",
          "name": "_to",
          "type": "address"
        }
      ],
      "name": "claimRewards",
      "outputs": [
        {
          "internalType": "uint256",
          "name": "",
          "type": "uint256"
        }
      ],
      "stateMutability": "nonpayable",
      "type": "function"
    },
    {
      "inputs": [],
      "name": "control",
      "outputs": [
        {
          "internalType": "contract ControlWethUsdc",
          "name": "",
          "type": "address"
        }
      ],
      "stateMutability": "view",
      "type": "function"
    },
    {
      "inputs": [],
      "name": "currentHealthFactor",
      "outputs": [
        {
          "internalType": "uint256",
          "name": "",
          "type": "uint256"
        }
      ],
      "stateMutability": "view",
      "type": "function"
    },
    {
      "inputs": [],
      "name": "exchange",
      "outputs": [
        {
          "internalType": "contract IExchange",
          "name": "",
          "type": "address"
        }
      ],
      "stateMutability": "view",
      "type": "function"
    },
    {
      "inputs": [],
      "name": "exchanger",
      "outputs": [
        {
          "internalType": "address",
          "name": "",
          "type": "address"
        }
      ],
      "stateMutability": "view",
      "type": "function"
    },
    {
      "inputs": [
        {
          "components": [
            {
              "internalType": "enum ActionType",
              "name": "actionType",
              "type": "uint8"
            },
            {
              "internalType": "uint256",
              "name": "amount",
              "type": "uint256"
            },
            {
              "internalType": "uint256",
              "name": "slippagePercent",
              "type": "uint256"
            }
          ],
          "internalType": "struct Action",
          "name": "action",
          "type": "tuple"
        }
      ],
      "name": "executeAction",
      "outputs": [],
      "stateMutability": "nonpayable",
      "type": "function"
    },
    {
      "inputs": [],
      "name": "gauge",
      "outputs": [
        {
          "internalType": "contract IGauge",
          "name": "",
          "type": "address"
        }
      ],
      "stateMutability": "view",
      "type": "function"
    },
    {
      "inputs": [
        {
          "internalType": "bytes32",
          "name": "role",
          "type": "bytes32"
        }
      ],
      "name": "getRoleAdmin",
      "outputs": [
        {
          "internalType": "bytes32",
          "name": "",
          "type": "bytes32"
        }
      ],
      "stateMutability": "view",
      "type": "function"
    },
    {
      "inputs": [
        {
          "internalType": "bytes32",
          "name": "role",
          "type": "bytes32"
        },
        {
          "internalType": "address",
          "name": "account",
          "type": "address"
        }
      ],
      "name": "grantRole",
      "outputs": [],
      "stateMutability": "nonpayable",
      "type": "function"
    },
    {
      "inputs": [
        {
          "internalType": "bytes32",
          "name": "role",
          "type": "bytes32"
        },
        {
          "internalType": "address",
          "name": "account",
          "type": "address"
        }
      ],
      "name": "hasRole",
      "outputs": [
        {
          "internalType": "bool",
          "name": "",
          "type": "bool"
        }
      ],
      "stateMutability": "view",
      "type": "function"
    },
    {
      "inputs": [],
      "name": "healthFactor",
      "outputs": [
        {
          "internalType": "uint256",
          "name": "",
          "type": "uint256"
        }
      ],
      "stateMutability": "view",
      "type": "function"
    },
    {
      "inputs": [],
      "name": "initialize",
      "outputs": [],
      "stateMutability": "nonpayable",
      "type": "function"
    },
    {
      "inputs": [],
      "name": "liquidationThreshold",
      "outputs": [
        {
          "internalType": "uint256",
          "name": "",
          "type": "uint256"
        }
      ],
      "stateMutability": "view",
      "type": "function"
    },
    {
      "inputs": [],
      "name": "netAssetValue",
      "outputs": [
        {
          "internalType": "uint256",
          "name": "",
          "type": "uint256"
        }
      ],
      "stateMutability": "view",
      "type": "function"
    },
    {
      "inputs": [],
      "name": "oracleUsdc",
      "outputs": [
        {
          "internalType": "contract IPriceFeed",
          "name": "",
          "type": "address"
        }
      ],
      "stateMutability": "view",
      "type": "function"
    },
    {
      "inputs": [],
      "name": "oracleWeth",
      "outputs": [
        {
          "internalType": "contract IPriceFeed",
          "name": "",
          "type": "address"
        }
      ],
      "stateMutability": "view",
      "type": "function"
    },
    {
      "inputs": [],
      "name": "pair",
      "outputs": [
        {
          "internalType": "contract IPair",
          "name": "",
          "type": "address"
        }
      ],
      "stateMutability": "view",
      "type": "function"
    },
    {
      "inputs": [],
      "name": "poolFee0",
      "outputs": [
        {
          "internalType": "uint24",
          "name": "",
          "type": "uint24"
        }
      ],
      "stateMutability": "view",
      "type": "function"
    },
    {
      "inputs": [],
      "name": "poolFee1",
      "outputs": [
        {
          "internalType": "uint24",
          "name": "",
          "type": "uint24"
        }
      ],
      "stateMutability": "view",
      "type": "function"
    },
    {
      "inputs": [],
      "name": "proxiableUUID",
      "outputs": [
        {
          "internalType": "bytes32",
          "name": "",
          "type": "bytes32"
        }
      ],
      "stateMutability": "view",
      "type": "function"
    },
    {
      "inputs": [],
      "name": "realHealthFactor",
      "outputs": [
        {
          "internalType": "uint256",
          "name": "",
          "type": "uint256"
        }
      ],
      "stateMutability": "view",
      "type": "function"
    },
    {
      "inputs": [
        {
          "internalType": "bytes32",
          "name": "role",
          "type": "bytes32"
        },
        {
          "internalType": "address",
          "name": "account",
          "type": "address"
        }
      ],
      "name": "renounceRole",
      "outputs": [],
      "stateMutability": "nonpayable",
      "type": "function"
    },
    {
      "inputs": [
        {
          "internalType": "bytes32",
          "name": "role",
          "type": "bytes32"
        },
        {
          "internalType": "address",
          "name": "account",
          "type": "address"
        }
      ],
      "name": "revokeRole",
      "outputs": [],
      "stateMutability": "nonpayable",
      "type": "function"
    },
    {
      "inputs": [],
      "name": "router",
      "outputs": [
        {
          "internalType": "contract IRouter",
          "name": "",
          "type": "address"
        }
      ],
      "stateMutability": "view",
      "type": "function"
    },
    {
      "inputs": [
        {
          "internalType": "address",
          "name": "_value",
          "type": "address"
        }
      ],
      "name": "setExchanger",
      "outputs": [],
      "stateMutability": "nonpayable",
      "type": "function"
    },
    {
      "inputs": [
        {
          "internalType": "uint256",
          "name": "newHealthFactor",
          "type": "uint256"
        }
      ],
      "name": "setHealthFactor",
      "outputs": [],
      "stateMutability": "nonpayable",
      "type": "function"
    },
    {
      "inputs": [
        {
          "components": [
            {
              "internalType": "address",
              "name": "exchange",
              "type": "address"
            },
            {
              "internalType": "address",
              "name": "control",
              "type": "address"
            },
            {
              "internalType": "address",
              "name": "usdPlus",
              "type": "address"
            },
            {
              "internalType": "address",
              "name": "weth",
              "type": "address"
            },
            {
              "internalType": "address",
              "name": "usdc",
              "type": "address"
            },
            {
              "internalType": "address",
              "name": "velo",
              "type": "address"
            },
            {
              "internalType": "address",
              "name": "router",
              "type": "address"
            },
            {
              "internalType": "address",
              "name": "gauge",
              "type": "address"
            },
            {
              "internalType": "address",
              "name": "pair",
              "type": "address"
            },
            {
              "internalType": "address",
              "name": "uniswapV3Router",
              "type": "address"
            },
            {
              "internalType": "uint24",
              "name": "poolFee0",
              "type": "uint24"
            },
            {
              "internalType": "uint24",
              "name": "poolFee1",
              "type": "uint24"
            },
            {
              "internalType": "address",
              "name": "aavePoolAddressesProvider",
              "type": "address"
            },
            {
              "internalType": "uint256",
              "name": "tokenAssetSlippagePercent",
              "type": "uint256"
            },
            {
              "internalType": "uint256",
              "name": "liquidationThreshold",
              "type": "uint256"
            },
            {
              "internalType": "uint256",
              "name": "healthFactor",
              "type": "uint256"
            }
          ],
          "internalType": "struct StrategyWethUsdc.SetupParams",
          "name": "params",
          "type": "tuple"
        }
      ],
      "name": "setParams",
      "outputs": [],
      "stateMutability": "nonpayable",
      "type": "function"
    },
    {
      "inputs": [
        {
          "internalType": "uint256",
          "name": "_realHealthFactor",
          "type": "uint256"
        }
      ],
      "name": "setRealHealthFactor",
      "outputs": [],
      "stateMutability": "nonpayable",
      "type": "function"
    },
    {
      "inputs": [
        {
          "internalType": "uint256",
          "name": "_amount",
          "type": "uint256"
        }
      ],
      "name": "stake",
      "outputs": [],
      "stateMutability": "nonpayable",
      "type": "function"
    },
    {
      "inputs": [
        {
          "internalType": "bytes4",
          "name": "interfaceId",
          "type": "bytes4"
        }
      ],
      "name": "supportsInterface",
      "outputs": [
        {
          "internalType": "bool",
          "name": "",
          "type": "bool"
        }
      ],
      "stateMutability": "view",
      "type": "function"
    },
    {
      "inputs": [],
      "name": "tokenAssetSlippagePercent",
      "outputs": [
        {
          "internalType": "uint256",
          "name": "",
          "type": "uint256"
        }
      ],
      "stateMutability": "view",
      "type": "function"
    },
    {
      "inputs": [],
      "name": "uniswapV3Router",
      "outputs": [
        {
          "internalType": "contract ISwapRouter",
          "name": "",
          "type": "address"
        }
      ],
      "stateMutability": "view",
      "type": "function"
    },
    {
      "inputs": [
        {
          "internalType": "uint256",
          "name": "_amount",
          "type": "uint256"
        },
        {
          "internalType": "address",
          "name": "_to",
          "type": "address"
        }
      ],
      "name": "unstake",
      "outputs": [
        {
          "internalType": "uint256",
          "name": "",
          "type": "uint256"
        }
      ],
      "stateMutability": "nonpayable",
      "type": "function"
    },
    {
      "inputs": [
        {
          "internalType": "address",
          "name": "newImplementation",
          "type": "address"
        }
      ],
      "name": "upgradeTo",
      "outputs": [],
      "stateMutability": "nonpayable",
      "type": "function"
    },
    {
      "inputs": [
        {
          "internalType": "address",
          "name": "newImplementation",
          "type": "address"
        },
        {
          "internalType": "bytes",
          "name": "data",
          "type": "bytes"
        }
      ],
      "name": "upgradeToAndCall",
      "outputs": [],
      "stateMutability": "payable",
      "type": "function"
    },
    {
      "inputs": [],
      "name": "usdPlus",
      "outputs": [
        {
          "internalType": "contract IERC20",
          "name": "",
          "type": "address"
        }
      ],
      "stateMutability": "view",
      "type": "function"
    },
    {
      "inputs": [],
      "name": "usdc",
      "outputs": [
        {
          "internalType": "contract IERC20",
          "name": "",
          "type": "address"
        }
      ],
      "stateMutability": "view",
      "type": "function"
    },
    {
      "inputs": [],
      "name": "usdcDm",
      "outputs": [
        {
          "internalType": "uint256",
          "name": "",
          "type": "uint256"
        }
      ],
      "stateMutability": "view",
      "type": "function"
    },
    {
      "inputs": [],
      "name": "velo",
      "outputs": [
        {
          "internalType": "contract IERC20",
          "name": "",
          "type": "address"
        }
      ],
      "stateMutability": "view",
      "type": "function"
    },
    {
      "inputs": [],
      "name": "weth",
      "outputs": [
        {
          "internalType": "contract IERC20",
          "name": "",
          "type": "address"
        }
      ],
      "stateMutability": "view",
      "type": "function"
    },
    {
      "inputs": [],
      "name": "wethDm",
      "outputs": [
        {
          "internalType": "uint256",
          "name": "",
          "type": "uint256"
        }
      ],
      "stateMutability": "view",
      "type": "function"
    },
    {
      "stateMutability": "payable",
      "type": "receive"
    }
  ],
  "numDeployments": 1,
  "solcInputHash": "0602f784bf8dc63b7c3b512d9f6fa31a",
  "bytecode": "0x60a06040523060601b6080523480156200001857600080fd5b5060006200002760016200008e565b9050801562000040576000805461ff0019166101001790555b801562000087576000805461ff0019169055604051600181527f7f26b83ff96e1f2b6a682f133852f6798a09c465da95921460cefb38474024989060200160405180910390a15b50620001af565b60008054610100900460ff161562000127578160ff166001148015620000c75750620000c530620001a060201b620023f31760201c565b155b6200011f5760405162461bcd60e51b815260206004820152602e602482015260008051602062003e8983398151915260448201526d191e481a5b9a5d1a585b1a5e995960921b60648201526084015b60405180910390fd5b506000919050565b60005460ff808416911610620001865760405162461bcd60e51b815260206004820152602e602482015260008051602062003e8983398151915260448201526d191e481a5b9a5d1a585b1a5e995960921b606482015260840162000116565b506000805460ff191660ff92909216919091179055600190565b6001600160a01b03163b151590565b60805160601c613c9f620001ea60003960008181610b9e01528181610bde01528181610c7b01528181610cbb0152610d4a0152613c9f6000f3fe6080604052600436106103395760003560e01c80638381e182116101ab578063bd0f1053116100f7578063da909b0911610095578063ef5cfb8c1161006f578063ef5cfb8c146109a1578063f72c0d8b146109c1578063f887ea40146109f5578063fb24974a14610a1657600080fd5b8063da909b0914610953578063dc2cddf914610973578063ece16e731461098a57600080fd5b8063d547741f116100d1578063d547741f146108cc578063d7a1e6ab146108ec578063d7e6b1c81461090e578063d8de65871461093257600080fd5b8063bd0f105314610869578063cad7d46a1461088b578063d2f7265a146108ab57600080fd5b8063a3673b3811610164578063a8aa1b311161013e578063a8aa1b31146107db578063af23ccc4146107fc578063b1ac6c7014610834578063b69ef8a81461085457600080fd5b8063a3673b3814610785578063a694fc3a1461079a578063a6f19c84146107ba57600080fd5b80638381e182146106bb5780638c7c53ce146106db57806391d14854146106fc57806396e8d6641461071c57806398cad8fd1461073c578063a217fddf1461077057600080fd5b80633e413bee116102855780635a01f33d1161022357806369e4e005116101fd57806369e4e0051461064e5780637bb98a681461066f5780638129fc1c1461069157806383008bd9146106a657600080fd5b80635a01f33d146105e35780635dbd733a146105f95780635fea9cbb1461062d57600080fd5b80634d12fca41161025f5780634d12fca41461057a5780634f1ef2861461059a578063514e460a146105ad57806352d1902d146105ce57600080fd5b80633e413bee146105215780633fc8cef3146105425780634031234c1461056357600080fd5b80632f2ff15d116102f257806336568abe116102cc57806336568abe146104a05780633659cfe6146104c057806336e0d541146104e057806338d52e0f1461050157600080fd5b80632f2ff15d1461043657806331111708146104585780633583849a1461047857600080fd5b806301ffc9a7146103455780631b1e7ddc1461037a57806322841f011461039f578063248a9ca3146103b65780632a8b096f146103e65780632c76d7a6146103fd57600080fd5b3661034057005b600080fd5b34801561035157600080fd5b50610365610360366004613411565b610a2c565b60405190151581526020015b60405180910390f35b34801561038657600080fd5b506103916101355481565b604051908152602001610371565b3480156103ab57600080fd5b5061039161013f5481565b3480156103c257600080fd5b506103916103d13660046133af565b60009081526065602052604090206001015490565b3480156103f257600080fd5b506103916101405481565b34801561040957600080fd5b506101395461041e906001600160a01b031681565b6040516001600160a01b039091168152602001610371565b34801561044257600080fd5b506104566104513660046133e1565b610a63565b005b34801561046457600080fd5b506104566104733660046133af565b610a8d565b34801561048457600080fd5b5061048d600081565b60405161ffff9091168152602001610371565b3480156104ac57600080fd5b506104566104bb3660046133e1565b610b15565b3480156104cc57600080fd5b506104566104db3660046131bc565b610b93565b3480156104ec57600080fd5b5061013b5461041e906001600160a01b031681565b34801561050d57600080fd5b5060fb5461041e906001600160a01b031681565b34801561052d57600080fd5b506101325461041e906001600160a01b031681565b34801561054e57600080fd5b506101315461041e906001600160a01b031681565b34801561056f57600080fd5b5061039161013e5481565b34801561058657600080fd5b5060fc5461041e906001600160a01b031681565b6104566105a83660046131f6565b610c70565b3480156105b957600080fd5b506101305461041e906001600160a01b031681565b3480156105da57600080fd5b50610391610d3d565b3480156105ef57600080fd5b5061014054610391565b34801561060557600080fd5b506103917fd67ad422505496469a1adf6cdf9e5ee92ac5d33992843c9ecc4b2f6d6cde913781565b34801561063957600080fd5b5061013c5461041e906001600160a01b031681565b34801561065a57600080fd5b5061013a5461041e906001600160a01b031681565b34801561067b57600080fd5b50610684610df0565b604051610371919061366c565b34801561069d57600080fd5b50610456610e77565b3480156106b257600080fd5b50610391600281565b3480156106c757600080fd5b506103916106d63660046133e1565b610eec565b3480156106e757600080fd5b506101335461041e906001600160a01b031681565b34801561070857600080fd5b506103656107173660046133e1565b611057565b34801561072857600080fd5b506104566107373660046134a1565b611082565b34801561074857600080fd5b506103917fea2dbc222f92f456955c8f6aa0ff0b2767f9e36168a5ef8c93bc1f8720e220b881565b34801561077c57600080fd5b50610391600081565b34801561079157600080fd5b50610391611ab7565b3480156107a657600080fd5b506104566107b53660046133af565b611b35565b3480156107c657600080fd5b506101375461041e906001600160a01b031681565b3480156107e757600080fd5b506101385461041e906001600160a01b031681565b34801561080857600080fd5b506101395461082090600160b81b900462ffffff1681565b60405162ffffff9091168152602001610371565b34801561084057600080fd5b5061045661084f36600461343b565b611c1b565b34801561086057600080fd5b506104566121ae565b34801561087557600080fd5b50610391600080516020613bbd83398151915281565b34801561089757600080fd5b506104566108a63660046133af565b6121ea565b3480156108b757600080fd5b5061012e5461041e906001600160a01b031681565b3480156108d857600080fd5b506104566108e73660046133e1565b61224c565b3480156108f857600080fd5b50610391600080516020613b3183398151915281565b34801561091a57600080fd5b506101395461082090600160a01b900462ffffff1681565b34801561093e57600080fd5b5061012f5461041e906001600160a01b031681565b34801561095f57600080fd5b5061045661096e3660046131bc565b612271565b34801561097f57600080fd5b5061039161013d5481565b34801561099657600080fd5b506103916101345481565b3480156109ad57600080fd5b506103916109bc3660046131bc565b61236f565b3480156109cd57600080fd5b506103917f189ab7a9244df0848122154315af71fe140f3db0fe014031783b0946b8c9d2e381565b348015610a0157600080fd5b506101365461041e906001600160a01b031681565b348015610a2257600080fd5b5061039160001981565b60006001600160e01b03198216637965db0b60e01b1480610a5d57506301ffc9a760e01b6001600160e01b03198316145b92915050565b600082815260656020526040902060010154610a7e81612402565b610a88838361240c565b505050565b610ab77fea2dbc222f92f456955c8f6aa0ff0b2767f9e36168a5ef8c93bc1f8720e220b833611057565b610b085760405162461bcd60e51b815260206004820152601b60248201527f5265737472696374656420746f2042616c616e63696e6720426f74000000000060448201526064015b60405180910390fd5b610b128161013f55565b50565b6001600160a01b0381163314610b855760405162461bcd60e51b815260206004820152602f60248201527f416363657373436f6e74726f6c3a2063616e206f6e6c792072656e6f756e636560448201526e103937b632b9903337b91039b2b63360891b6064820152608401610aff565b610b8f8282612492565b5050565b306001600160a01b037f0000000000000000000000000000000000000000000000000000000000000000161415610bdc5760405162461bcd60e51b8152600401610aff90613740565b7f00000000000000000000000000000000000000000000000000000000000000006001600160a01b0316610c25600080516020613c01833981519152546001600160a01b031690565b6001600160a01b031614610c4b5760405162461bcd60e51b8152600401610aff9061378c565b610c54816124f9565b60408051600080825260208201909252610b1291839190612523565b306001600160a01b037f0000000000000000000000000000000000000000000000000000000000000000161415610cb95760405162461bcd60e51b8152600401610aff90613740565b7f00000000000000000000000000000000000000000000000000000000000000006001600160a01b0316610d02600080516020613c01833981519152546001600160a01b031690565b6001600160a01b031614610d285760405162461bcd60e51b8152600401610aff9061378c565b610d31826124f9565b610b8f82826001612523565b6000306001600160a01b037f00000000000000000000000000000000000000000000000000000000000000001614610ddd5760405162461bcd60e51b815260206004820152603860248201527f555550535570677261646561626c653a206d757374206e6f742062652063616c60448201527f6c6564207468726f7567682064656c656761746563616c6c00000000000000006064820152608401610aff565b50600080516020613c0183398151915290565b61012f5460408051630f77314d60e31b815290516060926001600160a01b031691637bb98a68916004808301926000929190829003018186803b158015610e3657600080fd5b505afa158015610e4a573d6000803e3d6000fd5b505050506040513d6000823e601f3d908101601f19168201604052610e72919081019061329e565b905090565b6000610e83600161269d565b90508015610e9b576000805461ff0019166101001790555b610ea3612725565b8015610b12576000805461ff0019169055604051600181527f7f26b83ff96e1f2b6a682f133852f6798a09c465da95921460cefb3847402498906020015b60405180910390a150565b6000610f06600080516020613bbd83398151915233611057565b610f225760405162461bcd60e51b8152600401610aff90613709565b6000610f2d8461278e565b905083811015610f915760405162461bcd60e51b815260206004820152602960248201527f52657475726e65642076616c7565206c657373207468616e2072657175657374604482015268195908185b5bdd5b9d60ba1b6064820152608401610aff565b60fb5460405163a9059cbb60e01b81526001600160a01b039091169063a9059cbb90610fc39086908890600401613653565b602060405180830381600087803b158015610fdd57600080fd5b505af1158015610ff1573d6000803e3d6000fd5b505050506040513d601f19601f820116820180604052508101906110159190613394565b5060408051858152602081018390527f9045c2ac9b2026de8075f2701bbdde882cd5e830b3b1ead9a15b22f2b5b93742910160405180910390a1509192915050565b60009182526065602090815260408084206001600160a01b0393909316845291905290205460ff1690565b61108d600033611057565b6110d05760405162461bcd60e51b81526020600482015260146024820152735265737472696374656420746f2061646d696e7360601b6044820152606401610aff565b6110dd60208201826131bc565b61012e80546001600160a01b0319166001600160a01b039290921691909117905561110e60408201602083016131bc565b61012f80546001600160a01b0319166001600160a01b039290921691909117905561113f60608201604083016131bc565b61013080546001600160a01b0319166001600160a01b039290921691909117905561117060808201606083016131bc565b61013180546001600160a01b0319166001600160a01b03929092169190911790556111a160a08201608083016131bc565b61013280546001600160a01b0319166001600160a01b03929092169190911790556111d260c0820160a083016131bc565b61013380546001600160a01b0319166001600160a01b039290921691909117905561120360808201606083016131bc565b6001600160a01b031663313ce5676040518163ffffffff1660e01b815260040160206040518083038186803b15801561123b57600080fd5b505afa15801561124f573d6000803e3d6000fd5b505050506040513d601f19601f820116820180604052508101906112739190613503565b61127e90600a61394b565b6101345561129260a08201608083016131bc565b6001600160a01b031663313ce5676040518163ffffffff1660e01b815260040160206040518083038186803b1580156112ca57600080fd5b505afa1580156112de573d6000803e3d6000fd5b505050506040513d601f19601f820116820180604052508101906113029190613503565b61130d90600a61394b565b6101355561132160e0820160c083016131bc565b61013680546001600160a01b0319166001600160a01b0392909216919091179055611353610100820160e083016131bc565b61013780546001600160a01b0319166001600160a01b0392909216919091179055611386610120820161010083016131bc565b61013880546001600160a01b0319166001600160a01b03929092169190911790556113b9610140820161012083016131bc565b61013980546001600160a01b0319166001600160a01b03929092169190911790556113ec610160820161014083016134ba565b610139805462ffffff92909216600160a01b0262ffffff60a01b19909216919091179055611422610180820161016083016134ba565b610139805462ffffff92909216600160b81b0262ffffff60b81b199092169190911790556114586101a0820161018083016131bc565b61013a80546001600160a01b0319166001600160a01b0392909216918217905560408051631f94a27560e31b815290516000929163fca513a8916004808301926020929190829003018186803b1580156114b157600080fd5b505afa1580156114c5573d6000803e3d6000fd5b505050506040513d601f19601f820116820180604052508101906114e991906131d9565b90506001600160a01b0381166392bf2be061150a60808501606086016131bc565b6040516001600160e01b031960e084901b1681526001600160a01b03909116600482015260240160206040518083038186803b15801561154957600080fd5b505afa15801561155d573d6000803e3d6000fd5b505050506040513d601f19601f8201168201806040525081019061158191906131d9565b61013b80546001600160a01b0319166001600160a01b0392831617905581166392bf2be06115b560a08501608086016131bc565b6040516001600160e01b031960e084901b1681526001600160a01b03909116600482015260240160206040518083038186803b1580156115f457600080fd5b505afa158015611608573d6000803e3d6000fd5b505050506040513d601f19601f8201168201806040525081019061162c91906131d9565b61013c80546001600160a01b0319166001600160a01b03929092169190911790556101a082013561013d5561166d6101c083013566038d7ea4c680006139f6565b61013e556116876101e083013566038d7ea4c680006139f6565b61013f556000610140556116a96116a460608401604085016131bc565b612805565b610131546101365460405163095ea7b360e01b81526001600160a01b039283169263095ea7b3926116e39291169060001990600401613653565b602060405180830381600087803b1580156116fd57600080fd5b505af1158015611711573d6000803e3d6000fd5b505050506040513d601f19601f820116820180604052508101906117359190613394565b50610132546101365460405163095ea7b360e01b81526001600160a01b039283169263095ea7b3926117709291169060001990600401613653565b602060405180830381600087803b15801561178a57600080fd5b505af115801561179e573d6000803e3d6000fd5b505050506040513d601f19601f820116820180604052508101906117c29190613394565b50610138546101365460405163095ea7b360e01b81526001600160a01b039283169263095ea7b3926117fd9291169060001990600401613653565b602060405180830381600087803b15801561181757600080fd5b505af115801561182b573d6000803e3d6000fd5b505050506040513d601f19601f8201168201806040525081019061184f9190613394565b50610138546101375460405163095ea7b360e01b81526001600160a01b039283169263095ea7b39261188a9291169060001990600401613653565b602060405180830381600087803b1580156118a457600080fd5b505af11580156118b8573d6000803e3d6000fd5b505050506040513d601f19601f820116820180604052508101906118dc9190613394565b506101305461012e5460405163095ea7b360e01b81526001600160a01b039283169263095ea7b3926119179291169060001990600401613653565b602060405180830381600087803b15801561193157600080fd5b505af1158015611945573d6000803e3d6000fd5b505050506040513d601f19601f820116820180604052508101906119699190613394565b506101325461012e5460405163095ea7b360e01b81526001600160a01b039283169263095ea7b3926119a49291169060001990600401613653565b602060405180830381600087803b1580156119be57600080fd5b505af11580156119d2573d6000803e3d6000fd5b505050506040513d601f19601f820116820180604052508101906119f69190613394565b5061012f546001600160a01b031615611a2f5761012f54611a2f90600080516020613b31833981519152906001600160a01b031661224c565b61012f54611a5590600080516020613b31833981519152906001600160a01b0316610a63565b61012f546040516319d0806560e11b81523060048201526001600160a01b03909116906333a100ca90602401600060405180830381600087803b158015611a9b57600080fd5b505af1158015611aaf573d6000803e3d6000fd5b505050505050565b61012f546040805163146ce76760e31b815290516000926001600160a01b03169163a3673b38916004808301926020929190829003018186803b158015611afd57600080fd5b505afa158015611b11573d6000803e3d6000fd5b505050506040513d601f19601f82011682018060405250810190610e7291906133c8565b611b4d600080516020613bbd83398151915233611057565b611b695760405162461bcd60e51b8152600401610aff90613709565b60fb546040516370a0823160e01b8152306004820152611beb916001600160a01b0316906370a082319060240160206040518083038186803b158015611bae57600080fd5b505afa158015611bc2573d6000803e3d6000fd5b505050506040513d601f19601f82011682018060405250810190611be691906133c8565b612878565b6040518181527f227a473b70d2f893cc7659219575c030a63b5743024fe1e0c1a680e708b1525a90602001610ee1565b600081516009811115611c3057611c30613a6e565b1415611ce357611c746040518060400160405280601c81526020017f6578656375746520616374696f6e204144445f4c4951554944495459000000008152506128da565b6020810151604051636a81d74360e11b815273__$f1db28ef1f42d06d74e80d58089eb1630e$__9163d503ae8691611cb0913091600401613653565b60006040518083038186803b158015611cc857600080fd5b505af4158015611cdc573d6000803e3d6000fd5b5050505050565b600181516009811115611cf857611cf8613a6e565b1415611dc757611d3c6040518060400160405280601f81526020017f6578656375746520616374696f6e2052454d4f56455f4c4951554944495459008152506128da565b602081015160405163a3b9f31360e01b815273__$f1db28ef1f42d06d74e80d58089eb1630e$__9163a3b9f31391611d78913091600401613653565b604080518083038186803b158015611d8f57600080fd5b505af4158015611da3573d6000803e3d6000fd5b505050506040513d601f19601f82011682018060405250810190610a8891906134df565b600281516009811115611ddc57611ddc613a6e565b1415611e3f57611e03604051806060016040528060248152602001613b51602491396128da565b6020810151604051633fa990c160e11b815273__$f1db28ef1f42d06d74e80d58089eb1630e$__91637f53218291611cb0913091600401613653565b600381516009811115611e5457611e54613a6e565b1415611eb757611e7b604051806060016040528060248152602001613bdd602491396128da565b6020810151604051635cebc61360e01b815273__$f1db28ef1f42d06d74e80d58089eb1630e$__91635cebc61391611cb0913091600401613653565b600481516009811115611ecc57611ecc613a6e565b1415611f2f57611ef3604051806060016040528060238152602001613b75602391396128da565b60208101516040516378b936bd60e01b815273__$f1db28ef1f42d06d74e80d58089eb1630e$__916378b936bd91611cb0913091600401613653565b600581516009811115611f4457611f44613a6e565b1415611fa757611f6b604051806060016040528060278152602001613ac6602791396128da565b6020810151604051637157222560e11b815273__$f1db28ef1f42d06d74e80d58089eb1630e$__9163e2ae444a91611cb0913091600401613653565b600681516009811115611fbc57611fbc613a6e565b141561201f57611fe3604051806060016040528060258152602001613b98602591396128da565b602081015160405163d999d0bb60e01b815273__$f1db28ef1f42d06d74e80d58089eb1630e$__9163d999d0bb91611cb0913091600401613653565b60078151600981111561203457612034613a6e565b14156120975761205b604051806060016040528060228152602001613b0f602291396128da565b60208101516040516346bc08e760e11b815273__$f1db28ef1f42d06d74e80d58089eb1630e$__91638d7811ce91611cb0913091600401613653565b6008815160098111156120ac576120ac613a6e565b1415612121576120d3604051806060016040528060228152602001613aed602291396128da565b602081015160408083015190516312d6b56360e01b81523060048201526024810192909252604482015273__$f1db28ef1f42d06d74e80d58089eb1630e$__906312d6b56390606401611cb0565b60098151600981111561213657612136613a6e565b1415610b125761215d604051806060016040528060228152602001613c21602291396128da565b602081015160408083015190516001622e7b5d60e21b031981523060048201526024810192909252604482015273__$f1db28ef1f42d06d74e80d58089eb1630e$__9063ff46128c90606401611cb0565b6121c6600080516020613bbd83398151915233611057565b6121e25760405162461bcd60e51b8152600401610aff90613709565b610b1261291d565b612202600080516020613b3183398151915233611057565b6122465760405162461bcd60e51b815260206004820152601560248201527414995cdd1c9a58dd1959081d1bc810d3d3951493d3605a1b6044820152606401610aff565b61014055565b60008281526065602052604090206001015461226781612402565b610a888383612492565b61227c600033611057565b6122bf5760405162461bcd60e51b81526020600482015260146024820152735265737472696374656420746f2061646d696e7360601b6044820152606401610aff565b6001600160a01b0381166123105760405162461bcd60e51b815260206004820152601860248201527716995c9bc81859191c995cdcc81b9bdd08185b1b1bddd95960421b6044820152606401610aff565b60fc5461233590600080516020613bbd833981519152906001600160a01b031661224c565b61234d600080516020613bbd83398151915282610a63565b60fc80546001600160a01b0319166001600160a01b0392909216919091179055565b6000612389600080516020613bbd83398151915233611057565b6123a55760405162461bcd60e51b8152600401610aff90613709565b60006123b08361298c565b90507f3ac0594a85a20354f9dc74f33728416d19ce00d04a406c108cc2dcf2cecea134816040516123e391815260200190565b60405180910390a190505b919050565b6001600160a01b03163b151590565b610b128133612b31565b6124168282611057565b610b8f5760008281526065602090815260408083206001600160a01b03851684529091529020805460ff1916600117905561244e3390565b6001600160a01b0316816001600160a01b0316837f2f8788117e7eff1d82e926ec794901d17c78024a50270940304540a733656f0d60405160405180910390a45050565b61249c8282611057565b15610b8f5760008281526065602090815260408083206001600160a01b0385168085529252808320805460ff1916905551339285917ff6391f5c32d9c69d2a47ea670b442974b53935d1edc7fd64eb21e047a839171b9190a45050565b7f189ab7a9244df0848122154315af71fe140f3db0fe014031783b0946b8c9d2e3610b8f81612402565b7f4910fdfa16fed3260ed0e7147f7cc6da11a60208b5b9406d12a635614ffd91435460ff161561255657610a8883612b95565b826001600160a01b03166352d1902d6040518163ffffffff1660e01b815260040160206040518083038186803b15801561258f57600080fd5b505afa9250505080156125bf575060408051601f3d908101601f191682019092526125bc918101906133c8565b60015b6126225760405162461bcd60e51b815260206004820152602e60248201527f45524331393637557067726164653a206e657720696d706c656d656e7461746960448201526d6f6e206973206e6f74205555505360901b6064820152608401610aff565b600080516020613c0183398151915281146126915760405162461bcd60e51b815260206004820152602960248201527f45524331393637557067726164653a20756e737570706f727465642070726f786044820152681a58589b195555525160ba1b6064820152608401610aff565b50610a88838383612c31565b60008054610100900460ff16156126e4578160ff1660011480156126c05750303b155b6126dc5760405162461bcd60e51b8152600401610aff906137d8565b506000919050565b60005460ff80841691161061270b5760405162461bcd60e51b8152600401610aff906137d8565b506000805460ff191660ff92909216919091179055600190565b6000612731600161269d565b90508015612749576000805461ff0019166101001790555b612751612c5c565b612759612c5c565b61276460003361240c565b610ea37f189ab7a9244df0848122154315af71fe140f3db0fe014031783b0946b8c9d2e33361240c565b61012f546000906001600160a01b0316632412744660026127b0856001612cc9565b6040518363ffffffff1660e01b81526004016127cd9291906136db565b600060405180830381600087803b1580156127e757600080fd5b505af11580156127fb573d6000803e3d6000fd5b5093949350505050565b6001600160a01b0381166128565760405162461bcd60e51b815260206004820152601860248201527716995c9bc81859191c995cdcc81b9bdd08185b1b1bddd95960421b6044820152606401610aff565b60fb80546001600160a01b0319166001600160a01b0392909216919091179055565b61012f546040516312093a2360e11b81526001600160a01b03909116906324127446906128ac9060019085906004016136db565b600060405180830381600087803b1580156128c657600080fd5b505af1158015611cdc573d6000803e3d6000fd5b610b12816040516024016128ee91906136f6565b60408051601f198184030181529190526020810180516001600160e01b031663104c13eb60e21b179052612cf3565b61012f546040516312093a2360e11b81526000916001600160a01b03169063241274469061295190849081906004016136db565b600060405180830381600087803b15801561296b57600080fd5b505af115801561297f573d6000803e3d6000fd5b5050505061014054905090565b6040805160018082528183019092526000918291906020808301908036833750506101335482519293506001600160a01b0316918391506000906129d2576129d2613a84565b6001600160a01b039283166020918202929092010152610137546040516331279d3d60e01b81529116906331279d3d90612a129030908590600401613605565b600060405180830381600087803b158015612a2c57600080fd5b505af1158015612a40573d6000803e3d6000fd5b5050610133546040516370a0823160e01b8152306004820152600093508392506001600160a01b03909116906370a082319060240160206040518083038186803b158015612a8d57600080fd5b505afa158015612aa1573d6000803e3d6000fd5b505050506040513d601f19601f82011682018060405250810190612ac591906133c8565b90508015612b295761013954610133546101315461013254600093612b19936001600160a01b0380831694918116939181169291169062ffffff600160a01b8204811691600160b81b900416308989612d14565b9050612b2581846138ce565b9250505b509392505050565b612b3b8282611057565b610b8f57612b53816001600160a01b03166014612ea3565b612b5e836020612ea3565b604051602001612b6f929190613590565b60408051601f198184030181529082905262461bcd60e51b8252610aff916004016136f6565b6001600160a01b0381163b612c025760405162461bcd60e51b815260206004820152602d60248201527f455243313936373a206e657720696d706c656d656e746174696f6e206973206e60448201526c1bdd08184818dbdb9d1c9858dd609a1b6064820152608401610aff565b600080516020613c0183398151915280546001600160a01b0319166001600160a01b0392909216919091179055565b612c3a8361303f565b600082511180612c475750805b15610a8857612c56838361307f565b50505050565b600054610100900460ff16612cc75760405162461bcd60e51b815260206004820152602b60248201527f496e697469616c697a61626c653a20636f6e7472616374206973206e6f74206960448201526a6e697469616c697a696e6760a81b6064820152608401610aff565b565b6000612710612cd883826138ce565b612ce290856139f6565b612cec91906138e6565b9392505050565b80516a636f6e736f6c652e6c6f67602083016000808483855afa5050505050565b60405163095ea7b360e01b81526000906001600160a01b038a169063095ea7b390612d45908d908790600401613653565b602060405180830381600087803b158015612d5f57600080fd5b505af1158015612d73573d6000803e3d6000fd5b505050506040513d601f19601f82011682018060405250810190612d979190613394565b50604080516080810182526bffffffffffffffffffffffff1960608c811b821660a08401526001600160e81b031960e88b811b821660b48601528d831b841660b78601528a901b1660cb8401528a811b90911660ce830152825180830360c201815260e28301845282526001600160a01b038781166020840152828401879052908201859052915163b858183f60e01b815290918c169063b858183f90612e42908490600401613826565b602060405180830381600087803b158015612e5c57600080fd5b505af1158015612e70573d6000803e3d6000fd5b505050506040513d601f19601f82011682018060405250810190612e9491906133c8565b9b9a5050505050505050505050565b60606000612eb28360026139f6565b612ebd9060026138ce565b67ffffffffffffffff811115612ed557612ed5613a9a565b6040519080825280601f01601f191660200182016040528015612eff576020820181803683370190505b509050600360fc1b81600081518110612f1a57612f1a613a84565b60200101906001600160f81b031916908160001a905350600f60fb1b81600181518110612f4957612f49613a84565b60200101906001600160f81b031916908160001a9053506000612f6d8460026139f6565b612f789060016138ce565b90505b6001811115612ff0576f181899199a1a9b1b9c1cb0b131b232b360811b85600f1660108110612fac57612fac613a84565b1a60f81b828281518110612fc257612fc2613a84565b60200101906001600160f81b031916908160001a90535060049490941c93612fe981613a41565b9050612f7b565b508315612cec5760405162461bcd60e51b815260206004820181905260248201527f537472696e67733a20686578206c656e67746820696e73756666696369656e746044820152606401610aff565b61304881612b95565b6040516001600160a01b038216907fbc7cd75a20ee27fd9adebab32041f755214dbc6bffa90cc0225b39da2e5c2d3b90600090a250565b60606001600160a01b0383163b6130e75760405162461bcd60e51b815260206004820152602660248201527f416464726573733a2064656c65676174652063616c6c20746f206e6f6e2d636f6044820152651b9d1c9858dd60d21b6064820152608401610aff565b600080846001600160a01b0316846040516131029190613574565b600060405180830381855af49150503d806000811461313d576040519150601f19603f3d011682016040523d82523d6000602084013e613142565b606091505b509150915061316a8282604051806060016040528060278152602001613c4360279139613173565b95945050505050565b60608315613182575081612cec565b8251156131925782518084602001fd5b8160405162461bcd60e51b8152600401610aff91906136f6565b805180151581146123ee57600080fd5b6000602082840312156131ce57600080fd5b8135612cec81613ab0565b6000602082840312156131eb57600080fd5b8151612cec81613ab0565b6000806040838503121561320957600080fd5b823561321481613ab0565b915060208381013567ffffffffffffffff8082111561323257600080fd5b818601915086601f83011261324657600080fd5b81358181111561325857613258613a9a565b61326a601f8201601f1916850161389d565b9150808252878482850101111561328057600080fd5b80848401858401376000848284010152508093505050509250929050565b600060208083850312156132b157600080fd5b825167ffffffffffffffff808211156132c957600080fd5b818501915085601f8301126132dd57600080fd5b8151818111156132ef576132ef613a9a565b6132fd848260051b0161389d565b8181528481019250838501600783901b8501860189101561331d57600080fd5b60009450845b8381101561338657608080838c03121561333b578687fd5b613343613874565b835161334e81613ab0565b8152838901518982015260408085015190820152606061336f8186016131ac565b908201528652948701949190910190600101613323565b509098975050505050505050565b6000602082840312156133a657600080fd5b612cec826131ac565b6000602082840312156133c157600080fd5b5035919050565b6000602082840312156133da57600080fd5b5051919050565b600080604083850312156133f457600080fd5b82359150602083013561340681613ab0565b809150509250929050565b60006020828403121561342357600080fd5b81356001600160e01b031981168114612cec57600080fd5b60006060828403121561344d57600080fd5b6040516060810181811067ffffffffffffffff8211171561347057613470613a9a565b6040528235600a811061348257600080fd5b8152602083810135908201526040928301359281019290925250919050565b600061020082840312156134b457600080fd5b50919050565b6000602082840312156134cc57600080fd5b813562ffffff81168114612cec57600080fd5b600080604083850312156134f257600080fd5b505080516020909101519092909150565b60006020828403121561351557600080fd5b815160ff81168114612cec57600080fd5b6000815180845261353e816020860160208601613a15565b601f01601f19169290920160200192915050565b6003811061357057634e487b7160e01b600052602160045260246000fd5b9052565b60008251613586818460208701613a15565b9190910192915050565b7f416363657373436f6e74726f6c3a206163636f756e74200000000000000000008152600083516135c8816017850160208801613a15565b7001034b99036b4b9b9b4b733903937b6329607d1b60179184019182015283516135f9816028840160208801613a15565b01602801949350505050565b6001600160a01b038381168252604060208084018290528451918401829052600092858201929091906060860190855b81811015613386578551851683529483019491830191600101613635565b6001600160a01b03929092168252602082015260400190565b602080825282518282018190526000919060409081850190868401855b828110156136ce57815180516001600160a01b031685528681015187860152858101518686015260609081015115159085015260809093019290850190600101613689565b5091979650505050505050565b604081016136e98285613552565b8260208301529392505050565b602081526000612cec6020830184613526565b60208082526017908201527f5265737472696374656420746f2045584348414e474552000000000000000000604082015260600190565b6020808252602c908201527f46756e6374696f6e206d7573742062652063616c6c6564207468726f7567682060408201526b19195b1959d85d1958d85b1b60a21b606082015260800190565b6020808252602c908201527f46756e6374696f6e206d7573742062652063616c6c6564207468726f7567682060408201526b6163746976652070726f787960a01b606082015260800190565b6020808252602e908201527f496e697469616c697a61626c653a20636f6e747261637420697320616c72656160408201526d191e481a5b9a5d1a585b1a5e995960921b606082015260800190565b60208152600082516080602084015261384260a0840182613526565b905060018060a01b03602085015116604084015260408401516060840152606084015160808401528091505092915050565b6040516080810167ffffffffffffffff8111828210171561389757613897613a9a565b60405290565b604051601f8201601f1916810167ffffffffffffffff811182821017156138c6576138c6613a9a565b604052919050565b600082198211156138e1576138e1613a58565b500190565b60008261390357634e487b7160e01b600052601260045260246000fd5b500490565b600181815b8085111561394357816000190482111561392957613929613a58565b8085161561393657918102915b93841c939080029061390d565b509250929050565b6000612cec60ff84168360008261396457506001610a5d565b8161397157506000610a5d565b81600181146139875760028114613991576139ad565b6001915050610a5d565b60ff8411156139a2576139a2613a58565b50506001821b610a5d565b5060208310610133831016604e8410600b84101617156139d0575081810a610a5d565b6139da8383613908565b80600019048211156139ee576139ee613a58565b029392505050565b6000816000190483118215151615613a1057613a10613a58565b500290565b60005b83811015613a30578181015183820152602001613a18565b83811115612c565750506000910152565b600081613a5057613a50613a58565b506000190190565b634e487b7160e01b600052601160045260246000fd5b634e487b7160e01b600052602160045260246000fd5b634e487b7160e01b600052603260045260246000fd5b634e487b7160e01b600052604160045260246000fd5b6001600160a01b0381168114610b1257600080fdfe6578656375746520616374696f6e2057495448445241575f41535345545f46524f4d5f414156456578656375746520616374696f6e20535741505f544f4b454e5f544f5f41535345546578656375746520616374696f6e2052455041595f544f4b454e5f544f5f41415645126c7c8716c8f1c7c73a7370c820c7d73a9b4ed0ad633cfce1092f9ff47c85746578656375746520616374696f6e20535741505f555344504c55535f544f5f41535345546578656375746520616374696f6e20535550504c595f41535345545f544f5f414156456578656375746520616374696f6e20424f52524f575f544f4b454e5f46524f4d5f414156453eb675f159e6ca6cf5de6bfbbc8c4521cfd428f5e9166e51094d5898504caf2d6578656375746520616374696f6e20535741505f41535345545f544f5f555344504c5553360894a13ba1a3210667c828492db98dca3e2076cc3735a920a3ca505d382bbc6578656375746520616374696f6e20535741505f41535345545f544f5f544f4b454e416464726573733a206c6f772d6c6576656c2064656c65676174652063616c6c206661696c6564a2646970667358221220df14d92f795892ed017ba15737ef85bc6fde69540583cf9258a1bf4d81540fd164736f6c63430008060033496e697469616c697a61626c653a20636f6e747261637420697320616c726561",
  "devdoc": {
    "kind": "dev",
    "methods": {
      "constructor": {
        "custom:oz-upgrades-unsafe-allow": "constructor"
      },
      "getRoleAdmin(bytes32)": {
        "details": "Returns the admin role that controls `role`. See {grantRole} and {revokeRole}. To change a role's admin, use {_setRoleAdmin}."
      },
      "grantRole(bytes32,address)": {
        "details": "Grants `role` to `account`. If `account` had not been already granted `role`, emits a {RoleGranted} event. Requirements: - the caller must have ``role``'s admin role."
      },
      "hasRole(bytes32,address)": {
        "details": "Returns `true` if `account` has been granted `role`."
      },
      "proxiableUUID()": {
        "details": "Implementation of the ERC1822 {proxiableUUID} function. This returns the storage slot used by the implementation. It is used to validate that the this implementation remains valid after an upgrade. IMPORTANT: A proxy pointing at a proxiable contract should not be considered proxiable itself, because this risks bricking a proxy that upgrades to it, by delegating to itself until out of gas. Thus it is critical that this function revert if invoked through a proxy. This is guaranteed by the `notDelegated` modifier."
      },
      "renounceRole(bytes32,address)": {
        "details": "Revokes `role` from the calling account. Roles are often managed via {grantRole} and {revokeRole}: this function's purpose is to provide a mechanism for accounts to lose their privileges if they are compromised (such as when a trusted device is misplaced). If the calling account had been revoked `role`, emits a {RoleRevoked} event. Requirements: - the caller must be `account`."
      },
      "revokeRole(bytes32,address)": {
        "details": "Revokes `role` from `account`. If `account` had been granted `role`, emits a {RoleRevoked} event. Requirements: - the caller must have ``role``'s admin role."
      },
      "supportsInterface(bytes4)": {
        "details": "See {IERC165-supportsInterface}."
      },
      "upgradeTo(address)": {
        "details": "Upgrade the implementation of the proxy to `newImplementation`. Calls {_authorizeUpgrade}. Emits an {Upgraded} event."
      },
      "upgradeToAndCall(address,bytes)": {
        "details": "Upgrade the implementation of the proxy to `newImplementation`, and subsequently execute the function call encoded in `data`. Calls {_authorizeUpgrade}. Emits an {Upgraded} event."
      }
    },
    "version": 1
  },
  "userdoc": {
    "kind": "user",
    "methods": {},
    "version": 1
  },
  "storageLayout": {
    "storage": [
      {
        "astId": 808,
        "contract": "contracts/StrategyWethUsdc.sol:StrategyWethUsdc",
        "label": "_initialized",
        "offset": 0,
        "slot": "0",
        "type": "t_uint8"
      },
      {
        "astId": 811,
        "contract": "contracts/StrategyWethUsdc.sol:StrategyWethUsdc",
        "label": "_initializing",
        "offset": 1,
        "slot": "0",
        "type": "t_bool"
      },
      {
        "astId": 1363,
        "contract": "contracts/StrategyWethUsdc.sol:StrategyWethUsdc",
        "label": "__gap",
        "offset": 0,
        "slot": "1",
        "type": "t_array(t_uint256)50_storage"
      },
      {
        "astId": 1670,
        "contract": "contracts/StrategyWethUsdc.sol:StrategyWethUsdc",
        "label": "__gap",
        "offset": 0,
        "slot": "51",
        "type": "t_array(t_uint256)50_storage"
      },
      {
        "astId": 39,
        "contract": "contracts/StrategyWethUsdc.sol:StrategyWethUsdc",
        "label": "_roles",
        "offset": 0,
        "slot": "101",
        "type": "t_mapping(t_bytes32,t_struct(RoleData)34_storage)"
      },
      {
        "astId": 338,
        "contract": "contracts/StrategyWethUsdc.sol:StrategyWethUsdc",
        "label": "__gap",
        "offset": 0,
        "slot": "102",
        "type": "t_array(t_uint256)49_storage"
      },
      {
        "astId": 790,
        "contract": "contracts/StrategyWethUsdc.sol:StrategyWethUsdc",
        "label": "__gap",
        "offset": 0,
        "slot": "151",
        "type": "t_array(t_uint256)50_storage"
      },
      {
        "astId": 1078,
        "contract": "contracts/StrategyWethUsdc.sol:StrategyWethUsdc",
        "label": "__gap",
        "offset": 0,
        "slot": "201",
        "type": "t_array(t_uint256)50_storage"
      },
      {
        "astId": 29249,
        "contract": "contracts/StrategyWethUsdc.sol:StrategyWethUsdc",
        "label": "asset",
        "offset": 0,
        "slot": "251",
        "type": "t_contract(IERC20)2347"
      },
      {
        "astId": 29251,
        "contract": "contracts/StrategyWethUsdc.sol:StrategyWethUsdc",
        "label": "exchanger",
        "offset": 0,
        "slot": "252",
        "type": "t_address"
      },
      {
        "astId": 29571,
        "contract": "contracts/StrategyWethUsdc.sol:StrategyWethUsdc",
        "label": "__gap",
        "offset": 0,
        "slot": "253",
        "type": "t_array(t_uint256)49_storage"
      },
      {
        "astId": 21510,
        "contract": "contracts/StrategyWethUsdc.sol:StrategyWethUsdc",
        "label": "exchange",
        "offset": 0,
        "slot": "302",
        "type": "t_contract(IExchange)16198"
      },
      {
        "astId": 21513,
        "contract": "contracts/StrategyWethUsdc.sol:StrategyWethUsdc",
        "label": "control",
        "offset": 0,
        "slot": "303",
        "type": "t_contract(ControlWethUsdc)28000"
      },
      {
        "astId": 21516,
        "contract": "contracts/StrategyWethUsdc.sol:StrategyWethUsdc",
        "label": "usdPlus",
        "offset": 0,
        "slot": "304",
        "type": "t_contract(IERC20)2347"
      },
      {
        "astId": 21519,
        "contract": "contracts/StrategyWethUsdc.sol:StrategyWethUsdc",
        "label": "weth",
        "offset": 0,
        "slot": "305",
        "type": "t_contract(IERC20)2347"
      },
      {
        "astId": 21522,
        "contract": "contracts/StrategyWethUsdc.sol:StrategyWethUsdc",
        "label": "usdc",
        "offset": 0,
        "slot": "306",
        "type": "t_contract(IERC20)2347"
      },
      {
        "astId": 21525,
        "contract": "contracts/StrategyWethUsdc.sol:StrategyWethUsdc",
        "label": "velo",
        "offset": 0,
        "slot": "307",
        "type": "t_contract(IERC20)2347"
      },
      {
        "astId": 21527,
        "contract": "contracts/StrategyWethUsdc.sol:StrategyWethUsdc",
        "label": "wethDm",
        "offset": 0,
        "slot": "308",
        "type": "t_uint256"
      },
      {
        "astId": 21529,
        "contract": "contracts/StrategyWethUsdc.sol:StrategyWethUsdc",
        "label": "usdcDm",
        "offset": 0,
        "slot": "309",
        "type": "t_uint256"
      },
      {
        "astId": 21532,
        "contract": "contracts/StrategyWethUsdc.sol:StrategyWethUsdc",
        "label": "router",
        "offset": 0,
        "slot": "310",
        "type": "t_contract(IRouter)15736"
      },
      {
        "astId": 21535,
        "contract": "contracts/StrategyWethUsdc.sol:StrategyWethUsdc",
        "label": "gauge",
        "offset": 0,
        "slot": "311",
        "type": "t_contract(IGauge)15804"
      },
      {
        "astId": 21538,
        "contract": "contracts/StrategyWethUsdc.sol:StrategyWethUsdc",
        "label": "pair",
        "offset": 0,
        "slot": "312",
        "type": "t_contract(IPair)15776"
      },
      {
        "astId": 21541,
        "contract": "contracts/StrategyWethUsdc.sol:StrategyWethUsdc",
        "label": "uniswapV3Router",
        "offset": 0,
        "slot": "313",
        "type": "t_contract(ISwapRouter)13238"
      },
      {
        "astId": 21543,
        "contract": "contracts/StrategyWethUsdc.sol:StrategyWethUsdc",
        "label": "poolFee0",
        "offset": 20,
        "slot": "313",
        "type": "t_uint24"
      },
      {
        "astId": 21545,
        "contract": "contracts/StrategyWethUsdc.sol:StrategyWethUsdc",
        "label": "poolFee1",
        "offset": 23,
        "slot": "313",
        "type": "t_uint24"
      },
      {
        "astId": 21548,
        "contract": "contracts/StrategyWethUsdc.sol:StrategyWethUsdc",
        "label": "aavePoolAddressesProvider",
        "offset": 0,
        "slot": "314",
        "type": "t_contract(IPoolAddressesProvider)4564"
      },
      {
        "astId": 21551,
        "contract": "contracts/StrategyWethUsdc.sol:StrategyWethUsdc",
        "label": "oracleWeth",
        "offset": 0,
        "slot": "315",
        "type": "t_contract(IPriceFeed)5074"
      },
      {
        "astId": 21554,
        "contract": "contracts/StrategyWethUsdc.sol:StrategyWethUsdc",
        "label": "oracleUsdc",
        "offset": 0,
        "slot": "316",
        "type": "t_contract(IPriceFeed)5074"
      },
      {
        "astId": 21556,
        "contract": "contracts/StrategyWethUsdc.sol:StrategyWethUsdc",
        "label": "tokenAssetSlippagePercent",
        "offset": 0,
        "slot": "317",
        "type": "t_uint256"
      },
      {
        "astId": 21558,
        "contract": "contracts/StrategyWethUsdc.sol:StrategyWethUsdc",
        "label": "liquidationThreshold",
        "offset": 0,
        "slot": "318",
        "type": "t_uint256"
      },
      {
        "astId": 21560,
        "contract": "contracts/StrategyWethUsdc.sol:StrategyWethUsdc",
        "label": "healthFactor",
        "offset": 0,
        "slot": "319",
        "type": "t_uint256"
      },
      {
        "astId": 21562,
        "contract": "contracts/StrategyWethUsdc.sol:StrategyWethUsdc",
        "label": "realHealthFactor",
        "offset": 0,
        "slot": "320",
        "type": "t_uint256"
      }
    ],
    "types": {
      "t_address": {
        "encoding": "inplace",
        "label": "address",
        "numberOfBytes": "20"
      },
      "t_array(t_uint256)49_storage": {
        "base": "t_uint256",
        "encoding": "inplace",
        "label": "uint256[49]",
        "numberOfBytes": "1568"
      },
      "t_array(t_uint256)50_storage": {
        "base": "t_uint256",
        "encoding": "inplace",
        "label": "uint256[50]",
        "numberOfBytes": "1600"
      },
      "t_bool": {
        "encoding": "inplace",
        "label": "bool",
        "numberOfBytes": "1"
      },
      "t_bytes32": {
        "encoding": "inplace",
        "label": "bytes32",
        "numberOfBytes": "32"
      },
      "t_contract(ControlWethUsdc)28000": {
        "encoding": "inplace",
        "label": "contract ControlWethUsdc",
        "numberOfBytes": "20"
      },
      "t_contract(IERC20)2347": {
        "encoding": "inplace",
        "label": "contract IERC20",
        "numberOfBytes": "20"
      },
      "t_contract(IExchange)16198": {
        "encoding": "inplace",
        "label": "contract IExchange",
        "numberOfBytes": "20"
      },
      "t_contract(IGauge)15804": {
        "encoding": "inplace",
        "label": "contract IGauge",
        "numberOfBytes": "20"
      },
      "t_contract(IPair)15776": {
        "encoding": "inplace",
        "label": "contract IPair",
        "numberOfBytes": "20"
      },
      "t_contract(IPoolAddressesProvider)4564": {
        "encoding": "inplace",
        "label": "contract IPoolAddressesProvider",
        "numberOfBytes": "20"
      },
      "t_contract(IPriceFeed)5074": {
        "encoding": "inplace",
        "label": "contract IPriceFeed",
        "numberOfBytes": "20"
      },
      "t_contract(IRouter)15736": {
        "encoding": "inplace",
        "label": "contract IRouter",
        "numberOfBytes": "20"
      },
      "t_contract(ISwapRouter)13238": {
        "encoding": "inplace",
        "label": "contract ISwapRouter",
        "numberOfBytes": "20"
      },
      "t_mapping(t_address,t_bool)": {
        "encoding": "mapping",
        "key": "t_address",
        "label": "mapping(address => bool)",
        "numberOfBytes": "32",
        "value": "t_bool"
      },
      "t_mapping(t_bytes32,t_struct(RoleData)34_storage)": {
        "encoding": "mapping",
        "key": "t_bytes32",
        "label": "mapping(bytes32 => struct AccessControlUpgradeable.RoleData)",
        "numberOfBytes": "32",
        "value": "t_struct(RoleData)34_storage"
      },
      "t_struct(RoleData)34_storage": {
        "encoding": "inplace",
        "label": "struct AccessControlUpgradeable.RoleData",
        "members": [
          {
            "astId": 31,
            "contract": "contracts/StrategyWethUsdc.sol:StrategyWethUsdc",
            "label": "members",
            "offset": 0,
            "slot": "0",
            "type": "t_mapping(t_address,t_bool)"
          },
          {
            "astId": 33,
            "contract": "contracts/StrategyWethUsdc.sol:StrategyWethUsdc",
            "label": "adminRole",
            "offset": 0,
            "slot": "1",
            "type": "t_bytes32"
          }
        ],
        "numberOfBytes": "64"
      },
      "t_uint24": {
        "encoding": "inplace",
        "label": "uint24",
        "numberOfBytes": "3"
      },
      "t_uint256": {
        "encoding": "inplace",
        "label": "uint256",
        "numberOfBytes": "32"
      },
      "t_uint8": {
        "encoding": "inplace",
        "label": "uint8",
        "numberOfBytes": "1"
      }
    }
  }
}