{
  "address": "0xcc9c1edae4D3b8d151Ebc56e749aD08b09f50248",
  "abi": [
    {
      "inputs": [],
      "stateMutability": "nonpayable",
      "type": "constructor"
    },
    {
      "anonymous": false,
      "inputs": [
        {
          "indexed": false,
          "internalType": "address",
          "name": "previousAdmin",
          "type": "address"
        },
        {
          "indexed": false,
          "internalType": "address",
          "name": "newAdmin",
          "type": "address"
        }
      ],
      "name": "AdminChanged",
      "type": "event"
    },
    {
      "anonymous": false,
      "inputs": [
        {
          "indexed": true,
          "internalType": "address",
          "name": "beacon",
          "type": "address"
        }
      ],
      "name": "BeaconUpgraded",
      "type": "event"
    },
    {
      "anonymous": false,
      "inputs": [
        {
          "indexed": false,
          "internalType": "uint8",
          "name": "version",
          "type": "uint8"
        }
      ],
      "name": "Initialized",
      "type": "event"
    },
    {
      "anonymous": false,
      "inputs": [
        {
          "indexed": false,
          "internalType": "address",
          "name": "value",
          "type": "address"
        }
      ],
      "name": "PortfolioManagerUpdated",
      "type": "event"
    },
    {
      "anonymous": false,
      "inputs": [
        {
          "indexed": false,
          "internalType": "uint256",
          "name": "amount",
          "type": "uint256"
        }
      ],
      "name": "Reward",
      "type": "event"
    },
    {
      "anonymous": false,
      "inputs": [
        {
          "indexed": true,
          "internalType": "bytes32",
          "name": "role",
          "type": "bytes32"
        },
        {
          "indexed": true,
          "internalType": "bytes32",
          "name": "previousAdminRole",
          "type": "bytes32"
        },
        {
          "indexed": true,
          "internalType": "bytes32",
          "name": "newAdminRole",
          "type": "bytes32"
        }
      ],
      "name": "RoleAdminChanged",
      "type": "event"
    },
    {
      "anonymous": false,
      "inputs": [
        {
          "indexed": true,
          "internalType": "bytes32",
          "name": "role",
          "type": "bytes32"
        },
        {
          "indexed": true,
          "internalType": "address",
          "name": "account",
          "type": "address"
        },
        {
          "indexed": true,
          "internalType": "address",
          "name": "sender",
          "type": "address"
        }
      ],
      "name": "RoleGranted",
      "type": "event"
    },
    {
      "anonymous": false,
      "inputs": [
        {
          "indexed": true,
          "internalType": "bytes32",
          "name": "role",
          "type": "bytes32"
        },
        {
          "indexed": true,
          "internalType": "address",
          "name": "account",
          "type": "address"
        },
        {
          "indexed": true,
          "internalType": "address",
          "name": "sender",
          "type": "address"
        }
      ],
      "name": "RoleRevoked",
      "type": "event"
    },
    {
      "anonymous": false,
      "inputs": [
        {
          "indexed": false,
          "internalType": "uint256",
          "name": "swapSlippageBP",
          "type": "uint256"
        },
        {
          "indexed": false,
          "internalType": "uint256",
          "name": "navSlippageBP",
          "type": "uint256"
        },
        {
          "indexed": false,
          "internalType": "uint256",
          "name": "stakeSlippageBP",
          "type": "uint256"
        }
      ],
      "name": "SlippagesUpdated",
      "type": "event"
    },
    {
      "anonymous": false,
      "inputs": [
        {
          "indexed": false,
          "internalType": "uint256",
          "name": "amount",
          "type": "uint256"
        }
      ],
      "name": "Stake",
      "type": "event"
    },
    {
      "anonymous": false,
      "inputs": [
        {
          "indexed": false,
          "internalType": "uint256",
          "name": "tokenId",
          "type": "uint256"
        }
      ],
      "name": "Staked",
      "type": "event"
    },
    {
      "anonymous": false,
      "inputs": [],
      "name": "StrategyUpdatedParams",
      "type": "event"
    },
    {
      "anonymous": false,
      "inputs": [
        {
          "indexed": false,
          "internalType": "string",
          "name": "message",
          "type": "string"
        }
      ],
      "name": "SwapErrorInternal",
      "type": "event"
    },
    {
      "anonymous": false,
      "inputs": [
        {
          "indexed": false,
          "internalType": "uint256",
          "name": "amount",
          "type": "uint256"
        },
        {
          "indexed": false,
          "internalType": "uint256",
          "name": "amountReceived",
          "type": "uint256"
        }
      ],
      "name": "Unstake",
      "type": "event"
    },
    {
      "anonymous": false,
      "inputs": [
        {
          "indexed": true,
          "internalType": "address",
          "name": "implementation",
          "type": "address"
        }
      ],
      "name": "Upgraded",
      "type": "event"
    },
    {
      "inputs": [],
      "name": "DEFAULT_ADMIN_ROLE",
      "outputs": [
        {
          "internalType": "bytes32",
          "name": "",
          "type": "bytes32"
        }
      ],
      "stateMutability": "view",
      "type": "function"
    },
    {
      "inputs": [],
      "name": "PORTFOLIO_AGENT_ROLE",
      "outputs": [
        {
          "internalType": "bytes32",
          "name": "",
          "type": "bytes32"
        }
      ],
      "stateMutability": "view",
      "type": "function"
    },
    {
      "inputs": [],
      "name": "PORTFOLIO_MANAGER",
      "outputs": [
        {
          "internalType": "bytes32",
          "name": "",
          "type": "bytes32"
        }
      ],
      "stateMutability": "view",
      "type": "function"
    },
    {
      "inputs": [
        {
          "internalType": "address",
          "name": "_to",
          "type": "address"
        }
      ],
      "name": "claimRewards",
      "outputs": [
        {
          "internalType": "uint256",
          "name": "",
          "type": "uint256"
        }
      ],
      "stateMutability": "nonpayable",
      "type": "function"
    },
    {
      "inputs": [
        {
          "internalType": "bytes32",
          "name": "role",
          "type": "bytes32"
        }
      ],
      "name": "getRoleAdmin",
      "outputs": [
        {
          "internalType": "bytes32",
          "name": "",
          "type": "bytes32"
        }
      ],
      "stateMutability": "view",
      "type": "function"
    },
    {
      "inputs": [
        {
          "internalType": "bytes32",
          "name": "role",
          "type": "bytes32"
        },
        {
          "internalType": "address",
          "name": "account",
          "type": "address"
        }
      ],
      "name": "grantRole",
      "outputs": [],
      "stateMutability": "nonpayable",
      "type": "function"
    },
    {
      "inputs": [
        {
          "internalType": "bytes32",
          "name": "role",
          "type": "bytes32"
        },
        {
          "internalType": "address",
          "name": "account",
          "type": "address"
        }
      ],
      "name": "hasRole",
      "outputs": [
        {
          "internalType": "bool",
          "name": "",
          "type": "bool"
        }
      ],
      "stateMutability": "view",
      "type": "function"
    },
    {
      "inputs": [],
      "name": "initialize",
      "outputs": [],
      "stateMutability": "nonpayable",
      "type": "function"
    },
    {
      "inputs": [],
      "name": "liquidationValue",
      "outputs": [
        {
          "internalType": "uint256",
          "name": "",
          "type": "uint256"
        }
      ],
      "stateMutability": "view",
      "type": "function"
    },
    {
      "inputs": [],
      "name": "name",
      "outputs": [
        {
          "internalType": "string",
          "name": "",
          "type": "string"
        }
      ],
      "stateMutability": "view",
      "type": "function"
    },
    {
      "inputs": [],
      "name": "navSlippageBP",
      "outputs": [
        {
          "internalType": "uint256",
          "name": "",
          "type": "uint256"
        }
      ],
      "stateMutability": "view",
      "type": "function"
    },
    {
      "inputs": [],
      "name": "netAssetValue",
      "outputs": [
        {
          "internalType": "uint256",
          "name": "",
          "type": "uint256"
        }
      ],
      "stateMutability": "view",
      "type": "function"
    },
    {
      "inputs": [
        {
          "internalType": "address",
          "name": "",
          "type": "address"
        },
        {
          "internalType": "address",
          "name": "",
          "type": "address"
        },
        {
          "internalType": "uint256",
          "name": "",
          "type": "uint256"
        },
        {
          "internalType": "bytes",
          "name": "",
          "type": "bytes"
        }
      ],
      "name": "onERC721Received",
      "outputs": [
        {
          "internalType": "bytes4",
          "name": "",
          "type": "bytes4"
        }
      ],
      "stateMutability": "pure",
      "type": "function"
    },
    {
      "inputs": [],
      "name": "portfolioManager",
      "outputs": [
        {
          "internalType": "address",
          "name": "",
          "type": "address"
        }
      ],
      "stateMutability": "view",
      "type": "function"
    },
    {
      "inputs": [],
      "name": "proxiableUUID",
      "outputs": [
        {
          "internalType": "bytes32",
          "name": "",
          "type": "bytes32"
        }
      ],
      "stateMutability": "view",
      "type": "function"
    },
    {
      "inputs": [
        {
          "internalType": "bytes32",
          "name": "role",
          "type": "bytes32"
        },
        {
          "internalType": "address",
          "name": "account",
          "type": "address"
        }
      ],
      "name": "renounceRole",
      "outputs": [],
      "stateMutability": "nonpayable",
      "type": "function"
    },
    {
      "inputs": [
        {
          "internalType": "bytes32",
          "name": "role",
          "type": "bytes32"
        },
        {
          "internalType": "address",
          "name": "account",
          "type": "address"
        }
      ],
      "name": "revokeRole",
      "outputs": [],
      "stateMutability": "nonpayable",
      "type": "function"
    },
    {
      "inputs": [],
      "name": "roleManager",
      "outputs": [
        {
          "internalType": "contract IRoleManager",
          "name": "",
          "type": "address"
        }
      ],
      "stateMutability": "view",
      "type": "function"
    },
    {
      "inputs": [
        {
          "components": [
            {
              "internalType": "address",
              "name": "pool",
              "type": "address"
            },
            {
              "internalType": "address",
              "name": "rewardSwapPool",
              "type": "address"
            },
            {
              "internalType": "int24[]",
              "name": "tickRange",
              "type": "int24[]"
            },
            {
              "internalType": "uint256",
              "name": "binSearchIterations",
              "type": "uint256"
            },
            {
              "internalType": "address",
              "name": "swapSimulatorAddress",
              "type": "address"
            },
            {
              "internalType": "address",
              "name": "npmAddress",
              "type": "address"
            },
            {
              "internalType": "address",
              "name": "aeroTokenAddress",
              "type": "address"
            },
            {
              "internalType": "uint256",
              "name": "rewardSwapSlippageBP",
              "type": "uint256"
            },
            {
              "internalType": "address",
              "name": "swapRouter",
              "type": "address"
            },
            {
              "internalType": "address",
              "name": "treasury",
              "type": "address"
            },
            {
              "internalType": "uint256",
              "name": "treasuryShare",
              "type": "uint256"
            }
          ],
          "internalType": "struct StrategyAerodromeSwapUsdc.StrategyParams",
          "name": "params",
          "type": "tuple"
        }
      ],
      "name": "setParams",
      "outputs": [],
      "stateMutability": "nonpayable",
      "type": "function"
    },
    {
      "inputs": [
        {
          "internalType": "uint256",
          "name": "_swapSlippageBP",
          "type": "uint256"
        },
        {
          "internalType": "uint256",
          "name": "_navSlippageBP",
          "type": "uint256"
        },
        {
          "internalType": "uint256",
          "name": "_stakeSlippageBP",
          "type": "uint256"
        }
      ],
      "name": "setSlippages",
      "outputs": [],
      "stateMutability": "nonpayable",
      "type": "function"
    },
    {
      "inputs": [
        {
          "internalType": "string",
          "name": "_name",
          "type": "string"
        }
      ],
      "name": "setStrategyName",
      "outputs": [],
      "stateMutability": "nonpayable",
      "type": "function"
    },
    {
      "inputs": [
        {
          "internalType": "address",
          "name": "_portfolioManager",
          "type": "address"
        },
        {
          "internalType": "address",
          "name": "_roleManager",
          "type": "address"
        },
        {
          "internalType": "string",
          "name": "_name",
          "type": "string"
        }
      ],
      "name": "setStrategyParams",
      "outputs": [],
      "stateMutability": "nonpayable",
      "type": "function"
    },
    {
      "inputs": [
        {
          "internalType": "address",
          "name": "_asset",
          "type": "address"
        },
        {
          "internalType": "uint256",
          "name": "_amount",
          "type": "uint256"
        }
      ],
      "name": "stake",
      "outputs": [],
      "stateMutability": "nonpayable",
      "type": "function"
    },
    {
      "inputs": [],
      "name": "stakeSlippageBP",
      "outputs": [
        {
          "internalType": "uint256",
          "name": "",
          "type": "uint256"
        }
      ],
      "stateMutability": "view",
      "type": "function"
    },
    {
      "inputs": [
        {
          "internalType": "bytes4",
          "name": "interfaceId",
          "type": "bytes4"
        }
      ],
      "name": "supportsInterface",
      "outputs": [
        {
          "internalType": "bool",
          "name": "",
          "type": "bool"
        }
      ],
      "stateMutability": "view",
      "type": "function"
    },
    {
      "inputs": [],
      "name": "swapSlippageBP",
      "outputs": [
        {
          "internalType": "uint256",
          "name": "",
          "type": "uint256"
        }
      ],
      "stateMutability": "view",
      "type": "function"
    },
    {
      "inputs": [
        {
          "internalType": "address",
          "name": "_asset",
          "type": "address"
        },
        {
          "internalType": "uint256",
          "name": "_amount",
          "type": "uint256"
        },
        {
          "internalType": "address",
          "name": "_beneficiary",
          "type": "address"
        },
        {
          "internalType": "bool",
          "name": "_targetIsZero",
          "type": "bool"
        }
      ],
      "name": "unstake",
      "outputs": [
        {
          "internalType": "uint256",
          "name": "",
          "type": "uint256"
        }
      ],
      "stateMutability": "nonpayable",
      "type": "function"
    },
    {
      "inputs": [
        {
          "internalType": "address",
          "name": "newImplementation",
          "type": "address"
        }
      ],
      "name": "upgradeTo",
      "outputs": [],
      "stateMutability": "nonpayable",
      "type": "function"
    },
    {
      "inputs": [
        {
          "internalType": "address",
          "name": "newImplementation",
          "type": "address"
        },
        {
          "internalType": "bytes",
          "name": "data",
          "type": "bytes"
        }
      ],
      "name": "upgradeToAndCall",
      "outputs": [],
      "stateMutability": "payable",
      "type": "function"
    }
  ],
  "numDeployments": 21,
  "solcInputHash": "f5a877d77c3041a114a94d41c93974c5",
  "bytecode": "0x60a0604052306080523480156200001557600080fd5b50600054610100900460ff1615808015620000375750600054600160ff909116105b8062000067575062000054306200014160201b620013f21760201c565b15801562000067575060005460ff166001145b620000cf5760405162461bcd60e51b815260206004820152602e60248201527f496e697469616c697a61626c653a20636f6e747261637420697320616c72656160448201526d191e481a5b9a5d1a585b1a5e995960921b606482015260840160405180910390fd5b6000805460ff191660011790558015620000f3576000805461ff0019166101001790555b80156200013a576000805461ff0019169055604051600181527f7f26b83ff96e1f2b6a682f133852f6798a09c465da95921460cefb38474024989060200160405180910390a15b5062000150565b6001600160a01b03163b151590565b608051615e4362000188600039600081816106a5015281816106e501528181610ad601528181610b160152610b8e0152615e436000f3fe6080604052600436106101765760003560e01c80635dbd733a116100cc578063adc9772e1161007a578063adc9772e14610443578063ae30c11014610463578063bf52e08014610483578063d547741f14610499578063ef5cfb8c146104b9578063f6f6b881146104d9578063fa2ae9ff146104f957600080fd5b80635dbd733a14610371578063620b75df146103a55780637d5f5802146103c55780638129fc1c146103f957806391d148541461040e578063a217fddf1461042e578063a3673b381461029c57600080fd5b80632f2ff15d116101295780632f2ff15d146102b157806336568abe146102d35780633659cfe6146102f357806339ff29fd146103135780634f1ef2861461033357806352d1902d146103465780635ca558f81461035b57600080fd5b8062435da51461017b57806301ffc9a7146101b157806306fdde03146101e1578063119cd87914610203578063150b7a0214610227578063248a9ca31461026c5780632576e65a1461029c575b600080fd5b34801561018757600080fd5b5060ff5461019b906001600160a01b031681565b6040516101a89190614c52565b60405180910390f35b3480156101bd57600080fd5b506101d16101cc366004614c66565b610519565b60405190151581526020016101a8565b3480156101ed57600080fd5b506101f6610550565b6040516101a89190614cb4565b34801561020f57600080fd5b5061021960fd5481565b6040519081526020016101a8565b34801561023357600080fd5b50610253610242366004614cfc565b630a85bd0160e11b95945050505050565b6040516001600160e01b031990911681526020016101a8565b34801561027857600080fd5b50610219610287366004614d9a565b60009081526065602052604090206001015490565b3480156102a857600080fd5b506102196105df565b3480156102bd57600080fd5b506102d16102cc366004614db3565b6105ee565b005b3480156102df57600080fd5b506102d16102ee366004614db3565b610618565b3480156102ff57600080fd5b506102d161030e366004614de3565b61069b565b34801561031f57600080fd5b506102d161032e366004614e00565b610763565b6102d1610341366004614eda565b610acc565b34801561035257600080fd5b50610219610b81565b34801561036757600080fd5b5061021960fe5481565b34801561037d57600080fd5b506102197fd67ad422505496469a1adf6cdf9e5ee92ac5d33992843c9ecc4b2f6d6cde913781565b3480156103b157600080fd5b5060fb5461019b906001600160a01b031681565b3480156103d157600080fd5b506102197f90c2aa7471c04182221f68e80c07ab1e5946e4c63f8693e14ca40385d529f05181565b34801561040557600080fd5b506102d1610c30565b34801561041a57600080fd5b506101d1610429366004614db3565b610d01565b34801561043a57600080fd5b50610219600081565b34801561044f57600080fd5b506102d161045e366004614f3d565b610d2c565b34801561046f57600080fd5b506102d161047e366004614f69565b610ef7565b34801561048f57600080fd5b5061021960fc5481565b3480156104a557600080fd5b506102d16104b4366004614db3565b611022565b3480156104c557600080fd5b506102196104d4366004614de3565b611047565b3480156104e557600080fd5b506102196104f4366004614fa3565b6110c3565b34801561050557600080fd5b506102d1610514366004614ff6565b61133c565b60006001600160e01b03198216637965db0b60e01b148061054a57506301ffc9a760e01b6001600160e01b03198316145b92915050565b610100805461055e9061506b565b80601f016020809104026020016040519081016040528092919081815260200182805461058a9061506b565b80156105d75780601f106105ac576101008083540402835291602001916105d7565b820191906000526020600020905b8154815290600101906020018083116105ba57829003601f168201915b505050505081565b60006105e9611401565b905090565b6000828152606560205260409020600101546106098161167f565b6106138383611689565b505050565b6001600160a01b038116331461068d5760405162461bcd60e51b815260206004820152602f60248201527f416363657373436f6e74726f6c3a2063616e206f6e6c792072656e6f756e636560448201526e103937b632b9903337b91039b2b63360891b60648201526084015b60405180910390fd5b610697828261170f565b5050565b6001600160a01b037f00000000000000000000000000000000000000000000000000000000000000001630036106e35760405162461bcd60e51b8152600401610684906150a5565b7f00000000000000000000000000000000000000000000000000000000000000006001600160a01b0316610715611776565b6001600160a01b03161461073b5760405162461bcd60e51b8152600401610684906150f1565b61074481611792565b604080516000808252602082019092526107609183919061179d565b50565b61076e600033610d01565b61078a5760405162461bcd60e51b81526004016106849061513d565b6107976020820182614de3565b61013480546001600160a01b0319166001600160a01b0392909216918217905560408051630dfe168160e01b81529051630dfe1681916004808201926020929091908290030181865afa1580156107f2573d6000803e3d6000fd5b505050506040513d601f19601f820116820180604052508101906108169190615176565b61012d80546001600160a01b0319166001600160a01b03928316179055610134546040805163d21220a760e01b81529051919092169163d21220a79160048083019260209291908290030181865afa158015610876573d6000803e3d6000fd5b505050506040513d601f19601f8201168201806040525081019061089a9190615176565b61012e80546001600160a01b0319166001600160a01b03929092169190911790556108cb6040820160208301614de3565b61013280546001600160a01b0319166001600160a01b03929092169190911790556108f96040820182615193565b6109069161013091614b92565b5060608101356101315561092060a0820160808301614de3565b61013680546001600160a01b0319166001600160a01b039290921691909117905561095160c0820160a08301614de3565b61013580546001600160a01b0319166001600160a01b0392831617905561013454604080516329bc672160e21b81529051919092169163a6f19c849160048083019260209291908290030181865afa1580156109b1573d6000803e3d6000fd5b505050506040513d601f19601f820116820180604052508101906109d59190615176565b61013780546001600160a01b0319166001600160a01b0392909216919091179055610a0660e0820160c08301614de3565b61012f80546001600160a01b0319166001600160a01b039290921691909117905560e081013561013355610a4261012082016101008301614de3565b61013980546001600160a01b0319166001600160a01b0392909216919091179055610a7561014082016101208301614de3565b61013a80546001600160a01b0319166001600160a01b039290921691909117905561014081013561013b556040517fea5646eb3528e525944447a4a97de700dd472298626e5c0481d1c82c3da86ea590600090a150565b6001600160a01b037f0000000000000000000000000000000000000000000000000000000000000000163003610b145760405162461bcd60e51b8152600401610684906150a5565b7f00000000000000000000000000000000000000000000000000000000000000006001600160a01b0316610b46611776565b6001600160a01b031614610b6c5760405162461bcd60e51b8152600401610684906150f1565b610b7582611792565b6106978282600161179d565b6000306001600160a01b037f00000000000000000000000000000000000000000000000000000000000000001614610c1c5760405162461bcd60e51b815260206004820152603860248201527f555550535570677261646561626c653a206d757374206e6f742062652063616c6044820152771b1959081d1a1c9bdd59da0819195b1959d85d1958d85b1b60421b6064820152608401610684565b50600080516020615dc78339815191525b90565b600054610100900460ff1615808015610c505750600054600160ff909116105b80610c715750610c5f306113f2565b158015610c71575060005460ff166001145b610c8d5760405162461bcd60e51b8152600401610684906151e3565b6000805460ff191660011790558015610cb0576000805461ff0019166101001790555b610cb8611908565b8015610760576000805461ff0019169055604051600181527f7f26b83ff96e1f2b6a682f133852f6798a09c465da95921460cefb3847402498906020015b60405180910390a150565b60009182526065602090815260408084206001600160a01b0393909316845291905290205460ff1690565b60fb546001600160a01b03163314610d565760405162461bcd60e51b815260040161068490615231565b6000610dc5306001600160a01b031663a3673b386040518163ffffffff1660e01b8152600401602060405180830381865afa158015610d99573d6000803e3d6000fd5b505050506040513d601f19601f82011682018060405250810190610dbd9190615268565b60fd546119f4565b9050610e3d83846001600160a01b03166370a08231306040518263ffffffff1660e01b8152600401610df79190614c52565b602060405180830381865afa158015610e14573d6000803e3d6000fd5b505050506040513d601f19601f82011682018060405250810190610e389190615268565b611a1e565b80306001600160a01b031663a3673b386040518163ffffffff1660e01b8152600401602060405180830381865afa158015610e7c573d6000803e3d6000fd5b505050506040513d601f19601f82011682018060405250810190610ea09190615268565b1015610ebe5760405162461bcd60e51b815260040161068490615281565b6040518281527f227a473b70d2f893cc7659219575c030a63b5743024fe1e0c1a680e708b1525a906020015b60405180910390a1505050565b60ff54604051632474521560e21b81527fd67ad422505496469a1adf6cdf9e5ee92ac5d33992843c9ecc4b2f6d6cde913760048201523360248201526001600160a01b03909116906391d1485490604401602060405180830381865afa158015610f65573d6000803e3d6000fd5b505050506040513d601f19601f82011682018060405250810190610f8991906152b8565b610fd55760405162461bcd60e51b815260206004820152601d60248201527f5265737472696374656420746f20506f7274666f6c696f204167656e740000006044820152606401610684565b60fc83905560fd82905560fe81905560408051848152602081018490529081018290527f116fbf1e97a2be629ad98abfb6c332733c8996c2dfb174dd2efe8440df381d1a90606001610eea565b60008281526065602052604090206001015461103d8161167f565b610613838361170f565b60fb546000906001600160a01b031633146110745760405162461bcd60e51b815260040161068490615231565b600061107f83611b0e565b905080156110bb576040518181527f3ac0594a85a20354f9dc74f33728416d19ce00d04a406c108cc2dcf2cecea1349060200160405180910390a15b90505b919050565b60fb546000906001600160a01b031633146110f05760405162461bcd60e51b815260040161068490615231565b6000611133306001600160a01b031663a3673b386040518163ffffffff1660e01b8152600401602060405180830381865afa158015610d99573d6000803e3d6000fd5b9050600080841561115a5761114786611b0e565b905061115388876122d0565b91506111c9565b61116588888861234a565b9150868210156111c95760405162461bcd60e51b815260206004820152602960248201527f52657475726e65642076616c7565206c657373207468616e2072657175657374604482015268195908185b5bdd5b9d60ba1b6064820152608401610684565b82306001600160a01b031663a3673b386040518163ffffffff1660e01b8152600401602060405180830381865afa158015611208573d6000803e3d6000fd5b505050506040513d601f19601f8201168201806040525081019061122c9190615268565b101561124a5760405162461bcd60e51b815260040161068490615281565b60405163a9059cbb60e01b81526001600160a01b0389169063a9059cbb9061127890899086906004016152d5565b6020604051808303816000875af1158015611297573d6000803e3d6000fd5b505050506040513d601f19601f820116820180604052508101906112bb91906152b8565b5060408051888152602081018490527f9045c2ac9b2026de8075f2701bbdde882cd5e830b3b1ead9a15b22f2b5b93742910160405180910390a1801561132f576040518181527f3ac0594a85a20354f9dc74f33728416d19ce00d04a406c108cc2dcf2cecea1349060200160405180910390a15b509150505b949350505050565b611347600033610d01565b6113635760405162461bcd60e51b81526004016106849061513d565b6001600160a01b0383166113895760405162461bcd60e51b8152600401610684906152ee565b6001600160a01b0382166113af5760405162461bcd60e51b8152600401610684906152ee565b60fb80546001600160a01b038086166001600160a01b03199283161790925560ff8054928516929091169190911790556101006113ec8282615366565b50505050565b6001600160a01b03163b151590565b61013854600090819081901561157c576101345460408051633850c7bd60e01b815290516000926001600160a01b031691633850c7bd9160048083019260c09291908290030181865afa15801561145c573d6000803e3d6000fd5b505050506040513d601f19601f820116820180604052508101906114809190615449565b5050610135546101385460405163133f757160e31b81529596506000956001600160a01b0390921694506399fbab8893506114c392509060040190815260200190565b61018060405180830381865afa1580156114e1573d6000803e3d6000fd5b505050506040513d601f19601f8201168201806040525081019061150591906154da565b505050509750505050505050506115748261155661013060008154811061152e5761152e6155bb565b90600052602060002090600a91828204019190066003029054906101000a900460020b612401565b61156e61013060018154811061152e5761152e6155bb565b846127cc565b909450925050505b61012e546040516370a0823160e01b81526000916001600160a01b0316906370a08231906115ae903090600401614c52565b602060405180830381865afa1580156115cb573d6000803e3d6000fd5b505050506040513d601f19601f820116820180604052508101906115ef9190615268565b61012d546040516370a0823160e01b81526001600160a01b03909116906370a0823190611620903090600401614c52565b602060405180830381865afa15801561163d573d6000803e3d6000fd5b505050506040513d601f19601f820116820180604052508101906116619190615268565b61166b84866155e7565b61167591906155e7565b61133491906155e7565b6107608133612868565b6116938282610d01565b6106975760008281526065602090815260408083206001600160a01b03851684529091529020805460ff191660011790556116cb3390565b6001600160a01b0316816001600160a01b0316837f2f8788117e7eff1d82e926ec794901d17c78024a50270940304540a733656f0d60405160405180910390a45050565b6117198282610d01565b156106975760008281526065602090815260408083206001600160a01b0385168085529252808320805460ff1916905551339285917ff6391f5c32d9c69d2a47ea670b442974b53935d1edc7fd64eb21e047a839171b9190a45050565b600080516020615dc7833981519152546001600160a01b031690565b60006106978161167f565b7f4910fdfa16fed3260ed0e7147f7cc6da11a60208b5b9406d12a635614ffd91435460ff16156117d057610613836128c1565b826001600160a01b03166352d1902d6040518163ffffffff1660e01b8152600401602060405180830381865afa92505050801561182a575060408051601f3d908101601f1916820190925261182791810190615268565b60015b61188d5760405162461bcd60e51b815260206004820152602e60248201527f45524331393637557067726164653a206e657720696d706c656d656e7461746960448201526d6f6e206973206e6f74205555505360901b6064820152608401610684565b600080516020615dc783398151915281146118fc5760405162461bcd60e51b815260206004820152602960248201527f45524331393637557067726164653a20756e737570706f727465642070726f786044820152681a58589b195555525160ba1b6064820152608401610684565b5061061383838361295b565b600054610100900460ff16158080156119285750600054600160ff909116105b806119495750611937306113f2565b158015611949575060005460ff166001145b6119655760405162461bcd60e51b8152600401610684906151e3565b6000805460ff191660011790558015611988576000805461ff0019166101001790555b611990612980565b611998612980565b6119a3600033611689565b601460fc81905560fd55600460fe558015610760576000805461ff0019169055604051600181527f7f26b83ff96e1f2b6a682f133852f6798a09c465da95921460cefb384740249890602001610cf6565b6000612710611a0383826155fa565b611a0d908561560d565b611a17919061563a565b9392505050565b61012d546040516370a0823160e01b8152610697916001600160a01b0316906370a0823190611a51903090600401614c52565b602060405180830381865afa158015611a6e573d6000803e3d6000fd5b505050506040513d601f19601f82011682018060405250810190611a929190615268565b61012e546040516370a0823160e01b81526001600160a01b03909116906370a0823190611ac3903090600401614c52565b602060405180830381865afa158015611ae0573d6000803e3d6000fd5b505050506040513d601f19601f82011682018060405250810190611b049190615268565b60008060016129ed565b600061013854600003611b2357506000919050565b61012d546040516370a0823160e01b81526000916001600160a01b0316906370a0823190611b55903090600401614c52565b602060405180830381865afa158015611b72573d6000803e3d6000fd5b505050506040513d601f19601f82011682018060405250810190611b969190615268565b610137546101385460405163c69deec560e01b81529293506001600160a01b039091169163c69deec591611bcf913091906004016152d5565b602060405180830381865afa158015611bec573d6000803e3d6000fd5b505050506040513d601f19601f82011682018060405250810190611c1091906152b8565b15611c7f576101375461013854604051632e1a7d4d60e01b81526001600160a01b0390921691632e1a7d4d91611c4c9160040190815260200190565b600060405180830381600087803b158015611c6657600080fd5b505af1158015611c7a573d6000803e3d6000fd5b505050505b611c87613426565b61013b5461012f546040516370a0823160e01b81526000926127109290916001600160a01b03909116906370a0823190611cc5903090600401614c52565b602060405180830381865afa158015611ce2573d6000803e3d6000fd5b505050506040513d601f19601f82011682018060405250810190611d069190615268565b611d10919061560d565b611d1a919061563a565b61012f546040516370a0823160e01b815291925060009183916001600160a01b0316906370a0823190611d51903090600401614c52565b602060405180830381865afa158015611d6e573d6000803e3d6000fd5b505050506040513d601f19601f82011682018060405250810190611d929190615268565b611d9c91906155fa565b61012e546040516370a0823160e01b81529192506000916001600160a01b03909116906370a0823190611dd3903090600401614c52565b602060405180830381865afa158015611df0573d6000803e3d6000fd5b505050506040513d601f19601f82011682018060405250810190611e149190615268565b90508115611f2c576101395461012f5461012d5461013254600093611e4e936001600160a01b0391821693908216929082169116876134e0565b90508015611eae576101395461012f5461012d546101325461013354611eac946001600160a01b03908116948116938116921690889061271090611e9290826155fa565b611e9c908961560d565b611ea6919061563a565b30613754565b505b61012f5461013a5460405163a9059cbb60e01b81526001600160a01b039283169263a9059cbb92611ee69291169088906004016152d5565b6020604051808303816000875af1158015611f05573d6000803e3d6000fd5b505050506040513d601f19601f82011682018060405250810190611f2991906152b8565b50505b801561201e5761012e546101365460405163a9059cbb60e01b81526001600160a01b039283169263a9059cbb92611f6a9291169085906004016152d5565b6020604051808303816000875af1158015611f89573d6000803e3d6000fd5b505050506040513d601f19601f82011682018060405250810190611fad91906152b8565b50610136546101345460405163e25d44d160e01b81526001600160a01b039283169263e25d44d192611feb929116908590600090819060040161564e565b600060405180830381600087803b15801561200557600080fd5b505af1158015612019573d6000803e3d6000fd5b505050505b6101365461013454604051630fa09e6360e41b81526001600160a01b039283169263fa09e6309261205492911690600401614c52565b600060405180830381600087803b15801561206e57600080fd5b505af1158015612082573d6000803e3d6000fd5b50506101365461013254604051630fa09e6360e41b81526001600160a01b03928316945063fa09e63093506120bd9290911690600401614c52565b600060405180830381600087803b1580156120d757600080fd5b505af11580156120eb573d6000803e3d6000fd5b505061012d546040516370a0823160e01b8152600093508792506001600160a01b03909116906370a0823190612125903090600401614c52565b602060405180830381865afa158015612142573d6000803e3d6000fd5b505050506040513d601f19601f820116820180604052508101906121669190615268565b61217091906155fa565b905080156121f05761012d5460405163a9059cbb60e01b81526001600160a01b039091169063a9059cbb906121ab908a9085906004016152d5565b6020604051808303816000875af11580156121ca573d6000803e3d6000fd5b505050506040513d601f19601f820116820180604052508101906121ee91906152b8565b505b61013554610137546101385460405163095ea7b360e01b81526001600160a01b039384169363095ea7b39361222a939116916004016152d5565b600060405180830381600087803b15801561224457600080fd5b505af1158015612258573d6000803e3d6000fd5b5050610137546101385460405163b6b55f2560e01b81526001600160a01b03909216935063b6b55f2592506122939160040190815260200190565b600060405180830381600087803b1580156122ad57600080fd5b505af11580156122c1573d6000803e3d6000fd5b50929998505050505050505050565b61012d546000906001600160a01b03848116911614806122fe575061012e546001600160a01b038481169116145b61231a5760405162461bcd60e51b815260040161068490615678565b6101385460000361233d5760405162461bcd60e51b8152600401610684906156af565b611a178360006001613a44565b61012d546000906001600160a01b0385811691161480612378575061012e546001600160a01b038581169116145b6123945760405162461bcd60e51b815260040161068490615678565b600083116123d25760405162461bcd60e51b815260206004820152600b60248201526a0416d6f756e7420697320360ac1b6044820152606401610684565b610138546000036123f55760405162461bcd60e51b8152600401610684906156af565b61133484846000613a44565b60008060008360020b12612418578260020b612425565b8260020b612425906156d3565b905060008160011660000361243e57600160801b612450565b6ffffcb933bd6fad37aa2d162d1a5940015b6001600160881b031690506002821615612485576080612480826ffff97272373d413259a46990580e213a61560d565b901c90505b60048216156124af5760806124aa826ffff2e50f5f656932ef12357cf3c7fdcc61560d565b901c90505b60088216156124d95760806124d4826fffe5caca7e10e4e61c3624eaa0941cd061560d565b901c90505b60108216156125035760806124fe826fffcb9843d60f6159c9db58835c92664461560d565b901c90505b602082161561252d576080612528826fff973b41fa98c081472e6896dfb254c061560d565b901c90505b6040821615612557576080612552826fff2ea16466c96a3843ec78b326b5286161560d565b901c90505b608082161561258157608061257c826ffe5dee046a99a2a811c461f1969c305361560d565b901c90505b6101008216156125ac5760806125a7826ffcbe86c7900a88aedcffc83b479aa3a461560d565b901c90505b6102008216156125d75760806125d2826ff987a7253ac413176f2b074cf7815e5461560d565b901c90505b6104008216156126025760806125fd826ff3392b0822b70005940c7a398e4b70f361560d565b901c90505b61080082161561262d576080612628826fe7159475a2c29b7443b29c7fa6e889d961560d565b901c90505b611000821615612658576080612653826fd097f3bdfd2022b8845ad8f792aa582561560d565b901c90505b61200082161561268357608061267e826fa9f746462d870fdf8a65dc1f90e061e561560d565b901c90505b6140008216156126ae5760806126a9826f70d869a156d2a1b890bb3df62baf32f761560d565b901c90505b6180008216156126d95760806126d4826f31be135f97d08fd981231505542fcfa661560d565b901c90505b62010000821615612705576080612700826f09aa508b5b7a84e1c677de54f3e99bc961560d565b901c90505b6202000082161561273057608061272b826e5d6af8dedb81196699c329225ee60461560d565b901c90505b6204000082161561275a576080612755826d2216e584f5fa1ea926041bedfe9861560d565b901c90505b6208000082161561278257608061277d826b048a170391f7dc42444e8fa261560d565b901c90505b60008460020b131561279d5761279a8160001961563a565b90505b6127ac640100000000826156ef565b156127b85760016127bb565b60005b6113349060ff16602083901c6155e7565b600080836001600160a01b0316856001600160a01b031611156127ed579293925b846001600160a01b0316866001600160a01b0316116128185761281185858561417f565b915061285f565b836001600160a01b0316866001600160a01b031610156128515761283d86858561417f565b915061284a8587856141e9565b905061285f565b61285c8585856141e9565b90505b94509492505050565b6128728282610d01565b6106975761287f81614233565b61288a836020614245565b60405160200161289b929190615703565b60408051601f198184030181529082905262461bcd60e51b825261068491600401614cb4565b6128ca816113f2565b61292c5760405162461bcd60e51b815260206004820152602d60248201527f455243313936373a206e657720696d706c656d656e746174696f6e206973206e60448201526c1bdd08184818dbdb9d1c9858dd609a1b6064820152608401610684565b600080516020615dc783398151915280546001600160a01b0319166001600160a01b0392909216919091179055565b612964836143e0565b6000825111806129715750805b15610613576113ec8383614420565b600054610100900460ff166129eb5760405162461bcd60e51b815260206004820152602b60248201527f496e697469616c697a61626c653a20636f6e7472616374206973206e6f74206960448201526a6e697469616c697a696e6760a81b6064820152608401610684565b565b61012d546101365460405163a9059cbb60e01b81526001600160a01b039283169263a9059cbb92612a259291169089906004016152d5565b6020604051808303816000875af1158015612a44573d6000803e3d6000fd5b505050506040513d601f19601f82011682018060405250810190612a6891906152b8565b5061012e546101365460405163a9059cbb60e01b81526001600160a01b039283169263a9059cbb92612aa19291169088906004016152d5565b6020604051808303816000875af1158015612ac0573d6000803e3d6000fd5b505050506040513d601f19601f82011682018060405250810190612ae491906152b8565b506000612af2868684614445565b90508015612b6a57610136546101345460405163e25d44d160e01b81526001600160a01b039283169263e25d44d192612b37929116908590600090889060040161564e565b600060405180830381600087803b158015612b5157600080fd5b505af1158015612b65573d6000803e3d6000fd5b505050505b6101365461013454604051630fa09e6360e41b81526001600160a01b039283169263fa09e63092612ba092911690600401614c52565b600060405180830381600087803b158015612bba57600080fd5b505af1158015612bce573d6000803e3d6000fd5b505061012d546040516370a0823160e01b81528793506001600160a01b0390911691506370a0823190612c05903090600401614c52565b602060405180830381865afa158015612c22573d6000803e3d6000fd5b505050506040513d601f19601f82011682018060405250810190612c469190615268565b612c5091906155fa565b61012e546040516370a0823160e01b815291975084916001600160a01b03909116906370a0823190612c86903090600401614c52565b602060405180830381865afa158015612ca3573d6000803e3d6000fd5b505050506040513d601f19601f82011682018060405250810190612cc79190615268565b612cd191906155fa565b61012d546101355460405163095ea7b360e01b81529297506001600160a01b039182169263095ea7b392612d0b9216908a906004016152d5565b6020604051808303816000875af1158015612d2a573d6000803e3d6000fd5b505050506040513d601f19601f82011682018060405250810190612d4e91906152b8565b5061012e546101355460405163095ea7b360e01b81526001600160a01b039283169263095ea7b392612d879291169089906004016152d5565b6020604051808303816000875af1158015612da6573d6000803e3d6000fd5b505050506040513d601f19601f82011682018060405250810190612dca91906152b8565b506101385460000361319a5760408051610180810180835261013454630dfe168160e01b909152915160009282916001600160a01b0390911690630dfe168190610184808501916020918187030181865afa158015612e2d573d6000803e3d6000fd5b505050506040513d601f19601f82011682018060405250810190612e519190615176565b6001600160a01b0316815260200161013460009054906101000a90046001600160a01b03166001600160a01b031663d21220a76040518163ffffffff1660e01b8152600401602060405180830381865afa158015612eb3573d6000803e3d6000fd5b505050506040513d601f19601f82011682018060405250810190612ed79190615176565b6001600160a01b0316815260200161013460009054906101000a90046001600160a01b03166001600160a01b031663d0c93a7c6040518163ffffffff1660e01b8152600401602060405180830381865afa158015612f39573d6000803e3d6000fd5b505050506040513d601f19601f82011682018060405250810190612f5d9190615772565b60020b8152602001610130600081548110612f7a57612f7a6155bb565b90600052602060002090600a91828204019190066003029054906101000a900460020b60020b8152602001610130600181548110612fba57612fba6155bb565b60009182526020808320600a8084049091015492066003026101000a90910460020b835282018a905260408083018a905260608301829052608083018290523060a08401524260c084015260e09092015261013554905163b5007d1f60e01b81529192506001600160a01b03169063b5007d1f9061303c90849060040161578d565b6080604051808303816000875af115801561305b573d6000803e3d6000fd5b505050506040513d601f19601f8201168201806040525081019061307f9190615866565b505050610138819055610135546101375460405163095ea7b360e01b81526001600160a01b039283169363095ea7b3936130bd9316916004016152d5565b600060405180830381600087803b1580156130d757600080fd5b505af11580156130eb573d6000803e3d6000fd5b5050610137546101385460405163b6b55f2560e01b81526001600160a01b03909216935063b6b55f2592506131269160040190815260200190565b600060405180830381600087803b15801561314057600080fd5b505af1158015613154573d6000803e3d6000fd5b505050507feebbaa86c348cb664e392b180fd0ff2e1998af9fa833ef69a778cb0b42d3ca276101385460405161318c91815260200190565b60405180910390a15061341e565b610137546101385460405163c69deec560e01b81526001600160a01b039092169163c69deec5916131d0913091906004016152d5565b602060405180830381865afa1580156131ed573d6000803e3d6000fd5b505050506040513d601f19601f8201168201806040525081019061321191906152b8565b15613280576101375461013854604051632e1a7d4d60e01b81526001600160a01b0390921691632e1a7d4d9161324d9160040190815260200190565b600060405180830381600087803b15801561326757600080fd5b505af115801561327b573d6000803e3d6000fd5b505050505b6040805160c08101825261013854815260208101888152818301888152600060608401818152608085019182524260a0860190815261013554965163219f5d1760e01b81528651600482015294516024860152925160448501525160648401525160848301525160a482015290916001600160a01b03169063219f5d179060c4016060604051808303816000875af1158015613320573d6000803e3d6000fd5b505050506040513d601f19601f8201168201806040525081019061334491906158a2565b505061013554610137546101385460405163095ea7b360e01b81526001600160a01b03938416945063095ea7b393613381931691906004016152d5565b600060405180830381600087803b15801561339b57600080fd5b505af11580156133af573d6000803e3d6000fd5b5050610137546101385460405163b6b55f2560e01b81526001600160a01b03909216935063b6b55f2592506133ea9160040190815260200190565b600060405180830381600087803b15801561340457600080fd5b505af1158015613418573d6000803e3d6000fd5b50505050505b505050505050565b6040805160808101825261013854815230602082019081526001600160801b038284018181526060840182815261013554955163fc6f786560e01b81528551600482015293516001600160a01b0390811660248601529151831660448501525190911660648301529192919091169063fc6f78659060840160408051808303816000875af11580156134bc573d6000803e3d6000fd5b505050506040513d601f19601f8201168201806040525081019061061391906158d7565b604080516001808252818301909252600091829190816020015b6040805160808101825260008082526020808301829052928201819052606082015282526000199092019101816134fa5790505090508581600081518110613544576135446155bb565b6020026020010151600001906001600160a01b031690816001600160a01b031681525050848160008151811061357c5761357c6155bb565b6020026020010151602001906001600160a01b031690816001600160a01b031681525050836001600160a01b03166322be3de16040518163ffffffff1660e01b8152600401602060405180830381865afa1580156135de573d6000803e3d6000fd5b505050506040513d601f19601f8201168201806040525081019061360291906152b8565b81600081518110613615576136156155bb565b60200260200101516040019015159081151581525050836001600160a01b031663c45a01556040518163ffffffff1660e01b8152600401602060405180830381865afa158015613669573d6000803e3d6000fd5b505050506040513d601f19601f8201168201806040525081019061368d9190615176565b816000815181106136a0576136a06155bb565b60209081029190910101516001600160a01b03918216606090910152604051631542686b60e21b8152600091891690635509a1ac906136e59087908690600401615966565b600060405180830381865afa158015613702573d6000803e3d6000fd5b505050506040513d6000823e601f3d908101601f1916820160405261372a919081019061597f565b90508060018151811061373f5761373f6155bb565b60200260200101519250505095945050505050565b60405163095ea7b360e01b81526000906001600160a01b0388169063095ea7b390613785908b9088906004016152d5565b6020604051808303816000875af11580156137a4573d6000803e3d6000fd5b505050506040513d601f19601f820116820180604052508101906137c891906152b8565b50604080516001808252818301909252600091816020015b6040805160808101825260008082526020808301829052928201819052606082015282526000199092019101816137e0579050509050878160008151811061382a5761382a6155bb565b6020026020010151600001906001600160a01b031690816001600160a01b0316815250508681600081518110613862576138626155bb565b6020026020010151602001906001600160a01b031690816001600160a01b031681525050856001600160a01b03166322be3de16040518163ffffffff1660e01b8152600401602060405180830381865afa1580156138c4573d6000803e3d6000fd5b505050506040513d601f19601f820116820180604052508101906138e891906152b8565b816000815181106138fb576138fb6155bb565b60200260200101516040019015159081151581525050856001600160a01b031663c45a01556040518163ffffffff1660e01b8152600401602060405180830381865afa15801561394f573d6000803e3d6000fd5b505050506040513d601f19601f820116820180604052508101906139739190615176565b81600081518110613986576139866155bb565b60209081029190910101516001600160a01b0391821660609091015260405163cac88ea960e01b81526000918b169063cac88ea9906139d1908990899087908a904290600401615a25565b6000604051808303816000875af11580156139f0573d6000803e3d6000fd5b505050506040513d6000823e601f3d908101601f19168201604052613a18919081019061597f565b905080600181518110613a2d57613a2d6155bb565b602002602001015192505050979650505050505050565b610137546101385460405163c69deec560e01b81526000926001600160a01b03169163c69deec591613a7a9130916004016152d5565b602060405180830381865afa158015613a97573d6000803e3d6000fd5b505050506040513d601f19601f82011682018060405250810190613abb91906152b8565b15613b2a576101375461013854604051632e1a7d4d60e01b81526001600160a01b0390921691632e1a7d4d91613af79160040190815260200190565b600060405180830381600087803b158015613b1157600080fd5b505af1158015613b25573d6000803e3d6000fd5b505050505b610135546101385460405163133f757160e31b815260048101919091526000916001600160a01b0316906399fbab889060240161018060405180830381865afa158015613b7b573d6000803e3d6000fd5b505050506040513d601f19601f82011682018060405250810190613b9f91906154da565b50505050975050505050505050806001600160801b0316600003613bc7576000915050611a17565b6040805160a0810182526101385481526001600160801b03838116602083019081526000838501818152606085019182524260808601908152610135549651630624e65f60e11b815286516004820152935190941660248401525160448301525160648201529051608482015290916001600160a01b031690630c49ccbe9060a40160408051808303816000875af1158015613c67573d6000803e3d6000fd5b505050506040513d601f19601f82011682018060405250810190613c8b91906158d7565b5050613c95613426565b83613eb35761012d546040516370a0823160e01b81526000916001600160a01b0316906370a0823190613ccc903090600401614c52565b602060405180830381865afa158015613ce9573d6000803e3d6000fd5b505050506040513d601f19601f82011682018060405250810190613d0d9190615268565b61012e546040516370a0823160e01b81529192506000916001600160a01b03909116906370a0823190613d44903090600401614c52565b602060405180830381865afa158015613d61573d6000803e3d6000fd5b505050506040513d601f19601f82011682018060405250810190613d859190615268565b905060008088841115613da657613d9c89856155fa565b9350889150613e9c565b61012e546101365460405163a9059cbb60e01b81526001600160a01b039283169263a9059cbb92613dde9291169087906004016152d5565b6020604051808303816000875af1158015613dfd573d6000803e3d6000fd5b505050506040513d601f19601f82011682018060405250810190613e2191906152b8565b5061013654610134546001600160a01b039182169163e25d44d19116613e47878d6155fa565b6000806040518563ffffffff1660e01b8152600401613e69949392919061564e565b600060405180830381600087803b158015613e8357600080fd5b505af1158015613e97573d6000803e3d6000fd5b505050505b613eaa8484848460006129ed565b50505050614108565b6101355461013854604051630852cd8d60e31b81526001600160a01b03909216916342966c6891613eea9160040190815260200190565b600060405180830381600087803b158015613f0457600080fd5b505af1158015613f18573d6000803e3d6000fd5b5050600061013855505061012d546001600160a01b039081169087160361409f5761012e546040516370a0823160e01b81526001600160a01b03909116906370a0823190613f6a903090600401614c52565b602060405180830381865afa158015613f87573d6000803e3d6000fd5b505050506040513d601f19601f82011682018060405250810190613fab9190615268565b9450841561409f5761012e546101365460405163a9059cbb60e01b81526001600160a01b039283169263a9059cbb92613feb9291169089906004016152d5565b6020604051808303816000875af115801561400a573d6000803e3d6000fd5b505050506040513d601f19601f8201168201806040525081019061402e91906152b8565b50610136546101345460405163e25d44d160e01b81526001600160a01b039283169263e25d44d19261406c929116908990600090819060040161564e565b600060405180830381600087803b15801561408657600080fd5b505af115801561409a573d6000803e3d6000fd5b505050505b6101365461013454604051630fa09e6360e41b81526001600160a01b039283169263fa09e630926140d592911690600401614c52565b600060405180830381600087803b1580156140ef57600080fd5b505af1158015614103573d6000803e3d6000fd5b505050505b6040516370a0823160e01b81526001600160a01b038716906370a0823190614134903090600401614c52565b602060405180830381865afa158015614151573d6000803e3d6000fd5b505050506040513d601f19601f820116820180604052508101906141759190615268565b9695505050505050565b6000826001600160a01b0316846001600160a01b0316111561419f579192915b6001600160a01b0384166141df600160601b600160e01b03606085901b166141c78787615a61565b6001600160a01b0316866001600160a01b03166149ba565b611334919061563a565b6000826001600160a01b0316846001600160a01b03161115614209579192915b6113346001600160801b0383166142208686615a61565b6001600160a01b0316600160601b6149ba565b606061054a6001600160a01b03831660145b6060600061425483600261560d565b61425f9060026155e7565b6001600160401b0381111561427657614276614e3b565b6040519080825280601f01601f1916602001820160405280156142a0576020820181803683370190505b509050600360fc1b816000815181106142bb576142bb6155bb565b60200101906001600160f81b031916908160001a905350600f60fb1b816001815181106142ea576142ea6155bb565b60200101906001600160f81b031916908160001a905350600061430e84600261560d565b6143199060016155e7565b90505b6001811115614391576f181899199a1a9b1b9c1cb0b131b232b360811b85600f166010811061434d5761434d6155bb565b1a60f81b828281518110614363576143636155bb565b60200101906001600160f81b031916908160001a90535060049490941c9361438a81615a88565b905061431c565b508315611a175760405162461bcd60e51b815260206004820181905260248201527f537472696e67733a20686578206c656e67746820696e73756666696369656e746044820152606401610684565b6143e9816128c1565b6040516001600160a01b038216907fbc7cd75a20ee27fd9adebab32041f755214dbc6bffa90cc0225b39da2e5c2d3b90600090a250565b6060611a178383604051806060016040528060278152602001615de760279139614a68565b600061446b60405180606001604052806000815260200160008152602001600081525090565b821561456f57610134546040805163d21220a760e01b815290516000926001600160a01b03169163d21220a79160048083019260209291908290030181865afa1580156144bc573d6000803e3d6000fd5b505050506040513d601f19601f820116820180604052508101906144e09190615176565b610134546040516370a0823160e01b81526001600160a01b03928316926370a082319261451292911690600401614c52565b602060405180830381865afa15801561452f573d6000803e3d6000fd5b505050506040513d601f19601f820116820180604052508101906145539190615268565b90508581116145625780614564565b855b602083015250614669565b6101345460408051630dfe168160e01b815290516000926001600160a01b031691630dfe16819160048083019260209291908290030181865afa1580156145ba573d6000803e3d6000fd5b505050506040513d601f19601f820116820180604052508101906145de9190615176565b610134546040516370a0823160e01b81526001600160a01b03928316926370a082319261461092911690600401614c52565b602060405180830381865afa15801561462d573d6000803e3d6000fd5b505050506040513d601f19601f820116820180604052508101906146519190615268565b90508481116146605780614662565b845b6020830152505b60005b610131548110156149ad576020820151825160029161468a916155e7565b614694919061563a565b60408301819052156149ad57610136546101345460408085015190516379bf8c2d60e01b81526001600160a01b03938416936379bf8c2d936146e4939116916000908a9061013090600401615a9f565b600060405180830381600087803b1580156146fe57600080fd5b505af192505050801561470f575060015b61499b5761471b615cb7565b806308c379a003614777575061472f615cd2565b8061473a5750614779565b7fcfe5be2eb0e35083a07a1b03709c019a1bb2714d5df326008632b8e4e78e7529816040516147699190614cb4565b60405180910390a1506149ad565b505b3d8080156147a3576040519150601f19603f3d011682016040523d82523d6000602084013e6147a8565b606091505b5060408051600480825260a08201909252828201916000919060208201608080368337019050509050818060200190518101906147e59190615d5b565b846000815181106147f8576147f86155bb565b6020026020010185600181518110614812576148126155bb565b602002602001018660028151811061482c5761482c6155bb565b6020026020010187600381518110614846576148466155bb565b60209081029190910101939093529290915291905252805181906003908110614871576148716155bb565b602002602001015160000361488f5760408501516020860152614997565b60008761490f5761490a826001815181106148ac576148ac6155bb565b6020026020010151836000815181106148c7576148c76155bb565b6020026020010151846003815181106148e2576148e26155bb565b6020026020010151856002815181106148fd576148fd6155bb565b6020026020010151614ad6565b614976565b61497682600081518110614925576149256155bb565b602002602001015183600181518110614940576149406155bb565b60200260200101518460028151811061495b5761495b6155bb565b6020026020010151856003815181106148fd576148fd6155bb565b9050801561498a5760408601518652614995565b604086015160208701525b505b5050505b806149a581615d91565b91505061466c565b5060400151949350505050565b60008080600019858709858702925082811083820303915050806000036149f357600084116149e857600080fd5b508290049050611a17565b8084116149ff57600080fd5b60008486880960026001871981018816978890046003810283188082028403028082028403028082028403028082028403028082028403029081029092039091026000889003889004909101858311909403939093029303949094049190911702949350505050565b6060600080856001600160a01b031685604051614a859190615daa565b600060405180830381855af49150503d8060008114614ac0576040519150601f19603f3d011682016040523d82523d6000602084013e614ac5565b606091505b509150915061417586838387614af6565b6000614ae2838561560d565b614aec838761560d565b1195945050505050565b60608315614b63578251600003614b5c57614b10856113f2565b614b5c5760405162461bcd60e51b815260206004820152601d60248201527f416464726573733a2063616c6c20746f206e6f6e2d636f6e74726163740000006044820152606401610684565b5081611334565b6113348383815115614b785781518083602001fd5b8060405162461bcd60e51b81526004016106849190614cb4565b82805482825590600052602060002090600901600a90048101928215614c2d5791602002820160005b83821115614bfc57825462ffffff8535811661010084900a908102910219909116178355602093840193600582010492830192600103600390910102614bbb565b8015614c2b5782816101000a81549062ffffff0219169055600301602081600201049283019260010302614bfc565b505b50614c39929150614c3d565b5090565b5b80821115614c395760008155600101614c3e565b6001600160a01b0391909116815260200190565b600060208284031215614c7857600080fd5b81356001600160e01b031981168114611a1757600080fd5b60005b83811015614cab578181015183820152602001614c93565b50506000910152565b6020815260008251806020840152614cd3816040850160208701614c90565b601f01601f19169190910160400192915050565b6001600160a01b038116811461076057600080fd5b600080600080600060808688031215614d1457600080fd5b8535614d1f81614ce7565b94506020860135614d2f81614ce7565b93506040860135925060608601356001600160401b0380821115614d5257600080fd5b818801915088601f830112614d6657600080fd5b813581811115614d7557600080fd5b896020828501011115614d8757600080fd5b9699959850939650602001949392505050565b600060208284031215614dac57600080fd5b5035919050565b60008060408385031215614dc657600080fd5b823591506020830135614dd881614ce7565b809150509250929050565b600060208284031215614df557600080fd5b8135611a1781614ce7565b600060208284031215614e1257600080fd5b81356001600160401b03811115614e2857600080fd5b82016101608185031215611a1757600080fd5b634e487b7160e01b600052604160045260246000fd5b601f8201601f191681016001600160401b0381118282101715614e7657614e76614e3b565b6040525050565b60006001600160401b03831115614e9657614e96614e3b565b604051614ead601f8501601f191660200182614e51565b809150838152848484011115614ec257600080fd5b83836020830137600060208583010152509392505050565b60008060408385031215614eed57600080fd5b8235614ef881614ce7565b915060208301356001600160401b03811115614f1357600080fd5b8301601f81018513614f2457600080fd5b614f3385823560208401614e7d565b9150509250929050565b60008060408385031215614f5057600080fd5b8235614f5b81614ce7565b946020939093013593505050565b600080600060608486031215614f7e57600080fd5b505081359360208301359350604090920135919050565b801515811461076057600080fd5b60008060008060808587031215614fb957600080fd5b8435614fc481614ce7565b9350602085013592506040850135614fdb81614ce7565b91506060850135614feb81614f95565b939692955090935050565b60008060006060848603121561500b57600080fd5b833561501681614ce7565b9250602084013561502681614ce7565b915060408401356001600160401b0381111561504157600080fd5b8401601f8101861361505257600080fd5b61506186823560208401614e7d565b9150509250925092565b600181811c9082168061507f57607f821691505b60208210810361509f57634e487b7160e01b600052602260045260246000fd5b50919050565b6020808252602c908201527f46756e6374696f6e206d7573742062652063616c6c6564207468726f7567682060408201526b19195b1959d85d1958d85b1b60a21b606082015260800190565b6020808252602c908201527f46756e6374696f6e206d7573742062652063616c6c6564207468726f7567682060408201526b6163746976652070726f787960a01b606082015260800190565b6020808252601490820152735265737472696374656420746f2061646d696e7360601b604082015260600190565b80516110be81614ce7565b60006020828403121561518857600080fd5b8151611a1781614ce7565b6000808335601e198436030181126151aa57600080fd5b8301803591506001600160401b038211156151c457600080fd5b6020019150600581901b36038213156151dc57600080fd5b9250929050565b6020808252602e908201527f496e697469616c697a61626c653a20636f6e747261637420697320616c72656160408201526d191e481a5b9a5d1a585b1a5e995960921b606082015260800190565b6020808252601f908201527f5265737472696374656420746f20504f5254464f4c494f5f4d414e4147455200604082015260600190565b60006020828403121561527a57600080fd5b5051919050565b6020808252601f908201527f5374726174656779204e4156206c657373207468616e20657870656374656400604082015260600190565b6000602082840312156152ca57600080fd5b8151611a1781614f95565b6001600160a01b03929092168252602082015260400190565b60208082526018908201527716995c9bc81859191c995cdcc81b9bdd08185b1b1bddd95960421b604082015260600190565b601f82111561061357600081815260208120601f850160051c810160208610156153475750805b601f850160051c820191505b8181101561341e57828155600101615353565b81516001600160401b0381111561537f5761537f614e3b565b6153938161538d845461506b565b84615320565b602080601f8311600181146153c857600084156153b05750858301515b600019600386901b1c1916600185901b17855561341e565b600085815260208120601f198616915b828110156153f7578886015182559484019460019091019084016153d8565b50858210156154155787850151600019600388901b60f8161c191681555b5050505050600190811b01905550565b8051600281900b81146110be57600080fd5b805161ffff811681146110be57600080fd5b60008060008060008060c0878903121561546257600080fd5b865161546d81614ce7565b955061547b60208801615425565b945061548960408801615437565b935061549760608801615437565b92506154a560808801615437565b915060a08701516154b581614f95565b809150509295509295509295565b80516001600160801b03811681146110be57600080fd5b6000806000806000806000806000806000806101808d8f0312156154fd57600080fd5b8c516bffffffffffffffffffffffff8116811461551957600080fd5b9b5061552760208e0161516b565b9a5061553560408e0161516b565b995061554360608e0161516b565b985061555160808e01615425565b975061555f60a08e01615425565b965061556d60c08e01615425565b955061557b60e08e016154c3565b94506101008d015193506101208d0151925061559a6101408e016154c3565b91506155a96101608e016154c3565b90509295989b509295989b509295989b565b634e487b7160e01b600052603260045260246000fd5b634e487b7160e01b600052601160045260246000fd5b8082018082111561054a5761054a6155d1565b8181038181111561054a5761054a6155d1565b808202811582820484141761054a5761054a6155d1565b634e487b7160e01b600052601260045260246000fd5b60008261564957615649615624565b500490565b6001600160a01b039485168152602081019390935292166040820152901515606082015260800190565b6020808252601e908201527f536f6d6520746f6b656e7320617265206e6f7420636f6d70617469626c650000604082015260600190565b6020808252600a9082015269139bdd081cdd185ad95960b21b604082015260600190565b6000600160ff1b82016156e8576156e86155d1565b5060000390565b6000826156fe576156fe615624565b500690565b76020b1b1b2b9b9a1b7b73a3937b61d1030b1b1b7bab73a1604d1b815260008351615735816017850160208801614c90565b7001034b99036b4b9b9b4b733903937b6329607d1b6017918401918201528351615766816028840160208801614c90565b01602801949350505050565b60006020828403121561578457600080fd5b611a1782615425565b81516001600160a01b03168152610180810160208301516157b960208401826001600160a01b03169052565b5060408301516157ce604084018260020b9052565b5060608301516157e3606084018260020b9052565b5060808301516157f8608084018260020b9052565b5060a083015160a083015260c083015160c083015260e083015160e08301526101008084015181840152506101208084015161583e828501826001600160a01b03169052565b50506101408381015190830152610160928301516001600160a01b0316929091019190915290565b6000806000806080858703121561587c57600080fd5b8451935061588c602086016154c3565b6040860151606090960151949790965092505050565b6000806000606084860312156158b757600080fd5b6158c0846154c3565b925060208401519150604084015190509250925092565b600080604083850312156158ea57600080fd5b505080516020909101519092909150565b600081518084526020808501945080840160005b8381101561595b57815180516001600160a01b039081168952848201518116858a01526040808301511515908a015260609182015116908801526080909601959082019060010161590f565b509495945050505050565b82815260406020820152600061133460408301846158fb565b6000602080838503121561599257600080fd5b82516001600160401b03808211156159a957600080fd5b818501915085601f8301126159bd57600080fd5b8151818111156159cf576159cf614e3b565b8060051b91506040516159e485840182614e51565b818152918301840191848101888411156159fd57600080fd5b938501935b83851015615a195784518152938501938501615a02565b50979650505050505050565b85815284602082015260a060408201526000615a4460a08301866158fb565b6001600160a01b0394909416606083015250608001529392505050565b6001600160a01b03828116828216039080821115615a8157615a816155d1565b5092915050565b600081615a9757615a976155d1565b506000190190565b600060a080830160018060a01b03808a168552602089818701526040828a1681880152606092508815158388015260808581890152848954615ae5818890815260200190565b60008c81526020812098509092505b81600982011015615ba3578754600281810b8552601882901c810b88860152603082901c810b87860152604882901c810b8986015281891c810b86860152607882901c810b8b86015260c0615b528187018460901c840b60020b9052565b615b6660e087018460a81c840b60020b9052565b82811c820b60020b61010087015250615b8a61012086018360d81c830b60020b9052565b5050600197909701966101409290920191600a01615af4565b8754985081811015615bbe57600289900b8352918501916001015b81811015615bd857601889901c60020b8352918501916001015b81811015615bf257603089901c60020b8352918501916001015b81811015615c0c57604889901c60020b8352918501916001015b81811015615c245788871c60020b8352918501916001015b81811015615c3e57607889901c60020b8352918501916001015b81811015615c5857609089901c60020b8352918501916001015b81811015615c725760a889901c60020b8352918501916001015b81811015615c8c5760c089901c60020b8352918501916001015b81811015615ca35760d889901c60020b8352918501915b50909e9d5050505050505050505050505050565b600060033d1115610c2d5760046000803e5060005160e01c90565b600060443d1015615ce05790565b6040516003193d81016004833e81513d6001600160401b038160248401118184111715615d0f57505050505090565b8285019150815181811115615d275750505050505090565b843d8701016020828501011115615d415750505050505090565b615d5060208286010187614e51565b509095945050505050565b60008060008060808587031215615d7157600080fd5b505082516020840151604085015160609095015191969095509092509050565b600060018201615da357615da36155d1565b5060010190565b60008251615dbc818460208701614c90565b919091019291505056fe360894a13ba1a3210667c828492db98dca3e2076cc3735a920a3ca505d382bbc416464726573733a206c6f772d6c6576656c2064656c65676174652063616c6c206661696c6564a2646970667358221220de7d462825bf66d57f4a6dbf46309bfac9b9a3ed1b87c55655eb5e9f9aac9eeb64736f6c63430008110033",
  "implementation": "0x1236f2Bae307d9EFa1b055C2577613e07b1aaFa9",
  "devdoc": {
    "kind": "dev",
    "methods": {
      "constructor": {
        "custom:oz-upgrades-unsafe-allow": "constructor"
      },
      "getRoleAdmin(bytes32)": {
        "details": "Returns the admin role that controls `role`. See {grantRole} and {revokeRole}. To change a role's admin, use {_setRoleAdmin}."
      },
      "grantRole(bytes32,address)": {
        "details": "Grants `role` to `account`. If `account` had not been already granted `role`, emits a {RoleGranted} event. Requirements: - the caller must have ``role``'s admin role. May emit a {RoleGranted} event."
      },
      "hasRole(bytes32,address)": {
        "details": "Returns `true` if `account` has been granted `role`."
      },
      "proxiableUUID()": {
        "details": "Implementation of the ERC1822 {proxiableUUID} function. This returns the storage slot used by the implementation. It is used to validate the implementation's compatibility when performing an upgrade. IMPORTANT: A proxy pointing at a proxiable contract should not be considered proxiable itself, because this risks bricking a proxy that upgrades to it, by delegating to itself until out of gas. Thus it is critical that this function revert if invoked through a proxy. This is guaranteed by the `notDelegated` modifier."
      },
      "renounceRole(bytes32,address)": {
        "details": "Revokes `role` from the calling account. Roles are often managed via {grantRole} and {revokeRole}: this function's purpose is to provide a mechanism for accounts to lose their privileges if they are compromised (such as when a trusted device is misplaced). If the calling account had been revoked `role`, emits a {RoleRevoked} event. Requirements: - the caller must be `account`. May emit a {RoleRevoked} event."
      },
      "revokeRole(bytes32,address)": {
        "details": "Revokes `role` from `account`. If `account` had been granted `role`, emits a {RoleRevoked} event. Requirements: - the caller must have ``role``'s admin role. May emit a {RoleRevoked} event."
      },
      "supportsInterface(bytes4)": {
        "details": "See {IERC165-supportsInterface}."
      },
      "upgradeTo(address)": {
        "custom:oz-upgrades-unsafe-allow-reachable": "delegatecall",
        "details": "Upgrade the implementation of the proxy to `newImplementation`. Calls {_authorizeUpgrade}. Emits an {Upgraded} event."
      },
      "upgradeToAndCall(address,bytes)": {
        "custom:oz-upgrades-unsafe-allow-reachable": "delegatecall",
        "details": "Upgrade the implementation of the proxy to `newImplementation`, and subsequently execute the function call encoded in `data`. Calls {_authorizeUpgrade}. Emits an {Upgraded} event."
      }
    },
    "version": 1
  },
  "userdoc": {
    "kind": "user",
    "methods": {},
    "version": 1
  },
  "storageLayout": {
    "storage": [
      {
        "astId": 782,
        "contract": "contracts/usdc/StrategyAerodromeSwapUsdc.sol:StrategyAerodromeSwapUsdc",
        "label": "_initialized",
        "offset": 0,
        "slot": "0",
        "type": "t_uint8"
      },
      {
        "astId": 785,
        "contract": "contracts/usdc/StrategyAerodromeSwapUsdc.sol:StrategyAerodromeSwapUsdc",
        "label": "_initializing",
        "offset": 1,
        "slot": "0",
        "type": "t_bool"
      },
      {
        "astId": 1461,
        "contract": "contracts/usdc/StrategyAerodromeSwapUsdc.sol:StrategyAerodromeSwapUsdc",
        "label": "__gap",
        "offset": 0,
        "slot": "1",
        "type": "t_array(t_uint256)50_storage"
      },
      {
        "astId": 1845,
        "contract": "contracts/usdc/StrategyAerodromeSwapUsdc.sol:StrategyAerodromeSwapUsdc",
        "label": "__gap",
        "offset": 0,
        "slot": "51",
        "type": "t_array(t_uint256)50_storage"
      },
      {
        "astId": 28,
        "contract": "contracts/usdc/StrategyAerodromeSwapUsdc.sol:StrategyAerodromeSwapUsdc",
        "label": "_roles",
        "offset": 0,
        "slot": "101",
        "type": "t_mapping(t_bytes32,t_struct(RoleData)23_storage)"
      },
      {
        "astId": 335,
        "contract": "contracts/usdc/StrategyAerodromeSwapUsdc.sol:StrategyAerodromeSwapUsdc",
        "label": "__gap",
        "offset": 0,
        "slot": "102",
        "type": "t_array(t_uint256)49_storage"
      },
      {
        "astId": 764,
        "contract": "contracts/usdc/StrategyAerodromeSwapUsdc.sol:StrategyAerodromeSwapUsdc",
        "label": "__gap",
        "offset": 0,
        "slot": "151",
        "type": "t_array(t_uint256)50_storage"
      },
      {
        "astId": 1080,
        "contract": "contracts/usdc/StrategyAerodromeSwapUsdc.sol:StrategyAerodromeSwapUsdc",
        "label": "__gap",
        "offset": 0,
        "slot": "201",
        "type": "t_array(t_uint256)50_storage"
      },
      {
        "astId": 8560,
        "contract": "contracts/usdc/StrategyAerodromeSwapUsdc.sol:StrategyAerodromeSwapUsdc",
        "label": "portfolioManager",
        "offset": 0,
        "slot": "251",
        "type": "t_address"
      },
      {
        "astId": 8562,
        "contract": "contracts/usdc/StrategyAerodromeSwapUsdc.sol:StrategyAerodromeSwapUsdc",
        "label": "swapSlippageBP",
        "offset": 0,
        "slot": "252",
        "type": "t_uint256"
      },
      {
        "astId": 8564,
        "contract": "contracts/usdc/StrategyAerodromeSwapUsdc.sol:StrategyAerodromeSwapUsdc",
        "label": "navSlippageBP",
        "offset": 0,
        "slot": "253",
        "type": "t_uint256"
      },
      {
        "astId": 8566,
        "contract": "contracts/usdc/StrategyAerodromeSwapUsdc.sol:StrategyAerodromeSwapUsdc",
        "label": "stakeSlippageBP",
        "offset": 0,
        "slot": "254",
        "type": "t_uint256"
      },
      {
        "astId": 8569,
        "contract": "contracts/usdc/StrategyAerodromeSwapUsdc.sol:StrategyAerodromeSwapUsdc",
        "label": "roleManager",
        "offset": 0,
        "slot": "255",
        "type": "t_contract(IRoleManager)8970"
      },
      {
        "astId": 8571,
        "contract": "contracts/usdc/StrategyAerodromeSwapUsdc.sol:StrategyAerodromeSwapUsdc",
        "label": "name",
        "offset": 0,
        "slot": "256",
        "type": "t_string_storage"
      },
      {
        "astId": 8957,
        "contract": "contracts/usdc/StrategyAerodromeSwapUsdc.sol:StrategyAerodromeSwapUsdc",
        "label": "__gap",
        "offset": 0,
        "slot": "257",
        "type": "t_array(t_uint256)44_storage"
      },
      {
        "astId": 9115,
        "contract": "contracts/usdc/StrategyAerodromeSwapUsdc.sol:StrategyAerodromeSwapUsdc",
        "label": "usdc",
        "offset": 0,
        "slot": "301",
        "type": "t_contract(IERC20)2987"
      },
      {
        "astId": 9118,
        "contract": "contracts/usdc/StrategyAerodromeSwapUsdc.sol:StrategyAerodromeSwapUsdc",
        "label": "usdcPlus",
        "offset": 0,
        "slot": "302",
        "type": "t_contract(IERC20)2987"
      },
      {
        "astId": 9121,
        "contract": "contracts/usdc/StrategyAerodromeSwapUsdc.sol:StrategyAerodromeSwapUsdc",
        "label": "aero",
        "offset": 0,
        "slot": "303",
        "type": "t_contract(IERC20)2987"
      },
      {
        "astId": 9124,
        "contract": "contracts/usdc/StrategyAerodromeSwapUsdc.sol:StrategyAerodromeSwapUsdc",
        "label": "tickRange",
        "offset": 0,
        "slot": "304",
        "type": "t_array(t_int24)dyn_storage"
      },
      {
        "astId": 9126,
        "contract": "contracts/usdc/StrategyAerodromeSwapUsdc.sol:StrategyAerodromeSwapUsdc",
        "label": "binSearchIterations",
        "offset": 0,
        "slot": "305",
        "type": "t_uint256"
      },
      {
        "astId": 9129,
        "contract": "contracts/usdc/StrategyAerodromeSwapUsdc.sol:StrategyAerodromeSwapUsdc",
        "label": "rewardSwapPool",
        "offset": 0,
        "slot": "306",
        "type": "t_contract(ICLPool)7351"
      },
      {
        "astId": 9131,
        "contract": "contracts/usdc/StrategyAerodromeSwapUsdc.sol:StrategyAerodromeSwapUsdc",
        "label": "rewardSwapSlippageBP",
        "offset": 0,
        "slot": "307",
        "type": "t_uint256"
      },
      {
        "astId": 9134,
        "contract": "contracts/usdc/StrategyAerodromeSwapUsdc.sol:StrategyAerodromeSwapUsdc",
        "label": "pool",
        "offset": 0,
        "slot": "308",
        "type": "t_contract(ICLPool)7351"
      },
      {
        "astId": 9137,
        "contract": "contracts/usdc/StrategyAerodromeSwapUsdc.sol:StrategyAerodromeSwapUsdc",
        "label": "npm",
        "offset": 0,
        "slot": "309",
        "type": "t_contract(INonfungiblePositionManager)7593"
      },
      {
        "astId": 9140,
        "contract": "contracts/usdc/StrategyAerodromeSwapUsdc.sol:StrategyAerodromeSwapUsdc",
        "label": "swapSimulator",
        "offset": 0,
        "slot": "310",
        "type": "t_contract(ISwapSimulator)9108"
      },
      {
        "astId": 9143,
        "contract": "contracts/usdc/StrategyAerodromeSwapUsdc.sol:StrategyAerodromeSwapUsdc",
        "label": "gauge",
        "offset": 0,
        "slot": "311",
        "type": "t_contract(ICLGauge)7118"
      },
      {
        "astId": 9145,
        "contract": "contracts/usdc/StrategyAerodromeSwapUsdc.sol:StrategyAerodromeSwapUsdc",
        "label": "stakedTokenId",
        "offset": 0,
        "slot": "312",
        "type": "t_uint256"
      },
      {
        "astId": 9147,
        "contract": "contracts/usdc/StrategyAerodromeSwapUsdc.sol:StrategyAerodromeSwapUsdc",
        "label": "swapRouter",
        "offset": 0,
        "slot": "313",
        "type": "t_address"
      },
      {
        "astId": 9149,
        "contract": "contracts/usdc/StrategyAerodromeSwapUsdc.sol:StrategyAerodromeSwapUsdc",
        "label": "treasury",
        "offset": 0,
        "slot": "314",
        "type": "t_address"
      },
      {
        "astId": 9151,
        "contract": "contracts/usdc/StrategyAerodromeSwapUsdc.sol:StrategyAerodromeSwapUsdc",
        "label": "treasuryShare",
        "offset": 0,
        "slot": "315",
        "type": "t_uint256"
      }
    ],
    "types": {
      "t_address": {
        "encoding": "inplace",
        "label": "address",
        "numberOfBytes": "20"
      },
      "t_array(t_int24)dyn_storage": {
        "base": "t_int24",
        "encoding": "dynamic_array",
        "label": "int24[]",
        "numberOfBytes": "32"
      },
      "t_array(t_uint256)44_storage": {
        "base": "t_uint256",
        "encoding": "inplace",
        "label": "uint256[44]",
        "numberOfBytes": "1408"
      },
      "t_array(t_uint256)49_storage": {
        "base": "t_uint256",
        "encoding": "inplace",
        "label": "uint256[49]",
        "numberOfBytes": "1568"
      },
      "t_array(t_uint256)50_storage": {
        "base": "t_uint256",
        "encoding": "inplace",
        "label": "uint256[50]",
        "numberOfBytes": "1600"
      },
      "t_bool": {
        "encoding": "inplace",
        "label": "bool",
        "numberOfBytes": "1"
      },
      "t_bytes32": {
        "encoding": "inplace",
        "label": "bytes32",
        "numberOfBytes": "32"
      },
      "t_contract(ICLGauge)7118": {
        "encoding": "inplace",
        "label": "contract ICLGauge",
        "numberOfBytes": "20"
      },
      "t_contract(ICLPool)7351": {
        "encoding": "inplace",
        "label": "contract ICLPool",
        "numberOfBytes": "20"
      },
      "t_contract(IERC20)2987": {
        "encoding": "inplace",
        "label": "contract IERC20",
        "numberOfBytes": "20"
      },
      "t_contract(INonfungiblePositionManager)7593": {
        "encoding": "inplace",
        "label": "contract INonfungiblePositionManager",
        "numberOfBytes": "20"
      },
      "t_contract(IRoleManager)8970": {
        "encoding": "inplace",
        "label": "contract IRoleManager",
        "numberOfBytes": "20"
      },
      "t_contract(ISwapSimulator)9108": {
        "encoding": "inplace",
        "label": "contract ISwapSimulator",
        "numberOfBytes": "20"
      },
      "t_int24": {
        "encoding": "inplace",
        "label": "int24",
        "numberOfBytes": "3"
      },
      "t_mapping(t_address,t_bool)": {
        "encoding": "mapping",
        "key": "t_address",
        "label": "mapping(address => bool)",
        "numberOfBytes": "32",
        "value": "t_bool"
      },
      "t_mapping(t_bytes32,t_struct(RoleData)23_storage)": {
        "encoding": "mapping",
        "key": "t_bytes32",
        "label": "mapping(bytes32 => struct AccessControlUpgradeable.RoleData)",
        "numberOfBytes": "32",
        "value": "t_struct(RoleData)23_storage"
      },
      "t_string_storage": {
        "encoding": "bytes",
        "label": "string",
        "numberOfBytes": "32"
      },
      "t_struct(RoleData)23_storage": {
        "encoding": "inplace",
        "label": "struct AccessControlUpgradeable.RoleData",
        "members": [
          {
            "astId": 20,
            "contract": "contracts/usdc/StrategyAerodromeSwapUsdc.sol:StrategyAerodromeSwapUsdc",
            "label": "members",
            "offset": 0,
            "slot": "0",
            "type": "t_mapping(t_address,t_bool)"
          },
          {
            "astId": 22,
            "contract": "contracts/usdc/StrategyAerodromeSwapUsdc.sol:StrategyAerodromeSwapUsdc",
            "label": "adminRole",
            "offset": 0,
            "slot": "1",
            "type": "t_bytes32"
          }
        ],
        "numberOfBytes": "64"
      },
      "t_uint256": {
        "encoding": "inplace",
        "label": "uint256",
        "numberOfBytes": "32"
      },
      "t_uint8": {
        "encoding": "inplace",
        "label": "uint8",
        "numberOfBytes": "1"
      }
    }
  }
}