{
  "address": "0x8F573ABeb41c232faA1661E222c8E4F658b83B06",
  "abi": [
    {
      "inputs": [
        {
          "internalType": "uint160",
          "name": "curSqrtRatio",
          "type": "uint160"
        },
        {
          "internalType": "uint160",
          "name": "minSqrtRatio",
          "type": "uint160"
        },
        {
          "internalType": "uint160",
          "name": "maxSqrtRatio",
          "type": "uint160"
        }
      ],
      "name": "SlippageError",
      "type": "error"
    },
    {
      "inputs": [
        {
          "internalType": "uint256",
          "name": "balance0",
          "type": "uint256"
        },
        {
          "internalType": "uint256",
          "name": "balance1",
          "type": "uint256"
        },
        {
          "internalType": "uint256",
          "name": "ratio0",
          "type": "uint256"
        },
        {
          "internalType": "uint256",
          "name": "ratio1",
          "type": "uint256"
        }
      ],
      "name": "SwapError",
      "type": "error"
    },
    {
      "anonymous": false,
      "inputs": [
        {
          "indexed": false,
          "internalType": "address",
          "name": "previousAdmin",
          "type": "address"
        },
        {
          "indexed": false,
          "internalType": "address",
          "name": "newAdmin",
          "type": "address"
        }
      ],
      "name": "AdminChanged",
      "type": "event"
    },
    {
      "anonymous": false,
      "inputs": [
        {
          "indexed": true,
          "internalType": "address",
          "name": "beacon",
          "type": "address"
        }
      ],
      "name": "BeaconUpgraded",
      "type": "event"
    },
    {
      "anonymous": false,
      "inputs": [
        {
          "indexed": false,
          "internalType": "uint8",
          "name": "version",
          "type": "uint8"
        }
      ],
      "name": "Initialized",
      "type": "event"
    },
    {
      "anonymous": false,
      "inputs": [
        {
          "indexed": true,
          "internalType": "bytes32",
          "name": "role",
          "type": "bytes32"
        },
        {
          "indexed": true,
          "internalType": "bytes32",
          "name": "previousAdminRole",
          "type": "bytes32"
        },
        {
          "indexed": true,
          "internalType": "bytes32",
          "name": "newAdminRole",
          "type": "bytes32"
        }
      ],
      "name": "RoleAdminChanged",
      "type": "event"
    },
    {
      "anonymous": false,
      "inputs": [
        {
          "indexed": true,
          "internalType": "bytes32",
          "name": "role",
          "type": "bytes32"
        },
        {
          "indexed": true,
          "internalType": "address",
          "name": "account",
          "type": "address"
        },
        {
          "indexed": true,
          "internalType": "address",
          "name": "sender",
          "type": "address"
        }
      ],
      "name": "RoleGranted",
      "type": "event"
    },
    {
      "anonymous": false,
      "inputs": [
        {
          "indexed": true,
          "internalType": "bytes32",
          "name": "role",
          "type": "bytes32"
        },
        {
          "indexed": true,
          "internalType": "address",
          "name": "account",
          "type": "address"
        },
        {
          "indexed": true,
          "internalType": "address",
          "name": "sender",
          "type": "address"
        }
      ],
      "name": "RoleRevoked",
      "type": "event"
    },
    {
      "anonymous": false,
      "inputs": [
        {
          "indexed": true,
          "internalType": "address",
          "name": "implementation",
          "type": "address"
        }
      ],
      "name": "Upgraded",
      "type": "event"
    },
    {
      "inputs": [],
      "name": "DEFAULT_ADMIN_ROLE",
      "outputs": [
        {
          "internalType": "bytes32",
          "name": "",
          "type": "bytes32"
        }
      ],
      "stateMutability": "view",
      "type": "function"
    },
    {
      "inputs": [
        {
          "internalType": "bytes32",
          "name": "role",
          "type": "bytes32"
        }
      ],
      "name": "getRoleAdmin",
      "outputs": [
        {
          "internalType": "bytes32",
          "name": "",
          "type": "bytes32"
        }
      ],
      "stateMutability": "view",
      "type": "function"
    },
    {
      "inputs": [
        {
          "internalType": "bytes32",
          "name": "role",
          "type": "bytes32"
        },
        {
          "internalType": "address",
          "name": "account",
          "type": "address"
        }
      ],
      "name": "grantRole",
      "outputs": [],
      "stateMutability": "nonpayable",
      "type": "function"
    },
    {
      "inputs": [
        {
          "internalType": "bytes32",
          "name": "role",
          "type": "bytes32"
        },
        {
          "internalType": "address",
          "name": "account",
          "type": "address"
        }
      ],
      "name": "hasRole",
      "outputs": [
        {
          "internalType": "bool",
          "name": "",
          "type": "bool"
        }
      ],
      "stateMutability": "view",
      "type": "function"
    },
    {
      "inputs": [],
      "name": "initialize",
      "outputs": [],
      "stateMutability": "nonpayable",
      "type": "function"
    },
    {
      "inputs": [],
      "name": "proxiableUUID",
      "outputs": [
        {
          "internalType": "bytes32",
          "name": "",
          "type": "bytes32"
        }
      ],
      "stateMutability": "view",
      "type": "function"
    },
    {
      "inputs": [
        {
          "internalType": "bytes32",
          "name": "role",
          "type": "bytes32"
        },
        {
          "internalType": "address",
          "name": "account",
          "type": "address"
        }
      ],
      "name": "renounceRole",
      "outputs": [],
      "stateMutability": "nonpayable",
      "type": "function"
    },
    {
      "inputs": [
        {
          "internalType": "bytes32",
          "name": "role",
          "type": "bytes32"
        },
        {
          "internalType": "address",
          "name": "account",
          "type": "address"
        }
      ],
      "name": "revokeRole",
      "outputs": [],
      "stateMutability": "nonpayable",
      "type": "function"
    },
    {
      "inputs": [
        {
          "components": [
            {
              "internalType": "address",
              "name": "strategy",
              "type": "address"
            },
            {
              "internalType": "address",
              "name": "factory",
              "type": "address"
            }
          ],
          "internalType": "struct SwapSimulatorAerodrome.SimulationParams",
          "name": "params",
          "type": "tuple"
        }
      ],
      "name": "setSimulationParams",
      "outputs": [],
      "stateMutability": "nonpayable",
      "type": "function"
    },
    {
      "inputs": [
        {
          "internalType": "address",
          "name": "pair",
          "type": "address"
        },
        {
          "internalType": "uint256",
          "name": "amountIn",
          "type": "uint256"
        },
        {
          "internalType": "uint160",
          "name": "sqrtPriceLimitX96",
          "type": "uint160"
        },
        {
          "internalType": "bool",
          "name": "zeroForOne",
          "type": "bool"
        },
        {
          "internalType": "int24[]",
          "name": "tickRange",
          "type": "int24[]"
        }
      ],
      "name": "simulateSwap",
      "outputs": [],
      "stateMutability": "nonpayable",
      "type": "function"
    },
    {
      "inputs": [
        {
          "internalType": "bytes4",
          "name": "interfaceId",
          "type": "bytes4"
        }
      ],
      "name": "supportsInterface",
      "outputs": [
        {
          "internalType": "bool",
          "name": "",
          "type": "bool"
        }
      ],
      "stateMutability": "view",
      "type": "function"
    },
    {
      "inputs": [
        {
          "internalType": "address",
          "name": "pair",
          "type": "address"
        },
        {
          "internalType": "uint256",
          "name": "amountIn",
          "type": "uint256"
        },
        {
          "internalType": "uint160",
          "name": "sqrtPriceLimitX96",
          "type": "uint160"
        },
        {
          "internalType": "bool",
          "name": "zeroForOne",
          "type": "bool"
        }
      ],
      "name": "swap",
      "outputs": [],
      "stateMutability": "nonpayable",
      "type": "function"
    },
    {
      "inputs": [
        {
          "internalType": "int256",
          "name": "amount0Delta",
          "type": "int256"
        },
        {
          "internalType": "int256",
          "name": "amount1Delta",
          "type": "int256"
        },
        {
          "internalType": "bytes",
          "name": "_data",
          "type": "bytes"
        }
      ],
      "name": "uniswapV3SwapCallback",
      "outputs": [],
      "stateMutability": "nonpayable",
      "type": "function"
    },
    {
      "inputs": [
        {
          "internalType": "address",
          "name": "newImplementation",
          "type": "address"
        }
      ],
      "name": "upgradeTo",
      "outputs": [],
      "stateMutability": "nonpayable",
      "type": "function"
    },
    {
      "inputs": [
        {
          "internalType": "address",
          "name": "newImplementation",
          "type": "address"
        },
        {
          "internalType": "bytes",
          "name": "data",
          "type": "bytes"
        }
      ],
      "name": "upgradeToAndCall",
      "outputs": [],
      "stateMutability": "payable",
      "type": "function"
    },
    {
      "inputs": [
        {
          "internalType": "address",
          "name": "pair",
          "type": "address"
        }
      ],
      "name": "withdrawAll",
      "outputs": [],
      "stateMutability": "nonpayable",
      "type": "function"
    }
  ],
  "numDeployments": 15,
  "solcInputHash": "2453ec76580f7b7cf6adf5ed71e3c071",
  "bytecode": "0x60a06040523060805234801561001457600080fd5b506080516131b061004c600039600081816103cd0152818161040d01528181610495015281816104d5015261054d01526131b06000f3fe6080604052600436106100d35760003560e01c80638129fc1c1161007a5780638129fc1c146101f557806391d148541461020a578063a217fddf1461022a578063bc2844e71461023f578063d547741f1461025f578063e25d44d11461027f578063fa09e6301461029f578063fa461e33146102bf57600080fd5b806301ffc9a7146100d8578063248a9ca31461010d5780632f2ff15d1461014b57806336568abe1461016d5780633659cfe61461018d5780634f1ef286146101ad57806352d1902d146101c057806379bf8c2d146101d5575b600080fd5b3480156100e457600080fd5b506100f86100f33660046127ac565b6102df565b60405190151581526020015b60405180910390f35b34801561011957600080fd5b5061013d6101283660046127d6565b60009081526065602052604090206001015490565b604051908152602001610104565b34801561015757600080fd5b5061016b610166366004612804565b610316565b005b34801561017957600080fd5b5061016b610188366004612804565b610340565b34801561019957600080fd5b5061016b6101a8366004612834565b6103c3565b61016b6101bb366004612898565b61048b565b3480156101cc57600080fd5b5061013d610540565b3480156101e157600080fd5b5061016b6101f036600461295d565b6105ee565b34801561020157600080fd5b5061016b61089f565b34801561021657600080fd5b506100f8610225366004612804565b6109c2565b34801561023657600080fd5b5061013d600081565b34801561024b57600080fd5b5061016b61025a366004612a53565b6109ed565b34801561026b57600080fd5b5061016b61027a366004612804565b610a74565b34801561028b57600080fd5b5061016b61029a366004612a6b565b610a99565b3480156102ab57600080fd5b5061016b6102ba366004612834565b610ed4565b3480156102cb57600080fd5b5061016b6102da366004612abe565b611272565b60006001600160e01b03198216637965db0b60e01b148061031057506301ffc9a760e01b6001600160e01b03198316145b92915050565b600082815260656020526040902060010154610331816113f9565b61033b8383611403565b505050565b6001600160a01b03811633146103b55760405162461bcd60e51b815260206004820152602f60248201527f416363657373436f6e74726f6c3a2063616e206f6e6c792072656e6f756e636560448201526e103937b632b9903337b91039b2b63360891b60648201526084015b60405180910390fd5b6103bf8282611489565b5050565b6001600160a01b037f000000000000000000000000000000000000000000000000000000000000000016300361040b5760405162461bcd60e51b81526004016103ac90612b3e565b7f00000000000000000000000000000000000000000000000000000000000000006001600160a01b031661043d6114f0565b6001600160a01b0316146104635760405162461bcd60e51b81526004016103ac90612b8a565b61046c8161150c565b6040805160008082526020820190925261048891839190611533565b50565b6001600160a01b037f00000000000000000000000000000000000000000000000000000000000000001630036104d35760405162461bcd60e51b81526004016103ac90612b3e565b7f00000000000000000000000000000000000000000000000000000000000000006001600160a01b03166105056114f0565b6001600160a01b03161461052b5760405162461bcd60e51b81526004016103ac90612b8a565b6105348261150c565b6103bf82826001611533565b6000306001600160a01b037f000000000000000000000000000000000000000000000000000000000000000016146105db5760405162461bcd60e51b815260206004820152603860248201527f555550535570677261646561626c653a206d757374206e6f742062652063616c6044820152771b1959081d1a1c9bdd59da0819195b1959d85d1958d85b1b60421b60648201526084016103ac565b5060008051602061313483398151915290565b60fb546001600160a01b031633146106185760405162461bcd60e51b81526004016103ac90612bd6565b60008590506000816001600160a01b0316630dfe16816040518163ffffffff1660e01b8152600401602060405180830381865afa15801561065d573d6000803e3d6000fd5b505050506040513d601f19601f820116820180604052508101906106819190612bf9565b90506000826001600160a01b031663d21220a76040518163ffffffff1660e01b8152600401602060405180830381865afa1580156106c3573d6000803e3d6000fd5b505050506040513d601f19601f820116820180604052508101906106e79190612bf9565b90506106f588888888610a99565b604080516002808252606082018352600092602083019080368337019050509050610720848661169e565b8260008151811061073357610733612c16565b602002602001018360018151811061074d5761074d612c16565b6020908102919091010191909152526040516370a0823160e01b81526001600160a01b038416906370a0823190610788903090600401612c2c565b602060405180830381865afa1580156107a5573d6000803e3d6000fd5b505050506040513d601f19601f820116820180604052508101906107c99190612c40565b6040516370a0823160e01b81526001600160a01b038416906370a08231906107f5903090600401612c2c565b602060405180830381865afa158015610812573d6000803e3d6000fd5b505050506040513d601f19601f820116820180604052508101906108369190612c40565b8260008151811061084957610849612c16565b60200260200101518360018151811061086457610864612c16565b602002602001015160405163a0ad33dd60e01b81526004016103ac949392919093845260208401929092526040830152606082015260800190565b600054610100900460ff16158080156108bf5750600054600160ff909116105b806108d95750303b1580156108d9575060005460ff166001145b61093c5760405162461bcd60e51b815260206004820152602e60248201527f496e697469616c697a61626c653a20636f6e747261637420697320616c72656160448201526d191e481a5b9a5d1a585b1a5e995960921b60648201526084016103ac565b6000805460ff19166001179055801561095f576000805461ff0019166101001790555b610967611982565b61096f611982565b61097a600033611403565b8015610488576000805461ff0019169055604051600181527f7f26b83ff96e1f2b6a682f133852f6798a09c465da95921460cefb38474024989060200160405180910390a150565b60009182526065602090815260408084206001600160a01b0393909316845291905290205460ff1690565b6109f86000336109c2565b610a145760405162461bcd60e51b81526004016103ac90612c59565b610a216020820182612834565b60fb80546001600160a01b0319166001600160a01b0392909216919091179055610a516040820160208301612834565b60fc80546001600160a01b0319166001600160a01b039290921691909117905550565b600082815260656020526040902060010154610a8f816113f9565b61033b8383611489565b60fb546001600160a01b03163314610ac35760405162461bcd60e51b81526004016103ac90612bd6565b600084905060006040518060600160405280836001600160a01b0316630dfe16816040518163ffffffff1660e01b8152600401602060405180830381865afa158015610b13573d6000803e3d6000fd5b505050506040513d601f19601f82011682018060405250810190610b379190612bf9565b6001600160a01b03168152602001836001600160a01b031663d21220a76040518163ffffffff1660e01b8152600401602060405180830381865afa158015610b83573d6000803e3d6000fd5b505050506040513d601f19601f82011682018060405250810190610ba79190612bf9565b6001600160a01b03168152602001836001600160a01b031663d0c93a7c6040518163ffffffff1660e01b8152600401602060405180830381865afa158015610bf3573d6000803e3d6000fd5b505050506040513d601f19601f82011682018060405250810190610c179190612c79565b60020b815250905060006c0100068db8bac710cb295e9e1c905060006bfffcb933bd6fad37aa2d162e90506000846001600160a01b0316633850c7bd6040518163ffffffff1660e01b815260040160c060405180830381865afa158015610c82573d6000803e3d6000fd5b505050506040513d601f19601f82011682018060405250810190610ca69190612ca8565b505050505090506000836001600160a01b0316826001600160a01b0316108015610ce15750826001600160a01b0316826001600160a01b0316115b15610cea575060015b856001600160a01b031663128acb0830898c8c6001600160a01b0316600014610d13578c610d4c565b8b610d3c57610d37600173fffd8963efd1fc6a506488495d951d5263988d26612d3b565b610d4c565b610d4c6401000276a36001612d62565b604080518c516001600160a01b039081166020808401919091528e01511681830152908c015160020b60608201526080016040516020818303038152906040526040518663ffffffff1660e01b8152600401610dac959493929190612dd2565b60408051808303816000875af1158015610dca573d6000803e3d6000fd5b505050506040513d601f19601f82011682018060405250810190610dee9190612e18565b5050856001600160a01b0316633850c7bd6040518163ffffffff1660e01b815260040160c060405180830381865afa158015610e2e573d6000803e3d6000fd5b505050506040513d601f19601f82011682018060405250810190610e529190612ca8565b509395505050506001600160a01b0385811690841611905080610e865750826001600160a01b0316826001600160a01b0316105b8015610e8f5750805b15610ec85760405163220a70c960e01b81526001600160a01b0380841660048301528085166024830152851660448201526064016103ac565b50505050505050505050565b60fb546001600160a01b03163314610efe5760405162461bcd60e51b81526004016103ac90612bd6565b60008190506000816001600160a01b0316630dfe16816040518163ffffffff1660e01b8152600401602060405180830381865afa158015610f43573d6000803e3d6000fd5b505050506040513d601f19601f82011682018060405250810190610f679190612bf9565b90506000826001600160a01b031663d21220a76040518163ffffffff1660e01b8152600401602060405180830381865afa158015610fa9573d6000803e3d6000fd5b505050506040513d601f19601f82011682018060405250810190610fcd9190612bf9565b90506000826001600160a01b03166370a08231306040518263ffffffff1660e01b8152600401610ffd9190612c2c565b602060405180830381865afa15801561101a573d6000803e3d6000fd5b505050506040513d601f19601f8201168201806040525081019061103e9190612c40565b111561111d576040516370a0823160e01b81526001600160a01b0383169063a9059cbb90339083906370a082319061107a903090600401612c2c565b602060405180830381865afa158015611097573d6000803e3d6000fd5b505050506040513d601f19601f820116820180604052508101906110bb9190612c40565b6040518363ffffffff1660e01b81526004016110d8929190612e3c565b6020604051808303816000875af11580156110f7573d6000803e3d6000fd5b505050506040513d601f19601f8201168201806040525081019061111b9190612e55565b505b6040516370a0823160e01b81526000906001600160a01b038316906370a082319061114c903090600401612c2c565b602060405180830381865afa158015611169573d6000803e3d6000fd5b505050506040513d601f19601f8201168201806040525081019061118d9190612c40565b111561126c576040516370a0823160e01b81526001600160a01b0382169063a9059cbb90339083906370a08231906111c9903090600401612c2c565b602060405180830381865afa1580156111e6573d6000803e3d6000fd5b505050506040513d601f19601f8201168201806040525081019061120a9190612c40565b6040518363ffffffff1660e01b8152600401611227929190612e3c565b6020604051808303816000875af1158015611246573d6000803e3d6000fd5b505050506040513d601f19601f8201168201806040525081019061126a9190612e55565b505b50505050565b600061128082840184612e72565b60fc548151602083015160408401519394506112a7936001600160a01b03909316926119ef565b50600080600087136112d65782600001516001600160a01b031683602001516001600160a01b031610866112f5565b82602001516001600160a01b031683600001516001600160a01b031610875b91509150811561137957825160405163a9059cbb60e01b81526001600160a01b039091169063a9059cbb906113309033908590600401612e3c565b6020604051808303816000875af115801561134f573d6000803e3d6000fd5b505050506040513d601f19601f820116820180604052508101906113739190612e55565b506113f0565b82602001516001600160a01b031663a9059cbb33836040518363ffffffff1660e01b81526004016113ab929190612e3c565b6020604051808303816000875af11580156113ca573d6000803e3d6000fd5b505050506040513d601f19601f820116820180604052508101906113ee9190612e55565b505b50505050505050565b6104888133611a10565b61140d82826109c2565b6103bf5760008281526065602090815260408083206001600160a01b03851684529091529020805460ff191660011790556114453390565b6001600160a01b0316816001600160a01b0316837f2f8788117e7eff1d82e926ec794901d17c78024a50270940304540a733656f0d60405160405180910390a45050565b61149382826109c2565b156103bf5760008281526065602090815260408083206001600160a01b0385168085529252808320805460ff1916905551339285917ff6391f5c32d9c69d2a47ea670b442974b53935d1edc7fd64eb21e047a839171b9190a45050565b600080516020613134833981519152546001600160a01b031690565b6115176000336109c2565b6104885760405162461bcd60e51b81526004016103ac90612c59565b7f4910fdfa16fed3260ed0e7147f7cc6da11a60208b5b9406d12a635614ffd91435460ff16156115665761033b83611a69565b826001600160a01b03166352d1902d6040518163ffffffff1660e01b8152600401602060405180830381865afa9250505080156115c0575060408051601f3d908101601f191682019092526115bd91810190612c40565b60015b6116235760405162461bcd60e51b815260206004820152602e60248201527f45524331393637557067726164653a206e657720696d706c656d656e7461746960448201526d6f6e206973206e6f74205555505360901b60648201526084016103ac565b60008051602061313483398151915281146116925760405162461bcd60e51b815260206004820152602960248201527f45524331393637557067726164653a20756e737570706f727465642070726f786044820152681a58589b195555525160ba1b60648201526084016103ac565b5061033b838383611b05565b6000806000846001600160a01b0316630dfe16816040518163ffffffff1660e01b8152600401602060405180830381865afa1580156116e1573d6000803e3d6000fd5b505050506040513d601f19601f820116820180604052508101906117059190612bf9565b90506000856001600160a01b031663d21220a76040518163ffffffff1660e01b8152600401602060405180830381865afa158015611747573d6000803e3d6000fd5b505050506040513d601f19601f8201168201806040525081019061176b9190612bf9565b90506000826001600160a01b031663313ce5676040518163ffffffff1660e01b8152600401602060405180830381865afa1580156117ad573d6000803e3d6000fd5b505050506040513d601f19601f820116820180604052508101906117d19190612ee4565b6117dc90600a612feb565b90506000826001600160a01b031663313ce5676040518163ffffffff1660e01b8152600401602060405180830381865afa15801561181e573d6000803e3d6000fd5b505050506040513d601f19601f820116820180604052508101906118429190612ee4565b61184d90600a612feb565b90506000886001600160a01b0316633850c7bd6040518163ffffffff1660e01b815260040160c060405180830381865afa15801561188f573d6000803e3d6000fd5b505050506040513d601f19601f820116820180604052508101906118b39190612ca8565b5050505050905060006118df896000815181106118d2576118d2612c16565b6020026020010151611b2a565b905060006118f98a6001815181106118d2576118d2612c16565b9050600061192084848461190f8a6103e8612ffa565b61191b8a6103e8612ffa565b611ef5565b905061192e84848484611fb9565b909a50985060008587116119425785611944565b865b90506119508782613027565b61195a908c612ffa565b9a506119668682613027565b611970908b612ffa565b99505050505050505050509250929050565b600054610100900460ff166119ed5760405162461bcd60e51b815260206004820152602b60248201527f496e697469616c697a61626c653a20636f6e7472616374206973206e6f74206960448201526a6e697469616c697a696e6760a81b60648201526084016103ac565b565b6000611a0585611a00868686612055565b6120ca565b90505b949350505050565b611a1a82826109c2565b6103bf57611a2781612129565b611a3283602061213b565b604051602001611a4392919061303b565b60408051601f198184030181529082905262461bcd60e51b82526103ac916004016130aa565b6001600160a01b0381163b611ad65760405162461bcd60e51b815260206004820152602d60248201527f455243313936373a206e657720696d706c656d656e746174696f6e206973206e60448201526c1bdd08184818dbdb9d1c9858dd609a1b60648201526084016103ac565b60008051602061313483398151915280546001600160a01b0319166001600160a01b0392909216919091179055565b611b0e836122d7565b600082511180611b1b5750805b1561033b5761126c8383612317565b60008060008360020b12611b41578260020b611b4e565b8260020b611b4e906130bd565b9050600081600116600003611b6757600160801b611b79565b6ffffcb933bd6fad37aa2d162d1a5940015b6001600160881b031690506002821615611bae576080611ba9826ffff97272373d413259a46990580e213a612ffa565b901c90505b6004821615611bd8576080611bd3826ffff2e50f5f656932ef12357cf3c7fdcc612ffa565b901c90505b6008821615611c02576080611bfd826fffe5caca7e10e4e61c3624eaa0941cd0612ffa565b901c90505b6010821615611c2c576080611c27826fffcb9843d60f6159c9db58835c926644612ffa565b901c90505b6020821615611c56576080611c51826fff973b41fa98c081472e6896dfb254c0612ffa565b901c90505b6040821615611c80576080611c7b826fff2ea16466c96a3843ec78b326b52861612ffa565b901c90505b6080821615611caa576080611ca5826ffe5dee046a99a2a811c461f1969c3053612ffa565b901c90505b610100821615611cd5576080611cd0826ffcbe86c7900a88aedcffc83b479aa3a4612ffa565b901c90505b610200821615611d00576080611cfb826ff987a7253ac413176f2b074cf7815e54612ffa565b901c90505b610400821615611d2b576080611d26826ff3392b0822b70005940c7a398e4b70f3612ffa565b901c90505b610800821615611d56576080611d51826fe7159475a2c29b7443b29c7fa6e889d9612ffa565b901c90505b611000821615611d81576080611d7c826fd097f3bdfd2022b8845ad8f792aa5825612ffa565b901c90505b612000821615611dac576080611da7826fa9f746462d870fdf8a65dc1f90e061e5612ffa565b901c90505b614000821615611dd7576080611dd2826f70d869a156d2a1b890bb3df62baf32f7612ffa565b901c90505b618000821615611e02576080611dfd826f31be135f97d08fd981231505542fcfa6612ffa565b901c90505b62010000821615611e2e576080611e29826f09aa508b5b7a84e1c677de54f3e99bc9612ffa565b901c90505b62020000821615611e59576080611e54826e5d6af8dedb81196699c329225ee604612ffa565b901c90505b62040000821615611e83576080611e7e826d2216e584f5fa1ea926041bedfe98612ffa565b901c90505b62080000821615611eab576080611ea6826b048a170391f7dc42444e8fa2612ffa565b901c90505b60008460020b1315611ec657611ec381600019613027565b90505b611ed5640100000000826130d9565b15611ee1576001611ee4565b60005b611a089060ff16602083901c6130ed565b6000836001600160a01b0316856001600160a01b03161115611f15579293925b846001600160a01b0316866001600160a01b031611611f4057611f3985858561233c565b9050611fb0565b836001600160a01b0316866001600160a01b03161015611fa2576000611f6787868661233c565b90506000611f768789866123a6565b9050806001600160801b0316826001600160801b031610611f975780611f99565b815b92505050611fb0565b611fad8585846123a6565b90505b95945050505050565b600080836001600160a01b0316856001600160a01b03161115611fda579293925b846001600160a01b0316866001600160a01b03161161200557611ffe8585856123dc565b915061204c565b836001600160a01b0316866001600160a01b0316101561203e5761202a8685856123dc565b9150612037858785612446565b905061204c565b612049858585612446565b90505b94509492505050565b6040805160608101825260008082526020820181905291810191909152826001600160a01b0316846001600160a01b03161115612090579192915b6040518060600160405280856001600160a01b03168152602001846001600160a01b031681526020018360020b81525090505b9392505050565b60006120d68383612490565b9050336001600160a01b038216146103105760405162461bcd60e51b81526020600482015260166024820152751cddd85c081d985b1a59185d1a5bdb8819985a5b195960521b60448201526064016103ac565b60606103106001600160a01b03831660145b6060600061214a836002612ffa565b6121559060026130ed565b67ffffffffffffffff81111561216d5761216d612851565b6040519080825280601f01601f191660200182016040528015612197576020820181803683370190505b509050600360fc1b816000815181106121b2576121b2612c16565b60200101906001600160f81b031916908160001a905350600f60fb1b816001815181106121e1576121e1612c16565b60200101906001600160f81b031916908160001a9053506000612205846002612ffa565b6122109060016130ed565b90505b6001811115612288576f181899199a1a9b1b9c1cb0b131b232b360811b85600f166010811061224457612244612c16565b1a60f81b82828151811061225a5761225a612c16565b60200101906001600160f81b031916908160001a90535060049490941c9361228181613100565b9050612213565b5083156120c35760405162461bcd60e51b815260206004820181905260248201527f537472696e67733a20686578206c656e67746820696e73756666696369656e7460448201526064016103ac565b6122e081611a69565b6040516001600160a01b038216907fbc7cd75a20ee27fd9adebab32041f755214dbc6bffa90cc0225b39da2e5c2d3b90600090a250565b60606120c38383604051806060016040528060278152602001613154602791396125cd565b6000826001600160a01b0316846001600160a01b0316111561235c579192915b600061237f856001600160a01b0316856001600160a01b0316600160601b612645565b9050611fb06123a184836123938989612d3b565b6001600160a01b0316612645565b6126f3565b6000826001600160a01b0316846001600160a01b031611156123c6579192915b611a086123a183600160601b6123938888612d3b565b6000826001600160a01b0316846001600160a01b031611156123fc579192915b6001600160a01b03841661243c600160601b600160e01b03606085901b166124248787612d3b565b6001600160a01b0316866001600160a01b0316612645565b611a089190613027565b6000826001600160a01b0316846001600160a01b03161115612466579192915b611a086001600160801b03831661247d8686612d3b565b6001600160a01b0316600160601b612645565b600081602001516001600160a01b031682600001516001600160a01b0316106124b857600080fd5b6120c3836001600160a01b031663cefa77996040518163ffffffff1660e01b8152600401602060405180830381865afa1580156124f9573d6000803e3d6000fd5b505050506040513d601f19601f8201168201806040525081019061251d9190612bf9565b8351602080860151604080880151905161255a9493016001600160a01b03938416815291909216602082015260029190910b604082015260600190565b604051602081830303815290604052805190602001208560405160388101919091526f5af43d82803e903d91602b57fd5bf3ff60248201526014810192909252733d602d80600a3d3981f3363d3d373d3d3d363d73825260588201526037600c8201206078820152605560439091012090565b6060600080856001600160a01b0316856040516125ea9190613117565b600060405180830381855af49150503d8060008114612625576040519150601f19603f3d011682016040523d82523d6000602084013e61262a565b606091505b509150915061263b8683838761270e565b9695505050505050565b600080806000198587098587029250828110838203039150508060000361267e576000841161267357600080fd5b5082900490506120c3565b80841161268a57600080fd5b60008486880960026001871981018816978890046003810283188082028403028082028403028082028403028082028403028082028403029081029092039091026000889003889004909101858311909403939093029303949094049190911702949350505050565b806001600160801b038116811461270957600080fd5b919050565b6060831561277d578251600003612776576001600160a01b0385163b6127765760405162461bcd60e51b815260206004820152601d60248201527f416464726573733a2063616c6c20746f206e6f6e2d636f6e747261637400000060448201526064016103ac565b5081611a08565b611a0883838151156127925781518083602001fd5b8060405162461bcd60e51b81526004016103ac91906130aa565b6000602082840312156127be57600080fd5b81356001600160e01b0319811681146120c357600080fd5b6000602082840312156127e857600080fd5b5035919050565b6001600160a01b038116811461048857600080fd5b6000806040838503121561281757600080fd5b823591506020830135612829816127ef565b809150509250929050565b60006020828403121561284657600080fd5b81356120c3816127ef565b634e487b7160e01b600052604160045260246000fd5b604051601f8201601f1916810167ffffffffffffffff8111828210171561289057612890612851565b604052919050565b600080604083850312156128ab57600080fd5b82356128b6816127ef565b915060208381013567ffffffffffffffff808211156128d457600080fd5b818601915086601f8301126128e857600080fd5b8135818111156128fa576128fa612851565b61290c601f8201601f19168501612867565b9150808252878482850101111561292257600080fd5b80848401858401376000848284010152508093505050509250929050565b801515811461048857600080fd5b8060020b811461048857600080fd5b600080600080600060a0868803121561297557600080fd5b8535612980816127ef565b945060208681013594506040870135612998816127ef565b935060608701356129a881612940565b9250608087013567ffffffffffffffff808211156129c557600080fd5b818901915089601f8301126129d957600080fd5b8135818111156129eb576129eb612851565b8060051b91506129fc848301612867565b818152918301840191848101908c841115612a1657600080fd5b938501935b83851015612a405784359250612a308361294e565b8282529385019390850190612a1b565b8096505050505050509295509295909350565b600060408284031215612a6557600080fd5b50919050565b60008060008060808587031215612a8157600080fd5b8435612a8c816127ef565b9350602085013592506040850135612aa3816127ef565b91506060850135612ab381612940565b939692955090935050565b60008060008060608587031215612ad457600080fd5b8435935060208501359250604085013567ffffffffffffffff80821115612afa57600080fd5b818701915087601f830112612b0e57600080fd5b813581811115612b1d57600080fd5b886020828501011115612b2f57600080fd5b95989497505060200194505050565b6020808252602c908201527f46756e6374696f6e206d7573742062652063616c6c6564207468726f7567682060408201526b19195b1959d85d1958d85b1b60a21b606082015260800190565b6020808252602c908201527f46756e6374696f6e206d7573742062652063616c6c6564207468726f7567682060408201526b6163746976652070726f787960a01b606082015260800190565b60208082526009908201526821737472617465677960b81b604082015260600190565b600060208284031215612c0b57600080fd5b81516120c3816127ef565b634e487b7160e01b600052603260045260246000fd5b6001600160a01b0391909116815260200190565b600060208284031215612c5257600080fd5b5051919050565b60208082526006908201526510b0b236b4b760d11b604082015260600190565b600060208284031215612c8b57600080fd5b81516120c38161294e565b805161ffff8116811461270957600080fd5b60008060008060008060c08789031215612cc157600080fd5b8651612ccc816127ef565b6020880151909650612cdd8161294e565b9450612ceb60408801612c96565b9350612cf960608801612c96565b9250612d0760808801612c96565b915060a0870151612d1781612940565b809150509295509295509295565b634e487b7160e01b600052601160045260246000fd5b6001600160a01b03828116828216039080821115612d5b57612d5b612d25565b5092915050565b6001600160a01b03818116838216019080821115612d5b57612d5b612d25565b60005b83811015612d9d578181015183820152602001612d85565b50506000910152565b60008151808452612dbe816020860160208601612d82565b601f01601f19169290920160200192915050565b6001600160a01b0386811682528515156020830152604082018590528316606082015260a060808201819052600090612e0d90830184612da6565b979650505050505050565b60008060408385031215612e2b57600080fd5b505080516020909101519092909150565b6001600160a01b03929092168252602082015260400190565b600060208284031215612e6757600080fd5b81516120c381612940565b600060608284031215612e8457600080fd5b6040516060810181811067ffffffffffffffff82111715612ea757612ea7612851565b6040528235612eb5816127ef565b81526020830135612ec5816127ef565b60208201526040830135612ed88161294e565b60408201529392505050565b600060208284031215612ef657600080fd5b815160ff811681146120c357600080fd5b600181815b80851115612f42578160001904821115612f2857612f28612d25565b80851615612f3557918102915b93841c9390800290612f0c565b509250929050565b600082612f5957506001610310565b81612f6657506000610310565b8160018114612f7c5760028114612f8657612fa2565b6001915050610310565b60ff841115612f9757612f97612d25565b50506001821b610310565b5060208310610133831016604e8410600b8410161715612fc5575081810a610310565b612fcf8383612f07565b8060001904821115612fe357612fe3612d25565b029392505050565b60006120c360ff841683612f4a565b808202811582820484141761031057610310612d25565b634e487b7160e01b600052601260045260246000fd5b60008261303657613036613011565b500490565b76020b1b1b2b9b9a1b7b73a3937b61d1030b1b1b7bab73a1604d1b81526000835161306d816017850160208801612d82565b7001034b99036b4b9b9b4b733903937b6329607d1b601791840191820152835161309e816028840160208801612d82565b01602801949350505050565b6020815260006120c36020830184612da6565b6000600160ff1b82016130d2576130d2612d25565b5060000390565b6000826130e8576130e8613011565b500690565b8082018082111561031057610310612d25565b60008161310f5761310f612d25565b506000190190565b60008251613129818460208701612d82565b919091019291505056fe360894a13ba1a3210667c828492db98dca3e2076cc3735a920a3ca505d382bbc416464726573733a206c6f772d6c6576656c2064656c65676174652063616c6c206661696c6564a264697066735822122040c7f963d887067d0861ae58adb4985969ec1a52ecd538847aa0d7474b202c6d64736f6c63430008110033",
  "implementation": "0x72d82947aB8d1E5eC70545f33752a060e127F4bd",
  "devdoc": {
    "errors": {
      "SwapError(uint256,uint256,uint256,uint256)": [
        {
          "params": {
            "balance0": "The balance of token0 after the swap",
            "balance1": "The balance of token1 after the swap",
            "ratio0": "The ratio of token0 in the pool after the swap",
            "ratio1": "The ratio of token1 in the pool after the swap"
          }
        }
      ]
    },
    "kind": "dev",
    "methods": {
      "getRoleAdmin(bytes32)": {
        "details": "Returns the admin role that controls `role`. See {grantRole} and {revokeRole}. To change a role's admin, use {_setRoleAdmin}."
      },
      "grantRole(bytes32,address)": {
        "details": "Grants `role` to `account`. If `account` had not been already granted `role`, emits a {RoleGranted} event. Requirements: - the caller must have ``role``'s admin role. May emit a {RoleGranted} event."
      },
      "hasRole(bytes32,address)": {
        "details": "Returns `true` if `account` has been granted `role`."
      },
      "proxiableUUID()": {
        "details": "Implementation of the ERC1822 {proxiableUUID} function. This returns the storage slot used by the implementation. It is used to validate the implementation's compatibility when performing an upgrade. IMPORTANT: A proxy pointing at a proxiable contract should not be considered proxiable itself, because this risks bricking a proxy that upgrades to it, by delegating to itself until out of gas. Thus it is critical that this function revert if invoked through a proxy. This is guaranteed by the `notDelegated` modifier."
      },
      "renounceRole(bytes32,address)": {
        "details": "Revokes `role` from the calling account. Roles are often managed via {grantRole} and {revokeRole}: this function's purpose is to provide a mechanism for accounts to lose their privileges if they are compromised (such as when a trusted device is misplaced). If the calling account had been revoked `role`, emits a {RoleRevoked} event. Requirements: - the caller must be `account`. May emit a {RoleRevoked} event."
      },
      "revokeRole(bytes32,address)": {
        "details": "Revokes `role` from `account`. If `account` had been granted `role`, emits a {RoleRevoked} event. Requirements: - the caller must have ``role``'s admin role. May emit a {RoleRevoked} event."
      },
      "supportsInterface(bytes4)": {
        "details": "See {IERC165-supportsInterface}."
      },
      "upgradeTo(address)": {
        "custom:oz-upgrades-unsafe-allow-reachable": "delegatecall",
        "details": "Upgrade the implementation of the proxy to `newImplementation`. Calls {_authorizeUpgrade}. Emits an {Upgraded} event."
      },
      "upgradeToAndCall(address,bytes)": {
        "custom:oz-upgrades-unsafe-allow-reachable": "delegatecall",
        "details": "Upgrade the implementation of the proxy to `newImplementation`, and subsequently execute the function call encoded in `data`. Calls {_authorizeUpgrade}. Emits an {Upgraded} event."
      }
    },
    "version": 1
  },
  "userdoc": {
    "errors": {
      "SwapError(uint256,uint256,uint256,uint256)": [
        {
          "notice": "Error containing information about a swap (for a simulation)"
        }
      ]
    },
    "kind": "user",
    "methods": {},
    "version": 1
  },
  "storageLayout": {
    "storage": [
      {
        "astId": 782,
        "contract": "contracts/usdc/StrategyAerodromeSwapUsdc.sol:SwapSimulatorAerodrome",
        "label": "_initialized",
        "offset": 0,
        "slot": "0",
        "type": "t_uint8"
      },
      {
        "astId": 785,
        "contract": "contracts/usdc/StrategyAerodromeSwapUsdc.sol:SwapSimulatorAerodrome",
        "label": "_initializing",
        "offset": 1,
        "slot": "0",
        "type": "t_bool"
      },
      {
        "astId": 1461,
        "contract": "contracts/usdc/StrategyAerodromeSwapUsdc.sol:SwapSimulatorAerodrome",
        "label": "__gap",
        "offset": 0,
        "slot": "1",
        "type": "t_array(t_uint256)50_storage"
      },
      {
        "astId": 1845,
        "contract": "contracts/usdc/StrategyAerodromeSwapUsdc.sol:SwapSimulatorAerodrome",
        "label": "__gap",
        "offset": 0,
        "slot": "51",
        "type": "t_array(t_uint256)50_storage"
      },
      {
        "astId": 28,
        "contract": "contracts/usdc/StrategyAerodromeSwapUsdc.sol:SwapSimulatorAerodrome",
        "label": "_roles",
        "offset": 0,
        "slot": "101",
        "type": "t_mapping(t_bytes32,t_struct(RoleData)23_storage)"
      },
      {
        "astId": 335,
        "contract": "contracts/usdc/StrategyAerodromeSwapUsdc.sol:SwapSimulatorAerodrome",
        "label": "__gap",
        "offset": 0,
        "slot": "102",
        "type": "t_array(t_uint256)49_storage"
      },
      {
        "astId": 764,
        "contract": "contracts/usdc/StrategyAerodromeSwapUsdc.sol:SwapSimulatorAerodrome",
        "label": "__gap",
        "offset": 0,
        "slot": "151",
        "type": "t_array(t_uint256)50_storage"
      },
      {
        "astId": 1080,
        "contract": "contracts/usdc/StrategyAerodromeSwapUsdc.sol:SwapSimulatorAerodrome",
        "label": "__gap",
        "offset": 0,
        "slot": "201",
        "type": "t_array(t_uint256)50_storage"
      },
      {
        "astId": 10553,
        "contract": "contracts/usdc/StrategyAerodromeSwapUsdc.sol:SwapSimulatorAerodrome",
        "label": "strategy",
        "offset": 0,
        "slot": "251",
        "type": "t_address"
      },
      {
        "astId": 10555,
        "contract": "contracts/usdc/StrategyAerodromeSwapUsdc.sol:SwapSimulatorAerodrome",
        "label": "factory",
        "offset": 0,
        "slot": "252",
        "type": "t_address"
      }
    ],
    "types": {
      "t_address": {
        "encoding": "inplace",
        "label": "address",
        "numberOfBytes": "20"
      },
      "t_array(t_uint256)49_storage": {
        "base": "t_uint256",
        "encoding": "inplace",
        "label": "uint256[49]",
        "numberOfBytes": "1568"
      },
      "t_array(t_uint256)50_storage": {
        "base": "t_uint256",
        "encoding": "inplace",
        "label": "uint256[50]",
        "numberOfBytes": "1600"
      },
      "t_bool": {
        "encoding": "inplace",
        "label": "bool",
        "numberOfBytes": "1"
      },
      "t_bytes32": {
        "encoding": "inplace",
        "label": "bytes32",
        "numberOfBytes": "32"
      },
      "t_mapping(t_address,t_bool)": {
        "encoding": "mapping",
        "key": "t_address",
        "label": "mapping(address => bool)",
        "numberOfBytes": "32",
        "value": "t_bool"
      },
      "t_mapping(t_bytes32,t_struct(RoleData)23_storage)": {
        "encoding": "mapping",
        "key": "t_bytes32",
        "label": "mapping(bytes32 => struct AccessControlUpgradeable.RoleData)",
        "numberOfBytes": "32",
        "value": "t_struct(RoleData)23_storage"
      },
      "t_struct(RoleData)23_storage": {
        "encoding": "inplace",
        "label": "struct AccessControlUpgradeable.RoleData",
        "members": [
          {
            "astId": 20,
            "contract": "contracts/usdc/StrategyAerodromeSwapUsdc.sol:SwapSimulatorAerodrome",
            "label": "members",
            "offset": 0,
            "slot": "0",
            "type": "t_mapping(t_address,t_bool)"
          },
          {
            "astId": 22,
            "contract": "contracts/usdc/StrategyAerodromeSwapUsdc.sol:SwapSimulatorAerodrome",
            "label": "adminRole",
            "offset": 0,
            "slot": "1",
            "type": "t_bytes32"
          }
        ],
        "numberOfBytes": "64"
      },
      "t_uint256": {
        "encoding": "inplace",
        "label": "uint256",
        "numberOfBytes": "32"
      },
      "t_uint8": {
        "encoding": "inplace",
        "label": "uint8",
        "numberOfBytes": "1"
      }
    }
  }
}