{
  "address": "0xf26F6193C7cE56A696Cd90cc7cC5c3F3a0F365B4",
  "abi": [
    {
      "anonymous": false,
      "inputs": [
        {
          "indexed": false,
          "internalType": "address",
          "name": "previousAdmin",
          "type": "address"
        },
        {
          "indexed": false,
          "internalType": "address",
          "name": "newAdmin",
          "type": "address"
        }
      ],
      "name": "AdminChanged",
      "type": "event"
    },
    {
      "anonymous": false,
      "inputs": [
        {
          "indexed": true,
          "internalType": "address",
          "name": "beacon",
          "type": "address"
        }
      ],
      "name": "BeaconUpgraded",
      "type": "event"
    },
    {
      "anonymous": false,
      "inputs": [
        {
          "indexed": false,
          "internalType": "uint8",
          "name": "version",
          "type": "uint8"
        }
      ],
      "name": "Initialized",
      "type": "event"
    },
    {
      "anonymous": false,
      "inputs": [
        {
          "indexed": false,
          "internalType": "uint256[]",
          "name": "amountsIn",
          "type": "uint256[]"
        },
        {
          "indexed": false,
          "internalType": "address[]",
          "name": "tokensIn",
          "type": "address[]"
        }
      ],
      "name": "InputTokens",
      "type": "event"
    },
    {
      "anonymous": false,
      "inputs": [
        {
          "indexed": false,
          "internalType": "uint256[]",
          "name": "amountsOut",
          "type": "uint256[]"
        },
        {
          "indexed": false,
          "internalType": "address[]",
          "name": "tokensOut",
          "type": "address[]"
        }
      ],
      "name": "OutputTokens",
      "type": "event"
    },
    {
      "anonymous": false,
      "inputs": [
        {
          "indexed": false,
          "internalType": "uint256[]",
          "name": "amountsPut",
          "type": "uint256[]"
        },
        {
          "indexed": false,
          "internalType": "address[]",
          "name": "tokensPut",
          "type": "address[]"
        }
      ],
      "name": "PutIntoPool",
      "type": "event"
    },
    {
      "anonymous": false,
      "inputs": [
        {
          "indexed": false,
          "internalType": "uint256[]",
          "name": "amountsReturned",
          "type": "uint256[]"
        },
        {
          "indexed": false,
          "internalType": "address[]",
          "name": "tokensReturned",
          "type": "address[]"
        }
      ],
      "name": "ReturnedToUser",
      "type": "event"
    },
    {
      "anonymous": false,
      "inputs": [
        {
          "indexed": true,
          "internalType": "bytes32",
          "name": "role",
          "type": "bytes32"
        },
        {
          "indexed": true,
          "internalType": "bytes32",
          "name": "previousAdminRole",
          "type": "bytes32"
        },
        {
          "indexed": true,
          "internalType": "bytes32",
          "name": "newAdminRole",
          "type": "bytes32"
        }
      ],
      "name": "RoleAdminChanged",
      "type": "event"
    },
    {
      "anonymous": false,
      "inputs": [
        {
          "indexed": true,
          "internalType": "bytes32",
          "name": "role",
          "type": "bytes32"
        },
        {
          "indexed": true,
          "internalType": "address",
          "name": "account",
          "type": "address"
        },
        {
          "indexed": true,
          "internalType": "address",
          "name": "sender",
          "type": "address"
        }
      ],
      "name": "RoleGranted",
      "type": "event"
    },
    {
      "anonymous": false,
      "inputs": [
        {
          "indexed": true,
          "internalType": "bytes32",
          "name": "role",
          "type": "bytes32"
        },
        {
          "indexed": true,
          "internalType": "address",
          "name": "account",
          "type": "address"
        },
        {
          "indexed": true,
          "internalType": "address",
          "name": "sender",
          "type": "address"
        }
      ],
      "name": "RoleRevoked",
      "type": "event"
    },
    {
      "anonymous": false,
      "inputs": [
        {
          "indexed": false,
          "internalType": "uint256",
          "name": "stakeSlippageBP",
          "type": "uint256"
        }
      ],
      "name": "UpdateSlippages",
      "type": "event"
    },
    {
      "anonymous": false,
      "inputs": [
        {
          "indexed": true,
          "internalType": "address",
          "name": "implementation",
          "type": "address"
        }
      ],
      "name": "Upgraded",
      "type": "event"
    },
    {
      "inputs": [],
      "name": "DEFAULT_ADMIN_ROLE",
      "outputs": [
        {
          "internalType": "bytes32",
          "name": "",
          "type": "bytes32"
        }
      ],
      "stateMutability": "view",
      "type": "function"
    },
    {
      "inputs": [],
      "name": "chronosRouter",
      "outputs": [
        {
          "internalType": "contract IChronosRouter",
          "name": "",
          "type": "address"
        }
      ],
      "stateMutability": "view",
      "type": "function"
    },
    {
      "inputs": [
        {
          "internalType": "address",
          "name": "_gauge",
          "type": "address"
        }
      ],
      "name": "getProportion",
      "outputs": [
        {
          "internalType": "uint256",
          "name": "token0Amount",
          "type": "uint256"
        },
        {
          "internalType": "uint256",
          "name": "token1Amount",
          "type": "uint256"
        },
        {
          "internalType": "uint256",
          "name": "denominator",
          "type": "uint256"
        }
      ],
      "stateMutability": "view",
      "type": "function"
    },
    {
      "inputs": [
        {
          "internalType": "bytes32",
          "name": "role",
          "type": "bytes32"
        }
      ],
      "name": "getRoleAdmin",
      "outputs": [
        {
          "internalType": "bytes32",
          "name": "",
          "type": "bytes32"
        }
      ],
      "stateMutability": "view",
      "type": "function"
    },
    {
      "inputs": [
        {
          "internalType": "bytes32",
          "name": "role",
          "type": "bytes32"
        },
        {
          "internalType": "address",
          "name": "account",
          "type": "address"
        }
      ],
      "name": "grantRole",
      "outputs": [],
      "stateMutability": "nonpayable",
      "type": "function"
    },
    {
      "inputs": [
        {
          "internalType": "bytes32",
          "name": "role",
          "type": "bytes32"
        },
        {
          "internalType": "address",
          "name": "account",
          "type": "address"
        }
      ],
      "name": "hasRole",
      "outputs": [
        {
          "internalType": "bool",
          "name": "",
          "type": "bool"
        }
      ],
      "stateMutability": "view",
      "type": "function"
    },
    {
      "inputs": [],
      "name": "initialize",
      "outputs": [],
      "stateMutability": "nonpayable",
      "type": "function"
    },
    {
      "inputs": [],
      "name": "odosRouter",
      "outputs": [
        {
          "internalType": "address",
          "name": "",
          "type": "address"
        }
      ],
      "stateMutability": "view",
      "type": "function"
    },
    {
      "inputs": [],
      "name": "proxiableUUID",
      "outputs": [
        {
          "internalType": "bytes32",
          "name": "",
          "type": "bytes32"
        }
      ],
      "stateMutability": "view",
      "type": "function"
    },
    {
      "inputs": [
        {
          "internalType": "bytes32",
          "name": "role",
          "type": "bytes32"
        },
        {
          "internalType": "address",
          "name": "account",
          "type": "address"
        }
      ],
      "name": "renounceRole",
      "outputs": [],
      "stateMutability": "nonpayable",
      "type": "function"
    },
    {
      "inputs": [
        {
          "internalType": "bytes32",
          "name": "role",
          "type": "bytes32"
        },
        {
          "internalType": "address",
          "name": "account",
          "type": "address"
        }
      ],
      "name": "revokeRole",
      "outputs": [],
      "stateMutability": "nonpayable",
      "type": "function"
    },
    {
      "inputs": [
        {
          "components": [
            {
              "internalType": "address",
              "name": "chronosRouter",
              "type": "address"
            },
            {
              "internalType": "address",
              "name": "odosRouter",
              "type": "address"
            }
          ],
          "internalType": "struct ChronosZap.ZapParams",
          "name": "params",
          "type": "tuple"
        }
      ],
      "name": "setParams",
      "outputs": [],
      "stateMutability": "nonpayable",
      "type": "function"
    },
    {
      "inputs": [
        {
          "internalType": "uint256",
          "name": "_stakeSlippageBP",
          "type": "uint256"
        }
      ],
      "name": "setSlippages",
      "outputs": [],
      "stateMutability": "nonpayable",
      "type": "function"
    },
    {
      "inputs": [],
      "name": "stakeSlippageBP",
      "outputs": [
        {
          "internalType": "uint256",
          "name": "",
          "type": "uint256"
        }
      ],
      "stateMutability": "view",
      "type": "function"
    },
    {
      "inputs": [
        {
          "internalType": "bytes4",
          "name": "interfaceId",
          "type": "bytes4"
        }
      ],
      "name": "supportsInterface",
      "outputs": [
        {
          "internalType": "bool",
          "name": "",
          "type": "bool"
        }
      ],
      "stateMutability": "view",
      "type": "function"
    },
    {
      "inputs": [
        {
          "internalType": "address",
          "name": "newImplementation",
          "type": "address"
        }
      ],
      "name": "upgradeTo",
      "outputs": [],
      "stateMutability": "nonpayable",
      "type": "function"
    },
    {
      "inputs": [
        {
          "internalType": "address",
          "name": "newImplementation",
          "type": "address"
        },
        {
          "internalType": "bytes",
          "name": "data",
          "type": "bytes"
        }
      ],
      "name": "upgradeToAndCall",
      "outputs": [],
      "stateMutability": "payable",
      "type": "function"
    },
    {
      "inputs": [
        {
          "components": [
            {
              "components": [
                {
                  "internalType": "address",
                  "name": "tokenAddress",
                  "type": "address"
                },
                {
                  "internalType": "uint256",
                  "name": "amountIn",
                  "type": "uint256"
                }
              ],
              "internalType": "struct OdosZap.InputToken[]",
              "name": "inputs",
              "type": "tuple[]"
            },
            {
              "components": [
                {
                  "internalType": "address",
                  "name": "tokenAddress",
                  "type": "address"
                },
                {
                  "internalType": "address",
                  "name": "receiver",
                  "type": "address"
                }
              ],
              "internalType": "struct OdosZap.OutputToken[]",
              "name": "outputs",
              "type": "tuple[]"
            },
            {
              "internalType": "bytes",
              "name": "data",
              "type": "bytes"
            }
          ],
          "internalType": "struct OdosZap.SwapData",
          "name": "swapData",
          "type": "tuple"
        },
        {
          "components": [
            {
              "internalType": "address",
              "name": "gauge",
              "type": "address"
            },
            {
              "internalType": "uint256[]",
              "name": "amountsOut",
              "type": "uint256[]"
            }
          ],
          "internalType": "struct ChronosZap.ChronosZapInParams",
          "name": "chronosData",
          "type": "tuple"
        }
      ],
      "name": "zapIn",
      "outputs": [],
      "stateMutability": "nonpayable",
      "type": "function"
    },
    {
      "stateMutability": "payable",
      "type": "receive"
    }
  ],
  "numDeployments": 2,
  "solcInputHash": "c877418dd0dbcf666ce0d212a201f115",
  "bytecode": "0x60a06040523060601b60805234801561001757600080fd5b5060805160601c6136fd61005260003960008181610478015281816104b80152818161055801528181610598015261062701526136fd6000f3fe60806040526004361061010d5760003560e01c80638321928d11610095578063a217fddf11610064578063a217fddf146102d9578063c2977d2f146102ee578063c93721ea1461030e578063d2849fac14610349578063d547741f1461036957600080fd5b80638321928d14610241578063884b2b8b1461027957806391d14854146102995780639b78f2d7146102b957600080fd5b80633659cfe6116100dc5780633659cfe6146101ce5780634f1ef286146101ee57806352d1902d146102015780635ca558f8146102165780638129fc1c1461022c57600080fd5b806301ffc9a714610119578063248a9ca31461014e5780632f2ff15d1461018c57806336568abe146101ae57600080fd5b3661011457005b600080fd5b34801561012557600080fd5b50610139610134366004612fe3565b610389565b60405190151581526020015b60405180910390f35b34801561015a57600080fd5b5061017e610169366004612f8c565b60009081526065602052604090206001015490565b604051908152602001610145565b34801561019857600080fd5b506101ac6101a7366004612fbe565b6103c0565b005b3480156101ba57600080fd5b506101ac6101c9366004612fbe565b6103ea565b3480156101da57600080fd5b506101ac6101e9366004612ea7565b61046d565b6101ac6101fc366004612f1b565b61054d565b34801561020d57600080fd5b5061017e61061a565b34801561022257600080fd5b5061017e60fb5481565b34801561023857600080fd5b506101ac6106cd565b34801561024d57600080fd5b5060fc54610261906001600160a01b031681565b6040516001600160a01b039091168152602001610145565b34801561028557600080fd5b506101ac610294366004612f8c565b6107f6565b3480156102a557600080fd5b506101396102b4366004612fbe565b610852565b3480156102c557600080fd5b5060fd54610261906001600160a01b031681565b3480156102e557600080fd5b5061017e600081565b3480156102fa57600080fd5b506101ac610309366004613163565b61087d565b34801561031a57600080fd5b5061032e610329366004612ea7565b610980565b60408051938452602084019290925290820152606001610145565b34801561035557600080fd5b506101ac61036436600461300d565b610c51565b34801561037557600080fd5b506101ac610384366004612fbe565b611050565b60006001600160e01b03198216637965db0b60e01b14806103ba57506301ffc9a760e01b6001600160e01b03198316145b92915050565b6000828152606560205260409020600101546103db81611075565b6103e5838361107f565b505050565b6001600160a01b038116331461045f5760405162461bcd60e51b815260206004820152602f60248201527f416363657373436f6e74726f6c3a2063616e206f6e6c792072656e6f756e636560448201526e103937b632b9903337b91039b2b63360891b60648201526084015b60405180910390fd5b6104698282611105565b5050565b306001600160a01b037f00000000000000000000000000000000000000000000000000000000000000001614156104b65760405162461bcd60e51b81526004016104569061330b565b7f00000000000000000000000000000000000000000000000000000000000000006001600160a01b03166104ff600080516020613681833981519152546001600160a01b031690565b6001600160a01b0316146105255760405162461bcd60e51b815260040161045690613357565b61052e8161116c565b6040805160008082526020820190925261054a91839190611193565b50565b306001600160a01b037f00000000000000000000000000000000000000000000000000000000000000001614156105965760405162461bcd60e51b81526004016104569061330b565b7f00000000000000000000000000000000000000000000000000000000000000006001600160a01b03166105df600080516020613681833981519152546001600160a01b031690565b6001600160a01b0316146106055760405162461bcd60e51b815260040161045690613357565b61060e8261116c565b61046982826001611193565b6000306001600160a01b037f000000000000000000000000000000000000000000000000000000000000000016146106ba5760405162461bcd60e51b815260206004820152603860248201527f555550535570677261646561626c653a206d757374206e6f742062652063616c60448201527f6c6564207468726f7567682064656c656761746563616c6c00000000000000006064820152608401610456565b5060008051602061368183398151915290565b600054610100900460ff16158080156106ed5750600054600160ff909116105b806107075750303b158015610707575060005460ff166001145b61076a5760405162461bcd60e51b815260206004820152602e60248201527f496e697469616c697a61626c653a20636f6e747261637420697320616c72656160448201526d191e481a5b9a5d1a585b1a5e995960921b6064820152608401610456565b6000805460ff19166001179055801561078d576000805461ff0019166101001790555b61079561130d565b61079d61130d565b6107a860003361107f565b600460fb55801561054a576000805461ff0019169055604051600181527f7f26b83ff96e1f2b6a682f133852f6798a09c465da95921460cefb3847402498906020015b60405180910390a150565b610801600033610852565b61081d5760405162461bcd60e51b8152600401610456906133a3565b60fb8190556040518181527fa5210533b7e454491de5dd73e199953a4cdb61fdc4f1eea9ca2edcf0344e6666906020016107eb565b60009182526065602090815260408084206001600160a01b0393909316845291905290205460ff1690565b610888600033610852565b6108a45760405162461bcd60e51b8152600401610456906133a3565b80516001600160a01b03166108f65760405162461bcd60e51b815260206004820152601860248201527716995c9bc81859191c995cdcc81b9bdd08185b1b1bddd95960421b6044820152606401610456565b60208101516001600160a01b031661094b5760405162461bcd60e51b815260206004820152601860248201527716995c9bc81859191c995cdcc81b9bdd08185b1b1bddd95960421b6044820152606401610456565b805160fd80546001600160a01b03199081166001600160a01b039384161790915560209092015160fc80549093169116179055565b6000806000808490506000816001600160a01b03166382bfefc86040518163ffffffff1660e01b815260040160206040518083038186803b1580156109c457600080fd5b505afa1580156109d8573d6000803e3d6000fd5b505050506040513d601f19601f820116820180604052508101906109fc9190612ec4565b90506000819050600080826001600160a01b0316630902f1ac6040518163ffffffff1660e01b815260040160606040518083038186803b158015610a3f57600080fd5b505afa158015610a53573d6000803e3d6000fd5b505050506040513d601f19601f82011682018060405250810190610a77919061317f565b5091509150600080846001600160a01b0316639d63848a6040518163ffffffff1660e01b8152600401604080518083038186803b158015610ab757600080fd5b505afa158015610acb573d6000803e3d6000fd5b505050506040513d601f19601f82011682018060405250810190610aef9190612ee1565b915091506000826001600160a01b031663313ce5676040518163ffffffff1660e01b815260040160206040518083038186803b158015610b2e57600080fd5b505afa158015610b42573d6000803e3d6000fd5b505050506040513d601f19601f82011682018060405250810190610b6691906131ad565b60ff1690506000826001600160a01b031663313ce5676040518163ffffffff1660e01b815260040160206040518083038186803b158015610ba657600080fd5b505afa158015610bba573d6000803e3d6000fd5b505050506040513d601f19601f82011682018060405250810190610bde91906131ad565b60ff169050808211610bf05780610bf2565b815b610bfd90600a6134dd565b9950610c0a82600a6134dd565b610c14908b613478565b610c1e9087613595565b9b50610c2b81600a6134dd565b610c35908b613478565b610c3f9086613595565b9a505050505050505050509193909250565b610c5a8261137a565b610c638261182f565b50506000816000015190506000816001600160a01b03166382bfefc86040518163ffffffff1660e01b815260040160206040518083038186803b158015610ca957600080fd5b505afa158015610cbd573d6000803e3d6000fd5b505050506040513d601f19601f82011682018060405250810190610ce19190612ec4565b905060008190506000836001600160a01b031663617a8d9e6040518163ffffffff1660e01b815260040160206040518083038186803b158015610d2357600080fd5b505afa158015610d37573d6000803e3d6000fd5b505050506040513d601f19601f82011682018060405250810190610d5b9190612ec4565b9050600080836001600160a01b0316639d63848a6040518163ffffffff1660e01b8152600401604080518083038186803b158015610d9857600080fd5b505afa158015610dac573d6000803e3d6000fd5b505050506040513d601f19601f82011682018060405250810190610dd09190612ee1565b604080516002808252606082018352939550919350600092906020830190803683370190505090508281600081518110610e0c57610e0c61363f565b60200260200101906001600160a01b031690816001600160a01b0316815250508181600181518110610e4057610e4061363f565b6001600160a01b0392909216602092830291909101820152604080516002808252606082018352600093919290918301908036833701905050905060005b825181101561102d576000838281518110610e9b57610e9b61363f565b6020026020010151905060008b602001518381518110610ebd57610ebd61363f565b60200260200101511115610f8657806001600160a01b03166323b872dd33308e602001518681518110610ef257610ef261363f565b60209081029190910101516040516001600160e01b031960e086901b1681526001600160a01b0393841660048201529290911660248301526044820152606401602060405180830381600087803b158015610f4c57600080fd5b505af1158015610f60573d6000803e3d6000fd5b505050506040513d601f19601f82011682018060405250810190610f849190612f6a565b505b6040516370a0823160e01b81523060048201526001600160a01b038216906370a082319060240160206040518083038186803b158015610fc557600080fd5b505afa158015610fd9573d6000803e3d6000fd5b505050506040513d601f19601f82011682018060405250810190610ffd9190612fa5565b83838151811061100f5761100f61363f565b602090810291909101015250806110258161360e565b915050610e7e565b50611039868383611c8b565b6110448689876125a8565b50505050505050505050565b60008281526065602052604090206001015461106b81611075565b6103e58383611105565b61054a8133612796565b6110898282610852565b6104695760008281526065602090815260408083206001600160a01b03851684529091529020805460ff191660011790556110c13390565b6001600160a01b0316816001600160a01b0316837f2f8788117e7eff1d82e926ec794901d17c78024a50270940304540a733656f0d60405160405180910390a45050565b61110f8282610852565b156104695760008281526065602090815260408083206001600160a01b0385168085529252808320805460ff1916905551339285917ff6391f5c32d9c69d2a47ea670b442974b53935d1edc7fd64eb21e047a839171b9190a45050565b611177600033610852565b61054a5760405162461bcd60e51b8152600401610456906133a3565b7f4910fdfa16fed3260ed0e7147f7cc6da11a60208b5b9406d12a635614ffd91435460ff16156111c6576103e5836127ef565b826001600160a01b03166352d1902d6040518163ffffffff1660e01b815260040160206040518083038186803b1580156111ff57600080fd5b505afa92505050801561122f575060408051601f3d908101601f1916820190925261122c91810190612fa5565b60015b6112925760405162461bcd60e51b815260206004820152602e60248201527f45524331393637557067726164653a206e657720696d706c656d656e7461746960448201526d6f6e206973206e6f74205555505360901b6064820152608401610456565b60008051602061368183398151915281146113015760405162461bcd60e51b815260206004820152602960248201527f45524331393637557067726164653a20756e737570706f727465642070726f786044820152681a58589b195555525160ba1b6064820152608401610456565b506103e583838361288b565b600054610100900460ff166113785760405162461bcd60e51b815260206004820152602b60248201527f496e697469616c697a61626c653a20636f6e7472616374206973206e6f74206960448201526a6e697469616c697a696e6760a81b6064820152608401610456565b565b60005b8160200151518110156114ee5760005b818110156114db57826020015181815181106113ab576113ab61363f565b6020026020010151600001516001600160a01b0316836020015183815181106113d6576113d661363f565b6020026020010151600001516001600160a01b031614156114395760405162461bcd60e51b815260206004820152601760248201527f4475706c6963617465206f757470757420746f6b656e730000000000000000006044820152606401610456565b306001600160a01b0316836020015183815181106114595761145961363f565b6020026020010151602001516001600160a01b0316146114c95760405162461bcd60e51b815260206004820152602560248201527f5265636569766572206f662073776170206973206e6f74207468697320636f6e6044820152641d1c9858dd60da1b6064820152608401610456565b806114d38161360e565b91505061138d565b50806114e68161360e565b91505061137d565b5060005b8151518110156104695760005b818110156115b457825180518290811061151b5761151b61363f565b6020026020010151600001516001600160a01b0316836000015183815181106115465761154661363f565b6020026020010151600001516001600160a01b031614156115a25760405162461bcd60e51b81526020600482015260166024820152754475706c696361746520696e70757420746f6b656e7360501b6044820152606401610456565b806115ac8161360e565b9150506114ff565b5060005b82602001515181101561167b57826020015181815181106115db576115db61363f565b6020026020010151600001516001600160a01b0316836000015183815181106116065761160661363f565b6020026020010151600001516001600160a01b031614156116695760405162461bcd60e51b815260206004820152601a60248201527f4475706c696361746520696e70757420616e64206f75747075740000000000006044820152606401610456565b806116738161360e565b9150506115b8565b506000826000015182815181106116945761169461363f565b6020026020010151600001519050806001600160a01b03166323b872dd3330866000015186815181106116c9576116c961363f565b60209081029190910181015101516040516001600160e01b031960e086901b1681526001600160a01b0393841660048201529290911660248301526044820152606401602060405180830381600087803b15801561172657600080fd5b505af115801561173a573d6000803e3d6000fd5b505050506040513d601f19601f8201168201806040525081019061175e9190612f6a565b5060fc54835180516001600160a01b038085169363095ea7b3939116918690811061178b5761178b61363f565b6020026020010151602001516040518363ffffffff1660e01b81526004016117c89291906001600160a01b03929092168252602082015260400190565b602060405180830381600087803b1580156117e257600080fd5b505af11580156117f6573d6000803e3d6000fd5b505050506040513d601f19601f8201168201806040525081019061181a9190612f6a565b505080806118279061360e565b9150506114f2565b60fc54604080830151905160609283926000926001600160a01b03909216918391611859916131d0565b60006040518083038185875af1925050503d8060008114611896576040519150601f19603f3d011682016040523d82523d6000602084013e61189b565b606091505b50509050806118e25760405162461bcd60e51b81526020600482015260136024820152721c9bdd5d195c881cddd85c081a5b9d985b1a59606a1b6044820152606401610456565b8351516000906001600160401b038111156118ff576118ff613655565b604051908082528060200260200182016040528015611928578160200160208202803683370190505b50905060008560000151516001600160401b0381111561194a5761194a613655565b604051908082528060200260200182016040528015611973578160200160208202803683370190505b50905060005b865151811015611a1c5786518051829081106119975761199761363f565b6020026020010151600001518382815181106119b5576119b561363f565b6001600160a01b039092166020928302919091019091015286518051829081106119e1576119e161363f565b6020026020010151602001518282815181106119ff576119ff61363f565b602090810291909101015280611a148161360e565b915050611979565b507fb5ad02132d64b1e89c5196397a95b3e268e3f5c555b5845f2ddcdf24684d2aad8183604051611a4e929190613261565b60405180910390a160008660200151516001600160401b03811115611a7557611a75613655565b604051908082528060200260200182016040528015611a9e578160200160208202803683370190505b50905060008760200151516001600160401b03811115611ac057611ac0613655565b604051908082528060200260200182016040528015611ae9578160200160208202803683370190505b50905060005b886020015151811015611c445788602001518181518110611b1257611b1261363f565b602002602001015160000151838281518110611b3057611b3061363f565b60200260200101906001600160a01b031690816001600160a01b031681525050828181518110611b6257611b6261363f565b60200260200101516001600160a01b03166370a082318a602001518381518110611b8e57611b8e61363f565b6020026020010151602001516040518263ffffffff1660e01b8152600401611bc591906001600160a01b0391909116815260200190565b60206040518083038186803b158015611bdd57600080fd5b505afa158015611bf1573d6000803e3d6000fd5b505050506040513d601f19601f82011682018060405250810190611c159190612fa5565b828281518110611c2757611c2761363f565b602090810291909101015280611c3c8161360e565b915050611aef565b507f0c9e5a590aa4a07e734c28846ee575ea53d4ddf0fc046c45c367faaa2e0342388183604051611c76929190613261565b60405180910390a19097909650945050505050565b600080846001600160a01b0316630902f1ac6040518163ffffffff1660e01b815260040160606040518083038186803b158015611cc757600080fd5b505afa158015611cdb573d6000803e3d6000fd5b505050506040513d601f19601f82011682018060405250810190611cff919061317f565b5091509150600080611e7385600081518110611d1d57611d1d61363f565b602002602001015186600181518110611d3857611d3861363f565b602002602001015186868a600081518110611d5557611d5561363f565b60200260200101516001600160a01b031663313ce5676040518163ffffffff1660e01b815260040160206040518083038186803b158015611d9557600080fd5b505afa158015611da9573d6000803e3d6000fd5b505050506040513d601f19601f82011682018060405250810190611dcd91906131ad565b611dd890600a6134e9565b8b600181518110611deb57611deb61363f565b60200260200101516001600160a01b031663313ce5676040518163ffffffff1660e01b815260040160206040518083038186803b158015611e2b57600080fd5b505afa158015611e3f573d6000803e3d6000fd5b505050506040513d601f19601f82011682018060405250810190611e6391906131ad565b611e6e90600a6134e9565b6128b6565b91509150600086600081518110611e8c57611e8c61363f565b60200260200101519050600087600181518110611eab57611eab61363f565b602090810291909101015160fd5460405163095ea7b360e01b81526001600160a01b0391821660048201526024810187905291925083169063095ea7b390604401602060405180830381600087803b158015611f0657600080fd5b505af1158015611f1a573d6000803e3d6000fd5b505050506040513d601f19601f82011682018060405250810190611f3e9190612f6a565b5060fd5460405163095ea7b360e01b81526001600160a01b039182166004820152602481018590529082169063095ea7b390604401602060405180830381600087803b158015611f8d57600080fd5b505af1158015611fa1573d6000803e3d6000fd5b505050506040513d601f19601f82011682018060405250810190611fc59190612f6a565b506040516370a0823160e01b81523060048201526000906001600160a01b038416906370a082319060240160206040518083038186803b15801561200857600080fd5b505afa15801561201c573d6000803e3d6000fd5b505050506040513d601f19601f820116820180604052508101906120409190612fa5565b6040516370a0823160e01b81523060048201529091506000906001600160a01b038416906370a082319060240160206040518083038186803b15801561208557600080fd5b505afa158015612099573d6000803e3d6000fd5b505050506040513d601f19601f820116820180604052508101906120bd9190612fa5565b60fd548b519192506001600160a01b031690635a47ddc3908c906000906120e6576120e661363f565b60200260200101518c6001815181106121015761210161363f565b60200260200101518e6001600160a01b03166322be3de16040518163ffffffff1660e01b815260040160206040518083038186803b15801561214257600080fd5b505afa158015612156573d6000803e3d6000fd5b505050506040513d601f19601f8201168201806040525081019061217a9190612f6a565b8a8a6121888d60fb5461297a565b6121948d60fb5461297a565b6040516001600160e01b031960e08a901b1681526001600160a01b03978816600482015296909516602487015292151560448601526064850191909152608484015260a483015260c48201523060e48201524261010482015261012401606060405180830381600087803b15801561220b57600080fd5b505af115801561221f573d6000803e3d6000fd5b505050506040513d601f19601f82011682018060405250810190612243919061317f565b50506040516370a0823160e01b8152306004820152600091506001600160a01b038616906370a082319060240160206040518083038186803b15801561228857600080fd5b505afa15801561229c573d6000803e3d6000fd5b505050506040513d601f19601f820116820180604052508101906122c09190612fa5565b6040516370a0823160e01b81523060048201529091506000906001600160a01b038616906370a082319060240160206040518083038186803b15801561230557600080fd5b505afa158015612319573d6000803e3d6000fd5b505050506040513d601f19601f8201168201806040525081019061233d9190612fa5565b905081156123c75760405163a9059cbb60e01b8152336004820152602481018390526001600160a01b0387169063a9059cbb90604401602060405180830381600087803b15801561238d57600080fd5b505af11580156123a1573d6000803e3d6000fd5b505050506040513d601f19601f820116820180604052508101906123c59190612f6a565b505b801561244f5760405163a9059cbb60e01b8152336004820152602481018290526001600160a01b0386169063a9059cbb90604401602060405180830381600087803b15801561241557600080fd5b505af1158015612429573d6000803e3d6000fd5b505050506040513d601f19601f8201168201806040525081019061244d9190612f6a565b505b60408051600280825260608201835260009260208301908036833701905050905061247a83866135b4565b8160008151811061248d5761248d61363f565b60209081029190910101526124a282856135b4565b816001815181106124b5576124b561363f565b60209081029190910101526040805160028082526060820190925260009181602001602082028036833701905050905083816000815181106124f9576124f961363f565b60200260200101818152505082816001815181106125195761251961363f565b6020026020010181815250507ff471c761d3d5d25c66f3d23a33cf7f9aaea894aa0fbcbb3bb158b1bea3c2ed45828f604051612556929190613261565b60405180910390a17fb4df4b62c251866b0421eb65c2beafa02a7d9e8a267e952174b984257924e175818f60405161258f929190613261565b60405180910390a1505050505050505050505050505050565b6040516370a0823160e01b81523060048201526000906001600160a01b038516906370a082319060240160206040518083038186803b1580156125ea57600080fd5b505afa1580156125fe573d6000803e3d6000fd5b505050506040513d601f19601f820116820180604052508101906126229190612fa5565b60405163095ea7b360e01b81526001600160a01b038581166004830152602482018390529192509085169063095ea7b390604401602060405180830381600087803b15801561267057600080fd5b505af1158015612684573d6000803e3d6000fd5b505050506040513d601f19601f820116820180604052508101906126a89190612f6a565b5060405163b6b55f2560e01b8152600481018290526000906001600160a01b0385169063b6b55f2590602401602060405180830381600087803b1580156126ee57600080fd5b505af1158015612702573d6000803e3d6000fd5b505050506040513d601f19601f820116820180604052508101906127269190612fa5565b604051632142170760e11b8152306004820152336024820152604481018290529091506001600160a01b038416906342842e0e90606401600060405180830381600087803b15801561277757600080fd5b505af115801561278b573d6000803e3d6000fd5b505050505050505050565b6127a08282610852565b610469576127ad816129a4565b6127b88360206129b6565b6040516020016127c99291906131ec565b60408051601f198184030181529082905262461bcd60e51b8252610456916004016132d8565b6001600160a01b0381163b61285c5760405162461bcd60e51b815260206004820152602d60248201527f455243313936373a206e657720696d706c656d656e746174696f6e206973206e60448201526c1bdd08184818dbdb9d1c9858dd609a1b6064820152608401610456565b60008051602061368183398151915280546001600160a01b0319166001600160a01b0392909216919091179055565b61289483612b51565b6000825111806128a15750805b156103e5576128b08383612b91565b50505050565b600080826128c5866064613595565b6128cf9190613478565b846128db886064613595565b6128e59190613478565b111561292f57856128f68987613595565b6129009190613478565b905086811161290f5780612911565b865b90508461291e8783613595565b6129289190613478565b915061296f565b8461293a8888613595565b6129449190613478565b91508782116129535781612955565b875b9150856129628684613595565b61296c9190613478565b90505b965096945050505050565b600061271061298983826135b4565b6129939085613595565b61299d9190613478565b9392505050565b60606103ba6001600160a01b03831660145b606060006129c5836002613595565b6129d0906002613460565b6001600160401b038111156129e7576129e7613655565b6040519080825280601f01601f191660200182016040528015612a11576020820181803683370190505b509050600360fc1b81600081518110612a2c57612a2c61363f565b60200101906001600160f81b031916908160001a905350600f60fb1b81600181518110612a5b57612a5b61363f565b60200101906001600160f81b031916908160001a9053506000612a7f846002613595565b612a8a906001613460565b90505b6001811115612b02576f181899199a1a9b1b9c1cb0b131b232b360811b85600f1660108110612abe57612abe61363f565b1a60f81b828281518110612ad457612ad461363f565b60200101906001600160f81b031916908160001a90535060049490941c93612afb816135f7565b9050612a8d565b50831561299d5760405162461bcd60e51b815260206004820181905260248201527f537472696e67733a20686578206c656e67746820696e73756666696369656e746044820152606401610456565b612b5a816127ef565b6040516001600160a01b038216907fbc7cd75a20ee27fd9adebab32041f755214dbc6bffa90cc0225b39da2e5c2d3b90600090a250565b60606001600160a01b0383163b612bf95760405162461bcd60e51b815260206004820152602660248201527f416464726573733a2064656c65676174652063616c6c20746f206e6f6e2d636f6044820152651b9d1c9858dd60d21b6064820152608401610456565b600080846001600160a01b031684604051612c1491906131d0565b600060405180830381855af49150503d8060008114612c4f576040519150601f19603f3d011682016040523d82523d6000602084013e612c54565b606091505b5091509150612c7c82826040518060600160405280602781526020016136a160279139612c85565b95945050505050565b60608315612c9457508161299d565b61299d8383815115612ca95781518083602001fd5b8060405162461bcd60e51b815260040161045691906132d8565b600082601f830112612cd457600080fd5b81356020612ce9612ce48361343d565b61340d565b80838252828201915082860187848660061b8901011115612d0957600080fd5b60005b85811015612d3357612d1e8983612e65565b84529284019260409190910190600101612d0c565b5090979650505050505050565b600082601f830112612d5157600080fd5b81356001600160401b03811115612d6a57612d6a613655565b612d7d601f8201601f191660200161340d565b818152846020838601011115612d9257600080fd5b816020850160208301376000918101602001919091529392505050565b600060408284031215612dc157600080fd5b612dc96133c3565b90508135612dd68161366b565b81526020828101356001600160401b03811115612df257600080fd5b8301601f81018513612e0357600080fd5b8035612e11612ce48261343d565b80828252848201915084840188868560051b8701011115612e3157600080fd5b600094505b83851015612e54578035835260019490940193918501918501612e36565b508085870152505050505092915050565b600060408284031215612e7757600080fd5b612e7f6133c3565b90508135612e8c8161366b565b81526020820135612e9c8161366b565b602082015292915050565b600060208284031215612eb957600080fd5b813561299d8161366b565b600060208284031215612ed657600080fd5b815161299d8161366b565b60008060408385031215612ef457600080fd5b8251612eff8161366b565b6020840151909250612f108161366b565b809150509250929050565b60008060408385031215612f2e57600080fd5b8235612f398161366b565b915060208301356001600160401b03811115612f5457600080fd5b612f6085828601612d40565b9150509250929050565b600060208284031215612f7c57600080fd5b8151801515811461299d57600080fd5b600060208284031215612f9e57600080fd5b5035919050565b600060208284031215612fb757600080fd5b5051919050565b60008060408385031215612fd157600080fd5b823591506020830135612f108161366b565b600060208284031215612ff557600080fd5b81356001600160e01b03198116811461299d57600080fd5b600080604080848603121561302157600080fd5b83356001600160401b038082111561303857600080fd5b908501906060828803121561304c57600080fd5b6130546133eb565b82358281111561306357600080fd5b8301601f8101891361307457600080fd5b80356020613084612ce48361343d565b8083825282820191508285018d848660061b88010111156130a457600080fd5b600095505b848610156130f15789818f0312156130c057600080fd5b6130c86133c3565b81356130d38161366b565b815281850135858201528352600195909501949183019189016130a9565b508552508581013592508483111561310857600080fd5b6131148b848801612cc3565b818501528686013592508483111561312b57600080fd5b6131378b848801612d40565b87850152839850808a01359650505050508083111561315557600080fd5b5050612f6085828601612daf565b60006040828403121561317557600080fd5b61299d8383612e65565b60008060006060848603121561319457600080fd5b8351925060208401519150604084015190509250925092565b6000602082840312156131bf57600080fd5b815160ff8116811461299d57600080fd5b600082516131e28184602087016135cb565b9190910192915050565b7f416363657373436f6e74726f6c3a206163636f756e74200000000000000000008152600083516132248160178501602088016135cb565b7001034b99036b4b9b9b4b733903937b6329607d1b60179184019182015283516132558160288401602088016135cb565b01602801949350505050565b604080825283519082018190526000906020906060840190828701845b8281101561329a5781518452928401929084019060010161327e565b5050508381038285015284518082528583019183019060005b81811015612d335783516001600160a01b0316835292840192918401916001016132b3565b60208152600082518060208401526132f78160408501602087016135cb565b601f01601f19169190910160400192915050565b6020808252602c908201527f46756e6374696f6e206d7573742062652063616c6c6564207468726f7567682060408201526b19195b1959d85d1958d85b1b60a21b606082015260800190565b6020808252602c908201527f46756e6374696f6e206d7573742062652063616c6c6564207468726f7567682060408201526b6163746976652070726f787960a01b606082015260800190565b60208082526006908201526510a0b236b4b760d11b604082015260600190565b604080519081016001600160401b03811182821017156133e5576133e5613655565b60405290565b604051606081016001600160401b03811182821017156133e5576133e5613655565b604051601f8201601f191681016001600160401b038111828210171561343557613435613655565b604052919050565b60006001600160401b0382111561345657613456613655565b5060051b60200190565b6000821982111561347357613473613629565b500190565b60008261349557634e487b7160e01b600052601260045260246000fd5b500490565b600181815b808511156134d55781600019048211156134bb576134bb613629565b808516156134c857918102915b93841c939080029061349f565b509250929050565b600061299d83836134f4565b600061299d60ff8416835b600082613503575060016103ba565b81613510575060006103ba565b816001811461352657600281146135305761354c565b60019150506103ba565b60ff84111561354157613541613629565b50506001821b6103ba565b5060208310610133831016604e8410600b841016171561356f575081810a6103ba565b613579838361349a565b806000190482111561358d5761358d613629565b029392505050565b60008160001904831182151516156135af576135af613629565b500290565b6000828210156135c6576135c6613629565b500390565b60005b838110156135e65781810151838201526020016135ce565b838111156128b05750506000910152565b60008161360657613606613629565b506000190190565b600060001982141561362257613622613629565b5060010190565b634e487b7160e01b600052601160045260246000fd5b634e487b7160e01b600052603260045260246000fd5b634e487b7160e01b600052604160045260246000fd5b6001600160a01b038116811461054a57600080fdfe360894a13ba1a3210667c828492db98dca3e2076cc3735a920a3ca505d382bbc416464726573733a206c6f772d6c6576656c2064656c65676174652063616c6c206661696c6564a26469706673582212209143c780c058480a8036ef69d2fa8609eab4412684cf75a604114caeab11f93164736f6c63430008060033",
  "implementation": "0x3D905b730C6703d28Aba57d808906C3761Cc0e24",
  "devdoc": {
    "kind": "dev",
    "methods": {
      "getRoleAdmin(bytes32)": {
        "details": "Returns the admin role that controls `role`. See {grantRole} and {revokeRole}. To change a role's admin, use {_setRoleAdmin}."
      },
      "grantRole(bytes32,address)": {
        "details": "Grants `role` to `account`. If `account` had not been already granted `role`, emits a {RoleGranted} event. Requirements: - the caller must have ``role``'s admin role. May emit a {RoleGranted} event."
      },
      "hasRole(bytes32,address)": {
        "details": "Returns `true` if `account` has been granted `role`."
      },
      "proxiableUUID()": {
        "details": "Implementation of the ERC1822 {proxiableUUID} function. This returns the storage slot used by the implementation. It is used to validate the implementation's compatibility when performing an upgrade. IMPORTANT: A proxy pointing at a proxiable contract should not be considered proxiable itself, because this risks bricking a proxy that upgrades to it, by delegating to itself until out of gas. Thus it is critical that this function revert if invoked through a proxy. This is guaranteed by the `notDelegated` modifier."
      },
      "renounceRole(bytes32,address)": {
        "details": "Revokes `role` from the calling account. Roles are often managed via {grantRole} and {revokeRole}: this function's purpose is to provide a mechanism for accounts to lose their privileges if they are compromised (such as when a trusted device is misplaced). If the calling account had been revoked `role`, emits a {RoleRevoked} event. Requirements: - the caller must be `account`. May emit a {RoleRevoked} event."
      },
      "revokeRole(bytes32,address)": {
        "details": "Revokes `role` from `account`. If `account` had been granted `role`, emits a {RoleRevoked} event. Requirements: - the caller must have ``role``'s admin role. May emit a {RoleRevoked} event."
      },
      "supportsInterface(bytes4)": {
        "details": "See {IERC165-supportsInterface}."
      },
      "upgradeTo(address)": {
        "details": "Upgrade the implementation of the proxy to `newImplementation`. Calls {_authorizeUpgrade}. Emits an {Upgraded} event."
      },
      "upgradeToAndCall(address,bytes)": {
        "details": "Upgrade the implementation of the proxy to `newImplementation`, and subsequently execute the function call encoded in `data`. Calls {_authorizeUpgrade}. Emits an {Upgraded} event."
      }
    },
    "version": 1
  },
  "userdoc": {
    "kind": "user",
    "methods": {},
    "version": 1
  },
  "storageLayout": {
    "storage": [
      {
        "astId": 804,
        "contract": "contracts/ChronosZap.sol:ChronosZap",
        "label": "_initialized",
        "offset": 0,
        "slot": "0",
        "type": "t_uint8"
      },
      {
        "astId": 807,
        "contract": "contracts/ChronosZap.sol:ChronosZap",
        "label": "_initializing",
        "offset": 1,
        "slot": "0",
        "type": "t_bool"
      },
      {
        "astId": 2142,
        "contract": "contracts/ChronosZap.sol:ChronosZap",
        "label": "__gap",
        "offset": 0,
        "slot": "1",
        "type": "t_array(t_uint256)50_storage"
      },
      {
        "astId": 2421,
        "contract": "contracts/ChronosZap.sol:ChronosZap",
        "label": "__gap",
        "offset": 0,
        "slot": "51",
        "type": "t_array(t_uint256)50_storage"
      },
      {
        "astId": 39,
        "contract": "contracts/ChronosZap.sol:ChronosZap",
        "label": "_roles",
        "offset": 0,
        "slot": "101",
        "type": "t_mapping(t_bytes32,t_struct(RoleData)34_storage)"
      },
      {
        "astId": 334,
        "contract": "contracts/ChronosZap.sol:ChronosZap",
        "label": "__gap",
        "offset": 0,
        "slot": "102",
        "type": "t_array(t_uint256)49_storage"
      },
      {
        "astId": 786,
        "contract": "contracts/ChronosZap.sol:ChronosZap",
        "label": "__gap",
        "offset": 0,
        "slot": "151",
        "type": "t_array(t_uint256)50_storage"
      },
      {
        "astId": 1101,
        "contract": "contracts/ChronosZap.sol:ChronosZap",
        "label": "__gap",
        "offset": 0,
        "slot": "201",
        "type": "t_array(t_uint256)50_storage"
      },
      {
        "astId": 12511,
        "contract": "contracts/ChronosZap.sol:ChronosZap",
        "label": "stakeSlippageBP",
        "offset": 0,
        "slot": "251",
        "type": "t_uint256"
      },
      {
        "astId": 12513,
        "contract": "contracts/ChronosZap.sol:ChronosZap",
        "label": "odosRouter",
        "offset": 0,
        "slot": "252",
        "type": "t_address"
      },
      {
        "astId": 11089,
        "contract": "contracts/ChronosZap.sol:ChronosZap",
        "label": "chronosRouter",
        "offset": 0,
        "slot": "253",
        "type": "t_contract(IChronosRouter)5062"
      }
    ],
    "types": {
      "t_address": {
        "encoding": "inplace",
        "label": "address",
        "numberOfBytes": "20"
      },
      "t_array(t_uint256)49_storage": {
        "base": "t_uint256",
        "encoding": "inplace",
        "label": "uint256[49]",
        "numberOfBytes": "1568"
      },
      "t_array(t_uint256)50_storage": {
        "base": "t_uint256",
        "encoding": "inplace",
        "label": "uint256[50]",
        "numberOfBytes": "1600"
      },
      "t_bool": {
        "encoding": "inplace",
        "label": "bool",
        "numberOfBytes": "1"
      },
      "t_bytes32": {
        "encoding": "inplace",
        "label": "bytes32",
        "numberOfBytes": "32"
      },
      "t_contract(IChronosRouter)5062": {
        "encoding": "inplace",
        "label": "contract IChronosRouter",
        "numberOfBytes": "20"
      },
      "t_mapping(t_address,t_bool)": {
        "encoding": "mapping",
        "key": "t_address",
        "label": "mapping(address => bool)",
        "numberOfBytes": "32",
        "value": "t_bool"
      },
      "t_mapping(t_bytes32,t_struct(RoleData)34_storage)": {
        "encoding": "mapping",
        "key": "t_bytes32",
        "label": "mapping(bytes32 => struct AccessControlUpgradeable.RoleData)",
        "numberOfBytes": "32",
        "value": "t_struct(RoleData)34_storage"
      },
      "t_struct(RoleData)34_storage": {
        "encoding": "inplace",
        "label": "struct AccessControlUpgradeable.RoleData",
        "members": [
          {
            "astId": 31,
            "contract": "contracts/ChronosZap.sol:ChronosZap",
            "label": "members",
            "offset": 0,
            "slot": "0",
            "type": "t_mapping(t_address,t_bool)"
          },
          {
            "astId": 33,
            "contract": "contracts/ChronosZap.sol:ChronosZap",
            "label": "adminRole",
            "offset": 0,
            "slot": "1",
            "type": "t_bytes32"
          }
        ],
        "numberOfBytes": "64"
      },
      "t_uint256": {
        "encoding": "inplace",
        "label": "uint256",
        "numberOfBytes": "32"
      },
      "t_uint8": {
        "encoding": "inplace",
        "label": "uint8",
        "numberOfBytes": "1"
      }
    }
  }
}