{
  "address": "0xD752B87c94c3c36A2702350763c669290bE830D2",
  "abi": [
    {
      "anonymous": false,
      "inputs": [
        {
          "indexed": false,
          "internalType": "address",
          "name": "previousAdmin",
          "type": "address"
        },
        {
          "indexed": false,
          "internalType": "address",
          "name": "newAdmin",
          "type": "address"
        }
      ],
      "name": "AdminChanged",
      "type": "event"
    },
    {
      "anonymous": false,
      "inputs": [
        {
          "indexed": true,
          "internalType": "address",
          "name": "beacon",
          "type": "address"
        }
      ],
      "name": "BeaconUpgraded",
      "type": "event"
    },
    {
      "anonymous": false,
      "inputs": [
        {
          "indexed": false,
          "internalType": "uint8",
          "name": "version",
          "type": "uint8"
        }
      ],
      "name": "Initialized",
      "type": "event"
    },
    {
      "anonymous": false,
      "inputs": [
        {
          "indexed": false,
          "internalType": "uint256[]",
          "name": "amountsIn",
          "type": "uint256[]"
        },
        {
          "indexed": false,
          "internalType": "address[]",
          "name": "tokensIn",
          "type": "address[]"
        }
      ],
      "name": "InputTokens",
      "type": "event"
    },
    {
      "anonymous": false,
      "inputs": [
        {
          "indexed": false,
          "internalType": "uint256[]",
          "name": "amountsOut",
          "type": "uint256[]"
        },
        {
          "indexed": false,
          "internalType": "address[]",
          "name": "tokensOut",
          "type": "address[]"
        }
      ],
      "name": "OutputTokens",
      "type": "event"
    },
    {
      "anonymous": false,
      "inputs": [
        {
          "indexed": false,
          "internalType": "uint256[]",
          "name": "amountsPut",
          "type": "uint256[]"
        },
        {
          "indexed": false,
          "internalType": "address[]",
          "name": "tokensPut",
          "type": "address[]"
        }
      ],
      "name": "PutIntoPool",
      "type": "event"
    },
    {
      "anonymous": false,
      "inputs": [
        {
          "indexed": false,
          "internalType": "uint256[]",
          "name": "amountsReturned",
          "type": "uint256[]"
        },
        {
          "indexed": false,
          "internalType": "address[]",
          "name": "tokensReturned",
          "type": "address[]"
        }
      ],
      "name": "ReturnedToUser",
      "type": "event"
    },
    {
      "anonymous": false,
      "inputs": [
        {
          "indexed": true,
          "internalType": "bytes32",
          "name": "role",
          "type": "bytes32"
        },
        {
          "indexed": true,
          "internalType": "bytes32",
          "name": "previousAdminRole",
          "type": "bytes32"
        },
        {
          "indexed": true,
          "internalType": "bytes32",
          "name": "newAdminRole",
          "type": "bytes32"
        }
      ],
      "name": "RoleAdminChanged",
      "type": "event"
    },
    {
      "anonymous": false,
      "inputs": [
        {
          "indexed": true,
          "internalType": "bytes32",
          "name": "role",
          "type": "bytes32"
        },
        {
          "indexed": true,
          "internalType": "address",
          "name": "account",
          "type": "address"
        },
        {
          "indexed": true,
          "internalType": "address",
          "name": "sender",
          "type": "address"
        }
      ],
      "name": "RoleGranted",
      "type": "event"
    },
    {
      "anonymous": false,
      "inputs": [
        {
          "indexed": true,
          "internalType": "bytes32",
          "name": "role",
          "type": "bytes32"
        },
        {
          "indexed": true,
          "internalType": "address",
          "name": "account",
          "type": "address"
        },
        {
          "indexed": true,
          "internalType": "address",
          "name": "sender",
          "type": "address"
        }
      ],
      "name": "RoleRevoked",
      "type": "event"
    },
    {
      "anonymous": false,
      "inputs": [
        {
          "indexed": false,
          "internalType": "uint256",
          "name": "stakeSlippageBP",
          "type": "uint256"
        }
      ],
      "name": "UpdateSlippages",
      "type": "event"
    },
    {
      "anonymous": false,
      "inputs": [
        {
          "indexed": true,
          "internalType": "address",
          "name": "implementation",
          "type": "address"
        }
      ],
      "name": "Upgraded",
      "type": "event"
    },
    {
      "inputs": [],
      "name": "DEFAULT_ADMIN_ROLE",
      "outputs": [
        {
          "internalType": "bytes32",
          "name": "",
          "type": "bytes32"
        }
      ],
      "stateMutability": "view",
      "type": "function"
    },
    {
      "inputs": [
        {
          "internalType": "address",
          "name": "_gauge",
          "type": "address"
        }
      ],
      "name": "getProportion",
      "outputs": [
        {
          "internalType": "uint256",
          "name": "token0Amount",
          "type": "uint256"
        },
        {
          "internalType": "uint256",
          "name": "token1Amount",
          "type": "uint256"
        },
        {
          "internalType": "uint256",
          "name": "denominator",
          "type": "uint256"
        }
      ],
      "stateMutability": "view",
      "type": "function"
    },
    {
      "inputs": [
        {
          "internalType": "bytes32",
          "name": "role",
          "type": "bytes32"
        }
      ],
      "name": "getRoleAdmin",
      "outputs": [
        {
          "internalType": "bytes32",
          "name": "",
          "type": "bytes32"
        }
      ],
      "stateMutability": "view",
      "type": "function"
    },
    {
      "inputs": [
        {
          "internalType": "bytes32",
          "name": "role",
          "type": "bytes32"
        },
        {
          "internalType": "address",
          "name": "account",
          "type": "address"
        }
      ],
      "name": "grantRole",
      "outputs": [],
      "stateMutability": "nonpayable",
      "type": "function"
    },
    {
      "inputs": [
        {
          "internalType": "bytes32",
          "name": "role",
          "type": "bytes32"
        },
        {
          "internalType": "address",
          "name": "account",
          "type": "address"
        }
      ],
      "name": "hasRole",
      "outputs": [
        {
          "internalType": "bool",
          "name": "",
          "type": "bool"
        }
      ],
      "stateMutability": "view",
      "type": "function"
    },
    {
      "inputs": [],
      "name": "initialize",
      "outputs": [],
      "stateMutability": "nonpayable",
      "type": "function"
    },
    {
      "inputs": [],
      "name": "odosRouter",
      "outputs": [
        {
          "internalType": "address",
          "name": "",
          "type": "address"
        }
      ],
      "stateMutability": "view",
      "type": "function"
    },
    {
      "inputs": [],
      "name": "proxiableUUID",
      "outputs": [
        {
          "internalType": "bytes32",
          "name": "",
          "type": "bytes32"
        }
      ],
      "stateMutability": "view",
      "type": "function"
    },
    {
      "inputs": [
        {
          "internalType": "bytes32",
          "name": "role",
          "type": "bytes32"
        },
        {
          "internalType": "address",
          "name": "account",
          "type": "address"
        }
      ],
      "name": "renounceRole",
      "outputs": [],
      "stateMutability": "nonpayable",
      "type": "function"
    },
    {
      "inputs": [
        {
          "internalType": "bytes32",
          "name": "role",
          "type": "bytes32"
        },
        {
          "internalType": "address",
          "name": "account",
          "type": "address"
        }
      ],
      "name": "revokeRole",
      "outputs": [],
      "stateMutability": "nonpayable",
      "type": "function"
    },
    {
      "inputs": [
        {
          "components": [
            {
              "internalType": "address",
              "name": "odosRouter",
              "type": "address"
            }
          ],
          "internalType": "struct ConvexZap.ZapParams",
          "name": "params",
          "type": "tuple"
        }
      ],
      "name": "setParams",
      "outputs": [],
      "stateMutability": "nonpayable",
      "type": "function"
    },
    {
      "inputs": [
        {
          "internalType": "uint256",
          "name": "_stakeSlippageBP",
          "type": "uint256"
        }
      ],
      "name": "setSlippages",
      "outputs": [],
      "stateMutability": "nonpayable",
      "type": "function"
    },
    {
      "inputs": [],
      "name": "stakeSlippageBP",
      "outputs": [
        {
          "internalType": "uint256",
          "name": "",
          "type": "uint256"
        }
      ],
      "stateMutability": "view",
      "type": "function"
    },
    {
      "inputs": [
        {
          "internalType": "bytes4",
          "name": "interfaceId",
          "type": "bytes4"
        }
      ],
      "name": "supportsInterface",
      "outputs": [
        {
          "internalType": "bool",
          "name": "",
          "type": "bool"
        }
      ],
      "stateMutability": "view",
      "type": "function"
    },
    {
      "inputs": [
        {
          "internalType": "address",
          "name": "newImplementation",
          "type": "address"
        }
      ],
      "name": "upgradeTo",
      "outputs": [],
      "stateMutability": "nonpayable",
      "type": "function"
    },
    {
      "inputs": [
        {
          "internalType": "address",
          "name": "newImplementation",
          "type": "address"
        },
        {
          "internalType": "bytes",
          "name": "data",
          "type": "bytes"
        }
      ],
      "name": "upgradeToAndCall",
      "outputs": [],
      "stateMutability": "payable",
      "type": "function"
    },
    {
      "inputs": [
        {
          "components": [
            {
              "components": [
                {
                  "internalType": "address",
                  "name": "tokenAddress",
                  "type": "address"
                },
                {
                  "internalType": "uint256",
                  "name": "amountIn",
                  "type": "uint256"
                }
              ],
              "internalType": "struct OdosZap.InputToken[]",
              "name": "inputs",
              "type": "tuple[]"
            },
            {
              "components": [
                {
                  "internalType": "address",
                  "name": "tokenAddress",
                  "type": "address"
                },
                {
                  "internalType": "address",
                  "name": "receiver",
                  "type": "address"
                }
              ],
              "internalType": "struct OdosZap.OutputToken[]",
              "name": "outputs",
              "type": "tuple[]"
            },
            {
              "internalType": "bytes",
              "name": "data",
              "type": "bytes"
            }
          ],
          "internalType": "struct OdosZap.SwapData",
          "name": "swapData",
          "type": "tuple"
        },
        {
          "components": [
            {
              "internalType": "address",
              "name": "gauge",
              "type": "address"
            },
            {
              "internalType": "uint256[]",
              "name": "amountsOut",
              "type": "uint256[]"
            }
          ],
          "internalType": "struct ConvexZap.CurveZapInParams",
          "name": "curveData",
          "type": "tuple"
        }
      ],
      "name": "zapIn",
      "outputs": [],
      "stateMutability": "nonpayable",
      "type": "function"
    },
    {
      "stateMutability": "payable",
      "type": "receive"
    }
  ],
  "numDeployments": 1,
  "solcInputHash": "4fdcbe62419eade9d98adc191e4157f8",
  "bytecode": "0x60a06040523060805234801561001457600080fd5b5060805161353061004c6000396000818161044c0152818161048c0152818161052b0152818161056b01526105fa01526135306000f3fe6080604052600436106101025760003560e01c80638129fc1c11610095578063a217fddf11610064578063a217fddf146102ae578063c93721ea146102c3578063d2849fac146102fe578063d547741f1461031e578063d8abc8f31461033e57600080fd5b80638129fc1c146102215780638321928d14610236578063884b2b8b1461026e57806391d148541461028e57600080fd5b80633659cfe6116100d15780633659cfe6146101c35780634f1ef286146101e357806352d1902d146101f65780635ca558f81461020b57600080fd5b806301ffc9a71461010e578063248a9ca3146101435780632f2ff15d1461018157806336568abe146101a357600080fd5b3661010957005b600080fd5b34801561011a57600080fd5b5061012e610129366004612afe565b61035e565b60405190151581526020015b60405180910390f35b34801561014f57600080fd5b5061017361015e366004612b28565b60009081526065602052604090206001015490565b60405190815260200161013a565b34801561018d57600080fd5b506101a161019c366004612b56565b610395565b005b3480156101af57600080fd5b506101a16101be366004612b56565b6103bf565b3480156101cf57600080fd5b506101a16101de366004612b86565b610442565b6101a16101f1366004612ca2565b610521565b34801561020257600080fd5b506101736105ed565b34801561021757600080fd5b5061017360fb5481565b34801561022d57600080fd5b506101a16106a0565b34801561024257600080fd5b5060fc54610256906001600160a01b031681565b6040516001600160a01b03909116815260200161013a565b34801561027a57600080fd5b506101a1610289366004612b28565b6107c9565b34801561029a57600080fd5b5061012e6102a9366004612b56565b610825565b3480156102ba57600080fd5b50610173600081565b3480156102cf57600080fd5b506102e36102de366004612b86565b610850565b6040805193845260208401929092529082015260600161013a565b34801561030a57600080fd5b506101a1610319366004612e64565b610bbc565b34801561032a57600080fd5b506101a1610339366004612b56565b610f7b565b34801561034a57600080fd5b506101a1610359366004612fb4565b610fa0565b60006001600160e01b03198216637965db0b60e01b148061038f57506301ffc9a760e01b6001600160e01b03198316145b92915050565b6000828152606560205260409020600101546103b081611040565b6103ba838361104a565b505050565b6001600160a01b03811633146104345760405162461bcd60e51b815260206004820152602f60248201527f416363657373436f6e74726f6c3a2063616e206f6e6c792072656e6f756e636560448201526e103937b632b9903337b91039b2b63360891b60648201526084015b60405180910390fd5b61043e82826110d0565b5050565b6001600160a01b037f000000000000000000000000000000000000000000000000000000000000000016300361048a5760405162461bcd60e51b815260040161042b90612fff565b7f00000000000000000000000000000000000000000000000000000000000000006001600160a01b03166104d36000805160206134b4833981519152546001600160a01b031690565b6001600160a01b0316146104f95760405162461bcd60e51b815260040161042b9061304b565b61050281611137565b6040805160008082526020820190925261051e9183919061115e565b50565b6001600160a01b037f00000000000000000000000000000000000000000000000000000000000000001630036105695760405162461bcd60e51b815260040161042b90612fff565b7f00000000000000000000000000000000000000000000000000000000000000006001600160a01b03166105b26000805160206134b4833981519152546001600160a01b031690565b6001600160a01b0316146105d85760405162461bcd60e51b815260040161042b9061304b565b6105e182611137565b61043e8282600161115e565b6000306001600160a01b037f0000000000000000000000000000000000000000000000000000000000000000161461068d5760405162461bcd60e51b815260206004820152603860248201527f555550535570677261646561626c653a206d757374206e6f742062652063616c60448201527f6c6564207468726f7567682064656c656761746563616c6c0000000000000000606482015260840161042b565b506000805160206134b483398151915290565b600054610100900460ff16158080156106c05750600054600160ff909116105b806106da5750303b1580156106da575060005460ff166001145b61073d5760405162461bcd60e51b815260206004820152602e60248201527f496e697469616c697a61626c653a20636f6e747261637420697320616c72656160448201526d191e481a5b9a5d1a585b1a5e995960921b606482015260840161042b565b6000805460ff191660011790558015610760576000805461ff0019166101001790555b6107686112c9565b6107706112c9565b61077b60003361104a565b600460fb55801561051e576000805461ff0019169055604051600181527f7f26b83ff96e1f2b6a682f133852f6798a09c465da95921460cefb3847402498906020015b60405180910390a150565b6107d4600033610825565b6107f05760405162461bcd60e51b815260040161042b90613097565b60fb8190556040518181527fa5210533b7e454491de5dd73e199953a4cdb61fdc4f1eea9ca2edcf0344e6666906020016107be565b60009182526065602090815260408084206001600160a01b0393909316845291905290205460ff1690565b6000806000808490506000816001600160a01b03166382c630666040518163ffffffff1660e01b8152600401602060405180830381865afa158015610899573d6000803e3d6000fd5b505050506040513d601f19601f820116820180604052508101906108bd91906130b7565b604051634903b0d160e01b81526000600482018190529192508291906001600160a01b03831690634903b0d190602401602060405180830381865afa15801561090a573d6000803e3d6000fd5b505050506040513d601f19601f8201168201806040525081019061092e91906130d4565b604051634903b0d160e01b8152600160048201529091506000906001600160a01b03841690634903b0d190602401602060405180830381865afa158015610979573d6000803e3d6000fd5b505050506040513d601f19601f8201168201806040525081019061099d91906130d4565b60405163c661065760e01b81526000600482018190529192506001600160a01b0385169063c661065790602401602060405180830381865afa1580156109e7573d6000803e3d6000fd5b505050506040513d601f19601f82011682018060405250810190610a0b91906130b7565b60405163c661065760e01b8152600160048201529091506000906001600160a01b0386169063c661065790602401602060405180830381865afa158015610a56573d6000803e3d6000fd5b505050506040513d601f19601f82011682018060405250810190610a7a91906130b7565b90506000826001600160a01b031663313ce5676040518163ffffffff1660e01b8152600401602060405180830381865afa158015610abc573d6000803e3d6000fd5b505050506040513d601f19601f82011682018060405250810190610ae091906130ed565b60ff1690506000826001600160a01b031663313ce5676040518163ffffffff1660e01b8152600401602060405180830381865afa158015610b25573d6000803e3d6000fd5b505050506040513d601f19601f82011682018060405250810190610b4991906130ed565b60ff169050808211610b5b5780610b5d565b815b610b6890600a61320a565b9950610b7582600a61320a565b610b7f908b613216565b610b899087613238565b9b50610b9681600a61320a565b610ba0908b613216565b610baa9086613238565b9a505050505050505050509193909250565b610bc582611336565b610bce826117ca565b50506000816000015190506000816001600160a01b03166382c630666040518163ffffffff1660e01b8152600401602060405180830381865afa158015610c19573d6000803e3d6000fd5b505050506040513d601f19601f82011682018060405250810190610c3d91906130b7565b60405163c661065760e01b81526000600482018190529192508291906001600160a01b0383169063c661065790602401602060405180830381865afa158015610c8a573d6000803e3d6000fd5b505050506040513d601f19601f82011682018060405250810190610cae91906130b7565b60405163c661065760e01b8152600160048201529091506000906001600160a01b0384169063c661065790602401602060405180830381865afa158015610cf9573d6000803e3d6000fd5b505050506040513d601f19601f82011682018060405250810190610d1d91906130b7565b60408051600280825260608201835292935060009290916020830190803683370190505090508281600081518110610d5757610d5761324f565b60200260200101906001600160a01b031690816001600160a01b0316815250508181600181518110610d8b57610d8b61324f565b6001600160a01b0392909216602092830291909101820152604080516002808252606082018352600093919290918301908036833701905050905060005b8251811015610f5a576000838281518110610de657610de661324f565b6020026020010151905060008a602001518381518110610e0857610e0861324f565b60200260200101511115610ec257806001600160a01b03166323b872dd33308d602001518681518110610e3d57610e3d61324f565b60209081029190910101516040516001600160e01b031960e086901b1681526001600160a01b03938416600482015292909116602483015260448201526064016020604051808303816000875af1158015610e9c573d6000803e3d6000fd5b505050506040513d601f19601f82011682018060405250810190610ec09190613265565b505b6040516370a0823160e01b81523060048201526001600160a01b038216906370a0823190602401602060405180830381865afa158015610f06573d6000803e3d6000fd5b505050506040513d601f19601f82011682018060405250810190610f2a91906130d4565b838381518110610f3c57610f3c61324f565b60209081029190910101525080610f5281613287565b915050610dc9565b50610f66858383611c17565b610f708588612489565b505050505050505050565b600082815260656020526040902060010154610f9681611040565b6103ba83836110d0565b610fab600033610825565b610fc75760405162461bcd60e51b815260040161042b90613097565b80516001600160a01b031661101e5760405162461bcd60e51b815260206004820152601860248201527f5a65726f2061646472657373206e6f7420616c6c6f7765640000000000000000604482015260640161042b565b5160fc80546001600160a01b0319166001600160a01b03909216919091179055565b61051e81336125d1565b6110548282610825565b61043e5760008281526065602090815260408083206001600160a01b03851684529091529020805460ff1916600117905561108c3390565b6001600160a01b0316816001600160a01b0316837f2f8788117e7eff1d82e926ec794901d17c78024a50270940304540a733656f0d60405160405180910390a45050565b6110da8282610825565b1561043e5760008281526065602090815260408083206001600160a01b0385168085529252808320805460ff1916905551339285917ff6391f5c32d9c69d2a47ea670b442974b53935d1edc7fd64eb21e047a839171b9190a45050565b611142600033610825565b61051e5760405162461bcd60e51b815260040161042b90613097565b7f4910fdfa16fed3260ed0e7147f7cc6da11a60208b5b9406d12a635614ffd91435460ff1615611191576103ba8361262a565b826001600160a01b03166352d1902d6040518163ffffffff1660e01b8152600401602060405180830381865afa9250505080156111eb575060408051601f3d908101601f191682019092526111e8918101906130d4565b60015b61124e5760405162461bcd60e51b815260206004820152602e60248201527f45524331393637557067726164653a206e657720696d706c656d656e7461746960448201526d6f6e206973206e6f74205555505360901b606482015260840161042b565b6000805160206134b483398151915281146112bd5760405162461bcd60e51b815260206004820152602960248201527f45524331393637557067726164653a20756e737570706f727465642070726f786044820152681a58589b195555525160ba1b606482015260840161042b565b506103ba8383836126c6565b600054610100900460ff166113345760405162461bcd60e51b815260206004820152602b60248201527f496e697469616c697a61626c653a20636f6e7472616374206973206e6f74206960448201526a6e697469616c697a696e6760a81b606482015260840161042b565b565b60005b8160200151518110156114a95760005b8181101561149657826020015181815181106113675761136761324f565b6020026020010151600001516001600160a01b0316836020015183815181106113925761139261324f565b6020026020010151600001516001600160a01b0316036113f45760405162461bcd60e51b815260206004820152601760248201527f4475706c6963617465206f757470757420746f6b656e73000000000000000000604482015260640161042b565b306001600160a01b0316836020015183815181106114145761141461324f565b6020026020010151602001516001600160a01b0316146114845760405162461bcd60e51b815260206004820152602560248201527f5265636569766572206f662073776170206973206e6f74207468697320636f6e6044820152641d1c9858dd60da1b606482015260840161042b565b8061148e81613287565b915050611349565b50806114a181613287565b915050611339565b5060005b81515181101561043e5760005b8181101561156e5782518051829081106114d6576114d661324f565b6020026020010151600001516001600160a01b0316836000015183815181106115015761150161324f565b6020026020010151600001516001600160a01b03160361155c5760405162461bcd60e51b81526020600482015260166024820152754475706c696361746520696e70757420746f6b656e7360501b604482015260640161042b565b8061156681613287565b9150506114ba565b5060005b82602001515181101561163457826020015181815181106115955761159561324f565b6020026020010151600001516001600160a01b0316836000015183815181106115c0576115c061324f565b6020026020010151600001516001600160a01b0316036116225760405162461bcd60e51b815260206004820152601a60248201527f4475706c696361746520696e70757420616e64206f7574707574000000000000604482015260640161042b565b8061162c81613287565b915050611572565b5060008260000151828151811061164d5761164d61324f565b6020026020010151600001519050806001600160a01b03166323b872dd3330866000015186815181106116825761168261324f565b60209081029190910181015101516040516001600160e01b031960e086901b1681526001600160a01b03938416600482015292909116602483015260448201526064016020604051808303816000875af11580156116e4573d6000803e3d6000fd5b505050506040513d601f19601f820116820180604052508101906117089190613265565b5060fc54835180516001600160a01b038085169363095ea7b393911691869081106117355761173561324f565b6020026020010151602001516040518363ffffffff1660e01b81526004016117729291906001600160a01b03929092168252602082015260400190565b6020604051808303816000875af1158015611791573d6000803e3d6000fd5b505050506040513d601f19601f820116820180604052508101906117b59190613265565b505080806117c290613287565b9150506114ad565b60fc54604080830151905160609283926000926001600160a01b039092169183916117f4916132c4565b60006040518083038185875af1925050503d8060008114611831576040519150601f19603f3d011682016040523d82523d6000602084013e611836565b606091505b505090508061187d5760405162461bcd60e51b81526020600482015260136024820152721c9bdd5d195c881cddd85c081a5b9d985b1a59606a1b604482015260640161042b565b8351516000906001600160401b0381111561189a5761189a612ba3565b6040519080825280602002602001820160405280156118c3578160200160208202803683370190505b50905060008560000151516001600160401b038111156118e5576118e5612ba3565b60405190808252806020026020018201604052801561190e578160200160208202803683370190505b50905060005b8651518110156119b75786518051829081106119325761193261324f565b6020026020010151600001518382815181106119505761195061324f565b6001600160a01b0390921660209283029190910190910152865180518290811061197c5761197c61324f565b60200260200101516020015182828151811061199a5761199a61324f565b6020908102919091010152806119af81613287565b915050611914565b507fb5ad02132d64b1e89c5196397a95b3e268e3f5c555b5845f2ddcdf24684d2aad81836040516119e99291906132e0565b60405180910390a160008660200151516001600160401b03811115611a1057611a10612ba3565b604051908082528060200260200182016040528015611a39578160200160208202803683370190505b50905060008760200151516001600160401b03811115611a5b57611a5b612ba3565b604051908082528060200260200182016040528015611a84578160200160208202803683370190505b50905060005b886020015151811015611bd05788602001518181518110611aad57611aad61324f565b602002602001015160000151838281518110611acb57611acb61324f565b60200260200101906001600160a01b031690816001600160a01b031681525050828181518110611afd57611afd61324f565b60200260200101516001600160a01b03166370a082318a602001518381518110611b2957611b2961324f565b6020026020010151602001516040518263ffffffff1660e01b8152600401611b6091906001600160a01b0391909116815260200190565b602060405180830381865afa158015611b7d573d6000803e3d6000fd5b505050506040513d601f19601f82011682018060405250810190611ba191906130d4565b828281518110611bb357611bb361324f565b602090810291909101015280611bc881613287565b915050611a8a565b507f0c9e5a590aa4a07e734c28846ee575ea53d4ddf0fc046c45c367faaa2e0342388183604051611c029291906132e0565b60405180910390a19097909650945050505050565b604051634903b0d160e01b8152600060048201819052906001600160a01b03851690634903b0d190602401602060405180830381865afa158015611c5f573d6000803e3d6000fd5b505050506040513d601f19601f82011682018060405250810190611c8391906130d4565b604051634903b0d160e01b8152600160048201529091506000906001600160a01b03861690634903b0d190602401602060405180830381865afa158015611cce573d6000803e3d6000fd5b505050506040513d601f19601f82011682018060405250810190611cf291906130d4565b9050600080611e4585600081518110611d0d57611d0d61324f565b602002602001015186600181518110611d2857611d2861324f565b602002602001015186868a600081518110611d4557611d4561324f565b60200260200101516001600160a01b031663313ce5676040518163ffffffff1660e01b8152600401602060405180830381865afa158015611d8a573d6000803e3d6000fd5b505050506040513d601f19601f82011682018060405250810190611dae91906130ed565b611db990600a613364565b8b600181518110611dcc57611dcc61324f565b60200260200101516001600160a01b031663313ce5676040518163ffffffff1660e01b8152600401602060405180830381865afa158015611e11573d6000803e3d6000fd5b505050506040513d601f19601f82011682018060405250810190611e3591906130ed565b611e4090600a613364565b6126f1565b91509150600086600081518110611e5e57611e5e61324f565b60200260200101519050600087600181518110611e7d57611e7d61324f565b602090810291909101015160405163095ea7b360e01b81526001600160a01b038b81166004830152602482018790529192509083169063095ea7b3906044016020604051808303816000875af1158015611edb573d6000803e3d6000fd5b505050506040513d601f19601f82011682018060405250810190611eff9190613265565b5060405163095ea7b360e01b81526001600160a01b038a811660048301526024820185905282169063095ea7b3906044016020604051808303816000875af1158015611f4f573d6000803e3d6000fd5b505050506040513d601f19601f82011682018060405250810190611f739190613265565b506040516370a0823160e01b81523060048201526000906001600160a01b038416906370a0823190602401602060405180830381865afa158015611fbb573d6000803e3d6000fd5b505050506040513d601f19601f82011682018060405250810190611fdf91906130d4565b6040516370a0823160e01b81523060048201529091506000906001600160a01b038416906370a0823190602401602060405180830381865afa158015612029573d6000803e3d6000fd5b505050506040513d601f19601f8201168201806040525081019061204d91906130d4565b90508a6001600160a01b0316630b4c7e4d6040518060400160405280898152602001888152506121028e6001600160a01b031663ed8e84f360405180604001604052808d81526020018c81525060016040518363ffffffff1660e01b81526004016120b9929190613396565b602060405180830381865afa1580156120d6573d6000803e3d6000fd5b505050506040513d601f19601f820116820180604052508101906120fa91906130d4565b60fb546127b5565b6040518363ffffffff1660e01b815260040161211f9291906133b3565b6020604051808303816000875af115801561213e573d6000803e3d6000fd5b505050506040513d601f19601f8201168201806040525081019061216291906130d4565b506040516370a0823160e01b81523060048201526000906001600160a01b038616906370a0823190602401602060405180830381865afa1580156121aa573d6000803e3d6000fd5b505050506040513d601f19601f820116820180604052508101906121ce91906130d4565b6040516370a0823160e01b81523060048201529091506000906001600160a01b038616906370a0823190602401602060405180830381865afa158015612218573d6000803e3d6000fd5b505050506040513d601f19601f8201168201806040525081019061223c91906130d4565b905081156122b75760405163a9059cbb60e01b8152336004820152602481018390526001600160a01b0387169063a9059cbb906044016020604051808303816000875af1158015612291573d6000803e3d6000fd5b505050506040513d601f19601f820116820180604052508101906122b59190613265565b505b80156123305760405163a9059cbb60e01b8152336004820152602481018290526001600160a01b0386169063a9059cbb906044016020604051808303816000875af115801561230a573d6000803e3d6000fd5b505050506040513d601f19601f8201168201806040525081019061232e9190613265565b505b60408051600280825260608201835260009260208301908036833701905050905061235b83866133ce565b8160008151811061236e5761236e61324f565b602090810291909101015261238382856133ce565b816001815181106123965761239661324f565b60209081029190910101526040805160028082526060820190925260009181602001602082028036833701905050905083816000815181106123da576123da61324f565b60200260200101818152505082816001815181106123fa576123fa61324f565b6020026020010181815250507ff471c761d3d5d25c66f3d23a33cf7f9aaea894aa0fbcbb3bb158b1bea3c2ed45828f6040516124379291906132e0565b60405180910390a17fb4df4b62c251866b0421eb65c2beafa02a7d9e8a267e952174b984257924e175818f6040516124709291906132e0565b60405180910390a1505050505050505050505050505050565b6040516370a0823160e01b81523060048201526000906001600160a01b038416906370a0823190602401602060405180830381865afa1580156124d0573d6000803e3d6000fd5b505050506040513d601f19601f820116820180604052508101906124f491906130d4565b60405163095ea7b360e01b81526001600160a01b038481166004830152602482018390529192509084169063095ea7b3906044016020604051808303816000875af1158015612547573d6000803e3d6000fd5b505050506040513d601f19601f8201168201806040525081019061256b9190613265565b50604051636e553f6560e01b8152600481018290523360248201526001600160a01b03831690636e553f6590604401600060405180830381600087803b1580156125b457600080fd5b505af11580156125c8573d6000803e3d6000fd5b50505050505050565b6125db8282610825565b61043e576125e8816127df565b6125f38360206127f1565b6040516020016126049291906133e1565b60408051601f198184030181529082905262461bcd60e51b825261042b91600401613456565b6001600160a01b0381163b6126975760405162461bcd60e51b815260206004820152602d60248201527f455243313936373a206e657720696d706c656d656e746174696f6e206973206e60448201526c1bdd08184818dbdb9d1c9858dd609a1b606482015260840161042b565b6000805160206134b483398151915280546001600160a01b0319166001600160a01b0392909216919091179055565b6126cf8361298c565b6000825111806126dc5750805b156103ba576126eb83836129cc565b50505050565b60008082612700866064613238565b61270a9190613216565b84612716886064613238565b6127209190613216565b111561276a57856127318987613238565b61273b9190613216565b905086811161274a578061274c565b865b9050846127598783613238565b6127639190613216565b91506127aa565b846127758888613238565b61277f9190613216565b915087821161278e5781612790565b875b91508561279d8684613238565b6127a79190613216565b90505b965096945050505050565b60006127106127c483826133ce565b6127ce9085613238565b6127d89190613216565b9392505050565b606061038f6001600160a01b03831660145b60606000612800836002613238565b61280b906002613489565b6001600160401b0381111561282257612822612ba3565b6040519080825280601f01601f19166020018201604052801561284c576020820181803683370190505b509050600360fc1b816000815181106128675761286761324f565b60200101906001600160f81b031916908160001a905350600f60fb1b816001815181106128965761289661324f565b60200101906001600160f81b031916908160001a90535060006128ba846002613238565b6128c5906001613489565b90505b600181111561293d576f181899199a1a9b1b9c1cb0b131b232b360811b85600f16601081106128f9576128f961324f565b1a60f81b82828151811061290f5761290f61324f565b60200101906001600160f81b031916908160001a90535060049490941c936129368161349c565b90506128c8565b5083156127d85760405162461bcd60e51b815260206004820181905260248201527f537472696e67733a20686578206c656e67746820696e73756666696369656e74604482015260640161042b565b6129958161262a565b6040516001600160a01b038216907fbc7cd75a20ee27fd9adebab32041f755214dbc6bffa90cc0225b39da2e5c2d3b90600090a250565b60606001600160a01b0383163b612a345760405162461bcd60e51b815260206004820152602660248201527f416464726573733a2064656c65676174652063616c6c20746f206e6f6e2d636f6044820152651b9d1c9858dd60d21b606482015260840161042b565b600080846001600160a01b031684604051612a4f91906132c4565b600060405180830381855af49150503d8060008114612a8a576040519150601f19603f3d011682016040523d82523d6000602084013e612a8f565b606091505b5091509150612ab782826040518060600160405280602781526020016134d460279139612ac0565b95945050505050565b60608315612acf5750816127d8565b6127d88383815115612ae45781518083602001fd5b8060405162461bcd60e51b815260040161042b9190613456565b600060208284031215612b1057600080fd5b81356001600160e01b0319811681146127d857600080fd5b600060208284031215612b3a57600080fd5b5035919050565b6001600160a01b038116811461051e57600080fd5b60008060408385031215612b6957600080fd5b823591506020830135612b7b81612b41565b809150509250929050565b600060208284031215612b9857600080fd5b81356127d881612b41565b634e487b7160e01b600052604160045260246000fd5b604080519081016001600160401b0381118282101715612bdb57612bdb612ba3565b60405290565b604051606081016001600160401b0381118282101715612bdb57612bdb612ba3565b604051601f8201601f191681016001600160401b0381118282101715612c2b57612c2b612ba3565b604052919050565b600082601f830112612c4457600080fd5b81356001600160401b03811115612c5d57612c5d612ba3565b612c70601f8201601f1916602001612c03565b818152846020838601011115612c8557600080fd5b816020850160208301376000918101602001919091529392505050565b60008060408385031215612cb557600080fd5b8235612cc081612b41565b915060208301356001600160401b03811115612cdb57600080fd5b612ce785828601612c33565b9150509250929050565b60006001600160401b03821115612d0a57612d0a612ba3565b5060051b60200190565b600082601f830112612d2557600080fd5b81356020612d3a612d3583612cf1565b612c03565b82815260069290921b84018101918181019086841115612d5957600080fd5b8286015b84811015612daa5760408189031215612d765760008081fd5b612d7e612bb9565b8135612d8981612b41565b815281850135612d9881612b41565b81860152835291830191604001612d5d565b509695505050505050565b600060408284031215612dc757600080fd5b612dcf612bb9565b90508135612ddc81612b41565b81526020828101356001600160401b03811115612df857600080fd5b8301601f81018513612e0957600080fd5b8035612e17612d3582612cf1565b81815260059190911b82018301908381019087831115612e3657600080fd5b928401925b82841015612e5457833582529284019290840190612e3b565b8085870152505050505092915050565b6000806040808486031215612e7857600080fd5b83356001600160401b0380821115612e8f57600080fd5b9085019060608288031215612ea357600080fd5b612eab612be1565b823582811115612eba57600080fd5b8301601f81018913612ecb57600080fd5b80356020612edb612d3583612cf1565b82815260069290921b8301810191818101908c841115612efa57600080fd5b938201935b83851015612f435788858e031215612f175760008081fd5b612f1f612bb9565b8535612f2a81612b41565b8152858401358482015282529388019390820190612eff565b85525085810135925084831115612f5957600080fd5b612f658b848801612d14565b8185015286860135925084831115612f7c57600080fd5b612f888b848801612c33565b87850152839850808a013596505050505080831115612fa657600080fd5b5050612ce785828601612db5565b600060208284031215612fc657600080fd5b604051602081018181106001600160401b0382111715612fe857612fe8612ba3565b6040528235612ff681612b41565b81529392505050565b6020808252602c908201527f46756e6374696f6e206d7573742062652063616c6c6564207468726f7567682060408201526b19195b1959d85d1958d85b1b60a21b606082015260800190565b6020808252602c908201527f46756e6374696f6e206d7573742062652063616c6c6564207468726f7567682060408201526b6163746976652070726f787960a01b606082015260800190565b60208082526006908201526510a0b236b4b760d11b604082015260600190565b6000602082840312156130c957600080fd5b81516127d881612b41565b6000602082840312156130e657600080fd5b5051919050565b6000602082840312156130ff57600080fd5b815160ff811681146127d857600080fd5b634e487b7160e01b600052601160045260246000fd5b600181815b8085111561316157816000190482111561314757613147613110565b8085161561315457918102915b93841c939080029061312b565b509250929050565b6000826131785750600161038f565b816131855750600061038f565b816001811461319b57600281146131a5576131c1565b600191505061038f565b60ff8411156131b6576131b6613110565b50506001821b61038f565b5060208310610133831016604e8410600b84101617156131e4575081810a61038f565b6131ee8383613126565b806000190482111561320257613202613110565b029392505050565b60006127d88383613169565b60008261323357634e487b7160e01b600052601260045260246000fd5b500490565b808202811582820484141761038f5761038f613110565b634e487b7160e01b600052603260045260246000fd5b60006020828403121561327757600080fd5b815180151581146127d857600080fd5b60006001820161329957613299613110565b5060010190565b60005b838110156132bb5781810151838201526020016132a3565b50506000910152565b600082516132d68184602087016132a0565b9190910192915050565b604080825283519082018190526000906020906060840190828701845b82811015613319578151845292840192908401906001016132fd565b5050508381038285015284518082528583019183019060005b818110156133575783516001600160a01b031683529284019291840191600101613332565b5090979650505050505050565b60006127d860ff841683613169565b8060005b60028110156126eb578151845260209384019390910190600101613377565b606081016133a48285613373565b82151560408301529392505050565b606081016133c18285613373565b8260408301529392505050565b8181038181111561038f5761038f613110565b7f416363657373436f6e74726f6c3a206163636f756e74200000000000000000008152600083516134198160178501602088016132a0565b7001034b99036b4b9b9b4b733903937b6329607d1b601791840191820152835161344a8160288401602088016132a0565b01602801949350505050565b60208152600082518060208401526134758160408501602087016132a0565b601f01601f19169190910160400192915050565b8082018082111561038f5761038f613110565b6000816134ab576134ab613110565b50600019019056fe360894a13ba1a3210667c828492db98dca3e2076cc3735a920a3ca505d382bbc416464726573733a206c6f772d6c6576656c2064656c65676174652063616c6c206661696c6564a26469706673582212209ab57baa8b01d54898a53b5f04e25608f71306e77de84c3b0eea2d77880b4e6f64736f6c63430008110033",
  "implementation": "0xF62D62848a906d825cd9326f92E4EbA9027B2E3F",
  "devdoc": {
    "kind": "dev",
    "methods": {
      "getRoleAdmin(bytes32)": {
        "details": "Returns the admin role that controls `role`. See {grantRole} and {revokeRole}. To change a role's admin, use {_setRoleAdmin}."
      },
      "grantRole(bytes32,address)": {
        "details": "Grants `role` to `account`. If `account` had not been already granted `role`, emits a {RoleGranted} event. Requirements: - the caller must have ``role``'s admin role. May emit a {RoleGranted} event."
      },
      "hasRole(bytes32,address)": {
        "details": "Returns `true` if `account` has been granted `role`."
      },
      "proxiableUUID()": {
        "details": "Implementation of the ERC1822 {proxiableUUID} function. This returns the storage slot used by the implementation. It is used to validate the implementation's compatibility when performing an upgrade. IMPORTANT: A proxy pointing at a proxiable contract should not be considered proxiable itself, because this risks bricking a proxy that upgrades to it, by delegating to itself until out of gas. Thus it is critical that this function revert if invoked through a proxy. This is guaranteed by the `notDelegated` modifier."
      },
      "renounceRole(bytes32,address)": {
        "details": "Revokes `role` from the calling account. Roles are often managed via {grantRole} and {revokeRole}: this function's purpose is to provide a mechanism for accounts to lose their privileges if they are compromised (such as when a trusted device is misplaced). If the calling account had been revoked `role`, emits a {RoleRevoked} event. Requirements: - the caller must be `account`. May emit a {RoleRevoked} event."
      },
      "revokeRole(bytes32,address)": {
        "details": "Revokes `role` from `account`. If `account` had been granted `role`, emits a {RoleRevoked} event. Requirements: - the caller must have ``role``'s admin role. May emit a {RoleRevoked} event."
      },
      "supportsInterface(bytes4)": {
        "details": "See {IERC165-supportsInterface}."
      },
      "upgradeTo(address)": {
        "details": "Upgrade the implementation of the proxy to `newImplementation`. Calls {_authorizeUpgrade}. Emits an {Upgraded} event."
      },
      "upgradeToAndCall(address,bytes)": {
        "details": "Upgrade the implementation of the proxy to `newImplementation`, and subsequently execute the function call encoded in `data`. Calls {_authorizeUpgrade}. Emits an {Upgraded} event."
      }
    },
    "version": 1
  },
  "userdoc": {
    "kind": "user",
    "methods": {},
    "version": 1
  },
  "storageLayout": {
    "storage": [
      {
        "astId": 804,
        "contract": "contracts/zap/ConvexZap.sol:ConvexZap",
        "label": "_initialized",
        "offset": 0,
        "slot": "0",
        "type": "t_uint8"
      },
      {
        "astId": 807,
        "contract": "contracts/zap/ConvexZap.sol:ConvexZap",
        "label": "_initializing",
        "offset": 1,
        "slot": "0",
        "type": "t_bool"
      },
      {
        "astId": 1427,
        "contract": "contracts/zap/ConvexZap.sol:ConvexZap",
        "label": "__gap",
        "offset": 0,
        "slot": "1",
        "type": "t_array(t_uint256)50_storage"
      },
      {
        "astId": 1706,
        "contract": "contracts/zap/ConvexZap.sol:ConvexZap",
        "label": "__gap",
        "offset": 0,
        "slot": "51",
        "type": "t_array(t_uint256)50_storage"
      },
      {
        "astId": 39,
        "contract": "contracts/zap/ConvexZap.sol:ConvexZap",
        "label": "_roles",
        "offset": 0,
        "slot": "101",
        "type": "t_mapping(t_bytes32,t_struct(RoleData)34_storage)"
      },
      {
        "astId": 334,
        "contract": "contracts/zap/ConvexZap.sol:ConvexZap",
        "label": "__gap",
        "offset": 0,
        "slot": "102",
        "type": "t_array(t_uint256)49_storage"
      },
      {
        "astId": 786,
        "contract": "contracts/zap/ConvexZap.sol:ConvexZap",
        "label": "__gap",
        "offset": 0,
        "slot": "151",
        "type": "t_array(t_uint256)50_storage"
      },
      {
        "astId": 1101,
        "contract": "contracts/zap/ConvexZap.sol:ConvexZap",
        "label": "__gap",
        "offset": 0,
        "slot": "201",
        "type": "t_array(t_uint256)50_storage"
      },
      {
        "astId": 4852,
        "contract": "contracts/zap/ConvexZap.sol:ConvexZap",
        "label": "stakeSlippageBP",
        "offset": 0,
        "slot": "251",
        "type": "t_uint256"
      },
      {
        "astId": 4854,
        "contract": "contracts/zap/ConvexZap.sol:ConvexZap",
        "label": "odosRouter",
        "offset": 0,
        "slot": "252",
        "type": "t_address"
      }
    ],
    "types": {
      "t_address": {
        "encoding": "inplace",
        "label": "address",
        "numberOfBytes": "20"
      },
      "t_array(t_uint256)49_storage": {
        "base": "t_uint256",
        "encoding": "inplace",
        "label": "uint256[49]",
        "numberOfBytes": "1568"
      },
      "t_array(t_uint256)50_storage": {
        "base": "t_uint256",
        "encoding": "inplace",
        "label": "uint256[50]",
        "numberOfBytes": "1600"
      },
      "t_bool": {
        "encoding": "inplace",
        "label": "bool",
        "numberOfBytes": "1"
      },
      "t_bytes32": {
        "encoding": "inplace",
        "label": "bytes32",
        "numberOfBytes": "32"
      },
      "t_mapping(t_address,t_bool)": {
        "encoding": "mapping",
        "key": "t_address",
        "label": "mapping(address => bool)",
        "numberOfBytes": "32",
        "value": "t_bool"
      },
      "t_mapping(t_bytes32,t_struct(RoleData)34_storage)": {
        "encoding": "mapping",
        "key": "t_bytes32",
        "label": "mapping(bytes32 => struct AccessControlUpgradeable.RoleData)",
        "numberOfBytes": "32",
        "value": "t_struct(RoleData)34_storage"
      },
      "t_struct(RoleData)34_storage": {
        "encoding": "inplace",
        "label": "struct AccessControlUpgradeable.RoleData",
        "members": [
          {
            "astId": 31,
            "contract": "contracts/zap/ConvexZap.sol:ConvexZap",
            "label": "members",
            "offset": 0,
            "slot": "0",
            "type": "t_mapping(t_address,t_bool)"
          },
          {
            "astId": 33,
            "contract": "contracts/zap/ConvexZap.sol:ConvexZap",
            "label": "adminRole",
            "offset": 0,
            "slot": "1",
            "type": "t_bytes32"
          }
        ],
        "numberOfBytes": "64"
      },
      "t_uint256": {
        "encoding": "inplace",
        "label": "uint256",
        "numberOfBytes": "32"
      },
      "t_uint8": {
        "encoding": "inplace",
        "label": "uint8",
        "numberOfBytes": "1"
      }
    }
  }
}