{
  "address": "0x149Eb6E777aDa78D383bD93c57D45a9A71b171B1",
  "abi": [
    {
      "inputs": [],
      "stateMutability": "nonpayable",
      "type": "constructor"
    },
    {
      "anonymous": false,
      "inputs": [
        {
          "indexed": false,
          "internalType": "address",
          "name": "previousAdmin",
          "type": "address"
        },
        {
          "indexed": false,
          "internalType": "address",
          "name": "newAdmin",
          "type": "address"
        }
      ],
      "name": "AdminChanged",
      "type": "event"
    },
    {
      "anonymous": false,
      "inputs": [
        {
          "indexed": true,
          "internalType": "address",
          "name": "beacon",
          "type": "address"
        }
      ],
      "name": "BeaconUpgraded",
      "type": "event"
    },
    {
      "anonymous": false,
      "inputs": [
        {
          "indexed": false,
          "internalType": "uint8",
          "name": "version",
          "type": "uint8"
        }
      ],
      "name": "Initialized",
      "type": "event"
    },
    {
      "anonymous": false,
      "inputs": [
        {
          "indexed": false,
          "internalType": "address",
          "name": "exchange",
          "type": "address"
        }
      ],
      "name": "MarketUpdatedParams",
      "type": "event"
    },
    {
      "anonymous": false,
      "inputs": [
        {
          "indexed": false,
          "internalType": "address",
          "name": "usdcToken",
          "type": "address"
        },
        {
          "indexed": false,
          "internalType": "address",
          "name": "usdPlusToken",
          "type": "address"
        },
        {
          "indexed": false,
          "internalType": "address",
          "name": "wrappedUsdPlusToken",
          "type": "address"
        }
      ],
      "name": "MarketUpdatedTokens",
      "type": "event"
    },
    {
      "anonymous": false,
      "inputs": [
        {
          "indexed": true,
          "internalType": "bytes32",
          "name": "role",
          "type": "bytes32"
        },
        {
          "indexed": true,
          "internalType": "bytes32",
          "name": "previousAdminRole",
          "type": "bytes32"
        },
        {
          "indexed": true,
          "internalType": "bytes32",
          "name": "newAdminRole",
          "type": "bytes32"
        }
      ],
      "name": "RoleAdminChanged",
      "type": "event"
    },
    {
      "anonymous": false,
      "inputs": [
        {
          "indexed": true,
          "internalType": "bytes32",
          "name": "role",
          "type": "bytes32"
        },
        {
          "indexed": true,
          "internalType": "address",
          "name": "account",
          "type": "address"
        },
        {
          "indexed": true,
          "internalType": "address",
          "name": "sender",
          "type": "address"
        }
      ],
      "name": "RoleGranted",
      "type": "event"
    },
    {
      "anonymous": false,
      "inputs": [
        {
          "indexed": true,
          "internalType": "bytes32",
          "name": "role",
          "type": "bytes32"
        },
        {
          "indexed": true,
          "internalType": "address",
          "name": "account",
          "type": "address"
        },
        {
          "indexed": true,
          "internalType": "address",
          "name": "sender",
          "type": "address"
        }
      ],
      "name": "RoleRevoked",
      "type": "event"
    },
    {
      "anonymous": false,
      "inputs": [
        {
          "indexed": false,
          "internalType": "address",
          "name": "asset",
          "type": "address"
        },
        {
          "indexed": false,
          "internalType": "uint256",
          "name": "amount",
          "type": "uint256"
        },
        {
          "indexed": false,
          "internalType": "address",
          "name": "receiver",
          "type": "address"
        },
        {
          "indexed": false,
          "internalType": "uint256",
          "name": "unwrappedUsdPlusAmount",
          "type": "uint256"
        }
      ],
      "name": "Unwrap",
      "type": "event"
    },
    {
      "anonymous": false,
      "inputs": [
        {
          "indexed": true,
          "internalType": "address",
          "name": "implementation",
          "type": "address"
        }
      ],
      "name": "Upgraded",
      "type": "event"
    },
    {
      "anonymous": false,
      "inputs": [
        {
          "indexed": false,
          "internalType": "address",
          "name": "asset",
          "type": "address"
        },
        {
          "indexed": false,
          "internalType": "uint256",
          "name": "amount",
          "type": "uint256"
        },
        {
          "indexed": false,
          "internalType": "address",
          "name": "receiver",
          "type": "address"
        },
        {
          "indexed": false,
          "internalType": "uint256",
          "name": "wrappedUsdPlusAmount",
          "type": "uint256"
        }
      ],
      "name": "Wrap",
      "type": "event"
    },
    {
      "inputs": [],
      "name": "DEFAULT_ADMIN_ROLE",
      "outputs": [
        {
          "internalType": "bytes32",
          "name": "",
          "type": "bytes32"
        }
      ],
      "stateMutability": "view",
      "type": "function"
    },
    {
      "inputs": [],
      "name": "exchange",
      "outputs": [
        {
          "internalType": "contract IExchange",
          "name": "",
          "type": "address"
        }
      ],
      "stateMutability": "view",
      "type": "function"
    },
    {
      "inputs": [
        {
          "internalType": "bytes32",
          "name": "role",
          "type": "bytes32"
        }
      ],
      "name": "getRoleAdmin",
      "outputs": [
        {
          "internalType": "bytes32",
          "name": "",
          "type": "bytes32"
        }
      ],
      "stateMutability": "view",
      "type": "function"
    },
    {
      "inputs": [
        {
          "internalType": "bytes32",
          "name": "role",
          "type": "bytes32"
        },
        {
          "internalType": "address",
          "name": "account",
          "type": "address"
        }
      ],
      "name": "grantRole",
      "outputs": [],
      "stateMutability": "nonpayable",
      "type": "function"
    },
    {
      "inputs": [
        {
          "internalType": "bytes32",
          "name": "role",
          "type": "bytes32"
        },
        {
          "internalType": "address",
          "name": "account",
          "type": "address"
        }
      ],
      "name": "hasRole",
      "outputs": [
        {
          "internalType": "bool",
          "name": "",
          "type": "bool"
        }
      ],
      "stateMutability": "view",
      "type": "function"
    },
    {
      "inputs": [],
      "name": "initialize",
      "outputs": [],
      "stateMutability": "nonpayable",
      "type": "function"
    },
    {
      "inputs": [
        {
          "internalType": "address",
          "name": "asset",
          "type": "address"
        },
        {
          "internalType": "uint256",
          "name": "amount",
          "type": "uint256"
        }
      ],
      "name": "previewUnwrap",
      "outputs": [
        {
          "internalType": "uint256",
          "name": "",
          "type": "uint256"
        }
      ],
      "stateMutability": "view",
      "type": "function"
    },
    {
      "inputs": [
        {
          "internalType": "address",
          "name": "asset",
          "type": "address"
        },
        {
          "internalType": "uint256",
          "name": "amount",
          "type": "uint256"
        }
      ],
      "name": "previewWrap",
      "outputs": [
        {
          "internalType": "uint256",
          "name": "",
          "type": "uint256"
        }
      ],
      "stateMutability": "view",
      "type": "function"
    },
    {
      "inputs": [],
      "name": "proxiableUUID",
      "outputs": [
        {
          "internalType": "bytes32",
          "name": "",
          "type": "bytes32"
        }
      ],
      "stateMutability": "view",
      "type": "function"
    },
    {
      "inputs": [
        {
          "internalType": "bytes32",
          "name": "role",
          "type": "bytes32"
        },
        {
          "internalType": "address",
          "name": "account",
          "type": "address"
        }
      ],
      "name": "renounceRole",
      "outputs": [],
      "stateMutability": "nonpayable",
      "type": "function"
    },
    {
      "inputs": [
        {
          "internalType": "bytes32",
          "name": "role",
          "type": "bytes32"
        },
        {
          "internalType": "address",
          "name": "account",
          "type": "address"
        }
      ],
      "name": "revokeRole",
      "outputs": [],
      "stateMutability": "nonpayable",
      "type": "function"
    },
    {
      "inputs": [
        {
          "internalType": "address",
          "name": "_exchange",
          "type": "address"
        }
      ],
      "name": "setParams",
      "outputs": [],
      "stateMutability": "nonpayable",
      "type": "function"
    },
    {
      "inputs": [
        {
          "internalType": "address",
          "name": "_usdcToken",
          "type": "address"
        },
        {
          "internalType": "address",
          "name": "_usdPlusToken",
          "type": "address"
        },
        {
          "internalType": "address",
          "name": "_wrappedUsdPlusToken",
          "type": "address"
        }
      ],
      "name": "setTokens",
      "outputs": [],
      "stateMutability": "nonpayable",
      "type": "function"
    },
    {
      "inputs": [
        {
          "internalType": "bytes4",
          "name": "interfaceId",
          "type": "bytes4"
        }
      ],
      "name": "supportsInterface",
      "outputs": [
        {
          "internalType": "bool",
          "name": "",
          "type": "bool"
        }
      ],
      "stateMutability": "view",
      "type": "function"
    },
    {
      "inputs": [
        {
          "internalType": "address",
          "name": "asset",
          "type": "address"
        },
        {
          "internalType": "uint256",
          "name": "amount",
          "type": "uint256"
        },
        {
          "internalType": "address",
          "name": "receiver",
          "type": "address"
        }
      ],
      "name": "unwrap",
      "outputs": [
        {
          "internalType": "uint256",
          "name": "",
          "type": "uint256"
        }
      ],
      "stateMutability": "nonpayable",
      "type": "function"
    },
    {
      "inputs": [
        {
          "internalType": "address",
          "name": "newImplementation",
          "type": "address"
        }
      ],
      "name": "upgradeTo",
      "outputs": [],
      "stateMutability": "nonpayable",
      "type": "function"
    },
    {
      "inputs": [
        {
          "internalType": "address",
          "name": "newImplementation",
          "type": "address"
        },
        {
          "internalType": "bytes",
          "name": "data",
          "type": "bytes"
        }
      ],
      "name": "upgradeToAndCall",
      "outputs": [],
      "stateMutability": "payable",
      "type": "function"
    },
    {
      "inputs": [],
      "name": "usdPlusToken",
      "outputs": [
        {
          "internalType": "contract IUsdPlusToken",
          "name": "",
          "type": "address"
        }
      ],
      "stateMutability": "view",
      "type": "function"
    },
    {
      "inputs": [],
      "name": "usdcToken",
      "outputs": [
        {
          "internalType": "contract IERC20",
          "name": "",
          "type": "address"
        }
      ],
      "stateMutability": "view",
      "type": "function"
    },
    {
      "inputs": [
        {
          "internalType": "address",
          "name": "asset",
          "type": "address"
        },
        {
          "internalType": "uint256",
          "name": "amount",
          "type": "uint256"
        },
        {
          "internalType": "address",
          "name": "receiver",
          "type": "address"
        }
      ],
      "name": "wrap",
      "outputs": [
        {
          "internalType": "uint256",
          "name": "",
          "type": "uint256"
        }
      ],
      "stateMutability": "nonpayable",
      "type": "function"
    },
    {
      "inputs": [],
      "name": "wrappedUsdPlusToken",
      "outputs": [
        {
          "internalType": "contract IWrappedUsdPlusToken",
          "name": "",
          "type": "address"
        }
      ],
      "stateMutability": "view",
      "type": "function"
    }
  ],
  "numDeployments": 1,
  "solcInputHash": "bf3ccfcb6b031129c95fcc80e118c379",
  "bytecode": "0x60a06040523060601b6080523480156200001857600080fd5b50600054610100900460ff16158080156200003a5750600054600160ff909116105b806200006a575062000057306200014460201b62001ae61760201c565b1580156200006a575060005460ff166001145b620000d25760405162461bcd60e51b815260206004820152602e60248201527f496e697469616c697a61626c653a20636f6e747261637420697320616c72656160448201526d191e481a5b9a5d1a585b1a5e995960921b606482015260840160405180910390fd5b6000805460ff191660011790558015620000f6576000805461ff0019166101001790555b80156200013d576000805461ff0019169055604051600181527f7f26b83ff96e1f2b6a682f133852f6798a09c465da95921460cefb38474024989060200160405180910390a15b5062000153565b6001600160a01b03163b151590565b60805160601c61283c6200018e600039600081816107c60152818161080601528181610ab301528181610af30152610b82015261283c6000f3fe60806040526004361061012a5760003560e01c80634f1ef286116100ab5780639a5bf2da1161006f5780639a5bf2da14610339578063a217fddf14610359578063b68f43451461036e578063d2f7265a1461038e578063d547741f146103ae578063d614dedf146103ce57600080fd5b80634f1ef286146102bc57806352d1902d146102cf5780635c15155e146102e45780638129fc1c1461030457806391d148541461031957600080fd5b80632f2ff15d116100f25780632f2ff15d1461021a57806336568abe1461023c5780633659cfe61461025c578063443be2091461027c5780634e49acac1461029c57600080fd5b80630110c4d81461012f57806301ffc9a71461016c57806311eac8551461019c578063248a9ca3146101bc5780632eba6021146101fa575b600080fd5b34801561013b57600080fd5b5060fd5461014f906001600160a01b031681565b6040516001600160a01b0390911681526020015b60405180910390f35b34801561017857600080fd5b5061018c61018736600461242b565b6103ee565b6040519015158152602001610163565b3480156101a857600080fd5b5060fb5461014f906001600160a01b031681565b3480156101c857600080fd5b506101ec6101d73660046123cd565b60009081526065602052604090206001015490565b604051908152602001610163565b34801561020657600080fd5b506101ec61021536600461234e565b610425565b34801561022657600080fd5b5061023a6102353660046123ff565b610713565b005b34801561024857600080fd5b5061023a6102573660046123ff565b61073d565b34801561026857600080fd5b5061023a61027736600461222e565b6107bb565b34801561028857600080fd5b5061023a610297366004612249565b61089b565b3480156102a857600080fd5b5061023a6102b736600461222e565b6109df565b61023a6102ca36600461228c565b610aa8565b3480156102db57600080fd5b506101ec610b75565b3480156102f057600080fd5b506101ec6102ff366004612378565b610c28565b34801561031057600080fd5b5061023a61116b565b34801561032557600080fd5b5061018c6103343660046123ff565b611288565b34801561034557600080fd5b506101ec61035436600461234e565b6112b3565b34801561036557600080fd5b506101ec600081565b34801561037a57600080fd5b506101ec610389366004612378565b611500565b34801561039a57600080fd5b5060fe5461014f906001600160a01b031681565b3480156103ba57600080fd5b5061023a6103c93660046123ff565b611ac1565b3480156103da57600080fd5b5060fc5461014f906001600160a01b031681565b60006001600160e01b03198216637965db0b60e01b148061041f57506301ffc9a760e01b6001600160e01b03198316145b92915050565b60006001600160a01b0383166104565760405162461bcd60e51b815260040161044d90612688565b60405180910390fd5b816104735760405162461bcd60e51b815260040161044d9061261a565b60fb546001600160a01b038481169116141561063f5760fd5460405163266d6a8360e11b8152600481018490526000916001600160a01b031690634cdad5069060240160206040518083038186803b1580156104ce57600080fd5b505afa1580156104e2573d6000803e3d6000fd5b505050506040513d601f19601f8201168201806040525081019061050691906123e6565b9050600060fe60009054906101000a90046001600160a01b03166001600160a01b031663c12e90e96040518163ffffffff1660e01b815260040160206040518083038186803b15801561055857600080fd5b505afa15801561056c573d6000803e3d6000fd5b505050506040513d601f19601f8201168201806040525081019061059091906123e6565b60fe60009054906101000a90046001600160a01b03166001600160a01b031663965fa21e6040518163ffffffff1660e01b815260040160206040518083038186803b1580156105de57600080fd5b505afa1580156105f2573d6000803e3d6000fd5b505050506040513d601f19601f8201168201806040525081019061061691906123e6565b6106209084612704565b61062a91906126e2565b90506106368183612723565b9250505061041f565b60fc546001600160a01b03848116911614156106d95760fd5460405163266d6a8360e11b8152600481018490526001600160a01b0390911690634cdad506906024015b60206040518083038186803b15801561069a57600080fd5b505afa1580156106ae573d6000803e3d6000fd5b505050506040513d601f19601f820116820180604052508101906106d291906123e6565b905061041f565b60405162461bcd60e51b815260206004820152600f60248201526e105cdcd95d081b9bdd08199bdd5b99608a1b604482015260640161044d565b60008281526065602052604090206001015461072e81611af5565b6107388383611aff565b505050565b6001600160a01b03811633146107ad5760405162461bcd60e51b815260206004820152602f60248201527f416363657373436f6e74726f6c3a2063616e206f6e6c792072656e6f756e636560448201526e103937b632b9903337b91039b2b63360891b606482015260840161044d565b6107b78282611b85565b5050565b306001600160a01b037f00000000000000000000000000000000000000000000000000000000000000001614156108045760405162461bcd60e51b815260040161044d9061253d565b7f00000000000000000000000000000000000000000000000000000000000000006001600160a01b031661084d6000805160206127c0833981519152546001600160a01b031690565b6001600160a01b0316146108735760405162461bcd60e51b815260040161044d90612589565b61087c81611bec565b6040805160008082526020820190925261089891839190611bf7565b50565b6108a6600033611288565b6108e95760405162461bcd60e51b81526020600482015260146024820152735265737472696374656420746f2061646d696e7360601b604482015260640161044d565b6001600160a01b03831661090f5760405162461bcd60e51b815260040161044d90612651565b6001600160a01b0382166109355760405162461bcd60e51b815260040161044d90612651565b6001600160a01b03811661095b5760405162461bcd60e51b815260040161044d90612651565b60fb80546001600160a01b038581166001600160a01b0319928316811790935560fc8054868316908416811790915560fd8054928616929093168217909255604080519384526020840192909252908201527fa472adc169d9e53a73157dedbd106a4d6b268066dd633d916dd767b5ab8782109060600160405180910390a1505050565b6109ea600033611288565b610a2d5760405162461bcd60e51b81526020600482015260146024820152735265737472696374656420746f2061646d696e7360601b604482015260640161044d565b6001600160a01b038116610a535760405162461bcd60e51b815260040161044d90612651565b60fe80546001600160a01b0319166001600160a01b0383169081179091556040519081527fffc77c5ea9b830a63821a682834d62a9a7930c32afa6c37bad32a0e1b8d974a8906020015b60405180910390a150565b306001600160a01b037f0000000000000000000000000000000000000000000000000000000000000000161415610af15760405162461bcd60e51b815260040161044d9061253d565b7f00000000000000000000000000000000000000000000000000000000000000006001600160a01b0316610b3a6000805160206127c0833981519152546001600160a01b031690565b6001600160a01b031614610b605760405162461bcd60e51b815260040161044d90612589565b610b6982611bec565b6107b782826001611bf7565b6000306001600160a01b037f00000000000000000000000000000000000000000000000000000000000000001614610c155760405162461bcd60e51b815260206004820152603860248201527f555550535570677261646561626c653a206d757374206e6f742062652063616c60448201527f6c6564207468726f7567682064656c656761746563616c6c0000000000000000606482015260840161044d565b506000805160206127c083398151915290565b60006001600160a01b038416610c505760405162461bcd60e51b815260040161044d90612688565b82610c6d5760405162461bcd60e51b815260040161044d9061261a565b6001600160a01b038216610c935760405162461bcd60e51b815260040161044d906125d5565b60fb546000906001600160a01b0386811691161415610f5c5760fb546040516323b872dd60e01b81526001600160a01b03909116906323b872dd90610ce0903390309089906004016124e6565b602060405180830381600087803b158015610cfa57600080fd5b505af1158015610d0e573d6000803e3d6000fd5b505050506040513d601f19601f82011682018060405250810190610d3291906123ab565b5060fb5460fe5460405163095ea7b360e01b81526001600160a01b0391821660048201526024810187905291169063095ea7b390604401602060405180830381600087803b158015610d8357600080fd5b505af1158015610d97573d6000803e3d6000fd5b505050506040513d601f19601f82011682018060405250810190610dbb91906123ab565b5060fe5460405163cce7ec1360e01b81526001600160a01b03878116600483015260248201879052600092169063cce7ec1390604401602060405180830381600087803b158015610e0b57600080fd5b505af1158015610e1f573d6000803e3d6000fd5b505050506040513d601f19601f82011682018060405250810190610e4391906123e6565b60fc5460fd5460405163095ea7b360e01b81526001600160a01b03918216600482015260248101849052929350169063095ea7b390604401602060405180830381600087803b158015610e9557600080fd5b505af1158015610ea9573d6000803e3d6000fd5b505050506040513d601f19601f82011682018060405250810190610ecd91906123ab565b5060fd54604051636e553f6560e01b8152600481018390526001600160a01b03868116602483015290911690636e553f6590604401602060405180830381600087803b158015610f1c57600080fd5b505af1158015610f30573d6000803e3d6000fd5b505050506040513d601f19601f82011682018060405250810190610f5491906123e6565b91505061110b565b60fc546001600160a01b03868116911614156106d95760fc546040516323b872dd60e01b81526001600160a01b03909116906323b872dd90610fa6903390309089906004016124e6565b602060405180830381600087803b158015610fc057600080fd5b505af1158015610fd4573d6000803e3d6000fd5b505050506040513d601f19601f82011682018060405250810190610ff891906123ab565b5060fc5460fd5460405163095ea7b360e01b81526001600160a01b0391821660048201526024810187905291169063095ea7b390604401602060405180830381600087803b15801561104957600080fd5b505af115801561105d573d6000803e3d6000fd5b505050506040513d601f19601f8201168201806040525081019061108191906123ab565b5060fd54604051636e553f6560e01b8152600481018690526001600160a01b03858116602483015290911690636e553f6590604401602060405180830381600087803b1580156110d057600080fd5b505af11580156110e4573d6000803e3d6000fd5b505050506040513d601f19601f8201168201806040525081019061110891906123e6565b90505b604080516001600160a01b03808816825260208201879052851691810191909152606081018290527fdb9918e6f54663727eda47fc875748fb8691ebd19248060b18aefe3d46c55a52906080015b60405180910390a190505b9392505050565b600054610100900460ff161580801561118b5750600054600160ff909116105b806111a55750303b1580156111a5575060005460ff166001145b6112085760405162461bcd60e51b815260206004820152602e60248201527f496e697469616c697a61626c653a20636f6e747261637420697320616c72656160448201526d191e481a5b9a5d1a585b1a5e995960921b606482015260840161044d565b6000805460ff19166001179055801561122b576000805461ff0019166101001790555b611233611d71565b61123b611d71565b611246600033611aff565b8015610898576000805461ff0019169055604051600181527f7f26b83ff96e1f2b6a682f133852f6798a09c465da95921460cefb384740249890602001610a9d565b60009182526065602090815260408084206001600160a01b0393909316845291905290205460ff1690565b60006001600160a01b0383166112db5760405162461bcd60e51b815260040161044d90612688565b816112f85760405162461bcd60e51b815260040161044d9061261a565b60fb546001600160a01b03848116911614156114b95760fe54604080516362f0989560e01b815290516000926001600160a01b0316916362f09895916004808301926020929190829003018186803b15801561135357600080fd5b505afa158015611367573d6000803e3d6000fd5b505050506040513d601f19601f8201168201806040525081019061138b91906123e6565b60fe60009054906101000a90046001600160a01b03166001600160a01b031663470624026040518163ffffffff1660e01b815260040160206040518083038186803b1580156113d957600080fd5b505afa1580156113ed573d6000803e3d6000fd5b505050506040513d601f19601f8201168201806040525081019061141191906123e6565b61141b9085612704565b61142591906126e2565b60fd549091506001600160a01b031663ef8b30f76114438386612723565b6040518263ffffffff1660e01b815260040161146191815260200190565b60206040518083038186803b15801561147957600080fd5b505afa15801561148d573d6000803e3d6000fd5b505050506040513d601f19601f820116820180604052508101906114b191906123e6565b91505061041f565b60fc546001600160a01b03848116911614156106d95760fd5460405163ef8b30f760e01b8152600481018490526001600160a01b039091169063ef8b30f790602401610682565b60006001600160a01b0384166115285760405162461bcd60e51b815260040161044d90612688565b826115455760405162461bcd60e51b815260040161044d9061261a565b6001600160a01b03821661156b5760405162461bcd60e51b815260040161044d906125d5565b60fb546000906001600160a01b03868116911614156118bd5760fd546040516323b872dd60e01b81526001600160a01b03909116906323b872dd906115b8903390309089906004016124e6565b602060405180830381600087803b1580156115d257600080fd5b505af11580156115e6573d6000803e3d6000fd5b505050506040513d601f19601f8201168201806040525081019061160a91906123ab565b5060fd5460405163095ea7b360e01b81526001600160a01b0390911660048201819052602482018690529063095ea7b390604401602060405180830381600087803b15801561165857600080fd5b505af115801561166c573d6000803e3d6000fd5b505050506040513d601f19601f8201168201806040525081019061169091906123ab565b5060fd54604051635d043b2960e11b815260048101869052306024820181905260448201526000916001600160a01b03169063ba08765290606401602060405180830381600087803b1580156116e557600080fd5b505af11580156116f9573d6000803e3d6000fd5b505050506040513d601f19601f8201168201806040525081019061171d91906123e6565b60fc5460fe5460405163095ea7b360e01b81526001600160a01b03918216600482015260248101849052929350169063095ea7b390604401602060405180830381600087803b15801561176f57600080fd5b505af1158015611783573d6000803e3d6000fd5b505050506040513d601f19601f820116820180604052508101906117a791906123ab565b5060fe546040516301e9a69560e41b81526001600160a01b0388811660048301526024820184905290911690631e9a695090604401602060405180830381600087803b1580156117f657600080fd5b505af115801561180a573d6000803e3d6000fd5b505050506040513d601f19601f8201168201806040525081019061182e91906123e6565b60fb5460405163a9059cbb60e01b81526001600160a01b0387811660048301526024820184905292945091169063a9059cbb90604401602060405180830381600087803b15801561187e57600080fd5b505af1158015611892573d6000803e3d6000fd5b505050506040513d601f19601f820116820180604052508101906118b691906123ab565b5050611a6f565b60fc546001600160a01b03868116911614156106d95760fd546040516323b872dd60e01b81526001600160a01b03909116906323b872dd90611907903390309089906004016124e6565b602060405180830381600087803b15801561192157600080fd5b505af1158015611935573d6000803e3d6000fd5b505050506040513d601f19601f8201168201806040525081019061195991906123ab565b5060fd5460405163095ea7b360e01b81526001600160a01b0390911660048201819052602482018690529063095ea7b390604401602060405180830381600087803b1580156119a757600080fd5b505af11580156119bb573d6000803e3d6000fd5b505050506040513d601f19601f820116820180604052508101906119df91906123ab565b5060fd54604051635d043b2960e11b8152600481018690526001600160a01b0385811660248301523060448301529091169063ba08765290606401602060405180830381600087803b158015611a3457600080fd5b505af1158015611a48573d6000803e3d6000fd5b505050506040513d601f19601f82011682018060405250810190611a6c91906123e6565b90505b604080516001600160a01b03808816825260208201879052851691810191909152606081018290527f10cb633fc1dd54394de83417bf67e51b0b1389a4e078c9b76a7a6492c190cd3f90608001611159565b600082815260656020526040902060010154611adc81611af5565b6107388383611b85565b6001600160a01b03163b151590565b6108988133611dde565b611b098282611288565b6107b75760008281526065602090815260408083206001600160a01b03851684529091529020805460ff19166001179055611b413390565b6001600160a01b0316816001600160a01b0316837f2f8788117e7eff1d82e926ec794901d17c78024a50270940304540a733656f0d60405160405180910390a45050565b611b8f8282611288565b156107b75760008281526065602090815260408083206001600160a01b0385168085529252808320805460ff1916905551339285917ff6391f5c32d9c69d2a47ea670b442974b53935d1edc7fd64eb21e047a839171b9190a45050565b60006107b781611af5565b7f4910fdfa16fed3260ed0e7147f7cc6da11a60208b5b9406d12a635614ffd91435460ff1615611c2a5761073883611e42565b826001600160a01b03166352d1902d6040518163ffffffff1660e01b815260040160206040518083038186803b158015611c6357600080fd5b505afa925050508015611c93575060408051601f3d908101601f19168201909252611c90918101906123e6565b60015b611cf65760405162461bcd60e51b815260206004820152602e60248201527f45524331393637557067726164653a206e657720696d706c656d656e7461746960448201526d6f6e206973206e6f74205555505360901b606482015260840161044d565b6000805160206127c08339815191528114611d655760405162461bcd60e51b815260206004820152602960248201527f45524331393637557067726164653a20756e737570706f727465642070726f786044820152681a58589b195555525160ba1b606482015260840161044d565b50610738838383611ede565b600054610100900460ff16611ddc5760405162461bcd60e51b815260206004820152602b60248201527f496e697469616c697a61626c653a20636f6e7472616374206973206e6f74206960448201526a6e697469616c697a696e6760a81b606482015260840161044d565b565b611de88282611288565b6107b757611e00816001600160a01b03166014611f09565b611e0b836020611f09565b604051602001611e1c929190612471565b60408051601f198184030181529082905262461bcd60e51b825261044d9160040161250a565b6001600160a01b0381163b611eaf5760405162461bcd60e51b815260206004820152602d60248201527f455243313936373a206e657720696d706c656d656e746174696f6e206973206e60448201526c1bdd08184818dbdb9d1c9858dd609a1b606482015260840161044d565b6000805160206127c083398151915280546001600160a01b0319166001600160a01b0392909216919091179055565b611ee7836120a5565b600082511180611ef45750805b1561073857611f0383836120e5565b50505050565b60606000611f18836002612704565b611f239060026126ca565b67ffffffffffffffff811115611f3b57611f3b6127a9565b6040519080825280601f01601f191660200182016040528015611f65576020820181803683370190505b509050600360fc1b81600081518110611f8057611f80612793565b60200101906001600160f81b031916908160001a905350600f60fb1b81600181518110611faf57611faf612793565b60200101906001600160f81b031916908160001a9053506000611fd3846002612704565b611fde9060016126ca565b90505b6001811115612056576f181899199a1a9b1b9c1cb0b131b232b360811b85600f166010811061201257612012612793565b1a60f81b82828151811061202857612028612793565b60200101906001600160f81b031916908160001a90535060049490941c9361204f81612766565b9050611fe1565b5083156111645760405162461bcd60e51b815260206004820181905260248201527f537472696e67733a20686578206c656e67746820696e73756666696369656e74604482015260640161044d565b6120ae81611e42565b6040516001600160a01b038216907fbc7cd75a20ee27fd9adebab32041f755214dbc6bffa90cc0225b39da2e5c2d3b90600090a250565b60606001600160a01b0383163b61214d5760405162461bcd60e51b815260206004820152602660248201527f416464726573733a2064656c65676174652063616c6c20746f206e6f6e2d636f6044820152651b9d1c9858dd60d21b606482015260840161044d565b600080846001600160a01b0316846040516121689190612455565b600060405180830381855af49150503d80600081146121a3576040519150601f19603f3d011682016040523d82523d6000602084013e6121a8565b606091505b50915091506121d082826040518060600160405280602781526020016127e0602791396121d9565b95945050505050565b606083156121e8575081611164565b8251156121f85782518084602001fd5b8160405162461bcd60e51b815260040161044d919061250a565b80356001600160a01b038116811461222957600080fd5b919050565b60006020828403121561224057600080fd5b61116482612212565b60008060006060848603121561225e57600080fd5b61226784612212565b925061227560208501612212565b915061228360408501612212565b90509250925092565b6000806040838503121561229f57600080fd5b6122a883612212565b9150602083013567ffffffffffffffff808211156122c557600080fd5b818501915085601f8301126122d957600080fd5b8135818111156122eb576122eb6127a9565b604051601f8201601f19908116603f01168101908382118183101715612313576123136127a9565b8160405282815288602084870101111561232c57600080fd5b8260208601602083013760006020848301015280955050505050509250929050565b6000806040838503121561236157600080fd5b61236a83612212565b946020939093013593505050565b60008060006060848603121561238d57600080fd5b61239684612212565b92506020840135915061228360408501612212565b6000602082840312156123bd57600080fd5b8151801515811461116457600080fd5b6000602082840312156123df57600080fd5b5035919050565b6000602082840312156123f857600080fd5b5051919050565b6000806040838503121561241257600080fd5b8235915061242260208401612212565b90509250929050565b60006020828403121561243d57600080fd5b81356001600160e01b03198116811461116457600080fd5b6000825161246781846020870161273a565b9190910192915050565b7f416363657373436f6e74726f6c3a206163636f756e74200000000000000000008152600083516124a981601785016020880161273a565b7001034b99036b4b9b9b4b733903937b6329607d1b60179184019182015283516124da81602884016020880161273a565b01602801949350505050565b6001600160a01b039384168152919092166020820152604081019190915260600190565b602081526000825180602084015261252981604085016020870161273a565b601f01601f19169190910160400192915050565b6020808252602c908201527f46756e6374696f6e206d7573742062652063616c6c6564207468726f7567682060408201526b19195b1959d85d1958d85b1b60a21b606082015260800190565b6020808252602c908201527f46756e6374696f6e206d7573742062652063616c6c6564207468726f7567682060408201526b6163746976652070726f787960a01b606082015260800190565b60208082526025908201527f5a65726f206164647265737320666f72207265636569766572206e6f7420616c6040820152641b1bddd95960da1b606082015260800190565b60208082526017908201527f5a65726f20616d6f756e74206e6f7420616c6c6f776564000000000000000000604082015260600190565b60208082526018908201527f5a65726f2061646472657373206e6f7420616c6c6f7765640000000000000000604082015260600190565b60208082526022908201527f5a65726f206164647265737320666f72206173736574206e6f7420616c6c6f77604082015261195960f21b606082015260800190565b600082198211156126dd576126dd61277d565b500190565b6000826126ff57634e487b7160e01b600052601260045260246000fd5b500490565b600081600019048311821515161561271e5761271e61277d565b500290565b6000828210156127355761273561277d565b500390565b60005b8381101561275557818101518382015260200161273d565b83811115611f035750506000910152565b6000816127755761277561277d565b506000190190565b634e487b7160e01b600052601160045260246000fd5b634e487b7160e01b600052603260045260246000fd5b634e487b7160e01b600052604160045260246000fdfe360894a13ba1a3210667c828492db98dca3e2076cc3735a920a3ca505d382bbc416464726573733a206c6f772d6c6576656c2064656c65676174652063616c6c206661696c6564a2646970667358221220f9be6f28e13ca8bb2404e0e72d2a8854370021f19c230026a261f6adf9c24ee164736f6c63430008060033",
  "implementation": "0x09EE93f193b365B0C74793C7339Cc6Fc578b49cB",
  "devdoc": {
    "kind": "dev",
    "methods": {
      "constructor": {
        "custom:oz-upgrades-unsafe-allow": "constructor"
      },
      "getRoleAdmin(bytes32)": {
        "details": "Returns the admin role that controls `role`. See {grantRole} and {revokeRole}. To change a role's admin, use {_setRoleAdmin}."
      },
      "grantRole(bytes32,address)": {
        "details": "Grants `role` to `account`. If `account` had not been already granted `role`, emits a {RoleGranted} event. Requirements: - the caller must have ``role``'s admin role. May emit a {RoleGranted} event."
      },
      "hasRole(bytes32,address)": {
        "details": "Returns `true` if `account` has been granted `role`."
      },
      "previewUnwrap(address,uint256)": {
        "details": "preview unwrap `amount` of wUSD+ to `asset`. This is an estimate amount, real amount may vary. Requirements: - `asset` cannot be the zero address. - `amount` cannot be the zero."
      },
      "previewWrap(address,uint256)": {
        "details": "preview wrap `amount` of `asset` to wUSD+. This is an estimate amount, real amount may vary. Requirements: - `asset` cannot be the zero address. - `amount` cannot be the zero."
      },
      "proxiableUUID()": {
        "details": "Implementation of the ERC1822 {proxiableUUID} function. This returns the storage slot used by the implementation. It is used to validate that the this implementation remains valid after an upgrade. IMPORTANT: A proxy pointing at a proxiable contract should not be considered proxiable itself, because this risks bricking a proxy that upgrades to it, by delegating to itself until out of gas. Thus it is critical that this function revert if invoked through a proxy. This is guaranteed by the `notDelegated` modifier."
      },
      "renounceRole(bytes32,address)": {
        "details": "Revokes `role` from the calling account. Roles are often managed via {grantRole} and {revokeRole}: this function's purpose is to provide a mechanism for accounts to lose their privileges if they are compromised (such as when a trusted device is misplaced). If the calling account had been revoked `role`, emits a {RoleRevoked} event. Requirements: - the caller must be `account`. May emit a {RoleRevoked} event."
      },
      "revokeRole(bytes32,address)": {
        "details": "Revokes `role` from `account`. If `account` had been granted `role`, emits a {RoleRevoked} event. Requirements: - the caller must have ``role``'s admin role. May emit a {RoleRevoked} event."
      },
      "supportsInterface(bytes4)": {
        "details": "See {IERC165-supportsInterface}."
      },
      "unwrap(address,uint256,address)": {
        "details": "Unwrap `amount` of wUSD+ from `msg.sender` to `asset` of `receiver`. Emits a {Unwrap} event. Requirements: - `asset` cannot be the zero address. - `amount` cannot be the zero. - `receiver` cannot be the zero address."
      },
      "upgradeTo(address)": {
        "details": "Upgrade the implementation of the proxy to `newImplementation`. Calls {_authorizeUpgrade}. Emits an {Upgraded} event."
      },
      "upgradeToAndCall(address,bytes)": {
        "details": "Upgrade the implementation of the proxy to `newImplementation`, and subsequently execute the function call encoded in `data`. Calls {_authorizeUpgrade}. Emits an {Upgraded} event."
      },
      "wrap(address,uint256,address)": {
        "details": "Wrap `amount` of `asset` from `msg.sender` to wUSD+ of `receiver`. Emits a {Wrap} event. Requirements: - `asset` cannot be the zero address. - `amount` cannot be the zero. - `receiver` cannot be the zero address."
      }
    },
    "version": 1
  },
  "userdoc": {
    "kind": "user",
    "methods": {},
    "version": 1
  },
  "storageLayout": {
    "storage": [
      {
        "astId": 808,
        "contract": "contracts/Market.sol:Market",
        "label": "_initialized",
        "offset": 0,
        "slot": "0",
        "type": "t_uint8"
      },
      {
        "astId": 811,
        "contract": "contracts/Market.sol:Market",
        "label": "_initializing",
        "offset": 1,
        "slot": "0",
        "type": "t_bool"
      },
      {
        "astId": 2086,
        "contract": "contracts/Market.sol:Market",
        "label": "__gap",
        "offset": 0,
        "slot": "1",
        "type": "t_array(t_uint256)50_storage"
      },
      {
        "astId": 2416,
        "contract": "contracts/Market.sol:Market",
        "label": "__gap",
        "offset": 0,
        "slot": "51",
        "type": "t_array(t_uint256)50_storage"
      },
      {
        "astId": 39,
        "contract": "contracts/Market.sol:Market",
        "label": "_roles",
        "offset": 0,
        "slot": "101",
        "type": "t_mapping(t_bytes32,t_struct(RoleData)34_storage)"
      },
      {
        "astId": 338,
        "contract": "contracts/Market.sol:Market",
        "label": "__gap",
        "offset": 0,
        "slot": "102",
        "type": "t_array(t_uint256)49_storage"
      },
      {
        "astId": 790,
        "contract": "contracts/Market.sol:Market",
        "label": "__gap",
        "offset": 0,
        "slot": "151",
        "type": "t_array(t_uint256)50_storage"
      },
      {
        "astId": 1087,
        "contract": "contracts/Market.sol:Market",
        "label": "__gap",
        "offset": 0,
        "slot": "201",
        "type": "t_array(t_uint256)50_storage"
      },
      {
        "astId": 5559,
        "contract": "contracts/Market.sol:Market",
        "label": "usdcToken",
        "offset": 0,
        "slot": "251",
        "type": "t_contract(IERC20)2507"
      },
      {
        "astId": 5562,
        "contract": "contracts/Market.sol:Market",
        "label": "usdPlusToken",
        "offset": 0,
        "slot": "252",
        "type": "t_contract(IUsdPlusToken)8419"
      },
      {
        "astId": 5565,
        "contract": "contracts/Market.sol:Market",
        "label": "wrappedUsdPlusToken",
        "offset": 0,
        "slot": "253",
        "type": "t_contract(IWrappedUsdPlusToken)8439"
      },
      {
        "astId": 5568,
        "contract": "contracts/Market.sol:Market",
        "label": "exchange",
        "offset": 0,
        "slot": "254",
        "type": "t_contract(IExchange)8346"
      }
    ],
    "types": {
      "t_address": {
        "encoding": "inplace",
        "label": "address",
        "numberOfBytes": "20"
      },
      "t_array(t_uint256)49_storage": {
        "base": "t_uint256",
        "encoding": "inplace",
        "label": "uint256[49]",
        "numberOfBytes": "1568"
      },
      "t_array(t_uint256)50_storage": {
        "base": "t_uint256",
        "encoding": "inplace",
        "label": "uint256[50]",
        "numberOfBytes": "1600"
      },
      "t_bool": {
        "encoding": "inplace",
        "label": "bool",
        "numberOfBytes": "1"
      },
      "t_bytes32": {
        "encoding": "inplace",
        "label": "bytes32",
        "numberOfBytes": "32"
      },
      "t_contract(IERC20)2507": {
        "encoding": "inplace",
        "label": "contract IERC20",
        "numberOfBytes": "20"
      },
      "t_contract(IExchange)8346": {
        "encoding": "inplace",
        "label": "contract IExchange",
        "numberOfBytes": "20"
      },
      "t_contract(IUsdPlusToken)8419": {
        "encoding": "inplace",
        "label": "contract IUsdPlusToken",
        "numberOfBytes": "20"
      },
      "t_contract(IWrappedUsdPlusToken)8439": {
        "encoding": "inplace",
        "label": "contract IWrappedUsdPlusToken",
        "numberOfBytes": "20"
      },
      "t_mapping(t_address,t_bool)": {
        "encoding": "mapping",
        "key": "t_address",
        "label": "mapping(address => bool)",
        "numberOfBytes": "32",
        "value": "t_bool"
      },
      "t_mapping(t_bytes32,t_struct(RoleData)34_storage)": {
        "encoding": "mapping",
        "key": "t_bytes32",
        "label": "mapping(bytes32 => struct AccessControlUpgradeable.RoleData)",
        "numberOfBytes": "32",
        "value": "t_struct(RoleData)34_storage"
      },
      "t_struct(RoleData)34_storage": {
        "encoding": "inplace",
        "label": "struct AccessControlUpgradeable.RoleData",
        "members": [
          {
            "astId": 31,
            "contract": "contracts/Market.sol:Market",
            "label": "members",
            "offset": 0,
            "slot": "0",
            "type": "t_mapping(t_address,t_bool)"
          },
          {
            "astId": 33,
            "contract": "contracts/Market.sol:Market",
            "label": "adminRole",
            "offset": 0,
            "slot": "1",
            "type": "t_bytes32"
          }
        ],
        "numberOfBytes": "64"
      },
      "t_uint256": {
        "encoding": "inplace",
        "label": "uint256",
        "numberOfBytes": "32"
      },
      "t_uint8": {
        "encoding": "inplace",
        "label": "uint8",
        "numberOfBytes": "1"
      }
    }
  }
}