{
  "address": "0x30E50923479D8bE4b468c0254329931bb1BE8323",
  "abi": [
    {
      "inputs": [],
      "stateMutability": "nonpayable",
      "type": "constructor"
    },
    {
      "anonymous": false,
      "inputs": [
        {
          "indexed": false,
          "internalType": "address",
          "name": "previousAdmin",
          "type": "address"
        },
        {
          "indexed": false,
          "internalType": "address",
          "name": "newAdmin",
          "type": "address"
        }
      ],
      "name": "AdminChanged",
      "type": "event"
    },
    {
      "anonymous": false,
      "inputs": [
        {
          "indexed": false,
          "internalType": "address",
          "name": "value",
          "type": "address"
        }
      ],
      "name": "AssetUpdated",
      "type": "event"
    },
    {
      "anonymous": false,
      "inputs": [],
      "name": "Balance",
      "type": "event"
    },
    {
      "anonymous": false,
      "inputs": [
        {
          "indexed": true,
          "internalType": "address",
          "name": "beacon",
          "type": "address"
        }
      ],
      "name": "BeaconUpgraded",
      "type": "event"
    },
    {
      "anonymous": false,
      "inputs": [
        {
          "indexed": false,
          "internalType": "address",
          "name": "value",
          "type": "address"
        }
      ],
      "name": "CashStrategyAlreadySet",
      "type": "event"
    },
    {
      "anonymous": false,
      "inputs": [
        {
          "indexed": false,
          "internalType": "uint256",
          "name": "value",
          "type": "uint256"
        }
      ],
      "name": "CashStrategyRestaked",
      "type": "event"
    },
    {
      "anonymous": false,
      "inputs": [
        {
          "indexed": false,
          "internalType": "address",
          "name": "value",
          "type": "address"
        }
      ],
      "name": "CashStrategyUpdated",
      "type": "event"
    },
    {
      "anonymous": false,
      "inputs": [
        {
          "indexed": false,
          "internalType": "uint256",
          "name": "amount",
          "type": "uint256"
        },
        {
          "indexed": false,
          "internalType": "address",
          "name": "from",
          "type": "address"
        },
        {
          "indexed": false,
          "internalType": "address",
          "name": "to",
          "type": "address"
        }
      ],
      "name": "Exchanged",
      "type": "event"
    },
    {
      "anonymous": false,
      "inputs": [
        {
          "indexed": false,
          "internalType": "address",
          "name": "value",
          "type": "address"
        }
      ],
      "name": "ExchangerUpdated",
      "type": "event"
    },
    {
      "anonymous": false,
      "inputs": [
        {
          "indexed": false,
          "internalType": "uint8",
          "name": "version",
          "type": "uint8"
        }
      ],
      "name": "Initialized",
      "type": "event"
    },
    {
      "anonymous": false,
      "inputs": [
        {
          "indexed": false,
          "internalType": "address",
          "name": "value",
          "type": "address"
        }
      ],
      "name": "Mark2MarketUpdated",
      "type": "event"
    },
    {
      "anonymous": false,
      "inputs": [
        {
          "indexed": true,
          "internalType": "bytes32",
          "name": "role",
          "type": "bytes32"
        },
        {
          "indexed": true,
          "internalType": "bytes32",
          "name": "previousAdminRole",
          "type": "bytes32"
        },
        {
          "indexed": true,
          "internalType": "bytes32",
          "name": "newAdminRole",
          "type": "bytes32"
        }
      ],
      "name": "RoleAdminChanged",
      "type": "event"
    },
    {
      "anonymous": false,
      "inputs": [
        {
          "indexed": true,
          "internalType": "bytes32",
          "name": "role",
          "type": "bytes32"
        },
        {
          "indexed": true,
          "internalType": "address",
          "name": "account",
          "type": "address"
        },
        {
          "indexed": true,
          "internalType": "address",
          "name": "sender",
          "type": "address"
        }
      ],
      "name": "RoleGranted",
      "type": "event"
    },
    {
      "anonymous": false,
      "inputs": [
        {
          "indexed": false,
          "internalType": "address",
          "name": "roleManager",
          "type": "address"
        }
      ],
      "name": "RoleManagerUpdated",
      "type": "event"
    },
    {
      "anonymous": false,
      "inputs": [
        {
          "indexed": true,
          "internalType": "bytes32",
          "name": "role",
          "type": "bytes32"
        },
        {
          "indexed": true,
          "internalType": "address",
          "name": "account",
          "type": "address"
        },
        {
          "indexed": true,
          "internalType": "address",
          "name": "sender",
          "type": "address"
        }
      ],
      "name": "RoleRevoked",
      "type": "event"
    },
    {
      "anonymous": false,
      "inputs": [
        {
          "indexed": false,
          "internalType": "uint256",
          "name": "index",
          "type": "uint256"
        },
        {
          "indexed": false,
          "internalType": "address",
          "name": "strategy",
          "type": "address"
        },
        {
          "indexed": false,
          "internalType": "uint256",
          "name": "minWeight",
          "type": "uint256"
        },
        {
          "indexed": false,
          "internalType": "uint256",
          "name": "targetWeight",
          "type": "uint256"
        },
        {
          "indexed": false,
          "internalType": "uint256",
          "name": "maxWeight",
          "type": "uint256"
        },
        {
          "indexed": false,
          "internalType": "uint256",
          "name": "riskFactor",
          "type": "uint256"
        },
        {
          "indexed": false,
          "internalType": "bool",
          "name": "enabled",
          "type": "bool"
        },
        {
          "indexed": false,
          "internalType": "bool",
          "name": "enabledReward",
          "type": "bool"
        }
      ],
      "name": "StrategyWeightUpdated",
      "type": "event"
    },
    {
      "anonymous": false,
      "inputs": [
        {
          "indexed": false,
          "internalType": "uint256",
          "name": "value",
          "type": "uint256"
        }
      ],
      "name": "TotalRiskFactorUpdated",
      "type": "event"
    },
    {
      "anonymous": false,
      "inputs": [
        {
          "indexed": true,
          "internalType": "address",
          "name": "implementation",
          "type": "address"
        }
      ],
      "name": "Upgraded",
      "type": "event"
    },
    {
      "inputs": [],
      "name": "DEFAULT_ADMIN_ROLE",
      "outputs": [
        {
          "internalType": "bytes32",
          "name": "",
          "type": "bytes32"
        }
      ],
      "stateMutability": "view",
      "type": "function"
    },
    {
      "inputs": [],
      "name": "EXCHANGER",
      "outputs": [
        {
          "internalType": "bytes32",
          "name": "",
          "type": "bytes32"
        }
      ],
      "stateMutability": "view",
      "type": "function"
    },
    {
      "inputs": [],
      "name": "PORTFOLIO_AGENT_ROLE",
      "outputs": [
        {
          "internalType": "bytes32",
          "name": "",
          "type": "bytes32"
        }
      ],
      "stateMutability": "view",
      "type": "function"
    },
    {
      "inputs": [],
      "name": "TOTAL_WEIGHT",
      "outputs": [
        {
          "internalType": "uint256",
          "name": "",
          "type": "uint256"
        }
      ],
      "stateMutability": "view",
      "type": "function"
    },
    {
      "inputs": [
        {
          "internalType": "address",
          "name": "_strategy",
          "type": "address"
        }
      ],
      "name": "addStrategy",
      "outputs": [],
      "stateMutability": "nonpayable",
      "type": "function"
    },
    {
      "inputs": [],
      "name": "balance",
      "outputs": [],
      "stateMutability": "nonpayable",
      "type": "function"
    },
    {
      "inputs": [],
      "name": "cashStrategy",
      "outputs": [
        {
          "internalType": "contract IStrategy",
          "name": "",
          "type": "address"
        }
      ],
      "stateMutability": "view",
      "type": "function"
    },
    {
      "inputs": [],
      "name": "claimAndBalance",
      "outputs": [],
      "stateMutability": "nonpayable",
      "type": "function"
    },
    {
      "inputs": [],
      "name": "deposit",
      "outputs": [],
      "stateMutability": "nonpayable",
      "type": "function"
    },
    {
      "inputs": [],
      "name": "exchanger",
      "outputs": [
        {
          "internalType": "address",
          "name": "",
          "type": "address"
        }
      ],
      "stateMutability": "view",
      "type": "function"
    },
    {
      "inputs": [],
      "name": "getAllStrategyWeights",
      "outputs": [
        {
          "components": [
            {
              "internalType": "address",
              "name": "strategy",
              "type": "address"
            },
            {
              "internalType": "uint256",
              "name": "minWeight",
              "type": "uint256"
            },
            {
              "internalType": "uint256",
              "name": "targetWeight",
              "type": "uint256"
            },
            {
              "internalType": "uint256",
              "name": "maxWeight",
              "type": "uint256"
            },
            {
              "internalType": "uint256",
              "name": "riskFactor",
              "type": "uint256"
            },
            {
              "internalType": "bool",
              "name": "enabled",
              "type": "bool"
            },
            {
              "internalType": "bool",
              "name": "enabledReward",
              "type": "bool"
            }
          ],
          "internalType": "struct IPortfolioManager.StrategyWeight[]",
          "name": "",
          "type": "tuple[]"
        }
      ],
      "stateMutability": "view",
      "type": "function"
    },
    {
      "inputs": [
        {
          "internalType": "bytes32",
          "name": "role",
          "type": "bytes32"
        }
      ],
      "name": "getRoleAdmin",
      "outputs": [
        {
          "internalType": "bytes32",
          "name": "",
          "type": "bytes32"
        }
      ],
      "stateMutability": "view",
      "type": "function"
    },
    {
      "inputs": [
        {
          "internalType": "address",
          "name": "strategy",
          "type": "address"
        }
      ],
      "name": "getStrategyWeight",
      "outputs": [
        {
          "components": [
            {
              "internalType": "address",
              "name": "strategy",
              "type": "address"
            },
            {
              "internalType": "uint256",
              "name": "minWeight",
              "type": "uint256"
            },
            {
              "internalType": "uint256",
              "name": "targetWeight",
              "type": "uint256"
            },
            {
              "internalType": "uint256",
              "name": "maxWeight",
              "type": "uint256"
            },
            {
              "internalType": "uint256",
              "name": "riskFactor",
              "type": "uint256"
            },
            {
              "internalType": "bool",
              "name": "enabled",
              "type": "bool"
            },
            {
              "internalType": "bool",
              "name": "enabledReward",
              "type": "bool"
            }
          ],
          "internalType": "struct IPortfolioManager.StrategyWeight",
          "name": "",
          "type": "tuple"
        }
      ],
      "stateMutability": "view",
      "type": "function"
    },
    {
      "inputs": [],
      "name": "getTotalRiskFactor",
      "outputs": [
        {
          "internalType": "uint256",
          "name": "",
          "type": "uint256"
        }
      ],
      "stateMutability": "view",
      "type": "function"
    },
    {
      "inputs": [
        {
          "internalType": "bytes32",
          "name": "role",
          "type": "bytes32"
        },
        {
          "internalType": "address",
          "name": "account",
          "type": "address"
        }
      ],
      "name": "grantRole",
      "outputs": [],
      "stateMutability": "nonpayable",
      "type": "function"
    },
    {
      "inputs": [
        {
          "internalType": "bytes32",
          "name": "role",
          "type": "bytes32"
        },
        {
          "internalType": "address",
          "name": "account",
          "type": "address"
        }
      ],
      "name": "hasRole",
      "outputs": [
        {
          "internalType": "bool",
          "name": "",
          "type": "bool"
        }
      ],
      "stateMutability": "view",
      "type": "function"
    },
    {
      "inputs": [],
      "name": "initialize",
      "outputs": [],
      "stateMutability": "nonpayable",
      "type": "function"
    },
    {
      "inputs": [],
      "name": "m2m",
      "outputs": [
        {
          "internalType": "contract IMark2Market",
          "name": "",
          "type": "address"
        }
      ],
      "stateMutability": "view",
      "type": "function"
    },
    {
      "inputs": [],
      "name": "navSlippageBp",
      "outputs": [
        {
          "internalType": "uint256",
          "name": "",
          "type": "uint256"
        }
      ],
      "stateMutability": "view",
      "type": "function"
    },
    {
      "inputs": [],
      "name": "proxiableUUID",
      "outputs": [
        {
          "internalType": "bytes32",
          "name": "",
          "type": "bytes32"
        }
      ],
      "stateMutability": "view",
      "type": "function"
    },
    {
      "inputs": [
        {
          "internalType": "address",
          "name": "_strategy",
          "type": "address"
        }
      ],
      "name": "removeStrategy",
      "outputs": [],
      "stateMutability": "nonpayable",
      "type": "function"
    },
    {
      "inputs": [
        {
          "internalType": "bytes32",
          "name": "role",
          "type": "bytes32"
        },
        {
          "internalType": "address",
          "name": "account",
          "type": "address"
        }
      ],
      "name": "renounceRole",
      "outputs": [],
      "stateMutability": "nonpayable",
      "type": "function"
    },
    {
      "inputs": [
        {
          "internalType": "bytes32",
          "name": "role",
          "type": "bytes32"
        },
        {
          "internalType": "address",
          "name": "account",
          "type": "address"
        }
      ],
      "name": "revokeRole",
      "outputs": [],
      "stateMutability": "nonpayable",
      "type": "function"
    },
    {
      "inputs": [],
      "name": "roleManager",
      "outputs": [
        {
          "internalType": "contract IRoleManager",
          "name": "",
          "type": "address"
        }
      ],
      "stateMutability": "view",
      "type": "function"
    },
    {
      "inputs": [
        {
          "internalType": "address",
          "name": "_asset",
          "type": "address"
        }
      ],
      "name": "setAsset",
      "outputs": [],
      "stateMutability": "nonpayable",
      "type": "function"
    },
    {
      "inputs": [
        {
          "internalType": "address",
          "name": "_cashStrategy",
          "type": "address"
        }
      ],
      "name": "setCashStrategy",
      "outputs": [],
      "stateMutability": "nonpayable",
      "type": "function"
    },
    {
      "inputs": [
        {
          "internalType": "address",
          "name": "_exchanger",
          "type": "address"
        }
      ],
      "name": "setExchanger",
      "outputs": [],
      "stateMutability": "nonpayable",
      "type": "function"
    },
    {
      "inputs": [
        {
          "internalType": "address",
          "name": "_m2m",
          "type": "address"
        }
      ],
      "name": "setMark2Market",
      "outputs": [],
      "stateMutability": "nonpayable",
      "type": "function"
    },
    {
      "inputs": [
        {
          "internalType": "uint256",
          "name": "_navSlippageBp",
          "type": "uint256"
        }
      ],
      "name": "setNavSlippageBp",
      "outputs": [],
      "stateMutability": "nonpayable",
      "type": "function"
    },
    {
      "inputs": [
        {
          "internalType": "address",
          "name": "_roleManager",
          "type": "address"
        }
      ],
      "name": "setRoleManager",
      "outputs": [],
      "stateMutability": "nonpayable",
      "type": "function"
    },
    {
      "inputs": [
        {
          "components": [
            {
              "internalType": "address",
              "name": "strategy",
              "type": "address"
            },
            {
              "internalType": "uint256",
              "name": "minWeight",
              "type": "uint256"
            },
            {
              "internalType": "uint256",
              "name": "targetWeight",
              "type": "uint256"
            },
            {
              "internalType": "uint256",
              "name": "maxWeight",
              "type": "uint256"
            },
            {
              "internalType": "uint256",
              "name": "riskFactor",
              "type": "uint256"
            },
            {
              "internalType": "bool",
              "name": "enabled",
              "type": "bool"
            },
            {
              "internalType": "bool",
              "name": "enabledReward",
              "type": "bool"
            }
          ],
          "internalType": "struct IPortfolioManager.StrategyWeight[]",
          "name": "_strategyWeights",
          "type": "tuple[]"
        }
      ],
      "name": "setStrategyWeights",
      "outputs": [],
      "stateMutability": "nonpayable",
      "type": "function"
    },
    {
      "inputs": [
        {
          "internalType": "address",
          "name": "",
          "type": "address"
        }
      ],
      "name": "strategyWeightPositions",
      "outputs": [
        {
          "internalType": "uint256",
          "name": "",
          "type": "uint256"
        }
      ],
      "stateMutability": "view",
      "type": "function"
    },
    {
      "inputs": [
        {
          "internalType": "uint256",
          "name": "",
          "type": "uint256"
        }
      ],
      "name": "strategyWeights",
      "outputs": [
        {
          "internalType": "address",
          "name": "strategy",
          "type": "address"
        },
        {
          "internalType": "uint256",
          "name": "minWeight",
          "type": "uint256"
        },
        {
          "internalType": "uint256",
          "name": "targetWeight",
          "type": "uint256"
        },
        {
          "internalType": "uint256",
          "name": "maxWeight",
          "type": "uint256"
        },
        {
          "internalType": "uint256",
          "name": "riskFactor",
          "type": "uint256"
        },
        {
          "internalType": "bool",
          "name": "enabled",
          "type": "bool"
        },
        {
          "internalType": "bool",
          "name": "enabledReward",
          "type": "bool"
        }
      ],
      "stateMutability": "view",
      "type": "function"
    },
    {
      "inputs": [
        {
          "internalType": "bytes4",
          "name": "interfaceId",
          "type": "bytes4"
        }
      ],
      "name": "supportsInterface",
      "outputs": [
        {
          "internalType": "bool",
          "name": "",
          "type": "bool"
        }
      ],
      "stateMutability": "view",
      "type": "function"
    },
    {
      "inputs": [],
      "name": "totalRiskFactor",
      "outputs": [
        {
          "internalType": "uint256",
          "name": "",
          "type": "uint256"
        }
      ],
      "stateMutability": "view",
      "type": "function"
    },
    {
      "inputs": [
        {
          "internalType": "address",
          "name": "newImplementation",
          "type": "address"
        }
      ],
      "name": "upgradeTo",
      "outputs": [],
      "stateMutability": "nonpayable",
      "type": "function"
    },
    {
      "inputs": [
        {
          "internalType": "address",
          "name": "newImplementation",
          "type": "address"
        },
        {
          "internalType": "bytes",
          "name": "data",
          "type": "bytes"
        }
      ],
      "name": "upgradeToAndCall",
      "outputs": [],
      "stateMutability": "payable",
      "type": "function"
    },
    {
      "inputs": [
        {
          "internalType": "uint256",
          "name": "_amount",
          "type": "uint256"
        }
      ],
      "name": "withdraw",
      "outputs": [
        {
          "internalType": "uint256",
          "name": "",
          "type": "uint256"
        },
        {
          "internalType": "bool",
          "name": "",
          "type": "bool"
        }
      ],
      "stateMutability": "nonpayable",
      "type": "function"
    }
  ],
  "numDeployments": 1,
  "solcInputHash": "a594818f6b57dd6a91a1ebaa495ab092",
  "bytecode": "0x60a0604052306080523480156200001557600080fd5b50600054610100900460ff1615808015620000375750600054600160ff909116105b8062000067575062000054306200014160201b6200260f1760201c565b15801562000067575060005460ff166001145b620000cf5760405162461bcd60e51b815260206004820152602e60248201527f496e697469616c697a61626c653a20636f6e747261637420697320616c72656160448201526d191e481a5b9a5d1a585b1a5e995960921b606482015260840160405180910390fd5b6000805460ff191660011790558015620000f3576000805461ff0019166101001790555b80156200013a576000805461ff0019169055604051600181527f7f26b83ff96e1f2b6a682f133852f6798a09c465da95921460cefb38474024989060200160405180910390a15b5062000150565b6001600160a01b03163b151590565b60805161425762000188600039600081816111de0152818161121e01528181611360015281816113a0015261142f01526142576000f3fe6080604052600436106102245760003560e01c80635dbd733a11610123578063bd0f1053116100ab578063d547741f1161006f578063d547741f146106a3578063da909b09146106c3578063ed2a2f9d146106e3578063f1d588c5146106fa578063f281d4381461071a57600080fd5b8063bd0f105314610617578063c6bbf4cb14610639578063cd3de5d41461064e578063d0d552dd1461066e578063d0e30db01461068e57600080fd5b806391d14854116100f257806391d14854146105965780639b1dcfec146105b6578063a217fddf146105d6578063acffa933146105eb578063b69ef8a81461060257600080fd5b80635dbd733a146104cf57806375e8bdfa146104f15780638129fc1c1461051e5780638e6c8ab31461053357600080fd5b80632f2ff15d116101b15780634953bd07116101755780634953bd07146104515780634d12fca4146104675780634f1ef2861461048757806352d1902d1461049a57806359d57c1a146104af57600080fd5b80632f2ff15d146103b057806336568abe146103d05780633659cfe6146103f057806337044771146104105780633d92c38b1461043057600080fd5b8063175188e8116101f8578063175188e8146102e9578063223e54791461030b578063248a9ca31461032b57806329cb1bee1461035b5780632e1a7d4d1461037b57600080fd5b8062435da51461022957806301ffc9a71461026757806306e739241461029757806311815701146102c4575b600080fd5b34801561023557600080fd5b506101035461024a906001600160a01b031681565b6040516001600160a01b0390911681526020015b60405180910390f35b34801561027357600080fd5b506102876102823660046139d7565b61073c565b604051901515815260200161025e565b3480156102a357600080fd5b506102b76102b2366004613a1d565b610773565b60405161025e9190613a86565b3480156102d057600080fd5b506102db6101025481565b60405190815260200161025e565b3480156102f557600080fd5b50610309610304366004613a1d565b6108f8565b005b34801561031757600080fd5b50610309610326366004613a1d565b610d02565b34801561033757600080fd5b506102db610346366004613a94565b60009081526065602052604090206001015490565b34801561036757600080fd5b5060ff5461024a906001600160a01b031681565b34801561038757600080fd5b5061039b610396366004613a94565b610e44565b6040805192835290151560208301520161025e565b3480156103bc57600080fd5b506103096103cb366004613aad565b61112c565b3480156103dc57600080fd5b506103096103eb366004613aad565b611156565b3480156103fc57600080fd5b5061030961040b366004613a1d565b6111d4565b34801561041c57600080fd5b5061030961042b366004613a1d565b6112b3565b34801561043c57600080fd5b506101005461024a906001600160a01b031681565b34801561045d57600080fd5b50610101546102db565b34801561047357600080fd5b5060fb5461024a906001600160a01b031681565b610309610495366004613b20565b611356565b3480156104a657600080fd5b506102db611422565b3480156104bb57600080fd5b506103096104ca366004613a1d565b6114d5565b3480156104db57600080fd5b506102db6000805160206141bb83398151915281565b3480156104fd57600080fd5b506102db61050c366004613a1d565b60fd6020526000908152604090205481565b34801561052a57600080fd5b506103096117fa565b34801561053f57600080fd5b5061055361054e366004613a94565b61191d565b604080516001600160a01b03909816885260208801969096529486019390935260608501919091526080840152151560a0830152151560c082015260e00161025e565b3480156105a257600080fd5b506102876105b1366004613aad565b611979565b3480156105c257600080fd5b506103096105d1366004613bc6565b6119a4565b3480156105e257600080fd5b506102db600081565b3480156105f757600080fd5b506102db6101015481565b34801561060e57600080fd5b50610309611f88565b34801561062357600080fd5b506102db60008051602061419b83398151915281565b34801561064557600080fd5b50610309612058565b34801561065a57600080fd5b50610309610669366004613a94565b61209e565b34801561067a57600080fd5b50610309610689366004613a1d565b612141565b34801561069a57600080fd5b506103096121dc565b3480156106af57600080fd5b506103096106be366004613aad565b6123c3565b3480156106cf57600080fd5b506103096106de366004613a1d565b6123e8565b3480156106ef57600080fd5b506102db620186a081565b34801561070657600080fd5b50610309610715366004613a1d565b6124c0565b34801561072657600080fd5b5061072f61255c565b60405161025e9190613c3b565b60006001600160e01b03198216637965db0b60e01b148061076d57506301ffc9a760e01b6001600160e01b03198316145b92915050565b6107c06040518060e0016040528060006001600160a01b03168152602001600081526020016000815260200160008152602001600081526020016000151581526020016000151581525090565b60fe5460000361080c5760405162461bcd60e51b815260206004820152601260248201527114dd1c985d1959de481b9bdd08199bdd5b9960721b60448201526064015b60405180910390fd5b6001600160a01b038216600090815260fd602052604081205460fe8054909190811061083a5761083a613c89565b60009182526020918290206040805160e081018252600690930290910180546001600160a01b0390811680855260018301549585019590955260028201549284019290925260038101546060840152600481015460808401526005015460ff808216151560a085015261010090910416151560c083015290925084161461076d5760405162461bcd60e51b815260206004820152601260248201527114dd1c985d1959de481b9bdd08199bdd5b9960721b6044820152606401610803565b610903600033611979565b61091f5760405162461bcd60e51b815260040161080390613c9f565b6001600160a01b038116600090815260fd602052604081205460fe80549192918390811061094f5761094f613c89565b60009182526020918290206040805160e081018252600690930290910180546001600160a01b0390811680855260018301549585019590955260028201549284019290925260038101546060840152600481015460808401526005015460ff808216151560a085015261010090910416151560c0830152909250841614610a185760405162461bcd60e51b815260206004820152601b60248201527f41646472657373207374726174656779206e6f7420657175616c7300000000006044820152606401610803565b604081015115610a6a5760405162461bcd60e51b815260206004820152601760248201527f54617267657420776569676874206d75737420626520300000000000000000006044820152606401610803565b80600001516001600160a01b031663a3673b386040518163ffffffff1660e01b8152600401602060405180830381865afa158015610aac573d6000803e3d6000fd5b505050506040513d601f19601f82011682018060405250810190610ad09190613ccd565b15610b165760405162461bcd60e51b815260206004820152601660248201527505374726174656779206e6176206d75737420626520360541b6044820152606401610803565b815b60fe54610b2790600190613cfc565b811015610c8457600060fe610b3d836001613d0f565b81548110610b4d57610b4d613c89565b60009182526020918290206040805160e081018252600690930290910180546001600160a01b03168352600181015493830193909352600283015490820152600382015460608201526004820154608082015260059091015460ff808216151560a084015261010090910416151560c082015260fe8054919250829184908110610bd957610bd9613c89565b6000918252602080832084516006939093020180546001600160a01b0319166001600160a01b039384161781558482015160018201556040808601516002830155606086015160038301556080860151600483015560a08601516005909201805460c09097015161ffff1990971692151561ff0019169290921761010096151596909602959095179055935116815260fd909252902081905580610c7c81613d22565b915050610b18565b5060fe805480610c9657610c96613d3b565b6000828152602080822060066000199094019384020180546001600160a01b031916815560018101839055600281018390556003810183905560048101839055600501805461ffff19169055919092556001600160a01b0394909416815260fd90935250506040812055565b610d0d600033611979565b610d295760405162461bcd60e51b815260040161080390613c9f565b60005b60fe5460ff82161015610dcb57816001600160a01b031660fe8260ff1681548110610d5957610d59613c89565b60009182526020909120600690910201546001600160a01b031603610db95760405162461bcd60e51b815260206004820152601660248201527514dd1c985d1959de48185b1c9958591e48195e1a5cdd60521b6044820152606401610803565b80610dc381613d51565b915050610d2c565b506040805160e0810182526001600160a01b0383168152600060208201819052918101829052606081018290526080810182905260a0810182905260c0810182905260fe5490919015610e1d575060fe545b610e27828261261e565b90516001600160a01b0316600090815260fd602052604090205550565b600080610e5f60008051602061419b83398151915233611979565b610e7b5760405162461bcd60e51b815260040161080390613d70565b60ff546001600160a01b0316610ecf5760405162461bcd60e51b815260206004820152601960248201527810d85cda081cdd1c985d1959de481b9bdd081cd95d081e595d603a1b6044820152606401610803565b60ff54604080516312bb732d60e11b815290516000926001600160a01b031691632576e65a9160048083019260209291908290030181865afa158015610f19573d6000803e3d6000fd5b505050506040513d601f19601f82011682018060405250810190610f3d9190613ccd565b9050600084821115610fcd5760ff5460fc5460405163f6f6b88160e01b81526001600160a01b039283169263f6f6b88192610f849291169089903090600090600401613da7565b6020604051808303816000875af1158015610fa3573d6000803e3d6000fd5b505050506040513d601f19601f82011682018060405250810190610fc79190613ccd565b50610fe7565b60fc54610fe3906001600160a01b031686612785565b5060015b60fc546040516370a0823160e01b81523060048201526000916001600160a01b0316906370a0823190602401602060405180830381865afa158015611030573d6000803e3d6000fd5b505050506040513d601f19601f820116820180604052508101906110549190613ccd565b9050858110156110a7576110678161307d565b6110708761307d565b604051602001611081929190613df5565b60408051601f198184030181529082905262461bcd60e51b825261080391600401613e7a565b60fc5460fb5460405163a9059cbb60e01b81526001600160a01b0391821660048201526024810189905291169063a9059cbb906044016020604051808303816000875af11580156110fc573d6000803e3d6000fd5b505050506040513d601f19601f820116820180604052508101906111209190613ebb565b50949590945092505050565b60008281526065602052604090206001015461114781613110565b611151838361311a565b505050565b6001600160a01b03811633146111c65760405162461bcd60e51b815260206004820152602f60248201527f416363657373436f6e74726f6c3a2063616e206f6e6c792072656e6f756e636560448201526e103937b632b9903337b91039b2b63360891b6064820152608401610803565b6111d082826131a0565b5050565b6001600160a01b037f000000000000000000000000000000000000000000000000000000000000000016300361121c5760405162461bcd60e51b815260040161080390613ed8565b7f00000000000000000000000000000000000000000000000000000000000000006001600160a01b03166112656000805160206141db833981519152546001600160a01b031690565b6001600160a01b03161461128b5760405162461bcd60e51b815260040161080390613f24565b61129481613207565b604080516000808252602082019092526112b091839190613212565b50565b6112be600033611979565b6112da5760405162461bcd60e51b815260040161080390613c9f565b6001600160a01b0381166113005760405162461bcd60e51b815260040161080390613f70565b61010080546001600160a01b0319166001600160a01b0383169081179091556040519081527f2387291c358bb5414b9fdcdfeb40efddb696908065a6533e47bf60b395f7dcfd906020015b60405180910390a150565b6001600160a01b037f000000000000000000000000000000000000000000000000000000000000000016300361139e5760405162461bcd60e51b815260040161080390613ed8565b7f00000000000000000000000000000000000000000000000000000000000000006001600160a01b03166113e76000805160206141db833981519152546001600160a01b031690565b6001600160a01b03161461140d5760405162461bcd60e51b815260040161080390613f24565b61141682613207565b6111d082826001613212565b6000306001600160a01b037f000000000000000000000000000000000000000000000000000000000000000016146114c25760405162461bcd60e51b815260206004820152603860248201527f555550535570677261646561626c653a206d757374206e6f742062652063616c60448201527f6c6564207468726f7567682064656c656761746563616c6c00000000000000006064820152608401610803565b506000805160206141db83398151915290565b6114e0600033611979565b6114fc5760405162461bcd60e51b815260040161080390613c9f565b6001600160a01b0381166115225760405162461bcd60e51b815260040161080390613f70565b60ff546001600160a01b0390811690821603611571576040516001600160a01b03821681527f47ffb57d9975263bcf9c547a81d76b51e81fd87f6a69b8189e744921dda0005c9060200161134b565b60ff546001600160a01b0316158015906116065760ff5460fc5460405163f6f6b88160e01b81526001600160a01b039283169263f6f6b881926115c1929116906000903090600190600401613da7565b6020604051808303816000875af11580156115e0573d6000803e3d6000fd5b505050506040513d601f19601f820116820180604052508101906116049190613ccd565b505b60ff80546001600160a01b0319166001600160a01b03841617905580156117ba5760fc546040516370a0823160e01b81523060048201526000916001600160a01b0316906370a0823190602401602060405180830381865afa158015611670573d6000803e3d6000fd5b505050506040513d601f19601f820116820180604052508101906116949190613ccd565b905080156117b85760fc5460ff5460405163a9059cbb60e01b81526001600160a01b0391821660048201526024810184905291169063a9059cbb906044016020604051808303816000875af11580156116f1573d6000803e3d6000fd5b505050506040513d601f19601f820116820180604052508101906117159190613ebb565b5060ff5460fc546040516356e4bb9760e11b81526001600160a01b0391821660048201526024810184905291169063adc9772e90604401600060405180830381600087803b15801561176657600080fd5b505af115801561177a573d6000803e3d6000fd5b505050507f0eab4ceb0e0bf74211211d85efd51fec6d84d5ce7719dd107af8818194bcd97f816040516117af91815260200190565b60405180910390a15b505b6040516001600160a01b03831681527fd82ec5aca3f5d594d6f9a7d8a97e332f1e6319efddf9b0bf445d87348ac4b0e39060200160405180910390a15050565b600054610100900460ff161580801561181a5750600054600160ff909116105b806118345750303b158015611834575060005460ff166001145b6118975760405162461bcd60e51b815260206004820152602e60248201527f496e697469616c697a61626c653a20636f6e747261637420697320616c72656160448201526d191e481a5b9a5d1a585b1a5e995960921b6064820152608401610803565b6000805460ff1916600117905580156118ba576000805461ff0019166101001790555b6118c261337d565b6118ca61337d565b6118d560003361311a565b60046101025580156112b0576000805461ff0019169055604051600181527f7f26b83ff96e1f2b6a682f133852f6798a09c465da95921460cefb38474024989060200161134b565b60fe818154811061192d57600080fd5b60009182526020909120600690910201805460018201546002830154600384015460048501546005909501546001600160a01b0390941695509193909260ff8082169161010090041687565b60009182526065602090815260408084206001600160a01b0393909316845291905290205460ff1690565b61010354604051632474521560e21b81526000805160206141bb83398151915260048201523360248201526001600160a01b03909116906391d1485490604401602060405180830381865afa158015611a01573d6000803e3d6000fd5b505050506040513d601f19601f82011682018060405250810190611a259190613ebb565b611a415760405162461bcd60e51b815260040161080390613fa7565b60fe548114611a925760405162461bcd60e51b815260206004820152601a60248201527f57726f6e67206e756d626572206f6620737472617465676965730000000000006044820152606401610803565b60fe54600090819067ffffffffffffffff811115611ab257611ab2613ad9565b604051908082528060200260200182016040528015611adb578160200160208202803683370190505b5090506000805b60ff8116851115611ee357600086868360ff16818110611b0457611b04613c89565b905060e00201803603810190611b1a9190613fde565b80516001600160a01b0316600090815260fd6020526040902054855191925090859082908110611b4c57611b4c613c89565b602002602001015115156001151503611b9e5760405162461bcd60e51b815260206004820152601460248201527314dd1c985d1959de481dd85cc81d5c19185d195960621b6044820152606401610803565b600060fe8281548110611bb357611bb3613c89565b60009182526020918290206040805160e081018252600690930290910180546001600160a01b0390811680855260018301549585019590955260028201549284019290925260038101546060840152600481015460808401526005015460ff808216151560a085015261010090910416151560c083015285519193501614611c7d5760405162461bcd60e51b815260206004820152601860248201527f496e636f727265637420737472617465677920696e64657800000000000000006044820152606401610803565b826040015183602001511115611cea5760405162461bcd60e51b815260206004820152602c60248201527f6d696e5765696768742073686f756c646e277420686967686572207468616e2060448201526b1d185c99d95d15d95a59da1d60a21b6064820152608401610803565b826060015183604001511115611d575760405162461bcd60e51b815260206004820152602c60248201527f7461726765745765696768742073686f756c646e27742068696768657220746860448201526b185b881b585e15d95a59da1d60a21b6064820152608401610803565b6040830151611d669088613d0f565b96508260fe8381548110611d7c57611d7c613c89565b600091825260209182902083516006929092020180546001600160a01b0319166001600160a01b039092169190911781559082015160018083019190915560408301516002830155606083015160038301556080830151600483015560a08301516005909201805460c09094015161ffff1990941692151561ff00191692909217610100931515939093029290921790558651879084908110611e2157611e21613c89565b6020026020010190151590811515815250506103e8836040015160648560800151611e4c9190614076565b611e569190614098565b611e609190614076565b611e6a9086613d0f565b94507fc7d6a10819f5d6f3fd2acf9d38519fb9ca604adcf565d719841b60c161c6730182846000015185602001518660400151876060015188608001518960a001518a60c00151604051611ec59897969594939291906140af565b60405180910390a15050508080611edb90613d51565b915050611ae2565b50620186a08314611f485760405162461bcd60e51b815260206004820152602960248201527f546f74616c207461726765742073686f756c6420657175616c20746f20544f54604482015268105317d5d15251d21560ba1b6064820152608401610803565b6101018190556040518181527fe2ee1ef0b4d76337ccec0a920efb7ded63e020263ae1dc0a23754194693d62699060200160405180910390a15050505050565b61010354604051632474521560e21b81526000805160206141bb83398151915260048201523360248201526001600160a01b03909116906391d1485490604401602060405180830381865afa158015611fe5573d6000803e3d6000fd5b505050506040513d601f19601f820116820180604052508101906120099190613ebb565b6120255760405162461bcd60e51b815260040161080390613fa7565b61202d6133e8565b6040517f0ef67887023bd7b8411cf35c89d19498bc1c980684932ef5f5b0559bfac80d9a90600090a1565b61207060008051602061419b83398151915233611979565b61208c5760405162461bcd60e51b815260040161080390613d70565b6120946133f3565b61209c6133e8565b565b61010354604051632474521560e21b81526000805160206141bb83398151915260048201523360248201526001600160a01b03909116906391d1485490604401602060405180830381865afa1580156120fb573d6000803e3d6000fd5b505050506040513d601f19601f8201168201806040525081019061211f9190613ebb565b61213b5760405162461bcd60e51b815260040161080390613fa7565b61010255565b61214c600033611979565b6121685760405162461bcd60e51b815260040161080390613c9f565b6001600160a01b03811661218e5760405162461bcd60e51b815260040161080390613f70565b60fc80546001600160a01b0319166001600160a01b0383169081179091556040519081527f80758ef37af3558d372b5a6b2d6906a49e09a13921e7de88ad18525a6f6d5a9a9060200161134b565b6121f460008051602061419b83398151915233611979565b6122105760405162461bcd60e51b815260040161080390613d70565b60ff546001600160a01b03166122645760405162461bcd60e51b815260206004820152601960248201527810d85cda081cdd1c985d1959de481b9bdd081cd95d081e595d603a1b6044820152606401610803565b60fc546040516370a0823160e01b81523060048201526000916001600160a01b0316906370a0823190602401602060405180830381865afa1580156122ad573d6000803e3d6000fd5b505050506040513d601f19601f820116820180604052508101906122d19190613ccd565b9050806000036122de5750565b60fc5460ff5460405163a9059cbb60e01b81526001600160a01b0391821660048201526024810184905291169063a9059cbb906044016020604051808303816000875af1158015612333573d6000803e3d6000fd5b505050506040513d601f19601f820116820180604052508101906123579190613ebb565b5060ff5460fc546040516356e4bb9760e11b81526001600160a01b0391821660048201526024810184905291169063adc9772e90604401600060405180830381600087803b1580156123a857600080fd5b505af11580156123bc573d6000803e3d6000fd5b5050505050565b6000828152606560205260409020600101546123de81613110565b61115183836131a0565b6123f3600033611979565b61240f5760405162461bcd60e51b815260040161080390613c9f565b6001600160a01b0381166124355760405162461bcd60e51b815260040161080390613f70565b60fb5461245a9060008051602061419b833981519152906001600160a01b03166123c3565b61247260008051602061419b8339815191528261112c565b60fb80546001600160a01b0319166001600160a01b0383169081179091556040519081527f1af34e943bb581f62718acd39caf1a640e9ff89789a197745e259d1f40cd9bd69060200161134b565b6124cb600033611979565b6124e75760405162461bcd60e51b815260040161080390613c9f565b6001600160a01b03811661250d5760405162461bcd60e51b815260040161080390613f70565b61010380546001600160a01b0319166001600160a01b0383169081179091556040519081527f5a7ef52f6714a981ffe676ce3c4a14db59929bd3f8ca82bb6cf9e230fa8a50c99060200161134b565b606060fe805480602002602001604051908101604052809291908181526020016000905b828210156126065760008481526020908190206040805160e0810182526006860290920180546001600160a01b031683526001808201548486015260028201549284019290925260038101546060840152600481015460808401526005015460ff808216151560a085015261010090910416151560c08301529083529092019101612580565b50505050905090565b6001600160a01b03163b151590565b60fe54801580612637575081612635600183613cfc565b105b156126845760006126488284613cfc565b612653906001613d0f565b905060005b818160ff1610156126815760fe805460010181556000528061267981613d51565b915050612658565b50505b8260fe838154811061269857612698613c89565b6000918252602091829020835160069092020180546001600160a01b039092166001600160a01b031990921691909117815582820151600182015560408084015160028301556060808501516003840155608080860151600485015560a0808701516005909501805460c09889015115156101000261ff00199715159790971661ffff19909116179590951790945588519489015189840151928a0151918a0151948a0151968a015193517fc7d6a10819f5d6f3fd2acf9d38519fb9ca604adcf565d719841b60c161c6730197612778978b9790969395949390926140af565b60405180910390a1505050565b600061280b61010060009054906101000a90046001600160a01b03166001600160a01b031663890a8c4f6040518163ffffffff1660e01b8152600401602060405180830381865afa1580156127de573d6000803e3d6000fd5b505050506040513d601f19601f820116820180604052508101906128029190613ccd565b610102546134bb565b90506128178282613cfc565b9050600061282361255c565b60fc546040516370a0823160e01b81523060048201529192506000916001600160a01b03909116906370a0823190602401602060405180830381865afa158015612871573d6000803e3d6000fd5b505050506040513d601f19601f820116820180604052508101906128959190613ccd565b90506000805b83518160ff161015612a7257838160ff16815181106128bc576128bc613c89565b602002602001015160a0015115612a6057838160ff16815181106128e2576128e2613c89565b6020026020010151604001516000036129a357838160ff168151811061290a5761290a613c89565b60209081029190910101515160fc5460405163f6f6b88160e01b81526001600160a01b039283169263f6f6b8819261294f929116906000903090600190600401613da7565b6020604051808303816000875af115801561296e573d6000803e3d6000fd5b505050506040513d601f19601f820116820180604052508101906129929190613ccd565b61299c9084613d0f565b9250612a60565b838160ff16815181106129b8576129b8613c89565b6020026020010151600001516001600160a01b031663a3673b386040518163ffffffff1660e01b8152600401602060405180830381865afa158015612a01573d6000803e3d6000fd5b505050506040513d601f19601f82011682018060405250810190612a259190613ccd565b612a2f9084613d0f565b9250838160ff1681518110612a4657612a46613c89565b60200260200101516040015182612a5d9190613d0f565b91505b80612a6a81613d51565b91505061289b565b5060fc546001600160a01b0390811690871603612afc5784821015612aef5760405162461bcd60e51b815260206004820152602d60248201527f547279696e67207769746864726177206d6f7265207468616e206c697175696460448201526c69747920617661696c61626c6560981b6064820152608401610803565b612af98583613cfc565b91505b6000835167ffffffffffffffff811115612b1857612b18613ad9565b604051908082528060200260200182016040528015612b6357816020015b6040805160608101825260008082526020808301829052928201528252600019909201910181612b365790505b5090506000805b85518160ff161015612de657858160ff1681518110612b8b57612b8b613c89565b602002602001015160a0015115612dd4576000868260ff1681518110612bb357612bb3613c89565b602002602001015160400151600003612bce57506000612c08565b84878360ff1681518110612be457612be4613c89565b60200260200101516040015187612bfb9190614098565b612c059190614076565b90505b6000878360ff1681518110612c1f57612c1f613c89565b6020026020010151600001516001600160a01b031663a3673b386040518163ffffffff1660e01b8152600401602060405180830381865afa158015612c68573d6000803e3d6000fd5b505050506040513d601f19601f82011682018060405250810190612c8c9190613ccd565b9050808203612c9c575050612dd4565b80821015612d5057878360ff1681518110612cb957612cb9613c89565b60209081029190910101515160fc546001600160a01b039182169163f6f6b8819116612ce58585613cfc565b3060006040518563ffffffff1660e01b8152600401612d079493929190613da7565b6020604051808303816000875af1158015612d26573d6000803e3d6000fd5b505050506040513d601f19601f82011682018060405250810190612d4a9190613ccd565b50612dd1565b6040518060600160405280600115158152602001898560ff1681518110612d7957612d79613c89565b6020026020010151600001516001600160a01b031681526020018284612d9f9190613cfc565b815250858560ff1681518110612db757612db7613c89565b60200260200101819052508380612dcd90613d51565b9450505b50505b80612dde81613d51565b915050612b6a565b5060005b8160ff168160ff161015612fb6576000838260ff1681518110612e0f57612e0f613c89565b60200260200101516020015190506000848360ff1681518110612e3457612e34613c89565b602090810291909101015160409081015160fc5491516370a0823160e01b81523060048201529092506000916001600160a01b0316906370a0823190602401602060405180830381865afa158015612e90573d6000803e3d6000fd5b505050506040513d601f19601f82011682018060405250810190612eb49190613ccd565b905081811015612ec2578091505b60fc5460405163a9059cbb60e01b81526001600160a01b038581166004830152602482018590529091169063a9059cbb906044016020604051808303816000875af1158015612f15573d6000803e3d6000fd5b505050506040513d601f19601f82011682018060405250810190612f399190613ebb565b5060fc546040516356e4bb9760e11b81526001600160a01b039182166004820152602481018490529084169063adc9772e90604401600060405180830381600087803b158015612f8857600080fd5b505af1158015612f9c573d6000803e3d6000fd5b505050505050508080612fae90613d51565b915050612dea565b50610100546040805163890a8c4f60e01b8152905188926001600160a01b03169163890a8c4f9160048083019260209291908290030181865afa158015613001573d6000803e3d6000fd5b505050506040513d601f19601f820116820180604052508101906130259190613ccd565b10156130735760405162461bcd60e51b815260206004820152601a60248201527f504d3a204e4156206c657373207468616e2065787065637465640000000000006044820152606401610803565b5050505050505050565b6060600061308a836134e5565b600101905060008167ffffffffffffffff8111156130aa576130aa613ad9565b6040519080825280601f01601f1916602001820160405280156130d4576020820181803683370190505b5090508181016020015b600019016f181899199a1a9b1b9c1cb0b131b232b360811b600a86061a8153600a85049450846130de57509392505050565b6112b081336135bd565b6131248282611979565b6111d05760008281526065602090815260408083206001600160a01b03851684529091529020805460ff1916600117905561315c3390565b6001600160a01b0316816001600160a01b0316837f2f8788117e7eff1d82e926ec794901d17c78024a50270940304540a733656f0d60405160405180910390a45050565b6131aa8282611979565b156111d05760008281526065602090815260408083206001600160a01b0385168085529252808320805460ff1916905551339285917ff6391f5c32d9c69d2a47ea670b442974b53935d1edc7fd64eb21e047a839171b9190a45050565b60006111d081613110565b7f4910fdfa16fed3260ed0e7147f7cc6da11a60208b5b9406d12a635614ffd91435460ff161561324557611151836135f0565b826001600160a01b03166352d1902d6040518163ffffffff1660e01b8152600401602060405180830381865afa92505050801561329f575060408051601f3d908101601f1916820190925261329c91810190613ccd565b60015b6133025760405162461bcd60e51b815260206004820152602e60248201527f45524331393637557067726164653a206e657720696d706c656d656e7461746960448201526d6f6e206973206e6f74205555505360901b6064820152608401610803565b6000805160206141db83398151915281146133715760405162461bcd60e51b815260206004820152602960248201527f45524331393637557067726164653a20756e737570706f727465642070726f786044820152681a58589b195555525160ba1b6064820152608401610803565b5061115183838361368c565b600054610100900460ff1661209c5760405162461bcd60e51b815260206004820152602b60248201527f496e697469616c697a61626c653a20636f6e7472616374206973206e6f74206960448201526a6e697469616c697a696e6760a81b6064820152608401610803565b61209c600080612785565b60006133fd61255c565b905060005b81518160ff1610156111d0576000828260ff168151811061342557613425613c89565b602002602001015190508060c00151156134a8578051604051633bd73ee360e21b81523060048201526001600160a01b039091169063ef5cfb8c906024016020604051808303816000875af1158015613482573d6000803e3d6000fd5b505050506040513d601f19601f820116820180604052508101906134a69190613ccd565b505b50806134b381613d51565b915050613402565b60006127106134ca8382613cfc565b6134d49085614098565b6134de9190614076565b9392505050565b60008072184f03e93ff9f4daa797ed6e38ed64bf6a1f0160401b83106135245772184f03e93ff9f4daa797ed6e38ed64bf6a1f0160401b830492506040015b6d04ee2d6d415b85acef81000000008310613550576d04ee2d6d415b85acef8100000000830492506020015b662386f26fc10000831061356e57662386f26fc10000830492506010015b6305f5e1008310613586576305f5e100830492506008015b612710831061359a57612710830492506004015b606483106135ac576064830492506002015b600a831061076d5760010192915050565b6135c78282611979565b6111d0576135d4816136b7565b6135df8360206136c9565b6040516020016110819291906140f2565b6001600160a01b0381163b61365d5760405162461bcd60e51b815260206004820152602d60248201527f455243313936373a206e657720696d706c656d656e746174696f6e206973206e60448201526c1bdd08184818dbdb9d1c9858dd609a1b6064820152608401610803565b6000805160206141db83398151915280546001600160a01b0319166001600160a01b0392909216919091179055565b61369583613865565b6000825111806136a25750805b15611151576136b183836138a5565b50505050565b606061076d6001600160a01b03831660145b606060006136d8836002614098565b6136e3906002613d0f565b67ffffffffffffffff8111156136fb576136fb613ad9565b6040519080825280601f01601f191660200182016040528015613725576020820181803683370190505b509050600360fc1b8160008151811061374057613740613c89565b60200101906001600160f81b031916908160001a905350600f60fb1b8160018151811061376f5761376f613c89565b60200101906001600160f81b031916908160001a9053506000613793846002614098565b61379e906001613d0f565b90505b6001811115613816576f181899199a1a9b1b9c1cb0b131b232b360811b85600f16601081106137d2576137d2613c89565b1a60f81b8282815181106137e8576137e8613c89565b60200101906001600160f81b031916908160001a90535060049490941c9361380f81614167565b90506137a1565b5083156134de5760405162461bcd60e51b815260206004820181905260248201527f537472696e67733a20686578206c656e67746820696e73756666696369656e746044820152606401610803565b61386e816135f0565b6040516001600160a01b038216907fbc7cd75a20ee27fd9adebab32041f755214dbc6bffa90cc0225b39da2e5c2d3b90600090a250565b60606001600160a01b0383163b61390d5760405162461bcd60e51b815260206004820152602660248201527f416464726573733a2064656c65676174652063616c6c20746f206e6f6e2d636f6044820152651b9d1c9858dd60d21b6064820152608401610803565b600080846001600160a01b031684604051613928919061417e565b600060405180830381855af49150503d8060008114613963576040519150601f19603f3d011682016040523d82523d6000602084013e613968565b606091505b509150915061399082826040518060600160405280602781526020016141fb60279139613999565b95945050505050565b606083156139a85750816134de565b6134de83838151156139bd5781518083602001fd5b8060405162461bcd60e51b81526004016108039190613e7a565b6000602082840312156139e957600080fd5b81356001600160e01b0319811681146134de57600080fd5b80356001600160a01b0381168114613a1857600080fd5b919050565b600060208284031215613a2f57600080fd5b6134de82613a01565b80516001600160a01b031682526020808201519083015260408082015190830152606080820151908301526080808201519083015260a08181015115159083015260c0908101511515910152565b60e0810161076d8284613a38565b600060208284031215613aa657600080fd5b5035919050565b60008060408385031215613ac057600080fd5b82359150613ad060208401613a01565b90509250929050565b634e487b7160e01b600052604160045260246000fd5b604051601f8201601f1916810167ffffffffffffffff81118282101715613b1857613b18613ad9565b604052919050565b60008060408385031215613b3357600080fd5b613b3c83613a01565b915060208084013567ffffffffffffffff80821115613b5a57600080fd5b818601915086601f830112613b6e57600080fd5b813581811115613b8057613b80613ad9565b613b92601f8201601f19168501613aef565b91508082528784828501011115613ba857600080fd5b80848401858401376000848284010152508093505050509250929050565b60008060208385031215613bd957600080fd5b823567ffffffffffffffff80821115613bf157600080fd5b818501915085601f830112613c0557600080fd5b813581811115613c1457600080fd5b86602060e083028501011115613c2957600080fd5b60209290920196919550909350505050565b6020808252825182820181905260009190848201906040850190845b81811015613c7d57613c6a838551613a38565b9284019260e09290920191600101613c57565b50909695505050505050565b634e487b7160e01b600052603260045260246000fd5b6020808252601490820152735265737472696374656420746f2061646d696e7360601b604082015260600190565b600060208284031215613cdf57600080fd5b5051919050565b634e487b7160e01b600052601160045260246000fd5b8181038181111561076d5761076d613ce6565b8082018082111561076d5761076d613ce6565b600060018201613d3457613d34613ce6565b5060010190565b634e487b7160e01b600052603160045260246000fd5b600060ff821660ff8103613d6757613d67613ce6565b60010192915050565b6020808252601b908201527f43616c6c6572206973206e6f74207468652045584348414e4745520000000000604082015260600190565b6001600160a01b039485168152602081019390935292166040820152901515606082015260800190565b60005b83811015613dec578181015183820152602001613dd4565b50506000910152565b7f496e20706f7274666f6c696f4d616e61676572206e6f7420656e6f7567682066815274037b9103a3930b739b332b9102fb0b6b7bab73a1d1605d1b602082015260008351613e4b816035850160208801613dd1565b620101e160ed1b6035918401918201528351613e6e816038840160208801613dd1565b01603801949350505050565b6020815260008251806020840152613e99816040850160208701613dd1565b601f01601f19169190910160400192915050565b80151581146112b057600080fd5b600060208284031215613ecd57600080fd5b81516134de81613ead565b6020808252602c908201527f46756e6374696f6e206d7573742062652063616c6c6564207468726f7567682060408201526b19195b1959d85d1958d85b1b60a21b606082015260800190565b6020808252602c908201527f46756e6374696f6e206d7573742062652063616c6c6564207468726f7567682060408201526b6163746976652070726f787960a01b606082015260800190565b60208082526018908201527f5a65726f2061646472657373206e6f7420616c6c6f7765640000000000000000604082015260600190565b6020808252601d908201527f5265737472696374656420746f20506f7274666f6c696f204167656e74000000604082015260600190565b600060e08284031215613ff057600080fd5b60405160e0810181811067ffffffffffffffff8211171561401357614013613ad9565b60405261401f83613a01565b81526020830135602082015260408301356040820152606083013560608201526080830135608082015260a083013561405781613ead565b60a082015260c083013561406a81613ead565b60c08201529392505050565b60008261409357634e487b7160e01b600052601260045260246000fd5b500490565b808202811582820484141761076d5761076d613ce6565b9788526001600160a01b0396909616602088015260408701949094526060860192909252608085015260a0840152151560c0830152151560e08201526101000190565b7f416363657373436f6e74726f6c3a206163636f756e742000000000000000000081526000835161412a816017850160208801613dd1565b7001034b99036b4b9b9b4b733903937b6329607d1b601791840191820152835161415b816028840160208801613dd1565b01602801949350505050565b60008161417657614176613ce6565b506000190190565b60008251614190818460208701613dd1565b919091019291505056fe3eb675f159e6ca6cf5de6bfbbc8c4521cfd428f5e9166e51094d5898504caf2dd67ad422505496469a1adf6cdf9e5ee92ac5d33992843c9ecc4b2f6d6cde9137360894a13ba1a3210667c828492db98dca3e2076cc3735a920a3ca505d382bbc416464726573733a206c6f772d6c6576656c2064656c65676174652063616c6c206661696c6564a26469706673582212209f47f757e45343aefd0c78ae9b560a2a9921f6883aa9afabb7a599209bfc668764736f6c63430008110033",
  "implementation": "0x9451f7E4c55b3Ba4B0f0150209D8e3F35a64385F",
  "devdoc": {
    "kind": "dev",
    "methods": {
      "constructor": {
        "custom:oz-upgrades-unsafe-allow": "constructor"
      },
      "getRoleAdmin(bytes32)": {
        "details": "Returns the admin role that controls `role`. See {grantRole} and {revokeRole}. To change a role's admin, use {_setRoleAdmin}."
      },
      "grantRole(bytes32,address)": {
        "details": "Grants `role` to `account`. If `account` had not been already granted `role`, emits a {RoleGranted} event. Requirements: - the caller must have ``role``'s admin role. May emit a {RoleGranted} event."
      },
      "hasRole(bytes32,address)": {
        "details": "Returns `true` if `account` has been granted `role`."
      },
      "proxiableUUID()": {
        "details": "Implementation of the ERC1822 {proxiableUUID} function. This returns the storage slot used by the implementation. It is used to validate the implementation's compatibility when performing an upgrade. IMPORTANT: A proxy pointing at a proxiable contract should not be considered proxiable itself, because this risks bricking a proxy that upgrades to it, by delegating to itself until out of gas. Thus it is critical that this function revert if invoked through a proxy. This is guaranteed by the `notDelegated` modifier."
      },
      "renounceRole(bytes32,address)": {
        "details": "Revokes `role` from the calling account. Roles are often managed via {grantRole} and {revokeRole}: this function's purpose is to provide a mechanism for accounts to lose their privileges if they are compromised (such as when a trusted device is misplaced). If the calling account had been revoked `role`, emits a {RoleRevoked} event. Requirements: - the caller must be `account`. May emit a {RoleRevoked} event."
      },
      "revokeRole(bytes32,address)": {
        "details": "Revokes `role` from `account`. If `account` had been granted `role`, emits a {RoleRevoked} event. Requirements: - the caller must have ``role``'s admin role. May emit a {RoleRevoked} event."
      },
      "supportsInterface(bytes4)": {
        "details": "See {IERC165-supportsInterface}."
      },
      "upgradeTo(address)": {
        "details": "Upgrade the implementation of the proxy to `newImplementation`. Calls {_authorizeUpgrade}. Emits an {Upgraded} event."
      },
      "upgradeToAndCall(address,bytes)": {
        "details": "Upgrade the implementation of the proxy to `newImplementation`, and subsequently execute the function call encoded in `data`. Calls {_authorizeUpgrade}. Emits an {Upgraded} event."
      },
      "withdraw(uint256)": {
        "details": "Withdraw target amount assets from strategies Send amount to Exchanger",
        "returns": {
          "_0": "- how much PortfolioManager unstake from strategies",
          "_1": "- executed or not balance function on PortfolioManager"
        }
      }
    },
    "version": 1
  },
  "userdoc": {
    "kind": "user",
    "methods": {},
    "version": 1
  },
  "storageLayout": {
    "storage": [
      {
        "astId": 974,
        "contract": "contracts/PortfolioManager.sol:PortfolioManager",
        "label": "_initialized",
        "offset": 0,
        "slot": "0",
        "type": "t_uint8"
      },
      {
        "astId": 977,
        "contract": "contracts/PortfolioManager.sol:PortfolioManager",
        "label": "_initializing",
        "offset": 1,
        "slot": "0",
        "type": "t_bool"
      },
      {
        "astId": 1827,
        "contract": "contracts/PortfolioManager.sol:PortfolioManager",
        "label": "__gap",
        "offset": 0,
        "slot": "1",
        "type": "t_array(t_uint256)50_storage"
      },
      {
        "astId": 2106,
        "contract": "contracts/PortfolioManager.sol:PortfolioManager",
        "label": "__gap",
        "offset": 0,
        "slot": "51",
        "type": "t_array(t_uint256)50_storage"
      },
      {
        "astId": 184,
        "contract": "contracts/PortfolioManager.sol:PortfolioManager",
        "label": "_roles",
        "offset": 0,
        "slot": "101",
        "type": "t_mapping(t_bytes32,t_struct(RoleData)179_storage)"
      },
      {
        "astId": 479,
        "contract": "contracts/PortfolioManager.sol:PortfolioManager",
        "label": "__gap",
        "offset": 0,
        "slot": "102",
        "type": "t_array(t_uint256)49_storage"
      },
      {
        "astId": 956,
        "contract": "contracts/PortfolioManager.sol:PortfolioManager",
        "label": "__gap",
        "offset": 0,
        "slot": "151",
        "type": "t_array(t_uint256)50_storage"
      },
      {
        "astId": 1271,
        "contract": "contracts/PortfolioManager.sol:PortfolioManager",
        "label": "__gap",
        "offset": 0,
        "slot": "201",
        "type": "t_array(t_uint256)50_storage"
      },
      {
        "astId": 23225,
        "contract": "contracts/PortfolioManager.sol:PortfolioManager",
        "label": "exchanger",
        "offset": 0,
        "slot": "251",
        "type": "t_address"
      },
      {
        "astId": 23228,
        "contract": "contracts/PortfolioManager.sol:PortfolioManager",
        "label": "asset",
        "offset": 0,
        "slot": "252",
        "type": "t_contract(IERC20)4652"
      },
      {
        "astId": 23232,
        "contract": "contracts/PortfolioManager.sol:PortfolioManager",
        "label": "strategyWeightPositions",
        "offset": 0,
        "slot": "253",
        "type": "t_mapping(t_address,t_uint256)"
      },
      {
        "astId": 23236,
        "contract": "contracts/PortfolioManager.sol:PortfolioManager",
        "label": "strategyWeights",
        "offset": 0,
        "slot": "254",
        "type": "t_array(t_struct(StrategyWeight)33625_storage)dyn_storage"
      },
      {
        "astId": 23239,
        "contract": "contracts/PortfolioManager.sol:PortfolioManager",
        "label": "cashStrategy",
        "offset": 0,
        "slot": "255",
        "type": "t_contract(IStrategy)34011"
      },
      {
        "astId": 23242,
        "contract": "contracts/PortfolioManager.sol:PortfolioManager",
        "label": "m2m",
        "offset": 0,
        "slot": "256",
        "type": "t_contract(IMark2Market)33573"
      },
      {
        "astId": 23244,
        "contract": "contracts/PortfolioManager.sol:PortfolioManager",
        "label": "totalRiskFactor",
        "offset": 0,
        "slot": "257",
        "type": "t_uint256"
      },
      {
        "astId": 23246,
        "contract": "contracts/PortfolioManager.sol:PortfolioManager",
        "label": "navSlippageBp",
        "offset": 0,
        "slot": "258",
        "type": "t_uint256"
      },
      {
        "astId": 23249,
        "contract": "contracts/PortfolioManager.sol:PortfolioManager",
        "label": "roleManager",
        "offset": 0,
        "slot": "259",
        "type": "t_contract(IRoleManager)33848"
      }
    ],
    "types": {
      "t_address": {
        "encoding": "inplace",
        "label": "address",
        "numberOfBytes": "20"
      },
      "t_array(t_struct(StrategyWeight)33625_storage)dyn_storage": {
        "base": "t_struct(StrategyWeight)33625_storage",
        "encoding": "dynamic_array",
        "label": "struct IPortfolioManager.StrategyWeight[]",
        "numberOfBytes": "32"
      },
      "t_array(t_uint256)49_storage": {
        "base": "t_uint256",
        "encoding": "inplace",
        "label": "uint256[49]",
        "numberOfBytes": "1568"
      },
      "t_array(t_uint256)50_storage": {
        "base": "t_uint256",
        "encoding": "inplace",
        "label": "uint256[50]",
        "numberOfBytes": "1600"
      },
      "t_bool": {
        "encoding": "inplace",
        "label": "bool",
        "numberOfBytes": "1"
      },
      "t_bytes32": {
        "encoding": "inplace",
        "label": "bytes32",
        "numberOfBytes": "32"
      },
      "t_contract(IERC20)4652": {
        "encoding": "inplace",
        "label": "contract IERC20",
        "numberOfBytes": "20"
      },
      "t_contract(IMark2Market)33573": {
        "encoding": "inplace",
        "label": "contract IMark2Market",
        "numberOfBytes": "20"
      },
      "t_contract(IRoleManager)33848": {
        "encoding": "inplace",
        "label": "contract IRoleManager",
        "numberOfBytes": "20"
      },
      "t_contract(IStrategy)34011": {
        "encoding": "inplace",
        "label": "contract IStrategy",
        "numberOfBytes": "20"
      },
      "t_mapping(t_address,t_bool)": {
        "encoding": "mapping",
        "key": "t_address",
        "label": "mapping(address => bool)",
        "numberOfBytes": "32",
        "value": "t_bool"
      },
      "t_mapping(t_address,t_uint256)": {
        "encoding": "mapping",
        "key": "t_address",
        "label": "mapping(address => uint256)",
        "numberOfBytes": "32",
        "value": "t_uint256"
      },
      "t_mapping(t_bytes32,t_struct(RoleData)179_storage)": {
        "encoding": "mapping",
        "key": "t_bytes32",
        "label": "mapping(bytes32 => struct AccessControlUpgradeable.RoleData)",
        "numberOfBytes": "32",
        "value": "t_struct(RoleData)179_storage"
      },
      "t_struct(RoleData)179_storage": {
        "encoding": "inplace",
        "label": "struct AccessControlUpgradeable.RoleData",
        "members": [
          {
            "astId": 176,
            "contract": "contracts/PortfolioManager.sol:PortfolioManager",
            "label": "members",
            "offset": 0,
            "slot": "0",
            "type": "t_mapping(t_address,t_bool)"
          },
          {
            "astId": 178,
            "contract": "contracts/PortfolioManager.sol:PortfolioManager",
            "label": "adminRole",
            "offset": 0,
            "slot": "1",
            "type": "t_bytes32"
          }
        ],
        "numberOfBytes": "64"
      },
      "t_struct(StrategyWeight)33625_storage": {
        "encoding": "inplace",
        "label": "struct IPortfolioManager.StrategyWeight",
        "members": [
          {
            "astId": 33612,
            "contract": "contracts/PortfolioManager.sol:PortfolioManager",
            "label": "strategy",
            "offset": 0,
            "slot": "0",
            "type": "t_address"
          },
          {
            "astId": 33614,
            "contract": "contracts/PortfolioManager.sol:PortfolioManager",
            "label": "minWeight",
            "offset": 0,
            "slot": "1",
            "type": "t_uint256"
          },
          {
            "astId": 33616,
            "contract": "contracts/PortfolioManager.sol:PortfolioManager",
            "label": "targetWeight",
            "offset": 0,
            "slot": "2",
            "type": "t_uint256"
          },
          {
            "astId": 33618,
            "contract": "contracts/PortfolioManager.sol:PortfolioManager",
            "label": "maxWeight",
            "offset": 0,
            "slot": "3",
            "type": "t_uint256"
          },
          {
            "astId": 33620,
            "contract": "contracts/PortfolioManager.sol:PortfolioManager",
            "label": "riskFactor",
            "offset": 0,
            "slot": "4",
            "type": "t_uint256"
          },
          {
            "astId": 33622,
            "contract": "contracts/PortfolioManager.sol:PortfolioManager",
            "label": "enabled",
            "offset": 0,
            "slot": "5",
            "type": "t_bool"
          },
          {
            "astId": 33624,
            "contract": "contracts/PortfolioManager.sol:PortfolioManager",
            "label": "enabledReward",
            "offset": 1,
            "slot": "5",
            "type": "t_bool"
          }
        ],
        "numberOfBytes": "192"
      },
      "t_uint256": {
        "encoding": "inplace",
        "label": "uint256",
        "numberOfBytes": "32"
      },
      "t_uint8": {
        "encoding": "inplace",
        "label": "uint8",
        "numberOfBytes": "1"
      }
    }
  }
}