{
  "address": "0x1b5949147D2BB411b1f99a61cC25068A86C42519",
  "abi": [
    {
      "inputs": [],
      "stateMutability": "nonpayable",
      "type": "constructor"
    },
    {
      "anonymous": false,
      "inputs": [
        {
          "indexed": false,
          "internalType": "address",
          "name": "previousAdmin",
          "type": "address"
        },
        {
          "indexed": false,
          "internalType": "address",
          "name": "newAdmin",
          "type": "address"
        }
      ],
      "name": "AdminChanged",
      "type": "event"
    },
    {
      "anonymous": false,
      "inputs": [
        {
          "indexed": true,
          "internalType": "address",
          "name": "beacon",
          "type": "address"
        }
      ],
      "name": "BeaconUpgraded",
      "type": "event"
    },
    {
      "anonymous": false,
      "inputs": [
        {
          "indexed": false,
          "internalType": "uint8",
          "name": "version",
          "type": "uint8"
        }
      ],
      "name": "Initialized",
      "type": "event"
    },
    {
      "anonymous": false,
      "inputs": [
        {
          "indexed": false,
          "internalType": "address",
          "name": "portfolio",
          "type": "address"
        }
      ],
      "name": "PortfolioManagerUpdated",
      "type": "event"
    },
    {
      "anonymous": false,
      "inputs": [
        {
          "indexed": true,
          "internalType": "bytes32",
          "name": "role",
          "type": "bytes32"
        },
        {
          "indexed": true,
          "internalType": "bytes32",
          "name": "previousAdminRole",
          "type": "bytes32"
        },
        {
          "indexed": true,
          "internalType": "bytes32",
          "name": "newAdminRole",
          "type": "bytes32"
        }
      ],
      "name": "RoleAdminChanged",
      "type": "event"
    },
    {
      "anonymous": false,
      "inputs": [
        {
          "indexed": true,
          "internalType": "bytes32",
          "name": "role",
          "type": "bytes32"
        },
        {
          "indexed": true,
          "internalType": "address",
          "name": "account",
          "type": "address"
        },
        {
          "indexed": true,
          "internalType": "address",
          "name": "sender",
          "type": "address"
        }
      ],
      "name": "RoleGranted",
      "type": "event"
    },
    {
      "anonymous": false,
      "inputs": [
        {
          "indexed": true,
          "internalType": "bytes32",
          "name": "role",
          "type": "bytes32"
        },
        {
          "indexed": true,
          "internalType": "address",
          "name": "account",
          "type": "address"
        },
        {
          "indexed": true,
          "internalType": "address",
          "name": "sender",
          "type": "address"
        }
      ],
      "name": "RoleRevoked",
      "type": "event"
    },
    {
      "anonymous": false,
      "inputs": [
        {
          "indexed": true,
          "internalType": "address",
          "name": "implementation",
          "type": "address"
        }
      ],
      "name": "Upgraded",
      "type": "event"
    },
    {
      "inputs": [],
      "name": "DEFAULT_ADMIN_ROLE",
      "outputs": [
        {
          "internalType": "bytes32",
          "name": "",
          "type": "bytes32"
        }
      ],
      "stateMutability": "view",
      "type": "function"
    },
    {
      "inputs": [
        {
          "internalType": "bytes32",
          "name": "role",
          "type": "bytes32"
        }
      ],
      "name": "getRoleAdmin",
      "outputs": [
        {
          "internalType": "bytes32",
          "name": "",
          "type": "bytes32"
        }
      ],
      "stateMutability": "view",
      "type": "function"
    },
    {
      "inputs": [
        {
          "internalType": "bytes32",
          "name": "role",
          "type": "bytes32"
        },
        {
          "internalType": "address",
          "name": "account",
          "type": "address"
        }
      ],
      "name": "grantRole",
      "outputs": [],
      "stateMutability": "nonpayable",
      "type": "function"
    },
    {
      "inputs": [
        {
          "internalType": "bytes32",
          "name": "role",
          "type": "bytes32"
        },
        {
          "internalType": "address",
          "name": "account",
          "type": "address"
        }
      ],
      "name": "hasRole",
      "outputs": [
        {
          "internalType": "bool",
          "name": "",
          "type": "bool"
        }
      ],
      "stateMutability": "view",
      "type": "function"
    },
    {
      "inputs": [],
      "name": "initialize",
      "outputs": [],
      "stateMutability": "nonpayable",
      "type": "function"
    },
    {
      "inputs": [],
      "name": "portfolioManager",
      "outputs": [
        {
          "internalType": "contract IPortfolioManager",
          "name": "",
          "type": "address"
        }
      ],
      "stateMutability": "view",
      "type": "function"
    },
    {
      "inputs": [],
      "name": "proxiableUUID",
      "outputs": [
        {
          "internalType": "bytes32",
          "name": "",
          "type": "bytes32"
        }
      ],
      "stateMutability": "view",
      "type": "function"
    },
    {
      "inputs": [
        {
          "internalType": "bytes32",
          "name": "role",
          "type": "bytes32"
        },
        {
          "internalType": "address",
          "name": "account",
          "type": "address"
        }
      ],
      "name": "renounceRole",
      "outputs": [],
      "stateMutability": "nonpayable",
      "type": "function"
    },
    {
      "inputs": [
        {
          "internalType": "bytes32",
          "name": "role",
          "type": "bytes32"
        },
        {
          "internalType": "address",
          "name": "account",
          "type": "address"
        }
      ],
      "name": "revokeRole",
      "outputs": [],
      "stateMutability": "nonpayable",
      "type": "function"
    },
    {
      "inputs": [
        {
          "internalType": "address",
          "name": "_value",
          "type": "address"
        }
      ],
      "name": "setPortfolioManager",
      "outputs": [],
      "stateMutability": "nonpayable",
      "type": "function"
    },
    {
      "inputs": [],
      "name": "strategyAssets",
      "outputs": [
        {
          "components": [
            {
              "internalType": "address",
              "name": "strategy",
              "type": "address"
            },
            {
              "internalType": "uint256",
              "name": "netAssetValue",
              "type": "uint256"
            },
            {
              "internalType": "uint256",
              "name": "liquidationValue",
              "type": "uint256"
            }
          ],
          "internalType": "struct IMark2Market.StrategyAsset[]",
          "name": "",
          "type": "tuple[]"
        }
      ],
      "stateMutability": "view",
      "type": "function"
    },
    {
      "inputs": [
        {
          "internalType": "bytes4",
          "name": "interfaceId",
          "type": "bytes4"
        }
      ],
      "name": "supportsInterface",
      "outputs": [
        {
          "internalType": "bool",
          "name": "",
          "type": "bool"
        }
      ],
      "stateMutability": "view",
      "type": "function"
    },
    {
      "inputs": [],
      "name": "totalLiquidationAssets",
      "outputs": [
        {
          "internalType": "uint256",
          "name": "",
          "type": "uint256"
        }
      ],
      "stateMutability": "view",
      "type": "function"
    },
    {
      "inputs": [],
      "name": "totalNetAssets",
      "outputs": [
        {
          "internalType": "uint256",
          "name": "",
          "type": "uint256"
        }
      ],
      "stateMutability": "view",
      "type": "function"
    },
    {
      "inputs": [
        {
          "internalType": "address",
          "name": "newImplementation",
          "type": "address"
        }
      ],
      "name": "upgradeTo",
      "outputs": [],
      "stateMutability": "nonpayable",
      "type": "function"
    },
    {
      "inputs": [
        {
          "internalType": "address",
          "name": "newImplementation",
          "type": "address"
        },
        {
          "internalType": "bytes",
          "name": "data",
          "type": "bytes"
        }
      ],
      "name": "upgradeToAndCall",
      "outputs": [],
      "stateMutability": "payable",
      "type": "function"
    }
  ],
  "numDeployments": 1,
  "solcInputHash": "2078cf30af519c20162a0f8508caf56b",
  "bytecode": "0x60a0604052306080523480156200001557600080fd5b50600054610100900460ff1615808015620000375750600054600160ff909116105b8062000067575062000054306200014160201b62000ad61760201c565b15801562000067575060005460ff166001145b620000cf5760405162461bcd60e51b815260206004820152602e60248201527f496e697469616c697a61626c653a20636f6e747261637420697320616c72656160448201526d191e481a5b9a5d1a585b1a5e995960921b606482015260840160405180910390fd5b6000805460ff191660011790558015620000f3576000805461ff0019166101001790555b80156200013a576000805461ff0019169055604051600181527f7f26b83ff96e1f2b6a682f133852f6798a09c465da95921460cefb38474024989060200160405180910390a15b5062000150565b6001600160a01b03163b151590565b6080516119d062000188600039600081816103d10152818161041101528181610499015281816104d9015261055101526119d06000f3fe6080604052600436106100d35760003560e01c80638129fc1c1161007a5780638129fc1c1461020d578063890a8c4f146102225780638e99426b1461023757806391d148541461024c578063a217fddf1461026c578063a440b21a14610281578063b4d0c36b146102a1578063d547741f146102c357600080fd5b806301ffc9a7146100d8578063248a9ca31461010d5780632f2ff15d1461014b57806336568abe1461016d5780633659cfe61461018d5780634f1ef286146101ad57806352d1902d146101c0578063620b75df146101d5575b600080fd5b3480156100e457600080fd5b506100f86100f33660046113ed565b6102e3565b60405190151581526020015b60405180910390f35b34801561011957600080fd5b5061013d610128366004611417565b60009081526065602052604090206001015490565b604051908152602001610104565b34801561015757600080fd5b5061016b610166366004611445565b61031a565b005b34801561017957600080fd5b5061016b610188366004611445565b610344565b34801561019957600080fd5b5061016b6101a8366004611475565b6103c7565b61016b6101bb366004611502565b61048f565b3480156101cc57600080fd5b5061013d610544565b3480156101e157600080fd5b5060fb546101f5906001600160a01b031681565b6040516001600160a01b039091168152602001610104565b34801561021957600080fd5b5061016b6105f2565b34801561022e57600080fd5b5061013d61071d565b34801561024357600080fd5b5061013d61072e565b34801561025857600080fd5b506100f8610267366004611445565b61073a565b34801561027857600080fd5b5061013d600081565b34801561028d57600080fd5b5061016b61029c366004611475565b610765565b3480156102ad57600080fd5b506102b6610852565b60405161010491906115aa565b3480156102cf57600080fd5b5061016b6102de366004611445565b610ab1565b60006001600160e01b03198216637965db0b60e01b148061031457506301ffc9a760e01b6001600160e01b03198316145b92915050565b60008281526065602052604090206001015461033581610ae5565b61033f8383610aef565b505050565b6001600160a01b03811633146103b95760405162461bcd60e51b815260206004820152602f60248201527f416363657373436f6e74726f6c3a2063616e206f6e6c792072656e6f756e636560448201526e103937b632b9903337b91039b2b63360891b60648201526084015b60405180910390fd5b6103c38282610b75565b5050565b6001600160a01b037f000000000000000000000000000000000000000000000000000000000000000016300361040f5760405162461bcd60e51b81526004016103b09061160c565b7f00000000000000000000000000000000000000000000000000000000000000006001600160a01b0316610441610bdc565b6001600160a01b0316146104675760405162461bcd60e51b81526004016103b090611658565b61047081610bf8565b6040805160008082526020820190925261048c91839190610c03565b50565b6001600160a01b037f00000000000000000000000000000000000000000000000000000000000000001630036104d75760405162461bcd60e51b81526004016103b09061160c565b7f00000000000000000000000000000000000000000000000000000000000000006001600160a01b0316610509610bdc565b6001600160a01b03161461052f5760405162461bcd60e51b81526004016103b090611658565b61053882610bf8565b6103c382826001610c03565b6000306001600160a01b037f000000000000000000000000000000000000000000000000000000000000000016146105df5760405162461bcd60e51b815260206004820152603860248201527f555550535570677261646561626c653a206d757374206e6f742062652063616c6044820152771b1959081d1a1c9bdd59da0819195b1959d85d1958d85b1b60421b60648201526084016103b0565b5060008051602061195483398151915290565b600054610100900460ff16158080156106125750600054600160ff909116105b80610633575061062130610ad6565b158015610633575060005460ff166001145b6106965760405162461bcd60e51b815260206004820152602e60248201527f496e697469616c697a61626c653a20636f6e747261637420697320616c72656160448201526d191e481a5b9a5d1a585b1a5e995960921b60648201526084016103b0565b6000805460ff1916600117905580156106b9576000805461ff0019166101001790555b6106c1610d6e565b6106c9610d6e565b6106d4600033610aef565b801561048c576000805461ff0019169055604051600181527f7f26b83ff96e1f2b6a682f133852f6798a09c465da95921460cefb3847402498906020015b60405180910390a150565b60006107296000610ddb565b905090565b60006107296001610ddb565b60009182526065602090815260408084206001600160a01b0393909316845291905290205460ff1690565b61077060003361073a565b6107b35760405162461bcd60e51b81526020600482015260146024820152735265737472696374656420746f2061646d696e7360601b60448201526064016103b0565b6001600160a01b0381166108045760405162461bcd60e51b815260206004820152601860248201527716995c9bc81859191c995cdcc81b9bdd08185b1b1bddd95960421b60448201526064016103b0565b60fb80546001600160a01b0319166001600160a01b0383169081179091556040519081527ff7b449fcd5cfb7379dcd34cb69428dd9f882033b15be33d83b42d91daa28eeb790602001610712565b6060600060fb60009054906101000a90046001600160a01b03166001600160a01b031663f281d4386040518163ffffffff1660e01b8152600401600060405180830381865afa1580156108a9573d6000803e3d6000fd5b505050506040513d6000823e601f3d908101601f191682016040526108d191908101906116b9565b805190915060008167ffffffffffffffff8111156108f1576108f1611492565b60405190808252806020026020018201604052801561094f57816020015b61093c604051806060016040528060006001600160a01b0316815260200160008152602001600081525090565b81526020019060019003908161090f5790505b50905060005b828160ff161015610aa9576000848260ff1681518110610977576109776117cc565b60200260200101519050600081600001519050604051806060016040528083600001516001600160a01b03168152602001826001600160a01b031663a3673b386040518163ffffffff1660e01b8152600401602060405180830381865afa1580156109e6573d6000803e3d6000fd5b505050506040513d601f19601f82011682018060405250810190610a0a91906117e2565b8152602001826001600160a01b0316632576e65a6040518163ffffffff1660e01b8152600401602060405180830381865afa158015610a4d573d6000803e3d6000fd5b505050506040513d601f19601f82011682018060405250810190610a7191906117e2565b815250848460ff1681518110610a8957610a896117cc565b602002602001018190525050508080610aa190611811565b915050610955565b509392505050565b600082815260656020526040902060010154610acc81610ae5565b61033f8383610b75565b6001600160a01b03163b151590565b61048c8133610f99565b610af9828261073a565b6103c35760008281526065602090815260408083206001600160a01b03851684529091529020805460ff19166001179055610b313390565b6001600160a01b0316816001600160a01b0316837f2f8788117e7eff1d82e926ec794901d17c78024a50270940304540a733656f0d60405160405180910390a45050565b610b7f828261073a565b156103c35760008281526065602090815260408083206001600160a01b0385168085529252808320805460ff1916905551339285917ff6391f5c32d9c69d2a47ea670b442974b53935d1edc7fd64eb21e047a839171b9190a45050565b600080516020611954833981519152546001600160a01b031690565b60006103c381610ae5565b7f4910fdfa16fed3260ed0e7147f7cc6da11a60208b5b9406d12a635614ffd91435460ff1615610c365761033f83610ff2565b826001600160a01b03166352d1902d6040518163ffffffff1660e01b8152600401602060405180830381865afa925050508015610c90575060408051601f3d908101601f19168201909252610c8d918101906117e2565b60015b610cf35760405162461bcd60e51b815260206004820152602e60248201527f45524331393637557067726164653a206e657720696d706c656d656e7461746960448201526d6f6e206973206e6f74205555505360901b60648201526084016103b0565b6000805160206119548339815191528114610d625760405162461bcd60e51b815260206004820152602960248201527f45524331393637557067726164653a20756e737570706f727465642070726f786044820152681a58589b195555525160ba1b60648201526084016103b0565b5061033f83838361108c565b600054610100900460ff16610dd95760405162461bcd60e51b815260206004820152602b60248201527f496e697469616c697a61626c653a20636f6e7472616374206973206e6f74206960448201526a6e697469616c697a696e6760a81b60648201526084016103b0565b565b60008060009050600060fb60009054906101000a90046001600160a01b03166001600160a01b031663f281d4386040518163ffffffff1660e01b8152600401600060405180830381865afa158015610e37573d6000803e3d6000fd5b505050506040513d6000823e601f3d908101601f19168201604052610e5f91908101906116b9565b905060005b81518160ff161015610f90576000828260ff1681518110610e8757610e876117cc565b60200260200101516000015190508515610f0e57806001600160a01b0316632576e65a6040518163ffffffff1660e01b8152600401602060405180830381865afa158015610ed9573d6000803e3d6000fd5b505050506040513d601f19601f82011682018060405250810190610efd91906117e2565b610f079085611830565b9350610f7d565b806001600160a01b031663a3673b386040518163ffffffff1660e01b8152600401602060405180830381865afa158015610f4c573d6000803e3d6000fd5b505050506040513d601f19601f82011682018060405250810190610f7091906117e2565b610f7a9085611830565b93505b5080610f8881611811565b915050610e64565b50909392505050565b610fa3828261073a565b6103c357610fb0816110b7565b610fbb8360206110c9565b604051602001610fcc929190611867565b60408051601f198184030181529082905262461bcd60e51b82526103b0916004016118d6565b610ffb81610ad6565b61105d5760405162461bcd60e51b815260206004820152602d60248201527f455243313936373a206e657720696d706c656d656e746174696f6e206973206e60448201526c1bdd08184818dbdb9d1c9858dd609a1b60648201526084016103b0565b60008051602061195483398151915280546001600160a01b0319166001600160a01b0392909216919091179055565b6110958361126c565b6000825111806110a25750805b1561033f576110b183836112ac565b50505050565b60606103146001600160a01b03831660145b606060006110d8836002611909565b6110e3906002611830565b67ffffffffffffffff8111156110fb576110fb611492565b6040519080825280601f01601f191660200182016040528015611125576020820181803683370190505b509050600360fc1b81600081518110611140576111406117cc565b60200101906001600160f81b031916908160001a905350600f60fb1b8160018151811061116f5761116f6117cc565b60200101906001600160f81b031916908160001a9053506000611193846002611909565b61119e906001611830565b90505b6001811115611216576f181899199a1a9b1b9c1cb0b131b232b360811b85600f16601081106111d2576111d26117cc565b1a60f81b8282815181106111e8576111e86117cc565b60200101906001600160f81b031916908160001a90535060049490941c9361120f81611920565b90506111a1565b5083156112655760405162461bcd60e51b815260206004820181905260248201527f537472696e67733a20686578206c656e67746820696e73756666696369656e7460448201526064016103b0565b9392505050565b61127581610ff2565b6040516001600160a01b038216907fbc7cd75a20ee27fd9adebab32041f755214dbc6bffa90cc0225b39da2e5c2d3b90600090a250565b60606112658383604051806060016040528060278152602001611974602791396060600080856001600160a01b0316856040516112e99190611937565b600060405180830381855af49150503d8060008114611324576040519150601f19603f3d011682016040523d82523d6000602084013e611329565b606091505b509150915061133a86838387611344565b9695505050505050565b606083156113b15782516000036113aa5761135e85610ad6565b6113aa5760405162461bcd60e51b815260206004820152601d60248201527f416464726573733a2063616c6c20746f206e6f6e2d636f6e747261637400000060448201526064016103b0565b50816113bb565b6113bb83836113c3565b949350505050565b8151156113d35781518083602001fd5b8060405162461bcd60e51b81526004016103b091906118d6565b6000602082840312156113ff57600080fd5b81356001600160e01b03198116811461126557600080fd5b60006020828403121561142957600080fd5b5035919050565b6001600160a01b038116811461048c57600080fd5b6000806040838503121561145857600080fd5b82359150602083013561146a81611430565b809150509250929050565b60006020828403121561148757600080fd5b813561126581611430565b634e487b7160e01b600052604160045260246000fd5b60405160e0810167ffffffffffffffff811182821017156114cb576114cb611492565b60405290565b604051601f8201601f1916810167ffffffffffffffff811182821017156114fa576114fa611492565b604052919050565b6000806040838503121561151557600080fd5b823561152081611430565b915060208381013567ffffffffffffffff8082111561153e57600080fd5b818601915086601f83011261155257600080fd5b81358181111561156457611564611492565b611576601f8201601f191685016114d1565b9150808252878482850101111561158c57600080fd5b80848401858401376000848284010152508093505050509250929050565b602080825282518282018190526000919060409081850190868401855b828110156115ff57815180516001600160a01b03168552868101518786015285015185850152606090930192908501906001016115c7565b5091979650505050505050565b6020808252602c908201527f46756e6374696f6e206d7573742062652063616c6c6564207468726f7567682060408201526b19195b1959d85d1958d85b1b60a21b606082015260800190565b6020808252602c908201527f46756e6374696f6e206d7573742062652063616c6c6564207468726f7567682060408201526b6163746976652070726f787960a01b606082015260800190565b805180151581146116b457600080fd5b919050565b600060208083850312156116cc57600080fd5b825167ffffffffffffffff808211156116e457600080fd5b818501915085601f8301126116f857600080fd5b81518181111561170a5761170a611492565b611718848260051b016114d1565b818152848101925060e091820284018501918883111561173757600080fd5b938501935b828510156117c05780858a0312156117545760008081fd5b61175c6114a8565b855161176781611430565b8152858701518782015260408087015190820152606080870151908201526080808701519082015260a061179c8188016116a4565b9082015260c06117ad8782016116a4565b908201528452938401939285019261173c565b50979650505050505050565b634e487b7160e01b600052603260045260246000fd5b6000602082840312156117f457600080fd5b5051919050565b634e487b7160e01b600052601160045260246000fd5b600060ff821660ff8103611827576118276117fb565b60010192915050565b80820180821115610314576103146117fb565b60005b8381101561185e578181015183820152602001611846565b50506000910152565b76020b1b1b2b9b9a1b7b73a3937b61d1030b1b1b7bab73a1604d1b815260008351611899816017850160208801611843565b7001034b99036b4b9b9b4b733903937b6329607d1b60179184019182015283516118ca816028840160208801611843565b01602801949350505050565b60208152600082518060208401526118f5816040850160208701611843565b601f01601f19169190910160400192915050565b8082028115828204841417610314576103146117fb565b60008161192f5761192f6117fb565b506000190190565b60008251611949818460208701611843565b919091019291505056fe360894a13ba1a3210667c828492db98dca3e2076cc3735a920a3ca505d382bbc416464726573733a206c6f772d6c6576656c2064656c65676174652063616c6c206661696c6564a2646970667358221220315410cc9d11fd97fdd55631f7c3d8883ed75e4a2936faef46373fee1591f72864736f6c63430008110033",
  "implementation": "0x5351825750AD6A67B2de3E15475E1BE9a5BF9e18",
  "devdoc": {
    "kind": "dev",
    "methods": {
      "constructor": {
        "custom:oz-upgrades-unsafe-allow": "constructor"
      },
      "getRoleAdmin(bytes32)": {
        "details": "Returns the admin role that controls `role`. See {grantRole} and {revokeRole}. To change a role's admin, use {_setRoleAdmin}."
      },
      "grantRole(bytes32,address)": {
        "details": "Grants `role` to `account`. If `account` had not been already granted `role`, emits a {RoleGranted} event. Requirements: - the caller must have ``role``'s admin role. May emit a {RoleGranted} event."
      },
      "hasRole(bytes32,address)": {
        "details": "Returns `true` if `account` has been granted `role`."
      },
      "proxiableUUID()": {
        "details": "Implementation of the ERC1822 {proxiableUUID} function. This returns the storage slot used by the implementation. It is used to validate the implementation's compatibility when performing an upgrade. IMPORTANT: A proxy pointing at a proxiable contract should not be considered proxiable itself, because this risks bricking a proxy that upgrades to it, by delegating to itself until out of gas. Thus it is critical that this function revert if invoked through a proxy. This is guaranteed by the `notDelegated` modifier."
      },
      "renounceRole(bytes32,address)": {
        "details": "Revokes `role` from the calling account. Roles are often managed via {grantRole} and {revokeRole}: this function's purpose is to provide a mechanism for accounts to lose their privileges if they are compromised (such as when a trusted device is misplaced). If the calling account had been revoked `role`, emits a {RoleRevoked} event. Requirements: - the caller must be `account`. May emit a {RoleRevoked} event."
      },
      "revokeRole(bytes32,address)": {
        "details": "Revokes `role` from `account`. If `account` had been granted `role`, emits a {RoleRevoked} event. Requirements: - the caller must have ``role``'s admin role. May emit a {RoleRevoked} event."
      },
      "supportsInterface(bytes4)": {
        "details": "See {IERC165-supportsInterface}."
      },
      "upgradeTo(address)": {
        "custom:oz-upgrades-unsafe-allow-reachable": "delegatecall",
        "details": "Upgrade the implementation of the proxy to `newImplementation`. Calls {_authorizeUpgrade}. Emits an {Upgraded} event."
      },
      "upgradeToAndCall(address,bytes)": {
        "custom:oz-upgrades-unsafe-allow-reachable": "delegatecall",
        "details": "Upgrade the implementation of the proxy to `newImplementation`, and subsequently execute the function call encoded in `data`. Calls {_authorizeUpgrade}. Emits an {Upgraded} event."
      }
    },
    "version": 1
  },
  "userdoc": {
    "kind": "user",
    "methods": {},
    "version": 1
  },
  "storageLayout": {
    "storage": [
      {
        "astId": 782,
        "contract": "contracts/Mark2Market.sol:Mark2Market",
        "label": "_initialized",
        "offset": 0,
        "slot": "0",
        "type": "t_uint8"
      },
      {
        "astId": 785,
        "contract": "contracts/Mark2Market.sol:Mark2Market",
        "label": "_initializing",
        "offset": 1,
        "slot": "0",
        "type": "t_bool"
      },
      {
        "astId": 1589,
        "contract": "contracts/Mark2Market.sol:Mark2Market",
        "label": "__gap",
        "offset": 0,
        "slot": "1",
        "type": "t_array(t_uint256)50_storage"
      },
      {
        "astId": 1973,
        "contract": "contracts/Mark2Market.sol:Mark2Market",
        "label": "__gap",
        "offset": 0,
        "slot": "51",
        "type": "t_array(t_uint256)50_storage"
      },
      {
        "astId": 28,
        "contract": "contracts/Mark2Market.sol:Mark2Market",
        "label": "_roles",
        "offset": 0,
        "slot": "101",
        "type": "t_mapping(t_bytes32,t_struct(RoleData)23_storage)"
      },
      {
        "astId": 335,
        "contract": "contracts/Mark2Market.sol:Mark2Market",
        "label": "__gap",
        "offset": 0,
        "slot": "102",
        "type": "t_array(t_uint256)49_storage"
      },
      {
        "astId": 764,
        "contract": "contracts/Mark2Market.sol:Mark2Market",
        "label": "__gap",
        "offset": 0,
        "slot": "151",
        "type": "t_array(t_uint256)50_storage"
      },
      {
        "astId": 1080,
        "contract": "contracts/Mark2Market.sol:Mark2Market",
        "label": "__gap",
        "offset": 0,
        "slot": "201",
        "type": "t_array(t_uint256)50_storage"
      },
      {
        "astId": 16287,
        "contract": "contracts/Mark2Market.sol:Mark2Market",
        "label": "portfolioManager",
        "offset": 0,
        "slot": "251",
        "type": "t_contract(IPortfolioManager)19840"
      }
    ],
    "types": {
      "t_address": {
        "encoding": "inplace",
        "label": "address",
        "numberOfBytes": "20"
      },
      "t_array(t_uint256)49_storage": {
        "base": "t_uint256",
        "encoding": "inplace",
        "label": "uint256[49]",
        "numberOfBytes": "1568"
      },
      "t_array(t_uint256)50_storage": {
        "base": "t_uint256",
        "encoding": "inplace",
        "label": "uint256[50]",
        "numberOfBytes": "1600"
      },
      "t_bool": {
        "encoding": "inplace",
        "label": "bool",
        "numberOfBytes": "1"
      },
      "t_bytes32": {
        "encoding": "inplace",
        "label": "bytes32",
        "numberOfBytes": "32"
      },
      "t_contract(IPortfolioManager)19840": {
        "encoding": "inplace",
        "label": "contract IPortfolioManager",
        "numberOfBytes": "20"
      },
      "t_mapping(t_address,t_bool)": {
        "encoding": "mapping",
        "key": "t_address",
        "label": "mapping(address => bool)",
        "numberOfBytes": "32",
        "value": "t_bool"
      },
      "t_mapping(t_bytes32,t_struct(RoleData)23_storage)": {
        "encoding": "mapping",
        "key": "t_bytes32",
        "label": "mapping(bytes32 => struct AccessControlUpgradeable.RoleData)",
        "numberOfBytes": "32",
        "value": "t_struct(RoleData)23_storage"
      },
      "t_struct(RoleData)23_storage": {
        "encoding": "inplace",
        "label": "struct AccessControlUpgradeable.RoleData",
        "members": [
          {
            "astId": 20,
            "contract": "contracts/Mark2Market.sol:Mark2Market",
            "label": "members",
            "offset": 0,
            "slot": "0",
            "type": "t_mapping(t_address,t_bool)"
          },
          {
            "astId": 22,
            "contract": "contracts/Mark2Market.sol:Mark2Market",
            "label": "adminRole",
            "offset": 0,
            "slot": "1",
            "type": "t_bytes32"
          }
        ],
        "numberOfBytes": "64"
      },
      "t_uint256": {
        "encoding": "inplace",
        "label": "uint256",
        "numberOfBytes": "32"
      },
      "t_uint8": {
        "encoding": "inplace",
        "label": "uint8",
        "numberOfBytes": "1"
      }
    }
  }
}