{
  "address": "0xEC63c2E3D4a1eD280796B6E56F9019c072649227",
  "abi": [
    {
      "inputs": [],
      "stateMutability": "nonpayable",
      "type": "constructor"
    },
    {
      "anonymous": false,
      "inputs": [
        {
          "indexed": false,
          "internalType": "address",
          "name": "previousAdmin",
          "type": "address"
        },
        {
          "indexed": false,
          "internalType": "address",
          "name": "newAdmin",
          "type": "address"
        }
      ],
      "name": "AdminChanged",
      "type": "event"
    },
    {
      "anonymous": false,
      "inputs": [
        {
          "indexed": true,
          "internalType": "address",
          "name": "beacon",
          "type": "address"
        }
      ],
      "name": "BeaconUpgraded",
      "type": "event"
    },
    {
      "anonymous": false,
      "inputs": [
        {
          "indexed": false,
          "internalType": "uint8",
          "name": "version",
          "type": "uint8"
        }
      ],
      "name": "Initialized",
      "type": "event"
    },
    {
      "anonymous": false,
      "inputs": [
        {
          "indexed": false,
          "internalType": "address",
          "name": "value",
          "type": "address"
        }
      ],
      "name": "PortfolioManagerUpdated",
      "type": "event"
    },
    {
      "anonymous": false,
      "inputs": [
        {
          "indexed": false,
          "internalType": "uint256",
          "name": "amount",
          "type": "uint256"
        }
      ],
      "name": "Reward",
      "type": "event"
    },
    {
      "anonymous": false,
      "inputs": [
        {
          "indexed": true,
          "internalType": "bytes32",
          "name": "role",
          "type": "bytes32"
        },
        {
          "indexed": true,
          "internalType": "bytes32",
          "name": "previousAdminRole",
          "type": "bytes32"
        },
        {
          "indexed": true,
          "internalType": "bytes32",
          "name": "newAdminRole",
          "type": "bytes32"
        }
      ],
      "name": "RoleAdminChanged",
      "type": "event"
    },
    {
      "anonymous": false,
      "inputs": [
        {
          "indexed": true,
          "internalType": "bytes32",
          "name": "role",
          "type": "bytes32"
        },
        {
          "indexed": true,
          "internalType": "address",
          "name": "account",
          "type": "address"
        },
        {
          "indexed": true,
          "internalType": "address",
          "name": "sender",
          "type": "address"
        }
      ],
      "name": "RoleGranted",
      "type": "event"
    },
    {
      "anonymous": false,
      "inputs": [
        {
          "indexed": true,
          "internalType": "bytes32",
          "name": "role",
          "type": "bytes32"
        },
        {
          "indexed": true,
          "internalType": "address",
          "name": "account",
          "type": "address"
        },
        {
          "indexed": true,
          "internalType": "address",
          "name": "sender",
          "type": "address"
        }
      ],
      "name": "RoleRevoked",
      "type": "event"
    },
    {
      "anonymous": false,
      "inputs": [
        {
          "indexed": false,
          "internalType": "uint256",
          "name": "swapSlippageBP",
          "type": "uint256"
        },
        {
          "indexed": false,
          "internalType": "uint256",
          "name": "navSlippageBP",
          "type": "uint256"
        },
        {
          "indexed": false,
          "internalType": "uint256",
          "name": "stakeSlippageBP",
          "type": "uint256"
        }
      ],
      "name": "SlippagesUpdated",
      "type": "event"
    },
    {
      "anonymous": false,
      "inputs": [
        {
          "indexed": false,
          "internalType": "uint256",
          "name": "amount",
          "type": "uint256"
        }
      ],
      "name": "Stake",
      "type": "event"
    },
    {
      "anonymous": false,
      "inputs": [],
      "name": "StrategyUpdatedParams",
      "type": "event"
    },
    {
      "anonymous": false,
      "inputs": [
        {
          "indexed": false,
          "internalType": "uint256",
          "name": "amount",
          "type": "uint256"
        },
        {
          "indexed": false,
          "internalType": "uint256",
          "name": "amountReceived",
          "type": "uint256"
        }
      ],
      "name": "Unstake",
      "type": "event"
    },
    {
      "anonymous": false,
      "inputs": [
        {
          "indexed": true,
          "internalType": "address",
          "name": "implementation",
          "type": "address"
        }
      ],
      "name": "Upgraded",
      "type": "event"
    },
    {
      "inputs": [],
      "name": "DEFAULT_ADMIN_ROLE",
      "outputs": [
        {
          "internalType": "bytes32",
          "name": "",
          "type": "bytes32"
        }
      ],
      "stateMutability": "view",
      "type": "function"
    },
    {
      "inputs": [],
      "name": "PORTFOLIO_AGENT_ROLE",
      "outputs": [
        {
          "internalType": "bytes32",
          "name": "",
          "type": "bytes32"
        }
      ],
      "stateMutability": "view",
      "type": "function"
    },
    {
      "inputs": [],
      "name": "PORTFOLIO_MANAGER",
      "outputs": [
        {
          "internalType": "bytes32",
          "name": "",
          "type": "bytes32"
        }
      ],
      "stateMutability": "view",
      "type": "function"
    },
    {
      "inputs": [],
      "name": "alb",
      "outputs": [
        {
          "internalType": "contract IERC20",
          "name": "",
          "type": "address"
        }
      ],
      "stateMutability": "view",
      "type": "function"
    },
    {
      "inputs": [],
      "name": "alienBaseRouter",
      "outputs": [
        {
          "internalType": "contract IAlienBaseRouter02",
          "name": "",
          "type": "address"
        }
      ],
      "stateMutability": "view",
      "type": "function"
    },
    {
      "inputs": [
        {
          "internalType": "address",
          "name": "_to",
          "type": "address"
        }
      ],
      "name": "claimRewards",
      "outputs": [
        {
          "internalType": "uint256",
          "name": "",
          "type": "uint256"
        }
      ],
      "stateMutability": "nonpayable",
      "type": "function"
    },
    {
      "inputs": [],
      "name": "dai",
      "outputs": [
        {
          "internalType": "contract IERC20",
          "name": "",
          "type": "address"
        }
      ],
      "stateMutability": "view",
      "type": "function"
    },
    {
      "inputs": [],
      "name": "daiDm",
      "outputs": [
        {
          "internalType": "uint256",
          "name": "",
          "type": "uint256"
        }
      ],
      "stateMutability": "view",
      "type": "function"
    },
    {
      "inputs": [
        {
          "internalType": "bytes32",
          "name": "role",
          "type": "bytes32"
        }
      ],
      "name": "getRoleAdmin",
      "outputs": [
        {
          "internalType": "bytes32",
          "name": "",
          "type": "bytes32"
        }
      ],
      "stateMutability": "view",
      "type": "function"
    },
    {
      "inputs": [
        {
          "internalType": "bytes32",
          "name": "role",
          "type": "bytes32"
        },
        {
          "internalType": "address",
          "name": "account",
          "type": "address"
        }
      ],
      "name": "grantRole",
      "outputs": [],
      "stateMutability": "nonpayable",
      "type": "function"
    },
    {
      "inputs": [
        {
          "internalType": "bytes32",
          "name": "role",
          "type": "bytes32"
        },
        {
          "internalType": "address",
          "name": "account",
          "type": "address"
        }
      ],
      "name": "hasRole",
      "outputs": [
        {
          "internalType": "bool",
          "name": "",
          "type": "bool"
        }
      ],
      "stateMutability": "view",
      "type": "function"
    },
    {
      "inputs": [],
      "name": "initialize",
      "outputs": [],
      "stateMutability": "nonpayable",
      "type": "function"
    },
    {
      "inputs": [],
      "name": "liquidationValue",
      "outputs": [
        {
          "internalType": "uint256",
          "name": "",
          "type": "uint256"
        }
      ],
      "stateMutability": "view",
      "type": "function"
    },
    {
      "inputs": [],
      "name": "masterChef",
      "outputs": [
        {
          "internalType": "contract IBasedDistributorV2",
          "name": "",
          "type": "address"
        }
      ],
      "stateMutability": "view",
      "type": "function"
    },
    {
      "inputs": [],
      "name": "navSlippageBP",
      "outputs": [
        {
          "internalType": "uint256",
          "name": "",
          "type": "uint256"
        }
      ],
      "stateMutability": "view",
      "type": "function"
    },
    {
      "inputs": [],
      "name": "netAssetValue",
      "outputs": [
        {
          "internalType": "uint256",
          "name": "",
          "type": "uint256"
        }
      ],
      "stateMutability": "view",
      "type": "function"
    },
    {
      "inputs": [],
      "name": "oracleDai",
      "outputs": [
        {
          "internalType": "contract IPriceFeed",
          "name": "",
          "type": "address"
        }
      ],
      "stateMutability": "view",
      "type": "function"
    },
    {
      "inputs": [],
      "name": "oracleUsdbc",
      "outputs": [
        {
          "internalType": "contract IPriceFeed",
          "name": "",
          "type": "address"
        }
      ],
      "stateMutability": "view",
      "type": "function"
    },
    {
      "inputs": [],
      "name": "pair",
      "outputs": [
        {
          "internalType": "contract IERC20",
          "name": "",
          "type": "address"
        }
      ],
      "stateMutability": "view",
      "type": "function"
    },
    {
      "inputs": [],
      "name": "pid",
      "outputs": [
        {
          "internalType": "uint256",
          "name": "",
          "type": "uint256"
        }
      ],
      "stateMutability": "view",
      "type": "function"
    },
    {
      "inputs": [],
      "name": "poolFee",
      "outputs": [
        {
          "internalType": "uint24",
          "name": "",
          "type": "uint24"
        }
      ],
      "stateMutability": "view",
      "type": "function"
    },
    {
      "inputs": [],
      "name": "portfolioManager",
      "outputs": [
        {
          "internalType": "address",
          "name": "",
          "type": "address"
        }
      ],
      "stateMutability": "view",
      "type": "function"
    },
    {
      "inputs": [],
      "name": "proxiableUUID",
      "outputs": [
        {
          "internalType": "bytes32",
          "name": "",
          "type": "bytes32"
        }
      ],
      "stateMutability": "view",
      "type": "function"
    },
    {
      "inputs": [
        {
          "internalType": "bytes32",
          "name": "role",
          "type": "bytes32"
        },
        {
          "internalType": "address",
          "name": "account",
          "type": "address"
        }
      ],
      "name": "renounceRole",
      "outputs": [],
      "stateMutability": "nonpayable",
      "type": "function"
    },
    {
      "inputs": [
        {
          "internalType": "bytes32",
          "name": "role",
          "type": "bytes32"
        },
        {
          "internalType": "address",
          "name": "account",
          "type": "address"
        }
      ],
      "name": "revokeRole",
      "outputs": [],
      "stateMutability": "nonpayable",
      "type": "function"
    },
    {
      "inputs": [
        {
          "components": [
            {
              "internalType": "address",
              "name": "dai",
              "type": "address"
            },
            {
              "internalType": "address",
              "name": "usdbc",
              "type": "address"
            },
            {
              "internalType": "address",
              "name": "weth",
              "type": "address"
            },
            {
              "internalType": "address",
              "name": "alb",
              "type": "address"
            },
            {
              "internalType": "address",
              "name": "oracleDai",
              "type": "address"
            },
            {
              "internalType": "address",
              "name": "oracleUsdbc",
              "type": "address"
            },
            {
              "internalType": "address",
              "name": "alienBaseRouter",
              "type": "address"
            },
            {
              "internalType": "address",
              "name": "swapFlashLoan",
              "type": "address"
            },
            {
              "internalType": "address",
              "name": "masterChef",
              "type": "address"
            },
            {
              "internalType": "address",
              "name": "pair",
              "type": "address"
            },
            {
              "internalType": "uint256",
              "name": "pid",
              "type": "uint256"
            },
            {
              "internalType": "address",
              "name": "uniswapV3Router",
              "type": "address"
            },
            {
              "internalType": "uint24",
              "name": "poolFee",
              "type": "uint24"
            }
          ],
          "internalType": "struct StrategyAlienBaseDaiUsdbc.StrategyParams",
          "name": "params",
          "type": "tuple"
        }
      ],
      "name": "setParams",
      "outputs": [],
      "stateMutability": "nonpayable",
      "type": "function"
    },
    {
      "inputs": [
        {
          "internalType": "address",
          "name": "_value",
          "type": "address"
        }
      ],
      "name": "setPortfolioManager",
      "outputs": [],
      "stateMutability": "nonpayable",
      "type": "function"
    },
    {
      "inputs": [
        {
          "internalType": "uint256",
          "name": "_swapSlippageBP",
          "type": "uint256"
        },
        {
          "internalType": "uint256",
          "name": "_navSlippageBP",
          "type": "uint256"
        },
        {
          "internalType": "uint256",
          "name": "_stakeSlippageBP",
          "type": "uint256"
        }
      ],
      "name": "setSlippages",
      "outputs": [],
      "stateMutability": "nonpayable",
      "type": "function"
    },
    {
      "inputs": [
        {
          "internalType": "address",
          "name": "_asset",
          "type": "address"
        },
        {
          "internalType": "uint256",
          "name": "_amount",
          "type": "uint256"
        }
      ],
      "name": "stake",
      "outputs": [],
      "stateMutability": "nonpayable",
      "type": "function"
    },
    {
      "inputs": [],
      "name": "stakeSlippageBP",
      "outputs": [
        {
          "internalType": "uint256",
          "name": "",
          "type": "uint256"
        }
      ],
      "stateMutability": "view",
      "type": "function"
    },
    {
      "inputs": [
        {
          "internalType": "bytes4",
          "name": "interfaceId",
          "type": "bytes4"
        }
      ],
      "name": "supportsInterface",
      "outputs": [
        {
          "internalType": "bool",
          "name": "",
          "type": "bool"
        }
      ],
      "stateMutability": "view",
      "type": "function"
    },
    {
      "inputs": [],
      "name": "swapFlashLoan",
      "outputs": [
        {
          "internalType": "contract ISwapFlashLoan",
          "name": "",
          "type": "address"
        }
      ],
      "stateMutability": "view",
      "type": "function"
    },
    {
      "inputs": [],
      "name": "swapSlippageBP",
      "outputs": [
        {
          "internalType": "uint256",
          "name": "",
          "type": "uint256"
        }
      ],
      "stateMutability": "view",
      "type": "function"
    },
    {
      "inputs": [],
      "name": "uniswapV3Router",
      "outputs": [
        {
          "internalType": "contract ISwapRouter",
          "name": "",
          "type": "address"
        }
      ],
      "stateMutability": "view",
      "type": "function"
    },
    {
      "inputs": [
        {
          "internalType": "address",
          "name": "_asset",
          "type": "address"
        },
        {
          "internalType": "uint256",
          "name": "_amount",
          "type": "uint256"
        },
        {
          "internalType": "address",
          "name": "_beneficiary",
          "type": "address"
        },
        {
          "internalType": "bool",
          "name": "_targetIsZero",
          "type": "bool"
        }
      ],
      "name": "unstake",
      "outputs": [
        {
          "internalType": "uint256",
          "name": "",
          "type": "uint256"
        }
      ],
      "stateMutability": "nonpayable",
      "type": "function"
    },
    {
      "inputs": [
        {
          "internalType": "address",
          "name": "newImplementation",
          "type": "address"
        }
      ],
      "name": "upgradeTo",
      "outputs": [],
      "stateMutability": "nonpayable",
      "type": "function"
    },
    {
      "inputs": [
        {
          "internalType": "address",
          "name": "newImplementation",
          "type": "address"
        },
        {
          "internalType": "bytes",
          "name": "data",
          "type": "bytes"
        }
      ],
      "name": "upgradeToAndCall",
      "outputs": [],
      "stateMutability": "payable",
      "type": "function"
    },
    {
      "inputs": [],
      "name": "usdbc",
      "outputs": [
        {
          "internalType": "contract IERC20",
          "name": "",
          "type": "address"
        }
      ],
      "stateMutability": "view",
      "type": "function"
    },
    {
      "inputs": [],
      "name": "usdbcDm",
      "outputs": [
        {
          "internalType": "uint256",
          "name": "",
          "type": "uint256"
        }
      ],
      "stateMutability": "view",
      "type": "function"
    },
    {
      "inputs": [],
      "name": "weth",
      "outputs": [
        {
          "internalType": "contract IERC20",
          "name": "",
          "type": "address"
        }
      ],
      "stateMutability": "view",
      "type": "function"
    }
  ],
  "numDeployments": 1,
  "solcInputHash": "e98c98a5b1f4d6cc8f3b9e6f620bf7f7",
  "bytecode": "0x60a0604052306080523480156200001557600080fd5b50600054610100900460ff1615808015620000375750600054600160ff909116105b8062000067575062000054306200014160201b620017671760201c565b15801562000067575060005460ff166001145b620000cf5760405162461bcd60e51b815260206004820152602e60248201527f496e697469616c697a61626c653a20636f6e747261637420697320616c72656160448201526d191e481a5b9a5d1a585b1a5e995960921b606482015260840160405180910390fd5b6000805460ff191660011790558015620000f3576000805461ff0019166101001790555b80156200013a576000805461ff0019169055604051600181527f7f26b83ff96e1f2b6a682f133852f6798a09c465da95921460cefb38474024989060200160405180910390a15b5062000150565b6001600160a01b03163b151590565b60805161472d620001886000396000818161084801528181610888015281816109270152818161096701526109f6015261472d6000f3fe60806040526004361061023b5760003560e01c8063620b75df1161012e578063a440b21a116100ab578063d547741f1161006f578063d547741f146106b1578063ef5cfb8c146106d1578063f1068454146106f1578063f4b9fa7514610708578063f6f6b8811461072957600080fd5b8063a440b21a1461061a578063a8aa1b311461063a578063adc9772e1461065b578063ae30c1101461067b578063bf52e0801461069b57600080fd5b8063811766fa116100f2578063811766fa146105a45780638129fc1c146105bb57806391d14854146105d0578063a217fddf146105f0578063a3673b381461060557600080fd5b8063620b75df1461050a57806362960f781461052a57806376bf1ddd1461054157806377520ccf146105625780637d5f58021461058257600080fd5b80633fc8cef3116101bc578063575a86b211610180578063575a86b21461045d5780635ca558f81461047e5780635dbd733a146104945780635f07c5f3146104c85780635f917f56146104e957600080fd5b80633fc8cef3146103d25780634aedabfd146103f35780634ddb1697146104145780634f1ef2861461043557806352d1902d1461044857600080fd5b80632576e65a116102035780632576e65a1461033a5780632c76d7a61461034f5780632f2ff15d1461037057806336568abe146103925780633659cfe6146103b257600080fd5b806301ffc9a714610240578063089fe6aa146102755780630bc798d2146102ad578063119cd879146102e6578063248a9ca31461030a575b600080fd5b34801561024c57600080fd5b5061026061025b366004613d91565b610749565b60405190151581526020015b60405180910390f35b34801561028157600080fd5b506101385461029990600160a01b900462ffffff1681565b60405162ffffff909116815260200161026c565b3480156102b957600080fd5b5061012e546102ce906001600160a01b031681565b6040516001600160a01b03909116815260200161026c565b3480156102f257600080fd5b506102fc60fd5481565b60405190815260200161026c565b34801561031657600080fd5b506102fc610325366004613dbb565b60009081526065602052604090206001015490565b34801561034657600080fd5b506102fc610780565b34801561035b57600080fd5b50610138546102ce906001600160a01b031681565b34801561037c57600080fd5b5061039061038b366004613deb565b610791565b005b34801561039e57600080fd5b506103906103ad366004613deb565b6107bb565b3480156103be57600080fd5b506103906103cd366004613e17565b61083e565b3480156103de57600080fd5b5061012f546102ce906001600160a01b031681565b3480156103ff57600080fd5b50610130546102ce906001600160a01b031681565b34801561042057600080fd5b50610132546102ce906001600160a01b031681565b610390610443366004613e79565b61091d565b34801561045457600080fd5b506102fc6109e9565b34801561046957600080fd5b50610135546102ce906001600160a01b031681565b34801561048a57600080fd5b506102fc60fe5481565b3480156104a057600080fd5b506102fc7fd67ad422505496469a1adf6cdf9e5ee92ac5d33992843c9ecc4b2f6d6cde913781565b3480156104d457600080fd5b50610131546102ce906001600160a01b031681565b3480156104f557600080fd5b50610133546102ce906001600160a01b031681565b34801561051657600080fd5b5060fb546102ce906001600160a01b031681565b34801561053657600080fd5b506102fc61013a5481565b34801561054d57600080fd5b50610134546102ce906001600160a01b031681565b34801561056e57600080fd5b5061039061057d366004613f1f565b610a9c565b34801561058e57600080fd5b506102fc60008051602061469183398151915281565b3480156105b057600080fd5b506102fc6101395481565b3480156105c757600080fd5b50610390610e72565b3480156105dc57600080fd5b506102606105eb366004613deb565b610f3c565b3480156105fc57600080fd5b506102fc600081565b34801561061157600080fd5b506102fc610f67565b34801561062657600080fd5b50610390610635366004613e17565b610f73565b34801561064657600080fd5b50610136546102ce906001600160a01b031681565b34801561066757600080fd5b50610390610676366004613f38565b6110a2565b34801561068757600080fd5b50610390610696366004613f62565b6112a5565b3480156106a757600080fd5b506102fc60fc5481565b3480156106bd57600080fd5b506103906106cc366004613deb565b61140b565b3480156106dd57600080fd5b506102fc6106ec366004613e17565b611430565b3480156106fd57600080fd5b506102fc6101375481565b34801561071457600080fd5b5061012d546102ce906001600160a01b031681565b34801561073557600080fd5b506102fc610744366004613f9c565b6114b5565b60006001600160e01b03198216637965db0b60e01b148061077a57506301ffc9a760e01b6001600160e01b03198316145b92915050565b600061078c6000611776565b905090565b6000828152606560205260409020600101546107ac816119fa565b6107b68383611a04565b505050565b6001600160a01b03811633146108305760405162461bcd60e51b815260206004820152602f60248201527f416363657373436f6e74726f6c3a2063616e206f6e6c792072656e6f756e636560448201526e103937b632b9903337b91039b2b63360891b60648201526084015b60405180910390fd5b61083a8282611a8a565b5050565b6001600160a01b037f00000000000000000000000000000000000000000000000000000000000000001630036108865760405162461bcd60e51b815260040161082790613feb565b7f00000000000000000000000000000000000000000000000000000000000000006001600160a01b03166108cf6000805160206146b1833981519152546001600160a01b031690565b6001600160a01b0316146108f55760405162461bcd60e51b815260040161082790614037565b6108fe81611af1565b6040805160008082526020820190925261091a91839190611afc565b50565b6001600160a01b037f00000000000000000000000000000000000000000000000000000000000000001630036109655760405162461bcd60e51b815260040161082790613feb565b7f00000000000000000000000000000000000000000000000000000000000000006001600160a01b03166109ae6000805160206146b1833981519152546001600160a01b031690565b6001600160a01b0316146109d45760405162461bcd60e51b815260040161082790614037565b6109dd82611af1565b61083a82826001611afc565b6000306001600160a01b037f00000000000000000000000000000000000000000000000000000000000000001614610a895760405162461bcd60e51b815260206004820152603860248201527f555550535570677261646561626c653a206d757374206e6f742062652063616c60448201527f6c6564207468726f7567682064656c656761746563616c6c00000000000000006064820152608401610827565b506000805160206146b183398151915290565b610aa7600033610f3c565b610aea5760405162461bcd60e51b81526020600482015260146024820152735265737472696374656420746f2061646d696e7360601b6044820152606401610827565b610af76020820182613e17565b61012d80546001600160a01b0319166001600160a01b0392909216919091179055610b286040820160208301613e17565b61012e80546001600160a01b0319166001600160a01b0392909216919091179055610b596060820160408301613e17565b61012f80546001600160a01b0319166001600160a01b0392909216919091179055610b8a6080820160608301613e17565b61013080546001600160a01b0319166001600160a01b0392909216919091179055610bbb60a0820160808301613e17565b61013180546001600160a01b0319166001600160a01b0392909216919091179055610bec60c0820160a08301613e17565b61013280546001600160a01b0319166001600160a01b0392909216919091179055610c1d60e0820160c08301613e17565b61013380546001600160a01b0319166001600160a01b0392909216919091179055610c4f610100820160e08301613e17565b61013480546001600160a01b0319166001600160a01b0392909216919091179055610c8261012082016101008301613e17565b61013580546001600160a01b0319166001600160a01b0392909216919091179055610cb561014082016101208301613e17565b61013680546001600160a01b0319166001600160a01b039290921691909117905561014081013561013755610cf261018082016101608301613e17565b61013880546001600160a01b0319166001600160a01b0392909216919091179055610d256101a082016101808301614083565b610138805462ffffff92909216600160a01b0262ffffff60a01b19909216919091179055610d566020820182613e17565b6001600160a01b031663313ce5676040518163ffffffff1660e01b8152600401602060405180830381865afa158015610d93573d6000803e3d6000fd5b505050506040513d601f19601f82011682018060405250810190610db791906140a8565b610dc290600a6141c5565b61013955610dd66040820160208301613e17565b6001600160a01b031663313ce5676040518163ffffffff1660e01b8152600401602060405180830381865afa158015610e13573d6000803e3d6000fd5b505050506040513d601f19601f82011682018060405250810190610e3791906140a8565b610e4290600a6141c5565b61013a556040517fea5646eb3528e525944447a4a97de700dd472298626e5c0481d1c82c3da86ea590600090a150565b600054610100900460ff1615808015610e925750600054600160ff909116105b80610eac5750303b158015610eac575060005460ff166001145b610ec85760405162461bcd60e51b8152600401610827906141d4565b6000805460ff191660011790558015610eeb576000805461ff0019166101001790555b610ef3611c67565b801561091a576000805461ff0019169055604051600181527f7f26b83ff96e1f2b6a682f133852f6798a09c465da95921460cefb3847402498906020015b60405180910390a150565b60009182526065602090815260408084206001600160a01b0393909316845291905290205460ff1690565b600061078c6001611776565b610f7e600033610f3c565b610fc15760405162461bcd60e51b81526020600482015260146024820152735265737472696374656420746f2061646d696e7360601b6044820152606401610827565b6001600160a01b0381166110175760405162461bcd60e51b815260206004820152601860248201527f5a65726f2061646472657373206e6f7420616c6c6f77656400000000000000006044820152606401610827565b60fb5461103c90600080516020614691833981519152906001600160a01b031661140b565b61105460008051602061469183398151915282610791565b60fb80546001600160a01b0319166001600160a01b0383169081179091556040519081527ff7b449fcd5cfb7379dcd34cb69428dd9f882033b15be33d83b42d91daa28eeb790602001610f31565b6110ba60008051602061469183398151915233610f3c565b6110d65760405162461bcd60e51b815260040161082790614222565b6000611145306001600160a01b031663a3673b386040518163ffffffff1660e01b8152600401602060405180830381865afa158015611119573d6000803e3d6000fd5b505050506040513d601f19601f8201168201806040525081019061113d9190614259565b60fd54611d4c565b6040516370a0823160e01b81523060048201529091506111bb9084906001600160a01b038216906370a0823190602401602060405180830381865afa158015611192573d6000803e3d6000fd5b505050506040513d601f19601f820116820180604052508101906111b69190614259565b611d76565b80306001600160a01b031663a3673b386040518163ffffffff1660e01b8152600401602060405180830381865afa1580156111fa573d6000803e3d6000fd5b505050506040513d601f19601f8201168201806040525081019061121e9190614259565b101561126c5760405162461bcd60e51b815260206004820152601f60248201527f5374726174656779204e4156206c657373207468616e206578706563746564006044820152606401610827565b6040518281527f227a473b70d2f893cc7659219575c030a63b5743024fe1e0c1a680e708b1525a906020015b60405180910390a1505050565b6112cf7fd67ad422505496469a1adf6cdf9e5ee92ac5d33992843c9ecc4b2f6d6cde913733610f3c565b80611367575060fb54604051632474521560e21b81527fd67ad422505496469a1adf6cdf9e5ee92ac5d33992843c9ecc4b2f6d6cde913760048201523360248201526001600160a01b03909116906391d1485490604401602060405180830381865afa158015611343573d6000803e3d6000fd5b505050506040513d601f19601f820116820180604052508101906113679190614272565b6113be5760405162461bcd60e51b815260206004820152602260248201527f5265737472696374656420746f20504f5254464f4c494f5f4147454e545f524f6044820152614c4560f01b6064820152608401610827565b60fc83905560fd82905560fe81905560408051848152602081018490529081018290527f116fbf1e97a2be629ad98abfb6c332733c8996c2dfb174dd2efe8440df381d1a90606001611298565b600082815260656020526040902060010154611426816119fa565b6107b68383611a8a565b600061144a60008051602061469183398151915233610f3c565b6114665760405162461bcd60e51b815260040161082790614222565b600061147183612449565b905080156114ad576040518181527f3ac0594a85a20354f9dc74f33728416d19ce00d04a406c108cc2dcf2cecea1349060200160405180910390a15b90505b919050565b60006114cf60008051602061469183398151915233610f3c565b6114eb5760405162461bcd60e51b815260040161082790614222565b600061152e306001600160a01b031663a3673b386040518163ffffffff1660e01b8152600401602060405180830381865afa158015611119573d6000803e3d6000fd5b905060008084156115555761154286612449565b905061154e88876126e2565b91506115c4565b611560888888612c8c565b9150868210156115c45760405162461bcd60e51b815260206004820152602960248201527f52657475726e65642076616c7565206c657373207468616e2072657175657374604482015268195908185b5bdd5b9d60ba1b6064820152608401610827565b82306001600160a01b031663a3673b386040518163ffffffff1660e01b8152600401602060405180830381865afa158015611603573d6000803e3d6000fd5b505050506040513d601f19601f820116820180604052508101906116279190614259565b10156116755760405162461bcd60e51b815260206004820152601f60248201527f5374726174656779204e4156206c657373207468616e206578706563746564006044820152606401610827565b60405163a9059cbb60e01b81526001600160a01b0387811660048301526024820184905289169063a9059cbb906044016020604051808303816000875af11580156116c4573d6000803e3d6000fd5b505050506040513d601f19601f820116820180604052508101906116e89190614272565b5060408051888152602081018490527f9045c2ac9b2026de8075f2701bbdde882cd5e830b3b1ead9a15b22f2b5b93742910160405180910390a1801561175c576040518181527f3ac0594a85a20354f9dc74f33728416d19ce00d04a406c108cc2dcf2cecea1349060200160405180910390a15b509695505050505050565b6001600160a01b03163b151590565b61012d546040516370a0823160e01b815230600482015260009182916001600160a01b03909116906370a0823190602401602060405180830381865afa1580156117c4573d6000803e3d6000fd5b505050506040513d601f19601f820116820180604052508101906117e89190614259565b61012e546040516370a0823160e01b81523060048201529192506000916001600160a01b03909116906370a0823190602401602060405180830381865afa158015611837573d6000803e3d6000fd5b505050506040513d601f19601f8201168201806040525081019061185b9190614259565b61013554610137546040516393f1a40b60e01b815260048101919091523060248201529192506000916001600160a01b03909116906393f1a40b90604401608060405180830381865afa1580156118b6573d6000803e3d6000fd5b505050506040513d601f19601f820116820180604052508101906118da919061428f565b51905080156119aa576101345460405163797d695b60e11b8152600481018390526000916001600160a01b03169063f2fad2b690602401600060405180830381865afa15801561192e573d6000803e3d6000fd5b505050506040513d6000823e601f3d908101601f1916820160405261195691908101906142f5565b90508060018151811061196b5761196b61439b565b60200260200101518461197e91906143b1565b9350806000815181106119935761199361439b565b6020026020010151836119a691906143b1565b9250505b81156119f15784156119d0576119bf8261322b565b6119c990846143b1565b92506119f1565b6119e46119dc8361322b565b60fc54611d4c565b6119ee90846143b1565b92505b50909392505050565b61091a813361327f565b611a0e8282610f3c565b61083a5760008281526065602090815260408083206001600160a01b03851684529091529020805460ff19166001179055611a463390565b6001600160a01b0316816001600160a01b0316837f2f8788117e7eff1d82e926ec794901d17c78024a50270940304540a733656f0d60405160405180910390a45050565b611a948282610f3c565b1561083a5760008281526065602090815260408083206001600160a01b0385168085529252808320805460ff1916905551339285917ff6391f5c32d9c69d2a47ea670b442974b53935d1edc7fd64eb21e047a839171b9190a45050565b600061083a816119fa565b7f4910fdfa16fed3260ed0e7147f7cc6da11a60208b5b9406d12a635614ffd91435460ff1615611b2f576107b6836132d8565b826001600160a01b03166352d1902d6040518163ffffffff1660e01b8152600401602060405180830381865afa925050508015611b89575060408051601f3d908101601f19168201909252611b8691810190614259565b60015b611bec5760405162461bcd60e51b815260206004820152602e60248201527f45524331393637557067726164653a206e657720696d706c656d656e7461746960448201526d6f6e206973206e6f74205555505360901b6064820152608401610827565b6000805160206146b18339815191528114611c5b5760405162461bcd60e51b815260206004820152602960248201527f45524331393637557067726164653a20756e737570706f727465642070726f786044820152681a58589b195555525160ba1b6064820152608401610827565b506107b6838383613374565b600054610100900460ff1615808015611c875750600054600160ff909116105b80611ca15750303b158015611ca1575060005460ff166001145b611cbd5760405162461bcd60e51b8152600401610827906141d4565b6000805460ff191660011790558015611ce0576000805461ff0019166101001790555b611ce861339f565b611cf061339f565b611cfb600033611a04565b601460fc81905560fd55600460fe55801561091a576000805461ff0019169055604051600181527f7f26b83ff96e1f2b6a682f133852f6798a09c465da95921460cefb384740249890602001610f31565b6000612710611d5b83826143c4565b611d6590856143d7565b611d6f91906143ee565b9392505050565b61012d54610134546040516370a0823160e01b81526001600160a01b03918216600482015260009291909116906370a0823190602401602060405180830381865afa158015611dc9573d6000803e3d6000fd5b505050506040513d601f19601f82011682018060405250810190611ded9190614259565b61012e54610134546040516370a0823160e01b81526001600160a01b0391821660048201529293506000929116906370a0823190602401602060405180830381865afa158015611e41573d6000803e3d6000fd5b505050506040513d601f19601f82011682018060405250810190611e659190614259565b61012d546040516370a0823160e01b81523060048201529192506000916001600160a01b03909116906370a0823190602401602060405180830381865afa158015611eb4573d6000803e3d6000fd5b505050506040513d601f19601f82011682018060405250810190611ed89190614259565b90506000826101395461013a5486611ef091906143d7565b611efa91906143ee565b611f0491906143b1565b611f0e84846143d7565b611f1891906143ee565b90506000611f286119dc8361340c565b9050600061013660009054906101000a90046001600160a01b03166001600160a01b03166318160ddd6040518163ffffffff1660e01b8152600401602060405180830381865afa158015611f80573d6000803e3d6000fd5b505050506040513d601f19601f82011682018060405250810190611fa49190614259565b90506000611fee61013a546101395488611fbe91906143d7565b611fc891906143ee565b611fd290896143b1565b611fdc87856143d7565b611fe691906143ee565b60fe54611d4c565b6101385461012d5461012e54929350612028926001600160a01b038084169392811692911690600160a01b900462ffffff16308989613458565b5061012d546040516370a0823160e01b81523060048201526001600160a01b03909116906370a0823190602401602060405180830381865afa158015612072573d6000803e3d6000fd5b505050506040513d601f19601f820116820180604052508101906120969190614259565b61012e546040516370a0823160e01b81523060048201529196506000916001600160a01b03909116906370a0823190602401602060405180830381865afa1580156120e5573d6000803e3d6000fd5b505050506040513d601f19601f820116820180604052508101906121099190614259565b604080516002808252606082018352929350600092909160208301908036833701905050905081816000815181106121435761214361439b565b60200260200101818152505086816001815181106121635761216361439b565b602090810291909101015261012d546101345460405163095ea7b360e01b81526001600160a01b039182166004820152602481018a905291169063095ea7b3906044016020604051808303816000875af11580156121c5573d6000803e3d6000fd5b505050506040513d601f19601f820116820180604052508101906121e99190614272565b5061012e546101345460405163095ea7b360e01b81526001600160a01b0391821660048201526024810185905291169063095ea7b3906044016020604051808303816000875af1158015612241573d6000803e3d6000fd5b505050506040513d601f19601f820116820180604052508101906122659190614272565b5061013454604051634d49e87d60e01b81526001600160a01b0390911690634d49e87d9061229b9084908790429060040161444b565b6020604051808303816000875af11580156122ba573d6000803e3d6000fd5b505050506040513d601f19601f820116820180604052508101906122de9190614259565b50610136546040516370a0823160e01b81523060048201526000916001600160a01b0316906370a0823190602401602060405180830381865afa158015612329573d6000803e3d6000fd5b505050506040513d601f19601f8201168201806040525081019061234d9190614259565b610136546101355460405163095ea7b360e01b81526001600160a01b03918216600482015260248101849052929350169063095ea7b3906044016020604051808303816000875af11580156123a6573d6000803e3d6000fd5b505050506040513d601f19601f820116820180604052508101906123ca9190614272565b506101355461013754604051631c57762b60e31b81526001600160a01b039092169163e2bbb15891612409918590600401918252602082015260400190565b600060405180830381600087803b15801561242357600080fd5b505af1158015612437573d6000803e3d6000fd5b50505050505050505050505050505050565b61013554610137546040516393f1a40b60e01b8152600481019190915230602482015260009182916001600160a01b03909116906393f1a40b90604401608060405180830381865afa1580156124a3573d6000803e3d6000fd5b505050506040513d601f19601f820116820180604052508101906124c7919061428f565b519050801561253c576101355461013754604051631c57762b60e31b81526004810191909152600060248201526001600160a01b039091169063e2bbb15890604401600060405180830381600087803b15801561252357600080fd5b505af1158015612537573d6000803e3d6000fd5b505050505b610130546040516370a0823160e01b815230600482015260009182916001600160a01b03909116906370a0823190602401602060405180830381865afa15801561258a573d6000803e3d6000fd5b505050506040513d601f19601f820116820180604052508101906125ae9190614259565b9050801561265a57610133546101305461012f5461012e546000936125e8936001600160a01b0391821693908216929082169116866135c4565b9050801561265857610133546101305461012f5461012e5461012d5461264b946001600160a01b0390811694811693811692811691168760646126308964e8d4a510006143d7565b61263b9060636143d7565b61264591906143ee565b30613714565b61265590846143b1565b92505b505b81156126da5761012d5460405163a9059cbb60e01b81526001600160a01b038781166004830152602482018590529091169063a9059cbb906044016020604051808303816000875af11580156126b4573d6000803e3d6000fd5b505050506040513d601f19601f820116820180604052508101906126d89190614272565b505b509392505050565b61013554610137546040516393f1a40b60e01b8152600481019190915230602482015260009182916001600160a01b03909116906393f1a40b90604401608060405180830381865afa15801561273c573d6000803e3d6000fd5b505050506040513d601f19601f82011682018060405250810190612760919061428f565b51905060008190036127e15761012d546040516370a0823160e01b81523060048201526001600160a01b03909116906370a0823190602401602060405180830381865afa1580156127b5573d6000803e3d6000fd5b505050506040513d601f19601f820116820180604052508101906127d99190614259565b91505061077a565b61013654604080516318160ddd60e01b815290516000926001600160a01b0316916318160ddd9160048083019260209291908290030181865afa15801561282c573d6000803e3d6000fd5b505050506040513d601f19601f820116820180604052508101906128509190614259565b61012d54610134546040516370a0823160e01b81526001600160a01b0391821660048201529293506000929116906370a0823190602401602060405180830381865afa1580156128a4573d6000803e3d6000fd5b505050506040513d601f19601f820116820180604052508101906128c89190614259565b61012e54610134546040516370a0823160e01b81526001600160a01b0391821660048201529293506000929116906370a0823190602401602060405180830381865afa15801561291c573d6000803e3d6000fd5b505050506040513d601f19601f820116820180604052508101906129409190614259565b905060008361294f86856143d7565b61295991906143ee565b905060008461296887856143d7565b61297291906143ee565b60408051600280825260608201835292935060009290916020830190803683370190505090506129a48260fe54611d4c565b816000815181106129b7576129b761439b565b6020026020010181815250506129cf8360fe54611d4c565b816001815181106129e2576129e261439b565b60209081029190910101526101355461013754604051630441a3e760e41b81526001600160a01b039092169163441a3e7091612a2b918b90600401918252602082015260400190565b600060405180830381600087803b158015612a4557600080fd5b505af1158015612a59573d6000803e3d6000fd5b5050610136546101345460405163095ea7b360e01b81526001600160a01b039182166004820152602481018c90529116925063095ea7b391506044016020604051808303816000875af1158015612ab4573d6000803e3d6000fd5b505050506040513d601f19601f82011682018060405250810190612ad89190614272565b506101345460405163031cd52b60e41b81526001600160a01b03909116906331cd52b090612b0e908a9085904290600401614470565b6000604051808303816000875af1158015612b2d573d6000803e3d6000fd5b505050506040513d6000823e601f3d908101601f19168201604052612b5591908101906142f5565b5061012e546040516370a0823160e01b81523060048201526000916001600160a01b0316906370a0823190602401602060405180830381865afa158015612ba0573d6000803e3d6000fd5b505050506040513d601f19601f82011682018060405250810190612bc49190614259565b90506000612bd46119dc8361322b565b6101385461012e5461012d54929350612c0e926001600160a01b038084169392811692911690600160a01b900462ffffff16308787613458565b5061012d546040516370a0823160e01b81523060048201526001600160a01b03909116906370a0823190602401602060405180830381865afa158015612c58573d6000803e3d6000fd5b505050506040513d601f19601f82011682018060405250810190612c7c9190614259565b9c9b505050505050505050505050565b60008061013660009054906101000a90046001600160a01b03166001600160a01b03166318160ddd6040518163ffffffff1660e01b8152600401602060405180830381865afa158015612ce3573d6000803e3d6000fd5b505050506040513d601f19601f82011682018060405250810190612d079190614259565b61012d54610134546040516370a0823160e01b81526001600160a01b0391821660048201529293506000929116906370a0823190602401602060405180830381865afa158015612d5b573d6000803e3d6000fd5b505050506040513d601f19601f82011682018060405250810190612d7f9190614259565b61012e54610134546040516370a0823160e01b81526001600160a01b0391821660048201529293506000929116906370a0823190602401602060405180830381865afa158015612dd3573d6000803e3d6000fd5b505050506040513d601f19601f82011682018060405250810190612df79190614259565b90506000612e11612e0988600a6143b1565b60fc54613918565b9050600061013a546101395484612e2891906143d7565b612e3291906143ee565b612e3c90856143b1565b612e4683876143d7565b612e5091906143ee565b61013554610137546040516393f1a40b60e01b815260048101919091523060248201529192506000916001600160a01b03909116906393f1a40b90604401608060405180830381865afa158015612eab573d6000803e3d6000fd5b505050506040513d601f19601f82011682018060405250810190612ecf919061428f565b51905080821115612ede578091505b600086612eeb84886143d7565b612ef591906143ee565b9050600087612f0485886143d7565b612f0e91906143ee565b6040805160028082526060820183529293506000929091602083019080368337019050509050612f408260fe54611d4c565b81600081518110612f5357612f5361439b565b602002602001018181525050612f6b8360fe54611d4c565b81600181518110612f7e57612f7e61439b565b60209081029190910101526101355461013754604051630441a3e760e41b81526001600160a01b039092169163441a3e7091612fc7918990600401918252602082015260400190565b600060405180830381600087803b158015612fe157600080fd5b505af1158015612ff5573d6000803e3d6000fd5b5050610136546101345460405163095ea7b360e01b81526001600160a01b039182166004820152602481018a90529116925063095ea7b391506044016020604051808303816000875af1158015613050573d6000803e3d6000fd5b505050506040513d601f19601f820116820180604052508101906130749190614272565b506101345460405163031cd52b60e41b81526001600160a01b03909116906331cd52b0906130aa90889085904290600401614470565b6000604051808303816000875af11580156130c9573d6000803e3d6000fd5b505050506040513d6000823e601f3d908101601f191682016040526130f191908101906142f5565b5061012e546040516370a0823160e01b81523060048201526000916001600160a01b0316906370a0823190602401602060405180830381865afa15801561313c573d6000803e3d6000fd5b505050506040513d601f19601f820116820180604052508101906131609190614259565b905060006131706119dc8361322b565b6101385461012e5461012d549293506131aa926001600160a01b038084169392811692911690600160a01b900462ffffff16308787613458565b5061012d546040516370a0823160e01b81523060048201526001600160a01b03909116906370a0823190602401602060405180830381865afa1580156131f4573d6000803e3d6000fd5b505050506040513d601f19601f820116820180604052508101906132189190614259565b9f9e505050505050505050505050505050565b610132546000908190613246906001600160a01b0316613927565b61013154909150600090613262906001600160a01b0316613927565b90506132778461013a54610139548585613a3c565b949350505050565b6132898282610f3c565b61083a5761329681613a71565b6132a1836020613a83565b6040516020016132b29291906144bd565b60408051601f198184030181529082905262461bcd60e51b825261082791600401614532565b6001600160a01b0381163b6133455760405162461bcd60e51b815260206004820152602d60248201527f455243313936373a206e657720696d706c656d656e746174696f6e206973206e60448201526c1bdd08184818dbdb9d1c9858dd609a1b6064820152608401610827565b6000805160206146b183398151915280546001600160a01b0319166001600160a01b0392909216919091179055565b61337d83613c1f565b60008251118061338a5750805b156107b6576133998383613c5f565b50505050565b600054610100900460ff1661340a5760405162461bcd60e51b815260206004820152602b60248201527f496e697469616c697a61626c653a20636f6e7472616374206973206e6f74206960448201526a6e697469616c697a696e6760a81b6064820152608401610827565b565b610132546000908190613427906001600160a01b0316613927565b61013154909150600090613443906001600160a01b0316613927565b9050613277846101395461013a548486613a3c565b60405163095ea7b360e01b81526001600160a01b038881166004830152602482018490526000919088169063095ea7b3906044016020604051808303816000875af11580156134ab573d6000803e3d6000fd5b505050506040513d601f19601f820116820180604052508101906134cf9190614272565b506040805160e0810182526001600160a01b0389811682528881166020830190815262ffffff89811684860190815289841660608601908152608086018a815260a087018a8152600060c0890190815298516304e45aaf60e01b8152885188166004820152955187166024870152925190931660448501525184166064840152905160848301525160a48201529251811660c48401529091908a16906304e45aaf9060e4016020604051808303816000875af1158015613593573d6000803e3d6000fd5b505050506040513d601f19601f820116820180604052508101906135b79190614259565b9998505050505050505050565b604080516003808252608082019092526000918291906020820160608036833701905050905085816000815181106135fe576135fe61439b565b60200260200101906001600160a01b031690816001600160a01b03168152505084816001815181106136325761363261439b565b60200260200101906001600160a01b031690816001600160a01b03168152505083816002815181106136665761366661439b565b6001600160a01b03928316602091820292909201015260405163d06ca61f60e01b815260009189169063d06ca61f906136a5908790869060040161459e565b600060405180830381865afa1580156136c2573d6000803e3d6000fd5b505050506040513d6000823e601f3d908101601f191682016040526136ea91908101906142f5565b9050806002815181106136ff576136ff61439b565b60200260200101519250505095945050505050565b60405163095ea7b360e01b81526001600160a01b038981166004830152602482018590526000919089169063095ea7b3906044016020604051808303816000875af1158015613767573d6000803e3d6000fd5b505050506040513d601f19601f8201168201806040525081019061378b9190614272565b5060408051600480825260a082019092526000916020820160808036833701905050905088816000815181106137c3576137c361439b565b60200260200101906001600160a01b031690816001600160a01b03168152505087816001815181106137f7576137f761439b565b60200260200101906001600160a01b031690816001600160a01b031681525050868160028151811061382b5761382b61439b565b60200260200101906001600160a01b031690816001600160a01b031681525050858160038151811061385f5761385f61439b565b6001600160a01b0392831660209182029290920101526040516338ed173960e01b81526000918c16906338ed1739906138a4908990899087908a9042906004016145b7565b6000604051808303816000875af11580156138c3573d6000803e3d6000fd5b505050506040513d6000823e601f3d908101601f191682016040526138eb91908101906142f5565b9050806003815181106139005761390061439b565b60200260200101519250505098975050505050505050565b6000612710611d5b83826143b1565b6000806000806000856001600160a01b031663feaf968c6040518163ffffffff1660e01b815260040160a060405180830381865afa15801561396d573d6000803e3d6000fd5b505050506040513d601f19601f82011682018060405250810190613991919061460d565b9450945050935093508369ffffffffffffffffffff168169ffffffffffffffffffff1610156139ed5760405162461bcd60e51b81526020600482015260086024820152674f6c64206461746160c01b6044820152606401610827565b60008211613a325760405162461bcd60e51b8152602060048201526012602482015271526f756e64206e6f7420636f6d706c65746560701b6044820152606401610827565b5090949350505050565b6000613a4882866143d7565b83613a5386896143d7565b613a5d91906143d7565b613a6791906143ee565b9695505050505050565b606061077a6001600160a01b03831660145b60606000613a928360026143d7565b613a9d9060026143b1565b67ffffffffffffffff811115613ab557613ab5613e32565b6040519080825280601f01601f191660200182016040528015613adf576020820181803683370190505b509050600360fc1b81600081518110613afa57613afa61439b565b60200101906001600160f81b031916908160001a905350600f60fb1b81600181518110613b2957613b2961439b565b60200101906001600160f81b031916908160001a9053506000613b4d8460026143d7565b613b589060016143b1565b90505b6001811115613bd0576f181899199a1a9b1b9c1cb0b131b232b360811b85600f1660108110613b8c57613b8c61439b565b1a60f81b828281518110613ba257613ba261439b565b60200101906001600160f81b031916908160001a90535060049490941c93613bc98161465d565b9050613b5b565b508315611d6f5760405162461bcd60e51b815260206004820181905260248201527f537472696e67733a20686578206c656e67746820696e73756666696369656e746044820152606401610827565b613c28816132d8565b6040516001600160a01b038216907fbc7cd75a20ee27fd9adebab32041f755214dbc6bffa90cc0225b39da2e5c2d3b90600090a250565b60606001600160a01b0383163b613cc75760405162461bcd60e51b815260206004820152602660248201527f416464726573733a2064656c65676174652063616c6c20746f206e6f6e2d636f6044820152651b9d1c9858dd60d21b6064820152608401610827565b600080846001600160a01b031684604051613ce29190614674565b600060405180830381855af49150503d8060008114613d1d576040519150601f19603f3d011682016040523d82523d6000602084013e613d22565b606091505b5091509150613d4a82826040518060600160405280602781526020016146d160279139613d53565b95945050505050565b60608315613d62575081611d6f565b611d6f8383815115613d775781518083602001fd5b8060405162461bcd60e51b81526004016108279190614532565b600060208284031215613da357600080fd5b81356001600160e01b031981168114611d6f57600080fd5b600060208284031215613dcd57600080fd5b5035919050565b80356001600160a01b03811681146114b057600080fd5b60008060408385031215613dfe57600080fd5b82359150613e0e60208401613dd4565b90509250929050565b600060208284031215613e2957600080fd5b611d6f82613dd4565b634e487b7160e01b600052604160045260246000fd5b604051601f8201601f1916810167ffffffffffffffff81118282101715613e7157613e71613e32565b604052919050565b60008060408385031215613e8c57600080fd5b613e9583613dd4565b915060208084013567ffffffffffffffff80821115613eb357600080fd5b818601915086601f830112613ec757600080fd5b813581811115613ed957613ed9613e32565b613eeb601f8201601f19168501613e48565b91508082528784828501011115613f0157600080fd5b80848401858401376000848284010152508093505050509250929050565b60006101a08284031215613f3257600080fd5b50919050565b60008060408385031215613f4b57600080fd5b613f5483613dd4565b946020939093013593505050565b600080600060608486031215613f7757600080fd5b505081359360208301359350604090920135919050565b801515811461091a57600080fd5b60008060008060808587031215613fb257600080fd5b613fbb85613dd4565b935060208501359250613fd060408601613dd4565b91506060850135613fe081613f8e565b939692955090935050565b6020808252602c908201527f46756e6374696f6e206d7573742062652063616c6c6564207468726f7567682060408201526b19195b1959d85d1958d85b1b60a21b606082015260800190565b6020808252602c908201527f46756e6374696f6e206d7573742062652063616c6c6564207468726f7567682060408201526b6163746976652070726f787960a01b606082015260800190565b60006020828403121561409557600080fd5b813562ffffff81168114611d6f57600080fd5b6000602082840312156140ba57600080fd5b815160ff81168114611d6f57600080fd5b634e487b7160e01b600052601160045260246000fd5b600181815b8085111561411c578160001904821115614102576141026140cb565b8085161561410f57918102915b93841c93908002906140e6565b509250929050565b6000826141335750600161077a565b816141405750600061077a565b816001811461415657600281146141605761417c565b600191505061077a565b60ff841115614171576141716140cb565b50506001821b61077a565b5060208310610133831016604e8410600b841016171561419f575081810a61077a565b6141a983836140e1565b80600019048211156141bd576141bd6140cb565b029392505050565b6000611d6f60ff841683614124565b6020808252602e908201527f496e697469616c697a61626c653a20636f6e747261637420697320616c72656160408201526d191e481a5b9a5d1a585b1a5e995960921b606082015260800190565b6020808252601f908201527f5265737472696374656420746f20504f5254464f4c494f5f4d414e4147455200604082015260600190565b60006020828403121561426b57600080fd5b5051919050565b60006020828403121561428457600080fd5b8151611d6f81613f8e565b6000608082840312156142a157600080fd5b6040516080810181811067ffffffffffffffff821117156142c4576142c4613e32565b8060405250825181526020830151602082015260408301516040820152606083015160608201528091505092915050565b6000602080838503121561430857600080fd5b825167ffffffffffffffff8082111561432057600080fd5b818501915085601f83011261433457600080fd5b81518181111561434657614346613e32565b8060051b9150614357848301613e48565b818152918301840191848101908884111561437157600080fd5b938501935b8385101561438f57845182529385019390850190614376565b98975050505050505050565b634e487b7160e01b600052603260045260246000fd5b8082018082111561077a5761077a6140cb565b8181038181111561077a5761077a6140cb565b808202811582820484141761077a5761077a6140cb565b60008261440b57634e487b7160e01b600052601260045260246000fd5b500490565b600081518084526020808501945080840160005b8381101561444057815187529582019590820190600101614424565b509495945050505050565b60608152600061445e6060830186614410565b60208301949094525060400152919050565b8381526060602082015260006144896060830185614410565b9050826040830152949350505050565b60005b838110156144b457818101518382015260200161449c565b50506000910152565b7f416363657373436f6e74726f6c3a206163636f756e74200000000000000000008152600083516144f5816017850160208801614499565b7001034b99036b4b9b9b4b733903937b6329607d1b6017918401918201528351614526816028840160208801614499565b01602801949350505050565b6020815260008251806020840152614551816040850160208701614499565b601f01601f19169190910160400192915050565b600081518084526020808501945080840160005b838110156144405781516001600160a01b031687529582019590820190600101614579565b8281526040602082015260006132776040830184614565565b85815284602082015260a0604082015260006145d660a0830186614565565b6001600160a01b0394909416606083015250608001529392505050565b805169ffffffffffffffffffff811681146114b057600080fd5b600080600080600060a0868803121561462557600080fd5b61462e866145f3565b9450602086015193506040860151925060608601519150614651608087016145f3565b90509295509295909350565b60008161466c5761466c6140cb565b506000190190565b60008251614686818460208701614499565b919091019291505056fe90c2aa7471c04182221f68e80c07ab1e5946e4c63f8693e14ca40385d529f051360894a13ba1a3210667c828492db98dca3e2076cc3735a920a3ca505d382bbc416464726573733a206c6f772d6c6576656c2064656c65676174652063616c6c206661696c6564a26469706673582212202c3aaf6b1bb694dcee762b565ed7c785b5dc8429540692ef0a86811a1048528e64736f6c63430008110033",
  "implementation": "0x972C744b5fdaF2367769e53A8bF6732667cf6c2D",
  "devdoc": {
    "kind": "dev",
    "methods": {
      "constructor": {
        "custom:oz-upgrades-unsafe-allow": "constructor"
      },
      "getRoleAdmin(bytes32)": {
        "details": "Returns the admin role that controls `role`. See {grantRole} and {revokeRole}. To change a role's admin, use {_setRoleAdmin}."
      },
      "grantRole(bytes32,address)": {
        "details": "Grants `role` to `account`. If `account` had not been already granted `role`, emits a {RoleGranted} event. Requirements: - the caller must have ``role``'s admin role. May emit a {RoleGranted} event."
      },
      "hasRole(bytes32,address)": {
        "details": "Returns `true` if `account` has been granted `role`."
      },
      "proxiableUUID()": {
        "details": "Implementation of the ERC1822 {proxiableUUID} function. This returns the storage slot used by the implementation. It is used to validate the implementation's compatibility when performing an upgrade. IMPORTANT: A proxy pointing at a proxiable contract should not be considered proxiable itself, because this risks bricking a proxy that upgrades to it, by delegating to itself until out of gas. Thus it is critical that this function revert if invoked through a proxy. This is guaranteed by the `notDelegated` modifier."
      },
      "renounceRole(bytes32,address)": {
        "details": "Revokes `role` from the calling account. Roles are often managed via {grantRole} and {revokeRole}: this function's purpose is to provide a mechanism for accounts to lose their privileges if they are compromised (such as when a trusted device is misplaced). If the calling account had been revoked `role`, emits a {RoleRevoked} event. Requirements: - the caller must be `account`. May emit a {RoleRevoked} event."
      },
      "revokeRole(bytes32,address)": {
        "details": "Revokes `role` from `account`. If `account` had been granted `role`, emits a {RoleRevoked} event. Requirements: - the caller must have ``role``'s admin role. May emit a {RoleRevoked} event."
      },
      "supportsInterface(bytes4)": {
        "details": "See {IERC165-supportsInterface}."
      },
      "upgradeTo(address)": {
        "details": "Upgrade the implementation of the proxy to `newImplementation`. Calls {_authorizeUpgrade}. Emits an {Upgraded} event."
      },
      "upgradeToAndCall(address,bytes)": {
        "details": "Upgrade the implementation of the proxy to `newImplementation`, and subsequently execute the function call encoded in `data`. Calls {_authorizeUpgrade}. Emits an {Upgraded} event."
      }
    },
    "version": 1
  },
  "userdoc": {
    "kind": "user",
    "methods": {},
    "version": 1
  },
  "storageLayout": {
    "storage": [
      {
        "astId": 804,
        "contract": "contracts/dai/StrategyAlienBaseDaiUsdbc.sol:StrategyAlienBaseDaiUsdbc",
        "label": "_initialized",
        "offset": 0,
        "slot": "0",
        "type": "t_uint8"
      },
      {
        "astId": 807,
        "contract": "contracts/dai/StrategyAlienBaseDaiUsdbc.sol:StrategyAlienBaseDaiUsdbc",
        "label": "_initializing",
        "offset": 1,
        "slot": "0",
        "type": "t_bool"
      },
      {
        "astId": 1427,
        "contract": "contracts/dai/StrategyAlienBaseDaiUsdbc.sol:StrategyAlienBaseDaiUsdbc",
        "label": "__gap",
        "offset": 0,
        "slot": "1",
        "type": "t_array(t_uint256)50_storage"
      },
      {
        "astId": 1706,
        "contract": "contracts/dai/StrategyAlienBaseDaiUsdbc.sol:StrategyAlienBaseDaiUsdbc",
        "label": "__gap",
        "offset": 0,
        "slot": "51",
        "type": "t_array(t_uint256)50_storage"
      },
      {
        "astId": 39,
        "contract": "contracts/dai/StrategyAlienBaseDaiUsdbc.sol:StrategyAlienBaseDaiUsdbc",
        "label": "_roles",
        "offset": 0,
        "slot": "101",
        "type": "t_mapping(t_bytes32,t_struct(RoleData)34_storage)"
      },
      {
        "astId": 334,
        "contract": "contracts/dai/StrategyAlienBaseDaiUsdbc.sol:StrategyAlienBaseDaiUsdbc",
        "label": "__gap",
        "offset": 0,
        "slot": "102",
        "type": "t_array(t_uint256)49_storage"
      },
      {
        "astId": 786,
        "contract": "contracts/dai/StrategyAlienBaseDaiUsdbc.sol:StrategyAlienBaseDaiUsdbc",
        "label": "__gap",
        "offset": 0,
        "slot": "151",
        "type": "t_array(t_uint256)50_storage"
      },
      {
        "astId": 1101,
        "contract": "contracts/dai/StrategyAlienBaseDaiUsdbc.sol:StrategyAlienBaseDaiUsdbc",
        "label": "__gap",
        "offset": 0,
        "slot": "201",
        "type": "t_array(t_uint256)50_storage"
      },
      {
        "astId": 14799,
        "contract": "contracts/dai/StrategyAlienBaseDaiUsdbc.sol:StrategyAlienBaseDaiUsdbc",
        "label": "portfolioManager",
        "offset": 0,
        "slot": "251",
        "type": "t_address"
      },
      {
        "astId": 14801,
        "contract": "contracts/dai/StrategyAlienBaseDaiUsdbc.sol:StrategyAlienBaseDaiUsdbc",
        "label": "swapSlippageBP",
        "offset": 0,
        "slot": "252",
        "type": "t_uint256"
      },
      {
        "astId": 14803,
        "contract": "contracts/dai/StrategyAlienBaseDaiUsdbc.sol:StrategyAlienBaseDaiUsdbc",
        "label": "navSlippageBP",
        "offset": 0,
        "slot": "253",
        "type": "t_uint256"
      },
      {
        "astId": 14805,
        "contract": "contracts/dai/StrategyAlienBaseDaiUsdbc.sol:StrategyAlienBaseDaiUsdbc",
        "label": "stakeSlippageBP",
        "offset": 0,
        "slot": "254",
        "type": "t_uint256"
      },
      {
        "astId": 15190,
        "contract": "contracts/dai/StrategyAlienBaseDaiUsdbc.sol:StrategyAlienBaseDaiUsdbc",
        "label": "__gap",
        "offset": 0,
        "slot": "255",
        "type": "t_array(t_uint256)46_storage"
      },
      {
        "astId": 19906,
        "contract": "contracts/dai/StrategyAlienBaseDaiUsdbc.sol:StrategyAlienBaseDaiUsdbc",
        "label": "dai",
        "offset": 0,
        "slot": "301",
        "type": "t_contract(IERC20)2662"
      },
      {
        "astId": 19909,
        "contract": "contracts/dai/StrategyAlienBaseDaiUsdbc.sol:StrategyAlienBaseDaiUsdbc",
        "label": "usdbc",
        "offset": 0,
        "slot": "302",
        "type": "t_contract(IERC20)2662"
      },
      {
        "astId": 19912,
        "contract": "contracts/dai/StrategyAlienBaseDaiUsdbc.sol:StrategyAlienBaseDaiUsdbc",
        "label": "weth",
        "offset": 0,
        "slot": "303",
        "type": "t_contract(IERC20)2662"
      },
      {
        "astId": 19915,
        "contract": "contracts/dai/StrategyAlienBaseDaiUsdbc.sol:StrategyAlienBaseDaiUsdbc",
        "label": "alb",
        "offset": 0,
        "slot": "304",
        "type": "t_contract(IERC20)2662"
      },
      {
        "astId": 19918,
        "contract": "contracts/dai/StrategyAlienBaseDaiUsdbc.sol:StrategyAlienBaseDaiUsdbc",
        "label": "oracleDai",
        "offset": 0,
        "slot": "305",
        "type": "t_contract(IPriceFeed)11509"
      },
      {
        "astId": 19921,
        "contract": "contracts/dai/StrategyAlienBaseDaiUsdbc.sol:StrategyAlienBaseDaiUsdbc",
        "label": "oracleUsdbc",
        "offset": 0,
        "slot": "306",
        "type": "t_contract(IPriceFeed)11509"
      },
      {
        "astId": 19924,
        "contract": "contracts/dai/StrategyAlienBaseDaiUsdbc.sol:StrategyAlienBaseDaiUsdbc",
        "label": "alienBaseRouter",
        "offset": 0,
        "slot": "307",
        "type": "t_contract(IAlienBaseRouter02)5595"
      },
      {
        "astId": 19927,
        "contract": "contracts/dai/StrategyAlienBaseDaiUsdbc.sol:StrategyAlienBaseDaiUsdbc",
        "label": "swapFlashLoan",
        "offset": 0,
        "slot": "308",
        "type": "t_contract(ISwapFlashLoan)6204"
      },
      {
        "astId": 19930,
        "contract": "contracts/dai/StrategyAlienBaseDaiUsdbc.sol:StrategyAlienBaseDaiUsdbc",
        "label": "masterChef",
        "offset": 0,
        "slot": "309",
        "type": "t_contract(IBasedDistributorV2)5992"
      },
      {
        "astId": 19933,
        "contract": "contracts/dai/StrategyAlienBaseDaiUsdbc.sol:StrategyAlienBaseDaiUsdbc",
        "label": "pair",
        "offset": 0,
        "slot": "310",
        "type": "t_contract(IERC20)2662"
      },
      {
        "astId": 19935,
        "contract": "contracts/dai/StrategyAlienBaseDaiUsdbc.sol:StrategyAlienBaseDaiUsdbc",
        "label": "pid",
        "offset": 0,
        "slot": "311",
        "type": "t_uint256"
      },
      {
        "astId": 19938,
        "contract": "contracts/dai/StrategyAlienBaseDaiUsdbc.sol:StrategyAlienBaseDaiUsdbc",
        "label": "uniswapV3Router",
        "offset": 0,
        "slot": "312",
        "type": "t_contract(ISwapRouter)12702"
      },
      {
        "astId": 19940,
        "contract": "contracts/dai/StrategyAlienBaseDaiUsdbc.sol:StrategyAlienBaseDaiUsdbc",
        "label": "poolFee",
        "offset": 20,
        "slot": "312",
        "type": "t_uint24"
      },
      {
        "astId": 19942,
        "contract": "contracts/dai/StrategyAlienBaseDaiUsdbc.sol:StrategyAlienBaseDaiUsdbc",
        "label": "daiDm",
        "offset": 0,
        "slot": "313",
        "type": "t_uint256"
      },
      {
        "astId": 19944,
        "contract": "contracts/dai/StrategyAlienBaseDaiUsdbc.sol:StrategyAlienBaseDaiUsdbc",
        "label": "usdbcDm",
        "offset": 0,
        "slot": "314",
        "type": "t_uint256"
      }
    ],
    "types": {
      "t_address": {
        "encoding": "inplace",
        "label": "address",
        "numberOfBytes": "20"
      },
      "t_array(t_uint256)46_storage": {
        "base": "t_uint256",
        "encoding": "inplace",
        "label": "uint256[46]",
        "numberOfBytes": "1472"
      },
      "t_array(t_uint256)49_storage": {
        "base": "t_uint256",
        "encoding": "inplace",
        "label": "uint256[49]",
        "numberOfBytes": "1568"
      },
      "t_array(t_uint256)50_storage": {
        "base": "t_uint256",
        "encoding": "inplace",
        "label": "uint256[50]",
        "numberOfBytes": "1600"
      },
      "t_bool": {
        "encoding": "inplace",
        "label": "bool",
        "numberOfBytes": "1"
      },
      "t_bytes32": {
        "encoding": "inplace",
        "label": "bytes32",
        "numberOfBytes": "32"
      },
      "t_contract(IAlienBaseRouter02)5595": {
        "encoding": "inplace",
        "label": "contract IAlienBaseRouter02",
        "numberOfBytes": "20"
      },
      "t_contract(IBasedDistributorV2)5992": {
        "encoding": "inplace",
        "label": "contract IBasedDistributorV2",
        "numberOfBytes": "20"
      },
      "t_contract(IERC20)2662": {
        "encoding": "inplace",
        "label": "contract IERC20",
        "numberOfBytes": "20"
      },
      "t_contract(IPriceFeed)11509": {
        "encoding": "inplace",
        "label": "contract IPriceFeed",
        "numberOfBytes": "20"
      },
      "t_contract(ISwapFlashLoan)6204": {
        "encoding": "inplace",
        "label": "contract ISwapFlashLoan",
        "numberOfBytes": "20"
      },
      "t_contract(ISwapRouter)12702": {
        "encoding": "inplace",
        "label": "contract ISwapRouter",
        "numberOfBytes": "20"
      },
      "t_mapping(t_address,t_bool)": {
        "encoding": "mapping",
        "key": "t_address",
        "label": "mapping(address => bool)",
        "numberOfBytes": "32",
        "value": "t_bool"
      },
      "t_mapping(t_bytes32,t_struct(RoleData)34_storage)": {
        "encoding": "mapping",
        "key": "t_bytes32",
        "label": "mapping(bytes32 => struct AccessControlUpgradeable.RoleData)",
        "numberOfBytes": "32",
        "value": "t_struct(RoleData)34_storage"
      },
      "t_struct(RoleData)34_storage": {
        "encoding": "inplace",
        "label": "struct AccessControlUpgradeable.RoleData",
        "members": [
          {
            "astId": 31,
            "contract": "contracts/dai/StrategyAlienBaseDaiUsdbc.sol:StrategyAlienBaseDaiUsdbc",
            "label": "members",
            "offset": 0,
            "slot": "0",
            "type": "t_mapping(t_address,t_bool)"
          },
          {
            "astId": 33,
            "contract": "contracts/dai/StrategyAlienBaseDaiUsdbc.sol:StrategyAlienBaseDaiUsdbc",
            "label": "adminRole",
            "offset": 0,
            "slot": "1",
            "type": "t_bytes32"
          }
        ],
        "numberOfBytes": "64"
      },
      "t_uint24": {
        "encoding": "inplace",
        "label": "uint24",
        "numberOfBytes": "3"
      },
      "t_uint256": {
        "encoding": "inplace",
        "label": "uint256",
        "numberOfBytes": "32"
      },
      "t_uint8": {
        "encoding": "inplace",
        "label": "uint8",
        "numberOfBytes": "1"
      }
    }
  }
}