{
  "address": "0x9aF956b86A43551A76AED7e1AE1e1263413725bb",
  "abi": [
    {
      "inputs": [],
      "stateMutability": "nonpayable",
      "type": "constructor"
    },
    {
      "anonymous": false,
      "inputs": [
        {
          "indexed": false,
          "internalType": "address",
          "name": "previousAdmin",
          "type": "address"
        },
        {
          "indexed": false,
          "internalType": "address",
          "name": "newAdmin",
          "type": "address"
        }
      ],
      "name": "AdminChanged",
      "type": "event"
    },
    {
      "anonymous": false,
      "inputs": [
        {
          "indexed": true,
          "internalType": "address",
          "name": "beacon",
          "type": "address"
        }
      ],
      "name": "BeaconUpgraded",
      "type": "event"
    },
    {
      "anonymous": false,
      "inputs": [
        {
          "indexed": false,
          "internalType": "uint8",
          "name": "version",
          "type": "uint8"
        }
      ],
      "name": "Initialized",
      "type": "event"
    },
    {
      "anonymous": false,
      "inputs": [
        {
          "indexed": false,
          "internalType": "address",
          "name": "value",
          "type": "address"
        }
      ],
      "name": "PortfolioManagerUpdated",
      "type": "event"
    },
    {
      "anonymous": false,
      "inputs": [
        {
          "indexed": false,
          "internalType": "uint256",
          "name": "amount",
          "type": "uint256"
        }
      ],
      "name": "Reward",
      "type": "event"
    },
    {
      "anonymous": false,
      "inputs": [
        {
          "indexed": true,
          "internalType": "bytes32",
          "name": "role",
          "type": "bytes32"
        },
        {
          "indexed": true,
          "internalType": "bytes32",
          "name": "previousAdminRole",
          "type": "bytes32"
        },
        {
          "indexed": true,
          "internalType": "bytes32",
          "name": "newAdminRole",
          "type": "bytes32"
        }
      ],
      "name": "RoleAdminChanged",
      "type": "event"
    },
    {
      "anonymous": false,
      "inputs": [
        {
          "indexed": true,
          "internalType": "bytes32",
          "name": "role",
          "type": "bytes32"
        },
        {
          "indexed": true,
          "internalType": "address",
          "name": "account",
          "type": "address"
        },
        {
          "indexed": true,
          "internalType": "address",
          "name": "sender",
          "type": "address"
        }
      ],
      "name": "RoleGranted",
      "type": "event"
    },
    {
      "anonymous": false,
      "inputs": [
        {
          "indexed": true,
          "internalType": "bytes32",
          "name": "role",
          "type": "bytes32"
        },
        {
          "indexed": true,
          "internalType": "address",
          "name": "account",
          "type": "address"
        },
        {
          "indexed": true,
          "internalType": "address",
          "name": "sender",
          "type": "address"
        }
      ],
      "name": "RoleRevoked",
      "type": "event"
    },
    {
      "anonymous": false,
      "inputs": [
        {
          "indexed": false,
          "internalType": "uint256",
          "name": "swapSlippageBP",
          "type": "uint256"
        },
        {
          "indexed": false,
          "internalType": "uint256",
          "name": "navSlippageBP",
          "type": "uint256"
        },
        {
          "indexed": false,
          "internalType": "uint256",
          "name": "stakeSlippageBP",
          "type": "uint256"
        }
      ],
      "name": "SlippagesUpdated",
      "type": "event"
    },
    {
      "anonymous": false,
      "inputs": [
        {
          "indexed": false,
          "internalType": "uint256",
          "name": "amount",
          "type": "uint256"
        }
      ],
      "name": "Stake",
      "type": "event"
    },
    {
      "anonymous": false,
      "inputs": [],
      "name": "StrategyUpdatedParams",
      "type": "event"
    },
    {
      "anonymous": false,
      "inputs": [
        {
          "indexed": false,
          "internalType": "uint256",
          "name": "amount",
          "type": "uint256"
        },
        {
          "indexed": false,
          "internalType": "uint256",
          "name": "amountReceived",
          "type": "uint256"
        }
      ],
      "name": "Unstake",
      "type": "event"
    },
    {
      "anonymous": false,
      "inputs": [
        {
          "indexed": true,
          "internalType": "address",
          "name": "implementation",
          "type": "address"
        }
      ],
      "name": "Upgraded",
      "type": "event"
    },
    {
      "inputs": [],
      "name": "DEFAULT_ADMIN_ROLE",
      "outputs": [
        {
          "internalType": "bytes32",
          "name": "",
          "type": "bytes32"
        }
      ],
      "stateMutability": "view",
      "type": "function"
    },
    {
      "inputs": [],
      "name": "PORTFOLIO_AGENT_ROLE",
      "outputs": [
        {
          "internalType": "bytes32",
          "name": "",
          "type": "bytes32"
        }
      ],
      "stateMutability": "view",
      "type": "function"
    },
    {
      "inputs": [],
      "name": "PORTFOLIO_MANAGER",
      "outputs": [
        {
          "internalType": "bytes32",
          "name": "",
          "type": "bytes32"
        }
      ],
      "stateMutability": "view",
      "type": "function"
    },
    {
      "inputs": [],
      "name": "asset",
      "outputs": [
        {
          "internalType": "contract IERC20",
          "name": "",
          "type": "address"
        }
      ],
      "stateMutability": "view",
      "type": "function"
    },
    {
      "inputs": [
        {
          "internalType": "address",
          "name": "_to",
          "type": "address"
        }
      ],
      "name": "claimRewards",
      "outputs": [
        {
          "internalType": "uint256",
          "name": "",
          "type": "uint256"
        }
      ],
      "stateMutability": "nonpayable",
      "type": "function"
    },
    {
      "inputs": [
        {
          "internalType": "bytes32",
          "name": "role",
          "type": "bytes32"
        }
      ],
      "name": "getRoleAdmin",
      "outputs": [
        {
          "internalType": "bytes32",
          "name": "",
          "type": "bytes32"
        }
      ],
      "stateMutability": "view",
      "type": "function"
    },
    {
      "inputs": [
        {
          "internalType": "bytes32",
          "name": "role",
          "type": "bytes32"
        },
        {
          "internalType": "address",
          "name": "account",
          "type": "address"
        }
      ],
      "name": "grantRole",
      "outputs": [],
      "stateMutability": "nonpayable",
      "type": "function"
    },
    {
      "inputs": [
        {
          "internalType": "bytes32",
          "name": "role",
          "type": "bytes32"
        },
        {
          "internalType": "address",
          "name": "account",
          "type": "address"
        }
      ],
      "name": "hasRole",
      "outputs": [
        {
          "internalType": "bool",
          "name": "",
          "type": "bool"
        }
      ],
      "stateMutability": "view",
      "type": "function"
    },
    {
      "inputs": [],
      "name": "hedgeExchanger",
      "outputs": [
        {
          "internalType": "contract IHedgeExchanger",
          "name": "",
          "type": "address"
        }
      ],
      "stateMutability": "view",
      "type": "function"
    },
    {
      "inputs": [],
      "name": "initialize",
      "outputs": [],
      "stateMutability": "nonpayable",
      "type": "function"
    },
    {
      "inputs": [],
      "name": "liquidationValue",
      "outputs": [
        {
          "internalType": "uint256",
          "name": "",
          "type": "uint256"
        }
      ],
      "stateMutability": "view",
      "type": "function"
    },
    {
      "inputs": [],
      "name": "navSlippageBP",
      "outputs": [
        {
          "internalType": "uint256",
          "name": "",
          "type": "uint256"
        }
      ],
      "stateMutability": "view",
      "type": "function"
    },
    {
      "inputs": [],
      "name": "netAssetValue",
      "outputs": [
        {
          "internalType": "uint256",
          "name": "",
          "type": "uint256"
        }
      ],
      "stateMutability": "view",
      "type": "function"
    },
    {
      "inputs": [],
      "name": "portfolioManager",
      "outputs": [
        {
          "internalType": "address",
          "name": "",
          "type": "address"
        }
      ],
      "stateMutability": "view",
      "type": "function"
    },
    {
      "inputs": [],
      "name": "proxiableUUID",
      "outputs": [
        {
          "internalType": "bytes32",
          "name": "",
          "type": "bytes32"
        }
      ],
      "stateMutability": "view",
      "type": "function"
    },
    {
      "inputs": [],
      "name": "rebaseToken",
      "outputs": [
        {
          "internalType": "contract IERC20",
          "name": "",
          "type": "address"
        }
      ],
      "stateMutability": "view",
      "type": "function"
    },
    {
      "inputs": [
        {
          "internalType": "bytes32",
          "name": "role",
          "type": "bytes32"
        },
        {
          "internalType": "address",
          "name": "account",
          "type": "address"
        }
      ],
      "name": "renounceRole",
      "outputs": [],
      "stateMutability": "nonpayable",
      "type": "function"
    },
    {
      "inputs": [
        {
          "internalType": "bytes32",
          "name": "role",
          "type": "bytes32"
        },
        {
          "internalType": "address",
          "name": "account",
          "type": "address"
        }
      ],
      "name": "revokeRole",
      "outputs": [],
      "stateMutability": "nonpayable",
      "type": "function"
    },
    {
      "inputs": [
        {
          "components": [
            {
              "internalType": "address",
              "name": "asset",
              "type": "address"
            },
            {
              "internalType": "address",
              "name": "rebaseToken",
              "type": "address"
            },
            {
              "internalType": "address",
              "name": "hedgeExchanger",
              "type": "address"
            }
          ],
          "internalType": "struct StrategyEts.StrategyParams",
          "name": "params",
          "type": "tuple"
        }
      ],
      "name": "setParams",
      "outputs": [],
      "stateMutability": "nonpayable",
      "type": "function"
    },
    {
      "inputs": [
        {
          "internalType": "address",
          "name": "_value",
          "type": "address"
        }
      ],
      "name": "setPortfolioManager",
      "outputs": [],
      "stateMutability": "nonpayable",
      "type": "function"
    },
    {
      "inputs": [
        {
          "internalType": "uint256",
          "name": "_swapSlippageBP",
          "type": "uint256"
        },
        {
          "internalType": "uint256",
          "name": "_navSlippageBP",
          "type": "uint256"
        },
        {
          "internalType": "uint256",
          "name": "_stakeSlippageBP",
          "type": "uint256"
        }
      ],
      "name": "setSlippages",
      "outputs": [],
      "stateMutability": "nonpayable",
      "type": "function"
    },
    {
      "inputs": [
        {
          "internalType": "address",
          "name": "_asset",
          "type": "address"
        },
        {
          "internalType": "uint256",
          "name": "_amount",
          "type": "uint256"
        }
      ],
      "name": "stake",
      "outputs": [],
      "stateMutability": "nonpayable",
      "type": "function"
    },
    {
      "inputs": [],
      "name": "stakeSlippageBP",
      "outputs": [
        {
          "internalType": "uint256",
          "name": "",
          "type": "uint256"
        }
      ],
      "stateMutability": "view",
      "type": "function"
    },
    {
      "inputs": [
        {
          "internalType": "bytes4",
          "name": "interfaceId",
          "type": "bytes4"
        }
      ],
      "name": "supportsInterface",
      "outputs": [
        {
          "internalType": "bool",
          "name": "",
          "type": "bool"
        }
      ],
      "stateMutability": "view",
      "type": "function"
    },
    {
      "inputs": [],
      "name": "swapSlippageBP",
      "outputs": [
        {
          "internalType": "uint256",
          "name": "",
          "type": "uint256"
        }
      ],
      "stateMutability": "view",
      "type": "function"
    },
    {
      "inputs": [
        {
          "internalType": "address",
          "name": "_asset",
          "type": "address"
        },
        {
          "internalType": "uint256",
          "name": "_amount",
          "type": "uint256"
        },
        {
          "internalType": "address",
          "name": "_beneficiary",
          "type": "address"
        },
        {
          "internalType": "bool",
          "name": "_targetIsZero",
          "type": "bool"
        }
      ],
      "name": "unstake",
      "outputs": [
        {
          "internalType": "uint256",
          "name": "",
          "type": "uint256"
        }
      ],
      "stateMutability": "nonpayable",
      "type": "function"
    },
    {
      "inputs": [
        {
          "internalType": "address",
          "name": "newImplementation",
          "type": "address"
        }
      ],
      "name": "upgradeTo",
      "outputs": [],
      "stateMutability": "nonpayable",
      "type": "function"
    },
    {
      "inputs": [
        {
          "internalType": "address",
          "name": "newImplementation",
          "type": "address"
        },
        {
          "internalType": "bytes",
          "name": "data",
          "type": "bytes"
        }
      ],
      "name": "upgradeToAndCall",
      "outputs": [],
      "stateMutability": "payable",
      "type": "function"
    }
  ],
  "numDeployments": 1,
  "solcInputHash": "e98c98a5b1f4d6cc8f3b9e6f620bf7f7",
  "bytecode": "0x60a0604052306080523480156200001557600080fd5b50600054610100900460ff1615808015620000375750600054600160ff909116105b8062000067575062000054306200014160201b620012211760201c565b15801562000067575060005460ff166001145b620000cf5760405162461bcd60e51b815260206004820152602e60248201527f496e697469616c697a61626c653a20636f6e747261637420697320616c72656160448201526d191e481a5b9a5d1a585b1a5e995960921b606482015260840160405180910390fd5b6000805460ff191660011790558015620000f3576000805461ff0019166101001790555b80156200013a576000805461ff0019169055604051600181527f7f26b83ff96e1f2b6a682f133852f6798a09c465da95921460cefb38474024989060200160405180910390a15b5062000150565b6001600160a01b03163b151590565b60805161249b620001886000396000818161062801528181610668015281816107070152818161074701526107d6015261249b6000f3fe6080604052600436106101b75760003560e01c80635dbd733a116100ec578063a440b21a1161008a578063bf52e08011610064578063bf52e080146104b5578063d547741f146104cb578063ef5cfb8c146104eb578063f6f6b8811461050b57600080fd5b8063a440b21a14610455578063adc9772e14610475578063ae30c1101461049557600080fd5b80638129fc1c116100c65780638129fc1c1461040b57806391d1485414610420578063a217fddf14610440578063a3673b381461027e57600080fd5b80635dbd733a14610395578063620b75df146103c95780637d5f5802146103e957600080fd5b80633659cfe6116101595780634f1ef286116101335780634f1ef2861461033757806352d1902d1461034a5780635ca558f81461035f5780635d4bcd4b1461037557600080fd5b80633659cfe6146102d557806338d52e0f146102f55780633e5e3b801461031657600080fd5b806324ce27351161019557806324ce2735146102455780632576e65a1461027e5780632f2ff15d1461029357806336568abe146102b557600080fd5b806301ffc9a7146101bc578063119cd879146101f1578063248a9ca314610215575b600080fd5b3480156101c857600080fd5b506101dc6101d7366004611edd565b61052b565b60405190151581526020015b60405180910390f35b3480156101fd57600080fd5b5061020760fd5481565b6040519081526020016101e8565b34801561022157600080fd5b50610207610230366004611f07565b60009081526065602052604090206001015490565b34801561025157600080fd5b5061012e54610266906001600160a01b031681565b6040516001600160a01b0390911681526020016101e8565b34801561028a57600080fd5b50610207610562565b34801561029f57600080fd5b506102b36102ae366004611f37565b610571565b005b3480156102c157600080fd5b506102b36102d0366004611f37565b61059b565b3480156102e157600080fd5b506102b36102f0366004611f63565b61061e565b34801561030157600080fd5b5061012d54610266906001600160a01b031681565b34801561032257600080fd5b5061012f54610266906001600160a01b031681565b6102b3610345366004611f94565b6106fd565b34801561035657600080fd5b506102076107c9565b34801561036b57600080fd5b5061020760fe5481565b34801561038157600080fd5b506102b3610390366004612056565b61087c565b3480156103a157600080fd5b506102077fd67ad422505496469a1adf6cdf9e5ee92ac5d33992843c9ecc4b2f6d6cde913781565b3480156103d557600080fd5b5060fb54610266906001600160a01b031681565b3480156103f557600080fd5b506102076000805160206123ff83398151915281565b34801561041757600080fd5b506102b3610986565b34801561042c57600080fd5b506101dc61043b366004611f37565b610a50565b34801561044c57600080fd5b50610207600081565b34801561046157600080fd5b506102b3610470366004611f63565b610a7b565b34801561048157600080fd5b506102b361049036600461206e565b610baa565b3480156104a157600080fd5b506102b36104b0366004612098565b610dad565b3480156104c157600080fd5b5061020760fc5481565b3480156104d757600080fd5b506102b36104e6366004611f37565b610f13565b3480156104f757600080fd5b50610207610506366004611f63565b610f38565b34801561051757600080fd5b506102076105263660046120d2565b610f77565b60006001600160e01b03198216637965db0b60e01b148061055c57506301ffc9a760e01b6001600160e01b03198316145b92915050565b600061056c611230565b905090565b60008281526065602052604090206001015461058c81611315565b610596838361131f565b505050565b6001600160a01b03811633146106105760405162461bcd60e51b815260206004820152602f60248201527f416363657373436f6e74726f6c3a2063616e206f6e6c792072656e6f756e636560448201526e103937b632b9903337b91039b2b63360891b60648201526084015b60405180910390fd5b61061a82826113a5565b5050565b6001600160a01b037f00000000000000000000000000000000000000000000000000000000000000001630036106665760405162461bcd60e51b815260040161060790612121565b7f00000000000000000000000000000000000000000000000000000000000000006001600160a01b03166106af60008051602061241f833981519152546001600160a01b031690565b6001600160a01b0316146106d55760405162461bcd60e51b81526004016106079061216d565b6106de8161140c565b604080516000808252602082019092526106fa91839190611417565b50565b6001600160a01b037f00000000000000000000000000000000000000000000000000000000000000001630036107455760405162461bcd60e51b815260040161060790612121565b7f00000000000000000000000000000000000000000000000000000000000000006001600160a01b031661078e60008051602061241f833981519152546001600160a01b031690565b6001600160a01b0316146107b45760405162461bcd60e51b81526004016106079061216d565b6107bd8261140c565b61061a82826001611417565b6000306001600160a01b037f000000000000000000000000000000000000000000000000000000000000000016146108695760405162461bcd60e51b815260206004820152603860248201527f555550535570677261646561626c653a206d757374206e6f742062652063616c60448201527f6c6564207468726f7567682064656c656761746563616c6c00000000000000006064820152608401610607565b5060008051602061241f83398151915290565b610887600033610a50565b6108ca5760405162461bcd60e51b81526020600482015260146024820152735265737472696374656420746f2061646d696e7360601b6044820152606401610607565b6108d76020820182611f63565b61012d80546001600160a01b0319166001600160a01b03929092169190911790556109086040820160208301611f63565b61012e80546001600160a01b0319166001600160a01b03929092169190911790556109396060820160408301611f63565b61012f80546001600160a01b0319166001600160a01b03929092169190911790556040517fea5646eb3528e525944447a4a97de700dd472298626e5c0481d1c82c3da86ea590600090a150565b600054610100900460ff16158080156109a65750600054600160ff909116105b806109c05750303b1580156109c0575060005460ff166001145b6109dc5760405162461bcd60e51b8152600401610607906121b9565b6000805460ff1916600117905580156109ff576000805461ff0019166101001790555b610a07611582565b80156106fa576000805461ff0019169055604051600181527f7f26b83ff96e1f2b6a682f133852f6798a09c465da95921460cefb3847402498906020015b60405180910390a150565b60009182526065602090815260408084206001600160a01b0393909316845291905290205460ff1690565b610a86600033610a50565b610ac95760405162461bcd60e51b81526020600482015260146024820152735265737472696374656420746f2061646d696e7360601b6044820152606401610607565b6001600160a01b038116610b1f5760405162461bcd60e51b815260206004820152601860248201527f5a65726f2061646472657373206e6f7420616c6c6f77656400000000000000006044820152606401610607565b60fb54610b44906000805160206123ff833981519152906001600160a01b0316610f13565b610b5c6000805160206123ff83398151915282610571565b60fb80546001600160a01b0319166001600160a01b0383169081179091556040519081527ff7b449fcd5cfb7379dcd34cb69428dd9f882033b15be33d83b42d91daa28eeb790602001610a45565b610bc26000805160206123ff83398151915233610a50565b610bde5760405162461bcd60e51b815260040161060790612207565b6000610c4d306001600160a01b031663a3673b386040518163ffffffff1660e01b8152600401602060405180830381865afa158015610c21573d6000803e3d6000fd5b505050506040513d601f19601f82011682018060405250810190610c45919061223e565b60fd54611667565b6040516370a0823160e01b8152306004820152909150610cc39084906001600160a01b038216906370a0823190602401602060405180830381865afa158015610c9a573d6000803e3d6000fd5b505050506040513d601f19601f82011682018060405250810190610cbe919061223e565b611691565b80306001600160a01b031663a3673b386040518163ffffffff1660e01b8152600401602060405180830381865afa158015610d02573d6000803e3d6000fd5b505050506040513d601f19601f82011682018060405250810190610d26919061223e565b1015610d745760405162461bcd60e51b815260206004820152601f60248201527f5374726174656779204e4156206c657373207468616e206578706563746564006044820152606401610607565b6040518281527f227a473b70d2f893cc7659219575c030a63b5743024fe1e0c1a680e708b1525a906020015b60405180910390a1505050565b610dd77fd67ad422505496469a1adf6cdf9e5ee92ac5d33992843c9ecc4b2f6d6cde913733610a50565b80610e6f575060fb54604051632474521560e21b81527fd67ad422505496469a1adf6cdf9e5ee92ac5d33992843c9ecc4b2f6d6cde913760048201523360248201526001600160a01b03909116906391d1485490604401602060405180830381865afa158015610e4b573d6000803e3d6000fd5b505050506040513d601f19601f82011682018060405250810190610e6f9190612257565b610ec65760405162461bcd60e51b815260206004820152602260248201527f5265737472696374656420746f20504f5254464f4c494f5f4147454e545f524f6044820152614c4560f01b6064820152608401610607565b60fc83905560fd82905560fe81905560408051848152602081018490529081018290527f116fbf1e97a2be629ad98abfb6c332733c8996c2dfb174dd2efe8440df381d1a90606001610da0565b600082815260656020526040902060010154610f2e81611315565b61059683836113a5565b6000610f526000805160206123ff83398151915233610a50565b610f6e5760405162461bcd60e51b815260040161060790612207565b5060005b919050565b6000610f916000805160206123ff83398151915233610a50565b610fad5760405162461bcd60e51b815260040161060790612207565b6000610ff0306001600160a01b031663a3673b386040518163ffffffff1660e01b8152600401602060405180830381865afa158015610c21573d6000803e3d6000fd5b9050600080841561100f57506000611008888761178d565b915061107e565b61101a888888611963565b91508682101561107e5760405162461bcd60e51b815260206004820152602960248201527f52657475726e65642076616c7565206c657373207468616e2072657175657374604482015268195908185b5bdd5b9d60ba1b6064820152608401610607565b82306001600160a01b031663a3673b386040518163ffffffff1660e01b8152600401602060405180830381865afa1580156110bd573d6000803e3d6000fd5b505050506040513d601f19601f820116820180604052508101906110e1919061223e565b101561112f5760405162461bcd60e51b815260206004820152601f60248201527f5374726174656779204e4156206c657373207468616e206578706563746564006044820152606401610607565b60405163a9059cbb60e01b81526001600160a01b0387811660048301526024820184905289169063a9059cbb906044016020604051808303816000875af115801561117e573d6000803e3d6000fd5b505050506040513d601f19601f820116820180604052508101906111a29190612257565b5060408051888152602081018490527f9045c2ac9b2026de8075f2701bbdde882cd5e830b3b1ead9a15b22f2b5b93742910160405180910390a18015611216576040518181527f3ac0594a85a20354f9dc74f33728416d19ce00d04a406c108cc2dcf2cecea1349060200160405180910390a15b509695505050505050565b6001600160a01b03163b151590565b61012e546040516370a0823160e01b81523060048201526000916001600160a01b0316906370a0823190602401602060405180830381865afa15801561127a573d6000803e3d6000fd5b505050506040513d601f19601f8201168201806040525081019061129e919061223e565b61012d546040516370a0823160e01b81523060048201526001600160a01b03909116906370a0823190602401602060405180830381865afa1580156112e7573d6000803e3d6000fd5b505050506040513d601f19601f8201168201806040525081019061130b919061223e565b61056c919061228a565b6106fa8133611a30565b6113298282610a50565b61061a5760008281526065602090815260408083206001600160a01b03851684529091529020805460ff191660011790556113613390565b6001600160a01b0316816001600160a01b0316837f2f8788117e7eff1d82e926ec794901d17c78024a50270940304540a733656f0d60405160405180910390a45050565b6113af8282610a50565b1561061a5760008281526065602090815260408083206001600160a01b0385168085529252808320805460ff1916905551339285917ff6391f5c32d9c69d2a47ea670b442974b53935d1edc7fd64eb21e047a839171b9190a45050565b600061061a81611315565b7f4910fdfa16fed3260ed0e7147f7cc6da11a60208b5b9406d12a635614ffd91435460ff161561144a5761059683611a89565b826001600160a01b03166352d1902d6040518163ffffffff1660e01b8152600401602060405180830381865afa9250505080156114a4575060408051601f3d908101601f191682019092526114a19181019061223e565b60015b6115075760405162461bcd60e51b815260206004820152602e60248201527f45524331393637557067726164653a206e657720696d706c656d656e7461746960448201526d6f6e206973206e6f74205555505360901b6064820152608401610607565b60008051602061241f83398151915281146115765760405162461bcd60e51b815260206004820152602960248201527f45524331393637557067726164653a20756e737570706f727465642070726f786044820152681a58589b195555525160ba1b6064820152608401610607565b50610596838383611b25565b600054610100900460ff16158080156115a25750600054600160ff909116105b806115bc5750303b1580156115bc575060005460ff166001145b6115d85760405162461bcd60e51b8152600401610607906121b9565b6000805460ff1916600117905580156115fb576000805461ff0019166101001790555b611603611b50565b61160b611b50565b61161660003361131f565b601460fc81905560fd55600460fe5580156106fa576000805461ff0019169055604051600181527f7f26b83ff96e1f2b6a682f133852f6798a09c465da95921460cefb384740249890602001610a45565b6000612710611676838261229d565b61168090856122b0565b61168a91906122c7565b9392505050565b61012d5461012f5460405163095ea7b360e01b81526001600160a01b0391821660048201526024810184905291169063095ea7b3906044016020604051808303816000875af11580156116e8573d6000803e3d6000fd5b505050506040513d601f19601f8201168201806040525081019061170c9190612257565b5061012f54604080516316fb876360e31b8152600481018490526024810191909152600060448201526001600160a01b039091169063b7dc3b18906064016020604051808303816000875af1158015611769573d6000803e3d6000fd5b505050506040513d601f19601f82011682018060405250810190610596919061223e565b61012e546040516370a0823160e01b815230600482015260009182916001600160a01b03909116906370a0823190602401602060405180830381865afa1580156117db573d6000803e3d6000fd5b505050506040513d601f19601f820116820180604052508101906117ff919061223e565b61012e5461012f5460405163095ea7b360e01b81526001600160a01b03918216600482015260248101849052929350169063095ea7b3906044016020604051808303816000875af1158015611858573d6000803e3d6000fd5b505050506040513d601f19601f8201168201806040525081019061187c9190612257565b5061012f5460405163db006a7560e01b8152600481018390526001600160a01b039091169063db006a75906024016020604051808303816000875af11580156118c9573d6000803e3d6000fd5b505050506040513d601f19601f820116820180604052508101906118ed919061223e565b5061012d546040516370a0823160e01b81523060048201526001600160a01b03909116906370a0823190602401602060405180830381865afa158015611937573d6000803e3d6000fd5b505050506040513d601f19601f8201168201806040525081019061195b919061223e565b949350505050565b61012e5461012f5460405163095ea7b360e01b81526001600160a01b03918216600482015260248101859052600092919091169063095ea7b3906044016020604051808303816000875af11580156119bf573d6000803e3d6000fd5b505050506040513d601f19601f820116820180604052508101906119e39190612257565b5061012f5460405163db006a7560e01b8152600481018590526001600160a01b039091169063db006a75906024016020604051808303816000875af11580156118c9573d6000803e3d6000fd5b611a3a8282610a50565b61061a57611a4781611bbd565b611a52836020611bcf565b604051602001611a6392919061230d565b60408051601f198184030181529082905262461bcd60e51b825261060791600401612382565b6001600160a01b0381163b611af65760405162461bcd60e51b815260206004820152602d60248201527f455243313936373a206e657720696d706c656d656e746174696f6e206973206e60448201526c1bdd08184818dbdb9d1c9858dd609a1b6064820152608401610607565b60008051602061241f83398151915280546001600160a01b0319166001600160a01b0392909216919091179055565b611b2e83611d6b565b600082511180611b3b5750805b1561059657611b4a8383611dab565b50505050565b600054610100900460ff16611bbb5760405162461bcd60e51b815260206004820152602b60248201527f496e697469616c697a61626c653a20636f6e7472616374206973206e6f74206960448201526a6e697469616c697a696e6760a81b6064820152608401610607565b565b606061055c6001600160a01b03831660145b60606000611bde8360026122b0565b611be990600261228a565b67ffffffffffffffff811115611c0157611c01611f7e565b6040519080825280601f01601f191660200182016040528015611c2b576020820181803683370190505b509050600360fc1b81600081518110611c4657611c466123b5565b60200101906001600160f81b031916908160001a905350600f60fb1b81600181518110611c7557611c756123b5565b60200101906001600160f81b031916908160001a9053506000611c998460026122b0565b611ca490600161228a565b90505b6001811115611d1c576f181899199a1a9b1b9c1cb0b131b232b360811b85600f1660108110611cd857611cd86123b5565b1a60f81b828281518110611cee57611cee6123b5565b60200101906001600160f81b031916908160001a90535060049490941c93611d15816123cb565b9050611ca7565b50831561168a5760405162461bcd60e51b815260206004820181905260248201527f537472696e67733a20686578206c656e67746820696e73756666696369656e746044820152606401610607565b611d7481611a89565b6040516001600160a01b038216907fbc7cd75a20ee27fd9adebab32041f755214dbc6bffa90cc0225b39da2e5c2d3b90600090a250565b60606001600160a01b0383163b611e135760405162461bcd60e51b815260206004820152602660248201527f416464726573733a2064656c65676174652063616c6c20746f206e6f6e2d636f6044820152651b9d1c9858dd60d21b6064820152608401610607565b600080846001600160a01b031684604051611e2e91906123e2565b600060405180830381855af49150503d8060008114611e69576040519150601f19603f3d011682016040523d82523d6000602084013e611e6e565b606091505b5091509150611e96828260405180606001604052806027815260200161243f60279139611e9f565b95945050505050565b60608315611eae57508161168a565b61168a8383815115611ec35781518083602001fd5b8060405162461bcd60e51b81526004016106079190612382565b600060208284031215611eef57600080fd5b81356001600160e01b03198116811461168a57600080fd5b600060208284031215611f1957600080fd5b5035919050565b80356001600160a01b0381168114610f7257600080fd5b60008060408385031215611f4a57600080fd5b82359150611f5a60208401611f20565b90509250929050565b600060208284031215611f7557600080fd5b61168a82611f20565b634e487b7160e01b600052604160045260246000fd5b60008060408385031215611fa757600080fd5b611fb083611f20565b9150602083013567ffffffffffffffff80821115611fcd57600080fd5b818501915085601f830112611fe157600080fd5b813581811115611ff357611ff3611f7e565b604051601f8201601f19908116603f0116810190838211818310171561201b5761201b611f7e565b8160405282815288602084870101111561203457600080fd5b8260208601602083013760006020848301015280955050505050509250929050565b60006060828403121561206857600080fd5b50919050565b6000806040838503121561208157600080fd5b61208a83611f20565b946020939093013593505050565b6000806000606084860312156120ad57600080fd5b505081359360208301359350604090920135919050565b80151581146106fa57600080fd5b600080600080608085870312156120e857600080fd5b6120f185611f20565b93506020850135925061210660408601611f20565b91506060850135612116816120c4565b939692955090935050565b6020808252602c908201527f46756e6374696f6e206d7573742062652063616c6c6564207468726f7567682060408201526b19195b1959d85d1958d85b1b60a21b606082015260800190565b6020808252602c908201527f46756e6374696f6e206d7573742062652063616c6c6564207468726f7567682060408201526b6163746976652070726f787960a01b606082015260800190565b6020808252602e908201527f496e697469616c697a61626c653a20636f6e747261637420697320616c72656160408201526d191e481a5b9a5d1a585b1a5e995960921b606082015260800190565b6020808252601f908201527f5265737472696374656420746f20504f5254464f4c494f5f4d414e4147455200604082015260600190565b60006020828403121561225057600080fd5b5051919050565b60006020828403121561226957600080fd5b815161168a816120c4565b634e487b7160e01b600052601160045260246000fd5b8082018082111561055c5761055c612274565b8181038181111561055c5761055c612274565b808202811582820484141761055c5761055c612274565b6000826122e457634e487b7160e01b600052601260045260246000fd5b500490565b60005b838110156123045781810151838201526020016122ec565b50506000910152565b7f416363657373436f6e74726f6c3a206163636f756e74200000000000000000008152600083516123458160178501602088016122e9565b7001034b99036b4b9b9b4b733903937b6329607d1b60179184019182015283516123768160288401602088016122e9565b01602801949350505050565b60208152600082518060208401526123a18160408501602087016122e9565b601f01601f19169190910160400192915050565b634e487b7160e01b600052603260045260246000fd5b6000816123da576123da612274565b506000190190565b600082516123f48184602087016122e9565b919091019291505056fe90c2aa7471c04182221f68e80c07ab1e5946e4c63f8693e14ca40385d529f051360894a13ba1a3210667c828492db98dca3e2076cc3735a920a3ca505d382bbc416464726573733a206c6f772d6c6576656c2064656c65676174652063616c6c206661696c6564a2646970667358221220715d9092725fbd5ea5dfec6a672ebf78ae45555e7f596f315a4148b61456648f64736f6c63430008110033",
  "implementation": "0x5aa5Bf90C86986c61aF2942342156133a956f286",
  "devdoc": {
    "kind": "dev",
    "methods": {
      "constructor": {
        "custom:oz-upgrades-unsafe-allow": "constructor"
      },
      "getRoleAdmin(bytes32)": {
        "details": "Returns the admin role that controls `role`. See {grantRole} and {revokeRole}. To change a role's admin, use {_setRoleAdmin}."
      },
      "grantRole(bytes32,address)": {
        "details": "Grants `role` to `account`. If `account` had not been already granted `role`, emits a {RoleGranted} event. Requirements: - the caller must have ``role``'s admin role. May emit a {RoleGranted} event."
      },
      "hasRole(bytes32,address)": {
        "details": "Returns `true` if `account` has been granted `role`."
      },
      "proxiableUUID()": {
        "details": "Implementation of the ERC1822 {proxiableUUID} function. This returns the storage slot used by the implementation. It is used to validate the implementation's compatibility when performing an upgrade. IMPORTANT: A proxy pointing at a proxiable contract should not be considered proxiable itself, because this risks bricking a proxy that upgrades to it, by delegating to itself until out of gas. Thus it is critical that this function revert if invoked through a proxy. This is guaranteed by the `notDelegated` modifier."
      },
      "renounceRole(bytes32,address)": {
        "details": "Revokes `role` from the calling account. Roles are often managed via {grantRole} and {revokeRole}: this function's purpose is to provide a mechanism for accounts to lose their privileges if they are compromised (such as when a trusted device is misplaced). If the calling account had been revoked `role`, emits a {RoleRevoked} event. Requirements: - the caller must be `account`. May emit a {RoleRevoked} event."
      },
      "revokeRole(bytes32,address)": {
        "details": "Revokes `role` from `account`. If `account` had been granted `role`, emits a {RoleRevoked} event. Requirements: - the caller must have ``role``'s admin role. May emit a {RoleRevoked} event."
      },
      "supportsInterface(bytes4)": {
        "details": "See {IERC165-supportsInterface}."
      },
      "upgradeTo(address)": {
        "details": "Upgrade the implementation of the proxy to `newImplementation`. Calls {_authorizeUpgrade}. Emits an {Upgraded} event."
      },
      "upgradeToAndCall(address,bytes)": {
        "details": "Upgrade the implementation of the proxy to `newImplementation`, and subsequently execute the function call encoded in `data`. Calls {_authorizeUpgrade}. Emits an {Upgraded} event."
      }
    },
    "version": 1
  },
  "userdoc": {
    "kind": "user",
    "methods": {},
    "version": 1
  },
  "storageLayout": {
    "storage": [
      {
        "astId": 804,
        "contract": "contracts/StrategyEts.sol:StrategyEts",
        "label": "_initialized",
        "offset": 0,
        "slot": "0",
        "type": "t_uint8"
      },
      {
        "astId": 807,
        "contract": "contracts/StrategyEts.sol:StrategyEts",
        "label": "_initializing",
        "offset": 1,
        "slot": "0",
        "type": "t_bool"
      },
      {
        "astId": 1427,
        "contract": "contracts/StrategyEts.sol:StrategyEts",
        "label": "__gap",
        "offset": 0,
        "slot": "1",
        "type": "t_array(t_uint256)50_storage"
      },
      {
        "astId": 1706,
        "contract": "contracts/StrategyEts.sol:StrategyEts",
        "label": "__gap",
        "offset": 0,
        "slot": "51",
        "type": "t_array(t_uint256)50_storage"
      },
      {
        "astId": 39,
        "contract": "contracts/StrategyEts.sol:StrategyEts",
        "label": "_roles",
        "offset": 0,
        "slot": "101",
        "type": "t_mapping(t_bytes32,t_struct(RoleData)34_storage)"
      },
      {
        "astId": 334,
        "contract": "contracts/StrategyEts.sol:StrategyEts",
        "label": "__gap",
        "offset": 0,
        "slot": "102",
        "type": "t_array(t_uint256)49_storage"
      },
      {
        "astId": 786,
        "contract": "contracts/StrategyEts.sol:StrategyEts",
        "label": "__gap",
        "offset": 0,
        "slot": "151",
        "type": "t_array(t_uint256)50_storage"
      },
      {
        "astId": 1101,
        "contract": "contracts/StrategyEts.sol:StrategyEts",
        "label": "__gap",
        "offset": 0,
        "slot": "201",
        "type": "t_array(t_uint256)50_storage"
      },
      {
        "astId": 14799,
        "contract": "contracts/StrategyEts.sol:StrategyEts",
        "label": "portfolioManager",
        "offset": 0,
        "slot": "251",
        "type": "t_address"
      },
      {
        "astId": 14801,
        "contract": "contracts/StrategyEts.sol:StrategyEts",
        "label": "swapSlippageBP",
        "offset": 0,
        "slot": "252",
        "type": "t_uint256"
      },
      {
        "astId": 14803,
        "contract": "contracts/StrategyEts.sol:StrategyEts",
        "label": "navSlippageBP",
        "offset": 0,
        "slot": "253",
        "type": "t_uint256"
      },
      {
        "astId": 14805,
        "contract": "contracts/StrategyEts.sol:StrategyEts",
        "label": "stakeSlippageBP",
        "offset": 0,
        "slot": "254",
        "type": "t_uint256"
      },
      {
        "astId": 15190,
        "contract": "contracts/StrategyEts.sol:StrategyEts",
        "label": "__gap",
        "offset": 0,
        "slot": "255",
        "type": "t_array(t_uint256)46_storage"
      },
      {
        "astId": 17073,
        "contract": "contracts/StrategyEts.sol:StrategyEts",
        "label": "asset",
        "offset": 0,
        "slot": "301",
        "type": "t_contract(IERC20)2662"
      },
      {
        "astId": 17076,
        "contract": "contracts/StrategyEts.sol:StrategyEts",
        "label": "rebaseToken",
        "offset": 0,
        "slot": "302",
        "type": "t_contract(IERC20)2662"
      },
      {
        "astId": 17079,
        "contract": "contracts/StrategyEts.sol:StrategyEts",
        "label": "hedgeExchanger",
        "offset": 0,
        "slot": "303",
        "type": "t_contract(IHedgeExchanger)15222"
      }
    ],
    "types": {
      "t_address": {
        "encoding": "inplace",
        "label": "address",
        "numberOfBytes": "20"
      },
      "t_array(t_uint256)46_storage": {
        "base": "t_uint256",
        "encoding": "inplace",
        "label": "uint256[46]",
        "numberOfBytes": "1472"
      },
      "t_array(t_uint256)49_storage": {
        "base": "t_uint256",
        "encoding": "inplace",
        "label": "uint256[49]",
        "numberOfBytes": "1568"
      },
      "t_array(t_uint256)50_storage": {
        "base": "t_uint256",
        "encoding": "inplace",
        "label": "uint256[50]",
        "numberOfBytes": "1600"
      },
      "t_bool": {
        "encoding": "inplace",
        "label": "bool",
        "numberOfBytes": "1"
      },
      "t_bytes32": {
        "encoding": "inplace",
        "label": "bytes32",
        "numberOfBytes": "32"
      },
      "t_contract(IERC20)2662": {
        "encoding": "inplace",
        "label": "contract IERC20",
        "numberOfBytes": "20"
      },
      "t_contract(IHedgeExchanger)15222": {
        "encoding": "inplace",
        "label": "contract IHedgeExchanger",
        "numberOfBytes": "20"
      },
      "t_mapping(t_address,t_bool)": {
        "encoding": "mapping",
        "key": "t_address",
        "label": "mapping(address => bool)",
        "numberOfBytes": "32",
        "value": "t_bool"
      },
      "t_mapping(t_bytes32,t_struct(RoleData)34_storage)": {
        "encoding": "mapping",
        "key": "t_bytes32",
        "label": "mapping(bytes32 => struct AccessControlUpgradeable.RoleData)",
        "numberOfBytes": "32",
        "value": "t_struct(RoleData)34_storage"
      },
      "t_struct(RoleData)34_storage": {
        "encoding": "inplace",
        "label": "struct AccessControlUpgradeable.RoleData",
        "members": [
          {
            "astId": 31,
            "contract": "contracts/StrategyEts.sol:StrategyEts",
            "label": "members",
            "offset": 0,
            "slot": "0",
            "type": "t_mapping(t_address,t_bool)"
          },
          {
            "astId": 33,
            "contract": "contracts/StrategyEts.sol:StrategyEts",
            "label": "adminRole",
            "offset": 0,
            "slot": "1",
            "type": "t_bytes32"
          }
        ],
        "numberOfBytes": "64"
      },
      "t_uint256": {
        "encoding": "inplace",
        "label": "uint256",
        "numberOfBytes": "32"
      },
      "t_uint8": {
        "encoding": "inplace",
        "label": "uint8",
        "numberOfBytes": "1"
      }
    }
  }
}