{
  "address": "0xA3928e92f7499B65514994D556d8EA8B523BBeb4",
  "abi": [
    {
      "inputs": [],
      "stateMutability": "nonpayable",
      "type": "constructor"
    },
    {
      "anonymous": false,
      "inputs": [
        {
          "indexed": false,
          "internalType": "address",
          "name": "previousAdmin",
          "type": "address"
        },
        {
          "indexed": false,
          "internalType": "address",
          "name": "newAdmin",
          "type": "address"
        }
      ],
      "name": "AdminChanged",
      "type": "event"
    },
    {
      "anonymous": false,
      "inputs": [
        {
          "indexed": true,
          "internalType": "address",
          "name": "beacon",
          "type": "address"
        }
      ],
      "name": "BeaconUpgraded",
      "type": "event"
    },
    {
      "anonymous": false,
      "inputs": [
        {
          "indexed": true,
          "internalType": "address",
          "name": "token",
          "type": "address"
        },
        {
          "indexed": true,
          "internalType": "address",
          "name": "sender",
          "type": "address"
        },
        {
          "indexed": false,
          "internalType": "uint256",
          "name": "amount",
          "type": "uint256"
        }
      ],
      "name": "ERC20Deposited",
      "type": "event"
    },
    {
      "anonymous": false,
      "inputs": [
        {
          "indexed": true,
          "internalType": "address",
          "name": "token",
          "type": "address"
        },
        {
          "indexed": true,
          "internalType": "address",
          "name": "to",
          "type": "address"
        },
        {
          "indexed": false,
          "internalType": "uint256",
          "name": "amount",
          "type": "uint256"
        }
      ],
      "name": "ERC20Withdrawn",
      "type": "event"
    },
    {
      "anonymous": false,
      "inputs": [
        {
          "indexed": false,
          "internalType": "uint8",
          "name": "version",
          "type": "uint8"
        }
      ],
      "name": "Initialized",
      "type": "event"
    },
    {
      "anonymous": false,
      "inputs": [
        {
          "indexed": true,
          "internalType": "bytes32",
          "name": "role",
          "type": "bytes32"
        },
        {
          "indexed": true,
          "internalType": "bytes32",
          "name": "previousAdminRole",
          "type": "bytes32"
        },
        {
          "indexed": true,
          "internalType": "bytes32",
          "name": "newAdminRole",
          "type": "bytes32"
        }
      ],
      "name": "RoleAdminChanged",
      "type": "event"
    },
    {
      "anonymous": false,
      "inputs": [
        {
          "indexed": true,
          "internalType": "bytes32",
          "name": "role",
          "type": "bytes32"
        },
        {
          "indexed": true,
          "internalType": "address",
          "name": "account",
          "type": "address"
        },
        {
          "indexed": true,
          "internalType": "address",
          "name": "sender",
          "type": "address"
        }
      ],
      "name": "RoleGranted",
      "type": "event"
    },
    {
      "anonymous": false,
      "inputs": [
        {
          "indexed": true,
          "internalType": "bytes32",
          "name": "role",
          "type": "bytes32"
        },
        {
          "indexed": true,
          "internalType": "address",
          "name": "account",
          "type": "address"
        },
        {
          "indexed": true,
          "internalType": "address",
          "name": "sender",
          "type": "address"
        }
      ],
      "name": "RoleRevoked",
      "type": "event"
    },
    {
      "anonymous": false,
      "inputs": [
        {
          "indexed": true,
          "internalType": "address",
          "name": "implementation",
          "type": "address"
        }
      ],
      "name": "Upgraded",
      "type": "event"
    },
    {
      "anonymous": false,
      "inputs": [
        {
          "indexed": true,
          "internalType": "address",
          "name": "withdrawer",
          "type": "address"
        }
      ],
      "name": "WithdrawerAdded",
      "type": "event"
    },
    {
      "anonymous": false,
      "inputs": [
        {
          "indexed": true,
          "internalType": "address",
          "name": "withdrawer",
          "type": "address"
        }
      ],
      "name": "WithdrawerRemoved",
      "type": "event"
    },
    {
      "inputs": [],
      "name": "DEFAULT_ADMIN_ROLE",
      "outputs": [
        {
          "internalType": "bytes32",
          "name": "",
          "type": "bytes32"
        }
      ],
      "stateMutability": "view",
      "type": "function"
    },
    {
      "inputs": [
        {
          "internalType": "address",
          "name": "withdrawer",
          "type": "address"
        }
      ],
      "name": "addWithdrawer",
      "outputs": [],
      "stateMutability": "nonpayable",
      "type": "function"
    },
    {
      "inputs": [
        {
          "internalType": "address",
          "name": "",
          "type": "address"
        }
      ],
      "name": "allowedWithdrawers",
      "outputs": [
        {
          "internalType": "bool",
          "name": "",
          "type": "bool"
        }
      ],
      "stateMutability": "view",
      "type": "function"
    },
    {
      "inputs": [
        {
          "internalType": "address",
          "name": "token",
          "type": "address"
        },
        {
          "internalType": "address",
          "name": "spender",
          "type": "address"
        },
        {
          "internalType": "uint256",
          "name": "amount",
          "type": "uint256"
        }
      ],
      "name": "approveERC20",
      "outputs": [],
      "stateMutability": "nonpayable",
      "type": "function"
    },
    {
      "inputs": [],
      "name": "bebopSettlement",
      "outputs": [
        {
          "internalType": "address",
          "name": "",
          "type": "address"
        }
      ],
      "stateMutability": "view",
      "type": "function"
    },
    {
      "inputs": [
        {
          "internalType": "address",
          "name": "token",
          "type": "address"
        }
      ],
      "name": "getERC20Balance",
      "outputs": [
        {
          "internalType": "uint256",
          "name": "",
          "type": "uint256"
        }
      ],
      "stateMutability": "view",
      "type": "function"
    },
    {
      "inputs": [
        {
          "internalType": "bytes32",
          "name": "role",
          "type": "bytes32"
        }
      ],
      "name": "getRoleAdmin",
      "outputs": [
        {
          "internalType": "bytes32",
          "name": "",
          "type": "bytes32"
        }
      ],
      "stateMutability": "view",
      "type": "function"
    },
    {
      "inputs": [
        {
          "internalType": "bytes32",
          "name": "role",
          "type": "bytes32"
        },
        {
          "internalType": "address",
          "name": "account",
          "type": "address"
        }
      ],
      "name": "grantRole",
      "outputs": [],
      "stateMutability": "nonpayable",
      "type": "function"
    },
    {
      "inputs": [
        {
          "internalType": "bytes32",
          "name": "role",
          "type": "bytes32"
        },
        {
          "internalType": "address",
          "name": "account",
          "type": "address"
        }
      ],
      "name": "hasRole",
      "outputs": [
        {
          "internalType": "bool",
          "name": "",
          "type": "bool"
        }
      ],
      "stateMutability": "view",
      "type": "function"
    },
    {
      "inputs": [],
      "name": "initialize",
      "outputs": [],
      "stateMutability": "nonpayable",
      "type": "function"
    },
    {
      "inputs": [],
      "name": "proxiableUUID",
      "outputs": [
        {
          "internalType": "bytes32",
          "name": "",
          "type": "bytes32"
        }
      ],
      "stateMutability": "view",
      "type": "function"
    },
    {
      "inputs": [
        {
          "internalType": "address",
          "name": "signer",
          "type": "address"
        },
        {
          "internalType": "bool",
          "name": "allowed",
          "type": "bool"
        }
      ],
      "name": "registerOrderSigner",
      "outputs": [],
      "stateMutability": "nonpayable",
      "type": "function"
    },
    {
      "inputs": [
        {
          "internalType": "address",
          "name": "withdrawer",
          "type": "address"
        }
      ],
      "name": "removeWithdrawer",
      "outputs": [],
      "stateMutability": "nonpayable",
      "type": "function"
    },
    {
      "inputs": [
        {
          "internalType": "bytes32",
          "name": "role",
          "type": "bytes32"
        },
        {
          "internalType": "address",
          "name": "account",
          "type": "address"
        }
      ],
      "name": "renounceRole",
      "outputs": [],
      "stateMutability": "nonpayable",
      "type": "function"
    },
    {
      "inputs": [
        {
          "internalType": "bytes32",
          "name": "role",
          "type": "bytes32"
        },
        {
          "internalType": "address",
          "name": "account",
          "type": "address"
        }
      ],
      "name": "revokeRole",
      "outputs": [],
      "stateMutability": "nonpayable",
      "type": "function"
    },
    {
      "inputs": [
        {
          "internalType": "address",
          "name": "_bebopSettlement",
          "type": "address"
        }
      ],
      "name": "setBebopSettlement",
      "outputs": [],
      "stateMutability": "nonpayable",
      "type": "function"
    },
    {
      "inputs": [
        {
          "internalType": "bytes4",
          "name": "interfaceId",
          "type": "bytes4"
        }
      ],
      "name": "supportsInterface",
      "outputs": [
        {
          "internalType": "bool",
          "name": "",
          "type": "bool"
        }
      ],
      "stateMutability": "view",
      "type": "function"
    },
    {
      "inputs": [
        {
          "internalType": "address",
          "name": "newImplementation",
          "type": "address"
        }
      ],
      "name": "upgradeTo",
      "outputs": [],
      "stateMutability": "nonpayable",
      "type": "function"
    },
    {
      "inputs": [
        {
          "internalType": "address",
          "name": "newImplementation",
          "type": "address"
        },
        {
          "internalType": "bytes",
          "name": "data",
          "type": "bytes"
        }
      ],
      "name": "upgradeToAndCall",
      "outputs": [],
      "stateMutability": "payable",
      "type": "function"
    },
    {
      "inputs": [
        {
          "internalType": "address",
          "name": "token",
          "type": "address"
        },
        {
          "internalType": "uint256",
          "name": "amount",
          "type": "uint256"
        }
      ],
      "name": "withdrawERC20",
      "outputs": [],
      "stateMutability": "nonpayable",
      "type": "function"
    }
  ],
  "numDeployments": 1,
  "solcInputHash": "eae882a4bf8a24a98b13381faa134a3c",
  "bytecode": "0x60a06040523060805234801561001457600080fd5b5061001d610022565b6100e1565b600054610100900460ff161561008e5760405162461bcd60e51b815260206004820152602760248201527f496e697469616c697a61626c653a20636f6e747261637420697320696e697469604482015266616c697a696e6760c81b606482015260840160405180910390fd5b60005460ff908116146100df576000805460ff191660ff9081179091556040519081527f7f26b83ff96e1f2b6a682f133852f6798a09c465da95921460cefb38474024989060200160405180910390a15b565b608051611cdb6101186000396000818161055f0152818161059f015281816106270152818161066701526106df0152611cdb6000f3fe60806040526004361061011f5760003560e01c80637eee38b7116100a0578063a217fddf11610064578063a217fddf14610326578063a8e5e4aa1461033b578063b588d2251461035b578063c4ae1acd1461037b578063d547741f146103b357600080fd5b80637eee38b7146102815780638129fc1c146102b157806391d14854146102c65780639b0131be146102e6578063a1db97821461030657600080fd5b80633659cfe6116100e75780633659cfe6146101f95780634f1ef2861461021957806352d1902d1461022c57806356788a8c14610241578063711bd9eb1461026157600080fd5b806301ffc9a714610124578063248a9ca3146101595780632e7fecd7146101975780632f2ff15d146101b957806336568abe146101d9575b600080fd5b34801561013057600080fd5b5061014461013f3660046117ea565b6103d3565b60405190151581526020015b60405180910390f35b34801561016557600080fd5b50610189610174366004611814565b600090815260c9602052604090206001015490565b604051908152602001610150565b3480156101a357600080fd5b506101b76101b2366004611849565b61040a565b005b3480156101c557600080fd5b506101b76101d4366004611864565b6104ad565b3480156101e557600080fd5b506101b76101f4366004611864565b6104d7565b34801561020557600080fd5b506101b7610214366004611849565b610555565b6101b76102273660046118a6565b61061d565b34801561023857600080fd5b506101896106d2565b34801561024d57600080fd5b506101b761025c366004611849565b610780565b34801561026d57600080fd5b506101b761027c366004611849565b610838565b34801561028d57600080fd5b5061014461029c366004611849565b60fb6020526000908152604090205460ff1681565b3480156102bd57600080fd5b506101b76108a8565b3480156102d257600080fd5b506101446102e1366004611864565b6109cb565b3480156102f257600080fd5b506101b7610301366004611976565b6109f6565b34801561031257600080fd5b506101b76103213660046119ad565b610acf565b34801561033257600080fd5b50610189600081565b34801561034757600080fd5b506101b76103563660046119d7565b610b7f565b34801561036757600080fd5b50610189610376366004611849565b610cdb565b34801561038757600080fd5b5060fc5461039b906001600160a01b031681565b6040516001600160a01b039091168152602001610150565b3480156103bf57600080fd5b506101b76103ce366004611864565b610d46565b60006001600160e01b03198216637965db0b60e01b148061040457506301ffc9a760e01b6001600160e01b03198316145b92915050565b6104156000336109cb565b61043a5760405162461bcd60e51b815260040161043190611a13565b60405180910390fd5b6001600160a01b03811661048b5760405162461bcd60e51b8152602060048201526018602482015277125b9d985b1a59081899589bdc081cd95d1d1b195b595b9d60421b6044820152606401610431565b60fc80546001600160a01b0319166001600160a01b0392909216919091179055565b600082815260c960205260409020600101546104c881610d6b565b6104d28383610d75565b505050565b6001600160a01b03811633146105475760405162461bcd60e51b815260206004820152602f60248201527f416363657373436f6e74726f6c3a2063616e206f6e6c792072656e6f756e636560448201526e103937b632b9903337b91039b2b63360891b6064820152608401610431565b6105518282610dfb565b5050565b6001600160a01b037f000000000000000000000000000000000000000000000000000000000000000016300361059d5760405162461bcd60e51b815260040161043190611a41565b7f00000000000000000000000000000000000000000000000000000000000000006001600160a01b03166105cf610e62565b6001600160a01b0316146105f55760405162461bcd60e51b815260040161043190611a8d565b6105fe81610e7e565b6040805160008082526020820190925261061a91839190610e89565b50565b6001600160a01b037f00000000000000000000000000000000000000000000000000000000000000001630036106655760405162461bcd60e51b815260040161043190611a41565b7f00000000000000000000000000000000000000000000000000000000000000006001600160a01b0316610697610e62565b6001600160a01b0316146106bd5760405162461bcd60e51b815260040161043190611a8d565b6106c682610e7e565b61055182826001610e89565b6000306001600160a01b037f0000000000000000000000000000000000000000000000000000000000000000161461076d5760405162461bcd60e51b815260206004820152603860248201527f555550535570677261646561626c653a206d757374206e6f742062652063616c6044820152771b1959081d1a1c9bdd59da0819195b1959d85d1958d85b1b60421b6064820152608401610431565b50600080516020611c5f83398151915290565b61078b6000336109cb565b6107a75760405162461bcd60e51b815260040161043190611a13565b6001600160a01b0381166107ec5760405162461bcd60e51b815260206004820152600c60248201526b5a65726f206164647265737360a01b6044820152606401610431565b6001600160a01b038116600081815260fb6020526040808220805460ff19166001179055517fa1a8c5d4571c30d14645a130aa34aa21e2983b734153cce6cbc9eb750f5db49d9190a250565b6108436000336109cb565b61085f5760405162461bcd60e51b815260040161043190611a13565b6001600160a01b038116600081815260fb6020526040808220805460ff19169055517f4c2d50c11eee24ae13f209880951e560d483a69ccf4d53af33195df596295a9e9190a250565b600054610100900460ff16158080156108c85750600054600160ff909116105b806108e25750303b1580156108e2575060005460ff166001145b6109455760405162461bcd60e51b815260206004820152602e60248201527f496e697469616c697a61626c653a20636f6e747261637420697320616c72656160448201526d191e481a5b9a5d1a585b1a5e995960921b6064820152608401610431565b6000805460ff191660011790558015610968576000805461ff0019166101001790555b610970610ff4565b610978610ff4565b610983600033610d75565b801561061a576000805461ff0019169055604051600181527f7f26b83ff96e1f2b6a682f133852f6798a09c465da95921460cefb38474024989060200160405180910390a150565b600091825260c9602090815260408084206001600160a01b0393909316845291905290205460ff1690565b610a016000336109cb565b610a1d5760405162461bcd60e51b815260040161043190611a13565b6001600160a01b038216610a645760405162461bcd60e51b815260206004820152600e60248201526d24b73b30b634b21039b4b3b732b960911b6044820152606401610431565b60fc5460405163ea7faa6160e01b81526001600160a01b03848116600483015283151560248301529091169063ea7faa6190604401600060405180830381600087803b158015610ab357600080fd5b505af1158015610ac7573d6000803e3d6000fd5b505050505050565b33600090815260fb602052604090205460ff16610b275760405162461bcd60e51b81526020600482015260166024820152752737ba1030b63637bbb2b2103bb4ba34323930bbb2b960511b6044820152606401610431565b610b3b6001600160a01b0383163383611061565b60405181815233906001600160a01b038416907fbfed55bdcd242e3dd0f60ddd7d1e87c67f61c34cd9527b3e6455d841b10253629060200160405180910390a35050565b610b8a6000336109cb565b610ba65760405162461bcd60e51b815260040161043190611a13565b6001600160a01b038216610bee5760405162461bcd60e51b815260206004820152600f60248201526e24b73b30b634b21039b832b73232b960891b6044820152606401610431565b6001600160a01b038316610c345760405162461bcd60e51b815260206004820152600d60248201526c24b73b30b634b2103a37b5b2b760991b6044820152606401610431565b604051636eb1769f60e11b81523060048201526001600160a01b03838116602483015284919082169063dd62ed3e90604401602060405180830381865afa158015610c83573d6000803e3d6000fd5b505050506040513d601f19601f82011682018060405250810190610ca79190611ad9565b15610cc157610cc16001600160a01b0382168460006110c4565b610cd56001600160a01b03821684846110c4565b50505050565b6040516370a0823160e01b81523060048201526000906001600160a01b038316906370a0823190602401602060405180830381865afa158015610d22573d6000803e3d6000fd5b505050506040513d601f19601f820116820180604052508101906104049190611ad9565b600082815260c96020526040902060010154610d6181610d6b565b6104d28383610dfb565b61061a81336111d9565b610d7f82826109cb565b61055157600082815260c9602090815260408083206001600160a01b03851684529091529020805460ff19166001179055610db73390565b6001600160a01b0316816001600160a01b0316837f2f8788117e7eff1d82e926ec794901d17c78024a50270940304540a733656f0d60405160405180910390a45050565b610e0582826109cb565b1561055157600082815260c9602090815260408083206001600160a01b0385168085529252808320805460ff1916905551339285917ff6391f5c32d9c69d2a47ea670b442974b53935d1edc7fd64eb21e047a839171b9190a45050565b600080516020611c5f833981519152546001600160a01b031690565b600061055181610d6b565b7f4910fdfa16fed3260ed0e7147f7cc6da11a60208b5b9406d12a635614ffd91435460ff1615610ebc576104d283611232565b826001600160a01b03166352d1902d6040518163ffffffff1660e01b8152600401602060405180830381865afa925050508015610f16575060408051601f3d908101601f19168201909252610f1391810190611ad9565b60015b610f795760405162461bcd60e51b815260206004820152602e60248201527f45524331393637557067726164653a206e657720696d706c656d656e7461746960448201526d6f6e206973206e6f74205555505360901b6064820152608401610431565b600080516020611c5f8339815191528114610fe85760405162461bcd60e51b815260206004820152602960248201527f45524331393637557067726164653a20756e737570706f727465642070726f786044820152681a58589b195555525160ba1b6064820152608401610431565b506104d28383836112ce565b600054610100900460ff1661105f5760405162461bcd60e51b815260206004820152602b60248201527f496e697469616c697a61626c653a20636f6e7472616374206973206e6f74206960448201526a6e697469616c697a696e6760a81b6064820152608401610431565b565b6040516001600160a01b0383166024820152604481018290526104d290849063a9059cbb60e01b906064015b60408051601f198184030181529190526020810180516001600160e01b03166001600160e01b0319909316929092179091526112f3565b80158061113e5750604051636eb1769f60e11b81523060048201526001600160a01b03838116602483015284169063dd62ed3e90604401602060405180830381865afa158015611118573d6000803e3d6000fd5b505050506040513d601f19601f8201168201806040525081019061113c9190611ad9565b155b6111a95760405162461bcd60e51b815260206004820152603660248201527f5361666545524332303a20617070726f76652066726f6d206e6f6e2d7a65726f60448201527520746f206e6f6e2d7a65726f20616c6c6f77616e636560501b6064820152608401610431565b6040516001600160a01b0383166024820152604481018290526104d290849063095ea7b360e01b9060640161108d565b6111e382826109cb565b610551576111f0816113c8565b6111fb8360206113da565b60405160200161120c929190611b16565b60408051601f198184030181529082905262461bcd60e51b825261043191600401611b85565b6001600160a01b0381163b61129f5760405162461bcd60e51b815260206004820152602d60248201527f455243313936373a206e657720696d706c656d656e746174696f6e206973206e60448201526c1bdd08184818dbdb9d1c9858dd609a1b6064820152608401610431565b600080516020611c5f83398151915280546001600160a01b0319166001600160a01b0392909216919091179055565b6112d78361157d565b6000825111806112e45750805b156104d257610cd583836115bd565b6000611348826040518060400160405280602081526020017f5361666545524332303a206c6f772d6c6576656c2063616c6c206661696c6564815250856001600160a01b03166115e29092919063ffffffff16565b90508051600014806113695750808060200190518101906113699190611bb8565b6104d25760405162461bcd60e51b815260206004820152602a60248201527f5361666545524332303a204552433230206f7065726174696f6e20646964206e6044820152691bdd081cdd58d8d9595960b21b6064820152608401610431565b60606104046001600160a01b03831660145b606060006113e9836002611beb565b6113f4906002611c02565b67ffffffffffffffff81111561140c5761140c611890565b6040519080825280601f01601f191660200182016040528015611436576020820181803683370190505b509050600360fc1b8160008151811061145157611451611c15565b60200101906001600160f81b031916908160001a905350600f60fb1b8160018151811061148057611480611c15565b60200101906001600160f81b031916908160001a90535060006114a4846002611beb565b6114af906001611c02565b90505b6001811115611527576f181899199a1a9b1b9c1cb0b131b232b360811b85600f16601081106114e3576114e3611c15565b1a60f81b8282815181106114f9576114f9611c15565b60200101906001600160f81b031916908160001a90535060049490941c9361152081611c2b565b90506114b2565b5083156115765760405162461bcd60e51b815260206004820181905260248201527f537472696e67733a20686578206c656e67746820696e73756666696369656e746044820152606401610431565b9392505050565b61158681611232565b6040516001600160a01b038216907fbc7cd75a20ee27fd9adebab32041f755214dbc6bffa90cc0225b39da2e5c2d3b90600090a250565b60606115768383604051806060016040528060278152602001611c7f602791396115f9565b60606115f18484600085611671565b949350505050565b6060600080856001600160a01b0316856040516116169190611c42565b600060405180830381855af49150503d8060008114611651576040519150601f19603f3d011682016040523d82523d6000602084013e611656565b606091505b50915091506116678683838761174c565b9695505050505050565b6060824710156116d25760405162461bcd60e51b815260206004820152602660248201527f416464726573733a20696e73756666696369656e742062616c616e636520666f6044820152651c8818d85b1b60d21b6064820152608401610431565b600080866001600160a01b031685876040516116ee9190611c42565b60006040518083038185875af1925050503d806000811461172b576040519150601f19603f3d011682016040523d82523d6000602084013e611730565b606091505b50915091506117418783838761174c565b979650505050505050565b606083156117bb5782516000036117b4576001600160a01b0385163b6117b45760405162461bcd60e51b815260206004820152601d60248201527f416464726573733a2063616c6c20746f206e6f6e2d636f6e74726163740000006044820152606401610431565b50816115f1565b6115f183838151156117d05781518083602001fd5b8060405162461bcd60e51b81526004016104319190611b85565b6000602082840312156117fc57600080fd5b81356001600160e01b03198116811461157657600080fd5b60006020828403121561182657600080fd5b5035919050565b80356001600160a01b038116811461184457600080fd5b919050565b60006020828403121561185b57600080fd5b6115768261182d565b6000806040838503121561187757600080fd5b823591506118876020840161182d565b90509250929050565b634e487b7160e01b600052604160045260246000fd5b600080604083850312156118b957600080fd5b6118c28361182d565b9150602083013567ffffffffffffffff808211156118df57600080fd5b818501915085601f8301126118f357600080fd5b81358181111561190557611905611890565b604051601f8201601f19908116603f0116810190838211818310171561192d5761192d611890565b8160405282815288602084870101111561194657600080fd5b8260208601602083013760006020848301015280955050505050509250929050565b801515811461061a57600080fd5b6000806040838503121561198957600080fd5b6119928361182d565b915060208301356119a281611968565b809150509250929050565b600080604083850312156119c057600080fd5b6119c98361182d565b946020939093013593505050565b6000806000606084860312156119ec57600080fd5b6119f58461182d565b9250611a036020850161182d565b9150604084013590509250925092565b6020808252601490820152735265737472696374656420746f2061646d696e7360601b604082015260600190565b6020808252602c908201527f46756e6374696f6e206d7573742062652063616c6c6564207468726f7567682060408201526b19195b1959d85d1958d85b1b60a21b606082015260800190565b6020808252602c908201527f46756e6374696f6e206d7573742062652063616c6c6564207468726f7567682060408201526b6163746976652070726f787960a01b606082015260800190565b600060208284031215611aeb57600080fd5b5051919050565b60005b83811015611b0d578181015183820152602001611af5565b50506000910152565b76020b1b1b2b9b9a1b7b73a3937b61d1030b1b1b7bab73a1604d1b815260008351611b48816017850160208801611af2565b7001034b99036b4b9b9b4b733903937b6329607d1b6017918401918201528351611b79816028840160208801611af2565b01602801949350505050565b6020815260008251806020840152611ba4816040850160208701611af2565b601f01601f19169190910160400192915050565b600060208284031215611bca57600080fd5b815161157681611968565b634e487b7160e01b600052601160045260246000fd5b808202811582820484141761040457610404611bd5565b8082018082111561040457610404611bd5565b634e487b7160e01b600052603260045260246000fd5b600081611c3a57611c3a611bd5565b506000190190565b60008251611c54818460208701611af2565b919091019291505056fe360894a13ba1a3210667c828492db98dca3e2076cc3735a920a3ca505d382bbc416464726573733a206c6f772d6c6576656c2064656c65676174652063616c6c206661696c6564a2646970667358221220511db02ccc06c6d5be33c53049a1ed2a1ac667f1f90f52b501635cbf7b6733be64736f6c63430008110033",
  "implementation": "0x3d15C40DFF65b93aE96539550D7DB799Ca84a181",
  "devdoc": {
    "kind": "dev",
    "methods": {
      "constructor": {
        "custom:oz-upgrades-unsafe-allow": "constructor"
      },
      "getRoleAdmin(bytes32)": {
        "details": "Returns the admin role that controls `role`. See {grantRole} and {revokeRole}. To change a role's admin, use {_setRoleAdmin}."
      },
      "grantRole(bytes32,address)": {
        "details": "Grants `role` to `account`. If `account` had not been already granted `role`, emits a {RoleGranted} event. Requirements: - the caller must have ``role``'s admin role. May emit a {RoleGranted} event."
      },
      "hasRole(bytes32,address)": {
        "details": "Returns `true` if `account` has been granted `role`."
      },
      "proxiableUUID()": {
        "details": "Implementation of the ERC1822 {proxiableUUID} function. This returns the storage slot used by the implementation. It is used to validate the implementation's compatibility when performing an upgrade. IMPORTANT: A proxy pointing at a proxiable contract should not be considered proxiable itself, because this risks bricking a proxy that upgrades to it, by delegating to itself until out of gas. Thus it is critical that this function revert if invoked through a proxy. This is guaranteed by the `notDelegated` modifier."
      },
      "renounceRole(bytes32,address)": {
        "details": "Revokes `role` from the calling account. Roles are often managed via {grantRole} and {revokeRole}: this function's purpose is to provide a mechanism for accounts to lose their privileges if they are compromised (such as when a trusted device is misplaced). If the calling account had been revoked `role`, emits a {RoleRevoked} event. Requirements: - the caller must be `account`. May emit a {RoleRevoked} event."
      },
      "revokeRole(bytes32,address)": {
        "details": "Revokes `role` from `account`. If `account` had been granted `role`, emits a {RoleRevoked} event. Requirements: - the caller must have ``role``'s admin role. May emit a {RoleRevoked} event."
      },
      "supportsInterface(bytes4)": {
        "details": "See {IERC165-supportsInterface}."
      },
      "upgradeTo(address)": {
        "custom:oz-upgrades-unsafe-allow-reachable": "delegatecall",
        "details": "Upgrade the implementation of the proxy to `newImplementation`. Calls {_authorizeUpgrade}. Emits an {Upgraded} event."
      },
      "upgradeToAndCall(address,bytes)": {
        "custom:oz-upgrades-unsafe-allow-reachable": "delegatecall",
        "details": "Upgrade the implementation of the proxy to `newImplementation`, and subsequently execute the function call encoded in `data`. Calls {_authorizeUpgrade}. Emits an {Upgraded} event."
      }
    },
    "version": 1
  },
  "userdoc": {
    "kind": "user",
    "methods": {},
    "version": 1
  },
  "storageLayout": {
    "storage": [
      {
        "astId": 953,
        "contract": "contracts/BebopVault.sol:BebopVault",
        "label": "_initialized",
        "offset": 0,
        "slot": "0",
        "type": "t_uint8"
      },
      {
        "astId": 956,
        "contract": "contracts/BebopVault.sol:BebopVault",
        "label": "_initializing",
        "offset": 1,
        "slot": "0",
        "type": "t_bool"
      },
      {
        "astId": 935,
        "contract": "contracts/BebopVault.sol:BebopVault",
        "label": "__gap",
        "offset": 0,
        "slot": "1",
        "type": "t_array(t_uint256)50_storage"
      },
      {
        "astId": 1251,
        "contract": "contracts/BebopVault.sol:BebopVault",
        "label": "__gap",
        "offset": 0,
        "slot": "51",
        "type": "t_array(t_uint256)50_storage"
      },
      {
        "astId": 1863,
        "contract": "contracts/BebopVault.sol:BebopVault",
        "label": "__gap",
        "offset": 0,
        "slot": "101",
        "type": "t_array(t_uint256)50_storage"
      },
      {
        "astId": 2247,
        "contract": "contracts/BebopVault.sol:BebopVault",
        "label": "__gap",
        "offset": 0,
        "slot": "151",
        "type": "t_array(t_uint256)50_storage"
      },
      {
        "astId": 174,
        "contract": "contracts/BebopVault.sol:BebopVault",
        "label": "_roles",
        "offset": 0,
        "slot": "201",
        "type": "t_mapping(t_bytes32,t_struct(RoleData)169_storage)"
      },
      {
        "astId": 481,
        "contract": "contracts/BebopVault.sol:BebopVault",
        "label": "__gap",
        "offset": 0,
        "slot": "202",
        "type": "t_array(t_uint256)49_storage"
      },
      {
        "astId": 27175,
        "contract": "contracts/BebopVault.sol:BebopVault",
        "label": "allowedWithdrawers",
        "offset": 0,
        "slot": "251",
        "type": "t_mapping(t_address,t_bool)"
      },
      {
        "astId": 27177,
        "contract": "contracts/BebopVault.sol:BebopVault",
        "label": "bebopSettlement",
        "offset": 0,
        "slot": "252",
        "type": "t_address"
      }
    ],
    "types": {
      "t_address": {
        "encoding": "inplace",
        "label": "address",
        "numberOfBytes": "20"
      },
      "t_array(t_uint256)49_storage": {
        "base": "t_uint256",
        "encoding": "inplace",
        "label": "uint256[49]",
        "numberOfBytes": "1568"
      },
      "t_array(t_uint256)50_storage": {
        "base": "t_uint256",
        "encoding": "inplace",
        "label": "uint256[50]",
        "numberOfBytes": "1600"
      },
      "t_bool": {
        "encoding": "inplace",
        "label": "bool",
        "numberOfBytes": "1"
      },
      "t_bytes32": {
        "encoding": "inplace",
        "label": "bytes32",
        "numberOfBytes": "32"
      },
      "t_mapping(t_address,t_bool)": {
        "encoding": "mapping",
        "key": "t_address",
        "label": "mapping(address => bool)",
        "numberOfBytes": "32",
        "value": "t_bool"
      },
      "t_mapping(t_bytes32,t_struct(RoleData)169_storage)": {
        "encoding": "mapping",
        "key": "t_bytes32",
        "label": "mapping(bytes32 => struct AccessControlUpgradeable.RoleData)",
        "numberOfBytes": "32",
        "value": "t_struct(RoleData)169_storage"
      },
      "t_struct(RoleData)169_storage": {
        "encoding": "inplace",
        "label": "struct AccessControlUpgradeable.RoleData",
        "members": [
          {
            "astId": 166,
            "contract": "contracts/BebopVault.sol:BebopVault",
            "label": "members",
            "offset": 0,
            "slot": "0",
            "type": "t_mapping(t_address,t_bool)"
          },
          {
            "astId": 168,
            "contract": "contracts/BebopVault.sol:BebopVault",
            "label": "adminRole",
            "offset": 0,
            "slot": "1",
            "type": "t_bytes32"
          }
        ],
        "numberOfBytes": "64"
      },
      "t_uint256": {
        "encoding": "inplace",
        "label": "uint256",
        "numberOfBytes": "32"
      },
      "t_uint8": {
        "encoding": "inplace",
        "label": "uint8",
        "numberOfBytes": "1"
      }
    }
  }
}