{
  "address": "0x398B66c4c69Bf19EA6A3c97e8d8b9c93f295D209",
  "abi": [
    {
      "inputs": [],
      "stateMutability": "nonpayable",
      "type": "constructor"
    },
    {
      "anonymous": false,
      "inputs": [
        {
          "indexed": false,
          "internalType": "address",
          "name": "previousAdmin",
          "type": "address"
        },
        {
          "indexed": false,
          "internalType": "address",
          "name": "newAdmin",
          "type": "address"
        }
      ],
      "name": "AdminChanged",
      "type": "event"
    },
    {
      "anonymous": false,
      "inputs": [
        {
          "indexed": true,
          "internalType": "address",
          "name": "beacon",
          "type": "address"
        }
      ],
      "name": "BeaconUpgraded",
      "type": "event"
    },
    {
      "anonymous": false,
      "inputs": [
        {
          "indexed": false,
          "internalType": "address",
          "name": "account",
          "type": "address"
        }
      ],
      "name": "Paused",
      "type": "event"
    },
    {
      "anonymous": false,
      "inputs": [
        {
          "indexed": true,
          "internalType": "address",
          "name": "user",
          "type": "address"
        },
        {
          "indexed": false,
          "internalType": "uint256",
          "name": "reward",
          "type": "uint256"
        }
      ],
      "name": "RewardPaid",
      "type": "event"
    },
    {
      "anonymous": false,
      "inputs": [
        {
          "indexed": false,
          "internalType": "uint256",
          "name": "rewardRate",
          "type": "uint256"
        },
        {
          "indexed": false,
          "internalType": "uint256",
          "name": "periodFinish",
          "type": "uint256"
        }
      ],
      "name": "RewardProgram",
      "type": "event"
    },
    {
      "anonymous": false,
      "inputs": [
        {
          "indexed": true,
          "internalType": "bytes32",
          "name": "role",
          "type": "bytes32"
        },
        {
          "indexed": true,
          "internalType": "bytes32",
          "name": "previousAdminRole",
          "type": "bytes32"
        },
        {
          "indexed": true,
          "internalType": "bytes32",
          "name": "newAdminRole",
          "type": "bytes32"
        }
      ],
      "name": "RoleAdminChanged",
      "type": "event"
    },
    {
      "anonymous": false,
      "inputs": [
        {
          "indexed": true,
          "internalType": "bytes32",
          "name": "role",
          "type": "bytes32"
        },
        {
          "indexed": true,
          "internalType": "address",
          "name": "account",
          "type": "address"
        },
        {
          "indexed": true,
          "internalType": "address",
          "name": "sender",
          "type": "address"
        }
      ],
      "name": "RoleGranted",
      "type": "event"
    },
    {
      "anonymous": false,
      "inputs": [
        {
          "indexed": true,
          "internalType": "bytes32",
          "name": "role",
          "type": "bytes32"
        },
        {
          "indexed": true,
          "internalType": "address",
          "name": "account",
          "type": "address"
        },
        {
          "indexed": true,
          "internalType": "address",
          "name": "sender",
          "type": "address"
        }
      ],
      "name": "RoleRevoked",
      "type": "event"
    },
    {
      "anonymous": false,
      "inputs": [
        {
          "indexed": true,
          "internalType": "address",
          "name": "user",
          "type": "address"
        },
        {
          "indexed": false,
          "internalType": "uint256",
          "name": "amount",
          "type": "uint256"
        }
      ],
      "name": "Staked",
      "type": "event"
    },
    {
      "anonymous": false,
      "inputs": [
        {
          "indexed": false,
          "internalType": "address",
          "name": "account",
          "type": "address"
        }
      ],
      "name": "Unpaused",
      "type": "event"
    },
    {
      "anonymous": false,
      "inputs": [
        {
          "indexed": false,
          "internalType": "address",
          "name": "stakingToken",
          "type": "address"
        },
        {
          "indexed": false,
          "internalType": "address",
          "name": "rewardToken",
          "type": "address"
        }
      ],
      "name": "UpdateTokens",
      "type": "event"
    },
    {
      "anonymous": false,
      "inputs": [
        {
          "indexed": true,
          "internalType": "address",
          "name": "implementation",
          "type": "address"
        }
      ],
      "name": "Upgraded",
      "type": "event"
    },
    {
      "anonymous": false,
      "inputs": [
        {
          "indexed": true,
          "internalType": "address",
          "name": "user",
          "type": "address"
        },
        {
          "indexed": false,
          "internalType": "uint256",
          "name": "amount",
          "type": "uint256"
        }
      ],
      "name": "Withdrawn",
      "type": "event"
    },
    {
      "inputs": [],
      "name": "DEFAULT_ADMIN_ROLE",
      "outputs": [
        {
          "internalType": "bytes32",
          "name": "",
          "type": "bytes32"
        }
      ],
      "stateMutability": "view",
      "type": "function"
    },
    {
      "inputs": [],
      "name": "PAUSABLE_ROLE",
      "outputs": [
        {
          "internalType": "bytes32",
          "name": "",
          "type": "bytes32"
        }
      ],
      "stateMutability": "view",
      "type": "function"
    },
    {
      "inputs": [],
      "name": "REWARD_MANAGER_ROLE",
      "outputs": [
        {
          "internalType": "bytes32",
          "name": "",
          "type": "bytes32"
        }
      ],
      "stateMutability": "view",
      "type": "function"
    },
    {
      "inputs": [
        {
          "internalType": "address",
          "name": "account",
          "type": "address"
        }
      ],
      "name": "balanceOf",
      "outputs": [
        {
          "internalType": "uint256",
          "name": "",
          "type": "uint256"
        }
      ],
      "stateMutability": "view",
      "type": "function"
    },
    {
      "inputs": [
        {
          "internalType": "address",
          "name": "account",
          "type": "address"
        }
      ],
      "name": "earned",
      "outputs": [
        {
          "internalType": "uint256",
          "name": "",
          "type": "uint256"
        }
      ],
      "stateMutability": "view",
      "type": "function"
    },
    {
      "inputs": [],
      "name": "getReward",
      "outputs": [],
      "stateMutability": "nonpayable",
      "type": "function"
    },
    {
      "inputs": [
        {
          "internalType": "bytes32",
          "name": "role",
          "type": "bytes32"
        }
      ],
      "name": "getRoleAdmin",
      "outputs": [
        {
          "internalType": "bytes32",
          "name": "",
          "type": "bytes32"
        }
      ],
      "stateMutability": "view",
      "type": "function"
    },
    {
      "inputs": [
        {
          "internalType": "bytes32",
          "name": "role",
          "type": "bytes32"
        },
        {
          "internalType": "address",
          "name": "account",
          "type": "address"
        }
      ],
      "name": "grantRole",
      "outputs": [],
      "stateMutability": "nonpayable",
      "type": "function"
    },
    {
      "inputs": [
        {
          "internalType": "bytes32",
          "name": "role",
          "type": "bytes32"
        },
        {
          "internalType": "address",
          "name": "account",
          "type": "address"
        }
      ],
      "name": "hasRole",
      "outputs": [
        {
          "internalType": "bool",
          "name": "",
          "type": "bool"
        }
      ],
      "stateMutability": "view",
      "type": "function"
    },
    {
      "inputs": [],
      "name": "initialize",
      "outputs": [],
      "stateMutability": "nonpayable",
      "type": "function"
    },
    {
      "inputs": [],
      "name": "lastTimeRewardApplicable",
      "outputs": [
        {
          "internalType": "uint256",
          "name": "",
          "type": "uint256"
        }
      ],
      "stateMutability": "view",
      "type": "function"
    },
    {
      "inputs": [],
      "name": "lastUpdateTime",
      "outputs": [
        {
          "internalType": "uint256",
          "name": "",
          "type": "uint256"
        }
      ],
      "stateMutability": "view",
      "type": "function"
    },
    {
      "inputs": [
        {
          "internalType": "address",
          "name": "account",
          "type": "address"
        }
      ],
      "name": "paid",
      "outputs": [
        {
          "internalType": "uint256",
          "name": "",
          "type": "uint256"
        }
      ],
      "stateMutability": "view",
      "type": "function"
    },
    {
      "inputs": [],
      "name": "pause",
      "outputs": [],
      "stateMutability": "nonpayable",
      "type": "function"
    },
    {
      "inputs": [],
      "name": "paused",
      "outputs": [
        {
          "internalType": "bool",
          "name": "",
          "type": "bool"
        }
      ],
      "stateMutability": "view",
      "type": "function"
    },
    {
      "inputs": [],
      "name": "periodFinish",
      "outputs": [
        {
          "internalType": "uint256",
          "name": "",
          "type": "uint256"
        }
      ],
      "stateMutability": "view",
      "type": "function"
    },
    {
      "inputs": [],
      "name": "proxiableUUID",
      "outputs": [
        {
          "internalType": "bytes32",
          "name": "",
          "type": "bytes32"
        }
      ],
      "stateMutability": "view",
      "type": "function"
    },
    {
      "inputs": [
        {
          "internalType": "bytes32",
          "name": "role",
          "type": "bytes32"
        },
        {
          "internalType": "address",
          "name": "account",
          "type": "address"
        }
      ],
      "name": "renounceRole",
      "outputs": [],
      "stateMutability": "nonpayable",
      "type": "function"
    },
    {
      "inputs": [
        {
          "internalType": "bytes32",
          "name": "role",
          "type": "bytes32"
        },
        {
          "internalType": "address",
          "name": "account",
          "type": "address"
        }
      ],
      "name": "revokeRole",
      "outputs": [],
      "stateMutability": "nonpayable",
      "type": "function"
    },
    {
      "inputs": [],
      "name": "rewardPerToken",
      "outputs": [
        {
          "internalType": "uint256",
          "name": "",
          "type": "uint256"
        }
      ],
      "stateMutability": "view",
      "type": "function"
    },
    {
      "inputs": [],
      "name": "rewardPerTokenStored",
      "outputs": [
        {
          "internalType": "uint256",
          "name": "",
          "type": "uint256"
        }
      ],
      "stateMutability": "view",
      "type": "function"
    },
    {
      "inputs": [],
      "name": "rewardRate",
      "outputs": [
        {
          "internalType": "uint256",
          "name": "",
          "type": "uint256"
        }
      ],
      "stateMutability": "view",
      "type": "function"
    },
    {
      "inputs": [
        {
          "internalType": "address",
          "name": "",
          "type": "address"
        }
      ],
      "name": "rewards",
      "outputs": [
        {
          "internalType": "uint256",
          "name": "",
          "type": "uint256"
        }
      ],
      "stateMutability": "view",
      "type": "function"
    },
    {
      "inputs": [],
      "name": "rewardsToken",
      "outputs": [
        {
          "internalType": "contract IERC20Upgradeable",
          "name": "",
          "type": "address"
        }
      ],
      "stateMutability": "view",
      "type": "function"
    },
    {
      "inputs": [
        {
          "internalType": "address",
          "name": "_stakingToken",
          "type": "address"
        },
        {
          "internalType": "address",
          "name": "_rewardsToken",
          "type": "address"
        }
      ],
      "name": "setTokens",
      "outputs": [],
      "stateMutability": "nonpayable",
      "type": "function"
    },
    {
      "inputs": [
        {
          "internalType": "uint256",
          "name": "amount",
          "type": "uint256"
        }
      ],
      "name": "stake",
      "outputs": [],
      "stateMutability": "nonpayable",
      "type": "function"
    },
    {
      "inputs": [],
      "name": "stakingToken",
      "outputs": [
        {
          "internalType": "contract IERC20Upgradeable",
          "name": "",
          "type": "address"
        }
      ],
      "stateMutability": "view",
      "type": "function"
    },
    {
      "inputs": [
        {
          "internalType": "bytes4",
          "name": "interfaceId",
          "type": "bytes4"
        }
      ],
      "name": "supportsInterface",
      "outputs": [
        {
          "internalType": "bool",
          "name": "",
          "type": "bool"
        }
      ],
      "stateMutability": "view",
      "type": "function"
    },
    {
      "inputs": [],
      "name": "totalSupply",
      "outputs": [
        {
          "internalType": "uint256",
          "name": "",
          "type": "uint256"
        }
      ],
      "stateMutability": "view",
      "type": "function"
    },
    {
      "inputs": [],
      "name": "unpause",
      "outputs": [],
      "stateMutability": "nonpayable",
      "type": "function"
    },
    {
      "inputs": [
        {
          "internalType": "uint256",
          "name": "_rewardRate",
          "type": "uint256"
        },
        {
          "internalType": "uint256",
          "name": "_periodFinish",
          "type": "uint256"
        }
      ],
      "name": "updateRewardProgram",
      "outputs": [],
      "stateMutability": "nonpayable",
      "type": "function"
    },
    {
      "inputs": [
        {
          "internalType": "address",
          "name": "newImplementation",
          "type": "address"
        }
      ],
      "name": "upgradeTo",
      "outputs": [],
      "stateMutability": "nonpayable",
      "type": "function"
    },
    {
      "inputs": [
        {
          "internalType": "address",
          "name": "newImplementation",
          "type": "address"
        },
        {
          "internalType": "bytes",
          "name": "data",
          "type": "bytes"
        }
      ],
      "name": "upgradeToAndCall",
      "outputs": [],
      "stateMutability": "payable",
      "type": "function"
    },
    {
      "inputs": [
        {
          "internalType": "address",
          "name": "",
          "type": "address"
        }
      ],
      "name": "userRewardPerTokenPaid",
      "outputs": [
        {
          "internalType": "uint256",
          "name": "",
          "type": "uint256"
        }
      ],
      "stateMutability": "view",
      "type": "function"
    },
    {
      "inputs": [
        {
          "internalType": "address",
          "name": "",
          "type": "address"
        }
      ],
      "name": "usersPaid",
      "outputs": [
        {
          "internalType": "uint256",
          "name": "",
          "type": "uint256"
        }
      ],
      "stateMutability": "view",
      "type": "function"
    },
    {
      "inputs": [
        {
          "internalType": "uint256",
          "name": "amount",
          "type": "uint256"
        }
      ],
      "name": "withdraw",
      "outputs": [],
      "stateMutability": "nonpayable",
      "type": "function"
    }
  ],
  "numDeployments": 3,
  "solcInputHash": "0fa49c665348139f1203bd615513d607",
  "bytecode": "0x60a06040523060601b6080523480156200001857600080fd5b50600054610100900460ff16620000365760005460ff161562000040565b62000040620000e5565b620000a85760405162461bcd60e51b815260206004820152602e60248201527f496e697469616c697a61626c653a20636f6e747261637420697320616c72656160448201526d191e481a5b9a5d1a585b1a5e995960921b606482015260840160405180910390fd5b600054610100900460ff16158015620000cb576000805461ffff19166101011790555b8015620000de576000805461ff00191690555b5062000112565b6000620000fd306200010360201b620014911760201c565b15905090565b6001600160a01b03163b151590565b60805160601c6125876200014d60003960008181610994015281816109d401528181610c0f01528181610c4f0152610cde01526125876000f3fe60806040526004361061020e5760003560e01c806372f702f311610118578063a694fc3a116100a0578063cd3daf9d1161006f578063cd3daf9d14610631578063d1af0c7d14610646578063d547741f14610667578063df136d6514610687578063ebe2b12b1461069e57600080fd5b8063a694fc3a146105ba578063ba3477b3146105da578063c8f33c91146105fa578063cbc7854e1461061157600080fd5b80638456cb59116100e75780638456cb591461050b5780638b8763471461052057806391d148541461054e578063a217fddf1461056e578063a340cf791461058357600080fd5b806372f702f3146104915780637b0a47ee146104ca57806380faa57d146104e15780638129fc1c146104f657600080fd5b80633659cfe61161019b57806352d1902d1161016a57806352d1902d146103cb57806354e68454146103e05780635c975abb1461040e5780636d750d801461042657806370a082311461045a57600080fd5b80633659cfe61461036e5780633d18b9121461038e5780633f4ba83a146103a35780634f1ef286146103b857600080fd5b806318160ddd116101e257806318160ddd146102c6578063248a9ca3146102dc5780632e1a7d4d1461030c5780632f2ff15d1461032e57806336568abe1461034e57600080fd5b80628cc2621461021357806301ffc9a7146102465780630700037d146102765780630ffd778e146102a4575b600080fd5b34801561021f57600080fd5b5061023361022e366004612044565b6106b5565b6040519081526020015b60405180910390f35b34801561025257600080fd5b506102666102613660046121cb565b610736565b604051901515815260200161023d565b34801561028257600080fd5b50610233610291366004612044565b6101666020526000908152604090205481565b3480156102b057600080fd5b5061023360008051602061253283398151915281565b3480156102d257600080fd5b5061016754610233565b3480156102e857600080fd5b506102336102f7366004612176565b60009081526065602052604090206001015490565b34801561031857600080fd5b5061032c610327366004612176565b61076b565b005b34801561033a57600080fd5b5061032c6103493660046121a8565b6108e0565b34801561035a57600080fd5b5061032c6103693660046121a8565b61090b565b34801561037a57600080fd5b5061032c610389366004612044565b610989565b34801561039a57600080fd5b5061032c610a69565b3480156103af57600080fd5b5061032c610b9d565b61032c6103c6366004612092565b610c04565b3480156103d757600080fd5b50610233610cd1565b3480156103ec57600080fd5b506102336103fb366004612044565b6101696020526000908152604090205481565b34801561041a57600080fd5b5060fb5460ff16610266565b34801561043257600080fd5b506102337f0f51adb3f49e4a9bbb17b3783f025995eaf8c24be2c8eefff214bdfda05ef94d81565b34801561046657600080fd5b50610233610475366004612044565b6001600160a01b03166000908152610168602052604090205490565b34801561049d57600080fd5b50610160546104b2906001600160a01b031681565b6040516001600160a01b03909116815260200161023d565b3480156104d657600080fd5b506102336101625481565b3480156104ed57600080fd5b50610233610d84565b34801561050257600080fd5b5061032c610d9d565b34801561051757600080fd5b5061032c610ec2565b34801561052c57600080fd5b5061023361053b366004612044565b6101656020526000908152604090205481565b34801561055a57600080fd5b506102666105693660046121a8565b610f27565b34801561057a57600080fd5b50610233600081565b34801561058f57600080fd5b5061023361059e366004612044565b6001600160a01b03166000908152610169602052604090205490565b3480156105c657600080fd5b5061032c6105d5366004612176565b610f52565b3480156105e657600080fd5b5061032c6105f53660046121f5565b6110f0565b34801561060657600080fd5b506102336101635481565b34801561061d57600080fd5b5061032c61062c36600461205f565b611216565b34801561063d57600080fd5b5061023361142a565b34801561065257600080fd5b5061015f546104b2906001600160a01b031681565b34801561067357600080fd5b5061032c6106823660046121a8565b61146b565b34801561069357600080fd5b506102336101645481565b3480156106aa57600080fd5b506102336101615481565b6001600160a01b03811660009081526101666020908152604080832054610165909252822054610730919061072a90670de0b6b3a76400009061072490610704906106fe61142a565b906114a0565b6001600160a01b03881660009081526101686020526040902054906114b3565b906114bf565b906114cb565b92915050565b60006001600160e01b03198216637965db0b60e01b148061073057506301ffc9a760e01b6001600160e01b0319831614610730565b600261012d5414156107985760405162461bcd60e51b815260040161078f906123be565b60405180910390fd5b600261012d55336107a761142a565b610164556107b3610d84565b610163556001600160a01b038116156107fe576107cf816106b5565b6001600160a01b0382166000908152610166602090815260408083209390935561016454610165909152919020555b600082116108425760405162461bcd60e51b8152602060048201526011602482015270043616e6e6f74207769746864726177203607c1b604482015260640161078f565b6101605461085a906001600160a01b031633846114d7565b6101675461086890836114a0565b61016755336000908152610168602052604090205461088790836114a0565b3360008181526101686020526040908190209290925590517f7084f5476618d8e60b11ef0d7d3f06914655adb8793e28ff7f018d4c76d505d5906108ce9085815260200190565b60405180910390a25050600161012d55565b6000828152606560205260409020600101546108fc813361153a565b610906838361159e565b505050565b6001600160a01b038116331461097b5760405162461bcd60e51b815260206004820152602f60248201527f416363657373436f6e74726f6c3a2063616e206f6e6c792072656e6f756e636560448201526e103937b632b9903337b91039b2b63360891b606482015260840161078f565b6109858282611624565b5050565b306001600160a01b037f00000000000000000000000000000000000000000000000000000000000000001614156109d25760405162461bcd60e51b815260040161078f906122db565b7f00000000000000000000000000000000000000000000000000000000000000006001600160a01b0316610a1b6000805160206124eb833981519152546001600160a01b031690565b6001600160a01b031614610a415760405162461bcd60e51b815260040161078f90612327565b610a4a8161168b565b60408051600080825260208201909252610a6691839190611697565b50565b600261012d541415610a8d5760405162461bcd60e51b815260040161078f906123be565b600261012d5533610a9c61142a565b61016455610aa8610d84565b610163556001600160a01b03811615610af357610ac4816106b5565b6001600160a01b0382166000908152610166602090815260408083209390935561016454610165909152919020555b33600090815261016660205260409020548015610b935733600090815261016660209081526040808320839055610169909152902054610b3390826114cb565b336000818152610169602052604090209190915561015f54610b61916001600160a01b0390911690836114d7565b60405181815233907fe2403640ba68fed3a2f88b7557551d1993f84b99bb10ff833f0cf8db0c5e0486906020016108ce565b5050600161012d55565b610bb560008051602061253283398151915233610f27565b610bfa5760405162461bcd60e51b81526020600482015260166024820152755265737472696374656420746f205061757361626c6560501b604482015260640161078f565b610c02611811565b565b306001600160a01b037f0000000000000000000000000000000000000000000000000000000000000000161415610c4d5760405162461bcd60e51b815260040161078f906122db565b7f00000000000000000000000000000000000000000000000000000000000000006001600160a01b0316610c966000805160206124eb833981519152546001600160a01b031690565b6001600160a01b031614610cbc5760405162461bcd60e51b815260040161078f90612327565b610cc58261168b565b61098582826001611697565b6000306001600160a01b037f00000000000000000000000000000000000000000000000000000000000000001614610d715760405162461bcd60e51b815260206004820152603860248201527f555550535570677261646561626c653a206d757374206e6f742062652063616c60448201527f6c6564207468726f7567682064656c656761746563616c6c0000000000000000606482015260840161078f565b506000805160206124eb83398151915290565b6000610161544210610d9857506101615490565b504290565b600054610100900460ff16610db85760005460ff1615610dbc565b303b155b610e1f5760405162461bcd60e51b815260206004820152602e60248201527f496e697469616c697a61626c653a20636f6e747261637420697320616c72656160448201526d191e481a5b9a5d1a585b1a5e995960921b606482015260840161078f565b600054610100900460ff16158015610e41576000805461ffff19166101011790555b610e496118a4565b610e516118cb565b610e596118a4565b610e616118fa565b610e6c60003361159e565b610e846000805160206125328339815191523361159e565b610eae7f0f51adb3f49e4a9bbb17b3783f025995eaf8c24be2c8eefff214bdfda05ef94d3361159e565b8015610a66576000805461ff001916905550565b610eda60008051602061253283398151915233610f27565b610f1f5760405162461bcd60e51b81526020600482015260166024820152755265737472696374656420746f205061757361626c6560501b604482015260640161078f565b610c02611929565b60009182526065602090815260408084206001600160a01b0393909316845291905290205460ff1690565b600261012d541415610f765760405162461bcd60e51b815260040161078f906123be565b600261012d5560fb5460ff1615610fc25760405162461bcd60e51b815260206004820152601060248201526f14185d5cd8589b194e881c185d5cd95960821b604482015260640161078f565b33610fcb61142a565b61016455610fd7610d84565b610163556001600160a01b0381161561102257610ff3816106b5565b6001600160a01b0382166000908152610166602090815260408083209390935561016454610165909152919020555b600082116110635760405162461bcd60e51b815260206004820152600e60248201526d043616e6e6f74207374616b6520360941b604482015260640161078f565b6101605461107c906001600160a01b03163330856119a4565b6101675461108a90836114cb565b6101675533600090815261016860205260409020546110a990836114cb565b3360008181526101686020526040908190209290925590517f9e71bc8eea02a63969f509818f2dafb9254532904319f9dbda79b67bd34a5f3d906108ce9085815260200190565b61111a7f0f51adb3f49e4a9bbb17b3783f025995eaf8c24be2c8eefff214bdfda05ef94d33610f27565b6111665760405162461bcd60e51b815260206004820152601b60248201527f5265737472696374656420746f205265776172644d616e616765720000000000604482015260640161078f565b600061117061142a565b6101645561117c610d84565b610163556001600160a01b038116156111c757611198816106b5565b6001600160a01b0382166000908152610166602090815260408083209390935561016454610165909152919020555b610162839055610161829055426101635560408051848152602081018490527fcaa46e50b1e0d52cc12890472abc8dd3a3937680e69b806dfe8a07db4a9d986e910160405180910390a1505050565b611221600033610f27565b6112645760405162461bcd60e51b81526020600482015260146024820152735265737472696374656420746f2061646d696e7360601b604482015260640161078f565b6001600160a01b0382166112b55760405162461bcd60e51b815260206004820152601860248201527716995c9bc81859191c995cdcc81b9bdd08185b1b1bddd95960421b604482015260640161078f565b6001600160a01b0381166113065760405162461bcd60e51b815260206004820152601860248201527716995c9bc81859191c995cdcc81b9bdd08185b1b1bddd95960421b604482015260640161078f565b610160546001600160a01b0316156113605760405162461bcd60e51b815260206004820181905260248201527f5374616b696e67546f6b656e20616c726561647920696e697469616c697a6564604482015260640161078f565b61015f546001600160a01b0316156113ba5760405162461bcd60e51b815260206004820181905260248201527f52657761726473546f6b656e20616c726561647920696e697469616c697a6564604482015260640161078f565b61016080546001600160a01b038481166001600160a01b0319928316811790935561015f80549185169190921681179091556040805192835260208301919091527fdd8a1b15e38b32d9c3cf1ef9b855f135db00ac8e0374fbe209536e500031418c910160405180910390a15050565b6000610167546000141561144057506101645490565b60006107306114616101625461145b610163546106fe610d84565b906114b3565b61016454906114cb565b600082815260656020526040902060010154611487813361153a565b6109068383611624565b6001600160a01b03163b151590565b60006114ac828461244e565b9392505050565b60006114ac828461242f565b60006114ac828461240d565b60006114ac82846123f5565b6040516001600160a01b03831660248201526044810182905261090690849063a9059cbb60e01b906064015b60408051601f198184030181529190526020810180516001600160e01b03166001600160e01b0319909316929092179091526119e2565b6115448282610f27565b6109855761155c816001600160a01b03166014611ab4565b611567836020611ab4565b604051602001611578929190612233565b60408051601f198184030181529082905262461bcd60e51b825261078f916004016122a8565b6115a88282610f27565b6109855760008281526065602090815260408083206001600160a01b03851684529091529020805460ff191660011790556115e03390565b6001600160a01b0316816001600160a01b0316837f2f8788117e7eff1d82e926ec794901d17c78024a50270940304540a733656f0d60405160405180910390a45050565b61162e8282610f27565b156109855760008281526065602090815260408083206001600160a01b0385168085529252808320805460ff1916905551339285917ff6391f5c32d9c69d2a47ea670b442974b53935d1edc7fd64eb21e047a839171b9190a45050565b6000610985813361153a565b7f4910fdfa16fed3260ed0e7147f7cc6da11a60208b5b9406d12a635614ffd91435460ff16156116ca5761090683611c50565b826001600160a01b03166352d1902d6040518163ffffffff1660e01b815260040160206040518083038186803b15801561170357600080fd5b505afa925050508015611733575060408051601f3d908101601f191682019092526117309181019061218f565b60015b6117965760405162461bcd60e51b815260206004820152602e60248201527f45524331393637557067726164653a206e657720696d706c656d656e7461746960448201526d6f6e206973206e6f74205555505360901b606482015260840161078f565b6000805160206124eb83398151915281146118055760405162461bcd60e51b815260206004820152602960248201527f45524331393637557067726164653a20756e737570706f727465642070726f786044820152681a58589b195555525160ba1b606482015260840161078f565b50610906838383611cec565b60fb5460ff1661185a5760405162461bcd60e51b815260206004820152601460248201527314185d5cd8589b194e881b9bdd081c185d5cd95960621b604482015260640161078f565b60fb805460ff191690557f5db9ee0a495bf2e6ff9c91a7834c1ba4fdd244a5e8aa4e537bd38aeae4b073aa335b6040516001600160a01b03909116815260200160405180910390a1565b600054610100900460ff16610c025760405162461bcd60e51b815260040161078f90612373565b600054610100900460ff166118f25760405162461bcd60e51b815260040161078f90612373565b610c02611d11565b600054610100900460ff166119215760405162461bcd60e51b815260040161078f90612373565b610c02611d44565b60fb5460ff161561196f5760405162461bcd60e51b815260206004820152601060248201526f14185d5cd8589b194e881c185d5cd95960821b604482015260640161078f565b60fb805460ff191660011790557f62e78cea01bee320cd4e420270b5ea74000d11b0c9f74754ebdbfc544b05a2586118873390565b6040516001600160a01b03808516602483015283166044820152606481018290526119dc9085906323b872dd60e01b90608401611503565b50505050565b6000611a37826040518060400160405280602081526020017f5361666545524332303a206c6f772d6c6576656c2063616c6c206661696c6564815250856001600160a01b0316611d739092919063ffffffff16565b8051909150156109065780806020019051810190611a559190612154565b6109065760405162461bcd60e51b815260206004820152602a60248201527f5361666545524332303a204552433230206f7065726174696f6e20646964206e6044820152691bdd081cdd58d8d9595960b21b606482015260840161078f565b60606000611ac383600261242f565b611ace9060026123f5565b67ffffffffffffffff811115611ae657611ae66124d4565b6040519080825280601f01601f191660200182016040528015611b10576020820181803683370190505b509050600360fc1b81600081518110611b2b57611b2b6124be565b60200101906001600160f81b031916908160001a905350600f60fb1b81600181518110611b5a57611b5a6124be565b60200101906001600160f81b031916908160001a9053506000611b7e84600261242f565b611b899060016123f5565b90505b6001811115611c01576f181899199a1a9b1b9c1cb0b131b232b360811b85600f1660108110611bbd57611bbd6124be565b1a60f81b828281518110611bd357611bd36124be565b60200101906001600160f81b031916908160001a90535060049490941c93611bfa81612491565b9050611b8c565b5083156114ac5760405162461bcd60e51b815260206004820181905260248201527f537472696e67733a20686578206c656e67746820696e73756666696369656e74604482015260640161078f565b6001600160a01b0381163b611cbd5760405162461bcd60e51b815260206004820152602d60248201527f455243313936373a206e657720696d706c656d656e746174696f6e206973206e60448201526c1bdd08184818dbdb9d1c9858dd609a1b606482015260840161078f565b6000805160206124eb83398151915280546001600160a01b0319166001600160a01b0392909216919091179055565b611cf583611d8a565b600082511180611d025750805b15610906576119dc8383611dca565b600054610100900460ff16611d385760405162461bcd60e51b815260040161078f90612373565b60fb805460ff19169055565b600054610100900460ff16611d6b5760405162461bcd60e51b815260040161078f90612373565b600161012d55565b6060611d828484600085611ebe565b949350505050565b611d9381611c50565b6040516001600160a01b038216907fbc7cd75a20ee27fd9adebab32041f755214dbc6bffa90cc0225b39da2e5c2d3b90600090a250565b60606001600160a01b0383163b611e325760405162461bcd60e51b815260206004820152602660248201527f416464726573733a2064656c65676174652063616c6c20746f206e6f6e2d636f6044820152651b9d1c9858dd60d21b606482015260840161078f565b600080846001600160a01b031684604051611e4d9190612217565b600060405180830381855af49150503d8060008114611e88576040519150601f19603f3d011682016040523d82523d6000602084013e611e8d565b606091505b5091509150611eb5828260405180606001604052806027815260200161250b60279139611fef565b95945050505050565b606082471015611f1f5760405162461bcd60e51b815260206004820152602660248201527f416464726573733a20696e73756666696369656e742062616c616e636520666f6044820152651c8818d85b1b60d21b606482015260840161078f565b6001600160a01b0385163b611f765760405162461bcd60e51b815260206004820152601d60248201527f416464726573733a2063616c6c20746f206e6f6e2d636f6e7472616374000000604482015260640161078f565b600080866001600160a01b03168587604051611f929190612217565b60006040518083038185875af1925050503d8060008114611fcf576040519150601f19603f3d011682016040523d82523d6000602084013e611fd4565b606091505b5091509150611fe4828286611fef565b979650505050505050565b60608315611ffe5750816114ac565b82511561200e5782518084602001fd5b8160405162461bcd60e51b815260040161078f91906122a8565b80356001600160a01b038116811461203f57600080fd5b919050565b60006020828403121561205657600080fd5b6114ac82612028565b6000806040838503121561207257600080fd5b61207b83612028565b915061208960208401612028565b90509250929050565b600080604083850312156120a557600080fd5b6120ae83612028565b9150602083013567ffffffffffffffff808211156120cb57600080fd5b818501915085601f8301126120df57600080fd5b8135818111156120f1576120f16124d4565b604051601f8201601f19908116603f01168101908382118183101715612119576121196124d4565b8160405282815288602084870101111561213257600080fd5b8260208601602083013760006020848301015280955050505050509250929050565b60006020828403121561216657600080fd5b815180151581146114ac57600080fd5b60006020828403121561218857600080fd5b5035919050565b6000602082840312156121a157600080fd5b5051919050565b600080604083850312156121bb57600080fd5b8235915061208960208401612028565b6000602082840312156121dd57600080fd5b81356001600160e01b0319811681146114ac57600080fd5b6000806040838503121561220857600080fd5b50508035926020909101359150565b60008251612229818460208701612465565b9190910192915050565b7f416363657373436f6e74726f6c3a206163636f756e742000000000000000000081526000835161226b816017850160208801612465565b7001034b99036b4b9b9b4b733903937b6329607d1b601791840191820152835161229c816028840160208801612465565b01602801949350505050565b60208152600082518060208401526122c7816040850160208701612465565b601f01601f19169190910160400192915050565b6020808252602c908201527f46756e6374696f6e206d7573742062652063616c6c6564207468726f7567682060408201526b19195b1959d85d1958d85b1b60a21b606082015260800190565b6020808252602c908201527f46756e6374696f6e206d7573742062652063616c6c6564207468726f7567682060408201526b6163746976652070726f787960a01b606082015260800190565b6020808252602b908201527f496e697469616c697a61626c653a20636f6e7472616374206973206e6f74206960408201526a6e697469616c697a696e6760a81b606082015260800190565b6020808252601f908201527f5265656e7472616e637947756172643a207265656e7472616e742063616c6c00604082015260600190565b60008219821115612408576124086124a8565b500190565b60008261242a57634e487b7160e01b600052601260045260246000fd5b500490565b6000816000190483118215151615612449576124496124a8565b500290565b600082821015612460576124606124a8565b500390565b60005b83811015612480578181015183820152602001612468565b838111156119dc5750506000910152565b6000816124a0576124a06124a8565b506000190190565b634e487b7160e01b600052601160045260246000fd5b634e487b7160e01b600052603260045260246000fd5b634e487b7160e01b600052604160045260246000fdfe360894a13ba1a3210667c828492db98dca3e2076cc3735a920a3ca505d382bbc416464726573733a206c6f772d6c6576656c2064656c65676174652063616c6c206661696c656409b6fca8f5f3ab2900d9586d1d15872611c1bd42b268b973ad886d4f2646b560a264697066735822122031ba7344763a6e3d76a06d40fc881a89df0cae7029506b1f1fa9accb0b0f967364736f6c63430008060033",
  "devdoc": {
    "kind": "dev",
    "methods": {
      "constructor": {
        "custom:oz-upgrades-unsafe-allow": "constructor"
      },
      "getRoleAdmin(bytes32)": {
        "details": "Returns the admin role that controls `role`. See {grantRole} and {revokeRole}. To change a role's admin, use {_setRoleAdmin}."
      },
      "grantRole(bytes32,address)": {
        "details": "Grants `role` to `account`. If `account` had not been already granted `role`, emits a {RoleGranted} event. Requirements: - the caller must have ``role``'s admin role."
      },
      "hasRole(bytes32,address)": {
        "details": "Returns `true` if `account` has been granted `role`."
      },
      "paused()": {
        "details": "Returns true if the contract is paused, and false otherwise."
      },
      "proxiableUUID()": {
        "details": "Implementation of the ERC1822 {proxiableUUID} function. This returns the storage slot used by the implementation. It is used to validate that the this implementation remains valid after an upgrade. IMPORTANT: A proxy pointing at a proxiable contract should not be considered proxiable itself, because this risks bricking a proxy that upgrades to it, by delegating to itself until out of gas. Thus it is critical that this function revert if invoked through a proxy. This is guaranteed by the `notDelegated` modifier."
      },
      "renounceRole(bytes32,address)": {
        "details": "Revokes `role` from the calling account. Roles are often managed via {grantRole} and {revokeRole}: this function's purpose is to provide a mechanism for accounts to lose their privileges if they are compromised (such as when a trusted device is misplaced). If the calling account had been revoked `role`, emits a {RoleRevoked} event. Requirements: - the caller must be `account`."
      },
      "revokeRole(bytes32,address)": {
        "details": "Revokes `role` from `account`. If `account` had been granted `role`, emits a {RoleRevoked} event. Requirements: - the caller must have ``role``'s admin role."
      },
      "supportsInterface(bytes4)": {
        "details": "See {IERC165-supportsInterface}."
      },
      "upgradeTo(address)": {
        "details": "Upgrade the implementation of the proxy to `newImplementation`. Calls {_authorizeUpgrade}. Emits an {Upgraded} event."
      },
      "upgradeToAndCall(address,bytes)": {
        "details": "Upgrade the implementation of the proxy to `newImplementation`, and subsequently execute the function call encoded in `data`. Calls {_authorizeUpgrade}. Emits an {Upgraded} event."
      }
    },
    "version": 1
  },
  "userdoc": {
    "kind": "user",
    "methods": {},
    "version": 1
  },
  "storageLayout": {
    "storage": [
      {
        "astId": 797,
        "contract": "contracts/rewards/StakingRewards.sol:StakingRewards",
        "label": "_initialized",
        "offset": 0,
        "slot": "0",
        "type": "t_bool"
      },
      {
        "astId": 800,
        "contract": "contracts/rewards/StakingRewards.sol:StakingRewards",
        "label": "_initializing",
        "offset": 1,
        "slot": "0",
        "type": "t_bool"
      },
      {
        "astId": 2394,
        "contract": "contracts/rewards/StakingRewards.sol:StakingRewards",
        "label": "__gap",
        "offset": 0,
        "slot": "1",
        "type": "t_array(t_uint256)50_storage"
      },
      {
        "astId": 2701,
        "contract": "contracts/rewards/StakingRewards.sol:StakingRewards",
        "label": "__gap",
        "offset": 0,
        "slot": "51",
        "type": "t_array(t_uint256)50_storage"
      },
      {
        "astId": 39,
        "contract": "contracts/rewards/StakingRewards.sol:StakingRewards",
        "label": "_roles",
        "offset": 0,
        "slot": "101",
        "type": "t_mapping(t_bytes32,t_struct(RoleData)34_storage)"
      },
      {
        "astId": 327,
        "contract": "contracts/rewards/StakingRewards.sol:StakingRewards",
        "label": "__gap",
        "offset": 0,
        "slot": "102",
        "type": "t_array(t_uint256)49_storage"
      },
      {
        "astId": 779,
        "contract": "contracts/rewards/StakingRewards.sol:StakingRewards",
        "label": "__gap",
        "offset": 0,
        "slot": "151",
        "type": "t_array(t_uint256)50_storage"
      },
      {
        "astId": 999,
        "contract": "contracts/rewards/StakingRewards.sol:StakingRewards",
        "label": "__gap",
        "offset": 0,
        "slot": "201",
        "type": "t_array(t_uint256)50_storage"
      },
      {
        "astId": 1021,
        "contract": "contracts/rewards/StakingRewards.sol:StakingRewards",
        "label": "_paused",
        "offset": 0,
        "slot": "251",
        "type": "t_bool"
      },
      {
        "astId": 1110,
        "contract": "contracts/rewards/StakingRewards.sol:StakingRewards",
        "label": "__gap",
        "offset": 0,
        "slot": "252",
        "type": "t_array(t_uint256)49_storage"
      },
      {
        "astId": 1125,
        "contract": "contracts/rewards/StakingRewards.sol:StakingRewards",
        "label": "_status",
        "offset": 0,
        "slot": "301",
        "type": "t_uint256"
      },
      {
        "astId": 1169,
        "contract": "contracts/rewards/StakingRewards.sol:StakingRewards",
        "label": "__gap",
        "offset": 0,
        "slot": "302",
        "type": "t_array(t_uint256)49_storage"
      },
      {
        "astId": 9815,
        "contract": "contracts/rewards/StakingRewards.sol:StakingRewards",
        "label": "rewardsToken",
        "offset": 0,
        "slot": "351",
        "type": "t_contract(IERC20Upgradeable)1861"
      },
      {
        "astId": 9818,
        "contract": "contracts/rewards/StakingRewards.sol:StakingRewards",
        "label": "stakingToken",
        "offset": 0,
        "slot": "352",
        "type": "t_contract(IERC20Upgradeable)1861"
      },
      {
        "astId": 9820,
        "contract": "contracts/rewards/StakingRewards.sol:StakingRewards",
        "label": "periodFinish",
        "offset": 0,
        "slot": "353",
        "type": "t_uint256"
      },
      {
        "astId": 9822,
        "contract": "contracts/rewards/StakingRewards.sol:StakingRewards",
        "label": "rewardRate",
        "offset": 0,
        "slot": "354",
        "type": "t_uint256"
      },
      {
        "astId": 9824,
        "contract": "contracts/rewards/StakingRewards.sol:StakingRewards",
        "label": "lastUpdateTime",
        "offset": 0,
        "slot": "355",
        "type": "t_uint256"
      },
      {
        "astId": 9826,
        "contract": "contracts/rewards/StakingRewards.sol:StakingRewards",
        "label": "rewardPerTokenStored",
        "offset": 0,
        "slot": "356",
        "type": "t_uint256"
      },
      {
        "astId": 9830,
        "contract": "contracts/rewards/StakingRewards.sol:StakingRewards",
        "label": "userRewardPerTokenPaid",
        "offset": 0,
        "slot": "357",
        "type": "t_mapping(t_address,t_uint256)"
      },
      {
        "astId": 9834,
        "contract": "contracts/rewards/StakingRewards.sol:StakingRewards",
        "label": "rewards",
        "offset": 0,
        "slot": "358",
        "type": "t_mapping(t_address,t_uint256)"
      },
      {
        "astId": 9836,
        "contract": "contracts/rewards/StakingRewards.sol:StakingRewards",
        "label": "_totalSupply",
        "offset": 0,
        "slot": "359",
        "type": "t_uint256"
      },
      {
        "astId": 9840,
        "contract": "contracts/rewards/StakingRewards.sol:StakingRewards",
        "label": "_balances",
        "offset": 0,
        "slot": "360",
        "type": "t_mapping(t_address,t_uint256)"
      },
      {
        "astId": 9844,
        "contract": "contracts/rewards/StakingRewards.sol:StakingRewards",
        "label": "usersPaid",
        "offset": 0,
        "slot": "361",
        "type": "t_mapping(t_address,t_uint256)"
      }
    ],
    "types": {
      "t_address": {
        "encoding": "inplace",
        "label": "address",
        "numberOfBytes": "20"
      },
      "t_array(t_uint256)49_storage": {
        "base": "t_uint256",
        "encoding": "inplace",
        "label": "uint256[49]",
        "numberOfBytes": "1568"
      },
      "t_array(t_uint256)50_storage": {
        "base": "t_uint256",
        "encoding": "inplace",
        "label": "uint256[50]",
        "numberOfBytes": "1600"
      },
      "t_bool": {
        "encoding": "inplace",
        "label": "bool",
        "numberOfBytes": "1"
      },
      "t_bytes32": {
        "encoding": "inplace",
        "label": "bytes32",
        "numberOfBytes": "32"
      },
      "t_contract(IERC20Upgradeable)1861": {
        "encoding": "inplace",
        "label": "contract IERC20Upgradeable",
        "numberOfBytes": "20"
      },
      "t_mapping(t_address,t_bool)": {
        "encoding": "mapping",
        "key": "t_address",
        "label": "mapping(address => bool)",
        "numberOfBytes": "32",
        "value": "t_bool"
      },
      "t_mapping(t_address,t_uint256)": {
        "encoding": "mapping",
        "key": "t_address",
        "label": "mapping(address => uint256)",
        "numberOfBytes": "32",
        "value": "t_uint256"
      },
      "t_mapping(t_bytes32,t_struct(RoleData)34_storage)": {
        "encoding": "mapping",
        "key": "t_bytes32",
        "label": "mapping(bytes32 => struct AccessControlUpgradeable.RoleData)",
        "numberOfBytes": "32",
        "value": "t_struct(RoleData)34_storage"
      },
      "t_struct(RoleData)34_storage": {
        "encoding": "inplace",
        "label": "struct AccessControlUpgradeable.RoleData",
        "members": [
          {
            "astId": 31,
            "contract": "contracts/rewards/StakingRewards.sol:StakingRewards",
            "label": "members",
            "offset": 0,
            "slot": "0",
            "type": "t_mapping(t_address,t_bool)"
          },
          {
            "astId": 33,
            "contract": "contracts/rewards/StakingRewards.sol:StakingRewards",
            "label": "adminRole",
            "offset": 0,
            "slot": "1",
            "type": "t_bytes32"
          }
        ],
        "numberOfBytes": "64"
      },
      "t_uint256": {
        "encoding": "inplace",
        "label": "uint256",
        "numberOfBytes": "32"
      }
    }
  }
}