{
  "address": "0x9D430C0A05da519335ee022ECF8f7690F1d402Ba",
  "abi": [
    {
      "inputs": [],
      "stateMutability": "nonpayable",
      "type": "constructor"
    },
    {
      "anonymous": false,
      "inputs": [
        {
          "indexed": false,
          "internalType": "address",
          "name": "previousAdmin",
          "type": "address"
        },
        {
          "indexed": false,
          "internalType": "address",
          "name": "newAdmin",
          "type": "address"
        }
      ],
      "name": "AdminChanged",
      "type": "event"
    },
    {
      "anonymous": false,
      "inputs": [
        {
          "indexed": false,
          "internalType": "address",
          "name": "token",
          "type": "address"
        }
      ],
      "name": "AeqDelayRecoveryUpdated",
      "type": "event"
    },
    {
      "anonymous": false,
      "inputs": [
        {
          "indexed": true,
          "internalType": "address",
          "name": "beacon",
          "type": "address"
        }
      ],
      "name": "BeaconUpgraded",
      "type": "event"
    },
    {
      "anonymous": false,
      "inputs": [
        {
          "indexed": false,
          "internalType": "uint8",
          "name": "version",
          "type": "uint8"
        }
      ],
      "name": "Initialized",
      "type": "event"
    },
    {
      "anonymous": false,
      "inputs": [
        {
          "indexed": false,
          "internalType": "address",
          "name": "value",
          "type": "address"
        }
      ],
      "name": "PortfolioManagerUpdated",
      "type": "event"
    },
    {
      "anonymous": false,
      "inputs": [
        {
          "indexed": false,
          "internalType": "uint256",
          "name": "amount",
          "type": "uint256"
        }
      ],
      "name": "Reward",
      "type": "event"
    },
    {
      "anonymous": false,
      "inputs": [
        {
          "indexed": true,
          "internalType": "bytes32",
          "name": "role",
          "type": "bytes32"
        },
        {
          "indexed": true,
          "internalType": "bytes32",
          "name": "previousAdminRole",
          "type": "bytes32"
        },
        {
          "indexed": true,
          "internalType": "bytes32",
          "name": "newAdminRole",
          "type": "bytes32"
        }
      ],
      "name": "RoleAdminChanged",
      "type": "event"
    },
    {
      "anonymous": false,
      "inputs": [
        {
          "indexed": true,
          "internalType": "bytes32",
          "name": "role",
          "type": "bytes32"
        },
        {
          "indexed": true,
          "internalType": "address",
          "name": "account",
          "type": "address"
        },
        {
          "indexed": true,
          "internalType": "address",
          "name": "sender",
          "type": "address"
        }
      ],
      "name": "RoleGranted",
      "type": "event"
    },
    {
      "anonymous": false,
      "inputs": [
        {
          "indexed": true,
          "internalType": "bytes32",
          "name": "role",
          "type": "bytes32"
        },
        {
          "indexed": true,
          "internalType": "address",
          "name": "account",
          "type": "address"
        },
        {
          "indexed": true,
          "internalType": "address",
          "name": "sender",
          "type": "address"
        }
      ],
      "name": "RoleRevoked",
      "type": "event"
    },
    {
      "anonymous": false,
      "inputs": [
        {
          "indexed": false,
          "internalType": "uint256",
          "name": "swapSlippageBP",
          "type": "uint256"
        },
        {
          "indexed": false,
          "internalType": "uint256",
          "name": "navSlippageBP",
          "type": "uint256"
        },
        {
          "indexed": false,
          "internalType": "uint256",
          "name": "stakeSlippageBP",
          "type": "uint256"
        }
      ],
      "name": "SlippagesUpdated",
      "type": "event"
    },
    {
      "anonymous": false,
      "inputs": [
        {
          "indexed": false,
          "internalType": "uint256",
          "name": "amount",
          "type": "uint256"
        }
      ],
      "name": "Stake",
      "type": "event"
    },
    {
      "anonymous": false,
      "inputs": [
        {
          "indexed": false,
          "internalType": "uint256",
          "name": "amount",
          "type": "uint256"
        },
        {
          "indexed": false,
          "internalType": "uint256",
          "name": "amountReceived",
          "type": "uint256"
        }
      ],
      "name": "Unstake",
      "type": "event"
    },
    {
      "anonymous": false,
      "inputs": [
        {
          "indexed": true,
          "internalType": "address",
          "name": "implementation",
          "type": "address"
        }
      ],
      "name": "Upgraded",
      "type": "event"
    },
    {
      "anonymous": false,
      "inputs": [
        {
          "indexed": false,
          "internalType": "address",
          "name": "to",
          "type": "address"
        },
        {
          "indexed": false,
          "internalType": "uint256",
          "name": "amount",
          "type": "uint256"
        }
      ],
      "name": "WithdrawLp",
      "type": "event"
    },
    {
      "inputs": [],
      "name": "DEFAULT_ADMIN_ROLE",
      "outputs": [
        {
          "internalType": "bytes32",
          "name": "",
          "type": "bytes32"
        }
      ],
      "stateMutability": "view",
      "type": "function"
    },
    {
      "inputs": [],
      "name": "PORTFOLIO_AGENT_ROLE",
      "outputs": [
        {
          "internalType": "bytes32",
          "name": "",
          "type": "bytes32"
        }
      ],
      "stateMutability": "view",
      "type": "function"
    },
    {
      "inputs": [],
      "name": "PORTFOLIO_MANAGER",
      "outputs": [
        {
          "internalType": "bytes32",
          "name": "",
          "type": "bytes32"
        }
      ],
      "stateMutability": "view",
      "type": "function"
    },
    {
      "inputs": [],
      "name": "aeqDelayRecovery",
      "outputs": [
        {
          "internalType": "contract IERC20",
          "name": "",
          "type": "address"
        }
      ],
      "stateMutability": "view",
      "type": "function"
    },
    {
      "inputs": [],
      "name": "aeqToken",
      "outputs": [
        {
          "internalType": "contract IERC20",
          "name": "",
          "type": "address"
        }
      ],
      "stateMutability": "view",
      "type": "function"
    },
    {
      "inputs": [],
      "name": "balancerMinter",
      "outputs": [
        {
          "internalType": "contract IBalancerMinter",
          "name": "",
          "type": "address"
        }
      ],
      "stateMutability": "view",
      "type": "function"
    },
    {
      "inputs": [],
      "name": "busdToken",
      "outputs": [
        {
          "internalType": "contract IERC20",
          "name": "",
          "type": "address"
        }
      ],
      "stateMutability": "view",
      "type": "function"
    },
    {
      "inputs": [],
      "name": "busdTokenDenominator",
      "outputs": [
        {
          "internalType": "uint256",
          "name": "",
          "type": "uint256"
        }
      ],
      "stateMutability": "view",
      "type": "function"
    },
    {
      "inputs": [
        {
          "internalType": "address",
          "name": "_to",
          "type": "address"
        }
      ],
      "name": "claimRewards",
      "outputs": [
        {
          "internalType": "uint256",
          "name": "",
          "type": "uint256"
        }
      ],
      "stateMutability": "nonpayable",
      "type": "function"
    },
    {
      "inputs": [],
      "name": "gauge",
      "outputs": [
        {
          "internalType": "contract IGauge",
          "name": "",
          "type": "address"
        }
      ],
      "stateMutability": "view",
      "type": "function"
    },
    {
      "inputs": [
        {
          "internalType": "bytes32",
          "name": "role",
          "type": "bytes32"
        }
      ],
      "name": "getRoleAdmin",
      "outputs": [
        {
          "internalType": "bytes32",
          "name": "",
          "type": "bytes32"
        }
      ],
      "stateMutability": "view",
      "type": "function"
    },
    {
      "inputs": [
        {
          "internalType": "bytes32",
          "name": "role",
          "type": "bytes32"
        },
        {
          "internalType": "address",
          "name": "account",
          "type": "address"
        }
      ],
      "name": "grantRole",
      "outputs": [],
      "stateMutability": "nonpayable",
      "type": "function"
    },
    {
      "inputs": [
        {
          "internalType": "bytes32",
          "name": "role",
          "type": "bytes32"
        },
        {
          "internalType": "address",
          "name": "account",
          "type": "address"
        }
      ],
      "name": "hasRole",
      "outputs": [
        {
          "internalType": "bool",
          "name": "",
          "type": "bool"
        }
      ],
      "stateMutability": "view",
      "type": "function"
    },
    {
      "inputs": [],
      "name": "initialize",
      "outputs": [],
      "stateMutability": "nonpayable",
      "type": "function"
    },
    {
      "inputs": [],
      "name": "liquidationValue",
      "outputs": [
        {
          "internalType": "uint256",
          "name": "",
          "type": "uint256"
        }
      ],
      "stateMutability": "view",
      "type": "function"
    },
    {
      "inputs": [],
      "name": "lpToken",
      "outputs": [
        {
          "internalType": "contract IERC20",
          "name": "",
          "type": "address"
        }
      ],
      "stateMutability": "view",
      "type": "function"
    },
    {
      "inputs": [],
      "name": "lpTokenDenominator",
      "outputs": [
        {
          "internalType": "uint256",
          "name": "",
          "type": "uint256"
        }
      ],
      "stateMutability": "view",
      "type": "function"
    },
    {
      "inputs": [],
      "name": "navSlippageBP",
      "outputs": [
        {
          "internalType": "uint256",
          "name": "",
          "type": "uint256"
        }
      ],
      "stateMutability": "view",
      "type": "function"
    },
    {
      "inputs": [],
      "name": "netAssetValue",
      "outputs": [
        {
          "internalType": "uint256",
          "name": "",
          "type": "uint256"
        }
      ],
      "stateMutability": "view",
      "type": "function"
    },
    {
      "inputs": [],
      "name": "poolIdAeqWBnb",
      "outputs": [
        {
          "internalType": "bytes32",
          "name": "",
          "type": "bytes32"
        }
      ],
      "stateMutability": "view",
      "type": "function"
    },
    {
      "inputs": [],
      "name": "poolIdBusdUsdcUsdt",
      "outputs": [
        {
          "internalType": "bytes32",
          "name": "",
          "type": "bytes32"
        }
      ],
      "stateMutability": "view",
      "type": "function"
    },
    {
      "inputs": [],
      "name": "poolIdWBnbBusd",
      "outputs": [
        {
          "internalType": "bytes32",
          "name": "",
          "type": "bytes32"
        }
      ],
      "stateMutability": "view",
      "type": "function"
    },
    {
      "inputs": [],
      "name": "portfolioManager",
      "outputs": [
        {
          "internalType": "address",
          "name": "",
          "type": "address"
        }
      ],
      "stateMutability": "view",
      "type": "function"
    },
    {
      "inputs": [],
      "name": "proxiableUUID",
      "outputs": [
        {
          "internalType": "bytes32",
          "name": "",
          "type": "bytes32"
        }
      ],
      "stateMutability": "view",
      "type": "function"
    },
    {
      "inputs": [
        {
          "internalType": "bytes32",
          "name": "role",
          "type": "bytes32"
        },
        {
          "internalType": "address",
          "name": "account",
          "type": "address"
        }
      ],
      "name": "renounceRole",
      "outputs": [],
      "stateMutability": "nonpayable",
      "type": "function"
    },
    {
      "inputs": [
        {
          "internalType": "bytes32",
          "name": "role",
          "type": "bytes32"
        },
        {
          "internalType": "address",
          "name": "account",
          "type": "address"
        }
      ],
      "name": "revokeRole",
      "outputs": [],
      "stateMutability": "nonpayable",
      "type": "function"
    },
    {
      "inputs": [],
      "name": "rewardWallet",
      "outputs": [
        {
          "internalType": "address",
          "name": "",
          "type": "address"
        }
      ],
      "stateMutability": "view",
      "type": "function"
    },
    {
      "inputs": [],
      "name": "rewardWalletPercent",
      "outputs": [
        {
          "internalType": "uint256",
          "name": "",
          "type": "uint256"
        }
      ],
      "stateMutability": "view",
      "type": "function"
    },
    {
      "inputs": [
        {
          "internalType": "address",
          "name": "_token",
          "type": "address"
        }
      ],
      "name": "setAeqDelayRecovery",
      "outputs": [],
      "stateMutability": "nonpayable",
      "type": "function"
    },
    {
      "inputs": [
        {
          "internalType": "address",
          "name": "_value",
          "type": "address"
        }
      ],
      "name": "setPortfolioManager",
      "outputs": [],
      "stateMutability": "nonpayable",
      "type": "function"
    },
    {
      "inputs": [
        {
          "internalType": "uint256",
          "name": "_swapSlippageBP",
          "type": "uint256"
        },
        {
          "internalType": "uint256",
          "name": "_navSlippageBP",
          "type": "uint256"
        },
        {
          "internalType": "uint256",
          "name": "_stakeSlippageBP",
          "type": "uint256"
        }
      ],
      "name": "setSlippages",
      "outputs": [],
      "stateMutability": "nonpayable",
      "type": "function"
    },
    {
      "inputs": [
        {
          "internalType": "address",
          "name": "_asset",
          "type": "address"
        },
        {
          "internalType": "uint256",
          "name": "_amount",
          "type": "uint256"
        }
      ],
      "name": "stake",
      "outputs": [],
      "stateMutability": "nonpayable",
      "type": "function"
    },
    {
      "inputs": [],
      "name": "stakeSlippageBP",
      "outputs": [
        {
          "internalType": "uint256",
          "name": "",
          "type": "uint256"
        }
      ],
      "stateMutability": "view",
      "type": "function"
    },
    {
      "inputs": [
        {
          "internalType": "bytes4",
          "name": "interfaceId",
          "type": "bytes4"
        }
      ],
      "name": "supportsInterface",
      "outputs": [
        {
          "internalType": "bool",
          "name": "",
          "type": "bool"
        }
      ],
      "stateMutability": "view",
      "type": "function"
    },
    {
      "inputs": [],
      "name": "swapSlippageBP",
      "outputs": [
        {
          "internalType": "uint256",
          "name": "",
          "type": "uint256"
        }
      ],
      "stateMutability": "view",
      "type": "function"
    },
    {
      "inputs": [
        {
          "internalType": "address",
          "name": "_asset",
          "type": "address"
        },
        {
          "internalType": "uint256",
          "name": "_amount",
          "type": "uint256"
        },
        {
          "internalType": "address",
          "name": "_beneficiary",
          "type": "address"
        },
        {
          "internalType": "bool",
          "name": "_targetIsZero",
          "type": "bool"
        }
      ],
      "name": "unstake",
      "outputs": [
        {
          "internalType": "uint256",
          "name": "",
          "type": "uint256"
        }
      ],
      "stateMutability": "nonpayable",
      "type": "function"
    },
    {
      "inputs": [
        {
          "internalType": "address",
          "name": "newImplementation",
          "type": "address"
        }
      ],
      "name": "upgradeTo",
      "outputs": [],
      "stateMutability": "nonpayable",
      "type": "function"
    },
    {
      "inputs": [
        {
          "internalType": "address",
          "name": "newImplementation",
          "type": "address"
        },
        {
          "internalType": "bytes",
          "name": "data",
          "type": "bytes"
        }
      ],
      "name": "upgradeToAndCall",
      "outputs": [],
      "stateMutability": "payable",
      "type": "function"
    },
    {
      "inputs": [],
      "name": "usdcToken",
      "outputs": [
        {
          "internalType": "contract IERC20",
          "name": "",
          "type": "address"
        }
      ],
      "stateMutability": "view",
      "type": "function"
    },
    {
      "inputs": [],
      "name": "usdcTokenDenominator",
      "outputs": [
        {
          "internalType": "uint256",
          "name": "",
          "type": "uint256"
        }
      ],
      "stateMutability": "view",
      "type": "function"
    },
    {
      "inputs": [],
      "name": "usdtToken",
      "outputs": [
        {
          "internalType": "contract IERC20",
          "name": "",
          "type": "address"
        }
      ],
      "stateMutability": "view",
      "type": "function"
    },
    {
      "inputs": [],
      "name": "usdtTokenDenominator",
      "outputs": [
        {
          "internalType": "uint256",
          "name": "",
          "type": "uint256"
        }
      ],
      "stateMutability": "view",
      "type": "function"
    },
    {
      "inputs": [],
      "name": "vault",
      "outputs": [
        {
          "internalType": "contract IVault",
          "name": "",
          "type": "address"
        }
      ],
      "stateMutability": "view",
      "type": "function"
    },
    {
      "inputs": [],
      "name": "wBnbToken",
      "outputs": [
        {
          "internalType": "contract IERC20",
          "name": "",
          "type": "address"
        }
      ],
      "stateMutability": "view",
      "type": "function"
    },
    {
      "inputs": [],
      "name": "withdraw",
      "outputs": [],
      "stateMutability": "nonpayable",
      "type": "function"
    }
  ],
  "numDeployments": 10,
  "solcInputHash": "d914d57bb932212b8dcf99724d016c89",
  "bytecode": "0x60a06040523060601b6080523480156200001857600080fd5b50600054610100900460ff16158080156200003a5750600054600160ff909116105b806200006a575062000057306200014460201b620016911760201c565b1580156200006a575060005460ff166001145b620000d25760405162461bcd60e51b815260206004820152602e60248201527f496e697469616c697a61626c653a20636f6e747261637420697320616c72656160448201526d191e481a5b9a5d1a585b1a5e995960921b606482015260840160405180910390fd5b6000805460ff191660011790558015620000f6576000805461ff0019166101001790555b80156200013d576000805461ff0019169055604051600181527f7f26b83ff96e1f2b6a682f133852f6798a09c465da95921460cefb38474024989060200160405180910390a15b5062000153565b6001600160a01b03163b151590565b60805160601c6124976200018e600039600081816109a6015281816109e601528181610c4c01528181610c8c0152610d1b01526124976000f3fe6080604052600436106102715760003560e01c80638129fc1c1161014f578063bf52e080116100c1578063e322a4f71161007a578063e322a4f7146106ff578063e71f6a9e14610716578063ef5cfb8c14610737578063f6f6b88114610757578063fb75b2c714610777578063fbfa77cf1461079857600080fd5b8063bf52e08014610659578063c3bc6ff11461066f578063d1d0d82a14610686578063d547741f146106a7578063d799bbc6146106c7578063de0e7014146106de57600080fd5b8063a3673b3811610113578063a3673b38146103e1578063a440b21a146105b7578063a6f19c84146105d7578063a98ad46c146105f8578063adc9772e14610619578063ae30c1101461063957600080fd5b80638129fc1c1461053f57806391d14854146105545780639f70949214610574578063a217fddf1461058b578063a305f5e0146105a057600080fd5b80632f2ff15d116101e857806352d1902d116101ac57806352d1902d1461047d5780635ca558f8146104925780635dbd733a146104a85780635fcbd285146104dc578063620b75df146104fd5780637d5f58021461051d57600080fd5b80632f2ff15d146103f557806336568abe146104155780633659cfe6146104355780633ccfd60b146104555780634f1ef2861461046a57600080fd5b8063119cd8791161023a578063119cd8791461034157806311eac85514610357578063148cffc114610378578063248a9ca31461038f578063253c9f21146103bf5780632576e65a146103e157600080fd5b8062b17aaf1461027657806301ffc9a7146102b4578063052e4307146102e457806306aee9571461030557806306da3f2e1461032a575b600080fd5b34801561028257600080fd5b5061013e54610297906001600160a01b031681565b6040516001600160a01b0390911681526020015b60405180910390f35b3480156102c057600080fd5b506102d46102cf3660046120c0565b6107b9565b60405190151581526020016102ab565b3480156102f057600080fd5b5061013f54610297906001600160a01b031681565b34801561031157600080fd5b5061031c6101395481565b6040519081526020016102ab565b34801561033657600080fd5b5061031c61013b5481565b34801561034d57600080fd5b5061031c60fd5481565b34801561036357600080fd5b5061012e54610297906001600160a01b031681565b34801561038457600080fd5b5061031c6101355481565b34801561039b57600080fd5b5061031c6103aa366004612062565b60009081526065602052604090206001015490565b3480156103cb57600080fd5b506103df6103da366004611eef565b6107f0565b005b3480156103ed57600080fd5b50600061031c565b34801561040157600080fd5b506103df610410366004612094565b6108f3565b34801561042157600080fd5b506103df610430366004612094565b61091d565b34801561044157600080fd5b506103df610450366004611eef565b61099b565b34801561046157600080fd5b506103df610a7b565b6103df610478366004611f0a565b610c41565b34801561048957600080fd5b5061031c610d0e565b34801561049e57600080fd5b5061031c60fe5481565b3480156104b457600080fd5b5061031c7fd67ad422505496469a1adf6cdf9e5ee92ac5d33992843c9ecc4b2f6d6cde913781565b3480156104e857600080fd5b5061013254610297906001600160a01b031681565b34801561050957600080fd5b5060fb54610297906001600160a01b031681565b34801561052957600080fd5b5061031c6000805160206123fb83398151915281565b34801561054b57600080fd5b506103df610dc1565b34801561056057600080fd5b506102d461056f366004612094565b610e84565b34801561058057600080fd5b5061031c61013a5481565b34801561059757600080fd5b5061031c600081565b3480156105ac57600080fd5b5061031c6101365481565b3480156105c357600080fd5b506103df6105d2366004611eef565b610eaf565b3480156105e357600080fd5b5061013454610297906001600160a01b031681565b34801561060457600080fd5b5061012f54610297906001600160a01b031681565b34801561062557600080fd5b506103df610634366004611fcc565b610fde565b34801561064557600080fd5b506103df6106543660046120ea565b611209565b34801561066557600080fd5b5061031c60fc5481565b34801561067b57600080fd5b5061031c61013c5481565b34801561069257600080fd5b5061013154610297906001600160a01b031681565b3480156106b357600080fd5b506103df6106c2366004612094565b61137e565b3480156106d357600080fd5b5061031c6101375481565b3480156106ea57600080fd5b5061012d54610297906001600160a01b031681565b34801561070b57600080fd5b5061031c61013d5481565b34801561072257600080fd5b5061013054610297906001600160a01b031681565b34801561074357600080fd5b5061031c610752366004611eef565b6113a3565b34801561076357600080fd5b5061031c610772366004611ff6565b6113e2565b34801561078357600080fd5b5061013854610297906001600160a01b031681565b3480156107a457600080fd5b5061013354610297906001600160a01b031681565b60006001600160e01b03198216637965db0b60e01b14806107ea57506301ffc9a760e01b6001600160e01b03198316145b92915050565b6107fb600033610e84565b6108435760405162461bcd60e51b81526020600482015260146024820152735265737472696374656420746f2061646d696e7360601b60448201526064015b60405180910390fd5b61013f546001600160a01b03161561089d5760405162461bcd60e51b815260206004820152601c60248201527f61657144656c61795265636f76657279206973206e6f74207a65726f00000000604482015260640161083a565b61013f80546001600160a01b0319166001600160a01b0383169081179091556040519081527ffb418afacc6d42f4181abed228a237b40088fdafd03881e534c7f90403ba3e05906020015b60405180910390a150565b60008281526065602052604090206001015461090e816116a0565b61091883836116aa565b505050565b6001600160a01b038116331461098d5760405162461bcd60e51b815260206004820152602f60248201527f416363657373436f6e74726f6c3a2063616e206f6e6c792072656e6f756e636560448201526e103937b632b9903337b91039b2b63360891b606482015260840161083a565b6109978282611730565b5050565b306001600160a01b037f00000000000000000000000000000000000000000000000000000000000000001614156109e45760405162461bcd60e51b815260040161083a90612211565b7f00000000000000000000000000000000000000000000000000000000000000006001600160a01b0316610a2d60008051602061241b833981519152546001600160a01b031690565b6001600160a01b031614610a535760405162461bcd60e51b815260040161083a9061225d565b610a5c81611797565b60408051600080825260208201909252610a78918391906117a2565b50565b61013f546040516370a0823160e01b81523360048201526000916001600160a01b0316906370a082319060240160206040518083038186803b158015610ac057600080fd5b505afa158015610ad4573d6000803e3d6000fd5b505050506040513d601f19601f82011682018060405250810190610af8919061207b565b61013f546040516323b872dd60e01b8152336004820152306024820152604481018390529192506001600160a01b0316906323b872dd90606401602060405180830381600087803b158015610b4c57600080fd5b505af1158015610b60573d6000803e3d6000fd5b505050506040513d601f19601f82011682018060405250810190610b849190612045565b506101345460405163a9059cbb60e01b8152336004820152602481018390526001600160a01b039091169063a9059cbb90604401602060405180830381600087803b158015610bd257600080fd5b505af1158015610be6573d6000803e3d6000fd5b505050506040513d601f19601f82011682018060405250810190610c0a9190612045565b5060408051338152602081018390527f083193d4b8efe60ac1873877451565ecfc63268be186016e50dc18c6f901ce6091016108e8565b306001600160a01b037f0000000000000000000000000000000000000000000000000000000000000000161415610c8a5760405162461bcd60e51b815260040161083a90612211565b7f00000000000000000000000000000000000000000000000000000000000000006001600160a01b0316610cd360008051602061241b833981519152546001600160a01b031690565b6001600160a01b031614610cf95760405162461bcd60e51b815260040161083a9061225d565b610d0282611797565b610997828260016117a2565b6000306001600160a01b037f00000000000000000000000000000000000000000000000000000000000000001614610dae5760405162461bcd60e51b815260206004820152603860248201527f555550535570677261646561626c653a206d757374206e6f742062652063616c60448201527f6c6564207468726f7567682064656c656761746563616c6c0000000000000000606482015260840161083a565b5060008051602061241b83398151915290565b600054610100900460ff1615808015610de15750600054600160ff909116105b80610dfb5750303b158015610dfb575060005460ff166001145b610e175760405162461bcd60e51b815260040161083a906122a9565b6000805460ff191660011790558015610e3a576000805461ff0019166101001790555b610e4261191c565b8015610a78576000805461ff0019169055604051600181527f7f26b83ff96e1f2b6a682f133852f6798a09c465da95921460cefb3847402498906020016108e8565b60009182526065602090815260408084206001600160a01b0393909316845291905290205460ff1690565b610eba600033610e84565b610efd5760405162461bcd60e51b81526020600482015260146024820152735265737472696374656420746f2061646d696e7360601b604482015260640161083a565b6001600160a01b038116610f535760405162461bcd60e51b815260206004820152601860248201527f5a65726f2061646472657373206e6f7420616c6c6f7765640000000000000000604482015260640161083a565b60fb54610f78906000805160206123fb833981519152906001600160a01b031661137e565b610f906000805160206123fb833981519152826108f3565b60fb80546001600160a01b0319166001600160a01b0383169081179091556040519081527ff7b449fcd5cfb7379dcd34cb69428dd9f882033b15be33d83b42d91daa28eeb7906020016108e8565b610ff66000805160206123fb83398151915233610e84565b6110125760405162461bcd60e51b815260040161083a906121da565b6000611090306001600160a01b031663a3673b386040518163ffffffff1660e01b815260040160206040518083038186803b15801561105057600080fd5b505afa158015611064573d6000803e3d6000fd5b505050506040513d601f19601f82011682018060405250810190611088919061207b565b60fd54611a01565b6040516370a0823160e01b81523060048201529091506111109084906001600160a01b038216906370a082319060240160206040518083038186803b1580156110d857600080fd5b505afa1580156110ec573d6000803e3d6000fd5b505050506040513d601f19601f82011682018060405250810190610997919061207b565b80306001600160a01b031663a3673b386040518163ffffffff1660e01b815260040160206040518083038186803b15801561114a57600080fd5b505afa15801561115e573d6000803e3d6000fd5b505050506040513d601f19601f82011682018060405250810190611182919061207b565b10156111d05760405162461bcd60e51b815260206004820152601f60248201527f5374726174656779204e4156206c657373207468616e20657870656374656400604482015260640161083a565b6040518281527f227a473b70d2f893cc7659219575c030a63b5743024fe1e0c1a680e708b1525a906020015b60405180910390a1505050565b6112337fd67ad422505496469a1adf6cdf9e5ee92ac5d33992843c9ecc4b2f6d6cde913733610e84565b806112da575060fb54604051632474521560e21b81527fd67ad422505496469a1adf6cdf9e5ee92ac5d33992843c9ecc4b2f6d6cde913760048201523360248201526001600160a01b03909116906391d148549060440160206040518083038186803b1580156112a257600080fd5b505afa1580156112b6573d6000803e3d6000fd5b505050506040513d601f19601f820116820180604052508101906112da9190612045565b6113315760405162461bcd60e51b815260206004820152602260248201527f5265737472696374656420746f20504f5254464f4c494f5f4147454e545f524f6044820152614c4560f01b606482015260840161083a565b60fc83905560fd82905560fe81905560408051848152602081018490529081018290527f116fbf1e97a2be629ad98abfb6c332733c8996c2dfb174dd2efe8440df381d1a906060016111fc565b600082815260656020526040902060010154611399816116a0565b6109188383611730565b60006113bd6000805160206123fb83398151915233610e84565b6113d95760405162461bcd60e51b815260040161083a906121da565b5060005b919050565b60006113fc6000805160206123fb83398151915233610e84565b6114185760405162461bcd60e51b815260040161083a906121da565b6000611456306001600160a01b031663a3673b386040518163ffffffff1660e01b815260040160206040518083038186803b15801561105057600080fd5b9050600080841561146c575060008091506114d0565b6000915086156114d05760405162461bcd60e51b815260206004820152602960248201527f52657475726e65642076616c7565206c657373207468616e2072657175657374604482015268195908185b5bdd5b9d60ba1b606482015260840161083a565b82306001600160a01b031663a3673b386040518163ffffffff1660e01b815260040160206040518083038186803b15801561150a57600080fd5b505afa15801561151e573d6000803e3d6000fd5b505050506040513d601f19601f82011682018060405250810190611542919061207b565b10156115905760405162461bcd60e51b815260206004820152601f60248201527f5374726174656779204e4156206c657373207468616e20657870656374656400604482015260640161083a565b60405163a9059cbb60e01b81526001600160a01b0387811660048301526024820184905289169063a9059cbb90604401602060405180830381600087803b1580156115da57600080fd5b505af11580156115ee573d6000803e3d6000fd5b505050506040513d601f19601f820116820180604052508101906116129190612045565b5060408051888152602081018490527f9045c2ac9b2026de8075f2701bbdde882cd5e830b3b1ead9a15b22f2b5b93742910160405180910390a18015611686576040518181527f3ac0594a85a20354f9dc74f33728416d19ce00d04a406c108cc2dcf2cecea1349060200160405180910390a15b509695505050505050565b6001600160a01b03163b151590565b610a788133611a2b565b6116b48282610e84565b6109975760008281526065602090815260408083206001600160a01b03851684529091529020805460ff191660011790556116ec3390565b6001600160a01b0316816001600160a01b0316837f2f8788117e7eff1d82e926ec794901d17c78024a50270940304540a733656f0d60405160405180910390a45050565b61173a8282610e84565b156109975760008281526065602090815260408083206001600160a01b0385168085529252808320805460ff1916905551339285917ff6391f5c32d9c69d2a47ea670b442974b53935d1edc7fd64eb21e047a839171b9190a45050565b6000610997816116a0565b7f4910fdfa16fed3260ed0e7147f7cc6da11a60208b5b9406d12a635614ffd91435460ff16156117d55761091883611a84565b826001600160a01b03166352d1902d6040518163ffffffff1660e01b815260040160206040518083038186803b15801561180e57600080fd5b505afa92505050801561183e575060408051601f3d908101601f1916820190925261183b9181019061207b565b60015b6118a15760405162461bcd60e51b815260206004820152602e60248201527f45524331393637557067726164653a206e657720696d706c656d656e7461746960448201526d6f6e206973206e6f74205555505360901b606482015260840161083a565b60008051602061241b83398151915281146119105760405162461bcd60e51b815260206004820152602960248201527f45524331393637557067726164653a20756e737570706f727465642070726f786044820152681a58589b195555525160ba1b606482015260840161083a565b50610918838383611b20565b600054610100900460ff161580801561193c5750600054600160ff909116105b806119565750303b158015611956575060005460ff166001145b6119725760405162461bcd60e51b815260040161083a906122a9565b6000805460ff191660011790558015611995576000805461ff0019166101001790555b61199d611b4b565b6119a5611b4b565b6119b06000336116aa565b601460fc81905560fd55600460fe558015610a78576000805461ff0019169055604051600181527f7f26b83ff96e1f2b6a682f133852f6798a09c465da95921460cefb3847402498906020016108e8565b6000612710611a108382612350565b611a1a9085612331565b611a24919061230f565b9392505050565b611a358282610e84565b61099757611a4281611bb8565b611a4d836020611bca565b604051602001611a5e929190612132565b60408051601f198184030181529082905262461bcd60e51b825261083a916004016121a7565b6001600160a01b0381163b611af15760405162461bcd60e51b815260206004820152602d60248201527f455243313936373a206e657720696d706c656d656e746174696f6e206973206e60448201526c1bdd08184818dbdb9d1c9858dd609a1b606482015260840161083a565b60008051602061241b83398151915280546001600160a01b0319166001600160a01b0392909216919091179055565b611b2983611d66565b600082511180611b365750805b1561091857611b458383611da6565b50505050565b600054610100900460ff16611bb65760405162461bcd60e51b815260206004820152602b60248201527f496e697469616c697a61626c653a20636f6e7472616374206973206e6f74206960448201526a6e697469616c697a696e6760a81b606482015260840161083a565b565b60606107ea6001600160a01b03831660145b60606000611bd9836002612331565b611be49060026122f7565b67ffffffffffffffff811115611bfc57611bfc6123d6565b6040519080825280601f01601f191660200182016040528015611c26576020820181803683370190505b509050600360fc1b81600081518110611c4157611c416123c0565b60200101906001600160f81b031916908160001a905350600f60fb1b81600181518110611c7057611c706123c0565b60200101906001600160f81b031916908160001a9053506000611c94846002612331565b611c9f9060016122f7565b90505b6001811115611d17576f181899199a1a9b1b9c1cb0b131b232b360811b85600f1660108110611cd357611cd36123c0565b1a60f81b828281518110611ce957611ce96123c0565b60200101906001600160f81b031916908160001a90535060049490941c93611d1081612393565b9050611ca2565b508315611a245760405162461bcd60e51b815260206004820181905260248201527f537472696e67733a20686578206c656e67746820696e73756666696369656e74604482015260640161083a565b611d6f81611a84565b6040516001600160a01b038216907fbc7cd75a20ee27fd9adebab32041f755214dbc6bffa90cc0225b39da2e5c2d3b90600090a250565b60606001600160a01b0383163b611e0e5760405162461bcd60e51b815260206004820152602660248201527f416464726573733a2064656c65676174652063616c6c20746f206e6f6e2d636f6044820152651b9d1c9858dd60d21b606482015260840161083a565b600080846001600160a01b031684604051611e299190612116565b600060405180830381855af49150503d8060008114611e64576040519150601f19603f3d011682016040523d82523d6000602084013e611e69565b606091505b5091509150611e91828260405180606001604052806027815260200161243b60279139611e9a565b95945050505050565b60608315611ea9575081611a24565b611a248383815115611ebe5781518083602001fd5b8060405162461bcd60e51b815260040161083a91906121a7565b80356001600160a01b03811681146113dd57600080fd5b600060208284031215611f0157600080fd5b611a2482611ed8565b60008060408385031215611f1d57600080fd5b611f2683611ed8565b9150602083013567ffffffffffffffff80821115611f4357600080fd5b818501915085601f830112611f5757600080fd5b813581811115611f6957611f696123d6565b604051601f8201601f19908116603f01168101908382118183101715611f9157611f916123d6565b81604052828152886020848701011115611faa57600080fd5b8260208601602083013760006020848301015280955050505050509250929050565b60008060408385031215611fdf57600080fd5b611fe883611ed8565b946020939093013593505050565b6000806000806080858703121561200c57600080fd5b61201585611ed8565b93506020850135925061202a60408601611ed8565b9150606085013561203a816123ec565b939692955090935050565b60006020828403121561205757600080fd5b8151611a24816123ec565b60006020828403121561207457600080fd5b5035919050565b60006020828403121561208d57600080fd5b5051919050565b600080604083850312156120a757600080fd5b823591506120b760208401611ed8565b90509250929050565b6000602082840312156120d257600080fd5b81356001600160e01b031981168114611a2457600080fd5b6000806000606084860312156120ff57600080fd5b505081359360208301359350604090920135919050565b60008251612128818460208701612367565b9190910192915050565b7f416363657373436f6e74726f6c3a206163636f756e742000000000000000000081526000835161216a816017850160208801612367565b7001034b99036b4b9b9b4b733903937b6329607d1b601791840191820152835161219b816028840160208801612367565b01602801949350505050565b60208152600082518060208401526121c6816040850160208701612367565b601f01601f19169190910160400192915050565b6020808252601f908201527f5265737472696374656420746f20504f5254464f4c494f5f4d414e4147455200604082015260600190565b6020808252602c908201527f46756e6374696f6e206d7573742062652063616c6c6564207468726f7567682060408201526b19195b1959d85d1958d85b1b60a21b606082015260800190565b6020808252602c908201527f46756e6374696f6e206d7573742062652063616c6c6564207468726f7567682060408201526b6163746976652070726f787960a01b606082015260800190565b6020808252602e908201527f496e697469616c697a61626c653a20636f6e747261637420697320616c72656160408201526d191e481a5b9a5d1a585b1a5e995960921b606082015260800190565b6000821982111561230a5761230a6123aa565b500190565b60008261232c57634e487b7160e01b600052601260045260246000fd5b500490565b600081600019048311821515161561234b5761234b6123aa565b500290565b600082821015612362576123626123aa565b500390565b60005b8381101561238257818101518382015260200161236a565b83811115611b455750506000910152565b6000816123a2576123a26123aa565b506000190190565b634e487b7160e01b600052601160045260246000fd5b634e487b7160e01b600052603260045260246000fd5b634e487b7160e01b600052604160045260246000fd5b8015158114610a7857600080fdfe90c2aa7471c04182221f68e80c07ab1e5946e4c63f8693e14ca40385d529f051360894a13ba1a3210667c828492db98dca3e2076cc3735a920a3ca505d382bbc416464726573733a206c6f772d6c6576656c2064656c65676174652063616c6c206661696c6564a2646970667358221220e40e8a3b06b31e1fc5fbb7ed89e30817340667749adce0e85a0b0e80211522c364736f6c63430008060033",
  "implementation": "0xb4C3fC665AA10A49c609e4Cd58cd10D456ED5e6B",
  "devdoc": {
    "kind": "dev",
    "methods": {
      "constructor": {
        "custom:oz-upgrades-unsafe-allow": "constructor"
      },
      "getRoleAdmin(bytes32)": {
        "details": "Returns the admin role that controls `role`. See {grantRole} and {revokeRole}. To change a role's admin, use {_setRoleAdmin}."
      },
      "grantRole(bytes32,address)": {
        "details": "Grants `role` to `account`. If `account` had not been already granted `role`, emits a {RoleGranted} event. Requirements: - the caller must have ``role``'s admin role. May emit a {RoleGranted} event."
      },
      "hasRole(bytes32,address)": {
        "details": "Returns `true` if `account` has been granted `role`."
      },
      "proxiableUUID()": {
        "details": "Implementation of the ERC1822 {proxiableUUID} function. This returns the storage slot used by the implementation. It is used to validate the implementation's compatibility when performing an upgrade. IMPORTANT: A proxy pointing at a proxiable contract should not be considered proxiable itself, because this risks bricking a proxy that upgrades to it, by delegating to itself until out of gas. Thus it is critical that this function revert if invoked through a proxy. This is guaranteed by the `notDelegated` modifier."
      },
      "renounceRole(bytes32,address)": {
        "details": "Revokes `role` from the calling account. Roles are often managed via {grantRole} and {revokeRole}: this function's purpose is to provide a mechanism for accounts to lose their privileges if they are compromised (such as when a trusted device is misplaced). If the calling account had been revoked `role`, emits a {RoleRevoked} event. Requirements: - the caller must be `account`. May emit a {RoleRevoked} event."
      },
      "revokeRole(bytes32,address)": {
        "details": "Revokes `role` from `account`. If `account` had been granted `role`, emits a {RoleRevoked} event. Requirements: - the caller must have ``role``'s admin role. May emit a {RoleRevoked} event."
      },
      "supportsInterface(bytes4)": {
        "details": "See {IERC165-supportsInterface}."
      },
      "upgradeTo(address)": {
        "details": "Upgrade the implementation of the proxy to `newImplementation`. Calls {_authorizeUpgrade}. Emits an {Upgraded} event."
      },
      "upgradeToAndCall(address,bytes)": {
        "details": "Upgrade the implementation of the proxy to `newImplementation`, and subsequently execute the function call encoded in `data`. Calls {_authorizeUpgrade}. Emits an {Upgraded} event."
      }
    },
    "version": 1
  },
  "userdoc": {
    "kind": "user",
    "methods": {},
    "version": 1
  },
  "storageLayout": {
    "storage": [
      {
        "astId": 804,
        "contract": "contracts/aeq/StrategyAequinoxBusdUsdcUsdt.sol:StrategyAequinoxBusdUsdcUsdt",
        "label": "_initialized",
        "offset": 0,
        "slot": "0",
        "type": "t_uint8"
      },
      {
        "astId": 807,
        "contract": "contracts/aeq/StrategyAequinoxBusdUsdcUsdt.sol:StrategyAequinoxBusdUsdcUsdt",
        "label": "_initializing",
        "offset": 1,
        "slot": "0",
        "type": "t_bool"
      },
      {
        "astId": 1427,
        "contract": "contracts/aeq/StrategyAequinoxBusdUsdcUsdt.sol:StrategyAequinoxBusdUsdcUsdt",
        "label": "__gap",
        "offset": 0,
        "slot": "1",
        "type": "t_array(t_uint256)50_storage"
      },
      {
        "astId": 1706,
        "contract": "contracts/aeq/StrategyAequinoxBusdUsdcUsdt.sol:StrategyAequinoxBusdUsdcUsdt",
        "label": "__gap",
        "offset": 0,
        "slot": "51",
        "type": "t_array(t_uint256)50_storage"
      },
      {
        "astId": 39,
        "contract": "contracts/aeq/StrategyAequinoxBusdUsdcUsdt.sol:StrategyAequinoxBusdUsdcUsdt",
        "label": "_roles",
        "offset": 0,
        "slot": "101",
        "type": "t_mapping(t_bytes32,t_struct(RoleData)34_storage)"
      },
      {
        "astId": 334,
        "contract": "contracts/aeq/StrategyAequinoxBusdUsdcUsdt.sol:StrategyAequinoxBusdUsdcUsdt",
        "label": "__gap",
        "offset": 0,
        "slot": "102",
        "type": "t_array(t_uint256)49_storage"
      },
      {
        "astId": 786,
        "contract": "contracts/aeq/StrategyAequinoxBusdUsdcUsdt.sol:StrategyAequinoxBusdUsdcUsdt",
        "label": "__gap",
        "offset": 0,
        "slot": "151",
        "type": "t_array(t_uint256)50_storage"
      },
      {
        "astId": 1101,
        "contract": "contracts/aeq/StrategyAequinoxBusdUsdcUsdt.sol:StrategyAequinoxBusdUsdcUsdt",
        "label": "__gap",
        "offset": 0,
        "slot": "201",
        "type": "t_array(t_uint256)50_storage"
      },
      {
        "astId": 4578,
        "contract": "contracts/aeq/StrategyAequinoxBusdUsdcUsdt.sol:StrategyAequinoxBusdUsdcUsdt",
        "label": "portfolioManager",
        "offset": 0,
        "slot": "251",
        "type": "t_address"
      },
      {
        "astId": 4580,
        "contract": "contracts/aeq/StrategyAequinoxBusdUsdcUsdt.sol:StrategyAequinoxBusdUsdcUsdt",
        "label": "swapSlippageBP",
        "offset": 0,
        "slot": "252",
        "type": "t_uint256"
      },
      {
        "astId": 4582,
        "contract": "contracts/aeq/StrategyAequinoxBusdUsdcUsdt.sol:StrategyAequinoxBusdUsdcUsdt",
        "label": "navSlippageBP",
        "offset": 0,
        "slot": "253",
        "type": "t_uint256"
      },
      {
        "astId": 4584,
        "contract": "contracts/aeq/StrategyAequinoxBusdUsdcUsdt.sol:StrategyAequinoxBusdUsdcUsdt",
        "label": "stakeSlippageBP",
        "offset": 0,
        "slot": "254",
        "type": "t_uint256"
      },
      {
        "astId": 4969,
        "contract": "contracts/aeq/StrategyAequinoxBusdUsdcUsdt.sol:StrategyAequinoxBusdUsdcUsdt",
        "label": "__gap",
        "offset": 0,
        "slot": "255",
        "type": "t_array(t_uint256)46_storage"
      },
      {
        "astId": 5089,
        "contract": "contracts/aeq/StrategyAequinoxBusdUsdcUsdt.sol:StrategyAequinoxBusdUsdcUsdt",
        "label": "busdToken",
        "offset": 0,
        "slot": "301",
        "type": "t_contract(IERC20)2662"
      },
      {
        "astId": 5092,
        "contract": "contracts/aeq/StrategyAequinoxBusdUsdcUsdt.sol:StrategyAequinoxBusdUsdcUsdt",
        "label": "usdcToken",
        "offset": 0,
        "slot": "302",
        "type": "t_contract(IERC20)2662"
      },
      {
        "astId": 5095,
        "contract": "contracts/aeq/StrategyAequinoxBusdUsdcUsdt.sol:StrategyAequinoxBusdUsdcUsdt",
        "label": "usdtToken",
        "offset": 0,
        "slot": "303",
        "type": "t_contract(IERC20)2662"
      },
      {
        "astId": 5098,
        "contract": "contracts/aeq/StrategyAequinoxBusdUsdcUsdt.sol:StrategyAequinoxBusdUsdcUsdt",
        "label": "wBnbToken",
        "offset": 0,
        "slot": "304",
        "type": "t_contract(IERC20)2662"
      },
      {
        "astId": 5101,
        "contract": "contracts/aeq/StrategyAequinoxBusdUsdcUsdt.sol:StrategyAequinoxBusdUsdcUsdt",
        "label": "aeqToken",
        "offset": 0,
        "slot": "305",
        "type": "t_contract(IERC20)2662"
      },
      {
        "astId": 5104,
        "contract": "contracts/aeq/StrategyAequinoxBusdUsdcUsdt.sol:StrategyAequinoxBusdUsdcUsdt",
        "label": "lpToken",
        "offset": 0,
        "slot": "306",
        "type": "t_contract(IERC20)2662"
      },
      {
        "astId": 5107,
        "contract": "contracts/aeq/StrategyAequinoxBusdUsdcUsdt.sol:StrategyAequinoxBusdUsdcUsdt",
        "label": "vault",
        "offset": 0,
        "slot": "307",
        "type": "t_contract(IVault)3811"
      },
      {
        "astId": 5110,
        "contract": "contracts/aeq/StrategyAequinoxBusdUsdcUsdt.sol:StrategyAequinoxBusdUsdcUsdt",
        "label": "gauge",
        "offset": 0,
        "slot": "308",
        "type": "t_contract(IGauge)3841"
      },
      {
        "astId": 5112,
        "contract": "contracts/aeq/StrategyAequinoxBusdUsdcUsdt.sol:StrategyAequinoxBusdUsdcUsdt",
        "label": "poolIdBusdUsdcUsdt",
        "offset": 0,
        "slot": "309",
        "type": "t_bytes32"
      },
      {
        "astId": 5114,
        "contract": "contracts/aeq/StrategyAequinoxBusdUsdcUsdt.sol:StrategyAequinoxBusdUsdcUsdt",
        "label": "poolIdAeqWBnb",
        "offset": 0,
        "slot": "310",
        "type": "t_bytes32"
      },
      {
        "astId": 5116,
        "contract": "contracts/aeq/StrategyAequinoxBusdUsdcUsdt.sol:StrategyAequinoxBusdUsdcUsdt",
        "label": "poolIdWBnbBusd",
        "offset": 0,
        "slot": "311",
        "type": "t_bytes32"
      },
      {
        "astId": 5118,
        "contract": "contracts/aeq/StrategyAequinoxBusdUsdcUsdt.sol:StrategyAequinoxBusdUsdcUsdt",
        "label": "rewardWallet",
        "offset": 0,
        "slot": "312",
        "type": "t_address"
      },
      {
        "astId": 5120,
        "contract": "contracts/aeq/StrategyAequinoxBusdUsdcUsdt.sol:StrategyAequinoxBusdUsdcUsdt",
        "label": "rewardWalletPercent",
        "offset": 0,
        "slot": "313",
        "type": "t_uint256"
      },
      {
        "astId": 5122,
        "contract": "contracts/aeq/StrategyAequinoxBusdUsdcUsdt.sol:StrategyAequinoxBusdUsdcUsdt",
        "label": "busdTokenDenominator",
        "offset": 0,
        "slot": "314",
        "type": "t_uint256"
      },
      {
        "astId": 5124,
        "contract": "contracts/aeq/StrategyAequinoxBusdUsdcUsdt.sol:StrategyAequinoxBusdUsdcUsdt",
        "label": "usdcTokenDenominator",
        "offset": 0,
        "slot": "315",
        "type": "t_uint256"
      },
      {
        "astId": 5126,
        "contract": "contracts/aeq/StrategyAequinoxBusdUsdcUsdt.sol:StrategyAequinoxBusdUsdcUsdt",
        "label": "usdtTokenDenominator",
        "offset": 0,
        "slot": "316",
        "type": "t_uint256"
      },
      {
        "astId": 5128,
        "contract": "contracts/aeq/StrategyAequinoxBusdUsdcUsdt.sol:StrategyAequinoxBusdUsdcUsdt",
        "label": "lpTokenDenominator",
        "offset": 0,
        "slot": "317",
        "type": "t_uint256"
      },
      {
        "astId": 5131,
        "contract": "contracts/aeq/StrategyAequinoxBusdUsdcUsdt.sol:StrategyAequinoxBusdUsdcUsdt",
        "label": "balancerMinter",
        "offset": 0,
        "slot": "318",
        "type": "t_contract(IBalancerMinter)3926"
      },
      {
        "astId": 5134,
        "contract": "contracts/aeq/StrategyAequinoxBusdUsdcUsdt.sol:StrategyAequinoxBusdUsdcUsdt",
        "label": "aeqDelayRecovery",
        "offset": 0,
        "slot": "319",
        "type": "t_contract(IERC20)2662"
      }
    ],
    "types": {
      "t_address": {
        "encoding": "inplace",
        "label": "address",
        "numberOfBytes": "20"
      },
      "t_array(t_uint256)46_storage": {
        "base": "t_uint256",
        "encoding": "inplace",
        "label": "uint256[46]",
        "numberOfBytes": "1472"
      },
      "t_array(t_uint256)49_storage": {
        "base": "t_uint256",
        "encoding": "inplace",
        "label": "uint256[49]",
        "numberOfBytes": "1568"
      },
      "t_array(t_uint256)50_storage": {
        "base": "t_uint256",
        "encoding": "inplace",
        "label": "uint256[50]",
        "numberOfBytes": "1600"
      },
      "t_bool": {
        "encoding": "inplace",
        "label": "bool",
        "numberOfBytes": "1"
      },
      "t_bytes32": {
        "encoding": "inplace",
        "label": "bytes32",
        "numberOfBytes": "32"
      },
      "t_contract(IBalancerMinter)3926": {
        "encoding": "inplace",
        "label": "contract IBalancerMinter",
        "numberOfBytes": "20"
      },
      "t_contract(IERC20)2662": {
        "encoding": "inplace",
        "label": "contract IERC20",
        "numberOfBytes": "20"
      },
      "t_contract(IGauge)3841": {
        "encoding": "inplace",
        "label": "contract IGauge",
        "numberOfBytes": "20"
      },
      "t_contract(IVault)3811": {
        "encoding": "inplace",
        "label": "contract IVault",
        "numberOfBytes": "20"
      },
      "t_mapping(t_address,t_bool)": {
        "encoding": "mapping",
        "key": "t_address",
        "label": "mapping(address => bool)",
        "numberOfBytes": "32",
        "value": "t_bool"
      },
      "t_mapping(t_bytes32,t_struct(RoleData)34_storage)": {
        "encoding": "mapping",
        "key": "t_bytes32",
        "label": "mapping(bytes32 => struct AccessControlUpgradeable.RoleData)",
        "numberOfBytes": "32",
        "value": "t_struct(RoleData)34_storage"
      },
      "t_struct(RoleData)34_storage": {
        "encoding": "inplace",
        "label": "struct AccessControlUpgradeable.RoleData",
        "members": [
          {
            "astId": 31,
            "contract": "contracts/aeq/StrategyAequinoxBusdUsdcUsdt.sol:StrategyAequinoxBusdUsdcUsdt",
            "label": "members",
            "offset": 0,
            "slot": "0",
            "type": "t_mapping(t_address,t_bool)"
          },
          {
            "astId": 33,
            "contract": "contracts/aeq/StrategyAequinoxBusdUsdcUsdt.sol:StrategyAequinoxBusdUsdcUsdt",
            "label": "adminRole",
            "offset": 0,
            "slot": "1",
            "type": "t_bytes32"
          }
        ],
        "numberOfBytes": "64"
      },
      "t_uint256": {
        "encoding": "inplace",
        "label": "uint256",
        "numberOfBytes": "32"
      },
      "t_uint8": {
        "encoding": "inplace",
        "label": "uint8",
        "numberOfBytes": "1"
      }
    }
  }
}