{
  "address": "0x535e8381B0d61BF4587AB4AC76f40b5820f8E56D",
  "abi": [
    {
      "anonymous": false,
      "inputs": [
        {
          "indexed": true,
          "internalType": "address",
          "name": "previousOwner",
          "type": "address"
        },
        {
          "indexed": true,
          "internalType": "address",
          "name": "newOwner",
          "type": "address"
        }
      ],
      "name": "OwnershipTransferred",
      "type": "event"
    },
    {
      "anonymous": false,
      "inputs": [
        {
          "indexed": false,
          "internalType": "address",
          "name": "a3CrvPriceGetter",
          "type": "address"
        }
      ],
      "name": "UpdatedA3CrvPriceGetter",
      "type": "event"
    },
    {
      "inputs": [],
      "name": "DENOMINATOR",
      "outputs": [
        {
          "internalType": "uint256",
          "name": "",
          "type": "uint256"
        }
      ],
      "stateMutability": "view",
      "type": "function"
    },
    {
      "inputs": [],
      "name": "a3CrvPriceGetter",
      "outputs": [
        {
          "internalType": "contract A3CrvPriceGetter",
          "name": "",
          "type": "address"
        }
      ],
      "stateMutability": "view",
      "type": "function"
    },
    {
      "inputs": [],
      "name": "denominator",
      "outputs": [
        {
          "internalType": "uint256",
          "name": "",
          "type": "uint256"
        }
      ],
      "stateMutability": "view",
      "type": "function"
    },
    {
      "inputs": [],
      "name": "getUsdcBuyPrice",
      "outputs": [
        {
          "internalType": "uint256",
          "name": "",
          "type": "uint256"
        }
      ],
      "stateMutability": "view",
      "type": "function"
    },
    {
      "inputs": [],
      "name": "getUsdcSellPrice",
      "outputs": [
        {
          "internalType": "uint256",
          "name": "",
          "type": "uint256"
        }
      ],
      "stateMutability": "view",
      "type": "function"
    },
    {
      "inputs": [],
      "name": "owner",
      "outputs": [
        {
          "internalType": "address",
          "name": "",
          "type": "address"
        }
      ],
      "stateMutability": "view",
      "type": "function"
    },
    {
      "inputs": [],
      "name": "renounceOwnership",
      "outputs": [],
      "stateMutability": "nonpayable",
      "type": "function"
    },
    {
      "inputs": [
        {
          "internalType": "address",
          "name": "_a3CrvPriceGetter",
          "type": "address"
        }
      ],
      "name": "setA3CrvPriceGetter",
      "outputs": [],
      "stateMutability": "nonpayable",
      "type": "function"
    },
    {
      "inputs": [
        {
          "internalType": "address",
          "name": "newOwner",
          "type": "address"
        }
      ],
      "name": "transferOwnership",
      "outputs": [],
      "stateMutability": "nonpayable",
      "type": "function"
    }
  ],
  "transactionHash": "0xf2a8ea58f97a101651cf60e3de36996868e746d583e530cc386c061abd8fdf48",
  "args": [],
  "solcInputHash": "fe95cbbb2d97e4d95ece85093db98e18",
  "bytecode": "0x608060405234801561001057600080fd5b5061001a3361001f565b61006f565b600080546001600160a01b038381166001600160a01b0319831681178455604051919092169283917f8be0079c531659141344cd1fd0a4f28419497f9722a3daafe3b4186f6b6457e09190a35050565b6104bd8061007e6000396000f3fe608060405234801561001057600080fd5b50600436106100935760003560e01c80638da5cb5b116100665780638da5cb5b146100fb578063918f86741461010c57806396ce07951461011b578063ea24978414610129578063f2fde38b1461013157600080fd5b80632b8455f1146100985780632caa60af146100b35780635d5c3382146100de578063715018a6146100f3575b600080fd5b6100a0610144565b6040519081526020015b60405180910390f35b6001546100c6906001600160a01b031681565b6040516001600160a01b0390911681526020016100aa565b6100f16100ec366004610409565b6101c6565b005b6100f16102a3565b6000546001600160a01b03166100c6565b6100a0670de0b6b3a764000081565b670de0b6b3a76400006100a0565b6100a06102d9565b6100f161013f366004610409565b61031e565b60015460408051632b8455f160e01b815290516000926001600160a01b031691632b8455f1916004808301926020929190829003018186803b15801561018957600080fd5b505afa15801561019d573d6000803e3d6000fd5b505050506040513d601f19601f820116820180604052508101906101c19190610439565b905090565b6000546001600160a01b031633146101f95760405162461bcd60e51b81526004016101f090610452565b60405180910390fd5b6001600160a01b03811661024f5760405162461bcd60e51b815260206004820152601860248201527f5a65726f2061646472657373206e6f7420616c6c6f776564000000000000000060448201526064016101f0565b600180546001600160a01b0319166001600160a01b0383169081179091556040519081527f141c66e26ced3b033749b13f5b0cdef42b6399f107ef096dafff2f23b557ae379060200160405180910390a150565b6000546001600160a01b031633146102cd5760405162461bcd60e51b81526004016101f090610452565b6102d760006103b9565b565b60015460408051633a8925e160e21b815290516000926001600160a01b03169163ea249784916004808301926020929190829003018186803b15801561018957600080fd5b6000546001600160a01b031633146103485760405162461bcd60e51b81526004016101f090610452565b6001600160a01b0381166103ad5760405162461bcd60e51b815260206004820152602660248201527f4f776e61626c653a206e6577206f776e657220697320746865207a65726f206160448201526564647265737360d01b60648201526084016101f0565b6103b6816103b9565b50565b600080546001600160a01b038381166001600160a01b0319831681178455604051919092169283917f8be0079c531659141344cd1fd0a4f28419497f9722a3daafe3b4186f6b6457e09190a35050565b60006020828403121561041b57600080fd5b81356001600160a01b038116811461043257600080fd5b9392505050565b60006020828403121561044b57600080fd5b5051919050565b6020808252818101527f4f776e61626c653a2063616c6c6572206973206e6f7420746865206f776e657260408201526060019056fea2646970667358221220f63b09c414d11ad8fd737eed03c40dc08f27caaed54ccc02b192d21d33d5f4fd64736f6c63430008060033",
  "devdoc": {
    "kind": "dev",
    "methods": {
      "owner()": {
        "details": "Returns the address of the current owner."
      },
      "renounceOwnership()": {
        "details": "Leaves the contract without owner. It will not be possible to call `onlyOwner` functions anymore. Can only be called by the current owner. NOTE: Renouncing ownership will leave the contract without an owner, thereby removing any functionality that is only available to the owner."
      },
      "transferOwnership(address)": {
        "details": "Transfers ownership of the contract to a new account (`newOwner`). Can only be called by the current owner."
      }
    },
    "version": 1
  },
  "userdoc": {
    "kind": "user",
    "methods": {
      "denominator()": {
        "notice": "Denominator for normalization. Default 10**18."
      },
      "getUsdcBuyPrice()": {
        "notice": "Token buy price at USDC. Amount of USDC we should spend to buy one token. Returned value is [USDC/token] Usage: tokenAmount = usdcAmount * denominator() / getUsdcBuyPrice() Normilized to 10**18"
      },
      "getUsdcSellPrice()": {
        "notice": "Token sell price at USDC. Amount of USDC we got if sell one token. Returned value is [USDC/token] Usage: usdcAmount = tokenAmount * getUsdcSellPrice() / denominator() Normilized to 10**18"
      }
    },
    "version": 1
  },
  "storageLayout": {
    "storage": [
      {
        "astId": 4749,
        "contract": "contracts/price_getters/A3CrvGaugePriceGetter.sol:A3CrvGaugePriceGetter",
        "label": "_owner",
        "offset": 0,
        "slot": "0",
        "type": "t_address"
      },
      {
        "astId": 24254,
        "contract": "contracts/price_getters/A3CrvGaugePriceGetter.sol:A3CrvGaugePriceGetter",
        "label": "a3CrvPriceGetter",
        "offset": 0,
        "slot": "1",
        "type": "t_contract(A3CrvPriceGetter)24376"
      }
    ],
    "types": {
      "t_address": {
        "encoding": "inplace",
        "label": "address",
        "numberOfBytes": "20"
      },
      "t_contract(A3CrvPriceGetter)24376": {
        "encoding": "inplace",
        "label": "contract A3CrvPriceGetter",
        "numberOfBytes": "20"
      }
    }
  }
}