{
  "address": "0xC7998aCE498eb987D1Ff625Af7Fb7a0449C1C6EE",
  "abi": [
    {
      "inputs": [
        {
          "internalType": "address",
          "name": "_tokenExchange",
          "type": "address"
        },
        {
          "internalType": "address",
          "name": "_aUsdcToken",
          "type": "address"
        },
        {
          "internalType": "address",
          "name": "_a3CrvToken",
          "type": "address"
        },
        {
          "internalType": "address",
          "name": "_usdc2AUsdcActionBuilder",
          "type": "address"
        },
        {
          "internalType": "address",
          "name": "_a3Crv2A3CrvGaugeActionBuilder",
          "type": "address"
        }
      ],
      "stateMutability": "nonpayable",
      "type": "constructor"
    },
    {
      "inputs": [],
      "name": "a3Crv2A3CrvGaugeActionBuilder",
      "outputs": [
        {
          "internalType": "contract IActionBuilder",
          "name": "",
          "type": "address"
        }
      ],
      "stateMutability": "view",
      "type": "function"
    },
    {
      "inputs": [],
      "name": "a3CrvToken",
      "outputs": [
        {
          "internalType": "contract IERC20",
          "name": "",
          "type": "address"
        }
      ],
      "stateMutability": "view",
      "type": "function"
    },
    {
      "inputs": [],
      "name": "aUsdcToken",
      "outputs": [
        {
          "internalType": "contract IERC20",
          "name": "",
          "type": "address"
        }
      ],
      "stateMutability": "view",
      "type": "function"
    },
    {
      "inputs": [
        {
          "components": [
            {
              "internalType": "address",
              "name": "asset",
              "type": "address"
            },
            {
              "internalType": "int256",
              "name": "diffToTarget",
              "type": "int256"
            },
            {
              "internalType": "bool",
              "name": "targetIsZero",
              "type": "bool"
            }
          ],
          "internalType": "struct IMark2Market.BalanceAssetPrices[]",
          "name": "assetPrices",
          "type": "tuple[]"
        },
        {
          "components": [
            {
              "internalType": "contract ITokenExchange",
              "name": "tokenExchange",
              "type": "address"
            },
            {
              "internalType": "bytes32",
              "name": "code",
              "type": "bytes32"
            },
            {
              "internalType": "contract IERC20",
              "name": "from",
              "type": "address"
            },
            {
              "internalType": "contract IERC20",
              "name": "to",
              "type": "address"
            },
            {
              "internalType": "uint256",
              "name": "amount",
              "type": "uint256"
            },
            {
              "internalType": "bool",
              "name": "exchangeAll",
              "type": "bool"
            },
            {
              "internalType": "bool",
              "name": "executed",
              "type": "bool"
            }
          ],
          "internalType": "struct IActionBuilder.ExchangeAction[]",
          "name": "actions",
          "type": "tuple[]"
        }
      ],
      "name": "buildAction",
      "outputs": [
        {
          "components": [
            {
              "internalType": "contract ITokenExchange",
              "name": "tokenExchange",
              "type": "address"
            },
            {
              "internalType": "bytes32",
              "name": "code",
              "type": "bytes32"
            },
            {
              "internalType": "contract IERC20",
              "name": "from",
              "type": "address"
            },
            {
              "internalType": "contract IERC20",
              "name": "to",
              "type": "address"
            },
            {
              "internalType": "uint256",
              "name": "amount",
              "type": "uint256"
            },
            {
              "internalType": "bool",
              "name": "exchangeAll",
              "type": "bool"
            },
            {
              "internalType": "bool",
              "name": "executed",
              "type": "bool"
            }
          ],
          "internalType": "struct IActionBuilder.ExchangeAction",
          "name": "",
          "type": "tuple"
        }
      ],
      "stateMutability": "view",
      "type": "function"
    },
    {
      "inputs": [],
      "name": "getActionCode",
      "outputs": [
        {
          "internalType": "bytes32",
          "name": "",
          "type": "bytes32"
        }
      ],
      "stateMutability": "pure",
      "type": "function"
    },
    {
      "inputs": [],
      "name": "tokenExchange",
      "outputs": [
        {
          "internalType": "contract ITokenExchange",
          "name": "",
          "type": "address"
        }
      ],
      "stateMutability": "view",
      "type": "function"
    },
    {
      "inputs": [],
      "name": "usdc2AUsdcActionBuilder",
      "outputs": [
        {
          "internalType": "contract IActionBuilder",
          "name": "",
          "type": "address"
        }
      ],
      "stateMutability": "view",
      "type": "function"
    }
  ],
  "transactionHash": "0xb43c3d471ee2c64a0af968b2fb67bbed466ae0542ed6c805c5227e64572253bf",
  "args": [
    "0x51530B14b2952B8330041F3e3650bE136fa33F6f",
    "0x1a13F4Ca1d028320A707D99520AbFefca3998b7F",
    "0xE7a24EF0C5e95Ffb0f6684b813A78F2a3AD7D171",
    "0x4B4384C4E28628990445eA4Be1778fC45C3dAC48",
    "0xa3D04A02AEDdbBd80AaFABc26389aFF4bb791976"
  ],
  "solcInputHash": "fe95cbbb2d97e4d95ece85093db98e18",
  "bytecode": "0x60806040523480156200001157600080fd5b5060405162000da738038062000da783398101604081905262000034916200021b565b6001600160a01b0385166200007f5760405162461bcd60e51b8152602060048201526018602482015260008051602062000d8783398151915260448201526064015b60405180910390fd5b6001600160a01b038416620000c65760405162461bcd60e51b8152602060048201526018602482015260008051602062000d87833981519152604482015260640162000076565b6001600160a01b0383166200010d5760405162461bcd60e51b8152602060048201526018602482015260008051602062000d87833981519152604482015260640162000076565b6001600160a01b038216620001545760405162461bcd60e51b8152602060048201526018602482015260008051602062000d87833981519152604482015260640162000076565b6001600160a01b0381166200019b5760405162461bcd60e51b8152602060048201526018602482015260008051602062000d87833981519152604482015260640162000076565b600080546001600160a01b03199081166001600160a01b039788161790915560018054821695871695909517909455600280548516938616939093179092556003805484169185169190911790556004805490921692169190911790556200028b565b80516001600160a01b03811681146200021657600080fd5b919050565b600080600080600060a086880312156200023457600080fd5b6200023f86620001fe565b94506200024f60208701620001fe565b93506200025f60408701620001fe565b92506200026f60608701620001fe565b91506200027f60808701620001fe565b90509295509295909350565b610aec806200029b6000396000f3fe608060405234801561001057600080fd5b506004361061007d5760003560e01c8063636f61591161005b578063636f6159146100f35780637045352f1461010657806383909eeb1461017e578063cc3d6cf71461019157600080fd5b806310c38a761461008257806318ad3088146100b25780632d864752146100e0575b600080fd5b600454610095906001600160a01b031681565b6040516001600160a01b0390911681526020015b60405180910390f35b6040517fc1be4323348a37ae69ece55f3e69ca17827a2e81977d80591ce3d28155a4296a81526020016100a9565b600254610095906001600160a01b031681565b600054610095906001600160a01b031681565b610119610114366004610828565b6101a4565b6040516100a9919081516001600160a01b03908116825260208084015190830152604080840151821690830152606080840151909116908201526080808301519082015260a08281015115159082015260c09182015115159181019190915260e00190565b600354610095906001600160a01b031681565b600154610095906001600160a01b031681565b6101ac6106e1565b60408051606080820183526000808352602080840182905283850182905284519283018552818352820181905292810183905290915b85518160ff1610156102c65760015486516001600160a01b0390911690879060ff841690811061021457610214610a72565b6020026020010151600001516001600160a01b0316141561025357858160ff168151811061024457610244610a72565b602002602001015192506102b4565b60025486516001600160a01b0390911690879060ff841690811061027957610279610a72565b6020026020010151600001516001600160a01b031614156102b457858160ff16815181106102a9576102a9610a72565b602002602001015191505b806102be81610a1f565b9150506101e2565b506102cf6106e1565b6102d76106e1565b60008060005b88518160ff16101561049557600360009054906101000a90046001600160a01b03166001600160a01b03166318ad30886040518163ffffffff1660e01b815260040160206040518083038186803b15801561033757600080fd5b505afa15801561034b573d6000803e3d6000fd5b505050506040513d601f19601f8201168201806040525081019061036f9190610926565b898260ff168151811061038457610384610a72565b60200260200101516020015114156103be57888160ff16815181106103ab576103ab610a72565b6020026020010151945060019250610483565b6004805460408051630315a61160e31b815290516001600160a01b03909216926318ad3088928282019260209290829003018186803b15801561040057600080fd5b505afa158015610414573d6000803e3d6000fd5b505050506040513d601f19601f820116820180604052508101906104389190610926565b898260ff168151811061044d5761044d610a72565b602002602001015160200151141561048357888160ff168151811061047457610474610a72565b60200260200101519350600191505b8061048d81610a1f565b9150506102dd565b50816105275760405162461bcd60e51b815260206004820152605060248201527f55736463324155736463416374696f6e4275696c6465723a205265717569726560448201527f6420616374696f6e206e6f7420696e20616374696f6e206c6973742c2063686560648201526f636b2063616c63206f72646572696e6760801b608482015260a4015b60405180910390fd5b806105b95760405162461bcd60e51b815260206004820152605660248201527f41334372763241334372764761756765416374696f6e4275696c6465723a205260448201527f6571756972656420616374696f6e206e6f7420696e20616374696f6e206c6973606482015275742c20636865636b2063616c63206f72646572696e6760501b608482015260a40161051e565b606084015160015460009182918291829182916001600160a01b03918216911614156106185788608001518b602001516105f391906109e0565b60015460025460408e01519297506001600160a01b039182169550169250905061064d565b87608001518a6020015161062c91906109e0565b60025460015460408d01519297506001600160a01b03918216955016925090505b60008512156106665761065f85610a3f565b935061066a565b8493505b6040805160e081018252600080546001600160a01b0390811683527fc1be4323348a37ae69ece55f3e69ca17827a2e81977d80591ce3d28155a4296a602084015295861692820192909252929093166060830152608082019390935291151560a083015260c08201529a9950505050505050505050565b6040805160e081018252600080825260208201819052918101829052606081018290526080810182905260a0810182905260c081019190915290565b600082601f83011261072e57600080fd5b8135602061074361073e836109bc565b61098b565b8281528181019085830160e08086028801850189101561076257600080fd5b6000805b878110156107f95782848c03121561077c578182fd5b61078461093f565b843561078f81610a9e565b8152848801358882015260406107a681870161081d565b9082015260606107b786820161081d565b908201526080858101359082015260a06107d2818701610808565b9082015260c06107e3868201610808565b9082015286529486019492820192600101610766565b50929998505050505050505050565b8035801515811461081857600080fd5b919050565b803561081881610a9e565b600080604080848603121561083c57600080fd5b833567ffffffffffffffff8082111561085457600080fd5b818601915086601f83011261086857600080fd5b8135602061087861073e836109bc565b828152818101908583016060808602880185018d101561089757600080fd5b600097505b858810156108f55780828e0312156108b357600080fd5b6108bb610968565b82356108c681610a9e565b815282860135868201526108db8a8401610808565b818b0152845260019790970196928401929081019061089c565b5090985050508701359350508083111561090e57600080fd5b505061091c8582860161071d565b9150509250929050565b60006020828403121561093857600080fd5b5051919050565b60405160e0810167ffffffffffffffff8111828210171561096257610962610a88565b60405290565b6040516060810167ffffffffffffffff8111828210171561096257610962610a88565b604051601f8201601f1916810167ffffffffffffffff811182821017156109b4576109b4610a88565b604052919050565b600067ffffffffffffffff8211156109d6576109d6610a88565b5060051b60200190565b60008083128015600160ff1b8501841216156109fe576109fe610a5c565b6001600160ff1b0384018313811615610a1957610a19610a5c565b50500390565b600060ff821660ff811415610a3657610a36610a5c565b60010192915050565b6000600160ff1b821415610a5557610a55610a5c565b5060000390565b634e487b7160e01b600052601160045260246000fd5b634e487b7160e01b600052603260045260246000fd5b634e487b7160e01b600052604160045260246000fd5b6001600160a01b0381168114610ab357600080fd5b5056fea2646970667358221220602a7aad788dc0a238202c8739f70aba24ee8cd9debbf298b48382874985930264736f6c634300080600335a65726f2061646472657373206e6f7420616c6c6f7765640000000000000000",
  "devdoc": {
    "kind": "dev",
    "methods": {},
    "version": 1
  },
  "userdoc": {
    "kind": "user",
    "methods": {},
    "version": 1
  },
  "storageLayout": {
    "storage": [
      {
        "astId": 17630,
        "contract": "contracts/action_builders/AUsdc2A3CrvActionBuilder.sol:AUsdc2A3CrvActionBuilder",
        "label": "tokenExchange",
        "offset": 0,
        "slot": "0",
        "type": "t_contract(ITokenExchange)23930"
      },
      {
        "astId": 17633,
        "contract": "contracts/action_builders/AUsdc2A3CrvActionBuilder.sol:AUsdc2A3CrvActionBuilder",
        "label": "aUsdcToken",
        "offset": 0,
        "slot": "1",
        "type": "t_contract(IERC20)9027"
      },
      {
        "astId": 17636,
        "contract": "contracts/action_builders/AUsdc2A3CrvActionBuilder.sol:AUsdc2A3CrvActionBuilder",
        "label": "a3CrvToken",
        "offset": 0,
        "slot": "2",
        "type": "t_contract(IERC20)9027"
      },
      {
        "astId": 17639,
        "contract": "contracts/action_builders/AUsdc2A3CrvActionBuilder.sol:AUsdc2A3CrvActionBuilder",
        "label": "usdc2AUsdcActionBuilder",
        "offset": 0,
        "slot": "3",
        "type": "t_contract(IActionBuilder)23756"
      },
      {
        "astId": 17642,
        "contract": "contracts/action_builders/AUsdc2A3CrvActionBuilder.sol:AUsdc2A3CrvActionBuilder",
        "label": "a3Crv2A3CrvGaugeActionBuilder",
        "offset": 0,
        "slot": "4",
        "type": "t_contract(IActionBuilder)23756"
      }
    ],
    "types": {
      "t_contract(IActionBuilder)23756": {
        "encoding": "inplace",
        "label": "contract IActionBuilder",
        "numberOfBytes": "20"
      },
      "t_contract(IERC20)9027": {
        "encoding": "inplace",
        "label": "contract IERC20",
        "numberOfBytes": "20"
      },
      "t_contract(ITokenExchange)23930": {
        "encoding": "inplace",
        "label": "contract ITokenExchange",
        "numberOfBytes": "20"
      }
    }
  }
}