{
  "address": "0x9D430C0A05da519335ee022ECF8f7690F1d402Ba",
  "abi": [
    {
      "anonymous": false,
      "inputs": [
        {
          "indexed": true,
          "internalType": "address",
          "name": "previousOwner",
          "type": "address"
        },
        {
          "indexed": true,
          "internalType": "address",
          "name": "newOwner",
          "type": "address"
        }
      ],
      "name": "OwnershipTransferred",
      "type": "event"
    },
    {
      "anonymous": false,
      "inputs": [
        {
          "indexed": false,
          "internalType": "address",
          "name": "lpap",
          "type": "address"
        }
      ],
      "name": "UpdatedLpap",
      "type": "event"
    },
    {
      "inputs": [],
      "name": "lpap",
      "outputs": [
        {
          "internalType": "contract ILendingPoolAddressesProvider",
          "name": "",
          "type": "address"
        }
      ],
      "stateMutability": "view",
      "type": "function"
    },
    {
      "inputs": [],
      "name": "owner",
      "outputs": [
        {
          "internalType": "address",
          "name": "",
          "type": "address"
        }
      ],
      "stateMutability": "view",
      "type": "function"
    },
    {
      "inputs": [],
      "name": "renounceOwnership",
      "outputs": [],
      "stateMutability": "nonpayable",
      "type": "function"
    },
    {
      "inputs": [
        {
          "internalType": "address",
          "name": "_lpap",
          "type": "address"
        }
      ],
      "name": "setLpap",
      "outputs": [],
      "stateMutability": "nonpayable",
      "type": "function"
    },
    {
      "inputs": [
        {
          "internalType": "address",
          "name": "_asset",
          "type": "address"
        },
        {
          "internalType": "uint256",
          "name": "_amount",
          "type": "uint256"
        },
        {
          "internalType": "address",
          "name": "_beneficiar",
          "type": "address"
        }
      ],
      "name": "stake",
      "outputs": [],
      "stateMutability": "nonpayable",
      "type": "function"
    },
    {
      "inputs": [
        {
          "internalType": "address",
          "name": "newOwner",
          "type": "address"
        }
      ],
      "name": "transferOwnership",
      "outputs": [],
      "stateMutability": "nonpayable",
      "type": "function"
    },
    {
      "inputs": [
        {
          "internalType": "address",
          "name": "_asset",
          "type": "address"
        },
        {
          "internalType": "uint256",
          "name": "_amount",
          "type": "uint256"
        },
        {
          "internalType": "address",
          "name": "_to",
          "type": "address"
        }
      ],
      "name": "unstake",
      "outputs": [
        {
          "internalType": "uint256",
          "name": "",
          "type": "uint256"
        }
      ],
      "stateMutability": "nonpayable",
      "type": "function"
    }
  ],
  "transactionHash": "0x61b7ae0adac46f848e7edd07b3a02801fc294339f5d9b1be0a931603459a9f6e",
  "args": [],
  "solcInputHash": "5940fe62ab9ebf2b846c1724dc847104",
  "bytecode": "0x608060405234801561001057600080fd5b5061001a3361001f565b61006f565b600080546001600160a01b038381166001600160a01b0319831681178455604051919092169283917f8be0079c531659141344cd1fd0a4f28419497f9722a3daafe3b4186f6b6457e09190a35050565b610a548061007e6000396000f3fe608060405234801561001057600080fd5b506004361061007d5760003560e01c8063818352741161005b57806381835274146100cf5780638da5cb5b146100e2578063926e31d6146100f3578063f2fde38b1461011457600080fd5b8063294091cd146100825780635773814d14610097578063715018a6146100c7575b600080fd5b610095610090366004610832565b610127565b005b6001546100aa906001600160a01b031681565b6040516001600160a01b0390911681526020015b60405180910390f35b6100956102a2565b6100956100dd3660046107f1565b6102e1565b6000546001600160a01b03166100aa565b610106610101366004610832565b6103b5565b6040519081526020016100be565b6100956101223660046107f1565b610660565b60015460408051630261bf8b60e01b815290516000926001600160a01b031691630261bf8b916004808301926020929190829003018186803b15801561016c57600080fd5b505afa158015610180573d6000803e3d6000fd5b505050506040513d601f19601f820116820180604052508101906101a49190610815565b60405163095ea7b360e01b81526001600160a01b038083166004830152602482018690529192509085169063095ea7b390604401602060405180830381600087803b1580156101f257600080fd5b505af1158015610206573d6000803e3d6000fd5b505050506040513d601f19601f8201168201806040525081019061022a9190610874565b5060405163e8eda9df60e01b81526001600160a01b0385811660048301526024820185905283811660448301526000606483015282169063e8eda9df90608401600060405180830381600087803b15801561028457600080fd5b505af1158015610298573d6000803e3d6000fd5b5050505050505050565b6000546001600160a01b031633146102d55760405162461bcd60e51b81526004016102cc9061099c565b60405180910390fd5b6102df60006106fb565b565b6000546001600160a01b0316331461030b5760405162461bcd60e51b81526004016102cc9061099c565b6001600160a01b0381166103615760405162461bcd60e51b815260206004820152601860248201527f5a65726f2061646472657373206e6f7420616c6c6f776564000000000000000060448201526064016102cc565b600180546001600160a01b0319166001600160a01b0383169081179091556040519081527fd06642067d87c2a7a28522ac65f5905774de7e1adaac6f856e4aaec37a07d9689060200160405180910390a150565b600080600160009054906101000a90046001600160a01b03166001600160a01b0316630261bf8b6040518163ffffffff1660e01b815260040160206040518083038186803b15801561040657600080fd5b505afa15801561041a573d6000803e3d6000fd5b505050506040513d601f19601f8201168201806040525081019061043e9190610815565b604051631a4ca37b60e21b81526001600160a01b0387811660048301526024820187905285811660448301529192506000918316906369328dec90606401602060405180830381600087803b15801561049657600080fd5b505af11580156104aa573d6000803e3d6000fd5b505050506040513d601f19601f820116820180604052508101906104ce9190610983565b6040516335ea6a7560e01b81526001600160a01b0388811660048301529192506000918416906335ea6a75906024016101806040518083038186803b15801561051657600080fd5b505afa15801561052a573d6000803e3d6000fd5b505050506040513d601f19601f8201168201806040525081019061054e9190610896565b60e08101516040516370a0823160e01b81523060048201529192506001600160a01b03169063a9059cbb90339083906370a082319060240160206040518083038186803b15801561059e57600080fd5b505afa1580156105b2573d6000803e3d6000fd5b505050506040513d601f19601f820116820180604052508101906105d69190610983565b6040516001600160e01b031960e085901b1681526001600160a01b0390921660048301526024820152604401602060405180830381600087803b15801561061c57600080fd5b505af1158015610630573d6000803e3d6000fd5b505050506040513d601f19601f820116820180604052508101906106549190610874565b50909695505050505050565b6000546001600160a01b0316331461068a5760405162461bcd60e51b81526004016102cc9061099c565b6001600160a01b0381166106ef5760405162461bcd60e51b815260206004820152602660248201527f4f776e61626c653a206e6577206f776e657220697320746865207a65726f206160448201526564647265737360d01b60648201526084016102cc565b6106f8816106fb565b50565b600080546001600160a01b038381166001600160a01b0319831681178455604051919092169283917f8be0079c531659141344cd1fd0a4f28419497f9722a3daafe3b4186f6b6457e09190a35050565b805161075681610a09565b919050565b60006020828403121561076d57600080fd5b6040516020810181811067ffffffffffffffff8211171561079e57634e487b7160e01b600052604160045260246000fd5b6040529151825250919050565b80516fffffffffffffffffffffffffffffffff8116811461075657600080fd5b805164ffffffffff8116811461075657600080fd5b805160ff8116811461075657600080fd5b60006020828403121561080357600080fd5b813561080e81610a09565b9392505050565b60006020828403121561082757600080fd5b815161080e81610a09565b60008060006060848603121561084757600080fd5b833561085281610a09565b925060208401359150604084013561086981610a09565b809150509250925092565b60006020828403121561088657600080fd5b8151801515811461080e57600080fd5b600061018082840312156108a957600080fd5b6108b16109d1565b6108bb848461075b565b81526108c9602084016107ab565b60208201526108da604084016107ab565b60408201526108eb606084016107ab565b60608201526108fc608084016107ab565b608082015261090d60a084016107ab565b60a082015261091e60c084016107cb565b60c082015261092f60e0840161074b565b60e082015261010061094281850161074b565b9082015261012061095484820161074b565b9082015261014061096684820161074b565b908201526101606109788482016107e0565b908201529392505050565b60006020828403121561099557600080fd5b5051919050565b6020808252818101527f4f776e61626c653a2063616c6c6572206973206e6f7420746865206f776e6572604082015260600190565b604051610180810167ffffffffffffffff81118282101715610a0357634e487b7160e01b600052604160045260246000fd5b60405290565b6001600160a01b03811681146106f857600080fdfea26469706673582212205d7ca9e4c8591b5d5fa6c83c6f8ac553539711f6ccbdb9243880987a17bd308264736f6c63430008060033",
  "devdoc": {
    "kind": "dev",
    "methods": {
      "owner()": {
        "details": "Returns the address of the current owner."
      },
      "renounceOwnership()": {
        "details": "Leaves the contract without owner. It will not be possible to call `onlyOwner` functions anymore. Can only be called by the current owner. NOTE: Renouncing ownership will leave the contract without an owner, thereby removing any functionality that is only available to the owner."
      },
      "transferOwnership(address)": {
        "details": "Transfers ownership of the contract to a new account (`newOwner`). Can only be called by the current owner."
      }
    },
    "version": 1
  },
  "userdoc": {
    "kind": "user",
    "methods": {},
    "version": 1
  },
  "storageLayout": {
    "storage": [
      {
        "astId": 389,
        "contract": "contracts/connectors/ConnectorAAVE.sol:ConnectorAAVE",
        "label": "_owner",
        "offset": 0,
        "slot": "0",
        "type": "t_address"
      },
      {
        "astId": 7164,
        "contract": "contracts/connectors/ConnectorAAVE.sol:ConnectorAAVE",
        "label": "lpap",
        "offset": 0,
        "slot": "1",
        "type": "t_contract(ILendingPoolAddressesProvider)8477"
      }
    ],
    "types": {
      "t_address": {
        "encoding": "inplace",
        "label": "address",
        "numberOfBytes": "20"
      },
      "t_contract(ILendingPoolAddressesProvider)8477": {
        "encoding": "inplace",
        "label": "contract ILendingPoolAddressesProvider",
        "numberOfBytes": "20"
      }
    }
  }
}