{
  "address": "0xE090BccbfD5BbB5432Aee93D82EF55fcDE88e49e",
  "abi": [
    {
      "inputs": [
        {
          "internalType": "address",
          "name": "_balancerVault",
          "type": "address"
        },
        {
          "internalType": "address",
          "name": "_usdcToken",
          "type": "address"
        },
        {
          "internalType": "address",
          "name": "_wmaticToken",
          "type": "address"
        },
        {
          "internalType": "address",
          "name": "_mtaToken",
          "type": "address"
        },
        {
          "internalType": "address",
          "name": "_balancerPool1",
          "type": "address"
        },
        {
          "internalType": "address",
          "name": "_balancerPool2",
          "type": "address"
        },
        {
          "internalType": "bytes32",
          "name": "_balancerPoolId1",
          "type": "bytes32"
        },
        {
          "internalType": "bytes32",
          "name": "_balancerPoolId2",
          "type": "bytes32"
        }
      ],
      "stateMutability": "nonpayable",
      "type": "constructor"
    },
    {
      "inputs": [],
      "name": "DENOMINATOR",
      "outputs": [
        {
          "internalType": "uint256",
          "name": "",
          "type": "uint256"
        }
      ],
      "stateMutability": "view",
      "type": "function"
    },
    {
      "inputs": [],
      "name": "balancerPool1",
      "outputs": [
        {
          "internalType": "contract IMinimalSwapInfoPool",
          "name": "",
          "type": "address"
        }
      ],
      "stateMutability": "view",
      "type": "function"
    },
    {
      "inputs": [],
      "name": "balancerPool2",
      "outputs": [
        {
          "internalType": "contract IMinimalSwapInfoPool",
          "name": "",
          "type": "address"
        }
      ],
      "stateMutability": "view",
      "type": "function"
    },
    {
      "inputs": [],
      "name": "balancerPoolId1",
      "outputs": [
        {
          "internalType": "bytes32",
          "name": "",
          "type": "bytes32"
        }
      ],
      "stateMutability": "view",
      "type": "function"
    },
    {
      "inputs": [],
      "name": "balancerPoolId2",
      "outputs": [
        {
          "internalType": "bytes32",
          "name": "",
          "type": "bytes32"
        }
      ],
      "stateMutability": "view",
      "type": "function"
    },
    {
      "inputs": [],
      "name": "balancerVault",
      "outputs": [
        {
          "internalType": "contract IVault",
          "name": "",
          "type": "address"
        }
      ],
      "stateMutability": "view",
      "type": "function"
    },
    {
      "inputs": [],
      "name": "denominator",
      "outputs": [
        {
          "internalType": "uint256",
          "name": "",
          "type": "uint256"
        }
      ],
      "stateMutability": "view",
      "type": "function"
    },
    {
      "inputs": [],
      "name": "getUsdcBuyPrice",
      "outputs": [
        {
          "internalType": "uint256",
          "name": "",
          "type": "uint256"
        }
      ],
      "stateMutability": "view",
      "type": "function"
    },
    {
      "inputs": [],
      "name": "getUsdcSellPrice",
      "outputs": [
        {
          "internalType": "uint256",
          "name": "",
          "type": "uint256"
        }
      ],
      "stateMutability": "view",
      "type": "function"
    },
    {
      "inputs": [],
      "name": "mtaToken",
      "outputs": [
        {
          "internalType": "contract IERC20",
          "name": "",
          "type": "address"
        }
      ],
      "stateMutability": "view",
      "type": "function"
    },
    {
      "inputs": [],
      "name": "usdcToken",
      "outputs": [
        {
          "internalType": "contract IERC20",
          "name": "",
          "type": "address"
        }
      ],
      "stateMutability": "view",
      "type": "function"
    },
    {
      "inputs": [],
      "name": "wmaticToken",
      "outputs": [
        {
          "internalType": "contract IERC20",
          "name": "",
          "type": "address"
        }
      ],
      "stateMutability": "view",
      "type": "function"
    }
  ],
  "transactionHash": "0x6445ba7da0ab54b2ec3ded6f9b2db285c879cc4ee30d59cab792ae7c0f1018da",
  "args": [
    "0xBA12222222228d8Ba445958a75a0704d566BF2C8",
    "0x2791bca1f2de4661ed88a30c99a7a9449aa84174",
    "0x0d500B1d8E8eF31E21C99d1Db9A6444d3ADf1270",
    "0xf501dd45a1198c2e1b5aef5314a68b9006d842e0",
    "0x614b5038611729ed49e0dED154d8A5d3AF9D1D9E",
    "0x0297e37f1873D2DAb4487Aa67cD56B58E2F27875",
    "0x614b5038611729ed49e0ded154d8a5d3af9d1d9e00010000000000000000001d",
    "0x0297e37f1873d2dab4487aa67cd56b58e2f27875000100000000000000000002"
  ],
  "solcInputHash": "fe95cbbb2d97e4d95ece85093db98e18",
  "bytecode": "0x60806040523480156200001157600080fd5b5060405162000c9a38038062000c9a83398101604081905262000034916200031b565b6001600160a01b0388166200007f5760405162461bcd60e51b8152602060048201526018602482015260008051602062000c7a83398151915260448201526064015b60405180910390fd5b6001600160a01b038716620000c65760405162461bcd60e51b8152602060048201526018602482015260008051602062000c7a833981519152604482015260640162000076565b6001600160a01b0386166200010d5760405162461bcd60e51b8152602060048201526018602482015260008051602062000c7a833981519152604482015260640162000076565b6001600160a01b038516620001545760405162461bcd60e51b8152602060048201526018602482015260008051602062000c7a833981519152604482015260640162000076565b6001600160a01b0384166200019b5760405162461bcd60e51b8152602060048201526018602482015260008051602062000c7a833981519152604482015260640162000076565b6001600160a01b038316620001e25760405162461bcd60e51b8152602060048201526018602482015260008051602062000c7a833981519152604482015260640162000076565b81620002315760405162461bcd60e51b815260206004820152601960248201527f456d70747920706f6f6c206964206e6f7420616c6c6f77656400000000000000604482015260640162000076565b80620002805760405162461bcd60e51b815260206004820152601960248201527f456d70747920706f6f6c206964206e6f7420616c6c6f77656400000000000000604482015260640162000076565b600080546001600160a01b03199081166001600160a01b039a8b1617909155600180548216988a169890981790975560028054881696891696909617909555600380548716948816949094179093556004805486169287169290921790915560058054909416941693909317909155600691909155600755620003b0565b80516001600160a01b03811681146200031657600080fd5b919050565b600080600080600080600080610100898b0312156200033957600080fd5b6200034489620002fe565b97506200035460208a01620002fe565b96506200036460408a01620002fe565b95506200037460608a01620002fe565b94506200038460808a01620002fe565b93506200039460a08a01620002fe565b60c08a015160e0909a0151989b979a5095989497939692505050565b6108ba80620003c06000396000f3fe608060405234801561001057600080fd5b50600436106100b35760003560e01c8063918f867411610071578063918f86741461014057806396ce07951461014f5780639de3c8271461015d578063abf4be0114610170578063ea24978414610183578063fddf5af81461018b57600080fd5b8062a6a4d6146100b857806311eac855146100e8578063158274a5146100fb5780632b8455f11461010e5780632bb20a3514610124578063372889a51461012d575b600080fd5b6005546100cb906001600160a01b031681565b6040516001600160a01b0390911681526020015b60405180910390f35b6001546100cb906001600160a01b031681565b6000546100cb906001600160a01b031681565b610116610194565b6040519081526020016100df565b61011660075481565b6004546100cb906001600160a01b031681565b610116670de0b6b3a764000081565b670de0b6b3a7640000610116565b6003546100cb906001600160a01b031681565b6002546100cb906001600160a01b031681565b610116610214565b61011660065481565b600454600654600354600254600093670de0b6b3a76400009385936101cb936001600160a01b039384169386928116911687610277565b6005546007546002546001549394506000936101fb936001600160a01b0390811693928692908216911687610277565b905061020c8164e8d4a510006107ed565b935050505090565b600454600654600254600354600093670de0b6b3a764000093859361024c936001600160a01b03938416936001928116911687610277565b600554600754600180546002549495506000946101fb946001600160a01b0390811694939281169116875b60008054604051631f29a8cd60e31b8152600481018890528291829182916001600160a01b03169063f94d46689060240160006040518083038186803b1580156102c057600080fd5b505afa1580156102d4573d6000803e3d6000fd5b505050506040513d6000823e601f3d908101601f191682016040526102fc9190810190610568565b92509250925060008060005b85518160ff1610156103d657896001600160a01b0316868260ff168151811061033357610333610858565b60200260200101516001600160a01b0316141561036e57848160ff168151811061035f5761035f610858565b602002602001015192506103c4565b886001600160a01b0316868260ff168151811061038d5761038d610858565b60200260200101516001600160a01b031614156103c457848160ff16815181106103b9576103b9610858565b602002602001015191505b806103ce8161080c565b915050610308565b50604080516101208101825260008082526020820181905291810182905260608082018390526080820183905260a0820183905260c0820183905260e0820192909252610100810191909152808b600181111561043557610435610842565b9081600181111561044857610448610842565b9052506001600160a01b03808b166020830152898116604080840191909152606083018a90525163274b044360e21b8152908e1690639d2c110c90610495908490879087906004016106d1565b60206040518083038186803b1580156104ad57600080fd5b505afa1580156104c1573d6000803e3d6000fd5b505050506040513d601f19601f820116820180604052508101906104e59190610649565b9d9c50505050505050505050505050565b600082601f83011261050757600080fd5b8151602061051c610517836107c9565b610798565b80838252828201915082860187848660051b890101111561053c57600080fd5b60005b8581101561055b5781518452928401929084019060010161053f565b5090979650505050505050565b60008060006060848603121561057d57600080fd5b835167ffffffffffffffff8082111561059557600080fd5b818601915086601f8301126105a957600080fd5b815160206105b9610517836107c9565b8083825282820191508286018b848660051b89010111156105d957600080fd5b600096505b848710156106115780516001600160a01b03811681146105fd57600080fd5b8352600196909601959183019183016105de565b509189015191975090935050508082111561062b57600080fd5b50610638868287016104f6565b925050604084015190509250925092565b60006020828403121561065b57600080fd5b5051919050565b6000815180845260005b818110156106885760208185018101518683018201520161066c565b8181111561069a576000602083870101525b50601f01601f19169290920160200192915050565b600281106106cd57634e487b7160e01b600052602160045260246000fd5b9052565b606081526106e36060820185516106af565b600060208501516106ff60808401826001600160a01b03169052565b5060408501516001600160a01b03811660a084015250606085015160c0830152608085015160e083015260a0850151610100818185015260c08701519150610120610754818601846001600160a01b03169052565b60e08801516001600160a01b0316610140860152908701516101608501919091529050610785610180840182610662565b6020840195909552505060400152919050565b604051601f8201601f1916810167ffffffffffffffff811182821017156107c1576107c161086e565b604052919050565b600067ffffffffffffffff8211156107e3576107e361086e565b5060051b60200190565b60008160001904831182151516156108075761080761082c565b500290565b600060ff821660ff8114156108235761082361082c565b60010192915050565b634e487b7160e01b600052601160045260246000fd5b634e487b7160e01b600052602160045260246000fd5b634e487b7160e01b600052603260045260246000fd5b634e487b7160e01b600052604160045260246000fdfea264697066735822122063179034e58f2427aa51995548c753ac4971995a8ed3265d58fdf62fd9632f2964736f6c634300080600335a65726f2061646472657373206e6f7420616c6c6f7765640000000000000000",
  "devdoc": {
    "kind": "dev",
    "methods": {},
    "version": 1
  },
  "userdoc": {
    "kind": "user",
    "methods": {
      "denominator()": {
        "notice": "Denominator for normalization. Default 10**18."
      },
      "getUsdcBuyPrice()": {
        "notice": "Token buy price at USDC. Amount of USDC we should spend to buy one token. Returned value is [USDC/token] Usage: tokenAmount = usdcAmount * denominator() / getUsdcBuyPrice() Normilized to 10**18"
      },
      "getUsdcSellPrice()": {
        "notice": "Token sell price at USDC. Amount of USDC we got if sell one token. Returned value is [USDC/token] Usage: usdcAmount = tokenAmount * getUsdcSellPrice() / denominator() Normilized to 10**18"
      }
    },
    "version": 1
  },
  "storageLayout": {
    "storage": [
      {
        "astId": 24725,
        "contract": "contracts/price_getters/MtaPriceGetter.sol:MtaPriceGetter",
        "label": "balancerVault",
        "offset": 0,
        "slot": "0",
        "type": "t_contract(IVault)21840"
      },
      {
        "astId": 24728,
        "contract": "contracts/price_getters/MtaPriceGetter.sol:MtaPriceGetter",
        "label": "usdcToken",
        "offset": 0,
        "slot": "1",
        "type": "t_contract(IERC20)9027"
      },
      {
        "astId": 24731,
        "contract": "contracts/price_getters/MtaPriceGetter.sol:MtaPriceGetter",
        "label": "wmaticToken",
        "offset": 0,
        "slot": "2",
        "type": "t_contract(IERC20)9027"
      },
      {
        "astId": 24734,
        "contract": "contracts/price_getters/MtaPriceGetter.sol:MtaPriceGetter",
        "label": "mtaToken",
        "offset": 0,
        "slot": "3",
        "type": "t_contract(IERC20)9027"
      },
      {
        "astId": 24737,
        "contract": "contracts/price_getters/MtaPriceGetter.sol:MtaPriceGetter",
        "label": "balancerPool1",
        "offset": 0,
        "slot": "4",
        "type": "t_contract(IMinimalSwapInfoPool)21693"
      },
      {
        "astId": 24740,
        "contract": "contracts/price_getters/MtaPriceGetter.sol:MtaPriceGetter",
        "label": "balancerPool2",
        "offset": 0,
        "slot": "5",
        "type": "t_contract(IMinimalSwapInfoPool)21693"
      },
      {
        "astId": 24742,
        "contract": "contracts/price_getters/MtaPriceGetter.sol:MtaPriceGetter",
        "label": "balancerPoolId1",
        "offset": 0,
        "slot": "6",
        "type": "t_bytes32"
      },
      {
        "astId": 24744,
        "contract": "contracts/price_getters/MtaPriceGetter.sol:MtaPriceGetter",
        "label": "balancerPoolId2",
        "offset": 0,
        "slot": "7",
        "type": "t_bytes32"
      }
    ],
    "types": {
      "t_bytes32": {
        "encoding": "inplace",
        "label": "bytes32",
        "numberOfBytes": "32"
      },
      "t_contract(IERC20)9027": {
        "encoding": "inplace",
        "label": "contract IERC20",
        "numberOfBytes": "20"
      },
      "t_contract(IMinimalSwapInfoPool)21693": {
        "encoding": "inplace",
        "label": "contract IMinimalSwapInfoPool",
        "numberOfBytes": "20"
      },
      "t_contract(IVault)21840": {
        "encoding": "inplace",
        "label": "contract IVault",
        "numberOfBytes": "20"
      }
    }
  }
}