{
  "address": "0xb0C5eB4bEE6f70Ff1c7166310311dABb8D56151c",
  "abi": [
    {
      "inputs": [
        {
          "internalType": "contract IDystopiaRouter",
          "name": "dystRouter",
          "type": "IDystopiaRouter"
        },
        {
          "internalType": "address",
          "name": "inputToken",
          "type": "address"
        },
        {
          "internalType": "address",
          "name": "middleToken",
          "type": "address"
        },
        {
          "internalType": "address",
          "name": "outputToken",
          "type": "address"
        },
        {
          "internalType": "bool",
          "name": "isStablePair0",
          "type": "bool"
        },
        {
          "internalType": "bool",
          "name": "isStablePair1",
          "type": "bool"
        },
        {
          "internalType": "uint256",
          "name": "amountInput",
          "type": "uint256"
        }
      ],
      "name": "_getAmountsOut",
      "outputs": [
        {
          "internalType": "uint256",
          "name": "",
          "type": "uint256"
        }
      ],
      "stateMutability": "view",
      "type": "function"
    }
  ],
  "transactionHash": "0xc1dd5d1b37be7ee72e3653d21387a29c20766900ecee68af4620bd21a938c66a",
  "args": [],
  "numDeployments": 1,
  "solcInputHash": "70b22e9ce485683d22fb1181406210d7",
  "bytecode": "0x610e4c61003a600b82828239805160001a60731461002d57634e487b7160e01b600052600060045260246000fd5b30600052607381538281f3fe73000000000000000000000000000000000000000030146080604052600436106100565760003560e01c80632b9aa9581461005b5780638f969d47146100815780639979c1fd146100b6578063eb34ab1c146100d6575b600080fd5b61006e610069366004610a72565b610111565b6040519081526020015b60405180910390f35b81801561008d57600080fd5b506100a161009c366004610b9f565b61033c565b60408051928352602083019190915201610078565b8180156100c257600080fd5b5061006e6100d1366004610aff565b6104a6565b8180156100e257600080fd5b506100f66100f1366004610c1c565b61078e565b60408051938452602084019290925290820152606001610078565b60408051600280825260608201909252600091829190816020015b604080516060810182526000808252602080830182905292820152825260001990920191018161012c579050509050878160008151811061016f5761016f610dc4565b6020026020010151600001906001600160a01b031690816001600160a01b03168152505086816000815181106101a7576101a7610dc4565b6020026020010151602001906001600160a01b031690816001600160a01b03168152505084816000815181106101df576101df610dc4565b60200260200101516040019015159081151581525050868160018151811061020957610209610dc4565b6020026020010151600001906001600160a01b031690816001600160a01b031681525050858160018151811061024157610241610dc4565b6020026020010151602001906001600160a01b031690816001600160a01b031681525050838160018151811061027957610279610dc4565b6020908102919091010151901515604091820152516326207f2d60e21b81526000906001600160a01b038b1690639881fcb4906102bc9087908690600401610d41565b60006040518083038186803b1580156102d457600080fd5b505afa1580156102e8573d6000803e3d6000fd5b505050506040513d6000823e601f3d908101601f191682016040526103109190810190610989565b90508060028151811061032557610325610dc4565b602002602001015192505050979650505050505050565b60405163095ea7b360e01b81526001600160a01b03898116600483015260248201869052600091829188169063095ea7b390604401602060405180830381600087803b15801561038b57600080fd5b505af115801561039f573d6000803e3d6000fd5b505050506040513d601f19601f820116820180604052508101906103c39190610a4e565b506001600160a01b038a16630dede6c48a8a60018a8a8a8a6103e742610258610d9e565b60405160e08a901b6001600160e01b03191681526001600160a01b039889166004820152968816602488015294151560448701526064860193909352608485019190915260a484015290921660c482015260e4810191909152610104016040805180830381600087803b15801561045d57600080fd5b505af1158015610471573d6000803e3d6000fd5b505050506040513d601f19601f820116820180604052508101906104959190610c90565b915091509850989650505050505050565b60405163095ea7b360e01b81526001600160a01b038981166004830152602482018490526000919089169063095ea7b390604401602060405180830381600087803b1580156104f457600080fd5b505af1158015610508573d6000803e3d6000fd5b505050506040513d601f19601f8201168201806040525081019061052c9190610a4e565b50600061053e8a8a8a8a8a8a8a610111565b90508061054f576000915050610782565b60408051600280825260608201909252600091816020015b604080516060810182526000808252602080830182905292820152825260001990920191018161056757905050905089816000815181106105aa576105aa610dc4565b6020026020010151600001906001600160a01b031690816001600160a01b03168152505088816000815181106105e2576105e2610dc4565b6020026020010151602001906001600160a01b031690816001600160a01b031681525050868160008151811061061a5761061a610dc4565b60200260200101516040019015159081151581525050888160018151811061064457610644610dc4565b6020026020010151600001906001600160a01b031690816001600160a01b031681525050878160018151811061067c5761067c610dc4565b6020026020010151602001906001600160a01b031690816001600160a01b03168152505085816001815181106106b4576106b4610dc4565b602090810291909101015190151560409091015260006001600160a01b038c1663f41766d8878385896106e942610258610d9e565b6040518663ffffffff1660e01b8152600401610709959493929190610d62565b600060405180830381600087803b15801561072357600080fd5b505af1158015610737573d6000803e3d6000fd5b505050506040513d6000823e601f3d908101601f1916820160405261075f9190810190610989565b90508060028151811061077457610774610dc4565b602002602001015193505050505b98975050505050505050565b60405163095ea7b360e01b81526001600160a01b0389811660048301526024820187905260009182918291908b169063095ea7b390604401602060405180830381600087803b1580156107e057600080fd5b505af11580156107f4573d6000803e3d6000fd5b505050506040513d601f19601f820116820180604052508101906108189190610a4e565b5060405163095ea7b360e01b81526001600160a01b038c81166004830152602482018990528a169063095ea7b390604401602060405180830381600087803b15801561086357600080fd5b505af1158015610877573d6000803e3d6000fd5b505050506040513d601f19601f8201168201806040525081019061089b9190610a4e565b506001600160a01b038b16635a47ddc38b8b60018c8c8c8c8c6108c042610258610d9e565b60405160e08b901b6001600160e01b03191681526001600160a01b03998a166004820152978916602489015295151560448801526064870194909452608486019290925260a485015260c484015290921660e482015261010481019190915261012401606060405180830381600087803b15801561093d57600080fd5b505af1158015610951573d6000803e3d6000fd5b505050506040513d601f19601f820116820180604052508101906109759190610cb4565b925092509250985098509895505050505050565b6000602080838503121561099c57600080fd5b825167ffffffffffffffff808211156109b457600080fd5b818501915085601f8301126109c857600080fd5b8151818111156109da576109da610dda565b8060051b604051601f19603f830116810181811085821117156109ff576109ff610dda565b604052828152858101935084860182860187018a1015610a1e57600080fd5b600095505b83861015610a41578051855260019590950194938601938601610a23565b5098975050505050505050565b600060208284031215610a6057600080fd5b8151610a6b81610e08565b9392505050565b600080600080600080600060e0888a031215610a8d57600080fd5b8735610a9881610df0565b96506020880135610aa881610df0565b95506040880135610ab881610df0565b94506060880135610ac881610df0565b93506080880135610ad881610e08565b925060a0880135610ae881610e08565b8092505060c0880135905092959891949750929550565b600080600080600080600080610100898b031215610b1c57600080fd5b8835610b2781610df0565b97506020890135610b3781610df0565b96506040890135610b4781610df0565b95506060890135610b5781610df0565b94506080890135610b6781610e08565b935060a0890135610b7781610e08565b925060c0890135915060e0890135610b8e81610df0565b809150509295985092959890939650565b600080600080600080600080610100898b031215610bbc57600080fd5b8835610bc781610df0565b97506020890135610bd781610df0565b96506040890135610be781610df0565b95506060890135610bf781610df0565b94506080890135935060a0890135925060c0890135915060e0890135610b8e81610df0565b600080600080600080600080610100898b031215610c3957600080fd5b8835610c4481610df0565b97506020890135610c5481610df0565b96506040890135610c6481610df0565b9550606089013594506080890135935060a0890135925060c0890135915060e0890135610b8e81610df0565b60008060408385031215610ca357600080fd5b505080516020909101519092909150565b600080600060608486031215610cc957600080fd5b8351925060208401519150604084015190509250925092565b600081518084526020808501945080840160005b83811015610d3657815180516001600160a01b03908116895284820151168489015260409081015115159088015260609096019590820190600101610cf6565b509495945050505050565b828152604060208201526000610d5a6040830184610ce2565b949350505050565b85815284602082015260a060408201526000610d8160a0830186610ce2565b6001600160a01b0394909416606083015250608001529392505050565b60008219821115610dbf57634e487b7160e01b600052601160045260246000fd5b500190565b634e487b7160e01b600052603260045260246000fd5b634e487b7160e01b600052604160045260246000fd5b6001600160a01b0381168114610e0557600080fd5b50565b8015158114610e0557600080fdfea264697066735822122054893e3189c91f09d7ba1a7b0fd2cbe3230b2f4487524278a7eee75f739b004864736f6c63430008060033",
  "devdoc": {
    "kind": "dev",
    "methods": {},
    "version": 1
  },
  "userdoc": {
    "kind": "user",
    "methods": {},
    "version": 1
  },
  "storageLayout": {
    "storage": [],
    "types": null
  }
}