{
  "address": "0xeF615E86A9dC426Dd9621df3Ee8B85E58196FA07",
  "abi": [
    {
      "inputs": [],
      "stateMutability": "nonpayable",
      "type": "constructor"
    },
    {
      "anonymous": false,
      "inputs": [
        {
          "indexed": false,
          "internalType": "address",
          "name": "previousAdmin",
          "type": "address"
        },
        {
          "indexed": false,
          "internalType": "address",
          "name": "newAdmin",
          "type": "address"
        }
      ],
      "name": "AdminChanged",
      "type": "event"
    },
    {
      "anonymous": false,
      "inputs": [
        {
          "indexed": false,
          "internalType": "uint256",
          "name": "healthFactor",
          "type": "uint256"
        }
      ],
      "name": "BalanceHealthFactor",
      "type": "event"
    },
    {
      "anonymous": false,
      "inputs": [
        {
          "indexed": true,
          "internalType": "address",
          "name": "beacon",
          "type": "address"
        }
      ],
      "name": "BeaconUpgraded",
      "type": "event"
    },
    {
      "anonymous": false,
      "inputs": [
        {
          "indexed": false,
          "internalType": "uint8",
          "name": "version",
          "type": "uint8"
        }
      ],
      "name": "Initialized",
      "type": "event"
    },
    {
      "anonymous": false,
      "inputs": [
        {
          "indexed": false,
          "internalType": "address",
          "name": "value",
          "type": "address"
        }
      ],
      "name": "PortfolioManagerUpdated",
      "type": "event"
    },
    {
      "anonymous": false,
      "inputs": [
        {
          "indexed": false,
          "internalType": "uint256",
          "name": "amount",
          "type": "uint256"
        }
      ],
      "name": "Reward",
      "type": "event"
    },
    {
      "anonymous": false,
      "inputs": [
        {
          "indexed": true,
          "internalType": "bytes32",
          "name": "role",
          "type": "bytes32"
        },
        {
          "indexed": true,
          "internalType": "bytes32",
          "name": "previousAdminRole",
          "type": "bytes32"
        },
        {
          "indexed": true,
          "internalType": "bytes32",
          "name": "newAdminRole",
          "type": "bytes32"
        }
      ],
      "name": "RoleAdminChanged",
      "type": "event"
    },
    {
      "anonymous": false,
      "inputs": [
        {
          "indexed": true,
          "internalType": "bytes32",
          "name": "role",
          "type": "bytes32"
        },
        {
          "indexed": true,
          "internalType": "address",
          "name": "account",
          "type": "address"
        },
        {
          "indexed": true,
          "internalType": "address",
          "name": "sender",
          "type": "address"
        }
      ],
      "name": "RoleGranted",
      "type": "event"
    },
    {
      "anonymous": false,
      "inputs": [
        {
          "indexed": true,
          "internalType": "bytes32",
          "name": "role",
          "type": "bytes32"
        },
        {
          "indexed": true,
          "internalType": "address",
          "name": "account",
          "type": "address"
        },
        {
          "indexed": true,
          "internalType": "address",
          "name": "sender",
          "type": "address"
        }
      ],
      "name": "RoleRevoked",
      "type": "event"
    },
    {
      "anonymous": false,
      "inputs": [
        {
          "indexed": false,
          "internalType": "uint256",
          "name": "amount",
          "type": "uint256"
        }
      ],
      "name": "Stake",
      "type": "event"
    },
    {
      "anonymous": false,
      "inputs": [
        {
          "indexed": false,
          "internalType": "address",
          "name": "usdcSmartVault",
          "type": "address"
        },
        {
          "indexed": false,
          "internalType": "address",
          "name": "xTetuSmartVault",
          "type": "address"
        },
        {
          "indexed": false,
          "internalType": "address",
          "name": "tetuSwapRouter",
          "type": "address"
        }
      ],
      "name": "StrategyUpdatedParams",
      "type": "event"
    },
    {
      "anonymous": false,
      "inputs": [
        {
          "indexed": false,
          "internalType": "address",
          "name": "usdcToken",
          "type": "address"
        },
        {
          "indexed": false,
          "internalType": "address",
          "name": "tetuToken",
          "type": "address"
        }
      ],
      "name": "StrategyUpdatedTokens",
      "type": "event"
    },
    {
      "anonymous": false,
      "inputs": [
        {
          "indexed": false,
          "internalType": "uint256",
          "name": "amount",
          "type": "uint256"
        },
        {
          "indexed": false,
          "internalType": "uint256",
          "name": "amountReceived",
          "type": "uint256"
        }
      ],
      "name": "Unstake",
      "type": "event"
    },
    {
      "anonymous": false,
      "inputs": [
        {
          "indexed": true,
          "internalType": "address",
          "name": "implementation",
          "type": "address"
        }
      ],
      "name": "Upgraded",
      "type": "event"
    },
    {
      "inputs": [],
      "name": "DEFAULT_ADMIN_ROLE",
      "outputs": [
        {
          "internalType": "bytes32",
          "name": "",
          "type": "bytes32"
        }
      ],
      "stateMutability": "view",
      "type": "function"
    },
    {
      "inputs": [],
      "name": "PORTFOLIO_MANAGER",
      "outputs": [
        {
          "internalType": "bytes32",
          "name": "",
          "type": "bytes32"
        }
      ],
      "stateMutability": "view",
      "type": "function"
    },
    {
      "inputs": [],
      "name": "UPGRADER_ROLE",
      "outputs": [
        {
          "internalType": "bytes32",
          "name": "",
          "type": "bytes32"
        }
      ],
      "stateMutability": "view",
      "type": "function"
    },
    {
      "inputs": [
        {
          "internalType": "address",
          "name": "_to",
          "type": "address"
        }
      ],
      "name": "claimRewards",
      "outputs": [
        {
          "internalType": "uint256",
          "name": "",
          "type": "uint256"
        }
      ],
      "stateMutability": "nonpayable",
      "type": "function"
    },
    {
      "inputs": [
        {
          "internalType": "bytes32",
          "name": "role",
          "type": "bytes32"
        }
      ],
      "name": "getRoleAdmin",
      "outputs": [
        {
          "internalType": "bytes32",
          "name": "",
          "type": "bytes32"
        }
      ],
      "stateMutability": "view",
      "type": "function"
    },
    {
      "inputs": [
        {
          "internalType": "bytes32",
          "name": "role",
          "type": "bytes32"
        },
        {
          "internalType": "address",
          "name": "account",
          "type": "address"
        }
      ],
      "name": "grantRole",
      "outputs": [],
      "stateMutability": "nonpayable",
      "type": "function"
    },
    {
      "inputs": [
        {
          "internalType": "bytes32",
          "name": "role",
          "type": "bytes32"
        },
        {
          "internalType": "address",
          "name": "account",
          "type": "address"
        }
      ],
      "name": "hasRole",
      "outputs": [
        {
          "internalType": "bool",
          "name": "",
          "type": "bool"
        }
      ],
      "stateMutability": "view",
      "type": "function"
    },
    {
      "inputs": [],
      "name": "healthFactorBalance",
      "outputs": [],
      "stateMutability": "nonpayable",
      "type": "function"
    },
    {
      "inputs": [],
      "name": "initialize",
      "outputs": [],
      "stateMutability": "nonpayable",
      "type": "function"
    },
    {
      "inputs": [],
      "name": "liquidationValue",
      "outputs": [
        {
          "internalType": "uint256",
          "name": "",
          "type": "uint256"
        }
      ],
      "stateMutability": "view",
      "type": "function"
    },
    {
      "inputs": [],
      "name": "netAssetValue",
      "outputs": [
        {
          "internalType": "uint256",
          "name": "",
          "type": "uint256"
        }
      ],
      "stateMutability": "view",
      "type": "function"
    },
    {
      "inputs": [],
      "name": "portfolioManager",
      "outputs": [
        {
          "internalType": "address",
          "name": "",
          "type": "address"
        }
      ],
      "stateMutability": "view",
      "type": "function"
    },
    {
      "inputs": [],
      "name": "proxiableUUID",
      "outputs": [
        {
          "internalType": "bytes32",
          "name": "",
          "type": "bytes32"
        }
      ],
      "stateMutability": "view",
      "type": "function"
    },
    {
      "inputs": [
        {
          "internalType": "bytes32",
          "name": "role",
          "type": "bytes32"
        },
        {
          "internalType": "address",
          "name": "account",
          "type": "address"
        }
      ],
      "name": "renounceRole",
      "outputs": [],
      "stateMutability": "nonpayable",
      "type": "function"
    },
    {
      "inputs": [
        {
          "internalType": "bytes32",
          "name": "role",
          "type": "bytes32"
        },
        {
          "internalType": "address",
          "name": "account",
          "type": "address"
        }
      ],
      "name": "revokeRole",
      "outputs": [],
      "stateMutability": "nonpayable",
      "type": "function"
    },
    {
      "inputs": [
        {
          "internalType": "address",
          "name": "_usdcSmartVault",
          "type": "address"
        },
        {
          "internalType": "address",
          "name": "_xTetuSmartVault",
          "type": "address"
        },
        {
          "internalType": "address",
          "name": "_tetuSwapRouter",
          "type": "address"
        }
      ],
      "name": "setParams",
      "outputs": [],
      "stateMutability": "nonpayable",
      "type": "function"
    },
    {
      "inputs": [
        {
          "internalType": "address",
          "name": "_value",
          "type": "address"
        }
      ],
      "name": "setPortfolioManager",
      "outputs": [],
      "stateMutability": "nonpayable",
      "type": "function"
    },
    {
      "inputs": [
        {
          "internalType": "address",
          "name": "_usdcToken",
          "type": "address"
        },
        {
          "internalType": "address",
          "name": "_tetuToken",
          "type": "address"
        }
      ],
      "name": "setTokens",
      "outputs": [],
      "stateMutability": "nonpayable",
      "type": "function"
    },
    {
      "inputs": [
        {
          "internalType": "address",
          "name": "_asset",
          "type": "address"
        },
        {
          "internalType": "uint256",
          "name": "_amount",
          "type": "uint256"
        }
      ],
      "name": "stake",
      "outputs": [],
      "stateMutability": "nonpayable",
      "type": "function"
    },
    {
      "inputs": [
        {
          "internalType": "bytes4",
          "name": "interfaceId",
          "type": "bytes4"
        }
      ],
      "name": "supportsInterface",
      "outputs": [
        {
          "internalType": "bool",
          "name": "",
          "type": "bool"
        }
      ],
      "stateMutability": "view",
      "type": "function"
    },
    {
      "inputs": [],
      "name": "tetuToken",
      "outputs": [
        {
          "internalType": "contract IERC20",
          "name": "",
          "type": "address"
        }
      ],
      "stateMutability": "view",
      "type": "function"
    },
    {
      "inputs": [
        {
          "internalType": "address",
          "name": "_asset",
          "type": "address"
        },
        {
          "internalType": "uint256",
          "name": "_amount",
          "type": "uint256"
        },
        {
          "internalType": "address",
          "name": "_beneficiary",
          "type": "address"
        },
        {
          "internalType": "bool",
          "name": "_targetIsZero",
          "type": "bool"
        }
      ],
      "name": "unstake",
      "outputs": [
        {
          "internalType": "uint256",
          "name": "",
          "type": "uint256"
        }
      ],
      "stateMutability": "nonpayable",
      "type": "function"
    },
    {
      "inputs": [
        {
          "internalType": "address",
          "name": "newImplementation",
          "type": "address"
        }
      ],
      "name": "upgradeTo",
      "outputs": [],
      "stateMutability": "nonpayable",
      "type": "function"
    },
    {
      "inputs": [
        {
          "internalType": "address",
          "name": "newImplementation",
          "type": "address"
        },
        {
          "internalType": "bytes",
          "name": "data",
          "type": "bytes"
        }
      ],
      "name": "upgradeToAndCall",
      "outputs": [],
      "stateMutability": "payable",
      "type": "function"
    },
    {
      "inputs": [],
      "name": "usdcSmartVault",
      "outputs": [
        {
          "internalType": "contract ISmartVault",
          "name": "",
          "type": "address"
        }
      ],
      "stateMutability": "view",
      "type": "function"
    },
    {
      "inputs": [],
      "name": "usdcToken",
      "outputs": [
        {
          "internalType": "contract IERC20",
          "name": "",
          "type": "address"
        }
      ],
      "stateMutability": "view",
      "type": "function"
    },
    {
      "inputs": [],
      "name": "xTetuSmartVault",
      "outputs": [
        {
          "internalType": "contract ISmartVault",
          "name": "",
          "type": "address"
        }
      ],
      "stateMutability": "view",
      "type": "function"
    }
  ],
  "numDeployments": 2,
  "solcInputHash": "27dccbbdd9aa2650c27755ed933d3ad7",
  "bytecode": "0x60a06040523060601b6080523480156200001857600080fd5b5060006200002760016200008e565b9050801562000040576000805461ff0019166101001790555b801562000087576000805461ff0019169055604051600181527f7f26b83ff96e1f2b6a682f133852f6798a09c465da95921460cefb38474024989060200160405180910390a15b50620001af565b60008054610100900460ff161562000127578160ff166001148015620000c75750620000c530620001a060201b620010141760201c565b155b6200011f5760405162461bcd60e51b815260206004820152602e602482015260008051602062002da483398151915260448201526d191e481a5b9a5d1a585b1a5e995960921b60648201526084015b60405180910390fd5b506000919050565b60005460ff808416911610620001865760405162461bcd60e51b815260206004820152602e602482015260008051602062002da483398151915260448201526d191e481a5b9a5d1a585b1a5e995960921b606482015260840162000116565b506000805460ff191660ff92909216919091179055600190565b6001600160a01b03163b151590565b60805160601c612bba620001ea60003960008181610675015281816106b5015281816107550152818161079501526108240152612bba6000f3fe60806040526004361061019c5760003560e01c80637d5f5802116100ec578063adc9772e1161008a578063ebb1ecc811610064578063ebb1ecc81461046f578063ef5cfb8c14610490578063f6f6b881146104b0578063f72c0d8b146104d057600080fd5b8063adc9772e1461040f578063cbc7854e1461042f578063d547741f1461044f57600080fd5b8063a081df7f116100c6578063a081df7f146103ba578063a217fddf146103da578063a3673b381461024d578063a440b21a146103ef57600080fd5b80637d5f5802146103635780638129fc1c1461038557806391d148541461039a57600080fd5b80633659cfe61161015957806352d1902d1161013357806352d1902d146102f8578063620b75df1461030d57806377c011031461032d5780637b73aa4e1461034e57600080fd5b80633659cfe6146102a45780633eb01a62146102c45780634f1ef286146102e557600080fd5b806301ffc9a7146101a157806311eac855146101d6578063248a9ca31461020f5780632576e65a1461024d5780632f2ff15d1461026257806336568abe14610284575b600080fd5b3480156101ad57600080fd5b506101c16101bc3660046126a9565b610504565b60405190151581526020015b60405180910390f35b3480156101e257600080fd5b5061015f546101f7906001600160a01b031681565b6040516001600160a01b0390911681526020016101cd565b34801561021b57600080fd5b5061023f61022a366004612654565b60009081526065602052604090206001015490565b6040519081526020016101cd565b34801561025957600080fd5b5061023f61053b565b34801561026e57600080fd5b5061028261027d366004612686565b6105bd565b005b34801561029057600080fd5b5061028261029f366004612686565b6105e7565b3480156102b057600080fd5b506102826102bf3660046123da565b61066a565b3480156102d057600080fd5b50610160546101f7906001600160a01b031681565b6102826102f336600461246b565b61074a565b34801561030457600080fd5b5061023f610817565b34801561031957600080fd5b5060fb546101f7906001600160a01b031681565b34801561033957600080fd5b50610162546101f7906001600160a01b031681565b34801561035a57600080fd5b506102826108ca565b34801561036f57600080fd5b5061023f600080516020612b1e83398151915281565b34801561039157600080fd5b5061028261090b565b3480156103a657600080fd5b506101c16103b5366004612686565b610979565b3480156103c657600080fd5b506102826103d5366004612428565b6109a4565b3480156103e657600080fd5b5061023f600081565b3480156103fb57600080fd5b5061028261040a3660046123da565b610ac3565b34801561041b57600080fd5b5061028261042a366004612511565b610b9b565b34801561043b57600080fd5b5061028261044a3660046123f5565b610c84565b34801561045b57600080fd5b5061028261046a366004612686565b610d67565b34801561047b57600080fd5b50610161546101f7906001600160a01b031681565b34801561049c57600080fd5b5061023f6104ab3660046123da565b610d8c565b3480156104bc57600080fd5b5061023f6104cb36600461253b565b610e10565b3480156104dc57600080fd5b5061023f7f189ab7a9244df0848122154315af71fe140f3db0fe014031783b0946b8c9d2e381565b60006001600160e01b03198216637965db0b60e01b148061053557506301ffc9a760e01b6001600160e01b03198316145b92915050565b61016154604051638cb1d67f60e01b81523060048201526000916001600160a01b031690638cb1d67f9060240160206040518083038186803b15801561058057600080fd5b505afa158015610594573d6000803e3d6000fd5b505050506040513d601f19601f820116820180604052508101906105b8919061266d565b905090565b6000828152606560205260409020600101546105d881611023565b6105e2838361102d565b505050565b6001600160a01b038116331461065c5760405162461bcd60e51b815260206004820152602f60248201527f416363657373436f6e74726f6c3a2063616e206f6e6c792072656e6f756e636560448201526e103937b632b9903337b91039b2b63360891b60648201526084015b60405180910390fd5b61066682826110b3565b5050565b306001600160a01b037f00000000000000000000000000000000000000000000000000000000000000001614156106b35760405162461bcd60e51b815260040161065390612812565b7f00000000000000000000000000000000000000000000000000000000000000006001600160a01b03166106fc600080516020612b3e833981519152546001600160a01b031690565b6001600160a01b0316146107225760405162461bcd60e51b81526004016106539061285e565b61072b8161111a565b6040805160008082526020820190925261074791839190611144565b50565b306001600160a01b037f00000000000000000000000000000000000000000000000000000000000000001614156107935760405162461bcd60e51b815260040161065390612812565b7f00000000000000000000000000000000000000000000000000000000000000006001600160a01b03166107dc600080516020612b3e833981519152546001600160a01b031690565b6001600160a01b0316146108025760405162461bcd60e51b81526004016106539061285e565b61080b8261111a565b61066682826001611144565b6000306001600160a01b037f000000000000000000000000000000000000000000000000000000000000000016146108b75760405162461bcd60e51b815260206004820152603860248201527f555550535570677261646561626c653a206d757374206e6f742062652063616c60448201527f6c6564207468726f7567682064656c656761746563616c6c00000000000000006064820152608401610653565b50600080516020612b3e83398151915290565b6108e2600080516020612b1e83398151915233610979565b6108fe5760405162461bcd60e51b8152600401610653906127db565b565b60405180910390a150565b600061091760016112be565b9050801561092f576000805461ff0019166101001790555b610937611346565b8015610747576000805461ff0019169055604051600181527f7f26b83ff96e1f2b6a682f133852f6798a09c465da95921460cefb384740249890602001610900565b60009182526065602090815260408084206001600160a01b0393909316845291905290205460ff1690565b6109af600033610979565b6109cb5760405162461bcd60e51b8152600401610653906128f8565b6001600160a01b0383166109f15760405162461bcd60e51b81526004016106539061295d565b6001600160a01b038216610a175760405162461bcd60e51b81526004016106539061295d565b6001600160a01b038116610a3d5760405162461bcd60e51b81526004016106539061295d565b61016180546001600160a01b038581166001600160a01b031992831681179093556101628054868316908416811790915561012d805492861692909316821790925560408051938452602084019290925282820152517f335c8af1d4365a182734f2ce06649c05b3f1a397b46d8f107c0f36cf1fcb9de7916060908290030190a1505050565b610ace600033610979565b610aea5760405162461bcd60e51b8152600401610653906128f8565b6001600160a01b038116610b105760405162461bcd60e51b81526004016106539061295d565b60fb54610b3590600080516020612b1e833981519152906001600160a01b0316610d67565b610b4d600080516020612b1e833981519152826105bd565b60fb80546001600160a01b0319166001600160a01b0383169081179091556040519081527ff7b449fcd5cfb7379dcd34cb69428dd9f882033b15be33d83b42d91daa28eeb790602001610900565b610bb3600080516020612b1e83398151915233610979565b610bcf5760405162461bcd60e51b8152600401610653906127db565b6040518181527f227a473b70d2f893cc7659219575c030a63b5743024fe1e0c1a680e708b1525a9060200160405180910390a16040516370a0823160e01b81523060048201526106669083906001600160a01b038216906370a082319060240160206040518083038186803b158015610c4757600080fd5b505afa158015610c5b573d6000803e3d6000fd5b505050506040513d601f19601f82011682018060405250810190610c7f919061266d565b6113af565b610c8f600033610979565b610cab5760405162461bcd60e51b8152600401610653906128f8565b6001600160a01b038216610cd15760405162461bcd60e51b81526004016106539061295d565b6001600160a01b038116610cf75760405162461bcd60e51b81526004016106539061295d565b61015f80546001600160a01b038481166001600160a01b0319928316811790935561016080549185169190921681179091556040805192835260208301919091527f889d5d0c806459b3c6d30b5fcb676b340f7b990a5c3048741bc9c41f57a8b65a910160405180910390a15050565b600082815260656020526040902060010154610d8281611023565b6105e283836110b3565b6000610da6600080516020612b1e83398151915233610979565b610dc25760405162461bcd60e51b8152600401610653906127db565b6000610dcd836114cb565b90507f3ac0594a85a20354f9dc74f33728416d19ce00d04a406c108cc2dcf2cecea13481604051610e0091815260200190565b60405180910390a190505b919050565b6000610e2a600080516020612b1e83398151915233610979565b610e465760405162461bcd60e51b8152600401610653906127db565b60008215610e5f57610e58868561188a565b9050610ece565b610e6a8686866119a7565b905084811015610ece5760405162461bcd60e51b815260206004820152602960248201527f52657475726e65642076616c7565206c657373207468616e2072657175657374604482015268195908185b5bdd5b9d60ba1b6064820152608401610653565b6040516370a0823160e01b81523060048201526000906001600160a01b038816906370a082319060240160206040518083038186803b158015610f1057600080fd5b505afa158015610f24573d6000803e3d6000fd5b505050506040513d601f19601f82011682018060405250810190610f48919061266d565b60405163a9059cbb60e01b81526001600160a01b038781166004830152602482018390529192509088169063a9059cbb90604401602060405180830381600087803b158015610f9657600080fd5b505af1158015610faa573d6000803e3d6000fd5b505050506040513d601f19601f82011682018060405250810190610fce9190612637565b5060408051878152602081018390527f9045c2ac9b2026de8075f2701bbdde882cd5e830b3b1ead9a15b22f2b5b93742910160405180910390a19150505b949350505050565b6001600160a01b03163b151590565b6107478133611bdf565b6110378282610979565b6106665760008281526065602090815260408083206001600160a01b03851684529091529020805460ff1916600117905561106f3390565b6001600160a01b0316816001600160a01b0316837f2f8788117e7eff1d82e926ec794901d17c78024a50270940304540a733656f0d60405160405180910390a45050565b6110bd8282610979565b156106665760008281526065602090815260408083206001600160a01b0385168085529252808320805460ff1916905551339285917ff6391f5c32d9c69d2a47ea670b442974b53935d1edc7fd64eb21e047a839171b9190a45050565b7f189ab7a9244df0848122154315af71fe140f3db0fe014031783b0946b8c9d2e361066681611023565b7f4910fdfa16fed3260ed0e7147f7cc6da11a60208b5b9406d12a635614ffd91435460ff1615611177576105e283611c43565b826001600160a01b03166352d1902d6040518163ffffffff1660e01b815260040160206040518083038186803b1580156111b057600080fd5b505afa9250505080156111e0575060408051601f3d908101601f191682019092526111dd9181019061266d565b60015b6112435760405162461bcd60e51b815260206004820152602e60248201527f45524331393637557067726164653a206e657720696d706c656d656e7461746960448201526d6f6e206973206e6f74205555505360901b6064820152608401610653565b600080516020612b3e83398151915281146112b25760405162461bcd60e51b815260206004820152602960248201527f45524331393637557067726164653a20756e737570706f727465642070726f786044820152681a58589b195555525160ba1b6064820152608401610653565b506105e2838383611cdf565b60008054610100900460ff1615611305578160ff1660011480156112e15750303b155b6112fd5760405162461bcd60e51b8152600401610653906128aa565b506000919050565b60005460ff80841691161061132c5760405162461bcd60e51b8152600401610653906128aa565b506000805460ff191660ff92909216919091179055600190565b600061135260016112be565b9050801561136a576000805461ff0019166101001790555b611372611d0a565b61137a611d0a565b61138560003361102d565b6109377f189ab7a9244df0848122154315af71fe140f3db0fe014031783b0946b8c9d2e33361102d565b61015f546001600160a01b038381169116146113dd5760405162461bcd60e51b815260040161065390612926565b61015f546101615460405163095ea7b360e01b81526001600160a01b0391821660048201526024810184905291169063095ea7b390604401602060405180830381600087803b15801561142f57600080fd5b505af1158015611443573d6000803e3d6000fd5b505050506040513d601f19601f820116820180604052508101906114679190612637565b50610161546040516332e2261360e21b8152600481018390526001600160a01b039091169063cb88984c90602401600060405180830381600087803b1580156114af57600080fd5b505af11580156114c3573d6000803e3d6000fd5b505050505050565b610161546040516370a0823160e01b815230600482015260009182916001600160a01b03909116906370a082319060240160206040518083038186803b15801561151457600080fd5b505afa158015611528573d6000803e3d6000fd5b505050506040513d601f19601f8201168201806040525081019061154c919061266d565b1161155957506000919050565b61016160009054906101000a90046001600160a01b03166001600160a01b03166345b35f566040518163ffffffff1660e01b8152600401600060405180830381600087803b1580156115aa57600080fd5b505af11580156115be573d6000803e3d6000fd5b5050610162546040516370a0823160e01b8152306004820152600093506001600160a01b0390911691506370a082319060240160206040518083038186803b15801561160957600080fd5b505afa15801561161d573d6000803e3d6000fd5b505050506040513d601f19601f82011682018060405250810190611641919061266d565b1161164e57506000919050565b61016260009054906101000a90046001600160a01b03166001600160a01b031663e9fad8ee6040518163ffffffff1660e01b8152600401600060405180830381600087803b15801561169f57600080fd5b505af11580156116b3573d6000803e3d6000fd5b5050610160546040516370a0823160e01b8152306004820152600093508392506001600160a01b03909116906370a082319060240160206040518083038186803b15801561170057600080fd5b505afa158015611714573d6000803e3d6000fd5b505050506040513d601f19601f82011682018060405250810190611738919061266d565b90508015611773576101605461015f54600091611763916001600160a01b0391821691168430611d75565b905061176f8184612a1a565b9250505b61015f546040516370a0823160e01b81523060048201526000916001600160a01b0316906370a082319060240160206040518083038186803b1580156117b857600080fd5b505afa1580156117cc573d6000803e3d6000fd5b505050506040513d601f19601f820116820180604052508101906117f0919061266d565b905080156118815761015f5460405163a9059cbb60e01b81526001600160a01b038781166004830152602482018490529091169063a9059cbb90604401602060405180830381600087803b15801561184757600080fd5b505af115801561185b573d6000803e3d6000fd5b505050506040513d601f19601f8201168201806040525081019061187f9190612637565b505b50909392505050565b61015f546000906001600160a01b038481169116146118bb5760405162461bcd60e51b815260040161065390612926565b61016160009054906101000a90046001600160a01b03166001600160a01b031663e9fad8ee6040518163ffffffff1660e01b8152600401600060405180830381600087803b15801561190c57600080fd5b505af1158015611920573d6000803e3d6000fd5b505061015f546040516370a0823160e01b81523060048201526001600160a01b0390911692506370a08231915060240160206040518083038186803b15801561196857600080fd5b505afa15801561197c573d6000803e3d6000fd5b505050506040513d601f19601f820116820180604052508101906119a0919061266d565b9392505050565b61015f546000906001600160a01b038581169116146119d85760405162461bcd60e51b815260040161065390612926565b6101615460408051630dfc73df60e11b815290516000926001600160a01b031691631bf8e7be916004808301926020929190829003018186803b158015611a1e57600080fd5b505afa158015611a32573d6000803e3d6000fd5b505050506040513d601f19601f82011682018060405250810190611a56919061266d565b61016160009054906101000a90046001600160a01b03166001600160a01b03166318160ddd6040518163ffffffff1660e01b815260040160206040518083038186803b158015611aa557600080fd5b505afa158015611ab9573d6000803e3d6000fd5b505050506040513d601f19601f82011682018060405250810190611add919061266d565b611ae686611f61565b611af09190612a54565b611afa9190612a32565b61016154604051632e1a7d4d60e01b8152600481018390529192506001600160a01b031690632e1a7d4d90602401600060405180830381600087803b158015611b4257600080fd5b505af1158015611b56573d6000803e3d6000fd5b505061015f546040516370a0823160e01b81523060048201526001600160a01b0390911692506370a08231915060240160206040518083038186803b158015611b9e57600080fd5b505afa158015611bb2573d6000803e3d6000fd5b505050506040513d601f19601f82011682018060405250810190611bd6919061266d565b95945050505050565b611be98282610979565b61066657611c01816001600160a01b03166014611f85565b611c0c836020611f85565b604051602001611c1d929190612733565b60408051601f198184030181529082905262461bcd60e51b8252610653916004016127a8565b6001600160a01b0381163b611cb05760405162461bcd60e51b815260206004820152602d60248201527f455243313936373a206e657720696d706c656d656e746174696f6e206973206e60448201526c1bdd08184818dbdb9d1c9858dd609a1b6064820152608401610653565b600080516020612b3e83398151915280546001600160a01b0319166001600160a01b0392909216919091179055565b611ce883612121565b600082511180611cf55750805b156105e257611d048383612161565b50505050565b600054610100900460ff166108fe5760405162461bcd60e51b815260206004820152602b60248201527f496e697469616c697a61626c653a20636f6e7472616374206973206e6f74206960448201526a6e697469616c697a696e6760a81b6064820152608401610653565b61012d5460405163095ea7b360e01b81526001600160a01b0391821660048201526024810184905260009186169063095ea7b390604401602060405180830381600087803b158015611dc657600080fd5b505af1158015611dda573d6000803e3d6000fd5b505050506040513d601f19601f82011682018060405250810190611dfe9190612637565b506000611e0c86868661224c565b905080611e1d57600091505061100c565b6040805160028082526060820183526000926020830190803683370190505090508681600081518110611e5257611e52612ae3565b60200260200101906001600160a01b031690816001600160a01b0316815250508581600181518110611e8657611e86612ae3565b6001600160a01b03928316602091820292909201015261012d54600091166338ed173987611eb38661237a565b8589611ec142610258612a1a565b6040518663ffffffff1660e01b8152600401611ee19594939291906129ad565b600060405180830381600087803b158015611efb57600080fd5b505af1158015611f0f573d6000803e3d6000fd5b505050506040513d6000823e601f3d908101601f19168201604052611f37919081019061258a565b905080600181518110611f4c57611f4c612ae3565b60200260200101519350505050949350505050565b6000612710611f71600482612a1a565b611f7b9084612a54565b6105359190612a32565b60606000611f94836002612a54565b611f9f906002612a1a565b67ffffffffffffffff811115611fb757611fb7612af9565b6040519080825280601f01601f191660200182016040528015611fe1576020820181803683370190505b509050600360fc1b81600081518110611ffc57611ffc612ae3565b60200101906001600160f81b031916908160001a905350600f60fb1b8160018151811061202b5761202b612ae3565b60200101906001600160f81b031916908160001a905350600061204f846002612a54565b61205a906001612a1a565b90505b60018111156120d2576f181899199a1a9b1b9c1cb0b131b232b360811b85600f166010811061208e5761208e612ae3565b1a60f81b8282815181106120a4576120a4612ae3565b60200101906001600160f81b031916908160001a90535060049490941c936120cb81612ab6565b905061205d565b5083156119a05760405162461bcd60e51b815260206004820181905260248201527f537472696e67733a20686578206c656e67746820696e73756666696369656e746044820152606401610653565b61212a81611c43565b6040516001600160a01b038216907fbc7cd75a20ee27fd9adebab32041f755214dbc6bffa90cc0225b39da2e5c2d3b90600090a250565b60606001600160a01b0383163b6121c95760405162461bcd60e51b815260206004820152602660248201527f416464726573733a2064656c65676174652063616c6c20746f206e6f6e2d636f6044820152651b9d1c9858dd60d21b6064820152608401610653565b600080846001600160a01b0316846040516121e49190612717565b600060405180830381855af49150503d806000811461221f576040519150601f19603f3d011682016040523d82523d6000602084013e612224565b606091505b5091509150611bd68282604051806060016040528060278152602001612b5e6027913961238a565b60408051600280825260608201835260009283929190602083019080368337019050509050848160008151811061228557612285612ae3565b60200260200101906001600160a01b031690816001600160a01b03168152505083816001815181106122b9576122b9612ae3565b6001600160a01b03928316602091820292909201015261012d5460405163d06ca61f60e01b8152600092919091169063d06ca61f906122fe9087908690600401612994565b60006040518083038186803b15801561231657600080fd5b505afa15801561232a573d6000803e3d6000fd5b505050506040513d6000823e601f3d908101601f19168201604052612352919081019061258a565b90508060018151811061236757612367612ae3565b6020026020010151925050509392505050565b6000612710611f71600482612a73565b606083156123995750816119a0565b8251156123a95782518084602001fd5b8160405162461bcd60e51b815260040161065391906127a8565b80356001600160a01b0381168114610e0b57600080fd5b6000602082840312156123ec57600080fd5b6119a0826123c3565b6000806040838503121561240857600080fd5b612411836123c3565b915061241f602084016123c3565b90509250929050565b60008060006060848603121561243d57600080fd5b612446846123c3565b9250612454602085016123c3565b9150612462604085016123c3565b90509250925092565b6000806040838503121561247e57600080fd5b612487836123c3565b915060208084013567ffffffffffffffff808211156124a557600080fd5b818601915086601f8301126124b957600080fd5b8135818111156124cb576124cb612af9565b6124dd601f8201601f191685016129e9565b915080825287848285010111156124f357600080fd5b80848401858401376000848284010152508093505050509250929050565b6000806040838503121561252457600080fd5b61252d836123c3565b946020939093013593505050565b6000806000806080858703121561255157600080fd5b61255a856123c3565b93506020850135925061256f604086016123c3565b9150606085013561257f81612b0f565b939692955090935050565b6000602080838503121561259d57600080fd5b825167ffffffffffffffff808211156125b557600080fd5b818501915085601f8301126125c957600080fd5b8151818111156125db576125db612af9565b8060051b91506125ec8483016129e9565b8181528481019084860184860187018a101561260757600080fd5b600095505b8386101561262a57805183526001959095019491860191860161260c565b5098975050505050505050565b60006020828403121561264957600080fd5b81516119a081612b0f565b60006020828403121561266657600080fd5b5035919050565b60006020828403121561267f57600080fd5b5051919050565b6000806040838503121561269957600080fd5b8235915061241f602084016123c3565b6000602082840312156126bb57600080fd5b81356001600160e01b0319811681146119a057600080fd5b600081518084526020808501945080840160005b8381101561270c5781516001600160a01b0316875295820195908201906001016126e7565b509495945050505050565b60008251612729818460208701612a8a565b9190910192915050565b7f416363657373436f6e74726f6c3a206163636f756e742000000000000000000081526000835161276b816017850160208801612a8a565b7001034b99036b4b9b9b4b733903937b6329607d1b601791840191820152835161279c816028840160208801612a8a565b01602801949350505050565b60208152600082518060208401526127c7816040850160208701612a8a565b601f01601f19169190910160400192915050565b6020808252601f908201527f5265737472696374656420746f20504f5254464f4c494f5f4d414e4147455200604082015260600190565b6020808252602c908201527f46756e6374696f6e206d7573742062652063616c6c6564207468726f7567682060408201526b19195b1959d85d1958d85b1b60a21b606082015260800190565b6020808252602c908201527f46756e6374696f6e206d7573742062652063616c6c6564207468726f7567682060408201526b6163746976652070726f787960a01b606082015260800190565b6020808252602e908201527f496e697469616c697a61626c653a20636f6e747261637420697320616c72656160408201526d191e481a5b9a5d1a585b1a5e995960921b606082015260800190565b6020808252601490820152735265737472696374656420746f2061646d696e7360601b604082015260600190565b60208082526019908201527f536f6d6520746f6b656e206e6f7420636f6d70617469626c6500000000000000604082015260600190565b60208082526018908201527f5a65726f2061646472657373206e6f7420616c6c6f7765640000000000000000604082015260600190565b82815260406020820152600061100c60408301846126d3565b85815284602082015260a0604082015260006129cc60a08301866126d3565b6001600160a01b0394909416606083015250608001529392505050565b604051601f8201601f1916810167ffffffffffffffff81118282101715612a1257612a12612af9565b604052919050565b60008219821115612a2d57612a2d612acd565b500190565b600082612a4f57634e487b7160e01b600052601260045260246000fd5b500490565b6000816000190483118215151615612a6e57612a6e612acd565b500290565b600082821015612a8557612a85612acd565b500390565b60005b83811015612aa5578181015183820152602001612a8d565b83811115611d045750506000910152565b600081612ac557612ac5612acd565b506000190190565b634e487b7160e01b600052601160045260246000fd5b634e487b7160e01b600052603260045260246000fd5b634e487b7160e01b600052604160045260246000fd5b801515811461074757600080fdfe90c2aa7471c04182221f68e80c07ab1e5946e4c63f8693e14ca40385d529f051360894a13ba1a3210667c828492db98dca3e2076cc3735a920a3ca505d382bbc416464726573733a206c6f772d6c6576656c2064656c65676174652063616c6c206661696c6564a264697066735822122018148ca71f485d7ac206c1163bc3fe75b6796705b872da4652630258791d9c8364736f6c63430008060033496e697469616c697a61626c653a20636f6e747261637420697320616c726561",
  "devdoc": {
    "kind": "dev",
    "methods": {
      "constructor": {
        "custom:oz-upgrades-unsafe-allow": "constructor"
      },
      "getRoleAdmin(bytes32)": {
        "details": "Returns the admin role that controls `role`. See {grantRole} and {revokeRole}. To change a role's admin, use {_setRoleAdmin}."
      },
      "grantRole(bytes32,address)": {
        "details": "Grants `role` to `account`. If `account` had not been already granted `role`, emits a {RoleGranted} event. Requirements: - the caller must have ``role``'s admin role."
      },
      "hasRole(bytes32,address)": {
        "details": "Returns `true` if `account` has been granted `role`."
      },
      "proxiableUUID()": {
        "details": "Implementation of the ERC1822 {proxiableUUID} function. This returns the storage slot used by the implementation. It is used to validate that the this implementation remains valid after an upgrade. IMPORTANT: A proxy pointing at a proxiable contract should not be considered proxiable itself, because this risks bricking a proxy that upgrades to it, by delegating to itself until out of gas. Thus it is critical that this function revert if invoked through a proxy. This is guaranteed by the `notDelegated` modifier."
      },
      "renounceRole(bytes32,address)": {
        "details": "Revokes `role` from the calling account. Roles are often managed via {grantRole} and {revokeRole}: this function's purpose is to provide a mechanism for accounts to lose their privileges if they are compromised (such as when a trusted device is misplaced). If the calling account had been revoked `role`, emits a {RoleRevoked} event. Requirements: - the caller must be `account`."
      },
      "revokeRole(bytes32,address)": {
        "details": "Revokes `role` from `account`. If `account` had been granted `role`, emits a {RoleRevoked} event. Requirements: - the caller must have ``role``'s admin role."
      },
      "supportsInterface(bytes4)": {
        "details": "See {IERC165-supportsInterface}."
      },
      "upgradeTo(address)": {
        "details": "Upgrade the implementation of the proxy to `newImplementation`. Calls {_authorizeUpgrade}. Emits an {Upgraded} event."
      },
      "upgradeToAndCall(address,bytes)": {
        "details": "Upgrade the implementation of the proxy to `newImplementation`, and subsequently execute the function call encoded in `data`. Calls {_authorizeUpgrade}. Emits an {Upgraded} event."
      }
    },
    "version": 1
  },
  "userdoc": {
    "kind": "user",
    "methods": {},
    "version": 1
  },
  "storageLayout": {
    "storage": [
      {
        "astId": 808,
        "contract": "contracts/StrategyTetuUsdc.sol:StrategyTetuUsdc",
        "label": "_initialized",
        "offset": 0,
        "slot": "0",
        "type": "t_uint8"
      },
      {
        "astId": 811,
        "contract": "contracts/StrategyTetuUsdc.sol:StrategyTetuUsdc",
        "label": "_initializing",
        "offset": 1,
        "slot": "0",
        "type": "t_bool"
      },
      {
        "astId": 1363,
        "contract": "contracts/StrategyTetuUsdc.sol:StrategyTetuUsdc",
        "label": "__gap",
        "offset": 0,
        "slot": "1",
        "type": "t_array(t_uint256)50_storage"
      },
      {
        "astId": 1670,
        "contract": "contracts/StrategyTetuUsdc.sol:StrategyTetuUsdc",
        "label": "__gap",
        "offset": 0,
        "slot": "51",
        "type": "t_array(t_uint256)50_storage"
      },
      {
        "astId": 39,
        "contract": "contracts/StrategyTetuUsdc.sol:StrategyTetuUsdc",
        "label": "_roles",
        "offset": 0,
        "slot": "101",
        "type": "t_mapping(t_bytes32,t_struct(RoleData)34_storage)"
      },
      {
        "astId": 338,
        "contract": "contracts/StrategyTetuUsdc.sol:StrategyTetuUsdc",
        "label": "__gap",
        "offset": 0,
        "slot": "102",
        "type": "t_array(t_uint256)49_storage"
      },
      {
        "astId": 790,
        "contract": "contracts/StrategyTetuUsdc.sol:StrategyTetuUsdc",
        "label": "__gap",
        "offset": 0,
        "slot": "151",
        "type": "t_array(t_uint256)50_storage"
      },
      {
        "astId": 1078,
        "contract": "contracts/StrategyTetuUsdc.sol:StrategyTetuUsdc",
        "label": "__gap",
        "offset": 0,
        "slot": "201",
        "type": "t_array(t_uint256)50_storage"
      },
      {
        "astId": 28845,
        "contract": "contracts/StrategyTetuUsdc.sol:StrategyTetuUsdc",
        "label": "portfolioManager",
        "offset": 0,
        "slot": "251",
        "type": "t_address"
      },
      {
        "astId": 29152,
        "contract": "contracts/StrategyTetuUsdc.sol:StrategyTetuUsdc",
        "label": "__gap",
        "offset": 0,
        "slot": "252",
        "type": "t_array(t_uint256)49_storage"
      },
      {
        "astId": 30411,
        "contract": "contracts/StrategyTetuUsdc.sol:StrategyTetuUsdc",
        "label": "uniswapRouter",
        "offset": 0,
        "slot": "301",
        "type": "t_contract(IUniswapV2Router02)27285"
      },
      {
        "astId": 30711,
        "contract": "contracts/StrategyTetuUsdc.sol:StrategyTetuUsdc",
        "label": "__gap",
        "offset": 0,
        "slot": "302",
        "type": "t_array(t_uint256)49_storage"
      },
      {
        "astId": 21092,
        "contract": "contracts/StrategyTetuUsdc.sol:StrategyTetuUsdc",
        "label": "usdcToken",
        "offset": 0,
        "slot": "351",
        "type": "t_contract(IERC20)1823"
      },
      {
        "astId": 21095,
        "contract": "contracts/StrategyTetuUsdc.sol:StrategyTetuUsdc",
        "label": "tetuToken",
        "offset": 0,
        "slot": "352",
        "type": "t_contract(IERC20)1823"
      },
      {
        "astId": 21098,
        "contract": "contracts/StrategyTetuUsdc.sol:StrategyTetuUsdc",
        "label": "usdcSmartVault",
        "offset": 0,
        "slot": "353",
        "type": "t_contract(ISmartVault)26634"
      },
      {
        "astId": 21101,
        "contract": "contracts/StrategyTetuUsdc.sol:StrategyTetuUsdc",
        "label": "xTetuSmartVault",
        "offset": 0,
        "slot": "354",
        "type": "t_contract(ISmartVault)26634"
      }
    ],
    "types": {
      "t_address": {
        "encoding": "inplace",
        "label": "address",
        "numberOfBytes": "20"
      },
      "t_array(t_uint256)49_storage": {
        "base": "t_uint256",
        "encoding": "inplace",
        "label": "uint256[49]",
        "numberOfBytes": "1568"
      },
      "t_array(t_uint256)50_storage": {
        "base": "t_uint256",
        "encoding": "inplace",
        "label": "uint256[50]",
        "numberOfBytes": "1600"
      },
      "t_bool": {
        "encoding": "inplace",
        "label": "bool",
        "numberOfBytes": "1"
      },
      "t_bytes32": {
        "encoding": "inplace",
        "label": "bytes32",
        "numberOfBytes": "32"
      },
      "t_contract(IERC20)1823": {
        "encoding": "inplace",
        "label": "contract IERC20",
        "numberOfBytes": "20"
      },
      "t_contract(ISmartVault)26634": {
        "encoding": "inplace",
        "label": "contract ISmartVault",
        "numberOfBytes": "20"
      },
      "t_contract(IUniswapV2Router02)27285": {
        "encoding": "inplace",
        "label": "contract IUniswapV2Router02",
        "numberOfBytes": "20"
      },
      "t_mapping(t_address,t_bool)": {
        "encoding": "mapping",
        "key": "t_address",
        "label": "mapping(address => bool)",
        "numberOfBytes": "32",
        "value": "t_bool"
      },
      "t_mapping(t_bytes32,t_struct(RoleData)34_storage)": {
        "encoding": "mapping",
        "key": "t_bytes32",
        "label": "mapping(bytes32 => struct AccessControlUpgradeable.RoleData)",
        "numberOfBytes": "32",
        "value": "t_struct(RoleData)34_storage"
      },
      "t_struct(RoleData)34_storage": {
        "encoding": "inplace",
        "label": "struct AccessControlUpgradeable.RoleData",
        "members": [
          {
            "astId": 31,
            "contract": "contracts/StrategyTetuUsdc.sol:StrategyTetuUsdc",
            "label": "members",
            "offset": 0,
            "slot": "0",
            "type": "t_mapping(t_address,t_bool)"
          },
          {
            "astId": 33,
            "contract": "contracts/StrategyTetuUsdc.sol:StrategyTetuUsdc",
            "label": "adminRole",
            "offset": 0,
            "slot": "1",
            "type": "t_bytes32"
          }
        ],
        "numberOfBytes": "64"
      },
      "t_uint256": {
        "encoding": "inplace",
        "label": "uint256",
        "numberOfBytes": "32"
      },
      "t_uint8": {
        "encoding": "inplace",
        "label": "uint8",
        "numberOfBytes": "1"
      }
    }
  }
}