{
  "address": "0x81AfC1b2b12C6bA97adf68f39bc819e1CC67cE2D",
  "abi": [
    {
      "inputs": [],
      "stateMutability": "nonpayable",
      "type": "constructor"
    },
    {
      "anonymous": false,
      "inputs": [
        {
          "indexed": false,
          "internalType": "address",
          "name": "previousAdmin",
          "type": "address"
        },
        {
          "indexed": false,
          "internalType": "address",
          "name": "newAdmin",
          "type": "address"
        }
      ],
      "name": "AdminChanged",
      "type": "event"
    },
    {
      "anonymous": false,
      "inputs": [
        {
          "indexed": false,
          "internalType": "uint256",
          "name": "healthFactor",
          "type": "uint256"
        }
      ],
      "name": "BalanceHealthFactor",
      "type": "event"
    },
    {
      "anonymous": false,
      "inputs": [
        {
          "indexed": true,
          "internalType": "address",
          "name": "beacon",
          "type": "address"
        }
      ],
      "name": "BeaconUpgraded",
      "type": "event"
    },
    {
      "anonymous": false,
      "inputs": [
        {
          "indexed": false,
          "internalType": "uint8",
          "name": "version",
          "type": "uint8"
        }
      ],
      "name": "Initialized",
      "type": "event"
    },
    {
      "anonymous": false,
      "inputs": [
        {
          "indexed": false,
          "internalType": "address",
          "name": "value",
          "type": "address"
        }
      ],
      "name": "PortfolioManagerUpdated",
      "type": "event"
    },
    {
      "anonymous": false,
      "inputs": [
        {
          "indexed": false,
          "internalType": "uint256",
          "name": "amount",
          "type": "uint256"
        }
      ],
      "name": "Reward",
      "type": "event"
    },
    {
      "anonymous": false,
      "inputs": [
        {
          "indexed": true,
          "internalType": "bytes32",
          "name": "role",
          "type": "bytes32"
        },
        {
          "indexed": true,
          "internalType": "bytes32",
          "name": "previousAdminRole",
          "type": "bytes32"
        },
        {
          "indexed": true,
          "internalType": "bytes32",
          "name": "newAdminRole",
          "type": "bytes32"
        }
      ],
      "name": "RoleAdminChanged",
      "type": "event"
    },
    {
      "anonymous": false,
      "inputs": [
        {
          "indexed": true,
          "internalType": "bytes32",
          "name": "role",
          "type": "bytes32"
        },
        {
          "indexed": true,
          "internalType": "address",
          "name": "account",
          "type": "address"
        },
        {
          "indexed": true,
          "internalType": "address",
          "name": "sender",
          "type": "address"
        }
      ],
      "name": "RoleGranted",
      "type": "event"
    },
    {
      "anonymous": false,
      "inputs": [
        {
          "indexed": true,
          "internalType": "bytes32",
          "name": "role",
          "type": "bytes32"
        },
        {
          "indexed": true,
          "internalType": "address",
          "name": "account",
          "type": "address"
        },
        {
          "indexed": true,
          "internalType": "address",
          "name": "sender",
          "type": "address"
        }
      ],
      "name": "RoleRevoked",
      "type": "event"
    },
    {
      "anonymous": false,
      "inputs": [
        {
          "indexed": false,
          "internalType": "uint256",
          "name": "amount",
          "type": "uint256"
        }
      ],
      "name": "Stake",
      "type": "event"
    },
    {
      "anonymous": false,
      "inputs": [
        {
          "indexed": false,
          "internalType": "address",
          "name": "aaveProvider",
          "type": "address"
        }
      ],
      "name": "StrategyAaveUpdatedParams",
      "type": "event"
    },
    {
      "anonymous": false,
      "inputs": [
        {
          "indexed": false,
          "internalType": "address",
          "name": "usdcToken",
          "type": "address"
        },
        {
          "indexed": false,
          "internalType": "address",
          "name": "aUsdcToken",
          "type": "address"
        }
      ],
      "name": "StrategyAaveUpdatedTokens",
      "type": "event"
    },
    {
      "anonymous": false,
      "inputs": [
        {
          "indexed": false,
          "internalType": "uint256",
          "name": "amount",
          "type": "uint256"
        },
        {
          "indexed": false,
          "internalType": "uint256",
          "name": "amountReceived",
          "type": "uint256"
        }
      ],
      "name": "Unstake",
      "type": "event"
    },
    {
      "anonymous": false,
      "inputs": [
        {
          "indexed": true,
          "internalType": "address",
          "name": "implementation",
          "type": "address"
        }
      ],
      "name": "Upgraded",
      "type": "event"
    },
    {
      "inputs": [],
      "name": "DEFAULT_ADMIN_ROLE",
      "outputs": [
        {
          "internalType": "bytes32",
          "name": "",
          "type": "bytes32"
        }
      ],
      "stateMutability": "view",
      "type": "function"
    },
    {
      "inputs": [],
      "name": "PORTFOLIO_MANAGER",
      "outputs": [
        {
          "internalType": "bytes32",
          "name": "",
          "type": "bytes32"
        }
      ],
      "stateMutability": "view",
      "type": "function"
    },
    {
      "inputs": [],
      "name": "UPGRADER_ROLE",
      "outputs": [
        {
          "internalType": "bytes32",
          "name": "",
          "type": "bytes32"
        }
      ],
      "stateMutability": "view",
      "type": "function"
    },
    {
      "inputs": [],
      "name": "aUsdcToken",
      "outputs": [
        {
          "internalType": "contract IERC20",
          "name": "",
          "type": "address"
        }
      ],
      "stateMutability": "view",
      "type": "function"
    },
    {
      "inputs": [],
      "name": "aaveProvider",
      "outputs": [
        {
          "internalType": "contract ILendingPoolAddressesProvider",
          "name": "",
          "type": "address"
        }
      ],
      "stateMutability": "view",
      "type": "function"
    },
    {
      "inputs": [
        {
          "internalType": "address",
          "name": "_to",
          "type": "address"
        }
      ],
      "name": "claimRewards",
      "outputs": [
        {
          "internalType": "uint256",
          "name": "",
          "type": "uint256"
        }
      ],
      "stateMutability": "nonpayable",
      "type": "function"
    },
    {
      "inputs": [
        {
          "internalType": "bytes32",
          "name": "role",
          "type": "bytes32"
        }
      ],
      "name": "getRoleAdmin",
      "outputs": [
        {
          "internalType": "bytes32",
          "name": "",
          "type": "bytes32"
        }
      ],
      "stateMutability": "view",
      "type": "function"
    },
    {
      "inputs": [
        {
          "internalType": "bytes32",
          "name": "role",
          "type": "bytes32"
        },
        {
          "internalType": "address",
          "name": "account",
          "type": "address"
        }
      ],
      "name": "grantRole",
      "outputs": [],
      "stateMutability": "nonpayable",
      "type": "function"
    },
    {
      "inputs": [
        {
          "internalType": "bytes32",
          "name": "role",
          "type": "bytes32"
        },
        {
          "internalType": "address",
          "name": "account",
          "type": "address"
        }
      ],
      "name": "hasRole",
      "outputs": [
        {
          "internalType": "bool",
          "name": "",
          "type": "bool"
        }
      ],
      "stateMutability": "view",
      "type": "function"
    },
    {
      "inputs": [],
      "name": "healthFactorBalance",
      "outputs": [],
      "stateMutability": "nonpayable",
      "type": "function"
    },
    {
      "inputs": [],
      "name": "initialize",
      "outputs": [],
      "stateMutability": "nonpayable",
      "type": "function"
    },
    {
      "inputs": [],
      "name": "liquidationValue",
      "outputs": [
        {
          "internalType": "uint256",
          "name": "",
          "type": "uint256"
        }
      ],
      "stateMutability": "view",
      "type": "function"
    },
    {
      "inputs": [],
      "name": "netAssetValue",
      "outputs": [
        {
          "internalType": "uint256",
          "name": "",
          "type": "uint256"
        }
      ],
      "stateMutability": "view",
      "type": "function"
    },
    {
      "inputs": [],
      "name": "portfolioManager",
      "outputs": [
        {
          "internalType": "address",
          "name": "",
          "type": "address"
        }
      ],
      "stateMutability": "view",
      "type": "function"
    },
    {
      "inputs": [],
      "name": "proxiableUUID",
      "outputs": [
        {
          "internalType": "bytes32",
          "name": "",
          "type": "bytes32"
        }
      ],
      "stateMutability": "view",
      "type": "function"
    },
    {
      "inputs": [
        {
          "internalType": "bytes32",
          "name": "role",
          "type": "bytes32"
        },
        {
          "internalType": "address",
          "name": "account",
          "type": "address"
        }
      ],
      "name": "renounceRole",
      "outputs": [],
      "stateMutability": "nonpayable",
      "type": "function"
    },
    {
      "inputs": [
        {
          "internalType": "bytes32",
          "name": "role",
          "type": "bytes32"
        },
        {
          "internalType": "address",
          "name": "account",
          "type": "address"
        }
      ],
      "name": "revokeRole",
      "outputs": [],
      "stateMutability": "nonpayable",
      "type": "function"
    },
    {
      "inputs": [
        {
          "internalType": "address",
          "name": "_aaveProvider",
          "type": "address"
        }
      ],
      "name": "setParams",
      "outputs": [],
      "stateMutability": "nonpayable",
      "type": "function"
    },
    {
      "inputs": [
        {
          "internalType": "address",
          "name": "_value",
          "type": "address"
        }
      ],
      "name": "setPortfolioManager",
      "outputs": [],
      "stateMutability": "nonpayable",
      "type": "function"
    },
    {
      "inputs": [
        {
          "internalType": "address",
          "name": "_usdcToken",
          "type": "address"
        },
        {
          "internalType": "address",
          "name": "_aUsdcToken",
          "type": "address"
        }
      ],
      "name": "setTokens",
      "outputs": [],
      "stateMutability": "nonpayable",
      "type": "function"
    },
    {
      "inputs": [
        {
          "internalType": "address",
          "name": "_asset",
          "type": "address"
        },
        {
          "internalType": "uint256",
          "name": "_amount",
          "type": "uint256"
        }
      ],
      "name": "stake",
      "outputs": [],
      "stateMutability": "nonpayable",
      "type": "function"
    },
    {
      "inputs": [
        {
          "internalType": "bytes4",
          "name": "interfaceId",
          "type": "bytes4"
        }
      ],
      "name": "supportsInterface",
      "outputs": [
        {
          "internalType": "bool",
          "name": "",
          "type": "bool"
        }
      ],
      "stateMutability": "view",
      "type": "function"
    },
    {
      "inputs": [
        {
          "internalType": "address",
          "name": "_asset",
          "type": "address"
        },
        {
          "internalType": "uint256",
          "name": "_amount",
          "type": "uint256"
        },
        {
          "internalType": "address",
          "name": "_beneficiary",
          "type": "address"
        },
        {
          "internalType": "bool",
          "name": "_targetIsZero",
          "type": "bool"
        }
      ],
      "name": "unstake",
      "outputs": [
        {
          "internalType": "uint256",
          "name": "",
          "type": "uint256"
        }
      ],
      "stateMutability": "nonpayable",
      "type": "function"
    },
    {
      "inputs": [
        {
          "internalType": "address",
          "name": "newImplementation",
          "type": "address"
        }
      ],
      "name": "upgradeTo",
      "outputs": [],
      "stateMutability": "nonpayable",
      "type": "function"
    },
    {
      "inputs": [
        {
          "internalType": "address",
          "name": "newImplementation",
          "type": "address"
        },
        {
          "internalType": "bytes",
          "name": "data",
          "type": "bytes"
        }
      ],
      "name": "upgradeToAndCall",
      "outputs": [],
      "stateMutability": "payable",
      "type": "function"
    },
    {
      "inputs": [],
      "name": "usdcToken",
      "outputs": [
        {
          "internalType": "contract IERC20",
          "name": "",
          "type": "address"
        }
      ],
      "stateMutability": "view",
      "type": "function"
    }
  ],
  "numDeployments": 2,
  "solcInputHash": "8055f9545d22e93ba871743f2f81e778",
  "bytecode": "0x60a06040523060601b6080523480156200001857600080fd5b5060006200002760016200008e565b9050801562000040576000805461ff0019166101001790555b801562000087576000805461ff0019169055604051600181527f7f26b83ff96e1f2b6a682f133852f6798a09c465da95921460cefb38474024989060200160405180910390a15b50620001af565b60008054610100900460ff161562000127578160ff166001148015620000c75750620000c530620001a060201b62000f421760201c565b155b6200011f5760405162461bcd60e51b815260206004820152602e60248201526000805160206200258c83398151915260448201526d191e481a5b9a5d1a585b1a5e995960921b60648201526084015b60405180910390fd5b506000919050565b60005460ff808416911610620001865760405162461bcd60e51b815260206004820152602e60248201526000805160206200258c83398151915260448201526d191e481a5b9a5d1a585b1a5e995960921b606482015260840162000116565b506000805460ff191660ff92909216919091179055600190565b6001600160a01b03163b151590565b60805160601c6123a2620001ea6000396000818161063901528181610679015281816107bc015281816107fc015261088b01526123a26000f3fe6080604052600436106101815760003560e01c80638129fc1c116100d1578063adc9772e1161008a578063d547741f11610064578063d547741f14610434578063ef5cfb8c14610454578063f6f6b88114610474578063f72c0d8b1461049457600080fd5b8063adc9772e146103d3578063cbc7854e146103f3578063cc3d6cf71461041357600080fd5b80638129fc1c1461034857806387429a9c1461035d57806391d148541461037e578063a217fddf1461039e578063a3673b3814610232578063a440b21a146103b357600080fd5b80633659cfe61161013e57806352d1902d1161011857806352d1902d146102dc578063620b75df146102f15780637b73aa4e146103115780637d5f58021461032657600080fd5b80633659cfe6146102895780634e49acac146102a95780634f1ef286146102c957600080fd5b806301ffc9a71461018657806311eac855146101bb578063248a9ca3146101f45780632576e65a146102325780632f2ff15d1461024757806336568abe14610269575b600080fd5b34801561019257600080fd5b506101a66101a1366004611f7f565b6104c8565b60405190151581526020015b60405180910390f35b3480156101c757600080fd5b5061012d546101dc906001600160a01b031681565b6040516001600160a01b0390911681526020016101b2565b34801561020057600080fd5b5061022461020f366004611f28565b60009081526065602052604090206001015490565b6040519081526020016101b2565b34801561023e57600080fd5b506102246104ff565b34801561025357600080fd5b50610267610262366004611f5a565b610581565b005b34801561027557600080fd5b50610267610284366004611f5a565b6105ab565b34801561029557600080fd5b506102676102a4366004611d55565b61062e565b3480156102b557600080fd5b506102676102c4366004611d55565b61070e565b6102676102d7366004611dc8565b6107b1565b3480156102e857600080fd5b5061022461087e565b3480156102fd57600080fd5b5060fb546101dc906001600160a01b031681565b34801561031d57600080fd5b50610267610931565b34801561033257600080fd5b5061022460008051602061230683398151915281565b34801561035457600080fd5b50610267610967565b34801561036957600080fd5b5061012f546101dc906001600160a01b031681565b34801561038a57600080fd5b506101a6610399366004611f5a565b6109d5565b3480156103aa57600080fd5b50610224600081565b3480156103bf57600080fd5b506102676103ce366004611d55565b610a00565b3480156103df57600080fd5b506102676103ee366004611e8c565b610ad8565b3480156103ff57600080fd5b5061026761040e366004611d8f565b610bc1565b34801561041f57600080fd5b5061012e546101dc906001600160a01b031681565b34801561044057600080fd5b5061026761044f366004611f5a565b610ca4565b34801561046057600080fd5b5061022461046f366004611d55565b610cc9565b34801561048057600080fd5b5061022461048f366004611eb8565b610d40565b3480156104a057600080fd5b506102247f189ab7a9244df0848122154315af71fe140f3db0fe014031783b0946b8c9d2e381565b60006001600160e01b03198216637965db0b60e01b14806104f957506301ffc9a760e01b6001600160e01b03198316145b92915050565b61012e546040516370a0823160e01b81523060048201526000916001600160a01b0316906370a082319060240160206040518083038186803b15801561054457600080fd5b505afa158015610558573d6000803e3d6000fd5b505050506040513d601f19601f8201168201806040525081019061057c9190611f41565b905090565b60008281526065602052604090206001015461059c81610f51565b6105a68383610f5b565b505050565b6001600160a01b03811633146106205760405162461bcd60e51b815260206004820152602f60248201527f416363657373436f6e74726f6c3a2063616e206f6e6c792072656e6f756e636560448201526e103937b632b9903337b91039b2b63360891b60648201526084015b60405180910390fd5b61062a8282610fe1565b5050565b306001600160a01b037f00000000000000000000000000000000000000000000000000000000000000001614156106775760405162461bcd60e51b8152600401610617906120a4565b7f00000000000000000000000000000000000000000000000000000000000000006001600160a01b03166106c0600080516020612326833981519152546001600160a01b031690565b6001600160a01b0316146106e65760405162461bcd60e51b8152600401610617906120f0565b6106ef81611048565b6040805160008082526020820190925261070b91839190611072565b50565b6107196000336109d5565b6107355760405162461bcd60e51b81526004016106179061218a565b6001600160a01b03811661075b5760405162461bcd60e51b8152600401610617906121ef565b61012f80546001600160a01b0319166001600160a01b0383169081179091556040519081527f965d63a2679401e09fd82b199270ff04cc99133b1043023e6bb9c09d54d2ec90906020015b60405180910390a150565b306001600160a01b037f00000000000000000000000000000000000000000000000000000000000000001614156107fa5760405162461bcd60e51b8152600401610617906120a4565b7f00000000000000000000000000000000000000000000000000000000000000006001600160a01b0316610843600080516020612326833981519152546001600160a01b031690565b6001600160a01b0316146108695760405162461bcd60e51b8152600401610617906120f0565b61087282611048565b61062a82826001611072565b6000306001600160a01b037f0000000000000000000000000000000000000000000000000000000000000000161461091e5760405162461bcd60e51b815260206004820152603860248201527f555550535570677261646561626c653a206d757374206e6f742062652063616c60448201527f6c6564207468726f7567682064656c656761746563616c6c00000000000000006064820152608401610617565b5060008051602061232683398151915290565b610949600080516020612306833981519152336109d5565b6109655760405162461bcd60e51b81526004016106179061206d565b565b600061097360016111ec565b9050801561098b576000805461ff0019166101001790555b610993611274565b801561070b576000805461ff0019169055604051600181527f7f26b83ff96e1f2b6a682f133852f6798a09c465da95921460cefb3847402498906020016107a6565b60009182526065602090815260408084206001600160a01b0393909316845291905290205460ff1690565b610a0b6000336109d5565b610a275760405162461bcd60e51b81526004016106179061218a565b6001600160a01b038116610a4d5760405162461bcd60e51b8152600401610617906121ef565b60fb54610a7290600080516020612306833981519152906001600160a01b0316610ca4565b610a8a60008051602061230683398151915282610581565b60fb80546001600160a01b0319166001600160a01b0383169081179091556040519081527ff7b449fcd5cfb7379dcd34cb69428dd9f882033b15be33d83b42d91daa28eeb7906020016107a6565b610af0600080516020612306833981519152336109d5565b610b0c5760405162461bcd60e51b81526004016106179061206d565b6040518181527f227a473b70d2f893cc7659219575c030a63b5743024fe1e0c1a680e708b1525a9060200160405180910390a16040516370a0823160e01b815230600482015261062a9083906001600160a01b038216906370a082319060240160206040518083038186803b158015610b8457600080fd5b505afa158015610b98573d6000803e3d6000fd5b505050506040513d601f19601f82011682018060405250810190610bbc9190611f41565b6112dd565b610bcc6000336109d5565b610be85760405162461bcd60e51b81526004016106179061218a565b6001600160a01b038216610c0e5760405162461bcd60e51b8152600401610617906121ef565b6001600160a01b038116610c345760405162461bcd60e51b8152600401610617906121ef565b61012d80546001600160a01b038481166001600160a01b0319928316811790935561012e80549185169190921681179091556040805192835260208301919091527f16fc1d4b0e3d56ab080a0ba375c75439b7625fa20b3ea921fcee9660e842ee8f910160405180910390a15050565b600082815260656020526040902060010154610cbf81610f51565b6105a68383610fe1565b6000610ce3600080516020612306833981519152336109d5565b610cff5760405162461bcd60e51b81526004016106179061206d565b60007f3ac0594a85a20354f9dc74f33728416d19ce00d04a406c108cc2dcf2cecea13481604051610d3291815260200190565b60405180910390a192915050565b6000610d5a600080516020612306833981519152336109d5565b610d765760405162461bcd60e51b81526004016106179061206d565b60008215610d8f57610d88868561148c565b9050610dfe565b610d9a8686866116e5565b905084811015610dfe5760405162461bcd60e51b815260206004820152602960248201527f52657475726e65642076616c7565206c657373207468616e2072657175657374604482015268195908185b5bdd5b9d60ba1b6064820152608401610617565b6040516370a0823160e01b81523060048201526000906001600160a01b038816906370a082319060240160206040518083038186803b158015610e4057600080fd5b505afa158015610e54573d6000803e3d6000fd5b505050506040513d601f19601f82011682018060405250810190610e789190611f41565b60405163a9059cbb60e01b81526001600160a01b038781166004830152602482018390529192509088169063a9059cbb90604401602060405180830381600087803b158015610ec657600080fd5b505af1158015610eda573d6000803e3d6000fd5b505050506040513d601f19601f82011682018060405250810190610efe9190611f0b565b5060408051878152602081018390527f9045c2ac9b2026de8075f2701bbdde882cd5e830b3b1ead9a15b22f2b5b93742910160405180910390a19695505050505050565b6001600160a01b03163b151590565b61070b81336118b6565b610f6582826109d5565b61062a5760008281526065602090815260408083206001600160a01b03851684529091529020805460ff19166001179055610f9d3390565b6001600160a01b0316816001600160a01b0316837f2f8788117e7eff1d82e926ec794901d17c78024a50270940304540a733656f0d60405160405180910390a45050565b610feb82826109d5565b1561062a5760008281526065602090815260408083206001600160a01b0385168085529252808320805460ff1916905551339285917ff6391f5c32d9c69d2a47ea670b442974b53935d1edc7fd64eb21e047a839171b9190a45050565b7f189ab7a9244df0848122154315af71fe140f3db0fe014031783b0946b8c9d2e361062a81610f51565b7f4910fdfa16fed3260ed0e7147f7cc6da11a60208b5b9406d12a635614ffd91435460ff16156110a5576105a68361191a565b826001600160a01b03166352d1902d6040518163ffffffff1660e01b815260040160206040518083038186803b1580156110de57600080fd5b505afa92505050801561110e575060408051601f3d908101601f1916820190925261110b91810190611f41565b60015b6111715760405162461bcd60e51b815260206004820152602e60248201527f45524331393637557067726164653a206e657720696d706c656d656e7461746960448201526d6f6e206973206e6f74205555505360901b6064820152608401610617565b60008051602061232683398151915281146111e05760405162461bcd60e51b815260206004820152602960248201527f45524331393637557067726164653a20756e737570706f727465642070726f786044820152681a58589b195555525160ba1b6064820152608401610617565b506105a68383836119b6565b60008054610100900460ff1615611233578160ff16600114801561120f5750303b155b61122b5760405162461bcd60e51b81526004016106179061213c565b506000919050565b60005460ff80841691161061125a5760405162461bcd60e51b81526004016106179061213c565b506000805460ff191660ff92909216919091179055600190565b600061128060016111ec565b90508015611298576000805461ff0019166101001790555b6112a06119e1565b6112a86119e1565b6112b3600033610f5b565b6109937f189ab7a9244df0848122154315af71fe140f3db0fe014031783b0946b8c9d2e333610f5b565b61012d546001600160a01b0383811691161461130b5760405162461bcd60e51b8152600401610617906121b8565b61012f5460408051630261bf8b60e01b815290516000926001600160a01b031691630261bf8b916004808301926020929190829003018186803b15801561135157600080fd5b505afa158015611365573d6000803e3d6000fd5b505050506040513d601f19601f820116820180604052508101906113899190611d72565b61012d5460405163095ea7b360e01b81526001600160a01b0380841660048301526024820186905292935091169063095ea7b390604401602060405180830381600087803b1580156113da57600080fd5b505af11580156113ee573d6000803e3d6000fd5b505050506040513d601f19601f820116820180604052508101906114129190611f0b565b5061012d5460405163e8eda9df60e01b81526001600160a01b03918216600482015260248101849052306044820152600060648201529082169063e8eda9df90608401600060405180830381600087803b15801561146f57600080fd5b505af1158015611483573d6000803e3d6000fd5b50505050505050565b61012d546000906001600160a01b038481169116146114bd5760405162461bcd60e51b8152600401610617906121b8565b61012e546040516370a0823160e01b81523060048201526000916001600160a01b0316906370a082319060240160206040518083038186803b15801561150257600080fd5b505afa158015611516573d6000803e3d6000fd5b505050506040513d601f19601f8201168201806040525081019061153a9190611f41565b9050600061012f60009054906101000a90046001600160a01b03166001600160a01b0316630261bf8b6040518163ffffffff1660e01b815260040160206040518083038186803b15801561158d57600080fd5b505afa1580156115a1573d6000803e3d6000fd5b505050506040513d601f19601f820116820180604052508101906115c59190611d72565b61012e5460405163095ea7b360e01b81526001600160a01b0380841660048301526024820186905292935091169063095ea7b390604401602060405180830381600087803b15801561161657600080fd5b505af115801561162a573d6000803e3d6000fd5b505050506040513d601f19601f8201168201806040525081019061164e9190611f0b565b50604051631a4ca37b60e21b81526001600160a01b03868116600483015260248201849052306044830152600091908316906369328dec90606401602060405180830381600087803b1580156116a357600080fd5b505af11580156116b7573d6000803e3d6000fd5b505050506040513d601f19601f820116820180604052508101906116db9190611f41565b9695505050505050565b61012d546000906001600160a01b038581169116146117165760405162461bcd60e51b8152600401610617906121b8565b61012f5460408051630261bf8b60e01b815290516000926001600160a01b031691630261bf8b916004808301926020929190829003018186803b15801561175c57600080fd5b505afa158015611770573d6000803e3d6000fd5b505050506040513d601f19601f820116820180604052508101906117949190611d72565b61012e5460405163095ea7b360e01b81526001600160a01b0380841660048301526024820188905292935091169063095ea7b390604401602060405180830381600087803b1580156117e557600080fd5b505af11580156117f9573d6000803e3d6000fd5b505050506040513d601f19601f8201168201806040525081019061181d9190611f0b565b50604051631a4ca37b60e21b81526001600160a01b03868116600483015260248201869052306044830152600091908316906369328dec90606401602060405180830381600087803b15801561187257600080fd5b505af1158015611886573d6000803e3d6000fd5b505050506040513d601f19601f820116820180604052508101906118aa9190611f41565b925050505b9392505050565b6118c082826109d5565b61062a576118d8816001600160a01b03166014611a4c565b6118e3836020611a4c565b6040516020016118f4929190611fc5565b60408051601f198184030181529082905262461bcd60e51b82526106179160040161203a565b6001600160a01b0381163b6119875760405162461bcd60e51b815260206004820152602d60248201527f455243313936373a206e657720696d706c656d656e746174696f6e206973206e60448201526c1bdd08184818dbdb9d1c9858dd609a1b6064820152608401610617565b60008051602061232683398151915280546001600160a01b0319166001600160a01b0392909216919091179055565b6119bf83611be8565b6000825111806119cc5750805b156105a6576119db8383611c28565b50505050565b600054610100900460ff166109655760405162461bcd60e51b815260206004820152602b60248201527f496e697469616c697a61626c653a20636f6e7472616374206973206e6f74206960448201526a6e697469616c697a696e6760a81b6064820152608401610617565b60606000611a5b83600261223e565b611a66906002612226565b67ffffffffffffffff811115611a7e57611a7e6122cc565b6040519080825280601f01601f191660200182016040528015611aa8576020820181803683370190505b509050600360fc1b81600081518110611ac357611ac36122b6565b60200101906001600160f81b031916908160001a905350600f60fb1b81600181518110611af257611af26122b6565b60200101906001600160f81b031916908160001a9053506000611b1684600261223e565b611b21906001612226565b90505b6001811115611b99576f181899199a1a9b1b9c1cb0b131b232b360811b85600f1660108110611b5557611b556122b6565b1a60f81b828281518110611b6b57611b6b6122b6565b60200101906001600160f81b031916908160001a90535060049490941c93611b9281612289565b9050611b24565b5083156118af5760405162461bcd60e51b815260206004820181905260248201527f537472696e67733a20686578206c656e67746820696e73756666696369656e746044820152606401610617565b611bf18161191a565b6040516001600160a01b038216907fbc7cd75a20ee27fd9adebab32041f755214dbc6bffa90cc0225b39da2e5c2d3b90600090a250565b60606001600160a01b0383163b611c905760405162461bcd60e51b815260206004820152602660248201527f416464726573733a2064656c65676174652063616c6c20746f206e6f6e2d636f6044820152651b9d1c9858dd60d21b6064820152608401610617565b600080846001600160a01b031684604051611cab9190611fa9565b600060405180830381855af49150503d8060008114611ce6576040519150601f19603f3d011682016040523d82523d6000602084013e611ceb565b606091505b5091509150611d13828260405180606001604052806027815260200161234660279139611d1c565b95945050505050565b60608315611d2b5750816118af565b825115611d3b5782518084602001fd5b8160405162461bcd60e51b8152600401610617919061203a565b600060208284031215611d6757600080fd5b81356118af816122e2565b600060208284031215611d8457600080fd5b81516118af816122e2565b60008060408385031215611da257600080fd5b8235611dad816122e2565b91506020830135611dbd816122e2565b809150509250929050565b60008060408385031215611ddb57600080fd5b8235611de6816122e2565b9150602083013567ffffffffffffffff80821115611e0357600080fd5b818501915085601f830112611e1757600080fd5b813581811115611e2957611e296122cc565b604051601f8201601f19908116603f01168101908382118183101715611e5157611e516122cc565b81604052828152886020848701011115611e6a57600080fd5b8260208601602083013760006020848301015280955050505050509250929050565b60008060408385031215611e9f57600080fd5b8235611eaa816122e2565b946020939093013593505050565b60008060008060808587031215611ece57600080fd5b8435611ed9816122e2565b9350602085013592506040850135611ef0816122e2565b91506060850135611f00816122f7565b939692955090935050565b600060208284031215611f1d57600080fd5b81516118af816122f7565b600060208284031215611f3a57600080fd5b5035919050565b600060208284031215611f5357600080fd5b5051919050565b60008060408385031215611f6d57600080fd5b823591506020830135611dbd816122e2565b600060208284031215611f9157600080fd5b81356001600160e01b0319811681146118af57600080fd5b60008251611fbb81846020870161225d565b9190910192915050565b7f416363657373436f6e74726f6c3a206163636f756e7420000000000000000000815260008351611ffd81601785016020880161225d565b7001034b99036b4b9b9b4b733903937b6329607d1b601791840191820152835161202e81602884016020880161225d565b01602801949350505050565b602081526000825180602084015261205981604085016020870161225d565b601f01601f19169190910160400192915050565b6020808252601f908201527f5265737472696374656420746f20504f5254464f4c494f5f4d414e4147455200604082015260600190565b6020808252602c908201527f46756e6374696f6e206d7573742062652063616c6c6564207468726f7567682060408201526b19195b1959d85d1958d85b1b60a21b606082015260800190565b6020808252602c908201527f46756e6374696f6e206d7573742062652063616c6c6564207468726f7567682060408201526b6163746976652070726f787960a01b606082015260800190565b6020808252602e908201527f496e697469616c697a61626c653a20636f6e747261637420697320616c72656160408201526d191e481a5b9a5d1a585b1a5e995960921b606082015260800190565b6020808252601490820152735265737472696374656420746f2061646d696e7360601b604082015260600190565b60208082526019908201527f536f6d6520746f6b656e206e6f7420636f6d70617469626c6500000000000000604082015260600190565b60208082526018908201527f5a65726f2061646472657373206e6f7420616c6c6f7765640000000000000000604082015260600190565b60008219821115612239576122396122a0565b500190565b6000816000190483118215151615612258576122586122a0565b500290565b60005b83811015612278578181015183820152602001612260565b838111156119db5750506000910152565b600081612298576122986122a0565b506000190190565b634e487b7160e01b600052601160045260246000fd5b634e487b7160e01b600052603260045260246000fd5b634e487b7160e01b600052604160045260246000fd5b6001600160a01b038116811461070b57600080fd5b801515811461070b57600080fdfe90c2aa7471c04182221f68e80c07ab1e5946e4c63f8693e14ca40385d529f051360894a13ba1a3210667c828492db98dca3e2076cc3735a920a3ca505d382bbc416464726573733a206c6f772d6c6576656c2064656c65676174652063616c6c206661696c6564a2646970667358221220a693cd04922fcbeed6b72a79d0baf9cdd1e785c8d146079e8311d19c4bb67b4a64736f6c63430008060033496e697469616c697a61626c653a20636f6e747261637420697320616c726561",
  "devdoc": {
    "kind": "dev",
    "methods": {
      "constructor": {
        "custom:oz-upgrades-unsafe-allow": "constructor"
      },
      "getRoleAdmin(bytes32)": {
        "details": "Returns the admin role that controls `role`. See {grantRole} and {revokeRole}. To change a role's admin, use {_setRoleAdmin}."
      },
      "grantRole(bytes32,address)": {
        "details": "Grants `role` to `account`. If `account` had not been already granted `role`, emits a {RoleGranted} event. Requirements: - the caller must have ``role``'s admin role."
      },
      "hasRole(bytes32,address)": {
        "details": "Returns `true` if `account` has been granted `role`."
      },
      "proxiableUUID()": {
        "details": "Implementation of the ERC1822 {proxiableUUID} function. This returns the storage slot used by the implementation. It is used to validate that the this implementation remains valid after an upgrade. IMPORTANT: A proxy pointing at a proxiable contract should not be considered proxiable itself, because this risks bricking a proxy that upgrades to it, by delegating to itself until out of gas. Thus it is critical that this function revert if invoked through a proxy. This is guaranteed by the `notDelegated` modifier."
      },
      "renounceRole(bytes32,address)": {
        "details": "Revokes `role` from the calling account. Roles are often managed via {grantRole} and {revokeRole}: this function's purpose is to provide a mechanism for accounts to lose their privileges if they are compromised (such as when a trusted device is misplaced). If the calling account had been revoked `role`, emits a {RoleRevoked} event. Requirements: - the caller must be `account`."
      },
      "revokeRole(bytes32,address)": {
        "details": "Revokes `role` from `account`. If `account` had been granted `role`, emits a {RoleRevoked} event. Requirements: - the caller must have ``role``'s admin role."
      },
      "supportsInterface(bytes4)": {
        "details": "See {IERC165-supportsInterface}."
      },
      "upgradeTo(address)": {
        "details": "Upgrade the implementation of the proxy to `newImplementation`. Calls {_authorizeUpgrade}. Emits an {Upgraded} event."
      },
      "upgradeToAndCall(address,bytes)": {
        "details": "Upgrade the implementation of the proxy to `newImplementation`, and subsequently execute the function call encoded in `data`. Calls {_authorizeUpgrade}. Emits an {Upgraded} event."
      }
    },
    "version": 1
  },
  "userdoc": {
    "kind": "user",
    "methods": {},
    "version": 1
  },
  "storageLayout": {
    "storage": [
      {
        "astId": 808,
        "contract": "contracts/StrategyAave.sol:StrategyAave",
        "label": "_initialized",
        "offset": 0,
        "slot": "0",
        "type": "t_uint8"
      },
      {
        "astId": 811,
        "contract": "contracts/StrategyAave.sol:StrategyAave",
        "label": "_initializing",
        "offset": 1,
        "slot": "0",
        "type": "t_bool"
      },
      {
        "astId": 1363,
        "contract": "contracts/StrategyAave.sol:StrategyAave",
        "label": "__gap",
        "offset": 0,
        "slot": "1",
        "type": "t_array(t_uint256)50_storage"
      },
      {
        "astId": 1670,
        "contract": "contracts/StrategyAave.sol:StrategyAave",
        "label": "__gap",
        "offset": 0,
        "slot": "51",
        "type": "t_array(t_uint256)50_storage"
      },
      {
        "astId": 39,
        "contract": "contracts/StrategyAave.sol:StrategyAave",
        "label": "_roles",
        "offset": 0,
        "slot": "101",
        "type": "t_mapping(t_bytes32,t_struct(RoleData)34_storage)"
      },
      {
        "astId": 338,
        "contract": "contracts/StrategyAave.sol:StrategyAave",
        "label": "__gap",
        "offset": 0,
        "slot": "102",
        "type": "t_array(t_uint256)49_storage"
      },
      {
        "astId": 790,
        "contract": "contracts/StrategyAave.sol:StrategyAave",
        "label": "__gap",
        "offset": 0,
        "slot": "151",
        "type": "t_array(t_uint256)50_storage"
      },
      {
        "astId": 1078,
        "contract": "contracts/StrategyAave.sol:StrategyAave",
        "label": "__gap",
        "offset": 0,
        "slot": "201",
        "type": "t_array(t_uint256)50_storage"
      },
      {
        "astId": 31103,
        "contract": "contracts/StrategyAave.sol:StrategyAave",
        "label": "portfolioManager",
        "offset": 0,
        "slot": "251",
        "type": "t_address"
      },
      {
        "astId": 31410,
        "contract": "contracts/StrategyAave.sol:StrategyAave",
        "label": "__gap",
        "offset": 0,
        "slot": "252",
        "type": "t_array(t_uint256)49_storage"
      },
      {
        "astId": 2750,
        "contract": "contracts/StrategyAave.sol:StrategyAave",
        "label": "usdcToken",
        "offset": 0,
        "slot": "301",
        "type": "t_contract(IERC20)1823"
      },
      {
        "astId": 2753,
        "contract": "contracts/StrategyAave.sol:StrategyAave",
        "label": "aUsdcToken",
        "offset": 0,
        "slot": "302",
        "type": "t_contract(IERC20)1823"
      },
      {
        "astId": 2756,
        "contract": "contracts/StrategyAave.sol:StrategyAave",
        "label": "aaveProvider",
        "offset": 0,
        "slot": "303",
        "type": "t_contract(ILendingPoolAddressesProvider)25394"
      }
    ],
    "types": {
      "t_address": {
        "encoding": "inplace",
        "label": "address",
        "numberOfBytes": "20"
      },
      "t_array(t_uint256)49_storage": {
        "base": "t_uint256",
        "encoding": "inplace",
        "label": "uint256[49]",
        "numberOfBytes": "1568"
      },
      "t_array(t_uint256)50_storage": {
        "base": "t_uint256",
        "encoding": "inplace",
        "label": "uint256[50]",
        "numberOfBytes": "1600"
      },
      "t_bool": {
        "encoding": "inplace",
        "label": "bool",
        "numberOfBytes": "1"
      },
      "t_bytes32": {
        "encoding": "inplace",
        "label": "bytes32",
        "numberOfBytes": "32"
      },
      "t_contract(IERC20)1823": {
        "encoding": "inplace",
        "label": "contract IERC20",
        "numberOfBytes": "20"
      },
      "t_contract(ILendingPoolAddressesProvider)25394": {
        "encoding": "inplace",
        "label": "contract ILendingPoolAddressesProvider",
        "numberOfBytes": "20"
      },
      "t_mapping(t_address,t_bool)": {
        "encoding": "mapping",
        "key": "t_address",
        "label": "mapping(address => bool)",
        "numberOfBytes": "32",
        "value": "t_bool"
      },
      "t_mapping(t_bytes32,t_struct(RoleData)34_storage)": {
        "encoding": "mapping",
        "key": "t_bytes32",
        "label": "mapping(bytes32 => struct AccessControlUpgradeable.RoleData)",
        "numberOfBytes": "32",
        "value": "t_struct(RoleData)34_storage"
      },
      "t_struct(RoleData)34_storage": {
        "encoding": "inplace",
        "label": "struct AccessControlUpgradeable.RoleData",
        "members": [
          {
            "astId": 31,
            "contract": "contracts/StrategyAave.sol:StrategyAave",
            "label": "members",
            "offset": 0,
            "slot": "0",
            "type": "t_mapping(t_address,t_bool)"
          },
          {
            "astId": 33,
            "contract": "contracts/StrategyAave.sol:StrategyAave",
            "label": "adminRole",
            "offset": 0,
            "slot": "1",
            "type": "t_bytes32"
          }
        ],
        "numberOfBytes": "64"
      },
      "t_uint256": {
        "encoding": "inplace",
        "label": "uint256",
        "numberOfBytes": "32"
      },
      "t_uint8": {
        "encoding": "inplace",
        "label": "uint8",
        "numberOfBytes": "1"
      }
    }
  }
}