{
  "address": "0x2Ba4cc675F2d80aA812CC465c13fF0E5484E629F",
  "abi": [
    {
      "inputs": [],
      "stateMutability": "nonpayable",
      "type": "constructor"
    },
    {
      "anonymous": false,
      "inputs": [
        {
          "indexed": false,
          "internalType": "address",
          "name": "previousAdmin",
          "type": "address"
        },
        {
          "indexed": false,
          "internalType": "address",
          "name": "newAdmin",
          "type": "address"
        }
      ],
      "name": "AdminChanged",
      "type": "event"
    },
    {
      "anonymous": false,
      "inputs": [
        {
          "indexed": false,
          "internalType": "uint256",
          "name": "healthFactor",
          "type": "uint256"
        }
      ],
      "name": "BalanceHealthFactor",
      "type": "event"
    },
    {
      "anonymous": false,
      "inputs": [
        {
          "indexed": true,
          "internalType": "address",
          "name": "beacon",
          "type": "address"
        }
      ],
      "name": "BeaconUpgraded",
      "type": "event"
    },
    {
      "anonymous": false,
      "inputs": [
        {
          "indexed": false,
          "internalType": "uint8",
          "name": "version",
          "type": "uint8"
        }
      ],
      "name": "Initialized",
      "type": "event"
    },
    {
      "anonymous": false,
      "inputs": [
        {
          "indexed": false,
          "internalType": "address",
          "name": "value",
          "type": "address"
        }
      ],
      "name": "PortfolioManagerUpdated",
      "type": "event"
    },
    {
      "anonymous": false,
      "inputs": [
        {
          "indexed": false,
          "internalType": "uint256",
          "name": "amount",
          "type": "uint256"
        }
      ],
      "name": "Reward",
      "type": "event"
    },
    {
      "anonymous": false,
      "inputs": [
        {
          "indexed": true,
          "internalType": "bytes32",
          "name": "role",
          "type": "bytes32"
        },
        {
          "indexed": true,
          "internalType": "bytes32",
          "name": "previousAdminRole",
          "type": "bytes32"
        },
        {
          "indexed": true,
          "internalType": "bytes32",
          "name": "newAdminRole",
          "type": "bytes32"
        }
      ],
      "name": "RoleAdminChanged",
      "type": "event"
    },
    {
      "anonymous": false,
      "inputs": [
        {
          "indexed": true,
          "internalType": "bytes32",
          "name": "role",
          "type": "bytes32"
        },
        {
          "indexed": true,
          "internalType": "address",
          "name": "account",
          "type": "address"
        },
        {
          "indexed": true,
          "internalType": "address",
          "name": "sender",
          "type": "address"
        }
      ],
      "name": "RoleGranted",
      "type": "event"
    },
    {
      "anonymous": false,
      "inputs": [
        {
          "indexed": true,
          "internalType": "bytes32",
          "name": "role",
          "type": "bytes32"
        },
        {
          "indexed": true,
          "internalType": "address",
          "name": "account",
          "type": "address"
        },
        {
          "indexed": true,
          "internalType": "address",
          "name": "sender",
          "type": "address"
        }
      ],
      "name": "RoleRevoked",
      "type": "event"
    },
    {
      "anonymous": false,
      "inputs": [
        {
          "indexed": false,
          "internalType": "uint256",
          "name": "healthFactor",
          "type": "uint256"
        }
      ],
      "name": "SetHealthFactor",
      "type": "event"
    },
    {
      "anonymous": false,
      "inputs": [
        {
          "indexed": false,
          "internalType": "uint256",
          "name": "amount",
          "type": "uint256"
        }
      ],
      "name": "Stake",
      "type": "event"
    },
    {
      "anonymous": false,
      "inputs": [
        {
          "indexed": false,
          "internalType": "address",
          "name": "swap",
          "type": "address"
        },
        {
          "indexed": false,
          "internalType": "address",
          "name": "miniChefV2",
          "type": "address"
        },
        {
          "indexed": false,
          "internalType": "address",
          "name": "sushiSwapRouter",
          "type": "address"
        },
        {
          "indexed": false,
          "internalType": "uint256",
          "name": "pid",
          "type": "uint256"
        }
      ],
      "name": "StrategyUpdatedParams",
      "type": "event"
    },
    {
      "anonymous": false,
      "inputs": [
        {
          "indexed": false,
          "internalType": "address",
          "name": "usdcToken",
          "type": "address"
        },
        {
          "indexed": false,
          "internalType": "address",
          "name": "nUsdLPToken",
          "type": "address"
        },
        {
          "indexed": false,
          "internalType": "address",
          "name": "synToken",
          "type": "address"
        }
      ],
      "name": "StrategyUpdatedTokens",
      "type": "event"
    },
    {
      "anonymous": false,
      "inputs": [
        {
          "indexed": false,
          "internalType": "uint256",
          "name": "amount",
          "type": "uint256"
        },
        {
          "indexed": false,
          "internalType": "uint256",
          "name": "amountReceived",
          "type": "uint256"
        }
      ],
      "name": "Unstake",
      "type": "event"
    },
    {
      "anonymous": false,
      "inputs": [
        {
          "indexed": true,
          "internalType": "address",
          "name": "implementation",
          "type": "address"
        }
      ],
      "name": "Upgraded",
      "type": "event"
    },
    {
      "inputs": [],
      "name": "BASIS_POINTS_FOR_SLIPPAGE",
      "outputs": [
        {
          "internalType": "uint256",
          "name": "",
          "type": "uint256"
        }
      ],
      "stateMutability": "view",
      "type": "function"
    },
    {
      "inputs": [],
      "name": "DEFAULT_ADMIN_ROLE",
      "outputs": [
        {
          "internalType": "bytes32",
          "name": "",
          "type": "bytes32"
        }
      ],
      "stateMutability": "view",
      "type": "function"
    },
    {
      "inputs": [],
      "name": "PORTFOLIO_MANAGER",
      "outputs": [
        {
          "internalType": "bytes32",
          "name": "",
          "type": "bytes32"
        }
      ],
      "stateMutability": "view",
      "type": "function"
    },
    {
      "inputs": [],
      "name": "UPGRADER_ROLE",
      "outputs": [
        {
          "internalType": "bytes32",
          "name": "",
          "type": "bytes32"
        }
      ],
      "stateMutability": "view",
      "type": "function"
    },
    {
      "inputs": [
        {
          "internalType": "address",
          "name": "_to",
          "type": "address"
        }
      ],
      "name": "claimRewards",
      "outputs": [
        {
          "internalType": "uint256",
          "name": "",
          "type": "uint256"
        }
      ],
      "stateMutability": "nonpayable",
      "type": "function"
    },
    {
      "inputs": [
        {
          "internalType": "bytes32",
          "name": "role",
          "type": "bytes32"
        }
      ],
      "name": "getRoleAdmin",
      "outputs": [
        {
          "internalType": "bytes32",
          "name": "",
          "type": "bytes32"
        }
      ],
      "stateMutability": "view",
      "type": "function"
    },
    {
      "inputs": [
        {
          "internalType": "bytes32",
          "name": "role",
          "type": "bytes32"
        },
        {
          "internalType": "address",
          "name": "account",
          "type": "address"
        }
      ],
      "name": "grantRole",
      "outputs": [],
      "stateMutability": "nonpayable",
      "type": "function"
    },
    {
      "inputs": [
        {
          "internalType": "bytes32",
          "name": "role",
          "type": "bytes32"
        },
        {
          "internalType": "address",
          "name": "account",
          "type": "address"
        }
      ],
      "name": "hasRole",
      "outputs": [
        {
          "internalType": "bool",
          "name": "",
          "type": "bool"
        }
      ],
      "stateMutability": "view",
      "type": "function"
    },
    {
      "inputs": [],
      "name": "healthFactorBalance",
      "outputs": [],
      "stateMutability": "nonpayable",
      "type": "function"
    },
    {
      "inputs": [],
      "name": "initialize",
      "outputs": [],
      "stateMutability": "nonpayable",
      "type": "function"
    },
    {
      "inputs": [],
      "name": "liquidationValue",
      "outputs": [
        {
          "internalType": "uint256",
          "name": "",
          "type": "uint256"
        }
      ],
      "stateMutability": "view",
      "type": "function"
    },
    {
      "inputs": [],
      "name": "miniChefV2",
      "outputs": [
        {
          "internalType": "contract IMiniChefV2",
          "name": "",
          "type": "address"
        }
      ],
      "stateMutability": "view",
      "type": "function"
    },
    {
      "inputs": [],
      "name": "nUsdLPToken",
      "outputs": [
        {
          "internalType": "contract IERC20",
          "name": "",
          "type": "address"
        }
      ],
      "stateMutability": "view",
      "type": "function"
    },
    {
      "inputs": [],
      "name": "netAssetValue",
      "outputs": [
        {
          "internalType": "uint256",
          "name": "",
          "type": "uint256"
        }
      ],
      "stateMutability": "view",
      "type": "function"
    },
    {
      "inputs": [],
      "name": "pid",
      "outputs": [
        {
          "internalType": "uint256",
          "name": "",
          "type": "uint256"
        }
      ],
      "stateMutability": "view",
      "type": "function"
    },
    {
      "inputs": [],
      "name": "portfolioManager",
      "outputs": [
        {
          "internalType": "address",
          "name": "",
          "type": "address"
        }
      ],
      "stateMutability": "view",
      "type": "function"
    },
    {
      "inputs": [],
      "name": "proxiableUUID",
      "outputs": [
        {
          "internalType": "bytes32",
          "name": "",
          "type": "bytes32"
        }
      ],
      "stateMutability": "view",
      "type": "function"
    },
    {
      "inputs": [
        {
          "internalType": "bytes32",
          "name": "role",
          "type": "bytes32"
        },
        {
          "internalType": "address",
          "name": "account",
          "type": "address"
        }
      ],
      "name": "renounceRole",
      "outputs": [],
      "stateMutability": "nonpayable",
      "type": "function"
    },
    {
      "inputs": [
        {
          "internalType": "bytes32",
          "name": "role",
          "type": "bytes32"
        },
        {
          "internalType": "address",
          "name": "account",
          "type": "address"
        }
      ],
      "name": "revokeRole",
      "outputs": [],
      "stateMutability": "nonpayable",
      "type": "function"
    },
    {
      "inputs": [
        {
          "internalType": "uint256",
          "name": "healthFactor",
          "type": "uint256"
        }
      ],
      "name": "setHealthFactor",
      "outputs": [],
      "stateMutability": "nonpayable",
      "type": "function"
    },
    {
      "inputs": [
        {
          "internalType": "address",
          "name": "_swap",
          "type": "address"
        },
        {
          "internalType": "address",
          "name": "_miniChefV2",
          "type": "address"
        },
        {
          "internalType": "address",
          "name": "_sushiSwapRouter",
          "type": "address"
        },
        {
          "internalType": "uint64",
          "name": "_pid",
          "type": "uint64"
        }
      ],
      "name": "setParams",
      "outputs": [],
      "stateMutability": "nonpayable",
      "type": "function"
    },
    {
      "inputs": [
        {
          "internalType": "address",
          "name": "_value",
          "type": "address"
        }
      ],
      "name": "setPortfolioManager",
      "outputs": [],
      "stateMutability": "nonpayable",
      "type": "function"
    },
    {
      "inputs": [
        {
          "internalType": "address",
          "name": "_usdcToken",
          "type": "address"
        },
        {
          "internalType": "address",
          "name": "_nUsdLPToken",
          "type": "address"
        },
        {
          "internalType": "address",
          "name": "_synToken",
          "type": "address"
        }
      ],
      "name": "setTokens",
      "outputs": [],
      "stateMutability": "nonpayable",
      "type": "function"
    },
    {
      "inputs": [
        {
          "internalType": "address",
          "name": "_asset",
          "type": "address"
        },
        {
          "internalType": "uint256",
          "name": "_amount",
          "type": "uint256"
        }
      ],
      "name": "stake",
      "outputs": [],
      "stateMutability": "nonpayable",
      "type": "function"
    },
    {
      "inputs": [
        {
          "internalType": "bytes4",
          "name": "interfaceId",
          "type": "bytes4"
        }
      ],
      "name": "supportsInterface",
      "outputs": [
        {
          "internalType": "bool",
          "name": "",
          "type": "bool"
        }
      ],
      "stateMutability": "view",
      "type": "function"
    },
    {
      "inputs": [],
      "name": "swap",
      "outputs": [
        {
          "internalType": "contract ISwap",
          "name": "",
          "type": "address"
        }
      ],
      "stateMutability": "view",
      "type": "function"
    },
    {
      "inputs": [],
      "name": "synToken",
      "outputs": [
        {
          "internalType": "contract IERC20",
          "name": "",
          "type": "address"
        }
      ],
      "stateMutability": "view",
      "type": "function"
    },
    {
      "inputs": [
        {
          "internalType": "address",
          "name": "_asset",
          "type": "address"
        },
        {
          "internalType": "uint256",
          "name": "_amount",
          "type": "uint256"
        },
        {
          "internalType": "address",
          "name": "_beneficiary",
          "type": "address"
        },
        {
          "internalType": "bool",
          "name": "_targetIsZero",
          "type": "bool"
        }
      ],
      "name": "unstake",
      "outputs": [
        {
          "internalType": "uint256",
          "name": "",
          "type": "uint256"
        }
      ],
      "stateMutability": "nonpayable",
      "type": "function"
    },
    {
      "inputs": [
        {
          "internalType": "address",
          "name": "newImplementation",
          "type": "address"
        }
      ],
      "name": "upgradeTo",
      "outputs": [],
      "stateMutability": "nonpayable",
      "type": "function"
    },
    {
      "inputs": [
        {
          "internalType": "address",
          "name": "newImplementation",
          "type": "address"
        },
        {
          "internalType": "bytes",
          "name": "data",
          "type": "bytes"
        }
      ],
      "name": "upgradeToAndCall",
      "outputs": [],
      "stateMutability": "payable",
      "type": "function"
    },
    {
      "inputs": [],
      "name": "usdcToken",
      "outputs": [
        {
          "internalType": "contract IERC20",
          "name": "",
          "type": "address"
        }
      ],
      "stateMutability": "view",
      "type": "function"
    }
  ],
  "numDeployments": 1,
  "solcInputHash": "47e303be6a3dc517c3f706d54c395e3b",
  "bytecode": "0x60a06040523060601b6080523480156200001857600080fd5b5060006200002760016200008e565b9050801562000040576000805461ff0019166101001790555b801562000087576000805461ff0019169055604051600181527f7f26b83ff96e1f2b6a682f133852f6798a09c465da95921460cefb38474024989060200160405180910390a15b50620001af565b60008054610100900460ff161562000127578160ff166001148015620000c75750620000c530620001a060201b620011111760201c565b155b6200011f5760405162461bcd60e51b815260206004820152602e60248201526000805160206200376583398151915260448201526d191e481a5b9a5d1a585b1a5e995960921b60648201526084015b60405180910390fd5b506000919050565b60005460ff808416911610620001865760405162461bcd60e51b815260206004820152602e60248201526000805160206200376583398151915260448201526d191e481a5b9a5d1a585b1a5e995960921b606482015260840162000116565b506000805460ff191660ff92909216919091179055600190565b6001600160a01b03163b151590565b60805160601c61357b620001ea6000396000818161071a0152818161075a0152818161091a0152818161095a01526109e9015261357b6000f3fe6080604052600436106101d85760003560e01c80637b73aa4e11610102578063a440b21a11610095578063f106845411610064578063f10684541461052d578063f664b3d914610544578063f6f6b88114610559578063f72c0d8b1461057957600080fd5b8063a440b21a146104ad578063adc9772e146104cd578063d547741f146104ed578063ef5cfb8c1461050d57600080fd5b80638129fc1c116100d15780638129fc1c1461046357806391d1485414610478578063a217fddf14610498578063a3673b381461028957600080fd5b80637b73aa4e146103eb5780637cea316d146104005780637d5f5802146104205780638119c0651461044257600080fd5b80633659cfe61161017a5780634f1ef286116101495780634f1ef2861461038257806352d1902d14610395578063620b75df146103aa5780636d52ecb0146103ca57600080fd5b80633659cfe614610300578063443be2091461032057806344a1342b146103405780634b7f63631461036157600080fd5b80632576e65a116101b65780632576e65a146102895780632f2ff15d1461029e57806331111708146102c057806336568abe146102e057600080fd5b806301ffc9a7146101dd57806311eac85514610212578063248a9ca31461024b575b600080fd5b3480156101e957600080fd5b506101fd6101f8366004612fcd565b6105ad565b60405190151581526020015b60405180910390f35b34801561021e57600080fd5b5061015f54610233906001600160a01b031681565b6040516001600160a01b039091168152602001610209565b34801561025757600080fd5b5061027b610266366004612f6f565b60009081526065602052604090206001015490565b604051908152602001610209565b34801561029557600080fd5b5061027b6105e4565b3480156102aa57600080fd5b506102be6102b9366004612fa1565b6105f3565b005b3480156102cc57600080fd5b506102be6102db366004612f6f565b61061d565b3480156102ec57600080fd5b506102be6102fb366004612fa1565b610691565b34801561030c57600080fd5b506102be61031b366004612cd0565b61070f565b34801561032c57600080fd5b506102be61033b366004612ceb565b6107ef565b34801561034c57600080fd5b5061016054610233906001600160a01b031681565b34801561036d57600080fd5b5061016354610233906001600160a01b031681565b6102be610390366004612d91565b61090f565b3480156103a157600080fd5b5061027b6109dc565b3480156103b657600080fd5b5060fb54610233906001600160a01b031681565b3480156103d657600080fd5b5061016154610233906001600160a01b031681565b3480156103f757600080fd5b506102be610a8f565b34801561040c57600080fd5b506102be61041b366004612d2e565b610ac5565b34801561042c57600080fd5b5061027b6000805160206134df83398151915281565b34801561044e57600080fd5b5061016254610233906001600160a01b031681565b34801561046f57600080fd5b506102be610c4e565b34801561048457600080fd5b506101fd610493366004612fa1565b610cbc565b3480156104a457600080fd5b5061027b600081565b3480156104b957600080fd5b506102be6104c8366004612cd0565b610ce7565b3480156104d957600080fd5b506102be6104e8366004612e37565b610dbf565b3480156104f957600080fd5b506102be610508366004612fa1565b610ea8565b34801561051957600080fd5b5061027b610528366004612cd0565b610ecd565b34801561053957600080fd5b5061027b6101645481565b34801561055057600080fd5b5061027b600481565b34801561056557600080fd5b5061027b610574366004612e61565b610f51565b34801561058557600080fd5b5061027b7f189ab7a9244df0848122154315af71fe140f3db0fe014031783b0946b8c9d2e381565b60006001600160e01b03198216637965db0b60e01b14806105de57506301ffc9a760e01b6001600160e01b03198316145b92915050565b60006105ee611120565b905090565b60008281526065602052604090206001015461060e816112ce565b61061883836112d8565b505050565b6106356000805160206134df83398151915233610cbc565b61065a5760405162461bcd60e51b81526004016106519061319c565b60405180910390fd5b6040518181527ff00d5f5126966481831a71a9d79a9b3af67c4a1a35637b992c7e465a7e465b71906020015b60405180910390a150565b6001600160a01b03811633146107015760405162461bcd60e51b815260206004820152602f60248201527f416363657373436f6e74726f6c3a2063616e206f6e6c792072656e6f756e636560448201526e103937b632b9903337b91039b2b63360891b6064820152608401610651565b61070b828261135e565b5050565b306001600160a01b037f00000000000000000000000000000000000000000000000000000000000000001614156107585760405162461bcd60e51b8152600401610651906131d3565b7f00000000000000000000000000000000000000000000000000000000000000006001600160a01b03166107a16000805160206134ff833981519152546001600160a01b031690565b6001600160a01b0316146107c75760405162461bcd60e51b81526004016106519061321f565b6107d0816113c5565b604080516000808252602082019092526107ec918391906113ef565b50565b6107fa600033610cbc565b6108165760405162461bcd60e51b8152600401610651906132b9565b6001600160a01b03831661083c5760405162461bcd60e51b81526004016106519061331e565b6001600160a01b0382166108625760405162461bcd60e51b81526004016106519061331e565b6001600160a01b0381166108885760405162461bcd60e51b81526004016106519061331e565b61015f80546001600160a01b038581166001600160a01b03199283168117909355610160805486831690841681179091556101618054928616929093168217909255604080519384526020840192909252908201527fad99e63fb7ea2f95b756b555df2e0ef5bdbc8b58df7b3aa5187c558e2714d0c59060600160405180910390a1505050565b306001600160a01b037f00000000000000000000000000000000000000000000000000000000000000001614156109585760405162461bcd60e51b8152600401610651906131d3565b7f00000000000000000000000000000000000000000000000000000000000000006001600160a01b03166109a16000805160206134ff833981519152546001600160a01b031690565b6001600160a01b0316146109c75760405162461bcd60e51b81526004016106519061321f565b6109d0826113c5565b61070b828260016113ef565b6000306001600160a01b037f00000000000000000000000000000000000000000000000000000000000000001614610a7c5760405162461bcd60e51b815260206004820152603860248201527f555550535570677261646561626c653a206d757374206e6f742062652063616c60448201527f6c6564207468726f7567682064656c656761746563616c6c00000000000000006064820152608401610651565b506000805160206134ff83398151915290565b610aa76000805160206134df83398151915233610cbc565b610ac35760405162461bcd60e51b81526004016106519061319c565b565b610ad0600033610cbc565b610aec5760405162461bcd60e51b8152600401610651906132b9565b6001600160a01b038416610b125760405162461bcd60e51b81526004016106519061331e565b6001600160a01b038316610b385760405162461bcd60e51b81526004016106519061331e565b6001600160a01b038216610b5e5760405162461bcd60e51b81526004016106519061331e565b67ffffffffffffffff8116610bae5760405162461bcd60e51b815260206004820152601660248201527516995c9bc81d985b1d59481b9bdd08185b1b1bddd95960521b6044820152606401610651565b61016280546001600160a01b038681166001600160a01b031992831681179093556101638054878316908416811790915561012d805492871692909316821790925567ffffffffffffffff8416610164819055604080519485526020850193909352838301919091526060830152517f2509d342f273f9cc03a5f1dcd7d7cd6e2953e95a7b5bd0e47e78a18d5c5c5b91916080908290030190a150505050565b6000610c5a6001611569565b90508015610c72576000805461ff0019166101001790555b610c7a6115f1565b80156107ec576000805461ff0019169055604051600181527f7f26b83ff96e1f2b6a682f133852f6798a09c465da95921460cefb384740249890602001610686565b60009182526065602090815260408084206001600160a01b0393909316845291905290205460ff1690565b610cf2600033610cbc565b610d0e5760405162461bcd60e51b8152600401610651906132b9565b6001600160a01b038116610d345760405162461bcd60e51b81526004016106519061331e565b60fb54610d59906000805160206134df833981519152906001600160a01b0316610ea8565b610d716000805160206134df833981519152826105f3565b60fb80546001600160a01b0319166001600160a01b0383169081179091556040519081527ff7b449fcd5cfb7379dcd34cb69428dd9f882033b15be33d83b42d91daa28eeb790602001610686565b610dd76000805160206134df83398151915233610cbc565b610df35760405162461bcd60e51b81526004016106519061319c565b6040518181527f227a473b70d2f893cc7659219575c030a63b5743024fe1e0c1a680e708b1525a9060200160405180910390a16040516370a0823160e01b815230600482015261070b9083906001600160a01b038216906370a082319060240160206040518083038186803b158015610e6b57600080fd5b505afa158015610e7f573d6000803e3d6000fd5b505050506040513d601f19601f82011682018060405250810190610ea39190612f88565b61165a565b600082815260656020526040902060010154610ec3816112ce565b610618838361135e565b6000610ee76000805160206134df83398151915233610cbc565b610f035760405162461bcd60e51b81526004016106519061319c565b6000610f0e836119f4565b90507f3ac0594a85a20354f9dc74f33728416d19ce00d04a406c108cc2dcf2cecea13481604051610f4191815260200190565b60405180910390a190505b919050565b6000610f6b6000805160206134df83398151915233610cbc565b610f875760405162461bcd60e51b81526004016106519061319c565b60008215610fdb577f3ac0594a85a20354f9dc74f33728416d19ce00d04a406c108cc2dcf2cecea134610fb9856119f4565b60405190815260200160405180910390a1610fd48685611ccf565b905061104a565b610fe68686866120b2565b90508481101561104a5760405162461bcd60e51b815260206004820152602960248201527f52657475726e65642076616c7565206c657373207468616e2072657175657374604482015268195908185b5bdd5b9d60ba1b6064820152608401610651565b60405163a9059cbb60e01b81526001600160a01b0385811660048301526024820183905287169063a9059cbb90604401602060405180830381600087803b15801561109457600080fd5b505af11580156110a8573d6000803e3d6000fd5b505050506040513d601f19601f820116820180604052508101906110cc9190612f52565b5060408051868152602081018390527f9045c2ac9b2026de8075f2701bbdde882cd5e830b3b1ead9a15b22f2b5b93742910160405180910390a190505b949350505050565b6001600160a01b03163b151590565b61015f546040516370a0823160e01b815230600482015260009182916001600160a01b03909116906370a082319060240160206040518083038186803b15801561116957600080fd5b505afa15801561117d573d6000803e3d6000fd5b505050506040513d601f19601f820116820180604052508101906111a19190612f88565b61016354610164546040516393f1a40b60e01b815260048101919091523060248201529192506000916001600160a01b03909116906393f1a40b90604401604080518083038186803b1580156111f657600080fd5b505afa15801561120a573d6000803e3d6000fd5b505050506040513d601f19601f8201168201806040525081019061122e9190612ff7565b50905080156112c8576101625460405163342a87a160e01b815260048101839052600260248201526001600160a01b039091169063342a87a19060440160206040518083038186803b15801561128357600080fd5b505afa158015611297573d6000803e3d6000fd5b505050506040513d601f19601f820116820180604052508101906112bb9190612f88565b6112c590836133db565b91505b50919050565b6107ec81336124d5565b6112e28282610cbc565b61070b5760008281526065602090815260408083206001600160a01b03851684529091529020805460ff1916600117905561131a3390565b6001600160a01b0316816001600160a01b0316837f2f8788117e7eff1d82e926ec794901d17c78024a50270940304540a733656f0d60405160405180910390a45050565b6113688282610cbc565b1561070b5760008281526065602090815260408083206001600160a01b0385168085529252808320805460ff1916905551339285917ff6391f5c32d9c69d2a47ea670b442974b53935d1edc7fd64eb21e047a839171b9190a45050565b7f189ab7a9244df0848122154315af71fe140f3db0fe014031783b0946b8c9d2e361070b816112ce565b7f4910fdfa16fed3260ed0e7147f7cc6da11a60208b5b9406d12a635614ffd91435460ff16156114225761061883612539565b826001600160a01b03166352d1902d6040518163ffffffff1660e01b815260040160206040518083038186803b15801561145b57600080fd5b505afa92505050801561148b575060408051601f3d908101601f1916820190925261148891810190612f88565b60015b6114ee5760405162461bcd60e51b815260206004820152602e60248201527f45524331393637557067726164653a206e657720696d706c656d656e7461746960448201526d6f6e206973206e6f74205555505360901b6064820152608401610651565b6000805160206134ff833981519152811461155d5760405162461bcd60e51b815260206004820152602960248201527f45524331393637557067726164653a20756e737570706f727465642070726f786044820152681a58589b195555525160ba1b6064820152608401610651565b506106188383836125d5565b60008054610100900460ff16156115b0578160ff16600114801561158c5750303b155b6115a85760405162461bcd60e51b81526004016106519061326b565b506000919050565b60005460ff8084169116106115d75760405162461bcd60e51b81526004016106519061326b565b506000805460ff191660ff92909216919091179055600190565b60006115fd6001611569565b90508015611615576000805461ff0019166101001790555b61161d612600565b611625612600565b6116306000336112d8565b610c7a7f189ab7a9244df0848122154315af71fe140f3db0fe014031783b0946b8c9d2e3336112d8565b61015f546001600160a01b038381169116146116885760405162461bcd60e51b8152600401610651906132e7565b60408051600480825260a08201909252600091602082016080803683370190505090506000816000815181106116c0576116c06134a4565b6020026020010181815250506000816001815181106116e1576116e16134a4565b60209081029190910101526116f782600461266b565b8160028151811061170a5761170a6134a4565b60200260200101818152505060008160038151811061172b5761172b6134a4565b602090810291909101015261016254604051637355940360e11b81526000916001600160a01b03169063e6ab28069061176b908590600190600401613120565b60206040518083038186803b15801561178357600080fd5b505afa158015611797573d6000803e3d6000fd5b505050506040513d601f19601f820116820180604052508101906117bb9190612f88565b905082826002815181106117d1576117d16134a4565b602090810291909101015261015f546101625460405163095ea7b360e01b81526001600160a01b0391821660048201526024810186905291169063095ea7b390604401602060405180830381600087803b15801561182e57600080fd5b505af1158015611842573d6000803e3d6000fd5b505050506040513d601f19601f820116820180604052508101906118669190612f52565b5061016254604051634d49e87d60e01b81526000916001600160a01b031690634d49e87d9061189d90869086904290600401613144565b602060405180830381600087803b1580156118b757600080fd5b505af11580156118cb573d6000803e3d6000fd5b505050506040513d601f19601f820116820180604052508101906118ef9190612f88565b610160546101635460405163095ea7b360e01b81526001600160a01b03918216600482015260248101849052929350169063095ea7b390604401602060405180830381600087803b15801561194357600080fd5b505af1158015611957573d6000803e3d6000fd5b505050506040513d601f19601f8201168201806040525081019061197b9190612f52565b506101635461016454604051638dbdbe6d60e01b81526004810191909152602481018390523060448201526001600160a01b0390911690638dbdbe6d90606401600060405180830381600087803b1580156119d557600080fd5b505af11580156119e9573d6000803e3d6000fd5b505050505050505050565b61016354610164546040516393f1a40b60e01b8152600481019190915230602482015260009182916001600160a01b03909116906393f1a40b90604401604080518083038186803b158015611a4857600080fd5b505afa158015611a5c573d6000803e3d6000fd5b505050506040513d601f19601f82011682018060405250810190611a809190612ff7565b50905080611a915750600092915050565b6101635461016454604051630c7e663b60e11b815260048101919091523060248201526001600160a01b03909116906318fccc7690604401600060405180830381600087803b158015611ae357600080fd5b505af1158015611af7573d6000803e3d6000fd5b5050610161546040516370a0823160e01b8152306004820152600093508392506001600160a01b03909116906370a082319060240160206040518083038186803b158015611b4457600080fd5b505afa158015611b58573d6000803e3d6000fd5b505050506040513d601f19601f82011682018060405250810190611b7c9190612f88565b90508015611bb7576101615461015f54600091611ba7916001600160a01b039182169116843061268e565b9050611bb381846133db565b9250505b61015f546040516370a0823160e01b81523060048201526000916001600160a01b0316906370a082319060240160206040518083038186803b158015611bfc57600080fd5b505afa158015611c10573d6000803e3d6000fd5b505050506040513d601f19601f82011682018060405250810190611c349190612f88565b90508015611cc55761015f5460405163a9059cbb60e01b81526001600160a01b038881166004830152602482018490529091169063a9059cbb90604401602060405180830381600087803b158015611c8b57600080fd5b505af1158015611c9f573d6000803e3d6000fd5b505050506040513d601f19601f82011682018060405250810190611cc39190612f52565b505b5090949350505050565b61015f546000906001600160a01b03848116911614611d005760405162461bcd60e51b8152600401610651906132e7565b61016354610164546040516393f1a40b60e01b815260048101919091523060248201526000916001600160a01b0316906393f1a40b90604401604080518083038186803b158015611d5057600080fd5b505afa158015611d64573d6000803e3d6000fd5b505050506040513d601f19601f82011682018060405250810190611d889190612ff7565b50905080611e145761015f546040516370a0823160e01b81523060048201526001600160a01b03909116906370a082319060240160206040518083038186803b158015611dd457600080fd5b505afa158015611de8573d6000803e3d6000fd5b505050506040513d601f19601f82011682018060405250810190611e0c9190612f88565b9150506105de565b6101635461016454604051630ad58d2f60e01b81526004810191909152602481018390523060448201526001600160a01b0390911690630ad58d2f90606401600060405180830381600087803b158015611e6d57600080fd5b505af1158015611e81573d6000803e3d6000fd5b50506101625460405163342a87a160e01b81526004810185905260026024820152600093506001600160a01b03909116915063342a87a19060440160206040518083038186803b158015611ed457600080fd5b505afa158015611ee8573d6000803e3d6000fd5b505050506040513d601f19601f82011682018060405250810190611f0c9190612f88565b610160546101625460405163095ea7b360e01b81526001600160a01b03918216600482015260248101869052929350169063095ea7b390604401602060405180830381600087803b158015611f6057600080fd5b505af1158015611f74573d6000803e3d6000fd5b505050506040513d601f19601f82011682018060405250810190611f989190612f52565b50610162546040516301f1d0ab60e51b81526004810184905260026024820152604481018390524260648201526001600160a01b0390911690633e3a156090608401602060405180830381600087803b158015611ff457600080fd5b505af1158015612008573d6000803e3d6000fd5b505050506040513d601f19601f8201168201806040525081019061202c9190612f88565b5061015f546040516370a0823160e01b81523060048201526001600160a01b03909116906370a082319060240160206040518083038186803b15801561207157600080fd5b505afa158015612085573d6000803e3d6000fd5b505050506040513d601f19601f820116820180604052508101906120a99190612f88565b95945050505050565b61015f546000906001600160a01b038581169116146120e35760405162461bcd60e51b8152600401610651906132e7565b60408051600480825260a082019092526000916020820160808036833701905050905060008160008151811061211b5761211b6134a4565b60200260200101818152505060008160018151811061213c5761213c6134a4565b602090810291909101015261215284600461287c565b61215d9060016133db565b81600281518110612170576121706134a4565b602002602001018181525050600081600381518110612191576121916134a4565b602090810291909101015261016254604051637355940360e11b81526000916001600160a01b03169063e6ab2806906121d09085908590600401613120565b60206040518083038186803b1580156121e857600080fd5b505afa1580156121fc573d6000803e3d6000fd5b505050506040513d601f19601f820116820180604052508101906122209190612f88565b61016354610164546040516393f1a40b60e01b815260048101919091523060248201529192506000916001600160a01b03909116906393f1a40b90604401604080518083038186803b15801561227557600080fd5b505afa158015612289573d6000803e3d6000fd5b505050506040513d601f19601f820116820180604052508101906122ad9190612ff7565b509050808211156122bc578091505b6101635461016454604051630ad58d2f60e01b81526004810191909152602481018490523060448201526001600160a01b0390911690630ad58d2f90606401600060405180830381600087803b15801561231557600080fd5b505af1158015612329573d6000803e3d6000fd5b5050610160546101625460405163095ea7b360e01b81526001600160a01b039182166004820152602481018790529116925063095ea7b39150604401602060405180830381600087803b15801561237f57600080fd5b505af1158015612393573d6000803e3d6000fd5b505050506040513d601f19601f820116820180604052508101906123b79190612f52565b50610162546040516301f1d0ab60e51b81526004810184905260026024820152604481018890524260648201526001600160a01b0390911690633e3a156090608401602060405180830381600087803b15801561241357600080fd5b505af1158015612427573d6000803e3d6000fd5b505050506040513d601f19601f8201168201806040525081019061244b9190612f88565b5061015f546040516370a0823160e01b81523060048201526001600160a01b03909116906370a082319060240160206040518083038186803b15801561249057600080fd5b505afa1580156124a4573d6000803e3d6000fd5b505050506040513d601f19601f820116820180604052508101906124c89190612f88565b93505050505b9392505050565b6124df8282610cbc565b61070b576124f7816001600160a01b0316601461288b565b61250283602061288b565b6040516020016125139291906130ab565b60408051601f198184030181529082905262461bcd60e51b825261065191600401613169565b6001600160a01b0381163b6125a65760405162461bcd60e51b815260206004820152602d60248201527f455243313936373a206e657720696d706c656d656e746174696f6e206973206e60448201526c1bdd08184818dbdb9d1c9858dd609a1b6064820152608401610651565b6000805160206134ff83398151915280546001600160a01b0319166001600160a01b0392909216919091179055565b6125de83612a27565b6000825111806125eb5750805b15610618576125fa8383612a67565b50505050565b600054610100900460ff16610ac35760405162461bcd60e51b815260206004820152602b60248201527f496e697469616c697a61626c653a20636f6e7472616374206973206e6f74206960448201526a6e697469616c697a696e6760a81b6064820152608401610651565b600061271061267a8382613434565b6126849085613415565b6124ce91906133f3565b61012d5460405163095ea7b360e01b81526001600160a01b0391821660048201526024810184905260009186169063095ea7b390604401602060405180830381600087803b1580156126df57600080fd5b505af11580156126f3573d6000803e3d6000fd5b505050506040513d601f19601f820116820180604052508101906127179190612f52565b506000612725868686612b52565b905080612736576000915050611109565b604080516002808252606082018352600092602083019080368337019050509050868160008151811061276b5761276b6134a4565b60200260200101906001600160a01b031690816001600160a01b031681525050858160018151811061279f5761279f6134a4565b6001600160a01b03928316602091820292909201015261012d54600091166338ed1739876127ce86600461266b565b85896127dc426102586133db565b6040518663ffffffff1660e01b81526004016127fc95949392919061336e565b600060405180830381600087803b15801561281657600080fd5b505af115801561282a573d6000803e3d6000fd5b505050506040513d6000823e601f3d908101601f191682016040526128529190810190612ea5565b905080600181518110612867576128676134a4565b60200260200101519350505050949350505050565b600061271061267a83826133db565b6060600061289a836002613415565b6128a59060026133db565b67ffffffffffffffff8111156128bd576128bd6134ba565b6040519080825280601f01601f1916602001820160405280156128e7576020820181803683370190505b509050600360fc1b81600081518110612902576129026134a4565b60200101906001600160f81b031916908160001a905350600f60fb1b81600181518110612931576129316134a4565b60200101906001600160f81b031916908160001a9053506000612955846002613415565b6129609060016133db565b90505b60018111156129d8576f181899199a1a9b1b9c1cb0b131b232b360811b85600f1660108110612994576129946134a4565b1a60f81b8282815181106129aa576129aa6134a4565b60200101906001600160f81b031916908160001a90535060049490941c936129d181613477565b9050612963565b5083156124ce5760405162461bcd60e51b815260206004820181905260248201527f537472696e67733a20686578206c656e67746820696e73756666696369656e746044820152606401610651565b612a3081612539565b6040516001600160a01b038216907fbc7cd75a20ee27fd9adebab32041f755214dbc6bffa90cc0225b39da2e5c2d3b90600090a250565b60606001600160a01b0383163b612acf5760405162461bcd60e51b815260206004820152602660248201527f416464726573733a2064656c65676174652063616c6c20746f206e6f6e2d636f6044820152651b9d1c9858dd60d21b6064820152608401610651565b600080846001600160a01b031684604051612aea919061308f565b600060405180830381855af49150503d8060008114612b25576040519150601f19603f3d011682016040523d82523d6000602084013e612b2a565b606091505b50915091506120a9828260405180606001604052806027815260200161351f60279139612c80565b604080516002808252606082018352600092839291906020830190803683370190505090508481600081518110612b8b57612b8b6134a4565b60200260200101906001600160a01b031690816001600160a01b0316815250508381600181518110612bbf57612bbf6134a4565b6001600160a01b03928316602091820292909201015261012d5460405163d06ca61f60e01b8152600092919091169063d06ca61f90612c049087908690600401613355565b60006040518083038186803b158015612c1c57600080fd5b505afa158015612c30573d6000803e3d6000fd5b505050506040513d6000823e601f3d908101601f19168201604052612c589190810190612ea5565b905080600181518110612c6d57612c6d6134a4565b6020026020010151925050509392505050565b60608315612c8f5750816124ce565b825115612c9f5782518084602001fd5b8160405162461bcd60e51b81526004016106519190613169565b80356001600160a01b0381168114610f4c57600080fd5b600060208284031215612ce257600080fd5b6124ce82612cb9565b600080600060608486031215612d0057600080fd5b612d0984612cb9565b9250612d1760208501612cb9565b9150612d2560408501612cb9565b90509250925092565b60008060008060808587031215612d4457600080fd5b612d4d85612cb9565b9350612d5b60208601612cb9565b9250612d6960408601612cb9565b9150606085013567ffffffffffffffff81168114612d8657600080fd5b939692955090935050565b60008060408385031215612da457600080fd5b612dad83612cb9565b915060208084013567ffffffffffffffff80821115612dcb57600080fd5b818601915086601f830112612ddf57600080fd5b813581811115612df157612df16134ba565b612e03601f8201601f191685016133aa565b91508082528784828501011115612e1957600080fd5b80848401858401376000848284010152508093505050509250929050565b60008060408385031215612e4a57600080fd5b612e5383612cb9565b946020939093013593505050565b60008060008060808587031215612e7757600080fd5b612e8085612cb9565b935060208501359250612e9560408601612cb9565b91506060850135612d86816134d0565b60006020808385031215612eb857600080fd5b825167ffffffffffffffff80821115612ed057600080fd5b818501915085601f830112612ee457600080fd5b815181811115612ef657612ef66134ba565b8060051b9150612f078483016133aa565b8181528481019084860184860187018a1015612f2257600080fd5b600095505b83861015612f45578051835260019590950194918601918601612f27565b5098975050505050505050565b600060208284031215612f6457600080fd5b81516124ce816134d0565b600060208284031215612f8157600080fd5b5035919050565b600060208284031215612f9a57600080fd5b5051919050565b60008060408385031215612fb457600080fd5b82359150612fc460208401612cb9565b90509250929050565b600060208284031215612fdf57600080fd5b81356001600160e01b0319811681146124ce57600080fd5b6000806040838503121561300a57600080fd5b505080516020909101519092909150565b600081518084526020808501945080840160005b838110156130545781516001600160a01b03168752958201959082019060010161302f565b509495945050505050565b600081518084526020808501945080840160005b8381101561305457815187529582019590820190600101613073565b600082516130a181846020870161344b565b9190910192915050565b7f416363657373436f6e74726f6c3a206163636f756e74200000000000000000008152600083516130e381601785016020880161344b565b7001034b99036b4b9b9b4b733903937b6329607d1b601791840191820152835161311481602884016020880161344b565b01602801949350505050565b604081526000613133604083018561305f565b905082151560208301529392505050565b606081526000613157606083018661305f565b60208301949094525060400152919050565b602081526000825180602084015261318881604085016020870161344b565b601f01601f19169190910160400192915050565b6020808252601f908201527f5265737472696374656420746f20504f5254464f4c494f5f4d414e4147455200604082015260600190565b6020808252602c908201527f46756e6374696f6e206d7573742062652063616c6c6564207468726f7567682060408201526b19195b1959d85d1958d85b1b60a21b606082015260800190565b6020808252602c908201527f46756e6374696f6e206d7573742062652063616c6c6564207468726f7567682060408201526b6163746976652070726f787960a01b606082015260800190565b6020808252602e908201527f496e697469616c697a61626c653a20636f6e747261637420697320616c72656160408201526d191e481a5b9a5d1a585b1a5e995960921b606082015260800190565b6020808252601490820152735265737472696374656420746f2061646d696e7360601b604082015260600190565b60208082526019908201527f536f6d6520746f6b656e206e6f7420636f6d70617469626c6500000000000000604082015260600190565b60208082526018908201527f5a65726f2061646472657373206e6f7420616c6c6f7765640000000000000000604082015260600190565b828152604060208201526000611109604083018461301b565b85815284602082015260a06040820152600061338d60a083018661301b565b6001600160a01b0394909416606083015250608001529392505050565b604051601f8201601f1916810167ffffffffffffffff811182821017156133d3576133d36134ba565b604052919050565b600082198211156133ee576133ee61348e565b500190565b60008261341057634e487b7160e01b600052601260045260246000fd5b500490565b600081600019048311821515161561342f5761342f61348e565b500290565b6000828210156134465761344661348e565b500390565b60005b8381101561346657818101518382015260200161344e565b838111156125fa5750506000910152565b6000816134865761348661348e565b506000190190565b634e487b7160e01b600052601160045260246000fd5b634e487b7160e01b600052603260045260246000fd5b634e487b7160e01b600052604160045260246000fd5b80151581146107ec57600080fdfe90c2aa7471c04182221f68e80c07ab1e5946e4c63f8693e14ca40385d529f051360894a13ba1a3210667c828492db98dca3e2076cc3735a920a3ca505d382bbc416464726573733a206c6f772d6c6576656c2064656c65676174652063616c6c206661696c6564a2646970667358221220d6463c64047acb8ff6966b6b2fe42d0a6a4d8e380727f0111f5d60606480400864736f6c63430008060033496e697469616c697a61626c653a20636f6e747261637420697320616c726561",
  "devdoc": {
    "kind": "dev",
    "methods": {
      "constructor": {
        "custom:oz-upgrades-unsafe-allow": "constructor"
      },
      "getRoleAdmin(bytes32)": {
        "details": "Returns the admin role that controls `role`. See {grantRole} and {revokeRole}. To change a role's admin, use {_setRoleAdmin}."
      },
      "grantRole(bytes32,address)": {
        "details": "Grants `role` to `account`. If `account` had not been already granted `role`, emits a {RoleGranted} event. Requirements: - the caller must have ``role``'s admin role."
      },
      "hasRole(bytes32,address)": {
        "details": "Returns `true` if `account` has been granted `role`."
      },
      "proxiableUUID()": {
        "details": "Implementation of the ERC1822 {proxiableUUID} function. This returns the storage slot used by the implementation. It is used to validate that the this implementation remains valid after an upgrade. IMPORTANT: A proxy pointing at a proxiable contract should not be considered proxiable itself, because this risks bricking a proxy that upgrades to it, by delegating to itself until out of gas. Thus it is critical that this function revert if invoked through a proxy. This is guaranteed by the `notDelegated` modifier."
      },
      "renounceRole(bytes32,address)": {
        "details": "Revokes `role` from the calling account. Roles are often managed via {grantRole} and {revokeRole}: this function's purpose is to provide a mechanism for accounts to lose their privileges if they are compromised (such as when a trusted device is misplaced). If the calling account had been revoked `role`, emits a {RoleRevoked} event. Requirements: - the caller must be `account`."
      },
      "revokeRole(bytes32,address)": {
        "details": "Revokes `role` from `account`. If `account` had been granted `role`, emits a {RoleRevoked} event. Requirements: - the caller must have ``role``'s admin role."
      },
      "supportsInterface(bytes4)": {
        "details": "See {IERC165-supportsInterface}."
      },
      "upgradeTo(address)": {
        "details": "Upgrade the implementation of the proxy to `newImplementation`. Calls {_authorizeUpgrade}. Emits an {Upgraded} event."
      },
      "upgradeToAndCall(address,bytes)": {
        "details": "Upgrade the implementation of the proxy to `newImplementation`, and subsequently execute the function call encoded in `data`. Calls {_authorizeUpgrade}. Emits an {Upgraded} event."
      }
    },
    "version": 1
  },
  "userdoc": {
    "kind": "user",
    "methods": {},
    "version": 1
  },
  "storageLayout": {
    "storage": [
      {
        "astId": 808,
        "contract": "contracts/StrategySynapseUsdc.sol:StrategySynapseUsdc",
        "label": "_initialized",
        "offset": 0,
        "slot": "0",
        "type": "t_uint8"
      },
      {
        "astId": 811,
        "contract": "contracts/StrategySynapseUsdc.sol:StrategySynapseUsdc",
        "label": "_initializing",
        "offset": 1,
        "slot": "0",
        "type": "t_bool"
      },
      {
        "astId": 1466,
        "contract": "contracts/StrategySynapseUsdc.sol:StrategySynapseUsdc",
        "label": "__gap",
        "offset": 0,
        "slot": "1",
        "type": "t_array(t_uint256)50_storage"
      },
      {
        "astId": 1773,
        "contract": "contracts/StrategySynapseUsdc.sol:StrategySynapseUsdc",
        "label": "__gap",
        "offset": 0,
        "slot": "51",
        "type": "t_array(t_uint256)50_storage"
      },
      {
        "astId": 39,
        "contract": "contracts/StrategySynapseUsdc.sol:StrategySynapseUsdc",
        "label": "_roles",
        "offset": 0,
        "slot": "101",
        "type": "t_mapping(t_bytes32,t_struct(RoleData)34_storage)"
      },
      {
        "astId": 338,
        "contract": "contracts/StrategySynapseUsdc.sol:StrategySynapseUsdc",
        "label": "__gap",
        "offset": 0,
        "slot": "102",
        "type": "t_array(t_uint256)49_storage"
      },
      {
        "astId": 790,
        "contract": "contracts/StrategySynapseUsdc.sol:StrategySynapseUsdc",
        "label": "__gap",
        "offset": 0,
        "slot": "151",
        "type": "t_array(t_uint256)50_storage"
      },
      {
        "astId": 1078,
        "contract": "contracts/StrategySynapseUsdc.sol:StrategySynapseUsdc",
        "label": "__gap",
        "offset": 0,
        "slot": "201",
        "type": "t_array(t_uint256)50_storage"
      },
      {
        "astId": 35131,
        "contract": "contracts/StrategySynapseUsdc.sol:StrategySynapseUsdc",
        "label": "portfolioManager",
        "offset": 0,
        "slot": "251",
        "type": "t_address"
      },
      {
        "astId": 35453,
        "contract": "contracts/StrategySynapseUsdc.sol:StrategySynapseUsdc",
        "label": "__gap",
        "offset": 0,
        "slot": "252",
        "type": "t_array(t_uint256)49_storage"
      },
      {
        "astId": 37197,
        "contract": "contracts/StrategySynapseUsdc.sol:StrategySynapseUsdc",
        "label": "uniswapRouter",
        "offset": 0,
        "slot": "301",
        "type": "t_contract(IUniswapV2Router02)33183"
      },
      {
        "astId": 37459,
        "contract": "contracts/StrategySynapseUsdc.sol:StrategySynapseUsdc",
        "label": "__gap",
        "offset": 0,
        "slot": "302",
        "type": "t_array(t_uint256)49_storage"
      },
      {
        "astId": 25400,
        "contract": "contracts/StrategySynapseUsdc.sol:StrategySynapseUsdc",
        "label": "usdcToken",
        "offset": 0,
        "slot": "351",
        "type": "t_contract(IERC20)2512"
      },
      {
        "astId": 25403,
        "contract": "contracts/StrategySynapseUsdc.sol:StrategySynapseUsdc",
        "label": "nUsdLPToken",
        "offset": 0,
        "slot": "352",
        "type": "t_contract(IERC20)2512"
      },
      {
        "astId": 25406,
        "contract": "contracts/StrategySynapseUsdc.sol:StrategySynapseUsdc",
        "label": "synToken",
        "offset": 0,
        "slot": "353",
        "type": "t_contract(IERC20)2512"
      },
      {
        "astId": 25409,
        "contract": "contracts/StrategySynapseUsdc.sol:StrategySynapseUsdc",
        "label": "swap",
        "offset": 0,
        "slot": "354",
        "type": "t_contract(ISwap)32211"
      },
      {
        "astId": 25412,
        "contract": "contracts/StrategySynapseUsdc.sol:StrategySynapseUsdc",
        "label": "miniChefV2",
        "offset": 0,
        "slot": "355",
        "type": "t_contract(IMiniChefV2)32050"
      },
      {
        "astId": 25414,
        "contract": "contracts/StrategySynapseUsdc.sol:StrategySynapseUsdc",
        "label": "pid",
        "offset": 0,
        "slot": "356",
        "type": "t_uint256"
      }
    ],
    "types": {
      "t_address": {
        "encoding": "inplace",
        "label": "address",
        "numberOfBytes": "20"
      },
      "t_array(t_uint256)49_storage": {
        "base": "t_uint256",
        "encoding": "inplace",
        "label": "uint256[49]",
        "numberOfBytes": "1568"
      },
      "t_array(t_uint256)50_storage": {
        "base": "t_uint256",
        "encoding": "inplace",
        "label": "uint256[50]",
        "numberOfBytes": "1600"
      },
      "t_bool": {
        "encoding": "inplace",
        "label": "bool",
        "numberOfBytes": "1"
      },
      "t_bytes32": {
        "encoding": "inplace",
        "label": "bytes32",
        "numberOfBytes": "32"
      },
      "t_contract(IERC20)2512": {
        "encoding": "inplace",
        "label": "contract IERC20",
        "numberOfBytes": "20"
      },
      "t_contract(IMiniChefV2)32050": {
        "encoding": "inplace",
        "label": "contract IMiniChefV2",
        "numberOfBytes": "20"
      },
      "t_contract(ISwap)32211": {
        "encoding": "inplace",
        "label": "contract ISwap",
        "numberOfBytes": "20"
      },
      "t_contract(IUniswapV2Router02)33183": {
        "encoding": "inplace",
        "label": "contract IUniswapV2Router02",
        "numberOfBytes": "20"
      },
      "t_mapping(t_address,t_bool)": {
        "encoding": "mapping",
        "key": "t_address",
        "label": "mapping(address => bool)",
        "numberOfBytes": "32",
        "value": "t_bool"
      },
      "t_mapping(t_bytes32,t_struct(RoleData)34_storage)": {
        "encoding": "mapping",
        "key": "t_bytes32",
        "label": "mapping(bytes32 => struct AccessControlUpgradeable.RoleData)",
        "numberOfBytes": "32",
        "value": "t_struct(RoleData)34_storage"
      },
      "t_struct(RoleData)34_storage": {
        "encoding": "inplace",
        "label": "struct AccessControlUpgradeable.RoleData",
        "members": [
          {
            "astId": 31,
            "contract": "contracts/StrategySynapseUsdc.sol:StrategySynapseUsdc",
            "label": "members",
            "offset": 0,
            "slot": "0",
            "type": "t_mapping(t_address,t_bool)"
          },
          {
            "astId": 33,
            "contract": "contracts/StrategySynapseUsdc.sol:StrategySynapseUsdc",
            "label": "adminRole",
            "offset": 0,
            "slot": "1",
            "type": "t_bytes32"
          }
        ],
        "numberOfBytes": "64"
      },
      "t_uint256": {
        "encoding": "inplace",
        "label": "uint256",
        "numberOfBytes": "32"
      },
      "t_uint8": {
        "encoding": "inplace",
        "label": "uint8",
        "numberOfBytes": "1"
      }
    }
  }
}