{
  "address": "0x2EC66DadC000dB5a47c42406B39D349fe11910A6",
  "abi": [
    {
      "inputs": [],
      "stateMutability": "nonpayable",
      "type": "constructor"
    },
    {
      "anonymous": false,
      "inputs": [
        {
          "indexed": false,
          "internalType": "address",
          "name": "previousAdmin",
          "type": "address"
        },
        {
          "indexed": false,
          "internalType": "address",
          "name": "newAdmin",
          "type": "address"
        }
      ],
      "name": "AdminChanged",
      "type": "event"
    },
    {
      "anonymous": false,
      "inputs": [
        {
          "indexed": false,
          "internalType": "uint256",
          "name": "healthFactor",
          "type": "uint256"
        }
      ],
      "name": "BalanceHealthFactor",
      "type": "event"
    },
    {
      "anonymous": false,
      "inputs": [
        {
          "indexed": true,
          "internalType": "address",
          "name": "beacon",
          "type": "address"
        }
      ],
      "name": "BeaconUpgraded",
      "type": "event"
    },
    {
      "anonymous": false,
      "inputs": [
        {
          "indexed": false,
          "internalType": "uint8",
          "name": "version",
          "type": "uint8"
        }
      ],
      "name": "Initialized",
      "type": "event"
    },
    {
      "anonymous": false,
      "inputs": [
        {
          "indexed": false,
          "internalType": "address",
          "name": "value",
          "type": "address"
        }
      ],
      "name": "PortfolioManagerUpdated",
      "type": "event"
    },
    {
      "anonymous": false,
      "inputs": [
        {
          "indexed": false,
          "internalType": "uint256",
          "name": "amount",
          "type": "uint256"
        }
      ],
      "name": "Reward",
      "type": "event"
    },
    {
      "anonymous": false,
      "inputs": [
        {
          "indexed": true,
          "internalType": "bytes32",
          "name": "role",
          "type": "bytes32"
        },
        {
          "indexed": true,
          "internalType": "bytes32",
          "name": "previousAdminRole",
          "type": "bytes32"
        },
        {
          "indexed": true,
          "internalType": "bytes32",
          "name": "newAdminRole",
          "type": "bytes32"
        }
      ],
      "name": "RoleAdminChanged",
      "type": "event"
    },
    {
      "anonymous": false,
      "inputs": [
        {
          "indexed": true,
          "internalType": "bytes32",
          "name": "role",
          "type": "bytes32"
        },
        {
          "indexed": true,
          "internalType": "address",
          "name": "account",
          "type": "address"
        },
        {
          "indexed": true,
          "internalType": "address",
          "name": "sender",
          "type": "address"
        }
      ],
      "name": "RoleGranted",
      "type": "event"
    },
    {
      "anonymous": false,
      "inputs": [
        {
          "indexed": true,
          "internalType": "bytes32",
          "name": "role",
          "type": "bytes32"
        },
        {
          "indexed": true,
          "internalType": "address",
          "name": "account",
          "type": "address"
        },
        {
          "indexed": true,
          "internalType": "address",
          "name": "sender",
          "type": "address"
        }
      ],
      "name": "RoleRevoked",
      "type": "event"
    },
    {
      "anonymous": false,
      "inputs": [
        {
          "indexed": false,
          "internalType": "uint256",
          "name": "healthFactor",
          "type": "uint256"
        }
      ],
      "name": "SetHealthFactor",
      "type": "event"
    },
    {
      "anonymous": false,
      "inputs": [
        {
          "indexed": false,
          "internalType": "uint256",
          "name": "amount",
          "type": "uint256"
        }
      ],
      "name": "Stake",
      "type": "event"
    },
    {
      "anonymous": false,
      "inputs": [
        {
          "indexed": false,
          "internalType": "address",
          "name": "stargateRouter",
          "type": "address"
        },
        {
          "indexed": false,
          "internalType": "address",
          "name": "pool",
          "type": "address"
        },
        {
          "indexed": false,
          "internalType": "address",
          "name": "lpStaking",
          "type": "address"
        },
        {
          "indexed": false,
          "internalType": "uint256",
          "name": "pid",
          "type": "uint256"
        },
        {
          "indexed": false,
          "internalType": "address",
          "name": "sushiSwapRouter",
          "type": "address"
        },
        {
          "indexed": false,
          "internalType": "address",
          "name": "synapseSwap",
          "type": "address"
        }
      ],
      "name": "StrategyUpdatedParams",
      "type": "event"
    },
    {
      "anonymous": false,
      "inputs": [
        {
          "indexed": false,
          "internalType": "address",
          "name": "usdcToken",
          "type": "address"
        },
        {
          "indexed": false,
          "internalType": "address",
          "name": "usdtToken",
          "type": "address"
        },
        {
          "indexed": false,
          "internalType": "address",
          "name": "stgToken",
          "type": "address"
        }
      ],
      "name": "StrategyUpdatedTokens",
      "type": "event"
    },
    {
      "anonymous": false,
      "inputs": [
        {
          "indexed": false,
          "internalType": "uint256",
          "name": "amount",
          "type": "uint256"
        },
        {
          "indexed": false,
          "internalType": "uint256",
          "name": "amountReceived",
          "type": "uint256"
        }
      ],
      "name": "Unstake",
      "type": "event"
    },
    {
      "anonymous": false,
      "inputs": [
        {
          "indexed": true,
          "internalType": "address",
          "name": "implementation",
          "type": "address"
        }
      ],
      "name": "Upgraded",
      "type": "event"
    },
    {
      "inputs": [],
      "name": "BASIS_POINTS_FOR_SLIPPAGE",
      "outputs": [
        {
          "internalType": "uint256",
          "name": "",
          "type": "uint256"
        }
      ],
      "stateMutability": "view",
      "type": "function"
    },
    {
      "inputs": [],
      "name": "DEFAULT_ADMIN_ROLE",
      "outputs": [
        {
          "internalType": "bytes32",
          "name": "",
          "type": "bytes32"
        }
      ],
      "stateMutability": "view",
      "type": "function"
    },
    {
      "inputs": [],
      "name": "PORTFOLIO_MANAGER",
      "outputs": [
        {
          "internalType": "bytes32",
          "name": "",
          "type": "bytes32"
        }
      ],
      "stateMutability": "view",
      "type": "function"
    },
    {
      "inputs": [],
      "name": "UPGRADER_ROLE",
      "outputs": [
        {
          "internalType": "bytes32",
          "name": "",
          "type": "bytes32"
        }
      ],
      "stateMutability": "view",
      "type": "function"
    },
    {
      "inputs": [
        {
          "internalType": "address",
          "name": "_to",
          "type": "address"
        }
      ],
      "name": "claimRewards",
      "outputs": [
        {
          "internalType": "uint256",
          "name": "",
          "type": "uint256"
        }
      ],
      "stateMutability": "nonpayable",
      "type": "function"
    },
    {
      "inputs": [
        {
          "internalType": "bytes32",
          "name": "role",
          "type": "bytes32"
        }
      ],
      "name": "getRoleAdmin",
      "outputs": [
        {
          "internalType": "bytes32",
          "name": "",
          "type": "bytes32"
        }
      ],
      "stateMutability": "view",
      "type": "function"
    },
    {
      "inputs": [
        {
          "internalType": "bytes32",
          "name": "role",
          "type": "bytes32"
        },
        {
          "internalType": "address",
          "name": "account",
          "type": "address"
        }
      ],
      "name": "grantRole",
      "outputs": [],
      "stateMutability": "nonpayable",
      "type": "function"
    },
    {
      "inputs": [
        {
          "internalType": "bytes32",
          "name": "role",
          "type": "bytes32"
        },
        {
          "internalType": "address",
          "name": "account",
          "type": "address"
        }
      ],
      "name": "hasRole",
      "outputs": [
        {
          "internalType": "bool",
          "name": "",
          "type": "bool"
        }
      ],
      "stateMutability": "view",
      "type": "function"
    },
    {
      "inputs": [],
      "name": "healthFactorBalance",
      "outputs": [],
      "stateMutability": "nonpayable",
      "type": "function"
    },
    {
      "inputs": [],
      "name": "initialize",
      "outputs": [],
      "stateMutability": "nonpayable",
      "type": "function"
    },
    {
      "inputs": [],
      "name": "liquidationValue",
      "outputs": [
        {
          "internalType": "uint256",
          "name": "",
          "type": "uint256"
        }
      ],
      "stateMutability": "view",
      "type": "function"
    },
    {
      "inputs": [],
      "name": "lpStaking",
      "outputs": [
        {
          "internalType": "contract ILPStaking",
          "name": "",
          "type": "address"
        }
      ],
      "stateMutability": "view",
      "type": "function"
    },
    {
      "inputs": [],
      "name": "netAssetValue",
      "outputs": [
        {
          "internalType": "uint256",
          "name": "",
          "type": "uint256"
        }
      ],
      "stateMutability": "view",
      "type": "function"
    },
    {
      "inputs": [],
      "name": "pid",
      "outputs": [
        {
          "internalType": "uint256",
          "name": "",
          "type": "uint256"
        }
      ],
      "stateMutability": "view",
      "type": "function"
    },
    {
      "inputs": [],
      "name": "pool",
      "outputs": [
        {
          "internalType": "contract IPool",
          "name": "",
          "type": "address"
        }
      ],
      "stateMutability": "view",
      "type": "function"
    },
    {
      "inputs": [],
      "name": "portfolioManager",
      "outputs": [
        {
          "internalType": "address",
          "name": "",
          "type": "address"
        }
      ],
      "stateMutability": "view",
      "type": "function"
    },
    {
      "inputs": [],
      "name": "proxiableUUID",
      "outputs": [
        {
          "internalType": "bytes32",
          "name": "",
          "type": "bytes32"
        }
      ],
      "stateMutability": "view",
      "type": "function"
    },
    {
      "inputs": [
        {
          "internalType": "bytes32",
          "name": "role",
          "type": "bytes32"
        },
        {
          "internalType": "address",
          "name": "account",
          "type": "address"
        }
      ],
      "name": "renounceRole",
      "outputs": [],
      "stateMutability": "nonpayable",
      "type": "function"
    },
    {
      "inputs": [
        {
          "internalType": "bytes32",
          "name": "role",
          "type": "bytes32"
        },
        {
          "internalType": "address",
          "name": "account",
          "type": "address"
        }
      ],
      "name": "revokeRole",
      "outputs": [],
      "stateMutability": "nonpayable",
      "type": "function"
    },
    {
      "inputs": [
        {
          "internalType": "uint256",
          "name": "healthFactor",
          "type": "uint256"
        }
      ],
      "name": "setHealthFactor",
      "outputs": [],
      "stateMutability": "nonpayable",
      "type": "function"
    },
    {
      "inputs": [
        {
          "internalType": "address",
          "name": "_stargateRouter",
          "type": "address"
        },
        {
          "internalType": "address",
          "name": "_pool",
          "type": "address"
        },
        {
          "internalType": "address",
          "name": "_lpStaking",
          "type": "address"
        },
        {
          "internalType": "uint256",
          "name": "_pid",
          "type": "uint256"
        },
        {
          "internalType": "address",
          "name": "_sushiSwapRouter",
          "type": "address"
        },
        {
          "internalType": "address",
          "name": "_synapseSwap",
          "type": "address"
        }
      ],
      "name": "setParams",
      "outputs": [],
      "stateMutability": "nonpayable",
      "type": "function"
    },
    {
      "inputs": [
        {
          "internalType": "address",
          "name": "_value",
          "type": "address"
        }
      ],
      "name": "setPortfolioManager",
      "outputs": [],
      "stateMutability": "nonpayable",
      "type": "function"
    },
    {
      "inputs": [
        {
          "internalType": "address",
          "name": "_usdcToken",
          "type": "address"
        },
        {
          "internalType": "address",
          "name": "_usdtToken",
          "type": "address"
        },
        {
          "internalType": "address",
          "name": "_stgToken",
          "type": "address"
        }
      ],
      "name": "setTokens",
      "outputs": [],
      "stateMutability": "nonpayable",
      "type": "function"
    },
    {
      "inputs": [
        {
          "internalType": "address",
          "name": "_asset",
          "type": "address"
        },
        {
          "internalType": "uint256",
          "name": "_amount",
          "type": "uint256"
        }
      ],
      "name": "stake",
      "outputs": [],
      "stateMutability": "nonpayable",
      "type": "function"
    },
    {
      "inputs": [],
      "name": "stargateRouter",
      "outputs": [
        {
          "internalType": "contract IStargateRouter",
          "name": "",
          "type": "address"
        }
      ],
      "stateMutability": "view",
      "type": "function"
    },
    {
      "inputs": [],
      "name": "stgToken",
      "outputs": [
        {
          "internalType": "contract IERC20",
          "name": "",
          "type": "address"
        }
      ],
      "stateMutability": "view",
      "type": "function"
    },
    {
      "inputs": [
        {
          "internalType": "bytes4",
          "name": "interfaceId",
          "type": "bytes4"
        }
      ],
      "name": "supportsInterface",
      "outputs": [
        {
          "internalType": "bool",
          "name": "",
          "type": "bool"
        }
      ],
      "stateMutability": "view",
      "type": "function"
    },
    {
      "inputs": [
        {
          "internalType": "address",
          "name": "_asset",
          "type": "address"
        },
        {
          "internalType": "uint256",
          "name": "_amount",
          "type": "uint256"
        },
        {
          "internalType": "address",
          "name": "_beneficiary",
          "type": "address"
        },
        {
          "internalType": "bool",
          "name": "_targetIsZero",
          "type": "bool"
        }
      ],
      "name": "unstake",
      "outputs": [
        {
          "internalType": "uint256",
          "name": "",
          "type": "uint256"
        }
      ],
      "stateMutability": "nonpayable",
      "type": "function"
    },
    {
      "inputs": [
        {
          "internalType": "address",
          "name": "newImplementation",
          "type": "address"
        }
      ],
      "name": "upgradeTo",
      "outputs": [],
      "stateMutability": "nonpayable",
      "type": "function"
    },
    {
      "inputs": [
        {
          "internalType": "address",
          "name": "newImplementation",
          "type": "address"
        },
        {
          "internalType": "bytes",
          "name": "data",
          "type": "bytes"
        }
      ],
      "name": "upgradeToAndCall",
      "outputs": [],
      "stateMutability": "payable",
      "type": "function"
    },
    {
      "inputs": [],
      "name": "usdcToken",
      "outputs": [
        {
          "internalType": "contract IERC20",
          "name": "",
          "type": "address"
        }
      ],
      "stateMutability": "view",
      "type": "function"
    },
    {
      "inputs": [],
      "name": "usdtToken",
      "outputs": [
        {
          "internalType": "contract IERC20",
          "name": "",
          "type": "address"
        }
      ],
      "stateMutability": "view",
      "type": "function"
    }
  ],
  "numDeployments": 1,
  "solcInputHash": "7c6775ec96054550c95d98db052bc1f7",
  "bytecode": "0x60a06040523060601b6080523480156200001857600080fd5b5060006200002760016200008e565b9050801562000040576000805461ff0019166101001790555b801562000087576000805461ff0019169055604051600181527f7f26b83ff96e1f2b6a682f133852f6798a09c465da95921460cefb38474024989060200160405180910390a15b50620001af565b60008054610100900460ff161562000127578160ff166001148015620000c75750620000c530620001a060201b6200117e1760201c565b155b6200011f5760405162461bcd60e51b815260206004820152602e602482015260008051602062003ddf83398151915260448201526d191e481a5b9a5d1a585b1a5e995960921b60648201526084015b60405180910390fd5b506000919050565b60005460ff808416911610620001865760405162461bcd60e51b815260206004820152602e602482015260008051602062003ddf83398151915260448201526d191e481a5b9a5d1a585b1a5e995960921b606482015260840162000116565b506000805460ff191660ff92909216919091179055600190565b6001600160a01b03163b151590565b60805160601c613bf5620001ea6000396000818161075d0152818161079d0152818161095d0152818161099d0152610a2c0152613bf56000f3fe6080604052600436106101e35760003560e01c806391d1485411610102578063a9e56f3c11610095578063f106845411610064578063f10684541461056e578063f664b3d914610585578063f6f6b8811461059a578063f72c0d8b146105ba57600080fd5b8063a9e56f3c146104ed578063adc9772e1461050e578063d547741f1461052e578063ef5cfb8c1461054e57600080fd5b8063a217fddf116100d1578063a217fddf14610482578063a3673b3814610497578063a440b21a146104ac578063a98ad46c146104cc57600080fd5b806391d14854146104005780639afb25de146104205780639bf1401c146104415780639d65d5aa1461046257600080fd5b80633659cfe61161017a578063620b75df11610149578063620b75df146103945780637b73aa4e146103b45780637d5f5802146103c95780638129fc1c146103eb57600080fd5b80633659cfe61461032c578063443be2091461034c5780634f1ef2861461036c57806352d1902d1461037f57600080fd5b80632576e65a116101b65780632576e65a146102b55780632f2ff15d146102ca57806331111708146102ec57806336568abe1461030c57600080fd5b806301ffc9a7146101e857806311eac8551461021d57806316f0115b14610256578063248a9ca314610277575b600080fd5b3480156101f457600080fd5b5061020861020336600461369d565b6105ee565b60405190151581526020015b60405180910390f35b34801561022957600080fd5b506101915461023e906001600160a01b031681565b6040516001600160a01b039091168152602001610214565b34801561026257600080fd5b506101955461023e906001600160a01b031681565b34801561028357600080fd5b506102a761029236600461363f565b60009081526065602052604090206001015490565b604051908152602001610214565b3480156102c157600080fd5b506102a7610625565b3480156102d657600080fd5b506102ea6102e5366004613671565b610636565b005b3480156102f857600080fd5b506102ea61030736600461363f565b610660565b34801561031857600080fd5b506102ea610327366004613671565b6106d4565b34801561033857600080fd5b506102ea61034736600461338b565b610752565b34801561035857600080fd5b506102ea6103673660046133a6565b610832565b6102ea61037a366004613456565b610952565b34801561038b57600080fd5b506102a7610a1f565b3480156103a057600080fd5b5060fb5461023e906001600160a01b031681565b3480156103c057600080fd5b506102ea610ad2565b3480156103d557600080fd5b506102a7600080516020613b5983398151915281565b3480156103f757600080fd5b506102ea610b08565b34801561040c57600080fd5b5061020861041b366004613671565b610b76565b34801561042c57600080fd5b506101935461023e906001600160a01b031681565b34801561044d57600080fd5b506101965461023e906001600160a01b031681565b34801561046e57600080fd5b506102ea61047d3660046133e9565b610ba1565b34801561048e57600080fd5b506102a7600081565b3480156104a357600080fd5b506102a7610d48565b3480156104b857600080fd5b506102ea6104c736600461338b565b610d54565b3480156104d857600080fd5b506101925461023e906001600160a01b031681565b3480156104f957600080fd5b506101945461023e906001600160a01b031681565b34801561051a57600080fd5b506102ea6105293660046134fc565b610e2c565b34801561053a57600080fd5b506102ea610549366004613671565b610f15565b34801561055a57600080fd5b506102a761056936600461338b565b610f3a565b34801561057a57600080fd5b506102a76101975481565b34801561059157600080fd5b506102a7600481565b3480156105a657600080fd5b506102a76105b5366004613526565b610fbe565b3480156105c657600080fd5b506102a77f189ab7a9244df0848122154315af71fe140f3db0fe014031783b0946b8c9d2e381565b60006001600160e01b03198216637965db0b60e01b148061061f57506301ffc9a760e01b6001600160e01b03198316145b92915050565b6000610631600061118d565b905090565b600082815260656020526040902060010154610651816113aa565b61065b83836113b4565b505050565b610678600080516020613b5983398151915233610b76565b61069d5760405162461bcd60e51b815260040161069490613816565b60405180910390fd5b6040518181527ff00d5f5126966481831a71a9d79a9b3af67c4a1a35637b992c7e465a7e465b71906020015b60405180910390a150565b6001600160a01b03811633146107445760405162461bcd60e51b815260206004820152602f60248201527f416363657373436f6e74726f6c3a2063616e206f6e6c792072656e6f756e636560448201526e103937b632b9903337b91039b2b63360891b6064820152608401610694565b61074e828261143a565b5050565b306001600160a01b037f000000000000000000000000000000000000000000000000000000000000000016141561079b5760405162461bcd60e51b81526004016106949061384d565b7f00000000000000000000000000000000000000000000000000000000000000006001600160a01b03166107e4600080516020613b79833981519152546001600160a01b031690565b6001600160a01b03161461080a5760405162461bcd60e51b815260040161069490613899565b610813816114a1565b6040805160008082526020820190925261082f918391906114cb565b50565b61083d600033610b76565b6108595760405162461bcd60e51b815260040161069490613933565b6001600160a01b03831661087f5760405162461bcd60e51b815260040161069490613998565b6001600160a01b0382166108a55760405162461bcd60e51b815260040161069490613998565b6001600160a01b0381166108cb5760405162461bcd60e51b815260040161069490613998565b61019180546001600160a01b038581166001600160a01b03199283168117909355610192805486831690841681179091556101938054928616929093168217909255604080519384526020840192909252908201527fad99e63fb7ea2f95b756b555df2e0ef5bdbc8b58df7b3aa5187c558e2714d0c59060600160405180910390a1505050565b306001600160a01b037f000000000000000000000000000000000000000000000000000000000000000016141561099b5760405162461bcd60e51b81526004016106949061384d565b7f00000000000000000000000000000000000000000000000000000000000000006001600160a01b03166109e4600080516020613b79833981519152546001600160a01b031690565b6001600160a01b031614610a0a5760405162461bcd60e51b815260040161069490613899565b610a13826114a1565b61074e828260016114cb565b6000306001600160a01b037f00000000000000000000000000000000000000000000000000000000000000001614610abf5760405162461bcd60e51b815260206004820152603860248201527f555550535570677261646561626c653a206d757374206e6f742062652063616c60448201527f6c6564207468726f7567682064656c656761746563616c6c00000000000000006064820152608401610694565b50600080516020613b7983398151915290565b610aea600080516020613b5983398151915233610b76565b610b065760405162461bcd60e51b815260040161069490613816565b565b6000610b146001611645565b90508015610b2c576000805461ff0019166101001790555b610b346116cd565b801561082f576000805461ff0019169055604051600181527f7f26b83ff96e1f2b6a682f133852f6798a09c465da95921460cefb3847402498906020016106c9565b60009182526065602090815260408084206001600160a01b0393909316845291905290205460ff1690565b610bac600033610b76565b610bc85760405162461bcd60e51b815260040161069490613933565b6001600160a01b038616610bee5760405162461bcd60e51b815260040161069490613998565b6001600160a01b038516610c145760405162461bcd60e51b815260040161069490613998565b6001600160a01b038416610c3a5760405162461bcd60e51b815260040161069490613998565b6001600160a01b038216610c605760405162461bcd60e51b815260040161069490613998565b6001600160a01b038116610c865760405162461bcd60e51b815260040161069490613998565b61019480546001600160a01b038881166001600160a01b03199283168117909355610195805489831690841681179091556101968054898416908516811790915561019788905561012d8054888516908616811790915561015f80549488169490951684179094556040805195865260208601929092528482015260608401879052608084019290925260a0830152517f73cbcb95167573b8ee57bf96f122628fa0d14434b644bb86a19c78485061a04e9181900360c00190a1505050505050565b6000610631600161118d565b610d5f600033610b76565b610d7b5760405162461bcd60e51b815260040161069490613933565b6001600160a01b038116610da15760405162461bcd60e51b815260040161069490613998565b60fb54610dc690600080516020613b59833981519152906001600160a01b0316610f15565b610dde600080516020613b5983398151915282610636565b60fb80546001600160a01b0319166001600160a01b0383169081179091556040519081527ff7b449fcd5cfb7379dcd34cb69428dd9f882033b15be33d83b42d91daa28eeb7906020016106c9565b610e44600080516020613b5983398151915233610b76565b610e605760405162461bcd60e51b815260040161069490613816565b6040518181527f227a473b70d2f893cc7659219575c030a63b5743024fe1e0c1a680e708b1525a9060200160405180910390a16040516370a0823160e01b815230600482015261074e9083906001600160a01b038216906370a082319060240160206040518083038186803b158015610ed857600080fd5b505afa158015610eec573d6000803e3d6000fd5b505050506040513d601f19601f82011682018060405250810190610f109190613658565b611736565b600082815260656020526040902060010154610f30816113aa565b61065b838361143a565b6000610f54600080516020613b5983398151915233610b76565b610f705760405162461bcd60e51b815260040161069490613816565b6000610f7b83611b7b565b90507f3ac0594a85a20354f9dc74f33728416d19ce00d04a406c108cc2dcf2cecea13481604051610fae91815260200190565b60405180910390a190505b919050565b6000610fd8600080516020613b5983398151915233610b76565b610ff45760405162461bcd60e51b815260040161069490613816565b60008215611048577f3ac0594a85a20354f9dc74f33728416d19ce00d04a406c108cc2dcf2cecea13461102685611b7b565b60405190815260200160405180910390a16110418685611dd6565b90506110b7565b61105386868661223d565b9050848110156110b75760405162461bcd60e51b815260206004820152602960248201527f52657475726e65642076616c7565206c657373207468616e2072657175657374604482015268195908185b5bdd5b9d60ba1b6064820152608401610694565b60405163a9059cbb60e01b81526001600160a01b0385811660048301526024820183905287169063a9059cbb90604401602060405180830381600087803b15801561110157600080fd5b505af1158015611115573d6000803e3d6000fd5b505050506040513d601f19601f820116820180604052508101906111399190613622565b5060408051868152602081018390527f9045c2ac9b2026de8075f2701bbdde882cd5e830b3b1ead9a15b22f2b5b93742910160405180910390a190505b949350505050565b6001600160a01b03163b151590565b610191546040516370a0823160e01b815230600482015260009182916001600160a01b03909116906370a082319060240160206040518083038186803b1580156111d657600080fd5b505afa1580156111ea573d6000803e3d6000fd5b505050506040513d601f19601f8201168201806040525081019061120e9190613658565b61019654610197546040516393f1a40b60e01b815260048101919091523060248201529192506000916001600160a01b03909116906393f1a40b90604401604080518083038186803b15801561126357600080fd5b505afa158015611277573d6000803e3d6000fd5b505050506040513d601f19601f8201168201806040525081019061129b91906136c7565b50905080156113a35761019554604051637b669af760e11b8152600481018390526000916001600160a01b03169063f6cd35ee9060240160206040518083038186803b1580156112ea57600080fd5b505afa1580156112fe573d6000803e3d6000fd5b505050506040513d601f19601f820116820180604052508101906113229190613658565b90508415611375576101925461019154620f4240918391611350916001600160a01b03908116911684612714565b61135a9190613a8f565b6113649190613a6d565b61136e9084613a55565b92506113a1565b6101925461019154611394916001600160a01b03908116911683612714565b61139e9084613a55565b92505b505b5092915050565b61082f81336128b3565b6113be8282610b76565b61074e5760008281526065602090815260408083206001600160a01b03851684529091529020805460ff191660011790556113f63390565b6001600160a01b0316816001600160a01b0316837f2f8788117e7eff1d82e926ec794901d17c78024a50270940304540a733656f0d60405160405180910390a45050565b6114448282610b76565b1561074e5760008281526065602090815260408083206001600160a01b0385168085529252808320805460ff1916905551339285917ff6391f5c32d9c69d2a47ea670b442974b53935d1edc7fd64eb21e047a839171b9190a45050565b7f189ab7a9244df0848122154315af71fe140f3db0fe014031783b0946b8c9d2e361074e816113aa565b7f4910fdfa16fed3260ed0e7147f7cc6da11a60208b5b9406d12a635614ffd91435460ff16156114fe5761065b83612917565b826001600160a01b03166352d1902d6040518163ffffffff1660e01b815260040160206040518083038186803b15801561153757600080fd5b505afa925050508015611567575060408051601f3d908101601f1916820190925261156491810190613658565b60015b6115ca5760405162461bcd60e51b815260206004820152602e60248201527f45524331393637557067726164653a206e657720696d706c656d656e7461746960448201526d6f6e206973206e6f74205555505360901b6064820152608401610694565b600080516020613b7983398151915281146116395760405162461bcd60e51b815260206004820152602960248201527f45524331393637557067726164653a20756e737570706f727465642070726f786044820152681a58589b195555525160ba1b6064820152608401610694565b5061065b8383836129b3565b60008054610100900460ff161561168c578160ff1660011480156116685750303b155b6116845760405162461bcd60e51b8152600401610694906138e5565b506000919050565b60005460ff8084169116106116b35760405162461bcd60e51b8152600401610694906138e5565b506000805460ff191660ff92909216919091179055600190565b60006116d96001611645565b905080156116f1576000805461ff0019166101001790555b6116f96129de565b6117016129de565b61170c6000336113b4565b610b347f189ab7a9244df0848122154315af71fe140f3db0fe014031783b0946b8c9d2e3336113b4565b610191546001600160a01b038381169116146117645760405162461bcd60e51b815260040161069490613961565b610191546040516370a0823160e01b81523060048201526000916001600160a01b0316906370a082319060240160206040518083038186803b1580156117a957600080fd5b505afa1580156117bd573d6000803e3d6000fd5b505050506040513d601f19601f820116820180604052508101906117e19190613658565b6101915461019254919250611803916001600160a01b03918216911683612a49565b50610192546040516370a0823160e01b81523060048201526000916001600160a01b0316906370a082319060240160206040518083038186803b15801561184957600080fd5b505afa15801561185d573d6000803e3d6000fd5b505050506040513d601f19601f820116820180604052508101906118819190613658565b610192546101945460405163095ea7b360e01b81526001600160a01b03918216600482015260248101849052929350169063095ea7b390604401602060405180830381600087803b1580156118d557600080fd5b505af11580156118e9573d6000803e3d6000fd5b505050506040513d601f19601f8201168201806040525081019061190d9190613622565b50610194546101955460408051631f06e1a760e11b815290516001600160a01b03938416936387b21efc931691633e0dc34e916004808301926020929190829003018186803b15801561195f57600080fd5b505afa158015611973573d6000803e3d6000fd5b505050506040513d601f19601f820116820180604052508101906119979190613658565b6040516001600160e01b031960e084901b16815261ffff909116600482015260248101849052306044820152606401600060405180830381600087803b1580156119e057600080fd5b505af11580156119f4573d6000803e3d6000fd5b5050610195546040516370a0823160e01b8152306004820152600093506001600160a01b0390911691506370a082319060240160206040518083038186803b158015611a3f57600080fd5b505afa158015611a53573d6000803e3d6000fd5b505050506040513d601f19601f82011682018060405250810190611a779190613658565b610195546101965460405163095ea7b360e01b81526001600160a01b03918216600482015260248101849052929350169063095ea7b390604401602060405180830381600087803b158015611acb57600080fd5b505af1158015611adf573d6000803e3d6000fd5b505050506040513d601f19601f82011682018060405250810190611b039190613622565b506101965461019754604051631c57762b60e31b81526001600160a01b039092169163e2bbb15891611b42918590600401918252602082015260400190565b600060405180830381600087803b158015611b5c57600080fd5b505af1158015611b70573d6000803e3d6000fd5b505050505050505050565b61019654610197546040516393f1a40b60e01b8152600481019190915230602482015260009182916001600160a01b03909116906393f1a40b90604401604080518083038186803b158015611bcf57600080fd5b505afa158015611be3573d6000803e3d6000fd5b505050506040513d601f19601f82011682018060405250810190611c0791906136c7565b50905080611c185750600092915050565b6101965461019754604051630441a3e760e41b81526004810191909152600060248201526001600160a01b039091169063441a3e7090604401600060405180830381600087803b158015611c6b57600080fd5b505af1158015611c7f573d6000803e3d6000fd5b5050610193546040516370a0823160e01b8152306004820152600093508392506001600160a01b03909116906370a082319060240160206040518083038186803b158015611ccc57600080fd5b505afa158015611ce0573d6000803e3d6000fd5b505050506040513d601f19601f82011682018060405250810190611d049190613658565b90508015611d3f576101935461019154600091611d2f916001600160a01b0391821691168430612d26565b9050611d3b8184613a55565b9250505b8115611dce576101915460405163a9059cbb60e01b81526001600160a01b038781166004830152602482018590529091169063a9059cbb90604401602060405180830381600087803b158015611d9457600080fd5b505af1158015611da8573d6000803e3d6000fd5b505050506040513d601f19601f82011682018060405250810190611dcc9190613622565b505b509392505050565b610191546000906001600160a01b03848116911614611e075760405162461bcd60e51b815260040161069490613961565b61019654610197546040516393f1a40b60e01b815260048101919091523060248201526000916001600160a01b0316906393f1a40b90604401604080518083038186803b158015611e5757600080fd5b505afa158015611e6b573d6000803e3d6000fd5b505050506040513d601f19601f82011682018060405250810190611e8f91906136c7565b50905080611f1b57610191546040516370a0823160e01b81523060048201526001600160a01b03909116906370a082319060240160206040518083038186803b158015611edb57600080fd5b505afa158015611eef573d6000803e3d6000fd5b505050506040513d601f19601f82011682018060405250810190611f139190613658565b91505061061f565b6101965461019754604051630441a3e760e41b81526001600160a01b039092169163441a3e7091611f59918590600401918252602082015260400190565b600060405180830381600087803b158015611f7357600080fd5b505af1158015611f87573d6000803e3d6000fd5b5050610195546101945460405163095ea7b360e01b81526001600160a01b039182166004820152602481018690529116925063095ea7b39150604401602060405180830381600087803b158015611fdd57600080fd5b505af1158015611ff1573d6000803e3d6000fd5b505050506040513d601f19601f820116820180604052508101906120159190613622565b50610194546101955460408051631f06e1a760e11b815290516001600160a01b039384169363c4de93a5931691633e0dc34e916004808301926020929190829003018186803b15801561206757600080fd5b505afa15801561207b573d6000803e3d6000fd5b505050506040513d601f19601f8201168201806040525081019061209f9190613658565b6040516001600160e01b031960e084901b16815261ffff909116600482015260248101849052306044820152606401602060405180830381600087803b1580156120e857600080fd5b505af11580156120fc573d6000803e3d6000fd5b505050506040513d601f19601f820116820180604052508101906121209190613658565b50610192546040516370a0823160e01b81523060048201526000916001600160a01b0316906370a082319060240160206040518083038186803b15801561216657600080fd5b505afa15801561217a573d6000803e3d6000fd5b505050506040513d601f19601f8201168201806040525081019061219e9190613658565b61019254610191549192506121c0916001600160a01b03918216911683612a49565b50610191546040516370a0823160e01b81523060048201526001600160a01b03909116906370a082319060240160206040518083038186803b15801561220557600080fd5b505afa158015612219573d6000803e3d6000fd5b505050506040513d601f19601f8201168201806040525081019061139e9190613658565b610191546000906001600160a01b0385811691161461226e5760405162461bcd60e51b815260040161069490613961565b600061227b846004612f14565b61228690600a613a55565b61019154610192549192506000916122ab916001600160a01b03908116911684612714565b61019554604051637b669af760e11b8152620f424060048201529192506000916001600160a01b039091169063f6cd35ee9060240160206040518083038186803b1580156122f857600080fd5b505afa15801561230c573d6000803e3d6000fd5b505050506040513d601f19601f820116820180604052508101906123309190613658565b61233d83620f4240613a8f565b6123479190613a6d565b61019654610197546040516393f1a40b60e01b815260048101919091523060248201529192506000916001600160a01b03909116906393f1a40b90604401604080518083038186803b15801561239c57600080fd5b505afa1580156123b0573d6000803e3d6000fd5b505050506040513d601f19601f820116820180604052508101906123d491906136c7565b509050808211156123e3578091505b6101965461019754604051630441a3e760e41b81526001600160a01b039092169163441a3e7091612421918690600401918252602082015260400190565b600060405180830381600087803b15801561243b57600080fd5b505af115801561244f573d6000803e3d6000fd5b5050610195546101945460405163095ea7b360e01b81526001600160a01b039182166004820152602481018790529116925063095ea7b39150604401602060405180830381600087803b1580156124a557600080fd5b505af11580156124b9573d6000803e3d6000fd5b505050506040513d601f19601f820116820180604052508101906124dd9190613622565b50610194546101955460408051631f06e1a760e11b815290516001600160a01b039384169363c4de93a5931691633e0dc34e916004808301926020929190829003018186803b15801561252f57600080fd5b505afa158015612543573d6000803e3d6000fd5b505050506040513d601f19601f820116820180604052508101906125679190613658565b6040516001600160e01b031960e084901b16815261ffff909116600482015260248101859052306044820152606401602060405180830381600087803b1580156125b057600080fd5b505af11580156125c4573d6000803e3d6000fd5b505050506040513d601f19601f820116820180604052508101906125e89190613658565b50610192546040516370a0823160e01b81523060048201526000916001600160a01b0316906370a082319060240160206040518083038186803b15801561262e57600080fd5b505afa158015612642573d6000803e3d6000fd5b505050506040513d601f19601f820116820180604052508101906126669190613658565b6101925461019154919250612688916001600160a01b03918216911683612a49565b50610191546040516370a0823160e01b81523060048201526001600160a01b03909116906370a082319060240160206040518083038186803b1580156126cd57600080fd5b505afa1580156126e1573d6000803e3d6000fd5b505050506040513d601f19601f820116820180604052508101906127059190613658565b955050505050505b9392505050565b61015f546040516319b02f4960e21b81526001600160a01b03858116600483015260009283929116906366c0bd249060240160206040518083038186803b15801561275e57600080fd5b505afa158015612772573d6000803e3d6000fd5b505050506040513d601f19601f8201168201806040525081019061279691906136eb565b61015f546040516319b02f4960e21b81526001600160a01b038781166004830152929350600092909116906366c0bd249060240160206040518083038186803b1580156127e257600080fd5b505afa1580156127f6573d6000803e3d6000fd5b505050506040513d601f19601f8201168201806040525081019061281a91906136eb565b61015f5460405163a95b089f60e01b815260ff808616600483015283166024820152604481018790529192506001600160a01b03169063a95b089f9060640160206040518083038186803b15801561287157600080fd5b505afa158015612885573d6000803e3d6000fd5b505050506040513d601f19601f820116820180604052508101906128a99190613658565b9695505050505050565b6128bd8282610b76565b61074e576128d5816001600160a01b03166014612f37565b6128e0836020612f37565b6040516020016128f192919061376e565b60408051601f198184030181529082905262461bcd60e51b8252610694916004016137e3565b6001600160a01b0381163b6129845760405162461bcd60e51b815260206004820152602d60248201527f455243313936373a206e657720696d706c656d656e746174696f6e206973206e60448201526c1bdd08184818dbdb9d1c9858dd609a1b6064820152608401610694565b600080516020613b7983398151915280546001600160a01b0319166001600160a01b0392909216919091179055565b6129bc836130d3565b6000825111806129c95750805b1561065b576129d88383613113565b50505050565b600054610100900460ff16610b065760405162461bcd60e51b815260206004820152602b60248201527f496e697469616c697a61626c653a20636f6e7472616374206973206e6f74206960448201526a6e697469616c697a696e6760a81b6064820152608401610694565b61015f546040516319b02f4960e21b81526001600160a01b03858116600483015260009283929116906366c0bd249060240160206040518083038186803b158015612a9357600080fd5b505afa158015612aa7573d6000803e3d6000fd5b505050506040513d601f19601f82011682018060405250810190612acb91906136eb565b61015f546040516319b02f4960e21b81526001600160a01b038781166004830152929350600092909116906366c0bd249060240160206040518083038186803b158015612b1757600080fd5b505afa158015612b2b573d6000803e3d6000fd5b505050506040513d601f19601f82011682018060405250810190612b4f91906136eb565b61015f5460405163a95b089f60e01b815260ff808616600483015283166024820152604481018790529192506000916001600160a01b039091169063a95b089f9060640160206040518083038186803b158015612bab57600080fd5b505afa158015612bbf573d6000803e3d6000fd5b505050506040513d601f19601f82011682018060405250810190612be39190613658565b905080612bf6576000935050505061270d565b61015f5460405163095ea7b360e01b81526001600160a01b039182166004820152602481018790529088169063095ea7b390604401602060405180830381600087803b158015612c4557600080fd5b505af1158015612c59573d6000803e3d6000fd5b505050506040513d601f19601f82011682018060405250810190612c7d9190613622565b5061015f546040516348b4aac360e11b815260ff80861660048301528416602482015260448101879052606481018390524260848201526001600160a01b039091169063916955869060a401602060405180830381600087803b158015612ce357600080fd5b505af1158015612cf7573d6000803e3d6000fd5b505050506040513d601f19601f82011682018060405250810190612d1b9190613658565b979650505050505050565b61012d5460405163095ea7b360e01b81526001600160a01b0391821660048201526024810184905260009186169063095ea7b390604401602060405180830381600087803b158015612d7757600080fd5b505af1158015612d8b573d6000803e3d6000fd5b505050506040513d601f19601f82011682018060405250810190612daf9190613622565b506000612dbd8686866131fe565b905080612dce576000915050611176565b6040805160028082526060820183526000926020830190803683370190505090508681600081518110612e0357612e03613b1e565b60200260200101906001600160a01b031690816001600160a01b0316815250508581600181518110612e3757612e37613b1e565b6001600160a01b03928316602091820292909201015261012d54600091166338ed173987612e6686600461332c565b8589612e7442610258613a55565b6040518663ffffffff1660e01b8152600401612e949594939291906139e8565b600060405180830381600087803b158015612eae57600080fd5b505af1158015612ec2573d6000803e3d6000fd5b505050506040513d6000823e601f3d908101601f19168201604052612eea9190810190613575565b905080600181518110612eff57612eff613b1e565b60200260200101519350505050949350505050565b6000612710612f238382613a55565b612f2d9085613a8f565b61270d9190613a6d565b60606000612f46836002613a8f565b612f51906002613a55565b67ffffffffffffffff811115612f6957612f69613b34565b6040519080825280601f01601f191660200182016040528015612f93576020820181803683370190505b509050600360fc1b81600081518110612fae57612fae613b1e565b60200101906001600160f81b031916908160001a905350600f60fb1b81600181518110612fdd57612fdd613b1e565b60200101906001600160f81b031916908160001a9053506000613001846002613a8f565b61300c906001613a55565b90505b6001811115613084576f181899199a1a9b1b9c1cb0b131b232b360811b85600f166010811061304057613040613b1e565b1a60f81b82828151811061305657613056613b1e565b60200101906001600160f81b031916908160001a90535060049490941c9361307d81613af1565b905061300f565b50831561270d5760405162461bcd60e51b815260206004820181905260248201527f537472696e67733a20686578206c656e67746820696e73756666696369656e746044820152606401610694565b6130dc81612917565b6040516001600160a01b038216907fbc7cd75a20ee27fd9adebab32041f755214dbc6bffa90cc0225b39da2e5c2d3b90600090a250565b60606001600160a01b0383163b61317b5760405162461bcd60e51b815260206004820152602660248201527f416464726573733a2064656c65676174652063616c6c20746f206e6f6e2d636f6044820152651b9d1c9858dd60d21b6064820152608401610694565b600080846001600160a01b0316846040516131969190613752565b600060405180830381855af49150503d80600081146131d1576040519150601f19603f3d011682016040523d82523d6000602084013e6131d6565b606091505b509150915061139e8282604051806060016040528060278152602001613b996027913961333b565b60408051600280825260608201835260009283929190602083019080368337019050509050848160008151811061323757613237613b1e565b60200260200101906001600160a01b031690816001600160a01b031681525050838160018151811061326b5761326b613b1e565b6001600160a01b03928316602091820292909201015261012d5460405163d06ca61f60e01b8152600092919091169063d06ca61f906132b090879086906004016139cf565b60006040518083038186803b1580156132c857600080fd5b505afa1580156132dc573d6000803e3d6000fd5b505050506040513d6000823e601f3d908101601f191682016040526133049190810190613575565b90508060018151811061331957613319613b1e565b6020026020010151925050509392505050565b6000612710612f238382613aae565b6060831561334a57508161270d565b82511561335a5782518084602001fd5b8160405162461bcd60e51b815260040161069491906137e3565b80356001600160a01b0381168114610fb957600080fd5b60006020828403121561339d57600080fd5b61270d82613374565b6000806000606084860312156133bb57600080fd5b6133c484613374565b92506133d260208501613374565b91506133e060408501613374565b90509250925092565b60008060008060008060c0878903121561340257600080fd5b61340b87613374565b955061341960208801613374565b945061342760408801613374565b93506060870135925061343c60808801613374565b915061344a60a08801613374565b90509295509295509295565b6000806040838503121561346957600080fd5b61347283613374565b915060208084013567ffffffffffffffff8082111561349057600080fd5b818601915086601f8301126134a457600080fd5b8135818111156134b6576134b6613b34565b6134c8601f8201601f19168501613a24565b915080825287848285010111156134de57600080fd5b80848401858401376000848284010152508093505050509250929050565b6000806040838503121561350f57600080fd5b61351883613374565b946020939093013593505050565b6000806000806080858703121561353c57600080fd5b61354585613374565b93506020850135925061355a60408601613374565b9150606085013561356a81613b4a565b939692955090935050565b6000602080838503121561358857600080fd5b825167ffffffffffffffff808211156135a057600080fd5b818501915085601f8301126135b457600080fd5b8151818111156135c6576135c6613b34565b8060051b91506135d7848301613a24565b8181528481019084860184860187018a10156135f257600080fd5b600095505b838610156136155780518352600195909501949186019186016135f7565b5098975050505050505050565b60006020828403121561363457600080fd5b815161270d81613b4a565b60006020828403121561365157600080fd5b5035919050565b60006020828403121561366a57600080fd5b5051919050565b6000806040838503121561368457600080fd5b8235915061369460208401613374565b90509250929050565b6000602082840312156136af57600080fd5b81356001600160e01b03198116811461270d57600080fd5b600080604083850312156136da57600080fd5b505080516020909101519092909150565b6000602082840312156136fd57600080fd5b815160ff8116811461270d57600080fd5b600081518084526020808501945080840160005b838110156137475781516001600160a01b031687529582019590820190600101613722565b509495945050505050565b60008251613764818460208701613ac5565b9190910192915050565b7f416363657373436f6e74726f6c3a206163636f756e74200000000000000000008152600083516137a6816017850160208801613ac5565b7001034b99036b4b9b9b4b733903937b6329607d1b60179184019182015283516137d7816028840160208801613ac5565b01602801949350505050565b6020815260008251806020840152613802816040850160208701613ac5565b601f01601f19169190910160400192915050565b6020808252601f908201527f5265737472696374656420746f20504f5254464f4c494f5f4d414e4147455200604082015260600190565b6020808252602c908201527f46756e6374696f6e206d7573742062652063616c6c6564207468726f7567682060408201526b19195b1959d85d1958d85b1b60a21b606082015260800190565b6020808252602c908201527f46756e6374696f6e206d7573742062652063616c6c6564207468726f7567682060408201526b6163746976652070726f787960a01b606082015260800190565b6020808252602e908201527f496e697469616c697a61626c653a20636f6e747261637420697320616c72656160408201526d191e481a5b9a5d1a585b1a5e995960921b606082015260800190565b6020808252601490820152735265737472696374656420746f2061646d696e7360601b604082015260600190565b60208082526019908201527f536f6d6520746f6b656e206e6f7420636f6d70617469626c6500000000000000604082015260600190565b60208082526018908201527f5a65726f2061646472657373206e6f7420616c6c6f7765640000000000000000604082015260600190565b828152604060208201526000611176604083018461370e565b85815284602082015260a060408201526000613a0760a083018661370e565b6001600160a01b0394909416606083015250608001529392505050565b604051601f8201601f1916810167ffffffffffffffff81118282101715613a4d57613a4d613b34565b604052919050565b60008219821115613a6857613a68613b08565b500190565b600082613a8a57634e487b7160e01b600052601260045260246000fd5b500490565b6000816000190483118215151615613aa957613aa9613b08565b500290565b600082821015613ac057613ac0613b08565b500390565b60005b83811015613ae0578181015183820152602001613ac8565b838111156129d85750506000910152565b600081613b0057613b00613b08565b506000190190565b634e487b7160e01b600052601160045260246000fd5b634e487b7160e01b600052603260045260246000fd5b634e487b7160e01b600052604160045260246000fd5b801515811461082f57600080fdfe90c2aa7471c04182221f68e80c07ab1e5946e4c63f8693e14ca40385d529f051360894a13ba1a3210667c828492db98dca3e2076cc3735a920a3ca505d382bbc416464726573733a206c6f772d6c6576656c2064656c65676174652063616c6c206661696c6564a26469706673582212203210df5dfc6e948512f4f789ce77dbeb2f75c87825ee719212430dca8635a22464736f6c63430008060033496e697469616c697a61626c653a20636f6e747261637420697320616c726561",
  "devdoc": {
    "kind": "dev",
    "methods": {
      "constructor": {
        "custom:oz-upgrades-unsafe-allow": "constructor"
      },
      "getRoleAdmin(bytes32)": {
        "details": "Returns the admin role that controls `role`. See {grantRole} and {revokeRole}. To change a role's admin, use {_setRoleAdmin}."
      },
      "grantRole(bytes32,address)": {
        "details": "Grants `role` to `account`. If `account` had not been already granted `role`, emits a {RoleGranted} event. Requirements: - the caller must have ``role``'s admin role."
      },
      "hasRole(bytes32,address)": {
        "details": "Returns `true` if `account` has been granted `role`."
      },
      "proxiableUUID()": {
        "details": "Implementation of the ERC1822 {proxiableUUID} function. This returns the storage slot used by the implementation. It is used to validate that the this implementation remains valid after an upgrade. IMPORTANT: A proxy pointing at a proxiable contract should not be considered proxiable itself, because this risks bricking a proxy that upgrades to it, by delegating to itself until out of gas. Thus it is critical that this function revert if invoked through a proxy. This is guaranteed by the `notDelegated` modifier."
      },
      "renounceRole(bytes32,address)": {
        "details": "Revokes `role` from the calling account. Roles are often managed via {grantRole} and {revokeRole}: this function's purpose is to provide a mechanism for accounts to lose their privileges if they are compromised (such as when a trusted device is misplaced). If the calling account had been revoked `role`, emits a {RoleRevoked} event. Requirements: - the caller must be `account`."
      },
      "revokeRole(bytes32,address)": {
        "details": "Revokes `role` from `account`. If `account` had been granted `role`, emits a {RoleRevoked} event. Requirements: - the caller must have ``role``'s admin role."
      },
      "supportsInterface(bytes4)": {
        "details": "See {IERC165-supportsInterface}."
      },
      "upgradeTo(address)": {
        "details": "Upgrade the implementation of the proxy to `newImplementation`. Calls {_authorizeUpgrade}. Emits an {Upgraded} event."
      },
      "upgradeToAndCall(address,bytes)": {
        "details": "Upgrade the implementation of the proxy to `newImplementation`, and subsequently execute the function call encoded in `data`. Calls {_authorizeUpgrade}. Emits an {Upgraded} event."
      }
    },
    "version": 1
  },
  "userdoc": {
    "kind": "user",
    "methods": {},
    "version": 1
  },
  "storageLayout": {
    "storage": [
      {
        "astId": 808,
        "contract": "contracts/StrategyStargateUsdt.sol:StrategyStargateUsdt",
        "label": "_initialized",
        "offset": 0,
        "slot": "0",
        "type": "t_uint8"
      },
      {
        "astId": 811,
        "contract": "contracts/StrategyStargateUsdt.sol:StrategyStargateUsdt",
        "label": "_initializing",
        "offset": 1,
        "slot": "0",
        "type": "t_bool"
      },
      {
        "astId": 1466,
        "contract": "contracts/StrategyStargateUsdt.sol:StrategyStargateUsdt",
        "label": "__gap",
        "offset": 0,
        "slot": "1",
        "type": "t_array(t_uint256)50_storage"
      },
      {
        "astId": 1773,
        "contract": "contracts/StrategyStargateUsdt.sol:StrategyStargateUsdt",
        "label": "__gap",
        "offset": 0,
        "slot": "51",
        "type": "t_array(t_uint256)50_storage"
      },
      {
        "astId": 39,
        "contract": "contracts/StrategyStargateUsdt.sol:StrategyStargateUsdt",
        "label": "_roles",
        "offset": 0,
        "slot": "101",
        "type": "t_mapping(t_bytes32,t_struct(RoleData)34_storage)"
      },
      {
        "astId": 338,
        "contract": "contracts/StrategyStargateUsdt.sol:StrategyStargateUsdt",
        "label": "__gap",
        "offset": 0,
        "slot": "102",
        "type": "t_array(t_uint256)49_storage"
      },
      {
        "astId": 790,
        "contract": "contracts/StrategyStargateUsdt.sol:StrategyStargateUsdt",
        "label": "__gap",
        "offset": 0,
        "slot": "151",
        "type": "t_array(t_uint256)50_storage"
      },
      {
        "astId": 1078,
        "contract": "contracts/StrategyStargateUsdt.sol:StrategyStargateUsdt",
        "label": "__gap",
        "offset": 0,
        "slot": "201",
        "type": "t_array(t_uint256)50_storage"
      },
      {
        "astId": 37027,
        "contract": "contracts/StrategyStargateUsdt.sol:StrategyStargateUsdt",
        "label": "portfolioManager",
        "offset": 0,
        "slot": "251",
        "type": "t_address"
      },
      {
        "astId": 37349,
        "contract": "contracts/StrategyStargateUsdt.sol:StrategyStargateUsdt",
        "label": "__gap",
        "offset": 0,
        "slot": "252",
        "type": "t_array(t_uint256)49_storage"
      },
      {
        "astId": 39267,
        "contract": "contracts/StrategyStargateUsdt.sol:StrategyStargateUsdt",
        "label": "uniswapRouter",
        "offset": 0,
        "slot": "301",
        "type": "t_contract(IUniswapV2Router02)35078"
      },
      {
        "astId": 39529,
        "contract": "contracts/StrategyStargateUsdt.sol:StrategyStargateUsdt",
        "label": "__gap",
        "offset": 0,
        "slot": "302",
        "type": "t_array(t_uint256)49_storage"
      },
      {
        "astId": 39143,
        "contract": "contracts/StrategyStargateUsdt.sol:StrategyStargateUsdt",
        "label": "synapseSwap",
        "offset": 0,
        "slot": "351",
        "type": "t_contract(ISwap)34106"
      },
      {
        "astId": 39255,
        "contract": "contracts/StrategyStargateUsdt.sol:StrategyStargateUsdt",
        "label": "__gap",
        "offset": 0,
        "slot": "352",
        "type": "t_array(t_uint256)49_storage"
      },
      {
        "astId": 26030,
        "contract": "contracts/StrategyStargateUsdt.sol:StrategyStargateUsdt",
        "label": "usdcToken",
        "offset": 0,
        "slot": "401",
        "type": "t_contract(IERC20)2512"
      },
      {
        "astId": 26033,
        "contract": "contracts/StrategyStargateUsdt.sol:StrategyStargateUsdt",
        "label": "usdtToken",
        "offset": 0,
        "slot": "402",
        "type": "t_contract(IERC20)2512"
      },
      {
        "astId": 26036,
        "contract": "contracts/StrategyStargateUsdt.sol:StrategyStargateUsdt",
        "label": "stgToken",
        "offset": 0,
        "slot": "403",
        "type": "t_contract(IERC20)2512"
      },
      {
        "astId": 26039,
        "contract": "contracts/StrategyStargateUsdt.sol:StrategyStargateUsdt",
        "label": "stargateRouter",
        "offset": 0,
        "slot": "404",
        "type": "t_contract(IStargateRouter)33857"
      },
      {
        "astId": 26042,
        "contract": "contracts/StrategyStargateUsdt.sol:StrategyStargateUsdt",
        "label": "pool",
        "offset": 0,
        "slot": "405",
        "type": "t_contract(IPool)33738"
      },
      {
        "astId": 26045,
        "contract": "contracts/StrategyStargateUsdt.sol:StrategyStargateUsdt",
        "label": "lpStaking",
        "offset": 0,
        "slot": "406",
        "type": "t_contract(ILPStaking)33720"
      },
      {
        "astId": 26047,
        "contract": "contracts/StrategyStargateUsdt.sol:StrategyStargateUsdt",
        "label": "pid",
        "offset": 0,
        "slot": "407",
        "type": "t_uint256"
      }
    ],
    "types": {
      "t_address": {
        "encoding": "inplace",
        "label": "address",
        "numberOfBytes": "20"
      },
      "t_array(t_uint256)49_storage": {
        "base": "t_uint256",
        "encoding": "inplace",
        "label": "uint256[49]",
        "numberOfBytes": "1568"
      },
      "t_array(t_uint256)50_storage": {
        "base": "t_uint256",
        "encoding": "inplace",
        "label": "uint256[50]",
        "numberOfBytes": "1600"
      },
      "t_bool": {
        "encoding": "inplace",
        "label": "bool",
        "numberOfBytes": "1"
      },
      "t_bytes32": {
        "encoding": "inplace",
        "label": "bytes32",
        "numberOfBytes": "32"
      },
      "t_contract(IERC20)2512": {
        "encoding": "inplace",
        "label": "contract IERC20",
        "numberOfBytes": "20"
      },
      "t_contract(ILPStaking)33720": {
        "encoding": "inplace",
        "label": "contract ILPStaking",
        "numberOfBytes": "20"
      },
      "t_contract(IPool)33738": {
        "encoding": "inplace",
        "label": "contract IPool",
        "numberOfBytes": "20"
      },
      "t_contract(IStargateRouter)33857": {
        "encoding": "inplace",
        "label": "contract IStargateRouter",
        "numberOfBytes": "20"
      },
      "t_contract(ISwap)34106": {
        "encoding": "inplace",
        "label": "contract ISwap",
        "numberOfBytes": "20"
      },
      "t_contract(IUniswapV2Router02)35078": {
        "encoding": "inplace",
        "label": "contract IUniswapV2Router02",
        "numberOfBytes": "20"
      },
      "t_mapping(t_address,t_bool)": {
        "encoding": "mapping",
        "key": "t_address",
        "label": "mapping(address => bool)",
        "numberOfBytes": "32",
        "value": "t_bool"
      },
      "t_mapping(t_bytes32,t_struct(RoleData)34_storage)": {
        "encoding": "mapping",
        "key": "t_bytes32",
        "label": "mapping(bytes32 => struct AccessControlUpgradeable.RoleData)",
        "numberOfBytes": "32",
        "value": "t_struct(RoleData)34_storage"
      },
      "t_struct(RoleData)34_storage": {
        "encoding": "inplace",
        "label": "struct AccessControlUpgradeable.RoleData",
        "members": [
          {
            "astId": 31,
            "contract": "contracts/StrategyStargateUsdt.sol:StrategyStargateUsdt",
            "label": "members",
            "offset": 0,
            "slot": "0",
            "type": "t_mapping(t_address,t_bool)"
          },
          {
            "astId": 33,
            "contract": "contracts/StrategyStargateUsdt.sol:StrategyStargateUsdt",
            "label": "adminRole",
            "offset": 0,
            "slot": "1",
            "type": "t_bytes32"
          }
        ],
        "numberOfBytes": "64"
      },
      "t_uint256": {
        "encoding": "inplace",
        "label": "uint256",
        "numberOfBytes": "32"
      },
      "t_uint8": {
        "encoding": "inplace",
        "label": "uint8",
        "numberOfBytes": "1"
      }
    }
  }
}