{
  "address": "0xbADb1AB49f469f129eC1cfBfd05617F62A3afF29",
  "abi": [
    {
      "inputs": [],
      "stateMutability": "nonpayable",
      "type": "constructor"
    },
    {
      "anonymous": false,
      "inputs": [
        {
          "indexed": false,
          "internalType": "address",
          "name": "previousAdmin",
          "type": "address"
        },
        {
          "indexed": false,
          "internalType": "address",
          "name": "newAdmin",
          "type": "address"
        }
      ],
      "name": "AdminChanged",
      "type": "event"
    },
    {
      "anonymous": false,
      "inputs": [
        {
          "indexed": false,
          "internalType": "uint256",
          "name": "healthFactor",
          "type": "uint256"
        }
      ],
      "name": "BalanceHealthFactor",
      "type": "event"
    },
    {
      "anonymous": false,
      "inputs": [
        {
          "indexed": true,
          "internalType": "address",
          "name": "beacon",
          "type": "address"
        }
      ],
      "name": "BeaconUpgraded",
      "type": "event"
    },
    {
      "anonymous": false,
      "inputs": [
        {
          "indexed": false,
          "internalType": "uint8",
          "name": "version",
          "type": "uint8"
        }
      ],
      "name": "Initialized",
      "type": "event"
    },
    {
      "anonymous": false,
      "inputs": [
        {
          "indexed": false,
          "internalType": "address",
          "name": "value",
          "type": "address"
        }
      ],
      "name": "PortfolioManagerUpdated",
      "type": "event"
    },
    {
      "anonymous": false,
      "inputs": [
        {
          "indexed": false,
          "internalType": "uint256",
          "name": "amount",
          "type": "uint256"
        }
      ],
      "name": "Reward",
      "type": "event"
    },
    {
      "anonymous": false,
      "inputs": [
        {
          "indexed": true,
          "internalType": "bytes32",
          "name": "role",
          "type": "bytes32"
        },
        {
          "indexed": true,
          "internalType": "bytes32",
          "name": "previousAdminRole",
          "type": "bytes32"
        },
        {
          "indexed": true,
          "internalType": "bytes32",
          "name": "newAdminRole",
          "type": "bytes32"
        }
      ],
      "name": "RoleAdminChanged",
      "type": "event"
    },
    {
      "anonymous": false,
      "inputs": [
        {
          "indexed": true,
          "internalType": "bytes32",
          "name": "role",
          "type": "bytes32"
        },
        {
          "indexed": true,
          "internalType": "address",
          "name": "account",
          "type": "address"
        },
        {
          "indexed": true,
          "internalType": "address",
          "name": "sender",
          "type": "address"
        }
      ],
      "name": "RoleGranted",
      "type": "event"
    },
    {
      "anonymous": false,
      "inputs": [
        {
          "indexed": true,
          "internalType": "bytes32",
          "name": "role",
          "type": "bytes32"
        },
        {
          "indexed": true,
          "internalType": "address",
          "name": "account",
          "type": "address"
        },
        {
          "indexed": true,
          "internalType": "address",
          "name": "sender",
          "type": "address"
        }
      ],
      "name": "RoleRevoked",
      "type": "event"
    },
    {
      "anonymous": false,
      "inputs": [
        {
          "indexed": false,
          "internalType": "uint256",
          "name": "amount",
          "type": "uint256"
        }
      ],
      "name": "Stake",
      "type": "event"
    },
    {
      "anonymous": false,
      "inputs": [
        {
          "indexed": false,
          "internalType": "address",
          "name": "gauge",
          "type": "address"
        },
        {
          "indexed": false,
          "internalType": "address",
          "name": "dystPair",
          "type": "address"
        },
        {
          "indexed": false,
          "internalType": "address",
          "name": "dystRouter",
          "type": "address"
        },
        {
          "indexed": false,
          "internalType": "address",
          "name": "balancerVault",
          "type": "address"
        },
        {
          "indexed": false,
          "internalType": "bytes32",
          "name": "poolIdUsdcTusdDaiUsdt",
          "type": "bytes32"
        }
      ],
      "name": "StrategyUpdatedParams",
      "type": "event"
    },
    {
      "anonymous": false,
      "inputs": [
        {
          "indexed": false,
          "internalType": "address",
          "name": "usdcToken",
          "type": "address"
        },
        {
          "indexed": false,
          "internalType": "address",
          "name": "usdtToken",
          "type": "address"
        },
        {
          "indexed": false,
          "internalType": "address",
          "name": "dystToken",
          "type": "address"
        },
        {
          "indexed": false,
          "internalType": "address",
          "name": "wmaticToken",
          "type": "address"
        },
        {
          "indexed": false,
          "internalType": "uint256",
          "name": "usdcTokenDenominator",
          "type": "uint256"
        },
        {
          "indexed": false,
          "internalType": "uint256",
          "name": "usdtTokenDenominator",
          "type": "uint256"
        }
      ],
      "name": "StrategyUpdatedTokens",
      "type": "event"
    },
    {
      "anonymous": false,
      "inputs": [
        {
          "indexed": false,
          "internalType": "uint256",
          "name": "amount",
          "type": "uint256"
        },
        {
          "indexed": false,
          "internalType": "uint256",
          "name": "amountReceived",
          "type": "uint256"
        }
      ],
      "name": "Unstake",
      "type": "event"
    },
    {
      "anonymous": false,
      "inputs": [
        {
          "indexed": true,
          "internalType": "address",
          "name": "implementation",
          "type": "address"
        }
      ],
      "name": "Upgraded",
      "type": "event"
    },
    {
      "inputs": [],
      "name": "DEFAULT_ADMIN_ROLE",
      "outputs": [
        {
          "internalType": "bytes32",
          "name": "",
          "type": "bytes32"
        }
      ],
      "stateMutability": "view",
      "type": "function"
    },
    {
      "inputs": [],
      "name": "MAX_VALUE",
      "outputs": [
        {
          "internalType": "int256",
          "name": "",
          "type": "int256"
        }
      ],
      "stateMutability": "view",
      "type": "function"
    },
    {
      "inputs": [],
      "name": "PORTFOLIO_MANAGER",
      "outputs": [
        {
          "internalType": "bytes32",
          "name": "",
          "type": "bytes32"
        }
      ],
      "stateMutability": "view",
      "type": "function"
    },
    {
      "inputs": [],
      "name": "UPGRADER_ROLE",
      "outputs": [
        {
          "internalType": "bytes32",
          "name": "",
          "type": "bytes32"
        }
      ],
      "stateMutability": "view",
      "type": "function"
    },
    {
      "inputs": [
        {
          "internalType": "address",
          "name": "_to",
          "type": "address"
        }
      ],
      "name": "claimRewards",
      "outputs": [
        {
          "internalType": "uint256",
          "name": "",
          "type": "uint256"
        }
      ],
      "stateMutability": "nonpayable",
      "type": "function"
    },
    {
      "inputs": [],
      "name": "dystPair",
      "outputs": [
        {
          "internalType": "contract IDystopiaLP",
          "name": "",
          "type": "address"
        }
      ],
      "stateMutability": "view",
      "type": "function"
    },
    {
      "inputs": [],
      "name": "dystToken",
      "outputs": [
        {
          "internalType": "contract IERC20",
          "name": "",
          "type": "address"
        }
      ],
      "stateMutability": "view",
      "type": "function"
    },
    {
      "inputs": [],
      "name": "gauge",
      "outputs": [
        {
          "internalType": "contract IDystopiaLP",
          "name": "",
          "type": "address"
        }
      ],
      "stateMutability": "view",
      "type": "function"
    },
    {
      "inputs": [
        {
          "internalType": "bytes32",
          "name": "role",
          "type": "bytes32"
        }
      ],
      "name": "getRoleAdmin",
      "outputs": [
        {
          "internalType": "bytes32",
          "name": "",
          "type": "bytes32"
        }
      ],
      "stateMutability": "view",
      "type": "function"
    },
    {
      "inputs": [
        {
          "internalType": "bytes32",
          "name": "role",
          "type": "bytes32"
        },
        {
          "internalType": "address",
          "name": "account",
          "type": "address"
        }
      ],
      "name": "grantRole",
      "outputs": [],
      "stateMutability": "nonpayable",
      "type": "function"
    },
    {
      "inputs": [
        {
          "internalType": "bytes32",
          "name": "role",
          "type": "bytes32"
        },
        {
          "internalType": "address",
          "name": "account",
          "type": "address"
        }
      ],
      "name": "hasRole",
      "outputs": [
        {
          "internalType": "bool",
          "name": "",
          "type": "bool"
        }
      ],
      "stateMutability": "view",
      "type": "function"
    },
    {
      "inputs": [],
      "name": "healthFactorBalance",
      "outputs": [],
      "stateMutability": "nonpayable",
      "type": "function"
    },
    {
      "inputs": [],
      "name": "initialize",
      "outputs": [],
      "stateMutability": "nonpayable",
      "type": "function"
    },
    {
      "inputs": [],
      "name": "liquidationValue",
      "outputs": [
        {
          "internalType": "uint256",
          "name": "",
          "type": "uint256"
        }
      ],
      "stateMutability": "view",
      "type": "function"
    },
    {
      "inputs": [],
      "name": "netAssetValue",
      "outputs": [
        {
          "internalType": "uint256",
          "name": "",
          "type": "uint256"
        }
      ],
      "stateMutability": "view",
      "type": "function"
    },
    {
      "inputs": [],
      "name": "poolIdUsdcTusdDaiUsdt",
      "outputs": [
        {
          "internalType": "bytes32",
          "name": "",
          "type": "bytes32"
        }
      ],
      "stateMutability": "view",
      "type": "function"
    },
    {
      "inputs": [],
      "name": "portfolioManager",
      "outputs": [
        {
          "internalType": "address",
          "name": "",
          "type": "address"
        }
      ],
      "stateMutability": "view",
      "type": "function"
    },
    {
      "inputs": [],
      "name": "proxiableUUID",
      "outputs": [
        {
          "internalType": "bytes32",
          "name": "",
          "type": "bytes32"
        }
      ],
      "stateMutability": "view",
      "type": "function"
    },
    {
      "inputs": [
        {
          "internalType": "bytes32",
          "name": "role",
          "type": "bytes32"
        },
        {
          "internalType": "address",
          "name": "account",
          "type": "address"
        }
      ],
      "name": "renounceRole",
      "outputs": [],
      "stateMutability": "nonpayable",
      "type": "function"
    },
    {
      "inputs": [
        {
          "internalType": "bytes32",
          "name": "role",
          "type": "bytes32"
        },
        {
          "internalType": "address",
          "name": "account",
          "type": "address"
        }
      ],
      "name": "revokeRole",
      "outputs": [],
      "stateMutability": "nonpayable",
      "type": "function"
    },
    {
      "inputs": [
        {
          "internalType": "address",
          "name": "_gauge",
          "type": "address"
        },
        {
          "internalType": "address",
          "name": "_dystPair",
          "type": "address"
        },
        {
          "internalType": "address",
          "name": "_dystRouter",
          "type": "address"
        },
        {
          "internalType": "address",
          "name": "_balancerVault",
          "type": "address"
        },
        {
          "internalType": "bytes32",
          "name": "_poolIdUsdcTusdDaiUsdt",
          "type": "bytes32"
        }
      ],
      "name": "setParams",
      "outputs": [],
      "stateMutability": "nonpayable",
      "type": "function"
    },
    {
      "inputs": [
        {
          "internalType": "address",
          "name": "_value",
          "type": "address"
        }
      ],
      "name": "setPortfolioManager",
      "outputs": [],
      "stateMutability": "nonpayable",
      "type": "function"
    },
    {
      "inputs": [
        {
          "internalType": "address",
          "name": "_usdcToken",
          "type": "address"
        },
        {
          "internalType": "address",
          "name": "_usdtToken",
          "type": "address"
        },
        {
          "internalType": "address",
          "name": "_dystToken",
          "type": "address"
        },
        {
          "internalType": "address",
          "name": "_wmaticToken",
          "type": "address"
        }
      ],
      "name": "setTokens",
      "outputs": [],
      "stateMutability": "nonpayable",
      "type": "function"
    },
    {
      "inputs": [
        {
          "internalType": "address",
          "name": "_asset",
          "type": "address"
        },
        {
          "internalType": "uint256",
          "name": "_amount",
          "type": "uint256"
        }
      ],
      "name": "stake",
      "outputs": [],
      "stateMutability": "nonpayable",
      "type": "function"
    },
    {
      "inputs": [
        {
          "internalType": "bytes4",
          "name": "interfaceId",
          "type": "bytes4"
        }
      ],
      "name": "supportsInterface",
      "outputs": [
        {
          "internalType": "bool",
          "name": "",
          "type": "bool"
        }
      ],
      "stateMutability": "view",
      "type": "function"
    },
    {
      "inputs": [
        {
          "internalType": "address",
          "name": "_asset",
          "type": "address"
        },
        {
          "internalType": "uint256",
          "name": "_amount",
          "type": "uint256"
        },
        {
          "internalType": "address",
          "name": "_beneficiary",
          "type": "address"
        },
        {
          "internalType": "bool",
          "name": "_targetIsZero",
          "type": "bool"
        }
      ],
      "name": "unstake",
      "outputs": [
        {
          "internalType": "uint256",
          "name": "",
          "type": "uint256"
        }
      ],
      "stateMutability": "nonpayable",
      "type": "function"
    },
    {
      "inputs": [
        {
          "internalType": "address",
          "name": "newImplementation",
          "type": "address"
        }
      ],
      "name": "upgradeTo",
      "outputs": [],
      "stateMutability": "nonpayable",
      "type": "function"
    },
    {
      "inputs": [
        {
          "internalType": "address",
          "name": "newImplementation",
          "type": "address"
        },
        {
          "internalType": "bytes",
          "name": "data",
          "type": "bytes"
        }
      ],
      "name": "upgradeToAndCall",
      "outputs": [],
      "stateMutability": "payable",
      "type": "function"
    },
    {
      "inputs": [],
      "name": "usdcToken",
      "outputs": [
        {
          "internalType": "contract IERC20",
          "name": "",
          "type": "address"
        }
      ],
      "stateMutability": "view",
      "type": "function"
    },
    {
      "inputs": [],
      "name": "usdcTokenDenominator",
      "outputs": [
        {
          "internalType": "uint256",
          "name": "",
          "type": "uint256"
        }
      ],
      "stateMutability": "view",
      "type": "function"
    },
    {
      "inputs": [],
      "name": "usdtToken",
      "outputs": [
        {
          "internalType": "contract IERC20",
          "name": "",
          "type": "address"
        }
      ],
      "stateMutability": "view",
      "type": "function"
    },
    {
      "inputs": [],
      "name": "usdtTokenDenominator",
      "outputs": [
        {
          "internalType": "uint256",
          "name": "",
          "type": "uint256"
        }
      ],
      "stateMutability": "view",
      "type": "function"
    },
    {
      "inputs": [],
      "name": "wmaticToken",
      "outputs": [
        {
          "internalType": "contract IERC20",
          "name": "",
          "type": "address"
        }
      ],
      "stateMutability": "view",
      "type": "function"
    }
  ],
  "numDeployments": 1,
  "solcInputHash": "47965844f6326903bd4e760b17da809f",
  "bytecode": "0x60a06040523060601b6080523480156200001857600080fd5b5060006200002760016200008e565b9050801562000040576000805461ff0019166101001790555b801562000087576000805461ff0019169055604051600181527f7f26b83ff96e1f2b6a682f133852f6798a09c465da95921460cefb38474024989060200160405180910390a15b50620001af565b60008054610100900460ff161562000127578160ff166001148015620000c75750620000c530620001a060201b620012cd1760201c565b155b6200011f5760405162461bcd60e51b815260206004820152602e60248201526000805160206200503b83398151915260448201526d191e481a5b9a5d1a585b1a5e995960921b60648201526084015b60405180910390fd5b506000919050565b60005460ff808416911610620001865760405162461bcd60e51b815260206004820152602e60248201526000805160206200503b83398151915260448201526d191e481a5b9a5d1a585b1a5e995960921b606482015260840162000116565b506000805460ff191660ff92909216919091179055600190565b6001600160a01b03163b151590565b60805160601c614e51620001ea600039600081816108b8015281816108f801528181610998015281816109d80152610a670152614e516000f3fe6080604052600436106101ee5760003560e01c80637b73aa4e1161010d578063a98ad46c116100a0578063c3bc6ff11161006f578063c3bc6ff114610552578063d547741f14610569578063ef5cfb8c14610589578063f6f6b881146105a9578063f72c0d8b146105c957600080fd5b8063a98ad46c146104cf578063abf4be01146104f0578063adc9772e14610511578063b0492aa51461053157600080fd5b8063a217fddf116100dc578063a217fddf14610479578063a3673b38146102ed578063a440b21a1461048e578063a6f19c84146104ae57600080fd5b80637b73aa4e1461040d5780637d5f5802146104225780638129fc1c1461044457806391d148541461045957600080fd5b80632fe4fb4a1161018557806352d1902d1161015457806352d1902d14610397578063537820bf146103ac5780635f8cddfe146103cc578063620b75df146103ed57600080fd5b80632fe4fb4a1461032457806336568abe146103445780633659cfe6146103645780634f1ef2861461038457600080fd5b8063129caff2116101c1578063129caff2146102a6578063248a9ca3146102bd5780632576e65a146102ed5780632f2ff15d1461030257600080fd5b806301ffc9a7146101f3578063063bde241461022857806306da3f2e1461025657806311eac8551461026d575b600080fd5b3480156101ff57600080fd5b5061021361020e366004614426565b6105fd565b60405190151581526020015b60405180910390f35b34801561023457600080fd5b506102486b033b2e3c9fd0803ce800000081565b60405190815260200161021f565b34801561026257600080fd5b506102486101955481565b34801561027957600080fd5b506101915461028e906001600160a01b031681565b6040516001600160a01b03909116815260200161021f565b3480156102b257600080fd5b506102486101995481565b3480156102c957600080fd5b506102486102d83660046143cf565b60009081526065602052604090206001015490565b3480156102f957600080fd5b50610248610634565b34801561030e57600080fd5b5061032261031d366004614401565b610643565b005b34801561033057600080fd5b5061032261033f3660046140e2565b61066d565b34801561035057600080fd5b5061032261035f366004614401565b61082f565b34801561037057600080fd5b5061032261037f366004614069565b6108ad565b610322610392366004614146565b61098d565b3480156103a357600080fd5b50610248610a5a565b3480156103b857600080fd5b506103226103c7366004614086565b610b0d565b3480156103d857600080fd5b506101985461028e906001600160a01b031681565b3480156103f957600080fd5b5060fb5461028e906001600160a01b031681565b34801561041957600080fd5b50610322610d87565b34801561042e57600080fd5b50610248600080516020614db583398151915281565b34801561045057600080fd5b50610322610dc8565b34801561046557600080fd5b50610213610474366004614401565b610e36565b34801561048557600080fd5b50610248600081565b34801561049a57600080fd5b506103226104a9366004614069565b610e61565b3480156104ba57600080fd5b506101975461028e906001600160a01b031681565b3480156104db57600080fd5b506101925461028e906001600160a01b031681565b3480156104fc57600080fd5b506101945461028e906001600160a01b031681565b34801561051d57600080fd5b5061032261052c36600461422c565b610f39565b34801561053d57600080fd5b506101935461028e906001600160a01b031681565b34801561055e57600080fd5b506102486101965481565b34801561057557600080fd5b50610322610584366004614401565b611022565b34801561059557600080fd5b506102486105a4366004614069565b611047565b3480156105b557600080fd5b506102486105c4366004614258565b6110cb565b3480156105d557600080fd5b506102487f189ab7a9244df0848122154315af71fe140f3db0fe014031783b0946b8c9d2e381565b60006001600160e01b03198216637965db0b60e01b148061062e57506301ffc9a760e01b6001600160e01b03198316145b92915050565b600061063e6112dc565b905090565b60008281526065602052604090206001015461065e816116ac565b61066883836116b6565b505050565b610678600033610e36565b61069d5760405162461bcd60e51b8152600401610694906148d6565b60405180910390fd5b6001600160a01b0385166106c35760405162461bcd60e51b81526004016106949061493b565b6001600160a01b0384166106e95760405162461bcd60e51b81526004016106949061493b565b6001600160a01b03831661070f5760405162461bcd60e51b81526004016106949061493b565b6001600160a01b0382166107355760405162461bcd60e51b81526004016106949061493b565b806107825760405162461bcd60e51b815260206004820152601960248201527f456d70747920706f6f6c206964206e6f7420616c6c6f776564000000000000006044820152606401610694565b61019780546001600160a01b038781166001600160a01b031992831681179093556101988054888316908416811790915561012d8054888416908516811790915561015f805490941692871692831790935561019985905560408051948552602085019190915283810192909252606083015260808201839052517fdb042264948f7a1d4c98cac70f29788723d0adfc5f9e3894fe2c88d3655695149160a0908290030190a15050505050565b6001600160a01b038116331461089f5760405162461bcd60e51b815260206004820152602f60248201527f416363657373436f6e74726f6c3a2063616e206f6e6c792072656e6f756e636560448201526e103937b632b9903337b91039b2b63360891b6064820152608401610694565b6108a9828261173c565b5050565b306001600160a01b037f00000000000000000000000000000000000000000000000000000000000000001614156108f65760405162461bcd60e51b8152600401610694906147ae565b7f00000000000000000000000000000000000000000000000000000000000000006001600160a01b031661093f600080516020614dd5833981519152546001600160a01b031690565b6001600160a01b0316146109655760405162461bcd60e51b81526004016106949061483c565b61096e816117a3565b6040805160008082526020820190925261098a918391906117cd565b50565b306001600160a01b037f00000000000000000000000000000000000000000000000000000000000000001614156109d65760405162461bcd60e51b8152600401610694906147ae565b7f00000000000000000000000000000000000000000000000000000000000000006001600160a01b0316610a1f600080516020614dd5833981519152546001600160a01b031690565b6001600160a01b031614610a455760405162461bcd60e51b81526004016106949061483c565b610a4e826117a3565b6108a9828260016117cd565b6000306001600160a01b037f00000000000000000000000000000000000000000000000000000000000000001614610afa5760405162461bcd60e51b815260206004820152603860248201527f555550535570677261646561626c653a206d757374206e6f742062652063616c60448201527f6c6564207468726f7567682064656c656761746563616c6c00000000000000006064820152608401610694565b50600080516020614dd583398151915290565b610b18600033610e36565b610b345760405162461bcd60e51b8152600401610694906148d6565b6001600160a01b038416610b5a5760405162461bcd60e51b81526004016106949061493b565b6001600160a01b038316610b805760405162461bcd60e51b81526004016106949061493b565b6001600160a01b038216610ba65760405162461bcd60e51b81526004016106949061493b565b6001600160a01b038116610bcc5760405162461bcd60e51b81526004016106949061493b565b61019180546001600160a01b038087166001600160a01b03199283168117909355610192805487831690841617905561019380548683169084161790556101948054918516919092161790556040805163313ce56760e01b8152905163313ce56791600480820192602092909190829003018186803b158015610c4e57600080fd5b505afa158015610c62573d6000803e3d6000fd5b505050506040513d601f19601f82011682018060405250810190610c8691906144f2565b610c9190600a614bda565b61019581905550826001600160a01b031663313ce5676040518163ffffffff1660e01b815260040160206040518083038186803b158015610cd157600080fd5b505afa158015610ce5573d6000803e3d6000fd5b505050506040513d601f19601f82011682018060405250810190610d0991906144f2565b610d1490600a614bda565b61019681905561019554604080516001600160a01b03888116825287811660208301528681168284015285166060820152608081019290925260a082019290925290517fe12a84f7b6db0cbb46792bc40aa14a947aee2e97a7ef410627b718480f7d97989181900360c00190a150505050565b610d9f600080516020614db583398151915233610e36565b610dbb5760405162461bcd60e51b815260040161069490614777565b565b60405180910390a150565b6000610dd46001611947565b90508015610dec576000805461ff0019166101001790555b610df46119cf565b801561098a576000805461ff0019169055604051600181527f7f26b83ff96e1f2b6a682f133852f6798a09c465da95921460cefb384740249890602001610dbd565b60009182526065602090815260408084206001600160a01b0393909316845291905290205460ff1690565b610e6c600033610e36565b610e885760405162461bcd60e51b8152600401610694906148d6565b6001600160a01b038116610eae5760405162461bcd60e51b81526004016106949061493b565b60fb54610ed390600080516020614db5833981519152906001600160a01b0316611022565b610eeb600080516020614db583398151915282610643565b60fb80546001600160a01b0319166001600160a01b0383169081179091556040519081527ff7b449fcd5cfb7379dcd34cb69428dd9f882033b15be33d83b42d91daa28eeb790602001610dbd565b610f51600080516020614db583398151915233610e36565b610f6d5760405162461bcd60e51b815260040161069490614777565b6040518181527f227a473b70d2f893cc7659219575c030a63b5743024fe1e0c1a680e708b1525a9060200160405180910390a16040516370a0823160e01b81523060048201526108a99083906001600160a01b038216906370a082319060240160206040518083038186803b158015610fe557600080fd5b505afa158015610ff9573d6000803e3d6000fd5b505050506040513d601f19601f8201168201806040525081019061101d91906143e8565b611a38565b60008281526065602052604090206001015461103d816116ac565b610668838361173c565b6000611061600080516020614db583398151915233610e36565b61107d5760405162461bcd60e51b815260040161069490614777565b600061108883611ece565b90507f3ac0594a85a20354f9dc74f33728416d19ce00d04a406c108cc2dcf2cecea134816040516110bb91815260200190565b60405180910390a190505b919050565b60006110e5600080516020614db583398151915233610e36565b6111015760405162461bcd60e51b815260040161069490614777565b6000821561111a576111138685612158565b9050611189565b61112586868661256a565b9050848110156111895760405162461bcd60e51b815260206004820152602960248201527f52657475726e65642076616c7565206c657373207468616e2072657175657374604482015268195908185b5bdd5b9d60ba1b6064820152608401610694565b6040516370a0823160e01b81523060048201526000906001600160a01b038816906370a082319060240160206040518083038186803b1580156111cb57600080fd5b505afa1580156111df573d6000803e3d6000fd5b505050506040513d601f19601f8201168201806040525081019061120391906143e8565b60405163a9059cbb60e01b81526001600160a01b038781166004830152602482018390529192509088169063a9059cbb90604401602060405180830381600087803b15801561125157600080fd5b505af1158015611265573d6000803e3d6000fd5b505050506040513d601f19601f8201168201806040525081019061128991906143b2565b5060408051878152602081018390527f9045c2ac9b2026de8075f2701bbdde882cd5e830b3b1ead9a15b22f2b5b93742910160405180910390a19695505050505050565b6001600160a01b03163b151590565b610191546040516370a0823160e01b815230600482015260009182916001600160a01b03909116906370a082319060240160206040518083038186803b15801561132557600080fd5b505afa158015611339573d6000803e3d6000fd5b505050506040513d601f19601f8201168201806040525081019061135d91906143e8565b610192546040516370a0823160e01b81523060048201529192506000916001600160a01b03909116906370a082319060240160206040518083038186803b1580156113a757600080fd5b505afa1580156113bb573d6000803e3d6000fd5b505050506040513d601f19601f820116820180604052508101906113df91906143e8565b905060008061019860009054906101000a90046001600160a01b03166001600160a01b0316630902f1ac6040518163ffffffff1660e01b815260040160606040518083038186803b15801561143357600080fd5b505afa158015611447573d6000803e3d6000fd5b505050506040513d601f19601f8201168201806040525081019061146b9190614450565b50610197546040516370a0823160e01b81523060048201526001600160701b0393841695509190921692506000916001600160a01b0316906370a082319060240160206040518083038186803b1580156114c457600080fd5b505afa1580156114d8573d6000803e3d6000fd5b505050506040513d601f19601f820116820180604052508101906114fc91906143e8565b905080156116655761019854604080516318160ddd60e01b815290516000926001600160a01b0316916318160ddd916004808301926020929190829003018186803b15801561154a57600080fd5b505afa15801561155e573d6000803e3d6000fd5b505050506040513d601f19601f8201168201806040525081019061158291906143e8565b905060008061019860009054906101000a90046001600160a01b03166001600160a01b0316630902f1ac6040518163ffffffff1660e01b815260040160606040518083038186803b1580156115d657600080fd5b505afa1580156115ea573d6000803e3d6000fd5b505050506040513d601f19601f8201168201806040525081019061160e9190614450565b506001600160701b0391821693501690508261162a8584614c85565b6116349190614b75565b61163e9089614b5d565b97508261164b8583614c85565b6116559190614b75565b61165f9088614b5d565b96505050505b600084156116975761019954610192546101915461169492916000916001600160a01b039182169116896129b8565b90505b6116a18187614b5d565b965050505050505090565b61098a8133612e9e565b6116c08282610e36565b6108a95760008281526065602090815260408083206001600160a01b03851684529091529020805460ff191660011790556116f83390565b6001600160a01b0316816001600160a01b0316837f2f8788117e7eff1d82e926ec794901d17c78024a50270940304540a733656f0d60405160405180910390a45050565b6117468282610e36565b156108a95760008281526065602090815260408083206001600160a01b0385168085529252808320805460ff1916905551339285917ff6391f5c32d9c69d2a47ea670b442974b53935d1edc7fd64eb21e047a839171b9190a45050565b7f189ab7a9244df0848122154315af71fe140f3db0fe014031783b0946b8c9d2e36108a9816116ac565b7f4910fdfa16fed3260ed0e7147f7cc6da11a60208b5b9406d12a635614ffd91435460ff16156118005761066883612f02565b826001600160a01b03166352d1902d6040518163ffffffff1660e01b815260040160206040518083038186803b15801561183957600080fd5b505afa925050508015611869575060408051601f3d908101601f19168201909252611866918101906143e8565b60015b6118cc5760405162461bcd60e51b815260206004820152602e60248201527f45524331393637557067726164653a206e657720696d706c656d656e7461746960448201526d6f6e206973206e6f74205555505360901b6064820152608401610694565b600080516020614dd5833981519152811461193b5760405162461bcd60e51b815260206004820152602960248201527f45524331393637557067726164653a20756e737570706f727465642070726f786044820152681a58589b195555525160ba1b6064820152608401610694565b50610668838383612f9e565b60008054610100900460ff161561198e578160ff16600114801561196a5750303b155b6119865760405162461bcd60e51b815260040161069490614888565b506000919050565b60005460ff8084169116106119b55760405162461bcd60e51b815260040161069490614888565b506000805460ff191660ff92909216919091179055600190565b60006119db6001611947565b905080156119f3576000805461ff0019166101001790555b6119fb612fc9565b611a03612fc9565b611a0e6000336116b6565b610df47f189ab7a9244df0848122154315af71fe140f3db0fe014031783b0946b8c9d2e3336116b6565b610191546001600160a01b03838116911614611a665760405162461bcd60e51b815260040161069490614904565b60008061019860009054906101000a90046001600160a01b03166001600160a01b0316630902f1ac6040518163ffffffff1660e01b815260040160606040518083038186803b158015611ab857600080fd5b505afa158015611acc573d6000803e3d6000fd5b505050506040513d601f19601f82011682018060405250810190611af09190614450565b506001600160701b031691506001600160701b031691506103e882118015611b1957506103e881115b611b355760405162461bcd60e51b8152600401610694906147fa565b610191546040516370a0823160e01b815230600482015260009182916001600160a01b03909116906370a082319060240160206040518083038186803b158015611b7e57600080fd5b505afa158015611b92573d6000803e3d6000fd5b505050506040513d601f19601f82011682018060405250810190611bb691906143e8565b6101955461019654610199546101915461019254949550600094611bf39487948b948b94929391926001926001600160a01b039182169116613034565b610199546101915461019254929350611c1f926000916001600160a01b039081169116308087856130e3565b50610191546040516370a0823160e01b81523060048201526001600160a01b03909116906370a082319060240160206040518083038186803b158015611c6457600080fd5b505afa158015611c78573d6000803e3d6000fd5b505050506040513d601f19601f82011682018060405250810190611c9c91906143e8565b610192546040516370a0823160e01b81523060048201529193506001600160a01b0316906370a082319060240160206040518083038186803b158015611ce157600080fd5b505afa158015611cf5573d6000803e3d6000fd5b505050506040513d601f19601f82011682018060405250810190611d1991906143e8565b6101915461019254919450611d4f916001600160a01b0391821691168486611d4082613352565b611d4989613352565b30613377565b5050610198546040516370a0823160e01b8152306004820152600092506001600160a01b03909116906370a082319060240160206040518083038186803b158015611d9957600080fd5b505afa158015611dad573d6000803e3d6000fd5b505050506040513d601f19601f82011682018060405250810190611dd191906143e8565b610198546101975460405163095ea7b360e01b81526001600160a01b03918216600482015260248101849052929350169063095ea7b390604401602060405180830381600087803b158015611e2557600080fd5b505af1158015611e39573d6000803e3d6000fd5b505050506040513d601f19601f82011682018060405250810190611e5d91906143b2565b5061019754604051631c57762b60e31b815260048101839052600060248201526001600160a01b039091169063e2bbb15890604401600060405180830381600087803b158015611eac57600080fd5b505af1158015611ec0573d6000803e3d6000fd5b505050505050505050505050565b6040805160018082528183019092526000918291906020808301908036833750506101935482519293506001600160a01b031691839150600090611f1457611f14614d65565b6001600160a01b039283166020918202929092010152610197546040516331279d3d60e01b81529116906331279d3d90611f549030908590600401614708565b600060405180830381600087803b158015611f6e57600080fd5b505af1158015611f82573d6000803e3d6000fd5b5050610193546040516370a0823160e01b8152306004820152600093508392506001600160a01b03909116906370a082319060240160206040518083038186803b158015611fcf57600080fd5b505afa158015611fe3573d6000803e3d6000fd5b505050506040513d601f19601f8201168201806040525081019061200791906143e8565b9050801561204a5761019354610194546101915460009261203a926001600160a01b03918216929082169116853061357c565b90506120468184614b5d565b9250505b610191546040516370a0823160e01b81523060048201526001600160a01b039091169063a9059cbb90879083906370a082319060240160206040518083038186803b15801561209857600080fd5b505afa1580156120ac573d6000803e3d6000fd5b505050506040513d601f19601f820116820180604052508101906120d091906143e8565b6040516001600160e01b031960e085901b1681526001600160a01b0390921660048301526024820152604401602060405180830381600087803b15801561211657600080fd5b505af115801561212a573d6000803e3d6000fd5b505050506040513d601f19601f8201168201806040525081019061214e91906143b2565b5090949350505050565b610191546000906001600160a01b038481169116146121895760405162461bcd60e51b815260040161069490614904565b61019760009054906101000a90046001600160a01b03166001600160a01b031663853828b66040518163ffffffff1660e01b8152600401600060405180830381600087803b1580156121da57600080fd5b505af11580156121ee573d6000803e3d6000fd5b5050505060008061019860009054906101000a90046001600160a01b03166001600160a01b0316630902f1ac6040518163ffffffff1660e01b815260040160606040518083038186803b15801561224457600080fd5b505afa158015612258573d6000803e3d6000fd5b505050506040513d601f19601f8201168201806040525081019061227c9190614450565b506001600160701b031691506001600160701b031691506103e8821180156122a557506103e881115b6122c15760405162461bcd60e51b8152600401610694906147fa565b610198546040516370a0823160e01b81523060048201526000916001600160a01b0316906370a082319060240160206040518083038186803b15801561230657600080fd5b505afa15801561231a573d6000803e3d6000fd5b505050506040513d601f19601f8201168201806040525081019061233e91906143e8565b905080156124395761019854604080516318160ddd60e01b815290516000926001600160a01b0316916318160ddd916004808301926020929190829003018186803b15801561238c57600080fd5b505afa1580156123a0573d6000803e3d6000fd5b505050506040513d601f19601f820116820180604052508101906123c491906143e8565b90506000816123d38487614c85565b6123dd9190614b75565b90506000826123ec8587614c85565b6123f69190614b75565b610191546101925461019854929350612433926001600160a01b039283169291821691168761242487613352565b61242d87613352565b30613866565b50505050505b610192546040516370a0823160e01b81523060048201526000916001600160a01b0316906370a082319060240160206040518083038186803b15801561247e57600080fd5b505afa158015612492573d6000803e3d6000fd5b505050506040513d601f19601f820116820180604052508101906124b691906143e8565b6101995461019254610191549293506124e2926000916001600160a01b039081169116308087856130e3565b50610191546040516370a0823160e01b81523060048201526001600160a01b03909116906370a082319060240160206040518083038186803b15801561252757600080fd5b505afa15801561253b573d6000803e3d6000fd5b505050506040513d601f19601f8201168201806040525081019061255f91906143e8565b979650505050505050565b610191546000906001600160a01b0385811691161461259b5760405162461bcd60e51b815260040161069490614904565b60008061019860009054906101000a90046001600160a01b03166001600160a01b0316630902f1ac6040518163ffffffff1660e01b815260040160606040518083038186803b1580156125ed57600080fd5b505afa158015612601573d6000803e3d6000fd5b505050506040513d601f19601f820116820180604052508101906126259190614450565b506001600160701b031691506001600160701b031691506103e88211801561264e57506103e881115b61266a5760405162461bcd60e51b8152600401610694906147fa565b610197546040516370a0823160e01b81523060048201526000916001600160a01b0316906370a082319060240160206040518083038186803b1580156126af57600080fd5b505afa1580156126c3573d6000803e3d6000fd5b505050506040513d601f19601f820116820180604052508101906126e791906143e8565b905080156128845761019854604080516318160ddd60e01b815290516000926001600160a01b0316916318160ddd916004808301926020929190829003018186803b15801561273557600080fd5b505afa158015612749573d6000803e3d6000fd5b505050506040513d601f19601f8201168201806040525081019061276d91906143e8565b905060006127b161277d896139d7565b61019554610196546101995461019154610192548b948b948a9491939092600192916001600160a01b0390811691166139e8565b9050828111156127be5750815b61019754604051632e1a7d4d60e01b8152600481018390526001600160a01b0390911690632e1a7d4d90602401600060405180830381600087803b15801561280557600080fd5b505af1158015612819573d6000803e3d6000fd5b50505050600082828761282c9190614c85565b6128369190614b75565b90506000836128458488614c85565b61284f9190614b75565b61019154610192546101985492935061287d926001600160a01b039283169291821691168661242487613352565b5050505050505b610192546040516370a0823160e01b81523060048201526000916001600160a01b0316906370a082319060240160206040518083038186803b1580156128c957600080fd5b505afa1580156128dd573d6000803e3d6000fd5b505050506040513d601f19601f8201168201806040525081019061290191906143e8565b61019954610192546101915492935061292d926000916001600160a01b039081169116308087856130e3565b50610191546040516370a0823160e01b81523060048201526001600160a01b03909116906370a082319060240160206040518083038186803b15801561297257600080fd5b505afa158015612986573d6000803e3d6000fd5b505050506040513d601f19601f820116820180604052508101906129aa91906143e8565b9450505050505b9392505050565b604080516101208101825260008082526020820181905291810182905260608082018390526080820183905260a0820183905260c0820183905260e0820183905261010082015280866001811115612a1257612a12614d4f565b90816001811115612a2557612a25614d4f565b9052506001600160a01b0385811660208301528481166040808401919091526060830185905261015f549051631f29a8cd60e31b8152600481018a90526000928392839291169063f94d46689060240160006040518083038186803b158015612a8d57600080fd5b505afa158015612aa1573d6000803e3d6000fd5b505050506040513d6000823e601f3d908101601f19168201604052612ac991908101906142a0565b61015f5460405163f6c0092760e01b8152600481018f9052939650919450925060009182916001600160a01b03169063f6c0092790602401604080518083038186803b158015612b1857600080fd5b505afa158015612b2c573d6000803e3d6000fd5b505050506040513d601f19601f82011682018060405250810190612b5091906141ee565b90925090506000816002811115612b6957612b69614d4f565b1415612ca25760008060005b87518160ff161015612c11578c6001600160a01b0316888260ff1681518110612ba057612ba0614d65565b60200260200101516001600160a01b03161415612bc2578060ff169250612bff565b8b6001600160a01b0316888260ff1681518110612be157612be1614d65565b60200260200101516001600160a01b03161415612bff578060ff1691505b80612c0981614d19565b915050612b75565b5060405162f64aa560e11b81526001600160a01b038516906301ec954a90612c43908b908a9087908790600401614a2d565b60206040518083038186803b158015612c5b57600080fd5b505afa158015612c6f573d6000803e3d6000fd5b505050506040513d601f19601f82011682018060405250810190612c9391906143e8565b98505050505050505050612e95565b6001816002811115612cb657612cb6614d4f565b1415612dc15760008060005b87518160ff161015612d90578c6001600160a01b0316888260ff1681518110612ced57612ced614d65565b60200260200101516001600160a01b03161415612d2857868160ff1681518110612d1957612d19614d65565b60200260200101519250612d7e565b8b6001600160a01b0316888260ff1681518110612d4757612d47614d65565b60200260200101516001600160a01b03161415612d7e57868160ff1681518110612d7357612d73614d65565b602002602001015191505b80612d8881614d19565b915050612cc2565b5060405163274b044360e21b81526001600160a01b03851690639d2c110c90612c43908b9086908690600401614a8e565b60008060005b87518160ff161015612d90578c6001600160a01b0316888260ff1681518110612df257612df2614d65565b60200260200101516001600160a01b03161415612e2d57868160ff1681518110612e1e57612e1e614d65565b60200260200101519250612e83565b8b6001600160a01b0316888260ff1681518110612e4c57612e4c614d65565b60200260200101516001600160a01b03161415612e8357868160ff1681518110612e7857612e78614d65565b602002602001015191505b80612e8d81614d19565b915050612dc7565b95945050505050565b612ea88282610e36565b6108a957612ec0816001600160a01b03166014613ab2565b612ecb836020613ab2565b604051602001612edc929190614693565b60408051601f198184030181529082905262461bcd60e51b825261069491600401614764565b6001600160a01b0381163b612f6f5760405162461bcd60e51b815260206004820152602d60248201527f455243313936373a206e657720696d706c656d656e746174696f6e206973206e60448201526c1bdd08184818dbdb9d1c9858dd609a1b6064820152608401610694565b600080516020614dd583398151915280546001600160a01b0319166001600160a01b0392909216919091179055565b612fa783613c4e565b600082511180612fb45750805b1561066857612fc38383613c8e565b50505050565b600054610100900460ff16610dbb5760405162461bcd60e51b815260206004820152602b60248201527f496e697469616c697a61626c653a20636f6e7472616374206973206e6f74206960448201526a6e697469616c697a696e6760a81b6064820152608401610694565b6000808888613043898d614c85565b61304d9190614b75565b6130579190614b5d565b6130618a8d614c85565b61306b9190614b75565b905060005b868110156130d45760006130888760008888876129b8565b90508a83613096838f614c85565b6130a09190614b75565b6130aa9190614b5d565b6130b48c8f614c85565b6130be9190614b75565b92505080806130cc90614cfe565b915050613070565b509a9950505050505050505050565b61015f546040516370a0823160e01b81523060048201526000916001600160a01b038981169263095ea7b392919091169083906370a082319060240160206040518083038186803b15801561313757600080fd5b505afa15801561314b573d6000803e3d6000fd5b505050506040513d601f19601f8201168201806040525081019061316f91906143e8565b6040516001600160e01b031960e085901b1681526001600160a01b0390921660048301526024820152604401602060405180830381600087803b1580156131b557600080fd5b505af11580156131c9573d6000803e3d6000fd5b505050506040513d601f19601f820116820180604052508101906131ed91906143b2565b5061323a6040805160c0810190915260008082526020820190815260200160006001600160a01b0316815260200160006001600160a01b0316815260200160008152602001606081525090565b8981526020810189600181111561325357613253614d4f565b9081600181111561326657613266614d4f565b9052506001600160a01b038881166040838101919091528882166060808501919091526080808501889052825190810183526000602082018190529181019190915288831681528783169181019190915261015f549091166352bbbe298383876132d242610258614b5d565b6040518563ffffffff1660e01b81526004016132f19493929190614972565b602060405180830381600087803b15801561330b57600080fd5b505af115801561331f573d6000803e3d6000fd5b505050506040513d601f19601f8201168201806040525081019061334391906143e8565b9b9a5050505050505050505050565b600061271061336361057882614ca4565b61336d9084614c85565b61062e9190614b75565b61012d5460405163095ea7b360e01b81526001600160a01b03918216600482015260248101879052600091829182918b169063095ea7b390604401602060405180830381600087803b1580156133cc57600080fd5b505af11580156133e0573d6000803e3d6000fd5b505050506040513d601f19601f8201168201806040525081019061340491906143b2565b5061012d5460405163095ea7b360e01b81526001600160a01b03918216600482015260248101899052908a169063095ea7b390604401602060405180830381600087803b15801561345457600080fd5b505af1158015613468573d6000803e3d6000fd5b505050506040513d601f19601f8201168201806040525081019061348c91906143b2565b5061012d546001600160a01b0316635a47ddc38b8b60018c8c8c8c8c6134b442610258614b5d565b60405160e08b901b6001600160e01b03191681526001600160a01b03998a166004820152978916602489015295151560448801526064870194909452608486019290925260a485015260c484015290921660e482015261010481019190915261012401606060405180830381600087803b15801561353157600080fd5b505af1158015613545573d6000803e3d6000fd5b505050506040513d601f19601f8201168201806040525081019061356991906144c4565b9250925092509750975097945050505050565b61012d5460405163095ea7b360e01b81526001600160a01b0391821660048201526024810184905260009187169063095ea7b390604401602060405180830381600087803b1580156135cd57600080fd5b505af11580156135e1573d6000803e3d6000fd5b505050506040513d601f19601f8201168201806040525081019061360591906143b2565b50600061361487878787613d79565b905080613625576000915050612e95565b60408051600280825260608201909252600091816020015b604080516060810182526000808252602080830182905292820152825260001990920191018161363d579050509050878160008151811061368057613680614d65565b6020026020010151600001906001600160a01b031690816001600160a01b03168152505086816000815181106136b8576136b8614d65565b6020026020010151602001906001600160a01b031690816001600160a01b0316815250506000816000815181106136f1576136f1614d65565b60200260200101516040019015159081151581525050868160018151811061371b5761371b614d65565b6020026020010151600001906001600160a01b031690816001600160a01b031681525050858160018151811061375357613753614d65565b6020026020010151602001906001600160a01b031690816001600160a01b03168152505060018160018151811061378c5761378c614d65565b602090810291909101015190151560409091015261012d546000906001600160a01b031663f41766d8878385896137c542610258614b5d565b6040518663ffffffff1660e01b81526004016137e5959493929190614acc565b600060405180830381600087803b1580156137ff57600080fd5b505af1158015613813573d6000803e3d6000fd5b505050506040513d6000823e601f3d908101601f1916820160405261383b9190810190614375565b90508060018151811061385057613850614d65565b6020026020010151935050505095945050505050565b61012d5460405163095ea7b360e01b81526001600160a01b0391821660048201526024810186905260009182919088169063095ea7b390604401602060405180830381600087803b1580156138ba57600080fd5b505af11580156138ce573d6000803e3d6000fd5b505050506040513d601f19601f820116820180604052508101906138f291906143b2565b5061012d546001600160a01b0316630dede6c48a8a60018a8a8a8a61391942610258614b5d565b60405160e08a901b6001600160e01b03191681526001600160a01b039889166004820152968816602488015294151560448701526064860193909352608485019190915260a484015290921660c482015260e4810191909152610104016040805180830381600087803b15801561398f57600080fd5b505af11580156139a3573d6000803e3d6000fd5b505050506040513d601f19601f820116820180604052508101906139c791906144a0565b9150915097509795505050505050565b600061271061336361057882614b5d565b600080866139f6898c614c85565b613a009190614b75565b613a0a908c614b5d565b613a148d8b614c85565b613a1e9190614b75565b905060005b86811015613aa25760008a613a38848e614c85565b613a429190614b75565b90506000613a54886000888a866129b8565b905081613a61828f614c85565b613a6b9190614b75565b613a75908f614b5d565b8f8d613a819190614c85565b613a8b9190614b75565b935050508080613a9a90614cfe565b915050613a23565b509b9a5050505050505050505050565b60606000613ac1836002614c85565b613acc906002614b5d565b67ffffffffffffffff811115613ae457613ae4614d7b565b6040519080825280601f01601f191660200182016040528015613b0e576020820181803683370190505b509050600360fc1b81600081518110613b2957613b29614d65565b60200101906001600160f81b031916908160001a905350600f60fb1b81600181518110613b5857613b58614d65565b60200101906001600160f81b031916908160001a9053506000613b7c846002614c85565b613b87906001614b5d565b90505b6001811115613bff576f181899199a1a9b1b9c1cb0b131b232b360811b85600f1660108110613bbb57613bbb614d65565b1a60f81b828281518110613bd157613bd1614d65565b60200101906001600160f81b031916908160001a90535060049490941c93613bf881614ce7565b9050613b8a565b5083156129b15760405162461bcd60e51b815260206004820181905260248201527f537472696e67733a20686578206c656e67746820696e73756666696369656e746044820152606401610694565b613c5781612f02565b6040516001600160a01b038216907fbc7cd75a20ee27fd9adebab32041f755214dbc6bffa90cc0225b39da2e5c2d3b90600090a250565b60606001600160a01b0383163b613cf65760405162461bcd60e51b815260206004820152602660248201527f416464726573733a2064656c65676174652063616c6c20746f206e6f6e2d636f6044820152651b9d1c9858dd60d21b6064820152608401610694565b600080846001600160a01b031684604051613d119190614677565b600060405180830381855af49150503d8060008114613d4c576040519150601f19603f3d011682016040523d82523d6000602084013e613d51565b606091505b5091509150612e958282604051806060016040528060278152602001614df560279139613fa7565b60408051600280825260608201909252600091829190816020015b6040805160608101825260008082526020808301829052928201528252600019909201910181613d945790505090508581600081518110613dd757613dd7614d65565b6020026020010151600001906001600160a01b031690816001600160a01b0316815250508481600081518110613e0f57613e0f614d65565b6020026020010151602001906001600160a01b031690816001600160a01b031681525050600081600081518110613e4857613e48614d65565b602002602001015160400190151590811515815250508481600181518110613e7257613e72614d65565b6020026020010151600001906001600160a01b031690816001600160a01b0316815250508381600181518110613eaa57613eaa614d65565b6020026020010151602001906001600160a01b031690816001600160a01b031681525050600181600181518110613ee357613ee3614d65565b602090810291909101015190151560409182015261012d5490516326207f2d60e21b81526000916001600160a01b031690639881fcb490613f2a9087908690600401614ab3565b60006040518083038186803b158015613f4257600080fd5b505afa158015613f56573d6000803e3d6000fd5b505050506040513d6000823e601f3d908101601f19168201604052613f7e9190810190614375565b905080600181518110613f9357613f93614d65565b602002602001015192505050949350505050565b60608315613fb65750816129b1565b825115613fc65782518084602001fd5b8160405162461bcd60e51b81526004016106949190614764565b600082601f830112613ff157600080fd5b8151602061400661400183614b39565b614b08565b80838252828201915082860187848660051b890101111561402657600080fd5b60005b8581101561404557815184529284019290840190600101614029565b5090979650505050505050565b80516001600160701b03811681146110c657600080fd5b60006020828403121561407b57600080fd5b81356129b181614d91565b6000806000806080858703121561409c57600080fd5b84356140a781614d91565b935060208501356140b781614d91565b925060408501356140c781614d91565b915060608501356140d781614d91565b939692955090935050565b600080600080600060a086880312156140fa57600080fd5b853561410581614d91565b9450602086013561411581614d91565b9350604086013561412581614d91565b9250606086013561413581614d91565b949793965091946080013592915050565b6000806040838503121561415957600080fd5b823561416481614d91565b915060208381013567ffffffffffffffff8082111561418257600080fd5b818601915086601f83011261419657600080fd5b8135818111156141a8576141a8614d7b565b6141ba601f8201601f19168501614b08565b915080825287848285010111156141d057600080fd5b80848401858401376000848284010152508093505050509250929050565b6000806040838503121561420157600080fd5b825161420c81614d91565b60208401519092506003811061422157600080fd5b809150509250929050565b6000806040838503121561423f57600080fd5b823561424a81614d91565b946020939093013593505050565b6000806000806080858703121561426e57600080fd5b843561427981614d91565b935060208501359250604085013561429081614d91565b915060608501356140d781614da6565b6000806000606084860312156142b557600080fd5b835167ffffffffffffffff808211156142cd57600080fd5b818601915086601f8301126142e157600080fd5b815160206142f161400183614b39565b8083825282820191508286018b848660051b890101111561431157600080fd5b600096505b8487101561433d57805161432981614d91565b835260019690960195918301918301614316565b509189015191975090935050508082111561435757600080fd5b5061436486828701613fe0565b925050604084015190509250925092565b60006020828403121561438757600080fd5b815167ffffffffffffffff81111561439e57600080fd5b6143aa84828501613fe0565b949350505050565b6000602082840312156143c457600080fd5b81516129b181614da6565b6000602082840312156143e157600080fd5b5035919050565b6000602082840312156143fa57600080fd5b5051919050565b6000806040838503121561441457600080fd5b82359150602083013561422181614d91565b60006020828403121561443857600080fd5b81356001600160e01b0319811681146129b157600080fd5b60008060006060848603121561446557600080fd5b61446e84614052565b925061447c60208501614052565b9150604084015163ffffffff8116811461449557600080fd5b809150509250925092565b600080604083850312156144b357600080fd5b505080516020909101519092909150565b6000806000606084860312156144d957600080fd5b8351925060208401519150604084015190509250925092565b60006020828403121561450457600080fd5b815160ff811681146129b157600080fd5b600081518084526020808501945080840160005b8381101561456957815180516001600160a01b03908116895284820151168489015260409081015115159088015260609096019590820190600101614529565b509495945050505050565b6000815180845261458c816020860160208601614cbb565b601f01601f19169290920160200192915050565b600281106145be57634e487b7160e01b600052602160045260246000fd5b9052565b60006101206145d28484516145a0565b6020838101516001600160a01b03169085015260408084015190614600908601826001600160a01b03169052565b50606083015160608501526080830151608085015260a083015160a085015260c083015161463960c08601826001600160a01b03169052565b5060e083015161465460e08601826001600160a01b03169052565b5061010080840151828287015261466d83870182614574565b9695505050505050565b60008251614689818460208701614cbb565b9190910192915050565b7f416363657373436f6e74726f6c3a206163636f756e74200000000000000000008152600083516146cb816017850160208801614cbb565b7001034b99036b4b9b9b4b733903937b6329607d1b60179184019182015283516146fc816028840160208801614cbb565b01602801949350505050565b6001600160a01b038381168252604060208084018290528451918401829052600092858201929091906060860190855b81811015614756578551851683529483019491830191600101614738565b509098975050505050505050565b6020815260006129b16020830184614574565b6020808252601f908201527f5265737472696374656420746f20504f5254464f4c494f5f4d414e4147455200604082015260600190565b6020808252602c908201527f46756e6374696f6e206d7573742062652063616c6c6564207468726f7567682060408201526b19195b1959d85d1958d85b1b60a21b606082015260800190565b60208082526022908201527f4c6971756964697479206c70546f6b656e20726573657276657320746f6f206c6040820152616f7760f01b606082015260800190565b6020808252602c908201527f46756e6374696f6e206d7573742062652063616c6c6564207468726f7567682060408201526b6163746976652070726f787960a01b606082015260800190565b6020808252602e908201527f496e697469616c697a61626c653a20636f6e747261637420697320616c72656160408201526d191e481a5b9a5d1a585b1a5e995960921b606082015260800190565b6020808252601490820152735265737472696374656420746f2061646d696e7360601b604082015260600190565b60208082526019908201527f536f6d6520746f6b656e206e6f7420636f6d70617469626c6500000000000000604082015260600190565b60208082526018908201527f5a65726f2061646472657373206e6f7420616c6c6f7765640000000000000000604082015260600190565b60e08152845160e0820152600060208601516149926101008401826145a0565b5060408601516001600160a01b03908116610120840152606087015116610140830152608086015161016083015260a086015160c06101808401526149db6101a0840182614574565b915050614a1b602083018680516001600160a01b039081168352602080830151151590840152604080830151909116908301526060908101511515910152565b60a082019390935260c0015292915050565b608081526000614a4060808301876145c2565b82810360208481019190915286518083528782019282019060005b81811015614a7757845183529383019391830191600101614a5b565b505060408501969096525050506060015292915050565b606081526000614aa160608301866145c2565b60208301949094525060400152919050565b8281526040602082015260006143aa6040830184614515565b85815284602082015260a060408201526000614aeb60a0830186614515565b6001600160a01b0394909416606083015250608001529392505050565b604051601f8201601f1916810167ffffffffffffffff81118282101715614b3157614b31614d7b565b604052919050565b600067ffffffffffffffff821115614b5357614b53614d7b565b5060051b60200190565b60008219821115614b7057614b70614d39565b500190565b600082614b9257634e487b7160e01b600052601260045260246000fd5b500490565b600181815b80851115614bd2578160001904821115614bb857614bb8614d39565b80851615614bc557918102915b93841c9390800290614b9c565b509250929050565b60006129b160ff841683600082614bf35750600161062e565b81614c005750600061062e565b8160018114614c165760028114614c2057614c3c565b600191505061062e565b60ff841115614c3157614c31614d39565b50506001821b61062e565b5060208310610133831016604e8410600b8410161715614c5f575081810a61062e565b614c698383614b97565b8060001904821115614c7d57614c7d614d39565b029392505050565b6000816000190483118215151615614c9f57614c9f614d39565b500290565b600082821015614cb657614cb6614d39565b500390565b60005b83811015614cd6578181015183820152602001614cbe565b83811115612fc35750506000910152565b600081614cf657614cf6614d39565b506000190190565b6000600019821415614d1257614d12614d39565b5060010190565b600060ff821660ff811415614d3057614d30614d39565b60010192915050565b634e487b7160e01b600052601160045260246000fd5b634e487b7160e01b600052602160045260246000fd5b634e487b7160e01b600052603260045260246000fd5b634e487b7160e01b600052604160045260246000fd5b6001600160a01b038116811461098a57600080fd5b801515811461098a57600080fdfe90c2aa7471c04182221f68e80c07ab1e5946e4c63f8693e14ca40385d529f051360894a13ba1a3210667c828492db98dca3e2076cc3735a920a3ca505d382bbc416464726573733a206c6f772d6c6576656c2064656c65676174652063616c6c206661696c6564a2646970667358221220b1b729bc12d47f8e10bc143ac5c235957f78bd57e26feafb55ff8eb17091079264736f6c63430008060033496e697469616c697a61626c653a20636f6e747261637420697320616c726561",
  "devdoc": {
    "kind": "dev",
    "methods": {
      "constructor": {
        "custom:oz-upgrades-unsafe-allow": "constructor"
      },
      "getRoleAdmin(bytes32)": {
        "details": "Returns the admin role that controls `role`. See {grantRole} and {revokeRole}. To change a role's admin, use {_setRoleAdmin}."
      },
      "grantRole(bytes32,address)": {
        "details": "Grants `role` to `account`. If `account` had not been already granted `role`, emits a {RoleGranted} event. Requirements: - the caller must have ``role``'s admin role."
      },
      "hasRole(bytes32,address)": {
        "details": "Returns `true` if `account` has been granted `role`."
      },
      "proxiableUUID()": {
        "details": "Implementation of the ERC1822 {proxiableUUID} function. This returns the storage slot used by the implementation. It is used to validate that the this implementation remains valid after an upgrade. IMPORTANT: A proxy pointing at a proxiable contract should not be considered proxiable itself, because this risks bricking a proxy that upgrades to it, by delegating to itself until out of gas. Thus it is critical that this function revert if invoked through a proxy. This is guaranteed by the `notDelegated` modifier."
      },
      "renounceRole(bytes32,address)": {
        "details": "Revokes `role` from the calling account. Roles are often managed via {grantRole} and {revokeRole}: this function's purpose is to provide a mechanism for accounts to lose their privileges if they are compromised (such as when a trusted device is misplaced). If the calling account had been revoked `role`, emits a {RoleRevoked} event. Requirements: - the caller must be `account`."
      },
      "revokeRole(bytes32,address)": {
        "details": "Revokes `role` from `account`. If `account` had been granted `role`, emits a {RoleRevoked} event. Requirements: - the caller must have ``role``'s admin role."
      },
      "supportsInterface(bytes4)": {
        "details": "See {IERC165-supportsInterface}."
      },
      "upgradeTo(address)": {
        "details": "Upgrade the implementation of the proxy to `newImplementation`. Calls {_authorizeUpgrade}. Emits an {Upgraded} event."
      },
      "upgradeToAndCall(address,bytes)": {
        "details": "Upgrade the implementation of the proxy to `newImplementation`, and subsequently execute the function call encoded in `data`. Calls {_authorizeUpgrade}. Emits an {Upgraded} event."
      }
    },
    "version": 1
  },
  "userdoc": {
    "kind": "user",
    "methods": {},
    "version": 1
  },
  "storageLayout": {
    "storage": [
      {
        "astId": 808,
        "contract": "contracts/StrategyDystopiaUsdcUsdt.sol:StrategyDystopiaUsdcUsdt",
        "label": "_initialized",
        "offset": 0,
        "slot": "0",
        "type": "t_uint8"
      },
      {
        "astId": 811,
        "contract": "contracts/StrategyDystopiaUsdcUsdt.sol:StrategyDystopiaUsdcUsdt",
        "label": "_initializing",
        "offset": 1,
        "slot": "0",
        "type": "t_bool"
      },
      {
        "astId": 1363,
        "contract": "contracts/StrategyDystopiaUsdcUsdt.sol:StrategyDystopiaUsdcUsdt",
        "label": "__gap",
        "offset": 0,
        "slot": "1",
        "type": "t_array(t_uint256)50_storage"
      },
      {
        "astId": 1670,
        "contract": "contracts/StrategyDystopiaUsdcUsdt.sol:StrategyDystopiaUsdcUsdt",
        "label": "__gap",
        "offset": 0,
        "slot": "51",
        "type": "t_array(t_uint256)50_storage"
      },
      {
        "astId": 39,
        "contract": "contracts/StrategyDystopiaUsdcUsdt.sol:StrategyDystopiaUsdcUsdt",
        "label": "_roles",
        "offset": 0,
        "slot": "101",
        "type": "t_mapping(t_bytes32,t_struct(RoleData)34_storage)"
      },
      {
        "astId": 338,
        "contract": "contracts/StrategyDystopiaUsdcUsdt.sol:StrategyDystopiaUsdcUsdt",
        "label": "__gap",
        "offset": 0,
        "slot": "102",
        "type": "t_array(t_uint256)49_storage"
      },
      {
        "astId": 790,
        "contract": "contracts/StrategyDystopiaUsdcUsdt.sol:StrategyDystopiaUsdcUsdt",
        "label": "__gap",
        "offset": 0,
        "slot": "151",
        "type": "t_array(t_uint256)50_storage"
      },
      {
        "astId": 1078,
        "contract": "contracts/StrategyDystopiaUsdcUsdt.sol:StrategyDystopiaUsdcUsdt",
        "label": "__gap",
        "offset": 0,
        "slot": "201",
        "type": "t_array(t_uint256)50_storage"
      },
      {
        "astId": 31031,
        "contract": "contracts/StrategyDystopiaUsdcUsdt.sol:StrategyDystopiaUsdcUsdt",
        "label": "portfolioManager",
        "offset": 0,
        "slot": "251",
        "type": "t_address"
      },
      {
        "astId": 31338,
        "contract": "contracts/StrategyDystopiaUsdcUsdt.sol:StrategyDystopiaUsdcUsdt",
        "label": "__gap",
        "offset": 0,
        "slot": "252",
        "type": "t_array(t_uint256)49_storage"
      },
      {
        "astId": 32597,
        "contract": "contracts/StrategyDystopiaUsdcUsdt.sol:StrategyDystopiaUsdcUsdt",
        "label": "dystRouter",
        "offset": 0,
        "slot": "301",
        "type": "t_contract(IDystopiaRouter)27568"
      },
      {
        "astId": 32969,
        "contract": "contracts/StrategyDystopiaUsdcUsdt.sol:StrategyDystopiaUsdcUsdt",
        "label": "__gap",
        "offset": 0,
        "slot": "302",
        "type": "t_array(t_uint256)49_storage"
      },
      {
        "astId": 31354,
        "contract": "contracts/StrategyDystopiaUsdcUsdt.sol:StrategyDystopiaUsdcUsdt",
        "label": "balancerVault",
        "offset": 0,
        "slot": "351",
        "type": "t_contract(IVault)26842"
      },
      {
        "astId": 32320,
        "contract": "contracts/StrategyDystopiaUsdcUsdt.sol:StrategyDystopiaUsdcUsdt",
        "label": "__gap",
        "offset": 0,
        "slot": "352",
        "type": "t_array(t_uint256)49_storage"
      },
      {
        "astId": 16650,
        "contract": "contracts/StrategyDystopiaUsdcUsdt.sol:StrategyDystopiaUsdcUsdt",
        "label": "usdcToken",
        "offset": 0,
        "slot": "401",
        "type": "t_contract(IERC20)1823"
      },
      {
        "astId": 16653,
        "contract": "contracts/StrategyDystopiaUsdcUsdt.sol:StrategyDystopiaUsdcUsdt",
        "label": "usdtToken",
        "offset": 0,
        "slot": "402",
        "type": "t_contract(IERC20)1823"
      },
      {
        "astId": 16656,
        "contract": "contracts/StrategyDystopiaUsdcUsdt.sol:StrategyDystopiaUsdcUsdt",
        "label": "dystToken",
        "offset": 0,
        "slot": "403",
        "type": "t_contract(IERC20)1823"
      },
      {
        "astId": 16659,
        "contract": "contracts/StrategyDystopiaUsdcUsdt.sol:StrategyDystopiaUsdcUsdt",
        "label": "wmaticToken",
        "offset": 0,
        "slot": "404",
        "type": "t_contract(IERC20)1823"
      },
      {
        "astId": 16661,
        "contract": "contracts/StrategyDystopiaUsdcUsdt.sol:StrategyDystopiaUsdcUsdt",
        "label": "usdcTokenDenominator",
        "offset": 0,
        "slot": "405",
        "type": "t_uint256"
      },
      {
        "astId": 16663,
        "contract": "contracts/StrategyDystopiaUsdcUsdt.sol:StrategyDystopiaUsdcUsdt",
        "label": "usdtTokenDenominator",
        "offset": 0,
        "slot": "406",
        "type": "t_uint256"
      },
      {
        "astId": 16666,
        "contract": "contracts/StrategyDystopiaUsdcUsdt.sol:StrategyDystopiaUsdcUsdt",
        "label": "gauge",
        "offset": 0,
        "slot": "407",
        "type": "t_contract(IDystopiaLP)27452"
      },
      {
        "astId": 16669,
        "contract": "contracts/StrategyDystopiaUsdcUsdt.sol:StrategyDystopiaUsdcUsdt",
        "label": "dystPair",
        "offset": 0,
        "slot": "408",
        "type": "t_contract(IDystopiaLP)27452"
      },
      {
        "astId": 16671,
        "contract": "contracts/StrategyDystopiaUsdcUsdt.sol:StrategyDystopiaUsdcUsdt",
        "label": "poolIdUsdcTusdDaiUsdt",
        "offset": 0,
        "slot": "409",
        "type": "t_bytes32"
      }
    ],
    "types": {
      "t_address": {
        "encoding": "inplace",
        "label": "address",
        "numberOfBytes": "20"
      },
      "t_array(t_uint256)49_storage": {
        "base": "t_uint256",
        "encoding": "inplace",
        "label": "uint256[49]",
        "numberOfBytes": "1568"
      },
      "t_array(t_uint256)50_storage": {
        "base": "t_uint256",
        "encoding": "inplace",
        "label": "uint256[50]",
        "numberOfBytes": "1600"
      },
      "t_bool": {
        "encoding": "inplace",
        "label": "bool",
        "numberOfBytes": "1"
      },
      "t_bytes32": {
        "encoding": "inplace",
        "label": "bytes32",
        "numberOfBytes": "32"
      },
      "t_contract(IDystopiaLP)27452": {
        "encoding": "inplace",
        "label": "contract IDystopiaLP",
        "numberOfBytes": "20"
      },
      "t_contract(IDystopiaRouter)27568": {
        "encoding": "inplace",
        "label": "contract IDystopiaRouter",
        "numberOfBytes": "20"
      },
      "t_contract(IERC20)1823": {
        "encoding": "inplace",
        "label": "contract IERC20",
        "numberOfBytes": "20"
      },
      "t_contract(IVault)26842": {
        "encoding": "inplace",
        "label": "contract IVault",
        "numberOfBytes": "20"
      },
      "t_mapping(t_address,t_bool)": {
        "encoding": "mapping",
        "key": "t_address",
        "label": "mapping(address => bool)",
        "numberOfBytes": "32",
        "value": "t_bool"
      },
      "t_mapping(t_bytes32,t_struct(RoleData)34_storage)": {
        "encoding": "mapping",
        "key": "t_bytes32",
        "label": "mapping(bytes32 => struct AccessControlUpgradeable.RoleData)",
        "numberOfBytes": "32",
        "value": "t_struct(RoleData)34_storage"
      },
      "t_struct(RoleData)34_storage": {
        "encoding": "inplace",
        "label": "struct AccessControlUpgradeable.RoleData",
        "members": [
          {
            "astId": 31,
            "contract": "contracts/StrategyDystopiaUsdcUsdt.sol:StrategyDystopiaUsdcUsdt",
            "label": "members",
            "offset": 0,
            "slot": "0",
            "type": "t_mapping(t_address,t_bool)"
          },
          {
            "astId": 33,
            "contract": "contracts/StrategyDystopiaUsdcUsdt.sol:StrategyDystopiaUsdcUsdt",
            "label": "adminRole",
            "offset": 0,
            "slot": "1",
            "type": "t_bytes32"
          }
        ],
        "numberOfBytes": "64"
      },
      "t_uint256": {
        "encoding": "inplace",
        "label": "uint256",
        "numberOfBytes": "32"
      },
      "t_uint8": {
        "encoding": "inplace",
        "label": "uint8",
        "numberOfBytes": "1"
      }
    }
  }
}