{
  "address": "0xc90754A12424Db8d532B54725B787fd70400DD6A",
  "abi": [
    {
      "inputs": [],
      "stateMutability": "nonpayable",
      "type": "constructor"
    },
    {
      "anonymous": false,
      "inputs": [
        {
          "indexed": false,
          "internalType": "address",
          "name": "previousAdmin",
          "type": "address"
        },
        {
          "indexed": false,
          "internalType": "address",
          "name": "newAdmin",
          "type": "address"
        }
      ],
      "name": "AdminChanged",
      "type": "event"
    },
    {
      "anonymous": false,
      "inputs": [
        {
          "indexed": true,
          "internalType": "address",
          "name": "beacon",
          "type": "address"
        }
      ],
      "name": "BeaconUpgraded",
      "type": "event"
    },
    {
      "anonymous": false,
      "inputs": [
        {
          "indexed": false,
          "internalType": "address",
          "name": "value",
          "type": "address"
        }
      ],
      "name": "PortfolioManagerUpdated",
      "type": "event"
    },
    {
      "anonymous": false,
      "inputs": [
        {
          "indexed": false,
          "internalType": "uint256",
          "name": "amount",
          "type": "uint256"
        }
      ],
      "name": "Reward",
      "type": "event"
    },
    {
      "anonymous": false,
      "inputs": [
        {
          "indexed": true,
          "internalType": "bytes32",
          "name": "role",
          "type": "bytes32"
        },
        {
          "indexed": true,
          "internalType": "bytes32",
          "name": "previousAdminRole",
          "type": "bytes32"
        },
        {
          "indexed": true,
          "internalType": "bytes32",
          "name": "newAdminRole",
          "type": "bytes32"
        }
      ],
      "name": "RoleAdminChanged",
      "type": "event"
    },
    {
      "anonymous": false,
      "inputs": [
        {
          "indexed": true,
          "internalType": "bytes32",
          "name": "role",
          "type": "bytes32"
        },
        {
          "indexed": true,
          "internalType": "address",
          "name": "account",
          "type": "address"
        },
        {
          "indexed": true,
          "internalType": "address",
          "name": "sender",
          "type": "address"
        }
      ],
      "name": "RoleGranted",
      "type": "event"
    },
    {
      "anonymous": false,
      "inputs": [
        {
          "indexed": true,
          "internalType": "bytes32",
          "name": "role",
          "type": "bytes32"
        },
        {
          "indexed": true,
          "internalType": "address",
          "name": "account",
          "type": "address"
        },
        {
          "indexed": true,
          "internalType": "address",
          "name": "sender",
          "type": "address"
        }
      ],
      "name": "RoleRevoked",
      "type": "event"
    },
    {
      "anonymous": false,
      "inputs": [
        {
          "indexed": false,
          "internalType": "uint256",
          "name": "amount",
          "type": "uint256"
        }
      ],
      "name": "Stake",
      "type": "event"
    },
    {
      "anonymous": false,
      "inputs": [
        {
          "indexed": false,
          "internalType": "address",
          "name": "dodoV1UsdcUsdtPool",
          "type": "address"
        },
        {
          "indexed": false,
          "internalType": "address",
          "name": "dodoV2DodoUsdtPool",
          "type": "address"
        },
        {
          "indexed": false,
          "internalType": "address",
          "name": "dodoMine",
          "type": "address"
        },
        {
          "indexed": false,
          "internalType": "address",
          "name": "dodoV1Helper",
          "type": "address"
        },
        {
          "indexed": false,
          "internalType": "address",
          "name": "dodoProxy",
          "type": "address"
        },
        {
          "indexed": false,
          "internalType": "address",
          "name": "dodoApprove",
          "type": "address"
        }
      ],
      "name": "StrategyDodoUpdatedParams",
      "type": "event"
    },
    {
      "anonymous": false,
      "inputs": [
        {
          "indexed": false,
          "internalType": "address",
          "name": "usdcToken",
          "type": "address"
        },
        {
          "indexed": false,
          "internalType": "address",
          "name": "usdtToken",
          "type": "address"
        },
        {
          "indexed": false,
          "internalType": "address",
          "name": "dodoToken",
          "type": "address"
        },
        {
          "indexed": false,
          "internalType": "address",
          "name": "usdcLPToken",
          "type": "address"
        },
        {
          "indexed": false,
          "internalType": "address",
          "name": "usdtLPToken",
          "type": "address"
        }
      ],
      "name": "StrategyDodoUpdatedTokens",
      "type": "event"
    },
    {
      "anonymous": false,
      "inputs": [
        {
          "indexed": false,
          "internalType": "uint256",
          "name": "amount",
          "type": "uint256"
        },
        {
          "indexed": false,
          "internalType": "uint256",
          "name": "amountReceived",
          "type": "uint256"
        }
      ],
      "name": "Unstake",
      "type": "event"
    },
    {
      "anonymous": false,
      "inputs": [
        {
          "indexed": true,
          "internalType": "address",
          "name": "implementation",
          "type": "address"
        }
      ],
      "name": "Upgraded",
      "type": "event"
    },
    {
      "inputs": [],
      "name": "DEFAULT_ADMIN_ROLE",
      "outputs": [
        {
          "internalType": "bytes32",
          "name": "",
          "type": "bytes32"
        }
      ],
      "stateMutability": "view",
      "type": "function"
    },
    {
      "inputs": [],
      "name": "PORTFOLIO_MANAGER",
      "outputs": [
        {
          "internalType": "bytes32",
          "name": "",
          "type": "bytes32"
        }
      ],
      "stateMutability": "view",
      "type": "function"
    },
    {
      "inputs": [],
      "name": "UPGRADER_ROLE",
      "outputs": [
        {
          "internalType": "bytes32",
          "name": "",
          "type": "bytes32"
        }
      ],
      "stateMutability": "view",
      "type": "function"
    },
    {
      "inputs": [
        {
          "internalType": "address",
          "name": "_to",
          "type": "address"
        }
      ],
      "name": "claimRewards",
      "outputs": [
        {
          "internalType": "uint256",
          "name": "",
          "type": "uint256"
        }
      ],
      "stateMutability": "nonpayable",
      "type": "function"
    },
    {
      "inputs": [],
      "name": "dodoMine",
      "outputs": [
        {
          "internalType": "contract IDODOMine",
          "name": "",
          "type": "address"
        }
      ],
      "stateMutability": "view",
      "type": "function"
    },
    {
      "inputs": [],
      "name": "dodoToken",
      "outputs": [
        {
          "internalType": "contract IERC20",
          "name": "",
          "type": "address"
        }
      ],
      "stateMutability": "view",
      "type": "function"
    },
    {
      "inputs": [],
      "name": "dodoV1UsdcUsdtPool",
      "outputs": [
        {
          "internalType": "contract IDODOV1",
          "name": "",
          "type": "address"
        }
      ],
      "stateMutability": "view",
      "type": "function"
    },
    {
      "inputs": [],
      "name": "dodoV2DodoUsdtPool",
      "outputs": [
        {
          "internalType": "contract IDODOV2",
          "name": "",
          "type": "address"
        }
      ],
      "stateMutability": "view",
      "type": "function"
    },
    {
      "inputs": [
        {
          "internalType": "bytes32",
          "name": "role",
          "type": "bytes32"
        }
      ],
      "name": "getRoleAdmin",
      "outputs": [
        {
          "internalType": "bytes32",
          "name": "",
          "type": "bytes32"
        }
      ],
      "stateMutability": "view",
      "type": "function"
    },
    {
      "inputs": [
        {
          "internalType": "bytes32",
          "name": "role",
          "type": "bytes32"
        },
        {
          "internalType": "address",
          "name": "account",
          "type": "address"
        }
      ],
      "name": "grantRole",
      "outputs": [],
      "stateMutability": "nonpayable",
      "type": "function"
    },
    {
      "inputs": [
        {
          "internalType": "bytes32",
          "name": "role",
          "type": "bytes32"
        },
        {
          "internalType": "address",
          "name": "account",
          "type": "address"
        }
      ],
      "name": "hasRole",
      "outputs": [
        {
          "internalType": "bool",
          "name": "",
          "type": "bool"
        }
      ],
      "stateMutability": "view",
      "type": "function"
    },
    {
      "inputs": [],
      "name": "initialize",
      "outputs": [],
      "stateMutability": "nonpayable",
      "type": "function"
    },
    {
      "inputs": [],
      "name": "liquidationValue",
      "outputs": [
        {
          "internalType": "uint256",
          "name": "",
          "type": "uint256"
        }
      ],
      "stateMutability": "view",
      "type": "function"
    },
    {
      "inputs": [],
      "name": "netAssetValue",
      "outputs": [
        {
          "internalType": "uint256",
          "name": "",
          "type": "uint256"
        }
      ],
      "stateMutability": "view",
      "type": "function"
    },
    {
      "inputs": [],
      "name": "portfolioManager",
      "outputs": [
        {
          "internalType": "address",
          "name": "",
          "type": "address"
        }
      ],
      "stateMutability": "view",
      "type": "function"
    },
    {
      "inputs": [],
      "name": "proxiableUUID",
      "outputs": [
        {
          "internalType": "bytes32",
          "name": "",
          "type": "bytes32"
        }
      ],
      "stateMutability": "view",
      "type": "function"
    },
    {
      "inputs": [
        {
          "internalType": "bytes32",
          "name": "role",
          "type": "bytes32"
        },
        {
          "internalType": "address",
          "name": "account",
          "type": "address"
        }
      ],
      "name": "renounceRole",
      "outputs": [],
      "stateMutability": "nonpayable",
      "type": "function"
    },
    {
      "inputs": [
        {
          "internalType": "bytes32",
          "name": "role",
          "type": "bytes32"
        },
        {
          "internalType": "address",
          "name": "account",
          "type": "address"
        }
      ],
      "name": "revokeRole",
      "outputs": [],
      "stateMutability": "nonpayable",
      "type": "function"
    },
    {
      "inputs": [
        {
          "internalType": "address",
          "name": "_dodoV1UsdcUsdtPool",
          "type": "address"
        },
        {
          "internalType": "address",
          "name": "_dodoV2DodoUsdtPool",
          "type": "address"
        },
        {
          "internalType": "address",
          "name": "_dodoMine",
          "type": "address"
        },
        {
          "internalType": "address",
          "name": "_dodoV1Helper",
          "type": "address"
        },
        {
          "internalType": "address",
          "name": "_dodoProxy",
          "type": "address"
        },
        {
          "internalType": "address",
          "name": "_dodoApprove",
          "type": "address"
        }
      ],
      "name": "setParams",
      "outputs": [],
      "stateMutability": "nonpayable",
      "type": "function"
    },
    {
      "inputs": [
        {
          "internalType": "address",
          "name": "_value",
          "type": "address"
        }
      ],
      "name": "setPortfolioManager",
      "outputs": [],
      "stateMutability": "nonpayable",
      "type": "function"
    },
    {
      "inputs": [
        {
          "internalType": "address",
          "name": "_usdcToken",
          "type": "address"
        },
        {
          "internalType": "address",
          "name": "_usdtToken",
          "type": "address"
        },
        {
          "internalType": "address",
          "name": "_dodoToken",
          "type": "address"
        },
        {
          "internalType": "address",
          "name": "_usdcLPToken",
          "type": "address"
        },
        {
          "internalType": "address",
          "name": "_usdtLPToken",
          "type": "address"
        }
      ],
      "name": "setTokens",
      "outputs": [],
      "stateMutability": "nonpayable",
      "type": "function"
    },
    {
      "inputs": [
        {
          "internalType": "address",
          "name": "_asset",
          "type": "address"
        },
        {
          "internalType": "uint256",
          "name": "_amount",
          "type": "uint256"
        }
      ],
      "name": "stake",
      "outputs": [],
      "stateMutability": "nonpayable",
      "type": "function"
    },
    {
      "inputs": [
        {
          "internalType": "bytes4",
          "name": "interfaceId",
          "type": "bytes4"
        }
      ],
      "name": "supportsInterface",
      "outputs": [
        {
          "internalType": "bool",
          "name": "",
          "type": "bool"
        }
      ],
      "stateMutability": "view",
      "type": "function"
    },
    {
      "inputs": [
        {
          "internalType": "address",
          "name": "_asset",
          "type": "address"
        },
        {
          "internalType": "uint256",
          "name": "_amount",
          "type": "uint256"
        },
        {
          "internalType": "address",
          "name": "_beneficiary",
          "type": "address"
        },
        {
          "internalType": "bool",
          "name": "_targetIsZero",
          "type": "bool"
        }
      ],
      "name": "unstake",
      "outputs": [
        {
          "internalType": "uint256",
          "name": "",
          "type": "uint256"
        }
      ],
      "stateMutability": "nonpayable",
      "type": "function"
    },
    {
      "inputs": [
        {
          "internalType": "address",
          "name": "newImplementation",
          "type": "address"
        }
      ],
      "name": "upgradeTo",
      "outputs": [],
      "stateMutability": "nonpayable",
      "type": "function"
    },
    {
      "inputs": [
        {
          "internalType": "address",
          "name": "newImplementation",
          "type": "address"
        },
        {
          "internalType": "bytes",
          "name": "data",
          "type": "bytes"
        }
      ],
      "name": "upgradeToAndCall",
      "outputs": [],
      "stateMutability": "payable",
      "type": "function"
    },
    {
      "inputs": [],
      "name": "usdcLPToken",
      "outputs": [
        {
          "internalType": "contract IERC20",
          "name": "",
          "type": "address"
        }
      ],
      "stateMutability": "view",
      "type": "function"
    },
    {
      "inputs": [],
      "name": "usdcToken",
      "outputs": [
        {
          "internalType": "contract IERC20",
          "name": "",
          "type": "address"
        }
      ],
      "stateMutability": "view",
      "type": "function"
    },
    {
      "inputs": [],
      "name": "usdtLPToken",
      "outputs": [
        {
          "internalType": "contract IERC20",
          "name": "",
          "type": "address"
        }
      ],
      "stateMutability": "view",
      "type": "function"
    },
    {
      "inputs": [],
      "name": "usdtToken",
      "outputs": [
        {
          "internalType": "contract IERC20",
          "name": "",
          "type": "address"
        }
      ],
      "stateMutability": "view",
      "type": "function"
    }
  ],
  "numDeployments": 2,
  "solcInputHash": "92f3a77b78eee3bbef983c14a9f97f01",
  "bytecode": "0x60a06040523060601b6080523480156200001857600080fd5b50600054610100900460ff16620000365760005460ff161562000040565b62000040620000e5565b620000a85760405162461bcd60e51b815260206004820152602e60248201527f496e697469616c697a61626c653a20636f6e747261637420697320616c72656160448201526d191e481a5b9a5d1a585b1a5e995960921b606482015260840160405180910390fd5b600054610100900460ff16158015620000cb576000805461ffff19166101011790555b8015620000de576000805461ff00191690555b5062000112565b6000620000fd306200010360201b620011831760201c565b15905090565b6001600160a01b03163b151590565b60805160601c6133596200014d6000396000818161084201528181610882015281816109220152818161096201526109f101526133596000f3fe6080604052600436106101cd5760003560e01c806375123ff9116100f7578063a440b21a11610095578063d547741f11610064578063d547741f14610510578063ef5cfb8c14610530578063f6f6b88114610550578063f72c0d8b1461057057600080fd5b8063a440b21a1461048e578063a7a61d05146104ae578063a98ad46c146104cf578063adc9772e146104f057600080fd5b80638400150a116100d15780638400150a1461043857806391d1485414610459578063a217fddf14610479578063a3673b38146102e257600080fd5b806375123ff9146103e05780637d5f5802146104015780638129fc1c1461042357600080fd5b80632f2ff15d1161016f57806352d1902d1161013e57806352d1902d1461036a5780635ebb8dee1461037f5780635f5d905c1461039f578063620b75df146103c057600080fd5b80632f2ff15d146102f757806336568abe146103175780633659cfe6146103375780634f1ef2861461035757600080fd5b806311eac855116101ab57806311eac85514610262578063154e4f5814610283578063248a9ca3146102a45780632576e65a146102e257600080fd5b806301ffc9a7146101d257806307ab0a7e146102075780630fc55bfd14610240575b600080fd5b3480156101de57600080fd5b506101f26101ed366004612e4a565b6105a4565b60405190151581526020015b60405180910390f35b34801561021357600080fd5b5061013654610228906001600160a01b031681565b6040516001600160a01b0390911681526020016101fe565b34801561024c57600080fd5b5061026061025b366004612bbb565b6105db565b005b34801561026e57600080fd5b5061013054610228906001600160a01b031681565b34801561028f57600080fd5b5061013554610228906001600160a01b031681565b3480156102b057600080fd5b506102d46102bf366004612dec565b60009081526065602052604090206001015490565b6040519081526020016101fe565b3480156102ee57600080fd5b506102d461077f565b34801561030357600080fd5b50610260610312366004612e1e565b61078e565b34801561032357600080fd5b50610260610332366004612e1e565b6107b9565b34801561034357600080fd5b50610260610352366004612ba0565b610837565b610260610365366004612c94565b610917565b34801561037657600080fd5b506102d46109e4565b34801561038b57600080fd5b5061026061039a366004612c20565b610a97565b3480156103ab57600080fd5b5061013454610228906001600160a01b031681565b3480156103cc57600080fd5b5060fb54610228906001600160a01b031681565b3480156103ec57600080fd5b5061013254610228906001600160a01b031681565b34801561040d57600080fd5b506102d46000805160206132bd83398151915281565b34801561042f57600080fd5b50610260610c6f565b34801561044457600080fd5b5061013754610228906001600160a01b031681565b34801561046557600080fd5b506101f2610474366004612e1e565b610ce8565b34801561048557600080fd5b506102d4600081565b34801561049a57600080fd5b506102606104a9366004612ba0565b610d13565b3480156104ba57600080fd5b5061013354610228906001600160a01b031681565b3480156104db57600080fd5b5061013154610228906001600160a01b031681565b3480156104fc57600080fd5b5061026061050b366004612d56565b610df1565b34801561051c57600080fd5b5061026061052b366004612e1e565b610eda565b34801561053c57600080fd5b506102d461054b366004612ba0565b610f00565b34801561055c57600080fd5b506102d461056b366004612d80565b610f84565b34801561057c57600080fd5b506102d47f189ab7a9244df0848122154315af71fe140f3db0fe014031783b0946b8c9d2e381565b60006001600160e01b03198216637965db0b60e01b14806105d557506301ffc9a760e01b6001600160e01b03198316145b92915050565b6105e6600033610ce8565b61060b5760405162461bcd60e51b81526004016106029061311d565b60405180910390fd5b6001600160a01b0385166106315760405162461bcd60e51b815260040161060290613182565b6001600160a01b0384166106575760405162461bcd60e51b815260040161060290613182565b6001600160a01b03831661067d5760405162461bcd60e51b815260040161060290613182565b6001600160a01b0382166106a35760405162461bcd60e51b815260040161060290613182565b6001600160a01b0381166106c95760405162461bcd60e51b815260040161060290613182565b61013080546001600160a01b038781166001600160a01b03199283168117909355610131805488831690841681179091556101328054888416908516811790915561013380548885169086168117909155610134805494881694909516841790945560408051958652602086019290925290840152606083019190915260808201527f1eb2ec66971c47166b02af35b989cec29a89ac6ca053121f2445e524658066dc9060a00160405180910390a15050505050565b6000610789611192565b905090565b6000828152606560205260409020600101546107aa81336113e2565b6107b48383611446565b505050565b6001600160a01b03811633146108295760405162461bcd60e51b815260206004820152602f60248201527f416363657373436f6e74726f6c3a2063616e206f6e6c792072656e6f756e636560448201526e103937b632b9903337b91039b2b63360891b6064820152608401610602565b61083382826114cc565b5050565b306001600160a01b037f00000000000000000000000000000000000000000000000000000000000000001614156108805760405162461bcd60e51b815260040161060290613037565b7f00000000000000000000000000000000000000000000000000000000000000006001600160a01b03166108c96000805160206132dd833981519152546001600160a01b031690565b6001600160a01b0316146108ef5760405162461bcd60e51b815260040161060290613083565b6108f881611533565b604080516000808252602082019092526109149183919061155e565b50565b306001600160a01b037f00000000000000000000000000000000000000000000000000000000000000001614156109605760405162461bcd60e51b815260040161060290613037565b7f00000000000000000000000000000000000000000000000000000000000000006001600160a01b03166109a96000805160206132dd833981519152546001600160a01b031690565b6001600160a01b0316146109cf5760405162461bcd60e51b815260040161060290613083565b6109d882611533565b6108338282600161155e565b6000306001600160a01b037f00000000000000000000000000000000000000000000000000000000000000001614610a845760405162461bcd60e51b815260206004820152603860248201527f555550535570677261646561626c653a206d757374206e6f742062652063616c60448201527f6c6564207468726f7567682064656c656761746563616c6c00000000000000006064820152608401610602565b506000805160206132dd83398151915290565b610aa2600033610ce8565b610abe5760405162461bcd60e51b81526004016106029061311d565b6001600160a01b038616610ae45760405162461bcd60e51b815260040161060290613182565b6001600160a01b038516610b0a5760405162461bcd60e51b815260040161060290613182565b6001600160a01b038416610b305760405162461bcd60e51b815260040161060290613182565b6001600160a01b038316610b565760405162461bcd60e51b815260040161060290613182565b6001600160a01b038216610b7c5760405162461bcd60e51b815260040161060290613182565b6001600160a01b038116610ba25760405162461bcd60e51b815260040161060290613182565b61013580546001600160a01b038881166001600160a01b03199283168117909355610136805489831690841681179091556101378054898416908516811790915561012d8054898516908616811790915561012e8054898616908716811790915561012f8054958916959096168517909555604080519687526020870193909352858301919091526060850152608084019290925260a0830152517fbc987a95c487955e4fb493a3897aae49196bf1704fe15d64f858bc671ec8e77a9181900360c00190a1505050505050565b600054610100900460ff16610c8a5760005460ff1615610c8e565b303b155b610caa5760405162461bcd60e51b8152600401610602906130cf565b600054610100900460ff16158015610ccc576000805461ffff19166101011790555b610cd46116d8565b8015610914576000805461ff001916905550565b60009182526065602090815260408084206001600160a01b0393909316845291905290205460ff1690565b610d1e600033610ce8565b610d3a5760405162461bcd60e51b81526004016106029061311d565b6001600160a01b038116610d605760405162461bcd60e51b815260040161060290613182565b60fb54610d85906000805160206132bd833981519152906001600160a01b0316610eda565b610d9d6000805160206132bd8339815191528261078e565b60fb80546001600160a01b0319166001600160a01b0383169081179091556040519081527ff7b449fcd5cfb7379dcd34cb69428dd9f882033b15be33d83b42d91daa28eeb79060200160405180910390a150565b610e096000805160206132bd83398151915233610ce8565b610e255760405162461bcd60e51b815260040161060290613000565b6040518181527f227a473b70d2f893cc7659219575c030a63b5743024fe1e0c1a680e708b1525a9060200160405180910390a16040516370a0823160e01b81523060048201526108339083906001600160a01b038216906370a082319060240160206040518083038186803b158015610e9d57600080fd5b505afa158015610eb1573d6000803e3d6000fd5b505050506040513d601f19601f82011682018060405250810190610ed59190612e05565b61177a565b600082815260656020526040902060010154610ef681336113e2565b6107b483836114cc565b6000610f1a6000805160206132bd83398151915233610ce8565b610f365760405162461bcd60e51b815260040161060290613000565b6000610f4183611ab2565b90507f3ac0594a85a20354f9dc74f33728416d19ce00d04a406c108cc2dcf2cecea13481604051610f7491815260200190565b60405180910390a190505b919050565b6000610f9e6000805160206132bd83398151915233610ce8565b610fba5760405162461bcd60e51b815260040161060290613000565b60008215610fd357610fcc8685611cfa565b9050611042565b610fde868686611e9e565b9050848110156110425760405162461bcd60e51b815260206004820152602960248201527f52657475726e65642076616c7565206c657373207468616e2072657175657374604482015268195908185b5bdd5b9d60ba1b6064820152608401610602565b6040516370a0823160e01b81523060048201526000906001600160a01b038816906370a082319060240160206040518083038186803b15801561108457600080fd5b505afa158015611098573d6000803e3d6000fd5b505050506040513d601f19601f820116820180604052508101906110bc9190612e05565b60405163a9059cbb60e01b81529091506001600160a01b0388169063a9059cbb906110ed9088908590600401612fb4565b602060405180830381600087803b15801561110757600080fd5b505af115801561111b573d6000803e3d6000fd5b505050506040513d601f19601f8201168201806040525081019061113f9190612dcf565b5060408051878152602081018390527f9045c2ac9b2026de8075f2701bbdde882cd5e830b3b1ead9a15b22f2b5b93742910160405180910390a19695505050505050565b6001600160a01b03163b151590565b61013754610133546040516319a78f5560e01b81526001600160a01b039182166004820152306024820152600092839216906319a78f559060440160206040518083038186803b1580156111e557600080fd5b505afa1580156111f9573d6000803e3d6000fd5b505050506040513d601f19601f8201168201806040525081019061121d9190612e05565b90508061122c57600091505090565b61013354604080516318160ddd60e01b815290516000926001600160a01b0316916318160ddd916004808301926020929190829003018186803b15801561127257600080fd5b505afa158015611286573d6000803e3d6000fd5b505050506040513d601f19601f820116820180604052508101906112aa9190612e05565b9050600061013560009054906101000a90046001600160a01b03166001600160a01b031663ffa642256040518163ffffffff1660e01b8152600401604080518083038186803b1580156112fc57600080fd5b505afa158015611310573d6000803e3d6000fd5b505050506040513d601f19601f820116820180604052508101906113349190612e74565b50905060008261134483866131f3565b61134e91906131d1565b610130546040516370a0823160e01b815230600482015291925082916001600160a01b03909116906370a082319060240160206040518083038186803b15801561139757600080fd5b505afa1580156113ab573d6000803e3d6000fd5b505050506040513d601f19601f820116820180604052508101906113cf9190612e05565b6113d991906131b9565b94505050505090565b6113ec8282610ce8565b61083357611404816001600160a01b0316601461222e565b61140f83602061222e565b604051602001611420929190612eb4565b60408051601f198184030181529082905262461bcd60e51b825261060291600401612fcd565b6114508282610ce8565b6108335760008281526065602090815260408083206001600160a01b03851684529091529020805460ff191660011790556114883390565b6001600160a01b0316816001600160a01b0316837f2f8788117e7eff1d82e926ec794901d17c78024a50270940304540a733656f0d60405160405180910390a45050565b6114d68282610ce8565b156108335760008281526065602090815260408083206001600160a01b0385168085529252808320805460ff1916905551339285917ff6391f5c32d9c69d2a47ea670b442974b53935d1edc7fd64eb21e047a839171b9190a45050565b7f189ab7a9244df0848122154315af71fe140f3db0fe014031783b0946b8c9d2e361083381336113e2565b7f4910fdfa16fed3260ed0e7147f7cc6da11a60208b5b9406d12a635614ffd91435460ff1615611591576107b4836123ca565b826001600160a01b03166352d1902d6040518163ffffffff1660e01b815260040160206040518083038186803b1580156115ca57600080fd5b505afa9250505080156115fa575060408051601f3d908101601f191682019092526115f791810190612e05565b60015b61165d5760405162461bcd60e51b815260206004820152602e60248201527f45524331393637557067726164653a206e657720696d706c656d656e7461746960448201526d6f6e206973206e6f74205555505360901b6064820152608401610602565b6000805160206132dd83398151915281146116cc5760405162461bcd60e51b815260206004820152602960248201527f45524331393637557067726164653a20756e737570706f727465642070726f786044820152681a58589b195555525160ba1b6064820152608401610602565b506107b4838383612466565b600054610100900460ff166116f35760005460ff16156116f7565b303b155b6117135760405162461bcd60e51b8152600401610602906130cf565b600054610100900460ff16158015611735576000805461ffff19166101011790555b61173d612491565b611745612491565b611750600033611446565b610cd47f189ab7a9244df0848122154315af71fe140f3db0fe014031783b0946b8c9d2e333611446565b610130546001600160a01b038381169116146117a85760405162461bcd60e51b81526004016106029061314b565b610130546040516370a0823160e01b81523060048201526000916001600160a01b0316906370a082319060240160206040518083038186803b1580156117ed57600080fd5b505afa158015611801573d6000803e3d6000fd5b505050506040513d601f19601f820116820180604052508101906118259190612e05565b610130546101355460405163095ea7b360e01b81529293506001600160a01b039182169263095ea7b39261185f9216908590600401612fb4565b602060405180830381600087803b15801561187957600080fd5b505af115801561188d573d6000803e3d6000fd5b505050506040513d601f19601f820116820180604052508101906118b19190612dcf565b506101355460405163aa06ce9b60e01b81526001600160a01b039091169063aa06ce9b906118e59030908590600401612fb4565b602060405180830381600087803b1580156118ff57600080fd5b505af1158015611913573d6000803e3d6000fd5b505050506040513d601f19601f820116820180604052508101906119379190612e05565b50610133546040516370a0823160e01b81523060048201526000916001600160a01b0316906370a082319060240160206040518083038186803b15801561197d57600080fd5b505afa158015611991573d6000803e3d6000fd5b505050506040513d601f19601f820116820180604052508101906119b59190612e05565b610133546101375460405163095ea7b360e01b81529293506001600160a01b039182169263095ea7b3926119ef9216908590600401612fb4565b602060405180830381600087803b158015611a0957600080fd5b505af1158015611a1d573d6000803e3d6000fd5b505050506040513d601f19601f82011682018060405250810190611a419190612dcf565b5061013754610133546040516311f9fbc960e21b81526001600160a01b03928316926347e7ef2492611a7a929116908590600401612fb4565b600060405180830381600087803b158015611a9457600080fd5b505af1158015611aa8573d6000803e3d6000fd5b5050505050505050565b610137546040805163d1058e5960e01b815290516000926001600160a01b03169163d1058e59916004808301928692919082900301818387803b158015611af857600080fd5b505af1158015611b0c573d6000803e3d6000fd5b5050610132546040516370a0823160e01b8152306004820152600093506001600160a01b0390911691506370a082319060240160206040518083038186803b158015611b5757600080fd5b505afa158015611b6b573d6000803e3d6000fd5b505050506040513d601f19601f82011682018060405250810190611b8f9190612e05565b905080611b9f5750600092915050565b610136546101325461013154600092611bcc926001600160a01b03918216929082169116856001866124fe565b610135546101315461013054929350600092611bfb926001600160a01b039081169281169116856001806127cb565b610130546040516370a0823160e01b81523060048201529192506001600160a01b03169063a9059cbb90879083906370a082319060240160206040518083038186803b158015611c4a57600080fd5b505afa158015611c5e573d6000803e3d6000fd5b505050506040513d601f19601f82011682018060405250810190611c829190612e05565b6040518363ffffffff1660e01b8152600401611c9f929190612fb4565b602060405180830381600087803b158015611cb957600080fd5b505af1158015611ccd573d6000803e3d6000fd5b505050506040513d601f19601f82011682018060405250810190611cf19190612dcf565b50949350505050565b610130546000906001600160a01b03848116911614611d2b5760405162461bcd60e51b81526004016106029061314b565b6101375461013354604051630fa09e6360e41b81526001600160a01b03918216600482015291169063fa09e63090602401600060405180830381600087803b158015611d7657600080fd5b505af1158015611d8a573d6000803e3d6000fd5b50505050600061013560009054906101000a90046001600160a01b03166001600160a01b031663d47eaa376040518163ffffffff1660e01b8152600401602060405180830381600087803b158015611de157600080fd5b505af1158015611df5573d6000803e3d6000fd5b505050506040513d601f19601f82011682018060405250810190611e199190612e05565b610130546040516370a0823160e01b81523060048201529192506001600160a01b0316906370a082319060240160206040518083038186803b158015611e5e57600080fd5b505afa158015611e72573d6000803e3d6000fd5b505050506040513d601f19601f82011682018060405250810190611e969190612e05565b949350505050565b610130546000906001600160a01b03858116911614611ecf5760405162461bcd60e51b81526004016106029061314b565b610130546040516370a0823160e01b81523060048201526000916001600160a01b0316906370a082319060240160206040518083038186803b158015611f1457600080fd5b505afa158015611f28573d6000803e3d6000fd5b505050506040513d601f19601f82011682018060405250810190611f4c9190612e05565b611f569085613212565b611f619060056131b9565b9050600061013360009054906101000a90046001600160a01b03166001600160a01b03166318160ddd6040518163ffffffff1660e01b815260040160206040518083038186803b158015611fb457600080fd5b505afa158015611fc8573d6000803e3d6000fd5b505050506040513d601f19601f82011682018060405250810190611fec9190612e05565b9050600061013560009054906101000a90046001600160a01b03166001600160a01b031663ffa642256040518163ffffffff1660e01b8152600401604080518083038186803b15801561203e57600080fd5b505afa158015612052573d6000803e3d6000fd5b505050506040513d601f19601f820116820180604052508101906120769190612e74565b50905060008161208684866131f3565b61209091906131d1565b90506127106120a1826127116131f3565b6120ab91906131d1565b610137546101335460405163f3fef3a360e01b81529293506001600160a01b039182169263f3fef3a3926120e59216908590600401612fb4565b600060405180830381600087803b1580156120ff57600080fd5b505af1158015612113573d6000803e3d6000fd5b50505050600061013560009054906101000a90046001600160a01b03166001600160a01b031663d47eaa376040518163ffffffff1660e01b8152600401602060405180830381600087803b15801561216a57600080fd5b505af115801561217e573d6000803e3d6000fd5b505050506040513d601f19601f820116820180604052508101906121a29190612e05565b610130546040516370a0823160e01b81523060048201529192506001600160a01b0316906370a082319060240160206040518083038186803b1580156121e757600080fd5b505afa1580156121fb573d6000803e3d6000fd5b505050506040513d601f19601f8201168201806040525081019061221f9190612e05565b955050505050505b9392505050565b6060600061223d8360026131f3565b6122489060026131b9565b67ffffffffffffffff81111561226057612260613298565b6040519080825280601f01601f19166020018201604052801561228a576020820181803683370190505b509050600360fc1b816000815181106122a5576122a5613282565b60200101906001600160f81b031916908160001a905350600f60fb1b816001815181106122d4576122d4613282565b60200101906001600160f81b031916908160001a90535060006122f88460026131f3565b6123039060016131b9565b90505b600181111561237b576f181899199a1a9b1b9c1cb0b131b232b360811b85600f166010811061233757612337613282565b1a60f81b82828151811061234d5761234d613282565b60200101906001600160f81b031916908160001a90535060049490941c9361237481613255565b9050612306565b5083156122275760405162461bcd60e51b815260206004820181905260248201527f537472696e67733a20686578206c656e67746820696e73756666696369656e746044820152606401610602565b6001600160a01b0381163b6124375760405162461bcd60e51b815260206004820152602d60248201527f455243313936373a206e657720696d706c656d656e746174696f6e206973206e60448201526c1bdd08184818dbdb9d1c9858dd609a1b6064820152608401610602565b6000805160206132dd83398151915280546001600160a01b0319166001600160a01b0392909216919091179055565b61246f83612a1c565b60008251118061247c5750805b156107b45761248b8383612a5c565b50505050565b600054610100900460ff166124fc5760405162461bcd60e51b815260206004820152602b60248201527f496e697469616c697a61626c653a20636f6e7472616374206973206e6f74206960448201526a6e697469616c697a696e6760a81b6064820152608401610602565b565b600080826125b157604051633cd0243b60e11b81526000906001600160a01b038a16906379a04876906125379030908a90600401612fb4565b604080518083038186803b15801561254e57600080fd5b505afa158015612562573d6000803e3d6000fd5b505050506040513d601f19601f820116820180604052508101906125869190612e74565b50905060646125958682613212565b61259f90836131f3565b6125a991906131d1565b915050612658565b6040516366410a2160e01b81526000906001600160a01b038a16906366410a21906125e29030908a90600401612fb4565b604080518083038186803b1580156125f957600080fd5b505afa15801561260d573d6000803e3d6000fd5b505050506040513d601f19601f820116820180604052508101906126319190612e74565b50905060646126408682613212565b61264a90836131f3565b61265491906131d1565b9150505b60408051600180825281830190925260009160208083019080368337019050509050888160008151811061268e5761268e613282565b6001600160a01b03928316602091820292909201015261012f5460405163095ea7b360e01b81528a83169263095ea7b3926126d0929116908a90600401612fb4565b602060405180830381600087803b1580156126ea57600080fd5b505af11580156126fe573d6000803e3d6000fd5b505050506040513d601f19601f820116820180604052508101906127229190612dcf565b5061012e546001600160a01b031663f87dc1b789898986868a6000612749426102586131b9565b6040518963ffffffff1660e01b815260040161276c989796959493929190612f29565b602060405180830381600087803b15801561278657600080fd5b505af115801561279a573d6000803e3d6000fd5b505050506040513d601f19601f820116820180604052508101906127be9190612e05565b9998505050505050505050565b600080826128815761012d54604051631de9507f60e31b81526000916001600160a01b03169063ef4a83f890612807908c908a90600401612fb4565b60206040518083038186803b15801561281f57600080fd5b505afa158015612833573d6000803e3d6000fd5b505050506040513d601f19601f820116820180604052508101906128579190612e05565b905060646128658682613212565b61286f90836131f3565b61287991906131d1565b91505061292b565b61012d5460405163ca19ebd960e01b81526000916001600160a01b03169063ca19ebd9906128b5908c908a90600401612fb4565b60206040518083038186803b1580156128cd57600080fd5b505afa1580156128e1573d6000803e3d6000fd5b505050506040513d601f19601f820116820180604052508101906129059190612e05565b905060646129138682613212565b61291d90836131f3565b61292791906131d1565b9150505b60408051600180825281830190925260009160208083019080368337019050509050888160008151811061296157612961613282565b6001600160a01b03928316602091820292909201015261012f5460405163095ea7b360e01b81528a83169263095ea7b3926129a3929116908a90600401612fb4565b602060405180830381600087803b1580156129bd57600080fd5b505af11580156129d1573d6000803e3d6000fd5b505050506040513d601f19601f820116820180604052508101906129f59190612dcf565b5061012e546001600160a01b0316630dd4ebd989898986868a6000612749426102586131b9565b612a25816123ca565b6040516001600160a01b038216907fbc7cd75a20ee27fd9adebab32041f755214dbc6bffa90cc0225b39da2e5c2d3b90600090a250565b60606001600160a01b0383163b612ac45760405162461bcd60e51b815260206004820152602660248201527f416464726573733a2064656c65676174652063616c6c20746f206e6f6e2d636f6044820152651b9d1c9858dd60d21b6064820152608401610602565b600080846001600160a01b031684604051612adf9190612e98565b600060405180830381855af49150503d8060008114612b1a576040519150601f19603f3d011682016040523d82523d6000602084013e612b1f565b606091505b5091509150612b4782826040518060600160405280602781526020016132fd60279139612b50565b95945050505050565b60608315612b5f575081612227565b825115612b6f5782518084602001fd5b8160405162461bcd60e51b81526004016106029190612fcd565b80356001600160a01b0381168114610f7f57600080fd5b600060208284031215612bb257600080fd5b61222782612b89565b600080600080600060a08688031215612bd357600080fd5b612bdc86612b89565b9450612bea60208701612b89565b9350612bf860408701612b89565b9250612c0660608701612b89565b9150612c1460808701612b89565b90509295509295909350565b60008060008060008060c08789031215612c3957600080fd5b612c4287612b89565b9550612c5060208801612b89565b9450612c5e60408801612b89565b9350612c6c60608801612b89565b9250612c7a60808801612b89565b9150612c8860a08801612b89565b90509295509295509295565b60008060408385031215612ca757600080fd5b612cb083612b89565b9150602083013567ffffffffffffffff80821115612ccd57600080fd5b818501915085601f830112612ce157600080fd5b813581811115612cf357612cf3613298565b604051601f8201601f19908116603f01168101908382118183101715612d1b57612d1b613298565b81604052828152886020848701011115612d3457600080fd5b8260208601602083013760006020848301015280955050505050509250929050565b60008060408385031215612d6957600080fd5b612d7283612b89565b946020939093013593505050565b60008060008060808587031215612d9657600080fd5b612d9f85612b89565b935060208501359250612db460408601612b89565b91506060850135612dc4816132ae565b939692955090935050565b600060208284031215612de157600080fd5b8151612227816132ae565b600060208284031215612dfe57600080fd5b5035919050565b600060208284031215612e1757600080fd5b5051919050565b60008060408385031215612e3157600080fd5b82359150612e4160208401612b89565b90509250929050565b600060208284031215612e5c57600080fd5b81356001600160e01b03198116811461222757600080fd5b60008060408385031215612e8757600080fd5b505080516020909101519092909150565b60008251612eaa818460208701613229565b9190910192915050565b7f416363657373436f6e74726f6c3a206163636f756e7420000000000000000000815260008351612eec816017850160208801613229565b7001034b99036b4b9b9b4b733903937b6329607d1b6017918401918201528351612f1d816028840160208801613229565b01602801949350505050565b6001600160a01b038981168252888116602080840191909152604083018990526060830188905261010060808401819052875190840181905260009261012085019289810192855b81811015612f8f578451841686529482019493820193600101612f71565b505050505060a08301959095525091151560c083015260e09091015295945050505050565b6001600160a01b03929092168252602082015260400190565b6020815260008251806020840152612fec816040850160208701613229565b601f01601f19169190910160400192915050565b6020808252601f908201527f5265737472696374656420746f20504f5254464f4c494f5f4d414e4147455200604082015260600190565b6020808252602c908201527f46756e6374696f6e206d7573742062652063616c6c6564207468726f7567682060408201526b19195b1959d85d1958d85b1b60a21b606082015260800190565b6020808252602c908201527f46756e6374696f6e206d7573742062652063616c6c6564207468726f7567682060408201526b6163746976652070726f787960a01b606082015260800190565b6020808252602e908201527f496e697469616c697a61626c653a20636f6e747261637420697320616c72656160408201526d191e481a5b9a5d1a585b1a5e995960921b606082015260800190565b6020808252601490820152735265737472696374656420746f2061646d696e7360601b604082015260600190565b60208082526019908201527f536f6d6520746f6b656e206e6f7420636f6d70617469626c6500000000000000604082015260600190565b60208082526018908201527f5a65726f2061646472657373206e6f7420616c6c6f7765640000000000000000604082015260600190565b600082198211156131cc576131cc61326c565b500190565b6000826131ee57634e487b7160e01b600052601260045260246000fd5b500490565b600081600019048311821515161561320d5761320d61326c565b500290565b6000828210156132245761322461326c565b500390565b60005b8381101561324457818101518382015260200161322c565b8381111561248b5750506000910152565b6000816132645761326461326c565b506000190190565b634e487b7160e01b600052601160045260246000fd5b634e487b7160e01b600052603260045260246000fd5b634e487b7160e01b600052604160045260246000fd5b801515811461091457600080fdfe90c2aa7471c04182221f68e80c07ab1e5946e4c63f8693e14ca40385d529f051360894a13ba1a3210667c828492db98dca3e2076cc3735a920a3ca505d382bbc416464726573733a206c6f772d6c6576656c2064656c65676174652063616c6c206661696c6564a2646970667358221220861adda3bf87c17ea031d2c926e06c0a9cc24c157d0d94285ff75ed485a027d564736f6c63430008060033",
  "devdoc": {
    "kind": "dev",
    "methods": {
      "constructor": {
        "custom:oz-upgrades-unsafe-allow": "constructor"
      },
      "getRoleAdmin(bytes32)": {
        "details": "Returns the admin role that controls `role`. See {grantRole} and {revokeRole}. To change a role's admin, use {_setRoleAdmin}."
      },
      "grantRole(bytes32,address)": {
        "details": "Grants `role` to `account`. If `account` had not been already granted `role`, emits a {RoleGranted} event. Requirements: - the caller must have ``role``'s admin role."
      },
      "hasRole(bytes32,address)": {
        "details": "Returns `true` if `account` has been granted `role`."
      },
      "proxiableUUID()": {
        "details": "Implementation of the ERC1822 {proxiableUUID} function. This returns the storage slot used by the implementation. It is used to validate that the this implementation remains valid after an upgrade. IMPORTANT: A proxy pointing at a proxiable contract should not be considered proxiable itself, because this risks bricking a proxy that upgrades to it, by delegating to itself until out of gas. Thus it is critical that this function revert if invoked through a proxy. This is guaranteed by the `notDelegated` modifier."
      },
      "renounceRole(bytes32,address)": {
        "details": "Revokes `role` from the calling account. Roles are often managed via {grantRole} and {revokeRole}: this function's purpose is to provide a mechanism for accounts to lose their privileges if they are compromised (such as when a trusted device is misplaced). If the calling account had been revoked `role`, emits a {RoleRevoked} event. Requirements: - the caller must be `account`."
      },
      "revokeRole(bytes32,address)": {
        "details": "Revokes `role` from `account`. If `account` had been granted `role`, emits a {RoleRevoked} event. Requirements: - the caller must have ``role``'s admin role."
      },
      "supportsInterface(bytes4)": {
        "details": "See {IERC165-supportsInterface}."
      },
      "upgradeTo(address)": {
        "details": "Upgrade the implementation of the proxy to `newImplementation`. Calls {_authorizeUpgrade}. Emits an {Upgraded} event."
      },
      "upgradeToAndCall(address,bytes)": {
        "details": "Upgrade the implementation of the proxy to `newImplementation`, and subsequently execute the function call encoded in `data`. Calls {_authorizeUpgrade}. Emits an {Upgraded} event."
      }
    },
    "version": 1
  },
  "userdoc": {
    "kind": "user",
    "methods": {},
    "version": 1
  },
  "storageLayout": {
    "storage": [
      {
        "astId": 797,
        "contract": "contracts/StrategyDodoUsdc.sol:StrategyDodoUsdc",
        "label": "_initialized",
        "offset": 0,
        "slot": "0",
        "type": "t_bool"
      },
      {
        "astId": 800,
        "contract": "contracts/StrategyDodoUsdc.sol:StrategyDodoUsdc",
        "label": "_initializing",
        "offset": 1,
        "slot": "0",
        "type": "t_bool"
      },
      {
        "astId": 1284,
        "contract": "contracts/StrategyDodoUsdc.sol:StrategyDodoUsdc",
        "label": "__gap",
        "offset": 0,
        "slot": "1",
        "type": "t_array(t_uint256)50_storage"
      },
      {
        "astId": 1591,
        "contract": "contracts/StrategyDodoUsdc.sol:StrategyDodoUsdc",
        "label": "__gap",
        "offset": 0,
        "slot": "51",
        "type": "t_array(t_uint256)50_storage"
      },
      {
        "astId": 39,
        "contract": "contracts/StrategyDodoUsdc.sol:StrategyDodoUsdc",
        "label": "_roles",
        "offset": 0,
        "slot": "101",
        "type": "t_mapping(t_bytes32,t_struct(RoleData)34_storage)"
      },
      {
        "astId": 327,
        "contract": "contracts/StrategyDodoUsdc.sol:StrategyDodoUsdc",
        "label": "__gap",
        "offset": 0,
        "slot": "102",
        "type": "t_array(t_uint256)49_storage"
      },
      {
        "astId": 779,
        "contract": "contracts/StrategyDodoUsdc.sol:StrategyDodoUsdc",
        "label": "__gap",
        "offset": 0,
        "slot": "151",
        "type": "t_array(t_uint256)50_storage"
      },
      {
        "astId": 999,
        "contract": "contracts/StrategyDodoUsdc.sol:StrategyDodoUsdc",
        "label": "__gap",
        "offset": 0,
        "slot": "201",
        "type": "t_array(t_uint256)50_storage"
      },
      {
        "astId": 18530,
        "contract": "contracts/StrategyDodoUsdc.sol:StrategyDodoUsdc",
        "label": "portfolioManager",
        "offset": 0,
        "slot": "251",
        "type": "t_address"
      },
      {
        "astId": 18808,
        "contract": "contracts/StrategyDodoUsdc.sol:StrategyDodoUsdc",
        "label": "__gap",
        "offset": 0,
        "slot": "252",
        "type": "t_array(t_uint256)49_storage"
      },
      {
        "astId": 19620,
        "contract": "contracts/StrategyDodoUsdc.sol:StrategyDodoUsdc",
        "label": "dodoV1Helper",
        "offset": 0,
        "slot": "301",
        "type": "t_contract(IDODOV1Helper)15389"
      },
      {
        "astId": 19623,
        "contract": "contracts/StrategyDodoUsdc.sol:StrategyDodoUsdc",
        "label": "dodoProxy",
        "offset": 0,
        "slot": "302",
        "type": "t_contract(IDODOProxy)15229"
      },
      {
        "astId": 19625,
        "contract": "contracts/StrategyDodoUsdc.sol:StrategyDodoUsdc",
        "label": "dodoApprove",
        "offset": 0,
        "slot": "303",
        "type": "t_address"
      },
      {
        "astId": 6445,
        "contract": "contracts/StrategyDodoUsdc.sol:StrategyDodoUsdc",
        "label": "usdcToken",
        "offset": 0,
        "slot": "304",
        "type": "t_contract(IERC20)1744"
      },
      {
        "astId": 6448,
        "contract": "contracts/StrategyDodoUsdc.sol:StrategyDodoUsdc",
        "label": "usdtToken",
        "offset": 0,
        "slot": "305",
        "type": "t_contract(IERC20)1744"
      },
      {
        "astId": 6451,
        "contract": "contracts/StrategyDodoUsdc.sol:StrategyDodoUsdc",
        "label": "dodoToken",
        "offset": 0,
        "slot": "306",
        "type": "t_contract(IERC20)1744"
      },
      {
        "astId": 6454,
        "contract": "contracts/StrategyDodoUsdc.sol:StrategyDodoUsdc",
        "label": "usdcLPToken",
        "offset": 0,
        "slot": "307",
        "type": "t_contract(IERC20)1744"
      },
      {
        "astId": 6457,
        "contract": "contracts/StrategyDodoUsdc.sol:StrategyDodoUsdc",
        "label": "usdtLPToken",
        "offset": 0,
        "slot": "308",
        "type": "t_contract(IERC20)1744"
      },
      {
        "astId": 6460,
        "contract": "contracts/StrategyDodoUsdc.sol:StrategyDodoUsdc",
        "label": "dodoV1UsdcUsdtPool",
        "offset": 0,
        "slot": "309",
        "type": "t_contract(IDODOV1)15368"
      },
      {
        "astId": 6463,
        "contract": "contracts/StrategyDodoUsdc.sol:StrategyDodoUsdc",
        "label": "dodoV2DodoUsdtPool",
        "offset": 0,
        "slot": "310",
        "type": "t_contract(IDODOV2)15414"
      },
      {
        "astId": 6466,
        "contract": "contracts/StrategyDodoUsdc.sol:StrategyDodoUsdc",
        "label": "dodoMine",
        "offset": 0,
        "slot": "311",
        "type": "t_contract(IDODOMine)15182"
      }
    ],
    "types": {
      "t_address": {
        "encoding": "inplace",
        "label": "address",
        "numberOfBytes": "20"
      },
      "t_array(t_uint256)49_storage": {
        "base": "t_uint256",
        "encoding": "inplace",
        "label": "uint256[49]",
        "numberOfBytes": "1568"
      },
      "t_array(t_uint256)50_storage": {
        "base": "t_uint256",
        "encoding": "inplace",
        "label": "uint256[50]",
        "numberOfBytes": "1600"
      },
      "t_bool": {
        "encoding": "inplace",
        "label": "bool",
        "numberOfBytes": "1"
      },
      "t_bytes32": {
        "encoding": "inplace",
        "label": "bytes32",
        "numberOfBytes": "32"
      },
      "t_contract(IDODOMine)15182": {
        "encoding": "inplace",
        "label": "contract IDODOMine",
        "numberOfBytes": "20"
      },
      "t_contract(IDODOProxy)15229": {
        "encoding": "inplace",
        "label": "contract IDODOProxy",
        "numberOfBytes": "20"
      },
      "t_contract(IDODOV1)15368": {
        "encoding": "inplace",
        "label": "contract IDODOV1",
        "numberOfBytes": "20"
      },
      "t_contract(IDODOV1Helper)15389": {
        "encoding": "inplace",
        "label": "contract IDODOV1Helper",
        "numberOfBytes": "20"
      },
      "t_contract(IDODOV2)15414": {
        "encoding": "inplace",
        "label": "contract IDODOV2",
        "numberOfBytes": "20"
      },
      "t_contract(IERC20)1744": {
        "encoding": "inplace",
        "label": "contract IERC20",
        "numberOfBytes": "20"
      },
      "t_mapping(t_address,t_bool)": {
        "encoding": "mapping",
        "key": "t_address",
        "label": "mapping(address => bool)",
        "numberOfBytes": "32",
        "value": "t_bool"
      },
      "t_mapping(t_bytes32,t_struct(RoleData)34_storage)": {
        "encoding": "mapping",
        "key": "t_bytes32",
        "label": "mapping(bytes32 => struct AccessControlUpgradeable.RoleData)",
        "numberOfBytes": "32",
        "value": "t_struct(RoleData)34_storage"
      },
      "t_struct(RoleData)34_storage": {
        "encoding": "inplace",
        "label": "struct AccessControlUpgradeable.RoleData",
        "members": [
          {
            "astId": 31,
            "contract": "contracts/StrategyDodoUsdc.sol:StrategyDodoUsdc",
            "label": "members",
            "offset": 0,
            "slot": "0",
            "type": "t_mapping(t_address,t_bool)"
          },
          {
            "astId": 33,
            "contract": "contracts/StrategyDodoUsdc.sol:StrategyDodoUsdc",
            "label": "adminRole",
            "offset": 0,
            "slot": "1",
            "type": "t_bytes32"
          }
        ],
        "numberOfBytes": "64"
      },
      "t_uint256": {
        "encoding": "inplace",
        "label": "uint256",
        "numberOfBytes": "32"
      }
    }
  }
}