{
  "address": "0xEb7f1622980bfF682635E35076bd3115814254A7",
  "abi": [
    {
      "inputs": [],
      "stateMutability": "nonpayable",
      "type": "constructor"
    },
    {
      "anonymous": false,
      "inputs": [
        {
          "indexed": false,
          "internalType": "address",
          "name": "previousAdmin",
          "type": "address"
        },
        {
          "indexed": false,
          "internalType": "address",
          "name": "newAdmin",
          "type": "address"
        }
      ],
      "name": "AdminChanged",
      "type": "event"
    },
    {
      "anonymous": false,
      "inputs": [
        {
          "indexed": true,
          "internalType": "address",
          "name": "beacon",
          "type": "address"
        }
      ],
      "name": "BeaconUpgraded",
      "type": "event"
    },
    {
      "anonymous": false,
      "inputs": [
        {
          "indexed": false,
          "internalType": "uint8",
          "name": "version",
          "type": "uint8"
        }
      ],
      "name": "Initialized",
      "type": "event"
    },
    {
      "anonymous": false,
      "inputs": [
        {
          "indexed": false,
          "internalType": "uint256",
          "name": "amount",
          "type": "uint256"
        }
      ],
      "name": "Reward",
      "type": "event"
    },
    {
      "anonymous": false,
      "inputs": [
        {
          "indexed": true,
          "internalType": "bytes32",
          "name": "role",
          "type": "bytes32"
        },
        {
          "indexed": true,
          "internalType": "bytes32",
          "name": "previousAdminRole",
          "type": "bytes32"
        },
        {
          "indexed": true,
          "internalType": "bytes32",
          "name": "newAdminRole",
          "type": "bytes32"
        }
      ],
      "name": "RoleAdminChanged",
      "type": "event"
    },
    {
      "anonymous": false,
      "inputs": [
        {
          "indexed": true,
          "internalType": "bytes32",
          "name": "role",
          "type": "bytes32"
        },
        {
          "indexed": true,
          "internalType": "address",
          "name": "account",
          "type": "address"
        },
        {
          "indexed": true,
          "internalType": "address",
          "name": "sender",
          "type": "address"
        }
      ],
      "name": "RoleGranted",
      "type": "event"
    },
    {
      "anonymous": false,
      "inputs": [
        {
          "indexed": true,
          "internalType": "bytes32",
          "name": "role",
          "type": "bytes32"
        },
        {
          "indexed": true,
          "internalType": "address",
          "name": "account",
          "type": "address"
        },
        {
          "indexed": true,
          "internalType": "address",
          "name": "sender",
          "type": "address"
        }
      ],
      "name": "RoleRevoked",
      "type": "event"
    },
    {
      "anonymous": false,
      "inputs": [
        {
          "indexed": false,
          "internalType": "uint256",
          "name": "healthFactor",
          "type": "uint256"
        }
      ],
      "name": "SetHealthFactor",
      "type": "event"
    },
    {
      "anonymous": false,
      "inputs": [
        {
          "indexed": false,
          "internalType": "uint256",
          "name": "amount",
          "type": "uint256"
        }
      ],
      "name": "Stake",
      "type": "event"
    },
    {
      "anonymous": false,
      "inputs": [
        {
          "indexed": false,
          "internalType": "uint256",
          "name": "amount",
          "type": "uint256"
        },
        {
          "indexed": false,
          "internalType": "uint256",
          "name": "amountReceived",
          "type": "uint256"
        }
      ],
      "name": "Unstake",
      "type": "event"
    },
    {
      "anonymous": false,
      "inputs": [
        {
          "indexed": true,
          "internalType": "address",
          "name": "implementation",
          "type": "address"
        }
      ],
      "name": "Upgraded",
      "type": "event"
    },
    {
      "inputs": [],
      "name": "BASIS_POINTS_FOR_SLIPPAGE",
      "outputs": [
        {
          "internalType": "uint256",
          "name": "",
          "type": "uint256"
        }
      ],
      "stateMutability": "view",
      "type": "function"
    },
    {
      "inputs": [],
      "name": "BASIS_POINTS_FOR_STORAGE",
      "outputs": [
        {
          "internalType": "uint256",
          "name": "",
          "type": "uint256"
        }
      ],
      "stateMutability": "view",
      "type": "function"
    },
    {
      "inputs": [],
      "name": "DEFAULT_ADMIN_ROLE",
      "outputs": [
        {
          "internalType": "bytes32",
          "name": "",
          "type": "bytes32"
        }
      ],
      "stateMutability": "view",
      "type": "function"
    },
    {
      "inputs": [],
      "name": "EXCHANGER",
      "outputs": [
        {
          "internalType": "bytes32",
          "name": "",
          "type": "bytes32"
        }
      ],
      "stateMutability": "view",
      "type": "function"
    },
    {
      "inputs": [],
      "name": "E_MODE_CATEGORY_ID",
      "outputs": [
        {
          "internalType": "uint8",
          "name": "",
          "type": "uint8"
        }
      ],
      "stateMutability": "view",
      "type": "function"
    },
    {
      "inputs": [],
      "name": "INTEREST_RATE_MODE",
      "outputs": [
        {
          "internalType": "uint256",
          "name": "",
          "type": "uint256"
        }
      ],
      "stateMutability": "view",
      "type": "function"
    },
    {
      "inputs": [],
      "name": "MAX_UINT_VALUE",
      "outputs": [
        {
          "internalType": "uint256",
          "name": "",
          "type": "uint256"
        }
      ],
      "stateMutability": "view",
      "type": "function"
    },
    {
      "inputs": [],
      "name": "REFERRAL_CODE",
      "outputs": [
        {
          "internalType": "uint16",
          "name": "",
          "type": "uint16"
        }
      ],
      "stateMutability": "view",
      "type": "function"
    },
    {
      "inputs": [],
      "name": "UPGRADER_ROLE",
      "outputs": [
        {
          "internalType": "bytes32",
          "name": "",
          "type": "bytes32"
        }
      ],
      "stateMutability": "view",
      "type": "function"
    },
    {
      "inputs": [],
      "name": "_aavePool",
      "outputs": [
        {
          "internalType": "contract IPool",
          "name": "aavePool",
          "type": "address"
        }
      ],
      "stateMutability": "nonpayable",
      "type": "function"
    },
    {
      "inputs": [],
      "name": "aUsdc",
      "outputs": [
        {
          "internalType": "contract IERC20",
          "name": "",
          "type": "address"
        }
      ],
      "stateMutability": "view",
      "type": "function"
    },
    {
      "inputs": [],
      "name": "aavePoolAddressesProvider",
      "outputs": [
        {
          "internalType": "contract IPoolAddressesProvider",
          "name": "",
          "type": "address"
        }
      ],
      "stateMutability": "view",
      "type": "function"
    },
    {
      "inputs": [],
      "name": "asset",
      "outputs": [
        {
          "internalType": "contract IERC20",
          "name": "",
          "type": "address"
        }
      ],
      "stateMutability": "view",
      "type": "function"
    },
    {
      "inputs": [],
      "name": "balance",
      "outputs": [],
      "stateMutability": "nonpayable",
      "type": "function"
    },
    {
      "inputs": [],
      "name": "balances",
      "outputs": [
        {
          "components": [
            {
              "internalType": "address",
              "name": "token",
              "type": "address"
            },
            {
              "internalType": "uint256",
              "name": "amountUSDC",
              "type": "uint256"
            },
            {
              "internalType": "uint256",
              "name": "amount",
              "type": "uint256"
            },
            {
              "internalType": "bool",
              "name": "borrowed",
              "type": "bool"
            }
          ],
          "internalType": "struct IHedgeStrategy.BalanceItem[]",
          "name": "",
          "type": "tuple[]"
        }
      ],
      "stateMutability": "view",
      "type": "function"
    },
    {
      "inputs": [],
      "name": "balancingDelta",
      "outputs": [
        {
          "internalType": "uint256",
          "name": "",
          "type": "uint256"
        }
      ],
      "stateMutability": "view",
      "type": "function"
    },
    {
      "inputs": [
        {
          "internalType": "address",
          "name": "_to",
          "type": "address"
        }
      ],
      "name": "claimRewards",
      "outputs": [
        {
          "internalType": "uint256",
          "name": "",
          "type": "uint256"
        }
      ],
      "stateMutability": "nonpayable",
      "type": "function"
    },
    {
      "inputs": [],
      "name": "currentHealthFactor",
      "outputs": [
        {
          "internalType": "uint256",
          "name": "",
          "type": "uint256"
        }
      ],
      "stateMutability": "view",
      "type": "function"
    },
    {
      "inputs": [],
      "name": "dyst",
      "outputs": [
        {
          "internalType": "contract IERC20",
          "name": "",
          "type": "address"
        }
      ],
      "stateMutability": "view",
      "type": "function"
    },
    {
      "inputs": [],
      "name": "dystRewards",
      "outputs": [
        {
          "internalType": "contract IDystopiaLP",
          "name": "",
          "type": "address"
        }
      ],
      "stateMutability": "view",
      "type": "function"
    },
    {
      "inputs": [],
      "name": "dystRouter",
      "outputs": [
        {
          "internalType": "contract IDystopiaRouter",
          "name": "",
          "type": "address"
        }
      ],
      "stateMutability": "view",
      "type": "function"
    },
    {
      "inputs": [],
      "name": "dystVault",
      "outputs": [
        {
          "internalType": "contract IDystopiaLP",
          "name": "",
          "type": "address"
        }
      ],
      "stateMutability": "view",
      "type": "function"
    },
    {
      "inputs": [],
      "name": "exchange",
      "outputs": [
        {
          "internalType": "contract IExchange",
          "name": "",
          "type": "address"
        }
      ],
      "stateMutability": "view",
      "type": "function"
    },
    {
      "inputs": [],
      "name": "exchanger",
      "outputs": [
        {
          "internalType": "address",
          "name": "",
          "type": "address"
        }
      ],
      "stateMutability": "view",
      "type": "function"
    },
    {
      "inputs": [],
      "name": "getDeltas",
      "outputs": [
        {
          "internalType": "uint256",
          "name": "",
          "type": "uint256"
        },
        {
          "internalType": "uint256",
          "name": "",
          "type": "uint256"
        },
        {
          "internalType": "uint256",
          "name": "",
          "type": "uint256"
        },
        {
          "internalType": "uint256",
          "name": "",
          "type": "uint256"
        }
      ],
      "stateMutability": "view",
      "type": "function"
    },
    {
      "inputs": [
        {
          "internalType": "bytes32",
          "name": "role",
          "type": "bytes32"
        }
      ],
      "name": "getRoleAdmin",
      "outputs": [
        {
          "internalType": "bytes32",
          "name": "",
          "type": "bytes32"
        }
      ],
      "stateMutability": "view",
      "type": "function"
    },
    {
      "inputs": [
        {
          "internalType": "bytes32",
          "name": "role",
          "type": "bytes32"
        },
        {
          "internalType": "address",
          "name": "account",
          "type": "address"
        }
      ],
      "name": "grantRole",
      "outputs": [],
      "stateMutability": "nonpayable",
      "type": "function"
    },
    {
      "inputs": [
        {
          "internalType": "bytes32",
          "name": "role",
          "type": "bytes32"
        },
        {
          "internalType": "address",
          "name": "account",
          "type": "address"
        }
      ],
      "name": "hasRole",
      "outputs": [
        {
          "internalType": "bool",
          "name": "",
          "type": "bool"
        }
      ],
      "stateMutability": "view",
      "type": "function"
    },
    {
      "inputs": [],
      "name": "healthFactor",
      "outputs": [
        {
          "internalType": "uint256",
          "name": "",
          "type": "uint256"
        }
      ],
      "stateMutability": "view",
      "type": "function"
    },
    {
      "inputs": [],
      "name": "initialize",
      "outputs": [],
      "stateMutability": "nonpayable",
      "type": "function"
    },
    {
      "inputs": [],
      "name": "liquidationThreshold",
      "outputs": [
        {
          "internalType": "uint256",
          "name": "",
          "type": "uint256"
        }
      ],
      "stateMutability": "view",
      "type": "function"
    },
    {
      "inputs": [],
      "name": "netAssetValue",
      "outputs": [
        {
          "internalType": "uint256",
          "name": "",
          "type": "uint256"
        }
      ],
      "stateMutability": "view",
      "type": "function"
    },
    {
      "inputs": [],
      "name": "oracleUsdc",
      "outputs": [
        {
          "internalType": "contract IPriceFeed",
          "name": "",
          "type": "address"
        }
      ],
      "stateMutability": "view",
      "type": "function"
    },
    {
      "inputs": [],
      "name": "oracleWmatic",
      "outputs": [
        {
          "internalType": "contract IPriceFeed",
          "name": "",
          "type": "address"
        }
      ],
      "stateMutability": "view",
      "type": "function"
    },
    {
      "inputs": [],
      "name": "penLens",
      "outputs": [
        {
          "internalType": "contract IPenLens",
          "name": "",
          "type": "address"
        }
      ],
      "stateMutability": "view",
      "type": "function"
    },
    {
      "inputs": [],
      "name": "penProxy",
      "outputs": [
        {
          "internalType": "contract IUserProxy",
          "name": "",
          "type": "address"
        }
      ],
      "stateMutability": "view",
      "type": "function"
    },
    {
      "inputs": [],
      "name": "penToken",
      "outputs": [
        {
          "internalType": "contract IERC20",
          "name": "",
          "type": "address"
        }
      ],
      "stateMutability": "view",
      "type": "function"
    },
    {
      "inputs": [],
      "name": "proxiableUUID",
      "outputs": [
        {
          "internalType": "bytes32",
          "name": "",
          "type": "bytes32"
        }
      ],
      "stateMutability": "view",
      "type": "function"
    },
    {
      "inputs": [],
      "name": "realHealthFactor",
      "outputs": [
        {
          "internalType": "uint256",
          "name": "",
          "type": "uint256"
        }
      ],
      "stateMutability": "view",
      "type": "function"
    },
    {
      "inputs": [
        {
          "internalType": "bytes32",
          "name": "role",
          "type": "bytes32"
        },
        {
          "internalType": "address",
          "name": "account",
          "type": "address"
        }
      ],
      "name": "renounceRole",
      "outputs": [],
      "stateMutability": "nonpayable",
      "type": "function"
    },
    {
      "inputs": [
        {
          "internalType": "bytes32",
          "name": "role",
          "type": "bytes32"
        },
        {
          "internalType": "address",
          "name": "account",
          "type": "address"
        }
      ],
      "name": "revokeRole",
      "outputs": [],
      "stateMutability": "nonpayable",
      "type": "function"
    },
    {
      "inputs": [
        {
          "internalType": "address",
          "name": "_value",
          "type": "address"
        }
      ],
      "name": "setExchanger",
      "outputs": [],
      "stateMutability": "nonpayable",
      "type": "function"
    },
    {
      "inputs": [
        {
          "internalType": "uint256",
          "name": "_amount",
          "type": "uint256"
        }
      ],
      "name": "stake",
      "outputs": [],
      "stateMutability": "nonpayable",
      "type": "function"
    },
    {
      "inputs": [
        {
          "internalType": "bytes4",
          "name": "interfaceId",
          "type": "bytes4"
        }
      ],
      "name": "supportsInterface",
      "outputs": [
        {
          "internalType": "bool",
          "name": "",
          "type": "bool"
        }
      ],
      "stateMutability": "view",
      "type": "function"
    },
    {
      "inputs": [
        {
          "internalType": "uint256",
          "name": "_amount",
          "type": "uint256"
        },
        {
          "internalType": "address",
          "name": "_to",
          "type": "address"
        }
      ],
      "name": "unstake",
      "outputs": [
        {
          "internalType": "uint256",
          "name": "",
          "type": "uint256"
        }
      ],
      "stateMutability": "nonpayable",
      "type": "function"
    },
    {
      "inputs": [
        {
          "internalType": "address",
          "name": "newImplementation",
          "type": "address"
        }
      ],
      "name": "upgradeTo",
      "outputs": [],
      "stateMutability": "nonpayable",
      "type": "function"
    },
    {
      "inputs": [
        {
          "internalType": "address",
          "name": "newImplementation",
          "type": "address"
        },
        {
          "internalType": "bytes",
          "name": "data",
          "type": "bytes"
        }
      ],
      "name": "upgradeToAndCall",
      "outputs": [],
      "stateMutability": "payable",
      "type": "function"
    },
    {
      "inputs": [],
      "name": "usdPlus",
      "outputs": [
        {
          "internalType": "contract IERC20",
          "name": "",
          "type": "address"
        }
      ],
      "stateMutability": "view",
      "type": "function"
    },
    {
      "inputs": [],
      "name": "usdc",
      "outputs": [
        {
          "internalType": "contract IERC20",
          "name": "",
          "type": "address"
        }
      ],
      "stateMutability": "view",
      "type": "function"
    },
    {
      "inputs": [],
      "name": "usdcDm",
      "outputs": [
        {
          "internalType": "uint256",
          "name": "",
          "type": "uint256"
        }
      ],
      "stateMutability": "view",
      "type": "function"
    },
    {
      "inputs": [],
      "name": "usdcStorage",
      "outputs": [
        {
          "internalType": "uint256",
          "name": "",
          "type": "uint256"
        }
      ],
      "stateMutability": "view",
      "type": "function"
    },
    {
      "inputs": [],
      "name": "wmatic",
      "outputs": [
        {
          "internalType": "contract IERC20",
          "name": "",
          "type": "address"
        }
      ],
      "stateMutability": "view",
      "type": "function"
    },
    {
      "inputs": [],
      "name": "wmaticDm",
      "outputs": [
        {
          "internalType": "uint256",
          "name": "",
          "type": "uint256"
        }
      ],
      "stateMutability": "view",
      "type": "function"
    }
  ],
  "numDeployments": 17,
  "solcInputHash": "0e9095b4ff4918b19824cac904b77a35",
  "bytecode": "0x60a06040523060601b6080523480156200001857600080fd5b5060006200002760016200008e565b9050801562000040576000805461ff0019166101001790555b801562000087576000805461ff0019169055604051600181527f7f26b83ff96e1f2b6a682f133852f6798a09c465da95921460cefb38474024989060200160405180910390a15b50620001af565b60008054610100900460ff161562000127578160ff166001148015620000c75750620000c530620001a060201b620024be1760201c565b155b6200011f5760405162461bcd60e51b815260206004820152602e60248201526000805160206200503983398151915260448201526d191e481a5b9a5d1a585b1a5e995960921b60648201526084015b60405180910390fd5b506000919050565b60005460ff808416911610620001865760405162461bcd60e51b815260206004820152602e60248201526000805160206200503983398151915260448201526d191e481a5b9a5d1a585b1a5e995960921b606482015260840162000116565b506000805460ff191660ff92909216919091179055600190565b6001600160a01b03163b151590565b60805160601c614e4f620001ea60003960008181610a8401528181610ac401528181610b6401528181610ba40152610c330152614e4f6000f3fe60806040526004361061031a5760003560e01c80638129fc1c116101ab578063d2f7265a116100f7578063e8ced75c11610095578063f664b3d91161006f578063f664b3d914610914578063f72c0d8b1461092a578063fb24974a1461095e578063fb41be161461097457600080fd5b8063e8ced75c146108c6578063ef5cfb8c146108dd578063f52d4a65146108fd57600080fd5b8063da909b09116100d1578063da909b091461084d578063ddca95f31461086d578063e109e0341461088e578063e54bef75146108a557600080fd5b8063d2f7265a146107d7578063d547741f146107f8578063d6d48ade1461081857600080fd5b8063a217fddf11610164578063ab6431751161013e578063ab6431751461076a578063b69ef8a81461077f578063bd0f105314610794578063cfab8eda146107b657600080fd5b8063a217fddf14610720578063a3673b3814610735578063a694fc3a1461074a57600080fd5b80638129fc1c1461067457806383008bd9146106895780638381e1821461069e5780638b2ddd14146106be57806391d14854146106df5780639994e71b146106ff57600080fd5b80634031234c1161026a5780635a01f33d1161022357806365196e1e116101fd57806365196e1e146105fb57806369e4e0051461061c578063799ef2241461063d5780637bb98a681461065257600080fd5b80635a01f33d146105a35780635d85786d146105b95780635fea9cbb146105da57600080fd5b80634031234c14610502578063457482a0146105195780634d12fca41461053a5780634f1ef2861461055a578063514e460a1461056d57806352d1902d1461058e57600080fd5b80632f2ff15d116102d757806336568abe116102b157806336568abe146104815780633659cfe6146104a157806338d52e0f146104c15780633e413bee146104e157600080fd5b80632f2ff15d146104105780633583849a1461043257806335faba331461045a57600080fd5b806301ffc9a71461031f578063097cb6c1146103545780631b1e7ddc1461038d57806322841f01146103b2578063248a9ca3146103c95780632a8b096f146103f9575b600080fd5b34801561032b57600080fd5b5061033f61033a366004614925565b610995565b60405190151581526020015b60405180910390f35b34801561036057600080fd5b5061013854610375906001600160a01b031681565b6040516001600160a01b03909116815260200161034b565b34801561039957600080fd5b506103a46101345481565b60405190815260200161034b565b3480156103be57600080fd5b506103a46101415481565b3480156103d557600080fd5b506103a46103e43660046148c3565b60009081526065602052604090206001015490565b34801561040557600080fd5b506103a46101435481565b34801561041c57600080fd5b5061043061042b3660046148f5565b6109cc565b005b34801561043e57600080fd5b50610447600081565b60405161ffff909116815260200161034b565b34801561046657600080fd5b5061046f600081565b60405160ff909116815260200161034b565b34801561048d57600080fd5b5061043061049c3660046148f5565b6109f6565b3480156104ad57600080fd5b506104306104bc3660046147a3565b610a79565b3480156104cd57600080fd5b5060fb54610375906001600160a01b031681565b3480156104ed57600080fd5b5061013054610375906001600160a01b031681565b34801561050e57600080fd5b506103a46101405481565b34801561052557600080fd5b5061013754610375906001600160a01b031681565b34801561054657600080fd5b5060fc54610375906001600160a01b031681565b6104306105683660046147dd565b610b59565b34801561057957600080fd5b5061012f54610375906001600160a01b031681565b34801561059a57600080fd5b506103a4610c26565b3480156105af57600080fd5b50610143546103a4565b3480156105c557600080fd5b5061013654610375906001600160a01b031681565b3480156105e657600080fd5b5061013d54610375906001600160a01b031681565b34801561060757600080fd5b5061013154610375906001600160a01b031681565b34801561062857600080fd5b5061013c54610375906001600160a01b031681565b34801561064957600080fd5b506103a4606481565b34801561065e57600080fd5b50610667610cd9565b60405161034b9190614ab7565b34801561068057600080fd5b50610430611336565b34801561069557600080fd5b506103a4600281565b3480156106aa57600080fd5b506103a46106b93660046148f5565b6113aa565b3480156106ca57600080fd5b5061013b54610375906001600160a01b031681565b3480156106eb57600080fd5b5061033f6106fa3660046148f5565b611514565b34801561070b57600080fd5b5061013354610375906001600160a01b031681565b34801561072c57600080fd5b506103a4600081565b34801561074157600080fd5b506103a461153f565b34801561075657600080fd5b506104306107653660046148c3565b611964565b34801561077657600080fd5b50610375611a4d565b34801561078b57600080fd5b50610430611a6c565b3480156107a057600080fd5b506103a4600080516020614db383398151915281565b3480156107c257600080fd5b5061013a54610375906001600160a01b031681565b3480156107e357600080fd5b5061012e54610375906001600160a01b031681565b34801561080457600080fd5b506104306108133660046148f5565b611a74565b34801561082457600080fd5b5061082d611a99565b60408051948552602085019390935291830152606082015260800161034b565b34801561085957600080fd5b506104306108683660046147a3565b612337565b34801561087957600080fd5b5061013e54610375906001600160a01b031681565b34801561089a57600080fd5b506103a46101355481565b3480156108b157600080fd5b5061013954610375906001600160a01b031681565b3480156108d257600080fd5b506103a461013f5481565b3480156108e957600080fd5b506103a46108f83660046147a3565b61243a565b34801561090957600080fd5b506103a46101425481565b34801561092057600080fd5b506103a461019081565b34801561093657600080fd5b506103a47f189ab7a9244df0848122154315af71fe140f3db0fe014031783b0946b8c9d2e381565b34801561096a57600080fd5b506103a460001981565b34801561098057600080fd5b5061013254610375906001600160a01b031681565b60006001600160e01b03198216637965db0b60e01b14806109c657506301ffc9a760e01b6001600160e01b03198316145b92915050565b6000828152606560205260409020600101546109e7816124cd565b6109f183836124d7565b505050565b6001600160a01b0381163314610a6b5760405162461bcd60e51b815260206004820152602f60248201527f416363657373436f6e74726f6c3a2063616e206f6e6c792072656e6f756e636560448201526e103937b632b9903337b91039b2b63360891b60648201526084015b60405180910390fd5b610a75828261255d565b5050565b306001600160a01b037f0000000000000000000000000000000000000000000000000000000000000000161415610ac25760405162461bcd60e51b8152600401610a6290614bc2565b7f00000000000000000000000000000000000000000000000000000000000000006001600160a01b0316610b0b600080516020614dd3833981519152546001600160a01b031690565b6001600160a01b031614610b315760405162461bcd60e51b8152600401610a6290614c0e565b610b3a816125c4565b60408051600080825260208201909252610b56918391906125ee565b50565b306001600160a01b037f0000000000000000000000000000000000000000000000000000000000000000161415610ba25760405162461bcd60e51b8152600401610a6290614bc2565b7f00000000000000000000000000000000000000000000000000000000000000006001600160a01b0316610beb600080516020614dd3833981519152546001600160a01b031690565b6001600160a01b031614610c115760405162461bcd60e51b8152600401610a6290614c0e565b610c1a826125c4565b610a75828260016125ee565b6000306001600160a01b037f00000000000000000000000000000000000000000000000000000000000000001614610cc65760405162461bcd60e51b815260206004820152603860248201527f555550535570677261646561626c653a206d757374206e6f742062652063616c60448201527f6c6564207468726f7567682064656c656761746563616c6c00000000000000006064820152608401610a62565b50600080516020614dd383398151915290565b61013c54606090600090610cf5906001600160a01b0316612768565b604051632fe4a15f60e21b81523060048201526001600160a01b03919091169063bf92857c9060240160c06040518083038186803b158015610d3657600080fd5b505afa158015610d4a573d6000803e3d6000fd5b505050506040513d601f19601f82011682018060405250810190610d6e91906149c3565b505050509150506000610e0b826101355461013e60009054906101000a90046001600160a01b03166001600160a01b03166350d25bcd6040518163ffffffff1660e01b815260040160206040518083038186803b158015610dce57600080fd5b505afa158015610de2573d6000803e3d6000fd5b505050506040513d601f19601f82011682018060405250810190610e0691906148dc565b6127db565b90506000610e66836101345461013d60009054906101000a90046001600160a01b03166001600160a01b03166350d25bcd6040518163ffffffff1660e01b815260040160206040518083038186803b158015610dce57600080fd5b60408051600480825260a0820190925291925060009190816020015b604080516080810182526000808252602080830182905292820181905260608201528252600019909201910181610e8257505060408051608081018252610132546001600160a01b0316815260208101859052908101859052600160608201528151919250908290600090610ef957610ef9614d71565b6020908102919091010152610130546040516370a0823160e01b81523060048201526000916001600160a01b0316906370a082319060240160206040518083038186803b158015610f4957600080fd5b505afa158015610f5d573d6000803e3d6000fd5b505050506040513d601f19601f82011682018060405250810190610f8191906148dc565b610131546040516370a0823160e01b81523060048201526001600160a01b03909116906370a082319060240160206040518083038186803b158015610fc557600080fd5b505afa158015610fd9573d6000803e3d6000fd5b505050506040513d601f19601f82011682018060405250810190610ffd91906148dc565b6110079190614ca8565b60408051608081018252610131546001600160a01b0316815260208101839052908101829052600060608201528351919250908390600190811061104d5761104d614d71565b6020908102919091010152604051635a982ebb60e11b8152306004820152600090819073__$0dc228d02fcd8a621917d123613ff94d1f$__9063b5305d7690602401604080518083038186803b1580156110a657600080fd5b505af41580156110ba573d6000803e3d6000fd5b505050506040513d601f19601f820116820180604052508101906110de919061499f565b61012f546040516370a0823160e01b81523060048201529294509092506001600160a01b0316906370a082319060240160206040518083038186803b15801561112657600080fd5b505afa15801561113a573d6000803e3d6000fd5b505050506040513d601f19601f8201168201806040525081019061115e91906148dc565b6111689082614ca8565b905061128982610135546101345461013e60009054906101000a90046001600160a01b03166001600160a01b03166350d25bcd6040518163ffffffff1660e01b815260040160206040518083038186803b1580156111c557600080fd5b505afa1580156111d9573d6000803e3d6000fd5b505050506040513d601f19601f820116820180604052508101906111fd91906148dc565b61013d60009054906101000a90046001600160a01b03166001600160a01b03166350d25bcd6040518163ffffffff1660e01b815260040160206040518083038186803b15801561124c57600080fd5b505afa158015611260573d6000803e3d6000fd5b505050506040513d601f19601f8201168201806040525081019061128491906148dc565b6127fa565b60408051608081018252610132546001600160a01b031681526020810183905290810184905260006060820152855191965090859060029081106112cf576112cf614d71565b6020908102919091018101919091526040805160808101825261012f546001600160a01b0316815291820183905281018290526000606082015284518590600390811061131e5761131e614d71565b60200260200101819052508397505050505050505090565b6000611342600161282f565b9050801561135a576000805461ff0019166101001790555b6113626128b7565b8015610b56576000805461ff0019169055604051600181527f7f26b83ff96e1f2b6a682f133852f6798a09c465da95921460cefb38474024989060200160405180910390a150565b60006113c4600080516020614db383398151915233611514565b6113e05760405162461bcd60e51b8152600401610a6290614b8b565b60006113eb84612920565b90508381101561144f5760405162461bcd60e51b815260206004820152602960248201527f52657475726e65642076616c7565206c657373207468616e2072657175657374604482015268195908185b5bdd5b9d60ba1b6064820152608401610a62565b60fb5460405163a9059cbb60e01b81526001600160a01b039091169063a9059cbb906114819086908590600401614a9e565b602060405180830381600087803b15801561149b57600080fd5b505af11580156114af573d6000803e3d6000fd5b505050506040513d601f19601f820116820180604052508101906114d391906148a1565b5060408051858152602081018390527f9045c2ac9b2026de8075f2701bbdde882cd5e830b3b1ead9a15b22f2b5b93742910160405180910390a19392505050565b60009182526065602090815260408084206001600160a01b0393909316845291905290205460ff1690565b604051635a982ebb60e11b81523060048201526000908190819073__$0dc228d02fcd8a621917d123613ff94d1f$__9063b5305d7690602401604080518083038186803b15801561158f57600080fd5b505af41580156115a3573d6000803e3d6000fd5b505050506040513d601f19601f820116820180604052508101906115c7919061499f565b61012f546040516370a0823160e01b81523060048201529294509092506000916001600160a01b03909116906370a082319060240160206040518083038186803b15801561161457600080fd5b505afa158015611628573d6000803e3d6000fd5b505050506040513d601f19601f8201168201806040525081019061164c91906148dc565b6116569083614ca8565b610131546040516370a0823160e01b81523060048201529192506000916001600160a01b03909116906370a082319060240160206040518083038186803b1580156116a057600080fd5b505afa1580156116b4573d6000803e3d6000fd5b505050506040513d601f19601f820116820180604052508101906116d891906148dc565b610130546040516370a0823160e01b81523060048201526001600160a01b03909116906370a082319060240160206040518083038186803b15801561171c57600080fd5b505afa158015611730573d6000803e3d6000fd5b505050506040513d601f19601f8201168201806040525081019061175491906148dc565b61175e9190614ca8565b61013c5490915060009061177a906001600160a01b0316612768565b604051632fe4a15f60e21b81523060048201526001600160a01b03919091169063bf92857c9060240160c06040518083038186803b1580156117bb57600080fd5b505afa1580156117cf573d6000803e3d6000fd5b505050506040513d601f19601f820116820180604052508101906117f391906149c3565b505050509150506000611853826101355461013e60009054906101000a90046001600160a01b03166001600160a01b03166350d25bcd6040518163ffffffff1660e01b815260040160206040518083038186803b158015610dce57600080fd5b9050858110156118d85760006118698288614d01565b90506118c681610135546101345461013e60009054906101000a90046001600160a01b03166001600160a01b03166350d25bcd6040518163ffffffff1660e01b815260040160206040518083038186803b1580156111c557600080fd5b6118d09085614ca8565b93505061194f565b60006118e48783614d01565b905061194181610135546101345461013e60009054906101000a90046001600160a01b03166001600160a01b03166350d25bcd6040518163ffffffff1660e01b815260040160206040518083038186803b1580156111c557600080fd5b61194b9085614d01565b9350505b6119598385614ca8565b965050505050505090565b61197c600080516020614db383398151915233611514565b6119985760405162461bcd60e51b8152600401610a6290614b8b565b6040518181527f227a473b70d2f893cc7659219575c030a63b5743024fe1e0c1a680e708b1525a9060200160405180910390a160fb546040516370a0823160e01b8152306004820152610b56916001600160a01b0316906370a082319060240160206040518083038186803b158015611a1057600080fd5b505afa158015611a24573d6000803e3d6000fd5b505050506040513d601f19601f82011682018060405250810190611a4891906148dc565b6132e7565b61013c54600090611a67906001600160a01b031682613466565b905090565b610b5661353e565b600082815260656020526040902060010154611a8f816124cd565b6109f1838361255d565b60008060008060008060008061013d60009054906101000a90046001600160a01b03166001600160a01b03166350d25bcd6040518163ffffffff1660e01b815260040160206040518083038186803b158015611af457600080fd5b505afa158015611b08573d6000803e3d6000fd5b505050506040513d601f19601f82011682018060405250810190611b2c91906148dc565b9050600061013e60009054906101000a90046001600160a01b03166001600160a01b03166350d25bcd6040518163ffffffff1660e01b815260040160206040518083038186803b158015611b7f57600080fd5b505afa158015611b93573d6000803e3d6000fd5b505050506040513d601f19601f82011682018060405250810190611bb791906148dc565b905060008061013860009054906101000a90046001600160a01b03166001600160a01b0316630902f1ac6040518163ffffffff1660e01b815260040160606040518083038186803b158015611c0b57600080fd5b505afa158015611c1f573d6000803e3d6000fd5b505050506040513d601f19601f82011682018060405250810190611c43919061494f565b506001600160701b039182169350169050600082611c6a8368056bc75e2d63100000614ce2565b611c749190614cc0565b90508061014054611c859190614ce2565b611c93906305f5e100614ce2565b848661014154611ca39190614ce2565b611cad9190614ce2565b611cb79190614ca8565b848661014154611cc79190614ce2565b611cd19190614ce2565b611ce390670de0b6b3a7640000614ce2565b611ced9190614cc0565b9750610141546101405489611d029190614ce2565b611d0c9190614cc0565b9650611d188486614ce2565b611d228289614ce2565b611d30906305f5e100614ce2565b611d3a9190614cc0565b61013c5490965060009550859450611d5f93506001600160a01b031691506127689050565b604051632fe4a15f60e21b81523060048201526001600160a01b03919091169063bf92857c9060240160c06040518083038186803b158015611da057600080fd5b505afa158015611db4573d6000803e3d6000fd5b505050506040513d601f19601f82011682018060405250810190611dd891906149c3565b505061013b54604051636f4ba70b60e11b815230600482015294965092945060009384938493506001600160a01b0316915063de974e169060240160206040518083038186803b158015611e2b57600080fd5b505afa158015611e3f573d6000803e3d6000fd5b505050506040513d601f19601f82011682018060405250810190611e6391906147c0565b61013b546101385460405163478a0c7960e11b81526001600160a01b039182166004820152929350600092911690638f1418f29060240160206040518083038186803b158015611eb257600080fd5b505afa158015611ec6573d6000803e3d6000fd5b505050506040513d601f19601f82011682018060405250810190611eea91906147c0565b6040516370a0823160e01b81526001600160a01b0384811660048301529192506000918316906370a082319060240160206040518083038186803b158015611f3157600080fd5b505afa158015611f45573d6000803e3d6000fd5b505050506040513d601f19601f82011682018060405250810190611f6991906148dc565b604051633a511c0b60e21b815290915073__$0dc228d02fcd8a621917d123613ff94d1f$__9063e944702c90611fa59030908590600401614a9e565b604080518083038186803b158015611fbc57600080fd5b505af4158015611fd0573d6000803e3d6000fd5b505050506040513d601f19601f82011682018060405250810190611ff4919061499f565b8095508196505050505050600080612096846101355461013e60009054906101000a90046001600160a01b03166001600160a01b03166350d25bcd6040518163ffffffff1660e01b815260040160206040518083038186803b15801561205957600080fd5b505afa15801561206d573d6000803e3d6000fd5b505050506040513d601f19601f8201168201806040525081019061209191906148dc565b613767565b905060006120f1846101345461013d60009054906101000a90046001600160a01b03166001600160a01b03166350d25bcd6040518163ffffffff1660e01b815260040160206040518083038186803b15801561205957600080fd5b905085876120ff8385614ca8565b6121099190614ca8565b6121139190614d01565b9250670de0b6b3a76400006121288985614ce2565b6121329190614cc0565b8111156121c7576001670de0b6b3a764000061214e8c86614ce2565b6121589190614cc0565b6121629089614d01565b670de0b6b3a76400006121758c87614ce2565b61217f9190614cc0565b6121899089614d01565b670de0b6b3a764000061219c8c88614ce2565b6121a69190614cc0565b6121b09085614d01565b9d509d509d509d5050505050505050505050612331565b670de0b6b3a76400006121da8a85614ce2565b6121e49190614cc0565b8611801561220d575080670de0b6b3a76400006122018a86614ce2565b61220b9190614cc0565b115b1561228a576002670de0b6b3a76400006122278c86614ce2565b6122319190614cc0565b61223b9089614d01565b670de0b6b3a764000061224e8c87614ce2565b6122589190614cc0565b6122629089614d01565b83670de0b6b3a76400006122768d89614ce2565b6122809190614cc0565b6121b09190614d01565b85670de0b6b3a764000061229e8b86614ce2565b6122a89190614cc0565b1180156122d0575080670de0b6b3a76400006122c48a86614ce2565b6122ce9190614cc0565b115b15612326576003670de0b6b3a76400006122ea8c86614ce2565b6122f49190614cc0565b6122fe9089614d01565b87670de0b6b3a76400006123128d88614ce2565b61231c9190614cc0565b6122629190614d01565b505050505050505050505b90919293565b612342600033611514565b6123855760405162461bcd60e51b81526020600482015260146024820152735265737472696374656420746f2061646d696e7360601b6044820152606401610a62565b6001600160a01b0381166123db5760405162461bcd60e51b815260206004820152601860248201527f5a65726f2061646472657373206e6f7420616c6c6f77656400000000000000006044820152606401610a62565b60fc5461240090600080516020614db3833981519152906001600160a01b0316611a74565b612418600080516020614db3833981519152826109cc565b60fc80546001600160a01b0319166001600160a01b0392909216919091179055565b6000612454600080516020614db383398151915233611514565b6124705760405162461bcd60e51b8152600401610a6290614b8b565b600061247b83613774565b90507f3ac0594a85a20354f9dc74f33728416d19ce00d04a406c108cc2dcf2cecea134816040516124ae91815260200190565b60405180910390a190505b919050565b6001600160a01b03163b151590565b610b5681336137f9565b6124e18282611514565b610a755760008281526065602090815260408083206001600160a01b03851684529091529020805460ff191660011790556125193390565b6001600160a01b0316816001600160a01b0316837f2f8788117e7eff1d82e926ec794901d17c78024a50270940304540a733656f0d60405160405180910390a45050565b6125678282611514565b15610a755760008281526065602090815260408083206001600160a01b0385168085529252808320805460ff1916905551339285917ff6391f5c32d9c69d2a47ea670b442974b53935d1edc7fd64eb21e047a839171b9190a45050565b7f189ab7a9244df0848122154315af71fe140f3db0fe014031783b0946b8c9d2e3610a75816124cd565b7f4910fdfa16fed3260ed0e7147f7cc6da11a60208b5b9406d12a635614ffd91435460ff1615612621576109f18361385d565b826001600160a01b03166352d1902d6040518163ffffffff1660e01b815260040160206040518083038186803b15801561265a57600080fd5b505afa92505050801561268a575060408051601f3d908101601f19168201909252612687918101906148dc565b60015b6126ed5760405162461bcd60e51b815260206004820152602e60248201527f45524331393637557067726164653a206e657720696d706c656d656e7461746960448201526d6f6e206973206e6f74205555505360901b6064820152608401610a62565b600080516020614dd3833981519152811461275c5760405162461bcd60e51b815260206004820152602960248201527f45524331393637557067726164653a20756e737570706f727465642070726f786044820152681a58589b195555525160ba1b6064820152608401610a62565b506109f18383836138f9565b6000816001600160a01b031663026b1d5f6040518163ffffffff1660e01b815260040160206040518083038186803b1580156127a357600080fd5b505afa1580156127b7573d6000803e3d6000fd5b505050506040513d601f19601f820116820180604052508101906109c691906147c0565b6000816127e88486614ce2565b6127f29190614cc0565b949350505050565b60006128068286614ce2565b836128118689614ce2565b61281b9190614ce2565b6128259190614cc0565b9695505050505050565b60008054610100900460ff1615612876578160ff1660011480156128525750303b155b61286e5760405162461bcd60e51b8152600401610a6290614c5a565b506000919050565b60005460ff80841691161061289d5760405162461bcd60e51b8152600401610a6290614c5a565b506000805460ff191660ff92909216919091179055600190565b60006128c3600161282f565b905080156128db576000805461ff0019166101001790555b6128e3613924565b6128eb613924565b6128f66000336124d7565b6113627f189ab7a9244df0848122154315af71fe140f3db0fe014031783b0946b8c9d2e3336124d7565b60008061012e60009054906101000a90046001600160a01b03166001600160a01b031663c12e90e96040518163ffffffff1660e01b815260040160206040518083038186803b15801561297257600080fd5b505afa158015612986573d6000803e3d6000fd5b505050506040513d601f19601f820116820180604052508101906129aa91906148dc565b61012e60009054906101000a90046001600160a01b03166001600160a01b031663965fa21e6040518163ffffffff1660e01b815260040160206040518083038186803b1580156129f957600080fd5b505afa158015612a0d573d6000803e3d6000fd5b505050506040513d601f19601f82011682018060405250810190612a3191906148dc565b612a3b9085614ce2565b612a459190614cc0565b612a4f9084614ca8565b905060008061013860009054906101000a90046001600160a01b03166001600160a01b0316630902f1ac6040518163ffffffff1660e01b815260040160606040518083038186803b158015612aa357600080fd5b505afa158015612ab7573d6000803e3d6000fd5b505050506040513d601f19601f82011682018060405250810190612adb919061494f565b506001600160701b031691506001600160701b031691506000612c1d8483856101405461014154610134546101355461013d60009054906101000a90046001600160a01b03166001600160a01b03166350d25bcd6040518163ffffffff1660e01b815260040160206040518083038186803b158015612b5957600080fd5b505afa158015612b6d573d6000803e3d6000fd5b505050506040513d601f19601f82011682018060405250810190612b9191906148dc565b61013e60009054906101000a90046001600160a01b03166001600160a01b03166350d25bcd6040518163ffffffff1660e01b815260040160206040518083038186803b158015612be057600080fd5b505afa158015612bf4573d6000803e3d6000fd5b505050506040513d601f19601f82011682018060405250810190612c1891906148dc565b613991565b90506000612c29611a4d565b604051632fe4a15f60e21b81523060048201529091506000906001600160a01b0383169063bf92857c9060240160c06040518083038186803b158015612c6e57600080fd5b505afa158015612c82573d6000803e3d6000fd5b505050506040513d601f19601f82011682018060405250810190612ca691906149c3565b505050509150506000612d06826101355461013e60009054906101000a90046001600160a01b03166001600160a01b03166350d25bcd6040518163ffffffff1660e01b815260040160206040518083038186803b158015610dce57600080fd5b905060008082861115612d1f5750819050600019612d44565b85915087612d2d8884614ce2565b612d379190614cc0565b612d41908a614d01565b90505b60405163564bad0360e11b815260009073__$0dc228d02fcd8a621917d123613ff94d1f$__9063ac975a0690612d809030908790600401614a9e565b60206040518083038186803b158015612d9857600080fd5b505af4158015612dac573d6000803e3d6000fd5b505050506040513d601f19601f82011682018060405250810190612dd091906148dc565b61013a546101385460405163fce07e8960e01b81529293506001600160a01b039182169263fce07e8992612e0a9216908590600401614a9e565b600060405180830381600087803b158015612e2457600080fd5b505af1158015612e38573d6000803e3d6000fd5b5050610138546101365460405163095ea7b360e01b81526001600160a01b03928316945063095ea7b39350612e7592909116908590600401614a9e565b602060405180830381600087803b158015612e8f57600080fd5b505af1158015612ea3573d6000803e3d6000fd5b505050506040513d601f19601f82011682018060405250810190612ec791906148a1565b50604051633d13d8f560e11b815273__$0dc228d02fcd8a621917d123613ff94d1f$__90637a27b1ea90612f019030908590600401614a9e565b604080518083038186803b158015612f1857600080fd5b505af4158015612f2c573d6000803e3d6000fd5b505050506040513d601f19601f82011682018060405250810190612f50919061499f565b5050610132546040516370a0823160e01b81523060048201526001600160a01b039091169063095ea7b390889083906370a082319060240160206040518083038186803b158015612fa057600080fd5b505afa158015612fb4573d6000803e3d6000fd5b505050506040513d601f19601f82011682018060405250810190612fd891906148dc565b6040518363ffffffff1660e01b8152600401612ff5929190614a9e565b602060405180830381600087803b15801561300f57600080fd5b505af1158015613023573d6000803e3d6000fd5b505050506040513d601f19601f8201168201806040525081019061304791906148a1565b50610132546040516370a0823160e01b81523060048201526001600160a01b038881169263573ade819291169081906370a082319060240160206040518083038186803b15801561309757600080fd5b505afa1580156130ab573d6000803e3d6000fd5b505050506040513d601f19601f820116820180604052508101906130cf91906148dc565b6040516001600160e01b031960e085901b1681526001600160a01b039092166004830152602482015260026044820152306064820152608401602060405180830381600087803b15801561312257600080fd5b505af1158015613136573d6000803e3d6000fd5b505050506040513d601f19601f8201168201806040525081019061315a91906148dc565b5061013054604051631a4ca37b60e21b81526001600160a01b03918216600482015260248101849052306044820152908716906369328dec90606401602060405180830381600087803b1580156131b057600080fd5b505af11580156131c4573d6000803e3d6000fd5b505050506040513d601f19601f820116820180604052508101906131e891906148dc565b50604051637b51e6af60e01b815230600482015273__$0dc228d02fcd8a621917d123613ff94d1f$__90637b51e6af9060240160006040518083038186803b15801561323357600080fd5b505af4158015613247573d6000803e3d6000fd5b505061012f546040516370a0823160e01b81523060048201526001600160a01b0390911692506370a08231915060240160206040518083038186803b15801561328f57600080fd5b505afa1580156132a3573d6000803e3d6000fd5b505050506040513d601f19601f820116820180604052508101906132c791906148dc565b8c11156132d7576132d78c613a01565b50999a9950505050505050505050565b6132ef613efe565b61012f546040516370a0823160e01b81523060048201526000916001600160a01b0316906370a082319060240160206040518083038186803b15801561333457600080fd5b505afa158015613348573d6000803e3d6000fd5b505050506040513d601f19601f8201168201806040525081019061336c91906148dc565b610132546040516370a0823160e01b81523060048201529192506000916001600160a01b03909116906370a082319060240160206040518083038186803b1580156133b657600080fd5b505afa1580156133ca573d6000803e3d6000fd5b505050506040513d601f19601f820116820180604052508101906133ee91906148dc565b6040516304b2125360e01b8152306004820152602481018290526044810184905290915073__$0dc228d02fcd8a621917d123613ff94d1f$__906304b212539060640160006040518083038186803b15801561344957600080fd5b505af415801561345d573d6000803e3d6000fd5b50505050505050565b6000826001600160a01b031663026b1d5f6040518163ffffffff1660e01b815260040160206040518083038186803b1580156134a157600080fd5b505afa1580156134b5573d6000803e3d6000fd5b505050506040513d601f19601f820116820180604052508101906134d991906147c0565b6040516328530a4760e01b815260ff841660048201529091506001600160a01b038216906328530a4790602401600060405180830381600087803b15801561352057600080fd5b505af1158015613534573d6000803e3d6000fd5b5050505092915050565b600080600080600061354e611a99565b93509350935093506000604051806060016040528085815260200184815260200183815250905084600114156135e85760405163beb0e3a960e01b815273__$0dc228d02fcd8a621917d123613ff94d1f$__9063beb0e3a9906135b79030908590600401614b26565b60006040518083038186803b1580156135cf57600080fd5b505af41580156135e3573d6000803e3d6000fd5b505050505b846002141561365b57604051632d0f846f60e01b815273__$0dc228d02fcd8a621917d123613ff94d1f$__90632d0f846f9061362a9030908590600401614b26565b60006040518083038186803b15801561364257600080fd5b505af4158015613656573d6000803e3d6000fd5b505050505b84600314156136ce5760405163c6c27bdb60e01b815273__$0dc228d02fcd8a621917d123613ff94d1f$__9063c6c27bdb9061369d9030908590600401614b26565b60006040518083038186803b1580156136b557600080fd5b505af41580156136c9573d6000803e3d6000fd5b505050505b60006136d8611a4d565b604051632fe4a15f60e21b81523060048201526001600160a01b03919091169063bf92857c9060240160c06040518083038186803b15801561371957600080fd5b505afa15801561372d573d6000803e3d6000fd5b505050506040513d601f19601f8201168201806040525081019061375191906149c3565b6101438190559c9b505050505050505050505050565b6000826127e88386614ce2565b604051632882fa2f60e21b815230600482015260009073__$0dc228d02fcd8a621917d123613ff94d1f$__9063a20be8bc9060240160206040518083038186803b1580156137c157600080fd5b505af41580156137d5573d6000803e3d6000fd5b505050506040513d601f19601f820116820180604052508101906109c691906148dc565b6138038282611514565b610a755761381b816001600160a01b031660146143d8565b6138268360206143d8565b604051602001613837929190614a29565b60408051601f198184030181529082905262461bcd60e51b8252610a6291600401614b58565b6001600160a01b0381163b6138ca5760405162461bcd60e51b815260206004820152602d60248201527f455243313936373a206e657720696d706c656d656e746174696f6e206973206e60448201526c1bdd08184818dbdb9d1c9858dd609a1b6064820152608401610a62565b600080516020614dd383398151915280546001600160a01b0319166001600160a01b0392909216919091179055565b6139028361457b565b60008251118061390f5750805b156109f15761391e83836145bb565b50505050565b600054610100900460ff1661398f5760405162461bcd60e51b815260206004820152602b60248201527f496e697469616c697a61626c653a20636f6e7472616374206973206e6f74206960448201526a6e697469616c697a696e6760a81b6064820152608401610a62565b565b6000806139a18b878787876127fa565b905060006139b28a878987896127fa565b90506139be8b8a614ce2565b6139c8828a614ce2565b6139d29190614ca8565b816139dd8b85614ce2565b6139e79190614ce2565b6139f19190614cc0565b9c9b505050505050505050505050565b61012f546040516370a0823160e01b81523060048201526000916001600160a01b0316906370a082319060240160206040518083038186803b158015613a4657600080fd5b505afa158015613a5a573d6000803e3d6000fd5b505050506040513d601f19601f82011682018060405250810190613a7e91906148dc565b613a889083614d01565b905060008061013860009054906101000a90046001600160a01b03166001600160a01b0316630902f1ac6040518163ffffffff1660e01b815260040160606040518083038186803b158015613adc57600080fd5b505afa158015613af0573d6000803e3d6000fd5b505050506040513d601f19601f82011682018060405250810190613b14919061494f565b5061013b54604051636f4ba70b60e11b81523060048201526001600160701b0393841695509190921692506000916001600160a01b03169063de974e169060240160206040518083038186803b158015613b6d57600080fd5b505afa158015613b81573d6000803e3d6000fd5b505050506040513d601f19601f82011682018060405250810190613ba591906147c0565b61013b546101385460405163478a0c7960e11b81526001600160a01b039182166004820152929350600092911690638f1418f29060240160206040518083038186803b158015613bf457600080fd5b505afa158015613c08573d6000803e3d6000fd5b505050506040513d601f19601f82011682018060405250810190613c2c91906147c0565b6040516370a0823160e01b81526001600160a01b0384811660048301529192506000918316906370a082319060240160206040518083038186803b158015613c7357600080fd5b505afa158015613c87573d6000803e3d6000fd5b505050506040513d601f19601f82011682018060405250810190613cab91906148dc565b9050600073__$0dc228d02fcd8a621917d123613ff94d1f$__63f4b1be4430613cd68a6101906146af565b610134546101355461012f546101325460405160e088901b6001600160e01b03191681526001600160a01b0396871660048201526024810195909552604485018e9052606485018d9052608485018a905260a485019390935260c4840191909152831660e4830152919091166101048201526101240160206040518083038186803b158015613d6457600080fd5b505af4158015613d78573d6000803e3d6000fd5b505050506040513d601f19601f82011682018060405250810190613d9c91906148dc565b61013a546101385460405163fce07e8960e01b81529293506001600160a01b039182169263fce07e8992613dd69216908590600401614a9e565b600060405180830381600087803b158015613df057600080fd5b505af1158015613e04573d6000803e3d6000fd5b5050604051633d13d8f560e11b815273__$0dc228d02fcd8a621917d123613ff94d1f$__9250637a27b1ea9150613e419030908590600401614a9e565b604080518083038186803b158015613e5857600080fd5b505af4158015613e6c573d6000803e3d6000fd5b505050506040513d601f19601f82011682018060405250810190613e90919061499f565b5050604051637b51e6af60e01b815230600482015273__$0dc228d02fcd8a621917d123613ff94d1f$__90637b51e6af9060240160006040518083038186803b158015613edc57600080fd5b505af4158015613ef0573d6000803e3d6000fd5b505050505050505050505050565b60008061013860009054906101000a90046001600160a01b03166001600160a01b0316630902f1ac6040518163ffffffff1660e01b815260040160606040518083038186803b158015613f5057600080fd5b505afa158015613f64573d6000803e3d6000fd5b505050506040513d601f19601f82011682018060405250810190613f88919061494f565b5061012f546040516370a0823160e01b81523060048201526001600160701b0393841695509190921692506000918291614144916001600160a01b0316906370a082319060240160206040518083038186803b158015613fe757600080fd5b505afa158015613ffb573d6000803e3d6000fd5b505050506040513d601f19601f8201168201806040525081019061401f91906148dc565b84866101405461014154610134546101355461013d60009054906101000a90046001600160a01b03166001600160a01b03166350d25bcd6040518163ffffffff1660e01b815260040160206040518083038186803b15801561408057600080fd5b505afa158015614094573d6000803e3d6000fd5b505050506040513d601f19601f820116820180604052508101906140b891906148dc565b61013e60009054906101000a90046001600160a01b03166001600160a01b03166350d25bcd6040518163ffffffff1660e01b815260040160206040518083038186803b15801561410757600080fd5b505afa15801561411b573d6000803e3d6000fd5b505050506040513d601f19601f8201168201806040525081019061413f91906148dc565b6146d2565b61012e54610130546040516370a0823160e01b81523060048201529395509193506001600160a01b0390811692631e9a695092919091169081906370a082319060240160206040518083038186803b15801561419f57600080fd5b505afa1580156141b3573d6000803e3d6000fd5b505050506040513d601f19601f820116820180604052508101906141d791906148dc565b6141e19086614d01565b6040518363ffffffff1660e01b81526004016141fe929190614a9e565b602060405180830381600087803b15801561421857600080fd5b505af115801561422c573d6000803e3d6000fd5b505050506040513d601f19601f8201168201806040525081019061425091906148dc565b50600061425b611a4d565b6101305460405163095ea7b360e01b81529192506001600160a01b03169063095ea7b39061428f9084908790600401614a9e565b602060405180830381600087803b1580156142a957600080fd5b505af11580156142bd573d6000803e3d6000fd5b505050506040513d601f19601f820116820180604052508101906142e191906148a1565b506101305460405163617ba03760e01b81526001600160a01b03918216600482015260248101859052306044820152600060648201529082169063617ba03790608401600060405180830381600087803b15801561433e57600080fd5b505af1158015614352573d6000803e3d6000fd5b50506101325460405163a415bcad60e01b81526001600160a01b039182166004820152602481018690526002604482015260006064820152306084820152908416925063a415bcad915060a401600060405180830381600087803b1580156143b957600080fd5b505af11580156143cd573d6000803e3d6000fd5b505050505050505050565b606060006143e7836002614ce2565b6143f2906002614ca8565b67ffffffffffffffff81111561440a5761440a614d87565b6040519080825280601f01601f191660200182016040528015614434576020820181803683370190505b509050600360fc1b8160008151811061444f5761444f614d71565b60200101906001600160f81b031916908160001a905350600f60fb1b8160018151811061447e5761447e614d71565b60200101906001600160f81b031916908160001a90535060006144a2846002614ce2565b6144ad906001614ca8565b90505b6001811115614525576f181899199a1a9b1b9c1cb0b131b232b360811b85600f16601081106144e1576144e1614d71565b1a60f81b8282815181106144f7576144f7614d71565b60200101906001600160f81b031916908160001a90535060049490941c9361451e81614d44565b90506144b0565b5083156145745760405162461bcd60e51b815260206004820181905260248201527f537472696e67733a20686578206c656e67746820696e73756666696369656e746044820152606401610a62565b9392505050565b6145848161385d565b6040516001600160a01b038216907fbc7cd75a20ee27fd9adebab32041f755214dbc6bffa90cc0225b39da2e5c2d3b90600090a250565b60606001600160a01b0383163b6146235760405162461bcd60e51b815260206004820152602660248201527f416464726573733a2064656c65676174652063616c6c20746f206e6f6e2d636f6044820152651b9d1c9858dd60d21b6064820152608401610a62565b600080846001600160a01b03168460405161463e9190614a0d565b600060405180830381855af49150503d8060008114614679576040519150601f19603f3d011682016040523d82523d6000602084013e61467e565b606091505b50915091506146a68282604051806060016040528060278152602001614df360279139614753565b95945050505050565b60006127106146be8382614ca8565b6146c89085614ce2565b6145749190614cc0565b60008060006146e48a878987896127fa565b9050806146f18c8b614ce2565b6146fb9190614cc0565b6147059089614ca8565b61470f898e614ce2565b6147199190614cc0565b9250600061472a84898989896127fa565b9050886147378b83614ce2565b6147419190614cc0565b92505050995099975050505050505050565b60608315614762575081614574565b8251156147725782518084602001fd5b8160405162461bcd60e51b8152600401610a629190614b58565b80516001600160701b03811681146124b957600080fd5b6000602082840312156147b557600080fd5b813561457481614d9d565b6000602082840312156147d257600080fd5b815161457481614d9d565b600080604083850312156147f057600080fd5b82356147fb81614d9d565b9150602083013567ffffffffffffffff8082111561481857600080fd5b818501915085601f83011261482c57600080fd5b81358181111561483e5761483e614d87565b604051601f8201601f19908116603f0116810190838211818310171561486657614866614d87565b8160405282815288602084870101111561487f57600080fd5b8260208601602083013760006020848301015280955050505050509250929050565b6000602082840312156148b357600080fd5b8151801515811461457457600080fd5b6000602082840312156148d557600080fd5b5035919050565b6000602082840312156148ee57600080fd5b5051919050565b6000806040838503121561490857600080fd5b82359150602083013561491a81614d9d565b809150509250929050565b60006020828403121561493757600080fd5b81356001600160e01b03198116811461457457600080fd5b60008060006060848603121561496457600080fd5b61496d8461478c565b925061497b6020850161478c565b9150604084015163ffffffff8116811461499457600080fd5b809150509250925092565b600080604083850312156149b257600080fd5b505080516020909101519092909150565b60008060008060008060c087890312156149dc57600080fd5b865195506020870151945060408701519350606087015192506080870151915060a087015190509295509295509295565b60008251614a1f818460208701614d18565b9190910192915050565b7f416363657373436f6e74726f6c3a206163636f756e7420000000000000000000815260008351614a61816017850160208801614d18565b7001034b99036b4b9b9b4b733903937b6329607d1b6017918401918201528351614a92816028840160208801614d18565b01602801949350505050565b6001600160a01b03929092168252602082015260400190565b602080825282518282018190526000919060409081850190868401855b82811015614b1957815180516001600160a01b031685528681015187860152858101518686015260609081015115159085015260809093019290850190600101614ad4565b5091979650505050505050565b6001600160a01b0392909216825280516020808401919091528101516040808401919091520151606082015260800190565b6020815260008251806020840152614b77816040850160208701614d18565b601f01601f19169190910160400192915050565b60208082526017908201527f5265737472696374656420746f2045584348414e474552000000000000000000604082015260600190565b6020808252602c908201527f46756e6374696f6e206d7573742062652063616c6c6564207468726f7567682060408201526b19195b1959d85d1958d85b1b60a21b606082015260800190565b6020808252602c908201527f46756e6374696f6e206d7573742062652063616c6c6564207468726f7567682060408201526b6163746976652070726f787960a01b606082015260800190565b6020808252602e908201527f496e697469616c697a61626c653a20636f6e747261637420697320616c72656160408201526d191e481a5b9a5d1a585b1a5e995960921b606082015260800190565b60008219821115614cbb57614cbb614d5b565b500190565b600082614cdd57634e487b7160e01b600052601260045260246000fd5b500490565b6000816000190483118215151615614cfc57614cfc614d5b565b500290565b600082821015614d1357614d13614d5b565b500390565b60005b83811015614d33578181015183820152602001614d1b565b8381111561391e5750506000910152565b600081614d5357614d53614d5b565b506000190190565b634e487b7160e01b600052601160045260246000fd5b634e487b7160e01b600052603260045260246000fd5b634e487b7160e01b600052604160045260246000fd5b6001600160a01b0381168114610b5657600080fdfe3eb675f159e6ca6cf5de6bfbbc8c4521cfd428f5e9166e51094d5898504caf2d360894a13ba1a3210667c828492db98dca3e2076cc3735a920a3ca505d382bbc416464726573733a206c6f772d6c6576656c2064656c65676174652063616c6c206661696c6564a26469706673582212208b96ea9e3260f601dbb65b8598b8a5b761a3e9fa7742602694fab451c24e298964736f6c63430008060033496e697469616c697a61626c653a20636f6e747261637420697320616c726561",
  "devdoc": {
    "kind": "dev",
    "methods": {
      "constructor": {
        "custom:oz-upgrades-unsafe-allow": "constructor"
      },
      "getRoleAdmin(bytes32)": {
        "details": "Returns the admin role that controls `role`. See {grantRole} and {revokeRole}. To change a role's admin, use {_setRoleAdmin}."
      },
      "grantRole(bytes32,address)": {
        "details": "Grants `role` to `account`. If `account` had not been already granted `role`, emits a {RoleGranted} event. Requirements: - the caller must have ``role``'s admin role."
      },
      "hasRole(bytes32,address)": {
        "details": "Returns `true` if `account` has been granted `role`."
      },
      "proxiableUUID()": {
        "details": "Implementation of the ERC1822 {proxiableUUID} function. This returns the storage slot used by the implementation. It is used to validate that the this implementation remains valid after an upgrade. IMPORTANT: A proxy pointing at a proxiable contract should not be considered proxiable itself, because this risks bricking a proxy that upgrades to it, by delegating to itself until out of gas. Thus it is critical that this function revert if invoked through a proxy. This is guaranteed by the `notDelegated` modifier."
      },
      "renounceRole(bytes32,address)": {
        "details": "Revokes `role` from the calling account. Roles are often managed via {grantRole} and {revokeRole}: this function's purpose is to provide a mechanism for accounts to lose their privileges if they are compromised (such as when a trusted device is misplaced). If the calling account had been revoked `role`, emits a {RoleRevoked} event. Requirements: - the caller must be `account`."
      },
      "revokeRole(bytes32,address)": {
        "details": "Revokes `role` from `account`. If `account` had been granted `role`, emits a {RoleRevoked} event. Requirements: - the caller must have ``role``'s admin role."
      },
      "supportsInterface(bytes4)": {
        "details": "See {IERC165-supportsInterface}."
      },
      "upgradeTo(address)": {
        "details": "Upgrade the implementation of the proxy to `newImplementation`. Calls {_authorizeUpgrade}. Emits an {Upgraded} event."
      },
      "upgradeToAndCall(address,bytes)": {
        "details": "Upgrade the implementation of the proxy to `newImplementation`, and subsequently execute the function call encoded in `data`. Calls {_authorizeUpgrade}. Emits an {Upgraded} event."
      }
    },
    "version": 1
  },
  "userdoc": {
    "kind": "user",
    "methods": {},
    "version": 1
  },
  "storageLayout": {
    "storage": [
      {
        "astId": 808,
        "contract": "contracts/hedge/StrategyUsdPlusWmatic.sol:StrategyUsdPlusWmatic",
        "label": "_initialized",
        "offset": 0,
        "slot": "0",
        "type": "t_uint8"
      },
      {
        "astId": 811,
        "contract": "contracts/hedge/StrategyUsdPlusWmatic.sol:StrategyUsdPlusWmatic",
        "label": "_initializing",
        "offset": 1,
        "slot": "0",
        "type": "t_bool"
      },
      {
        "astId": 1466,
        "contract": "contracts/hedge/StrategyUsdPlusWmatic.sol:StrategyUsdPlusWmatic",
        "label": "__gap",
        "offset": 0,
        "slot": "1",
        "type": "t_array(t_uint256)50_storage"
      },
      {
        "astId": 1773,
        "contract": "contracts/hedge/StrategyUsdPlusWmatic.sol:StrategyUsdPlusWmatic",
        "label": "__gap",
        "offset": 0,
        "slot": "51",
        "type": "t_array(t_uint256)50_storage"
      },
      {
        "astId": 39,
        "contract": "contracts/hedge/StrategyUsdPlusWmatic.sol:StrategyUsdPlusWmatic",
        "label": "_roles",
        "offset": 0,
        "slot": "101",
        "type": "t_mapping(t_bytes32,t_struct(RoleData)34_storage)"
      },
      {
        "astId": 338,
        "contract": "contracts/hedge/StrategyUsdPlusWmatic.sol:StrategyUsdPlusWmatic",
        "label": "__gap",
        "offset": 0,
        "slot": "102",
        "type": "t_array(t_uint256)49_storage"
      },
      {
        "astId": 790,
        "contract": "contracts/hedge/StrategyUsdPlusWmatic.sol:StrategyUsdPlusWmatic",
        "label": "__gap",
        "offset": 0,
        "slot": "151",
        "type": "t_array(t_uint256)50_storage"
      },
      {
        "astId": 1078,
        "contract": "contracts/hedge/StrategyUsdPlusWmatic.sol:StrategyUsdPlusWmatic",
        "label": "__gap",
        "offset": 0,
        "slot": "201",
        "type": "t_array(t_uint256)50_storage"
      },
      {
        "astId": 36679,
        "contract": "contracts/hedge/StrategyUsdPlusWmatic.sol:StrategyUsdPlusWmatic",
        "label": "asset",
        "offset": 0,
        "slot": "251",
        "type": "t_contract(IERC20)2512"
      },
      {
        "astId": 36681,
        "contract": "contracts/hedge/StrategyUsdPlusWmatic.sol:StrategyUsdPlusWmatic",
        "label": "exchanger",
        "offset": 0,
        "slot": "252",
        "type": "t_address"
      },
      {
        "astId": 36933,
        "contract": "contracts/hedge/StrategyUsdPlusWmatic.sol:StrategyUsdPlusWmatic",
        "label": "__gap",
        "offset": 0,
        "slot": "253",
        "type": "t_array(t_uint256)49_storage"
      },
      {
        "astId": 39666,
        "contract": "contracts/hedge/StrategyUsdPlusWmatic.sol:StrategyUsdPlusWmatic",
        "label": "exchange",
        "offset": 0,
        "slot": "302",
        "type": "t_contract(IExchange)42635"
      },
      {
        "astId": 39669,
        "contract": "contracts/hedge/StrategyUsdPlusWmatic.sol:StrategyUsdPlusWmatic",
        "label": "usdPlus",
        "offset": 0,
        "slot": "303",
        "type": "t_contract(IERC20)2512"
      },
      {
        "astId": 39672,
        "contract": "contracts/hedge/StrategyUsdPlusWmatic.sol:StrategyUsdPlusWmatic",
        "label": "usdc",
        "offset": 0,
        "slot": "304",
        "type": "t_contract(IERC20)2512"
      },
      {
        "astId": 39675,
        "contract": "contracts/hedge/StrategyUsdPlusWmatic.sol:StrategyUsdPlusWmatic",
        "label": "aUsdc",
        "offset": 0,
        "slot": "305",
        "type": "t_contract(IERC20)2512"
      },
      {
        "astId": 39678,
        "contract": "contracts/hedge/StrategyUsdPlusWmatic.sol:StrategyUsdPlusWmatic",
        "label": "wmatic",
        "offset": 0,
        "slot": "306",
        "type": "t_contract(IERC20)2512"
      },
      {
        "astId": 39681,
        "contract": "contracts/hedge/StrategyUsdPlusWmatic.sol:StrategyUsdPlusWmatic",
        "label": "dyst",
        "offset": 0,
        "slot": "307",
        "type": "t_contract(IERC20)2512"
      },
      {
        "astId": 39683,
        "contract": "contracts/hedge/StrategyUsdPlusWmatic.sol:StrategyUsdPlusWmatic",
        "label": "usdcDm",
        "offset": 0,
        "slot": "308",
        "type": "t_uint256"
      },
      {
        "astId": 39685,
        "contract": "contracts/hedge/StrategyUsdPlusWmatic.sol:StrategyUsdPlusWmatic",
        "label": "wmaticDm",
        "offset": 0,
        "slot": "309",
        "type": "t_uint256"
      },
      {
        "astId": 39688,
        "contract": "contracts/hedge/StrategyUsdPlusWmatic.sol:StrategyUsdPlusWmatic",
        "label": "dystRouter",
        "offset": 0,
        "slot": "310",
        "type": "t_contract(IDystopiaRouter)32353"
      },
      {
        "astId": 39691,
        "contract": "contracts/hedge/StrategyUsdPlusWmatic.sol:StrategyUsdPlusWmatic",
        "label": "dystRewards",
        "offset": 0,
        "slot": "311",
        "type": "t_contract(IDystopiaLP)32237"
      },
      {
        "astId": 39694,
        "contract": "contracts/hedge/StrategyUsdPlusWmatic.sol:StrategyUsdPlusWmatic",
        "label": "dystVault",
        "offset": 0,
        "slot": "312",
        "type": "t_contract(IDystopiaLP)32237"
      },
      {
        "astId": 39697,
        "contract": "contracts/hedge/StrategyUsdPlusWmatic.sol:StrategyUsdPlusWmatic",
        "label": "penToken",
        "offset": 0,
        "slot": "313",
        "type": "t_contract(IERC20)2512"
      },
      {
        "astId": 39700,
        "contract": "contracts/hedge/StrategyUsdPlusWmatic.sol:StrategyUsdPlusWmatic",
        "label": "penProxy",
        "offset": 0,
        "slot": "314",
        "type": "t_contract(IUserProxy)33789"
      },
      {
        "astId": 39703,
        "contract": "contracts/hedge/StrategyUsdPlusWmatic.sol:StrategyUsdPlusWmatic",
        "label": "penLens",
        "offset": 0,
        "slot": "315",
        "type": "t_contract(IPenLens)33488"
      },
      {
        "astId": 39706,
        "contract": "contracts/hedge/StrategyUsdPlusWmatic.sol:StrategyUsdPlusWmatic",
        "label": "aavePoolAddressesProvider",
        "offset": 0,
        "slot": "316",
        "type": "t_contract(IPoolAddressesProvider)29190"
      },
      {
        "astId": 39709,
        "contract": "contracts/hedge/StrategyUsdPlusWmatic.sol:StrategyUsdPlusWmatic",
        "label": "oracleUsdc",
        "offset": 0,
        "slot": "317",
        "type": "t_contract(IPriceFeed)29198"
      },
      {
        "astId": 39712,
        "contract": "contracts/hedge/StrategyUsdPlusWmatic.sol:StrategyUsdPlusWmatic",
        "label": "oracleWmatic",
        "offset": 0,
        "slot": "318",
        "type": "t_contract(IPriceFeed)29198"
      },
      {
        "astId": 39714,
        "contract": "contracts/hedge/StrategyUsdPlusWmatic.sol:StrategyUsdPlusWmatic",
        "label": "usdcStorage",
        "offset": 0,
        "slot": "319",
        "type": "t_uint256"
      },
      {
        "astId": 39716,
        "contract": "contracts/hedge/StrategyUsdPlusWmatic.sol:StrategyUsdPlusWmatic",
        "label": "liquidationThreshold",
        "offset": 0,
        "slot": "320",
        "type": "t_uint256"
      },
      {
        "astId": 39718,
        "contract": "contracts/hedge/StrategyUsdPlusWmatic.sol:StrategyUsdPlusWmatic",
        "label": "healthFactor",
        "offset": 0,
        "slot": "321",
        "type": "t_uint256"
      },
      {
        "astId": 39720,
        "contract": "contracts/hedge/StrategyUsdPlusWmatic.sol:StrategyUsdPlusWmatic",
        "label": "balancingDelta",
        "offset": 0,
        "slot": "322",
        "type": "t_uint256"
      },
      {
        "astId": 39722,
        "contract": "contracts/hedge/StrategyUsdPlusWmatic.sol:StrategyUsdPlusWmatic",
        "label": "realHealthFactor",
        "offset": 0,
        "slot": "323",
        "type": "t_uint256"
      }
    ],
    "types": {
      "t_address": {
        "encoding": "inplace",
        "label": "address",
        "numberOfBytes": "20"
      },
      "t_array(t_uint256)49_storage": {
        "base": "t_uint256",
        "encoding": "inplace",
        "label": "uint256[49]",
        "numberOfBytes": "1568"
      },
      "t_array(t_uint256)50_storage": {
        "base": "t_uint256",
        "encoding": "inplace",
        "label": "uint256[50]",
        "numberOfBytes": "1600"
      },
      "t_bool": {
        "encoding": "inplace",
        "label": "bool",
        "numberOfBytes": "1"
      },
      "t_bytes32": {
        "encoding": "inplace",
        "label": "bytes32",
        "numberOfBytes": "32"
      },
      "t_contract(IDystopiaLP)32237": {
        "encoding": "inplace",
        "label": "contract IDystopiaLP",
        "numberOfBytes": "20"
      },
      "t_contract(IDystopiaRouter)32353": {
        "encoding": "inplace",
        "label": "contract IDystopiaRouter",
        "numberOfBytes": "20"
      },
      "t_contract(IERC20)2512": {
        "encoding": "inplace",
        "label": "contract IERC20",
        "numberOfBytes": "20"
      },
      "t_contract(IExchange)42635": {
        "encoding": "inplace",
        "label": "contract IExchange",
        "numberOfBytes": "20"
      },
      "t_contract(IPenLens)33488": {
        "encoding": "inplace",
        "label": "contract IPenLens",
        "numberOfBytes": "20"
      },
      "t_contract(IPoolAddressesProvider)29190": {
        "encoding": "inplace",
        "label": "contract IPoolAddressesProvider",
        "numberOfBytes": "20"
      },
      "t_contract(IPriceFeed)29198": {
        "encoding": "inplace",
        "label": "contract IPriceFeed",
        "numberOfBytes": "20"
      },
      "t_contract(IUserProxy)33789": {
        "encoding": "inplace",
        "label": "contract IUserProxy",
        "numberOfBytes": "20"
      },
      "t_mapping(t_address,t_bool)": {
        "encoding": "mapping",
        "key": "t_address",
        "label": "mapping(address => bool)",
        "numberOfBytes": "32",
        "value": "t_bool"
      },
      "t_mapping(t_bytes32,t_struct(RoleData)34_storage)": {
        "encoding": "mapping",
        "key": "t_bytes32",
        "label": "mapping(bytes32 => struct AccessControlUpgradeable.RoleData)",
        "numberOfBytes": "32",
        "value": "t_struct(RoleData)34_storage"
      },
      "t_struct(RoleData)34_storage": {
        "encoding": "inplace",
        "label": "struct AccessControlUpgradeable.RoleData",
        "members": [
          {
            "astId": 31,
            "contract": "contracts/hedge/StrategyUsdPlusWmatic.sol:StrategyUsdPlusWmatic",
            "label": "members",
            "offset": 0,
            "slot": "0",
            "type": "t_mapping(t_address,t_bool)"
          },
          {
            "astId": 33,
            "contract": "contracts/hedge/StrategyUsdPlusWmatic.sol:StrategyUsdPlusWmatic",
            "label": "adminRole",
            "offset": 0,
            "slot": "1",
            "type": "t_bytes32"
          }
        ],
        "numberOfBytes": "64"
      },
      "t_uint256": {
        "encoding": "inplace",
        "label": "uint256",
        "numberOfBytes": "32"
      },
      "t_uint8": {
        "encoding": "inplace",
        "label": "uint8",
        "numberOfBytes": "1"
      }
    }
  }
}