{
  "address": "0xfA8Bb3CED390eDB598000A118491d990304df550",
  "abi": [
    {
      "inputs": [],
      "stateMutability": "nonpayable",
      "type": "constructor"
    },
    {
      "anonymous": false,
      "inputs": [
        {
          "indexed": false,
          "internalType": "address",
          "name": "previousAdmin",
          "type": "address"
        },
        {
          "indexed": false,
          "internalType": "address",
          "name": "newAdmin",
          "type": "address"
        }
      ],
      "name": "AdminChanged",
      "type": "event"
    },
    {
      "anonymous": false,
      "inputs": [
        {
          "indexed": true,
          "internalType": "address",
          "name": "beacon",
          "type": "address"
        }
      ],
      "name": "BeaconUpgraded",
      "type": "event"
    },
    {
      "anonymous": false,
      "inputs": [
        {
          "indexed": false,
          "internalType": "address",
          "name": "value",
          "type": "address"
        }
      ],
      "name": "PortfolioManagerUpdated",
      "type": "event"
    },
    {
      "anonymous": false,
      "inputs": [
        {
          "indexed": false,
          "internalType": "uint256",
          "name": "amount",
          "type": "uint256"
        }
      ],
      "name": "Reward",
      "type": "event"
    },
    {
      "anonymous": false,
      "inputs": [
        {
          "indexed": true,
          "internalType": "bytes32",
          "name": "role",
          "type": "bytes32"
        },
        {
          "indexed": true,
          "internalType": "bytes32",
          "name": "previousAdminRole",
          "type": "bytes32"
        },
        {
          "indexed": true,
          "internalType": "bytes32",
          "name": "newAdminRole",
          "type": "bytes32"
        }
      ],
      "name": "RoleAdminChanged",
      "type": "event"
    },
    {
      "anonymous": false,
      "inputs": [
        {
          "indexed": true,
          "internalType": "bytes32",
          "name": "role",
          "type": "bytes32"
        },
        {
          "indexed": true,
          "internalType": "address",
          "name": "account",
          "type": "address"
        },
        {
          "indexed": true,
          "internalType": "address",
          "name": "sender",
          "type": "address"
        }
      ],
      "name": "RoleGranted",
      "type": "event"
    },
    {
      "anonymous": false,
      "inputs": [
        {
          "indexed": true,
          "internalType": "bytes32",
          "name": "role",
          "type": "bytes32"
        },
        {
          "indexed": true,
          "internalType": "address",
          "name": "account",
          "type": "address"
        },
        {
          "indexed": true,
          "internalType": "address",
          "name": "sender",
          "type": "address"
        }
      ],
      "name": "RoleRevoked",
      "type": "event"
    },
    {
      "anonymous": false,
      "inputs": [
        {
          "indexed": false,
          "internalType": "address",
          "name": "distributorBal",
          "type": "address"
        },
        {
          "indexed": false,
          "internalType": "address",
          "name": "distributorWMatic",
          "type": "address"
        },
        {
          "indexed": false,
          "internalType": "address",
          "name": "distributorTUsd",
          "type": "address"
        },
        {
          "indexed": false,
          "internalType": "uint256",
          "name": "distributionIdBal",
          "type": "uint256"
        },
        {
          "indexed": false,
          "internalType": "uint256",
          "name": "distributionIdWMatic",
          "type": "uint256"
        },
        {
          "indexed": false,
          "internalType": "uint256",
          "name": "distributionIdTUsd",
          "type": "uint256"
        },
        {
          "indexed": false,
          "internalType": "uint256",
          "name": "claimedBalanceBal",
          "type": "uint256"
        },
        {
          "indexed": false,
          "internalType": "uint256",
          "name": "claimedBalanceWMatic",
          "type": "uint256"
        },
        {
          "indexed": false,
          "internalType": "uint256",
          "name": "claimedBalanceTUsd",
          "type": "uint256"
        },
        {
          "indexed": false,
          "internalType": "bytes32[]",
          "name": "merkleProofBal",
          "type": "bytes32[]"
        },
        {
          "indexed": false,
          "internalType": "bytes32[]",
          "name": "merkleProofWMatic",
          "type": "bytes32[]"
        },
        {
          "indexed": false,
          "internalType": "bytes32[]",
          "name": "merkleProofTUsd",
          "type": "bytes32[]"
        }
      ],
      "name": "StrategyBalancerClaimingParamsUpdated",
      "type": "event"
    },
    {
      "anonymous": false,
      "inputs": [
        {
          "indexed": false,
          "internalType": "address",
          "name": "balancerVault",
          "type": "address"
        },
        {
          "indexed": false,
          "internalType": "address",
          "name": "uniswapRouter",
          "type": "address"
        },
        {
          "indexed": false,
          "internalType": "bytes32",
          "name": "balancerPoolId1",
          "type": "bytes32"
        },
        {
          "indexed": false,
          "internalType": "bytes32",
          "name": "balancerPoolId2",
          "type": "bytes32"
        },
        {
          "indexed": false,
          "internalType": "address",
          "name": "merkleOrchard",
          "type": "address"
        }
      ],
      "name": "StrategyBalancerUpdatedParams",
      "type": "event"
    },
    {
      "anonymous": false,
      "inputs": [
        {
          "indexed": false,
          "internalType": "address",
          "name": "usdcToken",
          "type": "address"
        },
        {
          "indexed": false,
          "internalType": "address",
          "name": "bpspTUsdToken",
          "type": "address"
        },
        {
          "indexed": false,
          "internalType": "address",
          "name": "balToken",
          "type": "address"
        },
        {
          "indexed": false,
          "internalType": "address",
          "name": "wmaticToken",
          "type": "address"
        },
        {
          "indexed": false,
          "internalType": "address",
          "name": "tusdToken",
          "type": "address"
        },
        {
          "indexed": false,
          "internalType": "uint256",
          "name": "usdcTokenDenominator",
          "type": "uint256"
        },
        {
          "indexed": false,
          "internalType": "uint256",
          "name": "bpspTUsdTokenDenominator",
          "type": "uint256"
        },
        {
          "indexed": false,
          "internalType": "uint256",
          "name": "balTokenDenominator",
          "type": "uint256"
        },
        {
          "indexed": false,
          "internalType": "uint256",
          "name": "wmaticTokenDenominator",
          "type": "uint256"
        },
        {
          "indexed": false,
          "internalType": "uint256",
          "name": "tusdTokenDenominator",
          "type": "uint256"
        }
      ],
      "name": "StrategyBalancerUpdatedTokens",
      "type": "event"
    },
    {
      "anonymous": false,
      "inputs": [
        {
          "indexed": true,
          "internalType": "address",
          "name": "implementation",
          "type": "address"
        }
      ],
      "name": "Upgraded",
      "type": "event"
    },
    {
      "inputs": [],
      "name": "DEFAULT_ADMIN_ROLE",
      "outputs": [
        {
          "internalType": "bytes32",
          "name": "",
          "type": "bytes32"
        }
      ],
      "stateMutability": "view",
      "type": "function"
    },
    {
      "inputs": [],
      "name": "MAX_VALUE",
      "outputs": [
        {
          "internalType": "int256",
          "name": "",
          "type": "int256"
        }
      ],
      "stateMutability": "view",
      "type": "function"
    },
    {
      "inputs": [],
      "name": "PORTFOLIO_MANAGER",
      "outputs": [
        {
          "internalType": "bytes32",
          "name": "",
          "type": "bytes32"
        }
      ],
      "stateMutability": "view",
      "type": "function"
    },
    {
      "inputs": [],
      "name": "UPGRADER_ROLE",
      "outputs": [
        {
          "internalType": "bytes32",
          "name": "",
          "type": "bytes32"
        }
      ],
      "stateMutability": "view",
      "type": "function"
    },
    {
      "inputs": [],
      "name": "balToken",
      "outputs": [
        {
          "internalType": "contract IERC20",
          "name": "",
          "type": "address"
        }
      ],
      "stateMutability": "view",
      "type": "function"
    },
    {
      "inputs": [],
      "name": "balTokenDenominator",
      "outputs": [
        {
          "internalType": "uint256",
          "name": "",
          "type": "uint256"
        }
      ],
      "stateMutability": "view",
      "type": "function"
    },
    {
      "inputs": [],
      "name": "balancerPoolId1",
      "outputs": [
        {
          "internalType": "bytes32",
          "name": "",
          "type": "bytes32"
        }
      ],
      "stateMutability": "view",
      "type": "function"
    },
    {
      "inputs": [],
      "name": "balancerPoolId2",
      "outputs": [
        {
          "internalType": "bytes32",
          "name": "",
          "type": "bytes32"
        }
      ],
      "stateMutability": "view",
      "type": "function"
    },
    {
      "inputs": [],
      "name": "balancerVault",
      "outputs": [
        {
          "internalType": "contract IVault",
          "name": "",
          "type": "address"
        }
      ],
      "stateMutability": "view",
      "type": "function"
    },
    {
      "inputs": [],
      "name": "bpspTUsdToken",
      "outputs": [
        {
          "internalType": "contract IERC20",
          "name": "",
          "type": "address"
        }
      ],
      "stateMutability": "view",
      "type": "function"
    },
    {
      "inputs": [],
      "name": "bpspTUsdTokenDenominator",
      "outputs": [
        {
          "internalType": "uint256",
          "name": "",
          "type": "uint256"
        }
      ],
      "stateMutability": "view",
      "type": "function"
    },
    {
      "inputs": [
        {
          "internalType": "address",
          "name": "_to",
          "type": "address"
        }
      ],
      "name": "claimRewards",
      "outputs": [
        {
          "internalType": "uint256",
          "name": "",
          "type": "uint256"
        }
      ],
      "stateMutability": "nonpayable",
      "type": "function"
    },
    {
      "inputs": [],
      "name": "claimedBalanceBal",
      "outputs": [
        {
          "internalType": "uint256",
          "name": "",
          "type": "uint256"
        }
      ],
      "stateMutability": "view",
      "type": "function"
    },
    {
      "inputs": [],
      "name": "claimedBalanceTUsd",
      "outputs": [
        {
          "internalType": "uint256",
          "name": "",
          "type": "uint256"
        }
      ],
      "stateMutability": "view",
      "type": "function"
    },
    {
      "inputs": [],
      "name": "claimedBalanceWMatic",
      "outputs": [
        {
          "internalType": "uint256",
          "name": "",
          "type": "uint256"
        }
      ],
      "stateMutability": "view",
      "type": "function"
    },
    {
      "inputs": [],
      "name": "distributionId",
      "outputs": [
        {
          "internalType": "uint256",
          "name": "",
          "type": "uint256"
        }
      ],
      "stateMutability": "view",
      "type": "function"
    },
    {
      "inputs": [],
      "name": "distributionIdBal",
      "outputs": [
        {
          "internalType": "uint256",
          "name": "",
          "type": "uint256"
        }
      ],
      "stateMutability": "view",
      "type": "function"
    },
    {
      "inputs": [],
      "name": "distributionIdTUsd",
      "outputs": [
        {
          "internalType": "uint256",
          "name": "",
          "type": "uint256"
        }
      ],
      "stateMutability": "view",
      "type": "function"
    },
    {
      "inputs": [],
      "name": "distributionIdWMatic",
      "outputs": [
        {
          "internalType": "uint256",
          "name": "",
          "type": "uint256"
        }
      ],
      "stateMutability": "view",
      "type": "function"
    },
    {
      "inputs": [],
      "name": "distributorBal",
      "outputs": [
        {
          "internalType": "address",
          "name": "",
          "type": "address"
        }
      ],
      "stateMutability": "view",
      "type": "function"
    },
    {
      "inputs": [],
      "name": "distributorTUsd",
      "outputs": [
        {
          "internalType": "address",
          "name": "",
          "type": "address"
        }
      ],
      "stateMutability": "view",
      "type": "function"
    },
    {
      "inputs": [],
      "name": "distributorWMatic",
      "outputs": [
        {
          "internalType": "address",
          "name": "",
          "type": "address"
        }
      ],
      "stateMutability": "view",
      "type": "function"
    },
    {
      "inputs": [
        {
          "internalType": "bytes32",
          "name": "role",
          "type": "bytes32"
        }
      ],
      "name": "getRoleAdmin",
      "outputs": [
        {
          "internalType": "bytes32",
          "name": "",
          "type": "bytes32"
        }
      ],
      "stateMutability": "view",
      "type": "function"
    },
    {
      "inputs": [
        {
          "internalType": "bytes32",
          "name": "role",
          "type": "bytes32"
        },
        {
          "internalType": "address",
          "name": "account",
          "type": "address"
        }
      ],
      "name": "grantRole",
      "outputs": [],
      "stateMutability": "nonpayable",
      "type": "function"
    },
    {
      "inputs": [
        {
          "internalType": "bytes32",
          "name": "role",
          "type": "bytes32"
        },
        {
          "internalType": "address",
          "name": "account",
          "type": "address"
        }
      ],
      "name": "hasRole",
      "outputs": [
        {
          "internalType": "bool",
          "name": "",
          "type": "bool"
        }
      ],
      "stateMutability": "view",
      "type": "function"
    },
    {
      "inputs": [],
      "name": "initialize",
      "outputs": [],
      "stateMutability": "nonpayable",
      "type": "function"
    },
    {
      "inputs": [],
      "name": "liquidationValue",
      "outputs": [
        {
          "internalType": "uint256",
          "name": "",
          "type": "uint256"
        }
      ],
      "stateMutability": "view",
      "type": "function"
    },
    {
      "inputs": [],
      "name": "merkleOrchard",
      "outputs": [
        {
          "internalType": "contract MerkleOrchard",
          "name": "",
          "type": "address"
        }
      ],
      "stateMutability": "view",
      "type": "function"
    },
    {
      "inputs": [
        {
          "internalType": "uint256",
          "name": "",
          "type": "uint256"
        }
      ],
      "name": "merkleProofBal",
      "outputs": [
        {
          "internalType": "bytes32",
          "name": "",
          "type": "bytes32"
        }
      ],
      "stateMutability": "view",
      "type": "function"
    },
    {
      "inputs": [
        {
          "internalType": "uint256",
          "name": "",
          "type": "uint256"
        }
      ],
      "name": "merkleProofTUsd",
      "outputs": [
        {
          "internalType": "bytes32",
          "name": "",
          "type": "bytes32"
        }
      ],
      "stateMutability": "view",
      "type": "function"
    },
    {
      "inputs": [
        {
          "internalType": "uint256",
          "name": "",
          "type": "uint256"
        }
      ],
      "name": "merkleProofWMatic",
      "outputs": [
        {
          "internalType": "bytes32",
          "name": "",
          "type": "bytes32"
        }
      ],
      "stateMutability": "view",
      "type": "function"
    },
    {
      "inputs": [],
      "name": "netAssetValue",
      "outputs": [
        {
          "internalType": "uint256",
          "name": "",
          "type": "uint256"
        }
      ],
      "stateMutability": "view",
      "type": "function"
    },
    {
      "inputs": [],
      "name": "portfolioManager",
      "outputs": [
        {
          "internalType": "address",
          "name": "",
          "type": "address"
        }
      ],
      "stateMutability": "view",
      "type": "function"
    },
    {
      "inputs": [
        {
          "internalType": "bytes32",
          "name": "role",
          "type": "bytes32"
        },
        {
          "internalType": "address",
          "name": "account",
          "type": "address"
        }
      ],
      "name": "renounceRole",
      "outputs": [],
      "stateMutability": "nonpayable",
      "type": "function"
    },
    {
      "inputs": [
        {
          "internalType": "bytes32",
          "name": "role",
          "type": "bytes32"
        },
        {
          "internalType": "address",
          "name": "account",
          "type": "address"
        }
      ],
      "name": "revokeRole",
      "outputs": [],
      "stateMutability": "nonpayable",
      "type": "function"
    },
    {
      "inputs": [
        {
          "internalType": "address",
          "name": "_distributorBal",
          "type": "address"
        },
        {
          "internalType": "address",
          "name": "_distributorWMatic",
          "type": "address"
        },
        {
          "internalType": "address",
          "name": "_distributorTUsd",
          "type": "address"
        },
        {
          "internalType": "uint256",
          "name": "_distributionIdBal",
          "type": "uint256"
        },
        {
          "internalType": "uint256",
          "name": "_distributionIdWMatic",
          "type": "uint256"
        },
        {
          "internalType": "uint256",
          "name": "_distributionIdTUsd",
          "type": "uint256"
        },
        {
          "internalType": "uint256",
          "name": "_claimedBalanceBal",
          "type": "uint256"
        },
        {
          "internalType": "uint256",
          "name": "_claimedBalanceWMatic",
          "type": "uint256"
        },
        {
          "internalType": "uint256",
          "name": "_claimedBalanceTUsd",
          "type": "uint256"
        },
        {
          "internalType": "bytes32[]",
          "name": "_merkleProofBal",
          "type": "bytes32[]"
        },
        {
          "internalType": "bytes32[]",
          "name": "_merkleProofWMatic",
          "type": "bytes32[]"
        },
        {
          "internalType": "bytes32[]",
          "name": "_merkleProofTUsd",
          "type": "bytes32[]"
        }
      ],
      "name": "setClaimingParams",
      "outputs": [],
      "stateMutability": "nonpayable",
      "type": "function"
    },
    {
      "inputs": [
        {
          "internalType": "address",
          "name": "_balancerVault",
          "type": "address"
        },
        {
          "internalType": "address",
          "name": "_uniswapRouter",
          "type": "address"
        },
        {
          "internalType": "bytes32",
          "name": "_balancerPoolId1",
          "type": "bytes32"
        },
        {
          "internalType": "bytes32",
          "name": "_balancerPoolId2",
          "type": "bytes32"
        },
        {
          "internalType": "address",
          "name": "_merkleOrchard",
          "type": "address"
        }
      ],
      "name": "setParams",
      "outputs": [],
      "stateMutability": "nonpayable",
      "type": "function"
    },
    {
      "inputs": [
        {
          "internalType": "address",
          "name": "_value",
          "type": "address"
        }
      ],
      "name": "setPortfolioManager",
      "outputs": [],
      "stateMutability": "nonpayable",
      "type": "function"
    },
    {
      "inputs": [
        {
          "internalType": "address",
          "name": "_usdcToken",
          "type": "address"
        },
        {
          "internalType": "address",
          "name": "_bpspTUsdToken",
          "type": "address"
        },
        {
          "internalType": "address",
          "name": "_balToken",
          "type": "address"
        },
        {
          "internalType": "address",
          "name": "_wmaticToken",
          "type": "address"
        },
        {
          "internalType": "address",
          "name": "_tusdToken",
          "type": "address"
        }
      ],
      "name": "setTokens",
      "outputs": [],
      "stateMutability": "nonpayable",
      "type": "function"
    },
    {
      "inputs": [
        {
          "internalType": "address",
          "name": "_asset",
          "type": "address"
        },
        {
          "internalType": "uint256",
          "name": "_amount",
          "type": "uint256"
        }
      ],
      "name": "stake",
      "outputs": [],
      "stateMutability": "nonpayable",
      "type": "function"
    },
    {
      "inputs": [
        {
          "internalType": "bytes4",
          "name": "interfaceId",
          "type": "bytes4"
        }
      ],
      "name": "supportsInterface",
      "outputs": [
        {
          "internalType": "bool",
          "name": "",
          "type": "bool"
        }
      ],
      "stateMutability": "view",
      "type": "function"
    },
    {
      "inputs": [],
      "name": "tusdToken",
      "outputs": [
        {
          "internalType": "contract IERC20",
          "name": "",
          "type": "address"
        }
      ],
      "stateMutability": "view",
      "type": "function"
    },
    {
      "inputs": [],
      "name": "tusdTokenDenominator",
      "outputs": [
        {
          "internalType": "uint256",
          "name": "",
          "type": "uint256"
        }
      ],
      "stateMutability": "view",
      "type": "function"
    },
    {
      "inputs": [
        {
          "internalType": "address",
          "name": "_asset",
          "type": "address"
        },
        {
          "internalType": "uint256",
          "name": "_amount",
          "type": "uint256"
        },
        {
          "internalType": "address",
          "name": "_beneficiary",
          "type": "address"
        },
        {
          "internalType": "bool",
          "name": "_targetIsZero",
          "type": "bool"
        }
      ],
      "name": "unstake",
      "outputs": [
        {
          "internalType": "uint256",
          "name": "",
          "type": "uint256"
        }
      ],
      "stateMutability": "nonpayable",
      "type": "function"
    },
    {
      "inputs": [
        {
          "internalType": "address",
          "name": "newImplementation",
          "type": "address"
        }
      ],
      "name": "upgradeTo",
      "outputs": [],
      "stateMutability": "nonpayable",
      "type": "function"
    },
    {
      "inputs": [
        {
          "internalType": "address",
          "name": "newImplementation",
          "type": "address"
        },
        {
          "internalType": "bytes",
          "name": "data",
          "type": "bytes"
        }
      ],
      "name": "upgradeToAndCall",
      "outputs": [],
      "stateMutability": "payable",
      "type": "function"
    },
    {
      "inputs": [],
      "name": "usdcToken",
      "outputs": [
        {
          "internalType": "contract IERC20",
          "name": "",
          "type": "address"
        }
      ],
      "stateMutability": "view",
      "type": "function"
    },
    {
      "inputs": [],
      "name": "usdcTokenDenominator",
      "outputs": [
        {
          "internalType": "uint256",
          "name": "",
          "type": "uint256"
        }
      ],
      "stateMutability": "view",
      "type": "function"
    },
    {
      "inputs": [],
      "name": "wmaticToken",
      "outputs": [
        {
          "internalType": "contract IERC20",
          "name": "",
          "type": "address"
        }
      ],
      "stateMutability": "view",
      "type": "function"
    },
    {
      "inputs": [],
      "name": "wmaticTokenDenominator",
      "outputs": [
        {
          "internalType": "uint256",
          "name": "",
          "type": "uint256"
        }
      ],
      "stateMutability": "view",
      "type": "function"
    }
  ],
  "solcInputHash": "46c2a208485626a127a0ba45abb72e27",
  "bytecode": "0x60a06040523060601b6080523480156200001857600080fd5b50600054610100900460ff168062000033575060005460ff16155b6200009b5760405162461bcd60e51b815260206004820152602e60248201527f496e697469616c697a61626c653a20636f6e747261637420697320616c72656160448201526d191e481a5b9a5d1a585b1a5e995960921b606482015260840160405180910390fd5b600054610100900460ff16158015620000be576000805461ffff19166101011790555b8015620000d1576000805461ff00191690555b5060805160601c614f2a6200010660003960008181610ebe01528181610efe01528181610fa90152610fe90152614f2a6000f3fe6080604052600436106102c95760003560e01c80638129fc1c11610175578063acf0bd4c116100dc578063d87b166511610095578063ef5cfb8c1161006f578063ef5cfb8c14610839578063f6f6b88114610859578063f72c0d8b14610879578063fddf5af8146108ad57600080fd5b8063d87b1665146107ea578063e2ea1ef41461080b578063ec0d38c51461082257600080fd5b8063acf0bd4c1461073b578063adc9772e1461075b578063b7c2c1771461077b578063c9c0df6114610792578063d38dc45d146107a9578063d547741f146107ca57600080fd5b8063a440b21a1161012e578063a440b21a14610678578063a5128be614610698578063a56b7489146106b8578063a69dc7f8146106d9578063abf4be01146106fa578063aca56f701461071b57600080fd5b80638129fc1c146105eb5780638a5693cd1461060057806390c634d11461061757806391d148541461062e578063a217fddf1461064e578063a3673b381461066357600080fd5b806338d5464511610234578063620b75df116101ed5780636d8998cd116101c75780636d8998cd1461058457806370629d001461059b5780637d5f5802146105b25780637e92c1c9146105d457600080fd5b8063620b75df1461052c57806362b676521461054c578063645822091461056357600080fd5b806338d5464514610480578063434aa8d9146104a15780634f1ef286146104c157806353a0ca2d146104d45780635f779344146104f55780635fb817921461050c57600080fd5b8063248a9ca311610286578063248a9ca3146103c45780632576e65a146103f45780632bb20a35146104095780632f2ff15d1461042057806336568abe146104405780633659cfe61461046057600080fd5b806301ffc9a7146102ce578063063bde241461030357806306da3f2e146103315780630fc55bfd1461034857806311eac8551461036a578063158274a5146103a3575b600080fd5b3480156102da57600080fd5b506102ee6102e936600461447e565b6108c4565b60405190151581526020015b60405180910390f35b34801561030f57600080fd5b506103236b033b2e3c9fd0803ce800000081565b6040519081526020016102fa565b34801561033d57600080fd5b506103236101965481565b34801561035457600080fd5b5061036861036336600461401b565b6108fb565b005b34801561037657600080fd5b506101915461038b906001600160a01b031681565b6040516001600160a01b0390911681526020016102fa565b3480156103af57600080fd5b5061019b5461038b906001600160a01b031681565b3480156103d057600080fd5b506103236103df366004614440565b60009081526065602052604090206001015490565b34801561040057600080fd5b50610323610d6b565b34801561041557600080fd5b5061032361019d5481565b34801561042c57600080fd5b5061036861043b366004614459565b610e0a565b34801561044c57600080fd5b5061036861045b366004614459565b610e35565b34801561046c57600080fd5b5061036861047b366004613ffe565b610eb3565b34801561048c57600080fd5b506101935461038b906001600160a01b031681565b3480156104ad57600080fd5b506103236104bc366004614440565b610f7c565b6103686104cf3660046141e9565b610f9e565b3480156104e057600080fd5b506101a05461038b906001600160a01b031681565b34801561050157600080fd5b506103236101985481565b34801561051857600080fd5b5061036861052736600461408c565b611054565b34801561053857600080fd5b5060fb5461038b906001600160a01b031681565b34801561055857600080fd5b506103236101995481565b34801561056f57600080fd5b506101a15461038b906001600160a01b031681565b34801561059057600080fd5b506103236101a45481565b3480156105a757600080fd5b506103236101a35481565b3480156105be57600080fd5b50610323600080516020614eae83398151915281565b3480156105e057600080fd5b506103236101a85481565b3480156105f757600080fd5b50610368611179565b34801561060c57600080fd5b5061032361019a5481565b34801561062357600080fd5b506103236101a75481565b34801561063a57600080fd5b506102ee610649366004614459565b6111ec565b34801561065a57600080fd5b50610323600081565b34801561066f57600080fd5b50610323611217565b34801561068457600080fd5b50610368610693366004613ffe565b6112b0565b3480156106a457600080fd5b506103236106b3366004614440565b61138e565b3480156106c457600080fd5b506101925461038b906001600160a01b031681565b3480156106e557600080fd5b506101955461038b906001600160a01b031681565b34801561070657600080fd5b506101945461038b906001600160a01b031681565b34801561072757600080fd5b50610323610736366004614440565b61139f565b34801561074757600080fd5b50610368610756366004614198565b6113b0565b34801561076757600080fd5b506103686107763660046142cf565b611598565b34801561078757600080fd5b506103236101975481565b34801561079e57600080fd5b506103236101a25481565b3480156107b557600080fd5b5061019e5461038b906001600160a01b031681565b3480156107d657600080fd5b506103686107e5366004614459565b61164e565b3480156107f657600080fd5b5061019f5461038b906001600160a01b031681565b34801561081757600080fd5b506103236101a55481565b34801561082e57600080fd5b506103236101a65481565b34801561084557600080fd5b50610323610854366004613ffe565b611674565b34801561086557600080fd5b506103236108743660046142fb565b6116f8565b34801561088557600080fd5b506103237f189ab7a9244df0848122154315af71fe140f3db0fe014031783b0946b8c9d2e381565b3480156108b957600080fd5b5061032361019c5481565b60006001600160e01b03198216637965db0b60e01b14806108f557506301ffc9a760e01b6001600160e01b03198316145b92915050565b6109066000336111ec565b61092b5760405162461bcd60e51b815260040161092290614a36565b60405180910390fd5b6001600160a01b0385166109515760405162461bcd60e51b815260040161092290614a9b565b6001600160a01b0384166109775760405162461bcd60e51b815260040161092290614a9b565b6001600160a01b03831661099d5760405162461bcd60e51b815260040161092290614a9b565b6001600160a01b0382166109c35760405162461bcd60e51b815260040161092290614a9b565b6001600160a01b0381166109e95760405162461bcd60e51b815260040161092290614a9b565b61019180546001600160a01b038088166001600160a01b031992831681179093556101928054888316908416179055610193805487831690841617905561019480548683169084161790556101958054918516919092161790556040805163313ce56760e01b8152905163313ce56791600480820192602092909190829003018186803b158015610a7957600080fd5b505afa158015610a8d573d6000803e3d6000fd5b505050506040513d601f19601f82011682018060405250810190610ab191906144c1565b610abc90600a614ce6565b61019681905550836001600160a01b031663313ce5676040518163ffffffff1660e01b815260040160206040518083038186803b158015610afc57600080fd5b505afa158015610b10573d6000803e3d6000fd5b505050506040513d601f19601f82011682018060405250810190610b3491906144c1565b610b3f90600a614ce6565b61019781905550826001600160a01b031663313ce5676040518163ffffffff1660e01b815260040160206040518083038186803b158015610b7f57600080fd5b505afa158015610b93573d6000803e3d6000fd5b505050506040513d601f19601f82011682018060405250810190610bb791906144c1565b610bc290600a614ce6565b61019881905550816001600160a01b031663313ce5676040518163ffffffff1660e01b815260040160206040518083038186803b158015610c0257600080fd5b505afa158015610c16573d6000803e3d6000fd5b505050506040513d601f19601f82011682018060405250810190610c3a91906144c1565b610c4590600a614ce6565b61019981905550806001600160a01b031663313ce5676040518163ffffffff1660e01b815260040160206040518083038186803b158015610c8557600080fd5b505afa158015610c99573d6000803e3d6000fd5b505050506040513d601f19601f82011682018060405250810190610cbd91906144c1565b610cc890600a614ce6565b61019a81905561019654610197546101985461019954604080516001600160a01b03808d168252808c166020830152808b16928201929092528189166060820152908716608082015260a081019490945260c084019290925260e08301526101008201526101208101919091527fc6bd2e093caafbb58566a0f8883461883dde4ef7923eff7d1e3793910ab22dda90610140015b60405180910390a15050505050565b610192546040516370a0823160e01b815230600482015260009182916001600160a01b03909116906370a082319060240160206040518083038186803b158015610db457600080fd5b505afa158015610dc8573d6000803e3d6000fd5b505050506040513d601f19601f82011682018060405250810190610dec91906144a8565b905080610dfb57600091505090565b610e04816118c1565b91505090565b600082815260656020526040902060010154610e268133611ad0565b610e308383611b34565b505050565b6001600160a01b0381163314610ea55760405162461bcd60e51b815260206004820152602f60248201527f416363657373436f6e74726f6c3a2063616e206f6e6c792072656e6f756e636560448201526e103937b632b9903337b91039b2b63360891b6064820152608401610922565b610eaf8282611bba565b5050565b306001600160a01b037f0000000000000000000000000000000000000000000000000000000000000000161415610efc5760405162461bcd60e51b815260040161092290614950565b7f00000000000000000000000000000000000000000000000000000000000000006001600160a01b0316610f2e611c21565b6001600160a01b031614610f545760405162461bcd60e51b81526004016109229061499c565b610f5d81611c4f565b60408051600080825260208201909252610f7991839190611c7a565b50565b6101aa8181548110610f8d57600080fd5b600091825260209091200154905081565b306001600160a01b037f0000000000000000000000000000000000000000000000000000000000000000161415610fe75760405162461bcd60e51b815260040161092290614950565b7f00000000000000000000000000000000000000000000000000000000000000006001600160a01b0316611019611c21565b6001600160a01b03161461103f5760405162461bcd60e51b81526004016109229061499c565b61104882611c4f565b610eaf82826001611c7a565b61105f6000336111ec565b61107b5760405162461bcd60e51b815260040161092290614a36565b61019f80546001600160a01b03808f166001600160a01b0319928316179092556101a080548e84169083161790556101a18054928d16929091169190911790556101a38990556101a48890556101a58790556101a68690556101a78590556101a884905582516110f3906101a9906020860190613ec1565b508151611108906101aa906020850190613ec1565b50805161111d906101ab906020840190613ec1565b507f6b1e0cd27edb411b1ae2f18c825da7253265c2e70919fa7bfb057511f3b5d1418c8c8c8c8c8c8c8c8c8c8c8c6040516111639c9b9a99989796959493929190614783565b60405180910390a1505050505050505050505050565b600054610100900460ff1680611192575060005460ff16155b6111ae5760405162461bcd60e51b8152600401610922906149e8565b600054610100900460ff161580156111d0576000805461ffff19166101011790555b6111d8611dc5565b8015610f79576000805461ff001916905550565b60009182526065602090815260408084206001600160a01b0393909316845291905290205460ff1690565b610192546040516370a0823160e01b815230600482015260009182916001600160a01b03909116906370a082319060240160206040518083038186803b15801561126057600080fd5b505afa158015611274573d6000803e3d6000fd5b505050506040513d601f19601f8201168201806040525081019061129891906144a8565b9050806112a757600091505090565b610e0481611e61565b6112bb6000336111ec565b6112d75760405162461bcd60e51b815260040161092290614a36565b6001600160a01b0381166112fd5760405162461bcd60e51b815260040161092290614a9b565b60fb5461132290600080516020614eae833981519152906001600160a01b031661164e565b61133a600080516020614eae83398151915282610e0a565b60fb80546001600160a01b0319166001600160a01b0383169081179091556040519081527ff7b449fcd5cfb7379dcd34cb69428dd9f882033b15be33d83b42d91daa28eeb79060200160405180910390a150565b6101ab8181548110610f8d57600080fd5b6101a98181548110610f8d57600080fd5b6113bb6000336111ec565b6113d75760405162461bcd60e51b815260040161092290614a36565b6001600160a01b0385166113fd5760405162461bcd60e51b815260040161092290614a9b565b6001600160a01b0384166114235760405162461bcd60e51b815260040161092290614a9b565b8261146c5760405162461bcd60e51b8152602060048201526019602482015278115b5c1d1e481c1bdbdb081a59081b9bdd08185b1b1bddd959603a1b6044820152606401610922565b816114b55760405162461bcd60e51b8152602060048201526019602482015278115b5c1d1e481c1bdbdb081a59081b9bdd08185b1b1bddd959603a1b6044820152606401610922565b6001600160a01b0381166114db5760405162461bcd60e51b815260040161092290614a9b565b61012d80546001600160a01b0319166001600160a01b03871617905561015f80546001600160a01b0319166001600160a01b03861617905561019b80546001600160a01b038781166001600160a01b0319928316811790935561019c86905561019d85905561019e805485831693168317905560408051938452908716602084015282018590526060820184905260808201527faf7734fe2ece0b2f5c94060a325a9c729e946fb6658991e31b234e4cb000d5809060a001610d5c565b6115b0600080516020614eae833981519152336111ec565b6115cc5760405162461bcd60e51b815260040161092290614919565b6040516370a0823160e01b8152306004820152610eaf9083906001600160a01b038216906370a082319060240160206040518083038186803b15801561161157600080fd5b505afa158015611625573d6000803e3d6000fd5b505050506040513d601f19601f8201168201806040525081019061164991906144a8565b61206b565b60008281526065602052604090206001015461166a8133611ad0565b610e308383611bba565b600061168e600080516020614eae833981519152336111ec565b6116aa5760405162461bcd60e51b815260040161092290614919565b60006116b5836123fc565b90507f3ac0594a85a20354f9dc74f33728416d19ce00d04a406c108cc2dcf2cecea134816040516116e891815260200190565b60405180910390a190505b919050565b6000611712600080516020614eae833981519152336111ec565b61172e5760405162461bcd60e51b815260040161092290614919565b6000821561174757611740868561275c565b90506117b6565b611752868686612b2f565b9050848110156117b65760405162461bcd60e51b815260206004820152602960248201527f52657475726e65642076616c7565206c657373207468616e2072657175657374604482015268195908185b5bdd5b9d60ba1b6064820152608401610922565b6040516370a0823160e01b81523060048201526000906001600160a01b038816906370a082319060240160206040518083038186803b1580156117f857600080fd5b505afa15801561180c573d6000803e3d6000fd5b505050506040513d601f19601f8201168201806040525081019061183091906144a8565b60405163a9059cbb60e01b81526001600160a01b038781166004830152602482018390529192509088169063a9059cbb90604401602060405180830381600087803b15801561187e57600080fd5b505af1158015611892573d6000803e3d6000fd5b505050506040513d601f19601f820116820180604052508101906118b69190614423565b509695505050505050565b60008061019260009054906101000a90046001600160a01b03166001600160a01b03166318160ddd6040518163ffffffff1660e01b815260040160206040518083038186803b15801561191357600080fd5b505afa158015611927573d6000803e3d6000fd5b505050506040513d601f19601f8201168201806040525081019061194b91906144a8565b61019b5461019c54604051631f29a8cd60e31b815260048101919091529192506000918291829182916001600160a01b03169063f94d46689060240160006040518083038186803b15801561199f57600080fd5b505afa1580156119b3573d6000803e3d6000fd5b505050506040513d6000823e601f3d908101601f191682016040526119db919081019061434e565b92509250925060005b8351811015611ac45760008689858481518110611a0357611a03614e5e565b6020026020010151611a159190614d91565b611a1f9190614c81565b6101915486519192506001600160a01b031690869084908110611a4457611a44614e5e565b60200260200101516001600160a01b031614611aa457611a9361019c546000878581518110611a7557611a75614e5e565b6020908102919091010151610191546001600160a01b031685612e9a565b611a9d9087614c69565b9550611ab1565b611aae8187614c69565b95505b5080611abc81614df7565b9150506119e4565b50929695505050505050565b611ada82826111ec565b610eaf57611af2816001600160a01b031660146132b7565b611afd8360206132b7565b604051602001611b0e92919061470e565b60408051601f198184030181529082905262461bcd60e51b825261092291600401614906565b611b3e82826111ec565b610eaf5760008281526065602090815260408083206001600160a01b03851684529091529020805460ff19166001179055611b763390565b6001600160a01b0316816001600160a01b0316837f2f8788117e7eff1d82e926ec794901d17c78024a50270940304540a733656f0d60405160405180910390a45050565b611bc482826111ec565b15610eaf5760008281526065602090815260408083206001600160a01b0385168085529252808320805460ff1916905551339285917ff6391f5c32d9c69d2a47ea670b442974b53935d1edc7fd64eb21e047a839171b9190a45050565b7f360894a13ba1a3210667c828492db98dca3e2076cc3735a920a3ca505d382bbc546001600160a01b031690565b7f189ab7a9244df0848122154315af71fe140f3db0fe014031783b0946b8c9d2e3610eaf8133611ad0565b6000611c84611c21565b9050611c8f84613453565b600083511180611c9c5750815b15611cad57611cab84846134f8565b505b7f4910fdfa16fed3260ed0e7147f7cc6da11a60208b5b9406d12a635614ffd9143805460ff16611dbe57805460ff191660011781556040516001600160a01b0383166024820152611d2c90869060440160408051601f198184030181529190526020810180516001600160e01b0316631b2ce7f360e11b1790526134f8565b50805460ff19168155611d3d611c21565b6001600160a01b0316826001600160a01b031614611db55760405162461bcd60e51b815260206004820152602f60248201527f45524331393637557067726164653a207570677261646520627265616b73206660448201526e75727468657220757067726164657360881b6064820152608401610922565b611dbe856135da565b5050505050565b600054610100900460ff1680611dde575060005460ff16155b611dfa5760405162461bcd60e51b8152600401610922906149e8565b600054610100900460ff16158015611e1c576000805461ffff19166101011790555b611e2461361a565b611e2c613689565b611e37600033611b34565b6111d87f189ab7a9244df0848122154315af71fe140f3db0fe014031783b0946b8c9d2e333611b34565b60008061019260009054906101000a90046001600160a01b03166001600160a01b03166318160ddd6040518163ffffffff1660e01b815260040160206040518083038186803b158015611eb357600080fd5b505afa158015611ec7573d6000803e3d6000fd5b505050506040513d601f19601f82011682018060405250810190611eeb91906144a8565b61019b5461019c54604051631f29a8cd60e31b815260048101919091529192506000918291829182916001600160a01b03169063f94d46689060240160006040518083038186803b158015611f3f57600080fd5b505afa158015611f53573d6000803e3d6000fd5b505050506040513d6000823e601f3d908101601f19168201604052611f7b919081019061434e565b92509250925060005b8351811015611ac45760008689858481518110611fa357611fa3614e5e565b6020026020010151611fb59190614d91565b611fbf9190614c81565b6101915486519192506001600160a01b031690869084908110611fe457611fe4614e5e565b60200260200101516001600160a01b03161461204b5761203a61019c54600161019160009054906101000a90046001600160a01b031688868151811061202c5761202c614e5e565b602002602001015185612e9a565b6120449087614c69565b9550612058565b6120558187614c69565b95505b508061206381614df7565b915050611f84565b610191546001600160a01b038381169116146120995760405162461bcd60e51b815260040161092290614a64565b6101915461019b5460405163095ea7b360e01b81526001600160a01b0391821660048201526024810184905291169063095ea7b390604401602060405180830381600087803b1580156120eb57600080fd5b505af11580156120ff573d6000803e3d6000fd5b505050506040513d601f19601f820116820180604052508101906121239190614423565b5061019b5461019c54604051631f29a8cd60e31b81526004810191909152600091829182916001600160a01b03169063f94d46689060240160006040518083038186803b15801561217357600080fd5b505afa158015612187573d6000803e3d6000fd5b505050506040513d6000823e601f3d908101601f191682016040526121af919081019061434e565b60408051600480825260a0820190925293965091945092506000919060208201608080368337505060408051600480825260a08201909252929350600092915060208201608080368337505060408051600480825260a0820190925292935060009291506020820160808036833701905050905060005b86518110156123395786818151811061224157612241614e5e565b602002602001015184828151811061225b5761225b614e5e565b6001600160a01b03928316602091820292909201015261019154885191169088908390811061228c5761228c614e5e565b60200260200101516001600160a01b031614156122e657878382815181106122b6576122b6614e5e565b602002602001018181525050878282815181106122d5576122d5614e5e565b602002602001018181525050612327565b60008382815181106122fa576122fa614e5e565b602002602001018181525050600082828151811061231a5761231a614e5e565b6020026020010181815250505b8061233181614df7565b915050612226565b5060006001905060008082848360405160200161235893929190614beb565b60408051601f19818403018152608083018252888352602083018890528282018190526000606084015261019b5461019c54925163172b958560e31b81529194506001600160a01b03169163b95cac28916123bc91903090819087906004016148d4565b600060405180830381600087803b1580156123d657600080fd5b505af11580156123ea573d6000803e3d6000fd5b50505050505050505050505050505050565b60006124066136e7565b610193546040516370a0823160e01b815230600482015260009182916001600160a01b03909116906370a082319060240160206040518083038186803b15801561244f57600080fd5b505afa158015612463573d6000803e3d6000fd5b505050506040513d601f19601f8201168201806040525081019061248791906144a8565b905080156124cb5761019d5461019354610191546000926124bb92909184916001600160a01b039081169116308088613ba4565b90506124c78184614c69565b9250505b610194546040516370a0823160e01b81523060048201526000916001600160a01b0316906370a082319060240160206040518083038186803b15801561251057600080fd5b505afa158015612524573d6000803e3d6000fd5b505050506040513d601f19601f8201168201806040525081019061254891906144a8565b9050801561258c5761019d54610194546101915460009261257c92909184916001600160a01b039081169116308088613ba4565b90506125888185614c69565b9350505b610195546040516370a0823160e01b81523060048201526000916001600160a01b0316906370a082319060240160206040518083038186803b1580156125d157600080fd5b505afa1580156125e5573d6000803e3d6000fd5b505050506040513d601f19601f8201168201806040525081019061260991906144a8565b9050801561264d5761019c54610195546101915460009261263d92909184916001600160a01b039081169116308088613ba4565b90506126498186614c69565b9450505b610191546040516370a0823160e01b81523060048201526001600160a01b039091169063a9059cbb90889083906370a082319060240160206040518083038186803b15801561269b57600080fd5b505afa1580156126af573d6000803e3d6000fd5b505050506040513d601f19601f820116820180604052508101906126d391906144a8565b6040516001600160e01b031960e085901b1681526001600160a01b0390921660048301526024820152604401602060405180830381600087803b15801561271957600080fd5b505af115801561272d573d6000803e3d6000fd5b505050506040513d601f19601f820116820180604052508101906127519190614423565b509295945050505050565b610191546000906001600160a01b0384811691161461278d5760405162461bcd60e51b815260040161092290614a64565b610192546040516370a0823160e01b81523060048201526000916001600160a01b0316906370a082319060240160206040518083038186803b1580156127d257600080fd5b505afa1580156127e6573d6000803e3d6000fd5b505050506040513d601f19601f8201168201806040525081019061280a91906144a8565b90506000612817826118c1565b61019b5461019c54604051631f29a8cd60e31b8152929350600092839283926001600160a01b039091169163f94d4668916128589160040190815260200190565b60006040518083038186803b15801561287057600080fd5b505afa158015612884573d6000803e3d6000fd5b505050506040513d6000823e601f3d908101601f191682016040526128ac919081019061434e565b60408051600480825260a0820190925293965091945092506000919060208201608080368337505060408051600480825260a0820190925292935060009291506020820160808036833701905050905060005b85518110156129e95785818151811061291a5761291a614e5e565b602002602001015183828151811061293457612934614e5e565b6001600160a01b03928316602091820292909201015261019154875191169087908390811061296557612965614e5e565b60200260200101516001600160a01b031614156129b6576064612989886063614d91565b6129939190614c81565b8282815181106129a5576129a5614e5e565b6020026020010181815250506129d7565b60008282815181106129ca576129ca614e5e565b6020026020010181815250505b806129e181614df7565b9150506128ff565b5060408051600060208201819052918101899052606081018290528190819060800160408051601f19818403018152608083018252878352602083018790528282018190526000606084015261019b5461019c549251638bdb391360e01b81529194506001600160a01b031691638bdb391391612a6f91903090819087906004016148d4565b600060405180830381600087803b158015612a8957600080fd5b505af1158015612a9d573d6000803e3d6000fd5b5050610191546040516370a0823160e01b81523060048201526001600160a01b0390911692506370a08231915060240160206040518083038186803b158015612ae557600080fd5b505afa158015612af9573d6000803e3d6000fd5b505050506040513d601f19601f82011682018060405250810190612b1d91906144a8565b9e9d5050505050505050505050505050565b610191546000906001600160a01b03858116911614612b605760405162461bcd60e51b815260040161092290614a64565b61019b5461019c54604051631f29a8cd60e31b81526004810191909152600091829182916001600160a01b03169063f94d46689060240160006040518083038186803b158015612baf57600080fd5b505afa158015612bc3573d6000803e3d6000fd5b505050506040513d6000823e601f3d908101601f19168201604052612beb919081019061434e565b60408051600480825260a0820190925293965091945092506000919060208201608080368337505060408051600480825260a0820190925292935060009291506020820160808036833701905050905060005b8551811015612d2857858181518110612c5957612c59614e5e565b6020026020010151838281518110612c7357612c73614e5e565b6001600160a01b039283166020918202929092010152610191548751911690879083908110612ca457612ca4614e5e565b60200260200101516001600160a01b03161415612cf5576064612cc88a6063614d91565b612cd29190614c81565b828281518110612ce457612ce4614e5e565b602002602001018181525050612d16565b6000828281518110612d0957612d09614e5e565b6020026020010181815250505b80612d2081614df7565b915050612c3e565b506000806000612d3a610197546118c1565b8b61019754612d499190614d91565b612d539190614c81565b60408051602081018690529081018290526060810184905290915060009060800160408051601f19818403018152608083018252888352602083018890528282018190526000606084015261019b5461019c549251638bdb391360e01b81529194506001600160a01b031691638bdb391391612dd891903090819087906004016148d4565b600060405180830381600087803b158015612df257600080fd5b505af1158015612e06573d6000803e3d6000fd5b5050610191546040516370a0823160e01b81523060048201526001600160a01b0390911692506370a08231915060240160206040518083038186803b158015612e4e57600080fd5b505afa158015612e62573d6000803e3d6000fd5b505050506040513d601f19601f82011682018060405250810190612e8691906144a8565b9a50505050505050505050505b9392505050565b604080516101208101825260008082526020820181905291810182905260608082018390526080820183905260a0820183905260c0820183905260e0820183905261010082015280866001811115612ef457612ef4614e48565b90816001811115612f0757612f07614e48565b9052506001600160a01b0385811660208301528481166040808401919091526060830185905261012d549051631f29a8cd60e31b8152600481018a90526000928392839291169063f94d46689060240160006040518083038186803b158015612f6f57600080fd5b505afa158015612f83573d6000803e3d6000fd5b505050506040513d6000823e601f3d908101601f19168201604052612fab919081019061434e565b61012d5460405163f6c0092760e01b8152600481018f9052939650919450925060009182916001600160a01b03169063f6c0092790602401604080518083038186803b158015612ffa57600080fd5b505afa15801561300e573d6000803e3d6000fd5b505050506040513d601f19601f820116820180604052508101906130329190614291565b9092509050600081600281111561304b5761304b614e48565b14156131845760008060005b87518160ff1610156130f3578c6001600160a01b0316888260ff168151811061308257613082614e5e565b60200260200101516001600160a01b031614156130a4578060ff1692506130e1565b8b6001600160a01b0316888260ff16815181106130c3576130c3614e5e565b60200260200101516001600160a01b031614156130e1578060ff1691505b806130eb81614e12565b915050613057565b5060405162f64aa560e11b81526001600160a01b038516906301ec954a90613125908b908a9087908790600401614b8d565b60206040518083038186803b15801561313d57600080fd5b505afa158015613151573d6000803e3d6000fd5b505050506040513d601f19601f8201168201806040525081019061317591906144a8565b985050505050505050506132ae565b600181600281111561319857613198614e48565b14156132a35760008060005b87518160ff161015613272578c6001600160a01b0316888260ff16815181106131cf576131cf614e5e565b60200260200101516001600160a01b0316141561320a57868160ff16815181106131fb576131fb614e5e565b60200260200101519250613260565b8b6001600160a01b0316888260ff168151811061322957613229614e5e565b60200260200101516001600160a01b0316141561326057868160ff168151811061325557613255614e5e565b602002602001015191505b8061326a81614e12565b9150506131a4565b5060405163274b044360e21b81526001600160a01b03851690639d2c110c90613125908b9086908690600401614bc6565b600096505050505050505b95945050505050565b606060006132c6836002614d91565b6132d1906002614c69565b67ffffffffffffffff8111156132e9576132e9614e74565b6040519080825280601f01601f191660200182016040528015613313576020820181803683370190505b509050600360fc1b8160008151811061332e5761332e614e5e565b60200101906001600160f81b031916908160001a905350600f60fb1b8160018151811061335d5761335d614e5e565b60200101906001600160f81b031916908160001a9053506000613381846002614d91565b61338c906001614c69565b90505b6001811115613404576f181899199a1a9b1b9c1cb0b131b232b360811b85600f16601081106133c0576133c0614e5e565b1a60f81b8282815181106133d6576133d6614e5e565b60200101906001600160f81b031916908160001a90535060049490941c936133fd81614de0565b905061338f565b508315612e935760405162461bcd60e51b815260206004820181905260248201527f537472696e67733a20686578206c656e67746820696e73756666696369656e746044820152606401610922565b803b6134b75760405162461bcd60e51b815260206004820152602d60248201527f455243313936373a206e657720696d706c656d656e746174696f6e206973206e60448201526c1bdd08184818dbdb9d1c9858dd609a1b6064820152608401610922565b7f360894a13ba1a3210667c828492db98dca3e2076cc3735a920a3ca505d382bbc80546001600160a01b0319166001600160a01b0392909216919091179055565b6060823b6135575760405162461bcd60e51b815260206004820152602660248201527f416464726573733a2064656c65676174652063616c6c20746f206e6f6e2d636f6044820152651b9d1c9858dd60d21b6064820152608401610922565b600080846001600160a01b03168460405161357291906146f2565b600060405180830381855af49150503d80600081146135ad576040519150601f19603f3d011682016040523d82523d6000602084013e6135b2565b606091505b50915091506132ae8282604051806060016040528060278152602001614ece60279139613e1e565b6135e381613453565b6040516001600160a01b038216907fbc7cd75a20ee27fd9adebab32041f755214dbc6bffa90cc0225b39da2e5c2d3b90600090a250565b600054610100900460ff1680613633575060005460ff16155b61364f5760405162461bcd60e51b8152600401610922906149e8565b600054610100900460ff16158015613671576000805461ffff19166101011790555b613679613e57565b613681613e57565b6111d8613e57565b600054610100900460ff16806136a2575060005460ff16155b6136be5760405162461bcd60e51b8152600401610922906149e8565b600054610100900460ff16158015613679576000805461ffff1916610101179055613681613e57565b6101a6546000901561370157806136fd81614e12565b9150505b6101a75415613718578061371481614e12565b9150505b6101a8541561372f578061372b81614e12565b9150505b60ff811661373a5750565b6000808260ff1667ffffffffffffffff81111561375957613759614e74565b6040519080825280602002602001820160405280156137c557816020015b6137b26040518060a00160405280600081526020016000815260200160006001600160a01b0316815260200160008152602001606081525090565b8152602001906001900390816137775790505b50905060008360ff1667ffffffffffffffff8111156137e6576137e6614e74565b60405190808252806020026020018201604052801561380f578160200160208202803683370190505b506101a6549091501561391b576040805160a0810182526101a35481526101a65460208083019190915261019f546001600160a01b03168284015260ff861660608301526101a980548451818402810184019095528085526000946080850193909291908301828280156138a257602002820191906000526020600020905b81548152602001906001019080831161388e575b5050505050815250905080838560ff16815181106138c2576138c2614e5e565b60209081029190910101526101935482516001600160a01b0390911690839060ff87169081106138f4576138f4614e5e565b6001600160a01b03909216602092830291909101909101528361391681614e12565b945050505b6101a75415613a23576040805160a0810182526101a45481526101a7546020808301919091526101a0546001600160a01b03168284015260ff861660608301526101aa80548451818402810184019095528085526000946080850193909291908301828280156139aa57602002820191906000526020600020905b815481526020019060010190808311613996575b5050505050815250905080838560ff16815181106139ca576139ca614e5e565b60209081029190910101526101945482516001600160a01b0390911690839060ff87169081106139fc576139fc614e5e565b6001600160a01b039092166020928302919091019091015283613a1e81614e12565b945050505b6101a85415613b26576040805160a0810182526101a55481526101a8546020808301919091526101a1546001600160a01b03168284015260ff861660608301526101ab8054845181840281018401909552808552600094608085019390929190830182828015613ab257602002820191906000526020600020905b815481526020019060010190808311613a9e575b5050505050815250905080838560ff1681518110613ad257613ad2614e5e565b60209081029190910101526101955482516001600160a01b0390911690839060ff8716908110613b0457613b04614e5e565b60200260200101906001600160a01b031690816001600160a01b031681525050505b61019e5460405162ad8c0560e61b81526001600160a01b0390911690632b63014090613b5a90309086908690600401614819565b600060405180830381600087803b158015613b7457600080fd5b505af1158015613b88573d6000803e3d6000fd5b505060006101a68190556101a78190556101a855505050505050565b61012d546040516370a0823160e01b81523060048201526000916001600160a01b038881169263095ea7b392919091169083906370a082319060240160206040518083038186803b158015613bf857600080fd5b505afa158015613c0c573d6000803e3d6000fd5b505050506040513d601f19601f82011682018060405250810190613c3091906144a8565b6040516001600160e01b031960e085901b1681526001600160a01b0390921660048301526024820152604401602060405180830381600087803b158015613c7657600080fd5b505af1158015613c8a573d6000803e3d6000fd5b505050506040513d601f19601f82011682018060405250810190613cae9190614423565b50613cfb6040805160c0810190915260008082526020820190815260200160006001600160a01b0316815260200160006001600160a01b0316815260200160008152602001606081525090565b88815260208101886001811115613d1457613d14614e48565b90816001811115613d2757613d27614e48565b9052506001600160a01b038781166040838101919091528782166060808501919091526080808501879052825190810183526000602082018190529181019190915287831681528683169181019190915261012d549091166352bbbe2983836b033b2e3c9fd0803ce8000000613d9f42610258614c69565b6040518563ffffffff1660e01b8152600401613dbe9493929190614ad2565b602060405180830381600087803b158015613dd857600080fd5b505af1158015613dec573d6000803e3d6000fd5b505050506040513d601f19601f82011682018060405250810190613e1091906144a8565b9a9950505050505050505050565b60608315613e2d575081612e93565b825115613e3d5782518084602001fd5b8160405162461bcd60e51b81526004016109229190614906565b600054610100900460ff1680613e70575060005460ff16155b613e8c5760405162461bcd60e51b8152600401610922906149e8565b600054610100900460ff161580156111d8576000805461ffff19166101011790558015610f79576000805461ff001916905550565b828054828255906000526020600020908101928215613efc579160200282015b82811115613efc578251825591602001919060010190613ee1565b50613f08929150613f0c565b5090565b5b80821115613f085760008155600101613f0d565b80356116f381614e8a565b600082601f830112613f3d57600080fd5b81356020613f52613f4d83614c45565b614c14565b80838252828201915082860187848660051b8901011115613f7257600080fd5b60005b85811015613f9157813584529284019290840190600101613f75565b5090979650505050505050565b600082601f830112613faf57600080fd5b81516020613fbf613f4d83614c45565b80838252828201915082860187848660051b8901011115613fdf57600080fd5b60005b85811015613f9157815184529284019290840190600101613fe2565b60006020828403121561401057600080fd5b8135612e9381614e8a565b600080600080600060a0868803121561403357600080fd5b853561403e81614e8a565b9450602086013561404e81614e8a565b9350604086013561405e81614e8a565b9250606086013561406e81614e8a565b9150608086013561407e81614e8a565b809150509295509295909350565b6000806000806000806000806000806000806101808d8f0312156140af57600080fd5b6140b88d613f21565b9b506140c660208e01613f21565b9a506140d460408e01613f21565b995060608d0135985060808d0135975060a08d0135965060c08d0135955060e08d013594506101008d0135935067ffffffffffffffff6101208e0135111561411b57600080fd5b61412c8e6101208f01358f01613f2c565b925067ffffffffffffffff6101408e0135111561414857600080fd5b6141598e6101408f01358f01613f2c565b915067ffffffffffffffff6101608e0135111561417557600080fd5b6141868e6101608f01358f01613f2c565b90509295989b509295989b509295989b565b600080600080600060a086880312156141b057600080fd5b85356141bb81614e8a565b945060208601356141cb81614e8a565b93506040860135925060608601359150608086013561407e81614e8a565b600080604083850312156141fc57600080fd5b823561420781614e8a565b915060208381013567ffffffffffffffff8082111561422557600080fd5b818601915086601f83011261423957600080fd5b81358181111561424b5761424b614e74565b61425d601f8201601f19168501614c14565b9150808252878482850101111561427357600080fd5b80848401858401376000848284010152508093505050509250929050565b600080604083850312156142a457600080fd5b82516142af81614e8a565b6020840151909250600381106142c457600080fd5b809150509250929050565b600080604083850312156142e257600080fd5b82356142ed81614e8a565b946020939093013593505050565b6000806000806080858703121561431157600080fd5b843561431c81614e8a565b935060208501359250604085013561433381614e8a565b9150606085013561434381614e9f565b939692955090935050565b60008060006060848603121561436357600080fd5b835167ffffffffffffffff8082111561437b57600080fd5b818601915086601f83011261438f57600080fd5b8151602061439f613f4d83614c45565b8083825282820191508286018b848660051b89010111156143bf57600080fd5b600096505b848710156143eb5780516143d781614e8a565b8352600196909601959183019183016143c4565b509189015191975090935050508082111561440557600080fd5b5061441286828701613f9e565b925050604084015190509250925092565b60006020828403121561443557600080fd5b8151612e9381614e9f565b60006020828403121561445257600080fd5b5035919050565b6000806040838503121561446c57600080fd5b8235915060208301356142c481614e8a565b60006020828403121561449057600080fd5b81356001600160e01b031981168114612e9357600080fd5b6000602082840312156144ba57600080fd5b5051919050565b6000602082840312156144d357600080fd5b815160ff81168114612e9357600080fd5b600081518084526020808501945080840160005b83811015614514578151875295820195908201906001016144f8565b509495945050505050565b600081518084526020808501945080840160005b838110156145145781516001600160a01b031687529582019590820190600101614533565b60008151808452614570816020860160208601614db0565b601f01601f19169290920160200192915050565b600281106145a257634e487b7160e01b600052602160045260246000fd5b9052565b8051608080845281519084018190526000916020919082019060a0860190845b818110156145eb5783516001600160a01b0316835292840192918401916001016145c6565b50508285015191508581038387015261460481836144e4565b925050506040830151848203604086015261461f8282614558565b9150506060830151614635606086018215159052565b509392505050565b600061012061464d848451614584565b6020838101516001600160a01b0316908501526040808401519061467b908601826001600160a01b03169052565b50606083015160608501526080830151608085015260a083015160a085015260c08301516146b460c08601826001600160a01b03169052565b5060e08301516146cf60e08601826001600160a01b03169052565b506101008084015182828701526146e883870182614558565b9695505050505050565b60008251614704818460208701614db0565b9190910192915050565b7f416363657373436f6e74726f6c3a206163636f756e7420000000000000000000815260008351614746816017850160208801614db0565b7001034b99036b4b9b9b4b733903937b6329607d1b6017918401918201528351614777816028840160208801614db0565b01602801949350505050565b600060018060a01b03808f168352808e166020840152808d166040840152508a60608301528960808301528860a08301528760c08301528660e0830152856101008301526101806101208301526147de6101808301866144e4565b8281036101408401526147f181866144e4565b905082810361016084015261480681856144e4565b9f9e505050505050505050505050505050565b6001600160a01b038481168252606060208084018290528551848301819052600093608092909183870190600581901b880185018a8401885b838110156148b0578a8303607f190185528151805184528681015187850152604080820151891690850152898101518a85015288015160a089850181905261489c818601836144e4565b968801969450505090850190600101614852565b505088810360408a01526148c4818b61451f565b9c9b505050505050505050505050565b8481526001600160a01b038481166020830152831660408201526080606082018190526000906146e8908301846145a6565b602081526000612e936020830184614558565b6020808252601f908201527f5265737472696374656420746f20504f5254464f4c494f5f4d414e4147455200604082015260600190565b6020808252602c908201527f46756e6374696f6e206d7573742062652063616c6c6564207468726f7567682060408201526b19195b1959d85d1958d85b1b60a21b606082015260800190565b6020808252602c908201527f46756e6374696f6e206d7573742062652063616c6c6564207468726f7567682060408201526b6163746976652070726f787960a01b606082015260800190565b6020808252602e908201527f496e697469616c697a61626c653a20636f6e747261637420697320616c72656160408201526d191e481a5b9a5d1a585b1a5e995960921b606082015260800190565b6020808252601490820152735265737472696374656420746f2061646d696e7360601b604082015260600190565b60208082526019908201527f536f6d6520746f6b656e206e6f7420636f6d70617469626c6500000000000000604082015260600190565b60208082526018908201527f5a65726f2061646472657373206e6f7420616c6c6f7765640000000000000000604082015260600190565b60e08152845160e082015260006020860151614af2610100840182614584565b5060408601516001600160a01b03908116610120840152606087015116610140830152608086015161016083015260a086015160c0610180840152614b3b6101a0840182614558565b915050614b7b602083018680516001600160a01b039081168352602080830151151590840152604080830151909116908301526060908101511515910152565b60a082019390935260c0015292915050565b608081526000614ba0608083018761463d565b8281036020840152614bb281876144e4565b604084019590955250506060015292915050565b606081526000614bd9606083018661463d565b60208301949094525060400152919050565b838152606060208201526000614c0460608301856144e4565b9050826040830152949350505050565b604051601f8201601f1916810167ffffffffffffffff81118282101715614c3d57614c3d614e74565b604052919050565b600067ffffffffffffffff821115614c5f57614c5f614e74565b5060051b60200190565b60008219821115614c7c57614c7c614e32565b500190565b600082614c9e57634e487b7160e01b600052601260045260246000fd5b500490565b600181815b80851115614cde578160001904821115614cc457614cc4614e32565b80851615614cd157918102915b93841c9390800290614ca8565b509250929050565b6000612e9360ff841683600082614cff575060016108f5565b81614d0c575060006108f5565b8160018114614d225760028114614d2c57614d48565b60019150506108f5565b60ff841115614d3d57614d3d614e32565b50506001821b6108f5565b5060208310610133831016604e8410600b8410161715614d6b575081810a6108f5565b614d758383614ca3565b8060001904821115614d8957614d89614e32565b029392505050565b6000816000190483118215151615614dab57614dab614e32565b500290565b60005b83811015614dcb578181015183820152602001614db3565b83811115614dda576000848401525b50505050565b600081614def57614def614e32565b506000190190565b6000600019821415614e0b57614e0b614e32565b5060010190565b600060ff821660ff811415614e2957614e29614e32565b60010192915050565b634e487b7160e01b600052601160045260246000fd5b634e487b7160e01b600052602160045260246000fd5b634e487b7160e01b600052603260045260246000fd5b634e487b7160e01b600052604160045260246000fd5b6001600160a01b0381168114610f7957600080fd5b8015158114610f7957600080fdfe90c2aa7471c04182221f68e80c07ab1e5946e4c63f8693e14ca40385d529f051416464726573733a206c6f772d6c6576656c2064656c65676174652063616c6c206661696c6564a2646970667358221220820738e5cc5d6f63ec34e7ae509c3ac7ddfad885a8f406ffbd30618ded91723f64736f6c63430008060033",
  "devdoc": {
    "kind": "dev",
    "methods": {
      "constructor": {
        "custom:oz-upgrades-unsafe-allow": "constructor"
      },
      "getRoleAdmin(bytes32)": {
        "details": "Returns the admin role that controls `role`. See {grantRole} and {revokeRole}. To change a role's admin, use {_setRoleAdmin}."
      },
      "grantRole(bytes32,address)": {
        "details": "Grants `role` to `account`. If `account` had not been already granted `role`, emits a {RoleGranted} event. Requirements: - the caller must have ``role``'s admin role."
      },
      "hasRole(bytes32,address)": {
        "details": "Returns `true` if `account` has been granted `role`."
      },
      "renounceRole(bytes32,address)": {
        "details": "Revokes `role` from the calling account. Roles are often managed via {grantRole} and {revokeRole}: this function's purpose is to provide a mechanism for accounts to lose their privileges if they are compromised (such as when a trusted device is misplaced). If the calling account had been revoked `role`, emits a {RoleRevoked} event. Requirements: - the caller must be `account`."
      },
      "revokeRole(bytes32,address)": {
        "details": "Revokes `role` from `account`. If `account` had been granted `role`, emits a {RoleRevoked} event. Requirements: - the caller must have ``role``'s admin role."
      },
      "supportsInterface(bytes4)": {
        "details": "See {IERC165-supportsInterface}."
      },
      "upgradeTo(address)": {
        "details": "Upgrade the implementation of the proxy to `newImplementation`. Calls {_authorizeUpgrade}. Emits an {Upgraded} event."
      },
      "upgradeToAndCall(address,bytes)": {
        "details": "Upgrade the implementation of the proxy to `newImplementation`, and subsequently execute the function call encoded in `data`. Calls {_authorizeUpgrade}. Emits an {Upgraded} event."
      }
    },
    "version": 1
  },
  "userdoc": {
    "kind": "user",
    "methods": {},
    "version": 1
  },
  "storageLayout": {
    "storage": [
      {
        "astId": 823,
        "contract": "contracts/strategies/StrategyBalancer.sol:StrategyBalancer",
        "label": "_initialized",
        "offset": 0,
        "slot": "0",
        "type": "t_bool"
      },
      {
        "astId": 826,
        "contract": "contracts/strategies/StrategyBalancer.sol:StrategyBalancer",
        "label": "_initializing",
        "offset": 1,
        "slot": "0",
        "type": "t_bool"
      },
      {
        "astId": 2943,
        "contract": "contracts/strategies/StrategyBalancer.sol:StrategyBalancer",
        "label": "__gap",
        "offset": 0,
        "slot": "1",
        "type": "t_array(t_uint256)50_storage"
      },
      {
        "astId": 3865,
        "contract": "contracts/strategies/StrategyBalancer.sol:StrategyBalancer",
        "label": "__gap",
        "offset": 0,
        "slot": "51",
        "type": "t_array(t_uint256)50_storage"
      },
      {
        "astId": 48,
        "contract": "contracts/strategies/StrategyBalancer.sol:StrategyBalancer",
        "label": "_roles",
        "offset": 0,
        "slot": "101",
        "type": "t_mapping(t_bytes32,t_struct(RoleData)43_storage)"
      },
      {
        "astId": 335,
        "contract": "contracts/strategies/StrategyBalancer.sol:StrategyBalancer",
        "label": "__gap",
        "offset": 0,
        "slot": "102",
        "type": "t_array(t_uint256)49_storage"
      },
      {
        "astId": 806,
        "contract": "contracts/strategies/StrategyBalancer.sol:StrategyBalancer",
        "label": "__gap",
        "offset": 0,
        "slot": "151",
        "type": "t_array(t_uint256)50_storage"
      },
      {
        "astId": 973,
        "contract": "contracts/strategies/StrategyBalancer.sol:StrategyBalancer",
        "label": "__gap",
        "offset": 0,
        "slot": "201",
        "type": "t_array(t_uint256)50_storage"
      },
      {
        "astId": 22142,
        "contract": "contracts/strategies/StrategyBalancer.sol:StrategyBalancer",
        "label": "portfolioManager",
        "offset": 0,
        "slot": "251",
        "type": "t_address"
      },
      {
        "astId": 22411,
        "contract": "contracts/strategies/StrategyBalancer.sol:StrategyBalancer",
        "label": "__gap",
        "offset": 0,
        "slot": "252",
        "type": "t_array(t_uint256)49_storage"
      },
      {
        "astId": 15693,
        "contract": "contracts/strategies/StrategyBalancer.sol:StrategyBalancer",
        "label": "balancerVault",
        "offset": 0,
        "slot": "301",
        "type": "t_contract(IVault)18362"
      },
      {
        "astId": 16271,
        "contract": "contracts/strategies/StrategyBalancer.sol:StrategyBalancer",
        "label": "__gap",
        "offset": 0,
        "slot": "302",
        "type": "t_array(t_uint256)49_storage"
      },
      {
        "astId": 16279,
        "contract": "contracts/strategies/StrategyBalancer.sol:StrategyBalancer",
        "label": "uniswapRouter",
        "offset": 0,
        "slot": "351",
        "type": "t_contract(IUniswapV2Router02)19996"
      },
      {
        "astId": 16415,
        "contract": "contracts/strategies/StrategyBalancer.sol:StrategyBalancer",
        "label": "__gap",
        "offset": 0,
        "slot": "352",
        "type": "t_array(t_uint256)49_storage"
      },
      {
        "astId": 22761,
        "contract": "contracts/strategies/StrategyBalancer.sol:StrategyBalancer",
        "label": "usdcToken",
        "offset": 0,
        "slot": "401",
        "type": "t_contract(IERC20)8922"
      },
      {
        "astId": 22764,
        "contract": "contracts/strategies/StrategyBalancer.sol:StrategyBalancer",
        "label": "bpspTUsdToken",
        "offset": 0,
        "slot": "402",
        "type": "t_contract(IERC20)8922"
      },
      {
        "astId": 22767,
        "contract": "contracts/strategies/StrategyBalancer.sol:StrategyBalancer",
        "label": "balToken",
        "offset": 0,
        "slot": "403",
        "type": "t_contract(IERC20)8922"
      },
      {
        "astId": 22770,
        "contract": "contracts/strategies/StrategyBalancer.sol:StrategyBalancer",
        "label": "wmaticToken",
        "offset": 0,
        "slot": "404",
        "type": "t_contract(IERC20)8922"
      },
      {
        "astId": 22773,
        "contract": "contracts/strategies/StrategyBalancer.sol:StrategyBalancer",
        "label": "tusdToken",
        "offset": 0,
        "slot": "405",
        "type": "t_contract(IERC20)8922"
      },
      {
        "astId": 22775,
        "contract": "contracts/strategies/StrategyBalancer.sol:StrategyBalancer",
        "label": "usdcTokenDenominator",
        "offset": 0,
        "slot": "406",
        "type": "t_uint256"
      },
      {
        "astId": 22777,
        "contract": "contracts/strategies/StrategyBalancer.sol:StrategyBalancer",
        "label": "bpspTUsdTokenDenominator",
        "offset": 0,
        "slot": "407",
        "type": "t_uint256"
      },
      {
        "astId": 22779,
        "contract": "contracts/strategies/StrategyBalancer.sol:StrategyBalancer",
        "label": "balTokenDenominator",
        "offset": 0,
        "slot": "408",
        "type": "t_uint256"
      },
      {
        "astId": 22781,
        "contract": "contracts/strategies/StrategyBalancer.sol:StrategyBalancer",
        "label": "wmaticTokenDenominator",
        "offset": 0,
        "slot": "409",
        "type": "t_uint256"
      },
      {
        "astId": 22783,
        "contract": "contracts/strategies/StrategyBalancer.sol:StrategyBalancer",
        "label": "tusdTokenDenominator",
        "offset": 0,
        "slot": "410",
        "type": "t_uint256"
      },
      {
        "astId": 22786,
        "contract": "contracts/strategies/StrategyBalancer.sol:StrategyBalancer",
        "label": "balancerVault",
        "offset": 0,
        "slot": "411",
        "type": "t_contract(IVault)18362"
      },
      {
        "astId": 22788,
        "contract": "contracts/strategies/StrategyBalancer.sol:StrategyBalancer",
        "label": "balancerPoolId1",
        "offset": 0,
        "slot": "412",
        "type": "t_bytes32"
      },
      {
        "astId": 22790,
        "contract": "contracts/strategies/StrategyBalancer.sol:StrategyBalancer",
        "label": "balancerPoolId2",
        "offset": 0,
        "slot": "413",
        "type": "t_bytes32"
      },
      {
        "astId": 22793,
        "contract": "contracts/strategies/StrategyBalancer.sol:StrategyBalancer",
        "label": "merkleOrchard",
        "offset": 0,
        "slot": "414",
        "type": "t_contract(MerkleOrchard)17921"
      },
      {
        "astId": 22795,
        "contract": "contracts/strategies/StrategyBalancer.sol:StrategyBalancer",
        "label": "distributorBal",
        "offset": 0,
        "slot": "415",
        "type": "t_address"
      },
      {
        "astId": 22797,
        "contract": "contracts/strategies/StrategyBalancer.sol:StrategyBalancer",
        "label": "distributorWMatic",
        "offset": 0,
        "slot": "416",
        "type": "t_address"
      },
      {
        "astId": 22799,
        "contract": "contracts/strategies/StrategyBalancer.sol:StrategyBalancer",
        "label": "distributorTUsd",
        "offset": 0,
        "slot": "417",
        "type": "t_address"
      },
      {
        "astId": 22801,
        "contract": "contracts/strategies/StrategyBalancer.sol:StrategyBalancer",
        "label": "distributionId",
        "offset": 0,
        "slot": "418",
        "type": "t_uint256"
      },
      {
        "astId": 22803,
        "contract": "contracts/strategies/StrategyBalancer.sol:StrategyBalancer",
        "label": "distributionIdBal",
        "offset": 0,
        "slot": "419",
        "type": "t_uint256"
      },
      {
        "astId": 22805,
        "contract": "contracts/strategies/StrategyBalancer.sol:StrategyBalancer",
        "label": "distributionIdWMatic",
        "offset": 0,
        "slot": "420",
        "type": "t_uint256"
      },
      {
        "astId": 22807,
        "contract": "contracts/strategies/StrategyBalancer.sol:StrategyBalancer",
        "label": "distributionIdTUsd",
        "offset": 0,
        "slot": "421",
        "type": "t_uint256"
      },
      {
        "astId": 22809,
        "contract": "contracts/strategies/StrategyBalancer.sol:StrategyBalancer",
        "label": "claimedBalanceBal",
        "offset": 0,
        "slot": "422",
        "type": "t_uint256"
      },
      {
        "astId": 22811,
        "contract": "contracts/strategies/StrategyBalancer.sol:StrategyBalancer",
        "label": "claimedBalanceWMatic",
        "offset": 0,
        "slot": "423",
        "type": "t_uint256"
      },
      {
        "astId": 22813,
        "contract": "contracts/strategies/StrategyBalancer.sol:StrategyBalancer",
        "label": "claimedBalanceTUsd",
        "offset": 0,
        "slot": "424",
        "type": "t_uint256"
      },
      {
        "astId": 22816,
        "contract": "contracts/strategies/StrategyBalancer.sol:StrategyBalancer",
        "label": "merkleProofBal",
        "offset": 0,
        "slot": "425",
        "type": "t_array(t_bytes32)dyn_storage"
      },
      {
        "astId": 22819,
        "contract": "contracts/strategies/StrategyBalancer.sol:StrategyBalancer",
        "label": "merkleProofWMatic",
        "offset": 0,
        "slot": "426",
        "type": "t_array(t_bytes32)dyn_storage"
      },
      {
        "astId": 22822,
        "contract": "contracts/strategies/StrategyBalancer.sol:StrategyBalancer",
        "label": "merkleProofTUsd",
        "offset": 0,
        "slot": "427",
        "type": "t_array(t_bytes32)dyn_storage"
      }
    ],
    "types": {
      "t_address": {
        "encoding": "inplace",
        "label": "address",
        "numberOfBytes": "20"
      },
      "t_array(t_bytes32)dyn_storage": {
        "base": "t_bytes32",
        "encoding": "dynamic_array",
        "label": "bytes32[]",
        "numberOfBytes": "32"
      },
      "t_array(t_uint256)49_storage": {
        "base": "t_uint256",
        "encoding": "inplace",
        "label": "uint256[49]",
        "numberOfBytes": "1568"
      },
      "t_array(t_uint256)50_storage": {
        "base": "t_uint256",
        "encoding": "inplace",
        "label": "uint256[50]",
        "numberOfBytes": "1600"
      },
      "t_bool": {
        "encoding": "inplace",
        "label": "bool",
        "numberOfBytes": "1"
      },
      "t_bytes32": {
        "encoding": "inplace",
        "label": "bytes32",
        "numberOfBytes": "32"
      },
      "t_contract(IERC20)8922": {
        "encoding": "inplace",
        "label": "contract IERC20",
        "numberOfBytes": "20"
      },
      "t_contract(IUniswapV2Router02)19996": {
        "encoding": "inplace",
        "label": "contract IUniswapV2Router02",
        "numberOfBytes": "20"
      },
      "t_contract(IVault)18362": {
        "encoding": "inplace",
        "label": "contract IVault",
        "numberOfBytes": "20"
      },
      "t_contract(MerkleOrchard)17921": {
        "encoding": "inplace",
        "label": "contract MerkleOrchard",
        "numberOfBytes": "20"
      },
      "t_mapping(t_address,t_bool)": {
        "encoding": "mapping",
        "key": "t_address",
        "label": "mapping(address => bool)",
        "numberOfBytes": "32",
        "value": "t_bool"
      },
      "t_mapping(t_bytes32,t_struct(RoleData)43_storage)": {
        "encoding": "mapping",
        "key": "t_bytes32",
        "label": "mapping(bytes32 => struct AccessControlUpgradeable.RoleData)",
        "numberOfBytes": "32",
        "value": "t_struct(RoleData)43_storage"
      },
      "t_struct(RoleData)43_storage": {
        "encoding": "inplace",
        "label": "struct AccessControlUpgradeable.RoleData",
        "members": [
          {
            "astId": 40,
            "contract": "contracts/strategies/StrategyBalancer.sol:StrategyBalancer",
            "label": "members",
            "offset": 0,
            "slot": "0",
            "type": "t_mapping(t_address,t_bool)"
          },
          {
            "astId": 42,
            "contract": "contracts/strategies/StrategyBalancer.sol:StrategyBalancer",
            "label": "adminRole",
            "offset": 0,
            "slot": "1",
            "type": "t_bytes32"
          }
        ],
        "numberOfBytes": "64"
      },
      "t_uint256": {
        "encoding": "inplace",
        "label": "uint256",
        "numberOfBytes": "32"
      }
    }
  }
}