{
  "address": "0xEb7f1622980bfF682635E35076bd3115814254A7",
  "abi": [
    {
      "inputs": [],
      "stateMutability": "nonpayable",
      "type": "constructor"
    },
    {
      "anonymous": false,
      "inputs": [
        {
          "indexed": false,
          "internalType": "address",
          "name": "previousAdmin",
          "type": "address"
        },
        {
          "indexed": false,
          "internalType": "address",
          "name": "newAdmin",
          "type": "address"
        }
      ],
      "name": "AdminChanged",
      "type": "event"
    },
    {
      "anonymous": false,
      "inputs": [
        {
          "indexed": false,
          "internalType": "uint256",
          "name": "healthFactor",
          "type": "uint256"
        }
      ],
      "name": "Balance",
      "type": "event"
    },
    {
      "anonymous": false,
      "inputs": [
        {
          "indexed": true,
          "internalType": "address",
          "name": "beacon",
          "type": "address"
        }
      ],
      "name": "BeaconUpgraded",
      "type": "event"
    },
    {
      "anonymous": false,
      "inputs": [
        {
          "indexed": false,
          "internalType": "uint8",
          "name": "version",
          "type": "uint8"
        }
      ],
      "name": "Initialized",
      "type": "event"
    },
    {
      "anonymous": false,
      "inputs": [
        {
          "indexed": false,
          "internalType": "uint256",
          "name": "amount",
          "type": "uint256"
        }
      ],
      "name": "Reward",
      "type": "event"
    },
    {
      "anonymous": false,
      "inputs": [
        {
          "indexed": true,
          "internalType": "bytes32",
          "name": "role",
          "type": "bytes32"
        },
        {
          "indexed": true,
          "internalType": "bytes32",
          "name": "previousAdminRole",
          "type": "bytes32"
        },
        {
          "indexed": true,
          "internalType": "bytes32",
          "name": "newAdminRole",
          "type": "bytes32"
        }
      ],
      "name": "RoleAdminChanged",
      "type": "event"
    },
    {
      "anonymous": false,
      "inputs": [
        {
          "indexed": true,
          "internalType": "bytes32",
          "name": "role",
          "type": "bytes32"
        },
        {
          "indexed": true,
          "internalType": "address",
          "name": "account",
          "type": "address"
        },
        {
          "indexed": true,
          "internalType": "address",
          "name": "sender",
          "type": "address"
        }
      ],
      "name": "RoleGranted",
      "type": "event"
    },
    {
      "anonymous": false,
      "inputs": [
        {
          "indexed": true,
          "internalType": "bytes32",
          "name": "role",
          "type": "bytes32"
        },
        {
          "indexed": true,
          "internalType": "address",
          "name": "account",
          "type": "address"
        },
        {
          "indexed": true,
          "internalType": "address",
          "name": "sender",
          "type": "address"
        }
      ],
      "name": "RoleRevoked",
      "type": "event"
    },
    {
      "anonymous": false,
      "inputs": [
        {
          "indexed": false,
          "internalType": "uint256",
          "name": "healthFactor",
          "type": "uint256"
        }
      ],
      "name": "SetHealthFactor",
      "type": "event"
    },
    {
      "anonymous": false,
      "inputs": [
        {
          "indexed": false,
          "internalType": "uint256",
          "name": "amount",
          "type": "uint256"
        }
      ],
      "name": "Stake",
      "type": "event"
    },
    {
      "anonymous": false,
      "inputs": [
        {
          "indexed": false,
          "internalType": "uint256",
          "name": "amount",
          "type": "uint256"
        },
        {
          "indexed": false,
          "internalType": "uint256",
          "name": "amountReceived",
          "type": "uint256"
        }
      ],
      "name": "Unstake",
      "type": "event"
    },
    {
      "anonymous": false,
      "inputs": [
        {
          "indexed": true,
          "internalType": "address",
          "name": "implementation",
          "type": "address"
        }
      ],
      "name": "Upgraded",
      "type": "event"
    },
    {
      "inputs": [],
      "name": "BASIS_POINTS_FOR_SLIPPAGE",
      "outputs": [
        {
          "internalType": "uint256",
          "name": "",
          "type": "uint256"
        }
      ],
      "stateMutability": "view",
      "type": "function"
    },
    {
      "inputs": [],
      "name": "BASIS_POINTS_FOR_STORAGE",
      "outputs": [
        {
          "internalType": "uint256",
          "name": "",
          "type": "uint256"
        }
      ],
      "stateMutability": "view",
      "type": "function"
    },
    {
      "inputs": [],
      "name": "DEFAULT_ADMIN_ROLE",
      "outputs": [
        {
          "internalType": "bytes32",
          "name": "",
          "type": "bytes32"
        }
      ],
      "stateMutability": "view",
      "type": "function"
    },
    {
      "inputs": [],
      "name": "EXCHANGER",
      "outputs": [
        {
          "internalType": "bytes32",
          "name": "",
          "type": "bytes32"
        }
      ],
      "stateMutability": "view",
      "type": "function"
    },
    {
      "inputs": [],
      "name": "E_MODE_CATEGORY_ID",
      "outputs": [
        {
          "internalType": "uint8",
          "name": "",
          "type": "uint8"
        }
      ],
      "stateMutability": "view",
      "type": "function"
    },
    {
      "inputs": [],
      "name": "INTEREST_RATE_MODE",
      "outputs": [
        {
          "internalType": "uint256",
          "name": "",
          "type": "uint256"
        }
      ],
      "stateMutability": "view",
      "type": "function"
    },
    {
      "inputs": [],
      "name": "MAX_UINT_VALUE",
      "outputs": [
        {
          "internalType": "uint256",
          "name": "",
          "type": "uint256"
        }
      ],
      "stateMutability": "view",
      "type": "function"
    },
    {
      "inputs": [],
      "name": "REFERRAL_CODE",
      "outputs": [
        {
          "internalType": "uint16",
          "name": "",
          "type": "uint16"
        }
      ],
      "stateMutability": "view",
      "type": "function"
    },
    {
      "inputs": [],
      "name": "UPGRADER_ROLE",
      "outputs": [
        {
          "internalType": "bytes32",
          "name": "",
          "type": "bytes32"
        }
      ],
      "stateMutability": "view",
      "type": "function"
    },
    {
      "inputs": [],
      "name": "_aavePool",
      "outputs": [
        {
          "internalType": "contract IPool",
          "name": "aavePool",
          "type": "address"
        }
      ],
      "stateMutability": "nonpayable",
      "type": "function"
    },
    {
      "inputs": [
        {
          "internalType": "uint256",
          "name": "balanceLp",
          "type": "uint256"
        }
      ],
      "name": "_getLiquidity",
      "outputs": [
        {
          "internalType": "uint256",
          "name": "",
          "type": "uint256"
        },
        {
          "internalType": "uint256",
          "name": "",
          "type": "uint256"
        }
      ],
      "stateMutability": "view",
      "type": "function"
    },
    {
      "inputs": [
        {
          "internalType": "uint256",
          "name": "token0Borrow",
          "type": "uint256"
        }
      ],
      "name": "_getLiquidityForToken",
      "outputs": [
        {
          "internalType": "uint256",
          "name": "",
          "type": "uint256"
        }
      ],
      "stateMutability": "view",
      "type": "function"
    },
    {
      "inputs": [],
      "name": "aUsdc",
      "outputs": [
        {
          "internalType": "contract IERC20",
          "name": "",
          "type": "address"
        }
      ],
      "stateMutability": "view",
      "type": "function"
    },
    {
      "inputs": [],
      "name": "aavePoolAddressesProvider",
      "outputs": [
        {
          "internalType": "contract IPoolAddressesProvider",
          "name": "",
          "type": "address"
        }
      ],
      "stateMutability": "view",
      "type": "function"
    },
    {
      "inputs": [],
      "name": "asset",
      "outputs": [
        {
          "internalType": "contract IERC20",
          "name": "",
          "type": "address"
        }
      ],
      "stateMutability": "view",
      "type": "function"
    },
    {
      "inputs": [],
      "name": "balance",
      "outputs": [],
      "stateMutability": "nonpayable",
      "type": "function"
    },
    {
      "inputs": [],
      "name": "balancingDelta",
      "outputs": [
        {
          "internalType": "uint256",
          "name": "",
          "type": "uint256"
        }
      ],
      "stateMutability": "view",
      "type": "function"
    },
    {
      "inputs": [
        {
          "internalType": "address",
          "name": "_to",
          "type": "address"
        }
      ],
      "name": "claimRewards",
      "outputs": [
        {
          "internalType": "uint256",
          "name": "",
          "type": "uint256"
        }
      ],
      "stateMutability": "nonpayable",
      "type": "function"
    },
    {
      "inputs": [],
      "name": "dyst",
      "outputs": [
        {
          "internalType": "contract IERC20",
          "name": "",
          "type": "address"
        }
      ],
      "stateMutability": "view",
      "type": "function"
    },
    {
      "inputs": [],
      "name": "dystRewards",
      "outputs": [
        {
          "internalType": "contract IDystopiaLP",
          "name": "",
          "type": "address"
        }
      ],
      "stateMutability": "view",
      "type": "function"
    },
    {
      "inputs": [],
      "name": "dystRouter",
      "outputs": [
        {
          "internalType": "contract IDystopiaRouter",
          "name": "",
          "type": "address"
        }
      ],
      "stateMutability": "view",
      "type": "function"
    },
    {
      "inputs": [],
      "name": "dystVault",
      "outputs": [
        {
          "internalType": "contract IDystopiaLP",
          "name": "",
          "type": "address"
        }
      ],
      "stateMutability": "view",
      "type": "function"
    },
    {
      "inputs": [],
      "name": "exchange",
      "outputs": [
        {
          "internalType": "contract IExchange",
          "name": "",
          "type": "address"
        }
      ],
      "stateMutability": "view",
      "type": "function"
    },
    {
      "inputs": [],
      "name": "exchanger",
      "outputs": [
        {
          "internalType": "address",
          "name": "",
          "type": "address"
        }
      ],
      "stateMutability": "view",
      "type": "function"
    },
    {
      "inputs": [
        {
          "internalType": "bytes32",
          "name": "role",
          "type": "bytes32"
        }
      ],
      "name": "getRoleAdmin",
      "outputs": [
        {
          "internalType": "bytes32",
          "name": "",
          "type": "bytes32"
        }
      ],
      "stateMutability": "view",
      "type": "function"
    },
    {
      "inputs": [
        {
          "internalType": "bytes32",
          "name": "role",
          "type": "bytes32"
        },
        {
          "internalType": "address",
          "name": "account",
          "type": "address"
        }
      ],
      "name": "grantRole",
      "outputs": [],
      "stateMutability": "nonpayable",
      "type": "function"
    },
    {
      "inputs": [
        {
          "internalType": "bytes32",
          "name": "role",
          "type": "bytes32"
        },
        {
          "internalType": "address",
          "name": "account",
          "type": "address"
        }
      ],
      "name": "hasRole",
      "outputs": [
        {
          "internalType": "bool",
          "name": "",
          "type": "bool"
        }
      ],
      "stateMutability": "view",
      "type": "function"
    },
    {
      "inputs": [],
      "name": "healthFactor",
      "outputs": [
        {
          "internalType": "uint256",
          "name": "",
          "type": "uint256"
        }
      ],
      "stateMutability": "view",
      "type": "function"
    },
    {
      "inputs": [],
      "name": "initialize",
      "outputs": [],
      "stateMutability": "nonpayable",
      "type": "function"
    },
    {
      "inputs": [],
      "name": "liquidationThreshold",
      "outputs": [
        {
          "internalType": "uint256",
          "name": "",
          "type": "uint256"
        }
      ],
      "stateMutability": "view",
      "type": "function"
    },
    {
      "inputs": [],
      "name": "netAssetValue",
      "outputs": [
        {
          "internalType": "uint256",
          "name": "",
          "type": "uint256"
        }
      ],
      "stateMutability": "view",
      "type": "function"
    },
    {
      "inputs": [],
      "name": "oracleUsdc",
      "outputs": [
        {
          "internalType": "contract IPriceFeed",
          "name": "",
          "type": "address"
        }
      ],
      "stateMutability": "view",
      "type": "function"
    },
    {
      "inputs": [],
      "name": "oracleWmatic",
      "outputs": [
        {
          "internalType": "contract IPriceFeed",
          "name": "",
          "type": "address"
        }
      ],
      "stateMutability": "view",
      "type": "function"
    },
    {
      "inputs": [],
      "name": "penLens",
      "outputs": [
        {
          "internalType": "contract IPenLens",
          "name": "",
          "type": "address"
        }
      ],
      "stateMutability": "view",
      "type": "function"
    },
    {
      "inputs": [],
      "name": "penProxy",
      "outputs": [
        {
          "internalType": "contract IUserProxy",
          "name": "",
          "type": "address"
        }
      ],
      "stateMutability": "view",
      "type": "function"
    },
    {
      "inputs": [],
      "name": "penToken",
      "outputs": [
        {
          "internalType": "contract IERC20",
          "name": "",
          "type": "address"
        }
      ],
      "stateMutability": "view",
      "type": "function"
    },
    {
      "inputs": [],
      "name": "proxiableUUID",
      "outputs": [
        {
          "internalType": "bytes32",
          "name": "",
          "type": "bytes32"
        }
      ],
      "stateMutability": "view",
      "type": "function"
    },
    {
      "inputs": [],
      "name": "realHealthFactor",
      "outputs": [
        {
          "internalType": "uint256",
          "name": "",
          "type": "uint256"
        }
      ],
      "stateMutability": "view",
      "type": "function"
    },
    {
      "inputs": [
        {
          "internalType": "bytes32",
          "name": "role",
          "type": "bytes32"
        },
        {
          "internalType": "address",
          "name": "account",
          "type": "address"
        }
      ],
      "name": "renounceRole",
      "outputs": [],
      "stateMutability": "nonpayable",
      "type": "function"
    },
    {
      "inputs": [
        {
          "internalType": "bytes32",
          "name": "role",
          "type": "bytes32"
        },
        {
          "internalType": "address",
          "name": "account",
          "type": "address"
        }
      ],
      "name": "revokeRole",
      "outputs": [],
      "stateMutability": "nonpayable",
      "type": "function"
    },
    {
      "inputs": [
        {
          "internalType": "address",
          "name": "_aavePoolAddressesProvider",
          "type": "address"
        },
        {
          "internalType": "address",
          "name": "_oracleUsdc",
          "type": "address"
        },
        {
          "internalType": "address",
          "name": "_oracleWmatic",
          "type": "address"
        },
        {
          "internalType": "uint256",
          "name": "_liquidationThreshold",
          "type": "uint256"
        },
        {
          "internalType": "uint256",
          "name": "_healthFactor",
          "type": "uint256"
        },
        {
          "internalType": "uint256",
          "name": "_balancingDelta",
          "type": "uint256"
        }
      ],
      "name": "setAaveParams",
      "outputs": [],
      "stateMutability": "nonpayable",
      "type": "function"
    },
    {
      "inputs": [
        {
          "internalType": "address",
          "name": "_value",
          "type": "address"
        }
      ],
      "name": "setExchanger",
      "outputs": [],
      "stateMutability": "nonpayable",
      "type": "function"
    },
    {
      "inputs": [
        {
          "internalType": "uint256",
          "name": "healthFactor",
          "type": "uint256"
        }
      ],
      "name": "setHealthFactor",
      "outputs": [],
      "stateMutability": "nonpayable",
      "type": "function"
    },
    {
      "inputs": [
        {
          "internalType": "address",
          "name": "_exchanger",
          "type": "address"
        },
        {
          "internalType": "address",
          "name": "_dystRewards",
          "type": "address"
        },
        {
          "internalType": "address",
          "name": "_dystVault",
          "type": "address"
        },
        {
          "internalType": "address",
          "name": "_dystRouter",
          "type": "address"
        },
        {
          "internalType": "address",
          "name": "_penProxy",
          "type": "address"
        },
        {
          "internalType": "address",
          "name": "_penLens",
          "type": "address"
        }
      ],
      "name": "setParams",
      "outputs": [],
      "stateMutability": "nonpayable",
      "type": "function"
    },
    {
      "inputs": [
        {
          "internalType": "address",
          "name": "_usdc",
          "type": "address"
        },
        {
          "internalType": "address",
          "name": "_aUsdc",
          "type": "address"
        },
        {
          "internalType": "address",
          "name": "_wmatic",
          "type": "address"
        },
        {
          "internalType": "address",
          "name": "_usdPlus",
          "type": "address"
        },
        {
          "internalType": "address",
          "name": "_penToken",
          "type": "address"
        },
        {
          "internalType": "address",
          "name": "_dyst",
          "type": "address"
        }
      ],
      "name": "setTokens",
      "outputs": [],
      "stateMutability": "nonpayable",
      "type": "function"
    },
    {
      "inputs": [
        {
          "internalType": "uint256",
          "name": "_amount",
          "type": "uint256"
        }
      ],
      "name": "stake",
      "outputs": [],
      "stateMutability": "nonpayable",
      "type": "function"
    },
    {
      "inputs": [
        {
          "internalType": "bytes4",
          "name": "interfaceId",
          "type": "bytes4"
        }
      ],
      "name": "supportsInterface",
      "outputs": [
        {
          "internalType": "bool",
          "name": "",
          "type": "bool"
        }
      ],
      "stateMutability": "view",
      "type": "function"
    },
    {
      "inputs": [
        {
          "internalType": "uint256",
          "name": "_amount",
          "type": "uint256"
        },
        {
          "internalType": "address",
          "name": "_to",
          "type": "address"
        }
      ],
      "name": "unstake",
      "outputs": [
        {
          "internalType": "uint256",
          "name": "",
          "type": "uint256"
        }
      ],
      "stateMutability": "nonpayable",
      "type": "function"
    },
    {
      "inputs": [
        {
          "internalType": "address",
          "name": "newImplementation",
          "type": "address"
        }
      ],
      "name": "upgradeTo",
      "outputs": [],
      "stateMutability": "nonpayable",
      "type": "function"
    },
    {
      "inputs": [
        {
          "internalType": "address",
          "name": "newImplementation",
          "type": "address"
        },
        {
          "internalType": "bytes",
          "name": "data",
          "type": "bytes"
        }
      ],
      "name": "upgradeToAndCall",
      "outputs": [],
      "stateMutability": "payable",
      "type": "function"
    },
    {
      "inputs": [],
      "name": "usdPlus",
      "outputs": [
        {
          "internalType": "contract IERC20",
          "name": "",
          "type": "address"
        }
      ],
      "stateMutability": "view",
      "type": "function"
    },
    {
      "inputs": [],
      "name": "usdc",
      "outputs": [
        {
          "internalType": "contract IERC20",
          "name": "",
          "type": "address"
        }
      ],
      "stateMutability": "view",
      "type": "function"
    },
    {
      "inputs": [],
      "name": "usdcDm",
      "outputs": [
        {
          "internalType": "uint256",
          "name": "",
          "type": "uint256"
        }
      ],
      "stateMutability": "view",
      "type": "function"
    },
    {
      "inputs": [],
      "name": "usdcStorage",
      "outputs": [
        {
          "internalType": "uint256",
          "name": "",
          "type": "uint256"
        }
      ],
      "stateMutability": "view",
      "type": "function"
    },
    {
      "inputs": [],
      "name": "wmatic",
      "outputs": [
        {
          "internalType": "contract IERC20",
          "name": "",
          "type": "address"
        }
      ],
      "stateMutability": "view",
      "type": "function"
    },
    {
      "inputs": [],
      "name": "wmaticDm",
      "outputs": [
        {
          "internalType": "uint256",
          "name": "",
          "type": "uint256"
        }
      ],
      "stateMutability": "view",
      "type": "function"
    }
  ],
  "numDeployments": 4,
  "solcInputHash": "31c3f191fb801d0c89acc7c24f65d4a2",
  "bytecode": "0x60a06040523060601b6080523480156200001857600080fd5b5060006200002760016200008e565b9050801562000040576000805461ff0019166101001790555b801562000087576000805461ff0019169055604051600181527f7f26b83ff96e1f2b6a682f133852f6798a09c465da95921460cefb38474024989060200160405180910390a15b50620001af565b60008054610100900460ff161562000127578160ff166001148015620000c75750620000c530620001a060201b62001f011760201c565b155b6200011f5760405162461bcd60e51b815260206004820152602e60248201526000805160206200529a83398151915260448201526d191e481a5b9a5d1a585b1a5e995960921b60648201526084015b60405180910390fd5b506000919050565b60005460ff808416911610620001865760405162461bcd60e51b815260206004820152602e60248201526000805160206200529a83398151915260448201526d191e481a5b9a5d1a585b1a5e995960921b606482015260840162000116565b506000805460ff191660ff92909216919091179055600190565b6001600160a01b03163b151590565b60805160601c6150b0620001ea60003960008181610d9901528181610dd901528181610f2d01528181610f6d0152610ffc01526150b06000f3fe60806040526004361061036b5760003560e01c80637f0c3cd3116101c6578063cfab8eda116100f7578063e8ced75c11610095578063f664b3d91161006f578063f664b3d9146109cd578063f72c0d8b146109e2578063fb24974a14610a16578063fb41be1614610a2c57600080fd5b8063e8ced75c1461097f578063ef5cfb8c14610996578063f52d4a65146109b657600080fd5b8063da909b09116100d1578063da909b0914610906578063ddca95f314610926578063e109e03414610947578063e54bef751461095e57600080fd5b8063cfab8eda146108a4578063d2f7265a146108c5578063d547741f146108e657600080fd5b8063a217fddf11610164578063a7ab2e4d1161013e578063a7ab2e4d14610838578063ab64317514610858578063b69ef8a81461086d578063bd0f10531461088257600080fd5b8063a217fddf146107ee578063a3673b3814610803578063a694fc3a1461081857600080fd5b80638381e182116101a05780638381e1821461076c5780638b2ddd141461078c57806391d14854146107ad5780639994e71b146107cd57600080fd5b80637f0c3cd3146107225780638129fc1c1461074257806383008bd91461075757600080fd5b80633e413bee116102a057806352d1902d1161023e5780635fea9cbb116102185780635fea9cbb146106aa57806365196e1e146106cb57806369e4e005146106ec578063799ef2241461070d57600080fd5b806352d1902d146106545780635d85786d146106695780635ebb8dee1461068a57600080fd5b8063457482a01161027a578063457482a0146105df5780634d12fca4146106005780634f1ef28614610620578063514e460a1461063357600080fd5b80633e413bee146105875780634031234c146105a85780634306b6b2146105bf57600080fd5b80632f2ff15d1161030d57806335faba33116102e757806335faba331461050057806336568abe146105275780633659cfe61461054757806338d52e0f1461056757600080fd5b80632f2ff15d1461049657806331111708146104b85780633583849a146104d857600080fd5b80631b1e7ddc116103495780631b1e7ddc1461041357806322841f0114610438578063248a9ca31461044f5780632a8b096f1461047f57600080fd5b806301ffc9a714610370578063097cb6c1146103a55780630a743689146103de575b600080fd5b34801561037c57600080fd5b5061039061038b366004614a72565b610a4d565b60405190151581526020015b60405180910390f35b3480156103b157600080fd5b50610138546103c6906001600160a01b031681565b6040516001600160a01b03909116815260200161039c565b3480156103ea57600080fd5b506103fe6103f9366004614a10565b610a84565b6040805192835260208301919091520161039c565b34801561041f57600080fd5b5061042a6101345481565b60405190815260200161039c565b34801561044457600080fd5b5061042a6101415481565b34801561045b57600080fd5b5061042a61046a366004614a10565b60009081526065602052604090206001015490565b34801561048b57600080fd5b5061042a6101435481565b3480156104a257600080fd5b506104b66104b1366004614a42565b610c72565b005b3480156104c457600080fd5b506104b66104d3366004614a10565b610c9c565b3480156104e457600080fd5b506104ed600081565b60405161ffff909116815260200161039c565b34801561050c57600080fd5b50610515600081565b60405160ff909116815260200161039c565b34801561053357600080fd5b506104b6610542366004614a42565b610d10565b34801561055357600080fd5b506104b6610562366004614809565b610d8e565b34801561057357600080fd5b5060fb546103c6906001600160a01b031681565b34801561059357600080fd5b50610130546103c6906001600160a01b031681565b3480156105b457600080fd5b5061042a6101405481565b3480156105cb57600080fd5b506104b66105da3660046148c5565b610e6e565b3480156105eb57600080fd5b50610137546103c6906001600160a01b031681565b34801561060c57600080fd5b5060fc546103c6906001600160a01b031681565b6104b661062e36600461492a565b610f22565b34801561063f57600080fd5b5061012f546103c6906001600160a01b031681565b34801561066057600080fd5b5061042a610fef565b34801561067557600080fd5b50610136546103c6906001600160a01b031681565b34801561069657600080fd5b506104b66106a5366004614843565b6110a2565b3480156106b657600080fd5b5061013d546103c6906001600160a01b031681565b3480156106d757600080fd5b50610131546103c6906001600160a01b031681565b3480156106f857600080fd5b5061013c546103c6906001600160a01b031681565b34801561071957600080fd5b5061042a606481565b34801561072e57600080fd5b5061042a61073d366004614a10565b61113f565b34801561074e57600080fd5b506104b6611289565b34801561076357600080fd5b5061042a600281565b34801561077857600080fd5b5061042a610787366004614a42565b6112f7565b34801561079857600080fd5b5061013b546103c6906001600160a01b031681565b3480156107b957600080fd5b506103906107c8366004614a42565b611461565b3480156107d957600080fd5b50610133546103c6906001600160a01b031681565b3480156107fa57600080fd5b5061042a600081565b34801561080f57600080fd5b5061042a61148c565b34801561082457600080fd5b506104b6610833366004614a10565b611a45565b34801561084457600080fd5b506104b6610853366004614843565b611b2e565b34801561086457600080fd5b506103c6611cec565b34801561087957600080fd5b506104b6611d0b565b34801561088e57600080fd5b5061042a60008051602061501483398151915281565b3480156108b057600080fd5b5061013a546103c6906001600160a01b031681565b3480156108d157600080fd5b5061012e546103c6906001600160a01b031681565b3480156108f257600080fd5b506104b6610901366004614a42565b611d81565b34801561091257600080fd5b506104b6610921366004614809565b611da6565b34801561093257600080fd5b5061013e546103c6906001600160a01b031681565b34801561095357600080fd5b5061042a6101355481565b34801561096a57600080fd5b50610139546103c6906001600160a01b031681565b34801561098b57600080fd5b5061042a61013f5481565b3480156109a257600080fd5b5061042a6109b1366004614809565b611e7d565b3480156109c257600080fd5b5061042a6101425481565b3480156109d957600080fd5b5061042a600481565b3480156109ee57600080fd5b5061042a7f189ab7a9244df0848122154315af71fe140f3db0fe014031783b0946b8c9d2e381565b348015610a2257600080fd5b5061042a60001981565b348015610a3857600080fd5b50610132546103c6906001600160a01b031681565b60006001600160e01b03198216637965db0b60e01b1480610a7e57506301ffc9a760e01b6001600160e01b03198316145b92915050565b60008060008061013860009054906101000a90046001600160a01b03166001600160a01b0316630902f1ac6040518163ffffffff1660e01b815260040160606040518083038186803b158015610ad957600080fd5b505afa158015610aed573d6000803e3d6000fd5b505050506040513d601f19601f82011682018060405250810190610b119190614a9c565b506001600160701b031691506001600160701b03169150600061013860009054906101000a90046001600160a01b03166001600160a01b03166318160ddd6040518163ffffffff1660e01b815260040160206040518083038186803b158015610b7957600080fd5b505afa158015610b8d573d6000803e3d6000fd5b505050506040513d601f19601f82011682018060405250810190610bb19190614a29565b610bbb8785614f43565b610bc59190614e33565b9050600061013860009054906101000a90046001600160a01b03166001600160a01b03166318160ddd6040518163ffffffff1660e01b815260040160206040518083038186803b158015610c1857600080fd5b505afa158015610c2c573d6000803e3d6000fd5b505050506040513d601f19601f82011682018060405250810190610c509190614a29565b610c5a8885614f43565b610c649190614e33565b919791965090945050505050565b600082815260656020526040902060010154610c8d81611f10565b610c978383611f1a565b505050565b610cb460008051602061501483398151915233611461565b610cd95760405162461bcd60e51b8152600401610cd090614cd0565b60405180910390fd5b6040518181527ff00d5f5126966481831a71a9d79a9b3af67c4a1a35637b992c7e465a7e465b71906020015b60405180910390a150565b6001600160a01b0381163314610d805760405162461bcd60e51b815260206004820152602f60248201527f416363657373436f6e74726f6c3a2063616e206f6e6c792072656e6f756e636560448201526e103937b632b9903337b91039b2b63360891b6064820152608401610cd0565b610d8a8282611fa0565b5050565b306001600160a01b037f0000000000000000000000000000000000000000000000000000000000000000161415610dd75760405162461bcd60e51b8152600401610cd090614d07565b7f00000000000000000000000000000000000000000000000000000000000000006001600160a01b0316610e20600080516020615034833981519152546001600160a01b031690565b6001600160a01b031614610e465760405162461bcd60e51b8152600401610cd090614d53565b610e4f81612007565b60408051600080825260208201909252610e6b91839190612031565b50565b610e79600033611461565b610e955760405162461bcd60e51b8152600401610cd090614ded565b61013c80546001600160a01b038089166001600160a01b03199283161790925561013d805488841690831617905561013e805492871692909116919091179055610ee68366038d7ea4c68000614f43565b61014055610efb8266038d7ea4c68000614f43565b61014155600061014355610f168166038d7ea4c68000614f43565b61014255505050505050565b306001600160a01b037f0000000000000000000000000000000000000000000000000000000000000000161415610f6b5760405162461bcd60e51b8152600401610cd090614d07565b7f00000000000000000000000000000000000000000000000000000000000000006001600160a01b0316610fb4600080516020615034833981519152546001600160a01b031690565b6001600160a01b031614610fda5760405162461bcd60e51b8152600401610cd090614d53565b610fe382612007565b610d8a82826001612031565b6000306001600160a01b037f0000000000000000000000000000000000000000000000000000000000000000161461108f5760405162461bcd60e51b815260206004820152603860248201527f555550535570677261646561626c653a206d757374206e6f742062652063616c60448201527f6c6564207468726f7567682064656c656761746563616c6c00000000000000006064820152608401610cd0565b5060008051602061503483398151915290565b6110ad600033611461565b6110c95760405162461bcd60e51b8152600401610cd090614ded565b61013780546001600160a01b03199081166001600160a01b03978816179091556101388054821695871695909517909455610136805485169386169390931790925561013a8054841691851691909117905561013b8054831691841691909117905561012e805490911692909116919091179055565b600080600061013860009054906101000a90046001600160a01b03166001600160a01b0316630902f1ac6040518163ffffffff1660e01b815260040160606040518083038186803b15801561119357600080fd5b505afa1580156111a7573d6000803e3d6000fd5b505050506040513d601f19601f820116820180604052508101906111cb9190614a9c565b506001600160701b031691506001600160701b0316915060008261013860009054906101000a90046001600160a01b03166001600160a01b03166318160ddd6040518163ffffffff1660e01b815260040160206040518083038186803b15801561123457600080fd5b505afa158015611248573d6000803e3d6000fd5b505050506040513d601f19601f8201168201806040525081019061126c9190614a29565b6112769087614f43565b6112809190614e33565b95945050505050565b600061129560016121ab565b905080156112ad576000805461ff0019166101001790555b6112b5612233565b8015610e6b576000805461ff0019169055604051600181527f7f26b83ff96e1f2b6a682f133852f6798a09c465da95921460cefb384740249890602001610d05565b600061131160008051602061501483398151915233611461565b61132d5760405162461bcd60e51b8152600401610cd090614cd0565b60006113388461229c565b90508381101561139c5760405162461bcd60e51b815260206004820152602960248201527f52657475726e65642076616c7565206c657373207468616e2072657175657374604482015268195908185b5bdd5b9d60ba1b6064820152608401610cd0565b60fb5460405163a9059cbb60e01b81526001600160a01b039091169063a9059cbb906113ce9086908590600401614c3c565b602060405180830381600087803b1580156113e857600080fd5b505af11580156113fc573d6000803e3d6000fd5b505050506040513d601f19601f8201168201806040525081019061142091906149ee565b5060408051858152602081018390527f9045c2ac9b2026de8075f2701bbdde882cd5e830b3b1ead9a15b22f2b5b93742910160405180910390a19392505050565b60009182526065602090815260408084206001600160a01b0393909316845291905290205460ff1690565b61013b54604051636f4ba70b60e11b815230600482015260009182916001600160a01b039091169063de974e169060240160206040518083038186803b1580156114d557600080fd5b505afa1580156114e9573d6000803e3d6000fd5b505050506040513d601f19601f8201168201806040525081019061150d9190614826565b61013b546101385460405163478a0c7960e11b81526001600160a01b039182166004820152929350600092911690638f1418f29060240160206040518083038186803b15801561155c57600080fd5b505afa158015611570573d6000803e3d6000fd5b505050506040513d601f19601f820116820180604052508101906115949190614826565b6040516370a0823160e01b81526001600160a01b0384811660048301529192506000918316906370a082319060240160206040518083038186803b1580156115db57600080fd5b505afa1580156115ef573d6000803e3d6000fd5b505050506040513d601f19601f820116820180604052508101906116139190614a29565b905080611624576000935050505090565b60008061163083610a84565b610131546040516370a0823160e01b815230600482015292945090925082916000916001600160a01b0316906370a082319060240160206040518083038186803b15801561167d57600080fd5b505afa158015611691573d6000803e3d6000fd5b505050506040513d601f19601f820116820180604052508101906116b59190614a29565b610130546040516370a0823160e01b81523060048201526001600160a01b03909116906370a082319060240160206040518083038186803b1580156116f957600080fd5b505afa15801561170d573d6000803e3d6000fd5b505050506040513d601f19601f820116820180604052508101906117319190614a29565b61173b9190614e1b565b61013c54909150600090611757906001600160a01b0316612af9565b604051632fe4a15f60e21b81523060048201526001600160a01b03919091169063bf92857c9060240160c06040518083038186803b15801561179857600080fd5b505afa1580156117ac573d6000803e3d6000fd5b505050506040513d601f19601f820116820180604052508101906117d09190614b3e565b50505050915050600061186d826101355461013e60009054906101000a90046001600160a01b03166001600160a01b03166350d25bcd6040518163ffffffff1660e01b815260040160206040518083038186803b15801561183057600080fd5b505afa158015611844573d6000803e3d6000fd5b505050506040513d601f19601f820116820180604052508101906118689190614a29565b612b6c565b9050858110156119b65760006118838288614f62565b90506119a481610135546101345461013e60009054906101000a90046001600160a01b03166001600160a01b03166350d25bcd6040518163ffffffff1660e01b815260040160206040518083038186803b1580156118e057600080fd5b505afa1580156118f4573d6000803e3d6000fd5b505050506040513d601f19601f820116820180604052508101906119189190614a29565b61013d60009054906101000a90046001600160a01b03166001600160a01b03166350d25bcd6040518163ffffffff1660e01b815260040160206040518083038186803b15801561196757600080fd5b505afa15801561197b573d6000803e3d6000fd5b505050506040513d601f19601f8201168201806040525081019061199f9190614a29565b612b8b565b6119ae9085614e1b565b935050611a2d565b60006119c28783614f62565b9050611a1f81610135546101345461013e60009054906101000a90046001600160a01b03166001600160a01b03166350d25bcd6040518163ffffffff1660e01b815260040160206040518083038186803b1580156118e057600080fd5b611a299085614f62565b9350505b611a378385614e1b565b995050505050505050505090565b611a5d60008051602061501483398151915233611461565b611a795760405162461bcd60e51b8152600401610cd090614cd0565b6040518181527f227a473b70d2f893cc7659219575c030a63b5743024fe1e0c1a680e708b1525a9060200160405180910390a160fb546040516370a0823160e01b8152306004820152610e6b916001600160a01b0316906370a082319060240160206040518083038186803b158015611af157600080fd5b505afa158015611b05573d6000803e3d6000fd5b505050506040513d601f19601f82011682018060405250810190611b299190614a29565b612bc0565b611b39600033611461565b611b555760405162461bcd60e51b8152600401610cd090614ded565b61013080546001600160a01b038089166001600160a01b0319928316811790935561013180548983169084161790556101328054918816919092161790556040805163313ce56760e01b8152905163313ce56791600480820192602092909190829003018186803b158015611bc957600080fd5b505afa158015611bdd573d6000803e3d6000fd5b505050506040513d601f19601f82011682018060405250810190611c019190614b88565b611c0c90600a614e98565b61013481905550836001600160a01b031663313ce5676040518163ffffffff1660e01b815260040160206040518083038186803b158015611c4c57600080fd5b505afa158015611c60573d6000803e3d6000fd5b505050506040513d601f19601f82011682018060405250810190611c849190614b88565b611c8f90600a614e98565b6101355561012f80546001600160a01b0319166001600160a01b038516179055611cb883612bd0565b61013980546001600160a01b039384166001600160a01b031991821617909155610133805492909316911617905550505050565b61013c54600090611d06906001600160a01b031682612c43565b905090565b611d2360008051602061501483398151915233611461565b611d3f5760405162461bcd60e51b8152600401610cd090614cd0565b6000611d49612d1b565b90508015610e6b576040518181527fe8d947d7ebdd7b8b8fa2ad2022c7591418ac32d8c29c5f8a8fc9de52ffa5409290602001610d05565b600082815260656020526040902060010154611d9c81611f10565b610c978383611fa0565b611db1600033611461565b611dcd5760405162461bcd60e51b8152600401610cd090614ded565b6001600160a01b038116611e1e5760405162461bcd60e51b815260206004820152601860248201527716995c9bc81859191c995cdcc81b9bdd08185b1b1bddd95960421b6044820152606401610cd0565b60fc54611e4390600080516020615014833981519152906001600160a01b0316611d81565b611e5b60008051602061501483398151915282610c72565b60fc80546001600160a01b0319166001600160a01b0392909216919091179055565b6000611e9760008051602061501483398151915233611461565b611eb35760405162461bcd60e51b8152600401610cd090614cd0565b6000611ebe83612eb2565b90507f3ac0594a85a20354f9dc74f33728416d19ce00d04a406c108cc2dcf2cecea13481604051611ef191815260200190565b60405180910390a190505b919050565b6001600160a01b03163b151590565b610e6b81336131b5565b611f248282611461565b610d8a5760008281526065602090815260408083206001600160a01b03851684529091529020805460ff19166001179055611f5c3390565b6001600160a01b0316816001600160a01b0316837f2f8788117e7eff1d82e926ec794901d17c78024a50270940304540a733656f0d60405160405180910390a45050565b611faa8282611461565b15610d8a5760008281526065602090815260408083206001600160a01b0385168085529252808320805460ff1916905551339285917ff6391f5c32d9c69d2a47ea670b442974b53935d1edc7fd64eb21e047a839171b9190a45050565b7f189ab7a9244df0848122154315af71fe140f3db0fe014031783b0946b8c9d2e3610d8a81611f10565b7f4910fdfa16fed3260ed0e7147f7cc6da11a60208b5b9406d12a635614ffd91435460ff161561206457610c9783613219565b826001600160a01b03166352d1902d6040518163ffffffff1660e01b815260040160206040518083038186803b15801561209d57600080fd5b505afa9250505080156120cd575060408051601f3d908101601f191682019092526120ca91810190614a29565b60015b6121305760405162461bcd60e51b815260206004820152602e60248201527f45524331393637557067726164653a206e657720696d706c656d656e7461746960448201526d6f6e206973206e6f74205555505360901b6064820152608401610cd0565b600080516020615034833981519152811461219f5760405162461bcd60e51b815260206004820152602960248201527f45524331393637557067726164653a20756e737570706f727465642070726f786044820152681a58589b195555525160ba1b6064820152608401610cd0565b50610c978383836132b5565b60008054610100900460ff16156121f2578160ff1660011480156121ce5750303b155b6121ea5760405162461bcd60e51b8152600401610cd090614d9f565b506000919050565b60005460ff8084169116106122195760405162461bcd60e51b8152600401610cd090614d9f565b506000805460ff191660ff92909216919091179055600190565b600061223f60016121ab565b90508015612257576000805461ff0019166101001790555b61225f6132e0565b6122676132e0565b612272600033611f1a565b6112b57f189ab7a9244df0848122154315af71fe140f3db0fe014031783b0946b8c9d2e333611f1a565b60008061012e60009054906101000a90046001600160a01b03166001600160a01b031663c12e90e96040518163ffffffff1660e01b815260040160206040518083038186803b1580156122ee57600080fd5b505afa158015612302573d6000803e3d6000fd5b505050506040513d601f19601f820116820180604052508101906123269190614a29565b61012e60009054906101000a90046001600160a01b03166001600160a01b031663965fa21e6040518163ffffffff1660e01b815260040160206040518083038186803b15801561237557600080fd5b505afa158015612389573d6000803e3d6000fd5b505050506040513d601f19601f820116820180604052508101906123ad9190614a29565b6123b79085614f43565b6123c19190614e33565b6123cb9084614e1b565b905060008061013860009054906101000a90046001600160a01b03166001600160a01b0316630902f1ac6040518163ffffffff1660e01b815260040160606040518083038186803b15801561241f57600080fd5b505afa158015612433573d6000803e3d6000fd5b505050506040513d601f19601f820116820180604052508101906124579190614a9c565b506001600160701b031691506001600160701b0316915060006125998483856101405461014154610134546101355461013d60009054906101000a90046001600160a01b03166001600160a01b03166350d25bcd6040518163ffffffff1660e01b815260040160206040518083038186803b1580156124d557600080fd5b505afa1580156124e9573d6000803e3d6000fd5b505050506040513d601f19601f8201168201806040525081019061250d9190614a29565b61013e60009054906101000a90046001600160a01b03166001600160a01b03166350d25bcd6040518163ffffffff1660e01b815260040160206040518083038186803b15801561255c57600080fd5b505afa158015612570573d6000803e3d6000fd5b505050506040513d601f19601f820116820180604052508101906125949190614a29565b61334d565b905060006125a5611cec565b604051632fe4a15f60e21b81523060048201529091506000906001600160a01b0383169063bf92857c9060240160c06040518083038186803b1580156125ea57600080fd5b505afa1580156125fe573d6000803e3d6000fd5b505050506040513d601f19601f820116820180604052508101906126229190614b3e565b505050509150506000612682826101355461013e60009054906101000a90046001600160a01b03166001600160a01b03166350d25bcd6040518163ffffffff1660e01b815260040160206040518083038186803b15801561183057600080fd5b90506000808286111561269b57508190506000196126c0565b859150876126a98884614f43565b6126b39190614e33565b6126bd908a614f62565b90505b60006126cb8361113f565b61013a546101385460405163fce07e8960e01b81529293506001600160a01b039182169263fce07e89926127059216908590600401614c3c565b600060405180830381600087803b15801561271f57600080fd5b505af1158015612733573d6000803e3d6000fd5b5050610138546101365460405163095ea7b360e01b81526001600160a01b03928316945063095ea7b3935061277092909116908590600401614c3c565b602060405180830381600087803b15801561278a57600080fd5b505af115801561279e573d6000803e3d6000fd5b505050506040513d601f19601f820116820180604052508101906127c291906149ee565b506127cc816133ad565b5050610132546040516370a0823160e01b81523060048201526001600160a01b039091169063095ea7b390889083906370a082319060240160206040518083038186803b15801561281c57600080fd5b505afa158015612830573d6000803e3d6000fd5b505050506040513d601f19601f820116820180604052508101906128549190614a29565b6040518363ffffffff1660e01b8152600401612871929190614c3c565b602060405180830381600087803b15801561288b57600080fd5b505af115801561289f573d6000803e3d6000fd5b505050506040513d601f19601f820116820180604052508101906128c391906149ee565b50610132546040516370a0823160e01b81523060048201526001600160a01b038881169263573ade819291169081906370a082319060240160206040518083038186803b15801561291357600080fd5b505afa158015612927573d6000803e3d6000fd5b505050506040513d601f19601f8201168201806040525081019061294b9190614a29565b6040516001600160e01b031960e085901b1681526001600160a01b039092166004830152602482015260026044820152306064820152608401602060405180830381600087803b15801561299e57600080fd5b505af11580156129b2573d6000803e3d6000fd5b505050506040513d601f19601f820116820180604052508101906129d69190614a29565b5061013054604051631a4ca37b60e21b81526001600160a01b03918216600482015260248101849052306044820152908716906369328dec90606401602060405180830381600087803b158015612a2c57600080fd5b505af1158015612a40573d6000803e3d6000fd5b505050506040513d601f19601f82011682018060405250810190612a649190614a29565b50612a6d6134e0565b61012f546040516370a0823160e01b81523060048201526001600160a01b03909116906370a082319060240160206040518083038186803b158015612ab157600080fd5b505afa158015612ac5573d6000803e3d6000fd5b505050506040513d601f19601f82011682018060405250810190612ae99190614a29565b9c9b505050505050505050505050565b6000816001600160a01b031663026b1d5f6040518163ffffffff1660e01b815260040160206040518083038186803b158015612b3457600080fd5b505afa158015612b48573d6000803e3d6000fd5b505050506040513d601f19601f82011682018060405250810190610a7e9190614826565b600081612b798486614f43565b612b839190614e33565b949350505050565b6000612b978286614f43565b83612ba28689614f43565b612bac9190614f43565b612bb69190614e33565b9695505050505050565b612bc86138a1565b610e6b613f70565b6001600160a01b038116612c215760405162461bcd60e51b815260206004820152601860248201527716995c9bc81859191c995cdcc81b9bdd08185b1b1bddd95960421b6044820152606401610cd0565b60fb80546001600160a01b0319166001600160a01b0392909216919091179055565b6000826001600160a01b031663026b1d5f6040518163ffffffff1660e01b815260040160206040518083038186803b158015612c7e57600080fd5b505afa158015612c92573d6000803e3d6000fd5b505050506040513d601f19601f82011682018060405250810190612cb69190614826565b6040516328530a4760e01b815260ff841660048201529091506001600160a01b038216906328530a4790602401600060405180830381600087803b158015612cfd57600080fd5b505af1158015612d11573d6000803e3d6000fd5b5050505092915050565b600080612d26611cec565b604051632fe4a15f60e21b81523060048201529091506000906001600160a01b0383169063bf92857c9060240160c06040518083038186803b158015612d6b57600080fd5b505afa158015612d7f573d6000803e3d6000fd5b505050506040513d601f19601f82011682018060405250810190612da39190614b3e565b9550505050505068056bc75e2d63100000811180612dcf575061014254612dcd8261014154614425565b105b15612dda5792915050565b61014154811115612e54576040516301ed24b560e21b815230600482015273__$0dc228d02fcd8a621917d123613ff94d1f$__906307b492d49060240160006040518083038186803b158015612e2f57600080fd5b505af4158015612e43573d6000803e3d6000fd5b50505050612e4f613f70565b610a7e565b604051630a32b12760e31b815230600482015273__$0dc228d02fcd8a621917d123613ff94d1f$__9063519589389060240160006040518083038186803b158015612e9e57600080fd5b505af4158015612d11573d6000803e3d6000fd5b61013a5460408051636b69e05b60e01b815290516000926001600160a01b031691636b69e05b916004808301928692919082900301818387803b158015612ef857600080fd5b505af1158015612f0c573d6000803e3d6000fd5b5050610133546040516370a0823160e01b8152306004820152600093508392506001600160a01b03909116906370a082319060240160206040518083038186803b158015612f5957600080fd5b505afa158015612f6d573d6000803e3d6000fd5b505050506040513d601f19601f82011682018060405250810190612f919190614a29565b905080156130605761013654610133546101325461012f54604051639979c1fd60e01b815260009473__$30c1d912a6952cfd117660000d86476f07$__94639979c1fd94613000946001600160a01b03938416949284169391821692911690889081908b903090600401614c55565b60206040518083038186803b15801561301857600080fd5b505af415801561302c573d6000803e3d6000fd5b505050506040513d601f19601f820116820180604052508101906130509190614a29565b905061305c8184614e1b565b9250505b610139546040516370a0823160e01b81523060048201526000916001600160a01b0316906370a082319060240160206040518083038186803b1580156130a557600080fd5b505afa1580156130b9573d6000803e3d6000fd5b505050506040513d601f19601f820116820180604052508101906130dd9190614a29565b905080156131ac5761013654610139546101325461012f54604051639979c1fd60e01b815260009473__$30c1d912a6952cfd117660000d86476f07$__94639979c1fd9461314c946001600160a01b03938416949284169391821692911690889081908b903090600401614c55565b60206040518083038186803b15801561316457600080fd5b505af4158015613178573d6000803e3d6000fd5b505050506040513d601f19601f8201168201806040525081019061319c9190614a29565b90506131a88185614e1b565b9350505b50909392505050565b6131bf8282611461565b610d8a576131d7816001600160a01b0316601461444e565b6131e283602061444e565b6040516020016131f3929190614bc7565b60408051601f198184030181529082905262461bcd60e51b8252610cd091600401614c9d565b6001600160a01b0381163b6132865760405162461bcd60e51b815260206004820152602d60248201527f455243313936373a206e657720696d706c656d656e746174696f6e206973206e60448201526c1bdd08184818dbdb9d1c9858dd609a1b6064820152608401610cd0565b60008051602061503483398151915280546001600160a01b0319166001600160a01b0392909216919091179055565b6132be836145ea565b6000825111806132cb5750805b15610c97576132da838361462a565b50505050565b600054610100900460ff1661334b5760405162461bcd60e51b815260206004820152602b60248201527f496e697469616c697a61626c653a20636f6e7472616374206973206e6f74206960448201526a6e697469616c697a696e6760a81b6064820152608401610cd0565b565b60008061335d8b87878787612b8b565b9050600061336e8a87898789612b8b565b905061337a8b8a614f43565b613384828a614f43565b61338e9190614e1b565b816133998b85614f43565b6133a39190614f43565b612ae99190614e33565b6000806000806133bc85610a84565b610136546101325461012f549395509193506001600160a01b0390811692630dede6c4928216911660008987156133fd576133f8886004614715565b613400565b60005b871561341657613411886004614715565b613419565b60005b3061342642610258614e1b565b60405160e08a901b6001600160e01b03191681526001600160a01b039889166004820152968816602488015294151560448701526064860193909352608485019190915260a484015290921660c482015260e4810191909152610104016040805180830381600087803b15801561349c57600080fd5b505af11580156134b0573d6000803e3d6000fd5b505050506040513d601f19601f820116820180604052508101906134d49190614aec565b90969095509350505050565b610132546040516370a0823160e01b81523060048201526000916001600160a01b0316906370a082319060240160206040518083038186803b15801561352557600080fd5b505afa158015613539573d6000803e3d6000fd5b505050506040513d601f19601f8201168201806040525081019061355d9190614a29565b11156136ae57610136546101325461012f546040516370a0823160e01b815230600482015273__$30c1d912a6952cfd117660000d86476f07$__93634f3ea505936001600160a01b03918216939082169291169060009083906370a082319060240160206040518083038186803b1580156135d757600080fd5b505afa1580156135eb573d6000803e3d6000fd5b505050506040513d601f19601f8201168201806040525081019061360f9190614a29565b6040516001600160e01b031960e088901b1681526001600160a01b03958616600482015293851660248501529390911660448301521515606482015260848101919091523060a482015260c40160206040518083038186803b15801561367457600080fd5b505af4158015613688573d6000803e3d6000fd5b505050506040513d601f19601f820116820180604052508101906136ac9190614a29565b505b6101305461012e546040516370a0823160e01b81523060048201526001600160a01b039283169263095ea7b392169083906370a082319060240160206040518083038186803b15801561370057600080fd5b505afa158015613714573d6000803e3d6000fd5b505050506040513d601f19601f820116820180604052508101906137389190614a29565b6040518363ffffffff1660e01b8152600401613755929190614c3c565b602060405180830381600087803b15801561376f57600080fd5b505af1158015613783573d6000803e3d6000fd5b505050506040513d601f19601f820116820180604052508101906137a791906149ee565b5061012e54610130546040516370a0823160e01b81523060048201526001600160a01b039283169263cce7ec1392169081906370a082319060240160206040518083038186803b1580156137fa57600080fd5b505afa15801561380e573d6000803e3d6000fd5b505050506040513d601f19601f820116820180604052508101906138329190614a29565b6040518363ffffffff1660e01b815260040161384f929190614c3c565b602060405180830381600087803b15801561386957600080fd5b505af115801561387d573d6000803e3d6000fd5b505050506040513d601f19601f82011682018060405250810190610e6b9190614a29565b60008061013860009054906101000a90046001600160a01b03166001600160a01b0316630902f1ac6040518163ffffffff1660e01b815260040160606040518083038186803b1580156138f357600080fd5b505afa158015613907573d6000803e3d6000fd5b505050506040513d601f19601f8201168201806040525081019061392b9190614a9c565b5061012f546040516370a0823160e01b81523060048201526001600160701b0393841695509190921692506000916001600160a01b0316906370a082319060240160206040518083038186803b15801561398457600080fd5b505afa158015613998573d6000803e3d6000fd5b505050506040513d601f19601f820116820180604052508101906139bc9190614a29565b9050600061012e60009054906101000a90046001600160a01b03166001600160a01b031663c12e90e96040518163ffffffff1660e01b815260040160206040518083038186803b158015613a0f57600080fd5b505afa158015613a23573d6000803e3d6000fd5b505050506040513d601f19601f82011682018060405250810190613a479190614a29565b61012e60009054906101000a90046001600160a01b03166001600160a01b031663965fa21e6040518163ffffffff1660e01b815260040160206040518083038186803b158015613a9657600080fd5b505afa158015613aaa573d6000803e3d6000fd5b505050506040513d601f19601f82011682018060405250810190613ace9190614a29565b613ad89084614f43565b613ae29190614e33565b9050613aee8183614f62565b9150600080613c1c8486886101405461014154610134546101355461013d60009054906101000a90046001600160a01b03166001600160a01b03166350d25bcd6040518163ffffffff1660e01b815260040160206040518083038186803b158015613b5857600080fd5b505afa158015613b6c573d6000803e3d6000fd5b505050506040513d601f19601f82011682018060405250810190613b909190614a29565b61013e60009054906101000a90046001600160a01b03166001600160a01b03166350d25bcd6040518163ffffffff1660e01b815260040160206040518083038186803b158015613bdf57600080fd5b505afa158015613bf3573d6000803e3d6000fd5b505050506040513d601f19601f82011682018060405250810190613c179190614a29565b614738565b91509150600061012e60009054906101000a90046001600160a01b03166001600160a01b031663c12e90e96040518163ffffffff1660e01b815260040160206040518083038186803b158015613c7157600080fd5b505afa158015613c85573d6000803e3d6000fd5b505050506040513d601f19601f82011682018060405250810190613ca99190614a29565b61012e60009054906101000a90046001600160a01b03166001600160a01b031663965fa21e6040518163ffffffff1660e01b815260040160206040518083038186803b158015613cf857600080fd5b505afa158015613d0c573d6000803e3d6000fd5b505050506040513d601f19601f82011682018060405250810190613d309190614a29565b613d3a9085614f43565b613d449190614e33565b613d4e9084614e1b565b613d59906064614e1b565b61012e54610130546040516301e9a69560e41b81529293506001600160a01b0391821692631e9a695092613d939216908590600401614c3c565b602060405180830381600087803b158015613dad57600080fd5b505af1158015613dc1573d6000803e3d6000fd5b505050506040513d601f19601f82011682018060405250810190613de59190614a29565b506000613df0611cec565b6101305460405163095ea7b360e01b81529192506001600160a01b03169063095ea7b390613e249084908890600401614c3c565b602060405180830381600087803b158015613e3e57600080fd5b505af1158015613e52573d6000803e3d6000fd5b505050506040513d601f19601f82011682018060405250810190613e7691906149ee565b506101305460405163617ba03760e01b81526001600160a01b03918216600482015260248101869052306044820152600060648201529082169063617ba03790608401600060405180830381600087803b158015613ed357600080fd5b505af1158015613ee7573d6000803e3d6000fd5b50506101325460405163a415bcad60e01b81526001600160a01b039182166004820152602481018790526002604482015260006064820152306084820152908416925063a415bcad915060a401600060405180830381600087803b158015613f4e57600080fd5b505af1158015613f62573d6000803e3d6000fd5b505050505050505050505050565b61012f546040516370a0823160e01b81523060048201526000916001600160a01b0316906370a082319060240160206040518083038186803b158015613fb557600080fd5b505afa158015613fc9573d6000803e3d6000fd5b505050506040513d601f19601f82011682018060405250810190613fed9190614a29565b610132546040516370a0823160e01b81523060048201529192506000916001600160a01b03909116906370a082319060240160206040518083038186803b15801561403757600080fd5b505afa15801561404b573d6000803e3d6000fd5b505050506040513d601f19601f8201168201806040525081019061406f9190614a29565b61012f546101365460405163095ea7b360e01b81529293506001600160a01b039182169263095ea7b3926140a99216908690600401614c3c565b602060405180830381600087803b1580156140c357600080fd5b505af11580156140d7573d6000803e3d6000fd5b505050506040513d601f19601f820116820180604052508101906140fb91906149ee565b50610132546101365460405163095ea7b360e01b81526001600160a01b039283169263095ea7b392614134929116908590600401614c3c565b602060405180830381600087803b15801561414e57600080fd5b505af1158015614162573d6000803e3d6000fd5b505050506040513d601f19601f8201168201806040525081019061418691906149ee565b50610136546101325461012f546001600160a01b0392831692635a47ddc392811691166000858761271082106141c6576141c1886004614715565b6141c9565b60005b6127108a106141e2576141dd8a6004614715565b6141e5565b60005b306141f242610258614e1b565b60405160e08b901b6001600160e01b03191681526001600160a01b03998a166004820152978916602489015295151560448801526064870194909452608486019290925260a485015260c484015290921660e482015261010481019190915261012401606060405180830381600087803b15801561426f57600080fd5b505af1158015614283573d6000803e3d6000fd5b505050506040513d601f19601f820116820180604052508101906142a79190614b10565b5050610138546040516370a0823160e01b8152306004820152600092506001600160a01b03909116906370a082319060240160206040518083038186803b1580156142f157600080fd5b505afa158015614305573d6000803e3d6000fd5b505050506040513d601f19601f820116820180604052508101906143299190614a29565b6101385461013a5460405163095ea7b360e01b81529293506001600160a01b039182169263095ea7b3926143639216908590600401614c3c565b602060405180830381600087803b15801561437d57600080fd5b505af1158015614391573d6000803e3d6000fd5b505050506040513d601f19601f820116820180604052508101906143b591906149ee565b5061013a54610138546040516351b3839960e11b81526001600160a01b039283169263a3670732926143ee929116908590600401614c3c565b600060405180830381600087803b15801561440857600080fd5b505af115801561441c573d6000803e3d6000fd5b50505050505050565b600081831161443d576144388383614f62565b614447565b6144478284614f62565b9392505050565b6060600061445d836002614f43565b614468906002614e1b565b67ffffffffffffffff81111561448057614480614fe8565b6040519080825280601f01601f1916602001820160405280156144aa576020820181803683370190505b509050600360fc1b816000815181106144c5576144c5614fd2565b60200101906001600160f81b031916908160001a905350600f60fb1b816001815181106144f4576144f4614fd2565b60200101906001600160f81b031916908160001a9053506000614518846002614f43565b614523906001614e1b565b90505b600181111561459b576f181899199a1a9b1b9c1cb0b131b232b360811b85600f166010811061455757614557614fd2565b1a60f81b82828151811061456d5761456d614fd2565b60200101906001600160f81b031916908160001a90535060049490941c9361459481614fa5565b9050614526565b5083156144475760405162461bcd60e51b815260206004820181905260248201527f537472696e67733a20686578206c656e67746820696e73756666696369656e746044820152606401610cd0565b6145f381613219565b6040516001600160a01b038216907fbc7cd75a20ee27fd9adebab32041f755214dbc6bffa90cc0225b39da2e5c2d3b90600090a250565b60606001600160a01b0383163b6146925760405162461bcd60e51b815260206004820152602660248201527f416464726573733a2064656c65676174652063616c6c20746f206e6f6e2d636f6044820152651b9d1c9858dd60d21b6064820152608401610cd0565b600080846001600160a01b0316846040516146ad9190614bab565b600060405180830381855af49150503d80600081146146e8576040519150601f19603f3d011682016040523d82523d6000602084013e6146ed565b606091505b50915091506112808282604051806060016040528060278152602001615054602791396147b9565b60006127106147248382614f62565b61472e9085614f43565b6144479190614e33565b600080600061474a8a87898789612b8b565b9050806147578c8b614f43565b6147619190614e33565b61476b9089614e1b565b614775898e614f43565b61477f9190614e33565b925060006147908489898989612b8b565b90508861479d8b83614f43565b6147a79190614e33565b92505050995099975050505050505050565b606083156147c8575081614447565b8251156147d85782518084602001fd5b8160405162461bcd60e51b8152600401610cd09190614c9d565b80516001600160701b0381168114611efc57600080fd5b60006020828403121561481b57600080fd5b813561444781614ffe565b60006020828403121561483857600080fd5b815161444781614ffe565b60008060008060008060c0878903121561485c57600080fd5b863561486781614ffe565b9550602087013561487781614ffe565b9450604087013561488781614ffe565b9350606087013561489781614ffe565b925060808701356148a781614ffe565b915060a08701356148b781614ffe565b809150509295509295509295565b60008060008060008060c087890312156148de57600080fd5b86356148e981614ffe565b955060208701356148f981614ffe565b9450604087013561490981614ffe565b959894975094956060810135955060808101359460a0909101359350915050565b6000806040838503121561493d57600080fd5b823561494881614ffe565b9150602083013567ffffffffffffffff8082111561496557600080fd5b818501915085601f83011261497957600080fd5b81358181111561498b5761498b614fe8565b604051601f8201601f19908116603f011681019083821181831017156149b3576149b3614fe8565b816040528281528860208487010111156149cc57600080fd5b8260208601602083013760006020848301015280955050505050509250929050565b600060208284031215614a0057600080fd5b8151801515811461444757600080fd5b600060208284031215614a2257600080fd5b5035919050565b600060208284031215614a3b57600080fd5b5051919050565b60008060408385031215614a5557600080fd5b823591506020830135614a6781614ffe565b809150509250929050565b600060208284031215614a8457600080fd5b81356001600160e01b03198116811461444757600080fd5b600080600060608486031215614ab157600080fd5b614aba846147f2565b9250614ac8602085016147f2565b9150604084015163ffffffff81168114614ae157600080fd5b809150509250925092565b60008060408385031215614aff57600080fd5b505080516020909101519092909150565b600080600060608486031215614b2557600080fd5b8351925060208401519150604084015190509250925092565b60008060008060008060c08789031215614b5757600080fd5b865195506020870151945060408701519350606087015192506080870151915060a087015190509295509295509295565b600060208284031215614b9a57600080fd5b815160ff8116811461444757600080fd5b60008251614bbd818460208701614f79565b9190910192915050565b7f416363657373436f6e74726f6c3a206163636f756e7420000000000000000000815260008351614bff816017850160208801614f79565b7001034b99036b4b9b9b4b733903937b6329607d1b6017918401918201528351614c30816028840160208801614f79565b01602801949350505050565b6001600160a01b03929092168252602082015260400190565b6001600160a01b0398891681529688166020880152948716604087015292861660608601529015156080850152151560a084015260c083015290911660e08201526101000190565b6020815260008251806020840152614cbc816040850160208701614f79565b601f01601f19169190910160400192915050565b60208082526017908201527f5265737472696374656420746f2045584348414e474552000000000000000000604082015260600190565b6020808252602c908201527f46756e6374696f6e206d7573742062652063616c6c6564207468726f7567682060408201526b19195b1959d85d1958d85b1b60a21b606082015260800190565b6020808252602c908201527f46756e6374696f6e206d7573742062652063616c6c6564207468726f7567682060408201526b6163746976652070726f787960a01b606082015260800190565b6020808252602e908201527f496e697469616c697a61626c653a20636f6e747261637420697320616c72656160408201526d191e481a5b9a5d1a585b1a5e995960921b606082015260800190565b6020808252601490820152735265737472696374656420746f2061646d696e7360601b604082015260600190565b60008219821115614e2e57614e2e614fbc565b500190565b600082614e5057634e487b7160e01b600052601260045260246000fd5b500490565b600181815b80851115614e90578160001904821115614e7657614e76614fbc565b80851615614e8357918102915b93841c9390800290614e5a565b509250929050565b600061444760ff841683600082614eb157506001610a7e565b81614ebe57506000610a7e565b8160018114614ed45760028114614ede57614efa565b6001915050610a7e565b60ff841115614eef57614eef614fbc565b50506001821b610a7e565b5060208310610133831016604e8410600b8410161715614f1d575081810a610a7e565b614f278383614e55565b8060001904821115614f3b57614f3b614fbc565b029392505050565b6000816000190483118215151615614f5d57614f5d614fbc565b500290565b600082821015614f7457614f74614fbc565b500390565b60005b83811015614f94578181015183820152602001614f7c565b838111156132da5750506000910152565b600081614fb457614fb4614fbc565b506000190190565b634e487b7160e01b600052601160045260246000fd5b634e487b7160e01b600052603260045260246000fd5b634e487b7160e01b600052604160045260246000fd5b6001600160a01b0381168114610e6b57600080fdfe3eb675f159e6ca6cf5de6bfbbc8c4521cfd428f5e9166e51094d5898504caf2d360894a13ba1a3210667c828492db98dca3e2076cc3735a920a3ca505d382bbc416464726573733a206c6f772d6c6576656c2064656c65676174652063616c6c206661696c6564a264697066735822122049ad46e48d8c20358796b12adbc31e177e7cc06157beeab57df3efce9a556f5264736f6c63430008060033496e697469616c697a61626c653a20636f6e747261637420697320616c726561",
  "devdoc": {
    "kind": "dev",
    "methods": {
      "constructor": {
        "custom:oz-upgrades-unsafe-allow": "constructor"
      },
      "getRoleAdmin(bytes32)": {
        "details": "Returns the admin role that controls `role`. See {grantRole} and {revokeRole}. To change a role's admin, use {_setRoleAdmin}."
      },
      "grantRole(bytes32,address)": {
        "details": "Grants `role` to `account`. If `account` had not been already granted `role`, emits a {RoleGranted} event. Requirements: - the caller must have ``role``'s admin role."
      },
      "hasRole(bytes32,address)": {
        "details": "Returns `true` if `account` has been granted `role`."
      },
      "proxiableUUID()": {
        "details": "Implementation of the ERC1822 {proxiableUUID} function. This returns the storage slot used by the implementation. It is used to validate that the this implementation remains valid after an upgrade. IMPORTANT: A proxy pointing at a proxiable contract should not be considered proxiable itself, because this risks bricking a proxy that upgrades to it, by delegating to itself until out of gas. Thus it is critical that this function revert if invoked through a proxy. This is guaranteed by the `notDelegated` modifier."
      },
      "renounceRole(bytes32,address)": {
        "details": "Revokes `role` from the calling account. Roles are often managed via {grantRole} and {revokeRole}: this function's purpose is to provide a mechanism for accounts to lose their privileges if they are compromised (such as when a trusted device is misplaced). If the calling account had been revoked `role`, emits a {RoleRevoked} event. Requirements: - the caller must be `account`."
      },
      "revokeRole(bytes32,address)": {
        "details": "Revokes `role` from `account`. If `account` had been granted `role`, emits a {RoleRevoked} event. Requirements: - the caller must have ``role``'s admin role."
      },
      "supportsInterface(bytes4)": {
        "details": "See {IERC165-supportsInterface}."
      },
      "upgradeTo(address)": {
        "details": "Upgrade the implementation of the proxy to `newImplementation`. Calls {_authorizeUpgrade}. Emits an {Upgraded} event."
      },
      "upgradeToAndCall(address,bytes)": {
        "details": "Upgrade the implementation of the proxy to `newImplementation`, and subsequently execute the function call encoded in `data`. Calls {_authorizeUpgrade}. Emits an {Upgraded} event."
      }
    },
    "version": 1
  },
  "userdoc": {
    "kind": "user",
    "methods": {},
    "version": 1
  },
  "storageLayout": {
    "storage": [
      {
        "astId": 808,
        "contract": "contracts/hedge/StrategyUsdPlusWmatic.sol:StrategyUsdPlusWmatic",
        "label": "_initialized",
        "offset": 0,
        "slot": "0",
        "type": "t_uint8"
      },
      {
        "astId": 811,
        "contract": "contracts/hedge/StrategyUsdPlusWmatic.sol:StrategyUsdPlusWmatic",
        "label": "_initializing",
        "offset": 1,
        "slot": "0",
        "type": "t_bool"
      },
      {
        "astId": 1466,
        "contract": "contracts/hedge/StrategyUsdPlusWmatic.sol:StrategyUsdPlusWmatic",
        "label": "__gap",
        "offset": 0,
        "slot": "1",
        "type": "t_array(t_uint256)50_storage"
      },
      {
        "astId": 1773,
        "contract": "contracts/hedge/StrategyUsdPlusWmatic.sol:StrategyUsdPlusWmatic",
        "label": "__gap",
        "offset": 0,
        "slot": "51",
        "type": "t_array(t_uint256)50_storage"
      },
      {
        "astId": 39,
        "contract": "contracts/hedge/StrategyUsdPlusWmatic.sol:StrategyUsdPlusWmatic",
        "label": "_roles",
        "offset": 0,
        "slot": "101",
        "type": "t_mapping(t_bytes32,t_struct(RoleData)34_storage)"
      },
      {
        "astId": 338,
        "contract": "contracts/hedge/StrategyUsdPlusWmatic.sol:StrategyUsdPlusWmatic",
        "label": "__gap",
        "offset": 0,
        "slot": "102",
        "type": "t_array(t_uint256)49_storage"
      },
      {
        "astId": 790,
        "contract": "contracts/hedge/StrategyUsdPlusWmatic.sol:StrategyUsdPlusWmatic",
        "label": "__gap",
        "offset": 0,
        "slot": "151",
        "type": "t_array(t_uint256)50_storage"
      },
      {
        "astId": 1078,
        "contract": "contracts/hedge/StrategyUsdPlusWmatic.sol:StrategyUsdPlusWmatic",
        "label": "__gap",
        "offset": 0,
        "slot": "201",
        "type": "t_array(t_uint256)50_storage"
      },
      {
        "astId": 34678,
        "contract": "contracts/hedge/StrategyUsdPlusWmatic.sol:StrategyUsdPlusWmatic",
        "label": "asset",
        "offset": 0,
        "slot": "251",
        "type": "t_contract(IERC20)2512"
      },
      {
        "astId": 34680,
        "contract": "contracts/hedge/StrategyUsdPlusWmatic.sol:StrategyUsdPlusWmatic",
        "label": "exchanger",
        "offset": 0,
        "slot": "252",
        "type": "t_address"
      },
      {
        "astId": 34968,
        "contract": "contracts/hedge/StrategyUsdPlusWmatic.sol:StrategyUsdPlusWmatic",
        "label": "__gap",
        "offset": 0,
        "slot": "253",
        "type": "t_array(t_uint256)49_storage"
      },
      {
        "astId": 37517,
        "contract": "contracts/hedge/StrategyUsdPlusWmatic.sol:StrategyUsdPlusWmatic",
        "label": "exchange",
        "offset": 0,
        "slot": "302",
        "type": "t_contract(IExchange)39707"
      },
      {
        "astId": 37520,
        "contract": "contracts/hedge/StrategyUsdPlusWmatic.sol:StrategyUsdPlusWmatic",
        "label": "usdPlus",
        "offset": 0,
        "slot": "303",
        "type": "t_contract(IERC20)2512"
      },
      {
        "astId": 37523,
        "contract": "contracts/hedge/StrategyUsdPlusWmatic.sol:StrategyUsdPlusWmatic",
        "label": "usdc",
        "offset": 0,
        "slot": "304",
        "type": "t_contract(IERC20)2512"
      },
      {
        "astId": 37526,
        "contract": "contracts/hedge/StrategyUsdPlusWmatic.sol:StrategyUsdPlusWmatic",
        "label": "aUsdc",
        "offset": 0,
        "slot": "305",
        "type": "t_contract(IERC20)2512"
      },
      {
        "astId": 37529,
        "contract": "contracts/hedge/StrategyUsdPlusWmatic.sol:StrategyUsdPlusWmatic",
        "label": "wmatic",
        "offset": 0,
        "slot": "306",
        "type": "t_contract(IERC20)2512"
      },
      {
        "astId": 37532,
        "contract": "contracts/hedge/StrategyUsdPlusWmatic.sol:StrategyUsdPlusWmatic",
        "label": "dyst",
        "offset": 0,
        "slot": "307",
        "type": "t_contract(IERC20)2512"
      },
      {
        "astId": 37534,
        "contract": "contracts/hedge/StrategyUsdPlusWmatic.sol:StrategyUsdPlusWmatic",
        "label": "usdcDm",
        "offset": 0,
        "slot": "308",
        "type": "t_uint256"
      },
      {
        "astId": 37536,
        "contract": "contracts/hedge/StrategyUsdPlusWmatic.sol:StrategyUsdPlusWmatic",
        "label": "wmaticDm",
        "offset": 0,
        "slot": "309",
        "type": "t_uint256"
      },
      {
        "astId": 37539,
        "contract": "contracts/hedge/StrategyUsdPlusWmatic.sol:StrategyUsdPlusWmatic",
        "label": "dystRouter",
        "offset": 0,
        "slot": "310",
        "type": "t_contract(IDystopiaRouter)30533"
      },
      {
        "astId": 37542,
        "contract": "contracts/hedge/StrategyUsdPlusWmatic.sol:StrategyUsdPlusWmatic",
        "label": "dystRewards",
        "offset": 0,
        "slot": "311",
        "type": "t_contract(IDystopiaLP)30417"
      },
      {
        "astId": 37545,
        "contract": "contracts/hedge/StrategyUsdPlusWmatic.sol:StrategyUsdPlusWmatic",
        "label": "dystVault",
        "offset": 0,
        "slot": "312",
        "type": "t_contract(IDystopiaLP)30417"
      },
      {
        "astId": 37548,
        "contract": "contracts/hedge/StrategyUsdPlusWmatic.sol:StrategyUsdPlusWmatic",
        "label": "penToken",
        "offset": 0,
        "slot": "313",
        "type": "t_contract(IERC20)2512"
      },
      {
        "astId": 37551,
        "contract": "contracts/hedge/StrategyUsdPlusWmatic.sol:StrategyUsdPlusWmatic",
        "label": "penProxy",
        "offset": 0,
        "slot": "314",
        "type": "t_contract(IUserProxy)31969"
      },
      {
        "astId": 37554,
        "contract": "contracts/hedge/StrategyUsdPlusWmatic.sol:StrategyUsdPlusWmatic",
        "label": "penLens",
        "offset": 0,
        "slot": "315",
        "type": "t_contract(IPenLens)31668"
      },
      {
        "astId": 37557,
        "contract": "contracts/hedge/StrategyUsdPlusWmatic.sol:StrategyUsdPlusWmatic",
        "label": "aavePoolAddressesProvider",
        "offset": 0,
        "slot": "316",
        "type": "t_contract(IPoolAddressesProvider)27370"
      },
      {
        "astId": 37560,
        "contract": "contracts/hedge/StrategyUsdPlusWmatic.sol:StrategyUsdPlusWmatic",
        "label": "oracleUsdc",
        "offset": 0,
        "slot": "317",
        "type": "t_contract(IPriceFeed)27378"
      },
      {
        "astId": 37563,
        "contract": "contracts/hedge/StrategyUsdPlusWmatic.sol:StrategyUsdPlusWmatic",
        "label": "oracleWmatic",
        "offset": 0,
        "slot": "318",
        "type": "t_contract(IPriceFeed)27378"
      },
      {
        "astId": 37565,
        "contract": "contracts/hedge/StrategyUsdPlusWmatic.sol:StrategyUsdPlusWmatic",
        "label": "usdcStorage",
        "offset": 0,
        "slot": "319",
        "type": "t_uint256"
      },
      {
        "astId": 37567,
        "contract": "contracts/hedge/StrategyUsdPlusWmatic.sol:StrategyUsdPlusWmatic",
        "label": "liquidationThreshold",
        "offset": 0,
        "slot": "320",
        "type": "t_uint256"
      },
      {
        "astId": 37569,
        "contract": "contracts/hedge/StrategyUsdPlusWmatic.sol:StrategyUsdPlusWmatic",
        "label": "healthFactor",
        "offset": 0,
        "slot": "321",
        "type": "t_uint256"
      },
      {
        "astId": 37571,
        "contract": "contracts/hedge/StrategyUsdPlusWmatic.sol:StrategyUsdPlusWmatic",
        "label": "balancingDelta",
        "offset": 0,
        "slot": "322",
        "type": "t_uint256"
      },
      {
        "astId": 37573,
        "contract": "contracts/hedge/StrategyUsdPlusWmatic.sol:StrategyUsdPlusWmatic",
        "label": "realHealthFactor",
        "offset": 0,
        "slot": "323",
        "type": "t_uint256"
      }
    ],
    "types": {
      "t_address": {
        "encoding": "inplace",
        "label": "address",
        "numberOfBytes": "20"
      },
      "t_array(t_uint256)49_storage": {
        "base": "t_uint256",
        "encoding": "inplace",
        "label": "uint256[49]",
        "numberOfBytes": "1568"
      },
      "t_array(t_uint256)50_storage": {
        "base": "t_uint256",
        "encoding": "inplace",
        "label": "uint256[50]",
        "numberOfBytes": "1600"
      },
      "t_bool": {
        "encoding": "inplace",
        "label": "bool",
        "numberOfBytes": "1"
      },
      "t_bytes32": {
        "encoding": "inplace",
        "label": "bytes32",
        "numberOfBytes": "32"
      },
      "t_contract(IDystopiaLP)30417": {
        "encoding": "inplace",
        "label": "contract IDystopiaLP",
        "numberOfBytes": "20"
      },
      "t_contract(IDystopiaRouter)30533": {
        "encoding": "inplace",
        "label": "contract IDystopiaRouter",
        "numberOfBytes": "20"
      },
      "t_contract(IERC20)2512": {
        "encoding": "inplace",
        "label": "contract IERC20",
        "numberOfBytes": "20"
      },
      "t_contract(IExchange)39707": {
        "encoding": "inplace",
        "label": "contract IExchange",
        "numberOfBytes": "20"
      },
      "t_contract(IPenLens)31668": {
        "encoding": "inplace",
        "label": "contract IPenLens",
        "numberOfBytes": "20"
      },
      "t_contract(IPoolAddressesProvider)27370": {
        "encoding": "inplace",
        "label": "contract IPoolAddressesProvider",
        "numberOfBytes": "20"
      },
      "t_contract(IPriceFeed)27378": {
        "encoding": "inplace",
        "label": "contract IPriceFeed",
        "numberOfBytes": "20"
      },
      "t_contract(IUserProxy)31969": {
        "encoding": "inplace",
        "label": "contract IUserProxy",
        "numberOfBytes": "20"
      },
      "t_mapping(t_address,t_bool)": {
        "encoding": "mapping",
        "key": "t_address",
        "label": "mapping(address => bool)",
        "numberOfBytes": "32",
        "value": "t_bool"
      },
      "t_mapping(t_bytes32,t_struct(RoleData)34_storage)": {
        "encoding": "mapping",
        "key": "t_bytes32",
        "label": "mapping(bytes32 => struct AccessControlUpgradeable.RoleData)",
        "numberOfBytes": "32",
        "value": "t_struct(RoleData)34_storage"
      },
      "t_struct(RoleData)34_storage": {
        "encoding": "inplace",
        "label": "struct AccessControlUpgradeable.RoleData",
        "members": [
          {
            "astId": 31,
            "contract": "contracts/hedge/StrategyUsdPlusWmatic.sol:StrategyUsdPlusWmatic",
            "label": "members",
            "offset": 0,
            "slot": "0",
            "type": "t_mapping(t_address,t_bool)"
          },
          {
            "astId": 33,
            "contract": "contracts/hedge/StrategyUsdPlusWmatic.sol:StrategyUsdPlusWmatic",
            "label": "adminRole",
            "offset": 0,
            "slot": "1",
            "type": "t_bytes32"
          }
        ],
        "numberOfBytes": "64"
      },
      "t_uint256": {
        "encoding": "inplace",
        "label": "uint256",
        "numberOfBytes": "32"
      },
      "t_uint8": {
        "encoding": "inplace",
        "label": "uint8",
        "numberOfBytes": "1"
      }
    }
  }
}