{
  "address": "0x4CAAF354283080692Bf4B6C56354dE7CBF7003b7",
  "abi": [
    {
      "inputs": [],
      "stateMutability": "nonpayable",
      "type": "constructor"
    },
    {
      "anonymous": false,
      "inputs": [
        {
          "indexed": false,
          "internalType": "address",
          "name": "previousAdmin",
          "type": "address"
        },
        {
          "indexed": false,
          "internalType": "address",
          "name": "newAdmin",
          "type": "address"
        }
      ],
      "name": "AdminChanged",
      "type": "event"
    },
    {
      "anonymous": false,
      "inputs": [
        {
          "indexed": false,
          "internalType": "uint256",
          "name": "healthFactor",
          "type": "uint256"
        }
      ],
      "name": "BalanceHealthFactor",
      "type": "event"
    },
    {
      "anonymous": false,
      "inputs": [
        {
          "indexed": true,
          "internalType": "address",
          "name": "beacon",
          "type": "address"
        }
      ],
      "name": "BeaconUpgraded",
      "type": "event"
    },
    {
      "anonymous": false,
      "inputs": [
        {
          "indexed": false,
          "internalType": "uint8",
          "name": "version",
          "type": "uint8"
        }
      ],
      "name": "Initialized",
      "type": "event"
    },
    {
      "anonymous": false,
      "inputs": [
        {
          "indexed": false,
          "internalType": "address",
          "name": "value",
          "type": "address"
        }
      ],
      "name": "PortfolioManagerUpdated",
      "type": "event"
    },
    {
      "anonymous": false,
      "inputs": [
        {
          "indexed": false,
          "internalType": "uint256",
          "name": "amount",
          "type": "uint256"
        }
      ],
      "name": "Reward",
      "type": "event"
    },
    {
      "anonymous": false,
      "inputs": [
        {
          "indexed": true,
          "internalType": "bytes32",
          "name": "role",
          "type": "bytes32"
        },
        {
          "indexed": true,
          "internalType": "bytes32",
          "name": "previousAdminRole",
          "type": "bytes32"
        },
        {
          "indexed": true,
          "internalType": "bytes32",
          "name": "newAdminRole",
          "type": "bytes32"
        }
      ],
      "name": "RoleAdminChanged",
      "type": "event"
    },
    {
      "anonymous": false,
      "inputs": [
        {
          "indexed": true,
          "internalType": "bytes32",
          "name": "role",
          "type": "bytes32"
        },
        {
          "indexed": true,
          "internalType": "address",
          "name": "account",
          "type": "address"
        },
        {
          "indexed": true,
          "internalType": "address",
          "name": "sender",
          "type": "address"
        }
      ],
      "name": "RoleGranted",
      "type": "event"
    },
    {
      "anonymous": false,
      "inputs": [
        {
          "indexed": true,
          "internalType": "bytes32",
          "name": "role",
          "type": "bytes32"
        },
        {
          "indexed": true,
          "internalType": "address",
          "name": "account",
          "type": "address"
        },
        {
          "indexed": true,
          "internalType": "address",
          "name": "sender",
          "type": "address"
        }
      ],
      "name": "RoleRevoked",
      "type": "event"
    },
    {
      "anonymous": false,
      "inputs": [
        {
          "indexed": false,
          "internalType": "uint256",
          "name": "healthFactor",
          "type": "uint256"
        }
      ],
      "name": "SetHealthFactor",
      "type": "event"
    },
    {
      "anonymous": false,
      "inputs": [
        {
          "indexed": false,
          "internalType": "uint256",
          "name": "amount",
          "type": "uint256"
        }
      ],
      "name": "Stake",
      "type": "event"
    },
    {
      "anonymous": false,
      "inputs": [
        {
          "indexed": false,
          "internalType": "address",
          "name": "stargateRouter",
          "type": "address"
        },
        {
          "indexed": false,
          "internalType": "address",
          "name": "pool",
          "type": "address"
        },
        {
          "indexed": false,
          "internalType": "address",
          "name": "lpStaking",
          "type": "address"
        },
        {
          "indexed": false,
          "internalType": "uint256",
          "name": "pid",
          "type": "uint256"
        },
        {
          "indexed": false,
          "internalType": "address",
          "name": "sushiSwapRouter",
          "type": "address"
        }
      ],
      "name": "StrategyUpdatedParams",
      "type": "event"
    },
    {
      "anonymous": false,
      "inputs": [
        {
          "indexed": false,
          "internalType": "address",
          "name": "usdcToken",
          "type": "address"
        },
        {
          "indexed": false,
          "internalType": "address",
          "name": "stgToken",
          "type": "address"
        }
      ],
      "name": "StrategyUpdatedTokens",
      "type": "event"
    },
    {
      "anonymous": false,
      "inputs": [
        {
          "indexed": false,
          "internalType": "uint256",
          "name": "amount",
          "type": "uint256"
        },
        {
          "indexed": false,
          "internalType": "uint256",
          "name": "amountReceived",
          "type": "uint256"
        }
      ],
      "name": "Unstake",
      "type": "event"
    },
    {
      "anonymous": false,
      "inputs": [
        {
          "indexed": true,
          "internalType": "address",
          "name": "implementation",
          "type": "address"
        }
      ],
      "name": "Upgraded",
      "type": "event"
    },
    {
      "inputs": [],
      "name": "BASIS_POINTS_FOR_SLIPPAGE",
      "outputs": [
        {
          "internalType": "uint256",
          "name": "",
          "type": "uint256"
        }
      ],
      "stateMutability": "view",
      "type": "function"
    },
    {
      "inputs": [],
      "name": "DEFAULT_ADMIN_ROLE",
      "outputs": [
        {
          "internalType": "bytes32",
          "name": "",
          "type": "bytes32"
        }
      ],
      "stateMutability": "view",
      "type": "function"
    },
    {
      "inputs": [],
      "name": "PORTFOLIO_MANAGER",
      "outputs": [
        {
          "internalType": "bytes32",
          "name": "",
          "type": "bytes32"
        }
      ],
      "stateMutability": "view",
      "type": "function"
    },
    {
      "inputs": [],
      "name": "UPGRADER_ROLE",
      "outputs": [
        {
          "internalType": "bytes32",
          "name": "",
          "type": "bytes32"
        }
      ],
      "stateMutability": "view",
      "type": "function"
    },
    {
      "inputs": [
        {
          "internalType": "address",
          "name": "_to",
          "type": "address"
        }
      ],
      "name": "claimRewards",
      "outputs": [
        {
          "internalType": "uint256",
          "name": "",
          "type": "uint256"
        }
      ],
      "stateMutability": "nonpayable",
      "type": "function"
    },
    {
      "inputs": [
        {
          "internalType": "bytes32",
          "name": "role",
          "type": "bytes32"
        }
      ],
      "name": "getRoleAdmin",
      "outputs": [
        {
          "internalType": "bytes32",
          "name": "",
          "type": "bytes32"
        }
      ],
      "stateMutability": "view",
      "type": "function"
    },
    {
      "inputs": [
        {
          "internalType": "bytes32",
          "name": "role",
          "type": "bytes32"
        },
        {
          "internalType": "address",
          "name": "account",
          "type": "address"
        }
      ],
      "name": "grantRole",
      "outputs": [],
      "stateMutability": "nonpayable",
      "type": "function"
    },
    {
      "inputs": [
        {
          "internalType": "bytes32",
          "name": "role",
          "type": "bytes32"
        },
        {
          "internalType": "address",
          "name": "account",
          "type": "address"
        }
      ],
      "name": "hasRole",
      "outputs": [
        {
          "internalType": "bool",
          "name": "",
          "type": "bool"
        }
      ],
      "stateMutability": "view",
      "type": "function"
    },
    {
      "inputs": [],
      "name": "healthFactorBalance",
      "outputs": [],
      "stateMutability": "nonpayable",
      "type": "function"
    },
    {
      "inputs": [],
      "name": "initialize",
      "outputs": [],
      "stateMutability": "nonpayable",
      "type": "function"
    },
    {
      "inputs": [],
      "name": "liquidationValue",
      "outputs": [
        {
          "internalType": "uint256",
          "name": "",
          "type": "uint256"
        }
      ],
      "stateMutability": "view",
      "type": "function"
    },
    {
      "inputs": [],
      "name": "lpStaking",
      "outputs": [
        {
          "internalType": "contract ILPStaking",
          "name": "",
          "type": "address"
        }
      ],
      "stateMutability": "view",
      "type": "function"
    },
    {
      "inputs": [],
      "name": "netAssetValue",
      "outputs": [
        {
          "internalType": "uint256",
          "name": "",
          "type": "uint256"
        }
      ],
      "stateMutability": "view",
      "type": "function"
    },
    {
      "inputs": [],
      "name": "pid",
      "outputs": [
        {
          "internalType": "uint256",
          "name": "",
          "type": "uint256"
        }
      ],
      "stateMutability": "view",
      "type": "function"
    },
    {
      "inputs": [],
      "name": "pool",
      "outputs": [
        {
          "internalType": "contract IPool",
          "name": "",
          "type": "address"
        }
      ],
      "stateMutability": "view",
      "type": "function"
    },
    {
      "inputs": [],
      "name": "portfolioManager",
      "outputs": [
        {
          "internalType": "address",
          "name": "",
          "type": "address"
        }
      ],
      "stateMutability": "view",
      "type": "function"
    },
    {
      "inputs": [],
      "name": "proxiableUUID",
      "outputs": [
        {
          "internalType": "bytes32",
          "name": "",
          "type": "bytes32"
        }
      ],
      "stateMutability": "view",
      "type": "function"
    },
    {
      "inputs": [
        {
          "internalType": "bytes32",
          "name": "role",
          "type": "bytes32"
        },
        {
          "internalType": "address",
          "name": "account",
          "type": "address"
        }
      ],
      "name": "renounceRole",
      "outputs": [],
      "stateMutability": "nonpayable",
      "type": "function"
    },
    {
      "inputs": [
        {
          "internalType": "bytes32",
          "name": "role",
          "type": "bytes32"
        },
        {
          "internalType": "address",
          "name": "account",
          "type": "address"
        }
      ],
      "name": "revokeRole",
      "outputs": [],
      "stateMutability": "nonpayable",
      "type": "function"
    },
    {
      "inputs": [
        {
          "internalType": "uint256",
          "name": "healthFactor",
          "type": "uint256"
        }
      ],
      "name": "setHealthFactor",
      "outputs": [],
      "stateMutability": "nonpayable",
      "type": "function"
    },
    {
      "inputs": [
        {
          "internalType": "address",
          "name": "_stargateRouter",
          "type": "address"
        },
        {
          "internalType": "address",
          "name": "_pool",
          "type": "address"
        },
        {
          "internalType": "address",
          "name": "_lpStaking",
          "type": "address"
        },
        {
          "internalType": "uint256",
          "name": "_pid",
          "type": "uint256"
        },
        {
          "internalType": "address",
          "name": "_sushiSwapRouter",
          "type": "address"
        }
      ],
      "name": "setParams",
      "outputs": [],
      "stateMutability": "nonpayable",
      "type": "function"
    },
    {
      "inputs": [
        {
          "internalType": "address",
          "name": "_value",
          "type": "address"
        }
      ],
      "name": "setPortfolioManager",
      "outputs": [],
      "stateMutability": "nonpayable",
      "type": "function"
    },
    {
      "inputs": [
        {
          "internalType": "address",
          "name": "_usdcToken",
          "type": "address"
        },
        {
          "internalType": "address",
          "name": "_stgToken",
          "type": "address"
        }
      ],
      "name": "setTokens",
      "outputs": [],
      "stateMutability": "nonpayable",
      "type": "function"
    },
    {
      "inputs": [
        {
          "internalType": "address",
          "name": "_asset",
          "type": "address"
        },
        {
          "internalType": "uint256",
          "name": "_amount",
          "type": "uint256"
        }
      ],
      "name": "stake",
      "outputs": [],
      "stateMutability": "nonpayable",
      "type": "function"
    },
    {
      "inputs": [],
      "name": "stargateRouter",
      "outputs": [
        {
          "internalType": "contract IStargateRouter",
          "name": "",
          "type": "address"
        }
      ],
      "stateMutability": "view",
      "type": "function"
    },
    {
      "inputs": [],
      "name": "stgToken",
      "outputs": [
        {
          "internalType": "contract IERC20",
          "name": "",
          "type": "address"
        }
      ],
      "stateMutability": "view",
      "type": "function"
    },
    {
      "inputs": [
        {
          "internalType": "bytes4",
          "name": "interfaceId",
          "type": "bytes4"
        }
      ],
      "name": "supportsInterface",
      "outputs": [
        {
          "internalType": "bool",
          "name": "",
          "type": "bool"
        }
      ],
      "stateMutability": "view",
      "type": "function"
    },
    {
      "inputs": [
        {
          "internalType": "address",
          "name": "_asset",
          "type": "address"
        },
        {
          "internalType": "uint256",
          "name": "_amount",
          "type": "uint256"
        },
        {
          "internalType": "address",
          "name": "_beneficiary",
          "type": "address"
        },
        {
          "internalType": "bool",
          "name": "_targetIsZero",
          "type": "bool"
        }
      ],
      "name": "unstake",
      "outputs": [
        {
          "internalType": "uint256",
          "name": "",
          "type": "uint256"
        }
      ],
      "stateMutability": "nonpayable",
      "type": "function"
    },
    {
      "inputs": [
        {
          "internalType": "address",
          "name": "newImplementation",
          "type": "address"
        }
      ],
      "name": "upgradeTo",
      "outputs": [],
      "stateMutability": "nonpayable",
      "type": "function"
    },
    {
      "inputs": [
        {
          "internalType": "address",
          "name": "newImplementation",
          "type": "address"
        },
        {
          "internalType": "bytes",
          "name": "data",
          "type": "bytes"
        }
      ],
      "name": "upgradeToAndCall",
      "outputs": [],
      "stateMutability": "payable",
      "type": "function"
    },
    {
      "inputs": [],
      "name": "usdcToken",
      "outputs": [
        {
          "internalType": "contract IERC20",
          "name": "",
          "type": "address"
        }
      ],
      "stateMutability": "view",
      "type": "function"
    }
  ],
  "numDeployments": 1,
  "solcInputHash": "7c6775ec96054550c95d98db052bc1f7",
  "bytecode": "0x60a06040523060601b6080523480156200001857600080fd5b5060006200002760016200008e565b9050801562000040576000805461ff0019166101001790555b801562000087576000805461ff0019169055604051600181527f7f26b83ff96e1f2b6a682f133852f6798a09c465da95921460cefb38474024989060200160405180910390a15b50620001af565b60008054610100900460ff161562000127578160ff166001148015620000c75750620000c530620001a060201b620010b61760201c565b155b6200011f5760405162461bcd60e51b815260206004820152602e6024820152600080516020620035c183398151915260448201526d191e481a5b9a5d1a585b1a5e995960921b60648201526084015b60405180910390fd5b506000919050565b60005460ff808416911610620001865760405162461bcd60e51b815260206004820152602e6024820152600080516020620035c183398151915260448201526d191e481a5b9a5d1a585b1a5e995960921b606482015260840162000116565b506000805460ff191660ff92909216919091179055600190565b6001600160a01b03163b151590565b60805160601c6133d7620001ea6000396000818161071a0152818161075a015281816107fa0152818161083a01526108c901526133d76000f3fe6080604052600436106101d85760003560e01c806391d1485411610102578063cbc7854e11610095578063f664b3d911610064578063f664b3d914610524578063f6f6b88114610539578063f72c0d8b14610559578063f8f695431461058d57600080fd5b8063cbc7854e146104ad578063d547741f146104cd578063ef5cfb8c146104ed578063f10684541461050d57600080fd5b8063a3673b38116100d1578063a3673b38146102aa578063a440b21a1461044c578063a9e56f3c1461046c578063adc9772e1461048d57600080fd5b806391d14854146103d55780639afb25de146103f55780639bf1401c14610416578063a217fddf1461043757600080fd5b806336568abe1161017a578063620b75df11610149578063620b75df146103695780637b73aa4e146103895780637d5f58021461039e5780638129fc1c146103c057600080fd5b806336568abe146103015780633659cfe6146103215780634f1ef2861461034157806352d1902d1461035457600080fd5b8063248a9ca3116101b6578063248a9ca31461026c5780632576e65a146102aa5780632f2ff15d146102bf57806331111708146102e157600080fd5b806301ffc9a7146101dd57806311eac8551461021257806316f0115b1461024b575b600080fd5b3480156101e957600080fd5b506101fd6101f8366004612ea2565b6105ad565b60405190151581526020015b60405180910390f35b34801561021e57600080fd5b5061015f54610233906001600160a01b031681565b6040516001600160a01b039091168152602001610209565b34801561025757600080fd5b5061016254610233906001600160a01b031681565b34801561027857600080fd5b5061029c610287366004612e4d565b60009081526065602052604090206001015490565b604051908152602001610209565b3480156102b657600080fd5b5061029c6105e4565b3480156102cb57600080fd5b506102df6102da366004612e7f565b6105f3565b005b3480156102ed57600080fd5b506102df6102fc366004612e4d565b61061d565b34801561030d57600080fd5b506102df61031c366004612e7f565b610691565b34801561032d57600080fd5b506102df61033c366004612bb8565b61070f565b6102df61034f366004612c64565b6107ef565b34801561036057600080fd5b5061029c6108bc565b34801561037557600080fd5b5060fb54610233906001600160a01b031681565b34801561039557600080fd5b506102df61096f565b3480156103aa57600080fd5b5061029c60008051602061333b83398151915281565b3480156103cc57600080fd5b506102df6109a5565b3480156103e157600080fd5b506101fd6103f0366004612e7f565b610a13565b34801561040157600080fd5b5061016054610233906001600160a01b031681565b34801561042257600080fd5b5061016354610233906001600160a01b031681565b34801561044357600080fd5b5061029c600081565b34801561045857600080fd5b506102df610467366004612bb8565b610a3e565b34801561047857600080fd5b5061016154610233906001600160a01b031681565b34801561049957600080fd5b506102df6104a8366004612d0a565b610b16565b3480156104b957600080fd5b506102df6104c8366004612bd3565b610bff565b3480156104d957600080fd5b506102df6104e8366004612e7f565b610ce2565b3480156104f957600080fd5b5061029c610508366004612bb8565b610d07565b34801561051957600080fd5b5061029c6101645481565b34801561053057600080fd5b5061029c600481565b34801561054557600080fd5b5061029c610554366004612d34565b610d8b565b34801561056557600080fd5b5061029c7f189ab7a9244df0848122154315af71fe140f3db0fe014031783b0946b8c9d2e381565b34801561059957600080fd5b506102df6105a8366004612c06565b610f4b565b60006001600160e01b03198216637965db0b60e01b14806105de57506301ffc9a760e01b6001600160e01b03198316145b92915050565b60006105ee6110c5565b905090565b60008281526065602052604090206001015461060e8161126c565b6106188383611276565b505050565b61063560008051602061333b83398151915233610a13565b61065a5760405162461bcd60e51b815260040161065190612ff8565b60405180910390fd5b6040518181527ff00d5f5126966481831a71a9d79a9b3af67c4a1a35637b992c7e465a7e465b71906020015b60405180910390a150565b6001600160a01b03811633146107015760405162461bcd60e51b815260206004820152602f60248201527f416363657373436f6e74726f6c3a2063616e206f6e6c792072656e6f756e636560448201526e103937b632b9903337b91039b2b63360891b6064820152608401610651565b61070b82826112fc565b5050565b306001600160a01b037f00000000000000000000000000000000000000000000000000000000000000001614156107585760405162461bcd60e51b81526004016106519061302f565b7f00000000000000000000000000000000000000000000000000000000000000006001600160a01b03166107a160008051602061335b833981519152546001600160a01b031690565b6001600160a01b0316146107c75760405162461bcd60e51b81526004016106519061307b565b6107d081611363565b604080516000808252602082019092526107ec9183919061138d565b50565b306001600160a01b037f00000000000000000000000000000000000000000000000000000000000000001614156108385760405162461bcd60e51b81526004016106519061302f565b7f00000000000000000000000000000000000000000000000000000000000000006001600160a01b031661088160008051602061335b833981519152546001600160a01b031690565b6001600160a01b0316146108a75760405162461bcd60e51b81526004016106519061307b565b6108b082611363565b61070b8282600161138d565b6000306001600160a01b037f0000000000000000000000000000000000000000000000000000000000000000161461095c5760405162461bcd60e51b815260206004820152603860248201527f555550535570677261646561626c653a206d757374206e6f742062652063616c60448201527f6c6564207468726f7567682064656c656761746563616c6c00000000000000006064820152608401610651565b5060008051602061335b83398151915290565b61098760008051602061333b83398151915233610a13565b6109a35760405162461bcd60e51b815260040161065190612ff8565b565b60006109b16001611507565b905080156109c9576000805461ff0019166101001790555b6109d161158f565b80156107ec576000805461ff0019169055604051600181527f7f26b83ff96e1f2b6a682f133852f6798a09c465da95921460cefb384740249890602001610686565b60009182526065602090815260408084206001600160a01b0393909316845291905290205460ff1690565b610a49600033610a13565b610a655760405162461bcd60e51b815260040161065190613115565b6001600160a01b038116610a8b5760405162461bcd60e51b81526004016106519061317a565b60fb54610ab09060008051602061333b833981519152906001600160a01b0316610ce2565b610ac860008051602061333b833981519152826105f3565b60fb80546001600160a01b0319166001600160a01b0383169081179091556040519081527ff7b449fcd5cfb7379dcd34cb69428dd9f882033b15be33d83b42d91daa28eeb790602001610686565b610b2e60008051602061333b83398151915233610a13565b610b4a5760405162461bcd60e51b815260040161065190612ff8565b6040518181527f227a473b70d2f893cc7659219575c030a63b5743024fe1e0c1a680e708b1525a9060200160405180910390a16040516370a0823160e01b815230600482015261070b9083906001600160a01b038216906370a082319060240160206040518083038186803b158015610bc257600080fd5b505afa158015610bd6573d6000803e3d6000fd5b505050506040513d601f19601f82011682018060405250810190610bfa9190612e66565b6115f8565b610c0a600033610a13565b610c265760405162461bcd60e51b815260040161065190613115565b6001600160a01b038216610c4c5760405162461bcd60e51b81526004016106519061317a565b6001600160a01b038116610c725760405162461bcd60e51b81526004016106519061317a565b61015f80546001600160a01b038481166001600160a01b0319928316811790935561016080549185169190921681179091556040805192835260208301919091527f889d5d0c806459b3c6d30b5fcb676b340f7b990a5c3048741bc9c41f57a8b65a910160405180910390a15050565b600082815260656020526040902060010154610cfd8161126c565b61061883836112fc565b6000610d2160008051602061333b83398151915233610a13565b610d3d5760405162461bcd60e51b815260040161065190612ff8565b6000610d488361199c565b90507f3ac0594a85a20354f9dc74f33728416d19ce00d04a406c108cc2dcf2cecea13481604051610d7b91815260200190565b60405180910390a190505b919050565b6000610da560008051602061333b83398151915233610a13565b610dc15760405162461bcd60e51b815260040161065190612ff8565b60008215610e15577f3ac0594a85a20354f9dc74f33728416d19ce00d04a406c108cc2dcf2cecea134610df38561199c565b60405190815260200160405180910390a1610e0e8685611bf7565b9050610e84565b610e20868686611fbe565b905084811015610e845760405162461bcd60e51b815260206004820152602960248201527f52657475726e65642076616c7565206c657373207468616e2072657175657374604482015268195908185b5bdd5b9d60ba1b6064820152608401610651565b60405163a9059cbb60e01b81526001600160a01b0385811660048301526024820183905287169063a9059cbb90604401602060405180830381600087803b158015610ece57600080fd5b505af1158015610ee2573d6000803e3d6000fd5b505050506040513d601f19601f82011682018060405250810190610f069190612e30565b5060408051868152602081018390527f9045c2ac9b2026de8075f2701bbdde882cd5e830b3b1ead9a15b22f2b5b93742910160405180910390a190505b949350505050565b610f56600033610a13565b610f725760405162461bcd60e51b815260040161065190613115565b6001600160a01b038516610f985760405162461bcd60e51b81526004016106519061317a565b6001600160a01b038416610fbe5760405162461bcd60e51b81526004016106519061317a565b6001600160a01b038316610fe45760405162461bcd60e51b81526004016106519061317a565b6001600160a01b03811661100a5760405162461bcd60e51b81526004016106519061317a565b61016180546001600160a01b038781166001600160a01b03199283168117909355610162805488831690841681179091556101638054888416908516811790915561016487905561012d805493871693909416831790935560408051948552602085019190915283810192909252606083018590526080830152517ff11fc84b25cc4d09b9001d7f4d76644f71323ec76dbb1e83050aed310315e0e39181900360a00190a15050505050565b6001600160a01b03163b151590565b61015f546040516370a0823160e01b815230600482015260009182916001600160a01b03909116906370a082319060240160206040518083038186803b15801561110e57600080fd5b505afa158015611122573d6000803e3d6000fd5b505050506040513d601f19601f820116820180604052508101906111469190612e66565b61016354610164546040516393f1a40b60e01b815260048101919091523060248201529192506000916001600160a01b03909116906393f1a40b90604401604080518083038186803b15801561119b57600080fd5b505afa1580156111af573d6000803e3d6000fd5b505050506040513d601f19601f820116820180604052508101906111d39190612ecc565b50905080156112665761016254604051637b669af760e11b8152600481018390526001600160a01b039091169063f6cd35ee9060240160206040518083038186803b15801561122157600080fd5b505afa158015611235573d6000803e3d6000fd5b505050506040513d601f19601f820116820180604052508101906112599190612e66565b6112639083613237565b91505b50919050565b6107ec81336123c3565b6112808282610a13565b61070b5760008281526065602090815260408083206001600160a01b03851684529091529020805460ff191660011790556112b83390565b6001600160a01b0316816001600160a01b0316837f2f8788117e7eff1d82e926ec794901d17c78024a50270940304540a733656f0d60405160405180910390a45050565b6113068282610a13565b1561070b5760008281526065602090815260408083206001600160a01b0385168085529252808320805460ff1916905551339285917ff6391f5c32d9c69d2a47ea670b442974b53935d1edc7fd64eb21e047a839171b9190a45050565b7f189ab7a9244df0848122154315af71fe140f3db0fe014031783b0946b8c9d2e361070b8161126c565b7f4910fdfa16fed3260ed0e7147f7cc6da11a60208b5b9406d12a635614ffd91435460ff16156113c05761061883612427565b826001600160a01b03166352d1902d6040518163ffffffff1660e01b815260040160206040518083038186803b1580156113f957600080fd5b505afa925050508015611429575060408051601f3d908101601f1916820190925261142691810190612e66565b60015b61148c5760405162461bcd60e51b815260206004820152602e60248201527f45524331393637557067726164653a206e657720696d706c656d656e7461746960448201526d6f6e206973206e6f74205555505360901b6064820152608401610651565b60008051602061335b83398151915281146114fb5760405162461bcd60e51b815260206004820152602960248201527f45524331393637557067726164653a20756e737570706f727465642070726f786044820152681a58589b195555525160ba1b6064820152608401610651565b506106188383836124c3565b60008054610100900460ff161561154e578160ff16600114801561152a5750303b155b6115465760405162461bcd60e51b8152600401610651906130c7565b506000919050565b60005460ff8084169116106115755760405162461bcd60e51b8152600401610651906130c7565b506000805460ff191660ff92909216919091179055600190565b600061159b6001611507565b905080156115b3576000805461ff0019166101001790555b6115bb6124ee565b6115c36124ee565b6115ce600033611276565b6109d17f189ab7a9244df0848122154315af71fe140f3db0fe014031783b0946b8c9d2e333611276565b61015f546001600160a01b038381169116146116265760405162461bcd60e51b815260040161065190613143565b61015f546040516370a0823160e01b81523060048201526000916001600160a01b0316906370a082319060240160206040518083038186803b15801561166b57600080fd5b505afa15801561167f573d6000803e3d6000fd5b505050506040513d601f19601f820116820180604052508101906116a39190612e66565b61015f546101615460405163095ea7b360e01b81526001600160a01b03918216600482015260248101849052929350169063095ea7b390604401602060405180830381600087803b1580156116f757600080fd5b505af115801561170b573d6000803e3d6000fd5b505050506040513d601f19601f8201168201806040525081019061172f9190612e30565b50610161546101625460408051631f06e1a760e11b815290516001600160a01b03938416936387b21efc931691633e0dc34e916004808301926020929190829003018186803b15801561178157600080fd5b505afa158015611795573d6000803e3d6000fd5b505050506040513d601f19601f820116820180604052508101906117b99190612e66565b6040516001600160e01b031960e084901b16815261ffff909116600482015260248101849052306044820152606401600060405180830381600087803b15801561180257600080fd5b505af1158015611816573d6000803e3d6000fd5b5050610162546040516370a0823160e01b8152306004820152600093506001600160a01b0390911691506370a082319060240160206040518083038186803b15801561186157600080fd5b505afa158015611875573d6000803e3d6000fd5b505050506040513d601f19601f820116820180604052508101906118999190612e66565b610162546101635460405163095ea7b360e01b81526001600160a01b03918216600482015260248101849052929350169063095ea7b390604401602060405180830381600087803b1580156118ed57600080fd5b505af1158015611901573d6000803e3d6000fd5b505050506040513d601f19601f820116820180604052508101906119259190612e30565b506101635461016454604051631c57762b60e31b81526001600160a01b039092169163e2bbb15891611964918590600401918252602082015260400190565b600060405180830381600087803b15801561197e57600080fd5b505af1158015611992573d6000803e3d6000fd5b5050505050505050565b61016354610164546040516393f1a40b60e01b8152600481019190915230602482015260009182916001600160a01b03909116906393f1a40b90604401604080518083038186803b1580156119f057600080fd5b505afa158015611a04573d6000803e3d6000fd5b505050506040513d601f19601f82011682018060405250810190611a289190612ecc565b50905080611a395750600092915050565b6101635461016454604051630441a3e760e41b81526004810191909152600060248201526001600160a01b039091169063441a3e7090604401600060405180830381600087803b158015611a8c57600080fd5b505af1158015611aa0573d6000803e3d6000fd5b5050610160546040516370a0823160e01b8152306004820152600093508392506001600160a01b03909116906370a082319060240160206040518083038186803b158015611aed57600080fd5b505afa158015611b01573d6000803e3d6000fd5b505050506040513d601f19601f82011682018060405250810190611b259190612e66565b90508015611b60576101605461015f54600091611b50916001600160a01b0391821691168430612559565b9050611b5c8184613237565b9250505b8115611bef5761015f5460405163a9059cbb60e01b81526001600160a01b038781166004830152602482018590529091169063a9059cbb90604401602060405180830381600087803b158015611bb557600080fd5b505af1158015611bc9573d6000803e3d6000fd5b505050506040513d601f19601f82011682018060405250810190611bed9190612e30565b505b509392505050565b61015f546000906001600160a01b03848116911614611c285760405162461bcd60e51b815260040161065190613143565b61016354610164546040516393f1a40b60e01b815260048101919091523060248201526000916001600160a01b0316906393f1a40b90604401604080518083038186803b158015611c7857600080fd5b505afa158015611c8c573d6000803e3d6000fd5b505050506040513d601f19601f82011682018060405250810190611cb09190612ecc565b50905080611d3c5761015f546040516370a0823160e01b81523060048201526001600160a01b03909116906370a082319060240160206040518083038186803b158015611cfc57600080fd5b505afa158015611d10573d6000803e3d6000fd5b505050506040513d601f19601f82011682018060405250810190611d349190612e66565b9150506105de565b6101635461016454604051630441a3e760e41b81526001600160a01b039092169163441a3e7091611d7a918590600401918252602082015260400190565b600060405180830381600087803b158015611d9457600080fd5b505af1158015611da8573d6000803e3d6000fd5b5050610162546101615460405163095ea7b360e01b81526001600160a01b039182166004820152602481018690529116925063095ea7b39150604401602060405180830381600087803b158015611dfe57600080fd5b505af1158015611e12573d6000803e3d6000fd5b505050506040513d601f19601f82011682018060405250810190611e369190612e30565b50610161546101625460408051631f06e1a760e11b815290516001600160a01b039384169363c4de93a5931691633e0dc34e916004808301926020929190829003018186803b158015611e8857600080fd5b505afa158015611e9c573d6000803e3d6000fd5b505050506040513d601f19601f82011682018060405250810190611ec09190612e66565b6040516001600160e01b031960e084901b16815261ffff909116600482015260248101849052306044820152606401602060405180830381600087803b158015611f0957600080fd5b505af1158015611f1d573d6000803e3d6000fd5b505050506040513d601f19601f82011682018060405250810190611f419190612e66565b5061015f546040516370a0823160e01b81523060048201526001600160a01b03909116906370a082319060240160206040518083038186803b158015611f8657600080fd5b505afa158015611f9a573d6000803e3d6000fd5b505050506040513d601f19601f82011682018060405250810190610f439190612e66565b61015f546000906001600160a01b03858116911614611fef5760405162461bcd60e51b815260040161065190613143565b6000611ffc84600a613237565b61016254604051637b669af760e11b8152620f424060048201529192506000916001600160a01b039091169063f6cd35ee9060240160206040518083038186803b15801561204957600080fd5b505afa15801561205d573d6000803e3d6000fd5b505050506040513d601f19601f820116820180604052508101906120819190612e66565b61208e83620f4240613271565b612098919061324f565b61016354610164546040516393f1a40b60e01b815260048101919091523060248201529192506000916001600160a01b03909116906393f1a40b90604401604080518083038186803b1580156120ed57600080fd5b505afa158015612101573d6000803e3d6000fd5b505050506040513d601f19601f820116820180604052508101906121259190612ecc565b50905080821115612134578091505b6101635461016454604051630441a3e760e41b81526001600160a01b039092169163441a3e7091612172918690600401918252602082015260400190565b600060405180830381600087803b15801561218c57600080fd5b505af11580156121a0573d6000803e3d6000fd5b5050610162546101615460405163095ea7b360e01b81526001600160a01b039182166004820152602481018790529116925063095ea7b39150604401602060405180830381600087803b1580156121f657600080fd5b505af115801561220a573d6000803e3d6000fd5b505050506040513d601f19601f8201168201806040525081019061222e9190612e30565b50610161546101625460408051631f06e1a760e11b815290516001600160a01b039384169363c4de93a5931691633e0dc34e916004808301926020929190829003018186803b15801561228057600080fd5b505afa158015612294573d6000803e3d6000fd5b505050506040513d601f19601f820116820180604052508101906122b89190612e66565b6040516001600160e01b031960e084901b16815261ffff909116600482015260248101859052306044820152606401602060405180830381600087803b15801561230157600080fd5b505af1158015612315573d6000803e3d6000fd5b505050506040513d601f19601f820116820180604052508101906123399190612e66565b5061015f546040516370a0823160e01b81523060048201526001600160a01b03909116906370a082319060240160206040518083038186803b15801561237e57600080fd5b505afa158015612392573d6000803e3d6000fd5b505050506040513d601f19601f820116820180604052508101906123b69190612e66565b93505050505b9392505050565b6123cd8282610a13565b61070b576123e5816001600160a01b03166014612747565b6123f0836020612747565b604051602001612401929190612f50565b60408051601f198184030181529082905262461bcd60e51b825261065191600401612fc5565b6001600160a01b0381163b6124945760405162461bcd60e51b815260206004820152602d60248201527f455243313936373a206e657720696d706c656d656e746174696f6e206973206e60448201526c1bdd08184818dbdb9d1c9858dd609a1b6064820152608401610651565b60008051602061335b83398151915280546001600160a01b0319166001600160a01b0392909216919091179055565b6124cc836128e3565b6000825111806124d95750805b15610618576124e88383612923565b50505050565b600054610100900460ff166109a35760405162461bcd60e51b815260206004820152602b60248201527f496e697469616c697a61626c653a20636f6e7472616374206973206e6f74206960448201526a6e697469616c697a696e6760a81b6064820152608401610651565b61012d5460405163095ea7b360e01b81526001600160a01b0391821660048201526024810184905260009186169063095ea7b390604401602060405180830381600087803b1580156125aa57600080fd5b505af11580156125be573d6000803e3d6000fd5b505050506040513d601f19601f820116820180604052508101906125e29190612e30565b5060006125f0868686612a17565b905080612601576000915050610f43565b604080516002808252606082018352600092602083019080368337019050509050868160008151811061263657612636613300565b60200260200101906001600160a01b031690816001600160a01b031681525050858160018151811061266a5761266a613300565b6001600160a01b03928316602091820292909201015261012d54600091166338ed173987612699866004612b45565b85896126a742610258613237565b6040518663ffffffff1660e01b81526004016126c79594939291906131ca565b600060405180830381600087803b1580156126e157600080fd5b505af11580156126f5573d6000803e3d6000fd5b505050506040513d6000823e601f3d908101601f1916820160405261271d9190810190612d83565b90508060018151811061273257612732613300565b60200260200101519350505050949350505050565b60606000612756836002613271565b612761906002613237565b67ffffffffffffffff81111561277957612779613316565b6040519080825280601f01601f1916602001820160405280156127a3576020820181803683370190505b509050600360fc1b816000815181106127be576127be613300565b60200101906001600160f81b031916908160001a905350600f60fb1b816001815181106127ed576127ed613300565b60200101906001600160f81b031916908160001a9053506000612811846002613271565b61281c906001613237565b90505b6001811115612894576f181899199a1a9b1b9c1cb0b131b232b360811b85600f166010811061285057612850613300565b1a60f81b82828151811061286657612866613300565b60200101906001600160f81b031916908160001a90535060049490941c9361288d816132d3565b905061281f565b5083156123bc5760405162461bcd60e51b815260206004820181905260248201527f537472696e67733a20686578206c656e67746820696e73756666696369656e746044820152606401610651565b6128ec81612427565b6040516001600160a01b038216907fbc7cd75a20ee27fd9adebab32041f755214dbc6bffa90cc0225b39da2e5c2d3b90600090a250565b60606001600160a01b0383163b61298b5760405162461bcd60e51b815260206004820152602660248201527f416464726573733a2064656c65676174652063616c6c20746f206e6f6e2d636f6044820152651b9d1c9858dd60d21b6064820152608401610651565b600080846001600160a01b0316846040516129a69190612f34565b600060405180830381855af49150503d80600081146129e1576040519150601f19603f3d011682016040523d82523d6000602084013e6129e6565b606091505b5091509150612a0e828260405180606001604052806027815260200161337b60279139612b68565b95945050505050565b604080516002808252606082018352600092839291906020830190803683370190505090508481600081518110612a5057612a50613300565b60200260200101906001600160a01b031690816001600160a01b0316815250508381600181518110612a8457612a84613300565b6001600160a01b03928316602091820292909201015261012d5460405163d06ca61f60e01b8152600092919091169063d06ca61f90612ac990879086906004016131b1565b60006040518083038186803b158015612ae157600080fd5b505afa158015612af5573d6000803e3d6000fd5b505050506040513d6000823e601f3d908101601f19168201604052612b1d9190810190612d83565b905080600181518110612b3257612b32613300565b6020026020010151925050509392505050565b6000612710612b548382613290565b612b5e9085613271565b6123bc919061324f565b60608315612b775750816123bc565b825115612b875782518084602001fd5b8160405162461bcd60e51b81526004016106519190612fc5565b80356001600160a01b0381168114610d8657600080fd5b600060208284031215612bca57600080fd5b6123bc82612ba1565b60008060408385031215612be657600080fd5b612bef83612ba1565b9150612bfd60208401612ba1565b90509250929050565b600080600080600060a08688031215612c1e57600080fd5b612c2786612ba1565b9450612c3560208701612ba1565b9350612c4360408701612ba1565b925060608601359150612c5860808701612ba1565b90509295509295909350565b60008060408385031215612c7757600080fd5b612c8083612ba1565b915060208084013567ffffffffffffffff80821115612c9e57600080fd5b818601915086601f830112612cb257600080fd5b813581811115612cc457612cc4613316565b612cd6601f8201601f19168501613206565b91508082528784828501011115612cec57600080fd5b80848401858401376000848284010152508093505050509250929050565b60008060408385031215612d1d57600080fd5b612d2683612ba1565b946020939093013593505050565b60008060008060808587031215612d4a57600080fd5b612d5385612ba1565b935060208501359250612d6860408601612ba1565b91506060850135612d788161332c565b939692955090935050565b60006020808385031215612d9657600080fd5b825167ffffffffffffffff80821115612dae57600080fd5b818501915085601f830112612dc257600080fd5b815181811115612dd457612dd4613316565b8060051b9150612de5848301613206565b8181528481019084860184860187018a1015612e0057600080fd5b600095505b83861015612e23578051835260019590950194918601918601612e05565b5098975050505050505050565b600060208284031215612e4257600080fd5b81516123bc8161332c565b600060208284031215612e5f57600080fd5b5035919050565b600060208284031215612e7857600080fd5b5051919050565b60008060408385031215612e9257600080fd5b82359150612bfd60208401612ba1565b600060208284031215612eb457600080fd5b81356001600160e01b0319811681146123bc57600080fd5b60008060408385031215612edf57600080fd5b505080516020909101519092909150565b600081518084526020808501945080840160005b83811015612f295781516001600160a01b031687529582019590820190600101612f04565b509495945050505050565b60008251612f468184602087016132a7565b9190910192915050565b7f416363657373436f6e74726f6c3a206163636f756e7420000000000000000000815260008351612f888160178501602088016132a7565b7001034b99036b4b9b9b4b733903937b6329607d1b6017918401918201528351612fb98160288401602088016132a7565b01602801949350505050565b6020815260008251806020840152612fe48160408501602087016132a7565b601f01601f19169190910160400192915050565b6020808252601f908201527f5265737472696374656420746f20504f5254464f4c494f5f4d414e4147455200604082015260600190565b6020808252602c908201527f46756e6374696f6e206d7573742062652063616c6c6564207468726f7567682060408201526b19195b1959d85d1958d85b1b60a21b606082015260800190565b6020808252602c908201527f46756e6374696f6e206d7573742062652063616c6c6564207468726f7567682060408201526b6163746976652070726f787960a01b606082015260800190565b6020808252602e908201527f496e697469616c697a61626c653a20636f6e747261637420697320616c72656160408201526d191e481a5b9a5d1a585b1a5e995960921b606082015260800190565b6020808252601490820152735265737472696374656420746f2061646d696e7360601b604082015260600190565b60208082526019908201527f536f6d6520746f6b656e206e6f7420636f6d70617469626c6500000000000000604082015260600190565b60208082526018908201527f5a65726f2061646472657373206e6f7420616c6c6f7765640000000000000000604082015260600190565b828152604060208201526000610f436040830184612ef0565b85815284602082015260a0604082015260006131e960a0830186612ef0565b6001600160a01b0394909416606083015250608001529392505050565b604051601f8201601f1916810167ffffffffffffffff8111828210171561322f5761322f613316565b604052919050565b6000821982111561324a5761324a6132ea565b500190565b60008261326c57634e487b7160e01b600052601260045260246000fd5b500490565b600081600019048311821515161561328b5761328b6132ea565b500290565b6000828210156132a2576132a26132ea565b500390565b60005b838110156132c25781810151838201526020016132aa565b838111156124e85750506000910152565b6000816132e2576132e26132ea565b506000190190565b634e487b7160e01b600052601160045260246000fd5b634e487b7160e01b600052603260045260246000fd5b634e487b7160e01b600052604160045260246000fd5b80151581146107ec57600080fdfe90c2aa7471c04182221f68e80c07ab1e5946e4c63f8693e14ca40385d529f051360894a13ba1a3210667c828492db98dca3e2076cc3735a920a3ca505d382bbc416464726573733a206c6f772d6c6576656c2064656c65676174652063616c6c206661696c6564a26469706673582212204077a88645e9ee18faa32f86c11d13d7b780187ece982bc451f65cc56c3a010164736f6c63430008060033496e697469616c697a61626c653a20636f6e747261637420697320616c726561",
  "devdoc": {
    "kind": "dev",
    "methods": {
      "constructor": {
        "custom:oz-upgrades-unsafe-allow": "constructor"
      },
      "getRoleAdmin(bytes32)": {
        "details": "Returns the admin role that controls `role`. See {grantRole} and {revokeRole}. To change a role's admin, use {_setRoleAdmin}."
      },
      "grantRole(bytes32,address)": {
        "details": "Grants `role` to `account`. If `account` had not been already granted `role`, emits a {RoleGranted} event. Requirements: - the caller must have ``role``'s admin role."
      },
      "hasRole(bytes32,address)": {
        "details": "Returns `true` if `account` has been granted `role`."
      },
      "proxiableUUID()": {
        "details": "Implementation of the ERC1822 {proxiableUUID} function. This returns the storage slot used by the implementation. It is used to validate that the this implementation remains valid after an upgrade. IMPORTANT: A proxy pointing at a proxiable contract should not be considered proxiable itself, because this risks bricking a proxy that upgrades to it, by delegating to itself until out of gas. Thus it is critical that this function revert if invoked through a proxy. This is guaranteed by the `notDelegated` modifier."
      },
      "renounceRole(bytes32,address)": {
        "details": "Revokes `role` from the calling account. Roles are often managed via {grantRole} and {revokeRole}: this function's purpose is to provide a mechanism for accounts to lose their privileges if they are compromised (such as when a trusted device is misplaced). If the calling account had been revoked `role`, emits a {RoleRevoked} event. Requirements: - the caller must be `account`."
      },
      "revokeRole(bytes32,address)": {
        "details": "Revokes `role` from `account`. If `account` had been granted `role`, emits a {RoleRevoked} event. Requirements: - the caller must have ``role``'s admin role."
      },
      "supportsInterface(bytes4)": {
        "details": "See {IERC165-supportsInterface}."
      },
      "upgradeTo(address)": {
        "details": "Upgrade the implementation of the proxy to `newImplementation`. Calls {_authorizeUpgrade}. Emits an {Upgraded} event."
      },
      "upgradeToAndCall(address,bytes)": {
        "details": "Upgrade the implementation of the proxy to `newImplementation`, and subsequently execute the function call encoded in `data`. Calls {_authorizeUpgrade}. Emits an {Upgraded} event."
      }
    },
    "version": 1
  },
  "userdoc": {
    "kind": "user",
    "methods": {},
    "version": 1
  },
  "storageLayout": {
    "storage": [
      {
        "astId": 808,
        "contract": "contracts/StrategyStargateUsdc.sol:StrategyStargateUsdc",
        "label": "_initialized",
        "offset": 0,
        "slot": "0",
        "type": "t_uint8"
      },
      {
        "astId": 811,
        "contract": "contracts/StrategyStargateUsdc.sol:StrategyStargateUsdc",
        "label": "_initializing",
        "offset": 1,
        "slot": "0",
        "type": "t_bool"
      },
      {
        "astId": 1466,
        "contract": "contracts/StrategyStargateUsdc.sol:StrategyStargateUsdc",
        "label": "__gap",
        "offset": 0,
        "slot": "1",
        "type": "t_array(t_uint256)50_storage"
      },
      {
        "astId": 1773,
        "contract": "contracts/StrategyStargateUsdc.sol:StrategyStargateUsdc",
        "label": "__gap",
        "offset": 0,
        "slot": "51",
        "type": "t_array(t_uint256)50_storage"
      },
      {
        "astId": 39,
        "contract": "contracts/StrategyStargateUsdc.sol:StrategyStargateUsdc",
        "label": "_roles",
        "offset": 0,
        "slot": "101",
        "type": "t_mapping(t_bytes32,t_struct(RoleData)34_storage)"
      },
      {
        "astId": 338,
        "contract": "contracts/StrategyStargateUsdc.sol:StrategyStargateUsdc",
        "label": "__gap",
        "offset": 0,
        "slot": "102",
        "type": "t_array(t_uint256)49_storage"
      },
      {
        "astId": 790,
        "contract": "contracts/StrategyStargateUsdc.sol:StrategyStargateUsdc",
        "label": "__gap",
        "offset": 0,
        "slot": "151",
        "type": "t_array(t_uint256)50_storage"
      },
      {
        "astId": 1078,
        "contract": "contracts/StrategyStargateUsdc.sol:StrategyStargateUsdc",
        "label": "__gap",
        "offset": 0,
        "slot": "201",
        "type": "t_array(t_uint256)50_storage"
      },
      {
        "astId": 37027,
        "contract": "contracts/StrategyStargateUsdc.sol:StrategyStargateUsdc",
        "label": "portfolioManager",
        "offset": 0,
        "slot": "251",
        "type": "t_address"
      },
      {
        "astId": 37349,
        "contract": "contracts/StrategyStargateUsdc.sol:StrategyStargateUsdc",
        "label": "__gap",
        "offset": 0,
        "slot": "252",
        "type": "t_array(t_uint256)49_storage"
      },
      {
        "astId": 39267,
        "contract": "contracts/StrategyStargateUsdc.sol:StrategyStargateUsdc",
        "label": "uniswapRouter",
        "offset": 0,
        "slot": "301",
        "type": "t_contract(IUniswapV2Router02)35078"
      },
      {
        "astId": 39529,
        "contract": "contracts/StrategyStargateUsdc.sol:StrategyStargateUsdc",
        "label": "__gap",
        "offset": 0,
        "slot": "302",
        "type": "t_array(t_uint256)49_storage"
      },
      {
        "astId": 25405,
        "contract": "contracts/StrategyStargateUsdc.sol:StrategyStargateUsdc",
        "label": "usdcToken",
        "offset": 0,
        "slot": "351",
        "type": "t_contract(IERC20)2512"
      },
      {
        "astId": 25408,
        "contract": "contracts/StrategyStargateUsdc.sol:StrategyStargateUsdc",
        "label": "stgToken",
        "offset": 0,
        "slot": "352",
        "type": "t_contract(IERC20)2512"
      },
      {
        "astId": 25411,
        "contract": "contracts/StrategyStargateUsdc.sol:StrategyStargateUsdc",
        "label": "stargateRouter",
        "offset": 0,
        "slot": "353",
        "type": "t_contract(IStargateRouter)33857"
      },
      {
        "astId": 25414,
        "contract": "contracts/StrategyStargateUsdc.sol:StrategyStargateUsdc",
        "label": "pool",
        "offset": 0,
        "slot": "354",
        "type": "t_contract(IPool)33738"
      },
      {
        "astId": 25417,
        "contract": "contracts/StrategyStargateUsdc.sol:StrategyStargateUsdc",
        "label": "lpStaking",
        "offset": 0,
        "slot": "355",
        "type": "t_contract(ILPStaking)33720"
      },
      {
        "astId": 25419,
        "contract": "contracts/StrategyStargateUsdc.sol:StrategyStargateUsdc",
        "label": "pid",
        "offset": 0,
        "slot": "356",
        "type": "t_uint256"
      }
    ],
    "types": {
      "t_address": {
        "encoding": "inplace",
        "label": "address",
        "numberOfBytes": "20"
      },
      "t_array(t_uint256)49_storage": {
        "base": "t_uint256",
        "encoding": "inplace",
        "label": "uint256[49]",
        "numberOfBytes": "1568"
      },
      "t_array(t_uint256)50_storage": {
        "base": "t_uint256",
        "encoding": "inplace",
        "label": "uint256[50]",
        "numberOfBytes": "1600"
      },
      "t_bool": {
        "encoding": "inplace",
        "label": "bool",
        "numberOfBytes": "1"
      },
      "t_bytes32": {
        "encoding": "inplace",
        "label": "bytes32",
        "numberOfBytes": "32"
      },
      "t_contract(IERC20)2512": {
        "encoding": "inplace",
        "label": "contract IERC20",
        "numberOfBytes": "20"
      },
      "t_contract(ILPStaking)33720": {
        "encoding": "inplace",
        "label": "contract ILPStaking",
        "numberOfBytes": "20"
      },
      "t_contract(IPool)33738": {
        "encoding": "inplace",
        "label": "contract IPool",
        "numberOfBytes": "20"
      },
      "t_contract(IStargateRouter)33857": {
        "encoding": "inplace",
        "label": "contract IStargateRouter",
        "numberOfBytes": "20"
      },
      "t_contract(IUniswapV2Router02)35078": {
        "encoding": "inplace",
        "label": "contract IUniswapV2Router02",
        "numberOfBytes": "20"
      },
      "t_mapping(t_address,t_bool)": {
        "encoding": "mapping",
        "key": "t_address",
        "label": "mapping(address => bool)",
        "numberOfBytes": "32",
        "value": "t_bool"
      },
      "t_mapping(t_bytes32,t_struct(RoleData)34_storage)": {
        "encoding": "mapping",
        "key": "t_bytes32",
        "label": "mapping(bytes32 => struct AccessControlUpgradeable.RoleData)",
        "numberOfBytes": "32",
        "value": "t_struct(RoleData)34_storage"
      },
      "t_struct(RoleData)34_storage": {
        "encoding": "inplace",
        "label": "struct AccessControlUpgradeable.RoleData",
        "members": [
          {
            "astId": 31,
            "contract": "contracts/StrategyStargateUsdc.sol:StrategyStargateUsdc",
            "label": "members",
            "offset": 0,
            "slot": "0",
            "type": "t_mapping(t_address,t_bool)"
          },
          {
            "astId": 33,
            "contract": "contracts/StrategyStargateUsdc.sol:StrategyStargateUsdc",
            "label": "adminRole",
            "offset": 0,
            "slot": "1",
            "type": "t_bytes32"
          }
        ],
        "numberOfBytes": "64"
      },
      "t_uint256": {
        "encoding": "inplace",
        "label": "uint256",
        "numberOfBytes": "32"
      },
      "t_uint8": {
        "encoding": "inplace",
        "label": "uint8",
        "numberOfBytes": "1"
      }
    }
  }
}