{
  "address": "0xFD06B6a782c0954017Acb1F9a4cb781f8c865C59",
  "abi": [
    {
      "inputs": [],
      "stateMutability": "nonpayable",
      "type": "constructor"
    },
    {
      "anonymous": false,
      "inputs": [
        {
          "indexed": false,
          "internalType": "address",
          "name": "previousAdmin",
          "type": "address"
        },
        {
          "indexed": false,
          "internalType": "address",
          "name": "newAdmin",
          "type": "address"
        }
      ],
      "name": "AdminChanged",
      "type": "event"
    },
    {
      "anonymous": false,
      "inputs": [
        {
          "indexed": false,
          "internalType": "uint256",
          "name": "healthFactor",
          "type": "uint256"
        }
      ],
      "name": "BalanceHealthFactor",
      "type": "event"
    },
    {
      "anonymous": false,
      "inputs": [
        {
          "indexed": true,
          "internalType": "address",
          "name": "beacon",
          "type": "address"
        }
      ],
      "name": "BeaconUpgraded",
      "type": "event"
    },
    {
      "anonymous": false,
      "inputs": [
        {
          "indexed": false,
          "internalType": "uint8",
          "name": "version",
          "type": "uint8"
        }
      ],
      "name": "Initialized",
      "type": "event"
    },
    {
      "anonymous": false,
      "inputs": [
        {
          "indexed": false,
          "internalType": "address",
          "name": "value",
          "type": "address"
        }
      ],
      "name": "PortfolioManagerUpdated",
      "type": "event"
    },
    {
      "anonymous": false,
      "inputs": [
        {
          "indexed": false,
          "internalType": "uint256",
          "name": "amount",
          "type": "uint256"
        }
      ],
      "name": "Reward",
      "type": "event"
    },
    {
      "anonymous": false,
      "inputs": [
        {
          "indexed": true,
          "internalType": "bytes32",
          "name": "role",
          "type": "bytes32"
        },
        {
          "indexed": true,
          "internalType": "bytes32",
          "name": "previousAdminRole",
          "type": "bytes32"
        },
        {
          "indexed": true,
          "internalType": "bytes32",
          "name": "newAdminRole",
          "type": "bytes32"
        }
      ],
      "name": "RoleAdminChanged",
      "type": "event"
    },
    {
      "anonymous": false,
      "inputs": [
        {
          "indexed": true,
          "internalType": "bytes32",
          "name": "role",
          "type": "bytes32"
        },
        {
          "indexed": true,
          "internalType": "address",
          "name": "account",
          "type": "address"
        },
        {
          "indexed": true,
          "internalType": "address",
          "name": "sender",
          "type": "address"
        }
      ],
      "name": "RoleGranted",
      "type": "event"
    },
    {
      "anonymous": false,
      "inputs": [
        {
          "indexed": true,
          "internalType": "bytes32",
          "name": "role",
          "type": "bytes32"
        },
        {
          "indexed": true,
          "internalType": "address",
          "name": "account",
          "type": "address"
        },
        {
          "indexed": true,
          "internalType": "address",
          "name": "sender",
          "type": "address"
        }
      ],
      "name": "RoleRevoked",
      "type": "event"
    },
    {
      "anonymous": false,
      "inputs": [
        {
          "indexed": false,
          "internalType": "uint256",
          "name": "amount",
          "type": "uint256"
        }
      ],
      "name": "Stake",
      "type": "event"
    },
    {
      "anonymous": false,
      "inputs": [
        {
          "indexed": false,
          "internalType": "address",
          "name": "meshSwapUsdcUsdt",
          "type": "address"
        },
        {
          "indexed": false,
          "internalType": "address",
          "name": "meshSwapRouter",
          "type": "address"
        },
        {
          "indexed": false,
          "internalType": "address",
          "name": "balancerVault",
          "type": "address"
        },
        {
          "indexed": false,
          "internalType": "bytes32",
          "name": "balancerPoolIdUsdcTusdDaiUsdt",
          "type": "bytes32"
        }
      ],
      "name": "StrategyUpdatedParams",
      "type": "event"
    },
    {
      "anonymous": false,
      "inputs": [
        {
          "indexed": false,
          "internalType": "address",
          "name": "usdcToken",
          "type": "address"
        },
        {
          "indexed": false,
          "internalType": "address",
          "name": "usdtToken",
          "type": "address"
        },
        {
          "indexed": false,
          "internalType": "address",
          "name": "meshToken",
          "type": "address"
        },
        {
          "indexed": false,
          "internalType": "uint256",
          "name": "usdcTokenDenominator",
          "type": "uint256"
        },
        {
          "indexed": false,
          "internalType": "uint256",
          "name": "usdtTokenDenominator",
          "type": "uint256"
        }
      ],
      "name": "StrategyUpdatedTokens",
      "type": "event"
    },
    {
      "anonymous": false,
      "inputs": [
        {
          "indexed": false,
          "internalType": "uint256",
          "name": "amount",
          "type": "uint256"
        },
        {
          "indexed": false,
          "internalType": "uint256",
          "name": "amountReceived",
          "type": "uint256"
        }
      ],
      "name": "Unstake",
      "type": "event"
    },
    {
      "anonymous": false,
      "inputs": [
        {
          "indexed": true,
          "internalType": "address",
          "name": "implementation",
          "type": "address"
        }
      ],
      "name": "Upgraded",
      "type": "event"
    },
    {
      "inputs": [],
      "name": "DEFAULT_ADMIN_ROLE",
      "outputs": [
        {
          "internalType": "bytes32",
          "name": "",
          "type": "bytes32"
        }
      ],
      "stateMutability": "view",
      "type": "function"
    },
    {
      "inputs": [],
      "name": "MAX_VALUE",
      "outputs": [
        {
          "internalType": "int256",
          "name": "",
          "type": "int256"
        }
      ],
      "stateMutability": "view",
      "type": "function"
    },
    {
      "inputs": [],
      "name": "PORTFOLIO_MANAGER",
      "outputs": [
        {
          "internalType": "bytes32",
          "name": "",
          "type": "bytes32"
        }
      ],
      "stateMutability": "view",
      "type": "function"
    },
    {
      "inputs": [],
      "name": "UPGRADER_ROLE",
      "outputs": [
        {
          "internalType": "bytes32",
          "name": "",
          "type": "bytes32"
        }
      ],
      "stateMutability": "view",
      "type": "function"
    },
    {
      "inputs": [
        {
          "internalType": "address",
          "name": "_to",
          "type": "address"
        }
      ],
      "name": "claimRewards",
      "outputs": [
        {
          "internalType": "uint256",
          "name": "",
          "type": "uint256"
        }
      ],
      "stateMutability": "nonpayable",
      "type": "function"
    },
    {
      "inputs": [
        {
          "internalType": "bytes32",
          "name": "role",
          "type": "bytes32"
        }
      ],
      "name": "getRoleAdmin",
      "outputs": [
        {
          "internalType": "bytes32",
          "name": "",
          "type": "bytes32"
        }
      ],
      "stateMutability": "view",
      "type": "function"
    },
    {
      "inputs": [
        {
          "internalType": "bytes32",
          "name": "role",
          "type": "bytes32"
        },
        {
          "internalType": "address",
          "name": "account",
          "type": "address"
        }
      ],
      "name": "grantRole",
      "outputs": [],
      "stateMutability": "nonpayable",
      "type": "function"
    },
    {
      "inputs": [
        {
          "internalType": "bytes32",
          "name": "role",
          "type": "bytes32"
        },
        {
          "internalType": "address",
          "name": "account",
          "type": "address"
        }
      ],
      "name": "hasRole",
      "outputs": [
        {
          "internalType": "bool",
          "name": "",
          "type": "bool"
        }
      ],
      "stateMutability": "view",
      "type": "function"
    },
    {
      "inputs": [],
      "name": "healthFactorBalance",
      "outputs": [],
      "stateMutability": "nonpayable",
      "type": "function"
    },
    {
      "inputs": [],
      "name": "initialize",
      "outputs": [],
      "stateMutability": "nonpayable",
      "type": "function"
    },
    {
      "inputs": [],
      "name": "liquidationValue",
      "outputs": [
        {
          "internalType": "uint256",
          "name": "",
          "type": "uint256"
        }
      ],
      "stateMutability": "view",
      "type": "function"
    },
    {
      "inputs": [],
      "name": "meshSwapUsdcUsdt",
      "outputs": [
        {
          "internalType": "contract IMeshSwapLP",
          "name": "",
          "type": "address"
        }
      ],
      "stateMutability": "view",
      "type": "function"
    },
    {
      "inputs": [],
      "name": "meshToken",
      "outputs": [
        {
          "internalType": "contract IERC20",
          "name": "",
          "type": "address"
        }
      ],
      "stateMutability": "view",
      "type": "function"
    },
    {
      "inputs": [],
      "name": "netAssetValue",
      "outputs": [
        {
          "internalType": "uint256",
          "name": "",
          "type": "uint256"
        }
      ],
      "stateMutability": "view",
      "type": "function"
    },
    {
      "inputs": [],
      "name": "poolIdUsdcTusdDaiUsdt",
      "outputs": [
        {
          "internalType": "bytes32",
          "name": "",
          "type": "bytes32"
        }
      ],
      "stateMutability": "view",
      "type": "function"
    },
    {
      "inputs": [],
      "name": "portfolioManager",
      "outputs": [
        {
          "internalType": "address",
          "name": "",
          "type": "address"
        }
      ],
      "stateMutability": "view",
      "type": "function"
    },
    {
      "inputs": [],
      "name": "proxiableUUID",
      "outputs": [
        {
          "internalType": "bytes32",
          "name": "",
          "type": "bytes32"
        }
      ],
      "stateMutability": "view",
      "type": "function"
    },
    {
      "inputs": [
        {
          "internalType": "bytes32",
          "name": "role",
          "type": "bytes32"
        },
        {
          "internalType": "address",
          "name": "account",
          "type": "address"
        }
      ],
      "name": "renounceRole",
      "outputs": [],
      "stateMutability": "nonpayable",
      "type": "function"
    },
    {
      "inputs": [
        {
          "internalType": "bytes32",
          "name": "role",
          "type": "bytes32"
        },
        {
          "internalType": "address",
          "name": "account",
          "type": "address"
        }
      ],
      "name": "revokeRole",
      "outputs": [],
      "stateMutability": "nonpayable",
      "type": "function"
    },
    {
      "inputs": [
        {
          "internalType": "address",
          "name": "_meshSwapUsdcUsdt",
          "type": "address"
        },
        {
          "internalType": "address",
          "name": "_meshSwapRouter",
          "type": "address"
        },
        {
          "internalType": "address",
          "name": "_balancerVault",
          "type": "address"
        },
        {
          "internalType": "bytes32",
          "name": "_poolIdUsdcTusdDaiUsdt",
          "type": "bytes32"
        }
      ],
      "name": "setParams",
      "outputs": [],
      "stateMutability": "nonpayable",
      "type": "function"
    },
    {
      "inputs": [
        {
          "internalType": "address",
          "name": "_value",
          "type": "address"
        }
      ],
      "name": "setPortfolioManager",
      "outputs": [],
      "stateMutability": "nonpayable",
      "type": "function"
    },
    {
      "inputs": [
        {
          "internalType": "address",
          "name": "_usdcToken",
          "type": "address"
        },
        {
          "internalType": "address",
          "name": "_usdtToken",
          "type": "address"
        },
        {
          "internalType": "address",
          "name": "_meshToken",
          "type": "address"
        }
      ],
      "name": "setTokens",
      "outputs": [],
      "stateMutability": "nonpayable",
      "type": "function"
    },
    {
      "inputs": [
        {
          "internalType": "address",
          "name": "_asset",
          "type": "address"
        },
        {
          "internalType": "uint256",
          "name": "_amount",
          "type": "uint256"
        }
      ],
      "name": "stake",
      "outputs": [],
      "stateMutability": "nonpayable",
      "type": "function"
    },
    {
      "inputs": [
        {
          "internalType": "bytes4",
          "name": "interfaceId",
          "type": "bytes4"
        }
      ],
      "name": "supportsInterface",
      "outputs": [
        {
          "internalType": "bool",
          "name": "",
          "type": "bool"
        }
      ],
      "stateMutability": "view",
      "type": "function"
    },
    {
      "inputs": [
        {
          "internalType": "address",
          "name": "_asset",
          "type": "address"
        },
        {
          "internalType": "uint256",
          "name": "_amount",
          "type": "uint256"
        },
        {
          "internalType": "address",
          "name": "_beneficiary",
          "type": "address"
        },
        {
          "internalType": "bool",
          "name": "_targetIsZero",
          "type": "bool"
        }
      ],
      "name": "unstake",
      "outputs": [
        {
          "internalType": "uint256",
          "name": "",
          "type": "uint256"
        }
      ],
      "stateMutability": "nonpayable",
      "type": "function"
    },
    {
      "inputs": [
        {
          "internalType": "address",
          "name": "newImplementation",
          "type": "address"
        }
      ],
      "name": "upgradeTo",
      "outputs": [],
      "stateMutability": "nonpayable",
      "type": "function"
    },
    {
      "inputs": [
        {
          "internalType": "address",
          "name": "newImplementation",
          "type": "address"
        },
        {
          "internalType": "bytes",
          "name": "data",
          "type": "bytes"
        }
      ],
      "name": "upgradeToAndCall",
      "outputs": [],
      "stateMutability": "payable",
      "type": "function"
    },
    {
      "inputs": [],
      "name": "usdcToken",
      "outputs": [
        {
          "internalType": "contract IERC20",
          "name": "",
          "type": "address"
        }
      ],
      "stateMutability": "view",
      "type": "function"
    },
    {
      "inputs": [],
      "name": "usdcTokenDenominator",
      "outputs": [
        {
          "internalType": "uint256",
          "name": "",
          "type": "uint256"
        }
      ],
      "stateMutability": "view",
      "type": "function"
    },
    {
      "inputs": [],
      "name": "usdtToken",
      "outputs": [
        {
          "internalType": "contract IERC20",
          "name": "",
          "type": "address"
        }
      ],
      "stateMutability": "view",
      "type": "function"
    },
    {
      "inputs": [],
      "name": "usdtTokenDenominator",
      "outputs": [
        {
          "internalType": "uint256",
          "name": "",
          "type": "uint256"
        }
      ],
      "stateMutability": "view",
      "type": "function"
    }
  ],
  "numDeployments": 1,
  "solcInputHash": "27dccbbdd9aa2650c27755ed933d3ad7",
  "bytecode": "0x60a06040523060601b6080523480156200001857600080fd5b5060006200002760016200008e565b9050801562000040576000805461ff0019166101001790555b801562000087576000805461ff0019169055604051600181527f7f26b83ff96e1f2b6a682f133852f6798a09c465da95921460cefb38474024989060200160405180910390a15b50620001af565b60008054610100900460ff161562000127578160ff166001148015620000c75750620000c530620001a060201b620012271760201c565b155b6200011f5760405162461bcd60e51b815260206004820152602e602482015260008051602062004add83398151915260448201526d191e481a5b9a5d1a585b1a5e995960921b60648201526084015b60405180910390fd5b506000919050565b60005460ff808416911610620001865760405162461bcd60e51b815260206004820152602e602482015260008051602062004add83398151915260448201526d191e481a5b9a5d1a585b1a5e995960921b606482015260840162000116565b506000805460ff191660ff92909216919091179055600190565b6001600160a01b03163b151590565b60805160601c6148f3620001ea600039600081816106a3015281816106e3015281816109c001528181610a000152610a8f01526148f36000f3fe6080604052600436106101d85760003560e01c80637d5f580211610102578063adc9772e11610095578063d95ace5b11610064578063d95ace5b14610510578063ef5cfb8c14610531578063f6f6b88114610551578063f72c0d8b1461057157600080fd5b8063adc9772e14610499578063c3bc6ff1146104b9578063d547741f146104d0578063d746ccb4146104f057600080fd5b8063a217fddf116100d1578063a217fddf14610443578063a3673b38146102d7578063a440b21a14610458578063a98ad46c1461047857600080fd5b80637d5f5802146103cb5780638129fc1c146103ed578063839990ef1461040257806391d148541461042357600080fd5b80632f2ff15d1161017a5780634f1ef286116101495780634f1ef2861461036e57806352d1902d14610381578063620b75df146103965780637b73aa4e146103b657600080fd5b80632f2ff15d146102ec57806336568abe1461030e5780633659cfe61461032e578063443be2091461034e57600080fd5b806311eac855116101b657806311eac85514610257578063129caff214610290578063248a9ca3146102a75780632576e65a146102d757600080fd5b806301ffc9a7146101dd578063063bde241461021257806306da3f2e14610240575b600080fd5b3480156101e957600080fd5b506101fd6101f8366004613f4a565b6105a5565b60405190151581526020015b60405180910390f35b34801561021e57600080fd5b506102326b033b2e3c9fd0803ce800000081565b604051908152602001610209565b34801561024c57600080fd5b506102326101945481565b34801561026357600080fd5b5061019154610278906001600160a01b031681565b6040516001600160a01b039091168152602001610209565b34801561029c57600080fd5b506102326101975481565b3480156102b357600080fd5b506102326102c2366004613ef3565b60009081526065602052604090206001015490565b3480156102e357600080fd5b506102326105dc565b3480156102f857600080fd5b5061030c610307366004613f25565b6105eb565b005b34801561031a57600080fd5b5061030c610329366004613f25565b610615565b34801561033a57600080fd5b5061030c610349366004613bae565b610698565b34801561035a57600080fd5b5061030c610369366004613bcb565b610778565b61030c61037c366004613c67565b6109b5565b34801561038d57600080fd5b50610232610a82565b3480156103a257600080fd5b5060fb54610278906001600160a01b031681565b3480156103c257600080fd5b5061030c610b35565b3480156103d757600080fd5b5061023260008051602061485783398151915281565b3480156103f957600080fd5b5061030c610b76565b34801561040e57600080fd5b5061019654610278906001600160a01b031681565b34801561042f57600080fd5b506101fd61043e366004613f25565b610be4565b34801561044f57600080fd5b50610232600081565b34801561046457600080fd5b5061030c610473366004613bae565b610c0f565b34801561048457600080fd5b5061019254610278906001600160a01b031681565b3480156104a557600080fd5b5061030c6104b4366004613d4d565b610ce7565b3480156104c557600080fd5b506102326101955481565b3480156104dc57600080fd5b5061030c6104eb366004613f25565b610dd0565b3480156104fc57600080fd5b5061030c61050b366004613c16565b610df5565b34801561051c57600080fd5b5061019354610278906001600160a01b031681565b34801561053d57600080fd5b5061023261054c366004613bae565b610f9f565b34801561055d57600080fd5b5061023261056c366004613d79565b611023565b34801561057d57600080fd5b506102327f189ab7a9244df0848122154315af71fe140f3db0fe014031783b0946b8c9d2e381565b60006001600160e01b03198216637965db0b60e01b14806105d657506301ffc9a760e01b6001600160e01b03198316145b92915050565b60006105e6611236565b905090565b60008281526065602052604090206001015461060681611569565b6106108383611573565b505050565b6001600160a01b038116331461068a5760405162461bcd60e51b815260206004820152602f60248201527f416363657373436f6e74726f6c3a2063616e206f6e6c792072656e6f756e636560448201526e103937b632b9903337b91039b2b63360891b60648201526084015b60405180910390fd5b61069482826115f9565b5050565b306001600160a01b037f00000000000000000000000000000000000000000000000000000000000000001614156106e15760405162461bcd60e51b815260040161068190614250565b7f00000000000000000000000000000000000000000000000000000000000000006001600160a01b031661072a600080516020614877833981519152546001600160a01b031690565b6001600160a01b0316146107505760405162461bcd60e51b8152600401610681906142de565b61075981611660565b604080516000808252602082019092526107759183919061168a565b50565b610783600033610be4565b61079f5760405162461bcd60e51b815260040161068190614378565b6001600160a01b0383166107c55760405162461bcd60e51b8152600401610681906143dd565b6001600160a01b0382166107eb5760405162461bcd60e51b8152600401610681906143dd565b6001600160a01b0381166108115760405162461bcd60e51b8152600401610681906143dd565b61019180546001600160a01b038086166001600160a01b0319928316811790935561019280548683169084161790556101938054918516919092161790556040805163313ce56760e01b8152905163313ce56791600480820192602092909190829003018186803b15801561088557600080fd5b505afa158015610899573d6000803e3d6000fd5b505050506040513d601f19601f820116820180604052508101906108bd919061400b565b6108c890600a61467c565b61019481905550816001600160a01b031663313ce5676040518163ffffffff1660e01b815260040160206040518083038186803b15801561090857600080fd5b505afa15801561091c573d6000803e3d6000fd5b505050506040513d601f19601f82011682018060405250810190610940919061400b565b61094b90600a61467c565b61019581905561019454604080516001600160a01b03878116825286811660208301528516818301526060810192909252608082019290925290517f963ef64b04254ce5eab40aa69a813ff8b45bf7b71b91268643e83ab6c6aa0bcb9181900360a00190a1505050565b306001600160a01b037f00000000000000000000000000000000000000000000000000000000000000001614156109fe5760405162461bcd60e51b815260040161068190614250565b7f00000000000000000000000000000000000000000000000000000000000000006001600160a01b0316610a47600080516020614877833981519152546001600160a01b031690565b6001600160a01b031614610a6d5760405162461bcd60e51b8152600401610681906142de565b610a7682611660565b6106948282600161168a565b6000306001600160a01b037f00000000000000000000000000000000000000000000000000000000000000001614610b225760405162461bcd60e51b815260206004820152603860248201527f555550535570677261646561626c653a206d757374206e6f742062652063616c60448201527f6c6564207468726f7567682064656c656761746563616c6c00000000000000006064820152608401610681565b5060008051602061487783398151915290565b610b4d60008051602061485783398151915233610be4565b610b695760405162461bcd60e51b815260040161068190614219565b565b60405180910390a150565b6000610b826001611804565b90508015610b9a576000805461ff0019166101001790555b610ba261188c565b8015610775576000805461ff0019169055604051600181527f7f26b83ff96e1f2b6a682f133852f6798a09c465da95921460cefb384740249890602001610b6b565b60009182526065602090815260408084206001600160a01b0393909316845291905290205460ff1690565b610c1a600033610be4565b610c365760405162461bcd60e51b815260040161068190614378565b6001600160a01b038116610c5c5760405162461bcd60e51b8152600401610681906143dd565b60fb54610c8190600080516020614857833981519152906001600160a01b0316610dd0565b610c99600080516020614857833981519152826105eb565b60fb80546001600160a01b0319166001600160a01b0383169081179091556040519081527ff7b449fcd5cfb7379dcd34cb69428dd9f882033b15be33d83b42d91daa28eeb790602001610b6b565b610cff60008051602061485783398151915233610be4565b610d1b5760405162461bcd60e51b815260040161068190614219565b6040518181527f227a473b70d2f893cc7659219575c030a63b5743024fe1e0c1a680e708b1525a9060200160405180910390a16040516370a0823160e01b81523060048201526106949083906001600160a01b038216906370a082319060240160206040518083038186803b158015610d9357600080fd5b505afa158015610da7573d6000803e3d6000fd5b505050506040513d601f19601f82011682018060405250810190610dcb9190613f0c565b6118f5565b600082815260656020526040902060010154610deb81611569565b61061083836115f9565b610e00600033610be4565b610e1c5760405162461bcd60e51b815260040161068190614378565b6001600160a01b038416610e425760405162461bcd60e51b8152600401610681906143dd565b6001600160a01b038316610e685760405162461bcd60e51b8152600401610681906143dd565b6001600160a01b038216610e8e5760405162461bcd60e51b8152600401610681906143dd565b80610edb5760405162461bcd60e51b815260206004820152601960248201527f456d70747920706f6f6c206964206e6f7420616c6c6f776564000000000000006044820152606401610681565b61019680546001600160a01b0386166001600160a01b0319909116179055610f218361012d80546001600160a01b039092166001600160a01b0319909216919091179055565b61015f80546001600160a01b0319166001600160a01b038416179055610197819055604080516001600160a01b0380871682528086166020830152841691810191909152606081018290527f9e40b7a0f4969e42aff14e4acec2010d86638545f52d63f9db202c17dc395b519060800160405180910390a150505050565b6000610fb960008051602061485783398151915233610be4565b610fd55760405162461bcd60e51b815260040161068190614219565b6000610fe083611cd6565b90507f3ac0594a85a20354f9dc74f33728416d19ce00d04a406c108cc2dcf2cecea1348160405161101391815260200190565b60405180910390a190505b919050565b600061103d60008051602061485783398151915233610be4565b6110595760405162461bcd60e51b815260040161068190614219565b600082156110725761106b8685611f7a565b90506110e1565b61107d868686612323565b9050848110156110e15760405162461bcd60e51b815260206004820152602960248201527f52657475726e65642076616c7565206c657373207468616e2072657175657374604482015268195908185b5bdd5b9d60ba1b6064820152608401610681565b6040516370a0823160e01b81523060048201526000906001600160a01b038816906370a082319060240160206040518083038186803b15801561112357600080fd5b505afa158015611137573d6000803e3d6000fd5b505050506040513d601f19601f8201168201806040525081019061115b9190613f0c565b60405163a9059cbb60e01b81526001600160a01b038781166004830152602482018390529192509088169063a9059cbb90604401602060405180830381600087803b1580156111a957600080fd5b505af11580156111bd573d6000803e3d6000fd5b505050506040513d601f19601f820116820180604052508101906111e19190613ed6565b5060408051878152602081018390527f9045c2ac9b2026de8075f2701bbdde882cd5e830b3b1ead9a15b22f2b5b93742910160405180910390a19150505b949350505050565b6001600160a01b03163b151590565b610191546040516370a0823160e01b815230600482015260009182916001600160a01b03909116906370a082319060240160206040518083038186803b15801561127f57600080fd5b505afa158015611293573d6000803e3d6000fd5b505050506040513d601f19601f820116820180604052508101906112b79190613f0c565b610192546040516370a0823160e01b81523060048201529192506000916001600160a01b03909116906370a082319060240160206040518083038186803b15801561130157600080fd5b505afa158015611315573d6000803e3d6000fd5b505050506040513d601f19601f820116820180604052508101906113399190613f0c565b610196546040516370a0823160e01b81523060048201529192506000916001600160a01b03909116906370a082319060240160206040518083038186803b15801561138357600080fd5b505afa158015611397573d6000803e3d6000fd5b505050506040513d601f19601f820116820180604052508101906113bb9190613f0c565b905080156115245761019654604080516318160ddd60e01b815290516000926001600160a01b0316916318160ddd916004808301926020929190829003018186803b15801561140957600080fd5b505afa15801561141d573d6000803e3d6000fd5b505050506040513d601f19601f820116820180604052508101906114419190613f0c565b905060008061019660009054906101000a90046001600160a01b03166001600160a01b0316630902f1ac6040518163ffffffff1660e01b815260040160606040518083038186803b15801561149557600080fd5b505afa1580156114a9573d6000803e3d6000fd5b505050506040513d601f19601f820116820180604052508101906114cd9190613f74565b506001600160701b039182169350169050826114e98584614727565b6114f39190614617565b6114fd90876145ff565b95508261150a8583614727565b6115149190614617565b61151e90866145ff565b94505050505b600082156115565761019754610192546101915461155392916000916001600160a01b03918216911687612710565b90505b61156081856145ff565b94505050505090565b6107758133612bf6565b61157d8282610be4565b6106945760008281526065602090815260408083206001600160a01b03851684529091529020805460ff191660011790556115b53390565b6001600160a01b0316816001600160a01b0316837f2f8788117e7eff1d82e926ec794901d17c78024a50270940304540a733656f0d60405160405180910390a45050565b6116038282610be4565b156106945760008281526065602090815260408083206001600160a01b0385168085529252808320805460ff1916905551339285917ff6391f5c32d9c69d2a47ea670b442974b53935d1edc7fd64eb21e047a839171b9190a45050565b7f189ab7a9244df0848122154315af71fe140f3db0fe014031783b0946b8c9d2e361069481611569565b7f4910fdfa16fed3260ed0e7147f7cc6da11a60208b5b9406d12a635614ffd91435460ff16156116bd5761061083612c5a565b826001600160a01b03166352d1902d6040518163ffffffff1660e01b815260040160206040518083038186803b1580156116f657600080fd5b505afa925050508015611726575060408051601f3d908101601f1916820190925261172391810190613f0c565b60015b6117895760405162461bcd60e51b815260206004820152602e60248201527f45524331393637557067726164653a206e657720696d706c656d656e7461746960448201526d6f6e206973206e6f74205555505360901b6064820152608401610681565b60008051602061487783398151915281146117f85760405162461bcd60e51b815260206004820152602960248201527f45524331393637557067726164653a20756e737570706f727465642070726f786044820152681a58589b195555525160ba1b6064820152608401610681565b50610610838383612cf6565b60008054610100900460ff161561184b578160ff1660011480156118275750303b155b6118435760405162461bcd60e51b81526004016106819061432a565b506000919050565b60005460ff8084169116106118725760405162461bcd60e51b81526004016106819061432a565b506000805460ff191660ff92909216919091179055600190565b60006118986001611804565b905080156118b0576000805461ff0019166101001790555b6118b8612d21565b6118c0612d21565b6118cb600033611573565b610ba27f189ab7a9244df0848122154315af71fe140f3db0fe014031783b0946b8c9d2e333611573565b610191546001600160a01b038381169116146119235760405162461bcd60e51b8152600401610681906143a6565b60008061019660009054906101000a90046001600160a01b03166001600160a01b0316630902f1ac6040518163ffffffff1660e01b815260040160606040518083038186803b15801561197557600080fd5b505afa158015611989573d6000803e3d6000fd5b505050506040513d601f19601f820116820180604052508101906119ad9190613f74565b506001600160701b031691506001600160701b031691506103e8821180156119d657506103e881115b6119f25760405162461bcd60e51b81526004016106819061429c565b610192546040516370a0823160e01b81523060048201526000916001600160a01b0316906370a082319060240160206040518083038186803b158015611a3757600080fd5b505afa158015611a4b573d6000803e3d6000fd5b505050506040513d601f19601f82011682018060405250810190611a6f9190613f0c565b905060008115611aa357610197546101925461019154611aa092916000916001600160a01b03918216911686612710565b90505b610191546040516370a0823160e01b81523060048201526000916001600160a01b0316906370a082319060240160206040518083038186803b158015611ae857600080fd5b505afa158015611afc573d6000803e3d6000fd5b505050506040513d601f19601f82011682018060405250810190611b209190613f0c565b90506000611b6d611b32600285614617565b611b3c9084614746565b61019454610195546101975461019154610192548c948c94909390926001926001600160a01b039182169116612d8c565b610197546101915461019254929350611b99926000916001600160a01b03908116911630808785612e3b565b50610191546040516370a0823160e01b81523060048201526001600160a01b03909116906370a082319060240160206040518083038186803b158015611bde57600080fd5b505afa158015611bf2573d6000803e3d6000fd5b505050506040513d601f19601f82011682018060405250810190611c169190613f0c565b610192546040516370a0823160e01b81523060048201529193506001600160a01b0316906370a082319060240160206040518083038186803b158015611c5b57600080fd5b505afa158015611c6f573d6000803e3d6000fd5b505050506040513d601f19601f82011682018060405250810190611c939190613f0c565b6101915461019254919550611cc9916001600160a01b0391821691168487611cba826130aa565b611cc38a6130aa565b306130ce565b5050505050505050505050565b610196546040805163b88a802f60e01b815290516000926001600160a01b03169163b88a802f916004808301928692919082900301818387803b158015611d1c57600080fd5b505af1158015611d30573d6000803e3d6000fd5b5050610193546040516370a0823160e01b8152306004820152600093508392506001600160a01b03909116906370a082319060240160206040518083038186803b158015611d7d57600080fd5b505afa158015611d91573d6000803e3d6000fd5b505050506040513d601f19601f82011682018060405250810190611db59190613f0c565b90508015611e6d576101935461019154600091611de0916001600160a01b03918216911684306132cb565b610193546040516370a0823160e01b81523060048201529192506001600160a01b0316906370a082319060240160206040518083038186803b158015611e2557600080fd5b505afa158015611e39573d6000803e3d6000fd5b505050506040513d601f19601f82011682018060405250810190611e5d9190613f0c565b9150611e6981846145ff565b9250505b610191546040516370a0823160e01b81523060048201526001600160a01b039091169063a9059cbb90869083906370a082319060240160206040518083038186803b158015611ebb57600080fd5b505afa158015611ecf573d6000803e3d6000fd5b505050506040513d601f19601f82011682018060405250810190611ef39190613f0c565b6040516001600160e01b031960e085901b1681526001600160a01b0390921660048301526024820152604401602060405180830381600087803b158015611f3957600080fd5b505af1158015611f4d573d6000803e3d6000fd5b505050506040513d601f19601f82011682018060405250810190611f719190613ed6565b50909392505050565b610191546000906001600160a01b03848116911614611fab5760405162461bcd60e51b8152600401610681906143a6565b60008061019660009054906101000a90046001600160a01b03166001600160a01b0316630902f1ac6040518163ffffffff1660e01b815260040160606040518083038186803b158015611ffd57600080fd5b505afa158015612011573d6000803e3d6000fd5b505050506040513d601f19601f820116820180604052508101906120359190613f74565b506001600160701b031691506001600160701b031691506103e88211801561205e57506103e881115b61207a5760405162461bcd60e51b81526004016106819061429c565b610196546040516370a0823160e01b81523060048201526000916001600160a01b0316906370a082319060240160206040518083038186803b1580156120bf57600080fd5b505afa1580156120d3573d6000803e3d6000fd5b505050506040513d601f19601f820116820180604052508101906120f79190613f0c565b905080156121f25761019654604080516318160ddd60e01b815290516000926001600160a01b0316916318160ddd916004808301926020929190829003018186803b15801561214557600080fd5b505afa158015612159573d6000803e3d6000fd5b505050506040513d601f19601f8201168201806040525081019061217d9190613f0c565b905060008161218c8487614727565b6121969190614617565b90506000826121a58587614727565b6121af9190614617565b6101915461019254610196549293506121ec926001600160a01b03928316929182169116876121dd876130aa565b6121e6876130aa565b306134b7565b50505050505b610192546040516370a0823160e01b81523060048201526000916001600160a01b0316906370a082319060240160206040518083038186803b15801561223757600080fd5b505afa15801561224b573d6000803e3d6000fd5b505050506040513d601f19601f8201168201806040525081019061226f9190613f0c565b61019754610192546101915492935061229b926000916001600160a01b03908116911630808785612e3b565b50610191546040516370a0823160e01b81523060048201526001600160a01b03909116906370a082319060240160206040518083038186803b1580156122e057600080fd5b505afa1580156122f4573d6000803e3d6000fd5b505050506040513d601f19601f820116820180604052508101906123189190613f0c565b979650505050505050565b610191546000906001600160a01b038581169116146123545760405162461bcd60e51b8152600401610681906143a6565b60008061019660009054906101000a90046001600160a01b03166001600160a01b0316630902f1ac6040518163ffffffff1660e01b815260040160606040518083038186803b1580156123a657600080fd5b505afa1580156123ba573d6000803e3d6000fd5b505050506040513d601f19601f820116820180604052508101906123de9190613f74565b506001600160701b031691506001600160701b031691506103e88211801561240757506103e881115b6124235760405162461bcd60e51b81526004016106819061429c565b610196546040516370a0823160e01b81523060048201526000916001600160a01b0316906370a082319060240160206040518083038186803b15801561246857600080fd5b505afa15801561247c573d6000803e3d6000fd5b505050506040513d601f19601f820116820180604052508101906124a09190613f0c565b905080156125dc5761019654604080516318160ddd60e01b815290516000926001600160a01b0316916318160ddd916004808301926020929190829003018186803b1580156124ee57600080fd5b505afa158015612502573d6000803e3d6000fd5b505050506040513d601f19601f820116820180604052508101906125269190613f0c565b9050600061256a6125368961361d565b61019454610195546101975461019154610192548b948b948a9491939092600192916001600160a01b03908116911661362d565b9050828111156125775750815b6000826125848388614727565b61258e9190614617565b905060008361259d8488614727565b6125a79190614617565b6101915461019254610196549293506125d5926001600160a01b03928316929182169116866121dd876130aa565b5050505050505b610192546040516370a0823160e01b81523060048201526000916001600160a01b0316906370a082319060240160206040518083038186803b15801561262157600080fd5b505afa158015612635573d6000803e3d6000fd5b505050506040513d601f19601f820116820180604052508101906126599190613f0c565b610197546101925461019154929350612685926000916001600160a01b03908116911630808785612e3b565b50610191546040516370a0823160e01b81523060048201526001600160a01b03909116906370a082319060240160206040518083038186803b1580156126ca57600080fd5b505afa1580156126de573d6000803e3d6000fd5b505050506040513d601f19601f820116820180604052508101906127029190613f0c565b9450505050505b9392505050565b604080516101208101825260008082526020820181905291810182905260608082018390526080820183905260a0820183905260c0820183905260e082018390526101008201528086600181111561276a5761276a6147f1565b9081600181111561277d5761277d6147f1565b9052506001600160a01b0385811660208301528481166040808401919091526060830185905261015f549051631f29a8cd60e31b8152600481018a90526000928392839291169063f94d46689060240160006040518083038186803b1580156127e557600080fd5b505afa1580156127f9573d6000803e3d6000fd5b505050506040513d6000823e601f3d908101601f191682016040526128219190810190613dcc565b61015f5460405163f6c0092760e01b8152600481018f9052939650919450925060009182916001600160a01b03169063f6c0092790602401604080518083038186803b15801561287057600080fd5b505afa158015612884573d6000803e3d6000fd5b505050506040513d601f19601f820116820180604052508101906128a89190613d0f565b909250905060008160028111156128c1576128c16147f1565b14156129fa5760008060005b87518160ff161015612969578c6001600160a01b0316888260ff16815181106128f8576128f8614807565b60200260200101516001600160a01b0316141561291a578060ff169250612957565b8b6001600160a01b0316888260ff168151811061293957612939614807565b60200260200101516001600160a01b03161415612957578060ff1691505b80612961816147bb565b9150506128cd565b5060405162f64aa560e11b81526001600160a01b038516906301ec954a9061299b908b908a90879087906004016144cf565b60206040518083038186803b1580156129b357600080fd5b505afa1580156129c7573d6000803e3d6000fd5b505050506040513d601f19601f820116820180604052508101906129eb9190613f0c565b98505050505050505050612bed565b6001816002811115612a0e57612a0e6147f1565b1415612b195760008060005b87518160ff161015612ae8578c6001600160a01b0316888260ff1681518110612a4557612a45614807565b60200260200101516001600160a01b03161415612a8057868160ff1681518110612a7157612a71614807565b60200260200101519250612ad6565b8b6001600160a01b0316888260ff1681518110612a9f57612a9f614807565b60200260200101516001600160a01b03161415612ad657868160ff1681518110612acb57612acb614807565b602002602001015191505b80612ae0816147bb565b915050612a1a565b5060405163274b044360e21b81526001600160a01b03851690639d2c110c9061299b908b9086908690600401614530565b60008060005b87518160ff161015612ae8578c6001600160a01b0316888260ff1681518110612b4a57612b4a614807565b60200260200101516001600160a01b03161415612b8557868160ff1681518110612b7657612b76614807565b60200260200101519250612bdb565b8b6001600160a01b0316888260ff1681518110612ba457612ba4614807565b60200260200101516001600160a01b03161415612bdb57868160ff1681518110612bd057612bd0614807565b602002602001015191505b80612be5816147bb565b915050612b1f565b95945050505050565b612c008282610be4565b61069457612c18816001600160a01b031660146136f7565b612c238360206136f7565b604051602001612c34929190614191565b60408051601f198184030181529082905262461bcd60e51b825261068191600401614206565b6001600160a01b0381163b612cc75760405162461bcd60e51b815260206004820152602d60248201527f455243313936373a206e657720696d706c656d656e746174696f6e206973206e60448201526c1bdd08184818dbdb9d1c9858dd609a1b6064820152608401610681565b60008051602061487783398151915280546001600160a01b0319166001600160a01b0392909216919091179055565b612cff83613893565b600082511180612d0c5750805b1561061057612d1b83836138d3565b50505050565b600054610100900460ff16610b695760405162461bcd60e51b815260206004820152602b60248201527f496e697469616c697a61626c653a20636f6e7472616374206973206e6f74206960448201526a6e697469616c697a696e6760a81b6064820152608401610681565b6000808888612d9b898d614727565b612da59190614617565b612daf91906145ff565b612db98a8d614727565b612dc39190614617565b905060005b86811015612e2c576000612de0876000888887612710565b90508a83612dee838f614727565b612df89190614617565b612e0291906145ff565b612e0c8c8f614727565b612e169190614617565b9250508080612e24906147a0565b915050612dc8565b509a9950505050505050505050565b61015f546040516370a0823160e01b81523060048201526000916001600160a01b038981169263095ea7b392919091169083906370a082319060240160206040518083038186803b158015612e8f57600080fd5b505afa158015612ea3573d6000803e3d6000fd5b505050506040513d601f19601f82011682018060405250810190612ec79190613f0c565b6040516001600160e01b031960e085901b1681526001600160a01b0390921660048301526024820152604401602060405180830381600087803b158015612f0d57600080fd5b505af1158015612f21573d6000803e3d6000fd5b505050506040513d601f19601f82011682018060405250810190612f459190613ed6565b50612f926040805160c0810190915260008082526020820190815260200160006001600160a01b0316815260200160006001600160a01b0316815260200160008152602001606081525090565b89815260208101896001811115612fab57612fab6147f1565b90816001811115612fbe57612fbe6147f1565b9052506001600160a01b038881166040838101919091528882166060808501919091526080808501889052825190810183526000602082018190529181019190915288831681528783169181019190915261015f549091166352bbbe2983838761302a426102586145ff565b6040518563ffffffff1660e01b81526004016130499493929190614414565b602060405180830381600087803b15801561306357600080fd5b505af1158015613077573d6000803e3d6000fd5b505050506040513d601f19601f8201168201806040525081019061309b9190613f0c565b9b9a5050505050505050505050565b60006127106130ba600482614746565b6130c49084614727565b6105d69190614617565b61012d5460405163095ea7b360e01b81526001600160a01b03918216600482015260248101879052600091829182918b169063095ea7b390604401602060405180830381600087803b15801561312357600080fd5b505af1158015613137573d6000803e3d6000fd5b505050506040513d601f19601f8201168201806040525081019061315b9190613ed6565b5061012d5460405163095ea7b360e01b81526001600160a01b03918216600482015260248101899052908a169063095ea7b390604401602060405180830381600087803b1580156131ab57600080fd5b505af11580156131bf573d6000803e3d6000fd5b505050506040513d601f19601f820116820180604052508101906131e39190613ed6565b5061012d546001600160a01b031663e8e337008b8b8b8b8b8b8b613209426102586145ff565b60405160e08a901b6001600160e01b03191681526001600160a01b039889166004820152968816602488015260448701959095526064860193909352608485019190915260a484015290921660c482015260e481019190915261010401606060405180830381600087803b15801561328057600080fd5b505af1158015613294573d6000803e3d6000fd5b505050506040513d601f19601f820116820180604052508101906132b89190613fdd565b9250925092509750975097945050505050565b61012d5460405163095ea7b360e01b81526001600160a01b0391821660048201526024810184905260009186169063095ea7b390604401602060405180830381600087803b15801561331c57600080fd5b505af1158015613330573d6000803e3d6000fd5b505050506040513d601f19601f820116820180604052508101906133549190613ed6565b5060006133628686866139be565b90508061337357600091505061121f565b60408051600280825260608201835260009260208301908036833701905050905086816000815181106133a8576133a8614807565b60200260200101906001600160a01b031690816001600160a01b03168152505085816001815181106133dc576133dc614807565b6001600160a01b03928316602091820292909201015261012d54600091166338ed173987613409866130aa565b8589613417426102586145ff565b6040518663ffffffff1660e01b815260040161343795949392919061456e565b600060405180830381600087803b15801561345157600080fd5b505af1158015613465573d6000803e3d6000fd5b505050506040513d6000823e601f3d908101601f1916820160405261348d9190810190613ea1565b9050806001815181106134a2576134a2614807565b60200260200101519350505050949350505050565b61012d5460405163095ea7b360e01b81526001600160a01b0391821660048201526024810186905260009182919088169063095ea7b390604401602060405180830381600087803b15801561350b57600080fd5b505af115801561351f573d6000803e3d6000fd5b505050506040513d601f19601f820116820180604052508101906135439190613ed6565b5061012d546001600160a01b031663baa2abde8a8a89898989613568426102586145ff565b60405160e089901b6001600160e01b03191681526001600160a01b039788166004820152958716602487015260448601949094526064850192909252608484015290921660a482015260c481019190915260e4016040805180830381600087803b1580156135d557600080fd5b505af11580156135e9573d6000803e3d6000fd5b505050506040513d601f19601f8201168201806040525081019061360d9190613fb9565b9150915097509795505050505050565b60006127106130ba6004826145ff565b6000808661363b898c614727565b6136459190614617565b61364f908c6145ff565b6136598d8b614727565b6136639190614617565b905060005b868110156136e75760008a61367d848e614727565b6136879190614617565b90506000613699886000888a86612710565b9050816136a6828f614727565b6136b09190614617565b6136ba908f6145ff565b8f8d6136c69190614727565b6136d09190614617565b9350505080806136df906147a0565b915050613668565b509b9a5050505050505050505050565b60606000613706836002614727565b6137119060026145ff565b67ffffffffffffffff8111156137295761372961481d565b6040519080825280601f01601f191660200182016040528015613753576020820181803683370190505b509050600360fc1b8160008151811061376e5761376e614807565b60200101906001600160f81b031916908160001a905350600f60fb1b8160018151811061379d5761379d614807565b60200101906001600160f81b031916908160001a90535060006137c1846002614727565b6137cc9060016145ff565b90505b6001811115613844576f181899199a1a9b1b9c1cb0b131b232b360811b85600f166010811061380057613800614807565b1a60f81b82828151811061381657613816614807565b60200101906001600160f81b031916908160001a90535060049490941c9361383d81614789565b90506137cf565b5083156127095760405162461bcd60e51b815260206004820181905260248201527f537472696e67733a20686578206c656e67746820696e73756666696369656e746044820152606401610681565b61389c81612c5a565b6040516001600160a01b038216907fbc7cd75a20ee27fd9adebab32041f755214dbc6bffa90cc0225b39da2e5c2d3b90600090a250565b60606001600160a01b0383163b61393b5760405162461bcd60e51b815260206004820152602660248201527f416464726573733a2064656c65676174652063616c6c20746f206e6f6e2d636f6044820152651b9d1c9858dd60d21b6064820152608401610681565b600080846001600160a01b0316846040516139569190614175565b600060405180830381855af49150503d8060008114613991576040519150601f19603f3d011682016040523d82523d6000602084013e613996565b606091505b5091509150612bed828260405180606001604052806027815260200161489760279139613aec565b6040805160028082526060820183526000928392919060208301908036833701905050905084816000815181106139f7576139f7614807565b60200260200101906001600160a01b031690816001600160a01b0316815250508381600181518110613a2b57613a2b614807565b6001600160a01b03928316602091820292909201015261012d5460405163d06ca61f60e01b8152600092919091169063d06ca61f90613a709087908690600401614555565b60006040518083038186803b158015613a8857600080fd5b505afa158015613a9c573d6000803e3d6000fd5b505050506040513d6000823e601f3d908101601f19168201604052613ac49190810190613ea1565b905080600181518110613ad957613ad9614807565b6020026020010151925050509392505050565b60608315613afb575081612709565b825115613b0b5782518084602001fd5b8160405162461bcd60e51b81526004016106819190614206565b600082601f830112613b3657600080fd5b81516020613b4b613b46836145db565b6145aa565b80838252828201915082860187848660051b8901011115613b6b57600080fd5b60005b85811015613b8a57815184529284019290840190600101613b6e565b5090979650505050505050565b80516001600160701b038116811461101e57600080fd5b600060208284031215613bc057600080fd5b813561270981614833565b600080600060608486031215613be057600080fd5b8335613beb81614833565b92506020840135613bfb81614833565b91506040840135613c0b81614833565b809150509250925092565b60008060008060808587031215613c2c57600080fd5b8435613c3781614833565b93506020850135613c4781614833565b92506040850135613c5781614833565b9396929550929360600135925050565b60008060408385031215613c7a57600080fd5b8235613c8581614833565b915060208381013567ffffffffffffffff80821115613ca357600080fd5b818601915086601f830112613cb757600080fd5b813581811115613cc957613cc961481d565b613cdb601f8201601f191685016145aa565b91508082528784828501011115613cf157600080fd5b80848401858401376000848284010152508093505050509250929050565b60008060408385031215613d2257600080fd5b8251613d2d81614833565b602084015190925060038110613d4257600080fd5b809150509250929050565b60008060408385031215613d6057600080fd5b8235613d6b81614833565b946020939093013593505050565b60008060008060808587031215613d8f57600080fd5b8435613d9a81614833565b9350602085013592506040850135613db181614833565b91506060850135613dc181614848565b939692955090935050565b600080600060608486031215613de157600080fd5b835167ffffffffffffffff80821115613df957600080fd5b818601915086601f830112613e0d57600080fd5b81516020613e1d613b46836145db565b8083825282820191508286018b848660051b8901011115613e3d57600080fd5b600096505b84871015613e69578051613e5581614833565b835260019690960195918301918301613e42565b5091890151919750909350505080821115613e8357600080fd5b50613e9086828701613b25565b925050604084015190509250925092565b600060208284031215613eb357600080fd5b815167ffffffffffffffff811115613eca57600080fd5b61121f84828501613b25565b600060208284031215613ee857600080fd5b815161270981614848565b600060208284031215613f0557600080fd5b5035919050565b600060208284031215613f1e57600080fd5b5051919050565b60008060408385031215613f3857600080fd5b823591506020830135613d4281614833565b600060208284031215613f5c57600080fd5b81356001600160e01b03198116811461270957600080fd5b600080600060608486031215613f8957600080fd5b613f9284613b97565b9250613fa060208501613b97565b9150604084015163ffffffff81168114613c0b57600080fd5b60008060408385031215613fcc57600080fd5b505080516020909101519092909150565b600080600060608486031215613ff257600080fd5b8351925060208401519150604084015190509250925092565b60006020828403121561401d57600080fd5b815160ff8116811461270957600080fd5b600081518084526020808501945080840160005b838110156140675781516001600160a01b031687529582019590820190600101614042565b509495945050505050565b6000815180845261408a81602086016020860161475d565b601f01601f19169290920160200192915050565b600281106140bc57634e487b7160e01b600052602160045260246000fd5b9052565b60006101206140d084845161409e565b6020838101516001600160a01b031690850152604080840151906140fe908601826001600160a01b03169052565b50606083015160608501526080830151608085015260a083015160a085015260c083015161413760c08601826001600160a01b03169052565b5060e083015161415260e08601826001600160a01b03169052565b5061010080840151828287015261416b83870182614072565b9695505050505050565b6000825161418781846020870161475d565b9190910192915050565b7f416363657373436f6e74726f6c3a206163636f756e74200000000000000000008152600083516141c981601785016020880161475d565b7001034b99036b4b9b9b4b733903937b6329607d1b60179184019182015283516141fa81602884016020880161475d565b01602801949350505050565b6020815260006127096020830184614072565b6020808252601f908201527f5265737472696374656420746f20504f5254464f4c494f5f4d414e4147455200604082015260600190565b6020808252602c908201527f46756e6374696f6e206d7573742062652063616c6c6564207468726f7567682060408201526b19195b1959d85d1958d85b1b60a21b606082015260800190565b60208082526022908201527f4c6971756964697479206c70546f6b656e20726573657276657320746f6f206c6040820152616f7760f01b606082015260800190565b6020808252602c908201527f46756e6374696f6e206d7573742062652063616c6c6564207468726f7567682060408201526b6163746976652070726f787960a01b606082015260800190565b6020808252602e908201527f496e697469616c697a61626c653a20636f6e747261637420697320616c72656160408201526d191e481a5b9a5d1a585b1a5e995960921b606082015260800190565b6020808252601490820152735265737472696374656420746f2061646d696e7360601b604082015260600190565b60208082526019908201527f536f6d6520746f6b656e206e6f7420636f6d70617469626c6500000000000000604082015260600190565b60208082526018908201527f5a65726f2061646472657373206e6f7420616c6c6f7765640000000000000000604082015260600190565b60e08152845160e08201526000602086015161443461010084018261409e565b5060408601516001600160a01b03908116610120840152606087015116610140830152608086015161016083015260a086015160c061018084015261447d6101a0840182614072565b9150506144bd602083018680516001600160a01b039081168352602080830151151590840152604080830151909116908301526060908101511515910152565b60a082019390935260c0015292915050565b6080815260006144e260808301876140c0565b82810360208481019190915286518083528782019282019060005b81811015614519578451835293830193918301916001016144fd565b505060408501969096525050506060015292915050565b60608152600061454360608301866140c0565b60208301949094525060400152919050565b82815260406020820152600061121f604083018461402e565b85815284602082015260a06040820152600061458d60a083018661402e565b6001600160a01b0394909416606083015250608001529392505050565b604051601f8201601f1916810167ffffffffffffffff811182821017156145d3576145d361481d565b604052919050565b600067ffffffffffffffff8211156145f5576145f561481d565b5060051b60200190565b60008219821115614612576146126147db565b500190565b60008261463457634e487b7160e01b600052601260045260246000fd5b500490565b600181815b8085111561467457816000190482111561465a5761465a6147db565b8085161561466757918102915b93841c939080029061463e565b509250929050565b600061270960ff841683600082614695575060016105d6565b816146a2575060006105d6565b81600181146146b857600281146146c2576146de565b60019150506105d6565b60ff8411156146d3576146d36147db565b50506001821b6105d6565b5060208310610133831016604e8410600b8410161715614701575081810a6105d6565b61470b8383614639565b806000190482111561471f5761471f6147db565b029392505050565b6000816000190483118215151615614741576147416147db565b500290565b600082821015614758576147586147db565b500390565b60005b83811015614778578181015183820152602001614760565b83811115612d1b5750506000910152565b600081614798576147986147db565b506000190190565b60006000198214156147b4576147b46147db565b5060010190565b600060ff821660ff8114156147d2576147d26147db565b60010192915050565b634e487b7160e01b600052601160045260246000fd5b634e487b7160e01b600052602160045260246000fd5b634e487b7160e01b600052603260045260246000fd5b634e487b7160e01b600052604160045260246000fd5b6001600160a01b038116811461077557600080fd5b801515811461077557600080fdfe90c2aa7471c04182221f68e80c07ab1e5946e4c63f8693e14ca40385d529f051360894a13ba1a3210667c828492db98dca3e2076cc3735a920a3ca505d382bbc416464726573733a206c6f772d6c6576656c2064656c65676174652063616c6c206661696c6564a26469706673582212201e3b655b10b761f040c45231988de9d43addf0b9b6132cd983b5db580ef00b5364736f6c63430008060033496e697469616c697a61626c653a20636f6e747261637420697320616c726561",
  "devdoc": {
    "kind": "dev",
    "methods": {
      "constructor": {
        "custom:oz-upgrades-unsafe-allow": "constructor"
      },
      "getRoleAdmin(bytes32)": {
        "details": "Returns the admin role that controls `role`. See {grantRole} and {revokeRole}. To change a role's admin, use {_setRoleAdmin}."
      },
      "grantRole(bytes32,address)": {
        "details": "Grants `role` to `account`. If `account` had not been already granted `role`, emits a {RoleGranted} event. Requirements: - the caller must have ``role``'s admin role."
      },
      "hasRole(bytes32,address)": {
        "details": "Returns `true` if `account` has been granted `role`."
      },
      "proxiableUUID()": {
        "details": "Implementation of the ERC1822 {proxiableUUID} function. This returns the storage slot used by the implementation. It is used to validate that the this implementation remains valid after an upgrade. IMPORTANT: A proxy pointing at a proxiable contract should not be considered proxiable itself, because this risks bricking a proxy that upgrades to it, by delegating to itself until out of gas. Thus it is critical that this function revert if invoked through a proxy. This is guaranteed by the `notDelegated` modifier."
      },
      "renounceRole(bytes32,address)": {
        "details": "Revokes `role` from the calling account. Roles are often managed via {grantRole} and {revokeRole}: this function's purpose is to provide a mechanism for accounts to lose their privileges if they are compromised (such as when a trusted device is misplaced). If the calling account had been revoked `role`, emits a {RoleRevoked} event. Requirements: - the caller must be `account`."
      },
      "revokeRole(bytes32,address)": {
        "details": "Revokes `role` from `account`. If `account` had been granted `role`, emits a {RoleRevoked} event. Requirements: - the caller must have ``role``'s admin role."
      },
      "supportsInterface(bytes4)": {
        "details": "See {IERC165-supportsInterface}."
      },
      "upgradeTo(address)": {
        "details": "Upgrade the implementation of the proxy to `newImplementation`. Calls {_authorizeUpgrade}. Emits an {Upgraded} event."
      },
      "upgradeToAndCall(address,bytes)": {
        "details": "Upgrade the implementation of the proxy to `newImplementation`, and subsequently execute the function call encoded in `data`. Calls {_authorizeUpgrade}. Emits an {Upgraded} event."
      }
    },
    "version": 1
  },
  "userdoc": {
    "kind": "user",
    "methods": {},
    "version": 1
  },
  "storageLayout": {
    "storage": [
      {
        "astId": 808,
        "contract": "contracts/StrategyMeshSwapUsdcUsdt.sol:StrategyMeshSwapUsdcUsdt",
        "label": "_initialized",
        "offset": 0,
        "slot": "0",
        "type": "t_uint8"
      },
      {
        "astId": 811,
        "contract": "contracts/StrategyMeshSwapUsdcUsdt.sol:StrategyMeshSwapUsdcUsdt",
        "label": "_initializing",
        "offset": 1,
        "slot": "0",
        "type": "t_bool"
      },
      {
        "astId": 1363,
        "contract": "contracts/StrategyMeshSwapUsdcUsdt.sol:StrategyMeshSwapUsdcUsdt",
        "label": "__gap",
        "offset": 0,
        "slot": "1",
        "type": "t_array(t_uint256)50_storage"
      },
      {
        "astId": 1670,
        "contract": "contracts/StrategyMeshSwapUsdcUsdt.sol:StrategyMeshSwapUsdcUsdt",
        "label": "__gap",
        "offset": 0,
        "slot": "51",
        "type": "t_array(t_uint256)50_storage"
      },
      {
        "astId": 39,
        "contract": "contracts/StrategyMeshSwapUsdcUsdt.sol:StrategyMeshSwapUsdcUsdt",
        "label": "_roles",
        "offset": 0,
        "slot": "101",
        "type": "t_mapping(t_bytes32,t_struct(RoleData)34_storage)"
      },
      {
        "astId": 338,
        "contract": "contracts/StrategyMeshSwapUsdcUsdt.sol:StrategyMeshSwapUsdcUsdt",
        "label": "__gap",
        "offset": 0,
        "slot": "102",
        "type": "t_array(t_uint256)49_storage"
      },
      {
        "astId": 790,
        "contract": "contracts/StrategyMeshSwapUsdcUsdt.sol:StrategyMeshSwapUsdcUsdt",
        "label": "__gap",
        "offset": 0,
        "slot": "151",
        "type": "t_array(t_uint256)50_storage"
      },
      {
        "astId": 1078,
        "contract": "contracts/StrategyMeshSwapUsdcUsdt.sol:StrategyMeshSwapUsdcUsdt",
        "label": "__gap",
        "offset": 0,
        "slot": "201",
        "type": "t_array(t_uint256)50_storage"
      },
      {
        "astId": 28845,
        "contract": "contracts/StrategyMeshSwapUsdcUsdt.sol:StrategyMeshSwapUsdcUsdt",
        "label": "portfolioManager",
        "offset": 0,
        "slot": "251",
        "type": "t_address"
      },
      {
        "astId": 29152,
        "contract": "contracts/StrategyMeshSwapUsdcUsdt.sol:StrategyMeshSwapUsdcUsdt",
        "label": "__gap",
        "offset": 0,
        "slot": "252",
        "type": "t_array(t_uint256)49_storage"
      },
      {
        "astId": 30411,
        "contract": "contracts/StrategyMeshSwapUsdcUsdt.sol:StrategyMeshSwapUsdcUsdt",
        "label": "uniswapRouter",
        "offset": 0,
        "slot": "301",
        "type": "t_contract(IUniswapV2Router02)27285"
      },
      {
        "astId": 30711,
        "contract": "contracts/StrategyMeshSwapUsdcUsdt.sol:StrategyMeshSwapUsdcUsdt",
        "label": "__gap",
        "offset": 0,
        "slot": "302",
        "type": "t_array(t_uint256)49_storage"
      },
      {
        "astId": 29168,
        "contract": "contracts/StrategyMeshSwapUsdcUsdt.sol:StrategyMeshSwapUsdcUsdt",
        "label": "balancerVault",
        "offset": 0,
        "slot": "351",
        "type": "t_contract(IVault)24806"
      },
      {
        "astId": 30134,
        "contract": "contracts/StrategyMeshSwapUsdcUsdt.sol:StrategyMeshSwapUsdcUsdt",
        "label": "__gap",
        "offset": 0,
        "slot": "352",
        "type": "t_array(t_uint256)49_storage"
      },
      {
        "astId": 19362,
        "contract": "contracts/StrategyMeshSwapUsdcUsdt.sol:StrategyMeshSwapUsdcUsdt",
        "label": "usdcToken",
        "offset": 0,
        "slot": "401",
        "type": "t_contract(IERC20)1823"
      },
      {
        "astId": 19365,
        "contract": "contracts/StrategyMeshSwapUsdcUsdt.sol:StrategyMeshSwapUsdcUsdt",
        "label": "usdtToken",
        "offset": 0,
        "slot": "402",
        "type": "t_contract(IERC20)1823"
      },
      {
        "astId": 19368,
        "contract": "contracts/StrategyMeshSwapUsdcUsdt.sol:StrategyMeshSwapUsdcUsdt",
        "label": "meshToken",
        "offset": 0,
        "slot": "403",
        "type": "t_contract(IERC20)1823"
      },
      {
        "astId": 19370,
        "contract": "contracts/StrategyMeshSwapUsdcUsdt.sol:StrategyMeshSwapUsdcUsdt",
        "label": "usdcTokenDenominator",
        "offset": 0,
        "slot": "404",
        "type": "t_uint256"
      },
      {
        "astId": 19372,
        "contract": "contracts/StrategyMeshSwapUsdcUsdt.sol:StrategyMeshSwapUsdcUsdt",
        "label": "usdtTokenDenominator",
        "offset": 0,
        "slot": "405",
        "type": "t_uint256"
      },
      {
        "astId": 19375,
        "contract": "contracts/StrategyMeshSwapUsdcUsdt.sol:StrategyMeshSwapUsdcUsdt",
        "label": "meshSwapUsdcUsdt",
        "offset": 0,
        "slot": "406",
        "type": "t_contract(IMeshSwapLP)25738"
      },
      {
        "astId": 19377,
        "contract": "contracts/StrategyMeshSwapUsdcUsdt.sol:StrategyMeshSwapUsdcUsdt",
        "label": "poolIdUsdcTusdDaiUsdt",
        "offset": 0,
        "slot": "407",
        "type": "t_bytes32"
      }
    ],
    "types": {
      "t_address": {
        "encoding": "inplace",
        "label": "address",
        "numberOfBytes": "20"
      },
      "t_array(t_uint256)49_storage": {
        "base": "t_uint256",
        "encoding": "inplace",
        "label": "uint256[49]",
        "numberOfBytes": "1568"
      },
      "t_array(t_uint256)50_storage": {
        "base": "t_uint256",
        "encoding": "inplace",
        "label": "uint256[50]",
        "numberOfBytes": "1600"
      },
      "t_bool": {
        "encoding": "inplace",
        "label": "bool",
        "numberOfBytes": "1"
      },
      "t_bytes32": {
        "encoding": "inplace",
        "label": "bytes32",
        "numberOfBytes": "32"
      },
      "t_contract(IERC20)1823": {
        "encoding": "inplace",
        "label": "contract IERC20",
        "numberOfBytes": "20"
      },
      "t_contract(IMeshSwapLP)25738": {
        "encoding": "inplace",
        "label": "contract IMeshSwapLP",
        "numberOfBytes": "20"
      },
      "t_contract(IUniswapV2Router02)27285": {
        "encoding": "inplace",
        "label": "contract IUniswapV2Router02",
        "numberOfBytes": "20"
      },
      "t_contract(IVault)24806": {
        "encoding": "inplace",
        "label": "contract IVault",
        "numberOfBytes": "20"
      },
      "t_mapping(t_address,t_bool)": {
        "encoding": "mapping",
        "key": "t_address",
        "label": "mapping(address => bool)",
        "numberOfBytes": "32",
        "value": "t_bool"
      },
      "t_mapping(t_bytes32,t_struct(RoleData)34_storage)": {
        "encoding": "mapping",
        "key": "t_bytes32",
        "label": "mapping(bytes32 => struct AccessControlUpgradeable.RoleData)",
        "numberOfBytes": "32",
        "value": "t_struct(RoleData)34_storage"
      },
      "t_struct(RoleData)34_storage": {
        "encoding": "inplace",
        "label": "struct AccessControlUpgradeable.RoleData",
        "members": [
          {
            "astId": 31,
            "contract": "contracts/StrategyMeshSwapUsdcUsdt.sol:StrategyMeshSwapUsdcUsdt",
            "label": "members",
            "offset": 0,
            "slot": "0",
            "type": "t_mapping(t_address,t_bool)"
          },
          {
            "astId": 33,
            "contract": "contracts/StrategyMeshSwapUsdcUsdt.sol:StrategyMeshSwapUsdcUsdt",
            "label": "adminRole",
            "offset": 0,
            "slot": "1",
            "type": "t_bytes32"
          }
        ],
        "numberOfBytes": "64"
      },
      "t_uint256": {
        "encoding": "inplace",
        "label": "uint256",
        "numberOfBytes": "32"
      },
      "t_uint8": {
        "encoding": "inplace",
        "label": "uint8",
        "numberOfBytes": "1"
      }
    }
  }
}