{
  "address": "0xa7559074CBE82b333B5bf110eFD23C52685402c1",
  "abi": [
    {
      "inputs": [],
      "stateMutability": "nonpayable",
      "type": "constructor"
    },
    {
      "anonymous": false,
      "inputs": [
        {
          "indexed": false,
          "internalType": "address",
          "name": "previousAdmin",
          "type": "address"
        },
        {
          "indexed": false,
          "internalType": "address",
          "name": "newAdmin",
          "type": "address"
        }
      ],
      "name": "AdminChanged",
      "type": "event"
    },
    {
      "anonymous": false,
      "inputs": [
        {
          "indexed": false,
          "internalType": "uint256",
          "name": "healthFactor",
          "type": "uint256"
        }
      ],
      "name": "BalanceHealthFactor",
      "type": "event"
    },
    {
      "anonymous": false,
      "inputs": [
        {
          "indexed": true,
          "internalType": "address",
          "name": "beacon",
          "type": "address"
        }
      ],
      "name": "BeaconUpgraded",
      "type": "event"
    },
    {
      "anonymous": false,
      "inputs": [
        {
          "indexed": false,
          "internalType": "uint8",
          "name": "version",
          "type": "uint8"
        }
      ],
      "name": "Initialized",
      "type": "event"
    },
    {
      "anonymous": false,
      "inputs": [
        {
          "indexed": false,
          "internalType": "address",
          "name": "value",
          "type": "address"
        }
      ],
      "name": "PortfolioManagerUpdated",
      "type": "event"
    },
    {
      "anonymous": false,
      "inputs": [
        {
          "indexed": false,
          "internalType": "uint256",
          "name": "amount",
          "type": "uint256"
        }
      ],
      "name": "Reward",
      "type": "event"
    },
    {
      "anonymous": false,
      "inputs": [
        {
          "indexed": true,
          "internalType": "bytes32",
          "name": "role",
          "type": "bytes32"
        },
        {
          "indexed": true,
          "internalType": "bytes32",
          "name": "previousAdminRole",
          "type": "bytes32"
        },
        {
          "indexed": true,
          "internalType": "bytes32",
          "name": "newAdminRole",
          "type": "bytes32"
        }
      ],
      "name": "RoleAdminChanged",
      "type": "event"
    },
    {
      "anonymous": false,
      "inputs": [
        {
          "indexed": true,
          "internalType": "bytes32",
          "name": "role",
          "type": "bytes32"
        },
        {
          "indexed": true,
          "internalType": "address",
          "name": "account",
          "type": "address"
        },
        {
          "indexed": true,
          "internalType": "address",
          "name": "sender",
          "type": "address"
        }
      ],
      "name": "RoleGranted",
      "type": "event"
    },
    {
      "anonymous": false,
      "inputs": [
        {
          "indexed": true,
          "internalType": "bytes32",
          "name": "role",
          "type": "bytes32"
        },
        {
          "indexed": true,
          "internalType": "address",
          "name": "account",
          "type": "address"
        },
        {
          "indexed": true,
          "internalType": "address",
          "name": "sender",
          "type": "address"
        }
      ],
      "name": "RoleRevoked",
      "type": "event"
    },
    {
      "anonymous": false,
      "inputs": [
        {
          "indexed": false,
          "internalType": "uint256",
          "name": "amount",
          "type": "uint256"
        }
      ],
      "name": "Stake",
      "type": "event"
    },
    {
      "anonymous": false,
      "inputs": [
        {
          "indexed": false,
          "internalType": "address",
          "name": "aavePoolAddressesProvider",
          "type": "address"
        },
        {
          "indexed": false,
          "internalType": "address",
          "name": "oracleChainlinkUsdc",
          "type": "address"
        },
        {
          "indexed": false,
          "internalType": "address",
          "name": "oracleChainlinkUsdt",
          "type": "address"
        },
        {
          "indexed": false,
          "internalType": "uint256",
          "name": "eModeCategoryId",
          "type": "uint256"
        },
        {
          "indexed": false,
          "internalType": "uint256",
          "name": "liquidationThreshold",
          "type": "uint256"
        },
        {
          "indexed": false,
          "internalType": "uint256",
          "name": "healthFactor",
          "type": "uint256"
        }
      ],
      "name": "StrategyUpdatedAaveParams",
      "type": "event"
    },
    {
      "anonymous": false,
      "inputs": [
        {
          "indexed": false,
          "internalType": "address",
          "name": "meshSwapUsdcUsdt",
          "type": "address"
        },
        {
          "indexed": false,
          "internalType": "address",
          "name": "meshSwapRouter",
          "type": "address"
        },
        {
          "indexed": false,
          "internalType": "address",
          "name": "balancerVault",
          "type": "address"
        },
        {
          "indexed": false,
          "internalType": "bytes32",
          "name": "balancerPoolIdUsdcTusdDaiUsdt",
          "type": "bytes32"
        }
      ],
      "name": "StrategyUpdatedParams",
      "type": "event"
    },
    {
      "anonymous": false,
      "inputs": [
        {
          "indexed": false,
          "internalType": "address",
          "name": "usdcToken",
          "type": "address"
        },
        {
          "indexed": false,
          "internalType": "address",
          "name": "usdtToken",
          "type": "address"
        },
        {
          "indexed": false,
          "internalType": "address",
          "name": "aUsdcToken",
          "type": "address"
        },
        {
          "indexed": false,
          "internalType": "address",
          "name": "meshToken",
          "type": "address"
        },
        {
          "indexed": false,
          "internalType": "uint256",
          "name": "usdcTokenDenominator",
          "type": "uint256"
        },
        {
          "indexed": false,
          "internalType": "uint256",
          "name": "usdtTokenDenominator",
          "type": "uint256"
        }
      ],
      "name": "StrategyUpdatedTokens",
      "type": "event"
    },
    {
      "anonymous": false,
      "inputs": [
        {
          "indexed": false,
          "internalType": "uint256",
          "name": "amount",
          "type": "uint256"
        },
        {
          "indexed": false,
          "internalType": "uint256",
          "name": "amountReceived",
          "type": "uint256"
        }
      ],
      "name": "Unstake",
      "type": "event"
    },
    {
      "anonymous": false,
      "inputs": [
        {
          "indexed": true,
          "internalType": "address",
          "name": "implementation",
          "type": "address"
        }
      ],
      "name": "Upgraded",
      "type": "event"
    },
    {
      "inputs": [],
      "name": "DEFAULT_ADMIN_ROLE",
      "outputs": [
        {
          "internalType": "bytes32",
          "name": "",
          "type": "bytes32"
        }
      ],
      "stateMutability": "view",
      "type": "function"
    },
    {
      "inputs": [],
      "name": "MAX_VALUE",
      "outputs": [
        {
          "internalType": "int256",
          "name": "",
          "type": "int256"
        }
      ],
      "stateMutability": "view",
      "type": "function"
    },
    {
      "inputs": [],
      "name": "PORTFOLIO_MANAGER",
      "outputs": [
        {
          "internalType": "bytes32",
          "name": "",
          "type": "bytes32"
        }
      ],
      "stateMutability": "view",
      "type": "function"
    },
    {
      "inputs": [],
      "name": "UPGRADER_ROLE",
      "outputs": [
        {
          "internalType": "bytes32",
          "name": "",
          "type": "bytes32"
        }
      ],
      "stateMutability": "view",
      "type": "function"
    },
    {
      "inputs": [],
      "name": "aUsdcToken",
      "outputs": [
        {
          "internalType": "contract IERC20",
          "name": "",
          "type": "address"
        }
      ],
      "stateMutability": "view",
      "type": "function"
    },
    {
      "inputs": [
        {
          "internalType": "address",
          "name": "_to",
          "type": "address"
        }
      ],
      "name": "claimRewards",
      "outputs": [
        {
          "internalType": "uint256",
          "name": "",
          "type": "uint256"
        }
      ],
      "stateMutability": "nonpayable",
      "type": "function"
    },
    {
      "inputs": [
        {
          "internalType": "bytes32",
          "name": "role",
          "type": "bytes32"
        }
      ],
      "name": "getRoleAdmin",
      "outputs": [
        {
          "internalType": "bytes32",
          "name": "",
          "type": "bytes32"
        }
      ],
      "stateMutability": "view",
      "type": "function"
    },
    {
      "inputs": [
        {
          "internalType": "bytes32",
          "name": "role",
          "type": "bytes32"
        },
        {
          "internalType": "address",
          "name": "account",
          "type": "address"
        }
      ],
      "name": "grantRole",
      "outputs": [],
      "stateMutability": "nonpayable",
      "type": "function"
    },
    {
      "inputs": [
        {
          "internalType": "bytes32",
          "name": "role",
          "type": "bytes32"
        },
        {
          "internalType": "address",
          "name": "account",
          "type": "address"
        }
      ],
      "name": "hasRole",
      "outputs": [
        {
          "internalType": "bool",
          "name": "",
          "type": "bool"
        }
      ],
      "stateMutability": "view",
      "type": "function"
    },
    {
      "inputs": [],
      "name": "healthFactorBalance",
      "outputs": [],
      "stateMutability": "nonpayable",
      "type": "function"
    },
    {
      "inputs": [],
      "name": "initialize",
      "outputs": [],
      "stateMutability": "nonpayable",
      "type": "function"
    },
    {
      "inputs": [],
      "name": "liquidationValue",
      "outputs": [
        {
          "internalType": "uint256",
          "name": "",
          "type": "uint256"
        }
      ],
      "stateMutability": "view",
      "type": "function"
    },
    {
      "inputs": [],
      "name": "meshSwapUsdcUsdt",
      "outputs": [
        {
          "internalType": "contract IMeshSwapLP",
          "name": "",
          "type": "address"
        }
      ],
      "stateMutability": "view",
      "type": "function"
    },
    {
      "inputs": [],
      "name": "meshToken",
      "outputs": [
        {
          "internalType": "contract IERC20",
          "name": "",
          "type": "address"
        }
      ],
      "stateMutability": "view",
      "type": "function"
    },
    {
      "inputs": [],
      "name": "netAssetValue",
      "outputs": [
        {
          "internalType": "uint256",
          "name": "",
          "type": "uint256"
        }
      ],
      "stateMutability": "view",
      "type": "function"
    },
    {
      "inputs": [],
      "name": "poolIdUsdcTusdDaiUsdt",
      "outputs": [
        {
          "internalType": "bytes32",
          "name": "",
          "type": "bytes32"
        }
      ],
      "stateMutability": "view",
      "type": "function"
    },
    {
      "inputs": [],
      "name": "portfolioManager",
      "outputs": [
        {
          "internalType": "address",
          "name": "",
          "type": "address"
        }
      ],
      "stateMutability": "view",
      "type": "function"
    },
    {
      "inputs": [],
      "name": "proxiableUUID",
      "outputs": [
        {
          "internalType": "bytes32",
          "name": "",
          "type": "bytes32"
        }
      ],
      "stateMutability": "view",
      "type": "function"
    },
    {
      "inputs": [
        {
          "internalType": "bytes32",
          "name": "role",
          "type": "bytes32"
        },
        {
          "internalType": "address",
          "name": "account",
          "type": "address"
        }
      ],
      "name": "renounceRole",
      "outputs": [],
      "stateMutability": "nonpayable",
      "type": "function"
    },
    {
      "inputs": [
        {
          "internalType": "bytes32",
          "name": "role",
          "type": "bytes32"
        },
        {
          "internalType": "address",
          "name": "account",
          "type": "address"
        }
      ],
      "name": "revokeRole",
      "outputs": [],
      "stateMutability": "nonpayable",
      "type": "function"
    },
    {
      "inputs": [
        {
          "internalType": "address",
          "name": "_aavePoolAddressesProvider",
          "type": "address"
        },
        {
          "internalType": "address",
          "name": "_oracleChainlinkUsdc",
          "type": "address"
        },
        {
          "internalType": "address",
          "name": "_oracleChainlinkUsdt",
          "type": "address"
        },
        {
          "internalType": "uint8",
          "name": "_eModeCategoryId",
          "type": "uint8"
        },
        {
          "internalType": "uint256",
          "name": "_liquidationThreshold",
          "type": "uint256"
        },
        {
          "internalType": "uint256",
          "name": "_healthFactor",
          "type": "uint256"
        }
      ],
      "name": "setAaveParams",
      "outputs": [],
      "stateMutability": "nonpayable",
      "type": "function"
    },
    {
      "inputs": [
        {
          "internalType": "address",
          "name": "_meshSwapUsdcUsdt",
          "type": "address"
        },
        {
          "internalType": "address",
          "name": "_meshSwapRouter",
          "type": "address"
        },
        {
          "internalType": "address",
          "name": "_balancerVault",
          "type": "address"
        },
        {
          "internalType": "bytes32",
          "name": "_poolIdUsdcTusdDaiUsdt",
          "type": "bytes32"
        }
      ],
      "name": "setParams",
      "outputs": [],
      "stateMutability": "nonpayable",
      "type": "function"
    },
    {
      "inputs": [
        {
          "internalType": "address",
          "name": "_value",
          "type": "address"
        }
      ],
      "name": "setPortfolioManager",
      "outputs": [],
      "stateMutability": "nonpayable",
      "type": "function"
    },
    {
      "inputs": [
        {
          "internalType": "address",
          "name": "_usdcToken",
          "type": "address"
        },
        {
          "internalType": "address",
          "name": "_usdtToken",
          "type": "address"
        },
        {
          "internalType": "address",
          "name": "_aUsdcToken",
          "type": "address"
        },
        {
          "internalType": "address",
          "name": "_meshToken",
          "type": "address"
        }
      ],
      "name": "setTokens",
      "outputs": [],
      "stateMutability": "nonpayable",
      "type": "function"
    },
    {
      "inputs": [
        {
          "internalType": "address",
          "name": "_asset",
          "type": "address"
        },
        {
          "internalType": "uint256",
          "name": "_amount",
          "type": "uint256"
        }
      ],
      "name": "stake",
      "outputs": [],
      "stateMutability": "nonpayable",
      "type": "function"
    },
    {
      "inputs": [
        {
          "internalType": "bytes4",
          "name": "interfaceId",
          "type": "bytes4"
        }
      ],
      "name": "supportsInterface",
      "outputs": [
        {
          "internalType": "bool",
          "name": "",
          "type": "bool"
        }
      ],
      "stateMutability": "view",
      "type": "function"
    },
    {
      "inputs": [
        {
          "internalType": "address",
          "name": "_asset",
          "type": "address"
        },
        {
          "internalType": "uint256",
          "name": "_amount",
          "type": "uint256"
        },
        {
          "internalType": "address",
          "name": "_beneficiary",
          "type": "address"
        },
        {
          "internalType": "bool",
          "name": "_targetIsZero",
          "type": "bool"
        }
      ],
      "name": "unstake",
      "outputs": [
        {
          "internalType": "uint256",
          "name": "",
          "type": "uint256"
        }
      ],
      "stateMutability": "nonpayable",
      "type": "function"
    },
    {
      "inputs": [
        {
          "internalType": "address",
          "name": "newImplementation",
          "type": "address"
        }
      ],
      "name": "upgradeTo",
      "outputs": [],
      "stateMutability": "nonpayable",
      "type": "function"
    },
    {
      "inputs": [
        {
          "internalType": "address",
          "name": "newImplementation",
          "type": "address"
        },
        {
          "internalType": "bytes",
          "name": "data",
          "type": "bytes"
        }
      ],
      "name": "upgradeToAndCall",
      "outputs": [],
      "stateMutability": "payable",
      "type": "function"
    },
    {
      "inputs": [],
      "name": "usdcToken",
      "outputs": [
        {
          "internalType": "contract IERC20",
          "name": "",
          "type": "address"
        }
      ],
      "stateMutability": "view",
      "type": "function"
    },
    {
      "inputs": [],
      "name": "usdcTokenDenominator",
      "outputs": [
        {
          "internalType": "uint256",
          "name": "",
          "type": "uint256"
        }
      ],
      "stateMutability": "view",
      "type": "function"
    },
    {
      "inputs": [],
      "name": "usdtToken",
      "outputs": [
        {
          "internalType": "contract IERC20",
          "name": "",
          "type": "address"
        }
      ],
      "stateMutability": "view",
      "type": "function"
    },
    {
      "inputs": [],
      "name": "usdtTokenDenominator",
      "outputs": [
        {
          "internalType": "uint256",
          "name": "",
          "type": "uint256"
        }
      ],
      "stateMutability": "view",
      "type": "function"
    }
  ],
  "numDeployments": 1,
  "solcInputHash": "27dccbbdd9aa2650c27755ed933d3ad7",
  "bytecode": "0x60a06040523060601b6080523480156200001857600080fd5b5060006200002760016200008e565b9050801562000040576000805461ff0019166101001790555b801562000087576000805461ff0019169055604051600181527f7f26b83ff96e1f2b6a682f133852f6798a09c465da95921460cefb38474024989060200160405180910390a15b50620001af565b60008054610100900460ff161562000127578160ff166001148015620000c75750620000c530620001a060201b6200146a1760201c565b155b6200011f5760405162461bcd60e51b815260206004820152602e602482015260008051602062005fb083398151915260448201526d191e481a5b9a5d1a585b1a5e995960921b60648201526084015b60405180910390fd5b506000919050565b60005460ff808416911610620001865760405162461bcd60e51b815260206004820152602e602482015260008051602062005fb083398151915260448201526d191e481a5b9a5d1a585b1a5e995960921b606482015260840162000116565b506000805460ff191660ff92909216919091179055600190565b6001600160a01b03163b151590565b60805160601c615dc6620001ea600039600081816106fa0152818161073a015281816107da0152818161081a01526108a90152615dc66000f3fe6080604052600436106101ee5760003560e01c80638129fc1c1161010d578063adc9772e116100a0578063d746ccb41161006f578063d746ccb414610547578063d95ace5b14610567578063ef5cfb8c14610588578063f6f6b881146105a8578063f72c0d8b146105c857600080fd5b8063adc9772e146104cf578063c3bc6ff1146104ef578063cc3d6cf714610506578063d547741f1461052757600080fd5b8063a217fddf116100dc578063a217fddf14610479578063a3673b38146102ed578063a440b21a1461048e578063a98ad46c146104ae57600080fd5b80638129fc1c14610403578063839990ef146104185780638f4177801461043957806391d148541461045957600080fd5b806336568abe11610185578063537820bf11610154578063537820bf1461038c578063620b75df146103ac5780637b73aa4e146103cc5780637d5f5802146103e157600080fd5b806336568abe146103245780633659cfe6146103445780634f1ef2861461036457806352d1902d1461037757600080fd5b8063129caff2116101c1578063129caff2146102a6578063248a9ca3146102bd5780632576e65a146102ed5780632f2ff15d1461030257600080fd5b806301ffc9a7146101f3578063063bde241461022857806306da3f2e1461025657806311eac8551461026d575b600080fd5b3480156101ff57600080fd5b5061021361020e366004615396565b6105fc565b60405190151581526020015b60405180910390f35b34801561023457600080fd5b506102486b033b2e3c9fd0803ce800000081565b60405190815260200161021f565b34801561026257600080fd5b506102486101955481565b34801561027957600080fd5b506101915461028e906001600160a01b031681565b6040516001600160a01b03909116815260200161021f565b3480156102b257600080fd5b506102486101985481565b3480156102c957600080fd5b506102486102d836600461533f565b60009081526065602052604090206001015490565b3480156102f957600080fd5b50610248610633565b34801561030e57600080fd5b5061032261031d366004615371565b610642565b005b34801561033057600080fd5b5061032261033f366004615371565b61066c565b34801561035057600080fd5b5061032261035f366004614f69565b6106ef565b6103226103723660046150be565b6107cf565b34801561038357600080fd5b5061024861089c565b34801561039857600080fd5b506103226103a7366004614fa3565b61094f565b3480156103b857600080fd5b5060fb5461028e906001600160a01b031681565b3480156103d857600080fd5b50610322610bcf565b3480156103ed57600080fd5b50610248600080516020615d2a83398151915281565b34801561040f57600080fd5b50610322610c4c565b34801561042457600080fd5b506101975461028e906001600160a01b031681565b34801561044557600080fd5b50610322610454366004615050565b610cba565b34801561046557600080fd5b50610213610474366004615371565b610e3d565b34801561048557600080fd5b50610248600081565b34801561049a57600080fd5b506103226104a9366004614f69565b610e68565b3480156104ba57600080fd5b506101925461028e906001600160a01b031681565b3480156104db57600080fd5b506103226104ea3660046151a4565b610f40565b3480156104fb57600080fd5b506102486101965481565b34801561051257600080fd5b506101935461028e906001600160a01b031681565b34801561053357600080fd5b50610322610542366004615371565b611029565b34801561055357600080fd5b50610322610562366004614fff565b61104e565b34801561057357600080fd5b506101945461028e906001600160a01b031681565b34801561059457600080fd5b506102486105a3366004614f69565b6111e5565b3480156105b457600080fd5b506102486105c33660046151d0565b611269565b3480156105d457600080fd5b506102487f189ab7a9244df0848122154315af71fe140f3db0fe014031783b0946b8c9d2e381565b60006001600160e01b03198216637965db0b60e01b148061062d57506301ffc9a760e01b6001600160e01b03198316145b92915050565b600061063d611479565b905090565b60008281526065602052604090206001015461065d8161180d565b6106678383611817565b505050565b6001600160a01b03811633146106e15760405162461bcd60e51b815260206004820152602f60248201527f416363657373436f6e74726f6c3a2063616e206f6e6c792072656e6f756e636560448201526e103937b632b9903337b91039b2b63360891b60648201526084015b60405180910390fd5b6106eb828261189d565b5050565b306001600160a01b037f00000000000000000000000000000000000000000000000000000000000000001614156107385760405162461bcd60e51b81526004016106d89061572f565b7f00000000000000000000000000000000000000000000000000000000000000006001600160a01b0316610781600080516020615d4a833981519152546001600160a01b031690565b6001600160a01b0316146107a75760405162461bcd60e51b81526004016106d8906157bd565b6107b081611904565b604080516000808252602082019092526107cc9183919061192e565b50565b306001600160a01b037f00000000000000000000000000000000000000000000000000000000000000001614156108185760405162461bcd60e51b81526004016106d89061572f565b7f00000000000000000000000000000000000000000000000000000000000000006001600160a01b0316610861600080516020615d4a833981519152546001600160a01b031690565b6001600160a01b0316146108875760405162461bcd60e51b81526004016106d8906157bd565b61089082611904565b6106eb8282600161192e565b6000306001600160a01b037f0000000000000000000000000000000000000000000000000000000000000000161461093c5760405162461bcd60e51b815260206004820152603860248201527f555550535570677261646561626c653a206d757374206e6f742062652063616c60448201527f6c6564207468726f7567682064656c656761746563616c6c000000000000000060648201526084016106d8565b50600080516020615d4a83398151915290565b61095a600033610e3d565b6109765760405162461bcd60e51b81526004016106d890615857565b6001600160a01b03841661099c5760405162461bcd60e51b81526004016106d8906158bc565b6001600160a01b0383166109c25760405162461bcd60e51b81526004016106d8906158bc565b6001600160a01b0382166109e85760405162461bcd60e51b81526004016106d8906158bc565b6001600160a01b038116610a0e5760405162461bcd60e51b81526004016106d8906158bc565b61019180546001600160a01b038087166001600160a01b03199283168117909355610192805487831690841617905561019380548683169084161790556101948054918516919092161790556040805163313ce56760e01b8152905163313ce56791600480820192602092909190829003018186803b158015610a9057600080fd5b505afa158015610aa4573d6000803e3d6000fd5b505050506040513d601f19601f82011682018060405250810190610ac891906154ac565b610ad390600a615b5b565b61019581905550826001600160a01b031663313ce5676040518163ffffffff1660e01b815260040160206040518083038186803b158015610b1357600080fd5b505afa158015610b27573d6000803e3d6000fd5b505050506040513d601f19601f82011682018060405250810190610b4b91906154ac565b610b5690600a615b5b565b61019681905561019554604080516001600160a01b0380891682528088166020830152808716928201929092529084166060820152608081019190915260a08101919091527fe12a84f7b6db0cbb46792bc40aa14a947aee2e97a7ef410627b718480f7d97989060c0015b60405180910390a150505050565b610be7600080516020615d2a83398151915233610e3d565b610c035760405162461bcd60e51b81526004016106d8906156f8565b6000610c0d611aa8565b905080156107cc576040518181527fb1f3b41173d84c689f57264393ff456e5e65ab9a90e99a584416db69c90c56c6906020015b60405180910390a150565b6000610c586001612370565b90508015610c70576000805461ff0019166101001790555b610c786123f8565b80156107cc576000805461ff0019169055604051600181527f7f26b83ff96e1f2b6a682f133852f6798a09c465da95921460cefb384740249890602001610c41565b610cc5600033610e3d565b610ce15760405162461bcd60e51b81526004016106d890615857565b6001600160a01b038616610d075760405162461bcd60e51b81526004016106d8906158bc565b6001600160a01b038516610d2d5760405162461bcd60e51b81526004016106d8906158bc565b6001600160a01b038416610d535760405162461bcd60e51b81526004016106d8906158bc565b61019980546001600160a01b03199081166001600160a01b038981169190911790925561019a805490911687831617905561019b80549186166001600160a81b031990921691909117600160a01b60ff861602179055610dba8266038d7ea4c68000615c06565b61019c55610dcf8166038d7ea4c68000615c06565b61019d55604080516001600160a01b038881168252878116602083015286168183015260ff851660608201526080810184905260a0810183905290517fd8d8b7dba57292678ebe020b963b765b0b6e65e1db1251a73843946c390d551b9181900360c00190a1505050505050565b60009182526065602090815260408084206001600160a01b0393909316845291905290205460ff1690565b610e73600033610e3d565b610e8f5760405162461bcd60e51b81526004016106d890615857565b6001600160a01b038116610eb55760405162461bcd60e51b81526004016106d8906158bc565b60fb54610eda90600080516020615d2a833981519152906001600160a01b0316611029565b610ef2600080516020615d2a83398151915282610642565b60fb80546001600160a01b0319166001600160a01b0383169081179091556040519081527ff7b449fcd5cfb7379dcd34cb69428dd9f882033b15be33d83b42d91daa28eeb790602001610c41565b610f58600080516020615d2a83398151915233610e3d565b610f745760405162461bcd60e51b81526004016106d8906156f8565b6040518181527f227a473b70d2f893cc7659219575c030a63b5743024fe1e0c1a680e708b1525a9060200160405180910390a16040516370a0823160e01b81523060048201526106eb9083906001600160a01b038216906370a082319060240160206040518083038186803b158015610fec57600080fd5b505afa158015611000573d6000803e3d6000fd5b505050506040513d601f19601f820116820180604052508101906110249190615358565b612461565b6000828152606560205260409020600101546110448161180d565b610667838361189d565b611059600033610e3d565b6110755760405162461bcd60e51b81526004016106d890615857565b6001600160a01b03841661109b5760405162461bcd60e51b81526004016106d8906158bc565b6001600160a01b0383166110c15760405162461bcd60e51b81526004016106d8906158bc565b6001600160a01b0382166110e75760405162461bcd60e51b81526004016106d8906158bc565b806111345760405162461bcd60e51b815260206004820152601960248201527f456d70747920706f6f6c206964206e6f7420616c6c6f7765640000000000000060448201526064016106d8565b61019780546001600160a01b0386166001600160a01b031990911617905561117a8361012d80546001600160a01b039092166001600160a01b0319909216919091179055565b61015f80546001600160a01b0319166001600160a01b038481169182179092556101988390556040805187841681529286166020840152820152606081018290527f9e40b7a0f4969e42aff14e4acec2010d86638545f52d63f9db202c17dc395b5190608001610bc1565b60006111ff600080516020615d2a83398151915233610e3d565b61121b5760405162461bcd60e51b81526004016106d8906156f8565b6000611226836128cb565b90507f3ac0594a85a20354f9dc74f33728416d19ce00d04a406c108cc2dcf2cecea1348160405161125991815260200190565b60405180910390a190505b919050565b6000611283600080516020615d2a83398151915233610e3d565b61129f5760405162461bcd60e51b81526004016106d8906156f8565b600082156112b8576112b18685612b60565b9050611327565b6112c38686866131e9565b9050848110156113275760405162461bcd60e51b815260206004820152602960248201527f52657475726e65642076616c7565206c657373207468616e2072657175657374604482015268195908185b5bdd5b9d60ba1b60648201526084016106d8565b6040516370a0823160e01b81523060048201526000906001600160a01b038816906370a082319060240160206040518083038186803b15801561136957600080fd5b505afa15801561137d573d6000803e3d6000fd5b505050506040513d601f19601f820116820180604052508101906113a19190615358565b60405163a9059cbb60e01b81529091506001600160a01b0388169063a9059cbb906113d290889085906004016156a1565b602060405180830381600087803b1580156113ec57600080fd5b505af1158015611400573d6000803e3d6000fd5b505050506040513d601f19601f820116820180604052508101906114249190615322565b5060408051878152602081018390527f9045c2ac9b2026de8075f2701bbdde882cd5e830b3b1ead9a15b22f2b5b93742910160405180910390a19150505b949350505050565b6001600160a01b03163b151590565b610191546040516370a0823160e01b815230600482015260009182916001600160a01b03909116906370a082319060240160206040518083038186803b1580156114c257600080fd5b505afa1580156114d6573d6000803e3d6000fd5b505050506040513d601f19601f820116820180604052508101906114fa9190615358565b610197546040516370a0823160e01b81523060048201529192506000916001600160a01b03909116906370a082319060240160206040518083038186803b15801561154457600080fd5b505afa158015611558573d6000803e3d6000fd5b505050506040513d601f19601f8201168201806040525081019061157c9190615358565b905080156116be5761019754604080516318160ddd60e01b815290516000926001600160a01b0316916318160ddd916004808301926020929190829003018186803b1580156115ca57600080fd5b505afa1580156115de573d6000803e3d6000fd5b505050506040513d601f19601f820116820180604052508101906116029190615358565b9050600061019760009054906101000a90046001600160a01b03166001600160a01b0316630902f1ac6040518163ffffffff1660e01b815260040160606040518083038186803b15801561165557600080fd5b505afa158015611669573d6000803e3d6000fd5b505050506040513d601f19601f8201168201806040525081019061168d91906153c0565b50506001600160701b03169050816116a58483615c06565b6116af9190615af6565b6116b99085615ade565b935050505b610192546040516370a0823160e01b81523060048201526000916001600160a01b0316906370a082319060240160206040518083038186803b15801561170357600080fd5b505afa158015611717573d6000803e3d6000fd5b505050506040513d601f19601f8201168201806040525081019061173b9190615358565b90506000811561176f5761019854610192546101915461176c92916000916001600160a01b03918216911686613a1a565b90505b610193546040516370a0823160e01b81523060048201526000916001600160a01b0316906370a082319060240160206040518083038186803b1580156117b457600080fd5b505afa1580156117c8573d6000803e3d6000fd5b505050506040513d601f19601f820116820180604052508101906117ec9190615358565b9050806117f98387615ade565b6118039190615ade565b9550505050505090565b6107cc8133613f00565b6118218282610e3d565b6106eb5760008281526065602090815260408083206001600160a01b03851684529091529020805460ff191660011790556118593390565b6001600160a01b0316816001600160a01b0316837f2f8788117e7eff1d82e926ec794901d17c78024a50270940304540a733656f0d60405160405180910390a45050565b6118a78282610e3d565b156106eb5760008281526065602090815260408083206001600160a01b0385168085529252808320805460ff1916905551339285917ff6391f5c32d9c69d2a47ea670b442974b53935d1edc7fd64eb21e047a839171b9190a45050565b7f189ab7a9244df0848122154315af71fe140f3db0fe014031783b0946b8c9d2e36106eb8161180d565b7f4910fdfa16fed3260ed0e7147f7cc6da11a60208b5b9406d12a635614ffd91435460ff16156119615761066783613f64565b826001600160a01b03166352d1902d6040518163ffffffff1660e01b815260040160206040518083038186803b15801561199a57600080fd5b505afa9250505080156119ca575060408051601f3d908101601f191682019092526119c791810190615358565b60015b611a2d5760405162461bcd60e51b815260206004820152602e60248201527f45524331393637557067726164653a206e657720696d706c656d656e7461746960448201526d6f6e206973206e6f74205555505360901b60648201526084016106d8565b600080516020615d4a8339815191528114611a9c5760405162461bcd60e51b815260206004820152602960248201527f45524331393637557067726164653a20756e737570706f727465642070726f786044820152681a58589b195555525160ba1b60648201526084016106d8565b50610667838383614000565b600080611ab361402b565b604051632fe4a15f60e21b8152306004820152909150600090819081906001600160a01b0385169063bf92857c9060240160c06040518083038186803b158015611afc57600080fd5b505afa158015611b10573d6000803e3d6000fd5b505050506040513d601f19601f82011682018060405250810190611b349190615462565b955050505092509250662386f26fc10000611b5b61019d548361412590919063ffffffff16565b1015611b6957949350505050565b6000611b73614147565b905060008061019760009054906101000a90046001600160a01b03166001600160a01b0316630902f1ac6040518163ffffffff1660e01b815260040160606040518083038186803b158015611bc757600080fd5b505afa158015611bdb573d6000803e3d6000fd5b505050506040513d601f19601f82011682018060405250810190611bff91906153c0565b506001600160701b031691506001600160701b0316915061019d54841115611e1357600061019c5483611c329190615c06565b6101965461019d54611c448786615c06565b611c4e9190615c06565b611c589190615af6565b611c629190615ade565b61019d54611c71606489615af6565b611c7b9190615c06565b61019c54611c8a60648b615af6565b611c949190615c06565b611c9e9190615c25565b611ca89085615c06565b611cb29190615af6565b9050600083611cc18484615c06565b611ccb9190615af6565b61019154604051631a4ca37b60e21b81526001600160a01b039182166004820152602481018590523060448201529192508a16906369328dec90606401602060405180830381600087803b158015611d2257600080fd5b505af1158015611d36573d6000803e3d6000fd5b505050506040513d601f19601f82011682018060405250810190611d5a9190615358565b506101925460405163a415bcad60e01b81526001600160a01b039182166004820152602481018390526002604482015260006064820152306084820152908a169063a415bcad9060a401600060405180830381600087803b158015611dbe57600080fd5b505af1158015611dd2573d6000803e3d6000fd5b50506101915461019254611e0993506001600160a01b039182169250168484611dfa82614264565b611e0387614264565b30614288565b50505050506122e8565b600061019c5483611e249190615c06565b6101965461019d54611e368786615c06565b611e409190615c06565b611e4a9190615af6565b611e549190615ade565b606461019c5489611e659190615c06565b61019d54611e73908a615c06565b611e7d9190615c25565b611e879085615c06565b611e919190615af6565b611e9b9190615c06565b610197546040516370a0823160e01b81523060048201529192506000916001600160a01b03909116906370a082319060240160206040518083038186803b158015611ee557600080fd5b505afa158015611ef9573d6000803e3d6000fd5b505050506040513d601f19601f82011682018060405250810190611f1d9190615358565b9050600061019760009054906101000a90046001600160a01b03166001600160a01b03166318160ddd6040518163ffffffff1660e01b815260040160206040518083038186803b158015611f7057600080fd5b505afa158015611f84573d6000803e3d6000fd5b505050506040513d601f19601f82011682018060405250810190611fa89190615358565b905060006101965486611fbb9190615c06565b611fc58887615c06565b611fcf9190615ade565b858761019654611fdf9190615c06565b611fe99190615af6565b611ff39089615ade565b611ffd8685615c06565b6120079190615c06565b6120119190615af6565b90508281111561201e5750815b60008061209f61019160009054906101000a90046001600160a01b031661019260009054906101000a90046001600160a01b031661019760009054906101000a90046001600160a01b03168661208989898f61207a9190615c06565b6120849190615af6565b614264565b6120998a8a8f61207a9190615c06565b30614484565b9150915061019160009054906101000a90046001600160a01b03166001600160a01b031663095ea7b38e846040518363ffffffff1660e01b81526004016120e79291906156a1565b602060405180830381600087803b15801561210157600080fd5b505af1158015612115573d6000803e3d6000fd5b505050506040513d601f19601f820116820180604052508101906121399190615322565b5061019260009054906101000a90046001600160a01b03166001600160a01b031663095ea7b38e836040518363ffffffff1660e01b815260040161217e9291906156a1565b602060405180830381600087803b15801561219857600080fd5b505af11580156121ac573d6000803e3d6000fd5b505050506040513d601f19601f820116820180604052508101906121d09190615322565b506101915460405163617ba03760e01b81526001600160a01b0391821660048201526024810184905230604482015260006064820152908e169063617ba03790608401600060405180830381600087803b15801561222d57600080fd5b505af1158015612241573d6000803e3d6000fd5b505050508c6001600160a01b031663573ade8161019260009054906101000a90046001600160a01b0316836002306040518563ffffffff1660e01b815260040161228e94939291906156ba565b602060405180830381600087803b1580156122a857600080fd5b505af11580156122bc573d6000803e3d6000fd5b505050506040513d601f19601f820116820180604052508101906122e09190615358565b505050505050505b604051632fe4a15f60e21b81523060048201526001600160a01b0388169063bf92857c9060240160c06040518083038186803b15801561232757600080fd5b505afa15801561233b573d6000803e3d6000fd5b505050506040513d601f19601f8201168201806040525081019061235f9190615462565b9d9c50505050505050505050505050565b60008054610100900460ff16156123b7578160ff1660011480156123935750303b155b6123af5760405162461bcd60e51b81526004016106d890615809565b506000919050565b60005460ff8084169116106123de5760405162461bcd60e51b81526004016106d890615809565b506000805460ff191660ff92909216919091179055600190565b60006124046001612370565b9050801561241c576000805461ff0019166101001790555b6124246145ea565b61242c6145ea565b612437600033611817565b610c787f189ab7a9244df0848122154315af71fe140f3db0fe014031783b0946b8c9d2e333611817565b610191546001600160a01b0383811691161461248f5760405162461bcd60e51b81526004016106d890615885565b60008061019760009054906101000a90046001600160a01b03166001600160a01b0316630902f1ac6040518163ffffffff1660e01b815260040160606040518083038186803b1580156124e157600080fd5b505afa1580156124f5573d6000803e3d6000fd5b505050506040513d601f19601f8201168201806040525081019061251991906153c0565b506001600160701b031691506001600160701b031691506103e88211801561254257506103e881115b61255e5760405162461bcd60e51b81526004016106d89061577b565b6000612568614147565b9050600061019d54828461257c9190615c06565b6125869190615c06565b6101965461019c546125989087615c06565b6125a29190615c06565b6125ac9190615ade565b61019d54846125bb8589615c06565b6125c59190615c06565b6125cf9190615c06565b6125d99190615af6565b9050600061019d54836125ec9190615c06565b6101965461019c546125fe9085615c06565b6126089190615c06565b6126129190615af6565b9050600061261e61402b565b6101915460405163095ea7b360e01b81529192506001600160a01b03169063095ea7b39061265290849087906004016156a1565b602060405180830381600087803b15801561266c57600080fd5b505af1158015612680573d6000803e3d6000fd5b505050506040513d601f19601f820116820180604052508101906126a49190615322565b506101915460405163617ba03760e01b81526001600160a01b03918216600482015260248101859052306044820152600060648201529082169063617ba03790608401600060405180830381600087803b15801561270157600080fd5b505af1158015612715573d6000803e3d6000fd5b50506101925460405163a415bcad60e01b81526001600160a01b039182166004820152602481018690526002604482015260006064820152306084820152908416925063a415bcad915060a401600060405180830381600087803b15801561277c57600080fd5b505af1158015612790573d6000803e3d6000fd5b5050610191546040516370a0823160e01b8152306004820152600093506001600160a01b0390911691506370a082319060240160206040518083038186803b1580156127db57600080fd5b505afa1580156127ef573d6000803e3d6000fd5b505050506040513d601f19601f820116820180604052508101906128139190615358565b610192546040516370a0823160e01b81523060048201529192506000916001600160a01b03909116906370a082319060240160206040518083038186803b15801561285d57600080fd5b505afa158015612871573d6000803e3d6000fd5b505050506040513d601f19601f820116820180604052508101906128959190615358565b61019154610192549192506128bc916001600160a01b0391821691168484611dfa82614264565b50505050505050505050505050565b610197546040805163b88a802f60e01b815290516000926001600160a01b03169163b88a802f916004808301928692919082900301818387803b15801561291157600080fd5b505af1158015612925573d6000803e3d6000fd5b5050610194546040516370a0823160e01b8152306004820152600093508392506001600160a01b03909116906370a082319060240160206040518083038186803b15801561297257600080fd5b505afa158015612986573d6000803e3d6000fd5b505050506040513d601f19601f820116820180604052508101906129aa9190615358565b90508015612a625761019454610191546000916129d5916001600160a01b0391821691168430614657565b610194546040516370a0823160e01b81523060048201529192506001600160a01b0316906370a082319060240160206040518083038186803b158015612a1a57600080fd5b505afa158015612a2e573d6000803e3d6000fd5b505050506040513d601f19601f82011682018060405250810190612a529190615358565b9150612a5e8184615ade565b9250505b610191546040516370a0823160e01b81523060048201526001600160a01b039091169063a9059cbb90869083906370a082319060240160206040518083038186803b158015612ab057600080fd5b505afa158015612ac4573d6000803e3d6000fd5b505050506040513d601f19601f82011682018060405250810190612ae89190615358565b6040518363ffffffff1660e01b8152600401612b059291906156a1565b602060405180830381600087803b158015612b1f57600080fd5b505af1158015612b33573d6000803e3d6000fd5b505050506040513d601f19601f82011682018060405250810190612b579190615322565b50909392505050565b610191546000906001600160a01b03848116911614612b915760405162461bcd60e51b81526004016106d890615885565b60008061019760009054906101000a90046001600160a01b03166001600160a01b0316630902f1ac6040518163ffffffff1660e01b815260040160606040518083038186803b158015612be357600080fd5b505afa158015612bf7573d6000803e3d6000fd5b505050506040513d601f19601f82011682018060405250810190612c1b91906153c0565b506001600160701b031691506001600160701b031691506103e882118015612c4457506103e881115b612c605760405162461bcd60e51b81526004016106d89061577b565b610197546040516370a0823160e01b81523060048201526000916001600160a01b0316906370a082319060240160206040518083038186803b158015612ca557600080fd5b505afa158015612cb9573d6000803e3d6000fd5b505050506040513d601f19601f82011682018060405250810190612cdd9190615358565b90508015612dd25761019754604080516318160ddd60e01b815290516000926001600160a01b0316916318160ddd916004808301926020929190829003018186803b158015612d2b57600080fd5b505afa158015612d3f573d6000803e3d6000fd5b505050506040513d601f19601f82011682018060405250810190612d639190615358565b9050600081612d728487615c06565b612d7c9190615af6565b9050600082612d8b8587615c06565b612d959190615af6565b610191546101925461019754929350612dcc926001600160a01b0392831692918216911687612dc387614264565b61209987614264565b50505050505b610191546040516370a0823160e01b8152306004820152620186a0916000916001600160a01b03909116906370a082319060240160206040518083038186803b158015612e1e57600080fd5b505afa158015612e32573d6000803e3d6000fd5b505050506040513d601f19601f82011682018060405250810190612e569190615358565b905081811015612e64578091505b610198546101915461019254612e8e92916000916001600160a01b03918216911630808885614842565b506000612e9961402b565b610192546040516370a0823160e01b81523060048201529192506001600160a01b03169063095ea7b390839083906370a082319060240160206040518083038186803b158015612ee857600080fd5b505afa158015612efc573d6000803e3d6000fd5b505050506040513d601f19601f82011682018060405250810190612f209190615358565b6040518363ffffffff1660e01b8152600401612f3d9291906156a1565b602060405180830381600087803b158015612f5757600080fd5b505af1158015612f6b573d6000803e3d6000fd5b505050506040513d601f19601f82011682018060405250810190612f8f9190615322565b506101925460405163573ade8160e01b81526001600160a01b038381169263573ade8192612fcc92909116906000199060029030906004016156ba565b602060405180830381600087803b158015612fe657600080fd5b505af1158015612ffa573d6000803e3d6000fd5b505050506040513d601f19601f8201168201806040525081019061301e9190615358565b5061019154604051631a4ca37b60e21b81526001600160a01b0391821660048201526000196024820152306044820152908216906369328dec90606401602060405180830381600087803b15801561307557600080fd5b505af1158015613089573d6000803e3d6000fd5b505050506040513d601f19601f820116820180604052508101906130ad9190615358565b50610192546040516370a0823160e01b81523060048201526000916001600160a01b0316906370a082319060240160206040518083038186803b1580156130f357600080fd5b505afa158015613107573d6000803e3d6000fd5b505050506040513d601f19601f8201168201806040525081019061312b9190615358565b9050801561315f5761019854610192546101915461315d92916000916001600160a01b03918216911630808785614842565b505b610191546040516370a0823160e01b81523060048201526001600160a01b03909116906370a082319060240160206040518083038186803b1580156131a357600080fd5b505afa1580156131b7573d6000803e3d6000fd5b505050506040513d601f19601f820116820180604052508101906131db9190615358565b9a9950505050505050505050565b610191546000906001600160a01b0385811691161461321a5760405162461bcd60e51b81526004016106d890615885565b60008061019760009054906101000a90046001600160a01b03166001600160a01b0316630902f1ac6040518163ffffffff1660e01b815260040160606040518083038186803b15801561326c57600080fd5b505afa158015613280573d6000803e3d6000fd5b505050506040513d601f19601f820116820180604052508101906132a491906153c0565b506001600160701b031691506001600160701b031691506103e8821180156132cd57506103e881115b6132e95760405162461bcd60e51b81526004016106d89061577b565b60006132f3614147565b905060006132ff61402b565b604051632fe4a15f60e21b815230600482015290915060009081906001600160a01b0384169063bf92857c9060240160c06040518083038186803b15801561334657600080fd5b505afa15801561335a573d6000803e3d6000fd5b505050506040513d601f19601f8201168201806040525081019061337e9190615462565b505050509150915060006133918a614aa2565b9050600086886101965461019c546133a99190615c06565b6133b39190615c06565b6133bd9190615af6565b61019d546133cb9088615c06565b6133d59190615ade565b61019654606461019c54876133ea9190615c06565b6133f49190615af6565b606461019d54876134059190615c06565b61340f9190615af6565b61019c5461341d9087615c06565b6134279190615ade565b6134319190615c25565b61343b9190615c06565b6134459190615af6565b610197546040516370a0823160e01b81523060048201529192506000916001600160a01b03909116906370a082319060240160206040518083038186803b15801561348f57600080fd5b505afa1580156134a3573d6000803e3d6000fd5b505050506040513d601f19601f820116820180604052508101906134c79190615358565b905080156136285761019754604080516318160ddd60e01b815290516000926001600160a01b0316916318160ddd916004808301926020929190829003018186803b15801561351557600080fd5b505afa158015613529573d6000803e3d6000fd5b505050506040513d601f19601f8201168201806040525081019061354d9190615358565b90506000610196548b6135609190615c06565b61356a8a8c615c06565b6135749190615ade565b8a8c610196546135849190615c06565b61358e9190615af6565b613598908b615ade565b6135a28685615c06565b6135ac9190615c06565b6135b69190615af6565b9050828111156135c35750815b6000826135d0838e615c06565b6135da9190615af6565b90506000836135e9848e615c06565b6135f39190615af6565b610191546101925461019754929350613621926001600160a01b0392831692918216911686612dc387614264565b5050505050505b610192546040516370a0823160e01b81523060048201526001600160a01b039091169063095ea7b390889083906370a082319060240160206040518083038186803b15801561367657600080fd5b505afa15801561368a573d6000803e3d6000fd5b505050506040513d601f19601f820116820180604052508101906136ae9190615358565b6040518363ffffffff1660e01b81526004016136cb9291906156a1565b602060405180830381600087803b1580156136e557600080fd5b505af11580156136f9573d6000803e3d6000fd5b505050506040513d601f19601f8201168201806040525081019061371d9190615322565b50610192546040516370a0823160e01b81523060048201526001600160a01b038881169263573ade819291169081906370a082319060240160206040518083038186803b15801561376d57600080fd5b505afa158015613781573d6000803e3d6000fd5b505050506040513d601f19601f820116820180604052508101906137a59190615358565b6002306040518563ffffffff1660e01b81526004016137c794939291906156ba565b602060405180830381600087803b1580156137e157600080fd5b505af11580156137f5573d6000803e3d6000fd5b505050506040513d601f19601f820116820180604052508101906138199190615358565b50610191546001600160a01b03808816916369328dec91168a61383c8d87615c06565b6138469190615af6565b6138509087615c25565b6040516001600160e01b031960e085901b1681526001600160a01b0390921660048301526024820152306044820152606401602060405180830381600087803b15801561389c57600080fd5b505af11580156138b0573d6000803e3d6000fd5b505050506040513d601f19601f820116820180604052508101906138d49190615358565b50610192546040516370a0823160e01b81523060048201526000916001600160a01b0316906370a082319060240160206040518083038186803b15801561391a57600080fd5b505afa15801561392e573d6000803e3d6000fd5b505050506040513d601f19601f820116820180604052508101906139529190615358565b90506103e881111561398a5761019854610192546101915461398892916000916001600160a01b03918216911630808785614842565b505b610191546040516370a0823160e01b81523060048201526001600160a01b03909116906370a082319060240160206040518083038186803b1580156139ce57600080fd5b505afa1580156139e2573d6000803e3d6000fd5b505050506040513d601f19601f82011682018060405250810190613a069190615358565b9a50505050505050505050505b9392505050565b604080516101208101825260008082526020820181905291810182905260608082018390526080820183905260a0820183905260c0820183905260e0820183905261010082015280866001811115613a7457613a74615cb5565b90816001811115613a8757613a87615cb5565b9052506001600160a01b0385811660208301528481166040808401919091526060830185905261015f549051631f29a8cd60e31b8152600481018a90526000928392839291169063f94d46689060240160006040518083038186803b158015613aef57600080fd5b505afa158015613b03573d6000803e3d6000fd5b505050506040513d6000823e601f3d908101601f19168201604052613b2b9190810190615218565b61015f5460405163f6c0092760e01b8152600481018f9052939650919450925060009182916001600160a01b03169063f6c0092790602401604080518083038186803b158015613b7a57600080fd5b505afa158015613b8e573d6000803e3d6000fd5b505050506040513d601f19601f82011682018060405250810190613bb29190615166565b90925090506000816002811115613bcb57613bcb615cb5565b1415613d045760008060005b87518160ff161015613c73578c6001600160a01b0316888260ff1681518110613c0257613c02615ccb565b60200260200101516001600160a01b03161415613c24578060ff169250613c61565b8b6001600160a01b0316888260ff1681518110613c4357613c43615ccb565b60200260200101516001600160a01b03161415613c61578060ff1691505b80613c6b81615c7f565b915050613bd7565b5060405162f64aa560e11b81526001600160a01b038516906301ec954a90613ca5908b908a90879087906004016159ae565b60206040518083038186803b158015613cbd57600080fd5b505afa158015613cd1573d6000803e3d6000fd5b505050506040513d601f19601f82011682018060405250810190613cf59190615358565b98505050505050505050613ef7565b6001816002811115613d1857613d18615cb5565b1415613e235760008060005b87518160ff161015613df2578c6001600160a01b0316888260ff1681518110613d4f57613d4f615ccb565b60200260200101516001600160a01b03161415613d8a57868160ff1681518110613d7b57613d7b615ccb565b60200260200101519250613de0565b8b6001600160a01b0316888260ff1681518110613da957613da9615ccb565b60200260200101516001600160a01b03161415613de057868160ff1681518110613dd557613dd5615ccb565b602002602001015191505b80613dea81615c7f565b915050613d24565b5060405163274b044360e21b81526001600160a01b03851690639d2c110c90613ca5908b9086908690600401615a0f565b60008060005b87518160ff161015613df2578c6001600160a01b0316888260ff1681518110613e5457613e54615ccb565b60200260200101516001600160a01b03161415613e8f57868160ff1681518110613e8057613e80615ccb565b60200260200101519250613ee5565b8b6001600160a01b0316888260ff1681518110613eae57613eae615ccb565b60200260200101516001600160a01b03161415613ee557868160ff1681518110613eda57613eda615ccb565b602002602001015191505b80613eef81615c7f565b915050613e29565b95945050505050565b613f0a8282610e3d565b6106eb57613f22816001600160a01b03166014614ab2565b613f2d836020614ab2565b604051602001613f3e92919061562c565b60408051601f198184030181529082905262461bcd60e51b82526106d8916004016156e5565b6001600160a01b0381163b613fd15760405162461bcd60e51b815260206004820152602d60248201527f455243313936373a206e657720696d706c656d656e746174696f6e206973206e60448201526c1bdd08184818dbdb9d1c9858dd609a1b60648201526084016106d8565b600080516020615d4a83398151915280546001600160a01b0319166001600160a01b0392909216919091179055565b61400983614c4e565b6000825111806140165750805b15610667576140258383614c8e565b50505050565b60008061019960009054906101000a90046001600160a01b03166001600160a01b031663026b1d5f6040518163ffffffff1660e01b815260040160206040518083038186803b15801561407d57600080fd5b505afa158015614091573d6000803e3d6000fd5b505050506040513d601f19601f820116820180604052508101906140b59190614f86565b61019b546040516328530a4760e01b8152600160a01b90910460ff1660048201529091506001600160a01b038216906328530a4790602401600060405180830381600087803b15801561410757600080fd5b505af115801561411b573d6000803e3d6000fd5b5092949350505050565b600081831161413d576141388383615c25565b613a13565b613a138284615c25565b61019a54604080516350d25bcd60e01b815290516000926001600160a01b0316916350d25bcd916004808301926020929190829003018186803b15801561418d57600080fd5b505afa1580156141a1573d6000803e3d6000fd5b505050506040513d601f19601f820116820180604052508101906141c59190615358565b61019b60009054906101000a90046001600160a01b03166001600160a01b03166350d25bcd6040518163ffffffff1660e01b815260040160206040518083038186803b15801561421457600080fd5b505afa158015614228573d6000803e3d6000fd5b505050506040513d601f19601f8201168201806040525081019061424c9190615358565b6101955461425a9190615c06565b61063d9190615af6565b6000612710614274600482615c25565b61427e9084615c06565b61062d9190615af6565b61012d5460405163095ea7b360e01b8152600091829182916001600160a01b03808d169263095ea7b3926142c29216908c906004016156a1565b602060405180830381600087803b1580156142dc57600080fd5b505af11580156142f0573d6000803e3d6000fd5b505050506040513d601f19601f820116820180604052508101906143149190615322565b5061012d5460405163095ea7b360e01b81526001600160a01b038b81169263095ea7b39261434a92909116908b906004016156a1565b602060405180830381600087803b15801561436457600080fd5b505af1158015614378573d6000803e3d6000fd5b505050506040513d601f19601f8201168201806040525081019061439c9190615322565b5061012d546001600160a01b031663e8e337008b8b8b8b8b8b8b6143c242610258615ade565b60405160e08a901b6001600160e01b03191681526001600160a01b039889166004820152968816602488015260448701959095526064860193909352608485019190915260a484015290921660c482015260e481019190915261010401606060405180830381600087803b15801561443957600080fd5b505af115801561444d573d6000803e3d6000fd5b505050506040513d601f19601f820116820180604052508101906144719190615434565b9250925092509750975097945050505050565b61012d5460405163095ea7b360e01b815260009182916001600160a01b038981169263095ea7b3926144be92909116908a906004016156a1565b602060405180830381600087803b1580156144d857600080fd5b505af11580156144ec573d6000803e3d6000fd5b505050506040513d601f19601f820116820180604052508101906145109190615322565b5061012d546001600160a01b031663baa2abde8a8a8989898961453542610258615ade565b60405160e089901b6001600160e01b03191681526001600160a01b039788166004820152958716602487015260448601949094526064850192909252608484015290921660a482015260c481019190915260e4016040805180830381600087803b1580156145a257600080fd5b505af11580156145b6573d6000803e3d6000fd5b505050506040513d601f19601f820116820180604052508101906145da9190615410565b9150915097509795505050505050565b600054610100900460ff166146555760405162461bcd60e51b815260206004820152602b60248201527f496e697469616c697a61626c653a20636f6e7472616374206973206e6f74206960448201526a6e697469616c697a696e6760a81b60648201526084016106d8565b565b61012d5460405163095ea7b360e01b81526000916001600160a01b038088169263095ea7b39261468d92169087906004016156a1565b602060405180830381600087803b1580156146a757600080fd5b505af11580156146bb573d6000803e3d6000fd5b505050506040513d601f19601f820116820180604052508101906146df9190615322565b5060006146ed868686614d79565b9050806146fe576000915050611462565b604080516002808252606082018352600092602083019080368337019050509050868160008151811061473357614733615ccb565b60200260200101906001600160a01b031690816001600160a01b031681525050858160018151811061476757614767615ccb565b6001600160a01b03928316602091820292909201015261012d54600091166338ed17398761479486614264565b85896147a242610258615ade565b6040518663ffffffff1660e01b81526004016147c2959493929190615a4d565b600060405180830381600087803b1580156147dc57600080fd5b505af11580156147f0573d6000803e3d6000fd5b505050506040513d6000823e601f3d908101601f1916820160405261481891908101906152ed565b90508060018151811061482d5761482d615ccb565b60200260200101519350505050949350505050565b61015f546040516370a0823160e01b81523060048201526000916001600160a01b038981169263095ea7b392919091169083906370a082319060240160206040518083038186803b15801561489657600080fd5b505afa1580156148aa573d6000803e3d6000fd5b505050506040513d601f19601f820116820180604052508101906148ce9190615358565b6040518363ffffffff1660e01b81526004016148eb9291906156a1565b602060405180830381600087803b15801561490557600080fd5b505af1158015614919573d6000803e3d6000fd5b505050506040513d601f19601f8201168201806040525081019061493d9190615322565b5061498a6040805160c0810190915260008082526020820190815260200160006001600160a01b0316815260200160006001600160a01b0316815260200160008152602001606081525090565b898152602081018960018111156149a3576149a3615cb5565b908160018111156149b6576149b6615cb5565b9052506001600160a01b038881166040838101919091528882166060808501919091526080808501889052825190810183526000602082018190529181019190915288831681528783169181019190915261015f549091166352bbbe29838387614a2242610258615ade565b6040518563ffffffff1660e01b8152600401614a4194939291906158f3565b602060405180830381600087803b158015614a5b57600080fd5b505af1158015614a6f573d6000803e3d6000fd5b505050506040513d601f19601f82011682018060405250810190614a939190615358565b9b9a5050505050505050505050565b6000612710614274600482615ade565b60606000614ac1836002615c06565b614acc906002615ade565b67ffffffffffffffff811115614ae457614ae4615ce1565b6040519080825280601f01601f191660200182016040528015614b0e576020820181803683370190505b509050600360fc1b81600081518110614b2957614b29615ccb565b60200101906001600160f81b031916908160001a905350600f60fb1b81600181518110614b5857614b58615ccb565b60200101906001600160f81b031916908160001a9053506000614b7c846002615c06565b614b87906001615ade565b90505b6001811115614bff576f181899199a1a9b1b9c1cb0b131b232b360811b85600f1660108110614bbb57614bbb615ccb565b1a60f81b828281518110614bd157614bd1615ccb565b60200101906001600160f81b031916908160001a90535060049490941c93614bf881615c68565b9050614b8a565b508315613a135760405162461bcd60e51b815260206004820181905260248201527f537472696e67733a20686578206c656e67746820696e73756666696369656e7460448201526064016106d8565b614c5781613f64565b6040516001600160a01b038216907fbc7cd75a20ee27fd9adebab32041f755214dbc6bffa90cc0225b39da2e5c2d3b90600090a250565b60606001600160a01b0383163b614cf65760405162461bcd60e51b815260206004820152602660248201527f416464726573733a2064656c65676174652063616c6c20746f206e6f6e2d636f6044820152651b9d1c9858dd60d21b60648201526084016106d8565b600080846001600160a01b031684604051614d119190615610565b600060405180830381855af49150503d8060008114614d4c576040519150601f19603f3d011682016040523d82523d6000602084013e614d51565b606091505b5091509150613ef78282604051806060016040528060278152602001615d6a60279139614ea7565b604080516002808252606082018352600092839291906020830190803683370190505090508481600081518110614db257614db2615ccb565b60200260200101906001600160a01b031690816001600160a01b0316815250508381600181518110614de657614de6615ccb565b6001600160a01b03928316602091820292909201015261012d5460405163d06ca61f60e01b8152600092919091169063d06ca61f90614e2b9087908690600401615a34565b60006040518083038186803b158015614e4357600080fd5b505afa158015614e57573d6000803e3d6000fd5b505050506040513d6000823e601f3d908101601f19168201604052614e7f91908101906152ed565b905080600181518110614e9457614e94615ccb565b6020026020010151925050509392505050565b60608315614eb6575081613a13565b825115614ec65782518084602001fd5b8160405162461bcd60e51b81526004016106d891906156e5565b600082601f830112614ef157600080fd5b81516020614f06614f0183615aba565b615a89565b80838252828201915082860187848660051b8901011115614f2657600080fd5b60005b85811015614f4557815184529284019290840190600101614f29565b5090979650505050505050565b80516001600160701b038116811461126457600080fd5b600060208284031215614f7b57600080fd5b8135613a1381615cf7565b600060208284031215614f9857600080fd5b8151613a1381615cf7565b60008060008060808587031215614fb957600080fd5b8435614fc481615cf7565b93506020850135614fd481615cf7565b92506040850135614fe481615cf7565b91506060850135614ff481615cf7565b939692955090935050565b6000806000806080858703121561501557600080fd5b843561502081615cf7565b9350602085013561503081615cf7565b9250604085013561504081615cf7565b9396929550929360600135925050565b60008060008060008060c0878903121561506957600080fd5b863561507481615cf7565b9550602087013561508481615cf7565b9450604087013561509481615cf7565b935060608701356150a481615d1a565b9598949750929560808101359460a0909101359350915050565b600080604083850312156150d157600080fd5b82356150dc81615cf7565b915060208381013567ffffffffffffffff808211156150fa57600080fd5b818601915086601f83011261510e57600080fd5b81358181111561512057615120615ce1565b615132601f8201601f19168501615a89565b9150808252878482850101111561514857600080fd5b80848401858401376000848284010152508093505050509250929050565b6000806040838503121561517957600080fd5b825161518481615cf7565b60208401519092506003811061519957600080fd5b809150509250929050565b600080604083850312156151b757600080fd5b82356151c281615cf7565b946020939093013593505050565b600080600080608085870312156151e657600080fd5b84356151f181615cf7565b935060208501359250604085013561520881615cf7565b91506060850135614ff481615d0c565b60008060006060848603121561522d57600080fd5b835167ffffffffffffffff8082111561524557600080fd5b818601915086601f83011261525957600080fd5b81516020615269614f0183615aba565b8083825282820191508286018b848660051b890101111561528957600080fd5b600096505b848710156152b55780516152a181615cf7565b83526001969096019591830191830161528e565b50918901519197509093505050808211156152cf57600080fd5b506152dc86828701614ee0565b925050604084015190509250925092565b6000602082840312156152ff57600080fd5b815167ffffffffffffffff81111561531657600080fd5b61146284828501614ee0565b60006020828403121561533457600080fd5b8151613a1381615d0c565b60006020828403121561535157600080fd5b5035919050565b60006020828403121561536a57600080fd5b5051919050565b6000806040838503121561538457600080fd5b82359150602083013561519981615cf7565b6000602082840312156153a857600080fd5b81356001600160e01b031981168114613a1357600080fd5b6000806000606084860312156153d557600080fd5b6153de84614f52565b92506153ec60208501614f52565b9150604084015163ffffffff8116811461540557600080fd5b809150509250925092565b6000806040838503121561542357600080fd5b505080516020909101519092909150565b60008060006060848603121561544957600080fd5b8351925060208401519150604084015190509250925092565b60008060008060008060c0878903121561547b57600080fd5b865195506020870151945060408701519350606087015192506080870151915060a087015190509295509295509295565b6000602082840312156154be57600080fd5b8151613a1381615d1a565b600081518084526020808501945080840160005b838110156155025781516001600160a01b0316875295820195908201906001016154dd565b509495945050505050565b60008151808452615525816020860160208601615c3c565b601f01601f19169290920160200192915050565b6002811061555757634e487b7160e01b600052602160045260246000fd5b9052565b600061012061556b848451615539565b6020838101516001600160a01b03169085015260408084015190615599908601826001600160a01b03169052565b50606083015160608501526080830151608085015260a083015160a085015260c08301516155d260c08601826001600160a01b03169052565b5060e08301516155ed60e08601826001600160a01b03169052565b506101008084015182828701526156068387018261550d565b9695505050505050565b60008251615622818460208701615c3c565b9190910192915050565b7f416363657373436f6e74726f6c3a206163636f756e7420000000000000000000815260008351615664816017850160208801615c3c565b7001034b99036b4b9b9b4b733903937b6329607d1b6017918401918201528351615695816028840160208801615c3c565b01602801949350505050565b6001600160a01b03929092168252602082015260400190565b6001600160a01b03948516815260208101939093526040830191909152909116606082015260800190565b602081526000613a13602083018461550d565b6020808252601f908201527f5265737472696374656420746f20504f5254464f4c494f5f4d414e4147455200604082015260600190565b6020808252602c908201527f46756e6374696f6e206d7573742062652063616c6c6564207468726f7567682060408201526b19195b1959d85d1958d85b1b60a21b606082015260800190565b60208082526022908201527f4c6971756964697479206c70546f6b656e20726573657276657320746f6f206c6040820152616f7760f01b606082015260800190565b6020808252602c908201527f46756e6374696f6e206d7573742062652063616c6c6564207468726f7567682060408201526b6163746976652070726f787960a01b606082015260800190565b6020808252602e908201527f496e697469616c697a61626c653a20636f6e747261637420697320616c72656160408201526d191e481a5b9a5d1a585b1a5e995960921b606082015260800190565b6020808252601490820152735265737472696374656420746f2061646d696e7360601b604082015260600190565b60208082526019908201527f536f6d6520746f6b656e206e6f7420636f6d70617469626c6500000000000000604082015260600190565b60208082526018908201527f5a65726f2061646472657373206e6f7420616c6c6f7765640000000000000000604082015260600190565b60e08152845160e082015260006020860151615913610100840182615539565b5060408601516001600160a01b03908116610120840152606087015116610140830152608086015161016083015260a086015160c061018084015261595c6101a084018261550d565b91505061599c602083018680516001600160a01b039081168352602080830151151590840152604080830151909116908301526060908101511515910152565b60a082019390935260c0015292915050565b6080815260006159c1608083018761555b565b82810360208481019190915286518083528782019282019060005b818110156159f8578451835293830193918301916001016159dc565b505060408501969096525050506060015292915050565b606081526000615a22606083018661555b565b60208301949094525060400152919050565b82815260406020820152600061146260408301846154c9565b85815284602082015260a060408201526000615a6c60a08301866154c9565b6001600160a01b0394909416606083015250608001529392505050565b604051601f8201601f1916810167ffffffffffffffff81118282101715615ab257615ab2615ce1565b604052919050565b600067ffffffffffffffff821115615ad457615ad4615ce1565b5060051b60200190565b60008219821115615af157615af1615c9f565b500190565b600082615b1357634e487b7160e01b600052601260045260246000fd5b500490565b600181815b80851115615b53578160001904821115615b3957615b39615c9f565b80851615615b4657918102915b93841c9390800290615b1d565b509250929050565b6000613a1360ff841683600082615b745750600161062d565b81615b815750600061062d565b8160018114615b975760028114615ba157615bbd565b600191505061062d565b60ff841115615bb257615bb2615c9f565b50506001821b61062d565b5060208310610133831016604e8410600b8410161715615be0575081810a61062d565b615bea8383615b18565b8060001904821115615bfe57615bfe615c9f565b029392505050565b6000816000190483118215151615615c2057615c20615c9f565b500290565b600082821015615c3757615c37615c9f565b500390565b60005b83811015615c57578181015183820152602001615c3f565b838111156140255750506000910152565b600081615c7757615c77615c9f565b506000190190565b600060ff821660ff811415615c9657615c96615c9f565b60010192915050565b634e487b7160e01b600052601160045260246000fd5b634e487b7160e01b600052602160045260246000fd5b634e487b7160e01b600052603260045260246000fd5b634e487b7160e01b600052604160045260246000fd5b6001600160a01b03811681146107cc57600080fd5b80151581146107cc57600080fd5b60ff811681146107cc57600080fdfe90c2aa7471c04182221f68e80c07ab1e5946e4c63f8693e14ca40385d529f051360894a13ba1a3210667c828492db98dca3e2076cc3735a920a3ca505d382bbc416464726573733a206c6f772d6c6576656c2064656c65676174652063616c6c206661696c6564a2646970667358221220445e982970dfca8c744236cee8ff7a9ac318aafb0bc46714296b15fb3b05a42464736f6c63430008060033496e697469616c697a61626c653a20636f6e747261637420697320616c726561",
  "devdoc": {
    "kind": "dev",
    "methods": {
      "constructor": {
        "custom:oz-upgrades-unsafe-allow": "constructor"
      },
      "getRoleAdmin(bytes32)": {
        "details": "Returns the admin role that controls `role`. See {grantRole} and {revokeRole}. To change a role's admin, use {_setRoleAdmin}."
      },
      "grantRole(bytes32,address)": {
        "details": "Grants `role` to `account`. If `account` had not been already granted `role`, emits a {RoleGranted} event. Requirements: - the caller must have ``role``'s admin role."
      },
      "hasRole(bytes32,address)": {
        "details": "Returns `true` if `account` has been granted `role`."
      },
      "proxiableUUID()": {
        "details": "Implementation of the ERC1822 {proxiableUUID} function. This returns the storage slot used by the implementation. It is used to validate that the this implementation remains valid after an upgrade. IMPORTANT: A proxy pointing at a proxiable contract should not be considered proxiable itself, because this risks bricking a proxy that upgrades to it, by delegating to itself until out of gas. Thus it is critical that this function revert if invoked through a proxy. This is guaranteed by the `notDelegated` modifier."
      },
      "renounceRole(bytes32,address)": {
        "details": "Revokes `role` from the calling account. Roles are often managed via {grantRole} and {revokeRole}: this function's purpose is to provide a mechanism for accounts to lose their privileges if they are compromised (such as when a trusted device is misplaced). If the calling account had been revoked `role`, emits a {RoleRevoked} event. Requirements: - the caller must be `account`."
      },
      "revokeRole(bytes32,address)": {
        "details": "Revokes `role` from `account`. If `account` had been granted `role`, emits a {RoleRevoked} event. Requirements: - the caller must have ``role``'s admin role."
      },
      "supportsInterface(bytes4)": {
        "details": "See {IERC165-supportsInterface}."
      },
      "upgradeTo(address)": {
        "details": "Upgrade the implementation of the proxy to `newImplementation`. Calls {_authorizeUpgrade}. Emits an {Upgraded} event."
      },
      "upgradeToAndCall(address,bytes)": {
        "details": "Upgrade the implementation of the proxy to `newImplementation`, and subsequently execute the function call encoded in `data`. Calls {_authorizeUpgrade}. Emits an {Upgraded} event."
      }
    },
    "version": 1
  },
  "userdoc": {
    "kind": "user",
    "methods": {},
    "version": 1
  },
  "storageLayout": {
    "storage": [
      {
        "astId": 808,
        "contract": "contracts/StrategyBorrowMeshSwapUsdcUsdt.sol:StrategyBorrowMeshSwapUsdcUsdt",
        "label": "_initialized",
        "offset": 0,
        "slot": "0",
        "type": "t_uint8"
      },
      {
        "astId": 811,
        "contract": "contracts/StrategyBorrowMeshSwapUsdcUsdt.sol:StrategyBorrowMeshSwapUsdcUsdt",
        "label": "_initializing",
        "offset": 1,
        "slot": "0",
        "type": "t_bool"
      },
      {
        "astId": 1363,
        "contract": "contracts/StrategyBorrowMeshSwapUsdcUsdt.sol:StrategyBorrowMeshSwapUsdcUsdt",
        "label": "__gap",
        "offset": 0,
        "slot": "1",
        "type": "t_array(t_uint256)50_storage"
      },
      {
        "astId": 1670,
        "contract": "contracts/StrategyBorrowMeshSwapUsdcUsdt.sol:StrategyBorrowMeshSwapUsdcUsdt",
        "label": "__gap",
        "offset": 0,
        "slot": "51",
        "type": "t_array(t_uint256)50_storage"
      },
      {
        "astId": 39,
        "contract": "contracts/StrategyBorrowMeshSwapUsdcUsdt.sol:StrategyBorrowMeshSwapUsdcUsdt",
        "label": "_roles",
        "offset": 0,
        "slot": "101",
        "type": "t_mapping(t_bytes32,t_struct(RoleData)34_storage)"
      },
      {
        "astId": 338,
        "contract": "contracts/StrategyBorrowMeshSwapUsdcUsdt.sol:StrategyBorrowMeshSwapUsdcUsdt",
        "label": "__gap",
        "offset": 0,
        "slot": "102",
        "type": "t_array(t_uint256)49_storage"
      },
      {
        "astId": 790,
        "contract": "contracts/StrategyBorrowMeshSwapUsdcUsdt.sol:StrategyBorrowMeshSwapUsdcUsdt",
        "label": "__gap",
        "offset": 0,
        "slot": "151",
        "type": "t_array(t_uint256)50_storage"
      },
      {
        "astId": 1078,
        "contract": "contracts/StrategyBorrowMeshSwapUsdcUsdt.sol:StrategyBorrowMeshSwapUsdcUsdt",
        "label": "__gap",
        "offset": 0,
        "slot": "201",
        "type": "t_array(t_uint256)50_storage"
      },
      {
        "astId": 28845,
        "contract": "contracts/StrategyBorrowMeshSwapUsdcUsdt.sol:StrategyBorrowMeshSwapUsdcUsdt",
        "label": "portfolioManager",
        "offset": 0,
        "slot": "251",
        "type": "t_address"
      },
      {
        "astId": 29152,
        "contract": "contracts/StrategyBorrowMeshSwapUsdcUsdt.sol:StrategyBorrowMeshSwapUsdcUsdt",
        "label": "__gap",
        "offset": 0,
        "slot": "252",
        "type": "t_array(t_uint256)49_storage"
      },
      {
        "astId": 30411,
        "contract": "contracts/StrategyBorrowMeshSwapUsdcUsdt.sol:StrategyBorrowMeshSwapUsdcUsdt",
        "label": "uniswapRouter",
        "offset": 0,
        "slot": "301",
        "type": "t_contract(IUniswapV2Router02)27285"
      },
      {
        "astId": 30711,
        "contract": "contracts/StrategyBorrowMeshSwapUsdcUsdt.sol:StrategyBorrowMeshSwapUsdcUsdt",
        "label": "__gap",
        "offset": 0,
        "slot": "302",
        "type": "t_array(t_uint256)49_storage"
      },
      {
        "astId": 29168,
        "contract": "contracts/StrategyBorrowMeshSwapUsdcUsdt.sol:StrategyBorrowMeshSwapUsdcUsdt",
        "label": "balancerVault",
        "offset": 0,
        "slot": "351",
        "type": "t_contract(IVault)24806"
      },
      {
        "astId": 30134,
        "contract": "contracts/StrategyBorrowMeshSwapUsdcUsdt.sol:StrategyBorrowMeshSwapUsdcUsdt",
        "label": "__gap",
        "offset": 0,
        "slot": "352",
        "type": "t_array(t_uint256)49_storage"
      },
      {
        "astId": 11589,
        "contract": "contracts/StrategyBorrowMeshSwapUsdcUsdt.sol:StrategyBorrowMeshSwapUsdcUsdt",
        "label": "usdcToken",
        "offset": 0,
        "slot": "401",
        "type": "t_contract(IERC20)1823"
      },
      {
        "astId": 11592,
        "contract": "contracts/StrategyBorrowMeshSwapUsdcUsdt.sol:StrategyBorrowMeshSwapUsdcUsdt",
        "label": "usdtToken",
        "offset": 0,
        "slot": "402",
        "type": "t_contract(IERC20)1823"
      },
      {
        "astId": 11595,
        "contract": "contracts/StrategyBorrowMeshSwapUsdcUsdt.sol:StrategyBorrowMeshSwapUsdcUsdt",
        "label": "aUsdcToken",
        "offset": 0,
        "slot": "403",
        "type": "t_contract(IERC20)1823"
      },
      {
        "astId": 11598,
        "contract": "contracts/StrategyBorrowMeshSwapUsdcUsdt.sol:StrategyBorrowMeshSwapUsdcUsdt",
        "label": "meshToken",
        "offset": 0,
        "slot": "404",
        "type": "t_contract(IERC20)1823"
      },
      {
        "astId": 11600,
        "contract": "contracts/StrategyBorrowMeshSwapUsdcUsdt.sol:StrategyBorrowMeshSwapUsdcUsdt",
        "label": "usdcTokenDenominator",
        "offset": 0,
        "slot": "405",
        "type": "t_uint256"
      },
      {
        "astId": 11602,
        "contract": "contracts/StrategyBorrowMeshSwapUsdcUsdt.sol:StrategyBorrowMeshSwapUsdcUsdt",
        "label": "usdtTokenDenominator",
        "offset": 0,
        "slot": "406",
        "type": "t_uint256"
      },
      {
        "astId": 11605,
        "contract": "contracts/StrategyBorrowMeshSwapUsdcUsdt.sol:StrategyBorrowMeshSwapUsdcUsdt",
        "label": "meshSwapUsdcUsdt",
        "offset": 0,
        "slot": "407",
        "type": "t_contract(IMeshSwapLP)25738"
      },
      {
        "astId": 11607,
        "contract": "contracts/StrategyBorrowMeshSwapUsdcUsdt.sol:StrategyBorrowMeshSwapUsdcUsdt",
        "label": "poolIdUsdcTusdDaiUsdt",
        "offset": 0,
        "slot": "408",
        "type": "t_bytes32"
      },
      {
        "astId": 11610,
        "contract": "contracts/StrategyBorrowMeshSwapUsdcUsdt.sol:StrategyBorrowMeshSwapUsdcUsdt",
        "label": "aavePoolAddressesProvider",
        "offset": 0,
        "slot": "409",
        "type": "t_contract(IPoolAddressesProvider)22358"
      },
      {
        "astId": 11613,
        "contract": "contracts/StrategyBorrowMeshSwapUsdcUsdt.sol:StrategyBorrowMeshSwapUsdcUsdt",
        "label": "oracleChainlinkUsdc",
        "offset": 0,
        "slot": "410",
        "type": "t_contract(IPriceFeed)22366"
      },
      {
        "astId": 11616,
        "contract": "contracts/StrategyBorrowMeshSwapUsdcUsdt.sol:StrategyBorrowMeshSwapUsdcUsdt",
        "label": "oracleChainlinkUsdt",
        "offset": 0,
        "slot": "411",
        "type": "t_contract(IPriceFeed)22366"
      },
      {
        "astId": 11618,
        "contract": "contracts/StrategyBorrowMeshSwapUsdcUsdt.sol:StrategyBorrowMeshSwapUsdcUsdt",
        "label": "eModeCategoryId",
        "offset": 20,
        "slot": "411",
        "type": "t_uint8"
      },
      {
        "astId": 11620,
        "contract": "contracts/StrategyBorrowMeshSwapUsdcUsdt.sol:StrategyBorrowMeshSwapUsdcUsdt",
        "label": "liquidationThreshold",
        "offset": 0,
        "slot": "412",
        "type": "t_uint256"
      },
      {
        "astId": 11622,
        "contract": "contracts/StrategyBorrowMeshSwapUsdcUsdt.sol:StrategyBorrowMeshSwapUsdcUsdt",
        "label": "healthFactor",
        "offset": 0,
        "slot": "413",
        "type": "t_uint256"
      }
    ],
    "types": {
      "t_address": {
        "encoding": "inplace",
        "label": "address",
        "numberOfBytes": "20"
      },
      "t_array(t_uint256)49_storage": {
        "base": "t_uint256",
        "encoding": "inplace",
        "label": "uint256[49]",
        "numberOfBytes": "1568"
      },
      "t_array(t_uint256)50_storage": {
        "base": "t_uint256",
        "encoding": "inplace",
        "label": "uint256[50]",
        "numberOfBytes": "1600"
      },
      "t_bool": {
        "encoding": "inplace",
        "label": "bool",
        "numberOfBytes": "1"
      },
      "t_bytes32": {
        "encoding": "inplace",
        "label": "bytes32",
        "numberOfBytes": "32"
      },
      "t_contract(IERC20)1823": {
        "encoding": "inplace",
        "label": "contract IERC20",
        "numberOfBytes": "20"
      },
      "t_contract(IMeshSwapLP)25738": {
        "encoding": "inplace",
        "label": "contract IMeshSwapLP",
        "numberOfBytes": "20"
      },
      "t_contract(IPoolAddressesProvider)22358": {
        "encoding": "inplace",
        "label": "contract IPoolAddressesProvider",
        "numberOfBytes": "20"
      },
      "t_contract(IPriceFeed)22366": {
        "encoding": "inplace",
        "label": "contract IPriceFeed",
        "numberOfBytes": "20"
      },
      "t_contract(IUniswapV2Router02)27285": {
        "encoding": "inplace",
        "label": "contract IUniswapV2Router02",
        "numberOfBytes": "20"
      },
      "t_contract(IVault)24806": {
        "encoding": "inplace",
        "label": "contract IVault",
        "numberOfBytes": "20"
      },
      "t_mapping(t_address,t_bool)": {
        "encoding": "mapping",
        "key": "t_address",
        "label": "mapping(address => bool)",
        "numberOfBytes": "32",
        "value": "t_bool"
      },
      "t_mapping(t_bytes32,t_struct(RoleData)34_storage)": {
        "encoding": "mapping",
        "key": "t_bytes32",
        "label": "mapping(bytes32 => struct AccessControlUpgradeable.RoleData)",
        "numberOfBytes": "32",
        "value": "t_struct(RoleData)34_storage"
      },
      "t_struct(RoleData)34_storage": {
        "encoding": "inplace",
        "label": "struct AccessControlUpgradeable.RoleData",
        "members": [
          {
            "astId": 31,
            "contract": "contracts/StrategyBorrowMeshSwapUsdcUsdt.sol:StrategyBorrowMeshSwapUsdcUsdt",
            "label": "members",
            "offset": 0,
            "slot": "0",
            "type": "t_mapping(t_address,t_bool)"
          },
          {
            "astId": 33,
            "contract": "contracts/StrategyBorrowMeshSwapUsdcUsdt.sol:StrategyBorrowMeshSwapUsdcUsdt",
            "label": "adminRole",
            "offset": 0,
            "slot": "1",
            "type": "t_bytes32"
          }
        ],
        "numberOfBytes": "64"
      },
      "t_uint256": {
        "encoding": "inplace",
        "label": "uint256",
        "numberOfBytes": "32"
      },
      "t_uint8": {
        "encoding": "inplace",
        "label": "uint8",
        "numberOfBytes": "1"
      }
    }
  }
}