{
  "address": "0x307418340F5991CD895CA0Fc4Eba04995e9BE861",
  "abi": [
    {
      "inputs": [],
      "stateMutability": "nonpayable",
      "type": "constructor"
    },
    {
      "anonymous": false,
      "inputs": [
        {
          "indexed": false,
          "internalType": "address",
          "name": "previousAdmin",
          "type": "address"
        },
        {
          "indexed": false,
          "internalType": "address",
          "name": "newAdmin",
          "type": "address"
        }
      ],
      "name": "AdminChanged",
      "type": "event"
    },
    {
      "anonymous": false,
      "inputs": [
        {
          "indexed": true,
          "internalType": "address",
          "name": "beacon",
          "type": "address"
        }
      ],
      "name": "BeaconUpgraded",
      "type": "event"
    },
    {
      "anonymous": false,
      "inputs": [
        {
          "indexed": false,
          "internalType": "uint8",
          "name": "version",
          "type": "uint8"
        }
      ],
      "name": "Initialized",
      "type": "event"
    },
    {
      "anonymous": false,
      "inputs": [
        {
          "indexed": false,
          "internalType": "address",
          "name": "value",
          "type": "address"
        }
      ],
      "name": "PortfolioManagerUpdated",
      "type": "event"
    },
    {
      "anonymous": false,
      "inputs": [
        {
          "indexed": false,
          "internalType": "uint256",
          "name": "amount",
          "type": "uint256"
        }
      ],
      "name": "Reward",
      "type": "event"
    },
    {
      "anonymous": false,
      "inputs": [
        {
          "indexed": true,
          "internalType": "bytes32",
          "name": "role",
          "type": "bytes32"
        },
        {
          "indexed": true,
          "internalType": "bytes32",
          "name": "previousAdminRole",
          "type": "bytes32"
        },
        {
          "indexed": true,
          "internalType": "bytes32",
          "name": "newAdminRole",
          "type": "bytes32"
        }
      ],
      "name": "RoleAdminChanged",
      "type": "event"
    },
    {
      "anonymous": false,
      "inputs": [
        {
          "indexed": true,
          "internalType": "bytes32",
          "name": "role",
          "type": "bytes32"
        },
        {
          "indexed": true,
          "internalType": "address",
          "name": "account",
          "type": "address"
        },
        {
          "indexed": true,
          "internalType": "address",
          "name": "sender",
          "type": "address"
        }
      ],
      "name": "RoleGranted",
      "type": "event"
    },
    {
      "anonymous": false,
      "inputs": [
        {
          "indexed": true,
          "internalType": "bytes32",
          "name": "role",
          "type": "bytes32"
        },
        {
          "indexed": true,
          "internalType": "address",
          "name": "account",
          "type": "address"
        },
        {
          "indexed": true,
          "internalType": "address",
          "name": "sender",
          "type": "address"
        }
      ],
      "name": "RoleRevoked",
      "type": "event"
    },
    {
      "anonymous": false,
      "inputs": [
        {
          "indexed": false,
          "internalType": "uint256",
          "name": "swapSlippageBP",
          "type": "uint256"
        },
        {
          "indexed": false,
          "internalType": "uint256",
          "name": "navSlippageBP",
          "type": "uint256"
        }
      ],
      "name": "SlippagesUpdated",
      "type": "event"
    },
    {
      "anonymous": false,
      "inputs": [
        {
          "indexed": false,
          "internalType": "uint256",
          "name": "amount",
          "type": "uint256"
        }
      ],
      "name": "Stake",
      "type": "event"
    },
    {
      "anonymous": false,
      "inputs": [],
      "name": "StrategyUpdatedParams",
      "type": "event"
    },
    {
      "anonymous": false,
      "inputs": [
        {
          "indexed": false,
          "internalType": "uint256",
          "name": "amount",
          "type": "uint256"
        },
        {
          "indexed": false,
          "internalType": "uint256",
          "name": "amountReceived",
          "type": "uint256"
        }
      ],
      "name": "Unstake",
      "type": "event"
    },
    {
      "anonymous": false,
      "inputs": [
        {
          "indexed": true,
          "internalType": "address",
          "name": "implementation",
          "type": "address"
        }
      ],
      "name": "Upgraded",
      "type": "event"
    },
    {
      "inputs": [],
      "name": "DEFAULT_ADMIN_ROLE",
      "outputs": [
        {
          "internalType": "bytes32",
          "name": "",
          "type": "bytes32"
        }
      ],
      "stateMutability": "view",
      "type": "function"
    },
    {
      "inputs": [],
      "name": "PORTFOLIO_AGENT_ROLE",
      "outputs": [
        {
          "internalType": "bytes32",
          "name": "",
          "type": "bytes32"
        }
      ],
      "stateMutability": "view",
      "type": "function"
    },
    {
      "inputs": [],
      "name": "PORTFOLIO_MANAGER",
      "outputs": [
        {
          "internalType": "bytes32",
          "name": "",
          "type": "bytes32"
        }
      ],
      "stateMutability": "view",
      "type": "function"
    },
    {
      "inputs": [
        {
          "internalType": "address",
          "name": "_to",
          "type": "address"
        }
      ],
      "name": "claimRewards",
      "outputs": [
        {
          "internalType": "uint256",
          "name": "",
          "type": "uint256"
        }
      ],
      "stateMutability": "nonpayable",
      "type": "function"
    },
    {
      "inputs": [],
      "name": "daiDm",
      "outputs": [
        {
          "internalType": "uint256",
          "name": "",
          "type": "uint256"
        }
      ],
      "stateMutability": "view",
      "type": "function"
    },
    {
      "inputs": [],
      "name": "daiToken",
      "outputs": [
        {
          "internalType": "contract IERC20",
          "name": "",
          "type": "address"
        }
      ],
      "stateMutability": "view",
      "type": "function"
    },
    {
      "inputs": [],
      "name": "exchange",
      "outputs": [
        {
          "internalType": "contract IExchange",
          "name": "",
          "type": "address"
        }
      ],
      "stateMutability": "view",
      "type": "function"
    },
    {
      "inputs": [
        {
          "internalType": "bytes32",
          "name": "role",
          "type": "bytes32"
        }
      ],
      "name": "getRoleAdmin",
      "outputs": [
        {
          "internalType": "bytes32",
          "name": "",
          "type": "bytes32"
        }
      ],
      "stateMutability": "view",
      "type": "function"
    },
    {
      "inputs": [
        {
          "internalType": "bytes32",
          "name": "role",
          "type": "bytes32"
        },
        {
          "internalType": "address",
          "name": "account",
          "type": "address"
        }
      ],
      "name": "grantRole",
      "outputs": [],
      "stateMutability": "nonpayable",
      "type": "function"
    },
    {
      "inputs": [
        {
          "internalType": "bytes32",
          "name": "role",
          "type": "bytes32"
        },
        {
          "internalType": "address",
          "name": "account",
          "type": "address"
        }
      ],
      "name": "hasRole",
      "outputs": [
        {
          "internalType": "bool",
          "name": "",
          "type": "bool"
        }
      ],
      "stateMutability": "view",
      "type": "function"
    },
    {
      "inputs": [
        {
          "internalType": "uint256",
          "name": "_swapSlippageBP",
          "type": "uint256"
        },
        {
          "internalType": "uint256",
          "name": "_navSlippageBP",
          "type": "uint256"
        }
      ],
      "name": "initSlippages",
      "outputs": [],
      "stateMutability": "nonpayable",
      "type": "function"
    },
    {
      "inputs": [],
      "name": "initialize",
      "outputs": [],
      "stateMutability": "nonpayable",
      "type": "function"
    },
    {
      "inputs": [],
      "name": "liquidationValue",
      "outputs": [
        {
          "internalType": "uint256",
          "name": "",
          "type": "uint256"
        }
      ],
      "stateMutability": "view",
      "type": "function"
    },
    {
      "inputs": [],
      "name": "navSlippageBP",
      "outputs": [
        {
          "internalType": "uint256",
          "name": "",
          "type": "uint256"
        }
      ],
      "stateMutability": "view",
      "type": "function"
    },
    {
      "inputs": [],
      "name": "netAssetValue",
      "outputs": [
        {
          "internalType": "uint256",
          "name": "",
          "type": "uint256"
        }
      ],
      "stateMutability": "view",
      "type": "function"
    },
    {
      "inputs": [],
      "name": "oracleDai",
      "outputs": [
        {
          "internalType": "contract IPriceFeed",
          "name": "",
          "type": "address"
        }
      ],
      "stateMutability": "view",
      "type": "function"
    },
    {
      "inputs": [],
      "name": "oracleUsdc",
      "outputs": [
        {
          "internalType": "contract IPriceFeed",
          "name": "",
          "type": "address"
        }
      ],
      "stateMutability": "view",
      "type": "function"
    },
    {
      "inputs": [],
      "name": "poolUsdcDaiFee",
      "outputs": [
        {
          "internalType": "uint24",
          "name": "",
          "type": "uint24"
        }
      ],
      "stateMutability": "view",
      "type": "function"
    },
    {
      "inputs": [],
      "name": "portfolioManager",
      "outputs": [
        {
          "internalType": "address",
          "name": "",
          "type": "address"
        }
      ],
      "stateMutability": "view",
      "type": "function"
    },
    {
      "inputs": [],
      "name": "proxiableUUID",
      "outputs": [
        {
          "internalType": "bytes32",
          "name": "",
          "type": "bytes32"
        }
      ],
      "stateMutability": "view",
      "type": "function"
    },
    {
      "inputs": [
        {
          "internalType": "bytes32",
          "name": "role",
          "type": "bytes32"
        },
        {
          "internalType": "address",
          "name": "account",
          "type": "address"
        }
      ],
      "name": "renounceRole",
      "outputs": [],
      "stateMutability": "nonpayable",
      "type": "function"
    },
    {
      "inputs": [
        {
          "internalType": "bytes32",
          "name": "role",
          "type": "bytes32"
        },
        {
          "internalType": "address",
          "name": "account",
          "type": "address"
        }
      ],
      "name": "revokeRole",
      "outputs": [],
      "stateMutability": "nonpayable",
      "type": "function"
    },
    {
      "inputs": [
        {
          "components": [
            {
              "internalType": "address",
              "name": "usdcToken",
              "type": "address"
            },
            {
              "internalType": "address",
              "name": "daiToken",
              "type": "address"
            },
            {
              "internalType": "address",
              "name": "usdPlus",
              "type": "address"
            },
            {
              "internalType": "address",
              "name": "exchange",
              "type": "address"
            },
            {
              "internalType": "address",
              "name": "oracleDai",
              "type": "address"
            },
            {
              "internalType": "address",
              "name": "oracleUsdc",
              "type": "address"
            },
            {
              "internalType": "address",
              "name": "uniswapV3Router",
              "type": "address"
            },
            {
              "internalType": "uint24",
              "name": "poolUsdcDaiFee",
              "type": "uint24"
            }
          ],
          "internalType": "struct StrategyUsdPlusDai.StrategyParams",
          "name": "params",
          "type": "tuple"
        }
      ],
      "name": "setParams",
      "outputs": [],
      "stateMutability": "nonpayable",
      "type": "function"
    },
    {
      "inputs": [
        {
          "internalType": "address",
          "name": "_value",
          "type": "address"
        }
      ],
      "name": "setPortfolioManager",
      "outputs": [],
      "stateMutability": "nonpayable",
      "type": "function"
    },
    {
      "inputs": [
        {
          "internalType": "uint256",
          "name": "_swapSlippageBP",
          "type": "uint256"
        },
        {
          "internalType": "uint256",
          "name": "_navSlippageBP",
          "type": "uint256"
        }
      ],
      "name": "setSlippages",
      "outputs": [],
      "stateMutability": "nonpayable",
      "type": "function"
    },
    {
      "inputs": [
        {
          "internalType": "address",
          "name": "_asset",
          "type": "address"
        },
        {
          "internalType": "uint256",
          "name": "_amount",
          "type": "uint256"
        }
      ],
      "name": "stake",
      "outputs": [],
      "stateMutability": "nonpayable",
      "type": "function"
    },
    {
      "inputs": [
        {
          "internalType": "bytes4",
          "name": "interfaceId",
          "type": "bytes4"
        }
      ],
      "name": "supportsInterface",
      "outputs": [
        {
          "internalType": "bool",
          "name": "",
          "type": "bool"
        }
      ],
      "stateMutability": "view",
      "type": "function"
    },
    {
      "inputs": [],
      "name": "swapSlippage",
      "outputs": [
        {
          "internalType": "uint256",
          "name": "",
          "type": "uint256"
        }
      ],
      "stateMutability": "view",
      "type": "function"
    },
    {
      "inputs": [],
      "name": "swapSlippageBP",
      "outputs": [
        {
          "internalType": "uint256",
          "name": "",
          "type": "uint256"
        }
      ],
      "stateMutability": "view",
      "type": "function"
    },
    {
      "inputs": [],
      "name": "uniswapV3Router",
      "outputs": [
        {
          "internalType": "contract ISwapRouter",
          "name": "",
          "type": "address"
        }
      ],
      "stateMutability": "view",
      "type": "function"
    },
    {
      "inputs": [
        {
          "internalType": "address",
          "name": "_asset",
          "type": "address"
        },
        {
          "internalType": "uint256",
          "name": "_amount",
          "type": "uint256"
        },
        {
          "internalType": "address",
          "name": "_beneficiary",
          "type": "address"
        },
        {
          "internalType": "bool",
          "name": "_targetIsZero",
          "type": "bool"
        }
      ],
      "name": "unstake",
      "outputs": [
        {
          "internalType": "uint256",
          "name": "",
          "type": "uint256"
        }
      ],
      "stateMutability": "nonpayable",
      "type": "function"
    },
    {
      "inputs": [
        {
          "internalType": "address",
          "name": "newImplementation",
          "type": "address"
        }
      ],
      "name": "upgradeTo",
      "outputs": [],
      "stateMutability": "nonpayable",
      "type": "function"
    },
    {
      "inputs": [
        {
          "internalType": "address",
          "name": "newImplementation",
          "type": "address"
        },
        {
          "internalType": "bytes",
          "name": "data",
          "type": "bytes"
        }
      ],
      "name": "upgradeToAndCall",
      "outputs": [],
      "stateMutability": "payable",
      "type": "function"
    },
    {
      "inputs": [],
      "name": "usdPlus",
      "outputs": [
        {
          "internalType": "contract IUsdPlusToken",
          "name": "",
          "type": "address"
        }
      ],
      "stateMutability": "view",
      "type": "function"
    },
    {
      "inputs": [],
      "name": "usdcDm",
      "outputs": [
        {
          "internalType": "uint256",
          "name": "",
          "type": "uint256"
        }
      ],
      "stateMutability": "view",
      "type": "function"
    },
    {
      "inputs": [],
      "name": "usdcToken",
      "outputs": [
        {
          "internalType": "contract IERC20",
          "name": "",
          "type": "address"
        }
      ],
      "stateMutability": "view",
      "type": "function"
    }
  ],
  "numDeployments": 7,
  "solcInputHash": "8a1011ced473e6e16f6375f97766670d",
  "bytecode": "0x60a06040523060601b6080523480156200001857600080fd5b50600054610100900460ff16158080156200003a5750600054600160ff909116105b806200006a575062000057306200014460201b620015fa1760201c565b1580156200006a575060005460ff166001145b620000d25760405162461bcd60e51b815260206004820152602e60248201527f496e697469616c697a61626c653a20636f6e747261637420697320616c72656160448201526d191e481a5b9a5d1a585b1a5e995960921b606482015260840160405180910390fd5b6000805460ff191660011790558015620000f6576000805461ff0019166101001790555b80156200013d576000805461ff0019169055604051600181527f7f26b83ff96e1f2b6a682f133852f6798a09c465da95921460cefb38474024989060200160405180910390a15b5062000153565b6001600160a01b03163b151590565b60805160601c6134d56200018e6000396000818161082901528181610869015281816109090152818161094901526109d801526134d56000f3fe60806040526004361061020f5760003560e01c8063620b75df11610118578063adc9772e116100a0578063d3d4e41d1161006f578063d3d4e41d146105eb578063d547741f1461060b578063e401e1961461062b578063ef5cfb8c14610663578063f6f6b8811461068357600080fd5b8063adc9772e14610573578063be22f54614610593578063bf52e080146105b4578063d2f7265a146105ca57600080fd5b80638129fc1c116100e75780638129fc1c146104f457806391d1485414610509578063a217fddf14610529578063a3673b381461053e578063a440b21a1461055357600080fd5b8063620b75df1461047b5780636b42c5761461049b5780637d5f5802146104bb578063811766fa146104dd57600080fd5b80632f2ff15d1161019b578063514e460a1161016a578063514e460a146103cf57806352d1902d146103f05780635dbd733a146104055780635f07c5f3146104395780635fea9cbb1461045a57600080fd5b80632f2ff15d1461035c57806336568abe1461037c5780633659cfe61461039c5780634f1ef286146103bc57600080fd5b80631aedeabe116101e25780631aedeabe146102c85780631b1e7ddc146102df578063248a9ca3146102f65780632576e65a146103265780632c76d7a61461033b57600080fd5b806301ffc9a714610214578063119cd8791461024957806311eac8551461026d57806318bc0faa146102a6575b600080fd5b34801561022057600080fd5b5061023461022f366004612f11565b6106a3565b60405190151581526020015b60405180910390f35b34801561025557600080fd5b5061025f60fd5481565b604051908152602001610240565b34801561027957600080fd5b5061012e5461028e906001600160a01b031681565b6040516001600160a01b039091168152602001610240565b3480156102b257600080fd5b506102c66102c1366004612f79565b6106da565b005b3480156102d457600080fd5b5061025f6101365481565b3480156102eb57600080fd5b5061025f6101355481565b34801561030257600080fd5b5061025f610311366004612eb3565b60009081526065602052604090206001015490565b34801561033257600080fd5b5061025f610751565b34801561034757600080fd5b506101335461028e906001600160a01b031681565b34801561036857600080fd5b506102c6610377366004612ee5565b610776565b34801561038857600080fd5b506102c6610397366004612ee5565b6107a0565b3480156103a857600080fd5b506102c66103b7366004612d40565b61081e565b6102c66103ca366004612d5b565b6108fe565b3480156103db57600080fd5b5061012f5461028e906001600160a01b031681565b3480156103fc57600080fd5b5061025f6109cb565b34801561041157600080fd5b5061025f7fd67ad422505496469a1adf6cdf9e5ee92ac5d33992843c9ecc4b2f6d6cde913781565b34801561044557600080fd5b506101315461028e906001600160a01b031681565b34801561046657600080fd5b506101325461028e906001600160a01b031681565b34801561048757600080fd5b5060fb5461028e906001600160a01b031681565b3480156104a757600080fd5b506102c66104b6366004612f79565b610a7e565b3480156104c757600080fd5b5061025f60008051602061343983398151915281565b3480156104e957600080fd5b5061025f6101345481565b34801561050057600080fd5b506102c6610ba6565b34801561051557600080fd5b50610234610524366004612ee5565b610c70565b34801561053557600080fd5b5061025f600081565b34801561054a57600080fd5b5061025f610c9b565b34801561055f57600080fd5b506102c661056e366004612d40565b610ca5565b34801561057f57600080fd5b506102c661058e366004612e1d565b610dad565b34801561059f57600080fd5b5061012d5461028e906001600160a01b031681565b3480156105c057600080fd5b5061025f60fc5481565b3480156105d657600080fd5b506101305461028e906001600160a01b031681565b3480156105f757600080fd5b506102c6610606366004612f3b565b610fdc565b34801561061757600080fd5b506102c6610626366004612ee5565b6112d3565b34801561063757600080fd5b506101335461064f90600160a01b900462ffffff1681565b60405162ffffff9091168152602001610240565b34801561066f57600080fd5b5061025f61067e366004612d40565b6112f8565b34801561068f57600080fd5b5061025f61069e366004612e47565b611337565b60006001600160e01b03198216637965db0b60e01b14806106d457506301ffc9a760e01b6001600160e01b03198316145b92915050565b6106e5600033610c70565b61070a5760405162461bcd60e51b8152600401610701906131ab565b60405180910390fd5b60fc82905560fd81905560408051838152602081018390527fce5a32eeae390ce399fd83b29e4bee51b2b1a5898dc3575411e3a498f4f552a0910160405180910390a15050565b600061077161075e611609565b60fc5461076c906004613247565b611721565b905090565b6000828152606560205260409020600101546107918161174b565b61079b8383611755565b505050565b6001600160a01b03811633146108105760405162461bcd60e51b815260206004820152602f60248201527f416363657373436f6e74726f6c3a2063616e206f6e6c792072656e6f756e636560448201526e103937b632b9903337b91039b2b63360891b6064820152608401610701565b61081a82826117db565b5050565b306001600160a01b037f00000000000000000000000000000000000000000000000000000000000000001614156108675760405162461bcd60e51b8152600401610701906130c5565b7f00000000000000000000000000000000000000000000000000000000000000006001600160a01b03166108b0600080516020613459833981519152546001600160a01b031690565b6001600160a01b0316146108d65760405162461bcd60e51b815260040161070190613111565b6108df81611842565b604080516000808252602082019092526108fb9183919061184d565b50565b306001600160a01b037f00000000000000000000000000000000000000000000000000000000000000001614156109475760405162461bcd60e51b8152600401610701906130c5565b7f00000000000000000000000000000000000000000000000000000000000000006001600160a01b0316610990600080516020613459833981519152546001600160a01b031690565b6001600160a01b0316146109b65760405162461bcd60e51b815260040161070190613111565b6109bf82611842565b61081a8282600161184d565b6000306001600160a01b037f00000000000000000000000000000000000000000000000000000000000000001614610a6b5760405162461bcd60e51b815260206004820152603860248201527f555550535570677261646561626c653a206d757374206e6f742062652063616c60448201527f6c6564207468726f7567682064656c656761746563616c6c00000000000000006064820152608401610701565b5060008051602061345983398151915290565b610aa87fd67ad422505496469a1adf6cdf9e5ee92ac5d33992843c9ecc4b2f6d6cde913733610c70565b80610b4f575060fb54604051632474521560e21b81527fd67ad422505496469a1adf6cdf9e5ee92ac5d33992843c9ecc4b2f6d6cde913760048201523360248201526001600160a01b03909116906391d148549060440160206040518083038186803b158015610b1757600080fd5b505afa158015610b2b573d6000803e3d6000fd5b505050506040513d601f19601f82011682018060405250810190610b4f9190612e96565b61070a5760405162461bcd60e51b815260206004820152602260248201527f5265737472696374656420746f20504f5254464f4c494f5f4147454e545f524f6044820152614c4560f01b6064820152608401610701565b600054610100900460ff1615808015610bc65750600054600160ff909116105b80610be05750303b158015610be0575060005460ff166001145b610bfc5760405162461bcd60e51b81526004016107019061315d565b6000805460ff191660011790558015610c1f576000805461ff0019166101001790555b610c276119c7565b80156108fb576000805461ff0019169055604051600181527f7f26b83ff96e1f2b6a682f133852f6798a09c465da95921460cefb3847402498906020015b60405180910390a150565b60009182526065602090815260408084206001600160a01b0393909316845291905290205460ff1690565b6000610771611609565b610cb0600033610c70565b610ccc5760405162461bcd60e51b8152600401610701906131ab565b6001600160a01b038116610d225760405162461bcd60e51b815260206004820152601860248201527f5a65726f2061646472657373206e6f7420616c6c6f77656400000000000000006044820152606401610701565b60fb54610d4790600080516020613439833981519152906001600160a01b03166112d3565b610d5f60008051602061343983398151915282610776565b60fb80546001600160a01b0319166001600160a01b0383169081179091556040519081527ff7b449fcd5cfb7379dcd34cb69428dd9f882033b15be33d83b42d91daa28eeb790602001610c65565b610dc560008051602061343983398151915233610c70565b610de15760405162461bcd60e51b81526004016107019061308e565b6000610e5f306001600160a01b031663a3673b386040518163ffffffff1660e01b815260040160206040518083038186803b158015610e1f57600080fd5b505afa158015610e33573d6000803e3d6000fd5b505050506040513d601f19601f82011682018060405250810190610e579190612ecc565b60fd54611721565b6040516370a0823160e01b8152306004820152909150610ee49084906001600160a01b038216906370a082319060240160206040518083038186803b158015610ea757600080fd5b505afa158015610ebb573d6000803e3d6000fd5b505050506040513d601f19601f82011682018060405250810190610edf9190612ecc565b611aa7565b80306001600160a01b031663a3673b386040518163ffffffff1660e01b815260040160206040518083038186803b158015610f1e57600080fd5b505afa158015610f32573d6000803e3d6000fd5b505050506040513d601f19601f82011682018060405250810190610f569190612ecc565b1015610fa45760405162461bcd60e51b815260206004820152601f60248201527f5374726174656779204e4156206c657373207468616e206578706563746564006044820152606401610701565b6040518281527f227a473b70d2f893cc7659219575c030a63b5743024fe1e0c1a680e708b1525a9060200160405180910390a1505050565b610fe7600033610c70565b6110035760405162461bcd60e51b8152600401610701906131ab565b6110136040820160208301612d40565b61012d80546001600160a01b0319166001600160a01b03929092169190911790556110416020820182612d40565b61012e80546001600160a01b0319166001600160a01b03929092169190911790556110726060820160408301612d40565b61012f80546001600160a01b0319166001600160a01b03929092169190911790556110a36080820160608301612d40565b61013080546001600160a01b0319166001600160a01b03929092169190911790556110d460a0820160808301612d40565b61013180546001600160a01b0319166001600160a01b039290921691909117905561110560c0820160a08301612d40565b61013280546001600160a01b0319166001600160a01b039290921691909117905561113660e0820160c08301612d40565b61013380546001600160a01b0319166001600160a01b0392909216919091179055611168610100820160e08301612f54565b610133805462ffffff92909216600160a01b0262ffffff60a01b1990921691909117905561119c6040820160208301612d40565b6001600160a01b031663313ce5676040518163ffffffff1660e01b815260040160206040518083038186803b1580156111d457600080fd5b505afa1580156111e8573d6000803e3d6000fd5b505050506040513d601f19601f8201168201806040525081019061120c9190612f9b565b61121790600a6132c4565b610134556112286020820182612d40565b6001600160a01b031663313ce5676040518163ffffffff1660e01b815260040160206040518083038186803b15801561126057600080fd5b505afa158015611274573d6000803e3d6000fd5b505050506040513d601f19601f820116820180604052508101906112989190612f9b565b6112a390600a6132c4565b610135556040517fea5646eb3528e525944447a4a97de700dd472298626e5c0481d1c82c3da86ea590600090a150565b6000828152606560205260409020600101546112ee8161174b565b61079b83836117db565b600061131260008051602061343983398151915233610c70565b61132e5760405162461bcd60e51b81526004016107019061308e565b5060005b919050565b600061135160008051602061343983398151915233610c70565b61136d5760405162461bcd60e51b81526004016107019061308e565b60006113ab306001600160a01b031663a3673b386040518163ffffffff1660e01b815260040160206040518083038186803b158015610e1f57600080fd5b905060008084156113ca575060006113c38887611def565b9150611439565b6113d5888888612112565b9150868210156114395760405162461bcd60e51b815260206004820152602960248201527f52657475726e65642076616c7565206c657373207468616e2072657175657374604482015268195908185b5bdd5b9d60ba1b6064820152608401610701565b82306001600160a01b031663a3673b386040518163ffffffff1660e01b815260040160206040518083038186803b15801561147357600080fd5b505afa158015611487573d6000803e3d6000fd5b505050506040513d601f19601f820116820180604052508101906114ab9190612ecc565b10156114f95760405162461bcd60e51b815260206004820152601f60248201527f5374726174656779204e4156206c657373207468616e206578706563746564006044820152606401610701565b60405163a9059cbb60e01b81526001600160a01b0387811660048301526024820184905289169063a9059cbb90604401602060405180830381600087803b15801561154357600080fd5b505af1158015611557573d6000803e3d6000fd5b505050506040513d601f19601f8201168201806040525081019061157b9190612e96565b5060408051888152602081018490527f9045c2ac9b2026de8075f2701bbdde882cd5e830b3b1ead9a15b22f2b5b93742910160405180910390a180156115ef576040518181527f3ac0594a85a20354f9dc74f33728416d19ce00d04a406c108cc2dcf2cecea1349060200160405180910390a15b509695505050505050565b6001600160a01b03163b151590565b61012f546040516370a0823160e01b815230600482015260009182916001600160a01b03909116906370a082319060240160206040518083038186803b15801561165257600080fd5b505afa158015611666573d6000803e3d6000fd5b505050506040513d601f19601f8201168201806040525081019061168a9190612ecc565b905061169581612468565b61012d546040516370a0823160e01b81523060048201526001600160a01b03909116906370a082319060240160206040518083038186803b1580156116d957600080fd5b505afa1580156116ed573d6000803e3d6000fd5b505050506040513d601f19601f820116820180604052508101906117119190612ecc565b61171b9190613247565b91505090565b6000612710611730838261338e565b61173a908561336f565b611744919061325f565b9392505050565b6108fb813361259a565b61175f8282610c70565b61081a5760008281526065602090815260408083206001600160a01b03851684529091529020805460ff191660011790556117973390565b6001600160a01b0316816001600160a01b0316837f2f8788117e7eff1d82e926ec794901d17c78024a50270940304540a733656f0d60405160405180910390a45050565b6117e58282610c70565b1561081a5760008281526065602090815260408083206001600160a01b0385168085529252808320805460ff1916905551339285917ff6391f5c32d9c69d2a47ea670b442974b53935d1edc7fd64eb21e047a839171b9190a45050565b600061081a8161174b565b7f4910fdfa16fed3260ed0e7147f7cc6da11a60208b5b9406d12a635614ffd91435460ff16156118805761079b836125fe565b826001600160a01b03166352d1902d6040518163ffffffff1660e01b815260040160206040518083038186803b1580156118b957600080fd5b505afa9250505080156118e9575060408051601f3d908101601f191682019092526118e691810190612ecc565b60015b61194c5760405162461bcd60e51b815260206004820152602e60248201527f45524331393637557067726164653a206e657720696d706c656d656e7461746960448201526d6f6e206973206e6f74205555505360901b6064820152608401610701565b60008051602061345983398151915281146119bb5760405162461bcd60e51b815260206004820152602960248201527f45524331393637557067726164653a20756e737570706f727465642070726f786044820152681a58589b195555525160ba1b6064820152608401610701565b5061079b83838361269a565b600054610100900460ff16158080156119e75750600054600160ff909116105b80611a015750303b158015611a01575060005460ff166001145b611a1d5760405162461bcd60e51b81526004016107019061315d565b6000805460ff191660011790558015611a40576000805461ff0019166101001790555b611a486126c5565b611a506126c5565b611a5b600033611755565b601460fc81905560fd5580156108fb576000805461ff0019169055604051600181527f7f26b83ff96e1f2b6a682f133852f6798a09c465da95921460cefb384740249890602001610c65565b61012d546001600160a01b03838116911614611ad55760405162461bcd60e51b8152600401610701906131d9565b61012d546040516370a0823160e01b81523060048201526000916001600160a01b0316906370a082319060240160206040518083038186803b158015611b1a57600080fd5b505afa158015611b2e573d6000803e3d6000fd5b505050506040513d601f19601f82011682018060405250810190611b529190612ecc565b61012d546101335460405163095ea7b360e01b81526001600160a01b03918216600482015260248101849052929350169063095ea7b390604401602060405180830381600087803b158015611ba657600080fd5b505af1158015611bba573d6000803e3d6000fd5b505050506040513d601f19601f82011682018060405250810190611bde9190612e96565b506000611bf5611bed83612732565b60fc54611721565b6101335461012d5461012e54929350611c2f926001600160a01b038084169392811692911690600160a01b900462ffffff1630878761285c565b5061012e546040516370a0823160e01b81523060048201526000916001600160a01b0316906370a082319060240160206040518083038186803b158015611c7557600080fd5b505afa158015611c89573d6000803e3d6000fd5b505050506040513d601f19601f82011682018060405250810190611cad9190612ecc565b61012e546101305460405163095ea7b360e01b81526001600160a01b03918216600482015260248101849052929350169063095ea7b390604401602060405180830381600087803b158015611d0157600080fd5b505af1158015611d15573d6000803e3d6000fd5b505050506040513d601f19601f82011682018060405250810190611d399190612e96565b506040805160608101825261012e546001600160a01b039081168252602080830185905283519081018452600081528284015261013054925163258a4c0360e21b815291921690639629300c90611d94908490600401613210565b602060405180830381600087803b158015611dae57600080fd5b505af1158015611dc2573d6000803e3d6000fd5b505050506040513d601f19601f82011682018060405250810190611de69190612ecc565b50505050505050565b61012d546000906001600160a01b03848116911614611e205760405162461bcd60e51b8152600401610701906131d9565b61012f546040516370a0823160e01b81523060048201526000916001600160a01b0316906370a082319060240160206040518083038186803b158015611e6557600080fd5b505afa158015611e79573d6000803e3d6000fd5b505050506040513d601f19601f82011682018060405250810190611e9d9190612ecc565b905080611eae5760009150506106d4565b6101305461012e546040516301e9a69560e41b81526001600160a01b03918216600482015260248101849052911690631e9a695090604401602060405180830381600087803b158015611f0057600080fd5b505af1158015611f14573d6000803e3d6000fd5b505050506040513d601f19601f82011682018060405250810190611f389190612ecc565b5061012e546040516370a0823160e01b81523060048201526000916001600160a01b0316906370a082319060240160206040518083038186803b158015611f7e57600080fd5b505afa158015611f92573d6000803e3d6000fd5b505050506040513d601f19601f82011682018060405250810190611fb69190612ecc565b61012e546101335460405163095ea7b360e01b81526001600160a01b03918216600482015260248101849052929350169063095ea7b390604401602060405180830381600087803b15801561200a57600080fd5b505af115801561201e573d6000803e3d6000fd5b505050506040513d601f19601f820116820180604052508101906120429190612e96565b506000612051611bed83612468565b6101335461012e5461012d5492935061208b926001600160a01b038084169392811692911690600160a01b900462ffffff1630878761285c565b5061012d546040516370a0823160e01b81523060048201526001600160a01b03909116906370a082319060240160206040518083038186803b1580156120d057600080fd5b505afa1580156120e4573d6000803e3d6000fd5b505050506040513d601f19601f820116820180604052508101906121089190612ecc565b9695505050505050565b61012d546000906001600160a01b038581169116146121435760405162461bcd60e51b8152600401610701906131d9565b61012f546040516370a0823160e01b81523060048201526000916001600160a01b0316906370a082319060240160206040518083038186803b15801561218857600080fd5b505afa15801561219c573d6000803e3d6000fd5b505050506040513d601f19601f820116820180604052508101906121c09190612ecc565b9050806121d1576000915050611744565b60006121f66121ee6121e9876509184e72a000613247565b612732565b60fc546129e6565b90508181106122025750805b6101305461012e546040516301e9a69560e41b81526001600160a01b03918216600482015260248101849052911690631e9a695090604401602060405180830381600087803b15801561225457600080fd5b505af1158015612268573d6000803e3d6000fd5b505050506040513d601f19601f8201168201806040525081019061228c9190612ecc565b5061012e546040516370a0823160e01b81523060048201526000916001600160a01b0316906370a082319060240160206040518083038186803b1580156122d257600080fd5b505afa1580156122e6573d6000803e3d6000fd5b505050506040513d601f19601f8201168201806040525081019061230a9190612ecc565b61012e546101335460405163095ea7b360e01b81526001600160a01b03918216600482015260248101849052929350169063095ea7b390604401602060405180830381600087803b15801561235e57600080fd5b505af1158015612372573d6000803e3d6000fd5b505050506040513d601f19601f820116820180604052508101906123969190612e96565b5060006123a5611bed83612468565b6101335461012e5461012d549293506123df926001600160a01b038084169392811692911690600160a01b900462ffffff1630878761285c565b5061012d546040516370a0823160e01b81523060048201526001600160a01b03909116906370a082319060240160206040518083038186803b15801561242457600080fd5b505afa158015612438573d6000803e3d6000fd5b505050506040513d601f19601f8201168201806040525081019061245c9190612ecc565b98975050505050505050565b60008061013160009054906101000a90046001600160a01b03166001600160a01b03166350d25bcd6040518163ffffffff1660e01b815260040160206040518083038186803b1580156124ba57600080fd5b505afa1580156124ce573d6000803e3d6000fd5b505050506040513d601f19601f820116820180604052508101906124f29190612ecc565b9050600061013260009054906101000a90046001600160a01b03166001600160a01b03166350d25bcd6040518163ffffffff1660e01b815260040160206040518083038186803b15801561254557600080fd5b505afa158015612559573d6000803e3d6000fd5b505050506040513d601f19601f8201168201806040525081019061257d9190612ecc565b905061259284610135546101345484866129f5565b949350505050565b6125a48282610c70565b61081a576125bc816001600160a01b03166014612a20565b6125c7836020612a20565b6040516020016125d8929190613006565b60408051601f198184030181529082905262461bcd60e51b82526107019160040161307b565b6001600160a01b0381163b61266b5760405162461bcd60e51b815260206004820152602d60248201527f455243313936373a206e657720696d706c656d656e746174696f6e206973206e60448201526c1bdd08184818dbdb9d1c9858dd609a1b6064820152608401610701565b60008051602061345983398151915280546001600160a01b0319166001600160a01b0392909216919091179055565b6126a383612bbc565b6000825111806126b05750805b1561079b576126bf8383612bfc565b50505050565b600054610100900460ff166127305760405162461bcd60e51b815260206004820152602b60248201527f496e697469616c697a61626c653a20636f6e7472616374206973206e6f74206960448201526a6e697469616c697a696e6760a81b6064820152608401610701565b565b60008061013160009054906101000a90046001600160a01b03166001600160a01b03166350d25bcd6040518163ffffffff1660e01b815260040160206040518083038186803b15801561278457600080fd5b505afa158015612798573d6000803e3d6000fd5b505050506040513d601f19601f820116820180604052508101906127bc9190612ecc565b9050600061013260009054906101000a90046001600160a01b03166001600160a01b03166350d25bcd6040518163ffffffff1660e01b815260040160206040518083038186803b15801561280f57600080fd5b505afa158015612823573d6000803e3d6000fd5b505050506040513d601f19601f820116820180604052508101906128479190612ecc565b905061259284610134546101355485856129f5565b60405163095ea7b360e01b81526001600160a01b038881166004830152602482018490526000919088169063095ea7b390604401602060405180830381600087803b1580156128aa57600080fd5b505af11580156128be573d6000803e3d6000fd5b505050506040513d601f19601f820116820180604052508101906128e29190612e96565b506040805160e0810182526001600160a01b0389811682528881166020830190815262ffffff89811684860190815289841660608601908152608086018a815260a087018a8152600060c0890190815298516304e45aaf60e01b8152885188166004820152955187166024870152925190931660448501525184166064840152905160848301525160a48201529251811660c48401529091908a16906304e45aaf9060e401602060405180830381600087803b1580156129a157600080fd5b505af11580156129b5573d6000803e3d6000fd5b505050506040513d601f19601f820116820180604052508101906129d99190612ecc565b9998505050505050505050565b60006127106117308382613247565b6000612a01828661336f565b83612a0c868961336f565b612a16919061336f565b612108919061325f565b60606000612a2f83600261336f565b612a3a906002613247565b67ffffffffffffffff811115612a5257612a52613414565b6040519080825280601f01601f191660200182016040528015612a7c576020820181803683370190505b509050600360fc1b81600081518110612a9757612a976133fe565b60200101906001600160f81b031916908160001a905350600f60fb1b81600181518110612ac657612ac66133fe565b60200101906001600160f81b031916908160001a9053506000612aea84600261336f565b612af5906001613247565b90505b6001811115612b6d576f181899199a1a9b1b9c1cb0b131b232b360811b85600f1660108110612b2957612b296133fe565b1a60f81b828281518110612b3f57612b3f6133fe565b60200101906001600160f81b031916908160001a90535060049490941c93612b66816133d1565b9050612af8565b5083156117445760405162461bcd60e51b815260206004820181905260248201527f537472696e67733a20686578206c656e67746820696e73756666696369656e746044820152606401610701565b612bc5816125fe565b6040516001600160a01b038216907fbc7cd75a20ee27fd9adebab32041f755214dbc6bffa90cc0225b39da2e5c2d3b90600090a250565b60606001600160a01b0383163b612c645760405162461bcd60e51b815260206004820152602660248201527f416464726573733a2064656c65676174652063616c6c20746f206e6f6e2d636f6044820152651b9d1c9858dd60d21b6064820152608401610701565b600080846001600160a01b031684604051612c7f9190612fea565b600060405180830381855af49150503d8060008114612cba576040519150601f19603f3d011682016040523d82523d6000602084013e612cbf565b606091505b5091509150612ce7828260405180606001604052806027815260200161347960279139612cf0565b95945050505050565b60608315612cff575081611744565b825115612d0f5782518084602001fd5b8160405162461bcd60e51b8152600401610701919061307b565b80356001600160a01b038116811461133257600080fd5b600060208284031215612d5257600080fd5b61174482612d29565b60008060408385031215612d6e57600080fd5b612d7783612d29565b9150602083013567ffffffffffffffff80821115612d9457600080fd5b818501915085601f830112612da857600080fd5b813581811115612dba57612dba613414565b604051601f8201601f19908116603f01168101908382118183101715612de257612de2613414565b81604052828152886020848701011115612dfb57600080fd5b8260208601602083013760006020848301015280955050505050509250929050565b60008060408385031215612e3057600080fd5b612e3983612d29565b946020939093013593505050565b60008060008060808587031215612e5d57600080fd5b612e6685612d29565b935060208501359250612e7b60408601612d29565b91506060850135612e8b8161342a565b939692955090935050565b600060208284031215612ea857600080fd5b81516117448161342a565b600060208284031215612ec557600080fd5b5035919050565b600060208284031215612ede57600080fd5b5051919050565b60008060408385031215612ef857600080fd5b82359150612f0860208401612d29565b90509250929050565b600060208284031215612f2357600080fd5b81356001600160e01b03198116811461174457600080fd5b60006101008284031215612f4e57600080fd5b50919050565b600060208284031215612f6657600080fd5b813562ffffff8116811461174457600080fd5b60008060408385031215612f8c57600080fd5b50508035926020909101359150565b600060208284031215612fad57600080fd5b815160ff8116811461174457600080fd5b60008151808452612fd68160208601602086016133a5565b601f01601f19169290920160200192915050565b60008251612ffc8184602087016133a5565b9190910192915050565b7f416363657373436f6e74726f6c3a206163636f756e742000000000000000000081526000835161303e8160178501602088016133a5565b7001034b99036b4b9b9b4b733903937b6329607d1b601791840191820152835161306f8160288401602088016133a5565b01602801949350505050565b6020815260006117446020830184612fbe565b6020808252601f908201527f5265737472696374656420746f20504f5254464f4c494f5f4d414e4147455200604082015260600190565b6020808252602c908201527f46756e6374696f6e206d7573742062652063616c6c6564207468726f7567682060408201526b19195b1959d85d1958d85b1b60a21b606082015260800190565b6020808252602c908201527f46756e6374696f6e206d7573742062652063616c6c6564207468726f7567682060408201526b6163746976652070726f787960a01b606082015260800190565b6020808252602e908201527f496e697469616c697a61626c653a20636f6e747261637420697320616c72656160408201526d191e481a5b9a5d1a585b1a5e995960921b606082015260800190565b6020808252601490820152735265737472696374656420746f2061646d696e7360601b604082015260600190565b60208082526019908201527f536f6d6520746f6b656e206e6f7420636f6d70617469626c6500000000000000604082015260600190565b6020815260018060a01b03825116602082015260208201516040820152600060408301516060808401526125926080840182612fbe565b6000821982111561325a5761325a6133e8565b500190565b60008261327c57634e487b7160e01b600052601260045260246000fd5b500490565b600181815b808511156132bc5781600019048211156132a2576132a26133e8565b808516156132af57918102915b93841c9390800290613286565b509250929050565b600061174460ff8416836000826132dd575060016106d4565b816132ea575060006106d4565b8160018114613300576002811461330a57613326565b60019150506106d4565b60ff84111561331b5761331b6133e8565b50506001821b6106d4565b5060208310610133831016604e8410600b8410161715613349575081810a6106d4565b6133538383613281565b8060001904821115613367576133676133e8565b029392505050565b6000816000190483118215151615613389576133896133e8565b500290565b6000828210156133a0576133a06133e8565b500390565b60005b838110156133c05781810151838201526020016133a8565b838111156126bf5750506000910152565b6000816133e0576133e06133e8565b506000190190565b634e487b7160e01b600052601160045260246000fd5b634e487b7160e01b600052603260045260246000fd5b634e487b7160e01b600052604160045260246000fd5b80151581146108fb57600080fdfe90c2aa7471c04182221f68e80c07ab1e5946e4c63f8693e14ca40385d529f051360894a13ba1a3210667c828492db98dca3e2076cc3735a920a3ca505d382bbc416464726573733a206c6f772d6c6576656c2064656c65676174652063616c6c206661696c6564a2646970667358221220fa01a528a902e38a375a6a55cf4b7133865260e6b1be19e29104c8c19bd85d6964736f6c63430008060033",
  "implementation": "0x291120Ffa233285f82a741a2970FaF246FE5e88c",
  "devdoc": {
    "kind": "dev",
    "methods": {
      "constructor": {
        "custom:oz-upgrades-unsafe-allow": "constructor"
      },
      "getRoleAdmin(bytes32)": {
        "details": "Returns the admin role that controls `role`. See {grantRole} and {revokeRole}. To change a role's admin, use {_setRoleAdmin}."
      },
      "grantRole(bytes32,address)": {
        "details": "Grants `role` to `account`. If `account` had not been already granted `role`, emits a {RoleGranted} event. Requirements: - the caller must have ``role``'s admin role. May emit a {RoleGranted} event."
      },
      "hasRole(bytes32,address)": {
        "details": "Returns `true` if `account` has been granted `role`."
      },
      "proxiableUUID()": {
        "details": "Implementation of the ERC1822 {proxiableUUID} function. This returns the storage slot used by the implementation. It is used to validate that the this implementation remains valid after an upgrade. IMPORTANT: A proxy pointing at a proxiable contract should not be considered proxiable itself, because this risks bricking a proxy that upgrades to it, by delegating to itself until out of gas. Thus it is critical that this function revert if invoked through a proxy. This is guaranteed by the `notDelegated` modifier."
      },
      "renounceRole(bytes32,address)": {
        "details": "Revokes `role` from the calling account. Roles are often managed via {grantRole} and {revokeRole}: this function's purpose is to provide a mechanism for accounts to lose their privileges if they are compromised (such as when a trusted device is misplaced). If the calling account had been revoked `role`, emits a {RoleRevoked} event. Requirements: - the caller must be `account`. May emit a {RoleRevoked} event."
      },
      "revokeRole(bytes32,address)": {
        "details": "Revokes `role` from `account`. If `account` had been granted `role`, emits a {RoleRevoked} event. Requirements: - the caller must have ``role``'s admin role. May emit a {RoleRevoked} event."
      },
      "supportsInterface(bytes4)": {
        "details": "See {IERC165-supportsInterface}."
      },
      "upgradeTo(address)": {
        "details": "Upgrade the implementation of the proxy to `newImplementation`. Calls {_authorizeUpgrade}. Emits an {Upgraded} event."
      },
      "upgradeToAndCall(address,bytes)": {
        "details": "Upgrade the implementation of the proxy to `newImplementation`, and subsequently execute the function call encoded in `data`. Calls {_authorizeUpgrade}. Emits an {Upgraded} event."
      }
    },
    "version": 1
  },
  "userdoc": {
    "kind": "user",
    "methods": {},
    "version": 1
  },
  "storageLayout": {
    "storage": [
      {
        "astId": 808,
        "contract": "contracts/dai/StrategyUsdPlusDai.sol:StrategyUsdPlusDai",
        "label": "_initialized",
        "offset": 0,
        "slot": "0",
        "type": "t_uint8"
      },
      {
        "astId": 811,
        "contract": "contracts/dai/StrategyUsdPlusDai.sol:StrategyUsdPlusDai",
        "label": "_initializing",
        "offset": 1,
        "slot": "0",
        "type": "t_bool"
      },
      {
        "astId": 1372,
        "contract": "contracts/dai/StrategyUsdPlusDai.sol:StrategyUsdPlusDai",
        "label": "__gap",
        "offset": 0,
        "slot": "1",
        "type": "t_array(t_uint256)50_storage"
      },
      {
        "astId": 1702,
        "contract": "contracts/dai/StrategyUsdPlusDai.sol:StrategyUsdPlusDai",
        "label": "__gap",
        "offset": 0,
        "slot": "51",
        "type": "t_array(t_uint256)50_storage"
      },
      {
        "astId": 39,
        "contract": "contracts/dai/StrategyUsdPlusDai.sol:StrategyUsdPlusDai",
        "label": "_roles",
        "offset": 0,
        "slot": "101",
        "type": "t_mapping(t_bytes32,t_struct(RoleData)34_storage)"
      },
      {
        "astId": 338,
        "contract": "contracts/dai/StrategyUsdPlusDai.sol:StrategyUsdPlusDai",
        "label": "__gap",
        "offset": 0,
        "slot": "102",
        "type": "t_array(t_uint256)49_storage"
      },
      {
        "astId": 790,
        "contract": "contracts/dai/StrategyUsdPlusDai.sol:StrategyUsdPlusDai",
        "label": "__gap",
        "offset": 0,
        "slot": "151",
        "type": "t_array(t_uint256)50_storage"
      },
      {
        "astId": 1087,
        "contract": "contracts/dai/StrategyUsdPlusDai.sol:StrategyUsdPlusDai",
        "label": "__gap",
        "offset": 0,
        "slot": "201",
        "type": "t_array(t_uint256)50_storage"
      },
      {
        "astId": 11728,
        "contract": "contracts/dai/StrategyUsdPlusDai.sol:StrategyUsdPlusDai",
        "label": "portfolioManager",
        "offset": 0,
        "slot": "251",
        "type": "t_address"
      },
      {
        "astId": 11730,
        "contract": "contracts/dai/StrategyUsdPlusDai.sol:StrategyUsdPlusDai",
        "label": "swapSlippageBP",
        "offset": 0,
        "slot": "252",
        "type": "t_uint256"
      },
      {
        "astId": 11732,
        "contract": "contracts/dai/StrategyUsdPlusDai.sol:StrategyUsdPlusDai",
        "label": "navSlippageBP",
        "offset": 0,
        "slot": "253",
        "type": "t_uint256"
      },
      {
        "astId": 12129,
        "contract": "contracts/dai/StrategyUsdPlusDai.sol:StrategyUsdPlusDai",
        "label": "__gap",
        "offset": 0,
        "slot": "254",
        "type": "t_array(t_uint256)47_storage"
      },
      {
        "astId": 25704,
        "contract": "contracts/dai/StrategyUsdPlusDai.sol:StrategyUsdPlusDai",
        "label": "daiToken",
        "offset": 0,
        "slot": "301",
        "type": "t_contract(IERC20)2379"
      },
      {
        "astId": 25707,
        "contract": "contracts/dai/StrategyUsdPlusDai.sol:StrategyUsdPlusDai",
        "label": "usdcToken",
        "offset": 0,
        "slot": "302",
        "type": "t_contract(IERC20)2379"
      },
      {
        "astId": 25710,
        "contract": "contracts/dai/StrategyUsdPlusDai.sol:StrategyUsdPlusDai",
        "label": "usdPlus",
        "offset": 0,
        "slot": "303",
        "type": "t_contract(IUsdPlusToken)12455"
      },
      {
        "astId": 25713,
        "contract": "contracts/dai/StrategyUsdPlusDai.sol:StrategyUsdPlusDai",
        "label": "exchange",
        "offset": 0,
        "slot": "304",
        "type": "t_contract(IExchange)12208"
      },
      {
        "astId": 25716,
        "contract": "contracts/dai/StrategyUsdPlusDai.sol:StrategyUsdPlusDai",
        "label": "oracleDai",
        "offset": 0,
        "slot": "305",
        "type": "t_contract(IPriceFeed)6156"
      },
      {
        "astId": 25719,
        "contract": "contracts/dai/StrategyUsdPlusDai.sol:StrategyUsdPlusDai",
        "label": "oracleUsdc",
        "offset": 0,
        "slot": "306",
        "type": "t_contract(IPriceFeed)6156"
      },
      {
        "astId": 25722,
        "contract": "contracts/dai/StrategyUsdPlusDai.sol:StrategyUsdPlusDai",
        "label": "uniswapV3Router",
        "offset": 0,
        "slot": "307",
        "type": "t_contract(ISwapRouter)8914"
      },
      {
        "astId": 25724,
        "contract": "contracts/dai/StrategyUsdPlusDai.sol:StrategyUsdPlusDai",
        "label": "poolUsdcDaiFee",
        "offset": 20,
        "slot": "307",
        "type": "t_uint24"
      },
      {
        "astId": 25726,
        "contract": "contracts/dai/StrategyUsdPlusDai.sol:StrategyUsdPlusDai",
        "label": "daiDm",
        "offset": 0,
        "slot": "308",
        "type": "t_uint256"
      },
      {
        "astId": 25728,
        "contract": "contracts/dai/StrategyUsdPlusDai.sol:StrategyUsdPlusDai",
        "label": "usdcDm",
        "offset": 0,
        "slot": "309",
        "type": "t_uint256"
      },
      {
        "astId": 25730,
        "contract": "contracts/dai/StrategyUsdPlusDai.sol:StrategyUsdPlusDai",
        "label": "swapSlippage",
        "offset": 0,
        "slot": "310",
        "type": "t_uint256"
      }
    ],
    "types": {
      "t_address": {
        "encoding": "inplace",
        "label": "address",
        "numberOfBytes": "20"
      },
      "t_array(t_uint256)47_storage": {
        "base": "t_uint256",
        "encoding": "inplace",
        "label": "uint256[47]",
        "numberOfBytes": "1504"
      },
      "t_array(t_uint256)49_storage": {
        "base": "t_uint256",
        "encoding": "inplace",
        "label": "uint256[49]",
        "numberOfBytes": "1568"
      },
      "t_array(t_uint256)50_storage": {
        "base": "t_uint256",
        "encoding": "inplace",
        "label": "uint256[50]",
        "numberOfBytes": "1600"
      },
      "t_bool": {
        "encoding": "inplace",
        "label": "bool",
        "numberOfBytes": "1"
      },
      "t_bytes32": {
        "encoding": "inplace",
        "label": "bytes32",
        "numberOfBytes": "32"
      },
      "t_contract(IERC20)2379": {
        "encoding": "inplace",
        "label": "contract IERC20",
        "numberOfBytes": "20"
      },
      "t_contract(IExchange)12208": {
        "encoding": "inplace",
        "label": "contract IExchange",
        "numberOfBytes": "20"
      },
      "t_contract(IPriceFeed)6156": {
        "encoding": "inplace",
        "label": "contract IPriceFeed",
        "numberOfBytes": "20"
      },
      "t_contract(ISwapRouter)8914": {
        "encoding": "inplace",
        "label": "contract ISwapRouter",
        "numberOfBytes": "20"
      },
      "t_contract(IUsdPlusToken)12455": {
        "encoding": "inplace",
        "label": "contract IUsdPlusToken",
        "numberOfBytes": "20"
      },
      "t_mapping(t_address,t_bool)": {
        "encoding": "mapping",
        "key": "t_address",
        "label": "mapping(address => bool)",
        "numberOfBytes": "32",
        "value": "t_bool"
      },
      "t_mapping(t_bytes32,t_struct(RoleData)34_storage)": {
        "encoding": "mapping",
        "key": "t_bytes32",
        "label": "mapping(bytes32 => struct AccessControlUpgradeable.RoleData)",
        "numberOfBytes": "32",
        "value": "t_struct(RoleData)34_storage"
      },
      "t_struct(RoleData)34_storage": {
        "encoding": "inplace",
        "label": "struct AccessControlUpgradeable.RoleData",
        "members": [
          {
            "astId": 31,
            "contract": "contracts/dai/StrategyUsdPlusDai.sol:StrategyUsdPlusDai",
            "label": "members",
            "offset": 0,
            "slot": "0",
            "type": "t_mapping(t_address,t_bool)"
          },
          {
            "astId": 33,
            "contract": "contracts/dai/StrategyUsdPlusDai.sol:StrategyUsdPlusDai",
            "label": "adminRole",
            "offset": 0,
            "slot": "1",
            "type": "t_bytes32"
          }
        ],
        "numberOfBytes": "64"
      },
      "t_uint24": {
        "encoding": "inplace",
        "label": "uint24",
        "numberOfBytes": "3"
      },
      "t_uint256": {
        "encoding": "inplace",
        "label": "uint256",
        "numberOfBytes": "32"
      },
      "t_uint8": {
        "encoding": "inplace",
        "label": "uint8",
        "numberOfBytes": "1"
      }
    }
  }
}