{
  "address": "0xE8Deea3769f4dbC6046276C7d6076C33ff56442D",
  "abi": [
    {
      "inputs": [],
      "stateMutability": "nonpayable",
      "type": "constructor"
    },
    {
      "anonymous": false,
      "inputs": [
        {
          "indexed": false,
          "internalType": "address",
          "name": "previousAdmin",
          "type": "address"
        },
        {
          "indexed": false,
          "internalType": "address",
          "name": "newAdmin",
          "type": "address"
        }
      ],
      "name": "AdminChanged",
      "type": "event"
    },
    {
      "anonymous": false,
      "inputs": [
        {
          "indexed": false,
          "internalType": "uint256",
          "name": "healthFactor",
          "type": "uint256"
        }
      ],
      "name": "BalanceHealthFactor",
      "type": "event"
    },
    {
      "anonymous": false,
      "inputs": [
        {
          "indexed": true,
          "internalType": "address",
          "name": "beacon",
          "type": "address"
        }
      ],
      "name": "BeaconUpgraded",
      "type": "event"
    },
    {
      "anonymous": false,
      "inputs": [
        {
          "indexed": false,
          "internalType": "uint8",
          "name": "version",
          "type": "uint8"
        }
      ],
      "name": "Initialized",
      "type": "event"
    },
    {
      "anonymous": false,
      "inputs": [
        {
          "indexed": false,
          "internalType": "address",
          "name": "value",
          "type": "address"
        }
      ],
      "name": "PortfolioManagerUpdated",
      "type": "event"
    },
    {
      "anonymous": false,
      "inputs": [
        {
          "indexed": false,
          "internalType": "uint256",
          "name": "amount",
          "type": "uint256"
        }
      ],
      "name": "Reward",
      "type": "event"
    },
    {
      "anonymous": false,
      "inputs": [
        {
          "indexed": true,
          "internalType": "bytes32",
          "name": "role",
          "type": "bytes32"
        },
        {
          "indexed": true,
          "internalType": "bytes32",
          "name": "previousAdminRole",
          "type": "bytes32"
        },
        {
          "indexed": true,
          "internalType": "bytes32",
          "name": "newAdminRole",
          "type": "bytes32"
        }
      ],
      "name": "RoleAdminChanged",
      "type": "event"
    },
    {
      "anonymous": false,
      "inputs": [
        {
          "indexed": true,
          "internalType": "bytes32",
          "name": "role",
          "type": "bytes32"
        },
        {
          "indexed": true,
          "internalType": "address",
          "name": "account",
          "type": "address"
        },
        {
          "indexed": true,
          "internalType": "address",
          "name": "sender",
          "type": "address"
        }
      ],
      "name": "RoleGranted",
      "type": "event"
    },
    {
      "anonymous": false,
      "inputs": [
        {
          "indexed": true,
          "internalType": "bytes32",
          "name": "role",
          "type": "bytes32"
        },
        {
          "indexed": true,
          "internalType": "address",
          "name": "account",
          "type": "address"
        },
        {
          "indexed": true,
          "internalType": "address",
          "name": "sender",
          "type": "address"
        }
      ],
      "name": "RoleRevoked",
      "type": "event"
    },
    {
      "anonymous": false,
      "inputs": [
        {
          "indexed": false,
          "internalType": "uint256",
          "name": "healthFactor",
          "type": "uint256"
        }
      ],
      "name": "SetHealthFactor",
      "type": "event"
    },
    {
      "anonymous": false,
      "inputs": [
        {
          "indexed": false,
          "internalType": "uint256",
          "name": "amount",
          "type": "uint256"
        }
      ],
      "name": "Stake",
      "type": "event"
    },
    {
      "anonymous": false,
      "inputs": [],
      "name": "StrategyUpdatedParams",
      "type": "event"
    },
    {
      "anonymous": false,
      "inputs": [
        {
          "indexed": false,
          "internalType": "uint256",
          "name": "amount",
          "type": "uint256"
        },
        {
          "indexed": false,
          "internalType": "uint256",
          "name": "amountReceived",
          "type": "uint256"
        }
      ],
      "name": "Unstake",
      "type": "event"
    },
    {
      "anonymous": false,
      "inputs": [
        {
          "indexed": true,
          "internalType": "address",
          "name": "implementation",
          "type": "address"
        }
      ],
      "name": "Upgraded",
      "type": "event"
    },
    {
      "inputs": [],
      "name": "DEFAULT_ADMIN_ROLE",
      "outputs": [
        {
          "internalType": "bytes32",
          "name": "",
          "type": "bytes32"
        }
      ],
      "stateMutability": "view",
      "type": "function"
    },
    {
      "inputs": [],
      "name": "PORTFOLIO_MANAGER",
      "outputs": [
        {
          "internalType": "bytes32",
          "name": "",
          "type": "bytes32"
        }
      ],
      "stateMutability": "view",
      "type": "function"
    },
    {
      "inputs": [],
      "name": "UPGRADER_ROLE",
      "outputs": [
        {
          "internalType": "bytes32",
          "name": "",
          "type": "bytes32"
        }
      ],
      "stateMutability": "view",
      "type": "function"
    },
    {
      "inputs": [],
      "name": "arrakisRewards",
      "outputs": [
        {
          "internalType": "contract IArrakisRewards",
          "name": "",
          "type": "address"
        }
      ],
      "stateMutability": "view",
      "type": "function"
    },
    {
      "inputs": [],
      "name": "arrakisRouter",
      "outputs": [
        {
          "internalType": "contract IArrakisV1RouterStaking",
          "name": "",
          "type": "address"
        }
      ],
      "stateMutability": "view",
      "type": "function"
    },
    {
      "inputs": [],
      "name": "arrakisVault",
      "outputs": [
        {
          "internalType": "contract IArrakisVault",
          "name": "",
          "type": "address"
        }
      ],
      "stateMutability": "view",
      "type": "function"
    },
    {
      "inputs": [],
      "name": "bbRfADai",
      "outputs": [
        {
          "internalType": "contract IERC20",
          "name": "",
          "type": "address"
        }
      ],
      "stateMutability": "view",
      "type": "function"
    },
    {
      "inputs": [],
      "name": "bbRfAUsdc",
      "outputs": [
        {
          "internalType": "contract IERC20",
          "name": "",
          "type": "address"
        }
      ],
      "stateMutability": "view",
      "type": "function"
    },
    {
      "inputs": [],
      "name": "beethovenxPoolIdDai",
      "outputs": [
        {
          "internalType": "bytes32",
          "name": "",
          "type": "bytes32"
        }
      ],
      "stateMutability": "view",
      "type": "function"
    },
    {
      "inputs": [],
      "name": "beethovenxPoolIdDaiUsdtUsdc",
      "outputs": [
        {
          "internalType": "bytes32",
          "name": "",
          "type": "bytes32"
        }
      ],
      "stateMutability": "view",
      "type": "function"
    },
    {
      "inputs": [],
      "name": "beethovenxPoolIdUsdc",
      "outputs": [
        {
          "internalType": "bytes32",
          "name": "",
          "type": "bytes32"
        }
      ],
      "stateMutability": "view",
      "type": "function"
    },
    {
      "inputs": [],
      "name": "beethovenxVault",
      "outputs": [
        {
          "internalType": "contract IVault",
          "name": "",
          "type": "address"
        }
      ],
      "stateMutability": "view",
      "type": "function"
    },
    {
      "inputs": [
        {
          "internalType": "address",
          "name": "_to",
          "type": "address"
        }
      ],
      "name": "claimRewards",
      "outputs": [
        {
          "internalType": "uint256",
          "name": "",
          "type": "uint256"
        }
      ],
      "stateMutability": "nonpayable",
      "type": "function"
    },
    {
      "inputs": [],
      "name": "dai",
      "outputs": [
        {
          "internalType": "contract IERC20",
          "name": "",
          "type": "address"
        }
      ],
      "stateMutability": "view",
      "type": "function"
    },
    {
      "inputs": [],
      "name": "daiDm",
      "outputs": [
        {
          "internalType": "uint256",
          "name": "",
          "type": "uint256"
        }
      ],
      "stateMutability": "view",
      "type": "function"
    },
    {
      "inputs": [
        {
          "internalType": "bytes32",
          "name": "role",
          "type": "bytes32"
        }
      ],
      "name": "getRoleAdmin",
      "outputs": [
        {
          "internalType": "bytes32",
          "name": "",
          "type": "bytes32"
        }
      ],
      "stateMutability": "view",
      "type": "function"
    },
    {
      "inputs": [
        {
          "internalType": "bytes32",
          "name": "role",
          "type": "bytes32"
        },
        {
          "internalType": "address",
          "name": "account",
          "type": "address"
        }
      ],
      "name": "grantRole",
      "outputs": [],
      "stateMutability": "nonpayable",
      "type": "function"
    },
    {
      "inputs": [
        {
          "internalType": "bytes32",
          "name": "role",
          "type": "bytes32"
        },
        {
          "internalType": "address",
          "name": "account",
          "type": "address"
        }
      ],
      "name": "hasRole",
      "outputs": [
        {
          "internalType": "bool",
          "name": "",
          "type": "bool"
        }
      ],
      "stateMutability": "view",
      "type": "function"
    },
    {
      "inputs": [],
      "name": "healthFactorBalance",
      "outputs": [],
      "stateMutability": "nonpayable",
      "type": "function"
    },
    {
      "inputs": [],
      "name": "initialize",
      "outputs": [],
      "stateMutability": "nonpayable",
      "type": "function"
    },
    {
      "inputs": [],
      "name": "liquidationValue",
      "outputs": [
        {
          "internalType": "uint256",
          "name": "",
          "type": "uint256"
        }
      ],
      "stateMutability": "view",
      "type": "function"
    },
    {
      "inputs": [],
      "name": "netAssetValue",
      "outputs": [
        {
          "internalType": "uint256",
          "name": "",
          "type": "uint256"
        }
      ],
      "stateMutability": "view",
      "type": "function"
    },
    {
      "inputs": [],
      "name": "op",
      "outputs": [
        {
          "internalType": "contract IERC20",
          "name": "",
          "type": "address"
        }
      ],
      "stateMutability": "view",
      "type": "function"
    },
    {
      "inputs": [],
      "name": "oracleDai",
      "outputs": [
        {
          "internalType": "contract IPriceFeed",
          "name": "",
          "type": "address"
        }
      ],
      "stateMutability": "view",
      "type": "function"
    },
    {
      "inputs": [],
      "name": "oracleUsdc",
      "outputs": [
        {
          "internalType": "contract IPriceFeed",
          "name": "",
          "type": "address"
        }
      ],
      "stateMutability": "view",
      "type": "function"
    },
    {
      "inputs": [],
      "name": "poolWethDaiFee",
      "outputs": [
        {
          "internalType": "uint24",
          "name": "",
          "type": "uint24"
        }
      ],
      "stateMutability": "view",
      "type": "function"
    },
    {
      "inputs": [],
      "name": "poolWethOpFee",
      "outputs": [
        {
          "internalType": "uint24",
          "name": "",
          "type": "uint24"
        }
      ],
      "stateMutability": "view",
      "type": "function"
    },
    {
      "inputs": [],
      "name": "portfolioManager",
      "outputs": [
        {
          "internalType": "address",
          "name": "",
          "type": "address"
        }
      ],
      "stateMutability": "view",
      "type": "function"
    },
    {
      "inputs": [],
      "name": "proxiableUUID",
      "outputs": [
        {
          "internalType": "bytes32",
          "name": "",
          "type": "bytes32"
        }
      ],
      "stateMutability": "view",
      "type": "function"
    },
    {
      "inputs": [
        {
          "internalType": "bytes32",
          "name": "role",
          "type": "bytes32"
        },
        {
          "internalType": "address",
          "name": "account",
          "type": "address"
        }
      ],
      "name": "renounceRole",
      "outputs": [],
      "stateMutability": "nonpayable",
      "type": "function"
    },
    {
      "inputs": [
        {
          "internalType": "bytes32",
          "name": "role",
          "type": "bytes32"
        },
        {
          "internalType": "address",
          "name": "account",
          "type": "address"
        }
      ],
      "name": "revokeRole",
      "outputs": [],
      "stateMutability": "nonpayable",
      "type": "function"
    },
    {
      "inputs": [
        {
          "internalType": "uint256",
          "name": "healthFactor",
          "type": "uint256"
        }
      ],
      "name": "setHealthFactor",
      "outputs": [],
      "stateMutability": "nonpayable",
      "type": "function"
    },
    {
      "inputs": [
        {
          "components": [
            {
              "internalType": "address",
              "name": "dai",
              "type": "address"
            },
            {
              "internalType": "address",
              "name": "usdc",
              "type": "address"
            },
            {
              "internalType": "address",
              "name": "op",
              "type": "address"
            },
            {
              "internalType": "address",
              "name": "weth",
              "type": "address"
            },
            {
              "internalType": "address",
              "name": "arrakisRouter",
              "type": "address"
            },
            {
              "internalType": "address",
              "name": "arrakisRewards",
              "type": "address"
            },
            {
              "internalType": "address",
              "name": "arrakisVault",
              "type": "address"
            },
            {
              "internalType": "address",
              "name": "beethovenxVault",
              "type": "address"
            },
            {
              "internalType": "bytes32",
              "name": "beethovenxPoolIdDai",
              "type": "bytes32"
            },
            {
              "internalType": "bytes32",
              "name": "beethovenxPoolIdDaiUsdtUsdc",
              "type": "bytes32"
            },
            {
              "internalType": "bytes32",
              "name": "beethovenxPoolIdUsdc",
              "type": "bytes32"
            },
            {
              "internalType": "address",
              "name": "bbRfADai",
              "type": "address"
            },
            {
              "internalType": "address",
              "name": "bbRfAUsdc",
              "type": "address"
            },
            {
              "internalType": "address",
              "name": "uniswapV3Router",
              "type": "address"
            },
            {
              "internalType": "uint24",
              "name": "poolWethOpFee",
              "type": "uint24"
            },
            {
              "internalType": "uint24",
              "name": "poolWethDaiFee",
              "type": "uint24"
            },
            {
              "internalType": "address",
              "name": "oracleDai",
              "type": "address"
            },
            {
              "internalType": "address",
              "name": "oracleUsdc",
              "type": "address"
            }
          ],
          "internalType": "struct StrategyArrakisDaiUsdc.StrategyParams",
          "name": "params",
          "type": "tuple"
        }
      ],
      "name": "setParams",
      "outputs": [],
      "stateMutability": "nonpayable",
      "type": "function"
    },
    {
      "inputs": [
        {
          "internalType": "address",
          "name": "_value",
          "type": "address"
        }
      ],
      "name": "setPortfolioManager",
      "outputs": [],
      "stateMutability": "nonpayable",
      "type": "function"
    },
    {
      "inputs": [
        {
          "internalType": "address",
          "name": "_asset",
          "type": "address"
        },
        {
          "internalType": "uint256",
          "name": "_amount",
          "type": "uint256"
        }
      ],
      "name": "stake",
      "outputs": [],
      "stateMutability": "nonpayable",
      "type": "function"
    },
    {
      "inputs": [
        {
          "internalType": "bytes4",
          "name": "interfaceId",
          "type": "bytes4"
        }
      ],
      "name": "supportsInterface",
      "outputs": [
        {
          "internalType": "bool",
          "name": "",
          "type": "bool"
        }
      ],
      "stateMutability": "view",
      "type": "function"
    },
    {
      "inputs": [],
      "name": "uniswapV3Router",
      "outputs": [
        {
          "internalType": "contract ISwapRouter",
          "name": "",
          "type": "address"
        }
      ],
      "stateMutability": "view",
      "type": "function"
    },
    {
      "inputs": [
        {
          "internalType": "address",
          "name": "_asset",
          "type": "address"
        },
        {
          "internalType": "uint256",
          "name": "_amount",
          "type": "uint256"
        },
        {
          "internalType": "address",
          "name": "_beneficiary",
          "type": "address"
        },
        {
          "internalType": "bool",
          "name": "_targetIsZero",
          "type": "bool"
        }
      ],
      "name": "unstake",
      "outputs": [
        {
          "internalType": "uint256",
          "name": "",
          "type": "uint256"
        }
      ],
      "stateMutability": "nonpayable",
      "type": "function"
    },
    {
      "inputs": [
        {
          "internalType": "address",
          "name": "newImplementation",
          "type": "address"
        }
      ],
      "name": "upgradeTo",
      "outputs": [],
      "stateMutability": "nonpayable",
      "type": "function"
    },
    {
      "inputs": [
        {
          "internalType": "address",
          "name": "newImplementation",
          "type": "address"
        },
        {
          "internalType": "bytes",
          "name": "data",
          "type": "bytes"
        }
      ],
      "name": "upgradeToAndCall",
      "outputs": [],
      "stateMutability": "payable",
      "type": "function"
    },
    {
      "inputs": [],
      "name": "usdc",
      "outputs": [
        {
          "internalType": "contract IERC20",
          "name": "",
          "type": "address"
        }
      ],
      "stateMutability": "view",
      "type": "function"
    },
    {
      "inputs": [],
      "name": "usdcDm",
      "outputs": [
        {
          "internalType": "uint256",
          "name": "",
          "type": "uint256"
        }
      ],
      "stateMutability": "view",
      "type": "function"
    },
    {
      "inputs": [],
      "name": "weth",
      "outputs": [
        {
          "internalType": "contract IERC20",
          "name": "",
          "type": "address"
        }
      ],
      "stateMutability": "view",
      "type": "function"
    }
  ],
  "numDeployments": 2,
  "solcInputHash": "52bdf321022db2f56e515ad1308c2dec",
  "bytecode": "0x60a06040523060601b6080523480156200001857600080fd5b50600054610100900460ff16158080156200003a5750600054600160ff909116105b806200006a575062000057306200014460201b620015fa1760201c565b1580156200006a575060005460ff166001145b620000d25760405162461bcd60e51b815260206004820152602e60248201527f496e697469616c697a61626c653a20636f6e747261637420697320616c72656160448201526d191e481a5b9a5d1a585b1a5e995960921b606482015260840160405180910390fd5b6000805460ff191660011790558015620000f6576000805461ff0019166101001790555b80156200013d576000805461ff0019169055604051600181527f7f26b83ff96e1f2b6a682f133852f6798a09c465da95921460cefb38474024989060200160405180910390a15b5062000153565b6001600160a01b03163b151590565b60805160601c614ab46200018e600039600081816109400152818161098001528181610a2001528181610a600152610aef0152614ab46000f3fe60806040526004361061025c5760003560e01c8063811766fa11610144578063b2b59fcc116100b6578063ec1f1f691161007a578063ec1f1f69146106fb578063ef5cfb8c1461071c578063f4b9fa751461073c578063f6f6b8811461075d578063f72c0d8b1461077d578063fa40d928146107b157600080fd5b8063b2b59fcc1461066b578063cbf8b71314610682578063d1b6137f14610699578063d547741f146106ba578063eafb4601146106da57600080fd5b8063a3673b3811610108578063a3673b3814610599578063a440b21a146105ae578063a65d237b146105ce578063ad79a4c014610606578063adc9772e14610627578063ae64613c1461064757600080fd5b8063811766fa146105175780638129fc1c1461052e57806391d14854146105435780639ad126cb14610563578063a217fddf1461058457600080fd5b80633659cfe6116101dd57806352d1902d116101a157806352d1902d146104695780635f07c5f31461047e5780635fea9cbb1461049f578063620b75df146104c05780637b73aa4e146104e05780637d5f5802146104f557600080fd5b80633659cfe6146103dd5780633962d1f1146103fd5780633e413bee146104145780633fc8cef3146104355780634f1ef2861461045657600080fd5b80632576e65a116102245780632576e65a146103455780632c76d7a61461035a5780632f2ff15d1461037b578063311117081461039d57806336568abe146103bd57600080fd5b806301ffc9a7146102615780630eee4d2b14610296578063146a4d2b146102cf5780631b1e7ddc146102f0578063248a9ca314610315575b600080fd5b34801561026d57600080fd5b5061028161027c366004614201565b6107d1565b60405190151581526020015b60405180910390f35b3480156102a257600080fd5b50610131546102b7906001600160a01b031681565b6040516001600160a01b03909116815260200161028d565b3480156102db57600080fd5b50610134546102b7906001600160a01b031681565b3480156102fc57600080fd5b5061030761013e5481565b60405190815260200161028d565b34801561032157600080fd5b506103076103303660046141a3565b60009081526065602052604090206001015490565b34801561035157600080fd5b50610307610808565b34801561036657600080fd5b5061013a546102b7906001600160a01b031681565b34801561038757600080fd5b5061039b6103963660046141d5565b610819565b005b3480156103a957600080fd5b5061039b6103b83660046141a3565b610843565b3480156103c957600080fd5b5061039b6103d83660046141d5565b6108b7565b3480156103e957600080fd5b5061039b6103f8366004613f9f565b610935565b34801561040957600080fd5b506103076101355481565b34801561042057600080fd5b5061012e546102b7906001600160a01b031681565b34801561044157600080fd5b50610130546102b7906001600160a01b031681565b61039b610464366004613fba565b610a15565b34801561047557600080fd5b50610307610ae2565b34801561048a57600080fd5b5061013b546102b7906001600160a01b031681565b3480156104ab57600080fd5b5061013c546102b7906001600160a01b031681565b3480156104cc57600080fd5b5060fb546102b7906001600160a01b031681565b3480156104ec57600080fd5b5061039b610b95565b34801561050157600080fd5b50610307600080516020614a1883398151915281565b34801561052357600080fd5b5061030761013d5481565b34801561053a57600080fd5b5061039b610bcb565b34801561054f57600080fd5b5061028161055e3660046141d5565b610c8e565b34801561056f57600080fd5b50610139546102b7906001600160a01b031681565b34801561059057600080fd5b50610307600081565b3480156105a557600080fd5b50610307610cb9565b3480156105ba57600080fd5b5061039b6105c9366004613f9f565b610cc5565b3480156105da57600080fd5b5061013a546105f290600160b81b900462ffffff1681565b60405162ffffff909116815260200161028d565b34801561061257600080fd5b50610138546102b7906001600160a01b031681565b34801561063357600080fd5b5061039b610642366004614060565b610df4565b34801561065357600080fd5b5061013a546105f290600160a01b900462ffffff1681565b34801561067757600080fd5b506103076101365481565b34801561068e57600080fd5b506103076101375481565b3480156106a557600080fd5b50610133546102b7906001600160a01b031681565b3480156106c657600080fd5b5061039b6106d53660046141d5565b610ee1565b3480156106e657600080fd5b50610132546102b7906001600160a01b031681565b34801561070757600080fd5b5061012f546102b7906001600160a01b031681565b34801561072857600080fd5b50610307610737366004613f9f565b610f06565b34801561074857600080fd5b5061012d546102b7906001600160a01b031681565b34801561076957600080fd5b5061030761077836600461408a565b610f8b565b34801561078957600080fd5b506103077f189ab7a9244df0848122154315af71fe140f3db0fe014031783b0946b8c9d2e381565b3480156107bd57600080fd5b5061039b6107cc36600461422b565b611156565b60006001600160e01b03198216637965db0b60e01b148061080257506301ffc9a760e01b6001600160e01b03198316145b92915050565b60006108146000611609565b905090565b60008281526065602052604090206001015461083481611abd565b61083e8383611ac7565b505050565b61085b600080516020614a1883398151915233610c8e565b6108805760405162461bcd60e51b81526004016108779061461b565b60405180910390fd5b6040518181527ff00d5f5126966481831a71a9d79a9b3af67c4a1a35637b992c7e465a7e465b71906020015b60405180910390a150565b6001600160a01b03811633146109275760405162461bcd60e51b815260206004820152602f60248201527f416363657373436f6e74726f6c3a2063616e206f6e6c792072656e6f756e636560448201526e103937b632b9903337b91039b2b63360891b6064820152608401610877565b6109318282611b4d565b5050565b306001600160a01b037f000000000000000000000000000000000000000000000000000000000000000016141561097e5760405162461bcd60e51b815260040161087790614652565b7f00000000000000000000000000000000000000000000000000000000000000006001600160a01b03166109c7600080516020614a38833981519152546001600160a01b031690565b6001600160a01b0316146109ed5760405162461bcd60e51b81526004016108779061469e565b6109f681611bb4565b60408051600080825260208201909252610a1291839190611bde565b50565b306001600160a01b037f0000000000000000000000000000000000000000000000000000000000000000161415610a5e5760405162461bcd60e51b815260040161087790614652565b7f00000000000000000000000000000000000000000000000000000000000000006001600160a01b0316610aa7600080516020614a38833981519152546001600160a01b031690565b6001600160a01b031614610acd5760405162461bcd60e51b81526004016108779061469e565b610ad682611bb4565b61093182826001611bde565b6000306001600160a01b037f00000000000000000000000000000000000000000000000000000000000000001614610b825760405162461bcd60e51b815260206004820152603860248201527f555550535570677261646561626c653a206d757374206e6f742062652063616c60448201527f6c6564207468726f7567682064656c656761746563616c6c00000000000000006064820152608401610877565b50600080516020614a3883398151915290565b610bad600080516020614a1883398151915233610c8e565b610bc95760405162461bcd60e51b81526004016108779061461b565b565b600054610100900460ff1615808015610beb5750600054600160ff909116105b80610c055750303b158015610c05575060005460ff166001145b610c215760405162461bcd60e51b8152600401610877906146ea565b6000805460ff191660011790558015610c44576000805461ff0019166101001790555b610c4c611d58565b8015610a12576000805461ff0019169055604051600181527f7f26b83ff96e1f2b6a682f133852f6798a09c465da95921460cefb3847402498906020016108ac565b60009182526065602090815260408084206001600160a01b0393909316845291905290205460ff1690565b60006108146001611609565b610cd0600033610c8e565b610d135760405162461bcd60e51b81526020600482015260146024820152735265737472696374656420746f2061646d696e7360601b6044820152606401610877565b6001600160a01b038116610d695760405162461bcd60e51b815260206004820152601860248201527f5a65726f2061646472657373206e6f7420616c6c6f77656400000000000000006044820152606401610877565b60fb54610d8e90600080516020614a18833981519152906001600160a01b0316610ee1565b610da6600080516020614a1883398151915282610819565b60fb80546001600160a01b0319166001600160a01b0383169081179091556040519081527ff7b449fcd5cfb7379dcd34cb69428dd9f882033b15be33d83b42d91daa28eeb7906020016108ac565b610e0c600080516020614a1883398151915233610c8e565b610e285760405162461bcd60e51b81526004016108779061461b565b6040516370a0823160e01b8152306004820152610eaa9083906001600160a01b038216906370a082319060240160206040518083038186803b158015610e6d57600080fd5b505afa158015610e81573d6000803e3d6000fd5b505050506040513d601f19601f82011682018060405250810190610ea591906141bc565b611e16565b6040518181527f227a473b70d2f893cc7659219575c030a63b5743024fe1e0c1a680e708b1525a9060200160405180910390a15050565b600082815260656020526040902060010154610efc81611abd565b61083e8383611b4d565b6000610f20600080516020614a1883398151915233610c8e565b610f3c5760405162461bcd60e51b81526004016108779061461b565b6000610f4783612330565b90508015610f83576040518181527f3ac0594a85a20354f9dc74f33728416d19ce00d04a406c108cc2dcf2cecea1349060200160405180910390a15b90505b919050565b6000610fa5600080516020614a1883398151915233610c8e565b610fc15760405162461bcd60e51b81526004016108779061461b565b60008215611022576000610fd485612330565b90508015611010576040518181527f3ac0594a85a20354f9dc74f33728416d19ce00d04a406c108cc2dcf2cecea1349060200160405180910390a15b61101a8786612591565b915050611091565b61102d868686612aeb565b9050848110156110915760405162461bcd60e51b815260206004820152602960248201527f52657475726e65642076616c7565206c657373207468616e2072657175657374604482015268195908185b5bdd5b9d60ba1b6064820152608401610877565b60405163a9059cbb60e01b81526001600160a01b0385811660048301526024820183905287169063a9059cbb90604401602060405180830381600087803b1580156110db57600080fd5b505af11580156110ef573d6000803e3d6000fd5b505050506040513d601f19601f820116820180604052508101906111139190614186565b5060408051868152602081018390527f9045c2ac9b2026de8075f2701bbdde882cd5e830b3b1ead9a15b22f2b5b93742910160405180910390a195945050505050565b611161600033610c8e565b6111a45760405162461bcd60e51b81526020600482015260146024820152735265737472696374656420746f2061646d696e7360601b6044820152606401610877565b6111b16020820182613f9f565b61012d80546001600160a01b0319166001600160a01b03929092169190911790556111e26040820160208301613f9f565b61012e80546001600160a01b0319166001600160a01b03929092169190911790556112136060820160408301613f9f565b61012f80546001600160a01b0319166001600160a01b03929092169190911790556112446080820160608301613f9f565b61013080546001600160a01b0319166001600160a01b039290921691909117905561127560a0820160808301613f9f565b61013180546001600160a01b0319166001600160a01b03929092169190911790556112a660c0820160a08301613f9f565b61013280546001600160a01b0319166001600160a01b03929092169190911790556112d760e0820160c08301613f9f565b61013380546001600160a01b0319166001600160a01b0392909216919091179055611309610100820160e08301613f9f565b61013480546001600160a01b0319166001600160a01b039290921691909117905561010081013561013555610120810135610136556101408101356101375561135a61018082016101608301613f9f565b61013880546001600160a01b0319166001600160a01b039290921691909117905561138d6101a082016101808301613f9f565b61013980546001600160a01b0319166001600160a01b03929092169190911790556113c06101c082016101a08301613f9f565b61013a80546001600160a01b0319166001600160a01b03929092169190911790556113f36101e082016101c08301614244565b61013a805462ffffff92909216600160a01b0262ffffff60a01b1990921691909117905561142961020082016101e08301614244565b61013a805462ffffff92909216600160b81b0262ffffff60b81b1990921691909117905561145f61022082016102008301613f9f565b61013b80546001600160a01b0319166001600160a01b039290921691909117905561149261024082016102208301613f9f565b61013c80546001600160a01b0319166001600160a01b03929092169190911790556114c06020820182613f9f565b6001600160a01b031663313ce5676040518163ffffffff1660e01b815260040160206040518083038186803b1580156114f857600080fd5b505afa15801561150c573d6000803e3d6000fd5b505050506040513d601f19601f820116820180604052508101906115309190614309565b61153b90600a61486b565b61013d5561154f6040820160208301613f9f565b6001600160a01b031663313ce5676040518163ffffffff1660e01b815260040160206040518083038186803b15801561158757600080fd5b505afa15801561159b573d6000803e3d6000fd5b505050506040513d601f19601f820116820180604052508101906115bf9190614309565b6115ca90600a61486b565b61013e556040517fea5646eb3528e525944447a4a97de700dd472298626e5c0481d1c82c3da86ea590600090a150565b6001600160a01b03163b151590565b61012d546040516370a0823160e01b815230600482015260009182916001600160a01b03909116906370a082319060240160206040518083038186803b15801561165257600080fd5b505afa158015611666573d6000803e3d6000fd5b505050506040513d601f19601f8201168201806040525081019061168a91906141bc565b61012e546040516370a0823160e01b81523060048201529192506000916001600160a01b03909116906370a082319060240160206040518083038186803b1580156116d457600080fd5b505afa1580156116e8573d6000803e3d6000fd5b505050506040513d601f19601f8201168201806040525081019061170c91906141bc565b610132546040516370a0823160e01b81523060048201529192506000916001600160a01b03909116906370a082319060240160206040518083038186803b15801561175657600080fd5b505afa15801561176a573d6000803e3d6000fd5b505050506040513d601f19601f8201168201806040525081019061178e91906141bc565b905080156119695761013354604080516304c8b65560e21b8152815160009384936001600160a01b0390911692631322d9549260048083019392829003018186803b1580156117dc57600080fd5b505afa1580156117f0573d6000803e3d6000fd5b505050506040513d601f19601f820116820180604052508101906118149190614269565b9150915061013360009054906101000a90046001600160a01b03166001600160a01b03166318160ddd6040518163ffffffff1660e01b815260040160206040518083038186803b15801561186757600080fd5b505afa15801561187b573d6000803e3d6000fd5b505050506040513d601f19601f8201168201806040525081019061189f91906141bc565b6118a98484614916565b6118b39190614806565b6118bd90856147ee565b935061013360009054906101000a90046001600160a01b03166001600160a01b03166318160ddd6040518163ffffffff1660e01b815260040160206040518083038186803b15801561190e57600080fd5b505afa158015611922573d6000803e3d6000fd5b505050506040513d601f19601f8201168201806040525081019061194691906141bc565b6119508483614916565b61195a9190614806565b61196490866147ee565b945050505b8115611ab45761013b54604080516350d25bcd60e01b815290516000926001600160a01b0316916350d25bcd916004808301926020929190829003018186803b1580156119b557600080fd5b505afa1580156119c9573d6000803e3d6000fd5b505050506040513d601f19601f820116820180604052508101906119ed91906141bc565b9050600061013c60009054906101000a90046001600160a01b03166001600160a01b03166350d25bcd6040518163ffffffff1660e01b815260040160206040518083038186803b158015611a4057600080fd5b505afa158015611a54573d6000803e3d6000fd5b505050506040513d601f19601f82011682018060405250810190611a7891906141bc565b90506000611a8f8561013e5461013d548587613038565b905087611aa457611aa181600161306d565b90505b611aae81876147ee565b95505050505b50909392505050565b610a128133613090565b611ad18282610c8e565b6109315760008281526065602090815260408083206001600160a01b03851684529091529020805460ff19166001179055611b093390565b6001600160a01b0316816001600160a01b0316837f2f8788117e7eff1d82e926ec794901d17c78024a50270940304540a733656f0d60405160405180910390a45050565b611b578282610c8e565b156109315760008281526065602090815260408083206001600160a01b0385168085529252808320805460ff1916905551339285917ff6391f5c32d9c69d2a47ea670b442974b53935d1edc7fd64eb21e047a839171b9190a45050565b7f189ab7a9244df0848122154315af71fe140f3db0fe014031783b0946b8c9d2e361093181611abd565b7f4910fdfa16fed3260ed0e7147f7cc6da11a60208b5b9406d12a635614ffd91435460ff1615611c115761083e836130f4565b826001600160a01b03166352d1902d6040518163ffffffff1660e01b815260040160206040518083038186803b158015611c4a57600080fd5b505afa925050508015611c7a575060408051601f3d908101601f19168201909252611c77918101906141bc565b60015b611cdd5760405162461bcd60e51b815260206004820152602e60248201527f45524331393637557067726164653a206e657720696d706c656d656e7461746960448201526d6f6e206973206e6f74205555505360901b6064820152608401610877565b600080516020614a388339815191528114611d4c5760405162461bcd60e51b815260206004820152602960248201527f45524331393637557067726164653a20756e737570706f727465642070726f786044820152681a58589b195555525160ba1b6064820152608401610877565b5061083e838383613190565b600054610100900460ff1615808015611d785750600054600160ff909116105b80611d925750303b158015611d92575060005460ff166001145b611dae5760405162461bcd60e51b8152600401610877906146ea565b6000805460ff191660011790558015611dd1576000805461ff0019166101001790555b611dd96131bb565b611de16131bb565b611dec600033611ac7565b610c4c7f189ab7a9244df0848122154315af71fe140f3db0fe014031783b0946b8c9d2e333611ac7565b61012d546001600160a01b03838116911614611e445760405162461bcd60e51b815260040161087790614738565b61013354604080516304c8b65560e21b8152815160009384936001600160a01b0390911692631322d9549260048083019392829003018186803b158015611e8a57600080fd5b505afa158015611e9e573d6000803e3d6000fd5b505050506040513d601f19601f82011682018060405250810190611ec29190614269565b61012d546040516370a0823160e01b81523060048201529294509092506000916001600160a01b03909116906370a082319060240160206040518083038186803b158015611f0f57600080fd5b505afa158015611f23573d6000803e3d6000fd5b505050506040513d601f19601f82011682018060405250810190611f4791906141bc565b6040805161018081018252610134546001600160a01b0390811682526000602080840182905261012d5483168486015261013854831660608086019190915261013954841660808087019190915261012e5490941660a0808701919091526101355460c0808801919091526101365460e080890191909152610137546101008901526101208801869052306101408901819052610160890152885190810189528981529384018590529683018a90529082018a905261013d549382019390935261013e5492810192909252600193820193909352929350919061202a8383613226565b6101208401819052905061203d836132f6565b5061012d546040516370a0823160e01b81523060048201526000916001600160a01b0316906370a082319060240160206040518083038186803b15801561208357600080fd5b505afa158015612097573d6000803e3d6000fd5b505050506040513d601f19601f820116820180604052508101906120bb91906141bc565b61012e546040516370a0823160e01b81523060048201529192506000916001600160a01b03909116906370a082319060240160206040518083038186803b15801561210557600080fd5b505afa158015612119573d6000803e3d6000fd5b505050506040513d601f19601f8201168201806040525081019061213d91906141bc565b61012d546101315460405163095ea7b360e01b81526001600160a01b03918216600482015260248101869052929350169063095ea7b390604401602060405180830381600087803b15801561219157600080fd5b505af11580156121a5573d6000803e3d6000fd5b505050506040513d601f19601f820116820180604052508101906121c99190614186565b5061012e546101315460405163095ea7b360e01b81526001600160a01b0391821660048201526024810184905291169063095ea7b390604401602060405180830381600087803b15801561221c57600080fd5b505af1158015612230573d6000803e3d6000fd5b505050506040513d601f19601f820116820180604052508101906122549190614186565b5061013154610132546001600160a01b039182169163046e49229116838561227d82601461306d565b61228888601461306d565b6040516001600160e01b031960e088901b1681526001600160a01b03909516600486015260248501939093526044840191909152606483015260848201523060a482015260c401606060405180830381600087803b1580156122e957600080fd5b505af11580156122fd573d6000803e3d6000fd5b505050506040513d601f19601f8201168201806040525081019061232191906142db565b50505050505050505050505050565b610132546040516370a0823160e01b815230600482015260009182916001600160a01b03909116906370a082319060240160206040518083038186803b15801561237957600080fd5b505afa15801561238d573d6000803e3d6000fd5b505050506040513d601f19601f820116820180604052508101906123b191906141bc565b11156124165761013254604051634274debf60e11b81523060048201526001600160a01b03909116906384e9bd7e90602401600060405180830381600087803b1580156123fd57600080fd5b505af1158015612411573d6000803e3d6000fd5b505050505b61012f546040516370a0823160e01b815230600482015260009182916001600160a01b03909116906370a082319060240160206040518083038186803b15801561245f57600080fd5b505afa158015612473573d6000803e3d6000fd5b505050506040513d601f19601f8201168201806040525081019061249791906141bc565b905080156124fb5761013a5461012f546101305461012d546000936124eb936001600160a01b0380831694918116939181169291169062ffffff600160a01b8204811691600160b81b9004163089896136c8565b90506124f781846147ee565b9250505b811561258a5761012d5460405163a9059cbb60e01b81526001600160a01b038681166004830152602482018590529091169063a9059cbb90604401602060405180830381600087803b15801561255057600080fd5b505af1158015612564573d6000803e3d6000fd5b505050506040513d601f19601f820116820180604052508101906125889190614186565b505b5092915050565b61012d546000906001600160a01b038481169116146125c25760405162461bcd60e51b815260040161087790614738565b610132546040516370a0823160e01b81523060048201526000916001600160a01b0316906370a082319060240160206040518083038186803b15801561260757600080fd5b505afa15801561261b573d6000803e3d6000fd5b505050506040513d601f19601f8201168201806040525081019061263f91906141bc565b905080612650576000915050610802565b61013354604080516304c8b65560e21b8152815160009384936001600160a01b0390911692631322d9549260048083019392829003018186803b15801561269657600080fd5b505afa1580156126aa573d6000803e3d6000fd5b505050506040513d601f19601f820116820180604052508101906126ce9190614269565b91509150600061013360009054906101000a90046001600160a01b03166001600160a01b03166318160ddd6040518163ffffffff1660e01b815260040160206040518083038186803b15801561272357600080fd5b505afa158015612737573d6000803e3d6000fd5b505050506040513d601f19601f8201168201806040525081019061275b91906141bc565b6127658585614916565b61276f9190614806565b9050600061013360009054906101000a90046001600160a01b03166001600160a01b03166318160ddd6040518163ffffffff1660e01b815260040160206040518083038186803b1580156127c257600080fd5b505afa1580156127d6573d6000803e3d6000fd5b505050506040513d601f19601f820116820180604052508101906127fa91906141bc565b6128048685614916565b61280e9190614806565b610132546101315460405163095ea7b360e01b81526001600160a01b03918216600482015260248101899052929350169063095ea7b390604401602060405180830381600087803b15801561286257600080fd5b505af1158015612876573d6000803e3d6000fd5b505050506040513d601f19601f8201168201806040525081019061289a9190614186565b5061013154610132546001600160a01b039182169163b83a75b39116876128c286601461306d565b6128cd86601461306d565b6040516001600160e01b031960e087901b1681526001600160a01b03909416600485015260248401929092526044830152606482015230608482015260a401606060405180830381600087803b15801561292657600080fd5b505af115801561293a573d6000803e3d6000fd5b505050506040513d601f19601f8201168201806040525081019061295e919061428d565b50506040805161018081018252610134546001600160a01b03908116825260006020830181905261012e5482168385018190526101395483166060850152610138548316608085015261012d5490921660a08401526101375460c08401526101365460e08401526101355461010084015292516370a0823160e01b81523060048201529293509091610120830191906370a082319060240160206040518083038186803b158015612a0e57600080fd5b505afa158015612a22573d6000803e3d6000fd5b505050506040513d601f19601f82011682018060405250810190612a4691906141bc565b815230602082018190526040909101529050612a61816132f6565b5061012d546040516370a0823160e01b81523060048201526001600160a01b03909116906370a082319060240160206040518083038186803b158015612aa657600080fd5b505afa158015612aba573d6000803e3d6000fd5b505050506040513d601f19601f82011682018060405250810190612ade91906141bc565b9998505050505050505050565b61012d546000906001600160a01b03858116911614612b1c5760405162461bcd60e51b815260040161087790614738565b61013354604080516304c8b65560e21b8152815160009384936001600160a01b0390911692631322d9549260048083019392829003018186803b158015612b6257600080fd5b505afa158015612b76573d6000803e3d6000fd5b505050506040513d601f19601f82011682018060405250810190612b9a9190614269565b91509150600061013360009054906101000a90046001600160a01b03166001600160a01b03166318160ddd6040518163ffffffff1660e01b815260040160206040518083038186803b158015612bef57600080fd5b505afa158015612c03573d6000803e3d6000fd5b505050506040513d601f19601f82011682018060405250810190612c2791906141bc565b6040805161018081018252610134546001600160a01b03908116825260006020830181905261012e548216838501526101395482166060840152610138548216608084015261012d5490911660a08301526101375460c08301526101365460e0808401919091526101355461010084015261012083018290523061014084018190526101608401528351908101909352929350919080612cd7612cd08b6509184e72a0006147ee565b600161385a565b815261013354604080516318160ddd60e01b815290516020938401936001600160a01b03909316926318160ddd9260048082019391829003018186803b158015612d2057600080fd5b505afa158015612d34573d6000803e3d6000fd5b505050506040513d601f19601f82011682018060405250810190612d5891906141bc565b815260200185815260200186815260200161013d54815260200161013e548152602001600181525090506000612d8e8383613869565b905083811115612d9b5750825b600084612da88389614916565b612db29190614806565b9050600085612dc18489614916565b612dcb9190614806565b610132546101315460405163095ea7b360e01b81526001600160a01b03918216600482015260248101879052929350169063095ea7b390604401602060405180830381600087803b158015612e1f57600080fd5b505af1158015612e33573d6000803e3d6000fd5b505050506040513d601f19601f82011682018060405250810190612e579190614186565b5061013154610132546001600160a01b039182169163b83a75b3911685612e7f86601461306d565b612e8a86601461306d565b6040516001600160e01b031960e087901b1681526001600160a01b03909416600485015260248401929092526044830152606482015230608482015260a401606060405180830381600087803b158015612ee357600080fd5b505af1158015612ef7573d6000803e3d6000fd5b505050506040513d601f19601f82011682018060405250810190612f1b919061428d565b505061012e546040516370a0823160e01b81523060048201526001600160a01b0390911691506370a082319060240160206040518083038186803b158015612f6257600080fd5b505afa158015612f76573d6000803e3d6000fd5b505050506040513d601f19601f82011682018060405250810190612f9a91906141bc565b610120860152612fa9856132f6565b5061012d546040516370a0823160e01b81523060048201526001600160a01b03909116906370a082319060240160206040518083038186803b158015612fee57600080fd5b505afa158015613002573d6000803e3d6000fd5b505050506040513d601f19601f8201168201806040525081019061302691906141bc565b985050505050505050505b9392505050565b60006130448286614916565b8361304f8689614916565b6130599190614916565b6130639190614806565b9695505050505050565b600061271061307c8382614935565b6130869085614916565b6130319190614806565b61309a8282610c8e565b610931576130b2816001600160a01b0316601461395d565b6130bd83602061395d565b6040516020016130ce929190614463565b60408051601f198184030181529082905262461bcd60e51b825261087791600401614608565b6001600160a01b0381163b6131615760405162461bcd60e51b815260206004820152602d60248201527f455243313936373a206e657720696d706c656d656e746174696f6e206973206e60448201526c1bdd08184818dbdb9d1c9858dd609a1b6064820152608401610877565b600080516020614a3883398151915280546001600160a01b0319166001600160a01b0392909216919091179055565b61319983613af9565b6000825111806131a65750805b1561083e576131b58383613b39565b50505050565b600054610100900460ff16610bc95760405162461bcd60e51b815260206004820152602b60248201527f496e697469616c697a61626c653a20636f6e7472616374206973206e6f74206960448201526a6e697469616c697a696e6760a81b6064820152608401610877565b6000816060015182608001518360a0015184604001516132469190614916565b6132509190614806565b61325a91906147ee565b6060830151835161326b9190614916565b6132759190614806565b905060005b8260c0015181101561258a576101208401829052600061329985613c2d565b90508360600151838286604001516132b19190614916565b6132bb9190614806565b6132c591906147ee565b606085015185516132d69190614916565b6132e09190614806565b92505080806132ee9061498f565b91505061327a565b6040808201518251610120840151925163095ea7b360e01b81526001600160a01b039182166004820152602481019390935260009291169063095ea7b390604401602060405180830381600087803b15801561335157600080fd5b505af1158015613365573d6000803e3d6000fd5b505050506040513d601f19601f820116820180604052508101906133899190614186565b50613392613f56565b60c08301518152600060208201526001604082015261012083015160608201526133ba613f56565b60e084015181526001602082015260026040820152600060608201526133de613f56565b6101008501518152600260208201526003604080830182905260006060840181905281518381526080810190925291816020015b61341a613f56565b8152602001906001900390816134125790505090508381600081518110613443576134436149dd565b60200260200101819052508281600181518110613462576134626149dd565b60200260200101819052508181600281518110613481576134816149dd565b602090810291909101015260408051600480825260a082019092526000918160200160208202803683370190505090508660400151816000815181106134c9576134c96149dd565b60200260200101906001600160a01b031690816001600160a01b031681525050866060015181600181518110613501576135016149dd565b60200260200101906001600160a01b031690816001600160a01b031681525050866080015181600281518110613539576135396149dd565b60200260200101906001600160a01b031690816001600160a01b0316815250508660a0015181600381518110613571576135716149dd565b6001600160a01b0392831660209182029290920181019190915260408051608080820183526000808352828501819052828401818152606084018290526101408e0151871684526101608e01519096169095528251600480825260a08201909452919493919291830190803683370190505090506b033b2e3c9fd0803ce800000081600081518110613605576136056149dd565b60200260200101818152505088600001516001600160a01b031663945bcec98a6020015186868686426040518763ffffffff1660e01b815260040161364f9695949392919061454a565b600060405180830381600087803b15801561366957600080fd5b505af115801561367d573d6000803e3d6000fd5b505050506040513d6000823e601f3d908101601f191682016040526136a591908101906140d9565b6003815181106136b7576136b76149dd565b6020026020010151612ade906149aa565b60405163095ea7b360e01b81526001600160a01b038a8116600483015260248201849052600091908a169063095ea7b390604401602060405180830381600087803b15801561371657600080fd5b505af115801561372a573d6000803e3d6000fd5b505050506040513d601f19601f8201168201806040525081019061374e9190614186565b50604080516080810182526bffffffffffffffffffffffff1960608c811b821660a08401526001600160e81b031960e88b811b821660b48601528d831b841660b78601528a901b1660cb8401528a811b90911660ce830152825180830360c201815260e28301845282526001600160a01b038781166020840152828401879052908201859052915163b858183f60e01b815290918c169063b858183f906137f990849060040161476f565b602060405180830381600087803b15801561381357600080fd5b505af1158015613827573d6000803e3d6000fd5b505050506040513d601f19601f8201168201806040525081019061384b91906141bc565b9b9a5050505050505050505050565b600061271061307c83826147ee565b60008160a00151826080015183606001516138849190614916565b61388e9190614806565b826040015161389d91906147ee565b825160208401516138ae9190614916565b6138b89190614806565b905060005b8260c0015181101561258a57600083602001518385606001516138e09190614916565b6138ea9190614806565b6101208601819052905060006138ff86613c2d565b9050818186606001516139129190614916565b61391c9190614806565b856040015161392b91906147ee565b8551602087015161393c9190614916565b6139469190614806565b9350505080806139559061498f565b9150506138bd565b6060600061396c836002614916565b6139779060026147ee565b67ffffffffffffffff81111561398f5761398f6149f3565b6040519080825280601f01601f1916602001820160405280156139b9576020820181803683370190505b509050600360fc1b816000815181106139d4576139d46149dd565b60200101906001600160f81b031916908160001a905350600f60fb1b81600181518110613a0357613a036149dd565b60200101906001600160f81b031916908160001a9053506000613a27846002614916565b613a329060016147ee565b90505b6001811115613aaa576f181899199a1a9b1b9c1cb0b131b232b360811b85600f1660108110613a6657613a666149dd565b1a60f81b828281518110613a7c57613a7c6149dd565b60200101906001600160f81b031916908160001a90535060049490941c93613aa381614978565b9050613a35565b5083156130315760405162461bcd60e51b815260206004820181905260248201527f537472696e67733a20686578206c656e67746820696e73756666696369656e746044820152606401610877565b613b02816130f4565b6040516001600160a01b038216907fbc7cd75a20ee27fd9adebab32041f755214dbc6bffa90cc0225b39da2e5c2d3b90600090a250565b60606001600160a01b0383163b613ba15760405162461bcd60e51b815260206004820152602660248201527f416464726573733a2064656c65676174652063616c6c20746f206e6f6e2d636f6044820152651b9d1c9858dd60d21b6064820152608401610877565b600080846001600160a01b031684604051613bbc9190614447565b600060405180830381855af49150503d8060008114613bf7576040519150601f19603f3d011682016040523d82523d6000602084013e613bfc565b606091505b5091509150613c248282604051806060016040528060278152602001614a5860279139613f1d565b95945050505050565b6000613c37613f56565b60c0830151815260006020820152600160408201526101208301516060820152613c5f613f56565b60e08401518152600160208201526002604082015260006060820152613c83613f56565b6101008501518152600260208201526003604080830182905260006060840181905281518381526080810190925291816020015b613cbf613f56565b815260200190600190039081613cb75790505090508381600081518110613ce857613ce86149dd565b60200260200101819052508281600181518110613d0757613d076149dd565b60200260200101819052508181600281518110613d2657613d266149dd565b602090810291909101015260408051600480825260a08201909252600091816020016020820280368337019050509050866040015181600081518110613d6e57613d6e6149dd565b60200260200101906001600160a01b031690816001600160a01b031681525050866060015181600181518110613da657613da66149dd565b60200260200101906001600160a01b031690816001600160a01b031681525050866080015181600281518110613dde57613dde6149dd565b60200260200101906001600160a01b031690816001600160a01b0316815250508660a0015181600381518110613e1657613e166149dd565b6001600160a01b0392831660209182029290920181019190915260408051608081018252600080825281840181905281830181815260608301919091526101408c0151851682526101608c0151851690528a51928b01519151637c26833760e11b81529093929092169163f84d066e91613e98918790879087906004016144d8565b600060405180830381600087803b158015613eb257600080fd5b505af1158015613ec6573d6000803e3d6000fd5b505050506040513d6000823e601f3d908101601f19168201604052613eee91908101906140d9565b600381518110613f0057613f006149dd565b6020026020010151613f11906149aa565b98975050505050505050565b60608315613f2c575081613031565b825115613f3c5782518084602001fd5b8160405162461bcd60e51b81526004016108779190614608565b6040518060a0016040528060008019168152602001600081526020016000815260200160008152602001606081525090565b80356001600160a01b0381168114610f8657600080fd5b600060208284031215613fb157600080fd5b61303182613f88565b60008060408385031215613fcd57600080fd5b613fd683613f88565b915060208084013567ffffffffffffffff80821115613ff457600080fd5b818601915086601f83011261400857600080fd5b81358181111561401a5761401a6149f3565b61402c601f8201601f191685016147bd565b9150808252878482850101111561404257600080fd5b80848401858401376000848284010152508093505050509250929050565b6000806040838503121561407357600080fd5b61407c83613f88565b946020939093013593505050565b600080600080608085870312156140a057600080fd5b6140a985613f88565b9350602085013592506140be60408601613f88565b915060608501356140ce81614a09565b939692955090935050565b600060208083850312156140ec57600080fd5b825167ffffffffffffffff8082111561410457600080fd5b818501915085601f83011261411857600080fd5b81518181111561412a5761412a6149f3565b8060051b915061413b8483016147bd565b8181528481019084860184860187018a101561415657600080fd5b600095505b8386101561417957805183526001959095019491860191860161415b565b5098975050505050505050565b60006020828403121561419857600080fd5b815161303181614a09565b6000602082840312156141b557600080fd5b5035919050565b6000602082840312156141ce57600080fd5b5051919050565b600080604083850312156141e857600080fd5b823591506141f860208401613f88565b90509250929050565b60006020828403121561421357600080fd5b81356001600160e01b03198116811461303157600080fd5b6000610240828403121561423e57600080fd5b50919050565b60006020828403121561425657600080fd5b813562ffffff8116811461303157600080fd5b6000806040838503121561427c57600080fd5b505080516020909101519092909150565b6000806000606084860312156142a257600080fd5b835192506020840151915060408401516fffffffffffffffffffffffffffffffff811681146142d057600080fd5b809150509250925092565b6000806000606084860312156142f057600080fd5b8351925060208401519150604084015190509250925092565b60006020828403121561431b57600080fd5b815160ff8116811461303157600080fd5b600081518084526020808501945080840160005b838110156143655781516001600160a01b031687529582019590820190600101614340565b509495945050505050565b600081518084526020808501808196508360051b8101915082860160005b858110156143ec5782840389528151805185528581015186860152604080820151908601526060808201519086015260809081015160a0918601829052906143d8818701836143f9565b9a87019a955050509084019060010161438e565b5091979650505050505050565b6000815180845261441181602086016020860161494c565b601f01601f19169290920160200192915050565b6002811061444357634e487b7160e01b600052602160045260246000fd5b9052565b6000825161445981846020870161494c565b9190910192915050565b7f416363657373436f6e74726f6c3a206163636f756e742000000000000000000081526000835161449b81601785016020880161494c565b7001034b99036b4b9b9b4b733903937b6329607d1b60179184019182015283516144cc81602884016020880161494c565b01602801949350505050565b6144e28186614425565b60e0602082015260006144f860e0830186614370565b828103604084015261450a818661432c565b915050613c24606083018480516001600160a01b039081168352602080830151151590840152604080830151909116908301526060908101511515910152565b6000610120614559838a614425565b6020818185015261456c8285018a614370565b91508382036040850152614580828961432c565b87516001600160a01b0390811660608781019190915260208a01511515608088015260408a015190911660a0870152880151151560c0860152915083820360e085015285518083528187019282019060005b818110156145ee578451835293830193918301916001016145d2565b505080935050505082610100830152979650505050505050565b60208152600061303160208301846143f9565b6020808252601f908201527f5265737472696374656420746f20504f5254464f4c494f5f4d414e4147455200604082015260600190565b6020808252602c908201527f46756e6374696f6e206d7573742062652063616c6c6564207468726f7567682060408201526b19195b1959d85d1958d85b1b60a21b606082015260800190565b6020808252602c908201527f46756e6374696f6e206d7573742062652063616c6c6564207468726f7567682060408201526b6163746976652070726f787960a01b606082015260800190565b6020808252602e908201527f496e697469616c697a61626c653a20636f6e747261637420697320616c72656160408201526d191e481a5b9a5d1a585b1a5e995960921b606082015260800190565b60208082526019908201527f536f6d6520746f6b656e206e6f7420636f6d70617469626c6500000000000000604082015260600190565b60208152600082516080602084015261478b60a08401826143f9565b905060018060a01b03602085015116604084015260408401516060840152606084015160808401528091505092915050565b604051601f8201601f1916810167ffffffffffffffff811182821017156147e6576147e66149f3565b604052919050565b60008219821115614801576148016149c7565b500190565b60008261482357634e487b7160e01b600052601260045260246000fd5b500490565b600181815b80851115614863578160001904821115614849576148496149c7565b8085161561485657918102915b93841c939080029061482d565b509250929050565b600061303160ff84168360008261488457506001610802565b8161489157506000610802565b81600181146148a757600281146148b1576148cd565b6001915050610802565b60ff8411156148c2576148c26149c7565b50506001821b610802565b5060208310610133831016604e8410600b84101617156148f0575081810a610802565b6148fa8383614828565b806000190482111561490e5761490e6149c7565b029392505050565b6000816000190483118215151615614930576149306149c7565b500290565b600082821015614947576149476149c7565b500390565b60005b8381101561496757818101518382015260200161494f565b838111156131b55750506000910152565b600081614987576149876149c7565b506000190190565b60006000198214156149a3576149a36149c7565b5060010190565b6000600160ff1b8214156149c0576149c06149c7565b5060000390565b634e487b7160e01b600052601160045260246000fd5b634e487b7160e01b600052603260045260246000fd5b634e487b7160e01b600052604160045260246000fd5b8015158114610a1257600080fdfe90c2aa7471c04182221f68e80c07ab1e5946e4c63f8693e14ca40385d529f051360894a13ba1a3210667c828492db98dca3e2076cc3735a920a3ca505d382bbc416464726573733a206c6f772d6c6576656c2064656c65676174652063616c6c206661696c6564a264697066735822122019265cf011bf496aba58e51e784a4a4edb14b501edbf02952abf66116e463d1864736f6c63430008060033",
  "devdoc": {
    "kind": "dev",
    "methods": {
      "constructor": {
        "custom:oz-upgrades-unsafe-allow": "constructor"
      },
      "getRoleAdmin(bytes32)": {
        "details": "Returns the admin role that controls `role`. See {grantRole} and {revokeRole}. To change a role's admin, use {_setRoleAdmin}."
      },
      "grantRole(bytes32,address)": {
        "details": "Grants `role` to `account`. If `account` had not been already granted `role`, emits a {RoleGranted} event. Requirements: - the caller must have ``role``'s admin role. May emit a {RoleGranted} event."
      },
      "hasRole(bytes32,address)": {
        "details": "Returns `true` if `account` has been granted `role`."
      },
      "proxiableUUID()": {
        "details": "Implementation of the ERC1822 {proxiableUUID} function. This returns the storage slot used by the implementation. It is used to validate that the this implementation remains valid after an upgrade. IMPORTANT: A proxy pointing at a proxiable contract should not be considered proxiable itself, because this risks bricking a proxy that upgrades to it, by delegating to itself until out of gas. Thus it is critical that this function revert if invoked through a proxy. This is guaranteed by the `notDelegated` modifier."
      },
      "renounceRole(bytes32,address)": {
        "details": "Revokes `role` from the calling account. Roles are often managed via {grantRole} and {revokeRole}: this function's purpose is to provide a mechanism for accounts to lose their privileges if they are compromised (such as when a trusted device is misplaced). If the calling account had been revoked `role`, emits a {RoleRevoked} event. Requirements: - the caller must be `account`. May emit a {RoleRevoked} event."
      },
      "revokeRole(bytes32,address)": {
        "details": "Revokes `role` from `account`. If `account` had been granted `role`, emits a {RoleRevoked} event. Requirements: - the caller must have ``role``'s admin role. May emit a {RoleRevoked} event."
      },
      "supportsInterface(bytes4)": {
        "details": "See {IERC165-supportsInterface}."
      },
      "upgradeTo(address)": {
        "details": "Upgrade the implementation of the proxy to `newImplementation`. Calls {_authorizeUpgrade}. Emits an {Upgraded} event."
      },
      "upgradeToAndCall(address,bytes)": {
        "details": "Upgrade the implementation of the proxy to `newImplementation`, and subsequently execute the function call encoded in `data`. Calls {_authorizeUpgrade}. Emits an {Upgraded} event."
      }
    },
    "version": 1
  },
  "userdoc": {
    "kind": "user",
    "methods": {},
    "version": 1
  },
  "storageLayout": {
    "storage": [
      {
        "astId": 808,
        "contract": "contracts/dai/StrategyArrakisDaiUsdc.sol:StrategyArrakisDaiUsdc",
        "label": "_initialized",
        "offset": 0,
        "slot": "0",
        "type": "t_uint8"
      },
      {
        "astId": 811,
        "contract": "contracts/dai/StrategyArrakisDaiUsdc.sol:StrategyArrakisDaiUsdc",
        "label": "_initializing",
        "offset": 1,
        "slot": "0",
        "type": "t_bool"
      },
      {
        "astId": 1372,
        "contract": "contracts/dai/StrategyArrakisDaiUsdc.sol:StrategyArrakisDaiUsdc",
        "label": "__gap",
        "offset": 0,
        "slot": "1",
        "type": "t_array(t_uint256)50_storage"
      },
      {
        "astId": 1702,
        "contract": "contracts/dai/StrategyArrakisDaiUsdc.sol:StrategyArrakisDaiUsdc",
        "label": "__gap",
        "offset": 0,
        "slot": "51",
        "type": "t_array(t_uint256)50_storage"
      },
      {
        "astId": 39,
        "contract": "contracts/dai/StrategyArrakisDaiUsdc.sol:StrategyArrakisDaiUsdc",
        "label": "_roles",
        "offset": 0,
        "slot": "101",
        "type": "t_mapping(t_bytes32,t_struct(RoleData)34_storage)"
      },
      {
        "astId": 338,
        "contract": "contracts/dai/StrategyArrakisDaiUsdc.sol:StrategyArrakisDaiUsdc",
        "label": "__gap",
        "offset": 0,
        "slot": "102",
        "type": "t_array(t_uint256)49_storage"
      },
      {
        "astId": 790,
        "contract": "contracts/dai/StrategyArrakisDaiUsdc.sol:StrategyArrakisDaiUsdc",
        "label": "__gap",
        "offset": 0,
        "slot": "151",
        "type": "t_array(t_uint256)50_storage"
      },
      {
        "astId": 1087,
        "contract": "contracts/dai/StrategyArrakisDaiUsdc.sol:StrategyArrakisDaiUsdc",
        "label": "__gap",
        "offset": 0,
        "slot": "201",
        "type": "t_array(t_uint256)50_storage"
      },
      {
        "astId": 10708,
        "contract": "contracts/dai/StrategyArrakisDaiUsdc.sol:StrategyArrakisDaiUsdc",
        "label": "portfolioManager",
        "offset": 0,
        "slot": "251",
        "type": "t_address"
      },
      {
        "astId": 11044,
        "contract": "contracts/dai/StrategyArrakisDaiUsdc.sol:StrategyArrakisDaiUsdc",
        "label": "__gap",
        "offset": 0,
        "slot": "252",
        "type": "t_array(t_uint256)49_storage"
      },
      {
        "astId": 19638,
        "contract": "contracts/dai/StrategyArrakisDaiUsdc.sol:StrategyArrakisDaiUsdc",
        "label": "dai",
        "offset": 0,
        "slot": "301",
        "type": "t_contract(IERC20)2379"
      },
      {
        "astId": 19641,
        "contract": "contracts/dai/StrategyArrakisDaiUsdc.sol:StrategyArrakisDaiUsdc",
        "label": "usdc",
        "offset": 0,
        "slot": "302",
        "type": "t_contract(IERC20)2379"
      },
      {
        "astId": 19644,
        "contract": "contracts/dai/StrategyArrakisDaiUsdc.sol:StrategyArrakisDaiUsdc",
        "label": "op",
        "offset": 0,
        "slot": "303",
        "type": "t_contract(IERC20)2379"
      },
      {
        "astId": 19647,
        "contract": "contracts/dai/StrategyArrakisDaiUsdc.sol:StrategyArrakisDaiUsdc",
        "label": "weth",
        "offset": 0,
        "slot": "304",
        "type": "t_contract(IERC20)2379"
      },
      {
        "astId": 19650,
        "contract": "contracts/dai/StrategyArrakisDaiUsdc.sol:StrategyArrakisDaiUsdc",
        "label": "arrakisRouter",
        "offset": 0,
        "slot": "305",
        "type": "t_contract(IArrakisV1RouterStaking)4345"
      },
      {
        "astId": 19653,
        "contract": "contracts/dai/StrategyArrakisDaiUsdc.sol:StrategyArrakisDaiUsdc",
        "label": "arrakisRewards",
        "offset": 0,
        "slot": "306",
        "type": "t_contract(IArrakisRewards)4304"
      },
      {
        "astId": 19656,
        "contract": "contracts/dai/StrategyArrakisDaiUsdc.sol:StrategyArrakisDaiUsdc",
        "label": "arrakisVault",
        "offset": 0,
        "slot": "307",
        "type": "t_contract(IArrakisVault)4418"
      },
      {
        "astId": 19659,
        "contract": "contracts/dai/StrategyArrakisDaiUsdc.sol:StrategyArrakisDaiUsdc",
        "label": "beethovenxVault",
        "offset": 0,
        "slot": "308",
        "type": "t_contract(IVault)4743"
      },
      {
        "astId": 19661,
        "contract": "contracts/dai/StrategyArrakisDaiUsdc.sol:StrategyArrakisDaiUsdc",
        "label": "beethovenxPoolIdDai",
        "offset": 0,
        "slot": "309",
        "type": "t_bytes32"
      },
      {
        "astId": 19663,
        "contract": "contracts/dai/StrategyArrakisDaiUsdc.sol:StrategyArrakisDaiUsdc",
        "label": "beethovenxPoolIdDaiUsdtUsdc",
        "offset": 0,
        "slot": "310",
        "type": "t_bytes32"
      },
      {
        "astId": 19665,
        "contract": "contracts/dai/StrategyArrakisDaiUsdc.sol:StrategyArrakisDaiUsdc",
        "label": "beethovenxPoolIdUsdc",
        "offset": 0,
        "slot": "311",
        "type": "t_bytes32"
      },
      {
        "astId": 19668,
        "contract": "contracts/dai/StrategyArrakisDaiUsdc.sol:StrategyArrakisDaiUsdc",
        "label": "bbRfADai",
        "offset": 0,
        "slot": "312",
        "type": "t_contract(IERC20)2379"
      },
      {
        "astId": 19671,
        "contract": "contracts/dai/StrategyArrakisDaiUsdc.sol:StrategyArrakisDaiUsdc",
        "label": "bbRfAUsdc",
        "offset": 0,
        "slot": "313",
        "type": "t_contract(IERC20)2379"
      },
      {
        "astId": 19674,
        "contract": "contracts/dai/StrategyArrakisDaiUsdc.sol:StrategyArrakisDaiUsdc",
        "label": "uniswapV3Router",
        "offset": 0,
        "slot": "314",
        "type": "t_contract(ISwapRouter)7902"
      },
      {
        "astId": 19676,
        "contract": "contracts/dai/StrategyArrakisDaiUsdc.sol:StrategyArrakisDaiUsdc",
        "label": "poolWethOpFee",
        "offset": 20,
        "slot": "314",
        "type": "t_uint24"
      },
      {
        "astId": 19678,
        "contract": "contracts/dai/StrategyArrakisDaiUsdc.sol:StrategyArrakisDaiUsdc",
        "label": "poolWethDaiFee",
        "offset": 23,
        "slot": "314",
        "type": "t_uint24"
      },
      {
        "astId": 19681,
        "contract": "contracts/dai/StrategyArrakisDaiUsdc.sol:StrategyArrakisDaiUsdc",
        "label": "oracleDai",
        "offset": 0,
        "slot": "315",
        "type": "t_contract(IPriceFeed)6450"
      },
      {
        "astId": 19684,
        "contract": "contracts/dai/StrategyArrakisDaiUsdc.sol:StrategyArrakisDaiUsdc",
        "label": "oracleUsdc",
        "offset": 0,
        "slot": "316",
        "type": "t_contract(IPriceFeed)6450"
      },
      {
        "astId": 19686,
        "contract": "contracts/dai/StrategyArrakisDaiUsdc.sol:StrategyArrakisDaiUsdc",
        "label": "daiDm",
        "offset": 0,
        "slot": "317",
        "type": "t_uint256"
      },
      {
        "astId": 19688,
        "contract": "contracts/dai/StrategyArrakisDaiUsdc.sol:StrategyArrakisDaiUsdc",
        "label": "usdcDm",
        "offset": 0,
        "slot": "318",
        "type": "t_uint256"
      }
    ],
    "types": {
      "t_address": {
        "encoding": "inplace",
        "label": "address",
        "numberOfBytes": "20"
      },
      "t_array(t_uint256)49_storage": {
        "base": "t_uint256",
        "encoding": "inplace",
        "label": "uint256[49]",
        "numberOfBytes": "1568"
      },
      "t_array(t_uint256)50_storage": {
        "base": "t_uint256",
        "encoding": "inplace",
        "label": "uint256[50]",
        "numberOfBytes": "1600"
      },
      "t_bool": {
        "encoding": "inplace",
        "label": "bool",
        "numberOfBytes": "1"
      },
      "t_bytes32": {
        "encoding": "inplace",
        "label": "bytes32",
        "numberOfBytes": "32"
      },
      "t_contract(IArrakisRewards)4304": {
        "encoding": "inplace",
        "label": "contract IArrakisRewards",
        "numberOfBytes": "20"
      },
      "t_contract(IArrakisV1RouterStaking)4345": {
        "encoding": "inplace",
        "label": "contract IArrakisV1RouterStaking",
        "numberOfBytes": "20"
      },
      "t_contract(IArrakisVault)4418": {
        "encoding": "inplace",
        "label": "contract IArrakisVault",
        "numberOfBytes": "20"
      },
      "t_contract(IERC20)2379": {
        "encoding": "inplace",
        "label": "contract IERC20",
        "numberOfBytes": "20"
      },
      "t_contract(IPriceFeed)6450": {
        "encoding": "inplace",
        "label": "contract IPriceFeed",
        "numberOfBytes": "20"
      },
      "t_contract(ISwapRouter)7902": {
        "encoding": "inplace",
        "label": "contract ISwapRouter",
        "numberOfBytes": "20"
      },
      "t_contract(IVault)4743": {
        "encoding": "inplace",
        "label": "contract IVault",
        "numberOfBytes": "20"
      },
      "t_mapping(t_address,t_bool)": {
        "encoding": "mapping",
        "key": "t_address",
        "label": "mapping(address => bool)",
        "numberOfBytes": "32",
        "value": "t_bool"
      },
      "t_mapping(t_bytes32,t_struct(RoleData)34_storage)": {
        "encoding": "mapping",
        "key": "t_bytes32",
        "label": "mapping(bytes32 => struct AccessControlUpgradeable.RoleData)",
        "numberOfBytes": "32",
        "value": "t_struct(RoleData)34_storage"
      },
      "t_struct(RoleData)34_storage": {
        "encoding": "inplace",
        "label": "struct AccessControlUpgradeable.RoleData",
        "members": [
          {
            "astId": 31,
            "contract": "contracts/dai/StrategyArrakisDaiUsdc.sol:StrategyArrakisDaiUsdc",
            "label": "members",
            "offset": 0,
            "slot": "0",
            "type": "t_mapping(t_address,t_bool)"
          },
          {
            "astId": 33,
            "contract": "contracts/dai/StrategyArrakisDaiUsdc.sol:StrategyArrakisDaiUsdc",
            "label": "adminRole",
            "offset": 0,
            "slot": "1",
            "type": "t_bytes32"
          }
        ],
        "numberOfBytes": "64"
      },
      "t_uint24": {
        "encoding": "inplace",
        "label": "uint24",
        "numberOfBytes": "3"
      },
      "t_uint256": {
        "encoding": "inplace",
        "label": "uint256",
        "numberOfBytes": "32"
      },
      "t_uint8": {
        "encoding": "inplace",
        "label": "uint8",
        "numberOfBytes": "1"
      }
    }
  }
}