{
  "address": "0xD9fCDFFEd5cA34Ef21661Ec6Fe3AEb742db6331e",
  "abi": [
    {
      "inputs": [],
      "stateMutability": "nonpayable",
      "type": "constructor"
    },
    {
      "anonymous": false,
      "inputs": [
        {
          "indexed": false,
          "internalType": "address",
          "name": "previousAdmin",
          "type": "address"
        },
        {
          "indexed": false,
          "internalType": "address",
          "name": "newAdmin",
          "type": "address"
        }
      ],
      "name": "AdminChanged",
      "type": "event"
    },
    {
      "anonymous": false,
      "inputs": [
        {
          "indexed": true,
          "internalType": "address",
          "name": "beacon",
          "type": "address"
        }
      ],
      "name": "BeaconUpgraded",
      "type": "event"
    },
    {
      "anonymous": false,
      "inputs": [
        {
          "indexed": false,
          "internalType": "address",
          "name": "exchanger",
          "type": "address"
        }
      ],
      "name": "ExchangerUpdated",
      "type": "event"
    },
    {
      "anonymous": false,
      "inputs": [
        {
          "indexed": false,
          "internalType": "uint8",
          "name": "version",
          "type": "uint8"
        }
      ],
      "name": "Initialized",
      "type": "event"
    },
    {
      "anonymous": false,
      "inputs": [
        {
          "indexed": false,
          "internalType": "address",
          "name": "wallet",
          "type": "address"
        }
      ],
      "name": "PancakeDepositWalletUpdated",
      "type": "event"
    },
    {
      "anonymous": false,
      "inputs": [
        {
          "indexed": false,
          "internalType": "address[]",
          "name": "pool",
          "type": "address[]"
        }
      ],
      "name": "PancakeSkimPoolsUpdated",
      "type": "event"
    },
    {
      "anonymous": false,
      "inputs": [
        {
          "indexed": false,
          "internalType": "uint256",
          "name": "index",
          "type": "uint256"
        },
        {
          "indexed": false,
          "internalType": "address",
          "name": "pool",
          "type": "address"
        }
      ],
      "name": "QsSyncPoolsRemoved",
      "type": "event"
    },
    {
      "anonymous": false,
      "inputs": [
        {
          "indexed": false,
          "internalType": "uint256",
          "name": "index",
          "type": "uint256"
        },
        {
          "indexed": false,
          "internalType": "address",
          "name": "pool",
          "type": "address"
        }
      ],
      "name": "QsSyncPoolsUpdated",
      "type": "event"
    },
    {
      "anonymous": false,
      "inputs": [
        {
          "indexed": true,
          "internalType": "bytes32",
          "name": "role",
          "type": "bytes32"
        },
        {
          "indexed": true,
          "internalType": "bytes32",
          "name": "previousAdminRole",
          "type": "bytes32"
        },
        {
          "indexed": true,
          "internalType": "bytes32",
          "name": "newAdminRole",
          "type": "bytes32"
        }
      ],
      "name": "RoleAdminChanged",
      "type": "event"
    },
    {
      "anonymous": false,
      "inputs": [
        {
          "indexed": true,
          "internalType": "bytes32",
          "name": "role",
          "type": "bytes32"
        },
        {
          "indexed": true,
          "internalType": "address",
          "name": "account",
          "type": "address"
        },
        {
          "indexed": true,
          "internalType": "address",
          "name": "sender",
          "type": "address"
        }
      ],
      "name": "RoleGranted",
      "type": "event"
    },
    {
      "anonymous": false,
      "inputs": [
        {
          "indexed": true,
          "internalType": "bytes32",
          "name": "role",
          "type": "bytes32"
        },
        {
          "indexed": true,
          "internalType": "address",
          "name": "account",
          "type": "address"
        },
        {
          "indexed": true,
          "internalType": "address",
          "name": "sender",
          "type": "address"
        }
      ],
      "name": "RoleRevoked",
      "type": "event"
    },
    {
      "anonymous": false,
      "inputs": [
        {
          "indexed": false,
          "internalType": "address",
          "name": "pool",
          "type": "address"
        },
        {
          "indexed": false,
          "internalType": "uint256",
          "name": "amount",
          "type": "uint256"
        }
      ],
      "name": "SkimReward",
      "type": "event"
    },
    {
      "anonymous": false,
      "inputs": [
        {
          "indexed": false,
          "internalType": "address",
          "name": "pool",
          "type": "address"
        },
        {
          "indexed": false,
          "internalType": "address",
          "name": "bribe",
          "type": "address"
        },
        {
          "indexed": false,
          "internalType": "uint256",
          "name": "amount",
          "type": "uint256"
        }
      ],
      "name": "ThenaSkimReward",
      "type": "event"
    },
    {
      "anonymous": false,
      "inputs": [
        {
          "indexed": false,
          "internalType": "address[]",
          "name": "pools",
          "type": "address[]"
        },
        {
          "indexed": false,
          "internalType": "address[]",
          "name": "bribes",
          "type": "address[]"
        }
      ],
      "name": "ThenaSkimUpdated",
      "type": "event"
    },
    {
      "anonymous": false,
      "inputs": [
        {
          "indexed": false,
          "internalType": "uint256",
          "name": "amount",
          "type": "uint256"
        }
      ],
      "name": "TotalSkimReward",
      "type": "event"
    },
    {
      "anonymous": false,
      "inputs": [
        {
          "indexed": true,
          "internalType": "address",
          "name": "implementation",
          "type": "address"
        }
      ],
      "name": "Upgraded",
      "type": "event"
    },
    {
      "anonymous": false,
      "inputs": [
        {
          "indexed": false,
          "internalType": "address",
          "name": "usdPlus",
          "type": "address"
        }
      ],
      "name": "UsdPlusUpdated",
      "type": "event"
    },
    {
      "inputs": [],
      "name": "DEFAULT_ADMIN_ROLE",
      "outputs": [
        {
          "internalType": "bytes32",
          "name": "",
          "type": "bytes32"
        }
      ],
      "stateMutability": "view",
      "type": "function"
    },
    {
      "inputs": [],
      "name": "EXCHANGER",
      "outputs": [
        {
          "internalType": "bytes32",
          "name": "",
          "type": "bytes32"
        }
      ],
      "stateMutability": "view",
      "type": "function"
    },
    {
      "inputs": [],
      "name": "UPGRADER_ROLE",
      "outputs": [
        {
          "internalType": "bytes32",
          "name": "",
          "type": "bytes32"
        }
      ],
      "stateMutability": "view",
      "type": "function"
    },
    {
      "inputs": [],
      "name": "exchange",
      "outputs": [
        {
          "internalType": "address",
          "name": "",
          "type": "address"
        }
      ],
      "stateMutability": "view",
      "type": "function"
    },
    {
      "inputs": [],
      "name": "getAllQsSyncPools",
      "outputs": [
        {
          "internalType": "address[]",
          "name": "",
          "type": "address[]"
        }
      ],
      "stateMutability": "view",
      "type": "function"
    },
    {
      "inputs": [
        {
          "internalType": "bytes32",
          "name": "role",
          "type": "bytes32"
        }
      ],
      "name": "getRoleAdmin",
      "outputs": [
        {
          "internalType": "bytes32",
          "name": "",
          "type": "bytes32"
        }
      ],
      "stateMutability": "view",
      "type": "function"
    },
    {
      "inputs": [
        {
          "internalType": "bytes32",
          "name": "role",
          "type": "bytes32"
        },
        {
          "internalType": "address",
          "name": "account",
          "type": "address"
        }
      ],
      "name": "grantRole",
      "outputs": [],
      "stateMutability": "nonpayable",
      "type": "function"
    },
    {
      "inputs": [
        {
          "internalType": "bytes32",
          "name": "role",
          "type": "bytes32"
        },
        {
          "internalType": "address",
          "name": "account",
          "type": "address"
        }
      ],
      "name": "hasRole",
      "outputs": [
        {
          "internalType": "bool",
          "name": "",
          "type": "bool"
        }
      ],
      "stateMutability": "view",
      "type": "function"
    },
    {
      "inputs": [],
      "name": "initialize",
      "outputs": [],
      "stateMutability": "nonpayable",
      "type": "function"
    },
    {
      "inputs": [],
      "name": "pancakeDepositWallet",
      "outputs": [
        {
          "internalType": "address",
          "name": "",
          "type": "address"
        }
      ],
      "stateMutability": "view",
      "type": "function"
    },
    {
      "inputs": [
        {
          "internalType": "uint256",
          "name": "",
          "type": "uint256"
        }
      ],
      "name": "pancakeSkimPools",
      "outputs": [
        {
          "internalType": "address",
          "name": "",
          "type": "address"
        }
      ],
      "stateMutability": "view",
      "type": "function"
    },
    {
      "inputs": [],
      "name": "payoutDone",
      "outputs": [],
      "stateMutability": "nonpayable",
      "type": "function"
    },
    {
      "inputs": [],
      "name": "proxiableUUID",
      "outputs": [
        {
          "internalType": "bytes32",
          "name": "",
          "type": "bytes32"
        }
      ],
      "stateMutability": "view",
      "type": "function"
    },
    {
      "inputs": [
        {
          "internalType": "uint256",
          "name": "",
          "type": "uint256"
        }
      ],
      "name": "qsSyncPools",
      "outputs": [
        {
          "internalType": "address",
          "name": "",
          "type": "address"
        }
      ],
      "stateMutability": "view",
      "type": "function"
    },
    {
      "inputs": [
        {
          "internalType": "bytes32",
          "name": "role",
          "type": "bytes32"
        },
        {
          "internalType": "address",
          "name": "account",
          "type": "address"
        }
      ],
      "name": "renounceRole",
      "outputs": [],
      "stateMutability": "nonpayable",
      "type": "function"
    },
    {
      "inputs": [
        {
          "internalType": "bytes32",
          "name": "role",
          "type": "bytes32"
        },
        {
          "internalType": "address",
          "name": "account",
          "type": "address"
        }
      ],
      "name": "revokeRole",
      "outputs": [],
      "stateMutability": "nonpayable",
      "type": "function"
    },
    {
      "inputs": [
        {
          "internalType": "address",
          "name": "_exchanger",
          "type": "address"
        }
      ],
      "name": "setExchanger",
      "outputs": [],
      "stateMutability": "nonpayable",
      "type": "function"
    },
    {
      "inputs": [
        {
          "internalType": "address",
          "name": "_pancakeDepositWallet",
          "type": "address"
        }
      ],
      "name": "setPancakeDepositWallet",
      "outputs": [],
      "stateMutability": "nonpayable",
      "type": "function"
    },
    {
      "inputs": [
        {
          "internalType": "address[]",
          "name": "_pancakeSkimPools",
          "type": "address[]"
        }
      ],
      "name": "setPancakeSkimPools",
      "outputs": [],
      "stateMutability": "nonpayable",
      "type": "function"
    },
    {
      "inputs": [
        {
          "internalType": "address[]",
          "name": "_qsSyncPools",
          "type": "address[]"
        }
      ],
      "name": "setQsSyncPools",
      "outputs": [],
      "stateMutability": "nonpayable",
      "type": "function"
    },
    {
      "inputs": [
        {
          "internalType": "address[]",
          "name": "_thenaSkimPools",
          "type": "address[]"
        },
        {
          "internalType": "address[]",
          "name": "_thenaSkimBribes",
          "type": "address[]"
        }
      ],
      "name": "setThenaSkimPools",
      "outputs": [],
      "stateMutability": "nonpayable",
      "type": "function"
    },
    {
      "inputs": [
        {
          "internalType": "address",
          "name": "_usdPlus",
          "type": "address"
        }
      ],
      "name": "setUsdPlus",
      "outputs": [],
      "stateMutability": "nonpayable",
      "type": "function"
    },
    {
      "inputs": [
        {
          "internalType": "bytes4",
          "name": "interfaceId",
          "type": "bytes4"
        }
      ],
      "name": "supportsInterface",
      "outputs": [
        {
          "internalType": "bool",
          "name": "",
          "type": "bool"
        }
      ],
      "stateMutability": "view",
      "type": "function"
    },
    {
      "inputs": [
        {
          "internalType": "uint256",
          "name": "",
          "type": "uint256"
        }
      ],
      "name": "thenaSkimBribes",
      "outputs": [
        {
          "internalType": "address",
          "name": "",
          "type": "address"
        }
      ],
      "stateMutability": "view",
      "type": "function"
    },
    {
      "inputs": [
        {
          "internalType": "uint256",
          "name": "",
          "type": "uint256"
        }
      ],
      "name": "thenaSkimPools",
      "outputs": [
        {
          "internalType": "address",
          "name": "",
          "type": "address"
        }
      ],
      "stateMutability": "view",
      "type": "function"
    },
    {
      "inputs": [
        {
          "internalType": "address",
          "name": "newImplementation",
          "type": "address"
        }
      ],
      "name": "upgradeTo",
      "outputs": [],
      "stateMutability": "nonpayable",
      "type": "function"
    },
    {
      "inputs": [
        {
          "internalType": "address",
          "name": "newImplementation",
          "type": "address"
        },
        {
          "internalType": "bytes",
          "name": "data",
          "type": "bytes"
        }
      ],
      "name": "upgradeToAndCall",
      "outputs": [],
      "stateMutability": "payable",
      "type": "function"
    },
    {
      "inputs": [],
      "name": "usdPlus",
      "outputs": [
        {
          "internalType": "contract IERC20",
          "name": "",
          "type": "address"
        }
      ],
      "stateMutability": "view",
      "type": "function"
    }
  ],
  "numDeployments": 2,
  "solcInputHash": "5779fa4f3edf9404046f3b21dc10b099",
  "bytecode": "0x60a06040523060601b6080523480156200001857600080fd5b50600054610100900460ff16158080156200003a5750600054600160ff909116105b806200006a575062000057306200014460201b6200121b1760201c565b1580156200006a575060005460ff166001145b620000d25760405162461bcd60e51b815260206004820152602e60248201527f496e697469616c697a61626c653a20636f6e747261637420697320616c72656160448201526d191e481a5b9a5d1a585b1a5e995960921b606482015260840160405180910390fd5b6000805460ff191660011790558015620000f6576000805461ff0019166101001790555b80156200013d576000805461ff0019169055604051600181527f7f26b83ff96e1f2b6a682f133852f6798a09c465da95921460cefb38474024989060200160405180910390a15b5062000153565b6001600160a01b03163b151590565b60805160601c6129406200018e6000396000818161072801528181610768015281816108e70152818161092701526109b601526129406000f3fe6080604052600436106101b75760003560e01c80638129fc1c116100ec578063caf48a8d1161008a578063da909b0911610064578063da909b09146104e0578063f0a640d214610500578063f14a743814610521578063f72c0d8b1461053657600080fd5b8063caf48a8d14610480578063d2f7265a146104a0578063d547741f146104c057600080fd5b8063a5a62ada116100c6578063a5a62ada146103fc578063a916d7ee1461041c578063b46e205e1461043c578063bd0f10531461045e57600080fd5b80638129fc1c146103b257806391d14854146103c7578063a217fddf146103e757600080fd5b80633659cfe6116101595780634f1ef286116101335780634f1ef28614610349578063514e460a1461035c57806352d1902d1461037d5780637ba25ddc1461039257600080fd5b80633659cfe6146102e95780633e8946b8146103095780634e3ced921461032957600080fd5b8063267bc1f111610195578063267bc1f1146102515780632f2ff15d1461028957806335d440e7146102a957806336568abe146102c957600080fd5b806301ffc9a7146101bc5780630abca3c2146101f1578063248a9ca314610213575b600080fd5b3480156101c857600080fd5b506101dc6101d736600461248b565b61056a565b60405190151581526020015b60405180910390f35b3480156101fd57600080fd5b5061021161020c36600461235d565b6105a1565b005b34801561021f57600080fd5b5061024361022e36600461242d565b60009081526065602052604090206001015490565b6040519081526020016101e8565b34801561025d57600080fd5b5061027161026c36600461242d565b610639565b6040516001600160a01b0390911681526020016101e8565b34801561029557600080fd5b506102116102a436600461245f565b610664565b3480156102b557600080fd5b506102716102c436600461242d565b61068e565b3480156102d557600080fd5b506102116102e436600461245f565b61069f565b3480156102f557600080fd5b50610211610304366004612280565b61071d565b34801561031557600080fd5b5061027161032436600461242d565b6107fd565b34801561033557600080fd5b50610211610344366004612280565b61080e565b61021161035736600461229b565b6108dc565b34801561036857600080fd5b5061013154610271906001600160a01b031681565b34801561038957600080fd5b506102436109a9565b34801561039e57600080fd5b506102116103ad36600461235d565b610a5c565b3480156103be57600080fd5b50610211610d7d565b3480156103d357600080fd5b506101dc6103e236600461245f565b610e40565b3480156103f357600080fd5b50610243600081565b34801561040857600080fd5b50610211610417366004612280565b610e6b565b34801561042857600080fd5b5061021161043736600461239f565b610f32565b34801561044857600080fd5b50610451611041565b6040516101e891906125db565b34801561046a57600080fd5b506102436000805160206128a483398151915281565b34801561048c57600080fd5b5061027161049b36600461242d565b6110a4565b3480156104ac57600080fd5b5060fb54610271906001600160a01b031681565b3480156104cc57600080fd5b506102116104db36600461245f565b6110b5565b3480156104ec57600080fd5b506102116104fb366004612280565b6110da565b34801561050c57600080fd5b5061013054610271906001600160a01b031681565b34801561052d57600080fd5b5061021161119d565b34801561054257600080fd5b506102437f189ab7a9244df0848122154315af71fe140f3db0fe014031783b0946b8c9d2e381565b60006001600160e01b03198216637965db0b60e01b148061059b57506301ffc9a760e01b6001600160e01b03198316145b92915050565b6105ac600033610e40565b6105d15760405162461bcd60e51b81526004016105c890612741565b60405180910390fd5b806105ee5760405162461bcd60e51b81526004016105c89061276f565b6105fb61012f83836121a0565b507f044e69b42c908cf0d614287e3d733c3efcd775ed8b65a1e43b5547866d3d4077828260405161062d92919061258d565b60405180910390a15050565b610133818154811061064a57600080fd5b6000918252602090912001546001600160a01b0316905081565b60008281526065602052604090206001015461067f8161122a565b6106898383611234565b505050565b61012e818154811061064a57600080fd5b6001600160a01b038116331461070f5760405162461bcd60e51b815260206004820152602f60248201527f416363657373436f6e74726f6c3a2063616e206f6e6c792072656e6f756e636560448201526e103937b632b9903337b91039b2b63360891b60648201526084016105c8565b61071982826112ba565b5050565b306001600160a01b037f00000000000000000000000000000000000000000000000000000000000000001614156107665760405162461bcd60e51b81526004016105c89061265b565b7f00000000000000000000000000000000000000000000000000000000000000006001600160a01b03166107af6000805160206128c4833981519152546001600160a01b031690565b6001600160a01b0316146107d55760405162461bcd60e51b81526004016105c8906126a7565b6107de81611321565b604080516000808252602082019092526107fa9183919061134b565b50565b61012f818154811061064a57600080fd5b610819600033610e40565b6108355760405162461bcd60e51b81526004016105c890612741565b6001600160a01b0381166108865760405162461bcd60e51b815260206004820152601860248201527716995c9bc81859191c995cdcc81b9bdd08185b1b1bddd95960421b60448201526064016105c8565b61013080546001600160a01b0319166001600160a01b0383169081179091556040519081527f6fd15fe5ef8b410d903c8c73bc387d4ba570234f591e2b06ca4eb99b78191390906020015b60405180910390a150565b306001600160a01b037f00000000000000000000000000000000000000000000000000000000000000001614156109255760405162461bcd60e51b81526004016105c89061265b565b7f00000000000000000000000000000000000000000000000000000000000000006001600160a01b031661096e6000805160206128c4833981519152546001600160a01b031690565b6001600160a01b0316146109945760405162461bcd60e51b81526004016105c8906126a7565b61099d82611321565b6107198282600161134b565b6000306001600160a01b037f00000000000000000000000000000000000000000000000000000000000000001614610a495760405162461bcd60e51b815260206004820152603860248201527f555550535570677261646561626c653a206d757374206e6f742062652063616c60448201527f6c6564207468726f7567682064656c656761746563616c6c000000000000000060648201526084016105c8565b506000805160206128c483398151915290565b610a67600033610e40565b610a835760405162461bcd60e51b81526004016105c890612741565b61012e546000908211610a965781610a9b565b61012e545b905060005b81811015610b8c57838382818110610aba57610aba612877565b9050602002016020810190610acf9190612280565b61012e8281548110610ae357610ae3612877565b9060005260206000200160006101000a8154816001600160a01b0302191690836001600160a01b031602179055507f280e552cb7178777086978375944377778a231ca8443954a471e8254f0b9226381858584818110610b4557610b45612877565b9050602002016020810190610b5a9190612280565b604080519283526001600160a01b0390911660208301520160405180910390a180610b8481612830565b915050610aa0565b5081811015610c7857805b82811015610c765761012e848483818110610bb457610bb4612877565b9050602002016020810190610bc99190612280565b81546001810183556000928352602090922090910180546001600160a01b0319166001600160a01b039092169190911790557f280e552cb7178777086978375944377778a231ca8443954a471e8254f0b9226381858582818110610c2f57610c2f612877565b9050602002016020810190610c449190612280565b604080519283526001600160a01b0390911660208301520160405180910390a180610c6e81612830565b915050610b97565b505b61012e548210156106895761012e54600090610c959084906127d6565b905060005b81811015610d765761012e805460009190610cb7906001906127d6565b81548110610cc757610cc7612877565b60009182526020909120015461012e80546001600160a01b0390921692509080610cf357610cf3612861565b600082815260209020810160001990810180546001600160a01b031916905501905561012e546040517f1b2ec7371f339d06464959739f6533377c1da2b520456e8e694c6885cd9c35b291610d5b9184909182526001600160a01b0316602082015260400190565b60405180910390a15080610d6e81612830565b915050610c9a565b5050505050565b600054610100900460ff1615808015610d9d5750600054600160ff909116105b80610db75750303b158015610db7575060005460ff166001145b610dd35760405162461bcd60e51b81526004016105c8906126f3565b6000805460ff191660011790558015610df6576000805461ff0019166101001790555b610dfe6114c5565b80156107fa576000805461ff0019169055604051600181527f7f26b83ff96e1f2b6a682f133852f6798a09c465da95921460cefb3847402498906020016108d1565b60009182526065602090815260408084206001600160a01b0393909316845291905290205460ff1690565b610e76600033610e40565b610e925760405162461bcd60e51b81526004016105c890612741565b6001600160a01b038116610ee35760405162461bcd60e51b815260206004820152601860248201527716995c9bc81859191c995cdcc81b9bdd08185b1b1bddd95960421b60448201526064016105c8565b61013180546001600160a01b0319166001600160a01b0383169081179091556040519081527fb2ca5818c0bc1f43830eb395e2aaff552ccc9ce0229dd3db6c9b07f47b7cc21f906020016108d1565b610f3d600033610e40565b610f595760405162461bcd60e51b81526004016105c890612741565b82610f765760405162461bcd60e51b81526004016105c89061276f565b80610f935760405162461bcd60e51b81526004016105c89061276f565b828114610fe25760405162461bcd60e51b815260206004820152601a60248201527f506f6f6c7320616e6420627269626573206e6f7420657175616c00000000000060448201526064016105c8565b610fef61013285856121a0565b50610ffd61013383836121a0565b507fe2e88c5c4364fa48365c34eb3c9f1aadb116f107ecfc43c78d1d0911f371f1478484848460405161103394939291906125a9565b60405180910390a150505050565b606061012e80548060200260200160405190810160405280929190818152602001828054801561109a57602002820191906000526020600020905b81546001600160a01b0316815260019091019060200180831161107c575b5050505050905090565b610132818154811061064a57600080fd5b6000828152606560205260409020600101546110d08161122a565b61068983836112ba565b6110e5600033610e40565b6111015760405162461bcd60e51b81526004016105c890612741565b60fb546001600160a01b0316156111375760fb54611137906000805160206128a4833981519152906001600160a01b03166110b5565b61114f6000805160206128a483398151915282610664565b60fb80546001600160a01b0319166001600160a01b0383169081179091556040519081527f1af34e943bb581f62718acd39caf1a640e9ff89789a197745e259d1f40cd9bd6906020016108d1565b6111b56000805160206128a483398151915233610e40565b6112015760405162461bcd60e51b815260206004820152601b60248201527f43616c6c6572206973206e6f74207468652045584348414e474552000000000060448201526064016105c8565b611209611583565b61121161161b565b6112196119db565b565b6001600160a01b03163b151590565b6107fa8133611cfa565b61123e8282610e40565b6107195760008281526065602090815260408083206001600160a01b03851684529091529020805460ff191660011790556112763390565b6001600160a01b0316816001600160a01b0316837f2f8788117e7eff1d82e926ec794901d17c78024a50270940304540a733656f0d60405160405180910390a45050565b6112c48282610e40565b156107195760008281526065602090815260408083206001600160a01b0385168085529252808320805460ff1916905551339285917ff6391f5c32d9c69d2a47ea670b442974b53935d1edc7fd64eb21e047a839171b9190a45050565b7f189ab7a9244df0848122154315af71fe140f3db0fe014031783b0946b8c9d2e36107198161122a565b7f4910fdfa16fed3260ed0e7147f7cc6da11a60208b5b9406d12a635614ffd91435460ff161561137e5761068983611d5e565b826001600160a01b03166352d1902d6040518163ffffffff1660e01b815260040160206040518083038186803b1580156113b757600080fd5b505afa9250505080156113e7575060408051601f3d908101601f191682019092526113e491810190612446565b60015b61144a5760405162461bcd60e51b815260206004820152602e60248201527f45524331393637557067726164653a206e657720696d706c656d656e7461746960448201526d6f6e206973206e6f74205555505360901b60648201526084016105c8565b6000805160206128c483398151915281146114b95760405162461bcd60e51b815260206004820152602960248201527f45524331393637557067726164653a20756e737570706f727465642070726f786044820152681a58589b195555525160ba1b60648201526084016105c8565b50610689838383611dfa565b600054610100900460ff16158080156114e55750600054600160ff909116105b806114ff5750303b1580156114ff575060005460ff166001145b61151b5760405162461bcd60e51b81526004016105c8906126f3565b6000805460ff19166001179055801561153e576000805461ff0019166101001790555b611546611e25565b61154e611e25565b611559600033611234565b610dfe7f189ab7a9244df0848122154315af71fe140f3db0fe014031783b0946b8c9d2e333611234565b60005b61012e548110156107fa5761012e81815481106115a5576115a5612877565b60009182526020822001546040805160016209351760e01b0319815290516001600160a01b039092169263fff6cae99260048084019382900301818387803b1580156115f057600080fd5b505af1158015611604573d6000803e3d6000fd5b50505050808061161390612830565b915050611586565b610131546040516370a0823160e01b81523060048201526000916001600160a01b0316906370a082319060240160206040518083038186803b15801561166057600080fd5b505afa158015611674573d6000803e3d6000fd5b505050506040513d601f19601f820116820180604052508101906116989190612446565b905060005b61012f5481101561188b57600061012f82815481106116be576116be612877565b6000918252602082200154610131546040516370a0823160e01b81523060048201526001600160a01b0392831694509116906370a082319060240160206040518083038186803b15801561171157600080fd5b505afa158015611725573d6000803e3d6000fd5b505050506040513d601f19601f820116820180604052508101906117499190612446565b60405163bc25cf7760e01b81523060048201529091506001600160a01b0383169063bc25cf7790602401600060405180830381600087803b15801561178d57600080fd5b505af11580156117a1573d6000803e3d6000fd5b5050610131546040516370a0823160e01b8152306004820152600093508492506001600160a01b03909116906370a082319060240160206040518083038186803b1580156117ee57600080fd5b505afa158015611802573d6000803e3d6000fd5b505050506040513d601f19601f820116820180604052508101906118269190612446565b61183091906127d6565b604080516001600160a01b0386168152602081018390529192507fe05e5f0ca71ed6c82b877a9eb0da2e6c20c71615aac52d01db0b148370686c8a910160405180910390a1505050808061188390612830565b91505061169d565b50610131546040516370a0823160e01b815230600482015260009183916001600160a01b03909116906370a082319060240160206040518083038186803b1580156118d557600080fd5b505afa1580156118e9573d6000803e3d6000fd5b505050506040513d601f19601f8201168201806040525081019061190d9190612446565b61191791906127d6565b905080156119ab57610131546101305460405163a9059cbb60e01b81526001600160a01b0391821660048201526024810184905291169063a9059cbb90604401602060405180830381600087803b15801561197157600080fd5b505af1158015611985573d6000803e3d6000fd5b505050506040513d601f19601f820116820180604052508101906119a9919061240b565b505b6040518181527f1a28a01ab782f909b1dfff940b3473cae50553a970240ae1f736afb6d618c7739060200161062d565b60005b610132548110156107fa57600061013282815481106119ff576119ff612877565b600091825260208220015461013380546001600160a01b0390921693509084908110611a2d57611a2d612877565b6000918252602082200154610131546040516370a0823160e01b81523060048201526001600160a01b0392831694509116906370a082319060240160206040518083038186803b158015611a8057600080fd5b505afa158015611a94573d6000803e3d6000fd5b505050506040513d601f19601f82011682018060405250810190611ab89190612446565b60405163bc25cf7760e01b81523060048201529091506001600160a01b0384169063bc25cf7790602401600060405180830381600087803b158015611afc57600080fd5b505af1158015611b10573d6000803e3d6000fd5b5050610131546040516370a0823160e01b8152306004820152600093508492506001600160a01b03909116906370a082319060240160206040518083038186803b158015611b5d57600080fd5b505afa158015611b71573d6000803e3d6000fd5b505050506040513d601f19601f82011682018060405250810190611b959190612446565b611b9f91906127d6565b90508015611ce3576101315460405163095ea7b360e01b81526001600160a01b038581166004830152602482018490529091169063095ea7b390604401602060405180830381600087803b158015611bf657600080fd5b505af1158015611c0a573d6000803e3d6000fd5b505050506040513d601f19601f82011682018060405250810190611c2e919061240b565b506101315460405163b66503cf60e01b81526001600160a01b039182166004820152602481018390529084169063b66503cf90604401600060405180830381600087803b158015611c7e57600080fd5b505af1158015611c92573d6000803e3d6000fd5b5050604080516001600160a01b038089168252871660208201529081018490527fe33e2034df91a3eb5abe7476829b0dc6b53970af1dc18bfce550a7526842788c9250606001905060405180910390a15b505050508080611cf290612830565b9150506119de565b611d048282610e40565b61071957611d1c816001600160a01b03166014611e90565b611d27836020611e90565b604051602001611d38929190612518565b60408051601f198184030181529082905262461bcd60e51b82526105c891600401612628565b6001600160a01b0381163b611dcb5760405162461bcd60e51b815260206004820152602d60248201527f455243313936373a206e657720696d706c656d656e746174696f6e206973206e60448201526c1bdd08184818dbdb9d1c9858dd609a1b60648201526084016105c8565b6000805160206128c483398151915280546001600160a01b0319166001600160a01b0392909216919091179055565b611e0383612033565b600082511180611e105750805b1561068957611e1f8383612073565b50505050565b600054610100900460ff166112195760405162461bcd60e51b815260206004820152602b60248201527f496e697469616c697a61626c653a20636f6e7472616374206973206e6f74206960448201526a6e697469616c697a696e6760a81b60648201526084016105c8565b60606000611e9f8360026127b7565b611eaa90600261279f565b67ffffffffffffffff811115611ec257611ec261288d565b6040519080825280601f01601f191660200182016040528015611eec576020820181803683370190505b509050600360fc1b81600081518110611f0757611f07612877565b60200101906001600160f81b031916908160001a905350600f60fb1b81600181518110611f3657611f36612877565b60200101906001600160f81b031916908160001a9053506000611f5a8460026127b7565b611f6590600161279f565b90505b6001811115611fdd576f181899199a1a9b1b9c1cb0b131b232b360811b85600f1660108110611f9957611f99612877565b1a60f81b828281518110611faf57611faf612877565b60200101906001600160f81b031916908160001a90535060049490941c93611fd681612819565b9050611f68565b50831561202c5760405162461bcd60e51b815260206004820181905260248201527f537472696e67733a20686578206c656e67746820696e73756666696369656e7460448201526064016105c8565b9392505050565b61203c81611d5e565b6040516001600160a01b038216907fbc7cd75a20ee27fd9adebab32041f755214dbc6bffa90cc0225b39da2e5c2d3b90600090a250565b60606001600160a01b0383163b6120db5760405162461bcd60e51b815260206004820152602660248201527f416464726573733a2064656c65676174652063616c6c20746f206e6f6e2d636f6044820152651b9d1c9858dd60d21b60648201526084016105c8565b600080846001600160a01b0316846040516120f691906124fc565b600060405180830381855af49150503d8060008114612131576040519150601f19603f3d011682016040523d82523d6000602084013e612136565b606091505b509150915061215e82826040518060600160405280602781526020016128e460279139612167565b95945050505050565b6060831561217657508161202c565b8251156121865782518084602001fd5b8160405162461bcd60e51b81526004016105c89190612628565b8280548282559060005260206000209081019282156121f3579160200282015b828111156121f35781546001600160a01b0319166001600160a01b038435161782556020909201916001909101906121c0565b506121ff929150612203565b5090565b5b808211156121ff5760008155600101612204565b80356001600160a01b038116811461222f57600080fd5b919050565b60008083601f84011261224657600080fd5b50813567ffffffffffffffff81111561225e57600080fd5b6020830191508360208260051b850101111561227957600080fd5b9250929050565b60006020828403121561229257600080fd5b61202c82612218565b600080604083850312156122ae57600080fd5b6122b783612218565b9150602083013567ffffffffffffffff808211156122d457600080fd5b818501915085601f8301126122e857600080fd5b8135818111156122fa576122fa61288d565b604051601f8201601f19908116603f011681019083821181831017156123225761232261288d565b8160405282815288602084870101111561233b57600080fd5b8260208601602083013760006020848301015280955050505050509250929050565b6000806020838503121561237057600080fd5b823567ffffffffffffffff81111561238757600080fd5b61239385828601612234565b90969095509350505050565b600080600080604085870312156123b557600080fd5b843567ffffffffffffffff808211156123cd57600080fd5b6123d988838901612234565b909650945060208701359150808211156123f257600080fd5b506123ff87828801612234565b95989497509550505050565b60006020828403121561241d57600080fd5b8151801515811461202c57600080fd5b60006020828403121561243f57600080fd5b5035919050565b60006020828403121561245857600080fd5b5051919050565b6000806040838503121561247257600080fd5b8235915061248260208401612218565b90509250929050565b60006020828403121561249d57600080fd5b81356001600160e01b03198116811461202c57600080fd5b8183526000602080850194508260005b858110156124f1576001600160a01b036124de83612218565b16875295820195908201906001016124c5565b509495945050505050565b6000825161250e8184602087016127ed565b9190910192915050565b7f416363657373436f6e74726f6c3a206163636f756e74200000000000000000008152600083516125508160178501602088016127ed565b7001034b99036b4b9b9b4b733903937b6329607d1b60179184019182015283516125818160288401602088016127ed565b01602801949350505050565b6020815260006125a16020830184866124b5565b949350505050565b6040815260006125bd6040830186886124b5565b82810360208401526125d08185876124b5565b979650505050505050565b6020808252825182820181905260009190848201906040850190845b8181101561261c5783516001600160a01b0316835292840192918401916001016125f7565b50909695505050505050565b60208152600082518060208401526126478160408501602087016127ed565b601f01601f19169190910160400192915050565b6020808252602c908201527f46756e6374696f6e206d7573742062652063616c6c6564207468726f7567682060408201526b19195b1959d85d1958d85b1b60a21b606082015260800190565b6020808252602c908201527f46756e6374696f6e206d7573742062652063616c6c6564207468726f7567682060408201526b6163746976652070726f787960a01b606082015260800190565b6020808252602e908201527f496e697469616c697a61626c653a20636f6e747261637420697320616c72656160408201526d191e481a5b9a5d1a585b1a5e995960921b606082015260800190565b6020808252601490820152735265737472696374656420746f2061646d696e7360601b604082015260600190565b60208082526016908201527516995c9bc81c1bdbdb1cc81b9bdd08185b1b1bddd95960521b604082015260600190565b600082198211156127b2576127b261284b565b500190565b60008160001904831182151516156127d1576127d161284b565b500290565b6000828210156127e8576127e861284b565b500390565b60005b838110156128085781810151838201526020016127f0565b83811115611e1f5750506000910152565b6000816128285761282861284b565b506000190190565b60006000198214156128445761284461284b565b5060010190565b634e487b7160e01b600052601160045260246000fd5b634e487b7160e01b600052603160045260246000fd5b634e487b7160e01b600052603260045260246000fd5b634e487b7160e01b600052604160045260246000fdfe3eb675f159e6ca6cf5de6bfbbc8c4521cfd428f5e9166e51094d5898504caf2d360894a13ba1a3210667c828492db98dca3e2076cc3735a920a3ca505d382bbc416464726573733a206c6f772d6c6576656c2064656c65676174652063616c6c206661696c6564a2646970667358221220d2eea4698adb8cfae4b32b63b53181ac54646112fc57d04d550dd7d00944f3de64736f6c63430008060033",
  "implementation": "0x0B136e381bA45540de1728071666515870a51331",
  "devdoc": {
    "kind": "dev",
    "methods": {
      "constructor": {
        "custom:oz-upgrades-unsafe-allow": "constructor"
      },
      "getRoleAdmin(bytes32)": {
        "details": "Returns the admin role that controls `role`. See {grantRole} and {revokeRole}. To change a role's admin, use {_setRoleAdmin}."
      },
      "grantRole(bytes32,address)": {
        "details": "Grants `role` to `account`. If `account` had not been already granted `role`, emits a {RoleGranted} event. Requirements: - the caller must have ``role``'s admin role. May emit a {RoleGranted} event."
      },
      "hasRole(bytes32,address)": {
        "details": "Returns `true` if `account` has been granted `role`."
      },
      "proxiableUUID()": {
        "details": "Implementation of the ERC1822 {proxiableUUID} function. This returns the storage slot used by the implementation. It is used to validate that the this implementation remains valid after an upgrade. IMPORTANT: A proxy pointing at a proxiable contract should not be considered proxiable itself, because this risks bricking a proxy that upgrades to it, by delegating to itself until out of gas. Thus it is critical that this function revert if invoked through a proxy. This is guaranteed by the `notDelegated` modifier."
      },
      "renounceRole(bytes32,address)": {
        "details": "Revokes `role` from the calling account. Roles are often managed via {grantRole} and {revokeRole}: this function's purpose is to provide a mechanism for accounts to lose their privileges if they are compromised (such as when a trusted device is misplaced). If the calling account had been revoked `role`, emits a {RoleRevoked} event. Requirements: - the caller must be `account`. May emit a {RoleRevoked} event."
      },
      "revokeRole(bytes32,address)": {
        "details": "Revokes `role` from `account`. If `account` had been granted `role`, emits a {RoleRevoked} event. Requirements: - the caller must have ``role``'s admin role. May emit a {RoleRevoked} event."
      },
      "supportsInterface(bytes4)": {
        "details": "See {IERC165-supportsInterface}."
      },
      "upgradeTo(address)": {
        "details": "Upgrade the implementation of the proxy to `newImplementation`. Calls {_authorizeUpgrade}. Emits an {Upgraded} event."
      },
      "upgradeToAndCall(address,bytes)": {
        "details": "Upgrade the implementation of the proxy to `newImplementation`, and subsequently execute the function call encoded in `data`. Calls {_authorizeUpgrade}. Emits an {Upgraded} event."
      }
    },
    "version": 1
  },
  "userdoc": {
    "kind": "user",
    "methods": {},
    "version": 1
  },
  "storageLayout": {
    "storage": [
      {
        "astId": 808,
        "contract": "contracts/payoutlisteners/BscPayoutListener.sol:BscPayoutListener",
        "label": "_initialized",
        "offset": 0,
        "slot": "0",
        "type": "t_uint8"
      },
      {
        "astId": 811,
        "contract": "contracts/payoutlisteners/BscPayoutListener.sol:BscPayoutListener",
        "label": "_initializing",
        "offset": 1,
        "slot": "0",
        "type": "t_bool"
      },
      {
        "astId": 2589,
        "contract": "contracts/payoutlisteners/BscPayoutListener.sol:BscPayoutListener",
        "label": "__gap",
        "offset": 0,
        "slot": "1",
        "type": "t_array(t_uint256)50_storage"
      },
      {
        "astId": 2919,
        "contract": "contracts/payoutlisteners/BscPayoutListener.sol:BscPayoutListener",
        "label": "__gap",
        "offset": 0,
        "slot": "51",
        "type": "t_array(t_uint256)50_storage"
      },
      {
        "astId": 39,
        "contract": "contracts/payoutlisteners/BscPayoutListener.sol:BscPayoutListener",
        "label": "_roles",
        "offset": 0,
        "slot": "101",
        "type": "t_mapping(t_bytes32,t_struct(RoleData)34_storage)"
      },
      {
        "astId": 338,
        "contract": "contracts/payoutlisteners/BscPayoutListener.sol:BscPayoutListener",
        "label": "__gap",
        "offset": 0,
        "slot": "102",
        "type": "t_array(t_uint256)49_storage"
      },
      {
        "astId": 790,
        "contract": "contracts/payoutlisteners/BscPayoutListener.sol:BscPayoutListener",
        "label": "__gap",
        "offset": 0,
        "slot": "151",
        "type": "t_array(t_uint256)50_storage"
      },
      {
        "astId": 1087,
        "contract": "contracts/payoutlisteners/BscPayoutListener.sol:BscPayoutListener",
        "label": "__gap",
        "offset": 0,
        "slot": "201",
        "type": "t_array(t_uint256)50_storage"
      },
      {
        "astId": 11794,
        "contract": "contracts/payoutlisteners/BscPayoutListener.sol:BscPayoutListener",
        "label": "exchange",
        "offset": 0,
        "slot": "251",
        "type": "t_address"
      },
      {
        "astId": 11896,
        "contract": "contracts/payoutlisteners/BscPayoutListener.sol:BscPayoutListener",
        "label": "__gap",
        "offset": 0,
        "slot": "252",
        "type": "t_array(t_uint256)50_storage"
      },
      {
        "astId": 17600,
        "contract": "contracts/payoutlisteners/BscPayoutListener.sol:BscPayoutListener",
        "label": "qsSyncPools",
        "offset": 0,
        "slot": "302",
        "type": "t_array(t_address)dyn_storage"
      },
      {
        "astId": 17603,
        "contract": "contracts/payoutlisteners/BscPayoutListener.sol:BscPayoutListener",
        "label": "pancakeSkimPools",
        "offset": 0,
        "slot": "303",
        "type": "t_array(t_address)dyn_storage"
      },
      {
        "astId": 17605,
        "contract": "contracts/payoutlisteners/BscPayoutListener.sol:BscPayoutListener",
        "label": "pancakeDepositWallet",
        "offset": 0,
        "slot": "304",
        "type": "t_address"
      },
      {
        "astId": 17608,
        "contract": "contracts/payoutlisteners/BscPayoutListener.sol:BscPayoutListener",
        "label": "usdPlus",
        "offset": 0,
        "slot": "305",
        "type": "t_contract(IERC20)3596"
      },
      {
        "astId": 17611,
        "contract": "contracts/payoutlisteners/BscPayoutListener.sol:BscPayoutListener",
        "label": "thenaSkimPools",
        "offset": 0,
        "slot": "306",
        "type": "t_array(t_address)dyn_storage"
      },
      {
        "astId": 17614,
        "contract": "contracts/payoutlisteners/BscPayoutListener.sol:BscPayoutListener",
        "label": "thenaSkimBribes",
        "offset": 0,
        "slot": "307",
        "type": "t_array(t_address)dyn_storage"
      }
    ],
    "types": {
      "t_address": {
        "encoding": "inplace",
        "label": "address",
        "numberOfBytes": "20"
      },
      "t_array(t_address)dyn_storage": {
        "base": "t_address",
        "encoding": "dynamic_array",
        "label": "address[]",
        "numberOfBytes": "32"
      },
      "t_array(t_uint256)49_storage": {
        "base": "t_uint256",
        "encoding": "inplace",
        "label": "uint256[49]",
        "numberOfBytes": "1568"
      },
      "t_array(t_uint256)50_storage": {
        "base": "t_uint256",
        "encoding": "inplace",
        "label": "uint256[50]",
        "numberOfBytes": "1600"
      },
      "t_bool": {
        "encoding": "inplace",
        "label": "bool",
        "numberOfBytes": "1"
      },
      "t_bytes32": {
        "encoding": "inplace",
        "label": "bytes32",
        "numberOfBytes": "32"
      },
      "t_contract(IERC20)3596": {
        "encoding": "inplace",
        "label": "contract IERC20",
        "numberOfBytes": "20"
      },
      "t_mapping(t_address,t_bool)": {
        "encoding": "mapping",
        "key": "t_address",
        "label": "mapping(address => bool)",
        "numberOfBytes": "32",
        "value": "t_bool"
      },
      "t_mapping(t_bytes32,t_struct(RoleData)34_storage)": {
        "encoding": "mapping",
        "key": "t_bytes32",
        "label": "mapping(bytes32 => struct AccessControlUpgradeable.RoleData)",
        "numberOfBytes": "32",
        "value": "t_struct(RoleData)34_storage"
      },
      "t_struct(RoleData)34_storage": {
        "encoding": "inplace",
        "label": "struct AccessControlUpgradeable.RoleData",
        "members": [
          {
            "astId": 31,
            "contract": "contracts/payoutlisteners/BscPayoutListener.sol:BscPayoutListener",
            "label": "members",
            "offset": 0,
            "slot": "0",
            "type": "t_mapping(t_address,t_bool)"
          },
          {
            "astId": 33,
            "contract": "contracts/payoutlisteners/BscPayoutListener.sol:BscPayoutListener",
            "label": "adminRole",
            "offset": 0,
            "slot": "1",
            "type": "t_bytes32"
          }
        ],
        "numberOfBytes": "64"
      },
      "t_uint256": {
        "encoding": "inplace",
        "label": "uint256",
        "numberOfBytes": "32"
      },
      "t_uint8": {
        "encoding": "inplace",
        "label": "uint8",
        "numberOfBytes": "1"
      }
    }
  }
}