{
  "address": "0xD9fCDFFEd5cA34Ef21661Ec6Fe3AEb742db6331e",
  "abi": [
    {
      "inputs": [],
      "stateMutability": "nonpayable",
      "type": "constructor"
    },
    {
      "anonymous": false,
      "inputs": [
        {
          "indexed": false,
          "internalType": "address",
          "name": "previousAdmin",
          "type": "address"
        },
        {
          "indexed": false,
          "internalType": "address",
          "name": "newAdmin",
          "type": "address"
        }
      ],
      "name": "AdminChanged",
      "type": "event"
    },
    {
      "anonymous": false,
      "inputs": [
        {
          "indexed": true,
          "internalType": "address",
          "name": "beacon",
          "type": "address"
        }
      ],
      "name": "BeaconUpgraded",
      "type": "event"
    },
    {
      "anonymous": false,
      "inputs": [
        {
          "indexed": false,
          "internalType": "address",
          "name": "exchanger",
          "type": "address"
        }
      ],
      "name": "ExchangerUpdated",
      "type": "event"
    },
    {
      "anonymous": false,
      "inputs": [
        {
          "indexed": false,
          "internalType": "uint8",
          "name": "version",
          "type": "uint8"
        }
      ],
      "name": "Initialized",
      "type": "event"
    },
    {
      "anonymous": false,
      "inputs": [
        {
          "indexed": false,
          "internalType": "address",
          "name": "wallet",
          "type": "address"
        }
      ],
      "name": "PancakeDepositWalletUpdated",
      "type": "event"
    },
    {
      "anonymous": false,
      "inputs": [
        {
          "indexed": false,
          "internalType": "address[]",
          "name": "pool",
          "type": "address[]"
        }
      ],
      "name": "PancakeSkimPoolsUpdated",
      "type": "event"
    },
    {
      "anonymous": false,
      "inputs": [
        {
          "indexed": false,
          "internalType": "uint256",
          "name": "index",
          "type": "uint256"
        },
        {
          "indexed": false,
          "internalType": "address",
          "name": "pool",
          "type": "address"
        }
      ],
      "name": "QsSyncPoolsRemoved",
      "type": "event"
    },
    {
      "anonymous": false,
      "inputs": [
        {
          "indexed": false,
          "internalType": "uint256",
          "name": "index",
          "type": "uint256"
        },
        {
          "indexed": false,
          "internalType": "address",
          "name": "pool",
          "type": "address"
        }
      ],
      "name": "QsSyncPoolsUpdated",
      "type": "event"
    },
    {
      "anonymous": false,
      "inputs": [
        {
          "indexed": false,
          "internalType": "uint256",
          "name": "amount",
          "type": "uint256"
        }
      ],
      "name": "RewardWalletSend",
      "type": "event"
    },
    {
      "anonymous": false,
      "inputs": [
        {
          "indexed": false,
          "internalType": "address",
          "name": "wallet",
          "type": "address"
        }
      ],
      "name": "RewardWalletUpdated",
      "type": "event"
    },
    {
      "anonymous": false,
      "inputs": [
        {
          "indexed": true,
          "internalType": "bytes32",
          "name": "role",
          "type": "bytes32"
        },
        {
          "indexed": true,
          "internalType": "bytes32",
          "name": "previousAdminRole",
          "type": "bytes32"
        },
        {
          "indexed": true,
          "internalType": "bytes32",
          "name": "newAdminRole",
          "type": "bytes32"
        }
      ],
      "name": "RoleAdminChanged",
      "type": "event"
    },
    {
      "anonymous": false,
      "inputs": [
        {
          "indexed": true,
          "internalType": "bytes32",
          "name": "role",
          "type": "bytes32"
        },
        {
          "indexed": true,
          "internalType": "address",
          "name": "account",
          "type": "address"
        },
        {
          "indexed": true,
          "internalType": "address",
          "name": "sender",
          "type": "address"
        }
      ],
      "name": "RoleGranted",
      "type": "event"
    },
    {
      "anonymous": false,
      "inputs": [
        {
          "indexed": true,
          "internalType": "bytes32",
          "name": "role",
          "type": "bytes32"
        },
        {
          "indexed": true,
          "internalType": "address",
          "name": "account",
          "type": "address"
        },
        {
          "indexed": true,
          "internalType": "address",
          "name": "sender",
          "type": "address"
        }
      ],
      "name": "RoleRevoked",
      "type": "event"
    },
    {
      "anonymous": false,
      "inputs": [
        {
          "indexed": false,
          "internalType": "address",
          "name": "pool",
          "type": "address"
        },
        {
          "indexed": false,
          "internalType": "uint256",
          "name": "amount",
          "type": "uint256"
        }
      ],
      "name": "SkimReward",
      "type": "event"
    },
    {
      "anonymous": false,
      "inputs": [
        {
          "indexed": false,
          "internalType": "address",
          "name": "pool",
          "type": "address"
        },
        {
          "indexed": false,
          "internalType": "address",
          "name": "bribe",
          "type": "address"
        },
        {
          "indexed": false,
          "internalType": "uint256",
          "name": "amount",
          "type": "uint256"
        }
      ],
      "name": "ThenaSkimReward",
      "type": "event"
    },
    {
      "anonymous": false,
      "inputs": [
        {
          "indexed": false,
          "internalType": "address[]",
          "name": "pools",
          "type": "address[]"
        },
        {
          "indexed": false,
          "internalType": "address[]",
          "name": "bribes",
          "type": "address[]"
        }
      ],
      "name": "ThenaSkimUpdated",
      "type": "event"
    },
    {
      "anonymous": false,
      "inputs": [
        {
          "indexed": false,
          "internalType": "uint256",
          "name": "amount",
          "type": "uint256"
        }
      ],
      "name": "TotalSkimReward",
      "type": "event"
    },
    {
      "anonymous": false,
      "inputs": [
        {
          "indexed": true,
          "internalType": "address",
          "name": "implementation",
          "type": "address"
        }
      ],
      "name": "Upgraded",
      "type": "event"
    },
    {
      "anonymous": false,
      "inputs": [
        {
          "indexed": false,
          "internalType": "address",
          "name": "usdPlus",
          "type": "address"
        }
      ],
      "name": "UsdPlusUpdated",
      "type": "event"
    },
    {
      "anonymous": false,
      "inputs": [
        {
          "indexed": false,
          "internalType": "address[]",
          "name": "pools",
          "type": "address[]"
        }
      ],
      "name": "WombatSkimUpdated",
      "type": "event"
    },
    {
      "inputs": [],
      "name": "DEFAULT_ADMIN_ROLE",
      "outputs": [
        {
          "internalType": "bytes32",
          "name": "",
          "type": "bytes32"
        }
      ],
      "stateMutability": "view",
      "type": "function"
    },
    {
      "inputs": [],
      "name": "EXCHANGER",
      "outputs": [
        {
          "internalType": "bytes32",
          "name": "",
          "type": "bytes32"
        }
      ],
      "stateMutability": "view",
      "type": "function"
    },
    {
      "inputs": [],
      "name": "exchange",
      "outputs": [
        {
          "internalType": "address",
          "name": "",
          "type": "address"
        }
      ],
      "stateMutability": "view",
      "type": "function"
    },
    {
      "inputs": [],
      "name": "getAllQsSyncPools",
      "outputs": [
        {
          "internalType": "address[]",
          "name": "",
          "type": "address[]"
        }
      ],
      "stateMutability": "view",
      "type": "function"
    },
    {
      "inputs": [
        {
          "internalType": "bytes32",
          "name": "role",
          "type": "bytes32"
        }
      ],
      "name": "getRoleAdmin",
      "outputs": [
        {
          "internalType": "bytes32",
          "name": "",
          "type": "bytes32"
        }
      ],
      "stateMutability": "view",
      "type": "function"
    },
    {
      "inputs": [
        {
          "internalType": "bytes32",
          "name": "role",
          "type": "bytes32"
        },
        {
          "internalType": "address",
          "name": "account",
          "type": "address"
        }
      ],
      "name": "grantRole",
      "outputs": [],
      "stateMutability": "nonpayable",
      "type": "function"
    },
    {
      "inputs": [
        {
          "internalType": "bytes32",
          "name": "role",
          "type": "bytes32"
        },
        {
          "internalType": "address",
          "name": "account",
          "type": "address"
        }
      ],
      "name": "hasRole",
      "outputs": [
        {
          "internalType": "bool",
          "name": "",
          "type": "bool"
        }
      ],
      "stateMutability": "view",
      "type": "function"
    },
    {
      "inputs": [],
      "name": "initialize",
      "outputs": [],
      "stateMutability": "nonpayable",
      "type": "function"
    },
    {
      "inputs": [],
      "name": "pancakeDepositWallet",
      "outputs": [
        {
          "internalType": "address",
          "name": "",
          "type": "address"
        }
      ],
      "stateMutability": "view",
      "type": "function"
    },
    {
      "inputs": [
        {
          "internalType": "uint256",
          "name": "",
          "type": "uint256"
        }
      ],
      "name": "pancakeSkimPools",
      "outputs": [
        {
          "internalType": "address",
          "name": "",
          "type": "address"
        }
      ],
      "stateMutability": "view",
      "type": "function"
    },
    {
      "inputs": [],
      "name": "payoutDone",
      "outputs": [],
      "stateMutability": "nonpayable",
      "type": "function"
    },
    {
      "inputs": [],
      "name": "proxiableUUID",
      "outputs": [
        {
          "internalType": "bytes32",
          "name": "",
          "type": "bytes32"
        }
      ],
      "stateMutability": "view",
      "type": "function"
    },
    {
      "inputs": [
        {
          "internalType": "uint256",
          "name": "",
          "type": "uint256"
        }
      ],
      "name": "qsSyncPools",
      "outputs": [
        {
          "internalType": "address",
          "name": "",
          "type": "address"
        }
      ],
      "stateMutability": "view",
      "type": "function"
    },
    {
      "inputs": [
        {
          "internalType": "bytes32",
          "name": "role",
          "type": "bytes32"
        },
        {
          "internalType": "address",
          "name": "account",
          "type": "address"
        }
      ],
      "name": "renounceRole",
      "outputs": [],
      "stateMutability": "nonpayable",
      "type": "function"
    },
    {
      "inputs": [
        {
          "internalType": "bytes32",
          "name": "role",
          "type": "bytes32"
        },
        {
          "internalType": "address",
          "name": "account",
          "type": "address"
        }
      ],
      "name": "revokeRole",
      "outputs": [],
      "stateMutability": "nonpayable",
      "type": "function"
    },
    {
      "inputs": [],
      "name": "rewardWallet",
      "outputs": [
        {
          "internalType": "address",
          "name": "",
          "type": "address"
        }
      ],
      "stateMutability": "view",
      "type": "function"
    },
    {
      "inputs": [
        {
          "internalType": "address",
          "name": "_exchanger",
          "type": "address"
        }
      ],
      "name": "setExchanger",
      "outputs": [],
      "stateMutability": "nonpayable",
      "type": "function"
    },
    {
      "inputs": [
        {
          "internalType": "address",
          "name": "_pancakeDepositWallet",
          "type": "address"
        }
      ],
      "name": "setPancakeDepositWallet",
      "outputs": [],
      "stateMutability": "nonpayable",
      "type": "function"
    },
    {
      "inputs": [
        {
          "internalType": "address[]",
          "name": "_pancakeSkimPools",
          "type": "address[]"
        }
      ],
      "name": "setPancakeSkimPools",
      "outputs": [],
      "stateMutability": "nonpayable",
      "type": "function"
    },
    {
      "inputs": [
        {
          "internalType": "address[]",
          "name": "_qsSyncPools",
          "type": "address[]"
        }
      ],
      "name": "setQsSyncPools",
      "outputs": [],
      "stateMutability": "nonpayable",
      "type": "function"
    },
    {
      "inputs": [
        {
          "internalType": "address",
          "name": "_wallet",
          "type": "address"
        }
      ],
      "name": "setRewardWallet",
      "outputs": [],
      "stateMutability": "nonpayable",
      "type": "function"
    },
    {
      "inputs": [
        {
          "internalType": "address[]",
          "name": "_thenaSkimPools",
          "type": "address[]"
        },
        {
          "internalType": "address[]",
          "name": "_thenaSkimBribes",
          "type": "address[]"
        }
      ],
      "name": "setThenaSkimPools",
      "outputs": [],
      "stateMutability": "nonpayable",
      "type": "function"
    },
    {
      "inputs": [
        {
          "internalType": "address",
          "name": "_usdPlus",
          "type": "address"
        }
      ],
      "name": "setUsdPlus",
      "outputs": [],
      "stateMutability": "nonpayable",
      "type": "function"
    },
    {
      "inputs": [
        {
          "internalType": "address[]",
          "name": "_wombatSkimPools",
          "type": "address[]"
        }
      ],
      "name": "setWombatSkimPools",
      "outputs": [],
      "stateMutability": "nonpayable",
      "type": "function"
    },
    {
      "inputs": [
        {
          "internalType": "bytes4",
          "name": "interfaceId",
          "type": "bytes4"
        }
      ],
      "name": "supportsInterface",
      "outputs": [
        {
          "internalType": "bool",
          "name": "",
          "type": "bool"
        }
      ],
      "stateMutability": "view",
      "type": "function"
    },
    {
      "inputs": [
        {
          "internalType": "uint256",
          "name": "",
          "type": "uint256"
        }
      ],
      "name": "thenaSkimBribes",
      "outputs": [
        {
          "internalType": "address",
          "name": "",
          "type": "address"
        }
      ],
      "stateMutability": "view",
      "type": "function"
    },
    {
      "inputs": [
        {
          "internalType": "uint256",
          "name": "",
          "type": "uint256"
        }
      ],
      "name": "thenaSkimPools",
      "outputs": [
        {
          "internalType": "address",
          "name": "",
          "type": "address"
        }
      ],
      "stateMutability": "view",
      "type": "function"
    },
    {
      "inputs": [
        {
          "internalType": "address",
          "name": "newImplementation",
          "type": "address"
        }
      ],
      "name": "upgradeTo",
      "outputs": [],
      "stateMutability": "nonpayable",
      "type": "function"
    },
    {
      "inputs": [
        {
          "internalType": "address",
          "name": "newImplementation",
          "type": "address"
        },
        {
          "internalType": "bytes",
          "name": "data",
          "type": "bytes"
        }
      ],
      "name": "upgradeToAndCall",
      "outputs": [],
      "stateMutability": "payable",
      "type": "function"
    },
    {
      "inputs": [],
      "name": "usdPlus",
      "outputs": [
        {
          "internalType": "contract IERC20",
          "name": "",
          "type": "address"
        }
      ],
      "stateMutability": "view",
      "type": "function"
    },
    {
      "inputs": [
        {
          "internalType": "uint256",
          "name": "",
          "type": "uint256"
        }
      ],
      "name": "wombatSkimPools",
      "outputs": [
        {
          "internalType": "address",
          "name": "",
          "type": "address"
        }
      ],
      "stateMutability": "view",
      "type": "function"
    }
  ],
  "numDeployments": 3,
  "solcInputHash": "f33d25e89cef07841ef4fd178d42501a",
  "bytecode": "0x60a06040523060601b6080523480156200001857600080fd5b50600054610100900460ff16158080156200003a5750600054600160ff909116105b806200006a575062000057306200014460201b620013561760201c565b1580156200006a575060005460ff166001145b620000d25760405162461bcd60e51b815260206004820152602e60248201527f496e697469616c697a61626c653a20636f6e747261637420697320616c72656160448201526d191e481a5b9a5d1a585b1a5e995960921b606482015260840160405180910390fd5b6000805460ff191660011790558015620000f6576000805461ff0019166101001790555b80156200013d576000805461ff0019169055604051600181527f7f26b83ff96e1f2b6a682f133852f6798a09c465da95921460cefb38474024989060200160405180910390a15b5062000153565b6001600160a01b03163b151590565b60805160601c612cc76200018e60003960008181610796015281816107d60152818161093b0152818161097b0152610a0a0152612cc76000f3fe6080604052600436106101d85760003560e01c80637ba25ddc11610102578063caf48a8d11610095578063da909b0911610064578063da909b0914610561578063f0a640d214610581578063f14a7438146105a2578063fb75b2c7146105b757600080fd5b8063caf48a8d146104e1578063cf0a4df714610501578063d2f7265a14610521578063d547741f1461054157600080fd5b8063a5a62ada116100d1578063a5a62ada1461045d578063a916d7ee1461047d578063b46e205e1461049d578063bd0f1053146104bf57600080fd5b80637ba25ddc146103f35780638129fc1c1461041357806391d1485414610428578063a217fddf1461044857600080fd5b80633659cfe61161017a5780634f1ef286116101495780634f1ef2861461038a578063514e460a1461039d57806352d1902d146103be5780635958621e146103d357600080fd5b80633659cfe61461030a5780633e8946b81461032a5780634ac85cfb1461034a5780634e3ced921461036a57600080fd5b8063267bc1f1116101b6578063267bc1f1146102725780632f2ff15d146102aa57806335d440e7146102ca57806336568abe146102ea57600080fd5b806301ffc9a7146101dd5780630abca3c214610212578063248a9ca314610234575b600080fd5b3480156101e957600080fd5b506101fd6101f83660046127db565b6105d8565b60405190151581526020015b60405180910390f35b34801561021e57600080fd5b5061023261022d3660046126ad565b61060f565b005b34801561024057600080fd5b5061026461024f36600461277d565b60009081526065602052604090206001015490565b604051908152602001610209565b34801561027e57600080fd5b5061029261028d36600461277d565b6106a7565b6040516001600160a01b039091168152602001610209565b3480156102b657600080fd5b506102326102c53660046127af565b6106d2565b3480156102d657600080fd5b506102926102e536600461277d565b6106fc565b3480156102f657600080fd5b506102326103053660046127af565b61070d565b34801561031657600080fd5b506102326103253660046125d0565b61078b565b34801561033657600080fd5b5061029261034536600461277d565b61086b565b34801561035657600080fd5b5061029261036536600461277d565b61087c565b34801561037657600080fd5b506102326103853660046125d0565b61088d565b6102326103983660046125eb565b610930565b3480156103a957600080fd5b5061013154610292906001600160a01b031681565b3480156103ca57600080fd5b506102646109fd565b3480156103df57600080fd5b506102326103ee3660046125d0565b610ab0565b3480156103ff57600080fd5b5061023261040e3660046126ad565b610b4c565b34801561041f57600080fd5b50610232610e6d565b34801561043457600080fd5b506101fd6104433660046127af565b610f30565b34801561045457600080fd5b50610264600081565b34801561046957600080fd5b506102326104783660046125d0565b610f5b565b34801561048957600080fd5b506102326104983660046126ef565b610ff7565b3480156104a957600080fd5b506104b2611106565b604051610209919061292b565b3480156104cb57600080fd5b50610264600080516020612c2b83398151915281565b3480156104ed57600080fd5b506102926104fc36600461277d565b611169565b34801561050d57600080fd5b5061023261051c3660046126ad565b61117a565b34801561052d57600080fd5b5060fb54610292906001600160a01b031681565b34801561054d57600080fd5b5061023261055c3660046127af565b6111e0565b34801561056d57600080fd5b5061023261057c3660046125d0565b611205565b34801561058d57600080fd5b5061013054610292906001600160a01b031681565b3480156105ae57600080fd5b506102326112c8565b3480156105c357600080fd5b5061013554610292906001600160a01b031681565b60006001600160e01b03198216637965db0b60e01b148061060957506301ffc9a760e01b6001600160e01b03198316145b92915050565b61061a600033610f30565b61063f5760405162461bcd60e51b815260040161063690612a91565b60405180910390fd5b8061065c5760405162461bcd60e51b815260040161063690612abf565b61066961012f83836124f0565b507f044e69b42c908cf0d614287e3d733c3efcd775ed8b65a1e43b5547866d3d4077828260405161069b9291906128dd565b60405180910390a15050565b61013381815481106106b857600080fd5b6000918252602090912001546001600160a01b0316905081565b6000828152606560205260409020600101546106ed81611365565b6106f7838361136f565b505050565b61012e81815481106106b857600080fd5b6001600160a01b038116331461077d5760405162461bcd60e51b815260206004820152602f60248201527f416363657373436f6e74726f6c3a2063616e206f6e6c792072656e6f756e636560448201526e103937b632b9903337b91039b2b63360891b6064820152608401610636565b61078782826113f5565b5050565b306001600160a01b037f00000000000000000000000000000000000000000000000000000000000000001614156107d45760405162461bcd60e51b8152600401610636906129ab565b7f00000000000000000000000000000000000000000000000000000000000000006001600160a01b031661081d600080516020612c4b833981519152546001600160a01b031690565b6001600160a01b0316146108435760405162461bcd60e51b8152600401610636906129f7565b61084c8161145c565b6040805160008082526020820190925261086891839190611467565b50565b61012f81815481106106b857600080fd5b61013481815481106106b857600080fd5b610898600033610f30565b6108b45760405162461bcd60e51b815260040161063690612a91565b6001600160a01b0381166108da5760405162461bcd60e51b815260040161063690612aef565b61013080546001600160a01b0319166001600160a01b0383169081179091556040519081527f6fd15fe5ef8b410d903c8c73bc387d4ba570234f591e2b06ca4eb99b78191390906020015b60405180910390a150565b306001600160a01b037f00000000000000000000000000000000000000000000000000000000000000001614156109795760405162461bcd60e51b8152600401610636906129ab565b7f00000000000000000000000000000000000000000000000000000000000000006001600160a01b03166109c2600080516020612c4b833981519152546001600160a01b031690565b6001600160a01b0316146109e85760405162461bcd60e51b8152600401610636906129f7565b6109f18261145c565b61078782826001611467565b6000306001600160a01b037f00000000000000000000000000000000000000000000000000000000000000001614610a9d5760405162461bcd60e51b815260206004820152603860248201527f555550535570677261646561626c653a206d757374206e6f742062652063616c60448201527f6c6564207468726f7567682064656c656761746563616c6c00000000000000006064820152608401610636565b50600080516020612c4b83398151915290565b610abb600033610f30565b610ad75760405162461bcd60e51b815260040161063690612a91565b6001600160a01b038116610afd5760405162461bcd60e51b815260040161063690612aef565b61013580546001600160a01b0319166001600160a01b0383169081179091556040519081527ff49ff3ce1d97db94f282d2e6c2759db33d65636b2f07ad4ae7c8e6f97aa7561590602001610925565b610b57600033610f30565b610b735760405162461bcd60e51b815260040161063690612a91565b61012e546000908211610b865781610b8b565b61012e545b905060005b81811015610c7c57838382818110610baa57610baa612bfe565b9050602002016020810190610bbf91906125d0565b61012e8281548110610bd357610bd3612bfe565b9060005260206000200160006101000a8154816001600160a01b0302191690836001600160a01b031602179055507f280e552cb7178777086978375944377778a231ca8443954a471e8254f0b9226381858584818110610c3557610c35612bfe565b9050602002016020810190610c4a91906125d0565b604080519283526001600160a01b0390911660208301520160405180910390a180610c7481612bb7565b915050610b90565b5081811015610d6857805b82811015610d665761012e848483818110610ca457610ca4612bfe565b9050602002016020810190610cb991906125d0565b81546001810183556000928352602090922090910180546001600160a01b0319166001600160a01b039092169190911790557f280e552cb7178777086978375944377778a231ca8443954a471e8254f0b9226381858582818110610d1f57610d1f612bfe565b9050602002016020810190610d3491906125d0565b604080519283526001600160a01b0390911660208301520160405180910390a180610d5e81612bb7565b915050610c87565b505b61012e548210156106f75761012e54600090610d85908490612b5d565b905060005b81811015610e665761012e805460009190610da790600190612b5d565b81548110610db757610db7612bfe565b60009182526020909120015461012e80546001600160a01b0390921692509080610de357610de3612be8565b600082815260209020810160001990810180546001600160a01b031916905501905561012e546040517f1b2ec7371f339d06464959739f6533377c1da2b520456e8e694c6885cd9c35b291610e4b9184909182526001600160a01b0316602082015260400190565b60405180910390a15080610e5e81612bb7565b915050610d8a565b5050505050565b600054610100900460ff1615808015610e8d5750600054600160ff909116105b80610ea75750303b158015610ea7575060005460ff166001145b610ec35760405162461bcd60e51b815260040161063690612a43565b6000805460ff191660011790558015610ee6576000805461ff0019166101001790555b610eee6115e1565b8015610868576000805461ff0019169055604051600181527f7f26b83ff96e1f2b6a682f133852f6798a09c465da95921460cefb384740249890602001610925565b60009182526065602090815260408084206001600160a01b0393909316845291905290205460ff1690565b610f66600033610f30565b610f825760405162461bcd60e51b815260040161063690612a91565b6001600160a01b038116610fa85760405162461bcd60e51b815260040161063690612aef565b61013180546001600160a01b0319166001600160a01b0383169081179091556040519081527fb2ca5818c0bc1f43830eb395e2aaff552ccc9ce0229dd3db6c9b07f47b7cc21f90602001610925565b611002600033610f30565b61101e5760405162461bcd60e51b815260040161063690612a91565b8261103b5760405162461bcd60e51b815260040161063690612abf565b806110585760405162461bcd60e51b815260040161063690612abf565b8281146110a75760405162461bcd60e51b815260206004820152601a60248201527f506f6f6c7320616e6420627269626573206e6f7420657175616c0000000000006044820152606401610636565b6110b461013285856124f0565b506110c261013383836124f0565b507fe2e88c5c4364fa48365c34eb3c9f1aadb116f107ecfc43c78d1d0911f371f147848484846040516110f894939291906128f9565b60405180910390a150505050565b606061012e80548060200260200160405190810160405280929190818152602001828054801561115f57602002820191906000526020600020905b81546001600160a01b03168152600190910190602001808311611141575b5050505050905090565b61013281815481106106b857600080fd5b611185600033610f30565b6111a15760405162461bcd60e51b815260040161063690612a91565b6111ae61013483836124f0565b507f245bb4947632ee9edf48255442e54eb84e36b2a16d508049c2ece46044600f89828260405161069b9291906128dd565b6000828152606560205260409020600101546111fb81611365565b6106f783836113f5565b611210600033610f30565b61122c5760405162461bcd60e51b815260040161063690612a91565b60fb546001600160a01b0316156112625760fb5461126290600080516020612c2b833981519152906001600160a01b03166111e0565b61127a600080516020612c2b833981519152826106d2565b60fb80546001600160a01b0319166001600160a01b0383169081179091556040519081527f1af34e943bb581f62718acd39caf1a640e9ff89789a197745e259d1f40cd9bd690602001610925565b6112e0600080516020612c2b83398151915233610f30565b61132c5760405162461bcd60e51b815260206004820152601b60248201527f43616c6c6572206973206e6f74207468652045584348414e47455200000000006044820152606401610636565b611334611675565b61133c61170d565b611344611acd565b61134c611dec565b611354611eae565b565b6001600160a01b03163b151590565b610868813361203e565b6113798282610f30565b6107875760008281526065602090815260408083206001600160a01b03851684529091529020805460ff191660011790556113b13390565b6001600160a01b0316816001600160a01b0316837f2f8788117e7eff1d82e926ec794901d17c78024a50270940304540a733656f0d60405160405180910390a45050565b6113ff8282610f30565b156107875760008281526065602090815260408083206001600160a01b0385168085529252808320805460ff1916905551339285917ff6391f5c32d9c69d2a47ea670b442974b53935d1edc7fd64eb21e047a839171b9190a45050565b600061078781611365565b7f4910fdfa16fed3260ed0e7147f7cc6da11a60208b5b9406d12a635614ffd91435460ff161561149a576106f783612097565b826001600160a01b03166352d1902d6040518163ffffffff1660e01b815260040160206040518083038186803b1580156114d357600080fd5b505afa925050508015611503575060408051601f3d908101601f1916820190925261150091810190612796565b60015b6115665760405162461bcd60e51b815260206004820152602e60248201527f45524331393637557067726164653a206e657720696d706c656d656e7461746960448201526d6f6e206973206e6f74205555505360901b6064820152608401610636565b600080516020612c4b83398151915281146115d55760405162461bcd60e51b815260206004820152602960248201527f45524331393637557067726164653a20756e737570706f727465642070726f786044820152681a58589b195555525160ba1b6064820152608401610636565b506106f7838383612133565b600054610100900460ff16158080156116015750600054600160ff909116105b8061161b5750303b15801561161b575060005460ff166001145b6116375760405162461bcd60e51b815260040161063690612a43565b6000805460ff19166001179055801561165a576000805461ff0019166101001790555b61166261215e565b61166a61215e565b610eee60003361136f565b60005b61012e548110156108685761012e818154811061169757611697612bfe565b60009182526020822001546040805160016209351760e01b0319815290516001600160a01b039092169263fff6cae99260048084019382900301818387803b1580156116e257600080fd5b505af11580156116f6573d6000803e3d6000fd5b50505050808061170590612bb7565b915050611678565b610131546040516370a0823160e01b81523060048201526000916001600160a01b0316906370a082319060240160206040518083038186803b15801561175257600080fd5b505afa158015611766573d6000803e3d6000fd5b505050506040513d601f19601f8201168201806040525081019061178a9190612796565b905060005b61012f5481101561197d57600061012f82815481106117b0576117b0612bfe565b6000918252602082200154610131546040516370a0823160e01b81523060048201526001600160a01b0392831694509116906370a082319060240160206040518083038186803b15801561180357600080fd5b505afa158015611817573d6000803e3d6000fd5b505050506040513d601f19601f8201168201806040525081019061183b9190612796565b60405163bc25cf7760e01b81523060048201529091506001600160a01b0383169063bc25cf7790602401600060405180830381600087803b15801561187f57600080fd5b505af1158015611893573d6000803e3d6000fd5b5050610131546040516370a0823160e01b8152306004820152600093508492506001600160a01b03909116906370a082319060240160206040518083038186803b1580156118e057600080fd5b505afa1580156118f4573d6000803e3d6000fd5b505050506040513d601f19601f820116820180604052508101906119189190612796565b6119229190612b5d565b604080516001600160a01b0386168152602081018390529192507fe05e5f0ca71ed6c82b877a9eb0da2e6c20c71615aac52d01db0b148370686c8a910160405180910390a1505050808061197590612bb7565b91505061178f565b50610131546040516370a0823160e01b815230600482015260009183916001600160a01b03909116906370a082319060240160206040518083038186803b1580156119c757600080fd5b505afa1580156119db573d6000803e3d6000fd5b505050506040513d601f19601f820116820180604052508101906119ff9190612796565b611a099190612b5d565b90508015611a9d57610131546101305460405163a9059cbb60e01b81526001600160a01b0391821660048201526024810184905291169063a9059cbb90604401602060405180830381600087803b158015611a6357600080fd5b505af1158015611a77573d6000803e3d6000fd5b505050506040513d601f19601f82011682018060405250810190611a9b919061275b565b505b6040518181527f1a28a01ab782f909b1dfff940b3473cae50553a970240ae1f736afb6d618c7739060200161069b565b60005b610132548110156108685760006101328281548110611af157611af1612bfe565b600091825260208220015461013380546001600160a01b0390921693509084908110611b1f57611b1f612bfe565b6000918252602082200154610131546040516370a0823160e01b81523060048201526001600160a01b0392831694509116906370a082319060240160206040518083038186803b158015611b7257600080fd5b505afa158015611b86573d6000803e3d6000fd5b505050506040513d601f19601f82011682018060405250810190611baa9190612796565b60405163bc25cf7760e01b81523060048201529091506001600160a01b0384169063bc25cf7790602401600060405180830381600087803b158015611bee57600080fd5b505af1158015611c02573d6000803e3d6000fd5b5050610131546040516370a0823160e01b8152306004820152600093508492506001600160a01b03909116906370a082319060240160206040518083038186803b158015611c4f57600080fd5b505afa158015611c63573d6000803e3d6000fd5b505050506040513d601f19601f82011682018060405250810190611c879190612796565b611c919190612b5d565b90508015611dd5576101315460405163095ea7b360e01b81526001600160a01b038581166004830152602482018490529091169063095ea7b390604401602060405180830381600087803b158015611ce857600080fd5b505af1158015611cfc573d6000803e3d6000fd5b505050506040513d601f19601f82011682018060405250810190611d20919061275b565b506101315460405163b66503cf60e01b81526001600160a01b039182166004820152602481018390529084169063b66503cf90604401600060405180830381600087803b158015611d7057600080fd5b505af1158015611d84573d6000803e3d6000fd5b5050604080516001600160a01b038089168252871660208201529081018490527fe33e2034df91a3eb5abe7476829b0dc6b53970af1dc18bfce550a7526842788c9250606001905060405180910390a15b505050508080611de490612bb7565b915050611ad0565b60005b610134548110156108685760006101348281548110611e1057611e10612bfe565b60009182526020909120015460405163bc25cf7760e01b81523060048201526001600160a01b039091169150819063bc25cf7790602401602060405180830381600087803b158015611e6157600080fd5b505af1158015611e75573d6000803e3d6000fd5b505050506040513d601f19601f82011682018060405250810190611e999190612796565b50508080611ea690612bb7565b915050611def565b610135546001600160a01b0316611efe5760405162461bcd60e51b815260206004820152601460248201527372657761726457616c6c6574206973207a65726f60601b6044820152606401610636565b610131546040516370a0823160e01b81523060048201526000916001600160a01b0316906370a082319060240160206040518083038186803b158015611f4357600080fd5b505afa158015611f57573d6000803e3d6000fd5b505050506040513d601f19601f82011682018060405250810190611f7b9190612796565b9050801561086857610131546101355460405163a9059cbb60e01b81526001600160a01b0391821660048201526024810184905291169063a9059cbb90604401602060405180830381600087803b158015611fd557600080fd5b505af1158015611fe9573d6000803e3d6000fd5b505050506040513d601f19601f8201168201806040525081019061200d919061275b565b506040518181527fdb0d81fec7a40000a51d37c26985aff0ce2f195f7121bcdac5b984be32e948b390602001610925565b6120488282610f30565b61078757612055816121c9565b6120608360206121db565b604051602001612071929190612868565b60408051601f198184030181529082905262461bcd60e51b825261063691600401612978565b6001600160a01b0381163b6121045760405162461bcd60e51b815260206004820152602d60248201527f455243313936373a206e657720696d706c656d656e746174696f6e206973206e60448201526c1bdd08184818dbdb9d1c9858dd609a1b6064820152608401610636565b600080516020612c4b83398151915280546001600160a01b0319166001600160a01b0392909216919091179055565b61213c8361237e565b6000825111806121495750805b156106f75761215883836123be565b50505050565b600054610100900460ff166113545760405162461bcd60e51b815260206004820152602b60248201527f496e697469616c697a61626c653a20636f6e7472616374206973206e6f74206960448201526a6e697469616c697a696e6760a81b6064820152608401610636565b60606106096001600160a01b03831660145b606060006121ea836002612b3e565b6121f5906002612b26565b67ffffffffffffffff81111561220d5761220d612c14565b6040519080825280601f01601f191660200182016040528015612237576020820181803683370190505b509050600360fc1b8160008151811061225257612252612bfe565b60200101906001600160f81b031916908160001a905350600f60fb1b8160018151811061228157612281612bfe565b60200101906001600160f81b031916908160001a90535060006122a5846002612b3e565b6122b0906001612b26565b90505b6001811115612328576f181899199a1a9b1b9c1cb0b131b232b360811b85600f16601081106122e4576122e4612bfe565b1a60f81b8282815181106122fa576122fa612bfe565b60200101906001600160f81b031916908160001a90535060049490941c9361232181612ba0565b90506122b3565b5083156123775760405162461bcd60e51b815260206004820181905260248201527f537472696e67733a20686578206c656e67746820696e73756666696369656e746044820152606401610636565b9392505050565b61238781612097565b6040516001600160a01b038216907fbc7cd75a20ee27fd9adebab32041f755214dbc6bffa90cc0225b39da2e5c2d3b90600090a250565b60606001600160a01b0383163b6124265760405162461bcd60e51b815260206004820152602660248201527f416464726573733a2064656c65676174652063616c6c20746f206e6f6e2d636f6044820152651b9d1c9858dd60d21b6064820152608401610636565b600080846001600160a01b031684604051612441919061284c565b600060405180830381855af49150503d806000811461247c576040519150601f19603f3d011682016040523d82523d6000602084013e612481565b606091505b50915091506124a98282604051806060016040528060278152602001612c6b602791396124b2565b95945050505050565b606083156124c1575081612377565b61237783838151156124d65781518083602001fd5b8060405162461bcd60e51b81526004016106369190612978565b828054828255906000526020600020908101928215612543579160200282015b828111156125435781546001600160a01b0319166001600160a01b03843516178255602090920191600190910190612510565b5061254f929150612553565b5090565b5b8082111561254f5760008155600101612554565b80356001600160a01b038116811461257f57600080fd5b919050565b60008083601f84011261259657600080fd5b50813567ffffffffffffffff8111156125ae57600080fd5b6020830191508360208260051b85010111156125c957600080fd5b9250929050565b6000602082840312156125e257600080fd5b61237782612568565b600080604083850312156125fe57600080fd5b61260783612568565b9150602083013567ffffffffffffffff8082111561262457600080fd5b818501915085601f83011261263857600080fd5b81358181111561264a5761264a612c14565b604051601f8201601f19908116603f0116810190838211818310171561267257612672612c14565b8160405282815288602084870101111561268b57600080fd5b8260208601602083013760006020848301015280955050505050509250929050565b600080602083850312156126c057600080fd5b823567ffffffffffffffff8111156126d757600080fd5b6126e385828601612584565b90969095509350505050565b6000806000806040858703121561270557600080fd5b843567ffffffffffffffff8082111561271d57600080fd5b61272988838901612584565b9096509450602087013591508082111561274257600080fd5b5061274f87828801612584565b95989497509550505050565b60006020828403121561276d57600080fd5b8151801515811461237757600080fd5b60006020828403121561278f57600080fd5b5035919050565b6000602082840312156127a857600080fd5b5051919050565b600080604083850312156127c257600080fd5b823591506127d260208401612568565b90509250929050565b6000602082840312156127ed57600080fd5b81356001600160e01b03198116811461237757600080fd5b8183526000602080850194508260005b85811015612841576001600160a01b0361282e83612568565b1687529582019590820190600101612815565b509495945050505050565b6000825161285e818460208701612b74565b9190910192915050565b7f416363657373436f6e74726f6c3a206163636f756e74200000000000000000008152600083516128a0816017850160208801612b74565b7001034b99036b4b9b9b4b733903937b6329607d1b60179184019182015283516128d1816028840160208801612b74565b01602801949350505050565b6020815260006128f1602083018486612805565b949350505050565b60408152600061290d604083018688612805565b8281036020840152612920818587612805565b979650505050505050565b6020808252825182820181905260009190848201906040850190845b8181101561296c5783516001600160a01b031683529284019291840191600101612947565b50909695505050505050565b6020815260008251806020840152612997816040850160208701612b74565b601f01601f19169190910160400192915050565b6020808252602c908201527f46756e6374696f6e206d7573742062652063616c6c6564207468726f7567682060408201526b19195b1959d85d1958d85b1b60a21b606082015260800190565b6020808252602c908201527f46756e6374696f6e206d7573742062652063616c6c6564207468726f7567682060408201526b6163746976652070726f787960a01b606082015260800190565b6020808252602e908201527f496e697469616c697a61626c653a20636f6e747261637420697320616c72656160408201526d191e481a5b9a5d1a585b1a5e995960921b606082015260800190565b6020808252601490820152735265737472696374656420746f2061646d696e7360601b604082015260600190565b60208082526016908201527516995c9bc81c1bdbdb1cc81b9bdd08185b1b1bddd95960521b604082015260600190565b60208082526018908201527f5a65726f2061646472657373206e6f7420616c6c6f7765640000000000000000604082015260600190565b60008219821115612b3957612b39612bd2565b500190565b6000816000190483118215151615612b5857612b58612bd2565b500290565b600082821015612b6f57612b6f612bd2565b500390565b60005b83811015612b8f578181015183820152602001612b77565b838111156121585750506000910152565b600081612baf57612baf612bd2565b506000190190565b6000600019821415612bcb57612bcb612bd2565b5060010190565b634e487b7160e01b600052601160045260246000fd5b634e487b7160e01b600052603160045260246000fd5b634e487b7160e01b600052603260045260246000fd5b634e487b7160e01b600052604160045260246000fdfe3eb675f159e6ca6cf5de6bfbbc8c4521cfd428f5e9166e51094d5898504caf2d360894a13ba1a3210667c828492db98dca3e2076cc3735a920a3ca505d382bbc416464726573733a206c6f772d6c6576656c2064656c65676174652063616c6c206661696c6564a2646970667358221220ad23cc590c91bb48e3f7163835908ae053cc03d6c2fabca2b42195a4790062d164736f6c63430008060033",
  "implementation": "0xd95ca61CE9aAF2143E81Ef5462C0c2325172E028",
  "devdoc": {
    "kind": "dev",
    "methods": {
      "constructor": {
        "custom:oz-upgrades-unsafe-allow": "constructor"
      },
      "getRoleAdmin(bytes32)": {
        "details": "Returns the admin role that controls `role`. See {grantRole} and {revokeRole}. To change a role's admin, use {_setRoleAdmin}."
      },
      "grantRole(bytes32,address)": {
        "details": "Grants `role` to `account`. If `account` had not been already granted `role`, emits a {RoleGranted} event. Requirements: - the caller must have ``role``'s admin role. May emit a {RoleGranted} event."
      },
      "hasRole(bytes32,address)": {
        "details": "Returns `true` if `account` has been granted `role`."
      },
      "proxiableUUID()": {
        "details": "Implementation of the ERC1822 {proxiableUUID} function. This returns the storage slot used by the implementation. It is used to validate the implementation's compatibility when performing an upgrade. IMPORTANT: A proxy pointing at a proxiable contract should not be considered proxiable itself, because this risks bricking a proxy that upgrades to it, by delegating to itself until out of gas. Thus it is critical that this function revert if invoked through a proxy. This is guaranteed by the `notDelegated` modifier."
      },
      "renounceRole(bytes32,address)": {
        "details": "Revokes `role` from the calling account. Roles are often managed via {grantRole} and {revokeRole}: this function's purpose is to provide a mechanism for accounts to lose their privileges if they are compromised (such as when a trusted device is misplaced). If the calling account had been revoked `role`, emits a {RoleRevoked} event. Requirements: - the caller must be `account`. May emit a {RoleRevoked} event."
      },
      "revokeRole(bytes32,address)": {
        "details": "Revokes `role` from `account`. If `account` had been granted `role`, emits a {RoleRevoked} event. Requirements: - the caller must have ``role``'s admin role. May emit a {RoleRevoked} event."
      },
      "supportsInterface(bytes4)": {
        "details": "See {IERC165-supportsInterface}."
      },
      "upgradeTo(address)": {
        "details": "Upgrade the implementation of the proxy to `newImplementation`. Calls {_authorizeUpgrade}. Emits an {Upgraded} event."
      },
      "upgradeToAndCall(address,bytes)": {
        "details": "Upgrade the implementation of the proxy to `newImplementation`, and subsequently execute the function call encoded in `data`. Calls {_authorizeUpgrade}. Emits an {Upgraded} event."
      }
    },
    "version": 1
  },
  "userdoc": {
    "kind": "user",
    "methods": {},
    "version": 1
  },
  "storageLayout": {
    "storage": [
      {
        "astId": 804,
        "contract": "contracts/payoutlisteners/BscPayoutListener.sol:BscPayoutListener",
        "label": "_initialized",
        "offset": 0,
        "slot": "0",
        "type": "t_uint8"
      },
      {
        "astId": 807,
        "contract": "contracts/payoutlisteners/BscPayoutListener.sol:BscPayoutListener",
        "label": "_initializing",
        "offset": 1,
        "slot": "0",
        "type": "t_bool"
      },
      {
        "astId": 1427,
        "contract": "contracts/payoutlisteners/BscPayoutListener.sol:BscPayoutListener",
        "label": "__gap",
        "offset": 0,
        "slot": "1",
        "type": "t_array(t_uint256)50_storage"
      },
      {
        "astId": 1706,
        "contract": "contracts/payoutlisteners/BscPayoutListener.sol:BscPayoutListener",
        "label": "__gap",
        "offset": 0,
        "slot": "51",
        "type": "t_array(t_uint256)50_storage"
      },
      {
        "astId": 39,
        "contract": "contracts/payoutlisteners/BscPayoutListener.sol:BscPayoutListener",
        "label": "_roles",
        "offset": 0,
        "slot": "101",
        "type": "t_mapping(t_bytes32,t_struct(RoleData)34_storage)"
      },
      {
        "astId": 334,
        "contract": "contracts/payoutlisteners/BscPayoutListener.sol:BscPayoutListener",
        "label": "__gap",
        "offset": 0,
        "slot": "102",
        "type": "t_array(t_uint256)49_storage"
      },
      {
        "astId": 786,
        "contract": "contracts/payoutlisteners/BscPayoutListener.sol:BscPayoutListener",
        "label": "__gap",
        "offset": 0,
        "slot": "151",
        "type": "t_array(t_uint256)50_storage"
      },
      {
        "astId": 1101,
        "contract": "contracts/payoutlisteners/BscPayoutListener.sol:BscPayoutListener",
        "label": "__gap",
        "offset": 0,
        "slot": "201",
        "type": "t_array(t_uint256)50_storage"
      },
      {
        "astId": 3900,
        "contract": "contracts/payoutlisteners/BscPayoutListener.sol:BscPayoutListener",
        "label": "exchange",
        "offset": 0,
        "slot": "251",
        "type": "t_address"
      },
      {
        "astId": 3996,
        "contract": "contracts/payoutlisteners/BscPayoutListener.sol:BscPayoutListener",
        "label": "__gap",
        "offset": 0,
        "slot": "252",
        "type": "t_array(t_uint256)50_storage"
      },
      {
        "astId": 4016,
        "contract": "contracts/payoutlisteners/BscPayoutListener.sol:BscPayoutListener",
        "label": "qsSyncPools",
        "offset": 0,
        "slot": "302",
        "type": "t_array(t_address)dyn_storage"
      },
      {
        "astId": 4019,
        "contract": "contracts/payoutlisteners/BscPayoutListener.sol:BscPayoutListener",
        "label": "pancakeSkimPools",
        "offset": 0,
        "slot": "303",
        "type": "t_array(t_address)dyn_storage"
      },
      {
        "astId": 4021,
        "contract": "contracts/payoutlisteners/BscPayoutListener.sol:BscPayoutListener",
        "label": "pancakeDepositWallet",
        "offset": 0,
        "slot": "304",
        "type": "t_address"
      },
      {
        "astId": 4024,
        "contract": "contracts/payoutlisteners/BscPayoutListener.sol:BscPayoutListener",
        "label": "usdPlus",
        "offset": 0,
        "slot": "305",
        "type": "t_contract(IERC20)2662"
      },
      {
        "astId": 4027,
        "contract": "contracts/payoutlisteners/BscPayoutListener.sol:BscPayoutListener",
        "label": "thenaSkimPools",
        "offset": 0,
        "slot": "306",
        "type": "t_array(t_address)dyn_storage"
      },
      {
        "astId": 4030,
        "contract": "contracts/payoutlisteners/BscPayoutListener.sol:BscPayoutListener",
        "label": "thenaSkimBribes",
        "offset": 0,
        "slot": "307",
        "type": "t_array(t_address)dyn_storage"
      },
      {
        "astId": 4033,
        "contract": "contracts/payoutlisteners/BscPayoutListener.sol:BscPayoutListener",
        "label": "wombatSkimPools",
        "offset": 0,
        "slot": "308",
        "type": "t_array(t_address)dyn_storage"
      },
      {
        "astId": 4035,
        "contract": "contracts/payoutlisteners/BscPayoutListener.sol:BscPayoutListener",
        "label": "rewardWallet",
        "offset": 0,
        "slot": "309",
        "type": "t_address"
      }
    ],
    "types": {
      "t_address": {
        "encoding": "inplace",
        "label": "address",
        "numberOfBytes": "20"
      },
      "t_array(t_address)dyn_storage": {
        "base": "t_address",
        "encoding": "dynamic_array",
        "label": "address[]",
        "numberOfBytes": "32"
      },
      "t_array(t_uint256)49_storage": {
        "base": "t_uint256",
        "encoding": "inplace",
        "label": "uint256[49]",
        "numberOfBytes": "1568"
      },
      "t_array(t_uint256)50_storage": {
        "base": "t_uint256",
        "encoding": "inplace",
        "label": "uint256[50]",
        "numberOfBytes": "1600"
      },
      "t_bool": {
        "encoding": "inplace",
        "label": "bool",
        "numberOfBytes": "1"
      },
      "t_bytes32": {
        "encoding": "inplace",
        "label": "bytes32",
        "numberOfBytes": "32"
      },
      "t_contract(IERC20)2662": {
        "encoding": "inplace",
        "label": "contract IERC20",
        "numberOfBytes": "20"
      },
      "t_mapping(t_address,t_bool)": {
        "encoding": "mapping",
        "key": "t_address",
        "label": "mapping(address => bool)",
        "numberOfBytes": "32",
        "value": "t_bool"
      },
      "t_mapping(t_bytes32,t_struct(RoleData)34_storage)": {
        "encoding": "mapping",
        "key": "t_bytes32",
        "label": "mapping(bytes32 => struct AccessControlUpgradeable.RoleData)",
        "numberOfBytes": "32",
        "value": "t_struct(RoleData)34_storage"
      },
      "t_struct(RoleData)34_storage": {
        "encoding": "inplace",
        "label": "struct AccessControlUpgradeable.RoleData",
        "members": [
          {
            "astId": 31,
            "contract": "contracts/payoutlisteners/BscPayoutListener.sol:BscPayoutListener",
            "label": "members",
            "offset": 0,
            "slot": "0",
            "type": "t_mapping(t_address,t_bool)"
          },
          {
            "astId": 33,
            "contract": "contracts/payoutlisteners/BscPayoutListener.sol:BscPayoutListener",
            "label": "adminRole",
            "offset": 0,
            "slot": "1",
            "type": "t_bytes32"
          }
        ],
        "numberOfBytes": "64"
      },
      "t_uint256": {
        "encoding": "inplace",
        "label": "uint256",
        "numberOfBytes": "32"
      },
      "t_uint8": {
        "encoding": "inplace",
        "label": "uint8",
        "numberOfBytes": "1"
      }
    }
  }
}