{
  "address": "0x7802aa233497308989239BC3124d55Af57d9873C",
  "abi": [
    {
      "inputs": [],
      "stateMutability": "nonpayable",
      "type": "constructor"
    },
    {
      "anonymous": false,
      "inputs": [
        {
          "indexed": false,
          "internalType": "address",
          "name": "previousAdmin",
          "type": "address"
        },
        {
          "indexed": false,
          "internalType": "address",
          "name": "newAdmin",
          "type": "address"
        }
      ],
      "name": "AdminChanged",
      "type": "event"
    },
    {
      "anonymous": false,
      "inputs": [
        {
          "indexed": true,
          "internalType": "address",
          "name": "beacon",
          "type": "address"
        }
      ],
      "name": "BeaconUpgraded",
      "type": "event"
    },
    {
      "anonymous": false,
      "inputs": [
        {
          "indexed": false,
          "internalType": "uint8",
          "name": "version",
          "type": "uint8"
        }
      ],
      "name": "Initialized",
      "type": "event"
    },
    {
      "anonymous": false,
      "inputs": [
        {
          "indexed": false,
          "internalType": "uint256",
          "name": "amount",
          "type": "uint256"
        }
      ],
      "name": "Reward",
      "type": "event"
    },
    {
      "anonymous": false,
      "inputs": [
        {
          "indexed": true,
          "internalType": "bytes32",
          "name": "role",
          "type": "bytes32"
        },
        {
          "indexed": true,
          "internalType": "bytes32",
          "name": "previousAdminRole",
          "type": "bytes32"
        },
        {
          "indexed": true,
          "internalType": "bytes32",
          "name": "newAdminRole",
          "type": "bytes32"
        }
      ],
      "name": "RoleAdminChanged",
      "type": "event"
    },
    {
      "anonymous": false,
      "inputs": [
        {
          "indexed": true,
          "internalType": "bytes32",
          "name": "role",
          "type": "bytes32"
        },
        {
          "indexed": true,
          "internalType": "address",
          "name": "account",
          "type": "address"
        },
        {
          "indexed": true,
          "internalType": "address",
          "name": "sender",
          "type": "address"
        }
      ],
      "name": "RoleGranted",
      "type": "event"
    },
    {
      "anonymous": false,
      "inputs": [
        {
          "indexed": true,
          "internalType": "bytes32",
          "name": "role",
          "type": "bytes32"
        },
        {
          "indexed": true,
          "internalType": "address",
          "name": "account",
          "type": "address"
        },
        {
          "indexed": true,
          "internalType": "address",
          "name": "sender",
          "type": "address"
        }
      ],
      "name": "RoleRevoked",
      "type": "event"
    },
    {
      "anonymous": false,
      "inputs": [
        {
          "indexed": false,
          "internalType": "uint256",
          "name": "healthFactor",
          "type": "uint256"
        }
      ],
      "name": "SetHealthFactor",
      "type": "event"
    },
    {
      "anonymous": false,
      "inputs": [
        {
          "indexed": false,
          "internalType": "uint256",
          "name": "amount",
          "type": "uint256"
        }
      ],
      "name": "Stake",
      "type": "event"
    },
    {
      "anonymous": false,
      "inputs": [
        {
          "indexed": false,
          "internalType": "uint256",
          "name": "amount",
          "type": "uint256"
        },
        {
          "indexed": false,
          "internalType": "uint256",
          "name": "amountReceived",
          "type": "uint256"
        }
      ],
      "name": "Unstake",
      "type": "event"
    },
    {
      "anonymous": false,
      "inputs": [
        {
          "indexed": true,
          "internalType": "address",
          "name": "implementation",
          "type": "address"
        }
      ],
      "name": "Upgraded",
      "type": "event"
    },
    {
      "inputs": [],
      "name": "CONTROL_ROLE",
      "outputs": [
        {
          "internalType": "bytes32",
          "name": "",
          "type": "bytes32"
        }
      ],
      "stateMutability": "view",
      "type": "function"
    },
    {
      "inputs": [],
      "name": "DEFAULT_ADMIN_ROLE",
      "outputs": [
        {
          "internalType": "bytes32",
          "name": "",
          "type": "bytes32"
        }
      ],
      "stateMutability": "view",
      "type": "function"
    },
    {
      "inputs": [],
      "name": "EXCHANGER",
      "outputs": [
        {
          "internalType": "bytes32",
          "name": "",
          "type": "bytes32"
        }
      ],
      "stateMutability": "view",
      "type": "function"
    },
    {
      "inputs": [],
      "name": "MAX_TIME_LOCK",
      "outputs": [
        {
          "internalType": "uint256",
          "name": "",
          "type": "uint256"
        }
      ],
      "stateMutability": "view",
      "type": "function"
    },
    {
      "inputs": [],
      "name": "MAX_UINT_VALUE",
      "outputs": [
        {
          "internalType": "uint256",
          "name": "",
          "type": "uint256"
        }
      ],
      "stateMutability": "view",
      "type": "function"
    },
    {
      "inputs": [],
      "name": "PORTFOLIO_AGENT_ROLE",
      "outputs": [
        {
          "internalType": "bytes32",
          "name": "",
          "type": "bytes32"
        }
      ],
      "stateMutability": "view",
      "type": "function"
    },
    {
      "inputs": [],
      "name": "UPGRADER_ROLE",
      "outputs": [
        {
          "internalType": "bytes32",
          "name": "",
          "type": "bytes32"
        }
      ],
      "stateMutability": "view",
      "type": "function"
    },
    {
      "inputs": [],
      "name": "asset",
      "outputs": [
        {
          "internalType": "contract IERC20",
          "name": "",
          "type": "address"
        }
      ],
      "stateMutability": "view",
      "type": "function"
    },
    {
      "inputs": [],
      "name": "balance",
      "outputs": [],
      "stateMutability": "nonpayable",
      "type": "function"
    },
    {
      "inputs": [],
      "name": "balances",
      "outputs": [
        {
          "components": [
            {
              "internalType": "address",
              "name": "token",
              "type": "address"
            },
            {
              "internalType": "uint256",
              "name": "amountUSD",
              "type": "uint256"
            },
            {
              "internalType": "uint256",
              "name": "amount",
              "type": "uint256"
            },
            {
              "internalType": "bool",
              "name": "borrowed",
              "type": "bool"
            }
          ],
          "internalType": "struct IHedgeStrategy.BalanceItem[]",
          "name": "",
          "type": "tuple[]"
        }
      ],
      "stateMutability": "view",
      "type": "function"
    },
    {
      "inputs": [],
      "name": "bnbDm",
      "outputs": [
        {
          "internalType": "uint256",
          "name": "",
          "type": "uint256"
        }
      ],
      "stateMutability": "view",
      "type": "function"
    },
    {
      "inputs": [],
      "name": "busd",
      "outputs": [
        {
          "internalType": "contract IERC20",
          "name": "",
          "type": "address"
        }
      ],
      "stateMutability": "view",
      "type": "function"
    },
    {
      "inputs": [],
      "name": "busdDm",
      "outputs": [
        {
          "internalType": "uint256",
          "name": "",
          "type": "uint256"
        }
      ],
      "stateMutability": "view",
      "type": "function"
    },
    {
      "inputs": [
        {
          "internalType": "address",
          "name": "_to",
          "type": "address"
        }
      ],
      "name": "claimRewards",
      "outputs": [
        {
          "internalType": "uint256",
          "name": "",
          "type": "uint256"
        }
      ],
      "stateMutability": "nonpayable",
      "type": "function"
    },
    {
      "inputs": [],
      "name": "coneGauge",
      "outputs": [
        {
          "internalType": "contract IGauge",
          "name": "",
          "type": "address"
        }
      ],
      "stateMutability": "view",
      "type": "function"
    },
    {
      "inputs": [],
      "name": "conePair",
      "outputs": [
        {
          "internalType": "contract IConePair",
          "name": "",
          "type": "address"
        }
      ],
      "stateMutability": "view",
      "type": "function"
    },
    {
      "inputs": [],
      "name": "coneRouter",
      "outputs": [
        {
          "internalType": "contract IConeRouter01",
          "name": "",
          "type": "address"
        }
      ],
      "stateMutability": "view",
      "type": "function"
    },
    {
      "inputs": [],
      "name": "coneToken",
      "outputs": [
        {
          "internalType": "contract IERC20",
          "name": "",
          "type": "address"
        }
      ],
      "stateMutability": "view",
      "type": "function"
    },
    {
      "inputs": [],
      "name": "coneVoter",
      "outputs": [
        {
          "internalType": "contract IConeVoter",
          "name": "",
          "type": "address"
        }
      ],
      "stateMutability": "view",
      "type": "function"
    },
    {
      "inputs": [],
      "name": "control",
      "outputs": [
        {
          "internalType": "contract ControlBusdWbnb",
          "name": "",
          "type": "address"
        }
      ],
      "stateMutability": "view",
      "type": "function"
    },
    {
      "inputs": [],
      "name": "currentHealthFactor",
      "outputs": [
        {
          "internalType": "uint256",
          "name": "",
          "type": "uint256"
        }
      ],
      "stateMutability": "view",
      "type": "function"
    },
    {
      "inputs": [],
      "name": "exchange",
      "outputs": [
        {
          "internalType": "contract IExchange",
          "name": "",
          "type": "address"
        }
      ],
      "stateMutability": "view",
      "type": "function"
    },
    {
      "inputs": [],
      "name": "exchanger",
      "outputs": [
        {
          "internalType": "address",
          "name": "",
          "type": "address"
        }
      ],
      "stateMutability": "view",
      "type": "function"
    },
    {
      "inputs": [
        {
          "components": [
            {
              "internalType": "enum ActionType",
              "name": "actionType",
              "type": "uint8"
            },
            {
              "internalType": "uint256",
              "name": "amount",
              "type": "uint256"
            },
            {
              "internalType": "uint256",
              "name": "slippagePercent",
              "type": "uint256"
            }
          ],
          "internalType": "struct Action",
          "name": "action",
          "type": "tuple"
        }
      ],
      "name": "executeAction",
      "outputs": [],
      "stateMutability": "nonpayable",
      "type": "function"
    },
    {
      "inputs": [
        {
          "internalType": "bytes32",
          "name": "role",
          "type": "bytes32"
        }
      ],
      "name": "getRoleAdmin",
      "outputs": [
        {
          "internalType": "bytes32",
          "name": "",
          "type": "bytes32"
        }
      ],
      "stateMutability": "view",
      "type": "function"
    },
    {
      "inputs": [
        {
          "internalType": "bytes32",
          "name": "role",
          "type": "bytes32"
        },
        {
          "internalType": "address",
          "name": "account",
          "type": "address"
        }
      ],
      "name": "grantRole",
      "outputs": [],
      "stateMutability": "nonpayable",
      "type": "function"
    },
    {
      "inputs": [
        {
          "internalType": "bytes32",
          "name": "role",
          "type": "bytes32"
        },
        {
          "internalType": "address",
          "name": "account",
          "type": "address"
        }
      ],
      "name": "hasRole",
      "outputs": [
        {
          "internalType": "bool",
          "name": "",
          "type": "bool"
        }
      ],
      "stateMutability": "view",
      "type": "function"
    },
    {
      "inputs": [],
      "name": "healthFactor",
      "outputs": [
        {
          "internalType": "uint256",
          "name": "",
          "type": "uint256"
        }
      ],
      "stateMutability": "view",
      "type": "function"
    },
    {
      "inputs": [],
      "name": "initialize",
      "outputs": [],
      "stateMutability": "nonpayable",
      "type": "function"
    },
    {
      "inputs": [],
      "name": "liquidationThreshold",
      "outputs": [
        {
          "internalType": "uint256",
          "name": "",
          "type": "uint256"
        }
      ],
      "stateMutability": "view",
      "type": "function"
    },
    {
      "inputs": [],
      "name": "maximillion",
      "outputs": [
        {
          "internalType": "contract Maximillion",
          "name": "",
          "type": "address"
        }
      ],
      "stateMutability": "view",
      "type": "function"
    },
    {
      "inputs": [],
      "name": "netAssetValue",
      "outputs": [
        {
          "internalType": "uint256",
          "name": "",
          "type": "uint256"
        }
      ],
      "stateMutability": "view",
      "type": "function"
    },
    {
      "inputs": [],
      "name": "oracleBusd",
      "outputs": [
        {
          "internalType": "contract IPriceFeed",
          "name": "",
          "type": "address"
        }
      ],
      "stateMutability": "view",
      "type": "function"
    },
    {
      "inputs": [],
      "name": "oracleWbnb",
      "outputs": [
        {
          "internalType": "contract IPriceFeed",
          "name": "",
          "type": "address"
        }
      ],
      "stateMutability": "view",
      "type": "function"
    },
    {
      "inputs": [],
      "name": "pancakeRouter",
      "outputs": [
        {
          "internalType": "contract IPancakeRouter02",
          "name": "",
          "type": "address"
        }
      ],
      "stateMutability": "view",
      "type": "function"
    },
    {
      "inputs": [],
      "name": "proxiableUUID",
      "outputs": [
        {
          "internalType": "bytes32",
          "name": "",
          "type": "bytes32"
        }
      ],
      "stateMutability": "view",
      "type": "function"
    },
    {
      "inputs": [],
      "name": "realHealthFactor",
      "outputs": [
        {
          "internalType": "uint256",
          "name": "",
          "type": "uint256"
        }
      ],
      "stateMutability": "view",
      "type": "function"
    },
    {
      "inputs": [
        {
          "internalType": "bytes32",
          "name": "role",
          "type": "bytes32"
        },
        {
          "internalType": "address",
          "name": "account",
          "type": "address"
        }
      ],
      "name": "renounceRole",
      "outputs": [],
      "stateMutability": "nonpayable",
      "type": "function"
    },
    {
      "inputs": [
        {
          "internalType": "bytes32",
          "name": "role",
          "type": "bytes32"
        },
        {
          "internalType": "address",
          "name": "account",
          "type": "address"
        }
      ],
      "name": "revokeRole",
      "outputs": [],
      "stateMutability": "nonpayable",
      "type": "function"
    },
    {
      "inputs": [
        {
          "internalType": "address",
          "name": "_value",
          "type": "address"
        }
      ],
      "name": "setExchanger",
      "outputs": [],
      "stateMutability": "nonpayable",
      "type": "function"
    },
    {
      "inputs": [
        {
          "components": [
            {
              "internalType": "address",
              "name": "usdPlus",
              "type": "address"
            },
            {
              "internalType": "address",
              "name": "busd",
              "type": "address"
            },
            {
              "internalType": "address",
              "name": "wbnb",
              "type": "address"
            },
            {
              "internalType": "address",
              "name": "vBusdToken",
              "type": "address"
            },
            {
              "internalType": "address",
              "name": "vBnbToken",
              "type": "address"
            },
            {
              "internalType": "address",
              "name": "xvsToken",
              "type": "address"
            },
            {
              "internalType": "address",
              "name": "unitroller",
              "type": "address"
            },
            {
              "internalType": "address",
              "name": "maximillion",
              "type": "address"
            },
            {
              "internalType": "address",
              "name": "oracleBusd",
              "type": "address"
            },
            {
              "internalType": "address",
              "name": "oracleWbnb",
              "type": "address"
            },
            {
              "internalType": "address",
              "name": "coneRouter",
              "type": "address"
            },
            {
              "internalType": "address",
              "name": "conePair",
              "type": "address"
            },
            {
              "internalType": "address",
              "name": "coneVoter",
              "type": "address"
            },
            {
              "internalType": "address",
              "name": "coneGauge",
              "type": "address"
            },
            {
              "internalType": "address",
              "name": "coneToken",
              "type": "address"
            },
            {
              "internalType": "address",
              "name": "veCone",
              "type": "address"
            },
            {
              "internalType": "uint256",
              "name": "veConeId",
              "type": "uint256"
            },
            {
              "internalType": "address",
              "name": "exchange",
              "type": "address"
            },
            {
              "internalType": "uint256",
              "name": "tokenAssetSlippagePercent",
              "type": "uint256"
            },
            {
              "internalType": "uint256",
              "name": "liquidationThreshold",
              "type": "uint256"
            },
            {
              "internalType": "uint256",
              "name": "healthFactor",
              "type": "uint256"
            },
            {
              "internalType": "address",
              "name": "unkwnToken",
              "type": "address"
            },
            {
              "internalType": "address",
              "name": "unkwnUserProxy",
              "type": "address"
            },
            {
              "internalType": "address",
              "name": "unkwnLens",
              "type": "address"
            },
            {
              "internalType": "address",
              "name": "control",
              "type": "address"
            },
            {
              "internalType": "address",
              "name": "pancakeRouter",
              "type": "address"
            }
          ],
          "internalType": "struct StrategyBusdWbnb.SetupParams",
          "name": "params",
          "type": "tuple"
        }
      ],
      "name": "setParams",
      "outputs": [],
      "stateMutability": "nonpayable",
      "type": "function"
    },
    {
      "inputs": [
        {
          "internalType": "uint256",
          "name": "_realHealthFactor",
          "type": "uint256"
        }
      ],
      "name": "setRealHealthFactor",
      "outputs": [],
      "stateMutability": "nonpayable",
      "type": "function"
    },
    {
      "inputs": [
        {
          "internalType": "uint256",
          "name": "_amount",
          "type": "uint256"
        }
      ],
      "name": "stake",
      "outputs": [],
      "stateMutability": "nonpayable",
      "type": "function"
    },
    {
      "inputs": [
        {
          "internalType": "bytes4",
          "name": "interfaceId",
          "type": "bytes4"
        }
      ],
      "name": "supportsInterface",
      "outputs": [
        {
          "internalType": "bool",
          "name": "",
          "type": "bool"
        }
      ],
      "stateMutability": "view",
      "type": "function"
    },
    {
      "inputs": [],
      "name": "tokenAssetSlippagePercent",
      "outputs": [
        {
          "internalType": "uint256",
          "name": "",
          "type": "uint256"
        }
      ],
      "stateMutability": "view",
      "type": "function"
    },
    {
      "inputs": [],
      "name": "unitroller",
      "outputs": [
        {
          "internalType": "contract Unitroller",
          "name": "",
          "type": "address"
        }
      ],
      "stateMutability": "view",
      "type": "function"
    },
    {
      "inputs": [],
      "name": "unkwnLens",
      "outputs": [
        {
          "internalType": "contract IUnkwnLens",
          "name": "",
          "type": "address"
        }
      ],
      "stateMutability": "view",
      "type": "function"
    },
    {
      "inputs": [],
      "name": "unkwnToken",
      "outputs": [
        {
          "internalType": "contract IERC20",
          "name": "",
          "type": "address"
        }
      ],
      "stateMutability": "view",
      "type": "function"
    },
    {
      "inputs": [],
      "name": "unkwnUserProxy",
      "outputs": [
        {
          "internalType": "contract IUserProxy",
          "name": "",
          "type": "address"
        }
      ],
      "stateMutability": "view",
      "type": "function"
    },
    {
      "inputs": [
        {
          "internalType": "uint256",
          "name": "_amount",
          "type": "uint256"
        },
        {
          "internalType": "address",
          "name": "_to",
          "type": "address"
        }
      ],
      "name": "unstake",
      "outputs": [
        {
          "internalType": "uint256",
          "name": "",
          "type": "uint256"
        }
      ],
      "stateMutability": "nonpayable",
      "type": "function"
    },
    {
      "inputs": [
        {
          "internalType": "address",
          "name": "newImplementation",
          "type": "address"
        }
      ],
      "name": "upgradeTo",
      "outputs": [],
      "stateMutability": "nonpayable",
      "type": "function"
    },
    {
      "inputs": [
        {
          "internalType": "address",
          "name": "newImplementation",
          "type": "address"
        },
        {
          "internalType": "bytes",
          "name": "data",
          "type": "bytes"
        }
      ],
      "name": "upgradeToAndCall",
      "outputs": [],
      "stateMutability": "payable",
      "type": "function"
    },
    {
      "inputs": [],
      "name": "usdPlus",
      "outputs": [
        {
          "internalType": "contract IERC20",
          "name": "",
          "type": "address"
        }
      ],
      "stateMutability": "view",
      "type": "function"
    },
    {
      "inputs": [],
      "name": "vBnbToken",
      "outputs": [
        {
          "internalType": "contract VenusInterface",
          "name": "",
          "type": "address"
        }
      ],
      "stateMutability": "view",
      "type": "function"
    },
    {
      "inputs": [],
      "name": "vBusdToken",
      "outputs": [
        {
          "internalType": "contract VenusInterface",
          "name": "",
          "type": "address"
        }
      ],
      "stateMutability": "view",
      "type": "function"
    },
    {
      "inputs": [],
      "name": "veCone",
      "outputs": [
        {
          "internalType": "contract VeCone",
          "name": "",
          "type": "address"
        }
      ],
      "stateMutability": "view",
      "type": "function"
    },
    {
      "inputs": [],
      "name": "veConeId",
      "outputs": [
        {
          "internalType": "uint256",
          "name": "",
          "type": "uint256"
        }
      ],
      "stateMutability": "view",
      "type": "function"
    },
    {
      "inputs": [],
      "name": "wbnb",
      "outputs": [
        {
          "internalType": "contract IERC20",
          "name": "",
          "type": "address"
        }
      ],
      "stateMutability": "view",
      "type": "function"
    },
    {
      "inputs": [],
      "name": "wbnbDm",
      "outputs": [
        {
          "internalType": "uint256",
          "name": "",
          "type": "uint256"
        }
      ],
      "stateMutability": "view",
      "type": "function"
    },
    {
      "inputs": [],
      "name": "xvsToken",
      "outputs": [
        {
          "internalType": "contract IERC20",
          "name": "",
          "type": "address"
        }
      ],
      "stateMutability": "view",
      "type": "function"
    },
    {
      "stateMutability": "payable",
      "type": "receive"
    }
  ],
  "numDeployments": 2,
  "solcInputHash": "b401754dc51b36cdb41ebe7aa48b787f",
  "bytecode": "0x60a06040523060601b6080523480156200001857600080fd5b50600054610100900460ff16158080156200003a5750600054600160ff909116105b806200006a575062000057306200014460201b6200259a1760201c565b1580156200006a575060005460ff166001145b620000d25760405162461bcd60e51b815260206004820152602e60248201527f496e697469616c697a61626c653a20636f6e747261637420697320616c72656160448201526d191e481a5b9a5d1a585b1a5e995960921b606482015260840160405180910390fd5b6000805460ff191660011790558015620000f6576000805461ff0019166101001790555b80156200013d576000805461ff0019169055604051600181527f7f26b83ff96e1f2b6a682f133852f6798a09c465da95921460cefb38474024989060200160405180910390a15b5062000153565b6001600160a01b03163b151590565b60805160601c614a266200018e6000396000818161172401528181611764015281816118040152818161184401526118d30152614a266000f3fe60806040526004361061039a5760003560e01c806391d14854116101dc578063cc545bec11610102578063dc2cddf9116100a0578063f72c0d8b1161006f578063f72c0d8b14610a8c578063faa9f7dd14610ac0578063fb200baf14610ad8578063fb24974a14610af957600080fd5b8063dc2cddf914610a13578063eb7147ca14610a2a578063ef33f76b14610a4b578063ef5cfb8c14610a6c57600080fd5b8063d7a1e6ab116100dc578063d7a1e6ab14610999578063d8de6587146109bb578063da909b09146109dc578063dc19d643146109fc57600080fd5b8063cc545bec14610937578063d2f7265a14610958578063d547741f1461097957600080fd5b8063b1ac6c701161017a578063bd0f105311610149578063bd0f1053146108bd578063c21ebd07146108df578063cad7d46a14610900578063cb87c0621461092057600080fd5b8063b1ac6c7014610846578063b69ef8a814610866578063bad1d3da1461087b578063bb94d0f41461089c57600080fd5b8063a3673b38116101b6578063a3673b38146107d9578063a66b5713146107ee578063a694fc3a1461080f578063aea05b611461082f57600080fd5b806391d14854146107835780639bd59a75146107a3578063a217fddf146107c457600080fd5b80634d12fca4116102c15780635dbd733a1161025f5780637bb98a681161022e5780637bb98a681461070b5780638129fc1c1461072d5780638381e182146107425780638d72647e1461076257600080fd5b80635dbd733a1461067e578063639d1a4f146106b257806364f8b89a146106c95780636f84a5ff146106ea57600080fd5b806352d1902d1161029b57806352d1902d1461061157806358b3ff3e146106265780635918be1a146106475780635a01f33d1461066857600080fd5b80634d12fca4146105bd5780634f1ef286146105dd578063514e460a146105f057600080fd5b80632f2ff15d1161033957806338d52e0f1161030857806338d52e0f146105445780633ca5b234146105645780634031234c146105855780634244f8891461059c57600080fd5b80632f2ff15d146104c357806336568abe146104e35780633659cfe614610503578063379d878c1461052357600080fd5b806322841f011161037557806322841f0114610435578063248a9ca31461045a5780632909cbee1461048a5780632a8b096f146104ac57600080fd5b8062cb5a83146103a657806301ffc9a7146103e45780630ceb9bfe1461041457600080fd5b366103a157005b600080fd5b3480156103b257600080fd5b50610141546103c7906001600160a01b031681565b6040516001600160a01b0390911681526020015b60405180910390f35b3480156103f057600080fd5b506104046103ff3660046140dd565b610b0f565b60405190151581526020016103db565b34801561042057600080fd5b5061013e546103c7906001600160a01b031681565b34801561044157600080fd5b5061044c6101465481565b6040519081526020016103db565b34801561046657600080fd5b5061044c61047536600461407b565b60009081526065602052604090206001015490565b34801561049657600080fd5b506104aa6104a536600461416d565b610b46565b005b3480156104b857600080fd5b5061044c6101475481565b3480156104cf57600080fd5b506104aa6104de3660046140ad565b611671565b3480156104ef57600080fd5b506104aa6104fe3660046140ad565b61169b565b34801561050f57600080fd5b506104aa61051e366004613e01565b611719565b34801561052f57600080fd5b50610140546103c7906001600160a01b031681565b34801561055057600080fd5b5060fb546103c7906001600160a01b031681565b34801561057057600080fd5b5061012f546103c7906001600160a01b031681565b34801561059157600080fd5b5061044c6101455481565b3480156105a857600080fd5b50610138546103c7906001600160a01b031681565b3480156105c957600080fd5b5060fc546103c7906001600160a01b031681565b6104aa6105eb366004613e3b565b6117f9565b3480156105fc57600080fd5b5061012e546103c7906001600160a01b031681565b34801561061d57600080fd5b5061044c6118c6565b34801561063257600080fd5b50610148546103c7906001600160a01b031681565b34801561065357600080fd5b5061013c546103c7906001600160a01b031681565b34801561067457600080fd5b506101475461044c565b34801561068a57600080fd5b5061044c7fd67ad422505496469a1adf6cdf9e5ee92ac5d33992843c9ecc4b2f6d6cde913781565b3480156106be57600080fd5b5061044c6101355481565b3480156106d557600080fd5b5061013d546103c7906001600160a01b031681565b3480156106f657600080fd5b5061013b546103c7906001600160a01b031681565b34801561071757600080fd5b50610720611979565b6040516103db9190614370565b34801561073957600080fd5b506104aa611a00565b34801561074e57600080fd5b5061044c61075d3660046140ad565b611ac9565b34801561076e57600080fd5b50610130546103c7906001600160a01b031681565b34801561078f57600080fd5b5061040461079e3660046140ad565b611c33565b3480156107af57600080fd5b5061013a546103c7906001600160a01b031681565b3480156107d057600080fd5b5061044c600081565b3480156107e557600080fd5b5061044c611c5e565b3480156107fa57600080fd5b50610137546103c7906001600160a01b031681565b34801561081b57600080fd5b506104aa61082a36600461407b565b611cdc565b34801561083b57600080fd5b5061044c61013f5481565b34801561085257600080fd5b506104aa610861366004614107565b611dc5565b34801561087257600080fd5b506104aa612355565b34801561088757600080fd5b50610149546103c7906001600160a01b031681565b3480156108a857600080fd5b50610139546103c7906001600160a01b031681565b3480156108c957600080fd5b5061044c60008051602061494483398151915281565b3480156108eb57600080fd5b5061014b546103c7906001600160a01b031681565b34801561090c57600080fd5b506104aa61091b36600461407b565b612391565b34801561092c57600080fd5b5061044c6101365481565b34801561094357600080fd5b50610131546103c7906001600160a01b031681565b34801561096457600080fd5b50610143546103c7906001600160a01b031681565b34801561098557600080fd5b506104aa6109943660046140ad565b6123f3565b3480156109a557600080fd5b5061044c6000805160206148b883398151915281565b3480156109c757600080fd5b5061014a546103c7906001600160a01b031681565b3480156109e857600080fd5b506104aa6109f7366004613e01565b612418565b348015610a0857600080fd5b5061044c6101345481565b348015610a1f57600080fd5b5061044c6101445481565b348015610a3657600080fd5b50610142546103c7906001600160a01b031681565b348015610a5757600080fd5b50610132546103c7906001600160a01b031681565b348015610a7857600080fd5b5061044c610a87366004613e01565b612516565b348015610a9857600080fd5b5061044c7f189ab7a9244df0848122154315af71fe140f3db0fe014031783b0946b8c9d2e381565b348015610acc57600080fd5b5061044c630786b40d81565b348015610ae457600080fd5b50610133546103c7906001600160a01b031681565b348015610b0557600080fd5b5061044c60001981565b60006001600160e01b03198216637965db0b60e01b1480610b4057506301ffc9a760e01b6001600160e01b03198316145b92915050565b610b51600033611c33565b610b995760405162461bcd60e51b81526020600482015260146024820152735265737472696374656420746f2061646d696e7360601b60448201526064015b60405180910390fd5b610ba66020820182613e01565b61012e80546001600160a01b0319166001600160a01b0392909216919091179055610bd76040820160208301613e01565b61012f80546001600160a01b0319166001600160a01b0392909216919091179055610c086060820160408301613e01565b61013080546001600160a01b0319166001600160a01b0392909216919091179055610c396080820160608301613e01565b61013180546001600160a01b0319166001600160a01b0392909216919091179055610c6a60a0820160808301613e01565b61013280546001600160a01b0319166001600160a01b0392909216919091179055610c9b60c0820160a08301613e01565b61013380546001600160a01b0319166001600160a01b0392909216919091179055610ccc6040820160208301613e01565b6001600160a01b031663313ce5676040518163ffffffff1660e01b815260040160206040518083038186803b158015610d0457600080fd5b505afa158015610d18573d6000803e3d6000fd5b505050506040513d601f19601f82011682018060405250810190610d3c91906141aa565b610d4790600a6146d2565b61013455610d5b6060820160408301613e01565b6001600160a01b031663313ce5676040518163ffffffff1660e01b815260040160206040518083038186803b158015610d9357600080fd5b505afa158015610da7573d6000803e3d6000fd5b505050506040513d601f19601f82011682018060405250810190610dcb91906141aa565b610dd690600a6146d2565b61013555670de0b6b3a764000061013655610df961012082016101008301613e01565b61013780546001600160a01b0319166001600160a01b0392909216919091179055610e2c61014082016101208301613e01565b61013880546001600160a01b0319166001600160a01b0392909216919091179055610e62610e5d6020830183613e01565b6125a9565b610e7461016082016101408301613e01565b61013980546001600160a01b0319166001600160a01b0392909216919091179055610ea761018082016101608301613e01565b61013a80546001600160a01b0319166001600160a01b0392909216919091179055610eda6101a082016101808301613e01565b61013b80546001600160a01b0319166001600160a01b0392909216919091179055610f0d6101c082016101a08301613e01565b61013c80546001600160a01b0319166001600160a01b0392909216919091179055610f406101e082016101c08301613e01565b61013d80546001600160a01b0319166001600160a01b0392909216919091179055610f7361020082016101e08301613e01565b61013e80546001600160a01b0319166001600160a01b039290921691909117905561020081013561013f55610fb061024082016102208301613e01565b61014380546001600160a01b0319166001600160a01b039283161790556102408201356101445561012f546101395460405163095ea7b360e01b81529183169263095ea7b39261100a929091169060001990600401614344565b602060405180830381600087803b15801561102457600080fd5b505af1158015611038573d6000803e3d6000fd5b505050506040513d601f19601f8201168201806040525081019061105c9190614060565b50610130546101395460405163095ea7b360e01b81526001600160a01b039283169263095ea7b3926110979291169060001990600401614344565b602060405180830381600087803b1580156110b157600080fd5b505af11580156110c5573d6000803e3d6000fd5b505050506040513d601f19601f820116820180604052508101906110e99190614060565b5061013a546101395460405163095ea7b360e01b81526001600160a01b039283169263095ea7b3926111249291169060001990600401614344565b602060405180830381600087803b15801561113e57600080fd5b505af1158015611152573d6000803e3d6000fd5b505050506040513d601f19601f820116820180604052508101906111769190614060565b5061013a5461013c5460405163095ea7b360e01b81526001600160a01b039283169263095ea7b3926111b19291169060001990600401614344565b602060405180830381600087803b1580156111cb57600080fd5b505af11580156111df573d6000803e3d6000fd5b505050506040513d601f19601f820116820180604052508101906112039190614060565b5061012e546101435460405163095ea7b360e01b81526001600160a01b039283169263095ea7b39261123e9291169060001990600401614344565b602060405180830381600087803b15801561125857600080fd5b505af115801561126c573d6000803e3d6000fd5b505050506040513d601f19601f820116820180604052508101906112909190614060565b5061012f546101435460405163095ea7b360e01b81526001600160a01b039283169263095ea7b3926112cb9291169060001990600401614344565b602060405180830381600087803b1580156112e557600080fd5b505af11580156112f9573d6000803e3d6000fd5b505050506040513d601f19601f8201168201806040525081019061131d9190614060565b5061132e60e0820160c08301613e01565b61014980546001600160a01b0319166001600160a01b039290921691909117905560408051600280825260608201835260009260208301908036833750506101315482519293506001600160a01b0316918391506000906113915761139161480b565b6001600160a01b039283166020918202929092010152610132548251911690829060019081106113c3576113c361480b565b6001600160a01b03928316602091820292909201015261014954604051631853304760e31b8152600092919091169063c29982389061140690859060040161435d565b600060405180830381600087803b15801561142057600080fd5b505af1158015611434573d6000803e3d6000fd5b505050506040513d6000823e601f3d908101601f1916820160405261145c9190810190613fc8565b905061146f610100840160e08501613e01565b61014880546001600160a01b0319166001600160a01b03929092169190911790556114a661026084013566038d7ea4c6800061477d565b610145556114c061028084013566038d7ea4c6800061477d565b610146556000610147556114dc6102c084016102a08501613e01565b61014080546001600160a01b0319166001600160a01b039290921691909117905561150f6102e084016102c08501613e01565b61014180546001600160a01b0319166001600160a01b039290921691909117905561154261030084016102e08501613e01565b61014280546001600160a01b0319166001600160a01b0392831617905561014a54161561158f5761014a5461158f906000805160206148b8833981519152906001600160a01b03166123f3565b6115a161032084016103008501613e01565b61014a80546001600160a01b0319166001600160a01b039290921691821790556115da906000805160206148b883398151915290611671565b61014a546040516319d0806560e11b81523060048201526001600160a01b03909116906333a100ca90602401600060405180830381600087803b15801561162057600080fd5b505af1158015611634573d6000803e3d6000fd5b5061164b9250505061034084016103208501613e01565b61014b80546001600160a01b0319166001600160a01b0392909216919091179055505050565b60008281526065602052604090206001015461168c8161261c565b6116968383612626565b505050565b6001600160a01b038116331461170b5760405162461bcd60e51b815260206004820152602f60248201527f416363657373436f6e74726f6c3a2063616e206f6e6c792072656e6f756e636560448201526e103937b632b9903337b91039b2b63360891b6064820152608401610b90565b61171582826126ac565b5050565b306001600160a01b037f00000000000000000000000000000000000000000000000000000000000000001614156117625760405162461bcd60e51b8152600401610b9090614464565b7f00000000000000000000000000000000000000000000000000000000000000006001600160a01b03166117ab600080516020614988833981519152546001600160a01b031690565b6001600160a01b0316146117d15760405162461bcd60e51b8152600401610b90906144b0565b6117da81612713565b604080516000808252602082019092526117f69183919061273d565b50565b306001600160a01b037f00000000000000000000000000000000000000000000000000000000000000001614156118425760405162461bcd60e51b8152600401610b9090614464565b7f00000000000000000000000000000000000000000000000000000000000000006001600160a01b031661188b600080516020614988833981519152546001600160a01b031690565b6001600160a01b0316146118b15760405162461bcd60e51b8152600401610b90906144b0565b6118ba82612713565b6117158282600161273d565b6000306001600160a01b037f000000000000000000000000000000000000000000000000000000000000000016146119665760405162461bcd60e51b815260206004820152603860248201527f555550535570677261646561626c653a206d757374206e6f742062652063616c60448201527f6c6564207468726f7567682064656c656761746563616c6c00000000000000006064820152608401610b90565b5060008051602061498883398151915290565b61014a5460408051630f77314d60e31b815290516060926001600160a01b031691637bb98a68916004808301926000929190829003018186803b1580156119bf57600080fd5b505afa1580156119d3573d6000803e3d6000fd5b505050506040513d6000823e601f3d908101601f191682016040526119fb9190810190613ee3565b905090565b600054610100900460ff1615808015611a205750600054600160ff909116105b80611a3a5750303b158015611a3a575060005460ff166001145b611a565760405162461bcd60e51b8152600401610b90906144fc565b6000805460ff191660011790558015611a79576000805461ff0019166101001790555b611a816128b7565b80156117f6576000805461ff0019169055604051600181527f7f26b83ff96e1f2b6a682f133852f6798a09c465da95921460cefb38474024989060200160405180910390a150565b6000611ae360008051602061494483398151915233611c33565b611aff5760405162461bcd60e51b8152600401610b909061442d565b6000611b0a84612975565b905083811015611b6e5760405162461bcd60e51b815260206004820152602960248201527f52657475726e65642076616c7565206c657373207468616e2072657175657374604482015268195908185b5bdd5b9d60ba1b6064820152608401610b90565b60fb5460405163a9059cbb60e01b81526001600160a01b039091169063a9059cbb90611ba09086908590600401614344565b602060405180830381600087803b158015611bba57600080fd5b505af1158015611bce573d6000803e3d6000fd5b505050506040513d601f19601f82011682018060405250810190611bf29190614060565b5060408051858152602081018390527f9045c2ac9b2026de8075f2701bbdde882cd5e830b3b1ead9a15b22f2b5b93742910160405180910390a19392505050565b60009182526065602090815260408084206001600160a01b0393909316845291905290205460ff1690565b61014a546040805163146ce76760e31b815290516000926001600160a01b03169163a3673b38916004808301926020929190829003018186803b158015611ca457600080fd5b505afa158015611cb8573d6000803e3d6000fd5b505050506040513d601f19601f820116820180604052508101906119fb9190614094565b611cf460008051602061494483398151915233611c33565b611d105760405162461bcd60e51b8152600401610b909061442d565b6040518181527f227a473b70d2f893cc7659219575c030a63b5743024fe1e0c1a680e708b1525a9060200160405180910390a160fb546040516370a0823160e01b81523060048201526117f6916001600160a01b0316906370a082319060240160206040518083038186803b158015611d8857600080fd5b505afa158015611d9c573d6000803e3d6000fd5b505050506040513d601f19601f82011682018060405250810190611dc09190614094565b6129e2565b600081516009811115611dda57611dda6147f5565b1415611e8d57611e1e6040518060400160405280601c81526020017f6578656375746520616374696f6e204144445f4c495155494449545900000000815250612a44565b602081015160405163c7b472e960e01b815273__$02c19cb8ce11109cbe0b426c827194034a$__9163c7b472e991611e5a913091600401614344565b60006040518083038186803b158015611e7257600080fd5b505af4158015611e86573d6000803e3d6000fd5b5050505050565b600181516009811115611ea257611ea26147f5565b1415611f7157611ee66040518060400160405280601f81526020017f6578656375746520616374696f6e2052454d4f56455f4c495155494449545900815250612a44565b6020810151604051635ca76c4f60e01b815273__$02c19cb8ce11109cbe0b426c827194034a$__91635ca76c4f91611f22913091600401614344565b604080518083038186803b158015611f3957600080fd5b505af4158015611f4d573d6000803e3d6000fd5b505050506040513d601f19601f820116820180604052508101906116969190614186565b600281516009811115611f8657611f866147f5565b1415611fe957611fad6040518060600160405280602481526020016148d860249139612a44565b6020810151604051636d1291eb60e01b815273__$02c19cb8ce11109cbe0b426c827194034a$__91636d1291eb91611e5a913091600401614344565b600381516009811115611ffe57611ffe6147f5565b14156120615761202560405180606001604052806024815260200161496460249139612a44565b6020810151604051632036b20960e01b815273__$02c19cb8ce11109cbe0b426c827194034a$__91632036b20991611e5a913091600401614344565b600481516009811115612076576120766147f5565b14156120d95761209d6040518060600160405280602381526020016148fc60239139612a44565b6020810151604051634bb288ff60e01b815273__$02c19cb8ce11109cbe0b426c827194034a$__91634bb288ff91611e5a913091600401614344565b6005815160098111156120ee576120ee6147f5565b14156121515761211560405180606001604052806027815260200161484d60279139612a44565b6020810151604051632c761ac760e01b815273__$02c19cb8ce11109cbe0b426c827194034a$__91632c761ac791611e5a913091600401614344565b600681516009811115612166576121666147f5565b14156121c95761218d60405180606001604052806025815260200161491f60259139612a44565b6020810151604051632ff8b87160e21b815273__$02c19cb8ce11109cbe0b426c827194034a$__9163bfe2e1c491611e5a913091600401614344565b6007815160098111156121de576121de6147f5565b14156122415761220560405180606001604052806022815260200161489660229139612a44565b60208101516040516357971fe560e01b815273__$02c19cb8ce11109cbe0b426c827194034a$__916357971fe591611e5a913091600401614344565b600881516009811115612256576122566147f5565b14156122cb5761227d60405180606001604052806022815260200161487460229139612a44565b6020810151604080830151905163027c9cff60e21b81523060048201526024810192909252604482015273__$02c19cb8ce11109cbe0b426c827194034a$__906309f273fc90606401611e5a565b6009815160098111156122e0576122e06147f5565b14156117f6576123076040518060600160405280602281526020016149a860229139612a44565b60208101516040808301519051631e3ad25d60e31b81523060048201526024810192909252604482015273__$02c19cb8ce11109cbe0b426c827194034a$__9063f1d692e890606401611e5a565b61236d60008051602061494483398151915233611c33565b6123895760405162461bcd60e51b8152600401610b909061442d565b6117f6612a87565b6123a96000805160206148b883398151915233611c33565b6123ed5760405162461bcd60e51b815260206004820152601560248201527414995cdd1c9a58dd1959081d1bc810d3d3951493d3605a1b6044820152606401610b90565b61014755565b60008281526065602052604090206001015461240e8161261c565b61169683836126ac565b612423600033611c33565b6124665760405162461bcd60e51b81526020600482015260146024820152735265737472696374656420746f2061646d696e7360601b6044820152606401610b90565b6001600160a01b0381166124b75760405162461bcd60e51b815260206004820152601860248201527716995c9bc81859191c995cdcc81b9bdd08185b1b1bddd95960421b6044820152606401610b90565b60fc546124dc90600080516020614944833981519152906001600160a01b03166123f3565b6124f460008051602061494483398151915282611671565b60fc80546001600160a01b0319166001600160a01b0392909216919091179055565b600061253060008051602061494483398151915233611c33565b61254c5760405162461bcd60e51b8152600401610b909061442d565b600061255783612af6565b90507f3ac0594a85a20354f9dc74f33728416d19ce00d04a406c108cc2dcf2cecea1348160405161258a91815260200190565b60405180910390a190505b919050565b6001600160a01b03163b151590565b6001600160a01b0381166125fa5760405162461bcd60e51b815260206004820152601860248201527716995c9bc81859191c995cdcc81b9bdd08185b1b1bddd95960421b6044820152606401610b90565b60fb80546001600160a01b0319166001600160a01b0392909216919091179055565b6117f68133612b26565b6126308282611c33565b6117155760008281526065602090815260408083206001600160a01b03851684529091529020805460ff191660011790556126683390565b6001600160a01b0316816001600160a01b0316837f2f8788117e7eff1d82e926ec794901d17c78024a50270940304540a733656f0d60405160405180910390a45050565b6126b68282611c33565b156117155760008281526065602090815260408083206001600160a01b0385168085529252808320805460ff1916905551339285917ff6391f5c32d9c69d2a47ea670b442974b53935d1edc7fd64eb21e047a839171b9190a45050565b7f189ab7a9244df0848122154315af71fe140f3db0fe014031783b0946b8c9d2e36117158161261c565b7f4910fdfa16fed3260ed0e7147f7cc6da11a60208b5b9406d12a635614ffd91435460ff16156127705761169683612b8a565b826001600160a01b03166352d1902d6040518163ffffffff1660e01b815260040160206040518083038186803b1580156127a957600080fd5b505afa9250505080156127d9575060408051601f3d908101601f191682019092526127d691810190614094565b60015b61283c5760405162461bcd60e51b815260206004820152602e60248201527f45524331393637557067726164653a206e657720696d706c656d656e7461746960448201526d6f6e206973206e6f74205555505360901b6064820152608401610b90565b60008051602061498883398151915281146128ab5760405162461bcd60e51b815260206004820152602960248201527f45524331393637557067726164653a20756e737570706f727465642070726f786044820152681a58589b195555525160ba1b6064820152608401610b90565b50611696838383612c26565b600054610100900460ff16158080156128d75750600054600160ff909116105b806128f15750303b1580156128f1575060005460ff166001145b61290d5760405162461bcd60e51b8152600401610b90906144fc565b6000805460ff191660011790558015612930576000805461ff0019166101001790555b612938612c51565b612940612c51565b61294b600033612626565b611a817f189ab7a9244df0848122154315af71fe140f3db0fe014031783b0946b8c9d2e333612626565b61014a546040516312093a2360e11b81526000916001600160a01b0316906324127446906129aa9060029086906004016143df565b600060405180830381600087803b1580156129c457600080fd5b505af11580156129d8573d6000803e3d6000fd5b5093949350505050565b61014a546040516312093a2360e11b81526001600160a01b0390911690632412744690612a169060019085906004016143df565b600060405180830381600087803b158015612a3057600080fd5b505af1158015611e86573d6000803e3d6000fd5b6117f681604051602401612a5891906143fa565b60408051601f198184030181529190526020810180516001600160e01b031663104c13eb60e21b179052612cbe565b61014a546040516312093a2360e11b81526000916001600160a01b031690632412744690612abb90849081906004016143df565b600060405180830381600087803b158015612ad557600080fd5b505af1158015612ae9573d6000803e3d6000fd5b5050505061014754905090565b600080612b01612cdf565b612b0b9082614655565b9050612b15612fad565b612b1f9082614655565b9392505050565b612b308282611c33565b61171557612b48816001600160a01b031660146131a7565b612b538360206131a7565b604051602001612b649291906142a3565b60408051601f198184030181529082905262461bcd60e51b8252610b90916004016143fa565b6001600160a01b0381163b612bf75760405162461bcd60e51b815260206004820152602d60248201527f455243313936373a206e657720696d706c656d656e746174696f6e206973206e60448201526c1bdd08184818dbdb9d1c9858dd609a1b6064820152608401610b90565b60008051602061498883398151915280546001600160a01b0319166001600160a01b0392909216919091179055565b612c2f83613343565b600082511180612c3c5750805b1561169657612c4b8383613383565b50505050565b600054610100900460ff16612cbc5760405162461bcd60e51b815260206004820152602b60248201527f496e697469616c697a61626c653a20636f6e7472616374206973206e6f74206960448201526a6e697469616c697a696e6760a81b6064820152608401610b90565b565b80516a636f6e736f6c652e6c6f67602083016000808483855afa5050505050565b6101425461013a546000918291612d03916001600160a01b03908116911630613477565b90508015612d755761014160009054906101000a90046001600160a01b03166001600160a01b0316636b69e05b6040518163ffffffff1660e01b8152600401600060405180830381600087803b158015612d5c57600080fd5b505af1158015612d70573d6000803e3d6000fd5b505050505b610140546040516370a0823160e01b81523060048201526000916001600160a01b0316906370a082319060240160206040518083038186803b158015612dba57600080fd5b505afa158015612dce573d6000803e3d6000fd5b505050506040513d601f19601f82011682018060405250810190612df29190614094565b905060008115612e965761013954610140546101305461012e54600093612e30936001600160a01b03918216939082169290821691168580896135fb565b90508015612e945761013954610140546101305461012e54600093612e84936001600160a01b039182169390821692908216911685808a6064612e748b606361477d565b612e7e919061466d565b30613826565b9050612e908184614655565b9250505b505b61013d546040516370a0823160e01b81523060048201526000916001600160a01b0316906370a082319060240160206040518083038186803b158015612edb57600080fd5b505afa158015612eef573d6000803e3d6000fd5b505050506040513d601f19601f82011682018060405250810190612f139190614094565b90508015612fa5576101395461013d546101305461012e54600093612f4f936001600160a01b03918216939082169290821691168580886135fb565b90508015612fa3576101395461013d546101305461012e54600093612f93936001600160a01b03918216939082169290821691168580896064612e748b606361477d565b9050612f9f8185614655565b9350505b505b509392505050565b6040805160028082526060820183526000928392919060208301908036833750506101315482519293506001600160a01b031691839150600090612ff357612ff361480b565b6001600160a01b039283166020918202929092010152610132548251911690829060019081106130255761302561480b565b6001600160a01b0392831660209182029290920101526101495460405163436f98f760e11b81529116906386df31ee906130659030908590600401614318565b600060405180830381600087803b15801561307f57600080fd5b505af1158015613093573d6000803e3d6000fd5b5050610133546040516370a0823160e01b8152306004820152600093506001600160a01b0390911691506370a082319060240160206040518083038186803b1580156130de57600080fd5b505afa1580156130f2573d6000803e3d6000fd5b505050506040513d601f19601f820116820180604052508101906131169190614094565b9050600081156131905761014b546101335461012f5460009261314a926001600160a01b0391821692908216911686613adc565b9050801561318e5761014b546101335461012f5460009261317e926001600160a01b03918216929082169116878630613c05565b905061318a8184614655565b9250505b505b61319f64e8d4a510008261466d565b935050505090565b606060006131b683600261477d565b6131c1906002614655565b67ffffffffffffffff8111156131d9576131d9614821565b6040519080825280601f01601f191660200182016040528015613203576020820181803683370190505b509050600360fc1b8160008151811061321e5761321e61480b565b60200101906001600160f81b031916908160001a905350600f60fb1b8160018151811061324d5761324d61480b565b60200101906001600160f81b031916908160001a905350600061327184600261477d565b61327c906001614655565b90505b60018111156132f4576f181899199a1a9b1b9c1cb0b131b232b360811b85600f16601081106132b0576132b061480b565b1a60f81b8282815181106132c6576132c661480b565b60200101906001600160f81b031916908160001a90535060049490941c936132ed816147c8565b905061327f565b508315612b1f5760405162461bcd60e51b815260206004820181905260248201527f537472696e67733a20686578206c656e67746820696e73756666696369656e746044820152606401610b90565b61334c81612b8a565b6040516001600160a01b038216907fbc7cd75a20ee27fd9adebab32041f755214dbc6bffa90cc0225b39da2e5c2d3b90600090a250565b60606001600160a01b0383163b6133eb5760405162461bcd60e51b815260206004820152602660248201527f416464726573733a2064656c65676174652063616c6c20746f206e6f6e2d636f6044820152651b9d1c9858dd60d21b6064820152608401610b90565b600080846001600160a01b0316846040516134069190614287565b600060405180830381855af49150503d8060008114613441576040519150601f19603f3d011682016040523d82523d6000602084013e613446565b606091505b509150915061346e82826040518060600160405280602781526020016149ca60279139613db8565b95945050505050565b604051636f4ba70b60e11b81526001600160a01b038281166004830152600091829186169063de974e169060240160206040518083038186803b1580156134bd57600080fd5b505afa1580156134d1573d6000803e3d6000fd5b505050506040513d601f19601f820116820180604052508101906134f59190613e1e565b604051630c3f16df60e31b81526001600160a01b0386811660048301529192506000918716906361f8b6f89060240160206040518083038186803b15801561353c57600080fd5b505afa158015613550573d6000803e3d6000fd5b505050506040513d601f19601f820116820180604052508101906135749190613e1e565b6040516370a0823160e01b81526001600160a01b038481166004830152919250908216906370a082319060240160206040518083038186803b1580156135b957600080fd5b505afa1580156135cd573d6000803e3d6000fd5b505050506040513d601f19601f820116820180604052508101906135f19190614094565b9695505050505050565b60408051600280825260608201909252600091829190816020015b604080516060810182526000808252602080830182905292820152825260001990920191018161361657905050905087816000815181106136595761365961480b565b6020026020010151600001906001600160a01b031690816001600160a01b03168152505086816000815181106136915761369161480b565b6020026020010151602001906001600160a01b031690816001600160a01b03168152505084816000815181106136c9576136c961480b565b6020026020010151604001901515908115158152505086816001815181106136f3576136f361480b565b6020026020010151600001906001600160a01b031690816001600160a01b031681525050858160018151811061372b5761372b61480b565b6020026020010151602001906001600160a01b031690816001600160a01b03168152505083816001815181106137635761376361480b565b6020908102919091010151901515604091820152516326207f2d60e21b81526000906001600160a01b038b1690639881fcb4906137a69087908690600401614563565b60006040518083038186803b1580156137be57600080fd5b505afa1580156137d2573d6000803e3d6000fd5b505050506040513d6000823e601f3d908101601f191682016040526137fa9190810190613fc8565b90508060028151811061380f5761380f61480b565b602002602001015192505050979650505050505050565b60405163095ea7b360e01b81526000906001600160a01b038a169063095ea7b390613857908d908890600401614344565b602060405180830381600087803b15801561387157600080fd5b505af1158015613885573d6000803e3d6000fd5b505050506040513d601f19601f820116820180604052508101906138a99190614060565b5060408051600280825260608201909252600091816020015b60408051606081018252600080825260208083018290529282015282526000199092019101816138c257905050905089816000815181106139055761390561480b565b6020026020010151600001906001600160a01b031690816001600160a01b031681525050888160008151811061393d5761393d61480b565b6020026020010151602001906001600160a01b031690816001600160a01b03168152505086816000815181106139755761397561480b565b60200260200101516040019015159081151581525050888160018151811061399f5761399f61480b565b6020026020010151600001906001600160a01b031690816001600160a01b03168152505087816001815181106139d7576139d761480b565b6020026020010151602001906001600160a01b031690816001600160a01b0316815250508581600181518110613a0f57613a0f61480b565b602090810291909101015190151560409182015251631e82ecdb60e31b81526000906001600160a01b038d169063f41766d890613a58908990899087908a9042906004016145b8565b600060405180830381600087803b158015613a7257600080fd5b505af1158015613a86573d6000803e3d6000fd5b505050506040513d6000823e601f3d908101601f19168201604052613aae9190810190613fc8565b905080600281518110613ac357613ac361480b565b6020026020010151925050509998505050505050505050565b604080516002808252606082018352600092839291906020830190803683370190505090508481600081518110613b1557613b1561480b565b60200260200101906001600160a01b031690816001600160a01b0316815250508381600181518110613b4957613b4961480b565b6001600160a01b03928316602091820292909201015260405163d06ca61f60e01b815260009188169063d06ca61f90613b88908790869060040161454a565b60006040518083038186803b158015613ba057600080fd5b505afa158015613bb4573d6000803e3d6000fd5b505050506040513d6000823e601f3d908101601f19168201604052613bdc9190810190613fc8565b905080600181518110613bf157613bf161480b565b602002602001015192505050949350505050565b60405163095ea7b360e01b81526000906001600160a01b0387169063095ea7b390613c36908a908890600401614344565b602060405180830381600087803b158015613c5057600080fd5b505af1158015613c64573d6000803e3d6000fd5b505050506040513d601f19601f82011682018060405250810190613c889190614060565b506040805160028082526060820183526000926020830190803683370190505090508681600081518110613cbe57613cbe61480b565b60200260200101906001600160a01b031690816001600160a01b0316815250508581600181518110613cf257613cf261480b565b6001600160a01b0392831660209182029290920101526040516338ed173960e01b81526000918a16906338ed173990613d37908990899087908a90429060040161457c565b600060405180830381600087803b158015613d5157600080fd5b505af1158015613d65573d6000803e3d6000fd5b505050506040513d6000823e601f3d908101601f19168201604052613d8d9190810190613fc8565b905080600181518110613da257613da261480b565b6020026020010151925050509695505050505050565b60608315613dc7575081612b1f565b825115613dd75782518084602001fd5b8160405162461bcd60e51b8152600401610b9091906143fa565b8051801515811461259557600080fd5b600060208284031215613e1357600080fd5b8135612b1f81614837565b600060208284031215613e3057600080fd5b8151612b1f81614837565b60008060408385031215613e4e57600080fd5b8235613e5981614837565b915060208381013567ffffffffffffffff80821115613e7757600080fd5b818601915086601f830112613e8b57600080fd5b813581811115613e9d57613e9d614821565b613eaf601f8201601f19168501614600565b91508082528784828501011115613ec557600080fd5b80848401858401376000848284010152508093505050509250929050565b60006020808385031215613ef657600080fd5b825167ffffffffffffffff811115613f0d57600080fd5b8301601f81018513613f1e57600080fd5b8051613f31613f2c82614631565b614600565b80828252848201915084840188868560071b8701011115613f5157600080fd5b60009450845b84811015613fba57608080838c031215613f6f578687fd5b613f776145d7565b8351613f8281614837565b81528389015189820152604080850151908201526060613fa3818601613df1565b908201528552938701939190910190600101613f57565b509098975050505050505050565b60006020808385031215613fdb57600080fd5b825167ffffffffffffffff811115613ff257600080fd5b8301601f8101851361400357600080fd5b8051614011613f2c82614631565b80828252848201915084840188868560051b870101111561403157600080fd5b600094505b83851015614054578051835260019490940193918501918501614036565b50979650505050505050565b60006020828403121561407257600080fd5b612b1f82613df1565b60006020828403121561408d57600080fd5b5035919050565b6000602082840312156140a657600080fd5b5051919050565b600080604083850312156140c057600080fd5b8235915060208301356140d281614837565b809150509250929050565b6000602082840312156140ef57600080fd5b81356001600160e01b031981168114612b1f57600080fd5b60006060828403121561411957600080fd5b6040516060810181811067ffffffffffffffff8211171561413c5761413c614821565b6040528235600a811061414e57600080fd5b8152602083810135908201526040928301359281019290925250919050565b6000610340828403121561418057600080fd5b50919050565b6000806040838503121561419957600080fd5b505080516020909101519092909150565b6000602082840312156141bc57600080fd5b815160ff81168114612b1f57600080fd5b600081518084526020808501945080840160005b838110156142065781516001600160a01b0316875295820195908201906001016141e1565b509495945050505050565b600081518084526020808501945080840160005b8381101561420657815180516001600160a01b03908116895284820151168489015260409081015115159088015260609096019590820190600101614225565b6003811061428357634e487b7160e01b600052602160045260246000fd5b9052565b6000825161429981846020870161479c565b9190910192915050565b7f416363657373436f6e74726f6c3a206163636f756e74200000000000000000008152600083516142db81601785016020880161479c565b7001034b99036b4b9b9b4b733903937b6329607d1b601791840191820152835161430c81602884016020880161479c565b01602801949350505050565b6001600160a01b038316815260406020820181905260009061433c908301846141cd565b949350505050565b6001600160a01b03929092168252602082015260400190565b602081526000612b1f60208301846141cd565b602080825282518282018190526000919060409081850190868401855b828110156143d257815180516001600160a01b03168552868101518786015285810151868601526060908101511515908501526080909301929085019060010161438d565b5091979650505050505050565b604081016143ed8285614265565b8260208301529392505050565b602081526000825180602084015261441981604085016020870161479c565b601f01601f19169190910160400192915050565b60208082526017908201527f5265737472696374656420746f2045584348414e474552000000000000000000604082015260600190565b6020808252602c908201527f46756e6374696f6e206d7573742062652063616c6c6564207468726f7567682060408201526b19195b1959d85d1958d85b1b60a21b606082015260800190565b6020808252602c908201527f46756e6374696f6e206d7573742062652063616c6c6564207468726f7567682060408201526b6163746976652070726f787960a01b606082015260800190565b6020808252602e908201527f496e697469616c697a61626c653a20636f6e747261637420697320616c72656160408201526d191e481a5b9a5d1a585b1a5e995960921b606082015260800190565b82815260406020820152600061433c60408301846141cd565b82815260406020820152600061433c6040830184614211565b85815284602082015260a06040820152600061459b60a08301866141cd565b6001600160a01b0394909416606083015250608001529392505050565b85815284602082015260a06040820152600061459b60a0830186614211565b6040516080810167ffffffffffffffff811182821017156145fa576145fa614821565b60405290565b604051601f8201601f1916810167ffffffffffffffff8111828210171561462957614629614821565b604052919050565b600067ffffffffffffffff82111561464b5761464b614821565b5060051b60200190565b60008219821115614668576146686147df565b500190565b60008261468a57634e487b7160e01b600052601260045260246000fd5b500490565b600181815b808511156146ca5781600019048211156146b0576146b06147df565b808516156146bd57918102915b93841c9390800290614694565b509250929050565b6000612b1f60ff8416836000826146eb57506001610b40565b816146f857506000610b40565b816001811461470e576002811461471857614734565b6001915050610b40565b60ff841115614729576147296147df565b50506001821b610b40565b5060208310610133831016604e8410600b8410161715614757575081810a610b40565b614761838361468f565b8060001904821115614775576147756147df565b029392505050565b6000816000190483118215151615614797576147976147df565b500290565b60005b838110156147b757818101518382015260200161479f565b83811115612c4b5750506000910152565b6000816147d7576147d76147df565b506000190190565b634e487b7160e01b600052601160045260246000fd5b634e487b7160e01b600052602160045260246000fd5b634e487b7160e01b600052603260045260246000fd5b634e487b7160e01b600052604160045260246000fd5b6001600160a01b03811681146117f657600080fdfe6578656375746520616374696f6e2057495448445241575f41535345545f46524f4d5f414156456578656375746520616374696f6e20535741505f544f4b454e5f544f5f41535345546578656375746520616374696f6e2052455041595f544f4b454e5f544f5f41415645126c7c8716c8f1c7c73a7370c820c7d73a9b4ed0ad633cfce1092f9ff47c85746578656375746520616374696f6e20535741505f555344504c55535f544f5f41535345546578656375746520616374696f6e20535550504c595f41535345545f544f5f414156456578656375746520616374696f6e20424f52524f575f544f4b454e5f46524f4d5f414156453eb675f159e6ca6cf5de6bfbbc8c4521cfd428f5e9166e51094d5898504caf2d6578656375746520616374696f6e20535741505f41535345545f544f5f555344504c5553360894a13ba1a3210667c828492db98dca3e2076cc3735a920a3ca505d382bbc6578656375746520616374696f6e20535741505f41535345545f544f5f544f4b454e416464726573733a206c6f772d6c6576656c2064656c65676174652063616c6c206661696c6564a26469706673582212207ebb8762de54345375970a2813b0c998425086a66c159acd843f49b763006dce64736f6c63430008060033",
  "devdoc": {
    "kind": "dev",
    "methods": {
      "constructor": {
        "custom:oz-upgrades-unsafe-allow": "constructor"
      },
      "getRoleAdmin(bytes32)": {
        "details": "Returns the admin role that controls `role`. See {grantRole} and {revokeRole}. To change a role's admin, use {_setRoleAdmin}."
      },
      "grantRole(bytes32,address)": {
        "details": "Grants `role` to `account`. If `account` had not been already granted `role`, emits a {RoleGranted} event. Requirements: - the caller must have ``role``'s admin role. May emit a {RoleGranted} event."
      },
      "hasRole(bytes32,address)": {
        "details": "Returns `true` if `account` has been granted `role`."
      },
      "proxiableUUID()": {
        "details": "Implementation of the ERC1822 {proxiableUUID} function. This returns the storage slot used by the implementation. It is used to validate that the this implementation remains valid after an upgrade. IMPORTANT: A proxy pointing at a proxiable contract should not be considered proxiable itself, because this risks bricking a proxy that upgrades to it, by delegating to itself until out of gas. Thus it is critical that this function revert if invoked through a proxy. This is guaranteed by the `notDelegated` modifier."
      },
      "renounceRole(bytes32,address)": {
        "details": "Revokes `role` from the calling account. Roles are often managed via {grantRole} and {revokeRole}: this function's purpose is to provide a mechanism for accounts to lose their privileges if they are compromised (such as when a trusted device is misplaced). If the calling account had been revoked `role`, emits a {RoleRevoked} event. Requirements: - the caller must be `account`. May emit a {RoleRevoked} event."
      },
      "revokeRole(bytes32,address)": {
        "details": "Revokes `role` from `account`. If `account` had been granted `role`, emits a {RoleRevoked} event. Requirements: - the caller must have ``role``'s admin role. May emit a {RoleRevoked} event."
      },
      "supportsInterface(bytes4)": {
        "details": "See {IERC165-supportsInterface}."
      },
      "upgradeTo(address)": {
        "details": "Upgrade the implementation of the proxy to `newImplementation`. Calls {_authorizeUpgrade}. Emits an {Upgraded} event."
      },
      "upgradeToAndCall(address,bytes)": {
        "details": "Upgrade the implementation of the proxy to `newImplementation`, and subsequently execute the function call encoded in `data`. Calls {_authorizeUpgrade}. Emits an {Upgraded} event."
      }
    },
    "version": 1
  },
  "userdoc": {
    "kind": "user",
    "methods": {},
    "version": 1
  },
  "storageLayout": {
    "storage": [
      {
        "astId": 808,
        "contract": "contracts/StrategyBusdWbnb.sol:StrategyBusdWbnb",
        "label": "_initialized",
        "offset": 0,
        "slot": "0",
        "type": "t_uint8"
      },
      {
        "astId": 811,
        "contract": "contracts/StrategyBusdWbnb.sol:StrategyBusdWbnb",
        "label": "_initializing",
        "offset": 1,
        "slot": "0",
        "type": "t_bool"
      },
      {
        "astId": 1372,
        "contract": "contracts/StrategyBusdWbnb.sol:StrategyBusdWbnb",
        "label": "__gap",
        "offset": 0,
        "slot": "1",
        "type": "t_array(t_uint256)50_storage"
      },
      {
        "astId": 1702,
        "contract": "contracts/StrategyBusdWbnb.sol:StrategyBusdWbnb",
        "label": "__gap",
        "offset": 0,
        "slot": "51",
        "type": "t_array(t_uint256)50_storage"
      },
      {
        "astId": 39,
        "contract": "contracts/StrategyBusdWbnb.sol:StrategyBusdWbnb",
        "label": "_roles",
        "offset": 0,
        "slot": "101",
        "type": "t_mapping(t_bytes32,t_struct(RoleData)34_storage)"
      },
      {
        "astId": 338,
        "contract": "contracts/StrategyBusdWbnb.sol:StrategyBusdWbnb",
        "label": "__gap",
        "offset": 0,
        "slot": "102",
        "type": "t_array(t_uint256)49_storage"
      },
      {
        "astId": 790,
        "contract": "contracts/StrategyBusdWbnb.sol:StrategyBusdWbnb",
        "label": "__gap",
        "offset": 0,
        "slot": "151",
        "type": "t_array(t_uint256)50_storage"
      },
      {
        "astId": 1087,
        "contract": "contracts/StrategyBusdWbnb.sol:StrategyBusdWbnb",
        "label": "__gap",
        "offset": 0,
        "slot": "201",
        "type": "t_array(t_uint256)50_storage"
      },
      {
        "astId": 20711,
        "contract": "contracts/StrategyBusdWbnb.sol:StrategyBusdWbnb",
        "label": "asset",
        "offset": 0,
        "slot": "251",
        "type": "t_contract(IERC20)2379"
      },
      {
        "astId": 20713,
        "contract": "contracts/StrategyBusdWbnb.sol:StrategyBusdWbnb",
        "label": "exchanger",
        "offset": 0,
        "slot": "252",
        "type": "t_address"
      },
      {
        "astId": 20993,
        "contract": "contracts/StrategyBusdWbnb.sol:StrategyBusdWbnb",
        "label": "__gap",
        "offset": 0,
        "slot": "253",
        "type": "t_array(t_uint256)49_storage"
      },
      {
        "astId": 13889,
        "contract": "contracts/StrategyBusdWbnb.sol:StrategyBusdWbnb",
        "label": "usdPlus",
        "offset": 0,
        "slot": "302",
        "type": "t_contract(IERC20)2379"
      },
      {
        "astId": 13892,
        "contract": "contracts/StrategyBusdWbnb.sol:StrategyBusdWbnb",
        "label": "busd",
        "offset": 0,
        "slot": "303",
        "type": "t_contract(IERC20)2379"
      },
      {
        "astId": 13895,
        "contract": "contracts/StrategyBusdWbnb.sol:StrategyBusdWbnb",
        "label": "wbnb",
        "offset": 0,
        "slot": "304",
        "type": "t_contract(IERC20)2379"
      },
      {
        "astId": 13898,
        "contract": "contracts/StrategyBusdWbnb.sol:StrategyBusdWbnb",
        "label": "vBusdToken",
        "offset": 0,
        "slot": "305",
        "type": "t_contract(VenusInterface)13801"
      },
      {
        "astId": 13901,
        "contract": "contracts/StrategyBusdWbnb.sol:StrategyBusdWbnb",
        "label": "vBnbToken",
        "offset": 0,
        "slot": "306",
        "type": "t_contract(VenusInterface)13801"
      },
      {
        "astId": 13904,
        "contract": "contracts/StrategyBusdWbnb.sol:StrategyBusdWbnb",
        "label": "xvsToken",
        "offset": 0,
        "slot": "307",
        "type": "t_contract(IERC20)2379"
      },
      {
        "astId": 13906,
        "contract": "contracts/StrategyBusdWbnb.sol:StrategyBusdWbnb",
        "label": "busdDm",
        "offset": 0,
        "slot": "308",
        "type": "t_uint256"
      },
      {
        "astId": 13908,
        "contract": "contracts/StrategyBusdWbnb.sol:StrategyBusdWbnb",
        "label": "wbnbDm",
        "offset": 0,
        "slot": "309",
        "type": "t_uint256"
      },
      {
        "astId": 13910,
        "contract": "contracts/StrategyBusdWbnb.sol:StrategyBusdWbnb",
        "label": "bnbDm",
        "offset": 0,
        "slot": "310",
        "type": "t_uint256"
      },
      {
        "astId": 13913,
        "contract": "contracts/StrategyBusdWbnb.sol:StrategyBusdWbnb",
        "label": "oracleBusd",
        "offset": 0,
        "slot": "311",
        "type": "t_contract(IPriceFeed)5091"
      },
      {
        "astId": 13916,
        "contract": "contracts/StrategyBusdWbnb.sol:StrategyBusdWbnb",
        "label": "oracleWbnb",
        "offset": 0,
        "slot": "312",
        "type": "t_contract(IPriceFeed)5091"
      },
      {
        "astId": 13919,
        "contract": "contracts/StrategyBusdWbnb.sol:StrategyBusdWbnb",
        "label": "coneRouter",
        "offset": 0,
        "slot": "313",
        "type": "t_contract(IConeRouter01)5564"
      },
      {
        "astId": 13922,
        "contract": "contracts/StrategyBusdWbnb.sol:StrategyBusdWbnb",
        "label": "conePair",
        "offset": 0,
        "slot": "314",
        "type": "t_contract(IConePair)5808"
      },
      {
        "astId": 13925,
        "contract": "contracts/StrategyBusdWbnb.sol:StrategyBusdWbnb",
        "label": "coneVoter",
        "offset": 0,
        "slot": "315",
        "type": "t_contract(IConeVoter)6262"
      },
      {
        "astId": 13928,
        "contract": "contracts/StrategyBusdWbnb.sol:StrategyBusdWbnb",
        "label": "coneGauge",
        "offset": 0,
        "slot": "316",
        "type": "t_contract(IGauge)5707"
      },
      {
        "astId": 13931,
        "contract": "contracts/StrategyBusdWbnb.sol:StrategyBusdWbnb",
        "label": "coneToken",
        "offset": 0,
        "slot": "317",
        "type": "t_contract(IERC20)2379"
      },
      {
        "astId": 13934,
        "contract": "contracts/StrategyBusdWbnb.sol:StrategyBusdWbnb",
        "label": "veCone",
        "offset": 0,
        "slot": "318",
        "type": "t_contract(VeCone)6185"
      },
      {
        "astId": 13936,
        "contract": "contracts/StrategyBusdWbnb.sol:StrategyBusdWbnb",
        "label": "veConeId",
        "offset": 0,
        "slot": "319",
        "type": "t_uint256"
      },
      {
        "astId": 13939,
        "contract": "contracts/StrategyBusdWbnb.sol:StrategyBusdWbnb",
        "label": "unkwnToken",
        "offset": 0,
        "slot": "320",
        "type": "t_contract(IERC20)2379"
      },
      {
        "astId": 13942,
        "contract": "contracts/StrategyBusdWbnb.sol:StrategyBusdWbnb",
        "label": "unkwnUserProxy",
        "offset": 0,
        "slot": "321",
        "type": "t_contract(IUserProxy)13421"
      },
      {
        "astId": 13945,
        "contract": "contracts/StrategyBusdWbnb.sol:StrategyBusdWbnb",
        "label": "unkwnLens",
        "offset": 0,
        "slot": "322",
        "type": "t_contract(IUnkwnLens)13110"
      },
      {
        "astId": 13948,
        "contract": "contracts/StrategyBusdWbnb.sol:StrategyBusdWbnb",
        "label": "exchange",
        "offset": 0,
        "slot": "323",
        "type": "t_contract(IExchange)13852"
      },
      {
        "astId": 13950,
        "contract": "contracts/StrategyBusdWbnb.sol:StrategyBusdWbnb",
        "label": "tokenAssetSlippagePercent",
        "offset": 0,
        "slot": "324",
        "type": "t_uint256"
      },
      {
        "astId": 13952,
        "contract": "contracts/StrategyBusdWbnb.sol:StrategyBusdWbnb",
        "label": "liquidationThreshold",
        "offset": 0,
        "slot": "325",
        "type": "t_uint256"
      },
      {
        "astId": 13954,
        "contract": "contracts/StrategyBusdWbnb.sol:StrategyBusdWbnb",
        "label": "healthFactor",
        "offset": 0,
        "slot": "326",
        "type": "t_uint256"
      },
      {
        "astId": 13956,
        "contract": "contracts/StrategyBusdWbnb.sol:StrategyBusdWbnb",
        "label": "realHealthFactor",
        "offset": 0,
        "slot": "327",
        "type": "t_uint256"
      },
      {
        "astId": 13959,
        "contract": "contracts/StrategyBusdWbnb.sol:StrategyBusdWbnb",
        "label": "maximillion",
        "offset": 0,
        "slot": "328",
        "type": "t_contract(Maximillion)13486"
      },
      {
        "astId": 13962,
        "contract": "contracts/StrategyBusdWbnb.sol:StrategyBusdWbnb",
        "label": "unitroller",
        "offset": 0,
        "slot": "329",
        "type": "t_contract(Unitroller)13478"
      },
      {
        "astId": 13965,
        "contract": "contracts/StrategyBusdWbnb.sol:StrategyBusdWbnb",
        "label": "control",
        "offset": 0,
        "slot": "330",
        "type": "t_contract(ControlBusdWbnb)19464"
      },
      {
        "astId": 13968,
        "contract": "contracts/StrategyBusdWbnb.sol:StrategyBusdWbnb",
        "label": "pancakeRouter",
        "offset": 0,
        "slot": "331",
        "type": "t_contract(IPancakeRouter02)10504"
      }
    ],
    "types": {
      "t_address": {
        "encoding": "inplace",
        "label": "address",
        "numberOfBytes": "20"
      },
      "t_array(t_uint256)49_storage": {
        "base": "t_uint256",
        "encoding": "inplace",
        "label": "uint256[49]",
        "numberOfBytes": "1568"
      },
      "t_array(t_uint256)50_storage": {
        "base": "t_uint256",
        "encoding": "inplace",
        "label": "uint256[50]",
        "numberOfBytes": "1600"
      },
      "t_bool": {
        "encoding": "inplace",
        "label": "bool",
        "numberOfBytes": "1"
      },
      "t_bytes32": {
        "encoding": "inplace",
        "label": "bytes32",
        "numberOfBytes": "32"
      },
      "t_contract(ControlBusdWbnb)19464": {
        "encoding": "inplace",
        "label": "contract ControlBusdWbnb",
        "numberOfBytes": "20"
      },
      "t_contract(IConePair)5808": {
        "encoding": "inplace",
        "label": "contract IConePair",
        "numberOfBytes": "20"
      },
      "t_contract(IConeRouter01)5564": {
        "encoding": "inplace",
        "label": "contract IConeRouter01",
        "numberOfBytes": "20"
      },
      "t_contract(IConeVoter)6262": {
        "encoding": "inplace",
        "label": "contract IConeVoter",
        "numberOfBytes": "20"
      },
      "t_contract(IERC20)2379": {
        "encoding": "inplace",
        "label": "contract IERC20",
        "numberOfBytes": "20"
      },
      "t_contract(IExchange)13852": {
        "encoding": "inplace",
        "label": "contract IExchange",
        "numberOfBytes": "20"
      },
      "t_contract(IGauge)5707": {
        "encoding": "inplace",
        "label": "contract IGauge",
        "numberOfBytes": "20"
      },
      "t_contract(IPancakeRouter02)10504": {
        "encoding": "inplace",
        "label": "contract IPancakeRouter02",
        "numberOfBytes": "20"
      },
      "t_contract(IPriceFeed)5091": {
        "encoding": "inplace",
        "label": "contract IPriceFeed",
        "numberOfBytes": "20"
      },
      "t_contract(IUnkwnLens)13110": {
        "encoding": "inplace",
        "label": "contract IUnkwnLens",
        "numberOfBytes": "20"
      },
      "t_contract(IUserProxy)13421": {
        "encoding": "inplace",
        "label": "contract IUserProxy",
        "numberOfBytes": "20"
      },
      "t_contract(Maximillion)13486": {
        "encoding": "inplace",
        "label": "contract Maximillion",
        "numberOfBytes": "20"
      },
      "t_contract(Unitroller)13478": {
        "encoding": "inplace",
        "label": "contract Unitroller",
        "numberOfBytes": "20"
      },
      "t_contract(VeCone)6185": {
        "encoding": "inplace",
        "label": "contract VeCone",
        "numberOfBytes": "20"
      },
      "t_contract(VenusInterface)13801": {
        "encoding": "inplace",
        "label": "contract VenusInterface",
        "numberOfBytes": "20"
      },
      "t_mapping(t_address,t_bool)": {
        "encoding": "mapping",
        "key": "t_address",
        "label": "mapping(address => bool)",
        "numberOfBytes": "32",
        "value": "t_bool"
      },
      "t_mapping(t_bytes32,t_struct(RoleData)34_storage)": {
        "encoding": "mapping",
        "key": "t_bytes32",
        "label": "mapping(bytes32 => struct AccessControlUpgradeable.RoleData)",
        "numberOfBytes": "32",
        "value": "t_struct(RoleData)34_storage"
      },
      "t_struct(RoleData)34_storage": {
        "encoding": "inplace",
        "label": "struct AccessControlUpgradeable.RoleData",
        "members": [
          {
            "astId": 31,
            "contract": "contracts/StrategyBusdWbnb.sol:StrategyBusdWbnb",
            "label": "members",
            "offset": 0,
            "slot": "0",
            "type": "t_mapping(t_address,t_bool)"
          },
          {
            "astId": 33,
            "contract": "contracts/StrategyBusdWbnb.sol:StrategyBusdWbnb",
            "label": "adminRole",
            "offset": 0,
            "slot": "1",
            "type": "t_bytes32"
          }
        ],
        "numberOfBytes": "64"
      },
      "t_uint256": {
        "encoding": "inplace",
        "label": "uint256",
        "numberOfBytes": "32"
      },
      "t_uint8": {
        "encoding": "inplace",
        "label": "uint8",
        "numberOfBytes": "1"
      }
    }
  }
}