{
  "address": "0x7802aa233497308989239BC3124d55Af57d9873C",
  "abi": [
    {
      "inputs": [],
      "stateMutability": "nonpayable",
      "type": "constructor"
    },
    {
      "anonymous": false,
      "inputs": [
        {
          "indexed": false,
          "internalType": "address",
          "name": "previousAdmin",
          "type": "address"
        },
        {
          "indexed": false,
          "internalType": "address",
          "name": "newAdmin",
          "type": "address"
        }
      ],
      "name": "AdminChanged",
      "type": "event"
    },
    {
      "anonymous": false,
      "inputs": [
        {
          "indexed": true,
          "internalType": "address",
          "name": "beacon",
          "type": "address"
        }
      ],
      "name": "BeaconUpgraded",
      "type": "event"
    },
    {
      "anonymous": false,
      "inputs": [
        {
          "indexed": false,
          "internalType": "uint8",
          "name": "version",
          "type": "uint8"
        }
      ],
      "name": "Initialized",
      "type": "event"
    },
    {
      "anonymous": false,
      "inputs": [
        {
          "indexed": false,
          "internalType": "uint256",
          "name": "amount",
          "type": "uint256"
        }
      ],
      "name": "Reward",
      "type": "event"
    },
    {
      "anonymous": false,
      "inputs": [
        {
          "indexed": true,
          "internalType": "bytes32",
          "name": "role",
          "type": "bytes32"
        },
        {
          "indexed": true,
          "internalType": "bytes32",
          "name": "previousAdminRole",
          "type": "bytes32"
        },
        {
          "indexed": true,
          "internalType": "bytes32",
          "name": "newAdminRole",
          "type": "bytes32"
        }
      ],
      "name": "RoleAdminChanged",
      "type": "event"
    },
    {
      "anonymous": false,
      "inputs": [
        {
          "indexed": true,
          "internalType": "bytes32",
          "name": "role",
          "type": "bytes32"
        },
        {
          "indexed": true,
          "internalType": "address",
          "name": "account",
          "type": "address"
        },
        {
          "indexed": true,
          "internalType": "address",
          "name": "sender",
          "type": "address"
        }
      ],
      "name": "RoleGranted",
      "type": "event"
    },
    {
      "anonymous": false,
      "inputs": [
        {
          "indexed": true,
          "internalType": "bytes32",
          "name": "role",
          "type": "bytes32"
        },
        {
          "indexed": true,
          "internalType": "address",
          "name": "account",
          "type": "address"
        },
        {
          "indexed": true,
          "internalType": "address",
          "name": "sender",
          "type": "address"
        }
      ],
      "name": "RoleRevoked",
      "type": "event"
    },
    {
      "anonymous": false,
      "inputs": [
        {
          "indexed": false,
          "internalType": "uint256",
          "name": "healthFactor",
          "type": "uint256"
        }
      ],
      "name": "SetHealthFactor",
      "type": "event"
    },
    {
      "anonymous": false,
      "inputs": [
        {
          "indexed": false,
          "internalType": "uint256",
          "name": "amount",
          "type": "uint256"
        }
      ],
      "name": "Stake",
      "type": "event"
    },
    {
      "anonymous": false,
      "inputs": [
        {
          "indexed": false,
          "internalType": "uint256",
          "name": "amount",
          "type": "uint256"
        },
        {
          "indexed": false,
          "internalType": "uint256",
          "name": "amountReceived",
          "type": "uint256"
        }
      ],
      "name": "Unstake",
      "type": "event"
    },
    {
      "anonymous": false,
      "inputs": [
        {
          "indexed": true,
          "internalType": "address",
          "name": "implementation",
          "type": "address"
        }
      ],
      "name": "Upgraded",
      "type": "event"
    },
    {
      "inputs": [],
      "name": "BALANCING_BOT_ROLE",
      "outputs": [
        {
          "internalType": "bytes32",
          "name": "",
          "type": "bytes32"
        }
      ],
      "stateMutability": "view",
      "type": "function"
    },
    {
      "inputs": [],
      "name": "CONTROL_ROLE",
      "outputs": [
        {
          "internalType": "bytes32",
          "name": "",
          "type": "bytes32"
        }
      ],
      "stateMutability": "view",
      "type": "function"
    },
    {
      "inputs": [],
      "name": "DEFAULT_ADMIN_ROLE",
      "outputs": [
        {
          "internalType": "bytes32",
          "name": "",
          "type": "bytes32"
        }
      ],
      "stateMutability": "view",
      "type": "function"
    },
    {
      "inputs": [],
      "name": "EXCHANGER",
      "outputs": [
        {
          "internalType": "bytes32",
          "name": "",
          "type": "bytes32"
        }
      ],
      "stateMutability": "view",
      "type": "function"
    },
    {
      "inputs": [],
      "name": "MAX_TIME_LOCK",
      "outputs": [
        {
          "internalType": "uint256",
          "name": "",
          "type": "uint256"
        }
      ],
      "stateMutability": "view",
      "type": "function"
    },
    {
      "inputs": [],
      "name": "MAX_UINT_VALUE",
      "outputs": [
        {
          "internalType": "uint256",
          "name": "",
          "type": "uint256"
        }
      ],
      "stateMutability": "view",
      "type": "function"
    },
    {
      "inputs": [],
      "name": "PORTFOLIO_AGENT_ROLE",
      "outputs": [
        {
          "internalType": "bytes32",
          "name": "",
          "type": "bytes32"
        }
      ],
      "stateMutability": "view",
      "type": "function"
    },
    {
      "inputs": [],
      "name": "UPGRADER_ROLE",
      "outputs": [
        {
          "internalType": "bytes32",
          "name": "",
          "type": "bytes32"
        }
      ],
      "stateMutability": "view",
      "type": "function"
    },
    {
      "inputs": [],
      "name": "asset",
      "outputs": [
        {
          "internalType": "contract IERC20",
          "name": "",
          "type": "address"
        }
      ],
      "stateMutability": "view",
      "type": "function"
    },
    {
      "inputs": [],
      "name": "balance",
      "outputs": [],
      "stateMutability": "nonpayable",
      "type": "function"
    },
    {
      "inputs": [],
      "name": "balances",
      "outputs": [
        {
          "components": [
            {
              "internalType": "address",
              "name": "token",
              "type": "address"
            },
            {
              "internalType": "uint256",
              "name": "amountUSD",
              "type": "uint256"
            },
            {
              "internalType": "uint256",
              "name": "amount",
              "type": "uint256"
            },
            {
              "internalType": "bool",
              "name": "borrowed",
              "type": "bool"
            }
          ],
          "internalType": "struct IHedgeStrategy.BalanceItem[]",
          "name": "",
          "type": "tuple[]"
        }
      ],
      "stateMutability": "view",
      "type": "function"
    },
    {
      "inputs": [],
      "name": "bnbDm",
      "outputs": [
        {
          "internalType": "uint256",
          "name": "",
          "type": "uint256"
        }
      ],
      "stateMutability": "view",
      "type": "function"
    },
    {
      "inputs": [],
      "name": "busd",
      "outputs": [
        {
          "internalType": "contract IERC20",
          "name": "",
          "type": "address"
        }
      ],
      "stateMutability": "view",
      "type": "function"
    },
    {
      "inputs": [],
      "name": "busdDm",
      "outputs": [
        {
          "internalType": "uint256",
          "name": "",
          "type": "uint256"
        }
      ],
      "stateMutability": "view",
      "type": "function"
    },
    {
      "inputs": [
        {
          "internalType": "address",
          "name": "_to",
          "type": "address"
        }
      ],
      "name": "claimRewards",
      "outputs": [
        {
          "internalType": "uint256",
          "name": "",
          "type": "uint256"
        }
      ],
      "stateMutability": "nonpayable",
      "type": "function"
    },
    {
      "inputs": [],
      "name": "coneGauge",
      "outputs": [
        {
          "internalType": "contract IGauge",
          "name": "",
          "type": "address"
        }
      ],
      "stateMutability": "view",
      "type": "function"
    },
    {
      "inputs": [],
      "name": "conePair",
      "outputs": [
        {
          "internalType": "contract IConePair",
          "name": "",
          "type": "address"
        }
      ],
      "stateMutability": "view",
      "type": "function"
    },
    {
      "inputs": [],
      "name": "coneRouter",
      "outputs": [
        {
          "internalType": "contract IConeRouter01",
          "name": "",
          "type": "address"
        }
      ],
      "stateMutability": "view",
      "type": "function"
    },
    {
      "inputs": [],
      "name": "coneToken",
      "outputs": [
        {
          "internalType": "contract IERC20",
          "name": "",
          "type": "address"
        }
      ],
      "stateMutability": "view",
      "type": "function"
    },
    {
      "inputs": [],
      "name": "coneVoter",
      "outputs": [
        {
          "internalType": "contract IConeVoter",
          "name": "",
          "type": "address"
        }
      ],
      "stateMutability": "view",
      "type": "function"
    },
    {
      "inputs": [],
      "name": "control",
      "outputs": [
        {
          "internalType": "contract ControlBusdWbnb",
          "name": "",
          "type": "address"
        }
      ],
      "stateMutability": "view",
      "type": "function"
    },
    {
      "inputs": [],
      "name": "currentHealthFactor",
      "outputs": [
        {
          "internalType": "uint256",
          "name": "",
          "type": "uint256"
        }
      ],
      "stateMutability": "view",
      "type": "function"
    },
    {
      "inputs": [],
      "name": "exchange",
      "outputs": [
        {
          "internalType": "contract IExchange",
          "name": "",
          "type": "address"
        }
      ],
      "stateMutability": "view",
      "type": "function"
    },
    {
      "inputs": [],
      "name": "exchanger",
      "outputs": [
        {
          "internalType": "address",
          "name": "",
          "type": "address"
        }
      ],
      "stateMutability": "view",
      "type": "function"
    },
    {
      "inputs": [
        {
          "components": [
            {
              "internalType": "enum ActionType",
              "name": "actionType",
              "type": "uint8"
            },
            {
              "internalType": "uint256",
              "name": "amount",
              "type": "uint256"
            },
            {
              "internalType": "uint256",
              "name": "slippagePercent",
              "type": "uint256"
            }
          ],
          "internalType": "struct Action",
          "name": "action",
          "type": "tuple"
        }
      ],
      "name": "executeAction",
      "outputs": [],
      "stateMutability": "nonpayable",
      "type": "function"
    },
    {
      "inputs": [
        {
          "internalType": "bytes32",
          "name": "role",
          "type": "bytes32"
        }
      ],
      "name": "getRoleAdmin",
      "outputs": [
        {
          "internalType": "bytes32",
          "name": "",
          "type": "bytes32"
        }
      ],
      "stateMutability": "view",
      "type": "function"
    },
    {
      "inputs": [
        {
          "internalType": "bytes32",
          "name": "role",
          "type": "bytes32"
        },
        {
          "internalType": "address",
          "name": "account",
          "type": "address"
        }
      ],
      "name": "grantRole",
      "outputs": [],
      "stateMutability": "nonpayable",
      "type": "function"
    },
    {
      "inputs": [
        {
          "internalType": "bytes32",
          "name": "role",
          "type": "bytes32"
        },
        {
          "internalType": "address",
          "name": "account",
          "type": "address"
        }
      ],
      "name": "hasRole",
      "outputs": [
        {
          "internalType": "bool",
          "name": "",
          "type": "bool"
        }
      ],
      "stateMutability": "view",
      "type": "function"
    },
    {
      "inputs": [],
      "name": "healthFactor",
      "outputs": [
        {
          "internalType": "uint256",
          "name": "",
          "type": "uint256"
        }
      ],
      "stateMutability": "view",
      "type": "function"
    },
    {
      "inputs": [],
      "name": "initialize",
      "outputs": [],
      "stateMutability": "nonpayable",
      "type": "function"
    },
    {
      "inputs": [],
      "name": "liquidationThreshold",
      "outputs": [
        {
          "internalType": "uint256",
          "name": "",
          "type": "uint256"
        }
      ],
      "stateMutability": "view",
      "type": "function"
    },
    {
      "inputs": [],
      "name": "maximillion",
      "outputs": [
        {
          "internalType": "contract Maximillion",
          "name": "",
          "type": "address"
        }
      ],
      "stateMutability": "view",
      "type": "function"
    },
    {
      "inputs": [],
      "name": "netAssetValue",
      "outputs": [
        {
          "internalType": "uint256",
          "name": "",
          "type": "uint256"
        }
      ],
      "stateMutability": "view",
      "type": "function"
    },
    {
      "inputs": [],
      "name": "oracleBusd",
      "outputs": [
        {
          "internalType": "contract IPriceFeed",
          "name": "",
          "type": "address"
        }
      ],
      "stateMutability": "view",
      "type": "function"
    },
    {
      "inputs": [],
      "name": "oracleWbnb",
      "outputs": [
        {
          "internalType": "contract IPriceFeed",
          "name": "",
          "type": "address"
        }
      ],
      "stateMutability": "view",
      "type": "function"
    },
    {
      "inputs": [],
      "name": "pancakeRouter",
      "outputs": [
        {
          "internalType": "contract IPancakeRouter02",
          "name": "",
          "type": "address"
        }
      ],
      "stateMutability": "view",
      "type": "function"
    },
    {
      "inputs": [],
      "name": "proxiableUUID",
      "outputs": [
        {
          "internalType": "bytes32",
          "name": "",
          "type": "bytes32"
        }
      ],
      "stateMutability": "view",
      "type": "function"
    },
    {
      "inputs": [],
      "name": "realHealthFactor",
      "outputs": [
        {
          "internalType": "uint256",
          "name": "",
          "type": "uint256"
        }
      ],
      "stateMutability": "view",
      "type": "function"
    },
    {
      "inputs": [
        {
          "internalType": "bytes32",
          "name": "role",
          "type": "bytes32"
        },
        {
          "internalType": "address",
          "name": "account",
          "type": "address"
        }
      ],
      "name": "renounceRole",
      "outputs": [],
      "stateMutability": "nonpayable",
      "type": "function"
    },
    {
      "inputs": [
        {
          "internalType": "bytes32",
          "name": "role",
          "type": "bytes32"
        },
        {
          "internalType": "address",
          "name": "account",
          "type": "address"
        }
      ],
      "name": "revokeRole",
      "outputs": [],
      "stateMutability": "nonpayable",
      "type": "function"
    },
    {
      "inputs": [
        {
          "internalType": "address",
          "name": "_value",
          "type": "address"
        }
      ],
      "name": "setExchanger",
      "outputs": [],
      "stateMutability": "nonpayable",
      "type": "function"
    },
    {
      "inputs": [
        {
          "internalType": "uint256",
          "name": "newHealthFactor",
          "type": "uint256"
        }
      ],
      "name": "setHealthFactor",
      "outputs": [],
      "stateMutability": "nonpayable",
      "type": "function"
    },
    {
      "inputs": [
        {
          "components": [
            {
              "internalType": "address",
              "name": "usdPlus",
              "type": "address"
            },
            {
              "internalType": "address",
              "name": "busd",
              "type": "address"
            },
            {
              "internalType": "address",
              "name": "wbnb",
              "type": "address"
            },
            {
              "internalType": "address",
              "name": "vBusdToken",
              "type": "address"
            },
            {
              "internalType": "address",
              "name": "vBnbToken",
              "type": "address"
            },
            {
              "internalType": "address",
              "name": "xvsToken",
              "type": "address"
            },
            {
              "internalType": "address",
              "name": "unitroller",
              "type": "address"
            },
            {
              "internalType": "address",
              "name": "maximillion",
              "type": "address"
            },
            {
              "internalType": "address",
              "name": "oracleBusd",
              "type": "address"
            },
            {
              "internalType": "address",
              "name": "oracleWbnb",
              "type": "address"
            },
            {
              "internalType": "address",
              "name": "coneRouter",
              "type": "address"
            },
            {
              "internalType": "address",
              "name": "conePair",
              "type": "address"
            },
            {
              "internalType": "address",
              "name": "coneVoter",
              "type": "address"
            },
            {
              "internalType": "address",
              "name": "coneGauge",
              "type": "address"
            },
            {
              "internalType": "address",
              "name": "coneToken",
              "type": "address"
            },
            {
              "internalType": "address",
              "name": "veCone",
              "type": "address"
            },
            {
              "internalType": "uint256",
              "name": "veConeId",
              "type": "uint256"
            },
            {
              "internalType": "address",
              "name": "exchange",
              "type": "address"
            },
            {
              "internalType": "uint256",
              "name": "tokenAssetSlippagePercent",
              "type": "uint256"
            },
            {
              "internalType": "uint256",
              "name": "liquidationThreshold",
              "type": "uint256"
            },
            {
              "internalType": "uint256",
              "name": "healthFactor",
              "type": "uint256"
            },
            {
              "internalType": "address",
              "name": "unkwnToken",
              "type": "address"
            },
            {
              "internalType": "address",
              "name": "unkwnUserProxy",
              "type": "address"
            },
            {
              "internalType": "address",
              "name": "unkwnLens",
              "type": "address"
            },
            {
              "internalType": "address",
              "name": "control",
              "type": "address"
            },
            {
              "internalType": "address",
              "name": "pancakeRouter",
              "type": "address"
            }
          ],
          "internalType": "struct StrategyBusdWbnb.SetupParams",
          "name": "params",
          "type": "tuple"
        }
      ],
      "name": "setParams",
      "outputs": [],
      "stateMutability": "nonpayable",
      "type": "function"
    },
    {
      "inputs": [
        {
          "internalType": "uint256",
          "name": "_realHealthFactor",
          "type": "uint256"
        }
      ],
      "name": "setRealHealthFactor",
      "outputs": [],
      "stateMutability": "nonpayable",
      "type": "function"
    },
    {
      "inputs": [
        {
          "internalType": "uint256",
          "name": "_amount",
          "type": "uint256"
        }
      ],
      "name": "stake",
      "outputs": [],
      "stateMutability": "nonpayable",
      "type": "function"
    },
    {
      "inputs": [
        {
          "internalType": "bytes4",
          "name": "interfaceId",
          "type": "bytes4"
        }
      ],
      "name": "supportsInterface",
      "outputs": [
        {
          "internalType": "bool",
          "name": "",
          "type": "bool"
        }
      ],
      "stateMutability": "view",
      "type": "function"
    },
    {
      "inputs": [],
      "name": "tokenAssetSlippagePercent",
      "outputs": [
        {
          "internalType": "uint256",
          "name": "",
          "type": "uint256"
        }
      ],
      "stateMutability": "view",
      "type": "function"
    },
    {
      "inputs": [],
      "name": "unitroller",
      "outputs": [
        {
          "internalType": "contract Unitroller",
          "name": "",
          "type": "address"
        }
      ],
      "stateMutability": "view",
      "type": "function"
    },
    {
      "inputs": [],
      "name": "unkwnLens",
      "outputs": [
        {
          "internalType": "contract IUnkwnLens",
          "name": "",
          "type": "address"
        }
      ],
      "stateMutability": "view",
      "type": "function"
    },
    {
      "inputs": [],
      "name": "unkwnToken",
      "outputs": [
        {
          "internalType": "contract IERC20",
          "name": "",
          "type": "address"
        }
      ],
      "stateMutability": "view",
      "type": "function"
    },
    {
      "inputs": [],
      "name": "unkwnUserProxy",
      "outputs": [
        {
          "internalType": "contract IUserProxy",
          "name": "",
          "type": "address"
        }
      ],
      "stateMutability": "view",
      "type": "function"
    },
    {
      "inputs": [
        {
          "internalType": "uint256",
          "name": "_amount",
          "type": "uint256"
        },
        {
          "internalType": "address",
          "name": "_to",
          "type": "address"
        }
      ],
      "name": "unstake",
      "outputs": [
        {
          "internalType": "uint256",
          "name": "",
          "type": "uint256"
        }
      ],
      "stateMutability": "nonpayable",
      "type": "function"
    },
    {
      "inputs": [
        {
          "internalType": "address",
          "name": "newImplementation",
          "type": "address"
        }
      ],
      "name": "upgradeTo",
      "outputs": [],
      "stateMutability": "nonpayable",
      "type": "function"
    },
    {
      "inputs": [
        {
          "internalType": "address",
          "name": "newImplementation",
          "type": "address"
        },
        {
          "internalType": "bytes",
          "name": "data",
          "type": "bytes"
        }
      ],
      "name": "upgradeToAndCall",
      "outputs": [],
      "stateMutability": "payable",
      "type": "function"
    },
    {
      "inputs": [],
      "name": "usdPlus",
      "outputs": [
        {
          "internalType": "contract IERC20",
          "name": "",
          "type": "address"
        }
      ],
      "stateMutability": "view",
      "type": "function"
    },
    {
      "inputs": [],
      "name": "vBnbToken",
      "outputs": [
        {
          "internalType": "contract VenusInterface",
          "name": "",
          "type": "address"
        }
      ],
      "stateMutability": "view",
      "type": "function"
    },
    {
      "inputs": [],
      "name": "vBusdToken",
      "outputs": [
        {
          "internalType": "contract VenusInterface",
          "name": "",
          "type": "address"
        }
      ],
      "stateMutability": "view",
      "type": "function"
    },
    {
      "inputs": [],
      "name": "veCone",
      "outputs": [
        {
          "internalType": "contract VeCone",
          "name": "",
          "type": "address"
        }
      ],
      "stateMutability": "view",
      "type": "function"
    },
    {
      "inputs": [],
      "name": "veConeId",
      "outputs": [
        {
          "internalType": "uint256",
          "name": "",
          "type": "uint256"
        }
      ],
      "stateMutability": "view",
      "type": "function"
    },
    {
      "inputs": [],
      "name": "wbnb",
      "outputs": [
        {
          "internalType": "contract IERC20",
          "name": "",
          "type": "address"
        }
      ],
      "stateMutability": "view",
      "type": "function"
    },
    {
      "inputs": [],
      "name": "wbnbDm",
      "outputs": [
        {
          "internalType": "uint256",
          "name": "",
          "type": "uint256"
        }
      ],
      "stateMutability": "view",
      "type": "function"
    },
    {
      "inputs": [],
      "name": "xvsToken",
      "outputs": [
        {
          "internalType": "contract IERC20",
          "name": "",
          "type": "address"
        }
      ],
      "stateMutability": "view",
      "type": "function"
    },
    {
      "stateMutability": "payable",
      "type": "receive"
    }
  ],
  "numDeployments": 3,
  "solcInputHash": "3d8e8de4cfb1afa94a0741741a2d005e",
  "bytecode": "0x60a06040523060601b6080523480156200001857600080fd5b5060006200002760016200008e565b9050801562000040576000805461ff0019166101001790555b801562000087576000805461ff0019169055604051600181527f7f26b83ff96e1f2b6a682f133852f6798a09c465da95921460cefb38474024989060200160405180910390a15b50620001af565b60008054610100900460ff161562000127578160ff166001148015620000c75750620000c530620001a060201b6200262e1760201c565b155b6200011f5760405162461bcd60e51b815260206004820152602e602482015260008051602062004cd783398151915260448201526d191e481a5b9a5d1a585b1a5e995960921b60648201526084015b60405180910390fd5b506000919050565b60005460ff808416911610620001865760405162461bcd60e51b815260206004820152602e602482015260008051602062004cd783398151915260448201526d191e481a5b9a5d1a585b1a5e995960921b606482015260840162000116565b506000805460ff191660ff92909216919091179055600190565b6001600160a01b03163b151590565b60805160601c614aed620001ea6000396000818161181101528181611851015281816118ee0152818161192e01526119bd0152614aed6000f3fe6080604052600436106103b05760003560e01c806391d14854116101e7578063cb87c0621161010d578063dc2cddf9116100a0578063f72c0d8b1161006f578063f72c0d8b14610af6578063faa9f7dd14610b2a578063fb200baf14610b42578063fb24974a14610b6357600080fd5b8063dc2cddf914610a7d578063eb7147ca14610a94578063ef33f76b14610ab5578063ef5cfb8c14610ad657600080fd5b8063d7a1e6ab116100dc578063d7a1e6ab14610a03578063d8de658714610a25578063da909b0914610a46578063dc19d64314610a6657600080fd5b8063cb87c0621461098a578063cc545bec146109a1578063d2f7265a146109c2578063d547741f146109e357600080fd5b8063aea05b6111610185578063bb94d0f411610154578063bb94d0f414610906578063bd0f105314610927578063c21ebd0714610949578063cad7d46a1461096a57600080fd5b8063aea05b6114610899578063b1ac6c70146108b0578063b69ef8a8146108d0578063bad1d3da146108e557600080fd5b8063a217fddf116101c1578063a217fddf1461082e578063a3673b3814610843578063a66b571314610858578063a694fc3a1461087957600080fd5b806391d14854146107b957806398cad8fd146107d95780639bd59a751461080d57600080fd5b80634244f889116102d75780635dbd733a1161026a5780637bb98a68116102395780637bb98a68146107415780638129fc1c146107635780638381e182146107785780638d72647e1461079857600080fd5b80635dbd733a146106b4578063639d1a4f146106e857806364f8b89a146106ff5780636f84a5ff1461072057600080fd5b806352d1902d116102a657806352d1902d1461064757806358b3ff3e1461065c5780635918be1a1461067d5780635a01f33d1461069e57600080fd5b80634244f889146105d25780634d12fca4146105f35780634f1ef28614610613578063514e460a1461062657600080fd5b80632f2ff15d1161034f578063379d878c1161031e578063379d878c1461055957806338d52e0f1461057a5780633ca5b2341461059a5780634031234c146105bb57600080fd5b80632f2ff15d146104d957806331111708146104f957806336568abe146105195780633659cfe61461053957600080fd5b806322841f011161038b57806322841f011461044b578063248a9ca3146104705780632909cbee146104a05780632a8b096f146104c257600080fd5b8062cb5a83146103bc57806301ffc9a7146103fa5780630ceb9bfe1461042a57600080fd5b366103b757005b600080fd5b3480156103c857600080fd5b50610141546103dd906001600160a01b031681565b6040516001600160a01b0390911681526020015b60405180910390f35b34801561040657600080fd5b5061041a6104153660046141a4565b610b79565b60405190151581526020016103f1565b34801561043657600080fd5b5061013e546103dd906001600160a01b031681565b34801561045757600080fd5b506104626101465481565b6040519081526020016103f1565b34801561047c57600080fd5b5061046261048b366004614142565b60009081526065602052604090206001015490565b3480156104ac57600080fd5b506104c06104bb366004614234565b610bb0565b005b3480156104ce57600080fd5b506104626101475481565b3480156104e557600080fd5b506104c06104f4366004614174565b6116db565b34801561050557600080fd5b506104c0610514366004614142565b611705565b34801561052557600080fd5b506104c0610534366004614174565b611788565b34801561054557600080fd5b506104c0610554366004613ec8565b611806565b34801561056557600080fd5b50610140546103dd906001600160a01b031681565b34801561058657600080fd5b5060fb546103dd906001600160a01b031681565b3480156105a657600080fd5b5061012f546103dd906001600160a01b031681565b3480156105c757600080fd5b506104626101455481565b3480156105de57600080fd5b50610138546103dd906001600160a01b031681565b3480156105ff57600080fd5b5060fc546103dd906001600160a01b031681565b6104c0610621366004613f02565b6118e3565b34801561063257600080fd5b5061012e546103dd906001600160a01b031681565b34801561065357600080fd5b506104626119b0565b34801561066857600080fd5b50610148546103dd906001600160a01b031681565b34801561068957600080fd5b5061013c546103dd906001600160a01b031681565b3480156106aa57600080fd5b5061014754610462565b3480156106c057600080fd5b506104627fd67ad422505496469a1adf6cdf9e5ee92ac5d33992843c9ecc4b2f6d6cde913781565b3480156106f457600080fd5b506104626101355481565b34801561070b57600080fd5b5061013d546103dd906001600160a01b031681565b34801561072c57600080fd5b5061013b546103dd906001600160a01b031681565b34801561074d57600080fd5b50610756611a63565b6040516103f19190614437565b34801561076f57600080fd5b506104c0611aea565b34801561078457600080fd5b50610462610793366004614174565b611b5f565b3480156107a457600080fd5b50610130546103dd906001600160a01b031681565b3480156107c557600080fd5b5061041a6107d4366004614174565b611cca565b3480156107e557600080fd5b506104627fea2dbc222f92f456955c8f6aa0ff0b2767f9e36168a5ef8c93bc1f8720e220b881565b34801561081957600080fd5b5061013a546103dd906001600160a01b031681565b34801561083a57600080fd5b50610462600081565b34801561084f57600080fd5b50610462611cf5565b34801561086457600080fd5b50610137546103dd906001600160a01b031681565b34801561088557600080fd5b506104c0610894366004614142565b611d73565b3480156108a557600080fd5b5061046261013f5481565b3480156108bc57600080fd5b506104c06108cb3660046141ce565b611e59565b3480156108dc57600080fd5b506104c06123e9565b3480156108f157600080fd5b50610149546103dd906001600160a01b031681565b34801561091257600080fd5b50610139546103dd906001600160a01b031681565b34801561093357600080fd5b50610462600080516020614a0b83398151915281565b34801561095557600080fd5b5061014b546103dd906001600160a01b031681565b34801561097657600080fd5b506104c0610985366004614142565b612425565b34801561099657600080fd5b506104626101365481565b3480156109ad57600080fd5b50610131546103dd906001600160a01b031681565b3480156109ce57600080fd5b50610143546103dd906001600160a01b031681565b3480156109ef57600080fd5b506104c06109fe366004614174565b612487565b348015610a0f57600080fd5b5061046260008051602061497f83398151915281565b348015610a3157600080fd5b5061014a546103dd906001600160a01b031681565b348015610a5257600080fd5b506104c0610a61366004613ec8565b6124ac565b348015610a7257600080fd5b506104626101345481565b348015610a8957600080fd5b506104626101445481565b348015610aa057600080fd5b50610142546103dd906001600160a01b031681565b348015610ac157600080fd5b50610132546103dd906001600160a01b031681565b348015610ae257600080fd5b50610462610af1366004613ec8565b6125aa565b348015610b0257600080fd5b506104627f189ab7a9244df0848122154315af71fe140f3db0fe014031783b0946b8c9d2e381565b348015610b3657600080fd5b50610462630786b40d81565b348015610b4e57600080fd5b50610133546103dd906001600160a01b031681565b348015610b6f57600080fd5b5061046260001981565b60006001600160e01b03198216637965db0b60e01b1480610baa57506301ffc9a760e01b6001600160e01b03198316145b92915050565b610bbb600033611cca565b610c035760405162461bcd60e51b81526020600482015260146024820152735265737472696374656420746f2061646d696e7360601b60448201526064015b60405180910390fd5b610c106020820182613ec8565b61012e80546001600160a01b0319166001600160a01b0392909216919091179055610c416040820160208301613ec8565b61012f80546001600160a01b0319166001600160a01b0392909216919091179055610c726060820160408301613ec8565b61013080546001600160a01b0319166001600160a01b0392909216919091179055610ca36080820160608301613ec8565b61013180546001600160a01b0319166001600160a01b0392909216919091179055610cd460a0820160808301613ec8565b61013280546001600160a01b0319166001600160a01b0392909216919091179055610d0560c0820160a08301613ec8565b61013380546001600160a01b0319166001600160a01b0392909216919091179055610d366040820160208301613ec8565b6001600160a01b031663313ce5676040518163ffffffff1660e01b815260040160206040518083038186803b158015610d6e57600080fd5b505afa158015610d82573d6000803e3d6000fd5b505050506040513d601f19601f82011682018060405250810190610da69190614271565b610db190600a614799565b61013455610dc56060820160408301613ec8565b6001600160a01b031663313ce5676040518163ffffffff1660e01b815260040160206040518083038186803b158015610dfd57600080fd5b505afa158015610e11573d6000803e3d6000fd5b505050506040513d601f19601f82011682018060405250810190610e359190614271565b610e4090600a614799565b61013555670de0b6b3a764000061013655610e6361012082016101008301613ec8565b61013780546001600160a01b0319166001600160a01b0392909216919091179055610e9661014082016101208301613ec8565b61013880546001600160a01b0319166001600160a01b0392909216919091179055610ecc610ec76020830183613ec8565b61263d565b610ede61016082016101408301613ec8565b61013980546001600160a01b0319166001600160a01b0392909216919091179055610f1161018082016101608301613ec8565b61013a80546001600160a01b0319166001600160a01b0392909216919091179055610f446101a082016101808301613ec8565b61013b80546001600160a01b0319166001600160a01b0392909216919091179055610f776101c082016101a08301613ec8565b61013c80546001600160a01b0319166001600160a01b0392909216919091179055610faa6101e082016101c08301613ec8565b61013d80546001600160a01b0319166001600160a01b0392909216919091179055610fdd61020082016101e08301613ec8565b61013e80546001600160a01b0319166001600160a01b039290921691909117905561020081013561013f5561101a61024082016102208301613ec8565b61014380546001600160a01b0319166001600160a01b039283161790556102408201356101445561012f546101395460405163095ea7b360e01b81529183169263095ea7b39261107492909116906000199060040161440b565b602060405180830381600087803b15801561108e57600080fd5b505af11580156110a2573d6000803e3d6000fd5b505050506040513d601f19601f820116820180604052508101906110c69190614127565b50610130546101395460405163095ea7b360e01b81526001600160a01b039283169263095ea7b392611101929116906000199060040161440b565b602060405180830381600087803b15801561111b57600080fd5b505af115801561112f573d6000803e3d6000fd5b505050506040513d601f19601f820116820180604052508101906111539190614127565b5061013a546101395460405163095ea7b360e01b81526001600160a01b039283169263095ea7b39261118e929116906000199060040161440b565b602060405180830381600087803b1580156111a857600080fd5b505af11580156111bc573d6000803e3d6000fd5b505050506040513d601f19601f820116820180604052508101906111e09190614127565b5061013a5461013c5460405163095ea7b360e01b81526001600160a01b039283169263095ea7b39261121b929116906000199060040161440b565b602060405180830381600087803b15801561123557600080fd5b505af1158015611249573d6000803e3d6000fd5b505050506040513d601f19601f8201168201806040525081019061126d9190614127565b5061012e546101435460405163095ea7b360e01b81526001600160a01b039283169263095ea7b3926112a8929116906000199060040161440b565b602060405180830381600087803b1580156112c257600080fd5b505af11580156112d6573d6000803e3d6000fd5b505050506040513d601f19601f820116820180604052508101906112fa9190614127565b5061012f546101435460405163095ea7b360e01b81526001600160a01b039283169263095ea7b392611335929116906000199060040161440b565b602060405180830381600087803b15801561134f57600080fd5b505af1158015611363573d6000803e3d6000fd5b505050506040513d601f19601f820116820180604052508101906113879190614127565b5061139860e0820160c08301613ec8565b61014980546001600160a01b0319166001600160a01b039290921691909117905560408051600280825260608201835260009260208301908036833750506101315482519293506001600160a01b0316918391506000906113fb576113fb6148d2565b6001600160a01b0392831660209182029290920101526101325482519116908290600190811061142d5761142d6148d2565b6001600160a01b03928316602091820292909201015261014954604051631853304760e31b8152600092919091169063c299823890611470908590600401614424565b600060405180830381600087803b15801561148a57600080fd5b505af115801561149e573d6000803e3d6000fd5b505050506040513d6000823e601f3d908101601f191682016040526114c6919081019061408f565b90506114d9610100840160e08501613ec8565b61014880546001600160a01b0319166001600160a01b039290921691909117905561151061026084013566038d7ea4c68000614844565b6101455561152a61028084013566038d7ea4c68000614844565b610146556000610147556115466102c084016102a08501613ec8565b61014080546001600160a01b0319166001600160a01b03929092169190911790556115796102e084016102c08501613ec8565b61014180546001600160a01b0319166001600160a01b03929092169190911790556115ac61030084016102e08501613ec8565b61014280546001600160a01b0319166001600160a01b0392831617905561014a5416156115f95761014a546115f99060008051602061497f833981519152906001600160a01b0316612487565b61160b61032084016103008501613ec8565b61014a80546001600160a01b0319166001600160a01b039290921691821790556116449060008051602061497f833981519152906116db565b61014a546040516319d0806560e11b81523060048201526001600160a01b03909116906333a100ca90602401600060405180830381600087803b15801561168a57600080fd5b505af115801561169e573d6000803e3d6000fd5b506116b59250505061034084016103208501613ec8565b61014b80546001600160a01b0319166001600160a01b0392909216919091179055505050565b6000828152606560205260409020600101546116f6816126b0565b61170083836126ba565b505050565b61172f7fea2dbc222f92f456955c8f6aa0ff0b2767f9e36168a5ef8c93bc1f8720e220b833611cca565b61177b5760405162461bcd60e51b815260206004820152601b60248201527f5265737472696374656420746f2042616c616e63696e6720426f7400000000006044820152606401610bfa565b6117858161014655565b50565b6001600160a01b03811633146117f85760405162461bcd60e51b815260206004820152602f60248201527f416363657373436f6e74726f6c3a2063616e206f6e6c792072656e6f756e636560448201526e103937b632b9903337b91039b2b63360891b6064820152608401610bfa565b6118028282612740565b5050565b306001600160a01b037f000000000000000000000000000000000000000000000000000000000000000016141561184f5760405162461bcd60e51b8152600401610bfa9061452b565b7f00000000000000000000000000000000000000000000000000000000000000006001600160a01b0316611898600080516020614a4f833981519152546001600160a01b031690565b6001600160a01b0316146118be5760405162461bcd60e51b8152600401610bfa90614577565b6118c7816127a7565b60408051600080825260208201909252611785918391906127d1565b306001600160a01b037f000000000000000000000000000000000000000000000000000000000000000016141561192c5760405162461bcd60e51b8152600401610bfa9061452b565b7f00000000000000000000000000000000000000000000000000000000000000006001600160a01b0316611975600080516020614a4f833981519152546001600160a01b031690565b6001600160a01b03161461199b5760405162461bcd60e51b8152600401610bfa90614577565b6119a4826127a7565b611802828260016127d1565b6000306001600160a01b037f00000000000000000000000000000000000000000000000000000000000000001614611a505760405162461bcd60e51b815260206004820152603860248201527f555550535570677261646561626c653a206d757374206e6f742062652063616c60448201527f6c6564207468726f7567682064656c656761746563616c6c00000000000000006064820152608401610bfa565b50600080516020614a4f83398151915290565b61014a5460408051630f77314d60e31b815290516060926001600160a01b031691637bb98a68916004808301926000929190829003018186803b158015611aa957600080fd5b505afa158015611abd573d6000803e3d6000fd5b505050506040513d6000823e601f3d908101601f19168201604052611ae59190810190613faa565b905090565b6000611af6600161294b565b90508015611b0e576000805461ff0019166101001790555b611b166129d3565b8015611785576000805461ff0019169055604051600181527f7f26b83ff96e1f2b6a682f133852f6798a09c465da95921460cefb3847402498906020015b60405180910390a150565b6000611b79600080516020614a0b83398151915233611cca565b611b955760405162461bcd60e51b8152600401610bfa906144f4565b6000611ba084612a3c565b905083811015611c045760405162461bcd60e51b815260206004820152602960248201527f52657475726e65642076616c7565206c657373207468616e2072657175657374604482015268195908185b5bdd5b9d60ba1b6064820152608401610bfa565b60fb5460405163a9059cbb60e01b81526001600160a01b039091169063a9059cbb90611c36908690889060040161440b565b602060405180830381600087803b158015611c5057600080fd5b505af1158015611c64573d6000803e3d6000fd5b505050506040513d601f19601f82011682018060405250810190611c889190614127565b5060408051858152602081018390527f9045c2ac9b2026de8075f2701bbdde882cd5e830b3b1ead9a15b22f2b5b93742910160405180910390a1509192915050565b60009182526065602090815260408084206001600160a01b0393909316845291905290205460ff1690565b61014a546040805163146ce76760e31b815290516000926001600160a01b03169163a3673b38916004808301926020929190829003018186803b158015611d3b57600080fd5b505afa158015611d4f573d6000803e3d6000fd5b505050506040513d601f19601f82011682018060405250810190611ae5919061415b565b611d8b600080516020614a0b83398151915233611cca565b611da75760405162461bcd60e51b8152600401610bfa906144f4565b60fb546040516370a0823160e01b8152306004820152611e29916001600160a01b0316906370a082319060240160206040518083038186803b158015611dec57600080fd5b505afa158015611e00573d6000803e3d6000fd5b505050506040513d601f19601f82011682018060405250810190611e24919061415b565b612aa9565b6040518181527f227a473b70d2f893cc7659219575c030a63b5743024fe1e0c1a680e708b1525a90602001611b54565b600081516009811115611e6e57611e6e6148bc565b1415611f2157611eb26040518060400160405280601c81526020017f6578656375746520616374696f6e204144445f4c495155494449545900000000815250612b0b565b602081015160405163c7b472e960e01b815273__$02c19cb8ce11109cbe0b426c827194034a$__9163c7b472e991611eee91309160040161440b565b60006040518083038186803b158015611f0657600080fd5b505af4158015611f1a573d6000803e3d6000fd5b5050505050565b600181516009811115611f3657611f366148bc565b141561200557611f7a6040518060400160405280601f81526020017f6578656375746520616374696f6e2052454d4f56455f4c495155494449545900815250612b0b565b6020810151604051635ca76c4f60e01b815273__$02c19cb8ce11109cbe0b426c827194034a$__91635ca76c4f91611fb691309160040161440b565b604080518083038186803b158015611fcd57600080fd5b505af4158015611fe1573d6000803e3d6000fd5b505050506040513d601f19601f82011682018060405250810190611700919061424d565b60028151600981111561201a5761201a6148bc565b141561207d5761204160405180606001604052806024815260200161499f60249139612b0b565b6020810151604051636d1291eb60e01b815273__$02c19cb8ce11109cbe0b426c827194034a$__91636d1291eb91611eee91309160040161440b565b600381516009811115612092576120926148bc565b14156120f5576120b9604051806060016040528060248152602001614a2b60249139612b0b565b6020810151604051632036b20960e01b815273__$02c19cb8ce11109cbe0b426c827194034a$__91632036b20991611eee91309160040161440b565b60048151600981111561210a5761210a6148bc565b141561216d576121316040518060600160405280602381526020016149c360239139612b0b565b6020810151604051634bb288ff60e01b815273__$02c19cb8ce11109cbe0b426c827194034a$__91634bb288ff91611eee91309160040161440b565b600581516009811115612182576121826148bc565b14156121e5576121a960405180606001604052806027815260200161491460279139612b0b565b6020810151604051632c761ac760e01b815273__$02c19cb8ce11109cbe0b426c827194034a$__91632c761ac791611eee91309160040161440b565b6006815160098111156121fa576121fa6148bc565b141561225d576122216040518060600160405280602581526020016149e660259139612b0b565b6020810151604051632ff8b87160e21b815273__$02c19cb8ce11109cbe0b426c827194034a$__9163bfe2e1c491611eee91309160040161440b565b600781516009811115612272576122726148bc565b14156122d55761229960405180606001604052806022815260200161495d60229139612b0b565b60208101516040516357971fe560e01b815273__$02c19cb8ce11109cbe0b426c827194034a$__916357971fe591611eee91309160040161440b565b6008815160098111156122ea576122ea6148bc565b141561235f5761231160405180606001604052806022815260200161493b60229139612b0b565b6020810151604080830151905163027c9cff60e21b81523060048201526024810192909252604482015273__$02c19cb8ce11109cbe0b426c827194034a$__906309f273fc90606401611eee565b600981516009811115612374576123746148bc565b14156117855761239b604051806060016040528060228152602001614a6f60229139612b0b565b60208101516040808301519051631e3ad25d60e31b81523060048201526024810192909252604482015273__$02c19cb8ce11109cbe0b426c827194034a$__9063f1d692e890606401611eee565b612401600080516020614a0b83398151915233611cca565b61241d5760405162461bcd60e51b8152600401610bfa906144f4565b611785612b4e565b61243d60008051602061497f83398151915233611cca565b6124815760405162461bcd60e51b815260206004820152601560248201527414995cdd1c9a58dd1959081d1bc810d3d3951493d3605a1b6044820152606401610bfa565b61014755565b6000828152606560205260409020600101546124a2816126b0565b6117008383612740565b6124b7600033611cca565b6124fa5760405162461bcd60e51b81526020600482015260146024820152735265737472696374656420746f2061646d696e7360601b6044820152606401610bfa565b6001600160a01b03811661254b5760405162461bcd60e51b815260206004820152601860248201527716995c9bc81859191c995cdcc81b9bdd08185b1b1bddd95960421b6044820152606401610bfa565b60fc5461257090600080516020614a0b833981519152906001600160a01b0316612487565b612588600080516020614a0b833981519152826116db565b60fc80546001600160a01b0319166001600160a01b0392909216919091179055565b60006125c4600080516020614a0b83398151915233611cca565b6125e05760405162461bcd60e51b8152600401610bfa906144f4565b60006125eb83612bbd565b90507f3ac0594a85a20354f9dc74f33728416d19ce00d04a406c108cc2dcf2cecea1348160405161261e91815260200190565b60405180910390a190505b919050565b6001600160a01b03163b151590565b6001600160a01b03811661268e5760405162461bcd60e51b815260206004820152601860248201527716995c9bc81859191c995cdcc81b9bdd08185b1b1bddd95960421b6044820152606401610bfa565b60fb80546001600160a01b0319166001600160a01b0392909216919091179055565b6117858133612bed565b6126c48282611cca565b6118025760008281526065602090815260408083206001600160a01b03851684529091529020805460ff191660011790556126fc3390565b6001600160a01b0316816001600160a01b0316837f2f8788117e7eff1d82e926ec794901d17c78024a50270940304540a733656f0d60405160405180910390a45050565b61274a8282611cca565b156118025760008281526065602090815260408083206001600160a01b0385168085529252808320805460ff1916905551339285917ff6391f5c32d9c69d2a47ea670b442974b53935d1edc7fd64eb21e047a839171b9190a45050565b7f189ab7a9244df0848122154315af71fe140f3db0fe014031783b0946b8c9d2e3611802816126b0565b7f4910fdfa16fed3260ed0e7147f7cc6da11a60208b5b9406d12a635614ffd91435460ff16156128045761170083612c51565b826001600160a01b03166352d1902d6040518163ffffffff1660e01b815260040160206040518083038186803b15801561283d57600080fd5b505afa92505050801561286d575060408051601f3d908101601f1916820190925261286a9181019061415b565b60015b6128d05760405162461bcd60e51b815260206004820152602e60248201527f45524331393637557067726164653a206e657720696d706c656d656e7461746960448201526d6f6e206973206e6f74205555505360901b6064820152608401610bfa565b600080516020614a4f833981519152811461293f5760405162461bcd60e51b815260206004820152602960248201527f45524331393637557067726164653a20756e737570706f727465642070726f786044820152681a58589b195555525160ba1b6064820152608401610bfa565b50611700838383612ced565b60008054610100900460ff1615612992578160ff16600114801561296e5750303b155b61298a5760405162461bcd60e51b8152600401610bfa906145c3565b506000919050565b60005460ff8084169116106129b95760405162461bcd60e51b8152600401610bfa906145c3565b506000805460ff191660ff92909216919091179055600190565b60006129df600161294b565b905080156129f7576000805461ff0019166101001790555b6129ff612d18565b612a07612d18565b612a126000336126ba565b611b167f189ab7a9244df0848122154315af71fe140f3db0fe014031783b0946b8c9d2e3336126ba565b61014a546040516312093a2360e11b81526000916001600160a01b031690632412744690612a719060029086906004016144a6565b600060405180830381600087803b158015612a8b57600080fd5b505af1158015612a9f573d6000803e3d6000fd5b5093949350505050565b61014a546040516312093a2360e11b81526001600160a01b0390911690632412744690612add9060019085906004016144a6565b600060405180830381600087803b158015612af757600080fd5b505af1158015611f1a573d6000803e3d6000fd5b61178581604051602401612b1f91906144c1565b60408051601f198184030181529190526020810180516001600160e01b031663104c13eb60e21b179052612d85565b61014a546040516312093a2360e11b81526000916001600160a01b031690632412744690612b8290849081906004016144a6565b600060405180830381600087803b158015612b9c57600080fd5b505af1158015612bb0573d6000803e3d6000fd5b5050505061014754905090565b600080612bc8612da6565b612bd2908261471c565b9050612bdc613074565b612be6908261471c565b9392505050565b612bf78282611cca565b61180257612c0f816001600160a01b0316601461326e565b612c1a83602061326e565b604051602001612c2b92919061436a565b60408051601f198184030181529082905262461bcd60e51b8252610bfa916004016144c1565b6001600160a01b0381163b612cbe5760405162461bcd60e51b815260206004820152602d60248201527f455243313936373a206e657720696d706c656d656e746174696f6e206973206e60448201526c1bdd08184818dbdb9d1c9858dd609a1b6064820152608401610bfa565b600080516020614a4f83398151915280546001600160a01b0319166001600160a01b0392909216919091179055565b612cf68361340a565b600082511180612d035750805b1561170057612d12838361344a565b50505050565b600054610100900460ff16612d835760405162461bcd60e51b815260206004820152602b60248201527f496e697469616c697a61626c653a20636f6e7472616374206973206e6f74206960448201526a6e697469616c697a696e6760a81b6064820152608401610bfa565b565b80516a636f6e736f6c652e6c6f67602083016000808483855afa5050505050565b6101425461013a546000918291612dca916001600160a01b0390811691163061353e565b90508015612e3c5761014160009054906101000a90046001600160a01b03166001600160a01b0316636b69e05b6040518163ffffffff1660e01b8152600401600060405180830381600087803b158015612e2357600080fd5b505af1158015612e37573d6000803e3d6000fd5b505050505b610140546040516370a0823160e01b81523060048201526000916001600160a01b0316906370a082319060240160206040518083038186803b158015612e8157600080fd5b505afa158015612e95573d6000803e3d6000fd5b505050506040513d601f19601f82011682018060405250810190612eb9919061415b565b905060008115612f5d5761013954610140546101305461012e54600093612ef7936001600160a01b03918216939082169290821691168580896136c2565b90508015612f5b5761013954610140546101305461012e54600093612f4b936001600160a01b039182169390821692908216911685808a6064612f3b8b6063614844565b612f459190614734565b306138ed565b9050612f57818461471c565b9250505b505b61013d546040516370a0823160e01b81523060048201526000916001600160a01b0316906370a082319060240160206040518083038186803b158015612fa257600080fd5b505afa158015612fb6573d6000803e3d6000fd5b505050506040513d601f19601f82011682018060405250810190612fda919061415b565b9050801561306c576101395461013d546101305461012e54600093613016936001600160a01b03918216939082169290821691168580886136c2565b9050801561306a576101395461013d546101305461012e5460009361305a936001600160a01b03918216939082169290821691168580896064612f3b8b6063614844565b9050613066818561471c565b9350505b505b509392505050565b6040805160028082526060820183526000928392919060208301908036833750506101315482519293506001600160a01b0316918391506000906130ba576130ba6148d2565b6001600160a01b039283166020918202929092010152610132548251911690829060019081106130ec576130ec6148d2565b6001600160a01b0392831660209182029290920101526101495460405163436f98f760e11b81529116906386df31ee9061312c90309085906004016143df565b600060405180830381600087803b15801561314657600080fd5b505af115801561315a573d6000803e3d6000fd5b5050610133546040516370a0823160e01b8152306004820152600093506001600160a01b0390911691506370a082319060240160206040518083038186803b1580156131a557600080fd5b505afa1580156131b9573d6000803e3d6000fd5b505050506040513d601f19601f820116820180604052508101906131dd919061415b565b9050600081156132575761014b546101335461012f54600092613211926001600160a01b0391821692908216911686613ba3565b905080156132555761014b546101335461012f54600092613245926001600160a01b03918216929082169116878630613ccc565b9050613251818461471c565b9250505b505b61326664e8d4a5100082614734565b935050505090565b6060600061327d836002614844565b61328890600261471c565b67ffffffffffffffff8111156132a0576132a06148e8565b6040519080825280601f01601f1916602001820160405280156132ca576020820181803683370190505b509050600360fc1b816000815181106132e5576132e56148d2565b60200101906001600160f81b031916908160001a905350600f60fb1b81600181518110613314576133146148d2565b60200101906001600160f81b031916908160001a9053506000613338846002614844565b61334390600161471c565b90505b60018111156133bb576f181899199a1a9b1b9c1cb0b131b232b360811b85600f1660108110613377576133776148d2565b1a60f81b82828151811061338d5761338d6148d2565b60200101906001600160f81b031916908160001a90535060049490941c936133b48161488f565b9050613346565b508315612be65760405162461bcd60e51b815260206004820181905260248201527f537472696e67733a20686578206c656e67746820696e73756666696369656e746044820152606401610bfa565b61341381612c51565b6040516001600160a01b038216907fbc7cd75a20ee27fd9adebab32041f755214dbc6bffa90cc0225b39da2e5c2d3b90600090a250565b60606001600160a01b0383163b6134b25760405162461bcd60e51b815260206004820152602660248201527f416464726573733a2064656c65676174652063616c6c20746f206e6f6e2d636f6044820152651b9d1c9858dd60d21b6064820152608401610bfa565b600080846001600160a01b0316846040516134cd919061434e565b600060405180830381855af49150503d8060008114613508576040519150601f19603f3d011682016040523d82523d6000602084013e61350d565b606091505b50915091506135358282604051806060016040528060278152602001614a9160279139613e7f565b95945050505050565b604051636f4ba70b60e11b81526001600160a01b038281166004830152600091829186169063de974e169060240160206040518083038186803b15801561358457600080fd5b505afa158015613598573d6000803e3d6000fd5b505050506040513d601f19601f820116820180604052508101906135bc9190613ee5565b604051630c3f16df60e31b81526001600160a01b0386811660048301529192506000918716906361f8b6f89060240160206040518083038186803b15801561360357600080fd5b505afa158015613617573d6000803e3d6000fd5b505050506040513d601f19601f8201168201806040525081019061363b9190613ee5565b6040516370a0823160e01b81526001600160a01b038481166004830152919250908216906370a082319060240160206040518083038186803b15801561368057600080fd5b505afa158015613694573d6000803e3d6000fd5b505050506040513d601f19601f820116820180604052508101906136b8919061415b565b9695505050505050565b60408051600280825260608201909252600091829190816020015b60408051606081018252600080825260208083018290529282015282526000199092019101816136dd5790505090508781600081518110613720576137206148d2565b6020026020010151600001906001600160a01b031690816001600160a01b0316815250508681600081518110613758576137586148d2565b6020026020010151602001906001600160a01b031690816001600160a01b0316815250508481600081518110613790576137906148d2565b6020026020010151604001901515908115158152505086816001815181106137ba576137ba6148d2565b6020026020010151600001906001600160a01b031690816001600160a01b03168152505085816001815181106137f2576137f26148d2565b6020026020010151602001906001600160a01b031690816001600160a01b031681525050838160018151811061382a5761382a6148d2565b6020908102919091010151901515604091820152516326207f2d60e21b81526000906001600160a01b038b1690639881fcb49061386d908790869060040161462a565b60006040518083038186803b15801561388557600080fd5b505afa158015613899573d6000803e3d6000fd5b505050506040513d6000823e601f3d908101601f191682016040526138c1919081019061408f565b9050806002815181106138d6576138d66148d2565b602002602001015192505050979650505050505050565b60405163095ea7b360e01b81526000906001600160a01b038a169063095ea7b39061391e908d90889060040161440b565b602060405180830381600087803b15801561393857600080fd5b505af115801561394c573d6000803e3d6000fd5b505050506040513d601f19601f820116820180604052508101906139709190614127565b5060408051600280825260608201909252600091816020015b604080516060810182526000808252602080830182905292820152825260001990920191018161398957905050905089816000815181106139cc576139cc6148d2565b6020026020010151600001906001600160a01b031690816001600160a01b0316815250508881600081518110613a0457613a046148d2565b6020026020010151602001906001600160a01b031690816001600160a01b0316815250508681600081518110613a3c57613a3c6148d2565b602002602001015160400190151590811515815250508881600181518110613a6657613a666148d2565b6020026020010151600001906001600160a01b031690816001600160a01b0316815250508781600181518110613a9e57613a9e6148d2565b6020026020010151602001906001600160a01b031690816001600160a01b0316815250508581600181518110613ad657613ad66148d2565b602090810291909101015190151560409182015251631e82ecdb60e31b81526000906001600160a01b038d169063f41766d890613b1f908990899087908a90429060040161467f565b600060405180830381600087803b158015613b3957600080fd5b505af1158015613b4d573d6000803e3d6000fd5b505050506040513d6000823e601f3d908101601f19168201604052613b75919081019061408f565b905080600281518110613b8a57613b8a6148d2565b6020026020010151925050509998505050505050505050565b604080516002808252606082018352600092839291906020830190803683370190505090508481600081518110613bdc57613bdc6148d2565b60200260200101906001600160a01b031690816001600160a01b0316815250508381600181518110613c1057613c106148d2565b6001600160a01b03928316602091820292909201015260405163d06ca61f60e01b815260009188169063d06ca61f90613c4f9087908690600401614611565b60006040518083038186803b158015613c6757600080fd5b505afa158015613c7b573d6000803e3d6000fd5b505050506040513d6000823e601f3d908101601f19168201604052613ca3919081019061408f565b905080600181518110613cb857613cb86148d2565b602002602001015192505050949350505050565b60405163095ea7b360e01b81526000906001600160a01b0387169063095ea7b390613cfd908a90889060040161440b565b602060405180830381600087803b158015613d1757600080fd5b505af1158015613d2b573d6000803e3d6000fd5b505050506040513d601f19601f82011682018060405250810190613d4f9190614127565b506040805160028082526060820183526000926020830190803683370190505090508681600081518110613d8557613d856148d2565b60200260200101906001600160a01b031690816001600160a01b0316815250508581600181518110613db957613db96148d2565b6001600160a01b0392831660209182029290920101526040516338ed173960e01b81526000918a16906338ed173990613dfe908990899087908a904290600401614643565b600060405180830381600087803b158015613e1857600080fd5b505af1158015613e2c573d6000803e3d6000fd5b505050506040513d6000823e601f3d908101601f19168201604052613e54919081019061408f565b905080600181518110613e6957613e696148d2565b6020026020010151925050509695505050505050565b60608315613e8e575081612be6565b825115613e9e5782518084602001fd5b8160405162461bcd60e51b8152600401610bfa91906144c1565b8051801515811461262957600080fd5b600060208284031215613eda57600080fd5b8135612be6816148fe565b600060208284031215613ef757600080fd5b8151612be6816148fe565b60008060408385031215613f1557600080fd5b8235613f20816148fe565b915060208381013567ffffffffffffffff80821115613f3e57600080fd5b818601915086601f830112613f5257600080fd5b813581811115613f6457613f646148e8565b613f76601f8201601f191685016146c7565b91508082528784828501011115613f8c57600080fd5b80848401858401376000848284010152508093505050509250929050565b60006020808385031215613fbd57600080fd5b825167ffffffffffffffff811115613fd457600080fd5b8301601f81018513613fe557600080fd5b8051613ff8613ff3826146f8565b6146c7565b80828252848201915084840188868560071b870101111561401857600080fd5b60009450845b8481101561408157608080838c031215614036578687fd5b61403e61469e565b8351614049816148fe565b8152838901518982015260408085015190820152606061406a818601613eb8565b90820152855293870193919091019060010161401e565b509098975050505050505050565b600060208083850312156140a257600080fd5b825167ffffffffffffffff8111156140b957600080fd5b8301601f810185136140ca57600080fd5b80516140d8613ff3826146f8565b80828252848201915084840188868560051b87010111156140f857600080fd5b600094505b8385101561411b5780518352600194909401939185019185016140fd565b50979650505050505050565b60006020828403121561413957600080fd5b612be682613eb8565b60006020828403121561415457600080fd5b5035919050565b60006020828403121561416d57600080fd5b5051919050565b6000806040838503121561418757600080fd5b823591506020830135614199816148fe565b809150509250929050565b6000602082840312156141b657600080fd5b81356001600160e01b031981168114612be657600080fd5b6000606082840312156141e057600080fd5b6040516060810181811067ffffffffffffffff82111715614203576142036148e8565b6040528235600a811061421557600080fd5b8152602083810135908201526040928301359281019290925250919050565b6000610340828403121561424757600080fd5b50919050565b6000806040838503121561426057600080fd5b505080516020909101519092909150565b60006020828403121561428357600080fd5b815160ff81168114612be657600080fd5b600081518084526020808501945080840160005b838110156142cd5781516001600160a01b0316875295820195908201906001016142a8565b509495945050505050565b600081518084526020808501945080840160005b838110156142cd57815180516001600160a01b039081168952848201511684890152604090810151151590880152606090960195908201906001016142ec565b6003811061434a57634e487b7160e01b600052602160045260246000fd5b9052565b60008251614360818460208701614863565b9190910192915050565b7f416363657373436f6e74726f6c3a206163636f756e74200000000000000000008152600083516143a2816017850160208801614863565b7001034b99036b4b9b9b4b733903937b6329607d1b60179184019182015283516143d3816028840160208801614863565b01602801949350505050565b6001600160a01b038316815260406020820181905260009061440390830184614294565b949350505050565b6001600160a01b03929092168252602082015260400190565b602081526000612be66020830184614294565b602080825282518282018190526000919060409081850190868401855b8281101561449957815180516001600160a01b031685528681015187860152858101518686015260609081015115159085015260809093019290850190600101614454565b5091979650505050505050565b604081016144b4828561432c565b8260208301529392505050565b60208152600082518060208401526144e0816040850160208701614863565b601f01601f19169190910160400192915050565b60208082526017908201527f5265737472696374656420746f2045584348414e474552000000000000000000604082015260600190565b6020808252602c908201527f46756e6374696f6e206d7573742062652063616c6c6564207468726f7567682060408201526b19195b1959d85d1958d85b1b60a21b606082015260800190565b6020808252602c908201527f46756e6374696f6e206d7573742062652063616c6c6564207468726f7567682060408201526b6163746976652070726f787960a01b606082015260800190565b6020808252602e908201527f496e697469616c697a61626c653a20636f6e747261637420697320616c72656160408201526d191e481a5b9a5d1a585b1a5e995960921b606082015260800190565b8281526040602082015260006144036040830184614294565b82815260406020820152600061440360408301846142d8565b85815284602082015260a06040820152600061466260a0830186614294565b6001600160a01b0394909416606083015250608001529392505050565b85815284602082015260a06040820152600061466260a08301866142d8565b6040516080810167ffffffffffffffff811182821017156146c1576146c16148e8565b60405290565b604051601f8201601f1916810167ffffffffffffffff811182821017156146f0576146f06148e8565b604052919050565b600067ffffffffffffffff821115614712576147126148e8565b5060051b60200190565b6000821982111561472f5761472f6148a6565b500190565b60008261475157634e487b7160e01b600052601260045260246000fd5b500490565b600181815b80851115614791578160001904821115614777576147776148a6565b8085161561478457918102915b93841c939080029061475b565b509250929050565b6000612be660ff8416836000826147b257506001610baa565b816147bf57506000610baa565b81600181146147d557600281146147df576147fb565b6001915050610baa565b60ff8411156147f0576147f06148a6565b50506001821b610baa565b5060208310610133831016604e8410600b841016171561481e575081810a610baa565b6148288383614756565b806000190482111561483c5761483c6148a6565b029392505050565b600081600019048311821515161561485e5761485e6148a6565b500290565b60005b8381101561487e578181015183820152602001614866565b83811115612d125750506000910152565b60008161489e5761489e6148a6565b506000190190565b634e487b7160e01b600052601160045260246000fd5b634e487b7160e01b600052602160045260246000fd5b634e487b7160e01b600052603260045260246000fd5b634e487b7160e01b600052604160045260246000fd5b6001600160a01b038116811461178557600080fdfe6578656375746520616374696f6e2057495448445241575f41535345545f46524f4d5f414156456578656375746520616374696f6e20535741505f544f4b454e5f544f5f41535345546578656375746520616374696f6e2052455041595f544f4b454e5f544f5f41415645126c7c8716c8f1c7c73a7370c820c7d73a9b4ed0ad633cfce1092f9ff47c85746578656375746520616374696f6e20535741505f555344504c55535f544f5f41535345546578656375746520616374696f6e20535550504c595f41535345545f544f5f414156456578656375746520616374696f6e20424f52524f575f544f4b454e5f46524f4d5f414156453eb675f159e6ca6cf5de6bfbbc8c4521cfd428f5e9166e51094d5898504caf2d6578656375746520616374696f6e20535741505f41535345545f544f5f555344504c5553360894a13ba1a3210667c828492db98dca3e2076cc3735a920a3ca505d382bbc6578656375746520616374696f6e20535741505f41535345545f544f5f544f4b454e416464726573733a206c6f772d6c6576656c2064656c65676174652063616c6c206661696c6564a2646970667358221220396147ad1f2b7c4e08736c4f5f5673a70e02b74acf610f5744a12a80e4b9080b64736f6c63430008060033496e697469616c697a61626c653a20636f6e747261637420697320616c726561",
  "devdoc": {
    "kind": "dev",
    "methods": {
      "constructor": {
        "custom:oz-upgrades-unsafe-allow": "constructor"
      },
      "getRoleAdmin(bytes32)": {
        "details": "Returns the admin role that controls `role`. See {grantRole} and {revokeRole}. To change a role's admin, use {_setRoleAdmin}."
      },
      "grantRole(bytes32,address)": {
        "details": "Grants `role` to `account`. If `account` had not been already granted `role`, emits a {RoleGranted} event. Requirements: - the caller must have ``role``'s admin role."
      },
      "hasRole(bytes32,address)": {
        "details": "Returns `true` if `account` has been granted `role`."
      },
      "proxiableUUID()": {
        "details": "Implementation of the ERC1822 {proxiableUUID} function. This returns the storage slot used by the implementation. It is used to validate that the this implementation remains valid after an upgrade. IMPORTANT: A proxy pointing at a proxiable contract should not be considered proxiable itself, because this risks bricking a proxy that upgrades to it, by delegating to itself until out of gas. Thus it is critical that this function revert if invoked through a proxy. This is guaranteed by the `notDelegated` modifier."
      },
      "renounceRole(bytes32,address)": {
        "details": "Revokes `role` from the calling account. Roles are often managed via {grantRole} and {revokeRole}: this function's purpose is to provide a mechanism for accounts to lose their privileges if they are compromised (such as when a trusted device is misplaced). If the calling account had been revoked `role`, emits a {RoleRevoked} event. Requirements: - the caller must be `account`."
      },
      "revokeRole(bytes32,address)": {
        "details": "Revokes `role` from `account`. If `account` had been granted `role`, emits a {RoleRevoked} event. Requirements: - the caller must have ``role``'s admin role."
      },
      "supportsInterface(bytes4)": {
        "details": "See {IERC165-supportsInterface}."
      },
      "upgradeTo(address)": {
        "details": "Upgrade the implementation of the proxy to `newImplementation`. Calls {_authorizeUpgrade}. Emits an {Upgraded} event."
      },
      "upgradeToAndCall(address,bytes)": {
        "details": "Upgrade the implementation of the proxy to `newImplementation`, and subsequently execute the function call encoded in `data`. Calls {_authorizeUpgrade}. Emits an {Upgraded} event."
      }
    },
    "version": 1
  },
  "userdoc": {
    "kind": "user",
    "methods": {},
    "version": 1
  },
  "storageLayout": {
    "storage": [
      {
        "astId": 808,
        "contract": "contracts/StrategyBusdWbnb.sol:StrategyBusdWbnb",
        "label": "_initialized",
        "offset": 0,
        "slot": "0",
        "type": "t_uint8"
      },
      {
        "astId": 811,
        "contract": "contracts/StrategyBusdWbnb.sol:StrategyBusdWbnb",
        "label": "_initializing",
        "offset": 1,
        "slot": "0",
        "type": "t_bool"
      },
      {
        "astId": 1363,
        "contract": "contracts/StrategyBusdWbnb.sol:StrategyBusdWbnb",
        "label": "__gap",
        "offset": 0,
        "slot": "1",
        "type": "t_array(t_uint256)50_storage"
      },
      {
        "astId": 1670,
        "contract": "contracts/StrategyBusdWbnb.sol:StrategyBusdWbnb",
        "label": "__gap",
        "offset": 0,
        "slot": "51",
        "type": "t_array(t_uint256)50_storage"
      },
      {
        "astId": 39,
        "contract": "contracts/StrategyBusdWbnb.sol:StrategyBusdWbnb",
        "label": "_roles",
        "offset": 0,
        "slot": "101",
        "type": "t_mapping(t_bytes32,t_struct(RoleData)34_storage)"
      },
      {
        "astId": 338,
        "contract": "contracts/StrategyBusdWbnb.sol:StrategyBusdWbnb",
        "label": "__gap",
        "offset": 0,
        "slot": "102",
        "type": "t_array(t_uint256)49_storage"
      },
      {
        "astId": 790,
        "contract": "contracts/StrategyBusdWbnb.sol:StrategyBusdWbnb",
        "label": "__gap",
        "offset": 0,
        "slot": "151",
        "type": "t_array(t_uint256)50_storage"
      },
      {
        "astId": 1078,
        "contract": "contracts/StrategyBusdWbnb.sol:StrategyBusdWbnb",
        "label": "__gap",
        "offset": 0,
        "slot": "201",
        "type": "t_array(t_uint256)50_storage"
      },
      {
        "astId": 23601,
        "contract": "contracts/StrategyBusdWbnb.sol:StrategyBusdWbnb",
        "label": "asset",
        "offset": 0,
        "slot": "251",
        "type": "t_contract(IERC20)2347"
      },
      {
        "astId": 23603,
        "contract": "contracts/StrategyBusdWbnb.sol:StrategyBusdWbnb",
        "label": "exchanger",
        "offset": 0,
        "slot": "252",
        "type": "t_address"
      },
      {
        "astId": 23923,
        "contract": "contracts/StrategyBusdWbnb.sol:StrategyBusdWbnb",
        "label": "__gap",
        "offset": 0,
        "slot": "253",
        "type": "t_array(t_uint256)49_storage"
      },
      {
        "astId": 14722,
        "contract": "contracts/StrategyBusdWbnb.sol:StrategyBusdWbnb",
        "label": "usdPlus",
        "offset": 0,
        "slot": "302",
        "type": "t_contract(IERC20)2347"
      },
      {
        "astId": 14725,
        "contract": "contracts/StrategyBusdWbnb.sol:StrategyBusdWbnb",
        "label": "busd",
        "offset": 0,
        "slot": "303",
        "type": "t_contract(IERC20)2347"
      },
      {
        "astId": 14728,
        "contract": "contracts/StrategyBusdWbnb.sol:StrategyBusdWbnb",
        "label": "wbnb",
        "offset": 0,
        "slot": "304",
        "type": "t_contract(IERC20)2347"
      },
      {
        "astId": 14731,
        "contract": "contracts/StrategyBusdWbnb.sol:StrategyBusdWbnb",
        "label": "vBusdToken",
        "offset": 0,
        "slot": "305",
        "type": "t_contract(VenusInterface)14634"
      },
      {
        "astId": 14734,
        "contract": "contracts/StrategyBusdWbnb.sol:StrategyBusdWbnb",
        "label": "vBnbToken",
        "offset": 0,
        "slot": "306",
        "type": "t_contract(VenusInterface)14634"
      },
      {
        "astId": 14737,
        "contract": "contracts/StrategyBusdWbnb.sol:StrategyBusdWbnb",
        "label": "xvsToken",
        "offset": 0,
        "slot": "307",
        "type": "t_contract(IERC20)2347"
      },
      {
        "astId": 14739,
        "contract": "contracts/StrategyBusdWbnb.sol:StrategyBusdWbnb",
        "label": "busdDm",
        "offset": 0,
        "slot": "308",
        "type": "t_uint256"
      },
      {
        "astId": 14741,
        "contract": "contracts/StrategyBusdWbnb.sol:StrategyBusdWbnb",
        "label": "wbnbDm",
        "offset": 0,
        "slot": "309",
        "type": "t_uint256"
      },
      {
        "astId": 14743,
        "contract": "contracts/StrategyBusdWbnb.sol:StrategyBusdWbnb",
        "label": "bnbDm",
        "offset": 0,
        "slot": "310",
        "type": "t_uint256"
      },
      {
        "astId": 14746,
        "contract": "contracts/StrategyBusdWbnb.sol:StrategyBusdWbnb",
        "label": "oracleBusd",
        "offset": 0,
        "slot": "311",
        "type": "t_contract(IPriceFeed)5059"
      },
      {
        "astId": 14749,
        "contract": "contracts/StrategyBusdWbnb.sol:StrategyBusdWbnb",
        "label": "oracleWbnb",
        "offset": 0,
        "slot": "312",
        "type": "t_contract(IPriceFeed)5059"
      },
      {
        "astId": 14752,
        "contract": "contracts/StrategyBusdWbnb.sol:StrategyBusdWbnb",
        "label": "coneRouter",
        "offset": 0,
        "slot": "313",
        "type": "t_contract(IConeRouter01)5603"
      },
      {
        "astId": 14755,
        "contract": "contracts/StrategyBusdWbnb.sol:StrategyBusdWbnb",
        "label": "conePair",
        "offset": 0,
        "slot": "314",
        "type": "t_contract(IConePair)5847"
      },
      {
        "astId": 14758,
        "contract": "contracts/StrategyBusdWbnb.sol:StrategyBusdWbnb",
        "label": "coneVoter",
        "offset": 0,
        "slot": "315",
        "type": "t_contract(IConeVoter)6301"
      },
      {
        "astId": 14761,
        "contract": "contracts/StrategyBusdWbnb.sol:StrategyBusdWbnb",
        "label": "coneGauge",
        "offset": 0,
        "slot": "316",
        "type": "t_contract(IGauge)5746"
      },
      {
        "astId": 14764,
        "contract": "contracts/StrategyBusdWbnb.sol:StrategyBusdWbnb",
        "label": "coneToken",
        "offset": 0,
        "slot": "317",
        "type": "t_contract(IERC20)2347"
      },
      {
        "astId": 14767,
        "contract": "contracts/StrategyBusdWbnb.sol:StrategyBusdWbnb",
        "label": "veCone",
        "offset": 0,
        "slot": "318",
        "type": "t_contract(VeCone)6224"
      },
      {
        "astId": 14769,
        "contract": "contracts/StrategyBusdWbnb.sol:StrategyBusdWbnb",
        "label": "veConeId",
        "offset": 0,
        "slot": "319",
        "type": "t_uint256"
      },
      {
        "astId": 14772,
        "contract": "contracts/StrategyBusdWbnb.sol:StrategyBusdWbnb",
        "label": "unkwnToken",
        "offset": 0,
        "slot": "320",
        "type": "t_contract(IERC20)2347"
      },
      {
        "astId": 14775,
        "contract": "contracts/StrategyBusdWbnb.sol:StrategyBusdWbnb",
        "label": "unkwnUserProxy",
        "offset": 0,
        "slot": "321",
        "type": "t_contract(IUserProxy)14254"
      },
      {
        "astId": 14778,
        "contract": "contracts/StrategyBusdWbnb.sol:StrategyBusdWbnb",
        "label": "unkwnLens",
        "offset": 0,
        "slot": "322",
        "type": "t_contract(IUnkwnLens)13943"
      },
      {
        "astId": 14781,
        "contract": "contracts/StrategyBusdWbnb.sol:StrategyBusdWbnb",
        "label": "exchange",
        "offset": 0,
        "slot": "323",
        "type": "t_contract(IExchange)14685"
      },
      {
        "astId": 14783,
        "contract": "contracts/StrategyBusdWbnb.sol:StrategyBusdWbnb",
        "label": "tokenAssetSlippagePercent",
        "offset": 0,
        "slot": "324",
        "type": "t_uint256"
      },
      {
        "astId": 14785,
        "contract": "contracts/StrategyBusdWbnb.sol:StrategyBusdWbnb",
        "label": "liquidationThreshold",
        "offset": 0,
        "slot": "325",
        "type": "t_uint256"
      },
      {
        "astId": 14787,
        "contract": "contracts/StrategyBusdWbnb.sol:StrategyBusdWbnb",
        "label": "healthFactor",
        "offset": 0,
        "slot": "326",
        "type": "t_uint256"
      },
      {
        "astId": 14789,
        "contract": "contracts/StrategyBusdWbnb.sol:StrategyBusdWbnb",
        "label": "realHealthFactor",
        "offset": 0,
        "slot": "327",
        "type": "t_uint256"
      },
      {
        "astId": 14792,
        "contract": "contracts/StrategyBusdWbnb.sol:StrategyBusdWbnb",
        "label": "maximillion",
        "offset": 0,
        "slot": "328",
        "type": "t_contract(Maximillion)14319"
      },
      {
        "astId": 14795,
        "contract": "contracts/StrategyBusdWbnb.sol:StrategyBusdWbnb",
        "label": "unitroller",
        "offset": 0,
        "slot": "329",
        "type": "t_contract(Unitroller)14311"
      },
      {
        "astId": 14798,
        "contract": "contracts/StrategyBusdWbnb.sol:StrategyBusdWbnb",
        "label": "control",
        "offset": 0,
        "slot": "330",
        "type": "t_contract(ControlBusdWbnb)21143"
      },
      {
        "astId": 14801,
        "contract": "contracts/StrategyBusdWbnb.sol:StrategyBusdWbnb",
        "label": "pancakeRouter",
        "offset": 0,
        "slot": "331",
        "type": "t_contract(IPancakeRouter02)11337"
      }
    ],
    "types": {
      "t_address": {
        "encoding": "inplace",
        "label": "address",
        "numberOfBytes": "20"
      },
      "t_array(t_uint256)49_storage": {
        "base": "t_uint256",
        "encoding": "inplace",
        "label": "uint256[49]",
        "numberOfBytes": "1568"
      },
      "t_array(t_uint256)50_storage": {
        "base": "t_uint256",
        "encoding": "inplace",
        "label": "uint256[50]",
        "numberOfBytes": "1600"
      },
      "t_bool": {
        "encoding": "inplace",
        "label": "bool",
        "numberOfBytes": "1"
      },
      "t_bytes32": {
        "encoding": "inplace",
        "label": "bytes32",
        "numberOfBytes": "32"
      },
      "t_contract(ControlBusdWbnb)21143": {
        "encoding": "inplace",
        "label": "contract ControlBusdWbnb",
        "numberOfBytes": "20"
      },
      "t_contract(IConePair)5847": {
        "encoding": "inplace",
        "label": "contract IConePair",
        "numberOfBytes": "20"
      },
      "t_contract(IConeRouter01)5603": {
        "encoding": "inplace",
        "label": "contract IConeRouter01",
        "numberOfBytes": "20"
      },
      "t_contract(IConeVoter)6301": {
        "encoding": "inplace",
        "label": "contract IConeVoter",
        "numberOfBytes": "20"
      },
      "t_contract(IERC20)2347": {
        "encoding": "inplace",
        "label": "contract IERC20",
        "numberOfBytes": "20"
      },
      "t_contract(IExchange)14685": {
        "encoding": "inplace",
        "label": "contract IExchange",
        "numberOfBytes": "20"
      },
      "t_contract(IGauge)5746": {
        "encoding": "inplace",
        "label": "contract IGauge",
        "numberOfBytes": "20"
      },
      "t_contract(IPancakeRouter02)11337": {
        "encoding": "inplace",
        "label": "contract IPancakeRouter02",
        "numberOfBytes": "20"
      },
      "t_contract(IPriceFeed)5059": {
        "encoding": "inplace",
        "label": "contract IPriceFeed",
        "numberOfBytes": "20"
      },
      "t_contract(IUnkwnLens)13943": {
        "encoding": "inplace",
        "label": "contract IUnkwnLens",
        "numberOfBytes": "20"
      },
      "t_contract(IUserProxy)14254": {
        "encoding": "inplace",
        "label": "contract IUserProxy",
        "numberOfBytes": "20"
      },
      "t_contract(Maximillion)14319": {
        "encoding": "inplace",
        "label": "contract Maximillion",
        "numberOfBytes": "20"
      },
      "t_contract(Unitroller)14311": {
        "encoding": "inplace",
        "label": "contract Unitroller",
        "numberOfBytes": "20"
      },
      "t_contract(VeCone)6224": {
        "encoding": "inplace",
        "label": "contract VeCone",
        "numberOfBytes": "20"
      },
      "t_contract(VenusInterface)14634": {
        "encoding": "inplace",
        "label": "contract VenusInterface",
        "numberOfBytes": "20"
      },
      "t_mapping(t_address,t_bool)": {
        "encoding": "mapping",
        "key": "t_address",
        "label": "mapping(address => bool)",
        "numberOfBytes": "32",
        "value": "t_bool"
      },
      "t_mapping(t_bytes32,t_struct(RoleData)34_storage)": {
        "encoding": "mapping",
        "key": "t_bytes32",
        "label": "mapping(bytes32 => struct AccessControlUpgradeable.RoleData)",
        "numberOfBytes": "32",
        "value": "t_struct(RoleData)34_storage"
      },
      "t_struct(RoleData)34_storage": {
        "encoding": "inplace",
        "label": "struct AccessControlUpgradeable.RoleData",
        "members": [
          {
            "astId": 31,
            "contract": "contracts/StrategyBusdWbnb.sol:StrategyBusdWbnb",
            "label": "members",
            "offset": 0,
            "slot": "0",
            "type": "t_mapping(t_address,t_bool)"
          },
          {
            "astId": 33,
            "contract": "contracts/StrategyBusdWbnb.sol:StrategyBusdWbnb",
            "label": "adminRole",
            "offset": 0,
            "slot": "1",
            "type": "t_bytes32"
          }
        ],
        "numberOfBytes": "64"
      },
      "t_uint256": {
        "encoding": "inplace",
        "label": "uint256",
        "numberOfBytes": "32"
      },
      "t_uint8": {
        "encoding": "inplace",
        "label": "uint8",
        "numberOfBytes": "1"
      }
    }
  }
}