{
  "contractName": "A3Crv2A3CrvGaugeTokenExchange",
  "abi": [
    {
      "inputs": [
        {
          "internalType": "address",
          "name": "_curveGauge",
          "type": "address"
        }
      ],
      "stateMutability": "nonpayable",
      "type": "constructor"
    },
    {
      "inputs": [],
      "name": "a3CrvGaugeToken",
      "outputs": [
        {
          "internalType": "contract IERC20",
          "name": "",
          "type": "address"
        }
      ],
      "stateMutability": "view",
      "type": "function"
    },
    {
      "inputs": [],
      "name": "a3CrvToken",
      "outputs": [
        {
          "internalType": "contract IERC20",
          "name": "",
          "type": "address"
        }
      ],
      "stateMutability": "view",
      "type": "function"
    },
    {
      "inputs": [],
      "name": "rewardGauge",
      "outputs": [
        {
          "internalType": "contract IRewardOnlyGauge",
          "name": "",
          "type": "address"
        }
      ],
      "stateMutability": "view",
      "type": "function"
    },
    {
      "inputs": [
        {
          "internalType": "address",
          "name": "spender",
          "type": "address"
        },
        {
          "internalType": "contract IERC20",
          "name": "from",
          "type": "address"
        },
        {
          "internalType": "address",
          "name": "receiver",
          "type": "address"
        },
        {
          "internalType": "contract IERC20",
          "name": "to",
          "type": "address"
        },
        {
          "internalType": "uint256",
          "name": "amount",
          "type": "uint256"
        }
      ],
      "name": "exchange",
      "outputs": [],
      "stateMutability": "nonpayable",
      "type": "function"
    }
  ],
  "bytecode": "0x60806040523480156200001157600080fd5b5060405162001aa838038062001aa883398181016040528101906200003791906200022d565b600073ffffffffffffffffffffffffffffffffffffffff168173ffffffffffffffffffffffffffffffffffffffff161415620000aa576040517f08c379a0000000000000000000000000000000000000000000000000000000008152600401620000a19062000286565b60405180910390fd5b806000806101000a81548173ffffffffffffffffffffffffffffffffffffffff021916908373ffffffffffffffffffffffffffffffffffffffff16021790555060008054906101000a900473ffffffffffffffffffffffffffffffffffffffff1673ffffffffffffffffffffffffffffffffffffffff166382c630666040518163ffffffff1660e01b8152600401602060405180830381600087803b1580156200015357600080fd5b505af115801562000168573d6000803e3d6000fd5b505050506040513d601f19601f820116820180604052508101906200018e91906200022d565b600160006101000a81548173ffffffffffffffffffffffffffffffffffffffff021916908373ffffffffffffffffffffffffffffffffffffffff16021790555080600260006101000a81548173ffffffffffffffffffffffffffffffffffffffff021916908373ffffffffffffffffffffffffffffffffffffffff1602179055505062000335565b60008151905062000227816200031b565b92915050565b600060208284031215620002465762000245620002ed565b5b6000620002568482850162000216565b91505092915050565b60006200026e601883620002a8565b91506200027b82620002f2565b602082019050919050565b60006020820190508181036000830152620002a1816200025f565b9050919050565b600082825260208201905092915050565b6000620002c682620002cd565b9050919050565b600073ffffffffffffffffffffffffffffffffffffffff82169050919050565b600080fd5b7f5a65726f2061646472657373206e6f7420616c6c6f7765640000000000000000600082015250565b6200032681620002b9565b81146200033257600080fd5b50565b61176380620003456000396000f3fe608060405234801561001057600080fd5b506004361061004c5760003560e01c80632d8647521461005157806334c0d4421461006f57806362ac75381461008d57806386d551c7146100a9575b600080fd5b6100596100c7565b604051610066919061113c565b60405180910390f35b6100776100ed565b6040516100849190611157565b60405180910390f35b6100a760048036038101906100a29190610f1f565b610111565b005b6100b1610e7b565b6040516100be919061113c565b60405180910390f35b600160009054906101000a900473ffffffffffffffffffffffffffffffffffffffff1681565b60008054906101000a900473ffffffffffffffffffffffffffffffffffffffff1681565b600160009054906101000a900473ffffffffffffffffffffffffffffffffffffffff1673ffffffffffffffffffffffffffffffffffffffff168473ffffffffffffffffffffffffffffffffffffffff161480156101bb5750600260009054906101000a900473ffffffffffffffffffffffffffffffffffffffff1673ffffffffffffffffffffffffffffffffffffffff168273ffffffffffffffffffffffffffffffffffffffff16145b8061026c5750600260009054906101000a900473ffffffffffffffffffffffffffffffffffffffff1673ffffffffffffffffffffffffffffffffffffffff168473ffffffffffffffffffffffffffffffffffffffff1614801561026b5750600160009054906101000a900473ffffffffffffffffffffffffffffffffffffffff1673ffffffffffffffffffffffffffffffffffffffff168273ffffffffffffffffffffffffffffffffffffffff16145b5b6102ab576040517f08c379a00000000000000000000000000000000000000000000000000000000081526004016102a290611192565b60405180910390fd5b60008114156103cf578373ffffffffffffffffffffffffffffffffffffffff1663a9059cbb868673ffffffffffffffffffffffffffffffffffffffff166370a08231306040518263ffffffff1660e01b815260040161030a91906110f8565b60206040518083038186803b15801561032257600080fd5b505afa158015610336573d6000803e3d6000fd5b505050506040513d601f19601f8201168201806040525081019061035a9190610fc7565b6040518363ffffffff1660e01b8152600401610377929190611113565b602060405180830381600087803b15801561039157600080fd5b505af11580156103a5573d6000803e3d6000fd5b505050506040513d601f19601f820116820180604052508101906103c99190610f9a565b50610e74565b600160009054906101000a900473ffffffffffffffffffffffffffffffffffffffff1673ffffffffffffffffffffffffffffffffffffffff168473ffffffffffffffffffffffffffffffffffffffff161480156104795750600260009054906101000a900473ffffffffffffffffffffffffffffffffffffffff1673ffffffffffffffffffffffffffffffffffffffff168273ffffffffffffffffffffffffffffffffffffffff16145b156108c0576000600160009054906101000a900473ffffffffffffffffffffffffffffffffffffffff1673ffffffffffffffffffffffffffffffffffffffff1663313ce5676040518163ffffffff1660e01b815260040160206040518083038186803b1580156104e857600080fd5b505afa1580156104fc573d6000803e3d6000fd5b505050506040513d601f19601f820116820180604052508101906105209190610ff4565b601261052c9190611405565b600a61053891906112e7565b905080826105469190611263565b915081600160009054906101000a900473ffffffffffffffffffffffffffffffffffffffff1673ffffffffffffffffffffffffffffffffffffffff166370a08231306040518263ffffffff1660e01b81526004016105a491906110f8565b60206040518083038186803b1580156105bc57600080fd5b505afa1580156105d0573d6000803e3d6000fd5b505050506040513d601f19601f820116820180604052508101906105f49190610fc7565b1015610635576040517f08c379a000000000000000000000000000000000000000000000000000000000815260040161062c906111d2565b60405180910390fd5b600082141561075a578473ffffffffffffffffffffffffffffffffffffffff1663a9059cbb878773ffffffffffffffffffffffffffffffffffffffff166370a08231306040518263ffffffff1660e01b815260040161069491906110f8565b60206040518083038186803b1580156106ac57600080fd5b505afa1580156106c0573d6000803e3d6000fd5b505050506040513d601f19601f820116820180604052508101906106e49190610fc7565b6040518363ffffffff1660e01b8152600401610701929190611113565b602060405180830381600087803b15801561071b57600080fd5b505af115801561072f573d6000803e3d6000fd5b505050506040513d601f19601f820116820180604052508101906107539190610f9a565b5050610e74565b600160009054906101000a900473ffffffffffffffffffffffffffffffffffffffff1673ffffffffffffffffffffffffffffffffffffffff1663095ea7b360008054906101000a900473ffffffffffffffffffffffffffffffffffffffff16846040518363ffffffff1660e01b81526004016107d7929190611113565b602060405180830381600087803b1580156107f157600080fd5b505af1158015610805573d6000803e3d6000fd5b505050506040513d601f19601f820116820180604052508101906108299190610f9a565b5060008054906101000a900473ffffffffffffffffffffffffffffffffffffffff1673ffffffffffffffffffffffffffffffffffffffff166383df6747838660006040518463ffffffff1660e01b8152600401610888939291906111f2565b600060405180830381600087803b1580156108a257600080fd5b505af11580156108b6573d6000803e3d6000fd5b5050505050610e73565b6000600260009054906101000a900473ffffffffffffffffffffffffffffffffffffffff1673ffffffffffffffffffffffffffffffffffffffff1663313ce5676040518163ffffffff1660e01b815260040160206040518083038186803b15801561092a57600080fd5b505afa15801561093e573d6000803e3d6000fd5b505050506040513d601f19601f820116820180604052508101906109629190610ff4565b601261096e9190611405565b600a61097a91906112e7565b905080826109889190611263565b915081600260009054906101000a900473ffffffffffffffffffffffffffffffffffffffff1673ffffffffffffffffffffffffffffffffffffffff166370a08231306040518263ffffffff1660e01b81526004016109e691906110f8565b60206040518083038186803b1580156109fe57600080fd5b505afa158015610a12573d6000803e3d6000fd5b505050506040513d601f19601f82011682018060405250810190610a369190610fc7565b1015610a77576040517f08c379a0000000000000000000000000000000000000000000000000000000008152600401610a6e90611172565b60405180910390fd5b6000821415610b9c578473ffffffffffffffffffffffffffffffffffffffff1663a9059cbb878773ffffffffffffffffffffffffffffffffffffffff166370a08231306040518263ffffffff1660e01b8152600401610ad691906110f8565b60206040518083038186803b158015610aee57600080fd5b505afa158015610b02573d6000803e3d6000fd5b505050506040513d601f19601f82011682018060405250810190610b269190610fc7565b6040518363ffffffff1660e01b8152600401610b43929190611113565b602060405180830381600087803b158015610b5d57600080fd5b505af1158015610b71573d6000803e3d6000fd5b505050506040513d601f19601f82011682018060405250810190610b959190610f9a565b5050610e74565b60008054906101000a900473ffffffffffffffffffffffffffffffffffffffff1673ffffffffffffffffffffffffffffffffffffffff166338d074368360006040518363ffffffff1660e01b8152600401610bf8929190611229565b600060405180830381600087803b158015610c1257600080fd5b505af1158015610c26573d6000803e3d6000fd5b5050505081600160009054906101000a900473ffffffffffffffffffffffffffffffffffffffff1673ffffffffffffffffffffffffffffffffffffffff166370a08231306040518263ffffffff1660e01b8152600401610c8691906110f8565b60206040518083038186803b158015610c9e57600080fd5b505afa158015610cb2573d6000803e3d6000fd5b505050506040513d601f19601f82011682018060405250810190610cd69190610fc7565b1015610d17576040517f08c379a0000000000000000000000000000000000000000000000000000000008152600401610d0e906111b2565b60405180910390fd5b600160009054906101000a900473ffffffffffffffffffffffffffffffffffffffff1673ffffffffffffffffffffffffffffffffffffffff1663a9059cbb85600160009054906101000a900473ffffffffffffffffffffffffffffffffffffffff1673ffffffffffffffffffffffffffffffffffffffff166370a08231306040518263ffffffff1660e01b8152600401610db191906110f8565b60206040518083038186803b158015610dc957600080fd5b505afa158015610ddd573d6000803e3d6000fd5b505050506040513d601f19601f82011682018060405250810190610e019190610fc7565b6040518363ffffffff1660e01b8152600401610e1e929190611113565b602060405180830381600087803b158015610e3857600080fd5b505af1158015610e4c573d6000803e3d6000fd5b505050506040513d601f19601f82011682018060405250810190610e709190610f9a565b50505b5b5050505050565b600260009054906101000a900473ffffffffffffffffffffffffffffffffffffffff1681565b600081359050610eb0816116ba565b92915050565b600081519050610ec5816116d1565b92915050565b600081359050610eda816116e8565b92915050565b600081359050610eef816116ff565b92915050565b600081519050610f04816116ff565b92915050565b600081519050610f1981611716565b92915050565b600080600080600060a08688031215610f3b57610f3a611546565b5b6000610f4988828901610ea1565b9550506020610f5a88828901610ecb565b9450506040610f6b88828901610ea1565b9350506060610f7c88828901610ecb565b9250506080610f8d88828901610ee0565b9150509295509295909350565b600060208284031215610fb057610faf611546565b5b6000610fbe84828501610eb6565b91505092915050565b600060208284031215610fdd57610fdc611546565b5b6000610feb84828501610ef5565b91505092915050565b60006020828403121561100a57611009611546565b5b600061101884828501610f0a565b91505092915050565b61102a81611439565b82525050565b6110398161144b565b82525050565b611048816114a0565b82525050565b611057816114c4565b82525050565b600061106a603983611252565b915061107582611558565b604082019050919050565b600061108d603883611252565b9150611098826115a7565b604082019050919050565b60006110b0604383611252565b91506110bb826115f6565b606082019050919050565b60006110d3603483611252565b91506110de8261166b565b604082019050919050565b6110f281611489565b82525050565b600060208201905061110d6000830184611021565b92915050565b60006040820190506111286000830185611021565b61113560208301846110e9565b9392505050565b6000602082019050611151600083018461103f565b92915050565b600060208201905061116c600083018461104e565b92915050565b6000602082019050818103600083015261118b8161105d565b9050919050565b600060208201905081810360008301526111ab81611080565b9050919050565b600060208201905081810360008301526111cb816110a3565b9050919050565b600060208201905081810360008301526111eb816110c6565b9050919050565b600060608201905061120760008301866110e9565b6112146020830185611021565b6112216040830184611030565b949350505050565b600060408201905061123e60008301856110e9565b61124b6020830184611030565b9392505050565b600082825260208201905092915050565b600061126e82611489565b915061127983611489565b92508261128957611288611517565b5b828204905092915050565b6000808291508390505b60018511156112de578086048111156112ba576112b96114e8565b5b60018516156112c95780820291505b80810290506112d78561154b565b945061129e565b94509492505050565b60006112f282611489565b91506112fd83611493565b925061132a7fffffffffffffffffffffffffffffffffffffffffffffffffffffffffffffffff8484611332565b905092915050565b60008261134257600190506113fe565b8161135057600090506113fe565b816001811461136657600281146113705761139f565b60019150506113fe565b60ff841115611382576113816114e8565b5b8360020a915084821115611399576113986114e8565b5b506113fe565b5060208310610133831016604e8410600b84101617156113d45782820a9050838111156113cf576113ce6114e8565b5b6113fe565b6113e18484846001611294565b925090508184048111156113f8576113f76114e8565b5b81810290505b9392505050565b600061141082611493565b915061141b83611493565b92508282101561142e5761142d6114e8565b5b828203905092915050565b600061144482611469565b9050919050565b60008115159050919050565b600061146282611439565b9050919050565b600073ffffffffffffffffffffffffffffffffffffffff82169050919050565b6000819050919050565b600060ff82169050919050565b60006114ab826114b2565b9050919050565b60006114bd82611469565b9050919050565b60006114cf826114d6565b9050919050565b60006114e182611469565b9050919050565b7f4e487b7100000000000000000000000000000000000000000000000000000000600052601160045260246000fd5b7f4e487b7100000000000000000000000000000000000000000000000000000000600052601260045260246000fd5b600080fd5b60008160011c9050919050565b7f41334372763241334372764761756765546f6b656e45786368616e67653a204e60008201527f6f7420656e6f7567682061334372764761756765546f6b656e00000000000000602082015250565b7f41334372763241334372764761756765546f6b656e45786368616e67653a205360008201527f6f6d6520746f6b656e206e6f7420636f6d70617469626c650000000000000000602082015250565b7f41334372763241334372764761756765546f6b656e45786368616e67653a204e60008201527f6f7420656e6f756768206133437276546f6b656e20616674657220776974686460208201527f7261770000000000000000000000000000000000000000000000000000000000604082015250565b7f41334372763241334372764761756765546f6b656e45786368616e67653a204e60008201527f6f7420656e6f756768206133437276546f6b656e000000000000000000000000602082015250565b6116c381611439565b81146116ce57600080fd5b50565b6116da8161144b565b81146116e557600080fd5b50565b6116f181611457565b81146116fc57600080fd5b50565b61170881611489565b811461171357600080fd5b50565b61171f81611493565b811461172a57600080fd5b5056fea2646970667358221220487fa4255e7643c3e0ab89ae3bba8d658f6f67b1cc5a73de296fce8a51e5843b64736f6c63430008060033",
  "immutableReferences": {},
  "source": "// SPDX-License-Identifier: MIT\r\npragma solidity >=0.8.0 <0.9.0;\r\n\r\nimport \"@openzeppelin/contracts/token/ERC20/IERC20.sol\";\r\nimport \"@openzeppelin/contracts/token/ERC20/extensions/IERC20Metadata.sol\";\r\nimport \"../interfaces/ITokenExchange.sol\";\r\nimport \"../connectors/curve/interfaces/IRewardOnlyGauge.sol\";\r\n\r\ncontract A3Crv2A3CrvGaugeTokenExchange is ITokenExchange {\r\n    IRewardOnlyGauge public rewardGauge;\r\n    IERC20 public a3CrvToken;\r\n    IERC20 public a3CrvGaugeToken;\r\n\r\n    constructor(address _curveGauge) {\r\n        require(_curveGauge != address(0), \"Zero address not allowed\");\r\n\r\n        rewardGauge = IRewardOnlyGauge(_curveGauge);\r\n        a3CrvToken = IERC20(rewardGauge.lp_token());\r\n        a3CrvGaugeToken = IERC20(_curveGauge);\r\n    }\r\n\r\n    function exchange(\r\n        address spender,\r\n        IERC20 from,\r\n        address receiver,\r\n        IERC20 to,\r\n        uint256 amount\r\n    ) external override {\r\n        require(\r\n            (from == a3CrvToken && to == a3CrvGaugeToken) ||\r\n                (from == a3CrvGaugeToken && to == a3CrvToken),\r\n            \"A3Crv2A3CrvGaugeTokenExchange: Some token not compatible\"\r\n        );\r\n\r\n        if (amount == 0) {\r\n            from.transfer(spender, from.balanceOf(address(this)));\r\n            return;\r\n        }\r\n\r\n        if (from == a3CrvToken && to == a3CrvGaugeToken) {\r\n            //TODO: denominator usage\r\n            uint256 denominator = 10**(18 - IERC20Metadata(address(a3CrvToken)).decimals());\r\n            amount = amount / denominator;\r\n\r\n            require(\r\n                a3CrvToken.balanceOf(address(this)) >= amount,\r\n                \"A3Crv2A3CrvGaugeTokenExchange: Not enough a3CrvToken\"\r\n            );\r\n\r\n            // check after denormilization\r\n            if (amount == 0) {\r\n                from.transfer(spender, from.balanceOf(address(this)));\r\n                return;\r\n            }\r\n\r\n            // gauge need approve on deposit cause by transferFrom inside deposit\r\n            a3CrvToken.approve(address(rewardGauge), amount);\r\n            rewardGauge.deposit(amount, receiver, false);\r\n        } else {\r\n            //TODO: denominator usage\r\n            uint256 denominator = 10**(18 - IERC20Metadata(address(a3CrvGaugeToken)).decimals());\r\n            amount = amount / denominator;\r\n\r\n            require(\r\n                a3CrvGaugeToken.balanceOf(address(this)) >= amount,\r\n                \"A3Crv2A3CrvGaugeTokenExchange: Not enough a3CrvGaugeToken\"\r\n            );\r\n\r\n            // check after denormilization\r\n            if (amount == 0) {\r\n                from.transfer(spender, from.balanceOf(address(this)));\r\n                return;\r\n            }\r\n\r\n            // gauge doesn't need approve on withdraw, but we should have amount token\r\n            // on tokenExchange\r\n            rewardGauge.withdraw(amount, false);\r\n            require(\r\n                a3CrvToken.balanceOf(address(this)) >= amount,\r\n                \"A3Crv2A3CrvGaugeTokenExchange: Not enough a3CrvToken after withdraw\"\r\n            );\r\n            // reward gauge transfer tokens to msg.sender, so transfer to receiver\r\n            a3CrvToken.transfer(receiver, a3CrvToken.balanceOf(address(this)));\r\n        }\r\n    }\r\n}\r\n",
  "sourcePath": "C:\\work\\overnight\\ovngt-mvp\\contracts\\token_exchanges\\A3Crv2A3CrvGaugeTokenExchange.sol",
  "compiler": {
    "name": "solc",
    "version": "0.8.6+commit.11564f7e.Emscripten.clang"
  },
  "schemaVersion": "3.4.2",
  "updatedAt": "2021-10-20T11:25:52.817Z",
  "devdoc": {
    "kind": "dev",
    "methods": {},
    "version": 1
  },
  "userdoc": {
    "kind": "user",
    "methods": {},
    "version": 1
  }
}