{
  "contractName": "ActivesList",
  "abi": [
    {
      "anonymous": false,
      "inputs": [
        {
          "indexed": true,
          "internalType": "address",
          "name": "previousOwner",
          "type": "address"
        },
        {
          "indexed": true,
          "internalType": "address",
          "name": "newOwner",
          "type": "address"
        }
      ],
      "name": "OwnershipTransferred",
      "type": "event"
    },
    {
      "inputs": [],
      "name": "owner",
      "outputs": [
        {
          "internalType": "address",
          "name": "",
          "type": "address"
        }
      ],
      "stateMutability": "view",
      "type": "function",
      "constant": true
    },
    {
      "inputs": [],
      "name": "renounceOwnership",
      "outputs": [],
      "stateMutability": "nonpayable",
      "type": "function"
    },
    {
      "inputs": [
        {
          "internalType": "bytes32",
          "name": "",
          "type": "bytes32"
        }
      ],
      "name": "rolemap",
      "outputs": [
        {
          "internalType": "address",
          "name": "",
          "type": "address"
        }
      ],
      "stateMutability": "view",
      "type": "function",
      "constant": true
    },
    {
      "inputs": [
        {
          "internalType": "bytes32",
          "name": "_role",
          "type": "bytes32"
        },
        {
          "internalType": "address",
          "name": "_actor",
          "type": "address"
        }
      ],
      "name": "setRole",
      "outputs": [],
      "stateMutability": "nonpayable",
      "type": "function"
    },
    {
      "inputs": [
        {
          "internalType": "address",
          "name": "newOwner",
          "type": "address"
        }
      ],
      "name": "transferOwnership",
      "outputs": [],
      "stateMutability": "nonpayable",
      "type": "function"
    },
    {
      "inputs": [
        {
          "internalType": "address",
          "name": "_addrAct",
          "type": "address"
        },
        {
          "internalType": "address",
          "name": "_connector",
          "type": "address"
        },
        {
          "internalType": "address",
          "name": "_poolPrice",
          "type": "address"
        },
        {
          "internalType": "address",
          "name": "_poolStake",
          "type": "address"
        },
        {
          "internalType": "uint16",
          "name": "_minSh",
          "type": "uint16"
        },
        {
          "internalType": "uint16",
          "name": "_maxSh",
          "type": "uint16"
        },
        {
          "internalType": "uint256",
          "name": "_initBal",
          "type": "uint256"
        },
        {
          "internalType": "address[]",
          "name": "_ders",
          "type": "address[]"
        }
      ],
      "name": "actAdd",
      "outputs": [],
      "stateMutability": "nonpayable",
      "type": "function"
    },
    {
      "inputs": [
        {
          "internalType": "address",
          "name": "_addrAct",
          "type": "address"
        },
        {
          "internalType": "address",
          "name": "_connector",
          "type": "address"
        },
        {
          "internalType": "address",
          "name": "_poolPrice",
          "type": "address"
        },
        {
          "internalType": "address",
          "name": "_poolStake",
          "type": "address"
        },
        {
          "internalType": "uint16",
          "name": "_minSh",
          "type": "uint16"
        },
        {
          "internalType": "uint16",
          "name": "_maxSh",
          "type": "uint16"
        },
        {
          "internalType": "uint8",
          "name": "_isW",
          "type": "uint8"
        }
      ],
      "name": "editAct",
      "outputs": [],
      "stateMutability": "nonpayable",
      "type": "function"
    },
    {
      "inputs": [
        {
          "internalType": "address",
          "name": "_addrAct",
          "type": "address"
        },
        {
          "internalType": "address",
          "name": "_derivative",
          "type": "address"
        }
      ],
      "name": "editActaddDerivate",
      "outputs": [],
      "stateMutability": "nonpayable",
      "type": "function"
    },
    {
      "inputs": [
        {
          "internalType": "address",
          "name": "_active",
          "type": "address"
        },
        {
          "internalType": "int128",
          "name": "_balance",
          "type": "int128"
        }
      ],
      "name": "changeBal",
      "outputs": [],
      "stateMutability": "nonpayable",
      "type": "function"
    },
    {
      "inputs": [
        {
          "internalType": "address",
          "name": "_addrAct",
          "type": "address"
        }
      ],
      "name": "getActive",
      "outputs": [
        {
          "components": [
            {
              "internalType": "address",
              "name": "actAddress",
              "type": "address"
            },
            {
              "internalType": "address",
              "name": "connector",
              "type": "address"
            },
            {
              "internalType": "address",
              "name": "poolPrice",
              "type": "address"
            },
            {
              "internalType": "address",
              "name": "poolStake",
              "type": "address"
            },
            {
              "internalType": "uint256",
              "name": "balance",
              "type": "uint256"
            },
            {
              "internalType": "uint16",
              "name": "minShare",
              "type": "uint16"
            },
            {
              "internalType": "uint16",
              "name": "maxShare",
              "type": "uint16"
            },
            {
              "internalType": "uint8",
              "name": "isWork",
              "type": "uint8"
            },
            {
              "internalType": "address[]",
              "name": "derivatives",
              "type": "address[]"
            }
          ],
          "internalType": "struct IActivesList.Active",
          "name": "",
          "type": "tuple"
        }
      ],
      "stateMutability": "view",
      "type": "function",
      "constant": true
    },
    {
      "inputs": [],
      "name": "getAllActives",
      "outputs": [
        {
          "components": [
            {
              "internalType": "address",
              "name": "actAddress",
              "type": "address"
            },
            {
              "internalType": "address",
              "name": "connector",
              "type": "address"
            },
            {
              "internalType": "address",
              "name": "poolPrice",
              "type": "address"
            },
            {
              "internalType": "address",
              "name": "poolStake",
              "type": "address"
            },
            {
              "internalType": "uint256",
              "name": "balance",
              "type": "uint256"
            },
            {
              "internalType": "uint16",
              "name": "minShare",
              "type": "uint16"
            },
            {
              "internalType": "uint16",
              "name": "maxShare",
              "type": "uint16"
            },
            {
              "internalType": "uint8",
              "name": "isWork",
              "type": "uint8"
            },
            {
              "internalType": "address[]",
              "name": "derivatives",
              "type": "address[]"
            }
          ],
          "internalType": "struct IActivesList.Active[]",
          "name": "",
          "type": "tuple[]"
        }
      ],
      "stateMutability": "view",
      "type": "function",
      "constant": true
    }
  ],
  "bytecode": "0x60806040523480156200001157600080fd5b5062000032620000266200003860201b60201c565b6200004060201b60201c565b620001fa565b600033905090565b600073ffffffffffffffffffffffffffffffffffffffff168173ffffffffffffffffffffffffffffffffffffffff161415620000b3576040517f08c379a0000000000000000000000000000000000000000000000000000000008152600401620000aa906200019e565b60405180910390fd5b60008060009054906101000a900473ffffffffffffffffffffffffffffffffffffffff169050816000806101000a81548173ffffffffffffffffffffffffffffffffffffffff021916908373ffffffffffffffffffffffffffffffffffffffff1602179055508173ffffffffffffffffffffffffffffffffffffffff168173ffffffffffffffffffffffffffffffffffffffff167f8be0079c531659141344cd1fd0a4f28419497f9722a3daafe3b4186f6b6457e060405160405180910390a35050565b600062000186601883620001c0565b91506200019382620001d1565b602082019050919050565b60006020820190508181036000830152620001b98162000177565b9050919050565b600082825260208201905092915050565b7f5a65726f2061646472657373206e6f7420616c6c6f7765640000000000000000600082015250565b6120e8806200020a6000396000f3fe608060405234801561001057600080fd5b50600436106100a95760003560e01c80638da5cb5b116100715780638da5cb5b1461013c578063daea3e3a1461015a578063dcef55dc1461018a578063dff87203146101a6578063e9843b12146101c2578063f2fde38b146101e0576100a9565b80630fc03a40146100ae5780632dc10a54146100ca57806365581aa5146100fa5780636bb7782b14610116578063715018a614610132575b600080fd5b6100c860048036038101906100c391906116b9565b6101fc565b005b6100e460048036038101906100df91906118ad565b6102c5565b6040516100f19190611c34565b60405180910390f35b610114600480360381019061010f91906116f9565b6102f8565b005b610130600480360381019061012b919061186d565b61064f565b005b61013a610704565b005b61014461078c565b6040516101519190611c34565b60405180910390f35b610174600480360381019061016f919061168c565b6107b5565b6040516101819190611cb1565b60405180910390f35b6101a4600480360381019061019f91906117cb565b610a7e565b005b6101c060048036038101906101bb91906118da565b610e67565b005b6101ca610fa9565b6040516101d79190611c4f565b60405180910390f35b6101fa60048036038101906101f5919061168c565b611256565b005b6003600260008473ffffffffffffffffffffffffffffffffffffffff1673ffffffffffffffffffffffffffffffffffffffff168152602001908152602001600020548154811061024f5761024e611f2d565b5b9060005260206000209060070201600601819080600181540180825580915050600190039060005260206000200160009091909190916101000a81548173ffffffffffffffffffffffffffffffffffffffff021916908373ffffffffffffffffffffffffffffffffffffffff1602179055505050565b60016020528060005260406000206000915054906101000a900473ffffffffffffffffffffffffffffffffffffffff1681565b6103006112de565b73ffffffffffffffffffffffffffffffffffffffff1661031e61078c565b73ffffffffffffffffffffffffffffffffffffffff1614610374576040517f08c379a000000000000000000000000000000000000000000000000000000000815260040161036b90611c71565b60405180910390fd5b60036040518061012001604052808a73ffffffffffffffffffffffffffffffffffffffff1681526020018973ffffffffffffffffffffffffffffffffffffffff1681526020018873ffffffffffffffffffffffffffffffffffffffff1681526020018773ffffffffffffffffffffffffffffffffffffffff1681526020018481526020018661ffff1681526020018561ffff168152602001600160ff16815260200183815250908060018154018082558091505060019003906000526020600020906007020160009091909190915060008201518160000160006101000a81548173ffffffffffffffffffffffffffffffffffffffff021916908373ffffffffffffffffffffffffffffffffffffffff16021790555060208201518160010160006101000a81548173ffffffffffffffffffffffffffffffffffffffff021916908373ffffffffffffffffffffffffffffffffffffffff16021790555060408201518160020160006101000a81548173ffffffffffffffffffffffffffffffffffffffff021916908373ffffffffffffffffffffffffffffffffffffffff16021790555060608201518160030160006101000a81548173ffffffffffffffffffffffffffffffffffffffff021916908373ffffffffffffffffffffffffffffffffffffffff1602179055506080820151816004015560a08201518160050160006101000a81548161ffff021916908361ffff16021790555060c08201518160050160026101000a81548161ffff021916908361ffff16021790555060e08201518160050160046101000a81548160ff021916908360ff1602179055506101008201518160060190805190602001906105ed92919061141a565b50505060016003805490506106029190611e2b565b600260008a73ffffffffffffffffffffffffffffffffffffffff1673ffffffffffffffffffffffffffffffffffffffff168152602001908152602001600020819055505050505050505050565b6000600260008473ffffffffffffffffffffffffffffffffffffffff1673ffffffffffffffffffffffffffffffffffffffff16815260200190815260200160002054905081600382815481106106a8576106a7611f2d565b5b9060005260206000209060070201600401546106c49190611da7565b6fffffffffffffffffffffffffffffffff16600382815481106106ea576106e9611f2d565b5b906000526020600020906007020160040181905550505050565b61070c6112de565b73ffffffffffffffffffffffffffffffffffffffff1661072a61078c565b73ffffffffffffffffffffffffffffffffffffffff1614610780576040517f08c379a000000000000000000000000000000000000000000000000000000000815260040161077790611c71565b60405180910390fd5b61078a60006112e6565b565b60008060009054906101000a900473ffffffffffffffffffffffffffffffffffffffff16905090565b6107bd6114a4565b6003600260008473ffffffffffffffffffffffffffffffffffffffff1673ffffffffffffffffffffffffffffffffffffffff16815260200190815260200160002054815481106108105761080f611f2d565b5b9060005260206000209060070201604051806101200160405290816000820160009054906101000a900473ffffffffffffffffffffffffffffffffffffffff1673ffffffffffffffffffffffffffffffffffffffff1673ffffffffffffffffffffffffffffffffffffffff1681526020016001820160009054906101000a900473ffffffffffffffffffffffffffffffffffffffff1673ffffffffffffffffffffffffffffffffffffffff1673ffffffffffffffffffffffffffffffffffffffff1681526020016002820160009054906101000a900473ffffffffffffffffffffffffffffffffffffffff1673ffffffffffffffffffffffffffffffffffffffff1673ffffffffffffffffffffffffffffffffffffffff1681526020016003820160009054906101000a900473ffffffffffffffffffffffffffffffffffffffff1673ffffffffffffffffffffffffffffffffffffffff1673ffffffffffffffffffffffffffffffffffffffff168152602001600482015481526020016005820160009054906101000a900461ffff1661ffff1661ffff1681526020016005820160029054906101000a900461ffff1661ffff1661ffff1681526020016005820160049054906101000a900460ff1660ff1660ff16815260200160068201805480602002602001604051908101604052809291908181526020018280548015610a6e57602002820191906000526020600020905b8160009054906101000a900473ffffffffffffffffffffffffffffffffffffffff1673ffffffffffffffffffffffffffffffffffffffff1681526020019060010190808311610a24575b5050505050815250509050919050565b610a866112de565b73ffffffffffffffffffffffffffffffffffffffff16610aa461078c565b73ffffffffffffffffffffffffffffffffffffffff1614610afa576040517f08c379a0000000000000000000000000000000000000000000000000000000008152600401610af190611c71565b60405180910390fd5b856003600260008a73ffffffffffffffffffffffffffffffffffffffff1673ffffffffffffffffffffffffffffffffffffffff1681526020019081526020016000205481548110610b4e57610b4d611f2d565b5b906000526020600020906007020160010160006101000a81548173ffffffffffffffffffffffffffffffffffffffff021916908373ffffffffffffffffffffffffffffffffffffffff160217905550846003600260008a73ffffffffffffffffffffffffffffffffffffffff1673ffffffffffffffffffffffffffffffffffffffff1681526020019081526020016000205481548110610bf157610bf0611f2d565b5b906000526020600020906007020160020160006101000a81548173ffffffffffffffffffffffffffffffffffffffff021916908373ffffffffffffffffffffffffffffffffffffffff160217905550836003600260008a73ffffffffffffffffffffffffffffffffffffffff1673ffffffffffffffffffffffffffffffffffffffff1681526020019081526020016000205481548110610c9457610c93611f2d565b5b906000526020600020906007020160030160006101000a81548173ffffffffffffffffffffffffffffffffffffffff021916908373ffffffffffffffffffffffffffffffffffffffff160217905550826003600260008a73ffffffffffffffffffffffffffffffffffffffff1673ffffffffffffffffffffffffffffffffffffffff1681526020019081526020016000205481548110610d3757610d36611f2d565b5b906000526020600020906007020160050160006101000a81548161ffff021916908361ffff160217905550816003600260008a73ffffffffffffffffffffffffffffffffffffffff1673ffffffffffffffffffffffffffffffffffffffff1681526020019081526020016000205481548110610db657610db5611f2d565b5b906000526020600020906007020160050160026101000a81548161ffff021916908361ffff160217905550806003600260008a73ffffffffffffffffffffffffffffffffffffffff1673ffffffffffffffffffffffffffffffffffffffff1681526020019081526020016000205481548110610e3557610e34611f2d565b5b906000526020600020906007020160050160046101000a81548160ff021916908360ff16021790555050505050505050565b610e6f6112de565b73ffffffffffffffffffffffffffffffffffffffff16610e8d61078c565b73ffffffffffffffffffffffffffffffffffffffff1614610ee3576040517f08c379a0000000000000000000000000000000000000000000000000000000008152600401610eda90611c71565b60405180910390fd5b600073ffffffffffffffffffffffffffffffffffffffff168173ffffffffffffffffffffffffffffffffffffffff161415610f53576040517f08c379a0000000000000000000000000000000000000000000000000000000008152600401610f4a90611c91565b60405180910390fd5b806001600084815260200190815260200160002060006101000a81548173ffffffffffffffffffffffffffffffffffffffff021916908373ffffffffffffffffffffffffffffffffffffffff1602179055505050565b60606003805480602002602001604051908101604052809291908181526020016000905b8282101561124d5783829060005260206000209060070201604051806101200160405290816000820160009054906101000a900473ffffffffffffffffffffffffffffffffffffffff1673ffffffffffffffffffffffffffffffffffffffff1673ffffffffffffffffffffffffffffffffffffffff1681526020016001820160009054906101000a900473ffffffffffffffffffffffffffffffffffffffff1673ffffffffffffffffffffffffffffffffffffffff1673ffffffffffffffffffffffffffffffffffffffff1681526020016002820160009054906101000a900473ffffffffffffffffffffffffffffffffffffffff1673ffffffffffffffffffffffffffffffffffffffff1673ffffffffffffffffffffffffffffffffffffffff1681526020016003820160009054906101000a900473ffffffffffffffffffffffffffffffffffffffff1673ffffffffffffffffffffffffffffffffffffffff1673ffffffffffffffffffffffffffffffffffffffff168152602001600482015481526020016005820160009054906101000a900461ffff1661ffff1661ffff1681526020016005820160029054906101000a900461ffff1661ffff1661ffff1681526020016005820160049054906101000a900460ff1660ff1660ff1681526020016006820180548060200260200160405190810160405280929190818152602001828054801561123557602002820191906000526020600020905b8160009054906101000a900473ffffffffffffffffffffffffffffffffffffffff1673ffffffffffffffffffffffffffffffffffffffff16815260200190600101908083116111eb575b50505050508152505081526020019060010190610fcd565b50505050905090565b61125e6112de565b73ffffffffffffffffffffffffffffffffffffffff1661127c61078c565b73ffffffffffffffffffffffffffffffffffffffff16146112d2576040517f08c379a00000000000000000000000000000000000000000000000000000000081526004016112c990611c71565b60405180910390fd5b6112db816112e6565b50565b600033905090565b600073ffffffffffffffffffffffffffffffffffffffff168173ffffffffffffffffffffffffffffffffffffffff161415611356576040517f08c379a000000000000000000000000000000000000000000000000000000000815260040161134d90611c91565b60405180910390fd5b60008060009054906101000a900473ffffffffffffffffffffffffffffffffffffffff169050816000806101000a81548173ffffffffffffffffffffffffffffffffffffffff021916908373ffffffffffffffffffffffffffffffffffffffff1602179055508173ffffffffffffffffffffffffffffffffffffffff168173ffffffffffffffffffffffffffffffffffffffff167f8be0079c531659141344cd1fd0a4f28419497f9722a3daafe3b4186f6b6457e060405160405180910390a35050565b828054828255906000526020600020908101928215611493579160200282015b828111156114925782518260006101000a81548173ffffffffffffffffffffffffffffffffffffffff021916908373ffffffffffffffffffffffffffffffffffffffff1602179055509160200191906001019061143a565b5b5090506114a09190611553565b5090565b604051806101200160405280600073ffffffffffffffffffffffffffffffffffffffff168152602001600073ffffffffffffffffffffffffffffffffffffffff168152602001600073ffffffffffffffffffffffffffffffffffffffff168152602001600073ffffffffffffffffffffffffffffffffffffffff16815260200160008152602001600061ffff168152602001600061ffff168152602001600060ff168152602001606081525090565b5b8082111561156c576000816000905550600101611554565b5090565b600061158361157e84611cf8565b611cd3565b905080838252602082019050828560208602820111156115a6576115a5611f90565b5b60005b858110156115d657816115bc88826115e0565b8452602084019350602083019250506001810190506115a9565b5050509392505050565b6000813590506115ef81612028565b92915050565b600082601f83011261160a57611609611f8b565b5b813561161a848260208601611570565b91505092915050565b6000813590506116328161203f565b92915050565b60008135905061164781612056565b92915050565b60008135905061165c8161206d565b92915050565b60008135905061167181612084565b92915050565b6000813590506116868161209b565b92915050565b6000602082840312156116a2576116a1611f9a565b5b60006116b0848285016115e0565b91505092915050565b600080604083850312156116d0576116cf611f9a565b5b60006116de858286016115e0565b92505060206116ef858286016115e0565b9150509250929050565b600080600080600080600080610100898b03121561171a57611719611f9a565b5b60006117288b828c016115e0565b98505060206117398b828c016115e0565b975050604061174a8b828c016115e0565b965050606061175b8b828c016115e0565b955050608061176c8b828c0161164d565b94505060a061177d8b828c0161164d565b93505060c061178e8b828c01611662565b92505060e089013567ffffffffffffffff8111156117af576117ae611f95565b5b6117bb8b828c016115f5565b9150509295985092959890939650565b600080600080600080600060e0888a0312156117ea576117e9611f9a565b5b60006117f88a828b016115e0565b97505060206118098a828b016115e0565b965050604061181a8a828b016115e0565b955050606061182b8a828b016115e0565b945050608061183c8a828b0161164d565b93505060a061184d8a828b0161164d565b92505060c061185e8a828b01611677565b91505092959891949750929550565b6000806040838503121561188457611883611f9a565b5b6000611892858286016115e0565b92505060206118a385828601611638565b9150509250929050565b6000602082840312156118c3576118c2611f9a565b5b60006118d184828501611623565b91505092915050565b600080604083850312156118f1576118f0611f9a565b5b60006118ff85828601611623565b9250506020611910858286016115e0565b9150509250929050565b60006119268383611946565b60208301905092915050565b600061193e8383611a7d565b905092915050565b61194f81611e5f565b82525050565b61195e81611e5f565b82525050565b600061196f82611d44565b6119798185611d74565b935061198483611d24565b8060005b838110156119b557815161199c888261191a565b97506119a783611d5a565b925050600181019050611988565b5085935050505092915050565b60006119cd82611d4f565b6119d78185611d85565b9350836020820285016119e985611d34565b8060005b85811015611a255784840389528151611a068582611932565b9450611a1183611d67565b925060208a019950506001810190506119ed565b50829750879550505050505092915050565b6000611a44602383611d96565b9150611a4f82611fb0565b604082019050919050565b6000611a67601883611d96565b9150611a7282611fff565b602082019050919050565b600061012083016000830151611a966000860182611946565b506020830151611aa96020860182611946565b506040830151611abc6040860182611946565b506060830151611acf6060860182611946565b506080830151611ae26080860182611c16565b5060a0830151611af560a0860182611c07565b5060c0830151611b0860c0860182611c07565b5060e0830151611b1b60e0860182611c25565b50610100830151848203610100860152611b358282611964565b9150508091505092915050565b600061012083016000830151611b5b6000860182611946565b506020830151611b6e6020860182611946565b506040830151611b816040860182611946565b506060830151611b946060860182611946565b506080830151611ba76080860182611c16565b5060a0830151611bba60a0860182611c07565b5060c0830151611bcd60c0860182611c07565b5060e0830151611be060e0860182611c25565b50610100830151848203610100860152611bfa8282611964565b9150508091505092915050565b611c1081611e88565b82525050565b611c1f81611eb6565b82525050565b611c2e81611ec0565b82525050565b6000602082019050611c496000830184611955565b92915050565b60006020820190508181036000830152611c6981846119c2565b905092915050565b60006020820190508181036000830152611c8a81611a37565b9050919050565b60006020820190508181036000830152611caa81611a5a565b9050919050565b60006020820190508181036000830152611ccb8184611b42565b905092915050565b6000611cdd611cee565b9050611ce98282611ecd565b919050565b6000604051905090565b600067ffffffffffffffff821115611d1357611d12611f5c565b5b602082029050602081019050919050565b6000819050602082019050919050565b6000819050602082019050919050565b600081519050919050565b600081519050919050565b6000602082019050919050565b6000602082019050919050565b600082825260208201905092915050565b600082825260208201905092915050565b600082825260208201905092915050565b6000611db282611e7b565b9150611dbd83611e7b565b9250816f7fffffffffffffffffffffffffffffff03831360008312151615611de857611de7611efe565b5b817fffffffffffffffffffffffffffffffff80000000000000000000000000000000038312600083121615611e2057611e1f611efe565b5b828201905092915050565b6000611e3682611eb6565b9150611e4183611eb6565b925082821015611e5457611e53611efe565b5b828203905092915050565b6000611e6a82611e96565b9050919050565b6000819050919050565b600081600f0b9050919050565b600061ffff82169050919050565b600073ffffffffffffffffffffffffffffffffffffffff82169050919050565b6000819050919050565b600060ff82169050919050565b611ed682611f9f565b810181811067ffffffffffffffff82111715611ef557611ef4611f5c565b5b80604052505050565b7f4e487b7100000000000000000000000000000000000000000000000000000000600052601160045260246000fd5b7f4e487b7100000000000000000000000000000000000000000000000000000000600052603260045260246000fd5b7f4e487b7100000000000000000000000000000000000000000000000000000000600052604160045260246000fd5b600080fd5b600080fd5b600080fd5b600080fd5b6000601f19601f8301169050919050565b7f4f776e61626c654578743a2063616c6c6572206973206e6f7420746865206f7760008201527f6e65720000000000000000000000000000000000000000000000000000000000602082015250565b7f5a65726f2061646472657373206e6f7420616c6c6f7765640000000000000000600082015250565b61203181611e5f565b811461203c57600080fd5b50565b61204881611e71565b811461205357600080fd5b50565b61205f81611e7b565b811461206a57600080fd5b50565b61207681611e88565b811461208157600080fd5b50565b61208d81611eb6565b811461209857600080fd5b50565b6120a481611ec0565b81146120af57600080fd5b5056fea264697066735822122063644fb4ebf80eb809898fb973988c8dc1c3b61bd05d8d7f1280dee7cd9505ee64736f6c63430008060033",
  "immutableReferences": {},
  "source": "// SPDX-License-Identifier: GPL-3.0\r\npragma solidity >=0.8.0 <0.9.0;\r\nimport \"../interfaces/IActivesList.sol\";\r\nimport \"../OwnableExt.sol\";\r\n\r\n/// @title ActivesList - mantains list of actives in system\r\n/// @author @stanta\r\n/// @notice CRUU for actives. Unpublishing insrtead of Deleting\r\n\r\ncontract ActivesList is OwnableExt, IActivesList {\r\n    mapping(address => uint256) actPos;\r\n    Active[] actList;\r\n\r\n    function actAdd(\r\n        address _addrAct,\r\n        address _connector,\r\n        address _poolPrice,\r\n        address _poolStake,\r\n        uint16 _minSh,\r\n        uint16 _maxSh,\r\n        uint256 _initBal,\r\n        address[] memory _ders\r\n    ) external override onlyOwner {\r\n        actList.push(\r\n            Active(_addrAct, _connector, _poolPrice, _poolStake, _initBal, _minSh, _maxSh, 1, _ders)\r\n        );\r\n        actPos[_addrAct] = actList.length - 1;\r\n    }\r\n\r\n    function editAct(\r\n        address _addrAct,\r\n        address _connector,\r\n        address _poolPrice,\r\n        address _poolStake,\r\n        uint16 _minSh,\r\n        uint16 _maxSh,\r\n        uint8 _isW\r\n    ) external override onlyOwner {\r\n        actList[actPos[_addrAct]].connector = _connector;\r\n        actList[actPos[_addrAct]].poolPrice = _poolPrice;\r\n        actList[actPos[_addrAct]].poolStake = _poolStake;\r\n        actList[actPos[_addrAct]].minShare = _minSh;\r\n        actList[actPos[_addrAct]].maxShare = _maxSh;\r\n        actList[actPos[_addrAct]].isWork = _isW;\r\n    }\r\n\r\n    function editActaddDerivate(address _addrAct, address _derivative) external override {\r\n        actList[actPos[_addrAct]].derivatives.push(_derivative);\r\n    }\r\n\r\n    function changeBal(address _active, int128 _balance) external override {\r\n        uint256 p = actPos[_active];\r\n\r\n        actList[p].balance = uint128(int128(uint128(actList[p].balance)) + _balance);\r\n    }\r\n\r\n    function getActive(address _addrAct) external view override returns (Active memory) {\r\n        return (actList[actPos[_addrAct]]);\r\n    }\r\n\r\n    function getAllActives() external view override returns (Active[] memory) {\r\n        return actList;\r\n    }\r\n}\r\n",
  "sourcePath": "C:\\work\\overnight\\ovngt-mvp\\contracts\\registries\\ActivesList.sol",
  "compiler": {
    "name": "solc",
    "version": "0.8.6+commit.11564f7e.Emscripten.clang"
  },
  "schemaVersion": "3.4.2",
  "updatedAt": "2021-10-17T21:05:11.878Z",
  "networkType": "ethereum",
  "devdoc": {
    "author": "@stanta",
    "kind": "dev",
    "methods": {
      "owner()": {
        "details": "Returns the address of the current owner."
      },
      "renounceOwnership()": {
        "details": "Leaves the contract without owner. It will not be possible to call `onlyOwner` functions anymore. Can only be called by the current owner. NOTE: Renouncing ownership will leave the contract without an owner, thereby removing any functionality that is only available to the owner."
      },
      "transferOwnership(address)": {
        "details": "Transfers ownership of the contract to a new account (`newOwner`). Can only be called by the current owner."
      }
    },
    "title": "ActivesList - mantains list of actives in system",
    "version": 1
  },
  "userdoc": {
    "kind": "user",
    "methods": {},
    "notice": "CRUU for actives. Unpublishing insrtead of Deleting",
    "version": 1
  }
}