{
  "contractName": "AUsdc2A3CrvTokenExchange",
  "abi": [
    {
      "inputs": [
        {
          "internalType": "address",
          "name": "_curveConnector",
          "type": "address"
        },
        {
          "internalType": "address",
          "name": "_aUsdcToken",
          "type": "address"
        },
        {
          "internalType": "address",
          "name": "_a3CrvToken",
          "type": "address"
        }
      ],
      "stateMutability": "nonpayable",
      "type": "constructor"
    },
    {
      "inputs": [],
      "name": "a3CrvToken",
      "outputs": [
        {
          "internalType": "contract IERC20",
          "name": "",
          "type": "address"
        }
      ],
      "stateMutability": "view",
      "type": "function"
    },
    {
      "inputs": [],
      "name": "aUsdcToken",
      "outputs": [
        {
          "internalType": "contract IERC20",
          "name": "",
          "type": "address"
        }
      ],
      "stateMutability": "view",
      "type": "function"
    },
    {
      "inputs": [],
      "name": "curveConnector",
      "outputs": [
        {
          "internalType": "contract IConnector",
          "name": "",
          "type": "address"
        }
      ],
      "stateMutability": "view",
      "type": "function"
    },
    {
      "inputs": [
        {
          "internalType": "address",
          "name": "spender",
          "type": "address"
        },
        {
          "internalType": "contract IERC20",
          "name": "from",
          "type": "address"
        },
        {
          "internalType": "address",
          "name": "receiver",
          "type": "address"
        },
        {
          "internalType": "contract IERC20",
          "name": "to",
          "type": "address"
        },
        {
          "internalType": "uint256",
          "name": "amount",
          "type": "uint256"
        }
      ],
      "name": "exchange",
      "outputs": [],
      "stateMutability": "nonpayable",
      "type": "function"
    }
  ],
  "bytecode": "0x60806040523480156200001157600080fd5b5060405162001d3b38038062001d3b833981810160405281019062000037919062000272565b600073ffffffffffffffffffffffffffffffffffffffff168373ffffffffffffffffffffffffffffffffffffffff161415620000aa576040517f08c379a0000000000000000000000000000000000000000000000000000000008152600401620000a190620002f5565b60405180910390fd5b600073ffffffffffffffffffffffffffffffffffffffff168273ffffffffffffffffffffffffffffffffffffffff1614156200011d576040517f08c379a00000000000000000000000000000000000000000000000000000000081526004016200011490620002f5565b60405180910390fd5b600073ffffffffffffffffffffffffffffffffffffffff168173ffffffffffffffffffffffffffffffffffffffff16141562000190576040517f08c379a00000000000000000000000000000000000000000000000000000000081526004016200018790620002f5565b60405180910390fd5b826000806101000a81548173ffffffffffffffffffffffffffffffffffffffff021916908373ffffffffffffffffffffffffffffffffffffffff16021790555081600160006101000a81548173ffffffffffffffffffffffffffffffffffffffff021916908373ffffffffffffffffffffffffffffffffffffffff16021790555080600260006101000a81548173ffffffffffffffffffffffffffffffffffffffff021916908373ffffffffffffffffffffffffffffffffffffffff160217905550505050620003a4565b6000815190506200026c816200038a565b92915050565b6000806000606084860312156200028e576200028d6200035c565b5b60006200029e868287016200025b565b9350506020620002b1868287016200025b565b9250506040620002c4868287016200025b565b9150509250925092565b6000620002dd60188362000317565b9150620002ea8262000361565b602082019050919050565b600060208201905081810360008301526200031081620002ce565b9050919050565b600082825260208201905092915050565b600062000335826200033c565b9050919050565b600073ffffffffffffffffffffffffffffffffffffffff82169050919050565b600080fd5b7f5a65726f2061646472657373206e6f7420616c6c6f7765640000000000000000600082015250565b620003958162000328565b8114620003a157600080fd5b50565b61198780620003b46000396000f3fe608060405234801561001057600080fd5b506004361061004c5760003560e01c8063183b8c54146100515780632d8647521461006f57806362ac75381461008d578063cc3d6cf7146100a9575b600080fd5b6100596100c7565b6040516100669190611258565b60405180910390f35b6100776100eb565b6040516100849190611273565b60405180910390f35b6100a760048036038101906100a29190610f8d565b610111565b005b6100b1610ee9565b6040516100be9190611273565b60405180910390f35b60008054906101000a900473ffffffffffffffffffffffffffffffffffffffff1681565b600260009054906101000a900473ffffffffffffffffffffffffffffffffffffffff1681565b600160009054906101000a900473ffffffffffffffffffffffffffffffffffffffff1673ffffffffffffffffffffffffffffffffffffffff168473ffffffffffffffffffffffffffffffffffffffff161480156101bb5750600260009054906101000a900473ffffffffffffffffffffffffffffffffffffffff1673ffffffffffffffffffffffffffffffffffffffff168273ffffffffffffffffffffffffffffffffffffffff16145b8061026c5750600260009054906101000a900473ffffffffffffffffffffffffffffffffffffffff1673ffffffffffffffffffffffffffffffffffffffff168473ffffffffffffffffffffffffffffffffffffffff1614801561026b5750600160009054906101000a900473ffffffffffffffffffffffffffffffffffffffff1673ffffffffffffffffffffffffffffffffffffffff168273ffffffffffffffffffffffffffffffffffffffff16145b5b6102ab576040517f08c379a00000000000000000000000000000000000000000000000000000000081526004016102a2906112d0565b60405180910390fd5b60008114156103cf578373ffffffffffffffffffffffffffffffffffffffff1663a9059cbb868673ffffffffffffffffffffffffffffffffffffffff166370a08231306040518263ffffffff1660e01b815260040161030a91906111dd565b60206040518083038186803b15801561032257600080fd5b505afa158015610336573d6000803e3d6000fd5b505050506040513d601f19601f8201168201806040525081019061035a9190611035565b6040518363ffffffff1660e01b81526004016103779291906111f8565b602060405180830381600087803b15801561039157600080fd5b505af11580156103a5573d6000803e3d6000fd5b505050506040513d601f19601f820116820180604052508101906103c99190611008565b50610ee2565b600160009054906101000a900473ffffffffffffffffffffffffffffffffffffffff1673ffffffffffffffffffffffffffffffffffffffff168473ffffffffffffffffffffffffffffffffffffffff161480156104795750600260009054906101000a900473ffffffffffffffffffffffffffffffffffffffff1673ffffffffffffffffffffffffffffffffffffffff168273ffffffffffffffffffffffffffffffffffffffff16145b156108e1576000600160009054906101000a900473ffffffffffffffffffffffffffffffffffffffff1673ffffffffffffffffffffffffffffffffffffffff1663313ce5676040518163ffffffff1660e01b815260040160206040518083038186803b1580156104e857600080fd5b505afa1580156104fc573d6000803e3d6000fd5b505050506040513d601f19601f820116820180604052508101906105209190611062565b601261052c91906114e3565b600a61053891906113c5565b905080826105469190611341565b915081600160009054906101000a900473ffffffffffffffffffffffffffffffffffffffff1673ffffffffffffffffffffffffffffffffffffffff166370a08231306040518263ffffffff1660e01b81526004016105a491906111dd565b60206040518083038186803b1580156105bc57600080fd5b505afa1580156105d0573d6000803e3d6000fd5b505050506040513d601f19601f820116820180604052508101906105f49190611035565b1015610635576040517f08c379a000000000000000000000000000000000000000000000000000000000815260040161062c906112b0565b60405180910390fd5b600082141561075a578473ffffffffffffffffffffffffffffffffffffffff1663a9059cbb878773ffffffffffffffffffffffffffffffffffffffff166370a08231306040518263ffffffff1660e01b815260040161069491906111dd565b60206040518083038186803b1580156106ac57600080fd5b505afa1580156106c0573d6000803e3d6000fd5b505050506040513d601f19601f820116820180604052508101906106e49190611035565b6040518363ffffffff1660e01b81526004016107019291906111f8565b602060405180830381600087803b15801561071b57600080fd5b505af115801561072f573d6000803e3d6000fd5b505050506040513d601f19601f820116820180604052508101906107539190611008565b5050610ee2565b600160009054906101000a900473ffffffffffffffffffffffffffffffffffffffff1673ffffffffffffffffffffffffffffffffffffffff1663a9059cbb60008054906101000a900473ffffffffffffffffffffffffffffffffffffffff16846040518363ffffffff1660e01b81526004016107d79291906111f8565b602060405180830381600087803b1580156107f157600080fd5b505af1158015610805573d6000803e3d6000fd5b505050506040513d601f19601f820116820180604052508101906108299190611008565b5060008054906101000a900473ffffffffffffffffffffffffffffffffffffffff1673ffffffffffffffffffffffffffffffffffffffff1663294091cd600160009054906101000a900473ffffffffffffffffffffffffffffffffffffffff1684876040518463ffffffff1660e01b81526004016108a993929190611221565b600060405180830381600087803b1580156108c357600080fd5b505af11580156108d7573d6000803e3d6000fd5b5050505050610ee1565b6000600160009054906101000a900473ffffffffffffffffffffffffffffffffffffffff1673ffffffffffffffffffffffffffffffffffffffff1663313ce5676040518163ffffffff1660e01b815260040160206040518083038186803b15801561094b57600080fd5b505afa15801561095f573d6000803e3d6000fd5b505050506040513d601f19601f820116820180604052508101906109839190611062565b601261098f91906114e3565b600a61099b91906113c5565b9050600081836109ab9190611341565b905082600260009054906101000a900473ffffffffffffffffffffffffffffffffffffffff1673ffffffffffffffffffffffffffffffffffffffff166370a08231306040518263ffffffff1660e01b8152600401610a0991906111dd565b60206040518083038186803b158015610a2157600080fd5b505afa158015610a35573d6000803e3d6000fd5b505050506040513d601f19601f82011682018060405250810190610a599190611035565b1015610a9a576040517f08c379a0000000000000000000000000000000000000000000000000000000008152600401610a91906112f0565b60405180910390fd5b6000811415610bc0578573ffffffffffffffffffffffffffffffffffffffff1663a9059cbb888873ffffffffffffffffffffffffffffffffffffffff166370a08231306040518263ffffffff1660e01b8152600401610af991906111dd565b60206040518083038186803b158015610b1157600080fd5b505afa158015610b25573d6000803e3d6000fd5b505050506040513d601f19601f82011682018060405250810190610b499190611035565b6040518363ffffffff1660e01b8152600401610b669291906111f8565b602060405180830381600087803b158015610b8057600080fd5b505af1158015610b94573d6000803e3d6000fd5b505050506040513d601f19601f82011682018060405250810190610bb89190611008565b505050610ee2565b600260009054906101000a900473ffffffffffffffffffffffffffffffffffffffff1673ffffffffffffffffffffffffffffffffffffffff1663a9059cbb60008054906101000a900473ffffffffffffffffffffffffffffffffffffffff16856040518363ffffffff1660e01b8152600401610c3d9291906111f8565b602060405180830381600087803b158015610c5757600080fd5b505af1925050508015610c8857506040513d601f19601f82011682018060405250810190610c859190611008565b60015b610d4d57610c946116b7565b806308c379a01415610cf15750610ca9611848565b80610cb45750610cf3565b806040517f08c379a0000000000000000000000000000000000000000000000000000000008152600401610ce8919061128e565b60405180910390fd5b505b604051602001610d02906111c8565b6040516020818303038152906040526040517f08c379a0000000000000000000000000000000000000000000000000000000008152600401610d44919061128e565b60405180910390fd5b5060008054906101000a900473ffffffffffffffffffffffffffffffffffffffff1673ffffffffffffffffffffffffffffffffffffffff1663926e31d6600160009054906101000a900473ffffffffffffffffffffffffffffffffffffffff1683886040518463ffffffff1660e01b8152600401610dcd93929190611221565b602060405180830381600087803b158015610de757600080fd5b505af1925050508015610e1857506040513d601f19601f82011682018060405250810190610e159190611035565b60015b610edd57610e246116b7565b806308c379a01415610e815750610e39611848565b80610e445750610e83565b806040517f08c379a0000000000000000000000000000000000000000000000000000000008152600401610e78919061128e565b60405180910390fd5b505b604051602001610e92906111b3565b6040516020818303038152906040526040517f08c379a0000000000000000000000000000000000000000000000000000000008152600401610ed4919061128e565b60405180910390fd5b5050505b5b5050505050565b600160009054906101000a900473ffffffffffffffffffffffffffffffffffffffff1681565b600081359050610f1e816118de565b92915050565b600081519050610f33816118f5565b92915050565b600081359050610f488161190c565b92915050565b600081359050610f5d81611923565b92915050565b600081519050610f7281611923565b92915050565b600081519050610f878161193a565b92915050565b600080600080600060a08688031215610fa957610fa86116d9565b5b6000610fb788828901610f0f565b9550506020610fc888828901610f39565b9450506040610fd988828901610f0f565b9350506060610fea88828901610f39565b9250506080610ffb88828901610f4e565b9150509295509295909350565b60006020828403121561101e5761101d6116d9565b5b600061102c84828501610f24565b91505092915050565b60006020828403121561104b5761104a6116d9565b5b600061105984828501610f63565b91505092915050565b600060208284031215611078576110776116d9565b5b600061108684828501610f78565b91505092915050565b61109881611517565b82525050565b6110a78161157e565b82525050565b6110b6816115a2565b82525050565b60006110c78261131a565b6110d18185611325565b93506110e18185602086016115c6565b6110ea816116de565b840191505092915050565b6000611102603683611325565b915061110d82611709565b604082019050919050565b6000611125601683611336565b915061113082611758565b601682019050919050565b6000611148601383611336565b915061115382611781565b601382019050919050565b600061116b603383611325565b9150611176826117aa565b604082019050919050565b600061118e602f83611325565b9150611199826117f9565b604082019050919050565b6111ad81611567565b82525050565b60006111be82611118565b9150819050919050565b60006111d38261113b565b9150819050919050565b60006020820190506111f2600083018461108f565b92915050565b600060408201905061120d600083018561108f565b61121a60208301846111a4565b9392505050565b6000606082019050611236600083018661108f565b61124360208301856111a4565b611250604083018461108f565b949350505050565b600060208201905061126d600083018461109e565b92915050565b600060208201905061128860008301846110ad565b92915050565b600060208201905081810360008301526112a881846110bc565b905092915050565b600060208201905081810360008301526112c9816110f5565b9050919050565b600060208201905081810360008301526112e98161115e565b9050919050565b6000602082019050818103600083015261130981611181565b9050919050565b6000604051905090565b600081519050919050565b600082825260208201905092915050565b600081905092915050565b600061134c82611567565b915061135783611567565b92508261136757611366611659565b5b828204905092915050565b6000808291508390505b60018511156113bc578086048111156113985761139761162a565b5b60018516156113a75780820291505b80810290506113b5856116ef565b945061137c565b94509492505050565b60006113d082611567565b91506113db83611571565b92506114087fffffffffffffffffffffffffffffffffffffffffffffffffffffffffffffffff8484611410565b905092915050565b60008261142057600190506114dc565b8161142e57600090506114dc565b8160018114611444576002811461144e5761147d565b60019150506114dc565b60ff8411156114605761145f61162a565b5b8360020a9150848211156114775761147661162a565b5b506114dc565b5060208310610133831016604e8410600b84101617156114b25782820a9050838111156114ad576114ac61162a565b5b6114dc565b6114bf8484846001611372565b925090508184048111156114d6576114d561162a565b5b81810290505b9392505050565b60006114ee82611571565b91506114f983611571565b92508282101561150c5761150b61162a565b5b828203905092915050565b600061152282611547565b9050919050565b60008115159050919050565b600061154082611517565b9050919050565b600073ffffffffffffffffffffffffffffffffffffffff82169050919050565b6000819050919050565b600060ff82169050919050565b600061158982611590565b9050919050565b600061159b82611547565b9050919050565b60006115ad826115b4565b9050919050565b60006115bf82611547565b9050919050565b60005b838110156115e45780820151818401526020810190506115c9565b838111156115f3576000848401525b50505050565b611602826116de565b810181811067ffffffffffffffff8211171561162157611620611688565b5b80604052505050565b7f4e487b7100000000000000000000000000000000000000000000000000000000600052601160045260246000fd5b7f4e487b7100000000000000000000000000000000000000000000000000000000600052601260045260246000fd5b7f4e487b7100000000000000000000000000000000000000000000000000000000600052604160045260246000fd5b600060033d11156116d65760046000803e6116d36000516116fc565b90505b90565b600080fd5b6000601f19601f8301169050919050565b60008160011c9050919050565b60008160e01c9050919050565b7f4155736463324133437276546f6b656e45786368616e67653a204e6f7420656e60008201527f6f756768206155736463546f6b656e20746f6b656e7300000000000000000000602082015250565b7f6375727665436f6e6e6563746f722e756e7374616b6500000000000000000000600082015250565b7f6133437276546f6b656e2e7472616e7366657200000000000000000000000000600082015250565b7f4155736463324133437276546f6b656e45786368616e67653a20536f6d65207460008201527f6f6b656e206e6f7420636f6d70617469626c6500000000000000000000000000602082015250565b7f4155736463324133437276546f6b656e45786368616e67653a204e6f7420656e60008201527f6f756768206133437276546f6b656e0000000000000000000000000000000000602082015250565b600060443d1015611858576118db565b611860611310565b60043d036004823e80513d602482011167ffffffffffffffff821117156118885750506118db565b808201805167ffffffffffffffff8111156118a657505050506118db565b80602083010160043d0385018111156118c35750505050506118db565b6118d2826020018501866115f9565b82955050505050505b90565b6118e781611517565b81146118f257600080fd5b50565b6118fe81611529565b811461190957600080fd5b50565b61191581611535565b811461192057600080fd5b50565b61192c81611567565b811461193757600080fd5b50565b61194381611571565b811461194e57600080fd5b5056fea264697066735822122035e18d7b03fe701d6a99d64cb8494e880cc88ebce05743f2d7a2089aa473b23264736f6c63430008060033",
  "immutableReferences": {},
  "source": "// SPDX-License-Identifier: MIT\r\npragma solidity >=0.8.0 <0.9.0;\r\n\r\nimport \"@openzeppelin/contracts/token/ERC20/IERC20.sol\";\r\nimport \"@openzeppelin/contracts/token/ERC20/extensions/IERC20Metadata.sol\";\r\nimport \"../interfaces/ITokenExchange.sol\";\r\nimport \"../interfaces/IConnector.sol\";\r\n\r\ncontract AUsdc2A3CrvTokenExchange is ITokenExchange {\r\n    IConnector public curveConnector;\r\n    IERC20 public aUsdcToken;\r\n    IERC20 public a3CrvToken;\r\n\r\n    constructor(\r\n        address _curveConnector,\r\n        address _aUsdcToken,\r\n        address _a3CrvToken\r\n    ) {\r\n        require(_curveConnector != address(0), \"Zero address not allowed\");\r\n        require(_aUsdcToken != address(0), \"Zero address not allowed\");\r\n        require(_a3CrvToken != address(0), \"Zero address not allowed\");\r\n\r\n        curveConnector = IConnector(_curveConnector);\r\n        aUsdcToken = IERC20(_aUsdcToken);\r\n        a3CrvToken = IERC20(_a3CrvToken);\r\n    }\r\n\r\n    function exchange(\r\n        address spender,\r\n        IERC20 from,\r\n        address receiver,\r\n        IERC20 to,\r\n        uint256 amount\r\n    ) external override {\r\n        require(\r\n            (from == aUsdcToken && to == a3CrvToken) || (from == a3CrvToken && to == aUsdcToken),\r\n            \"AUsdc2A3CrvTokenExchange: Some token not compatible\"\r\n        );\r\n\r\n        if (amount == 0) {\r\n            from.transfer(spender, from.balanceOf(address(this)));\r\n            return;\r\n        }\r\n\r\n        if (from == aUsdcToken && to == a3CrvToken) {\r\n            //TODO: denominator usage\r\n            uint256 denominator = 10**(18 - IERC20Metadata(address(aUsdcToken)).decimals());\r\n            amount = amount / denominator;\r\n\r\n            require(\r\n                aUsdcToken.balanceOf(address(this)) >= amount,\r\n                \"AUsdc2A3CrvTokenExchange: Not enough aUsdcToken tokens\"\r\n            );\r\n\r\n            // check after denormilization\r\n            if (amount == 0) {\r\n                from.transfer(spender, from.balanceOf(address(this)));\r\n                return;\r\n            }\r\n\r\n            aUsdcToken.transfer(address(curveConnector), amount);\r\n            curveConnector.stake(address(aUsdcToken), amount, receiver);\r\n        } else {\r\n            //TODO: denominator usage\r\n            uint256 denominator = 10**(18 - IERC20Metadata(address(aUsdcToken)).decimals());\r\n            uint256 aUsdcAmount = amount / denominator;\r\n\r\n            require(\r\n                a3CrvToken.balanceOf(address(this)) >= amount,\r\n                \"AUsdc2A3CrvTokenExchange: Not enough a3CrvToken\"\r\n            );\r\n\r\n            //TODO: add check that we can withdraw more than zero by call Curve pool and get estimate\r\n            //      aUsdc amount for our LP tokens\r\n            // check after denormilization\r\n            if (aUsdcAmount == 0) {\r\n                from.transfer(spender, from.balanceOf(address(this)));\r\n                return;\r\n            }\r\n\r\n            try a3CrvToken.transfer(address(curveConnector), amount) {\r\n                try curveConnector.unstake(address(aUsdcToken), aUsdcAmount, receiver) returns (\r\n                    uint256 withdrewAmount\r\n                ) {} catch Error(string memory reason) {\r\n                    revert(reason);\r\n                } catch {\r\n                    revert(string(abi.encodePacked(\"curveConnector.unstake\")));\r\n                }\r\n            } catch Error(string memory reason) {\r\n                revert(reason);\r\n            } catch {\r\n                revert(string(abi.encodePacked(\"a3CrvToken.transfer\")));\r\n            }\r\n\r\n            // uint256 a3CrvAmount = amount;\r\n            // require(\r\n            //     a3CrvToken.balanceOf(address(this)) >= a3CrvAmount,\r\n            //     \"AUsdc2A3CrvTokenExchange: Not enough a3CrvToken\"\r\n            // );\r\n\r\n            // a3CrvToken.transfer(address(curveConnector), a3CrvAmount);\r\n            // uint256 withdrewAmount = curveConnector.unstake(address(aUsdcToken), amount, receiver);\r\n\r\n            //TODO: may be add some checks for withdrewAmount\r\n        }\r\n    }\r\n}\r\n",
  "sourcePath": "C:\\work\\overnight\\ovngt-mvp\\contracts\\token_exchanges\\AUsdc2A3CrvTokenExchange.sol",
  "compiler": {
    "name": "solc",
    "version": "0.8.6+commit.11564f7e.Emscripten.clang"
  },
  "schemaVersion": "3.4.2",
  "updatedAt": "2021-10-20T11:25:52.825Z",
  "devdoc": {
    "kind": "dev",
    "methods": {},
    "version": 1
  },
  "userdoc": {
    "kind": "user",
    "methods": {},
    "version": 1
  }
}