{
  "contractName": "Balancer",
  "abi": [
    {
      "inputs": [],
      "stateMutability": "nonpayable",
      "type": "constructor"
    },
    {
      "anonymous": false,
      "inputs": [
        {
          "indexed": false,
          "internalType": "string",
          "name": "str",
          "type": "string"
        }
      ],
      "name": "ConsoleLog",
      "type": "event"
    },
    {
      "anonymous": false,
      "inputs": [
        {
          "indexed": true,
          "internalType": "bytes32",
          "name": "role",
          "type": "bytes32"
        },
        {
          "indexed": true,
          "internalType": "bytes32",
          "name": "previousAdminRole",
          "type": "bytes32"
        },
        {
          "indexed": true,
          "internalType": "bytes32",
          "name": "newAdminRole",
          "type": "bytes32"
        }
      ],
      "name": "RoleAdminChanged",
      "type": "event"
    },
    {
      "anonymous": false,
      "inputs": [
        {
          "indexed": true,
          "internalType": "bytes32",
          "name": "role",
          "type": "bytes32"
        },
        {
          "indexed": true,
          "internalType": "address",
          "name": "account",
          "type": "address"
        },
        {
          "indexed": true,
          "internalType": "address",
          "name": "sender",
          "type": "address"
        }
      ],
      "name": "RoleGranted",
      "type": "event"
    },
    {
      "anonymous": false,
      "inputs": [
        {
          "indexed": true,
          "internalType": "bytes32",
          "name": "role",
          "type": "bytes32"
        },
        {
          "indexed": true,
          "internalType": "address",
          "name": "account",
          "type": "address"
        },
        {
          "indexed": true,
          "internalType": "address",
          "name": "sender",
          "type": "address"
        }
      ],
      "name": "RoleRevoked",
      "type": "event"
    },
    {
      "inputs": [],
      "name": "DEFAULT_ADMIN_ROLE",
      "outputs": [
        {
          "internalType": "bytes32",
          "name": "",
          "type": "bytes32"
        }
      ],
      "stateMutability": "view",
      "type": "function",
      "constant": true
    },
    {
      "inputs": [
        {
          "internalType": "uint256",
          "name": "",
          "type": "uint256"
        }
      ],
      "name": "actionBuildersInOrder",
      "outputs": [
        {
          "internalType": "address",
          "name": "",
          "type": "address"
        }
      ],
      "stateMutability": "view",
      "type": "function",
      "constant": true
    },
    {
      "inputs": [
        {
          "internalType": "bytes32",
          "name": "role",
          "type": "bytes32"
        }
      ],
      "name": "getRoleAdmin",
      "outputs": [
        {
          "internalType": "bytes32",
          "name": "",
          "type": "bytes32"
        }
      ],
      "stateMutability": "view",
      "type": "function",
      "constant": true
    },
    {
      "inputs": [
        {
          "internalType": "bytes32",
          "name": "role",
          "type": "bytes32"
        },
        {
          "internalType": "address",
          "name": "account",
          "type": "address"
        }
      ],
      "name": "grantRole",
      "outputs": [],
      "stateMutability": "nonpayable",
      "type": "function"
    },
    {
      "inputs": [
        {
          "internalType": "bytes32",
          "name": "role",
          "type": "bytes32"
        },
        {
          "internalType": "address",
          "name": "account",
          "type": "address"
        }
      ],
      "name": "hasRole",
      "outputs": [
        {
          "internalType": "bool",
          "name": "",
          "type": "bool"
        }
      ],
      "stateMutability": "view",
      "type": "function",
      "constant": true
    },
    {
      "inputs": [],
      "name": "m2m",
      "outputs": [
        {
          "internalType": "contract IMark2Market",
          "name": "",
          "type": "address"
        }
      ],
      "stateMutability": "view",
      "type": "function",
      "constant": true
    },
    {
      "inputs": [
        {
          "internalType": "bytes32",
          "name": "role",
          "type": "bytes32"
        },
        {
          "internalType": "address",
          "name": "account",
          "type": "address"
        }
      ],
      "name": "renounceRole",
      "outputs": [],
      "stateMutability": "nonpayable",
      "type": "function"
    },
    {
      "inputs": [
        {
          "internalType": "bytes32",
          "name": "role",
          "type": "bytes32"
        },
        {
          "internalType": "address",
          "name": "account",
          "type": "address"
        }
      ],
      "name": "revokeRole",
      "outputs": [],
      "stateMutability": "nonpayable",
      "type": "function"
    },
    {
      "inputs": [
        {
          "internalType": "bytes4",
          "name": "interfaceId",
          "type": "bytes4"
        }
      ],
      "name": "supportsInterface",
      "outputs": [
        {
          "internalType": "bool",
          "name": "",
          "type": "bool"
        }
      ],
      "stateMutability": "view",
      "type": "function",
      "constant": true
    },
    {
      "inputs": [
        {
          "internalType": "address",
          "name": "_m2m",
          "type": "address"
        }
      ],
      "name": "setMark2Market",
      "outputs": [],
      "stateMutability": "nonpayable",
      "type": "function"
    },
    {
      "inputs": [
        {
          "internalType": "address[]",
          "name": "_actionBuildersInOrder",
          "type": "address[]"
        }
      ],
      "name": "setActionBuilders",
      "outputs": [],
      "stateMutability": "nonpayable",
      "type": "function"
    },
    {
      "inputs": [
        {
          "internalType": "address",
          "name": "actionBuilder",
          "type": "address"
        },
        {
          "internalType": "uint256",
          "name": "index",
          "type": "uint256"
        }
      ],
      "name": "addActionBuilderAt",
      "outputs": [],
      "stateMutability": "nonpayable",
      "type": "function"
    },
    {
      "inputs": [
        {
          "internalType": "contract IERC20",
          "name": "withdrawToken",
          "type": "address"
        },
        {
          "internalType": "uint256",
          "name": "withdrawAmount",
          "type": "uint256"
        }
      ],
      "name": "buildBalanceActions",
      "outputs": [
        {
          "components": [
            {
              "internalType": "contract ITokenExchange",
              "name": "tokenExchange",
              "type": "address"
            },
            {
              "internalType": "bytes32",
              "name": "code",
              "type": "bytes32"
            },
            {
              "internalType": "contract IERC20",
              "name": "from",
              "type": "address"
            },
            {
              "internalType": "contract IERC20",
              "name": "to",
              "type": "address"
            },
            {
              "internalType": "uint256",
              "name": "amount",
              "type": "uint256"
            },
            {
              "internalType": "bool",
              "name": "exchangeAll",
              "type": "bool"
            },
            {
              "internalType": "bool",
              "name": "executed",
              "type": "bool"
            }
          ],
          "internalType": "struct IActionBuilder.ExchangeAction[]",
          "name": "",
          "type": "tuple[]"
        }
      ],
      "stateMutability": "nonpayable",
      "type": "function"
    },
    {
      "inputs": [],
      "name": "buildBalanceActions",
      "outputs": [
        {
          "components": [
            {
              "internalType": "contract ITokenExchange",
              "name": "tokenExchange",
              "type": "address"
            },
            {
              "internalType": "bytes32",
              "name": "code",
              "type": "bytes32"
            },
            {
              "internalType": "contract IERC20",
              "name": "from",
              "type": "address"
            },
            {
              "internalType": "contract IERC20",
              "name": "to",
              "type": "address"
            },
            {
              "internalType": "uint256",
              "name": "amount",
              "type": "uint256"
            },
            {
              "internalType": "bool",
              "name": "exchangeAll",
              "type": "bool"
            },
            {
              "internalType": "bool",
              "name": "executed",
              "type": "bool"
            }
          ],
          "internalType": "struct IActionBuilder.ExchangeAction[]",
          "name": "",
          "type": "tuple[]"
        }
      ],
      "stateMutability": "nonpayable",
      "type": "function"
    }
  ],
  "bytecode": "0x60806040523480156200001157600080fd5b50620000276000801b336200002d60201b60201c565b620001a6565b6200003f82826200004360201b60201c565b5050565b6200005582826200013460201b60201c565b6200013057600160008084815260200190815260200160002060000160008373ffffffffffffffffffffffffffffffffffffffff1673ffffffffffffffffffffffffffffffffffffffff16815260200190815260200160002060006101000a81548160ff021916908315150217905550620000d56200019e60201b60201c565b73ffffffffffffffffffffffffffffffffffffffff168173ffffffffffffffffffffffffffffffffffffffff16837f2f8788117e7eff1d82e926ec794901d17c78024a50270940304540a733656f0d60405160405180910390a45b5050565b600080600084815260200190815260200160002060000160008373ffffffffffffffffffffffffffffffffffffffff1673ffffffffffffffffffffffffffffffffffffffff16815260200190815260200160002060009054906101000a900460ff16905092915050565b600033905090565b61354180620001b66000396000f3fe608060405234801561001057600080fd5b50600436106100ea5760003560e01c806386c9a1ac1161008c578063c7fa6b9e11610066578063c7fa6b9e14610247578063d4341b9914610277578063d547741f14610295578063e92d65f7146102b1576100ea565b806386c9a1ac146101dd57806391d14854146101f9578063a217fddf14610229576100ea565b80632f2ff15d116100c85780632f2ff15d1461016b57806336568abe1461018757806337044771146101a35780633d92c38b146101bf576100ea565b806301ffc9a7146100ef5780631ef70eca1461011f578063248a9ca31461013b575b600080fd5b61010960048036038101906101049190611ef2565b6102e1565b60405161011691906127c2565b60405180910390f35b61013960048036038101906101349190611e0b565b61035b565b005b61015560048036038101906101509190611e58565b61049a565b60405161016291906127dd565b60405180910390f35b61018560048036038101906101809190611eb2565b6104b9565b005b6101a1600480360381019061019c9190611eb2565b6104e2565b005b6101bd60048036038101906101b89190611d9e565b610565565b005b6101c7610665565b6040516101d491906127f8565b60405180910390f35b6101f760048036038101906101f29190611dcb565b61068b565b005b610213600480360381019061020e9190611eb2565b6106e5565b60405161022091906127c2565b60405180910390f35b61023161074f565b60405161023e91906127dd565b60405180910390f35b610261600480360381019061025c9190611f1f565b610756565b60405161026e91906127a0565b60405180910390f35b61027f610dd3565b60405161028c91906127a0565b60405180910390f35b6102af60048036038101906102aa9190611eb2565b610de5565b005b6102cb60048036038101906102c69190611fd5565b610e0e565b6040516102d8919061275c565b60405180910390f35b60007f7965db0b000000000000000000000000000000000000000000000000000000007bffffffffffffffffffffffffffffffffffffffffffffffffffffffff1916827bffffffffffffffffffffffffffffffffffffffffffffffffffffffff19161480610354575061035382610e4d565b5b9050919050565b6103686000801b336106e5565b6103a7576040517f08c379a000000000000000000000000000000000000000000000000000000000815260040161039e90612855565b60405180910390fd5b60005b828290508160ff161015610402576103ef83838360ff168181106103d1576103d0613066565b5b90506020020160208101906103e69190611d9e565b8260ff16610eb7565b80806103fa90612f74565b9150506103aa565b50818190506002805490501115610496576000828290506002805490506104299190612d0d565b905060005b818160ff16101561049357600280548061044b5761044a613037565b5b6001900381819060005260206000200160006101000a81549073ffffffffffffffffffffffffffffffffffffffff02191690559055808061048b90612f74565b91505061042e565b50505b5050565b6000806000838152602001908152602001600020600101549050919050565b6104c28261049a565b6104d3816104ce610faa565b610fb2565b6104dd838361104f565b505050565b6104ea610faa565b73ffffffffffffffffffffffffffffffffffffffff168173ffffffffffffffffffffffffffffffffffffffff1614610557576040517f08c379a000000000000000000000000000000000000000000000000000000000815260040161054e90612895565b60405180910390fd5b610561828261112f565b5050565b6105726000801b336106e5565b6105b1576040517f08c379a00000000000000000000000000000000000000000000000000000000081526004016105a890612855565b60405180910390fd5b600073ffffffffffffffffffffffffffffffffffffffff168173ffffffffffffffffffffffffffffffffffffffff161415610621576040517f08c379a000000000000000000000000000000000000000000000000000000000815260040161061890612875565b60405180910390fd5b80600160006101000a81548173ffffffffffffffffffffffffffffffffffffffff021916908373ffffffffffffffffffffffffffffffffffffffff16021790555050565b600160009054906101000a900473ffffffffffffffffffffffffffffffffffffffff1681565b6106986000801b336106e5565b6106d7576040517f08c379a00000000000000000000000000000000000000000000000000000000081526004016106ce90612855565b60405180910390fd5b6106e18282610eb7565b5050565b600080600084815260200190815260200160002060000160008373ffffffffffffffffffffffffffffffffffffffff1673ffffffffffffffffffffffffffffffffffffffff16815260200190815260200160002060009054906101000a900460ff16905092915050565b6000801b81565b6060600160009054906101000a900473ffffffffffffffffffffffffffffffffffffffff1673ffffffffffffffffffffffffffffffffffffffff1663734bd75d84846040518363ffffffff1660e01b81526004016107b5929190612777565b600060405180830381600087803b1580156107cf57600080fd5b505af192505050801561080557506040513d6000823e3d601f19601f820116820180604052508101906108029190611f8c565b60015b610911576108116130c4565b806308c379a014156108a157506108266133bd565b8061083157506108a3565b8061083b85611210565b610844856113d3565b6040516020016108569392919061260d565b6040516020818303038152906040526040517f08c379a00000000000000000000000000000000000000000000000000000000081526004016108989190612813565b60405180910390fd5b505b6108ac83611210565b6108b5836113d3565b6040516020016108c69291906126dd565b6040516020818303038152906040526040517f08c379a00000000000000000000000000000000000000000000000000000000081526004016109089190612813565b60405180910390fd5b6000816020015190506109596040518060400160405280601081526020017f746f74616c5573646350726963653a20000000000000000000000000000000008152508261153a565b600060028054905067ffffffffffffffff81111561097a57610979613095565b5b6040519080825280602002602001820160405280156109b357816020015b6109a0611820565b8152602001906001900390816109985790505b5090506109fa6040518060400160405280601e81526020017f616374696f6e4275696c64657273496e4f726465722e6c656e6774683a20000081525060028054905061153a565b60005b6002805490508160ff161015610d865760028160ff1681548110610a2457610a23613066565b5b9060005260206000200160009054906101000a900473ffffffffffffffffffffffffffffffffffffffff1673ffffffffffffffffffffffffffffffffffffffff16638a0aeb8585846040518363ffffffff1660e01b8152600401610a899291906128b5565b60e06040518083038186803b158015610aa157600080fd5b505afa925050508015610ad257506040513d601f19601f82011682018060405250810190610acf9190611f5f565b60015b610d5057610ade6130c4565b806308c379a01415610c275750610af36133bd565b80610afe5750610c29565b610b0a8260ff166113d3565b8160028460ff1681548110610b2257610b21613066565b5b9060005260206000200160009054906101000a900473ffffffffffffffffffffffffffffffffffffffff1673ffffffffffffffffffffffffffffffffffffffff166318ad30886040518163ffffffff1660e01b815260040160206040518083038186803b158015610b9257600080fd5b505afa158015610ba6573d6000803e3d6000fd5b505050506040513d601f19601f82011682018060405250810190610bca9190611e85565b604051602001610bdc9392919061265f565b6040516020818303038152906040526040517f08c379a0000000000000000000000000000000000000000000000000000000008152600401610c1e9190612813565b60405180910390fd5b505b610c358160ff166113d3565b60028260ff1681548110610c4c57610c4b613066565b5b9060005260206000200160009054906101000a900473ffffffffffffffffffffffffffffffffffffffff1673ffffffffffffffffffffffffffffffffffffffff166318ad30886040518163ffffffff1660e01b815260040160206040518083038186803b158015610cbc57600080fd5b505afa158015610cd0573d6000803e3d6000fd5b505050506040513d601f19601f82011682018060405250810190610cf49190611e85565b604051602001610d059291906126aa565b6040516020818303038152906040526040517f08c379a0000000000000000000000000000000000000000000000000000000008152600401610d479190612813565b60405180910390fd5b80838360ff1681518110610d6757610d66613066565b5b6020026020010181905250508080610d7e90612f74565b9150506109fd565b50610dc76040518060400160405280601481526020017f616374696f6e4f726465722e6c656e6774683a20000000000000000000000000815250825161153a565b80935050505092915050565b6060610de0600080610756565b905090565b610dee8261049a565b610dff81610dfa610faa565b610fb2565b610e09838361112f565b505050565b60028181548110610e1e57600080fd5b906000526020600020016000915054906101000a900473ffffffffffffffffffffffffffffffffffffffff1681565b60007f01ffc9a7000000000000000000000000000000000000000000000000000000007bffffffffffffffffffffffffffffffffffffffffffffffffffffffff1916827bffffffffffffffffffffffffffffffffffffffffffffffffffffffff1916149050919050565b600060028054905090506000811480610edb575081600182610ed99190612d0d565b105b15610f4857600060018284610ef09190612d0d565b610efa9190612a18565b905060005b818160ff161015610f45576002600181600181540180825580915050039060005260206000200160009054906101000a9050508080610f3d90612f74565b915050610eff565b50505b8260028381548110610f5d57610f5c613066565b5b9060005260206000200160006101000a81548173ffffffffffffffffffffffffffffffffffffffff021916908373ffffffffffffffffffffffffffffffffffffffff160217905550505050565b600033905090565b610fbc82826106e5565b61104b57610fe18173ffffffffffffffffffffffffffffffffffffffff16601461159e565b610fef8360001c602061159e565b604051602001611000929190612722565b6040516020818303038152906040526040517f08c379a00000000000000000000000000000000000000000000000000000000081526004016110429190612813565b60405180910390fd5b5050565b61105982826106e5565b61112b57600160008084815260200190815260200160002060000160008373ffffffffffffffffffffffffffffffffffffffff1673ffffffffffffffffffffffffffffffffffffffff16815260200190815260200160002060006101000a81548160ff0219169083151502179055506110d0610faa565b73ffffffffffffffffffffffffffffffffffffffff168173ffffffffffffffffffffffffffffffffffffffff16837f2f8788117e7eff1d82e926ec794901d17c78024a50270940304540a733656f0d60405160405180910390a45b5050565b61113982826106e5565b1561120c57600080600084815260200190815260200160002060000160008373ffffffffffffffffffffffffffffffffffffffff1673ffffffffffffffffffffffffffffffffffffffff16815260200190815260200160002060006101000a81548160ff0219169083151502179055506111b1610faa565b73ffffffffffffffffffffffffffffffffffffffff168173ffffffffffffffffffffffffffffffffffffffff16837ff6391f5c32d9c69d2a47ea670b442974b53935d1edc7fd64eb21e047a839171b60405160405180910390a45b5050565b60606000602867ffffffffffffffff81111561122f5761122e613095565b5b6040519080825280601f01601f1916602001820160405280156112615781602001600182028036833780820191505090505b50905060005b60148110156113c957600081601361127f9190612d0d565b600861128b9190612c78565b60026112979190612b5a565b8573ffffffffffffffffffffffffffffffffffffffff166112b89190612aa5565b60f81b9050600060108260f81c6112cf9190612ad6565b60f81b905060008160f81c60106112e69190612cd2565b8360f81c6112f49190612d41565b60f81b9050611302826117da565b858560026113109190612c78565b8151811061132157611320613066565b5b60200101907effffffffffffffffffffffffffffffffffffffffffffffffffffffffffffff1916908160001a905350611359816117da565b8560018660026113699190612c78565b6113739190612a18565b8151811061138457611383613066565b5b60200101907effffffffffffffffffffffffffffffffffffffffffffffffffffffffffffff1916908160001a90535050505080806113c190612f2b565b915050611267565b5080915050919050565b6060600082141561141b576040518060400160405280600181526020017f30000000000000000000000000000000000000000000000000000000000000008152509050611535565b600082905060005b6000821461144d57808061143690612f2b565b915050600a826114469190612aa5565b9150611423565b60008167ffffffffffffffff81111561146957611468613095565b5b6040519080825280601f01601f19166020018201604052801561149b5781602001600182028036833780820191505090505b50905060008290505b6000861461152d576001816114b99190612d0d565b9050600a866114c89190612fa8565b60306114d49190612a18565b60f81b8282815181106114ea576114e9613066565b5b60200101907effffffffffffffffffffffffffffffffffffffffffffffffffffffffffffff1916908160001a905350600a866115269190612aa5565b95506114a4565b819450505050505b919050565b7f0f8db0708c4e6b233e2c285fe1ed66015dee71bd374ac8e835534be5f592d6a282611565836113d3565b6040516020016115769291906125e9565b6040516020818303038152906040526040516115929190612813565b60405180910390a15050565b6060600060028360026115b19190612c78565b6115bb9190612a18565b67ffffffffffffffff8111156115d4576115d3613095565b5b6040519080825280601f01601f1916602001820160405280156116065781602001600182028036833780820191505090505b5090507f30000000000000000000000000000000000000000000000000000000000000008160008151811061163e5761163d613066565b5b60200101907effffffffffffffffffffffffffffffffffffffffffffffffffffffffffffff1916908160001a9053507f7800000000000000000000000000000000000000000000000000000000000000816001815181106116a2576116a1613066565b5b60200101907effffffffffffffffffffffffffffffffffffffffffffffffffffffffffffff1916908160001a905350600060018460026116e29190612c78565b6116ec9190612a18565b90505b600181111561178c577f3031323334353637383961626364656600000000000000000000000000000000600f86166010811061172e5761172d613066565b5b1a60f81b82828151811061174557611744613066565b5b60200101907effffffffffffffffffffffffffffffffffffffffffffffffffffffffffffff1916908160001a905350600485901c94508061178590612ed0565b90506116ef565b50600084146117d0576040517f08c379a00000000000000000000000000000000000000000000000000000000081526004016117c790612835565b60405180910390fd5b8091505092915050565b6000600a8260f81c60ff1610156118055760308260f81c6117fb9190612a6e565b60f81b905061181b565b60578260f81c6118159190612a6e565b60f81b90505b919050565b6040518060e00160405280600073ffffffffffffffffffffffffffffffffffffffff16815260200160008019168152602001600073ffffffffffffffffffffffffffffffffffffffff168152602001600073ffffffffffffffffffffffffffffffffffffffff168152602001600081526020016000151581526020016000151581525090565b60006118b96118b484612911565b6128ec565b905080838252602082019050828560208602820111156118dc576118db6130fa565b5b60005b8581101561192a57815167ffffffffffffffff811115611902576119016130eb565b5b80860161190f8982611afa565b855260208501945060208401935050506001810190506118df565b5050509392505050565b60006119476119428461293d565b6128ec565b905082815260208101848484011115611963576119626130ff565b5b61196e848285612e9d565b509392505050565b60008135905061198581613453565b92915050565b60008151905061199a81613453565b92915050565b60008083601f8401126119b6576119b56130eb565b5b8235905067ffffffffffffffff8111156119d3576119d26130e6565b5b6020830191508360208202830111156119ef576119ee6130fa565b5b9250929050565b600082601f830112611a0b57611a0a6130eb565b5b8151611a1b8482602086016118a6565b91505092915050565b600081519050611a338161346a565b92915050565b600081359050611a4881613481565b92915050565b600081519050611a5d81613481565b92915050565b600081359050611a7281613498565b92915050565b600081359050611a87816134af565b92915050565b600081519050611a9c816134af565b92915050565b600081519050611ab1816134c6565b92915050565b600081519050611ac6816134dd565b92915050565b600082601f830112611ae157611ae06130eb565b5b8151611af1848260208601611934565b91505092915050565b60006101808284031215611b1157611b106130f0565b5b611b1c6101806128ec565b90506000611b2c8482850161198b565b6000830152506020611b4084828501611d89565b6020830152506040611b5484828501611d89565b6040830152506060611b6884828501611d89565b6060830152506080611b7c84828501611ab7565b60808301525060a0611b9084828501611a24565b60a08301525060c0611ba484828501611d89565b60c08301525060e0611bb884828501611d89565b60e083015250610100611bcd84828501611d89565b61010083015250610120611be384828501611d89565b6101208301525061014082015167ffffffffffffffff811115611c0957611c086130f5565b5b611c1584828501611acc565b6101408301525061016082015167ffffffffffffffff811115611c3b57611c3a6130f5565b5b611c4784828501611acc565b6101608301525092915050565b600060e08284031215611c6a57611c696130f0565b5b611c7460e06128ec565b90506000611c8484828501611aa2565b6000830152506020611c9884828501611a4e565b6020830152506040611cac84828501611a8d565b6040830152506060611cc084828501611a8d565b6060830152506080611cd484828501611d89565b60808301525060a0611ce884828501611a24565b60a08301525060c0611cfc84828501611a24565b60c08301525092915050565b600060408284031215611d1e57611d1d6130f0565b5b611d2860406128ec565b9050600082015167ffffffffffffffff811115611d4857611d476130f5565b5b611d54848285016119f6565b6000830152506020611d6884828501611d89565b60208301525092915050565b600081359050611d83816134f4565b92915050565b600081519050611d98816134f4565b92915050565b600060208284031215611db457611db3613109565b5b6000611dc284828501611976565b91505092915050565b60008060408385031215611de257611de1613109565b5b6000611df085828601611976565b9250506020611e0185828601611d74565b9150509250929050565b60008060208385031215611e2257611e21613109565b5b600083013567ffffffffffffffff811115611e4057611e3f613104565b5b611e4c858286016119a0565b92509250509250929050565b600060208284031215611e6e57611e6d613109565b5b6000611e7c84828501611a39565b91505092915050565b600060208284031215611e9b57611e9a613109565b5b6000611ea984828501611a4e565b91505092915050565b60008060408385031215611ec957611ec8613109565b5b6000611ed785828601611a39565b9250506020611ee885828601611976565b9150509250929050565b600060208284031215611f0857611f07613109565b5b6000611f1684828501611a63565b91505092915050565b60008060408385031215611f3657611f35613109565b5b6000611f4485828601611a78565b9250506020611f5585828601611d74565b9150509250929050565b600060e08284031215611f7557611f74613109565b5b6000611f8384828501611c54565b91505092915050565b600060208284031215611fa257611fa1613109565b5b600082015167ffffffffffffffff811115611fc057611fbf613104565b5b611fcc84828501611d08565b91505092915050565b600060208284031215611feb57611fea613109565b5b6000611ff984828501611d74565b91505092915050565b600061200e83836123f5565b905092915050565b60006120228383612500565b60e08301905092915050565b61203781612d75565b82525050565b61204681612d75565b82525050565b60006120578261298e565b61206181856129c9565b9350836020820285016120738561296e565b8060005b858110156120af57848403895281516120908582612002565b945061209b836129af565b925060208a01995050600181019050612077565b50829750879550505050505092915050565b60006120cc82612999565b6120d681856129da565b93506120e18361297e565b8060005b838110156121125781516120f98882612016565b9750612104836129bc565b9250506001810190506120e5565b5085935050505092915050565b61212881612d87565b82525050565b61213781612d87565b82525050565b61214681612d93565b82525050565b61215581612d93565b82525050565b61216c61216782612d93565b612f9e565b82525050565b61217b81612e31565b82525050565b61218a81612e55565b82525050565b61219981612e79565b82525050565b6121a881612ded565b82525050565b60006121b9826129a4565b6121c381856129eb565b93506121d3818560208601612e9d565b6121dc8161310e565b840191505092915050565b60006121f2826129a4565b6121fc81856129fc565b935061220c818560208601612e9d565b6122158161310e565b840191505092915050565b600061222b826129a4565b6122358185612a0d565b9350612245818560208601612e9d565b80840191505092915050565b600061225e6020836129fc565b915061226982613139565b602082019050919050565b6000612281601083612a0d565b915061228c82613162565b601082019050919050565b60006122a4602783612a0d565b91506122af8261318b565b602782019050919050565b60006122c7600183612a0d565b91506122d2826131da565b600182019050919050565b60006122ea6014836129fc565b91506122f582613203565b602082019050919050565b600061230d602583612a0d565b91506123188261322c565b602582019050919050565b6000612330602483612a0d565b915061233b8261327b565b602482019050919050565b60006123536018836129fc565b915061235e826132ca565b602082019050919050565b6000612376600f83612a0d565b9150612381826132f3565b600f82019050919050565b6000612399601783612a0d565b91506123a48261331c565b601782019050919050565b60006123bc601183612a0d565b91506123c782613345565b601182019050919050565b60006123df602f836129fc565b91506123ea8261336e565b604082019050919050565b60006101808301600083015161240e600086018261202e565b50602083015161242160208601826125cb565b50604083015161243460408601826125cb565b50606083015161244760608601826125cb565b50608083015161245a608086018261219f565b5060a083015161246d60a086018261211f565b5060c083015161248060c08601826125cb565b5060e083015161249360e08601826125cb565b506101008301516124a86101008601826125cb565b506101208301516124bd6101208601826125cb565b506101408301518482036101408601526124d782826121ae565b9150506101608301518482036101608601526124f382826121ae565b9150508091505092915050565b60e0820160008201516125166000850182612190565b506020820151612529602085018261213d565b50604082015161253c6040850182612172565b50606082015161254f6060850182612172565b50608082015161256260808501826125cb565b5060a082015161257560a085018261211f565b5060c082015161258860c085018261211f565b50505050565b600060408301600083015184820360008601526125ab828261204c565b91505060208301516125c060208601826125cb565b508091505092915050565b6125d481612e1a565b82525050565b6125e381612e1a565b82525050565b60006125f58285612220565b91506126018284612220565b91508190509392505050565b60006126198286612220565b915061262482612297565b915061262f82612369565b915061263b8285612220565b915061264682612274565b91506126528284612220565b9150819050949350505050565b600061266b8286612220565b9150612676826122ba565b91506126828285612220565b915061268d82612323565b9150612699828461215b565b602082019150819050949350505050565b60006126b68285612220565b91506126c182612323565b91506126cd828461215b565b6020820191508190509392505050565b60006126e882612300565b91506126f382612369565b91506126ff8285612220565b915061270a82612274565b91506127168284612220565b91508190509392505050565b600061272d8261238c565b91506127398285612220565b9150612744826123af565b91506127508284612220565b91508190509392505050565b6000602082019050612771600083018461203d565b92915050565b600060408201905061278c600083018561203d565b61279960208301846125da565b9392505050565b600060208201905081810360008301526127ba81846120c1565b905092915050565b60006020820190506127d7600083018461212e565b92915050565b60006020820190506127f2600083018461214c565b92915050565b600060208201905061280d6000830184612181565b92915050565b6000602082019050818103600083015261282d81846121e7565b905092915050565b6000602082019050818103600083015261284e81612251565b9050919050565b6000602082019050818103600083015261286e816122dd565b9050919050565b6000602082019050818103600083015261288e81612346565b9050919050565b600060208201905081810360008301526128ae816123d2565b9050919050565b600060408201905081810360008301526128cf818561258e565b905081810360208301526128e381846120c1565b90509392505050565b60006128f6612907565b90506129028282612efa565b919050565b6000604051905090565b600067ffffffffffffffff82111561292c5761292b613095565b5b602082029050602081019050919050565b600067ffffffffffffffff82111561295857612957613095565b5b6129618261310e565b9050602081019050919050565b6000819050602082019050919050565b6000819050602082019050919050565b600081519050919050565b600081519050919050565b600081519050919050565b6000602082019050919050565b6000602082019050919050565b600082825260208201905092915050565b600082825260208201905092915050565b600082825260208201905092915050565b600082825260208201905092915050565b600081905092915050565b6000612a2382612e1a565b9150612a2e83612e1a565b9250827fffffffffffffffffffffffffffffffffffffffffffffffffffffffffffffffff03821115612a6357612a62612fd9565b5b828201905092915050565b6000612a7982612e24565b9150612a8483612e24565b92508260ff03821115612a9a57612a99612fd9565b5b828201905092915050565b6000612ab082612e1a565b9150612abb83612e1a565b925082612acb57612aca613008565b5b828204905092915050565b6000612ae182612e24565b9150612aec83612e24565b925082612afc57612afb613008565b5b828204905092915050565b6000808291508390505b6001851115612b5157808604811115612b2d57612b2c612fd9565b5b6001851615612b3c5780820291505b8081029050612b4a8561311f565b9450612b11565b94509492505050565b6000612b6582612e1a565b9150612b7083612e1a565b9250612b9d7fffffffffffffffffffffffffffffffffffffffffffffffffffffffffffffffff8484612ba5565b905092915050565b600082612bb55760019050612c71565b81612bc35760009050612c71565b8160018114612bd95760028114612be357612c12565b6001915050612c71565b60ff841115612bf557612bf4612fd9565b5b8360020a915084821115612c0c57612c0b612fd9565b5b50612c71565b5060208310610133831016604e8410600b8410161715612c475782820a905083811115612c4257612c41612fd9565b5b612c71565b612c548484846001612b07565b92509050818404811115612c6b57612c6a612fd9565b5b81810290505b9392505050565b6000612c8382612e1a565b9150612c8e83612e1a565b9250817fffffffffffffffffffffffffffffffffffffffffffffffffffffffffffffffff0483118215151615612cc757612cc6612fd9565b5b828202905092915050565b6000612cdd82612e24565b9150612ce883612e24565b92508160ff0483118215151615612d0257612d01612fd9565b5b828202905092915050565b6000612d1882612e1a565b9150612d2383612e1a565b925082821015612d3657612d35612fd9565b5b828203905092915050565b6000612d4c82612e24565b9150612d5783612e24565b925082821015612d6a57612d69612fd9565b5b828203905092915050565b6000612d8082612dfa565b9050919050565b60008115159050919050565b6000819050919050565b60007fffffffff0000000000000000000000000000000000000000000000000000000082169050919050565b6000612dd482612d75565b9050919050565b6000612de682612d75565b9050919050565b60008160000b9050919050565b600073ffffffffffffffffffffffffffffffffffffffff82169050919050565b6000819050919050565b600060ff82169050919050565b6000612e3c82612e43565b9050919050565b6000612e4e82612dfa565b9050919050565b6000612e6082612e67565b9050919050565b6000612e7282612dfa565b9050919050565b6000612e8482612e8b565b9050919050565b6000612e9682612dfa565b9050919050565b60005b83811015612ebb578082015181840152602081019050612ea0565b83811115612eca576000848401525b50505050565b6000612edb82612e1a565b91506000821415612eef57612eee612fd9565b5b600182039050919050565b612f038261310e565b810181811067ffffffffffffffff82111715612f2257612f21613095565b5b80604052505050565b6000612f3682612e1a565b91507fffffffffffffffffffffffffffffffffffffffffffffffffffffffffffffffff821415612f6957612f68612fd9565b5b600182019050919050565b6000612f7f82612e24565b915060ff821415612f9357612f92612fd9565b5b600182019050919050565b6000819050919050565b6000612fb382612e1a565b9150612fbe83612e1a565b925082612fce57612fcd613008565b5b828206905092915050565b7f4e487b7100000000000000000000000000000000000000000000000000000000600052601160045260246000fd5b7f4e487b7100000000000000000000000000000000000000000000000000000000600052601260045260246000fd5b7f4e487b7100000000000000000000000000000000000000000000000000000000600052603160045260246000fd5b7f4e487b7100000000000000000000000000000000000000000000000000000000600052603260045260246000fd5b7f4e487b7100000000000000000000000000000000000000000000000000000000600052604160045260246000fd5b600060033d11156130e35760046000803e6130e060005161312c565b90505b90565b600080fd5b600080fd5b600080fd5b600080fd5b600080fd5b600080fd5b600080fd5b600080fd5b6000601f19601f8301169050919050565b60008160011c9050919050565b60008160e01c9050919050565b7f537472696e67733a20686578206c656e67746820696e73756666696369656e74600082015250565b7f207769746864726177416d6f756e742000000000000000000000000000000000600082015250565b7f7c206d326d2e6173736574507269636573466f7242616c616e63653a204e6f2060008201527f726561736f6e2000000000000000000000000000000000000000000000000000602082015250565b7f2000000000000000000000000000000000000000000000000000000000000000600082015250565b7f5265737472696374656420746f2061646d696e73000000000000000000000000600082015250565b7f6d326d2e6173736574507269636573466f7242616c616e63653a204e6f20726560008201527f61736f6e20000000000000000000000000000000000000000000000000000000602082015250565b7f7c2049416374696f6e4275696c6465722e6275696c64416374696f6e3a20636f60008201527f64653a2000000000000000000000000000000000000000000000000000000000602082015250565b7f5a65726f2061646472657373206e6f7420616c6c6f7765640000000000000000600082015250565b7f207769746864726177546f6b656e200000000000000000000000000000000000600082015250565b7f416363657373436f6e74726f6c3a206163636f756e7420000000000000000000600082015250565b7f206973206d697373696e6720726f6c6520000000000000000000000000000000600082015250565b7f416363657373436f6e74726f6c3a2063616e206f6e6c792072656e6f756e636560008201527f20726f6c657320666f722073656c660000000000000000000000000000000000602082015250565b600060443d10156133cd57613450565b6133d5612907565b60043d036004823e80513d602482011167ffffffffffffffff821117156133fd575050613450565b808201805167ffffffffffffffff81111561341b5750505050613450565b80602083010160043d038501811115613438575050505050613450565b61344782602001850186612efa565b82955050505050505b90565b61345c81612d75565b811461346757600080fd5b50565b61347381612d87565b811461347e57600080fd5b50565b61348a81612d93565b811461349557600080fd5b50565b6134a181612d9d565b81146134ac57600080fd5b50565b6134b881612dc9565b81146134c357600080fd5b50565b6134cf81612ddb565b81146134da57600080fd5b50565b6134e681612ded565b81146134f157600080fd5b50565b6134fd81612e1a565b811461350857600080fd5b5056fea2646970667358221220fca2bd8d7b95e43b74525594a009a1f453b1cd863255989bc5b02de64e3fe24f64736f6c63430008060033",
  "immutableReferences": {},
  "source": "// SPDX-License-Identifier: MIT\r\npragma solidity >=0.8.0 <0.9.0;\r\n\r\nimport \"@openzeppelin/contracts/token/ERC20/IERC20.sol\";\r\nimport \"@openzeppelin/contracts/access/AccessControl.sol\";\r\nimport \"./interfaces/IMark2Market.sol\";\r\nimport \"./interfaces/IActionBuilder.sol\";\r\nimport \"./interfaces/ITokenExchange.sol\";\r\nimport \"./token_exchanges/Usdc2AUsdcTokenExchange.sol\";\r\n\r\n//TODO: use AccessControl or Ownable from zeppelin\r\ncontract Balancer is AccessControl {\r\n    // ---  fields\r\n\r\n    IMark2Market public m2m;\r\n    address[] public actionBuildersInOrder;\r\n\r\n    // ---  events\r\n\r\n    //TODO: remove\r\n    event ConsoleLog(string str);\r\n\r\n    // ---  modifiers\r\n\r\n    modifier onlyAdmin() {\r\n        require(hasRole(DEFAULT_ADMIN_ROLE, msg.sender), \"Restricted to admins\");\r\n        _;\r\n    }\r\n\r\n    // ---  constructor\r\n\r\n    constructor() {\r\n        _setupRole(DEFAULT_ADMIN_ROLE, msg.sender);\r\n    }\r\n\r\n    // ---  setters\r\n\r\n    function setMark2Market(address _m2m) external onlyAdmin {\r\n        require(_m2m != address(0), \"Zero address not allowed\");\r\n        m2m = IMark2Market(_m2m);\r\n    }\r\n\r\n    function setActionBuilders(address[] calldata _actionBuildersInOrder) external onlyAdmin {\r\n        for (uint8 i = 0; i < _actionBuildersInOrder.length; i++) {\r\n            _addActionBuilderAt(_actionBuildersInOrder[i], i);\r\n        }\r\n        // truncate array if needed\r\n        if (actionBuildersInOrder.length > _actionBuildersInOrder.length) {\r\n            uint256 removeCount = actionBuildersInOrder.length - _actionBuildersInOrder.length;\r\n            for (uint8 i = 0; i < removeCount; i++) {\r\n                actionBuildersInOrder.pop();\r\n            }\r\n        }\r\n    }\r\n\r\n    function addActionBuilderAt(address actionBuilder, uint256 index) external onlyAdmin {\r\n        _addActionBuilderAt(actionBuilder, index);\r\n    }\r\n\r\n    function _addActionBuilderAt(address actionBuilder, uint256 index) internal {\r\n        uint256 currentlength = actionBuildersInOrder.length;\r\n        // expand array id needed\r\n        if (currentlength == 0 || currentlength - 1 < index) {\r\n            uint256 additionalCount = index - currentlength + 1;\r\n            for (uint8 i = 0; i < additionalCount; i++) {\r\n                actionBuildersInOrder.push();\r\n            }\r\n        }\r\n        actionBuildersInOrder[index] = actionBuilder;\r\n    }\r\n\r\n    // ---  logic\r\n\r\n    function buildBalanceActions() public returns (IActionBuilder.ExchangeAction[] memory) {\r\n        // Same to zero withdrawal balance\r\n        return buildBalanceActions(IERC20(address(0)), 0);\r\n    }\r\n\r\n    function buildBalanceActions(IERC20 withdrawToken, uint256 withdrawAmount)\r\n        public\r\n        returns (IActionBuilder.ExchangeAction[] memory)\r\n    {\r\n        try m2m.assetPricesForBalance(address(withdrawToken), withdrawAmount) returns (\r\n            IMark2Market.TotalAssetPrices memory assetPrices\r\n        ) {\r\n            // // 1. get current prices from M2M\r\n            // IMark2Market.TotalAssetPrices memory assetPrices = m2m.assetPricesForBalance(\r\n            //     address(withdrawToken),\r\n            //     withdrawAmount\r\n            // );\r\n\r\n            // 2. calc total price\r\n            uint256 totalUsdcPrice = assetPrices.totalUsdcPrice;\r\n\r\n            //TODO: remove\r\n            log(\"totalUsdcPrice: \", totalUsdcPrice);\r\n\r\n            // 3. make actions\r\n            IActionBuilder.ExchangeAction[]\r\n                memory actionOrder = new IActionBuilder.ExchangeAction[](\r\n                    actionBuildersInOrder.length\r\n                );\r\n            //TODO: remove\r\n            log(\"actionBuildersInOrder.length: \", actionBuildersInOrder.length);\r\n\r\n            for (uint8 i = 0; i < actionBuildersInOrder.length; i++) {\r\n                try\r\n                    IActionBuilder(actionBuildersInOrder[i]).buildAction(assetPrices, actionOrder)\r\n                returns (IActionBuilder.ExchangeAction memory action) {\r\n                    actionOrder[i] = action;\r\n                } catch Error(string memory reason) {\r\n                    revert(\r\n                        string(\r\n                            abi.encodePacked(\r\n                                uint2str(i),\r\n                                \" \",\r\n                                reason,\r\n                                \"| IActionBuilder.buildAction: code: \",\r\n                                IActionBuilder(actionBuildersInOrder[i]).getActionCode()\r\n                            )\r\n                        )\r\n                    );\r\n                } catch {\r\n                    revert(\r\n                        string(\r\n                            abi.encodePacked(\r\n                                uint2str(i),\r\n                                \"| IActionBuilder.buildAction: code: \",\r\n                                IActionBuilder(actionBuildersInOrder[i]).getActionCode()\r\n                            )\r\n                        )\r\n                    );\r\n                }\r\n\r\n                // IActionBuilder.ExchangeAction memory action = IActionBuilder(actionBuildersInOrder[i])\r\n                //     .buildAction(assetPrices, actionOrder);\r\n                // actionOrder[i] = action;\r\n            }\r\n            //TODO: remove\r\n            log(\"actionOrder.length: \", actionOrder.length);\r\n\r\n            return actionOrder;\r\n        } catch Error(string memory reason) {\r\n            revert(\r\n                string(\r\n                    abi.encodePacked(\r\n                        reason,\r\n                        \"| m2m.assetPricesForBalance: No reason \",\r\n                        \" withdrawToken \",\r\n                        toAsciiString(address(withdrawToken)),\r\n                        \" withdrawAmount \",\r\n                        uint2str(withdrawAmount)\r\n                    )\r\n                )\r\n            );\r\n        } catch {\r\n            revert(\r\n                string(\r\n                    abi.encodePacked(\r\n                        \"m2m.assetPricesForBalance: No reason \",\r\n                        \" withdrawToken \",\r\n                        toAsciiString(address(withdrawToken)),\r\n                        \" withdrawAmount \",\r\n                        uint2str(withdrawAmount)\r\n                    )\r\n                )\r\n            );\r\n        }\r\n\r\n        // // 1. get current prices from M2M\r\n        // IMark2Market.TotalAssetPrices memory assetPrices = m2m.assetPricesForBalance(\r\n        //     address(withdrawToken),\r\n        //     withdrawAmount\r\n        // );\r\n\r\n        // // 2. calc total price\r\n        // uint256 totalUsdcPrice = assetPrices.totalUsdcPrice;\r\n\r\n        // //TODO: remove\r\n        // log(\"totalUsdcPrice: \", totalUsdcPrice);\r\n\r\n        // // 3. make actions\r\n        // IActionBuilder.ExchangeAction[]\r\n        //     memory actionOrder = new IActionBuilder.ExchangeAction[](\r\n        //         actionBuildersInOrder.length\r\n        //     );\r\n        // //TODO: remove\r\n        // log(\"actionBuildersInOrder.length: \", actionBuildersInOrder.length);\r\n\r\n        // for (uint8 i = 0; i < actionBuildersInOrder.length; i++) {\r\n        //     IActionBuilder.ExchangeAction memory action = IActionBuilder(actionBuildersInOrder[i])\r\n        //         .buildAction(assetPrices, actionOrder);\r\n        //     actionOrder[i] = action;\r\n        // }\r\n        // //TODO: remove\r\n        // log(\"actionOrder.length: \", actionOrder.length);\r\n\r\n        // return actionOrder;\r\n    }\r\n\r\n    //TODO: remove\r\n    function log(string memory message, uint value) internal {\r\n        emit ConsoleLog(string(abi.encodePacked(message, uint2str(value))));\r\n    }\r\n\r\n    //TODO: remove\r\n    function toAsciiString(address x) internal pure returns (string memory) {\r\n        bytes memory s = new bytes(40);\r\n        for (uint i = 0; i < 20; i++) {\r\n            bytes1 b = bytes1(uint8(uint(uint160(x)) / (2**(8 * (19 - i)))));\r\n            bytes1 hi = bytes1(uint8(b) / 16);\r\n            bytes1 lo = bytes1(uint8(b) - 16 * uint8(hi));\r\n            s[2 * i] = char(hi);\r\n            s[2 * i + 1] = char(lo);\r\n        }\r\n        return string(s);\r\n    }\r\n\r\n    //TODO: remove\r\n    function char(bytes1 b) internal pure returns (bytes1 c) {\r\n        if (uint8(b) < 10) return bytes1(uint8(b) + 0x30);\r\n        else return bytes1(uint8(b) + 0x57);\r\n    }\r\n\r\n    //TODO: remove\r\n    function uint2str(uint _i) internal pure returns (string memory _uintAsString) {\r\n        if (_i == 0) {\r\n            return \"0\";\r\n        }\r\n        uint j = _i;\r\n        uint len;\r\n        while (j != 0) {\r\n            len++;\r\n            j /= 10;\r\n        }\r\n        bytes memory bstr = new bytes(len);\r\n        uint k = len;\r\n        while (_i != 0) {\r\n            k = k - 1;\r\n            bstr[k] = bytes1(uint8(48 + (_i % 10)));\r\n            _i /= 10;\r\n        }\r\n        return string(bstr);\r\n    }\r\n}\r\n",
  "sourcePath": "C:\\work\\overnight\\ovngt-mvp\\contracts\\Balancer.sol",
  "compiler": {
    "name": "solc",
    "version": "0.8.6+commit.11564f7e.Emscripten.clang"
  },
  "schemaVersion": "3.4.2",
  "updatedAt": "2021-10-20T11:29:38.883Z",
  "networkType": "ethereum",
  "devdoc": {
    "kind": "dev",
    "methods": {
      "getRoleAdmin(bytes32)": {
        "details": "Returns the admin role that controls `role`. See {grantRole} and {revokeRole}. To change a role's admin, use {_setRoleAdmin}."
      },
      "grantRole(bytes32,address)": {
        "details": "Grants `role` to `account`. If `account` had not been already granted `role`, emits a {RoleGranted} event. Requirements: - the caller must have ``role``'s admin role."
      },
      "hasRole(bytes32,address)": {
        "details": "Returns `true` if `account` has been granted `role`."
      },
      "renounceRole(bytes32,address)": {
        "details": "Revokes `role` from the calling account. Roles are often managed via {grantRole} and {revokeRole}: this function's purpose is to provide a mechanism for accounts to lose their privileges if they are compromised (such as when a trusted device is misplaced). If the calling account had been granted `role`, emits a {RoleRevoked} event. Requirements: - the caller must be `account`."
      },
      "revokeRole(bytes32,address)": {
        "details": "Revokes `role` from `account`. If `account` had been granted `role`, emits a {RoleRevoked} event. Requirements: - the caller must have ``role``'s admin role."
      },
      "supportsInterface(bytes4)": {
        "details": "See {IERC165-supportsInterface}."
      }
    },
    "version": 1
  },
  "userdoc": {
    "kind": "user",
    "methods": {},
    "version": 1
  }
}