{
  "contractName": "InvestmentPortfolio",
  "abi": [
    {
      "inputs": [],
      "stateMutability": "nonpayable",
      "type": "constructor"
    },
    {
      "anonymous": false,
      "inputs": [
        {
          "indexed": true,
          "internalType": "bytes32",
          "name": "role",
          "type": "bytes32"
        },
        {
          "indexed": true,
          "internalType": "bytes32",
          "name": "previousAdminRole",
          "type": "bytes32"
        },
        {
          "indexed": true,
          "internalType": "bytes32",
          "name": "newAdminRole",
          "type": "bytes32"
        }
      ],
      "name": "RoleAdminChanged",
      "type": "event"
    },
    {
      "anonymous": false,
      "inputs": [
        {
          "indexed": true,
          "internalType": "bytes32",
          "name": "role",
          "type": "bytes32"
        },
        {
          "indexed": true,
          "internalType": "address",
          "name": "account",
          "type": "address"
        },
        {
          "indexed": true,
          "internalType": "address",
          "name": "sender",
          "type": "address"
        }
      ],
      "name": "RoleGranted",
      "type": "event"
    },
    {
      "anonymous": false,
      "inputs": [
        {
          "indexed": true,
          "internalType": "bytes32",
          "name": "role",
          "type": "bytes32"
        },
        {
          "indexed": true,
          "internalType": "address",
          "name": "account",
          "type": "address"
        },
        {
          "indexed": true,
          "internalType": "address",
          "name": "sender",
          "type": "address"
        }
      ],
      "name": "RoleRevoked",
      "type": "event"
    },
    {
      "anonymous": false,
      "inputs": [
        {
          "indexed": false,
          "internalType": "uint256",
          "name": "index",
          "type": "uint256"
        },
        {
          "indexed": false,
          "internalType": "address",
          "name": "asset",
          "type": "address"
        },
        {
          "indexed": false,
          "internalType": "address",
          "name": "priceGetter",
          "type": "address"
        }
      ],
      "name": "UpdatedAssetInfo",
      "type": "event"
    },
    {
      "anonymous": false,
      "inputs": [
        {
          "indexed": false,
          "internalType": "uint256",
          "name": "index",
          "type": "uint256"
        },
        {
          "indexed": false,
          "internalType": "address",
          "name": "asset",
          "type": "address"
        },
        {
          "indexed": false,
          "internalType": "uint256",
          "name": "minWeight",
          "type": "uint256"
        },
        {
          "indexed": false,
          "internalType": "uint256",
          "name": "targetWeight",
          "type": "uint256"
        },
        {
          "indexed": false,
          "internalType": "uint256",
          "name": "maxWeight",
          "type": "uint256"
        }
      ],
      "name": "UpdatedAssetWeight",
      "type": "event"
    },
    {
      "inputs": [],
      "name": "DEFAULT_ADMIN_ROLE",
      "outputs": [
        {
          "internalType": "bytes32",
          "name": "",
          "type": "bytes32"
        }
      ],
      "stateMutability": "view",
      "type": "function",
      "constant": true
    },
    {
      "inputs": [],
      "name": "TOTAL_WEIGHT",
      "outputs": [
        {
          "internalType": "uint256",
          "name": "",
          "type": "uint256"
        }
      ],
      "stateMutability": "view",
      "type": "function",
      "constant": true
    },
    {
      "inputs": [
        {
          "internalType": "address",
          "name": "",
          "type": "address"
        }
      ],
      "name": "assetInfoPositions",
      "outputs": [
        {
          "internalType": "uint256",
          "name": "",
          "type": "uint256"
        }
      ],
      "stateMutability": "view",
      "type": "function",
      "constant": true
    },
    {
      "inputs": [
        {
          "internalType": "uint256",
          "name": "",
          "type": "uint256"
        }
      ],
      "name": "assetInfos",
      "outputs": [
        {
          "internalType": "address",
          "name": "asset",
          "type": "address"
        },
        {
          "internalType": "address",
          "name": "priceGetter",
          "type": "address"
        }
      ],
      "stateMutability": "view",
      "type": "function",
      "constant": true
    },
    {
      "inputs": [
        {
          "internalType": "address",
          "name": "",
          "type": "address"
        }
      ],
      "name": "assetWeightPositions",
      "outputs": [
        {
          "internalType": "uint256",
          "name": "",
          "type": "uint256"
        }
      ],
      "stateMutability": "view",
      "type": "function",
      "constant": true
    },
    {
      "inputs": [
        {
          "internalType": "uint256",
          "name": "",
          "type": "uint256"
        }
      ],
      "name": "assetWeights",
      "outputs": [
        {
          "internalType": "address",
          "name": "asset",
          "type": "address"
        },
        {
          "internalType": "uint256",
          "name": "minWeight",
          "type": "uint256"
        },
        {
          "internalType": "uint256",
          "name": "targetWeight",
          "type": "uint256"
        },
        {
          "internalType": "uint256",
          "name": "maxWeight",
          "type": "uint256"
        }
      ],
      "stateMutability": "view",
      "type": "function",
      "constant": true
    },
    {
      "inputs": [
        {
          "internalType": "bytes32",
          "name": "role",
          "type": "bytes32"
        }
      ],
      "name": "getRoleAdmin",
      "outputs": [
        {
          "internalType": "bytes32",
          "name": "",
          "type": "bytes32"
        }
      ],
      "stateMutability": "view",
      "type": "function",
      "constant": true
    },
    {
      "inputs": [
        {
          "internalType": "bytes32",
          "name": "role",
          "type": "bytes32"
        },
        {
          "internalType": "address",
          "name": "account",
          "type": "address"
        }
      ],
      "name": "grantRole",
      "outputs": [],
      "stateMutability": "nonpayable",
      "type": "function"
    },
    {
      "inputs": [
        {
          "internalType": "bytes32",
          "name": "role",
          "type": "bytes32"
        },
        {
          "internalType": "address",
          "name": "account",
          "type": "address"
        }
      ],
      "name": "hasRole",
      "outputs": [
        {
          "internalType": "bool",
          "name": "",
          "type": "bool"
        }
      ],
      "stateMutability": "view",
      "type": "function",
      "constant": true
    },
    {
      "inputs": [
        {
          "internalType": "bytes32",
          "name": "role",
          "type": "bytes32"
        },
        {
          "internalType": "address",
          "name": "account",
          "type": "address"
        }
      ],
      "name": "renounceRole",
      "outputs": [],
      "stateMutability": "nonpayable",
      "type": "function"
    },
    {
      "inputs": [
        {
          "internalType": "bytes32",
          "name": "role",
          "type": "bytes32"
        },
        {
          "internalType": "address",
          "name": "account",
          "type": "address"
        }
      ],
      "name": "revokeRole",
      "outputs": [],
      "stateMutability": "nonpayable",
      "type": "function"
    },
    {
      "inputs": [
        {
          "internalType": "bytes4",
          "name": "interfaceId",
          "type": "bytes4"
        }
      ],
      "name": "supportsInterface",
      "outputs": [
        {
          "internalType": "bool",
          "name": "",
          "type": "bool"
        }
      ],
      "stateMutability": "view",
      "type": "function",
      "constant": true
    },
    {
      "inputs": [
        {
          "components": [
            {
              "internalType": "address",
              "name": "asset",
              "type": "address"
            },
            {
              "internalType": "address",
              "name": "priceGetter",
              "type": "address"
            }
          ],
          "internalType": "struct InvestmentPortfolio.AssetInfo[]",
          "name": "_assetInfos",
          "type": "tuple[]"
        }
      ],
      "name": "setAssetInfos",
      "outputs": [],
      "stateMutability": "nonpayable",
      "type": "function"
    },
    {
      "inputs": [
        {
          "components": [
            {
              "internalType": "address",
              "name": "asset",
              "type": "address"
            },
            {
              "internalType": "address",
              "name": "priceGetter",
              "type": "address"
            }
          ],
          "internalType": "struct InvestmentPortfolio.AssetInfo",
          "name": "assetInfo",
          "type": "tuple"
        },
        {
          "internalType": "uint256",
          "name": "index",
          "type": "uint256"
        }
      ],
      "name": "addAssetInfoAt",
      "outputs": [],
      "stateMutability": "nonpayable",
      "type": "function"
    },
    {
      "inputs": [
        {
          "components": [
            {
              "internalType": "address",
              "name": "asset",
              "type": "address"
            },
            {
              "internalType": "uint256",
              "name": "minWeight",
              "type": "uint256"
            },
            {
              "internalType": "uint256",
              "name": "targetWeight",
              "type": "uint256"
            },
            {
              "internalType": "uint256",
              "name": "maxWeight",
              "type": "uint256"
            }
          ],
          "internalType": "struct InvestmentPortfolio.AssetWeight[]",
          "name": "_assetWeights",
          "type": "tuple[]"
        }
      ],
      "name": "setWeights",
      "outputs": [],
      "stateMutability": "nonpayable",
      "type": "function"
    },
    {
      "inputs": [
        {
          "internalType": "address",
          "name": "asset",
          "type": "address"
        }
      ],
      "name": "getAssetInfo",
      "outputs": [
        {
          "components": [
            {
              "internalType": "address",
              "name": "asset",
              "type": "address"
            },
            {
              "internalType": "address",
              "name": "priceGetter",
              "type": "address"
            }
          ],
          "internalType": "struct InvestmentPortfolio.AssetInfo",
          "name": "",
          "type": "tuple"
        }
      ],
      "stateMutability": "view",
      "type": "function",
      "constant": true
    },
    {
      "inputs": [],
      "name": "getAllAssetInfos",
      "outputs": [
        {
          "components": [
            {
              "internalType": "address",
              "name": "asset",
              "type": "address"
            },
            {
              "internalType": "address",
              "name": "priceGetter",
              "type": "address"
            }
          ],
          "internalType": "struct InvestmentPortfolio.AssetInfo[]",
          "name": "",
          "type": "tuple[]"
        }
      ],
      "stateMutability": "view",
      "type": "function",
      "constant": true
    },
    {
      "inputs": [
        {
          "internalType": "address",
          "name": "asset",
          "type": "address"
        }
      ],
      "name": "getAssetWeight",
      "outputs": [
        {
          "components": [
            {
              "internalType": "address",
              "name": "asset",
              "type": "address"
            },
            {
              "internalType": "uint256",
              "name": "minWeight",
              "type": "uint256"
            },
            {
              "internalType": "uint256",
              "name": "targetWeight",
              "type": "uint256"
            },
            {
              "internalType": "uint256",
              "name": "maxWeight",
              "type": "uint256"
            }
          ],
          "internalType": "struct InvestmentPortfolio.AssetWeight",
          "name": "",
          "type": "tuple"
        }
      ],
      "stateMutability": "view",
      "type": "function",
      "constant": true
    },
    {
      "inputs": [],
      "name": "getAllAssetWeights",
      "outputs": [
        {
          "components": [
            {
              "internalType": "address",
              "name": "asset",
              "type": "address"
            },
            {
              "internalType": "uint256",
              "name": "minWeight",
              "type": "uint256"
            },
            {
              "internalType": "uint256",
              "name": "targetWeight",
              "type": "uint256"
            },
            {
              "internalType": "uint256",
              "name": "maxWeight",
              "type": "uint256"
            }
          ],
          "internalType": "struct InvestmentPortfolio.AssetWeight[]",
          "name": "",
          "type": "tuple[]"
        }
      ],
      "stateMutability": "view",
      "type": "function",
      "constant": true
    }
  ],
  "bytecode": "0x60806040523480156200001157600080fd5b50620000276000801b336200002d60201b60201c565b620001a6565b6200003f82826200004360201b60201c565b5050565b6200005582826200013460201b60201c565b6200013057600160008084815260200190815260200160002060000160008373ffffffffffffffffffffffffffffffffffffffff1673ffffffffffffffffffffffffffffffffffffffff16815260200190815260200160002060006101000a81548160ff021916908315150217905550620000d56200019e60201b60201c565b73ffffffffffffffffffffffffffffffffffffffff168173ffffffffffffffffffffffffffffffffffffffff16837f2f8788117e7eff1d82e926ec794901d17c78024a50270940304540a733656f0d60405160405180910390a45b5050565b600080600084815260200190815260200160002060000160008373ffffffffffffffffffffffffffffffffffffffff1673ffffffffffffffffffffffffffffffffffffffff16815260200190815260200160002060009054906101000a900460ff16905092915050565b600033905090565b612aac80620001b66000396000f3fe608060405234801561001057600080fd5b50600436106101215760003560e01c8063504056c7116100ad578063afad2e1611610071578063afad2e161461032f578063cb82e3df1461035f578063d14ef46d1461038f578063d547741f146103c0578063ed2a2f9d146103dc57610121565b8063504056c71461028d57806391d14854146102a95780639d814e9c146102d95780639ec2cdbc146102f5578063a217fddf1461031157610121565b80632f2ff15d116100f45780632f2ff15d146101d457806336568abe146101f05780633a7e9db01461020c5780633ff94f041461023c57806344a778d61461025a57610121565b806301ffc9a7146101265780631aeb0df814610156578063237dd2ec14610174578063248a9ca3146101a4575b600080fd5b610140600480360381019061013b9190611b73565b6103fa565b60405161014d9190612119565b60405180910390f35b61015e610474565b60405161016b91906120d5565b60405180910390f35b61018e60048036038101906101899190611a3f565b61057f565b60405161019b9190612287565b60405180910390f35b6101be60048036038101906101b99190611b06565b610597565b6040516101cb9190612134565b60405180910390f35b6101ee60048036038101906101e99190611b33565b6105b6565b005b61020a60048036038101906102059190611b33565b6105df565b005b61022660048036038101906102219190611a3f565b610662565b604051610233919061226c565b60405180910390f35b610244610751565b60405161025191906120f7565b60405180910390f35b610274600480360381019061026f9190611c0d565b610824565b6040516102849493929190612090565b60405180910390f35b6102a760048036038101906102a29190611ab9565b610884565b005b6102c360048036038101906102be9190611b33565b610c2f565b6040516102d09190612119565b60405180910390f35b6102f360048036038101906102ee9190611a6c565b610c99565b005b61030f600480360381019061030a9190611ba0565b610dfb565b005b610319610e55565b6040516103269190612134565b60405180910390f35b61034960048036038101906103449190611a3f565b610e5c565b6040516103569190612251565b60405180910390f35b61037960048036038101906103749190611a3f565b610f83565b6040516103869190612287565b60405180910390f35b6103a960048036038101906103a49190611c0d565b610f9b565b6040516103b7929190612067565b60405180910390f35b6103da60048036038101906103d59190611b33565b61100f565b005b6103e4611038565b6040516103f19190612287565b60405180910390f35b60007f7965db0b000000000000000000000000000000000000000000000000000000007bffffffffffffffffffffffffffffffffffffffffffffffffffffffff1916827bffffffffffffffffffffffffffffffffffffffffffffffffffffffff1916148061046d575061046c8261103f565b5b9050919050565b60606002805480602002602001604051908101604052809291908181526020016000905b8282101561057657838290600052602060002090600202016040518060400160405290816000820160009054906101000a900473ffffffffffffffffffffffffffffffffffffffff1673ffffffffffffffffffffffffffffffffffffffff1673ffffffffffffffffffffffffffffffffffffffff1681526020016001820160009054906101000a900473ffffffffffffffffffffffffffffffffffffffff1673ffffffffffffffffffffffffffffffffffffffff1673ffffffffffffffffffffffffffffffffffffffff168152505081526020019060010190610498565b50505050905090565b60016020528060005260406000206000915090505481565b6000806000838152602001908152602001600020600101549050919050565b6105bf82610597565b6105d0816105cb6110a9565b6110b1565b6105da838361114e565b505050565b6105e76110a9565b73ffffffffffffffffffffffffffffffffffffffff168173ffffffffffffffffffffffffffffffffffffffff1614610654576040517f08c379a000000000000000000000000000000000000000000000000000000000815260040161064b90612231565b60405180910390fd5b61065e828261122e565b5050565b61066a611824565b6004600360008473ffffffffffffffffffffffffffffffffffffffff1673ffffffffffffffffffffffffffffffffffffffff16815260200190815260200160002054815481106106bd576106bc6126eb565b5b90600052602060002090600402016040518060800160405290816000820160009054906101000a900473ffffffffffffffffffffffffffffffffffffffff1673ffffffffffffffffffffffffffffffffffffffff1673ffffffffffffffffffffffffffffffffffffffff16815260200160018201548152602001600282015481526020016003820154815250509050919050565b60606004805480602002602001604051908101604052809291908181526020016000905b8282101561081b57838290600052602060002090600402016040518060800160405290816000820160009054906101000a900473ffffffffffffffffffffffffffffffffffffffff1673ffffffffffffffffffffffffffffffffffffffff1673ffffffffffffffffffffffffffffffffffffffff168152602001600182015481526020016002820154815260200160038201548152505081526020019060010190610775565b50505050905090565b6004818154811061083457600080fd5b90600052602060002090600402016000915090508060000160009054906101000a900473ffffffffffffffffffffffffffffffffffffffff16908060010154908060020154908060030154905084565b6108916000801b33610c2f565b6108d0576040517f08c379a00000000000000000000000000000000000000000000000000000000081526004016108c7906121f1565b60405180910390fd5b6000805b838390508160ff161015610a4257600084848360ff168181106108fa576108f96126eb565b5b9050608002018036038101906109109190611be0565b9050600073ffffffffffffffffffffffffffffffffffffffff16816000015173ffffffffffffffffffffffffffffffffffffffff161415610986576040517f08c379a000000000000000000000000000000000000000000000000000000000815260040161097d90612191565b60405180910390fd5b8060400151816020015111156109d1576040517f08c379a00000000000000000000000000000000000000000000000000000000081526004016109c8906121d1565b60405180910390fd5b806060015181604001511115610a1c576040517f08c379a0000000000000000000000000000000000000000000000000000000008152600401610a1390612211565b60405180910390fd5b806040015183610a2c91906123ea565b9250508080610a3a90612663565b9150506108d4565b50620186a08114610a88576040517f08c379a0000000000000000000000000000000000000000000000000000000008152600401610a7f906121b1565b60405180910390fd5b60005b838390508160ff161015610b7357610ad184848360ff16818110610ab257610ab16126eb565b5b905060800201803603810190610ac89190611be0565b8260ff1661130f565b8060ff166003600060048460ff1681548110610af057610aef6126eb565b5b906000526020600020906004020160000160009054906101000a900473ffffffffffffffffffffffffffffffffffffffff1673ffffffffffffffffffffffffffffffffffffffff1673ffffffffffffffffffffffffffffffffffffffff168152602001908152602001600020819055508080610b6b90612663565b915050610a8b565b50828290506004805490501115610c2a57600083839050600480549050610b9a919061249a565b905060005b818160ff161015610c27576004805480610bbc57610bbb6126bc565b5b6001900381819060005260206000209060040201600080820160006101000a81549073ffffffffffffffffffffffffffffffffffffffff0219169055600182016000905560028201600090556003820160009055505090558080610c1f90612663565b915050610b9f565b50505b505050565b600080600084815260200190815260200160002060000160008373ffffffffffffffffffffffffffffffffffffffff1673ffffffffffffffffffffffffffffffffffffffff16815260200190815260200160002060009054906101000a900460ff16905092915050565b610ca66000801b33610c2f565b610ce5576040517f08c379a0000000000000000000000000000000000000000000000000000000008152600401610cdc906121f1565b60405180910390fd5b60005b828290508160ff161015610d3157610d1e83838360ff16818110610d0f57610d0e6126eb565b5b9050604002018260ff16611475565b8080610d2990612663565b915050610ce8565b50818190506002805490501115610df757600082829050600280549050610d58919061249a565b905060005b818160ff161015610df4576002805480610d7a57610d796126bc565b5b6001900381819060005260206000209060020201600080820160006101000a81549073ffffffffffffffffffffffffffffffffffffffff02191690556001820160006101000a81549073ffffffffffffffffffffffffffffffffffffffff0219169055505090558080610dec90612663565b915050610d5d565b50505b5050565b610e086000801b33610c2f565b610e47576040517f08c379a0000000000000000000000000000000000000000000000000000000008152600401610e3e906121f1565b60405180910390fd5b610e518282611475565b5050565b6000801b81565b610e64611862565b6002600160008473ffffffffffffffffffffffffffffffffffffffff1673ffffffffffffffffffffffffffffffffffffffff1681526020019081526020016000205481548110610eb757610eb66126eb565b5b90600052602060002090600202016040518060400160405290816000820160009054906101000a900473ffffffffffffffffffffffffffffffffffffffff1673ffffffffffffffffffffffffffffffffffffffff1673ffffffffffffffffffffffffffffffffffffffff1681526020016001820160009054906101000a900473ffffffffffffffffffffffffffffffffffffffff1673ffffffffffffffffffffffffffffffffffffffff1673ffffffffffffffffffffffffffffffffffffffff16815250509050919050565b60036020528060005260406000206000915090505481565b60028181548110610fab57600080fd5b90600052602060002090600202016000915090508060000160009054906101000a900473ffffffffffffffffffffffffffffffffffffffff16908060010160009054906101000a900473ffffffffffffffffffffffffffffffffffffffff16905082565b61101882610597565b611029816110246110a9565b6110b1565b611033838361122e565b505050565b620186a081565b60007f01ffc9a7000000000000000000000000000000000000000000000000000000007bffffffffffffffffffffffffffffffffffffffffffffffffffffffff1916827bffffffffffffffffffffffffffffffffffffffffffffffffffffffff1916149050919050565b600033905090565b6110bb8282610c2f565b61114a576110e08173ffffffffffffffffffffffffffffffffffffffff1660146115e8565b6110ee8360001c60206115e8565b6040516020016110ff92919061202d565b6040516020818303038152906040526040517f08c379a0000000000000000000000000000000000000000000000000000000008152600401611141919061214f565b60405180910390fd5b5050565b6111588282610c2f565b61122a57600160008084815260200190815260200160002060000160008373ffffffffffffffffffffffffffffffffffffffff1673ffffffffffffffffffffffffffffffffffffffff16815260200190815260200160002060006101000a81548160ff0219169083151502179055506111cf6110a9565b73ffffffffffffffffffffffffffffffffffffffff168173ffffffffffffffffffffffffffffffffffffffff16837f2f8788117e7eff1d82e926ec794901d17c78024a50270940304540a733656f0d60405160405180910390a45b5050565b6112388282610c2f565b1561130b57600080600084815260200190815260200160002060000160008373ffffffffffffffffffffffffffffffffffffffff1673ffffffffffffffffffffffffffffffffffffffff16815260200190815260200160002060006101000a81548160ff0219169083151502179055506112b06110a9565b73ffffffffffffffffffffffffffffffffffffffff168173ffffffffffffffffffffffffffffffffffffffff16837ff6391f5c32d9c69d2a47ea670b442974b53935d1edc7fd64eb21e047a839171b60405160405180910390a45b5050565b600060048054905090506000811480611333575081600182611331919061249a565b105b1561139657600060018284611348919061249a565b61135291906123ea565b905060005b818160ff16101561139357600460018160018154018082558091505003906000526020600020905050808061138b90612663565b915050611357565b50505b82600483815481106113ab576113aa6126eb565b5b906000526020600020906004020160008201518160000160006101000a81548173ffffffffffffffffffffffffffffffffffffffff021916908373ffffffffffffffffffffffffffffffffffffffff1602179055506020820151816001015560408201518160020155606082015181600301559050507f58a1918bf77ddc82eb3e1783404ebecd42f486aa3279cc81bfa426cd8fadae248284600001518560200151866040015187606001516040516114689594939291906122d9565b60405180910390a1505050565b600060028054905090506000811480611499575081600182611497919061249a565b105b156114fc576000600182846114ae919061249a565b6114b891906123ea565b905060005b818160ff1610156114f95760026001816001815401808255809150500390600052602060002090505080806114f190612663565b9150506114bd565b50505b8260028381548110611511576115106126eb565b5b9060005260206000209060020201818161152b9190612a0c565b90505081600160008560000160208101906115469190611a3f565b73ffffffffffffffffffffffffffffffffffffffff1673ffffffffffffffffffffffffffffffffffffffff168152602001908152602001600020819055507f25d573ef371a230567e810257ebf422f1066d89accf3e84e2cf31bab59c6591b828460000160208101906115b99190611a3f565b8560200160208101906115cc9190611a3f565b6040516115db939291906122a2565b60405180910390a1505050565b6060600060028360026115fb9190612440565b61160591906123ea565b67ffffffffffffffff81111561161e5761161d61271a565b5b6040519080825280601f01601f1916602001820160405280156116505781602001600182028036833780820191505090505b5090507f300000000000000000000000000000000000000000000000000000000000000081600081518110611688576116876126eb565b5b60200101907effffffffffffffffffffffffffffffffffffffffffffffffffffffffffffff1916908160001a9053507f7800000000000000000000000000000000000000000000000000000000000000816001815181106116ec576116eb6126eb565b5b60200101907effffffffffffffffffffffffffffffffffffffffffffffffffffffffffffff1916908160001a9053506000600184600261172c9190612440565b61173691906123ea565b90505b60018111156117d6577f3031323334353637383961626364656600000000000000000000000000000000600f861660108110611778576117776126eb565b5b1a60f81b82828151811061178f5761178e6126eb565b5b60200101907effffffffffffffffffffffffffffffffffffffffffffffffffffffffffffff1916908160001a905350600485901c9450806117cf90612608565b9050611739565b506000841461181a576040517f08c379a000000000000000000000000000000000000000000000000000000000815260040161181190612171565b60405180910390fd5b8091505092915050565b6040518060800160405280600073ffffffffffffffffffffffffffffffffffffffff1681526020016000815260200160008152602001600081525090565b6040518060400160405280600073ffffffffffffffffffffffffffffffffffffffff168152602001600073ffffffffffffffffffffffffffffffffffffffff1681525090565b6000813590506118b781612a1a565b92915050565b60008083601f8401126118d3576118d261276e565b5b8235905067ffffffffffffffff8111156118f0576118ef612769565b5b60208301915083604082028301111561190c5761190b61277d565b5b9250929050565b60008083601f8401126119295761192861276e565b5b8235905067ffffffffffffffff81111561194657611945612769565b5b6020830191508360808202830111156119625761196161277d565b5b9250929050565b60008135905061197881612a31565b92915050565b60008135905061198d81612a48565b92915050565b6000604082840312156119a9576119a8612773565b5b81905092915050565b6000608082840312156119c8576119c7612778565b5b6119d2608061232c565b905060006119e2848285016118a8565b60008301525060206119f684828501611a2a565b6020830152506040611a0a84828501611a2a565b6040830152506060611a1e84828501611a2a565b60608301525092915050565b600081359050611a3981612a5f565b92915050565b600060208284031215611a5557611a54612787565b5b6000611a63848285016118a8565b91505092915050565b60008060208385031215611a8357611a82612787565b5b600083013567ffffffffffffffff811115611aa157611aa0612782565b5b611aad858286016118bd565b92509250509250929050565b60008060208385031215611ad057611acf612787565b5b600083013567ffffffffffffffff811115611aee57611aed612782565b5b611afa85828601611913565b92509250509250929050565b600060208284031215611b1c57611b1b612787565b5b6000611b2a84828501611969565b91505092915050565b60008060408385031215611b4a57611b49612787565b5b6000611b5885828601611969565b9250506020611b69858286016118a8565b9150509250929050565b600060208284031215611b8957611b88612787565b5b6000611b978482850161197e565b91505092915050565b60008060608385031215611bb757611bb6612787565b5b6000611bc585828601611993565b9250506040611bd685828601611a2a565b9150509250929050565b600060808284031215611bf657611bf5612787565b5b6000611c04848285016119b2565b91505092915050565b600060208284031215611c2357611c22612787565b5b6000611c3184828501611a2a565b91505092915050565b6000611c468383611f07565b60408301905092915050565b6000611c5e8383611f65565b60808301905092915050565b611c73816124ce565b82525050565b611c82816124ce565b82525050565b6000611c9382612371565b611c9d81856123ac565b9350611ca883612351565b8060005b83811015611cd9578151611cc08882611c3a565b9750611ccb83612392565b925050600181019050611cac565b5085935050505092915050565b6000611cf18261237c565b611cfb81856123bd565b9350611d0683612361565b8060005b83811015611d37578151611d1e8882611c52565b9750611d298361239f565b925050600181019050611d0a565b5085935050505092915050565b611d4d816124e0565b82525050565b611d5c816124ec565b82525050565b6000611d6d82612387565b611d7781856123ce565b9350611d8781856020860161258f565b611d908161278c565b840191505092915050565b6000611da682612387565b611db081856123df565b9350611dc081856020860161258f565b80840191505092915050565b6000611dd96020836123ce565b9150611de4826127aa565b602082019050919050565b6000611dfc6014836123ce565b9150611e07826127d3565b602082019050919050565b6000611e1f6029836123ce565b9150611e2a826127fc565b604082019050919050565b6000611e42602c836123ce565b9150611e4d8261284b565b604082019050919050565b6000611e656014836123ce565b9150611e708261289a565b602082019050919050565b6000611e886017836123df565b9150611e93826128c3565b601782019050919050565b6000611eab602c836123ce565b9150611eb6826128ec565b604082019050919050565b6000611ece6011836123df565b9150611ed98261293b565b601182019050919050565b6000611ef1602f836123ce565b9150611efc82612964565b604082019050919050565b604082016000820151611f1d6000850182611c6a565b506020820151611f306020850182611c6a565b50505050565b604082016000820151611f4c6000850182611c6a565b506020820151611f5f6020850182611c6a565b50505050565b608082016000820151611f7b6000850182611c6a565b506020820151611f8e602085018261200f565b506040820151611fa1604085018261200f565b506060820151611fb4606085018261200f565b50505050565b608082016000820151611fd06000850182611c6a565b506020820151611fe3602085018261200f565b506040820151611ff6604085018261200f565b506060820151612009606085018261200f565b50505050565b61201881612542565b82525050565b61202781612542565b82525050565b600061203882611e7b565b91506120448285611d9b565b915061204f82611ec1565b915061205b8284611d9b565b91508190509392505050565b600060408201905061207c6000830185611c79565b6120896020830184611c79565b9392505050565b60006080820190506120a56000830187611c79565b6120b2602083018661201e565b6120bf604083018561201e565b6120cc606083018461201e565b95945050505050565b600060208201905081810360008301526120ef8184611c88565b905092915050565b600060208201905081810360008301526121118184611ce6565b905092915050565b600060208201905061212e6000830184611d44565b92915050565b60006020820190506121496000830184611d53565b92915050565b600060208201905081810360008301526121698184611d62565b905092915050565b6000602082019050818103600083015261218a81611dcc565b9050919050565b600060208201905081810360008301526121aa81611def565b9050919050565b600060208201905081810360008301526121ca81611e12565b9050919050565b600060208201905081810360008301526121ea81611e35565b9050919050565b6000602082019050818103600083015261220a81611e58565b9050919050565b6000602082019050818103600083015261222a81611e9e565b9050919050565b6000602082019050818103600083015261224a81611ee4565b9050919050565b60006040820190506122666000830184611f36565b92915050565b60006080820190506122816000830184611fba565b92915050565b600060208201905061229c600083018461201e565b92915050565b60006060820190506122b7600083018661201e565b6122c46020830185611c79565b6122d16040830184611c79565b949350505050565b600060a0820190506122ee600083018861201e565b6122fb6020830187611c79565b612308604083018661201e565b612315606083018561201e565b612322608083018461201e565b9695505050505050565b6000612336612347565b90506123428282612632565b919050565b6000604051905090565b6000819050602082019050919050565b6000819050602082019050919050565b600081519050919050565b600081519050919050565b600081519050919050565b6000602082019050919050565b6000602082019050919050565b600082825260208201905092915050565b600082825260208201905092915050565b600082825260208201905092915050565b600081905092915050565b60006123f582612542565b915061240083612542565b9250827fffffffffffffffffffffffffffffffffffffffffffffffffffffffffffffffff038211156124355761243461268d565b5b828201905092915050565b600061244b82612542565b915061245683612542565b9250817fffffffffffffffffffffffffffffffffffffffffffffffffffffffffffffffff048311821515161561248f5761248e61268d565b5b828202905092915050565b60006124a582612542565b91506124b083612542565b9250828210156124c3576124c261268d565b5b828203905092915050565b60006124d982612522565b9050919050565b60008115159050919050565b6000819050919050565b60007fffffffff0000000000000000000000000000000000000000000000000000000082169050919050565b600073ffffffffffffffffffffffffffffffffffffffff82169050919050565b6000819050919050565b600060ff82169050919050565b60006125648261256b565b9050919050565b60006125768261257d565b9050919050565b600061258882612522565b9050919050565b60005b838110156125ad578082015181840152602081019050612592565b838111156125bc576000848401525b50505050565b6000810160008301806125d481612753565b90506125e081846129e9565b5050506001810160208301806125f581612753565b905061260181846129e9565b5050505050565b600061261382612542565b915060008214156126275761262661268d565b5b600182039050919050565b61263b8261278c565b810181811067ffffffffffffffff8211171561265a5761265961271a565b5b80604052505050565b600061266e8261254c565b915060ff8214156126825761268161268d565b5b600182019050919050565b7f4e487b7100000000000000000000000000000000000000000000000000000000600052601160045260246000fd5b7f4e487b7100000000000000000000000000000000000000000000000000000000600052603160045260246000fd5b7f4e487b7100000000000000000000000000000000000000000000000000000000600052603260045260246000fd5b7f4e487b7100000000000000000000000000000000000000000000000000000000600052604160045260246000fd5b6000819050919050565b6000813561276081612a1a565b80915050919050565b600080fd5b600080fd5b600080fd5b600080fd5b600080fd5b600080fd5b600080fd5b6000601f19601f8301169050919050565b60008160001b9050919050565b7f537472696e67733a20686578206c656e67746820696e73756666696369656e74600082015250565b7f77656967687420776974686f7574206173736574000000000000000000000000600082015250565b7f546f74616c207461726765742073686f756c6420657175616c20746f20544f5460008201527f414c5f5745494748540000000000000000000000000000000000000000000000602082015250565b7f6d696e5765696768742073686f756c646e277420686967686572207468616e2060008201527f7461726765745765696768740000000000000000000000000000000000000000602082015250565b7f5265737472696374656420746f2061646d696e73000000000000000000000000600082015250565b7f416363657373436f6e74726f6c3a206163636f756e7420000000000000000000600082015250565b7f7461726765745765696768742073686f756c646e27742068696768657220746860008201527f616e206d61785765696768740000000000000000000000000000000000000000602082015250565b7f206973206d697373696e6720726f6c6520000000000000000000000000000000600082015250565b7f416363657373436f6e74726f6c3a2063616e206f6e6c792072656e6f756e636560008201527f20726f6c657320666f722073656c660000000000000000000000000000000000602082015250565b600073ffffffffffffffffffffffffffffffffffffffff6129d38461279d565b9350801983169250808416831791505092915050565b6129f282612559565b612a056129fe82612749565b83546129b3565b8255505050565b612a1682826125c2565b5050565b612a23816124ce565b8114612a2e57600080fd5b50565b612a3a816124ec565b8114612a4557600080fd5b50565b612a51816124f6565b8114612a5c57600080fd5b50565b612a6881612542565b8114612a7357600080fd5b5056fea26469706673582212208da49fd4e0c2c3ad4c7c190469f3c9be128cc09a93f939529c85bf707c3d94f964736f6c63430008060033",
  "immutableReferences": {},
  "source": "// SPDX-License-Identifier: GPL-3.0\r\npragma solidity >=0.8.0 <0.9.0;\r\n\r\nimport \"@openzeppelin/contracts/token/ERC20/IERC20.sol\";\r\nimport \"@openzeppelin/contracts/access/AccessControl.sol\";\r\n\r\ncontract InvestmentPortfolio is AccessControl {\r\n    uint256 public constant TOTAL_WEIGHT = 100000; // 100000 ~ 100%\r\n\r\n    mapping(address => uint256) public assetInfoPositions;\r\n    AssetInfo[] public assetInfos;\r\n    mapping(address => uint256) public assetWeightPositions;\r\n    AssetWeight[] public assetWeights;\r\n\r\n    event UpdatedAssetWeight(\r\n        uint256 index,\r\n        address asset,\r\n        uint256 minWeight,\r\n        uint256 targetWeight,\r\n        uint256 maxWeight\r\n    );\r\n    event UpdatedAssetInfo(uint256 index, address asset, address priceGetter);\r\n\r\n    struct AssetWeight {\r\n        address asset;\r\n        uint256 minWeight;\r\n        uint256 targetWeight;\r\n        uint256 maxWeight;\r\n    }\r\n\r\n    struct AssetInfo {\r\n        address asset;\r\n        address priceGetter;\r\n    }\r\n\r\n    modifier onlyAdmin() {\r\n        require(hasRole(DEFAULT_ADMIN_ROLE, msg.sender), \"Restricted to admins\");\r\n        _;\r\n    }\r\n\r\n    constructor() {\r\n        _setupRole(DEFAULT_ADMIN_ROLE, msg.sender);\r\n    }\r\n\r\n    function setAssetInfos(AssetInfo[] calldata _assetInfos) external onlyAdmin {\r\n        for (uint8 i = 0; i < _assetInfos.length; i++) {\r\n            _addAssetInfoAt(_assetInfos[i], i);\r\n        }\r\n        // truncate array if needed\r\n        if (assetInfos.length > _assetInfos.length) {\r\n            uint256 removeCount = assetInfos.length - _assetInfos.length;\r\n            for (uint8 i = 0; i < removeCount; i++) {\r\n                //TODO: do we need remove from mapping?\r\n                assetInfos.pop();\r\n            }\r\n        }\r\n    }\r\n\r\n    function addAssetInfoAt(AssetInfo calldata assetInfo, uint256 index) external onlyAdmin {\r\n        _addAssetInfoAt(assetInfo, index);\r\n    }\r\n\r\n    function _addAssetInfoAt(AssetInfo calldata assetInfo, uint256 index) internal {\r\n        uint256 currentlength = assetInfos.length;\r\n        // expand array id needed\r\n        if (currentlength == 0 || currentlength - 1 < index) {\r\n            uint256 additionalCount = index - currentlength + 1;\r\n            for (uint8 i = 0; i < additionalCount; i++) {\r\n                assetInfos.push();\r\n            }\r\n        }\r\n        assetInfos[index] = assetInfo;\r\n        assetInfoPositions[assetInfo.asset] = index;\r\n        emit UpdatedAssetInfo(index, assetInfo.asset, assetInfo.priceGetter);\r\n    }\r\n\r\n    function setWeights(AssetWeight[] calldata _assetWeights) external onlyAdmin {\r\n        uint256 totalTarget = 0;\r\n        for (uint8 i = 0; i < _assetWeights.length; i++) {\r\n            AssetWeight memory assetWeight = _assetWeights[i];\r\n            require(assetWeight.asset != address(0), \"weight without asset\");\r\n            require(\r\n                assetWeight.minWeight <= assetWeight.targetWeight,\r\n                \"minWeight shouldn't higher than targetWeight\"\r\n            );\r\n            require(\r\n                assetWeight.targetWeight <= assetWeight.maxWeight,\r\n                \"targetWeight shouldn't higher than maxWeight\"\r\n            );\r\n            totalTarget += assetWeight.targetWeight;\r\n        }\r\n        require(totalTarget == TOTAL_WEIGHT, \"Total target should equal to TOTAL_WEIGHT\");\r\n\r\n        for (uint8 i = 0; i < _assetWeights.length; i++) {\r\n            _addWeightAt(_assetWeights[i], i);\r\n            assetWeightPositions[assetWeights[i].asset] = i;\r\n        }\r\n\r\n        // truncate if need\r\n        if (assetWeights.length > _assetWeights.length) {\r\n            uint256 removeCount = assetWeights.length - _assetWeights.length;\r\n            for (uint8 i = 0; i < removeCount; i++) {\r\n                assetWeights.pop();\r\n            }\r\n        }\r\n    }\r\n\r\n    function _addWeightAt(AssetWeight memory assetWeight, uint256 index) internal {\r\n        uint256 currentlength = assetWeights.length;\r\n        // expand if need\r\n        if (currentlength == 0 || currentlength - 1 < index) {\r\n            uint256 additionalCount = index - currentlength + 1;\r\n            for (uint8 i = 0; i < additionalCount; i++) {\r\n                assetWeights.push();\r\n            }\r\n        }\r\n        assetWeights[index] = assetWeight;\r\n        emit UpdatedAssetWeight(\r\n            index,\r\n            assetWeight.asset,\r\n            assetWeight.minWeight,\r\n            assetWeight.targetWeight,\r\n            assetWeight.maxWeight\r\n        );\r\n    }\r\n\r\n    function getAssetInfo(address asset) external view returns (AssetInfo memory) {\r\n        return assetInfos[assetInfoPositions[asset]];\r\n    }\r\n\r\n    function getAllAssetInfos() external view returns (AssetInfo[] memory) {\r\n        return assetInfos;\r\n    }\r\n\r\n    function getAssetWeight(address asset) external view returns (AssetWeight memory) {\r\n        return assetWeights[assetWeightPositions[asset]];\r\n    }\r\n\r\n    function getAllAssetWeights() external view returns (AssetWeight[] memory) {\r\n        return assetWeights;\r\n    }\r\n}\r\n",
  "sourcePath": "C:\\work\\overnight\\ovngt-mvp\\contracts\\registries\\InvestmentPortfolio.sol",
  "compiler": {
    "name": "solc",
    "version": "0.8.6+commit.11564f7e.Emscripten.clang"
  },
  "schemaVersion": "3.4.2",
  "updatedAt": "2021-10-20T11:29:38.900Z",
  "networkType": "ethereum",
  "devdoc": {
    "kind": "dev",
    "methods": {
      "getRoleAdmin(bytes32)": {
        "details": "Returns the admin role that controls `role`. See {grantRole} and {revokeRole}. To change a role's admin, use {_setRoleAdmin}."
      },
      "grantRole(bytes32,address)": {
        "details": "Grants `role` to `account`. If `account` had not been already granted `role`, emits a {RoleGranted} event. Requirements: - the caller must have ``role``'s admin role."
      },
      "hasRole(bytes32,address)": {
        "details": "Returns `true` if `account` has been granted `role`."
      },
      "renounceRole(bytes32,address)": {
        "details": "Revokes `role` from the calling account. Roles are often managed via {grantRole} and {revokeRole}: this function's purpose is to provide a mechanism for accounts to lose their privileges if they are compromised (such as when a trusted device is misplaced). If the calling account had been granted `role`, emits a {RoleRevoked} event. Requirements: - the caller must be `account`."
      },
      "revokeRole(bytes32,address)": {
        "details": "Revokes `role` from `account`. If `account` had been granted `role`, emits a {RoleRevoked} event. Requirements: - the caller must have ``role``'s admin role."
      },
      "supportsInterface(bytes4)": {
        "details": "See {IERC165-supportsInterface}."
      }
    },
    "version": 1
  },
  "userdoc": {
    "kind": "user",
    "methods": {},
    "version": 1
  }
}