{
  "contractName": "PortfolioManager",
  "abi": [
    {
      "inputs": [],
      "stateMutability": "nonpayable",
      "type": "constructor"
    },
    {
      "anonymous": false,
      "inputs": [
        {
          "indexed": false,
          "internalType": "string",
          "name": "str",
          "type": "string"
        }
      ],
      "name": "ConsoleLog",
      "type": "event"
    },
    {
      "anonymous": false,
      "inputs": [
        {
          "indexed": true,
          "internalType": "bytes32",
          "name": "role",
          "type": "bytes32"
        },
        {
          "indexed": true,
          "internalType": "bytes32",
          "name": "previousAdminRole",
          "type": "bytes32"
        },
        {
          "indexed": true,
          "internalType": "bytes32",
          "name": "newAdminRole",
          "type": "bytes32"
        }
      ],
      "name": "RoleAdminChanged",
      "type": "event"
    },
    {
      "anonymous": false,
      "inputs": [
        {
          "indexed": true,
          "internalType": "bytes32",
          "name": "role",
          "type": "bytes32"
        },
        {
          "indexed": true,
          "internalType": "address",
          "name": "account",
          "type": "address"
        },
        {
          "indexed": true,
          "internalType": "address",
          "name": "sender",
          "type": "address"
        }
      ],
      "name": "RoleGranted",
      "type": "event"
    },
    {
      "anonymous": false,
      "inputs": [
        {
          "indexed": true,
          "internalType": "bytes32",
          "name": "role",
          "type": "bytes32"
        },
        {
          "indexed": true,
          "internalType": "address",
          "name": "account",
          "type": "address"
        },
        {
          "indexed": true,
          "internalType": "address",
          "name": "sender",
          "type": "address"
        }
      ],
      "name": "RoleRevoked",
      "type": "event"
    },
    {
      "inputs": [],
      "name": "DEFAULT_ADMIN_ROLE",
      "outputs": [
        {
          "internalType": "bytes32",
          "name": "",
          "type": "bytes32"
        }
      ],
      "stateMutability": "view",
      "type": "function",
      "constant": true
    },
    {
      "inputs": [],
      "name": "EXCHANGER",
      "outputs": [
        {
          "internalType": "bytes32",
          "name": "",
          "type": "bytes32"
        }
      ],
      "stateMutability": "view",
      "type": "function",
      "constant": true
    },
    {
      "inputs": [],
      "name": "balancer",
      "outputs": [
        {
          "internalType": "contract Balancer",
          "name": "",
          "type": "address"
        }
      ],
      "stateMutability": "view",
      "type": "function",
      "constant": true
    },
    {
      "inputs": [],
      "name": "exchanger",
      "outputs": [
        {
          "internalType": "address",
          "name": "",
          "type": "address"
        }
      ],
      "stateMutability": "view",
      "type": "function",
      "constant": true
    },
    {
      "inputs": [
        {
          "internalType": "bytes32",
          "name": "role",
          "type": "bytes32"
        }
      ],
      "name": "getRoleAdmin",
      "outputs": [
        {
          "internalType": "bytes32",
          "name": "",
          "type": "bytes32"
        }
      ],
      "stateMutability": "view",
      "type": "function",
      "constant": true
    },
    {
      "inputs": [
        {
          "internalType": "bytes32",
          "name": "role",
          "type": "bytes32"
        },
        {
          "internalType": "address",
          "name": "account",
          "type": "address"
        }
      ],
      "name": "grantRole",
      "outputs": [],
      "stateMutability": "nonpayable",
      "type": "function"
    },
    {
      "inputs": [
        {
          "internalType": "bytes32",
          "name": "role",
          "type": "bytes32"
        },
        {
          "internalType": "address",
          "name": "account",
          "type": "address"
        }
      ],
      "name": "hasRole",
      "outputs": [
        {
          "internalType": "bool",
          "name": "",
          "type": "bool"
        }
      ],
      "stateMutability": "view",
      "type": "function",
      "constant": true
    },
    {
      "inputs": [
        {
          "internalType": "bytes32",
          "name": "role",
          "type": "bytes32"
        },
        {
          "internalType": "address",
          "name": "account",
          "type": "address"
        }
      ],
      "name": "renounceRole",
      "outputs": [],
      "stateMutability": "nonpayable",
      "type": "function"
    },
    {
      "inputs": [
        {
          "internalType": "bytes32",
          "name": "role",
          "type": "bytes32"
        },
        {
          "internalType": "address",
          "name": "account",
          "type": "address"
        }
      ],
      "name": "revokeRole",
      "outputs": [],
      "stateMutability": "nonpayable",
      "type": "function"
    },
    {
      "inputs": [],
      "name": "rewardGauge",
      "outputs": [
        {
          "internalType": "contract IRewardOnlyGauge",
          "name": "",
          "type": "address"
        }
      ],
      "stateMutability": "view",
      "type": "function",
      "constant": true
    },
    {
      "inputs": [
        {
          "internalType": "bytes4",
          "name": "interfaceId",
          "type": "bytes4"
        }
      ],
      "name": "supportsInterface",
      "outputs": [
        {
          "internalType": "bool",
          "name": "",
          "type": "bool"
        }
      ],
      "stateMutability": "view",
      "type": "function",
      "constant": true
    },
    {
      "inputs": [],
      "name": "vault",
      "outputs": [
        {
          "internalType": "contract Vault",
          "name": "",
          "type": "address"
        }
      ],
      "stateMutability": "view",
      "type": "function",
      "constant": true
    },
    {
      "inputs": [
        {
          "internalType": "address",
          "name": "_exchanger",
          "type": "address"
        }
      ],
      "name": "setExchanger",
      "outputs": [],
      "stateMutability": "nonpayable",
      "type": "function"
    },
    {
      "inputs": [
        {
          "internalType": "address",
          "name": "_vault",
          "type": "address"
        }
      ],
      "name": "setVault",
      "outputs": [],
      "stateMutability": "nonpayable",
      "type": "function"
    },
    {
      "inputs": [
        {
          "internalType": "address",
          "name": "_balancer",
          "type": "address"
        }
      ],
      "name": "setBalancer",
      "outputs": [],
      "stateMutability": "nonpayable",
      "type": "function"
    },
    {
      "inputs": [
        {
          "internalType": "address",
          "name": "_rewardGauge",
          "type": "address"
        }
      ],
      "name": "setRewardGauge",
      "outputs": [],
      "stateMutability": "nonpayable",
      "type": "function"
    },
    {
      "inputs": [
        {
          "internalType": "contract IERC20",
          "name": "_token",
          "type": "address"
        },
        {
          "internalType": "uint256",
          "name": "_amount",
          "type": "uint256"
        }
      ],
      "name": "invest",
      "outputs": [],
      "stateMutability": "nonpayable",
      "type": "function"
    },
    {
      "inputs": [
        {
          "internalType": "contract IERC20",
          "name": "_token",
          "type": "address"
        },
        {
          "internalType": "uint256",
          "name": "_amount",
          "type": "uint256"
        }
      ],
      "name": "withdraw",
      "outputs": [
        {
          "internalType": "uint256",
          "name": "",
          "type": "uint256"
        }
      ],
      "stateMutability": "nonpayable",
      "type": "function"
    },
    {
      "inputs": [],
      "name": "balanceOnReward",
      "outputs": [],
      "stateMutability": "nonpayable",
      "type": "function"
    },
    {
      "inputs": [],
      "name": "claimRewards",
      "outputs": [],
      "stateMutability": "nonpayable",
      "type": "function"
    }
  ],
  "bytecode": "0x60806040523480156200001157600080fd5b50620000276000801b336200002d60201b60201c565b620001a6565b6200003f82826200004360201b60201c565b5050565b6200005582826200013460201b60201c565b6200013057600160008084815260200190815260200160002060000160008373ffffffffffffffffffffffffffffffffffffffff1673ffffffffffffffffffffffffffffffffffffffff16815260200190815260200160002060006101000a81548160ff021916908315150217905550620000d56200019e60201b60201c565b73ffffffffffffffffffffffffffffffffffffffff168173ffffffffffffffffffffffffffffffffffffffff16837f2f8788117e7eff1d82e926ec794901d17c78024a50270940304540a733656f0d60405160405180910390a45b5050565b600080600084815260200190815260200160002060000160008373ffffffffffffffffffffffffffffffffffffffff1673ffffffffffffffffffffffffffffffffffffffff16815260200190815260200160002060009054906101000a900460ff16905092915050565b600033905090565b6145e680620001b66000396000f3fe608060405234801561001057600080fd5b506004361061012c5760003560e01c8063a217fddf116100ad578063d547741f11610071578063d547741f146102f5578063da909b0914610311578063e563037e1461032d578063f3fef3a31461034b578063fbfa77cf1461037b5761012c565b8063a217fddf14610277578063b69f88c814610295578063b9b8c2461461029f578063bd0f1053146102bb578063cde2cc21146102d95761012c565b8063372500ab116100f4578063372500ab146101e75780634d12fca4146101f15780636817031b1461020f57806368c32b9c1461022b57806391d14854146102475761012c565b806301ffc9a714610131578063248a9ca3146101615780632f2ff15d1461019157806334c0d442146101ad57806336568abe146101cb575b600080fd5b61014b60048036038101906101469190612ddb565b610399565b60405161015891906136f0565b60405180910390f35b61017b60048036038101906101769190612d6e565b610413565b604051610188919061370b565b60405180910390f35b6101ab60048036038101906101a69190612d9b565b610432565b005b6101b561045b565b6040516101c291906137a1565b60405180910390f35b6101e560048036038101906101e09190612d9b565b610481565b005b6101ef610504565b005b6101f96105b5565b6040516102069190613659565b60405180910390f35b61022960048036038101906102249190612ccb565b6105db565b005b61024560048036038101906102409190612ccb565b6106db565b005b610261600480360381019061025c9190612d9b565b6107db565b60405161026e91906136f0565b60405180910390f35b61027f610845565b60405161028c919061370b565b60405180910390f35b61029d61084c565b005b6102b960048036038101906102b49190612e08565b6108bf565b005b6102c36109e4565b6040516102d0919061370b565b60405180910390f35b6102f360048036038101906102ee9190612ccb565b610a08565b005b61030f600480360381019061030a9190612d9b565b610b08565b005b61032b60048036038101906103269190612ccb565b610b31565b005b610335610c7d565b6040516103429190613726565b60405180910390f35b61036560048036038101906103609190612e08565b610ca3565b60405161037291906138b9565b60405180910390f35b61038361105b565b60405161039091906137bc565b60405180910390f35b60007f7965db0b000000000000000000000000000000000000000000000000000000007bffffffffffffffffffffffffffffffffffffffffffffffffffffffff1916827bffffffffffffffffffffffffffffffffffffffffffffffffffffffff1916148061040c575061040b82611081565b5b9050919050565b6000806000838152602001908152602001600020600101549050919050565b61043b82610413565b61044c816104476110eb565b6110f3565b6104568383611190565b505050565b600460009054906101000a900473ffffffffffffffffffffffffffffffffffffffff1681565b6104896110eb565b73ffffffffffffffffffffffffffffffffffffffff168173ffffffffffffffffffffffffffffffffffffffff16146104f6576040517f08c379a00000000000000000000000000000000000000000000000000000000081526004016104ed90613899565b60405180910390fd5b6105008282611270565b5050565b600460009054906101000a900473ffffffffffffffffffffffffffffffffffffffff1673ffffffffffffffffffffffffffffffffffffffff166384e9bd7e600160009054906101000a900473ffffffffffffffffffffffffffffffffffffffff166040518263ffffffff1660e01b81526004016105819190613659565b600060405180830381600087803b15801561059b57600080fd5b505af11580156105af573d6000803e3d6000fd5b50505050565b600360009054906101000a900473ffffffffffffffffffffffffffffffffffffffff1681565b6105e86000801b336107db565b610627576040517f08c379a000000000000000000000000000000000000000000000000000000000815260040161061e90613839565b60405180910390fd5b600073ffffffffffffffffffffffffffffffffffffffff168173ffffffffffffffffffffffffffffffffffffffff161415610697576040517f08c379a000000000000000000000000000000000000000000000000000000000815260040161068e90613859565b60405180910390fd5b80600160006101000a81548173ffffffffffffffffffffffffffffffffffffffff021916908373ffffffffffffffffffffffffffffffffffffffff16021790555050565b6106e86000801b336107db565b610727576040517f08c379a000000000000000000000000000000000000000000000000000000000815260040161071e90613839565b60405180910390fd5b600073ffffffffffffffffffffffffffffffffffffffff168173ffffffffffffffffffffffffffffffffffffffff161415610797576040517f08c379a000000000000000000000000000000000000000000000000000000000815260040161078e90613859565b60405180910390fd5b80600260006101000a81548173ffffffffffffffffffffffffffffffffffffffff021916908373ffffffffffffffffffffffffffffffffffffffff16021790555050565b600080600084815260200190815260200160002060000160008373ffffffffffffffffffffffffffffffffffffffff1673ffffffffffffffffffffffffffffffffffffffff16815260200190815260200160002060009054906101000a900460ff16905092915050565b6000801b81565b6108767f3eb675f159e6ca6cf5de6bfbbc8c4521cfd428f5e9166e51094d5898504caf2d336107db565b6108b5576040517f08c379a00000000000000000000000000000000000000000000000000000000081526004016108ac90613819565b60405180910390fd5b6108bd611351565b565b6108e97f3eb675f159e6ca6cf5de6bfbbc8c4521cfd428f5e9166e51094d5898504caf2d336107db565b610928576040517f08c379a000000000000000000000000000000000000000000000000000000000815260040161091f90613819565b60405180910390fd5b8173ffffffffffffffffffffffffffffffffffffffff1663a9059cbb600160009054906101000a900473ffffffffffffffffffffffffffffffffffffffff16836040518363ffffffff1660e01b81526004016109859291906136c7565b602060405180830381600087803b15801561099f57600080fd5b505af11580156109b3573d6000803e3d6000fd5b505050506040513d601f19601f820116820180604052508101906109d79190612d41565b506109e0611351565b5050565b7f3eb675f159e6ca6cf5de6bfbbc8c4521cfd428f5e9166e51094d5898504caf2d81565b610a156000801b336107db565b610a54576040517f08c379a0000000000000000000000000000000000000000000000000000000008152600401610a4b90613839565b60405180910390fd5b600073ffffffffffffffffffffffffffffffffffffffff168173ffffffffffffffffffffffffffffffffffffffff161415610ac4576040517f08c379a0000000000000000000000000000000000000000000000000000000008152600401610abb90613859565b60405180910390fd5b80600460006101000a81548173ffffffffffffffffffffffffffffffffffffffff021916908373ffffffffffffffffffffffffffffffffffffffff16021790555050565b610b1182610413565b610b2281610b1d6110eb565b6110f3565b610b2c8383611270565b505050565b610b3e6000801b336107db565b610b7d576040517f08c379a0000000000000000000000000000000000000000000000000000000008152600401610b7490613839565b60405180910390fd5b600073ffffffffffffffffffffffffffffffffffffffff168173ffffffffffffffffffffffffffffffffffffffff161415610bed576040517f08c379a0000000000000000000000000000000000000000000000000000000008152600401610be490613859565b60405180910390fd5b80600360006101000a81548173ffffffffffffffffffffffffffffffffffffffff021916908373ffffffffffffffffffffffffffffffffffffffff160217905550610c7a7f3eb675f159e6ca6cf5de6bfbbc8c4521cfd428f5e9166e51094d5898504caf2d600360009054906101000a900473ffffffffffffffffffffffffffffffffffffffff16610432565b50565b600260009054906101000a900473ffffffffffffffffffffffffffffffffffffffff1681565b6000610ccf7f3eb675f159e6ca6cf5de6bfbbc8c4521cfd428f5e9166e51094d5898504caf2d336107db565b610d0e576040517f08c379a0000000000000000000000000000000000000000000000000000000008152600401610d0590613819565b60405180910390fd5b610d18838361156e565b60008373ffffffffffffffffffffffffffffffffffffffff166370a08231600160009054906101000a900473ffffffffffffffffffffffffffffffffffffffff166040518263ffffffff1660e01b8152600401610d759190613659565b60206040518083038186803b158015610d8d57600080fd5b505afa158015610da1573d6000803e3d6000fd5b505050506040513d601f19601f82011682018060405250810190610dc59190612e91565b905080831115610dd3578092505b828473ffffffffffffffffffffffffffffffffffffffff166370a08231600160009054906101000a900473ffffffffffffffffffffffffffffffffffffffff166040518263ffffffff1660e01b8152600401610e2f9190613659565b60206040518083038186803b158015610e4757600080fd5b505afa158015610e5b573d6000803e3d6000fd5b505050506040513d601f19601f82011682018060405250810190610e7f9190612e91565b1015610f348573ffffffffffffffffffffffffffffffffffffffff166370a08231600160009054906101000a900473ffffffffffffffffffffffffffffffffffffffff166040518263ffffffff1660e01b8152600401610edf9190613659565b60206040518083038186803b158015610ef757600080fd5b505afa158015610f0b573d6000803e3d6000fd5b505050506040513d601f19601f82011682018060405250810190610f2f9190612e91565b611693565b610f3d85611693565b604051602001610f4e929190613593565b60405160208183030381529060405290610f9e576040517f08c379a0000000000000000000000000000000000000000000000000000000008152600401610f9591906137d7565b60405180910390fd5b50600160009054906101000a900473ffffffffffffffffffffffffffffffffffffffff1673ffffffffffffffffffffffffffffffffffffffff1663beabacc88533866040518463ffffffff1660e01b8152600401610ffe93929190613741565b602060405180830381600087803b15801561101857600080fd5b505af115801561102c573d6000803e3d6000fd5b505050506040513d601f19601f820116820180604052508101906110509190612d41565b508291505092915050565b600160009054906101000a900473ffffffffffffffffffffffffffffffffffffffff1681565b60007f01ffc9a7000000000000000000000000000000000000000000000000000000007bffffffffffffffffffffffffffffffffffffffffffffffffffffffff1916827bffffffffffffffffffffffffffffffffffffffffffffffffffffffff1916149050919050565b600033905090565b6110fd82826107db565b61118c576111228173ffffffffffffffffffffffffffffffffffffffff1660146117fa565b6111308360001c60206117fa565b60405160200161114192919061361f565b6040516020818303038152906040526040517f08c379a000000000000000000000000000000000000000000000000000000000815260040161118391906137d7565b60405180910390fd5b5050565b61119a82826107db565b61126c57600160008084815260200190815260200160002060000160008373ffffffffffffffffffffffffffffffffffffffff1673ffffffffffffffffffffffffffffffffffffffff16815260200190815260200160002060006101000a81548160ff0219169083151502179055506112116110eb565b73ffffffffffffffffffffffffffffffffffffffff168173ffffffffffffffffffffffffffffffffffffffff16837f2f8788117e7eff1d82e926ec794901d17c78024a50270940304540a733656f0d60405160405180910390a45b5050565b61127a82826107db565b1561134d57600080600084815260200190815260200160002060000160008373ffffffffffffffffffffffffffffffffffffffff1673ffffffffffffffffffffffffffffffffffffffff16815260200190815260200160002060006101000a81548160ff0219169083151502179055506112f26110eb565b73ffffffffffffffffffffffffffffffffffffffff168173ffffffffffffffffffffffffffffffffffffffff16837ff6391f5c32d9c69d2a47ea670b442974b53935d1edc7fd64eb21e047a839171b60405160405180910390a45b5050565b600260009054906101000a900473ffffffffffffffffffffffffffffffffffffffff1673ffffffffffffffffffffffffffffffffffffffff1663d4341b996040518163ffffffff1660e01b8152600401600060405180830381600087803b1580156113bb57600080fd5b505af19250505080156113f157506040513d6000823e3d601f19601f820116820180604052508101906113ee9190612cf8565b60015b611503576113fd613f64565b806308c379a014156114915750611412614462565b8061141d5750611493565b7f0f8db0708c4e6b233e2c285fe1ed66015dee71bd374ac8e835534be5f592d6a28160405161144c91906137d7565b60405180910390a1806040517f08c379a000000000000000000000000000000000000000000000000000000000815260040161148891906137d7565b60405180910390fd5b505b7f0f8db0708c4e6b233e2c285fe1ed66015dee71bd374ac8e835534be5f592d6a26040516114c090613879565b60405180910390a16040517f08c379a00000000000000000000000000000000000000000000000000000000081526004016114fa90613879565b60405180910390fd5b7f0f8db0708c4e6b233e2c285fe1ed66015dee71bd374ac8e835534be5f592d6a261152e8251611693565b60405160200161153e9190613373565b60405160208183030381529060405260405161155a91906137d7565b60405180910390a161156b81611a36565b50565b6000600260009054906101000a900473ffffffffffffffffffffffffffffffffffffffff1673ffffffffffffffffffffffffffffffffffffffff1663c7fa6b9e84846040518363ffffffff1660e01b81526004016115cd929190613778565b600060405180830381600087803b1580156115e757600080fd5b505af11580156115fb573d6000803e3d6000fd5b505050506040513d6000823e3d601f19601f820116820180604052508101906116249190612cf8565b90507f0f8db0708c4e6b233e2c285fe1ed66015dee71bd374ac8e835534be5f592d6a26116518251611693565b6040516020016116619190613373565b60405160208183030381529060405260405161167d91906137d7565b60405180910390a161168e81611a36565b505050565b606060008214156116db576040518060400160405280600181526020017f300000000000000000000000000000000000000000000000000000000000000081525090506117f5565b600082905060005b6000821461170d5780806116f690613e04565b915050600a8261170691906139d3565b91506116e3565b60008167ffffffffffffffff81111561172957611728613f35565b5b6040519080825280601f01601f19166020018201604052801561175b5781602001600182028036833780820191505090505b50905060008290505b600086146117ed576001816117799190613bcf565b9050600a866117889190613e77565b6030611794919061397d565b60f81b8282815181106117aa576117a9613f06565b5b60200101907effffffffffffffffffffffffffffffffffffffffffffffffffffffffffffff1916908160001a905350600a866117e691906139d3565b9550611764565b819450505050505b919050565b60606000600283600261180d9190613b75565b611817919061397d565b67ffffffffffffffff8111156118305761182f613f35565b5b6040519080825280601f01601f1916602001820160405280156118625781602001600182028036833780820191505090505b5090507f30000000000000000000000000000000000000000000000000000000000000008160008151811061189a57611899613f06565b5b60200101907effffffffffffffffffffffffffffffffffffffffffffffffffffffffffffff1916908160001a9053507f7800000000000000000000000000000000000000000000000000000000000000816001815181106118fe576118fd613f06565b5b60200101907effffffffffffffffffffffffffffffffffffffffffffffffffffffffffffff1916908160001a9053506000600184600261193e9190613b75565b611948919061397d565b90505b60018111156119e8577f3031323334353637383961626364656600000000000000000000000000000000600f86166010811061198a57611989613f06565b5b1a60f81b8282815181106119a1576119a0613f06565b5b60200101907effffffffffffffffffffffffffffffffffffffffffffffffffffffffffffff1916908160001a905350600485901c9450806119e190613da9565b905061194b565b5060008414611a2c576040517f08c379a0000000000000000000000000000000000000000000000000000000008152600401611a23906137f9565b60405180910390fd5b8091505092915050565b7f0f8db0708c4e6b233e2c285fe1ed66015dee71bd374ac8e835534be5f592d6a2611a618251611693565b604051602001611a7191906132f2565b604051602081830303815290604052604051611a8d91906137d7565b60405180910390a16000600190505b8015612a1e576000905060005b82518160ff161015612a18576000838260ff1681518110611acd57611acc613f06565b5b602002602001015190508060c0015115611c66577f0f8db0708c4e6b233e2c285fe1ed66015dee71bd374ac8e835534be5f592d6a2611b0e8360ff16611693565b611b1b8360800151611693565b836040015173ffffffffffffffffffffffffffffffffffffffff166395d89b416040518163ffffffff1660e01b815260040160006040518083038186803b158015611b6557600080fd5b505afa158015611b79573d6000803e3d6000fd5b505050506040513d6000823e3d601f19601f82011682018060405250810190611ba29190612e48565b846060015173ffffffffffffffffffffffffffffffffffffffff166395d89b416040518163ffffffff1660e01b815260040160006040518083038186803b158015611bec57600080fd5b505afa158015611c00573d6000803e3d6000fd5b505050506040513d6000823e3d601f19601f82011682018060405250810190611c299190612e48565b604051602001611c3c949392919061346b565b604051602081830303815290604052604051611c5891906137d7565b60405180910390a150612a05565b600081608001519050600080836040015173ffffffffffffffffffffffffffffffffffffffff1663313ce5676040518163ffffffff1660e01b815260040160206040518083038186803b158015611cbc57600080fd5b505afa158015611cd0573d6000803e3d6000fd5b505050506040513d601f19601f82011682018060405250810190611cf49190612ebe565b6012611d009190613c03565b600a611d0c9190613a57565b90508360a0015115611ddc57836040015173ffffffffffffffffffffffffffffffffffffffff166370a08231600160009054906101000a900473ffffffffffffffffffffffffffffffffffffffff166040518263ffffffff1660e01b8152600401611d779190613659565b60206040518083038186803b158015611d8f57600080fd5b505afa158015611da3573d6000803e3d6000fd5b505050506040513d601f19601f82011682018060405250810190611dc79190612e91565b91508082611dd59190613b75565b9250611deb565b8083611de891906139d3565b91505b6000831415611f78577f0f8db0708c4e6b233e2c285fe1ed66015dee71bd374ac8e835534be5f592d6a2611e218660ff16611693565b611e2a85611693565b866040015173ffffffffffffffffffffffffffffffffffffffff166395d89b416040518163ffffffff1660e01b815260040160006040518083038186803b158015611e7457600080fd5b505afa158015611e88573d6000803e3d6000fd5b505050506040513d6000823e3d601f19601f82011682018060405250810190611eb19190612e48565b876060015173ffffffffffffffffffffffffffffffffffffffff166395d89b416040518163ffffffff1660e01b815260040160006040518083038186803b158015611efb57600080fd5b505afa158015611f0f573d6000803e3d6000fd5b505050506040513d6000823e3d601f19601f82011682018060405250810190611f389190612e48565b604051602001611f4b949392919061340c565b604051602081830303815290604052604051611f6791906137d7565b60405180910390a150505050612a05565b81846040015173ffffffffffffffffffffffffffffffffffffffff166370a08231600160009054906101000a900473ffffffffffffffffffffffffffffffffffffffff166040518263ffffffff1660e01b8152600401611fd89190613659565b60206040518083038186803b158015611ff057600080fd5b505afa158015612004573d6000803e3d6000fd5b505050506040513d601f19601f820116820180604052508101906120289190612e91565b101561226a577f0f8db0708c4e6b233e2c285fe1ed66015dee71bd374ac8e835534be5f592d6a261205b8660ff16611693565b61206484611693565b866040015173ffffffffffffffffffffffffffffffffffffffff166395d89b416040518163ffffffff1660e01b815260040160006040518083038186803b1580156120ae57600080fd5b505afa1580156120c2573d6000803e3d6000fd5b505050506040513d6000823e3d601f19601f820116820180604052508101906120eb9190612e48565b876060015173ffffffffffffffffffffffffffffffffffffffff166395d89b416040518163ffffffff1660e01b815260040160006040518083038186803b15801561213557600080fd5b505afa158015612149573d6000803e3d6000fd5b505050506040513d6000823e3d601f19601f820116820180604052508101906121729190612e48565b612229896040015173ffffffffffffffffffffffffffffffffffffffff166370a08231600160009054906101000a900473ffffffffffffffffffffffffffffffffffffffff166040518263ffffffff1660e01b81526004016121d49190613659565b60206040518083038186803b1580156121ec57600080fd5b505afa158015612200573d6000803e3d6000fd5b505050506040513d601f19601f820116820180604052508101906122249190612e91565b611693565b60405160200161223d9594939291906134ca565b60405160208183030381529060405260405161225991906137d7565b60405180910390a150505050612a05565b600160009054906101000a900473ffffffffffffffffffffffffffffffffffffffff1673ffffffffffffffffffffffffffffffffffffffff1663beabacc885604001518660000151856040518463ffffffff1660e01b81526004016122d193929190613741565b602060405180830381600087803b1580156122eb57600080fd5b505af11580156122ff573d6000803e3d6000fd5b505050506040513d601f19601f820116820180604052508101906123239190612d41565b50836000015173ffffffffffffffffffffffffffffffffffffffff166362ac7538600160009054906101000a900473ffffffffffffffffffffffffffffffffffffffff168660400151600160009054906101000a900473ffffffffffffffffffffffffffffffffffffffff168860600151886040518663ffffffff1660e01b81526004016123b5959493929190613674565b600060405180830381600087803b1580156123cf57600080fd5b505af19250505080156123e0575060015b6126f8576123ec613f64565b806308c379a014156125825750612401614462565b8061240c5750612584565b8061241685611693565b866040015173ffffffffffffffffffffffffffffffffffffffff166395d89b416040518163ffffffff1660e01b815260040160006040518083038186803b15801561246057600080fd5b505afa158015612474573d6000803e3d6000fd5b505050506040513d6000823e3d601f19601f8201168201806040525081019061249d9190612e48565b876060015173ffffffffffffffffffffffffffffffffffffffff166395d89b416040518163ffffffff1660e01b815260040160006040518083038186803b1580156124e757600080fd5b505afa1580156124fb573d6000803e3d6000fd5b505050506040513d6000823e3d601f19601f820116820180604052508101906125249190612e48565b6040516020016125379493929190613314565b6040516020818303038152906040526040517f08c379a000000000000000000000000000000000000000000000000000000000815260040161257991906137d7565b60405180910390fd5b505b61258d83611693565b846040015173ffffffffffffffffffffffffffffffffffffffff166395d89b416040518163ffffffff1660e01b815260040160006040518083038186803b1580156125d757600080fd5b505afa1580156125eb573d6000803e3d6000fd5b505050506040513d6000823e3d601f19601f820116820180604052508101906126149190612e48565b856060015173ffffffffffffffffffffffffffffffffffffffff166395d89b416040518163ffffffff1660e01b815260040160006040518083038186803b15801561265e57600080fd5b505afa158015612672573d6000803e3d6000fd5b505050506040513d6000823e3d601f19601f8201168201806040525081019061269b9190612e48565b6040516020016126ad93929190613541565b6040516020818303038152906040526040517f08c379a00000000000000000000000000000000000000000000000000000000081526004016126ef91906137d7565b60405180910390fd5b60018460c00190151590811515815250507f0f8db0708c4e6b233e2c285fe1ed66015dee71bd374ac8e835534be5f592d6a26127368660ff16611693565b61273f85611693565b61274885611693565b876040015173ffffffffffffffffffffffffffffffffffffffff166395d89b416040518163ffffffff1660e01b815260040160006040518083038186803b15801561279257600080fd5b505afa1580156127a6573d6000803e3d6000fd5b505050506040513d6000823e3d601f19601f820116820180604052508101906127cf9190612e48565b886060015173ffffffffffffffffffffffffffffffffffffffff166395d89b416040518163ffffffff1660e01b815260040160006040518083038186803b15801561281957600080fd5b505afa15801561282d573d6000803e3d6000fd5b505050506040513d6000823e3d601f19601f820116820180604052508101906128569190612e48565b60405160200161286a959493929190613395565b60405160208183030381529060405260405161288691906137d7565b60405180910390a17f0f8db0708c4e6b233e2c285fe1ed66015dee71bd374ac8e835534be5f592d6a26128b884611693565b856040015173ffffffffffffffffffffffffffffffffffffffff166395d89b416040518163ffffffff1660e01b815260040160006040518083038186803b15801561290257600080fd5b505afa158015612916573d6000803e3d6000fd5b505050506040513d6000823e3d601f19601f8201168201806040525081019061293f9190612e48565b866060015173ffffffffffffffffffffffffffffffffffffffff166395d89b416040518163ffffffff1660e01b815260040160006040518083038186803b15801561298957600080fd5b505afa15801561299d573d6000803e3d6000fd5b505050506040513d6000823e3d601f19601f820116820180604052508101906129c69190612e48565b6040516020016129d8939291906135cd565b6040516020818303038152906040526040516129f491906137d7565b60405180910390a160019550505050505b8080612a1090613e4d565b915050611aa9565b50611a9c565b5050565b6000612a35612a30846138f9565b6138d4565b905080838252602082019050828560e0860282011115612a5857612a57613f90565b5b60005b85811015612a885781612a6e8882612bd8565b845260208401935060e08301925050600181019050612a5b565b5050509392505050565b6000612aa5612aa084613925565b6138d4565b905082815260208101848484011115612ac157612ac0613f95565b5b612acc848285613d76565b509392505050565b600081359050612ae3816144f8565b92915050565b600082601f830112612afe57612afd613f86565b5b8151612b0e848260208601612a22565b91505092915050565b600081519050612b268161450f565b92915050565b600081359050612b3b81614526565b92915050565b600081519050612b5081614526565b92915050565b600081359050612b658161453d565b92915050565b600081359050612b7a81614554565b92915050565b600081519050612b8f81614554565b92915050565b600081519050612ba48161456b565b92915050565b600082601f830112612bbf57612bbe613f86565b5b8151612bcf848260208601612a92565b91505092915050565b600060e08284031215612bee57612bed613f8b565b5b612bf860e06138d4565b90506000612c0884828501612b95565b6000830152506020612c1c84828501612b41565b6020830152506040612c3084828501612b80565b6040830152506060612c4484828501612b80565b6060830152506080612c5884828501612ca1565b60808301525060a0612c6c84828501612b17565b60a08301525060c0612c8084828501612b17565b60c08301525092915050565b600081359050612c9b81614582565b92915050565b600081519050612cb081614582565b92915050565b600081519050612cc581614599565b92915050565b600060208284031215612ce157612ce0613f9f565b5b6000612cef84828501612ad4565b91505092915050565b600060208284031215612d0e57612d0d613f9f565b5b600082015167ffffffffffffffff811115612d2c57612d2b613f9a565b5b612d3884828501612ae9565b91505092915050565b600060208284031215612d5757612d56613f9f565b5b6000612d6584828501612b17565b91505092915050565b600060208284031215612d8457612d83613f9f565b5b6000612d9284828501612b2c565b91505092915050565b60008060408385031215612db257612db1613f9f565b5b6000612dc085828601612b2c565b9250506020612dd185828601612ad4565b9150509250929050565b600060208284031215612df157612df0613f9f565b5b6000612dff84828501612b56565b91505092915050565b60008060408385031215612e1f57612e1e613f9f565b5b6000612e2d85828601612b6b565b9250506020612e3e85828601612c8c565b9150509250929050565b600060208284031215612e5e57612e5d613f9f565b5b600082015167ffffffffffffffff811115612e7c57612e7b613f9a565b5b612e8884828501612baa565b91505092915050565b600060208284031215612ea757612ea6613f9f565b5b6000612eb584828501612ca1565b91505092915050565b600060208284031215612ed457612ed3613f9f565b5b6000612ee284828501612cb6565b91505092915050565b612ef481613c37565b82525050565b612f0381613c49565b82525050565b612f1281613c55565b82525050565b612f2181613ce6565b82525050565b612f3081613d0a565b82525050565b612f3f81613d2e565b82525050565b612f4e81613d52565b82525050565b6000612f5f82613956565b612f698185613961565b9350612f79818560208601613d76565b612f8281613fa4565b840191505092915050565b6000612f9882613956565b612fa28185613972565b9350612fb2818560208601613d76565b80840191505092915050565b6000612fcb602083613961565b9150612fd682613fcf565b602082019050919050565b6000612fee601383613972565b9150612ff982613ff8565b601382019050919050565b6000613011601b83613961565b915061301c82614021565b602082019050919050565b6000613034602283613972565b915061303f8261404a565b602282019050919050565b6000613057600883613972565b915061306282614099565b600882019050919050565b600061307a600683613972565b9150613085826140c2565b600682019050919050565b600061309d602983613972565b91506130a8826140eb565b602982019050919050565b60006130c0600a83613972565b91506130cb8261413a565b600a82019050919050565b60006130e3602a83613972565b91506130ee82614163565b602a82019050919050565b6000613106600483613972565b9150613111826141b2565b600482019050919050565b6000613129601a83613972565b9150613134826141db565b601a82019050919050565b600061314c600383613972565b915061315782614204565b600382019050919050565b600061316f601483613961565b915061317a8261422d565b602082019050919050565b6000613192601883613961565b915061319d82614256565b602082019050919050565b60006131b5600983613972565b91506131c08261427f565b600982019050919050565b60006131d8601783613972565b91506131e3826142a8565b601782019050919050565b60006131fb602e83613961565b9150613206826142d1565b604082019050919050565b600061321e600983613972565b915061322982614320565b600982019050919050565b6000613241601083613972565b915061324c82614349565b601082019050919050565b6000613264602b83613972565b915061326f82614372565b602b82019050919050565b6000613287600483613972565b9150613292826143c1565b600482019050919050565b60006132aa601183613972565b91506132b5826143ea565b601182019050919050565b60006132cd602f83613961565b91506132d882614413565b604082019050919050565b6132ec81613ccf565b82525050565b60006132fe8284612f8d565b915061330982612fe1565b915081905092915050565b60006133208287612f8d565b915061332b82613027565b91506133378286612f8d565b91506133428261306d565b915061334e8285612f8d565b9150613359826130f9565b91506133658284612f8d565b915081905095945050505050565b600061337f8284612f8d565b915061338a8261304a565b915081905092915050565b60006133a18288612f8d565b91506133ac826130b3565b91506133b88287612f8d565b91506133c38261327a565b91506133cf8286612f8d565b91506133da8261306d565b91506133e68285612f8d565b91506133f1826130f9565b91506133fd8284612f8d565b91508190509695505050505050565b60006134188287612f8d565b91506134238261311c565b915061342f8286612f8d565b915061343a8261306d565b91506134468285612f8d565b9150613451826130f9565b915061345d8284612f8d565b915081905095945050505050565b60006134778287612f8d565b915061348282613234565b915061348e8286612f8d565b91506134998261306d565b91506134a58285612f8d565b91506134b0826130f9565b91506134bc8284612f8d565b915081905095945050505050565b60006134d68288612f8d565b91506134e182613257565b91506134ed8287612f8d565b91506134f88261306d565b91506135048286612f8d565b915061350f826130f9565b915061351b8285612f8d565b915061352682613211565b91506135328284612f8d565b91508190509695505050505050565b600061354c82613090565b91506135588286612f8d565b91506135638261306d565b915061356f8285612f8d565b915061357a826130f9565b91506135868284612f8d565b9150819050949350505050565b600061359e826130d6565b91506135aa8285612f8d565b91506135b58261313f565b91506135c18284612f8d565b91508190509392505050565b60006135d8826131a8565b91506135e48286612f8d565b91506135ef8261306d565b91506135fb8285612f8d565b9150613606826130f9565b91506136128284612f8d565b9150819050949350505050565b600061362a826131cb565b91506136368285612f8d565b91506136418261329d565b915061364d8284612f8d565b91508190509392505050565b600060208201905061366e6000830184612eeb565b92915050565b600060a0820190506136896000830188612eeb565b6136966020830187612f27565b6136a36040830186612eeb565b6136b06060830185612f27565b6136bd60808301846132e3565b9695505050505050565b60006040820190506136dc6000830185612eeb565b6136e960208301846132e3565b9392505050565b60006020820190506137056000830184612efa565b92915050565b60006020820190506137206000830184612f09565b92915050565b600060208201905061373b6000830184612f18565b92915050565b60006060820190506137566000830186612f27565b6137636020830185612eeb565b61377060408301846132e3565b949350505050565b600060408201905061378d6000830185612f27565b61379a60208301846132e3565b9392505050565b60006020820190506137b66000830184612f36565b92915050565b60006020820190506137d16000830184612f45565b92915050565b600060208201905081810360008301526137f18184612f54565b905092915050565b6000602082019050818103600083015261381281612fbe565b9050919050565b6000602082019050818103600083015261383281613004565b9050919050565b6000602082019050818103600083015261385281613162565b9050919050565b6000602082019050818103600083015261387281613185565b9050919050565b60006020820190508181036000830152613892816131ee565b9050919050565b600060208201905081810360008301526138b2816132c0565b9050919050565b60006020820190506138ce60008301846132e3565b92915050565b60006138de6138ef565b90506138ea8282613dd3565b919050565b6000604051905090565b600067ffffffffffffffff82111561391457613913613f35565b5b602082029050602081019050919050565b600067ffffffffffffffff8211156139405761393f613f35565b5b61394982613fa4565b9050602081019050919050565b600081519050919050565b600082825260208201905092915050565b600081905092915050565b600061398882613ccf565b915061399383613ccf565b9250827fffffffffffffffffffffffffffffffffffffffffffffffffffffffffffffffff038211156139c8576139c7613ea8565b5b828201905092915050565b60006139de82613ccf565b91506139e983613ccf565b9250826139f9576139f8613ed7565b5b828204905092915050565b6000808291508390505b6001851115613a4e57808604811115613a2a57613a29613ea8565b5b6001851615613a395780820291505b8081029050613a4785613fb5565b9450613a0e565b94509492505050565b6000613a6282613ccf565b9150613a6d83613cd9565b9250613a9a7fffffffffffffffffffffffffffffffffffffffffffffffffffffffffffffffff8484613aa2565b905092915050565b600082613ab25760019050613b6e565b81613ac05760009050613b6e565b8160018114613ad65760028114613ae057613b0f565b6001915050613b6e565b60ff841115613af257613af1613ea8565b5b8360020a915084821115613b0957613b08613ea8565b5b50613b6e565b5060208310610133831016604e8410600b8410161715613b445782820a905083811115613b3f57613b3e613ea8565b5b613b6e565b613b518484846001613a04565b92509050818404811115613b6857613b67613ea8565b5b81810290505b9392505050565b6000613b8082613ccf565b9150613b8b83613ccf565b9250817fffffffffffffffffffffffffffffffffffffffffffffffffffffffffffffffff0483118215151615613bc457613bc3613ea8565b5b828202905092915050565b6000613bda82613ccf565b9150613be583613ccf565b925082821015613bf857613bf7613ea8565b5b828203905092915050565b6000613c0e82613cd9565b9150613c1983613cd9565b925082821015613c2c57613c2b613ea8565b5b828203905092915050565b6000613c4282613caf565b9050919050565b60008115159050919050565b6000819050919050565b60007fffffffff0000000000000000000000000000000000000000000000000000000082169050919050565b6000613c9682613c37565b9050919050565b6000613ca882613c37565b9050919050565b600073ffffffffffffffffffffffffffffffffffffffff82169050919050565b6000819050919050565b600060ff82169050919050565b6000613cf182613cf8565b9050919050565b6000613d0382613caf565b9050919050565b6000613d1582613d1c565b9050919050565b6000613d2782613caf565b9050919050565b6000613d3982613d40565b9050919050565b6000613d4b82613caf565b9050919050565b6000613d5d82613d64565b9050919050565b6000613d6f82613caf565b9050919050565b60005b83811015613d94578082015181840152602081019050613d79565b83811115613da3576000848401525b50505050565b6000613db482613ccf565b91506000821415613dc857613dc7613ea8565b5b600182039050919050565b613ddc82613fa4565b810181811067ffffffffffffffff82111715613dfb57613dfa613f35565b5b80604052505050565b6000613e0f82613ccf565b91507fffffffffffffffffffffffffffffffffffffffffffffffffffffffffffffffff821415613e4257613e41613ea8565b5b600182019050919050565b6000613e5882613cd9565b915060ff821415613e6c57613e6b613ea8565b5b600182019050919050565b6000613e8282613ccf565b9150613e8d83613ccf565b925082613e9d57613e9c613ed7565b5b828206905092915050565b7f4e487b7100000000000000000000000000000000000000000000000000000000600052601160045260246000fd5b7f4e487b7100000000000000000000000000000000000000000000000000000000600052601260045260246000fd5b7f4e487b7100000000000000000000000000000000000000000000000000000000600052603260045260246000fd5b7f4e487b7100000000000000000000000000000000000000000000000000000000600052604160045260246000fd5b600060033d1115613f835760046000803e613f80600051613fc2565b90505b90565b600080fd5b600080fd5b600080fd5b600080fd5b600080fd5b600080fd5b6000601f19601f8301169050919050565b60008160011c9050919050565b60008160e01c9050919050565b7f537472696e67733a20686578206c656e67746820696e73756666696369656e74600082015250565b7f20616374696f6e7320746f206578656375746500000000000000000000000000600082015250565b7f43616c6c6572206973206e6f74207468652045584348414e4745520000000000600082015250565b7f0a2b20616374696f6e2e746f6b656e45786368616e67652e65786368616e676560008201527f3a20000000000000000000000000000000000000000000000000000000000000602082015250565b7f20616374696f6e73000000000000000000000000000000000000000000000000600082015250565b7f2066726f6d200000000000000000000000000000000000000000000000000000600082015250565b7f616374696f6e2e746f6b656e45786368616e67652e65786368616e67653a204e60008201527f6f20726561736f6e200000000000000000000000000000000000000000000000602082015250565b7f2045786368616e67652000000000000000000000000000000000000000000000600082015250565b7f496e207661756c74206e6f7420656e6f75676820666f72207472616e7366657260008201527f205f616d6f756e743a2000000000000000000000000000000000000000000000602082015250565b7f20746f2000000000000000000000000000000000000000000000000000000000600082015250565b7f20536b6970207a65726f20616d6f756e7420616374696f6e3a20000000000000600082015250565b7f203c200000000000000000000000000000000000000000000000000000000000600082015250565b7f5265737472696374656420746f2061646d696e73000000000000000000000000600082015250565b7f5a65726f2061646472657373206e6f7420616c6c6f7765640000000000000000600082015250565b7f45786368616e6765200000000000000000000000000000000000000000000000600082015250565b7f416363657373436f6e74726f6c3a206163636f756e7420000000000000000000600082015250565b7f62616c616e63654f6e496e766573743a6275696c6442616c616e63654163746960008201527f6f6e733a204e6f20726561736f6e000000000000000000000000000000000000602082015250565b7f2063757272656e74200000000000000000000000000000000000000000000000600082015250565b7f20536b69702065786563757465643a2000000000000000000000000000000000600082015250565b7f20536b6970206e6f7420656e6f7567682062616c616e636520666f722065786560008201527f63757465206b6e6f773a20000000000000000000000000000000000000000000602082015250565b7f202d3e2000000000000000000000000000000000000000000000000000000000600082015250565b7f206973206d697373696e6720726f6c6520000000000000000000000000000000600082015250565b7f416363657373436f6e74726f6c3a2063616e206f6e6c792072656e6f756e636560008201527f20726f6c657320666f722073656c660000000000000000000000000000000000602082015250565b600060443d1015614472576144f5565b61447a6138ef565b60043d036004823e80513d602482011167ffffffffffffffff821117156144a25750506144f5565b808201805167ffffffffffffffff8111156144c057505050506144f5565b80602083010160043d0385018111156144dd5750505050506144f5565b6144ec82602001850186613dd3565b82955050505050505b90565b61450181613c37565b811461450c57600080fd5b50565b61451881613c49565b811461452357600080fd5b50565b61452f81613c55565b811461453a57600080fd5b50565b61454681613c5f565b811461455157600080fd5b50565b61455d81613c8b565b811461456857600080fd5b50565b61457481613c9d565b811461457f57600080fd5b50565b61458b81613ccf565b811461459657600080fd5b50565b6145a281613cd9565b81146145ad57600080fd5b5056fea2646970667358221220949c0bc2eae5b36c2b2e852185cc8592b563aba66a3f116870b1f1c82bf6445a64736f6c63430008060033",
  "immutableReferences": {},
  "source": "// SPDX-License-Identifier: MIT\r\npragma solidity >=0.8.0 <0.9.0;\r\n\r\nimport \"@openzeppelin/contracts/token/ERC20/IERC20.sol\";\r\nimport \"@openzeppelin/contracts/access/AccessControl.sol\";\r\nimport \"@openzeppelin/contracts/token/ERC20/extensions/IERC20Metadata.sol\";\r\nimport \"./interfaces/IPortfolioManager.sol\";\r\nimport \"./interfaces/IConnector.sol\";\r\nimport \"./interfaces/IMark2Market.sol\";\r\nimport \"./interfaces/IActionBuilder.sol\";\r\nimport \"./connectors/curve/interfaces/IRewardOnlyGauge.sol\";\r\nimport \"./registries/InvestmentPortfolio.sol\";\r\n\r\nimport \"./Vault.sol\";\r\nimport \"./Balancer.sol\";\r\n\r\ncontract PortfolioManager is IPortfolioManager, AccessControl {\r\n    bytes32 public constant EXCHANGER = keccak256(\"EXCHANGER\");\r\n\r\n    // ---  fields\r\n\r\n    Vault public vault;\r\n    Balancer public balancer;\r\n    address public exchanger;\r\n    IRewardOnlyGauge public rewardGauge;\r\n\r\n    // ---  events\r\n\r\n    //TODO: remove\r\n    event ConsoleLog(string str);\r\n\r\n    // ---  modifiers\r\n\r\n    modifier onlyAdmin() {\r\n        require(hasRole(DEFAULT_ADMIN_ROLE, msg.sender), \"Restricted to admins\");\r\n        _;\r\n    }\r\n\r\n    modifier onlyExchanger() {\r\n        require(hasRole(EXCHANGER, msg.sender), \"Caller is not the EXCHANGER\");\r\n        _;\r\n    }\r\n\r\n    // ---  constructor\r\n\r\n    constructor() {\r\n        _setupRole(DEFAULT_ADMIN_ROLE, msg.sender);\r\n    }\r\n\r\n    // ---  setters\r\n\r\n    function setExchanger(address _exchanger) public onlyAdmin {\r\n        require(_exchanger != address(0), \"Zero address not allowed\");\r\n        exchanger = _exchanger;\r\n        grantRole(EXCHANGER, exchanger);\r\n    }\r\n\r\n    function setVault(address _vault) external onlyAdmin {\r\n        require(_vault != address(0), \"Zero address not allowed\");\r\n        vault = Vault(_vault);\r\n    }\r\n\r\n    function setBalancer(address _balancer) external onlyAdmin {\r\n        require(_balancer != address(0), \"Zero address not allowed\");\r\n        balancer = Balancer(_balancer);\r\n    }\r\n\r\n    function setRewardGauge(address _rewardGauge) external onlyAdmin {\r\n        require(_rewardGauge != address(0), \"Zero address not allowed\");\r\n        rewardGauge = IRewardOnlyGauge(_rewardGauge);\r\n    }\r\n\r\n    // ---  logic\r\n\r\n    //TODO: exchange only\r\n    function invest(IERC20 _token, uint256 _amount) external override onlyExchanger {\r\n        // 1. put tokens into Vault\r\n        _token.transfer(address(vault), _amount);\r\n\r\n        // 2. start balancing\r\n        balanceOnInvest();\r\n    }\r\n\r\n    function balanceOnInvest() internal {\r\n        try balancer.buildBalanceActions() returns (\r\n            IActionBuilder.ExchangeAction[] memory actionOrder\r\n        ) {\r\n            //TODO: remove\r\n            emit ConsoleLog(string(abi.encodePacked(uint2str(actionOrder.length), \" actions\")));\r\n\r\n            // 2. execute them\r\n            executeActions(actionOrder);\r\n        } catch Error(string memory reason) {\r\n            // This may occur if there is an overflow with the two numbers and the `AddNumbers` contract explicitly fails with a `revert()`\r\n            emit ConsoleLog(reason);\r\n            revert(reason);\r\n        } catch {\r\n            emit ConsoleLog(\"balanceOnInvest:buildBalanceActions: No reason\");\r\n            revert(\"balanceOnInvest:buildBalanceActions: No reason\");\r\n        }\r\n\r\n        // // 1. got action to balance\r\n        // IActionBuilder.ExchangeAction[] memory actionOrder = balancer.buildBalanceActions();\r\n        // //TODO: remove\r\n        // emit ConsoleLog(string(abi.encodePacked(uint2str(actionOrder.length), \" actions\")));\r\n\r\n        // // 2. execute them\r\n        // executeActions(actionOrder);\r\n    }\r\n\r\n    function withdraw(IERC20 _token, uint256 _amount)\r\n        external\r\n        override\r\n        onlyExchanger\r\n        returns (uint256)\r\n    {\r\n        // 0.1 TODO: check that _token is one off used\r\n        // 0.2 TODO: check total balance would be in balancer where wi will correct total price, is enough?\r\n\r\n        // 1. balance to needed amount\r\n        balanceOnWithdraw(_token, _amount);\r\n\r\n        // 2. transfer back tokens\r\n        // TODO: transfer amount should be reduced by fees\r\n\r\n        //TODO: crunch to get logs, remove\r\n        uint256 currentBalance = _token.balanceOf(address(vault));\r\n        if (_amount > currentBalance) {\r\n            _amount = currentBalance;\r\n        }\r\n\r\n        require(\r\n            _token.balanceOf(address(vault)) >= _amount,\r\n            string(\r\n                abi.encodePacked(\r\n                    \"In vault not enough for transfer _amount: \",\r\n                    uint2str(_token.balanceOf(address(vault))),\r\n                    \" < \",\r\n                    uint2str(_amount)\r\n                )\r\n            )\r\n        );\r\n        vault.transfer(_token, msg.sender, _amount);\r\n\r\n        return _amount;\r\n    }\r\n\r\n    function balanceOnReward() external override onlyExchanger {\r\n        balanceOnInvest();\r\n    }\r\n\r\n    function balanceOnWithdraw(IERC20 _token, uint256 _amount) internal {\r\n        // 1. got action to balance\r\n        // try balancer.buildBalanceActions(_token, _amount) returns (\r\n        //     IActionBuilder.ExchangeAction[] memory actionOrder\r\n        // ) {\r\n        //     //TODO: remove\r\n        //     emit ConsoleLog(string(abi.encodePacked(uint2str(actionOrder.length), \" actions\")));\r\n\r\n        //     // 2. execute them\r\n        //     executeActions(actionOrder);\r\n        // } catch Error(string memory reason) {\r\n        //     // This may occur if there is an overflow with the two numbers and the `AddNumbers` contract explicitly fails with a `revert()`\r\n        //     emit ConsoleLog(reason);\r\n        //     revert(reason);\r\n        // } catch {\r\n        //     emit ConsoleLog(\"buildBalanceActions: No reason\");\r\n        //     revert(\"buildBalanceActions: No reason\");\r\n        // }\r\n\r\n        IActionBuilder.ExchangeAction[] memory actionOrder = balancer.buildBalanceActions(\r\n            _token,\r\n            _amount\r\n        );\r\n        //TODO: remove\r\n        emit ConsoleLog(string(abi.encodePacked(uint2str(actionOrder.length), \" actions\")));\r\n\r\n        // 2. execute them\r\n        executeActions(actionOrder);\r\n    }\r\n\r\n    function executeActions(IActionBuilder.ExchangeAction[] memory actionOrder) internal {\r\n        //TODO: remove\r\n        emit ConsoleLog(\r\n            string(abi.encodePacked(uint2str(actionOrder.length), \" actions to execute\"))\r\n        );\r\n\r\n        bool someActionExecuted = true;\r\n        while (someActionExecuted) {\r\n            someActionExecuted = false;\r\n            for (uint8 i = 0; i < actionOrder.length; i++) {\r\n                IActionBuilder.ExchangeAction memory action = actionOrder[i];\r\n                if (action.executed) {\r\n                    // Skip executed\r\n                    //TODO: remove\r\n                    emit ConsoleLog(\r\n                        string(\r\n                            abi.encodePacked(\r\n                                uint2str(i),\r\n                                \" Skip executed: \",\r\n                                uint2str(action.amount),\r\n                                \" from \",\r\n                                IERC20Metadata(address(action.from)).symbol(),\r\n                                \" to \",\r\n                                IERC20Metadata(address(action.to)).symbol()\r\n                            )\r\n                        )\r\n                    );\r\n                    continue;\r\n                }\r\n                uint256 amount = action.amount;\r\n                uint256 denormalizedAmount;\r\n                //TODO: denominator usage\r\n                uint256 denominator = 10**(18 - IERC20Metadata(address(action.from)).decimals());\r\n                if (action.exchangeAll) {\r\n                    denormalizedAmount = action.from.balanceOf(address(vault));\r\n                    // normalize denormalizedAmount to 10**18\r\n                    amount = denormalizedAmount * denominator;\r\n                } else {\r\n                    // denormalize amount from 10**18 to token decimals\r\n                    denormalizedAmount = amount / denominator;\r\n                }\r\n                if (amount == 0) {\r\n                    // Skip zero amount action\r\n                    //TODO: remove\r\n                    emit ConsoleLog(\r\n                        string(\r\n                            abi.encodePacked(\r\n                                uint2str(i),\r\n                                \" Skip zero amount action: \",\r\n                                uint2str(amount),\r\n                                \" from \",\r\n                                IERC20Metadata(address(action.from)).symbol(),\r\n                                \" to \",\r\n                                IERC20Metadata(address(action.to)).symbol()\r\n                            )\r\n                        )\r\n                    );\r\n                    continue;\r\n                }\r\n\r\n                if (action.from.balanceOf(address(vault)) < denormalizedAmount) {\r\n                    // Skip not enough blance for execute know\r\n                    //TODO: remove\r\n                    emit ConsoleLog(\r\n                        string(\r\n                            abi.encodePacked(\r\n                                uint2str(i),\r\n                                \" Skip not enough balance for execute know: \",\r\n                                uint2str(denormalizedAmount),\r\n                                \" from \",\r\n                                IERC20Metadata(address(action.from)).symbol(),\r\n                                \" to \",\r\n                                IERC20Metadata(address(action.to)).symbol(),\r\n                                \" current \",\r\n                                uint2str(action.from.balanceOf(address(vault)))\r\n                            )\r\n                        )\r\n                    );\r\n                    continue;\r\n                }\r\n\r\n                // move tokens to tokenExchange for executing action, amount - NOT normalized to 10**18\r\n                vault.transfer(action.from, address(action.tokenExchange), denormalizedAmount);\r\n                // execute exchange\r\n                try\r\n                    action.tokenExchange.exchange(\r\n                        address(vault),\r\n                        action.from,\r\n                        address(vault),\r\n                        action.to,\r\n                        amount\r\n                    )\r\n                {\r\n                    action.executed = true;\r\n                    //TODO: remove\r\n                    emit ConsoleLog(\r\n                        string(\r\n                            abi.encodePacked(\r\n                                uint2str(i),\r\n                                \" Exchange \",\r\n                                uint2str(amount),\r\n                                \" -> \",\r\n                                uint2str(denormalizedAmount),\r\n                                \" from \",\r\n                                IERC20Metadata(address(action.from)).symbol(),\r\n                                \" to \",\r\n                                IERC20Metadata(address(action.to)).symbol()\r\n                            )\r\n                        )\r\n                    );\r\n                } catch Error(string memory reason) {\r\n                    revert(\r\n                        string(\r\n                            abi.encodePacked(\r\n                                reason,\r\n                                \"\\n+ action.tokenExchange.exchange: \",\r\n                                uint2str(amount),\r\n                                \" from \",\r\n                                IERC20Metadata(address(action.from)).symbol(),\r\n                                \" to \",\r\n                                IERC20Metadata(address(action.to)).symbol()\r\n                            )\r\n                        )\r\n                    );\r\n                } catch {\r\n                    revert(\r\n                        string(\r\n                            abi.encodePacked(\r\n                                \"action.tokenExchange.exchange: No reason \",\r\n                                uint2str(amount),\r\n                                \" from \",\r\n                                IERC20Metadata(address(action.from)).symbol(),\r\n                                \" to \",\r\n                                IERC20Metadata(address(action.to)).symbol()\r\n                            )\r\n                        )\r\n                    );\r\n                }\r\n\r\n                // action.tokenExchange.exchange(\r\n                //     address(vault),\r\n                //     action.from,\r\n                //     address(vault),\r\n                //     action.to,\r\n                //     amount\r\n                // );\r\n                // action.executed = true;\r\n                //TODO: remove\r\n                emit ConsoleLog(\r\n                    string(\r\n                        abi.encodePacked(\r\n                            \"Exchange \",\r\n                            uint2str(amount),\r\n                            \" from \",\r\n                            IERC20Metadata(address(action.from)).symbol(),\r\n                            \" to \",\r\n                            IERC20Metadata(address(action.to)).symbol()\r\n                        )\r\n                    )\r\n                );\r\n                someActionExecuted = true;\r\n            }\r\n        }\r\n    }\r\n\r\n    /**\r\n     * Claim rewards from Curve gauge where we have staked LP tokens\r\n     */\r\n    function claimRewards() external override {\r\n        //TODO: add event if gauge emit nothing\r\n        rewardGauge.claim_rewards(address(vault));\r\n    }\r\n\r\n    //TODO: remove\r\n    function toAsciiString(address x) internal pure returns (string memory) {\r\n        bytes memory s = new bytes(40);\r\n        for (uint i = 0; i < 20; i++) {\r\n            bytes1 b = bytes1(uint8(uint(uint160(x)) / (2**(8 * (19 - i)))));\r\n            bytes1 hi = bytes1(uint8(b) / 16);\r\n            bytes1 lo = bytes1(uint8(b) - 16 * uint8(hi));\r\n            s[2 * i] = char(hi);\r\n            s[2 * i + 1] = char(lo);\r\n        }\r\n        return string(s);\r\n    }\r\n\r\n    //TODO: remove\r\n    function char(bytes1 b) internal pure returns (bytes1 c) {\r\n        if (uint8(b) < 10) return bytes1(uint8(b) + 0x30);\r\n        else return bytes1(uint8(b) + 0x57);\r\n    }\r\n\r\n    //TODO: remove\r\n    function uint2str(uint _i) internal pure returns (string memory _uintAsString) {\r\n        if (_i == 0) {\r\n            return \"0\";\r\n        }\r\n        uint j = _i;\r\n        uint len;\r\n        while (j != 0) {\r\n            len++;\r\n            j /= 10;\r\n        }\r\n        bytes memory bstr = new bytes(len);\r\n        uint k = len;\r\n        while (_i != 0) {\r\n            k = k - 1;\r\n            bstr[k] = bytes1(uint8(48 + (_i % 10)));\r\n            _i /= 10;\r\n        }\r\n        return string(bstr);\r\n    }\r\n}\r\n",
  "sourcePath": "C:\\work\\overnight\\ovngt-mvp\\contracts\\PortfolioManager.sol",
  "compiler": {
    "name": "solc",
    "version": "0.8.6+commit.11564f7e.Emscripten.clang"
  },
  "schemaVersion": "3.4.2",
  "updatedAt": "2021-10-20T11:29:38.851Z",
  "networkType": "ethereum",
  "devdoc": {
    "kind": "dev",
    "methods": {
      "getRoleAdmin(bytes32)": {
        "details": "Returns the admin role that controls `role`. See {grantRole} and {revokeRole}. To change a role's admin, use {_setRoleAdmin}."
      },
      "grantRole(bytes32,address)": {
        "details": "Grants `role` to `account`. If `account` had not been already granted `role`, emits a {RoleGranted} event. Requirements: - the caller must have ``role``'s admin role."
      },
      "hasRole(bytes32,address)": {
        "details": "Returns `true` if `account` has been granted `role`."
      },
      "renounceRole(bytes32,address)": {
        "details": "Revokes `role` from the calling account. Roles are often managed via {grantRole} and {revokeRole}: this function's purpose is to provide a mechanism for accounts to lose their privileges if they are compromised (such as when a trusted device is misplaced). If the calling account had been granted `role`, emits a {RoleRevoked} event. Requirements: - the caller must be `account`."
      },
      "revokeRole(bytes32,address)": {
        "details": "Revokes `role` from `account`. If `account` had been granted `role`, emits a {RoleRevoked} event. Requirements: - the caller must have ``role``'s admin role."
      },
      "supportsInterface(bytes4)": {
        "details": "See {IERC165-supportsInterface}."
      }
    },
    "version": 1
  },
  "userdoc": {
    "kind": "user",
    "methods": {
      "claimRewards()": {
        "notice": "Claim rewards from Curve gauge where we have staked LP tokens"
      }
    },
    "version": 1
  }
}