{
  "contractName": "Usdc2AUsdcTokenExchange",
  "abi": [
    {
      "inputs": [
        {
          "internalType": "address",
          "name": "_aaveConnector",
          "type": "address"
        },
        {
          "internalType": "address",
          "name": "_usdcToken",
          "type": "address"
        },
        {
          "internalType": "address",
          "name": "_aUsdcToken",
          "type": "address"
        }
      ],
      "stateMutability": "nonpayable",
      "type": "constructor"
    },
    {
      "inputs": [],
      "name": "aUsdcToken",
      "outputs": [
        {
          "internalType": "contract IERC20",
          "name": "",
          "type": "address"
        }
      ],
      "stateMutability": "view",
      "type": "function"
    },
    {
      "inputs": [],
      "name": "aaveConnector",
      "outputs": [
        {
          "internalType": "contract IConnector",
          "name": "",
          "type": "address"
        }
      ],
      "stateMutability": "view",
      "type": "function"
    },
    {
      "inputs": [],
      "name": "usdcToken",
      "outputs": [
        {
          "internalType": "contract IERC20",
          "name": "",
          "type": "address"
        }
      ],
      "stateMutability": "view",
      "type": "function"
    },
    {
      "inputs": [
        {
          "internalType": "address",
          "name": "spender",
          "type": "address"
        },
        {
          "internalType": "contract IERC20",
          "name": "from",
          "type": "address"
        },
        {
          "internalType": "address",
          "name": "receiver",
          "type": "address"
        },
        {
          "internalType": "contract IERC20",
          "name": "to",
          "type": "address"
        },
        {
          "internalType": "uint256",
          "name": "amount",
          "type": "uint256"
        }
      ],
      "name": "exchange",
      "outputs": [],
      "stateMutability": "nonpayable",
      "type": "function"
    }
  ],
  "bytecode": "0x60806040523480156200001157600080fd5b506040516200191a3803806200191a833981810160405281019062000037919062000272565b600073ffffffffffffffffffffffffffffffffffffffff168373ffffffffffffffffffffffffffffffffffffffff161415620000aa576040517f08c379a0000000000000000000000000000000000000000000000000000000008152600401620000a190620002f5565b60405180910390fd5b600073ffffffffffffffffffffffffffffffffffffffff168273ffffffffffffffffffffffffffffffffffffffff1614156200011d576040517f08c379a00000000000000000000000000000000000000000000000000000000081526004016200011490620002f5565b60405180910390fd5b600073ffffffffffffffffffffffffffffffffffffffff168173ffffffffffffffffffffffffffffffffffffffff16141562000190576040517f08c379a00000000000000000000000000000000000000000000000000000000081526004016200018790620002f5565b60405180910390fd5b826000806101000a81548173ffffffffffffffffffffffffffffffffffffffff021916908373ffffffffffffffffffffffffffffffffffffffff16021790555081600160006101000a81548173ffffffffffffffffffffffffffffffffffffffff021916908373ffffffffffffffffffffffffffffffffffffffff16021790555080600260006101000a81548173ffffffffffffffffffffffffffffffffffffffff021916908373ffffffffffffffffffffffffffffffffffffffff160217905550505050620003a4565b6000815190506200026c816200038a565b92915050565b6000806000606084860312156200028e576200028d6200035c565b5b60006200029e868287016200025b565b9350506020620002b1868287016200025b565b9250506040620002c4868287016200025b565b9150509250925092565b6000620002dd60188362000317565b9150620002ea8262000361565b602082019050919050565b600060208201905081810360008301526200031081620002ce565b9050919050565b600082825260208201905092915050565b600062000335826200033c565b9050919050565b600073ffffffffffffffffffffffffffffffffffffffff82169050919050565b600080fd5b7f5a65726f2061646472657373206e6f7420616c6c6f7765640000000000000000600082015250565b620003958162000328565b8114620003a157600080fd5b50565b61156680620003b46000396000f3fe608060405234801561001057600080fd5b506004361061004c5760003560e01c806311eac8551461005157806362ac75381461006f578063cc3d6cf71461008b578063dbaab3d1146100a9575b600080fd5b6100596100c7565b604051610066919061104f565b60405180910390f35b61008960048036038101906100849190610e12565b6100ed565b005b610093610d4a565b6040516100a0919061104f565b60405180910390f35b6100b1610d70565b6040516100be9190611034565b60405180910390f35b600160009054906101000a900473ffffffffffffffffffffffffffffffffffffffff1681565b600160009054906101000a900473ffffffffffffffffffffffffffffffffffffffff1673ffffffffffffffffffffffffffffffffffffffff168473ffffffffffffffffffffffffffffffffffffffff161480156101975750600260009054906101000a900473ffffffffffffffffffffffffffffffffffffffff1673ffffffffffffffffffffffffffffffffffffffff168273ffffffffffffffffffffffffffffffffffffffff16145b806102485750600260009054906101000a900473ffffffffffffffffffffffffffffffffffffffff1673ffffffffffffffffffffffffffffffffffffffff168473ffffffffffffffffffffffffffffffffffffffff161480156102475750600160009054906101000a900473ffffffffffffffffffffffffffffffffffffffff1673ffffffffffffffffffffffffffffffffffffffff168273ffffffffffffffffffffffffffffffffffffffff16145b5b610287576040517f08c379a000000000000000000000000000000000000000000000000000000000815260040161027e906110aa565b60405180910390fd5b60008114156103ab578373ffffffffffffffffffffffffffffffffffffffff1663a9059cbb868673ffffffffffffffffffffffffffffffffffffffff166370a08231306040518263ffffffff1660e01b81526004016102e69190610fb9565b60206040518083038186803b1580156102fe57600080fd5b505afa158015610312573d6000803e3d6000fd5b505050506040513d601f19601f820116820180604052508101906103369190610eba565b6040518363ffffffff1660e01b8152600401610353929190610fd4565b602060405180830381600087803b15801561036d57600080fd5b505af1158015610381573d6000803e3d6000fd5b505050506040513d601f19601f820116820180604052508101906103a59190610e8d565b50610d43565b600160009054906101000a900473ffffffffffffffffffffffffffffffffffffffff1673ffffffffffffffffffffffffffffffffffffffff168473ffffffffffffffffffffffffffffffffffffffff161480156104555750600260009054906101000a900473ffffffffffffffffffffffffffffffffffffffff1673ffffffffffffffffffffffffffffffffffffffff168273ffffffffffffffffffffffffffffffffffffffff16145b156108bd576000600160009054906101000a900473ffffffffffffffffffffffffffffffffffffffff1673ffffffffffffffffffffffffffffffffffffffff1663313ce5676040518163ffffffff1660e01b815260040160206040518083038186803b1580156104c457600080fd5b505afa1580156104d8573d6000803e3d6000fd5b505050506040513d601f19601f820116820180604052508101906104fc9190610ee7565b6012610508919061127d565b600a610514919061115f565b9050808261052291906110db565b915081600160009054906101000a900473ffffffffffffffffffffffffffffffffffffffff1673ffffffffffffffffffffffffffffffffffffffff166370a08231306040518263ffffffff1660e01b81526004016105809190610fb9565b60206040518083038186803b15801561059857600080fd5b505afa1580156105ac573d6000803e3d6000fd5b505050506040513d601f19601f820116820180604052508101906105d09190610eba565b1015610611576040517f08c379a00000000000000000000000000000000000000000000000000000000081526004016106089061108a565b60405180910390fd5b6000821415610736578473ffffffffffffffffffffffffffffffffffffffff1663a9059cbb878773ffffffffffffffffffffffffffffffffffffffff166370a08231306040518263ffffffff1660e01b81526004016106709190610fb9565b60206040518083038186803b15801561068857600080fd5b505afa15801561069c573d6000803e3d6000fd5b505050506040513d601f19601f820116820180604052508101906106c09190610eba565b6040518363ffffffff1660e01b81526004016106dd929190610fd4565b602060405180830381600087803b1580156106f757600080fd5b505af115801561070b573d6000803e3d6000fd5b505050506040513d601f19601f8201168201806040525081019061072f9190610e8d565b5050610d43565b600160009054906101000a900473ffffffffffffffffffffffffffffffffffffffff1673ffffffffffffffffffffffffffffffffffffffff1663a9059cbb60008054906101000a900473ffffffffffffffffffffffffffffffffffffffff16846040518363ffffffff1660e01b81526004016107b3929190610fd4565b602060405180830381600087803b1580156107cd57600080fd5b505af11580156107e1573d6000803e3d6000fd5b505050506040513d601f19601f820116820180604052508101906108059190610e8d565b5060008054906101000a900473ffffffffffffffffffffffffffffffffffffffff1673ffffffffffffffffffffffffffffffffffffffff1663294091cd600160009054906101000a900473ffffffffffffffffffffffffffffffffffffffff1684876040518463ffffffff1660e01b815260040161088593929190610ffd565b600060405180830381600087803b15801561089f57600080fd5b505af11580156108b3573d6000803e3d6000fd5b5050505050610d42565b6000600260009054906101000a900473ffffffffffffffffffffffffffffffffffffffff1673ffffffffffffffffffffffffffffffffffffffff1663313ce5676040518163ffffffff1660e01b815260040160206040518083038186803b15801561092757600080fd5b505afa15801561093b573d6000803e3d6000fd5b505050506040513d601f19601f8201168201806040525081019061095f9190610ee7565b601261096b919061127d565b600a610977919061115f565b9050808261098591906110db565b915081600260009054906101000a900473ffffffffffffffffffffffffffffffffffffffff1673ffffffffffffffffffffffffffffffffffffffff166370a08231306040518263ffffffff1660e01b81526004016109e39190610fb9565b60206040518083038186803b1580156109fb57600080fd5b505afa158015610a0f573d6000803e3d6000fd5b505050506040513d601f19601f82011682018060405250810190610a339190610eba565b1015610a74576040517f08c379a0000000000000000000000000000000000000000000000000000000008152600401610a6b9061106a565b60405180910390fd5b6000821415610b99578473ffffffffffffffffffffffffffffffffffffffff1663a9059cbb878773ffffffffffffffffffffffffffffffffffffffff166370a08231306040518263ffffffff1660e01b8152600401610ad39190610fb9565b60206040518083038186803b158015610aeb57600080fd5b505afa158015610aff573d6000803e3d6000fd5b505050506040513d601f19601f82011682018060405250810190610b239190610eba565b6040518363ffffffff1660e01b8152600401610b40929190610fd4565b602060405180830381600087803b158015610b5a57600080fd5b505af1158015610b6e573d6000803e3d6000fd5b505050506040513d601f19601f82011682018060405250810190610b929190610e8d565b5050610d43565b600260009054906101000a900473ffffffffffffffffffffffffffffffffffffffff1673ffffffffffffffffffffffffffffffffffffffff1663a9059cbb60008054906101000a900473ffffffffffffffffffffffffffffffffffffffff16846040518363ffffffff1660e01b8152600401610c16929190610fd4565b602060405180830381600087803b158015610c3057600080fd5b505af1158015610c44573d6000803e3d6000fd5b505050506040513d601f19601f82011682018060405250810190610c689190610e8d565b5060008060009054906101000a900473ffffffffffffffffffffffffffffffffffffffff1673ffffffffffffffffffffffffffffffffffffffff1663926e31d6600160009054906101000a900473ffffffffffffffffffffffffffffffffffffffff1685886040518463ffffffff1660e01b8152600401610ceb93929190610ffd565b602060405180830381600087803b158015610d0557600080fd5b505af1158015610d19573d6000803e3d6000fd5b505050506040513d601f19601f82011682018060405250810190610d3d9190610eba565b905050505b5b5050505050565b600260009054906101000a900473ffffffffffffffffffffffffffffffffffffffff1681565b60008054906101000a900473ffffffffffffffffffffffffffffffffffffffff1681565b600081359050610da3816114bd565b92915050565b600081519050610db8816114d4565b92915050565b600081359050610dcd816114eb565b92915050565b600081359050610de281611502565b92915050565b600081519050610df781611502565b92915050565b600081519050610e0c81611519565b92915050565b600080600080600060a08688031215610e2e57610e2d6113be565b5b6000610e3c88828901610d94565b9550506020610e4d88828901610dbe565b9450506040610e5e88828901610d94565b9350506060610e6f88828901610dbe565b9250506080610e8088828901610dd3565b9150509295509295909350565b600060208284031215610ea357610ea26113be565b5b6000610eb184828501610da9565b91505092915050565b600060208284031215610ed057610ecf6113be565b5b6000610ede84828501610de8565b91505092915050565b600060208284031215610efd57610efc6113be565b5b6000610f0b84828501610dfd565b91505092915050565b610f1d816112b1565b82525050565b610f2c81611318565b82525050565b610f3b8161133c565b82525050565b6000610f4e602e836110ca565b9150610f59826113d0565b604082019050919050565b6000610f71602d836110ca565b9150610f7c8261141f565b604082019050919050565b6000610f946032836110ca565b9150610f9f8261146e565b604082019050919050565b610fb381611301565b82525050565b6000602082019050610fce6000830184610f14565b92915050565b6000604082019050610fe96000830185610f14565b610ff66020830184610faa565b9392505050565b60006060820190506110126000830186610f14565b61101f6020830185610faa565b61102c6040830184610f14565b949350505050565b60006020820190506110496000830184610f23565b92915050565b60006020820190506110646000830184610f32565b92915050565b6000602082019050818103600083015261108381610f41565b9050919050565b600060208201905081810360008301526110a381610f64565b9050919050565b600060208201905081810360008301526110c381610f87565b9050919050565b600082825260208201905092915050565b60006110e682611301565b91506110f183611301565b9250826111015761110061138f565b5b828204905092915050565b6000808291508390505b60018511156111565780860481111561113257611131611360565b5b60018516156111415780820291505b808102905061114f856113c3565b9450611116565b94509492505050565b600061116a82611301565b91506111758361130b565b92506111a27fffffffffffffffffffffffffffffffffffffffffffffffffffffffffffffffff84846111aa565b905092915050565b6000826111ba5760019050611276565b816111c85760009050611276565b81600181146111de57600281146111e857611217565b6001915050611276565b60ff8411156111fa576111f9611360565b5b8360020a91508482111561121157611210611360565b5b50611276565b5060208310610133831016604e8410600b841016171561124c5782820a90508381111561124757611246611360565b5b611276565b611259848484600161110c565b925090508184048111156112705761126f611360565b5b81810290505b9392505050565b60006112888261130b565b91506112938361130b565b9250828210156112a6576112a5611360565b5b828203905092915050565b60006112bc826112e1565b9050919050565b60008115159050919050565b60006112da826112b1565b9050919050565b600073ffffffffffffffffffffffffffffffffffffffff82169050919050565b6000819050919050565b600060ff82169050919050565b60006113238261132a565b9050919050565b6000611335826112e1565b9050919050565b60006113478261134e565b9050919050565b6000611359826112e1565b9050919050565b7f4e487b7100000000000000000000000000000000000000000000000000000000600052601160045260246000fd5b7f4e487b7100000000000000000000000000000000000000000000000000000000600052601260045260246000fd5b600080fd5b60008160011c9050919050565b7f55736463324155736463546f6b656e45786368616e67653a204e6f7420656e6f60008201527f756768206155736463546f6b656e000000000000000000000000000000000000602082015250565b7f55736463324155736463546f6b656e45786368616e67653a204e6f7420656e6f60008201527f7567682075736463546f6b656e00000000000000000000000000000000000000602082015250565b7f55736463324155736463546f6b656e45786368616e67653a20536f6d6520746f60008201527f6b656e206e6f7420636f6d70617469626c650000000000000000000000000000602082015250565b6114c6816112b1565b81146114d157600080fd5b50565b6114dd816112c3565b81146114e857600080fd5b50565b6114f4816112cf565b81146114ff57600080fd5b50565b61150b81611301565b811461151657600080fd5b50565b6115228161130b565b811461152d57600080fd5b5056fea2646970667358221220e83d9624e0cac96686f6fc277778640ac9f74a7bc57ecf152371b1fda4a5264264736f6c63430008060033",
  "immutableReferences": {},
  "source": "// SPDX-License-Identifier: MIT\r\npragma solidity >=0.8.0 <0.9.0;\r\n\r\nimport \"@openzeppelin/contracts/token/ERC20/IERC20.sol\";\r\nimport \"@openzeppelin/contracts/token/ERC20/extensions/IERC20Metadata.sol\";\r\nimport \"../interfaces/ITokenExchange.sol\";\r\nimport \"../interfaces/IConnector.sol\";\r\n\r\ncontract Usdc2AUsdcTokenExchange is ITokenExchange {\r\n    IConnector public aaveConnector;\r\n    IERC20 public usdcToken;\r\n    IERC20 public aUsdcToken;\r\n\r\n    constructor(\r\n        address _aaveConnector,\r\n        address _usdcToken,\r\n        address _aUsdcToken\r\n    ) {\r\n        require(_aaveConnector != address(0), \"Zero address not allowed\");\r\n        require(_usdcToken != address(0), \"Zero address not allowed\");\r\n        require(_aUsdcToken != address(0), \"Zero address not allowed\");\r\n\r\n        aaveConnector = IConnector(_aaveConnector);\r\n        usdcToken = IERC20(_usdcToken);\r\n        aUsdcToken = IERC20(_aUsdcToken);\r\n    }\r\n\r\n    function exchange(\r\n        address spender,\r\n        IERC20 from,\r\n        address receiver,\r\n        IERC20 to,\r\n        uint256 amount\r\n    ) external override {\r\n        require(\r\n            (from == usdcToken && to == aUsdcToken) || (from == aUsdcToken && to == usdcToken),\r\n            \"Usdc2AUsdcTokenExchange: Some token not compatible\"\r\n        );\r\n\r\n        if (amount == 0) {\r\n            from.transfer(spender, from.balanceOf(address(this)));\r\n            return;\r\n        }\r\n\r\n        if (from == usdcToken && to == aUsdcToken) {\r\n            //TODO: denominator usage\r\n            uint256 denominator = 10**(18 - IERC20Metadata(address(usdcToken)).decimals());\r\n            amount = amount / denominator;\r\n\r\n            require(\r\n                usdcToken.balanceOf(address(this)) >= amount,\r\n                \"Usdc2AUsdcTokenExchange: Not enough usdcToken\"\r\n            );\r\n\r\n            // check after denormilization\r\n            if (amount == 0) {\r\n                from.transfer(spender, from.balanceOf(address(this)));\r\n                return;\r\n            }\r\n\r\n            usdcToken.transfer(address(aaveConnector), amount);\r\n            aaveConnector.stake(address(usdcToken), amount, receiver);\r\n        } else {\r\n            //TODO: denominator usage\r\n            uint256 denominator = 10**(18 - IERC20Metadata(address(aUsdcToken)).decimals());\r\n            amount = amount / denominator;\r\n\r\n            require(\r\n                aUsdcToken.balanceOf(address(this)) >= amount,\r\n                \"Usdc2AUsdcTokenExchange: Not enough aUsdcToken\"\r\n            );\r\n\r\n            // check after denormilization\r\n            if (amount == 0) {\r\n                from.transfer(spender, from.balanceOf(address(this)));\r\n                return;\r\n            }\r\n\r\n            aUsdcToken.transfer(address(aaveConnector), amount);\r\n            uint256 withdrewAmount = aaveConnector.unstake(address(usdcToken), amount, receiver);\r\n\r\n            //TODO: may be add some checks for withdrewAmount\r\n        }\r\n    }\r\n}\r\n",
  "sourcePath": "C:\\work\\overnight\\ovngt-mvp\\contracts\\token_exchanges\\Usdc2AUsdcTokenExchange.sol",
  "compiler": {
    "name": "solc",
    "version": "0.8.6+commit.11564f7e.Emscripten.clang"
  },
  "schemaVersion": "3.4.2",
  "updatedAt": "2021-10-20T11:25:52.843Z",
  "devdoc": {
    "kind": "dev",
    "methods": {},
    "version": 1
  },
  "userdoc": {
    "kind": "user",
    "methods": {},
    "version": 1
  }
}