{
  "address": "0xB16Af8666675cD039d56cb0645241d3a8C54DacE",
  "abi": [
    {
      "inputs": [],
      "stateMutability": "nonpayable",
      "type": "constructor"
    },
    {
      "anonymous": false,
      "inputs": [
        {
          "indexed": false,
          "internalType": "address",
          "name": "previousAdmin",
          "type": "address"
        },
        {
          "indexed": false,
          "internalType": "address",
          "name": "newAdmin",
          "type": "address"
        }
      ],
      "name": "AdminChanged",
      "type": "event"
    },
    {
      "anonymous": false,
      "inputs": [
        {
          "indexed": true,
          "internalType": "address",
          "name": "beacon",
          "type": "address"
        }
      ],
      "name": "BeaconUpgraded",
      "type": "event"
    },
    {
      "anonymous": false,
      "inputs": [
        {
          "indexed": false,
          "internalType": "address",
          "name": "value",
          "type": "address"
        }
      ],
      "name": "PortfolioManagerUpdated",
      "type": "event"
    },
    {
      "anonymous": false,
      "inputs": [
        {
          "indexed": false,
          "internalType": "uint256",
          "name": "amount",
          "type": "uint256"
        }
      ],
      "name": "Reward",
      "type": "event"
    },
    {
      "anonymous": false,
      "inputs": [
        {
          "indexed": true,
          "internalType": "bytes32",
          "name": "role",
          "type": "bytes32"
        },
        {
          "indexed": true,
          "internalType": "bytes32",
          "name": "previousAdminRole",
          "type": "bytes32"
        },
        {
          "indexed": true,
          "internalType": "bytes32",
          "name": "newAdminRole",
          "type": "bytes32"
        }
      ],
      "name": "RoleAdminChanged",
      "type": "event"
    },
    {
      "anonymous": false,
      "inputs": [
        {
          "indexed": true,
          "internalType": "bytes32",
          "name": "role",
          "type": "bytes32"
        },
        {
          "indexed": true,
          "internalType": "address",
          "name": "account",
          "type": "address"
        },
        {
          "indexed": true,
          "internalType": "address",
          "name": "sender",
          "type": "address"
        }
      ],
      "name": "RoleGranted",
      "type": "event"
    },
    {
      "anonymous": false,
      "inputs": [
        {
          "indexed": true,
          "internalType": "bytes32",
          "name": "role",
          "type": "bytes32"
        },
        {
          "indexed": true,
          "internalType": "address",
          "name": "account",
          "type": "address"
        },
        {
          "indexed": true,
          "internalType": "address",
          "name": "sender",
          "type": "address"
        }
      ],
      "name": "RoleRevoked",
      "type": "event"
    },
    {
      "anonymous": false,
      "inputs": [
        {
          "indexed": false,
          "internalType": "uint256",
          "name": "amount",
          "type": "uint256"
        }
      ],
      "name": "Stake",
      "type": "event"
    },
    {
      "anonymous": false,
      "inputs": [
        {
          "indexed": false,
          "internalType": "address",
          "name": "uniswapPositionManager",
          "type": "address"
        },
        {
          "indexed": false,
          "internalType": "address",
          "name": "uniswapV3Pool",
          "type": "address"
        },
        {
          "indexed": false,
          "internalType": "address",
          "name": "izumiBoost",
          "type": "address"
        },
        {
          "indexed": false,
          "internalType": "address",
          "name": "uniswapV3Router",
          "type": "address"
        },
        {
          "indexed": false,
          "internalType": "address",
          "name": "balancerVault",
          "type": "address"
        },
        {
          "indexed": false,
          "internalType": "bytes32",
          "name": "balancerPoolId",
          "type": "bytes32"
        },
        {
          "indexed": false,
          "internalType": "address",
          "name": "aavePool",
          "type": "address"
        }
      ],
      "name": "StrategyUpdatedParams",
      "type": "event"
    },
    {
      "anonymous": false,
      "inputs": [
        {
          "indexed": false,
          "internalType": "address",
          "name": "usdcToken",
          "type": "address"
        },
        {
          "indexed": false,
          "internalType": "address",
          "name": "usdtToken",
          "type": "address"
        },
        {
          "indexed": false,
          "internalType": "address",
          "name": "iziToken",
          "type": "address"
        },
        {
          "indexed": false,
          "internalType": "address",
          "name": "yinToken",
          "type": "address"
        },
        {
          "indexed": false,
          "internalType": "address",
          "name": "uniswapToken",
          "type": "address"
        },
        {
          "indexed": false,
          "internalType": "address",
          "name": "wethToken",
          "type": "address"
        }
      ],
      "name": "StrategyUpdatedTokens",
      "type": "event"
    },
    {
      "anonymous": false,
      "inputs": [
        {
          "indexed": false,
          "internalType": "uint256",
          "name": "amount",
          "type": "uint256"
        },
        {
          "indexed": false,
          "internalType": "uint256",
          "name": "amountReceived",
          "type": "uint256"
        }
      ],
      "name": "Unstake",
      "type": "event"
    },
    {
      "anonymous": false,
      "inputs": [
        {
          "indexed": true,
          "internalType": "address",
          "name": "implementation",
          "type": "address"
        }
      ],
      "name": "Upgraded",
      "type": "event"
    },
    {
      "inputs": [],
      "name": "DEFAULT_ADMIN_ROLE",
      "outputs": [
        {
          "internalType": "bytes32",
          "name": "",
          "type": "bytes32"
        }
      ],
      "stateMutability": "view",
      "type": "function"
    },
    {
      "inputs": [],
      "name": "MAX_VALUE",
      "outputs": [
        {
          "internalType": "int256",
          "name": "",
          "type": "int256"
        }
      ],
      "stateMutability": "view",
      "type": "function"
    },
    {
      "inputs": [],
      "name": "PORTFOLIO_MANAGER",
      "outputs": [
        {
          "internalType": "bytes32",
          "name": "",
          "type": "bytes32"
        }
      ],
      "stateMutability": "view",
      "type": "function"
    },
    {
      "inputs": [],
      "name": "UPGRADER_ROLE",
      "outputs": [
        {
          "internalType": "bytes32",
          "name": "",
          "type": "bytes32"
        }
      ],
      "stateMutability": "view",
      "type": "function"
    },
    {
      "inputs": [],
      "name": "aavePool",
      "outputs": [
        {
          "internalType": "contract IStableSwapPool",
          "name": "",
          "type": "address"
        }
      ],
      "stateMutability": "view",
      "type": "function"
    },
    {
      "inputs": [],
      "name": "balancerPoolId",
      "outputs": [
        {
          "internalType": "bytes32",
          "name": "",
          "type": "bytes32"
        }
      ],
      "stateMutability": "view",
      "type": "function"
    },
    {
      "inputs": [],
      "name": "balancerVault",
      "outputs": [
        {
          "internalType": "contract IVault",
          "name": "",
          "type": "address"
        }
      ],
      "stateMutability": "view",
      "type": "function"
    },
    {
      "inputs": [
        {
          "internalType": "address",
          "name": "_to",
          "type": "address"
        }
      ],
      "name": "claimRewards",
      "outputs": [
        {
          "internalType": "uint256",
          "name": "",
          "type": "uint256"
        }
      ],
      "stateMutability": "nonpayable",
      "type": "function"
    },
    {
      "inputs": [
        {
          "internalType": "bytes32",
          "name": "role",
          "type": "bytes32"
        }
      ],
      "name": "getRoleAdmin",
      "outputs": [
        {
          "internalType": "bytes32",
          "name": "",
          "type": "bytes32"
        }
      ],
      "stateMutability": "view",
      "type": "function"
    },
    {
      "inputs": [
        {
          "internalType": "bytes32",
          "name": "role",
          "type": "bytes32"
        },
        {
          "internalType": "address",
          "name": "account",
          "type": "address"
        }
      ],
      "name": "grantRole",
      "outputs": [],
      "stateMutability": "nonpayable",
      "type": "function"
    },
    {
      "inputs": [
        {
          "internalType": "bytes32",
          "name": "role",
          "type": "bytes32"
        },
        {
          "internalType": "address",
          "name": "account",
          "type": "address"
        }
      ],
      "name": "hasRole",
      "outputs": [
        {
          "internalType": "bool",
          "name": "",
          "type": "bool"
        }
      ],
      "stateMutability": "view",
      "type": "function"
    },
    {
      "inputs": [],
      "name": "initialize",
      "outputs": [],
      "stateMutability": "nonpayable",
      "type": "function"
    },
    {
      "inputs": [],
      "name": "iziToken",
      "outputs": [
        {
          "internalType": "contract IERC20",
          "name": "",
          "type": "address"
        }
      ],
      "stateMutability": "view",
      "type": "function"
    },
    {
      "inputs": [],
      "name": "iziTokenDenominator",
      "outputs": [
        {
          "internalType": "uint256",
          "name": "",
          "type": "uint256"
        }
      ],
      "stateMutability": "view",
      "type": "function"
    },
    {
      "inputs": [],
      "name": "izumiBoost",
      "outputs": [
        {
          "internalType": "contract IMiningFixRangeBoost",
          "name": "",
          "type": "address"
        }
      ],
      "stateMutability": "view",
      "type": "function"
    },
    {
      "inputs": [],
      "name": "liquidationValue",
      "outputs": [
        {
          "internalType": "uint256",
          "name": "",
          "type": "uint256"
        }
      ],
      "stateMutability": "view",
      "type": "function"
    },
    {
      "inputs": [],
      "name": "netAssetValue",
      "outputs": [
        {
          "internalType": "uint256",
          "name": "",
          "type": "uint256"
        }
      ],
      "stateMutability": "view",
      "type": "function"
    },
    {
      "inputs": [
        {
          "internalType": "address",
          "name": "",
          "type": "address"
        },
        {
          "internalType": "address",
          "name": "",
          "type": "address"
        },
        {
          "internalType": "uint256",
          "name": "",
          "type": "uint256"
        },
        {
          "internalType": "bytes",
          "name": "",
          "type": "bytes"
        }
      ],
      "name": "onERC721Received",
      "outputs": [
        {
          "internalType": "bytes4",
          "name": "",
          "type": "bytes4"
        }
      ],
      "stateMutability": "nonpayable",
      "type": "function"
    },
    {
      "inputs": [],
      "name": "portfolioManager",
      "outputs": [
        {
          "internalType": "address",
          "name": "",
          "type": "address"
        }
      ],
      "stateMutability": "view",
      "type": "function"
    },
    {
      "inputs": [],
      "name": "proxiableUUID",
      "outputs": [
        {
          "internalType": "bytes32",
          "name": "",
          "type": "bytes32"
        }
      ],
      "stateMutability": "view",
      "type": "function"
    },
    {
      "inputs": [
        {
          "internalType": "bytes32",
          "name": "role",
          "type": "bytes32"
        },
        {
          "internalType": "address",
          "name": "account",
          "type": "address"
        }
      ],
      "name": "renounceRole",
      "outputs": [],
      "stateMutability": "nonpayable",
      "type": "function"
    },
    {
      "inputs": [
        {
          "internalType": "bytes32",
          "name": "role",
          "type": "bytes32"
        },
        {
          "internalType": "address",
          "name": "account",
          "type": "address"
        }
      ],
      "name": "revokeRole",
      "outputs": [],
      "stateMutability": "nonpayable",
      "type": "function"
    },
    {
      "inputs": [
        {
          "internalType": "address",
          "name": "_uniswapPositionManager",
          "type": "address"
        },
        {
          "internalType": "address",
          "name": "_uniswapV3Pool",
          "type": "address"
        },
        {
          "internalType": "address",
          "name": "_izumiBoost",
          "type": "address"
        },
        {
          "internalType": "address",
          "name": "_uniswapV3Router",
          "type": "address"
        },
        {
          "internalType": "bytes32",
          "name": "_balancerPoolId",
          "type": "bytes32"
        },
        {
          "internalType": "address",
          "name": "_balancerVault",
          "type": "address"
        },
        {
          "internalType": "address",
          "name": "_aavePool",
          "type": "address"
        }
      ],
      "name": "setParams",
      "outputs": [],
      "stateMutability": "nonpayable",
      "type": "function"
    },
    {
      "inputs": [
        {
          "internalType": "address",
          "name": "_value",
          "type": "address"
        }
      ],
      "name": "setPortfolioManager",
      "outputs": [],
      "stateMutability": "nonpayable",
      "type": "function"
    },
    {
      "inputs": [
        {
          "internalType": "address",
          "name": "_usdcToken",
          "type": "address"
        },
        {
          "internalType": "address",
          "name": "_usdtToken",
          "type": "address"
        },
        {
          "internalType": "address",
          "name": "_iziToken",
          "type": "address"
        },
        {
          "internalType": "address",
          "name": "_yinToken",
          "type": "address"
        },
        {
          "internalType": "address",
          "name": "_uniswapToken",
          "type": "address"
        },
        {
          "internalType": "address",
          "name": "_wethToken",
          "type": "address"
        }
      ],
      "name": "setTokens",
      "outputs": [],
      "stateMutability": "nonpayable",
      "type": "function"
    },
    {
      "inputs": [
        {
          "internalType": "address",
          "name": "_asset",
          "type": "address"
        },
        {
          "internalType": "uint256",
          "name": "_amount",
          "type": "uint256"
        }
      ],
      "name": "stake",
      "outputs": [],
      "stateMutability": "nonpayable",
      "type": "function"
    },
    {
      "inputs": [
        {
          "internalType": "bytes4",
          "name": "interfaceId",
          "type": "bytes4"
        }
      ],
      "name": "supportsInterface",
      "outputs": [
        {
          "internalType": "bool",
          "name": "",
          "type": "bool"
        }
      ],
      "stateMutability": "view",
      "type": "function"
    },
    {
      "inputs": [],
      "name": "tokenId",
      "outputs": [
        {
          "internalType": "uint256",
          "name": "",
          "type": "uint256"
        }
      ],
      "stateMutability": "view",
      "type": "function"
    },
    {
      "inputs": [],
      "name": "uniswapPositionManager",
      "outputs": [
        {
          "internalType": "contract INonfungiblePositionManager",
          "name": "",
          "type": "address"
        }
      ],
      "stateMutability": "view",
      "type": "function"
    },
    {
      "inputs": [],
      "name": "uniswapToken",
      "outputs": [
        {
          "internalType": "contract IERC721",
          "name": "",
          "type": "address"
        }
      ],
      "stateMutability": "view",
      "type": "function"
    },
    {
      "inputs": [],
      "name": "uniswapV3Pool",
      "outputs": [
        {
          "internalType": "contract IUniswapV3Pool",
          "name": "",
          "type": "address"
        }
      ],
      "stateMutability": "view",
      "type": "function"
    },
    {
      "inputs": [],
      "name": "uniswapV3Router",
      "outputs": [
        {
          "internalType": "contract ISwapRouter",
          "name": "",
          "type": "address"
        }
      ],
      "stateMutability": "view",
      "type": "function"
    },
    {
      "inputs": [
        {
          "internalType": "address",
          "name": "_asset",
          "type": "address"
        },
        {
          "internalType": "uint256",
          "name": "_amount",
          "type": "uint256"
        },
        {
          "internalType": "address",
          "name": "_beneficiary",
          "type": "address"
        },
        {
          "internalType": "bool",
          "name": "_targetIsZero",
          "type": "bool"
        }
      ],
      "name": "unstake",
      "outputs": [
        {
          "internalType": "uint256",
          "name": "",
          "type": "uint256"
        }
      ],
      "stateMutability": "nonpayable",
      "type": "function"
    },
    {
      "inputs": [
        {
          "internalType": "address",
          "name": "newImplementation",
          "type": "address"
        }
      ],
      "name": "upgradeTo",
      "outputs": [],
      "stateMutability": "nonpayable",
      "type": "function"
    },
    {
      "inputs": [
        {
          "internalType": "address",
          "name": "newImplementation",
          "type": "address"
        },
        {
          "internalType": "bytes",
          "name": "data",
          "type": "bytes"
        }
      ],
      "name": "upgradeToAndCall",
      "outputs": [],
      "stateMutability": "payable",
      "type": "function"
    },
    {
      "inputs": [],
      "name": "usdcToken",
      "outputs": [
        {
          "internalType": "contract IERC20",
          "name": "",
          "type": "address"
        }
      ],
      "stateMutability": "view",
      "type": "function"
    },
    {
      "inputs": [],
      "name": "usdcTokenDenominator",
      "outputs": [
        {
          "internalType": "uint256",
          "name": "",
          "type": "uint256"
        }
      ],
      "stateMutability": "view",
      "type": "function"
    },
    {
      "inputs": [],
      "name": "usdtToken",
      "outputs": [
        {
          "internalType": "contract IERC20",
          "name": "",
          "type": "address"
        }
      ],
      "stateMutability": "view",
      "type": "function"
    },
    {
      "inputs": [],
      "name": "usdtTokenDenominator",
      "outputs": [
        {
          "internalType": "uint256",
          "name": "",
          "type": "uint256"
        }
      ],
      "stateMutability": "view",
      "type": "function"
    },
    {
      "inputs": [],
      "name": "wethToken",
      "outputs": [
        {
          "internalType": "contract IERC20",
          "name": "",
          "type": "address"
        }
      ],
      "stateMutability": "view",
      "type": "function"
    },
    {
      "inputs": [],
      "name": "yinToken",
      "outputs": [
        {
          "internalType": "contract IERC20",
          "name": "",
          "type": "address"
        }
      ],
      "stateMutability": "view",
      "type": "function"
    },
    {
      "inputs": [],
      "name": "yinTokenDenominator",
      "outputs": [
        {
          "internalType": "uint256",
          "name": "",
          "type": "uint256"
        }
      ],
      "stateMutability": "view",
      "type": "function"
    }
  ],
  "numDeployments": 2,
  "solcInputHash": "36f72814a937abaa79a8881823597dee",
  "bytecode": "0x60a06040523060601b6080523480156200001857600080fd5b50600054610100900460ff16620000365760005460ff161562000040565b62000040620000e5565b620000a85760405162461bcd60e51b815260206004820152602e60248201527f496e697469616c697a61626c653a20636f6e747261637420697320616c72656160448201526d191e481a5b9a5d1a585b1a5e995960921b606482015260840160405180910390fd5b600054610100900460ff16158015620000cb576000805461ffff19166101011790555b8015620000de576000805461ff00191690555b5062000112565b6000620000fd306200010360201b620015e71760201c565b15905090565b6001600160a01b03163b151590565b60805160601c61516f6200014d60003960008181610899015281816108d901528181610979015281816109b90152610a48015261516f6000f3fe6080604052600436106102515760003560e01c80637f049d7811610139578063b25ca7e9116100b6578063dbbb64b91161007a578063dbbb64b9146106cd578063e5047b30146106e4578063ef5cfb8c14610705578063f55ebd2a14610725578063f6f6b88114610746578063f72c0d8b1461076657600080fd5b8063b25ca7e91461063e578063b68f3a6f1461065e578063c2ad4c571461067f578063c3bc6ff114610696578063d547741f146106ad57600080fd5b8063a3673b38116100fd578063a3673b38146103ed578063a440b21a146105bd578063a7ab2e4d146105dd578063a98ad46c146105fd578063adc9772e1461061e57600080fd5b80637f049d78146105315780638129fc1c1461055257806391d1485414610567578063a03e4bc314610587578063a217fddf146105a857600080fd5b80632576e65a116101d25780634b57b0be116101965780634b57b0be146104855780634f1ef286146104a657806352d1902d146104b95780635eaf799e146104ce578063620b75df146104ef5780637d5f58021461050f57600080fd5b80632576e65a146103ed5780632c76d7a6146104025780632f2ff15d1461042357806336568abe146104455780633659cfe61461046557600080fd5b8063150b7a0211610219578063150b7a021461032a578063158274a51461036e57806317d70f7c1461038f57806318b2a3e3146103a6578063248a9ca3146103bd57600080fd5b806301ffc9a714610256578063063bde241461028b57806306da3f2e146102b957806309ca2756146102d057806311eac85514610309575b600080fd5b34801561026257600080fd5b5061027661027136600461479a565b61079a565b60405190151581526020015b60405180910390f35b34801561029757600080fd5b506102ab6b033b2e3c9fd0803ce800000081565b604051908152602001610282565b3480156102c557600080fd5b506102ab6101655481565b3480156102dc57600080fd5b50610161546102f1906001600160a01b031681565b6040516001600160a01b039091168152602001610282565b34801561031557600080fd5b5061015f546102f1906001600160a01b031681565b34801561033657600080fd5b506103556103453660046145e0565b630a85bd0160e11b949350505050565b6040516001600160e01b03199091168152602001610282565b34801561037a57600080fd5b5061016e546102f1906001600160a01b031681565b34801561039b57600080fd5b506102ab6101695481565b3480156103b257600080fd5b506102ab6101675481565b3480156103c957600080fd5b506102ab6103d8366004614738565b60009081526065602052604090206001015490565b3480156103f957600080fd5b506102ab6107d1565b34801561040e57600080fd5b5061016d546102f1906001600160a01b031681565b34801561042f57600080fd5b5061044361043e36600461476a565b6107e0565b005b34801561045157600080fd5b5061044361046036600461476a565b61080b565b34801561047157600080fd5b506104436104803660046144b4565b61088e565b34801561049157600080fd5b50610163546102f1906001600160a01b031681565b6104436104b436600461464c565b61096e565b3480156104c557600080fd5b506102ab610a3b565b3480156104da57600080fd5b5061016c546102f1906001600160a01b031681565b3480156104fb57600080fd5b5060fb546102f1906001600160a01b031681565b34801561051b57600080fd5b506102ab6000805160206150d383398151915281565b34801561053d57600080fd5b50610164546102f1906001600160a01b031681565b34801561055e57600080fd5b50610443610aee565b34801561057357600080fd5b5061027661058236600461476a565b610b67565b34801561059357600080fd5b50610170546102f1906001600160a01b031681565b3480156105b457600080fd5b506102ab600081565b3480156105c957600080fd5b506104436105d83660046144b4565b610b92565b3480156105e957600080fd5b506104436105f83660046144d1565b610c70565b34801561060957600080fd5b50610160546102f1906001600160a01b031681565b34801561062a57600080fd5b5061044361063936600461469c565b611053565b34801561064a57600080fd5b50610443610659366004614553565b61113c565b34801561066a57600080fd5b50610162546102f1906001600160a01b031681565b34801561068b57600080fd5b506102ab6101685481565b3480156106a257600080fd5b506102ab6101665481565b3480156106b957600080fd5b506104436106c836600461476a565b61133e565b3480156106d957600080fd5b506102ab61016f5481565b3480156106f057600080fd5b5061016a546102f1906001600160a01b031681565b34801561071157600080fd5b506102ab6107203660046144b4565b611364565b34801561073157600080fd5b5061016b546102f1906001600160a01b031681565b34801561075257600080fd5b506102ab6107613660046146c8565b6113e8565b34801561077257600080fd5b506102ab7f189ab7a9244df0848122154315af71fe140f3db0fe014031783b0946b8c9d2e381565b60006001600160e01b03198216637965db0b60e01b14806107cb57506301ffc9a760e01b6001600160e01b03198316145b92915050565b60006107db6115f6565b905090565b6000828152606560205260409020600101546107fc8133611910565b6108068383611974565b505050565b6001600160a01b03811633146108805760405162461bcd60e51b815260206004820152602f60248201527f416363657373436f6e74726f6c3a2063616e206f6e6c792072656e6f756e636560448201526e103937b632b9903337b91039b2b63360891b60648201526084015b60405180910390fd5b61088a82826119fa565b5050565b306001600160a01b037f00000000000000000000000000000000000000000000000000000000000000001614156108d75760405162461bcd60e51b815260040161087790614b27565b7f00000000000000000000000000000000000000000000000000000000000000006001600160a01b03166109206000805160206150f3833981519152546001600160a01b031690565b6001600160a01b0316146109465760405162461bcd60e51b815260040161087790614b73565b61094f81611a61565b6040805160008082526020820190925261096b91839190611a8c565b50565b306001600160a01b037f00000000000000000000000000000000000000000000000000000000000000001614156109b75760405162461bcd60e51b815260040161087790614b27565b7f00000000000000000000000000000000000000000000000000000000000000006001600160a01b0316610a006000805160206150f3833981519152546001600160a01b031690565b6001600160a01b031614610a265760405162461bcd60e51b815260040161087790614b73565b610a2f82611a61565b61088a82826001611a8c565b6000306001600160a01b037f00000000000000000000000000000000000000000000000000000000000000001614610adb5760405162461bcd60e51b815260206004820152603860248201527f555550535570677261646561626c653a206d757374206e6f742062652063616c60448201527f6c6564207468726f7567682064656c656761746563616c6c00000000000000006064820152608401610877565b506000805160206150f383398151915290565b600054610100900460ff16610b095760005460ff1615610b0d565b303b155b610b295760405162461bcd60e51b815260040161087790614bbf565b600054610100900460ff16158015610b4b576000805461ffff19166101011790555b610b53611c06565b801561096b576000805461ff001916905550565b60009182526065602090815260408084206001600160a01b0393909316845291905290205460ff1690565b610b9d600033610b67565b610bb95760405162461bcd60e51b815260040161087790614c0d565b6001600160a01b038116610bdf5760405162461bcd60e51b815260040161087790614c72565b60fb54610c04906000805160206150d3833981519152906001600160a01b031661133e565b610c1c6000805160206150d3833981519152826107e0565b60fb80546001600160a01b0319166001600160a01b0383169081179091556040519081527ff7b449fcd5cfb7379dcd34cb69428dd9f882033b15be33d83b42d91daa28eeb79060200160405180910390a150565b610c7b600033610b67565b610c975760405162461bcd60e51b815260040161087790614c0d565b6001600160a01b038616610cbd5760405162461bcd60e51b815260040161087790614c72565b6001600160a01b038516610ce35760405162461bcd60e51b815260040161087790614c72565b6001600160a01b038416610d095760405162461bcd60e51b815260040161087790614c72565b6001600160a01b038316610d2f5760405162461bcd60e51b815260040161087790614c72565b6001600160a01b038216610d555760405162461bcd60e51b815260040161087790614c72565b6001600160a01b038116610d7b5760405162461bcd60e51b815260040161087790614c72565b61015f80546001600160a01b03199081166001600160a01b038981169182179093556101608054831689851617905561016180548316888516179055610162805483168785161790556101638054831685851617905561016480549092169285169290921790556040805163313ce56760e01b8152905163313ce56791600480820192602092909190829003018186803b158015610e1857600080fd5b505afa158015610e2c573d6000803e3d6000fd5b505050506040513d601f19601f82011682018060405250810190610e50919061490b565b610e5b90600a614f0b565b61016581905550846001600160a01b031663313ce5676040518163ffffffff1660e01b815260040160206040518083038186803b158015610e9b57600080fd5b505afa158015610eaf573d6000803e3d6000fd5b505050506040513d601f19601f82011682018060405250810190610ed3919061490b565b610ede90600a614f0b565b61016681905550836001600160a01b031663313ce5676040518163ffffffff1660e01b815260040160206040518083038186803b158015610f1e57600080fd5b505afa158015610f32573d6000803e3d6000fd5b505050506040513d601f19601f82011682018060405250810190610f56919061490b565b610f6190600a614f0b565b61016781905550826001600160a01b031663313ce5676040518163ffffffff1660e01b815260040160206040518083038186803b158015610fa157600080fd5b505afa158015610fb5573d6000803e3d6000fd5b505050506040513d601f19601f82011682018060405250810190610fd9919061490b565b610fe490600a614f0b565b61016855604080516001600160a01b03888116825287811660208301528681168284015285811660608301528481166080830152831660a082015290517f9d3c471b8ee47fc409806103d4fa0551771a3dba8fd424594a079c8f8e195ca99181900360c00190a1505050505050565b61106b6000805160206150d383398151915233610b67565b6110875760405162461bcd60e51b815260040161087790614af0565b6040518181527f227a473b70d2f893cc7659219575c030a63b5743024fe1e0c1a680e708b1525a9060200160405180910390a16040516370a0823160e01b815230600482015261088a9083906001600160a01b038216906370a082319060240160206040518083038186803b1580156110ff57600080fd5b505afa158015611113573d6000803e3d6000fd5b505050506040513d601f19601f820116820180604052508101906111379190614751565b611ca8565b611147600033610b67565b6111635760405162461bcd60e51b815260040161087790614c0d565b6001600160a01b0387166111895760405162461bcd60e51b815260040161087790614c72565b6001600160a01b0386166111af5760405162461bcd60e51b815260040161087790614c72565b6001600160a01b0384166111d55760405162461bcd60e51b815260040161087790614c72565b6001600160a01b0385166111fb5760405162461bcd60e51b815260040161087790614c72565b826112185760405162461bcd60e51b815260040161087790614c72565b6001600160a01b03821661123e5760405162461bcd60e51b815260040161087790614c72565b6001600160a01b0381166112645760405162461bcd60e51b815260040161087790614c72565b61016a80546001600160a01b038981166001600160a01b0319928316811790935561016b80548a8316908416811790915561016c80548a8416908516811790915561016d80548a8516908616811790915561016f89905561016e805489861690871681179091556101708054958916959096168517909555604080519687526020870193909352918501526060840152608083019190915260a0820185905260c08201527f04039c5477ada8f90f0e6910ce6865d64ecca2955568bf5d049964465fa04fac9060e00160405180910390a150505050505050565b60008281526065602052604090206001015461135a8133611910565b61080683836119fa565b600061137e6000805160206150d383398151915233610b67565b61139a5760405162461bcd60e51b815260040161087790614af0565b60006113a583611cee565b90507f3ac0594a85a20354f9dc74f33728416d19ce00d04a406c108cc2dcf2cecea134816040516113d891815260200190565b60405180910390a190505b919050565b60006114026000805160206150d383398151915233610b67565b61141e5760405162461bcd60e51b815260040161087790614af0565b60008215611437576114308685611e75565b90506114a6565b6114428686866122ee565b9050848110156114a65760405162461bcd60e51b815260206004820152602960248201527f52657475726e65642076616c7565206c657373207468616e2072657175657374604482015268195908185b5bdd5b9d60ba1b6064820152608401610877565b6040516370a0823160e01b81523060048201526000906001600160a01b038816906370a082319060240160206040518083038186803b1580156114e857600080fd5b505afa1580156114fc573d6000803e3d6000fd5b505050506040513d601f19601f820116820180604052508101906115209190614751565b60405163a9059cbb60e01b81529091506001600160a01b0388169063a9059cbb906115519088908590600401614ac4565b602060405180830381600087803b15801561156b57600080fd5b505af115801561157f573d6000803e3d6000fd5b505050506040513d601f19601f820116820180604052508101906115a3919061471b565b5060408051878152602081018390527f9045c2ac9b2026de8075f2701bbdde882cd5e830b3b1ead9a15b22f2b5b93742910160405180910390a19695505050505050565b6001600160a01b03163b151590565b6000610169546000141561160a5750600090565b61016a546101695460405163133f757160e31b815260048101919091526000916001600160a01b0316906399fbab88906024016101806040518083038186803b15801561165657600080fd5b505afa15801561166a573d6000803e3d6000fd5b505050506040513d601f19601f8201168201806040525081019061168e9190614926565b50505050975050505050505050600061016b60009054906101000a90046001600160a01b03166001600160a01b0316633850c7bd6040518163ffffffff1660e01b815260040160e06040518083038186803b1580156116ec57600080fd5b505afa158015611700573d6000803e3d6000fd5b505050506040513d601f19601f820116820180604052508101906117249190614814565b5050505050509050600080611754836bffdf3de87261863e03afb3786c010020c649300be3bb0e87ea77876123b3565b61015f546040516370a0823160e01b815230600482015292945090925060009184916001600160a01b0316906370a082319060240160206040518083038186803b1580156117a157600080fd5b505afa1580156117b5573d6000803e3d6000fd5b505050506040513d601f19601f820116820180604052508101906117d99190614751565b6117e39190614e8e565b610160546040516370a0823160e01b815230600482015291925060009184916001600160a01b0316906370a082319060240160206040518083038186803b15801561182d57600080fd5b505afa158015611841573d6000803e3d6000fd5b505050506040513d601f19601f820116820180604052508101906118659190614751565b61186f9190614e8e565b610170546040516307211ef760e01b81526002600482015260016024820152604481018390529192506001600160a01b0316906307211ef79060640160206040518083038186803b1580156118c357600080fd5b505afa1580156118d7573d6000803e3d6000fd5b505050506040513d601f19601f820116820180604052508101906118fb9190614751565b6119059083614e8e565b965050505050505090565b61191a8282610b67565b61088a57611932816001600160a01b0316601461244f565b61193d83602061244f565b60405160200161194e929190614a4f565b60408051601f198184030181529082905262461bcd60e51b825261087791600401614add565b61197e8282610b67565b61088a5760008281526065602090815260408083206001600160a01b03851684529091529020805460ff191660011790556119b63390565b6001600160a01b0316816001600160a01b0316837f2f8788117e7eff1d82e926ec794901d17c78024a50270940304540a733656f0d60405160405180910390a45050565b611a048282610b67565b1561088a5760008281526065602090815260408083206001600160a01b0385168085529252808320805460ff1916905551339285917ff6391f5c32d9c69d2a47ea670b442974b53935d1edc7fd64eb21e047a839171b9190a45050565b7f189ab7a9244df0848122154315af71fe140f3db0fe014031783b0946b8c9d2e361088a8133611910565b7f4910fdfa16fed3260ed0e7147f7cc6da11a60208b5b9406d12a635614ffd91435460ff1615611abf57610806836125eb565b826001600160a01b03166352d1902d6040518163ffffffff1660e01b815260040160206040518083038186803b158015611af857600080fd5b505afa925050508015611b28575060408051601f3d908101601f19168201909252611b2591810190614751565b60015b611b8b5760405162461bcd60e51b815260206004820152602e60248201527f45524331393637557067726164653a206e657720696d706c656d656e7461746960448201526d6f6e206973206e6f74205555505360901b6064820152608401610877565b6000805160206150f38339815191528114611bfa5760405162461bcd60e51b815260206004820152602960248201527f45524331393637557067726164653a20756e737570706f727465642070726f786044820152681a58589b195555525160ba1b6064820152608401610877565b50610806838383612687565b600054610100900460ff16611c215760005460ff1615611c25565b303b155b611c415760405162461bcd60e51b815260040161087790614bbf565b600054610100900460ff16158015611c63576000805461ffff19166101011790555b611c6b6126b2565b611c736126b2565b611c7e600033611974565b610b537f189ab7a9244df0848122154315af71fe140f3db0fe014031783b0946b8c9d2e333611974565b61015f546001600160a01b03838116911614611cd65760405162461bcd60e51b815260040161087790614c3b565b61016954611ce65761088a61271f565b61088a612bea565b61016c5461016954604051635e9a83ed60e11b815260048101919091526000916001600160a01b03169063bd3507da90602401600060405180830381600087803b158015611d3b57600080fd5b505af1158015611d4f573d6000803e3d6000fd5b50505050611d5b612f0c565b611d6361315a565b611d6b61327c565b61015f546040516370a0823160e01b81523060048201526000916001600160a01b0316906370a082319060240160206040518083038186803b158015611db057600080fd5b505afa158015611dc4573d6000803e3d6000fd5b505050506040513d601f19601f82011682018060405250810190611de89190614751565b61015f5460405163a9059cbb60e01b81529192506001600160a01b03169063a9059cbb90611e1c9086908590600401614ac4565b602060405180830381600087803b158015611e3657600080fd5b505af1158015611e4a573d6000803e3d6000fd5b505050506040513d601f19601f82011682018060405250810190611e6e919061471b565b5092915050565b61015f546000906001600160a01b03848116911614611ea65760405162461bcd60e51b815260040161087790614c3b565b611eaf30611cee565b5061016954611f3b5761015f546040516370a0823160e01b81523060048201526001600160a01b03909116906370a082319060240160206040518083038186803b158015611efc57600080fd5b505afa158015611f10573d6000803e3d6000fd5b505050506040513d601f19601f82011682018060405250810190611f349190614751565b90506107cb565b61016c5461016954604051631c683a1b60e11b81526004810191909152600060248201526001600160a01b03909116906338d0743690604401600060405180830381600087803b158015611f8e57600080fd5b505af1158015611fa2573d6000803e3d6000fd5b50505050600061016b60009054906101000a90046001600160a01b03166001600160a01b0316633850c7bd6040518163ffffffff1660e01b815260040160e06040518083038186803b158015611ff757600080fd5b505afa15801561200b573d6000803e3d6000fd5b505050506040513d601f19601f8201168201806040525081019061202f9190614814565b505061016a546101695460405163133f757160e31b81529697506000966001600160a01b0390921695506399fbab8894506120739350915060040190815260200190565b6101806040518083038186803b15801561208c57600080fd5b505afa1580156120a0573d6000803e3d6000fd5b505050506040513d601f19601f820116820180604052508101906120c49190614926565b505050509750505050505050506000806120f9846bffdf3de87261863e03afb3786c010020c649300be3bb0e87ea77866123b3565b9150915060006040518060a00160405280610169548152602001856001600160801b0316815260200160648560636121319190614fb6565b61213b9190614ea6565b8152602001606461214d856063614fb6565b6121579190614ea6565b815260200161216842610258614e8e565b905261016a54604051630624e65f60e11b81529192506001600160a01b031690630c49ccbe9061219c908490600401614ca9565b6040805180830381600087803b1580156121b557600080fd5b505af11580156121c9573d6000803e3d6000fd5b505050506040513d601f19601f820116820180604052508101906121ed91906148e7565b50506121f761339e565b61016a5461016954604051630852cd8d60e31b81526001600160a01b03909216916342966c689161222e9160040190815260200190565b600060405180830381600087803b15801561224857600080fd5b505af115801561225c573d6000803e3d6000fd5b5050600061016955505061015f546040516370a0823160e01b81523060048201526001600160a01b03909116906370a082319060240160206040518083038186803b1580156122aa57600080fd5b505afa1580156122be573d6000803e3d6000fd5b505050506040513d601f19601f820116820180604052508101906122e29190614751565b955050505050506107cb565b61015f546000906001600160a01b0385811691161461231f5760405162461bcd60e51b815260040161087790614c3b565b61015f546040516370a0823160e01b815230600482015284916001600160a01b0316906370a082319060240160206040518083038186803b15801561236357600080fd5b505afa158015612377573d6000803e3d6000fd5b505050506040513d601f19601f8201168201806040525081019061239b9190614751565b116123a9576123a983613660565b50815b9392505050565b600080836001600160a01b0316856001600160a01b031611156123d4579293925b846001600160a01b0316866001600160a01b0316116123ff576123f885858561391b565b9150612446565b836001600160a01b0316866001600160a01b031610156124385761242486858561391b565b9150612431858785613996565b9050612446565b612443858585613996565b90505b94509492505050565b6060600061245e836002614fb6565b612469906002614e8e565b67ffffffffffffffff81111561248157612481615099565b6040519080825280601f01601f1916602001820160405280156124ab576020820181803683370190505b509050600360fc1b816000815181106124c6576124c6615083565b60200101906001600160f81b031916908160001a905350600f60fb1b816001815181106124f5576124f5615083565b60200101906001600160f81b031916908160001a9053506000612519846002614fb6565b612524906001614e8e565b90505b600181111561259c576f181899199a1a9b1b9c1cb0b131b232b360811b85600f166010811061255857612558615083565b1a60f81b82828151811061256e5761256e615083565b60200101906001600160f81b031916908160001a90535060049490941c9361259581615040565b9050612527565b5083156123ac5760405162461bcd60e51b815260206004820181905260248201527f537472696e67733a20686578206c656e67746820696e73756666696369656e746044820152606401610877565b6001600160a01b0381163b6126585760405162461bcd60e51b815260206004820152602d60248201527f455243313936373a206e657720696d706c656d656e746174696f6e206973206e60448201526c1bdd08184818dbdb9d1c9858dd609a1b6064820152608401610877565b6000805160206150f383398151915280546001600160a01b0319166001600160a01b0392909216919091179055565b612690836139e0565b60008251118061269d5750805b15610806576126ac8383613a20565b50505050565b600054610100900460ff1661271d5760405162461bcd60e51b815260206004820152602b60248201527f496e697469616c697a61626c653a20636f6e7472616374206973206e6f74206960448201526a6e697469616c697a696e6760a81b6064820152608401610877565b565b612727613b14565b61015f546040516370a0823160e01b81523060048201526000916001600160a01b0316906370a082319060240160206040518083038186803b15801561276c57600080fd5b505afa158015612780573d6000803e3d6000fd5b505050506040513d601f19601f820116820180604052508101906127a49190614751565b610160546040516370a0823160e01b81523060048201529192506000916001600160a01b03909116906370a082319060240160206040518083038186803b1580156127ee57600080fd5b505afa158015612802573d6000803e3d6000fd5b505050506040513d601f19601f820116820180604052508101906128269190614751565b60408051610160808201835261015f546001600160a01b0390811683529054811660208084019190915261016b54845163ddca3f4360e01b815285519697506000969495860194919093169263ddca3f43926004808301939192829003018186803b15801561289457600080fd5b505afa1580156128a8573d6000803e3d6000fd5b505050506040513d601f19601f820116820180604052508101906128cc9190614890565b62ffffff1681526009196020820152600a6040820152606081018590526080810184905260a001606461290086605f614fb6565b61290a9190614ea6565b8152602001606461291c85605f614fb6565b6129269190614ea6565b815230602082015260400161293d42610258614e8e565b905261015f5461016a5460405163095ea7b360e01b81529293506001600160a01b039182169263095ea7b3926129799216908790600401614ac4565b602060405180830381600087803b15801561299357600080fd5b505af11580156129a7573d6000803e3d6000fd5b505050506040513d601f19601f820116820180604052508101906129cb919061471b565b506101605461016a5460405163095ea7b360e01b81526001600160a01b039283169263095ea7b392612a04929116908690600401614ac4565b602060405180830381600087803b158015612a1e57600080fd5b505af1158015612a32573d6000803e3d6000fd5b505050506040513d601f19601f82011682018060405250810190612a56919061471b565b5061016a54604051634418b22b60e11b8152600091829182916001600160a01b031690638831645690612a8d908790600401614cec565b608060405180830381600087803b158015612aa757600080fd5b505af1158015612abb573d6000803e3d6000fd5b505050506040513d601f19601f82011682018060405250810190612adf91906148ab565b6101698490556101645461016c5460405163095ea7b360e01b81529598509296509094506001600160a01b039081169363095ea7b39350612b2892909116908790600401614ac4565b600060405180830381600087803b158015612b4257600080fd5b505af1158015612b56573d6000803e3d6000fd5b505061016c54604051631c57762b60e31b815260048101879052600060248201526001600160a01b03909116925063e2bbb15891506044015b602060405180830381600087803b158015612ba957600080fd5b505af1158015612bbd573d6000803e3d6000fd5b505050506040513d601f19601f82011682018060405250810190612be19190614751565b50505050505050565b612bf2613b14565b61015f546040516370a0823160e01b81523060048201526000916001600160a01b0316906370a082319060240160206040518083038186803b158015612c3757600080fd5b505afa158015612c4b573d6000803e3d6000fd5b505050506040513d601f19601f82011682018060405250810190612c6f9190614751565b610160546040516370a0823160e01b81523060048201529192506000916001600160a01b03909116906370a082319060240160206040518083038186803b158015612cb957600080fd5b505afa158015612ccd573d6000803e3d6000fd5b505050506040513d601f19601f82011682018060405250810190612cf19190614751565b905060006040518060c00160405280610169548152602001848152602001838152602001600081526020016000815260200142610258612d319190614e8e565b905261015f5461016a5460405163095ea7b360e01b81529293506001600160a01b039182169263095ea7b392612d6d9216908790600401614ac4565b602060405180830381600087803b158015612d8757600080fd5b505af1158015612d9b573d6000803e3d6000fd5b505050506040513d601f19601f82011682018060405250810190612dbf919061471b565b506101605461016a5460405163095ea7b360e01b81526001600160a01b039283169263095ea7b392612df8929116908690600401614ac4565b602060405180830381600087803b158015612e1257600080fd5b505af1158015612e26573d6000803e3d6000fd5b505050506040513d601f19601f82011682018060405250810190612e4a919061471b565b5061016a546040805163219f5d1760e01b81528351600482015260208401516024820152908301516044820152606083015160648201526080830151608482015260a083015160a4820152600091829182916001600160a01b03169063219f5d179060c401606060405180830381600087803b158015612ec957600080fd5b505af1158015612edd573d6000803e3d6000fd5b505050506040513d601f19601f82011682018060405250810190612f0191906147df565b505050505050505050565b610161546040516370a0823160e01b81523060048201526000916001600160a01b0316906370a082319060240160206040518083038186803b158015612f5157600080fd5b505afa158015612f65573d6000803e3d6000fd5b505050506040513d601f19601f82011682018060405250810190612f899190614751565b905080612f935750565b6040805161010081018252610161546001600160a01b03908116825261016354166020820152610bb89181019190915230606082015260009060808101612fdc42610258614e8e565b815260208101849052600060408083018290526060909201526101615461016d54915163095ea7b360e01b81529293506001600160a01b039081169263095ea7b39261302e9216908690600401614ac4565b602060405180830381600087803b15801561304857600080fd5b505af115801561305c573d6000803e3d6000fd5b505050506040513d601f19601f82011682018060405250810190613080919061471b565b5061016d546040805163414bf38960e01b815283516001600160a01b0390811660048301526020850151811660248301529184015162ffffff1660448201526060840151821660648201526080840151608482015260a084015160a482015260c084015160c482015260e0840151821660e4820152600092919091169063414bf38990610104015b602060405180830381600087803b15801561312257600080fd5b505af1158015613136573d6000803e3d6000fd5b505050506040513d601f19601f820116820180604052508101906126ac9190614751565b610162546040516370a0823160e01b81523060048201526000916001600160a01b0316906370a082319060240160206040518083038186803b15801561319f57600080fd5b505afa1580156131b3573d6000803e3d6000fd5b505050506040513d601f19601f820116820180604052508101906131d79190614751565b9050806131e15750565b6040805161010081018252610162546001600160a01b03908116825261016354166020820152610bb8918101919091523060608201526000906080810161322a42610258614e8e565b815260208101849052600060408083018290526060909201526101625461016d54915163095ea7b360e01b81529293506001600160a01b039081169263095ea7b39261302e9216908690600401614ac4565b610163546040516370a0823160e01b81523060048201526000916001600160a01b0316906370a082319060240160206040518083038186803b1580156132c157600080fd5b505afa1580156132d5573d6000803e3d6000fd5b505050506040513d601f19601f820116820180604052508101906132f99190614751565b9050806133035750565b6040805161010081018252610163546001600160a01b03908116825261015f541660208201526101f4918101919091523060608201526000906080810161334c42610258614e8e565b815260208101849052600060408083018290526060909201526101635461016d54915163095ea7b360e01b81529293506001600160a01b039081169263095ea7b39261302e9216908690600401614ac4565b6040805160808101825261016954815230602082019081526001600160801b038284018181526060840182815261016a54955163fc6f786560e01b81528551600482015293516001600160a01b0390811660248601529151831660448501525190911660648301529192919091169063fc6f7865906084016040805180830381600087803b15801561342f57600080fd5b505af1158015613443573d6000803e3d6000fd5b505050506040513d601f19601f8201168201806040525081019061346791906148e7565b5050610160546040516370a0823160e01b81523060048201526000916001600160a01b0316906370a082319060240160206040518083038186803b1580156134ae57600080fd5b505afa1580156134c2573d6000803e3d6000fd5b505050506040513d601f19601f820116820180604052508101906134e69190614751565b610160546101705460405163095ea7b360e01b81529293506001600160a01b039182169263095ea7b3926135209216908590600401614ac4565b602060405180830381600087803b15801561353a57600080fd5b505af115801561354e573d6000803e3d6000fd5b505050506040513d601f19601f82011682018060405250810190613572919061471b565b50610170546040516307211ef760e01b81526002600482015260016024820152604481018390526000916064916001600160a01b03909116906307211ef790830160206040518083038186803b1580156135cb57600080fd5b505afa1580156135df573d6000803e3d6000fd5b505050506040513d601f19601f820116820180604052508101906136039190614751565b61360e906063614fb6565b6136189190614ea6565b61017054604051635320bf6b60e11b8152600260048201526001602482015260448101859052606481018390529192506001600160a01b03169063a6417ed690608401613108565b61016c5461016954604051631c683a1b60e11b81526004810191909152600060248201526001600160a01b03909116906338d0743690604401600060405180830381600087803b1580156136b357600080fd5b505af11580156136c7573d6000803e3d6000fd5b5050505060006136d682613c5c565b905060006136e48284614ffd565b9050600061016b60009054906101000a90046001600160a01b03166001600160a01b0316633850c7bd6040518163ffffffff1660e01b815260040160e06040518083038186803b15801561373757600080fd5b505afa15801561374b573d6000803e3d6000fd5b505050506040513d601f19601f8201168201806040525081019061376f9190614814565b5050505050509050600061379f826bffdf3de87261863e03afb3786c010020c649300be3bb0e87ea778688613e1a565b905060006040518060a00160405280610169548152602001836001600160801b031681526020016000815260200160008152602001426102586137e29190614e8e565b905261016a54604051630624e65f60e11b81529192506001600160a01b031690630c49ccbe90613816908490600401614ca9565b6040805180830381600087803b15801561382f57600080fd5b505af1158015613843573d6000803e3d6000fd5b505050506040513d601f19601f8201168201806040525081019061386791906148e7565b505061387161339e565b6101645461016c546101695460405163095ea7b360e01b81526001600160a01b039384169363095ea7b3936138ab93911691600401614ac4565b600060405180830381600087803b1580156138c557600080fd5b505af11580156138d9573d6000803e3d6000fd5b505061016c5461016954604051631c57762b60e31b81526004810191909152600060248201526001600160a01b03909116925063e2bbb1589150604401612b8f565b6000826001600160a01b0316846001600160a01b0316111561393b579192915b6001600160a01b0384166139846fffffffffffffffffffffffffffffffff60601b606085901b1661396c8787614fd5565b6001600160a01b0316866001600160a01b0316613edc565b61398e9190614ea6565b949350505050565b6000826001600160a01b0316846001600160a01b031611156139b6579192915b61398e6001600160801b0383166139cd8686614fd5565b6001600160a01b0316600160601b613edc565b6139e9816125eb565b6040516001600160a01b038216907fbc7cd75a20ee27fd9adebab32041f755214dbc6bffa90cc0225b39da2e5c2d3b90600090a250565b60606001600160a01b0383163b613a885760405162461bcd60e51b815260206004820152602660248201527f416464726573733a2064656c65676174652063616c6c20746f206e6f6e2d636f6044820152651b9d1c9858dd60d21b6064820152608401610877565b600080846001600160a01b031684604051613aa39190614a33565b600060405180830381855af49150503d8060008114613ade576040519150601f19603f3d011682016040523d82523d6000602084013e613ae3565b606091505b5091509150613b0b828260405180606001604052806027815260200161511360279139614061565b95945050505050565b61015f546040516370a0823160e01b8152306004820152600091613b9c916001600160a01b03909116906370a082319060240160206040518083038186803b158015613b5f57600080fd5b505afa158015613b73573d6000803e3d6000fd5b505050506040513d601f19601f82011682018060405250810190613b979190614751565b613c5c565b610160546040516370a0823160e01b81523060048201529192506000916001600160a01b03909116906370a082319060240160206040518083038186803b158015613be657600080fd5b505afa158015613bfa573d6000803e3d6000fd5b505050506040513d601f19601f82011682018060405250810190613c1e9190614751565b905081811161088a57613c318183614ffd565b61016f5461015f5461016054929450610806926001916001600160a01b03908116911630808861409a565b60008061016b60009054906101000a90046001600160a01b03166001600160a01b0316633850c7bd6040518163ffffffff1660e01b815260040160e06040518083038186803b158015613cae57600080fd5b505afa158015613cc2573d6000803e3d6000fd5b505050506040513d601f19601f82011682018060405250810190613ce69190614814565b5050505050509050600080613d9c836bffdf3de87261863e03afb3786c010020c649300be3bb0e87ea7761016b60009054906101000a90046001600160a01b03166001600160a01b0316631a6865026040518163ffffffff1660e01b815260040160206040518083038186803b158015613d5f57600080fd5b505afa158015613d73573d6000803e3d6000fd5b505050506040513d601f19601f82011682018060405250810190613d9791906147c4565b6123b3565b91509150808210613e0557600081613dbc84670de0b6b3a7640000614fb6565b613dc69190614ea6565b9050856000613ddd83670de0b6b3a7640000614e8e565b613def83670de0b6b3a7640000614fb6565b613df99190614ea6565b98975050505050505050565b600081613dbc84670de0b6b3a7640000614fb6565b6000836001600160a01b0316856001600160a01b03161115613e3a579293925b846001600160a01b0316866001600160a01b031611613e6557613e5e858585614307565b9050613b0b565b836001600160a01b0316866001600160a01b03161015613ec7576000613e8c878686614307565b90506000613e9b878986614371565b9050806001600160801b0316826001600160801b031610613ebc5780613ebe565b815b92505050613b0b565b613ed2858584614371565b9695505050505050565b600080806000198587098587029250828110838203039150508060001415613f165760008411613f0b57600080fd5b5082900490506123ac565b808411613f2257600080fd5b600084868809808403938111909203919050600085613f4381600019614ffd565b613f4e906001614e8e565b16958690049593849004936000819003046001019050613f6e8184614fb6565b909317926000613f7f876003614fb6565b6002189050613f8e8188614fb6565b613f99906002614ffd565b613fa39082614fb6565b9050613faf8188614fb6565b613fba906002614ffd565b613fc49082614fb6565b9050613fd08188614fb6565b613fdb906002614ffd565b613fe59082614fb6565b9050613ff18188614fb6565b613ffc906002614ffd565b6140069082614fb6565b90506140128188614fb6565b61401d906002614ffd565b6140279082614fb6565b90506140338188614fb6565b61403e906002614ffd565b6140489082614fb6565b90506140548186614fb6565b9998505050505050505050565b606083156140705750816123ac565b8251156140805782518084602001fd5b8160405162461bcd60e51b81526004016108779190614add565b61016e546040516370a0823160e01b81523060048201526000916001600160a01b038881169263095ea7b392919091169083906370a082319060240160206040518083038186803b1580156140ee57600080fd5b505afa158015614102573d6000803e3d6000fd5b505050506040513d601f19601f820116820180604052508101906141269190614751565b6040518363ffffffff1660e01b8152600401614143929190614ac4565b602060405180830381600087803b15801561415d57600080fd5b505af1158015614171573d6000803e3d6000fd5b505050506040513d601f19601f82011682018060405250810190614195919061471b565b506141e26040805160c0810190915260008082526020820190815260200160006001600160a01b0316815260200160006001600160a01b0316815260200160008152602001606081525090565b888152602081018860018111156141fb576141fb61506d565b9081600181111561420e5761420e61506d565b9052506001600160a01b0387811660408381019190915287821660608085019190915260808085018790528251908101835260006020820181905291810182905288841681528784169281019290925261016e5491929091166352bbbe2984846b033b2e3c9fd0803ce800000061428742610258614e8e565b6040518563ffffffff1660e01b81526004016142a69493929190614db0565b602060405180830381600087803b1580156142c057600080fd5b505af11580156142d4573d6000803e3d6000fd5b505050506040513d601f19601f820116820180604052508101906142f89190614751565b9b9a5050505050505050505050565b6000826001600160a01b0316846001600160a01b03161115614327579192915b600061434a856001600160a01b0316856001600160a01b0316600160601b613edc565b9050613b0b61436c848361435e8989614fd5565b6001600160a01b0316613edc565b6143a7565b6000826001600160a01b0316846001600160a01b03161115614391579192915b61398e61436c83600160601b61435e8888614fd5565b806001600160801b03811681146113e357600080fd5b80516113e3816150af565b600082601f8301126143d957600080fd5b813567ffffffffffffffff808211156143f4576143f4615099565b604051601f8301601f19908116603f0116810190828211818310171561441c5761441c615099565b8160405283815286602085880101111561443557600080fd5b836020870160208301376000602085830101528094505050505092915050565b8051600281900b81146113e357600080fd5b80516001600160801b03811681146113e357600080fd5b805161ffff811681146113e357600080fd5b805162ffffff811681146113e357600080fd5b805160ff811681146113e357600080fd5b6000602082840312156144c657600080fd5b81356123ac816150af565b60008060008060008060c087890312156144ea57600080fd5b86356144f5816150af565b95506020870135614505816150af565b94506040870135614515816150af565b93506060870135614525816150af565b92506080870135614535816150af565b915060a0870135614545816150af565b809150509295509295509295565b600080600080600080600060e0888a03121561456e57600080fd5b8735614579816150af565b96506020880135614589816150af565b95506040880135614599816150af565b945060608801356145a9816150af565b93506080880135925060a08801356145c0816150af565b915060c08801356145d0816150af565b8091505092959891949750929550565b600080600080608085870312156145f657600080fd5b8435614601816150af565b93506020850135614611816150af565b925060408501359150606085013567ffffffffffffffff81111561463457600080fd5b614640878288016143c8565b91505092959194509250565b6000806040838503121561465f57600080fd5b823561466a816150af565b9150602083013567ffffffffffffffff81111561468657600080fd5b614692858286016143c8565b9150509250929050565b600080604083850312156146af57600080fd5b82356146ba816150af565b946020939093013593505050565b600080600080608085870312156146de57600080fd5b84356146e9816150af565b9350602085013592506040850135614700816150af565b91506060850135614710816150c4565b939692955090935050565b60006020828403121561472d57600080fd5b81516123ac816150c4565b60006020828403121561474a57600080fd5b5035919050565b60006020828403121561476357600080fd5b5051919050565b6000806040838503121561477d57600080fd5b82359150602083013561478f816150af565b809150509250929050565b6000602082840312156147ac57600080fd5b81356001600160e01b0319811681146123ac57600080fd5b6000602082840312156147d657600080fd5b6123ac82614467565b6000806000606084860312156147f457600080fd5b6147fd84614467565b925060208401519150604084015190509250925092565b600080600080600080600060e0888a03121561482f57600080fd5b875161483a816150af565b965061484860208901614455565b95506148566040890161447e565b94506148646060890161447e565b93506148726080890161447e565b925061488060a089016144a3565b915060c08801516145d0816150c4565b6000602082840312156148a257600080fd5b6123ac82614490565b600080600080608085870312156148c157600080fd5b845193506148d160208601614467565b6040860151606090960151949790965092505050565b600080604083850312156148fa57600080fd5b505080516020909101519092909150565b60006020828403121561491d57600080fd5b6123ac826144a3565b6000806000806000806000806000806000806101808d8f03121561494957600080fd5b8c516bffffffffffffffffffffffff8116811461496557600080fd5b9b5061497360208e016143bd565b9a5061498160408e016143bd565b995061498f60608e016143bd565b985061499d60808e01614490565b97506149ab60a08e01614455565b96506149b960c08e01614455565b95506149c760e08e01614467565b94506101008d015193506101208d015192506149e66101408e01614467565b91506149f56101608e01614467565b90509295989b509295989b509295989b565b60008151808452614a1f816020860160208601615014565b601f01601f19169290920160200192915050565b60008251614a45818460208701615014565b9190910192915050565b7f416363657373436f6e74726f6c3a206163636f756e7420000000000000000000815260008351614a87816017850160208801615014565b7001034b99036b4b9b9b4b733903937b6329607d1b6017918401918201528351614ab8816028840160208801615014565b01602801949350505050565b6001600160a01b03929092168252602082015260400190565b6020815260006123ac6020830184614a07565b6020808252601f908201527f5265737472696374656420746f20504f5254464f4c494f5f4d414e4147455200604082015260600190565b6020808252602c908201527f46756e6374696f6e206d7573742062652063616c6c6564207468726f7567682060408201526b19195b1959d85d1958d85b1b60a21b606082015260800190565b6020808252602c908201527f46756e6374696f6e206d7573742062652063616c6c6564207468726f7567682060408201526b6163746976652070726f787960a01b606082015260800190565b6020808252602e908201527f496e697469616c697a61626c653a20636f6e747261637420697320616c72656160408201526d191e481a5b9a5d1a585b1a5e995960921b606082015260800190565b6020808252601490820152735265737472696374656420746f2061646d696e7360601b604082015260600190565b60208082526019908201527f536f6d6520746f6b656e206e6f7420636f6d70617469626c6500000000000000604082015260600190565b60208082526018908201527f5a65726f2061646472657373206e6f7420616c6c6f7765640000000000000000604082015260600190565b600060a082019050825182526001600160801b03602084015116602083015260408301516040830152606083015160608301526080830151608083015292915050565b81516001600160a01b0316815261016081016020830151614d1860208401826001600160a01b03169052565b506040830151614d2f604084018262ffffff169052565b506060830151614d44606084018260020b9052565b506080830151614d59608084018260020b9052565b5060a083015160a083015260c083015160c083015260e083015160e083015261010080840151818401525061012080840151614d9f828501826001600160a01b03169052565b505061014092830151919092015290565b60e08152845160e08201526000602086015160028110614de057634e487b7160e01b600052602160045260246000fd5b61010083015260408601516001600160a01b03166101208301526060860151614e156101408401826001600160a01b03169052565b50608086015161016083015260a086015160c0610180840152614e3c6101a0840182614a07565b915050614e7c602083018680516001600160a01b039081168352602080830151151590840152604080830151909116908301526060908101511515910152565b60a082019390935260c0015292915050565b60008219821115614ea157614ea1615057565b500190565b600082614ec357634e487b7160e01b600052601260045260246000fd5b500490565b600181815b80851115614f03578160001904821115614ee957614ee9615057565b80851615614ef657918102915b93841c9390800290614ecd565b509250929050565b60006123ac60ff841683600082614f24575060016107cb565b81614f31575060006107cb565b8160018114614f475760028114614f5157614f6d565b60019150506107cb565b60ff841115614f6257614f62615057565b50506001821b6107cb565b5060208310610133831016604e8410600b8410161715614f90575081810a6107cb565b614f9a8383614ec8565b8060001904821115614fae57614fae615057565b029392505050565b6000816000190483118215151615614fd057614fd0615057565b500290565b60006001600160a01b0383811690831681811015614ff557614ff5615057565b039392505050565b60008282101561500f5761500f615057565b500390565b60005b8381101561502f578181015183820152602001615017565b838111156126ac5750506000910152565b60008161504f5761504f615057565b506000190190565b634e487b7160e01b600052601160045260246000fd5b634e487b7160e01b600052602160045260246000fd5b634e487b7160e01b600052603260045260246000fd5b634e487b7160e01b600052604160045260246000fd5b6001600160a01b038116811461096b57600080fd5b801515811461096b57600080fdfe90c2aa7471c04182221f68e80c07ab1e5946e4c63f8693e14ca40385d529f051360894a13ba1a3210667c828492db98dca3e2076cc3735a920a3ca505d382bbc416464726573733a206c6f772d6c6576656c2064656c65676174652063616c6c206661696c6564a2646970667358221220f95b082f98233ee83ed0ec5bf4bc797d353ce513057d795f03ffa53a8cee5d3964736f6c63430008060033",
  "devdoc": {
    "kind": "dev",
    "methods": {
      "constructor": {
        "custom:oz-upgrades-unsafe-allow": "constructor"
      },
      "getRoleAdmin(bytes32)": {
        "details": "Returns the admin role that controls `role`. See {grantRole} and {revokeRole}. To change a role's admin, use {_setRoleAdmin}."
      },
      "grantRole(bytes32,address)": {
        "details": "Grants `role` to `account`. If `account` had not been already granted `role`, emits a {RoleGranted} event. Requirements: - the caller must have ``role``'s admin role."
      },
      "hasRole(bytes32,address)": {
        "details": "Returns `true` if `account` has been granted `role`."
      },
      "proxiableUUID()": {
        "details": "Implementation of the ERC1822 {proxiableUUID} function. This returns the storage slot used by the implementation. It is used to validate that the this implementation remains valid after an upgrade. IMPORTANT: A proxy pointing at a proxiable contract should not be considered proxiable itself, because this risks bricking a proxy that upgrades to it, by delegating to itself until out of gas. Thus it is critical that this function revert if invoked through a proxy. This is guaranteed by the `notDelegated` modifier."
      },
      "renounceRole(bytes32,address)": {
        "details": "Revokes `role` from the calling account. Roles are often managed via {grantRole} and {revokeRole}: this function's purpose is to provide a mechanism for accounts to lose their privileges if they are compromised (such as when a trusted device is misplaced). If the calling account had been revoked `role`, emits a {RoleRevoked} event. Requirements: - the caller must be `account`."
      },
      "revokeRole(bytes32,address)": {
        "details": "Revokes `role` from `account`. If `account` had been granted `role`, emits a {RoleRevoked} event. Requirements: - the caller must have ``role``'s admin role."
      },
      "supportsInterface(bytes4)": {
        "details": "See {IERC165-supportsInterface}."
      },
      "upgradeTo(address)": {
        "details": "Upgrade the implementation of the proxy to `newImplementation`. Calls {_authorizeUpgrade}. Emits an {Upgraded} event."
      },
      "upgradeToAndCall(address,bytes)": {
        "details": "Upgrade the implementation of the proxy to `newImplementation`, and subsequently execute the function call encoded in `data`. Calls {_authorizeUpgrade}. Emits an {Upgraded} event."
      }
    },
    "version": 1
  },
  "userdoc": {
    "kind": "user",
    "methods": {
      "onERC721Received(address,address,uint256,bytes)": {
        "notice": "Used for ERC721 safeTransferFrom"
      }
    },
    "version": 1
  },
  "storageLayout": {
    "storage": [
      {
        "astId": 797,
        "contract": "contracts/StrategyIzumi.sol:StrategyIzumi",
        "label": "_initialized",
        "offset": 0,
        "slot": "0",
        "type": "t_bool"
      },
      {
        "astId": 800,
        "contract": "contracts/StrategyIzumi.sol:StrategyIzumi",
        "label": "_initializing",
        "offset": 1,
        "slot": "0",
        "type": "t_bool"
      },
      {
        "astId": 1284,
        "contract": "contracts/StrategyIzumi.sol:StrategyIzumi",
        "label": "__gap",
        "offset": 0,
        "slot": "1",
        "type": "t_array(t_uint256)50_storage"
      },
      {
        "astId": 1591,
        "contract": "contracts/StrategyIzumi.sol:StrategyIzumi",
        "label": "__gap",
        "offset": 0,
        "slot": "51",
        "type": "t_array(t_uint256)50_storage"
      },
      {
        "astId": 39,
        "contract": "contracts/StrategyIzumi.sol:StrategyIzumi",
        "label": "_roles",
        "offset": 0,
        "slot": "101",
        "type": "t_mapping(t_bytes32,t_struct(RoleData)34_storage)"
      },
      {
        "astId": 327,
        "contract": "contracts/StrategyIzumi.sol:StrategyIzumi",
        "label": "__gap",
        "offset": 0,
        "slot": "102",
        "type": "t_array(t_uint256)49_storage"
      },
      {
        "astId": 779,
        "contract": "contracts/StrategyIzumi.sol:StrategyIzumi",
        "label": "__gap",
        "offset": 0,
        "slot": "151",
        "type": "t_array(t_uint256)50_storage"
      },
      {
        "astId": 999,
        "contract": "contracts/StrategyIzumi.sol:StrategyIzumi",
        "label": "__gap",
        "offset": 0,
        "slot": "201",
        "type": "t_array(t_uint256)50_storage"
      },
      {
        "astId": 18601,
        "contract": "contracts/StrategyIzumi.sol:StrategyIzumi",
        "label": "portfolioManager",
        "offset": 0,
        "slot": "251",
        "type": "t_address"
      },
      {
        "astId": 18879,
        "contract": "contracts/StrategyIzumi.sol:StrategyIzumi",
        "label": "__gap",
        "offset": 0,
        "slot": "252",
        "type": "t_array(t_uint256)49_storage"
      },
      {
        "astId": 19950,
        "contract": "contracts/StrategyIzumi.sol:StrategyIzumi",
        "label": "uniswapRouter",
        "offset": 0,
        "slot": "301",
        "type": "t_contract(IUniswapV2Router02)17048"
      },
      {
        "astId": 20086,
        "contract": "contracts/StrategyIzumi.sol:StrategyIzumi",
        "label": "__gap",
        "offset": 0,
        "slot": "302",
        "type": "t_array(t_uint256)49_storage"
      },
      {
        "astId": 9020,
        "contract": "contracts/StrategyIzumi.sol:StrategyIzumi",
        "label": "usdcToken",
        "offset": 0,
        "slot": "351",
        "type": "t_contract(IERC20)1744"
      },
      {
        "astId": 9023,
        "contract": "contracts/StrategyIzumi.sol:StrategyIzumi",
        "label": "usdtToken",
        "offset": 0,
        "slot": "352",
        "type": "t_contract(IERC20)1744"
      },
      {
        "astId": 9026,
        "contract": "contracts/StrategyIzumi.sol:StrategyIzumi",
        "label": "iziToken",
        "offset": 0,
        "slot": "353",
        "type": "t_contract(IERC20)1744"
      },
      {
        "astId": 9029,
        "contract": "contracts/StrategyIzumi.sol:StrategyIzumi",
        "label": "yinToken",
        "offset": 0,
        "slot": "354",
        "type": "t_contract(IERC20)1744"
      },
      {
        "astId": 9032,
        "contract": "contracts/StrategyIzumi.sol:StrategyIzumi",
        "label": "wethToken",
        "offset": 0,
        "slot": "355",
        "type": "t_contract(IERC20)1744"
      },
      {
        "astId": 9035,
        "contract": "contracts/StrategyIzumi.sol:StrategyIzumi",
        "label": "uniswapToken",
        "offset": 0,
        "slot": "356",
        "type": "t_contract(IERC721)2109"
      },
      {
        "astId": 9037,
        "contract": "contracts/StrategyIzumi.sol:StrategyIzumi",
        "label": "usdcTokenDenominator",
        "offset": 0,
        "slot": "357",
        "type": "t_uint256"
      },
      {
        "astId": 9039,
        "contract": "contracts/StrategyIzumi.sol:StrategyIzumi",
        "label": "usdtTokenDenominator",
        "offset": 0,
        "slot": "358",
        "type": "t_uint256"
      },
      {
        "astId": 9041,
        "contract": "contracts/StrategyIzumi.sol:StrategyIzumi",
        "label": "iziTokenDenominator",
        "offset": 0,
        "slot": "359",
        "type": "t_uint256"
      },
      {
        "astId": 9043,
        "contract": "contracts/StrategyIzumi.sol:StrategyIzumi",
        "label": "yinTokenDenominator",
        "offset": 0,
        "slot": "360",
        "type": "t_uint256"
      },
      {
        "astId": 9045,
        "contract": "contracts/StrategyIzumi.sol:StrategyIzumi",
        "label": "tokenId",
        "offset": 0,
        "slot": "361",
        "type": "t_uint256"
      },
      {
        "astId": 9048,
        "contract": "contracts/StrategyIzumi.sol:StrategyIzumi",
        "label": "uniswapPositionManager",
        "offset": 0,
        "slot": "362",
        "type": "t_contract(INonfungiblePositionManager)17226"
      },
      {
        "astId": 9051,
        "contract": "contracts/StrategyIzumi.sol:StrategyIzumi",
        "label": "uniswapV3Pool",
        "offset": 0,
        "slot": "363",
        "type": "t_contract(IUniswapV3Pool)17469"
      },
      {
        "astId": 9054,
        "contract": "contracts/StrategyIzumi.sol:StrategyIzumi",
        "label": "izumiBoost",
        "offset": 0,
        "slot": "364",
        "type": "t_contract(IMiningFixRangeBoost)15822"
      },
      {
        "astId": 9057,
        "contract": "contracts/StrategyIzumi.sol:StrategyIzumi",
        "label": "uniswapV3Router",
        "offset": 0,
        "slot": "365",
        "type": "t_contract(ISwapRouter)17326"
      },
      {
        "astId": 9060,
        "contract": "contracts/StrategyIzumi.sol:StrategyIzumi",
        "label": "balancerVault",
        "offset": 0,
        "slot": "366",
        "type": "t_contract(IVault)14909"
      },
      {
        "astId": 9062,
        "contract": "contracts/StrategyIzumi.sol:StrategyIzumi",
        "label": "balancerPoolId",
        "offset": 0,
        "slot": "367",
        "type": "t_bytes32"
      },
      {
        "astId": 9065,
        "contract": "contracts/StrategyIzumi.sol:StrategyIzumi",
        "label": "aavePool",
        "offset": 0,
        "slot": "368",
        "type": "t_contract(IStableSwapPool)15184"
      }
    ],
    "types": {
      "t_address": {
        "encoding": "inplace",
        "label": "address",
        "numberOfBytes": "20"
      },
      "t_array(t_uint256)49_storage": {
        "base": "t_uint256",
        "encoding": "inplace",
        "label": "uint256[49]",
        "numberOfBytes": "1568"
      },
      "t_array(t_uint256)50_storage": {
        "base": "t_uint256",
        "encoding": "inplace",
        "label": "uint256[50]",
        "numberOfBytes": "1600"
      },
      "t_bool": {
        "encoding": "inplace",
        "label": "bool",
        "numberOfBytes": "1"
      },
      "t_bytes32": {
        "encoding": "inplace",
        "label": "bytes32",
        "numberOfBytes": "32"
      },
      "t_contract(IERC20)1744": {
        "encoding": "inplace",
        "label": "contract IERC20",
        "numberOfBytes": "20"
      },
      "t_contract(IERC721)2109": {
        "encoding": "inplace",
        "label": "contract IERC721",
        "numberOfBytes": "20"
      },
      "t_contract(IMiningFixRangeBoost)15822": {
        "encoding": "inplace",
        "label": "contract IMiningFixRangeBoost",
        "numberOfBytes": "20"
      },
      "t_contract(INonfungiblePositionManager)17226": {
        "encoding": "inplace",
        "label": "contract INonfungiblePositionManager",
        "numberOfBytes": "20"
      },
      "t_contract(IStableSwapPool)15184": {
        "encoding": "inplace",
        "label": "contract IStableSwapPool",
        "numberOfBytes": "20"
      },
      "t_contract(ISwapRouter)17326": {
        "encoding": "inplace",
        "label": "contract ISwapRouter",
        "numberOfBytes": "20"
      },
      "t_contract(IUniswapV2Router02)17048": {
        "encoding": "inplace",
        "label": "contract IUniswapV2Router02",
        "numberOfBytes": "20"
      },
      "t_contract(IUniswapV3Pool)17469": {
        "encoding": "inplace",
        "label": "contract IUniswapV3Pool",
        "numberOfBytes": "20"
      },
      "t_contract(IVault)14909": {
        "encoding": "inplace",
        "label": "contract IVault",
        "numberOfBytes": "20"
      },
      "t_mapping(t_address,t_bool)": {
        "encoding": "mapping",
        "key": "t_address",
        "label": "mapping(address => bool)",
        "numberOfBytes": "32",
        "value": "t_bool"
      },
      "t_mapping(t_bytes32,t_struct(RoleData)34_storage)": {
        "encoding": "mapping",
        "key": "t_bytes32",
        "label": "mapping(bytes32 => struct AccessControlUpgradeable.RoleData)",
        "numberOfBytes": "32",
        "value": "t_struct(RoleData)34_storage"
      },
      "t_struct(RoleData)34_storage": {
        "encoding": "inplace",
        "label": "struct AccessControlUpgradeable.RoleData",
        "members": [
          {
            "astId": 31,
            "contract": "contracts/StrategyIzumi.sol:StrategyIzumi",
            "label": "members",
            "offset": 0,
            "slot": "0",
            "type": "t_mapping(t_address,t_bool)"
          },
          {
            "astId": 33,
            "contract": "contracts/StrategyIzumi.sol:StrategyIzumi",
            "label": "adminRole",
            "offset": 0,
            "slot": "1",
            "type": "t_bytes32"
          }
        ],
        "numberOfBytes": "64"
      },
      "t_uint256": {
        "encoding": "inplace",
        "label": "uint256",
        "numberOfBytes": "32"
      }
    }
  }
}