{
  "address": "0x6343F143708Cc3d2130f94a4dd90fC4cD9440393",
  "abi": [
    {
      "inputs": [],
      "stateMutability": "nonpayable",
      "type": "constructor"
    },
    {
      "anonymous": false,
      "inputs": [
        {
          "indexed": false,
          "internalType": "address",
          "name": "previousAdmin",
          "type": "address"
        },
        {
          "indexed": false,
          "internalType": "address",
          "name": "newAdmin",
          "type": "address"
        }
      ],
      "name": "AdminChanged",
      "type": "event"
    },
    {
      "anonymous": false,
      "inputs": [
        {
          "indexed": false,
          "internalType": "uint256",
          "name": "healthFactor",
          "type": "uint256"
        }
      ],
      "name": "BalanceHealthFactor",
      "type": "event"
    },
    {
      "anonymous": false,
      "inputs": [
        {
          "indexed": true,
          "internalType": "address",
          "name": "beacon",
          "type": "address"
        }
      ],
      "name": "BeaconUpgraded",
      "type": "event"
    },
    {
      "anonymous": false,
      "inputs": [
        {
          "indexed": false,
          "internalType": "uint8",
          "name": "version",
          "type": "uint8"
        }
      ],
      "name": "Initialized",
      "type": "event"
    },
    {
      "anonymous": false,
      "inputs": [
        {
          "indexed": false,
          "internalType": "address",
          "name": "value",
          "type": "address"
        }
      ],
      "name": "PortfolioManagerUpdated",
      "type": "event"
    },
    {
      "anonymous": false,
      "inputs": [
        {
          "indexed": false,
          "internalType": "uint256",
          "name": "amount",
          "type": "uint256"
        }
      ],
      "name": "Reward",
      "type": "event"
    },
    {
      "anonymous": false,
      "inputs": [
        {
          "indexed": true,
          "internalType": "bytes32",
          "name": "role",
          "type": "bytes32"
        },
        {
          "indexed": true,
          "internalType": "bytes32",
          "name": "previousAdminRole",
          "type": "bytes32"
        },
        {
          "indexed": true,
          "internalType": "bytes32",
          "name": "newAdminRole",
          "type": "bytes32"
        }
      ],
      "name": "RoleAdminChanged",
      "type": "event"
    },
    {
      "anonymous": false,
      "inputs": [
        {
          "indexed": true,
          "internalType": "bytes32",
          "name": "role",
          "type": "bytes32"
        },
        {
          "indexed": true,
          "internalType": "address",
          "name": "account",
          "type": "address"
        },
        {
          "indexed": true,
          "internalType": "address",
          "name": "sender",
          "type": "address"
        }
      ],
      "name": "RoleGranted",
      "type": "event"
    },
    {
      "anonymous": false,
      "inputs": [
        {
          "indexed": true,
          "internalType": "bytes32",
          "name": "role",
          "type": "bytes32"
        },
        {
          "indexed": true,
          "internalType": "address",
          "name": "account",
          "type": "address"
        },
        {
          "indexed": true,
          "internalType": "address",
          "name": "sender",
          "type": "address"
        }
      ],
      "name": "RoleRevoked",
      "type": "event"
    },
    {
      "anonymous": false,
      "inputs": [
        {
          "indexed": false,
          "internalType": "uint256",
          "name": "healthFactor",
          "type": "uint256"
        }
      ],
      "name": "SetHealthFactor",
      "type": "event"
    },
    {
      "anonymous": false,
      "inputs": [
        {
          "indexed": false,
          "internalType": "uint256",
          "name": "amount",
          "type": "uint256"
        }
      ],
      "name": "Stake",
      "type": "event"
    },
    {
      "anonymous": false,
      "inputs": [
        {
          "indexed": false,
          "internalType": "address",
          "name": "gauge",
          "type": "address"
        },
        {
          "indexed": false,
          "internalType": "address",
          "name": "dystPair",
          "type": "address"
        },
        {
          "indexed": false,
          "internalType": "address",
          "name": "dystRouter",
          "type": "address"
        },
        {
          "indexed": false,
          "internalType": "address",
          "name": "balancerVault",
          "type": "address"
        },
        {
          "indexed": false,
          "internalType": "bytes32",
          "name": "poolIdUsdcTusdDaiUsdt",
          "type": "bytes32"
        }
      ],
      "name": "StrategyUpdatedParams",
      "type": "event"
    },
    {
      "anonymous": false,
      "inputs": [
        {
          "indexed": false,
          "internalType": "address",
          "name": "usdcToken",
          "type": "address"
        },
        {
          "indexed": false,
          "internalType": "address",
          "name": "usdtToken",
          "type": "address"
        },
        {
          "indexed": false,
          "internalType": "address",
          "name": "dystToken",
          "type": "address"
        },
        {
          "indexed": false,
          "internalType": "address",
          "name": "wmaticToken",
          "type": "address"
        },
        {
          "indexed": false,
          "internalType": "uint256",
          "name": "usdcTokenDenominator",
          "type": "uint256"
        },
        {
          "indexed": false,
          "internalType": "uint256",
          "name": "usdtTokenDenominator",
          "type": "uint256"
        }
      ],
      "name": "StrategyUpdatedTokens",
      "type": "event"
    },
    {
      "anonymous": false,
      "inputs": [
        {
          "indexed": false,
          "internalType": "uint256",
          "name": "amount",
          "type": "uint256"
        },
        {
          "indexed": false,
          "internalType": "uint256",
          "name": "amountReceived",
          "type": "uint256"
        }
      ],
      "name": "Unstake",
      "type": "event"
    },
    {
      "anonymous": false,
      "inputs": [
        {
          "indexed": true,
          "internalType": "address",
          "name": "implementation",
          "type": "address"
        }
      ],
      "name": "Upgraded",
      "type": "event"
    },
    {
      "inputs": [],
      "name": "BASIS_POINTS_FOR_SLIPPAGE",
      "outputs": [
        {
          "internalType": "uint256",
          "name": "",
          "type": "uint256"
        }
      ],
      "stateMutability": "view",
      "type": "function"
    },
    {
      "inputs": [],
      "name": "DEFAULT_ADMIN_ROLE",
      "outputs": [
        {
          "internalType": "bytes32",
          "name": "",
          "type": "bytes32"
        }
      ],
      "stateMutability": "view",
      "type": "function"
    },
    {
      "inputs": [],
      "name": "MAX_VALUE",
      "outputs": [
        {
          "internalType": "int256",
          "name": "",
          "type": "int256"
        }
      ],
      "stateMutability": "view",
      "type": "function"
    },
    {
      "inputs": [],
      "name": "PORTFOLIO_MANAGER",
      "outputs": [
        {
          "internalType": "bytes32",
          "name": "",
          "type": "bytes32"
        }
      ],
      "stateMutability": "view",
      "type": "function"
    },
    {
      "inputs": [],
      "name": "UPGRADER_ROLE",
      "outputs": [
        {
          "internalType": "bytes32",
          "name": "",
          "type": "bytes32"
        }
      ],
      "stateMutability": "view",
      "type": "function"
    },
    {
      "inputs": [
        {
          "internalType": "address",
          "name": "_to",
          "type": "address"
        }
      ],
      "name": "claimRewards",
      "outputs": [
        {
          "internalType": "uint256",
          "name": "",
          "type": "uint256"
        }
      ],
      "stateMutability": "nonpayable",
      "type": "function"
    },
    {
      "inputs": [],
      "name": "dystPair",
      "outputs": [
        {
          "internalType": "contract IDystopiaLP",
          "name": "",
          "type": "address"
        }
      ],
      "stateMutability": "view",
      "type": "function"
    },
    {
      "inputs": [],
      "name": "dystToken",
      "outputs": [
        {
          "internalType": "contract IERC20",
          "name": "",
          "type": "address"
        }
      ],
      "stateMutability": "view",
      "type": "function"
    },
    {
      "inputs": [],
      "name": "gauge",
      "outputs": [
        {
          "internalType": "contract IDystopiaLP",
          "name": "",
          "type": "address"
        }
      ],
      "stateMutability": "view",
      "type": "function"
    },
    {
      "inputs": [
        {
          "internalType": "bytes32",
          "name": "role",
          "type": "bytes32"
        }
      ],
      "name": "getRoleAdmin",
      "outputs": [
        {
          "internalType": "bytes32",
          "name": "",
          "type": "bytes32"
        }
      ],
      "stateMutability": "view",
      "type": "function"
    },
    {
      "inputs": [
        {
          "internalType": "bytes32",
          "name": "role",
          "type": "bytes32"
        },
        {
          "internalType": "address",
          "name": "account",
          "type": "address"
        }
      ],
      "name": "grantRole",
      "outputs": [],
      "stateMutability": "nonpayable",
      "type": "function"
    },
    {
      "inputs": [
        {
          "internalType": "bytes32",
          "name": "role",
          "type": "bytes32"
        },
        {
          "internalType": "address",
          "name": "account",
          "type": "address"
        }
      ],
      "name": "hasRole",
      "outputs": [
        {
          "internalType": "bool",
          "name": "",
          "type": "bool"
        }
      ],
      "stateMutability": "view",
      "type": "function"
    },
    {
      "inputs": [],
      "name": "healthFactorBalance",
      "outputs": [],
      "stateMutability": "nonpayable",
      "type": "function"
    },
    {
      "inputs": [],
      "name": "initialize",
      "outputs": [],
      "stateMutability": "nonpayable",
      "type": "function"
    },
    {
      "inputs": [],
      "name": "liquidationValue",
      "outputs": [
        {
          "internalType": "uint256",
          "name": "",
          "type": "uint256"
        }
      ],
      "stateMutability": "view",
      "type": "function"
    },
    {
      "inputs": [],
      "name": "netAssetValue",
      "outputs": [
        {
          "internalType": "uint256",
          "name": "",
          "type": "uint256"
        }
      ],
      "stateMutability": "view",
      "type": "function"
    },
    {
      "inputs": [],
      "name": "oracleUsdc",
      "outputs": [
        {
          "internalType": "contract IPriceFeed",
          "name": "",
          "type": "address"
        }
      ],
      "stateMutability": "view",
      "type": "function"
    },
    {
      "inputs": [],
      "name": "oracleUsdt",
      "outputs": [
        {
          "internalType": "contract IPriceFeed",
          "name": "",
          "type": "address"
        }
      ],
      "stateMutability": "view",
      "type": "function"
    },
    {
      "inputs": [],
      "name": "poolIdUsdcTusdDaiUsdt",
      "outputs": [
        {
          "internalType": "bytes32",
          "name": "",
          "type": "bytes32"
        }
      ],
      "stateMutability": "view",
      "type": "function"
    },
    {
      "inputs": [],
      "name": "portfolioManager",
      "outputs": [
        {
          "internalType": "address",
          "name": "",
          "type": "address"
        }
      ],
      "stateMutability": "view",
      "type": "function"
    },
    {
      "inputs": [],
      "name": "proxiableUUID",
      "outputs": [
        {
          "internalType": "bytes32",
          "name": "",
          "type": "bytes32"
        }
      ],
      "stateMutability": "view",
      "type": "function"
    },
    {
      "inputs": [
        {
          "internalType": "bytes32",
          "name": "role",
          "type": "bytes32"
        },
        {
          "internalType": "address",
          "name": "account",
          "type": "address"
        }
      ],
      "name": "renounceRole",
      "outputs": [],
      "stateMutability": "nonpayable",
      "type": "function"
    },
    {
      "inputs": [
        {
          "internalType": "bytes32",
          "name": "role",
          "type": "bytes32"
        },
        {
          "internalType": "address",
          "name": "account",
          "type": "address"
        }
      ],
      "name": "revokeRole",
      "outputs": [],
      "stateMutability": "nonpayable",
      "type": "function"
    },
    {
      "inputs": [
        {
          "internalType": "uint256",
          "name": "healthFactor",
          "type": "uint256"
        }
      ],
      "name": "setHealthFactor",
      "outputs": [],
      "stateMutability": "nonpayable",
      "type": "function"
    },
    {
      "inputs": [
        {
          "internalType": "address",
          "name": "_gauge",
          "type": "address"
        },
        {
          "internalType": "address",
          "name": "_dystPair",
          "type": "address"
        },
        {
          "internalType": "address",
          "name": "_dystRouter",
          "type": "address"
        },
        {
          "internalType": "address",
          "name": "_balancerVault",
          "type": "address"
        },
        {
          "internalType": "bytes32",
          "name": "_poolIdUsdcTusdDaiUsdt",
          "type": "bytes32"
        },
        {
          "internalType": "address",
          "name": "_oracleUsdc",
          "type": "address"
        },
        {
          "internalType": "address",
          "name": "_oracleUsdt",
          "type": "address"
        }
      ],
      "name": "setParams",
      "outputs": [],
      "stateMutability": "nonpayable",
      "type": "function"
    },
    {
      "inputs": [
        {
          "internalType": "address",
          "name": "_value",
          "type": "address"
        }
      ],
      "name": "setPortfolioManager",
      "outputs": [],
      "stateMutability": "nonpayable",
      "type": "function"
    },
    {
      "inputs": [
        {
          "internalType": "address",
          "name": "_usdcToken",
          "type": "address"
        },
        {
          "internalType": "address",
          "name": "_usdtToken",
          "type": "address"
        },
        {
          "internalType": "address",
          "name": "_dystToken",
          "type": "address"
        },
        {
          "internalType": "address",
          "name": "_wmaticToken",
          "type": "address"
        }
      ],
      "name": "setTokens",
      "outputs": [],
      "stateMutability": "nonpayable",
      "type": "function"
    },
    {
      "inputs": [
        {
          "internalType": "address",
          "name": "_asset",
          "type": "address"
        },
        {
          "internalType": "uint256",
          "name": "_amount",
          "type": "uint256"
        }
      ],
      "name": "stake",
      "outputs": [],
      "stateMutability": "nonpayable",
      "type": "function"
    },
    {
      "inputs": [
        {
          "internalType": "bytes4",
          "name": "interfaceId",
          "type": "bytes4"
        }
      ],
      "name": "supportsInterface",
      "outputs": [
        {
          "internalType": "bool",
          "name": "",
          "type": "bool"
        }
      ],
      "stateMutability": "view",
      "type": "function"
    },
    {
      "inputs": [
        {
          "internalType": "address",
          "name": "_asset",
          "type": "address"
        },
        {
          "internalType": "uint256",
          "name": "_amount",
          "type": "uint256"
        },
        {
          "internalType": "address",
          "name": "_beneficiary",
          "type": "address"
        },
        {
          "internalType": "bool",
          "name": "_targetIsZero",
          "type": "bool"
        }
      ],
      "name": "unstake",
      "outputs": [
        {
          "internalType": "uint256",
          "name": "",
          "type": "uint256"
        }
      ],
      "stateMutability": "nonpayable",
      "type": "function"
    },
    {
      "inputs": [
        {
          "internalType": "address",
          "name": "newImplementation",
          "type": "address"
        }
      ],
      "name": "upgradeTo",
      "outputs": [],
      "stateMutability": "nonpayable",
      "type": "function"
    },
    {
      "inputs": [
        {
          "internalType": "address",
          "name": "newImplementation",
          "type": "address"
        },
        {
          "internalType": "bytes",
          "name": "data",
          "type": "bytes"
        }
      ],
      "name": "upgradeToAndCall",
      "outputs": [],
      "stateMutability": "payable",
      "type": "function"
    },
    {
      "inputs": [],
      "name": "usdcToken",
      "outputs": [
        {
          "internalType": "contract IERC20",
          "name": "",
          "type": "address"
        }
      ],
      "stateMutability": "view",
      "type": "function"
    },
    {
      "inputs": [],
      "name": "usdcTokenDenominator",
      "outputs": [
        {
          "internalType": "uint256",
          "name": "",
          "type": "uint256"
        }
      ],
      "stateMutability": "view",
      "type": "function"
    },
    {
      "inputs": [],
      "name": "usdtToken",
      "outputs": [
        {
          "internalType": "contract IERC20",
          "name": "",
          "type": "address"
        }
      ],
      "stateMutability": "view",
      "type": "function"
    },
    {
      "inputs": [],
      "name": "usdtTokenDenominator",
      "outputs": [
        {
          "internalType": "uint256",
          "name": "",
          "type": "uint256"
        }
      ],
      "stateMutability": "view",
      "type": "function"
    },
    {
      "inputs": [],
      "name": "wmaticToken",
      "outputs": [
        {
          "internalType": "contract IERC20",
          "name": "",
          "type": "address"
        }
      ],
      "stateMutability": "view",
      "type": "function"
    }
  ],
  "numDeployments": 4,
  "solcInputHash": "97673a2759027d1666c10302207a4e5d",
  "bytecode": "0x60a06040523060601b6080523480156200001857600080fd5b5060006200002760016200008e565b9050801562000040576000805461ff0019166101001790555b801562000087576000805461ff0019169055604051600181527f7f26b83ff96e1f2b6a682f133852f6798a09c465da95921460cefb38474024989060200160405180910390a15b50620001af565b60008054610100900460ff161562000127578160ff166001148015620000c75750620000c530620001a060201b6200141d1760201c565b155b6200011f5760405162461bcd60e51b815260206004820152602e6024820152600080516020620052f483398151915260448201526d191e481a5b9a5d1a585b1a5e995960921b60648201526084015b60405180910390fd5b506000919050565b60005460ff808416911610620001865760405162461bcd60e51b815260206004820152602e6024820152600080516020620052f483398151915260448201526d191e481a5b9a5d1a585b1a5e995960921b606482015260840162000116565b506000805460ff191660ff92909216919091179055600190565b6001600160a01b03163b151590565b60805160601c61510a620001ea6000396000818161082401528181610864015281816109040152818161094401526109d3015261510a6000f3fe60806040526004361061021a5760003560e01c80637d5f580211610123578063adc9772e116100ab578063d547741f1161006f578063d547741f1461060c578063ef5cfb8c1461062c578063f664b3d91461064c578063f6f6b88114610661578063f72c0d8b1461068157600080fd5b8063adc9772e14610573578063b0492aa514610593578063b25ca7e9146105b4578063c3bc6ff1146105d4578063cc6522c3146105eb57600080fd5b8063a3673b38116100f2578063a3673b38146104db578063a440b21a146104f0578063a6f19c8414610510578063a98ad46c14610531578063abf4be011461055257600080fd5b80637d5f58021461046f5780638129fc1c1461049157806391d14854146104a6578063a217fddf146104c657600080fd5b806336568abe116101a6578063537820bf11610175578063537820bf146103d85780635f8cddfe146103f85780635fea9cbb14610419578063620b75df1461043a5780637b73aa4e1461045a57600080fd5b806336568abe146103705780633659cfe6146103905780634f1ef286146103b057806352d1902d146103c357600080fd5b8063129caff2116101ed578063129caff2146102d2578063248a9ca3146102e95780632576e65a146103195780632f2ff15d1461032e578063311117081461035057600080fd5b806301ffc9a71461021f578063063bde241461025457806306da3f2e1461028257806311eac85514610299575b600080fd5b34801561022b57600080fd5b5061023f61023a3660046146df565b6106b5565b60405190151581526020015b60405180910390f35b34801561026057600080fd5b506102746b033b2e3c9fd0803ce800000081565b60405190815260200161024b565b34801561028e57600080fd5b506102746101955481565b3480156102a557600080fd5b50610191546102ba906001600160a01b031681565b6040516001600160a01b03909116815260200161024b565b3480156102de57600080fd5b506102746101995481565b3480156102f557600080fd5b50610274610304366004614688565b60009081526065602052604090206001015490565b34801561032557600080fd5b506102746106ec565b34801561033a57600080fd5b5061034e6103493660046146ba565b6106fd565b005b34801561035c57600080fd5b5061034e61036b366004614688565b610727565b34801561037c57600080fd5b5061034e61038b3660046146ba565b61079b565b34801561039c57600080fd5b5061034e6103ab3660046142f9565b610819565b61034e6103be3660046143ff565b6108f9565b3480156103cf57600080fd5b506102746109c6565b3480156103e457600080fd5b5061034e6103f3366004614316565b610a79565b34801561040457600080fd5b50610198546102ba906001600160a01b031681565b34801561042557600080fd5b5061019a546102ba906001600160a01b031681565b34801561044657600080fd5b5060fb546102ba906001600160a01b031681565b34801561046657600080fd5b5061034e610cf3565b34801561047b57600080fd5b5061027460008051602061506e83398151915281565b34801561049d57600080fd5b5061034e610d29565b3480156104b257600080fd5b5061023f6104c13660046146ba565b610d97565b3480156104d257600080fd5b50610274600081565b3480156104e757600080fd5b50610274610dc2565b3480156104fc57600080fd5b5061034e61050b3660046142f9565b610dce565b34801561051c57600080fd5b50610197546102ba906001600160a01b031681565b34801561053d57600080fd5b50610192546102ba906001600160a01b031681565b34801561055e57600080fd5b50610194546102ba906001600160a01b031681565b34801561057f57600080fd5b5061034e61058e3660046144e5565b610ea6565b34801561059f57600080fd5b50610193546102ba906001600160a01b031681565b3480156105c057600080fd5b5061034e6105cf366004614372565b610f8f565b3480156105e057600080fd5b506102746101965481565b3480156105f757600080fd5b5061019b546102ba906001600160a01b031681565b34801561061857600080fd5b5061034e6106273660046146ba565b6111b6565b34801561063857600080fd5b506102746106473660046142f9565b6111db565b34801561065857600080fd5b50610274600481565b34801561066d57600080fd5b5061027461067c366004614511565b61125f565b34801561068d57600080fd5b506102747f189ab7a9244df0848122154315af71fe140f3db0fe014031783b0946b8c9d2e381565b60006001600160e01b03198216637965db0b60e01b14806106e657506301ffc9a760e01b6001600160e01b03198316145b92915050565b60006106f8600061142c565b905090565b60008281526065602052604090206001015461071881611946565b6107228383611950565b505050565b61073f60008051602061506e83398151915233610d97565b6107645760405162461bcd60e51b815260040161075b90614a30565b60405180910390fd5b6040518181527ff00d5f5126966481831a71a9d79a9b3af67c4a1a35637b992c7e465a7e465b71906020015b60405180910390a150565b6001600160a01b038116331461080b5760405162461bcd60e51b815260206004820152602f60248201527f416363657373436f6e74726f6c3a2063616e206f6e6c792072656e6f756e636560448201526e103937b632b9903337b91039b2b63360891b606482015260840161075b565b61081582826119d6565b5050565b306001600160a01b037f00000000000000000000000000000000000000000000000000000000000000001614156108625760405162461bcd60e51b815260040161075b90614a67565b7f00000000000000000000000000000000000000000000000000000000000000006001600160a01b03166108ab60008051602061508e833981519152546001600160a01b031690565b6001600160a01b0316146108d15760405162461bcd60e51b815260040161075b90614af5565b6108da81611a3d565b604080516000808252602082019092526108f691839190611a67565b50565b306001600160a01b037f00000000000000000000000000000000000000000000000000000000000000001614156109425760405162461bcd60e51b815260040161075b90614a67565b7f00000000000000000000000000000000000000000000000000000000000000006001600160a01b031661098b60008051602061508e833981519152546001600160a01b031690565b6001600160a01b0316146109b15760405162461bcd60e51b815260040161075b90614af5565b6109ba82611a3d565b61081582826001611a67565b6000306001600160a01b037f00000000000000000000000000000000000000000000000000000000000000001614610a665760405162461bcd60e51b815260206004820152603860248201527f555550535570677261646561626c653a206d757374206e6f742062652063616c60448201527f6c6564207468726f7567682064656c656761746563616c6c0000000000000000606482015260840161075b565b5060008051602061508e83398151915290565b610a84600033610d97565b610aa05760405162461bcd60e51b815260040161075b90614b8f565b6001600160a01b038416610ac65760405162461bcd60e51b815260040161075b90614bf4565b6001600160a01b038316610aec5760405162461bcd60e51b815260040161075b90614bf4565b6001600160a01b038216610b125760405162461bcd60e51b815260040161075b90614bf4565b6001600160a01b038116610b385760405162461bcd60e51b815260040161075b90614bf4565b61019180546001600160a01b038087166001600160a01b03199283168117909355610192805487831690841617905561019380548683169084161790556101948054918516919092161790556040805163313ce56760e01b8152905163313ce56791600480820192602092909190829003018186803b158015610bba57600080fd5b505afa158015610bce573d6000803e3d6000fd5b505050506040513d601f19601f82011682018060405250810190610bf291906147ab565b610bfd90600a614e93565b61019581905550826001600160a01b031663313ce5676040518163ffffffff1660e01b815260040160206040518083038186803b158015610c3d57600080fd5b505afa158015610c51573d6000803e3d6000fd5b505050506040513d601f19601f82011682018060405250810190610c7591906147ab565b610c8090600a614e93565b61019681905561019554604080516001600160a01b03888116825287811660208301528681168284015285166060820152608081019290925260a082019290925290517fe12a84f7b6db0cbb46792bc40aa14a947aee2e97a7ef410627b718480f7d97989181900360c00190a150505050565b610d0b60008051602061506e83398151915233610d97565b610d275760405162461bcd60e51b815260040161075b90614a30565b565b6000610d356001611be1565b90508015610d4d576000805461ff0019166101001790555b610d55611c69565b80156108f6576000805461ff0019169055604051600181527f7f26b83ff96e1f2b6a682f133852f6798a09c465da95921460cefb384740249890602001610790565b60009182526065602090815260408084206001600160a01b0393909316845291905290205460ff1690565b60006106f8600161142c565b610dd9600033610d97565b610df55760405162461bcd60e51b815260040161075b90614b8f565b6001600160a01b038116610e1b5760405162461bcd60e51b815260040161075b90614bf4565b60fb54610e409060008051602061506e833981519152906001600160a01b03166111b6565b610e5860008051602061506e833981519152826106fd565b60fb80546001600160a01b0319166001600160a01b0383169081179091556040519081527ff7b449fcd5cfb7379dcd34cb69428dd9f882033b15be33d83b42d91daa28eeb790602001610790565b610ebe60008051602061506e83398151915233610d97565b610eda5760405162461bcd60e51b815260040161075b90614a30565b6040518181527f227a473b70d2f893cc7659219575c030a63b5743024fe1e0c1a680e708b1525a9060200160405180910390a16040516370a0823160e01b81523060048201526108159083906001600160a01b038216906370a082319060240160206040518083038186803b158015610f5257600080fd5b505afa158015610f66573d6000803e3d6000fd5b505050506040513d601f19601f82011682018060405250810190610f8a91906146a1565b611cd2565b610f9a600033610d97565b610fb65760405162461bcd60e51b815260040161075b90614b8f565b6001600160a01b038716610fdc5760405162461bcd60e51b815260040161075b90614bf4565b6001600160a01b0386166110025760405162461bcd60e51b815260040161075b90614bf4565b6001600160a01b0385166110285760405162461bcd60e51b815260040161075b90614bf4565b6001600160a01b03841661104e5760405162461bcd60e51b815260040161075b90614bf4565b8261109b5760405162461bcd60e51b815260206004820152601960248201527f456d70747920706f6f6c206964206e6f7420616c6c6f77656400000000000000604482015260640161075b565b6001600160a01b0382166110c15760405162461bcd60e51b815260040161075b90614bf4565b6001600160a01b0381166110e75760405162461bcd60e51b815260040161075b90614bf4565b61019780546001600160a01b038981166001600160a01b0319928316811790935561019880548a8316908416811790915561012d80548a8416908516811790915561015f805485168a851690811790915561019989905561019a805489861690871617905561019b8054948816949095169390931790935560408051948552602085019190915283810192909252606083015260808201859052517fdb042264948f7a1d4c98cac70f29788723d0adfc5f9e3894fe2c88d3655695149160a0908290030190a150505050505050565b6000828152606560205260409020600101546111d181611946565b61072283836119d6565b60006111f560008051602061506e83398151915233610d97565b6112115760405162461bcd60e51b815260040161075b90614a30565b600061121c8361216c565b90507f3ac0594a85a20354f9dc74f33728416d19ce00d04a406c108cc2dcf2cecea1348160405161124f91815260200190565b60405180910390a190505b919050565b600061127960008051602061506e83398151915233610d97565b6112955760405162461bcd60e51b815260040161075b90614a30565b600082156112e9577f3ac0594a85a20354f9dc74f33728416d19ce00d04a406c108cc2dcf2cecea1346112c78561216c565b60405190815260200160405180910390a16112e286856123e3565b9050611358565b6112f48686866127f9565b9050848110156113585760405162461bcd60e51b815260206004820152602960248201527f52657475726e65642076616c7565206c657373207468616e2072657175657374604482015268195908185b5bdd5b9d60ba1b606482015260840161075b565b60405163a9059cbb60e01b81526001600160a01b0385811660048301526024820183905287169063a9059cbb90604401602060405180830381600087803b1580156113a257600080fd5b505af11580156113b6573d6000803e3d6000fd5b505050506040513d601f19601f820116820180604052508101906113da919061466b565b5060408051868152602081018390527f9045c2ac9b2026de8075f2701bbdde882cd5e830b3b1ead9a15b22f2b5b93742910160405180910390a195945050505050565b6001600160a01b03163b151590565b610191546040516370a0823160e01b815230600482015260009182916001600160a01b03909116906370a082319060240160206040518083038186803b15801561147557600080fd5b505afa158015611489573d6000803e3d6000fd5b505050506040513d601f19601f820116820180604052508101906114ad91906146a1565b610192546040516370a0823160e01b81523060048201529192506000916001600160a01b03909116906370a082319060240160206040518083038186803b1580156114f757600080fd5b505afa15801561150b573d6000803e3d6000fd5b505050506040513d601f19601f8201168201806040525081019061152f91906146a1565b905060008061019860009054906101000a90046001600160a01b03166001600160a01b0316630902f1ac6040518163ffffffff1660e01b815260040160606040518083038186803b15801561158357600080fd5b505afa158015611597573d6000803e3d6000fd5b505050506040513d601f19601f820116820180604052508101906115bb9190614709565b50610197546040516370a0823160e01b81523060048201526001600160701b0393841695509190921692506000916001600160a01b0316906370a082319060240160206040518083038186803b15801561161457600080fd5b505afa158015611628573d6000803e3d6000fd5b505050506040513d601f19601f8201168201806040525081019061164c91906146a1565b905080156117b55761019854604080516318160ddd60e01b815290516000926001600160a01b0316916318160ddd916004808301926020929190829003018186803b15801561169a57600080fd5b505afa1580156116ae573d6000803e3d6000fd5b505050506040513d601f19601f820116820180604052508101906116d291906146a1565b905060008061019860009054906101000a90046001600160a01b03166001600160a01b0316630902f1ac6040518163ffffffff1660e01b815260040160606040518083038186803b15801561172657600080fd5b505afa15801561173a573d6000803e3d6000fd5b505050506040513d601f19601f8201168201806040525081019061175e9190614709565b506001600160701b0391821693501690508261177a8584614f3e565b6117849190614e2e565b61178e9089614e16565b97508261179b8583614f3e565b6117a59190614e2e565b6117af9088614e16565b96505050505b600084156119305787156119065761019a54604080516350d25bcd60e01b815290516000926001600160a01b0316916350d25bcd916004808301926020929190829003018186803b15801561180957600080fd5b505afa15801561181d573d6000803e3d6000fd5b505050506040513d601f19601f8201168201806040525081019061184191906146a1565b9050600061019b60009054906101000a90046001600160a01b03166001600160a01b03166350d25bcd6040518163ffffffff1660e01b815260040160206040518083038186803b15801561189457600080fd5b505afa1580156118a8573d6000803e3d6000fd5b505050506040513d601f19601f820116820180604052508101906118cc91906146a1565b90506118db82620f4240614f3e565b816118e989620f4240614f3e565b6118f39190614f3e565b6118fd9190614e2e565b92505050611930565b61019954610192546101915461192d92916000916001600160a01b03918216911689612c47565b90505b61193a8187614e16565b98975050505050505050565b6108f6813361312d565b61195a8282610d97565b6108155760008281526065602090815260408083206001600160a01b03851684529091529020805460ff191660011790556119923390565b6001600160a01b0316816001600160a01b0316837f2f8788117e7eff1d82e926ec794901d17c78024a50270940304540a733656f0d60405160405180910390a45050565b6119e08282610d97565b156108155760008281526065602090815260408083206001600160a01b0385168085529252808320805460ff1916905551339285917ff6391f5c32d9c69d2a47ea670b442974b53935d1edc7fd64eb21e047a839171b9190a45050565b7f189ab7a9244df0848122154315af71fe140f3db0fe014031783b0946b8c9d2e361081581611946565b7f4910fdfa16fed3260ed0e7147f7cc6da11a60208b5b9406d12a635614ffd91435460ff1615611a9a5761072283613191565b826001600160a01b03166352d1902d6040518163ffffffff1660e01b815260040160206040518083038186803b158015611ad357600080fd5b505afa925050508015611b03575060408051601f3d908101601f19168201909252611b00918101906146a1565b60015b611b665760405162461bcd60e51b815260206004820152602e60248201527f45524331393637557067726164653a206e657720696d706c656d656e7461746960448201526d6f6e206973206e6f74205555505360901b606482015260840161075b565b60008051602061508e8339815191528114611bd55760405162461bcd60e51b815260206004820152602960248201527f45524331393637557067726164653a20756e737570706f727465642070726f786044820152681a58589b195555525160ba1b606482015260840161075b565b5061072283838361322d565b60008054610100900460ff1615611c28578160ff166001148015611c045750303b155b611c205760405162461bcd60e51b815260040161075b90614b41565b506000919050565b60005460ff808416911610611c4f5760405162461bcd60e51b815260040161075b90614b41565b506000805460ff191660ff92909216919091179055600190565b6000611c756001611be1565b90508015611c8d576000805461ff0019166101001790555b611c95613258565b611c9d613258565b611ca8600033611950565b610d557f189ab7a9244df0848122154315af71fe140f3db0fe014031783b0946b8c9d2e333611950565b610191546001600160a01b03838116911614611d005760405162461bcd60e51b815260040161075b90614bbd565b60008061019860009054906101000a90046001600160a01b03166001600160a01b0316630902f1ac6040518163ffffffff1660e01b815260040160606040518083038186803b158015611d5257600080fd5b505afa158015611d66573d6000803e3d6000fd5b505050506040513d601f19601f82011682018060405250810190611d8a9190614709565b506001600160701b031691506001600160701b031691506103e882118015611db357506103e881115b611dcf5760405162461bcd60e51b815260040161075b90614ab3565b610191546040516370a0823160e01b815230600482015260009182916001600160a01b03909116906370a082319060240160206040518083038186803b158015611e1857600080fd5b505afa158015611e2c573d6000803e3d6000fd5b505050506040513d601f19601f82011682018060405250810190611e5091906146a1565b6101955461019654610199546101915461019254949550600094611e8d9487948b948b94929391926001926001600160a01b0391821691166132c3565b610199546101915461019254929350611eb9926000916001600160a01b03908116911630808785613372565b50610191546040516370a0823160e01b81523060048201526001600160a01b03909116906370a082319060240160206040518083038186803b158015611efe57600080fd5b505afa158015611f12573d6000803e3d6000fd5b505050506040513d601f19601f82011682018060405250810190611f3691906146a1565b610192546040516370a0823160e01b81523060048201529193506001600160a01b0316906370a082319060240160206040518083038186803b158015611f7b57600080fd5b505afa158015611f8f573d6000803e3d6000fd5b505050506040513d601f19601f82011682018060405250810190611fb391906146a1565b6101915461019254919450611fed916001600160a01b0391821691168486611fdc8260046135e1565b611fe78960046135e1565b30613604565b5050610198546040516370a0823160e01b8152306004820152600092506001600160a01b03909116906370a082319060240160206040518083038186803b15801561203757600080fd5b505afa15801561204b573d6000803e3d6000fd5b505050506040513d601f19601f8201168201806040525081019061206f91906146a1565b610198546101975460405163095ea7b360e01b81526001600160a01b03918216600482015260248101849052929350169063095ea7b390604401602060405180830381600087803b1580156120c357600080fd5b505af11580156120d7573d6000803e3d6000fd5b505050506040513d601f19601f820116820180604052508101906120fb919061466b565b5061019754604051631c57762b60e31b815260048101839052600060248201526001600160a01b039091169063e2bbb15890604401600060405180830381600087803b15801561214a57600080fd5b505af115801561215e573d6000803e3d6000fd5b505050505050505050505050565b6040805160018082528183019092526000918291906020808301908036833750506101935482519293506001600160a01b0316918391506000906121b2576121b261501e565b6001600160a01b039283166020918202929092010152610197546040516331279d3d60e01b81529116906331279d3d906121f290309085906004016149c1565b600060405180830381600087803b15801561220c57600080fd5b505af1158015612220573d6000803e3d6000fd5b5050610193546040516370a0823160e01b8152306004820152600093506001600160a01b0390911691506370a082319060240160206040518083038186803b15801561226b57600080fd5b505afa15801561227f573d6000803e3d6000fd5b505050506040513d601f19601f820116820180604052508101906122a391906146a1565b905080156122d4576101935461019454610191546122d2926001600160a01b0390811692811691168430613809565b505b610191546040516370a0823160e01b81523060048201526000916001600160a01b0316906370a082319060240160206040518083038186803b15801561231957600080fd5b505afa15801561232d573d6000803e3d6000fd5b505050506040513d601f19601f8201168201806040525081019061235191906146a1565b6101915460405163a9059cbb60e01b81526001600160a01b0388811660048301526024820184905292935091169063a9059cbb90604401602060405180830381600087803b1580156123a257600080fd5b505af11580156123b6573d6000803e3d6000fd5b505050506040513d601f19601f820116820180604052508101906123da919061466b565b50949350505050565b610191546000906001600160a01b038481169116146124145760405162461bcd60e51b815260040161075b90614bbd565b61019760009054906101000a90046001600160a01b03166001600160a01b031663853828b66040518163ffffffff1660e01b8152600401600060405180830381600087803b15801561246557600080fd5b505af1158015612479573d6000803e3d6000fd5b5050505060008061019860009054906101000a90046001600160a01b03166001600160a01b0316630902f1ac6040518163ffffffff1660e01b815260040160606040518083038186803b1580156124cf57600080fd5b505afa1580156124e3573d6000803e3d6000fd5b505050506040513d601f19601f820116820180604052508101906125079190614709565b506001600160701b031691506001600160701b031691506103e88211801561253057506103e881115b61254c5760405162461bcd60e51b815260040161075b90614ab3565b610198546040516370a0823160e01b81523060048201526000916001600160a01b0316906370a082319060240160206040518083038186803b15801561259157600080fd5b505afa1580156125a5573d6000803e3d6000fd5b505050506040513d601f19601f820116820180604052508101906125c991906146a1565b905080156126c85761019854604080516318160ddd60e01b815290516000926001600160a01b0316916318160ddd916004808301926020929190829003018186803b15801561261757600080fd5b505afa15801561262b573d6000803e3d6000fd5b505050506040513d601f19601f8201168201806040525081019061264f91906146a1565b905060008161265e8487614f3e565b6126689190614e2e565b90506000826126778587614f3e565b6126819190614e2e565b6101915461019254610198549293506126c2926001600160a01b03928316929182169116876126b18760046135e1565b6126bc8760046135e1565b30613af3565b50505050505b610192546040516370a0823160e01b81523060048201526000916001600160a01b0316906370a082319060240160206040518083038186803b15801561270d57600080fd5b505afa158015612721573d6000803e3d6000fd5b505050506040513d601f19601f8201168201806040525081019061274591906146a1565b610199546101925461019154929350612771926000916001600160a01b03908116911630808785613372565b50610191546040516370a0823160e01b81523060048201526001600160a01b03909116906370a082319060240160206040518083038186803b1580156127b657600080fd5b505afa1580156127ca573d6000803e3d6000fd5b505050506040513d601f19601f820116820180604052508101906127ee91906146a1565b979650505050505050565b610191546000906001600160a01b0385811691161461282a5760405162461bcd60e51b815260040161075b90614bbd565b60008061019860009054906101000a90046001600160a01b03166001600160a01b0316630902f1ac6040518163ffffffff1660e01b815260040160606040518083038186803b15801561287c57600080fd5b505afa158015612890573d6000803e3d6000fd5b505050506040513d601f19601f820116820180604052508101906128b49190614709565b506001600160701b031691506001600160701b031691506103e8821180156128dd57506103e881115b6128f95760405162461bcd60e51b815260040161075b90614ab3565b610197546040516370a0823160e01b81523060048201526000916001600160a01b0316906370a082319060240160206040518083038186803b15801561293e57600080fd5b505afa158015612952573d6000803e3d6000fd5b505050506040513d601f19601f8201168201806040525081019061297691906146a1565b90508015612b135761019854604080516318160ddd60e01b815290516000926001600160a01b0316916318160ddd916004808301926020929190829003018186803b1580156129c457600080fd5b505afa1580156129d8573d6000803e3d6000fd5b505050506040513d601f19601f820116820180604052508101906129fc91906146a1565b90506000612a3e612a0e896004613c64565b61019554610196546101995461019154610192548b948b948a94919390926001600160a01b039182169116613c73565b905082811115612a4b5750815b61019754604051632e1a7d4d60e01b8152600481018390526001600160a01b0390911690632e1a7d4d90602401600060405180830381600087803b158015612a9257600080fd5b505af1158015612aa6573d6000803e3d6000fd5b505050506000828287612ab99190614f3e565b612ac39190614e2e565b9050600083612ad28488614f3e565b612adc9190614e2e565b610191546101925461019854929350612b0c926001600160a01b03928316929182169116866126b18760046135e1565b5050505050505b610192546040516370a0823160e01b81523060048201526000916001600160a01b0316906370a082319060240160206040518083038186803b158015612b5857600080fd5b505afa158015612b6c573d6000803e3d6000fd5b505050506040513d601f19601f82011682018060405250810190612b9091906146a1565b610199546101925461019154929350612bbc926000916001600160a01b03908116911630808785613372565b50610191546040516370a0823160e01b81523060048201526001600160a01b03909116906370a082319060240160206040518083038186803b158015612c0157600080fd5b505afa158015612c15573d6000803e3d6000fd5b505050506040513d601f19601f82011682018060405250810190612c3991906146a1565b9450505050505b9392505050565b604080516101208101825260008082526020820181905291810182905260608082018390526080820183905260a0820183905260c0820183905260e0820183905261010082015280866001811115612ca157612ca1615008565b90816001811115612cb457612cb4615008565b9052506001600160a01b0385811660208301528481166040808401919091526060830185905261015f549051631f29a8cd60e31b8152600481018a90526000928392839291169063f94d46689060240160006040518083038186803b158015612d1c57600080fd5b505afa158015612d30573d6000803e3d6000fd5b505050506040513d6000823e601f3d908101601f19168201604052612d589190810190614559565b61015f5460405163f6c0092760e01b8152600481018f9052939650919450925060009182916001600160a01b03169063f6c0092790602401604080518083038186803b158015612da757600080fd5b505afa158015612dbb573d6000803e3d6000fd5b505050506040513d601f19601f82011682018060405250810190612ddf91906144a7565b90925090506000816002811115612df857612df8615008565b1415612f315760008060005b87518160ff161015612ea0578c6001600160a01b0316888260ff1681518110612e2f57612e2f61501e565b60200260200101516001600160a01b03161415612e51578060ff169250612e8e565b8b6001600160a01b0316888260ff1681518110612e7057612e7061501e565b60200260200101516001600160a01b03161415612e8e578060ff1691505b80612e9881614fd2565b915050612e04565b5060405162f64aa560e11b81526001600160a01b038516906301ec954a90612ed2908b908a9087908790600401614ce6565b60206040518083038186803b158015612eea57600080fd5b505afa158015612efe573d6000803e3d6000fd5b505050506040513d601f19601f82011682018060405250810190612f2291906146a1565b98505050505050505050613124565b6001816002811115612f4557612f45615008565b14156130505760008060005b87518160ff16101561301f578c6001600160a01b0316888260ff1681518110612f7c57612f7c61501e565b60200260200101516001600160a01b03161415612fb757868160ff1681518110612fa857612fa861501e565b6020026020010151925061300d565b8b6001600160a01b0316888260ff1681518110612fd657612fd661501e565b60200260200101516001600160a01b0316141561300d57868160ff16815181106130025761300261501e565b602002602001015191505b8061301781614fd2565b915050612f51565b5060405163274b044360e21b81526001600160a01b03851690639d2c110c90612ed2908b9086908690600401614d47565b60008060005b87518160ff16101561301f578c6001600160a01b0316888260ff16815181106130815761308161501e565b60200260200101516001600160a01b031614156130bc57868160ff16815181106130ad576130ad61501e565b60200260200101519250613112565b8b6001600160a01b0316888260ff16815181106130db576130db61501e565b60200260200101516001600160a01b0316141561311257868160ff16815181106131075761310761501e565b602002602001015191505b8061311c81614fd2565b915050613056565b95945050505050565b6131378282610d97565b6108155761314f816001600160a01b03166014613d42565b61315a836020613d42565b60405160200161316b92919061494c565b60408051601f198184030181529082905262461bcd60e51b825261075b91600401614a1d565b6001600160a01b0381163b6131fe5760405162461bcd60e51b815260206004820152602d60248201527f455243313936373a206e657720696d706c656d656e746174696f6e206973206e60448201526c1bdd08184818dbdb9d1c9858dd609a1b606482015260840161075b565b60008051602061508e83398151915280546001600160a01b0319166001600160a01b0392909216919091179055565b61323683613ede565b6000825111806132435750805b15610722576132528383613f1e565b50505050565b600054610100900460ff16610d275760405162461bcd60e51b815260206004820152602b60248201527f496e697469616c697a61626c653a20636f6e7472616374206973206e6f74206960448201526a6e697469616c697a696e6760a81b606482015260840161075b565b60008088886132d2898d614f3e565b6132dc9190614e2e565b6132e69190614e16565b6132f08a8d614f3e565b6132fa9190614e2e565b905060005b86811015613363576000613317876000888887612c47565b90508a83613325838f614f3e565b61332f9190614e2e565b6133399190614e16565b6133438c8f614f3e565b61334d9190614e2e565b925050808061335b90614fb7565b9150506132ff565b509a9950505050505050505050565b61015f546040516370a0823160e01b81523060048201526000916001600160a01b038981169263095ea7b392919091169083906370a082319060240160206040518083038186803b1580156133c657600080fd5b505afa1580156133da573d6000803e3d6000fd5b505050506040513d601f19601f820116820180604052508101906133fe91906146a1565b6040516001600160e01b031960e085901b1681526001600160a01b0390921660048301526024820152604401602060405180830381600087803b15801561344457600080fd5b505af1158015613458573d6000803e3d6000fd5b505050506040513d601f19601f8201168201806040525081019061347c919061466b565b506134c96040805160c0810190915260008082526020820190815260200160006001600160a01b0316815260200160006001600160a01b0316815260200160008152602001606081525090565b898152602081018960018111156134e2576134e2615008565b908160018111156134f5576134f5615008565b9052506001600160a01b038881166040838101919091528882166060808501919091526080808501889052825190810183526000602082018190529181019190915288831681528783169181019190915261015f549091166352bbbe2983838761356142610258614e16565b6040518563ffffffff1660e01b81526004016135809493929190614c2b565b602060405180830381600087803b15801561359a57600080fd5b505af11580156135ae573d6000803e3d6000fd5b505050506040513d601f19601f820116820180604052508101906135d291906146a1565b9b9a5050505050505050505050565b60006127106135f08382614f5d565b6135fa9085614f3e565b612c409190614e2e565b61012d5460405163095ea7b360e01b81526001600160a01b03918216600482015260248101879052600091829182918b169063095ea7b390604401602060405180830381600087803b15801561365957600080fd5b505af115801561366d573d6000803e3d6000fd5b505050506040513d601f19601f82011682018060405250810190613691919061466b565b5061012d5460405163095ea7b360e01b81526001600160a01b03918216600482015260248101899052908a169063095ea7b390604401602060405180830381600087803b1580156136e157600080fd5b505af11580156136f5573d6000803e3d6000fd5b505050506040513d601f19601f82011682018060405250810190613719919061466b565b5061012d546001600160a01b0316635a47ddc38b8b60018c8c8c8c8c61374142610258614e16565b60405160e08b901b6001600160e01b03191681526001600160a01b03998a166004820152978916602489015295151560448801526064870194909452608486019290925260a485015260c484015290921660e482015261010481019190915261012401606060405180830381600087803b1580156137be57600080fd5b505af11580156137d2573d6000803e3d6000fd5b505050506040513d601f19601f820116820180604052508101906137f6919061477d565b9250925092509750975097945050505050565b61012d5460405163095ea7b360e01b81526001600160a01b0391821660048201526024810184905260009187169063095ea7b390604401602060405180830381600087803b15801561385a57600080fd5b505af115801561386e573d6000803e3d6000fd5b505050506040513d601f19601f82011682018060405250810190613892919061466b565b5060006138a187878787614009565b9050806138b2576000915050613124565b60408051600280825260608201909252600091816020015b60408051606081018252600080825260208083018290529282015282526000199092019101816138ca579050509050878160008151811061390d5761390d61501e565b6020026020010151600001906001600160a01b031690816001600160a01b03168152505086816000815181106139455761394561501e565b6020026020010151602001906001600160a01b031690816001600160a01b03168152505060008160008151811061397e5761397e61501e565b6020026020010151604001901515908115158152505086816001815181106139a8576139a861501e565b6020026020010151600001906001600160a01b031690816001600160a01b03168152505085816001815181106139e0576139e061501e565b6020026020010151602001906001600160a01b031690816001600160a01b031681525050600181600181518110613a1957613a1961501e565b602090810291909101015190151560409091015261012d546000906001600160a01b031663f41766d887838589613a5242610258614e16565b6040518663ffffffff1660e01b8152600401613a72959493929190614d85565b600060405180830381600087803b158015613a8c57600080fd5b505af1158015613aa0573d6000803e3d6000fd5b505050506040513d6000823e601f3d908101601f19168201604052613ac8919081019061462e565b905080600181518110613add57613add61501e565b6020026020010151935050505095945050505050565b61012d5460405163095ea7b360e01b81526001600160a01b0391821660048201526024810186905260009182919088169063095ea7b390604401602060405180830381600087803b158015613b4757600080fd5b505af1158015613b5b573d6000803e3d6000fd5b505050506040513d601f19601f82011682018060405250810190613b7f919061466b565b5061012d546001600160a01b0316630dede6c48a8a60018a8a8a8a613ba642610258614e16565b60405160e08a901b6001600160e01b03191681526001600160a01b039889166004820152968816602488015294151560448701526064860193909352608485019190915260a484015290921660c482015260e4810191909152610104016040805180830381600087803b158015613c1c57600080fd5b505af1158015613c30573d6000803e3d6000fd5b505050506040513d601f19601f82011682018060405250810190613c549190614759565b9150915097509795505050505050565b60006127106135f08382614e16565b600080613c80878a614f3e565b613c8a878c614f3e565b613c949190614e16565b86613c9f8d8b614f3e565b613ca99190614f3e565b613cb39190614e2e565b905060005b600181101561336357600089613cce848d614f3e565b613cd89190614e2e565b90506000613cea886000888a86612c47565b9050613cf6818d614f3e565b613d00838f614f3e565b613d0a9190614e16565b828f8d613d179190614f3e565b613d219190614f3e565b613d2b9190614e2e565b935050508080613d3a90614fb7565b915050613cb8565b60606000613d51836002614f3e565b613d5c906002614e16565b67ffffffffffffffff811115613d7457613d74615034565b6040519080825280601f01601f191660200182016040528015613d9e576020820181803683370190505b509050600360fc1b81600081518110613db957613db961501e565b60200101906001600160f81b031916908160001a905350600f60fb1b81600181518110613de857613de861501e565b60200101906001600160f81b031916908160001a9053506000613e0c846002614f3e565b613e17906001614e16565b90505b6001811115613e8f576f181899199a1a9b1b9c1cb0b131b232b360811b85600f1660108110613e4b57613e4b61501e565b1a60f81b828281518110613e6157613e6161501e565b60200101906001600160f81b031916908160001a90535060049490941c93613e8881614fa0565b9050613e1a565b508315612c405760405162461bcd60e51b815260206004820181905260248201527f537472696e67733a20686578206c656e67746820696e73756666696369656e74604482015260640161075b565b613ee781613191565b6040516001600160a01b038216907fbc7cd75a20ee27fd9adebab32041f755214dbc6bffa90cc0225b39da2e5c2d3b90600090a250565b60606001600160a01b0383163b613f865760405162461bcd60e51b815260206004820152602660248201527f416464726573733a2064656c65676174652063616c6c20746f206e6f6e2d636f6044820152651b9d1c9858dd60d21b606482015260840161075b565b600080846001600160a01b031684604051613fa19190614930565b600060405180830381855af49150503d8060008114613fdc576040519150601f19603f3d011682016040523d82523d6000602084013e613fe1565b606091505b509150915061312482826040518060600160405280602781526020016150ae60279139614237565b60408051600280825260608201909252600091829190816020015b604080516060810182526000808252602080830182905292820152825260001990920191018161402457905050905085816000815181106140675761406761501e565b6020026020010151600001906001600160a01b031690816001600160a01b031681525050848160008151811061409f5761409f61501e565b6020026020010151602001906001600160a01b031690816001600160a01b0316815250506000816000815181106140d8576140d861501e565b6020026020010151604001901515908115158152505084816001815181106141025761410261501e565b6020026020010151600001906001600160a01b031690816001600160a01b031681525050838160018151811061413a5761413a61501e565b6020026020010151602001906001600160a01b031690816001600160a01b0316815250506001816001815181106141735761417361501e565b602090810291909101015190151560409182015261012d5490516326207f2d60e21b81526000916001600160a01b031690639881fcb4906141ba9087908690600401614d6c565b60006040518083038186803b1580156141d257600080fd5b505afa1580156141e6573d6000803e3d6000fd5b505050506040513d6000823e601f3d908101601f1916820160405261420e919081019061462e565b9050806001815181106142235761422361501e565b602002602001015192505050949350505050565b60608315614246575081612c40565b8251156142565782518084602001fd5b8160405162461bcd60e51b815260040161075b9190614a1d565b600082601f83011261428157600080fd5b8151602061429661429183614df2565b614dc1565b80838252828201915082860187848660051b89010111156142b657600080fd5b60005b858110156142d5578151845292840192908401906001016142b9565b5090979650505050505050565b80516001600160701b038116811461125a57600080fd5b60006020828403121561430b57600080fd5b8135612c408161504a565b6000806000806080858703121561432c57600080fd5b84356143378161504a565b935060208501356143478161504a565b925060408501356143578161504a565b915060608501356143678161504a565b939692955090935050565b600080600080600080600060e0888a03121561438d57600080fd5b87356143988161504a565b965060208801356143a88161504a565b955060408801356143b88161504a565b945060608801356143c88161504a565b93506080880135925060a08801356143df8161504a565b915060c08801356143ef8161504a565b8091505092959891949750929550565b6000806040838503121561441257600080fd5b823561441d8161504a565b915060208381013567ffffffffffffffff8082111561443b57600080fd5b818601915086601f83011261444f57600080fd5b81358181111561446157614461615034565b614473601f8201601f19168501614dc1565b9150808252878482850101111561448957600080fd5b80848401858401376000848284010152508093505050509250929050565b600080604083850312156144ba57600080fd5b82516144c58161504a565b6020840151909250600381106144da57600080fd5b809150509250929050565b600080604083850312156144f857600080fd5b82356145038161504a565b946020939093013593505050565b6000806000806080858703121561452757600080fd5b84356145328161504a565b93506020850135925060408501356145498161504a565b915060608501356143678161505f565b60008060006060848603121561456e57600080fd5b835167ffffffffffffffff8082111561458657600080fd5b818601915086601f83011261459a57600080fd5b815160206145aa61429183614df2565b8083825282820191508286018b848660051b89010111156145ca57600080fd5b600096505b848710156145f65780516145e28161504a565b8352600196909601959183019183016145cf565b509189015191975090935050508082111561461057600080fd5b5061461d86828701614270565b925050604084015190509250925092565b60006020828403121561464057600080fd5b815167ffffffffffffffff81111561465757600080fd5b61466384828501614270565b949350505050565b60006020828403121561467d57600080fd5b8151612c408161505f565b60006020828403121561469a57600080fd5b5035919050565b6000602082840312156146b357600080fd5b5051919050565b600080604083850312156146cd57600080fd5b8235915060208301356144da8161504a565b6000602082840312156146f157600080fd5b81356001600160e01b031981168114612c4057600080fd5b60008060006060848603121561471e57600080fd5b614727846142e2565b9250614735602085016142e2565b9150604084015163ffffffff8116811461474e57600080fd5b809150509250925092565b6000806040838503121561476c57600080fd5b505080516020909101519092909150565b60008060006060848603121561479257600080fd5b8351925060208401519150604084015190509250925092565b6000602082840312156147bd57600080fd5b815160ff81168114612c4057600080fd5b600081518084526020808501945080840160005b8381101561482257815180516001600160a01b039081168952848201511684890152604090810151151590880152606090960195908201906001016147e2565b509495945050505050565b60008151808452614845816020860160208601614f74565b601f01601f19169290920160200192915050565b6002811061487757634e487b7160e01b600052602160045260246000fd5b9052565b600061012061488b848451614859565b6020838101516001600160a01b031690850152604080840151906148b9908601826001600160a01b03169052565b50606083015160608501526080830151608085015260a083015160a085015260c08301516148f260c08601826001600160a01b03169052565b5060e083015161490d60e08601826001600160a01b03169052565b506101008084015182828701526149268387018261482d565b9695505050505050565b60008251614942818460208701614f74565b9190910192915050565b7f416363657373436f6e74726f6c3a206163636f756e7420000000000000000000815260008351614984816017850160208801614f74565b7001034b99036b4b9b9b4b733903937b6329607d1b60179184019182015283516149b5816028840160208801614f74565b01602801949350505050565b6001600160a01b038381168252604060208084018290528451918401829052600092858201929091906060860190855b81811015614a0f5785518516835294830194918301916001016149f1565b509098975050505050505050565b602081526000612c40602083018461482d565b6020808252601f908201527f5265737472696374656420746f20504f5254464f4c494f5f4d414e4147455200604082015260600190565b6020808252602c908201527f46756e6374696f6e206d7573742062652063616c6c6564207468726f7567682060408201526b19195b1959d85d1958d85b1b60a21b606082015260800190565b60208082526022908201527f4c6971756964697479206c70546f6b656e20726573657276657320746f6f206c6040820152616f7760f01b606082015260800190565b6020808252602c908201527f46756e6374696f6e206d7573742062652063616c6c6564207468726f7567682060408201526b6163746976652070726f787960a01b606082015260800190565b6020808252602e908201527f496e697469616c697a61626c653a20636f6e747261637420697320616c72656160408201526d191e481a5b9a5d1a585b1a5e995960921b606082015260800190565b6020808252601490820152735265737472696374656420746f2061646d696e7360601b604082015260600190565b60208082526019908201527f536f6d6520746f6b656e206e6f7420636f6d70617469626c6500000000000000604082015260600190565b60208082526018908201527f5a65726f2061646472657373206e6f7420616c6c6f7765640000000000000000604082015260600190565b60e08152845160e082015260006020860151614c4b610100840182614859565b5060408601516001600160a01b03908116610120840152606087015116610140830152608086015161016083015260a086015160c0610180840152614c946101a084018261482d565b915050614cd4602083018680516001600160a01b039081168352602080830151151590840152604080830151909116908301526060908101511515910152565b60a082019390935260c0015292915050565b608081526000614cf9608083018761487b565b82810360208481019190915286518083528782019282019060005b81811015614d3057845183529383019391830191600101614d14565b505060408501969096525050506060015292915050565b606081526000614d5a606083018661487b565b60208301949094525060400152919050565b82815260406020820152600061466360408301846147ce565b85815284602082015260a060408201526000614da460a08301866147ce565b6001600160a01b0394909416606083015250608001529392505050565b604051601f8201601f1916810167ffffffffffffffff81118282101715614dea57614dea615034565b604052919050565b600067ffffffffffffffff821115614e0c57614e0c615034565b5060051b60200190565b60008219821115614e2957614e29614ff2565b500190565b600082614e4b57634e487b7160e01b600052601260045260246000fd5b500490565b600181815b80851115614e8b578160001904821115614e7157614e71614ff2565b80851615614e7e57918102915b93841c9390800290614e55565b509250929050565b6000612c4060ff841683600082614eac575060016106e6565b81614eb9575060006106e6565b8160018114614ecf5760028114614ed957614ef5565b60019150506106e6565b60ff841115614eea57614eea614ff2565b50506001821b6106e6565b5060208310610133831016604e8410600b8410161715614f18575081810a6106e6565b614f228383614e50565b8060001904821115614f3657614f36614ff2565b029392505050565b6000816000190483118215151615614f5857614f58614ff2565b500290565b600082821015614f6f57614f6f614ff2565b500390565b60005b83811015614f8f578181015183820152602001614f77565b838111156132525750506000910152565b600081614faf57614faf614ff2565b506000190190565b6000600019821415614fcb57614fcb614ff2565b5060010190565b600060ff821660ff811415614fe957614fe9614ff2565b60010192915050565b634e487b7160e01b600052601160045260246000fd5b634e487b7160e01b600052602160045260246000fd5b634e487b7160e01b600052603260045260246000fd5b634e487b7160e01b600052604160045260246000fd5b6001600160a01b03811681146108f657600080fd5b80151581146108f657600080fdfe90c2aa7471c04182221f68e80c07ab1e5946e4c63f8693e14ca40385d529f051360894a13ba1a3210667c828492db98dca3e2076cc3735a920a3ca505d382bbc416464726573733a206c6f772d6c6576656c2064656c65676174652063616c6c206661696c6564a2646970667358221220f386063e49a23ac4861c70d2919a6f3e022b01212b8cbc688902a87b58c4bcde64736f6c63430008060033496e697469616c697a61626c653a20636f6e747261637420697320616c726561",
  "devdoc": {
    "kind": "dev",
    "methods": {
      "constructor": {
        "custom:oz-upgrades-unsafe-allow": "constructor"
      },
      "getRoleAdmin(bytes32)": {
        "details": "Returns the admin role that controls `role`. See {grantRole} and {revokeRole}. To change a role's admin, use {_setRoleAdmin}."
      },
      "grantRole(bytes32,address)": {
        "details": "Grants `role` to `account`. If `account` had not been already granted `role`, emits a {RoleGranted} event. Requirements: - the caller must have ``role``'s admin role."
      },
      "hasRole(bytes32,address)": {
        "details": "Returns `true` if `account` has been granted `role`."
      },
      "proxiableUUID()": {
        "details": "Implementation of the ERC1822 {proxiableUUID} function. This returns the storage slot used by the implementation. It is used to validate that the this implementation remains valid after an upgrade. IMPORTANT: A proxy pointing at a proxiable contract should not be considered proxiable itself, because this risks bricking a proxy that upgrades to it, by delegating to itself until out of gas. Thus it is critical that this function revert if invoked through a proxy. This is guaranteed by the `notDelegated` modifier."
      },
      "renounceRole(bytes32,address)": {
        "details": "Revokes `role` from the calling account. Roles are often managed via {grantRole} and {revokeRole}: this function's purpose is to provide a mechanism for accounts to lose their privileges if they are compromised (such as when a trusted device is misplaced). If the calling account had been revoked `role`, emits a {RoleRevoked} event. Requirements: - the caller must be `account`."
      },
      "revokeRole(bytes32,address)": {
        "details": "Revokes `role` from `account`. If `account` had been granted `role`, emits a {RoleRevoked} event. Requirements: - the caller must have ``role``'s admin role."
      },
      "supportsInterface(bytes4)": {
        "details": "See {IERC165-supportsInterface}."
      },
      "upgradeTo(address)": {
        "details": "Upgrade the implementation of the proxy to `newImplementation`. Calls {_authorizeUpgrade}. Emits an {Upgraded} event."
      },
      "upgradeToAndCall(address,bytes)": {
        "details": "Upgrade the implementation of the proxy to `newImplementation`, and subsequently execute the function call encoded in `data`. Calls {_authorizeUpgrade}. Emits an {Upgraded} event."
      }
    },
    "version": 1
  },
  "userdoc": {
    "kind": "user",
    "methods": {},
    "version": 1
  },
  "storageLayout": {
    "storage": [
      {
        "astId": 808,
        "contract": "contracts/StrategyDystopiaUsdcUsdt.sol:StrategyDystopiaUsdcUsdt",
        "label": "_initialized",
        "offset": 0,
        "slot": "0",
        "type": "t_uint8"
      },
      {
        "astId": 811,
        "contract": "contracts/StrategyDystopiaUsdcUsdt.sol:StrategyDystopiaUsdcUsdt",
        "label": "_initializing",
        "offset": 1,
        "slot": "0",
        "type": "t_bool"
      },
      {
        "astId": 1363,
        "contract": "contracts/StrategyDystopiaUsdcUsdt.sol:StrategyDystopiaUsdcUsdt",
        "label": "__gap",
        "offset": 0,
        "slot": "1",
        "type": "t_array(t_uint256)50_storage"
      },
      {
        "astId": 1670,
        "contract": "contracts/StrategyDystopiaUsdcUsdt.sol:StrategyDystopiaUsdcUsdt",
        "label": "__gap",
        "offset": 0,
        "slot": "51",
        "type": "t_array(t_uint256)50_storage"
      },
      {
        "astId": 39,
        "contract": "contracts/StrategyDystopiaUsdcUsdt.sol:StrategyDystopiaUsdcUsdt",
        "label": "_roles",
        "offset": 0,
        "slot": "101",
        "type": "t_mapping(t_bytes32,t_struct(RoleData)34_storage)"
      },
      {
        "astId": 338,
        "contract": "contracts/StrategyDystopiaUsdcUsdt.sol:StrategyDystopiaUsdcUsdt",
        "label": "__gap",
        "offset": 0,
        "slot": "102",
        "type": "t_array(t_uint256)49_storage"
      },
      {
        "astId": 790,
        "contract": "contracts/StrategyDystopiaUsdcUsdt.sol:StrategyDystopiaUsdcUsdt",
        "label": "__gap",
        "offset": 0,
        "slot": "151",
        "type": "t_array(t_uint256)50_storage"
      },
      {
        "astId": 1078,
        "contract": "contracts/StrategyDystopiaUsdcUsdt.sol:StrategyDystopiaUsdcUsdt",
        "label": "__gap",
        "offset": 0,
        "slot": "201",
        "type": "t_array(t_uint256)50_storage"
      },
      {
        "astId": 32793,
        "contract": "contracts/StrategyDystopiaUsdcUsdt.sol:StrategyDystopiaUsdcUsdt",
        "label": "portfolioManager",
        "offset": 0,
        "slot": "251",
        "type": "t_address"
      },
      {
        "astId": 33115,
        "contract": "contracts/StrategyDystopiaUsdcUsdt.sol:StrategyDystopiaUsdcUsdt",
        "label": "__gap",
        "offset": 0,
        "slot": "252",
        "type": "t_array(t_uint256)49_storage"
      },
      {
        "astId": 34386,
        "contract": "contracts/StrategyDystopiaUsdcUsdt.sol:StrategyDystopiaUsdcUsdt",
        "label": "dystRouter",
        "offset": 0,
        "slot": "301",
        "type": "t_contract(IDystopiaRouter)29321"
      },
      {
        "astId": 34724,
        "contract": "contracts/StrategyDystopiaUsdcUsdt.sol:StrategyDystopiaUsdcUsdt",
        "label": "__gap",
        "offset": 0,
        "slot": "302",
        "type": "t_array(t_uint256)49_storage"
      },
      {
        "astId": 33131,
        "contract": "contracts/StrategyDystopiaUsdcUsdt.sol:StrategyDystopiaUsdcUsdt",
        "label": "balancerVault",
        "offset": 0,
        "slot": "351",
        "type": "t_contract(IVault)28641"
      },
      {
        "astId": 34099,
        "contract": "contracts/StrategyDystopiaUsdcUsdt.sol:StrategyDystopiaUsdcUsdt",
        "label": "__gap",
        "offset": 0,
        "slot": "352",
        "type": "t_array(t_uint256)49_storage"
      },
      {
        "astId": 18372,
        "contract": "contracts/StrategyDystopiaUsdcUsdt.sol:StrategyDystopiaUsdcUsdt",
        "label": "usdcToken",
        "offset": 0,
        "slot": "401",
        "type": "t_contract(IERC20)1823"
      },
      {
        "astId": 18375,
        "contract": "contracts/StrategyDystopiaUsdcUsdt.sol:StrategyDystopiaUsdcUsdt",
        "label": "usdtToken",
        "offset": 0,
        "slot": "402",
        "type": "t_contract(IERC20)1823"
      },
      {
        "astId": 18378,
        "contract": "contracts/StrategyDystopiaUsdcUsdt.sol:StrategyDystopiaUsdcUsdt",
        "label": "dystToken",
        "offset": 0,
        "slot": "403",
        "type": "t_contract(IERC20)1823"
      },
      {
        "astId": 18381,
        "contract": "contracts/StrategyDystopiaUsdcUsdt.sol:StrategyDystopiaUsdcUsdt",
        "label": "wmaticToken",
        "offset": 0,
        "slot": "404",
        "type": "t_contract(IERC20)1823"
      },
      {
        "astId": 18383,
        "contract": "contracts/StrategyDystopiaUsdcUsdt.sol:StrategyDystopiaUsdcUsdt",
        "label": "usdcTokenDenominator",
        "offset": 0,
        "slot": "405",
        "type": "t_uint256"
      },
      {
        "astId": 18385,
        "contract": "contracts/StrategyDystopiaUsdcUsdt.sol:StrategyDystopiaUsdcUsdt",
        "label": "usdtTokenDenominator",
        "offset": 0,
        "slot": "406",
        "type": "t_uint256"
      },
      {
        "astId": 18388,
        "contract": "contracts/StrategyDystopiaUsdcUsdt.sol:StrategyDystopiaUsdcUsdt",
        "label": "gauge",
        "offset": 0,
        "slot": "407",
        "type": "t_contract(IDystopiaLP)29205"
      },
      {
        "astId": 18391,
        "contract": "contracts/StrategyDystopiaUsdcUsdt.sol:StrategyDystopiaUsdcUsdt",
        "label": "dystPair",
        "offset": 0,
        "slot": "408",
        "type": "t_contract(IDystopiaLP)29205"
      },
      {
        "astId": 18393,
        "contract": "contracts/StrategyDystopiaUsdcUsdt.sol:StrategyDystopiaUsdcUsdt",
        "label": "poolIdUsdcTusdDaiUsdt",
        "offset": 0,
        "slot": "409",
        "type": "t_bytes32"
      },
      {
        "astId": 18396,
        "contract": "contracts/StrategyDystopiaUsdcUsdt.sol:StrategyDystopiaUsdcUsdt",
        "label": "oracleUsdc",
        "offset": 0,
        "slot": "410",
        "type": "t_contract(IPriceFeed)26201"
      },
      {
        "astId": 18399,
        "contract": "contracts/StrategyDystopiaUsdcUsdt.sol:StrategyDystopiaUsdcUsdt",
        "label": "oracleUsdt",
        "offset": 0,
        "slot": "411",
        "type": "t_contract(IPriceFeed)26201"
      }
    ],
    "types": {
      "t_address": {
        "encoding": "inplace",
        "label": "address",
        "numberOfBytes": "20"
      },
      "t_array(t_uint256)49_storage": {
        "base": "t_uint256",
        "encoding": "inplace",
        "label": "uint256[49]",
        "numberOfBytes": "1568"
      },
      "t_array(t_uint256)50_storage": {
        "base": "t_uint256",
        "encoding": "inplace",
        "label": "uint256[50]",
        "numberOfBytes": "1600"
      },
      "t_bool": {
        "encoding": "inplace",
        "label": "bool",
        "numberOfBytes": "1"
      },
      "t_bytes32": {
        "encoding": "inplace",
        "label": "bytes32",
        "numberOfBytes": "32"
      },
      "t_contract(IDystopiaLP)29205": {
        "encoding": "inplace",
        "label": "contract IDystopiaLP",
        "numberOfBytes": "20"
      },
      "t_contract(IDystopiaRouter)29321": {
        "encoding": "inplace",
        "label": "contract IDystopiaRouter",
        "numberOfBytes": "20"
      },
      "t_contract(IERC20)1823": {
        "encoding": "inplace",
        "label": "contract IERC20",
        "numberOfBytes": "20"
      },
      "t_contract(IPriceFeed)26201": {
        "encoding": "inplace",
        "label": "contract IPriceFeed",
        "numberOfBytes": "20"
      },
      "t_contract(IVault)28641": {
        "encoding": "inplace",
        "label": "contract IVault",
        "numberOfBytes": "20"
      },
      "t_mapping(t_address,t_bool)": {
        "encoding": "mapping",
        "key": "t_address",
        "label": "mapping(address => bool)",
        "numberOfBytes": "32",
        "value": "t_bool"
      },
      "t_mapping(t_bytes32,t_struct(RoleData)34_storage)": {
        "encoding": "mapping",
        "key": "t_bytes32",
        "label": "mapping(bytes32 => struct AccessControlUpgradeable.RoleData)",
        "numberOfBytes": "32",
        "value": "t_struct(RoleData)34_storage"
      },
      "t_struct(RoleData)34_storage": {
        "encoding": "inplace",
        "label": "struct AccessControlUpgradeable.RoleData",
        "members": [
          {
            "astId": 31,
            "contract": "contracts/StrategyDystopiaUsdcUsdt.sol:StrategyDystopiaUsdcUsdt",
            "label": "members",
            "offset": 0,
            "slot": "0",
            "type": "t_mapping(t_address,t_bool)"
          },
          {
            "astId": 33,
            "contract": "contracts/StrategyDystopiaUsdcUsdt.sol:StrategyDystopiaUsdcUsdt",
            "label": "adminRole",
            "offset": 0,
            "slot": "1",
            "type": "t_bytes32"
          }
        ],
        "numberOfBytes": "64"
      },
      "t_uint256": {
        "encoding": "inplace",
        "label": "uint256",
        "numberOfBytes": "32"
      },
      "t_uint8": {
        "encoding": "inplace",
        "label": "uint8",
        "numberOfBytes": "1"
      }
    }
  }
}