{
  "address": "0xFed574f62eda014B0C09966D678c06ecbf1AA5df",
  "abi": [
    {
      "inputs": [],
      "stateMutability": "nonpayable",
      "type": "constructor"
    },
    {
      "anonymous": false,
      "inputs": [
        {
          "indexed": false,
          "internalType": "address",
          "name": "previousAdmin",
          "type": "address"
        },
        {
          "indexed": false,
          "internalType": "address",
          "name": "newAdmin",
          "type": "address"
        }
      ],
      "name": "AdminChanged",
      "type": "event"
    },
    {
      "anonymous": false,
      "inputs": [
        {
          "indexed": false,
          "internalType": "uint256",
          "name": "healthFactor",
          "type": "uint256"
        }
      ],
      "name": "BalanceHealthFactor",
      "type": "event"
    },
    {
      "anonymous": false,
      "inputs": [
        {
          "indexed": true,
          "internalType": "address",
          "name": "beacon",
          "type": "address"
        }
      ],
      "name": "BeaconUpgraded",
      "type": "event"
    },
    {
      "anonymous": false,
      "inputs": [
        {
          "indexed": false,
          "internalType": "uint8",
          "name": "version",
          "type": "uint8"
        }
      ],
      "name": "Initialized",
      "type": "event"
    },
    {
      "anonymous": false,
      "inputs": [
        {
          "indexed": false,
          "internalType": "address",
          "name": "value",
          "type": "address"
        }
      ],
      "name": "PortfolioManagerUpdated",
      "type": "event"
    },
    {
      "anonymous": false,
      "inputs": [
        {
          "indexed": false,
          "internalType": "uint256",
          "name": "amount",
          "type": "uint256"
        }
      ],
      "name": "Reward",
      "type": "event"
    },
    {
      "anonymous": false,
      "inputs": [
        {
          "indexed": true,
          "internalType": "bytes32",
          "name": "role",
          "type": "bytes32"
        },
        {
          "indexed": true,
          "internalType": "bytes32",
          "name": "previousAdminRole",
          "type": "bytes32"
        },
        {
          "indexed": true,
          "internalType": "bytes32",
          "name": "newAdminRole",
          "type": "bytes32"
        }
      ],
      "name": "RoleAdminChanged",
      "type": "event"
    },
    {
      "anonymous": false,
      "inputs": [
        {
          "indexed": true,
          "internalType": "bytes32",
          "name": "role",
          "type": "bytes32"
        },
        {
          "indexed": true,
          "internalType": "address",
          "name": "account",
          "type": "address"
        },
        {
          "indexed": true,
          "internalType": "address",
          "name": "sender",
          "type": "address"
        }
      ],
      "name": "RoleGranted",
      "type": "event"
    },
    {
      "anonymous": false,
      "inputs": [
        {
          "indexed": true,
          "internalType": "bytes32",
          "name": "role",
          "type": "bytes32"
        },
        {
          "indexed": true,
          "internalType": "address",
          "name": "account",
          "type": "address"
        },
        {
          "indexed": true,
          "internalType": "address",
          "name": "sender",
          "type": "address"
        }
      ],
      "name": "RoleRevoked",
      "type": "event"
    },
    {
      "anonymous": false,
      "inputs": [
        {
          "indexed": false,
          "internalType": "uint256",
          "name": "healthFactor",
          "type": "uint256"
        }
      ],
      "name": "SetHealthFactor",
      "type": "event"
    },
    {
      "anonymous": false,
      "inputs": [
        {
          "indexed": false,
          "internalType": "uint256",
          "name": "amount",
          "type": "uint256"
        }
      ],
      "name": "Stake",
      "type": "event"
    },
    {
      "anonymous": false,
      "inputs": [],
      "name": "StrategyUpdatedParams",
      "type": "event"
    },
    {
      "anonymous": false,
      "inputs": [
        {
          "indexed": false,
          "internalType": "uint256",
          "name": "amount",
          "type": "uint256"
        },
        {
          "indexed": false,
          "internalType": "uint256",
          "name": "amountReceived",
          "type": "uint256"
        }
      ],
      "name": "Unstake",
      "type": "event"
    },
    {
      "anonymous": false,
      "inputs": [
        {
          "indexed": true,
          "internalType": "address",
          "name": "implementation",
          "type": "address"
        }
      ],
      "name": "Upgraded",
      "type": "event"
    },
    {
      "inputs": [],
      "name": "DEFAULT_ADMIN_ROLE",
      "outputs": [
        {
          "internalType": "bytes32",
          "name": "",
          "type": "bytes32"
        }
      ],
      "stateMutability": "view",
      "type": "function"
    },
    {
      "inputs": [],
      "name": "PORTFOLIO_AGENT_ROLE",
      "outputs": [
        {
          "internalType": "bytes32",
          "name": "",
          "type": "bytes32"
        }
      ],
      "stateMutability": "view",
      "type": "function"
    },
    {
      "inputs": [],
      "name": "PORTFOLIO_MANAGER",
      "outputs": [
        {
          "internalType": "bytes32",
          "name": "",
          "type": "bytes32"
        }
      ],
      "stateMutability": "view",
      "type": "function"
    },
    {
      "inputs": [],
      "name": "UPGRADER_ROLE",
      "outputs": [
        {
          "internalType": "bytes32",
          "name": "",
          "type": "bytes32"
        }
      ],
      "stateMutability": "view",
      "type": "function"
    },
    {
      "inputs": [],
      "name": "allowedSlippageBp",
      "outputs": [
        {
          "internalType": "uint256",
          "name": "",
          "type": "uint256"
        }
      ],
      "stateMutability": "view",
      "type": "function"
    },
    {
      "inputs": [],
      "name": "bal",
      "outputs": [
        {
          "internalType": "contract IERC20",
          "name": "",
          "type": "address"
        }
      ],
      "stateMutability": "view",
      "type": "function"
    },
    {
      "inputs": [],
      "name": "balPoolId",
      "outputs": [
        {
          "internalType": "bytes32",
          "name": "",
          "type": "bytes32"
        }
      ],
      "stateMutability": "view",
      "type": "function"
    },
    {
      "inputs": [],
      "name": "bbamDai",
      "outputs": [
        {
          "internalType": "contract IBptToken",
          "name": "",
          "type": "address"
        }
      ],
      "stateMutability": "view",
      "type": "function"
    },
    {
      "inputs": [],
      "name": "bbamUsdPoolId",
      "outputs": [
        {
          "internalType": "bytes32",
          "name": "",
          "type": "bytes32"
        }
      ],
      "stateMutability": "view",
      "type": "function"
    },
    {
      "inputs": [],
      "name": "bbamUsdc",
      "outputs": [
        {
          "internalType": "contract IBptToken",
          "name": "",
          "type": "address"
        }
      ],
      "stateMutability": "view",
      "type": "function"
    },
    {
      "inputs": [],
      "name": "bbamUsdcPoolId",
      "outputs": [
        {
          "internalType": "bytes32",
          "name": "",
          "type": "bytes32"
        }
      ],
      "stateMutability": "view",
      "type": "function"
    },
    {
      "inputs": [],
      "name": "bbamUsdt",
      "outputs": [
        {
          "internalType": "contract IBptToken",
          "name": "",
          "type": "address"
        }
      ],
      "stateMutability": "view",
      "type": "function"
    },
    {
      "inputs": [],
      "name": "bpt",
      "outputs": [
        {
          "internalType": "contract IBptToken",
          "name": "",
          "type": "address"
        }
      ],
      "stateMutability": "view",
      "type": "function"
    },
    {
      "inputs": [
        {
          "internalType": "address",
          "name": "_to",
          "type": "address"
        }
      ],
      "name": "claimRewards",
      "outputs": [
        {
          "internalType": "uint256",
          "name": "",
          "type": "uint256"
        }
      ],
      "stateMutability": "nonpayable",
      "type": "function"
    },
    {
      "inputs": [],
      "name": "gauge",
      "outputs": [
        {
          "internalType": "contract IGauge",
          "name": "",
          "type": "address"
        }
      ],
      "stateMutability": "view",
      "type": "function"
    },
    {
      "inputs": [
        {
          "internalType": "bytes32",
          "name": "role",
          "type": "bytes32"
        }
      ],
      "name": "getRoleAdmin",
      "outputs": [
        {
          "internalType": "bytes32",
          "name": "",
          "type": "bytes32"
        }
      ],
      "stateMutability": "view",
      "type": "function"
    },
    {
      "inputs": [
        {
          "internalType": "bytes32",
          "name": "role",
          "type": "bytes32"
        },
        {
          "internalType": "address",
          "name": "account",
          "type": "address"
        }
      ],
      "name": "grantRole",
      "outputs": [],
      "stateMutability": "nonpayable",
      "type": "function"
    },
    {
      "inputs": [
        {
          "internalType": "bytes32",
          "name": "role",
          "type": "bytes32"
        },
        {
          "internalType": "address",
          "name": "account",
          "type": "address"
        }
      ],
      "name": "hasRole",
      "outputs": [
        {
          "internalType": "bool",
          "name": "",
          "type": "bool"
        }
      ],
      "stateMutability": "view",
      "type": "function"
    },
    {
      "inputs": [],
      "name": "healthFactorBalance",
      "outputs": [],
      "stateMutability": "nonpayable",
      "type": "function"
    },
    {
      "inputs": [],
      "name": "initialize",
      "outputs": [],
      "stateMutability": "nonpayable",
      "type": "function"
    },
    {
      "inputs": [],
      "name": "liquidationValue",
      "outputs": [
        {
          "internalType": "uint256",
          "name": "",
          "type": "uint256"
        }
      ],
      "stateMutability": "view",
      "type": "function"
    },
    {
      "inputs": [],
      "name": "netAssetValue",
      "outputs": [
        {
          "internalType": "uint256",
          "name": "",
          "type": "uint256"
        }
      ],
      "stateMutability": "view",
      "type": "function"
    },
    {
      "inputs": [],
      "name": "oracleDai",
      "outputs": [
        {
          "internalType": "contract IPriceFeed",
          "name": "",
          "type": "address"
        }
      ],
      "stateMutability": "view",
      "type": "function"
    },
    {
      "inputs": [],
      "name": "oracleUsdc",
      "outputs": [
        {
          "internalType": "contract IPriceFeed",
          "name": "",
          "type": "address"
        }
      ],
      "stateMutability": "view",
      "type": "function"
    },
    {
      "inputs": [],
      "name": "oracleUsdt",
      "outputs": [
        {
          "internalType": "contract IPriceFeed",
          "name": "",
          "type": "address"
        }
      ],
      "stateMutability": "view",
      "type": "function"
    },
    {
      "inputs": [],
      "name": "portfolioManager",
      "outputs": [
        {
          "internalType": "address",
          "name": "",
          "type": "address"
        }
      ],
      "stateMutability": "view",
      "type": "function"
    },
    {
      "inputs": [],
      "name": "proxiableUUID",
      "outputs": [
        {
          "internalType": "bytes32",
          "name": "",
          "type": "bytes32"
        }
      ],
      "stateMutability": "view",
      "type": "function"
    },
    {
      "inputs": [
        {
          "internalType": "bytes32",
          "name": "role",
          "type": "bytes32"
        },
        {
          "internalType": "address",
          "name": "account",
          "type": "address"
        }
      ],
      "name": "renounceRole",
      "outputs": [],
      "stateMutability": "nonpayable",
      "type": "function"
    },
    {
      "inputs": [
        {
          "internalType": "bytes32",
          "name": "role",
          "type": "bytes32"
        },
        {
          "internalType": "address",
          "name": "account",
          "type": "address"
        }
      ],
      "name": "revokeRole",
      "outputs": [],
      "stateMutability": "nonpayable",
      "type": "function"
    },
    {
      "inputs": [
        {
          "internalType": "uint256",
          "name": "healthFactor",
          "type": "uint256"
        }
      ],
      "name": "setHealthFactor",
      "outputs": [],
      "stateMutability": "nonpayable",
      "type": "function"
    },
    {
      "inputs": [
        {
          "components": [
            {
              "internalType": "address",
              "name": "usdc",
              "type": "address"
            },
            {
              "internalType": "address",
              "name": "bal",
              "type": "address"
            },
            {
              "internalType": "address",
              "name": "bbamUsdc",
              "type": "address"
            },
            {
              "internalType": "address",
              "name": "bbamUsdt",
              "type": "address"
            },
            {
              "internalType": "address",
              "name": "bbamDai",
              "type": "address"
            },
            {
              "internalType": "address",
              "name": "bpt",
              "type": "address"
            },
            {
              "internalType": "address",
              "name": "vault",
              "type": "address"
            },
            {
              "internalType": "address",
              "name": "gauge",
              "type": "address"
            },
            {
              "internalType": "bytes32",
              "name": "bbamUsdcPoolId",
              "type": "bytes32"
            },
            {
              "internalType": "bytes32",
              "name": "bbamUsdPoolId",
              "type": "bytes32"
            },
            {
              "internalType": "bytes32",
              "name": "balPoolId",
              "type": "bytes32"
            },
            {
              "internalType": "address",
              "name": "oracleUsdc",
              "type": "address"
            },
            {
              "internalType": "address",
              "name": "oracleUsdt",
              "type": "address"
            },
            {
              "internalType": "address",
              "name": "oracleDai",
              "type": "address"
            },
            {
              "internalType": "uint256",
              "name": "swapSlippageBp",
              "type": "uint256"
            },
            {
              "internalType": "uint256",
              "name": "allowedSlippageBp",
              "type": "uint256"
            }
          ],
          "internalType": "struct StrategyBalancerUsdc.StrategyParams",
          "name": "params",
          "type": "tuple"
        }
      ],
      "name": "setParams",
      "outputs": [],
      "stateMutability": "nonpayable",
      "type": "function"
    },
    {
      "inputs": [
        {
          "internalType": "address",
          "name": "_value",
          "type": "address"
        }
      ],
      "name": "setPortfolioManager",
      "outputs": [],
      "stateMutability": "nonpayable",
      "type": "function"
    },
    {
      "inputs": [
        {
          "internalType": "address",
          "name": "_asset",
          "type": "address"
        },
        {
          "internalType": "uint256",
          "name": "_amount",
          "type": "uint256"
        }
      ],
      "name": "stake",
      "outputs": [],
      "stateMutability": "nonpayable",
      "type": "function"
    },
    {
      "inputs": [
        {
          "internalType": "bytes4",
          "name": "interfaceId",
          "type": "bytes4"
        }
      ],
      "name": "supportsInterface",
      "outputs": [
        {
          "internalType": "bool",
          "name": "",
          "type": "bool"
        }
      ],
      "stateMutability": "view",
      "type": "function"
    },
    {
      "inputs": [],
      "name": "swapSlippageBp",
      "outputs": [
        {
          "internalType": "uint256",
          "name": "",
          "type": "uint256"
        }
      ],
      "stateMutability": "view",
      "type": "function"
    },
    {
      "inputs": [
        {
          "internalType": "address",
          "name": "_asset",
          "type": "address"
        },
        {
          "internalType": "uint256",
          "name": "_amount",
          "type": "uint256"
        },
        {
          "internalType": "address",
          "name": "_beneficiary",
          "type": "address"
        },
        {
          "internalType": "bool",
          "name": "_targetIsZero",
          "type": "bool"
        }
      ],
      "name": "unstake",
      "outputs": [
        {
          "internalType": "uint256",
          "name": "",
          "type": "uint256"
        }
      ],
      "stateMutability": "nonpayable",
      "type": "function"
    },
    {
      "inputs": [
        {
          "internalType": "address",
          "name": "newImplementation",
          "type": "address"
        }
      ],
      "name": "upgradeTo",
      "outputs": [],
      "stateMutability": "nonpayable",
      "type": "function"
    },
    {
      "inputs": [
        {
          "internalType": "address",
          "name": "newImplementation",
          "type": "address"
        },
        {
          "internalType": "bytes",
          "name": "data",
          "type": "bytes"
        }
      ],
      "name": "upgradeToAndCall",
      "outputs": [],
      "stateMutability": "payable",
      "type": "function"
    },
    {
      "inputs": [],
      "name": "usdc",
      "outputs": [
        {
          "internalType": "contract IERC20",
          "name": "",
          "type": "address"
        }
      ],
      "stateMutability": "view",
      "type": "function"
    },
    {
      "inputs": [],
      "name": "vault",
      "outputs": [
        {
          "internalType": "contract IVault",
          "name": "",
          "type": "address"
        }
      ],
      "stateMutability": "view",
      "type": "function"
    }
  ],
  "numDeployments": 2,
  "solcInputHash": "2ad7aa72982a621d4527670c4292b4a9",
  "bytecode": "0x60a06040523060601b6080523480156200001857600080fd5b50600054610100900460ff16158080156200003a5750600054600160ff909116105b806200006a575062000057306200014460201b620013701760201c565b1580156200006a575060005460ff166001145b620000d25760405162461bcd60e51b815260206004820152602e60248201527f496e697469616c697a61626c653a20636f6e747261637420697320616c72656160448201526d191e481a5b9a5d1a585b1a5e995960921b606482015260840160405180910390fd5b6000805460ff191660011790558015620000f6576000805461ff0019166101001790555b80156200013d576000805461ff0019169055604051600181527f7f26b83ff96e1f2b6a682f133852f6798a09c465da95921460cefb38474024989060200160405180910390a15b5062000153565b6001600160a01b03163b151590565b60805160601c6142466200018e6000396000818161089e015281816108de0152818161097e015281816109be0152610a4d01526142466000f3fe60806040526004361061023b5760003560e01c80637b73aa4e1161012e578063a6f19c84116100ab578063ef5cfb8c1161006f578063ef5cfb8c1461067c578063f6f6b8811461069c578063f72c0d8b146106bc578063facc7330146106f0578063fbfa77cf1461071057600080fd5b8063a6f19c84146105e3578063adc9772e14610604578063cc6522c314610624578063d547741f14610645578063ed37b3691461066557600080fd5b80638547598a116100f25780638547598a1461057757806391d148541461058e578063a217fddf146105ae578063a3673b38146102ca578063a440b21a146105c357600080fd5b80637b73aa4e146104f35780637d5f5802146105085780637e7316381461052a5780637fe7cc1e1461054b5780638129fc1c1461056257600080fd5b80634f1ef286116101bc5780635fea9cbb116101805780635fea9cbb14610459578063608961841461047a578063620b75df1461049b57806365586452146104bb57806378f9b56d146104d257600080fd5b80634f1ef286146103bb57806352d1902d146103ce578063546af3c3146103e35780635dbd733a146104045780635f07c5f31461043857600080fd5b80633111170811610203578063311117081461030157806336568abe146103215780633659cfe6146103415780633d79d1c8146103615780633e413bee1461039a57600080fd5b806301ffc9a7146102405780631187f47914610275578063248a9ca31461029a5780632576e65a146102ca5780632f2ff15d146102df575b600080fd5b34801561024c57600080fd5b5061026061025b366004613a3d565b610731565b60405190151581526020015b60405180910390f35b34801561028157600080fd5b5061028c6101365481565b60405190815260200161026c565b3480156102a657600080fd5b5061028c6102b53660046139db565b60009081526065602052604090206001015490565b3480156102d657600080fd5b5061028c610768565b3480156102eb57600080fd5b506102ff6102fa366004613a0d565b610777565b005b34801561030d57600080fd5b506102ff61031c3660046139db565b6107a1565b34801561032d57600080fd5b506102ff61033c366004613a0d565b610815565b34801561034d57600080fd5b506102ff61035c36600461370d565b610893565b34801561036d57600080fd5b5061012e54610382906001600160a01b031681565b6040516001600160a01b03909116815260200161026c565b3480156103a657600080fd5b5061012d54610382906001600160a01b031681565b6102ff6103c936600461372a565b610973565b3480156103da57600080fd5b5061028c610a40565b3480156103ef57600080fd5b5061013254610382906001600160a01b031681565b34801561041057600080fd5b5061028c7fd67ad422505496469a1adf6cdf9e5ee92ac5d33992843c9ecc4b2f6d6cde913781565b34801561044457600080fd5b5061013a54610382906001600160a01b031681565b34801561046557600080fd5b5061013854610382906001600160a01b031681565b34801561048657600080fd5b5061013154610382906001600160a01b031681565b3480156104a757600080fd5b5060fb54610382906001600160a01b031681565b3480156104c757600080fd5b5061028c6101375481565b3480156104de57600080fd5b5061012f54610382906001600160a01b031681565b3480156104ff57600080fd5b506102ff610af3565b34801561051457600080fd5b5061028c6000805160206141aa83398151915281565b34801561053657600080fd5b5061013054610382906001600160a01b031681565b34801561055757600080fd5b5061028c61013c5481565b34801561056e57600080fd5b506102ff610b29565b34801561058357600080fd5b5061028c61013b5481565b34801561059a57600080fd5b506102606105a9366004613a0d565b610bec565b3480156105ba57600080fd5b5061028c600081565b3480156105cf57600080fd5b506102ff6105de36600461370d565b610c17565b3480156105ef57600080fd5b5061013454610382906001600160a01b031681565b34801561061057600080fd5b506102ff61061f3660046137d2565b610d46565b34801561063057600080fd5b5061013954610382906001600160a01b031681565b34801561065157600080fd5b506102ff610660366004613a0d565b610e33565b34801561067157600080fd5b5061028c6101355481565b34801561068857600080fd5b5061028c61069736600461370d565b610e58565b3480156106a857600080fd5b5061028c6106b73660046137fe565b610eda565b3480156106c857600080fd5b5061028c7f189ab7a9244df0848122154315af71fe140f3db0fe014031783b0946b8c9d2e381565b3480156106fc57600080fd5b506102ff61070b366004613a67565b6110a5565b34801561071c57600080fd5b5061013354610382906001600160a01b031681565b60006001600160e01b03198216637965db0b60e01b148061076257506301ffc9a760e01b6001600160e01b03198316145b92915050565b600061077261137f565b905090565b60008281526065602052604090206001015461079281611492565b61079c838361149c565b505050565b6107b96000805160206141aa83398151915233610bec565b6107de5760405162461bcd60e51b81526004016107d590613d6a565b60405180910390fd5b6040518181527ff00d5f5126966481831a71a9d79a9b3af67c4a1a35637b992c7e465a7e465b71906020015b60405180910390a150565b6001600160a01b03811633146108855760405162461bcd60e51b815260206004820152602f60248201527f416363657373436f6e74726f6c3a2063616e206f6e6c792072656e6f756e636560448201526e103937b632b9903337b91039b2b63360891b60648201526084016107d5565b61088f8282611522565b5050565b306001600160a01b037f00000000000000000000000000000000000000000000000000000000000000001614156108dc5760405162461bcd60e51b81526004016107d590613da1565b7f00000000000000000000000000000000000000000000000000000000000000006001600160a01b03166109256000805160206141ca833981519152546001600160a01b031690565b6001600160a01b03161461094b5760405162461bcd60e51b81526004016107d590613ded565b61095481611589565b60408051600080825260208201909252610970918391906115b3565b50565b306001600160a01b037f00000000000000000000000000000000000000000000000000000000000000001614156109bc5760405162461bcd60e51b81526004016107d590613da1565b7f00000000000000000000000000000000000000000000000000000000000000006001600160a01b0316610a056000805160206141ca833981519152546001600160a01b031690565b6001600160a01b031614610a2b5760405162461bcd60e51b81526004016107d590613ded565b610a3482611589565b61088f828260016115b3565b6000306001600160a01b037f00000000000000000000000000000000000000000000000000000000000000001614610ae05760405162461bcd60e51b815260206004820152603860248201527f555550535570677261646561626c653a206d757374206e6f742062652063616c60448201527f6c6564207468726f7567682064656c656761746563616c6c000000000000000060648201526084016107d5565b506000805160206141ca83398151915290565b610b0b6000805160206141aa83398151915233610bec565b610b275760405162461bcd60e51b81526004016107d590613d6a565b565b600054610100900460ff1615808015610b495750600054600160ff909116105b80610b635750303b158015610b63575060005460ff166001145b610b7f5760405162461bcd60e51b81526004016107d590613e85565b6000805460ff191660011790558015610ba2576000805461ff0019166101001790555b610baa61172d565b8015610970576000805461ff0019169055604051600181527f7f26b83ff96e1f2b6a682f133852f6798a09c465da95921460cefb38474024989060200161080a565b60009182526065602090815260408084206001600160a01b0393909316845291905290205460ff1690565b610c22600033610bec565b610c655760405162461bcd60e51b81526020600482015260146024820152735265737472696374656420746f2061646d696e7360601b60448201526064016107d5565b6001600160a01b038116610cbb5760405162461bcd60e51b815260206004820152601860248201527f5a65726f2061646472657373206e6f7420616c6c6f776564000000000000000060448201526064016107d5565b60fb54610ce0906000805160206141aa833981519152906001600160a01b0316610e33565b610cf86000805160206141aa83398151915282610777565b60fb80546001600160a01b0319166001600160a01b0383169081179091556040519081527ff7b449fcd5cfb7379dcd34cb69428dd9f882033b15be33d83b42d91daa28eeb79060200161080a565b610d5e6000805160206141aa83398151915233610bec565b610d7a5760405162461bcd60e51b81526004016107d590613d6a565b6040516370a0823160e01b8152306004820152610dfc9083906001600160a01b038216906370a082319060240160206040518083038186803b158015610dbf57600080fd5b505afa158015610dd3573d6000803e3d6000fd5b505050506040513d601f19601f82011682018060405250810190610df791906139f4565b6117eb565b6040518181527f227a473b70d2f893cc7659219575c030a63b5743024fe1e0c1a680e708b1525a9060200160405180910390a15050565b600082815260656020526040902060010154610e4e81611492565b61079c8383611522565b6000610e726000805160206141aa83398151915233610bec565b610e8e5760405162461bcd60e51b81526004016107d590613d6a565b6000610e9983611ea2565b90508015610762576040518181527f3ac0594a85a20354f9dc74f33728416d19ce00d04a406c108cc2dcf2cecea1349060200160405180910390a192915050565b6000610ef46000805160206141aa83398151915233610bec565b610f105760405162461bcd60e51b81526004016107d590613d6a565b60008215610f71576000610f2385611ea2565b90508015610f5f576040518181527f3ac0594a85a20354f9dc74f33728416d19ce00d04a406c108cc2dcf2cecea1349060200160405180910390a15b610f6987866120f2565b915050610fe0565b610f7c8686866121b3565b905084811015610fe05760405162461bcd60e51b815260206004820152602960248201527f52657475726e65642076616c7565206c657373207468616e2072657175657374604482015268195908185b5bdd5b9d60ba1b60648201526084016107d5565b60405163a9059cbb60e01b81526001600160a01b0385811660048301526024820183905287169063a9059cbb90604401602060405180830381600087803b15801561102a57600080fd5b505af115801561103e573d6000803e3d6000fd5b505050506040513d601f19601f8201168201806040525081019061106291906139be565b5060408051868152602081018390527f9045c2ac9b2026de8075f2701bbdde882cd5e830b3b1ead9a15b22f2b5b93742910160405180910390a195945050505050565b6110b0600033610bec565b6110f35760405162461bcd60e51b81526020600482015260146024820152735265737472696374656420746f2061646d696e7360601b60448201526064016107d5565b611100602082018261370d565b61012d80546001600160a01b0319166001600160a01b0392909216919091179055611131604082016020830161370d565b61012e80546001600160a01b0319166001600160a01b0392909216919091179055611162606082016040830161370d565b61012f80546001600160a01b0319166001600160a01b0392909216919091179055611193608082016060830161370d565b61013080546001600160a01b0319166001600160a01b03929092169190911790556111c460a082016080830161370d565b61013180546001600160a01b0319166001600160a01b03929092169190911790556111f560c0820160a0830161370d565b61013280546001600160a01b0319166001600160a01b039290921691909117905561122660e0820160c0830161370d565b61013380546001600160a01b0319166001600160a01b0392909216919091179055611258610100820160e0830161370d565b61013480546001600160a01b0319166001600160a01b03929092169190911790556101008101356101355561012081013561013655610140810135610137556112a96101808201610160830161370d565b61013880546001600160a01b0319166001600160a01b03929092169190911790556112dc6101a08201610180830161370d565b61013980546001600160a01b0319166001600160a01b039290921691909117905561130f6101c082016101a0830161370d565b61013a80546001600160a01b0319166001600160a01b03929092169190911790556101c081013561013b556101e081013561013c556040517fea5646eb3528e525944447a4a97de700dd472298626e5c0481d1c82c3da86ea590600090a150565b6001600160a01b03163b151590565b610134546040516370a0823160e01b815230600482015260009182916001600160a01b03909116906370a082319060240160206040518083038186803b1580156113c857600080fd5b505afa1580156113dc573d6000803e3d6000fd5b505050506040513d601f19601f8201168201806040525081019061140091906139f4565b9050806114895761012d546040516370a0823160e01b81523060048201526001600160a01b03909116906370a082319060240160206040518083038186803b15801561144b57600080fd5b505afa15801561145f573d6000803e3d6000fd5b505050506040513d601f19601f8201168201806040525081019061148391906139f4565b91505090565b6114838161224a565b610970813361282a565b6114a68282610bec565b61088f5760008281526065602090815260408083206001600160a01b03851684529091529020805460ff191660011790556114de3390565b6001600160a01b0316816001600160a01b0316837f2f8788117e7eff1d82e926ec794901d17c78024a50270940304540a733656f0d60405160405180910390a45050565b61152c8282610bec565b1561088f5760008281526065602090815260408083206001600160a01b0385168085529252808320805460ff1916905551339285917ff6391f5c32d9c69d2a47ea670b442974b53935d1edc7fd64eb21e047a839171b9190a45050565b7f189ab7a9244df0848122154315af71fe140f3db0fe014031783b0946b8c9d2e361088f81611492565b7f4910fdfa16fed3260ed0e7147f7cc6da11a60208b5b9406d12a635614ffd91435460ff16156115e65761079c8361288e565b826001600160a01b03166352d1902d6040518163ffffffff1660e01b815260040160206040518083038186803b15801561161f57600080fd5b505afa92505050801561164f575060408051601f3d908101601f1916820190925261164c918101906139f4565b60015b6116b25760405162461bcd60e51b815260206004820152602e60248201527f45524331393637557067726164653a206e657720696d706c656d656e7461746960448201526d6f6e206973206e6f74205555505360901b60648201526084016107d5565b6000805160206141ca83398151915281146117215760405162461bcd60e51b815260206004820152602960248201527f45524331393637557067726164653a20756e737570706f727465642070726f786044820152681a58589b195555525160ba1b60648201526084016107d5565b5061079c83838361292a565b600054610100900460ff161580801561174d5750600054600160ff909116105b806117675750303b158015611767575060005460ff166001145b6117835760405162461bcd60e51b81526004016107d590613e85565b6000805460ff1916600117905580156117a6576000805461ff0019166101001790555b6117ae612955565b6117b6612955565b6117c160003361149c565b610baa7f189ab7a9244df0848122154315af71fe140f3db0fe014031783b0946b8c9d2e33361149c565b61012d546001600160a01b038381169116146118195760405162461bcd60e51b81526004016107d590613ed3565b600061182f61182661137f565b61013c546129c0565b61012d546040516370a0823160e01b81523060048201529192506000916001600160a01b03909116906370a082319060240160206040518083038186803b15801561187957600080fd5b505afa15801561188d573d6000803e3d6000fd5b505050506040513d601f19601f820116820180604052508101906118b191906139f4565b9050600061196961012f60009054906101000a90046001600160a01b03166001600160a01b031663679aefce6040518163ffffffff1660e01b815260040160206040518083038186803b15801561190757600080fd5b505afa15801561191b573d6000803e3d6000fd5b505050506040513d601f19601f8201168201806040525081019061193f91906139f4565b611956846c0c9f2c9cd04674edea4000000061407d565b611960919061405b565b61013b546129c0565b6101335461012d5461012f546101355493945061199d936001600160a01b03938416936000938116921690878730806129e3565b506101335461013654604051631f29a8cd60e31b815260048101919091526000916001600160a01b03169063f94d46689060240160006040518083038186803b1580156119e957600080fd5b505afa1580156119fd573d6000803e3d6000fd5b505050506040513d6000823e601f3d908101601f19168201604052611a259190810190613851565b505060408051600480825260a082019092529192506000919060208201608080368337505060408051600480825260a0820190925292935060009291506020820160808036833750506040805160038082526080820190925292935060009291506020820160608036833701905050905060005b8451811015611af857848181518110611ab457611ab461415a565b6020026020010151848281518110611ace57611ace61415a565b6001600160a01b039092166020928302919091019091015280611af0816140f6565b915050611a99565b5061012f546040516370a0823160e01b81523060048201526000916001600160a01b0316906370a082319060240160206040518083038186803b158015611b3e57600080fd5b505afa158015611b52573d6000803e3d6000fd5b505050506040513d601f19601f82011682018060405250810190611b7691906139f4565b90508083600281518110611b8c57611b8c61415a565b6020026020010181815250508082600181518110611bac57611bac61415a565b6020026020010181815250506000600190506000600190506000828583604051602001611bdb93929190613fc5565b60408051808303601f19018152608083018252898352602083018990528282018190526000606084015261012f5461013354925163095ea7b360e01b81526001600160a01b03938416600482015260248101899052919450919091169063095ea7b390604401602060405180830381600087803b158015611c5b57600080fd5b505af1158015611c6f573d6000803e3d6000fd5b505050506040513d601f19601f82011682018060405250810190611c9391906139be565b50610133546101365460405163172b958560e31b81526001600160a01b039092169163b95cac2891611ccd91309081908790600401613c34565b600060405180830381600087803b158015611ce757600080fd5b505af1158015611cfb573d6000803e3d6000fd5b5050610132546040516370a0823160e01b8152306004820152600093506001600160a01b0390911691506370a082319060240160206040518083038186803b158015611d4657600080fd5b505afa158015611d5a573d6000803e3d6000fd5b505050506040513d601f19601f82011682018060405250810190611d7e91906139f4565b610132546101345460405163095ea7b360e01b81526001600160a01b03918216600482015260248101849052929350169063095ea7b390604401602060405180830381600087803b158015611dd257600080fd5b505af1158015611de6573d6000803e3d6000fd5b505050506040513d601f19601f82011682018060405250810190611e0a91906139be565b506101345460405163b6b55f2560e01b8152600481018390526001600160a01b039091169063b6b55f2590602401600060405180830381600087803b158015611e5257600080fd5b505af1158015611e66573d6000803e3d6000fd5b505050508c611e7361137f565b1015611e915760405162461bcd60e51b81526004016107d590613e39565b505050505050505050505050505050565b610134546040516370a0823160e01b815230600482015260009182916001600160a01b03909116906370a082319060240160206040518083038186803b158015611eeb57600080fd5b505afa158015611eff573d6000803e3d6000fd5b505050506040513d601f19601f82011682018060405250810190611f2391906139f4565b1115611f935761013460009054906101000a90046001600160a01b03166001600160a01b031663e6f1daf26040518163ffffffff1660e01b8152600401600060405180830381600087803b158015611f7a57600080fd5b505af1158015611f8e573d6000803e3d6000fd5b505050505b61012e546040516370a0823160e01b815230600482015260009182916001600160a01b03909116906370a082319060240160206040518083038186803b158015611fdc57600080fd5b505afa158015611ff0573d6000803e3d6000fd5b505050506040513d601f19601f8201168201806040525081019061201491906139f4565b9050801561205c576101335461012e5461012d546101375461204f936001600160a01b039081169360009390821692911690868430806129e3565b6120599083614043565b91505b81156120eb5761012d5460405163a9059cbb60e01b81526001600160a01b038681166004830152602482018590529091169063a9059cbb90604401602060405180830381600087803b1580156120b157600080fd5b505af11580156120c5573d6000803e3d6000fd5b505050506040513d601f19601f820116820180604052508101906120e991906139be565b505b5092915050565b61012d546000906001600160a01b038481169116146121235760405162461bcd60e51b81526004016107d590613ed3565b610134546040516370a0823160e01b81523060048201526000916001600160a01b0316906370a082319060240160206040518083038186803b15801561216857600080fd5b505afa15801561217c573d6000803e3d6000fd5b505050506040513d601f19601f820116820180604052508101906121a091906139f4565b90506121ab81612b9d565b949350505050565b61012d546000906001600160a01b038581169116146121e45760405162461bcd60e51b81526004016107d590613ed3565b6101335461012d5461012f5461013254610135546101365461013b54600096612234966001600160a01b039182169689969183169590831694919092169261222d908d90613017565b3030613026565b905061223f81612b9d565b9150505b9392505050565b60008061013260009054906101000a90046001600160a01b03166001600160a01b031663876f303b6040518163ffffffff1660e01b815260040160206040518083038186803b15801561229c57600080fd5b505afa1580156122b0573d6000803e3d6000fd5b505050506040513d601f19601f820116820180604052508101906122d491906139f4565b61012d546040516370a0823160e01b81523060048201529192506000916001600160a01b03909116906370a082319060240160206040518083038186803b15801561231e57600080fd5b505afa158015612332573d6000803e3d6000fd5b505050506040513d601f19601f8201168201806040525081019061235691906139f4565b6101335461013654604051631f29a8cd60e31b8152600481019190915291925060009182916001600160a01b03169063f94d46689060240160006040518083038186803b1580156123a657600080fd5b505afa1580156123ba573d6000803e3d6000fd5b505050506040513d6000823e601f3d908101601f191682016040526123e29190810190613851565b509150915060005b825181101561281f5760008382815181106124075761240761415a565b60200260200101519050600086898585815181106124275761242761415a565b6020026020010151612439919061407d565b612443919061405b565b61012f549091506001600160a01b038381169116141561250e5761012f54604080516333cd77e760e11b815290516c0c9f2c9cd04674edea40000000926001600160a01b03169163679aefce916004808301926020929190829003018186803b1580156124af57600080fd5b505afa1580156124c3573d6000803e3d6000fd5b505050506040513d601f19601f820116820180604052508101906124e791906139f4565b6124f1908361407d565b6124fb919061405b565b90506125078187614043565b955061280a565b610130546001600160a01b03838116911614156126eb5761013054604080516333cd77e760e11b815290516c0c9f2c9cd04674edea40000000926001600160a01b03169163679aefce916004808301926020929190829003018186803b15801561257757600080fd5b505afa15801561258b573d6000803e3d6000fd5b505050506040513d601f19601f820116820180604052508101906125af91906139f4565b6125b9908361407d565b6125c3919061405b565b90506126e181620f42408061013960009054906101000a90046001600160a01b03166001600160a01b03166350d25bcd6040518163ffffffff1660e01b815260040160206040518083038186803b15801561261d57600080fd5b505afa158015612631573d6000803e3d6000fd5b505050506040513d601f19601f8201168201806040525081019061265591906139f4565b61013860009054906101000a90046001600160a01b03166001600160a01b03166350d25bcd6040518163ffffffff1660e01b815260040160206040518083038186803b1580156126a457600080fd5b505afa1580156126b8573d6000803e3d6000fd5b505050506040513d601f19601f820116820180604052508101906126dc91906139f4565b61335d565b6125079087614043565b610131546001600160a01b038381169116141561280a5761013154604080516333cd77e760e11b81529051670de0b6b3a7640000926001600160a01b03169163679aefce916004808301926020929190829003018186803b15801561274f57600080fd5b505afa158015612763573d6000803e3d6000fd5b505050506040513d601f19601f8201168201806040525081019061278791906139f4565b612791908361407d565b61279b919061405b565b90506127fd81670de0b6b3a7640000620f424061013a60009054906101000a90046001600160a01b03166001600160a01b03166350d25bcd6040518163ffffffff1660e01b815260040160206040518083038186803b15801561261d57600080fd5b6128079087614043565b95505b50508080612817906140f6565b9150506123ea565b509195945050505050565b6128348282610bec565b61088f5761284c816001600160a01b03166014613392565b612857836020613392565b604051602001612868929190613bbf565b60408051601f198184030181529082905262461bcd60e51b82526107d591600401613d57565b6001600160a01b0381163b6128fb5760405162461bcd60e51b815260206004820152602d60248201527f455243313936373a206e657720696d706c656d656e746174696f6e206973206e60448201526c1bdd08184818dbdb9d1c9858dd609a1b60648201526084016107d5565b6000805160206141ca83398151915280546001600160a01b0319166001600160a01b0392909216919091179055565b6129338361352e565b6000825111806129405750805b1561079c5761294f838361356e565b50505050565b600054610100900460ff16610b275760405162461bcd60e51b815260206004820152602b60248201527f496e697469616c697a61626c653a20636f6e7472616374206973206e6f74206960448201526a6e697469616c697a696e6760a81b60648201526084016107d5565b60006127106129cf838261409c565b6129d9908561407d565b612243919061405b565b60405163095ea7b360e01b81526001600160a01b038a81166004830152602482018690526000919089169063095ea7b390604401602060405180830381600087803b158015612a3157600080fd5b505af1158015612a45573d6000803e3d6000fd5b505050506040513d601f19601f82011682018060405250810190612a6991906139be565b5060006040518060c001604052808881526020018b6001811115612a8f57612a8f614144565b81526001600160a01b03808c1660208301528a1660408201526060810188905260800160006040519080825280601f01601f191660200182016040528015612ade576020820181803683370190505b509052604080516080810182526001600160a01b03808816825260006020830181905287821683850152606083015291516352bbbe2960e01b815292935091908d16906352bbbe2990612b3b90859085908b904290600401613f0a565b602060405180830381600087803b158015612b5557600080fd5b505af1158015612b69573d6000803e3d6000fd5b505050506040513d601f19601f82011682018060405250810190612b8d91906139f4565b9c9b505050505050505050505050565b600080612bab61182661137f565b61013454604051632e1a7d4d60e01b8152600481018690529192506001600160a01b031690632e1a7d4d90602401600060405180830381600087803b158015612bf357600080fd5b505af1158015612c07573d6000803e3d6000fd5b505050506000612c168461224a565b60408051600480825260a082019092529192506000919060208201608080368337505060408051600480825260a0820190925292935060009291506020820160808036833750506101335461013654604051631f29a8cd60e31b815260048101919091529293506000926001600160a01b03909116915063f94d46689060240160006040518083038186803b158015612cae57600080fd5b505afa158015612cc2573d6000803e3d6000fd5b505050506040513d6000823e601f3d908101601f19168201604052612cea9190810190613851565b5050905060005b8151811015612d5057818181518110612d0c57612d0c61415a565b6020026020010151848281518110612d2657612d2661415a565b6001600160a01b039092166020928302919091019091015280612d48816140f6565b915050612cf1565b506040805160006020820181905291810189905260016060820181905290829060800160408051601f19818403018152608083018252888352602083018890528282018190526000606084015261013354610136549251638bdb391360e01b81529194506001600160a01b031691638bdb391391612dd79190309081908790600401613c34565b600060405180830381600087803b158015612df157600080fd5b505af1158015612e05573d6000803e3d6000fd5b505061012f546040516370a0823160e01b8152306004820152600093506001600160a01b0390911691506370a082319060240160206040518083038186803b158015612e5057600080fd5b505afa158015612e64573d6000803e3d6000fd5b505050506040513d601f19601f82011682018060405250810190612e8891906139f4565b90506000612f2e6c0c9f2c9cd04674edea4000000061012f60009054906101000a90046001600160a01b03166001600160a01b031663679aefce6040518163ffffffff1660e01b815260040160206040518083038186803b158015612eec57600080fd5b505afa158015612f00573d6000803e3d6000fd5b505050506040513d601f19601f82011682018060405250810190612f2491906139f4565b611956908561407d565b6101335461012f5461012d5461013554939450612f62936001600160a01b03938416936000938116921690878730806129e3565b508a612f6c61137f565b1015612f8a5760405162461bcd60e51b81526004016107d590613e39565b61012d546040516370a0823160e01b81523060048201526001600160a01b03909116906370a082319060240160206040518083038186803b158015612fce57600080fd5b505afa158015612fe2573d6000803e3d6000fd5b505050506040513d601f19601f8201168201806040525081019061300691906139f4565b9d9c50505050505050505050505050565b60006127106129cf8382614043565b60408051600280825260608201909252600091829190816020015b6130766040518060a0016040528060008019168152602001600081526020016000815260200160008152602001606081525090565b8152602001906001900390816130415790505090506040518060a001604052808881526020016000815260200160018152602001868152602001600067ffffffffffffffff8111156130ca576130ca614170565b6040519080825280601f01601f1916602001820160405280156130f4576020820181803683370190505b508152508160008151811061310b5761310b61415a565b60200260200101819052506040518060a00160405280878152602001600181526020016002815260200160008152602001600067ffffffffffffffff81111561315657613156614170565b6040519080825280601f01601f191660200182016040528015613180576020820181803683370190505b50815250816001815181106131975761319761415a565b6020908102919091010152604080516003808252608082019092526000918160200160208202803683370190505090508a816000815181106131db576131db61415a565b60200260200101906001600160a01b031690816001600160a01b031681525050898160018151811061320f5761320f61415a565b60200260200101906001600160a01b031690816001600160a01b03168152505088816002815181106132435761324361415a565b60200260200101906001600160a01b031690816001600160a01b03168152505060006040518060800160405280876001600160a01b03168152602001600015158152602001866001600160a01b031681526020016000151581525090508d6001600160a01b031663f84d066e8e8585856040518563ffffffff1660e01b81526004016132d29493929190613c66565b600060405180830381600087803b1580156132ec57600080fd5b505af1158015613300573d6000803e3d6000fd5b505050506040513d6000823e601f3d908101601f191682016040526133289190810190613926565b60028151811061333a5761333a61415a565b602002602001015161334b90614111565b9e9d5050505050505050505050505050565b6000613369828661407d565b83613374868961407d565b61337e919061407d565b613388919061405b565b9695505050505050565b606060006133a183600261407d565b6133ac906002614043565b67ffffffffffffffff8111156133c4576133c4614170565b6040519080825280601f01601f1916602001820160405280156133ee576020820181803683370190505b509050600360fc1b816000815181106134095761340961415a565b60200101906001600160f81b031916908160001a905350600f60fb1b816001815181106134385761343861415a565b60200101906001600160f81b031916908160001a905350600061345c84600261407d565b613467906001614043565b90505b60018111156134df576f181899199a1a9b1b9c1cb0b131b232b360811b85600f166010811061349b5761349b61415a565b1a60f81b8282815181106134b1576134b161415a565b60200101906001600160f81b031916908160001a90535060049490941c936134d8816140df565b905061346a565b5083156122435760405162461bcd60e51b815260206004820181905260248201527f537472696e67733a20686578206c656e67746820696e73756666696369656e7460448201526064016107d5565b6135378161288e565b6040516001600160a01b038216907fbc7cd75a20ee27fd9adebab32041f755214dbc6bffa90cc0225b39da2e5c2d3b90600090a250565b60606001600160a01b0383163b6135d65760405162461bcd60e51b815260206004820152602660248201527f416464726573733a2064656c65676174652063616c6c20746f206e6f6e2d636f6044820152651b9d1c9858dd60d21b60648201526084016107d5565b600080846001600160a01b0316846040516135f19190613ba3565b600060405180830381855af49150503d806000811461362c576040519150601f19603f3d011682016040523d82523d6000602084013e613631565b606091505b509150915061365982826040518060600160405280602781526020016141ea60279139613662565b95945050505050565b60608315613671575081612243565b8251156136815782518084602001fd5b8160405162461bcd60e51b81526004016107d59190613d57565b600082601f8301126136ac57600080fd5b815160206136c16136bc8361401f565b613fee565b80838252828201915082860187848660051b89010111156136e157600080fd5b60005b85811015613700578151845292840192908401906001016136e4565b5090979650505050505050565b60006020828403121561371f57600080fd5b813561224381614186565b6000806040838503121561373d57600080fd5b823561374881614186565b915060208381013567ffffffffffffffff8082111561376657600080fd5b818601915086601f83011261377a57600080fd5b81358181111561378c5761378c614170565b61379e601f8201601f19168501613fee565b915080825287848285010111156137b457600080fd5b80848401858401376000848284010152508093505050509250929050565b600080604083850312156137e557600080fd5b82356137f081614186565b946020939093013593505050565b6000806000806080858703121561381457600080fd5b843561381f81614186565b935060208501359250604085013561383681614186565b915060608501356138468161419b565b939692955090935050565b60008060006060848603121561386657600080fd5b835167ffffffffffffffff8082111561387e57600080fd5b818601915086601f83011261389257600080fd5b815160206138a26136bc8361401f565b8083825282820191508286018b848660051b89010111156138c257600080fd5b600096505b848710156138ee5780516138da81614186565b8352600196909601959183019183016138c7565b509189015191975090935050508082111561390857600080fd5b506139158682870161369b565b925050604084015190509250925092565b6000602080838503121561393957600080fd5b825167ffffffffffffffff81111561395057600080fd5b8301601f8101851361396157600080fd5b805161396f6136bc8261401f565b80828252848201915084840188868560051b870101111561398f57600080fd5b600094505b838510156139b2578051835260019490940193918501918501613994565b50979650505050505050565b6000602082840312156139d057600080fd5b81516122438161419b565b6000602082840312156139ed57600080fd5b5035919050565b600060208284031215613a0657600080fd5b5051919050565b60008060408385031215613a2057600080fd5b823591506020830135613a3281614186565b809150509250929050565b600060208284031215613a4f57600080fd5b81356001600160e01b03198116811461224357600080fd5b60006102008284031215613a7a57600080fd5b50919050565b600081518084526020808501945080840160005b83811015613ab95781516001600160a01b031687529582019590820190600101613a94565b509495945050505050565b600081518084526020808501945080840160005b83811015613ab957815187529582019590820190600101613ad8565b60008151808452613b0c8160208601602086016140b3565b601f01601f19169290920160200192915050565b60028110613b3e57634e487b7160e01b600052602160045260246000fd5b9052565b6000815160808452613b576080850182613a80565b905060208301518482036020860152613b708282613ac4565b91505060408301518482036040860152613b8a8282613af4565b9150506060830151151560608501528091505092915050565b60008251613bb58184602087016140b3565b9190910192915050565b7f416363657373436f6e74726f6c3a206163636f756e7420000000000000000000815260008351613bf78160178501602088016140b3565b7001034b99036b4b9b9b4b733903937b6329607d1b6017918401918201528351613c288160288401602088016140b3565b01602801949350505050565b8481526001600160a01b0384811660208301528316604082015260806060820181905260009061338890830184613b42565b600060e08201613c768388613b20565b602060e08185015281875180845261010093508386019150838160051b870101935082890160005b82811015613d005787860360ff190184528151805187528581015186880152604080820151908801526060808201519088015260809081015160a091880182905290613cec81890183613af4565b975050509284019290840190600101613c9e565b50505050508281036040840152613d178186613a80565b915050613659606083018480516001600160a01b039081168352602080830151151590840152604080830151909116908301526060908101511515910152565b6020815260006122436020830184613af4565b6020808252601f908201527f5265737472696374656420746f20504f5254464f4c494f5f4d414e4147455200604082015260600190565b6020808252602c908201527f46756e6374696f6e206d7573742062652063616c6c6564207468726f7567682060408201526b19195b1959d85d1958d85b1b60a21b606082015260800190565b6020808252602c908201527f46756e6374696f6e206d7573742062652063616c6c6564207468726f7567682060408201526b6163746976652070726f787960a01b606082015260800190565b6020808252602c908201527f537472617465677942616c616e636572557364633a204e4156206c657373207460408201526b1a185b88195e1c1958dd195960a21b606082015260800190565b6020808252602e908201527f496e697469616c697a61626c653a20636f6e747261637420697320616c72656160408201526d191e481a5b9a5d1a585b1a5e995960921b606082015260800190565b60208082526019908201527f536f6d6520746f6b656e206e6f7420636f6d70617469626c6500000000000000604082015260600190565b60e08152845160e082015260006020860151613f2a610100840182613b20565b5060408601516001600160a01b03908116610120840152606087015116610140830152608086015161016083015260a086015160c0610180840152613f736101a0840182613af4565b915050613fb3602083018680516001600160a01b039081168352602080830151151590840152604080830151909116908301526060908101511515910152565b60a082019390935260c0015292915050565b838152606060208201526000613fde6060830185613ac4565b9050826040830152949350505050565b604051601f8201601f1916810167ffffffffffffffff8111828210171561401757614017614170565b604052919050565b600067ffffffffffffffff82111561403957614039614170565b5060051b60200190565b600082198211156140565761405661412e565b500190565b60008261407857634e487b7160e01b600052601260045260246000fd5b500490565b60008160001904831182151516156140975761409761412e565b500290565b6000828210156140ae576140ae61412e565b500390565b60005b838110156140ce5781810151838201526020016140b6565b8381111561294f5750506000910152565b6000816140ee576140ee61412e565b506000190190565b600060001982141561410a5761410a61412e565b5060010190565b6000600160ff1b8214156141275761412761412e565b5060000390565b634e487b7160e01b600052601160045260246000fd5b634e487b7160e01b600052602160045260246000fd5b634e487b7160e01b600052603260045260246000fd5b634e487b7160e01b600052604160045260246000fd5b6001600160a01b038116811461097057600080fd5b801515811461097057600080fdfe90c2aa7471c04182221f68e80c07ab1e5946e4c63f8693e14ca40385d529f051360894a13ba1a3210667c828492db98dca3e2076cc3735a920a3ca505d382bbc416464726573733a206c6f772d6c6576656c2064656c65676174652063616c6c206661696c6564a26469706673582212202975ce5872cd009ed8158780e02dc12e2cca739def66826e7a2ffe8de9c04ea964736f6c63430008060033",
  "devdoc": {
    "kind": "dev",
    "methods": {
      "constructor": {
        "custom:oz-upgrades-unsafe-allow": "constructor"
      },
      "getRoleAdmin(bytes32)": {
        "details": "Returns the admin role that controls `role`. See {grantRole} and {revokeRole}. To change a role's admin, use {_setRoleAdmin}."
      },
      "grantRole(bytes32,address)": {
        "details": "Grants `role` to `account`. If `account` had not been already granted `role`, emits a {RoleGranted} event. Requirements: - the caller must have ``role``'s admin role. May emit a {RoleGranted} event."
      },
      "hasRole(bytes32,address)": {
        "details": "Returns `true` if `account` has been granted `role`."
      },
      "proxiableUUID()": {
        "details": "Implementation of the ERC1822 {proxiableUUID} function. This returns the storage slot used by the implementation. It is used to validate that the this implementation remains valid after an upgrade. IMPORTANT: A proxy pointing at a proxiable contract should not be considered proxiable itself, because this risks bricking a proxy that upgrades to it, by delegating to itself until out of gas. Thus it is critical that this function revert if invoked through a proxy. This is guaranteed by the `notDelegated` modifier."
      },
      "renounceRole(bytes32,address)": {
        "details": "Revokes `role` from the calling account. Roles are often managed via {grantRole} and {revokeRole}: this function's purpose is to provide a mechanism for accounts to lose their privileges if they are compromised (such as when a trusted device is misplaced). If the calling account had been revoked `role`, emits a {RoleRevoked} event. Requirements: - the caller must be `account`. May emit a {RoleRevoked} event."
      },
      "revokeRole(bytes32,address)": {
        "details": "Revokes `role` from `account`. If `account` had been granted `role`, emits a {RoleRevoked} event. Requirements: - the caller must have ``role``'s admin role. May emit a {RoleRevoked} event."
      },
      "supportsInterface(bytes4)": {
        "details": "See {IERC165-supportsInterface}."
      },
      "upgradeTo(address)": {
        "details": "Upgrade the implementation of the proxy to `newImplementation`. Calls {_authorizeUpgrade}. Emits an {Upgraded} event."
      },
      "upgradeToAndCall(address,bytes)": {
        "details": "Upgrade the implementation of the proxy to `newImplementation`, and subsequently execute the function call encoded in `data`. Calls {_authorizeUpgrade}. Emits an {Upgraded} event."
      }
    },
    "version": 1
  },
  "userdoc": {
    "kind": "user",
    "methods": {},
    "version": 1
  },
  "storageLayout": {
    "storage": [
      {
        "astId": 808,
        "contract": "contracts/StrategyBalancerUsdc.sol:StrategyBalancerUsdc",
        "label": "_initialized",
        "offset": 0,
        "slot": "0",
        "type": "t_uint8"
      },
      {
        "astId": 811,
        "contract": "contracts/StrategyBalancerUsdc.sol:StrategyBalancerUsdc",
        "label": "_initializing",
        "offset": 1,
        "slot": "0",
        "type": "t_bool"
      },
      {
        "astId": 1372,
        "contract": "contracts/StrategyBalancerUsdc.sol:StrategyBalancerUsdc",
        "label": "__gap",
        "offset": 0,
        "slot": "1",
        "type": "t_array(t_uint256)50_storage"
      },
      {
        "astId": 1702,
        "contract": "contracts/StrategyBalancerUsdc.sol:StrategyBalancerUsdc",
        "label": "__gap",
        "offset": 0,
        "slot": "51",
        "type": "t_array(t_uint256)50_storage"
      },
      {
        "astId": 39,
        "contract": "contracts/StrategyBalancerUsdc.sol:StrategyBalancerUsdc",
        "label": "_roles",
        "offset": 0,
        "slot": "101",
        "type": "t_mapping(t_bytes32,t_struct(RoleData)34_storage)"
      },
      {
        "astId": 338,
        "contract": "contracts/StrategyBalancerUsdc.sol:StrategyBalancerUsdc",
        "label": "__gap",
        "offset": 0,
        "slot": "102",
        "type": "t_array(t_uint256)49_storage"
      },
      {
        "astId": 790,
        "contract": "contracts/StrategyBalancerUsdc.sol:StrategyBalancerUsdc",
        "label": "__gap",
        "offset": 0,
        "slot": "151",
        "type": "t_array(t_uint256)50_storage"
      },
      {
        "astId": 1087,
        "contract": "contracts/StrategyBalancerUsdc.sol:StrategyBalancerUsdc",
        "label": "__gap",
        "offset": 0,
        "slot": "201",
        "type": "t_array(t_uint256)50_storage"
      },
      {
        "astId": 23237,
        "contract": "contracts/StrategyBalancerUsdc.sol:StrategyBalancerUsdc",
        "label": "portfolioManager",
        "offset": 0,
        "slot": "251",
        "type": "t_address"
      },
      {
        "astId": 23586,
        "contract": "contracts/StrategyBalancerUsdc.sol:StrategyBalancerUsdc",
        "label": "__gap",
        "offset": 0,
        "slot": "252",
        "type": "t_array(t_uint256)49_storage"
      },
      {
        "astId": 26978,
        "contract": "contracts/StrategyBalancerUsdc.sol:StrategyBalancerUsdc",
        "label": "usdc",
        "offset": 0,
        "slot": "301",
        "type": "t_contract(IERC20)2441"
      },
      {
        "astId": 26981,
        "contract": "contracts/StrategyBalancerUsdc.sol:StrategyBalancerUsdc",
        "label": "bal",
        "offset": 0,
        "slot": "302",
        "type": "t_contract(IERC20)2441"
      },
      {
        "astId": 26984,
        "contract": "contracts/StrategyBalancerUsdc.sol:StrategyBalancerUsdc",
        "label": "bbamUsdc",
        "offset": 0,
        "slot": "303",
        "type": "t_contract(IBptToken)9926"
      },
      {
        "astId": 26987,
        "contract": "contracts/StrategyBalancerUsdc.sol:StrategyBalancerUsdc",
        "label": "bbamUsdt",
        "offset": 0,
        "slot": "304",
        "type": "t_contract(IBptToken)9926"
      },
      {
        "astId": 26990,
        "contract": "contracts/StrategyBalancerUsdc.sol:StrategyBalancerUsdc",
        "label": "bbamDai",
        "offset": 0,
        "slot": "305",
        "type": "t_contract(IBptToken)9926"
      },
      {
        "astId": 26993,
        "contract": "contracts/StrategyBalancerUsdc.sol:StrategyBalancerUsdc",
        "label": "bpt",
        "offset": 0,
        "slot": "306",
        "type": "t_contract(IBptToken)9926"
      },
      {
        "astId": 26996,
        "contract": "contracts/StrategyBalancerUsdc.sol:StrategyBalancerUsdc",
        "label": "vault",
        "offset": 0,
        "slot": "307",
        "type": "t_contract(IVault)7911"
      },
      {
        "astId": 26999,
        "contract": "contracts/StrategyBalancerUsdc.sol:StrategyBalancerUsdc",
        "label": "gauge",
        "offset": 0,
        "slot": "308",
        "type": "t_contract(IGauge)9947"
      },
      {
        "astId": 27001,
        "contract": "contracts/StrategyBalancerUsdc.sol:StrategyBalancerUsdc",
        "label": "bbamUsdcPoolId",
        "offset": 0,
        "slot": "309",
        "type": "t_bytes32"
      },
      {
        "astId": 27003,
        "contract": "contracts/StrategyBalancerUsdc.sol:StrategyBalancerUsdc",
        "label": "bbamUsdPoolId",
        "offset": 0,
        "slot": "310",
        "type": "t_bytes32"
      },
      {
        "astId": 27005,
        "contract": "contracts/StrategyBalancerUsdc.sol:StrategyBalancerUsdc",
        "label": "balPoolId",
        "offset": 0,
        "slot": "311",
        "type": "t_bytes32"
      },
      {
        "astId": 27008,
        "contract": "contracts/StrategyBalancerUsdc.sol:StrategyBalancerUsdc",
        "label": "oracleUsdc",
        "offset": 0,
        "slot": "312",
        "type": "t_contract(IPriceFeed)10022"
      },
      {
        "astId": 27011,
        "contract": "contracts/StrategyBalancerUsdc.sol:StrategyBalancerUsdc",
        "label": "oracleUsdt",
        "offset": 0,
        "slot": "313",
        "type": "t_contract(IPriceFeed)10022"
      },
      {
        "astId": 27014,
        "contract": "contracts/StrategyBalancerUsdc.sol:StrategyBalancerUsdc",
        "label": "oracleDai",
        "offset": 0,
        "slot": "314",
        "type": "t_contract(IPriceFeed)10022"
      },
      {
        "astId": 27016,
        "contract": "contracts/StrategyBalancerUsdc.sol:StrategyBalancerUsdc",
        "label": "swapSlippageBp",
        "offset": 0,
        "slot": "315",
        "type": "t_uint256"
      },
      {
        "astId": 27018,
        "contract": "contracts/StrategyBalancerUsdc.sol:StrategyBalancerUsdc",
        "label": "allowedSlippageBp",
        "offset": 0,
        "slot": "316",
        "type": "t_uint256"
      }
    ],
    "types": {
      "t_address": {
        "encoding": "inplace",
        "label": "address",
        "numberOfBytes": "20"
      },
      "t_array(t_uint256)49_storage": {
        "base": "t_uint256",
        "encoding": "inplace",
        "label": "uint256[49]",
        "numberOfBytes": "1568"
      },
      "t_array(t_uint256)50_storage": {
        "base": "t_uint256",
        "encoding": "inplace",
        "label": "uint256[50]",
        "numberOfBytes": "1600"
      },
      "t_bool": {
        "encoding": "inplace",
        "label": "bool",
        "numberOfBytes": "1"
      },
      "t_bytes32": {
        "encoding": "inplace",
        "label": "bytes32",
        "numberOfBytes": "32"
      },
      "t_contract(IBptToken)9926": {
        "encoding": "inplace",
        "label": "contract IBptToken",
        "numberOfBytes": "20"
      },
      "t_contract(IERC20)2441": {
        "encoding": "inplace",
        "label": "contract IERC20",
        "numberOfBytes": "20"
      },
      "t_contract(IGauge)9947": {
        "encoding": "inplace",
        "label": "contract IGauge",
        "numberOfBytes": "20"
      },
      "t_contract(IPriceFeed)10022": {
        "encoding": "inplace",
        "label": "contract IPriceFeed",
        "numberOfBytes": "20"
      },
      "t_contract(IVault)7911": {
        "encoding": "inplace",
        "label": "contract IVault",
        "numberOfBytes": "20"
      },
      "t_mapping(t_address,t_bool)": {
        "encoding": "mapping",
        "key": "t_address",
        "label": "mapping(address => bool)",
        "numberOfBytes": "32",
        "value": "t_bool"
      },
      "t_mapping(t_bytes32,t_struct(RoleData)34_storage)": {
        "encoding": "mapping",
        "key": "t_bytes32",
        "label": "mapping(bytes32 => struct AccessControlUpgradeable.RoleData)",
        "numberOfBytes": "32",
        "value": "t_struct(RoleData)34_storage"
      },
      "t_struct(RoleData)34_storage": {
        "encoding": "inplace",
        "label": "struct AccessControlUpgradeable.RoleData",
        "members": [
          {
            "astId": 31,
            "contract": "contracts/StrategyBalancerUsdc.sol:StrategyBalancerUsdc",
            "label": "members",
            "offset": 0,
            "slot": "0",
            "type": "t_mapping(t_address,t_bool)"
          },
          {
            "astId": 33,
            "contract": "contracts/StrategyBalancerUsdc.sol:StrategyBalancerUsdc",
            "label": "adminRole",
            "offset": 0,
            "slot": "1",
            "type": "t_bytes32"
          }
        ],
        "numberOfBytes": "64"
      },
      "t_uint256": {
        "encoding": "inplace",
        "label": "uint256",
        "numberOfBytes": "32"
      },
      "t_uint8": {
        "encoding": "inplace",
        "label": "uint8",
        "numberOfBytes": "1"
      }
    }
  }
}