{
  "address": "0xFed574f62eda014B0C09966D678c06ecbf1AA5df",
  "abi": [
    {
      "inputs": [],
      "stateMutability": "nonpayable",
      "type": "constructor"
    },
    {
      "anonymous": false,
      "inputs": [
        {
          "indexed": false,
          "internalType": "address",
          "name": "previousAdmin",
          "type": "address"
        },
        {
          "indexed": false,
          "internalType": "address",
          "name": "newAdmin",
          "type": "address"
        }
      ],
      "name": "AdminChanged",
      "type": "event"
    },
    {
      "anonymous": false,
      "inputs": [
        {
          "indexed": true,
          "internalType": "address",
          "name": "beacon",
          "type": "address"
        }
      ],
      "name": "BeaconUpgraded",
      "type": "event"
    },
    {
      "anonymous": false,
      "inputs": [
        {
          "indexed": false,
          "internalType": "uint8",
          "name": "version",
          "type": "uint8"
        }
      ],
      "name": "Initialized",
      "type": "event"
    },
    {
      "anonymous": false,
      "inputs": [
        {
          "indexed": false,
          "internalType": "address",
          "name": "value",
          "type": "address"
        }
      ],
      "name": "PortfolioManagerUpdated",
      "type": "event"
    },
    {
      "anonymous": false,
      "inputs": [
        {
          "indexed": false,
          "internalType": "uint256",
          "name": "amount",
          "type": "uint256"
        }
      ],
      "name": "Reward",
      "type": "event"
    },
    {
      "anonymous": false,
      "inputs": [
        {
          "indexed": true,
          "internalType": "bytes32",
          "name": "role",
          "type": "bytes32"
        },
        {
          "indexed": true,
          "internalType": "bytes32",
          "name": "previousAdminRole",
          "type": "bytes32"
        },
        {
          "indexed": true,
          "internalType": "bytes32",
          "name": "newAdminRole",
          "type": "bytes32"
        }
      ],
      "name": "RoleAdminChanged",
      "type": "event"
    },
    {
      "anonymous": false,
      "inputs": [
        {
          "indexed": true,
          "internalType": "bytes32",
          "name": "role",
          "type": "bytes32"
        },
        {
          "indexed": true,
          "internalType": "address",
          "name": "account",
          "type": "address"
        },
        {
          "indexed": true,
          "internalType": "address",
          "name": "sender",
          "type": "address"
        }
      ],
      "name": "RoleGranted",
      "type": "event"
    },
    {
      "anonymous": false,
      "inputs": [
        {
          "indexed": true,
          "internalType": "bytes32",
          "name": "role",
          "type": "bytes32"
        },
        {
          "indexed": true,
          "internalType": "address",
          "name": "account",
          "type": "address"
        },
        {
          "indexed": true,
          "internalType": "address",
          "name": "sender",
          "type": "address"
        }
      ],
      "name": "RoleRevoked",
      "type": "event"
    },
    {
      "anonymous": false,
      "inputs": [
        {
          "indexed": false,
          "internalType": "uint256",
          "name": "swapSlippageBP",
          "type": "uint256"
        },
        {
          "indexed": false,
          "internalType": "uint256",
          "name": "navSlippageBP",
          "type": "uint256"
        }
      ],
      "name": "SlippagesUpdated",
      "type": "event"
    },
    {
      "anonymous": false,
      "inputs": [
        {
          "indexed": false,
          "internalType": "uint256",
          "name": "amount",
          "type": "uint256"
        }
      ],
      "name": "Stake",
      "type": "event"
    },
    {
      "anonymous": false,
      "inputs": [],
      "name": "StrategyUpdatedParams",
      "type": "event"
    },
    {
      "anonymous": false,
      "inputs": [
        {
          "indexed": false,
          "internalType": "uint256",
          "name": "amount",
          "type": "uint256"
        },
        {
          "indexed": false,
          "internalType": "uint256",
          "name": "amountReceived",
          "type": "uint256"
        }
      ],
      "name": "Unstake",
      "type": "event"
    },
    {
      "anonymous": false,
      "inputs": [
        {
          "indexed": true,
          "internalType": "address",
          "name": "implementation",
          "type": "address"
        }
      ],
      "name": "Upgraded",
      "type": "event"
    },
    {
      "inputs": [],
      "name": "DEFAULT_ADMIN_ROLE",
      "outputs": [
        {
          "internalType": "bytes32",
          "name": "",
          "type": "bytes32"
        }
      ],
      "stateMutability": "view",
      "type": "function"
    },
    {
      "inputs": [],
      "name": "PORTFOLIO_AGENT_ROLE",
      "outputs": [
        {
          "internalType": "bytes32",
          "name": "",
          "type": "bytes32"
        }
      ],
      "stateMutability": "view",
      "type": "function"
    },
    {
      "inputs": [],
      "name": "PORTFOLIO_MANAGER",
      "outputs": [
        {
          "internalType": "bytes32",
          "name": "",
          "type": "bytes32"
        }
      ],
      "stateMutability": "view",
      "type": "function"
    },
    {
      "inputs": [],
      "name": "allowedSlippageBp",
      "outputs": [
        {
          "internalType": "uint256",
          "name": "",
          "type": "uint256"
        }
      ],
      "stateMutability": "view",
      "type": "function"
    },
    {
      "inputs": [],
      "name": "bal",
      "outputs": [
        {
          "internalType": "contract IERC20",
          "name": "",
          "type": "address"
        }
      ],
      "stateMutability": "view",
      "type": "function"
    },
    {
      "inputs": [],
      "name": "balPoolId",
      "outputs": [
        {
          "internalType": "bytes32",
          "name": "",
          "type": "bytes32"
        }
      ],
      "stateMutability": "view",
      "type": "function"
    },
    {
      "inputs": [],
      "name": "bbamDai",
      "outputs": [
        {
          "internalType": "contract IBptToken",
          "name": "",
          "type": "address"
        }
      ],
      "stateMutability": "view",
      "type": "function"
    },
    {
      "inputs": [],
      "name": "bbamUsdPoolId",
      "outputs": [
        {
          "internalType": "bytes32",
          "name": "",
          "type": "bytes32"
        }
      ],
      "stateMutability": "view",
      "type": "function"
    },
    {
      "inputs": [],
      "name": "bbamUsdc",
      "outputs": [
        {
          "internalType": "contract IBptToken",
          "name": "",
          "type": "address"
        }
      ],
      "stateMutability": "view",
      "type": "function"
    },
    {
      "inputs": [],
      "name": "bbamUsdcPoolId",
      "outputs": [
        {
          "internalType": "bytes32",
          "name": "",
          "type": "bytes32"
        }
      ],
      "stateMutability": "view",
      "type": "function"
    },
    {
      "inputs": [],
      "name": "bbamUsdt",
      "outputs": [
        {
          "internalType": "contract IBptToken",
          "name": "",
          "type": "address"
        }
      ],
      "stateMutability": "view",
      "type": "function"
    },
    {
      "inputs": [],
      "name": "bpt",
      "outputs": [
        {
          "internalType": "contract IBptToken",
          "name": "",
          "type": "address"
        }
      ],
      "stateMutability": "view",
      "type": "function"
    },
    {
      "inputs": [
        {
          "internalType": "address",
          "name": "_to",
          "type": "address"
        }
      ],
      "name": "claimRewards",
      "outputs": [
        {
          "internalType": "uint256",
          "name": "",
          "type": "uint256"
        }
      ],
      "stateMutability": "nonpayable",
      "type": "function"
    },
    {
      "inputs": [],
      "name": "gauge",
      "outputs": [
        {
          "internalType": "contract IGauge",
          "name": "",
          "type": "address"
        }
      ],
      "stateMutability": "view",
      "type": "function"
    },
    {
      "inputs": [
        {
          "internalType": "bytes32",
          "name": "role",
          "type": "bytes32"
        }
      ],
      "name": "getRoleAdmin",
      "outputs": [
        {
          "internalType": "bytes32",
          "name": "",
          "type": "bytes32"
        }
      ],
      "stateMutability": "view",
      "type": "function"
    },
    {
      "inputs": [
        {
          "internalType": "bytes32",
          "name": "role",
          "type": "bytes32"
        },
        {
          "internalType": "address",
          "name": "account",
          "type": "address"
        }
      ],
      "name": "grantRole",
      "outputs": [],
      "stateMutability": "nonpayable",
      "type": "function"
    },
    {
      "inputs": [
        {
          "internalType": "bytes32",
          "name": "role",
          "type": "bytes32"
        },
        {
          "internalType": "address",
          "name": "account",
          "type": "address"
        }
      ],
      "name": "hasRole",
      "outputs": [
        {
          "internalType": "bool",
          "name": "",
          "type": "bool"
        }
      ],
      "stateMutability": "view",
      "type": "function"
    },
    {
      "inputs": [
        {
          "internalType": "uint256",
          "name": "_swapSlippageBP",
          "type": "uint256"
        },
        {
          "internalType": "uint256",
          "name": "_navSlippageBP",
          "type": "uint256"
        }
      ],
      "name": "initSlippages",
      "outputs": [],
      "stateMutability": "nonpayable",
      "type": "function"
    },
    {
      "inputs": [],
      "name": "initialize",
      "outputs": [],
      "stateMutability": "nonpayable",
      "type": "function"
    },
    {
      "inputs": [],
      "name": "liquidationValue",
      "outputs": [
        {
          "internalType": "uint256",
          "name": "",
          "type": "uint256"
        }
      ],
      "stateMutability": "view",
      "type": "function"
    },
    {
      "inputs": [],
      "name": "navSlippageBP",
      "outputs": [
        {
          "internalType": "uint256",
          "name": "",
          "type": "uint256"
        }
      ],
      "stateMutability": "view",
      "type": "function"
    },
    {
      "inputs": [],
      "name": "netAssetValue",
      "outputs": [
        {
          "internalType": "uint256",
          "name": "",
          "type": "uint256"
        }
      ],
      "stateMutability": "view",
      "type": "function"
    },
    {
      "inputs": [],
      "name": "oracleDai",
      "outputs": [
        {
          "internalType": "contract IPriceFeed",
          "name": "",
          "type": "address"
        }
      ],
      "stateMutability": "view",
      "type": "function"
    },
    {
      "inputs": [],
      "name": "oracleUsdc",
      "outputs": [
        {
          "internalType": "contract IPriceFeed",
          "name": "",
          "type": "address"
        }
      ],
      "stateMutability": "view",
      "type": "function"
    },
    {
      "inputs": [],
      "name": "oracleUsdt",
      "outputs": [
        {
          "internalType": "contract IPriceFeed",
          "name": "",
          "type": "address"
        }
      ],
      "stateMutability": "view",
      "type": "function"
    },
    {
      "inputs": [],
      "name": "portfolioManager",
      "outputs": [
        {
          "internalType": "address",
          "name": "",
          "type": "address"
        }
      ],
      "stateMutability": "view",
      "type": "function"
    },
    {
      "inputs": [],
      "name": "proxiableUUID",
      "outputs": [
        {
          "internalType": "bytes32",
          "name": "",
          "type": "bytes32"
        }
      ],
      "stateMutability": "view",
      "type": "function"
    },
    {
      "inputs": [
        {
          "internalType": "bytes32",
          "name": "role",
          "type": "bytes32"
        },
        {
          "internalType": "address",
          "name": "account",
          "type": "address"
        }
      ],
      "name": "renounceRole",
      "outputs": [],
      "stateMutability": "nonpayable",
      "type": "function"
    },
    {
      "inputs": [
        {
          "internalType": "bytes32",
          "name": "role",
          "type": "bytes32"
        },
        {
          "internalType": "address",
          "name": "account",
          "type": "address"
        }
      ],
      "name": "revokeRole",
      "outputs": [],
      "stateMutability": "nonpayable",
      "type": "function"
    },
    {
      "inputs": [
        {
          "components": [
            {
              "internalType": "address",
              "name": "usdc",
              "type": "address"
            },
            {
              "internalType": "address",
              "name": "bal",
              "type": "address"
            },
            {
              "internalType": "address",
              "name": "bbamUsdc",
              "type": "address"
            },
            {
              "internalType": "address",
              "name": "bbamUsdt",
              "type": "address"
            },
            {
              "internalType": "address",
              "name": "bbamDai",
              "type": "address"
            },
            {
              "internalType": "address",
              "name": "bpt",
              "type": "address"
            },
            {
              "internalType": "address",
              "name": "vault",
              "type": "address"
            },
            {
              "internalType": "address",
              "name": "gauge",
              "type": "address"
            },
            {
              "internalType": "bytes32",
              "name": "bbamUsdcPoolId",
              "type": "bytes32"
            },
            {
              "internalType": "bytes32",
              "name": "bbamUsdPoolId",
              "type": "bytes32"
            },
            {
              "internalType": "bytes32",
              "name": "balPoolId",
              "type": "bytes32"
            },
            {
              "internalType": "address",
              "name": "oracleUsdc",
              "type": "address"
            },
            {
              "internalType": "address",
              "name": "oracleUsdt",
              "type": "address"
            },
            {
              "internalType": "address",
              "name": "oracleDai",
              "type": "address"
            }
          ],
          "internalType": "struct StrategyBalancerUsdc.StrategyParams",
          "name": "params",
          "type": "tuple"
        }
      ],
      "name": "setParams",
      "outputs": [],
      "stateMutability": "nonpayable",
      "type": "function"
    },
    {
      "inputs": [
        {
          "internalType": "address",
          "name": "_value",
          "type": "address"
        }
      ],
      "name": "setPortfolioManager",
      "outputs": [],
      "stateMutability": "nonpayable",
      "type": "function"
    },
    {
      "inputs": [
        {
          "internalType": "uint256",
          "name": "_swapSlippageBP",
          "type": "uint256"
        },
        {
          "internalType": "uint256",
          "name": "_navSlippageBP",
          "type": "uint256"
        }
      ],
      "name": "setSlippages",
      "outputs": [],
      "stateMutability": "nonpayable",
      "type": "function"
    },
    {
      "inputs": [
        {
          "internalType": "address",
          "name": "_asset",
          "type": "address"
        },
        {
          "internalType": "uint256",
          "name": "_amount",
          "type": "uint256"
        }
      ],
      "name": "stake",
      "outputs": [],
      "stateMutability": "nonpayable",
      "type": "function"
    },
    {
      "inputs": [
        {
          "internalType": "bytes4",
          "name": "interfaceId",
          "type": "bytes4"
        }
      ],
      "name": "supportsInterface",
      "outputs": [
        {
          "internalType": "bool",
          "name": "",
          "type": "bool"
        }
      ],
      "stateMutability": "view",
      "type": "function"
    },
    {
      "inputs": [],
      "name": "swapSlippageBP",
      "outputs": [
        {
          "internalType": "uint256",
          "name": "",
          "type": "uint256"
        }
      ],
      "stateMutability": "view",
      "type": "function"
    },
    {
      "inputs": [],
      "name": "swapSlippageBp",
      "outputs": [
        {
          "internalType": "uint256",
          "name": "",
          "type": "uint256"
        }
      ],
      "stateMutability": "view",
      "type": "function"
    },
    {
      "inputs": [
        {
          "internalType": "address",
          "name": "_asset",
          "type": "address"
        },
        {
          "internalType": "uint256",
          "name": "_amount",
          "type": "uint256"
        },
        {
          "internalType": "address",
          "name": "_beneficiary",
          "type": "address"
        },
        {
          "internalType": "bool",
          "name": "_targetIsZero",
          "type": "bool"
        }
      ],
      "name": "unstake",
      "outputs": [
        {
          "internalType": "uint256",
          "name": "",
          "type": "uint256"
        }
      ],
      "stateMutability": "nonpayable",
      "type": "function"
    },
    {
      "inputs": [
        {
          "internalType": "address",
          "name": "newImplementation",
          "type": "address"
        }
      ],
      "name": "upgradeTo",
      "outputs": [],
      "stateMutability": "nonpayable",
      "type": "function"
    },
    {
      "inputs": [
        {
          "internalType": "address",
          "name": "newImplementation",
          "type": "address"
        },
        {
          "internalType": "bytes",
          "name": "data",
          "type": "bytes"
        }
      ],
      "name": "upgradeToAndCall",
      "outputs": [],
      "stateMutability": "payable",
      "type": "function"
    },
    {
      "inputs": [],
      "name": "usdc",
      "outputs": [
        {
          "internalType": "contract IERC20",
          "name": "",
          "type": "address"
        }
      ],
      "stateMutability": "view",
      "type": "function"
    },
    {
      "inputs": [],
      "name": "vault",
      "outputs": [
        {
          "internalType": "contract IVault",
          "name": "",
          "type": "address"
        }
      ],
      "stateMutability": "view",
      "type": "function"
    }
  ],
  "numDeployments": 3,
  "solcInputHash": "6f516b9d25780231bd6395d82a6e8e64",
  "bytecode": "0x60a06040523060601b6080523480156200001857600080fd5b50600054610100900460ff16158080156200003a5750600054600160ff909116105b806200006a575062000057306200014460201b6200165a1760201c565b1580156200006a575060005460ff166001145b620000d25760405162461bcd60e51b815260206004820152602e60248201527f496e697469616c697a61626c653a20636f6e747261637420697320616c72656160448201526d191e481a5b9a5d1a585b1a5e995960921b606482015260840160405180910390fd5b6000805460ff191660011790558015620000f6576000805461ff0019166101001790555b80156200013d576000805461ff0019169055604051600181527f7f26b83ff96e1f2b6a682f133852f6798a09c465da95921460cefb38474024989060200160405180910390a15b5062000153565b6001600160a01b03163b151590565b60805160601c61448d6200018e600039600081816108af015281816108ef0152818161098f015281816109cf0152610a5e015261448d6000f3fe6080604052600436106102465760003560e01c80636b42c57611610139578063a440b21a116100b6578063d547741f1161007a578063d547741f14610687578063d941050d146106a7578063ed37b369146106c7578063ef5cfb8c146106de578063f6f6b881146106fe578063fbfa77cf1461071e57600080fd5b8063a440b21a146105ef578063a6f19c841461060f578063adc9772e14610630578063bf52e08014610650578063cc6522c31461066657600080fd5b80638129fc1c116100fd5780638129fc1c1461058e5780638547598a146105a357806391d14854146105ba578063a217fddf146105da578063a3673b381461030d57600080fd5b80636b42c576146104f357806378f9b56d146105135780637d5f5802146105345780637e731638146105565780637fe7cc1e1461057757600080fd5b80633e413bee116101c75780635f07c5f31161018b5780635f07c5f3146104595780635fea9cbb1461047a578063608961841461049b578063620b75df146104bc57806365586452146104dc57600080fd5b80633e413bee146103bb5780634f1ef286146103dc57806352d1902d146103ef578063546af3c3146104045780635dbd733a1461042557600080fd5b80632576e65a1161020e5780632576e65a1461030d5780632f2ff15d1461032257806336568abe146103425780633659cfe6146103625780633d79d1c81461038257600080fd5b806301ffc9a71461024b5780631187f47914610280578063119cd879146102a557806318bc0faa146102bb578063248a9ca3146102dd575b600080fd5b34801561025757600080fd5b5061026b610266366004613c80565b61073f565b60405190151581526020015b60405180910390f35b34801561028c57600080fd5b506102976101365481565b604051908152602001610277565b3480156102b157600080fd5b5061029760fd5481565b3480156102c757600080fd5b506102db6102d6366004613cc3565b610776565b005b3480156102e957600080fd5b506102976102f8366004613c1e565b60009081526065602052604090206001015490565b34801561031957600080fd5b506102976107ed565b34801561032e57600080fd5b506102db61033d366004613c50565b6107fc565b34801561034e57600080fd5b506102db61035d366004613c50565b610826565b34801561036e57600080fd5b506102db61037d366004613950565b6108a4565b34801561038e57600080fd5b5061012e546103a3906001600160a01b031681565b6040516001600160a01b039091168152602001610277565b3480156103c757600080fd5b5061012d546103a3906001600160a01b031681565b6102db6103ea36600461396d565b610984565b3480156103fb57600080fd5b50610297610a51565b34801561041057600080fd5b50610132546103a3906001600160a01b031681565b34801561043157600080fd5b506102977fd67ad422505496469a1adf6cdf9e5ee92ac5d33992843c9ecc4b2f6d6cde913781565b34801561046557600080fd5b5061013a546103a3906001600160a01b031681565b34801561048657600080fd5b50610138546103a3906001600160a01b031681565b3480156104a757600080fd5b50610131546103a3906001600160a01b031681565b3480156104c857600080fd5b5060fb546103a3906001600160a01b031681565b3480156104e857600080fd5b506102976101375481565b3480156104ff57600080fd5b506102db61050e366004613cc3565b610b04565b34801561051f57600080fd5b5061012f546103a3906001600160a01b031681565b34801561054057600080fd5b506102976000805160206143f183398151915281565b34801561056257600080fd5b50610130546103a3906001600160a01b031681565b34801561058357600080fd5b5061029761013c5481565b34801561059a57600080fd5b506102db610c2c565b3480156105af57600080fd5b5061029761013b5481565b3480156105c657600080fd5b5061026b6105d5366004613c50565b610cf6565b3480156105e657600080fd5b50610297600081565b3480156105fb57600080fd5b506102db61060a366004613950565b610d21565b34801561061b57600080fd5b50610134546103a3906001600160a01b031681565b34801561063c57600080fd5b506102db61064b366004613a15565b610e29565b34801561065c57600080fd5b5061029760fc5481565b34801561067257600080fd5b50610139546103a3906001600160a01b031681565b34801561069357600080fd5b506102db6106a2366004613c50565b611058565b3480156106b357600080fd5b506102db6106c2366004613caa565b61107d565b3480156106d357600080fd5b506102976101355481565b3480156106ea57600080fd5b506102976106f9366004613950565b61130d565b34801561070a57600080fd5b50610297610719366004613a41565b61138f565b34801561072a57600080fd5b50610133546103a3906001600160a01b031681565b60006001600160e01b03198216637965db0b60e01b148061077057506301ffc9a760e01b6001600160e01b03198316145b92915050565b610781600033610cf6565b6107a65760405162461bcd60e51b815260040161079d906140ec565b60405180910390fd5b60fc82905560fd81905560408051838152602081018390527fce5a32eeae390ce399fd83b29e4bee51b2b1a5898dc3575411e3a498f4f552a0910160405180910390a15050565b60006107f7611669565b905090565b6000828152606560205260409020600101546108178161177c565b6108218383611786565b505050565b6001600160a01b03811633146108965760405162461bcd60e51b815260206004820152602f60248201527f416363657373436f6e74726f6c3a2063616e206f6e6c792072656e6f756e636560448201526e103937b632b9903337b91039b2b63360891b606482015260840161079d565b6108a0828261180c565b5050565b306001600160a01b037f00000000000000000000000000000000000000000000000000000000000000001614156108ed5760405162461bcd60e51b815260040161079d90614006565b7f00000000000000000000000000000000000000000000000000000000000000006001600160a01b0316610936600080516020614411833981519152546001600160a01b031690565b6001600160a01b03161461095c5760405162461bcd60e51b815260040161079d90614052565b61096581611873565b604080516000808252602082019092526109819183919061187e565b50565b306001600160a01b037f00000000000000000000000000000000000000000000000000000000000000001614156109cd5760405162461bcd60e51b815260040161079d90614006565b7f00000000000000000000000000000000000000000000000000000000000000006001600160a01b0316610a16600080516020614411833981519152546001600160a01b031690565b6001600160a01b031614610a3c5760405162461bcd60e51b815260040161079d90614052565b610a4582611873565b6108a08282600161187e565b6000306001600160a01b037f00000000000000000000000000000000000000000000000000000000000000001614610af15760405162461bcd60e51b815260206004820152603860248201527f555550535570677261646561626c653a206d757374206e6f742062652063616c60448201527f6c6564207468726f7567682064656c656761746563616c6c0000000000000000606482015260840161079d565b5060008051602061441183398151915290565b610b2e7fd67ad422505496469a1adf6cdf9e5ee92ac5d33992843c9ecc4b2f6d6cde913733610cf6565b80610bd5575060fb54604051632474521560e21b81527fd67ad422505496469a1adf6cdf9e5ee92ac5d33992843c9ecc4b2f6d6cde913760048201523360248201526001600160a01b03909116906391d148549060440160206040518083038186803b158015610b9d57600080fd5b505afa158015610bb1573d6000803e3d6000fd5b505050506040513d601f19601f82011682018060405250810190610bd59190613c01565b6107a65760405162461bcd60e51b815260206004820152602260248201527f5265737472696374656420746f20504f5254464f4c494f5f4147454e545f524f6044820152614c4560f01b606482015260840161079d565b600054610100900460ff1615808015610c4c5750600054600160ff909116105b80610c665750303b158015610c66575060005460ff166001145b610c825760405162461bcd60e51b815260040161079d9061409e565b6000805460ff191660011790558015610ca5576000805461ff0019166101001790555b610cad6119f8565b8015610981576000805461ff0019169055604051600181527f7f26b83ff96e1f2b6a682f133852f6798a09c465da95921460cefb3847402498906020015b60405180910390a150565b60009182526065602090815260408084206001600160a01b0393909316845291905290205460ff1690565b610d2c600033610cf6565b610d485760405162461bcd60e51b815260040161079d906140ec565b6001600160a01b038116610d9e5760405162461bcd60e51b815260206004820152601860248201527f5a65726f2061646472657373206e6f7420616c6c6f7765640000000000000000604482015260640161079d565b60fb54610dc3906000805160206143f1833981519152906001600160a01b0316611058565b610ddb6000805160206143f1833981519152826107fc565b60fb80546001600160a01b0319166001600160a01b0383169081179091556040519081527ff7b449fcd5cfb7379dcd34cb69428dd9f882033b15be33d83b42d91daa28eeb790602001610ceb565b610e416000805160206143f183398151915233610cf6565b610e5d5760405162461bcd60e51b815260040161079d90613fcf565b6000610edb306001600160a01b031663a3673b386040518163ffffffff1660e01b815260040160206040518083038186803b158015610e9b57600080fd5b505afa158015610eaf573d6000803e3d6000fd5b505050506040513d601f19601f82011682018060405250810190610ed39190613c37565b60fd54611ad8565b6040516370a0823160e01b8152306004820152909150610f609084906001600160a01b038216906370a082319060240160206040518083038186803b158015610f2357600080fd5b505afa158015610f37573d6000803e3d6000fd5b505050506040513d601f19601f82011682018060405250810190610f5b9190613c37565b611b02565b80306001600160a01b031663a3673b386040518163ffffffff1660e01b815260040160206040518083038186803b158015610f9a57600080fd5b505afa158015610fae573d6000803e3d6000fd5b505050506040513d601f19601f82011682018060405250810190610fd29190613c37565b10156110205760405162461bcd60e51b815260206004820152601f60248201527f5374726174656779204e4156206c657373207468616e20657870656374656400604482015260640161079d565b6040518281527f227a473b70d2f893cc7659219575c030a63b5743024fe1e0c1a680e708b1525a9060200160405180910390a1505050565b6000828152606560205260409020600101546110738161177c565b610821838361180c565b611088600033610cf6565b6110a45760405162461bcd60e51b815260040161079d906140ec565b6110b16020820182613950565b61012d80546001600160a01b0319166001600160a01b03929092169190911790556110e26040820160208301613950565b61012e80546001600160a01b0319166001600160a01b03929092169190911790556111136060820160408301613950565b61012f80546001600160a01b0319166001600160a01b03929092169190911790556111446080820160608301613950565b61013080546001600160a01b0319166001600160a01b039290921691909117905561117560a0820160808301613950565b61013180546001600160a01b0319166001600160a01b03929092169190911790556111a660c0820160a08301613950565b61013280546001600160a01b0319166001600160a01b03929092169190911790556111d760e0820160c08301613950565b61013380546001600160a01b0319166001600160a01b0392909216919091179055611209610100820160e08301613950565b61013480546001600160a01b0319166001600160a01b039290921691909117905561010081013561013555610120810135610136556101408101356101375561125a61018082016101608301613950565b61013880546001600160a01b0319166001600160a01b039290921691909117905561128d6101a082016101808301613950565b61013980546001600160a01b0319166001600160a01b03929092169190911790556112c06101c082016101a08301613950565b61013a80546001600160a01b0319166001600160a01b03929092169190911790556040517fea5646eb3528e525944447a4a97de700dd472298626e5c0481d1c82c3da86ea590600090a150565b60006113276000805160206143f183398151915233610cf6565b6113435760405162461bcd60e51b815260040161079d90613fcf565b600061134e83612175565b90508015610770576040518181527f3ac0594a85a20354f9dc74f33728416d19ce00d04a406c108cc2dcf2cecea1349060200160405180910390a192915050565b60006113a96000805160206143f183398151915233610cf6565b6113c55760405162461bcd60e51b815260040161079d90613fcf565b6000611403306001600160a01b031663a3673b386040518163ffffffff1660e01b815260040160206040518083038186803b158015610e9b57600080fd5b9050600080841561142a5761141786612175565b905061142388876123c5565b9150611499565b611435888888612486565b9150868210156114995760405162461bcd60e51b815260206004820152602960248201527f52657475726e65642076616c7565206c657373207468616e2072657175657374604482015268195908185b5bdd5b9d60ba1b606482015260840161079d565b82306001600160a01b031663a3673b386040518163ffffffff1660e01b815260040160206040518083038186803b1580156114d357600080fd5b505afa1580156114e7573d6000803e3d6000fd5b505050506040513d601f19601f8201168201806040525081019061150b9190613c37565b10156115595760405162461bcd60e51b815260206004820152601f60248201527f5374726174656779204e4156206c657373207468616e20657870656374656400604482015260640161079d565b60405163a9059cbb60e01b81526001600160a01b0387811660048301526024820184905289169063a9059cbb90604401602060405180830381600087803b1580156115a357600080fd5b505af11580156115b7573d6000803e3d6000fd5b505050506040513d601f19601f820116820180604052508101906115db9190613c01565b5060408051888152602081018490527f9045c2ac9b2026de8075f2701bbdde882cd5e830b3b1ead9a15b22f2b5b93742910160405180910390a1801561164f576040518181527f3ac0594a85a20354f9dc74f33728416d19ce00d04a406c108cc2dcf2cecea1349060200160405180910390a15b509695505050505050565b6001600160a01b03163b151590565b610134546040516370a0823160e01b815230600482015260009182916001600160a01b03909116906370a082319060240160206040518083038186803b1580156116b257600080fd5b505afa1580156116c6573d6000803e3d6000fd5b505050506040513d601f19601f820116820180604052508101906116ea9190613c37565b9050806117735761012d546040516370a0823160e01b81523060048201526001600160a01b03909116906370a082319060240160206040518083038186803b15801561173557600080fd5b505afa158015611749573d6000803e3d6000fd5b505050506040513d601f19601f8201168201806040525081019061176d9190613c37565b91505090565b61176d8161251a565b6109818133612afa565b6117908282610cf6565b6108a05760008281526065602090815260408083206001600160a01b03851684529091529020805460ff191660011790556117c83390565b6001600160a01b0316816001600160a01b0316837f2f8788117e7eff1d82e926ec794901d17c78024a50270940304540a733656f0d60405160405180910390a45050565b6118168282610cf6565b156108a05760008281526065602090815260408083206001600160a01b0385168085529252808320805460ff1916905551339285917ff6391f5c32d9c69d2a47ea670b442974b53935d1edc7fd64eb21e047a839171b9190a45050565b60006108a08161177c565b7f4910fdfa16fed3260ed0e7147f7cc6da11a60208b5b9406d12a635614ffd91435460ff16156118b15761082183612b53565b826001600160a01b03166352d1902d6040518163ffffffff1660e01b815260040160206040518083038186803b1580156118ea57600080fd5b505afa92505050801561191a575060408051601f3d908101601f1916820190925261191791810190613c37565b60015b61197d5760405162461bcd60e51b815260206004820152602e60248201527f45524331393637557067726164653a206e657720696d706c656d656e7461746960448201526d6f6e206973206e6f74205555505360901b606482015260840161079d565b60008051602061441183398151915281146119ec5760405162461bcd60e51b815260206004820152602960248201527f45524331393637557067726164653a20756e737570706f727465642070726f786044820152681a58589b195555525160ba1b606482015260840161079d565b50610821838383612bef565b600054610100900460ff1615808015611a185750600054600160ff909116105b80611a325750303b158015611a32575060005460ff166001145b611a4e5760405162461bcd60e51b815260040161079d9061409e565b6000805460ff191660011790558015611a71576000805461ff0019166101001790555b611a79612c1a565b611a81612c1a565b611a8c600033611786565b601460fc81905560fd558015610981576000805461ff0019169055604051600181527f7f26b83ff96e1f2b6a682f133852f6798a09c465da95921460cefb384740249890602001610ceb565b6000612710611ae783826142e3565b611af190856142c4565b611afb91906142a2565b9392505050565b61012d546001600160a01b03838116911614611b305760405162461bcd60e51b815260040161079d9061411a565b61012d546040516370a0823160e01b81523060048201526000916001600160a01b0316906370a082319060240160206040518083038186803b158015611b7557600080fd5b505afa158015611b89573d6000803e3d6000fd5b505050506040513d601f19601f82011682018060405250810190611bad9190613c37565b90506000611c6461012f60009054906101000a90046001600160a01b03166001600160a01b031663679aefce6040518163ffffffff1660e01b815260040160206040518083038186803b158015611c0357600080fd5b505afa158015611c17573d6000803e3d6000fd5b505050506040513d601f19601f82011682018060405250810190611c3b9190613c37565b611c52846c0c9f2c9cd04674edea400000006142c4565b611c5c91906142a2565b60fc54611ad8565b6101335461012d5461012f5461013554939450611c98936001600160a01b0393841693600093811692169087873080612c87565b506101335461013654604051631f29a8cd60e31b815260048101919091526000916001600160a01b03169063f94d46689060240160006040518083038186803b158015611ce457600080fd5b505afa158015611cf8573d6000803e3d6000fd5b505050506040513d6000823e601f3d908101601f19168201604052611d209190810190613a94565b505060408051600480825260a082019092529192506000919060208201608080368337505060408051600480825260a0820190925292935060009291506020820160808036833750506040805160038082526080820190925292935060009291506020820160608036833701905050905060005b8451811015611df357848181518110611daf57611daf6143a1565b6020026020010151848281518110611dc957611dc96143a1565b6001600160a01b039092166020928302919091019091015280611deb8161433d565b915050611d94565b5061012f546040516370a0823160e01b81523060048201526000916001600160a01b0316906370a082319060240160206040518083038186803b158015611e3957600080fd5b505afa158015611e4d573d6000803e3d6000fd5b505050506040513d601f19601f82011682018060405250810190611e719190613c37565b90508083600281518110611e8757611e876143a1565b6020026020010181815250508082600181518110611ea757611ea76143a1565b6020026020010181815250506000600190506000600190506000828583604051602001611ed69392919061420c565b60408051808303601f19018152608083018252898352602083018990528282018190526000606084015261012f5461013354925163095ea7b360e01b81526001600160a01b03938416600482015260248101899052919450919091169063095ea7b390604401602060405180830381600087803b158015611f5657600080fd5b505af1158015611f6a573d6000803e3d6000fd5b505050506040513d601f19601f82011682018060405250810190611f8e9190613c01565b50610133546101365460405163172b958560e31b81526001600160a01b039092169163b95cac2891611fc891309081908790600401613e99565b600060405180830381600087803b158015611fe257600080fd5b505af1158015611ff6573d6000803e3d6000fd5b5050610132546040516370a0823160e01b8152306004820152600093506001600160a01b0390911691506370a082319060240160206040518083038186803b15801561204157600080fd5b505afa158015612055573d6000803e3d6000fd5b505050506040513d601f19601f820116820180604052508101906120799190613c37565b610132546101345460405163095ea7b360e01b81526001600160a01b03918216600482015260248101849052929350169063095ea7b390604401602060405180830381600087803b1580156120cd57600080fd5b505af11580156120e1573d6000803e3d6000fd5b505050506040513d601f19601f820116820180604052508101906121059190613c01565b506101345460405163b6b55f2560e01b8152600481018390526001600160a01b039091169063b6b55f2590602401600060405180830381600087803b15801561214d57600080fd5b505af1158015612161573d6000803e3d6000fd5b505050505050505050505050505050505050565b610134546040516370a0823160e01b815230600482015260009182916001600160a01b03909116906370a082319060240160206040518083038186803b1580156121be57600080fd5b505afa1580156121d2573d6000803e3d6000fd5b505050506040513d601f19601f820116820180604052508101906121f69190613c37565b11156122665761013460009054906101000a90046001600160a01b03166001600160a01b031663e6f1daf26040518163ffffffff1660e01b8152600401600060405180830381600087803b15801561224d57600080fd5b505af1158015612261573d6000803e3d6000fd5b505050505b61012e546040516370a0823160e01b815230600482015260009182916001600160a01b03909116906370a082319060240160206040518083038186803b1580156122af57600080fd5b505afa1580156122c3573d6000803e3d6000fd5b505050506040513d601f19601f820116820180604052508101906122e79190613c37565b9050801561232f576101335461012e5461012d5461013754612322936001600160a01b03908116936000939082169291169086843080612c87565b61232c908361428a565b91505b81156123be5761012d5460405163a9059cbb60e01b81526001600160a01b038681166004830152602482018590529091169063a9059cbb90604401602060405180830381600087803b15801561238457600080fd5b505af1158015612398573d6000803e3d6000fd5b505050506040513d601f19601f820116820180604052508101906123bc9190613c01565b505b5092915050565b61012d546000906001600160a01b038481169116146123f65760405162461bcd60e51b815260040161079d9061411a565b610134546040516370a0823160e01b81523060048201526000916001600160a01b0316906370a082319060240160206040518083038186803b15801561243b57600080fd5b505afa15801561244f573d6000803e3d6000fd5b505050506040513d601f19601f820116820180604052508101906124739190613c37565b905061247e81612e41565b949350505050565b61012d546000906001600160a01b038581169116146124b75760405162461bcd60e51b815260040161079d9061411a565b6101335461012d5461012f5461013254610135546101365460fc54600096612506966001600160a01b03918216968996918316959083169491909216926124ff908d90613251565b3030613260565b905061251181612e41565b95945050505050565b60008061013260009054906101000a90046001600160a01b03166001600160a01b031663876f303b6040518163ffffffff1660e01b815260040160206040518083038186803b15801561256c57600080fd5b505afa158015612580573d6000803e3d6000fd5b505050506040513d601f19601f820116820180604052508101906125a49190613c37565b61012d546040516370a0823160e01b81523060048201529192506000916001600160a01b03909116906370a082319060240160206040518083038186803b1580156125ee57600080fd5b505afa158015612602573d6000803e3d6000fd5b505050506040513d601f19601f820116820180604052508101906126269190613c37565b6101335461013654604051631f29a8cd60e31b8152600481019190915291925060009182916001600160a01b03169063f94d46689060240160006040518083038186803b15801561267657600080fd5b505afa15801561268a573d6000803e3d6000fd5b505050506040513d6000823e601f3d908101601f191682016040526126b29190810190613a94565b509150915060005b8251811015612aef5760008382815181106126d7576126d76143a1565b60200260200101519050600086898585815181106126f7576126f76143a1565b602002602001015161270991906142c4565b61271391906142a2565b61012f549091506001600160a01b03838116911614156127de5761012f54604080516333cd77e760e11b815290516c0c9f2c9cd04674edea40000000926001600160a01b03169163679aefce916004808301926020929190829003018186803b15801561277f57600080fd5b505afa158015612793573d6000803e3d6000fd5b505050506040513d601f19601f820116820180604052508101906127b79190613c37565b6127c190836142c4565b6127cb91906142a2565b90506127d7818761428a565b9550612ada565b610130546001600160a01b03838116911614156129bb5761013054604080516333cd77e760e11b815290516c0c9f2c9cd04674edea40000000926001600160a01b03169163679aefce916004808301926020929190829003018186803b15801561284757600080fd5b505afa15801561285b573d6000803e3d6000fd5b505050506040513d601f19601f8201168201806040525081019061287f9190613c37565b61288990836142c4565b61289391906142a2565b90506129b181620f42408061013960009054906101000a90046001600160a01b03166001600160a01b03166350d25bcd6040518163ffffffff1660e01b815260040160206040518083038186803b1580156128ed57600080fd5b505afa158015612901573d6000803e3d6000fd5b505050506040513d601f19601f820116820180604052508101906129259190613c37565b61013860009054906101000a90046001600160a01b03166001600160a01b03166350d25bcd6040518163ffffffff1660e01b815260040160206040518083038186803b15801561297457600080fd5b505afa158015612988573d6000803e3d6000fd5b505050506040513d601f19601f820116820180604052508101906129ac9190613c37565b613597565b6127d7908761428a565b610131546001600160a01b0383811691161415612ada5761013154604080516333cd77e760e11b81529051670de0b6b3a7640000926001600160a01b03169163679aefce916004808301926020929190829003018186803b158015612a1f57600080fd5b505afa158015612a33573d6000803e3d6000fd5b505050506040513d601f19601f82011682018060405250810190612a579190613c37565b612a6190836142c4565b612a6b91906142a2565b9050612acd81670de0b6b3a7640000620f424061013a60009054906101000a90046001600160a01b03166001600160a01b03166350d25bcd6040518163ffffffff1660e01b815260040160206040518083038186803b1580156128ed57600080fd5b612ad7908761428a565b95505b50508080612ae79061433d565b9150506126ba565b509195945050505050565b612b048282610cf6565b6108a057612b11816135cc565b612b1c8360206135de565b604051602001612b2d929190613e24565b60408051601f198184030181529082905262461bcd60e51b825261079d91600401613fbc565b6001600160a01b0381163b612bc05760405162461bcd60e51b815260206004820152602d60248201527f455243313936373a206e657720696d706c656d656e746174696f6e206973206e60448201526c1bdd08184818dbdb9d1c9858dd609a1b606482015260840161079d565b60008051602061441183398151915280546001600160a01b0319166001600160a01b0392909216919091179055565b612bf88361377a565b600082511180612c055750805b1561082157612c1483836137ba565b50505050565b600054610100900460ff16612c855760405162461bcd60e51b815260206004820152602b60248201527f496e697469616c697a61626c653a20636f6e7472616374206973206e6f74206960448201526a6e697469616c697a696e6760a81b606482015260840161079d565b565b60405163095ea7b360e01b81526001600160a01b038a81166004830152602482018690526000919089169063095ea7b390604401602060405180830381600087803b158015612cd557600080fd5b505af1158015612ce9573d6000803e3d6000fd5b505050506040513d601f19601f82011682018060405250810190612d0d9190613c01565b5060006040518060c001604052808881526020018b6001811115612d3357612d3361438b565b81526001600160a01b03808c1660208301528a1660408201526060810188905260800160006040519080825280601f01601f191660200182016040528015612d82576020820181803683370190505b509052604080516080810182526001600160a01b03808816825260006020830181905287821683850152606083015291516352bbbe2960e01b815292935091908d16906352bbbe2990612ddf90859085908b904290600401614151565b602060405180830381600087803b158015612df957600080fd5b505af1158015612e0d573d6000803e3d6000fd5b505050506040513d601f19601f82011682018060405250810190612e319190613c37565b9c9b505050505050505050505050565b61013454604051632e1a7d4d60e01b8152600481018390526000916001600160a01b031690632e1a7d4d90602401600060405180830381600087803b158015612e8957600080fd5b505af1158015612e9d573d6000803e3d6000fd5b505050506000612eac8361251a565b60408051600480825260a082019092529192506000919060208201608080368337505060408051600480825260a0820190925292935060009291506020820160808036833750506101335461013654604051631f29a8cd60e31b815260048101919091529293506000926001600160a01b03909116915063f94d46689060240160006040518083038186803b158015612f4457600080fd5b505afa158015612f58573d6000803e3d6000fd5b505050506040513d6000823e601f3d908101601f19168201604052612f809190810190613a94565b5050905060005b8151811015612fe657818181518110612fa257612fa26143a1565b6020026020010151848281518110612fbc57612fbc6143a1565b6001600160a01b039092166020928302919091019091015280612fde8161433d565b915050612f87565b506040805160006020820181905291810188905260016060820181905290829060800160408051601f19818403018152608083018252888352602083018890528282018190526000606084015261013354610136549251638bdb391360e01b81529194506001600160a01b031691638bdb39139161306d9190309081908790600401613e99565b600060405180830381600087803b15801561308757600080fd5b505af115801561309b573d6000803e3d6000fd5b505061012f546040516370a0823160e01b8152306004820152600093506001600160a01b0390911691506370a082319060240160206040518083038186803b1580156130e657600080fd5b505afa1580156130fa573d6000803e3d6000fd5b505050506040513d601f19601f8201168201806040525081019061311e9190613c37565b905060006131c46c0c9f2c9cd04674edea4000000061012f60009054906101000a90046001600160a01b03166001600160a01b031663679aefce6040518163ffffffff1660e01b815260040160206040518083038186803b15801561318257600080fd5b505afa158015613196573d6000803e3d6000fd5b505050506040513d601f19601f820116820180604052508101906131ba9190613c37565b611c5290856142c4565b6101335461012f5461012d54610135549394506131f8936001600160a01b0393841693600093811692169087873080612c87565b5061012d546040516370a0823160e01b81523060048201526001600160a01b03909116906370a082319060240160206040518083038186803b15801561323d57600080fd5b505afa158015612e0d573d6000803e3d6000fd5b6000612710611ae7838261428a565b60408051600280825260608201909252600091829190816020015b6132b06040518060a0016040528060008019168152602001600081526020016000815260200160008152602001606081525090565b81526020019060019003908161327b5790505090506040518060a001604052808881526020016000815260200160018152602001868152602001600067ffffffffffffffff811115613304576133046143b7565b6040519080825280601f01601f19166020018201604052801561332e576020820181803683370190505b5081525081600081518110613345576133456143a1565b60200260200101819052506040518060a00160405280878152602001600181526020016002815260200160008152602001600067ffffffffffffffff811115613390576133906143b7565b6040519080825280601f01601f1916602001820160405280156133ba576020820181803683370190505b50815250816001815181106133d1576133d16143a1565b6020908102919091010152604080516003808252608082019092526000918160200160208202803683370190505090508a81600081518110613415576134156143a1565b60200260200101906001600160a01b031690816001600160a01b0316815250508981600181518110613449576134496143a1565b60200260200101906001600160a01b031690816001600160a01b031681525050888160028151811061347d5761347d6143a1565b60200260200101906001600160a01b031690816001600160a01b03168152505060006040518060800160405280876001600160a01b03168152602001600015158152602001866001600160a01b031681526020016000151581525090508d6001600160a01b031663f84d066e8e8585856040518563ffffffff1660e01b815260040161350c9493929190613ecb565b600060405180830381600087803b15801561352657600080fd5b505af115801561353a573d6000803e3d6000fd5b505050506040513d6000823e601f3d908101601f191682016040526135629190810190613b69565b600281518110613574576135746143a1565b602002602001015161358590614358565b9e9d5050505050505050505050505050565b60006135a382866142c4565b836135ae86896142c4565b6135b891906142c4565b6135c291906142a2565b9695505050505050565b60606107706001600160a01b03831660145b606060006135ed8360026142c4565b6135f890600261428a565b67ffffffffffffffff811115613610576136106143b7565b6040519080825280601f01601f19166020018201604052801561363a576020820181803683370190505b509050600360fc1b81600081518110613655576136556143a1565b60200101906001600160f81b031916908160001a905350600f60fb1b81600181518110613684576136846143a1565b60200101906001600160f81b031916908160001a90535060006136a88460026142c4565b6136b390600161428a565b90505b600181111561372b576f181899199a1a9b1b9c1cb0b131b232b360811b85600f16601081106136e7576136e76143a1565b1a60f81b8282815181106136fd576136fd6143a1565b60200101906001600160f81b031916908160001a90535060049490941c9361372481614326565b90506136b6565b508315611afb5760405162461bcd60e51b815260206004820181905260248201527f537472696e67733a20686578206c656e67746820696e73756666696369656e74604482015260640161079d565b61378381612b53565b6040516001600160a01b038216907fbc7cd75a20ee27fd9adebab32041f755214dbc6bffa90cc0225b39da2e5c2d3b90600090a250565b60606001600160a01b0383163b6138225760405162461bcd60e51b815260206004820152602660248201527f416464726573733a2064656c65676174652063616c6c20746f206e6f6e2d636f6044820152651b9d1c9858dd60d21b606482015260840161079d565b600080846001600160a01b03168460405161383d9190613e08565b600060405180830381855af49150503d8060008114613878576040519150601f19603f3d011682016040523d82523d6000602084013e61387d565b606091505b5091509150612511828260405180606001604052806027815260200161443160279139606083156138af575081611afb565b611afb83838151156138c45781518083602001fd5b8060405162461bcd60e51b815260040161079d9190613fbc565b600082601f8301126138ef57600080fd5b815160206139046138ff83614266565b614235565b80838252828201915082860187848660051b890101111561392457600080fd5b60005b8581101561394357815184529284019290840190600101613927565b5090979650505050505050565b60006020828403121561396257600080fd5b8135611afb816143cd565b6000806040838503121561398057600080fd5b823561398b816143cd565b915060208381013567ffffffffffffffff808211156139a957600080fd5b818601915086601f8301126139bd57600080fd5b8135818111156139cf576139cf6143b7565b6139e1601f8201601f19168501614235565b915080825287848285010111156139f757600080fd5b80848401858401376000848284010152508093505050509250929050565b60008060408385031215613a2857600080fd5b8235613a33816143cd565b946020939093013593505050565b60008060008060808587031215613a5757600080fd5b8435613a62816143cd565b9350602085013592506040850135613a79816143cd565b91506060850135613a89816143e2565b939692955090935050565b600080600060608486031215613aa957600080fd5b835167ffffffffffffffff80821115613ac157600080fd5b818601915086601f830112613ad557600080fd5b81516020613ae56138ff83614266565b8083825282820191508286018b848660051b8901011115613b0557600080fd5b600096505b84871015613b31578051613b1d816143cd565b835260019690960195918301918301613b0a565b5091890151919750909350505080821115613b4b57600080fd5b50613b58868287016138de565b925050604084015190509250925092565b60006020808385031215613b7c57600080fd5b825167ffffffffffffffff811115613b9357600080fd5b8301601f81018513613ba457600080fd5b8051613bb26138ff82614266565b80828252848201915084840188868560051b8701011115613bd257600080fd5b600094505b83851015613bf5578051835260019490940193918501918501613bd7565b50979650505050505050565b600060208284031215613c1357600080fd5b8151611afb816143e2565b600060208284031215613c3057600080fd5b5035919050565b600060208284031215613c4957600080fd5b5051919050565b60008060408385031215613c6357600080fd5b823591506020830135613c75816143cd565b809150509250929050565b600060208284031215613c9257600080fd5b81356001600160e01b031981168114611afb57600080fd5b60006101c08284031215613cbd57600080fd5b50919050565b60008060408385031215613cd657600080fd5b50508035926020909101359150565b600081518084526020808501945080840160005b83811015613d1e5781516001600160a01b031687529582019590820190600101613cf9565b509495945050505050565b600081518084526020808501945080840160005b83811015613d1e57815187529582019590820190600101613d3d565b60008151808452613d718160208601602086016142fa565b601f01601f19169290920160200192915050565b60028110613da357634e487b7160e01b600052602160045260246000fd5b9052565b6000815160808452613dbc6080850182613ce5565b905060208301518482036020860152613dd58282613d29565b91505060408301518482036040860152613def8282613d59565b9150506060830151151560608501528091505092915050565b60008251613e1a8184602087016142fa565b9190910192915050565b7f416363657373436f6e74726f6c3a206163636f756e7420000000000000000000815260008351613e5c8160178501602088016142fa565b7001034b99036b4b9b9b4b733903937b6329607d1b6017918401918201528351613e8d8160288401602088016142fa565b01602801949350505050565b8481526001600160a01b038481166020830152831660408201526080606082018190526000906135c290830184613da7565b600060e08201613edb8388613d85565b602060e08185015281875180845261010093508386019150838160051b870101935082890160005b82811015613f655787860360ff190184528151805187528581015186880152604080820151908801526060808201519088015260809081015160a091880182905290613f5181890183613d59565b975050509284019290840190600101613f03565b50505050508281036040840152613f7c8186613ce5565b915050612511606083018480516001600160a01b039081168352602080830151151590840152604080830151909116908301526060908101511515910152565b602081526000611afb6020830184613d59565b6020808252601f908201527f5265737472696374656420746f20504f5254464f4c494f5f4d414e4147455200604082015260600190565b6020808252602c908201527f46756e6374696f6e206d7573742062652063616c6c6564207468726f7567682060408201526b19195b1959d85d1958d85b1b60a21b606082015260800190565b6020808252602c908201527f46756e6374696f6e206d7573742062652063616c6c6564207468726f7567682060408201526b6163746976652070726f787960a01b606082015260800190565b6020808252602e908201527f496e697469616c697a61626c653a20636f6e747261637420697320616c72656160408201526d191e481a5b9a5d1a585b1a5e995960921b606082015260800190565b6020808252601490820152735265737472696374656420746f2061646d696e7360601b604082015260600190565b60208082526019908201527f536f6d6520746f6b656e206e6f7420636f6d70617469626c6500000000000000604082015260600190565b60e08152845160e082015260006020860151614171610100840182613d85565b5060408601516001600160a01b03908116610120840152606087015116610140830152608086015161016083015260a086015160c06101808401526141ba6101a0840182613d59565b9150506141fa602083018680516001600160a01b039081168352602080830151151590840152604080830151909116908301526060908101511515910152565b60a082019390935260c0015292915050565b8381526060602082015260006142256060830185613d29565b9050826040830152949350505050565b604051601f8201601f1916810167ffffffffffffffff8111828210171561425e5761425e6143b7565b604052919050565b600067ffffffffffffffff821115614280576142806143b7565b5060051b60200190565b6000821982111561429d5761429d614375565b500190565b6000826142bf57634e487b7160e01b600052601260045260246000fd5b500490565b60008160001904831182151516156142de576142de614375565b500290565b6000828210156142f5576142f5614375565b500390565b60005b838110156143155781810151838201526020016142fd565b83811115612c145750506000910152565b60008161433557614335614375565b506000190190565b600060001982141561435157614351614375565b5060010190565b6000600160ff1b82141561436e5761436e614375565b5060000390565b634e487b7160e01b600052601160045260246000fd5b634e487b7160e01b600052602160045260246000fd5b634e487b7160e01b600052603260045260246000fd5b634e487b7160e01b600052604160045260246000fd5b6001600160a01b038116811461098157600080fd5b801515811461098157600080fdfe90c2aa7471c04182221f68e80c07ab1e5946e4c63f8693e14ca40385d529f051360894a13ba1a3210667c828492db98dca3e2076cc3735a920a3ca505d382bbc416464726573733a206c6f772d6c6576656c2064656c65676174652063616c6c206661696c6564a2646970667358221220af657f13bfb5321c5b944616d647278c9d2fec24687d3424327bed29ff41bfb664736f6c63430008060033",
  "implementation": "0xd48F0a7976df6111db7CCeb8E65a92435e2fBa3e",
  "devdoc": {
    "kind": "dev",
    "methods": {
      "constructor": {
        "custom:oz-upgrades-unsafe-allow": "constructor"
      },
      "getRoleAdmin(bytes32)": {
        "details": "Returns the admin role that controls `role`. See {grantRole} and {revokeRole}. To change a role's admin, use {_setRoleAdmin}."
      },
      "grantRole(bytes32,address)": {
        "details": "Grants `role` to `account`. If `account` had not been already granted `role`, emits a {RoleGranted} event. Requirements: - the caller must have ``role``'s admin role. May emit a {RoleGranted} event."
      },
      "hasRole(bytes32,address)": {
        "details": "Returns `true` if `account` has been granted `role`."
      },
      "proxiableUUID()": {
        "details": "Implementation of the ERC1822 {proxiableUUID} function. This returns the storage slot used by the implementation. It is used to validate the implementation's compatibility when performing an upgrade. IMPORTANT: A proxy pointing at a proxiable contract should not be considered proxiable itself, because this risks bricking a proxy that upgrades to it, by delegating to itself until out of gas. Thus it is critical that this function revert if invoked through a proxy. This is guaranteed by the `notDelegated` modifier."
      },
      "renounceRole(bytes32,address)": {
        "details": "Revokes `role` from the calling account. Roles are often managed via {grantRole} and {revokeRole}: this function's purpose is to provide a mechanism for accounts to lose their privileges if they are compromised (such as when a trusted device is misplaced). If the calling account had been revoked `role`, emits a {RoleRevoked} event. Requirements: - the caller must be `account`. May emit a {RoleRevoked} event."
      },
      "revokeRole(bytes32,address)": {
        "details": "Revokes `role` from `account`. If `account` had been granted `role`, emits a {RoleRevoked} event. Requirements: - the caller must have ``role``'s admin role. May emit a {RoleRevoked} event."
      },
      "supportsInterface(bytes4)": {
        "details": "See {IERC165-supportsInterface}."
      },
      "upgradeTo(address)": {
        "details": "Upgrade the implementation of the proxy to `newImplementation`. Calls {_authorizeUpgrade}. Emits an {Upgraded} event."
      },
      "upgradeToAndCall(address,bytes)": {
        "details": "Upgrade the implementation of the proxy to `newImplementation`, and subsequently execute the function call encoded in `data`. Calls {_authorizeUpgrade}. Emits an {Upgraded} event."
      }
    },
    "version": 1
  },
  "userdoc": {
    "kind": "user",
    "methods": {},
    "version": 1
  },
  "storageLayout": {
    "storage": [
      {
        "astId": 804,
        "contract": "contracts/StrategyBalancerUsdc.sol:StrategyBalancerUsdc",
        "label": "_initialized",
        "offset": 0,
        "slot": "0",
        "type": "t_uint8"
      },
      {
        "astId": 807,
        "contract": "contracts/StrategyBalancerUsdc.sol:StrategyBalancerUsdc",
        "label": "_initializing",
        "offset": 1,
        "slot": "0",
        "type": "t_bool"
      },
      {
        "astId": 1427,
        "contract": "contracts/StrategyBalancerUsdc.sol:StrategyBalancerUsdc",
        "label": "__gap",
        "offset": 0,
        "slot": "1",
        "type": "t_array(t_uint256)50_storage"
      },
      {
        "astId": 1706,
        "contract": "contracts/StrategyBalancerUsdc.sol:StrategyBalancerUsdc",
        "label": "__gap",
        "offset": 0,
        "slot": "51",
        "type": "t_array(t_uint256)50_storage"
      },
      {
        "astId": 39,
        "contract": "contracts/StrategyBalancerUsdc.sol:StrategyBalancerUsdc",
        "label": "_roles",
        "offset": 0,
        "slot": "101",
        "type": "t_mapping(t_bytes32,t_struct(RoleData)34_storage)"
      },
      {
        "astId": 334,
        "contract": "contracts/StrategyBalancerUsdc.sol:StrategyBalancerUsdc",
        "label": "__gap",
        "offset": 0,
        "slot": "102",
        "type": "t_array(t_uint256)49_storage"
      },
      {
        "astId": 786,
        "contract": "contracts/StrategyBalancerUsdc.sol:StrategyBalancerUsdc",
        "label": "__gap",
        "offset": 0,
        "slot": "151",
        "type": "t_array(t_uint256)50_storage"
      },
      {
        "astId": 1101,
        "contract": "contracts/StrategyBalancerUsdc.sol:StrategyBalancerUsdc",
        "label": "__gap",
        "offset": 0,
        "slot": "201",
        "type": "t_array(t_uint256)50_storage"
      },
      {
        "astId": 24614,
        "contract": "contracts/StrategyBalancerUsdc.sol:StrategyBalancerUsdc",
        "label": "portfolioManager",
        "offset": 0,
        "slot": "251",
        "type": "t_address"
      },
      {
        "astId": 24616,
        "contract": "contracts/StrategyBalancerUsdc.sol:StrategyBalancerUsdc",
        "label": "swapSlippageBP",
        "offset": 0,
        "slot": "252",
        "type": "t_uint256"
      },
      {
        "astId": 24618,
        "contract": "contracts/StrategyBalancerUsdc.sol:StrategyBalancerUsdc",
        "label": "navSlippageBP",
        "offset": 0,
        "slot": "253",
        "type": "t_uint256"
      },
      {
        "astId": 25015,
        "contract": "contracts/StrategyBalancerUsdc.sol:StrategyBalancerUsdc",
        "label": "__gap",
        "offset": 0,
        "slot": "254",
        "type": "t_array(t_uint256)47_storage"
      },
      {
        "astId": 28583,
        "contract": "contracts/StrategyBalancerUsdc.sol:StrategyBalancerUsdc",
        "label": "usdc",
        "offset": 0,
        "slot": "301",
        "type": "t_contract(IERC20)3311"
      },
      {
        "astId": 28586,
        "contract": "contracts/StrategyBalancerUsdc.sol:StrategyBalancerUsdc",
        "label": "bal",
        "offset": 0,
        "slot": "302",
        "type": "t_contract(IERC20)3311"
      },
      {
        "astId": 28589,
        "contract": "contracts/StrategyBalancerUsdc.sol:StrategyBalancerUsdc",
        "label": "bbamUsdc",
        "offset": 0,
        "slot": "303",
        "type": "t_contract(IBptToken)11196"
      },
      {
        "astId": 28592,
        "contract": "contracts/StrategyBalancerUsdc.sol:StrategyBalancerUsdc",
        "label": "bbamUsdt",
        "offset": 0,
        "slot": "304",
        "type": "t_contract(IBptToken)11196"
      },
      {
        "astId": 28595,
        "contract": "contracts/StrategyBalancerUsdc.sol:StrategyBalancerUsdc",
        "label": "bbamDai",
        "offset": 0,
        "slot": "305",
        "type": "t_contract(IBptToken)11196"
      },
      {
        "astId": 28598,
        "contract": "contracts/StrategyBalancerUsdc.sol:StrategyBalancerUsdc",
        "label": "bpt",
        "offset": 0,
        "slot": "306",
        "type": "t_contract(IBptToken)11196"
      },
      {
        "astId": 28601,
        "contract": "contracts/StrategyBalancerUsdc.sol:StrategyBalancerUsdc",
        "label": "vault",
        "offset": 0,
        "slot": "307",
        "type": "t_contract(IVault)9181"
      },
      {
        "astId": 28604,
        "contract": "contracts/StrategyBalancerUsdc.sol:StrategyBalancerUsdc",
        "label": "gauge",
        "offset": 0,
        "slot": "308",
        "type": "t_contract(IGauge)11217"
      },
      {
        "astId": 28606,
        "contract": "contracts/StrategyBalancerUsdc.sol:StrategyBalancerUsdc",
        "label": "bbamUsdcPoolId",
        "offset": 0,
        "slot": "309",
        "type": "t_bytes32"
      },
      {
        "astId": 28608,
        "contract": "contracts/StrategyBalancerUsdc.sol:StrategyBalancerUsdc",
        "label": "bbamUsdPoolId",
        "offset": 0,
        "slot": "310",
        "type": "t_bytes32"
      },
      {
        "astId": 28610,
        "contract": "contracts/StrategyBalancerUsdc.sol:StrategyBalancerUsdc",
        "label": "balPoolId",
        "offset": 0,
        "slot": "311",
        "type": "t_bytes32"
      },
      {
        "astId": 28613,
        "contract": "contracts/StrategyBalancerUsdc.sol:StrategyBalancerUsdc",
        "label": "oracleUsdc",
        "offset": 0,
        "slot": "312",
        "type": "t_contract(IPriceFeed)11292"
      },
      {
        "astId": 28616,
        "contract": "contracts/StrategyBalancerUsdc.sol:StrategyBalancerUsdc",
        "label": "oracleUsdt",
        "offset": 0,
        "slot": "313",
        "type": "t_contract(IPriceFeed)11292"
      },
      {
        "astId": 28619,
        "contract": "contracts/StrategyBalancerUsdc.sol:StrategyBalancerUsdc",
        "label": "oracleDai",
        "offset": 0,
        "slot": "314",
        "type": "t_contract(IPriceFeed)11292"
      },
      {
        "astId": 28621,
        "contract": "contracts/StrategyBalancerUsdc.sol:StrategyBalancerUsdc",
        "label": "swapSlippageBp",
        "offset": 0,
        "slot": "315",
        "type": "t_uint256"
      },
      {
        "astId": 28623,
        "contract": "contracts/StrategyBalancerUsdc.sol:StrategyBalancerUsdc",
        "label": "allowedSlippageBp",
        "offset": 0,
        "slot": "316",
        "type": "t_uint256"
      }
    ],
    "types": {
      "t_address": {
        "encoding": "inplace",
        "label": "address",
        "numberOfBytes": "20"
      },
      "t_array(t_uint256)47_storage": {
        "base": "t_uint256",
        "encoding": "inplace",
        "label": "uint256[47]",
        "numberOfBytes": "1504"
      },
      "t_array(t_uint256)49_storage": {
        "base": "t_uint256",
        "encoding": "inplace",
        "label": "uint256[49]",
        "numberOfBytes": "1568"
      },
      "t_array(t_uint256)50_storage": {
        "base": "t_uint256",
        "encoding": "inplace",
        "label": "uint256[50]",
        "numberOfBytes": "1600"
      },
      "t_bool": {
        "encoding": "inplace",
        "label": "bool",
        "numberOfBytes": "1"
      },
      "t_bytes32": {
        "encoding": "inplace",
        "label": "bytes32",
        "numberOfBytes": "32"
      },
      "t_contract(IBptToken)11196": {
        "encoding": "inplace",
        "label": "contract IBptToken",
        "numberOfBytes": "20"
      },
      "t_contract(IERC20)3311": {
        "encoding": "inplace",
        "label": "contract IERC20",
        "numberOfBytes": "20"
      },
      "t_contract(IGauge)11217": {
        "encoding": "inplace",
        "label": "contract IGauge",
        "numberOfBytes": "20"
      },
      "t_contract(IPriceFeed)11292": {
        "encoding": "inplace",
        "label": "contract IPriceFeed",
        "numberOfBytes": "20"
      },
      "t_contract(IVault)9181": {
        "encoding": "inplace",
        "label": "contract IVault",
        "numberOfBytes": "20"
      },
      "t_mapping(t_address,t_bool)": {
        "encoding": "mapping",
        "key": "t_address",
        "label": "mapping(address => bool)",
        "numberOfBytes": "32",
        "value": "t_bool"
      },
      "t_mapping(t_bytes32,t_struct(RoleData)34_storage)": {
        "encoding": "mapping",
        "key": "t_bytes32",
        "label": "mapping(bytes32 => struct AccessControlUpgradeable.RoleData)",
        "numberOfBytes": "32",
        "value": "t_struct(RoleData)34_storage"
      },
      "t_struct(RoleData)34_storage": {
        "encoding": "inplace",
        "label": "struct AccessControlUpgradeable.RoleData",
        "members": [
          {
            "astId": 31,
            "contract": "contracts/StrategyBalancerUsdc.sol:StrategyBalancerUsdc",
            "label": "members",
            "offset": 0,
            "slot": "0",
            "type": "t_mapping(t_address,t_bool)"
          },
          {
            "astId": 33,
            "contract": "contracts/StrategyBalancerUsdc.sol:StrategyBalancerUsdc",
            "label": "adminRole",
            "offset": 0,
            "slot": "1",
            "type": "t_bytes32"
          }
        ],
        "numberOfBytes": "64"
      },
      "t_uint256": {
        "encoding": "inplace",
        "label": "uint256",
        "numberOfBytes": "32"
      },
      "t_uint8": {
        "encoding": "inplace",
        "label": "uint8",
        "numberOfBytes": "1"
      }
    }
  }
}