{
  "address": "0x93FdE263299EA976f8a01a0239b9858528954299",
  "abi": [
    {
      "inputs": [],
      "stateMutability": "nonpayable",
      "type": "constructor"
    },
    {
      "anonymous": false,
      "inputs": [
        {
          "indexed": false,
          "internalType": "address",
          "name": "previousAdmin",
          "type": "address"
        },
        {
          "indexed": false,
          "internalType": "address",
          "name": "newAdmin",
          "type": "address"
        }
      ],
      "name": "AdminChanged",
      "type": "event"
    },
    {
      "anonymous": false,
      "inputs": [
        {
          "indexed": true,
          "internalType": "address",
          "name": "beacon",
          "type": "address"
        }
      ],
      "name": "BeaconUpgraded",
      "type": "event"
    },
    {
      "anonymous": false,
      "inputs": [
        {
          "indexed": false,
          "internalType": "address",
          "name": "value",
          "type": "address"
        }
      ],
      "name": "PortfolioManagerUpdated",
      "type": "event"
    },
    {
      "anonymous": false,
      "inputs": [
        {
          "indexed": false,
          "internalType": "uint256",
          "name": "amount",
          "type": "uint256"
        }
      ],
      "name": "Reward",
      "type": "event"
    },
    {
      "anonymous": false,
      "inputs": [
        {
          "indexed": true,
          "internalType": "bytes32",
          "name": "role",
          "type": "bytes32"
        },
        {
          "indexed": true,
          "internalType": "bytes32",
          "name": "previousAdminRole",
          "type": "bytes32"
        },
        {
          "indexed": true,
          "internalType": "bytes32",
          "name": "newAdminRole",
          "type": "bytes32"
        }
      ],
      "name": "RoleAdminChanged",
      "type": "event"
    },
    {
      "anonymous": false,
      "inputs": [
        {
          "indexed": true,
          "internalType": "bytes32",
          "name": "role",
          "type": "bytes32"
        },
        {
          "indexed": true,
          "internalType": "address",
          "name": "account",
          "type": "address"
        },
        {
          "indexed": true,
          "internalType": "address",
          "name": "sender",
          "type": "address"
        }
      ],
      "name": "RoleGranted",
      "type": "event"
    },
    {
      "anonymous": false,
      "inputs": [
        {
          "indexed": true,
          "internalType": "bytes32",
          "name": "role",
          "type": "bytes32"
        },
        {
          "indexed": true,
          "internalType": "address",
          "name": "account",
          "type": "address"
        },
        {
          "indexed": true,
          "internalType": "address",
          "name": "sender",
          "type": "address"
        }
      ],
      "name": "RoleRevoked",
      "type": "event"
    },
    {
      "anonymous": false,
      "inputs": [
        {
          "indexed": false,
          "internalType": "uint256",
          "name": "amount",
          "type": "uint256"
        }
      ],
      "name": "Stake",
      "type": "event"
    },
    {
      "anonymous": false,
      "inputs": [
        {
          "indexed": false,
          "internalType": "address",
          "name": "dodoV1UsdcUsdtPool",
          "type": "address"
        },
        {
          "indexed": false,
          "internalType": "address",
          "name": "dodoV2DodoUsdtPool",
          "type": "address"
        },
        {
          "indexed": false,
          "internalType": "address",
          "name": "dodoMine",
          "type": "address"
        },
        {
          "indexed": false,
          "internalType": "address",
          "name": "dodoV1Helper",
          "type": "address"
        },
        {
          "indexed": false,
          "internalType": "address",
          "name": "dodoProxy",
          "type": "address"
        },
        {
          "indexed": false,
          "internalType": "address",
          "name": "dodoApprove",
          "type": "address"
        },
        {
          "indexed": false,
          "internalType": "address",
          "name": "balancerVault",
          "type": "address"
        },
        {
          "indexed": false,
          "internalType": "bytes32",
          "name": "balancerPoolId",
          "type": "bytes32"
        }
      ],
      "name": "StrategyDodoUpdatedParams",
      "type": "event"
    },
    {
      "anonymous": false,
      "inputs": [
        {
          "indexed": false,
          "internalType": "address",
          "name": "usdcToken",
          "type": "address"
        },
        {
          "indexed": false,
          "internalType": "address",
          "name": "usdtToken",
          "type": "address"
        },
        {
          "indexed": false,
          "internalType": "address",
          "name": "dodoToken",
          "type": "address"
        },
        {
          "indexed": false,
          "internalType": "address",
          "name": "usdcLPToken",
          "type": "address"
        },
        {
          "indexed": false,
          "internalType": "address",
          "name": "usdtLPToken",
          "type": "address"
        }
      ],
      "name": "StrategyDodoUpdatedTokens",
      "type": "event"
    },
    {
      "anonymous": false,
      "inputs": [
        {
          "indexed": false,
          "internalType": "uint256",
          "name": "amount",
          "type": "uint256"
        },
        {
          "indexed": false,
          "internalType": "uint256",
          "name": "amountReceived",
          "type": "uint256"
        }
      ],
      "name": "Unstake",
      "type": "event"
    },
    {
      "anonymous": false,
      "inputs": [
        {
          "indexed": true,
          "internalType": "address",
          "name": "implementation",
          "type": "address"
        }
      ],
      "name": "Upgraded",
      "type": "event"
    },
    {
      "inputs": [],
      "name": "DEFAULT_ADMIN_ROLE",
      "outputs": [
        {
          "internalType": "bytes32",
          "name": "",
          "type": "bytes32"
        }
      ],
      "stateMutability": "view",
      "type": "function"
    },
    {
      "inputs": [],
      "name": "MAX_VALUE",
      "outputs": [
        {
          "internalType": "int256",
          "name": "",
          "type": "int256"
        }
      ],
      "stateMutability": "view",
      "type": "function"
    },
    {
      "inputs": [],
      "name": "PORTFOLIO_MANAGER",
      "outputs": [
        {
          "internalType": "bytes32",
          "name": "",
          "type": "bytes32"
        }
      ],
      "stateMutability": "view",
      "type": "function"
    },
    {
      "inputs": [],
      "name": "UPGRADER_ROLE",
      "outputs": [
        {
          "internalType": "bytes32",
          "name": "",
          "type": "bytes32"
        }
      ],
      "stateMutability": "view",
      "type": "function"
    },
    {
      "inputs": [],
      "name": "balancerPoolId",
      "outputs": [
        {
          "internalType": "bytes32",
          "name": "",
          "type": "bytes32"
        }
      ],
      "stateMutability": "view",
      "type": "function"
    },
    {
      "inputs": [
        {
          "internalType": "address",
          "name": "_to",
          "type": "address"
        }
      ],
      "name": "claimRewards",
      "outputs": [
        {
          "internalType": "uint256",
          "name": "",
          "type": "uint256"
        }
      ],
      "stateMutability": "nonpayable",
      "type": "function"
    },
    {
      "inputs": [],
      "name": "dodoMine",
      "outputs": [
        {
          "internalType": "contract IDODOMine",
          "name": "",
          "type": "address"
        }
      ],
      "stateMutability": "view",
      "type": "function"
    },
    {
      "inputs": [],
      "name": "dodoToken",
      "outputs": [
        {
          "internalType": "contract IERC20",
          "name": "",
          "type": "address"
        }
      ],
      "stateMutability": "view",
      "type": "function"
    },
    {
      "inputs": [],
      "name": "dodoV1UsdcUsdtPool",
      "outputs": [
        {
          "internalType": "contract IDODOV1",
          "name": "",
          "type": "address"
        }
      ],
      "stateMutability": "view",
      "type": "function"
    },
    {
      "inputs": [],
      "name": "dodoV2DodoUsdtPool",
      "outputs": [
        {
          "internalType": "contract IDODOV2",
          "name": "",
          "type": "address"
        }
      ],
      "stateMutability": "view",
      "type": "function"
    },
    {
      "inputs": [
        {
          "internalType": "bytes32",
          "name": "role",
          "type": "bytes32"
        }
      ],
      "name": "getRoleAdmin",
      "outputs": [
        {
          "internalType": "bytes32",
          "name": "",
          "type": "bytes32"
        }
      ],
      "stateMutability": "view",
      "type": "function"
    },
    {
      "inputs": [
        {
          "internalType": "bytes32",
          "name": "role",
          "type": "bytes32"
        },
        {
          "internalType": "address",
          "name": "account",
          "type": "address"
        }
      ],
      "name": "grantRole",
      "outputs": [],
      "stateMutability": "nonpayable",
      "type": "function"
    },
    {
      "inputs": [
        {
          "internalType": "bytes32",
          "name": "role",
          "type": "bytes32"
        },
        {
          "internalType": "address",
          "name": "account",
          "type": "address"
        }
      ],
      "name": "hasRole",
      "outputs": [
        {
          "internalType": "bool",
          "name": "",
          "type": "bool"
        }
      ],
      "stateMutability": "view",
      "type": "function"
    },
    {
      "inputs": [],
      "name": "initialize",
      "outputs": [],
      "stateMutability": "nonpayable",
      "type": "function"
    },
    {
      "inputs": [],
      "name": "liquidationValue",
      "outputs": [
        {
          "internalType": "uint256",
          "name": "",
          "type": "uint256"
        }
      ],
      "stateMutability": "view",
      "type": "function"
    },
    {
      "inputs": [],
      "name": "netAssetValue",
      "outputs": [
        {
          "internalType": "uint256",
          "name": "",
          "type": "uint256"
        }
      ],
      "stateMutability": "view",
      "type": "function"
    },
    {
      "inputs": [],
      "name": "portfolioManager",
      "outputs": [
        {
          "internalType": "address",
          "name": "",
          "type": "address"
        }
      ],
      "stateMutability": "view",
      "type": "function"
    },
    {
      "inputs": [],
      "name": "proxiableUUID",
      "outputs": [
        {
          "internalType": "bytes32",
          "name": "",
          "type": "bytes32"
        }
      ],
      "stateMutability": "view",
      "type": "function"
    },
    {
      "inputs": [
        {
          "internalType": "bytes32",
          "name": "role",
          "type": "bytes32"
        },
        {
          "internalType": "address",
          "name": "account",
          "type": "address"
        }
      ],
      "name": "renounceRole",
      "outputs": [],
      "stateMutability": "nonpayable",
      "type": "function"
    },
    {
      "inputs": [
        {
          "internalType": "bytes32",
          "name": "role",
          "type": "bytes32"
        },
        {
          "internalType": "address",
          "name": "account",
          "type": "address"
        }
      ],
      "name": "revokeRole",
      "outputs": [],
      "stateMutability": "nonpayable",
      "type": "function"
    },
    {
      "inputs": [
        {
          "internalType": "address",
          "name": "_dodoV1UsdcUsdtPool",
          "type": "address"
        },
        {
          "internalType": "address",
          "name": "_dodoV2DodoUsdtPool",
          "type": "address"
        },
        {
          "internalType": "address",
          "name": "_dodoMine",
          "type": "address"
        },
        {
          "internalType": "address",
          "name": "_dodoV1Helper",
          "type": "address"
        },
        {
          "internalType": "address",
          "name": "_dodoProxy",
          "type": "address"
        },
        {
          "internalType": "address",
          "name": "_dodoApprove",
          "type": "address"
        },
        {
          "internalType": "address",
          "name": "_balancerVault",
          "type": "address"
        },
        {
          "internalType": "bytes32",
          "name": "_balancerPoolId",
          "type": "bytes32"
        }
      ],
      "name": "setParams",
      "outputs": [],
      "stateMutability": "nonpayable",
      "type": "function"
    },
    {
      "inputs": [
        {
          "internalType": "address",
          "name": "_value",
          "type": "address"
        }
      ],
      "name": "setPortfolioManager",
      "outputs": [],
      "stateMutability": "nonpayable",
      "type": "function"
    },
    {
      "inputs": [
        {
          "internalType": "address",
          "name": "_usdcToken",
          "type": "address"
        },
        {
          "internalType": "address",
          "name": "_usdtToken",
          "type": "address"
        },
        {
          "internalType": "address",
          "name": "_dodoToken",
          "type": "address"
        },
        {
          "internalType": "address",
          "name": "_usdcLPToken",
          "type": "address"
        },
        {
          "internalType": "address",
          "name": "_usdtLPToken",
          "type": "address"
        }
      ],
      "name": "setTokens",
      "outputs": [],
      "stateMutability": "nonpayable",
      "type": "function"
    },
    {
      "inputs": [
        {
          "internalType": "address",
          "name": "_asset",
          "type": "address"
        },
        {
          "internalType": "uint256",
          "name": "_amount",
          "type": "uint256"
        }
      ],
      "name": "stake",
      "outputs": [],
      "stateMutability": "nonpayable",
      "type": "function"
    },
    {
      "inputs": [
        {
          "internalType": "bytes4",
          "name": "interfaceId",
          "type": "bytes4"
        }
      ],
      "name": "supportsInterface",
      "outputs": [
        {
          "internalType": "bool",
          "name": "",
          "type": "bool"
        }
      ],
      "stateMutability": "view",
      "type": "function"
    },
    {
      "inputs": [
        {
          "internalType": "address",
          "name": "_asset",
          "type": "address"
        },
        {
          "internalType": "uint256",
          "name": "_amount",
          "type": "uint256"
        },
        {
          "internalType": "address",
          "name": "_beneficiary",
          "type": "address"
        },
        {
          "internalType": "bool",
          "name": "_targetIsZero",
          "type": "bool"
        }
      ],
      "name": "unstake",
      "outputs": [
        {
          "internalType": "uint256",
          "name": "",
          "type": "uint256"
        }
      ],
      "stateMutability": "nonpayable",
      "type": "function"
    },
    {
      "inputs": [
        {
          "internalType": "address",
          "name": "newImplementation",
          "type": "address"
        }
      ],
      "name": "upgradeTo",
      "outputs": [],
      "stateMutability": "nonpayable",
      "type": "function"
    },
    {
      "inputs": [
        {
          "internalType": "address",
          "name": "newImplementation",
          "type": "address"
        },
        {
          "internalType": "bytes",
          "name": "data",
          "type": "bytes"
        }
      ],
      "name": "upgradeToAndCall",
      "outputs": [],
      "stateMutability": "payable",
      "type": "function"
    },
    {
      "inputs": [],
      "name": "usdcLPToken",
      "outputs": [
        {
          "internalType": "contract IERC20",
          "name": "",
          "type": "address"
        }
      ],
      "stateMutability": "view",
      "type": "function"
    },
    {
      "inputs": [],
      "name": "usdcToken",
      "outputs": [
        {
          "internalType": "contract IERC20",
          "name": "",
          "type": "address"
        }
      ],
      "stateMutability": "view",
      "type": "function"
    },
    {
      "inputs": [],
      "name": "usdtLPToken",
      "outputs": [
        {
          "internalType": "contract IERC20",
          "name": "",
          "type": "address"
        }
      ],
      "stateMutability": "view",
      "type": "function"
    },
    {
      "inputs": [],
      "name": "usdtToken",
      "outputs": [
        {
          "internalType": "contract IERC20",
          "name": "",
          "type": "address"
        }
      ],
      "stateMutability": "view",
      "type": "function"
    }
  ],
  "numDeployments": 2,
  "solcInputHash": "92f3a77b78eee3bbef983c14a9f97f01",
  "bytecode": "0x60a06040523060601b6080523480156200001857600080fd5b50600054610100900460ff16620000365760005460ff161562000040565b62000040620000e5565b620000a85760405162461bcd60e51b815260206004820152602e60248201527f496e697469616c697a61626c653a20636f6e747261637420697320616c72656160448201526d191e481a5b9a5d1a585b1a5e995960921b606482015260840160405180910390fd5b600054610100900460ff16158015620000cb576000805461ffff19166101011790555b8015620000de576000805461ff00191690555b5062000112565b6000620000fd306200010360201b620012661760201c565b15905090565b6001600160a01b03163b151590565b60805160601c61413b6200014d6000396000818161088f015281816108cf0152818161096f015281816109af0152610a3e015261413b6000f3fe6080604052600436106101e35760003560e01c80637d5f580211610102578063a7a61d0511610095578063dbbb64b911610064578063dbbb64b914610566578063ef5cfb8c1461057d578063f6f6b8811461059d578063f72c0d8b146105bd57600080fd5b8063a7a61d05146104e4578063a98ad46c14610505578063adc9772e14610526578063d547741f1461054657600080fd5b806391d14854116100d157806391d148541461048f578063a217fddf146104af578063a3673b3814610318578063a440b21a146104c457600080fd5b80637d5f5802146104175780638129fc1c146104395780638400150a1461044e57806387b94e6c1461046f57600080fd5b80632f2ff15d1161017a57806352d1902d1161014957806352d1902d146103a05780635f5d905c146103b5578063620b75df146103d657806375123ff9146103f657600080fd5b80632f2ff15d1461032d57806336568abe1461034d5780633659cfe61461036d5780634f1ef2861461038d57600080fd5b806311eac855116101b657806311eac855146102a6578063154e4f58146102c7578063248a9ca3146102e85780632576e65a1461031857600080fd5b806301ffc9a7146101e8578063063bde241461021d57806307ab0a7e1461024b5780630fc55bfd14610284575b600080fd5b3480156101f457600080fd5b50610208610203366004613968565b6105f1565b60405190151581526020015b60405180910390f35b34801561022957600080fd5b5061023d6b033b2e3c9fd0803ce800000081565b604051908152602001610214565b34801561025757600080fd5b506101685461026c906001600160a01b031681565b6040516001600160a01b039091168152602001610214565b34801561029057600080fd5b506102a461029f3660046135a9565b610628565b005b3480156102b257600080fd5b506101625461026c906001600160a01b031681565b3480156102d357600080fd5b506101675461026c906001600160a01b031681565b3480156102f457600080fd5b5061023d610303366004613911565b60009081526065602052604090206001015490565b34801561032457600080fd5b5061023d6107cc565b34801561033957600080fd5b506102a4610348366004613943565b6107db565b34801561035957600080fd5b506102a4610368366004613943565b610806565b34801561037957600080fd5b506102a461038836600461358c565b610884565b6102a461039b3660046136ba565b610964565b3480156103ac57600080fd5b5061023d610a31565b3480156103c157600080fd5b506101665461026c906001600160a01b031681565b3480156103e257600080fd5b5060fb5461026c906001600160a01b031681565b34801561040257600080fd5b506101645461026c906001600160a01b031681565b34801561042357600080fd5b5061023d60008051602061409f83398151915281565b34801561044557600080fd5b506102a4610ae4565b34801561045a57600080fd5b506101695461026c906001600160a01b031681565b34801561047b57600080fd5b506102a461048a36600461361a565b610b5d565b34801561049b57600080fd5b506102086104aa366004613943565b610dcd565b3480156104bb57600080fd5b5061023d600081565b3480156104d057600080fd5b506102a46104df36600461358c565b610df8565b3480156104f057600080fd5b506101655461026c906001600160a01b031681565b34801561051157600080fd5b506101635461026c906001600160a01b031681565b34801561053257600080fd5b506102a46105413660046137a0565b610ed6565b34801561055257600080fd5b506102a4610561366004613943565b610fbf565b34801561057257600080fd5b5061023d61016a5481565b34801561058957600080fd5b5061023d61059836600461358c565b610fe5565b3480156105a957600080fd5b5061023d6105b83660046137cc565b611067565b3480156105c957600080fd5b5061023d7f189ab7a9244df0848122154315af71fe140f3db0fe014031783b0946b8c9d2e381565b60006001600160e01b03198216637965db0b60e01b148061062257506301ffc9a760e01b6001600160e01b03198316145b92915050565b610633600033610dcd565b6106585760405162461bcd60e51b815260040161064f90613d1e565b60405180910390fd5b6001600160a01b03851661067e5760405162461bcd60e51b815260040161064f90613d83565b6001600160a01b0384166106a45760405162461bcd60e51b815260040161064f90613d83565b6001600160a01b0383166106ca5760405162461bcd60e51b815260040161064f90613d83565b6001600160a01b0382166106f05760405162461bcd60e51b815260040161064f90613d83565b6001600160a01b0381166107165760405162461bcd60e51b815260040161064f90613d83565b61016280546001600160a01b038781166001600160a01b03199283168117909355610163805488831690841681179091556101648054888416908516811790915561016580548885169086168117909155610166805494881694909516841790945560408051958652602086019290925290840152606083019190915260808201527f1eb2ec66971c47166b02af35b989cec29a89ac6ca053121f2445e524658066dc9060a00160405180910390a15050505050565b60006107d6611275565b905090565b6000828152606560205260409020600101546107f781336114f3565b6108018383611557565b505050565b6001600160a01b03811633146108765760405162461bcd60e51b815260206004820152602f60248201527f416363657373436f6e74726f6c3a2063616e206f6e6c792072656e6f756e636560448201526e103937b632b9903337b91039b2b63360891b606482015260840161064f565b61088082826115dd565b5050565b306001600160a01b037f00000000000000000000000000000000000000000000000000000000000000001614156108cd5760405162461bcd60e51b815260040161064f90613c38565b7f00000000000000000000000000000000000000000000000000000000000000006001600160a01b03166109166000805160206140bf833981519152546001600160a01b031690565b6001600160a01b03161461093c5760405162461bcd60e51b815260040161064f90613c84565b61094581611644565b604080516000808252602082019092526109619183919061166f565b50565b306001600160a01b037f00000000000000000000000000000000000000000000000000000000000000001614156109ad5760405162461bcd60e51b815260040161064f90613c38565b7f00000000000000000000000000000000000000000000000000000000000000006001600160a01b03166109f66000805160206140bf833981519152546001600160a01b031690565b6001600160a01b031614610a1c5760405162461bcd60e51b815260040161064f90613c84565b610a2582611644565b6108808282600161166f565b6000306001600160a01b037f00000000000000000000000000000000000000000000000000000000000000001614610ad15760405162461bcd60e51b815260206004820152603860248201527f555550535570677261646561626c653a206d757374206e6f742062652063616c60448201527f6c6564207468726f7567682064656c656761746563616c6c0000000000000000606482015260840161064f565b506000805160206140bf83398151915290565b600054610100900460ff16610aff5760005460ff1615610b03565b303b155b610b1f5760405162461bcd60e51b815260040161064f90613cd0565b600054610100900460ff16158015610b41576000805461ffff19166101011790555b610b496117e9565b8015610961576000805461ff001916905550565b610b68600033610dcd565b610b845760405162461bcd60e51b815260040161064f90613d1e565b6001600160a01b038816610baa5760405162461bcd60e51b815260040161064f90613d83565b6001600160a01b038716610bd05760405162461bcd60e51b815260040161064f90613d83565b6001600160a01b038616610bf65760405162461bcd60e51b815260040161064f90613d83565b6001600160a01b038516610c1c5760405162461bcd60e51b815260040161064f90613d83565b6001600160a01b038416610c425760405162461bcd60e51b815260040161064f90613d83565b6001600160a01b038316610c685760405162461bcd60e51b815260040161064f90613d83565b6001600160a01b038216610c8e5760405162461bcd60e51b815260040161064f90613d83565b80610cdb5760405162461bcd60e51b815260206004820152601960248201527f456d70747920706f6f6c206964206e6f7420616c6c6f77656400000000000000604482015260640161064f565b61016780546001600160a01b038a81166001600160a01b0319928316811790935561016880548b8316908416811790915561016980548b8416908516811790915561016a86905561012d80548b8516908616811790915561012e80548b8616908716811790915561012f80548b871690881681179091556101308054968b16969097168617909655604080519788526020880194909452868401929092526060860152608085015260a084019290925260c083015260e08201839052517f3bfbd6752cd162d97c806a70d49d788f3d50a421ae236f5558ad37c373a61759918190036101000190a15050505050505050565b60009182526065602090815260408084206001600160a01b0393909316845291905290205460ff1690565b610e03600033610dcd565b610e1f5760405162461bcd60e51b815260040161064f90613d1e565b6001600160a01b038116610e455760405162461bcd60e51b815260040161064f90613d83565b60fb54610e6a9060008051602061409f833981519152906001600160a01b0316610fbf565b610e8260008051602061409f833981519152826107db565b60fb80546001600160a01b0319166001600160a01b0383169081179091556040519081527ff7b449fcd5cfb7379dcd34cb69428dd9f882033b15be33d83b42d91daa28eeb79060200160405180910390a150565b610eee60008051602061409f83398151915233610dcd565b610f0a5760405162461bcd60e51b815260040161064f90613c01565b6040518181527f227a473b70d2f893cc7659219575c030a63b5743024fe1e0c1a680e708b1525a9060200160405180910390a16040516370a0823160e01b81523060048201526108809083906001600160a01b038216906370a082319060240160206040518083038186803b158015610f8257600080fd5b505afa158015610f96573d6000803e3d6000fd5b505050506040513d601f19601f82011682018060405250810190610fba919061392a565b61188b565b600082815260656020526040902060010154610fdb81336114f3565b61080183836115dd565b6000610fff60008051602061409f83398151915233610dcd565b61101b5760405162461bcd60e51b815260040161064f90613c01565b600061102683611bf3565b90507f3ac0594a85a20354f9dc74f33728416d19ce00d04a406c108cc2dcf2cecea1348160405161105991815260200190565b60405180910390a192915050565b600061108160008051602061409f83398151915233610dcd565b61109d5760405162461bcd60e51b815260040161064f90613c01565b600082156110b6576110af8685611e3b565b9050611125565b6110c186868661207d565b9050848110156111255760405162461bcd60e51b815260206004820152602960248201527f52657475726e65642076616c7565206c657373207468616e2072657175657374604482015268195908185b5bdd5b9d60ba1b606482015260840161064f565b6040516370a0823160e01b81523060048201526000906001600160a01b038816906370a082319060240160206040518083038186803b15801561116757600080fd5b505afa15801561117b573d6000803e3d6000fd5b505050506040513d601f19601f8201168201806040525081019061119f919061392a565b60405163a9059cbb60e01b81529091506001600160a01b0388169063a9059cbb906111d09088908590600401613bd5565b602060405180830381600087803b1580156111ea57600080fd5b505af11580156111fe573d6000803e3d6000fd5b505050506040513d601f19601f8201168201806040525081019061122291906138f4565b5060408051878152602081018390527f9045c2ac9b2026de8075f2701bbdde882cd5e830b3b1ead9a15b22f2b5b93742910160405180910390a19695505050505050565b6001600160a01b03163b151590565b61016954610166546040516319a78f5560e01b81526001600160a01b039182166004820152306024820152600092839216906319a78f559060440160206040518083038186803b1580156112c857600080fd5b505afa1580156112dc573d6000803e3d6000fd5b505050506040513d601f19601f82011682018060405250810190611300919061392a565b90508061130f57600091505090565b61016654604080516318160ddd60e01b815290516000926001600160a01b0316916318160ddd916004808301926020929190829003018186803b15801561135557600080fd5b505afa158015611369573d6000803e3d6000fd5b505050506040513d601f19601f8201168201806040525081019061138d919061392a565b9050600061016760009054906101000a90046001600160a01b03166001600160a01b031663ffa642256040518163ffffffff1660e01b8152600401604080518083038186803b1580156113df57600080fd5b505afa1580156113f3573d6000803e3d6000fd5b505050506040513d601f19601f820116820180604052508101906114179190613992565b915060009050826114288386613f8a565b6114329190613f68565b61016a54610163546101625492935060009261145e929184916001600160a01b03918216911686612487565b610162546040516370a0823160e01b815230600482015291925082916001600160a01b03909116906370a082319060240160206040518083038186803b1580156114a757600080fd5b505afa1580156114bb573d6000803e3d6000fd5b505050506040513d601f19601f820116820180604052508101906114df919061392a565b6114e99190613f50565b9550505050505090565b6114fd8282610dcd565b61088057611515816001600160a01b0316601461296d565b61152083602061296d565b604051602001611531929190613ad5565b60408051601f198184030181529082905262461bcd60e51b825261064f91600401613bee565b6115618282610dcd565b6108805760008281526065602090815260408083206001600160a01b03851684529091529020805460ff191660011790556115993390565b6001600160a01b0316816001600160a01b0316837f2f8788117e7eff1d82e926ec794901d17c78024a50270940304540a733656f0d60405160405180910390a45050565b6115e78282610dcd565b156108805760008281526065602090815260408083206001600160a01b0385168085529252808320805460ff1916905551339285917ff6391f5c32d9c69d2a47ea670b442974b53935d1edc7fd64eb21e047a839171b9190a45050565b7f189ab7a9244df0848122154315af71fe140f3db0fe014031783b0946b8c9d2e361088081336114f3565b7f4910fdfa16fed3260ed0e7147f7cc6da11a60208b5b9406d12a635614ffd91435460ff16156116a25761080183612b09565b826001600160a01b03166352d1902d6040518163ffffffff1660e01b815260040160206040518083038186803b1580156116db57600080fd5b505afa92505050801561170b575060408051601f3d908101601f191682019092526117089181019061392a565b60015b61176e5760405162461bcd60e51b815260206004820152602e60248201527f45524331393637557067726164653a206e657720696d706c656d656e7461746960448201526d6f6e206973206e6f74205555505360901b606482015260840161064f565b6000805160206140bf83398151915281146117dd5760405162461bcd60e51b815260206004820152602960248201527f45524331393637557067726164653a20756e737570706f727465642070726f786044820152681a58589b195555525160ba1b606482015260840161064f565b50610801838383612ba5565b600054610100900460ff166118045760005460ff1615611808565b303b155b6118245760405162461bcd60e51b815260040161064f90613cd0565b600054610100900460ff16158015611846576000805461ffff19166101011790555b61184e612bd0565b611856612bd0565b611861600033611557565b610b497f189ab7a9244df0848122154315af71fe140f3db0fe014031783b0946b8c9d2e333611557565b610162546001600160a01b038381169116146118b95760405162461bcd60e51b815260040161064f90613d4c565b610162546040516370a0823160e01b81523060048201526000916001600160a01b0316906370a082319060240160206040518083038186803b1580156118fe57600080fd5b505afa158015611912573d6000803e3d6000fd5b505050506040513d601f19601f82011682018060405250810190611936919061392a565b61016a546101625461016354929350600092611965929184916001600160a01b03918216911630808885612c3d565b610163546101675460405163095ea7b360e01b81529293506001600160a01b039182169263095ea7b39261199f9216908590600401613bd5565b602060405180830381600087803b1580156119b957600080fd5b505af11580156119cd573d6000803e3d6000fd5b505050506040513d601f19601f820116820180604052508101906119f191906138f4565b50610167546040516317c5e7d960e21b81526001600160a01b0390911690635f179f6490611a259030908590600401613bd5565b602060405180830381600087803b158015611a3f57600080fd5b505af1158015611a53573d6000803e3d6000fd5b505050506040513d601f19601f82011682018060405250810190611a77919061392a565b50610166546040516370a0823160e01b81523060048201526000916001600160a01b0316906370a082319060240160206040518083038186803b158015611abd57600080fd5b505afa158015611ad1573d6000803e3d6000fd5b505050506040513d601f19601f82011682018060405250810190611af5919061392a565b610166546101695460405163095ea7b360e01b81529293506001600160a01b039182169263095ea7b392611b2f9216908590600401613bd5565b602060405180830381600087803b158015611b4957600080fd5b505af1158015611b5d573d6000803e3d6000fd5b505050506040513d601f19601f82011682018060405250810190611b8191906138f4565b5061016954610166546040516311f9fbc960e21b81526001600160a01b03928316926347e7ef2492611bba929116908590600401613bd5565b600060405180830381600087803b158015611bd457600080fd5b505af1158015611be8573d6000803e3d6000fd5b505050505050505050565b610169546040805163d1058e5960e01b815290516000926001600160a01b03169163d1058e59916004808301928692919082900301818387803b158015611c3957600080fd5b505af1158015611c4d573d6000803e3d6000fd5b5050610164546040516370a0823160e01b8152306004820152600093506001600160a01b0390911691506370a082319060240160206040518083038186803b158015611c9857600080fd5b505afa158015611cac573d6000803e3d6000fd5b505050506040513d601f19601f82011682018060405250810190611cd0919061392a565b905080611ce05750600092915050565b610168546101645461016354600092611d0d926001600160a01b0391821692908216911685600186612e9d565b610167546101635461016254929350600092611d3c926001600160a01b0390811692811691168560018061316a565b610162546040516370a0823160e01b81523060048201529192506001600160a01b03169063a9059cbb90879083906370a082319060240160206040518083038186803b158015611d8b57600080fd5b505afa158015611d9f573d6000803e3d6000fd5b505050506040513d601f19601f82011682018060405250810190611dc3919061392a565b6040518363ffffffff1660e01b8152600401611de0929190613bd5565b602060405180830381600087803b158015611dfa57600080fd5b505af1158015611e0e573d6000803e3d6000fd5b505050506040513d601f19601f82011682018060405250810190611e3291906138f4565b50949350505050565b610162546000906001600160a01b03848116911614611e6c5760405162461bcd60e51b815260040161064f90613d4c565b6101695461016654604051630fa09e6360e41b81526001600160a01b03918216600482015291169063fa09e63090602401600060405180830381600087803b158015611eb757600080fd5b505af1158015611ecb573d6000803e3d6000fd5b50505050600061016760009054906101000a90046001600160a01b03166001600160a01b031663c59203af6040518163ffffffff1660e01b8152600401602060405180830381600087803b158015611f2257600080fd5b505af1158015611f36573d6000803e3d6000fd5b505050506040513d601f19601f82011682018060405250810190611f5a919061392a565b61016a5461016354610162546040516370a0823160e01b81523060048201819052949550611ff8946000936001600160a01b03908116931691819084906370a08231906024015b60206040518083038186803b158015611fb957600080fd5b505afa158015611fcd573d6000803e3d6000fd5b505050506040513d601f19601f82011682018060405250810190611ff1919061392a565b6000612c3d565b50610162546040516370a0823160e01b81523060048201526001600160a01b03909116906370a082319060240160206040518083038186803b15801561203d57600080fd5b505afa158015612051573d6000803e3d6000fd5b505050506040513d601f19601f82011682018060405250810190612075919061392a565b949350505050565b610162546000906001600160a01b038581169116146120ae5760405162461bcd60e51b815260040161064f90613d4c565b610162546040516370a0823160e01b81523060048201526000916001600160a01b0316906370a082319060240160206040518083038186803b1580156120f357600080fd5b505afa158015612107573d6000803e3d6000fd5b505050506040513d601f19601f8201168201806040525081019061212b919061392a565b6121359085613fa9565b612140906005613f50565b61016a54610163546101625492935060009261216d92916001916001600160a01b03918216911686612487565b9050600061016660009054906101000a90046001600160a01b03166001600160a01b03166318160ddd6040518163ffffffff1660e01b815260040160206040518083038186803b1580156121c057600080fd5b505afa1580156121d4573d6000803e3d6000fd5b505050506040513d601f19601f820116820180604052508101906121f8919061392a565b9050600061016760009054906101000a90046001600160a01b03166001600160a01b031663ffa642256040518163ffffffff1660e01b8152600401604080518083038186803b15801561224a57600080fd5b505afa15801561225e573d6000803e3d6000fd5b505050506040513d601f19601f820116820180604052508101906122829190613992565b915060009050816122938486613f8a565b61229d9190613f68565b90506127106122ae82612711613f8a565b6122b89190613f68565b610169546101665460405163f3fef3a360e01b81529293506001600160a01b039182169263f3fef3a3926122f29216908590600401613bd5565b600060405180830381600087803b15801561230c57600080fd5b505af1158015612320573d6000803e3d6000fd5b50505050600061016760009054906101000a90046001600160a01b03166001600160a01b031663c59203af6040518163ffffffff1660e01b8152600401602060405180830381600087803b15801561237757600080fd5b505af115801561238b573d6000803e3d6000fd5b505050506040513d601f19601f820116820180604052508101906123af919061392a565b61016a5461016354610162546040516370a0823160e01b815230600482018190529495506123fa946000936001600160a01b03908116931691819084906370a0823190602401611fa1565b50610162546040516370a0823160e01b81523060048201526001600160a01b03909116906370a082319060240160206040518083038186803b15801561243f57600080fd5b505afa158015612453573d6000803e3d6000fd5b505050506040513d601f19601f82011682018060405250810190612477919061392a565b96505050505050505b9392505050565b604080516101208101825260008082526020820181905291810182905260608082018390526080820183905260a0820183905260c0820183905260e08201839052610100820152808660018111156124e1576124e1614039565b908160018111156124f4576124f4614039565b9052506001600160a01b03858116602083015284811660408084019190915260608301859052610130549051631f29a8cd60e31b8152600481018a90526000928392839291169063f94d46689060240160006040518083038186803b15801561255c57600080fd5b505afa158015612570573d6000803e3d6000fd5b505050506040513d6000823e601f3d908101601f19168201604052612598919081019061381f565b6101305460405163f6c0092760e01b8152600481018f9052939650919450925060009182916001600160a01b03169063f6c0092790602401604080518083038186803b1580156125e757600080fd5b505afa1580156125fb573d6000803e3d6000fd5b505050506040513d601f19601f8201168201806040525081019061261f9190613762565b9092509050600081600281111561263857612638614039565b14156127715760008060005b87518160ff1610156126e0578c6001600160a01b0316888260ff168151811061266f5761266f61404f565b60200260200101516001600160a01b03161415612691578060ff1692506126ce565b8b6001600160a01b0316888260ff16815181106126b0576126b061404f565b60200260200101516001600160a01b031614156126ce578060ff1691505b806126d881614003565b915050612644565b5060405162f64aa560e11b81526001600160a01b038516906301ec954a90612712908b908a9087908790600401613e75565b60206040518083038186803b15801561272a57600080fd5b505afa15801561273e573d6000803e3d6000fd5b505050506040513d601f19601f82011682018060405250810190612762919061392a565b98505050505050505050612964565b600181600281111561278557612785614039565b14156128905760008060005b87518160ff16101561285f578c6001600160a01b0316888260ff16815181106127bc576127bc61404f565b60200260200101516001600160a01b031614156127f757868160ff16815181106127e8576127e861404f565b6020026020010151925061284d565b8b6001600160a01b0316888260ff16815181106128165761281661404f565b60200260200101516001600160a01b0316141561284d57868160ff16815181106128425761284261404f565b602002602001015191505b8061285781614003565b915050612791565b5060405163274b044360e21b81526001600160a01b03851690639d2c110c90612712908b9086908690600401613ed6565b60008060005b87518160ff16101561285f578c6001600160a01b0316888260ff16815181106128c1576128c161404f565b60200260200101516001600160a01b031614156128fc57868160ff16815181106128ed576128ed61404f565b60200260200101519250612952565b8b6001600160a01b0316888260ff168151811061291b5761291b61404f565b60200260200101516001600160a01b0316141561295257868160ff16815181106129475761294761404f565b602002602001015191505b8061295c81614003565b915050612896565b95945050505050565b6060600061297c836002613f8a565b612987906002613f50565b67ffffffffffffffff81111561299f5761299f614065565b6040519080825280601f01601f1916602001820160405280156129c9576020820181803683370190505b509050600360fc1b816000815181106129e4576129e461404f565b60200101906001600160f81b031916908160001a905350600f60fb1b81600181518110612a1357612a1361404f565b60200101906001600160f81b031916908160001a9053506000612a37846002613f8a565b612a42906001613f50565b90505b6001811115612aba576f181899199a1a9b1b9c1cb0b131b232b360811b85600f1660108110612a7657612a7661404f565b1a60f81b828281518110612a8c57612a8c61404f565b60200101906001600160f81b031916908160001a90535060049490941c93612ab381613fec565b9050612a45565b5083156124805760405162461bcd60e51b815260206004820181905260248201527f537472696e67733a20686578206c656e67746820696e73756666696369656e74604482015260640161064f565b6001600160a01b0381163b612b765760405162461bcd60e51b815260206004820152602d60248201527f455243313936373a206e657720696d706c656d656e746174696f6e206973206e60448201526c1bdd08184818dbdb9d1c9858dd609a1b606482015260840161064f565b6000805160206140bf83398151915280546001600160a01b0319166001600160a01b0392909216919091179055565b612bae836133bb565b600082511180612bbb5750805b1561080157612bca83836133fb565b50505050565b600054610100900460ff16612c3b5760405162461bcd60e51b815260206004820152602b60248201527f496e697469616c697a61626c653a20636f6e7472616374206973206e6f74206960448201526a6e697469616c697a696e6760a81b606482015260840161064f565b565b610130546040516370a0823160e01b81523060048201526000916001600160a01b038981169263095ea7b392919091169083906370a082319060240160206040518083038186803b158015612c9157600080fd5b505afa158015612ca5573d6000803e3d6000fd5b505050506040513d601f19601f82011682018060405250810190612cc9919061392a565b6040518363ffffffff1660e01b8152600401612ce6929190613bd5565b602060405180830381600087803b158015612d0057600080fd5b505af1158015612d14573d6000803e3d6000fd5b505050506040513d601f19601f82011682018060405250810190612d3891906138f4565b50612d856040805160c0810190915260008082526020820190815260200160006001600160a01b0316815260200160006001600160a01b0316815260200160008152602001606081525090565b89815260208101896001811115612d9e57612d9e614039565b90816001811115612db157612db1614039565b9052506001600160a01b0388811660408381019190915288821660608085019190915260808085018890528251908101835260006020820181905291810191909152888316815287831691810191909152610130549091166352bbbe29838387612e1d42610258613f50565b6040518563ffffffff1660e01b8152600401612e3c9493929190613dba565b602060405180830381600087803b158015612e5657600080fd5b505af1158015612e6a573d6000803e3d6000fd5b505050506040513d601f19601f82011682018060405250810190612e8e919061392a565b9b9a5050505050505050505050565b60008082612f5057604051633cd0243b60e11b81526000906001600160a01b038a16906379a0487690612ed69030908a90600401613bd5565b604080518083038186803b158015612eed57600080fd5b505afa158015612f01573d6000803e3d6000fd5b505050506040513d601f19601f82011682018060405250810190612f259190613992565b5090506064612f348682613fa9565b612f3e9083613f8a565b612f489190613f68565b915050612ff7565b6040516366410a2160e01b81526000906001600160a01b038a16906366410a2190612f819030908a90600401613bd5565b604080518083038186803b158015612f9857600080fd5b505afa158015612fac573d6000803e3d6000fd5b505050506040513d601f19601f82011682018060405250810190612fd09190613992565b5090506064612fdf8682613fa9565b612fe99083613f8a565b612ff39190613f68565b9150505b60408051600180825281830190925260009160208083019080368337019050509050888160008151811061302d5761302d61404f565b6001600160a01b03928316602091820292909201015261012f5460405163095ea7b360e01b81528a83169263095ea7b39261306f929116908a90600401613bd5565b602060405180830381600087803b15801561308957600080fd5b505af115801561309d573d6000803e3d6000fd5b505050506040513d601f19601f820116820180604052508101906130c191906138f4565b5061012e546001600160a01b031663f87dc1b789898986868a60006130e842610258613f50565b6040518963ffffffff1660e01b815260040161310b989796959493929190613b4a565b602060405180830381600087803b15801561312557600080fd5b505af1158015613139573d6000803e3d6000fd5b505050506040513d601f19601f8201168201806040525081019061315d919061392a565b9998505050505050505050565b600080826132205761012d54604051631de9507f60e31b81526000916001600160a01b03169063ef4a83f8906131a6908c908a90600401613bd5565b60206040518083038186803b1580156131be57600080fd5b505afa1580156131d2573d6000803e3d6000fd5b505050506040513d601f19601f820116820180604052508101906131f6919061392a565b905060646132048682613fa9565b61320e9083613f8a565b6132189190613f68565b9150506132ca565b61012d5460405163ca19ebd960e01b81526000916001600160a01b03169063ca19ebd990613254908c908a90600401613bd5565b60206040518083038186803b15801561326c57600080fd5b505afa158015613280573d6000803e3d6000fd5b505050506040513d601f19601f820116820180604052508101906132a4919061392a565b905060646132b28682613fa9565b6132bc9083613f8a565b6132c69190613f68565b9150505b6040805160018082528183019092526000916020808301908036833701905050905088816000815181106133005761330061404f565b6001600160a01b03928316602091820292909201015261012f5460405163095ea7b360e01b81528a83169263095ea7b392613342929116908a90600401613bd5565b602060405180830381600087803b15801561335c57600080fd5b505af1158015613370573d6000803e3d6000fd5b505050506040513d601f19601f8201168201806040525081019061339491906138f4565b5061012e546001600160a01b0316630dd4ebd989898986868a60006130e842610258613f50565b6133c481612b09565b6040516001600160a01b038216907fbc7cd75a20ee27fd9adebab32041f755214dbc6bffa90cc0225b39da2e5c2d3b90600090a250565b60606001600160a01b0383163b6134635760405162461bcd60e51b815260206004820152602660248201527f416464726573733a2064656c65676174652063616c6c20746f206e6f6e2d636f6044820152651b9d1c9858dd60d21b606482015260840161064f565b600080846001600160a01b03168460405161347e9190613ab9565b600060405180830381855af49150503d80600081146134b9576040519150601f19603f3d011682016040523d82523d6000602084013e6134be565b606091505b509150915061296482826040518060600160405280602781526020016140df60279139606083156134f0575081612480565b8251156135005782518084602001fd5b8160405162461bcd60e51b815260040161064f9190613bee565b600082601f83011261352b57600080fd5b8151602061354061353b83613f2c565b613efb565b80838252828201915082860187848660051b890101111561356057600080fd5b60005b8581101561357f57815184529284019290840190600101613563565b5090979650505050505050565b60006020828403121561359e57600080fd5b81356124808161407b565b600080600080600060a086880312156135c157600080fd5b85356135cc8161407b565b945060208601356135dc8161407b565b935060408601356135ec8161407b565b925060608601356135fc8161407b565b9150608086013561360c8161407b565b809150509295509295909350565b600080600080600080600080610100898b03121561363757600080fd5b88356136428161407b565b975060208901356136528161407b565b965060408901356136628161407b565b955060608901356136728161407b565b945060808901356136828161407b565b935060a08901356136928161407b565b925060c08901356136a28161407b565b8092505060e089013590509295985092959890939650565b600080604083850312156136cd57600080fd5b82356136d88161407b565b915060208381013567ffffffffffffffff808211156136f657600080fd5b818601915086601f83011261370a57600080fd5b81358181111561371c5761371c614065565b61372e601f8201601f19168501613efb565b9150808252878482850101111561374457600080fd5b80848401858401376000848284010152508093505050509250929050565b6000806040838503121561377557600080fd5b82516137808161407b565b60208401519092506003811061379557600080fd5b809150509250929050565b600080604083850312156137b357600080fd5b82356137be8161407b565b946020939093013593505050565b600080600080608085870312156137e257600080fd5b84356137ed8161407b565b93506020850135925060408501356138048161407b565b9150606085013561381481614090565b939692955090935050565b60008060006060848603121561383457600080fd5b835167ffffffffffffffff8082111561384c57600080fd5b818601915086601f83011261386057600080fd5b8151602061387061353b83613f2c565b8083825282820191508286018b848660051b890101111561389057600080fd5b600096505b848710156138bc5780516138a88161407b565b835260019690960195918301918301613895565b50918901519197509093505050808211156138d657600080fd5b506138e38682870161351a565b925050604084015190509250925092565b60006020828403121561390657600080fd5b815161248081614090565b60006020828403121561392357600080fd5b5035919050565b60006020828403121561393c57600080fd5b5051919050565b6000806040838503121561395657600080fd5b8235915060208301356137958161407b565b60006020828403121561397a57600080fd5b81356001600160e01b03198116811461248057600080fd5b600080604083850312156139a557600080fd5b505080516020909101519092909150565b600081518084526139ce816020860160208601613fc0565b601f01601f19169290920160200192915050565b60028110613a0057634e487b7160e01b600052602160045260246000fd5b9052565b6000610120613a148484516139e2565b6020838101516001600160a01b03169085015260408084015190613a42908601826001600160a01b03169052565b50606083015160608501526080830151608085015260a083015160a085015260c0830151613a7b60c08601826001600160a01b03169052565b5060e0830151613a9660e08601826001600160a01b03169052565b50610100808401518282870152613aaf838701826139b6565b9695505050505050565b60008251613acb818460208701613fc0565b9190910192915050565b7f416363657373436f6e74726f6c3a206163636f756e7420000000000000000000815260008351613b0d816017850160208801613fc0565b7001034b99036b4b9b9b4b733903937b6329607d1b6017918401918201528351613b3e816028840160208801613fc0565b01602801949350505050565b6001600160a01b038981168252888116602080840191909152604083018990526060830188905261010060808401819052875190840181905260009261012085019289810192855b81811015613bb0578451841686529482019493820193600101613b92565b505050505060a08301959095525091151560c083015260e09091015295945050505050565b6001600160a01b03929092168252602082015260400190565b60208152600061248060208301846139b6565b6020808252601f908201527f5265737472696374656420746f20504f5254464f4c494f5f4d414e4147455200604082015260600190565b6020808252602c908201527f46756e6374696f6e206d7573742062652063616c6c6564207468726f7567682060408201526b19195b1959d85d1958d85b1b60a21b606082015260800190565b6020808252602c908201527f46756e6374696f6e206d7573742062652063616c6c6564207468726f7567682060408201526b6163746976652070726f787960a01b606082015260800190565b6020808252602e908201527f496e697469616c697a61626c653a20636f6e747261637420697320616c72656160408201526d191e481a5b9a5d1a585b1a5e995960921b606082015260800190565b6020808252601490820152735265737472696374656420746f2061646d696e7360601b604082015260600190565b60208082526019908201527f536f6d6520746f6b656e206e6f7420636f6d70617469626c6500000000000000604082015260600190565b60208082526018908201527f5a65726f2061646472657373206e6f7420616c6c6f7765640000000000000000604082015260600190565b60e08152845160e082015260006020860151613dda6101008401826139e2565b5060408601516001600160a01b03908116610120840152606087015116610140830152608086015161016083015260a086015160c0610180840152613e236101a08401826139b6565b915050613e63602083018680516001600160a01b039081168352602080830151151590840152604080830151909116908301526060908101511515910152565b60a082019390935260c0015292915050565b608081526000613e886080830187613a04565b82810360208481019190915286518083528782019282019060005b81811015613ebf57845183529383019391830191600101613ea3565b505060408501969096525050506060015292915050565b606081526000613ee96060830186613a04565b60208301949094525060400152919050565b604051601f8201601f1916810167ffffffffffffffff81118282101715613f2457613f24614065565b604052919050565b600067ffffffffffffffff821115613f4657613f46614065565b5060051b60200190565b60008219821115613f6357613f63614023565b500190565b600082613f8557634e487b7160e01b600052601260045260246000fd5b500490565b6000816000190483118215151615613fa457613fa4614023565b500290565b600082821015613fbb57613fbb614023565b500390565b60005b83811015613fdb578181015183820152602001613fc3565b83811115612bca5750506000910152565b600081613ffb57613ffb614023565b506000190190565b600060ff821660ff81141561401a5761401a614023565b60010192915050565b634e487b7160e01b600052601160045260246000fd5b634e487b7160e01b600052602160045260246000fd5b634e487b7160e01b600052603260045260246000fd5b634e487b7160e01b600052604160045260246000fd5b6001600160a01b038116811461096157600080fd5b801515811461096157600080fdfe90c2aa7471c04182221f68e80c07ab1e5946e4c63f8693e14ca40385d529f051360894a13ba1a3210667c828492db98dca3e2076cc3735a920a3ca505d382bbc416464726573733a206c6f772d6c6576656c2064656c65676174652063616c6c206661696c6564a2646970667358221220d9479e29b5d1535f0554b35b39ee235601c54836a729e67c08d30dc27014c68564736f6c63430008060033",
  "devdoc": {
    "kind": "dev",
    "methods": {
      "constructor": {
        "custom:oz-upgrades-unsafe-allow": "constructor"
      },
      "getRoleAdmin(bytes32)": {
        "details": "Returns the admin role that controls `role`. See {grantRole} and {revokeRole}. To change a role's admin, use {_setRoleAdmin}."
      },
      "grantRole(bytes32,address)": {
        "details": "Grants `role` to `account`. If `account` had not been already granted `role`, emits a {RoleGranted} event. Requirements: - the caller must have ``role``'s admin role."
      },
      "hasRole(bytes32,address)": {
        "details": "Returns `true` if `account` has been granted `role`."
      },
      "proxiableUUID()": {
        "details": "Implementation of the ERC1822 {proxiableUUID} function. This returns the storage slot used by the implementation. It is used to validate that the this implementation remains valid after an upgrade. IMPORTANT: A proxy pointing at a proxiable contract should not be considered proxiable itself, because this risks bricking a proxy that upgrades to it, by delegating to itself until out of gas. Thus it is critical that this function revert if invoked through a proxy. This is guaranteed by the `notDelegated` modifier."
      },
      "renounceRole(bytes32,address)": {
        "details": "Revokes `role` from the calling account. Roles are often managed via {grantRole} and {revokeRole}: this function's purpose is to provide a mechanism for accounts to lose their privileges if they are compromised (such as when a trusted device is misplaced). If the calling account had been revoked `role`, emits a {RoleRevoked} event. Requirements: - the caller must be `account`."
      },
      "revokeRole(bytes32,address)": {
        "details": "Revokes `role` from `account`. If `account` had been granted `role`, emits a {RoleRevoked} event. Requirements: - the caller must have ``role``'s admin role."
      },
      "supportsInterface(bytes4)": {
        "details": "See {IERC165-supportsInterface}."
      },
      "upgradeTo(address)": {
        "details": "Upgrade the implementation of the proxy to `newImplementation`. Calls {_authorizeUpgrade}. Emits an {Upgraded} event."
      },
      "upgradeToAndCall(address,bytes)": {
        "details": "Upgrade the implementation of the proxy to `newImplementation`, and subsequently execute the function call encoded in `data`. Calls {_authorizeUpgrade}. Emits an {Upgraded} event."
      }
    },
    "version": 1
  },
  "userdoc": {
    "kind": "user",
    "methods": {},
    "version": 1
  },
  "storageLayout": {
    "storage": [
      {
        "astId": 797,
        "contract": "contracts/StrategyDodoUsdt.sol:StrategyDodoUsdt",
        "label": "_initialized",
        "offset": 0,
        "slot": "0",
        "type": "t_bool"
      },
      {
        "astId": 800,
        "contract": "contracts/StrategyDodoUsdt.sol:StrategyDodoUsdt",
        "label": "_initializing",
        "offset": 1,
        "slot": "0",
        "type": "t_bool"
      },
      {
        "astId": 1284,
        "contract": "contracts/StrategyDodoUsdt.sol:StrategyDodoUsdt",
        "label": "__gap",
        "offset": 0,
        "slot": "1",
        "type": "t_array(t_uint256)50_storage"
      },
      {
        "astId": 1591,
        "contract": "contracts/StrategyDodoUsdt.sol:StrategyDodoUsdt",
        "label": "__gap",
        "offset": 0,
        "slot": "51",
        "type": "t_array(t_uint256)50_storage"
      },
      {
        "astId": 39,
        "contract": "contracts/StrategyDodoUsdt.sol:StrategyDodoUsdt",
        "label": "_roles",
        "offset": 0,
        "slot": "101",
        "type": "t_mapping(t_bytes32,t_struct(RoleData)34_storage)"
      },
      {
        "astId": 327,
        "contract": "contracts/StrategyDodoUsdt.sol:StrategyDodoUsdt",
        "label": "__gap",
        "offset": 0,
        "slot": "102",
        "type": "t_array(t_uint256)49_storage"
      },
      {
        "astId": 779,
        "contract": "contracts/StrategyDodoUsdt.sol:StrategyDodoUsdt",
        "label": "__gap",
        "offset": 0,
        "slot": "151",
        "type": "t_array(t_uint256)50_storage"
      },
      {
        "astId": 999,
        "contract": "contracts/StrategyDodoUsdt.sol:StrategyDodoUsdt",
        "label": "__gap",
        "offset": 0,
        "slot": "201",
        "type": "t_array(t_uint256)50_storage"
      },
      {
        "astId": 18530,
        "contract": "contracts/StrategyDodoUsdt.sol:StrategyDodoUsdt",
        "label": "portfolioManager",
        "offset": 0,
        "slot": "251",
        "type": "t_address"
      },
      {
        "astId": 18808,
        "contract": "contracts/StrategyDodoUsdt.sol:StrategyDodoUsdt",
        "label": "__gap",
        "offset": 0,
        "slot": "252",
        "type": "t_array(t_uint256)49_storage"
      },
      {
        "astId": 19620,
        "contract": "contracts/StrategyDodoUsdt.sol:StrategyDodoUsdt",
        "label": "dodoV1Helper",
        "offset": 0,
        "slot": "301",
        "type": "t_contract(IDODOV1Helper)15389"
      },
      {
        "astId": 19623,
        "contract": "contracts/StrategyDodoUsdt.sol:StrategyDodoUsdt",
        "label": "dodoProxy",
        "offset": 0,
        "slot": "302",
        "type": "t_contract(IDODOProxy)15229"
      },
      {
        "astId": 19625,
        "contract": "contracts/StrategyDodoUsdt.sol:StrategyDodoUsdt",
        "label": "dodoApprove",
        "offset": 0,
        "slot": "303",
        "type": "t_address"
      },
      {
        "astId": 18824,
        "contract": "contracts/StrategyDodoUsdt.sol:StrategyDodoUsdt",
        "label": "balancerVault",
        "offset": 0,
        "slot": "304",
        "type": "t_contract(IVault)14838"
      },
      {
        "astId": 19610,
        "contract": "contracts/StrategyDodoUsdt.sol:StrategyDodoUsdt",
        "label": "__gap",
        "offset": 0,
        "slot": "305",
        "type": "t_array(t_uint256)49_storage"
      },
      {
        "astId": 7116,
        "contract": "contracts/StrategyDodoUsdt.sol:StrategyDodoUsdt",
        "label": "usdcToken",
        "offset": 0,
        "slot": "354",
        "type": "t_contract(IERC20)1744"
      },
      {
        "astId": 7119,
        "contract": "contracts/StrategyDodoUsdt.sol:StrategyDodoUsdt",
        "label": "usdtToken",
        "offset": 0,
        "slot": "355",
        "type": "t_contract(IERC20)1744"
      },
      {
        "astId": 7122,
        "contract": "contracts/StrategyDodoUsdt.sol:StrategyDodoUsdt",
        "label": "dodoToken",
        "offset": 0,
        "slot": "356",
        "type": "t_contract(IERC20)1744"
      },
      {
        "astId": 7125,
        "contract": "contracts/StrategyDodoUsdt.sol:StrategyDodoUsdt",
        "label": "usdcLPToken",
        "offset": 0,
        "slot": "357",
        "type": "t_contract(IERC20)1744"
      },
      {
        "astId": 7128,
        "contract": "contracts/StrategyDodoUsdt.sol:StrategyDodoUsdt",
        "label": "usdtLPToken",
        "offset": 0,
        "slot": "358",
        "type": "t_contract(IERC20)1744"
      },
      {
        "astId": 7131,
        "contract": "contracts/StrategyDodoUsdt.sol:StrategyDodoUsdt",
        "label": "dodoV1UsdcUsdtPool",
        "offset": 0,
        "slot": "359",
        "type": "t_contract(IDODOV1)15368"
      },
      {
        "astId": 7134,
        "contract": "contracts/StrategyDodoUsdt.sol:StrategyDodoUsdt",
        "label": "dodoV2DodoUsdtPool",
        "offset": 0,
        "slot": "360",
        "type": "t_contract(IDODOV2)15414"
      },
      {
        "astId": 7137,
        "contract": "contracts/StrategyDodoUsdt.sol:StrategyDodoUsdt",
        "label": "dodoMine",
        "offset": 0,
        "slot": "361",
        "type": "t_contract(IDODOMine)15182"
      },
      {
        "astId": 7139,
        "contract": "contracts/StrategyDodoUsdt.sol:StrategyDodoUsdt",
        "label": "balancerPoolId",
        "offset": 0,
        "slot": "362",
        "type": "t_bytes32"
      }
    ],
    "types": {
      "t_address": {
        "encoding": "inplace",
        "label": "address",
        "numberOfBytes": "20"
      },
      "t_array(t_uint256)49_storage": {
        "base": "t_uint256",
        "encoding": "inplace",
        "label": "uint256[49]",
        "numberOfBytes": "1568"
      },
      "t_array(t_uint256)50_storage": {
        "base": "t_uint256",
        "encoding": "inplace",
        "label": "uint256[50]",
        "numberOfBytes": "1600"
      },
      "t_bool": {
        "encoding": "inplace",
        "label": "bool",
        "numberOfBytes": "1"
      },
      "t_bytes32": {
        "encoding": "inplace",
        "label": "bytes32",
        "numberOfBytes": "32"
      },
      "t_contract(IDODOMine)15182": {
        "encoding": "inplace",
        "label": "contract IDODOMine",
        "numberOfBytes": "20"
      },
      "t_contract(IDODOProxy)15229": {
        "encoding": "inplace",
        "label": "contract IDODOProxy",
        "numberOfBytes": "20"
      },
      "t_contract(IDODOV1)15368": {
        "encoding": "inplace",
        "label": "contract IDODOV1",
        "numberOfBytes": "20"
      },
      "t_contract(IDODOV1Helper)15389": {
        "encoding": "inplace",
        "label": "contract IDODOV1Helper",
        "numberOfBytes": "20"
      },
      "t_contract(IDODOV2)15414": {
        "encoding": "inplace",
        "label": "contract IDODOV2",
        "numberOfBytes": "20"
      },
      "t_contract(IERC20)1744": {
        "encoding": "inplace",
        "label": "contract IERC20",
        "numberOfBytes": "20"
      },
      "t_contract(IVault)14838": {
        "encoding": "inplace",
        "label": "contract IVault",
        "numberOfBytes": "20"
      },
      "t_mapping(t_address,t_bool)": {
        "encoding": "mapping",
        "key": "t_address",
        "label": "mapping(address => bool)",
        "numberOfBytes": "32",
        "value": "t_bool"
      },
      "t_mapping(t_bytes32,t_struct(RoleData)34_storage)": {
        "encoding": "mapping",
        "key": "t_bytes32",
        "label": "mapping(bytes32 => struct AccessControlUpgradeable.RoleData)",
        "numberOfBytes": "32",
        "value": "t_struct(RoleData)34_storage"
      },
      "t_struct(RoleData)34_storage": {
        "encoding": "inplace",
        "label": "struct AccessControlUpgradeable.RoleData",
        "members": [
          {
            "astId": 31,
            "contract": "contracts/StrategyDodoUsdt.sol:StrategyDodoUsdt",
            "label": "members",
            "offset": 0,
            "slot": "0",
            "type": "t_mapping(t_address,t_bool)"
          },
          {
            "astId": 33,
            "contract": "contracts/StrategyDodoUsdt.sol:StrategyDodoUsdt",
            "label": "adminRole",
            "offset": 0,
            "slot": "1",
            "type": "t_bytes32"
          }
        ],
        "numberOfBytes": "64"
      },
      "t_uint256": {
        "encoding": "inplace",
        "label": "uint256",
        "numberOfBytes": "32"
      }
    }
  }
}