{
  "address": "0x69554b32c001Fd161aa48Bae6fD8785767087672",
  "abi": [
    {
      "inputs": [],
      "stateMutability": "nonpayable",
      "type": "constructor"
    },
    {
      "anonymous": false,
      "inputs": [
        {
          "indexed": false,
          "internalType": "address",
          "name": "previousAdmin",
          "type": "address"
        },
        {
          "indexed": false,
          "internalType": "address",
          "name": "newAdmin",
          "type": "address"
        }
      ],
      "name": "AdminChanged",
      "type": "event"
    },
    {
      "anonymous": false,
      "inputs": [
        {
          "indexed": false,
          "internalType": "uint256",
          "name": "healthFactor",
          "type": "uint256"
        }
      ],
      "name": "BalanceHealthFactor",
      "type": "event"
    },
    {
      "anonymous": false,
      "inputs": [
        {
          "indexed": true,
          "internalType": "address",
          "name": "beacon",
          "type": "address"
        }
      ],
      "name": "BeaconUpgraded",
      "type": "event"
    },
    {
      "anonymous": false,
      "inputs": [
        {
          "indexed": false,
          "internalType": "uint8",
          "name": "version",
          "type": "uint8"
        }
      ],
      "name": "Initialized",
      "type": "event"
    },
    {
      "anonymous": false,
      "inputs": [
        {
          "indexed": false,
          "internalType": "address",
          "name": "value",
          "type": "address"
        }
      ],
      "name": "PortfolioManagerUpdated",
      "type": "event"
    },
    {
      "anonymous": false,
      "inputs": [
        {
          "indexed": false,
          "internalType": "uint256",
          "name": "amount",
          "type": "uint256"
        }
      ],
      "name": "Reward",
      "type": "event"
    },
    {
      "anonymous": false,
      "inputs": [
        {
          "indexed": true,
          "internalType": "bytes32",
          "name": "role",
          "type": "bytes32"
        },
        {
          "indexed": true,
          "internalType": "bytes32",
          "name": "previousAdminRole",
          "type": "bytes32"
        },
        {
          "indexed": true,
          "internalType": "bytes32",
          "name": "newAdminRole",
          "type": "bytes32"
        }
      ],
      "name": "RoleAdminChanged",
      "type": "event"
    },
    {
      "anonymous": false,
      "inputs": [
        {
          "indexed": true,
          "internalType": "bytes32",
          "name": "role",
          "type": "bytes32"
        },
        {
          "indexed": true,
          "internalType": "address",
          "name": "account",
          "type": "address"
        },
        {
          "indexed": true,
          "internalType": "address",
          "name": "sender",
          "type": "address"
        }
      ],
      "name": "RoleGranted",
      "type": "event"
    },
    {
      "anonymous": false,
      "inputs": [
        {
          "indexed": true,
          "internalType": "bytes32",
          "name": "role",
          "type": "bytes32"
        },
        {
          "indexed": true,
          "internalType": "address",
          "name": "account",
          "type": "address"
        },
        {
          "indexed": true,
          "internalType": "address",
          "name": "sender",
          "type": "address"
        }
      ],
      "name": "RoleRevoked",
      "type": "event"
    },
    {
      "anonymous": false,
      "inputs": [
        {
          "indexed": false,
          "internalType": "uint256",
          "name": "healthFactor",
          "type": "uint256"
        }
      ],
      "name": "SetHealthFactor",
      "type": "event"
    },
    {
      "anonymous": false,
      "inputs": [
        {
          "indexed": false,
          "internalType": "uint256",
          "name": "amount",
          "type": "uint256"
        }
      ],
      "name": "Stake",
      "type": "event"
    },
    {
      "anonymous": false,
      "inputs": [
        {
          "indexed": false,
          "internalType": "address",
          "name": "dodoV1UsdcUsdtPool",
          "type": "address"
        },
        {
          "indexed": false,
          "internalType": "address",
          "name": "dodoV2DodoUsdtPool",
          "type": "address"
        },
        {
          "indexed": false,
          "internalType": "address",
          "name": "dodoMine",
          "type": "address"
        },
        {
          "indexed": false,
          "internalType": "address",
          "name": "dodoV1Helper",
          "type": "address"
        },
        {
          "indexed": false,
          "internalType": "address",
          "name": "dodoProxy",
          "type": "address"
        },
        {
          "indexed": false,
          "internalType": "address",
          "name": "dodoApprove",
          "type": "address"
        },
        {
          "indexed": false,
          "internalType": "address",
          "name": "balancerVault",
          "type": "address"
        },
        {
          "indexed": false,
          "internalType": "bytes32",
          "name": "balancerPoolIdWmaticUsdcWethBal",
          "type": "bytes32"
        }
      ],
      "name": "StrategyUpdatedParams",
      "type": "event"
    },
    {
      "anonymous": false,
      "inputs": [
        {
          "indexed": false,
          "internalType": "address",
          "name": "usdcToken",
          "type": "address"
        },
        {
          "indexed": false,
          "internalType": "address",
          "name": "usdtToken",
          "type": "address"
        },
        {
          "indexed": false,
          "internalType": "address",
          "name": "dodoToken",
          "type": "address"
        },
        {
          "indexed": false,
          "internalType": "address",
          "name": "wmaticToken",
          "type": "address"
        },
        {
          "indexed": false,
          "internalType": "address",
          "name": "usdcLPToken",
          "type": "address"
        }
      ],
      "name": "StrategyUpdatedTokens",
      "type": "event"
    },
    {
      "anonymous": false,
      "inputs": [
        {
          "indexed": false,
          "internalType": "uint256",
          "name": "amount",
          "type": "uint256"
        },
        {
          "indexed": false,
          "internalType": "uint256",
          "name": "amountReceived",
          "type": "uint256"
        }
      ],
      "name": "Unstake",
      "type": "event"
    },
    {
      "anonymous": false,
      "inputs": [
        {
          "indexed": true,
          "internalType": "address",
          "name": "implementation",
          "type": "address"
        }
      ],
      "name": "Upgraded",
      "type": "event"
    },
    {
      "inputs": [],
      "name": "DEFAULT_ADMIN_ROLE",
      "outputs": [
        {
          "internalType": "bytes32",
          "name": "",
          "type": "bytes32"
        }
      ],
      "stateMutability": "view",
      "type": "function"
    },
    {
      "inputs": [],
      "name": "MAX_VALUE",
      "outputs": [
        {
          "internalType": "int256",
          "name": "",
          "type": "int256"
        }
      ],
      "stateMutability": "view",
      "type": "function"
    },
    {
      "inputs": [],
      "name": "PORTFOLIO_MANAGER",
      "outputs": [
        {
          "internalType": "bytes32",
          "name": "",
          "type": "bytes32"
        }
      ],
      "stateMutability": "view",
      "type": "function"
    },
    {
      "inputs": [],
      "name": "UPGRADER_ROLE",
      "outputs": [
        {
          "internalType": "bytes32",
          "name": "",
          "type": "bytes32"
        }
      ],
      "stateMutability": "view",
      "type": "function"
    },
    {
      "inputs": [],
      "name": "balancerPoolIdWmaticUsdcWethBal",
      "outputs": [
        {
          "internalType": "bytes32",
          "name": "",
          "type": "bytes32"
        }
      ],
      "stateMutability": "view",
      "type": "function"
    },
    {
      "inputs": [
        {
          "internalType": "address",
          "name": "_to",
          "type": "address"
        }
      ],
      "name": "claimRewards",
      "outputs": [
        {
          "internalType": "uint256",
          "name": "",
          "type": "uint256"
        }
      ],
      "stateMutability": "nonpayable",
      "type": "function"
    },
    {
      "inputs": [],
      "name": "dodoMine",
      "outputs": [
        {
          "internalType": "contract IDODOMine",
          "name": "",
          "type": "address"
        }
      ],
      "stateMutability": "view",
      "type": "function"
    },
    {
      "inputs": [],
      "name": "dodoToken",
      "outputs": [
        {
          "internalType": "contract IERC20",
          "name": "",
          "type": "address"
        }
      ],
      "stateMutability": "view",
      "type": "function"
    },
    {
      "inputs": [],
      "name": "dodoV1UsdcUsdtPool",
      "outputs": [
        {
          "internalType": "contract IDODOV1",
          "name": "",
          "type": "address"
        }
      ],
      "stateMutability": "view",
      "type": "function"
    },
    {
      "inputs": [],
      "name": "dodoV2DodoUsdtPool",
      "outputs": [
        {
          "internalType": "contract IDODOV2",
          "name": "",
          "type": "address"
        }
      ],
      "stateMutability": "view",
      "type": "function"
    },
    {
      "inputs": [
        {
          "internalType": "bytes32",
          "name": "role",
          "type": "bytes32"
        }
      ],
      "name": "getRoleAdmin",
      "outputs": [
        {
          "internalType": "bytes32",
          "name": "",
          "type": "bytes32"
        }
      ],
      "stateMutability": "view",
      "type": "function"
    },
    {
      "inputs": [
        {
          "internalType": "bytes32",
          "name": "role",
          "type": "bytes32"
        },
        {
          "internalType": "address",
          "name": "account",
          "type": "address"
        }
      ],
      "name": "grantRole",
      "outputs": [],
      "stateMutability": "nonpayable",
      "type": "function"
    },
    {
      "inputs": [
        {
          "internalType": "bytes32",
          "name": "role",
          "type": "bytes32"
        },
        {
          "internalType": "address",
          "name": "account",
          "type": "address"
        }
      ],
      "name": "hasRole",
      "outputs": [
        {
          "internalType": "bool",
          "name": "",
          "type": "bool"
        }
      ],
      "stateMutability": "view",
      "type": "function"
    },
    {
      "inputs": [],
      "name": "healthFactorBalance",
      "outputs": [],
      "stateMutability": "nonpayable",
      "type": "function"
    },
    {
      "inputs": [],
      "name": "initialize",
      "outputs": [],
      "stateMutability": "nonpayable",
      "type": "function"
    },
    {
      "inputs": [],
      "name": "liquidationValue",
      "outputs": [
        {
          "internalType": "uint256",
          "name": "",
          "type": "uint256"
        }
      ],
      "stateMutability": "view",
      "type": "function"
    },
    {
      "inputs": [],
      "name": "netAssetValue",
      "outputs": [
        {
          "internalType": "uint256",
          "name": "",
          "type": "uint256"
        }
      ],
      "stateMutability": "view",
      "type": "function"
    },
    {
      "inputs": [],
      "name": "portfolioManager",
      "outputs": [
        {
          "internalType": "address",
          "name": "",
          "type": "address"
        }
      ],
      "stateMutability": "view",
      "type": "function"
    },
    {
      "inputs": [],
      "name": "proxiableUUID",
      "outputs": [
        {
          "internalType": "bytes32",
          "name": "",
          "type": "bytes32"
        }
      ],
      "stateMutability": "view",
      "type": "function"
    },
    {
      "inputs": [
        {
          "internalType": "bytes32",
          "name": "role",
          "type": "bytes32"
        },
        {
          "internalType": "address",
          "name": "account",
          "type": "address"
        }
      ],
      "name": "renounceRole",
      "outputs": [],
      "stateMutability": "nonpayable",
      "type": "function"
    },
    {
      "inputs": [
        {
          "internalType": "bytes32",
          "name": "role",
          "type": "bytes32"
        },
        {
          "internalType": "address",
          "name": "account",
          "type": "address"
        }
      ],
      "name": "revokeRole",
      "outputs": [],
      "stateMutability": "nonpayable",
      "type": "function"
    },
    {
      "inputs": [
        {
          "internalType": "uint256",
          "name": "healthFactor",
          "type": "uint256"
        }
      ],
      "name": "setHealthFactor",
      "outputs": [],
      "stateMutability": "nonpayable",
      "type": "function"
    },
    {
      "inputs": [
        {
          "internalType": "address",
          "name": "_dodoV1UsdcUsdtPool",
          "type": "address"
        },
        {
          "internalType": "address",
          "name": "_dodoV2DodoUsdtPool",
          "type": "address"
        },
        {
          "internalType": "address",
          "name": "_dodoMine",
          "type": "address"
        },
        {
          "internalType": "address",
          "name": "_dodoV1Helper",
          "type": "address"
        },
        {
          "internalType": "address",
          "name": "_dodoProxy",
          "type": "address"
        },
        {
          "internalType": "address",
          "name": "_dodoApprove",
          "type": "address"
        },
        {
          "internalType": "address",
          "name": "_balancerVault",
          "type": "address"
        },
        {
          "internalType": "bytes32",
          "name": "_balancerPoolIdWmaticUsdcWethBal",
          "type": "bytes32"
        }
      ],
      "name": "setParams",
      "outputs": [],
      "stateMutability": "nonpayable",
      "type": "function"
    },
    {
      "inputs": [
        {
          "internalType": "address",
          "name": "_value",
          "type": "address"
        }
      ],
      "name": "setPortfolioManager",
      "outputs": [],
      "stateMutability": "nonpayable",
      "type": "function"
    },
    {
      "inputs": [
        {
          "internalType": "address",
          "name": "_usdcToken",
          "type": "address"
        },
        {
          "internalType": "address",
          "name": "_usdtToken",
          "type": "address"
        },
        {
          "internalType": "address",
          "name": "_dodoToken",
          "type": "address"
        },
        {
          "internalType": "address",
          "name": "_wmaticToken",
          "type": "address"
        },
        {
          "internalType": "address",
          "name": "_usdcLPToken",
          "type": "address"
        }
      ],
      "name": "setTokens",
      "outputs": [],
      "stateMutability": "nonpayable",
      "type": "function"
    },
    {
      "inputs": [
        {
          "internalType": "address",
          "name": "_asset",
          "type": "address"
        },
        {
          "internalType": "uint256",
          "name": "_amount",
          "type": "uint256"
        }
      ],
      "name": "stake",
      "outputs": [],
      "stateMutability": "nonpayable",
      "type": "function"
    },
    {
      "inputs": [
        {
          "internalType": "bytes4",
          "name": "interfaceId",
          "type": "bytes4"
        }
      ],
      "name": "supportsInterface",
      "outputs": [
        {
          "internalType": "bool",
          "name": "",
          "type": "bool"
        }
      ],
      "stateMutability": "view",
      "type": "function"
    },
    {
      "inputs": [
        {
          "internalType": "address",
          "name": "_asset",
          "type": "address"
        },
        {
          "internalType": "uint256",
          "name": "_amount",
          "type": "uint256"
        },
        {
          "internalType": "address",
          "name": "_beneficiary",
          "type": "address"
        },
        {
          "internalType": "bool",
          "name": "_targetIsZero",
          "type": "bool"
        }
      ],
      "name": "unstake",
      "outputs": [
        {
          "internalType": "uint256",
          "name": "",
          "type": "uint256"
        }
      ],
      "stateMutability": "nonpayable",
      "type": "function"
    },
    {
      "inputs": [
        {
          "internalType": "address",
          "name": "newImplementation",
          "type": "address"
        }
      ],
      "name": "upgradeTo",
      "outputs": [],
      "stateMutability": "nonpayable",
      "type": "function"
    },
    {
      "inputs": [
        {
          "internalType": "address",
          "name": "newImplementation",
          "type": "address"
        },
        {
          "internalType": "bytes",
          "name": "data",
          "type": "bytes"
        }
      ],
      "name": "upgradeToAndCall",
      "outputs": [],
      "stateMutability": "payable",
      "type": "function"
    },
    {
      "inputs": [],
      "name": "usdcLPToken",
      "outputs": [
        {
          "internalType": "contract IERC20",
          "name": "",
          "type": "address"
        }
      ],
      "stateMutability": "view",
      "type": "function"
    },
    {
      "inputs": [],
      "name": "usdcToken",
      "outputs": [
        {
          "internalType": "contract IERC20",
          "name": "",
          "type": "address"
        }
      ],
      "stateMutability": "view",
      "type": "function"
    },
    {
      "inputs": [],
      "name": "usdtToken",
      "outputs": [
        {
          "internalType": "contract IERC20",
          "name": "",
          "type": "address"
        }
      ],
      "stateMutability": "view",
      "type": "function"
    },
    {
      "inputs": [],
      "name": "wmaticToken",
      "outputs": [
        {
          "internalType": "contract IERC20",
          "name": "",
          "type": "address"
        }
      ],
      "stateMutability": "view",
      "type": "function"
    }
  ],
  "numDeployments": 5,
  "solcInputHash": "c29902064c67d4de4cb341fe80adfa4f",
  "bytecode": "0x60a06040523060601b6080523480156200001857600080fd5b50600054610100900460ff16158080156200003a5750600054600160ff909116105b806200006a575062000057306200014460201b620013501760201c565b1580156200006a575060005460ff166001145b620000d25760405162461bcd60e51b815260206004820152602e60248201527f496e697469616c697a61626c653a20636f6e747261637420697320616c72656160448201526d191e481a5b9a5d1a585b1a5e995960921b606482015260840160405180910390fd5b6000805460ff191660011790558015620000f6576000805461ff0019166101001790555b80156200013d576000805461ff0019169055604051600181527f7f26b83ff96e1f2b6a682f133852f6798a09c465da95921460cefb38474024989060200160405180910390a15b5062000153565b6001600160a01b03163b151590565b60805160601c6146476200018e6000396000818161095b0152818161099b01528181610a3b01528181610a7b0152610b0a01526146476000f3fe6080604052600436106101f95760003560e01c80637b73aa4e1161010d578063a440b21a116100a0578063adc9772e1161006f578063adc9772e1461059d578063d547741f146105bd578063ef5cfb8c146105dd578063f6f6b881146105fd578063f72c0d8b1461061d57600080fd5b8063a440b21a1461051a578063a7a61d051461053a578063a98ad46c1461055b578063abf4be011461057c57600080fd5b806387b94e6c116100dc57806387b94e6c146104b057806391d14854146104d0578063a217fddf146104f0578063a3673b381461050557600080fd5b80637b73aa4e146104435780637d5f5802146104585780638129fc1c1461047a5780638400150a1461048f57600080fd5b80632576e65a116101905780633659cfe61161015f5780633659cfe6146103ba5780634f1ef286146103da57806352d1902d146103ed578063620b75df1461040257806375123ff91461042257600080fd5b80632576e65a146103455780632f2ff15d1461035a578063311117081461037a57806336568abe1461039a57600080fd5b80630fc55bfd116101cc5780630fc55bfd146102b157806311eac855146102d3578063154e4f58146102f4578063248a9ca31461031557600080fd5b806301ffc9a7146101fe578063063bde241461023357806307ab0a7e146102615780630d9fe3fd1461029a575b600080fd5b34801561020a57600080fd5b5061021e610219366004614017565b610651565b60405190151581526020015b60405180910390f35b34801561023f57600080fd5b506102536b033b2e3c9fd0803ce800000081565b60405190815260200161022a565b34801561026d57600080fd5b5061016854610282906001600160a01b031681565b6040516001600160a01b03909116815260200161022a565b3480156102a657600080fd5b5061025361016a5481565b3480156102bd57600080fd5b506102d16102cc366004613d6c565b610688565b005b3480156102df57600080fd5b5061016254610282906001600160a01b031681565b34801561030057600080fd5b5061016754610282906001600160a01b031681565b34801561032157600080fd5b50610253610330366004613fb9565b60009081526065602052604090206001015490565b34801561035157600080fd5b5061025361082c565b34801561036657600080fd5b506102d1610375366004613feb565b61083d565b34801561038657600080fd5b506102d1610395366004613fb9565b610867565b3480156103a657600080fd5b506102d16103b5366004613feb565b6108d2565b3480156103c657600080fd5b506102d16103d5366004613d51565b610950565b6102d16103e8366004613e61565b610a30565b3480156103f957600080fd5b50610253610afd565b34801561040e57600080fd5b5060fb54610282906001600160a01b031681565b34801561042e57600080fd5b5061016454610282906001600160a01b031681565b34801561044f57600080fd5b506102d1610bb0565b34801561046457600080fd5b506102536000805160206145ab83398151915281565b34801561048657600080fd5b506102d1610be6565b34801561049b57600080fd5b5061016954610282906001600160a01b031681565b3480156104bc57600080fd5b506102d16104cb366004613dd1565b610ca9565b3480156104dc57600080fd5b5061021e6104eb366004613feb565b610ef3565b3480156104fc57600080fd5b50610253600081565b34801561051157600080fd5b50610253610f1e565b34801561052657600080fd5b506102d1610535366004613d51565b610f2a565b34801561054657600080fd5b5061016654610282906001600160a01b031681565b34801561056757600080fd5b5061016354610282906001600160a01b031681565b34801561058857600080fd5b5061016554610282906001600160a01b031681565b3480156105a957600080fd5b506102d16105b8366004613f23565b611002565b3480156105c957600080fd5b506102d16105d8366004613feb565b6110eb565b3480156105e957600080fd5b506102536105f8366004613d51565b611110565b34801561060957600080fd5b50610253610618366004613f4d565b611194565b34801561062957600080fd5b506102537f189ab7a9244df0848122154315af71fe140f3db0fe014031783b0946b8c9d2e381565b60006001600160e01b03198216637965db0b60e01b148061068257506301ffc9a760e01b6001600160e01b03198316145b92915050565b610693600033610ef3565b6106b85760405162461bcd60e51b81526004016106af90614317565b60405180910390fd5b6001600160a01b0385166106de5760405162461bcd60e51b81526004016106af9061437c565b6001600160a01b0384166107045760405162461bcd60e51b81526004016106af9061437c565b6001600160a01b03831661072a5760405162461bcd60e51b81526004016106af9061437c565b6001600160a01b0382166107505760405162461bcd60e51b81526004016106af9061437c565b6001600160a01b0381166107765760405162461bcd60e51b81526004016106af9061437c565b61016280546001600160a01b038781166001600160a01b03199283168117909355610163805488831690841681179091556101648054888416908516811790915561016580548885169086168117909155610166805494881694909516841790945560408051958652602086019290925290840152606083019190915260808201527f6465fcb206f5f301860b147ada687bc58f38a1834bbea161e3e2be627d40f8489060a00160405180910390a15050505050565b6000610838600061135f565b905090565b600082815260656020526040902060010154610858816115df565b61086283836115e9565b505050565b61087f6000805160206145ab83398151915233610ef3565b61089b5760405162461bcd60e51b81526004016106af906141fa565b6040518181527ff00d5f5126966481831a71a9d79a9b3af67c4a1a35637b992c7e465a7e465b71906020015b60405180910390a150565b6001600160a01b03811633146109425760405162461bcd60e51b815260206004820152602f60248201527f416363657373436f6e74726f6c3a2063616e206f6e6c792072656e6f756e636560448201526e103937b632b9903337b91039b2b63360891b60648201526084016106af565b61094c828261166f565b5050565b306001600160a01b037f00000000000000000000000000000000000000000000000000000000000000001614156109995760405162461bcd60e51b81526004016106af90614231565b7f00000000000000000000000000000000000000000000000000000000000000006001600160a01b03166109e26000805160206145cb833981519152546001600160a01b031690565b6001600160a01b031614610a085760405162461bcd60e51b81526004016106af9061427d565b610a11816116d6565b60408051600080825260208201909252610a2d91839190611700565b50565b306001600160a01b037f0000000000000000000000000000000000000000000000000000000000000000161415610a795760405162461bcd60e51b81526004016106af90614231565b7f00000000000000000000000000000000000000000000000000000000000000006001600160a01b0316610ac26000805160206145cb833981519152546001600160a01b031690565b6001600160a01b031614610ae85760405162461bcd60e51b81526004016106af9061427d565b610af1826116d6565b61094c82826001611700565b6000306001600160a01b037f00000000000000000000000000000000000000000000000000000000000000001614610b9d5760405162461bcd60e51b815260206004820152603860248201527f555550535570677261646561626c653a206d757374206e6f742062652063616c60448201527f6c6564207468726f7567682064656c656761746563616c6c000000000000000060648201526084016106af565b506000805160206145cb83398151915290565b610bc86000805160206145ab83398151915233610ef3565b610be45760405162461bcd60e51b81526004016106af906141fa565b565b600054610100900460ff1615808015610c065750600054600160ff909116105b80610c205750303b158015610c20575060005460ff166001145b610c3c5760405162461bcd60e51b81526004016106af906142c9565b6000805460ff191660011790558015610c5f576000805461ff0019166101001790555b610c6761187a565b8015610a2d576000805461ff0019169055604051600181527f7f26b83ff96e1f2b6a682f133852f6798a09c465da95921460cefb3847402498906020016108c7565b610cb4600033610ef3565b610cd05760405162461bcd60e51b81526004016106af90614317565b6001600160a01b038816610cf65760405162461bcd60e51b81526004016106af9061437c565b6001600160a01b038716610d1c5760405162461bcd60e51b81526004016106af9061437c565b6001600160a01b038616610d425760405162461bcd60e51b81526004016106af9061437c565b6001600160a01b038516610d685760405162461bcd60e51b81526004016106af9061437c565b6001600160a01b038416610d8e5760405162461bcd60e51b81526004016106af9061437c565b6001600160a01b038316610db45760405162461bcd60e51b81526004016106af9061437c565b80610e015760405162461bcd60e51b815260206004820152601960248201527f456d70747920706f6f6c206964206e6f7420616c6c6f7765640000000000000060448201526064016106af565b61016780546001600160a01b038a81166001600160a01b0319928316811790935561016880548b8316908416811790915561016980548b8416908516811790915561012d80548b8516908616811790915561012e80548b8616908716811790915561012f80548b871690881681179091556101308054968b1696909716861790965561016a889055604080519788526020880194909452868401929092526060860152608085015260a084019290925260c083015260e08201839052517fad6dcec0852f5b75a1c2b7546b3fc4a5a5a33e6a8c36dcf3316cbf397dfbb52e918190036101000190a15050505050505050565b60009182526065602090815260408084206001600160a01b0393909316845291905290205460ff1690565b6000610838600161135f565b610f35600033610ef3565b610f515760405162461bcd60e51b81526004016106af90614317565b6001600160a01b038116610f775760405162461bcd60e51b81526004016106af9061437c565b60fb54610f9c906000805160206145ab833981519152906001600160a01b03166110eb565b610fb46000805160206145ab8339815191528261083d565b60fb80546001600160a01b0319166001600160a01b0383169081179091556040519081527ff7b449fcd5cfb7379dcd34cb69428dd9f882033b15be33d83b42d91daa28eeb7906020016108c7565b61101a6000805160206145ab83398151915233610ef3565b6110365760405162461bcd60e51b81526004016106af906141fa565b6040518181527f227a473b70d2f893cc7659219575c030a63b5743024fe1e0c1a680e708b1525a9060200160405180910390a16040516370a0823160e01b815230600482015261094c9083906001600160a01b038216906370a082319060240160206040518083038186803b1580156110ae57600080fd5b505afa1580156110c2573d6000803e3d6000fd5b505050506040513d601f19601f820116820180604052508101906110e69190613fd2565b611938565b600082815260656020526040902060010154611106816115df565b610862838361166f565b600061112a6000805160206145ab83398151915233610ef3565b6111465760405162461bcd60e51b81526004016106af906141fa565b600061115183611c65565b90507f3ac0594a85a20354f9dc74f33728416d19ce00d04a406c108cc2dcf2cecea1348160405161118491815260200190565b60405180910390a190505b919050565b60006111ae6000805160206145ab83398151915233610ef3565b6111ca5760405162461bcd60e51b81526004016106af906141fa565b6000821561121e577f3ac0594a85a20354f9dc74f33728416d19ce00d04a406c108cc2dcf2cecea1346111fc85611c65565b60405190815260200160405180910390a16112178685611fb3565b905061128d565b611229868686612259565b90508481101561128d5760405162461bcd60e51b815260206004820152602960248201527f52657475726e65642076616c7565206c657373207468616e2072657175657374604482015268195908185b5bdd5b9d60ba1b60648201526084016106af565b60405163a9059cbb60e01b81526001600160a01b0387169063a9059cbb906112bb90879085906004016141ce565b602060405180830381600087803b1580156112d557600080fd5b505af11580156112e9573d6000803e3d6000fd5b505050506040513d601f19601f8201168201806040525081019061130d9190613f9c565b5060408051868152602081018390527f9045c2ac9b2026de8075f2701bbdde882cd5e830b3b1ead9a15b22f2b5b93742910160405180910390a195945050505050565b6001600160a01b03163b151590565b610162546040516370a0823160e01b815230600482015260009182916001600160a01b03909116906370a082319060240160206040518083038186803b1580156113a857600080fd5b505afa1580156113bc573d6000803e3d6000fd5b505050506040513d601f19601f820116820180604052508101906113e09190613fd2565b610169546040516370a0823160e01b81523060048201529192506000916001600160a01b03909116906370a082319060240160206040518083038186803b15801561142a57600080fd5b505afa15801561143e573d6000803e3d6000fd5b505050506040513d601f19601f820116820180604052508101906114629190613fd2565b905080156115d85761016654604080516318160ddd60e01b815290516000926001600160a01b0316916318160ddd916004808301926020929190829003018186803b1580156114b057600080fd5b505afa1580156114c4573d6000803e3d6000fd5b505050506040513d601f19601f820116820180604052508101906114e89190613fd2565b9050600061016760009054906101000a90046001600160a01b03166001600160a01b031663ffa642256040518163ffffffff1660e01b8152600401604080518083038186803b15801561153a57600080fd5b505afa15801561154e573d6000803e3d6000fd5b505050506040513d601f19601f820116820180604052508101906115729190614062565b50905060008261158285846144cb565b61158c91906144a9565b905086156115a55761159e8186614491565b94506115d4565b6127106115b38260066144cb565b6115bd91906144a9565b6115c790826144ea565b6115d19086614491565b94505b5050505b5092915050565b610a2d81336125e3565b6115f38282610ef3565b61094c5760008281526065602090815260408083206001600160a01b03851684529091529020805460ff1916600117905561162b3390565b6001600160a01b0316816001600160a01b0316837f2f8788117e7eff1d82e926ec794901d17c78024a50270940304540a733656f0d60405160405180910390a45050565b6116798282610ef3565b1561094c5760008281526065602090815260408083206001600160a01b0385168085529252808320805460ff1916905551339285917ff6391f5c32d9c69d2a47ea670b442974b53935d1edc7fd64eb21e047a839171b9190a45050565b7f189ab7a9244df0848122154315af71fe140f3db0fe014031783b0946b8c9d2e361094c816115df565b7f4910fdfa16fed3260ed0e7147f7cc6da11a60208b5b9406d12a635614ffd91435460ff16156117335761086283612647565b826001600160a01b03166352d1902d6040518163ffffffff1660e01b815260040160206040518083038186803b15801561176c57600080fd5b505afa92505050801561179c575060408051601f3d908101601f1916820190925261179991810190613fd2565b60015b6117ff5760405162461bcd60e51b815260206004820152602e60248201527f45524331393637557067726164653a206e657720696d706c656d656e7461746960448201526d6f6e206973206e6f74205555505360901b60648201526084016106af565b6000805160206145cb833981519152811461186e5760405162461bcd60e51b815260206004820152602960248201527f45524331393637557067726164653a20756e737570706f727465642070726f786044820152681a58589b195555525160ba1b60648201526084016106af565b506108628383836126e3565b600054610100900460ff161580801561189a5750600054600160ff909116105b806118b45750303b1580156118b4575060005460ff166001145b6118d05760405162461bcd60e51b81526004016106af906142c9565b6000805460ff1916600117905580156118f3576000805461ff0019166101001790555b6118fb61270e565b61190361270e565b61190e6000336115e9565b610c677f189ab7a9244df0848122154315af71fe140f3db0fe014031783b0946b8c9d2e3336115e9565b610162546001600160a01b038381169116146119665760405162461bcd60e51b81526004016106af90614345565b610162546040516370a0823160e01b81523060048201526000916001600160a01b0316906370a082319060240160206040518083038186803b1580156119ab57600080fd5b505afa1580156119bf573d6000803e3d6000fd5b505050506040513d601f19601f820116820180604052508101906119e39190613fd2565b610162546101675460405163095ea7b360e01b81529293506001600160a01b039182169263095ea7b392611a1d92169085906004016141ce565b602060405180830381600087803b158015611a3757600080fd5b505af1158015611a4b573d6000803e3d6000fd5b505050506040513d601f19601f82011682018060405250810190611a6f9190613f9c565b506101675460405163aa06ce9b60e01b81526001600160a01b039091169063aa06ce9b90611aa390309085906004016141ce565b602060405180830381600087803b158015611abd57600080fd5b505af1158015611ad1573d6000803e3d6000fd5b505050506040513d601f19601f82011682018060405250810190611af59190613fd2565b50610166546040516370a0823160e01b81523060048201526000916001600160a01b0316906370a082319060240160206040518083038186803b158015611b3b57600080fd5b505afa158015611b4f573d6000803e3d6000fd5b505050506040513d601f19601f82011682018060405250810190611b739190613fd2565b610166546101695460405163095ea7b360e01b81529293506001600160a01b039182169263095ea7b392611bad92169085906004016141ce565b602060405180830381600087803b158015611bc757600080fd5b505af1158015611bdb573d6000803e3d6000fd5b505050506040513d601f19601f82011682018060405250810190611bff9190613f9c565b506101695460405163b6b55f2560e01b8152600481018390526001600160a01b039091169063b6b55f2590602401600060405180830381600087803b158015611c4757600080fd5b505af1158015611c5b573d6000803e3d6000fd5b5050505050505050565b610169546040516370a0823160e01b815230600482015260009182916001600160a01b03909116906370a082319060240160206040518083038186803b158015611cae57600080fd5b505afa158015611cc2573d6000803e3d6000fd5b505050506040513d601f19601f82011682018060405250810190611ce69190613fd2565b905080611cf65750600092915050565b61016960009054906101000a90046001600160a01b03166001600160a01b0316630b83a7276040518163ffffffff1660e01b8152600401600060405180830381600087803b158015611d4757600080fd5b505af1158015611d5b573d6000803e3d6000fd5b5050610164546040516370a0823160e01b8152306004820152600093508392506001600160a01b03909116906370a082319060240160206040518083038186803b158015611da857600080fd5b505afa158015611dbc573d6000803e3d6000fd5b505050506040513d601f19601f82011682018060405250810190611de09190613fd2565b90508015611e5a57610168546101645461016354600092611e15926001600160a01b0391821692908216911685600186612779565b905060008115611e4b57610167546101635461016254611e48926001600160a01b03908116928116911685600180612a57565b90505b611e558185614491565b935050505b610165546040516370a0823160e01b81523060048201526000916001600160a01b0316906370a082319060240160206040518083038186803b158015611e9f57600080fd5b505afa158015611eb3573d6000803e3d6000fd5b505050506040513d601f19601f82011682018060405250810190611ed79190613fd2565b90508015611f1c5761016a546101655461016254600092611f0c92909184916001600160a01b03908116911630808885612cb7565b9050611f188185614491565b9350505b8215611fa9576101625460405163a9059cbb60e01b81526001600160a01b039091169063a9059cbb90611f5590899087906004016141ce565b602060405180830381600087803b158015611f6f57600080fd5b505af1158015611f83573d6000803e3d6000fd5b505050506040513d601f19601f82011682018060405250810190611fa79190613f9c565b505b5090949350505050565b610162546000906001600160a01b03848116911614611fe45760405162461bcd60e51b81526004016106af90614345565b610169546040516370a0823160e01b81523060048201526000916001600160a01b0316906370a082319060240160206040518083038186803b15801561202957600080fd5b505afa15801561203d573d6000803e3d6000fd5b505050506040513d601f19601f820116820180604052508101906120619190613fd2565b9050806120ec57610162546040516370a0823160e01b81523060048201526001600160a01b03909116906370a082319060240160206040518083038186803b1580156120ac57600080fd5b505afa1580156120c0573d6000803e3d6000fd5b505050506040513d601f19601f820116820180604052508101906120e49190613fd2565b915050610682565b61016954604051632e1a7d4d60e01b8152600481018390526001600160a01b0390911690632e1a7d4d90602401600060405180830381600087803b15801561213357600080fd5b505af1158015612147573d6000803e3d6000fd5b5050505061016760009054906101000a90046001600160a01b03166001600160a01b031663d47eaa376040518163ffffffff1660e01b8152600401602060405180830381600087803b15801561219c57600080fd5b505af11580156121b0573d6000803e3d6000fd5b505050506040513d601f19601f820116820180604052508101906121d49190613fd2565b50610162546040516370a0823160e01b81523060048201526001600160a01b03909116906370a082319060240160206040518083038186803b15801561221957600080fd5b505afa15801561222d573d6000803e3d6000fd5b505050506040513d601f19601f820116820180604052508101906122519190613fd2565b949350505050565b610162546000906001600160a01b0385811691161461228a5760405162461bcd60e51b81526004016106af90614345565b610167546000906122a59085906001600160a01b0316612f17565b6122b0906001614491565b9050600061016660009054906101000a90046001600160a01b03166001600160a01b03166318160ddd6040518163ffffffff1660e01b815260040160206040518083038186803b15801561230357600080fd5b505afa158015612317573d6000803e3d6000fd5b505050506040513d601f19601f8201168201806040525081019061233b9190613fd2565b9050600061016760009054906101000a90046001600160a01b03166001600160a01b031663ffa642256040518163ffffffff1660e01b8152600401604080518083038186803b15801561238d57600080fd5b505afa1580156123a1573d6000803e3d6000fd5b505050506040513d601f19601f820116820180604052508101906123c59190614062565b5090506000816123d584866144cb565b6123df91906144a9565b610169546040516370a0823160e01b81523060048201529192506000916001600160a01b03909116906370a082319060240160206040518083038186803b15801561242957600080fd5b505afa15801561243d573d6000803e3d6000fd5b505050506040513d601f19601f820116820180604052508101906124619190613fd2565b90508082111561246f578091505b61016954604051632e1a7d4d60e01b8152600481018490526001600160a01b0390911690632e1a7d4d90602401600060405180830381600087803b1580156124b657600080fd5b505af11580156124ca573d6000803e3d6000fd5b5050505061016760009054906101000a90046001600160a01b03166001600160a01b031663d47eaa376040518163ffffffff1660e01b8152600401602060405180830381600087803b15801561251f57600080fd5b505af1158015612533573d6000803e3d6000fd5b505050506040513d601f19601f820116820180604052508101906125579190613fd2565b50610162546040516370a0823160e01b81523060048201526001600160a01b03909116906370a082319060240160206040518083038186803b15801561259c57600080fd5b505afa1580156125b0573d6000803e3d6000fd5b505050506040513d601f19601f820116820180604052508101906125d49190613fd2565b955050505050505b9392505050565b6125ed8282610ef3565b61094c57612605816001600160a01b03166014613196565b612610836020613196565b6040516020016126219291906140ce565b60408051601f198184030181529082905262461bcd60e51b82526106af916004016141e7565b6001600160a01b0381163b6126b45760405162461bcd60e51b815260206004820152602d60248201527f455243313936373a206e657720696d706c656d656e746174696f6e206973206e60448201526c1bdd08184818dbdb9d1c9858dd609a1b60648201526084016106af565b6000805160206145cb83398151915280546001600160a01b0319166001600160a01b0392909216919091179055565b6126ec83613332565b6000825111806126f95750805b15610862576127088383613372565b50505050565b600054610100900460ff16610be45760405162461bcd60e51b815260206004820152602b60248201527f496e697469616c697a61626c653a20636f6e7472616374206973206e6f74206960448201526a6e697469616c697a696e6760a81b60648201526084016106af565b6000808261282c57604051633cd0243b60e11b81526000906001600160a01b038a16906379a04876906127b29030908a906004016141ce565b604080518083038186803b1580156127c957600080fd5b505afa1580156127dd573d6000803e3d6000fd5b505050506040513d601f19601f820116820180604052508101906128019190614062565b509050606461281086826144ea565b61281a90836144cb565b61282491906144a9565b9150506128d3565b6040516366410a2160e01b81526000906001600160a01b038a16906366410a219061285d9030908a906004016141ce565b604080518083038186803b15801561287457600080fd5b505afa158015612888573d6000803e3d6000fd5b505050506040513d601f19601f820116820180604052508101906128ac9190614062565b50905060646128bb86826144ea565b6128c590836144cb565b6128cf91906144a9565b9150505b806128e2576000915050612a4d565b60408051600180825281830190925260009160208083019080368337019050509050888160008151811061291857612918614570565b6001600160a01b03928316602091820292909201015261012f5460405163095ea7b360e01b81528a83169263095ea7b39261295a929116908a906004016141ce565b602060405180830381600087803b15801561297457600080fd5b505af1158015612988573d6000803e3d6000fd5b505050506040513d601f19601f820116820180604052508101906129ac9190613f9c565b5061012e546001600160a01b031663f87dc1b789898986868a60006129d342610258614491565b6040518963ffffffff1660e01b81526004016129f6989796959493929190614143565b602060405180830381600087803b158015612a1057600080fd5b505af1158015612a24573d6000803e3d6000fd5b505050506040513d601f19601f82011682018060405250810190612a489190613fd2565b925050505b9695505050505050565b60008082612b0d5761012d54604051631de9507f60e31b81526000916001600160a01b03169063ef4a83f890612a93908c908a906004016141ce565b60206040518083038186803b158015612aab57600080fd5b505afa158015612abf573d6000803e3d6000fd5b505050506040513d601f19601f82011682018060405250810190612ae39190613fd2565b90506064612af186826144ea565b612afb90836144cb565b612b0591906144a9565b915050612bb7565b61012d5460405163ca19ebd960e01b81526000916001600160a01b03169063ca19ebd990612b41908c908a906004016141ce565b60206040518083038186803b158015612b5957600080fd5b505afa158015612b6d573d6000803e3d6000fd5b505050506040513d601f19601f82011682018060405250810190612b919190613fd2565b90506064612b9f86826144ea565b612ba990836144cb565b612bb391906144a9565b9150505b80612bc6576000915050612a4d565b604080516001808252818301909252600091602080830190803683370190505090508881600081518110612bfc57612bfc614570565b6001600160a01b03928316602091820292909201015261012f5460405163095ea7b360e01b81528a83169263095ea7b392612c3e929116908a906004016141ce565b602060405180830381600087803b158015612c5857600080fd5b505af1158015612c6c573d6000803e3d6000fd5b505050506040513d601f19601f82011682018060405250810190612c909190613f9c565b5061012e546001600160a01b0316630dd4ebd989898986868a60006129d342610258614491565b610130546040516370a0823160e01b81523060048201526000916001600160a01b038981169263095ea7b392919091169083906370a082319060240160206040518083038186803b158015612d0b57600080fd5b505afa158015612d1f573d6000803e3d6000fd5b505050506040513d601f19601f82011682018060405250810190612d439190613fd2565b6040518363ffffffff1660e01b8152600401612d609291906141ce565b602060405180830381600087803b158015612d7a57600080fd5b505af1158015612d8e573d6000803e3d6000fd5b505050506040513d601f19601f82011682018060405250810190612db29190613f9c565b50612dff6040805160c0810190915260008082526020820190815260200160006001600160a01b0316815260200160006001600160a01b0316815260200160008152602001606081525090565b89815260208101896001811115612e1857612e1861455a565b90816001811115612e2b57612e2b61455a565b9052506001600160a01b0388811660408381019190915288821660608085019190915260808085018890528251908101835260006020820181905291810191909152888316815287831691810191909152610130549091166352bbbe29838387612e9742610258614491565b6040518563ffffffff1660e01b8152600401612eb694939291906143b3565b602060405180830381600087803b158015612ed057600080fd5b505af1158015612ee4573d6000803e3d6000fd5b505050506040513d601f19601f82011682018060405250810190612f089190613fd2565b9b9a5050505050505050505050565b60006001826001600160a01b03166317be952e6040518163ffffffff1660e01b815260040160206040518083038186803b158015612f5457600080fd5b505afa158015612f68573d6000803e3d6000fd5b505050506040513d601f19601f82011682018060405250810190612f8c9190614041565b6002811115612f9d57612f9d61455a565b14612fa9575081610682565b61301d604051806101a0016040528060006001600160a01b031681526020016000815260200160008152602001600081526020016000815260200160008152602001600081526020016000815260200160008152602001600081526020016000815260200160008152602001600081525090565b6001600160a01b03831681526020810184905261303981613466565b6040820152613047816135dd565b60608201526130558161375a565b6080820152613063816137de565b60a082015261307181613803565b60c082015261307f816138dd565b60e082015261308d816138ff565b61010082015261309c81613995565b6101208201526130ab816139a7565b6101408201526130ba816139cc565b6101608201526130c981613a59565b8161018001818152505060006131168260c0015161311084610120015161310a86610100015161310a8860e001518960a00151613ab390919063ffffffff16565b90613ab3565b90613afe565b9050600061312382613b46565b9050600061313f82856101400151613ab390919063ffffffff16565b9050600061316d856101800151613167670de0b6b3a764000085613b9e90919063ffffffff16565b90613bff565b9050600061318982876101600151613afe90919063ffffffff16565b9998505050505050505050565b606060006131a58360026144cb565b6131b0906002614491565b67ffffffffffffffff8111156131c8576131c8614586565b6040519080825280601f01601f1916602001820160405280156131f2576020820181803683370190505b509050600360fc1b8160008151811061320d5761320d614570565b60200101906001600160f81b031916908160001a905350600f60fb1b8160018151811061323c5761323c614570565b60200101906001600160f81b031916908160001a90535060006132608460026144cb565b61326b906001614491565b90505b60018111156132e3576f181899199a1a9b1b9c1cb0b131b232b360811b85600f166010811061329f5761329f614570565b1a60f81b8282815181106132b5576132b5614570565b60200101906001600160f81b031916908160001a90535060049490941c936132dc8161452d565b905061326e565b5083156125dc5760405162461bcd60e51b815260206004820181905260248201527f537472696e67733a20686578206c656e67746820696e73756666696369656e7460448201526064016106af565b61333b81612647565b6040516001600160a01b038216907fbc7cd75a20ee27fd9adebab32041f755214dbc6bffa90cc0225b39da2e5c2d3b90600090a250565b60606001600160a01b0383163b6133da5760405162461bcd60e51b815260206004820152602660248201527f416464726573733a2064656c65676174652063616c6c20746f206e6f6e2d636f6044820152651b9d1c9858dd60d21b60648201526084016106af565b600080846001600160a01b0316846040516133f591906140b2565b600060405180830381855af49150503d8060008114613430576040519150601f19603f3d011682016040523d82523d6000602084013e613435565b606091505b509150915061345d82826040518060600160405280602781526020016145eb60279139613c4b565b95945050505050565b60008061355683600001516001600160a01b031663245c96856040518163ffffffff1660e01b815260040160206040518083038186803b1580156134a957600080fd5b505afa1580156134bd573d6000803e3d6000fd5b505050506040513d601f19601f820116820180604052508101906134e19190613fd2565b84600001516001600160a01b0316637c9b8e896040518163ffffffff1660e01b815260040160206040518083038186803b15801561351e57600080fd5b505afa158015613532573d6000803e3d6000fd5b505050506040513d601f19601f820116820180604052508101906131109190613fd2565b9050600083600001516001600160a01b031663796da7af6040518163ffffffff1660e01b815260040160206040518083038186803b15801561359757600080fd5b505afa1580156135ab573d6000803e3d6000fd5b505050506040513d601f19601f820116820180604052508101906135cf9190613fd2565b9050600061345d8383613c84565b60008082600001516001600160a01b031663eab5d20e6040518163ffffffff1660e01b815260040160206040518083038186803b15801561361d57600080fd5b505afa158015613631573d6000803e3d6000fd5b505050506040513d601f19601f820116820180604052508101906136559190613fd2565b9050600083600001516001600160a01b031663ec2fd46d6040518163ffffffff1660e01b815260040160206040518083038186803b15801561369657600080fd5b505afa1580156136aa573d6000803e3d6000fd5b505050506040513d601f19601f820116820180604052508101906136ce9190613fd2565b905060006136f46136ee60046136e8858960400151613c9c565b90613b9e565b84613cba565b905061371461370f670de0b6b3a76400006136e88482613ab3565b613b46565b9050600061373d61372d83670de0b6b3a7640000613afe565b613738856002613b9e565b613cba565b9050612a4d84613755670de0b6b3a764000084613ab3565b613cd2565b60006106828260200151613110600285600001516001600160a01b031663eab5d20e6040518163ffffffff1660e01b815260040160206040518083038186803b1580156137a657600080fd5b505afa1580156137ba573d6000803e3d6000fd5b505050506040513d601f19601f820116820180604052508101906136e89190613fd2565b6060810151600090610682906137f49080613b9e565b604084015161310a9080613b9e565b60008061389a670de0b6b3a764000061316760026136e887600001516001600160a01b031663ec2fd46d6040518163ffffffff1660e01b815260040160206040518083038186803b15801561385757600080fd5b505afa15801561386b573d6000803e3d6000fd5b505050506040513d601f19601f8201168201806040525081019061388f9190613fd2565b604089015190613b9e565b905060006138bd8261310a86604001518760800151613ab390919063ffffffff16565b9050600061345d60026136e8876060015185613b9e90919063ffffffff16565b600061068260026136e884604001518560800151613b9e90919063ffffffff16565b6000610682670de0b6b3a764000061316760026136e886600001516001600160a01b031663ec2fd46d6040518163ffffffff1660e01b815260040160206040518083038186803b15801561395257600080fd5b505afa158015613966573d6000803e3d6000fd5b505050506040513d601f19601f8201168201806040525081019061398a9190613fd2565b60e088015190613b9e565b60808101516000906106829080613b9e565b6000610682826080015161311084604001518560600151613ab390919063ffffffff16565b6000610682826080015161311084600001516001600160a01b031663eab5d20e6040518163ffffffff1660e01b815260040160206040518083038186803b158015613a1657600080fd5b505afa158015613a2a573d6000803e3d6000fd5b505050506040513d601f19601f82011682018060405250810190613a4e9190613fd2565b606086015190613ab3565b6000610682613a716002670de0b6b3a7640000613b9e565b61310a600285600001516001600160a01b031663ec2fd46d6040518163ffffffff1660e01b815260040160206040518083038186803b1580156137a657600080fd5b600080613ac08385614491565b9050838110156125dc5760405162461bcd60e51b815260206004820152600960248201526820a2222fa2a92927a960b91b60448201526064016106af565b600082821115613b3c5760405162461bcd60e51b815260206004820152600960248201526829aaa12fa2a92927a960b91b60448201526064016106af565b6125dc82846144ea565b600080613b546002846144a9565b613b5f906001614491565b90508291505b81811015613b9857905080600281613b7d81866144a9565b613b879190614491565b613b9191906144a9565b9050613b65565b50919050565b600082613bad57506000610682565b6000613bb983856144cb565b905082613bc685836144a9565b146125dc5760405162461bcd60e51b815260206004820152600960248201526826aaa62fa2a92927a960b91b60448201526064016106af565b6000808211613c415760405162461bcd60e51b815260206004820152600e60248201526d2224ab24a224a723afa2a92927a960911b60448201526064016106af565b6125dc82846144a9565b60608315613c5a5750816125dc565b825115613c6a5782518084602001fd5b8160405162461bcd60e51b81526004016106af91906141e7565b60006125dc8261316785670de0b6b3a7640000613b9e565b60006125dc670de0b6b3a7640000613cb48585613b9e565b90613cf1565b60006125dc82613cb485670de0b6b3a7640000613b9e565b6000670de0b6b3a7640000613ce78484613b9e565b6125dc91906144a9565b600080613cfe8484613bff565b90506000613d0c84836144cb565b613d1690866144ea565b90508015613d3257613d29826001614491565b92505050610682565b509050610682565b80356001600160a01b038116811461118f57600080fd5b600060208284031215613d6357600080fd5b6125dc82613d3a565b600080600080600060a08688031215613d8457600080fd5b613d8d86613d3a565b9450613d9b60208701613d3a565b9350613da960408701613d3a565b9250613db760608701613d3a565b9150613dc560808701613d3a565b90509295509295909350565b600080600080600080600080610100898b031215613dee57600080fd5b613df789613d3a565b9750613e0560208a01613d3a565b9650613e1360408a01613d3a565b9550613e2160608a01613d3a565b9450613e2f60808a01613d3a565b9350613e3d60a08a01613d3a565b9250613e4b60c08a01613d3a565b915060e089013590509295985092959890939650565b60008060408385031215613e7457600080fd5b613e7d83613d3a565b9150602083013567ffffffffffffffff80821115613e9a57600080fd5b818501915085601f830112613eae57600080fd5b813581811115613ec057613ec0614586565b604051601f8201601f19908116603f01168101908382118183101715613ee857613ee8614586565b81604052828152886020848701011115613f0157600080fd5b8260208601602083013760006020848301015280955050505050509250929050565b60008060408385031215613f3657600080fd5b613f3f83613d3a565b946020939093013593505050565b60008060008060808587031215613f6357600080fd5b613f6c85613d3a565b935060208501359250613f8160408601613d3a565b91506060850135613f918161459c565b939692955090935050565b600060208284031215613fae57600080fd5b81516125dc8161459c565b600060208284031215613fcb57600080fd5b5035919050565b600060208284031215613fe457600080fd5b5051919050565b60008060408385031215613ffe57600080fd5b8235915061400e60208401613d3a565b90509250929050565b60006020828403121561402957600080fd5b81356001600160e01b0319811681146125dc57600080fd5b60006020828403121561405357600080fd5b8151600381106125dc57600080fd5b6000806040838503121561407557600080fd5b505080516020909101519092909150565b6000815180845261409e816020860160208601614501565b601f01601f19169290920160200192915050565b600082516140c4818460208701614501565b9190910192915050565b7f416363657373436f6e74726f6c3a206163636f756e7420000000000000000000815260008351614106816017850160208801614501565b7001034b99036b4b9b9b4b733903937b6329607d1b6017918401918201528351614137816028840160208801614501565b01602801949350505050565b6001600160a01b038981168252888116602080840191909152604083018990526060830188905261010060808401819052875190840181905260009261012085019289810192855b818110156141a957845184168652948201949382019360010161418b565b505050505060a08301959095525091151560c083015260e09091015295945050505050565b6001600160a01b03929092168252602082015260400190565b6020815260006125dc6020830184614086565b6020808252601f908201527f5265737472696374656420746f20504f5254464f4c494f5f4d414e4147455200604082015260600190565b6020808252602c908201527f46756e6374696f6e206d7573742062652063616c6c6564207468726f7567682060408201526b19195b1959d85d1958d85b1b60a21b606082015260800190565b6020808252602c908201527f46756e6374696f6e206d7573742062652063616c6c6564207468726f7567682060408201526b6163746976652070726f787960a01b606082015260800190565b6020808252602e908201527f496e697469616c697a61626c653a20636f6e747261637420697320616c72656160408201526d191e481a5b9a5d1a585b1a5e995960921b606082015260800190565b6020808252601490820152735265737472696374656420746f2061646d696e7360601b604082015260600190565b60208082526019908201527f536f6d6520746f6b656e206e6f7420636f6d70617469626c6500000000000000604082015260600190565b60208082526018908201527f5a65726f2061646472657373206e6f7420616c6c6f7765640000000000000000604082015260600190565b60e08152845160e082015260006020860151600281106143e357634e487b7160e01b600052602160045260246000fd5b61010083015260408601516001600160a01b031661012083015260608601516144186101408401826001600160a01b03169052565b50608086015161016083015260a086015160c061018084015261443f6101a0840182614086565b91505061447f602083018680516001600160a01b039081168352602080830151151590840152604080830151909116908301526060908101511515910152565b60a082019390935260c0015292915050565b600082198211156144a4576144a4614544565b500190565b6000826144c657634e487b7160e01b600052601260045260246000fd5b500490565b60008160001904831182151516156144e5576144e5614544565b500290565b6000828210156144fc576144fc614544565b500390565b60005b8381101561451c578181015183820152602001614504565b838111156127085750506000910152565b60008161453c5761453c614544565b506000190190565b634e487b7160e01b600052601160045260246000fd5b634e487b7160e01b600052602160045260246000fd5b634e487b7160e01b600052603260045260246000fd5b634e487b7160e01b600052604160045260246000fd5b8015158114610a2d57600080fdfe90c2aa7471c04182221f68e80c07ab1e5946e4c63f8693e14ca40385d529f051360894a13ba1a3210667c828492db98dca3e2076cc3735a920a3ca505d382bbc416464726573733a206c6f772d6c6576656c2064656c65676174652063616c6c206661696c6564a2646970667358221220eead2636066bbcf23ca20ff680992d33643255ff71a22abee9f4d54a769feb2764736f6c63430008060033",
  "devdoc": {
    "kind": "dev",
    "methods": {
      "constructor": {
        "custom:oz-upgrades-unsafe-allow": "constructor"
      },
      "getRoleAdmin(bytes32)": {
        "details": "Returns the admin role that controls `role`. See {grantRole} and {revokeRole}. To change a role's admin, use {_setRoleAdmin}."
      },
      "grantRole(bytes32,address)": {
        "details": "Grants `role` to `account`. If `account` had not been already granted `role`, emits a {RoleGranted} event. Requirements: - the caller must have ``role``'s admin role. May emit a {RoleGranted} event."
      },
      "hasRole(bytes32,address)": {
        "details": "Returns `true` if `account` has been granted `role`."
      },
      "proxiableUUID()": {
        "details": "Implementation of the ERC1822 {proxiableUUID} function. This returns the storage slot used by the implementation. It is used to validate that the this implementation remains valid after an upgrade. IMPORTANT: A proxy pointing at a proxiable contract should not be considered proxiable itself, because this risks bricking a proxy that upgrades to it, by delegating to itself until out of gas. Thus it is critical that this function revert if invoked through a proxy. This is guaranteed by the `notDelegated` modifier."
      },
      "renounceRole(bytes32,address)": {
        "details": "Revokes `role` from the calling account. Roles are often managed via {grantRole} and {revokeRole}: this function's purpose is to provide a mechanism for accounts to lose their privileges if they are compromised (such as when a trusted device is misplaced). If the calling account had been revoked `role`, emits a {RoleRevoked} event. Requirements: - the caller must be `account`. May emit a {RoleRevoked} event."
      },
      "revokeRole(bytes32,address)": {
        "details": "Revokes `role` from `account`. If `account` had been granted `role`, emits a {RoleRevoked} event. Requirements: - the caller must have ``role``'s admin role. May emit a {RoleRevoked} event."
      },
      "supportsInterface(bytes4)": {
        "details": "See {IERC165-supportsInterface}."
      },
      "upgradeTo(address)": {
        "details": "Upgrade the implementation of the proxy to `newImplementation`. Calls {_authorizeUpgrade}. Emits an {Upgraded} event."
      },
      "upgradeToAndCall(address,bytes)": {
        "details": "Upgrade the implementation of the proxy to `newImplementation`, and subsequently execute the function call encoded in `data`. Calls {_authorizeUpgrade}. Emits an {Upgraded} event."
      }
    },
    "version": 1
  },
  "userdoc": {
    "kind": "user",
    "methods": {},
    "version": 1
  },
  "storageLayout": {
    "storage": [
      {
        "astId": 808,
        "contract": "contracts/StrategyDodoUsdc.sol:StrategyDodoUsdc",
        "label": "_initialized",
        "offset": 0,
        "slot": "0",
        "type": "t_uint8"
      },
      {
        "astId": 811,
        "contract": "contracts/StrategyDodoUsdc.sol:StrategyDodoUsdc",
        "label": "_initializing",
        "offset": 1,
        "slot": "0",
        "type": "t_bool"
      },
      {
        "astId": 1475,
        "contract": "contracts/StrategyDodoUsdc.sol:StrategyDodoUsdc",
        "label": "__gap",
        "offset": 0,
        "slot": "1",
        "type": "t_array(t_uint256)50_storage"
      },
      {
        "astId": 1805,
        "contract": "contracts/StrategyDodoUsdc.sol:StrategyDodoUsdc",
        "label": "__gap",
        "offset": 0,
        "slot": "51",
        "type": "t_array(t_uint256)50_storage"
      },
      {
        "astId": 39,
        "contract": "contracts/StrategyDodoUsdc.sol:StrategyDodoUsdc",
        "label": "_roles",
        "offset": 0,
        "slot": "101",
        "type": "t_mapping(t_bytes32,t_struct(RoleData)34_storage)"
      },
      {
        "astId": 338,
        "contract": "contracts/StrategyDodoUsdc.sol:StrategyDodoUsdc",
        "label": "__gap",
        "offset": 0,
        "slot": "102",
        "type": "t_array(t_uint256)49_storage"
      },
      {
        "astId": 790,
        "contract": "contracts/StrategyDodoUsdc.sol:StrategyDodoUsdc",
        "label": "__gap",
        "offset": 0,
        "slot": "151",
        "type": "t_array(t_uint256)50_storage"
      },
      {
        "astId": 1087,
        "contract": "contracts/StrategyDodoUsdc.sol:StrategyDodoUsdc",
        "label": "__gap",
        "offset": 0,
        "slot": "201",
        "type": "t_array(t_uint256)50_storage"
      },
      {
        "astId": 31935,
        "contract": "contracts/StrategyDodoUsdc.sol:StrategyDodoUsdc",
        "label": "portfolioManager",
        "offset": 0,
        "slot": "251",
        "type": "t_address"
      },
      {
        "astId": 32257,
        "contract": "contracts/StrategyDodoUsdc.sol:StrategyDodoUsdc",
        "label": "__gap",
        "offset": 0,
        "slot": "252",
        "type": "t_array(t_uint256)49_storage"
      },
      {
        "astId": 33251,
        "contract": "contracts/StrategyDodoUsdc.sol:StrategyDodoUsdc",
        "label": "dodoV1Helper",
        "offset": 0,
        "slot": "301",
        "type": "t_contract(IDODOV1Helper)27010"
      },
      {
        "astId": 33254,
        "contract": "contracts/StrategyDodoUsdc.sol:StrategyDodoUsdc",
        "label": "dodoProxy",
        "offset": 0,
        "slot": "302",
        "type": "t_contract(IDODOProxy)26810"
      },
      {
        "astId": 33256,
        "contract": "contracts/StrategyDodoUsdc.sol:StrategyDodoUsdc",
        "label": "dodoApprove",
        "offset": 0,
        "slot": "303",
        "type": "t_address"
      },
      {
        "astId": 32273,
        "contract": "contracts/StrategyDodoUsdc.sol:StrategyDodoUsdc",
        "label": "balancerVault",
        "offset": 0,
        "slot": "304",
        "type": "t_contract(IVault)26465"
      },
      {
        "astId": 33241,
        "contract": "contracts/StrategyDodoUsdc.sol:StrategyDodoUsdc",
        "label": "__gap",
        "offset": 0,
        "slot": "305",
        "type": "t_array(t_uint256)49_storage"
      },
      {
        "astId": 8367,
        "contract": "contracts/StrategyDodoUsdc.sol:StrategyDodoUsdc",
        "label": "usdcToken",
        "offset": 0,
        "slot": "354",
        "type": "t_contract(IERC20)2544"
      },
      {
        "astId": 8370,
        "contract": "contracts/StrategyDodoUsdc.sol:StrategyDodoUsdc",
        "label": "usdtToken",
        "offset": 0,
        "slot": "355",
        "type": "t_contract(IERC20)2544"
      },
      {
        "astId": 8373,
        "contract": "contracts/StrategyDodoUsdc.sol:StrategyDodoUsdc",
        "label": "dodoToken",
        "offset": 0,
        "slot": "356",
        "type": "t_contract(IERC20)2544"
      },
      {
        "astId": 8376,
        "contract": "contracts/StrategyDodoUsdc.sol:StrategyDodoUsdc",
        "label": "wmaticToken",
        "offset": 0,
        "slot": "357",
        "type": "t_contract(IERC20)2544"
      },
      {
        "astId": 8379,
        "contract": "contracts/StrategyDodoUsdc.sol:StrategyDodoUsdc",
        "label": "usdcLPToken",
        "offset": 0,
        "slot": "358",
        "type": "t_contract(IERC20)2544"
      },
      {
        "astId": 8382,
        "contract": "contracts/StrategyDodoUsdc.sol:StrategyDodoUsdc",
        "label": "dodoV1UsdcUsdtPool",
        "offset": 0,
        "slot": "359",
        "type": "t_contract(IDODOV1)26989"
      },
      {
        "astId": 8385,
        "contract": "contracts/StrategyDodoUsdc.sol:StrategyDodoUsdc",
        "label": "dodoV2DodoUsdtPool",
        "offset": 0,
        "slot": "360",
        "type": "t_contract(IDODOV2)27035"
      },
      {
        "astId": 8388,
        "contract": "contracts/StrategyDodoUsdc.sol:StrategyDodoUsdc",
        "label": "dodoMine",
        "offset": 0,
        "slot": "361",
        "type": "t_contract(IDODOMine)26763"
      },
      {
        "astId": 8390,
        "contract": "contracts/StrategyDodoUsdc.sol:StrategyDodoUsdc",
        "label": "balancerPoolIdWmaticUsdcWethBal",
        "offset": 0,
        "slot": "362",
        "type": "t_bytes32"
      }
    ],
    "types": {
      "t_address": {
        "encoding": "inplace",
        "label": "address",
        "numberOfBytes": "20"
      },
      "t_array(t_uint256)49_storage": {
        "base": "t_uint256",
        "encoding": "inplace",
        "label": "uint256[49]",
        "numberOfBytes": "1568"
      },
      "t_array(t_uint256)50_storage": {
        "base": "t_uint256",
        "encoding": "inplace",
        "label": "uint256[50]",
        "numberOfBytes": "1600"
      },
      "t_bool": {
        "encoding": "inplace",
        "label": "bool",
        "numberOfBytes": "1"
      },
      "t_bytes32": {
        "encoding": "inplace",
        "label": "bytes32",
        "numberOfBytes": "32"
      },
      "t_contract(IDODOMine)26763": {
        "encoding": "inplace",
        "label": "contract IDODOMine",
        "numberOfBytes": "20"
      },
      "t_contract(IDODOProxy)26810": {
        "encoding": "inplace",
        "label": "contract IDODOProxy",
        "numberOfBytes": "20"
      },
      "t_contract(IDODOV1)26989": {
        "encoding": "inplace",
        "label": "contract IDODOV1",
        "numberOfBytes": "20"
      },
      "t_contract(IDODOV1Helper)27010": {
        "encoding": "inplace",
        "label": "contract IDODOV1Helper",
        "numberOfBytes": "20"
      },
      "t_contract(IDODOV2)27035": {
        "encoding": "inplace",
        "label": "contract IDODOV2",
        "numberOfBytes": "20"
      },
      "t_contract(IERC20)2544": {
        "encoding": "inplace",
        "label": "contract IERC20",
        "numberOfBytes": "20"
      },
      "t_contract(IVault)26465": {
        "encoding": "inplace",
        "label": "contract IVault",
        "numberOfBytes": "20"
      },
      "t_mapping(t_address,t_bool)": {
        "encoding": "mapping",
        "key": "t_address",
        "label": "mapping(address => bool)",
        "numberOfBytes": "32",
        "value": "t_bool"
      },
      "t_mapping(t_bytes32,t_struct(RoleData)34_storage)": {
        "encoding": "mapping",
        "key": "t_bytes32",
        "label": "mapping(bytes32 => struct AccessControlUpgradeable.RoleData)",
        "numberOfBytes": "32",
        "value": "t_struct(RoleData)34_storage"
      },
      "t_struct(RoleData)34_storage": {
        "encoding": "inplace",
        "label": "struct AccessControlUpgradeable.RoleData",
        "members": [
          {
            "astId": 31,
            "contract": "contracts/StrategyDodoUsdc.sol:StrategyDodoUsdc",
            "label": "members",
            "offset": 0,
            "slot": "0",
            "type": "t_mapping(t_address,t_bool)"
          },
          {
            "astId": 33,
            "contract": "contracts/StrategyDodoUsdc.sol:StrategyDodoUsdc",
            "label": "adminRole",
            "offset": 0,
            "slot": "1",
            "type": "t_bytes32"
          }
        ],
        "numberOfBytes": "64"
      },
      "t_uint256": {
        "encoding": "inplace",
        "label": "uint256",
        "numberOfBytes": "32"
      },
      "t_uint8": {
        "encoding": "inplace",
        "label": "uint8",
        "numberOfBytes": "1"
      }
    }
  }
}