{
  "address": "0x834B06E573116eFe3c0eC8CC21798d2DED4F73BE",
  "abi": [
    {
      "inputs": [],
      "stateMutability": "nonpayable",
      "type": "constructor"
    },
    {
      "anonymous": false,
      "inputs": [
        {
          "indexed": false,
          "internalType": "address",
          "name": "previousAdmin",
          "type": "address"
        },
        {
          "indexed": false,
          "internalType": "address",
          "name": "newAdmin",
          "type": "address"
        }
      ],
      "name": "AdminChanged",
      "type": "event"
    },
    {
      "anonymous": false,
      "inputs": [
        {
          "indexed": false,
          "internalType": "uint256",
          "name": "healthFactor",
          "type": "uint256"
        }
      ],
      "name": "BalanceHealthFactor",
      "type": "event"
    },
    {
      "anonymous": false,
      "inputs": [
        {
          "indexed": true,
          "internalType": "address",
          "name": "beacon",
          "type": "address"
        }
      ],
      "name": "BeaconUpgraded",
      "type": "event"
    },
    {
      "anonymous": false,
      "inputs": [
        {
          "indexed": false,
          "internalType": "uint8",
          "name": "version",
          "type": "uint8"
        }
      ],
      "name": "Initialized",
      "type": "event"
    },
    {
      "anonymous": false,
      "inputs": [
        {
          "indexed": false,
          "internalType": "address",
          "name": "value",
          "type": "address"
        }
      ],
      "name": "PortfolioManagerUpdated",
      "type": "event"
    },
    {
      "anonymous": false,
      "inputs": [
        {
          "indexed": false,
          "internalType": "uint256",
          "name": "amount",
          "type": "uint256"
        }
      ],
      "name": "Reward",
      "type": "event"
    },
    {
      "anonymous": false,
      "inputs": [
        {
          "indexed": true,
          "internalType": "bytes32",
          "name": "role",
          "type": "bytes32"
        },
        {
          "indexed": true,
          "internalType": "bytes32",
          "name": "previousAdminRole",
          "type": "bytes32"
        },
        {
          "indexed": true,
          "internalType": "bytes32",
          "name": "newAdminRole",
          "type": "bytes32"
        }
      ],
      "name": "RoleAdminChanged",
      "type": "event"
    },
    {
      "anonymous": false,
      "inputs": [
        {
          "indexed": true,
          "internalType": "bytes32",
          "name": "role",
          "type": "bytes32"
        },
        {
          "indexed": true,
          "internalType": "address",
          "name": "account",
          "type": "address"
        },
        {
          "indexed": true,
          "internalType": "address",
          "name": "sender",
          "type": "address"
        }
      ],
      "name": "RoleGranted",
      "type": "event"
    },
    {
      "anonymous": false,
      "inputs": [
        {
          "indexed": true,
          "internalType": "bytes32",
          "name": "role",
          "type": "bytes32"
        },
        {
          "indexed": true,
          "internalType": "address",
          "name": "account",
          "type": "address"
        },
        {
          "indexed": true,
          "internalType": "address",
          "name": "sender",
          "type": "address"
        }
      ],
      "name": "RoleRevoked",
      "type": "event"
    },
    {
      "anonymous": false,
      "inputs": [
        {
          "indexed": false,
          "internalType": "uint256",
          "name": "healthFactor",
          "type": "uint256"
        }
      ],
      "name": "SetHealthFactor",
      "type": "event"
    },
    {
      "anonymous": false,
      "inputs": [
        {
          "indexed": false,
          "internalType": "uint256",
          "name": "amount",
          "type": "uint256"
        }
      ],
      "name": "Stake",
      "type": "event"
    },
    {
      "anonymous": false,
      "inputs": [],
      "name": "StrategyUpdatedParams",
      "type": "event"
    },
    {
      "anonymous": false,
      "inputs": [
        {
          "indexed": false,
          "internalType": "uint256",
          "name": "amount",
          "type": "uint256"
        },
        {
          "indexed": false,
          "internalType": "uint256",
          "name": "amountReceived",
          "type": "uint256"
        }
      ],
      "name": "Unstake",
      "type": "event"
    },
    {
      "anonymous": false,
      "inputs": [
        {
          "indexed": true,
          "internalType": "address",
          "name": "implementation",
          "type": "address"
        }
      ],
      "name": "Upgraded",
      "type": "event"
    },
    {
      "inputs": [],
      "name": "DEFAULT_ADMIN_ROLE",
      "outputs": [
        {
          "internalType": "bytes32",
          "name": "",
          "type": "bytes32"
        }
      ],
      "stateMutability": "view",
      "type": "function"
    },
    {
      "inputs": [],
      "name": "PORTFOLIO_MANAGER",
      "outputs": [
        {
          "internalType": "bytes32",
          "name": "",
          "type": "bytes32"
        }
      ],
      "stateMutability": "view",
      "type": "function"
    },
    {
      "inputs": [],
      "name": "UPGRADER_ROLE",
      "outputs": [
        {
          "internalType": "bytes32",
          "name": "",
          "type": "bytes32"
        }
      ],
      "stateMutability": "view",
      "type": "function"
    },
    {
      "inputs": [
        {
          "internalType": "address",
          "name": "_to",
          "type": "address"
        }
      ],
      "name": "claimRewards",
      "outputs": [
        {
          "internalType": "uint256",
          "name": "",
          "type": "uint256"
        }
      ],
      "stateMutability": "nonpayable",
      "type": "function"
    },
    {
      "inputs": [
        {
          "internalType": "bytes32",
          "name": "role",
          "type": "bytes32"
        }
      ],
      "name": "getRoleAdmin",
      "outputs": [
        {
          "internalType": "bytes32",
          "name": "",
          "type": "bytes32"
        }
      ],
      "stateMutability": "view",
      "type": "function"
    },
    {
      "inputs": [
        {
          "internalType": "bytes32",
          "name": "role",
          "type": "bytes32"
        },
        {
          "internalType": "address",
          "name": "account",
          "type": "address"
        }
      ],
      "name": "grantRole",
      "outputs": [],
      "stateMutability": "nonpayable",
      "type": "function"
    },
    {
      "inputs": [
        {
          "internalType": "bytes32",
          "name": "role",
          "type": "bytes32"
        },
        {
          "internalType": "address",
          "name": "account",
          "type": "address"
        }
      ],
      "name": "hasRole",
      "outputs": [
        {
          "internalType": "bool",
          "name": "",
          "type": "bool"
        }
      ],
      "stateMutability": "view",
      "type": "function"
    },
    {
      "inputs": [],
      "name": "healthFactorBalance",
      "outputs": [],
      "stateMutability": "nonpayable",
      "type": "function"
    },
    {
      "inputs": [],
      "name": "initialize",
      "outputs": [],
      "stateMutability": "nonpayable",
      "type": "function"
    },
    {
      "inputs": [],
      "name": "liquidationValue",
      "outputs": [
        {
          "internalType": "uint256",
          "name": "",
          "type": "uint256"
        }
      ],
      "stateMutability": "view",
      "type": "function"
    },
    {
      "inputs": [],
      "name": "masterMeerkat",
      "outputs": [
        {
          "internalType": "contract IMasterMeerkat",
          "name": "",
          "type": "address"
        }
      ],
      "stateMutability": "view",
      "type": "function"
    },
    {
      "inputs": [],
      "name": "meerkatPair",
      "outputs": [
        {
          "internalType": "contract IUniswapV2Pair",
          "name": "",
          "type": "address"
        }
      ],
      "stateMutability": "view",
      "type": "function"
    },
    {
      "inputs": [],
      "name": "meerkatRouter02",
      "outputs": [
        {
          "internalType": "contract IUniswapV2Router02",
          "name": "",
          "type": "address"
        }
      ],
      "stateMutability": "view",
      "type": "function"
    },
    {
      "inputs": [],
      "name": "mmfToken",
      "outputs": [
        {
          "internalType": "contract IERC20",
          "name": "",
          "type": "address"
        }
      ],
      "stateMutability": "view",
      "type": "function"
    },
    {
      "inputs": [],
      "name": "netAssetValue",
      "outputs": [
        {
          "internalType": "uint256",
          "name": "",
          "type": "uint256"
        }
      ],
      "stateMutability": "view",
      "type": "function"
    },
    {
      "inputs": [],
      "name": "oracleUsdc",
      "outputs": [
        {
          "internalType": "contract IPriceFeed",
          "name": "",
          "type": "address"
        }
      ],
      "stateMutability": "view",
      "type": "function"
    },
    {
      "inputs": [],
      "name": "oracleUsdt",
      "outputs": [
        {
          "internalType": "contract IPriceFeed",
          "name": "",
          "type": "address"
        }
      ],
      "stateMutability": "view",
      "type": "function"
    },
    {
      "inputs": [],
      "name": "pid",
      "outputs": [
        {
          "internalType": "uint256",
          "name": "",
          "type": "uint256"
        }
      ],
      "stateMutability": "view",
      "type": "function"
    },
    {
      "inputs": [],
      "name": "portfolioManager",
      "outputs": [
        {
          "internalType": "address",
          "name": "",
          "type": "address"
        }
      ],
      "stateMutability": "view",
      "type": "function"
    },
    {
      "inputs": [],
      "name": "proxiableUUID",
      "outputs": [
        {
          "internalType": "bytes32",
          "name": "",
          "type": "bytes32"
        }
      ],
      "stateMutability": "view",
      "type": "function"
    },
    {
      "inputs": [
        {
          "internalType": "bytes32",
          "name": "role",
          "type": "bytes32"
        },
        {
          "internalType": "address",
          "name": "account",
          "type": "address"
        }
      ],
      "name": "renounceRole",
      "outputs": [],
      "stateMutability": "nonpayable",
      "type": "function"
    },
    {
      "inputs": [
        {
          "internalType": "bytes32",
          "name": "role",
          "type": "bytes32"
        },
        {
          "internalType": "address",
          "name": "account",
          "type": "address"
        }
      ],
      "name": "revokeRole",
      "outputs": [],
      "stateMutability": "nonpayable",
      "type": "function"
    },
    {
      "inputs": [
        {
          "internalType": "uint256",
          "name": "healthFactor",
          "type": "uint256"
        }
      ],
      "name": "setHealthFactor",
      "outputs": [],
      "stateMutability": "nonpayable",
      "type": "function"
    },
    {
      "inputs": [
        {
          "components": [
            {
              "internalType": "address",
              "name": "usdcToken",
              "type": "address"
            },
            {
              "internalType": "address",
              "name": "usdtToken",
              "type": "address"
            },
            {
              "internalType": "address",
              "name": "mmfToken",
              "type": "address"
            },
            {
              "internalType": "address",
              "name": "meerkatRouter02",
              "type": "address"
            },
            {
              "internalType": "address",
              "name": "meerkatPair",
              "type": "address"
            },
            {
              "internalType": "address",
              "name": "masterMeerkat",
              "type": "address"
            },
            {
              "internalType": "uint256",
              "name": "pid",
              "type": "uint256"
            },
            {
              "internalType": "address",
              "name": "synapseSwap",
              "type": "address"
            },
            {
              "internalType": "address",
              "name": "oracleUsdc",
              "type": "address"
            },
            {
              "internalType": "address",
              "name": "oracleUsdt",
              "type": "address"
            }
          ],
          "internalType": "struct StrategyMMFUsdcUsdt.StrategyParams",
          "name": "params",
          "type": "tuple"
        }
      ],
      "name": "setParams",
      "outputs": [],
      "stateMutability": "nonpayable",
      "type": "function"
    },
    {
      "inputs": [
        {
          "internalType": "address",
          "name": "_value",
          "type": "address"
        }
      ],
      "name": "setPortfolioManager",
      "outputs": [],
      "stateMutability": "nonpayable",
      "type": "function"
    },
    {
      "inputs": [
        {
          "internalType": "address",
          "name": "_asset",
          "type": "address"
        },
        {
          "internalType": "uint256",
          "name": "_amount",
          "type": "uint256"
        }
      ],
      "name": "stake",
      "outputs": [],
      "stateMutability": "nonpayable",
      "type": "function"
    },
    {
      "inputs": [
        {
          "internalType": "bytes4",
          "name": "interfaceId",
          "type": "bytes4"
        }
      ],
      "name": "supportsInterface",
      "outputs": [
        {
          "internalType": "bool",
          "name": "",
          "type": "bool"
        }
      ],
      "stateMutability": "view",
      "type": "function"
    },
    {
      "inputs": [],
      "name": "synapseSwap",
      "outputs": [
        {
          "internalType": "contract ISwap",
          "name": "",
          "type": "address"
        }
      ],
      "stateMutability": "view",
      "type": "function"
    },
    {
      "inputs": [
        {
          "internalType": "address",
          "name": "_asset",
          "type": "address"
        },
        {
          "internalType": "uint256",
          "name": "_amount",
          "type": "uint256"
        },
        {
          "internalType": "address",
          "name": "_beneficiary",
          "type": "address"
        },
        {
          "internalType": "bool",
          "name": "_targetIsZero",
          "type": "bool"
        }
      ],
      "name": "unstake",
      "outputs": [
        {
          "internalType": "uint256",
          "name": "",
          "type": "uint256"
        }
      ],
      "stateMutability": "nonpayable",
      "type": "function"
    },
    {
      "inputs": [
        {
          "internalType": "address",
          "name": "newImplementation",
          "type": "address"
        }
      ],
      "name": "upgradeTo",
      "outputs": [],
      "stateMutability": "nonpayable",
      "type": "function"
    },
    {
      "inputs": [
        {
          "internalType": "address",
          "name": "newImplementation",
          "type": "address"
        },
        {
          "internalType": "bytes",
          "name": "data",
          "type": "bytes"
        }
      ],
      "name": "upgradeToAndCall",
      "outputs": [],
      "stateMutability": "payable",
      "type": "function"
    },
    {
      "inputs": [],
      "name": "usdcToken",
      "outputs": [
        {
          "internalType": "contract IERC20",
          "name": "",
          "type": "address"
        }
      ],
      "stateMutability": "view",
      "type": "function"
    },
    {
      "inputs": [],
      "name": "usdcTokenDenominator",
      "outputs": [
        {
          "internalType": "uint256",
          "name": "",
          "type": "uint256"
        }
      ],
      "stateMutability": "view",
      "type": "function"
    },
    {
      "inputs": [],
      "name": "usdtToken",
      "outputs": [
        {
          "internalType": "contract IERC20",
          "name": "",
          "type": "address"
        }
      ],
      "stateMutability": "view",
      "type": "function"
    },
    {
      "inputs": [],
      "name": "usdtTokenDenominator",
      "outputs": [
        {
          "internalType": "uint256",
          "name": "",
          "type": "uint256"
        }
      ],
      "stateMutability": "view",
      "type": "function"
    }
  ],
  "numDeployments": 1,
  "solcInputHash": "3f337911c5b115025a597ba19a7cc268",
  "bytecode": "0x60a06040523060601b6080523480156200001857600080fd5b50600054610100900460ff16158080156200003a5750600054600160ff909116105b806200006a575062000057306200014460201b620013361760201c565b1580156200006a575060005460ff166001145b620000d25760405162461bcd60e51b815260206004820152602e60248201527f496e697469616c697a61626c653a20636f6e747261637420697320616c72656160448201526d191e481a5b9a5d1a585b1a5e995960921b606482015260840160405180910390fd5b6000805460ff191660011790558015620000f6576000805461ff0019166101001790555b80156200013d576000805461ff0019169055604051600181527f7f26b83ff96e1f2b6a682f133852f6798a09c465da95921460cefb38474024989060200160405180910390a15b5062000153565b6001600160a01b03163b151590565b60805160601c6149146200018e600039600081816107da0152818161081a015281816108ba015281816108fa015261098901526149146000f3fe6080604052600436106102045760003560e01c80637d5f580211610118578063c3bc6ff1116100a0578063de8bec781161006f578063de8bec78146105bf578063ef5cfb8c146105e0578063f106845414610600578063f6f6b88114610617578063f72c0d8b1461063757600080fd5b8063c3bc6ff114610547578063cc6522c31461055e578063d02d99df1461057f578063d547741f1461059f57600080fd5b8063a3673b38116100e7578063a3673b38146104b0578063a440b21a146104c5578063a5aa8c09146104e5578063a98ad46c14610506578063adc9772e1461052757600080fd5b80637d5f5802146104445780638129fc1c1461046657806391d148541461047b578063a217fddf1461049b57600080fd5b806336568abe1161019b578063593b1d6b1161016a578063593b1d6b146103ac5780635fea9cbb146103cd578063620b75df146103ee57806367504c4b1461040e5780637b73aa4e1461042f57600080fd5b806336568abe146103445780633659cfe6146103645780634f1ef2861461038457806352d1902d1461039757600080fd5b8063248a9ca3116101d7578063248a9ca3146102bd5780632576e65a146102ed5780632f2ff15d14610302578063311117081461032457600080fd5b806301ffc9a71461020957806306da3f2e1461023e57806306f738d51461026357806311eac8551461029c575b600080fd5b34801561021557600080fd5b506102296102243660046141e6565b61066b565b60405190151581526020015b60405180910390f35b34801561024a57600080fd5b506102556101375481565b604051908152602001610235565b34801561026f57600080fd5b5061013454610284906001600160a01b031681565b6040516001600160a01b039091168152602001610235565b3480156102a857600080fd5b5061012d54610284906001600160a01b031681565b3480156102c957600080fd5b506102556102d8366004614184565b60009081526065602052604090206001015490565b3480156102f957600080fd5b506102556106a2565b34801561030e57600080fd5b5061032261031d3660046141b6565b6106b3565b005b34801561033057600080fd5b5061032261033f366004614184565b6106dd565b34801561035057600080fd5b5061032261035f3660046141b6565b610751565b34801561037057600080fd5b5061032261037f366004613f59565b6107cf565b610322610392366004613f93565b6108af565b3480156103a357600080fd5b5061025561097c565b3480156103b857600080fd5b5061013254610284906001600160a01b031681565b3480156103d957600080fd5b5061013554610284906001600160a01b031681565b3480156103fa57600080fd5b5060fb54610284906001600160a01b031681565b34801561041a57600080fd5b5061013054610284906001600160a01b031681565b34801561043b57600080fd5b50610322610a2f565b34801561045057600080fd5b5061025560008051602061487883398151915281565b34801561047257600080fd5b50610322610a65565b34801561048757600080fd5b506102296104963660046141b6565b610b28565b3480156104a757600080fd5b50610255600081565b3480156104bc57600080fd5b50610255610b53565b3480156104d157600080fd5b506103226104e0366004613f59565b610b5f565b3480156104f157600080fd5b5061013154610284906001600160a01b031681565b34801561051257600080fd5b5061012e54610284906001600160a01b031681565b34801561053357600080fd5b5061032261054236600461403b565b610c8e565b34801561055357600080fd5b506102556101385481565b34801561056a57600080fd5b5061013654610284906001600160a01b031681565b34801561058b57600080fd5b5061032261059a366004614210565b610d77565b3480156105ab57600080fd5b506103226105ba3660046141b6565b6110cd565b3480156105cb57600080fd5b5061012f54610284906001600160a01b031681565b3480156105ec57600080fd5b506102556105fb366004613f59565b6110f2565b34801561060c57600080fd5b506102556101335481565b34801561062357600080fd5b50610255610632366004614067565b611176565b34801561064357600080fd5b506102557f189ab7a9244df0848122154315af71fe140f3db0fe014031783b0946b8c9d2e381565b60006001600160e01b03198216637965db0b60e01b148061069c57506301ffc9a760e01b6001600160e01b03198316145b92915050565b60006106ae6000611345565b905090565b6000828152606560205260409020600101546106ce816117d1565b6106d883836117db565b505050565b6106f560008051602061487883398151915233610b28565b61071a5760405162461bcd60e51b815260040161071190614436565b60405180910390fd5b6040518181527ff00d5f5126966481831a71a9d79a9b3af67c4a1a35637b992c7e465a7e465b71906020015b60405180910390a150565b6001600160a01b03811633146107c15760405162461bcd60e51b815260206004820152602f60248201527f416363657373436f6e74726f6c3a2063616e206f6e6c792072656e6f756e636560448201526e103937b632b9903337b91039b2b63360891b6064820152608401610711565b6107cb8282611861565b5050565b306001600160a01b037f00000000000000000000000000000000000000000000000000000000000000001614156108185760405162461bcd60e51b81526004016107119061446d565b7f00000000000000000000000000000000000000000000000000000000000000006001600160a01b0316610861600080516020614898833981519152546001600160a01b031690565b6001600160a01b0316146108875760405162461bcd60e51b8152600401610711906144b9565b610890816118c8565b604080516000808252602082019092526108ac918391906118f2565b50565b306001600160a01b037f00000000000000000000000000000000000000000000000000000000000000001614156108f85760405162461bcd60e51b81526004016107119061446d565b7f00000000000000000000000000000000000000000000000000000000000000006001600160a01b0316610941600080516020614898833981519152546001600160a01b031690565b6001600160a01b0316146109675760405162461bcd60e51b8152600401610711906144b9565b610970826118c8565b6107cb828260016118f2565b6000306001600160a01b037f00000000000000000000000000000000000000000000000000000000000000001614610a1c5760405162461bcd60e51b815260206004820152603860248201527f555550535570677261646561626c653a206d757374206e6f742062652063616c60448201527f6c6564207468726f7567682064656c656761746563616c6c00000000000000006064820152608401610711565b5060008051602061489883398151915290565b610a4760008051602061487883398151915233610b28565b610a635760405162461bcd60e51b815260040161071190614436565b565b600054610100900460ff1615808015610a855750600054600160ff909116105b80610a9f5750303b158015610a9f575060005460ff166001145b610abb5760405162461bcd60e51b815260040161071190614505565b6000805460ff191660011790558015610ade576000805461ff0019166101001790555b610ae6611a6c565b80156108ac576000805461ff0019169055604051600181527f7f26b83ff96e1f2b6a682f133852f6798a09c465da95921460cefb384740249890602001610746565b60009182526065602090815260408084206001600160a01b0393909316845291905290205460ff1690565b60006106ae6001611345565b610b6a600033610b28565b610bad5760405162461bcd60e51b81526020600482015260146024820152735265737472696374656420746f2061646d696e7360601b6044820152606401610711565b6001600160a01b038116610c035760405162461bcd60e51b815260206004820152601860248201527f5a65726f2061646472657373206e6f7420616c6c6f77656400000000000000006044820152606401610711565b60fb54610c2890600080516020614878833981519152906001600160a01b03166110cd565b610c40600080516020614878833981519152826106b3565b60fb80546001600160a01b0319166001600160a01b0383169081179091556040519081527ff7b449fcd5cfb7379dcd34cb69428dd9f882033b15be33d83b42d91daa28eeb790602001610746565b610ca660008051602061487883398151915233610b28565b610cc25760405162461bcd60e51b815260040161071190614436565b6040518181527f227a473b70d2f893cc7659219575c030a63b5743024fe1e0c1a680e708b1525a9060200160405180910390a16040516370a0823160e01b81523060048201526107cb9083906001600160a01b038216906370a082319060240160206040518083038186803b158015610d3a57600080fd5b505afa158015610d4e573d6000803e3d6000fd5b505050506040513d601f19601f82011682018060405250810190610d72919061419d565b611b2a565b610d82600033610b28565b610dc55760405162461bcd60e51b81526020600482015260146024820152735265737472696374656420746f2061646d696e7360601b6044820152606401610711565b610dd26020820182613f59565b61012d80546001600160a01b0319166001600160a01b0392909216919091179055610e036040820160208301613f59565b61012e80546001600160a01b0319166001600160a01b0392909216919091179055610e346060820160408301613f59565b61012f80546001600160a01b0319166001600160a01b0392909216919091179055610e656080820160608301613f59565b61013080546001600160a01b0319166001600160a01b0392909216919091179055610e9660a0820160808301613f59565b61013180546001600160a01b0319166001600160a01b0392909216919091179055610ec760c0820160a08301613f59565b61013280546001600160a01b0319166001600160a01b039290921691909117905560c081013561013355610f02610100820160e08301613f59565b61013480546001600160a01b0319166001600160a01b0392909216919091179055610f3561012082016101008301613f59565b61013580546001600160a01b0319166001600160a01b0392909216919091179055610f6861014082016101208301613f59565b61013680546001600160a01b0319166001600160a01b0392909216919091179055610f966020820182613f59565b6001600160a01b031663313ce5676040518163ffffffff1660e01b815260040160206040518083038186803b158015610fce57600080fd5b505afa158015610fe2573d6000803e3d6000fd5b505050506040513d601f19601f8201168201806040525081019061100691906142cb565b61101190600a6146d3565b610137556110226020820182613f59565b6001600160a01b031663313ce5676040518163ffffffff1660e01b815260040160206040518083038186803b15801561105a57600080fd5b505afa15801561106e573d6000803e3d6000fd5b505050506040513d601f19601f8201168201806040525081019061109291906142cb565b61109d90600a6146d3565b610138556040517fea5646eb3528e525944447a4a97de700dd472298626e5c0481d1c82c3da86ea590600090a150565b6000828152606560205260409020600101546110e8816117d1565b6106d88383611861565b600061110c60008051602061487883398151915233610b28565b6111285760405162461bcd60e51b815260040161071190614436565b600061113383612256565b90507f3ac0594a85a20354f9dc74f33728416d19ce00d04a406c108cc2dcf2cecea1348160405161116691815260200190565b60405180910390a190505b919050565b600061119060008051602061487883398151915233610b28565b6111ac5760405162461bcd60e51b815260040161071190614436565b60008215611200577f3ac0594a85a20354f9dc74f33728416d19ce00d04a406c108cc2dcf2cecea1346111de85612256565b60405190815260200160405180910390a16111f98685612504565b905061126f565b61120b868686612b41565b90508481101561126f5760405162461bcd60e51b815260206004820152602960248201527f52657475726e65642076616c7565206c657373207468616e2072657175657374604482015268195908185b5bdd5b9d60ba1b6064820152608401610711565b60405163a9059cbb60e01b81526001600160a01b0385811660048301526024820183905287169063a9059cbb90604401602060405180830381600087803b1580156112b957600080fd5b505af11580156112cd573d6000803e3d6000fd5b505050506040513d601f19601f820116820180604052508101906112f19190614167565b5060408051868152602081018390527f9045c2ac9b2026de8075f2701bbdde882cd5e830b3b1ead9a15b22f2b5b93742910160405180910390a190505b949350505050565b6001600160a01b03163b151590565b61012d546040516370a0823160e01b815230600482015260009182916001600160a01b03909116906370a082319060240160206040518083038186803b15801561138e57600080fd5b505afa1580156113a2573d6000803e3d6000fd5b505050506040513d601f19601f820116820180604052508101906113c6919061419d565b61012e546040516370a0823160e01b81523060048201529192506000916001600160a01b03909116906370a082319060240160206040518083038186803b15801561141057600080fd5b505afa158015611424573d6000803e3d6000fd5b505050506040513d601f19601f82011682018060405250810190611448919061419d565b61013254610133546040516393f1a40b60e01b815260048101919091523060248201529192506000916001600160a01b03909116906393f1a40b90604401604080518083038186803b15801561149d57600080fd5b505afa1580156114b1573d6000803e3d6000fd5b505050506040513d601f19601f820116820180604052508101906114d59190614279565b509050801561163f5761013154604080516318160ddd60e01b815290516000926001600160a01b0316916318160ddd916004808301926020929190829003018186803b15801561152457600080fd5b505afa158015611538573d6000803e3d6000fd5b505050506040513d601f19601f8201168201806040525081019061155c919061419d565b905060008061013160009054906101000a90046001600160a01b03166001600160a01b0316630902f1ac6040518163ffffffff1660e01b815260040160606040518083038186803b1580156115b057600080fd5b505afa1580156115c4573d6000803e3d6000fd5b505050506040513d601f19601f820116820180604052508101906115e89190614229565b506001600160701b03918216935016905082611604858461477e565b61160e919061466e565b6116189087614656565b955082611625858361477e565b61162f919061466e565b6116399086614656565b94505050505b600082156117bd5785156117945761013554604080516350d25bcd60e01b815290516000926001600160a01b0316916350d25bcd916004808301926020929190829003018186803b15801561169357600080fd5b505afa1580156116a7573d6000803e3d6000fd5b505050506040513d601f19601f820116820180604052508101906116cb919061419d565b9050600061013660009054906101000a90046001600160a01b03166001600160a01b03166350d25bcd6040518163ffffffff1660e01b815260040160206040518083038186803b15801561171e57600080fd5b505afa158015611732573d6000803e3d6000fd5b505050506040513d601f19601f82011682018060405250810190611756919061419d565b90508161013854611767919061477e565b816101375487611777919061477e565b611781919061477e565b61178b919061466e565b925050506117bd565b6101345461012e5461012d546117ba926001600160a01b039081169281169116866131f5565b90505b6117c78185614656565b9695505050505050565b6108ac8133613389565b6117e58282610b28565b6107cb5760008281526065602090815260408083206001600160a01b03851684529091529020805460ff1916600117905561181d3390565b6001600160a01b0316816001600160a01b0316837f2f8788117e7eff1d82e926ec794901d17c78024a50270940304540a733656f0d60405160405180910390a45050565b61186b8282610b28565b156107cb5760008281526065602090815260408083206001600160a01b0385168085529252808320805460ff1916905551339285917ff6391f5c32d9c69d2a47ea670b442974b53935d1edc7fd64eb21e047a839171b9190a45050565b7f189ab7a9244df0848122154315af71fe140f3db0fe014031783b0946b8c9d2e36107cb816117d1565b7f4910fdfa16fed3260ed0e7147f7cc6da11a60208b5b9406d12a635614ffd91435460ff1615611925576106d8836133ed565b826001600160a01b03166352d1902d6040518163ffffffff1660e01b815260040160206040518083038186803b15801561195e57600080fd5b505afa92505050801561198e575060408051601f3d908101601f1916820190925261198b9181019061419d565b60015b6119f15760405162461bcd60e51b815260206004820152602e60248201527f45524331393637557067726164653a206e657720696d706c656d656e7461746960448201526d6f6e206973206e6f74205555505360901b6064820152608401610711565b6000805160206148988339815191528114611a605760405162461bcd60e51b815260206004820152602960248201527f45524331393637557067726164653a20756e737570706f727465642070726f786044820152681a58589b195555525160ba1b6064820152608401610711565b506106d8838383613489565b600054610100900460ff1615808015611a8c5750600054600160ff909116105b80611aa65750303b158015611aa6575060005460ff166001145b611ac25760405162461bcd60e51b815260040161071190614505565b6000805460ff191660011790558015611ae5576000805461ff0019166101001790555b611aed6134b4565b611af56134b4565b611b006000336117db565b610ae67f189ab7a9244df0848122154315af71fe140f3db0fe014031783b0946b8c9d2e3336117db565b61012d546001600160a01b03838116911614611b585760405162461bcd60e51b815260040161071190614599565b60008061013160009054906101000a90046001600160a01b03166001600160a01b0316630902f1ac6040518163ffffffff1660e01b815260040160606040518083038186803b158015611baa57600080fd5b505afa158015611bbe573d6000803e3d6000fd5b505050506040513d601f19601f82011682018060405250810190611be29190614229565b506001600160701b031691506001600160701b031691506103e882118015611c0b57506103e881115b611c275760405162461bcd60e51b815260040161071190614553565b61012e546040516370a0823160e01b81523060048201526000916001600160a01b0316906370a082319060240160206040518083038186803b158015611c6c57600080fd5b505afa158015611c80573d6000803e3d6000fd5b505050506040513d601f19601f82011682018060405250810190611ca4919061419d565b905060008115611cd7576101345461012e5461012d54611cd4926001600160a01b039081169281169116856131f5565b90505b61012d546040516370a0823160e01b81523060048201526000916001600160a01b0316906370a082319060240160206040518083038186803b158015611d1c57600080fd5b505afa158015611d30573d6000803e3d6000fd5b505050506040513d601f19601f82011682018060405250810190611d54919061419d565b6101345461012d5461012e54929350600092611d95926001600160a01b039081169281169116611d84878761479d565b8a8a6101375461013854600161351f565b6101345461012d5461012e54929350611dbf926001600160a01b03928316929182169116846135ca565b5061012d546040516370a0823160e01b81523060048201526001600160a01b03909116906370a082319060240160206040518083038186803b158015611e0457600080fd5b505afa158015611e18573d6000803e3d6000fd5b505050506040513d601f19601f82011682018060405250810190611e3c919061419d565b61012e546040516370a0823160e01b81523060048201529193506001600160a01b0316906370a082319060240160206040518083038186803b158015611e8157600080fd5b505afa158015611e95573d6000803e3d6000fd5b505050506040513d601f19601f82011682018060405250810190611eb9919061419d565b61012d546101305460405163095ea7b360e01b81526001600160a01b03918216600482015260248101869052929650169063095ea7b390604401602060405180830381600087803b158015611f0d57600080fd5b505af1158015611f21573d6000803e3d6000fd5b505050506040513d601f19601f82011682018060405250810190611f459190614167565b5061012e546101305460405163095ea7b360e01b81526001600160a01b0391821660048201526024810187905291169063095ea7b390604401602060405180830381600087803b158015611f9857600080fd5b505af1158015611fac573d6000803e3d6000fd5b505050506040513d601f19601f82011682018060405250810190611fd09190614167565b506101305461012d5461012e546001600160a01b039283169263e8e3370092811691168588606461200283606361477e565b61200c919061466e565b60646120198c606361477e565b612023919061466e565b6040516001600160e01b031960e089901b1681526001600160a01b03968716600482015295909416602486015260448501929092526064840152608483015260a48201523060c48201524260e482015261010401606060405180830381600087803b15801561209157600080fd5b505af11580156120a5573d6000803e3d6000fd5b505050506040513d601f19601f820116820180604052508101906120c9919061429d565b5050610131546040516370a0823160e01b8152306004820152600092506001600160a01b03909116906370a082319060240160206040518083038186803b15801561211357600080fd5b505afa158015612127573d6000803e3d6000fd5b505050506040513d601f19601f8201168201806040525081019061214b919061419d565b610131546101325460405163095ea7b360e01b81526001600160a01b0391821660048201526000196024820152929350169063095ea7b390604401602060405180830381600087803b1580156121a057600080fd5b505af11580156121b4573d6000803e3d6000fd5b505050506040513d601f19601f820116820180604052508101906121d89190614167565b506101325461013354604051638dbdbe6d60e01b8152600481019190915260248101839052600060448201526001600160a01b0390911690638dbdbe6d90606401600060405180830381600087803b15801561223357600080fd5b505af1158015612247573d6000803e3d6000fd5b50505050505050505050505050565b61013254610133546040516393f1a40b60e01b8152600481019190915230602482015260009182916001600160a01b03909116906393f1a40b90604401604080518083038186803b1580156122aa57600080fd5b505afa1580156122be573d6000803e3d6000fd5b505050506040513d601f19601f820116820180604052508101906122e29190614279565b509050801561235e576101325461013354604051638dbdbe6d60e01b8152600481019190915260006024820181905260448201526001600160a01b0390911690638dbdbe6d90606401600060405180830381600087803b15801561234557600080fd5b505af1158015612359573d6000803e3d6000fd5b505050505b61012f546040516370a0823160e01b815230600482015260009182916001600160a01b03909116906370a082319060240160206040518083038186803b1580156123a757600080fd5b505afa1580156123bb573d6000803e3d6000fd5b505050506040513d601f19601f820116820180604052508101906123df919061419d565b9050801561246d576101305461012f5461012d54600092612411926001600160a01b0391821692908216911685613890565b9050801561246b576101305461012f5461012d5460009261245b926001600160a01b0391821692908216911686606461244b88606361477e565b612455919061466e565b306139b9565b90506124678185614656565b9350505b505b81156124fc5761012d5460405163a9059cbb60e01b81526001600160a01b038781166004830152602482018590529091169063a9059cbb90604401602060405180830381600087803b1580156124c257600080fd5b505af11580156124d6573d6000803e3d6000fd5b505050506040513d601f19601f820116820180604052508101906124fa9190614167565b505b509392505050565b61012d546000906001600160a01b038481169116146125355760405162461bcd60e51b815260040161071190614599565b61013254610133546040516393f1a40b60e01b815260048101919091523060248201526000916001600160a01b0316906393f1a40b90604401604080518083038186803b15801561258557600080fd5b505afa158015612599573d6000803e3d6000fd5b505050506040513d601f19601f820116820180604052508101906125bd9190614279565b50905080156129db576101325461013354604051630441a3e760e41b81526001600160a01b039092169163441a3e7091612604918590600401918252602082015260400190565b600060405180830381600087803b15801561261e57600080fd5b505af1158015612632573d6000803e3d6000fd5b5050505060008061013160009054906101000a90046001600160a01b03166001600160a01b0316630902f1ac6040518163ffffffff1660e01b815260040160606040518083038186803b15801561268857600080fd5b505afa15801561269c573d6000803e3d6000fd5b505050506040513d601f19601f820116820180604052508101906126c09190614229565b506001600160701b031691506001600160701b03169150600061013160009054906101000a90046001600160a01b03166001600160a01b03166318160ddd6040518163ffffffff1660e01b815260040160206040518083038186803b15801561272857600080fd5b505afa15801561273c573d6000803e3d6000fd5b505050506040513d601f19601f82011682018060405250810190612760919061419d565b905060008161276f868661477e565b612779919061466e565b9050600082612788878661477e565b612792919061466e565b610131546101305460405163095ea7b360e01b81526001600160a01b039182166004820152602481018a9052929350169063095ea7b390604401602060405180830381600087803b1580156127e657600080fd5b505af11580156127fa573d6000803e3d6000fd5b505050506040513d601f19601f8201168201806040525081019061281e9190614167565b50610130546101315460408051630dfe168160e01b815290516001600160a01b039384169363baa2abde931691630dfe1681916004808301926020929190829003018186803b15801561287057600080fd5b505afa158015612884573d6000803e3d6000fd5b505050506040513d601f19601f820116820180604052508101906128a89190613f76565b61013160009054906101000a90046001600160a01b03166001600160a01b031663d21220a76040518163ffffffff1660e01b815260040160206040518083038186803b1580156128f757600080fd5b505afa15801561290b573d6000803e3d6000fd5b505050506040513d601f19601f8201168201806040525081019061292f9190613f76565b89606461293d88606361477e565b612947919061466e565b606461295488606361477e565b61295e919061466e565b30426040518863ffffffff1660e01b815260040161298297969594939291906143c3565b6040805180830381600087803b15801561299b57600080fd5b505af11580156129af573d6000803e3d6000fd5b505050506040513d601f19601f820116820180604052508101906129d39190614279565b505050505050505b61012e546040516370a0823160e01b81523060048201526000916001600160a01b0316906370a082319060240160206040518083038186803b158015612a2057600080fd5b505afa158015612a34573d6000803e3d6000fd5b505050506040513d601f19601f82011682018060405250810190612a58919061419d565b90508015612abc576101345461012e5461012d54600092612a8a926001600160a01b03918216929082169116856131f5565b90508015612aba576101345461012e5461012d54612ab8926001600160a01b039081169281169116856135ca565b505b505b61012d546040516370a0823160e01b81523060048201526001600160a01b03909116906370a082319060240160206040518083038186803b158015612b0057600080fd5b505afa158015612b14573d6000803e3d6000fd5b505050506040513d601f19601f82011682018060405250810190612b38919061419d565b95945050505050565b61012d546000906001600160a01b03858116911614612b725760405162461bcd60e51b815260040161071190614599565b60008061013160009054906101000a90046001600160a01b03166001600160a01b0316630902f1ac6040518163ffffffff1660e01b815260040160606040518083038186803b158015612bc457600080fd5b505afa158015612bd8573d6000803e3d6000fd5b505050506040513d601f19601f82011682018060405250810190612bfc9190614229565b506001600160701b031691506001600160701b031691506103e882118015612c2557506103e881115b612c415760405162461bcd60e51b815260040161071190614553565b61013254610133546040516393f1a40b60e01b815260048101919091523060248201526000916001600160a01b0316906393f1a40b90604401604080518083038186803b158015612c9157600080fd5b505afa158015612ca5573d6000803e3d6000fd5b505050506040513d601f19601f82011682018060405250810190612cc99190614279565b509050801561308a5761013154604080516318160ddd60e01b815290516000926001600160a01b0316916318160ddd916004808301926020929190829003018186803b158015612d1857600080fd5b505afa158015612d2c573d6000803e3d6000fd5b505050506040513d601f19601f82011682018060405250810190612d50919061419d565b6101345461012d5461012e54929350600092612d93926001600160a01b039081169281169116612d818c600a614656565b868a8a61013754610138546001613b6f565b905082811115612da05750815b6101325461013354604051630441a3e760e41b81526001600160a01b039092169163441a3e7091612dde918590600401918252602082015260400190565b600060405180830381600087803b158015612df857600080fd5b505af1158015612e0c573d6000803e3d6000fd5b505050506000828287612e1f919061477e565b612e29919061466e565b9050600083612e38848861477e565b612e42919061466e565b610131546101305460405163095ea7b360e01b81526001600160a01b03918216600482015260248101879052929350169063095ea7b390604401602060405180830381600087803b158015612e9657600080fd5b505af1158015612eaa573d6000803e3d6000fd5b505050506040513d601f19601f82011682018060405250810190612ece9190614167565b50610130546101315460408051630dfe168160e01b815290516001600160a01b039384169363baa2abde931691630dfe1681916004808301926020929190829003018186803b158015612f2057600080fd5b505afa158015612f34573d6000803e3d6000fd5b505050506040513d601f19601f82011682018060405250810190612f589190613f76565b61013160009054906101000a90046001600160a01b03166001600160a01b031663d21220a76040518163ffffffff1660e01b815260040160206040518083038186803b158015612fa757600080fd5b505afa158015612fbb573d6000803e3d6000fd5b505050506040513d601f19601f82011682018060405250810190612fdf9190613f76565b866064612fed88606361477e565b612ff7919061466e565b606461300488606361477e565b61300e919061466e565b30426040518863ffffffff1660e01b815260040161303297969594939291906143c3565b6040805180830381600087803b15801561304b57600080fd5b505af115801561305f573d6000803e3d6000fd5b505050506040513d601f19601f820116820180604052508101906130839190614279565b5050505050505b61012e546040516370a0823160e01b81523060048201526000916001600160a01b0316906370a082319060240160206040518083038186803b1580156130cf57600080fd5b505afa1580156130e3573d6000803e3d6000fd5b505050506040513d601f19601f82011682018060405250810190613107919061419d565b9050801561316b576101345461012e5461012d54600092613139926001600160a01b03918216929082169116856131f5565b90508015613169576101345461012e5461012d54613167926001600160a01b039081169281169116856135ca565b505b505b61012d546040516370a0823160e01b81523060048201526001600160a01b03909116906370a082319060240160206040518083038186803b1580156131af57600080fd5b505afa1580156131c3573d6000803e3d6000fd5b505050506040513d601f19601f820116820180604052508101906131e7919061419d565b9450505050505b9392505050565b6040516319b02f4960e21b81526001600160a01b03848116600483015260009182918716906366c0bd249060240160206040518083038186803b15801561323b57600080fd5b505afa15801561324f573d6000803e3d6000fd5b505050506040513d601f19601f8201168201806040525081019061327391906142cb565b6040516319b02f4960e21b81526001600160a01b0386811660048301529192506000918816906366c0bd249060240160206040518083038186803b1580156132ba57600080fd5b505afa1580156132ce573d6000803e3d6000fd5b505050506040513d601f19601f820116820180604052508101906132f291906142cb565b60405163a95b089f60e01b815260ff808516600483015282166024820152604481018690529091506001600160a01b0388169063a95b089f9060640160206040518083038186803b15801561334657600080fd5b505afa15801561335a573d6000803e3d6000fd5b505050506040513d601f19601f8201168201806040525081019061337e919061419d565b979650505050505050565b6133938282610b28565b6107cb576133ab816001600160a01b03166014613c47565b6133b6836020613c47565b6040516020016133c792919061434e565b60408051601f198184030181529082905262461bcd60e51b825261071191600401614403565b6001600160a01b0381163b61345a5760405162461bcd60e51b815260206004820152602d60248201527f455243313936373a206e657720696d706c656d656e746174696f6e206973206e60448201526c1bdd08184818dbdb9d1c9858dd609a1b6064820152608401610711565b60008051602061489883398151915280546001600160a01b0319166001600160a01b0392909216919091179055565b61349283613de3565b60008251118061349f5750805b156106d8576134ae8383613e23565b50505050565b600054610100900460ff16610a635760405162461bcd60e51b815260206004820152602b60248201527f496e697469616c697a61626c653a20636f6e7472616374206973206e6f74206960448201526a6e697469616c697a696e6760a81b6064820152608401610711565b6000848461352d858961477e565b613537919061466e565b6135419190614656565b61354b868961477e565b613555919061466e565b905060005b828110156135bc5760006135708c8c8c866131f5565b9050868361357e838b61477e565b613588919061466e565b6135929190614656565b61359c888b61477e565b6135a6919061466e565b92505080806135b4906147f7565b91505061355a565b509998505050505050505050565b6040516319b02f4960e21b81526001600160a01b03848116600483015260009182918716906366c0bd249060240160206040518083038186803b15801561361057600080fd5b505afa158015613624573d6000803e3d6000fd5b505050506040513d601f19601f8201168201806040525081019061364891906142cb565b6040516319b02f4960e21b81526001600160a01b0386811660048301529192506000918816906366c0bd249060240160206040518083038186803b15801561368f57600080fd5b505afa1580156136a3573d6000803e3d6000fd5b505050506040513d601f19601f820116820180604052508101906136c791906142cb565b60405163a95b089f60e01b815260ff808516600483015282166024820152604481018690529091506000906001600160a01b0389169063a95b089f9060640160206040518083038186803b15801561371e57600080fd5b505afa158015613732573d6000803e3d6000fd5b505050506040513d601f19601f82011682018060405250810190613756919061419d565b905080613769576000935050505061132e565b60405163095ea7b360e01b81526001600160a01b0389811660048301526024820187905288169063095ea7b390604401602060405180830381600087803b1580156137b357600080fd5b505af11580156137c7573d6000803e3d6000fd5b505050506040513d601f19601f820116820180604052508101906137eb9190614167565b506040516348b4aac360e11b815260ff80851660048301528316602482015260448101869052606481018290524260848201526001600160a01b0389169063916955869060a401602060405180830381600087803b15801561384c57600080fd5b505af1158015613860573d6000803e3d6000fd5b505050506040513d601f19601f82011682018060405250810190613884919061419d565b98975050505050505050565b6040805160028082526060820183526000928392919060208301908036833701905050905084816000815181106138c9576138c9614828565b60200260200101906001600160a01b031690816001600160a01b03168152505083816001815181106138fd576138fd614828565b6001600160a01b03928316602091820292909201015260405163d06ca61f60e01b815260009188169063d06ca61f9061393c90879086906004016145d0565b60006040518083038186803b15801561395457600080fd5b505afa158015613968573d6000803e3d6000fd5b505050506040513d6000823e601f3d908101601f1916820160405261399091908101906140ba565b9050806001815181106139a5576139a5614828565b602002602001015192505050949350505050565b60405163095ea7b360e01b81526001600160a01b038781166004830152602482018590526000919087169063095ea7b390604401602060405180830381600087803b158015613a0757600080fd5b505af1158015613a1b573d6000803e3d6000fd5b505050506040513d601f19601f82011682018060405250810190613a3f9190614167565b506040805160028082526060820183526000926020830190803683370190505090508681600081518110613a7557613a75614828565b60200260200101906001600160a01b031690816001600160a01b0316815250508581600181518110613aa957613aa9614828565b6001600160a01b0392831660209182029290920101526040516338ed173960e01b81526000918a16906338ed173990613aee908990899087908a9042906004016145e9565b600060405180830381600087803b158015613b0857600080fd5b505af1158015613b1c573d6000803e3d6000fd5b505050506040513d6000823e601f3d908101601f19168201604052613b4491908101906140ba565b905080600181518110613b5957613b59614828565b6020026020010151925050509695505050505050565b6000613b7b848661477e565b613b85848861477e565b613b8f9190614656565b83613b9a8a8a61477e565b613ba4919061477e565b613bae919061466e565b905060005b82811015613c3857600088613bc8848961477e565b613bd2919061466e565b90506000613be28e8d8f856131f5565b9050613bee818961477e565b613bf8838b61477e565b613c029190614656565b82613c0d8d8d61477e565b613c17919061477e565b613c21919061466e565b935050508080613c30906147f7565b915050613bb3565b509a9950505050505050505050565b60606000613c5683600261477e565b613c61906002614656565b67ffffffffffffffff811115613c7957613c7961483e565b6040519080825280601f01601f191660200182016040528015613ca3576020820181803683370190505b509050600360fc1b81600081518110613cbe57613cbe614828565b60200101906001600160f81b031916908160001a905350600f60fb1b81600181518110613ced57613ced614828565b60200101906001600160f81b031916908160001a9053506000613d1184600261477e565b613d1c906001614656565b90505b6001811115613d94576f181899199a1a9b1b9c1cb0b131b232b360811b85600f1660108110613d5057613d50614828565b1a60f81b828281518110613d6657613d66614828565b60200101906001600160f81b031916908160001a90535060049490941c93613d8d816147e0565b9050613d1f565b5083156131ee5760405162461bcd60e51b815260206004820181905260248201527f537472696e67733a20686578206c656e67746820696e73756666696369656e746044820152606401610711565b613dec816133ed565b6040516001600160a01b038216907fbc7cd75a20ee27fd9adebab32041f755214dbc6bffa90cc0225b39da2e5c2d3b90600090a250565b60606001600160a01b0383163b613e8b5760405162461bcd60e51b815260206004820152602660248201527f416464726573733a2064656c65676174652063616c6c20746f206e6f6e2d636f6044820152651b9d1c9858dd60d21b6064820152608401610711565b600080846001600160a01b031684604051613ea69190614332565b600060405180830381855af49150503d8060008114613ee1576040519150601f19603f3d011682016040523d82523d6000602084013e613ee6565b606091505b5091509150612b3882826040518060600160405280602781526020016148b86027913960608315613f185750816131ee565b825115613f285782518084602001fd5b8160405162461bcd60e51b81526004016107119190614403565b80516001600160701b038116811461117157600080fd5b600060208284031215613f6b57600080fd5b81356131ee81614854565b600060208284031215613f8857600080fd5b81516131ee81614854565b60008060408385031215613fa657600080fd5b8235613fb181614854565b915060208381013567ffffffffffffffff80821115613fcf57600080fd5b818601915086601f830112613fe357600080fd5b813581811115613ff557613ff561483e565b614007601f8201601f19168501614625565b9150808252878482850101111561401d57600080fd5b80848401858401376000848284010152508093505050509250929050565b6000806040838503121561404e57600080fd5b823561405981614854565b946020939093013593505050565b6000806000806080858703121561407d57600080fd5b843561408881614854565b935060208501359250604085013561409f81614854565b915060608501356140af81614869565b939692955090935050565b600060208083850312156140cd57600080fd5b825167ffffffffffffffff808211156140e557600080fd5b818501915085601f8301126140f957600080fd5b81518181111561410b5761410b61483e565b8060051b915061411c848301614625565b8181528481019084860184860187018a101561413757600080fd5b600095505b8386101561415a57805183526001959095019491860191860161413c565b5098975050505050505050565b60006020828403121561417957600080fd5b81516131ee81614869565b60006020828403121561419657600080fd5b5035919050565b6000602082840312156141af57600080fd5b5051919050565b600080604083850312156141c957600080fd5b8235915060208301356141db81614854565b809150509250929050565b6000602082840312156141f857600080fd5b81356001600160e01b0319811681146131ee57600080fd5b6000610140828403121561422357600080fd5b50919050565b60008060006060848603121561423e57600080fd5b61424784613f42565b925061425560208501613f42565b9150604084015163ffffffff8116811461426e57600080fd5b809150509250925092565b6000806040838503121561428c57600080fd5b505080516020909101519092909150565b6000806000606084860312156142b257600080fd5b8351925060208401519150604084015190509250925092565b6000602082840312156142dd57600080fd5b815160ff811681146131ee57600080fd5b600081518084526020808501945080840160005b838110156143275781516001600160a01b031687529582019590820190600101614302565b509495945050505050565b600082516143448184602087016147b4565b9190910192915050565b7f416363657373436f6e74726f6c3a206163636f756e74200000000000000000008152600083516143868160178501602088016147b4565b7001034b99036b4b9b9b4b733903937b6329607d1b60179184019182015283516143b78160288401602088016147b4565b01602801949350505050565b6001600160a01b039788168152958716602087015260408601949094526060850192909252608084015290921660a082015260c081019190915260e00190565b60208152600082518060208401526144228160408501602087016147b4565b601f01601f19169190910160400192915050565b6020808252601f908201527f5265737472696374656420746f20504f5254464f4c494f5f4d414e4147455200604082015260600190565b6020808252602c908201527f46756e6374696f6e206d7573742062652063616c6c6564207468726f7567682060408201526b19195b1959d85d1958d85b1b60a21b606082015260800190565b6020808252602c908201527f46756e6374696f6e206d7573742062652063616c6c6564207468726f7567682060408201526b6163746976652070726f787960a01b606082015260800190565b6020808252602e908201527f496e697469616c697a61626c653a20636f6e747261637420697320616c72656160408201526d191e481a5b9a5d1a585b1a5e995960921b606082015260800190565b60208082526026908201527f4c6971756964697479206d6565726b61745061697220726573657276657320746040820152656f6f206c6f7760d01b606082015260800190565b60208082526019908201527f536f6d6520746f6b656e206e6f7420636f6d70617469626c6500000000000000604082015260600190565b82815260406020820152600061132e60408301846142ee565b85815284602082015260a06040820152600061460860a08301866142ee565b6001600160a01b0394909416606083015250608001529392505050565b604051601f8201601f1916810167ffffffffffffffff8111828210171561464e5761464e61483e565b604052919050565b6000821982111561466957614669614812565b500190565b60008261468b57634e487b7160e01b600052601260045260246000fd5b500490565b600181815b808511156146cb5781600019048211156146b1576146b1614812565b808516156146be57918102915b93841c9390800290614695565b509250929050565b60006131ee60ff8416836000826146ec5750600161069c565b816146f95750600061069c565b816001811461470f576002811461471957614735565b600191505061069c565b60ff84111561472a5761472a614812565b50506001821b61069c565b5060208310610133831016604e8410600b8410161715614758575081810a61069c565b6147628383614690565b806000190482111561477657614776614812565b029392505050565b600081600019048311821515161561479857614798614812565b500290565b6000828210156147af576147af614812565b500390565b60005b838110156147cf5781810151838201526020016147b7565b838111156134ae5750506000910152565b6000816147ef576147ef614812565b506000190190565b600060001982141561480b5761480b614812565b5060010190565b634e487b7160e01b600052601160045260246000fd5b634e487b7160e01b600052603260045260246000fd5b634e487b7160e01b600052604160045260246000fd5b6001600160a01b03811681146108ac57600080fd5b80151581146108ac57600080fdfe90c2aa7471c04182221f68e80c07ab1e5946e4c63f8693e14ca40385d529f051360894a13ba1a3210667c828492db98dca3e2076cc3735a920a3ca505d382bbc416464726573733a206c6f772d6c6576656c2064656c65676174652063616c6c206661696c6564a2646970667358221220b7e49852b3a7888c7c98670cce900e07e56c92b6816063e486a26db1af7904e464736f6c63430008060033",
  "devdoc": {
    "kind": "dev",
    "methods": {
      "constructor": {
        "custom:oz-upgrades-unsafe-allow": "constructor"
      },
      "getRoleAdmin(bytes32)": {
        "details": "Returns the admin role that controls `role`. See {grantRole} and {revokeRole}. To change a role's admin, use {_setRoleAdmin}."
      },
      "grantRole(bytes32,address)": {
        "details": "Grants `role` to `account`. If `account` had not been already granted `role`, emits a {RoleGranted} event. Requirements: - the caller must have ``role``'s admin role. May emit a {RoleGranted} event."
      },
      "hasRole(bytes32,address)": {
        "details": "Returns `true` if `account` has been granted `role`."
      },
      "proxiableUUID()": {
        "details": "Implementation of the ERC1822 {proxiableUUID} function. This returns the storage slot used by the implementation. It is used to validate that the this implementation remains valid after an upgrade. IMPORTANT: A proxy pointing at a proxiable contract should not be considered proxiable itself, because this risks bricking a proxy that upgrades to it, by delegating to itself until out of gas. Thus it is critical that this function revert if invoked through a proxy. This is guaranteed by the `notDelegated` modifier."
      },
      "renounceRole(bytes32,address)": {
        "details": "Revokes `role` from the calling account. Roles are often managed via {grantRole} and {revokeRole}: this function's purpose is to provide a mechanism for accounts to lose their privileges if they are compromised (such as when a trusted device is misplaced). If the calling account had been revoked `role`, emits a {RoleRevoked} event. Requirements: - the caller must be `account`. May emit a {RoleRevoked} event."
      },
      "revokeRole(bytes32,address)": {
        "details": "Revokes `role` from `account`. If `account` had been granted `role`, emits a {RoleRevoked} event. Requirements: - the caller must have ``role``'s admin role. May emit a {RoleRevoked} event."
      },
      "supportsInterface(bytes4)": {
        "details": "See {IERC165-supportsInterface}."
      },
      "upgradeTo(address)": {
        "details": "Upgrade the implementation of the proxy to `newImplementation`. Calls {_authorizeUpgrade}. Emits an {Upgraded} event."
      },
      "upgradeToAndCall(address,bytes)": {
        "details": "Upgrade the implementation of the proxy to `newImplementation`, and subsequently execute the function call encoded in `data`. Calls {_authorizeUpgrade}. Emits an {Upgraded} event."
      }
    },
    "version": 1
  },
  "userdoc": {
    "kind": "user",
    "methods": {},
    "version": 1
  },
  "storageLayout": {
    "storage": [
      {
        "astId": 808,
        "contract": "contracts/StrategyMMFUsdcUsdt.sol:StrategyMMFUsdcUsdt",
        "label": "_initialized",
        "offset": 0,
        "slot": "0",
        "type": "t_uint8"
      },
      {
        "astId": 811,
        "contract": "contracts/StrategyMMFUsdcUsdt.sol:StrategyMMFUsdcUsdt",
        "label": "_initializing",
        "offset": 1,
        "slot": "0",
        "type": "t_bool"
      },
      {
        "astId": 1372,
        "contract": "contracts/StrategyMMFUsdcUsdt.sol:StrategyMMFUsdcUsdt",
        "label": "__gap",
        "offset": 0,
        "slot": "1",
        "type": "t_array(t_uint256)50_storage"
      },
      {
        "astId": 1702,
        "contract": "contracts/StrategyMMFUsdcUsdt.sol:StrategyMMFUsdcUsdt",
        "label": "__gap",
        "offset": 0,
        "slot": "51",
        "type": "t_array(t_uint256)50_storage"
      },
      {
        "astId": 39,
        "contract": "contracts/StrategyMMFUsdcUsdt.sol:StrategyMMFUsdcUsdt",
        "label": "_roles",
        "offset": 0,
        "slot": "101",
        "type": "t_mapping(t_bytes32,t_struct(RoleData)34_storage)"
      },
      {
        "astId": 338,
        "contract": "contracts/StrategyMMFUsdcUsdt.sol:StrategyMMFUsdcUsdt",
        "label": "__gap",
        "offset": 0,
        "slot": "102",
        "type": "t_array(t_uint256)49_storage"
      },
      {
        "astId": 790,
        "contract": "contracts/StrategyMMFUsdcUsdt.sol:StrategyMMFUsdcUsdt",
        "label": "__gap",
        "offset": 0,
        "slot": "151",
        "type": "t_array(t_uint256)50_storage"
      },
      {
        "astId": 1087,
        "contract": "contracts/StrategyMMFUsdcUsdt.sol:StrategyMMFUsdcUsdt",
        "label": "__gap",
        "offset": 0,
        "slot": "201",
        "type": "t_array(t_uint256)50_storage"
      },
      {
        "astId": 37759,
        "contract": "contracts/StrategyMMFUsdcUsdt.sol:StrategyMMFUsdcUsdt",
        "label": "portfolioManager",
        "offset": 0,
        "slot": "251",
        "type": "t_address"
      },
      {
        "astId": 38081,
        "contract": "contracts/StrategyMMFUsdcUsdt.sol:StrategyMMFUsdcUsdt",
        "label": "__gap",
        "offset": 0,
        "slot": "252",
        "type": "t_array(t_uint256)49_storage"
      },
      {
        "astId": 30765,
        "contract": "contracts/StrategyMMFUsdcUsdt.sol:StrategyMMFUsdcUsdt",
        "label": "usdcToken",
        "offset": 0,
        "slot": "301",
        "type": "t_contract(IERC20)2441"
      },
      {
        "astId": 30768,
        "contract": "contracts/StrategyMMFUsdcUsdt.sol:StrategyMMFUsdcUsdt",
        "label": "usdtToken",
        "offset": 0,
        "slot": "302",
        "type": "t_contract(IERC20)2441"
      },
      {
        "astId": 30771,
        "contract": "contracts/StrategyMMFUsdcUsdt.sol:StrategyMMFUsdcUsdt",
        "label": "mmfToken",
        "offset": 0,
        "slot": "303",
        "type": "t_contract(IERC20)2441"
      },
      {
        "astId": 30774,
        "contract": "contracts/StrategyMMFUsdcUsdt.sol:StrategyMMFUsdcUsdt",
        "label": "meerkatRouter02",
        "offset": 0,
        "slot": "304",
        "type": "t_contract(IUniswapV2Router02)15762"
      },
      {
        "astId": 30777,
        "contract": "contracts/StrategyMMFUsdcUsdt.sol:StrategyMMFUsdcUsdt",
        "label": "meerkatPair",
        "offset": 0,
        "slot": "305",
        "type": "t_contract(IUniswapV2Pair)15358"
      },
      {
        "astId": 30780,
        "contract": "contracts/StrategyMMFUsdcUsdt.sol:StrategyMMFUsdcUsdt",
        "label": "masterMeerkat",
        "offset": 0,
        "slot": "306",
        "type": "t_contract(IMasterMeerkat)12667"
      },
      {
        "astId": 30782,
        "contract": "contracts/StrategyMMFUsdcUsdt.sol:StrategyMMFUsdcUsdt",
        "label": "pid",
        "offset": 0,
        "slot": "307",
        "type": "t_uint256"
      },
      {
        "astId": 30785,
        "contract": "contracts/StrategyMMFUsdcUsdt.sol:StrategyMMFUsdcUsdt",
        "label": "synapseSwap",
        "offset": 0,
        "slot": "308",
        "type": "t_contract(ISwap)14324"
      },
      {
        "astId": 30788,
        "contract": "contracts/StrategyMMFUsdcUsdt.sol:StrategyMMFUsdcUsdt",
        "label": "oracleUsdc",
        "offset": 0,
        "slot": "309",
        "type": "t_contract(IPriceFeed)9477"
      },
      {
        "astId": 30791,
        "contract": "contracts/StrategyMMFUsdcUsdt.sol:StrategyMMFUsdcUsdt",
        "label": "oracleUsdt",
        "offset": 0,
        "slot": "310",
        "type": "t_contract(IPriceFeed)9477"
      },
      {
        "astId": 30793,
        "contract": "contracts/StrategyMMFUsdcUsdt.sol:StrategyMMFUsdcUsdt",
        "label": "usdcTokenDenominator",
        "offset": 0,
        "slot": "311",
        "type": "t_uint256"
      },
      {
        "astId": 30795,
        "contract": "contracts/StrategyMMFUsdcUsdt.sol:StrategyMMFUsdcUsdt",
        "label": "usdtTokenDenominator",
        "offset": 0,
        "slot": "312",
        "type": "t_uint256"
      }
    ],
    "types": {
      "t_address": {
        "encoding": "inplace",
        "label": "address",
        "numberOfBytes": "20"
      },
      "t_array(t_uint256)49_storage": {
        "base": "t_uint256",
        "encoding": "inplace",
        "label": "uint256[49]",
        "numberOfBytes": "1568"
      },
      "t_array(t_uint256)50_storage": {
        "base": "t_uint256",
        "encoding": "inplace",
        "label": "uint256[50]",
        "numberOfBytes": "1600"
      },
      "t_bool": {
        "encoding": "inplace",
        "label": "bool",
        "numberOfBytes": "1"
      },
      "t_bytes32": {
        "encoding": "inplace",
        "label": "bytes32",
        "numberOfBytes": "32"
      },
      "t_contract(IERC20)2441": {
        "encoding": "inplace",
        "label": "contract IERC20",
        "numberOfBytes": "20"
      },
      "t_contract(IMasterMeerkat)12667": {
        "encoding": "inplace",
        "label": "contract IMasterMeerkat",
        "numberOfBytes": "20"
      },
      "t_contract(IPriceFeed)9477": {
        "encoding": "inplace",
        "label": "contract IPriceFeed",
        "numberOfBytes": "20"
      },
      "t_contract(ISwap)14324": {
        "encoding": "inplace",
        "label": "contract ISwap",
        "numberOfBytes": "20"
      },
      "t_contract(IUniswapV2Pair)15358": {
        "encoding": "inplace",
        "label": "contract IUniswapV2Pair",
        "numberOfBytes": "20"
      },
      "t_contract(IUniswapV2Router02)15762": {
        "encoding": "inplace",
        "label": "contract IUniswapV2Router02",
        "numberOfBytes": "20"
      },
      "t_mapping(t_address,t_bool)": {
        "encoding": "mapping",
        "key": "t_address",
        "label": "mapping(address => bool)",
        "numberOfBytes": "32",
        "value": "t_bool"
      },
      "t_mapping(t_bytes32,t_struct(RoleData)34_storage)": {
        "encoding": "mapping",
        "key": "t_bytes32",
        "label": "mapping(bytes32 => struct AccessControlUpgradeable.RoleData)",
        "numberOfBytes": "32",
        "value": "t_struct(RoleData)34_storage"
      },
      "t_struct(RoleData)34_storage": {
        "encoding": "inplace",
        "label": "struct AccessControlUpgradeable.RoleData",
        "members": [
          {
            "astId": 31,
            "contract": "contracts/StrategyMMFUsdcUsdt.sol:StrategyMMFUsdcUsdt",
            "label": "members",
            "offset": 0,
            "slot": "0",
            "type": "t_mapping(t_address,t_bool)"
          },
          {
            "astId": 33,
            "contract": "contracts/StrategyMMFUsdcUsdt.sol:StrategyMMFUsdcUsdt",
            "label": "adminRole",
            "offset": 0,
            "slot": "1",
            "type": "t_bytes32"
          }
        ],
        "numberOfBytes": "64"
      },
      "t_uint256": {
        "encoding": "inplace",
        "label": "uint256",
        "numberOfBytes": "32"
      },
      "t_uint8": {
        "encoding": "inplace",
        "label": "uint8",
        "numberOfBytes": "1"
      }
    }
  }
}