{
  "address": "0xaF7800Ee99ABF99986978B0D357E5f6813aF8638",
  "abi": [
    {
      "inputs": [],
      "stateMutability": "nonpayable",
      "type": "constructor"
    },
    {
      "anonymous": false,
      "inputs": [
        {
          "indexed": false,
          "internalType": "address",
          "name": "previousAdmin",
          "type": "address"
        },
        {
          "indexed": false,
          "internalType": "address",
          "name": "newAdmin",
          "type": "address"
        }
      ],
      "name": "AdminChanged",
      "type": "event"
    },
    {
      "anonymous": false,
      "inputs": [
        {
          "indexed": false,
          "internalType": "uint256",
          "name": "healthFactor",
          "type": "uint256"
        }
      ],
      "name": "BalanceHealthFactor",
      "type": "event"
    },
    {
      "anonymous": false,
      "inputs": [
        {
          "indexed": true,
          "internalType": "address",
          "name": "beacon",
          "type": "address"
        }
      ],
      "name": "BeaconUpgraded",
      "type": "event"
    },
    {
      "anonymous": false,
      "inputs": [
        {
          "indexed": false,
          "internalType": "uint8",
          "name": "version",
          "type": "uint8"
        }
      ],
      "name": "Initialized",
      "type": "event"
    },
    {
      "anonymous": false,
      "inputs": [
        {
          "indexed": false,
          "internalType": "address",
          "name": "value",
          "type": "address"
        }
      ],
      "name": "PortfolioManagerUpdated",
      "type": "event"
    },
    {
      "anonymous": false,
      "inputs": [
        {
          "indexed": false,
          "internalType": "uint256",
          "name": "amount",
          "type": "uint256"
        }
      ],
      "name": "Reward",
      "type": "event"
    },
    {
      "anonymous": false,
      "inputs": [
        {
          "indexed": true,
          "internalType": "bytes32",
          "name": "role",
          "type": "bytes32"
        },
        {
          "indexed": true,
          "internalType": "bytes32",
          "name": "previousAdminRole",
          "type": "bytes32"
        },
        {
          "indexed": true,
          "internalType": "bytes32",
          "name": "newAdminRole",
          "type": "bytes32"
        }
      ],
      "name": "RoleAdminChanged",
      "type": "event"
    },
    {
      "anonymous": false,
      "inputs": [
        {
          "indexed": true,
          "internalType": "bytes32",
          "name": "role",
          "type": "bytes32"
        },
        {
          "indexed": true,
          "internalType": "address",
          "name": "account",
          "type": "address"
        },
        {
          "indexed": true,
          "internalType": "address",
          "name": "sender",
          "type": "address"
        }
      ],
      "name": "RoleGranted",
      "type": "event"
    },
    {
      "anonymous": false,
      "inputs": [
        {
          "indexed": true,
          "internalType": "bytes32",
          "name": "role",
          "type": "bytes32"
        },
        {
          "indexed": true,
          "internalType": "address",
          "name": "account",
          "type": "address"
        },
        {
          "indexed": true,
          "internalType": "address",
          "name": "sender",
          "type": "address"
        }
      ],
      "name": "RoleRevoked",
      "type": "event"
    },
    {
      "anonymous": false,
      "inputs": [
        {
          "indexed": false,
          "internalType": "uint256",
          "name": "amount",
          "type": "uint256"
        }
      ],
      "name": "Stake",
      "type": "event"
    },
    {
      "anonymous": false,
      "inputs": [
        {
          "indexed": false,
          "internalType": "address",
          "name": "dodoV1UsdcUsdtPool",
          "type": "address"
        },
        {
          "indexed": false,
          "internalType": "address",
          "name": "dodoV2DodoUsdtPool",
          "type": "address"
        },
        {
          "indexed": false,
          "internalType": "address",
          "name": "dodoMine",
          "type": "address"
        },
        {
          "indexed": false,
          "internalType": "address",
          "name": "dodoV1Helper",
          "type": "address"
        },
        {
          "indexed": false,
          "internalType": "address",
          "name": "dodoProxy",
          "type": "address"
        },
        {
          "indexed": false,
          "internalType": "address",
          "name": "dodoApprove",
          "type": "address"
        }
      ],
      "name": "StrategyDodoUpdatedParams",
      "type": "event"
    },
    {
      "anonymous": false,
      "inputs": [
        {
          "indexed": false,
          "internalType": "address",
          "name": "usdcToken",
          "type": "address"
        },
        {
          "indexed": false,
          "internalType": "address",
          "name": "usdtToken",
          "type": "address"
        },
        {
          "indexed": false,
          "internalType": "address",
          "name": "dodoToken",
          "type": "address"
        },
        {
          "indexed": false,
          "internalType": "address",
          "name": "usdcLPToken",
          "type": "address"
        },
        {
          "indexed": false,
          "internalType": "address",
          "name": "usdtLPToken",
          "type": "address"
        }
      ],
      "name": "StrategyDodoUpdatedTokens",
      "type": "event"
    },
    {
      "anonymous": false,
      "inputs": [
        {
          "indexed": false,
          "internalType": "uint256",
          "name": "amount",
          "type": "uint256"
        },
        {
          "indexed": false,
          "internalType": "uint256",
          "name": "amountReceived",
          "type": "uint256"
        }
      ],
      "name": "Unstake",
      "type": "event"
    },
    {
      "anonymous": false,
      "inputs": [
        {
          "indexed": true,
          "internalType": "address",
          "name": "implementation",
          "type": "address"
        }
      ],
      "name": "Upgraded",
      "type": "event"
    },
    {
      "inputs": [],
      "name": "DEFAULT_ADMIN_ROLE",
      "outputs": [
        {
          "internalType": "bytes32",
          "name": "",
          "type": "bytes32"
        }
      ],
      "stateMutability": "view",
      "type": "function"
    },
    {
      "inputs": [],
      "name": "PORTFOLIO_MANAGER",
      "outputs": [
        {
          "internalType": "bytes32",
          "name": "",
          "type": "bytes32"
        }
      ],
      "stateMutability": "view",
      "type": "function"
    },
    {
      "inputs": [],
      "name": "UPGRADER_ROLE",
      "outputs": [
        {
          "internalType": "bytes32",
          "name": "",
          "type": "bytes32"
        }
      ],
      "stateMutability": "view",
      "type": "function"
    },
    {
      "inputs": [
        {
          "internalType": "address",
          "name": "_to",
          "type": "address"
        }
      ],
      "name": "claimRewards",
      "outputs": [
        {
          "internalType": "uint256",
          "name": "",
          "type": "uint256"
        }
      ],
      "stateMutability": "nonpayable",
      "type": "function"
    },
    {
      "inputs": [],
      "name": "dodoMine",
      "outputs": [
        {
          "internalType": "contract IDODOMine",
          "name": "",
          "type": "address"
        }
      ],
      "stateMutability": "view",
      "type": "function"
    },
    {
      "inputs": [],
      "name": "dodoToken",
      "outputs": [
        {
          "internalType": "contract IERC20",
          "name": "",
          "type": "address"
        }
      ],
      "stateMutability": "view",
      "type": "function"
    },
    {
      "inputs": [],
      "name": "dodoV1UsdcUsdtPool",
      "outputs": [
        {
          "internalType": "contract IDODOV1",
          "name": "",
          "type": "address"
        }
      ],
      "stateMutability": "view",
      "type": "function"
    },
    {
      "inputs": [],
      "name": "dodoV2DodoUsdtPool",
      "outputs": [
        {
          "internalType": "contract IDODOV2",
          "name": "",
          "type": "address"
        }
      ],
      "stateMutability": "view",
      "type": "function"
    },
    {
      "inputs": [
        {
          "internalType": "bytes32",
          "name": "role",
          "type": "bytes32"
        }
      ],
      "name": "getRoleAdmin",
      "outputs": [
        {
          "internalType": "bytes32",
          "name": "",
          "type": "bytes32"
        }
      ],
      "stateMutability": "view",
      "type": "function"
    },
    {
      "inputs": [
        {
          "internalType": "bytes32",
          "name": "role",
          "type": "bytes32"
        },
        {
          "internalType": "address",
          "name": "account",
          "type": "address"
        }
      ],
      "name": "grantRole",
      "outputs": [],
      "stateMutability": "nonpayable",
      "type": "function"
    },
    {
      "inputs": [
        {
          "internalType": "bytes32",
          "name": "role",
          "type": "bytes32"
        },
        {
          "internalType": "address",
          "name": "account",
          "type": "address"
        }
      ],
      "name": "hasRole",
      "outputs": [
        {
          "internalType": "bool",
          "name": "",
          "type": "bool"
        }
      ],
      "stateMutability": "view",
      "type": "function"
    },
    {
      "inputs": [],
      "name": "healthFactorBalance",
      "outputs": [],
      "stateMutability": "nonpayable",
      "type": "function"
    },
    {
      "inputs": [],
      "name": "initialize",
      "outputs": [],
      "stateMutability": "nonpayable",
      "type": "function"
    },
    {
      "inputs": [],
      "name": "liquidationValue",
      "outputs": [
        {
          "internalType": "uint256",
          "name": "",
          "type": "uint256"
        }
      ],
      "stateMutability": "view",
      "type": "function"
    },
    {
      "inputs": [],
      "name": "netAssetValue",
      "outputs": [
        {
          "internalType": "uint256",
          "name": "",
          "type": "uint256"
        }
      ],
      "stateMutability": "view",
      "type": "function"
    },
    {
      "inputs": [],
      "name": "portfolioManager",
      "outputs": [
        {
          "internalType": "address",
          "name": "",
          "type": "address"
        }
      ],
      "stateMutability": "view",
      "type": "function"
    },
    {
      "inputs": [],
      "name": "proxiableUUID",
      "outputs": [
        {
          "internalType": "bytes32",
          "name": "",
          "type": "bytes32"
        }
      ],
      "stateMutability": "view",
      "type": "function"
    },
    {
      "inputs": [
        {
          "internalType": "bytes32",
          "name": "role",
          "type": "bytes32"
        },
        {
          "internalType": "address",
          "name": "account",
          "type": "address"
        }
      ],
      "name": "renounceRole",
      "outputs": [],
      "stateMutability": "nonpayable",
      "type": "function"
    },
    {
      "inputs": [
        {
          "internalType": "bytes32",
          "name": "role",
          "type": "bytes32"
        },
        {
          "internalType": "address",
          "name": "account",
          "type": "address"
        }
      ],
      "name": "revokeRole",
      "outputs": [],
      "stateMutability": "nonpayable",
      "type": "function"
    },
    {
      "inputs": [
        {
          "internalType": "address",
          "name": "_dodoV1UsdcUsdtPool",
          "type": "address"
        },
        {
          "internalType": "address",
          "name": "_dodoV2DodoUsdtPool",
          "type": "address"
        },
        {
          "internalType": "address",
          "name": "_dodoMine",
          "type": "address"
        },
        {
          "internalType": "address",
          "name": "_dodoV1Helper",
          "type": "address"
        },
        {
          "internalType": "address",
          "name": "_dodoProxy",
          "type": "address"
        },
        {
          "internalType": "address",
          "name": "_dodoApprove",
          "type": "address"
        }
      ],
      "name": "setParams",
      "outputs": [],
      "stateMutability": "nonpayable",
      "type": "function"
    },
    {
      "inputs": [
        {
          "internalType": "address",
          "name": "_value",
          "type": "address"
        }
      ],
      "name": "setPortfolioManager",
      "outputs": [],
      "stateMutability": "nonpayable",
      "type": "function"
    },
    {
      "inputs": [
        {
          "internalType": "address",
          "name": "_usdcToken",
          "type": "address"
        },
        {
          "internalType": "address",
          "name": "_usdtToken",
          "type": "address"
        },
        {
          "internalType": "address",
          "name": "_dodoToken",
          "type": "address"
        },
        {
          "internalType": "address",
          "name": "_usdcLPToken",
          "type": "address"
        },
        {
          "internalType": "address",
          "name": "_usdtLPToken",
          "type": "address"
        }
      ],
      "name": "setTokens",
      "outputs": [],
      "stateMutability": "nonpayable",
      "type": "function"
    },
    {
      "inputs": [
        {
          "internalType": "address",
          "name": "_asset",
          "type": "address"
        },
        {
          "internalType": "uint256",
          "name": "_amount",
          "type": "uint256"
        }
      ],
      "name": "stake",
      "outputs": [],
      "stateMutability": "nonpayable",
      "type": "function"
    },
    {
      "inputs": [
        {
          "internalType": "bytes4",
          "name": "interfaceId",
          "type": "bytes4"
        }
      ],
      "name": "supportsInterface",
      "outputs": [
        {
          "internalType": "bool",
          "name": "",
          "type": "bool"
        }
      ],
      "stateMutability": "view",
      "type": "function"
    },
    {
      "inputs": [
        {
          "internalType": "address",
          "name": "_asset",
          "type": "address"
        },
        {
          "internalType": "uint256",
          "name": "_amount",
          "type": "uint256"
        },
        {
          "internalType": "address",
          "name": "_beneficiary",
          "type": "address"
        },
        {
          "internalType": "bool",
          "name": "_targetIsZero",
          "type": "bool"
        }
      ],
      "name": "unstake",
      "outputs": [
        {
          "internalType": "uint256",
          "name": "",
          "type": "uint256"
        }
      ],
      "stateMutability": "nonpayable",
      "type": "function"
    },
    {
      "inputs": [
        {
          "internalType": "address",
          "name": "newImplementation",
          "type": "address"
        }
      ],
      "name": "upgradeTo",
      "outputs": [],
      "stateMutability": "nonpayable",
      "type": "function"
    },
    {
      "inputs": [
        {
          "internalType": "address",
          "name": "newImplementation",
          "type": "address"
        },
        {
          "internalType": "bytes",
          "name": "data",
          "type": "bytes"
        }
      ],
      "name": "upgradeToAndCall",
      "outputs": [],
      "stateMutability": "payable",
      "type": "function"
    },
    {
      "inputs": [],
      "name": "usdcLPToken",
      "outputs": [
        {
          "internalType": "contract IERC20",
          "name": "",
          "type": "address"
        }
      ],
      "stateMutability": "view",
      "type": "function"
    },
    {
      "inputs": [],
      "name": "usdcToken",
      "outputs": [
        {
          "internalType": "contract IERC20",
          "name": "",
          "type": "address"
        }
      ],
      "stateMutability": "view",
      "type": "function"
    },
    {
      "inputs": [],
      "name": "usdtLPToken",
      "outputs": [
        {
          "internalType": "contract IERC20",
          "name": "",
          "type": "address"
        }
      ],
      "stateMutability": "view",
      "type": "function"
    },
    {
      "inputs": [],
      "name": "usdtToken",
      "outputs": [
        {
          "internalType": "contract IERC20",
          "name": "",
          "type": "address"
        }
      ],
      "stateMutability": "view",
      "type": "function"
    }
  ],
  "numDeployments": 5,
  "solcInputHash": "01f30327764d4c103b0bbed558a7655f",
  "bytecode": "0x60a06040523060601b6080523480156200001857600080fd5b5060006200002760016200008e565b9050801562000040576000805461ff0019166101001790555b801562000087576000805461ff0019169055604051600181527f7f26b83ff96e1f2b6a682f133852f6798a09c465da95921460cefb38474024989060200160405180910390a15b50620001af565b60008054610100900460ff161562000127578160ff166001148015620000c75750620000c530620001a060201b620011d11760201c565b155b6200011f5760405162461bcd60e51b815260206004820152602e6024820152600080516020620035e783398151915260448201526d191e481a5b9a5d1a585b1a5e995960921b60648201526084015b60405180910390fd5b506000919050565b60005460ff808416911610620001865760405162461bcd60e51b815260206004820152602e6024820152600080516020620035e783398151915260448201526d191e481a5b9a5d1a585b1a5e995960921b606482015260840162000116565b506000805460ff191660ff92909216919091179055600190565b6001600160a01b03163b151590565b60805160601c6133fd620001ea60003960008181610861015281816108a101528181610941015281816109810152610a1001526133fd6000f3fe6080604052600436106101d85760003560e01c806375123ff911610102578063a440b21a11610095578063d547741f11610064578063d547741f14610530578063ef5cfb8c14610550578063f6f6b88114610570578063f72c0d8b1461059057600080fd5b8063a440b21a146104ae578063a7a61d05146104ce578063a98ad46c146104ef578063adc9772e1461051057600080fd5b80638400150a116100d15780638400150a1461045857806391d1485414610479578063a217fddf14610499578063a3673b38146102ed57600080fd5b806375123ff9146103eb5780637b73aa4e1461040c5780637d5f5802146104215780638129fc1c1461044357600080fd5b80632f2ff15d1161017a57806352d1902d1161014957806352d1902d146103755780635ebb8dee1461038a5780635f5d905c146103aa578063620b75df146103cb57600080fd5b80632f2ff15d1461030257806336568abe146103225780633659cfe6146103425780634f1ef2861461036257600080fd5b806311eac855116101b657806311eac8551461026d578063154e4f581461028e578063248a9ca3146102af5780632576e65a146102ed57600080fd5b806301ffc9a7146101dd57806307ab0a7e146102125780630fc55bfd1461024b575b600080fd5b3480156101e957600080fd5b506101fd6101f8366004612eee565b6105c4565b60405190151581526020015b60405180910390f35b34801561021e57600080fd5b5061013654610233906001600160a01b031681565b6040516001600160a01b039091168152602001610209565b34801561025757600080fd5b5061026b610266366004612c5f565b6105fb565b005b34801561027957600080fd5b5061013054610233906001600160a01b031681565b34801561029a57600080fd5b5061013554610233906001600160a01b031681565b3480156102bb57600080fd5b506102df6102ca366004612e90565b60009081526065602052604090206001015490565b604051908152602001610209565b3480156102f957600080fd5b506102df61079f565b34801561030e57600080fd5b5061026b61031d366004612ec2565b6107ae565b34801561032e57600080fd5b5061026b61033d366004612ec2565b6107d8565b34801561034e57600080fd5b5061026b61035d366004612c44565b610856565b61026b610370366004612d38565b610936565b34801561038157600080fd5b506102df610a03565b34801561039657600080fd5b5061026b6103a5366004612cc4565b610ab6565b3480156103b657600080fd5b5061013454610233906001600160a01b031681565b3480156103d757600080fd5b5060fb54610233906001600160a01b031681565b3480156103f757600080fd5b5061013254610233906001600160a01b031681565b34801561041857600080fd5b5061026b610c8e565b34801561042d57600080fd5b506102df60008051602061336183398151915281565b34801561044f57600080fd5b5061026b610ccf565b34801561046457600080fd5b5061013754610233906001600160a01b031681565b34801561048557600080fd5b506101fd610494366004612ec2565b610d3d565b3480156104a557600080fd5b506102df600081565b3480156104ba57600080fd5b5061026b6104c9366004612c44565b610d68565b3480156104da57600080fd5b5061013354610233906001600160a01b031681565b3480156104fb57600080fd5b5061013154610233906001600160a01b031681565b34801561051c57600080fd5b5061026b61052b366004612dfa565b610e40565b34801561053c57600080fd5b5061026b61054b366004612ec2565b610f29565b34801561055c57600080fd5b506102df61056b366004612c44565b610f4e565b34801561057c57600080fd5b506102df61058b366004612e24565b610fd2565b34801561059c57600080fd5b506102df7f189ab7a9244df0848122154315af71fe140f3db0fe014031783b0946b8c9d2e381565b60006001600160e01b03198216637965db0b60e01b14806105f557506301ffc9a760e01b6001600160e01b03198316145b92915050565b610606600033610d3d565b61062b5760405162461bcd60e51b8152600401610622906131c1565b60405180910390fd5b6001600160a01b0385166106515760405162461bcd60e51b815260040161062290613226565b6001600160a01b0384166106775760405162461bcd60e51b815260040161062290613226565b6001600160a01b03831661069d5760405162461bcd60e51b815260040161062290613226565b6001600160a01b0382166106c35760405162461bcd60e51b815260040161062290613226565b6001600160a01b0381166106e95760405162461bcd60e51b815260040161062290613226565b61013080546001600160a01b038781166001600160a01b03199283168117909355610131805488831690841681179091556101328054888416908516811790915561013380548885169086168117909155610134805494881694909516841790945560408051958652602086019290925290840152606083019190915260808201527f1eb2ec66971c47166b02af35b989cec29a89ac6ca053121f2445e524658066dc9060a00160405180910390a15050505050565b60006107a96111e0565b905090565b6000828152606560205260409020600101546107c981611430565b6107d3838361143a565b505050565b6001600160a01b03811633146108485760405162461bcd60e51b815260206004820152602f60248201527f416363657373436f6e74726f6c3a2063616e206f6e6c792072656e6f756e636560448201526e103937b632b9903337b91039b2b63360891b6064820152608401610622565b61085282826114c0565b5050565b306001600160a01b037f000000000000000000000000000000000000000000000000000000000000000016141561089f5760405162461bcd60e51b8152600401610622906130db565b7f00000000000000000000000000000000000000000000000000000000000000006001600160a01b03166108e8600080516020613381833981519152546001600160a01b031690565b6001600160a01b03161461090e5760405162461bcd60e51b815260040161062290613127565b61091781611527565b6040805160008082526020820190925261093391839190611551565b50565b306001600160a01b037f000000000000000000000000000000000000000000000000000000000000000016141561097f5760405162461bcd60e51b8152600401610622906130db565b7f00000000000000000000000000000000000000000000000000000000000000006001600160a01b03166109c8600080516020613381833981519152546001600160a01b031690565b6001600160a01b0316146109ee5760405162461bcd60e51b815260040161062290613127565b6109f782611527565b61085282826001611551565b6000306001600160a01b037f00000000000000000000000000000000000000000000000000000000000000001614610aa35760405162461bcd60e51b815260206004820152603860248201527f555550535570677261646561626c653a206d757374206e6f742062652063616c60448201527f6c6564207468726f7567682064656c656761746563616c6c00000000000000006064820152608401610622565b5060008051602061338183398151915290565b610ac1600033610d3d565b610add5760405162461bcd60e51b8152600401610622906131c1565b6001600160a01b038616610b035760405162461bcd60e51b815260040161062290613226565b6001600160a01b038516610b295760405162461bcd60e51b815260040161062290613226565b6001600160a01b038416610b4f5760405162461bcd60e51b815260040161062290613226565b6001600160a01b038316610b755760405162461bcd60e51b815260040161062290613226565b6001600160a01b038216610b9b5760405162461bcd60e51b815260040161062290613226565b6001600160a01b038116610bc15760405162461bcd60e51b815260040161062290613226565b61013580546001600160a01b038881166001600160a01b03199283168117909355610136805489831690841681179091556101378054898416908516811790915561012d8054898516908616811790915561012e8054898616908716811790915561012f8054958916959096168517909555604080519687526020870193909352858301919091526060850152608084019290925260a0830152517fbc987a95c487955e4fb493a3897aae49196bf1704fe15d64f858bc671ec8e77a9181900360c00190a1505050505050565b610ca660008051602061336183398151915233610d3d565b610cc25760405162461bcd60e51b8152600401610622906130a4565b565b60405180910390a150565b6000610cdb60016116cb565b90508015610cf3576000805461ff0019166101001790555b610cfb611753565b8015610933576000805461ff0019169055604051600181527f7f26b83ff96e1f2b6a682f133852f6798a09c465da95921460cefb384740249890602001610cc4565b60009182526065602090815260408084206001600160a01b0393909316845291905290205460ff1690565b610d73600033610d3d565b610d8f5760405162461bcd60e51b8152600401610622906131c1565b6001600160a01b038116610db55760405162461bcd60e51b815260040161062290613226565b60fb54610dda90600080516020613361833981519152906001600160a01b0316610f29565b610df2600080516020613361833981519152826107ae565b60fb80546001600160a01b0319166001600160a01b0383169081179091556040519081527ff7b449fcd5cfb7379dcd34cb69428dd9f882033b15be33d83b42d91daa28eeb790602001610cc4565b610e5860008051602061336183398151915233610d3d565b610e745760405162461bcd60e51b8152600401610622906130a4565b6040518181527f227a473b70d2f893cc7659219575c030a63b5743024fe1e0c1a680e708b1525a9060200160405180910390a16040516370a0823160e01b81523060048201526108529083906001600160a01b038216906370a082319060240160206040518083038186803b158015610eec57600080fd5b505afa158015610f00573d6000803e3d6000fd5b505050506040513d601f19601f82011682018060405250810190610f249190612ea9565b6117bc565b600082815260656020526040902060010154610f4481611430565b6107d383836114c0565b6000610f6860008051602061336183398151915233610d3d565b610f845760405162461bcd60e51b8152600401610622906130a4565b6000610f8f83611af4565b90507f3ac0594a85a20354f9dc74f33728416d19ce00d04a406c108cc2dcf2cecea13481604051610fc291815260200190565b60405180910390a190505b919050565b6000610fec60008051602061336183398151915233610d3d565b6110085760405162461bcd60e51b8152600401610622906130a4565b600082156110215761101a8685611d3c565b9050611090565b61102c868686611ee0565b9050848110156110905760405162461bcd60e51b815260206004820152602960248201527f52657475726e65642076616c7565206c657373207468616e2072657175657374604482015268195908185b5bdd5b9d60ba1b6064820152608401610622565b6040516370a0823160e01b81523060048201526000906001600160a01b038816906370a082319060240160206040518083038186803b1580156110d257600080fd5b505afa1580156110e6573d6000803e3d6000fd5b505050506040513d601f19601f8201168201806040525081019061110a9190612ea9565b60405163a9059cbb60e01b81529091506001600160a01b0388169063a9059cbb9061113b9088908590600401613058565b602060405180830381600087803b15801561115557600080fd5b505af1158015611169573d6000803e3d6000fd5b505050506040513d601f19601f8201168201806040525081019061118d9190612e73565b5060408051878152602081018390527f9045c2ac9b2026de8075f2701bbdde882cd5e830b3b1ead9a15b22f2b5b93742910160405180910390a19695505050505050565b6001600160a01b03163b151590565b61013754610133546040516319a78f5560e01b81526001600160a01b039182166004820152306024820152600092839216906319a78f559060440160206040518083038186803b15801561123357600080fd5b505afa158015611247573d6000803e3d6000fd5b505050506040513d601f19601f8201168201806040525081019061126b9190612ea9565b90508061127a57600091505090565b61013354604080516318160ddd60e01b815290516000926001600160a01b0316916318160ddd916004808301926020929190829003018186803b1580156112c057600080fd5b505afa1580156112d4573d6000803e3d6000fd5b505050506040513d601f19601f820116820180604052508101906112f89190612ea9565b9050600061013560009054906101000a90046001600160a01b03166001600160a01b031663ffa642256040518163ffffffff1660e01b8152600401604080518083038186803b15801561134a57600080fd5b505afa15801561135e573d6000803e3d6000fd5b505050506040513d601f19601f820116820180604052508101906113829190612f18565b5090506000826113928386613297565b61139c9190613275565b610130546040516370a0823160e01b815230600482015291925082916001600160a01b03909116906370a082319060240160206040518083038186803b1580156113e557600080fd5b505afa1580156113f9573d6000803e3d6000fd5b505050506040513d601f19601f8201168201806040525081019061141d9190612ea9565b611427919061325d565b94505050505090565b6109338133612270565b6114448282610d3d565b6108525760008281526065602090815260408083206001600160a01b03851684529091529020805460ff1916600117905561147c3390565b6001600160a01b0316816001600160a01b0316837f2f8788117e7eff1d82e926ec794901d17c78024a50270940304540a733656f0d60405160405180910390a45050565b6114ca8282610d3d565b156108525760008281526065602090815260408083206001600160a01b0385168085529252808320805460ff1916905551339285917ff6391f5c32d9c69d2a47ea670b442974b53935d1edc7fd64eb21e047a839171b9190a45050565b7f189ab7a9244df0848122154315af71fe140f3db0fe014031783b0946b8c9d2e361085281611430565b7f4910fdfa16fed3260ed0e7147f7cc6da11a60208b5b9406d12a635614ffd91435460ff1615611584576107d3836122d4565b826001600160a01b03166352d1902d6040518163ffffffff1660e01b815260040160206040518083038186803b1580156115bd57600080fd5b505afa9250505080156115ed575060408051601f3d908101601f191682019092526115ea91810190612ea9565b60015b6116505760405162461bcd60e51b815260206004820152602e60248201527f45524331393637557067726164653a206e657720696d706c656d656e7461746960448201526d6f6e206973206e6f74205555505360901b6064820152608401610622565b60008051602061338183398151915281146116bf5760405162461bcd60e51b815260206004820152602960248201527f45524331393637557067726164653a20756e737570706f727465642070726f786044820152681a58589b195555525160ba1b6064820152608401610622565b506107d3838383612370565b60008054610100900460ff1615611712578160ff1660011480156116ee5750303b155b61170a5760405162461bcd60e51b815260040161062290613173565b506000919050565b60005460ff8084169116106117395760405162461bcd60e51b815260040161062290613173565b506000805460ff191660ff92909216919091179055600190565b600061175f60016116cb565b90508015611777576000805461ff0019166101001790555b61177f61239b565b61178761239b565b61179260003361143a565b610cfb7f189ab7a9244df0848122154315af71fe140f3db0fe014031783b0946b8c9d2e33361143a565b610130546001600160a01b038381169116146117ea5760405162461bcd60e51b8152600401610622906131ef565b610130546040516370a0823160e01b81523060048201526000916001600160a01b0316906370a082319060240160206040518083038186803b15801561182f57600080fd5b505afa158015611843573d6000803e3d6000fd5b505050506040513d601f19601f820116820180604052508101906118679190612ea9565b610130546101355460405163095ea7b360e01b81529293506001600160a01b039182169263095ea7b3926118a19216908590600401613058565b602060405180830381600087803b1580156118bb57600080fd5b505af11580156118cf573d6000803e3d6000fd5b505050506040513d601f19601f820116820180604052508101906118f39190612e73565b506101355460405163aa06ce9b60e01b81526001600160a01b039091169063aa06ce9b906119279030908590600401613058565b602060405180830381600087803b15801561194157600080fd5b505af1158015611955573d6000803e3d6000fd5b505050506040513d601f19601f820116820180604052508101906119799190612ea9565b50610133546040516370a0823160e01b81523060048201526000916001600160a01b0316906370a082319060240160206040518083038186803b1580156119bf57600080fd5b505afa1580156119d3573d6000803e3d6000fd5b505050506040513d601f19601f820116820180604052508101906119f79190612ea9565b610133546101375460405163095ea7b360e01b81529293506001600160a01b039182169263095ea7b392611a319216908590600401613058565b602060405180830381600087803b158015611a4b57600080fd5b505af1158015611a5f573d6000803e3d6000fd5b505050506040513d601f19601f82011682018060405250810190611a839190612e73565b5061013754610133546040516311f9fbc960e21b81526001600160a01b03928316926347e7ef2492611abc929116908590600401613058565b600060405180830381600087803b158015611ad657600080fd5b505af1158015611aea573d6000803e3d6000fd5b5050505050505050565b610137546040805163d1058e5960e01b815290516000926001600160a01b03169163d1058e59916004808301928692919082900301818387803b158015611b3a57600080fd5b505af1158015611b4e573d6000803e3d6000fd5b5050610132546040516370a0823160e01b8152306004820152600093506001600160a01b0390911691506370a082319060240160206040518083038186803b158015611b9957600080fd5b505afa158015611bad573d6000803e3d6000fd5b505050506040513d601f19601f82011682018060405250810190611bd19190612ea9565b905080611be15750600092915050565b610136546101325461013154600092611c0e926001600160a01b0391821692908216911685600186612406565b610135546101315461013054929350600092611c3d926001600160a01b039081169281169116856001806126d3565b610130546040516370a0823160e01b81523060048201529192506001600160a01b03169063a9059cbb90879083906370a082319060240160206040518083038186803b158015611c8c57600080fd5b505afa158015611ca0573d6000803e3d6000fd5b505050506040513d601f19601f82011682018060405250810190611cc49190612ea9565b6040518363ffffffff1660e01b8152600401611ce1929190613058565b602060405180830381600087803b158015611cfb57600080fd5b505af1158015611d0f573d6000803e3d6000fd5b505050506040513d601f19601f82011682018060405250810190611d339190612e73565b50949350505050565b610130546000906001600160a01b03848116911614611d6d5760405162461bcd60e51b8152600401610622906131ef565b6101375461013354604051630fa09e6360e41b81526001600160a01b03918216600482015291169063fa09e63090602401600060405180830381600087803b158015611db857600080fd5b505af1158015611dcc573d6000803e3d6000fd5b50505050600061013560009054906101000a90046001600160a01b03166001600160a01b031663d47eaa376040518163ffffffff1660e01b8152600401602060405180830381600087803b158015611e2357600080fd5b505af1158015611e37573d6000803e3d6000fd5b505050506040513d601f19601f82011682018060405250810190611e5b9190612ea9565b610130546040516370a0823160e01b81523060048201529192506001600160a01b0316906370a082319060240160206040518083038186803b158015611ea057600080fd5b505afa158015611eb4573d6000803e3d6000fd5b505050506040513d601f19601f82011682018060405250810190611ed89190612ea9565b949350505050565b610130546000906001600160a01b03858116911614611f115760405162461bcd60e51b8152600401610622906131ef565b610130546040516370a0823160e01b81523060048201526000916001600160a01b0316906370a082319060240160206040518083038186803b158015611f5657600080fd5b505afa158015611f6a573d6000803e3d6000fd5b505050506040513d601f19601f82011682018060405250810190611f8e9190612ea9565b611f9890856132b6565b611fa390600561325d565b9050600061013360009054906101000a90046001600160a01b03166001600160a01b03166318160ddd6040518163ffffffff1660e01b815260040160206040518083038186803b158015611ff657600080fd5b505afa15801561200a573d6000803e3d6000fd5b505050506040513d601f19601f8201168201806040525081019061202e9190612ea9565b9050600061013560009054906101000a90046001600160a01b03166001600160a01b031663ffa642256040518163ffffffff1660e01b8152600401604080518083038186803b15801561208057600080fd5b505afa158015612094573d6000803e3d6000fd5b505050506040513d601f19601f820116820180604052508101906120b89190612f18565b5090506000816120c88486613297565b6120d29190613275565b90506127106120e382612711613297565b6120ed9190613275565b610137546101335460405163f3fef3a360e01b81529293506001600160a01b039182169263f3fef3a3926121279216908590600401613058565b600060405180830381600087803b15801561214157600080fd5b505af1158015612155573d6000803e3d6000fd5b50505050600061013560009054906101000a90046001600160a01b03166001600160a01b031663d47eaa376040518163ffffffff1660e01b8152600401602060405180830381600087803b1580156121ac57600080fd5b505af11580156121c0573d6000803e3d6000fd5b505050506040513d601f19601f820116820180604052508101906121e49190612ea9565b610130546040516370a0823160e01b81523060048201529192506001600160a01b0316906370a082319060240160206040518083038186803b15801561222957600080fd5b505afa15801561223d573d6000803e3d6000fd5b505050506040513d601f19601f820116820180604052508101906122619190612ea9565b955050505050505b9392505050565b61227a8282610d3d565b61085257612292816001600160a01b03166014612924565b61229d836020612924565b6040516020016122ae929190612f58565b60408051601f198184030181529082905262461bcd60e51b825261062291600401613071565b6001600160a01b0381163b6123415760405162461bcd60e51b815260206004820152602d60248201527f455243313936373a206e657720696d706c656d656e746174696f6e206973206e60448201526c1bdd08184818dbdb9d1c9858dd609a1b6064820152608401610622565b60008051602061338183398151915280546001600160a01b0319166001600160a01b0392909216919091179055565b61237983612ac0565b6000825111806123865750805b156107d3576123958383612b00565b50505050565b600054610100900460ff16610cc25760405162461bcd60e51b815260206004820152602b60248201527f496e697469616c697a61626c653a20636f6e7472616374206973206e6f74206960448201526a6e697469616c697a696e6760a81b6064820152608401610622565b600080826124b957604051633cd0243b60e11b81526000906001600160a01b038a16906379a048769061243f9030908a90600401613058565b604080518083038186803b15801561245657600080fd5b505afa15801561246a573d6000803e3d6000fd5b505050506040513d601f19601f8201168201806040525081019061248e9190612f18565b509050606461249d86826132b6565b6124a79083613297565b6124b19190613275565b915050612560565b6040516366410a2160e01b81526000906001600160a01b038a16906366410a21906124ea9030908a90600401613058565b604080518083038186803b15801561250157600080fd5b505afa158015612515573d6000803e3d6000fd5b505050506040513d601f19601f820116820180604052508101906125399190612f18565b509050606461254886826132b6565b6125529083613297565b61255c9190613275565b9150505b60408051600180825281830190925260009160208083019080368337019050509050888160008151811061259657612596613326565b6001600160a01b03928316602091820292909201015261012f5460405163095ea7b360e01b81528a83169263095ea7b3926125d8929116908a90600401613058565b602060405180830381600087803b1580156125f257600080fd5b505af1158015612606573d6000803e3d6000fd5b505050506040513d601f19601f8201168201806040525081019061262a9190612e73565b5061012e546001600160a01b031663f87dc1b789898986868a60006126514261025861325d565b6040518963ffffffff1660e01b8152600401612674989796959493929190612fcd565b602060405180830381600087803b15801561268e57600080fd5b505af11580156126a2573d6000803e3d6000fd5b505050506040513d601f19601f820116820180604052508101906126c69190612ea9565b9998505050505050505050565b600080826127895761012d54604051631de9507f60e31b81526000916001600160a01b03169063ef4a83f89061270f908c908a90600401613058565b60206040518083038186803b15801561272757600080fd5b505afa15801561273b573d6000803e3d6000fd5b505050506040513d601f19601f8201168201806040525081019061275f9190612ea9565b9050606461276d86826132b6565b6127779083613297565b6127819190613275565b915050612833565b61012d5460405163ca19ebd960e01b81526000916001600160a01b03169063ca19ebd9906127bd908c908a90600401613058565b60206040518083038186803b1580156127d557600080fd5b505afa1580156127e9573d6000803e3d6000fd5b505050506040513d601f19601f8201168201806040525081019061280d9190612ea9565b9050606461281b86826132b6565b6128259083613297565b61282f9190613275565b9150505b60408051600180825281830190925260009160208083019080368337019050509050888160008151811061286957612869613326565b6001600160a01b03928316602091820292909201015261012f5460405163095ea7b360e01b81528a83169263095ea7b3926128ab929116908a90600401613058565b602060405180830381600087803b1580156128c557600080fd5b505af11580156128d9573d6000803e3d6000fd5b505050506040513d601f19601f820116820180604052508101906128fd9190612e73565b5061012e546001600160a01b0316630dd4ebd989898986868a60006126514261025861325d565b60606000612933836002613297565b61293e90600261325d565b67ffffffffffffffff8111156129565761295661333c565b6040519080825280601f01601f191660200182016040528015612980576020820181803683370190505b509050600360fc1b8160008151811061299b5761299b613326565b60200101906001600160f81b031916908160001a905350600f60fb1b816001815181106129ca576129ca613326565b60200101906001600160f81b031916908160001a90535060006129ee846002613297565b6129f990600161325d565b90505b6001811115612a71576f181899199a1a9b1b9c1cb0b131b232b360811b85600f1660108110612a2d57612a2d613326565b1a60f81b828281518110612a4357612a43613326565b60200101906001600160f81b031916908160001a90535060049490941c93612a6a816132f9565b90506129fc565b5083156122695760405162461bcd60e51b815260206004820181905260248201527f537472696e67733a20686578206c656e67746820696e73756666696369656e746044820152606401610622565b612ac9816122d4565b6040516001600160a01b038216907fbc7cd75a20ee27fd9adebab32041f755214dbc6bffa90cc0225b39da2e5c2d3b90600090a250565b60606001600160a01b0383163b612b685760405162461bcd60e51b815260206004820152602660248201527f416464726573733a2064656c65676174652063616c6c20746f206e6f6e2d636f6044820152651b9d1c9858dd60d21b6064820152608401610622565b600080846001600160a01b031684604051612b839190612f3c565b600060405180830381855af49150503d8060008114612bbe576040519150601f19603f3d011682016040523d82523d6000602084013e612bc3565b606091505b5091509150612beb82826040518060600160405280602781526020016133a160279139612bf4565b95945050505050565b60608315612c03575081612269565b825115612c135782518084602001fd5b8160405162461bcd60e51b81526004016106229190613071565b80356001600160a01b0381168114610fcd57600080fd5b600060208284031215612c5657600080fd5b61226982612c2d565b600080600080600060a08688031215612c7757600080fd5b612c8086612c2d565b9450612c8e60208701612c2d565b9350612c9c60408701612c2d565b9250612caa60608701612c2d565b9150612cb860808701612c2d565b90509295509295909350565b60008060008060008060c08789031215612cdd57600080fd5b612ce687612c2d565b9550612cf460208801612c2d565b9450612d0260408801612c2d565b9350612d1060608801612c2d565b9250612d1e60808801612c2d565b9150612d2c60a08801612c2d565b90509295509295509295565b60008060408385031215612d4b57600080fd5b612d5483612c2d565b9150602083013567ffffffffffffffff80821115612d7157600080fd5b818501915085601f830112612d8557600080fd5b813581811115612d9757612d9761333c565b604051601f8201601f19908116603f01168101908382118183101715612dbf57612dbf61333c565b81604052828152886020848701011115612dd857600080fd5b8260208601602083013760006020848301015280955050505050509250929050565b60008060408385031215612e0d57600080fd5b612e1683612c2d565b946020939093013593505050565b60008060008060808587031215612e3a57600080fd5b612e4385612c2d565b935060208501359250612e5860408601612c2d565b91506060850135612e6881613352565b939692955090935050565b600060208284031215612e8557600080fd5b815161226981613352565b600060208284031215612ea257600080fd5b5035919050565b600060208284031215612ebb57600080fd5b5051919050565b60008060408385031215612ed557600080fd5b82359150612ee560208401612c2d565b90509250929050565b600060208284031215612f0057600080fd5b81356001600160e01b03198116811461226957600080fd5b60008060408385031215612f2b57600080fd5b505080516020909101519092909150565b60008251612f4e8184602087016132cd565b9190910192915050565b7f416363657373436f6e74726f6c3a206163636f756e7420000000000000000000815260008351612f908160178501602088016132cd565b7001034b99036b4b9b9b4b733903937b6329607d1b6017918401918201528351612fc18160288401602088016132cd565b01602801949350505050565b6001600160a01b038981168252888116602080840191909152604083018990526060830188905261010060808401819052875190840181905260009261012085019289810192855b81811015613033578451841686529482019493820193600101613015565b505050505060a08301959095525091151560c083015260e09091015295945050505050565b6001600160a01b03929092168252602082015260400190565b60208152600082518060208401526130908160408501602087016132cd565b601f01601f19169190910160400192915050565b6020808252601f908201527f5265737472696374656420746f20504f5254464f4c494f5f4d414e4147455200604082015260600190565b6020808252602c908201527f46756e6374696f6e206d7573742062652063616c6c6564207468726f7567682060408201526b19195b1959d85d1958d85b1b60a21b606082015260800190565b6020808252602c908201527f46756e6374696f6e206d7573742062652063616c6c6564207468726f7567682060408201526b6163746976652070726f787960a01b606082015260800190565b6020808252602e908201527f496e697469616c697a61626c653a20636f6e747261637420697320616c72656160408201526d191e481a5b9a5d1a585b1a5e995960921b606082015260800190565b6020808252601490820152735265737472696374656420746f2061646d696e7360601b604082015260600190565b60208082526019908201527f536f6d6520746f6b656e206e6f7420636f6d70617469626c6500000000000000604082015260600190565b60208082526018908201527f5a65726f2061646472657373206e6f7420616c6c6f7765640000000000000000604082015260600190565b6000821982111561327057613270613310565b500190565b60008261329257634e487b7160e01b600052601260045260246000fd5b500490565b60008160001904831182151516156132b1576132b1613310565b500290565b6000828210156132c8576132c8613310565b500390565b60005b838110156132e85781810151838201526020016132d0565b838111156123955750506000910152565b60008161330857613308613310565b506000190190565b634e487b7160e01b600052601160045260246000fd5b634e487b7160e01b600052603260045260246000fd5b634e487b7160e01b600052604160045260246000fd5b801515811461093357600080fdfe90c2aa7471c04182221f68e80c07ab1e5946e4c63f8693e14ca40385d529f051360894a13ba1a3210667c828492db98dca3e2076cc3735a920a3ca505d382bbc416464726573733a206c6f772d6c6576656c2064656c65676174652063616c6c206661696c6564a2646970667358221220e47dfd7260ed5fa6f6dc42b9a713a819a93dde135e8854897e264b36c58c706264736f6c63430008060033496e697469616c697a61626c653a20636f6e747261637420697320616c726561",
  "devdoc": {
    "kind": "dev",
    "methods": {
      "constructor": {
        "custom:oz-upgrades-unsafe-allow": "constructor"
      },
      "getRoleAdmin(bytes32)": {
        "details": "Returns the admin role that controls `role`. See {grantRole} and {revokeRole}. To change a role's admin, use {_setRoleAdmin}."
      },
      "grantRole(bytes32,address)": {
        "details": "Grants `role` to `account`. If `account` had not been already granted `role`, emits a {RoleGranted} event. Requirements: - the caller must have ``role``'s admin role."
      },
      "hasRole(bytes32,address)": {
        "details": "Returns `true` if `account` has been granted `role`."
      },
      "proxiableUUID()": {
        "details": "Implementation of the ERC1822 {proxiableUUID} function. This returns the storage slot used by the implementation. It is used to validate that the this implementation remains valid after an upgrade. IMPORTANT: A proxy pointing at a proxiable contract should not be considered proxiable itself, because this risks bricking a proxy that upgrades to it, by delegating to itself until out of gas. Thus it is critical that this function revert if invoked through a proxy. This is guaranteed by the `notDelegated` modifier."
      },
      "renounceRole(bytes32,address)": {
        "details": "Revokes `role` from the calling account. Roles are often managed via {grantRole} and {revokeRole}: this function's purpose is to provide a mechanism for accounts to lose their privileges if they are compromised (such as when a trusted device is misplaced). If the calling account had been revoked `role`, emits a {RoleRevoked} event. Requirements: - the caller must be `account`."
      },
      "revokeRole(bytes32,address)": {
        "details": "Revokes `role` from `account`. If `account` had been granted `role`, emits a {RoleRevoked} event. Requirements: - the caller must have ``role``'s admin role."
      },
      "supportsInterface(bytes4)": {
        "details": "See {IERC165-supportsInterface}."
      },
      "upgradeTo(address)": {
        "details": "Upgrade the implementation of the proxy to `newImplementation`. Calls {_authorizeUpgrade}. Emits an {Upgraded} event."
      },
      "upgradeToAndCall(address,bytes)": {
        "details": "Upgrade the implementation of the proxy to `newImplementation`, and subsequently execute the function call encoded in `data`. Calls {_authorizeUpgrade}. Emits an {Upgraded} event."
      }
    },
    "version": 1
  },
  "userdoc": {
    "kind": "user",
    "methods": {},
    "version": 1
  },
  "storageLayout": {
    "storage": [
      {
        "astId": 808,
        "contract": "contracts/StrategyDodoUsdc.sol:StrategyDodoUsdc",
        "label": "_initialized",
        "offset": 0,
        "slot": "0",
        "type": "t_uint8"
      },
      {
        "astId": 811,
        "contract": "contracts/StrategyDodoUsdc.sol:StrategyDodoUsdc",
        "label": "_initializing",
        "offset": 1,
        "slot": "0",
        "type": "t_bool"
      },
      {
        "astId": 1363,
        "contract": "contracts/StrategyDodoUsdc.sol:StrategyDodoUsdc",
        "label": "__gap",
        "offset": 0,
        "slot": "1",
        "type": "t_array(t_uint256)50_storage"
      },
      {
        "astId": 1670,
        "contract": "contracts/StrategyDodoUsdc.sol:StrategyDodoUsdc",
        "label": "__gap",
        "offset": 0,
        "slot": "51",
        "type": "t_array(t_uint256)50_storage"
      },
      {
        "astId": 39,
        "contract": "contracts/StrategyDodoUsdc.sol:StrategyDodoUsdc",
        "label": "_roles",
        "offset": 0,
        "slot": "101",
        "type": "t_mapping(t_bytes32,t_struct(RoleData)34_storage)"
      },
      {
        "astId": 338,
        "contract": "contracts/StrategyDodoUsdc.sol:StrategyDodoUsdc",
        "label": "__gap",
        "offset": 0,
        "slot": "102",
        "type": "t_array(t_uint256)49_storage"
      },
      {
        "astId": 790,
        "contract": "contracts/StrategyDodoUsdc.sol:StrategyDodoUsdc",
        "label": "__gap",
        "offset": 0,
        "slot": "151",
        "type": "t_array(t_uint256)50_storage"
      },
      {
        "astId": 1078,
        "contract": "contracts/StrategyDodoUsdc.sol:StrategyDodoUsdc",
        "label": "__gap",
        "offset": 0,
        "slot": "201",
        "type": "t_array(t_uint256)50_storage"
      },
      {
        "astId": 25259,
        "contract": "contracts/StrategyDodoUsdc.sol:StrategyDodoUsdc",
        "label": "portfolioManager",
        "offset": 0,
        "slot": "251",
        "type": "t_address"
      },
      {
        "astId": 25566,
        "contract": "contracts/StrategyDodoUsdc.sol:StrategyDodoUsdc",
        "label": "__gap",
        "offset": 0,
        "slot": "252",
        "type": "t_array(t_uint256)49_storage"
      },
      {
        "astId": 26378,
        "contract": "contracts/StrategyDodoUsdc.sol:StrategyDodoUsdc",
        "label": "dodoV1Helper",
        "offset": 0,
        "slot": "301",
        "type": "t_contract(IDODOV1Helper)21777"
      },
      {
        "astId": 26381,
        "contract": "contracts/StrategyDodoUsdc.sol:StrategyDodoUsdc",
        "label": "dodoProxy",
        "offset": 0,
        "slot": "302",
        "type": "t_contract(IDODOProxy)21617"
      },
      {
        "astId": 26383,
        "contract": "contracts/StrategyDodoUsdc.sol:StrategyDodoUsdc",
        "label": "dodoApprove",
        "offset": 0,
        "slot": "303",
        "type": "t_address"
      },
      {
        "astId": 12071,
        "contract": "contracts/StrategyDodoUsdc.sol:StrategyDodoUsdc",
        "label": "usdcToken",
        "offset": 0,
        "slot": "304",
        "type": "t_contract(IERC20)1823"
      },
      {
        "astId": 12074,
        "contract": "contracts/StrategyDodoUsdc.sol:StrategyDodoUsdc",
        "label": "usdtToken",
        "offset": 0,
        "slot": "305",
        "type": "t_contract(IERC20)1823"
      },
      {
        "astId": 12077,
        "contract": "contracts/StrategyDodoUsdc.sol:StrategyDodoUsdc",
        "label": "dodoToken",
        "offset": 0,
        "slot": "306",
        "type": "t_contract(IERC20)1823"
      },
      {
        "astId": 12080,
        "contract": "contracts/StrategyDodoUsdc.sol:StrategyDodoUsdc",
        "label": "usdcLPToken",
        "offset": 0,
        "slot": "307",
        "type": "t_contract(IERC20)1823"
      },
      {
        "astId": 12083,
        "contract": "contracts/StrategyDodoUsdc.sol:StrategyDodoUsdc",
        "label": "usdtLPToken",
        "offset": 0,
        "slot": "308",
        "type": "t_contract(IERC20)1823"
      },
      {
        "astId": 12086,
        "contract": "contracts/StrategyDodoUsdc.sol:StrategyDodoUsdc",
        "label": "dodoV1UsdcUsdtPool",
        "offset": 0,
        "slot": "309",
        "type": "t_contract(IDODOV1)21756"
      },
      {
        "astId": 12089,
        "contract": "contracts/StrategyDodoUsdc.sol:StrategyDodoUsdc",
        "label": "dodoV2DodoUsdtPool",
        "offset": 0,
        "slot": "310",
        "type": "t_contract(IDODOV2)21802"
      },
      {
        "astId": 12092,
        "contract": "contracts/StrategyDodoUsdc.sol:StrategyDodoUsdc",
        "label": "dodoMine",
        "offset": 0,
        "slot": "311",
        "type": "t_contract(IDODOMine)21570"
      }
    ],
    "types": {
      "t_address": {
        "encoding": "inplace",
        "label": "address",
        "numberOfBytes": "20"
      },
      "t_array(t_uint256)49_storage": {
        "base": "t_uint256",
        "encoding": "inplace",
        "label": "uint256[49]",
        "numberOfBytes": "1568"
      },
      "t_array(t_uint256)50_storage": {
        "base": "t_uint256",
        "encoding": "inplace",
        "label": "uint256[50]",
        "numberOfBytes": "1600"
      },
      "t_bool": {
        "encoding": "inplace",
        "label": "bool",
        "numberOfBytes": "1"
      },
      "t_bytes32": {
        "encoding": "inplace",
        "label": "bytes32",
        "numberOfBytes": "32"
      },
      "t_contract(IDODOMine)21570": {
        "encoding": "inplace",
        "label": "contract IDODOMine",
        "numberOfBytes": "20"
      },
      "t_contract(IDODOProxy)21617": {
        "encoding": "inplace",
        "label": "contract IDODOProxy",
        "numberOfBytes": "20"
      },
      "t_contract(IDODOV1)21756": {
        "encoding": "inplace",
        "label": "contract IDODOV1",
        "numberOfBytes": "20"
      },
      "t_contract(IDODOV1Helper)21777": {
        "encoding": "inplace",
        "label": "contract IDODOV1Helper",
        "numberOfBytes": "20"
      },
      "t_contract(IDODOV2)21802": {
        "encoding": "inplace",
        "label": "contract IDODOV2",
        "numberOfBytes": "20"
      },
      "t_contract(IERC20)1823": {
        "encoding": "inplace",
        "label": "contract IERC20",
        "numberOfBytes": "20"
      },
      "t_mapping(t_address,t_bool)": {
        "encoding": "mapping",
        "key": "t_address",
        "label": "mapping(address => bool)",
        "numberOfBytes": "32",
        "value": "t_bool"
      },
      "t_mapping(t_bytes32,t_struct(RoleData)34_storage)": {
        "encoding": "mapping",
        "key": "t_bytes32",
        "label": "mapping(bytes32 => struct AccessControlUpgradeable.RoleData)",
        "numberOfBytes": "32",
        "value": "t_struct(RoleData)34_storage"
      },
      "t_struct(RoleData)34_storage": {
        "encoding": "inplace",
        "label": "struct AccessControlUpgradeable.RoleData",
        "members": [
          {
            "astId": 31,
            "contract": "contracts/StrategyDodoUsdc.sol:StrategyDodoUsdc",
            "label": "members",
            "offset": 0,
            "slot": "0",
            "type": "t_mapping(t_address,t_bool)"
          },
          {
            "astId": 33,
            "contract": "contracts/StrategyDodoUsdc.sol:StrategyDodoUsdc",
            "label": "adminRole",
            "offset": 0,
            "slot": "1",
            "type": "t_bytes32"
          }
        ],
        "numberOfBytes": "64"
      },
      "t_uint256": {
        "encoding": "inplace",
        "label": "uint256",
        "numberOfBytes": "32"
      },
      "t_uint8": {
        "encoding": "inplace",
        "label": "uint8",
        "numberOfBytes": "1"
      }
    }
  }
}