{
  "address": "0xeF7913b8EBD17a725D684bf86DcAB1e9b1dB44bE",
  "abi": [
    {
      "inputs": [],
      "stateMutability": "nonpayable",
      "type": "constructor"
    },
    {
      "anonymous": false,
      "inputs": [
        {
          "indexed": false,
          "internalType": "address",
          "name": "previousAdmin",
          "type": "address"
        },
        {
          "indexed": false,
          "internalType": "address",
          "name": "newAdmin",
          "type": "address"
        }
      ],
      "name": "AdminChanged",
      "type": "event"
    },
    {
      "anonymous": false,
      "inputs": [
        {
          "indexed": false,
          "internalType": "uint256",
          "name": "healthFactor",
          "type": "uint256"
        }
      ],
      "name": "BalanceHealthFactor",
      "type": "event"
    },
    {
      "anonymous": false,
      "inputs": [
        {
          "indexed": true,
          "internalType": "address",
          "name": "beacon",
          "type": "address"
        }
      ],
      "name": "BeaconUpgraded",
      "type": "event"
    },
    {
      "anonymous": false,
      "inputs": [
        {
          "indexed": false,
          "internalType": "uint8",
          "name": "version",
          "type": "uint8"
        }
      ],
      "name": "Initialized",
      "type": "event"
    },
    {
      "anonymous": false,
      "inputs": [
        {
          "indexed": false,
          "internalType": "address",
          "name": "value",
          "type": "address"
        }
      ],
      "name": "PortfolioManagerUpdated",
      "type": "event"
    },
    {
      "anonymous": false,
      "inputs": [
        {
          "indexed": false,
          "internalType": "uint256",
          "name": "amount",
          "type": "uint256"
        }
      ],
      "name": "Reward",
      "type": "event"
    },
    {
      "anonymous": false,
      "inputs": [
        {
          "indexed": true,
          "internalType": "bytes32",
          "name": "role",
          "type": "bytes32"
        },
        {
          "indexed": true,
          "internalType": "bytes32",
          "name": "previousAdminRole",
          "type": "bytes32"
        },
        {
          "indexed": true,
          "internalType": "bytes32",
          "name": "newAdminRole",
          "type": "bytes32"
        }
      ],
      "name": "RoleAdminChanged",
      "type": "event"
    },
    {
      "anonymous": false,
      "inputs": [
        {
          "indexed": true,
          "internalType": "bytes32",
          "name": "role",
          "type": "bytes32"
        },
        {
          "indexed": true,
          "internalType": "address",
          "name": "account",
          "type": "address"
        },
        {
          "indexed": true,
          "internalType": "address",
          "name": "sender",
          "type": "address"
        }
      ],
      "name": "RoleGranted",
      "type": "event"
    },
    {
      "anonymous": false,
      "inputs": [
        {
          "indexed": true,
          "internalType": "bytes32",
          "name": "role",
          "type": "bytes32"
        },
        {
          "indexed": true,
          "internalType": "address",
          "name": "account",
          "type": "address"
        },
        {
          "indexed": true,
          "internalType": "address",
          "name": "sender",
          "type": "address"
        }
      ],
      "name": "RoleRevoked",
      "type": "event"
    },
    {
      "anonymous": false,
      "inputs": [
        {
          "indexed": false,
          "internalType": "uint256",
          "name": "healthFactor",
          "type": "uint256"
        }
      ],
      "name": "SetHealthFactor",
      "type": "event"
    },
    {
      "anonymous": false,
      "inputs": [
        {
          "indexed": false,
          "internalType": "uint256",
          "name": "amount",
          "type": "uint256"
        }
      ],
      "name": "Stake",
      "type": "event"
    },
    {
      "anonymous": false,
      "inputs": [],
      "name": "StrategyUpdatedParams",
      "type": "event"
    },
    {
      "anonymous": false,
      "inputs": [
        {
          "indexed": false,
          "internalType": "uint256",
          "name": "amount",
          "type": "uint256"
        },
        {
          "indexed": false,
          "internalType": "uint256",
          "name": "amountReceived",
          "type": "uint256"
        }
      ],
      "name": "Unstake",
      "type": "event"
    },
    {
      "anonymous": false,
      "inputs": [
        {
          "indexed": true,
          "internalType": "address",
          "name": "implementation",
          "type": "address"
        }
      ],
      "name": "Upgraded",
      "type": "event"
    },
    {
      "inputs": [],
      "name": "DEFAULT_ADMIN_ROLE",
      "outputs": [
        {
          "internalType": "bytes32",
          "name": "",
          "type": "bytes32"
        }
      ],
      "stateMutability": "view",
      "type": "function"
    },
    {
      "inputs": [],
      "name": "PORTFOLIO_MANAGER",
      "outputs": [
        {
          "internalType": "bytes32",
          "name": "",
          "type": "bytes32"
        }
      ],
      "stateMutability": "view",
      "type": "function"
    },
    {
      "inputs": [],
      "name": "UPGRADER_ROLE",
      "outputs": [
        {
          "internalType": "bytes32",
          "name": "",
          "type": "bytes32"
        }
      ],
      "stateMutability": "view",
      "type": "function"
    },
    {
      "inputs": [],
      "name": "basePositionManager",
      "outputs": [
        {
          "internalType": "contract IBasePositionManager",
          "name": "",
          "type": "address"
        }
      ],
      "stateMutability": "view",
      "type": "function"
    },
    {
      "inputs": [
        {
          "internalType": "address",
          "name": "_to",
          "type": "address"
        }
      ],
      "name": "claimRewards",
      "outputs": [
        {
          "internalType": "uint256",
          "name": "",
          "type": "uint256"
        }
      ],
      "stateMutability": "nonpayable",
      "type": "function"
    },
    {
      "inputs": [],
      "name": "elasticLM",
      "outputs": [
        {
          "internalType": "contract IKyberSwapElasticLM",
          "name": "",
          "type": "address"
        }
      ],
      "stateMutability": "view",
      "type": "function"
    },
    {
      "inputs": [
        {
          "internalType": "bytes32",
          "name": "role",
          "type": "bytes32"
        }
      ],
      "name": "getRoleAdmin",
      "outputs": [
        {
          "internalType": "bytes32",
          "name": "",
          "type": "bytes32"
        }
      ],
      "stateMutability": "view",
      "type": "function"
    },
    {
      "inputs": [
        {
          "internalType": "bytes32",
          "name": "role",
          "type": "bytes32"
        },
        {
          "internalType": "address",
          "name": "account",
          "type": "address"
        }
      ],
      "name": "grantRole",
      "outputs": [],
      "stateMutability": "nonpayable",
      "type": "function"
    },
    {
      "inputs": [
        {
          "internalType": "bytes32",
          "name": "role",
          "type": "bytes32"
        },
        {
          "internalType": "address",
          "name": "account",
          "type": "address"
        }
      ],
      "name": "hasRole",
      "outputs": [
        {
          "internalType": "bool",
          "name": "",
          "type": "bool"
        }
      ],
      "stateMutability": "view",
      "type": "function"
    },
    {
      "inputs": [],
      "name": "healthFactorBalance",
      "outputs": [],
      "stateMutability": "nonpayable",
      "type": "function"
    },
    {
      "inputs": [],
      "name": "initialize",
      "outputs": [],
      "stateMutability": "nonpayable",
      "type": "function"
    },
    {
      "inputs": [],
      "name": "kncToken",
      "outputs": [
        {
          "internalType": "contract IERC20",
          "name": "",
          "type": "address"
        }
      ],
      "stateMutability": "view",
      "type": "function"
    },
    {
      "inputs": [],
      "name": "liquidationValue",
      "outputs": [
        {
          "internalType": "uint256",
          "name": "",
          "type": "uint256"
        }
      ],
      "stateMutability": "view",
      "type": "function"
    },
    {
      "inputs": [],
      "name": "netAssetValue",
      "outputs": [
        {
          "internalType": "uint256",
          "name": "",
          "type": "uint256"
        }
      ],
      "stateMutability": "view",
      "type": "function"
    },
    {
      "inputs": [],
      "name": "oracleUsdc",
      "outputs": [
        {
          "internalType": "contract IPriceFeed",
          "name": "",
          "type": "address"
        }
      ],
      "stateMutability": "view",
      "type": "function"
    },
    {
      "inputs": [],
      "name": "oracleUsdt",
      "outputs": [
        {
          "internalType": "contract IPriceFeed",
          "name": "",
          "type": "address"
        }
      ],
      "stateMutability": "view",
      "type": "function"
    },
    {
      "inputs": [],
      "name": "pid",
      "outputs": [
        {
          "internalType": "uint256",
          "name": "",
          "type": "uint256"
        }
      ],
      "stateMutability": "view",
      "type": "function"
    },
    {
      "inputs": [],
      "name": "poolFeeUsdcUsdtInUnits",
      "outputs": [
        {
          "internalType": "uint24",
          "name": "",
          "type": "uint24"
        }
      ],
      "stateMutability": "view",
      "type": "function"
    },
    {
      "inputs": [],
      "name": "poolUsdcKnc",
      "outputs": [
        {
          "internalType": "contract IKyberPool",
          "name": "",
          "type": "address"
        }
      ],
      "stateMutability": "view",
      "type": "function"
    },
    {
      "inputs": [],
      "name": "portfolioManager",
      "outputs": [
        {
          "internalType": "address",
          "name": "",
          "type": "address"
        }
      ],
      "stateMutability": "view",
      "type": "function"
    },
    {
      "inputs": [],
      "name": "proxiableUUID",
      "outputs": [
        {
          "internalType": "bytes32",
          "name": "",
          "type": "bytes32"
        }
      ],
      "stateMutability": "view",
      "type": "function"
    },
    {
      "inputs": [],
      "name": "reinvestmentToken",
      "outputs": [
        {
          "internalType": "contract ReinvestmentToken",
          "name": "",
          "type": "address"
        }
      ],
      "stateMutability": "view",
      "type": "function"
    },
    {
      "inputs": [
        {
          "internalType": "bytes32",
          "name": "role",
          "type": "bytes32"
        },
        {
          "internalType": "address",
          "name": "account",
          "type": "address"
        }
      ],
      "name": "renounceRole",
      "outputs": [],
      "stateMutability": "nonpayable",
      "type": "function"
    },
    {
      "inputs": [
        {
          "internalType": "bytes32",
          "name": "role",
          "type": "bytes32"
        },
        {
          "internalType": "address",
          "name": "account",
          "type": "address"
        }
      ],
      "name": "revokeRole",
      "outputs": [],
      "stateMutability": "nonpayable",
      "type": "function"
    },
    {
      "inputs": [
        {
          "internalType": "uint256",
          "name": "healthFactor",
          "type": "uint256"
        }
      ],
      "name": "setHealthFactor",
      "outputs": [],
      "stateMutability": "nonpayable",
      "type": "function"
    },
    {
      "inputs": [
        {
          "components": [
            {
              "internalType": "address",
              "name": "usdcToken",
              "type": "address"
            },
            {
              "internalType": "address",
              "name": "usdtToken",
              "type": "address"
            },
            {
              "internalType": "address",
              "name": "kncToken",
              "type": "address"
            },
            {
              "internalType": "address",
              "name": "basePositionManager",
              "type": "address"
            },
            {
              "internalType": "address",
              "name": "elasticLM",
              "type": "address"
            },
            {
              "internalType": "address",
              "name": "reinvestmentToken",
              "type": "address"
            },
            {
              "internalType": "uint256",
              "name": "pid",
              "type": "uint256"
            },
            {
              "internalType": "address",
              "name": "synapseSwapRouter",
              "type": "address"
            },
            {
              "internalType": "address",
              "name": "poolUsdcKnc",
              "type": "address"
            },
            {
              "internalType": "uint24",
              "name": "poolFeeUsdcUsdtInUnits",
              "type": "uint24"
            },
            {
              "internalType": "address",
              "name": "oracleUsdc",
              "type": "address"
            },
            {
              "internalType": "address",
              "name": "oracleUsdt",
              "type": "address"
            },
            {
              "internalType": "int24",
              "name": "tickLower",
              "type": "int24"
            },
            {
              "internalType": "int24",
              "name": "tickUpper",
              "type": "int24"
            }
          ],
          "internalType": "struct StrategyKyberSwapUsdcUsdt.StrategyParams",
          "name": "params",
          "type": "tuple"
        }
      ],
      "name": "setParams",
      "outputs": [],
      "stateMutability": "nonpayable",
      "type": "function"
    },
    {
      "inputs": [
        {
          "internalType": "address",
          "name": "_value",
          "type": "address"
        }
      ],
      "name": "setPortfolioManager",
      "outputs": [],
      "stateMutability": "nonpayable",
      "type": "function"
    },
    {
      "inputs": [
        {
          "internalType": "address",
          "name": "_asset",
          "type": "address"
        },
        {
          "internalType": "uint256",
          "name": "_amount",
          "type": "uint256"
        }
      ],
      "name": "stake",
      "outputs": [],
      "stateMutability": "nonpayable",
      "type": "function"
    },
    {
      "inputs": [
        {
          "internalType": "bytes4",
          "name": "interfaceId",
          "type": "bytes4"
        }
      ],
      "name": "supportsInterface",
      "outputs": [
        {
          "internalType": "bool",
          "name": "",
          "type": "bool"
        }
      ],
      "stateMutability": "view",
      "type": "function"
    },
    {
      "inputs": [
        {
          "internalType": "int256",
          "name": "deltaQty0",
          "type": "int256"
        },
        {
          "internalType": "int256",
          "name": "deltaQty1",
          "type": "int256"
        },
        {
          "internalType": "bytes",
          "name": "data",
          "type": "bytes"
        }
      ],
      "name": "swapCallback",
      "outputs": [],
      "stateMutability": "nonpayable",
      "type": "function"
    },
    {
      "inputs": [],
      "name": "synapseSwapRouter",
      "outputs": [
        {
          "internalType": "contract ISwap",
          "name": "",
          "type": "address"
        }
      ],
      "stateMutability": "view",
      "type": "function"
    },
    {
      "inputs": [],
      "name": "tickLower",
      "outputs": [
        {
          "internalType": "int24",
          "name": "",
          "type": "int24"
        }
      ],
      "stateMutability": "view",
      "type": "function"
    },
    {
      "inputs": [],
      "name": "tickUpper",
      "outputs": [
        {
          "internalType": "int24",
          "name": "",
          "type": "int24"
        }
      ],
      "stateMutability": "view",
      "type": "function"
    },
    {
      "inputs": [],
      "name": "tokenId",
      "outputs": [
        {
          "internalType": "uint256",
          "name": "",
          "type": "uint256"
        }
      ],
      "stateMutability": "view",
      "type": "function"
    },
    {
      "inputs": [
        {
          "internalType": "address",
          "name": "_asset",
          "type": "address"
        },
        {
          "internalType": "uint256",
          "name": "_amount",
          "type": "uint256"
        },
        {
          "internalType": "address",
          "name": "_beneficiary",
          "type": "address"
        },
        {
          "internalType": "bool",
          "name": "_targetIsZero",
          "type": "bool"
        }
      ],
      "name": "unstake",
      "outputs": [
        {
          "internalType": "uint256",
          "name": "",
          "type": "uint256"
        }
      ],
      "stateMutability": "nonpayable",
      "type": "function"
    },
    {
      "inputs": [
        {
          "internalType": "address",
          "name": "newImplementation",
          "type": "address"
        }
      ],
      "name": "upgradeTo",
      "outputs": [],
      "stateMutability": "nonpayable",
      "type": "function"
    },
    {
      "inputs": [
        {
          "internalType": "address",
          "name": "newImplementation",
          "type": "address"
        },
        {
          "internalType": "bytes",
          "name": "data",
          "type": "bytes"
        }
      ],
      "name": "upgradeToAndCall",
      "outputs": [],
      "stateMutability": "payable",
      "type": "function"
    },
    {
      "inputs": [],
      "name": "usdcToken",
      "outputs": [
        {
          "internalType": "contract IERC20",
          "name": "",
          "type": "address"
        }
      ],
      "stateMutability": "view",
      "type": "function"
    },
    {
      "inputs": [],
      "name": "usdcTokenDenominator",
      "outputs": [
        {
          "internalType": "uint256",
          "name": "",
          "type": "uint256"
        }
      ],
      "stateMutability": "view",
      "type": "function"
    },
    {
      "inputs": [],
      "name": "usdtToken",
      "outputs": [
        {
          "internalType": "contract IERC20",
          "name": "",
          "type": "address"
        }
      ],
      "stateMutability": "view",
      "type": "function"
    },
    {
      "inputs": [],
      "name": "usdtTokenDenominator",
      "outputs": [
        {
          "internalType": "uint256",
          "name": "",
          "type": "uint256"
        }
      ],
      "stateMutability": "view",
      "type": "function"
    }
  ],
  "numDeployments": 2,
  "solcInputHash": "72a7f0ea6114ad467b7cbd75b9bf74f0",
  "bytecode": "0x60a06040523060601b6080523480156200001857600080fd5b50600054610100900460ff16158080156200003a5750600054600160ff909116105b806200006a575062000057306200014460201b620015bb1760201c565b1580156200006a575060005460ff166001145b620000d25760405162461bcd60e51b815260206004820152602e60248201527f496e697469616c697a61626c653a20636f6e747261637420697320616c72656160448201526d191e481a5b9a5d1a585b1a5e995960921b606482015260840160405180910390fd5b6000805460ff191660011790558015620000f6576000805461ff0019166101001790555b80156200013d576000805461ff0019169055604051600181527f7f26b83ff96e1f2b6a682f133852f6798a09c465da95921460cefb38474024989060200160405180910390a15b5062000153565b6001600160a01b03163b151590565b60805160601c6157186200018e600039600081816108fc0152818161093c015281816109dc01528181610a1c0152610aab01526157186000f3fe6080604052600436106102465760003560e01c80637d5f580211610139578063b7e5ce11116100b6578063d547741f1161007a578063d547741f146106c2578063ef5cfb8c146106e2578063f106845414610702578063f6f6b88114610719578063f72c0d8b14610739578063fa483e721461076d57600080fd5b8063b7e5ce1114610627578063ba97756b14610648578063c3bc6ff114610669578063cc6522c314610680578063cd9c293f146106a157600080fd5b8063a217fddf116100fd578063a217fddf1461059c578063a3673b38146105b1578063a440b21a146105c6578063a98ad46c146105e6578063adc9772e1461060757600080fd5b80637d5f580214610503578063811c7fe2146105255780638129fc1c1461054657806381bdd7d91461055b57806391d148541461057c57600080fd5b806336568abe116101c757806359c4f9051161018b57806359c4f905146104725780635fea9cbb1461048d578063620b75df146104ae57806378683ff4146104ce5780637b73aa4e146104ee57600080fd5b806336568abe146103d55780633659cfe6146103f55780634f1ef2861461041557806352d1902d1461042857806355b812a81461043d57600080fd5b8063248a9ca31161020e578063248a9ca3146103165780632576e65a14610346578063287b99741461035b5780632f2ff15d1461039357806331111708146103b557600080fd5b806301ffc9a71461024b57806306da3f2e1461028057806311eac855146102a557806317d70f7c146102de5780631b544547146102f5575b600080fd5b34801561025757600080fd5b5061026b610266366004614b0e565b61078d565b60405190151581526020015b60405180910390f35b34801561028c57600080fd5b506102976101385481565b604051908152602001610277565b3480156102b157600080fd5b5061012d546102c6906001600160a01b031681565b6040516001600160a01b039091168152602001610277565b3480156102ea57600080fd5b5061029761013a5481565b34801561030157600080fd5b50610131546102c6906001600160a01b031681565b34801561032257600080fd5b50610297610331366004614aac565b60009081526065602052604090206001015490565b34801561035257600080fd5b506102976107c4565b34801561036757600080fd5b506101355461037f90600160a01b900462ffffff1681565b60405162ffffff9091168152602001610277565b34801561039f57600080fd5b506103b36103ae366004614ade565b6107d5565b005b3480156103c157600080fd5b506103b36103d0366004614aac565b6107ff565b3480156103e157600080fd5b506103b36103f0366004614ade565b610873565b34801561040157600080fd5b506103b361041036600461492e565b6108f1565b6103b3610423366004614968565b6109d1565b34801561043457600080fd5b50610297610a9e565b34801561044957600080fd5b5061013b5461045f906301000000900460020b81565b60405160029190910b8152602001610277565b34801561047e57600080fd5b5061013b5461045f9060020b81565b34801561049957600080fd5b50610136546102c6906001600160a01b031681565b3480156104ba57600080fd5b5060fb546102c6906001600160a01b031681565b3480156104da57600080fd5b506103b36104e9366004614cf8565b610b51565b3480156104fa57600080fd5b506103b3610f79565b34801561050f57600080fd5b5061029760008051602061567c83398151915281565b34801561053157600080fd5b5061012f546102c6906001600160a01b031681565b34801561055257600080fd5b506103b3610faf565b34801561056757600080fd5b50610132546102c6906001600160a01b031681565b34801561058857600080fd5b5061026b610597366004614ade565b611072565b3480156105a857600080fd5b50610297600081565b3480156105bd57600080fd5b5061029761109d565b3480156105d257600080fd5b506103b36105e136600461492e565b6110a9565b3480156105f257600080fd5b5061012e546102c6906001600160a01b031681565b34801561061357600080fd5b506103b3610622366004614a10565b6111d8565b34801561063357600080fd5b50610134546102c6906001600160a01b031681565b34801561065457600080fd5b50610135546102c6906001600160a01b031681565b34801561067557600080fd5b506102976101395481565b34801561068c57600080fd5b50610137546102c6906001600160a01b031681565b3480156106ad57600080fd5b50610130546102c6906001600160a01b031681565b3480156106ce57600080fd5b506103b36106dd366004614ade565b6112c1565b3480156106ee57600080fd5b506102976106fd36600461492e565b6112e6565b34801561070e57600080fd5b506102976101335481565b34801561072557600080fd5b50610297610734366004614a3c565b61136a565b34801561074557600080fd5b506102977f189ab7a9244df0848122154315af71fe140f3db0fe014031783b0946b8c9d2e381565b34801561077957600080fd5b506103b3610788366004614ba8565b61152a565b60006001600160e01b03198216637965db0b60e01b14806107be57506301ffc9a760e01b6001600160e01b03198316145b92915050565b60006107d060006115ca565b905090565b6000828152606560205260409020600101546107f0816119a6565b6107fa83836119b0565b505050565b61081760008051602061567c83398151915233611072565b61083c5760405162461bcd60e51b8152600401610833906150f2565b60405180910390fd5b6040518181527ff00d5f5126966481831a71a9d79a9b3af67c4a1a35637b992c7e465a7e465b71906020015b60405180910390a150565b6001600160a01b03811633146108e35760405162461bcd60e51b815260206004820152602f60248201527f416363657373436f6e74726f6c3a2063616e206f6e6c792072656e6f756e636560448201526e103937b632b9903337b91039b2b63360891b6064820152608401610833565b6108ed8282611a36565b5050565b306001600160a01b037f000000000000000000000000000000000000000000000000000000000000000016141561093a5760405162461bcd60e51b815260040161083390615129565b7f00000000000000000000000000000000000000000000000000000000000000006001600160a01b031661098360008051602061569c833981519152546001600160a01b031690565b6001600160a01b0316146109a95760405162461bcd60e51b815260040161083390615175565b6109b281611a9d565b604080516000808252602082019092526109ce91839190611ac7565b50565b306001600160a01b037f0000000000000000000000000000000000000000000000000000000000000000161415610a1a5760405162461bcd60e51b815260040161083390615129565b7f00000000000000000000000000000000000000000000000000000000000000006001600160a01b0316610a6360008051602061569c833981519152546001600160a01b031690565b6001600160a01b031614610a895760405162461bcd60e51b815260040161083390615175565b610a9282611a9d565b6108ed82826001611ac7565b6000306001600160a01b037f00000000000000000000000000000000000000000000000000000000000000001614610b3e5760405162461bcd60e51b815260206004820152603860248201527f555550535570677261646561626c653a206d757374206e6f742062652063616c60448201527f6c6564207468726f7567682064656c656761746563616c6c00000000000000006064820152608401610833565b5060008051602061569c83398151915290565b610b5c600033611072565b610b9f5760405162461bcd60e51b81526020600482015260146024820152735265737472696374656420746f2061646d696e7360601b6044820152606401610833565b610bac602082018261492e565b61012d80546001600160a01b0319166001600160a01b0392909216919091179055610bdd604082016020830161492e565b61012e80546001600160a01b0319166001600160a01b0392909216919091179055610c0e606082016040830161492e565b61012f80546001600160a01b0319166001600160a01b0392909216919091179055610c3f608082016060830161492e565b61013080546001600160a01b0319166001600160a01b0392909216919091179055610c7060a082016080830161492e565b61013180546001600160a01b0319166001600160a01b0392909216919091179055610ca160c0820160a0830161492e565b61013280546001600160a01b0319166001600160a01b039290921691909117905560c081013561013355610cdc610100820160e0830161492e565b61013580546001600160a01b0319166001600160a01b0392909216919091179055610d0f6101208201610100830161492e565b61013480546001600160a01b0319166001600160a01b0392909216919091179055610d4261014082016101208301614de5565b610135805462ffffff92909216600160a01b0262ffffff60a01b19909216919091179055610d786101608201610140830161492e565b61013680546001600160a01b0319166001600160a01b0392909216919091179055610dab6101808201610160830161492e565b61013780546001600160a01b0319166001600160a01b0392909216919091179055610dde6101a082016101808301614b38565b61013b805460029290920b62ffffff1662ffffff19909216919091179055610e0e6101c082016101a08301614b38565b61013b805460029290920b62ffffff1663010000000265ffffff00000019909216919091179055610e42602082018261492e565b6001600160a01b031663313ce5676040518163ffffffff1660e01b815260040160206040518083038186803b158015610e7a57600080fd5b505afa158015610e8e573d6000803e3d6000fd5b505050506040513d601f19601f82011682018060405250810190610eb29190614ed9565b610ebd90600a615463565b61013855610ece602082018261492e565b6001600160a01b031663313ce5676040518163ffffffff1660e01b815260040160206040518083038186803b158015610f0657600080fd5b505afa158015610f1a573d6000803e3d6000fd5b505050506040513d601f19601f82011682018060405250810190610f3e9190614ed9565b610f4990600a615463565b610139556040517fea5646eb3528e525944447a4a97de700dd472298626e5c0481d1c82c3da86ea590600090a150565b610f9160008051602061567c83398151915233611072565b610fad5760405162461bcd60e51b8152600401610833906150f2565b565b600054610100900460ff1615808015610fcf5750600054600160ff909116105b80610fe95750303b158015610fe9575060005460ff166001145b6110055760405162461bcd60e51b8152600401610833906151c1565b6000805460ff191660011790558015611028576000805461ff0019166101001790555b611030611c41565b80156109ce576000805461ff0019169055604051600181527f7f26b83ff96e1f2b6a682f133852f6798a09c465da95921460cefb384740249890602001610868565b60009182526065602090815260408084206001600160a01b0393909316845291905290205460ff1690565b60006107d060016115ca565b6110b4600033611072565b6110f75760405162461bcd60e51b81526020600482015260146024820152735265737472696374656420746f2061646d696e7360601b6044820152606401610833565b6001600160a01b03811661114d5760405162461bcd60e51b815260206004820152601860248201527f5a65726f2061646472657373206e6f7420616c6c6f77656400000000000000006044820152606401610833565b60fb546111729060008051602061567c833981519152906001600160a01b03166112c1565b61118a60008051602061567c833981519152826107d5565b60fb80546001600160a01b0319166001600160a01b0383169081179091556040519081527ff7b449fcd5cfb7379dcd34cb69428dd9f882033b15be33d83b42d91daa28eeb790602001610868565b6111f060008051602061567c83398151915233611072565b61120c5760405162461bcd60e51b8152600401610833906150f2565b6040518181527f227a473b70d2f893cc7659219575c030a63b5743024fe1e0c1a680e708b1525a9060200160405180910390a16040516370a0823160e01b81523060048201526108ed9083906001600160a01b038216906370a082319060240160206040518083038186803b15801561128457600080fd5b505afa158015611298573d6000803e3d6000fd5b505050506040513d601f19601f820116820180604052508101906112bc9190614ac5565b611cff565b6000828152606560205260409020600101546112dc816119a6565b6107fa8383611a36565b600061130060008051602061567c83398151915233611072565b61131c5760405162461bcd60e51b8152600401610833906150f2565b600061132783611d45565b90507f3ac0594a85a20354f9dc74f33728416d19ce00d04a406c108cc2dcf2cecea1348160405161135a91815260200190565b60405180910390a190505b919050565b600061138460008051602061567c83398151915233611072565b6113a05760405162461bcd60e51b8152600401610833906150f2565b600082156113f4577f3ac0594a85a20354f9dc74f33728416d19ce00d04a406c108cc2dcf2cecea1346113d285611d45565b60405190815260200160405180910390a16113ed868561222d565b9050611463565b6113ff868686612418565b9050848110156114635760405162461bcd60e51b815260206004820152602960248201527f52657475726e65642076616c7565206c657373207468616e2072657175657374604482015268195908185b5bdd5b9d60ba1b6064820152608401610833565b60405163a9059cbb60e01b81526001600160a01b0385811660048301526024820183905287169063a9059cbb90604401602060405180830381600087803b1580156114ad57600080fd5b505af11580156114c1573d6000803e3d6000fd5b505050506040513d601f19601f820116820180604052508101906114e59190614a8f565b5060408051868152602081018390527f9045c2ac9b2026de8075f2701bbdde882cd5e830b3b1ead9a15b22f2b5b93742910160405180910390a190505b949350505050565b61012f546101345460405163a9059cbb60e01b81526001600160a01b0391821660048201526024810187905291169063a9059cbb90604401602060405180830381600087803b15801561157c57600080fd5b505af1158015611590573d6000803e3d6000fd5b505050506040513d601f19601f820116820180604052508101906115b49190614a8f565b5050505050565b6001600160a01b03163b151590565b61012d546040516370a0823160e01b815230600482015260009182916001600160a01b03909116906370a082319060240160206040518083038186803b15801561161357600080fd5b505afa158015611627573d6000803e3d6000fd5b505050506040513d601f19601f8201168201806040525081019061164b9190614ac5565b61012e546040516370a0823160e01b81523060048201529192506000916001600160a01b03909116906370a082319060240160206040518083038186803b15801561169557600080fd5b505afa1580156116a9573d6000803e3d6000fd5b505050506040513d601f19601f820116820180604052508101906116cd9190614ac5565b61013a549091501561199f576101305461013a5460405163133f757160e31b815260048101919091526000916001600160a01b0316906399fbab88906024016101606040518083038186803b15801561172557600080fd5b505afa158015611739573d6000803e3d6000fd5b505050506040513d601f19601f8201168201806040525081019061175d9190614c28565b509050600061013260009054906101000a90046001600160a01b03166001600160a01b031663217ac2376040518163ffffffff1660e01b815260040160806040518083038186803b1580156117b157600080fd5b505afa1580156117c5573d6000803e3d6000fd5b505050506040513d601f19601f820116820180604052508101906117e99190614d91565b50505090506000806118198361180286606001516125e2565b61180f87608001516125e2565b8760a001516129b4565b909250905061182882876153f4565b955061183481866153f4565b94508715611967576119568560068061013760009054906101000a90046001600160a01b03166001600160a01b03166350d25bcd6040518163ffffffff1660e01b815260040160206040518083038186803b15801561189257600080fd5b505afa1580156118a6573d6000803e3d6000fd5b505050506040513d601f19601f820116820180604052508101906118ca9190614ac5565b61013660009054906101000a90046001600160a01b03166001600160a01b03166350d25bcd6040518163ffffffff1660e01b815260040160206040518083038186803b15801561191957600080fd5b505afa15801561192d573d6000803e3d6000fd5b505050506040513d601f19601f820116820180604052508101906119519190614ac5565b612a50565b61196090876153f4565b955061199a565b6101355461012e5461012d5461198d926001600160a01b03908116928116911688612a85565b61199790876153f4565b95505b505050505b5092915050565b6109ce8133612c19565b6119ba8282611072565b6108ed5760008281526065602090815260408083206001600160a01b03851684529091529020805460ff191660011790556119f23390565b6001600160a01b0316816001600160a01b0316837f2f8788117e7eff1d82e926ec794901d17c78024a50270940304540a733656f0d60405160405180910390a45050565b611a408282611072565b156108ed5760008281526065602090815260408083206001600160a01b0385168085529252808320805460ff1916905551339285917ff6391f5c32d9c69d2a47ea670b442974b53935d1edc7fd64eb21e047a839171b9190a45050565b7f189ab7a9244df0848122154315af71fe140f3db0fe014031783b0946b8c9d2e36108ed816119a6565b7f4910fdfa16fed3260ed0e7147f7cc6da11a60208b5b9406d12a635614ffd91435460ff1615611afa576107fa83612c7d565b826001600160a01b03166352d1902d6040518163ffffffff1660e01b815260040160206040518083038186803b158015611b3357600080fd5b505afa925050508015611b63575060408051601f3d908101601f19168201909252611b6091810190614ac5565b60015b611bc65760405162461bcd60e51b815260206004820152602e60248201527f45524331393637557067726164653a206e657720696d706c656d656e7461746960448201526d6f6e206973206e6f74205555505360901b6064820152608401610833565b60008051602061569c8339815191528114611c355760405162461bcd60e51b815260206004820152602960248201527f45524331393637557067726164653a20756e737570706f727465642070726f786044820152681a58589b195555525160ba1b6064820152608401610833565b506107fa838383612d19565b600054610100900460ff1615808015611c615750600054600160ff909116105b80611c7b5750303b158015611c7b575060005460ff166001145b611c975760405162461bcd60e51b8152600401610833906151c1565b6000805460ff191660011790558015611cba576000805461ff0019166101001790555b611cc2612d44565b611cca612d44565b611cd56000336119b0565b6110307f189ab7a9244df0848122154315af71fe140f3db0fe014031783b0946b8c9d2e3336119b0565b61012d546001600160a01b03838116911614611d2d5760405162461bcd60e51b81526004016108339061520f565b611d35612daf565b611d3d612ef2565b6108ed613447565b61013a5460009015611ebe576040805160018082528183019092526000916020808301908036833701905050905061013a5481600081518110611d8a57611d8a61560c565b60209081029190910101526040805160018082528183019092526000918160200160208202803683370190505090506101335481600081518110611dd057611dd061560c565b6020908102919091010152604080516001808252818301909252600091816020015b6060815260200190600190039081611df2579050509050604051806020016040528083815250604051602001611e289190615246565b60405160208183030381529060405281600081518110611e4a57611e4a61560c565b602090810291909101015261013154604051630c07c01b60e11b81526001600160a01b039091169063180f803690611e88908690859060040161506d565b600060405180830381600087803b158015611ea257600080fd5b505af1158015611eb6573d6000803e3d6000fd5b505050505050505b61012f546040516370a0823160e01b815230600482015260009182916001600160a01b03909116906370a082319060240160206040518083038186803b158015611f0757600080fd5b505afa158015611f1b573d6000803e3d6000fd5b505050506040513d601f19601f82011682018060405250810190611f3f9190614ac5565b905080156121985761012d5461012f54604080518082018252606083811b6bffffffffffffffffffffffff1990811682840152601960ec1b60748401529085901b1660778201528151606b818303018152608b82018352815230602080830182905283516370a0823160e01b8152600481019290925292516001600160a01b039586169590941685119491936000936370a082319260248082019391829003018186803b158015611fef57600080fd5b505afa158015612003573d6000803e3d6000fd5b505050506040513d601f19601f820116820180604052508101906120279190614ac5565b610134549091506001600160a01b03166324b31a0c3086868061206857612063600173fffd8963efd1fc6a506488495d951d5263988d2661552d565b612078565b6120786401000276a360016153c9565b604080516000815260208101918290526001600160e01b031960e088901b169091526120ab94939291906024810161501f565b6040805180830381600087803b1580156120c457600080fd5b505af11580156120d8573d6000803e3d6000fd5b505050506040513d601f19601f820116820180604052508101906120fc9190614b84565b505061012d546040516370a0823160e01b81523060048201526000916001600160a01b0316906370a082319060240160206040518083038186803b15801561214357600080fd5b505afa158015612157573d6000803e3d6000fd5b505050506040513d601f19601f8201168201806040525081019061217b9190614ac5565b90506121878282615555565b61219190876153f4565b9550505050505b811561199f5761012d5460405163a9059cbb60e01b81526001600160a01b038681166004830152602482018590529091169063a9059cbb90604401602060405180830381600087803b1580156121ed57600080fd5b505af1158015612201573d6000803e3d6000fd5b505050506040513d601f19601f820116820180604052508101906122259190614a8f565b505092915050565b61012d546000906001600160a01b0384811691161461225e5760405162461bcd60e51b81526004016108339061520f565b61013a546122e95761012d546040516370a0823160e01b81523060048201526001600160a01b03909116906370a082319060240160206040518083038186803b1580156122aa57600080fd5b505afa1580156122be573d6000803e3d6000fd5b505050506040513d601f19601f820116820180604052508101906122e29190614ac5565b90506107be565b6122f16137f2565b6101305461013a5460405163133f757160e31b815260048101919091526000916001600160a01b0316906399fbab88906024016101606040518083038186803b15801561233d57600080fd5b505afa158015612351573d6000803e3d6000fd5b505050506040513d601f19601f820116820180604052508101906123759190614c28565b50905061238e8160a001516001600160801b03166139dc565b612396613c22565b600061013a5561012d546040516370a0823160e01b81523060048201526001600160a01b03909116906370a082319060240160206040518083038186803b1580156123e057600080fd5b505afa1580156123f4573d6000803e3d6000fd5b505050506040513d601f19601f820116820180604052508101906115229190614ac5565b61012d546000906001600160a01b038581169116146124495760405162461bcd60e51b81526004016108339061520f565b61245483600a613ccd565b9250600061246184613cf0565b9050600061246f8286615555565b90506124796137f2565b610132546040805163217ac23760e01b815290516000926001600160a01b03169163217ac237916004808301926080929190829003018186803b1580156124bf57600080fd5b505afa1580156124d3573d6000803e3d6000fd5b505050506040513d601f19601f820116820180604052508101906124f79190614d91565b505061013b54919250600091612534915083906125169060020b6125e2565b61013b5461252d906301000000900460020b6125e2565b8688613e6a565b9050612548816001600160801b03166139dc565b612550613c22565b612558613447565b61012d546040516370a0823160e01b81523060048201526001600160a01b03909116906370a082319060240160206040518083038186803b15801561259c57600080fd5b505afa1580156125b0573d6000803e3d6000fd5b505050506040513d601f19601f820116820180604052508101906125d49190614ac5565b9450505050505b9392505050565b60008060008360020b126125f9578260020b612606565b8260020b612606906155c3565b905060006001821661261c57600160801b61262e565b6ffffcb933bd6fad37aa2d162d1a5940015b70ffffffffffffffffffffffffffffffffff169050600282161561266d576080612668826ffff97272373d413259a46990580e213a61550e565b901c90505b6004821615612697576080612692826ffff2e50f5f656932ef12357cf3c7fdcc61550e565b901c90505b60088216156126c15760806126bc826fffe5caca7e10e4e61c3624eaa0941cd061550e565b901c90505b60108216156126eb5760806126e6826fffcb9843d60f6159c9db58835c92664461550e565b901c90505b6020821615612715576080612710826fff973b41fa98c081472e6896dfb254c061550e565b901c90505b604082161561273f57608061273a826fff2ea16466c96a3843ec78b326b5286161550e565b901c90505b6080821615612769576080612764826ffe5dee046a99a2a811c461f1969c305361550e565b901c90505b61010082161561279457608061278f826ffcbe86c7900a88aedcffc83b479aa3a461550e565b901c90505b6102008216156127bf5760806127ba826ff987a7253ac413176f2b074cf7815e5461550e565b901c90505b6104008216156127ea5760806127e5826ff3392b0822b70005940c7a398e4b70f361550e565b901c90505b610800821615612815576080612810826fe7159475a2c29b7443b29c7fa6e889d961550e565b901c90505b61100082161561284057608061283b826fd097f3bdfd2022b8845ad8f792aa582561550e565b901c90505b61200082161561286b576080612866826fa9f746462d870fdf8a65dc1f90e061e561550e565b901c90505b614000821615612896576080612891826f70d869a156d2a1b890bb3df62baf32f761550e565b901c90505b6180008216156128c15760806128bc826f31be135f97d08fd981231505542fcfa661550e565b901c90505b620100008216156128ed5760806128e8826f09aa508b5b7a84e1c677de54f3e99bc961550e565b901c90505b62020000821615612918576080612913826e5d6af8dedb81196699c329225ee60461550e565b901c90505b6204000082161561294257608061293d826d2216e584f5fa1ea926041bedfe9861550e565b901c90505b6208000082161561296a576080612965826b048a170391f7dc42444e8fa261550e565b901c90505b60008460020b1315612985576129828160001961540c565b90505b612994640100000000826155af565b156129a05760016129a3565b60005b6115229060ff16602083901c6153f4565b600080836001600160a01b0316856001600160a01b031611156129d5579293925b846001600160a01b0316866001600160a01b031611612a00576129f9858585613f2b565b9150612a47565b836001600160a01b0316866001600160a01b03161015612a3957612a25868585613f2b565b9150612a32858785613f9e565b9050612a47565b612a44858585613f9e565b90505b94509492505050565b6000612a5c828661550e565b83612a67868961550e565b612a71919061550e565b612a7b919061540c565b9695505050505050565b6040516319b02f4960e21b81526001600160a01b03848116600483015260009182918716906366c0bd249060240160206040518083038186803b158015612acb57600080fd5b505afa158015612adf573d6000803e3d6000fd5b505050506040513d601f19601f82011682018060405250810190612b039190614ed9565b6040516319b02f4960e21b81526001600160a01b0386811660048301529192506000918816906366c0bd249060240160206040518083038186803b158015612b4a57600080fd5b505afa158015612b5e573d6000803e3d6000fd5b505050506040513d601f19601f82011682018060405250810190612b829190614ed9565b60405163a95b089f60e01b815260ff808516600483015282166024820152604481018690529091506001600160a01b0388169063a95b089f9060640160206040518083038186803b158015612bd657600080fd5b505afa158015612bea573d6000803e3d6000fd5b505050506040513d601f19601f82011682018060405250810190612c0e9190614ac5565b979650505050505050565b612c238282611072565b6108ed57612c3b816001600160a01b03166014613fe8565b612c46836020613fe8565b604051602001612c57929190614faa565b60408051601f198184030181529082905262461bcd60e51b8252610833916004016150df565b6001600160a01b0381163b612cea5760405162461bcd60e51b815260206004820152602d60248201527f455243313936373a206e657720696d706c656d656e746174696f6e206973206e60448201526c1bdd08184818dbdb9d1c9858dd609a1b6064820152608401610833565b60008051602061569c83398151915280546001600160a01b0319166001600160a01b0392909216919091179055565b612d2283614184565b600082511180612d2f5750805b156107fa57612d3e83836141c4565b50505050565b600054610100900460ff16610fad5760405162461bcd60e51b815260206004820152602b60248201527f496e697469616c697a61626c653a20636f6e7472616374206973206e6f74206960448201526a6e697469616c697a696e6760a81b6064820152608401610833565b61012e546040516370a0823160e01b81523060048201526000916001600160a01b0316906370a082319060240160206040518083038186803b158015612df457600080fd5b505afa158015612e08573d6000803e3d6000fd5b505050506040513d601f19601f82011682018060405250810190612e2c9190614ac5565b61012d546040516370a0823160e01b81523060048201529192506000916001600160a01b03909116906370a082319060240160206040518083038186803b158015612e7657600080fd5b505afa158015612e8a573d6000803e3d6000fd5b505050506040513d601f19601f82011682018060405250810190612eae9190614ac5565b90506000612ec4612ebf8484615555565b613cf0565b905080156107fa576101355461012d5461012e54612d3e926001600160a01b039081169281169116846142af565b61012d546040516370a0823160e01b81523060048201526000916001600160a01b0316906370a082319060240160206040518083038186803b158015612f3757600080fd5b505afa158015612f4b573d6000803e3d6000fd5b505050506040513d601f19601f82011682018060405250810190612f6f9190614ac5565b61012e546040516370a0823160e01b81523060048201529192506000916001600160a01b03909116906370a082319060240160206040518083038186803b158015612fb957600080fd5b505afa158015612fcd573d6000803e3d6000fd5b505050506040513d601f19601f82011682018060405250810190612ff19190614ac5565b61012d546101305460405163095ea7b360e01b81526001600160a01b03918216600482015260248101869052929350169063095ea7b390604401602060405180830381600087803b15801561304557600080fd5b505af1158015613059573d6000803e3d6000fd5b505050506040513d601f19601f8201168201806040525081019061307d9190614a8f565b5061012e546101305460405163095ea7b360e01b81526001600160a01b0391821660048201526024810184905291169063095ea7b390604401602060405180830381600087803b1580156130d057600080fd5b505af11580156130e4573d6000803e3d6000fd5b505050506040513d601f19601f820116820180604052508101906131089190614a8f565b5061013a5461336b576101325461013b5460405163c0ac75cf60e01b8152600291820b90910b60048201526000916001600160a01b03169063c0ac75cf90602401604080518083038186803b15801561316057600080fd5b505afa158015613174573d6000803e3d6000fd5b505050506040513d601f19601f820116820180604052508101906131989190614b55565b506101325461013b5460405163c0ac75cf60e01b81526301000000909104600290810b900b60048201529192506000916001600160a01b039091169063c0ac75cf90602401604080518083038186803b1580156131f457600080fd5b505afa158015613208573d6000803e3d6000fd5b505050506040513d601f19601f8201168201806040525081019061322c9190614b55565b50604080516101808101825261012d546001600160a01b03908116825261012e54811660208084019190915261013554600160a01b900462ffffff168385015261013b54600281810b810b60608601526301000000909104810b810b60808501528451808601865288820b820b815286820b90910b9181019190915260a083015260c0820188905260e08201879052600061010083018190526101208301819052306101408401524261016084015261013054935163752a031960e11b815294955091939192169063ea54063290613308908590600401615261565b608060405180830381600087803b15801561332257600080fd5b505af1158015613336573d6000803e3d6000fd5b505050506040513d601f19601f8201168201806040525081019061335a9190614e6f565b50505061013a55506108ed92505050565b6040805160c08101825261013a54815260208101848152818301848152600060608401818152608085019182524260a08601908152610130549651632f45d9b160e01b81528651600482015294516024860152925160448501525160648401525160848301525160a482015290916001600160a01b031690632f45d9b19060c401608060405180830381600087803b15801561340657600080fd5b505af115801561341a573d6000803e3d6000fd5b505050506040513d601f19601f8201168201806040525081019061343e9190614d54565b50505050505050565b610130546040805160018082528183019092526001600160a01b03909216916000916020808301908036833701905050905061013a54816000815181106134905761349061560c565b60209081029190910101526101315461013a546040516331a9108f60e11b81526000926001600160a01b039081169290861691636352211e916134d99160040190815260200190565b60206040518083038186803b1580156134f157600080fd5b505afa158015613505573d6000803e3d6000fd5b505050506040513d601f19601f82011682018060405250810190613529919061494b565b6001600160a01b03161461360b576101315461013a5460405163095ea7b360e01b81526001600160a01b03928316600482015260248101919091529084169063095ea7b390604401600060405180830381600087803b15801561358b57600080fd5b505af115801561359f573d6000803e3d6000fd5b50506101315460405163598b8e7160e01b81526001600160a01b03909116925063598b8e7191506135d490859060040161505a565b600060405180830381600087803b1580156135ee57600080fd5b505af1158015613602573d6000803e3d6000fd5b505050506136a0565b6101315461013a5461013354604051636e0b454960e11b8152600481019290925260248201526001600160a01b039091169063dc168a929060440160006040518083038186803b15801561365e57600080fd5b505afa158015613672573d6000803e3d6000fd5b505050506040513d6000823e601f3d908101601f1916820160405261369a9190810190614e02565b50909150505b6101305461013a5460405163133f757160e31b815260048101919091526000916001600160a01b0316906399fbab88906024016101606040518083038186803b1580156136ec57600080fd5b505afa158015613700573d6000803e3d6000fd5b505050506040513d601f19601f820116820180604052508101906137249190614c28565b506040805160018082528183019092529192506000919060208083019080368337019050509050828260a001516001600160801b03166137649190615555565b816000815181106137775761377761560c565b602090810291909101015261013154610133546040516341e817ab60e01b81526001600160a01b03909216916341e817ab916137b99188908690600401615343565b600060405180830381600087803b1580156137d357600080fd5b505af11580156137e7573d6000803e3d6000fd5b505050505050505050565b6101315461013a5461013354604051636e0b454960e11b81526000936001600160a01b03169263dc168a929261383392600401918252602082015260400190565b60006040518083038186803b15801561384b57600080fd5b505afa15801561385f573d6000803e3d6000fd5b505050506040513d6000823e601f3d908101601f191682016040526138879190810190614e02565b5050604080516001808252818301909252919250600091906020808301908036833701905050905061013a54816000815181106138c6576138c661560c565b602090810291909101015260408051600180825281830190925260009181602001602082028036833701905050905082816000815181106139095761390961560c565b602090810291909101015261013154610133546040516319ad699960e21b81526001600160a01b03909216916366b5a6649161394b9186908690600401615343565b600060405180830381600087803b15801561396557600080fd5b505af1158015613979573d6000803e3d6000fd5b505061013154604051634c1ecae760e11b81526001600160a01b03909116925063983d95ce91506139ae90859060040161505a565b600060405180830381600087803b1580156139c857600080fd5b505af115801561343e573d6000803e3d6000fd5b610132546101305460405163095ea7b360e01b81526001600160a01b0391821660048201526024810184905291169063095ea7b390604401602060405180830381600087803b158015613a2e57600080fd5b505af1158015613a42573d6000803e3d6000fd5b505050506040513d601f19601f82011682018060405250810190613a669190614a8f565b506040805160a08101825261013a5481526001600160801b038381166020830190815260008385018181526060850191825242608086019081526101305496516398e04d7760e01b815286516004820152935190941660248401525160448301525160648201529051608482015290916001600160a01b0316906398e04d779060a401606060405180830381600087803b158015613b0357600080fd5b505af1158015613b17573d6000803e3d6000fd5b505050506040513d601f19601f82011682018060405250810190613b3b9190614eab565b50506101305461012d5460405163bf1316c160e01b81526001600160a01b039182166004820152600060248201523060448201529116915063bf1316c190606401600060405180830381600087803b158015613b9657600080fd5b505af1158015613baa573d6000803e3d6000fd5b50506101305461012e5460405163bf1316c160e01b81526001600160a01b039182166004820152600060248201523060448201529116925063bf1316c19150606401600060405180830381600087803b158015613c0657600080fd5b505af1158015613c1a573d6000803e3d6000fd5b505050505050565b61012e546040516370a0823160e01b81523060048201526000916001600160a01b0316906370a082319060240160206040518083038186803b158015613c6757600080fd5b505afa158015613c7b573d6000803e3d6000fd5b505050506040513d601f19601f82011682018060405250810190613c9f9190614ac5565b905080156109ce576101355461012e5461012d546108ed926001600160a01b039081169281169116846142af565b6000612710613cdc83826153f4565b613ce6908561550e565b6125db919061540c565b60008061013260009054906101000a90046001600160a01b03166001600160a01b031663217ac2376040518163ffffffff1660e01b815260040160806040518083038186803b158015613d4257600080fd5b505afa158015613d56573d6000803e3d6000fd5b505050506040513d601f19601f82011682018060405250810190613d7a9190614d91565b5050509050600061013260009054906101000a90046001600160a01b03166001600160a01b031663ab612f2b6040518163ffffffff1660e01b815260040160606040518083038186803b158015613dd057600080fd5b505afa158015613de4573d6000803e3d6000fd5b505050506040513d601f19601f82011682018060405250810190613e089190614d11565b505061013b549091506000908190613e45908590613e289060020b6125e2565b61013b54613e3f906301000000900460020b6125e2565b866129b4565b90925090506000613e5682846153f4565b613e60838961550e565b612c0e919061540c565b6000836001600160a01b0316856001600160a01b03161115613e8a579293925b846001600160a01b0316866001600160a01b031611613eb557613eae858585614575565b9050613f22565b836001600160a01b0316866001600160a01b03161015613f17576000613edc878686614575565b90506000613eeb8789866145df565b9050806001600160801b0316826001600160801b031610613f0c5780613f0e565b815b92505050613f22565b612a7b8585846145df565b95945050505050565b6000826001600160a01b0316846001600160a01b03161115613f4b579192915b6001600160a01b038416613f946fffffffffffffffffffffffffffffffff60601b606085901b16613f7c878761552d565b6001600160a01b0316866001600160a01b0316614615565b611522919061540c565b6000826001600160a01b0316846001600160a01b03161115613fbe579192915b6115226001600160801b038316613fd5868661552d565b6001600160a01b0316600160601b614615565b60606000613ff783600261550e565b6140029060026153f4565b67ffffffffffffffff81111561401a5761401a615622565b6040519080825280601f01601f191660200182016040528015614044576020820181803683370190505b509050600360fc1b8160008151811061405f5761405f61560c565b60200101906001600160f81b031916908160001a905350600f60fb1b8160018151811061408e5761408e61560c565b60200101906001600160f81b031916908160001a90535060006140b284600261550e565b6140bd9060016153f4565b90505b6001811115614135576f181899199a1a9b1b9c1cb0b131b232b360811b85600f16601081106140f1576140f161560c565b1a60f81b8282815181106141075761410761560c565b60200101906001600160f81b031916908160001a90535060049490941c9361412e81615598565b90506140c0565b5083156125db5760405162461bcd60e51b815260206004820181905260248201527f537472696e67733a20686578206c656e67746820696e73756666696369656e746044820152606401610833565b61418d81612c7d565b6040516001600160a01b038216907fbc7cd75a20ee27fd9adebab32041f755214dbc6bffa90cc0225b39da2e5c2d3b90600090a250565b60606001600160a01b0383163b61422c5760405162461bcd60e51b815260206004820152602660248201527f416464726573733a2064656c65676174652063616c6c20746f206e6f6e2d636f6044820152651b9d1c9858dd60d21b6064820152608401610833565b600080846001600160a01b0316846040516142479190614f8e565b600060405180830381855af49150503d8060008114614282576040519150601f19603f3d011682016040523d82523d6000602084013e614287565b606091505b5091509150613f2282826040518060600160405280602781526020016156bc6027913961479a565b6040516319b02f4960e21b81526001600160a01b03848116600483015260009182918716906366c0bd249060240160206040518083038186803b1580156142f557600080fd5b505afa158015614309573d6000803e3d6000fd5b505050506040513d601f19601f8201168201806040525081019061432d9190614ed9565b6040516319b02f4960e21b81526001600160a01b0386811660048301529192506000918816906366c0bd249060240160206040518083038186803b15801561437457600080fd5b505afa158015614388573d6000803e3d6000fd5b505050506040513d601f19601f820116820180604052508101906143ac9190614ed9565b60405163a95b089f60e01b815260ff808516600483015282166024820152604481018690529091506000906001600160a01b0389169063a95b089f9060640160206040518083038186803b15801561440357600080fd5b505afa158015614417573d6000803e3d6000fd5b505050506040513d601f19601f8201168201806040525081019061443b9190614ac5565b90508061444e5760009350505050611522565b60405163095ea7b360e01b81526001600160a01b0389811660048301526024820187905288169063095ea7b390604401602060405180830381600087803b15801561449857600080fd5b505af11580156144ac573d6000803e3d6000fd5b505050506040513d601f19601f820116820180604052508101906144d09190614a8f565b506040516348b4aac360e11b815260ff80851660048301528316602482015260448101869052606481018290524260848201526001600160a01b0389169063916955869060a401602060405180830381600087803b15801561453157600080fd5b505af1158015614545573d6000803e3d6000fd5b505050506040513d601f19601f820116820180604052508101906145699190614ac5565b98975050505050505050565b6000826001600160a01b0316846001600160a01b03161115614595579192915b60006145b8856001600160a01b0316856001600160a01b0316600160601b614615565b9050613f226145da84836145cc898961552d565b6001600160a01b0316614615565b6147d3565b6000826001600160a01b0316846001600160a01b031611156145ff579192915b6115226145da83600160601b6145cc888861552d565b60008080600019858709858702925082811083820303915050806000141561464f576000841161464457600080fd5b5082900490506125db565b80841161465b57600080fd5b60008486880980840393811190920391905060008561467c81600019615555565b6146879060016153f4565b169586900495938490049360008190030460010190506146a7818461550e565b9093179260006146b887600361550e565b60021890506146c7818861550e565b6146d2906002615555565b6146dc908261550e565b90506146e8818861550e565b6146f3906002615555565b6146fd908261550e565b9050614709818861550e565b614714906002615555565b61471e908261550e565b905061472a818861550e565b614735906002615555565b61473f908261550e565b905061474b818861550e565b614756906002615555565b614760908261550e565b905061476c818861550e565b614777906002615555565b614781908261550e565b905061478d818661550e565b9998505050505050505050565b606083156147a95750816125db565b8251156147b95782518084602001fd5b8160405162461bcd60e51b815260040161083391906150df565b806001600160801b038116811461136557600080fd5b805161136581615638565b600082601f83011261480557600080fd5b8151602067ffffffffffffffff82111561482157614821615622565b8160051b614830828201615398565b83815282810190868401838801850189101561484b57600080fd5b600093505b8584101561486e578051835260019390930192918401918401614850565b50979650505050505050565b80516113658161565b565b60006060828403121561489757600080fd5b6040516060810181811067ffffffffffffffff821117156148ba576148ba615622565b806040525080915082516148cd81615638565b815260208301516148dd8161566a565b602082015260408301516148f081615638565b6040919091015292915050565b80516001600160801b038116811461136557600080fd5b805169ffffffffffffffffffff8116811461136557600080fd5b60006020828403121561494057600080fd5b81356125db81615638565b60006020828403121561495d57600080fd5b81516125db81615638565b6000806040838503121561497b57600080fd5b823561498681615638565b915060208381013567ffffffffffffffff808211156149a457600080fd5b818601915086601f8301126149b857600080fd5b8135818111156149ca576149ca615622565b6149dc601f8201601f19168501615398565b915080825287848285010111156149f257600080fd5b80848401858401376000848284010152508093505050509250929050565b60008060408385031215614a2357600080fd5b8235614a2e81615638565b946020939093013593505050565b60008060008060808587031215614a5257600080fd5b8435614a5d81615638565b9350602085013592506040850135614a7481615638565b91506060850135614a848161564d565b939692955090935050565b600060208284031215614aa157600080fd5b81516125db8161564d565b600060208284031215614abe57600080fd5b5035919050565b600060208284031215614ad757600080fd5b5051919050565b60008060408385031215614af157600080fd5b823591506020830135614b0381615638565b809150509250929050565b600060208284031215614b2057600080fd5b81356001600160e01b0319811681146125db57600080fd5b600060208284031215614b4a57600080fd5b81356125db8161565b565b60008060408385031215614b6857600080fd5b8251614b738161565b565b6020840151909250614b038161565b565b60008060408385031215614b9757600080fd5b505080516020909101519092909150565b60008060008060608587031215614bbe57600080fd5b8435935060208501359250604085013567ffffffffffffffff80821115614be457600080fd5b818701915087601f830112614bf857600080fd5b813581811115614c0757600080fd5b886020828501011115614c1957600080fd5b95989497505060200194505050565b600080828403610160811215614c3d57600080fd5b61010080821215614c4d57600080fd5b614c5561536e565b915084516bffffffffffffffffffffffff81168114614c7357600080fd5b8252614c81602086016147e9565b6020830152614c9260408601614914565b6040830152614ca36060860161487a565b6060830152614cb46080860161487a565b6080830152614cc560a086016148fd565b60a083015260c085015160c083015260e085015160e0830152819350614ced86828701614885565b925050509250929050565b60006101c08284031215614d0b57600080fd5b50919050565b600080600060608486031215614d2657600080fd5b614d2f846148fd565b9250614d3d602085016148fd565b9150614d4b604085016148fd565b90509250925092565b60008060008060808587031215614d6a57600080fd5b614d73856148fd565b60208601516040870151606090970151919890975090945092505050565b60008060008060808587031215614da757600080fd5b8451614db281615638565b6020860151909450614dc38161565b565b6040860151909350614dd48161565b565b6060860151909250614a848161564d565b600060208284031215614df757600080fd5b81356125db8161566a565b600080600060608486031215614e1757600080fd5b83519250602084015167ffffffffffffffff80821115614e3657600080fd5b614e42878388016147f4565b93506040860151915080821115614e5857600080fd5b50614e65868287016147f4565b9150509250925092565b60008060008060808587031215614e8557600080fd5b84519350614e95602086016148fd565b6040860151606090960151949790965092505050565b600080600060608486031215614ec057600080fd5b8351925060208401519150604084015190509250925092565b600060208284031215614eeb57600080fd5b815160ff811681146125db57600080fd5b8060005b6002808210614f0f5750612d3e565b8251900b845260209384019390910190600101614f00565b600081518084526020808501945080840160005b83811015614f5757815187529582019590820190600101614f3b565b509495945050505050565b60008151808452614f7a81602086016020860161556c565b601f01601f19169290920160200192915050565b60008251614fa081846020870161556c565b9190910192915050565b7f416363657373436f6e74726f6c3a206163636f756e7420000000000000000000815260008351614fe281601785016020880161556c565b7001034b99036b4b9b9b4b733903937b6329607d1b601791840191820152835161501381602884016020880161556c565b01602801949350505050565b6001600160a01b0386811682526020820186905284151560408301528316606082015260a060808201819052600090612c0e90830184614f62565b6020815260006125db6020830184614f27565b6040815260006150806040830185614f27565b6020838203818501528185518084528284019150828160051b85010183880160005b838110156150d057601f198784030185526150be838351614f62565b948601949250908501906001016150a2565b50909998505050505050505050565b6020815260006125db6020830184614f62565b6020808252601f908201527f5265737472696374656420746f20504f5254464f4c494f5f4d414e4147455200604082015260600190565b6020808252602c908201527f46756e6374696f6e206d7573742062652063616c6c6564207468726f7567682060408201526b19195b1959d85d1958d85b1b60a21b606082015260800190565b6020808252602c908201527f46756e6374696f6e206d7573742062652063616c6c6564207468726f7567682060408201526b6163746976652070726f787960a01b606082015260800190565b6020808252602e908201527f496e697469616c697a61626c653a20636f6e747261637420697320616c72656160408201526d191e481a5b9a5d1a585b1a5e995960921b606082015260800190565b60208082526019908201527f536f6d6520746f6b656e206e6f7420636f6d70617469626c6500000000000000604082015260600190565b60208152600082516020808401526115226040840182614f27565b81516001600160a01b031681526101a08101602083015161528d60208401826001600160a01b03169052565b5060408301516152a4604084018262ffffff169052565b5060608301516152b9606084018260020b9052565b5060808301516152ce608084018260020b9052565b5060a08301516152e160a0840182614efc565b5060c083015160e083810191909152830151610100808401919091528301516101208084019190915283015161014080840191909152830151610160615331818501836001600160a01b03169052565b80850151610180850152505092915050565b83815260606020820152600061535c6060830185614f27565b8281036040840152612a7b8185614f27565b604051610100810167ffffffffffffffff8111828210171561539257615392615622565b60405290565b604051601f8201601f1916810167ffffffffffffffff811182821017156153c1576153c1615622565b604052919050565b60006001600160a01b038281168482168083038211156153eb576153eb6155e0565b01949350505050565b60008219821115615407576154076155e0565b500190565b60008261541b5761541b6155f6565b500490565b600181815b8085111561545b578160001904821115615441576154416155e0565b8085161561544e57918102915b93841c9390800290615425565b509250929050565b60006125db60ff84168360008261547c575060016107be565b81615489575060006107be565b816001811461549f57600281146154a9576154c5565b60019150506107be565b60ff8411156154ba576154ba6155e0565b50506001821b6107be565b5060208310610133831016604e8410600b84101617156154e8575081810a6107be565b6154f28383615420565b8060001904821115615506576155066155e0565b029392505050565b6000816000190483118215151615615528576155286155e0565b500290565b60006001600160a01b038381169083168181101561554d5761554d6155e0565b039392505050565b600082821015615567576155676155e0565b500390565b60005b8381101561558757818101518382015260200161556f565b83811115612d3e5750506000910152565b6000816155a7576155a76155e0565b506000190190565b6000826155be576155be6155f6565b500690565b6000600160ff1b8214156155d9576155d96155e0565b5060000390565b634e487b7160e01b600052601160045260246000fd5b634e487b7160e01b600052601260045260246000fd5b634e487b7160e01b600052603260045260246000fd5b634e487b7160e01b600052604160045260246000fd5b6001600160a01b03811681146109ce57600080fd5b80151581146109ce57600080fd5b8060020b81146109ce57600080fd5b62ffffff811681146109ce57600080fdfe90c2aa7471c04182221f68e80c07ab1e5946e4c63f8693e14ca40385d529f051360894a13ba1a3210667c828492db98dca3e2076cc3735a920a3ca505d382bbc416464726573733a206c6f772d6c6576656c2064656c65676174652063616c6c206661696c6564a2646970667358221220db2f8fa98a1060084b6a86577112aeb54e58bf147a6be0039c567305448b90d964736f6c63430008060033",
  "devdoc": {
    "kind": "dev",
    "methods": {
      "constructor": {
        "custom:oz-upgrades-unsafe-allow": "constructor"
      },
      "getRoleAdmin(bytes32)": {
        "details": "Returns the admin role that controls `role`. See {grantRole} and {revokeRole}. To change a role's admin, use {_setRoleAdmin}."
      },
      "grantRole(bytes32,address)": {
        "details": "Grants `role` to `account`. If `account` had not been already granted `role`, emits a {RoleGranted} event. Requirements: - the caller must have ``role``'s admin role. May emit a {RoleGranted} event."
      },
      "hasRole(bytes32,address)": {
        "details": "Returns `true` if `account` has been granted `role`."
      },
      "proxiableUUID()": {
        "details": "Implementation of the ERC1822 {proxiableUUID} function. This returns the storage slot used by the implementation. It is used to validate that the this implementation remains valid after an upgrade. IMPORTANT: A proxy pointing at a proxiable contract should not be considered proxiable itself, because this risks bricking a proxy that upgrades to it, by delegating to itself until out of gas. Thus it is critical that this function revert if invoked through a proxy. This is guaranteed by the `notDelegated` modifier."
      },
      "renounceRole(bytes32,address)": {
        "details": "Revokes `role` from the calling account. Roles are often managed via {grantRole} and {revokeRole}: this function's purpose is to provide a mechanism for accounts to lose their privileges if they are compromised (such as when a trusted device is misplaced). If the calling account had been revoked `role`, emits a {RoleRevoked} event. Requirements: - the caller must be `account`. May emit a {RoleRevoked} event."
      },
      "revokeRole(bytes32,address)": {
        "details": "Revokes `role` from `account`. If `account` had been granted `role`, emits a {RoleRevoked} event. Requirements: - the caller must have ``role``'s admin role. May emit a {RoleRevoked} event."
      },
      "supportsInterface(bytes4)": {
        "details": "See {IERC165-supportsInterface}."
      },
      "upgradeTo(address)": {
        "details": "Upgrade the implementation of the proxy to `newImplementation`. Calls {_authorizeUpgrade}. Emits an {Upgraded} event."
      },
      "upgradeToAndCall(address,bytes)": {
        "details": "Upgrade the implementation of the proxy to `newImplementation`, and subsequently execute the function call encoded in `data`. Calls {_authorizeUpgrade}. Emits an {Upgraded} event."
      }
    },
    "version": 1
  },
  "userdoc": {
    "kind": "user",
    "methods": {},
    "version": 1
  },
  "storageLayout": {
    "storage": [
      {
        "astId": 808,
        "contract": "contracts/StrategyKyberSwapUsdcUsdt.sol:StrategyKyberSwapUsdcUsdt",
        "label": "_initialized",
        "offset": 0,
        "slot": "0",
        "type": "t_uint8"
      },
      {
        "astId": 811,
        "contract": "contracts/StrategyKyberSwapUsdcUsdt.sol:StrategyKyberSwapUsdcUsdt",
        "label": "_initializing",
        "offset": 1,
        "slot": "0",
        "type": "t_bool"
      },
      {
        "astId": 1372,
        "contract": "contracts/StrategyKyberSwapUsdcUsdt.sol:StrategyKyberSwapUsdcUsdt",
        "label": "__gap",
        "offset": 0,
        "slot": "1",
        "type": "t_array(t_uint256)50_storage"
      },
      {
        "astId": 1702,
        "contract": "contracts/StrategyKyberSwapUsdcUsdt.sol:StrategyKyberSwapUsdcUsdt",
        "label": "__gap",
        "offset": 0,
        "slot": "51",
        "type": "t_array(t_uint256)50_storage"
      },
      {
        "astId": 39,
        "contract": "contracts/StrategyKyberSwapUsdcUsdt.sol:StrategyKyberSwapUsdcUsdt",
        "label": "_roles",
        "offset": 0,
        "slot": "101",
        "type": "t_mapping(t_bytes32,t_struct(RoleData)34_storage)"
      },
      {
        "astId": 338,
        "contract": "contracts/StrategyKyberSwapUsdcUsdt.sol:StrategyKyberSwapUsdcUsdt",
        "label": "__gap",
        "offset": 0,
        "slot": "102",
        "type": "t_array(t_uint256)49_storage"
      },
      {
        "astId": 790,
        "contract": "contracts/StrategyKyberSwapUsdcUsdt.sol:StrategyKyberSwapUsdcUsdt",
        "label": "__gap",
        "offset": 0,
        "slot": "151",
        "type": "t_array(t_uint256)50_storage"
      },
      {
        "astId": 1087,
        "contract": "contracts/StrategyKyberSwapUsdcUsdt.sol:StrategyKyberSwapUsdcUsdt",
        "label": "__gap",
        "offset": 0,
        "slot": "201",
        "type": "t_array(t_uint256)50_storage"
      },
      {
        "astId": 47968,
        "contract": "contracts/StrategyKyberSwapUsdcUsdt.sol:StrategyKyberSwapUsdcUsdt",
        "label": "portfolioManager",
        "offset": 0,
        "slot": "251",
        "type": "t_address"
      },
      {
        "astId": 48290,
        "contract": "contracts/StrategyKyberSwapUsdcUsdt.sol:StrategyKyberSwapUsdcUsdt",
        "label": "__gap",
        "offset": 0,
        "slot": "252",
        "type": "t_array(t_uint256)49_storage"
      },
      {
        "astId": 38154,
        "contract": "contracts/StrategyKyberSwapUsdcUsdt.sol:StrategyKyberSwapUsdcUsdt",
        "label": "usdcToken",
        "offset": 0,
        "slot": "301",
        "type": "t_contract(IERC20)2441"
      },
      {
        "astId": 38157,
        "contract": "contracts/StrategyKyberSwapUsdcUsdt.sol:StrategyKyberSwapUsdcUsdt",
        "label": "usdtToken",
        "offset": 0,
        "slot": "302",
        "type": "t_contract(IERC20)2441"
      },
      {
        "astId": 38160,
        "contract": "contracts/StrategyKyberSwapUsdcUsdt.sol:StrategyKyberSwapUsdcUsdt",
        "label": "kncToken",
        "offset": 0,
        "slot": "303",
        "type": "t_contract(IERC20)2441"
      },
      {
        "astId": 38163,
        "contract": "contracts/StrategyKyberSwapUsdcUsdt.sol:StrategyKyberSwapUsdcUsdt",
        "label": "basePositionManager",
        "offset": 0,
        "slot": "304",
        "type": "t_contract(IBasePositionManager)13703"
      },
      {
        "astId": 38166,
        "contract": "contracts/StrategyKyberSwapUsdcUsdt.sol:StrategyKyberSwapUsdcUsdt",
        "label": "elasticLM",
        "offset": 0,
        "slot": "305",
        "type": "t_contract(IKyberSwapElasticLM)13956"
      },
      {
        "astId": 38169,
        "contract": "contracts/StrategyKyberSwapUsdcUsdt.sol:StrategyKyberSwapUsdcUsdt",
        "label": "reinvestmentToken",
        "offset": 0,
        "slot": "306",
        "type": "t_contract(ReinvestmentToken)14098"
      },
      {
        "astId": 38171,
        "contract": "contracts/StrategyKyberSwapUsdcUsdt.sol:StrategyKyberSwapUsdcUsdt",
        "label": "pid",
        "offset": 0,
        "slot": "307",
        "type": "t_uint256"
      },
      {
        "astId": 38174,
        "contract": "contracts/StrategyKyberSwapUsdcUsdt.sol:StrategyKyberSwapUsdcUsdt",
        "label": "poolUsdcKnc",
        "offset": 0,
        "slot": "308",
        "type": "t_contract(IKyberPool)13979"
      },
      {
        "astId": 38177,
        "contract": "contracts/StrategyKyberSwapUsdcUsdt.sol:StrategyKyberSwapUsdcUsdt",
        "label": "synapseSwapRouter",
        "offset": 0,
        "slot": "309",
        "type": "t_contract(ISwap)17882"
      },
      {
        "astId": 38179,
        "contract": "contracts/StrategyKyberSwapUsdcUsdt.sol:StrategyKyberSwapUsdcUsdt",
        "label": "poolFeeUsdcUsdtInUnits",
        "offset": 20,
        "slot": "309",
        "type": "t_uint24"
      },
      {
        "astId": 38182,
        "contract": "contracts/StrategyKyberSwapUsdcUsdt.sol:StrategyKyberSwapUsdcUsdt",
        "label": "oracleUsdc",
        "offset": 0,
        "slot": "310",
        "type": "t_contract(IPriceFeed)9629"
      },
      {
        "astId": 38185,
        "contract": "contracts/StrategyKyberSwapUsdcUsdt.sol:StrategyKyberSwapUsdcUsdt",
        "label": "oracleUsdt",
        "offset": 0,
        "slot": "311",
        "type": "t_contract(IPriceFeed)9629"
      },
      {
        "astId": 38187,
        "contract": "contracts/StrategyKyberSwapUsdcUsdt.sol:StrategyKyberSwapUsdcUsdt",
        "label": "usdcTokenDenominator",
        "offset": 0,
        "slot": "312",
        "type": "t_uint256"
      },
      {
        "astId": 38189,
        "contract": "contracts/StrategyKyberSwapUsdcUsdt.sol:StrategyKyberSwapUsdcUsdt",
        "label": "usdtTokenDenominator",
        "offset": 0,
        "slot": "313",
        "type": "t_uint256"
      },
      {
        "astId": 38191,
        "contract": "contracts/StrategyKyberSwapUsdcUsdt.sol:StrategyKyberSwapUsdcUsdt",
        "label": "tokenId",
        "offset": 0,
        "slot": "314",
        "type": "t_uint256"
      },
      {
        "astId": 38193,
        "contract": "contracts/StrategyKyberSwapUsdcUsdt.sol:StrategyKyberSwapUsdcUsdt",
        "label": "tickLower",
        "offset": 0,
        "slot": "315",
        "type": "t_int24"
      },
      {
        "astId": 38195,
        "contract": "contracts/StrategyKyberSwapUsdcUsdt.sol:StrategyKyberSwapUsdcUsdt",
        "label": "tickUpper",
        "offset": 3,
        "slot": "315",
        "type": "t_int24"
      }
    ],
    "types": {
      "t_address": {
        "encoding": "inplace",
        "label": "address",
        "numberOfBytes": "20"
      },
      "t_array(t_uint256)49_storage": {
        "base": "t_uint256",
        "encoding": "inplace",
        "label": "uint256[49]",
        "numberOfBytes": "1568"
      },
      "t_array(t_uint256)50_storage": {
        "base": "t_uint256",
        "encoding": "inplace",
        "label": "uint256[50]",
        "numberOfBytes": "1600"
      },
      "t_bool": {
        "encoding": "inplace",
        "label": "bool",
        "numberOfBytes": "1"
      },
      "t_bytes32": {
        "encoding": "inplace",
        "label": "bytes32",
        "numberOfBytes": "32"
      },
      "t_contract(IBasePositionManager)13703": {
        "encoding": "inplace",
        "label": "contract IBasePositionManager",
        "numberOfBytes": "20"
      },
      "t_contract(IERC20)2441": {
        "encoding": "inplace",
        "label": "contract IERC20",
        "numberOfBytes": "20"
      },
      "t_contract(IKyberPool)13979": {
        "encoding": "inplace",
        "label": "contract IKyberPool",
        "numberOfBytes": "20"
      },
      "t_contract(IKyberSwapElasticLM)13956": {
        "encoding": "inplace",
        "label": "contract IKyberSwapElasticLM",
        "numberOfBytes": "20"
      },
      "t_contract(IPriceFeed)9629": {
        "encoding": "inplace",
        "label": "contract IPriceFeed",
        "numberOfBytes": "20"
      },
      "t_contract(ISwap)17882": {
        "encoding": "inplace",
        "label": "contract ISwap",
        "numberOfBytes": "20"
      },
      "t_contract(ReinvestmentToken)14098": {
        "encoding": "inplace",
        "label": "contract ReinvestmentToken",
        "numberOfBytes": "20"
      },
      "t_int24": {
        "encoding": "inplace",
        "label": "int24",
        "numberOfBytes": "3"
      },
      "t_mapping(t_address,t_bool)": {
        "encoding": "mapping",
        "key": "t_address",
        "label": "mapping(address => bool)",
        "numberOfBytes": "32",
        "value": "t_bool"
      },
      "t_mapping(t_bytes32,t_struct(RoleData)34_storage)": {
        "encoding": "mapping",
        "key": "t_bytes32",
        "label": "mapping(bytes32 => struct AccessControlUpgradeable.RoleData)",
        "numberOfBytes": "32",
        "value": "t_struct(RoleData)34_storage"
      },
      "t_struct(RoleData)34_storage": {
        "encoding": "inplace",
        "label": "struct AccessControlUpgradeable.RoleData",
        "members": [
          {
            "astId": 31,
            "contract": "contracts/StrategyKyberSwapUsdcUsdt.sol:StrategyKyberSwapUsdcUsdt",
            "label": "members",
            "offset": 0,
            "slot": "0",
            "type": "t_mapping(t_address,t_bool)"
          },
          {
            "astId": 33,
            "contract": "contracts/StrategyKyberSwapUsdcUsdt.sol:StrategyKyberSwapUsdcUsdt",
            "label": "adminRole",
            "offset": 0,
            "slot": "1",
            "type": "t_bytes32"
          }
        ],
        "numberOfBytes": "64"
      },
      "t_uint24": {
        "encoding": "inplace",
        "label": "uint24",
        "numberOfBytes": "3"
      },
      "t_uint256": {
        "encoding": "inplace",
        "label": "uint256",
        "numberOfBytes": "32"
      },
      "t_uint8": {
        "encoding": "inplace",
        "label": "uint8",
        "numberOfBytes": "1"
      }
    }
  }
}