{
  "address": "0x4F46fdDa6e3BE4bcb1eBDD3c8D5697F6F64ae69b",
  "abi": [
    {
      "inputs": [],
      "stateMutability": "nonpayable",
      "type": "constructor"
    },
    {
      "anonymous": false,
      "inputs": [
        {
          "indexed": false,
          "internalType": "address",
          "name": "previousAdmin",
          "type": "address"
        },
        {
          "indexed": false,
          "internalType": "address",
          "name": "newAdmin",
          "type": "address"
        }
      ],
      "name": "AdminChanged",
      "type": "event"
    },
    {
      "anonymous": false,
      "inputs": [
        {
          "indexed": false,
          "internalType": "uint256",
          "name": "healthFactor",
          "type": "uint256"
        }
      ],
      "name": "BalanceHealthFactor",
      "type": "event"
    },
    {
      "anonymous": false,
      "inputs": [
        {
          "indexed": true,
          "internalType": "address",
          "name": "beacon",
          "type": "address"
        }
      ],
      "name": "BeaconUpgraded",
      "type": "event"
    },
    {
      "anonymous": false,
      "inputs": [
        {
          "indexed": false,
          "internalType": "uint8",
          "name": "version",
          "type": "uint8"
        }
      ],
      "name": "Initialized",
      "type": "event"
    },
    {
      "anonymous": false,
      "inputs": [
        {
          "indexed": false,
          "internalType": "address",
          "name": "value",
          "type": "address"
        }
      ],
      "name": "PortfolioManagerUpdated",
      "type": "event"
    },
    {
      "anonymous": false,
      "inputs": [
        {
          "indexed": false,
          "internalType": "uint256",
          "name": "amount",
          "type": "uint256"
        }
      ],
      "name": "Reward",
      "type": "event"
    },
    {
      "anonymous": false,
      "inputs": [
        {
          "indexed": true,
          "internalType": "bytes32",
          "name": "role",
          "type": "bytes32"
        },
        {
          "indexed": true,
          "internalType": "bytes32",
          "name": "previousAdminRole",
          "type": "bytes32"
        },
        {
          "indexed": true,
          "internalType": "bytes32",
          "name": "newAdminRole",
          "type": "bytes32"
        }
      ],
      "name": "RoleAdminChanged",
      "type": "event"
    },
    {
      "anonymous": false,
      "inputs": [
        {
          "indexed": true,
          "internalType": "bytes32",
          "name": "role",
          "type": "bytes32"
        },
        {
          "indexed": true,
          "internalType": "address",
          "name": "account",
          "type": "address"
        },
        {
          "indexed": true,
          "internalType": "address",
          "name": "sender",
          "type": "address"
        }
      ],
      "name": "RoleGranted",
      "type": "event"
    },
    {
      "anonymous": false,
      "inputs": [
        {
          "indexed": true,
          "internalType": "bytes32",
          "name": "role",
          "type": "bytes32"
        },
        {
          "indexed": true,
          "internalType": "address",
          "name": "account",
          "type": "address"
        },
        {
          "indexed": true,
          "internalType": "address",
          "name": "sender",
          "type": "address"
        }
      ],
      "name": "RoleRevoked",
      "type": "event"
    },
    {
      "anonymous": false,
      "inputs": [
        {
          "indexed": false,
          "internalType": "uint256",
          "name": "healthFactor",
          "type": "uint256"
        }
      ],
      "name": "SetHealthFactor",
      "type": "event"
    },
    {
      "anonymous": false,
      "inputs": [
        {
          "indexed": false,
          "internalType": "uint256",
          "name": "amount",
          "type": "uint256"
        }
      ],
      "name": "Stake",
      "type": "event"
    },
    {
      "anonymous": false,
      "inputs": [
        {
          "indexed": false,
          "internalType": "address",
          "name": "arrakisRouter",
          "type": "address"
        },
        {
          "indexed": false,
          "internalType": "address",
          "name": "arrakisRewards",
          "type": "address"
        },
        {
          "indexed": false,
          "internalType": "address",
          "name": "arrakisVault",
          "type": "address"
        },
        {
          "indexed": false,
          "internalType": "address",
          "name": "balancerVault",
          "type": "address"
        },
        {
          "indexed": false,
          "internalType": "address",
          "name": "uniswapPositionManager",
          "type": "address"
        },
        {
          "indexed": false,
          "internalType": "bytes32",
          "name": "balancerPoolIdStable",
          "type": "bytes32"
        },
        {
          "indexed": false,
          "internalType": "bytes32",
          "name": "balancerPoolIdWmatic",
          "type": "bytes32"
        },
        {
          "indexed": false,
          "internalType": "address",
          "name": "oracleUsdc",
          "type": "address"
        },
        {
          "indexed": false,
          "internalType": "address",
          "name": "oracleUsdt",
          "type": "address"
        }
      ],
      "name": "StrategyUpdatedParams",
      "type": "event"
    },
    {
      "anonymous": false,
      "inputs": [
        {
          "indexed": false,
          "internalType": "address",
          "name": "usdcToken",
          "type": "address"
        },
        {
          "indexed": false,
          "internalType": "address",
          "name": "usdtToken",
          "type": "address"
        },
        {
          "indexed": false,
          "internalType": "address",
          "name": "wmaticToken",
          "type": "address"
        }
      ],
      "name": "StrategyUpdatedTokens",
      "type": "event"
    },
    {
      "anonymous": false,
      "inputs": [
        {
          "indexed": false,
          "internalType": "uint256",
          "name": "amount",
          "type": "uint256"
        },
        {
          "indexed": false,
          "internalType": "uint256",
          "name": "amountReceived",
          "type": "uint256"
        }
      ],
      "name": "Unstake",
      "type": "event"
    },
    {
      "anonymous": false,
      "inputs": [
        {
          "indexed": true,
          "internalType": "address",
          "name": "implementation",
          "type": "address"
        }
      ],
      "name": "Upgraded",
      "type": "event"
    },
    {
      "inputs": [],
      "name": "DEFAULT_ADMIN_ROLE",
      "outputs": [
        {
          "internalType": "bytes32",
          "name": "",
          "type": "bytes32"
        }
      ],
      "stateMutability": "view",
      "type": "function"
    },
    {
      "inputs": [],
      "name": "MAX_VALUE",
      "outputs": [
        {
          "internalType": "int256",
          "name": "",
          "type": "int256"
        }
      ],
      "stateMutability": "view",
      "type": "function"
    },
    {
      "inputs": [],
      "name": "PORTFOLIO_MANAGER",
      "outputs": [
        {
          "internalType": "bytes32",
          "name": "",
          "type": "bytes32"
        }
      ],
      "stateMutability": "view",
      "type": "function"
    },
    {
      "inputs": [],
      "name": "UPGRADER_ROLE",
      "outputs": [
        {
          "internalType": "bytes32",
          "name": "",
          "type": "bytes32"
        }
      ],
      "stateMutability": "view",
      "type": "function"
    },
    {
      "inputs": [],
      "name": "balancerPoolIdStable",
      "outputs": [
        {
          "internalType": "bytes32",
          "name": "",
          "type": "bytes32"
        }
      ],
      "stateMutability": "view",
      "type": "function"
    },
    {
      "inputs": [],
      "name": "balancerPoolIdWmatic",
      "outputs": [
        {
          "internalType": "bytes32",
          "name": "",
          "type": "bytes32"
        }
      ],
      "stateMutability": "view",
      "type": "function"
    },
    {
      "inputs": [
        {
          "internalType": "address",
          "name": "_to",
          "type": "address"
        }
      ],
      "name": "claimRewards",
      "outputs": [
        {
          "internalType": "uint256",
          "name": "",
          "type": "uint256"
        }
      ],
      "stateMutability": "nonpayable",
      "type": "function"
    },
    {
      "inputs": [
        {
          "internalType": "bytes32",
          "name": "role",
          "type": "bytes32"
        }
      ],
      "name": "getRoleAdmin",
      "outputs": [
        {
          "internalType": "bytes32",
          "name": "",
          "type": "bytes32"
        }
      ],
      "stateMutability": "view",
      "type": "function"
    },
    {
      "inputs": [
        {
          "internalType": "bytes32",
          "name": "role",
          "type": "bytes32"
        },
        {
          "internalType": "address",
          "name": "account",
          "type": "address"
        }
      ],
      "name": "grantRole",
      "outputs": [],
      "stateMutability": "nonpayable",
      "type": "function"
    },
    {
      "inputs": [
        {
          "internalType": "bytes32",
          "name": "role",
          "type": "bytes32"
        },
        {
          "internalType": "address",
          "name": "account",
          "type": "address"
        }
      ],
      "name": "hasRole",
      "outputs": [
        {
          "internalType": "bool",
          "name": "",
          "type": "bool"
        }
      ],
      "stateMutability": "view",
      "type": "function"
    },
    {
      "inputs": [],
      "name": "healthFactorBalance",
      "outputs": [],
      "stateMutability": "nonpayable",
      "type": "function"
    },
    {
      "inputs": [],
      "name": "initialize",
      "outputs": [],
      "stateMutability": "nonpayable",
      "type": "function"
    },
    {
      "inputs": [],
      "name": "liquidationValue",
      "outputs": [
        {
          "internalType": "uint256",
          "name": "",
          "type": "uint256"
        }
      ],
      "stateMutability": "view",
      "type": "function"
    },
    {
      "inputs": [],
      "name": "netAssetValue",
      "outputs": [
        {
          "internalType": "uint256",
          "name": "",
          "type": "uint256"
        }
      ],
      "stateMutability": "view",
      "type": "function"
    },
    {
      "inputs": [],
      "name": "oracleUsdc",
      "outputs": [
        {
          "internalType": "contract IPriceFeed",
          "name": "",
          "type": "address"
        }
      ],
      "stateMutability": "view",
      "type": "function"
    },
    {
      "inputs": [],
      "name": "oracleUsdt",
      "outputs": [
        {
          "internalType": "contract IPriceFeed",
          "name": "",
          "type": "address"
        }
      ],
      "stateMutability": "view",
      "type": "function"
    },
    {
      "inputs": [],
      "name": "portfolioManager",
      "outputs": [
        {
          "internalType": "address",
          "name": "",
          "type": "address"
        }
      ],
      "stateMutability": "view",
      "type": "function"
    },
    {
      "inputs": [],
      "name": "proxiableUUID",
      "outputs": [
        {
          "internalType": "bytes32",
          "name": "",
          "type": "bytes32"
        }
      ],
      "stateMutability": "view",
      "type": "function"
    },
    {
      "inputs": [
        {
          "internalType": "bytes32",
          "name": "role",
          "type": "bytes32"
        },
        {
          "internalType": "address",
          "name": "account",
          "type": "address"
        }
      ],
      "name": "renounceRole",
      "outputs": [],
      "stateMutability": "nonpayable",
      "type": "function"
    },
    {
      "inputs": [
        {
          "internalType": "bytes32",
          "name": "role",
          "type": "bytes32"
        },
        {
          "internalType": "address",
          "name": "account",
          "type": "address"
        }
      ],
      "name": "revokeRole",
      "outputs": [],
      "stateMutability": "nonpayable",
      "type": "function"
    },
    {
      "inputs": [
        {
          "internalType": "uint256",
          "name": "healthFactor",
          "type": "uint256"
        }
      ],
      "name": "setHealthFactor",
      "outputs": [],
      "stateMutability": "nonpayable",
      "type": "function"
    },
    {
      "inputs": [
        {
          "internalType": "address",
          "name": "_arrakisRouter",
          "type": "address"
        },
        {
          "internalType": "address",
          "name": "_arrakisRewards",
          "type": "address"
        },
        {
          "internalType": "address",
          "name": "_arrakisVault",
          "type": "address"
        },
        {
          "internalType": "address",
          "name": "_balancerVault",
          "type": "address"
        },
        {
          "internalType": "bytes32",
          "name": "_balancerPoolIdStable",
          "type": "bytes32"
        },
        {
          "internalType": "bytes32",
          "name": "_balancerPoolIdWmatic",
          "type": "bytes32"
        },
        {
          "internalType": "address",
          "name": "_uniswapPositionManager",
          "type": "address"
        },
        {
          "internalType": "address",
          "name": "_oracleUsdc",
          "type": "address"
        },
        {
          "internalType": "address",
          "name": "_oracleUsdt",
          "type": "address"
        }
      ],
      "name": "setParams",
      "outputs": [],
      "stateMutability": "nonpayable",
      "type": "function"
    },
    {
      "inputs": [
        {
          "internalType": "address",
          "name": "_value",
          "type": "address"
        }
      ],
      "name": "setPortfolioManager",
      "outputs": [],
      "stateMutability": "nonpayable",
      "type": "function"
    },
    {
      "inputs": [
        {
          "internalType": "address",
          "name": "_usdcToken",
          "type": "address"
        },
        {
          "internalType": "address",
          "name": "_usdtToken",
          "type": "address"
        },
        {
          "internalType": "address",
          "name": "_wmaticToken",
          "type": "address"
        }
      ],
      "name": "setTokens",
      "outputs": [],
      "stateMutability": "nonpayable",
      "type": "function"
    },
    {
      "inputs": [
        {
          "internalType": "address",
          "name": "_asset",
          "type": "address"
        },
        {
          "internalType": "uint256",
          "name": "_amount",
          "type": "uint256"
        }
      ],
      "name": "stake",
      "outputs": [],
      "stateMutability": "nonpayable",
      "type": "function"
    },
    {
      "inputs": [
        {
          "internalType": "bytes4",
          "name": "interfaceId",
          "type": "bytes4"
        }
      ],
      "name": "supportsInterface",
      "outputs": [
        {
          "internalType": "bool",
          "name": "",
          "type": "bool"
        }
      ],
      "stateMutability": "view",
      "type": "function"
    },
    {
      "inputs": [
        {
          "internalType": "address",
          "name": "_asset",
          "type": "address"
        },
        {
          "internalType": "uint256",
          "name": "_amount",
          "type": "uint256"
        },
        {
          "internalType": "address",
          "name": "_beneficiary",
          "type": "address"
        },
        {
          "internalType": "bool",
          "name": "_targetIsZero",
          "type": "bool"
        }
      ],
      "name": "unstake",
      "outputs": [
        {
          "internalType": "uint256",
          "name": "",
          "type": "uint256"
        }
      ],
      "stateMutability": "nonpayable",
      "type": "function"
    },
    {
      "inputs": [
        {
          "internalType": "address",
          "name": "newImplementation",
          "type": "address"
        }
      ],
      "name": "upgradeTo",
      "outputs": [],
      "stateMutability": "nonpayable",
      "type": "function"
    },
    {
      "inputs": [
        {
          "internalType": "address",
          "name": "newImplementation",
          "type": "address"
        },
        {
          "internalType": "bytes",
          "name": "data",
          "type": "bytes"
        }
      ],
      "name": "upgradeToAndCall",
      "outputs": [],
      "stateMutability": "payable",
      "type": "function"
    },
    {
      "inputs": [],
      "name": "usdcToken",
      "outputs": [
        {
          "internalType": "contract IERC20",
          "name": "",
          "type": "address"
        }
      ],
      "stateMutability": "view",
      "type": "function"
    },
    {
      "inputs": [],
      "name": "usdtToken",
      "outputs": [
        {
          "internalType": "contract IERC20",
          "name": "",
          "type": "address"
        }
      ],
      "stateMutability": "view",
      "type": "function"
    },
    {
      "inputs": [],
      "name": "wmaticToken",
      "outputs": [
        {
          "internalType": "contract IERC20",
          "name": "",
          "type": "address"
        }
      ],
      "stateMutability": "view",
      "type": "function"
    }
  ],
  "numDeployments": 7,
  "solcInputHash": "499564b034d5a028cbfb7deb4b55eb80",
  "bytecode": "0x60a06040523060601b6080523480156200001857600080fd5b5060006200002760016200008e565b9050801562000040576000805461ff0019166101001790555b801562000087576000805461ff0019169055604051600181527f7f26b83ff96e1f2b6a682f133852f6798a09c465da95921460cefb38474024989060200160405180910390a15b50620001af565b60008054610100900460ff161562000127578160ff166001148015620000c75750620000c530620001a060201b6200128e1760201c565b155b6200011f5760405162461bcd60e51b815260206004820152602e60248201526000805160206200469483398151915260448201526d191e481a5b9a5d1a585b1a5e995960921b60648201526084015b60405180910390fd5b506000919050565b60005460ff808416911610620001865760405162461bcd60e51b815260206004820152602e60248201526000805160206200469483398151915260448201526d191e481a5b9a5d1a585b1a5e995960921b606482015260840162000116565b506000805460ff191660ff92909216919091179055600190565b6001600160a01b03163b151590565b60805160601c6144aa620001ea6000396000818161075e0152818161079e0152818161095e0152818161099e0152610a2d01526144aa6000f3fe6080604052600436106101e35760003560e01c80637b73aa4e11610102578063a98ad46c11610095578063d547741f11610064578063d547741f1461055b578063ef5cfb8c1461057b578063f6f6b8811461059b578063f72c0d8b146105bb57600080fd5b8063a98ad46c146104d8578063abf4be01146104f9578063adc9772e1461051a578063cc6522c31461053a57600080fd5b8063a217fddf116100d1578063a217fddf1461046e578063a3673b3814610483578063a440b21a14610498578063a4ab4cd5146104b857600080fd5b80637b73aa4e146104025780637d5f5802146104175780638129fc1c1461043957806391d148541461044e57600080fd5b80633476372a1161017a5780634f1ef286116101495780634f1ef2861461039957806352d1902d146103ac5780635fea9cbb146103c1578063620b75df146103e257600080fd5b80633476372a1461032257806336568abe146103395780633659cfe614610359578063443be2091461037957600080fd5b8063248a9ca3116101b6578063248a9ca31461029b5780632576e65a146102cb5780632f2ff15d146102e0578063311117081461030257600080fd5b806301ffc9a7146101e8578063063bde241461021d57806311eac8551461024b578063172013c314610284575b600080fd5b3480156101f457600080fd5b50610208610203366004613cef565b6105ef565b60405190151581526020015b60405180910390f35b34801561022957600080fd5b5061023d6b033b2e3c9fd0803ce800000081565b604051908152602001610214565b34801561025757600080fd5b5061015f5461026c906001600160a01b031681565b6040516001600160a01b039091168152602001610214565b34801561029057600080fd5b5061023d6101675481565b3480156102a757600080fd5b5061023d6102b6366004613c98565b60009081526065602052604090206001015490565b3480156102d757600080fd5b5061023d610626565b3480156102ec57600080fd5b506103006102fb366004613cca565b610637565b005b34801561030e57600080fd5b5061030061031d366004613c98565b610661565b34801561032e57600080fd5b5061023d6101685481565b34801561034557600080fd5b50610300610354366004613cca565b6106d5565b34801561036557600080fd5b5061030061037436600461392f565b610753565b34801561038557600080fd5b5061030061039436600461394c565b610833565b6103006103a7366004613a41565b610953565b3480156103b857600080fd5b5061023d610a20565b3480156103cd57600080fd5b506101695461026c906001600160a01b031681565b3480156103ee57600080fd5b5060fb5461026c906001600160a01b031681565b34801561040e57600080fd5b50610300610ad3565b34801561042357600080fd5b5061023d60008051602061440e83398151915281565b34801561044557600080fd5b50610300610b09565b34801561045a57600080fd5b50610208610469366004613cca565b610b77565b34801561047a57600080fd5b5061023d600081565b34801561048f57600080fd5b5061023d610ba2565b3480156104a457600080fd5b506103006104b336600461392f565b610bae565b3480156104c457600080fd5b506103006104d3366004613997565b610c86565b3480156104e457600080fd5b506101605461026c906001600160a01b031681565b34801561050557600080fd5b506101615461026c906001600160a01b031681565b34801561052657600080fd5b50610300610535366004613b27565b610f40565b34801561054657600080fd5b5061016a5461026c906001600160a01b031681565b34801561056757600080fd5b50610300610576366004613cca565b611029565b34801561058757600080fd5b5061023d61059636600461392f565b61104e565b3480156105a757600080fd5b5061023d6105b6366004613b53565b6110d0565b3480156105c757600080fd5b5061023d7f189ab7a9244df0848122154315af71fe140f3db0fe014031783b0946b8c9d2e381565b60006001600160e01b03198216637965db0b60e01b148061062057506301ffc9a760e01b6001600160e01b03198316145b92915050565b6000610632600061129d565b905090565b6000828152606560205260409020600101546106528161178f565b61065c8383611799565b505050565b61067960008051602061440e83398151915233610b77565b61069e5760405162461bcd60e51b815260040161069590613f55565b60405180910390fd5b6040518181527ff00d5f5126966481831a71a9d79a9b3af67c4a1a35637b992c7e465a7e465b71906020015b60405180910390a150565b6001600160a01b03811633146107455760405162461bcd60e51b815260206004820152602f60248201527f416363657373436f6e74726f6c3a2063616e206f6e6c792072656e6f756e636560448201526e103937b632b9903337b91039b2b63360891b6064820152608401610695565b61074f828261181f565b5050565b306001600160a01b037f000000000000000000000000000000000000000000000000000000000000000016141561079c5760405162461bcd60e51b815260040161069590613f8c565b7f00000000000000000000000000000000000000000000000000000000000000006001600160a01b03166107e560008051602061442e833981519152546001600160a01b031690565b6001600160a01b03161461080b5760405162461bcd60e51b815260040161069590613fd8565b61081481611886565b60408051600080825260208201909252610830918391906118b0565b50565b61083e600033610b77565b61085a5760405162461bcd60e51b815260040161069590614072565b6001600160a01b0383166108805760405162461bcd60e51b8152600401610695906140d7565b6001600160a01b0382166108a65760405162461bcd60e51b8152600401610695906140d7565b6001600160a01b0381166108cc5760405162461bcd60e51b8152600401610695906140d7565b61015f80546001600160a01b038581166001600160a01b03199283168117909355610160805486831690841681179091556101618054928616929093168217909255604080519384526020840192909252908201527fad99e63fb7ea2f95b756b555df2e0ef5bdbc8b58df7b3aa5187c558e2714d0c59060600160405180910390a1505050565b306001600160a01b037f000000000000000000000000000000000000000000000000000000000000000016141561099c5760405162461bcd60e51b815260040161069590613f8c565b7f00000000000000000000000000000000000000000000000000000000000000006001600160a01b03166109e560008051602061442e833981519152546001600160a01b031690565b6001600160a01b031614610a0b5760405162461bcd60e51b815260040161069590613fd8565b610a1482611886565b61074f828260016118b0565b6000306001600160a01b037f00000000000000000000000000000000000000000000000000000000000000001614610ac05760405162461bcd60e51b815260206004820152603860248201527f555550535570677261646561626c653a206d757374206e6f742062652063616c60448201527f6c6564207468726f7567682064656c656761746563616c6c00000000000000006064820152608401610695565b5060008051602061442e83398151915290565b610aeb60008051602061440e83398151915233610b77565b610b075760405162461bcd60e51b815260040161069590613f55565b565b6000610b156001611a2a565b90508015610b2d576000805461ff0019166101001790555b610b35611ab2565b8015610830576000805461ff0019169055604051600181527f7f26b83ff96e1f2b6a682f133852f6798a09c465da95921460cefb3847402498906020016106ca565b60009182526065602090815260408084206001600160a01b0393909316845291905290205460ff1690565b6000610632600161129d565b610bb9600033610b77565b610bd55760405162461bcd60e51b815260040161069590614072565b6001600160a01b038116610bfb5760405162461bcd60e51b8152600401610695906140d7565b60fb54610c209060008051602061440e833981519152906001600160a01b0316611029565b610c3860008051602061440e83398151915282610637565b60fb80546001600160a01b0319166001600160a01b0383169081179091556040519081527ff7b449fcd5cfb7379dcd34cb69428dd9f882033b15be33d83b42d91daa28eeb7906020016106ca565b610c91600033610b77565b610cad5760405162461bcd60e51b815260040161069590614072565b6001600160a01b038916610cd35760405162461bcd60e51b8152600401610695906140d7565b6001600160a01b038816610cf95760405162461bcd60e51b8152600401610695906140d7565b6001600160a01b038716610d1f5760405162461bcd60e51b8152600401610695906140d7565b6001600160a01b038616610d455760405162461bcd60e51b8152600401610695906140d7565b6001600160a01b038316610d6b5760405162461bcd60e51b8152600401610695906140d7565b84610db45760405162461bcd60e51b8152602060048201526019602482015278115b5c1d1e481c1bdbdb081a59081b9bdd08185b1b1bddd959603a1b6044820152606401610695565b83610dfd5760405162461bcd60e51b8152602060048201526019602482015278115b5c1d1e481c1bdbdb081a59081b9bdd08185b1b1bddd959603a1b6044820152606401610695565b6001600160a01b038216610e235760405162461bcd60e51b8152600401610695906140d7565b6001600160a01b038116610e495760405162461bcd60e51b8152600401610695906140d7565b61016280546001600160a01b038b81166001600160a01b0319928316811790935561016380548c8316908416811790915561016480548c841690851681179091556101678a905561016889905561012d80548c851690861681179091556101698054861689861690811790915561016a8054909616888616908117909655604080519788526020880194909452868401929092526060860152918716608085015260a0840189905260c0840188905260e0840191909152610100830191909152517f6a1a408155e0623e9b1e75350f900f2880c142135671f7397a07d513ab7dd842918190036101200190a1505050505050505050565b610f5860008051602061440e83398151915233610b77565b610f745760405162461bcd60e51b815260040161069590613f55565b6040518181527f227a473b70d2f893cc7659219575c030a63b5743024fe1e0c1a680e708b1525a9060200160405180910390a16040516370a0823160e01b815230600482015261074f9083906001600160a01b038216906370a082319060240160206040518083038186803b158015610fec57600080fd5b505afa158015611000573d6000803e3d6000fd5b505050506040513d601f19601f820116820180604052508101906110249190613cb1565b611b1b565b6000828152606560205260409020600101546110448161178f565b61065c838361181f565b600061106860008051602061440e83398151915233610b77565b6110845760405162461bcd60e51b815260040161069590613f55565b600061108f83611f9f565b90507f3ac0594a85a20354f9dc74f33728416d19ce00d04a406c108cc2dcf2cecea134816040516110c291815260200190565b60405180910390a192915050565b60006110ea60008051602061440e83398151915233610b77565b6111065760405162461bcd60e51b815260040161069590613f55565b6000821561115a577f3ac0594a85a20354f9dc74f33728416d19ce00d04a406c108cc2dcf2cecea13461113885611f9f565b60405190815260200160405180910390a161115386856121cc565b90506111c9565b6111658686866126b4565b9050848110156111c95760405162461bcd60e51b815260206004820152602960248201527f52657475726e65642076616c7565206c657373207468616e2072657175657374604482015268195908185b5bdd5b9d60ba1b6064820152608401610695565b60405163a9059cbb60e01b81526001600160a01b0385811660048301526024820183905287169063a9059cbb90604401602060405180830381600087803b15801561121357600080fd5b505af1158015611227573d6000803e3d6000fd5b505050506040513d601f19601f8201168201806040525081019061124b9190613c7b565b5060408051868152602081018390527f9045c2ac9b2026de8075f2701bbdde882cd5e830b3b1ead9a15b22f2b5b93742910160405180910390a195945050505050565b6001600160a01b03163b151590565b61015f546040516370a0823160e01b815230600482015260009182916001600160a01b03909116906370a082319060240160206040518083038186803b1580156112e657600080fd5b505afa1580156112fa573d6000803e3d6000fd5b505050506040513d601f19601f8201168201806040525081019061131e9190613cb1565b610160546040516370a0823160e01b81523060048201529192506000916001600160a01b03909116906370a082319060240160206040518083038186803b15801561136857600080fd5b505afa15801561137c573d6000803e3d6000fd5b505050506040513d601f19601f820116820180604052508101906113a09190613cb1565b610163546040516370a0823160e01b81523060048201529192506000916001600160a01b03909116906370a082319060240160206040518083038186803b1580156113ea57600080fd5b505afa1580156113fe573d6000803e3d6000fd5b505050506040513d601f19601f820116820180604052508101906114229190613cb1565b90508061143457506000949350505050565b61016454604080516304c8b65560e21b8152815160009384936001600160a01b0390911692631322d9549260048083019392829003018186803b15801561147a57600080fd5b505afa15801561148e573d6000803e3d6000fd5b505050506040513d601f19601f820116820180604052508101906114b29190613d19565b9150915061016460009054906101000a90046001600160a01b03166001600160a01b03166318160ddd6040518163ffffffff1660e01b815260040160206040518083038186803b15801561150557600080fd5b505afa158015611519573d6000803e3d6000fd5b505050506040513d601f19601f8201168201806040525081019061153d9190613cb1565b61154784846142de565b61155191906142bc565b61155b90866142a4565b945061016460009054906101000a90046001600160a01b03166001600160a01b03166318160ddd6040518163ffffffff1660e01b815260040160206040518083038186803b1580156115ac57600080fd5b505afa1580156115c0573d6000803e3d6000fd5b505050506040513d601f19601f820116820180604052508101906115e49190613cb1565b6115ee84836142de565b6115f891906142bc565b61160290856142a4565b93506000871561174f5761016954604080516350d25bcd60e01b815290516000926001600160a01b0316916350d25bcd916004808301926020929190829003018186803b15801561165257600080fd5b505afa158015611666573d6000803e3d6000fd5b505050506040513d601f19601f8201168201806040525081019061168a9190613cb1565b9050600061016a60009054906101000a90046001600160a01b03166001600160a01b03166350d25bcd6040518163ffffffff1660e01b815260040160206040518083038186803b1580156116dd57600080fd5b505afa1580156116f1573d6000803e3d6000fd5b505050506040513d601f19601f820116820180604052508101906117159190613cb1565b905061172482620f42406142de565b8161173289620f42406142de565b61173c91906142de565b61174691906142bc565b92505050611779565b610167546101605461015f5461177692916000916001600160a01b03918216911689612b27565b90505b61178381876142a4565b98975050505050505050565b610830813361300d565b6117a38282610b77565b61074f5760008281526065602090815260408083206001600160a01b03851684529091529020805460ff191660011790556117db3390565b6001600160a01b0316816001600160a01b0316837f2f8788117e7eff1d82e926ec794901d17c78024a50270940304540a733656f0d60405160405180910390a45050565b6118298282610b77565b1561074f5760008281526065602090815260408083206001600160a01b0385168085529252808320805460ff1916905551339285917ff6391f5c32d9c69d2a47ea670b442974b53935d1edc7fd64eb21e047a839171b9190a45050565b7f189ab7a9244df0848122154315af71fe140f3db0fe014031783b0946b8c9d2e361074f8161178f565b7f4910fdfa16fed3260ed0e7147f7cc6da11a60208b5b9406d12a635614ffd91435460ff16156118e35761065c83613071565b826001600160a01b03166352d1902d6040518163ffffffff1660e01b815260040160206040518083038186803b15801561191c57600080fd5b505afa92505050801561194c575060408051601f3d908101601f1916820190925261194991810190613cb1565b60015b6119af5760405162461bcd60e51b815260206004820152602e60248201527f45524331393637557067726164653a206e657720696d706c656d656e7461746960448201526d6f6e206973206e6f74205555505360901b6064820152608401610695565b60008051602061442e8339815191528114611a1e5760405162461bcd60e51b815260206004820152602960248201527f45524331393637557067726164653a20756e737570706f727465642070726f786044820152681a58589b195555525160ba1b6064820152608401610695565b5061065c83838361310d565b60008054610100900460ff1615611a71578160ff166001148015611a4d5750303b155b611a695760405162461bcd60e51b815260040161069590614024565b506000919050565b60005460ff808416911610611a985760405162461bcd60e51b815260040161069590614024565b506000805460ff191660ff92909216919091179055600190565b6000611abe6001611a2a565b90508015611ad6576000805461ff0019166101001790555b611ade613138565b611ae6613138565b611af1600033611799565b610b357f189ab7a9244df0848122154315af71fe140f3db0fe014031783b0946b8c9d2e333611799565b61015f546001600160a01b03838116911614611b495760405162461bcd60e51b8152600401610695906140a0565b61016454604080516304c8b65560e21b8152815160009384936001600160a01b0390911692631322d9549260048083019392829003018186803b158015611b8f57600080fd5b505afa158015611ba3573d6000803e3d6000fd5b505050506040513d601f19601f82011682018060405250810190611bc79190613d19565b61015f546040516370a0823160e01b81523060048201529294509092506000916001600160a01b03909116906370a082319060240160206040518083038186803b158015611c1457600080fd5b505afa158015611c28573d6000803e3d6000fd5b505050506040513d601f19601f82011682018060405250810190611c4c9190613cb1565b6101675461015f5461016054929350600092611c829285928892889260019283928392916001600160a01b0390811691166131a3565b6101675461015f5461016054929350611cae926000916001600160a01b03908116911630808785613252565b5061015f546040516370a0823160e01b81523060048201526000916001600160a01b0316906370a082319060240160206040518083038186803b158015611cf457600080fd5b505afa158015611d08573d6000803e3d6000fd5b505050506040513d601f19601f82011682018060405250810190611d2c9190613cb1565b610160546040516370a0823160e01b81523060048201529192506000916001600160a01b03909116906370a082319060240160206040518083038186803b158015611d7657600080fd5b505afa158015611d8a573d6000803e3d6000fd5b505050506040513d601f19601f82011682018060405250810190611dae9190613cb1565b61015f546101625460405163095ea7b360e01b81526001600160a01b03918216600482015260248101869052929350169063095ea7b390604401602060405180830381600087803b158015611e0257600080fd5b505af1158015611e16573d6000803e3d6000fd5b505050506040513d601f19601f82011682018060405250810190611e3a9190613c7b565b50610160546101625460405163095ea7b360e01b81526001600160a01b0391821660048201526024810184905291169063095ea7b390604401602060405180830381600087803b158015611e8d57600080fd5b505af1158015611ea1573d6000803e3d6000fd5b505050506040513d601f19601f82011682018060405250810190611ec59190613c7b565b5061016254610163546001600160a01b039182169163046e492291168484611eee8260046134c1565b611ef98760046134c1565b6040516001600160e01b031960e088901b1681526001600160a01b03909516600486015260248501939093526044840191909152606483015260848201523060a482015260c401606060405180830381600087803b158015611f5a57600080fd5b505af1158015611f6e573d6000803e3d6000fd5b505050506040513d601f19601f82011682018060405250810190611f929190613d80565b5050505050505050505050565b610163546040516370a0823160e01b81523060048201526000916001600160a01b0316906370a082319060240160206040518083038186803b158015611fe457600080fd5b505afa158015611ff8573d6000803e3d6000fd5b505050506040513d601f19601f8201168201806040525081019061201c9190613cb1565b156120805761016354604051634274debf60e11b81523060048201526001600160a01b03909116906384e9bd7e90602401600060405180830381600087803b15801561206757600080fd5b505af115801561207b573d6000803e3d6000fd5b505050505b610161546040516370a0823160e01b81523060048201526000916001600160a01b0316906370a082319060240160206040518083038186803b1580156120c557600080fd5b505afa1580156120d9573d6000803e3d6000fd5b505050506040513d601f19601f820116820180604052508101906120fd9190613cb1565b905080156121c357610168546101615461015f5460009261213292909184916001600160a01b03908116911630808885613252565b61015f5460405163a9059cbb60e01b81526001600160a01b0387811660048301526024820184905292935091169063a9059cbb90604401602060405180830381600087803b15801561218357600080fd5b505af1158015612197573d6000803e3d6000fd5b505050506040513d601f19601f820116820180604052508101906121bb9190613c7b565b509392505050565b50600092915050565b61015f546000906001600160a01b038481169116146121fd5760405162461bcd60e51b8152600401610695906140a0565b610163546040516370a0823160e01b81523060048201526000916001600160a01b0316906370a082319060240160206040518083038186803b15801561224257600080fd5b505afa158015612256573d6000803e3d6000fd5b505050506040513d601f19601f8201168201806040525081019061227a9190613cb1565b90508061228b576000915050610620565b61016454604080516304c8b65560e21b8152815160009384936001600160a01b0390911692631322d9549260048083019392829003018186803b1580156122d157600080fd5b505afa1580156122e5573d6000803e3d6000fd5b505050506040513d601f19601f820116820180604052508101906123099190613d19565b91509150600061016460009054906101000a90046001600160a01b03166001600160a01b03166318160ddd6040518163ffffffff1660e01b815260040160206040518083038186803b15801561235e57600080fd5b505afa158015612372573d6000803e3d6000fd5b505050506040513d601f19601f820116820180604052508101906123969190613cb1565b6123a085856142de565b6123aa91906142bc565b9050600061016460009054906101000a90046001600160a01b03166001600160a01b03166318160ddd6040518163ffffffff1660e01b815260040160206040518083038186803b1580156123fd57600080fd5b505afa158015612411573d6000803e3d6000fd5b505050506040513d601f19601f820116820180604052508101906124359190613cb1565b61243f86856142de565b61244991906142bc565b610163546101625460405163095ea7b360e01b81526001600160a01b03918216600482015260248101899052929350169063095ea7b390604401602060405180830381600087803b15801561249d57600080fd5b505af11580156124b1573d6000803e3d6000fd5b505050506040513d601f19601f820116820180604052508101906124d59190613c7b565b5061016254610163546001600160a01b039182169163b83a75b39116876124fd8660046134c1565b6125088660046134c1565b6040516001600160e01b031960e087901b1681526001600160a01b03909416600485015260248401929092526044830152606482015230608482015260a401606060405180830381600087803b15801561256157600080fd5b505af1158015612575573d6000803e3d6000fd5b505050506040513d601f19601f820116820180604052508101906125999190613d3d565b5050610167546101605461015f546040516370a0823160e01b8152306004820181905261263795506000936001600160a01b03908116931691819084906370a08231906024015b60206040518083038186803b1580156125f857600080fd5b505afa15801561260c573d6000803e3d6000fd5b505050506040513d601f19601f820116820180604052508101906126309190613cb1565b6000613252565b5061015f546040516370a0823160e01b81523060048201526001600160a01b03909116906370a082319060240160206040518083038186803b15801561267c57600080fd5b505afa158015612690573d6000803e3d6000fd5b505050506040513d601f19601f820116820180604052508101906117839190613cb1565b61015f546000906001600160a01b038581169116146126e55760405162461bcd60e51b8152600401610695906140a0565b60006126f28460046134e4565b90506126ff600a826142a4565b61016454604080516304c8b65560e21b8152815193945060009384936001600160a01b031692631322d9549260048082019391829003018186803b15801561274657600080fd5b505afa15801561275a573d6000803e3d6000fd5b505050506040513d601f19601f8201168201806040525081019061277e9190613d19565b91509150600061016460009054906101000a90046001600160a01b03166001600160a01b03166318160ddd6040518163ffffffff1660e01b815260040160206040518083038186803b1580156127d357600080fd5b505afa1580156127e7573d6000803e3d6000fd5b505050506040513d601f19601f8201168201806040525081019061280b9190613cb1565b905060006128c185858561016460009054906101000a90046001600160a01b03166001600160a01b03166318160ddd6040518163ffffffff1660e01b815260040160206040518083038186803b15801561286457600080fd5b505afa158015612878573d6000803e3d6000fd5b505050506040513d601f19601f8201168201806040525081019061289c9190613cb1565b6101675461015f5461016054600192839290916001600160a01b0391821691166134f3565b9050818111156128ce5750805b6000826128db83876142de565b6128e591906142bc565b90506000836128f484876142de565b6128fe91906142bc565b610163546101625460405163095ea7b360e01b81526001600160a01b03918216600482015260248101879052929350169063095ea7b390604401602060405180830381600087803b15801561295257600080fd5b505af1158015612966573d6000803e3d6000fd5b505050506040513d601f19601f8201168201806040525081019061298a9190613c7b565b5061016254610163546001600160a01b039182169163b83a75b39116856129b28660046134c1565b6129bd8660046134c1565b6040516001600160e01b031960e087901b1681526001600160a01b03909416600485015260248401929092526044830152606482015230608482015260a401606060405180830381600087803b158015612a1657600080fd5b505af1158015612a2a573d6000803e3d6000fd5b505050506040513d601f19601f82011682018060405250810190612a4e9190613d3d565b5050610167546101605461015f546040516370a0823160e01b81523060048201819052612a9995506000936001600160a01b03908116931691819084906370a08231906024016125e0565b5061015f546040516370a0823160e01b81523060048201526001600160a01b03909116906370a082319060240160206040518083038186803b158015612ade57600080fd5b505afa158015612af2573d6000803e3d6000fd5b505050506040513d601f19601f82011682018060405250810190612b169190613cb1565b9750505050505050505b9392505050565b604080516101208101825260008082526020820181905291810182905260608082018390526080820183905260a0820183905260c0820183905260e0820183905261010082015280866001811115612b8157612b816143a8565b90816001811115612b9457612b946143a8565b9052506001600160a01b0385811660208301528481166040808401919091526060830185905261012d549051631f29a8cd60e31b8152600481018a90526000928392839291169063f94d46689060240160006040518083038186803b158015612bfc57600080fd5b505afa158015612c10573d6000803e3d6000fd5b505050506040513d6000823e601f3d908101601f19168201604052612c389190810190613ba6565b61012d5460405163f6c0092760e01b8152600481018f9052939650919450925060009182916001600160a01b03169063f6c0092790602401604080518083038186803b158015612c8757600080fd5b505afa158015612c9b573d6000803e3d6000fd5b505050506040513d601f19601f82011682018060405250810190612cbf9190613ae9565b90925090506000816002811115612cd857612cd86143a8565b1415612e115760008060005b87518160ff161015612d80578c6001600160a01b0316888260ff1681518110612d0f57612d0f6143be565b60200260200101516001600160a01b03161415612d31578060ff169250612d6e565b8b6001600160a01b0316888260ff1681518110612d5057612d506143be565b60200260200101516001600160a01b03161415612d6e578060ff1691505b80612d7881614372565b915050612ce4565b5060405162f64aa560e11b81526001600160a01b038516906301ec954a90612db2908b908a90879087906004016141c9565b60206040518083038186803b158015612dca57600080fd5b505afa158015612dde573d6000803e3d6000fd5b505050506040513d601f19601f82011682018060405250810190612e029190613cb1565b98505050505050505050613004565b6001816002811115612e2557612e256143a8565b1415612f305760008060005b87518160ff161015612eff578c6001600160a01b0316888260ff1681518110612e5c57612e5c6143be565b60200260200101516001600160a01b03161415612e9757868160ff1681518110612e8857612e886143be565b60200260200101519250612eed565b8b6001600160a01b0316888260ff1681518110612eb657612eb66143be565b60200260200101516001600160a01b03161415612eed57868160ff1681518110612ee257612ee26143be565b602002602001015191505b80612ef781614372565b915050612e31565b5060405163274b044360e21b81526001600160a01b03851690639d2c110c90612db2908b908690869060040161422a565b60008060005b87518160ff161015612eff578c6001600160a01b0316888260ff1681518110612f6157612f616143be565b60200260200101516001600160a01b03161415612f9c57868160ff1681518110612f8d57612f8d6143be565b60200260200101519250612ff2565b8b6001600160a01b0316888260ff1681518110612fbb57612fbb6143be565b60200260200101516001600160a01b03161415612ff257868160ff1681518110612fe757612fe76143be565b602002602001015191505b80612ffc81614372565b915050612f36565b95945050505050565b6130178282610b77565b61074f5761302f816001600160a01b031660146135c2565b61303a8360206135c2565b60405160200161304b929190613ecd565b60408051601f198184030181529082905262461bcd60e51b825261069591600401613f42565b6001600160a01b0381163b6130de5760405162461bcd60e51b815260206004820152602d60248201527f455243313936373a206e657720696d706c656d656e746174696f6e206973206e60448201526c1bdd08184818dbdb9d1c9858dd609a1b6064820152608401610695565b60008051602061442e83398151915280546001600160a01b0319166001600160a01b0392909216919091179055565b6131168361375e565b6000825111806131235750805b1561065c57613132838361379e565b50505050565b600054610100900460ff16610b075760405162461bcd60e51b815260206004820152602b60248201527f496e697469616c697a61626c653a20636f6e7472616374206973206e6f74206960448201526a6e697469616c697a696e6760a81b6064820152608401610695565b60008088886131b2898d6142de565b6131bc91906142bc565b6131c691906142a4565b6131d08a8d6142de565b6131da91906142bc565b905060005b868110156132435760006131f7876000888887612b27565b90508a83613205838f6142de565b61320f91906142bc565b61321991906142a4565b6132238c8f6142de565b61322d91906142bc565b925050808061323b90614357565b9150506131df565b509a9950505050505050505050565b61012d546040516370a0823160e01b81523060048201526000916001600160a01b038981169263095ea7b392919091169083906370a082319060240160206040518083038186803b1580156132a657600080fd5b505afa1580156132ba573d6000803e3d6000fd5b505050506040513d601f19601f820116820180604052508101906132de9190613cb1565b6040516001600160e01b031960e085901b1681526001600160a01b0390921660048301526024820152604401602060405180830381600087803b15801561332457600080fd5b505af1158015613338573d6000803e3d6000fd5b505050506040513d601f19601f8201168201806040525081019061335c9190613c7b565b506133a96040805160c0810190915260008082526020820190815260200160006001600160a01b0316815260200160006001600160a01b0316815260200160008152602001606081525090565b898152602081018960018111156133c2576133c26143a8565b908160018111156133d5576133d56143a8565b9052506001600160a01b038881166040838101919091528882166060808501919091526080808501889052825190810183526000602082018190529181019190915288831681528783169181019190915261012d549091166352bbbe29838387613441426102586142a4565b6040518563ffffffff1660e01b8152600401613460949392919061410e565b602060405180830381600087803b15801561347a57600080fd5b505af115801561348e573d6000803e3d6000fd5b505050506040513d601f19601f820116820180604052508101906134b29190613cb1565b9b9a5050505050505050505050565b60006127106134d083826142fd565b6134da90856142de565b612b2091906142bc565b60006127106134d083826142a4565b600080613500878a6142de565b61350a878c6142de565b61351491906142a4565b8661351f8d8b6142de565b61352991906142de565b61353391906142bc565b905060005b60018110156132435760008961354e848d6142de565b61355891906142bc565b9050600061356a886000888a86612b27565b9050613576818d6142de565b613580838f6142de565b61358a91906142a4565b828f8d61359791906142de565b6135a191906142de565b6135ab91906142bc565b9350505080806135ba90614357565b915050613538565b606060006135d18360026142de565b6135dc9060026142a4565b67ffffffffffffffff8111156135f4576135f46143d4565b6040519080825280601f01601f19166020018201604052801561361e576020820181803683370190505b509050600360fc1b81600081518110613639576136396143be565b60200101906001600160f81b031916908160001a905350600f60fb1b81600181518110613668576136686143be565b60200101906001600160f81b031916908160001a905350600061368c8460026142de565b6136979060016142a4565b90505b600181111561370f576f181899199a1a9b1b9c1cb0b131b232b360811b85600f16601081106136cb576136cb6143be565b1a60f81b8282815181106136e1576136e16143be565b60200101906001600160f81b031916908160001a90535060049490941c9361370881614340565b905061369a565b508315612b205760405162461bcd60e51b815260206004820181905260248201527f537472696e67733a20686578206c656e67746820696e73756666696369656e746044820152606401610695565b61376781613071565b6040516001600160a01b038216907fbc7cd75a20ee27fd9adebab32041f755214dbc6bffa90cc0225b39da2e5c2d3b90600090a250565b60606001600160a01b0383163b6138065760405162461bcd60e51b815260206004820152602660248201527f416464726573733a2064656c65676174652063616c6c20746f206e6f6e2d636f6044820152651b9d1c9858dd60d21b6064820152608401610695565b600080846001600160a01b0316846040516138219190613eb1565b600060405180830381855af49150503d806000811461385c576040519150601f19603f3d011682016040523d82523d6000602084013e613861565b606091505b5091509150613004828260405180606001604052806027815260200161444e6027913960608315613893575081612b20565b8251156138a35782518084602001fd5b8160405162461bcd60e51b81526004016106959190613f42565b600082601f8301126138ce57600080fd5b815160206138e36138de83614280565b61424f565b80838252828201915082860187848660051b890101111561390357600080fd5b60005b8581101561392257815184529284019290840190600101613906565b5090979650505050505050565b60006020828403121561394157600080fd5b8135612b20816143ea565b60008060006060848603121561396157600080fd5b833561396c816143ea565b9250602084013561397c816143ea565b9150604084013561398c816143ea565b809150509250925092565b60008060008060008060008060006101208a8c0312156139b657600080fd5b89356139c1816143ea565b985060208a01356139d1816143ea565b975060408a01356139e1816143ea565b965060608a01356139f1816143ea565b955060808a0135945060a08a0135935060c08a0135613a0f816143ea565b925060e08a0135613a1f816143ea565b91506101008a0135613a30816143ea565b809150509295985092959850929598565b60008060408385031215613a5457600080fd5b8235613a5f816143ea565b915060208381013567ffffffffffffffff80821115613a7d57600080fd5b818601915086601f830112613a9157600080fd5b813581811115613aa357613aa36143d4565b613ab5601f8201601f1916850161424f565b91508082528784828501011115613acb57600080fd5b80848401858401376000848284010152508093505050509250929050565b60008060408385031215613afc57600080fd5b8251613b07816143ea565b602084015190925060038110613b1c57600080fd5b809150509250929050565b60008060408385031215613b3a57600080fd5b8235613b45816143ea565b946020939093013593505050565b60008060008060808587031215613b6957600080fd5b8435613b74816143ea565b9350602085013592506040850135613b8b816143ea565b91506060850135613b9b816143ff565b939692955090935050565b600080600060608486031215613bbb57600080fd5b835167ffffffffffffffff80821115613bd357600080fd5b818601915086601f830112613be757600080fd5b81516020613bf76138de83614280565b8083825282820191508286018b848660051b8901011115613c1757600080fd5b600096505b84871015613c43578051613c2f816143ea565b835260019690960195918301918301613c1c565b5091890151919750909350505080821115613c5d57600080fd5b50613c6a868287016138bd565b925050604084015190509250925092565b600060208284031215613c8d57600080fd5b8151612b20816143ff565b600060208284031215613caa57600080fd5b5035919050565b600060208284031215613cc357600080fd5b5051919050565b60008060408385031215613cdd57600080fd5b823591506020830135613b1c816143ea565b600060208284031215613d0157600080fd5b81356001600160e01b031981168114612b2057600080fd5b60008060408385031215613d2c57600080fd5b505080516020909101519092909150565b600080600060608486031215613d5257600080fd5b835192506020840151915060408401516fffffffffffffffffffffffffffffffff8116811461398c57600080fd5b600080600060608486031215613d9557600080fd5b8351925060208401519150604084015190509250925092565b60008151808452613dc6816020860160208601614314565b601f01601f19169290920160200192915050565b60028110613df857634e487b7160e01b600052602160045260246000fd5b9052565b6000610120613e0c848451613dda565b6020838101516001600160a01b03169085015260408084015190613e3a908601826001600160a01b03169052565b50606083015160608501526080830151608085015260a083015160a085015260c0830151613e7360c08601826001600160a01b03169052565b5060e0830151613e8e60e08601826001600160a01b03169052565b50610100808401518282870152613ea783870182613dae565b9695505050505050565b60008251613ec3818460208701614314565b9190910192915050565b7f416363657373436f6e74726f6c3a206163636f756e7420000000000000000000815260008351613f05816017850160208801614314565b7001034b99036b4b9b9b4b733903937b6329607d1b6017918401918201528351613f36816028840160208801614314565b01602801949350505050565b602081526000612b206020830184613dae565b6020808252601f908201527f5265737472696374656420746f20504f5254464f4c494f5f4d414e4147455200604082015260600190565b6020808252602c908201527f46756e6374696f6e206d7573742062652063616c6c6564207468726f7567682060408201526b19195b1959d85d1958d85b1b60a21b606082015260800190565b6020808252602c908201527f46756e6374696f6e206d7573742062652063616c6c6564207468726f7567682060408201526b6163746976652070726f787960a01b606082015260800190565b6020808252602e908201527f496e697469616c697a61626c653a20636f6e747261637420697320616c72656160408201526d191e481a5b9a5d1a585b1a5e995960921b606082015260800190565b6020808252601490820152735265737472696374656420746f2061646d696e7360601b604082015260600190565b60208082526019908201527f536f6d6520746f6b656e206e6f7420636f6d70617469626c6500000000000000604082015260600190565b60208082526018908201527f5a65726f2061646472657373206e6f7420616c6c6f7765640000000000000000604082015260600190565b60e08152845160e08201526000602086015161412e610100840182613dda565b5060408601516001600160a01b03908116610120840152606087015116610140830152608086015161016083015260a086015160c06101808401526141776101a0840182613dae565b9150506141b7602083018680516001600160a01b039081168352602080830151151590840152604080830151909116908301526060908101511515910152565b60a082019390935260c0015292915050565b6080815260006141dc6080830187613dfc565b82810360208481019190915286518083528782019282019060005b81811015614213578451835293830193918301916001016141f7565b505060408501969096525050506060015292915050565b60608152600061423d6060830186613dfc565b60208301949094525060400152919050565b604051601f8201601f1916810167ffffffffffffffff81118282101715614278576142786143d4565b604052919050565b600067ffffffffffffffff82111561429a5761429a6143d4565b5060051b60200190565b600082198211156142b7576142b7614392565b500190565b6000826142d957634e487b7160e01b600052601260045260246000fd5b500490565b60008160001904831182151516156142f8576142f8614392565b500290565b60008282101561430f5761430f614392565b500390565b60005b8381101561432f578181015183820152602001614317565b838111156131325750506000910152565b60008161434f5761434f614392565b506000190190565b600060001982141561436b5761436b614392565b5060010190565b600060ff821660ff81141561438957614389614392565b60010192915050565b634e487b7160e01b600052601160045260246000fd5b634e487b7160e01b600052602160045260246000fd5b634e487b7160e01b600052603260045260246000fd5b634e487b7160e01b600052604160045260246000fd5b6001600160a01b038116811461083057600080fd5b801515811461083057600080fdfe90c2aa7471c04182221f68e80c07ab1e5946e4c63f8693e14ca40385d529f051360894a13ba1a3210667c828492db98dca3e2076cc3735a920a3ca505d382bbc416464726573733a206c6f772d6c6576656c2064656c65676174652063616c6c206661696c6564a2646970667358221220431d495f62f70b327435709751facd07522f75412faf8d5c91ed421c09a2014264736f6c63430008060033496e697469616c697a61626c653a20636f6e747261637420697320616c726561",
  "devdoc": {
    "kind": "dev",
    "methods": {
      "constructor": {
        "custom:oz-upgrades-unsafe-allow": "constructor"
      },
      "getRoleAdmin(bytes32)": {
        "details": "Returns the admin role that controls `role`. See {grantRole} and {revokeRole}. To change a role's admin, use {_setRoleAdmin}."
      },
      "grantRole(bytes32,address)": {
        "details": "Grants `role` to `account`. If `account` had not been already granted `role`, emits a {RoleGranted} event. Requirements: - the caller must have ``role``'s admin role."
      },
      "hasRole(bytes32,address)": {
        "details": "Returns `true` if `account` has been granted `role`."
      },
      "proxiableUUID()": {
        "details": "Implementation of the ERC1822 {proxiableUUID} function. This returns the storage slot used by the implementation. It is used to validate that the this implementation remains valid after an upgrade. IMPORTANT: A proxy pointing at a proxiable contract should not be considered proxiable itself, because this risks bricking a proxy that upgrades to it, by delegating to itself until out of gas. Thus it is critical that this function revert if invoked through a proxy. This is guaranteed by the `notDelegated` modifier."
      },
      "renounceRole(bytes32,address)": {
        "details": "Revokes `role` from the calling account. Roles are often managed via {grantRole} and {revokeRole}: this function's purpose is to provide a mechanism for accounts to lose their privileges if they are compromised (such as when a trusted device is misplaced). If the calling account had been revoked `role`, emits a {RoleRevoked} event. Requirements: - the caller must be `account`."
      },
      "revokeRole(bytes32,address)": {
        "details": "Revokes `role` from `account`. If `account` had been granted `role`, emits a {RoleRevoked} event. Requirements: - the caller must have ``role``'s admin role."
      },
      "supportsInterface(bytes4)": {
        "details": "See {IERC165-supportsInterface}."
      },
      "upgradeTo(address)": {
        "details": "Upgrade the implementation of the proxy to `newImplementation`. Calls {_authorizeUpgrade}. Emits an {Upgraded} event."
      },
      "upgradeToAndCall(address,bytes)": {
        "details": "Upgrade the implementation of the proxy to `newImplementation`, and subsequently execute the function call encoded in `data`. Calls {_authorizeUpgrade}. Emits an {Upgraded} event."
      }
    },
    "version": 1
  },
  "userdoc": {
    "kind": "user",
    "methods": {},
    "version": 1
  },
  "storageLayout": {
    "storage": [
      {
        "astId": 808,
        "contract": "contracts/StrategyArrakis.sol:StrategyArrakis",
        "label": "_initialized",
        "offset": 0,
        "slot": "0",
        "type": "t_uint8"
      },
      {
        "astId": 811,
        "contract": "contracts/StrategyArrakis.sol:StrategyArrakis",
        "label": "_initializing",
        "offset": 1,
        "slot": "0",
        "type": "t_bool"
      },
      {
        "astId": 1363,
        "contract": "contracts/StrategyArrakis.sol:StrategyArrakis",
        "label": "__gap",
        "offset": 0,
        "slot": "1",
        "type": "t_array(t_uint256)50_storage"
      },
      {
        "astId": 1670,
        "contract": "contracts/StrategyArrakis.sol:StrategyArrakis",
        "label": "__gap",
        "offset": 0,
        "slot": "51",
        "type": "t_array(t_uint256)50_storage"
      },
      {
        "astId": 39,
        "contract": "contracts/StrategyArrakis.sol:StrategyArrakis",
        "label": "_roles",
        "offset": 0,
        "slot": "101",
        "type": "t_mapping(t_bytes32,t_struct(RoleData)34_storage)"
      },
      {
        "astId": 338,
        "contract": "contracts/StrategyArrakis.sol:StrategyArrakis",
        "label": "__gap",
        "offset": 0,
        "slot": "102",
        "type": "t_array(t_uint256)49_storage"
      },
      {
        "astId": 790,
        "contract": "contracts/StrategyArrakis.sol:StrategyArrakis",
        "label": "__gap",
        "offset": 0,
        "slot": "151",
        "type": "t_array(t_uint256)50_storage"
      },
      {
        "astId": 1078,
        "contract": "contracts/StrategyArrakis.sol:StrategyArrakis",
        "label": "__gap",
        "offset": 0,
        "slot": "201",
        "type": "t_array(t_uint256)50_storage"
      },
      {
        "astId": 32168,
        "contract": "contracts/StrategyArrakis.sol:StrategyArrakis",
        "label": "portfolioManager",
        "offset": 0,
        "slot": "251",
        "type": "t_address"
      },
      {
        "astId": 32490,
        "contract": "contracts/StrategyArrakis.sol:StrategyArrakis",
        "label": "__gap",
        "offset": 0,
        "slot": "252",
        "type": "t_array(t_uint256)49_storage"
      },
      {
        "astId": 32506,
        "contract": "contracts/StrategyArrakis.sol:StrategyArrakis",
        "label": "balancerVault",
        "offset": 0,
        "slot": "301",
        "type": "t_contract(IVault)27471"
      },
      {
        "astId": 33474,
        "contract": "contracts/StrategyArrakis.sol:StrategyArrakis",
        "label": "__gap",
        "offset": 0,
        "slot": "302",
        "type": "t_array(t_uint256)49_storage"
      },
      {
        "astId": 3430,
        "contract": "contracts/StrategyArrakis.sol:StrategyArrakis",
        "label": "usdcToken",
        "offset": 0,
        "slot": "351",
        "type": "t_contract(IERC20)1823"
      },
      {
        "astId": 3433,
        "contract": "contracts/StrategyArrakis.sol:StrategyArrakis",
        "label": "usdtToken",
        "offset": 0,
        "slot": "352",
        "type": "t_contract(IERC20)1823"
      },
      {
        "astId": 3436,
        "contract": "contracts/StrategyArrakis.sol:StrategyArrakis",
        "label": "wmaticToken",
        "offset": 0,
        "slot": "353",
        "type": "t_contract(IERC20)1823"
      },
      {
        "astId": 3439,
        "contract": "contracts/StrategyArrakis.sol:StrategyArrakis",
        "label": "arrakisRouter",
        "offset": 0,
        "slot": "354",
        "type": "t_contract(IArrakisV1RouterStaking)26018"
      },
      {
        "astId": 3442,
        "contract": "contracts/StrategyArrakis.sol:StrategyArrakis",
        "label": "arrakisRewards",
        "offset": 0,
        "slot": "355",
        "type": "t_contract(IArrakisRewards)25975"
      },
      {
        "astId": 3445,
        "contract": "contracts/StrategyArrakis.sol:StrategyArrakis",
        "label": "arrakisVault",
        "offset": 0,
        "slot": "356",
        "type": "t_contract(IArrakisVault)26093"
      },
      {
        "astId": 3448,
        "contract": "contracts/StrategyArrakis.sol:StrategyArrakis",
        "label": "uniswapV3Pool",
        "offset": 0,
        "slot": "357",
        "type": "t_contract(IUniswapV3Pool)31020"
      },
      {
        "astId": 3451,
        "contract": "contracts/StrategyArrakis.sol:StrategyArrakis",
        "label": "uniswapPositionManager",
        "offset": 0,
        "slot": "358",
        "type": "t_contract(INonfungiblePositionManager)30777"
      },
      {
        "astId": 3453,
        "contract": "contracts/StrategyArrakis.sol:StrategyArrakis",
        "label": "balancerPoolIdStable",
        "offset": 0,
        "slot": "359",
        "type": "t_bytes32"
      },
      {
        "astId": 3455,
        "contract": "contracts/StrategyArrakis.sol:StrategyArrakis",
        "label": "balancerPoolIdWmatic",
        "offset": 0,
        "slot": "360",
        "type": "t_bytes32"
      },
      {
        "astId": 3458,
        "contract": "contracts/StrategyArrakis.sol:StrategyArrakis",
        "label": "oracleUsdc",
        "offset": 0,
        "slot": "361",
        "type": "t_contract(IPriceFeed)25031"
      },
      {
        "astId": 3461,
        "contract": "contracts/StrategyArrakis.sol:StrategyArrakis",
        "label": "oracleUsdt",
        "offset": 0,
        "slot": "362",
        "type": "t_contract(IPriceFeed)25031"
      }
    ],
    "types": {
      "t_address": {
        "encoding": "inplace",
        "label": "address",
        "numberOfBytes": "20"
      },
      "t_array(t_uint256)49_storage": {
        "base": "t_uint256",
        "encoding": "inplace",
        "label": "uint256[49]",
        "numberOfBytes": "1568"
      },
      "t_array(t_uint256)50_storage": {
        "base": "t_uint256",
        "encoding": "inplace",
        "label": "uint256[50]",
        "numberOfBytes": "1600"
      },
      "t_bool": {
        "encoding": "inplace",
        "label": "bool",
        "numberOfBytes": "1"
      },
      "t_bytes32": {
        "encoding": "inplace",
        "label": "bytes32",
        "numberOfBytes": "32"
      },
      "t_contract(IArrakisRewards)25975": {
        "encoding": "inplace",
        "label": "contract IArrakisRewards",
        "numberOfBytes": "20"
      },
      "t_contract(IArrakisV1RouterStaking)26018": {
        "encoding": "inplace",
        "label": "contract IArrakisV1RouterStaking",
        "numberOfBytes": "20"
      },
      "t_contract(IArrakisVault)26093": {
        "encoding": "inplace",
        "label": "contract IArrakisVault",
        "numberOfBytes": "20"
      },
      "t_contract(IERC20)1823": {
        "encoding": "inplace",
        "label": "contract IERC20",
        "numberOfBytes": "20"
      },
      "t_contract(INonfungiblePositionManager)30777": {
        "encoding": "inplace",
        "label": "contract INonfungiblePositionManager",
        "numberOfBytes": "20"
      },
      "t_contract(IPriceFeed)25031": {
        "encoding": "inplace",
        "label": "contract IPriceFeed",
        "numberOfBytes": "20"
      },
      "t_contract(IUniswapV3Pool)31020": {
        "encoding": "inplace",
        "label": "contract IUniswapV3Pool",
        "numberOfBytes": "20"
      },
      "t_contract(IVault)27471": {
        "encoding": "inplace",
        "label": "contract IVault",
        "numberOfBytes": "20"
      },
      "t_mapping(t_address,t_bool)": {
        "encoding": "mapping",
        "key": "t_address",
        "label": "mapping(address => bool)",
        "numberOfBytes": "32",
        "value": "t_bool"
      },
      "t_mapping(t_bytes32,t_struct(RoleData)34_storage)": {
        "encoding": "mapping",
        "key": "t_bytes32",
        "label": "mapping(bytes32 => struct AccessControlUpgradeable.RoleData)",
        "numberOfBytes": "32",
        "value": "t_struct(RoleData)34_storage"
      },
      "t_struct(RoleData)34_storage": {
        "encoding": "inplace",
        "label": "struct AccessControlUpgradeable.RoleData",
        "members": [
          {
            "astId": 31,
            "contract": "contracts/StrategyArrakis.sol:StrategyArrakis",
            "label": "members",
            "offset": 0,
            "slot": "0",
            "type": "t_mapping(t_address,t_bool)"
          },
          {
            "astId": 33,
            "contract": "contracts/StrategyArrakis.sol:StrategyArrakis",
            "label": "adminRole",
            "offset": 0,
            "slot": "1",
            "type": "t_bytes32"
          }
        ],
        "numberOfBytes": "64"
      },
      "t_uint256": {
        "encoding": "inplace",
        "label": "uint256",
        "numberOfBytes": "32"
      },
      "t_uint8": {
        "encoding": "inplace",
        "label": "uint8",
        "numberOfBytes": "1"
      }
    }
  }
}