{
  "address": "0xa50b5B9c19A22E797Dc1f56263e3e364c1C7B642",
  "abi": [
    {
      "anonymous": false,
      "inputs": [
        {
          "indexed": false,
          "internalType": "address",
          "name": "previousAdmin",
          "type": "address"
        },
        {
          "indexed": false,
          "internalType": "address",
          "name": "newAdmin",
          "type": "address"
        }
      ],
      "name": "AdminChanged",
      "type": "event"
    },
    {
      "anonymous": false,
      "inputs": [
        {
          "indexed": true,
          "internalType": "address",
          "name": "beacon",
          "type": "address"
        }
      ],
      "name": "BeaconUpgraded",
      "type": "event"
    },
    {
      "anonymous": false,
      "inputs": [
        {
          "indexed": false,
          "internalType": "uint8",
          "name": "version",
          "type": "uint8"
        }
      ],
      "name": "Initialized",
      "type": "event"
    },
    {
      "anonymous": false,
      "inputs": [
        {
          "indexed": false,
          "internalType": "uint256[]",
          "name": "amountsIn",
          "type": "uint256[]"
        },
        {
          "indexed": false,
          "internalType": "address[]",
          "name": "tokensIn",
          "type": "address[]"
        }
      ],
      "name": "InputTokens",
      "type": "event"
    },
    {
      "anonymous": false,
      "inputs": [
        {
          "indexed": false,
          "internalType": "uint256[]",
          "name": "amountsOut",
          "type": "uint256[]"
        },
        {
          "indexed": false,
          "internalType": "address[]",
          "name": "tokensOut",
          "type": "address[]"
        }
      ],
      "name": "OutputTokens",
      "type": "event"
    },
    {
      "anonymous": false,
      "inputs": [
        {
          "indexed": false,
          "internalType": "uint256[]",
          "name": "amountsPut",
          "type": "uint256[]"
        },
        {
          "indexed": false,
          "internalType": "address[]",
          "name": "tokensPut",
          "type": "address[]"
        }
      ],
      "name": "PutIntoPool",
      "type": "event"
    },
    {
      "anonymous": false,
      "inputs": [
        {
          "indexed": false,
          "internalType": "uint256[]",
          "name": "amountsReturned",
          "type": "uint256[]"
        },
        {
          "indexed": false,
          "internalType": "address[]",
          "name": "tokensReturned",
          "type": "address[]"
        }
      ],
      "name": "ReturnedToUser",
      "type": "event"
    },
    {
      "anonymous": false,
      "inputs": [
        {
          "indexed": true,
          "internalType": "bytes32",
          "name": "role",
          "type": "bytes32"
        },
        {
          "indexed": true,
          "internalType": "bytes32",
          "name": "previousAdminRole",
          "type": "bytes32"
        },
        {
          "indexed": true,
          "internalType": "bytes32",
          "name": "newAdminRole",
          "type": "bytes32"
        }
      ],
      "name": "RoleAdminChanged",
      "type": "event"
    },
    {
      "anonymous": false,
      "inputs": [
        {
          "indexed": true,
          "internalType": "bytes32",
          "name": "role",
          "type": "bytes32"
        },
        {
          "indexed": true,
          "internalType": "address",
          "name": "account",
          "type": "address"
        },
        {
          "indexed": true,
          "internalType": "address",
          "name": "sender",
          "type": "address"
        }
      ],
      "name": "RoleGranted",
      "type": "event"
    },
    {
      "anonymous": false,
      "inputs": [
        {
          "indexed": true,
          "internalType": "bytes32",
          "name": "role",
          "type": "bytes32"
        },
        {
          "indexed": true,
          "internalType": "address",
          "name": "account",
          "type": "address"
        },
        {
          "indexed": true,
          "internalType": "address",
          "name": "sender",
          "type": "address"
        }
      ],
      "name": "RoleRevoked",
      "type": "event"
    },
    {
      "anonymous": false,
      "inputs": [
        {
          "indexed": false,
          "internalType": "uint256",
          "name": "stakeSlippageBP",
          "type": "uint256"
        }
      ],
      "name": "UpdateSlippages",
      "type": "event"
    },
    {
      "anonymous": false,
      "inputs": [
        {
          "indexed": true,
          "internalType": "address",
          "name": "implementation",
          "type": "address"
        }
      ],
      "name": "Upgraded",
      "type": "event"
    },
    {
      "inputs": [],
      "name": "DEFAULT_ADMIN_ROLE",
      "outputs": [
        {
          "internalType": "bytes32",
          "name": "",
          "type": "bytes32"
        }
      ],
      "stateMutability": "view",
      "type": "function"
    },
    {
      "inputs": [
        {
          "internalType": "address",
          "name": "_gauge",
          "type": "address"
        }
      ],
      "name": "getProportion",
      "outputs": [
        {
          "internalType": "uint256",
          "name": "token0Amount",
          "type": "uint256"
        },
        {
          "internalType": "uint256",
          "name": "token1Amount",
          "type": "uint256"
        },
        {
          "internalType": "uint256",
          "name": "denominator",
          "type": "uint256"
        }
      ],
      "stateMutability": "view",
      "type": "function"
    },
    {
      "inputs": [
        {
          "internalType": "bytes32",
          "name": "role",
          "type": "bytes32"
        }
      ],
      "name": "getRoleAdmin",
      "outputs": [
        {
          "internalType": "bytes32",
          "name": "",
          "type": "bytes32"
        }
      ],
      "stateMutability": "view",
      "type": "function"
    },
    {
      "inputs": [
        {
          "internalType": "bytes32",
          "name": "role",
          "type": "bytes32"
        },
        {
          "internalType": "address",
          "name": "account",
          "type": "address"
        }
      ],
      "name": "grantRole",
      "outputs": [],
      "stateMutability": "nonpayable",
      "type": "function"
    },
    {
      "inputs": [
        {
          "internalType": "bytes32",
          "name": "role",
          "type": "bytes32"
        },
        {
          "internalType": "address",
          "name": "account",
          "type": "address"
        }
      ],
      "name": "hasRole",
      "outputs": [
        {
          "internalType": "bool",
          "name": "",
          "type": "bool"
        }
      ],
      "stateMutability": "view",
      "type": "function"
    },
    {
      "inputs": [],
      "name": "initialize",
      "outputs": [],
      "stateMutability": "nonpayable",
      "type": "function"
    },
    {
      "inputs": [],
      "name": "odosRouter",
      "outputs": [
        {
          "internalType": "address",
          "name": "",
          "type": "address"
        }
      ],
      "stateMutability": "view",
      "type": "function"
    },
    {
      "inputs": [],
      "name": "proxiableUUID",
      "outputs": [
        {
          "internalType": "bytes32",
          "name": "",
          "type": "bytes32"
        }
      ],
      "stateMutability": "view",
      "type": "function"
    },
    {
      "inputs": [
        {
          "internalType": "bytes32",
          "name": "role",
          "type": "bytes32"
        },
        {
          "internalType": "address",
          "name": "account",
          "type": "address"
        }
      ],
      "name": "renounceRole",
      "outputs": [],
      "stateMutability": "nonpayable",
      "type": "function"
    },
    {
      "inputs": [
        {
          "internalType": "bytes32",
          "name": "role",
          "type": "bytes32"
        },
        {
          "internalType": "address",
          "name": "account",
          "type": "address"
        }
      ],
      "name": "revokeRole",
      "outputs": [],
      "stateMutability": "nonpayable",
      "type": "function"
    },
    {
      "inputs": [
        {
          "components": [
            {
              "internalType": "address",
              "name": "odosRouter",
              "type": "address"
            },
            {
              "internalType": "address",
              "name": "lynexRouter",
              "type": "address"
            }
          ],
          "internalType": "struct LynexZap.ZapParams",
          "name": "params",
          "type": "tuple"
        }
      ],
      "name": "setParams",
      "outputs": [],
      "stateMutability": "nonpayable",
      "type": "function"
    },
    {
      "inputs": [
        {
          "internalType": "uint256",
          "name": "_stakeSlippageBP",
          "type": "uint256"
        }
      ],
      "name": "setSlippages",
      "outputs": [],
      "stateMutability": "nonpayable",
      "type": "function"
    },
    {
      "inputs": [],
      "name": "stakeSlippageBP",
      "outputs": [
        {
          "internalType": "uint256",
          "name": "",
          "type": "uint256"
        }
      ],
      "stateMutability": "view",
      "type": "function"
    },
    {
      "inputs": [
        {
          "internalType": "bytes4",
          "name": "interfaceId",
          "type": "bytes4"
        }
      ],
      "name": "supportsInterface",
      "outputs": [
        {
          "internalType": "bool",
          "name": "",
          "type": "bool"
        }
      ],
      "stateMutability": "view",
      "type": "function"
    },
    {
      "inputs": [
        {
          "internalType": "address",
          "name": "newImplementation",
          "type": "address"
        }
      ],
      "name": "upgradeTo",
      "outputs": [],
      "stateMutability": "nonpayable",
      "type": "function"
    },
    {
      "inputs": [
        {
          "internalType": "address",
          "name": "newImplementation",
          "type": "address"
        },
        {
          "internalType": "bytes",
          "name": "data",
          "type": "bytes"
        }
      ],
      "name": "upgradeToAndCall",
      "outputs": [],
      "stateMutability": "payable",
      "type": "function"
    },
    {
      "inputs": [
        {
          "components": [
            {
              "components": [
                {
                  "internalType": "address",
                  "name": "tokenAddress",
                  "type": "address"
                },
                {
                  "internalType": "uint256",
                  "name": "amountIn",
                  "type": "uint256"
                }
              ],
              "internalType": "struct OdosZap.InputToken[]",
              "name": "inputs",
              "type": "tuple[]"
            },
            {
              "components": [
                {
                  "internalType": "address",
                  "name": "tokenAddress",
                  "type": "address"
                },
                {
                  "internalType": "address",
                  "name": "receiver",
                  "type": "address"
                }
              ],
              "internalType": "struct OdosZap.OutputToken[]",
              "name": "outputs",
              "type": "tuple[]"
            },
            {
              "internalType": "bytes",
              "name": "data",
              "type": "bytes"
            }
          ],
          "internalType": "struct OdosZap.SwapData",
          "name": "swapData",
          "type": "tuple"
        },
        {
          "components": [
            {
              "internalType": "address",
              "name": "gauge",
              "type": "address"
            },
            {
              "internalType": "uint256[]",
              "name": "amountsOut",
              "type": "uint256[]"
            }
          ],
          "internalType": "struct LynexZap.LynexZapInParams",
          "name": "lynexData",
          "type": "tuple"
        }
      ],
      "name": "zapIn",
      "outputs": [],
      "stateMutability": "nonpayable",
      "type": "function"
    },
    {
      "stateMutability": "payable",
      "type": "receive"
    }
  ],
  "numDeployments": 15,
  "solcInputHash": "48f129a285004bbb6ef71bd8c64df5dd",
  "bytecode": "0x60a06040523060805234801561001457600080fd5b506080516135a661004c60003960008181610665015281816106a50152818161074401528181610784015261081301526135a66000f3fe60806040526004361061010d5760003560e01c80638129fc1c11610095578063a217fddf11610064578063a217fddf146102ce578063c2977d2f146102e3578063c93721ea14610303578063d2849fac1461033e578063d547741f1461035e57600080fd5b80638129fc1c146102415780638321928d14610256578063884b2b8b1461028e57806391d14854146102ae57600080fd5b806336568abe116100dc57806336568abe146101c35780633659cfe6146101e35780634f1ef2861461020357806352d1902d146102165780635ca558f81461022b57600080fd5b806301ffc9a714610119578063248a9ca31461014e578063296dd75d1461018c5780632f2ff15d146101a357600080fd5b3661011457005b600080fd5b34801561012557600080fd5b50610139610134366004612b97565b61037e565b60405190151581526020015b60405180910390f35b34801561015a57600080fd5b5061017e610169366004612bc1565b60009081526065602052604090206001015490565b604051908152602001610145565b34801561019857600080fd5b506101a16103b5565b005b3480156101af57600080fd5b506101a16101be366004612bef565b6105ae565b3480156101cf57600080fd5b506101a16101de366004612bef565b6105d8565b3480156101ef57600080fd5b506101a16101fe366004612c1f565b61065b565b6101a1610211366004612d3b565b61073a565b34801561022257600080fd5b5061017e610806565b34801561023757600080fd5b5061017e60fb5481565b34801561024d57600080fd5b506101a16108b9565b34801561026257600080fd5b5060fc54610276906001600160a01b031681565b6040516001600160a01b039091168152602001610145565b34801561029a57600080fd5b506101a16102a9366004612bc1565b6109e2565b3480156102ba57600080fd5b506101396102c9366004612bef565b610a3e565b3480156102da57600080fd5b5061017e600081565b3480156102ef57600080fd5b506101a16102fe366004612dcc565b610a69565b34801561030f57600080fd5b5061032361031e366004612c1f565b610b6b565b60408051938452602084019290925290820152606001610145565b34801561034a57600080fd5b506101a1610359366004612f2e565b610da5565b34801561036a57600080fd5b506101a1610379366004612bef565b611129565b60006001600160e01b03198216637965db0b60e01b14806103af57506301ffc9a760e01b6001600160e01b03198316145b92915050565b6040516370a0823160e01b815230600482015273cf9342d3ee1abb61a788549e41af85505997e9c2907358aacbccaec30938cb2bb11653cad726e5c4194a9073eaf988c649f44c4ddfd7fde1a8cb290569b66253908290829060059060009083906370a0823190602401602060405180830381865afa15801561043c573d6000803e3d6000fd5b505050506040513d601f19601f82011682018060405250810190610460919061307e565b604051632e1a7d4d60e01b8152600481018290529091506001600160a01b03841690632e1a7d4d90602401600060405180830381600087803b1580156104a557600080fd5b505af11580156104b9573d6000803e3d6000fd5b505060405163095ea7b360e01b81526001600160a01b038a81166004830152602482018590528716925063095ea7b391506044016020604051808303816000875af115801561050c573d6000803e3d6000fd5b505050506040513d601f19601f820116820180604052508101906105309190613097565b506040516323b872dd60e01b81526001600160a01b038516906323b872dd906105619030908b9086906004016130b9565b6020604051808303816000875af1158015610580573d6000803e3d6000fd5b505050506040513d601f19601f820116820180604052508101906105a49190613097565b5050505050505050565b6000828152606560205260409020600101546105c98161114e565b6105d38383611158565b505050565b6001600160a01b038116331461064d5760405162461bcd60e51b815260206004820152602f60248201527f416363657373436f6e74726f6c3a2063616e206f6e6c792072656e6f756e636560448201526e103937b632b9903337b91039b2b63360891b60648201526084015b60405180910390fd5b61065782826111de565b5050565b6001600160a01b037f00000000000000000000000000000000000000000000000000000000000000001630036106a35760405162461bcd60e51b8152600401610644906130dd565b7f00000000000000000000000000000000000000000000000000000000000000006001600160a01b03166106ec60008051602061352a833981519152546001600160a01b031690565b6001600160a01b0316146107125760405162461bcd60e51b815260040161064490613129565b61071b81611245565b604080516000808252602082019092526107379183919061126c565b50565b6001600160a01b037f00000000000000000000000000000000000000000000000000000000000000001630036107825760405162461bcd60e51b8152600401610644906130dd565b7f00000000000000000000000000000000000000000000000000000000000000006001600160a01b03166107cb60008051602061352a833981519152546001600160a01b031690565b6001600160a01b0316146107f15760405162461bcd60e51b815260040161064490613129565b6107fa82611245565b6106578282600161126c565b6000306001600160a01b037f000000000000000000000000000000000000000000000000000000000000000016146108a65760405162461bcd60e51b815260206004820152603860248201527f555550535570677261646561626c653a206d757374206e6f742062652063616c60448201527f6c6564207468726f7567682064656c656761746563616c6c00000000000000006064820152608401610644565b5060008051602061352a83398151915290565b600054610100900460ff16158080156108d95750600054600160ff909116105b806108f35750303b1580156108f3575060005460ff166001145b6109565760405162461bcd60e51b815260206004820152602e60248201527f496e697469616c697a61626c653a20636f6e747261637420697320616c72656160448201526d191e481a5b9a5d1a585b1a5e995960921b6064820152608401610644565b6000805460ff191660011790558015610979576000805461ff0019166101001790555b6109816113d7565b6109896113d7565b610994600033611158565b600460fb558015610737576000805461ff0019169055604051600181527f7f26b83ff96e1f2b6a682f133852f6798a09c465da95921460cefb3847402498906020015b60405180910390a150565b6109ed600033610a3e565b610a095760405162461bcd60e51b815260040161064490613175565b60fb8190556040518181527fa5210533b7e454491de5dd73e199953a4cdb61fdc4f1eea9ca2edcf0344e6666906020016109d7565b60009182526065602090815260408084206001600160a01b0393909316845291905290205460ff1690565b610a74600033610a3e565b610a905760405162461bcd60e51b815260040161064490613175565b60208101516001600160a01b0316610ae55760405162461bcd60e51b815260206004820152601860248201527716995c9bc81859191c995cdcc81b9bdd08185b1b1bddd95960421b6044820152606401610644565b80516001600160a01b0316610b375760405162461bcd60e51b815260206004820152601860248201527716995c9bc81859191c995cdcc81b9bdd08185b1b1bddd95960421b6044820152606401610644565b602081015160fd80546001600160a01b03199081166001600160a01b0393841617909155915160fc80549093169116179055565b6000806000808490506000816001600160a01b03166351ed6a306040518163ffffffff1660e01b8152600401602060405180830381865afa158015610bb4573d6000803e3d6000fd5b505050506040513d601f19601f82011682018060405250810190610bd89190613195565b90506000819050600080826001600160a01b0316630902f1ac6040518163ffffffff1660e01b8152600401606060405180830381865afa158015610c20573d6000803e3d6000fd5b505050506040513d601f19601f82011682018060405250810190610c4491906131b2565b50915091506000836001600160a01b031690506000846001600160a01b031690506000826001600160a01b031663313ce5676040518163ffffffff1660e01b8152600401602060405180830381865afa158015610ca5573d6000803e3d6000fd5b505050506040513d601f19601f82011682018060405250810190610cc991906131e0565b60ff1690506000826001600160a01b031663313ce5676040518163ffffffff1660e01b8152600401602060405180830381865afa158015610d0e573d6000803e3d6000fd5b505050506040513d601f19601f82011682018060405250810190610d3291906131e0565b60ff169050808211610d445780610d46565b815b610d5190600a6132fd565b9950610d5e82600a6132fd565b610d68908b613309565b610d72908761332b565b9b50610d7f81600a6132fd565b610d89908b613309565b610d93908661332b565b9a505050505050505050509193909250565b610dae82611444565b610db7826118bf565b50506000816000015190506000816001600160a01b03166351ed6a306040518163ffffffff1660e01b8152600401602060405180830381865afa158015610e02573d6000803e3d6000fd5b505050506040513d601f19601f82011682018060405250810190610e269190613195565b6040805160028082526060820183529293508392600092602083019080368337019050509050816001600160a01b0316630dfe16816040518163ffffffff1660e01b8152600401602060405180830381865afa158015610e8a573d6000803e3d6000fd5b505050506040513d601f19601f82011682018060405250810190610eae9190613195565b81600081518110610ec157610ec1613342565b60200260200101906001600160a01b031690816001600160a01b031681525050816001600160a01b031663d21220a76040518163ffffffff1660e01b8152600401602060405180830381865afa158015610f1f573d6000803e3d6000fd5b505050506040513d601f19601f82011682018060405250810190610f439190613195565b81600181518110610f5657610f56613342565b6001600160a01b0392909216602092830291909101820152604080516002808252606082018352600093919290918301908036833701905050905060005b825181101561110b576000838281518110610fb157610fb1613342565b60200260200101519050600088602001518381518110610fd357610fd3613342565b6020026020010151111561107357806001600160a01b03166323b872dd33308b60200151868151811061100857611008613342565b60200260200101516040518463ffffffff1660e01b815260040161102e939291906130b9565b6020604051808303816000875af115801561104d573d6000803e3d6000fd5b505050506040513d601f19601f820116820180604052508101906110719190613097565b505b6040516370a0823160e01b81523060048201526001600160a01b038216906370a0823190602401602060405180830381865afa1580156110b7573d6000803e3d6000fd5b505050506040513d601f19601f820116820180604052508101906110db919061307e565b8383815181106110ed576110ed613342565b6020908102919091010152508061110381613358565b915050610f94565b50611117838383611d0c565b61112083612506565b50505050505050565b6000828152606560205260409020600101546111448161114e565b6105d383836111de565b6107378133612659565b6111628282610a3e565b6106575760008281526065602090815260408083206001600160a01b03851684529091529020805460ff1916600117905561119a3390565b6001600160a01b0316816001600160a01b0316837f2f8788117e7eff1d82e926ec794901d17c78024a50270940304540a733656f0d60405160405180910390a45050565b6111e88282610a3e565b156106575760008281526065602090815260408083206001600160a01b0385168085529252808320805460ff1916905551339285917ff6391f5c32d9c69d2a47ea670b442974b53935d1edc7fd64eb21e047a839171b9190a45050565b611250600033610a3e565b6107375760405162461bcd60e51b815260040161064490613175565b7f4910fdfa16fed3260ed0e7147f7cc6da11a60208b5b9406d12a635614ffd91435460ff161561129f576105d3836126b2565b826001600160a01b03166352d1902d6040518163ffffffff1660e01b8152600401602060405180830381865afa9250505080156112f9575060408051601f3d908101601f191682019092526112f69181019061307e565b60015b61135c5760405162461bcd60e51b815260206004820152602e60248201527f45524331393637557067726164653a206e657720696d706c656d656e7461746960448201526d6f6e206973206e6f74205555505360901b6064820152608401610644565b60008051602061352a83398151915281146113cb5760405162461bcd60e51b815260206004820152602960248201527f45524331393637557067726164653a20756e737570706f727465642070726f786044820152681a58589b195555525160ba1b6064820152608401610644565b506105d383838361274e565b600054610100900460ff166114425760405162461bcd60e51b815260206004820152602b60248201527f496e697469616c697a61626c653a20636f6e7472616374206973206e6f74206960448201526a6e697469616c697a696e6760a81b6064820152608401610644565b565b60005b8160200151518110156115b75760005b818110156115a4578260200151818151811061147557611475613342565b6020026020010151600001516001600160a01b0316836020015183815181106114a0576114a0613342565b6020026020010151600001516001600160a01b0316036115025760405162461bcd60e51b815260206004820152601760248201527f4475706c6963617465206f757470757420746f6b656e730000000000000000006044820152606401610644565b306001600160a01b03168360200151838151811061152257611522613342565b6020026020010151602001516001600160a01b0316146115925760405162461bcd60e51b815260206004820152602560248201527f5265636569766572206f662073776170206973206e6f74207468697320636f6e6044820152641d1c9858dd60da1b6064820152608401610644565b8061159c81613358565b915050611457565b50806115af81613358565b915050611447565b5060005b8151518110156106575760005b8181101561167c5782518051829081106115e4576115e4613342565b6020026020010151600001516001600160a01b03168360000151838151811061160f5761160f613342565b6020026020010151600001516001600160a01b03160361166a5760405162461bcd60e51b81526020600482015260166024820152754475706c696361746520696e70757420746f6b656e7360501b6044820152606401610644565b8061167481613358565b9150506115c8565b5060005b82602001515181101561174257826020015181815181106116a3576116a3613342565b6020026020010151600001516001600160a01b0316836000015183815181106116ce576116ce613342565b6020026020010151600001516001600160a01b0316036117305760405162461bcd60e51b815260206004820152601a60248201527f4475706c696361746520696e70757420616e64206f75747075740000000000006044820152606401610644565b8061173a81613358565b915050611680565b5060008260000151828151811061175b5761175b613342565b6020026020010151600001519050806001600160a01b03166323b872dd33308660000151868151811061179057611790613342565b6020026020010151602001516040518463ffffffff1660e01b81526004016117ba939291906130b9565b6020604051808303816000875af11580156117d9573d6000803e3d6000fd5b505050506040513d601f19601f820116820180604052508101906117fd9190613097565b5060fc54835180516001600160a01b038085169363095ea7b3939116918690811061182a5761182a613342565b6020026020010151602001516040518363ffffffff1660e01b81526004016118679291906001600160a01b03929092168252602082015260400190565b6020604051808303816000875af1158015611886573d6000803e3d6000fd5b505050506040513d601f19601f820116820180604052508101906118aa9190613097565b505080806118b790613358565b9150506115bb565b60fc54604080830151905160609283926000926001600160a01b039092169183916118e991613395565b60006040518083038185875af1925050503d8060008114611926576040519150601f19603f3d011682016040523d82523d6000602084013e61192b565b606091505b50509050806119725760405162461bcd60e51b81526020600482015260136024820152721c9bdd5d195c881cddd85c081a5b9d985b1a59606a1b6044820152606401610644565b8351516000906001600160401b0381111561198f5761198f612c3c565b6040519080825280602002602001820160405280156119b8578160200160208202803683370190505b50905060008560000151516001600160401b038111156119da576119da612c3c565b604051908082528060200260200182016040528015611a03578160200160208202803683370190505b50905060005b865151811015611aac578651805182908110611a2757611a27613342565b602002602001015160000151838281518110611a4557611a45613342565b6001600160a01b03909216602092830291909101909101528651805182908110611a7157611a71613342565b602002602001015160200151828281518110611a8f57611a8f613342565b602090810291909101015280611aa481613358565b915050611a09565b507fb5ad02132d64b1e89c5196397a95b3e268e3f5c555b5845f2ddcdf24684d2aad8183604051611ade9291906133b1565b60405180910390a160008660200151516001600160401b03811115611b0557611b05612c3c565b604051908082528060200260200182016040528015611b2e578160200160208202803683370190505b50905060008760200151516001600160401b03811115611b5057611b50612c3c565b604051908082528060200260200182016040528015611b79578160200160208202803683370190505b50905060005b886020015151811015611cc55788602001518181518110611ba257611ba2613342565b602002602001015160000151838281518110611bc057611bc0613342565b60200260200101906001600160a01b031690816001600160a01b031681525050828181518110611bf257611bf2613342565b60200260200101516001600160a01b03166370a082318a602001518381518110611c1e57611c1e613342565b6020026020010151602001516040518263ffffffff1660e01b8152600401611c5591906001600160a01b0391909116815260200190565b602060405180830381865afa158015611c72573d6000803e3d6000fd5b505050506040513d601f19601f82011682018060405250810190611c96919061307e565b828281518110611ca857611ca8613342565b602090810291909101015280611cbd81613358565b915050611b7f565b507f0c9e5a590aa4a07e734c28846ee575ea53d4ddf0fc046c45c367faaa2e0342388183604051611cf79291906133b1565b60405180910390a19097909650945050505050565b600080846001600160a01b0316630902f1ac6040518163ffffffff1660e01b8152600401606060405180830381865afa158015611d4d573d6000803e3d6000fd5b505050506040513d601f19601f82011682018060405250810190611d7191906131b2565b5091509150600080611ec785600081518110611d8f57611d8f613342565b602002602001015186600181518110611daa57611daa613342565b602002602001015186868a600081518110611dc757611dc7613342565b60200260200101516001600160a01b031663313ce5676040518163ffffffff1660e01b8152600401602060405180830381865afa158015611e0c573d6000803e3d6000fd5b505050506040513d601f19601f82011682018060405250810190611e3091906131e0565b611e3b90600a613435565b8b600181518110611e4e57611e4e613342565b60200260200101516001600160a01b031663313ce5676040518163ffffffff1660e01b8152600401602060405180830381865afa158015611e93573d6000803e3d6000fd5b505050506040513d601f19601f82011682018060405250810190611eb791906131e0565b611ec290600a613435565b612779565b91509150600086600081518110611ee057611ee0613342565b60200260200101519050600087600181518110611eff57611eff613342565b602090810291909101015160fd5460405163095ea7b360e01b81526001600160a01b0391821660048201526024810187905291925083169063095ea7b3906044016020604051808303816000875af1158015611f5f573d6000803e3d6000fd5b505050506040513d601f19601f82011682018060405250810190611f839190613097565b5060fd5460405163095ea7b360e01b81526001600160a01b039182166004820152602481018590529082169063095ea7b3906044016020604051808303816000875af1158015611fd7573d6000803e3d6000fd5b505050506040513d601f19601f82011682018060405250810190611ffb9190613097565b506040516370a0823160e01b81523060048201526000906001600160a01b038416906370a0823190602401602060405180830381865afa158015612043573d6000803e3d6000fd5b505050506040513d601f19601f82011682018060405250810190612067919061307e565b6040516370a0823160e01b81523060048201529091506000906001600160a01b038416906370a0823190602401602060405180830381865afa1580156120b1573d6000803e3d6000fd5b505050506040513d601f19601f820116820180604052508101906120d5919061307e565b60fd548b519192506001600160a01b031690635a47ddc3908c906000906120fe576120fe613342565b60200260200101518c60018151811061211957612119613342565b602002602001015160018a8a6121318d60fb5461283d565b61213d8d60fb5461283d565b6040516001600160e01b031960e08a901b1681526001600160a01b03978816600482015296909516602487015292151560448601526064850191909152608484015260a483015260c48201523060e482015242610104820152610124016060604051808303816000875af11580156121b9573d6000803e3d6000fd5b505050506040513d601f19601f820116820180604052508101906121dd91906131b2565b50506040516370a0823160e01b8152306004820152600091506001600160a01b038616906370a0823190602401602060405180830381865afa158015612227573d6000803e3d6000fd5b505050506040513d601f19601f8201168201806040525081019061224b919061307e565b6040516370a0823160e01b81523060048201529091506000906001600160a01b038616906370a0823190602401602060405180830381865afa158015612295573d6000803e3d6000fd5b505050506040513d601f19601f820116820180604052508101906122b9919061307e565b905081156123345760405163a9059cbb60e01b8152336004820152602481018390526001600160a01b0387169063a9059cbb906044016020604051808303816000875af115801561230e573d6000803e3d6000fd5b505050506040513d601f19601f820116820180604052508101906123329190613097565b505b80156123ad5760405163a9059cbb60e01b8152336004820152602481018290526001600160a01b0386169063a9059cbb906044016020604051808303816000875af1158015612387573d6000803e3d6000fd5b505050506040513d601f19601f820116820180604052508101906123ab9190613097565b505b6040805160028082526060820183526000926020830190803683370190505090506123d88386613444565b816000815181106123eb576123eb613342565b60209081029190910101526124008285613444565b8160018151811061241357612413613342565b602090810291909101015260408051600280825260608201909252600091816020016020820280368337019050509050838160008151811061245757612457613342565b602002602001018181525050828160018151811061247757612477613342565b6020026020010181815250507ff471c761d3d5d25c66f3d23a33cf7f9aaea894aa0fbcbb3bb158b1bea3c2ed45828f6040516124b49291906133b1565b60405180910390a17fb4df4b62c251866b0421eb65c2beafa02a7d9e8a267e952174b984257924e175818f6040516124ed9291906133b1565b60405180910390a1505050505050505050505050505050565b6040516370a0823160e01b81523060048201526000906001600160a01b038316906370a0823190602401602060405180830381865afa15801561254d573d6000803e3d6000fd5b505050506040513d601f19601f82011682018060405250810190612571919061307e565b60405163095ea7b360e01b8152336004820152602481018290529091506001600160a01b0383169063095ea7b3906044016020604051808303816000875af11580156125c1573d6000803e3d6000fd5b505050506040513d601f19601f820116820180604052508101906125e59190613097565b506040516323b872dd60e01b81526001600160a01b038316906323b872dd90612616903090339086906004016130b9565b6020604051808303816000875af1158015612635573d6000803e3d6000fd5b505050506040513d601f19601f820116820180604052508101906105d39190613097565b6126638282610a3e565b6106575761267081612867565b61267b836020612879565b60405160200161268c929190613457565b60408051601f198184030181529082905262461bcd60e51b8252610644916004016134cc565b6001600160a01b0381163b61271f5760405162461bcd60e51b815260206004820152602d60248201527f455243313936373a206e657720696d706c656d656e746174696f6e206973206e60448201526c1bdd08184818dbdb9d1c9858dd609a1b6064820152608401610644565b60008051602061352a83398151915280546001600160a01b0319166001600160a01b0392909216919091179055565b61275783612a14565b6000825111806127645750805b156105d3576127738383612a54565b50505050565b6000808261278886606461332b565b6127929190613309565b8461279e88606461332b565b6127a89190613309565b11156127f257856127b9898761332b565b6127c39190613309565b90508681116127d257806127d4565b865b9050846127e1878361332b565b6127eb9190613309565b9150612832565b846127fd888861332b565b6128079190613309565b91508782116128165781612818565b875b915085612825868461332b565b61282f9190613309565b90505b965096945050505050565b600061271061284c8382613444565b612856908561332b565b6128609190613309565b9392505050565b60606103af6001600160a01b03831660145b6060600061288883600261332b565b6128939060026134ff565b6001600160401b038111156128aa576128aa612c3c565b6040519080825280601f01601f1916602001820160405280156128d4576020820181803683370190505b509050600360fc1b816000815181106128ef576128ef613342565b60200101906001600160f81b031916908160001a905350600f60fb1b8160018151811061291e5761291e613342565b60200101906001600160f81b031916908160001a905350600061294284600261332b565b61294d9060016134ff565b90505b60018111156129c5576f181899199a1a9b1b9c1cb0b131b232b360811b85600f166010811061298157612981613342565b1a60f81b82828151811061299757612997613342565b60200101906001600160f81b031916908160001a90535060049490941c936129be81613512565b9050612950565b5083156128605760405162461bcd60e51b815260206004820181905260248201527f537472696e67733a20686578206c656e67746820696e73756666696369656e746044820152606401610644565b612a1d816126b2565b6040516001600160a01b038216907fbc7cd75a20ee27fd9adebab32041f755214dbc6bffa90cc0225b39da2e5c2d3b90600090a250565b6060612860838360405180606001604052806027815260200161354a602791396060600080856001600160a01b031685604051612a919190613395565b600060405180830381855af49150503d8060008114612acc576040519150601f19603f3d011682016040523d82523d6000602084013e612ad1565b606091505b5091509150612ae286838387612aec565b9695505050505050565b60608315612b5b578251600003612b54576001600160a01b0385163b612b545760405162461bcd60e51b815260206004820152601d60248201527f416464726573733a2063616c6c20746f206e6f6e2d636f6e74726163740000006044820152606401610644565b5081612b65565b612b658383612b6d565b949350505050565b815115612b7d5781518083602001fd5b8060405162461bcd60e51b815260040161064491906134cc565b600060208284031215612ba957600080fd5b81356001600160e01b03198116811461286057600080fd5b600060208284031215612bd357600080fd5b5035919050565b6001600160a01b038116811461073757600080fd5b60008060408385031215612c0257600080fd5b823591506020830135612c1481612bda565b809150509250929050565b600060208284031215612c3157600080fd5b813561286081612bda565b634e487b7160e01b600052604160045260246000fd5b604080519081016001600160401b0381118282101715612c7457612c74612c3c565b60405290565b604051606081016001600160401b0381118282101715612c7457612c74612c3c565b604051601f8201601f191681016001600160401b0381118282101715612cc457612cc4612c3c565b604052919050565b600082601f830112612cdd57600080fd5b81356001600160401b03811115612cf657612cf6612c3c565b612d09601f8201601f1916602001612c9c565b818152846020838601011115612d1e57600080fd5b816020850160208301376000918101602001919091529392505050565b60008060408385031215612d4e57600080fd5b8235612d5981612bda565b915060208301356001600160401b03811115612d7457600080fd5b612d8085828601612ccc565b9150509250929050565b600060408284031215612d9c57600080fd5b612da4612c52565b90508135612db181612bda565b81526020820135612dc181612bda565b602082015292915050565b600060408284031215612dde57600080fd5b6128608383612d8a565b60006001600160401b03821115612e0157612e01612c3c565b5060051b60200190565b600082601f830112612e1c57600080fd5b81356020612e31612e2c83612de8565b612c9c565b82815260069290921b84018101918181019086841115612e5057600080fd5b8286015b84811015612e7457612e668882612d8a565b835291830191604001612e54565b509695505050505050565b600060408284031215612e9157600080fd5b612e99612c52565b90508135612ea681612bda565b81526020828101356001600160401b03811115612ec257600080fd5b8301601f81018513612ed357600080fd5b8035612ee1612e2c82612de8565b81815260059190911b82018301908381019087831115612f0057600080fd5b928401925b82841015612f1e57833582529284019290840190612f05565b8085870152505050505092915050565b6000806040808486031215612f4257600080fd5b83356001600160401b0380821115612f5957600080fd5b9085019060608288031215612f6d57600080fd5b612f75612c7a565b823582811115612f8457600080fd5b8301601f81018913612f9557600080fd5b80356020612fa5612e2c83612de8565b82815260069290921b8301810191818101908c841115612fc457600080fd5b938201935b8385101561300d5788858e031215612fe15760008081fd5b612fe9612c52565b8535612ff481612bda565b8152858401358482015282529388019390820190612fc9565b8552508581013592508483111561302357600080fd5b61302f8b848801612e0b565b818501528686013592508483111561304657600080fd5b6130528b848801612ccc565b87850152839850808a01359650505050508083111561307057600080fd5b5050612d8085828601612e7f565b60006020828403121561309057600080fd5b5051919050565b6000602082840312156130a957600080fd5b8151801515811461286057600080fd5b6001600160a01b039384168152919092166020820152604081019190915260600190565b6020808252602c908201527f46756e6374696f6e206d7573742062652063616c6c6564207468726f7567682060408201526b19195b1959d85d1958d85b1b60a21b606082015260800190565b6020808252602c908201527f46756e6374696f6e206d7573742062652063616c6c6564207468726f7567682060408201526b6163746976652070726f787960a01b606082015260800190565b60208082526006908201526510a0b236b4b760d11b604082015260600190565b6000602082840312156131a757600080fd5b815161286081612bda565b6000806000606084860312156131c757600080fd5b8351925060208401519150604084015190509250925092565b6000602082840312156131f257600080fd5b815160ff8116811461286057600080fd5b634e487b7160e01b600052601160045260246000fd5b600181815b8085111561325457816000190482111561323a5761323a613203565b8085161561324757918102915b93841c939080029061321e565b509250929050565b60008261326b575060016103af565b81613278575060006103af565b816001811461328e5760028114613298576132b4565b60019150506103af565b60ff8411156132a9576132a9613203565b50506001821b6103af565b5060208310610133831016604e8410600b84101617156132d7575081810a6103af565b6132e18383613219565b80600019048211156132f5576132f5613203565b029392505050565b6000612860838361325c565b60008261332657634e487b7160e01b600052601260045260246000fd5b500490565b80820281158282048414176103af576103af613203565b634e487b7160e01b600052603260045260246000fd5b60006001820161336a5761336a613203565b5060010190565b60005b8381101561338c578181015183820152602001613374565b50506000910152565b600082516133a7818460208701613371565b9190910192915050565b604080825283519082018190526000906020906060840190828701845b828110156133ea578151845292840192908401906001016133ce565b5050508381038285015284518082528583019183019060005b818110156134285783516001600160a01b031683529284019291840191600101613403565b5090979650505050505050565b600061286060ff84168361325c565b818103818111156103af576103af613203565b7f416363657373436f6e74726f6c3a206163636f756e742000000000000000000081526000835161348f816017850160208801613371565b7001034b99036b4b9b9b4b733903937b6329607d1b60179184019182015283516134c0816028840160208801613371565b01602801949350505050565b60208152600082518060208401526134eb816040850160208701613371565b601f01601f19169190910160400192915050565b808201808211156103af576103af613203565b60008161352157613521613203565b50600019019056fe360894a13ba1a3210667c828492db98dca3e2076cc3735a920a3ca505d382bbc416464726573733a206c6f772d6c6576656c2064656c65676174652063616c6c206661696c6564a2646970667358221220667dc58c02978c8d6a60f49069e9c25cdcd883e490f84c95481596cf55032ecc64736f6c63430008110033",
  "implementation": "0x7d6B2417856b6492880253B46281C9e393224f82",
  "devdoc": {
    "kind": "dev",
    "methods": {
      "getRoleAdmin(bytes32)": {
        "details": "Returns the admin role that controls `role`. See {grantRole} and {revokeRole}. To change a role's admin, use {_setRoleAdmin}."
      },
      "grantRole(bytes32,address)": {
        "details": "Grants `role` to `account`. If `account` had not been already granted `role`, emits a {RoleGranted} event. Requirements: - the caller must have ``role``'s admin role. May emit a {RoleGranted} event."
      },
      "hasRole(bytes32,address)": {
        "details": "Returns `true` if `account` has been granted `role`."
      },
      "proxiableUUID()": {
        "details": "Implementation of the ERC1822 {proxiableUUID} function. This returns the storage slot used by the implementation. It is used to validate the implementation's compatibility when performing an upgrade. IMPORTANT: A proxy pointing at a proxiable contract should not be considered proxiable itself, because this risks bricking a proxy that upgrades to it, by delegating to itself until out of gas. Thus it is critical that this function revert if invoked through a proxy. This is guaranteed by the `notDelegated` modifier."
      },
      "renounceRole(bytes32,address)": {
        "details": "Revokes `role` from the calling account. Roles are often managed via {grantRole} and {revokeRole}: this function's purpose is to provide a mechanism for accounts to lose their privileges if they are compromised (such as when a trusted device is misplaced). If the calling account had been revoked `role`, emits a {RoleRevoked} event. Requirements: - the caller must be `account`. May emit a {RoleRevoked} event."
      },
      "revokeRole(bytes32,address)": {
        "details": "Revokes `role` from `account`. If `account` had been granted `role`, emits a {RoleRevoked} event. Requirements: - the caller must have ``role``'s admin role. May emit a {RoleRevoked} event."
      },
      "supportsInterface(bytes4)": {
        "details": "See {IERC165-supportsInterface}."
      },
      "upgradeTo(address)": {
        "custom:oz-upgrades-unsafe-allow-reachable": "delegatecall",
        "details": "Upgrade the implementation of the proxy to `newImplementation`. Calls {_authorizeUpgrade}. Emits an {Upgraded} event."
      },
      "upgradeToAndCall(address,bytes)": {
        "custom:oz-upgrades-unsafe-allow-reachable": "delegatecall",
        "details": "Upgrade the implementation of the proxy to `newImplementation`, and subsequently execute the function call encoded in `data`. Calls {_authorizeUpgrade}. Emits an {Upgraded} event."
      }
    },
    "version": 1
  },
  "userdoc": {
    "kind": "user",
    "methods": {},
    "version": 1
  },
  "storageLayout": {
    "storage": [
      {
        "astId": 782,
        "contract": "contracts/zap/LynexZap.sol:LynexZap",
        "label": "_initialized",
        "offset": 0,
        "slot": "0",
        "type": "t_uint8"
      },
      {
        "astId": 785,
        "contract": "contracts/zap/LynexZap.sol:LynexZap",
        "label": "_initializing",
        "offset": 1,
        "slot": "0",
        "type": "t_bool"
      },
      {
        "astId": 1461,
        "contract": "contracts/zap/LynexZap.sol:LynexZap",
        "label": "__gap",
        "offset": 0,
        "slot": "1",
        "type": "t_array(t_uint256)50_storage"
      },
      {
        "astId": 1845,
        "contract": "contracts/zap/LynexZap.sol:LynexZap",
        "label": "__gap",
        "offset": 0,
        "slot": "51",
        "type": "t_array(t_uint256)50_storage"
      },
      {
        "astId": 28,
        "contract": "contracts/zap/LynexZap.sol:LynexZap",
        "label": "_roles",
        "offset": 0,
        "slot": "101",
        "type": "t_mapping(t_bytes32,t_struct(RoleData)23_storage)"
      },
      {
        "astId": 335,
        "contract": "contracts/zap/LynexZap.sol:LynexZap",
        "label": "__gap",
        "offset": 0,
        "slot": "102",
        "type": "t_array(t_uint256)49_storage"
      },
      {
        "astId": 764,
        "contract": "contracts/zap/LynexZap.sol:LynexZap",
        "label": "__gap",
        "offset": 0,
        "slot": "151",
        "type": "t_array(t_uint256)50_storage"
      },
      {
        "astId": 1080,
        "contract": "contracts/zap/LynexZap.sol:LynexZap",
        "label": "__gap",
        "offset": 0,
        "slot": "201",
        "type": "t_array(t_uint256)50_storage"
      },
      {
        "astId": 4395,
        "contract": "contracts/zap/LynexZap.sol:LynexZap",
        "label": "stakeSlippageBP",
        "offset": 0,
        "slot": "251",
        "type": "t_uint256"
      },
      {
        "astId": 4397,
        "contract": "contracts/zap/LynexZap.sol:LynexZap",
        "label": "odosRouter",
        "offset": 0,
        "slot": "252",
        "type": "t_address"
      },
      {
        "astId": 3707,
        "contract": "contracts/zap/LynexZap.sol:LynexZap",
        "label": "lynexRouter",
        "offset": 0,
        "slot": "253",
        "type": "t_contract(IRouterV2)3698"
      }
    ],
    "types": {
      "t_address": {
        "encoding": "inplace",
        "label": "address",
        "numberOfBytes": "20"
      },
      "t_array(t_uint256)49_storage": {
        "base": "t_uint256",
        "encoding": "inplace",
        "label": "uint256[49]",
        "numberOfBytes": "1568"
      },
      "t_array(t_uint256)50_storage": {
        "base": "t_uint256",
        "encoding": "inplace",
        "label": "uint256[50]",
        "numberOfBytes": "1600"
      },
      "t_bool": {
        "encoding": "inplace",
        "label": "bool",
        "numberOfBytes": "1"
      },
      "t_bytes32": {
        "encoding": "inplace",
        "label": "bytes32",
        "numberOfBytes": "32"
      },
      "t_contract(IRouterV2)3698": {
        "encoding": "inplace",
        "label": "contract IRouterV2",
        "numberOfBytes": "20"
      },
      "t_mapping(t_address,t_bool)": {
        "encoding": "mapping",
        "key": "t_address",
        "label": "mapping(address => bool)",
        "numberOfBytes": "32",
        "value": "t_bool"
      },
      "t_mapping(t_bytes32,t_struct(RoleData)23_storage)": {
        "encoding": "mapping",
        "key": "t_bytes32",
        "label": "mapping(bytes32 => struct AccessControlUpgradeable.RoleData)",
        "numberOfBytes": "32",
        "value": "t_struct(RoleData)23_storage"
      },
      "t_struct(RoleData)23_storage": {
        "encoding": "inplace",
        "label": "struct AccessControlUpgradeable.RoleData",
        "members": [
          {
            "astId": 20,
            "contract": "contracts/zap/LynexZap.sol:LynexZap",
            "label": "members",
            "offset": 0,
            "slot": "0",
            "type": "t_mapping(t_address,t_bool)"
          },
          {
            "astId": 22,
            "contract": "contracts/zap/LynexZap.sol:LynexZap",
            "label": "adminRole",
            "offset": 0,
            "slot": "1",
            "type": "t_bytes32"
          }
        ],
        "numberOfBytes": "64"
      },
      "t_uint256": {
        "encoding": "inplace",
        "label": "uint256",
        "numberOfBytes": "32"
      },
      "t_uint8": {
        "encoding": "inplace",
        "label": "uint8",
        "numberOfBytes": "1"
      }
    }
  }
}