{
  "address": "0xc828Bf703064E271E5E6DEacBe33Ecb9A43dC93e",
  "abi": [
    {
      "inputs": [],
      "stateMutability": "nonpayable",
      "type": "constructor"
    },
    {
      "anonymous": false,
      "inputs": [
        {
          "indexed": false,
          "internalType": "address",
          "name": "token",
          "type": "address"
        },
        {
          "indexed": false,
          "internalType": "address",
          "name": "pool",
          "type": "address"
        }
      ],
      "name": "AddItem",
      "type": "event"
    },
    {
      "anonymous": false,
      "inputs": [
        {
          "indexed": false,
          "internalType": "address",
          "name": "previousAdmin",
          "type": "address"
        },
        {
          "indexed": false,
          "internalType": "address",
          "name": "newAdmin",
          "type": "address"
        }
      ],
      "name": "AdminChanged",
      "type": "event"
    },
    {
      "anonymous": false,
      "inputs": [
        {
          "indexed": true,
          "internalType": "address",
          "name": "beacon",
          "type": "address"
        }
      ],
      "name": "BeaconUpgraded",
      "type": "event"
    },
    {
      "anonymous": false,
      "inputs": [
        {
          "indexed": false,
          "internalType": "bool",
          "name": "disabled",
          "type": "bool"
        }
      ],
      "name": "DisabledUpdated",
      "type": "event"
    },
    {
      "anonymous": false,
      "inputs": [
        {
          "indexed": false,
          "internalType": "uint8",
          "name": "version",
          "type": "uint8"
        }
      ],
      "name": "Initialized",
      "type": "event"
    },
    {
      "anonymous": false,
      "inputs": [],
      "name": "PayoutDoneDisabled",
      "type": "event"
    },
    {
      "anonymous": false,
      "inputs": [
        {
          "indexed": false,
          "internalType": "string",
          "name": "dexName",
          "type": "string"
        },
        {
          "indexed": false,
          "internalType": "string",
          "name": "operation",
          "type": "string"
        },
        {
          "indexed": false,
          "internalType": "string",
          "name": "poolName",
          "type": "string"
        },
        {
          "indexed": false,
          "internalType": "address",
          "name": "pool",
          "type": "address"
        },
        {
          "indexed": false,
          "internalType": "address",
          "name": "token",
          "type": "address"
        },
        {
          "indexed": false,
          "internalType": "uint256",
          "name": "amount",
          "type": "uint256"
        },
        {
          "indexed": false,
          "internalType": "address",
          "name": "to",
          "type": "address"
        }
      ],
      "name": "PoolOperation",
      "type": "event"
    },
    {
      "anonymous": false,
      "inputs": [
        {
          "indexed": false,
          "internalType": "address",
          "name": "token",
          "type": "address"
        },
        {
          "indexed": false,
          "internalType": "address",
          "name": "pool",
          "type": "address"
        }
      ],
      "name": "RemoveItem",
      "type": "event"
    },
    {
      "anonymous": false,
      "inputs": [
        {
          "indexed": false,
          "internalType": "address",
          "name": "rewardWallet",
          "type": "address"
        }
      ],
      "name": "RewardWalletUpdated",
      "type": "event"
    },
    {
      "anonymous": false,
      "inputs": [
        {
          "indexed": true,
          "internalType": "bytes32",
          "name": "role",
          "type": "bytes32"
        },
        {
          "indexed": true,
          "internalType": "bytes32",
          "name": "previousAdminRole",
          "type": "bytes32"
        },
        {
          "indexed": true,
          "internalType": "bytes32",
          "name": "newAdminRole",
          "type": "bytes32"
        }
      ],
      "name": "RoleAdminChanged",
      "type": "event"
    },
    {
      "anonymous": false,
      "inputs": [
        {
          "indexed": true,
          "internalType": "bytes32",
          "name": "role",
          "type": "bytes32"
        },
        {
          "indexed": true,
          "internalType": "address",
          "name": "account",
          "type": "address"
        },
        {
          "indexed": true,
          "internalType": "address",
          "name": "sender",
          "type": "address"
        }
      ],
      "name": "RoleGranted",
      "type": "event"
    },
    {
      "anonymous": false,
      "inputs": [
        {
          "indexed": false,
          "internalType": "address",
          "name": "roleManager",
          "type": "address"
        }
      ],
      "name": "RoleManagerUpdated",
      "type": "event"
    },
    {
      "anonymous": false,
      "inputs": [
        {
          "indexed": true,
          "internalType": "bytes32",
          "name": "role",
          "type": "bytes32"
        },
        {
          "indexed": true,
          "internalType": "address",
          "name": "account",
          "type": "address"
        },
        {
          "indexed": true,
          "internalType": "address",
          "name": "sender",
          "type": "address"
        }
      ],
      "name": "RoleRevoked",
      "type": "event"
    },
    {
      "anonymous": false,
      "inputs": [
        {
          "indexed": true,
          "internalType": "address",
          "name": "implementation",
          "type": "address"
        }
      ],
      "name": "Upgraded",
      "type": "event"
    },
    {
      "inputs": [],
      "name": "DEFAULT_ADMIN_ROLE",
      "outputs": [
        {
          "internalType": "bytes32",
          "name": "",
          "type": "bytes32"
        }
      ],
      "stateMutability": "view",
      "type": "function"
    },
    {
      "inputs": [],
      "name": "EXCHANGER",
      "outputs": [
        {
          "internalType": "bytes32",
          "name": "",
          "type": "bytes32"
        }
      ],
      "stateMutability": "view",
      "type": "function"
    },
    {
      "inputs": [],
      "name": "UNIT_ROLE",
      "outputs": [
        {
          "internalType": "bytes32",
          "name": "",
          "type": "bytes32"
        }
      ],
      "stateMutability": "view",
      "type": "function"
    },
    {
      "inputs": [
        {
          "components": [
            {
              "internalType": "address",
              "name": "pool",
              "type": "address"
            },
            {
              "internalType": "address",
              "name": "token",
              "type": "address"
            },
            {
              "internalType": "string",
              "name": "poolName",
              "type": "string"
            },
            {
              "internalType": "address",
              "name": "bribe",
              "type": "address"
            },
            {
              "internalType": "enum PayoutManager.Operation",
              "name": "operation",
              "type": "uint8"
            },
            {
              "internalType": "address",
              "name": "to",
              "type": "address"
            },
            {
              "internalType": "string",
              "name": "dexName",
              "type": "string"
            },
            {
              "internalType": "uint24",
              "name": "feePercent",
              "type": "uint24"
            },
            {
              "internalType": "address",
              "name": "feeReceiver",
              "type": "address"
            },
            {
              "internalType": "uint256[10]",
              "name": "__gap",
              "type": "uint256[10]"
            }
          ],
          "internalType": "struct PayoutManager.Item",
          "name": "item",
          "type": "tuple"
        }
      ],
      "name": "addItem",
      "outputs": [],
      "stateMutability": "nonpayable",
      "type": "function"
    },
    {
      "inputs": [
        {
          "components": [
            {
              "internalType": "address",
              "name": "pool",
              "type": "address"
            },
            {
              "internalType": "address",
              "name": "token",
              "type": "address"
            },
            {
              "internalType": "string",
              "name": "poolName",
              "type": "string"
            },
            {
              "internalType": "address",
              "name": "bribe",
              "type": "address"
            },
            {
              "internalType": "enum PayoutManager.Operation",
              "name": "operation",
              "type": "uint8"
            },
            {
              "internalType": "address",
              "name": "to",
              "type": "address"
            },
            {
              "internalType": "string",
              "name": "dexName",
              "type": "string"
            },
            {
              "internalType": "uint24",
              "name": "feePercent",
              "type": "uint24"
            },
            {
              "internalType": "address",
              "name": "feeReceiver",
              "type": "address"
            },
            {
              "internalType": "uint256[10]",
              "name": "__gap",
              "type": "uint256[10]"
            }
          ],
          "internalType": "struct PayoutManager.Item[]",
          "name": "items",
          "type": "tuple[]"
        }
      ],
      "name": "addItems",
      "outputs": [],
      "stateMutability": "nonpayable",
      "type": "function"
    },
    {
      "inputs": [],
      "name": "disabled",
      "outputs": [
        {
          "internalType": "bool",
          "name": "",
          "type": "bool"
        }
      ],
      "stateMutability": "view",
      "type": "function"
    },
    {
      "inputs": [
        {
          "internalType": "address",
          "name": "pool",
          "type": "address"
        }
      ],
      "name": "findItemsByPool",
      "outputs": [
        {
          "components": [
            {
              "internalType": "address",
              "name": "pool",
              "type": "address"
            },
            {
              "internalType": "address",
              "name": "token",
              "type": "address"
            },
            {
              "internalType": "string",
              "name": "poolName",
              "type": "string"
            },
            {
              "internalType": "address",
              "name": "bribe",
              "type": "address"
            },
            {
              "internalType": "enum PayoutManager.Operation",
              "name": "operation",
              "type": "uint8"
            },
            {
              "internalType": "address",
              "name": "to",
              "type": "address"
            },
            {
              "internalType": "string",
              "name": "dexName",
              "type": "string"
            },
            {
              "internalType": "uint24",
              "name": "feePercent",
              "type": "uint24"
            },
            {
              "internalType": "address",
              "name": "feeReceiver",
              "type": "address"
            },
            {
              "internalType": "uint256[10]",
              "name": "__gap",
              "type": "uint256[10]"
            }
          ],
          "internalType": "struct PayoutManager.Item[]",
          "name": "",
          "type": "tuple[]"
        }
      ],
      "stateMutability": "view",
      "type": "function"
    },
    {
      "inputs": [],
      "name": "getItems",
      "outputs": [
        {
          "components": [
            {
              "internalType": "address",
              "name": "pool",
              "type": "address"
            },
            {
              "internalType": "address",
              "name": "token",
              "type": "address"
            },
            {
              "internalType": "string",
              "name": "poolName",
              "type": "string"
            },
            {
              "internalType": "address",
              "name": "bribe",
              "type": "address"
            },
            {
              "internalType": "enum PayoutManager.Operation",
              "name": "operation",
              "type": "uint8"
            },
            {
              "internalType": "address",
              "name": "to",
              "type": "address"
            },
            {
              "internalType": "string",
              "name": "dexName",
              "type": "string"
            },
            {
              "internalType": "uint24",
              "name": "feePercent",
              "type": "uint24"
            },
            {
              "internalType": "address",
              "name": "feeReceiver",
              "type": "address"
            },
            {
              "internalType": "uint256[10]",
              "name": "__gap",
              "type": "uint256[10]"
            }
          ],
          "internalType": "struct PayoutManager.Item[]",
          "name": "",
          "type": "tuple[]"
        }
      ],
      "stateMutability": "view",
      "type": "function"
    },
    {
      "inputs": [],
      "name": "getItemsLength",
      "outputs": [
        {
          "internalType": "uint256",
          "name": "",
          "type": "uint256"
        }
      ],
      "stateMutability": "view",
      "type": "function"
    },
    {
      "inputs": [
        {
          "internalType": "bytes32",
          "name": "role",
          "type": "bytes32"
        }
      ],
      "name": "getRoleAdmin",
      "outputs": [
        {
          "internalType": "bytes32",
          "name": "",
          "type": "bytes32"
        }
      ],
      "stateMutability": "view",
      "type": "function"
    },
    {
      "inputs": [
        {
          "internalType": "bytes32",
          "name": "role",
          "type": "bytes32"
        },
        {
          "internalType": "address",
          "name": "account",
          "type": "address"
        }
      ],
      "name": "grantRole",
      "outputs": [],
      "stateMutability": "nonpayable",
      "type": "function"
    },
    {
      "inputs": [
        {
          "internalType": "bytes32",
          "name": "role",
          "type": "bytes32"
        },
        {
          "internalType": "address",
          "name": "account",
          "type": "address"
        }
      ],
      "name": "hasRole",
      "outputs": [
        {
          "internalType": "bool",
          "name": "",
          "type": "bool"
        }
      ],
      "stateMutability": "view",
      "type": "function"
    },
    {
      "inputs": [],
      "name": "initialize",
      "outputs": [],
      "stateMutability": "nonpayable",
      "type": "function"
    },
    {
      "inputs": [
        {
          "internalType": "uint256",
          "name": "",
          "type": "uint256"
        }
      ],
      "name": "items",
      "outputs": [
        {
          "internalType": "address",
          "name": "pool",
          "type": "address"
        },
        {
          "internalType": "address",
          "name": "token",
          "type": "address"
        },
        {
          "internalType": "string",
          "name": "poolName",
          "type": "string"
        },
        {
          "internalType": "address",
          "name": "bribe",
          "type": "address"
        },
        {
          "internalType": "enum PayoutManager.Operation",
          "name": "operation",
          "type": "uint8"
        },
        {
          "internalType": "address",
          "name": "to",
          "type": "address"
        },
        {
          "internalType": "string",
          "name": "dexName",
          "type": "string"
        },
        {
          "internalType": "uint24",
          "name": "feePercent",
          "type": "uint24"
        },
        {
          "internalType": "address",
          "name": "feeReceiver",
          "type": "address"
        }
      ],
      "stateMutability": "view",
      "type": "function"
    },
    {
      "inputs": [
        {
          "internalType": "address",
          "name": "token",
          "type": "address"
        },
        {
          "components": [
            {
              "internalType": "address",
              "name": "pool",
              "type": "address"
            },
            {
              "internalType": "uint256",
              "name": "amount",
              "type": "uint256"
            },
            {
              "internalType": "uint256[10]",
              "name": "__gap",
              "type": "uint256[10]"
            }
          ],
          "internalType": "struct NonRebaseInfo[]",
          "name": "nonRebaseInfo",
          "type": "tuple[]"
        }
      ],
      "name": "payoutDone",
      "outputs": [],
      "stateMutability": "nonpayable",
      "type": "function"
    },
    {
      "inputs": [],
      "name": "proxiableUUID",
      "outputs": [
        {
          "internalType": "bytes32",
          "name": "",
          "type": "bytes32"
        }
      ],
      "stateMutability": "view",
      "type": "function"
    },
    {
      "inputs": [
        {
          "internalType": "address",
          "name": "token",
          "type": "address"
        },
        {
          "internalType": "address",
          "name": "pool",
          "type": "address"
        }
      ],
      "name": "removeItem",
      "outputs": [],
      "stateMutability": "nonpayable",
      "type": "function"
    },
    {
      "inputs": [],
      "name": "removeItems",
      "outputs": [],
      "stateMutability": "nonpayable",
      "type": "function"
    },
    {
      "inputs": [
        {
          "internalType": "bytes32",
          "name": "role",
          "type": "bytes32"
        },
        {
          "internalType": "address",
          "name": "account",
          "type": "address"
        }
      ],
      "name": "renounceRole",
      "outputs": [],
      "stateMutability": "nonpayable",
      "type": "function"
    },
    {
      "inputs": [
        {
          "internalType": "bytes32",
          "name": "role",
          "type": "bytes32"
        },
        {
          "internalType": "address",
          "name": "account",
          "type": "address"
        }
      ],
      "name": "revokeRole",
      "outputs": [],
      "stateMutability": "nonpayable",
      "type": "function"
    },
    {
      "inputs": [],
      "name": "rewardWallet",
      "outputs": [
        {
          "internalType": "address",
          "name": "",
          "type": "address"
        }
      ],
      "stateMutability": "view",
      "type": "function"
    },
    {
      "inputs": [],
      "name": "roleManager",
      "outputs": [
        {
          "internalType": "contract IRoleManager",
          "name": "",
          "type": "address"
        }
      ],
      "stateMutability": "view",
      "type": "function"
    },
    {
      "inputs": [
        {
          "internalType": "bool",
          "name": "_disabled",
          "type": "bool"
        }
      ],
      "name": "setDisabled",
      "outputs": [],
      "stateMutability": "nonpayable",
      "type": "function"
    },
    {
      "inputs": [
        {
          "internalType": "address",
          "name": "_rewardWallet",
          "type": "address"
        }
      ],
      "name": "setRewardWallet",
      "outputs": [],
      "stateMutability": "nonpayable",
      "type": "function"
    },
    {
      "inputs": [
        {
          "internalType": "address",
          "name": "_roleManager",
          "type": "address"
        }
      ],
      "name": "setRoleManager",
      "outputs": [],
      "stateMutability": "nonpayable",
      "type": "function"
    },
    {
      "inputs": [
        {
          "internalType": "bytes4",
          "name": "interfaceId",
          "type": "bytes4"
        }
      ],
      "name": "supportsInterface",
      "outputs": [
        {
          "internalType": "bool",
          "name": "",
          "type": "bool"
        }
      ],
      "stateMutability": "view",
      "type": "function"
    },
    {
      "inputs": [
        {
          "internalType": "address",
          "name": "newImplementation",
          "type": "address"
        }
      ],
      "name": "upgradeTo",
      "outputs": [],
      "stateMutability": "nonpayable",
      "type": "function"
    },
    {
      "inputs": [
        {
          "internalType": "address",
          "name": "newImplementation",
          "type": "address"
        },
        {
          "internalType": "bytes",
          "name": "data",
          "type": "bytes"
        }
      ],
      "name": "upgradeToAndCall",
      "outputs": [],
      "stateMutability": "payable",
      "type": "function"
    }
  ],
  "numDeployments": 4,
  "solcInputHash": "9a701d559b17bc43ad8a419c80db70c4",
  "bytecode": "0x60a0604052306080523480156200001557600080fd5b50600054610100900460ff1615808015620000375750600054600160ff909116105b8062000067575062000054306200014160201b62002ea01760201c565b15801562000067575060005460ff166001145b620000cf5760405162461bcd60e51b815260206004820152602e60248201527f496e697469616c697a61626c653a20636f6e747261637420697320616c72656160448201526d191e481a5b9a5d1a585b1a5e995960921b606482015260840160405180910390fd5b6000805460ff191660011790558015620000f3576000805461ff0019166101001790555b80156200013a576000805461ff0019169055604051600181527f7f26b83ff96e1f2b6a682f133852f6798a09c465da95921460cefb38474024989060200160405180910390a15b5062000150565b6001600160a01b03163b151590565b6080516150fe6200018860003960008181610a5e01528181610a9e0152818161113601528181611176015261120501526150fe6000f3fe6080604052600436106101b65760003560e01c80636bc82839116100ec578063bfb231d21161008a578063d547741f11610064578063d547741f146104f2578063ee07080514610512578063f1d588c51461052c578063fb75b2c71461054c57600080fd5b8063bfb231d21461047d578063c53963e6146104b2578063d0b11c1e146104d257600080fd5b806391d14854116100c657806391d14854146103f45780639d433fb514610414578063a217fddf14610434578063bd0f10531461044957600080fd5b80636bc82839146103aa5780636c5a7d1e146103bf5780638129fc1c146103df57600080fd5b80633659cfe611610159578063497d919211610133578063497d9192146103405780634f1ef2861461036257806352d1902d146103755780635958621e1461038a57600080fd5b80633659cfe6146102de5780633ca34eae146102fe578063410d59cc1461032b57600080fd5b8063194f479511610195578063194f47951461024f578063248a9ca31461026e5780632f2ff15d1461029e57806336568abe146102be57600080fd5b8062435da5146101bb57806301ffc9a7146101fd5780630363b09a1461022d575b600080fd5b3480156101c757600080fd5b5060fc546101e09061010090046001600160a01b031681565b6040516001600160a01b0390911681526020015b60405180910390f35b34801561020957600080fd5b5061021d6102183660046141c5565b61056c565b60405190151581526020016101f4565b34801561023957600080fd5b5061024d610248366004614335565b6105a3565b005b34801561025b57600080fd5b5060fb545b6040519081526020016101f4565b34801561027a57600080fd5b5061026061028936600461441e565b60009081526065602052604090206001015490565b3480156102aa57600080fd5b5061024d6102b9366004614437565b6109b1565b3480156102ca57600080fd5b5061024d6102d9366004614437565b6109d6565b3480156102ea57600080fd5b5061024d6102f9366004614467565b610a54565b34801561030a57600080fd5b5061031e610319366004614467565b610b33565b6040516101f4919061452f565b34801561033757600080fd5b5061031e610ec5565b34801561034c57600080fd5b5061026060008051602061504283398151915281565b61024d6103703660046146bb565b61112c565b34801561038157600080fd5b506102606111f8565b34801561039657600080fd5b5061024d6103a5366004614467565b6112ab565b3480156103b657600080fd5b5061024d61139f565b3480156103cb57600080fd5b5061024d6103da36600461472c565b6117b8565b3480156103eb57600080fd5b5061024d61189f565b34801561040057600080fd5b5061021d61040f366004614437565b611962565b34801561042057600080fd5b5061024d61042f366004614885565b61198d565b34801561044057600080fd5b50610260600081565b34801561045557600080fd5b506102607f3eb675f159e6ca6cf5de6bfbbc8c4521cfd428f5e9166e51094d5898504caf2d81565b34801561048957600080fd5b5061049d61049836600461441e565b611a73565b6040516101f499989796959493929190614935565b3480156104be57600080fd5b5061024d6104cd3660046149ba565b611c12565b3480156104de57600080fd5b5061024d6104ed3660046149e8565b612526565b3480156104fe57600080fd5b5061024d61050d366004614437565b612d86565b34801561051e57600080fd5b5060fc5461021d9060ff1681565b34801561053857600080fd5b5061024d610547366004614467565b612dab565b34801561055857600080fd5b5060fd546101e0906001600160a01b031681565b60006001600160e01b03198216637965db0b60e01b148061059d57506301ffc9a760e01b6001600160e01b03198316145b92915050565b6105cd7f3eb675f159e6ca6cf5de6bfbbc8c4521cfd428f5e9166e51094d5898504caf2d33611962565b61061e5760405162461bcd60e51b815260206004820152601b60248201527f43616c6c6572206973206e6f74207468652045584348414e474552000000000060448201526064015b60405180910390fd5b60fc5460ff161561066a5760405162461bcd60e51b815260206004820152601660248201527514185e5bdd5d13585b9859d95c88191a5cd8589b195960521b6044820152606401610615565b60005b60fb548110156109ac57600060fb828154811061068c5761068c614a1c565b60009182526020918290206040805161014081018252601190930290910180546001600160a01b03908116845260018201541693830193909352600283018054929392918401916106dc90614a32565b80601f016020809104026020016040519081016040528092919081815260200182805461070890614a32565b80156107555780601f1061072a57610100808354040283529160200191610755565b820191906000526020600020905b81548152906001019060200180831161073857829003601f168201915b50505091835250506003828101546001600160a01b0381166020840152604090920191600160a01b900460ff1690811115610792576107926144d4565b60038111156107a3576107a36144d4565b815260048201546001600160a01b031660208201526005820180546040909201916107cd90614a32565b80601f01602080910402602001604051908101604052809291908181526020018280546107f990614a32565b80156108465780601f1061081b57610100808354040283529160200191610846565b820191906000526020600020905b81548152906001019060200180831161082957829003601f168201915b5050509183525050600682015462ffffff81166020830152630100000090046001600160a01b03166040808301919091528051610140810191829052606090920191906007840190600a9082845b815481526020019060010190808311610894575050505050815250509050836001600160a01b031681602001516001600160a01b0316146108d5575061099a565b60005b83518110156109975760008482815181106108f5576108f5614a1c565b6020026020010151905080600001516001600160a01b031683600001516001600160a01b0316146109265750610985565b60008360800151600381111561093e5761093e6144d4565b036109525761094d8184612eaf565b610983565b60028360800151600381111561096a5761096a6144d4565b036109795761094d8184613088565b61098381846132c1565b505b8061098f81614a82565b9150506108d8565b50505b806109a481614a82565b91505061066d565b505050565b6000828152606560205260409020600101546109cc8161331e565b6109ac8383613328565b6001600160a01b0381163314610a465760405162461bcd60e51b815260206004820152602f60248201527f416363657373436f6e74726f6c3a2063616e206f6e6c792072656e6f756e636560448201526e103937b632b9903337b91039b2b63360891b6064820152608401610615565b610a5082826133ae565b5050565b6001600160a01b037f0000000000000000000000000000000000000000000000000000000000000000163003610a9c5760405162461bcd60e51b815260040161061590614a9b565b7f00000000000000000000000000000000000000000000000000000000000000006001600160a01b0316610ae5600080516020615062833981519152546001600160a01b031690565b6001600160a01b031614610b0b5760405162461bcd60e51b815260040161061590614ae7565b610b1481613415565b60408051600080825260208201909252610b3091839190613420565b50565b60606000805b60fb54811015610b9f57836001600160a01b031660fb8281548110610b6057610b60614a1c565b60009182526020909120601190910201546001600160a01b031603610b8d5781610b8981614a82565b9250505b80610b9781614a82565b915050610b39565b506000816001600160401b03811115610bba57610bba614214565b604051908082528060200260200182016040528015610bf357816020015b610be06140b1565b815260200190600190039081610bd85790505b5090506000805b60fb54811015610ebb57856001600160a01b031660fb8281548110610c2157610c21614a1c565b60009182526020909120601190910201546001600160a01b031603610ea957600060fb8281548110610c5557610c55614a1c565b60009182526020918290206040805161014081018252601190930290910180546001600160a01b0390811684526001820154169383019390935260028301805492939291840191610ca590614a32565b80601f0160208091040260200160405190810160405280929190818152602001828054610cd190614a32565b8015610d1e5780601f10610cf357610100808354040283529160200191610d1e565b820191906000526020600020905b815481529060010190602001808311610d0157829003601f168201915b50505091835250506003828101546001600160a01b0381166020840152604090920191600160a01b900460ff1690811115610d5b57610d5b6144d4565b6003811115610d6c57610d6c6144d4565b815260048201546001600160a01b03166020820152600582018054604090920191610d9690614a32565b80601f0160208091040260200160405190810160405280929190818152602001828054610dc290614a32565b8015610e0f5780601f10610de457610100808354040283529160200191610e0f565b820191906000526020600020905b815481529060010190602001808311610df257829003601f168201915b5050509183525050600682015462ffffff81166020830152630100000090046001600160a01b03166040808301919091528051610140810191829052606090920191906007840190600a9082845b815481526020019060010190808311610e5d57505050505081525050905080848481518110610e8e57610e8e614a1c565b60200260200101819052508280610ea490614a82565b935050505b80610eb381614a82565b915050610bfa565b5090949350505050565b606060fb805480602002602001604051908101604052809291908181526020016000905b8282101561112357600084815260209081902060408051610140810182526011860290920180546001600160a01b0390811684526001820154169383019390935260028301805492939291840191610f4090614a32565b80601f0160208091040260200160405190810160405280929190818152602001828054610f6c90614a32565b8015610fb95780601f10610f8e57610100808354040283529160200191610fb9565b820191906000526020600020905b815481529060010190602001808311610f9c57829003601f168201915b50505091835250506003828101546001600160a01b0381166020840152604090920191600160a01b900460ff1690811115610ff657610ff66144d4565b6003811115611007576110076144d4565b815260048201546001600160a01b0316602082015260058201805460409092019161103190614a32565b80601f016020809104026020016040519081016040528092919081815260200182805461105d90614a32565b80156110aa5780601f1061107f576101008083540402835291602001916110aa565b820191906000526020600020905b81548152906001019060200180831161108d57829003601f168201915b5050509183525050600682015462ffffff81166020830152630100000090046001600160a01b03166040808301919091528051610140810191829052606090920191906007840190600a9082845b8154815260200190600101908083116110f85750505050508152505081526020019060010190610ee9565b50505050905090565b6001600160a01b037f00000000000000000000000000000000000000000000000000000000000000001630036111745760405162461bcd60e51b815260040161061590614a9b565b7f00000000000000000000000000000000000000000000000000000000000000006001600160a01b03166111bd600080516020615062833981519152546001600160a01b031690565b6001600160a01b0316146111e35760405162461bcd60e51b815260040161061590614ae7565b6111ec82613415565b610a5082826001613420565b6000306001600160a01b037f000000000000000000000000000000000000000000000000000000000000000016146112985760405162461bcd60e51b815260206004820152603860248201527f555550535570677261646561626c653a206d757374206e6f742062652063616c60448201527f6c6564207468726f7567682064656c656761746563616c6c00000000000000006064820152608401610615565b5060008051602061506283398151915290565b6112b6600033611962565b6112f95760405162461bcd60e51b81526020600482015260146024820152735265737472696374656420746f2061646d696e7360601b6044820152606401610615565b6001600160a01b03811661134a5760405162461bcd60e51b815260206004820152601860248201527716995c9bc81859191c995cdcc81b9bdd08185b1b1bddd95960421b6044820152606401610615565b60fd80546001600160a01b0319166001600160a01b0383169081179091556040519081527ff49ff3ce1d97db94f282d2e6c2759db33d65636b2f07ad4ae7c8e6f97aa75615906020015b60405180910390a150565b60fc54604051632474521560e21b815260008051602061504283398151915260048201523360248201526101009091046001600160a01b0316906391d1485490604401602060405180830381865afa1580156113ff573d6000803e3d6000fd5b505050506040513d601f19601f820116820180604052508101906114239190614b33565b61143f5760405162461bcd60e51b815260040161061590614b50565b60fb5460005b81811015610a5057600060fb600161145d8486614b7c565b6114679190614b7c565b8154811061147757611477614a1c565b60009182526020918290206040805161014081018252601190930290910180546001600160a01b03908116845260018201541693830193909352600283018054929392918401916114c790614a32565b80601f01602080910402602001604051908101604052809291908181526020018280546114f390614a32565b80156115405780601f1061151557610100808354040283529160200191611540565b820191906000526020600020905b81548152906001019060200180831161152357829003601f168201915b50505091835250506003828101546001600160a01b0381166020840152604090920191600160a01b900460ff169081111561157d5761157d6144d4565b600381111561158e5761158e6144d4565b815260048201546001600160a01b031660208201526005820180546040909201916115b890614a32565b80601f01602080910402602001604051908101604052809291908181526020018280546115e490614a32565b80156116315780601f1061160657610100808354040283529160200191611631565b820191906000526020600020905b81548152906001019060200180831161161457829003601f168201915b5050509183525050600682015462ffffff81166020830152630100000090046001600160a01b03166040808301919091528051610140810191829052606090920191906007840190600a9082845b81548152602001906001019080831161167f57505050505081525050905060fb8054806116ae576116ae614b8f565b60008281526020812060116000199093019283020180546001600160a01b031990811682556001820180549091169055906116ec600283018261410a565b6003820180546001600160a81b03191690556004820180546001600160a01b031916905561171e60058301600061410a565b6006820180546001600160b81b031916905561173e600783016000614144565b5050905560208101518151604051635d90737960e01b81526001600160a01b039182166004820152911690635d90737990602401600060405180830381600087803b15801561178c57600080fd5b505af11580156117a0573d6000803e3d6000fd5b505050505080806117b090614a82565b915050611445565b60fc54604051632474521560e21b815260008051602061504283398151915260048201523360248201526101009091046001600160a01b0316906391d1485490604401602060405180830381865afa158015611818573d6000803e3d6000fd5b505050506040513d601f19601f8201168201806040525081019061183c9190614b33565b6118585760405162461bcd60e51b815260040161061590614b50565b60fc805460ff191682151590811790915560405160ff909116151581527f0e836a283085867e84aa4dfd94164de8ce61ee6d9e57dfae5e0fcf1eff8f268c90602001611394565b600054610100900460ff16158080156118bf5750600054600160ff909116105b806118d95750303b1580156118d9575060005460ff166001145b6118f55760405162461bcd60e51b815260040161061590614ba5565b6000805460ff191660011790558015611918576000805461ff0019166101001790555b61192061358b565b8015610b30576000805461ff0019169055604051600181527f7f26b83ff96e1f2b6a682f133852f6798a09c465da95921460cefb384740249890602001611394565b60009182526065602090815260408084206001600160a01b0393909316845291905290205460ff1690565b60fc54604051632474521560e21b815260008051602061504283398151915260048201523360248201526101009091046001600160a01b0316906391d1485490604401602060405180830381865afa1580156119ed573d6000803e3d6000fd5b505050506040513d601f19601f82011682018060405250810190611a119190614b33565b611a2d5760405162461bcd60e51b815260040161061590614b50565b60005b8151811015610a50576000828281518110611a4d57611a4d614a1c565b60200260200101519050611a6081612526565b5080611a6b81614a82565b915050611a30565b60fb8181548110611a8357600080fd5b60009182526020909120601190910201805460018201546002830180546001600160a01b039384169550929091169291611abc90614a32565b80601f0160208091040260200160405190810160405280929190818152602001828054611ae890614a32565b8015611b355780601f10611b0a57610100808354040283529160200191611b35565b820191906000526020600020905b815481529060010190602001808311611b1857829003601f168201915b505050506003830154600484015460058501805494956001600160a01b0380851696600160a01b90950460ff16955090921692611b7190614a32565b80601f0160208091040260200160405190810160405280929190818152602001828054611b9d90614a32565b8015611bea5780601f10611bbf57610100808354040283529160200191611bea565b820191906000526020600020905b815481529060010190602001808311611bcd57829003601f168201915b5050506006909301549192505062ffffff8116906001600160a01b0363010000009091041689565b60fc54604051632474521560e21b815260008051602061504283398151915260048201523360248201526101009091046001600160a01b0316906391d1485490604401602060405180830381865afa158015611c72573d6000803e3d6000fd5b505050506040513d601f19601f82011682018060405250810190611c969190614b33565b611cb25760405162461bcd60e51b815260040161061590614b50565b6001600160a01b038216611cf85760405162461bcd60e51b815260206004820152600d60248201526c746f6b656e206973207a65726f60981b6044820152606401610615565b6001600160a01b038116611d3d5760405162461bcd60e51b815260206004820152600c60248201526b706f6f6c206973207a65726f60a01b6044820152606401610615565b60005b60fb548110156124ec57600060fb8281548110611d5f57611d5f614a1c565b60009182526020918290206040805161014081018252601190930290910180546001600160a01b0390811684526001820154169383019390935260028301805492939291840191611daf90614a32565b80601f0160208091040260200160405190810160405280929190818152602001828054611ddb90614a32565b8015611e285780601f10611dfd57610100808354040283529160200191611e28565b820191906000526020600020905b815481529060010190602001808311611e0b57829003601f168201915b50505091835250506003828101546001600160a01b0381166020840152604090920191600160a01b900460ff1690811115611e6557611e656144d4565b6003811115611e7657611e766144d4565b815260048201546001600160a01b03166020820152600582018054604090920191611ea090614a32565b80601f0160208091040260200160405190810160405280929190818152602001828054611ecc90614a32565b8015611f195780601f10611eee57610100808354040283529160200191611f19565b820191906000526020600020905b815481529060010190602001808311611efc57829003601f168201915b5050509183525050600682015462ffffff81166020830152630100000090046001600160a01b03166040808301919091528051610140810191829052606090920191906007840190600a9082845b815481526020019060010190808311611f67575050505050815250509050836001600160a01b031681602001516001600160a01b0316148015611fbf5750826001600160a01b031681600001516001600160a01b0316145b156124d957815b60fb54611fd590600190614b7c565b81101561238d57600060fb611feb836001614bf3565b81548110611ffb57611ffb614a1c565b60009182526020918290206040805161014081018252601190930290910180546001600160a01b039081168452600182015416938301939093526002830180549293929184019161204b90614a32565b80601f016020809104026020016040519081016040528092919081815260200182805461207790614a32565b80156120c45780601f10612099576101008083540402835291602001916120c4565b820191906000526020600020905b8154815290600101906020018083116120a757829003601f168201915b50505091835250506003828101546001600160a01b0381166020840152604090920191600160a01b900460ff1690811115612101576121016144d4565b6003811115612112576121126144d4565b815260048201546001600160a01b0316602082015260058201805460409092019161213c90614a32565b80601f016020809104026020016040519081016040528092919081815260200182805461216890614a32565b80156121b55780601f1061218a576101008083540402835291602001916121b5565b820191906000526020600020905b81548152906001019060200180831161219857829003601f168201915b5050509183525050600682015462ffffff81166020830152630100000090046001600160a01b03166040808301919091528051610140810191829052606090920191906007840190600a9082845b8154815260200190600101908083116122035750505050508152505090508060fb838154811061223557612235614a1c565b6000918252602091829020835160119092020180546001600160a01b039283166001600160a01b0319918216178255928401516001820180549190931693169290921790556040820151600282019061228e9082614c54565b506060820151600380830180546001600160a01b039093166001600160a01b031984168117825560808601519391926001600160a81b03199092161790600160a01b9084908111156122e2576122e26144d4565b021790555060a08201516004820180546001600160a01b0319166001600160a01b0390921691909117905560c082015160058201906123219082614c54565b5060e08201516006820180546101008501516001600160a01b03166301000000026001600160b81b031990911662ffffff90931692909217919091179055610120820151612375906007830190600a614153565b5090505050808061238590614a82565b915050611fc6565b5060fb80548061239f5761239f614b8f565b60008281526020812060116000199093019283020180546001600160a01b031990811682556001820180549091169055906123dd600283018261410a565b6003820180546001600160a81b03191690556004820180546001600160a01b031916905561240f60058301600061410a565b6006820180546001600160b81b031916905561242f600783016000614144565b50509055604051635d90737960e01b81526001600160a01b038481166004830152851690635d90737990602401600060405180830381600087803b15801561247657600080fd5b505af115801561248a573d6000803e3d6000fd5b5050604080516001600160a01b038089168252871660208201527f68e2e4dc27ec3ffea1ce098b4fe6d29f6a1e663455d9a77a3bc859cc67027a2193500190505b60405180910390a150505050565b50806124e481614a82565b915050611d40565b5060405162461bcd60e51b815260206004820152600e60248201526d1a5d195b481b9bdd08199bdd5b9960921b6044820152606401610615565b60fc54604051632474521560e21b815260008051602061504283398151915260048201523360248201526101009091046001600160a01b0316906391d1485490604401602060405180830381865afa158015612586573d6000803e3d6000fd5b505050506040513d601f19601f820116820180604052508101906125aa9190614b33565b6125c65760405162461bcd60e51b815260040161061590614b50565b60208101516001600160a01b03166126105760405162461bcd60e51b815260206004820152600d60248201526c746f6b656e206973207a65726f60981b6044820152606401610615565b80516001600160a01b03166126565760405162461bcd60e51b815260206004820152600c60248201526b706f6f6c206973207a65726f60a01b6044820152606401610615565b60008160800151600381111561266e5761266e6144d4565b036126bf5760a08101516001600160a01b03166126ba5760405162461bcd60e51b815260206004820152600a602482015269746f206973207a65726f60b01b6044820152606401610615565b612726565b6002816080015160038111156126d7576126d76144d4565b036127265760608101516001600160a01b03166127265760405162461bcd60e51b815260206004820152600d60248201526c6272696265206973207a65726f60981b6044820152606401610615565b600160005b60fb54811015612b1b57600060fb828154811061274a5761274a614a1c565b60009182526020918290206040805161014081018252601190930290910180546001600160a01b039081168452600182015416938301939093526002830180549293929184019161279a90614a32565b80601f01602080910402602001604051908101604052809291908181526020018280546127c690614a32565b80156128135780601f106127e857610100808354040283529160200191612813565b820191906000526020600020905b8154815290600101906020018083116127f657829003601f168201915b50505091835250506003828101546001600160a01b0381166020840152604090920191600160a01b900460ff1690811115612850576128506144d4565b6003811115612861576128616144d4565b815260048201546001600160a01b0316602082015260058201805460409092019161288b90614a32565b80601f01602080910402602001604051908101604052809291908181526020018280546128b790614a32565b80156129045780601f106128d957610100808354040283529160200191612904565b820191906000526020600020905b8154815290600101906020018083116128e757829003601f168201915b5050509183525050600682015462ffffff81166020830152630100000090046001600160a01b03166040808301919091528051610140810191829052606090920191906007840190600a9082845b81548152602001906001019080831161295257505050505081525050905083602001516001600160a01b031681602001516001600160a01b03161480156129a75750835181516001600160a01b039081169116145b15612b08578360fb83815481106129c0576129c0614a1c565b6000918252602091829020835160119092020180546001600160a01b039283166001600160a01b03199182161782559284015160018201805491909316931692909217905560408201516002820190612a199082614c54565b506060820151600380830180546001600160a01b039093166001600160a01b031984168117825560808601519391926001600160a81b03199092161790600160a01b908490811115612a6d57612a6d6144d4565b021790555060a08201516004820180546001600160a01b0319166001600160a01b0390921691909117905560c08201516005820190612aac9082614c54565b5060e08201516006820180546101008501516001600160a01b03166301000000026001600160b81b031990911662ffffff90931692909217919091179055610120820151612b00906007830190600a614153565b506000945050505b5080612b1381614a82565b91505061272b565b508015612d2e5760fb8054600181018255600091909152825160119091027f3e7257b7272bb46d49cd6019b04ddee20da7c0cb13f7c1ec3391291b2ccebabc810180546001600160a01b039384166001600160a01b031991821617825560208601517f3e7257b7272bb46d49cd6019b04ddee20da7c0cb13f7c1ec3391291b2ccebabd840180549190951691161790925560408401518492917f3e7257b7272bb46d49cd6019b04ddee20da7c0cb13f7c1ec3391291b2ccebabe0190612be19082614c54565b506060820151600380830180546001600160a01b039093166001600160a01b031984168117825560808601519391926001600160a81b03199092161790600160a01b908490811115612c3557612c356144d4565b021790555060a08201516004820180546001600160a01b0319166001600160a01b0390921691909117905560c08201516005820190612c749082614c54565b5060e08201516006820180546101008501516001600160a01b03166301000000026001600160b81b031990911662ffffff90931692909217919091179055610120820151612cc8906007830190600a614153565b5050506020820151825160405163e626030760e01b81526001600160a01b03918216600482015291169063e626030790602401600060405180830381600087803b158015612d1557600080fd5b505af1158015612d29573d6000803e3d6000fd5b505050505b602082015182516040517f2ab4ebfadf1dbb6985345a1d09dabe17cafc9f765b05fc738368c0ab2886ab0392612d7a9290916001600160a01b0392831681529116602082015260400190565b60405180910390a15050565b600082815260656020526040902060010154612da18161331e565b6109ac83836133ae565b612db6600033611962565b612df95760405162461bcd60e51b81526020600482015260146024820152735265737472696374656420746f2061646d696e7360601b6044820152606401610615565b6001600160a01b038116612e4a5760405162461bcd60e51b815260206004820152601860248201527716995c9bc81859191c995cdcc81b9bdd08185b1b1bddd95960421b6044820152606401610615565b60fc8054610100600160a81b0319166101006001600160a01b038416908102919091179091556040519081527f5a7ef52f6714a981ffe676ce3c4a14db59929bd3f8ca82bb6cf9e230fa8a50c990602001611394565b6001600160a01b03163b151590565b6020808301519082015181156130825760e083015162ffffff1615612fc757600060648460e0015162ffffff1684612ee79190614d13565b612ef19190614d2a565b9050612efd8184614b7c565b92508015612fc55761010084015160405163a9059cbb60e01b81526001600160a01b039182166004820152602481018390529083169063a9059cbb906044016020604051808303816000875af1158015612f5b573d6000803e3d6000fd5b505050506040513d601f19601f82011682018060405250810190612f7f9190614b33565b506000805160206150828339815191528460c0015185604001518660000151876020015185896101000151604051612fbc96959493929190614d4c565b60405180910390a15b505b81156130825760a083015160405163a9059cbb60e01b81526001600160a01b039182166004820152602481018490529082169063a9059cbb906044016020604051808303816000875af1158015613022573d6000803e3d6000fd5b505050506040513d601f19601f820116820180604052508101906130469190614b33565b506000805160206150828339815191528360c00151846040015185600001518660200151868860a001516040516124cb96959493929190614d4c565b50505050565b6020808301519082015181156130825760e083015162ffffff16156131a057600060648460e0015162ffffff16846130c09190614d13565b6130ca9190614d2a565b90506130d68184614b7c565b9250801561319e5761010084015160405163a9059cbb60e01b81526001600160a01b039182166004820152602481018390529083169063a9059cbb906044016020604051808303816000875af1158015613134573d6000803e3d6000fd5b505050506040513d601f19601f820116820180604052508101906131589190614b33565b506000805160206150828339815191528460c001518560400151866000015187602001518589610100015160405161319596959493929190614dc4565b60405180910390a15b505b811561308257606083015160405163095ea7b360e01b81526001600160a01b039182166004820152602481018490529082169063095ea7b3906044016020604051808303816000875af11580156131fb573d6000803e3d6000fd5b505050506040513d601f19601f8201168201806040525081019061321f9190614b33565b506060830151602084015160405163b66503cf60e01b81526001600160a01b0391821660048201526024810185905291169063b66503cf90604401600060405180830381600087803b15801561327457600080fd5b505af1158015613288573d6000803e3d6000fd5b50505060c0840151604080860151865160208801516060890151935160008051602061508283398151915296506124cb95948991614dc4565b60c0810151805160209182012060408051808201909152600881526756656c6f636f726560c01b9201919091527ec8c49fed78a8160e54327a240b51c6386912ddb6f11fd4416445746329ae4481016109ac576109ac8383613687565b610b308133613a57565b6133328282611962565b610a505760008281526065602090815260408083206001600160a01b03851684529091529020805460ff1916600117905561336a3390565b6001600160a01b0316816001600160a01b0316837f2f8788117e7eff1d82e926ec794901d17c78024a50270940304540a733656f0d60405160405180910390a45050565b6133b88282611962565b15610a505760008281526065602090815260408083206001600160a01b0385168085529252808320805460ff1916905551339285917ff6391f5c32d9c69d2a47ea670b442974b53935d1edc7fd64eb21e047a839171b9190a45050565b6000610a508161331e565b7f4910fdfa16fed3260ed0e7147f7cc6da11a60208b5b9406d12a635614ffd91435460ff1615613453576109ac83613ab0565b826001600160a01b03166352d1902d6040518163ffffffff1660e01b8152600401602060405180830381865afa9250505080156134ad575060408051601f3d908101601f191682019092526134aa91810190614e09565b60015b6135105760405162461bcd60e51b815260206004820152602e60248201527f45524331393637557067726164653a206e657720696d706c656d656e7461746960448201526d6f6e206973206e6f74205555505360901b6064820152608401610615565b600080516020615062833981519152811461357f5760405162461bcd60e51b815260206004820152602960248201527f45524331393637557067726164653a20756e737570706f727465642070726f786044820152681a58589b195555525160ba1b6064820152608401610615565b506109ac838383613b4c565b600054610100900460ff16158080156135ab5750600054600160ff909116105b806135c55750303b1580156135c5575060005460ff166001145b6135e15760405162461bcd60e51b815260040161061590614ba5565b6000805460ff191660011790558015613604576000805461ff0019166101001790555b61360c613b71565b613614613b71565b61361f600033613328565b60fd80546001600160a01b031916739030d5c596d636eefc8f0ad7b2788ae7e9ef3d461790558015610b30576000805461ff0019169055604051600181527f7f26b83ff96e1f2b6a682f133852f6798a09c465da95921460cefb384740249890602001611394565b6020808201519083015180156130825760e083015162ffffff161561379f57600060648460e0015162ffffff16836136bf9190614d13565b6136c99190614d2a565b90506136d58183614b7c565b9150801561379d5761010084015160405163a9059cbb60e01b81526001600160a01b039182166004820152602481018390529084169063a9059cbb906044016020604051808303816000875af1158015613733573d6000803e3d6000fd5b505050506040513d601f19601f820116820180604052508101906137579190614b33565b506000805160206150828339815191528460c001518560400151866000015187602001518589610100015160405161379496959493929190614dc4565b60405180910390a15b505b801561308257825160405163edcdab7760e01b81526001600160a01b039091166004820152731d0188c4b276a09366d05d6be06af61a73bc753590600090736ecc3ddf76e42dd2ff681dc926eb885d8651ee549063edcdab7790602401602060405180830381865afa158015613819573d6000803e3d6000fd5b505050506040513d601f19601f8201168201806040525081019061383d9190614e22565b6060860151909150600061384f613bde565b905060006138608262093a80614e3f565b885160405163095ea7b360e01b81526001600160a01b0391821660048201526024810189905291925088169063095ea7b3906044016020604051808303816000875af11580156138b4573d6000803e3d6000fd5b505050506040513d601f19601f820116820180604052508101906138d89190614b33565b5087516040516377e2509560e11b8152600481018890526001600160a01b039091169063efc4a12a90602401600060405180830381600087803b15801561391e57600080fd5b505af1158015613932573d6000803e3d6000fd5b505089516040516370a0823160e01b8152306004820152600093506001600160a01b0390911691506370a0823190602401602060405180830381865afa158015613980573d6000803e3d6000fd5b505050506040513d601f19601f820116820180604052508101906139a49190614e09565b8951604080516001600160a01b038816602082015263ffffffff80881692820192909252600060608201819052918616608082015260a0810182905292935091613a0c91899184918a918391908290899060c001604051602081830303815290604052613c0c565b60c08b01516040808d01518d5160208f0151925194955060008051602061508283398151915294613a4294939087908c90614dc4565b60405180910390a15050505050505050505050565b613a618282611962565b610a5057613a6e81613d7a565b613a79836020613d8c565b604051602001613a8a929190614e63565b60408051601f198184030181529082905262461bcd60e51b825261061591600401614ed8565b6001600160a01b0381163b613b1d5760405162461bcd60e51b815260206004820152602d60248201527f455243313936373a206e657720696d706c656d656e746174696f6e206973206e60448201526c1bdd08184818dbdb9d1c9858dd609a1b6064820152608401610615565b60008051602061506283398151915280546001600160a01b0319166001600160a01b0392909216919091179055565b613b5583613f2e565b600082511180613b625750805b156109ac576130828383613f6e565b600054610100900460ff16613bdc5760405162461bcd60e51b815260206004820152602b60248201527f496e697469616c697a61626c653a20636f6e7472616374206973206e6f74206960448201526a6e697469616c697a696e6760a81b6064820152608401610615565b565b600080613bed610e1042614d2a565b613bf8906001614bf3565b9050613c0681610e10614d13565b91505090565b60006001600160a01b03851615613c925760405163095ea7b360e01b81526001600160a01b038a811660048301526024820185905286169063095ea7b3906044016020604051808303816000875af1158015613c6c573d6000803e3d6000fd5b505050506040513d601f19601f82011682018060405250810190613c909190614b33565b505b6000896001600160a01b0316631a3498418a8a8a6004811115613cb757613cb76144d4565b8a8a6002811115613cca57613cca6144d4565b8a8a6040518863ffffffff1660e01b8152600401613ced96959493929190614eeb565b60006040518083038185885af1158015613d0b573d6000803e3d6000fd5b50505050506040513d6000823e601f3d908101601f19168201604052613d349190810190614f3f565b905080600081518110613d4957613d49614a1c565b6020026020010151613d5a90614fdf565b6fffffffffffffffffffffffffffffffff169a9950505050505050505050565b606061059d6001600160a01b03831660145b60606000613d9b836002614d13565b613da6906002614bf3565b6001600160401b03811115613dbd57613dbd614214565b6040519080825280601f01601f191660200182016040528015613de7576020820181803683370190505b509050600360fc1b81600081518110613e0257613e02614a1c565b60200101906001600160f81b031916908160001a905350600f60fb1b81600181518110613e3157613e31614a1c565b60200101906001600160f81b031916908160001a9053506000613e55846002614d13565b613e60906001614bf3565b90505b6001811115613ed8576f181899199a1a9b1b9c1cb0b131b232b360811b85600f1660108110613e9457613e94614a1c565b1a60f81b828281518110613eaa57613eaa614a1c565b60200101906001600160f81b031916908160001a90535060049490941c93613ed18161500e565b9050613e63565b508315613f275760405162461bcd60e51b815260206004820181905260248201527f537472696e67733a20686578206c656e67746820696e73756666696369656e746044820152606401610615565b9392505050565b613f3781613ab0565b6040516001600160a01b038216907fbc7cd75a20ee27fd9adebab32041f755214dbc6bffa90cc0225b39da2e5c2d3b90600090a250565b6060613f2783836040518060600160405280602781526020016150a2602791396060600080856001600160a01b031685604051613fab9190615025565b600060405180830381855af49150503d8060008114613fe6576040519150601f19603f3d011682016040523d82523d6000602084013e613feb565b606091505b5091509150613ffc86838387614006565b9695505050505050565b6060831561407557825160000361406e576001600160a01b0385163b61406e5760405162461bcd60e51b815260206004820152601d60248201527f416464726573733a2063616c6c20746f206e6f6e2d636f6e74726163740000006044820152606401610615565b508161407f565b61407f8383614087565b949350505050565b8151156140975781518083602001fd5b8060405162461bcd60e51b81526004016106159190614ed8565b6040805161014081018252600080825260208201819052606092820183905291810182905290608082019081526000602082018190526060604083018190528201819052608082015260a001614105614191565b905290565b50805461411690614a32565b6000825580601f10614126575050565b601f016020900490600052602060002090810190610b3091906141b0565b50610b3090600a8101906141b0565b82600a8101928215614181579160200282015b82811115614181578251825591602001919060010190614166565b5061418d9291506141b0565b5090565b604051806101400160405280600a906020820280368337509192915050565b5b8082111561418d57600081556001016141b1565b6000602082840312156141d757600080fd5b81356001600160e01b031981168114613f2757600080fd5b6001600160a01b0381168114610b3057600080fd5b803561420f816141ef565b919050565b634e487b7160e01b600052604160045260246000fd5b604051606081016001600160401b038111828210171561424c5761424c614214565b60405290565b60405161014081016001600160401b038111828210171561424c5761424c614214565b604051601f8201601f191681016001600160401b038111828210171561429d5761429d614214565b604052919050565b60006001600160401b038211156142be576142be614214565b5060051b60200190565b600082601f8301126142d957600080fd5b6040516101408082018281106001600160401b03821117156142fd576142fd614214565b6040528301818582111561431057600080fd5b845b8281101561432a578035825260209182019101614312565b509195945050505050565b600080604080848603121561434957600080fd5b8335614354816141ef565b92506020848101356001600160401b0381111561437057600080fd5b8501601f8101871361438157600080fd5b803561439461438f826142a5565b614275565b818152610180918202830184019184820191908a8411156143b457600080fd5b938501935b8385101561440d5780858c0312156143d15760008081fd5b6143d961422a565b85356143e4816141ef565b815285870135878201526143fa8c8988016142c8565b81890152835293840193918501916143b9565b508096505050505050509250929050565b60006020828403121561443057600080fd5b5035919050565b6000806040838503121561444a57600080fd5b82359150602083013561445c816141ef565b809150509250929050565b60006020828403121561447957600080fd5b8135613f27816141ef565b60005b8381101561449f578181015183820152602001614487565b50506000910152565b600081518084526144c0816020860160208601614484565b601f01601f19169290920160200192915050565b634e487b7160e01b600052602160045260246000fd5b6004811061450857634e487b7160e01b600052602160045260246000fd5b9052565b8060005b600a811015613082578151845260209384019390910190600101614510565b60006020808301818452808551808352604092508286019150828160051b87010184880160005b8381101561465657888303603f19018552815180516001600160a01b03168452610260818901516001600160a01b038116868b0152508782015181898701526145a1828701826144a8565b9150506060808301516145be828801826001600160a01b03169052565b50506080808301516145d2828801826144ea565b505060a0828101516001600160a01b03169086015260c080830151868303828801526145fe83826144a8565b9250505060e0808301516146188288018262ffffff169052565b5050610100828101516001600160a01b03169086015261012091820151916146428187018461450c565b509588019593505090860190600101614556565b509098975050505050505050565b60006001600160401b0383111561467d5761467d614214565b614690601f8401601f1916602001614275565b90508281528383830111156146a457600080fd5b828260208301376000602084830101529392505050565b600080604083850312156146ce57600080fd5b82356146d9816141ef565b915060208301356001600160401b038111156146f457600080fd5b8301601f8101851361470557600080fd5b61471485823560208401614664565b9150509250929050565b8015158114610b3057600080fd5b60006020828403121561473e57600080fd5b8135613f278161471e565b600082601f83011261475a57600080fd5b613f2783833560208501614664565b80356004811061420f57600080fd5b803562ffffff8116811461420f57600080fd5b6000610260828403121561479e57600080fd5b6147a6614252565b90506147b182614204565b81526147bf60208301614204565b602082015260408201356001600160401b03808211156147de57600080fd5b6147ea85838601614749565b60408401526147fb60608501614204565b606084015261480c60808501614769565b608084015261481d60a08501614204565b60a084015260c084013591508082111561483657600080fd5b5061484384828501614749565b60c08301525061485560e08301614778565b60e0820152610100614868818401614204565b9082015261012061487b848483016142c8565b9082015292915050565b6000602080838503121561489857600080fd5b82356001600160401b03808211156148af57600080fd5b818501915085601f8301126148c357600080fd5b81356148d161438f826142a5565b81815260059190911b830184019084810190888311156148f057600080fd5b8585015b838110156149285780358581111561490c5760008081fd5b61491a8b89838a010161478b565b8452509186019186016148f4565b5098975050505050505050565b6001600160a01b038a811682528981166020830152610120604083018190526000916149638483018c6144a8565b9150808a16606085015261497a608085018a6144ea565b80881660a085015283820360c085015261499482886144a8565b925062ffffff861660e085015280851661010085015250509a9950505050505050505050565b600080604083850312156149cd57600080fd5b82356149d8816141ef565b9150602083013561445c816141ef565b6000602082840312156149fa57600080fd5b81356001600160401b03811115614a1057600080fd5b61407f8482850161478b565b634e487b7160e01b600052603260045260246000fd5b600181811c90821680614a4657607f821691505b602082108103614a6657634e487b7160e01b600052602260045260246000fd5b50919050565b634e487b7160e01b600052601160045260246000fd5b600060018201614a9457614a94614a6c565b5060010190565b6020808252602c908201527f46756e6374696f6e206d7573742062652063616c6c6564207468726f7567682060408201526b19195b1959d85d1958d85b1b60a21b606082015260800190565b6020808252602c908201527f46756e6374696f6e206d7573742062652063616c6c6564207468726f7567682060408201526b6163746976652070726f787960a01b606082015260800190565b600060208284031215614b4557600080fd5b8151613f278161471e565b60208082526012908201527114995cdd1c9a58dd1959081d1bc8155b9a5d60721b604082015260600190565b8181038181111561059d5761059d614a6c565b634e487b7160e01b600052603160045260246000fd5b6020808252602e908201527f496e697469616c697a61626c653a20636f6e747261637420697320616c72656160408201526d191e481a5b9a5d1a585b1a5e995960921b606082015260800190565b8082018082111561059d5761059d614a6c565b601f8211156109ac57600081815260208120601f850160051c81016020861015614c2d5750805b601f850160051c820191505b81811015614c4c57828155600101614c39565b505050505050565b81516001600160401b03811115614c6d57614c6d614214565b614c8181614c7b8454614a32565b84614c06565b602080601f831160018114614cb65760008415614c9e5750858301515b600019600386901b1c1916600185901b178555614c4c565b600085815260208120601f198616915b82811015614ce557888601518255948401946001909101908401614cc6565b5085821015614d035787850151600019600388901b60f8161c191681555b5050505050600190811b01905550565b808202811582820484141761059d5761059d614a6c565b600082614d4757634e487b7160e01b600052601260045260246000fd5b500490565b60e081526000614d5f60e08301896144a8565b8281038060208501526004825263536b696d60e01b602083015260408101604085015250614d9060408201896144a8565b6001600160a01b0397881660608501529587166080840152505060a081019290925290921660c09092019190915292915050565b60e081526000614dd760e08301896144a8565b8281038060208501526005825264427269626560d81b602083015260408101604085015250614d9060408201896144a8565b600060208284031215614e1b57600080fd5b5051919050565b600060208284031215614e3457600080fd5b8151613f27816141ef565b63ffffffff818116838216019080821115614e5c57614e5c614a6c565b5092915050565b7f416363657373436f6e74726f6c3a206163636f756e7420000000000000000000815260008351614e9b816017850160208801614484565b7001034b99036b4b9b9b4b733903937b6329607d1b6017918401918201528351614ecc816028840160208801614484565b01602801949350505050565b602081526000613f2760208301846144a8565b6001600160a01b03878116825260ff8781166020840152908616604083015284166060820152600f83900b608082015260c060a08201819052600090614f33908301846144a8565b98975050505050505050565b60006020808385031215614f5257600080fd5b82516001600160401b03811115614f6857600080fd5b8301601f81018513614f7957600080fd5b8051614f8761438f826142a5565b81815260059190911b82018301908381019087831115614fa657600080fd5b928401925b82841015614fd457835180600f0b8114614fc55760008081fd5b82529284019290840190614fab565b979650505050505050565b600081600f0b6f7fffffffffffffffffffffffffffffff19810361500557615005614a6c565b60000392915050565b60008161501d5761501d614a6c565b506000190190565b60008251615037818460208701614484565b919091019291505056feede8101501d89b9894e78e4f219420b6ddb840e8e75dde35741a0745408476d7360894a13ba1a3210667c828492db98dca3e2076cc3735a920a3ca505d382bbccb414e813f34d59db194a1937a70c199f2a691ccd6ee32704df2b38170acb6ed416464726573733a206c6f772d6c6576656c2064656c65676174652063616c6c206661696c6564a264697066735822122095b4325d9f0eadf7307a73632554bd7b5cb6887559c801d8141c8aedcaea37bc64736f6c63430008110033",
  "implementation": "0x381691fE9c778c92Aa0da677379784b1228c46A2",
  "devdoc": {
    "kind": "dev",
    "methods": {
      "constructor": {
        "custom:oz-upgrades-unsafe-allow": "constructor"
      },
      "getRoleAdmin(bytes32)": {
        "details": "Returns the admin role that controls `role`. See {grantRole} and {revokeRole}. To change a role's admin, use {_setRoleAdmin}."
      },
      "grantRole(bytes32,address)": {
        "details": "Grants `role` to `account`. If `account` had not been already granted `role`, emits a {RoleGranted} event. Requirements: - the caller must have ``role``'s admin role. May emit a {RoleGranted} event."
      },
      "hasRole(bytes32,address)": {
        "details": "Returns `true` if `account` has been granted `role`."
      },
      "proxiableUUID()": {
        "details": "Implementation of the ERC1822 {proxiableUUID} function. This returns the storage slot used by the implementation. It is used to validate the implementation's compatibility when performing an upgrade. IMPORTANT: A proxy pointing at a proxiable contract should not be considered proxiable itself, because this risks bricking a proxy that upgrades to it, by delegating to itself until out of gas. Thus it is critical that this function revert if invoked through a proxy. This is guaranteed by the `notDelegated` modifier."
      },
      "renounceRole(bytes32,address)": {
        "details": "Revokes `role` from the calling account. Roles are often managed via {grantRole} and {revokeRole}: this function's purpose is to provide a mechanism for accounts to lose their privileges if they are compromised (such as when a trusted device is misplaced). If the calling account had been revoked `role`, emits a {RoleRevoked} event. Requirements: - the caller must be `account`. May emit a {RoleRevoked} event."
      },
      "revokeRole(bytes32,address)": {
        "details": "Revokes `role` from `account`. If `account` had been granted `role`, emits a {RoleRevoked} event. Requirements: - the caller must have ``role``'s admin role. May emit a {RoleRevoked} event."
      },
      "supportsInterface(bytes4)": {
        "details": "See {IERC165-supportsInterface}."
      },
      "upgradeTo(address)": {
        "custom:oz-upgrades-unsafe-allow-reachable": "delegatecall",
        "details": "Upgrade the implementation of the proxy to `newImplementation`. Calls {_authorizeUpgrade}. Emits an {Upgraded} event."
      },
      "upgradeToAndCall(address,bytes)": {
        "custom:oz-upgrades-unsafe-allow-reachable": "delegatecall",
        "details": "Upgrade the implementation of the proxy to `newImplementation`, and subsequently execute the function call encoded in `data`. Calls {_authorizeUpgrade}. Emits an {Upgraded} event."
      }
    },
    "version": 1
  },
  "userdoc": {
    "kind": "user",
    "methods": {
      "addItem((address,address,string,address,uint8,address,string,uint24,address,uint256[10]))": {
        "notice": "Add new item to list or update exist item"
      },
      "addItems((address,address,string,address,uint8,address,string,uint24,address,uint256[10])[])": {
        "notice": "Add new items to list or update exist items"
      },
      "findItemsByPool(address)": {
        "notice": "Find items by pool address"
      },
      "getItems()": {
        "notice": "Get items"
      },
      "getItemsLength()": {
        "notice": "Get items length"
      },
      "payoutDone(address,(address,uint256,uint256[10])[])": {
        "notice": "This function executing in payout after increase/decrease liquidity index for USD+|DAI+|ETS tokens see details: Exchange.sol | HedgeExchanger.sol"
      },
      "removeItem(address,address)": {
        "notice": "Remove item from items"
      },
      "removeItems()": {
        "notice": "Remove items"
      }
    },
    "version": 1
  },
  "storageLayout": {
    "storage": [
      {
        "astId": 782,
        "contract": "contracts/payoutManagers/LineaPayoutManager.sol:LineaPayoutManager",
        "label": "_initialized",
        "offset": 0,
        "slot": "0",
        "type": "t_uint8"
      },
      {
        "astId": 785,
        "contract": "contracts/payoutManagers/LineaPayoutManager.sol:LineaPayoutManager",
        "label": "_initializing",
        "offset": 1,
        "slot": "0",
        "type": "t_bool"
      },
      {
        "astId": 1461,
        "contract": "contracts/payoutManagers/LineaPayoutManager.sol:LineaPayoutManager",
        "label": "__gap",
        "offset": 0,
        "slot": "1",
        "type": "t_array(t_uint256)50_storage"
      },
      {
        "astId": 1845,
        "contract": "contracts/payoutManagers/LineaPayoutManager.sol:LineaPayoutManager",
        "label": "__gap",
        "offset": 0,
        "slot": "51",
        "type": "t_array(t_uint256)50_storage"
      },
      {
        "astId": 28,
        "contract": "contracts/payoutManagers/LineaPayoutManager.sol:LineaPayoutManager",
        "label": "_roles",
        "offset": 0,
        "slot": "101",
        "type": "t_mapping(t_bytes32,t_struct(RoleData)23_storage)"
      },
      {
        "astId": 335,
        "contract": "contracts/payoutManagers/LineaPayoutManager.sol:LineaPayoutManager",
        "label": "__gap",
        "offset": 0,
        "slot": "102",
        "type": "t_array(t_uint256)49_storage"
      },
      {
        "astId": 764,
        "contract": "contracts/payoutManagers/LineaPayoutManager.sol:LineaPayoutManager",
        "label": "__gap",
        "offset": 0,
        "slot": "151",
        "type": "t_array(t_uint256)50_storage"
      },
      {
        "astId": 1080,
        "contract": "contracts/payoutManagers/LineaPayoutManager.sol:LineaPayoutManager",
        "label": "__gap",
        "offset": 0,
        "slot": "201",
        "type": "t_array(t_uint256)50_storage"
      },
      {
        "astId": 7019,
        "contract": "contracts/payoutManagers/LineaPayoutManager.sol:LineaPayoutManager",
        "label": "items",
        "offset": 0,
        "slot": "251",
        "type": "t_array(t_struct(Item)7010_storage)dyn_storage"
      },
      {
        "astId": 7021,
        "contract": "contracts/payoutManagers/LineaPayoutManager.sol:LineaPayoutManager",
        "label": "disabled",
        "offset": 0,
        "slot": "252",
        "type": "t_bool"
      },
      {
        "astId": 7024,
        "contract": "contracts/payoutManagers/LineaPayoutManager.sol:LineaPayoutManager",
        "label": "roleManager",
        "offset": 1,
        "slot": "252",
        "type": "t_contract(IRoleManager)8046"
      },
      {
        "astId": 7026,
        "contract": "contracts/payoutManagers/LineaPayoutManager.sol:LineaPayoutManager",
        "label": "rewardWallet",
        "offset": 0,
        "slot": "253",
        "type": "t_address"
      },
      {
        "astId": 8004,
        "contract": "contracts/payoutManagers/LineaPayoutManager.sol:LineaPayoutManager",
        "label": "__gap",
        "offset": 0,
        "slot": "254",
        "type": "t_array(t_uint256)49_storage"
      }
    ],
    "types": {
      "t_address": {
        "encoding": "inplace",
        "label": "address",
        "numberOfBytes": "20"
      },
      "t_array(t_struct(Item)7010_storage)dyn_storage": {
        "base": "t_struct(Item)7010_storage",
        "encoding": "dynamic_array",
        "label": "struct PayoutManager.Item[]",
        "numberOfBytes": "32"
      },
      "t_array(t_uint256)10_storage": {
        "base": "t_uint256",
        "encoding": "inplace",
        "label": "uint256[10]",
        "numberOfBytes": "320"
      },
      "t_array(t_uint256)49_storage": {
        "base": "t_uint256",
        "encoding": "inplace",
        "label": "uint256[49]",
        "numberOfBytes": "1568"
      },
      "t_array(t_uint256)50_storage": {
        "base": "t_uint256",
        "encoding": "inplace",
        "label": "uint256[50]",
        "numberOfBytes": "1600"
      },
      "t_bool": {
        "encoding": "inplace",
        "label": "bool",
        "numberOfBytes": "1"
      },
      "t_bytes32": {
        "encoding": "inplace",
        "label": "bytes32",
        "numberOfBytes": "32"
      },
      "t_contract(IRoleManager)8046": {
        "encoding": "inplace",
        "label": "contract IRoleManager",
        "numberOfBytes": "20"
      },
      "t_enum(Operation)7015": {
        "encoding": "inplace",
        "label": "enum PayoutManager.Operation",
        "numberOfBytes": "1"
      },
      "t_mapping(t_address,t_bool)": {
        "encoding": "mapping",
        "key": "t_address",
        "label": "mapping(address => bool)",
        "numberOfBytes": "32",
        "value": "t_bool"
      },
      "t_mapping(t_bytes32,t_struct(RoleData)23_storage)": {
        "encoding": "mapping",
        "key": "t_bytes32",
        "label": "mapping(bytes32 => struct AccessControlUpgradeable.RoleData)",
        "numberOfBytes": "32",
        "value": "t_struct(RoleData)23_storage"
      },
      "t_string_storage": {
        "encoding": "bytes",
        "label": "string",
        "numberOfBytes": "32"
      },
      "t_struct(Item)7010_storage": {
        "encoding": "inplace",
        "label": "struct PayoutManager.Item",
        "members": [
          {
            "astId": 6988,
            "contract": "contracts/payoutManagers/LineaPayoutManager.sol:LineaPayoutManager",
            "label": "pool",
            "offset": 0,
            "slot": "0",
            "type": "t_address"
          },
          {
            "astId": 6990,
            "contract": "contracts/payoutManagers/LineaPayoutManager.sol:LineaPayoutManager",
            "label": "token",
            "offset": 0,
            "slot": "1",
            "type": "t_address"
          },
          {
            "astId": 6992,
            "contract": "contracts/payoutManagers/LineaPayoutManager.sol:LineaPayoutManager",
            "label": "poolName",
            "offset": 0,
            "slot": "2",
            "type": "t_string_storage"
          },
          {
            "astId": 6994,
            "contract": "contracts/payoutManagers/LineaPayoutManager.sol:LineaPayoutManager",
            "label": "bribe",
            "offset": 0,
            "slot": "3",
            "type": "t_address"
          },
          {
            "astId": 6997,
            "contract": "contracts/payoutManagers/LineaPayoutManager.sol:LineaPayoutManager",
            "label": "operation",
            "offset": 20,
            "slot": "3",
            "type": "t_enum(Operation)7015"
          },
          {
            "astId": 6999,
            "contract": "contracts/payoutManagers/LineaPayoutManager.sol:LineaPayoutManager",
            "label": "to",
            "offset": 0,
            "slot": "4",
            "type": "t_address"
          },
          {
            "astId": 7001,
            "contract": "contracts/payoutManagers/LineaPayoutManager.sol:LineaPayoutManager",
            "label": "dexName",
            "offset": 0,
            "slot": "5",
            "type": "t_string_storage"
          },
          {
            "astId": 7003,
            "contract": "contracts/payoutManagers/LineaPayoutManager.sol:LineaPayoutManager",
            "label": "feePercent",
            "offset": 0,
            "slot": "6",
            "type": "t_uint24"
          },
          {
            "astId": 7005,
            "contract": "contracts/payoutManagers/LineaPayoutManager.sol:LineaPayoutManager",
            "label": "feeReceiver",
            "offset": 3,
            "slot": "6",
            "type": "t_address"
          },
          {
            "astId": 7009,
            "contract": "contracts/payoutManagers/LineaPayoutManager.sol:LineaPayoutManager",
            "label": "__gap",
            "offset": 0,
            "slot": "7",
            "type": "t_array(t_uint256)10_storage"
          }
        ],
        "numberOfBytes": "544"
      },
      "t_struct(RoleData)23_storage": {
        "encoding": "inplace",
        "label": "struct AccessControlUpgradeable.RoleData",
        "members": [
          {
            "astId": 20,
            "contract": "contracts/payoutManagers/LineaPayoutManager.sol:LineaPayoutManager",
            "label": "members",
            "offset": 0,
            "slot": "0",
            "type": "t_mapping(t_address,t_bool)"
          },
          {
            "astId": 22,
            "contract": "contracts/payoutManagers/LineaPayoutManager.sol:LineaPayoutManager",
            "label": "adminRole",
            "offset": 0,
            "slot": "1",
            "type": "t_bytes32"
          }
        ],
        "numberOfBytes": "64"
      },
      "t_uint24": {
        "encoding": "inplace",
        "label": "uint24",
        "numberOfBytes": "3"
      },
      "t_uint256": {
        "encoding": "inplace",
        "label": "uint256",
        "numberOfBytes": "32"
      },
      "t_uint8": {
        "encoding": "inplace",
        "label": "uint8",
        "numberOfBytes": "1"
      }
    }
  }
}