{
  "address": "0x6e24a0E4697370C7D4102928931181bC889f7010",
  "abi": [
    {
      "inputs": [],
      "stateMutability": "nonpayable",
      "type": "constructor"
    },
    {
      "anonymous": false,
      "inputs": [
        {
          "indexed": false,
          "internalType": "address",
          "name": "previousAdmin",
          "type": "address"
        },
        {
          "indexed": false,
          "internalType": "address",
          "name": "newAdmin",
          "type": "address"
        }
      ],
      "name": "AdminChanged",
      "type": "event"
    },
    {
      "anonymous": false,
      "inputs": [
        {
          "indexed": true,
          "internalType": "address",
          "name": "beacon",
          "type": "address"
        }
      ],
      "name": "BeaconUpgraded",
      "type": "event"
    },
    {
      "anonymous": false,
      "inputs": [
        {
          "indexed": false,
          "internalType": "uint8",
          "name": "version",
          "type": "uint8"
        }
      ],
      "name": "Initialized",
      "type": "event"
    },
    {
      "anonymous": false,
      "inputs": [
        {
          "indexed": false,
          "internalType": "address",
          "name": "value",
          "type": "address"
        }
      ],
      "name": "PortfolioManagerUpdated",
      "type": "event"
    },
    {
      "anonymous": false,
      "inputs": [
        {
          "indexed": false,
          "internalType": "uint256",
          "name": "amount",
          "type": "uint256"
        }
      ],
      "name": "Reward",
      "type": "event"
    },
    {
      "anonymous": false,
      "inputs": [
        {
          "indexed": true,
          "internalType": "bytes32",
          "name": "role",
          "type": "bytes32"
        },
        {
          "indexed": true,
          "internalType": "bytes32",
          "name": "previousAdminRole",
          "type": "bytes32"
        },
        {
          "indexed": true,
          "internalType": "bytes32",
          "name": "newAdminRole",
          "type": "bytes32"
        }
      ],
      "name": "RoleAdminChanged",
      "type": "event"
    },
    {
      "anonymous": false,
      "inputs": [
        {
          "indexed": true,
          "internalType": "bytes32",
          "name": "role",
          "type": "bytes32"
        },
        {
          "indexed": true,
          "internalType": "address",
          "name": "account",
          "type": "address"
        },
        {
          "indexed": true,
          "internalType": "address",
          "name": "sender",
          "type": "address"
        }
      ],
      "name": "RoleGranted",
      "type": "event"
    },
    {
      "anonymous": false,
      "inputs": [
        {
          "indexed": true,
          "internalType": "bytes32",
          "name": "role",
          "type": "bytes32"
        },
        {
          "indexed": true,
          "internalType": "address",
          "name": "account",
          "type": "address"
        },
        {
          "indexed": true,
          "internalType": "address",
          "name": "sender",
          "type": "address"
        }
      ],
      "name": "RoleRevoked",
      "type": "event"
    },
    {
      "anonymous": false,
      "inputs": [
        {
          "indexed": false,
          "internalType": "uint256",
          "name": "swapSlippageBP",
          "type": "uint256"
        },
        {
          "indexed": false,
          "internalType": "uint256",
          "name": "navSlippageBP",
          "type": "uint256"
        },
        {
          "indexed": false,
          "internalType": "uint256",
          "name": "stakeSlippageBP",
          "type": "uint256"
        }
      ],
      "name": "SlippagesUpdated",
      "type": "event"
    },
    {
      "anonymous": false,
      "inputs": [
        {
          "indexed": false,
          "internalType": "uint256",
          "name": "amount",
          "type": "uint256"
        }
      ],
      "name": "Stake",
      "type": "event"
    },
    {
      "anonymous": false,
      "inputs": [],
      "name": "StrategyUpdatedParams",
      "type": "event"
    },
    {
      "anonymous": false,
      "inputs": [
        {
          "indexed": false,
          "internalType": "uint256",
          "name": "amount",
          "type": "uint256"
        },
        {
          "indexed": false,
          "internalType": "uint256",
          "name": "amountReceived",
          "type": "uint256"
        }
      ],
      "name": "Unstake",
      "type": "event"
    },
    {
      "anonymous": false,
      "inputs": [
        {
          "indexed": true,
          "internalType": "address",
          "name": "implementation",
          "type": "address"
        }
      ],
      "name": "Upgraded",
      "type": "event"
    },
    {
      "inputs": [],
      "name": "DEFAULT_ADMIN_ROLE",
      "outputs": [
        {
          "internalType": "bytes32",
          "name": "",
          "type": "bytes32"
        }
      ],
      "stateMutability": "view",
      "type": "function"
    },
    {
      "inputs": [],
      "name": "PORTFOLIO_AGENT_ROLE",
      "outputs": [
        {
          "internalType": "bytes32",
          "name": "",
          "type": "bytes32"
        }
      ],
      "stateMutability": "view",
      "type": "function"
    },
    {
      "inputs": [],
      "name": "PORTFOLIO_MANAGER",
      "outputs": [
        {
          "internalType": "bytes32",
          "name": "",
          "type": "bytes32"
        }
      ],
      "stateMutability": "view",
      "type": "function"
    },
    {
      "inputs": [],
      "name": "cUsdc",
      "outputs": [
        {
          "internalType": "contract CToken",
          "name": "",
          "type": "address"
        }
      ],
      "stateMutability": "view",
      "type": "function"
    },
    {
      "inputs": [
        {
          "internalType": "address",
          "name": "_to",
          "type": "address"
        }
      ],
      "name": "claimRewards",
      "outputs": [
        {
          "internalType": "uint256",
          "name": "",
          "type": "uint256"
        }
      ],
      "stateMutability": "nonpayable",
      "type": "function"
    },
    {
      "inputs": [
        {
          "internalType": "bytes32",
          "name": "role",
          "type": "bytes32"
        }
      ],
      "name": "getRoleAdmin",
      "outputs": [
        {
          "internalType": "bytes32",
          "name": "",
          "type": "bytes32"
        }
      ],
      "stateMutability": "view",
      "type": "function"
    },
    {
      "inputs": [
        {
          "internalType": "bytes32",
          "name": "role",
          "type": "bytes32"
        },
        {
          "internalType": "address",
          "name": "account",
          "type": "address"
        }
      ],
      "name": "grantRole",
      "outputs": [],
      "stateMutability": "nonpayable",
      "type": "function"
    },
    {
      "inputs": [
        {
          "internalType": "bytes32",
          "name": "role",
          "type": "bytes32"
        },
        {
          "internalType": "address",
          "name": "account",
          "type": "address"
        }
      ],
      "name": "hasRole",
      "outputs": [
        {
          "internalType": "bool",
          "name": "",
          "type": "bool"
        }
      ],
      "stateMutability": "view",
      "type": "function"
    },
    {
      "inputs": [],
      "name": "initialize",
      "outputs": [],
      "stateMutability": "nonpayable",
      "type": "function"
    },
    {
      "inputs": [],
      "name": "liquidationValue",
      "outputs": [
        {
          "internalType": "uint256",
          "name": "",
          "type": "uint256"
        }
      ],
      "stateMutability": "view",
      "type": "function"
    },
    {
      "inputs": [],
      "name": "mendi",
      "outputs": [
        {
          "internalType": "contract IERC20",
          "name": "",
          "type": "address"
        }
      ],
      "stateMutability": "view",
      "type": "function"
    },
    {
      "inputs": [],
      "name": "name",
      "outputs": [
        {
          "internalType": "string",
          "name": "",
          "type": "string"
        }
      ],
      "stateMutability": "view",
      "type": "function"
    },
    {
      "inputs": [],
      "name": "navSlippageBP",
      "outputs": [
        {
          "internalType": "uint256",
          "name": "",
          "type": "uint256"
        }
      ],
      "stateMutability": "view",
      "type": "function"
    },
    {
      "inputs": [],
      "name": "netAssetValue",
      "outputs": [
        {
          "internalType": "uint256",
          "name": "",
          "type": "uint256"
        }
      ],
      "stateMutability": "view",
      "type": "function"
    },
    {
      "inputs": [],
      "name": "poolMendiUsdc",
      "outputs": [
        {
          "internalType": "address",
          "name": "",
          "type": "address"
        }
      ],
      "stateMutability": "view",
      "type": "function"
    },
    {
      "inputs": [],
      "name": "portfolioManager",
      "outputs": [
        {
          "internalType": "address",
          "name": "",
          "type": "address"
        }
      ],
      "stateMutability": "view",
      "type": "function"
    },
    {
      "inputs": [],
      "name": "proxiableUUID",
      "outputs": [
        {
          "internalType": "bytes32",
          "name": "",
          "type": "bytes32"
        }
      ],
      "stateMutability": "view",
      "type": "function"
    },
    {
      "inputs": [
        {
          "internalType": "bytes32",
          "name": "role",
          "type": "bytes32"
        },
        {
          "internalType": "address",
          "name": "account",
          "type": "address"
        }
      ],
      "name": "renounceRole",
      "outputs": [],
      "stateMutability": "nonpayable",
      "type": "function"
    },
    {
      "inputs": [
        {
          "internalType": "bytes32",
          "name": "role",
          "type": "bytes32"
        },
        {
          "internalType": "address",
          "name": "account",
          "type": "address"
        }
      ],
      "name": "revokeRole",
      "outputs": [],
      "stateMutability": "nonpayable",
      "type": "function"
    },
    {
      "inputs": [],
      "name": "roleManager",
      "outputs": [
        {
          "internalType": "contract IRoleManager",
          "name": "",
          "type": "address"
        }
      ],
      "stateMutability": "view",
      "type": "function"
    },
    {
      "inputs": [
        {
          "components": [
            {
              "internalType": "address",
              "name": "usdc",
              "type": "address"
            },
            {
              "internalType": "address",
              "name": "mendi",
              "type": "address"
            },
            {
              "internalType": "address",
              "name": "cUsdc",
              "type": "address"
            },
            {
              "internalType": "address",
              "name": "unitroller",
              "type": "address"
            },
            {
              "internalType": "address",
              "name": "velocoreVault",
              "type": "address"
            },
            {
              "internalType": "address",
              "name": "poolMendiUsdc",
              "type": "address"
            }
          ],
          "internalType": "struct StrategyMendiUsdc.StrategyParams",
          "name": "params",
          "type": "tuple"
        }
      ],
      "name": "setParams",
      "outputs": [],
      "stateMutability": "nonpayable",
      "type": "function"
    },
    {
      "inputs": [
        {
          "internalType": "uint256",
          "name": "_swapSlippageBP",
          "type": "uint256"
        },
        {
          "internalType": "uint256",
          "name": "_navSlippageBP",
          "type": "uint256"
        },
        {
          "internalType": "uint256",
          "name": "_stakeSlippageBP",
          "type": "uint256"
        }
      ],
      "name": "setSlippages",
      "outputs": [],
      "stateMutability": "nonpayable",
      "type": "function"
    },
    {
      "inputs": [
        {
          "internalType": "address",
          "name": "_portfolioManager",
          "type": "address"
        },
        {
          "internalType": "address",
          "name": "_roleManager",
          "type": "address"
        },
        {
          "internalType": "string",
          "name": "_name",
          "type": "string"
        }
      ],
      "name": "setStrategyParams",
      "outputs": [],
      "stateMutability": "nonpayable",
      "type": "function"
    },
    {
      "inputs": [
        {
          "internalType": "address",
          "name": "_asset",
          "type": "address"
        },
        {
          "internalType": "uint256",
          "name": "_amount",
          "type": "uint256"
        }
      ],
      "name": "stake",
      "outputs": [],
      "stateMutability": "nonpayable",
      "type": "function"
    },
    {
      "inputs": [],
      "name": "stakeSlippageBP",
      "outputs": [
        {
          "internalType": "uint256",
          "name": "",
          "type": "uint256"
        }
      ],
      "stateMutability": "view",
      "type": "function"
    },
    {
      "inputs": [
        {
          "internalType": "bytes4",
          "name": "interfaceId",
          "type": "bytes4"
        }
      ],
      "name": "supportsInterface",
      "outputs": [
        {
          "internalType": "bool",
          "name": "",
          "type": "bool"
        }
      ],
      "stateMutability": "view",
      "type": "function"
    },
    {
      "inputs": [],
      "name": "swapSlippageBP",
      "outputs": [
        {
          "internalType": "uint256",
          "name": "",
          "type": "uint256"
        }
      ],
      "stateMutability": "view",
      "type": "function"
    },
    {
      "inputs": [],
      "name": "unitroller",
      "outputs": [
        {
          "internalType": "contract Unitroller",
          "name": "",
          "type": "address"
        }
      ],
      "stateMutability": "view",
      "type": "function"
    },
    {
      "inputs": [
        {
          "internalType": "address",
          "name": "_asset",
          "type": "address"
        },
        {
          "internalType": "uint256",
          "name": "_amount",
          "type": "uint256"
        },
        {
          "internalType": "address",
          "name": "_beneficiary",
          "type": "address"
        },
        {
          "internalType": "bool",
          "name": "_targetIsZero",
          "type": "bool"
        }
      ],
      "name": "unstake",
      "outputs": [
        {
          "internalType": "uint256",
          "name": "",
          "type": "uint256"
        }
      ],
      "stateMutability": "nonpayable",
      "type": "function"
    },
    {
      "inputs": [
        {
          "internalType": "address",
          "name": "newImplementation",
          "type": "address"
        }
      ],
      "name": "upgradeTo",
      "outputs": [],
      "stateMutability": "nonpayable",
      "type": "function"
    },
    {
      "inputs": [
        {
          "internalType": "address",
          "name": "newImplementation",
          "type": "address"
        },
        {
          "internalType": "bytes",
          "name": "data",
          "type": "bytes"
        }
      ],
      "name": "upgradeToAndCall",
      "outputs": [],
      "stateMutability": "payable",
      "type": "function"
    },
    {
      "inputs": [],
      "name": "usdc",
      "outputs": [
        {
          "internalType": "contract IERC20",
          "name": "",
          "type": "address"
        }
      ],
      "stateMutability": "view",
      "type": "function"
    },
    {
      "inputs": [],
      "name": "velocoreVault",
      "outputs": [
        {
          "internalType": "address",
          "name": "",
          "type": "address"
        }
      ],
      "stateMutability": "view",
      "type": "function"
    }
  ],
  "numDeployments": 2,
  "solcInputHash": "23c5d7ec26aa237b15011b239ab25b0d",
  "bytecode": "0x60a0604052306080523480156200001557600080fd5b50600054610100900460ff1615808015620000375750600054600160ff909116105b8062000067575062000054306200014160201b620014dd1760201c565b15801562000067575060005460ff166001145b620000cf5760405162461bcd60e51b815260206004820152602e60248201527f496e697469616c697a61626c653a20636f6e747261637420697320616c72656160448201526d191e481a5b9a5d1a585b1a5e995960921b606482015260840160405180910390fd5b6000805460ff191660011790558015620000f3576000805461ff0019166101001790555b80156200013a576000805461ff0019169055604051600181527f7f26b83ff96e1f2b6a682f133852f6798a09c465da95921460cefb38474024989060200160405180910390a15b5062000150565b6001600160a01b03163b151590565b6080516130cb620001886000396000818161075d0152818161079d015281816108250152818161086501526108dd01526130cb6000f3fe6080604052600436106101ad5760003560e01c80637d5f5802116100ed578063bad1d3da11610090578063bad1d3da146104b7578063bf52e080146104d8578063c2625757146104ee578063d08c96fc1461050f578063d1ace33c14610530578063d547741f14610551578063ef5cfb8c14610571578063f6f6b88114610591578063fa2ae9ff146105b157600080fd5b80637d5f5802146103d9578063806b94051461040d5780638129fc1c1461042d57806391d1485414610442578063a217fddf14610462578063a3673b381461028e578063adc9772e14610477578063ae30c1101461049757600080fd5b80633659cfe6116101555780633659cfe6146102e55780633e413bee146103055780634f1ef2861461032657806352d1902d146103395780635ca558f81461034e5780635dbd733a146103645780635f33f28114610398578063620b75df146103b957600080fd5b8062435da5146101b257806301ffc9a7146101e857806306fdde0314610218578063119cd8791461023a578063248a9ca31461025e5780632576e65a1461028e5780632f2ff15d146102a357806336568abe146102c5575b600080fd5b3480156101be57600080fd5b5060ff546101d2906001600160a01b031681565b6040516101df919061276d565b60405180910390f35b3480156101f457600080fd5b50610208610203366004612781565b6105d1565b60405190151581526020016101df565b34801561022457600080fd5b5061022d610608565b6040516101df91906127cf565b34801561024657600080fd5b5061025060fd5481565b6040519081526020016101df565b34801561026a57600080fd5b50610250610279366004612802565b60009081526065602052604090206001015490565b34801561029a57600080fd5b50610250610697565b3480156102af57600080fd5b506102c36102be366004612832565b6106a6565b005b3480156102d157600080fd5b506102c36102e0366004612832565b6106d0565b3480156102f157600080fd5b506102c361030036600461285e565b610753565b34801561031157600080fd5b5061012d546101d2906001600160a01b031681565b6102c3610334366004612916565b61081b565b34801561034557600080fd5b506102506108d0565b34801561035a57600080fd5b5061025060fe5481565b34801561037057600080fd5b506102507fd67ad422505496469a1adf6cdf9e5ee92ac5d33992843c9ecc4b2f6d6cde913781565b3480156103a457600080fd5b5061012e546101d2906001600160a01b031681565b3480156103c557600080fd5b5060fb546101d2906001600160a01b031681565b3480156103e557600080fd5b506102507f90c2aa7471c04182221f68e80c07ab1e5946e4c63f8693e14ca40385d529f05181565b34801561041957600080fd5b506102c3610428366004612977565b61097e565b34801561043957600080fd5b506102c3610d1b565b34801561044e57600080fd5b5061020861045d366004612832565b610dec565b34801561046e57600080fd5b50610250600081565b34801561048357600080fd5b506102c361049236600461298f565b610e17565b3480156104a357600080fd5b506102c36104b23660046129b9565b610fe2565b3480156104c357600080fd5b50610130546101d2906001600160a01b031681565b3480156104e457600080fd5b5061025060fc5481565b3480156104fa57600080fd5b50610131546101d2906001600160a01b031681565b34801561051b57600080fd5b5061012f546101d2906001600160a01b031681565b34801561053c57600080fd5b50610132546101d2906001600160a01b031681565b34801561055d57600080fd5b506102c361056c366004612832565b61110d565b34801561057d57600080fd5b5061025061058c36600461285e565b611132565b34801561059d57600080fd5b506102506105ac3660046129f3565b6111ae565b3480156105bd57600080fd5b506102c36105cc366004612a42565b611427565b60006001600160e01b03198216637965db0b60e01b148061060257506301ffc9a760e01b6001600160e01b03198316145b92915050565b610100805461061690612ab3565b80601f016020809104026020016040519081016040528092919081815260200182805461064290612ab3565b801561068f5780601f106106645761010080835404028352916020019161068f565b820191906000526020600020905b81548152906001019060200180831161067257829003601f168201915b505050505081565b60006106a16114ec565b905090565b6000828152606560205260409020600101546106c181611671565b6106cb838361167b565b505050565b6001600160a01b03811633146107455760405162461bcd60e51b815260206004820152602f60248201527f416363657373436f6e74726f6c3a2063616e206f6e6c792072656e6f756e636560448201526e103937b632b9903337b91039b2b63360891b60648201526084015b60405180910390fd5b61074f8282611701565b5050565b6001600160a01b037f000000000000000000000000000000000000000000000000000000000000000016300361079b5760405162461bcd60e51b815260040161073c90612ae7565b7f00000000000000000000000000000000000000000000000000000000000000006001600160a01b03166107cd611768565b6001600160a01b0316146107f35760405162461bcd60e51b815260040161073c90612b33565b6107fc81611784565b604080516000808252602082019092526108189183919061178f565b50565b6001600160a01b037f00000000000000000000000000000000000000000000000000000000000000001630036108635760405162461bcd60e51b815260040161073c90612ae7565b7f00000000000000000000000000000000000000000000000000000000000000006001600160a01b0316610895611768565b6001600160a01b0316146108bb5760405162461bcd60e51b815260040161073c90612b33565b6108c482611784565b61074f8282600161178f565b6000306001600160a01b037f0000000000000000000000000000000000000000000000000000000000000000161461096b5760405162461bcd60e51b815260206004820152603860248201527f555550535570677261646561626c653a206d757374206e6f742062652063616c6044820152771b1959081d1a1c9bdd59da0819195b1959d85d1958d85b1b60421b606482015260840161073c565b5060008051602061304f83398151915290565b610989600033610dec565b6109a55760405162461bcd60e51b815260040161073c90612b7f565b60006109b4602083018361285e565b6001600160a01b0316036109fa5760405162461bcd60e51b815260206004820152600d60248201526c7573646320697320656d70747960981b604482015260640161073c565b6000610a0c604083016020840161285e565b6001600160a01b031603610a535760405162461bcd60e51b815260206004820152600e60248201526d6d656e646920697320656d70747960901b604482015260640161073c565b6000610a65606083016040840161285e565b6001600160a01b031603610aac5760405162461bcd60e51b815260206004820152600e60248201526d635573646320697320656d70747960901b604482015260640161073c565b6000610abe608083016060840161285e565b6001600160a01b031603610b0a5760405162461bcd60e51b8152602060048201526013602482015272756e6974726f6c6c657220697320656d70747960681b604482015260640161073c565b6000610b1c60a083016080840161285e565b6001600160a01b031603610b6b5760405162461bcd60e51b815260206004820152601660248201527576656c6f636f72655661756c7420697320656d70747960501b604482015260640161073c565b6000610b7d60c0830160a0840161285e565b6001600160a01b031603610bcc5760405162461bcd60e51b8152602060048201526016602482015275706f6f6c4d656e64695573646320697320656d70747960501b604482015260640161073c565b610bd9602082018261285e565b61012d80546001600160a01b0319166001600160a01b0392909216919091179055610c0a604082016020830161285e565b61012e80546001600160a01b0319166001600160a01b0392909216919091179055610c3b606082016040830161285e565b61012f80546001600160a01b0319166001600160a01b0392909216919091179055610c6c608082016060830161285e565b61013080546001600160a01b0319166001600160a01b0392909216919091179055610c9d60a082016080830161285e565b61013180546001600160a01b0319166001600160a01b0392909216919091179055610cce60c0820160a0830161285e565b61013280546001600160a01b0319166001600160a01b03929092169190911790556040517fea5646eb3528e525944447a4a97de700dd472298626e5c0481d1c82c3da86ea590600090a150565b600054610100900460ff1615808015610d3b5750600054600160ff909116105b80610d5c5750610d4a306114dd565b158015610d5c575060005460ff166001145b610d785760405162461bcd60e51b815260040161073c90612bad565b6000805460ff191660011790558015610d9b576000805461ff0019166101001790555b610da36118fa565b8015610818576000805461ff0019169055604051600181527f7f26b83ff96e1f2b6a682f133852f6798a09c465da95921460cefb3847402498906020015b60405180910390a150565b60009182526065602090815260408084206001600160a01b0393909316845291905290205460ff1690565b60fb546001600160a01b03163314610e415760405162461bcd60e51b815260040161073c90612bfb565b6000610eb0306001600160a01b031663a3673b386040518163ffffffff1660e01b8152600401602060405180830381865afa158015610e84573d6000803e3d6000fd5b505050506040513d601f19601f82011682018060405250810190610ea89190612c32565b60fd546119e6565b9050610f2883846001600160a01b03166370a08231306040518263ffffffff1660e01b8152600401610ee2919061276d565b602060405180830381865afa158015610eff573d6000803e3d6000fd5b505050506040513d601f19601f82011682018060405250810190610f239190612c32565b611a10565b80306001600160a01b031663a3673b386040518163ffffffff1660e01b8152600401602060405180830381865afa158015610f67573d6000803e3d6000fd5b505050506040513d601f19601f82011682018060405250810190610f8b9190612c32565b1015610fa95760405162461bcd60e51b815260040161073c90612c4b565b6040518281527f227a473b70d2f893cc7659219575c030a63b5743024fe1e0c1a680e708b1525a906020015b60405180910390a1505050565b60ff54604051632474521560e21b81527fd67ad422505496469a1adf6cdf9e5ee92ac5d33992843c9ecc4b2f6d6cde913760048201523360248201526001600160a01b03909116906391d1485490604401602060405180830381865afa158015611050573d6000803e3d6000fd5b505050506040513d601f19601f820116820180604052508101906110749190612c82565b6110c05760405162461bcd60e51b815260206004820152601d60248201527f5265737472696374656420746f20506f7274666f6c696f204167656e74000000604482015260640161073c565b60fc83905560fd82905560fe81905560408051848152602081018490529081018290527f116fbf1e97a2be629ad98abfb6c332733c8996c2dfb174dd2efe8440df381d1a90606001610fd5565b60008281526065602052604090206001015461112881611671565b6106cb8383611701565b60fb546000906001600160a01b0316331461115f5760405162461bcd60e51b815260040161073c90612bfb565b600061116a83611b6b565b905080156111a6576040518181527f3ac0594a85a20354f9dc74f33728416d19ce00d04a406c108cc2dcf2cecea1349060200160405180910390a15b90505b919050565b60fb546000906001600160a01b031633146111db5760405162461bcd60e51b815260040161073c90612bfb565b600061121e306001600160a01b031663a3673b386040518163ffffffff1660e01b8152600401602060405180830381865afa158015610e84573d6000803e3d6000fd5b905060008084156112455761123286611b6b565b905061123e8887611ed0565b91506112b4565b61125088888861201f565b9150868210156112b45760405162461bcd60e51b815260206004820152602960248201527f52657475726e65642076616c7565206c657373207468616e2072657175657374604482015268195908185b5bdd5b9d60ba1b606482015260840161073c565b82306001600160a01b031663a3673b386040518163ffffffff1660e01b8152600401602060405180830381865afa1580156112f3573d6000803e3d6000fd5b505050506040513d601f19601f820116820180604052508101906113179190612c32565b10156113355760405162461bcd60e51b815260040161073c90612c4b565b60405163a9059cbb60e01b81526001600160a01b0389169063a9059cbb906113639089908690600401612c9f565b6020604051808303816000875af1158015611382573d6000803e3d6000fd5b505050506040513d601f19601f820116820180604052508101906113a69190612c82565b5060408051888152602081018490527f9045c2ac9b2026de8075f2701bbdde882cd5e830b3b1ead9a15b22f2b5b93742910160405180910390a1801561141a576040518181527f3ac0594a85a20354f9dc74f33728416d19ce00d04a406c108cc2dcf2cecea1349060200160405180910390a15b509150505b949350505050565b611432600033610dec565b61144e5760405162461bcd60e51b815260040161073c90612b7f565b6001600160a01b0383166114745760405162461bcd60e51b815260040161073c90612cb8565b6001600160a01b03821661149a5760405162461bcd60e51b815260040161073c90612cb8565b60fb80546001600160a01b038086166001600160a01b03199283161790925560ff8054928516929091169190911790556101006114d78282612d38565b50505050565b6001600160a01b03163b151590565b6000670de0b6b3a764000061012f60009054906101000a90046001600160a01b03166001600160a01b031663182df0f56040518163ffffffff1660e01b8152600401602060405180830381865afa15801561154b573d6000803e3d6000fd5b505050506040513d601f19601f8201168201806040525081019061156f9190612c32565b61012f546040516370a0823160e01b81526001600160a01b03909116906370a08231906115a090309060040161276d565b602060405180830381865afa1580156115bd573d6000803e3d6000fd5b505050506040513d601f19601f820116820180604052508101906115e19190612c32565b6115eb9190612e0d565b6115f59190612e24565b61012d546040516370a0823160e01b81526001600160a01b03909116906370a082319061162690309060040161276d565b602060405180830381865afa158015611643573d6000803e3d6000fd5b505050506040513d601f19601f820116820180604052508101906116679190612c32565b6106a19190612e46565b6108188133612103565b6116858282610dec565b61074f5760008281526065602090815260408083206001600160a01b03851684529091529020805460ff191660011790556116bd3390565b6001600160a01b0316816001600160a01b0316837f2f8788117e7eff1d82e926ec794901d17c78024a50270940304540a733656f0d60405160405180910390a45050565b61170b8282610dec565b1561074f5760008281526065602090815260408083206001600160a01b0385168085529252808320805460ff1916905551339285917ff6391f5c32d9c69d2a47ea670b442974b53935d1edc7fd64eb21e047a839171b9190a45050565b60008051602061304f833981519152546001600160a01b031690565b600061074f81611671565b7f4910fdfa16fed3260ed0e7147f7cc6da11a60208b5b9406d12a635614ffd91435460ff16156117c2576106cb8361215c565b826001600160a01b03166352d1902d6040518163ffffffff1660e01b8152600401602060405180830381865afa92505050801561181c575060408051601f3d908101601f1916820190925261181991810190612c32565b60015b61187f5760405162461bcd60e51b815260206004820152602e60248201527f45524331393637557067726164653a206e657720696d706c656d656e7461746960448201526d6f6e206973206e6f74205555505360901b606482015260840161073c565b60008051602061304f83398151915281146118ee5760405162461bcd60e51b815260206004820152602960248201527f45524331393637557067726164653a20756e737570706f727465642070726f786044820152681a58589b195555525160ba1b606482015260840161073c565b506106cb8383836121f6565b600054610100900460ff161580801561191a5750600054600160ff909116105b8061193b5750611929306114dd565b15801561193b575060005460ff166001145b6119575760405162461bcd60e51b815260040161073c90612bad565b6000805460ff19166001179055801561197a576000805461ff0019166101001790555b61198261221b565b61198a61221b565b61199560003361167b565b601460fc81905560fd55600460fe558015610818576000805461ff0019169055604051600181527f7f26b83ff96e1f2b6a682f133852f6798a09c465da95921460cefb384740249890602001610de1565b60006127106119f58382612e59565b6119ff9085612e0d565b611a099190612e24565b9392505050565b61012d5461012f5460405163095ea7b360e01b81526001600160a01b039283169263095ea7b392611a48929116908590600401612c9f565b6020604051808303816000875af1158015611a67573d6000803e3d6000fd5b505050506040513d601f19601f82011682018060405250810190611a8b9190612c82565b5061012f5461012d546040516370a0823160e01b81526001600160a01b039283169263a0712d689216906370a0823190611ac990309060040161276d565b602060405180830381865afa158015611ae6573d6000803e3d6000fd5b505050506040513d601f19601f82011682018060405250810190611b0a9190612c32565b6040518263ffffffff1660e01b8152600401611b2891815260200190565b6020604051808303816000875af1158015611b47573d6000803e3d6000fd5b505050506040513d601f19601f820116820180604052508101906106cb9190612c32565b61012f546040516370a0823160e01b815260009182916001600160a01b03909116906370a0823190611ba190309060040161276d565b602060405180830381865afa158015611bbe573d6000803e3d6000fd5b505050506040513d601f19601f82011682018060405250810190611be29190612c32565b1115611c9e5760408051600180825281830190925260009160208083019080368337505061012f5482519293506001600160a01b031691839150600090611c2b57611c2b612e6c565b6001600160a01b0392831660209182029290920101526101305460405162e1ed9760e51b8152911690631c3db2e090611c6a9030908590600401612e82565b600060405180830381600087803b158015611c8457600080fd5b505af1158015611c98573d6000803e3d6000fd5b50505050505b61012d546040516370a0823160e01b81526000916001600160a01b0316906370a0823190611cd090309060040161276d565b602060405180830381865afa158015611ced573d6000803e3d6000fd5b505050506040513d601f19601f82011682018060405250810190611d119190612c32565b61012e546040516370a0823160e01b81529192506000916001600160a01b03909116906370a0823190611d4890309060040161276d565b602060405180830381865afa158015611d65573d6000803e3d6000fd5b505050506040513d601f19601f82011682018060405250810190611d899190612c32565b90508015611dcd57610131546101325461012e5461012d54611dcb936001600160a01b0390811693600093908216928492918216918391899116600183612288565b505b61012d546040516370a0823160e01b815283916001600160a01b0316906370a0823190611dfe90309060040161276d565b602060405180830381865afa158015611e1b573d6000803e3d6000fd5b505050506040513d601f19601f82011682018060405250810190611e3f9190612c32565b611e499190612e59565b91508115611ec95761012d5460405163a9059cbb60e01b81526001600160a01b039091169063a9059cbb90611e849087908690600401612c9f565b6020604051808303816000875af1158015611ea3573d6000803e3d6000fd5b505050506040513d601f19601f82011682018060405250810190611ec79190612c82565b505b5092915050565b61012f546040516370a0823160e01b81526000916001600160a01b03169063db006a759082906370a0823190611f0a90309060040161276d565b602060405180830381865afa158015611f27573d6000803e3d6000fd5b505050506040513d601f19601f82011682018060405250810190611f4b9190612c32565b6040518263ffffffff1660e01b8152600401611f6991815260200190565b6020604051808303816000875af1158015611f88573d6000803e3d6000fd5b505050506040513d601f19601f82011682018060405250810190611fac9190612c32565b5061012d546040516370a0823160e01b81526001600160a01b03909116906370a0823190611fde90309060040161276d565b602060405180830381865afa158015611ffb573d6000803e3d6000fd5b505050506040513d601f19601f82011682018060405250810190611a099190612c32565b61012f5460405163852a12e360e01b8152600481018490526000916001600160a01b03169063852a12e3906024016020604051808303816000875af115801561206c573d6000803e3d6000fd5b505050506040513d601f19601f820116820180604052508101906120909190612c32565b5061012d546040516370a0823160e01b81526001600160a01b03909116906370a08231906120c290309060040161276d565b602060405180830381865afa1580156120df573d6000803e3d6000fd5b505050506040513d601f19601f8201168201806040525081019061141f9190612c32565b61210d8282610dec565b61074f5761211a8161244c565b61212583602061245e565b604051602001612136929190612ede565b60408051601f198184030181529082905262461bcd60e51b825261073c916004016127cf565b612165816114dd565b6121c75760405162461bcd60e51b815260206004820152602d60248201527f455243313936373a206e657720696d706c656d656e746174696f6e206973206e60448201526c1bdd08184818dbdb9d1c9858dd609a1b606482015260840161073c565b60008051602061304f83398151915280546001600160a01b0319166001600160a01b0392909216919091179055565b6121ff836125f9565b60008251118061220c5750805b156106cb576114d78383612639565b600054610100900460ff166122865760405162461bcd60e51b815260206004820152602b60248201527f496e697469616c697a61626c653a20636f6e7472616374206973206e6f74206960448201526a6e697469616c697a696e6760a81b606482015260840161073c565b565b60006001600160a01b0387161561230c5760405163095ea7b360e01b81526001600160a01b0388169063095ea7b3906122c7908e908990600401612c9f565b6020604051808303816000875af11580156122e6573d6000803e3d6000fd5b505050506040513d601f19601f8201168201806040525081019061230a9190612c82565b505b60008b6001600160a01b03166385e630a68c8c8c600481111561233157612331612f4d565b8c8c600281111561234457612344612f4d565b8c8c8c600281111561235857612358612f4d565b60405160e08a901b6001600160e01b03191681526001600160a01b03978816600482015260ff968716602482015294871660448601529285166064850152600f91820b608485015290941660a483015290911660c48201529087900b60e482015261012061010482015260006101248201526101440160006040518083038185885af11580156123ec573d6000803e3d6000fd5b50505050506040513d6000823e601f3d908101601f191682016040526124159190810190612f63565b90508060018151811061242a5761242a612e6c565b60200260200101516001600160801b03169150509a9950505050505050505050565b60606106026001600160a01b03831660145b6060600061246d836002612e0d565b612478906002612e46565b6001600160401b0381111561248f5761248f612879565b6040519080825280601f01601f1916602001820160405280156124b9576020820181803683370190505b509050600360fc1b816000815181106124d4576124d4612e6c565b60200101906001600160f81b031916908160001a905350600f60fb1b8160018151811061250357612503612e6c565b60200101906001600160f81b031916908160001a9053506000612527846002612e0d565b612532906001612e46565b90505b60018111156125aa576f181899199a1a9b1b9c1cb0b131b232b360811b85600f166010811061256657612566612e6c565b1a60f81b82828151811061257c5761257c612e6c565b60200101906001600160f81b031916908160001a90535060049490941c936125a38161301b565b9050612535565b508315611a095760405162461bcd60e51b815260206004820181905260248201527f537472696e67733a20686578206c656e67746820696e73756666696369656e74604482015260640161073c565b6126028161215c565b6040516001600160a01b038216907fbc7cd75a20ee27fd9adebab32041f755214dbc6bffa90cc0225b39da2e5c2d3b90600090a250565b6060611a09838360405180606001604052806027815260200161306f602791396060600080856001600160a01b0316856040516126769190613032565b600060405180830381855af49150503d80600081146126b1576040519150601f19603f3d011682016040523d82523d6000602084013e6126b6565b606091505b50915091506126c7868383876126d1565b9695505050505050565b6060831561273e578251600003612737576126eb856114dd565b6127375760405162461bcd60e51b815260206004820152601d60248201527f416464726573733a2063616c6c20746f206e6f6e2d636f6e7472616374000000604482015260640161073c565b508161141f565b61141f83838151156127535781518083602001fd5b8060405162461bcd60e51b815260040161073c91906127cf565b6001600160a01b0391909116815260200190565b60006020828403121561279357600080fd5b81356001600160e01b031981168114611a0957600080fd5b60005b838110156127c65781810151838201526020016127ae565b50506000910152565b60208152600082518060208401526127ee8160408501602087016127ab565b601f01601f19169190910160400192915050565b60006020828403121561281457600080fd5b5035919050565b80356001600160a01b03811681146111a957600080fd5b6000806040838503121561284557600080fd5b823591506128556020840161281b565b90509250929050565b60006020828403121561287057600080fd5b611a098261281b565b634e487b7160e01b600052604160045260246000fd5b604051601f8201601f191681016001600160401b03811182821017156128b7576128b7612879565b604052919050565b60006001600160401b038311156128d8576128d8612879565b6128eb601f8401601f191660200161288f565b90508281528383830111156128ff57600080fd5b828260208301376000602084830101529392505050565b6000806040838503121561292957600080fd5b6129328361281b565b915060208301356001600160401b0381111561294d57600080fd5b8301601f8101851361295e57600080fd5b61296d858235602084016128bf565b9150509250929050565b600060c0828403121561298957600080fd5b50919050565b600080604083850312156129a257600080fd5b6129ab8361281b565b946020939093013593505050565b6000806000606084860312156129ce57600080fd5b505081359360208301359350604090920135919050565b801515811461081857600080fd5b60008060008060808587031215612a0957600080fd5b612a128561281b565b935060208501359250612a276040860161281b565b91506060850135612a37816129e5565b939692955090935050565b600080600060608486031215612a5757600080fd5b612a608461281b565b9250612a6e6020850161281b565b915060408401356001600160401b03811115612a8957600080fd5b8401601f81018613612a9a57600080fd5b612aa9868235602084016128bf565b9150509250925092565b600181811c90821680612ac757607f821691505b60208210810361298957634e487b7160e01b600052602260045260246000fd5b6020808252602c908201527f46756e6374696f6e206d7573742062652063616c6c6564207468726f7567682060408201526b19195b1959d85d1958d85b1b60a21b606082015260800190565b6020808252602c908201527f46756e6374696f6e206d7573742062652063616c6c6564207468726f7567682060408201526b6163746976652070726f787960a01b606082015260800190565b6020808252601490820152735265737472696374656420746f2061646d696e7360601b604082015260600190565b6020808252602e908201527f496e697469616c697a61626c653a20636f6e747261637420697320616c72656160408201526d191e481a5b9a5d1a585b1a5e995960921b606082015260800190565b6020808252601f908201527f5265737472696374656420746f20504f5254464f4c494f5f4d414e4147455200604082015260600190565b600060208284031215612c4457600080fd5b5051919050565b6020808252601f908201527f5374726174656779204e4156206c657373207468616e20657870656374656400604082015260600190565b600060208284031215612c9457600080fd5b8151611a09816129e5565b6001600160a01b03929092168252602082015260400190565b60208082526018908201527716995c9bc81859191c995cdcc81b9bdd08185b1b1bddd95960421b604082015260600190565b601f8211156106cb57600081815260208120601f850160051c81016020861015612d115750805b601f850160051c820191505b81811015612d3057828155600101612d1d565b505050505050565b81516001600160401b03811115612d5157612d51612879565b612d6581612d5f8454612ab3565b84612cea565b602080601f831160018114612d9a5760008415612d825750858301515b600019600386901b1c1916600185901b178555612d30565b600085815260208120601f198616915b82811015612dc957888601518255948401946001909101908401612daa565b5085821015612de75787850151600019600388901b60f8161c191681555b5050505050600190811b01905550565b634e487b7160e01b600052601160045260246000fd5b808202811582820484141761060257610602612df7565b600082612e4157634e487b7160e01b600052601260045260246000fd5b500490565b8082018082111561060257610602612df7565b8181038181111561060257610602612df7565b634e487b7160e01b600052603260045260246000fd5b6001600160a01b038381168252604060208084018290528451918401829052600092858201929091906060860190855b81811015612ed0578551851683529483019491830191600101612eb2565b509098975050505050505050565b76020b1b1b2b9b9a1b7b73a3937b61d1030b1b1b7bab73a1604d1b815260008351612f108160178501602088016127ab565b7001034b99036b4b9b9b4b733903937b6329607d1b6017918401918201528351612f418160288401602088016127ab565b01602801949350505050565b634e487b7160e01b600052602160045260246000fd5b60006020808385031215612f7657600080fd5b82516001600160401b0380821115612f8d57600080fd5b818501915085601f830112612fa157600080fd5b815181811115612fb357612fb3612879565b8060051b9150612fc484830161288f565b8181529183018401918481019088841115612fde57600080fd5b938501935b8385101561300f578451925082600f0b8314612fff5760008081fd5b8282529385019390850190612fe3565b98975050505050505050565b60008161302a5761302a612df7565b506000190190565b600082516130448184602087016127ab565b919091019291505056fe360894a13ba1a3210667c828492db98dca3e2076cc3735a920a3ca505d382bbc416464726573733a206c6f772d6c6576656c2064656c65676174652063616c6c206661696c6564a264697066735822122029388085dda1b7589ac5ab6e9adc1f7f6795ba34c2f3bd9a195016c3afcd692364736f6c63430008110033",
  "implementation": "0x39D7306c04A4a6f163733510f0910AfA765349bd",
  "devdoc": {
    "kind": "dev",
    "methods": {
      "constructor": {
        "custom:oz-upgrades-unsafe-allow": "constructor"
      },
      "getRoleAdmin(bytes32)": {
        "details": "Returns the admin role that controls `role`. See {grantRole} and {revokeRole}. To change a role's admin, use {_setRoleAdmin}."
      },
      "grantRole(bytes32,address)": {
        "details": "Grants `role` to `account`. If `account` had not been already granted `role`, emits a {RoleGranted} event. Requirements: - the caller must have ``role``'s admin role. May emit a {RoleGranted} event."
      },
      "hasRole(bytes32,address)": {
        "details": "Returns `true` if `account` has been granted `role`."
      },
      "proxiableUUID()": {
        "details": "Implementation of the ERC1822 {proxiableUUID} function. This returns the storage slot used by the implementation. It is used to validate the implementation's compatibility when performing an upgrade. IMPORTANT: A proxy pointing at a proxiable contract should not be considered proxiable itself, because this risks bricking a proxy that upgrades to it, by delegating to itself until out of gas. Thus it is critical that this function revert if invoked through a proxy. This is guaranteed by the `notDelegated` modifier."
      },
      "renounceRole(bytes32,address)": {
        "details": "Revokes `role` from the calling account. Roles are often managed via {grantRole} and {revokeRole}: this function's purpose is to provide a mechanism for accounts to lose their privileges if they are compromised (such as when a trusted device is misplaced). If the calling account had been revoked `role`, emits a {RoleRevoked} event. Requirements: - the caller must be `account`. May emit a {RoleRevoked} event."
      },
      "revokeRole(bytes32,address)": {
        "details": "Revokes `role` from `account`. If `account` had been granted `role`, emits a {RoleRevoked} event. Requirements: - the caller must have ``role``'s admin role. May emit a {RoleRevoked} event."
      },
      "supportsInterface(bytes4)": {
        "details": "See {IERC165-supportsInterface}."
      },
      "upgradeTo(address)": {
        "custom:oz-upgrades-unsafe-allow-reachable": "delegatecall",
        "details": "Upgrade the implementation of the proxy to `newImplementation`. Calls {_authorizeUpgrade}. Emits an {Upgraded} event."
      },
      "upgradeToAndCall(address,bytes)": {
        "custom:oz-upgrades-unsafe-allow-reachable": "delegatecall",
        "details": "Upgrade the implementation of the proxy to `newImplementation`, and subsequently execute the function call encoded in `data`. Calls {_authorizeUpgrade}. Emits an {Upgraded} event."
      }
    },
    "version": 1
  },
  "userdoc": {
    "kind": "user",
    "methods": {},
    "version": 1
  },
  "storageLayout": {
    "storage": [
      {
        "astId": 782,
        "contract": "contracts/StrategyMendiUsdc.sol:StrategyMendiUsdc",
        "label": "_initialized",
        "offset": 0,
        "slot": "0",
        "type": "t_uint8"
      },
      {
        "astId": 785,
        "contract": "contracts/StrategyMendiUsdc.sol:StrategyMendiUsdc",
        "label": "_initializing",
        "offset": 1,
        "slot": "0",
        "type": "t_bool"
      },
      {
        "astId": 1461,
        "contract": "contracts/StrategyMendiUsdc.sol:StrategyMendiUsdc",
        "label": "__gap",
        "offset": 0,
        "slot": "1",
        "type": "t_array(t_uint256)50_storage"
      },
      {
        "astId": 1845,
        "contract": "contracts/StrategyMendiUsdc.sol:StrategyMendiUsdc",
        "label": "__gap",
        "offset": 0,
        "slot": "51",
        "type": "t_array(t_uint256)50_storage"
      },
      {
        "astId": 28,
        "contract": "contracts/StrategyMendiUsdc.sol:StrategyMendiUsdc",
        "label": "_roles",
        "offset": 0,
        "slot": "101",
        "type": "t_mapping(t_bytes32,t_struct(RoleData)23_storage)"
      },
      {
        "astId": 335,
        "contract": "contracts/StrategyMendiUsdc.sol:StrategyMendiUsdc",
        "label": "__gap",
        "offset": 0,
        "slot": "102",
        "type": "t_array(t_uint256)49_storage"
      },
      {
        "astId": 764,
        "contract": "contracts/StrategyMendiUsdc.sol:StrategyMendiUsdc",
        "label": "__gap",
        "offset": 0,
        "slot": "151",
        "type": "t_array(t_uint256)50_storage"
      },
      {
        "astId": 1080,
        "contract": "contracts/StrategyMendiUsdc.sol:StrategyMendiUsdc",
        "label": "__gap",
        "offset": 0,
        "slot": "201",
        "type": "t_array(t_uint256)50_storage"
      },
      {
        "astId": 4233,
        "contract": "contracts/StrategyMendiUsdc.sol:StrategyMendiUsdc",
        "label": "portfolioManager",
        "offset": 0,
        "slot": "251",
        "type": "t_address"
      },
      {
        "astId": 4235,
        "contract": "contracts/StrategyMendiUsdc.sol:StrategyMendiUsdc",
        "label": "swapSlippageBP",
        "offset": 0,
        "slot": "252",
        "type": "t_uint256"
      },
      {
        "astId": 4237,
        "contract": "contracts/StrategyMendiUsdc.sol:StrategyMendiUsdc",
        "label": "navSlippageBP",
        "offset": 0,
        "slot": "253",
        "type": "t_uint256"
      },
      {
        "astId": 4239,
        "contract": "contracts/StrategyMendiUsdc.sol:StrategyMendiUsdc",
        "label": "stakeSlippageBP",
        "offset": 0,
        "slot": "254",
        "type": "t_uint256"
      },
      {
        "astId": 4242,
        "contract": "contracts/StrategyMendiUsdc.sol:StrategyMendiUsdc",
        "label": "roleManager",
        "offset": 0,
        "slot": "255",
        "type": "t_contract(IRoleManager)4662"
      },
      {
        "astId": 4244,
        "contract": "contracts/StrategyMendiUsdc.sol:StrategyMendiUsdc",
        "label": "name",
        "offset": 0,
        "slot": "256",
        "type": "t_string_storage"
      },
      {
        "astId": 4630,
        "contract": "contracts/StrategyMendiUsdc.sol:StrategyMendiUsdc",
        "label": "__gap",
        "offset": 0,
        "slot": "257",
        "type": "t_array(t_uint256)44_storage"
      },
      {
        "astId": 4987,
        "contract": "contracts/StrategyMendiUsdc.sol:StrategyMendiUsdc",
        "label": "usdc",
        "offset": 0,
        "slot": "301",
        "type": "t_contract(IERC20)2907"
      },
      {
        "astId": 4990,
        "contract": "contracts/StrategyMendiUsdc.sol:StrategyMendiUsdc",
        "label": "mendi",
        "offset": 0,
        "slot": "302",
        "type": "t_contract(IERC20)2907"
      },
      {
        "astId": 4993,
        "contract": "contracts/StrategyMendiUsdc.sol:StrategyMendiUsdc",
        "label": "cUsdc",
        "offset": 0,
        "slot": "303",
        "type": "t_contract(CToken)3162"
      },
      {
        "astId": 4996,
        "contract": "contracts/StrategyMendiUsdc.sol:StrategyMendiUsdc",
        "label": "unitroller",
        "offset": 0,
        "slot": "304",
        "type": "t_contract(Unitroller)3068"
      },
      {
        "astId": 4998,
        "contract": "contracts/StrategyMendiUsdc.sol:StrategyMendiUsdc",
        "label": "velocoreVault",
        "offset": 0,
        "slot": "305",
        "type": "t_address"
      },
      {
        "astId": 5000,
        "contract": "contracts/StrategyMendiUsdc.sol:StrategyMendiUsdc",
        "label": "poolMendiUsdc",
        "offset": 0,
        "slot": "306",
        "type": "t_address"
      }
    ],
    "types": {
      "t_address": {
        "encoding": "inplace",
        "label": "address",
        "numberOfBytes": "20"
      },
      "t_array(t_uint256)44_storage": {
        "base": "t_uint256",
        "encoding": "inplace",
        "label": "uint256[44]",
        "numberOfBytes": "1408"
      },
      "t_array(t_uint256)49_storage": {
        "base": "t_uint256",
        "encoding": "inplace",
        "label": "uint256[49]",
        "numberOfBytes": "1568"
      },
      "t_array(t_uint256)50_storage": {
        "base": "t_uint256",
        "encoding": "inplace",
        "label": "uint256[50]",
        "numberOfBytes": "1600"
      },
      "t_bool": {
        "encoding": "inplace",
        "label": "bool",
        "numberOfBytes": "1"
      },
      "t_bytes32": {
        "encoding": "inplace",
        "label": "bytes32",
        "numberOfBytes": "32"
      },
      "t_contract(CToken)3162": {
        "encoding": "inplace",
        "label": "contract CToken",
        "numberOfBytes": "20"
      },
      "t_contract(IERC20)2907": {
        "encoding": "inplace",
        "label": "contract IERC20",
        "numberOfBytes": "20"
      },
      "t_contract(IRoleManager)4662": {
        "encoding": "inplace",
        "label": "contract IRoleManager",
        "numberOfBytes": "20"
      },
      "t_contract(Unitroller)3068": {
        "encoding": "inplace",
        "label": "contract Unitroller",
        "numberOfBytes": "20"
      },
      "t_mapping(t_address,t_bool)": {
        "encoding": "mapping",
        "key": "t_address",
        "label": "mapping(address => bool)",
        "numberOfBytes": "32",
        "value": "t_bool"
      },
      "t_mapping(t_bytes32,t_struct(RoleData)23_storage)": {
        "encoding": "mapping",
        "key": "t_bytes32",
        "label": "mapping(bytes32 => struct AccessControlUpgradeable.RoleData)",
        "numberOfBytes": "32",
        "value": "t_struct(RoleData)23_storage"
      },
      "t_string_storage": {
        "encoding": "bytes",
        "label": "string",
        "numberOfBytes": "32"
      },
      "t_struct(RoleData)23_storage": {
        "encoding": "inplace",
        "label": "struct AccessControlUpgradeable.RoleData",
        "members": [
          {
            "astId": 20,
            "contract": "contracts/StrategyMendiUsdc.sol:StrategyMendiUsdc",
            "label": "members",
            "offset": 0,
            "slot": "0",
            "type": "t_mapping(t_address,t_bool)"
          },
          {
            "astId": 22,
            "contract": "contracts/StrategyMendiUsdc.sol:StrategyMendiUsdc",
            "label": "adminRole",
            "offset": 0,
            "slot": "1",
            "type": "t_bytes32"
          }
        ],
        "numberOfBytes": "64"
      },
      "t_uint256": {
        "encoding": "inplace",
        "label": "uint256",
        "numberOfBytes": "32"
      },
      "t_uint8": {
        "encoding": "inplace",
        "label": "uint8",
        "numberOfBytes": "1"
      }
    }
  }
}