{
  "address": "0x6e24a0E4697370C7D4102928931181bC889f7010",
  "abi": [
    {
      "inputs": [],
      "stateMutability": "nonpayable",
      "type": "constructor"
    },
    {
      "anonymous": false,
      "inputs": [
        {
          "indexed": false,
          "internalType": "address",
          "name": "previousAdmin",
          "type": "address"
        },
        {
          "indexed": false,
          "internalType": "address",
          "name": "newAdmin",
          "type": "address"
        }
      ],
      "name": "AdminChanged",
      "type": "event"
    },
    {
      "anonymous": false,
      "inputs": [
        {
          "indexed": true,
          "internalType": "address",
          "name": "beacon",
          "type": "address"
        }
      ],
      "name": "BeaconUpgraded",
      "type": "event"
    },
    {
      "anonymous": false,
      "inputs": [
        {
          "indexed": false,
          "internalType": "uint8",
          "name": "version",
          "type": "uint8"
        }
      ],
      "name": "Initialized",
      "type": "event"
    },
    {
      "anonymous": false,
      "inputs": [
        {
          "indexed": false,
          "internalType": "address",
          "name": "value",
          "type": "address"
        }
      ],
      "name": "PortfolioManagerUpdated",
      "type": "event"
    },
    {
      "anonymous": false,
      "inputs": [
        {
          "indexed": false,
          "internalType": "uint256",
          "name": "amount",
          "type": "uint256"
        }
      ],
      "name": "Reward",
      "type": "event"
    },
    {
      "anonymous": false,
      "inputs": [
        {
          "indexed": true,
          "internalType": "bytes32",
          "name": "role",
          "type": "bytes32"
        },
        {
          "indexed": true,
          "internalType": "bytes32",
          "name": "previousAdminRole",
          "type": "bytes32"
        },
        {
          "indexed": true,
          "internalType": "bytes32",
          "name": "newAdminRole",
          "type": "bytes32"
        }
      ],
      "name": "RoleAdminChanged",
      "type": "event"
    },
    {
      "anonymous": false,
      "inputs": [
        {
          "indexed": true,
          "internalType": "bytes32",
          "name": "role",
          "type": "bytes32"
        },
        {
          "indexed": true,
          "internalType": "address",
          "name": "account",
          "type": "address"
        },
        {
          "indexed": true,
          "internalType": "address",
          "name": "sender",
          "type": "address"
        }
      ],
      "name": "RoleGranted",
      "type": "event"
    },
    {
      "anonymous": false,
      "inputs": [
        {
          "indexed": true,
          "internalType": "bytes32",
          "name": "role",
          "type": "bytes32"
        },
        {
          "indexed": true,
          "internalType": "address",
          "name": "account",
          "type": "address"
        },
        {
          "indexed": true,
          "internalType": "address",
          "name": "sender",
          "type": "address"
        }
      ],
      "name": "RoleRevoked",
      "type": "event"
    },
    {
      "anonymous": false,
      "inputs": [
        {
          "indexed": false,
          "internalType": "uint256",
          "name": "swapSlippageBP",
          "type": "uint256"
        },
        {
          "indexed": false,
          "internalType": "uint256",
          "name": "navSlippageBP",
          "type": "uint256"
        },
        {
          "indexed": false,
          "internalType": "uint256",
          "name": "stakeSlippageBP",
          "type": "uint256"
        }
      ],
      "name": "SlippagesUpdated",
      "type": "event"
    },
    {
      "anonymous": false,
      "inputs": [
        {
          "indexed": false,
          "internalType": "uint256",
          "name": "amount",
          "type": "uint256"
        }
      ],
      "name": "Stake",
      "type": "event"
    },
    {
      "anonymous": false,
      "inputs": [],
      "name": "StrategyUpdatedParams",
      "type": "event"
    },
    {
      "anonymous": false,
      "inputs": [
        {
          "indexed": false,
          "internalType": "uint256",
          "name": "amount",
          "type": "uint256"
        },
        {
          "indexed": false,
          "internalType": "uint256",
          "name": "amountReceived",
          "type": "uint256"
        }
      ],
      "name": "Unstake",
      "type": "event"
    },
    {
      "anonymous": false,
      "inputs": [
        {
          "indexed": true,
          "internalType": "address",
          "name": "implementation",
          "type": "address"
        }
      ],
      "name": "Upgraded",
      "type": "event"
    },
    {
      "inputs": [],
      "name": "DEFAULT_ADMIN_ROLE",
      "outputs": [
        {
          "internalType": "bytes32",
          "name": "",
          "type": "bytes32"
        }
      ],
      "stateMutability": "view",
      "type": "function"
    },
    {
      "inputs": [],
      "name": "PORTFOLIO_AGENT_ROLE",
      "outputs": [
        {
          "internalType": "bytes32",
          "name": "",
          "type": "bytes32"
        }
      ],
      "stateMutability": "view",
      "type": "function"
    },
    {
      "inputs": [],
      "name": "PORTFOLIO_MANAGER",
      "outputs": [
        {
          "internalType": "bytes32",
          "name": "",
          "type": "bytes32"
        }
      ],
      "stateMutability": "view",
      "type": "function"
    },
    {
      "inputs": [],
      "name": "cUsdc",
      "outputs": [
        {
          "internalType": "contract CToken",
          "name": "",
          "type": "address"
        }
      ],
      "stateMutability": "view",
      "type": "function"
    },
    {
      "inputs": [
        {
          "internalType": "address",
          "name": "_to",
          "type": "address"
        }
      ],
      "name": "claimRewards",
      "outputs": [
        {
          "internalType": "uint256",
          "name": "",
          "type": "uint256"
        }
      ],
      "stateMutability": "nonpayable",
      "type": "function"
    },
    {
      "inputs": [
        {
          "internalType": "bytes32",
          "name": "role",
          "type": "bytes32"
        }
      ],
      "name": "getRoleAdmin",
      "outputs": [
        {
          "internalType": "bytes32",
          "name": "",
          "type": "bytes32"
        }
      ],
      "stateMutability": "view",
      "type": "function"
    },
    {
      "inputs": [
        {
          "internalType": "bytes32",
          "name": "role",
          "type": "bytes32"
        },
        {
          "internalType": "address",
          "name": "account",
          "type": "address"
        }
      ],
      "name": "grantRole",
      "outputs": [],
      "stateMutability": "nonpayable",
      "type": "function"
    },
    {
      "inputs": [
        {
          "internalType": "bytes32",
          "name": "role",
          "type": "bytes32"
        },
        {
          "internalType": "address",
          "name": "account",
          "type": "address"
        }
      ],
      "name": "hasRole",
      "outputs": [
        {
          "internalType": "bool",
          "name": "",
          "type": "bool"
        }
      ],
      "stateMutability": "view",
      "type": "function"
    },
    {
      "inputs": [],
      "name": "initialize",
      "outputs": [],
      "stateMutability": "nonpayable",
      "type": "function"
    },
    {
      "inputs": [],
      "name": "liquidationValue",
      "outputs": [
        {
          "internalType": "uint256",
          "name": "",
          "type": "uint256"
        }
      ],
      "stateMutability": "view",
      "type": "function"
    },
    {
      "inputs": [],
      "name": "mendi",
      "outputs": [
        {
          "internalType": "contract IERC20",
          "name": "",
          "type": "address"
        }
      ],
      "stateMutability": "view",
      "type": "function"
    },
    {
      "inputs": [],
      "name": "name",
      "outputs": [
        {
          "internalType": "string",
          "name": "",
          "type": "string"
        }
      ],
      "stateMutability": "view",
      "type": "function"
    },
    {
      "inputs": [],
      "name": "navSlippageBP",
      "outputs": [
        {
          "internalType": "uint256",
          "name": "",
          "type": "uint256"
        }
      ],
      "stateMutability": "view",
      "type": "function"
    },
    {
      "inputs": [],
      "name": "netAssetValue",
      "outputs": [
        {
          "internalType": "uint256",
          "name": "",
          "type": "uint256"
        }
      ],
      "stateMutability": "view",
      "type": "function"
    },
    {
      "inputs": [],
      "name": "poolMendiUsdc",
      "outputs": [
        {
          "internalType": "address",
          "name": "",
          "type": "address"
        }
      ],
      "stateMutability": "view",
      "type": "function"
    },
    {
      "inputs": [],
      "name": "portfolioManager",
      "outputs": [
        {
          "internalType": "address",
          "name": "",
          "type": "address"
        }
      ],
      "stateMutability": "view",
      "type": "function"
    },
    {
      "inputs": [],
      "name": "proxiableUUID",
      "outputs": [
        {
          "internalType": "bytes32",
          "name": "",
          "type": "bytes32"
        }
      ],
      "stateMutability": "view",
      "type": "function"
    },
    {
      "inputs": [
        {
          "internalType": "bytes32",
          "name": "role",
          "type": "bytes32"
        },
        {
          "internalType": "address",
          "name": "account",
          "type": "address"
        }
      ],
      "name": "renounceRole",
      "outputs": [],
      "stateMutability": "nonpayable",
      "type": "function"
    },
    {
      "inputs": [
        {
          "internalType": "bytes32",
          "name": "role",
          "type": "bytes32"
        },
        {
          "internalType": "address",
          "name": "account",
          "type": "address"
        }
      ],
      "name": "revokeRole",
      "outputs": [],
      "stateMutability": "nonpayable",
      "type": "function"
    },
    {
      "inputs": [],
      "name": "roleManager",
      "outputs": [
        {
          "internalType": "contract IRoleManager",
          "name": "",
          "type": "address"
        }
      ],
      "stateMutability": "view",
      "type": "function"
    },
    {
      "inputs": [
        {
          "components": [
            {
              "internalType": "address",
              "name": "usdc",
              "type": "address"
            },
            {
              "internalType": "address",
              "name": "mendi",
              "type": "address"
            },
            {
              "internalType": "address",
              "name": "cUsdc",
              "type": "address"
            },
            {
              "internalType": "address",
              "name": "unitroller",
              "type": "address"
            },
            {
              "internalType": "address",
              "name": "velocoreVault",
              "type": "address"
            },
            {
              "internalType": "address",
              "name": "poolMendiUsdc",
              "type": "address"
            }
          ],
          "internalType": "struct StrategyMendiUsdc.StrategyParams",
          "name": "params",
          "type": "tuple"
        }
      ],
      "name": "setParams",
      "outputs": [],
      "stateMutability": "nonpayable",
      "type": "function"
    },
    {
      "inputs": [
        {
          "internalType": "uint256",
          "name": "_swapSlippageBP",
          "type": "uint256"
        },
        {
          "internalType": "uint256",
          "name": "_navSlippageBP",
          "type": "uint256"
        },
        {
          "internalType": "uint256",
          "name": "_stakeSlippageBP",
          "type": "uint256"
        }
      ],
      "name": "setSlippages",
      "outputs": [],
      "stateMutability": "nonpayable",
      "type": "function"
    },
    {
      "inputs": [
        {
          "internalType": "string",
          "name": "_name",
          "type": "string"
        }
      ],
      "name": "setStrategyName",
      "outputs": [],
      "stateMutability": "nonpayable",
      "type": "function"
    },
    {
      "inputs": [
        {
          "internalType": "address",
          "name": "_portfolioManager",
          "type": "address"
        },
        {
          "internalType": "address",
          "name": "_roleManager",
          "type": "address"
        }
      ],
      "name": "setStrategyParams",
      "outputs": [],
      "stateMutability": "nonpayable",
      "type": "function"
    },
    {
      "inputs": [
        {
          "internalType": "address",
          "name": "_asset",
          "type": "address"
        },
        {
          "internalType": "uint256",
          "name": "_amount",
          "type": "uint256"
        }
      ],
      "name": "stake",
      "outputs": [],
      "stateMutability": "nonpayable",
      "type": "function"
    },
    {
      "inputs": [],
      "name": "stakeSlippageBP",
      "outputs": [
        {
          "internalType": "uint256",
          "name": "",
          "type": "uint256"
        }
      ],
      "stateMutability": "view",
      "type": "function"
    },
    {
      "inputs": [
        {
          "internalType": "bytes4",
          "name": "interfaceId",
          "type": "bytes4"
        }
      ],
      "name": "supportsInterface",
      "outputs": [
        {
          "internalType": "bool",
          "name": "",
          "type": "bool"
        }
      ],
      "stateMutability": "view",
      "type": "function"
    },
    {
      "inputs": [],
      "name": "swapSlippageBP",
      "outputs": [
        {
          "internalType": "uint256",
          "name": "",
          "type": "uint256"
        }
      ],
      "stateMutability": "view",
      "type": "function"
    },
    {
      "inputs": [],
      "name": "unitroller",
      "outputs": [
        {
          "internalType": "contract Unitroller",
          "name": "",
          "type": "address"
        }
      ],
      "stateMutability": "view",
      "type": "function"
    },
    {
      "inputs": [
        {
          "internalType": "address",
          "name": "_asset",
          "type": "address"
        },
        {
          "internalType": "uint256",
          "name": "_amount",
          "type": "uint256"
        },
        {
          "internalType": "address",
          "name": "_beneficiary",
          "type": "address"
        },
        {
          "internalType": "bool",
          "name": "_targetIsZero",
          "type": "bool"
        }
      ],
      "name": "unstake",
      "outputs": [
        {
          "internalType": "uint256",
          "name": "",
          "type": "uint256"
        }
      ],
      "stateMutability": "nonpayable",
      "type": "function"
    },
    {
      "inputs": [
        {
          "internalType": "address",
          "name": "newImplementation",
          "type": "address"
        }
      ],
      "name": "upgradeTo",
      "outputs": [],
      "stateMutability": "nonpayable",
      "type": "function"
    },
    {
      "inputs": [
        {
          "internalType": "address",
          "name": "newImplementation",
          "type": "address"
        },
        {
          "internalType": "bytes",
          "name": "data",
          "type": "bytes"
        }
      ],
      "name": "upgradeToAndCall",
      "outputs": [],
      "stateMutability": "payable",
      "type": "function"
    },
    {
      "inputs": [],
      "name": "usdc",
      "outputs": [
        {
          "internalType": "contract IERC20",
          "name": "",
          "type": "address"
        }
      ],
      "stateMutability": "view",
      "type": "function"
    },
    {
      "inputs": [],
      "name": "velocoreVault",
      "outputs": [
        {
          "internalType": "address",
          "name": "",
          "type": "address"
        }
      ],
      "stateMutability": "view",
      "type": "function"
    }
  ],
  "numDeployments": 3,
  "solcInputHash": "f6ede3cde60fa7dff30c37dc334ec0f9",
  "bytecode": "0x60a0604052306080523480156200001557600080fd5b50600054610100900460ff1615808015620000375750600054600160ff909116105b8062000067575062000054306200014160201b620015481760201c565b15801562000067575060005460ff166001145b620000cf5760405162461bcd60e51b815260206004820152602e60248201527f496e697469616c697a61626c653a20636f6e747261637420697320616c72656160448201526d191e481a5b9a5d1a585b1a5e995960921b606482015260840160405180910390fd5b6000805460ff191660011790558015620000f3576000805461ff0019166101001790555b80156200013a576000805461ff0019169055604051600181527f7f26b83ff96e1f2b6a682f133852f6798a09c465da95921460cefb38474024989060200160405180910390a15b5062000150565b6001600160a01b03163b151590565b6080516131946200018860003960008181610776015281816107b60152818161083e0152818161087e01526108f601526131946000f3fe6080604052600436106101b85760003560e01c80637d5f5802116100ed578063ae30c11011610090578063ae30c110146104d0578063bad1d3da146104f0578063bf52e08014610511578063c262575714610527578063d08c96fc14610548578063d1ace33c14610569578063d547741f1461058a578063ef5cfb8c146105aa578063f6f6b881146105ca57600080fd5b80637d5f5802146103f2578063806b9405146104265780638129fc1c1461044657806391d148541461045b578063a016b2cd1461047b578063a217fddf1461049b578063a3673b3814610299578063adc9772e146104b057600080fd5b80633659cfe6116101605780633659cfe6146102f05780633e413bee146103105780634f1ef2861461033157806352d1902d146103445780635ca558f8146103595780635dbd733a1461036f5780635f33f2811461039157806360e45b04146103b2578063620b75df146103d257600080fd5b8062435da5146101bd57806301ffc9a7146101f357806306fdde0314610223578063119cd87914610245578063248a9ca3146102695780632576e65a146102995780632f2ff15d146102ae57806336568abe146102d0575b600080fd5b3480156101c957600080fd5b5060ff546101dd906001600160a01b031681565b6040516101ea91906127de565b60405180910390f35b3480156101ff57600080fd5b5061021361020e3660046127f2565b6105ea565b60405190151581526020016101ea565b34801561022f57600080fd5b50610238610621565b6040516101ea9190612840565b34801561025157600080fd5b5061025b60fd5481565b6040519081526020016101ea565b34801561027557600080fd5b5061025b610284366004612873565b60009081526065602052604090206001015490565b3480156102a557600080fd5b5061025b6106b0565b3480156102ba57600080fd5b506102ce6102c93660046128a3565b6106bf565b005b3480156102dc57600080fd5b506102ce6102eb3660046128a3565b6106e9565b3480156102fc57600080fd5b506102ce61030b3660046128cf565b61076c565b34801561031c57600080fd5b5061012d546101dd906001600160a01b031681565b6102ce61033f366004612987565b610834565b34801561035057600080fd5b5061025b6108e9565b34801561036557600080fd5b5061025b60fe5481565b34801561037b57600080fd5b5061025b6000805160206130f883398151915281565b34801561039d57600080fd5b5061012e546101dd906001600160a01b031681565b3480156103be57600080fd5b506102ce6103cd3660046129e8565b610997565b3480156103de57600080fd5b5060fb546101dd906001600160a01b031681565b3480156103fe57600080fd5b5061025b7f90c2aa7471c04182221f68e80c07ab1e5946e4c63f8693e14ca40385d529f05181565b34801561043257600080fd5b506102ce610441366004612a12565b610a38565b34801561045257600080fd5b506102ce610dd5565b34801561046757600080fd5b506102136104763660046128a3565b610ea6565b34801561048757600080fd5b506102ce610496366004612a2a565b610ed1565b3480156104a757600080fd5b5061025b600081565b3480156104bc57600080fd5b506102ce6104cb366004612a72565b610f7a565b3480156104dc57600080fd5b506102ce6104eb366004612a9c565b611145565b3480156104fc57600080fd5b50610130546101dd906001600160a01b031681565b34801561051d57600080fd5b5061025b60fc5481565b34801561053357600080fd5b50610131546101dd906001600160a01b031681565b34801561055457600080fd5b5061012f546101dd906001600160a01b031681565b34801561057557600080fd5b50610132546101dd906001600160a01b031681565b34801561059657600080fd5b506102ce6105a53660046128a3565b61122e565b3480156105b657600080fd5b5061025b6105c53660046128cf565b611253565b3480156105d657600080fd5b5061025b6105e5366004612ad6565b6112cf565b60006001600160e01b03198216637965db0b60e01b148061061b57506301ffc9a760e01b6001600160e01b03198316145b92915050565b610100805461062f90612b25565b80601f016020809104026020016040519081016040528092919081815260200182805461065b90612b25565b80156106a85780601f1061067d576101008083540402835291602001916106a8565b820191906000526020600020905b81548152906001019060200180831161068b57829003601f168201915b505050505081565b60006106ba611557565b905090565b6000828152606560205260409020600101546106da816116dc565b6106e483836116e6565b505050565b6001600160a01b038116331461075e5760405162461bcd60e51b815260206004820152602f60248201527f416363657373436f6e74726f6c3a2063616e206f6e6c792072656e6f756e636560448201526e103937b632b9903337b91039b2b63360891b60648201526084015b60405180910390fd5b610768828261176c565b5050565b6001600160a01b037f00000000000000000000000000000000000000000000000000000000000000001630036107b45760405162461bcd60e51b815260040161075590612b59565b7f00000000000000000000000000000000000000000000000000000000000000006001600160a01b03166107e66117d3565b6001600160a01b03161461080c5760405162461bcd60e51b815260040161075590612ba5565b610815816117ef565b60408051600080825260208201909252610831918391906117fa565b50565b6001600160a01b037f000000000000000000000000000000000000000000000000000000000000000016300361087c5760405162461bcd60e51b815260040161075590612b59565b7f00000000000000000000000000000000000000000000000000000000000000006001600160a01b03166108ae6117d3565b6001600160a01b0316146108d45760405162461bcd60e51b815260040161075590612ba5565b6108dd826117ef565b610768828260016117fa565b6000306001600160a01b037f000000000000000000000000000000000000000000000000000000000000000016146109845760405162461bcd60e51b815260206004820152603860248201527f555550535570677261646561626c653a206d757374206e6f742062652063616c6044820152771b1959081d1a1c9bdd59da0819195b1959d85d1958d85b1b60421b6064820152608401610755565b5060008051602061311883398151915290565b6109a2600033610ea6565b6109be5760405162461bcd60e51b815260040161075590612bf1565b6001600160a01b0382166109e45760405162461bcd60e51b815260040161075590612c1f565b6001600160a01b038116610a0a5760405162461bcd60e51b815260040161075590612c1f565b60fb80546001600160a01b039384166001600160a01b03199182161790915560ff8054929093169116179055565b610a43600033610ea6565b610a5f5760405162461bcd60e51b815260040161075590612bf1565b6000610a6e60208301836128cf565b6001600160a01b031603610ab45760405162461bcd60e51b815260206004820152600d60248201526c7573646320697320656d70747960981b6044820152606401610755565b6000610ac660408301602084016128cf565b6001600160a01b031603610b0d5760405162461bcd60e51b815260206004820152600e60248201526d6d656e646920697320656d70747960901b6044820152606401610755565b6000610b1f60608301604084016128cf565b6001600160a01b031603610b665760405162461bcd60e51b815260206004820152600e60248201526d635573646320697320656d70747960901b6044820152606401610755565b6000610b7860808301606084016128cf565b6001600160a01b031603610bc45760405162461bcd60e51b8152602060048201526013602482015272756e6974726f6c6c657220697320656d70747960681b6044820152606401610755565b6000610bd660a08301608084016128cf565b6001600160a01b031603610c255760405162461bcd60e51b815260206004820152601660248201527576656c6f636f72655661756c7420697320656d70747960501b6044820152606401610755565b6000610c3760c0830160a084016128cf565b6001600160a01b031603610c865760405162461bcd60e51b8152602060048201526016602482015275706f6f6c4d656e64695573646320697320656d70747960501b6044820152606401610755565b610c9360208201826128cf565b61012d80546001600160a01b0319166001600160a01b0392909216919091179055610cc460408201602083016128cf565b61012e80546001600160a01b0319166001600160a01b0392909216919091179055610cf560608201604083016128cf565b61012f80546001600160a01b0319166001600160a01b0392909216919091179055610d2660808201606083016128cf565b61013080546001600160a01b0319166001600160a01b0392909216919091179055610d5760a08201608083016128cf565b61013180546001600160a01b0319166001600160a01b0392909216919091179055610d8860c0820160a083016128cf565b61013280546001600160a01b0319166001600160a01b03929092169190911790556040517fea5646eb3528e525944447a4a97de700dd472298626e5c0481d1c82c3da86ea590600090a150565b600054610100900460ff1615808015610df55750600054600160ff909116105b80610e165750610e0430611548565b158015610e16575060005460ff166001145b610e325760405162461bcd60e51b815260040161075590612c51565b6000805460ff191660011790558015610e55576000805461ff0019166101001790555b610e5d611965565b8015610831576000805461ff0019169055604051600181527f7f26b83ff96e1f2b6a682f133852f6798a09c465da95921460cefb3847402498906020015b60405180910390a150565b60009182526065602090815260408084206001600160a01b0393909316845291905290205460ff1690565b60ff54604051632474521560e21b81526000805160206130f883398151915260048201523360248201526001600160a01b03909116906391d1485490604401602060405180830381865afa158015610f2d573d6000803e3d6000fd5b505050506040513d601f19601f82011682018060405250810190610f519190612c9f565b610f6d5760405162461bcd60e51b815260040161075590612cbc565b6101006107688282612d41565b60fb546001600160a01b03163314610fa45760405162461bcd60e51b815260040161075590612e00565b6000611013306001600160a01b031663a3673b386040518163ffffffff1660e01b8152600401602060405180830381865afa158015610fe7573d6000803e3d6000fd5b505050506040513d601f19601f8201168201806040525081019061100b9190612e37565b60fd54611a51565b905061108b83846001600160a01b03166370a08231306040518263ffffffff1660e01b815260040161104591906127de565b602060405180830381865afa158015611062573d6000803e3d6000fd5b505050506040513d601f19601f820116820180604052508101906110869190612e37565b611a7b565b80306001600160a01b031663a3673b386040518163ffffffff1660e01b8152600401602060405180830381865afa1580156110ca573d6000803e3d6000fd5b505050506040513d601f19601f820116820180604052508101906110ee9190612e37565b101561110c5760405162461bcd60e51b815260040161075590612e50565b6040518281527f227a473b70d2f893cc7659219575c030a63b5743024fe1e0c1a680e708b1525a906020015b60405180910390a1505050565b60ff54604051632474521560e21b81526000805160206130f883398151915260048201523360248201526001600160a01b03909116906391d1485490604401602060405180830381865afa1580156111a1573d6000803e3d6000fd5b505050506040513d601f19601f820116820180604052508101906111c59190612c9f565b6111e15760405162461bcd60e51b815260040161075590612cbc565b60fc83905560fd82905560fe81905560408051848152602081018490529081018290527f116fbf1e97a2be629ad98abfb6c332733c8996c2dfb174dd2efe8440df381d1a90606001611138565b600082815260656020526040902060010154611249816116dc565b6106e4838361176c565b60fb546000906001600160a01b031633146112805760405162461bcd60e51b815260040161075590612e00565b600061128b83611bd6565b905080156112c7576040518181527f3ac0594a85a20354f9dc74f33728416d19ce00d04a406c108cc2dcf2cecea1349060200160405180910390a15b90505b919050565b60fb546000906001600160a01b031633146112fc5760405162461bcd60e51b815260040161075590612e00565b600061133f306001600160a01b031663a3673b386040518163ffffffff1660e01b8152600401602060405180830381865afa158015610fe7573d6000803e3d6000fd5b905060008084156113665761135386611bd6565b905061135f8887611f3b565b91506113d5565b61137188888861208a565b9150868210156113d55760405162461bcd60e51b815260206004820152602960248201527f52657475726e65642076616c7565206c657373207468616e2072657175657374604482015268195908185b5bdd5b9d60ba1b6064820152608401610755565b82306001600160a01b031663a3673b386040518163ffffffff1660e01b8152600401602060405180830381865afa158015611414573d6000803e3d6000fd5b505050506040513d601f19601f820116820180604052508101906114389190612e37565b10156114565760405162461bcd60e51b815260040161075590612e50565b60405163a9059cbb60e01b81526001600160a01b0389169063a9059cbb906114849089908690600401612e87565b6020604051808303816000875af11580156114a3573d6000803e3d6000fd5b505050506040513d601f19601f820116820180604052508101906114c79190612c9f565b5060408051888152602081018490527f9045c2ac9b2026de8075f2701bbdde882cd5e830b3b1ead9a15b22f2b5b93742910160405180910390a1801561153b576040518181527f3ac0594a85a20354f9dc74f33728416d19ce00d04a406c108cc2dcf2cecea1349060200160405180910390a15b509150505b949350505050565b6001600160a01b03163b151590565b6000670de0b6b3a764000061012f60009054906101000a90046001600160a01b03166001600160a01b031663182df0f56040518163ffffffff1660e01b8152600401602060405180830381865afa1580156115b6573d6000803e3d6000fd5b505050506040513d601f19601f820116820180604052508101906115da9190612e37565b61012f546040516370a0823160e01b81526001600160a01b03909116906370a082319061160b9030906004016127de565b602060405180830381865afa158015611628573d6000803e3d6000fd5b505050506040513d601f19601f8201168201806040525081019061164c9190612e37565b6116569190612eb6565b6116609190612ecd565b61012d546040516370a0823160e01b81526001600160a01b03909116906370a08231906116919030906004016127de565b602060405180830381865afa1580156116ae573d6000803e3d6000fd5b505050506040513d601f19601f820116820180604052508101906116d29190612e37565b6106ba9190612eef565b610831813361216e565b6116f08282610ea6565b6107685760008281526065602090815260408083206001600160a01b03851684529091529020805460ff191660011790556117283390565b6001600160a01b0316816001600160a01b0316837f2f8788117e7eff1d82e926ec794901d17c78024a50270940304540a733656f0d60405160405180910390a45050565b6117768282610ea6565b156107685760008281526065602090815260408083206001600160a01b0385168085529252808320805460ff1916905551339285917ff6391f5c32d9c69d2a47ea670b442974b53935d1edc7fd64eb21e047a839171b9190a45050565b600080516020613118833981519152546001600160a01b031690565b6000610768816116dc565b7f4910fdfa16fed3260ed0e7147f7cc6da11a60208b5b9406d12a635614ffd91435460ff161561182d576106e4836121c7565b826001600160a01b03166352d1902d6040518163ffffffff1660e01b8152600401602060405180830381865afa925050508015611887575060408051601f3d908101601f1916820190925261188491810190612e37565b60015b6118ea5760405162461bcd60e51b815260206004820152602e60248201527f45524331393637557067726164653a206e657720696d706c656d656e7461746960448201526d6f6e206973206e6f74205555505360901b6064820152608401610755565b60008051602061311883398151915281146119595760405162461bcd60e51b815260206004820152602960248201527f45524331393637557067726164653a20756e737570706f727465642070726f786044820152681a58589b195555525160ba1b6064820152608401610755565b506106e4838383612261565b600054610100900460ff16158080156119855750600054600160ff909116105b806119a6575061199430611548565b1580156119a6575060005460ff166001145b6119c25760405162461bcd60e51b815260040161075590612c51565b6000805460ff1916600117905580156119e5576000805461ff0019166101001790555b6119ed61228c565b6119f561228c565b611a006000336116e6565b601460fc81905560fd55600460fe558015610831576000805461ff0019169055604051600181527f7f26b83ff96e1f2b6a682f133852f6798a09c465da95921460cefb384740249890602001610e9b565b6000612710611a608382612f02565b611a6a9085612eb6565b611a749190612ecd565b9392505050565b61012d5461012f5460405163095ea7b360e01b81526001600160a01b039283169263095ea7b392611ab3929116908590600401612e87565b6020604051808303816000875af1158015611ad2573d6000803e3d6000fd5b505050506040513d601f19601f82011682018060405250810190611af69190612c9f565b5061012f5461012d546040516370a0823160e01b81526001600160a01b039283169263a0712d689216906370a0823190611b349030906004016127de565b602060405180830381865afa158015611b51573d6000803e3d6000fd5b505050506040513d601f19601f82011682018060405250810190611b759190612e37565b6040518263ffffffff1660e01b8152600401611b9391815260200190565b6020604051808303816000875af1158015611bb2573d6000803e3d6000fd5b505050506040513d601f19601f820116820180604052508101906106e49190612e37565b61012f546040516370a0823160e01b815260009182916001600160a01b03909116906370a0823190611c0c9030906004016127de565b602060405180830381865afa158015611c29573d6000803e3d6000fd5b505050506040513d601f19601f82011682018060405250810190611c4d9190612e37565b1115611d095760408051600180825281830190925260009160208083019080368337505061012f5482519293506001600160a01b031691839150600090611c9657611c96612f15565b6001600160a01b0392831660209182029290920101526101305460405162e1ed9760e51b8152911690631c3db2e090611cd59030908590600401612f2b565b600060405180830381600087803b158015611cef57600080fd5b505af1158015611d03573d6000803e3d6000fd5b50505050505b61012d546040516370a0823160e01b81526000916001600160a01b0316906370a0823190611d3b9030906004016127de565b602060405180830381865afa158015611d58573d6000803e3d6000fd5b505050506040513d601f19601f82011682018060405250810190611d7c9190612e37565b61012e546040516370a0823160e01b81529192506000916001600160a01b03909116906370a0823190611db39030906004016127de565b602060405180830381865afa158015611dd0573d6000803e3d6000fd5b505050506040513d601f19601f82011682018060405250810190611df49190612e37565b90508015611e3857610131546101325461012e5461012d54611e36936001600160a01b03908116936000939082169284929182169183918991166001836122f9565b505b61012d546040516370a0823160e01b815283916001600160a01b0316906370a0823190611e699030906004016127de565b602060405180830381865afa158015611e86573d6000803e3d6000fd5b505050506040513d601f19601f82011682018060405250810190611eaa9190612e37565b611eb49190612f02565b91508115611f345761012d5460405163a9059cbb60e01b81526001600160a01b039091169063a9059cbb90611eef9087908690600401612e87565b6020604051808303816000875af1158015611f0e573d6000803e3d6000fd5b505050506040513d601f19601f82011682018060405250810190611f329190612c9f565b505b5092915050565b61012f546040516370a0823160e01b81526000916001600160a01b03169063db006a759082906370a0823190611f759030906004016127de565b602060405180830381865afa158015611f92573d6000803e3d6000fd5b505050506040513d601f19601f82011682018060405250810190611fb69190612e37565b6040518263ffffffff1660e01b8152600401611fd491815260200190565b6020604051808303816000875af1158015611ff3573d6000803e3d6000fd5b505050506040513d601f19601f820116820180604052508101906120179190612e37565b5061012d546040516370a0823160e01b81526001600160a01b03909116906370a08231906120499030906004016127de565b602060405180830381865afa158015612066573d6000803e3d6000fd5b505050506040513d601f19601f82011682018060405250810190611a749190612e37565b61012f5460405163852a12e360e01b8152600481018490526000916001600160a01b03169063852a12e3906024016020604051808303816000875af11580156120d7573d6000803e3d6000fd5b505050506040513d601f19601f820116820180604052508101906120fb9190612e37565b5061012d546040516370a0823160e01b81526001600160a01b03909116906370a082319061212d9030906004016127de565b602060405180830381865afa15801561214a573d6000803e3d6000fd5b505050506040513d601f19601f820116820180604052508101906115409190612e37565b6121788282610ea6565b61076857612185816124bd565b6121908360206124cf565b6040516020016121a1929190612f87565b60408051601f198184030181529082905262461bcd60e51b825261075591600401612840565b6121d081611548565b6122325760405162461bcd60e51b815260206004820152602d60248201527f455243313936373a206e657720696d706c656d656e746174696f6e206973206e60448201526c1bdd08184818dbdb9d1c9858dd609a1b6064820152608401610755565b60008051602061311883398151915280546001600160a01b0319166001600160a01b0392909216919091179055565b61226a8361266a565b6000825111806122775750805b156106e45761228683836126aa565b50505050565b600054610100900460ff166122f75760405162461bcd60e51b815260206004820152602b60248201527f496e697469616c697a61626c653a20636f6e7472616374206973206e6f74206960448201526a6e697469616c697a696e6760a81b6064820152608401610755565b565b60006001600160a01b0387161561237d5760405163095ea7b360e01b81526001600160a01b0388169063095ea7b390612338908e908990600401612e87565b6020604051808303816000875af1158015612357573d6000803e3d6000fd5b505050506040513d601f19601f8201168201806040525081019061237b9190612c9f565b505b60008b6001600160a01b03166385e630a68c8c8c60048111156123a2576123a2612ff6565b8c8c60028111156123b5576123b5612ff6565b8c8c8c60028111156123c9576123c9612ff6565b60405160e08a901b6001600160e01b03191681526001600160a01b03978816600482015260ff968716602482015294871660448601529285166064850152600f91820b608485015290941660a483015290911660c48201529087900b60e482015261012061010482015260006101248201526101440160006040518083038185885af115801561245d573d6000803e3d6000fd5b50505050506040513d6000823e601f3d908101601f19168201604052612486919081019061300c565b90508060018151811061249b5761249b612f15565b60200260200101516001600160801b03169150509a9950505050505050505050565b606061061b6001600160a01b03831660145b606060006124de836002612eb6565b6124e9906002612eef565b6001600160401b03811115612500576125006128ea565b6040519080825280601f01601f19166020018201604052801561252a576020820181803683370190505b509050600360fc1b8160008151811061254557612545612f15565b60200101906001600160f81b031916908160001a905350600f60fb1b8160018151811061257457612574612f15565b60200101906001600160f81b031916908160001a9053506000612598846002612eb6565b6125a3906001612eef565b90505b600181111561261b576f181899199a1a9b1b9c1cb0b131b232b360811b85600f16601081106125d7576125d7612f15565b1a60f81b8282815181106125ed576125ed612f15565b60200101906001600160f81b031916908160001a90535060049490941c93612614816130c4565b90506125a6565b508315611a745760405162461bcd60e51b815260206004820181905260248201527f537472696e67733a20686578206c656e67746820696e73756666696369656e746044820152606401610755565b612673816121c7565b6040516001600160a01b038216907fbc7cd75a20ee27fd9adebab32041f755214dbc6bffa90cc0225b39da2e5c2d3b90600090a250565b6060611a748383604051806060016040528060278152602001613138602791396060600080856001600160a01b0316856040516126e791906130db565b600060405180830381855af49150503d8060008114612722576040519150601f19603f3d011682016040523d82523d6000602084013e612727565b606091505b509150915061273886838387612742565b9695505050505050565b606083156127af5782516000036127a85761275c85611548565b6127a85760405162461bcd60e51b815260206004820152601d60248201527f416464726573733a2063616c6c20746f206e6f6e2d636f6e74726163740000006044820152606401610755565b5081611540565b61154083838151156127c45781518083602001fd5b8060405162461bcd60e51b81526004016107559190612840565b6001600160a01b0391909116815260200190565b60006020828403121561280457600080fd5b81356001600160e01b031981168114611a7457600080fd5b60005b8381101561283757818101518382015260200161281f565b50506000910152565b602081526000825180602084015261285f81604085016020870161281c565b601f01601f19169190910160400192915050565b60006020828403121561288557600080fd5b5035919050565b80356001600160a01b03811681146112ca57600080fd5b600080604083850312156128b657600080fd5b823591506128c66020840161288c565b90509250929050565b6000602082840312156128e157600080fd5b611a748261288c565b634e487b7160e01b600052604160045260246000fd5b604051601f8201601f191681016001600160401b0381118282101715612928576129286128ea565b604052919050565b60006001600160401b03831115612949576129496128ea565b61295c601f8401601f1916602001612900565b905082815283838301111561297057600080fd5b828260208301376000602084830101529392505050565b6000806040838503121561299a57600080fd5b6129a38361288c565b915060208301356001600160401b038111156129be57600080fd5b8301601f810185136129cf57600080fd5b6129de85823560208401612930565b9150509250929050565b600080604083850312156129fb57600080fd5b612a048361288c565b91506128c66020840161288c565b600060c08284031215612a2457600080fd5b50919050565b600060208284031215612a3c57600080fd5b81356001600160401b03811115612a5257600080fd5b8201601f81018413612a6357600080fd5b61154084823560208401612930565b60008060408385031215612a8557600080fd5b612a8e8361288c565b946020939093013593505050565b600080600060608486031215612ab157600080fd5b505081359360208301359350604090920135919050565b801515811461083157600080fd5b60008060008060808587031215612aec57600080fd5b612af58561288c565b935060208501359250612b0a6040860161288c565b91506060850135612b1a81612ac8565b939692955090935050565b600181811c90821680612b3957607f821691505b602082108103612a2457634e487b7160e01b600052602260045260246000fd5b6020808252602c908201527f46756e6374696f6e206d7573742062652063616c6c6564207468726f7567682060408201526b19195b1959d85d1958d85b1b60a21b606082015260800190565b6020808252602c908201527f46756e6374696f6e206d7573742062652063616c6c6564207468726f7567682060408201526b6163746976652070726f787960a01b606082015260800190565b6020808252601490820152735265737472696374656420746f2061646d696e7360601b604082015260600190565b60208082526018908201527716995c9bc81859191c995cdcc81b9bdd08185b1b1bddd95960421b604082015260600190565b6020808252602e908201527f496e697469616c697a61626c653a20636f6e747261637420697320616c72656160408201526d191e481a5b9a5d1a585b1a5e995960921b606082015260800190565b600060208284031215612cb157600080fd5b8151611a7481612ac8565b6020808252601d908201527f5265737472696374656420746f20506f7274666f6c696f204167656e74000000604082015260600190565b601f8211156106e457600081815260208120601f850160051c81016020861015612d1a5750805b601f850160051c820191505b81811015612d3957828155600101612d26565b505050505050565b81516001600160401b03811115612d5a57612d5a6128ea565b612d6e81612d688454612b25565b84612cf3565b602080601f831160018114612da35760008415612d8b5750858301515b600019600386901b1c1916600185901b178555612d39565b600085815260208120601f198616915b82811015612dd257888601518255948401946001909101908401612db3565b5085821015612df05787850151600019600388901b60f8161c191681555b5050505050600190811b01905550565b6020808252601f908201527f5265737472696374656420746f20504f5254464f4c494f5f4d414e4147455200604082015260600190565b600060208284031215612e4957600080fd5b5051919050565b6020808252601f908201527f5374726174656779204e4156206c657373207468616e20657870656374656400604082015260600190565b6001600160a01b03929092168252602082015260400190565b634e487b7160e01b600052601160045260246000fd5b808202811582820484141761061b5761061b612ea0565b600082612eea57634e487b7160e01b600052601260045260246000fd5b500490565b8082018082111561061b5761061b612ea0565b8181038181111561061b5761061b612ea0565b634e487b7160e01b600052603260045260246000fd5b6001600160a01b038381168252604060208084018290528451918401829052600092858201929091906060860190855b81811015612f79578551851683529483019491830191600101612f5b565b509098975050505050505050565b76020b1b1b2b9b9a1b7b73a3937b61d1030b1b1b7bab73a1604d1b815260008351612fb981601785016020880161281c565b7001034b99036b4b9b9b4b733903937b6329607d1b6017918401918201528351612fea81602884016020880161281c565b01602801949350505050565b634e487b7160e01b600052602160045260246000fd5b6000602080838503121561301f57600080fd5b82516001600160401b038082111561303657600080fd5b818501915085601f83011261304a57600080fd5b81518181111561305c5761305c6128ea565b8060051b915061306d848301612900565b818152918301840191848101908884111561308757600080fd5b938501935b838510156130b8578451925082600f0b83146130a85760008081fd5b828252938501939085019061308c565b98975050505050505050565b6000816130d3576130d3612ea0565b506000190190565b600082516130ed81846020870161281c565b919091019291505056fed67ad422505496469a1adf6cdf9e5ee92ac5d33992843c9ecc4b2f6d6cde9137360894a13ba1a3210667c828492db98dca3e2076cc3735a920a3ca505d382bbc416464726573733a206c6f772d6c6576656c2064656c65676174652063616c6c206661696c6564a2646970667358221220d412b03daeecc89f33dab5a6ef7e9c621b2057c550dd517f0fd9dcf4fb7a636464736f6c63430008110033",
  "implementation": "0x29A0dc4f509873673B7682B60598d393A1e591b7",
  "devdoc": {
    "kind": "dev",
    "methods": {
      "constructor": {
        "custom:oz-upgrades-unsafe-allow": "constructor"
      },
      "getRoleAdmin(bytes32)": {
        "details": "Returns the admin role that controls `role`. See {grantRole} and {revokeRole}. To change a role's admin, use {_setRoleAdmin}."
      },
      "grantRole(bytes32,address)": {
        "details": "Grants `role` to `account`. If `account` had not been already granted `role`, emits a {RoleGranted} event. Requirements: - the caller must have ``role``'s admin role. May emit a {RoleGranted} event."
      },
      "hasRole(bytes32,address)": {
        "details": "Returns `true` if `account` has been granted `role`."
      },
      "proxiableUUID()": {
        "details": "Implementation of the ERC1822 {proxiableUUID} function. This returns the storage slot used by the implementation. It is used to validate the implementation's compatibility when performing an upgrade. IMPORTANT: A proxy pointing at a proxiable contract should not be considered proxiable itself, because this risks bricking a proxy that upgrades to it, by delegating to itself until out of gas. Thus it is critical that this function revert if invoked through a proxy. This is guaranteed by the `notDelegated` modifier."
      },
      "renounceRole(bytes32,address)": {
        "details": "Revokes `role` from the calling account. Roles are often managed via {grantRole} and {revokeRole}: this function's purpose is to provide a mechanism for accounts to lose their privileges if they are compromised (such as when a trusted device is misplaced). If the calling account had been revoked `role`, emits a {RoleRevoked} event. Requirements: - the caller must be `account`. May emit a {RoleRevoked} event."
      },
      "revokeRole(bytes32,address)": {
        "details": "Revokes `role` from `account`. If `account` had been granted `role`, emits a {RoleRevoked} event. Requirements: - the caller must have ``role``'s admin role. May emit a {RoleRevoked} event."
      },
      "supportsInterface(bytes4)": {
        "details": "See {IERC165-supportsInterface}."
      },
      "upgradeTo(address)": {
        "custom:oz-upgrades-unsafe-allow-reachable": "delegatecall",
        "details": "Upgrade the implementation of the proxy to `newImplementation`. Calls {_authorizeUpgrade}. Emits an {Upgraded} event."
      },
      "upgradeToAndCall(address,bytes)": {
        "custom:oz-upgrades-unsafe-allow-reachable": "delegatecall",
        "details": "Upgrade the implementation of the proxy to `newImplementation`, and subsequently execute the function call encoded in `data`. Calls {_authorizeUpgrade}. Emits an {Upgraded} event."
      }
    },
    "version": 1
  },
  "userdoc": {
    "kind": "user",
    "methods": {},
    "version": 1
  },
  "storageLayout": {
    "storage": [
      {
        "astId": 782,
        "contract": "contracts/StrategyMendiUsdc.sol:StrategyMendiUsdc",
        "label": "_initialized",
        "offset": 0,
        "slot": "0",
        "type": "t_uint8"
      },
      {
        "astId": 785,
        "contract": "contracts/StrategyMendiUsdc.sol:StrategyMendiUsdc",
        "label": "_initializing",
        "offset": 1,
        "slot": "0",
        "type": "t_bool"
      },
      {
        "astId": 1461,
        "contract": "contracts/StrategyMendiUsdc.sol:StrategyMendiUsdc",
        "label": "__gap",
        "offset": 0,
        "slot": "1",
        "type": "t_array(t_uint256)50_storage"
      },
      {
        "astId": 1845,
        "contract": "contracts/StrategyMendiUsdc.sol:StrategyMendiUsdc",
        "label": "__gap",
        "offset": 0,
        "slot": "51",
        "type": "t_array(t_uint256)50_storage"
      },
      {
        "astId": 28,
        "contract": "contracts/StrategyMendiUsdc.sol:StrategyMendiUsdc",
        "label": "_roles",
        "offset": 0,
        "slot": "101",
        "type": "t_mapping(t_bytes32,t_struct(RoleData)23_storage)"
      },
      {
        "astId": 335,
        "contract": "contracts/StrategyMendiUsdc.sol:StrategyMendiUsdc",
        "label": "__gap",
        "offset": 0,
        "slot": "102",
        "type": "t_array(t_uint256)49_storage"
      },
      {
        "astId": 764,
        "contract": "contracts/StrategyMendiUsdc.sol:StrategyMendiUsdc",
        "label": "__gap",
        "offset": 0,
        "slot": "151",
        "type": "t_array(t_uint256)50_storage"
      },
      {
        "astId": 1080,
        "contract": "contracts/StrategyMendiUsdc.sol:StrategyMendiUsdc",
        "label": "__gap",
        "offset": 0,
        "slot": "201",
        "type": "t_array(t_uint256)50_storage"
      },
      {
        "astId": 4233,
        "contract": "contracts/StrategyMendiUsdc.sol:StrategyMendiUsdc",
        "label": "portfolioManager",
        "offset": 0,
        "slot": "251",
        "type": "t_address"
      },
      {
        "astId": 4235,
        "contract": "contracts/StrategyMendiUsdc.sol:StrategyMendiUsdc",
        "label": "swapSlippageBP",
        "offset": 0,
        "slot": "252",
        "type": "t_uint256"
      },
      {
        "astId": 4237,
        "contract": "contracts/StrategyMendiUsdc.sol:StrategyMendiUsdc",
        "label": "navSlippageBP",
        "offset": 0,
        "slot": "253",
        "type": "t_uint256"
      },
      {
        "astId": 4239,
        "contract": "contracts/StrategyMendiUsdc.sol:StrategyMendiUsdc",
        "label": "stakeSlippageBP",
        "offset": 0,
        "slot": "254",
        "type": "t_uint256"
      },
      {
        "astId": 4242,
        "contract": "contracts/StrategyMendiUsdc.sol:StrategyMendiUsdc",
        "label": "roleManager",
        "offset": 0,
        "slot": "255",
        "type": "t_contract(IRoleManager)4668"
      },
      {
        "astId": 4244,
        "contract": "contracts/StrategyMendiUsdc.sol:StrategyMendiUsdc",
        "label": "name",
        "offset": 0,
        "slot": "256",
        "type": "t_string_storage"
      },
      {
        "astId": 4636,
        "contract": "contracts/StrategyMendiUsdc.sol:StrategyMendiUsdc",
        "label": "__gap",
        "offset": 0,
        "slot": "257",
        "type": "t_array(t_uint256)44_storage"
      },
      {
        "astId": 4998,
        "contract": "contracts/StrategyMendiUsdc.sol:StrategyMendiUsdc",
        "label": "usdc",
        "offset": 0,
        "slot": "301",
        "type": "t_contract(IERC20)2907"
      },
      {
        "astId": 5001,
        "contract": "contracts/StrategyMendiUsdc.sol:StrategyMendiUsdc",
        "label": "mendi",
        "offset": 0,
        "slot": "302",
        "type": "t_contract(IERC20)2907"
      },
      {
        "astId": 5004,
        "contract": "contracts/StrategyMendiUsdc.sol:StrategyMendiUsdc",
        "label": "cUsdc",
        "offset": 0,
        "slot": "303",
        "type": "t_contract(CToken)3162"
      },
      {
        "astId": 5007,
        "contract": "contracts/StrategyMendiUsdc.sol:StrategyMendiUsdc",
        "label": "unitroller",
        "offset": 0,
        "slot": "304",
        "type": "t_contract(Unitroller)3068"
      },
      {
        "astId": 5009,
        "contract": "contracts/StrategyMendiUsdc.sol:StrategyMendiUsdc",
        "label": "velocoreVault",
        "offset": 0,
        "slot": "305",
        "type": "t_address"
      },
      {
        "astId": 5011,
        "contract": "contracts/StrategyMendiUsdc.sol:StrategyMendiUsdc",
        "label": "poolMendiUsdc",
        "offset": 0,
        "slot": "306",
        "type": "t_address"
      }
    ],
    "types": {
      "t_address": {
        "encoding": "inplace",
        "label": "address",
        "numberOfBytes": "20"
      },
      "t_array(t_uint256)44_storage": {
        "base": "t_uint256",
        "encoding": "inplace",
        "label": "uint256[44]",
        "numberOfBytes": "1408"
      },
      "t_array(t_uint256)49_storage": {
        "base": "t_uint256",
        "encoding": "inplace",
        "label": "uint256[49]",
        "numberOfBytes": "1568"
      },
      "t_array(t_uint256)50_storage": {
        "base": "t_uint256",
        "encoding": "inplace",
        "label": "uint256[50]",
        "numberOfBytes": "1600"
      },
      "t_bool": {
        "encoding": "inplace",
        "label": "bool",
        "numberOfBytes": "1"
      },
      "t_bytes32": {
        "encoding": "inplace",
        "label": "bytes32",
        "numberOfBytes": "32"
      },
      "t_contract(CToken)3162": {
        "encoding": "inplace",
        "label": "contract CToken",
        "numberOfBytes": "20"
      },
      "t_contract(IERC20)2907": {
        "encoding": "inplace",
        "label": "contract IERC20",
        "numberOfBytes": "20"
      },
      "t_contract(IRoleManager)4668": {
        "encoding": "inplace",
        "label": "contract IRoleManager",
        "numberOfBytes": "20"
      },
      "t_contract(Unitroller)3068": {
        "encoding": "inplace",
        "label": "contract Unitroller",
        "numberOfBytes": "20"
      },
      "t_mapping(t_address,t_bool)": {
        "encoding": "mapping",
        "key": "t_address",
        "label": "mapping(address => bool)",
        "numberOfBytes": "32",
        "value": "t_bool"
      },
      "t_mapping(t_bytes32,t_struct(RoleData)23_storage)": {
        "encoding": "mapping",
        "key": "t_bytes32",
        "label": "mapping(bytes32 => struct AccessControlUpgradeable.RoleData)",
        "numberOfBytes": "32",
        "value": "t_struct(RoleData)23_storage"
      },
      "t_string_storage": {
        "encoding": "bytes",
        "label": "string",
        "numberOfBytes": "32"
      },
      "t_struct(RoleData)23_storage": {
        "encoding": "inplace",
        "label": "struct AccessControlUpgradeable.RoleData",
        "members": [
          {
            "astId": 20,
            "contract": "contracts/StrategyMendiUsdc.sol:StrategyMendiUsdc",
            "label": "members",
            "offset": 0,
            "slot": "0",
            "type": "t_mapping(t_address,t_bool)"
          },
          {
            "astId": 22,
            "contract": "contracts/StrategyMendiUsdc.sol:StrategyMendiUsdc",
            "label": "adminRole",
            "offset": 0,
            "slot": "1",
            "type": "t_bytes32"
          }
        ],
        "numberOfBytes": "64"
      },
      "t_uint256": {
        "encoding": "inplace",
        "label": "uint256",
        "numberOfBytes": "32"
      },
      "t_uint8": {
        "encoding": "inplace",
        "label": "uint8",
        "numberOfBytes": "1"
      }
    }
  }
}