{
  "address": "0xA88F8c02eBdE678de623C6BCFC886De82e18ad00",
  "abi": [
    {
      "inputs": [],
      "stateMutability": "nonpayable",
      "type": "constructor"
    },
    {
      "anonymous": false,
      "inputs": [
        {
          "indexed": false,
          "internalType": "uint256",
          "name": "min",
          "type": "uint256"
        },
        {
          "indexed": false,
          "internalType": "uint256",
          "name": "max",
          "type": "uint256"
        }
      ],
      "name": "Abroad",
      "type": "event"
    },
    {
      "anonymous": false,
      "inputs": [
        {
          "indexed": false,
          "internalType": "address",
          "name": "previousAdmin",
          "type": "address"
        },
        {
          "indexed": false,
          "internalType": "address",
          "name": "newAdmin",
          "type": "address"
        }
      ],
      "name": "AdminChanged",
      "type": "event"
    },
    {
      "anonymous": false,
      "inputs": [
        {
          "indexed": true,
          "internalType": "address",
          "name": "beacon",
          "type": "address"
        }
      ],
      "name": "BeaconUpgraded",
      "type": "event"
    },
    {
      "anonymous": false,
      "inputs": [
        {
          "indexed": false,
          "internalType": "uint256",
          "name": "fee",
          "type": "uint256"
        },
        {
          "indexed": false,
          "internalType": "uint256",
          "name": "feeDenominator",
          "type": "uint256"
        }
      ],
      "name": "BuyFeeUpdated",
      "type": "event"
    },
    {
      "anonymous": false,
      "inputs": [
        {
          "indexed": false,
          "internalType": "address",
          "name": "collector",
          "type": "address"
        }
      ],
      "name": "CollectorUpdated",
      "type": "event"
    },
    {
      "anonymous": false,
      "inputs": [
        {
          "indexed": false,
          "internalType": "string",
          "name": "label",
          "type": "string"
        },
        {
          "indexed": false,
          "internalType": "uint256",
          "name": "amount",
          "type": "uint256"
        },
        {
          "indexed": false,
          "internalType": "uint256",
          "name": "fee",
          "type": "uint256"
        },
        {
          "indexed": false,
          "internalType": "address",
          "name": "sender",
          "type": "address"
        },
        {
          "indexed": false,
          "internalType": "string",
          "name": "refferal",
          "type": "string"
        }
      ],
      "name": "EventExchange",
      "type": "event"
    },
    {
      "anonymous": false,
      "inputs": [
        {
          "indexed": false,
          "internalType": "uint8",
          "name": "version",
          "type": "uint8"
        }
      ],
      "name": "Initialized",
      "type": "event"
    },
    {
      "anonymous": false,
      "inputs": [
        {
          "indexed": false,
          "internalType": "uint256",
          "name": "nextPayoutTime",
          "type": "uint256"
        }
      ],
      "name": "NextPayoutTime",
      "type": "event"
    },
    {
      "anonymous": false,
      "inputs": [
        {
          "indexed": false,
          "internalType": "address",
          "name": "account",
          "type": "address"
        }
      ],
      "name": "Paused",
      "type": "event"
    },
    {
      "anonymous": false,
      "inputs": [
        {
          "indexed": false,
          "internalType": "uint256",
          "name": "tvlFee",
          "type": "uint256"
        },
        {
          "indexed": false,
          "internalType": "uint256",
          "name": "profitFee",
          "type": "uint256"
        },
        {
          "indexed": false,
          "internalType": "uint256",
          "name": "profit",
          "type": "uint256"
        },
        {
          "indexed": false,
          "internalType": "uint256",
          "name": "loss",
          "type": "uint256"
        }
      ],
      "name": "PayoutEvent",
      "type": "event"
    },
    {
      "anonymous": false,
      "inputs": [
        {
          "indexed": false,
          "internalType": "uint256",
          "name": "nextPayoutTime",
          "type": "uint256"
        },
        {
          "indexed": false,
          "internalType": "uint256",
          "name": "payoutPeriod",
          "type": "uint256"
        },
        {
          "indexed": false,
          "internalType": "uint256",
          "name": "payoutTimeRange",
          "type": "uint256"
        }
      ],
      "name": "PayoutTimesUpdated",
      "type": "event"
    },
    {
      "anonymous": false,
      "inputs": [
        {
          "indexed": false,
          "internalType": "uint256",
          "name": "fee",
          "type": "uint256"
        },
        {
          "indexed": false,
          "internalType": "uint256",
          "name": "feeDenominator",
          "type": "uint256"
        }
      ],
      "name": "ProfitFeeUpdated",
      "type": "event"
    },
    {
      "anonymous": false,
      "inputs": [
        {
          "indexed": false,
          "internalType": "uint256",
          "name": "fee",
          "type": "uint256"
        },
        {
          "indexed": false,
          "internalType": "uint256",
          "name": "feeDenominator",
          "type": "uint256"
        }
      ],
      "name": "RedeemFeeUpdated",
      "type": "event"
    },
    {
      "anonymous": false,
      "inputs": [
        {
          "indexed": true,
          "internalType": "bytes32",
          "name": "role",
          "type": "bytes32"
        },
        {
          "indexed": true,
          "internalType": "bytes32",
          "name": "previousAdminRole",
          "type": "bytes32"
        },
        {
          "indexed": true,
          "internalType": "bytes32",
          "name": "newAdminRole",
          "type": "bytes32"
        }
      ],
      "name": "RoleAdminChanged",
      "type": "event"
    },
    {
      "anonymous": false,
      "inputs": [
        {
          "indexed": true,
          "internalType": "bytes32",
          "name": "role",
          "type": "bytes32"
        },
        {
          "indexed": true,
          "internalType": "address",
          "name": "account",
          "type": "address"
        },
        {
          "indexed": true,
          "internalType": "address",
          "name": "sender",
          "type": "address"
        }
      ],
      "name": "RoleGranted",
      "type": "event"
    },
    {
      "anonymous": false,
      "inputs": [
        {
          "indexed": true,
          "internalType": "bytes32",
          "name": "role",
          "type": "bytes32"
        },
        {
          "indexed": true,
          "internalType": "address",
          "name": "account",
          "type": "address"
        },
        {
          "indexed": true,
          "internalType": "address",
          "name": "sender",
          "type": "address"
        }
      ],
      "name": "RoleRevoked",
      "type": "event"
    },
    {
      "anonymous": false,
      "inputs": [
        {
          "indexed": false,
          "internalType": "address",
          "name": "usdPlus",
          "type": "address"
        },
        {
          "indexed": false,
          "internalType": "address",
          "name": "rebase",
          "type": "address"
        }
      ],
      "name": "TokensUpdated",
      "type": "event"
    },
    {
      "anonymous": false,
      "inputs": [
        {
          "indexed": false,
          "internalType": "uint256",
          "name": "fee",
          "type": "uint256"
        },
        {
          "indexed": false,
          "internalType": "uint256",
          "name": "feeDenominator",
          "type": "uint256"
        }
      ],
      "name": "TvlFeeUpdated",
      "type": "event"
    },
    {
      "anonymous": false,
      "inputs": [
        {
          "indexed": false,
          "internalType": "address",
          "name": "account",
          "type": "address"
        }
      ],
      "name": "Unpaused",
      "type": "event"
    },
    {
      "anonymous": false,
      "inputs": [
        {
          "indexed": true,
          "internalType": "address",
          "name": "implementation",
          "type": "address"
        }
      ],
      "name": "Upgraded",
      "type": "event"
    },
    {
      "inputs": [],
      "name": "DEFAULT_ADMIN_ROLE",
      "outputs": [
        {
          "internalType": "bytes32",
          "name": "",
          "type": "bytes32"
        }
      ],
      "stateMutability": "view",
      "type": "function"
    },
    {
      "inputs": [],
      "name": "PAUSABLE_ROLE",
      "outputs": [
        {
          "internalType": "bytes32",
          "name": "",
          "type": "bytes32"
        }
      ],
      "stateMutability": "view",
      "type": "function"
    },
    {
      "inputs": [],
      "name": "UPGRADER_ROLE",
      "outputs": [
        {
          "internalType": "bytes32",
          "name": "",
          "type": "bytes32"
        }
      ],
      "stateMutability": "view",
      "type": "function"
    },
    {
      "inputs": [],
      "name": "abroadMax",
      "outputs": [
        {
          "internalType": "uint256",
          "name": "",
          "type": "uint256"
        }
      ],
      "stateMutability": "view",
      "type": "function"
    },
    {
      "inputs": [],
      "name": "abroadMin",
      "outputs": [
        {
          "internalType": "uint256",
          "name": "",
          "type": "uint256"
        }
      ],
      "stateMutability": "view",
      "type": "function"
    },
    {
      "inputs": [],
      "name": "balance",
      "outputs": [],
      "stateMutability": "nonpayable",
      "type": "function"
    },
    {
      "inputs": [
        {
          "internalType": "uint256",
          "name": "_amount",
          "type": "uint256"
        },
        {
          "internalType": "string",
          "name": "referral",
          "type": "string"
        }
      ],
      "name": "buy",
      "outputs": [
        {
          "internalType": "uint256",
          "name": "",
          "type": "uint256"
        }
      ],
      "stateMutability": "nonpayable",
      "type": "function"
    },
    {
      "inputs": [],
      "name": "buyFee",
      "outputs": [
        {
          "internalType": "uint256",
          "name": "",
          "type": "uint256"
        }
      ],
      "stateMutability": "view",
      "type": "function"
    },
    {
      "inputs": [],
      "name": "buyFeeDenominator",
      "outputs": [
        {
          "internalType": "uint256",
          "name": "",
          "type": "uint256"
        }
      ],
      "stateMutability": "view",
      "type": "function"
    },
    {
      "inputs": [],
      "name": "exchange",
      "outputs": [
        {
          "internalType": "contract IExchange",
          "name": "",
          "type": "address"
        }
      ],
      "stateMutability": "view",
      "type": "function"
    },
    {
      "inputs": [
        {
          "internalType": "bytes32",
          "name": "role",
          "type": "bytes32"
        }
      ],
      "name": "getRoleAdmin",
      "outputs": [
        {
          "internalType": "bytes32",
          "name": "",
          "type": "bytes32"
        }
      ],
      "stateMutability": "view",
      "type": "function"
    },
    {
      "inputs": [
        {
          "internalType": "bytes32",
          "name": "role",
          "type": "bytes32"
        },
        {
          "internalType": "address",
          "name": "account",
          "type": "address"
        }
      ],
      "name": "grantRole",
      "outputs": [],
      "stateMutability": "nonpayable",
      "type": "function"
    },
    {
      "inputs": [
        {
          "internalType": "bytes32",
          "name": "role",
          "type": "bytes32"
        },
        {
          "internalType": "address",
          "name": "account",
          "type": "address"
        }
      ],
      "name": "hasRole",
      "outputs": [
        {
          "internalType": "bool",
          "name": "",
          "type": "bool"
        }
      ],
      "stateMutability": "view",
      "type": "function"
    },
    {
      "inputs": [],
      "name": "initialize",
      "outputs": [],
      "stateMutability": "nonpayable",
      "type": "function"
    },
    {
      "inputs": [],
      "name": "lastBlockNumber",
      "outputs": [
        {
          "internalType": "uint256",
          "name": "",
          "type": "uint256"
        }
      ],
      "stateMutability": "view",
      "type": "function"
    },
    {
      "inputs": [],
      "name": "nextPayoutTime",
      "outputs": [
        {
          "internalType": "uint256",
          "name": "",
          "type": "uint256"
        }
      ],
      "stateMutability": "view",
      "type": "function"
    },
    {
      "inputs": [],
      "name": "pause",
      "outputs": [],
      "stateMutability": "nonpayable",
      "type": "function"
    },
    {
      "inputs": [],
      "name": "paused",
      "outputs": [
        {
          "internalType": "bool",
          "name": "",
          "type": "bool"
        }
      ],
      "stateMutability": "view",
      "type": "function"
    },
    {
      "inputs": [],
      "name": "payout",
      "outputs": [],
      "stateMutability": "nonpayable",
      "type": "function"
    },
    {
      "inputs": [],
      "name": "payoutPeriod",
      "outputs": [
        {
          "internalType": "uint256",
          "name": "",
          "type": "uint256"
        }
      ],
      "stateMutability": "view",
      "type": "function"
    },
    {
      "inputs": [],
      "name": "payoutTimeRange",
      "outputs": [
        {
          "internalType": "uint256",
          "name": "",
          "type": "uint256"
        }
      ],
      "stateMutability": "view",
      "type": "function"
    },
    {
      "inputs": [],
      "name": "profitFee",
      "outputs": [
        {
          "internalType": "uint256",
          "name": "",
          "type": "uint256"
        }
      ],
      "stateMutability": "view",
      "type": "function"
    },
    {
      "inputs": [],
      "name": "profitFeeDenominator",
      "outputs": [
        {
          "internalType": "uint256",
          "name": "",
          "type": "uint256"
        }
      ],
      "stateMutability": "view",
      "type": "function"
    },
    {
      "inputs": [],
      "name": "proxiableUUID",
      "outputs": [
        {
          "internalType": "bytes32",
          "name": "",
          "type": "bytes32"
        }
      ],
      "stateMutability": "view",
      "type": "function"
    },
    {
      "inputs": [],
      "name": "rebase",
      "outputs": [
        {
          "internalType": "contract IRebaseToken",
          "name": "",
          "type": "address"
        }
      ],
      "stateMutability": "view",
      "type": "function"
    },
    {
      "inputs": [
        {
          "internalType": "uint256",
          "name": "_amount",
          "type": "uint256"
        }
      ],
      "name": "redeem",
      "outputs": [
        {
          "internalType": "uint256",
          "name": "",
          "type": "uint256"
        }
      ],
      "stateMutability": "nonpayable",
      "type": "function"
    },
    {
      "inputs": [],
      "name": "redeemFee",
      "outputs": [
        {
          "internalType": "uint256",
          "name": "",
          "type": "uint256"
        }
      ],
      "stateMutability": "view",
      "type": "function"
    },
    {
      "inputs": [],
      "name": "redeemFeeDenominator",
      "outputs": [
        {
          "internalType": "uint256",
          "name": "",
          "type": "uint256"
        }
      ],
      "stateMutability": "view",
      "type": "function"
    },
    {
      "inputs": [
        {
          "internalType": "bytes32",
          "name": "role",
          "type": "bytes32"
        },
        {
          "internalType": "address",
          "name": "account",
          "type": "address"
        }
      ],
      "name": "renounceRole",
      "outputs": [],
      "stateMutability": "nonpayable",
      "type": "function"
    },
    {
      "inputs": [
        {
          "internalType": "bytes32",
          "name": "role",
          "type": "bytes32"
        },
        {
          "internalType": "address",
          "name": "account",
          "type": "address"
        }
      ],
      "name": "revokeRole",
      "outputs": [],
      "stateMutability": "nonpayable",
      "type": "function"
    },
    {
      "inputs": [
        {
          "internalType": "uint256",
          "name": "_min",
          "type": "uint256"
        },
        {
          "internalType": "uint256",
          "name": "_max",
          "type": "uint256"
        }
      ],
      "name": "setAbroad",
      "outputs": [],
      "stateMutability": "nonpayable",
      "type": "function"
    },
    {
      "inputs": [
        {
          "internalType": "uint256",
          "name": "_fee",
          "type": "uint256"
        },
        {
          "internalType": "uint256",
          "name": "_feeDenominator",
          "type": "uint256"
        }
      ],
      "name": "setBuyFee",
      "outputs": [],
      "stateMutability": "nonpayable",
      "type": "function"
    },
    {
      "inputs": [
        {
          "internalType": "address",
          "name": "_collector",
          "type": "address"
        }
      ],
      "name": "setCollector",
      "outputs": [],
      "stateMutability": "nonpayable",
      "type": "function"
    },
    {
      "inputs": [
        {
          "internalType": "address",
          "name": "_exchanger",
          "type": "address"
        }
      ],
      "name": "setExchanger",
      "outputs": [],
      "stateMutability": "nonpayable",
      "type": "function"
    },
    {
      "inputs": [
        {
          "internalType": "uint256",
          "name": "_nextPayoutTime",
          "type": "uint256"
        },
        {
          "internalType": "uint256",
          "name": "_payoutPeriod",
          "type": "uint256"
        },
        {
          "internalType": "uint256",
          "name": "_payoutTimeRange",
          "type": "uint256"
        }
      ],
      "name": "setPayoutTimes",
      "outputs": [],
      "stateMutability": "nonpayable",
      "type": "function"
    },
    {
      "inputs": [
        {
          "internalType": "uint256",
          "name": "_fee",
          "type": "uint256"
        },
        {
          "internalType": "uint256",
          "name": "_feeDenominator",
          "type": "uint256"
        }
      ],
      "name": "setProfitFee",
      "outputs": [],
      "stateMutability": "nonpayable",
      "type": "function"
    },
    {
      "inputs": [
        {
          "internalType": "uint256",
          "name": "_fee",
          "type": "uint256"
        },
        {
          "internalType": "uint256",
          "name": "_feeDenominator",
          "type": "uint256"
        }
      ],
      "name": "setRedeemFee",
      "outputs": [],
      "stateMutability": "nonpayable",
      "type": "function"
    },
    {
      "inputs": [
        {
          "internalType": "address",
          "name": "_strategy",
          "type": "address"
        }
      ],
      "name": "setStrategy",
      "outputs": [],
      "stateMutability": "nonpayable",
      "type": "function"
    },
    {
      "inputs": [
        {
          "internalType": "address",
          "name": "_usdPlus",
          "type": "address"
        },
        {
          "internalType": "address",
          "name": "_rebase",
          "type": "address"
        }
      ],
      "name": "setTokens",
      "outputs": [],
      "stateMutability": "nonpayable",
      "type": "function"
    },
    {
      "inputs": [
        {
          "internalType": "uint256",
          "name": "_fee",
          "type": "uint256"
        },
        {
          "internalType": "uint256",
          "name": "_feeDenominator",
          "type": "uint256"
        }
      ],
      "name": "setTvlFee",
      "outputs": [],
      "stateMutability": "nonpayable",
      "type": "function"
    },
    {
      "inputs": [],
      "name": "strategy",
      "outputs": [
        {
          "internalType": "contract IHedgeStrategy",
          "name": "",
          "type": "address"
        }
      ],
      "stateMutability": "view",
      "type": "function"
    },
    {
      "inputs": [
        {
          "internalType": "bytes4",
          "name": "interfaceId",
          "type": "bytes4"
        }
      ],
      "name": "supportsInterface",
      "outputs": [
        {
          "internalType": "bool",
          "name": "",
          "type": "bool"
        }
      ],
      "stateMutability": "view",
      "type": "function"
    },
    {
      "inputs": [],
      "name": "tvlFee",
      "outputs": [
        {
          "internalType": "uint256",
          "name": "",
          "type": "uint256"
        }
      ],
      "stateMutability": "view",
      "type": "function"
    },
    {
      "inputs": [],
      "name": "tvlFeeDenominator",
      "outputs": [
        {
          "internalType": "uint256",
          "name": "",
          "type": "uint256"
        }
      ],
      "stateMutability": "view",
      "type": "function"
    },
    {
      "inputs": [],
      "name": "unpause",
      "outputs": [],
      "stateMutability": "nonpayable",
      "type": "function"
    },
    {
      "inputs": [
        {
          "internalType": "address",
          "name": "newImplementation",
          "type": "address"
        }
      ],
      "name": "upgradeTo",
      "outputs": [],
      "stateMutability": "nonpayable",
      "type": "function"
    },
    {
      "inputs": [
        {
          "internalType": "address",
          "name": "newImplementation",
          "type": "address"
        },
        {
          "internalType": "bytes",
          "name": "data",
          "type": "bytes"
        }
      ],
      "name": "upgradeToAndCall",
      "outputs": [],
      "stateMutability": "payable",
      "type": "function"
    },
    {
      "inputs": [],
      "name": "usdPlus",
      "outputs": [
        {
          "internalType": "contract IUsdPlusToken",
          "name": "",
          "type": "address"
        }
      ],
      "stateMutability": "view",
      "type": "function"
    },
    {
      "inputs": [],
      "name": "usdc",
      "outputs": [
        {
          "internalType": "contract IERC20",
          "name": "",
          "type": "address"
        }
      ],
      "stateMutability": "view",
      "type": "function"
    }
  ],
  "numDeployments": 1,
  "solcInputHash": "e5397637905a2c0c20589737f6522a62",
  "bytecode": "0x60a06040523060601b6080523480156200001857600080fd5b5060006200002760016200008e565b9050801562000040576000805461ff0019166101001790555b801562000087576000805461ff0019169055604051600181527f7f26b83ff96e1f2b6a682f133852f6798a09c465da95921460cefb38474024989060200160405180910390a15b50620001af565b60008054610100900460ff161562000127578160ff166001148015620000c75750620000c530620001a060201b620020251760201c565b155b6200011f5760405162461bcd60e51b815260206004820152602e6024820152600080516020620039fa83398151915260448201526d191e481a5b9a5d1a585b1a5e995960921b60648201526084015b60405180910390fd5b506000919050565b60005460ff808416911610620001865760405162461bcd60e51b815260206004820152602e6024820152600080516020620039fa83398151915260448201526d191e481a5b9a5d1a585b1a5e995960921b606482015260840162000116565b506000805460ff191660ff92909216919091179055600190565b6001600160a01b03163b151590565b60805160601c613810620001ea600039600081816109be015281816109fe01528181610b0501528181610b450152610bd401526138106000f3fe6080604052600436106102ae5760003560e01c80639cca16d811610175578063ce1aa76b116100dc578063db006a7511610095578063f72c0d8b1161006f578063f72c0d8b146107d0578063f90766a614610804578063fb0ecfa41461081b578063fb5b82d01461083b57600080fd5b8063db006a7514610770578063ea96f8ff14610790578063f3869e8d146107b057600080fd5b8063ce1aa76b146106ca578063cecbbc07146106e1578063d2f7265a146106f8578063d547741f14610719578063d7d8b7a714610739578063da909b091461075057600080fd5b8063b69ef8a81161012e578063b69ef8a814610627578063b7dc3b181461063c578063bc56bebf1461065c578063bc890b7e1461067c578063c12e90e914610693578063cbc7854e146106aa57600080fd5b80639cca16d814610579578063a217fddf14610599578063a8c62e76146105ae578063af14052c146105cf578063b200deda146105f0578063b262bc981461060757600080fd5b80634f1ef286116102195780636d8ebaa8116101d25780636d8ebaa8146104ea5780637c5261d8146105015780638129fc1c146105185780638456cb591461052d57806391d1485414610542578063965fa21e1461056257600080fd5b80634f1ef2861461045d578063514e460a1461047057806352d1902d146104915780635c975abb146104a657806362f09895146104be57806363bd1d4a146104d557600080fd5b806333a100ca1161026b57806333a100ca1461039857806336568abe146103b85780633659cfe6146103d85780633e413bee146103f85780633f4ba83a14610431578063470624021461044657600080fd5b806301ffc9a7146102b35780630ffd778e146102e8578063248a9ca3146103185780632552317c146103485780632b78fe781461035f5780632f2ff15d14610376575b600080fd5b3480156102bf57600080fd5b506102d36102ce3660046131f3565b61085b565b60405190151581526020015b60405180910390f35b3480156102f457600080fd5b5061030a6000805160206137bb83398151915281565b6040519081526020016102df565b34801561032457600080fd5b5061030a61033336600461319e565b60009081526065602052604090206001015490565b34801561035457600080fd5b5061030a61013e5481565b34801561036b57600080fd5b5061030a61013f5481565b34801561038257600080fd5b506103966103913660046131d0565b610892565b005b3480156103a457600080fd5b506103966103b336600461306c565b6108bc565b3480156103c457600080fd5b506103966103d33660046131d0565b610935565b3480156103e457600080fd5b506103966103f336600461306c565b6109b3565b34801561040457600080fd5b5061013054610419906001600160a01b031681565b6040516001600160a01b0390911681526020016102df565b34801561043d57600080fd5b50610396610a93565b34801561045257600080fd5b5061030a6101335481565b61039661046b3660046130ba565b610afa565b34801561047c57600080fd5b5061012f54610419906001600160a01b031681565b34801561049d57600080fd5b5061030a610bc7565b3480156104b257600080fd5b5060fb5460ff166102d3565b3480156104ca57600080fd5b5061030a6101345481565b3480156104e157600080fd5b50610396610c7a565b3480156104f657600080fd5b5061030a61013b5481565b34801561050d57600080fd5b5061030a6101405481565b34801561052457600080fd5b50610396610ca5565b34801561053957600080fd5b50610396610dd6565b34801561054e57600080fd5b506102d361055d3660046131d0565b610e3b565b34801561056e57600080fd5b5061030a6101355481565b34801561058557600080fd5b50610396610594366004613299565b610e66565b3480156105a557600080fd5b5061030a600081565b3480156105ba57600080fd5b5061012e54610419906001600160a01b031681565b3480156105db57600080fd5b5061013154610419906001600160a01b031681565b3480156105fc57600080fd5b5061030a6101375481565b34801561061357600080fd5b50610396610622366004613299565b610ed7565b34801561063357600080fd5b50610396610f66565b34801561064857600080fd5b5061030a61065736600461321d565b611109565b34801561066857600080fd5b50610396610677366004613299565b6115d7565b34801561068857600080fd5b5061030a6101385481565b34801561069f57600080fd5b5061030a6101365481565b3480156106b657600080fd5b506103966106c5366004613087565b61165d565b3480156106d657600080fd5b5061030a61013c5481565b3480156106ed57600080fd5b5061030a61013d5481565b34801561070457600080fd5b5061012d54610419906001600160a01b031681565b34801561072557600080fd5b506103966107343660046131d0565b611739565b34801561074557600080fd5b5061030a61013a5481565b34801561075c57600080fd5b5061039661076b36600461306c565b61175e565b34801561077c57600080fd5b5061030a61078b36600461319e565b6117ce565b34801561079c57600080fd5b506103966107ab366004613299565b611cf0565b3480156107bc57600080fd5b506103966107cb3660046132bb565b611d7f565b3480156107dc57600080fd5b5061030a7f189ab7a9244df0848122154315af71fe140f3db0fe014031783b0946b8c9d2e381565b34801561081057600080fd5b5061030a6101395481565b34801561082757600080fd5b50610396610836366004613299565b611f03565b34801561084757600080fd5b5061039661085636600461306c565b611f89565b60006001600160e01b03198216637965db0b60e01b148061088c57506301ffc9a760e01b6001600160e01b03198316145b92915050565b6000828152606560205260409020600101546108ad81612034565b6108b7838361203e565b505050565b6108c7600033610e3b565b6108ec5760405162461bcd60e51b81526004016108e390613567565b60405180910390fd5b6001600160a01b0381166109125760405162461bcd60e51b81526004016108e390613595565b61012e80546001600160a01b0319166001600160a01b0392909216919091179055565b6001600160a01b03811633146109a55760405162461bcd60e51b815260206004820152602f60248201527f416363657373436f6e74726f6c3a2063616e206f6e6c792072656e6f756e636560448201526e103937b632b9903337b91039b2b63360891b60648201526084016108e3565b6109af82826120c4565b5050565b306001600160a01b037f00000000000000000000000000000000000000000000000000000000000000001614156109fc5760405162461bcd60e51b81526004016108e3906133ab565b7f00000000000000000000000000000000000000000000000000000000000000006001600160a01b0316610a45600080516020613774833981519152546001600160a01b031690565b6001600160a01b031614610a6b5760405162461bcd60e51b81526004016108e3906133f7565b610a748161212b565b60408051600080825260208201909252610a9091839190612155565b50565b610aab6000805160206137bb83398151915233610e3b565b610af05760405162461bcd60e51b81526020600482015260166024820152755265737472696374656420746f205061757361626c6560501b60448201526064016108e3565b610af86122cf565b565b306001600160a01b037f0000000000000000000000000000000000000000000000000000000000000000161415610b435760405162461bcd60e51b81526004016108e3906133ab565b7f00000000000000000000000000000000000000000000000000000000000000006001600160a01b0316610b8c600080516020613774833981519152546001600160a01b031690565b6001600160a01b031614610bb25760405162461bcd60e51b81526004016108e3906133f7565b610bbb8261212b565b6109af82826001612155565b6000306001600160a01b037f00000000000000000000000000000000000000000000000000000000000000001614610c675760405162461bcd60e51b815260206004820152603860248201527f555550535570677261646561626c653a206d757374206e6f742062652063616c60448201527f6c6564207468726f7567682064656c656761746563616c6c000000000000000060648201526084016108e3565b5060008051602061377483398151915290565b60fb5460ff1615610c9d5760405162461bcd60e51b81526004016108e390613443565b610af8612362565b6000610cb16001612982565b90508015610cc9576000805461ff0019166101001790555b610cd1612a0a565b610cd9612a31565b610ce1612a0a565b610cec60003361203e565b610d167f189ab7a9244df0848122154315af71fe140f3db0fe014031783b0946b8c9d2e33361203e565b610d2e6000805160206137bb8339815191523361203e565b6028610133819055620186a0610134819055610135919091556101368190556103e8610137556101388190556127106101395561013a55636195978061013b556201518061013c5561038461013d55620f43d061013f55620f45f6610140558015610a90576000805461ff0019169055604051600181527f7f26b83ff96e1f2b6a682f133852f6798a09c465da95921460cefb3847402498906020015b60405180910390a150565b610dee6000805160206137bb83398151915233610e3b565b610e335760405162461bcd60e51b81526020600482015260166024820152755265737472696374656420746f205061757361626c6560501b60448201526064016108e3565b610af8612a60565b60009182526065602090815260408084206001600160a01b0393909316845291905290205460ff1690565b610e71600033610e3b565b610e8d5760405162461bcd60e51b81526004016108e390613567565b61013f82905561014081905560408051838152602081018390527f164d29c07aa1410447214bda4ceeae682b23796531b6b4d1d674f72953aa7f6591015b60405180910390a15050565b610ee2600033610e3b565b610efe5760405162461bcd60e51b81526004016108e390613567565b80610f1b5760405162461bcd60e51b81526004016108e390613647565b61013982905561013a81905561013554610136546040517f380b562b665401553181201ec2005b59fbf2667bc4140e4f80fe613f90b33bcc92610ecb92908252602082015260400190565b6000610ff961012e60009054906101000a90046001600160a01b03166001600160a01b031663a3673b386040518163ffffffff1660e01b815260040160206040518083038186803b158015610fba57600080fd5b505afa158015610fce573d6000803e3d6000fd5b505050506040513d601f19601f82011682018060405250810190610ff291906131b7565b600f612ab8565b905061012e60009054906101000a90046001600160a01b03166001600160a01b031663b69ef8a86040518163ffffffff1660e01b8152600401600060405180830381600087803b15801561104c57600080fd5b505af1158015611060573d6000803e3d6000fd5b505050508061012e60009054906101000a90046001600160a01b03166001600160a01b031663a3673b386040518163ffffffff1660e01b815260040160206040518083038186803b1580156110b457600080fd5b505afa1580156110c8573d6000803e3d6000fd5b505050506040513d601f19601f820116820180604052508101906110ec91906131b7565b11610a905760405162461bcd60e51b81526004016108e390613617565b600061111760fb5460ff1690565b156111345760405162461bcd60e51b81526004016108e390613443565b4361013e541061117b5760405162461bcd60e51b81526020600482015260126024820152714f6e6c79206f6e636520696e20626c6f636b60701b60448201526064016108e3565b4361013e5561012f546040516370a0823160e01b81523360048201526000916001600160a01b0316906370a082319060240160206040518083038186803b1580156111c557600080fd5b505afa1580156111d9573d6000803e3d6000fd5b505050506040513d601f19601f820116820180604052508101906111fd91906131b7565b90508481101561124f5760405162461bcd60e51b815260206004820152601860248201527f4e6f7420656e6f75676820746f6b656e7320746f20627579000000000000000060448201526064016108e3565b60006112ed8661012e60009054906101000a90046001600160a01b03166001600160a01b031663a3673b386040518163ffffffff1660e01b815260040160206040518083038186803b1580156112a457600080fd5b505afa1580156112b8573d6000803e3d6000fd5b505050506040513d601f19601f820116820180604052508101906112dc91906131b7565b6112e6919061367e565b6004612ab8565b61012f5461012e546040516323b872dd60e01b81523360048201526001600160a01b039182166024820152604481018a905292935016906323b872dd90606401602060405180830381600087803b15801561134757600080fd5b505af115801561135b573d6000803e3d6000fd5b505050506040513d601f19601f8201168201806040525081019061137f919061317c565b5061012e5460405163534a7e1d60e11b8152600481018890526001600160a01b039091169063a694fc3a90602401600060405180830381600087803b1580156113c757600080fd5b505af11580156113db573d6000803e3d6000fd5b505050508061012e60009054906101000a90046001600160a01b03166001600160a01b031663a3673b386040518163ffffffff1660e01b815260040160206040518083038186803b15801561142f57600080fd5b505afa158015611443573d6000803e3d6000fd5b505050506040513d601f19601f8201168201806040525081019061146791906131b7565b116114845760405162461bcd60e51b81526004016108e390613617565b600061013454610133548861149991906136b8565b6114a39190613696565b905060006114b182896136d7565b610131546040516340c10f1960e01b8152336004820152602481018390529192506001600160a01b0316906340c10f1990604401600060405180830381600087803b1580156114ff57600080fd5b505af1158015611513573d6000803e3d6000fd5b50505050600082111561158b5761013154610132546040516340c10f1960e01b81526001600160a01b039182166004820152602481018590529116906340c10f1990604401600060405180830381600087803b15801561157257600080fd5b505af1158015611586573d6000803e3d6000fd5b505050505b7f5215f03b099407f64e52d76ef2416a46b32915d572e87db5d40282538ed364848183338a8a6040516115c295949392919061346d565b60405180910390a193505050505b9392505050565b6115e2600033610e3b565b6115fe5760405162461bcd60e51b81526004016108e390613567565b8061161b5760405162461bcd60e51b81526004016108e390613647565b61013582905561013681905560408051838152602081018390527f9fb7dbd1f2c1bd33dd68f78a38f699ff1ca487d7a7211ecc7df31d919f52043d9101610ecb565b611668600033610e3b565b6116845760405162461bcd60e51b81526004016108e390613567565b6001600160a01b0382166116aa5760405162461bcd60e51b81526004016108e390613595565b6001600160a01b0381166116d05760405162461bcd60e51b81526004016108e390613595565b61012f80546001600160a01b038481166001600160a01b0319928316811790935561013180549185169190921681179091556040805192835260208301919091527fdcc6331013de89f8c595d5328f0a724194f113cb6f8f2a707b3dff6de13f0d179101610ecb565b60008281526065602052604090206001015461175481612034565b6108b783836120c4565b611769600033610e3b565b6117855760405162461bcd60e51b81526004016108e390613567565b6001600160a01b0381166117ab5760405162461bcd60e51b81526004016108e390613595565b61012d80546001600160a01b0319166001600160a01b0392909216919091179055565b60006117dc60fb5460ff1690565b156117f95760405162461bcd60e51b81526004016108e390613443565b4361013e54106118405760405162461bcd60e51b81526020600482015260126024820152714f6e6c79206f6e636520696e20626c6f636b60701b60448201526064016108e3565b4361013e5561013654610135546000919061185b90856136b8565b6118659190613696565b9050600061187382856136d7565b9050600061190c8261012e60009054906101000a90046001600160a01b03166001600160a01b031663a3673b386040518163ffffffff1660e01b815260040160206040518083038186803b1580156118ca57600080fd5b505afa1580156118de573d6000803e3d6000fd5b505050506040513d601f19601f8201168201806040525081019061190291906131b7565b6112e691906136d7565b61012e546040516341c0f0c160e11b8152600481018590523060248201529192506000916001600160a01b0390911690638381e18290604401602060405180830381600087803b15801561195f57600080fd5b505af1158015611973573d6000803e3d6000fd5b505050506040513d601f19601f8201168201806040525081019061199791906131b7565b90508161012e60009054906101000a90046001600160a01b03166001600160a01b031663a3673b386040518163ffffffff1660e01b815260040160206040518083038186803b1580156119e957600080fd5b505afa1580156119fd573d6000803e3d6000fd5b505050506040513d601f19601f82011682018060405250810190611a2191906131b7565b11611a3e5760405162461bcd60e51b81526004016108e390613617565b61013154604051632770a7eb60e21b8152336004820152602481018890526001600160a01b0390911690639dc29fac90604401600060405180830381600087803b158015611a8b57600080fd5b505af1158015611a9f573d6000803e3d6000fd5b505050506000841115611b175761013154610132546040516340c10f1960e01b81526001600160a01b039182166004820152602481018790529116906340c10f1990604401600060405180830381600087803b158015611afe57600080fd5b505af1158015611b12573d6000803e3d6000fd5b505050505b61012f546040516370a0823160e01b815230600482015282916001600160a01b0316906370a082319060240160206040518083038186803b158015611b5b57600080fd5b505afa158015611b6f573d6000803e3d6000fd5b505050506040513d601f19601f82011682018060405250810190611b9391906131b7565b1015611bf05760405162461bcd60e51b815260206004820152602660248201527f4e6f7420656e6f75676820666f72207472616e7366657220756e7374616b6564604482015265105b5bdd5b9d60d21b60648201526084016108e3565b61012f5460405163a9059cbb60e01b8152336004820152602481018590526001600160a01b039091169063a9059cbb90604401602060405180830381600087803b158015611c3d57600080fd5b505af1158015611c51573d6000803e3d6000fd5b505050506040513d601f19601f82011682018060405250810190611c75919061317c565b506040805160a08082526006908201526572656465656d60d01b60c08201526020810185905290810185905233606082015260e0608082018190526000908201527f5215f03b099407f64e52d76ef2416a46b32915d572e87db5d40282538ed36484906101000160405180910390a15090925050505b919050565b611cfb600033610e3b565b611d175760405162461bcd60e51b81526004016108e390613567565b80611d345760405162461bcd60e51b81526004016108e390613647565b61013782905561013881905561013554610136546040517fc68fc690a0e94f03420df48c2c267dae330c1ff6a39f32a1f90d8baf9e67451e92610ecb92908252602082015260400190565b611d8a600033610e3b565b611da65760405162461bcd60e51b81526004016108e390613567565b82611df35760405162461bcd60e51b815260206004820181905260248201527f5a65726f205f6e6578745061796f757454696d65206e6f7420616c6c6f77656460448201526064016108e3565b81611e405760405162461bcd60e51b815260206004820152601e60248201527f5a65726f205f7061796f7574506572696f64206e6f7420616c6c6f776564000060448201526064016108e3565b808311611eab5760405162461bcd60e51b815260206004820152603360248201527f5f6e6578745061796f757454696d652073686f7564206265206d6f7265207468604482015272616e205f7061796f757454696d6552616e676560681b60648201526084016108e3565b61013b83905561013c82905561013d81905560408051848152602081018490529081018290527f182705f356ea3bbbd12c7b4761586a554d391a7703345f81166bbe3f946444999060600160405180910390a1505050565b611f0e600033610e3b565b611f2a5760405162461bcd60e51b81526004016108e390613567565b80611f475760405162461bcd60e51b81526004016108e390613647565b61013382905561013481905560408051838152602081018390527f28e297c7c282931a994191b735b01eaf17558295f761512a7047f4e1b8dc3b0b9101610ecb565b611f94600033610e3b565b611fb05760405162461bcd60e51b81526004016108e390613567565b6001600160a01b038116611fd65760405162461bcd60e51b81526004016108e390613595565b61013280546001600160a01b0319166001600160a01b0383169081179091556040519081527f14308adaec1375a4db1882d93c05b25b2a86d3d0dd683f8f94a3a55190d1d35b90602001610dcb565b6001600160a01b03163b151590565b610a908133612adb565b6120488282610e3b565b6109af5760008281526065602090815260408083206001600160a01b03851684529091529020805460ff191660011790556120803390565b6001600160a01b0316816001600160a01b0316837f2f8788117e7eff1d82e926ec794901d17c78024a50270940304540a733656f0d60405160405180910390a45050565b6120ce8282610e3b565b156109af5760008281526065602090815260408083206001600160a01b0385168085529252808320805460ff1916905551339285917ff6391f5c32d9c69d2a47ea670b442974b53935d1edc7fd64eb21e047a839171b9190a45050565b7f189ab7a9244df0848122154315af71fe140f3db0fe014031783b0946b8c9d2e36109af81612034565b7f4910fdfa16fed3260ed0e7147f7cc6da11a60208b5b9406d12a635614ffd91435460ff1615612188576108b783612b3f565b826001600160a01b03166352d1902d6040518163ffffffff1660e01b815260040160206040518083038186803b1580156121c157600080fd5b505afa9250505080156121f1575060408051601f3d908101601f191682019092526121ee918101906131b7565b60015b6122545760405162461bcd60e51b815260206004820152602e60248201527f45524331393637557067726164653a206e657720696d706c656d656e7461746960448201526d6f6e206973206e6f74205555505360901b60648201526084016108e3565b60008051602061377483398151915281146122c35760405162461bcd60e51b815260206004820152602960248201527f45524331393637557067726164653a20756e737570706f727465642070726f786044820152681a58589b195555525160ba1b60648201526084016108e3565b506108b7838383612bdb565b60fb5460ff166123185760405162461bcd60e51b815260206004820152601460248201527314185d5cd8589b194e881b9bdd081c185d5cd95960621b60448201526064016108e3565b60fb805460ff191690557f5db9ee0a495bf2e6ff9c91a7834c1ba4fdd244a5e8aa4e537bd38aeae4b073aa335b6040516001600160a01b03909116815260200160405180910390a1565b61013b5461013d54612374904261367e565b101561237c57565b61012e54604051633bd73ee360e21b81526001600160a01b03909116600482018190529063ef5cfb8c90602401602060405180830381600087803b1580156123c357600080fd5b505af11580156123d7573d6000803e3d6000fd5b505050506040513d601f19601f820116820180604052508101906123fb91906131b7565b50612404610f66565b61013154604080516318160ddd60e01b815290516000926001600160a01b0316916318160ddd916004808301926020929190829003018186803b15801561244a57600080fd5b505afa15801561245e573d6000803e3d6000fd5b505050506040513d601f19601f8201168201806040525081019061248291906131b7565b9050600061012e60009054906101000a90046001600160a01b03166001600160a01b031663a3673b386040518163ffffffff1660e01b815260040160206040518083038186803b1580156124d557600080fd5b505afa1580156124e9573d6000803e3d6000fd5b505050506040513d601f19601f8201168201806040525081019061250d91906131b7565b90506000806000806000868611156125ac5761252987876136d7565b91506101385461016d61013754846103e861254491906136b8565b61254e91906136b8565b6125589190613696565b6125629190613696565b935061256e84836136d7565b915061013a54610139548361258391906136b8565b61258d9190613696565b925061259983836136d7565b91506125a5838561367e565b94506125b9565b6125b686886136d7565b90505b6125c385876136d7565b955060006125d087612c06565b9050600061266561013160009054906101000a90046001600160a01b03166001600160a01b031663b1bf962d6040518163ffffffff1660e01b815260040160206040518083038186803b15801561262657600080fd5b505afa15801561263a573d6000803e3d6000fd5b505050506040513d601f19601f8201168201806040525081019061265e91906131b7565b8390612c45565b9050600061013160009054906101000a90046001600160a01b03166001600160a01b031663bbf44f336040518163ffffffff1660e01b815260040160206040518083038186803b1580156126b857600080fd5b505afa1580156126cc573d6000803e3d6000fd5b505050506040513d601f19601f820116820180604052508101906126f091906131b7565b905060008161270284620f42406136b8565b61270c9190613696565b905061013f5481116127535760405162461bcd60e51b815260206004820152601060248201526f2232b63a309030b13937b0b21d36b4b760811b60448201526064016108e3565b8061014054116127985760405162461bcd60e51b815260206004820152601060248201526f088cad8e8c240c2c4e4dec2c874dac2f60831b60448201526064016108e3565b6101315460405163b2be259160e01b8152600481018590526001600160a01b039091169063b2be259190602401600060405180830381600087803b1580156127df57600080fd5b505af11580156127f3573d6000803e3d6000fd5b5050505060008911156128bd57610132546001600160a01b03166128525760405162461bcd60e51b8152602060048201526016602482015275436f6c6c6563746f722061646472657373207a65726f60501b60448201526064016108e3565b61013154610132546040516340c10f1960e01b81526001600160a01b039182166004820152602481018c90529116906340c10f1990604401600060405180830381600087803b1580156128a457600080fd5b505af11580156128b8573d6000803e3d6000fd5b505050505b6040805189815260208101899052908101879052606081018690527f106a59d3805ed5b61e26818a11c688e650c883df2ca2d625f9d9ac6fae9d91799060800160405180910390a15b61013d5461013b5461291891906136d7565b42106129395761013c5461013b54612930919061367e565b61013b55612906565b7f6654b7187a0560c4c326844142156c2adf52738d0a615487e0e2a5cd9823c2c461013b5460405161296d91815260200190565b60405180910390a15050505050505050505050565b60008054610100900460ff16156129c9578160ff1660011480156129a55750303b155b6129c15760405162461bcd60e51b81526004016108e3906134d6565b506000919050565b60005460ff8084169116106129f05760405162461bcd60e51b81526004016108e3906134d6565b506000805460ff191660ff92909216919091179055600190565b600054610100900460ff16610af85760405162461bcd60e51b81526004016108e3906135cc565b600054610100900460ff16612a585760405162461bcd60e51b81526004016108e3906135cc565b610af8612d19565b60fb5460ff1615612a835760405162461bcd60e51b81526004016108e390613443565b60fb805460ff191660011790557f62e78cea01bee320cd4e420270b5ea74000d11b0c9f74754ebdbfc544b05a2586123453390565b6000612710612ac783826136d7565b612ad190856136b8565b6115d09190613696565b612ae58282610e3b565b6109af57612afd816001600160a01b03166014612d4c565b612b08836020612d4c565b604051602001612b19929190613303565b60408051601f198184030181529082905262461bcd60e51b82526108e391600401613378565b6001600160a01b0381163b612bac5760405162461bcd60e51b815260206004820152602d60248201527f455243313936373a206e657720696d706c656d656e746174696f6e206973206e60448201526c1bdd08184818dbdb9d1c9858dd609a1b60648201526084016108e3565b60008051602061377483398151915280546001600160a01b0319166001600160a01b0392909216919091179055565b612be483612ee8565b600082511180612bf15750805b156108b757612c008383612f28565b50505050565b600080612c17633b9aca00846136b8565b905082612c28633b9aca0083613696565b1461088c5760405162461bcd60e51b81526004016108e390613524565b600081612c945760405162461bcd60e51b815260206004820152601c60248201527f4572726f72732e4d4154485f4449564953494f4e5f42595f5a45524f0000000060448201526064016108e3565b6000612ca1600284613696565b90506b033b2e3c9fd0803ce8000000612cbc826000196136d7565b612cc69190613696565b841115612ce55760405162461bcd60e51b81526004016108e390613524565b8281612cfd6b033b2e3c9fd0803ce8000000876136b8565b612d07919061367e565b612d119190613696565b949350505050565b600054610100900460ff16612d405760405162461bcd60e51b81526004016108e3906135cc565b60fb805460ff19169055565b60606000612d5b8360026136b8565b612d6690600261367e565b67ffffffffffffffff811115612d7e57612d7e61375d565b6040519080825280601f01601f191660200182016040528015612da8576020820181803683370190505b509050600360fc1b81600081518110612dc357612dc3613747565b60200101906001600160f81b031916908160001a905350600f60fb1b81600181518110612df257612df2613747565b60200101906001600160f81b031916908160001a9053506000612e168460026136b8565b612e2190600161367e565b90505b6001811115612e99576f181899199a1a9b1b9c1cb0b131b232b360811b85600f1660108110612e5557612e55613747565b1a60f81b828281518110612e6b57612e6b613747565b60200101906001600160f81b031916908160001a90535060049490941c93612e928161371a565b9050612e24565b5083156115d05760405162461bcd60e51b815260206004820181905260248201527f537472696e67733a20686578206c656e67746820696e73756666696369656e7460448201526064016108e3565b612ef181612b3f565b6040516001600160a01b038216907fbc7cd75a20ee27fd9adebab32041f755214dbc6bffa90cc0225b39da2e5c2d3b90600090a250565b60606001600160a01b0383163b612f905760405162461bcd60e51b815260206004820152602660248201527f416464726573733a2064656c65676174652063616c6c20746f206e6f6e2d636f6044820152651b9d1c9858dd60d21b60648201526084016108e3565b600080846001600160a01b031684604051612fab91906132e7565b600060405180830381855af49150503d8060008114612fe6576040519150601f19603f3d011682016040523d82523d6000602084013e612feb565b606091505b509150915061301382826040518060600160405280602781526020016137946027913961301c565b95945050505050565b6060831561302b5750816115d0565b82511561303b5782518084602001fd5b8160405162461bcd60e51b81526004016108e39190613378565b80356001600160a01b0381168114611ceb57600080fd5b60006020828403121561307e57600080fd5b6115d082613055565b6000806040838503121561309a57600080fd5b6130a383613055565b91506130b160208401613055565b90509250929050565b600080604083850312156130cd57600080fd5b6130d683613055565b9150602083013567ffffffffffffffff808211156130f357600080fd5b818501915085601f83011261310757600080fd5b8135818111156131195761311961375d565b604051601f8201601f19908116603f011681019083821181831017156131415761314161375d565b8160405282815288602084870101111561315a57600080fd5b8260208601602083013760006020848301015280955050505050509250929050565b60006020828403121561318e57600080fd5b815180151581146115d057600080fd5b6000602082840312156131b057600080fd5b5035919050565b6000602082840312156131c957600080fd5b5051919050565b600080604083850312156131e357600080fd5b823591506130b160208401613055565b60006020828403121561320557600080fd5b81356001600160e01b0319811681146115d057600080fd5b60008060006040848603121561323257600080fd5b83359250602084013567ffffffffffffffff8082111561325157600080fd5b818601915086601f83011261326557600080fd5b81358181111561327457600080fd5b87602082850101111561328657600080fd5b6020830194508093505050509250925092565b600080604083850312156132ac57600080fd5b50508035926020909101359150565b6000806000606084860312156132d057600080fd5b505081359360208301359350604090920135919050565b600082516132f98184602087016136ee565b9190910192915050565b7f416363657373436f6e74726f6c3a206163636f756e742000000000000000000081526000835161333b8160178501602088016136ee565b7001034b99036b4b9b9b4b733903937b6329607d1b601791840191820152835161336c8160288401602088016136ee565b01602801949350505050565b60208152600082518060208401526133978160408501602087016136ee565b601f01601f19169190910160400192915050565b6020808252602c908201527f46756e6374696f6e206d7573742062652063616c6c6564207468726f7567682060408201526b19195b1959d85d1958d85b1b60a21b606082015260800190565b6020808252602c908201527f46756e6374696f6e206d7573742062652063616c6c6564207468726f7567682060408201526b6163746976652070726f787960a01b606082015260800190565b60208082526010908201526f14185d5cd8589b194e881c185d5cd95960821b604082015260600190565b60a08152600360a08201526262757960e81b60c082015285602082015284604082015260018060a01b038416606082015260e060808201528160e082015260006101008385828501376000838501820152601f909301601f191690910190910195945050505050565b6020808252602e908201527f496e697469616c697a61626c653a20636f6e747261637420697320616c72656160408201526d191e481a5b9a5d1a585b1a5e995960921b606082015260800190565b60208082526023908201527f4572726f72732e4d4154485f4d554c5449504c49434154494f4e5f4f564552466040820152624c4f5760e81b606082015260800190565b6020808252601490820152735265737472696374656420746f2061646d696e7360601b604082015260600190565b60208082526018908201527f5a65726f2061646472657373206e6f7420616c6c6f7765640000000000000000604082015260600190565b6020808252602b908201527f496e697469616c697a61626c653a20636f6e7472616374206973206e6f74206960408201526a6e697469616c697a696e6760a81b606082015260800190565b6020808252601690820152751b985d881b195cdcc81d1a185b88195e1c1958dd195960521b604082015260600190565b6020808252601c908201527f5a65726f2064656e6f6d696e61746f72206e6f7420616c6c6f77656400000000604082015260600190565b6000821982111561369157613691613731565b500190565b6000826136b357634e487b7160e01b600052601260045260246000fd5b500490565b60008160001904831182151516156136d2576136d2613731565b500290565b6000828210156136e9576136e9613731565b500390565b60005b838110156137095781810151838201526020016136f1565b83811115612c005750506000910152565b60008161372957613729613731565b506000190190565b634e487b7160e01b600052601160045260246000fd5b634e487b7160e01b600052603260045260246000fd5b634e487b7160e01b600052604160045260246000fdfe360894a13ba1a3210667c828492db98dca3e2076cc3735a920a3ca505d382bbc416464726573733a206c6f772d6c6576656c2064656c65676174652063616c6c206661696c656409b6fca8f5f3ab2900d9586d1d15872611c1bd42b268b973ad886d4f2646b560a26469706673582212207d958e4c47ec0cf01f9c2d3d3a11874c9e8ef61e826cf30a11cae987c58aac3864736f6c63430008060033496e697469616c697a61626c653a20636f6e747261637420697320616c726561",
  "devdoc": {
    "kind": "dev",
    "methods": {
      "constructor": {
        "custom:oz-upgrades-unsafe-allow": "constructor"
      },
      "getRoleAdmin(bytes32)": {
        "details": "Returns the admin role that controls `role`. See {grantRole} and {revokeRole}. To change a role's admin, use {_setRoleAdmin}."
      },
      "grantRole(bytes32,address)": {
        "details": "Grants `role` to `account`. If `account` had not been already granted `role`, emits a {RoleGranted} event. Requirements: - the caller must have ``role``'s admin role."
      },
      "hasRole(bytes32,address)": {
        "details": "Returns `true` if `account` has been granted `role`."
      },
      "paused()": {
        "details": "Returns true if the contract is paused, and false otherwise."
      },
      "proxiableUUID()": {
        "details": "Implementation of the ERC1822 {proxiableUUID} function. This returns the storage slot used by the implementation. It is used to validate that the this implementation remains valid after an upgrade. IMPORTANT: A proxy pointing at a proxiable contract should not be considered proxiable itself, because this risks bricking a proxy that upgrades to it, by delegating to itself until out of gas. Thus it is critical that this function revert if invoked through a proxy. This is guaranteed by the `notDelegated` modifier."
      },
      "renounceRole(bytes32,address)": {
        "details": "Revokes `role` from the calling account. Roles are often managed via {grantRole} and {revokeRole}: this function's purpose is to provide a mechanism for accounts to lose their privileges if they are compromised (such as when a trusted device is misplaced). If the calling account had been revoked `role`, emits a {RoleRevoked} event. Requirements: - the caller must be `account`."
      },
      "revokeRole(bytes32,address)": {
        "details": "Revokes `role` from `account`. If `account` had been granted `role`, emits a {RoleRevoked} event. Requirements: - the caller must have ``role``'s admin role."
      },
      "supportsInterface(bytes4)": {
        "details": "See {IERC165-supportsInterface}."
      },
      "upgradeTo(address)": {
        "details": "Upgrade the implementation of the proxy to `newImplementation`. Calls {_authorizeUpgrade}. Emits an {Upgraded} event."
      },
      "upgradeToAndCall(address,bytes)": {
        "details": "Upgrade the implementation of the proxy to `newImplementation`, and subsequently execute the function call encoded in `data`. Calls {_authorizeUpgrade}. Emits an {Upgraded} event."
      }
    },
    "version": 1
  },
  "userdoc": {
    "kind": "user",
    "methods": {},
    "version": 1
  },
  "storageLayout": {
    "storage": [
      {
        "astId": 808,
        "contract": "contracts/HedgeExchanger.sol:HedgeExchanger",
        "label": "_initialized",
        "offset": 0,
        "slot": "0",
        "type": "t_uint8"
      },
      {
        "astId": 811,
        "contract": "contracts/HedgeExchanger.sol:HedgeExchanger",
        "label": "_initializing",
        "offset": 1,
        "slot": "0",
        "type": "t_bool"
      },
      {
        "astId": 2188,
        "contract": "contracts/HedgeExchanger.sol:HedgeExchanger",
        "label": "__gap",
        "offset": 0,
        "slot": "1",
        "type": "t_array(t_uint256)50_storage"
      },
      {
        "astId": 2495,
        "contract": "contracts/HedgeExchanger.sol:HedgeExchanger",
        "label": "__gap",
        "offset": 0,
        "slot": "51",
        "type": "t_array(t_uint256)50_storage"
      },
      {
        "astId": 39,
        "contract": "contracts/HedgeExchanger.sol:HedgeExchanger",
        "label": "_roles",
        "offset": 0,
        "slot": "101",
        "type": "t_mapping(t_bytes32,t_struct(RoleData)34_storage)"
      },
      {
        "astId": 338,
        "contract": "contracts/HedgeExchanger.sol:HedgeExchanger",
        "label": "__gap",
        "offset": 0,
        "slot": "102",
        "type": "t_array(t_uint256)49_storage"
      },
      {
        "astId": 790,
        "contract": "contracts/HedgeExchanger.sol:HedgeExchanger",
        "label": "__gap",
        "offset": 0,
        "slot": "151",
        "type": "t_array(t_uint256)50_storage"
      },
      {
        "astId": 1078,
        "contract": "contracts/HedgeExchanger.sol:HedgeExchanger",
        "label": "__gap",
        "offset": 0,
        "slot": "201",
        "type": "t_array(t_uint256)50_storage"
      },
      {
        "astId": 1100,
        "contract": "contracts/HedgeExchanger.sol:HedgeExchanger",
        "label": "_paused",
        "offset": 0,
        "slot": "251",
        "type": "t_bool"
      },
      {
        "astId": 1189,
        "contract": "contracts/HedgeExchanger.sol:HedgeExchanger",
        "label": "__gap",
        "offset": 0,
        "slot": "252",
        "type": "t_array(t_uint256)49_storage"
      },
      {
        "astId": 5604,
        "contract": "contracts/HedgeExchanger.sol:HedgeExchanger",
        "label": "exchange",
        "offset": 0,
        "slot": "301",
        "type": "t_contract(IExchange)4907"
      },
      {
        "astId": 5607,
        "contract": "contracts/HedgeExchanger.sol:HedgeExchanger",
        "label": "strategy",
        "offset": 0,
        "slot": "302",
        "type": "t_contract(IHedgeStrategy)9535"
      },
      {
        "astId": 5610,
        "contract": "contracts/HedgeExchanger.sol:HedgeExchanger",
        "label": "usdPlus",
        "offset": 0,
        "slot": "303",
        "type": "t_contract(IUsdPlusToken)5065"
      },
      {
        "astId": 5613,
        "contract": "contracts/HedgeExchanger.sol:HedgeExchanger",
        "label": "usdc",
        "offset": 0,
        "slot": "304",
        "type": "t_contract(IERC20)2586"
      },
      {
        "astId": 5616,
        "contract": "contracts/HedgeExchanger.sol:HedgeExchanger",
        "label": "rebase",
        "offset": 0,
        "slot": "305",
        "type": "t_contract(IRebaseToken)9741"
      },
      {
        "astId": 5618,
        "contract": "contracts/HedgeExchanger.sol:HedgeExchanger",
        "label": "collector",
        "offset": 0,
        "slot": "306",
        "type": "t_address"
      },
      {
        "astId": 5620,
        "contract": "contracts/HedgeExchanger.sol:HedgeExchanger",
        "label": "buyFee",
        "offset": 0,
        "slot": "307",
        "type": "t_uint256"
      },
      {
        "astId": 5622,
        "contract": "contracts/HedgeExchanger.sol:HedgeExchanger",
        "label": "buyFeeDenominator",
        "offset": 0,
        "slot": "308",
        "type": "t_uint256"
      },
      {
        "astId": 5624,
        "contract": "contracts/HedgeExchanger.sol:HedgeExchanger",
        "label": "redeemFee",
        "offset": 0,
        "slot": "309",
        "type": "t_uint256"
      },
      {
        "astId": 5626,
        "contract": "contracts/HedgeExchanger.sol:HedgeExchanger",
        "label": "redeemFeeDenominator",
        "offset": 0,
        "slot": "310",
        "type": "t_uint256"
      },
      {
        "astId": 5628,
        "contract": "contracts/HedgeExchanger.sol:HedgeExchanger",
        "label": "tvlFee",
        "offset": 0,
        "slot": "311",
        "type": "t_uint256"
      },
      {
        "astId": 5630,
        "contract": "contracts/HedgeExchanger.sol:HedgeExchanger",
        "label": "tvlFeeDenominator",
        "offset": 0,
        "slot": "312",
        "type": "t_uint256"
      },
      {
        "astId": 5632,
        "contract": "contracts/HedgeExchanger.sol:HedgeExchanger",
        "label": "profitFee",
        "offset": 0,
        "slot": "313",
        "type": "t_uint256"
      },
      {
        "astId": 5634,
        "contract": "contracts/HedgeExchanger.sol:HedgeExchanger",
        "label": "profitFeeDenominator",
        "offset": 0,
        "slot": "314",
        "type": "t_uint256"
      },
      {
        "astId": 5636,
        "contract": "contracts/HedgeExchanger.sol:HedgeExchanger",
        "label": "nextPayoutTime",
        "offset": 0,
        "slot": "315",
        "type": "t_uint256"
      },
      {
        "astId": 5638,
        "contract": "contracts/HedgeExchanger.sol:HedgeExchanger",
        "label": "payoutPeriod",
        "offset": 0,
        "slot": "316",
        "type": "t_uint256"
      },
      {
        "astId": 5640,
        "contract": "contracts/HedgeExchanger.sol:HedgeExchanger",
        "label": "payoutTimeRange",
        "offset": 0,
        "slot": "317",
        "type": "t_uint256"
      },
      {
        "astId": 5642,
        "contract": "contracts/HedgeExchanger.sol:HedgeExchanger",
        "label": "lastBlockNumber",
        "offset": 0,
        "slot": "318",
        "type": "t_uint256"
      },
      {
        "astId": 5644,
        "contract": "contracts/HedgeExchanger.sol:HedgeExchanger",
        "label": "abroadMin",
        "offset": 0,
        "slot": "319",
        "type": "t_uint256"
      },
      {
        "astId": 5646,
        "contract": "contracts/HedgeExchanger.sol:HedgeExchanger",
        "label": "abroadMax",
        "offset": 0,
        "slot": "320",
        "type": "t_uint256"
      }
    ],
    "types": {
      "t_address": {
        "encoding": "inplace",
        "label": "address",
        "numberOfBytes": "20"
      },
      "t_array(t_uint256)49_storage": {
        "base": "t_uint256",
        "encoding": "inplace",
        "label": "uint256[49]",
        "numberOfBytes": "1568"
      },
      "t_array(t_uint256)50_storage": {
        "base": "t_uint256",
        "encoding": "inplace",
        "label": "uint256[50]",
        "numberOfBytes": "1600"
      },
      "t_bool": {
        "encoding": "inplace",
        "label": "bool",
        "numberOfBytes": "1"
      },
      "t_bytes32": {
        "encoding": "inplace",
        "label": "bytes32",
        "numberOfBytes": "32"
      },
      "t_contract(IERC20)2586": {
        "encoding": "inplace",
        "label": "contract IERC20",
        "numberOfBytes": "20"
      },
      "t_contract(IExchange)4907": {
        "encoding": "inplace",
        "label": "contract IExchange",
        "numberOfBytes": "20"
      },
      "t_contract(IHedgeStrategy)9535": {
        "encoding": "inplace",
        "label": "contract IHedgeStrategy",
        "numberOfBytes": "20"
      },
      "t_contract(IRebaseToken)9741": {
        "encoding": "inplace",
        "label": "contract IRebaseToken",
        "numberOfBytes": "20"
      },
      "t_contract(IUsdPlusToken)5065": {
        "encoding": "inplace",
        "label": "contract IUsdPlusToken",
        "numberOfBytes": "20"
      },
      "t_mapping(t_address,t_bool)": {
        "encoding": "mapping",
        "key": "t_address",
        "label": "mapping(address => bool)",
        "numberOfBytes": "32",
        "value": "t_bool"
      },
      "t_mapping(t_bytes32,t_struct(RoleData)34_storage)": {
        "encoding": "mapping",
        "key": "t_bytes32",
        "label": "mapping(bytes32 => struct AccessControlUpgradeable.RoleData)",
        "numberOfBytes": "32",
        "value": "t_struct(RoleData)34_storage"
      },
      "t_struct(RoleData)34_storage": {
        "encoding": "inplace",
        "label": "struct AccessControlUpgradeable.RoleData",
        "members": [
          {
            "astId": 31,
            "contract": "contracts/HedgeExchanger.sol:HedgeExchanger",
            "label": "members",
            "offset": 0,
            "slot": "0",
            "type": "t_mapping(t_address,t_bool)"
          },
          {
            "astId": 33,
            "contract": "contracts/HedgeExchanger.sol:HedgeExchanger",
            "label": "adminRole",
            "offset": 0,
            "slot": "1",
            "type": "t_bytes32"
          }
        ],
        "numberOfBytes": "64"
      },
      "t_uint256": {
        "encoding": "inplace",
        "label": "uint256",
        "numberOfBytes": "32"
      },
      "t_uint8": {
        "encoding": "inplace",
        "label": "uint8",
        "numberOfBytes": "1"
      }
    }
  }
}