{
  "address": "0xA348700745D249c3b49D2c2AcAC9A5AE8155F826",
  "abi": [
    {
      "inputs": [],
      "stateMutability": "nonpayable",
      "type": "constructor"
    },
    {
      "anonymous": false,
      "inputs": [
        {
          "indexed": false,
          "internalType": "address",
          "name": "previousAdmin",
          "type": "address"
        },
        {
          "indexed": false,
          "internalType": "address",
          "name": "newAdmin",
          "type": "address"
        }
      ],
      "name": "AdminChanged",
      "type": "event"
    },
    {
      "anonymous": false,
      "inputs": [
        {
          "indexed": true,
          "internalType": "address",
          "name": "owner",
          "type": "address"
        },
        {
          "indexed": true,
          "internalType": "address",
          "name": "spender",
          "type": "address"
        },
        {
          "indexed": false,
          "internalType": "uint256",
          "name": "value",
          "type": "uint256"
        }
      ],
      "name": "Approval",
      "type": "event"
    },
    {
      "anonymous": false,
      "inputs": [
        {
          "indexed": true,
          "internalType": "address",
          "name": "beacon",
          "type": "address"
        }
      ],
      "name": "BeaconUpgraded",
      "type": "event"
    },
    {
      "anonymous": false,
      "inputs": [
        {
          "indexed": true,
          "internalType": "address",
          "name": "caller",
          "type": "address"
        },
        {
          "indexed": true,
          "internalType": "address",
          "name": "owner",
          "type": "address"
        },
        {
          "indexed": false,
          "internalType": "uint256",
          "name": "assets",
          "type": "uint256"
        },
        {
          "indexed": false,
          "internalType": "uint256",
          "name": "shares",
          "type": "uint256"
        }
      ],
      "name": "Deposit",
      "type": "event"
    },
    {
      "anonymous": false,
      "inputs": [
        {
          "indexed": false,
          "internalType": "uint8",
          "name": "version",
          "type": "uint8"
        }
      ],
      "name": "Initialized",
      "type": "event"
    },
    {
      "anonymous": false,
      "inputs": [
        {
          "indexed": true,
          "internalType": "bytes32",
          "name": "role",
          "type": "bytes32"
        },
        {
          "indexed": true,
          "internalType": "bytes32",
          "name": "previousAdminRole",
          "type": "bytes32"
        },
        {
          "indexed": true,
          "internalType": "bytes32",
          "name": "newAdminRole",
          "type": "bytes32"
        }
      ],
      "name": "RoleAdminChanged",
      "type": "event"
    },
    {
      "anonymous": false,
      "inputs": [
        {
          "indexed": true,
          "internalType": "bytes32",
          "name": "role",
          "type": "bytes32"
        },
        {
          "indexed": true,
          "internalType": "address",
          "name": "account",
          "type": "address"
        },
        {
          "indexed": true,
          "internalType": "address",
          "name": "sender",
          "type": "address"
        }
      ],
      "name": "RoleGranted",
      "type": "event"
    },
    {
      "anonymous": false,
      "inputs": [
        {
          "indexed": true,
          "internalType": "bytes32",
          "name": "role",
          "type": "bytes32"
        },
        {
          "indexed": true,
          "internalType": "address",
          "name": "account",
          "type": "address"
        },
        {
          "indexed": true,
          "internalType": "address",
          "name": "sender",
          "type": "address"
        }
      ],
      "name": "RoleRevoked",
      "type": "event"
    },
    {
      "anonymous": false,
      "inputs": [
        {
          "indexed": true,
          "internalType": "address",
          "name": "from",
          "type": "address"
        },
        {
          "indexed": true,
          "internalType": "address",
          "name": "to",
          "type": "address"
        },
        {
          "indexed": false,
          "internalType": "uint256",
          "name": "value",
          "type": "uint256"
        }
      ],
      "name": "Transfer",
      "type": "event"
    },
    {
      "anonymous": false,
      "inputs": [
        {
          "indexed": true,
          "internalType": "address",
          "name": "implementation",
          "type": "address"
        }
      ],
      "name": "Upgraded",
      "type": "event"
    },
    {
      "anonymous": false,
      "inputs": [
        {
          "indexed": true,
          "internalType": "address",
          "name": "caller",
          "type": "address"
        },
        {
          "indexed": true,
          "internalType": "address",
          "name": "receiver",
          "type": "address"
        },
        {
          "indexed": true,
          "internalType": "address",
          "name": "owner",
          "type": "address"
        },
        {
          "indexed": false,
          "internalType": "uint256",
          "name": "assets",
          "type": "uint256"
        },
        {
          "indexed": false,
          "internalType": "uint256",
          "name": "shares",
          "type": "uint256"
        }
      ],
      "name": "Withdraw",
      "type": "event"
    },
    {
      "inputs": [],
      "name": "DEFAULT_ADMIN_ROLE",
      "outputs": [
        {
          "internalType": "bytes32",
          "name": "",
          "type": "bytes32"
        }
      ],
      "stateMutability": "view",
      "type": "function"
    },
    {
      "inputs": [],
      "name": "UPGRADER_ROLE",
      "outputs": [
        {
          "internalType": "bytes32",
          "name": "",
          "type": "bytes32"
        }
      ],
      "stateMutability": "view",
      "type": "function"
    },
    {
      "inputs": [
        {
          "internalType": "address",
          "name": "owner",
          "type": "address"
        },
        {
          "internalType": "address",
          "name": "spender",
          "type": "address"
        }
      ],
      "name": "allowance",
      "outputs": [
        {
          "internalType": "uint256",
          "name": "",
          "type": "uint256"
        }
      ],
      "stateMutability": "view",
      "type": "function"
    },
    {
      "inputs": [
        {
          "internalType": "address",
          "name": "spender",
          "type": "address"
        },
        {
          "internalType": "uint256",
          "name": "amount",
          "type": "uint256"
        }
      ],
      "name": "approve",
      "outputs": [
        {
          "internalType": "bool",
          "name": "",
          "type": "bool"
        }
      ],
      "stateMutability": "nonpayable",
      "type": "function"
    },
    {
      "inputs": [],
      "name": "asset",
      "outputs": [
        {
          "internalType": "contract IUsdPlusToken",
          "name": "",
          "type": "address"
        }
      ],
      "stateMutability": "view",
      "type": "function"
    },
    {
      "inputs": [
        {
          "internalType": "address",
          "name": "account",
          "type": "address"
        }
      ],
      "name": "balanceOf",
      "outputs": [
        {
          "internalType": "uint256",
          "name": "",
          "type": "uint256"
        }
      ],
      "stateMutability": "view",
      "type": "function"
    },
    {
      "inputs": [
        {
          "internalType": "uint256",
          "name": "shares",
          "type": "uint256"
        }
      ],
      "name": "convertToAssets",
      "outputs": [
        {
          "internalType": "uint256",
          "name": "",
          "type": "uint256"
        }
      ],
      "stateMutability": "view",
      "type": "function"
    },
    {
      "inputs": [
        {
          "internalType": "uint256",
          "name": "assets",
          "type": "uint256"
        }
      ],
      "name": "convertToShares",
      "outputs": [
        {
          "internalType": "uint256",
          "name": "",
          "type": "uint256"
        }
      ],
      "stateMutability": "view",
      "type": "function"
    },
    {
      "inputs": [],
      "name": "decimals",
      "outputs": [
        {
          "internalType": "uint8",
          "name": "",
          "type": "uint8"
        }
      ],
      "stateMutability": "view",
      "type": "function"
    },
    {
      "inputs": [
        {
          "internalType": "address",
          "name": "spender",
          "type": "address"
        },
        {
          "internalType": "uint256",
          "name": "subtractedValue",
          "type": "uint256"
        }
      ],
      "name": "decreaseAllowance",
      "outputs": [
        {
          "internalType": "bool",
          "name": "",
          "type": "bool"
        }
      ],
      "stateMutability": "nonpayable",
      "type": "function"
    },
    {
      "inputs": [
        {
          "internalType": "uint256",
          "name": "assets",
          "type": "uint256"
        },
        {
          "internalType": "address",
          "name": "receiver",
          "type": "address"
        }
      ],
      "name": "deposit",
      "outputs": [
        {
          "internalType": "uint256",
          "name": "",
          "type": "uint256"
        }
      ],
      "stateMutability": "nonpayable",
      "type": "function"
    },
    {
      "inputs": [
        {
          "internalType": "bytes32",
          "name": "role",
          "type": "bytes32"
        }
      ],
      "name": "getRoleAdmin",
      "outputs": [
        {
          "internalType": "bytes32",
          "name": "",
          "type": "bytes32"
        }
      ],
      "stateMutability": "view",
      "type": "function"
    },
    {
      "inputs": [
        {
          "internalType": "bytes32",
          "name": "role",
          "type": "bytes32"
        },
        {
          "internalType": "address",
          "name": "account",
          "type": "address"
        }
      ],
      "name": "grantRole",
      "outputs": [],
      "stateMutability": "nonpayable",
      "type": "function"
    },
    {
      "inputs": [
        {
          "internalType": "bytes32",
          "name": "role",
          "type": "bytes32"
        },
        {
          "internalType": "address",
          "name": "account",
          "type": "address"
        }
      ],
      "name": "hasRole",
      "outputs": [
        {
          "internalType": "bool",
          "name": "",
          "type": "bool"
        }
      ],
      "stateMutability": "view",
      "type": "function"
    },
    {
      "inputs": [
        {
          "internalType": "address",
          "name": "spender",
          "type": "address"
        },
        {
          "internalType": "uint256",
          "name": "addedValue",
          "type": "uint256"
        }
      ],
      "name": "increaseAllowance",
      "outputs": [
        {
          "internalType": "bool",
          "name": "",
          "type": "bool"
        }
      ],
      "stateMutability": "nonpayable",
      "type": "function"
    },
    {
      "inputs": [
        {
          "internalType": "address",
          "name": "usdPlusTokenAddress",
          "type": "address"
        }
      ],
      "name": "initialize",
      "outputs": [],
      "stateMutability": "nonpayable",
      "type": "function"
    },
    {
      "inputs": [
        {
          "internalType": "address",
          "name": "receiver",
          "type": "address"
        }
      ],
      "name": "maxDeposit",
      "outputs": [
        {
          "internalType": "uint256",
          "name": "",
          "type": "uint256"
        }
      ],
      "stateMutability": "view",
      "type": "function"
    },
    {
      "inputs": [
        {
          "internalType": "address",
          "name": "receiver",
          "type": "address"
        }
      ],
      "name": "maxMint",
      "outputs": [
        {
          "internalType": "uint256",
          "name": "",
          "type": "uint256"
        }
      ],
      "stateMutability": "view",
      "type": "function"
    },
    {
      "inputs": [
        {
          "internalType": "address",
          "name": "owner",
          "type": "address"
        }
      ],
      "name": "maxRedeem",
      "outputs": [
        {
          "internalType": "uint256",
          "name": "",
          "type": "uint256"
        }
      ],
      "stateMutability": "view",
      "type": "function"
    },
    {
      "inputs": [
        {
          "internalType": "address",
          "name": "owner",
          "type": "address"
        }
      ],
      "name": "maxWithdraw",
      "outputs": [
        {
          "internalType": "uint256",
          "name": "",
          "type": "uint256"
        }
      ],
      "stateMutability": "view",
      "type": "function"
    },
    {
      "inputs": [
        {
          "internalType": "uint256",
          "name": "shares",
          "type": "uint256"
        },
        {
          "internalType": "address",
          "name": "receiver",
          "type": "address"
        }
      ],
      "name": "mint",
      "outputs": [
        {
          "internalType": "uint256",
          "name": "",
          "type": "uint256"
        }
      ],
      "stateMutability": "nonpayable",
      "type": "function"
    },
    {
      "inputs": [],
      "name": "name",
      "outputs": [
        {
          "internalType": "string",
          "name": "",
          "type": "string"
        }
      ],
      "stateMutability": "view",
      "type": "function"
    },
    {
      "inputs": [
        {
          "internalType": "uint256",
          "name": "assets",
          "type": "uint256"
        }
      ],
      "name": "previewDeposit",
      "outputs": [
        {
          "internalType": "uint256",
          "name": "",
          "type": "uint256"
        }
      ],
      "stateMutability": "view",
      "type": "function"
    },
    {
      "inputs": [
        {
          "internalType": "uint256",
          "name": "shares",
          "type": "uint256"
        }
      ],
      "name": "previewMint",
      "outputs": [
        {
          "internalType": "uint256",
          "name": "",
          "type": "uint256"
        }
      ],
      "stateMutability": "view",
      "type": "function"
    },
    {
      "inputs": [
        {
          "internalType": "uint256",
          "name": "shares",
          "type": "uint256"
        }
      ],
      "name": "previewRedeem",
      "outputs": [
        {
          "internalType": "uint256",
          "name": "",
          "type": "uint256"
        }
      ],
      "stateMutability": "view",
      "type": "function"
    },
    {
      "inputs": [
        {
          "internalType": "uint256",
          "name": "assets",
          "type": "uint256"
        }
      ],
      "name": "previewWithdraw",
      "outputs": [
        {
          "internalType": "uint256",
          "name": "",
          "type": "uint256"
        }
      ],
      "stateMutability": "view",
      "type": "function"
    },
    {
      "inputs": [],
      "name": "proxiableUUID",
      "outputs": [
        {
          "internalType": "bytes32",
          "name": "",
          "type": "bytes32"
        }
      ],
      "stateMutability": "view",
      "type": "function"
    },
    {
      "inputs": [],
      "name": "rate",
      "outputs": [
        {
          "internalType": "uint256",
          "name": "",
          "type": "uint256"
        }
      ],
      "stateMutability": "view",
      "type": "function"
    },
    {
      "inputs": [
        {
          "internalType": "uint256",
          "name": "shares",
          "type": "uint256"
        },
        {
          "internalType": "address",
          "name": "receiver",
          "type": "address"
        },
        {
          "internalType": "address",
          "name": "owner",
          "type": "address"
        }
      ],
      "name": "redeem",
      "outputs": [
        {
          "internalType": "uint256",
          "name": "",
          "type": "uint256"
        }
      ],
      "stateMutability": "nonpayable",
      "type": "function"
    },
    {
      "inputs": [
        {
          "internalType": "bytes32",
          "name": "role",
          "type": "bytes32"
        },
        {
          "internalType": "address",
          "name": "account",
          "type": "address"
        }
      ],
      "name": "renounceRole",
      "outputs": [],
      "stateMutability": "nonpayable",
      "type": "function"
    },
    {
      "inputs": [
        {
          "internalType": "bytes32",
          "name": "role",
          "type": "bytes32"
        },
        {
          "internalType": "address",
          "name": "account",
          "type": "address"
        }
      ],
      "name": "revokeRole",
      "outputs": [],
      "stateMutability": "nonpayable",
      "type": "function"
    },
    {
      "inputs": [
        {
          "internalType": "bytes4",
          "name": "interfaceId",
          "type": "bytes4"
        }
      ],
      "name": "supportsInterface",
      "outputs": [
        {
          "internalType": "bool",
          "name": "",
          "type": "bool"
        }
      ],
      "stateMutability": "view",
      "type": "function"
    },
    {
      "inputs": [],
      "name": "symbol",
      "outputs": [
        {
          "internalType": "string",
          "name": "",
          "type": "string"
        }
      ],
      "stateMutability": "view",
      "type": "function"
    },
    {
      "inputs": [],
      "name": "totalAssets",
      "outputs": [
        {
          "internalType": "uint256",
          "name": "",
          "type": "uint256"
        }
      ],
      "stateMutability": "view",
      "type": "function"
    },
    {
      "inputs": [],
      "name": "totalSupply",
      "outputs": [
        {
          "internalType": "uint256",
          "name": "",
          "type": "uint256"
        }
      ],
      "stateMutability": "view",
      "type": "function"
    },
    {
      "inputs": [
        {
          "internalType": "address",
          "name": "to",
          "type": "address"
        },
        {
          "internalType": "uint256",
          "name": "amount",
          "type": "uint256"
        }
      ],
      "name": "transfer",
      "outputs": [
        {
          "internalType": "bool",
          "name": "",
          "type": "bool"
        }
      ],
      "stateMutability": "nonpayable",
      "type": "function"
    },
    {
      "inputs": [
        {
          "internalType": "address",
          "name": "from",
          "type": "address"
        },
        {
          "internalType": "address",
          "name": "to",
          "type": "address"
        },
        {
          "internalType": "uint256",
          "name": "amount",
          "type": "uint256"
        }
      ],
      "name": "transferFrom",
      "outputs": [
        {
          "internalType": "bool",
          "name": "",
          "type": "bool"
        }
      ],
      "stateMutability": "nonpayable",
      "type": "function"
    },
    {
      "inputs": [
        {
          "internalType": "address",
          "name": "newImplementation",
          "type": "address"
        }
      ],
      "name": "upgradeTo",
      "outputs": [],
      "stateMutability": "nonpayable",
      "type": "function"
    },
    {
      "inputs": [
        {
          "internalType": "address",
          "name": "newImplementation",
          "type": "address"
        },
        {
          "internalType": "bytes",
          "name": "data",
          "type": "bytes"
        }
      ],
      "name": "upgradeToAndCall",
      "outputs": [],
      "stateMutability": "payable",
      "type": "function"
    },
    {
      "inputs": [
        {
          "internalType": "uint256",
          "name": "assets",
          "type": "uint256"
        },
        {
          "internalType": "address",
          "name": "receiver",
          "type": "address"
        },
        {
          "internalType": "address",
          "name": "owner",
          "type": "address"
        }
      ],
      "name": "withdraw",
      "outputs": [
        {
          "internalType": "uint256",
          "name": "",
          "type": "uint256"
        }
      ],
      "stateMutability": "nonpayable",
      "type": "function"
    }
  ],
  "numDeployments": 1,
  "solcInputHash": "a1569e9c587e79c43080535a50066318",
  "bytecode": "0x60a06040523060601b6080523480156200001857600080fd5b50600054610100900460ff16158080156200003a5750600054600160ff909116105b806200006a575062000057306200014460201b620015ef1760201c565b1580156200006a575060005460ff166001145b620000d25760405162461bcd60e51b815260206004820152602e60248201527f496e697469616c697a61626c653a20636f6e747261637420697320616c72656160448201526d191e481a5b9a5d1a585b1a5e995960921b606482015260840160405180910390fd5b6000805460ff191660011790558015620000f6576000805461ff0019166101001790555b80156200013d576000805461ff0019169055604051600181527f7f26b83ff96e1f2b6a682f133852f6798a09c465da95921460cefb38474024989060200160405180910390a15b5062000153565b6001600160a01b03163b151590565b60805160601c612ef76200018e60003960008181610974015281816109b401528181610a7601528181610ab60152610b450152612ef76000f3fe60806040526004361061023b5760003560e01c80636e553f651161012e578063ba087652116100ab578063d547741f1161006f578063d547741f14610675578063d905777e14610695578063dd62ed3e146106b5578063ef8b30f714610635578063f72c0d8b146106d557600080fd5b8063ba087652146105f5578063c4d66de814610615578063c63d75b61461046b578063c6e6f59214610635578063ce96cb771461065557600080fd5b8063a217fddf116100f2578063a217fddf14610560578063a457c2d714610575578063a9059cbb14610595578063b3d7f6b9146105b5578063b460af94146105d557600080fd5b80636e553f65146104b557806370a08231146104d557806391d148541461050b57806394bf804d1461052b57806395d89b411461054b57600080fd5b80632f2ff15d116101bc5780633950935111610180578063395093511461044b578063402d267d1461046b5780634cdad506146102ba5780634f1ef2861461048d57806352d1902d146104a057600080fd5b80632f2ff15d14610394578063313ce567146103b657806336568abe146103d25780633659cfe6146103f257806338d52e0f1461041257600080fd5b80630a28a477116102035780630a28a477146102fa57806318160ddd1461031a57806323b872dd1461032f578063248a9ca31461034f5780632c4e722e1461037f57600080fd5b806301e1d1141461024057806301ffc9a71461026857806306fdde031461029857806307a2d13a146102ba578063095ea7b3146102da575b600080fd5b34801561024c57600080fd5b50610255610709565b6040519081526020015b60405180910390f35b34801561027457600080fd5b50610288610283366004612a73565b610721565b604051901515815260200161025f565b3480156102a457600080fd5b506102ad610758565b60405161025f9190612b6a565b3480156102c657600080fd5b506102556102d5366004612a1e565b6107ea565b3480156102e657600080fd5b506102886102f53660046129d2565b6107f5565b34801561030657600080fd5b50610255610315366004612a1e565b61080d565b34801561032657600080fd5b50603554610255565b34801561033b57600080fd5b5061028861034a3660046128d4565b610818565b34801561035b57600080fd5b5061025561036a366004612a1e565b60009081526097602052604090206001015490565b34801561038b57600080fd5b5061025561083e565b3480156103a057600080fd5b506103b46103af366004612a50565b6108bc565b005b3480156103c257600080fd5b506040516006815260200161025f565b3480156103de57600080fd5b506103b46103ed366004612a50565b6108e6565b3480156103fe57600080fd5b506103b461040d366004612886565b610969565b34801561041e57600080fd5b5061012d54610433906001600160a01b031681565b6040516001600160a01b03909116815260200161025f565b34801561045757600080fd5b506102886104663660046129d2565b610a49565b34801561047757600080fd5b50610255610486366004612886565b5060001990565b6103b461049b366004612910565b610a6b565b3480156104ac57600080fd5b50610255610b38565b3480156104c157600080fd5b506102556104d0366004612a50565b610beb565b3480156104e157600080fd5b506102556104f0366004612886565b6001600160a01b031660009081526033602052604090205490565b34801561051757600080fd5b50610288610526366004612a50565b610d51565b34801561053757600080fd5b50610255610546366004612a50565b610d7c565b34801561055757600080fd5b506102ad610ed8565b34801561056c57600080fd5b50610255600081565b34801561058157600080fd5b506102886105903660046129d2565b610ee7565b3480156105a157600080fd5b506102886105b03660046129d2565b610f6d565b3480156105c157600080fd5b506102556105d0366004612a1e565b610f7b565b3480156105e157600080fd5b506102556105f0366004612a9d565b610f86565b34801561060157600080fd5b50610255610610366004612a9d565b61119d565b34801561062157600080fd5b506103b4610630366004612886565b61139f565b34801561064157600080fd5b50610255610650366004612a1e565b611554565b34801561066157600080fd5b50610255610670366004612886565b61155f565b34801561068157600080fd5b506103b4610690366004612a50565b611581565b3480156106a157600080fd5b506102556106b0366004612886565b6115a6565b3480156106c157600080fd5b506102556106d03660046128a1565b6115c4565b3480156106e157600080fd5b506102557f189ab7a9244df0848122154315af71fe140f3db0fe014031783b0946b8c9d2e381565b600061071c61071760355490565b6115fe565b905090565b60006001600160e01b03198216637965db0b60e01b148061075257506301ffc9a760e01b6001600160e01b03198316145b92915050565b60606036805461076790612dfd565b80601f016020809104026020016040519081016040528092919081815260200182805461079390612dfd565b80156107e05780601f106107b5576101008083540402835291602001916107e0565b820191906000526020600020905b8154815290600101906020018083116107c357829003601f168201915b5050505050905090565b6000610752826115fe565b600033610803818585611691565b5060019392505050565b6000610752826117b5565b600033610826858285611848565b6108318585856118c2565b60019150505b9392505050565b61012d546040805163bbf44f3360e01b815290516000926001600160a01b03169163bbf44f33916004808301926020929190829003018186803b15801561088457600080fd5b505afa158015610898573d6000803e3d6000fd5b505050506040513d601f19601f8201168201806040525081019061071c9190612a37565b6000828152609760205260409020600101546108d781611a90565b6108e18383611a9a565b505050565b6001600160a01b038116331461095b5760405162461bcd60e51b815260206004820152602f60248201527f416363657373436f6e74726f6c3a2063616e206f6e6c792072656e6f756e636560448201526e103937b632b9903337b91039b2b63360891b60648201526084015b60405180910390fd5b6109658282611b20565b5050565b306001600160a01b037f00000000000000000000000000000000000000000000000000000000000000001614156109b25760405162461bcd60e51b815260040161095290612bdf565b7f00000000000000000000000000000000000000000000000000000000000000006001600160a01b03166109fb600080516020612e7b833981519152546001600160a01b031690565b6001600160a01b031614610a215760405162461bcd60e51b815260040161095290612c2b565b610a2a81611b87565b60408051600080825260208201909252610a4691839190611bb1565b50565b600033610803818585610a5c83836115c4565b610a669190612d4a565b611691565b306001600160a01b037f0000000000000000000000000000000000000000000000000000000000000000161415610ab45760405162461bcd60e51b815260040161095290612bdf565b7f00000000000000000000000000000000000000000000000000000000000000006001600160a01b0316610afd600080516020612e7b833981519152546001600160a01b031690565b6001600160a01b031614610b235760405162461bcd60e51b815260040161095290612c2b565b610b2c82611b87565b61096582826001611bb1565b6000306001600160a01b037f00000000000000000000000000000000000000000000000000000000000000001614610bd85760405162461bcd60e51b815260206004820152603860248201527f555550535570677261646561626c653a206d757374206e6f742062652063616c60448201527f6c6564207468726f7567682064656c656761746563616c6c00000000000000006064820152608401610952565b50600080516020612e7b83398151915290565b600082610c345760405162461bcd60e51b815260206004820152601760248201527616995c9bc8185cdcd95d1cc81b9bdd08185b1b1bddd959604a1b6044820152606401610952565b6001600160a01b038216610c5a5760405162461bcd60e51b815260040161095290612c77565b61012d546040516323b872dd60e01b8152336004820152306024820152604481018590526001600160a01b03909116906323b872dd90606401602060405180830381600087803b158015610cad57600080fd5b505af1158015610cc1573d6000803e3d6000fd5b505050506040513d601f19601f82011682018060405250810190610ce591906129fc565b506000610cf184611d2b565b90508015610d0357610d038382611dbe565b60408051858152602081018390526001600160a01b0385169133917fdcbc1c05240f31ff3ad067ef1ee35ce4997762752e3a095284754544f4c709d791015b60405180910390a39392505050565b60009182526097602090815260408084206001600160a01b0393909316845291905290205460ff1690565b600082610dc55760405162461bcd60e51b815260206004820152601760248201527616995c9bc81cda185c995cc81b9bdd08185b1b1bddd959604a1b6044820152606401610952565b6001600160a01b038216610deb5760405162461bcd60e51b815260040161095290612c77565b6000610df684611e9d565b90508015610e8b5761012d546040516323b872dd60e01b8152336004820152306024820152604481018390526001600160a01b03909116906323b872dd90606401602060405180830381600087803b158015610e5157600080fd5b505af1158015610e65573d6000803e3d6000fd5b505050506040513d601f19601f82011682018060405250810190610e8991906129fc565b505b610e958385611dbe565b60408051828152602081018690526001600160a01b0385169133917fdcbc1c05240f31ff3ad067ef1ee35ce4997762752e3a095284754544f4c709d79101610d42565b60606037805461076790612dfd565b60003381610ef582866115c4565b905083811015610f555760405162461bcd60e51b815260206004820152602560248201527f45524332303a2064656372656173656420616c6c6f77616e63652062656c6f77604482015264207a65726f60d81b6064820152608401610952565b610f628286868403611691565b506001949350505050565b6000336108038185856118c2565b600061075282611e9d565b600083610fcf5760405162461bcd60e51b815260206004820152601760248201527616995c9bc8185cdcd95d1cc81b9bdd08185b1b1bddd959604a1b6044820152606401610952565b6001600160a01b038316610ff55760405162461bcd60e51b815260040161095290612c77565b6001600160a01b03821661101b5760405162461bcd60e51b815260040161095290612b9d565b6000611026856117b5565b90506001600160a01b03831633146110b157600061104484336115c4565b9050818110156110a05760405162461bcd60e51b815260206004820152602160248201527f576974686472617720616d6f756e74206578636565647320616c6c6f77616e636044820152606560f81b6064820152608401610952565b6110af8433610a668585612da3565b505b80156110c1576110c18382611f30565b61012d5460405163a9059cbb60e01b81526001600160a01b038681166004830152602482018890529091169063a9059cbb90604401602060405180830381600087803b15801561111057600080fd5b505af1158015611124573d6000803e3d6000fd5b505050506040513d601f19601f8201168201806040525081019061114891906129fc565b5060408051868152602081018390526001600160a01b03808616929087169133917ffbde797d201c681b91056529119e0b02407c7bb96a4a2c75c01fc9667232c8db91015b60405180910390a4949350505050565b6000836111e65760405162461bcd60e51b815260206004820152601760248201527616995c9bc81cda185c995cc81b9bdd08185b1b1bddd959604a1b6044820152606401610952565b6001600160a01b03831661120c5760405162461bcd60e51b815260040161095290612c77565b6001600160a01b0382166112325760405162461bcd60e51b815260040161095290612b9d565b6001600160a01b03821633146112b157600061124e83336115c4565b9050848110156112a05760405162461bcd60e51b815260206004820152601f60248201527f52656465656d20616d6f756e74206578636565647320616c6c6f77616e6365006044820152606401610952565b6112af8333610a668885612da3565b505b6112bb8285611f30565b60006112c6856115fe565b905080156113575761012d5460405163a9059cbb60e01b81526001600160a01b038681166004830152602482018490529091169063a9059cbb90604401602060405180830381600087803b15801561131d57600080fd5b505af1158015611331573d6000803e3d6000fd5b505050506040513d601f19601f8201168201806040525081019061135591906129fc565b505b60408051828152602081018790526001600160a01b03808616929087169133917ffbde797d201c681b91056529119e0b02407c7bb96a4a2c75c01fc9667232c8db910161118d565b600054610100900460ff16158080156113bf5750600054600160ff909116105b806113d95750303b1580156113d9575060005460ff166001145b61143c5760405162461bcd60e51b815260206004820152602e60248201527f496e697469616c697a61626c653a20636f6e747261637420697320616c72656160448201526d191e481a5b9a5d1a585b1a5e995960921b6064820152608401610952565b6000805460ff19166001179055801561145f576000805461ff0019166101001790555b6114aa6040518060400160405280600c81526020016b57726170706564205553442b60a01b81525060405180604001604052806005815260200164775553442b60d81b81525061207e565b6114b26120af565b6114ba6120af565b6114c5600033611a9a565b6114ef7f189ab7a9244df0848122154315af71fe140f3db0fe014031783b0946b8c9d2e333611a9a565b61012d80546001600160a01b0319166001600160a01b0384161790558015610965576000805461ff0019169055604051600181527f7f26b83ff96e1f2b6a682f133852f6798a09c465da95921460cefb38474024989060200160405180910390a15050565b600061075282611d2b565b6001600160a01b038116600090815260336020526040812054610752906115fe565b60008281526097602052604090206001015461159c81611a90565b6108e18383611b20565b6001600160a01b038116600090815260336020526040812054610752565b6001600160a01b03918216600090815260346020908152604080832093909416825291909152205490565b6001600160a01b03163b151590565b600061075261012d60009054906101000a90046001600160a01b03166001600160a01b031663bbf44f336040518163ffffffff1660e01b815260040160206040518083038186803b15801561165257600080fd5b505afa158015611666573d6000803e3d6000fd5b505050506040513d601f19601f8201168201806040525081019061168a9190612a37565b83906120d8565b6001600160a01b0383166116f35760405162461bcd60e51b8152602060048201526024808201527f45524332303a20617070726f76652066726f6d20746865207a65726f206164646044820152637265737360e01b6064820152608401610952565b6001600160a01b0382166117545760405162461bcd60e51b815260206004820152602260248201527f45524332303a20617070726f766520746f20746865207a65726f206164647265604482015261737360f01b6064820152608401610952565b6001600160a01b0383811660008181526034602090815260408083209487168084529482529182902085905590518481527f8c5be1e5ebec7d5bd14f71427d1e84f3dd0314c0f7b2291e5b200ac8c7c3b925910160405180910390a3505050565b600061075261012d60009054906101000a90046001600160a01b03166001600160a01b031663bbf44f336040518163ffffffff1660e01b815260040160206040518083038186803b15801561180957600080fd5b505afa15801561181d573d6000803e3d6000fd5b505050506040513d601f19601f820116820180604052508101906118419190612a37565b839061213d565b600061185484846115c4565b905060001981146118bc57818110156118af5760405162461bcd60e51b815260206004820152601d60248201527f45524332303a20696e73756666696369656e7420616c6c6f77616e63650000006044820152606401610952565b6118bc8484848403611691565b50505050565b6001600160a01b0383166119265760405162461bcd60e51b815260206004820152602560248201527f45524332303a207472616e736665722066726f6d20746865207a65726f206164604482015264647265737360d81b6064820152608401610952565b6001600160a01b0382166119885760405162461bcd60e51b815260206004820152602360248201527f45524332303a207472616e7366657220746f20746865207a65726f206164647260448201526265737360e81b6064820152608401610952565b6001600160a01b03831660009081526033602052604090205481811015611a005760405162461bcd60e51b815260206004820152602660248201527f45524332303a207472616e7366657220616d6f756e7420657863656564732062604482015265616c616e636560d01b6064820152608401610952565b6001600160a01b03808516600090815260336020526040808220858503905591851681529081208054849290611a37908490612d4a565b92505081905550826001600160a01b0316846001600160a01b03167fddf252ad1be2c89b69c2b068fc378daa952ba7f163c4a11628f55a4df523b3ef84604051611a8391815260200190565b60405180910390a36118bc565b610a46813361221c565b611aa48282610d51565b6109655760008281526097602090815260408083206001600160a01b03851684529091529020805460ff19166001179055611adc3390565b6001600160a01b0316816001600160a01b0316837f2f8788117e7eff1d82e926ec794901d17c78024a50270940304540a733656f0d60405160405180910390a45050565b611b2a8282610d51565b156109655760008281526097602090815260408083206001600160a01b0385168085529252808320805460ff1916905551339285917ff6391f5c32d9c69d2a47ea670b442974b53935d1edc7fd64eb21e047a839171b9190a45050565b7f189ab7a9244df0848122154315af71fe140f3db0fe014031783b0946b8c9d2e361096581611a90565b7f4910fdfa16fed3260ed0e7147f7cc6da11a60208b5b9406d12a635614ffd91435460ff1615611be4576108e183612280565b826001600160a01b03166352d1902d6040518163ffffffff1660e01b815260040160206040518083038186803b158015611c1d57600080fd5b505afa925050508015611c4d575060408051601f3d908101601f19168201909252611c4a91810190612a37565b60015b611cb05760405162461bcd60e51b815260206004820152602e60248201527f45524331393637557067726164653a206e657720696d706c656d656e7461746960448201526d6f6e206973206e6f74205555505360901b6064820152608401610952565b600080516020612e7b8339815191528114611d1f5760405162461bcd60e51b815260206004820152602960248201527f45524331393637557067726164653a20756e737570706f727465642070726f786044820152681a58589b195555525160ba1b6064820152608401610952565b506108e183838361231c565b600061075261012d60009054906101000a90046001600160a01b03166001600160a01b031663bbf44f336040518163ffffffff1660e01b815260040160206040518083038186803b158015611d7f57600080fd5b505afa158015611d93573d6000803e3d6000fd5b505050506040513d601f19601f82011682018060405250810190611db79190612a37565b8390612341565b6001600160a01b038216611e145760405162461bcd60e51b815260206004820152601f60248201527f45524332303a206d696e7420746f20746865207a65726f2061646472657373006044820152606401610952565b8060356000828254611e269190612d4a565b90915550506001600160a01b03821660009081526033602052604081208054839290611e53908490612d4a565b90915550506040518181526001600160a01b038316906000907fddf252ad1be2c89b69c2b068fc378daa952ba7f163c4a11628f55a4df523b3ef9060200160405180910390a35050565b600061075261012d60009054906101000a90046001600160a01b03166001600160a01b031663bbf44f336040518163ffffffff1660e01b815260040160206040518083038186803b158015611ef157600080fd5b505afa158015611f05573d6000803e3d6000fd5b505050506040513d601f19601f82011682018060405250810190611f299190612a37565b83906123e9565b6001600160a01b038216611f905760405162461bcd60e51b815260206004820152602160248201527f45524332303a206275726e2066726f6d20746865207a65726f206164647265736044820152607360f81b6064820152608401610952565b6001600160a01b038216600090815260336020526040902054818110156120045760405162461bcd60e51b815260206004820152602260248201527f45524332303a206275726e20616d6f756e7420657863656564732062616c616e604482015261636560f01b6064820152608401610952565b6001600160a01b0383166000908152603360205260408120838303905560358054849290612033908490612da3565b90915550506040518281526000906001600160a01b038516907fddf252ad1be2c89b69c2b068fc378daa952ba7f163c4a11628f55a4df523b3ef9060200160405180910390a3505050565b600054610100900460ff166120a55760405162461bcd60e51b815260040161095290612cff565b610965828261247a565b600054610100900460ff166120d65760405162461bcd60e51b815260040161095290612cff565b565b60008215806120e5575081155b156120f257506000610752565b6120fe82600019612d62565b83111561211d5760405162461bcd60e51b815260040161095290612cbc565b676765c793fa10079d601b1b6121338385612d84565b6108379190612d62565b60008161218c5760405162461bcd60e51b815260206004820152601c60248201527f4572726f72732e4d4154485f4449564953494f4e5f42595f5a45524f000000006044820152606401610952565b8261219957506000610752565b60006121a6600284612d62565b9050676765c793fa10079d601b1b6121c082600019612da3565b6121ca9190612d62565b8411156121e95760405162461bcd60e51b815260040161095290612cbc565b8281612200676765c793fa10079d601b1b87612d84565b61220a9190612d4a565b6122149190612d62565b949350505050565b6122268282610d51565b6109655761223e816001600160a01b031660146124c8565b6122498360206124c8565b60405160200161225a929190612af5565b60408051601f198184030181529082905262461bcd60e51b825261095291600401612b6a565b6001600160a01b0381163b6122ed5760405162461bcd60e51b815260206004820152602d60248201527f455243313936373a206e657720696d706c656d656e746174696f6e206973206e60448201526c1bdd08184818dbdb9d1c9858dd609a1b6064820152608401610952565b600080516020612e7b83398151915280546001600160a01b0319166001600160a01b0392909216919091179055565b61232583612664565b6000825111806123325750805b156108e1576118bc83836126a4565b6000816123905760405162461bcd60e51b815260206004820152601c60248201527f4572726f72732e4d4154485f4449564953494f4e5f42595f5a45524f000000006044820152606401610952565b8261239d57506000610752565b6123b4676765c793fa10079d601b1b600019612d62565b8311156123d35760405162461bcd60e51b815260040161095290612cbc565b81612133676765c793fa10079d601b1b85612d84565b60008215806123f6575081155b1561240357506000610752565b8161241a6002676765c793fa10079d601b1b612d62565b61242690600019612da3565b6124309190612d62565b83111561244f5760405162461bcd60e51b815260040161095290612cbc565b676765c793fa10079d601b1b612466600282612d62565b6124708486612d84565b6121339190612d4a565b600054610100900460ff166124a15760405162461bcd60e51b815260040161095290612cff565b81516124b49060369060208501906127d1565b5080516108e19060379060208401906127d1565b606060006124d7836002612d84565b6124e2906002612d4a565b67ffffffffffffffff8111156124fa576124fa612e64565b6040519080825280601f01601f191660200182016040528015612524576020820181803683370190505b509050600360fc1b8160008151811061253f5761253f612e4e565b60200101906001600160f81b031916908160001a905350600f60fb1b8160018151811061256e5761256e612e4e565b60200101906001600160f81b031916908160001a9053506000612592846002612d84565b61259d906001612d4a565b90505b6001811115612615576f181899199a1a9b1b9c1cb0b131b232b360811b85600f16601081106125d1576125d1612e4e565b1a60f81b8282815181106125e7576125e7612e4e565b60200101906001600160f81b031916908160001a90535060049490941c9361260e81612de6565b90506125a0565b5083156108375760405162461bcd60e51b815260206004820181905260248201527f537472696e67733a20686578206c656e67746820696e73756666696369656e746044820152606401610952565b61266d81612280565b6040516001600160a01b038216907fbc7cd75a20ee27fd9adebab32041f755214dbc6bffa90cc0225b39da2e5c2d3b90600090a250565b60606001600160a01b0383163b61270c5760405162461bcd60e51b815260206004820152602660248201527f416464726573733a2064656c65676174652063616c6c20746f206e6f6e2d636f6044820152651b9d1c9858dd60d21b6064820152608401610952565b600080846001600160a01b0316846040516127279190612ad9565b600060405180830381855af49150503d8060008114612762576040519150601f19603f3d011682016040523d82523d6000602084013e612767565b606091505b509150915061278f8282604051806060016040528060278152602001612e9b60279139612798565b95945050505050565b606083156127a7575081610837565b8251156127b75782518084602001fd5b8160405162461bcd60e51b81526004016109529190612b6a565b8280546127dd90612dfd565b90600052602060002090601f0160209004810192826127ff5760008555612845565b82601f1061281857805160ff1916838001178555612845565b82800160010185558215612845579182015b8281111561284557825182559160200191906001019061282a565b50612851929150612855565b5090565b5b808211156128515760008155600101612856565b80356001600160a01b038116811461288157600080fd5b919050565b60006020828403121561289857600080fd5b6108378261286a565b600080604083850312156128b457600080fd5b6128bd8361286a565b91506128cb6020840161286a565b90509250929050565b6000806000606084860312156128e957600080fd5b6128f28461286a565b92506129006020850161286a565b9150604084013590509250925092565b6000806040838503121561292357600080fd5b61292c8361286a565b9150602083013567ffffffffffffffff8082111561294957600080fd5b818501915085601f83011261295d57600080fd5b81358181111561296f5761296f612e64565b604051601f8201601f19908116603f0116810190838211818310171561299757612997612e64565b816040528281528860208487010111156129b057600080fd5b8260208601602083013760006020848301015280955050505050509250929050565b600080604083850312156129e557600080fd5b6129ee8361286a565b946020939093013593505050565b600060208284031215612a0e57600080fd5b8151801515811461083757600080fd5b600060208284031215612a3057600080fd5b5035919050565b600060208284031215612a4957600080fd5b5051919050565b60008060408385031215612a6357600080fd5b823591506128cb6020840161286a565b600060208284031215612a8557600080fd5b81356001600160e01b03198116811461083757600080fd5b600080600060608486031215612ab257600080fd5b83359250612ac26020850161286a565b9150612ad06040850161286a565b90509250925092565b60008251612aeb818460208701612dba565b9190910192915050565b7f416363657373436f6e74726f6c3a206163636f756e7420000000000000000000815260008351612b2d816017850160208801612dba565b7001034b99036b4b9b9b4b733903937b6329607d1b6017918401918201528351612b5e816028840160208801612dba565b01602801949350505050565b6020815260008251806020840152612b89816040850160208701612dba565b601f01601f19169190910160400192915050565b60208082526022908201527f5a65726f206164647265737320666f72206f776e6572206e6f7420616c6c6f77604082015261195960f21b606082015260800190565b6020808252602c908201527f46756e6374696f6e206d7573742062652063616c6c6564207468726f7567682060408201526b19195b1959d85d1958d85b1b60a21b606082015260800190565b6020808252602c908201527f46756e6374696f6e206d7573742062652063616c6c6564207468726f7567682060408201526b6163746976652070726f787960a01b606082015260800190565b60208082526025908201527f5a65726f206164647265737320666f72207265636569766572206e6f7420616c6040820152641b1bddd95960da1b606082015260800190565b60208082526023908201527f4572726f72732e4d4154485f4d554c5449504c49434154494f4e5f4f564552466040820152624c4f5760e81b606082015260800190565b6020808252602b908201527f496e697469616c697a61626c653a20636f6e7472616374206973206e6f74206960408201526a6e697469616c697a696e6760a81b606082015260800190565b60008219821115612d5d57612d5d612e38565b500190565b600082612d7f57634e487b7160e01b600052601260045260246000fd5b500490565b6000816000190483118215151615612d9e57612d9e612e38565b500290565b600082821015612db557612db5612e38565b500390565b60005b83811015612dd5578181015183820152602001612dbd565b838111156118bc5750506000910152565b600081612df557612df5612e38565b506000190190565b600181811c90821680612e1157607f821691505b60208210811415612e3257634e487b7160e01b600052602260045260246000fd5b50919050565b634e487b7160e01b600052601160045260246000fd5b634e487b7160e01b600052603260045260246000fd5b634e487b7160e01b600052604160045260246000fdfe360894a13ba1a3210667c828492db98dca3e2076cc3735a920a3ca505d382bbc416464726573733a206c6f772d6c6576656c2064656c65676174652063616c6c206661696c6564a26469706673582212209d977fba8e11d1cc2810a3844eda97632853ffc27e40bf1a438216d5697409c864736f6c63430008060033",
  "devdoc": {
    "kind": "dev",
    "methods": {
      "allowance(address,address)": {
        "details": "See {IERC20-allowance}."
      },
      "approve(address,uint256)": {
        "details": "See {IERC20-approve}. NOTE: If `amount` is the maximum `uint256`, the allowance is not updated on `transferFrom`. This is semantically equivalent to an infinite approval. Requirements: - `spender` cannot be the zero address."
      },
      "balanceOf(address)": {
        "details": "See {IERC20-balanceOf}."
      },
      "constructor": {
        "custom:oz-upgrades-unsafe-allow": "constructor"
      },
      "convertToAssets(uint256)": {
        "details": "The amount of assets that the Vault would exchange for the amount of shares provided, in an ideal scenario where all the conditions are met."
      },
      "convertToShares(uint256)": {
        "details": "The amount of shares that the Vault would exchange for the amount of assets provided, in an ideal scenario where all the conditions are met."
      },
      "decimals()": {
        "details": "Returns the number of decimals used to get its user representation. For example, if `decimals` equals `2`, a balance of `505` tokens should be displayed to a user as `5.05` (`505 / 10 ** 2`). Tokens usually opt for a value of 18, imitating the relationship between Ether and Wei. This is the value {ERC20} uses, unless this function is overridden; NOTE: This information is only used for _display_ purposes: it in no way affects any of the arithmetic of the contract, including {IERC20-balanceOf} and {IERC20-transfer}."
      },
      "decreaseAllowance(address,uint256)": {
        "details": "Atomically decreases the allowance granted to `spender` by the caller. This is an alternative to {approve} that can be used as a mitigation for problems described in {IERC20-approve}. Emits an {Approval} event indicating the updated allowance. Requirements: - `spender` cannot be the zero address. - `spender` must have allowance for the caller of at least `subtractedValue`."
      },
      "deposit(uint256,address)": {
        "details": "Mints `shares` Vault shares to `receiver` by depositing exactly `amount` of underlying tokens."
      },
      "getRoleAdmin(bytes32)": {
        "details": "Returns the admin role that controls `role`. See {grantRole} and {revokeRole}. To change a role's admin, use {_setRoleAdmin}."
      },
      "grantRole(bytes32,address)": {
        "details": "Grants `role` to `account`. If `account` had not been already granted `role`, emits a {RoleGranted} event. Requirements: - the caller must have ``role``'s admin role. May emit a {RoleGranted} event."
      },
      "hasRole(bytes32,address)": {
        "details": "Returns `true` if `account` has been granted `role`."
      },
      "increaseAllowance(address,uint256)": {
        "details": "Atomically increases the allowance granted to `spender` by the caller. This is an alternative to {approve} that can be used as a mitigation for problems described in {IERC20-approve}. Emits an {Approval} event indicating the updated allowance. Requirements: - `spender` cannot be the zero address."
      },
      "maxDeposit(address)": {
        "details": "Maximum amount of the underlying asset that can be deposited into the Vault for the receiver, through a deposit call."
      },
      "maxMint(address)": {
        "details": "Maximum amount of shares that can be minted from the Vault for the receiver, through a mint call."
      },
      "maxRedeem(address)": {
        "details": "Maximum amount of Vault shares that can be redeemed from the owner balance in the Vault, through a redeem call."
      },
      "maxWithdraw(address)": {
        "details": "Maximum amount of the underlying asset that can be withdrawn from the owner balance in the Vault, through a withdraw call."
      },
      "mint(uint256,address)": {
        "details": "Mints exactly shares Vault shares to receiver by depositing amount of underlying tokens."
      },
      "name()": {
        "details": "Returns the name of the token."
      },
      "previewDeposit(uint256)": {
        "details": "Allows an on-chain or off-chain user to simulate the effects of their deposit at the current block, given current on-chain conditions."
      },
      "previewMint(uint256)": {
        "details": "Allows an on-chain or off-chain user to simulate the effects of their mint at the current block, given current on-chain conditions."
      },
      "previewRedeem(uint256)": {
        "details": "Allows an on-chain or off-chain user to simulate the effects of their redeemption at the current block, given current on-chain conditions."
      },
      "previewWithdraw(uint256)": {
        "details": "Allows an on-chain or off-chain user to simulate the effects of their withdrawal at the current block, given current on-chain conditions."
      },
      "proxiableUUID()": {
        "details": "Implementation of the ERC1822 {proxiableUUID} function. This returns the storage slot used by the implementation. It is used to validate that the this implementation remains valid after an upgrade. IMPORTANT: A proxy pointing at a proxiable contract should not be considered proxiable itself, because this risks bricking a proxy that upgrades to it, by delegating to itself until out of gas. Thus it is critical that this function revert if invoked through a proxy. This is guaranteed by the `notDelegated` modifier."
      },
      "rate()": {
        "details": "Returns UsdPlusToken liquidity index in e27 (ray)",
        "returns": {
          "_0": "rate Rate between WrappedUsdPlusToken and UsdPlusToken in e27 (ray)*"
        }
      },
      "redeem(uint256,address,address)": {
        "details": "Burns exactly shares from owner and sends assets of underlying tokens to receiver."
      },
      "renounceRole(bytes32,address)": {
        "details": "Revokes `role` from the calling account. Roles are often managed via {grantRole} and {revokeRole}: this function's purpose is to provide a mechanism for accounts to lose their privileges if they are compromised (such as when a trusted device is misplaced). If the calling account had been revoked `role`, emits a {RoleRevoked} event. Requirements: - the caller must be `account`. May emit a {RoleRevoked} event."
      },
      "revokeRole(bytes32,address)": {
        "details": "Revokes `role` from `account`. If `account` had been granted `role`, emits a {RoleRevoked} event. Requirements: - the caller must have ``role``'s admin role. May emit a {RoleRevoked} event."
      },
      "supportsInterface(bytes4)": {
        "details": "See {IERC165-supportsInterface}."
      },
      "symbol()": {
        "details": "Returns the symbol of the token, usually a shorter version of the name."
      },
      "totalAssets()": {
        "details": "Total amount of the underlying asset that is managed by Vault*"
      },
      "totalSupply()": {
        "details": "See {IERC20-totalSupply}."
      },
      "transfer(address,uint256)": {
        "details": "See {IERC20-transfer}. Requirements: - `to` cannot be the zero address. - the caller must have a balance of at least `amount`."
      },
      "transferFrom(address,address,uint256)": {
        "details": "See {IERC20-transferFrom}. Emits an {Approval} event indicating the updated allowance. This is not required by the EIP. See the note at the beginning of {ERC20}. NOTE: Does not update the allowance if the current allowance is the maximum `uint256`. Requirements: - `from` and `to` cannot be the zero address. - `from` must have a balance of at least `amount`. - the caller must have allowance for ``from``'s tokens of at least `amount`."
      },
      "upgradeTo(address)": {
        "details": "Upgrade the implementation of the proxy to `newImplementation`. Calls {_authorizeUpgrade}. Emits an {Upgraded} event."
      },
      "upgradeToAndCall(address,bytes)": {
        "details": "Upgrade the implementation of the proxy to `newImplementation`, and subsequently execute the function call encoded in `data`. Calls {_authorizeUpgrade}. Emits an {Upgraded} event."
      },
      "withdraw(uint256,address,address)": {
        "details": "Burns shares from owner and sends exactly assets of underlying tokens to receiver."
      }
    },
    "version": 1
  },
  "userdoc": {
    "kind": "user",
    "methods": {},
    "version": 1
  },
  "storageLayout": {
    "storage": [
      {
        "astId": 808,
        "contract": "contracts/WrappedUsdPlusToken.sol:WrappedUsdPlusToken",
        "label": "_initialized",
        "offset": 0,
        "slot": "0",
        "type": "t_uint8"
      },
      {
        "astId": 811,
        "contract": "contracts/WrappedUsdPlusToken.sol:WrappedUsdPlusToken",
        "label": "_initializing",
        "offset": 1,
        "slot": "0",
        "type": "t_bool"
      },
      {
        "astId": 2213,
        "contract": "contracts/WrappedUsdPlusToken.sol:WrappedUsdPlusToken",
        "label": "__gap",
        "offset": 0,
        "slot": "1",
        "type": "t_array(t_uint256)50_storage"
      },
      {
        "astId": 1234,
        "contract": "contracts/WrappedUsdPlusToken.sol:WrappedUsdPlusToken",
        "label": "_balances",
        "offset": 0,
        "slot": "51",
        "type": "t_mapping(t_address,t_uint256)"
      },
      {
        "astId": 1240,
        "contract": "contracts/WrappedUsdPlusToken.sol:WrappedUsdPlusToken",
        "label": "_allowances",
        "offset": 0,
        "slot": "52",
        "type": "t_mapping(t_address,t_mapping(t_address,t_uint256))"
      },
      {
        "astId": 1242,
        "contract": "contracts/WrappedUsdPlusToken.sol:WrappedUsdPlusToken",
        "label": "_totalSupply",
        "offset": 0,
        "slot": "53",
        "type": "t_uint256"
      },
      {
        "astId": 1244,
        "contract": "contracts/WrappedUsdPlusToken.sol:WrappedUsdPlusToken",
        "label": "_name",
        "offset": 0,
        "slot": "54",
        "type": "t_string_storage"
      },
      {
        "astId": 1246,
        "contract": "contracts/WrappedUsdPlusToken.sol:WrappedUsdPlusToken",
        "label": "_symbol",
        "offset": 0,
        "slot": "55",
        "type": "t_string_storage"
      },
      {
        "astId": 1825,
        "contract": "contracts/WrappedUsdPlusToken.sol:WrappedUsdPlusToken",
        "label": "__gap",
        "offset": 0,
        "slot": "56",
        "type": "t_array(t_uint256)45_storage"
      },
      {
        "astId": 2543,
        "contract": "contracts/WrappedUsdPlusToken.sol:WrappedUsdPlusToken",
        "label": "__gap",
        "offset": 0,
        "slot": "101",
        "type": "t_array(t_uint256)50_storage"
      },
      {
        "astId": 39,
        "contract": "contracts/WrappedUsdPlusToken.sol:WrappedUsdPlusToken",
        "label": "_roles",
        "offset": 0,
        "slot": "151",
        "type": "t_mapping(t_bytes32,t_struct(RoleData)34_storage)"
      },
      {
        "astId": 338,
        "contract": "contracts/WrappedUsdPlusToken.sol:WrappedUsdPlusToken",
        "label": "__gap",
        "offset": 0,
        "slot": "152",
        "type": "t_array(t_uint256)49_storage"
      },
      {
        "astId": 790,
        "contract": "contracts/WrappedUsdPlusToken.sol:WrappedUsdPlusToken",
        "label": "__gap",
        "offset": 0,
        "slot": "201",
        "type": "t_array(t_uint256)50_storage"
      },
      {
        "astId": 1087,
        "contract": "contracts/WrappedUsdPlusToken.sol:WrappedUsdPlusToken",
        "label": "__gap",
        "offset": 0,
        "slot": "251",
        "type": "t_array(t_uint256)50_storage"
      },
      {
        "astId": 7991,
        "contract": "contracts/WrappedUsdPlusToken.sol:WrappedUsdPlusToken",
        "label": "asset",
        "offset": 0,
        "slot": "301",
        "type": "t_contract(IUsdPlusToken)9140"
      }
    ],
    "types": {
      "t_address": {
        "encoding": "inplace",
        "label": "address",
        "numberOfBytes": "20"
      },
      "t_array(t_uint256)45_storage": {
        "base": "t_uint256",
        "encoding": "inplace",
        "label": "uint256[45]",
        "numberOfBytes": "1440"
      },
      "t_array(t_uint256)49_storage": {
        "base": "t_uint256",
        "encoding": "inplace",
        "label": "uint256[49]",
        "numberOfBytes": "1568"
      },
      "t_array(t_uint256)50_storage": {
        "base": "t_uint256",
        "encoding": "inplace",
        "label": "uint256[50]",
        "numberOfBytes": "1600"
      },
      "t_bool": {
        "encoding": "inplace",
        "label": "bool",
        "numberOfBytes": "1"
      },
      "t_bytes32": {
        "encoding": "inplace",
        "label": "bytes32",
        "numberOfBytes": "32"
      },
      "t_contract(IUsdPlusToken)9140": {
        "encoding": "inplace",
        "label": "contract IUsdPlusToken",
        "numberOfBytes": "20"
      },
      "t_mapping(t_address,t_bool)": {
        "encoding": "mapping",
        "key": "t_address",
        "label": "mapping(address => bool)",
        "numberOfBytes": "32",
        "value": "t_bool"
      },
      "t_mapping(t_address,t_mapping(t_address,t_uint256))": {
        "encoding": "mapping",
        "key": "t_address",
        "label": "mapping(address => mapping(address => uint256))",
        "numberOfBytes": "32",
        "value": "t_mapping(t_address,t_uint256)"
      },
      "t_mapping(t_address,t_uint256)": {
        "encoding": "mapping",
        "key": "t_address",
        "label": "mapping(address => uint256)",
        "numberOfBytes": "32",
        "value": "t_uint256"
      },
      "t_mapping(t_bytes32,t_struct(RoleData)34_storage)": {
        "encoding": "mapping",
        "key": "t_bytes32",
        "label": "mapping(bytes32 => struct AccessControlUpgradeable.RoleData)",
        "numberOfBytes": "32",
        "value": "t_struct(RoleData)34_storage"
      },
      "t_string_storage": {
        "encoding": "bytes",
        "label": "string",
        "numberOfBytes": "32"
      },
      "t_struct(RoleData)34_storage": {
        "encoding": "inplace",
        "label": "struct AccessControlUpgradeable.RoleData",
        "members": [
          {
            "astId": 31,
            "contract": "contracts/WrappedUsdPlusToken.sol:WrappedUsdPlusToken",
            "label": "members",
            "offset": 0,
            "slot": "0",
            "type": "t_mapping(t_address,t_bool)"
          },
          {
            "astId": 33,
            "contract": "contracts/WrappedUsdPlusToken.sol:WrappedUsdPlusToken",
            "label": "adminRole",
            "offset": 0,
            "slot": "1",
            "type": "t_bytes32"
          }
        ],
        "numberOfBytes": "64"
      },
      "t_uint256": {
        "encoding": "inplace",
        "label": "uint256",
        "numberOfBytes": "32"
      },
      "t_uint8": {
        "encoding": "inplace",
        "label": "uint8",
        "numberOfBytes": "1"
      }
    }
  }
}