{
  "address": "0x65AfD05fbc4413948ffaaD8bCb13f71b6f79332D",
  "abi": [
    {
      "inputs": [
        {
          "internalType": "contract ERC20Votes",
          "name": "_token",
          "type": "address"
        },
        {
          "internalType": "contract TimelockController",
          "name": "_timelock",
          "type": "address"
        }
      ],
      "stateMutability": "nonpayable",
      "type": "constructor"
    },
    {
      "anonymous": false,
      "inputs": [
        {
          "indexed": false,
          "internalType": "uint256",
          "name": "proposalId",
          "type": "uint256"
        }
      ],
      "name": "ProposalCanceled",
      "type": "event"
    },
    {
      "anonymous": false,
      "inputs": [
        {
          "indexed": false,
          "internalType": "uint256",
          "name": "proposalId",
          "type": "uint256"
        },
        {
          "indexed": false,
          "internalType": "address",
          "name": "proposer",
          "type": "address"
        },
        {
          "indexed": false,
          "internalType": "address[]",
          "name": "targets",
          "type": "address[]"
        },
        {
          "indexed": false,
          "internalType": "uint256[]",
          "name": "values",
          "type": "uint256[]"
        },
        {
          "indexed": false,
          "internalType": "string[]",
          "name": "signatures",
          "type": "string[]"
        },
        {
          "indexed": false,
          "internalType": "bytes[]",
          "name": "calldatas",
          "type": "bytes[]"
        },
        {
          "indexed": false,
          "internalType": "uint256",
          "name": "startBlock",
          "type": "uint256"
        },
        {
          "indexed": false,
          "internalType": "uint256",
          "name": "endBlock",
          "type": "uint256"
        },
        {
          "indexed": false,
          "internalType": "string",
          "name": "description",
          "type": "string"
        }
      ],
      "name": "ProposalCreated",
      "type": "event"
    },
    {
      "anonymous": false,
      "inputs": [
        {
          "indexed": false,
          "internalType": "uint256",
          "name": "proposalId",
          "type": "uint256"
        }
      ],
      "name": "ProposalExecuted",
      "type": "event"
    },
    {
      "anonymous": false,
      "inputs": [
        {
          "indexed": false,
          "internalType": "uint256",
          "name": "proposalId",
          "type": "uint256"
        },
        {
          "indexed": false,
          "internalType": "uint256",
          "name": "eta",
          "type": "uint256"
        }
      ],
      "name": "ProposalQueued",
      "type": "event"
    },
    {
      "anonymous": false,
      "inputs": [
        {
          "indexed": false,
          "internalType": "uint256",
          "name": "oldProposalThreshold",
          "type": "uint256"
        },
        {
          "indexed": false,
          "internalType": "uint256",
          "name": "newProposalThreshold",
          "type": "uint256"
        }
      ],
      "name": "ProposalThresholdSet",
      "type": "event"
    },
    {
      "anonymous": false,
      "inputs": [
        {
          "indexed": false,
          "internalType": "uint256",
          "name": "oldQuorumNumerator",
          "type": "uint256"
        },
        {
          "indexed": false,
          "internalType": "uint256",
          "name": "newQuorumNumerator",
          "type": "uint256"
        }
      ],
      "name": "QuorumNumeratorUpdated",
      "type": "event"
    },
    {
      "anonymous": false,
      "inputs": [
        {
          "indexed": false,
          "internalType": "address",
          "name": "oldTimelock",
          "type": "address"
        },
        {
          "indexed": false,
          "internalType": "address",
          "name": "newTimelock",
          "type": "address"
        }
      ],
      "name": "TimelockChange",
      "type": "event"
    },
    {
      "anonymous": false,
      "inputs": [
        {
          "indexed": true,
          "internalType": "address",
          "name": "voter",
          "type": "address"
        },
        {
          "indexed": false,
          "internalType": "uint256",
          "name": "proposalId",
          "type": "uint256"
        },
        {
          "indexed": false,
          "internalType": "uint8",
          "name": "support",
          "type": "uint8"
        },
        {
          "indexed": false,
          "internalType": "uint256",
          "name": "weight",
          "type": "uint256"
        },
        {
          "indexed": false,
          "internalType": "string",
          "name": "reason",
          "type": "string"
        }
      ],
      "name": "VoteCast",
      "type": "event"
    },
    {
      "anonymous": false,
      "inputs": [
        {
          "indexed": false,
          "internalType": "uint256",
          "name": "oldVotingDelay",
          "type": "uint256"
        },
        {
          "indexed": false,
          "internalType": "uint256",
          "name": "newVotingDelay",
          "type": "uint256"
        }
      ],
      "name": "VotingDelaySet",
      "type": "event"
    },
    {
      "anonymous": false,
      "inputs": [
        {
          "indexed": false,
          "internalType": "uint256",
          "name": "oldVotingPeriod",
          "type": "uint256"
        },
        {
          "indexed": false,
          "internalType": "uint256",
          "name": "newVotingPeriod",
          "type": "uint256"
        }
      ],
      "name": "VotingPeriodSet",
      "type": "event"
    },
    {
      "inputs": [],
      "name": "BALLOT_TYPEHASH",
      "outputs": [
        {
          "internalType": "bytes32",
          "name": "",
          "type": "bytes32"
        }
      ],
      "stateMutability": "view",
      "type": "function"
    },
    {
      "inputs": [],
      "name": "COUNTING_MODE",
      "outputs": [
        {
          "internalType": "string",
          "name": "",
          "type": "string"
        }
      ],
      "stateMutability": "pure",
      "type": "function"
    },
    {
      "inputs": [
        {
          "internalType": "uint256",
          "name": "proposalId",
          "type": "uint256"
        }
      ],
      "name": "cancel",
      "outputs": [],
      "stateMutability": "nonpayable",
      "type": "function"
    },
    {
      "inputs": [
        {
          "internalType": "uint256",
          "name": "proposalId",
          "type": "uint256"
        },
        {
          "internalType": "uint8",
          "name": "support",
          "type": "uint8"
        }
      ],
      "name": "castVote",
      "outputs": [
        {
          "internalType": "uint256",
          "name": "",
          "type": "uint256"
        }
      ],
      "stateMutability": "nonpayable",
      "type": "function"
    },
    {
      "inputs": [
        {
          "internalType": "uint256",
          "name": "proposalId",
          "type": "uint256"
        },
        {
          "internalType": "uint8",
          "name": "support",
          "type": "uint8"
        },
        {
          "internalType": "uint8",
          "name": "v",
          "type": "uint8"
        },
        {
          "internalType": "bytes32",
          "name": "r",
          "type": "bytes32"
        },
        {
          "internalType": "bytes32",
          "name": "s",
          "type": "bytes32"
        }
      ],
      "name": "castVoteBySig",
      "outputs": [
        {
          "internalType": "uint256",
          "name": "",
          "type": "uint256"
        }
      ],
      "stateMutability": "nonpayable",
      "type": "function"
    },
    {
      "inputs": [
        {
          "internalType": "uint256",
          "name": "proposalId",
          "type": "uint256"
        },
        {
          "internalType": "uint8",
          "name": "support",
          "type": "uint8"
        },
        {
          "internalType": "string",
          "name": "reason",
          "type": "string"
        }
      ],
      "name": "castVoteWithReason",
      "outputs": [
        {
          "internalType": "uint256",
          "name": "",
          "type": "uint256"
        }
      ],
      "stateMutability": "nonpayable",
      "type": "function"
    },
    {
      "inputs": [
        {
          "internalType": "address[]",
          "name": "targets",
          "type": "address[]"
        },
        {
          "internalType": "uint256[]",
          "name": "values",
          "type": "uint256[]"
        },
        {
          "internalType": "bytes[]",
          "name": "calldatas",
          "type": "bytes[]"
        },
        {
          "internalType": "bytes32",
          "name": "descriptionHash",
          "type": "bytes32"
        }
      ],
      "name": "execute",
      "outputs": [
        {
          "internalType": "uint256",
          "name": "",
          "type": "uint256"
        }
      ],
      "stateMutability": "payable",
      "type": "function"
    },
    {
      "inputs": [
        {
          "internalType": "uint256",
          "name": "proposalId",
          "type": "uint256"
        }
      ],
      "name": "execute",
      "outputs": [],
      "stateMutability": "payable",
      "type": "function"
    },
    {
      "inputs": [
        {
          "internalType": "uint256",
          "name": "proposalId",
          "type": "uint256"
        }
      ],
      "name": "executeExec",
      "outputs": [],
      "stateMutability": "nonpayable",
      "type": "function"
    },
    {
      "inputs": [
        {
          "internalType": "uint256",
          "name": "proposalId",
          "type": "uint256"
        }
      ],
      "name": "getActions",
      "outputs": [
        {
          "internalType": "address[]",
          "name": "targets",
          "type": "address[]"
        },
        {
          "internalType": "uint256[]",
          "name": "values",
          "type": "uint256[]"
        },
        {
          "internalType": "string[]",
          "name": "signatures",
          "type": "string[]"
        },
        {
          "internalType": "bytes[]",
          "name": "calldatas",
          "type": "bytes[]"
        }
      ],
      "stateMutability": "view",
      "type": "function"
    },
    {
      "inputs": [],
      "name": "getProposals",
      "outputs": [
        {
          "internalType": "uint256[]",
          "name": "",
          "type": "uint256[]"
        }
      ],
      "stateMutability": "view",
      "type": "function"
    },
    {
      "inputs": [
        {
          "internalType": "uint256",
          "name": "proposalId",
          "type": "uint256"
        },
        {
          "internalType": "address",
          "name": "voter",
          "type": "address"
        }
      ],
      "name": "getReceipt",
      "outputs": [
        {
          "components": [
            {
              "internalType": "bool",
              "name": "hasVoted",
              "type": "bool"
            },
            {
              "internalType": "uint8",
              "name": "support",
              "type": "uint8"
            },
            {
              "internalType": "uint96",
              "name": "votes",
              "type": "uint96"
            }
          ],
          "internalType": "struct IGovernorCompatibilityBravo.Receipt",
          "name": "",
          "type": "tuple"
        }
      ],
      "stateMutability": "view",
      "type": "function"
    },
    {
      "inputs": [
        {
          "internalType": "address",
          "name": "account",
          "type": "address"
        },
        {
          "internalType": "uint256",
          "name": "blockNumber",
          "type": "uint256"
        }
      ],
      "name": "getVotes",
      "outputs": [
        {
          "internalType": "uint256",
          "name": "",
          "type": "uint256"
        }
      ],
      "stateMutability": "view",
      "type": "function"
    },
    {
      "inputs": [
        {
          "internalType": "uint256",
          "name": "proposalId",
          "type": "uint256"
        },
        {
          "internalType": "address",
          "name": "account",
          "type": "address"
        }
      ],
      "name": "hasVoted",
      "outputs": [
        {
          "internalType": "bool",
          "name": "",
          "type": "bool"
        }
      ],
      "stateMutability": "view",
      "type": "function"
    },
    {
      "inputs": [
        {
          "internalType": "address[]",
          "name": "targets",
          "type": "address[]"
        },
        {
          "internalType": "uint256[]",
          "name": "values",
          "type": "uint256[]"
        },
        {
          "internalType": "bytes[]",
          "name": "calldatas",
          "type": "bytes[]"
        },
        {
          "internalType": "bytes32",
          "name": "descriptionHash",
          "type": "bytes32"
        }
      ],
      "name": "hashProposal",
      "outputs": [
        {
          "internalType": "uint256",
          "name": "",
          "type": "uint256"
        }
      ],
      "stateMutability": "pure",
      "type": "function"
    },
    {
      "inputs": [],
      "name": "name",
      "outputs": [
        {
          "internalType": "string",
          "name": "",
          "type": "string"
        }
      ],
      "stateMutability": "view",
      "type": "function"
    },
    {
      "inputs": [
        {
          "internalType": "uint256",
          "name": "proposalId",
          "type": "uint256"
        }
      ],
      "name": "proposalDeadline",
      "outputs": [
        {
          "internalType": "uint256",
          "name": "",
          "type": "uint256"
        }
      ],
      "stateMutability": "view",
      "type": "function"
    },
    {
      "inputs": [
        {
          "internalType": "uint256",
          "name": "proposalId",
          "type": "uint256"
        }
      ],
      "name": "proposalEta",
      "outputs": [
        {
          "internalType": "uint256",
          "name": "",
          "type": "uint256"
        }
      ],
      "stateMutability": "view",
      "type": "function"
    },
    {
      "inputs": [
        {
          "internalType": "uint256",
          "name": "proposalId",
          "type": "uint256"
        }
      ],
      "name": "proposalSnapshot",
      "outputs": [
        {
          "internalType": "uint256",
          "name": "",
          "type": "uint256"
        }
      ],
      "stateMutability": "view",
      "type": "function"
    },
    {
      "inputs": [],
      "name": "proposalThreshold",
      "outputs": [
        {
          "internalType": "uint256",
          "name": "",
          "type": "uint256"
        }
      ],
      "stateMutability": "view",
      "type": "function"
    },
    {
      "inputs": [
        {
          "internalType": "uint256",
          "name": "proposalId",
          "type": "uint256"
        }
      ],
      "name": "proposals",
      "outputs": [
        {
          "internalType": "uint256",
          "name": "id",
          "type": "uint256"
        },
        {
          "internalType": "address",
          "name": "proposer",
          "type": "address"
        },
        {
          "internalType": "uint256",
          "name": "eta",
          "type": "uint256"
        },
        {
          "internalType": "uint256",
          "name": "startBlock",
          "type": "uint256"
        },
        {
          "internalType": "uint256",
          "name": "endBlock",
          "type": "uint256"
        },
        {
          "internalType": "uint256",
          "name": "forVotes",
          "type": "uint256"
        },
        {
          "internalType": "uint256",
          "name": "againstVotes",
          "type": "uint256"
        },
        {
          "internalType": "uint256",
          "name": "abstainVotes",
          "type": "uint256"
        },
        {
          "internalType": "bool",
          "name": "canceled",
          "type": "bool"
        },
        {
          "internalType": "bool",
          "name": "executed",
          "type": "bool"
        }
      ],
      "stateMutability": "view",
      "type": "function"
    },
    {
      "inputs": [
        {
          "internalType": "address[]",
          "name": "targets",
          "type": "address[]"
        },
        {
          "internalType": "uint256[]",
          "name": "values",
          "type": "uint256[]"
        },
        {
          "internalType": "bytes[]",
          "name": "calldatas",
          "type": "bytes[]"
        },
        {
          "internalType": "string",
          "name": "description",
          "type": "string"
        }
      ],
      "name": "propose",
      "outputs": [
        {
          "internalType": "uint256",
          "name": "",
          "type": "uint256"
        }
      ],
      "stateMutability": "nonpayable",
      "type": "function"
    },
    {
      "inputs": [
        {
          "internalType": "address[]",
          "name": "targets",
          "type": "address[]"
        },
        {
          "internalType": "uint256[]",
          "name": "values",
          "type": "uint256[]"
        },
        {
          "internalType": "string[]",
          "name": "signatures",
          "type": "string[]"
        },
        {
          "internalType": "bytes[]",
          "name": "calldatas",
          "type": "bytes[]"
        },
        {
          "internalType": "string",
          "name": "description",
          "type": "string"
        }
      ],
      "name": "propose",
      "outputs": [
        {
          "internalType": "uint256",
          "name": "",
          "type": "uint256"
        }
      ],
      "stateMutability": "nonpayable",
      "type": "function"
    },
    {
      "inputs": [
        {
          "internalType": "address[]",
          "name": "targets",
          "type": "address[]"
        },
        {
          "internalType": "uint256[]",
          "name": "values",
          "type": "uint256[]"
        },
        {
          "internalType": "bytes[]",
          "name": "calldatas",
          "type": "bytes[]"
        },
        {
          "internalType": "string",
          "name": "description",
          "type": "string"
        }
      ],
      "name": "proposeExec",
      "outputs": [
        {
          "internalType": "uint256",
          "name": "",
          "type": "uint256"
        }
      ],
      "stateMutability": "nonpayable",
      "type": "function"
    },
    {
      "inputs": [
        {
          "internalType": "address[]",
          "name": "targets",
          "type": "address[]"
        },
        {
          "internalType": "uint256[]",
          "name": "values",
          "type": "uint256[]"
        },
        {
          "internalType": "bytes[]",
          "name": "calldatas",
          "type": "bytes[]"
        },
        {
          "internalType": "bytes32",
          "name": "descriptionHash",
          "type": "bytes32"
        }
      ],
      "name": "queue",
      "outputs": [
        {
          "internalType": "uint256",
          "name": "",
          "type": "uint256"
        }
      ],
      "stateMutability": "nonpayable",
      "type": "function"
    },
    {
      "inputs": [
        {
          "internalType": "uint256",
          "name": "proposalId",
          "type": "uint256"
        }
      ],
      "name": "queue",
      "outputs": [],
      "stateMutability": "nonpayable",
      "type": "function"
    },
    {
      "inputs": [
        {
          "internalType": "uint256",
          "name": "proposalId",
          "type": "uint256"
        }
      ],
      "name": "queueExec",
      "outputs": [],
      "stateMutability": "nonpayable",
      "type": "function"
    },
    {
      "inputs": [
        {
          "internalType": "uint256",
          "name": "blockNumber",
          "type": "uint256"
        }
      ],
      "name": "quorum",
      "outputs": [
        {
          "internalType": "uint256",
          "name": "",
          "type": "uint256"
        }
      ],
      "stateMutability": "view",
      "type": "function"
    },
    {
      "inputs": [],
      "name": "quorumDenominator",
      "outputs": [
        {
          "internalType": "uint256",
          "name": "",
          "type": "uint256"
        }
      ],
      "stateMutability": "view",
      "type": "function"
    },
    {
      "inputs": [],
      "name": "quorumNumerator",
      "outputs": [
        {
          "internalType": "uint256",
          "name": "",
          "type": "uint256"
        }
      ],
      "stateMutability": "view",
      "type": "function"
    },
    {
      "inputs": [
        {
          "internalType": "uint256",
          "name": "proposalId",
          "type": "uint256"
        }
      ],
      "name": "quorumReached",
      "outputs": [
        {
          "internalType": "bool",
          "name": "",
          "type": "bool"
        }
      ],
      "stateMutability": "view",
      "type": "function"
    },
    {
      "inputs": [],
      "name": "quorumVotes",
      "outputs": [
        {
          "internalType": "uint256",
          "name": "",
          "type": "uint256"
        }
      ],
      "stateMutability": "view",
      "type": "function"
    },
    {
      "inputs": [
        {
          "internalType": "uint256",
          "name": "newProposalThreshold",
          "type": "uint256"
        }
      ],
      "name": "setProposalThreshold",
      "outputs": [],
      "stateMutability": "nonpayable",
      "type": "function"
    },
    {
      "inputs": [
        {
          "internalType": "uint256",
          "name": "newVotingDelay",
          "type": "uint256"
        }
      ],
      "name": "setVotingDelay",
      "outputs": [],
      "stateMutability": "nonpayable",
      "type": "function"
    },
    {
      "inputs": [
        {
          "internalType": "uint256",
          "name": "newVotingPeriod",
          "type": "uint256"
        }
      ],
      "name": "setVotingPeriod",
      "outputs": [],
      "stateMutability": "nonpayable",
      "type": "function"
    },
    {
      "inputs": [
        {
          "internalType": "uint256",
          "name": "proposalId",
          "type": "uint256"
        }
      ],
      "name": "state",
      "outputs": [
        {
          "internalType": "enum IGovernor.ProposalState",
          "name": "",
          "type": "uint8"
        }
      ],
      "stateMutability": "view",
      "type": "function"
    },
    {
      "inputs": [
        {
          "internalType": "bytes4",
          "name": "interfaceId",
          "type": "bytes4"
        }
      ],
      "name": "supportsInterface",
      "outputs": [
        {
          "internalType": "bool",
          "name": "",
          "type": "bool"
        }
      ],
      "stateMutability": "view",
      "type": "function"
    },
    {
      "inputs": [],
      "name": "timelock",
      "outputs": [
        {
          "internalType": "address",
          "name": "",
          "type": "address"
        }
      ],
      "stateMutability": "view",
      "type": "function"
    },
    {
      "inputs": [],
      "name": "token",
      "outputs": [
        {
          "internalType": "contract ERC20Votes",
          "name": "",
          "type": "address"
        }
      ],
      "stateMutability": "view",
      "type": "function"
    },
    {
      "inputs": [
        {
          "internalType": "uint256",
          "name": "newQuorumNumerator",
          "type": "uint256"
        }
      ],
      "name": "updateQuorumNumerator",
      "outputs": [],
      "stateMutability": "nonpayable",
      "type": "function"
    },
    {
      "inputs": [
        {
          "internalType": "contract TimelockController",
          "name": "newTimelock",
          "type": "address"
        }
      ],
      "name": "updateTimelock",
      "outputs": [],
      "stateMutability": "nonpayable",
      "type": "function"
    },
    {
      "inputs": [],
      "name": "version",
      "outputs": [
        {
          "internalType": "string",
          "name": "",
          "type": "string"
        }
      ],
      "stateMutability": "view",
      "type": "function"
    },
    {
      "inputs": [
        {
          "internalType": "uint256",
          "name": "proposalId",
          "type": "uint256"
        }
      ],
      "name": "voteSucceeded",
      "outputs": [
        {
          "internalType": "bool",
          "name": "",
          "type": "bool"
        }
      ],
      "stateMutability": "view",
      "type": "function"
    },
    {
      "inputs": [],
      "name": "votingDelay",
      "outputs": [
        {
          "internalType": "uint256",
          "name": "",
          "type": "uint256"
        }
      ],
      "stateMutability": "view",
      "type": "function"
    },
    {
      "inputs": [],
      "name": "votingPeriod",
      "outputs": [
        {
          "internalType": "uint256",
          "name": "",
          "type": "uint256"
        }
      ],
      "stateMutability": "view",
      "type": "function"
    },
    {
      "stateMutability": "payable",
      "type": "receive"
    }
  ],
  "transactionHash": "0xc11024e4f6dd7bc59c1e20a45ab90ffa14711c37a3b5956aa1344afedc856493",
  "args": [
    "0x9d40623e370beBbc3AA6bf4F0b68c452e646b6D0",
    "0x01d308BCC2b9903A56FA8ADa895D2FC89a8beBCd"
  ],
  "solcInputHash": "db367ed1d484e22895c5028899544741",
  "bytecode": "0x6101606040523480156200001257600080fd5b506040516200485038038062004850833981016040819052620000359162000492565b80604b836001602d60006040518060400160405280600b81526020016a27bb3723b7bb32b93737b960a91b81525080620000746200017560201b60201c565b815160208084019190912082518383012060e08290526101008190524660a0818152604080517f8b73c3c69bb8fe3d512ecc4cf759cc79239f7b179b0ffacaa9a75d522b39400f81880181905281830187905260608201869052608082019490945230818401528151808203909301835260c00190528051940193909320919290916080523060601b60c05261012052505082516200011d9250600091506020840190620003ec565b506200012b90508362000190565b6200013682620001d1565b620001418162000278565b50505060601b6001600160601b031916610140526200016081620002b9565b506200016c8162000383565b50505062000527565b6040805180820190915260018152603160f81b602082015290565b60025460408051918252602082018390527fc565b045403dc03c2eea82b81a0465edad9e2e7fc4d97e11421c209da93d7a93910160405180910390a1600255565b60008111620002375760405162461bcd60e51b815260206004820152602760248201527f476f7665726e6f7253657474696e67733a20766f74696e6720706572696f6420604482015266746f6f206c6f7760c81b60648201526084015b60405180910390fd5b60035460408051918252602082018390527f7e3f7f0708a84de9203036abaa450dccc85ad5ff52f78c170f3edb55cf5e8828910160405180910390a1600355565b60045460408051918252602082018390527fccb45da8d5717e6c4544694297c4ba5cf151d455c9bb0ed4fc7a38411bc05461910160405180910390a1600455565b60648111156200033e5760405162461bcd60e51b815260206004820152604360248201527f476f7665726e6f72566f74657351756f72756d4672616374696f6e3a2071756f60448201527f72756d4e756d657261746f72206f7665722071756f72756d44656e6f6d696e616064820152623a37b960e91b608482015260a4016200022e565b600680549082905560408051828152602081018490527f0553476bf02ef2726e8ce5ced78d63e26e602e4a2257b1f559418e24b4633997910160405180910390a15050565b600754604080516001600160a01b03928316815291831660208301527f08f74ea46ef7894f65eabfb5e6e695de773a000b47c529ab559178069b226401910160405180910390a1600780546001600160a01b0319166001600160a01b0392909216919091179055565b828054620003fa90620004d1565b90600052602060002090601f0160209004810192826200041e576000855562000469565b82601f106200043957805160ff191683800117855562000469565b8280016001018555821562000469579182015b82811115620004695782518255916020019190600101906200044c565b50620004779291506200047b565b5090565b5b808211156200047757600081556001016200047c565b60008060408385031215620004a657600080fd5b8251620004b3816200050e565b6020840151909250620004c6816200050e565b809150509250929050565b600181811c90821680620004e657607f821691505b602082108114156200050857634e487b7160e01b600052602260045260246000fd5b50919050565b6001600160a01b03811681146200052457600080fd5b50565b60805160a05160c05160601c60e05161010051610120516101405160601c6142ba62000596600039600081816109800152818161251901526125f3015260006127bc0152600061280b015260006127e60152600061273f015260006127690152600061279301526142ba6000f3fe6080604052600436106102765760003560e01c80637d5e81e21161014f578063d4a8dd98116100c1578063ea0217cf1161007a578063ea0217cf146108ee578063eb9019d41461090e578063ece40cc11461092e578063f8ce560a1461094e578063fc0c546a1461096e578063fe0d94c1146109a257600080fd5b8063d4a8dd981461074a578063da95691a1461076a578063dd4e2ba51461078a578063ddf0b009146107d0578063deaaa7cc146107f0578063e23a9a521461082457600080fd5b8063a890c91011610113578063a890c91014610683578063ab58fb8e146106a3578063b58131b0146106c3578063c01f9e37146106d8578063c59057e4146106f8578063d33219b41461071857600080fd5b80637d5e81e2146105fa5780638d73b0311461061a5780638f3f7d581461063a57806397c3d3341461065a578063a7713a701461066e57600080fd5b80633932abb1116101e857806354fd4d50116101ac57806354fd4d501461052e57806356781388146105585780635c1ba6471461057857806362564c481461059857806370b0f660146105ba5780637b3c71d3146105da57600080fd5b80633932abb1146104625780633bccf4fd146104775780633e4f49e61461049757806340e58ee5146104c457806343859632146104e457600080fd5b8063160cbed71161023a578063160cbed7146103aa57806324bc1a64146103ca5780632656227d146103df5780632c23c67f146103f25780632d63f69314610412578063328dd9821461043257600080fd5b8063013cf08b1461029e57806301ffc9a71461031957806302a251a31461034957806306f3f9e61461036857806306fdde031461038857600080fd5b3661029957306102846109b5565b6001600160a01b03161461029757600080fd5b005b600080fd5b3480156102aa57600080fd5b506102be6102b9366004613b3f565b6109ce565b604080519a8b526001600160a01b0390991660208b0152978901969096526060880194909452608087019290925260a086015260c085015260e084015215156101008301521515610120820152610140015b60405180910390f35b34801561032557600080fd5b50610339610334366004613af8565b610a77565b6040519015158152602001610310565b34801561035557600080fd5b506003545b604051908152602001610310565b34801561037457600080fd5b50610297610383366004613b3f565b610a88565b34801561039457600080fd5b5061039d610ad5565b6040516103109190613eea565b3480156103b657600080fd5b5061035a6103c53660046138b1565b610b67565b3480156103d657600080fd5b5061035a610d86565b61035a6103ed3660046138b1565b610d96565b3480156103fe57600080fd5b5061029761040d366004613b3f565b610e69565b34801561041e57600080fd5b5061035a61042d366004613b3f565b610e72565b34801561043e57600080fd5b5061045261044d366004613b3f565b610ea9565b6040516103109493929190613e8a565b34801561046e57600080fd5b5060025461035a565b34801561048357600080fd5b5061035a610492366004613c3a565b61113a565b3480156104a357600080fd5b506104b76104b2366004613b3f565b6111ce565b6040516103109190613efd565b3480156104d057600080fd5b506102976104df366004613b3f565b6111d9565b3480156104f057600080fd5b506103396104ff366004613b58565b60008281526005602090815260408083206001600160a01b038516845260080190915290205460ff1692915050565b34801561053a57600080fd5b506040805180820190915260018152603160f81b602082015261039d565b34801561056457600080fd5b5061035a610573366004613b88565b6114f1565b34801561058457600080fd5b5061035a610593366004613940565b61151a565b3480156105a457600080fd5b506105ad611568565b6040516103109190613ed7565b3480156105c657600080fd5b506102976105d5366004613b3f565b6115bf565b3480156105e657600080fd5b5061035a6105f5366004613bb4565b611600565b34801561060657600080fd5b5061035a610615366004613940565b611652565b34801561062657600080fd5b50610339610635366004613b3f565b611669565b34801561064657600080fd5b50610297610655366004613b3f565b611687565b34801561066657600080fd5b50606461035a565b34801561067a57600080fd5b5060065461035a565b34801561068f57600080fd5b5061029761069e366004613b22565b611690565b3480156106af57600080fd5b5061035a6106be366004613b3f565b6116d1565b3480156106cf57600080fd5b5061035a61177b565b3480156106e457600080fd5b5061035a6106f3366004613b3f565b611786565b34801561070457600080fd5b5061035a6107133660046138b1565b6117b5565b34801561072457600080fd5b506007546001600160a01b03165b6040516001600160a01b039091168152602001610310565b34801561075657600080fd5b50610339610765366004613b3f565b6117ef565b34801561077657600080fd5b5061035a6107853660046139ec565b6117fa565b34801561079657600080fd5b5060408051808201909152601a81527f737570706f72743d627261766f2671756f72756d3d627261766f000000000000602082015261039d565b3480156107dc57600080fd5b506102976107eb366004613b3f565b61181f565b3480156107fc57600080fd5b5061035a7f150214d74d59b7d1e90c73fc22ef3d991dd0a76b046543d4d80ab92d2a50328f81565b34801561083057600080fd5b506108be61083f366004613b58565b60408051606081018252600080825260208201819052918101919091525060009182526005602090815260408084206001600160a01b0393909316845260089092018152918190208151606081018352905460ff8082161515835261010082041693820193909352620100009092046001600160601b03169082015290565b6040805182511515815260208084015160ff1690820152918101516001600160601b031690820152606001610310565b3480156108fa57600080fd5b50610297610909366004613b3f565b611a8d565b34801561091a57600080fd5b5061035a610929366004613885565b611ace565b34801561093a57600080fd5b50610297610949366004613b3f565b611ada565b34801561095a57600080fd5b5061035a610969366004613b3f565b611b1b565b34801561097a57600080fd5b506107327f000000000000000000000000000000000000000000000000000000000000000081565b6102976109b0366004613b3f565b611b26565b60006109c96007546001600160a01b031690565b905090565b80600080808080808080806109e28a6116d1565b97506109ed8b610e72565b96506109f88b611786565b60008c81526005602081905260408220805491810154600682015460078301546001600160a01b039094169e50949a5098509296509450610a388d6111ce565b90506002816007811115610a4e57610a4e61422d565b1493506007816007811115610a6557610a6561422d565b14925050509193959799509193959799565b6000610a8282611d94565b92915050565b610a906109b5565b6001600160a01b0316336001600160a01b031614610ac95760405162461bcd60e51b8152600401610ac090613f25565b60405180910390fd5b610ad281611db9565b50565b606060008054610ae4906141c7565b80601f0160208091040260200160405190810160405280929190818152602001828054610b10906141c7565b8015610b5d5780601f10610b3257610100808354040283529160200191610b5d565b820191906000526020600020905b815481529060010190602001808311610b4057829003601f168201915b5050505050905090565b600080610b76868686866117b5565b90506004610b83826111ce565b6007811115610b9457610b9461422d565b14610bb15760405162461bcd60e51b8152600401610ac090613f9d565b6007546040805163793d064960e11b815290516000926001600160a01b03169163f27a0c92916004808301926020929190829003018186803b158015610bf657600080fd5b505afa158015610c0a573d6000803e3d6000fd5b505050506040513d601f19601f82011682018060405250810190610c2e9190613adf565b60075460405163b1c5f42760e01b81529192506001600160a01b03169063b1c5f42790610c68908a908a908a906000908b90600401613de4565b60206040518083038186803b158015610c8057600080fd5b505afa158015610c94573d6000803e3d6000fd5b505050506040513d601f19601f82011682018060405250810190610cb89190613adf565b6000838152600860205260408082209290925560075491516308f2a0bb60e41b81526001600160a01b0390921691638f2a0bb091610d03918b918b918b91908b908990600401613e32565b600060405180830381600087803b158015610d1d57600080fd5b505af1158015610d31573d6000803e3d6000fd5b505050507f9a2e42fd6722813d69113e7d0079d3d940171428df7373df9c7f7617cfda2892828242610d6391906140fc565b604080519283526020830191909152015b60405180910390a15095945050505050565b60006109c9610969600143614180565b600080610da5868686866117b5565b90506000610db2826111ce565b90506004816007811115610dc857610dc861422d565b1480610de557506005816007811115610de357610de361422d565b145b610e015760405162461bcd60e51b8152600401610ac090613f9d565b600082815260016020818152604092839020600201805460ff191690921790915590518381527f712ae1383f79ac853f8d882153778e0260ef8f03b504e2866e0593e04d2b291f910160405180910390a1610e5f8288888888611e81565b5095945050505050565b610ad281611b26565b60008181526001602090815260408083208151928301909152546001600160401b0316908190525b6001600160401b031692915050565b60608060608060006005600087815260200190815260200160002090508060010181600201826003018360040183805480602002602001604051908101604052809291908181526020018280548015610f2b57602002820191906000526020600020905b81546001600160a01b03168152600190910190602001808311610f0d575b5050505050935082805480602002602001604051908101604052809291908181526020018280548015610f7d57602002820191906000526020600020905b815481526020019060010190808311610f69575b5050505050925081805480602002602001604051908101604052809291908181526020016000905b82821015611051578382906000526020600020018054610fc4906141c7565b80601f0160208091040260200160405190810160405280929190818152602001828054610ff0906141c7565b801561103d5780601f106110125761010080835404028352916020019161103d565b820191906000526020600020905b81548152906001019060200180831161102057829003601f168201915b505050505081526020019060010190610fa5565b50505050915080805480602002602001604051908101604052809291908181526020016000905b82821015611124578382906000526020600020018054611097906141c7565b80601f01602080910402602001604051908101604052809291908181526020018280546110c3906141c7565b80156111105780601f106110e557610100808354040283529160200191611110565b820191906000526020600020905b8154815290600101906020018083116110f357829003601f168201915b505050505081526020019060010190611078565b5050505090509450945094509450509193509193565b604080517f150214d74d59b7d1e90c73fc22ef3d991dd0a76b046543d4d80ab92d2a50328f602082015290810186905260ff8516606082015260009081906111a69061119e9060800160405160208183030381529060405280519060200120611e95565b868686611ee3565b90506111c387828860405180602001604052806000815250611f01565b979650505050505050565b6000610a828261200c565b600081815260056020526040902080546001600160a01b0316336001600160a01b03161480611227575061120b61177b565b8154611225906001600160a01b0316610929600143614180565b105b6112835760405162461bcd60e51b815260206004820152602760248201527f476f7665726e6f72427261766f3a2070726f706f7365722061626f76652074686044820152661c995cda1bdb1960ca1b6064820152608401610ac0565b6114ec816001018054806020026020016040519081016040528092919081815260200182805480156112de57602002820191906000526020600020905b81546001600160a01b031681526001909101906020018083116112c0575b50505050508260020180548060200260200160405190810160405280929190818152602001828054801561133157602002820191906000526020600020905b81548152602001906001019080831161131d575b50505050506114e284600301805480602002602001604051908101604052809291908181526020016000905b8282101561140957838290600052602060002001805461137c906141c7565b80601f01602080910402602001604051908101604052809291908181526020018280546113a8906141c7565b80156113f55780601f106113ca576101008083540402835291602001916113f5565b820191906000526020600020905b8154815290600101906020018083116113d857829003601f168201915b50505050508152602001906001019061135d565b50505060048701805460408051602080840282018101909252828152935060009084015b828210156114d957838290600052602060002001805461144c906141c7565b80601f0160208091040260200160405190810160405280929190818152602001828054611478906141c7565b80156114c55780601f1061149a576101008083540402835291602001916114c5565b820191906000526020600020905b8154815290600101906020018083116114a857829003601f168201915b50505050508152602001906001019061142d565b505050506120e9565b8460090154612249565b505050565b60008033905061151284828560405180602001604052806000815250611f01565b949350505050565b60008061152986868686612257565b600980546001810182556000919091527f6e1540171b6c0c960b71a7020d9f60077f6af931a8bbf590da0223dacf75c7af018190559695505050505050565b60606009805480602002602001604051908101604052809291908181526020018280548015610b5d57602002820191906000526020600020905b8154815260200190600101908083116115a2575050505050905090565b6115c76109b5565b6001600160a01b0316336001600160a01b0316146115f75760405162461bcd60e51b8152600401610ac090613f25565b610ad2816122bf565b60008033905061164886828787878080601f016020809104026020016040519081016040528093929190818152602001838380828437600092019190915250611f0192505050565b9695505050505050565b600061166085858585612257565b95945050505050565b60008181526005602081905260408220600681015491015411610a82565b610ad28161181f565b6116986109b5565b6001600160a01b0316336001600160a01b0316146116c85760405162461bcd60e51b8152600401610ac090613f25565b610ad281612300565b60075460008281526008602052604080822054905163d45c443560e01b81526004810191909152909182916001600160a01b039091169063d45c44359060240160206040518083038186803b15801561172957600080fd5b505afa15801561173d573d6000803e3d6000fd5b505050506040513d601f19601f820116820180604052508101906117619190613adf565b9050806001146117715780611774565b60005b9392505050565b60006109c960045490565b60008181526001602081815260408084208151928301909152909101546001600160401b031690819052610e9a565b6000848484846040516020016117ce9493929190613d99565b60408051601f19818403018152919052805160209091012095945050505050565b6000610a8282612369565b600061180a338787878787612392565b611648868661181987876120e9565b85611652565b60008181526005602090815260409182902060018101805484518185028101850190955280855291936114ec9390929083018282801561188857602002820191906000526020600020905b81546001600160a01b0316815260019091019060200180831161186a575b5050505050826002018054806020026020016040519081016040528092919081815260200182805480156118db57602002820191906000526020600020905b8154815260200190600101908083116118c7575b5050505050611a8384600301805480602002602001604051908101604052809291908181526020016000905b828210156119b3578382906000526020600020018054611926906141c7565b80601f0160208091040260200160405190810160405280929190818152602001828054611952906141c7565b801561199f5780601f106119745761010080835404028352916020019161199f565b820191906000526020600020905b81548152906001019060200180831161198257829003601f168201915b505050505081526020019060010190611907565b50505060048701805460408051602080840282018101909252828152935060009084015b828210156114d95783829060005260206000200180546119f6906141c7565b80601f0160208091040260200160405190810160405280929190818152602001828054611a22906141c7565b8015611a6f5780601f10611a4457610100808354040283529160200191611a6f565b820191906000526020600020905b815481529060010190602001808311611a5257829003601f168201915b5050505050815260200190600101906119d7565b8460090154610b67565b611a956109b5565b6001600160a01b0316336001600160a01b031614611ac55760405162461bcd60e51b8152600401610ac090613f25565b610ad28161244f565b600061177483836124f0565b611ae26109b5565b6001600160a01b0316336001600160a01b031614611b125760405162461bcd60e51b8152600401610ac090613f25565b610ad281612595565b6000610a82826125d6565b60008181526005602090815260409182902060018101805484518185028101850190955280855291936114ec93909290830182828015611b8f57602002820191906000526020600020905b81546001600160a01b03168152600190910190602001808311611b71575b505050505082600201805480602002602001604051908101604052809291908181526020018280548015611be257602002820191906000526020600020905b815481526020019060010190808311611bce575b5050505050611d8a84600301805480602002602001604051908101604052809291908181526020016000905b82821015611cba578382906000526020600020018054611c2d906141c7565b80601f0160208091040260200160405190810160405280929190818152602001828054611c59906141c7565b8015611ca65780601f10611c7b57610100808354040283529160200191611ca6565b820191906000526020600020905b815481529060010190602001808311611c8957829003601f168201915b505050505081526020019060010190611c0e565b50505060048701805460408051602080840282018101909252828152935060009084015b828210156114d9578382906000526020600020018054611cfd906141c7565b80601f0160208091040260200160405190810160405280929190818152602001828054611d29906141c7565b8015611d765780601f10611d4b57610100808354040283529160200191611d76565b820191906000526020600020905b815481529060010190602001808311611d5957829003601f168201915b505050505081526020019060010190611cde565b8460090154610d96565b60006001600160e01b03198216636e665ced60e01b1480610a825750610a8282612689565b6064811115611e3c5760405162461bcd60e51b815260206004820152604360248201527f476f7665726e6f72566f74657351756f72756d4672616374696f6e3a2071756f60448201527f72756d4e756d657261746f72206f7665722071756f72756d44656e6f6d696e616064820152623a37b960e91b608482015260a401610ac0565b600680549082905560408051828152602081018490527f0553476bf02ef2726e8ce5ced78d63e26e602e4a2257b1f559418e24b4633997910160405180910390a15050565b611e8e85858585856126be565b5050505050565b6000610a82611ea2612732565b8360405161190160f01b6020820152602281018390526042810182905260009060620160405160208183030381529060405280519060200120905092915050565b6000806000611ef487878787612859565b91509150610e5f81612946565b6000848152600160208190526040822090611f1b876111ce565b6007811115611f2c57611f2c61422d565b14611f855760405162461bcd60e51b815260206004820152602360248201527f476f7665726e6f723a20766f7465206e6f742063757272656e746c792061637460448201526269766560e81b6064820152608401610ac0565b604080516020810190915281546001600160401b031690819052600090611fad908790611ace565b9050611fbb87878784612b01565b856001600160a01b03167fb8e138887d0aa13bab447e82de9d5c1777041ecd21ca36ba824ff1e6c07ddda488878488604051611ffa9493929190614081565b60405180910390a29695505050505050565b60008061201883612ca6565b9050600481600781111561202e5761202e61422d565b146120395792915050565b60008381526008602052604090205480612054575092915050565b600754604051632ab0f52960e01b8152600481018390526001600160a01b0390911690632ab0f5299060240160206040518083038186803b15801561209857600080fd5b505afa1580156120ac573d6000803e3d6000fd5b505050506040513d601f19601f820116820180604052508101906120d09190613abd565b156120df575060079392505050565b5060059392505050565b6060600082516001600160401b0381111561210657612106614259565b60405190808252806020026020018201604052801561213957816020015b60608152602001906001900390816121245790505b50905060005b84518110156122415784818151811061215a5761215a614243565b6020026020010151516000146121f85784818151811061217c5761217c614243565b602002602001015184828151811061219657612196614243565b60200260200101516040516024016121ae9190613eea565b60408051601f1981840301815290829052916121c991613d7d565b6040519081900390206020820180516001600160e01b03166001600160e01b0319909216919091179052612213565b83818151811061220a5761220a614243565b60200260200101515b82828151811061222557612225614243565b60200260200101819052508061223a906141fc565b905061213f565b509392505050565b600061166085858585612e0d565b60006122b333868686516001600160401b0381111561227857612278614259565b6040519080825280602002602001820160405280156122ab57816020015b60608152602001906001900390816122965790505b508787612392565b61166085858585612ebf565b60025460408051918252602082018390527fc565b045403dc03c2eea82b81a0465edad9e2e7fc4d97e11421c209da93d7a93910160405180910390a1600255565b600754604080516001600160a01b03928316815291831660208301527f08f74ea46ef7894f65eabfb5e6e695de773a000b47c529ab559178069b226401910160405180910390a1600780546001600160a01b0319166001600160a01b0392909216919091179055565b600081815260056020819052604082209081015461238961096985610e72565b11159392505050565b8051602082012060006123b087876123aa88886120e9565b856117b5565b60008181526005602052604090206009810154919250906124445780546001600160a01b0319166001600160a01b038a1617815587516123f990600183019060208b01906133ab565b50865161240f90600283019060208a019061340c565b5085516124259060038301906020890190613447565b50845161243b90600483019060208801906134a0565b50600981018390555b505050505050505050565b600081116124af5760405162461bcd60e51b815260206004820152602760248201527f476f7665726e6f7253657474696e67733a20766f74696e6720706572696f6420604482015266746f6f206c6f7760c81b6064820152608401610ac0565b60035460408051918252602082018390527f7e3f7f0708a84de9203036abaa450dccc85ad5ff52f78c170f3edb55cf5e8828910160405180910390a1600355565b604051630748d63560e31b81526001600160a01b038381166004830152602482018390526000917f000000000000000000000000000000000000000000000000000000000000000090911690633a46b1a89060440160206040518083038186803b15801561255d57600080fd5b505afa158015612571573d6000803e3d6000fd5b505050506040513d601f19601f820116820180604052508101906117749190613adf565b60045460408051918252602082018390527fccb45da8d5717e6c4544694297c4ba5cf151d455c9bb0ed4fc7a38411bc05461910160405180910390a1600455565b60006064600654604051632394e7a360e21b8152600481018590527f00000000000000000000000000000000000000000000000000000000000000006001600160a01b031690638e539e8c9060240160206040518083038186803b15801561263d57600080fd5b505afa158015612651573d6000803e3d6000fd5b505050506040513d601f19601f820116820180604052508101906126759190613adf565b61267f9190614161565b610a82919061413f565b60006001600160e01b0319821663bf26d89760e01b1480610a8257506301ffc9a760e01b6001600160e01b0319831614610a82565b60075460405163e38335e560e01b81526001600160a01b039091169063e38335e59034906126f9908890889088906000908990600401613de4565b6000604051808303818588803b15801561271257600080fd5b505af1158015612726573d6000803e3d6000fd5b50505050505050505050565b6000306001600160a01b037f00000000000000000000000000000000000000000000000000000000000000001614801561278b57507f000000000000000000000000000000000000000000000000000000000000000046145b156127b557507f000000000000000000000000000000000000000000000000000000000000000090565b50604080517f00000000000000000000000000000000000000000000000000000000000000006020808301919091527f0000000000000000000000000000000000000000000000000000000000000000828401527f000000000000000000000000000000000000000000000000000000000000000060608301524660808301523060a0808401919091528351808403909101815260c0909201909252805191012090565b6000807f7fffffffffffffffffffffffffffffff5d576e7357a4501ddfe92f46681b20a0831115612890575060009050600361293d565b8460ff16601b141580156128a857508460ff16601c14155b156128b9575060009050600461293d565b6040805160008082526020820180845289905260ff881692820192909252606081018690526080810185905260019060a0016020604051602081039080840390855afa15801561290d573d6000803e3d6000fd5b5050604051601f1901519150506001600160a01b0381166129365760006001925092505061293d565b9150600090505b94509492505050565b600081600481111561295a5761295a61422d565b14156129635750565b60018160048111156129775761297761422d565b14156129c55760405162461bcd60e51b815260206004820152601860248201527f45434453413a20696e76616c6964207369676e617475726500000000000000006044820152606401610ac0565b60028160048111156129d9576129d961422d565b1415612a275760405162461bcd60e51b815260206004820152601f60248201527f45434453413a20696e76616c6964207369676e6174757265206c656e677468006044820152606401610ac0565b6003816004811115612a3b57612a3b61422d565b1415612a945760405162461bcd60e51b815260206004820152602260248201527f45434453413a20696e76616c6964207369676e6174757265202773272076616c604482015261756560f01b6064820152608401610ac0565b6004816004811115612aa857612aa861422d565b1415610ad25760405162461bcd60e51b815260206004820152602260248201527f45434453413a20696e76616c6964207369676e6174757265202776272076616c604482015261756560f01b6064820152608401610ac0565b60008481526005602090815260408083206001600160a01b038716845260088101909252909120805460ff1615612b905760405162461bcd60e51b815260206004820152602d60248201527f476f7665726e6f72436f6d7061746962696c697479427261766f3a20766f746560448201526c08185b1c9958591e4818d85cdd609a1b6064820152608401610ac0565b805460ff85166101000261ffff19909116176001178155612bb08361319c565b81546001600160601b039190911662010000026dffffffffffffffffffffffff00001990911617815560ff8416612c005782826006016000828254612bf591906140fc565b90915550612c9e9050565b60ff841660011415612c205782826005016000828254612bf591906140fc565b60ff841660021415612c405782826007016000828254612bf591906140fc565b60405162461bcd60e51b815260206004820152602d60248201527f476f7665726e6f72436f6d7061746962696c697479427261766f3a20696e766160448201526c6c696420766f7465207479706560981b6064820152608401610ac0565b505050505050565b6000818152600160208181526040808420815160a08101835281546001600160401b0390811660808301908152825283518086018552958301541685529283019390935260029092015460ff80821615801594840194909452610100909104161515606082015290612d1b5750600792915050565b806060015115612d2e5750600292915050565b80515143906001600160401b031610612d4a5750600092915050565b43612d5782602001515190565b6001600160401b031610612d6e5750600192915050565b612d7b8160200151613208565b15612dbf57612d8983612369565b8015612dab575060008381526005602081905260409091206006810154910154115b612db6576003611774565b60049392505050565b60405162461bcd60e51b815260206004820152601d60248201527f476f7665726e6f723a20756e6b6e6f776e2070726f706f73616c2069640000006044820152606401610ac0565b50919050565b600080612e1c86868686613237565b60008181526008602052604090205490915015611660576007546000828152600860205260409081902054905163c4d252f560e01b81526001600160a01b039092169163c4d252f591612e759160040190815260200190565b600060405180830381600087803b158015612e8f57600080fd5b505af1158015612ea3573d6000803e3d6000fd5b5050506000828152600860205260408120555095945050505050565b6000612ec961177b565b612ed833610929600143614180565b1015612f585760405162461bcd60e51b815260206004820152604360248201527f476f7665726e6f72436f6d7061746962696c697479427261766f3a2070726f7060448201527f6f73657220766f7465732062656c6f772070726f706f73616c207468726573686064820152621bdb1960ea1b608482015260a401610ac0565b6000612f6d86868686805190602001206117b5565b90508451865114612f905760405162461bcd60e51b8152600401610ac090613f5c565b8351865114612fb15760405162461bcd60e51b8152600401610ac090613f5c565b60008651116130025760405162461bcd60e51b815260206004820152601860248201527f476f7665726e6f723a20656d7074792070726f706f73616c00000000000000006044820152606401610ac0565b600081815260016020908152604091829020825191820190925281546001600160401b031690819052156130825760405162461bcd60e51b815260206004820152602160248201527f476f7665726e6f723a2070726f706f73616c20616c72656164792065786973746044820152607360f81b6064820152608401610ac0565b600061309561309060025490565b613343565b61309e43613343565b6130a89190614114565b905060006130b861309060035490565b6130c29083614114565b835467ffffffffffffffff19166001600160401b038416178455905060018301805467ffffffffffffffff19166001600160401b0383161790557f7d84a6263ae0d98d3329bd7b46bb4e8d6f98cd35a7adb45c274c8b7fd5ebd5e084338b8b8d516001600160401b0381111561313a5761313a614259565b60405190808252806020026020018201604052801561316d57816020015b60608152602001906001900390816131585790505b508c88888e60405161318799989796959493929190613fde565b60405180910390a15091979650505050505050565b60006001600160601b038211156132045760405162461bcd60e51b815260206004820152602660248201527f53616665436173743a2076616c756520646f65736e27742066697420696e203960448201526536206269747360d01b6064820152608401610ac0565b5090565b600061321d82516001600160401b0316151590565b8015610a8257505051436001600160401b03909116111590565b600080613246868686866117b5565b90506000613253826111ce565b905060028160078111156132695761326961422d565b14158015613289575060068160078111156132865761328661422d565b14155b80156132a7575060078160078111156132a4576132a461422d565b14155b6132f35760405162461bcd60e51b815260206004820152601d60248201527f476f7665726e6f723a2070726f706f73616c206e6f74206163746976650000006044820152606401610ac0565b60008281526001602052604090819020600201805461ff001916610100179055517f789cf55be980739dad1d0699b93b58e806b51c9d96619bfa8fe0a28abaa7b30c90610d749084815260200190565b60006001600160401b038211156132045760405162461bcd60e51b815260206004820152602660248201527f53616665436173743a2076616c756520646f65736e27742066697420696e203660448201526534206269747360d01b6064820152608401610ac0565b828054828255906000526020600020908101928215613400579160200282015b8281111561340057825182546001600160a01b0319166001600160a01b039091161782556020909201916001909101906133cb565b506132049291506134f9565b828054828255906000526020600020908101928215613400579160200282015b8281111561340057825182559160200191906001019061342c565b828054828255906000526020600020908101928215613494579160200282015b82811115613494578251805161348491849160209091019061350e565b5091602001919060010190613467565b50613204929150613581565b8280548282559060005260206000209081019282156134ed579160200282015b828111156134ed57825180516134dd91849160209091019061350e565b50916020019190600101906134c0565b5061320492915061359e565b5b8082111561320457600081556001016134fa565b82805461351a906141c7565b90600052602060002090601f01602090048101928261353c5760008555613400565b82601f1061355557805160ff1916838001178555613400565b82800160010185558215613400579182018281111561340057825182559160200191906001019061342c565b8082111561320457600061359582826135bb565b50600101613581565b808211156132045760006135b282826135bb565b5060010161359e565b5080546135c7906141c7565b6000825580601f106135d7575050565b601f016020900490600052602060002090810190610ad291906134f9565b60006001600160401b0383111561360e5761360e614259565b613621601f8401601f19166020016140a9565b905082815283838301111561363557600080fd5b828260208301376000602084830101529392505050565b600082601f83011261365d57600080fd5b8135602061367261366d836140d9565b6140a9565b80838252828201915082860187848660051b890101111561369257600080fd5b60005b858110156136ba5781356136a88161426f565b84529284019290840190600101613695565b5090979650505050505050565b600082601f8301126136d857600080fd5b813560206136e861366d836140d9565b80838252828201915082860187848660051b890101111561370857600080fd5b60005b858110156136ba5781356001600160401b0381111561372957600080fd5b8801603f81018a1361373a57600080fd5b61374b8a87830135604084016135f5565b855250928401929084019060010161370b565b600082601f83011261376f57600080fd5b8135602061377f61366d836140d9565b80838252828201915082860187848660051b890101111561379f57600080fd5b6000805b868110156137e15782356001600160401b038111156137c0578283fd5b6137ce8b88838d010161384f565b86525093850193918501916001016137a3565b509198975050505050505050565b600082601f83011261380057600080fd5b8135602061381061366d836140d9565b80838252828201915082860187848660051b890101111561383057600080fd5b60005b858110156136ba57813584529284019290840190600101613833565b600082601f83011261386057600080fd5b611774838335602085016135f5565b803560ff8116811461388057600080fd5b919050565b6000806040838503121561389857600080fd5b82356138a38161426f565b946020939093013593505050565b600080600080608085870312156138c757600080fd5b84356001600160401b03808211156138de57600080fd5b6138ea8883890161364c565b9550602087013591508082111561390057600080fd5b61390c888389016137ef565b9450604087013591508082111561392257600080fd5b5061392f878288016136c7565b949793965093946060013593505050565b6000806000806080858703121561395657600080fd5b84356001600160401b038082111561396d57600080fd5b6139798883890161364c565b9550602087013591508082111561398f57600080fd5b61399b888389016137ef565b945060408701359150808211156139b157600080fd5b6139bd888389016136c7565b935060608701359150808211156139d357600080fd5b506139e08782880161384f565b91505092959194509250565b600080600080600060a08688031215613a0457600080fd5b85356001600160401b0380821115613a1b57600080fd5b613a2789838a0161364c565b96506020880135915080821115613a3d57600080fd5b613a4989838a016137ef565b95506040880135915080821115613a5f57600080fd5b613a6b89838a0161375e565b94506060880135915080821115613a8157600080fd5b613a8d89838a016136c7565b93506080880135915080821115613aa357600080fd5b50613ab08882890161384f565b9150509295509295909350565b600060208284031215613acf57600080fd5b8151801515811461177457600080fd5b600060208284031215613af157600080fd5b5051919050565b600060208284031215613b0a57600080fd5b81356001600160e01b03198116811461177457600080fd5b600060208284031215613b3457600080fd5b81356117748161426f565b600060208284031215613b5157600080fd5b5035919050565b60008060408385031215613b6b57600080fd5b823591506020830135613b7d8161426f565b809150509250929050565b60008060408385031215613b9b57600080fd5b82359150613bab6020840161386f565b90509250929050565b60008060008060608587031215613bca57600080fd5b84359350613bda6020860161386f565b925060408501356001600160401b0380821115613bf657600080fd5b818701915087601f830112613c0a57600080fd5b813581811115613c1957600080fd5b886020828501011115613c2b57600080fd5b95989497505060200194505050565b600080600080600060a08688031215613c5257600080fd5b85359450613c626020870161386f565b9350613c706040870161386f565b94979396509394606081013594506080013592915050565b600081518084526020808501945080840160005b83811015613cc15781516001600160a01b031687529582019590820190600101613c9c565b509495945050505050565b600081518084526020808501808196508360051b8101915082860160005b85811015613d14578284038952613d02848351613d51565b98850198935090840190600101613cea565b5091979650505050505050565b600081518084526020808501945080840160005b83811015613cc157815187529582019590820190600101613d35565b60008151808452613d69816020860160208601614197565b601f01601f19169290920160200192915050565b60008251613d8f818460208701614197565b9190910192915050565b608081526000613dac6080830187613c88565b8281036020840152613dbe8187613d21565b90508281036040840152613dd28186613ccc565b91505082606083015295945050505050565b60a081526000613df760a0830188613c88565b8281036020840152613e098188613d21565b90508281036040840152613e1d8187613ccc565b60608401959095525050608001529392505050565b60c081526000613e4560c0830189613c88565b8281036020840152613e578189613d21565b90508281036040840152613e6b8188613ccc565b60608401969096525050608081019290925260a0909101529392505050565b608081526000613e9d6080830187613c88565b8281036020840152613eaf8187613d21565b90508281036040840152613ec38186613ccc565b905082810360608401526111c38185613ccc565b6020815260006117746020830184613d21565b6020815260006117746020830184613d51565b6020810160088310613f1f57634e487b7160e01b600052602160045260246000fd5b91905290565b60208082526018908201527f476f7665726e6f723a206f6e6c79476f7665726e616e63650000000000000000604082015260600190565b60208082526021908201527f476f7665726e6f723a20696e76616c69642070726f706f73616c206c656e67746040820152600d60fb1b606082015260800190565b60208082526021908201527f476f7665726e6f723a2070726f706f73616c206e6f74207375636365737366756040820152601b60fa1b606082015260800190565b8981526001600160a01b0389166020820152610120604082018190526000906140098382018b613c88565b9050828103606084015261401d818a613d21565b905082810360808401526140318189613ccc565b905082810360a08401526140458188613ccc565b6001600160401b0387811660c0860152861660e085015283810361010085015290506140718185613d51565b9c9b505050505050505050505050565b84815260ff841660208201528260408201526080606082015260006116486080830184613d51565b604051601f8201601f191681016001600160401b03811182821017156140d1576140d1614259565b604052919050565b60006001600160401b038211156140f2576140f2614259565b5060051b60200190565b6000821982111561410f5761410f614217565b500190565b60006001600160401b0380831681851680830382111561413657614136614217565b01949350505050565b60008261415c57634e487b7160e01b600052601260045260246000fd5b500490565b600081600019048311821515161561417b5761417b614217565b500290565b60008282101561419257614192614217565b500390565b60005b838110156141b257818101518382015260200161419a565b838111156141c1576000848401525b50505050565b600181811c908216806141db57607f821691505b60208210811415612e0757634e487b7160e01b600052602260045260246000fd5b600060001982141561421057614210614217565b5060010190565b634e487b7160e01b600052601160045260246000fd5b634e487b7160e01b600052602160045260246000fd5b634e487b7160e01b600052603260045260246000fd5b634e487b7160e01b600052604160045260246000fd5b6001600160a01b0381168114610ad257600080fdfea2646970667358221220535e185855fc86c200dae889456fc658ba647c721c856fea0c481a5de5cc611764736f6c63430008060033",
  "devdoc": {
    "kind": "dev",
    "methods": {
      "COUNTING_MODE()": {
        "details": "A description of the possible `support` values for {castVote} and the way these votes are counted, meant to be consumed by UIs to show correct vote options and interpret the results. The string is a URL-encoded sequence of key-value pairs that each describe one aspect, for example `support=bravo&quorum=for,abstain`. There are 2 standard keys: `support` and `quorum`. - `support=bravo` refers to the vote options 0 = Against, 1 = For, 2 = Abstain, as in `GovernorBravo`. - `quorum=bravo` means that only For votes are counted towards quorum. - `quorum=for,abstain` means that both For and Abstain votes are counted towards quorum. NOTE: The string can be decoded by the standard https://developer.mozilla.org/en-US/docs/Web/API/URLSearchParams[`URLSearchParams`] JavaScript class."
      },
      "cancel(uint256)": {
        "details": "Cancels a proposal only if sender is the proposer, or proposer delegates dropped below proposal threshold."
      },
      "castVote(uint256,uint8)": {
        "details": "See {IGovernor-castVote}."
      },
      "castVoteBySig(uint256,uint8,uint8,bytes32,bytes32)": {
        "details": "See {IGovernor-castVoteBySig}."
      },
      "castVoteWithReason(uint256,uint8,string)": {
        "details": "See {IGovernor-castVoteWithReason}."
      },
      "execute(address[],uint256[],bytes[],bytes32)": {
        "details": "See {IGovernor-execute}."
      },
      "execute(uint256)": {
        "details": "See {IGovernorCompatibilityBravo-execute}."
      },
      "getActions(uint256)": {
        "details": "See {IGovernorCompatibilityBravo-getActions}."
      },
      "getReceipt(uint256,address)": {
        "details": "See {IGovernorCompatibilityBravo-getReceipt}."
      },
      "hasVoted(uint256,address)": {
        "details": "See {IGovernor-hasVoted}."
      },
      "hashProposal(address[],uint256[],bytes[],bytes32)": {
        "details": "See {IGovernor-hashProposal}. The proposal id is produced by hashing the RLC encoded `targets` array, the `values` array, the `calldatas` array and the descriptionHash (bytes32 which itself is the keccak256 hash of the description string). This proposal id can be produced from the proposal data which is part of the {ProposalCreated} event. It can even be computed in advance, before the proposal is submitted. Note that the chainId and the governor address are not part of the proposal id computation. Consequently, the same proposal (with same operation and same description) will have the same id if submitted on multiple governors accross multiple networks. This also means that in order to execute the same operation twice (on the same governor) the proposer will have to change the description in order to avoid proposal id conflicts."
      },
      "name()": {
        "details": "See {IGovernor-name}."
      },
      "proposalDeadline(uint256)": {
        "details": "See {IGovernor-proposalDeadline}."
      },
      "proposalEta(uint256)": {
        "details": "Public accessor to check the eta of a queued proposal"
      },
      "proposalSnapshot(uint256)": {
        "details": "See {IGovernor-proposalSnapshot}."
      },
      "proposals(uint256)": {
        "details": "See {IGovernorCompatibilityBravo-proposals}."
      },
      "propose(address[],uint256[],string[],bytes[],string)": {
        "details": "See {IGovernorCompatibilityBravo-propose}."
      },
      "queue(address[],uint256[],bytes[],bytes32)": {
        "details": "Function to queue a proposal to the timelock."
      },
      "queue(uint256)": {
        "details": "See {IGovernorCompatibilityBravo-queue}."
      },
      "quorumVotes()": {
        "details": "See {IGovernorCompatibilityBravo-quorumVotes}."
      },
      "setProposalThreshold(uint256)": {
        "details": "Update the proposal threshold. This operation can only be performed through a governance proposal. Emits a {ProposalThresholdSet} event."
      },
      "setVotingDelay(uint256)": {
        "details": "Update the voting delay. This operation can only be performed through a governance proposal. Emits a {VotingDelaySet} event."
      },
      "setVotingPeriod(uint256)": {
        "details": "Update the voting period. This operation can only be performed through a governance proposal. Emits a {VotingPeriodSet} event."
      },
      "timelock()": {
        "details": "Public accessor to check the address of the timelock"
      },
      "updateTimelock(address)": {
        "details": "Public endpoint to update the underlying timelock instance. Restricted to the timelock itself, so updates must be proposed, scheduled and executed using the {Governor} workflow."
      },
      "version()": {
        "details": "See {IGovernor-version}."
      },
      "votingDelay()": {
        "details": "See {IGovernor-votingDelay}."
      },
      "votingPeriod()": {
        "details": "See {IGovernor-votingPeriod}."
      }
    },
    "version": 1
  },
  "userdoc": {
    "kind": "user",
    "methods": {
      "COUNTING_MODE()": {
        "notice": "module:voting"
      }
    },
    "version": 1
  },
  "storageLayout": {
    "storage": [
      {
        "astId": 4777,
        "contract": "contracts/governance/OvnGovernor.sol:OvnGovernor",
        "label": "_name",
        "offset": 0,
        "slot": "0",
        "type": "t_string_storage"
      },
      {
        "astId": 4782,
        "contract": "contracts/governance/OvnGovernor.sol:OvnGovernor",
        "label": "_proposals",
        "offset": 0,
        "slot": "1",
        "type": "t_mapping(t_uint256,t_struct(ProposalCore)4775_storage)"
      },
      {
        "astId": 7507,
        "contract": "contracts/governance/OvnGovernor.sol:OvnGovernor",
        "label": "_votingDelay",
        "offset": 0,
        "slot": "2",
        "type": "t_uint256"
      },
      {
        "astId": 7509,
        "contract": "contracts/governance/OvnGovernor.sol:OvnGovernor",
        "label": "_votingPeriod",
        "offset": 0,
        "slot": "3",
        "type": "t_uint256"
      },
      {
        "astId": 7511,
        "contract": "contracts/governance/OvnGovernor.sol:OvnGovernor",
        "label": "_proposalThreshold",
        "offset": 0,
        "slot": "4",
        "type": "t_uint256"
      },
      {
        "astId": 6634,
        "contract": "contracts/governance/OvnGovernor.sol:OvnGovernor",
        "label": "_proposalDetails",
        "offset": 0,
        "slot": "5",
        "type": "t_mapping(t_uint256,t_struct(ProposalDetails)6629_storage)"
      },
      {
        "astId": 8094,
        "contract": "contracts/governance/OvnGovernor.sol:OvnGovernor",
        "label": "_quorumNumerator",
        "offset": 0,
        "slot": "6",
        "type": "t_uint256"
      },
      {
        "astId": 7690,
        "contract": "contracts/governance/OvnGovernor.sol:OvnGovernor",
        "label": "_timelock",
        "offset": 0,
        "slot": "7",
        "type": "t_contract(TimelockController)6575"
      },
      {
        "astId": 7694,
        "contract": "contracts/governance/OvnGovernor.sol:OvnGovernor",
        "label": "_timelockIds",
        "offset": 0,
        "slot": "8",
        "type": "t_mapping(t_uint256,t_bytes32)"
      },
      {
        "astId": 20221,
        "contract": "contracts/governance/OvnGovernor.sol:OvnGovernor",
        "label": "_proposalsIds",
        "offset": 0,
        "slot": "9",
        "type": "t_array(t_uint256)dyn_storage"
      }
    ],
    "types": {
      "t_address": {
        "encoding": "inplace",
        "label": "address",
        "numberOfBytes": "20"
      },
      "t_array(t_address)dyn_storage": {
        "base": "t_address",
        "encoding": "dynamic_array",
        "label": "address[]",
        "numberOfBytes": "32"
      },
      "t_array(t_bytes_storage)dyn_storage": {
        "base": "t_bytes_storage",
        "encoding": "dynamic_array",
        "label": "bytes[]",
        "numberOfBytes": "32"
      },
      "t_array(t_string_storage)dyn_storage": {
        "base": "t_string_storage",
        "encoding": "dynamic_array",
        "label": "string[]",
        "numberOfBytes": "32"
      },
      "t_array(t_uint256)dyn_storage": {
        "base": "t_uint256",
        "encoding": "dynamic_array",
        "label": "uint256[]",
        "numberOfBytes": "32"
      },
      "t_bool": {
        "encoding": "inplace",
        "label": "bool",
        "numberOfBytes": "1"
      },
      "t_bytes32": {
        "encoding": "inplace",
        "label": "bytes32",
        "numberOfBytes": "32"
      },
      "t_bytes_storage": {
        "encoding": "bytes",
        "label": "bytes",
        "numberOfBytes": "32"
      },
      "t_contract(TimelockController)6575": {
        "encoding": "inplace",
        "label": "contract TimelockController",
        "numberOfBytes": "20"
      },
      "t_mapping(t_address,t_struct(Receipt)7399_storage)": {
        "encoding": "mapping",
        "key": "t_address",
        "label": "mapping(address => struct IGovernorCompatibilityBravo.Receipt)",
        "numberOfBytes": "32",
        "value": "t_struct(Receipt)7399_storage"
      },
      "t_mapping(t_uint256,t_bytes32)": {
        "encoding": "mapping",
        "key": "t_uint256",
        "label": "mapping(uint256 => bytes32)",
        "numberOfBytes": "32",
        "value": "t_bytes32"
      },
      "t_mapping(t_uint256,t_struct(ProposalCore)4775_storage)": {
        "encoding": "mapping",
        "key": "t_uint256",
        "label": "mapping(uint256 => struct Governor.ProposalCore)",
        "numberOfBytes": "32",
        "value": "t_struct(ProposalCore)4775_storage"
      },
      "t_mapping(t_uint256,t_struct(ProposalDetails)6629_storage)": {
        "encoding": "mapping",
        "key": "t_uint256",
        "label": "mapping(uint256 => struct GovernorCompatibilityBravo.ProposalDetails)",
        "numberOfBytes": "32",
        "value": "t_struct(ProposalDetails)6629_storage"
      },
      "t_string_storage": {
        "encoding": "bytes",
        "label": "string",
        "numberOfBytes": "32"
      },
      "t_struct(BlockNumber)10497_storage": {
        "encoding": "inplace",
        "label": "struct Timers.BlockNumber",
        "members": [
          {
            "astId": 10496,
            "contract": "contracts/governance/OvnGovernor.sol:OvnGovernor",
            "label": "_deadline",
            "offset": 0,
            "slot": "0",
            "type": "t_uint64"
          }
        ],
        "numberOfBytes": "32"
      },
      "t_struct(ProposalCore)4775_storage": {
        "encoding": "inplace",
        "label": "struct Governor.ProposalCore",
        "members": [
          {
            "astId": 4767,
            "contract": "contracts/governance/OvnGovernor.sol:OvnGovernor",
            "label": "voteStart",
            "offset": 0,
            "slot": "0",
            "type": "t_struct(BlockNumber)10497_storage"
          },
          {
            "astId": 4770,
            "contract": "contracts/governance/OvnGovernor.sol:OvnGovernor",
            "label": "voteEnd",
            "offset": 0,
            "slot": "1",
            "type": "t_struct(BlockNumber)10497_storage"
          },
          {
            "astId": 4772,
            "contract": "contracts/governance/OvnGovernor.sol:OvnGovernor",
            "label": "executed",
            "offset": 0,
            "slot": "2",
            "type": "t_bool"
          },
          {
            "astId": 4774,
            "contract": "contracts/governance/OvnGovernor.sol:OvnGovernor",
            "label": "canceled",
            "offset": 1,
            "slot": "2",
            "type": "t_bool"
          }
        ],
        "numberOfBytes": "96"
      },
      "t_struct(ProposalDetails)6629_storage": {
        "encoding": "inplace",
        "label": "struct GovernorCompatibilityBravo.ProposalDetails",
        "members": [
          {
            "astId": 6603,
            "contract": "contracts/governance/OvnGovernor.sol:OvnGovernor",
            "label": "proposer",
            "offset": 0,
            "slot": "0",
            "type": "t_address"
          },
          {
            "astId": 6606,
            "contract": "contracts/governance/OvnGovernor.sol:OvnGovernor",
            "label": "targets",
            "offset": 0,
            "slot": "1",
            "type": "t_array(t_address)dyn_storage"
          },
          {
            "astId": 6609,
            "contract": "contracts/governance/OvnGovernor.sol:OvnGovernor",
            "label": "values",
            "offset": 0,
            "slot": "2",
            "type": "t_array(t_uint256)dyn_storage"
          },
          {
            "astId": 6612,
            "contract": "contracts/governance/OvnGovernor.sol:OvnGovernor",
            "label": "signatures",
            "offset": 0,
            "slot": "3",
            "type": "t_array(t_string_storage)dyn_storage"
          },
          {
            "astId": 6615,
            "contract": "contracts/governance/OvnGovernor.sol:OvnGovernor",
            "label": "calldatas",
            "offset": 0,
            "slot": "4",
            "type": "t_array(t_bytes_storage)dyn_storage"
          },
          {
            "astId": 6617,
            "contract": "contracts/governance/OvnGovernor.sol:OvnGovernor",
            "label": "forVotes",
            "offset": 0,
            "slot": "5",
            "type": "t_uint256"
          },
          {
            "astId": 6619,
            "contract": "contracts/governance/OvnGovernor.sol:OvnGovernor",
            "label": "againstVotes",
            "offset": 0,
            "slot": "6",
            "type": "t_uint256"
          },
          {
            "astId": 6621,
            "contract": "contracts/governance/OvnGovernor.sol:OvnGovernor",
            "label": "abstainVotes",
            "offset": 0,
            "slot": "7",
            "type": "t_uint256"
          },
          {
            "astId": 6626,
            "contract": "contracts/governance/OvnGovernor.sol:OvnGovernor",
            "label": "receipts",
            "offset": 0,
            "slot": "8",
            "type": "t_mapping(t_address,t_struct(Receipt)7399_storage)"
          },
          {
            "astId": 6628,
            "contract": "contracts/governance/OvnGovernor.sol:OvnGovernor",
            "label": "descriptionHash",
            "offset": 0,
            "slot": "9",
            "type": "t_bytes32"
          }
        ],
        "numberOfBytes": "320"
      },
      "t_struct(Receipt)7399_storage": {
        "encoding": "inplace",
        "label": "struct IGovernorCompatibilityBravo.Receipt",
        "members": [
          {
            "astId": 7394,
            "contract": "contracts/governance/OvnGovernor.sol:OvnGovernor",
            "label": "hasVoted",
            "offset": 0,
            "slot": "0",
            "type": "t_bool"
          },
          {
            "astId": 7396,
            "contract": "contracts/governance/OvnGovernor.sol:OvnGovernor",
            "label": "support",
            "offset": 1,
            "slot": "0",
            "type": "t_uint8"
          },
          {
            "astId": 7398,
            "contract": "contracts/governance/OvnGovernor.sol:OvnGovernor",
            "label": "votes",
            "offset": 2,
            "slot": "0",
            "type": "t_uint96"
          }
        ],
        "numberOfBytes": "32"
      },
      "t_uint256": {
        "encoding": "inplace",
        "label": "uint256",
        "numberOfBytes": "32"
      },
      "t_uint64": {
        "encoding": "inplace",
        "label": "uint64",
        "numberOfBytes": "8"
      },
      "t_uint8": {
        "encoding": "inplace",
        "label": "uint8",
        "numberOfBytes": "1"
      },
      "t_uint96": {
        "encoding": "inplace",
        "label": "uint96",
        "numberOfBytes": "12"
      }
    }
  }
}