{
  "address": "0x6C93A2A9eBC61ce664eE3D44531B76365150BFd8",
  "abi": [
    {
      "inputs": [],
      "stateMutability": "nonpayable",
      "type": "constructor"
    },
    {
      "anonymous": false,
      "inputs": [
        {
          "indexed": false,
          "internalType": "address",
          "name": "previousAdmin",
          "type": "address"
        },
        {
          "indexed": false,
          "internalType": "address",
          "name": "newAdmin",
          "type": "address"
        }
      ],
      "name": "AdminChanged",
      "type": "event"
    },
    {
      "anonymous": false,
      "inputs": [
        {
          "indexed": true,
          "internalType": "address",
          "name": "beacon",
          "type": "address"
        }
      ],
      "name": "BeaconUpgraded",
      "type": "event"
    },
    {
      "anonymous": false,
      "inputs": [
        {
          "indexed": false,
          "internalType": "address",
          "name": "exchanger",
          "type": "address"
        }
      ],
      "name": "ExchangerUpdated",
      "type": "event"
    },
    {
      "anonymous": false,
      "inputs": [
        {
          "indexed": false,
          "internalType": "uint8",
          "name": "version",
          "type": "uint8"
        }
      ],
      "name": "Initialized",
      "type": "event"
    },
    {
      "anonymous": false,
      "inputs": [
        {
          "indexed": false,
          "internalType": "uint256",
          "name": "index",
          "type": "uint256"
        },
        {
          "indexed": false,
          "internalType": "address",
          "name": "pool",
          "type": "address"
        }
      ],
      "name": "QsSyncPoolsRemoved",
      "type": "event"
    },
    {
      "anonymous": false,
      "inputs": [
        {
          "indexed": false,
          "internalType": "uint256",
          "name": "index",
          "type": "uint256"
        },
        {
          "indexed": false,
          "internalType": "address",
          "name": "pool",
          "type": "address"
        }
      ],
      "name": "QsSyncPoolsUpdated",
      "type": "event"
    },
    {
      "anonymous": false,
      "inputs": [
        {
          "indexed": true,
          "internalType": "bytes32",
          "name": "role",
          "type": "bytes32"
        },
        {
          "indexed": true,
          "internalType": "bytes32",
          "name": "previousAdminRole",
          "type": "bytes32"
        },
        {
          "indexed": true,
          "internalType": "bytes32",
          "name": "newAdminRole",
          "type": "bytes32"
        }
      ],
      "name": "RoleAdminChanged",
      "type": "event"
    },
    {
      "anonymous": false,
      "inputs": [
        {
          "indexed": true,
          "internalType": "bytes32",
          "name": "role",
          "type": "bytes32"
        },
        {
          "indexed": true,
          "internalType": "address",
          "name": "account",
          "type": "address"
        },
        {
          "indexed": true,
          "internalType": "address",
          "name": "sender",
          "type": "address"
        }
      ],
      "name": "RoleGranted",
      "type": "event"
    },
    {
      "anonymous": false,
      "inputs": [
        {
          "indexed": true,
          "internalType": "bytes32",
          "name": "role",
          "type": "bytes32"
        },
        {
          "indexed": true,
          "internalType": "address",
          "name": "account",
          "type": "address"
        },
        {
          "indexed": true,
          "internalType": "address",
          "name": "sender",
          "type": "address"
        }
      ],
      "name": "RoleRevoked",
      "type": "event"
    },
    {
      "anonymous": false,
      "inputs": [
        {
          "indexed": false,
          "internalType": "address",
          "name": "pool",
          "type": "address"
        },
        {
          "indexed": false,
          "internalType": "uint256",
          "name": "amount",
          "type": "uint256"
        }
      ],
      "name": "SkimReward",
      "type": "event"
    },
    {
      "anonymous": false,
      "inputs": [
        {
          "indexed": false,
          "internalType": "address",
          "name": "wallet",
          "type": "address"
        }
      ],
      "name": "SwapsicleDepositWalletUpdated",
      "type": "event"
    },
    {
      "anonymous": false,
      "inputs": [
        {
          "indexed": false,
          "internalType": "address[]",
          "name": "pool",
          "type": "address[]"
        }
      ],
      "name": "SwapsicleSkimPoolsUpdated",
      "type": "event"
    },
    {
      "anonymous": false,
      "inputs": [
        {
          "indexed": false,
          "internalType": "uint256",
          "name": "amount",
          "type": "uint256"
        }
      ],
      "name": "TotalSkimReward",
      "type": "event"
    },
    {
      "anonymous": false,
      "inputs": [
        {
          "indexed": true,
          "internalType": "address",
          "name": "implementation",
          "type": "address"
        }
      ],
      "name": "Upgraded",
      "type": "event"
    },
    {
      "anonymous": false,
      "inputs": [
        {
          "indexed": false,
          "internalType": "address",
          "name": "usdPlus",
          "type": "address"
        }
      ],
      "name": "UsdPlusUpdated",
      "type": "event"
    },
    {
      "inputs": [],
      "name": "DEFAULT_ADMIN_ROLE",
      "outputs": [
        {
          "internalType": "bytes32",
          "name": "",
          "type": "bytes32"
        }
      ],
      "stateMutability": "view",
      "type": "function"
    },
    {
      "inputs": [],
      "name": "EXCHANGER",
      "outputs": [
        {
          "internalType": "bytes32",
          "name": "",
          "type": "bytes32"
        }
      ],
      "stateMutability": "view",
      "type": "function"
    },
    {
      "inputs": [],
      "name": "UPGRADER_ROLE",
      "outputs": [
        {
          "internalType": "bytes32",
          "name": "",
          "type": "bytes32"
        }
      ],
      "stateMutability": "view",
      "type": "function"
    },
    {
      "inputs": [],
      "name": "exchange",
      "outputs": [
        {
          "internalType": "address",
          "name": "",
          "type": "address"
        }
      ],
      "stateMutability": "view",
      "type": "function"
    },
    {
      "inputs": [],
      "name": "getAllQsSyncPools",
      "outputs": [
        {
          "internalType": "address[]",
          "name": "",
          "type": "address[]"
        }
      ],
      "stateMutability": "view",
      "type": "function"
    },
    {
      "inputs": [
        {
          "internalType": "bytes32",
          "name": "role",
          "type": "bytes32"
        }
      ],
      "name": "getRoleAdmin",
      "outputs": [
        {
          "internalType": "bytes32",
          "name": "",
          "type": "bytes32"
        }
      ],
      "stateMutability": "view",
      "type": "function"
    },
    {
      "inputs": [
        {
          "internalType": "bytes32",
          "name": "role",
          "type": "bytes32"
        },
        {
          "internalType": "address",
          "name": "account",
          "type": "address"
        }
      ],
      "name": "grantRole",
      "outputs": [],
      "stateMutability": "nonpayable",
      "type": "function"
    },
    {
      "inputs": [
        {
          "internalType": "bytes32",
          "name": "role",
          "type": "bytes32"
        },
        {
          "internalType": "address",
          "name": "account",
          "type": "address"
        }
      ],
      "name": "hasRole",
      "outputs": [
        {
          "internalType": "bool",
          "name": "",
          "type": "bool"
        }
      ],
      "stateMutability": "view",
      "type": "function"
    },
    {
      "inputs": [],
      "name": "initialize",
      "outputs": [],
      "stateMutability": "nonpayable",
      "type": "function"
    },
    {
      "inputs": [],
      "name": "payoutDone",
      "outputs": [],
      "stateMutability": "nonpayable",
      "type": "function"
    },
    {
      "inputs": [],
      "name": "proxiableUUID",
      "outputs": [
        {
          "internalType": "bytes32",
          "name": "",
          "type": "bytes32"
        }
      ],
      "stateMutability": "view",
      "type": "function"
    },
    {
      "inputs": [
        {
          "internalType": "uint256",
          "name": "",
          "type": "uint256"
        }
      ],
      "name": "qsSyncPools",
      "outputs": [
        {
          "internalType": "address",
          "name": "",
          "type": "address"
        }
      ],
      "stateMutability": "view",
      "type": "function"
    },
    {
      "inputs": [
        {
          "internalType": "bytes32",
          "name": "role",
          "type": "bytes32"
        },
        {
          "internalType": "address",
          "name": "account",
          "type": "address"
        }
      ],
      "name": "renounceRole",
      "outputs": [],
      "stateMutability": "nonpayable",
      "type": "function"
    },
    {
      "inputs": [
        {
          "internalType": "bytes32",
          "name": "role",
          "type": "bytes32"
        },
        {
          "internalType": "address",
          "name": "account",
          "type": "address"
        }
      ],
      "name": "revokeRole",
      "outputs": [],
      "stateMutability": "nonpayable",
      "type": "function"
    },
    {
      "inputs": [
        {
          "internalType": "address",
          "name": "_exchanger",
          "type": "address"
        }
      ],
      "name": "setExchanger",
      "outputs": [],
      "stateMutability": "nonpayable",
      "type": "function"
    },
    {
      "inputs": [
        {
          "internalType": "address[]",
          "name": "_qsSyncPools",
          "type": "address[]"
        }
      ],
      "name": "setQsSyncPools",
      "outputs": [],
      "stateMutability": "nonpayable",
      "type": "function"
    },
    {
      "inputs": [
        {
          "internalType": "address",
          "name": "_swapsicleDepositWallet",
          "type": "address"
        }
      ],
      "name": "setSwapsicleDepositWallet",
      "outputs": [],
      "stateMutability": "nonpayable",
      "type": "function"
    },
    {
      "inputs": [
        {
          "internalType": "address[]",
          "name": "_swapsicleSkimPools",
          "type": "address[]"
        }
      ],
      "name": "setSwapsicleSkimPools",
      "outputs": [],
      "stateMutability": "nonpayable",
      "type": "function"
    },
    {
      "inputs": [
        {
          "internalType": "address",
          "name": "_usdPlus",
          "type": "address"
        }
      ],
      "name": "setUsdPlus",
      "outputs": [],
      "stateMutability": "nonpayable",
      "type": "function"
    },
    {
      "inputs": [
        {
          "internalType": "bytes4",
          "name": "interfaceId",
          "type": "bytes4"
        }
      ],
      "name": "supportsInterface",
      "outputs": [
        {
          "internalType": "bool",
          "name": "",
          "type": "bool"
        }
      ],
      "stateMutability": "view",
      "type": "function"
    },
    {
      "inputs": [],
      "name": "swapsicleDepositWallet",
      "outputs": [
        {
          "internalType": "address",
          "name": "",
          "type": "address"
        }
      ],
      "stateMutability": "view",
      "type": "function"
    },
    {
      "inputs": [
        {
          "internalType": "uint256",
          "name": "",
          "type": "uint256"
        }
      ],
      "name": "swapsicleSkimPools",
      "outputs": [
        {
          "internalType": "address",
          "name": "",
          "type": "address"
        }
      ],
      "stateMutability": "view",
      "type": "function"
    },
    {
      "inputs": [
        {
          "internalType": "address",
          "name": "newImplementation",
          "type": "address"
        }
      ],
      "name": "upgradeTo",
      "outputs": [],
      "stateMutability": "nonpayable",
      "type": "function"
    },
    {
      "inputs": [
        {
          "internalType": "address",
          "name": "newImplementation",
          "type": "address"
        },
        {
          "internalType": "bytes",
          "name": "data",
          "type": "bytes"
        }
      ],
      "name": "upgradeToAndCall",
      "outputs": [],
      "stateMutability": "payable",
      "type": "function"
    },
    {
      "inputs": [],
      "name": "usdPlus",
      "outputs": [
        {
          "internalType": "contract IERC20",
          "name": "",
          "type": "address"
        }
      ],
      "stateMutability": "view",
      "type": "function"
    }
  ],
  "numDeployments": 2,
  "solcInputHash": "937892ff30cf8c969b5451406c0d7ab2",
  "bytecode": "0x60a06040523060601b6080523480156200001857600080fd5b50600054610100900460ff16158080156200003a5750600054600160ff909116105b806200006a575062000057306200014460201b620010561760201c565b1580156200006a575060005460ff166001145b620000d25760405162461bcd60e51b815260206004820152602e60248201527f496e697469616c697a61626c653a20636f6e747261637420697320616c72656160448201526d191e481a5b9a5d1a585b1a5e995960921b606482015260840160405180910390fd5b6000805460ff191660011790558015620000f6576000805461ff0019166101001790555b80156200013d576000805461ff0019169055604051600181527f7f26b83ff96e1f2b6a682f133852f6798a09c465da95921460cefb38474024989060200160405180910390a15b5062000153565b6001600160a01b03163b151590565b60805160601c61235e6200018e600039600081816105d3015281816106130152818161076b015281816107ab015261083a015261235e6000f3fe6080604052600436106101665760003560e01c80638129fc1c116100d1578063bd0f10531161008a578063da909b0911610064578063da909b0914610430578063e13d0c5b14610450578063f14a743814610470578063f72c0d8b1461048557600080fd5b8063bd0f1053146103ce578063d2f7265a146103f0578063d547741f1461041057600080fd5b80638129fc1c1461032257806390c1e3ef1461033757806391d1485414610357578063a217fddf14610377578063a5a62ada1461038c578063b46e205e146103ac57600080fd5b80633659cfe6116101235780633659cfe6146102795780634b1a6e82146102995780634f1ef286146102b9578063514e460a146102cc57806352d1902d146102ed5780637ba25ddc1461030257600080fd5b806301ffc9a71461016b57806303179030146101a0578063248a9ca3146101d95780632f2ff15d1461021757806335d440e71461023957806336568abe14610259575b600080fd5b34801561017757600080fd5b5061018b610186366004611f22565b6104b9565b60405190151581526020015b60405180910390f35b3480156101ac57600080fd5b50610130546101c1906001600160a01b031681565b6040516001600160a01b039091168152602001610197565b3480156101e557600080fd5b506102096101f4366004611ec4565b60009081526065602052604090206001015490565b604051908152602001610197565b34801561022357600080fd5b50610237610232366004611ef6565b6104f0565b005b34801561024557600080fd5b506101c1610254366004611ec4565b61051a565b34801561026557600080fd5b50610237610274366004611ef6565b610545565b34801561028557600080fd5b50610237610294366004611d50565b6105c8565b3480156102a557600080fd5b506102376102b4366004611e2d565b6106a8565b6102376102c7366004611d6b565b610760565b3480156102d857600080fd5b50610131546101c1906001600160a01b031681565b3480156102f957600080fd5b5061020961082d565b34801561030e57600080fd5b5061023761031d366004611e2d565b6108e0565b34801561032e57600080fd5b50610237610c01565b34801561034357600080fd5b50610237610352366004611d50565b610ccb565b34801561036357600080fd5b5061018b610372366004611ef6565b610d92565b34801561038357600080fd5b50610209600081565b34801561039857600080fd5b506102376103a7366004611d50565b610dbd565b3480156103b857600080fd5b506103c1610e84565b6040516101979190612029565b3480156103da57600080fd5b506102096000805160206122c283398151915281565b3480156103fc57600080fd5b5060fb546101c1906001600160a01b031681565b34801561041c57600080fd5b5061023761042b366004611ef6565b610ee7565b34801561043c57600080fd5b5061023761044b366004611d50565b610f0c565b34801561045c57600080fd5b506101c161046b366004611ec4565b610fcf565b34801561047c57600080fd5b50610237610fe0565b34801561049157600080fd5b506102097f189ab7a9244df0848122154315af71fe140f3db0fe014031783b0946b8c9d2e381565b60006001600160e01b03198216637965db0b60e01b14806104ea57506301ffc9a760e01b6001600160e01b03198316145b92915050565b60008281526065602052604090206001015461050b81611065565b610515838361106f565b505050565b61012e818154811061052b57600080fd5b6000918252602090912001546001600160a01b0316905081565b6001600160a01b03811633146105ba5760405162461bcd60e51b815260206004820152602f60248201527f416363657373436f6e74726f6c3a2063616e206f6e6c792072656e6f756e636560448201526e103937b632b9903337b91039b2b63360891b60648201526084015b60405180910390fd5b6105c482826110f5565b5050565b306001600160a01b037f00000000000000000000000000000000000000000000000000000000000000001614156106115760405162461bcd60e51b81526004016105b1906120a9565b7f00000000000000000000000000000000000000000000000000000000000000006001600160a01b031661065a6000805160206122e2833981519152546001600160a01b031690565b6001600160a01b0316146106805760405162461bcd60e51b81526004016105b1906120f5565b6106898161115c565b604080516000808252602082019092526106a591839190611186565b50565b6106b3600033610d92565b6106cf5760405162461bcd60e51b81526004016105b19061218f565b806107155760405162461bcd60e51b815260206004820152601660248201527516995c9bc81c1bdbdb1cc81b9bdd08185b1b1bddd95960521b60448201526064016105b1565b61072261012f8383611cbc565b507f6187e1768e40e62b32444b53b922b0800a6df800e67f29980229018b436635378282604051610754929190611fdd565b60405180910390a15050565b306001600160a01b037f00000000000000000000000000000000000000000000000000000000000000001614156107a95760405162461bcd60e51b81526004016105b1906120a9565b7f00000000000000000000000000000000000000000000000000000000000000006001600160a01b03166107f26000805160206122e2833981519152546001600160a01b031690565b6001600160a01b0316146108185760405162461bcd60e51b81526004016105b1906120f5565b6108218261115c565b6105c482826001611186565b6000306001600160a01b037f000000000000000000000000000000000000000000000000000000000000000016146108cd5760405162461bcd60e51b815260206004820152603860248201527f555550535570677261646561626c653a206d757374206e6f742062652063616c60448201527f6c6564207468726f7567682064656c656761746563616c6c000000000000000060648201526084016105b1565b506000805160206122e283398151915290565b6108eb600033610d92565b6109075760405162461bcd60e51b81526004016105b19061218f565b61012e54600090821161091a578161091f565b61012e545b905060005b81811015610a105783838281811061093e5761093e612295565b90506020020160208101906109539190611d50565b61012e828154811061096757610967612295565b9060005260206000200160006101000a8154816001600160a01b0302191690836001600160a01b031602179055507f280e552cb7178777086978375944377778a231ca8443954a471e8254f0b92263818585848181106109c9576109c9612295565b90506020020160208101906109de9190611d50565b604080519283526001600160a01b0390911660208301520160405180910390a180610a088161224e565b915050610924565b5081811015610afc57805b82811015610afa5761012e848483818110610a3857610a38612295565b9050602002016020810190610a4d9190611d50565b81546001810183556000928352602090922090910180546001600160a01b0319166001600160a01b039092169190911790557f280e552cb7178777086978375944377778a231ca8443954a471e8254f0b9226381858582818110610ab357610ab3612295565b9050602002016020810190610ac89190611d50565b604080519283526001600160a01b0390911660208301520160405180910390a180610af28161224e565b915050610a1b565b505b61012e548210156105155761012e54600090610b199084906121f4565b905060005b81811015610bfa5761012e805460009190610b3b906001906121f4565b81548110610b4b57610b4b612295565b60009182526020909120015461012e80546001600160a01b0390921692509080610b7757610b7761227f565b600082815260209020810160001990810180546001600160a01b031916905501905561012e546040517f1b2ec7371f339d06464959739f6533377c1da2b520456e8e694c6885cd9c35b291610bdf9184909182526001600160a01b0316602082015260400190565b60405180910390a15080610bf28161224e565b915050610b1e565b5050505050565b600054610100900460ff1615808015610c215750600054600160ff909116105b80610c3b5750303b158015610c3b575060005460ff166001145b610c575760405162461bcd60e51b81526004016105b190612141565b6000805460ff191660011790558015610c7a576000805461ff0019166101001790555b610c82611300565b80156106a5576000805461ff0019169055604051600181527f7f26b83ff96e1f2b6a682f133852f6798a09c465da95921460cefb3847402498906020015b60405180910390a150565b610cd6600033610d92565b610cf25760405162461bcd60e51b81526004016105b19061218f565b6001600160a01b038116610d435760405162461bcd60e51b815260206004820152601860248201527716995c9bc81859191c995cdcc81b9bdd08185b1b1bddd95960421b60448201526064016105b1565b61013080546001600160a01b0319166001600160a01b0383169081179091556040519081527f01a0e0a0b84370b43f224ea44f84459b4d362417ae40303d4b32319dcf08c2c090602001610cc0565b60009182526065602090815260408084206001600160a01b0393909316845291905290205460ff1690565b610dc8600033610d92565b610de45760405162461bcd60e51b81526004016105b19061218f565b6001600160a01b038116610e355760405162461bcd60e51b815260206004820152601860248201527716995c9bc81859191c995cdcc81b9bdd08185b1b1bddd95960421b60448201526064016105b1565b61013180546001600160a01b0319166001600160a01b0383169081179091556040519081527fb2ca5818c0bc1f43830eb395e2aaff552ccc9ce0229dd3db6c9b07f47b7cc21f90602001610cc0565b606061012e805480602002602001604051908101604052809291908181526020018280548015610edd57602002820191906000526020600020905b81546001600160a01b03168152600190910190602001808311610ebf575b5050505050905090565b600082815260656020526040902060010154610f0281611065565b61051583836110f5565b610f17600033610d92565b610f335760405162461bcd60e51b81526004016105b19061218f565b60fb546001600160a01b031615610f695760fb54610f69906000805160206122c2833981519152906001600160a01b0316610ee7565b610f816000805160206122c2833981519152826104f0565b60fb80546001600160a01b0319166001600160a01b0383169081179091556040519081527f1af34e943bb581f62718acd39caf1a640e9ff89789a197745e259d1f40cd9bd690602001610cc0565b61012f818154811061052b57600080fd5b610ff86000805160206122c283398151915233610d92565b6110445760405162461bcd60e51b815260206004820152601b60248201527f43616c6c6572206973206e6f74207468652045584348414e474552000000000060448201526064016105b1565b61104c6113be565b611054611456565b565b6001600160a01b03163b151590565b6106a58133611816565b6110798282610d92565b6105c45760008281526065602090815260408083206001600160a01b03851684529091529020805460ff191660011790556110b13390565b6001600160a01b0316816001600160a01b0316837f2f8788117e7eff1d82e926ec794901d17c78024a50270940304540a733656f0d60405160405180910390a45050565b6110ff8282610d92565b156105c45760008281526065602090815260408083206001600160a01b0385168085529252808320805460ff1916905551339285917ff6391f5c32d9c69d2a47ea670b442974b53935d1edc7fd64eb21e047a839171b9190a45050565b7f189ab7a9244df0848122154315af71fe140f3db0fe014031783b0946b8c9d2e36105c481611065565b7f4910fdfa16fed3260ed0e7147f7cc6da11a60208b5b9406d12a635614ffd91435460ff16156111b9576105158361187a565b826001600160a01b03166352d1902d6040518163ffffffff1660e01b815260040160206040518083038186803b1580156111f257600080fd5b505afa925050508015611222575060408051601f3d908101601f1916820190925261121f91810190611edd565b60015b6112855760405162461bcd60e51b815260206004820152602e60248201527f45524331393637557067726164653a206e657720696d706c656d656e7461746960448201526d6f6e206973206e6f74205555505360901b60648201526084016105b1565b6000805160206122e283398151915281146112f45760405162461bcd60e51b815260206004820152602960248201527f45524331393637557067726164653a20756e737570706f727465642070726f786044820152681a58589b195555525160ba1b60648201526084016105b1565b50610515838383611916565b600054610100900460ff16158080156113205750600054600160ff909116105b8061133a5750303b15801561133a575060005460ff166001145b6113565760405162461bcd60e51b81526004016105b190612141565b6000805460ff191660011790558015611379576000805461ff0019166101001790555b611381611941565b611389611941565b61139460003361106f565b610c827f189ab7a9244df0848122154315af71fe140f3db0fe014031783b0946b8c9d2e33361106f565b60005b61012e548110156106a55761012e81815481106113e0576113e0612295565b60009182526020822001546040805160016209351760e01b0319815290516001600160a01b039092169263fff6cae99260048084019382900301818387803b15801561142b57600080fd5b505af115801561143f573d6000803e3d6000fd5b50505050808061144e9061224e565b9150506113c1565b610131546040516370a0823160e01b81523060048201526000916001600160a01b0316906370a082319060240160206040518083038186803b15801561149b57600080fd5b505afa1580156114af573d6000803e3d6000fd5b505050506040513d601f19601f820116820180604052508101906114d39190611edd565b905060005b61012f548110156116c657600061012f82815481106114f9576114f9612295565b6000918252602082200154610131546040516370a0823160e01b81523060048201526001600160a01b0392831694509116906370a082319060240160206040518083038186803b15801561154c57600080fd5b505afa158015611560573d6000803e3d6000fd5b505050506040513d601f19601f820116820180604052508101906115849190611edd565b60405163bc25cf7760e01b81523060048201529091506001600160a01b0383169063bc25cf7790602401600060405180830381600087803b1580156115c857600080fd5b505af11580156115dc573d6000803e3d6000fd5b5050610131546040516370a0823160e01b8152306004820152600093508492506001600160a01b03909116906370a082319060240160206040518083038186803b15801561162957600080fd5b505afa15801561163d573d6000803e3d6000fd5b505050506040513d601f19601f820116820180604052508101906116619190611edd565b61166b91906121f4565b604080516001600160a01b0386168152602081018390529192507fe05e5f0ca71ed6c82b877a9eb0da2e6c20c71615aac52d01db0b148370686c8a910160405180910390a150505080806116be9061224e565b9150506114d8565b50610131546040516370a0823160e01b815230600482015260009183916001600160a01b03909116906370a082319060240160206040518083038186803b15801561171057600080fd5b505afa158015611724573d6000803e3d6000fd5b505050506040513d601f19601f820116820180604052508101906117489190611edd565b61175291906121f4565b905080156117e657610131546101305460405163a9059cbb60e01b81526001600160a01b0391821660048201526024810184905291169063a9059cbb90604401602060405180830381600087803b1580156117ac57600080fd5b505af11580156117c0573d6000803e3d6000fd5b505050506040513d601f19601f820116820180604052508101906117e49190611ea2565b505b6040518181527f1a28a01ab782f909b1dfff940b3473cae50553a970240ae1f736afb6d618c77390602001610754565b6118208282610d92565b6105c457611838816001600160a01b031660146119ac565b6118438360206119ac565b604051602001611854929190611f68565b60408051601f198184030181529082905262461bcd60e51b82526105b191600401612076565b6001600160a01b0381163b6118e75760405162461bcd60e51b815260206004820152602d60248201527f455243313936373a206e657720696d706c656d656e746174696f6e206973206e60448201526c1bdd08184818dbdb9d1c9858dd609a1b60648201526084016105b1565b6000805160206122e283398151915280546001600160a01b0319166001600160a01b0392909216919091179055565b61191f83611b4f565b60008251118061192c5750805b156105155761193b8383611b8f565b50505050565b600054610100900460ff166110545760405162461bcd60e51b815260206004820152602b60248201527f496e697469616c697a61626c653a20636f6e7472616374206973206e6f74206960448201526a6e697469616c697a696e6760a81b60648201526084016105b1565b606060006119bb8360026121d5565b6119c69060026121bd565b67ffffffffffffffff8111156119de576119de6122ab565b6040519080825280601f01601f191660200182016040528015611a08576020820181803683370190505b509050600360fc1b81600081518110611a2357611a23612295565b60200101906001600160f81b031916908160001a905350600f60fb1b81600181518110611a5257611a52612295565b60200101906001600160f81b031916908160001a9053506000611a768460026121d5565b611a819060016121bd565b90505b6001811115611af9576f181899199a1a9b1b9c1cb0b131b232b360811b85600f1660108110611ab557611ab5612295565b1a60f81b828281518110611acb57611acb612295565b60200101906001600160f81b031916908160001a90535060049490941c93611af281612237565b9050611a84565b508315611b485760405162461bcd60e51b815260206004820181905260248201527f537472696e67733a20686578206c656e67746820696e73756666696369656e7460448201526064016105b1565b9392505050565b611b588161187a565b6040516001600160a01b038216907fbc7cd75a20ee27fd9adebab32041f755214dbc6bffa90cc0225b39da2e5c2d3b90600090a250565b60606001600160a01b0383163b611bf75760405162461bcd60e51b815260206004820152602660248201527f416464726573733a2064656c65676174652063616c6c20746f206e6f6e2d636f6044820152651b9d1c9858dd60d21b60648201526084016105b1565b600080846001600160a01b031684604051611c129190611f4c565b600060405180830381855af49150503d8060008114611c4d576040519150601f19603f3d011682016040523d82523d6000602084013e611c52565b606091505b5091509150611c7a828260405180606001604052806027815260200161230260279139611c83565b95945050505050565b60608315611c92575081611b48565b825115611ca25782518084602001fd5b8160405162461bcd60e51b81526004016105b19190612076565b828054828255906000526020600020908101928215611d0f579160200282015b82811115611d0f5781546001600160a01b0319166001600160a01b03843516178255602090920191600190910190611cdc565b50611d1b929150611d1f565b5090565b5b80821115611d1b5760008155600101611d20565b80356001600160a01b0381168114611d4b57600080fd5b919050565b600060208284031215611d6257600080fd5b611b4882611d34565b60008060408385031215611d7e57600080fd5b611d8783611d34565b9150602083013567ffffffffffffffff80821115611da457600080fd5b818501915085601f830112611db857600080fd5b813581811115611dca57611dca6122ab565b604051601f8201601f19908116603f01168101908382118183101715611df257611df26122ab565b81604052828152886020848701011115611e0b57600080fd5b8260208601602083013760006020848301015280955050505050509250929050565b60008060208385031215611e4057600080fd5b823567ffffffffffffffff80821115611e5857600080fd5b818501915085601f830112611e6c57600080fd5b813581811115611e7b57600080fd5b8660208260051b8501011115611e9057600080fd5b60209290920196919550909350505050565b600060208284031215611eb457600080fd5b81518015158114611b4857600080fd5b600060208284031215611ed657600080fd5b5035919050565b600060208284031215611eef57600080fd5b5051919050565b60008060408385031215611f0957600080fd5b82359150611f1960208401611d34565b90509250929050565b600060208284031215611f3457600080fd5b81356001600160e01b031981168114611b4857600080fd5b60008251611f5e81846020870161220b565b9190910192915050565b7f416363657373436f6e74726f6c3a206163636f756e7420000000000000000000815260008351611fa081601785016020880161220b565b7001034b99036b4b9b9b4b733903937b6329607d1b6017918401918201528351611fd181602884016020880161220b565b01602801949350505050565b60208082528181018390526000908460408401835b8681101561201e576001600160a01b0361200b84611d34565b1682529183019190830190600101611ff2565b509695505050505050565b6020808252825182820181905260009190848201906040850190845b8181101561206a5783516001600160a01b031683529284019291840191600101612045565b50909695505050505050565b602081526000825180602084015261209581604085016020870161220b565b601f01601f19169190910160400192915050565b6020808252602c908201527f46756e6374696f6e206d7573742062652063616c6c6564207468726f7567682060408201526b19195b1959d85d1958d85b1b60a21b606082015260800190565b6020808252602c908201527f46756e6374696f6e206d7573742062652063616c6c6564207468726f7567682060408201526b6163746976652070726f787960a01b606082015260800190565b6020808252602e908201527f496e697469616c697a61626c653a20636f6e747261637420697320616c72656160408201526d191e481a5b9a5d1a585b1a5e995960921b606082015260800190565b6020808252601490820152735265737472696374656420746f2061646d696e7360601b604082015260600190565b600082198211156121d0576121d0612269565b500190565b60008160001904831182151516156121ef576121ef612269565b500290565b60008282101561220657612206612269565b500390565b60005b8381101561222657818101518382015260200161220e565b8381111561193b5750506000910152565b60008161224657612246612269565b506000190190565b600060001982141561226257612262612269565b5060010190565b634e487b7160e01b600052601160045260246000fd5b634e487b7160e01b600052603160045260246000fd5b634e487b7160e01b600052603260045260246000fd5b634e487b7160e01b600052604160045260246000fdfe3eb675f159e6ca6cf5de6bfbbc8c4521cfd428f5e9166e51094d5898504caf2d360894a13ba1a3210667c828492db98dca3e2076cc3735a920a3ca505d382bbc416464726573733a206c6f772d6c6576656c2064656c65676174652063616c6c206661696c6564a2646970667358221220ef5eefbc13a824e6eb805b0d987762452a129deb11f74c2ff87d61fc5033693c64736f6c63430008060033",
  "devdoc": {
    "kind": "dev",
    "methods": {
      "constructor": {
        "custom:oz-upgrades-unsafe-allow": "constructor"
      },
      "getRoleAdmin(bytes32)": {
        "details": "Returns the admin role that controls `role`. See {grantRole} and {revokeRole}. To change a role's admin, use {_setRoleAdmin}."
      },
      "grantRole(bytes32,address)": {
        "details": "Grants `role` to `account`. If `account` had not been already granted `role`, emits a {RoleGranted} event. Requirements: - the caller must have ``role``'s admin role. May emit a {RoleGranted} event."
      },
      "hasRole(bytes32,address)": {
        "details": "Returns `true` if `account` has been granted `role`."
      },
      "proxiableUUID()": {
        "details": "Implementation of the ERC1822 {proxiableUUID} function. This returns the storage slot used by the implementation. It is used to validate that the this implementation remains valid after an upgrade. IMPORTANT: A proxy pointing at a proxiable contract should not be considered proxiable itself, because this risks bricking a proxy that upgrades to it, by delegating to itself until out of gas. Thus it is critical that this function revert if invoked through a proxy. This is guaranteed by the `notDelegated` modifier."
      },
      "renounceRole(bytes32,address)": {
        "details": "Revokes `role` from the calling account. Roles are often managed via {grantRole} and {revokeRole}: this function's purpose is to provide a mechanism for accounts to lose their privileges if they are compromised (such as when a trusted device is misplaced). If the calling account had been revoked `role`, emits a {RoleRevoked} event. Requirements: - the caller must be `account`. May emit a {RoleRevoked} event."
      },
      "revokeRole(bytes32,address)": {
        "details": "Revokes `role` from `account`. If `account` had been granted `role`, emits a {RoleRevoked} event. Requirements: - the caller must have ``role``'s admin role. May emit a {RoleRevoked} event."
      },
      "supportsInterface(bytes4)": {
        "details": "See {IERC165-supportsInterface}."
      },
      "upgradeTo(address)": {
        "details": "Upgrade the implementation of the proxy to `newImplementation`. Calls {_authorizeUpgrade}. Emits an {Upgraded} event."
      },
      "upgradeToAndCall(address,bytes)": {
        "details": "Upgrade the implementation of the proxy to `newImplementation`, and subsequently execute the function call encoded in `data`. Calls {_authorizeUpgrade}. Emits an {Upgraded} event."
      }
    },
    "version": 1
  },
  "userdoc": {
    "kind": "user",
    "methods": {},
    "version": 1
  },
  "storageLayout": {
    "storage": [
      {
        "astId": 808,
        "contract": "contracts/payoutlisteners/AvalanchePayoutListener.sol:AvalanchePayoutListener",
        "label": "_initialized",
        "offset": 0,
        "slot": "0",
        "type": "t_uint8"
      },
      {
        "astId": 811,
        "contract": "contracts/payoutlisteners/AvalanchePayoutListener.sol:AvalanchePayoutListener",
        "label": "_initializing",
        "offset": 1,
        "slot": "0",
        "type": "t_bool"
      },
      {
        "astId": 2589,
        "contract": "contracts/payoutlisteners/AvalanchePayoutListener.sol:AvalanchePayoutListener",
        "label": "__gap",
        "offset": 0,
        "slot": "1",
        "type": "t_array(t_uint256)50_storage"
      },
      {
        "astId": 2919,
        "contract": "contracts/payoutlisteners/AvalanchePayoutListener.sol:AvalanchePayoutListener",
        "label": "__gap",
        "offset": 0,
        "slot": "51",
        "type": "t_array(t_uint256)50_storage"
      },
      {
        "astId": 39,
        "contract": "contracts/payoutlisteners/AvalanchePayoutListener.sol:AvalanchePayoutListener",
        "label": "_roles",
        "offset": 0,
        "slot": "101",
        "type": "t_mapping(t_bytes32,t_struct(RoleData)34_storage)"
      },
      {
        "astId": 338,
        "contract": "contracts/payoutlisteners/AvalanchePayoutListener.sol:AvalanchePayoutListener",
        "label": "__gap",
        "offset": 0,
        "slot": "102",
        "type": "t_array(t_uint256)49_storage"
      },
      {
        "astId": 790,
        "contract": "contracts/payoutlisteners/AvalanchePayoutListener.sol:AvalanchePayoutListener",
        "label": "__gap",
        "offset": 0,
        "slot": "151",
        "type": "t_array(t_uint256)50_storage"
      },
      {
        "astId": 1087,
        "contract": "contracts/payoutlisteners/AvalanchePayoutListener.sol:AvalanchePayoutListener",
        "label": "__gap",
        "offset": 0,
        "slot": "201",
        "type": "t_array(t_uint256)50_storage"
      },
      {
        "astId": 8688,
        "contract": "contracts/payoutlisteners/AvalanchePayoutListener.sol:AvalanchePayoutListener",
        "label": "exchange",
        "offset": 0,
        "slot": "251",
        "type": "t_address"
      },
      {
        "astId": 8790,
        "contract": "contracts/payoutlisteners/AvalanchePayoutListener.sol:AvalanchePayoutListener",
        "label": "__gap",
        "offset": 0,
        "slot": "252",
        "type": "t_array(t_uint256)50_storage"
      },
      {
        "astId": 12582,
        "contract": "contracts/payoutlisteners/AvalanchePayoutListener.sol:AvalanchePayoutListener",
        "label": "qsSyncPools",
        "offset": 0,
        "slot": "302",
        "type": "t_array(t_address)dyn_storage"
      },
      {
        "astId": 12585,
        "contract": "contracts/payoutlisteners/AvalanchePayoutListener.sol:AvalanchePayoutListener",
        "label": "swapsicleSkimPools",
        "offset": 0,
        "slot": "303",
        "type": "t_array(t_address)dyn_storage"
      },
      {
        "astId": 12587,
        "contract": "contracts/payoutlisteners/AvalanchePayoutListener.sol:AvalanchePayoutListener",
        "label": "swapsicleDepositWallet",
        "offset": 0,
        "slot": "304",
        "type": "t_address"
      },
      {
        "astId": 12590,
        "contract": "contracts/payoutlisteners/AvalanchePayoutListener.sol:AvalanchePayoutListener",
        "label": "usdPlus",
        "offset": 0,
        "slot": "305",
        "type": "t_contract(IERC20)3596"
      }
    ],
    "types": {
      "t_address": {
        "encoding": "inplace",
        "label": "address",
        "numberOfBytes": "20"
      },
      "t_array(t_address)dyn_storage": {
        "base": "t_address",
        "encoding": "dynamic_array",
        "label": "address[]",
        "numberOfBytes": "32"
      },
      "t_array(t_uint256)49_storage": {
        "base": "t_uint256",
        "encoding": "inplace",
        "label": "uint256[49]",
        "numberOfBytes": "1568"
      },
      "t_array(t_uint256)50_storage": {
        "base": "t_uint256",
        "encoding": "inplace",
        "label": "uint256[50]",
        "numberOfBytes": "1600"
      },
      "t_bool": {
        "encoding": "inplace",
        "label": "bool",
        "numberOfBytes": "1"
      },
      "t_bytes32": {
        "encoding": "inplace",
        "label": "bytes32",
        "numberOfBytes": "32"
      },
      "t_contract(IERC20)3596": {
        "encoding": "inplace",
        "label": "contract IERC20",
        "numberOfBytes": "20"
      },
      "t_mapping(t_address,t_bool)": {
        "encoding": "mapping",
        "key": "t_address",
        "label": "mapping(address => bool)",
        "numberOfBytes": "32",
        "value": "t_bool"
      },
      "t_mapping(t_bytes32,t_struct(RoleData)34_storage)": {
        "encoding": "mapping",
        "key": "t_bytes32",
        "label": "mapping(bytes32 => struct AccessControlUpgradeable.RoleData)",
        "numberOfBytes": "32",
        "value": "t_struct(RoleData)34_storage"
      },
      "t_struct(RoleData)34_storage": {
        "encoding": "inplace",
        "label": "struct AccessControlUpgradeable.RoleData",
        "members": [
          {
            "astId": 31,
            "contract": "contracts/payoutlisteners/AvalanchePayoutListener.sol:AvalanchePayoutListener",
            "label": "members",
            "offset": 0,
            "slot": "0",
            "type": "t_mapping(t_address,t_bool)"
          },
          {
            "astId": 33,
            "contract": "contracts/payoutlisteners/AvalanchePayoutListener.sol:AvalanchePayoutListener",
            "label": "adminRole",
            "offset": 0,
            "slot": "1",
            "type": "t_bytes32"
          }
        ],
        "numberOfBytes": "64"
      },
      "t_uint256": {
        "encoding": "inplace",
        "label": "uint256",
        "numberOfBytes": "32"
      },
      "t_uint8": {
        "encoding": "inplace",
        "label": "uint8",
        "numberOfBytes": "1"
      }
    }
  }
}