{
  "address": "0x73cb180bf0521828d8849bc8CF2B920918e23032",
  "abi": [
    {
      "inputs": [],
      "stateMutability": "nonpayable",
      "type": "constructor"
    },
    {
      "anonymous": false,
      "inputs": [
        {
          "indexed": false,
          "internalType": "uint256",
          "name": "min",
          "type": "uint256"
        },
        {
          "indexed": false,
          "internalType": "uint256",
          "name": "max",
          "type": "uint256"
        }
      ],
      "name": "Abroad",
      "type": "event"
    },
    {
      "anonymous": false,
      "inputs": [
        {
          "indexed": false,
          "internalType": "address",
          "name": "previousAdmin",
          "type": "address"
        },
        {
          "indexed": false,
          "internalType": "address",
          "name": "newAdmin",
          "type": "address"
        }
      ],
      "name": "AdminChanged",
      "type": "event"
    },
    {
      "anonymous": false,
      "inputs": [
        {
          "indexed": true,
          "internalType": "address",
          "name": "beacon",
          "type": "address"
        }
      ],
      "name": "BeaconUpgraded",
      "type": "event"
    },
    {
      "anonymous": false,
      "inputs": [
        {
          "indexed": false,
          "internalType": "uint256",
          "name": "fee",
          "type": "uint256"
        },
        {
          "indexed": false,
          "internalType": "uint256",
          "name": "feeDenominator",
          "type": "uint256"
        }
      ],
      "name": "BuyFeeUpdated",
      "type": "event"
    },
    {
      "anonymous": false,
      "inputs": [
        {
          "indexed": false,
          "internalType": "string",
          "name": "label",
          "type": "string"
        },
        {
          "indexed": false,
          "internalType": "uint256",
          "name": "amount",
          "type": "uint256"
        },
        {
          "indexed": false,
          "internalType": "uint256",
          "name": "fee",
          "type": "uint256"
        },
        {
          "indexed": false,
          "internalType": "address",
          "name": "sender",
          "type": "address"
        }
      ],
      "name": "EventExchange",
      "type": "event"
    },
    {
      "anonymous": false,
      "inputs": [
        {
          "indexed": false,
          "internalType": "uint8",
          "name": "version",
          "type": "uint8"
        }
      ],
      "name": "Initialized",
      "type": "event"
    },
    {
      "anonymous": false,
      "inputs": [
        {
          "indexed": false,
          "internalType": "address",
          "name": "mark2market",
          "type": "address"
        }
      ],
      "name": "Mark2MarketUpdated",
      "type": "event"
    },
    {
      "anonymous": false,
      "inputs": [
        {
          "indexed": false,
          "internalType": "uint256",
          "name": "nextPayoutTime",
          "type": "uint256"
        }
      ],
      "name": "NextPayoutTime",
      "type": "event"
    },
    {
      "anonymous": false,
      "inputs": [
        {
          "indexed": false,
          "internalType": "address",
          "name": "token",
          "type": "address"
        },
        {
          "indexed": false,
          "internalType": "uint256",
          "name": "amount",
          "type": "uint256"
        }
      ],
      "name": "OnNotEnoughLimitRedeemed",
      "type": "event"
    },
    {
      "anonymous": false,
      "inputs": [
        {
          "indexed": false,
          "internalType": "uint256",
          "name": "amount",
          "type": "uint256"
        },
        {
          "indexed": false,
          "internalType": "uint256",
          "name": "feeAmount",
          "type": "uint256"
        }
      ],
      "name": "PaidBuyFee",
      "type": "event"
    },
    {
      "anonymous": false,
      "inputs": [
        {
          "indexed": false,
          "internalType": "uint256",
          "name": "amount",
          "type": "uint256"
        },
        {
          "indexed": false,
          "internalType": "uint256",
          "name": "feeAmount",
          "type": "uint256"
        }
      ],
      "name": "PaidRedeemFee",
      "type": "event"
    },
    {
      "anonymous": false,
      "inputs": [
        {
          "indexed": false,
          "internalType": "address",
          "name": "account",
          "type": "address"
        }
      ],
      "name": "Paused",
      "type": "event"
    },
    {
      "anonymous": false,
      "inputs": [
        {
          "indexed": false,
          "internalType": "uint256",
          "name": "delta",
          "type": "uint256"
        },
        {
          "indexed": false,
          "internalType": "uint256",
          "name": "deltaUsdPlus",
          "type": "uint256"
        }
      ],
      "name": "PayoutAbroad",
      "type": "event"
    },
    {
      "anonymous": false,
      "inputs": [
        {
          "indexed": false,
          "internalType": "uint256",
          "name": "totalUsdPlus",
          "type": "uint256"
        },
        {
          "indexed": false,
          "internalType": "uint256",
          "name": "totalUsdc",
          "type": "uint256"
        },
        {
          "indexed": false,
          "internalType": "uint256",
          "name": "totallyAmountPaid",
          "type": "uint256"
        },
        {
          "indexed": false,
          "internalType": "uint256",
          "name": "newLiquidityIndex",
          "type": "uint256"
        }
      ],
      "name": "PayoutEvent",
      "type": "event"
    },
    {
      "anonymous": false,
      "inputs": [
        {
          "indexed": false,
          "internalType": "address",
          "name": "payoutListener",
          "type": "address"
        }
      ],
      "name": "PayoutListenerUpdated",
      "type": "event"
    },
    {
      "anonymous": false,
      "inputs": [
        {
          "indexed": false,
          "internalType": "uint256",
          "name": "nextPayoutTime",
          "type": "uint256"
        },
        {
          "indexed": false,
          "internalType": "uint256",
          "name": "payoutPeriod",
          "type": "uint256"
        },
        {
          "indexed": false,
          "internalType": "uint256",
          "name": "payoutTimeRange",
          "type": "uint256"
        }
      ],
      "name": "PayoutTimesUpdated",
      "type": "event"
    },
    {
      "anonymous": false,
      "inputs": [
        {
          "indexed": false,
          "internalType": "address",
          "name": "portfolioManager",
          "type": "address"
        }
      ],
      "name": "PortfolioManagerUpdated",
      "type": "event"
    },
    {
      "anonymous": false,
      "inputs": [
        {
          "indexed": false,
          "internalType": "uint256",
          "name": "fee",
          "type": "uint256"
        },
        {
          "indexed": false,
          "internalType": "uint256",
          "name": "feeDenominator",
          "type": "uint256"
        }
      ],
      "name": "RedeemFeeUpdated",
      "type": "event"
    },
    {
      "anonymous": false,
      "inputs": [
        {
          "indexed": true,
          "internalType": "bytes32",
          "name": "role",
          "type": "bytes32"
        },
        {
          "indexed": true,
          "internalType": "bytes32",
          "name": "previousAdminRole",
          "type": "bytes32"
        },
        {
          "indexed": true,
          "internalType": "bytes32",
          "name": "newAdminRole",
          "type": "bytes32"
        }
      ],
      "name": "RoleAdminChanged",
      "type": "event"
    },
    {
      "anonymous": false,
      "inputs": [
        {
          "indexed": true,
          "internalType": "bytes32",
          "name": "role",
          "type": "bytes32"
        },
        {
          "indexed": true,
          "internalType": "address",
          "name": "account",
          "type": "address"
        },
        {
          "indexed": true,
          "internalType": "address",
          "name": "sender",
          "type": "address"
        }
      ],
      "name": "RoleGranted",
      "type": "event"
    },
    {
      "anonymous": false,
      "inputs": [
        {
          "indexed": true,
          "internalType": "bytes32",
          "name": "role",
          "type": "bytes32"
        },
        {
          "indexed": true,
          "internalType": "address",
          "name": "account",
          "type": "address"
        },
        {
          "indexed": true,
          "internalType": "address",
          "name": "sender",
          "type": "address"
        }
      ],
      "name": "RoleRevoked",
      "type": "event"
    },
    {
      "anonymous": false,
      "inputs": [
        {
          "indexed": false,
          "internalType": "address",
          "name": "usdPlus",
          "type": "address"
        },
        {
          "indexed": false,
          "internalType": "address",
          "name": "usdc",
          "type": "address"
        }
      ],
      "name": "TokensUpdated",
      "type": "event"
    },
    {
      "anonymous": false,
      "inputs": [
        {
          "indexed": false,
          "internalType": "address",
          "name": "account",
          "type": "address"
        }
      ],
      "name": "Unpaused",
      "type": "event"
    },
    {
      "anonymous": false,
      "inputs": [
        {
          "indexed": true,
          "internalType": "address",
          "name": "implementation",
          "type": "address"
        }
      ],
      "name": "Upgraded",
      "type": "event"
    },
    {
      "inputs": [],
      "name": "DEFAULT_ADMIN_ROLE",
      "outputs": [
        {
          "internalType": "bytes32",
          "name": "",
          "type": "bytes32"
        }
      ],
      "stateMutability": "view",
      "type": "function"
    },
    {
      "inputs": [],
      "name": "PAUSABLE_ROLE",
      "outputs": [
        {
          "internalType": "bytes32",
          "name": "",
          "type": "bytes32"
        }
      ],
      "stateMutability": "view",
      "type": "function"
    },
    {
      "inputs": [],
      "name": "UPGRADER_ROLE",
      "outputs": [
        {
          "internalType": "bytes32",
          "name": "",
          "type": "bytes32"
        }
      ],
      "stateMutability": "view",
      "type": "function"
    },
    {
      "inputs": [],
      "name": "abroadMax",
      "outputs": [
        {
          "internalType": "uint256",
          "name": "",
          "type": "uint256"
        }
      ],
      "stateMutability": "view",
      "type": "function"
    },
    {
      "inputs": [],
      "name": "abroadMin",
      "outputs": [
        {
          "internalType": "uint256",
          "name": "",
          "type": "uint256"
        }
      ],
      "stateMutability": "view",
      "type": "function"
    },
    {
      "inputs": [],
      "name": "balance",
      "outputs": [
        {
          "internalType": "uint256",
          "name": "",
          "type": "uint256"
        }
      ],
      "stateMutability": "view",
      "type": "function"
    },
    {
      "inputs": [
        {
          "internalType": "address",
          "name": "_addrTok",
          "type": "address"
        },
        {
          "internalType": "uint256",
          "name": "_amount",
          "type": "uint256"
        }
      ],
      "name": "buy",
      "outputs": [
        {
          "internalType": "uint256",
          "name": "",
          "type": "uint256"
        }
      ],
      "stateMutability": "nonpayable",
      "type": "function"
    },
    {
      "inputs": [],
      "name": "buyFee",
      "outputs": [
        {
          "internalType": "uint256",
          "name": "",
          "type": "uint256"
        }
      ],
      "stateMutability": "view",
      "type": "function"
    },
    {
      "inputs": [],
      "name": "buyFeeDenominator",
      "outputs": [
        {
          "internalType": "uint256",
          "name": "",
          "type": "uint256"
        }
      ],
      "stateMutability": "view",
      "type": "function"
    },
    {
      "inputs": [
        {
          "internalType": "bytes32",
          "name": "role",
          "type": "bytes32"
        }
      ],
      "name": "getRoleAdmin",
      "outputs": [
        {
          "internalType": "bytes32",
          "name": "",
          "type": "bytes32"
        }
      ],
      "stateMutability": "view",
      "type": "function"
    },
    {
      "inputs": [
        {
          "internalType": "bytes32",
          "name": "role",
          "type": "bytes32"
        },
        {
          "internalType": "address",
          "name": "account",
          "type": "address"
        }
      ],
      "name": "grantRole",
      "outputs": [],
      "stateMutability": "nonpayable",
      "type": "function"
    },
    {
      "inputs": [
        {
          "internalType": "bytes32",
          "name": "role",
          "type": "bytes32"
        },
        {
          "internalType": "address",
          "name": "account",
          "type": "address"
        }
      ],
      "name": "hasRole",
      "outputs": [
        {
          "internalType": "bool",
          "name": "",
          "type": "bool"
        }
      ],
      "stateMutability": "view",
      "type": "function"
    },
    {
      "inputs": [],
      "name": "initialize",
      "outputs": [],
      "stateMutability": "nonpayable",
      "type": "function"
    },
    {
      "inputs": [],
      "name": "lastBlockNumber",
      "outputs": [
        {
          "internalType": "uint256",
          "name": "",
          "type": "uint256"
        }
      ],
      "stateMutability": "view",
      "type": "function"
    },
    {
      "inputs": [],
      "name": "mark2market",
      "outputs": [
        {
          "internalType": "contract IMark2Market",
          "name": "",
          "type": "address"
        }
      ],
      "stateMutability": "view",
      "type": "function"
    },
    {
      "inputs": [],
      "name": "nextPayoutTime",
      "outputs": [
        {
          "internalType": "uint256",
          "name": "",
          "type": "uint256"
        }
      ],
      "stateMutability": "view",
      "type": "function"
    },
    {
      "inputs": [],
      "name": "pause",
      "outputs": [],
      "stateMutability": "nonpayable",
      "type": "function"
    },
    {
      "inputs": [],
      "name": "paused",
      "outputs": [
        {
          "internalType": "bool",
          "name": "",
          "type": "bool"
        }
      ],
      "stateMutability": "view",
      "type": "function"
    },
    {
      "inputs": [],
      "name": "payout",
      "outputs": [],
      "stateMutability": "nonpayable",
      "type": "function"
    },
    {
      "inputs": [],
      "name": "payoutListener",
      "outputs": [
        {
          "internalType": "contract IPayoutListener",
          "name": "",
          "type": "address"
        }
      ],
      "stateMutability": "view",
      "type": "function"
    },
    {
      "inputs": [],
      "name": "payoutPeriod",
      "outputs": [
        {
          "internalType": "uint256",
          "name": "",
          "type": "uint256"
        }
      ],
      "stateMutability": "view",
      "type": "function"
    },
    {
      "inputs": [],
      "name": "payoutTimeRange",
      "outputs": [
        {
          "internalType": "uint256",
          "name": "",
          "type": "uint256"
        }
      ],
      "stateMutability": "view",
      "type": "function"
    },
    {
      "inputs": [],
      "name": "portfolioManager",
      "outputs": [
        {
          "internalType": "contract IPortfolioManager",
          "name": "",
          "type": "address"
        }
      ],
      "stateMutability": "view",
      "type": "function"
    },
    {
      "inputs": [],
      "name": "proxiableUUID",
      "outputs": [
        {
          "internalType": "bytes32",
          "name": "",
          "type": "bytes32"
        }
      ],
      "stateMutability": "view",
      "type": "function"
    },
    {
      "inputs": [
        {
          "internalType": "address",
          "name": "_addrTok",
          "type": "address"
        },
        {
          "internalType": "uint256",
          "name": "_amount",
          "type": "uint256"
        }
      ],
      "name": "redeem",
      "outputs": [
        {
          "internalType": "uint256",
          "name": "",
          "type": "uint256"
        }
      ],
      "stateMutability": "nonpayable",
      "type": "function"
    },
    {
      "inputs": [],
      "name": "redeemFee",
      "outputs": [
        {
          "internalType": "uint256",
          "name": "",
          "type": "uint256"
        }
      ],
      "stateMutability": "view",
      "type": "function"
    },
    {
      "inputs": [],
      "name": "redeemFeeDenominator",
      "outputs": [
        {
          "internalType": "uint256",
          "name": "",
          "type": "uint256"
        }
      ],
      "stateMutability": "view",
      "type": "function"
    },
    {
      "inputs": [
        {
          "internalType": "bytes32",
          "name": "role",
          "type": "bytes32"
        },
        {
          "internalType": "address",
          "name": "account",
          "type": "address"
        }
      ],
      "name": "renounceRole",
      "outputs": [],
      "stateMutability": "nonpayable",
      "type": "function"
    },
    {
      "inputs": [
        {
          "internalType": "bytes32",
          "name": "role",
          "type": "bytes32"
        },
        {
          "internalType": "address",
          "name": "account",
          "type": "address"
        }
      ],
      "name": "revokeRole",
      "outputs": [],
      "stateMutability": "nonpayable",
      "type": "function"
    },
    {
      "inputs": [
        {
          "internalType": "uint256",
          "name": "_min",
          "type": "uint256"
        },
        {
          "internalType": "uint256",
          "name": "_max",
          "type": "uint256"
        }
      ],
      "name": "setAbroad",
      "outputs": [],
      "stateMutability": "nonpayable",
      "type": "function"
    },
    {
      "inputs": [
        {
          "internalType": "uint256",
          "name": "_fee",
          "type": "uint256"
        },
        {
          "internalType": "uint256",
          "name": "_feeDenominator",
          "type": "uint256"
        }
      ],
      "name": "setBuyFee",
      "outputs": [],
      "stateMutability": "nonpayable",
      "type": "function"
    },
    {
      "inputs": [
        {
          "internalType": "address",
          "name": "_mark2market",
          "type": "address"
        }
      ],
      "name": "setMark2Market",
      "outputs": [],
      "stateMutability": "nonpayable",
      "type": "function"
    },
    {
      "inputs": [
        {
          "internalType": "address",
          "name": "_payoutListener",
          "type": "address"
        }
      ],
      "name": "setPayoutListener",
      "outputs": [],
      "stateMutability": "nonpayable",
      "type": "function"
    },
    {
      "inputs": [
        {
          "internalType": "uint256",
          "name": "_nextPayoutTime",
          "type": "uint256"
        },
        {
          "internalType": "uint256",
          "name": "_payoutPeriod",
          "type": "uint256"
        },
        {
          "internalType": "uint256",
          "name": "_payoutTimeRange",
          "type": "uint256"
        }
      ],
      "name": "setPayoutTimes",
      "outputs": [],
      "stateMutability": "nonpayable",
      "type": "function"
    },
    {
      "inputs": [
        {
          "internalType": "address",
          "name": "_portfolioManager",
          "type": "address"
        }
      ],
      "name": "setPortfolioManager",
      "outputs": [],
      "stateMutability": "nonpayable",
      "type": "function"
    },
    {
      "inputs": [
        {
          "internalType": "uint256",
          "name": "_fee",
          "type": "uint256"
        },
        {
          "internalType": "uint256",
          "name": "_feeDenominator",
          "type": "uint256"
        }
      ],
      "name": "setRedeemFee",
      "outputs": [],
      "stateMutability": "nonpayable",
      "type": "function"
    },
    {
      "inputs": [
        {
          "internalType": "address",
          "name": "_usdPlus",
          "type": "address"
        },
        {
          "internalType": "address",
          "name": "_usdc",
          "type": "address"
        }
      ],
      "name": "setTokens",
      "outputs": [],
      "stateMutability": "nonpayable",
      "type": "function"
    },
    {
      "inputs": [
        {
          "internalType": "bytes4",
          "name": "interfaceId",
          "type": "bytes4"
        }
      ],
      "name": "supportsInterface",
      "outputs": [
        {
          "internalType": "bool",
          "name": "",
          "type": "bool"
        }
      ],
      "stateMutability": "view",
      "type": "function"
    },
    {
      "inputs": [],
      "name": "unpause",
      "outputs": [],
      "stateMutability": "nonpayable",
      "type": "function"
    },
    {
      "inputs": [
        {
          "internalType": "address",
          "name": "newImplementation",
          "type": "address"
        }
      ],
      "name": "upgradeTo",
      "outputs": [],
      "stateMutability": "nonpayable",
      "type": "function"
    },
    {
      "inputs": [
        {
          "internalType": "address",
          "name": "newImplementation",
          "type": "address"
        },
        {
          "internalType": "bytes",
          "name": "data",
          "type": "bytes"
        }
      ],
      "name": "upgradeToAndCall",
      "outputs": [],
      "stateMutability": "payable",
      "type": "function"
    },
    {
      "inputs": [],
      "name": "usdPlus",
      "outputs": [
        {
          "internalType": "contract UsdPlusToken",
          "name": "",
          "type": "address"
        }
      ],
      "stateMutability": "view",
      "type": "function"
    },
    {
      "inputs": [],
      "name": "usdc",
      "outputs": [
        {
          "internalType": "contract IERC20",
          "name": "",
          "type": "address"
        }
      ],
      "stateMutability": "view",
      "type": "function"
    }
  ],
  "numDeployments": 2,
  "solcInputHash": "9fd4e437ef9b1cd392ded5f10d74ce24",
  "bytecode": "0x60a06040523060601b6080523480156200001857600080fd5b5060006200002760016200008e565b9050801562000040576000805461ff0019166101001790555b801562000087576000805461ff0019169055604051600181527f7f26b83ff96e1f2b6a682f133852f6798a09c465da95921460cefb38474024989060200160405180910390a15b50620001af565b60008054610100900460ff161562000127578160ff166001148015620000c75750620000c530620001a060201b62001b551760201c565b155b6200011f5760405162461bcd60e51b815260206004820152602e60248201526000805160206200330983398151915260448201526d191e481a5b9a5d1a585b1a5e995960921b60648201526084015b60405180910390fd5b506000919050565b60005460ff808416911610620001865760405162461bcd60e51b815260206004820152602e60248201526000805160206200330983398151915260448201526d191e481a5b9a5d1a585b1a5e995960921b606482015260840162000116565b506000805460ff191660ff92909216919091179055600190565b6001600160a01b03163b151590565b60805160601c61311f620001ea60003960008181610c6301528181610ca301528181610e4d01528181610e8d0152610f1c015261311f6000f3fe60806040526004361061025c5760003560e01c80636d8ebaa811610144578063bc56bebf116100b6578063cecbbc071161007a578063cecbbc07146106a1578063d547741f146106b8578063f3869e8d146106d8578063f6951693146106f8578063f72c0d8b14610719578063fb0ecfa41461074d57600080fd5b8063bc56bebf14610613578063c12e90e914610633578063cbc7854e1461064a578063cce7ec131461066a578063ce1aa76b1461068a57600080fd5b8063965fa21e11610108578063965fa21e146105725780639cca16d814610589578063a217fddf146105a9578063a440b21a146105be578063a4bb42a1146105de578063b69ef8a8146105fe57600080fd5b80636d8ebaa8146104fa5780637c5261d8146105115780638129fc1c146105285780638456cb591461053d57806391d148541461055257600080fd5b806337044771116101dd578063514e460a116101a1578063514e460a1461045f57806352d1902d146104805780635c975abb14610495578063620b75df146104ad57806362f09895146104ce57806363bd1d4a146104e557600080fd5b806337044771146103df5780633e413bee146103ff5780633f4ba83a1461042057806347062402146104355780634f1ef2861461044c57600080fd5b80632552317c116102245780632552317c1461034f5780632b78fe78146103665780632f2ff15d1461037d57806336568abe1461039f5780633659cfe6146103bf57600080fd5b806301ffc9a7146102615780630ffd778e14610296578063182531f8146102c65780631e9a6950146102ff578063248a9ca31461031f575b600080fd5b34801561026d57600080fd5b5061028161027c366004612c4e565b61076d565b60405190151581526020015b60405180910390f35b3480156102a257600080fd5b506102b86000805160206130ca83398151915281565b60405190815260200161028d565b3480156102d257600080fd5b50610138546102e7906001600160a01b031681565b6040516001600160a01b03909116815260200161028d565b34801561030b57600080fd5b506102b861031a366004612bad565b6107a4565b34801561032b57600080fd5b506102b861033a366004612bf9565b60009081526065602052604090206001015490565b34801561035b57600080fd5b506102b86101395481565b34801561037257600080fd5b506102b861013a5481565b34801561038957600080fd5b5061039d610398366004612c2b565b610bb0565b005b3480156103ab57600080fd5b5061039d6103ba366004612c2b565b610bda565b3480156103cb57600080fd5b5061039d6103da366004612a9d565b610c58565b3480156103eb57600080fd5b5061039d6103fa366004612a9d565b610d38565b34801561040b57600080fd5b5061012e546102e7906001600160a01b031681565b34801561042c57600080fd5b5061039d610ddb565b34801561044157600080fd5b506102b86101315481565b61039d61045a366004612aeb565b610e42565b34801561046b57600080fd5b5061012d546102e7906001600160a01b031681565b34801561048c57600080fd5b506102b8610f0f565b3480156104a157600080fd5b5060fb5460ff16610281565b3480156104b957600080fd5b5061012f546102e7906001600160a01b031681565b3480156104da57600080fd5b506102b86101325481565b3480156104f157600080fd5b5061039d610fc2565b34801561050657600080fd5b506102b86101355481565b34801561051d57600080fd5b506102b861013b5481565b34801561053457600080fd5b5061039d610fed565b34801561054957600080fd5b5061039d6110fd565b34801561055e57600080fd5b5061028161056d366004612c2b565b611162565b34801561057e57600080fd5b506102b86101335481565b34801561059557600080fd5b5061039d6105a4366004612c78565b61118d565b3480156105b557600080fd5b506102b8600081565b3480156105ca57600080fd5b5061039d6105d9366004612a9d565b6111fe565b3480156105ea57600080fd5b5061039d6105f9366004612a9d565b61129a565b34801561060a57600080fd5b506102b8611310565b34801561061f57600080fd5b5061039d61062e366004612c78565b611392565b34801561063f57600080fd5b506102b86101345481565b34801561065657600080fd5b5061039d610665366004612ab8565b611448565b34801561067657600080fd5b506102b8610685366004612bad565b611524565b34801561069657600080fd5b506102b86101365481565b3480156106ad57600080fd5b506102b86101375481565b3480156106c457600080fd5b5061039d6106d3366004612c2b565b6118f6565b3480156106e457600080fd5b5061039d6106f3366004612c9a565b61191b565b34801561070457600080fd5b50610130546102e7906001600160a01b031681565b34801561072557600080fd5b506102b87f189ab7a9244df0848122154315af71fe140f3db0fe014031783b0946b8c9d2e381565b34801561075957600080fd5b5061039d610768366004612c78565b611a9f565b60006001600160e01b03198216637965db0b60e01b148061079e57506301ffc9a760e01b6001600160e01b03198316145b92915050565b60006107b260fb5460ff1690565b156107d85760405162461bcd60e51b81526004016107cf90612e22565b60405180910390fd5b43610139541061081f5760405162461bcd60e51b81526020600482015260126024820152714f6e6c79206f6e636520696e20626c6f636b60701b60448201526064016107cf565b436101395561012e546001600160a01b0384811691161461089a5760405162461bcd60e51b815260206004820152602f60248201527f4f6e6c79205553444320746f6b656e732063757272656e746c7920617661696c60448201526e61626c6520666f722072656465656d60881b60648201526084016107cf565b60006101345461013354846108af9190612fc7565b6108b99190612fa5565b905060006108c78285612fe6565b60408051828152602081018590529192507fa95a790e5c54b3292db47a5f1a6ff76b459c701961dfc6c7c88448e7a2b7024d910160405180910390a161012f5460405163f3fef3a360e01b81526001600160a01b03878116600483015260248201849052600092169063f3fef3a390604401602060405180830381600087803b15801561095357600080fd5b505af1158015610967573d6000803e3d6000fd5b505050506040513d601f19601f8201168201806040525081019061098b9190612c12565b61012d54604051632770a7eb60e21b8152336004820152602481018890529192506001600160a01b031690639dc29fac90604401600060405180830381600087803b1580156109d957600080fd5b505af11580156109ed573d6000803e3d6000fd5b50506040516370a0823160e01b81523060048201528392506001600160a01b03891691506370a082319060240160206040518083038186803b158015610a3257600080fd5b505afa158015610a46573d6000803e3d6000fd5b505050506040513d601f19601f82011682018060405250810190610a6a9190612c12565b1015610ac75760405162461bcd60e51b815260206004820152602660248201527f4e6f7420656e6f75676820666f72207472616e7366657220756e7374616b6564604482015265105b5bdd5b9d60d21b60648201526084016107cf565b60405163a9059cbb60e01b8152336004820152602481018290526001600160a01b0387169063a9059cbb90604401602060405180830381600087803b158015610b0f57600080fd5b505af1158015610b23573d6000803e3d6000fd5b505050506040513d601f19601f82011682018060405250810190610b479190612bd7565b506040805160808082526006908201526572656465656d60d01b60a0820152602081018490529081018490523360608201527f50823024c91e825c5bec1552c988716271357a1b55f2759e0c1659c9e3f6340f9060c0015b60405180910390a195945050505050565b600082815260656020526040902060010154610bcb81611b64565b610bd58383611b6e565b505050565b6001600160a01b0381163314610c4a5760405162461bcd60e51b815260206004820152602f60248201527f416363657373436f6e74726f6c3a2063616e206f6e6c792072656e6f756e636560448201526e103937b632b9903337b91039b2b63360891b60648201526084016107cf565b610c548282611bf4565b5050565b306001600160a01b037f0000000000000000000000000000000000000000000000000000000000000000161415610ca15760405162461bcd60e51b81526004016107cf90612d8a565b7f00000000000000000000000000000000000000000000000000000000000000006001600160a01b0316610cea600080516020613083833981519152546001600160a01b031690565b6001600160a01b031614610d105760405162461bcd60e51b81526004016107cf90612dd6565b610d1981611c5b565b60408051600080825260208201909252610d3591839190611c85565b50565b610d43600033611162565b610d5f5760405162461bcd60e51b81526004016107cf90612edd565b6001600160a01b038116610d855760405162461bcd60e51b81526004016107cf90612f0b565b61013080546001600160a01b0319166001600160a01b0383169081179091556040519081527f2387291c358bb5414b9fdcdfeb40efddb696908065a6533e47bf60b395f7dcfd906020015b60405180910390a150565b610df36000805160206130ca83398151915233611162565b610e385760405162461bcd60e51b81526020600482015260166024820152755265737472696374656420746f205061757361626c6560501b60448201526064016107cf565b610e40611dff565b565b306001600160a01b037f0000000000000000000000000000000000000000000000000000000000000000161415610e8b5760405162461bcd60e51b81526004016107cf90612d8a565b7f00000000000000000000000000000000000000000000000000000000000000006001600160a01b0316610ed4600080516020613083833981519152546001600160a01b031690565b6001600160a01b031614610efa5760405162461bcd60e51b81526004016107cf90612dd6565b610f0382611c5b565b610c5482826001611c85565b6000306001600160a01b037f00000000000000000000000000000000000000000000000000000000000000001614610faf5760405162461bcd60e51b815260206004820152603860248201527f555550535570677261646561626c653a206d757374206e6f742062652063616c60448201527f6c6564207468726f7567682064656c656761746563616c6c000000000000000060648201526084016107cf565b5060008051602061308383398151915290565b60fb5460ff1615610fe55760405162461bcd60e51b81526004016107cf90612e22565b610e40611e92565b6000610ff9600161234a565b90508015611011576000805461ff0019166101001790555b6110196123d7565b6110216123fe565b6110296123d7565b611034600033611b6e565b61105e7f189ab7a9244df0848122154315af71fe140f3db0fe014031783b0946b8c9d2e333611b6e565b6110766000805160206130ca83398151915233611b6e565b6028610131819055620186a06101328190556101339190915561013455636195978061013555620151806101365561038461013755620f42a461013a55620f439e61013b558015610d35576000805461ff0019169055604051600181527f7f26b83ff96e1f2b6a682f133852f6798a09c465da95921460cefb384740249890602001610dd0565b6111156000805160206130ca83398151915233611162565b61115a5760405162461bcd60e51b81526020600482015260166024820152755265737472696374656420746f205061757361626c6560501b60448201526064016107cf565b610e4061242d565b60009182526065602090815260408084206001600160a01b0393909316845291905290205460ff1690565b611198600033611162565b6111b45760405162461bcd60e51b81526004016107cf90612edd565b61013a82905561013b81905560408051838152602081018390527f164d29c07aa1410447214bda4ceeae682b23796531b6b4d1d674f72953aa7f6591015b60405180910390a15050565b611209600033611162565b6112255760405162461bcd60e51b81526004016107cf90612edd565b6001600160a01b03811661124b5760405162461bcd60e51b81526004016107cf90612f0b565b61012f80546001600160a01b0319166001600160a01b0383169081179091556040519081527ff7b449fcd5cfb7379dcd34cb69428dd9f882033b15be33d83b42d91daa28eeb790602001610dd0565b6112a5600033611162565b6112c15760405162461bcd60e51b81526004016107cf90612edd565b61013880546001600160a01b0319166001600160a01b0383169081179091556040519081527fc388495b5a8a549e1885691ef3b8b1cb2b97a91365bbc9f26f488d28caaab84d90602001610dd0565b61012d546040516370a0823160e01b81523360048201526000916001600160a01b0316906370a082319060240160206040518083038186803b15801561135557600080fd5b505afa158015611369573d6000803e3d6000fd5b505050506040513d601f19601f8201168201806040525081019061138d9190612c12565b905090565b61139d600033611162565b6113b95760405162461bcd60e51b81526004016107cf90612edd565b806114065760405162461bcd60e51b815260206004820152601c60248201527f5a65726f2064656e6f6d696e61746f72206e6f7420616c6c6f7765640000000060448201526064016107cf565b61013382905561013481905560408051838152602081018390527f9fb7dbd1f2c1bd33dd68f78a38f699ff1ca487d7a7211ecc7df31d919f52043d91016111f2565b611453600033611162565b61146f5760405162461bcd60e51b81526004016107cf90612edd565b6001600160a01b0382166114955760405162461bcd60e51b81526004016107cf90612f0b565b6001600160a01b0381166114bb5760405162461bcd60e51b81526004016107cf90612f0b565b61012d80546001600160a01b038481166001600160a01b0319928316811790935561012e80549185169190921681179091556040805192835260208301919091527fdcc6331013de89f8c595d5328f0a724194f113cb6f8f2a707b3dff6de13f0d1791016111f2565b600061153260fb5460ff1690565b1561154f5760405162461bcd60e51b81526004016107cf90612e22565b4361013954106115965760405162461bcd60e51b81526020600482015260126024820152714f6e6c79206f6e636520696e20626c6f636b60701b60448201526064016107cf565b436101395561012e546001600160a01b0384811691161461160e5760405162461bcd60e51b815260206004820152602c60248201527f4f6e6c79205553444320746f6b656e732063757272656e746c7920617661696c60448201526b61626c6520666f722062757960a01b60648201526084016107cf565b6040516370a0823160e01b81523360048201526000906001600160a01b038516906370a082319060240160206040518083038186803b15801561165057600080fd5b505afa158015611664573d6000803e3d6000fd5b505050506040513d601f19601f820116820180604052508101906116889190612c12565b9050828110156116da5760405162461bcd60e51b815260206004820152601860248201527f4e6f7420656e6f75676820746f6b656e7320746f20627579000000000000000060448201526064016107cf565b61012f546040516323b872dd60e01b81523360048201526001600160a01b03918216602482015260448101859052908516906323b872dd90606401602060405180830381600087803b15801561172f57600080fd5b505af1158015611743573d6000803e3d6000fd5b505050506040513d601f19601f820116820180604052508101906117679190612bd7565b5061012f546040516311f9fbc960e21b81526001600160a01b03868116600483015260248201869052909116906347e7ef2490604401600060405180830381600087803b1580156117b757600080fd5b505af11580156117cb573d6000803e3d6000fd5b5050505060006101325461013154856117e49190612fc7565b6117ee9190612fa5565b905060006117fc8286612fe6565b60408051828152602081018590529192507fadcdce2403b31a56ae72c878c17b5cd8aaa8f5b92b7fe536355619df57a52387910160405180910390a161012d546040516340c10f1960e01b8152336004820152602481018390526001600160a01b03909116906340c10f1990604401600060405180830381600087803b15801561188557600080fd5b505af1158015611899573d6000803e3d6000fd5b50506040805160808082526003908201526262757960e81b60a0820152602081018590529081018590523360608201527f50823024c91e825c5bec1552c988716271357a1b55f2759e0c1659c9e3f6340f925060c0019050610b9f565b60008281526065602052604090206001015461191181611b64565b610bd58383611bf4565b611926600033611162565b6119425760405162461bcd60e51b81526004016107cf90612edd565b8261198f5760405162461bcd60e51b815260206004820181905260248201527f5a65726f205f6e6578745061796f757454696d65206e6f7420616c6c6f77656460448201526064016107cf565b816119dc5760405162461bcd60e51b815260206004820152601e60248201527f5a65726f205f7061796f7574506572696f64206e6f7420616c6c6f776564000060448201526064016107cf565b808311611a475760405162461bcd60e51b815260206004820152603360248201527f5f6e6578745061796f757454696d652073686f7564206265206d6f7265207468604482015272616e205f7061796f757454696d6552616e676560681b60648201526084016107cf565b61013583905561013682905561013781905560408051848152602081018490529081018290527f182705f356ea3bbbd12c7b4761586a554d391a7703345f81166bbe3f946444999060600160405180910390a1505050565b611aaa600033611162565b611ac65760405162461bcd60e51b81526004016107cf90612edd565b80611b135760405162461bcd60e51b815260206004820152601c60248201527f5a65726f2064656e6f6d696e61746f72206e6f7420616c6c6f7765640000000060448201526064016107cf565b61013182905561013281905560408051838152602081018390527f28e297c7c282931a994191b735b01eaf17558295f761512a7047f4e1b8dc3b0b91016111f2565b6001600160a01b03163b151590565b610d358133612485565b611b788282611162565b610c545760008281526065602090815260408083206001600160a01b03851684529091529020805460ff19166001179055611bb03390565b6001600160a01b0316816001600160a01b0316837f2f8788117e7eff1d82e926ec794901d17c78024a50270940304540a733656f0d60405160405180910390a45050565b611bfe8282611162565b15610c545760008281526065602090815260408083206001600160a01b0385168085529252808320805460ff1916905551339285917ff6391f5c32d9c69d2a47ea670b442974b53935d1edc7fd64eb21e047a839171b9190a45050565b7f189ab7a9244df0848122154315af71fe140f3db0fe014031783b0946b8c9d2e3610c5481611b64565b7f4910fdfa16fed3260ed0e7147f7cc6da11a60208b5b9406d12a635614ffd91435460ff1615611cb857610bd5836124e9565b826001600160a01b03166352d1902d6040518163ffffffff1660e01b815260040160206040518083038186803b158015611cf157600080fd5b505afa925050508015611d21575060408051601f3d908101601f19168201909252611d1e91810190612c12565b60015b611d845760405162461bcd60e51b815260206004820152602e60248201527f45524331393637557067726164653a206e657720696d706c656d656e7461746960448201526d6f6e206973206e6f74205555505360901b60648201526084016107cf565b6000805160206130838339815191528114611df35760405162461bcd60e51b815260206004820152602960248201527f45524331393637557067726164653a20756e737570706f727465642070726f786044820152681a58589b195555525160ba1b60648201526084016107cf565b50610bd5838383612585565b60fb5460ff16611e485760405162461bcd60e51b815260206004820152601460248201527314185d5cd8589b194e881b9bdd081c185d5cd95960621b60448201526064016107cf565b60fb805460ff191690557f5db9ee0a495bf2e6ff9c91a7834c1ba4fdd244a5e8aa4e537bd38aeae4b073aa335b6040516001600160a01b03909116815260200160405180910390a1565b6101355461013754611ea49042612f8d565b1015611eac57565b61012f60009054906101000a90046001600160a01b03166001600160a01b031663c6bbf4cb6040518163ffffffff1660e01b8152600401600060405180830381600087803b158015611efd57600080fd5b505af1158015611f11573d6000803e3d6000fd5b50505050600061012d60009054906101000a90046001600160a01b03166001600160a01b031663b1bf962d6040518163ffffffff1660e01b815260040160206040518083038186803b158015611f6657600080fd5b505afa158015611f7a573d6000803e3d6000fd5b505050506040513d601f19601f82011682018060405250810190611f9e9190612c12565b90506000611fab826125b0565b9050600061013060009054906101000a90046001600160a01b03166001600160a01b031663890a8c4f6040518163ffffffff1660e01b815260040160206040518083038186803b158015611ffe57600080fd5b505afa158015612012573d6000803e3d6000fd5b505050506040513d601f19601f820116820180604052508101906120369190612c12565b905060008282116120525761204b8284612fe6565b905061205f565b61205c8383612fe6565b90505b600061206a83612638565b905060006120788287612677565b9050600061012d60009054906101000a90046001600160a01b03166001600160a01b031663bbf44f336040518163ffffffff1660e01b815260040160206040518083038186803b1580156120cb57600080fd5b505afa1580156120df573d6000803e3d6000fd5b505050506040513d601f19601f820116820180604052508101906121039190612c12565b905060008161211584620f4240612fc7565b61211f9190612fa5565b905061013a5481116121665760405162461bcd60e51b815260206004820152601060248201526f2232b63a309030b13937b0b21d36b4b760811b60448201526064016107cf565b8061013b54116121ab5760405162461bcd60e51b815260206004820152601060248201526f088cad8e8c240c2c4e4dec2c874dac2f60831b60448201526064016107cf565b61012d5460405163b2be259160e01b8152600481018590526001600160a01b039091169063b2be259190602401600060405180830381600087803b1580156121f257600080fd5b505af1158015612206573d6000803e3d6000fd5b5050610138546001600160a01b031615915061228890505761013860009054906101000a90046001600160a01b03166001600160a01b031663f14a74386040518163ffffffff1660e01b8152600401600060405180830381600087803b15801561226f57600080fd5b505af1158015612283573d6000803e3d6000fd5b505050505b6040805188815260208101889052908101869052606081018490527f106a59d3805ed5b61e26818a11c688e650c883df2ca2d625f9d9ac6fae9d91799060800160405180910390a15b61013754610135546122e39190612fe6565b42106123045761013654610135546122fb9190612f8d565b610135556122d1565b7f6654b7187a0560c4c326844142156c2adf52738d0a615487e0e2a5cd9823c2c46101355460405161233891815260200190565b60405180910390a15050505050505050565b60008054610100900460ff1615612391578160ff16600114801561236d5750303b155b6123895760405162461bcd60e51b81526004016107cf90612e4c565b506000919050565b60005460ff8084169116106123b85760405162461bcd60e51b81526004016107cf90612e4c565b506000805460ff191660ff92909216919091179055600190565b919050565b600054610100900460ff16610e405760405162461bcd60e51b81526004016107cf90612f42565b600054610100900460ff166124255760405162461bcd60e51b81526004016107cf90612f42565b610e40612743565b60fb5460ff16156124505760405162461bcd60e51b81526004016107cf90612e22565b60fb805460ff191660011790557f62e78cea01bee320cd4e420270b5ea74000d11b0c9f74754ebdbfc544b05a258611e753390565b61248f8282611162565b610c54576124a7816001600160a01b03166014612776565b6124b2836020612776565b6040516020016124c3929190612ce2565b60408051601f198184030181529082905262461bcd60e51b82526107cf91600401612d57565b6001600160a01b0381163b6125565760405162461bcd60e51b815260206004820152602d60248201527f455243313936373a206e657720696d706c656d656e746174696f6e206973206e60448201526c1bdd08184818dbdb9d1c9858dd609a1b60648201526084016107cf565b60008051602061308383398151915280546001600160a01b0319166001600160a01b0392909216919091179055565b61258e83612919565b60008251118061259b5750805b15610bd5576125aa8383612959565b50505050565b6000806125c26002633b9aca00612fa5565b905060006125d08483612f8d565b9050818110156126225760405162461bcd60e51b815260206004820152601d60248201527f4572726f72732e4d4154485f4144444954494f4e5f4f564552464c4f5700000060448201526064016107cf565b612630633b9aca0082612fa5565b949350505050565b600080612649633b9aca0084612fc7565b90508261265a633b9aca0083612fa5565b1461079e5760405162461bcd60e51b81526004016107cf90612e9a565b6000816126c65760405162461bcd60e51b815260206004820152601c60248201527f4572726f72732e4d4154485f4449564953494f4e5f42595f5a45524f0000000060448201526064016107cf565b60006126d3600284612fa5565b90506b033b2e3c9fd0803ce80000006126ee82600019612fe6565b6126f89190612fa5565b8411156127175760405162461bcd60e51b81526004016107cf90612e9a565b828161272f6b033b2e3c9fd0803ce800000087612fc7565b6127399190612f8d565b6126309190612fa5565b600054610100900460ff1661276a5760405162461bcd60e51b81526004016107cf90612f42565b60fb805460ff19169055565b60606000612785836002612fc7565b612790906002612f8d565b67ffffffffffffffff8111156127a8576127a861306c565b6040519080825280601f01601f1916602001820160405280156127d2576020820181803683370190505b509050600360fc1b816000815181106127ed576127ed613056565b60200101906001600160f81b031916908160001a905350600f60fb1b8160018151811061281c5761281c613056565b60200101906001600160f81b031916908160001a9053506000612840846002612fc7565b61284b906001612f8d565b90505b60018111156128c3576f181899199a1a9b1b9c1cb0b131b232b360811b85600f166010811061287f5761287f613056565b1a60f81b82828151811061289557612895613056565b60200101906001600160f81b031916908160001a90535060049490941c936128bc81613029565b905061284e565b5083156129125760405162461bcd60e51b815260206004820181905260248201527f537472696e67733a20686578206c656e67746820696e73756666696369656e7460448201526064016107cf565b9392505050565b612922816124e9565b6040516001600160a01b038216907fbc7cd75a20ee27fd9adebab32041f755214dbc6bffa90cc0225b39da2e5c2d3b90600090a250565b60606001600160a01b0383163b6129c15760405162461bcd60e51b815260206004820152602660248201527f416464726573733a2064656c65676174652063616c6c20746f206e6f6e2d636f6044820152651b9d1c9858dd60d21b60648201526084016107cf565b600080846001600160a01b0316846040516129dc9190612cc6565b600060405180830381855af49150503d8060008114612a17576040519150601f19603f3d011682016040523d82523d6000602084013e612a1c565b606091505b5091509150612a4482826040518060600160405280602781526020016130a360279139612a4d565b95945050505050565b60608315612a5c575081612912565b825115612a6c5782518084602001fd5b8160405162461bcd60e51b81526004016107cf9190612d57565b80356001600160a01b03811681146123d257600080fd5b600060208284031215612aaf57600080fd5b61291282612a86565b60008060408385031215612acb57600080fd5b612ad483612a86565b9150612ae260208401612a86565b90509250929050565b60008060408385031215612afe57600080fd5b612b0783612a86565b9150602083013567ffffffffffffffff80821115612b2457600080fd5b818501915085601f830112612b3857600080fd5b813581811115612b4a57612b4a61306c565b604051601f8201601f19908116603f01168101908382118183101715612b7257612b7261306c565b81604052828152886020848701011115612b8b57600080fd5b8260208601602083013760006020848301015280955050505050509250929050565b60008060408385031215612bc057600080fd5b612bc983612a86565b946020939093013593505050565b600060208284031215612be957600080fd5b8151801515811461291257600080fd5b600060208284031215612c0b57600080fd5b5035919050565b600060208284031215612c2457600080fd5b5051919050565b60008060408385031215612c3e57600080fd5b82359150612ae260208401612a86565b600060208284031215612c6057600080fd5b81356001600160e01b03198116811461291257600080fd5b60008060408385031215612c8b57600080fd5b50508035926020909101359150565b600080600060608486031215612caf57600080fd5b505081359360208301359350604090920135919050565b60008251612cd8818460208701612ffd565b9190910192915050565b7f416363657373436f6e74726f6c3a206163636f756e7420000000000000000000815260008351612d1a816017850160208801612ffd565b7001034b99036b4b9b9b4b733903937b6329607d1b6017918401918201528351612d4b816028840160208801612ffd565b01602801949350505050565b6020815260008251806020840152612d76816040850160208701612ffd565b601f01601f19169190910160400192915050565b6020808252602c908201527f46756e6374696f6e206d7573742062652063616c6c6564207468726f7567682060408201526b19195b1959d85d1958d85b1b60a21b606082015260800190565b6020808252602c908201527f46756e6374696f6e206d7573742062652063616c6c6564207468726f7567682060408201526b6163746976652070726f787960a01b606082015260800190565b60208082526010908201526f14185d5cd8589b194e881c185d5cd95960821b604082015260600190565b6020808252602e908201527f496e697469616c697a61626c653a20636f6e747261637420697320616c72656160408201526d191e481a5b9a5d1a585b1a5e995960921b606082015260800190565b60208082526023908201527f4572726f72732e4d4154485f4d554c5449504c49434154494f4e5f4f564552466040820152624c4f5760e81b606082015260800190565b6020808252601490820152735265737472696374656420746f2061646d696e7360601b604082015260600190565b60208082526018908201527f5a65726f2061646472657373206e6f7420616c6c6f7765640000000000000000604082015260600190565b6020808252602b908201527f496e697469616c697a61626c653a20636f6e7472616374206973206e6f74206960408201526a6e697469616c697a696e6760a81b606082015260800190565b60008219821115612fa057612fa0613040565b500190565b600082612fc257634e487b7160e01b600052601260045260246000fd5b500490565b6000816000190483118215151615612fe157612fe1613040565b500290565b600082821015612ff857612ff8613040565b500390565b60005b83811015613018578181015183820152602001613000565b838111156125aa5750506000910152565b60008161303857613038613040565b506000190190565b634e487b7160e01b600052601160045260246000fd5b634e487b7160e01b600052603260045260246000fd5b634e487b7160e01b600052604160045260246000fdfe360894a13ba1a3210667c828492db98dca3e2076cc3735a920a3ca505d382bbc416464726573733a206c6f772d6c6576656c2064656c65676174652063616c6c206661696c656409b6fca8f5f3ab2900d9586d1d15872611c1bd42b268b973ad886d4f2646b560a2646970667358221220d7e58cdb027477d46bcd6ce64e95966ba8ae765507451ecee5f660bba2bd182a64736f6c63430008060033496e697469616c697a61626c653a20636f6e747261637420697320616c726561",
  "devdoc": {
    "kind": "dev",
    "methods": {
      "buy(address,uint256)": {
        "params": {
          "_addrTok": "Token to withdraw",
          "_amount": "Amount of USD+ tokens to burn"
        },
        "returns": {
          "_0": "Amount of minted to caller tokens"
        }
      },
      "constructor": {
        "custom:oz-upgrades-unsafe-allow": "constructor"
      },
      "getRoleAdmin(bytes32)": {
        "details": "Returns the admin role that controls `role`. See {grantRole} and {revokeRole}. To change a role's admin, use {_setRoleAdmin}."
      },
      "grantRole(bytes32,address)": {
        "details": "Grants `role` to `account`. If `account` had not been already granted `role`, emits a {RoleGranted} event. Requirements: - the caller must have ``role``'s admin role."
      },
      "hasRole(bytes32,address)": {
        "details": "Returns `true` if `account` has been granted `role`."
      },
      "paused()": {
        "details": "Returns true if the contract is paused, and false otherwise."
      },
      "proxiableUUID()": {
        "details": "Implementation of the ERC1822 {proxiableUUID} function. This returns the storage slot used by the implementation. It is used to validate that the this implementation remains valid after an upgrade. IMPORTANT: A proxy pointing at a proxiable contract should not be considered proxiable itself, because this risks bricking a proxy that upgrades to it, by delegating to itself until out of gas. Thus it is critical that this function revert if invoked through a proxy. This is guaranteed by the `notDelegated` modifier."
      },
      "redeem(address,uint256)": {
        "params": {
          "_addrTok": "Token to withdraw",
          "_amount": "Amount of USD+ tokens to burn"
        },
        "returns": {
          "_0": "Amount of unstacked and transferred to caller tokens"
        }
      },
      "renounceRole(bytes32,address)": {
        "details": "Revokes `role` from the calling account. Roles are often managed via {grantRole} and {revokeRole}: this function's purpose is to provide a mechanism for accounts to lose their privileges if they are compromised (such as when a trusted device is misplaced). If the calling account had been revoked `role`, emits a {RoleRevoked} event. Requirements: - the caller must be `account`."
      },
      "revokeRole(bytes32,address)": {
        "details": "Revokes `role` from `account`. If `account` had been granted `role`, emits a {RoleRevoked} event. Requirements: - the caller must have ``role``'s admin role."
      },
      "supportsInterface(bytes4)": {
        "details": "See {IERC165-supportsInterface}."
      },
      "upgradeTo(address)": {
        "details": "Upgrade the implementation of the proxy to `newImplementation`. Calls {_authorizeUpgrade}. Emits an {Upgraded} event."
      },
      "upgradeToAndCall(address,bytes)": {
        "details": "Upgrade the implementation of the proxy to `newImplementation`, and subsequently execute the function call encoded in `data`. Calls {_authorizeUpgrade}. Emits an {Upgraded} event."
      }
    },
    "version": 1
  },
  "userdoc": {
    "kind": "user",
    "methods": {},
    "version": 1
  },
  "storageLayout": {
    "storage": [
      {
        "astId": 808,
        "contract": "contracts/Exchange.sol:Exchange",
        "label": "_initialized",
        "offset": 0,
        "slot": "0",
        "type": "t_uint8"
      },
      {
        "astId": 811,
        "contract": "contracts/Exchange.sol:Exchange",
        "label": "_initializing",
        "offset": 1,
        "slot": "0",
        "type": "t_bool"
      },
      {
        "astId": 2471,
        "contract": "contracts/Exchange.sol:Exchange",
        "label": "__gap",
        "offset": 0,
        "slot": "1",
        "type": "t_array(t_uint256)50_storage"
      },
      {
        "astId": 2778,
        "contract": "contracts/Exchange.sol:Exchange",
        "label": "__gap",
        "offset": 0,
        "slot": "51",
        "type": "t_array(t_uint256)50_storage"
      },
      {
        "astId": 39,
        "contract": "contracts/Exchange.sol:Exchange",
        "label": "_roles",
        "offset": 0,
        "slot": "101",
        "type": "t_mapping(t_bytes32,t_struct(RoleData)34_storage)"
      },
      {
        "astId": 338,
        "contract": "contracts/Exchange.sol:Exchange",
        "label": "__gap",
        "offset": 0,
        "slot": "102",
        "type": "t_array(t_uint256)49_storage"
      },
      {
        "astId": 790,
        "contract": "contracts/Exchange.sol:Exchange",
        "label": "__gap",
        "offset": 0,
        "slot": "151",
        "type": "t_array(t_uint256)50_storage"
      },
      {
        "astId": 1078,
        "contract": "contracts/Exchange.sol:Exchange",
        "label": "__gap",
        "offset": 0,
        "slot": "201",
        "type": "t_array(t_uint256)50_storage"
      },
      {
        "astId": 1100,
        "contract": "contracts/Exchange.sol:Exchange",
        "label": "_paused",
        "offset": 0,
        "slot": "251",
        "type": "t_bool"
      },
      {
        "astId": 1189,
        "contract": "contracts/Exchange.sol:Exchange",
        "label": "__gap",
        "offset": 0,
        "slot": "252",
        "type": "t_array(t_uint256)49_storage"
      },
      {
        "astId": 4652,
        "contract": "contracts/Exchange.sol:Exchange",
        "label": "usdPlus",
        "offset": 0,
        "slot": "301",
        "type": "t_contract(UsdPlusToken)8825"
      },
      {
        "astId": 4655,
        "contract": "contracts/Exchange.sol:Exchange",
        "label": "usdc",
        "offset": 0,
        "slot": "302",
        "type": "t_contract(IERC20)3455"
      },
      {
        "astId": 4658,
        "contract": "contracts/Exchange.sol:Exchange",
        "label": "portfolioManager",
        "offset": 0,
        "slot": "303",
        "type": "t_contract(IPortfolioManager)8924"
      },
      {
        "astId": 4661,
        "contract": "contracts/Exchange.sol:Exchange",
        "label": "mark2market",
        "offset": 0,
        "slot": "304",
        "type": "t_contract(IMark2Market)8852"
      },
      {
        "astId": 4663,
        "contract": "contracts/Exchange.sol:Exchange",
        "label": "buyFee",
        "offset": 0,
        "slot": "305",
        "type": "t_uint256"
      },
      {
        "astId": 4665,
        "contract": "contracts/Exchange.sol:Exchange",
        "label": "buyFeeDenominator",
        "offset": 0,
        "slot": "306",
        "type": "t_uint256"
      },
      {
        "astId": 4667,
        "contract": "contracts/Exchange.sol:Exchange",
        "label": "redeemFee",
        "offset": 0,
        "slot": "307",
        "type": "t_uint256"
      },
      {
        "astId": 4669,
        "contract": "contracts/Exchange.sol:Exchange",
        "label": "redeemFeeDenominator",
        "offset": 0,
        "slot": "308",
        "type": "t_uint256"
      },
      {
        "astId": 4671,
        "contract": "contracts/Exchange.sol:Exchange",
        "label": "nextPayoutTime",
        "offset": 0,
        "slot": "309",
        "type": "t_uint256"
      },
      {
        "astId": 4673,
        "contract": "contracts/Exchange.sol:Exchange",
        "label": "payoutPeriod",
        "offset": 0,
        "slot": "310",
        "type": "t_uint256"
      },
      {
        "astId": 4675,
        "contract": "contracts/Exchange.sol:Exchange",
        "label": "payoutTimeRange",
        "offset": 0,
        "slot": "311",
        "type": "t_uint256"
      },
      {
        "astId": 4678,
        "contract": "contracts/Exchange.sol:Exchange",
        "label": "payoutListener",
        "offset": 0,
        "slot": "312",
        "type": "t_contract(IPayoutListener)8858"
      },
      {
        "astId": 4680,
        "contract": "contracts/Exchange.sol:Exchange",
        "label": "lastBlockNumber",
        "offset": 0,
        "slot": "313",
        "type": "t_uint256"
      },
      {
        "astId": 4682,
        "contract": "contracts/Exchange.sol:Exchange",
        "label": "abroadMin",
        "offset": 0,
        "slot": "314",
        "type": "t_uint256"
      },
      {
        "astId": 4684,
        "contract": "contracts/Exchange.sol:Exchange",
        "label": "abroadMax",
        "offset": 0,
        "slot": "315",
        "type": "t_uint256"
      }
    ],
    "types": {
      "t_address": {
        "encoding": "inplace",
        "label": "address",
        "numberOfBytes": "20"
      },
      "t_array(t_uint256)49_storage": {
        "base": "t_uint256",
        "encoding": "inplace",
        "label": "uint256[49]",
        "numberOfBytes": "1568"
      },
      "t_array(t_uint256)50_storage": {
        "base": "t_uint256",
        "encoding": "inplace",
        "label": "uint256[50]",
        "numberOfBytes": "1600"
      },
      "t_bool": {
        "encoding": "inplace",
        "label": "bool",
        "numberOfBytes": "1"
      },
      "t_bytes32": {
        "encoding": "inplace",
        "label": "bytes32",
        "numberOfBytes": "32"
      },
      "t_contract(IERC20)3455": {
        "encoding": "inplace",
        "label": "contract IERC20",
        "numberOfBytes": "20"
      },
      "t_contract(IMark2Market)8852": {
        "encoding": "inplace",
        "label": "contract IMark2Market",
        "numberOfBytes": "20"
      },
      "t_contract(IPayoutListener)8858": {
        "encoding": "inplace",
        "label": "contract IPayoutListener",
        "numberOfBytes": "20"
      },
      "t_contract(IPortfolioManager)8924": {
        "encoding": "inplace",
        "label": "contract IPortfolioManager",
        "numberOfBytes": "20"
      },
      "t_contract(UsdPlusToken)8825": {
        "encoding": "inplace",
        "label": "contract UsdPlusToken",
        "numberOfBytes": "20"
      },
      "t_mapping(t_address,t_bool)": {
        "encoding": "mapping",
        "key": "t_address",
        "label": "mapping(address => bool)",
        "numberOfBytes": "32",
        "value": "t_bool"
      },
      "t_mapping(t_bytes32,t_struct(RoleData)34_storage)": {
        "encoding": "mapping",
        "key": "t_bytes32",
        "label": "mapping(bytes32 => struct AccessControlUpgradeable.RoleData)",
        "numberOfBytes": "32",
        "value": "t_struct(RoleData)34_storage"
      },
      "t_struct(RoleData)34_storage": {
        "encoding": "inplace",
        "label": "struct AccessControlUpgradeable.RoleData",
        "members": [
          {
            "astId": 31,
            "contract": "contracts/Exchange.sol:Exchange",
            "label": "members",
            "offset": 0,
            "slot": "0",
            "type": "t_mapping(t_address,t_bool)"
          },
          {
            "astId": 33,
            "contract": "contracts/Exchange.sol:Exchange",
            "label": "adminRole",
            "offset": 0,
            "slot": "1",
            "type": "t_bytes32"
          }
        ],
        "numberOfBytes": "64"
      },
      "t_uint256": {
        "encoding": "inplace",
        "label": "uint256",
        "numberOfBytes": "32"
      },
      "t_uint8": {
        "encoding": "inplace",
        "label": "uint8",
        "numberOfBytes": "1"
      }
    }
  }
}