{
  "address": "0xF7d693CE960e70721F0353F967360046Ba7d4eFA",
  "abi": [
    {
      "inputs": [
        {
          "internalType": "contract ERC20Votes",
          "name": "_token",
          "type": "address"
        },
        {
          "internalType": "contract TimelockController",
          "name": "_timelock",
          "type": "address"
        }
      ],
      "stateMutability": "nonpayable",
      "type": "constructor"
    },
    {
      "inputs": [],
      "name": "Empty",
      "type": "error"
    },
    {
      "anonymous": false,
      "inputs": [
        {
          "indexed": false,
          "internalType": "uint256",
          "name": "proposalId",
          "type": "uint256"
        }
      ],
      "name": "ProposalCanceled",
      "type": "event"
    },
    {
      "anonymous": false,
      "inputs": [
        {
          "indexed": false,
          "internalType": "uint256",
          "name": "proposalId",
          "type": "uint256"
        },
        {
          "indexed": false,
          "internalType": "address",
          "name": "proposer",
          "type": "address"
        },
        {
          "indexed": false,
          "internalType": "address[]",
          "name": "targets",
          "type": "address[]"
        },
        {
          "indexed": false,
          "internalType": "uint256[]",
          "name": "values",
          "type": "uint256[]"
        },
        {
          "indexed": false,
          "internalType": "string[]",
          "name": "signatures",
          "type": "string[]"
        },
        {
          "indexed": false,
          "internalType": "bytes[]",
          "name": "calldatas",
          "type": "bytes[]"
        },
        {
          "indexed": false,
          "internalType": "uint256",
          "name": "startBlock",
          "type": "uint256"
        },
        {
          "indexed": false,
          "internalType": "uint256",
          "name": "endBlock",
          "type": "uint256"
        },
        {
          "indexed": false,
          "internalType": "string",
          "name": "description",
          "type": "string"
        }
      ],
      "name": "ProposalCreated",
      "type": "event"
    },
    {
      "anonymous": false,
      "inputs": [
        {
          "indexed": false,
          "internalType": "uint256",
          "name": "proposalId",
          "type": "uint256"
        }
      ],
      "name": "ProposalExecuted",
      "type": "event"
    },
    {
      "anonymous": false,
      "inputs": [
        {
          "indexed": false,
          "internalType": "uint256",
          "name": "proposalId",
          "type": "uint256"
        },
        {
          "indexed": false,
          "internalType": "uint256",
          "name": "eta",
          "type": "uint256"
        }
      ],
      "name": "ProposalQueued",
      "type": "event"
    },
    {
      "anonymous": false,
      "inputs": [
        {
          "indexed": false,
          "internalType": "uint256",
          "name": "oldProposalThreshold",
          "type": "uint256"
        },
        {
          "indexed": false,
          "internalType": "uint256",
          "name": "newProposalThreshold",
          "type": "uint256"
        }
      ],
      "name": "ProposalThresholdSet",
      "type": "event"
    },
    {
      "anonymous": false,
      "inputs": [
        {
          "indexed": false,
          "internalType": "uint256",
          "name": "oldQuorumNumerator",
          "type": "uint256"
        },
        {
          "indexed": false,
          "internalType": "uint256",
          "name": "newQuorumNumerator",
          "type": "uint256"
        }
      ],
      "name": "QuorumNumeratorUpdated",
      "type": "event"
    },
    {
      "anonymous": false,
      "inputs": [
        {
          "indexed": false,
          "internalType": "address",
          "name": "oldTimelock",
          "type": "address"
        },
        {
          "indexed": false,
          "internalType": "address",
          "name": "newTimelock",
          "type": "address"
        }
      ],
      "name": "TimelockChange",
      "type": "event"
    },
    {
      "anonymous": false,
      "inputs": [
        {
          "indexed": true,
          "internalType": "address",
          "name": "voter",
          "type": "address"
        },
        {
          "indexed": false,
          "internalType": "uint256",
          "name": "proposalId",
          "type": "uint256"
        },
        {
          "indexed": false,
          "internalType": "uint8",
          "name": "support",
          "type": "uint8"
        },
        {
          "indexed": false,
          "internalType": "uint256",
          "name": "weight",
          "type": "uint256"
        },
        {
          "indexed": false,
          "internalType": "string",
          "name": "reason",
          "type": "string"
        }
      ],
      "name": "VoteCast",
      "type": "event"
    },
    {
      "anonymous": false,
      "inputs": [
        {
          "indexed": true,
          "internalType": "address",
          "name": "voter",
          "type": "address"
        },
        {
          "indexed": false,
          "internalType": "uint256",
          "name": "proposalId",
          "type": "uint256"
        },
        {
          "indexed": false,
          "internalType": "uint8",
          "name": "support",
          "type": "uint8"
        },
        {
          "indexed": false,
          "internalType": "uint256",
          "name": "weight",
          "type": "uint256"
        },
        {
          "indexed": false,
          "internalType": "string",
          "name": "reason",
          "type": "string"
        },
        {
          "indexed": false,
          "internalType": "bytes",
          "name": "params",
          "type": "bytes"
        }
      ],
      "name": "VoteCastWithParams",
      "type": "event"
    },
    {
      "anonymous": false,
      "inputs": [
        {
          "indexed": false,
          "internalType": "uint256",
          "name": "oldVotingDelay",
          "type": "uint256"
        },
        {
          "indexed": false,
          "internalType": "uint256",
          "name": "newVotingDelay",
          "type": "uint256"
        }
      ],
      "name": "VotingDelaySet",
      "type": "event"
    },
    {
      "anonymous": false,
      "inputs": [
        {
          "indexed": false,
          "internalType": "uint256",
          "name": "oldVotingPeriod",
          "type": "uint256"
        },
        {
          "indexed": false,
          "internalType": "uint256",
          "name": "newVotingPeriod",
          "type": "uint256"
        }
      ],
      "name": "VotingPeriodSet",
      "type": "event"
    },
    {
      "inputs": [],
      "name": "BALLOT_TYPEHASH",
      "outputs": [
        {
          "internalType": "bytes32",
          "name": "",
          "type": "bytes32"
        }
      ],
      "stateMutability": "view",
      "type": "function"
    },
    {
      "inputs": [],
      "name": "COUNTING_MODE",
      "outputs": [
        {
          "internalType": "string",
          "name": "",
          "type": "string"
        }
      ],
      "stateMutability": "pure",
      "type": "function"
    },
    {
      "inputs": [],
      "name": "EXTENDED_BALLOT_TYPEHASH",
      "outputs": [
        {
          "internalType": "bytes32",
          "name": "",
          "type": "bytes32"
        }
      ],
      "stateMutability": "view",
      "type": "function"
    },
    {
      "inputs": [
        {
          "internalType": "uint256",
          "name": "proposalId",
          "type": "uint256"
        }
      ],
      "name": "cancel",
      "outputs": [],
      "stateMutability": "nonpayable",
      "type": "function"
    },
    {
      "inputs": [
        {
          "internalType": "uint256",
          "name": "proposalId",
          "type": "uint256"
        },
        {
          "internalType": "uint8",
          "name": "support",
          "type": "uint8"
        }
      ],
      "name": "castVote",
      "outputs": [
        {
          "internalType": "uint256",
          "name": "",
          "type": "uint256"
        }
      ],
      "stateMutability": "nonpayable",
      "type": "function"
    },
    {
      "inputs": [
        {
          "internalType": "uint256",
          "name": "proposalId",
          "type": "uint256"
        },
        {
          "internalType": "uint8",
          "name": "support",
          "type": "uint8"
        },
        {
          "internalType": "uint8",
          "name": "v",
          "type": "uint8"
        },
        {
          "internalType": "bytes32",
          "name": "r",
          "type": "bytes32"
        },
        {
          "internalType": "bytes32",
          "name": "s",
          "type": "bytes32"
        }
      ],
      "name": "castVoteBySig",
      "outputs": [
        {
          "internalType": "uint256",
          "name": "",
          "type": "uint256"
        }
      ],
      "stateMutability": "nonpayable",
      "type": "function"
    },
    {
      "inputs": [
        {
          "internalType": "uint256",
          "name": "proposalId",
          "type": "uint256"
        },
        {
          "internalType": "uint8",
          "name": "support",
          "type": "uint8"
        },
        {
          "internalType": "string",
          "name": "reason",
          "type": "string"
        }
      ],
      "name": "castVoteWithReason",
      "outputs": [
        {
          "internalType": "uint256",
          "name": "",
          "type": "uint256"
        }
      ],
      "stateMutability": "nonpayable",
      "type": "function"
    },
    {
      "inputs": [
        {
          "internalType": "uint256",
          "name": "proposalId",
          "type": "uint256"
        },
        {
          "internalType": "uint8",
          "name": "support",
          "type": "uint8"
        },
        {
          "internalType": "string",
          "name": "reason",
          "type": "string"
        },
        {
          "internalType": "bytes",
          "name": "params",
          "type": "bytes"
        }
      ],
      "name": "castVoteWithReasonAndParams",
      "outputs": [
        {
          "internalType": "uint256",
          "name": "",
          "type": "uint256"
        }
      ],
      "stateMutability": "nonpayable",
      "type": "function"
    },
    {
      "inputs": [
        {
          "internalType": "uint256",
          "name": "proposalId",
          "type": "uint256"
        },
        {
          "internalType": "uint8",
          "name": "support",
          "type": "uint8"
        },
        {
          "internalType": "string",
          "name": "reason",
          "type": "string"
        },
        {
          "internalType": "bytes",
          "name": "params",
          "type": "bytes"
        },
        {
          "internalType": "uint8",
          "name": "v",
          "type": "uint8"
        },
        {
          "internalType": "bytes32",
          "name": "r",
          "type": "bytes32"
        },
        {
          "internalType": "bytes32",
          "name": "s",
          "type": "bytes32"
        }
      ],
      "name": "castVoteWithReasonAndParamsBySig",
      "outputs": [
        {
          "internalType": "uint256",
          "name": "",
          "type": "uint256"
        }
      ],
      "stateMutability": "nonpayable",
      "type": "function"
    },
    {
      "inputs": [
        {
          "internalType": "address[]",
          "name": "targets",
          "type": "address[]"
        },
        {
          "internalType": "uint256[]",
          "name": "values",
          "type": "uint256[]"
        },
        {
          "internalType": "bytes[]",
          "name": "calldatas",
          "type": "bytes[]"
        },
        {
          "internalType": "bytes32",
          "name": "descriptionHash",
          "type": "bytes32"
        }
      ],
      "name": "execute",
      "outputs": [
        {
          "internalType": "uint256",
          "name": "",
          "type": "uint256"
        }
      ],
      "stateMutability": "payable",
      "type": "function"
    },
    {
      "inputs": [
        {
          "internalType": "uint256",
          "name": "proposalId",
          "type": "uint256"
        }
      ],
      "name": "execute",
      "outputs": [],
      "stateMutability": "payable",
      "type": "function"
    },
    {
      "inputs": [
        {
          "internalType": "uint256",
          "name": "proposalId",
          "type": "uint256"
        }
      ],
      "name": "executeExec",
      "outputs": [],
      "stateMutability": "nonpayable",
      "type": "function"
    },
    {
      "inputs": [
        {
          "internalType": "uint256",
          "name": "proposalId",
          "type": "uint256"
        }
      ],
      "name": "getActions",
      "outputs": [
        {
          "internalType": "address[]",
          "name": "targets",
          "type": "address[]"
        },
        {
          "internalType": "uint256[]",
          "name": "values",
          "type": "uint256[]"
        },
        {
          "internalType": "string[]",
          "name": "signatures",
          "type": "string[]"
        },
        {
          "internalType": "bytes[]",
          "name": "calldatas",
          "type": "bytes[]"
        }
      ],
      "stateMutability": "view",
      "type": "function"
    },
    {
      "inputs": [],
      "name": "getProposals",
      "outputs": [
        {
          "internalType": "uint256[]",
          "name": "",
          "type": "uint256[]"
        }
      ],
      "stateMutability": "view",
      "type": "function"
    },
    {
      "inputs": [
        {
          "internalType": "uint256",
          "name": "proposalId",
          "type": "uint256"
        },
        {
          "internalType": "address",
          "name": "voter",
          "type": "address"
        }
      ],
      "name": "getReceipt",
      "outputs": [
        {
          "components": [
            {
              "internalType": "bool",
              "name": "hasVoted",
              "type": "bool"
            },
            {
              "internalType": "uint8",
              "name": "support",
              "type": "uint8"
            },
            {
              "internalType": "uint96",
              "name": "votes",
              "type": "uint96"
            }
          ],
          "internalType": "struct IGovernorCompatibilityBravo.Receipt",
          "name": "",
          "type": "tuple"
        }
      ],
      "stateMutability": "view",
      "type": "function"
    },
    {
      "inputs": [
        {
          "internalType": "address",
          "name": "account",
          "type": "address"
        },
        {
          "internalType": "uint256",
          "name": "blockNumber",
          "type": "uint256"
        }
      ],
      "name": "getVotes",
      "outputs": [
        {
          "internalType": "uint256",
          "name": "",
          "type": "uint256"
        }
      ],
      "stateMutability": "view",
      "type": "function"
    },
    {
      "inputs": [
        {
          "internalType": "address",
          "name": "account",
          "type": "address"
        },
        {
          "internalType": "uint256",
          "name": "blockNumber",
          "type": "uint256"
        },
        {
          "internalType": "bytes",
          "name": "params",
          "type": "bytes"
        }
      ],
      "name": "getVotesWithParams",
      "outputs": [
        {
          "internalType": "uint256",
          "name": "",
          "type": "uint256"
        }
      ],
      "stateMutability": "view",
      "type": "function"
    },
    {
      "inputs": [
        {
          "internalType": "uint256",
          "name": "proposalId",
          "type": "uint256"
        },
        {
          "internalType": "address",
          "name": "account",
          "type": "address"
        }
      ],
      "name": "hasVoted",
      "outputs": [
        {
          "internalType": "bool",
          "name": "",
          "type": "bool"
        }
      ],
      "stateMutability": "view",
      "type": "function"
    },
    {
      "inputs": [
        {
          "internalType": "address[]",
          "name": "targets",
          "type": "address[]"
        },
        {
          "internalType": "uint256[]",
          "name": "values",
          "type": "uint256[]"
        },
        {
          "internalType": "bytes[]",
          "name": "calldatas",
          "type": "bytes[]"
        },
        {
          "internalType": "bytes32",
          "name": "descriptionHash",
          "type": "bytes32"
        }
      ],
      "name": "hashProposal",
      "outputs": [
        {
          "internalType": "uint256",
          "name": "",
          "type": "uint256"
        }
      ],
      "stateMutability": "pure",
      "type": "function"
    },
    {
      "inputs": [],
      "name": "name",
      "outputs": [
        {
          "internalType": "string",
          "name": "",
          "type": "string"
        }
      ],
      "stateMutability": "view",
      "type": "function"
    },
    {
      "inputs": [
        {
          "internalType": "address",
          "name": "",
          "type": "address"
        },
        {
          "internalType": "address",
          "name": "",
          "type": "address"
        },
        {
          "internalType": "uint256[]",
          "name": "",
          "type": "uint256[]"
        },
        {
          "internalType": "uint256[]",
          "name": "",
          "type": "uint256[]"
        },
        {
          "internalType": "bytes",
          "name": "",
          "type": "bytes"
        }
      ],
      "name": "onERC1155BatchReceived",
      "outputs": [
        {
          "internalType": "bytes4",
          "name": "",
          "type": "bytes4"
        }
      ],
      "stateMutability": "nonpayable",
      "type": "function"
    },
    {
      "inputs": [
        {
          "internalType": "address",
          "name": "",
          "type": "address"
        },
        {
          "internalType": "address",
          "name": "",
          "type": "address"
        },
        {
          "internalType": "uint256",
          "name": "",
          "type": "uint256"
        },
        {
          "internalType": "uint256",
          "name": "",
          "type": "uint256"
        },
        {
          "internalType": "bytes",
          "name": "",
          "type": "bytes"
        }
      ],
      "name": "onERC1155Received",
      "outputs": [
        {
          "internalType": "bytes4",
          "name": "",
          "type": "bytes4"
        }
      ],
      "stateMutability": "nonpayable",
      "type": "function"
    },
    {
      "inputs": [
        {
          "internalType": "address",
          "name": "",
          "type": "address"
        },
        {
          "internalType": "address",
          "name": "",
          "type": "address"
        },
        {
          "internalType": "uint256",
          "name": "",
          "type": "uint256"
        },
        {
          "internalType": "bytes",
          "name": "",
          "type": "bytes"
        }
      ],
      "name": "onERC721Received",
      "outputs": [
        {
          "internalType": "bytes4",
          "name": "",
          "type": "bytes4"
        }
      ],
      "stateMutability": "nonpayable",
      "type": "function"
    },
    {
      "inputs": [
        {
          "internalType": "uint256",
          "name": "proposalId",
          "type": "uint256"
        }
      ],
      "name": "proposalDeadline",
      "outputs": [
        {
          "internalType": "uint256",
          "name": "",
          "type": "uint256"
        }
      ],
      "stateMutability": "view",
      "type": "function"
    },
    {
      "inputs": [
        {
          "internalType": "uint256",
          "name": "proposalId",
          "type": "uint256"
        }
      ],
      "name": "proposalEta",
      "outputs": [
        {
          "internalType": "uint256",
          "name": "",
          "type": "uint256"
        }
      ],
      "stateMutability": "view",
      "type": "function"
    },
    {
      "inputs": [
        {
          "internalType": "uint256",
          "name": "proposalId",
          "type": "uint256"
        }
      ],
      "name": "proposalSnapshot",
      "outputs": [
        {
          "internalType": "uint256",
          "name": "",
          "type": "uint256"
        }
      ],
      "stateMutability": "view",
      "type": "function"
    },
    {
      "inputs": [],
      "name": "proposalThreshold",
      "outputs": [
        {
          "internalType": "uint256",
          "name": "",
          "type": "uint256"
        }
      ],
      "stateMutability": "view",
      "type": "function"
    },
    {
      "inputs": [
        {
          "internalType": "uint256",
          "name": "proposalId",
          "type": "uint256"
        }
      ],
      "name": "proposals",
      "outputs": [
        {
          "internalType": "uint256",
          "name": "id",
          "type": "uint256"
        },
        {
          "internalType": "address",
          "name": "proposer",
          "type": "address"
        },
        {
          "internalType": "uint256",
          "name": "eta",
          "type": "uint256"
        },
        {
          "internalType": "uint256",
          "name": "startBlock",
          "type": "uint256"
        },
        {
          "internalType": "uint256",
          "name": "endBlock",
          "type": "uint256"
        },
        {
          "internalType": "uint256",
          "name": "forVotes",
          "type": "uint256"
        },
        {
          "internalType": "uint256",
          "name": "againstVotes",
          "type": "uint256"
        },
        {
          "internalType": "uint256",
          "name": "abstainVotes",
          "type": "uint256"
        },
        {
          "internalType": "bool",
          "name": "canceled",
          "type": "bool"
        },
        {
          "internalType": "bool",
          "name": "executed",
          "type": "bool"
        }
      ],
      "stateMutability": "view",
      "type": "function"
    },
    {
      "inputs": [
        {
          "internalType": "address[]",
          "name": "targets",
          "type": "address[]"
        },
        {
          "internalType": "uint256[]",
          "name": "values",
          "type": "uint256[]"
        },
        {
          "internalType": "bytes[]",
          "name": "calldatas",
          "type": "bytes[]"
        },
        {
          "internalType": "string",
          "name": "description",
          "type": "string"
        }
      ],
      "name": "propose",
      "outputs": [
        {
          "internalType": "uint256",
          "name": "",
          "type": "uint256"
        }
      ],
      "stateMutability": "nonpayable",
      "type": "function"
    },
    {
      "inputs": [
        {
          "internalType": "address[]",
          "name": "targets",
          "type": "address[]"
        },
        {
          "internalType": "uint256[]",
          "name": "values",
          "type": "uint256[]"
        },
        {
          "internalType": "string[]",
          "name": "signatures",
          "type": "string[]"
        },
        {
          "internalType": "bytes[]",
          "name": "calldatas",
          "type": "bytes[]"
        },
        {
          "internalType": "string",
          "name": "description",
          "type": "string"
        }
      ],
      "name": "propose",
      "outputs": [
        {
          "internalType": "uint256",
          "name": "",
          "type": "uint256"
        }
      ],
      "stateMutability": "nonpayable",
      "type": "function"
    },
    {
      "inputs": [
        {
          "internalType": "address[]",
          "name": "targets",
          "type": "address[]"
        },
        {
          "internalType": "uint256[]",
          "name": "values",
          "type": "uint256[]"
        },
        {
          "internalType": "bytes[]",
          "name": "calldatas",
          "type": "bytes[]"
        },
        {
          "internalType": "string",
          "name": "description",
          "type": "string"
        }
      ],
      "name": "proposeExec",
      "outputs": [
        {
          "internalType": "uint256",
          "name": "",
          "type": "uint256"
        }
      ],
      "stateMutability": "nonpayable",
      "type": "function"
    },
    {
      "inputs": [
        {
          "internalType": "address[]",
          "name": "targets",
          "type": "address[]"
        },
        {
          "internalType": "uint256[]",
          "name": "values",
          "type": "uint256[]"
        },
        {
          "internalType": "bytes[]",
          "name": "calldatas",
          "type": "bytes[]"
        },
        {
          "internalType": "bytes32",
          "name": "descriptionHash",
          "type": "bytes32"
        }
      ],
      "name": "queue",
      "outputs": [
        {
          "internalType": "uint256",
          "name": "",
          "type": "uint256"
        }
      ],
      "stateMutability": "nonpayable",
      "type": "function"
    },
    {
      "inputs": [
        {
          "internalType": "uint256",
          "name": "proposalId",
          "type": "uint256"
        }
      ],
      "name": "queue",
      "outputs": [],
      "stateMutability": "nonpayable",
      "type": "function"
    },
    {
      "inputs": [
        {
          "internalType": "uint256",
          "name": "proposalId",
          "type": "uint256"
        }
      ],
      "name": "queueExec",
      "outputs": [],
      "stateMutability": "nonpayable",
      "type": "function"
    },
    {
      "inputs": [
        {
          "internalType": "uint256",
          "name": "blockNumber",
          "type": "uint256"
        }
      ],
      "name": "quorum",
      "outputs": [
        {
          "internalType": "uint256",
          "name": "",
          "type": "uint256"
        }
      ],
      "stateMutability": "view",
      "type": "function"
    },
    {
      "inputs": [],
      "name": "quorumDenominator",
      "outputs": [
        {
          "internalType": "uint256",
          "name": "",
          "type": "uint256"
        }
      ],
      "stateMutability": "view",
      "type": "function"
    },
    {
      "inputs": [
        {
          "internalType": "uint256",
          "name": "blockNumber",
          "type": "uint256"
        }
      ],
      "name": "quorumNumerator",
      "outputs": [
        {
          "internalType": "uint256",
          "name": "",
          "type": "uint256"
        }
      ],
      "stateMutability": "view",
      "type": "function"
    },
    {
      "inputs": [],
      "name": "quorumNumerator",
      "outputs": [
        {
          "internalType": "uint256",
          "name": "",
          "type": "uint256"
        }
      ],
      "stateMutability": "view",
      "type": "function"
    },
    {
      "inputs": [
        {
          "internalType": "uint256",
          "name": "proposalId",
          "type": "uint256"
        }
      ],
      "name": "quorumReached",
      "outputs": [
        {
          "internalType": "bool",
          "name": "",
          "type": "bool"
        }
      ],
      "stateMutability": "view",
      "type": "function"
    },
    {
      "inputs": [],
      "name": "quorumVotes",
      "outputs": [
        {
          "internalType": "uint256",
          "name": "",
          "type": "uint256"
        }
      ],
      "stateMutability": "view",
      "type": "function"
    },
    {
      "inputs": [
        {
          "internalType": "address",
          "name": "target",
          "type": "address"
        },
        {
          "internalType": "uint256",
          "name": "value",
          "type": "uint256"
        },
        {
          "internalType": "bytes",
          "name": "data",
          "type": "bytes"
        }
      ],
      "name": "relay",
      "outputs": [],
      "stateMutability": "nonpayable",
      "type": "function"
    },
    {
      "inputs": [
        {
          "internalType": "uint256",
          "name": "newProposalThreshold",
          "type": "uint256"
        }
      ],
      "name": "setProposalThreshold",
      "outputs": [],
      "stateMutability": "nonpayable",
      "type": "function"
    },
    {
      "inputs": [
        {
          "internalType": "uint256",
          "name": "newVotingDelay",
          "type": "uint256"
        }
      ],
      "name": "setVotingDelay",
      "outputs": [],
      "stateMutability": "nonpayable",
      "type": "function"
    },
    {
      "inputs": [
        {
          "internalType": "uint256",
          "name": "newVotingPeriod",
          "type": "uint256"
        }
      ],
      "name": "setVotingPeriod",
      "outputs": [],
      "stateMutability": "nonpayable",
      "type": "function"
    },
    {
      "inputs": [
        {
          "internalType": "uint256",
          "name": "proposalId",
          "type": "uint256"
        }
      ],
      "name": "state",
      "outputs": [
        {
          "internalType": "enum IGovernor.ProposalState",
          "name": "",
          "type": "uint8"
        }
      ],
      "stateMutability": "view",
      "type": "function"
    },
    {
      "inputs": [
        {
          "internalType": "bytes4",
          "name": "interfaceId",
          "type": "bytes4"
        }
      ],
      "name": "supportsInterface",
      "outputs": [
        {
          "internalType": "bool",
          "name": "",
          "type": "bool"
        }
      ],
      "stateMutability": "view",
      "type": "function"
    },
    {
      "inputs": [],
      "name": "timelock",
      "outputs": [
        {
          "internalType": "address",
          "name": "",
          "type": "address"
        }
      ],
      "stateMutability": "view",
      "type": "function"
    },
    {
      "inputs": [],
      "name": "token",
      "outputs": [
        {
          "internalType": "contract IVotes",
          "name": "",
          "type": "address"
        }
      ],
      "stateMutability": "view",
      "type": "function"
    },
    {
      "inputs": [
        {
          "internalType": "uint256",
          "name": "newQuorumNumerator",
          "type": "uint256"
        }
      ],
      "name": "updateQuorumNumerator",
      "outputs": [],
      "stateMutability": "nonpayable",
      "type": "function"
    },
    {
      "inputs": [
        {
          "internalType": "contract TimelockController",
          "name": "newTimelock",
          "type": "address"
        }
      ],
      "name": "updateTimelock",
      "outputs": [],
      "stateMutability": "nonpayable",
      "type": "function"
    },
    {
      "inputs": [],
      "name": "version",
      "outputs": [
        {
          "internalType": "string",
          "name": "",
          "type": "string"
        }
      ],
      "stateMutability": "view",
      "type": "function"
    },
    {
      "inputs": [
        {
          "internalType": "uint256",
          "name": "proposalId",
          "type": "uint256"
        }
      ],
      "name": "voteSucceeded",
      "outputs": [
        {
          "internalType": "bool",
          "name": "",
          "type": "bool"
        }
      ],
      "stateMutability": "view",
      "type": "function"
    },
    {
      "inputs": [],
      "name": "votingDelay",
      "outputs": [
        {
          "internalType": "uint256",
          "name": "",
          "type": "uint256"
        }
      ],
      "stateMutability": "view",
      "type": "function"
    },
    {
      "inputs": [],
      "name": "votingPeriod",
      "outputs": [
        {
          "internalType": "uint256",
          "name": "",
          "type": "uint256"
        }
      ],
      "stateMutability": "view",
      "type": "function"
    },
    {
      "stateMutability": "payable",
      "type": "receive"
    }
  ],
  "transactionHash": "0x91658b4773b4b79fe9d8c8643c991168596755ba57fddbef4c372dc1ed3c147b",
  "args": [
    "0x0FDa923c3f24642C10af8e794973343fAAdbabc6",
    "0x65a2508C429a6078a7BC2f7dF81aB575BD9D9275"
  ],
  "numDeployments": 1,
  "solcInputHash": "6be4b1f0048aa610dcf5d9a34cc15ca3",
  "bytecode": "0x6101606040523480156200001257600080fd5b5060405162005dd738038062005dd78339810160408190526200003591620007fa565b80604b83600160c860006040518060400160405280600b81526020016a27bb3723b7bb32b93737b960a91b81525080620000746200017560201b60201c565b815160208084019190912082518383012060e08290526101008190524660a0818152604080517f8b73c3c69bb8fe3d512ecc4cf759cc79239f7b179b0ffacaa9a75d522b39400f81880181905281830187905260608201869052608082019490945230818401528151808203909301835260c00190528051940193909320919290916080523060601b60c05261012052505082516200011d92506000915060208401906200075e565b506200012b90508362000190565b6200013682620001d1565b620001418162000278565b50505060601b6001600160601b031916610140526200016081620002b9565b506200016c8162000431565b505050620008cb565b6040805180820190915260018152603160f81b602082015290565b60045460408051918252602082018390527fc565b045403dc03c2eea82b81a0465edad9e2e7fc4d97e11421c209da93d7a93910160405180910390a1600455565b60008111620002375760405162461bcd60e51b815260206004820152602760248201527f476f7665726e6f7253657474696e67733a20766f74696e6720706572696f6420604482015266746f6f206c6f7760c81b60648201526084015b60405180910390fd5b60055460408051918252602082018390527f7e3f7f0708a84de9203036abaa450dccc85ad5ff52f78c170f3edb55cf5e8828910160405180910390a1600555565b60065460408051918252602082018390527fccb45da8d5717e6c4544694297c4ba5cf151d455c9bb0ed4fc7a38411bc05461910160405180910390a1600655565b60648111156200033e5760405162461bcd60e51b815260206004820152604360248201527f476f7665726e6f72566f74657351756f72756d4672616374696f6e3a2071756f60448201527f72756d4e756d657261746f72206f7665722071756f72756d44656e6f6d696e616064820152623a37b960e91b608482015260a4016200022e565b60006200034a6200049a565b905080158015906200035c5750600954155b15620003d75760096000016040518060400160405280600063ffffffff1681526020016200039584620004c960201b620024131760201c565b6001600160e01b0390811690915282546001810184556000938452602093849020835194909301519091166401000000000263ffffffff909316929092179101555b620003f28260096200053860201b620024801790919060201c565b505060408051828152602081018490527f0553476bf02ef2726e8ce5ced78d63e26e602e4a2257b1f559418e24b4633997910160405180910390a15050565b600a54604080516001600160a01b03928316815291831660208301527f08f74ea46ef7894f65eabfb5e6e695de773a000b47c529ab559178069b226401910160405180910390a1600a80546001600160a01b0319166001600160a01b0392909216919091179055565b60095460009015620004c257620004bd60096200069460201b620025ab1760201c565b905090565b5060085490565b60006001600160e01b03821115620005345760405162461bcd60e51b815260206004820152602760248201527f53616665436173743a2076616c756520646f65736e27742066697420696e20326044820152663234206269747360c81b60648201526084016200022e565b5090565b81546000908190816200054b8662000694565b90506000821180156200058f575043866200056860018562000839565b815481106200057b576200057b6200089c565b60009182526020909120015463ffffffff16145b156200060357620005ab85620004c960201b620024131760201c565b86620005b960018562000839565b81548110620005cc57620005cc6200089c565b9060005260206000200160000160046101000a8154816001600160e01b0302191690836001600160e01b031602179055506200068b565b8560000160405180604001604052806200062843620006f760201b620026071760201c565b63ffffffff1681526020016200064988620004c960201b620024131760201c565b6001600160e01b0390811690915282546001810184556000938452602093849020835194909301519091166401000000000263ffffffff909316929092179101555b95939450505050565b80546000908015620006e45782620006ae60018362000839565b81548110620006c157620006c16200089c565b60009182526020909120015464010000000090046001600160e01b0316620006e7565b60005b6001600160e01b03169392505050565b600063ffffffff821115620005345760405162461bcd60e51b815260206004820152602660248201527f53616665436173743a2076616c756520646f65736e27742066697420696e203360448201526532206269747360d01b60648201526084016200022e565b8280546200076c906200085f565b90600052602060002090601f016020900481019282620007905760008555620007db565b82601f10620007ab57805160ff1916838001178555620007db565b82800160010185558215620007db579182015b82811115620007db578251825591602001919060010190620007be565b50620005349291505b80821115620005345760008155600101620007e4565b600080604083850312156200080e57600080fd5b82516200081b81620008b2565b60208401519092506200082e81620008b2565b809150509250929050565b6000828210156200085a57634e487b7160e01b600052601160045260246000fd5b500390565b600181811c908216806200087457607f821691505b602082108114156200089657634e487b7160e01b600052602260045260246000fd5b50919050565b634e487b7160e01b600052603260045260246000fd5b6001600160a01b0381168114620008c857600080fd5b50565b60805160a05160c05160601c60e05161010051610120516101405160601c61549d6200093a60003960008181610bb301528181612fd001526132e601526000613471015260006134c00152600061349b015260006133f40152600061341e01526000613448015261549d6000f3fe6080604052600436106103395760003560e01c80637d5e81e2116101ab578063d33219b4116100f7578063ea0217cf11610095578063f23a6e611161006f578063f23a6e6114610b55578063f8ce560a14610b81578063fc0c546a14610ba1578063fe0d94c114610bd557600080fd5b8063ea0217cf14610af5578063eb9019d414610b15578063ece40cc114610b3557600080fd5b8063dd4e2ba5116100d1578063dd4e2ba514610991578063ddf0b009146109d7578063deaaa7cc146109f7578063e23a9a5214610a2b57600080fd5b8063d33219b41461091f578063d4a8dd9814610951578063da95691a1461097157600080fd5b8063a890c91011610164578063bc197c811161013e578063bc197c8114610893578063c01f9e37146108bf578063c28bc2fa146108df578063c59057e4146108ff57600080fd5b8063a890c9101461083e578063ab58fb8e1461085e578063b58131b01461087e57600080fd5b80637d5e81e2146107955780638d73b031146107b55780638f3f7d58146107d557806397c3d334146107f55780639a802a6d14610809578063a7713a701461082957600080fd5b8063328dd98211610285578063567813881161022357806360c4247f116101fd57806360c4247f1461071357806362564c481461073357806370b0f660146107555780637b3c71d31461077557600080fd5b806356781388146106b35780635c1ba647146106d35780635f398a14146106f357600080fd5b80633e4f49e61161025f5780633e4f49e6146105f257806340e58ee51461061f578063438596321461063f57806354fd4d501461068957600080fd5b8063328dd9821461058d5780633932abb1146105bd5780633bccf4fd146105d257600080fd5b8063150b7a02116102f25780632656227d116102cc5780632656227d146105065780632c23c67f146105195780632d63f693146105395780632fe3e2611461055957600080fd5b8063150b7a021461048d578063160cbed7146104d157806324bc1a64146104f157600080fd5b8063013cf08b1461036157806301ffc9a7146103dc57806302a251a31461040c578063034201811461042b57806306f3f9e61461044b57806306fdde031461046b57600080fd5b3661035c5730610347610be8565b6001600160a01b03161461035a57600080fd5b005b600080fd5b34801561036d57600080fd5b5061038161037c366004614ba2565b610c01565b604080519a8b526001600160a01b0390991660208b0152978901969096526060880194909452608087019290925260a086015260c085015260e084015215156101008301521515610120820152610140015b60405180910390f35b3480156103e857600080fd5b506103fc6103f7366004614b5b565b610cac565b60405190151581526020016103d3565b34801561041857600080fd5b506005545b6040519081526020016103d3565b34801561043757600080fd5b5061041d610446366004614cc1565b610cbd565b34801561045757600080fd5b5061035a610466366004614ba2565b610db5565b34801561047757600080fd5b50610480610e4d565b6040516103d39190615080565b34801561049957600080fd5b506104b86104a836600461479e565b630a85bd0160e11b949350505050565b6040516001600160e01b031990911681526020016103d3565b3480156104dd57600080fd5b5061041d6104ec366004614950565b610edf565b3480156104fd57600080fd5b5061041d6110fe565b61041d610514366004614950565b61110e565b34801561052557600080fd5b5061035a610534366004614ba2565b6111fb565b34801561054557600080fd5b5061041d610554366004614ba2565b611204565b34801561056557600080fd5b5061041d7fb3b3f3b703cd84ce352197dcff232b1b5d3cfb2025ce47cf04742d0651f1af8881565b34801561059957600080fd5b506105ad6105a8366004614ba2565b61123b565b6040516103d39493929190614ff8565b3480156105c957600080fd5b5060045461041d565b3480156105de57600080fd5b5061041d6105ed366004614d67565b6114cc565b3480156105fe57600080fd5b5061061261060d366004614ba2565b611542565b6040516103d39190615058565b34801561062b57600080fd5b5061035a61063a366004614ba2565b61154d565b34801561064b57600080fd5b506103fc61065a366004614bbb565b60008281526007602090815260408083206001600160a01b038516845260080190915290205460ff1692915050565b34801561069557600080fd5b506040805180820190915260018152603160f81b6020820152610480565b3480156106bf57600080fd5b5061041d6106ce366004614beb565b611865565b3480156106df57600080fd5b5061041d6106ee3660046149df565b61188e565b3480156106ff57600080fd5b5061041d61070e366004614c58565b6118dc565b34801561071f57600080fd5b5061041d61072e366004614ba2565b611926565b34801561073f57600080fd5b506107486119bc565b6040516103d39190615045565b34801561076157600080fd5b5061035a610770366004614ba2565b611a13565b34801561078157600080fd5b5061041d610790366004614c17565b611a9f565b3480156107a157600080fd5b5061041d6107b03660046149df565b611af1565b3480156107c157600080fd5b506103fc6107d0366004614ba2565b611b08565b3480156107e157600080fd5b5061035a6107f0366004614ba2565b611b27565b34801561080157600080fd5b50606461041d565b34801561081557600080fd5b5061041d6108243660046148f8565b611b30565b34801561083557600080fd5b5061041d611b47565b34801561084a57600080fd5b5061035a610859366004614b85565b611b63565b34801561086a57600080fd5b5061041d610879366004614ba2565b611bef565b34801561088a57600080fd5b5061041d611c98565b34801561089f57600080fd5b506104b86108ae3660046146f1565b63bc197c8160e01b95945050505050565b3480156108cb57600080fd5b5061041d6108da366004614ba2565b611ca3565b3480156108eb57600080fd5b5061035a6108fa36600461489d565b611cd2565b34801561090b57600080fd5b5061041d61091a366004614950565b611d9e565b34801561092b57600080fd5b50600a546001600160a01b03165b6040516001600160a01b0390911681526020016103d3565b34801561095d57600080fd5b506103fc61096c366004614ba2565b611dd8565b34801561097d57600080fd5b5061041d61098c366004614a7f565b611de3565b34801561099d57600080fd5b5060408051808201909152601a81527f737570706f72743d627261766f2671756f72756d3d627261766f0000000000006020820152610480565b3480156109e357600080fd5b5061035a6109f2366004614ba2565b611e08565b348015610a0357600080fd5b5061041d7f150214d74d59b7d1e90c73fc22ef3d991dd0a76b046543d4d80ab92d2a50328f81565b348015610a3757600080fd5b50610ac5610a46366004614bbb565b60408051606081018252600080825260208201819052918101919091525060009182526007602090815260408084206001600160a01b0393909316845260089092018152918190208151606081018352905460ff8082161515835261010082041693820193909352620100009092046001600160601b03169082015290565b6040805182511515815260208084015160ff1690820152918101516001600160601b0316908201526060016103d3565b348015610b0157600080fd5b5061035a610b10366004614ba2565b612076565b348015610b2157600080fd5b5061041d610b30366004614871565b612102565b348015610b4157600080fd5b5061035a610b50366004614ba2565b61210e565b348015610b6157600080fd5b506104b8610b70366004614809565b63f23a6e6160e01b95945050505050565b348015610b8d57600080fd5b5061041d610b9c366004614ba2565b61219a565b348015610bad57600080fd5b506109397f000000000000000000000000000000000000000000000000000000000000000081565b61035a610be3366004614ba2565b6121a5565b6000610bfc600a546001600160a01b031690565b905090565b8060008080808080808080610c158a611bef565b9750610c208b611204565b9650610c2b8b611ca3565b60008c81526007602081905260408220805460058201546006830154938301546001600160a01b039092169e50949a50939850909650919450610c6d8d611542565b90506002816007811115610c8357610c836153e7565b1493506007816007811115610c9a57610c9a6153e7565b14925050509193959799509193959799565b6000610cb78261266c565b92915050565b600080610d61610d597fb3b3f3b703cd84ce352197dcff232b1b5d3cfb2025ce47cf04742d0651f1af888c8c8c8c604051610cf9929190614edb565b60405180910390208b80519060200120604051602001610d3e959493929190948552602085019390935260ff9190911660408401526060830152608082015260a00190565b60405160208183030381529060405280519060200120612691565b8686866126df565b9050610da78a828b8b8b8080601f0160208091040260200160405190810160405280939291908181526020018383808284376000920191909152508d92506126fd915050565b9a9950505050505050505050565b610dbd610be8565b6001600160a01b0316336001600160a01b031614610df65760405162461bcd60e51b8152600401610ded90615093565b60405180910390fd5b30610dff610be8565b6001600160a01b031614610e415760008036604051610e1f929190614edb565b604051809103902090505b80610e35600261285f565b14610e3f57610e2a565b505b610e4a816128eb565b50565b606060008054610e5c9061537b565b80601f0160208091040260200160405190810160405280929190818152602001828054610e889061537b565b8015610ed55780601f10610eaa57610100808354040283529160200191610ed5565b820191906000526020600020905b815481529060010190602001808311610eb857829003601f168201915b5050505050905090565b600080610eee86868686611d9e565b90506004610efb82611542565b6007811115610f0c57610f0c6153e7565b14610f295760405162461bcd60e51b8152600401610ded9061510b565b600a546040805163793d064960e11b815290516000926001600160a01b03169163f27a0c92916004808301926020929190829003018186803b158015610f6e57600080fd5b505afa158015610f82573d6000803e3d6000fd5b505050506040513d601f19601f82011682018060405250810190610fa69190614b42565b600a5460405163b1c5f42760e01b81529192506001600160a01b03169063b1c5f42790610fe0908a908a908a906000908b90600401614f52565b60206040518083038186803b158015610ff857600080fd5b505afa15801561100c573d6000803e3d6000fd5b505050506040513d601f19601f820116820180604052508101906110309190614b42565b6000838152600b602052604080822092909255600a5491516308f2a0bb60e41b81526001600160a01b0390921691638f2a0bb09161107b918b918b918b91908b908990600401614fa0565b600060405180830381600087803b15801561109557600080fd5b505af11580156110a9573d6000803e3d6000fd5b505050507f9a2e42fd6722813d69113e7d0079d3d940171428df7373df9c7f7617cfda28928282426110db91906152b0565b604080519283526020830191909152015b60405180910390a15095945050505050565b6000610bfc610b9c600143615334565b60008061111d86868686611d9e565b9050600061112a82611542565b90506004816007811115611140576111406153e7565b148061115d5750600581600781111561115b5761115b6153e7565b145b6111795760405162461bcd60e51b8152600401610ded9061510b565b600082815260016020818152604092839020600201805460ff191690921790915590518381527f712ae1383f79ac853f8d882153778e0260ef8f03b504e2866e0593e04d2b291f910160405180910390a16111d78288888888612a38565b6111e48288888888612ada565b6111f18288888888612ae7565b5095945050505050565b610e4a816121a5565b60008181526001602090815260408083208151928301909152546001600160401b0316908190525b6001600160401b031692915050565b606080606080600060076000878152602001908152602001600020905080600101816002018260030183600401838054806020026020016040519081016040528092919081815260200182805480156112bd57602002820191906000526020600020905b81546001600160a01b0316815260019091019060200180831161129f575b505050505093508280548060200260200160405190810160405280929190818152602001828054801561130f57602002820191906000526020600020905b8154815260200190600101908083116112fb575b5050505050925081805480602002602001604051908101604052809291908181526020016000905b828210156113e35783829060005260206000200180546113569061537b565b80601f01602080910402602001604051908101604052809291908181526020018280546113829061537b565b80156113cf5780601f106113a4576101008083540402835291602001916113cf565b820191906000526020600020905b8154815290600101906020018083116113b257829003601f168201915b505050505081526020019060010190611337565b50505050915080805480602002602001604051908101604052809291908181526020016000905b828210156114b65783829060005260206000200180546114299061537b565b80601f01602080910402602001604051908101604052809291908181526020018280546114559061537b565b80156114a25780601f10611477576101008083540402835291602001916114a2565b820191906000526020600020905b81548152906001019060200180831161148557829003601f168201915b50505050508152602001906001019061140a565b5050505090509450945094509450509193509193565b604080517f150214d74d59b7d1e90c73fc22ef3d991dd0a76b046543d4d80ab92d2a50328f602082015290810186905260ff85166060820152600090819061151a90610d5990608001610d3e565b905061153787828860405180602001604052806000815250612b24565b979650505050505050565b6000610cb782612b47565b600081815260076020526040902080546001600160a01b0316336001600160a01b0316148061159b575061157f611c98565b8154611599906001600160a01b0316610b30600143615334565b105b6115f75760405162461bcd60e51b815260206004820152602760248201527f476f7665726e6f72427261766f3a2070726f706f7365722061626f76652074686044820152661c995cda1bdb1960ca1b6064820152608401610ded565b6118608160010180548060200260200160405190810160405280929190818152602001828054801561165257602002820191906000526020600020905b81546001600160a01b03168152600190910190602001808311611634575b5050505050826002018054806020026020016040519081016040528092919081815260200182805480156116a557602002820191906000526020600020905b815481526020019060010190808311611691575b505050505061185684600301805480602002602001604051908101604052809291908181526020016000905b8282101561177d5783829060005260206000200180546116f09061537b565b80601f016020809104026020016040519081016040528092919081815260200182805461171c9061537b565b80156117695780601f1061173e57610100808354040283529160200191611769565b820191906000526020600020905b81548152906001019060200180831161174c57829003601f168201915b5050505050815260200190600101906116d1565b50505060048701805460408051602080840282018101909252828152935060009084015b8282101561184d5783829060005260206000200180546117c09061537b565b80601f01602080910402602001604051908101604052809291908181526020018280546117ec9061537b565b80156118395780601f1061180e57610100808354040283529160200191611839565b820191906000526020600020905b81548152906001019060200180831161181c57829003601f168201915b5050505050815260200190600101906117a1565b50505050612caf565b8460090154612de1565b505050565b60008033905061188684828560405180602001604052806000815250612b24565b949350505050565b60008061189d86868686612def565b600c80546001810182556000919091527fdf6966c971051c3d54ec59162606531493a51404a002842f56009d7e5cf4a8c7018190559695505050505050565b60008033905061153787828888888080601f0160208091040260200160405190810160405280939291908181526020018383808284376000920191909152508a92506126fd915050565b6009546000908061193b575050600854919050565b6000600961194a600184615334565b8154811061195a5761195a6153fd565b60009182526020918290206040805180820190915291015463ffffffff81168083526401000000009091046001600160e01b031692820192909252915084106119b157602001516001600160e01b03169392505050565b611886600985612e57565b6060600c805480602002602001604051908101604052809291908181526020018280548015610ed557602002820191906000526020600020905b8154815260200190600101908083116119f6575050505050905090565b611a1b610be8565b6001600160a01b0316336001600160a01b031614611a4b5760405162461bcd60e51b8152600401610ded90615093565b30611a54610be8565b6001600160a01b031614611a965760008036604051611a74929190614edb565b604051809103902090505b80611a8a600261285f565b14611a9457611a7f565b505b610e4a81612f66565b600080339050611ae786828787878080601f016020809104026020016040519081016040528093929190818152602001838380828437600092019190915250612b2492505050565b9695505050505050565b6000611aff85858585612def565b95945050505050565b6000818152600760205260408120600681015460059091015411610cb7565b610e4a81611e08565b6000611b3d848484612fa7565b90505b9392505050565b60095460009015611b5c57610bfc60096125ab565b5060085490565b611b6b610be8565b6001600160a01b0316336001600160a01b031614611b9b5760405162461bcd60e51b8152600401610ded90615093565b30611ba4610be8565b6001600160a01b031614611be65760008036604051611bc4929190614edb565b604051809103902090505b80611bda600261285f565b14611be457611bcf565b505b610e4a8161304c565b600a546000828152600b602052604080822054905163d45c443560e01b81526004810191909152909182916001600160a01b039091169063d45c44359060240160206040518083038186803b158015611c4757600080fd5b505afa158015611c5b573d6000803e3d6000fd5b505050506040513d601f19601f82011682018060405250810190611c7f9190614b42565b905080600114611c8f5780611b40565b60009392505050565b6000610bfc60065490565b60008181526001602081815260408084208151928301909152909101546001600160401b03169081905261122c565b611cda610be8565b6001600160a01b0316336001600160a01b031614611d0a5760405162461bcd60e51b8152600401610ded90615093565b30611d13610be8565b6001600160a01b031614611d555760008036604051611d33929190614edb565b604051809103902090505b80611d49600261285f565b14611d5357611d3e565b505b611d978483838080601f0160208091040260200160405190810160405280939291908181526020018383808284376000920191909152508892506130b5915050565b5050505050565b600084848484604051602001611db79493929190614f07565b60408051601f19818403018152919052805160209091012095945050505050565b6000610cb7826130db565b6000611df3338787878787613103565b611ae78686611e028787612caf565b85611af1565b600081815260076020908152604091829020600181018054845181850281018501909552808552919361186093909290830182828015611e7157602002820191906000526020600020905b81546001600160a01b03168152600190910190602001808311611e53575b505050505082600201805480602002602001604051908101604052809291908181526020018280548015611ec457602002820191906000526020600020905b815481526020019060010190808311611eb0575b505050505061206c84600301805480602002602001604051908101604052809291908181526020016000905b82821015611f9c578382906000526020600020018054611f0f9061537b565b80601f0160208091040260200160405190810160405280929190818152602001828054611f3b9061537b565b8015611f885780601f10611f5d57610100808354040283529160200191611f88565b820191906000526020600020905b815481529060010190602001808311611f6b57829003601f168201915b505050505081526020019060010190611ef0565b50505060048701805460408051602080840282018101909252828152935060009084015b8282101561184d578382906000526020600020018054611fdf9061537b565b80601f016020809104026020016040519081016040528092919081815260200182805461200b9061537b565b80156120585780601f1061202d57610100808354040283529160200191612058565b820191906000526020600020905b81548152906001019060200180831161203b57829003601f168201915b505050505081526020019060010190611fc0565b8460090154610edf565b61207e610be8565b6001600160a01b0316336001600160a01b0316146120ae5760405162461bcd60e51b8152600401610ded90615093565b306120b7610be8565b6001600160a01b0316146120f957600080366040516120d7929190614edb565b604051809103902090505b806120ed600261285f565b146120f7576120e2565b505b610e4a816131c0565b6000611b408383613261565b612116610be8565b6001600160a01b0316336001600160a01b0316146121465760405162461bcd60e51b8152600401610ded90615093565b3061214f610be8565b6001600160a01b031614612191576000803660405161216f929190614edb565b604051809103902090505b80612185600261285f565b1461218f5761217a565b505b610e4a81613282565b6000610cb7826132c3565b60008181526007602090815260409182902060018101805484518185028101850190955280855291936118609390929083018282801561220e57602002820191906000526020600020905b81546001600160a01b031681526001909101906020018083116121f0575b50505050508260020180548060200260200160405190810160405280929190818152602001828054801561226157602002820191906000526020600020905b81548152602001906001019080831161224d575b505050505061240984600301805480602002602001604051908101604052809291908181526020016000905b828210156123395783829060005260206000200180546122ac9061537b565b80601f01602080910402602001604051908101604052809291908181526020018280546122d89061537b565b80156123255780601f106122fa57610100808354040283529160200191612325565b820191906000526020600020905b81548152906001019060200180831161230857829003601f168201915b50505050508152602001906001019061228d565b50505060048701805460408051602080840282018101909252828152935060009084015b8282101561184d57838290600052602060002001805461237c9061537b565b80601f01602080910402602001604051908101604052809291908181526020018280546123a89061537b565b80156123f55780601f106123ca576101008083540402835291602001916123f5565b820191906000526020600020905b8154815290600101906020018083116123d857829003601f168201915b50505050508152602001906001019061235d565b846009015461110e565b60006001600160e01b0382111561247c5760405162461bcd60e51b815260206004820152602760248201527f53616665436173743a2076616c756520646f65736e27742066697420696e20326044820152663234206269747360c81b6064820152608401610ded565b5090565b8154600090819081612491866125ab565b90506000821180156124cf575043866124ab600185615334565b815481106124bb576124bb6153fd565b60009182526020909120015463ffffffff16145b1561252f576124dd85612413565b866124e9600185615334565b815481106124f9576124f96153fd565b9060005260206000200160000160046101000a8154816001600160e01b0302191690836001600160e01b0316021790555061259d565b85600001604051806040016040528061254743612607565b63ffffffff16815260200161255b88612413565b6001600160e01b0390811690915282546001810184556000938452602093849020835194909301519091166401000000000263ffffffff909316929092179101555b9250839150505b9250929050565b805460009080156125f457826125c2600183615334565b815481106125d2576125d26153fd565b60009182526020909120015464010000000090046001600160e01b03166125f7565b60005b6001600160e01b03169392505050565b600063ffffffff82111561247c5760405162461bcd60e51b815260206004820152602660248201527f53616665436173743a2076616c756520646f65736e27742066697420696e203360448201526532206269747360d01b6064820152608401610ded565b60006001600160e01b03198216636e665ced60e01b1480610cb75750610cb78261337c565b6000610cb761269e6133e7565b8360405161190160f01b6020820152602281018390526042810182905260009060620160405160208183030381529060405280519060200120905092915050565b60008060006126f08787878761350e565b915091506111f1816135fb565b600085815260016020819052604082209061271788611542565b6007811115612728576127286153e7565b146127815760405162461bcd60e51b815260206004820152602360248201527f476f7665726e6f723a20766f7465206e6f742063757272656e746c792061637460448201526269766560e81b6064820152608401610ded565b604080516020810190915281546001600160401b0316908190526000906127aa90889086612fa7565b90506127b988888884886137b6565b835161280b57866001600160a01b03167fb8e138887d0aa13bab447e82de9d5c1777041ecd21ca36ba824ff1e6c07ddda4898884896040516127fe94939291906151ef565b60405180910390a2611537565b866001600160a01b03167fe2babfbac5889a709b63bb7f598b324e08bc5a4fb9ec647fb3cbc9ec07eb8712898884898960405161284c959493929190615217565b60405180910390a2979650505050505050565b600061287e8254600f81810b810b600160801b909204810b900b131590565b1561289c57604051631ed9509560e11b815260040160405180910390fd5b508054600f90810b80820b820b600090815260018085016020526040822080549290558454920190920b6001600160801b03166fffffffffffffffffffffffffffffffff199091161790915590565b606481111561296e5760405162461bcd60e51b815260206004820152604360248201527f476f7665726e6f72566f74657351756f72756d4672616374696f6e3a2071756f60448201527f72756d4e756d657261746f72206f7665722071756f72756d44656e6f6d696e616064820152623a37b960e91b608482015260a401610ded565b6000612978611b47565b905080158015906129895750600954155b156129ee576040805180820190915260008152600990602081016129ac84612413565b6001600160e01b0390811690915282546001810184556000938452602093849020835194909301519091166401000000000263ffffffff909316929092179101555b6129f9600983612480565b505060408051828152602081018490527f0553476bf02ef2726e8ce5ced78d63e26e602e4a2257b1f559418e24b4633997910160405180910390a15050565b30612a41610be8565b6001600160a01b031614611d975760005b8451811015612ad257306001600160a01b0316858281518110612a7757612a776153fd565b60200260200101516001600160a01b03161415612ac257612ac2838281518110612aa357612aa36153fd565b602002602001015180519060200120600261395c90919063ffffffff16565b612acb816153b6565b9050612a52565b505050505050565b611d9785858585856139a2565b30612af0610be8565b6001600160a01b031614611d9757600254600f81810b810b600160801b909204810b900b1315611d97576000600255611d97565b6000611aff85858585612b4260408051602081019091526000815290565b6126fd565b600080612b5383613a16565b90506004816007811115612b6957612b696153e7565b14612b745792915050565b6000838152600b602052604090205480612b8f575092915050565b600a54604051632ab0f52960e01b8152600481018390526001600160a01b0390911690632ab0f5299060240160206040518083038186803b158015612bd357600080fd5b505afa158015612be7573d6000803e3d6000fd5b505050506040513d601f19601f82011682018060405250810190612c0b9190614b20565b15612c1a575060079392505050565b600a54604051632c258a9f60e11b8152600481018390526001600160a01b039091169063584b153e9060240160206040518083038186803b158015612c5e57600080fd5b505afa158015612c72573d6000803e3d6000fd5b505050506040513d601f19601f82011682018060405250810190612c969190614b20565b15612ca5575060059392505050565b5060029392505050565b6060600082516001600160401b03811115612ccc57612ccc615413565b604051908082528060200260200182016040528015612cff57816020015b6060815260200190600190039081612cea5790505b50905060005b8451811015612dd957848181518110612d2057612d206153fd565b602002602001015151600014612d9057848181518110612d4257612d426153fd565b602002602001015180519060200120848281518110612d6357612d636153fd565b6020026020010151604051602001612d7c929190614eaa565b604051602081830303815290604052612dab565b838181518110612da257612da26153fd565b60200260200101515b828281518110612dbd57612dbd6153fd565b602002602001018190525080612dd2906153b6565b9050612d05565b509392505050565b6000611aff85858585613b25565b6000612e4b33868686516001600160401b03811115612e1057612e10615413565b604051908082528060200260200182016040528015612e4357816020015b6060815260200190600190039081612e2e5790505b508787613103565b611aff85858585613bd7565b6000438210612ea85760405162461bcd60e51b815260206004820181905260248201527f436865636b706f696e74733a20626c6f636b206e6f7420796574206d696e65646044820152606401610ded565b825460005b81811015612f0d576000612ec18284613e9c565b905084866000018281548110612ed957612ed96153fd565b60009182526020909120015463ffffffff161115612ef957809250612f07565b612f048160016152b0565b91505b50612ead565b8115612f515784612f1f600184615334565b81548110612f2f57612f2f6153fd565b60009182526020909120015464010000000090046001600160e01b0316612f54565b60005b6001600160e01b031695945050505050565b60045460408051918252602082018390527fc565b045403dc03c2eea82b81a0465edad9e2e7fc4d97e11421c209da93d7a93910160405180910390a1600455565b604051630748d63560e31b81526001600160a01b038481166004830152602482018490526000917f000000000000000000000000000000000000000000000000000000000000000090911690633a46b1a89060440160206040518083038186803b15801561301457600080fd5b505afa158015613028573d6000803e3d6000fd5b505050506040513d601f19601f82011682018060405250810190611b3d9190614b42565b600a54604080516001600160a01b03928316815291831660208301527f08f74ea46ef7894f65eabfb5e6e695de773a000b47c529ab559178069b226401910160405180910390a1600a80546001600160a01b0319166001600160a01b0392909216919091179055565b6060611b3d84848460405180606001604052806029815260200161543f60299139613eb7565b600081815260076020526040812060058101546130fa610b9c85611204565b11159392505050565b805160208201206000613121878761311b8888612caf565b85611d9e565b60008181526007602052604090206009810154919250906131b55780546001600160a01b0319166001600160a01b038a16178155875161316a90600183019060208b01906141f2565b50865161318090600283019060208a0190614253565b508551613196906003830190602089019061428e565b5084516131ac90600483019060208801906142e7565b50600981018390555b505050505050505050565b600081116132205760405162461bcd60e51b815260206004820152602760248201527f476f7665726e6f7253657474696e67733a20766f74696e6720706572696f6420604482015266746f6f206c6f7760c81b6064820152608401610ded565b60055460408051918252602082018390527f7e3f7f0708a84de9203036abaa450dccc85ad5ff52f78c170f3edb55cf5e8828910160405180910390a1600555565b6000611b40838361327d60408051602081019091526000815290565b612fa7565b60065460408051918252602082018390527fccb45da8d5717e6c4544694297c4ba5cf151d455c9bb0ed4fc7a38411bc05461910160405180910390a1600655565b600060646132d083611926565b604051632394e7a360e21b8152600481018590527f00000000000000000000000000000000000000000000000000000000000000006001600160a01b031690638e539e8c9060240160206040518083038186803b15801561333057600080fd5b505afa158015613344573d6000803e3d6000fd5b505050506040513d601f19601f820116820180604052508101906133689190614b42565b6133729190615315565b610cb791906152f3565b60006001600160e01b0319821663bf26d89760e01b14806133ad57506001600160e01b031982166379dd796f60e01b145b806133c857506001600160e01b03198216630271189760e51b145b80610cb757506301ffc9a760e01b6001600160e01b0319831614610cb7565b6000306001600160a01b037f00000000000000000000000000000000000000000000000000000000000000001614801561344057507f000000000000000000000000000000000000000000000000000000000000000046145b1561346a57507f000000000000000000000000000000000000000000000000000000000000000090565b50604080517f00000000000000000000000000000000000000000000000000000000000000006020808301919091527f0000000000000000000000000000000000000000000000000000000000000000828401527f000000000000000000000000000000000000000000000000000000000000000060608301524660808301523060a0808401919091528351808403909101815260c0909201909252805191012090565b6000807f7fffffffffffffffffffffffffffffff5d576e7357a4501ddfe92f46681b20a083111561354557506000905060036135f2565b8460ff16601b1415801561355d57508460ff16601c14155b1561356e57506000905060046135f2565b6040805160008082526020820180845289905260ff881692820192909252606081018690526080810185905260019060a0016020604051602081039080840390855afa1580156135c2573d6000803e3d6000fd5b5050604051601f1901519150506001600160a01b0381166135eb576000600192509250506135f2565b9150600090505b94509492505050565b600081600481111561360f5761360f6153e7565b14156136185750565b600181600481111561362c5761362c6153e7565b141561367a5760405162461bcd60e51b815260206004820152601860248201527f45434453413a20696e76616c6964207369676e617475726500000000000000006044820152606401610ded565b600281600481111561368e5761368e6153e7565b14156136dc5760405162461bcd60e51b815260206004820152601f60248201527f45434453413a20696e76616c6964207369676e6174757265206c656e677468006044820152606401610ded565b60038160048111156136f0576136f06153e7565b14156137495760405162461bcd60e51b815260206004820152602260248201527f45434453413a20696e76616c6964207369676e6174757265202773272076616c604482015261756560f01b6064820152608401610ded565b600481600481111561375d5761375d6153e7565b1415610e4a5760405162461bcd60e51b815260206004820152602260248201527f45434453413a20696e76616c6964207369676e6174757265202776272076616c604482015261756560f01b6064820152608401610ded565b60008581526007602090815260408083206001600160a01b038816845260088101909252909120805460ff16156138455760405162461bcd60e51b815260206004820152602d60248201527f476f7665726e6f72436f6d7061746962696c697479427261766f3a20766f746560448201526c08185b1c9958591e4818d85cdd609a1b6064820152608401610ded565b805460ff86166101000261ffff1990911617600117815561386584613fdd565b81546001600160601b039190911662010000026dffffffffffffffffffffffff00001990911617815560ff85166138b557838260060160008282546138aa91906152b0565b909155506139539050565b60ff8516600114156138d557838260050160008282546138aa91906152b0565b60ff8516600214156138f557838260070160008282546138aa91906152b0565b60405162461bcd60e51b815260206004820152602d60248201527f476f7665726e6f72436f6d7061746962696c697479427261766f3a20696e766160448201526c6c696420766f7465207479706560981b6064820152608401610ded565b50505050505050565b8154600160801b90819004600f90810b80820b820b6000908152600180870160205260409091209490945584549301900b6001600160801b039081169091029116179055565b600a5460405163e38335e560e01b81526001600160a01b039091169063e38335e59034906139dd908890889088906000908990600401614f52565b6000604051808303818588803b1580156139f657600080fd5b505af1158015613a0a573d6000803e3d6000fd5b50505050505050505050565b6000818152600160205260408120600281015460ff1615613a3a5750600792915050565b6002810154610100900460ff1615613a555750600292915050565b6000613a6084611204565b905080613aaf5760405162461bcd60e51b815260206004820152601d60248201527f476f7665726e6f723a20756e6b6e6f776e2070726f706f73616c2069640000006044820152606401610ded565b438110613ac0575060009392505050565b6000613acb85611ca3565b9050438110613adf57506001949350505050565b613ae8856130db565b8015613b0a575060008581526007602052604090206006810154600590910154115b15613b1a57506004949350505050565b506003949350505050565b600080613b3486868686614045565b6000818152600b602052604090205490915015611aff57600a546000828152600b60205260409081902054905163c4d252f560e01b81526001600160a01b039092169163c4d252f591613b8d9160040190815260200190565b600060405180830381600087803b158015613ba757600080fd5b505af1158015613bbb573d6000803e3d6000fd5b5050506000828152600b60205260408120555095945050505050565b6000613be1611c98565b613bf033610b30600143615334565b1015613c585760405162461bcd60e51b815260206004820152603160248201527f476f7665726e6f723a2070726f706f73657220766f7465732062656c6f7720706044820152701c9bdc1bdcd85b081d1a1c995cda1bdb19607a1b6064820152608401610ded565b6000613c6d8686868680519060200120611d9e565b90508451865114613c905760405162461bcd60e51b8152600401610ded906150ca565b8351865114613cb15760405162461bcd60e51b8152600401610ded906150ca565b6000865111613d025760405162461bcd60e51b815260206004820152601860248201527f476f7665726e6f723a20656d7074792070726f706f73616c00000000000000006044820152606401610ded565b600081815260016020908152604091829020825191820190925281546001600160401b03169081905215613d825760405162461bcd60e51b815260206004820152602160248201527f476f7665726e6f723a2070726f706f73616c20616c72656164792065786973746044820152607360f81b6064820152608401610ded565b6000613d95613d9060045490565b614151565b613d9e43614151565b613da891906152c8565b90506000613db8613d9060055490565b613dc290836152c8565b835467ffffffffffffffff19166001600160401b038416178455905060018301805467ffffffffffffffff19166001600160401b0383161790557f7d84a6263ae0d98d3329bd7b46bb4e8d6f98cd35a7adb45c274c8b7fd5ebd5e084338b8b8d516001600160401b03811115613e3a57613e3a615413565b604051908082528060200260200182016040528015613e6d57816020015b6060815260200190600190039081613e585790505b508c88888e604051613e879998979695949392919061514c565b60405180910390a15091979650505050505050565b6000613eab60028484186152f3565b611b40908484166152b0565b606082471015613f185760405162461bcd60e51b815260206004820152602660248201527f416464726573733a20696e73756666696369656e742062616c616e636520666f6044820152651c8818d85b1b60d21b6064820152608401610ded565b6001600160a01b0385163b613f6f5760405162461bcd60e51b815260206004820152601d60248201527f416464726573733a2063616c6c20746f206e6f6e2d636f6e74726163740000006044820152606401610ded565b600080866001600160a01b03168587604051613f8b9190614eeb565b60006040518083038185875af1925050503d8060008114613fc8576040519150601f19603f3d011682016040523d82523d6000602084013e613fcd565b606091505b50915091506115378282866141b9565b60006001600160601b0382111561247c5760405162461bcd60e51b815260206004820152602660248201527f53616665436173743a2076616c756520646f65736e27742066697420696e203960448201526536206269747360d01b6064820152608401610ded565b60008061405486868686611d9e565b9050600061406182611542565b90506002816007811115614077576140776153e7565b1415801561409757506006816007811115614094576140946153e7565b14155b80156140b5575060078160078111156140b2576140b26153e7565b14155b6141015760405162461bcd60e51b815260206004820152601d60248201527f476f7665726e6f723a2070726f706f73616c206e6f74206163746976650000006044820152606401610ded565b60008281526001602052604090819020600201805461ff001916610100179055517f789cf55be980739dad1d0699b93b58e806b51c9d96619bfa8fe0a28abaa7b30c906110ec9084815260200190565b60006001600160401b0382111561247c5760405162461bcd60e51b815260206004820152602660248201527f53616665436173743a2076616c756520646f65736e27742066697420696e203660448201526534206269747360d01b6064820152608401610ded565b606083156141c8575081611b40565b8251156141d85782518084602001fd5b8160405162461bcd60e51b8152600401610ded9190615080565b828054828255906000526020600020908101928215614247579160200282015b8281111561424757825182546001600160a01b0319166001600160a01b03909116178255602090920191600190910190614212565b5061247c929150614340565b828054828255906000526020600020908101928215614247579160200282015b82811115614247578251825591602001919060010190614273565b8280548282559060005260206000209081019282156142db579160200282015b828111156142db57825180516142cb918491602090910190614355565b50916020019190600101906142ae565b5061247c9291506143c8565b828054828255906000526020600020908101928215614334579160200282015b828111156143345782518051614324918491602090910190614355565b5091602001919060010190614307565b5061247c9291506143e5565b5b8082111561247c5760008155600101614341565b8280546143619061537b565b90600052602060002090601f0160209004810192826143835760008555614247565b82601f1061439c57805160ff1916838001178555614247565b828001600101855582156142475791820182811115614247578251825591602001919060010190614273565b8082111561247c5760006143dc8282614402565b506001016143c8565b8082111561247c5760006143f98282614402565b506001016143e5565b50805461440e9061537b565b6000825580601f1061441e575050565b601f016020900490600052602060002090810190610e4a9190614340565b600082601f83011261444d57600080fd5b8135602061446261445d8361528d565b61525d565b80838252828201915082860187848660051b890101111561448257600080fd5b60005b858110156144aa57813561449881615429565b84529284019290840190600101614485565b5090979650505050505050565b600082601f8301126144c857600080fd5b813560206144d861445d8361528d565b80838252828201915082860187848660051b89010111156144f857600080fd5b6000805b8681101561453a5782356001600160401b03811115614519578283fd5b6145278b88838d010161466c565b86525093850193918501916001016144fc565b509198975050505050505050565b600082601f83011261455957600080fd5b8135602061456961445d8361528d565b80838252828201915082860187848660051b890101111561458957600080fd5b6000805b8681101561453a5782356001600160401b038111156145aa578283fd5b6145b88b88838d010161466c565b865250938501939185019160010161458d565b600082601f8301126145dc57600080fd5b813560206145ec61445d8361528d565b80838252828201915082860187848660051b890101111561460c57600080fd5b60005b858110156144aa5781358452928401929084019060010161460f565b60008083601f84011261463d57600080fd5b5081356001600160401b0381111561465457600080fd5b6020830191508360208285010111156125a457600080fd5b600082601f83011261467d57600080fd5b81356001600160401b0381111561469657614696615413565b6146a9601f8201601f191660200161525d565b8181528460208386010111156146be57600080fd5b816020850160208301376000918101602001919091529392505050565b803560ff811681146146ec57600080fd5b919050565b600080600080600060a0868803121561470957600080fd5b853561471481615429565b9450602086013561472481615429565b935060408601356001600160401b038082111561474057600080fd5b61474c89838a016145cb565b9450606088013591508082111561476257600080fd5b61476e89838a016145cb565b9350608088013591508082111561478457600080fd5b506147918882890161466c565b9150509295509295909350565b600080600080608085870312156147b457600080fd5b84356147bf81615429565b935060208501356147cf81615429565b92506040850135915060608501356001600160401b038111156147f157600080fd5b6147fd8782880161466c565b91505092959194509250565b600080600080600060a0868803121561482157600080fd5b853561482c81615429565b9450602086013561483c81615429565b9350604086013592506060860135915060808601356001600160401b0381111561486557600080fd5b6147918882890161466c565b6000806040838503121561488457600080fd5b823561488f81615429565b946020939093013593505050565b600080600080606085870312156148b357600080fd5b84356148be81615429565b93506020850135925060408501356001600160401b038111156148e057600080fd5b6148ec8782880161462b565b95989497509550505050565b60008060006060848603121561490d57600080fd5b833561491881615429565b92506020840135915060408401356001600160401b0381111561493a57600080fd5b6149468682870161466c565b9150509250925092565b6000806000806080858703121561496657600080fd5b84356001600160401b038082111561497d57600080fd5b6149898883890161443c565b9550602087013591508082111561499f57600080fd5b6149ab888389016145cb565b945060408701359150808211156149c157600080fd5b506149ce878288016144b7565b949793965093946060013593505050565b600080600080608085870312156149f557600080fd5b84356001600160401b0380821115614a0c57600080fd5b614a188883890161443c565b95506020870135915080821115614a2e57600080fd5b614a3a888389016145cb565b94506040870135915080821115614a5057600080fd5b614a5c888389016144b7565b93506060870135915080821115614a7257600080fd5b506147fd8782880161466c565b600080600080600060a08688031215614a9757600080fd5b85356001600160401b0380821115614aae57600080fd5b614aba89838a0161443c565b96506020880135915080821115614ad057600080fd5b614adc89838a016145cb565b95506040880135915080821115614af257600080fd5b614afe89838a01614548565b94506060880135915080821115614b1457600080fd5b61476e89838a016144b7565b600060208284031215614b3257600080fd5b81518015158114611b4057600080fd5b600060208284031215614b5457600080fd5b5051919050565b600060208284031215614b6d57600080fd5b81356001600160e01b031981168114611b4057600080fd5b600060208284031215614b9757600080fd5b8135611b4081615429565b600060208284031215614bb457600080fd5b5035919050565b60008060408385031215614bce57600080fd5b823591506020830135614be081615429565b809150509250929050565b60008060408385031215614bfe57600080fd5b82359150614c0e602084016146db565b90509250929050565b60008060008060608587031215614c2d57600080fd5b84359350614c3d602086016146db565b925060408501356001600160401b038111156148e057600080fd5b600080600080600060808688031215614c7057600080fd5b85359450614c80602087016146db565b935060408601356001600160401b0380821115614c9c57600080fd5b614ca889838a0161462b565b9095509350606088013591508082111561478457600080fd5b60008060008060008060008060e0898b031215614cdd57600080fd5b88359750614ced60208a016146db565b965060408901356001600160401b0380821115614d0957600080fd5b614d158c838d0161462b565b909850965060608b0135915080821115614d2e57600080fd5b50614d3b8b828c0161466c565b945050614d4a60808a016146db565b925060a0890135915060c089013590509295985092959890939650565b600080600080600060a08688031215614d7f57600080fd5b85359450614d8f602087016146db565b9350614d9d604087016146db565b94979396509394606081013594506080013592915050565b600081518084526020808501945080840160005b83811015614dee5781516001600160a01b031687529582019590820190600101614dc9565b509495945050505050565b600081518084526020808501808196508360051b8101915082860160005b85811015614e41578284038952614e2f848351614e7e565b98850198935090840190600101614e17565b5091979650505050505050565b600081518084526020808501945080840160005b83811015614dee57815187529582019590820190600101614e62565b60008151808452614e9681602086016020860161534b565b601f01601f19169290920160200192915050565b6001600160e01b0319831681528151600090614ecd81600485016020870161534b565b919091016004019392505050565b8183823760009101908152919050565b60008251614efd81846020870161534b565b9190910192915050565b608081526000614f1a6080830187614db5565b8281036020840152614f2c8187614e4e565b90508281036040840152614f408186614df9565b91505082606083015295945050505050565b60a081526000614f6560a0830188614db5565b8281036020840152614f778188614e4e565b90508281036040840152614f8b8187614df9565b60608401959095525050608001529392505050565b60c081526000614fb360c0830189614db5565b8281036020840152614fc58189614e4e565b90508281036040840152614fd98188614df9565b60608401969096525050608081019290925260a0909101529392505050565b60808152600061500b6080830187614db5565b828103602084015261501d8187614e4e565b905082810360408401526150318186614df9565b905082810360608401526115378185614df9565b602081526000611b406020830184614e4e565b602081016008831061507a57634e487b7160e01b600052602160045260246000fd5b91905290565b602081526000611b406020830184614e7e565b60208082526018908201527f476f7665726e6f723a206f6e6c79476f7665726e616e63650000000000000000604082015260600190565b60208082526021908201527f476f7665726e6f723a20696e76616c69642070726f706f73616c206c656e67746040820152600d60fb1b606082015260800190565b60208082526021908201527f476f7665726e6f723a2070726f706f73616c206e6f74207375636365737366756040820152601b60fa1b606082015260800190565b8981526001600160a01b0389166020820152610120604082018190526000906151778382018b614db5565b9050828103606084015261518b818a614e4e565b9050828103608084015261519f8189614df9565b905082810360a08401526151b38188614df9565b6001600160401b0387811660c0860152861660e085015283810361010085015290506151df8185614e7e565b9c9b505050505050505050505050565b84815260ff84166020820152826040820152608060608201526000611ae76080830184614e7e565b85815260ff8516602082015283604082015260a06060820152600061523f60a0830185614e7e565b82810360808401526152518185614e7e565b98975050505050505050565b604051601f8201601f191681016001600160401b038111828210171561528557615285615413565b604052919050565b60006001600160401b038211156152a6576152a6615413565b5060051b60200190565b600082198211156152c3576152c36153d1565b500190565b60006001600160401b038083168185168083038211156152ea576152ea6153d1565b01949350505050565b60008261531057634e487b7160e01b600052601260045260246000fd5b500490565b600081600019048311821515161561532f5761532f6153d1565b500290565b600082821015615346576153466153d1565b500390565b60005b8381101561536657818101518382015260200161534e565b83811115615375576000848401525b50505050565b600181811c9082168061538f57607f821691505b602082108114156153b057634e487b7160e01b600052602260045260246000fd5b50919050565b60006000198214156153ca576153ca6153d1565b5060010190565b634e487b7160e01b600052601160045260246000fd5b634e487b7160e01b600052602160045260246000fd5b634e487b7160e01b600052603260045260246000fd5b634e487b7160e01b600052604160045260246000fd5b6001600160a01b0381168114610e4a57600080fdfe416464726573733a206c6f772d6c6576656c2063616c6c20776974682076616c7565206661696c6564a2646970667358221220cff866f0392044fac11db5e8dc8dd06ef93156ff8dedcde71e27fcebae80e87c64736f6c63430008060033",
  "devdoc": {
    "errors": {
      "Empty()": [
        {
          "details": "An operation (e.g. {front}) couldn't be completed due to the queue being empty."
        }
      ]
    },
    "kind": "dev",
    "methods": {
      "COUNTING_MODE()": {
        "details": "A description of the possible `support` values for {castVote} and the way these votes are counted, meant to be consumed by UIs to show correct vote options and interpret the results. The string is a URL-encoded sequence of key-value pairs that each describe one aspect, for example `support=bravo&quorum=for,abstain`. There are 2 standard keys: `support` and `quorum`. - `support=bravo` refers to the vote options 0 = Against, 1 = For, 2 = Abstain, as in `GovernorBravo`. - `quorum=bravo` means that only For votes are counted towards quorum. - `quorum=for,abstain` means that both For and Abstain votes are counted towards quorum. If a counting module makes use of encoded `params`, it should  include this under a `params` key with a unique name that describes the behavior. For example: - `params=fractional` might refer to a scheme where votes are divided fractionally between for/against/abstain. - `params=erc721` might refer to a scheme where specific NFTs are delegated to vote. NOTE: The string can be decoded by the standard https://developer.mozilla.org/en-US/docs/Web/API/URLSearchParams[`URLSearchParams`] JavaScript class."
      },
      "cancel(uint256)": {
        "details": "Cancels a proposal only if sender is the proposer, or proposer delegates dropped below proposal threshold."
      },
      "castVote(uint256,uint8)": {
        "details": "See {IGovernor-castVote}."
      },
      "castVoteBySig(uint256,uint8,uint8,bytes32,bytes32)": {
        "details": "See {IGovernor-castVoteBySig}."
      },
      "castVoteWithReason(uint256,uint8,string)": {
        "details": "See {IGovernor-castVoteWithReason}."
      },
      "castVoteWithReasonAndParams(uint256,uint8,string,bytes)": {
        "details": "See {IGovernor-castVoteWithReasonAndParams}."
      },
      "castVoteWithReasonAndParamsBySig(uint256,uint8,string,bytes,uint8,bytes32,bytes32)": {
        "details": "See {IGovernor-castVoteWithReasonAndParamsBySig}."
      },
      "execute(address[],uint256[],bytes[],bytes32)": {
        "details": "See {IGovernor-execute}."
      },
      "execute(uint256)": {
        "details": "See {IGovernorCompatibilityBravo-execute}."
      },
      "getActions(uint256)": {
        "details": "See {IGovernorCompatibilityBravo-getActions}."
      },
      "getReceipt(uint256,address)": {
        "details": "See {IGovernorCompatibilityBravo-getReceipt}."
      },
      "getVotesWithParams(address,uint256,bytes)": {
        "details": "See {IGovernor-getVotesWithParams}."
      },
      "hasVoted(uint256,address)": {
        "details": "See {IGovernor-hasVoted}."
      },
      "hashProposal(address[],uint256[],bytes[],bytes32)": {
        "details": "See {IGovernor-hashProposal}. The proposal id is produced by hashing the ABI encoded `targets` array, the `values` array, the `calldatas` array and the descriptionHash (bytes32 which itself is the keccak256 hash of the description string). This proposal id can be produced from the proposal data which is part of the {ProposalCreated} event. It can even be computed in advance, before the proposal is submitted. Note that the chainId and the governor address are not part of the proposal id computation. Consequently, the same proposal (with same operation and same description) will have the same id if submitted on multiple governors across multiple networks. This also means that in order to execute the same operation twice (on the same governor) the proposer will have to change the description in order to avoid proposal id conflicts."
      },
      "name()": {
        "details": "See {IGovernor-name}."
      },
      "onERC1155BatchReceived(address,address,uint256[],uint256[],bytes)": {
        "details": "See {IERC1155Receiver-onERC1155BatchReceived}."
      },
      "onERC1155Received(address,address,uint256,uint256,bytes)": {
        "details": "See {IERC1155Receiver-onERC1155Received}."
      },
      "onERC721Received(address,address,uint256,bytes)": {
        "details": "See {IERC721Receiver-onERC721Received}."
      },
      "proposalDeadline(uint256)": {
        "details": "See {IGovernor-proposalDeadline}."
      },
      "proposalEta(uint256)": {
        "details": "Public accessor to check the eta of a queued proposal"
      },
      "proposalSnapshot(uint256)": {
        "details": "See {IGovernor-proposalSnapshot}."
      },
      "proposals(uint256)": {
        "details": "See {IGovernorCompatibilityBravo-proposals}."
      },
      "propose(address[],uint256[],string[],bytes[],string)": {
        "details": "See {IGovernorCompatibilityBravo-propose}."
      },
      "queue(address[],uint256[],bytes[],bytes32)": {
        "details": "Function to queue a proposal to the timelock."
      },
      "queue(uint256)": {
        "details": "See {IGovernorCompatibilityBravo-queue}."
      },
      "quorumDenominator()": {
        "details": "Returns the quorum denominator. Defaults to 100, but may be overridden."
      },
      "quorumNumerator()": {
        "details": "Returns the current quorum numerator. See {quorumDenominator}."
      },
      "quorumNumerator(uint256)": {
        "details": "Returns the quorum numerator at a specific block number. See {quorumDenominator}."
      },
      "quorumVotes()": {
        "details": "See {IGovernorCompatibilityBravo-quorumVotes}."
      },
      "relay(address,uint256,bytes)": {
        "details": "Relays a transaction or function call to an arbitrary target. In cases where the governance executor is some contract other than the governor itself, like when using a timelock, this function can be invoked in a governance proposal to recover tokens or Ether that was sent to the governor contract by mistake. Note that if the executor is simply the governor itself, use of `relay` is redundant."
      },
      "setProposalThreshold(uint256)": {
        "details": "Update the proposal threshold. This operation can only be performed through a governance proposal. Emits a {ProposalThresholdSet} event."
      },
      "setVotingDelay(uint256)": {
        "details": "Update the voting delay. This operation can only be performed through a governance proposal. Emits a {VotingDelaySet} event."
      },
      "setVotingPeriod(uint256)": {
        "details": "Update the voting period. This operation can only be performed through a governance proposal. Emits a {VotingPeriodSet} event."
      },
      "timelock()": {
        "details": "Public accessor to check the address of the timelock"
      },
      "updateQuorumNumerator(uint256)": {
        "details": "Changes the quorum numerator. Emits a {QuorumNumeratorUpdated} event. Requirements: - Must be called through a governance proposal. - New numerator must be smaller or equal to the denominator."
      },
      "updateTimelock(address)": {
        "details": "Public endpoint to update the underlying timelock instance. Restricted to the timelock itself, so updates must be proposed, scheduled, and executed through governance proposals. CAUTION: It is not recommended to change the timelock while there are other queued governance proposals."
      },
      "version()": {
        "details": "See {IGovernor-version}."
      },
      "votingDelay()": {
        "details": "See {IGovernor-votingDelay}."
      },
      "votingPeriod()": {
        "details": "See {IGovernor-votingPeriod}."
      }
    },
    "version": 1
  },
  "userdoc": {
    "kind": "user",
    "methods": {
      "COUNTING_MODE()": {
        "notice": "module:voting"
      }
    },
    "version": 1
  },
  "storageLayout": {
    "storage": [
      {
        "astId": 452,
        "contract": "contracts/OvnGovernor.sol:OvnGovernor",
        "label": "_name",
        "offset": 0,
        "slot": "0",
        "type": "t_string_storage"
      },
      {
        "astId": 457,
        "contract": "contracts/OvnGovernor.sol:OvnGovernor",
        "label": "_proposals",
        "offset": 0,
        "slot": "1",
        "type": "t_mapping(t_uint256,t_struct(ProposalCore)450_storage)"
      },
      {
        "astId": 460,
        "contract": "contracts/OvnGovernor.sol:OvnGovernor",
        "label": "_governanceCall",
        "offset": 0,
        "slot": "2",
        "type": "t_struct(Bytes32Deque)10524_storage"
      },
      {
        "astId": 3833,
        "contract": "contracts/OvnGovernor.sol:OvnGovernor",
        "label": "_votingDelay",
        "offset": 0,
        "slot": "4",
        "type": "t_uint256"
      },
      {
        "astId": 3835,
        "contract": "contracts/OvnGovernor.sol:OvnGovernor",
        "label": "_votingPeriod",
        "offset": 0,
        "slot": "5",
        "type": "t_uint256"
      },
      {
        "astId": 3837,
        "contract": "contracts/OvnGovernor.sol:OvnGovernor",
        "label": "_proposalThreshold",
        "offset": 0,
        "slot": "6",
        "type": "t_uint256"
      },
      {
        "astId": 2950,
        "contract": "contracts/OvnGovernor.sol:OvnGovernor",
        "label": "_proposalDetails",
        "offset": 0,
        "slot": "7",
        "type": "t_mapping(t_uint256,t_struct(ProposalDetails)2945_storage)"
      },
      {
        "astId": 4436,
        "contract": "contracts/OvnGovernor.sol:OvnGovernor",
        "label": "_quorumNumerator",
        "offset": 0,
        "slot": "8",
        "type": "t_uint256"
      },
      {
        "astId": 4439,
        "contract": "contracts/OvnGovernor.sol:OvnGovernor",
        "label": "_quorumNumeratorHistory",
        "offset": 0,
        "slot": "9",
        "type": "t_struct(History)6798_storage"
      },
      {
        "astId": 4016,
        "contract": "contracts/OvnGovernor.sol:OvnGovernor",
        "label": "_timelock",
        "offset": 0,
        "slot": "10",
        "type": "t_contract(TimelockController)2891"
      },
      {
        "astId": 4020,
        "contract": "contracts/OvnGovernor.sol:OvnGovernor",
        "label": "_timelockIds",
        "offset": 0,
        "slot": "11",
        "type": "t_mapping(t_uint256,t_bytes32)"
      },
      {
        "astId": 10897,
        "contract": "contracts/OvnGovernor.sol:OvnGovernor",
        "label": "_proposalsIds",
        "offset": 0,
        "slot": "12",
        "type": "t_array(t_uint256)dyn_storage"
      }
    ],
    "types": {
      "t_address": {
        "encoding": "inplace",
        "label": "address",
        "numberOfBytes": "20"
      },
      "t_array(t_address)dyn_storage": {
        "base": "t_address",
        "encoding": "dynamic_array",
        "label": "address[]",
        "numberOfBytes": "32"
      },
      "t_array(t_bytes_storage)dyn_storage": {
        "base": "t_bytes_storage",
        "encoding": "dynamic_array",
        "label": "bytes[]",
        "numberOfBytes": "32"
      },
      "t_array(t_string_storage)dyn_storage": {
        "base": "t_string_storage",
        "encoding": "dynamic_array",
        "label": "string[]",
        "numberOfBytes": "32"
      },
      "t_array(t_struct(Checkpoint)6793_storage)dyn_storage": {
        "base": "t_struct(Checkpoint)6793_storage",
        "encoding": "dynamic_array",
        "label": "struct Checkpoints.Checkpoint[]",
        "numberOfBytes": "32"
      },
      "t_array(t_uint256)dyn_storage": {
        "base": "t_uint256",
        "encoding": "dynamic_array",
        "label": "uint256[]",
        "numberOfBytes": "32"
      },
      "t_bool": {
        "encoding": "inplace",
        "label": "bool",
        "numberOfBytes": "1"
      },
      "t_bytes32": {
        "encoding": "inplace",
        "label": "bytes32",
        "numberOfBytes": "32"
      },
      "t_bytes_storage": {
        "encoding": "bytes",
        "label": "bytes",
        "numberOfBytes": "32"
      },
      "t_contract(TimelockController)2891": {
        "encoding": "inplace",
        "label": "contract TimelockController",
        "numberOfBytes": "20"
      },
      "t_int128": {
        "encoding": "inplace",
        "label": "int128",
        "numberOfBytes": "16"
      },
      "t_mapping(t_address,t_struct(Receipt)3725_storage)": {
        "encoding": "mapping",
        "key": "t_address",
        "label": "mapping(address => struct IGovernorCompatibilityBravo.Receipt)",
        "numberOfBytes": "32",
        "value": "t_struct(Receipt)3725_storage"
      },
      "t_mapping(t_int128,t_bytes32)": {
        "encoding": "mapping",
        "key": "t_int128",
        "label": "mapping(int128 => bytes32)",
        "numberOfBytes": "32",
        "value": "t_bytes32"
      },
      "t_mapping(t_uint256,t_bytes32)": {
        "encoding": "mapping",
        "key": "t_uint256",
        "label": "mapping(uint256 => bytes32)",
        "numberOfBytes": "32",
        "value": "t_bytes32"
      },
      "t_mapping(t_uint256,t_struct(ProposalCore)450_storage)": {
        "encoding": "mapping",
        "key": "t_uint256",
        "label": "mapping(uint256 => struct Governor.ProposalCore)",
        "numberOfBytes": "32",
        "value": "t_struct(ProposalCore)450_storage"
      },
      "t_mapping(t_uint256,t_struct(ProposalDetails)2945_storage)": {
        "encoding": "mapping",
        "key": "t_uint256",
        "label": "mapping(uint256 => struct GovernorCompatibilityBravo.ProposalDetails)",
        "numberOfBytes": "32",
        "value": "t_struct(ProposalDetails)2945_storage"
      },
      "t_string_storage": {
        "encoding": "bytes",
        "label": "string",
        "numberOfBytes": "32"
      },
      "t_struct(BlockNumber)7450_storage": {
        "encoding": "inplace",
        "label": "struct Timers.BlockNumber",
        "members": [
          {
            "astId": 7449,
            "contract": "contracts/OvnGovernor.sol:OvnGovernor",
            "label": "_deadline",
            "offset": 0,
            "slot": "0",
            "type": "t_uint64"
          }
        ],
        "numberOfBytes": "32"
      },
      "t_struct(Bytes32Deque)10524_storage": {
        "encoding": "inplace",
        "label": "struct DoubleEndedQueue.Bytes32Deque",
        "members": [
          {
            "astId": 10517,
            "contract": "contracts/OvnGovernor.sol:OvnGovernor",
            "label": "_begin",
            "offset": 0,
            "slot": "0",
            "type": "t_int128"
          },
          {
            "astId": 10519,
            "contract": "contracts/OvnGovernor.sol:OvnGovernor",
            "label": "_end",
            "offset": 16,
            "slot": "0",
            "type": "t_int128"
          },
          {
            "astId": 10523,
            "contract": "contracts/OvnGovernor.sol:OvnGovernor",
            "label": "_data",
            "offset": 0,
            "slot": "1",
            "type": "t_mapping(t_int128,t_bytes32)"
          }
        ],
        "numberOfBytes": "64"
      },
      "t_struct(Checkpoint)6793_storage": {
        "encoding": "inplace",
        "label": "struct Checkpoints.Checkpoint",
        "members": [
          {
            "astId": 6790,
            "contract": "contracts/OvnGovernor.sol:OvnGovernor",
            "label": "_blockNumber",
            "offset": 0,
            "slot": "0",
            "type": "t_uint32"
          },
          {
            "astId": 6792,
            "contract": "contracts/OvnGovernor.sol:OvnGovernor",
            "label": "_value",
            "offset": 4,
            "slot": "0",
            "type": "t_uint224"
          }
        ],
        "numberOfBytes": "32"
      },
      "t_struct(History)6798_storage": {
        "encoding": "inplace",
        "label": "struct Checkpoints.History",
        "members": [
          {
            "astId": 6797,
            "contract": "contracts/OvnGovernor.sol:OvnGovernor",
            "label": "_checkpoints",
            "offset": 0,
            "slot": "0",
            "type": "t_array(t_struct(Checkpoint)6793_storage)dyn_storage"
          }
        ],
        "numberOfBytes": "32"
      },
      "t_struct(ProposalCore)450_storage": {
        "encoding": "inplace",
        "label": "struct Governor.ProposalCore",
        "members": [
          {
            "astId": 442,
            "contract": "contracts/OvnGovernor.sol:OvnGovernor",
            "label": "voteStart",
            "offset": 0,
            "slot": "0",
            "type": "t_struct(BlockNumber)7450_storage"
          },
          {
            "astId": 445,
            "contract": "contracts/OvnGovernor.sol:OvnGovernor",
            "label": "voteEnd",
            "offset": 0,
            "slot": "1",
            "type": "t_struct(BlockNumber)7450_storage"
          },
          {
            "astId": 447,
            "contract": "contracts/OvnGovernor.sol:OvnGovernor",
            "label": "executed",
            "offset": 0,
            "slot": "2",
            "type": "t_bool"
          },
          {
            "astId": 449,
            "contract": "contracts/OvnGovernor.sol:OvnGovernor",
            "label": "canceled",
            "offset": 1,
            "slot": "2",
            "type": "t_bool"
          }
        ],
        "numberOfBytes": "96"
      },
      "t_struct(ProposalDetails)2945_storage": {
        "encoding": "inplace",
        "label": "struct GovernorCompatibilityBravo.ProposalDetails",
        "members": [
          {
            "astId": 2919,
            "contract": "contracts/OvnGovernor.sol:OvnGovernor",
            "label": "proposer",
            "offset": 0,
            "slot": "0",
            "type": "t_address"
          },
          {
            "astId": 2922,
            "contract": "contracts/OvnGovernor.sol:OvnGovernor",
            "label": "targets",
            "offset": 0,
            "slot": "1",
            "type": "t_array(t_address)dyn_storage"
          },
          {
            "astId": 2925,
            "contract": "contracts/OvnGovernor.sol:OvnGovernor",
            "label": "values",
            "offset": 0,
            "slot": "2",
            "type": "t_array(t_uint256)dyn_storage"
          },
          {
            "astId": 2928,
            "contract": "contracts/OvnGovernor.sol:OvnGovernor",
            "label": "signatures",
            "offset": 0,
            "slot": "3",
            "type": "t_array(t_string_storage)dyn_storage"
          },
          {
            "astId": 2931,
            "contract": "contracts/OvnGovernor.sol:OvnGovernor",
            "label": "calldatas",
            "offset": 0,
            "slot": "4",
            "type": "t_array(t_bytes_storage)dyn_storage"
          },
          {
            "astId": 2933,
            "contract": "contracts/OvnGovernor.sol:OvnGovernor",
            "label": "forVotes",
            "offset": 0,
            "slot": "5",
            "type": "t_uint256"
          },
          {
            "astId": 2935,
            "contract": "contracts/OvnGovernor.sol:OvnGovernor",
            "label": "againstVotes",
            "offset": 0,
            "slot": "6",
            "type": "t_uint256"
          },
          {
            "astId": 2937,
            "contract": "contracts/OvnGovernor.sol:OvnGovernor",
            "label": "abstainVotes",
            "offset": 0,
            "slot": "7",
            "type": "t_uint256"
          },
          {
            "astId": 2942,
            "contract": "contracts/OvnGovernor.sol:OvnGovernor",
            "label": "receipts",
            "offset": 0,
            "slot": "8",
            "type": "t_mapping(t_address,t_struct(Receipt)3725_storage)"
          },
          {
            "astId": 2944,
            "contract": "contracts/OvnGovernor.sol:OvnGovernor",
            "label": "descriptionHash",
            "offset": 0,
            "slot": "9",
            "type": "t_bytes32"
          }
        ],
        "numberOfBytes": "320"
      },
      "t_struct(Receipt)3725_storage": {
        "encoding": "inplace",
        "label": "struct IGovernorCompatibilityBravo.Receipt",
        "members": [
          {
            "astId": 3720,
            "contract": "contracts/OvnGovernor.sol:OvnGovernor",
            "label": "hasVoted",
            "offset": 0,
            "slot": "0",
            "type": "t_bool"
          },
          {
            "astId": 3722,
            "contract": "contracts/OvnGovernor.sol:OvnGovernor",
            "label": "support",
            "offset": 1,
            "slot": "0",
            "type": "t_uint8"
          },
          {
            "astId": 3724,
            "contract": "contracts/OvnGovernor.sol:OvnGovernor",
            "label": "votes",
            "offset": 2,
            "slot": "0",
            "type": "t_uint96"
          }
        ],
        "numberOfBytes": "32"
      },
      "t_uint224": {
        "encoding": "inplace",
        "label": "uint224",
        "numberOfBytes": "28"
      },
      "t_uint256": {
        "encoding": "inplace",
        "label": "uint256",
        "numberOfBytes": "32"
      },
      "t_uint32": {
        "encoding": "inplace",
        "label": "uint32",
        "numberOfBytes": "4"
      },
      "t_uint64": {
        "encoding": "inplace",
        "label": "uint64",
        "numberOfBytes": "8"
      },
      "t_uint8": {
        "encoding": "inplace",
        "label": "uint8",
        "numberOfBytes": "1"
      },
      "t_uint96": {
        "encoding": "inplace",
        "label": "uint96",
        "numberOfBytes": "12"
      }
    }
  }
}