{
  "address": "0x970D50d09F3a656b43E11B0D45241a84e3a6e011",
  "abi": [
    {
      "inputs": [],
      "stateMutability": "nonpayable",
      "type": "constructor"
    },
    {
      "anonymous": false,
      "inputs": [
        {
          "indexed": false,
          "internalType": "address",
          "name": "previousAdmin",
          "type": "address"
        },
        {
          "indexed": false,
          "internalType": "address",
          "name": "newAdmin",
          "type": "address"
        }
      ],
      "name": "AdminChanged",
      "type": "event"
    },
    {
      "anonymous": false,
      "inputs": [
        {
          "indexed": true,
          "internalType": "address",
          "name": "beacon",
          "type": "address"
        }
      ],
      "name": "BeaconUpgraded",
      "type": "event"
    },
    {
      "anonymous": false,
      "inputs": [
        {
          "indexed": false,
          "internalType": "uint8",
          "name": "version",
          "type": "uint8"
        }
      ],
      "name": "Initialized",
      "type": "event"
    },
    {
      "anonymous": false,
      "inputs": [
        {
          "indexed": false,
          "internalType": "address",
          "name": "value",
          "type": "address"
        }
      ],
      "name": "PortfolioManagerUpdated",
      "type": "event"
    },
    {
      "anonymous": false,
      "inputs": [
        {
          "indexed": false,
          "internalType": "uint256",
          "name": "amount",
          "type": "uint256"
        }
      ],
      "name": "Reward",
      "type": "event"
    },
    {
      "anonymous": false,
      "inputs": [
        {
          "indexed": true,
          "internalType": "bytes32",
          "name": "role",
          "type": "bytes32"
        },
        {
          "indexed": true,
          "internalType": "bytes32",
          "name": "previousAdminRole",
          "type": "bytes32"
        },
        {
          "indexed": true,
          "internalType": "bytes32",
          "name": "newAdminRole",
          "type": "bytes32"
        }
      ],
      "name": "RoleAdminChanged",
      "type": "event"
    },
    {
      "anonymous": false,
      "inputs": [
        {
          "indexed": true,
          "internalType": "bytes32",
          "name": "role",
          "type": "bytes32"
        },
        {
          "indexed": true,
          "internalType": "address",
          "name": "account",
          "type": "address"
        },
        {
          "indexed": true,
          "internalType": "address",
          "name": "sender",
          "type": "address"
        }
      ],
      "name": "RoleGranted",
      "type": "event"
    },
    {
      "anonymous": false,
      "inputs": [
        {
          "indexed": true,
          "internalType": "bytes32",
          "name": "role",
          "type": "bytes32"
        },
        {
          "indexed": true,
          "internalType": "address",
          "name": "account",
          "type": "address"
        },
        {
          "indexed": true,
          "internalType": "address",
          "name": "sender",
          "type": "address"
        }
      ],
      "name": "RoleRevoked",
      "type": "event"
    },
    {
      "anonymous": false,
      "inputs": [
        {
          "indexed": false,
          "internalType": "uint256",
          "name": "swapSlippageBP",
          "type": "uint256"
        },
        {
          "indexed": false,
          "internalType": "uint256",
          "name": "navSlippageBP",
          "type": "uint256"
        },
        {
          "indexed": false,
          "internalType": "uint256",
          "name": "stakeSlippageBP",
          "type": "uint256"
        }
      ],
      "name": "SlippagesUpdated",
      "type": "event"
    },
    {
      "anonymous": false,
      "inputs": [
        {
          "indexed": false,
          "internalType": "uint256",
          "name": "amount",
          "type": "uint256"
        }
      ],
      "name": "Stake",
      "type": "event"
    },
    {
      "anonymous": false,
      "inputs": [],
      "name": "StrategyUpdatedParams",
      "type": "event"
    },
    {
      "anonymous": false,
      "inputs": [
        {
          "indexed": false,
          "internalType": "uint256",
          "name": "amount",
          "type": "uint256"
        },
        {
          "indexed": false,
          "internalType": "uint256",
          "name": "amountReceived",
          "type": "uint256"
        }
      ],
      "name": "Unstake",
      "type": "event"
    },
    {
      "anonymous": false,
      "inputs": [
        {
          "indexed": true,
          "internalType": "address",
          "name": "implementation",
          "type": "address"
        }
      ],
      "name": "Upgraded",
      "type": "event"
    },
    {
      "inputs": [],
      "name": "DEFAULT_ADMIN_ROLE",
      "outputs": [
        {
          "internalType": "bytes32",
          "name": "",
          "type": "bytes32"
        }
      ],
      "stateMutability": "view",
      "type": "function"
    },
    {
      "inputs": [],
      "name": "PORTFOLIO_AGENT_ROLE",
      "outputs": [
        {
          "internalType": "bytes32",
          "name": "",
          "type": "bytes32"
        }
      ],
      "stateMutability": "view",
      "type": "function"
    },
    {
      "inputs": [],
      "name": "PORTFOLIO_MANAGER",
      "outputs": [
        {
          "internalType": "bytes32",
          "name": "",
          "type": "bytes32"
        }
      ],
      "stateMutability": "view",
      "type": "function"
    },
    {
      "inputs": [],
      "name": "busd",
      "outputs": [
        {
          "internalType": "contract IERC20",
          "name": "",
          "type": "address"
        }
      ],
      "stateMutability": "view",
      "type": "function"
    },
    {
      "inputs": [
        {
          "internalType": "address",
          "name": "_to",
          "type": "address"
        }
      ],
      "name": "claimRewards",
      "outputs": [
        {
          "internalType": "uint256",
          "name": "",
          "type": "uint256"
        }
      ],
      "stateMutability": "nonpayable",
      "type": "function"
    },
    {
      "inputs": [],
      "name": "ddd",
      "outputs": [
        {
          "internalType": "contract IERC20",
          "name": "",
          "type": "address"
        }
      ],
      "stateMutability": "view",
      "type": "function"
    },
    {
      "inputs": [],
      "name": "dm18",
      "outputs": [
        {
          "internalType": "uint256",
          "name": "",
          "type": "uint256"
        }
      ],
      "stateMutability": "view",
      "type": "function"
    },
    {
      "inputs": [],
      "name": "epx",
      "outputs": [
        {
          "internalType": "contract IERC20",
          "name": "",
          "type": "address"
        }
      ],
      "stateMutability": "view",
      "type": "function"
    },
    {
      "inputs": [
        {
          "internalType": "bytes32",
          "name": "role",
          "type": "bytes32"
        }
      ],
      "name": "getRoleAdmin",
      "outputs": [
        {
          "internalType": "bytes32",
          "name": "",
          "type": "bytes32"
        }
      ],
      "stateMutability": "view",
      "type": "function"
    },
    {
      "inputs": [
        {
          "internalType": "bytes32",
          "name": "role",
          "type": "bytes32"
        },
        {
          "internalType": "address",
          "name": "account",
          "type": "address"
        }
      ],
      "name": "grantRole",
      "outputs": [],
      "stateMutability": "nonpayable",
      "type": "function"
    },
    {
      "inputs": [
        {
          "internalType": "bytes32",
          "name": "role",
          "type": "bytes32"
        },
        {
          "internalType": "address",
          "name": "account",
          "type": "address"
        }
      ],
      "name": "hasRole",
      "outputs": [
        {
          "internalType": "bool",
          "name": "",
          "type": "bool"
        }
      ],
      "stateMutability": "view",
      "type": "function"
    },
    {
      "inputs": [
        {
          "internalType": "uint256",
          "name": "_swapSlippageBP",
          "type": "uint256"
        },
        {
          "internalType": "uint256",
          "name": "_navSlippageBP",
          "type": "uint256"
        },
        {
          "internalType": "uint256",
          "name": "_stakeSlippageBP",
          "type": "uint256"
        }
      ],
      "name": "initSlippages",
      "outputs": [],
      "stateMutability": "nonpayable",
      "type": "function"
    },
    {
      "inputs": [],
      "name": "initialize",
      "outputs": [],
      "stateMutability": "nonpayable",
      "type": "function"
    },
    {
      "inputs": [],
      "name": "liquidationValue",
      "outputs": [
        {
          "internalType": "uint256",
          "name": "",
          "type": "uint256"
        }
      ],
      "stateMutability": "view",
      "type": "function"
    },
    {
      "inputs": [],
      "name": "lpDepositor",
      "outputs": [
        {
          "internalType": "contract ILpDepositor",
          "name": "",
          "type": "address"
        }
      ],
      "stateMutability": "view",
      "type": "function"
    },
    {
      "inputs": [],
      "name": "navSlippageBP",
      "outputs": [
        {
          "internalType": "uint256",
          "name": "",
          "type": "uint256"
        }
      ],
      "stateMutability": "view",
      "type": "function"
    },
    {
      "inputs": [],
      "name": "netAssetValue",
      "outputs": [
        {
          "internalType": "uint256",
          "name": "",
          "type": "uint256"
        }
      ],
      "stateMutability": "view",
      "type": "function"
    },
    {
      "inputs": [],
      "name": "oracleBusd",
      "outputs": [
        {
          "internalType": "contract IPriceFeed",
          "name": "",
          "type": "address"
        }
      ],
      "stateMutability": "view",
      "type": "function"
    },
    {
      "inputs": [],
      "name": "oracleUsdc",
      "outputs": [
        {
          "internalType": "contract IPriceFeed",
          "name": "",
          "type": "address"
        }
      ],
      "stateMutability": "view",
      "type": "function"
    },
    {
      "inputs": [],
      "name": "oracleUsdt",
      "outputs": [
        {
          "internalType": "contract IPriceFeed",
          "name": "",
          "type": "address"
        }
      ],
      "stateMutability": "view",
      "type": "function"
    },
    {
      "inputs": [],
      "name": "pancakeRouter",
      "outputs": [
        {
          "internalType": "contract IPancakeRouter02",
          "name": "",
          "type": "address"
        }
      ],
      "stateMutability": "view",
      "type": "function"
    },
    {
      "inputs": [],
      "name": "pool",
      "outputs": [
        {
          "internalType": "contract IEllipsisPool",
          "name": "",
          "type": "address"
        }
      ],
      "stateMutability": "view",
      "type": "function"
    },
    {
      "inputs": [],
      "name": "portfolioManager",
      "outputs": [
        {
          "internalType": "address",
          "name": "",
          "type": "address"
        }
      ],
      "stateMutability": "view",
      "type": "function"
    },
    {
      "inputs": [],
      "name": "proxiableUUID",
      "outputs": [
        {
          "internalType": "bytes32",
          "name": "",
          "type": "bytes32"
        }
      ],
      "stateMutability": "view",
      "type": "function"
    },
    {
      "inputs": [
        {
          "internalType": "bytes32",
          "name": "role",
          "type": "bytes32"
        },
        {
          "internalType": "address",
          "name": "account",
          "type": "address"
        }
      ],
      "name": "renounceRole",
      "outputs": [],
      "stateMutability": "nonpayable",
      "type": "function"
    },
    {
      "inputs": [
        {
          "internalType": "bytes32",
          "name": "role",
          "type": "bytes32"
        },
        {
          "internalType": "address",
          "name": "account",
          "type": "address"
        }
      ],
      "name": "revokeRole",
      "outputs": [],
      "stateMutability": "nonpayable",
      "type": "function"
    },
    {
      "inputs": [
        {
          "components": [
            {
              "internalType": "address",
              "name": "busd",
              "type": "address"
            },
            {
              "internalType": "address",
              "name": "usdc",
              "type": "address"
            },
            {
              "internalType": "address",
              "name": "usdt",
              "type": "address"
            },
            {
              "internalType": "address",
              "name": "wBnb",
              "type": "address"
            },
            {
              "internalType": "address",
              "name": "ddd",
              "type": "address"
            },
            {
              "internalType": "address",
              "name": "epx",
              "type": "address"
            },
            {
              "internalType": "address",
              "name": "valas",
              "type": "address"
            },
            {
              "internalType": "address",
              "name": "val3EPS",
              "type": "address"
            },
            {
              "internalType": "address",
              "name": "pool",
              "type": "address"
            },
            {
              "internalType": "address",
              "name": "lpDepositor",
              "type": "address"
            },
            {
              "internalType": "address",
              "name": "pancakeRouter",
              "type": "address"
            },
            {
              "internalType": "address",
              "name": "wombatRouter",
              "type": "address"
            },
            {
              "internalType": "address",
              "name": "wombatPool",
              "type": "address"
            },
            {
              "internalType": "address",
              "name": "oracleBusd",
              "type": "address"
            },
            {
              "internalType": "address",
              "name": "oracleUsdc",
              "type": "address"
            },
            {
              "internalType": "address",
              "name": "oracleUsdt",
              "type": "address"
            }
          ],
          "internalType": "struct StrategyEllipsisDotDotBusd.StrategyParams",
          "name": "params",
          "type": "tuple"
        }
      ],
      "name": "setParams",
      "outputs": [],
      "stateMutability": "nonpayable",
      "type": "function"
    },
    {
      "inputs": [
        {
          "internalType": "address",
          "name": "_value",
          "type": "address"
        }
      ],
      "name": "setPortfolioManager",
      "outputs": [],
      "stateMutability": "nonpayable",
      "type": "function"
    },
    {
      "inputs": [
        {
          "internalType": "uint256",
          "name": "_swapSlippageBP",
          "type": "uint256"
        },
        {
          "internalType": "uint256",
          "name": "_navSlippageBP",
          "type": "uint256"
        },
        {
          "internalType": "uint256",
          "name": "_stakeSlippageBP",
          "type": "uint256"
        }
      ],
      "name": "setSlippages",
      "outputs": [],
      "stateMutability": "nonpayable",
      "type": "function"
    },
    {
      "inputs": [
        {
          "internalType": "address",
          "name": "_asset",
          "type": "address"
        },
        {
          "internalType": "uint256",
          "name": "_amount",
          "type": "uint256"
        }
      ],
      "name": "stake",
      "outputs": [],
      "stateMutability": "nonpayable",
      "type": "function"
    },
    {
      "inputs": [],
      "name": "stakeSlippageBP",
      "outputs": [
        {
          "internalType": "uint256",
          "name": "",
          "type": "uint256"
        }
      ],
      "stateMutability": "view",
      "type": "function"
    },
    {
      "inputs": [
        {
          "internalType": "bytes4",
          "name": "interfaceId",
          "type": "bytes4"
        }
      ],
      "name": "supportsInterface",
      "outputs": [
        {
          "internalType": "bool",
          "name": "",
          "type": "bool"
        }
      ],
      "stateMutability": "view",
      "type": "function"
    },
    {
      "inputs": [],
      "name": "swapSlippageBP",
      "outputs": [
        {
          "internalType": "uint256",
          "name": "",
          "type": "uint256"
        }
      ],
      "stateMutability": "view",
      "type": "function"
    },
    {
      "inputs": [
        {
          "internalType": "address",
          "name": "_asset",
          "type": "address"
        },
        {
          "internalType": "uint256",
          "name": "_amount",
          "type": "uint256"
        },
        {
          "internalType": "address",
          "name": "_beneficiary",
          "type": "address"
        },
        {
          "internalType": "bool",
          "name": "_targetIsZero",
          "type": "bool"
        }
      ],
      "name": "unstake",
      "outputs": [
        {
          "internalType": "uint256",
          "name": "",
          "type": "uint256"
        }
      ],
      "stateMutability": "nonpayable",
      "type": "function"
    },
    {
      "inputs": [
        {
          "internalType": "address",
          "name": "newImplementation",
          "type": "address"
        }
      ],
      "name": "upgradeTo",
      "outputs": [],
      "stateMutability": "nonpayable",
      "type": "function"
    },
    {
      "inputs": [
        {
          "internalType": "address",
          "name": "newImplementation",
          "type": "address"
        },
        {
          "internalType": "bytes",
          "name": "data",
          "type": "bytes"
        }
      ],
      "name": "upgradeToAndCall",
      "outputs": [],
      "stateMutability": "payable",
      "type": "function"
    },
    {
      "inputs": [],
      "name": "usdc",
      "outputs": [
        {
          "internalType": "contract IERC20",
          "name": "",
          "type": "address"
        }
      ],
      "stateMutability": "view",
      "type": "function"
    },
    {
      "inputs": [],
      "name": "usdt",
      "outputs": [
        {
          "internalType": "contract IERC20",
          "name": "",
          "type": "address"
        }
      ],
      "stateMutability": "view",
      "type": "function"
    },
    {
      "inputs": [],
      "name": "val3EPS",
      "outputs": [
        {
          "internalType": "contract IERC20",
          "name": "",
          "type": "address"
        }
      ],
      "stateMutability": "view",
      "type": "function"
    },
    {
      "inputs": [],
      "name": "valas",
      "outputs": [
        {
          "internalType": "contract IERC20",
          "name": "",
          "type": "address"
        }
      ],
      "stateMutability": "view",
      "type": "function"
    },
    {
      "inputs": [],
      "name": "wBnb",
      "outputs": [
        {
          "internalType": "contract IERC20",
          "name": "",
          "type": "address"
        }
      ],
      "stateMutability": "view",
      "type": "function"
    },
    {
      "inputs": [],
      "name": "wombatPool",
      "outputs": [
        {
          "internalType": "address",
          "name": "",
          "type": "address"
        }
      ],
      "stateMutability": "view",
      "type": "function"
    },
    {
      "inputs": [],
      "name": "wombatRouter",
      "outputs": [
        {
          "internalType": "contract IWombatRouter",
          "name": "",
          "type": "address"
        }
      ],
      "stateMutability": "view",
      "type": "function"
    }
  ],
  "numDeployments": 1,
  "solcInputHash": "e64dfa42dbbdc9261be62fdbcdb21a7b",
  "bytecode": "0x60a06040523060601b6080523480156200001857600080fd5b50600054610100900460ff16158080156200003a5750600054600160ff909116105b806200006a575062000057306200014460201b620017e51760201c565b1580156200006a575060005460ff166001145b620000d25760405162461bcd60e51b815260206004820152602e60248201527f496e697469616c697a61626c653a20636f6e747261637420697320616c72656160448201526d191e481a5b9a5d1a585b1a5e995960921b606482015260840160405180910390fd5b6000805460ff191660011790558015620000f6576000805461ff0019166101001790555b80156200013d576000805461ff0019169055604051600181527f7f26b83ff96e1f2b6a682f133852f6798a09c465da95921460cefb38474024989060200160405180910390a15b5062000153565b6001600160a01b03163b151590565b60805160601c6155356200018e60003960008181610c4b01528181610c8b01528181610d2b01528181610d6b0152610dfa01526155356000f3fe60806040526004361061025c5760003560e01c80635fea9cbb11610144578063a3673b38116100b6578063bf52e0801161007a578063bf52e08014610711578063c21ebd0714610727578063cc6522c314610748578063d547741f14610769578063ef5cfb8c14610789578063f6f6b881146107a957600080fd5b8063a3673b381461067b578063a440b21a14610690578063a66b5713146106b0578063adc9772e146106d1578063ae30c110146106f157600080fd5b80637d5f5802116101085780637d5f5802146105cd5780638129fc1c146105ef57806390ffb8ee1461060457806391d148541461062557806397613ac714610645578063a217fddf1461066657600080fd5b80635fea9cbb1461052a578063612c87df1461054b578063620b75df1461056c57806366af25bc1461058c57806378ab9c34146105ac57600080fd5b80632f48ab7d116101dd5780634f1ef286116101a15780634f1ef2861461047657806352d1902d14610489578063553914321461049e578063573b90c1146104bf5780635ca558f8146104e05780635dbd733a146104f657600080fd5b80632f48ab7d146103d357806336568abe146103f45780633659cfe6146104145780633ca5b234146104345780633e413bee1461045557600080fd5b806316f0115b1161022457806316f0115b14610336578063248a9ca3146103575780632576e65a146103875780632ad122dc1461039c5780632f2ff15d146103b357600080fd5b8063012ee9281461026157806301ffc9a71461029f57806302f283be146102cf578063046cfa11146102f0578063119cd87914610312575b600080fd5b34801561026d57600080fd5b5061013954610282906001600160a01b031681565b6040516001600160a01b0390911681526020015b60405180910390f35b3480156102ab57600080fd5b506102bf6102ba366004614e5f565b6107c9565b6040519015158152602001610296565b3480156102db57600080fd5b5061013654610282906001600160a01b031681565b3480156102fc57600080fd5b5061031061030b366004614e89565b610800565b005b34801561031e57600080fd5b5061032860fd5481565b604051908152602001610296565b34801561034257600080fd5b5061013554610282906001600160a01b031681565b34801561036357600080fd5b50610328610372366004614dfd565b60009081526065602052604090206001015490565b34801561039357600080fd5b50610328610b87565b3480156103a857600080fd5b5061032861013d5481565b3480156103bf57600080fd5b506103106103ce366004614e2f565b610b98565b3480156103df57600080fd5b5061012f54610282906001600160a01b031681565b34801561040057600080fd5b5061031061040f366004614e2f565b610bc2565b34801561042057600080fd5b5061031061042f366004614bbc565b610c40565b34801561044057600080fd5b5061012d54610282906001600160a01b031681565b34801561046157600080fd5b5061012e54610282906001600160a01b031681565b610310610484366004614bf6565b610d20565b34801561049557600080fd5b50610328610ded565b3480156104aa57600080fd5b5061013254610282906001600160a01b031681565b3480156104cb57600080fd5b5061013354610282906001600160a01b031681565b3480156104ec57600080fd5b5061032860fe5481565b34801561050257600080fd5b506103287fd67ad422505496469a1adf6cdf9e5ee92ac5d33992843c9ecc4b2f6d6cde913781565b34801561053657600080fd5b5061013b54610282906001600160a01b031681565b34801561055757600080fd5b5061013854610282906001600160a01b031681565b34801561057857600080fd5b5060fb54610282906001600160a01b031681565b34801561059857600080fd5b506103106105a7366004614ee3565b610ea0565b3480156105b857600080fd5b5061013154610282906001600160a01b031681565b3480156105d957600080fd5b5061032860008051602061549983398151915281565b3480156105fb57600080fd5b50610310610f1d565b34801561061057600080fd5b5061013454610282906001600160a01b031681565b34801561063157600080fd5b506102bf610640366004614e2f565b610fe7565b34801561065157600080fd5b5061013054610282906001600160a01b031681565b34801561067257600080fd5b50610328600081565b34801561068757600080fd5b50610328611012565b34801561069c57600080fd5b506103106106ab366004614bbc565b61101e565b3480156106bc57600080fd5b5061013a54610282906001600160a01b031681565b3480156106dd57600080fd5b506103106106ec366004614c9e565b611126565b3480156106fd57600080fd5b5061031061070c366004614ee3565b61134d565b34801561071d57600080fd5b5061032860fc5481565b34801561073357600080fd5b5061013754610282906001600160a01b031681565b34801561075457600080fd5b5061013c54610282906001600160a01b031681565b34801561077557600080fd5b50610310610784366004614e2f565b611475565b34801561079557600080fd5b506103286107a4366004614bbc565b61149a565b3480156107b557600080fd5b506103286107c4366004614cca565b61151c565b60006001600160e01b03198216637965db0b60e01b14806107fa57506301ffc9a760e01b6001600160e01b03198316145b92915050565b61080b600033610fe7565b6108305760405162461bcd60e51b815260040161082790615266565b60405180910390fd5b61083d6020820182614bbc565b61012d80546001600160a01b0319166001600160a01b039290921691909117905561086e6040820160208301614bbc565b61012e80546001600160a01b0319166001600160a01b039290921691909117905561089f6060820160408301614bbc565b61012f80546001600160a01b0319166001600160a01b03929092169190911790556108d06080820160608301614bbc565b61013080546001600160a01b0319166001600160a01b039290921691909117905561090160a0820160808301614bbc565b61013180546001600160a01b0319166001600160a01b039290921691909117905561093260c0820160a08301614bbc565b61013280546001600160a01b0319166001600160a01b039290921691909117905561096360e0820160c08301614bbc565b61013380546001600160a01b0319166001600160a01b0392909216919091179055610995610100820160e08301614bbc565b61013480546001600160a01b0319166001600160a01b03929092169190911790556109c861012082016101008301614bbc565b61013580546001600160a01b0319166001600160a01b03929092169190911790556109fb61014082016101208301614bbc565b61013680546001600160a01b0319166001600160a01b0392909216919091179055610a2e61016082016101408301614bbc565b61013780546001600160a01b0319166001600160a01b0392909216919091179055610a6161018082016101608301614bbc565b61013880546001600160a01b0319166001600160a01b0392909216919091179055610a946101a082016101808301614bbc565b61013980546001600160a01b0319166001600160a01b0392909216919091179055610ac76101c082016101a08301614bbc565b61013a80546001600160a01b0319166001600160a01b0392909216919091179055610afa6101e082016101c08301614bbc565b61013b80546001600160a01b0319166001600160a01b0392909216919091179055610b2d61020082016101e08301614bbc565b61013c80546001600160a01b0319166001600160a01b0392909216919091179055670de0b6b3a764000061013d556040517fea5646eb3528e525944447a4a97de700dd472298626e5c0481d1c82c3da86ea590600090a150565b6000610b9360006117f4565b905090565b600082815260656020526040902060010154610bb381611e3d565b610bbd8383611e47565b505050565b6001600160a01b0381163314610c325760405162461bcd60e51b815260206004820152602f60248201527f416363657373436f6e74726f6c3a2063616e206f6e6c792072656e6f756e636560448201526e103937b632b9903337b91039b2b63360891b6064820152608401610827565b610c3c8282611ecd565b5050565b306001600160a01b037f0000000000000000000000000000000000000000000000000000000000000000161415610c895760405162461bcd60e51b815260040161082790615180565b7f00000000000000000000000000000000000000000000000000000000000000006001600160a01b0316610cd26000805160206154b9833981519152546001600160a01b031690565b6001600160a01b031614610cf85760405162461bcd60e51b8152600401610827906151cc565b610d0181611f34565b60408051600080825260208201909252610d1d91839190611f3f565b50565b306001600160a01b037f0000000000000000000000000000000000000000000000000000000000000000161415610d695760405162461bcd60e51b815260040161082790615180565b7f00000000000000000000000000000000000000000000000000000000000000006001600160a01b0316610db26000805160206154b9833981519152546001600160a01b031690565b6001600160a01b031614610dd85760405162461bcd60e51b8152600401610827906151cc565b610de182611f34565b610c3c82826001611f3f565b6000306001600160a01b037f00000000000000000000000000000000000000000000000000000000000000001614610e8d5760405162461bcd60e51b815260206004820152603860248201527f555550535570677261646561626c653a206d757374206e6f742062652063616c60448201527f6c6564207468726f7567682064656c656761746563616c6c00000000000000006064820152608401610827565b506000805160206154b983398151915290565b610eab600033610fe7565b610ec75760405162461bcd60e51b815260040161082790615266565b60fc83905560fd82905560fe81905560408051848152602081018490529081018290527f116fbf1e97a2be629ad98abfb6c332733c8996c2dfb174dd2efe8440df381d1a906060015b60405180910390a1505050565b600054610100900460ff1615808015610f3d5750600054600160ff909116105b80610f575750303b158015610f57575060005460ff166001145b610f735760405162461bcd60e51b815260040161082790615218565b6000805460ff191660011790558015610f96576000805461ff0019166101001790555b610f9e6120b9565b8015610d1d576000805461ff0019169055604051600181527f7f26b83ff96e1f2b6a682f133852f6798a09c465da95921460cefb3847402498906020015b60405180910390a150565b60009182526065602090815260408084206001600160a01b0393909316845291905290205460ff1690565b6000610b9360016117f4565b611029600033610fe7565b6110455760405162461bcd60e51b815260040161082790615266565b6001600160a01b03811661109b5760405162461bcd60e51b815260206004820152601860248201527f5a65726f2061646472657373206e6f7420616c6c6f77656400000000000000006044820152606401610827565b60fb546110c090600080516020615499833981519152906001600160a01b0316611475565b6110d860008051602061549983398151915282610b98565b60fb80546001600160a01b0319166001600160a01b0383169081179091556040519081527ff7b449fcd5cfb7379dcd34cb69428dd9f882033b15be33d83b42d91daa28eeb790602001610fdc565b61113e60008051602061549983398151915233610fe7565b61115a5760405162461bcd60e51b815260040161082790615149565b60006111d8306001600160a01b031663a3673b386040518163ffffffff1660e01b815260040160206040518083038186803b15801561119857600080fd5b505afa1580156111ac573d6000803e3d6000fd5b505050506040513d601f19601f820116820180604052508101906111d09190614e16565b60fd5461219e565b6040516370a0823160e01b815230600482015290915061125d9084906001600160a01b038216906370a082319060240160206040518083038186803b15801561122057600080fd5b505afa158015611234573d6000803e3d6000fd5b505050506040513d601f19601f820116820180604052508101906112589190614e16565b6121c8565b80306001600160a01b031663a3673b386040518163ffffffff1660e01b815260040160206040518083038186803b15801561129757600080fd5b505afa1580156112ab573d6000803e3d6000fd5b505050506040513d601f19601f820116820180604052508101906112cf9190614e16565b101561131d5760405162461bcd60e51b815260206004820152601f60248201527f5374726174656779204e4156206c657373207468616e206578706563746564006044820152606401610827565b6040518281527f227a473b70d2f893cc7659219575c030a63b5743024fe1e0c1a680e708b1525a90602001610f10565b6113777fd67ad422505496469a1adf6cdf9e5ee92ac5d33992843c9ecc4b2f6d6cde913733610fe7565b8061141e575060fb54604051632474521560e21b81527fd67ad422505496469a1adf6cdf9e5ee92ac5d33992843c9ecc4b2f6d6cde913760048201523360248201526001600160a01b03909116906391d148549060440160206040518083038186803b1580156113e657600080fd5b505afa1580156113fa573d6000803e3d6000fd5b505050506040513d601f19601f8201168201806040525081019061141e9190614de0565b610ec75760405162461bcd60e51b815260206004820152602260248201527f5265737472696374656420746f20504f5254464f4c494f5f4147454e545f524f6044820152614c4560f01b6064820152608401610827565b60008281526065602052604090206001015461149081611e3d565b610bbd8383611ecd565b60006114b460008051602061549983398151915233610fe7565b6114d05760405162461bcd60e51b815260040161082790615149565b60006114db83612a27565b905080156107fa576040518181527f3ac0594a85a20354f9dc74f33728416d19ce00d04a406c108cc2dcf2cecea1349060200160405180910390a192915050565b600061153660008051602061549983398151915233610fe7565b6115525760405162461bcd60e51b815260040161082790615149565b6000611590306001600160a01b031663a3673b386040518163ffffffff1660e01b815260040160206040518083038186803b15801561119857600080fd5b905060008084156115b7576115a486612a27565b90506115b08887612d01565b9150611626565b6115c2888888613258565b9150868210156116265760405162461bcd60e51b815260206004820152602960248201527f52657475726e65642076616c7565206c657373207468616e2072657175657374604482015268195908185b5bdd5b9d60ba1b6064820152608401610827565b82306001600160a01b031663a3673b386040518163ffffffff1660e01b815260040160206040518083038186803b15801561166057600080fd5b505afa158015611674573d6000803e3d6000fd5b505050506040513d601f19601f820116820180604052508101906116989190614e16565b10156116e65760405162461bcd60e51b815260206004820152601f60248201527f5374726174656779204e4156206c657373207468616e206578706563746564006044820152606401610827565b60405163a9059cbb60e01b81526001600160a01b0389169063a9059cbb90611714908990869060040161503b565b602060405180830381600087803b15801561172e57600080fd5b505af1158015611742573d6000803e3d6000fd5b505050506040513d601f19601f820116820180604052508101906117669190614de0565b5060408051888152602081018490527f9045c2ac9b2026de8075f2701bbdde882cd5e830b3b1ead9a15b22f2b5b93742910160405180910390a180156117da576040518181527f3ac0594a85a20354f9dc74f33728416d19ce00d04a406c108cc2dcf2cecea1349060200160405180910390a15b509695505050505050565b6001600160a01b03163b151590565b61012d546040516370a0823160e01b815230600482015260009182916001600160a01b03909116906370a082319060240160206040518083038186803b15801561183d57600080fd5b505afa158015611851573d6000803e3d6000fd5b505050506040513d601f19601f820116820180604052508101906118759190614e16565b61012e546040516370a0823160e01b81523060048201529192506000916001600160a01b03909116906370a082319060240160206040518083038186803b1580156118bf57600080fd5b505afa1580156118d3573d6000803e3d6000fd5b505050506040513d601f19601f820116820180604052508101906118f79190614e16565b61012f546040516370a0823160e01b81523060048201529192506000916001600160a01b03909116906370a082319060240160206040518083038186803b15801561194157600080fd5b505afa158015611955573d6000803e3d6000fd5b505050506040513d601f19601f820116820180604052508101906119799190614e16565b610136546101345460405163015b6a3360e71b81523060048201526001600160a01b03918216602482015292935060009291169063adb519809060440160206040518083038186803b1580156119ce57600080fd5b505afa1580156119e2573d6000803e3d6000fd5b505050506040513d601f19601f82011682018060405250810190611a069190614e16565b90508015611d325761013454604080516318160ddd60e01b815290516000926001600160a01b0316916318160ddd916004808301926020929190829003018186803b158015611a5457600080fd5b505afa158015611a68573d6000803e3d6000fd5b505050506040513d601f19601f82011682018060405250810190611a8c9190614e16565b905060005b6003811015611d2f5761013554604051634903b0d160e01b81526004810183905260009184916001600160a01b0390911690634903b0d19060240160206040518083038186803b158015611ae457600080fd5b505afa158015611af8573d6000803e3d6000fd5b505050506040513d601f19601f82011682018060405250810190611b1c9190614e16565b611b26908661539f565b611b30919061537d565b6101355460405163c661065760e01b8152600481018590529192506001600160a01b03169063c66106579060240160206040518083038186803b158015611b7657600080fd5b505afa158015611b8a573d6000803e3d6000fd5b505050506040513d601f19601f82011682018060405250810190611bae9190614bd9565b61012d546001600160a01b0390811691161415611bd657611bcf8188615365565b9650611d1c565b6101355460405163c661065760e01b8152600481018490526001600160a01b039091169063c66106579060240160206040518083038186803b158015611c1b57600080fd5b505afa158015611c2f573d6000803e3d6000fd5b505050506040513d601f19601f82011682018060405250810190611c539190614bd9565b61012e546001600160a01b0390811691161415611c7b57611c748187615365565b9550611d1c565b6101355460405163c661065760e01b8152600481018490526001600160a01b039091169063c66106579060240160206040518083038186803b158015611cc057600080fd5b505afa158015611cd4573d6000803e3d6000fd5b505050506040513d601f19601f82011682018060405250810190611cf89190614bd9565b61012f546001600160a01b0390811691161415611d1c57611d198186615365565b94505b5080611d2781615418565b915050611a91565b50505b8515611db3578215611d735761013d5461013b5461013a54611d66928692909182916001600160a01b0390811691166138bd565b611d709085615365565b93505b8115611dae5761013d5461013c5461013a54611da1928592909182916001600160a01b0390811691166138bd565b611dab9085615365565b93505b611e33565b8215611df3576101385461012e5461012d5461013954611de6936001600160a01b039081169381169281169116876139dd565b611df09085615365565b93505b8115611e33576101385461012f5461012d5461013954611e26936001600160a01b039081169381169281169116866139dd565b611e309085615365565b93505b5091949350505050565b610d1d8133613b3e565b611e518282610fe7565b610c3c5760008281526065602090815260408083206001600160a01b03851684529091529020805460ff19166001179055611e893390565b6001600160a01b0316816001600160a01b0316837f2f8788117e7eff1d82e926ec794901d17c78024a50270940304540a733656f0d60405160405180910390a45050565b611ed78282610fe7565b15610c3c5760008281526065602090815260408083206001600160a01b0385168085529252808320805460ff1916905551339285917ff6391f5c32d9c69d2a47ea670b442974b53935d1edc7fd64eb21e047a839171b9190a45050565b6000610c3c81611e3d565b7f4910fdfa16fed3260ed0e7147f7cc6da11a60208b5b9406d12a635614ffd91435460ff1615611f7257610bbd83613b97565b826001600160a01b03166352d1902d6040518163ffffffff1660e01b815260040160206040518083038186803b158015611fab57600080fd5b505afa925050508015611fdb575060408051601f3d908101601f19168201909252611fd891810190614e16565b60015b61203e5760405162461bcd60e51b815260206004820152602e60248201527f45524331393637557067726164653a206e657720696d706c656d656e7461746960448201526d6f6e206973206e6f74205555505360901b6064820152608401610827565b6000805160206154b983398151915281146120ad5760405162461bcd60e51b815260206004820152602960248201527f45524331393637557067726164653a20756e737570706f727465642070726f786044820152681a58589b195555525160ba1b6064820152608401610827565b50610bbd838383613c33565b600054610100900460ff16158080156120d95750600054600160ff909116105b806120f35750303b1580156120f3575060005460ff166001145b61210f5760405162461bcd60e51b815260040161082790615218565b6000805460ff191660011790558015612132576000805461ff0019166101001790555b61213a613c5e565b612142613c5e565b61214d600033611e47565b601460fc81905560fd55600460fe558015610d1d576000805461ff0019169055604051600181527f7f26b83ff96e1f2b6a682f133852f6798a09c465da95921460cefb384740249890602001610fdc565b60006127106121ad83826153be565b6121b7908561539f565b6121c1919061537d565b9392505050565b61012d546001600160a01b038381169116146121f65760405162461bcd60e51b815260040161082790615294565b6121fe614a7c565b610138546001600160a01b03908116825261012d5481166020830181905261012e54821660408085019190915261012f548316606085015261013954909216608084015290516370a0823160e01b81523060048201526370a082319060240160206040518083038186803b15801561227557600080fd5b505afa158015612289573d6000803e3d6000fd5b505050506040513d601f19601f820116820180604052508101906122ad9190614e16565b60a0820152600060c0820181905261013554604051634903b0d160e01b815260048101929092526001600160a01b031690634903b0d19060240160206040518083038186803b1580156122ff57600080fd5b505afa158015612313573d6000803e3d6000fd5b505050506040513d601f19601f820116820180604052508101906123379190614e16565b60e082015261013554604051634903b0d160e01b8152600160048201526001600160a01b0390911690634903b0d19060240160206040518083038186803b15801561238157600080fd5b505afa158015612395573d6000803e3d6000fd5b505050506040513d601f19601f820116820180604052508101906123b99190614e16565b61010082015261013554604051634903b0d160e01b8152600260048201526001600160a01b0390911690634903b0d19060240160206040518083038186803b15801561240457600080fd5b505afa158015612418573d6000803e3d6000fd5b505050506040513d601f19601f8201168201806040525081019061243c9190614e16565b61012082015261013d546101408201819052610160820181905261018082015260006101a082018190528061247083613ccb565b61012d5461012e5461013a5461013b549496509294506124a5936001600160a01b039283169391831692918216911686613f2b565b61012d5461012f5461013a5461013c546124d2936001600160a01b03908116938116928116911685613f2b565b6124da614b18565b61012d546040516370a0823160e01b81523060048201526001600160a01b03909116906370a082319060240160206040518083038186803b15801561251e57600080fd5b505afa158015612532573d6000803e3d6000fd5b505050506040513d601f19601f820116820180604052508101906125569190614e16565b815261012e546040516370a0823160e01b81523060048201526001600160a01b03909116906370a082319060240160206040518083038186803b15801561259c57600080fd5b505afa1580156125b0573d6000803e3d6000fd5b505050506040513d601f19601f820116820180604052508101906125d49190614e16565b602082015261012f546040516370a0823160e01b81523060048201526001600160a01b03909116906370a082319060240160206040518083038186803b15801561261d57600080fd5b505afa158015612631573d6000803e3d6000fd5b505050506040513d601f19601f820116820180604052508101906126559190614e16565b816002602002015261013554604051633883e11960e01b81526000916126f0916001600160a01b0390911690633883e119906126989086906001906004016150de565b60206040518083038186803b1580156126b057600080fd5b505afa1580156126c4573d6000803e3d6000fd5b505050506040513d601f19601f820116820180604052508101906126e89190614e16565b60fe5461219e565b61012d5461013554845160405163095ea7b360e01b81529394506001600160a01b039283169363095ea7b39361272b9316919060040161503b565b602060405180830381600087803b15801561274557600080fd5b505af1158015612759573d6000803e3d6000fd5b505050506040513d601f19601f8201168201806040525081019061277d9190614de0565b5061012e5461013554602084015160405163095ea7b360e01b81526001600160a01b039384169363095ea7b3936127b99391169160040161503b565b602060405180830381600087803b1580156127d357600080fd5b505af11580156127e7573d6000803e3d6000fd5b505050506040513d601f19601f8201168201806040525081019061280b9190614de0565b5061012f5461013554604080850151905163095ea7b360e01b81526001600160a01b039384169363095ea7b3936128479391169160040161503b565b602060405180830381600087803b15801561286157600080fd5b505af1158015612875573d6000803e3d6000fd5b505050506040513d601f19601f820116820180604052508101906128999190614de0565b5061013554604051634515cef360e01b81526000916001600160a01b031690634515cef3906128ce90869086906004016150fb565b602060405180830381600087803b1580156128e857600080fd5b505af11580156128fc573d6000803e3d6000fd5b505050506040513d601f19601f820116820180604052508101906129209190614e16565b610134546101365460405163095ea7b360e01b81529293506001600160a01b039182169263095ea7b39261295a921690859060040161503b565b602060405180830381600087803b15801561297457600080fd5b505af1158015612988573d6000803e3d6000fd5b505050506040513d601f19601f820116820180604052508101906129ac9190614de0565b506101365461013454604051638340f54960e01b81523060048201526001600160a01b03918216602482015260448101849052911690638340f54990606401600060405180830381600087803b158015612a0557600080fd5b505af1158015612a19573d6000803e3d6000fd5b505050505050505050505050565b610136546101345460405163015b6a3360e71b81523060048201526001600160a01b0391821660248201526000928392169063adb519809060440160206040518083038186803b158015612a7a57600080fd5b505afa158015612a8e573d6000803e3d6000fd5b505050506040513d601f19601f82011682018060405250810190612ab29190614e16565b90508015612bdd576040805160018082528183019092526000916020808301908036833750506101345482519293506001600160a01b031691839150600090612afd57612afd615449565b6001600160a01b03928316602091820292909201015261013654604051633601ae0560e01b8152911690633601ae0590612b409030908590600090600401615007565b600060405180830381600087803b158015612b5a57600080fd5b505af1158015612b6e573d6000803e3d6000fd5b5050610136546101345460405163d12914ff60e01b81523060048201526001600160a01b0391821660248201529116925063d12914ff9150604401600060405180830381600087803b158015612bc357600080fd5b505af1158015612bd7573d6000803e3d6000fd5b50505050505b610131546101305461012d54600092612c06926001600160a01b03918216929082169116613f81565b610132546101305461012d54929350612c2f926001600160a01b03928316929182169116613f81565b612c399082615365565b610133546101305461012d54929350612c62926001600160a01b03928316929182169116613f81565b612c6c9082615365565b905080156121c15761012d5460405163a9059cbb60e01b81526001600160a01b039091169063a9059cbb90612ca7908790859060040161503b565b602060405180830381600087803b158015612cc157600080fd5b505af1158015612cd5573d6000803e3d6000fd5b505050506040513d601f19601f82011682018060405250810190612cf99190614de0565b509392505050565b61012d546000906001600160a01b03848116911614612d325760405162461bcd60e51b815260040161082790615294565b610136546101345460405163015b6a3360e71b81523060048201526001600160a01b039182166024820152600092919091169063adb519809060440160206040518083038186803b158015612d8657600080fd5b505afa158015612d9a573d6000803e3d6000fd5b505050506040513d601f19601f82011682018060405250810190612dbe9190614e16565b6101365461013454604051636ce5768960e11b81523060048201526001600160a01b03918216602482015260448101849052929350169063d9caed1290606401600060405180830381600087803b158015612e1857600080fd5b505af1158015612e2c573d6000803e3d6000fd5b50505050600061013460009054906101000a90046001600160a01b03166001600160a01b03166318160ddd6040518163ffffffff1660e01b815260040160206040518083038186803b158015612e8157600080fd5b505afa158015612e95573d6000803e3d6000fd5b505050506040513d601f19601f82011682018060405250810190612eb99190614e16565b9050612ec3614b18565b61013554604051634903b0d160e01b815260006004820152612f5b91849186916001600160a01b031690634903b0d1906024015b60206040518083038186803b158015612f0f57600080fd5b505afa158015612f23573d6000803e3d6000fd5b505050506040513d601f19601f82011682018060405250810190612f479190614e16565b612f51919061539f565b6126e8919061537d565b815261013554604051634903b0d160e01b815260016004820152612f9591849186916001600160a01b031690634903b0d190602401612ef7565b602082015261013554604051634903b0d160e01b815260026004820152612fd291849186916001600160a01b031690634903b0d190602401612ef7565b8160026020020152610134546101355460405163095ea7b360e01b81526001600160a01b039283169263095ea7b39261301292911690879060040161503b565b602060405180830381600087803b15801561302c57600080fd5b505af1158015613040573d6000803e3d6000fd5b505050506040513d601f19601f820116820180604052508101906130649190614de0565b506101355460405163ecb586a560e01b81526001600160a01b039091169063ecb586a59061309890869085906004016152e4565b606060405180830381600087803b1580156130b257600080fd5b505af11580156130c6573d6000803e3d6000fd5b505050506040513d601f19601f820116820180604052508101906130ea9190614d1d565b5061012e5461012d5461013b5461013a546040516370a0823160e01b8152306004820152613187946001600160a01b0390811694811693811692169084906370a08231906024015b60206040518083038186803b15801561314a57600080fd5b505afa15801561315e573d6000803e3d6000fd5b505050506040513d601f19601f820116820180604052508101906131829190614e16565b613f2b565b61012f5461012d5461013c5461013a546040516370a0823160e01b81523060048201526131d2946001600160a01b0390811694811693811692169084906370a0823190602401613132565b61012d546040516370a0823160e01b81523060048201526001600160a01b03909116906370a082319060240160206040518083038186803b15801561321657600080fd5b505afa15801561322a573d6000803e3d6000fd5b505050506040513d601f19601f8201168201806040525081019061324e9190614e16565b9695505050505050565b61012d546000906001600160a01b038581169116146132895760405162461bcd60e51b815260040161082790615294565b61013454604080516318160ddd60e01b815290516000926001600160a01b0316916318160ddd916004808301926020929190829003018186803b1580156132cf57600080fd5b505afa1580156132e3573d6000803e3d6000fd5b505050506040513d601f19601f820116820180604052508101906133079190614e16565b61013554604051634903b0d160e01b81526000600482018190529293506001600160a01b0390911690634903b0d19060240160206040518083038186803b15801561335157600080fd5b505afa158015613365573d6000803e3d6000fd5b505050506040513d601f19601f820116820180604052508101906133899190614e16565b61013554604051634903b0d160e01b8152600160048201529192506000916001600160a01b0390911690634903b0d19060240160206040518083038186803b1580156133d457600080fd5b505afa1580156133e8573d6000803e3d6000fd5b505050506040513d601f19601f8201168201806040525081019061340c9190614e16565b61013554604051634903b0d160e01b8152600260048201529192506000916001600160a01b0390911690634903b0d19060240160206040518083038186803b15801561345757600080fd5b505afa15801561346b573d6000803e3d6000fd5b505050506040513d601f19601f8201168201806040525081019061348f9190614e16565b9050613499614a7c565b610138546001600160a01b03908116825261012d548116602083015261012e548116604083015261012f54811660608301526101395416608082015260fe546134e3908990614072565b6134ee90600a615365565b60a082015260c0810185905260e081018490526101008101839052610120810182905261013d546101408201819052610160820181905261018082015260006101a0820181905261353e82614081565b610136546101345460405163015b6a3360e71b81523060048201526001600160a01b03918216602482015292935060009291169063adb519809060440160206040518083038186803b15801561359357600080fd5b505afa1580156135a7573d6000803e3d6000fd5b505050506040513d601f19601f820116820180604052508101906135cb9190614e16565b9050808211156135d9578091505b6101365461013454604051636ce5768960e11b81523060048201526001600160a01b0391821660248201526044810185905291169063d9caed1290606401600060405180830381600087803b15801561363157600080fd5b505af1158015613645573d6000803e3d6000fd5b50505050613651614b18565b61365f88612f51858a61539f565b815261366f88612f51858961539f565b602082015261368288612f51858861539f565b8160026020020152610134546101355460405163095ea7b360e01b81526001600160a01b039283169263095ea7b3926136c292911690879060040161503b565b602060405180830381600087803b1580156136dc57600080fd5b505af11580156136f0573d6000803e3d6000fd5b505050506040513d601f19601f820116820180604052508101906137149190614de0565b506101355460405163ecb586a560e01b81526001600160a01b039091169063ecb586a59061374890869085906004016152e4565b606060405180830381600087803b15801561376257600080fd5b505af1158015613776573d6000803e3d6000fd5b505050506040513d601f19601f8201168201806040525081019061379a9190614d1d565b5061012e5461012d5461013b5461013a546040516370a0823160e01b81523060048201526137e6946001600160a01b0390811694811693811692169084906370a0823190602401613132565b61012f5461012d5461013c5461013a546040516370a0823160e01b8152306004820152613831946001600160a01b0390811694811693811692169084906370a0823190602401613132565b61012d546040516370a0823160e01b81523060048201526001600160a01b03909116906370a082319060240160206040518083038186803b15801561387557600080fd5b505afa158015613889573d6000803e3d6000fd5b505050506040513d601f19601f820116820180604052508101906138ad9190614e16565b9c9b505050505050505050505050565b600080836001600160a01b03166350d25bcd6040518163ffffffff1660e01b815260040160206040518083038186803b1580156138f957600080fd5b505afa15801561390d573d6000803e3d6000fd5b505050506040513d601f19601f820116820180604052508101906139319190614e16565b90506000836001600160a01b03166350d25bcd6040518163ffffffff1660e01b815260040160206040518083038186803b15801561396e57600080fd5b505afa158015613982573d6000803e3d6000fd5b505050506040513d601f19601f820116820180604052508101906139a69190614e16565b90506139b2818861539f565b826139bd888b61539f565b6139c7919061539f565b6139d1919061537d565b98975050505050505050565b604080516002808252606082018352600092839291906020830190803683370190505090508581600081518110613a1657613a16615449565b60200260200101906001600160a01b031690816001600160a01b0316815250508481600181518110613a4a57613a4a615449565b6001600160a01b0392909216602092830291909101909101526040805160018082528183019092526000918160200160208202803683370190505090508481600081518110613a9b57613a9b615449565b6001600160a01b03928316602091820292909201015260405163b9e598c160e01b81526000918a169063b9e598c190613adc90869086908a90600401615054565b60006040518083038186803b158015613af457600080fd5b505afa158015613b08573d6000803e3d6000fd5b505050506040513d6000823e601f3d908101601f19168201604052613b309190810190614e9c565b509998505050505050505050565b613b488282610fe7565b610c3c57613b5581614230565b613b60836020614242565b604051602001613b71929190614f92565b60408051601f198184030181529082905262461bcd60e51b825261082791600401615116565b6001600160a01b0381163b613c045760405162461bcd60e51b815260206004820152602d60248201527f455243313936373a206e657720696d706c656d656e746174696f6e206973206e60448201526c1bdd08184818dbdb9d1c9858dd609a1b6064820152608401610827565b6000805160206154b983398151915280546001600160a01b0319166001600160a01b0392909216919091179055565b613c3c836143de565b600082511180613c495750805b15610bbd57613c58838361441e565b50505050565b600054610100900460ff16613cc95760405162461bcd60e51b815260206004820152602b60248201527f496e697469616c697a61626c653a20636f6e7472616374206973206e6f74206960448201526a6e697469616c697a696e6760a81b6064820152608401610827565b565b600080826101800151836101600151846101200151613cea919061539f565b613cf4919061537d565b8361010001518461014001518561016001518660e00151613d15919061539f565b613d1f919061537d565b613d299190615365565b613d339190615365565b8361010001518460a00151613d48919061539f565b613d52919061537d565b9150826101200151836101600151846101800151856101000151613d76919061539f565b613d80919061537d565b8461014001518561018001518660e00151613d9b919061539f565b613da5919061537d565b613daf9190615365565b613db99190615365565b8361012001518460a00151613dce919061539f565b613dd8919061537d565b905060005b836101a00151811015613f25576000613e098560000151866020015187604001518860800151886139dd565b90506000613e2a8660000151876020015188606001518960800151886139dd565b90508082876101200151613e3e919061539f565b613e48919061537d565b86610100015186848960e00151613e5f919061539f565b613e69919061537d565b613e739190615365565b613e7d9190615365565b8661010001518760a00151613e92919061539f565b613e9c919061537d565b94508561012001518282886101000151613eb6919061539f565b613ec0919061537d565b85838960e00151613ed1919061539f565b613edb919061537d565b613ee59190615365565b613eef9190615365565b8661012001518760a00151613f04919061539f565b613f0e919061537d565b935050508080613f1d90615418565b915050613ddd565b50915091565b6000613f408261013d5461013d5487876138bd565b610138546101395460fc54929350613f78926001600160a01b03928316928a928a929116908790613f7290889061219e565b30614512565b50505050505050565b6040516370a0823160e01b815230600482015260009081906001600160a01b038616906370a082319060240160206040518083038186803b158015613fc557600080fd5b505afa158015613fd9573d6000803e3d6000fd5b505050506040513d601f19601f82011682018060405250810190613ffd9190614e16565b905080156140675761013754600090614022906001600160a01b0316878787866146f5565b90508015614065576101375461405c906001600160a01b031687878786606461404c88606361539f565b614056919061537d565b30614854565b925050506121c1565b505b506000949350505050565b60006127106121ad8382615365565b600081610180015182610140015183610120015161409f919061539f565b6140a9919061537d565b8261016001518361014001518461010001516140c5919061539f565b6140cf919061537d565b8360e001516140de9190615365565b6140e89190615365565b8260a001518360c001516140fc919061539f565b614106919061537d565b905060005b826101a0015181101561422a5760008360c0015183856101000151614130919061539f565b61413a919061537d565b905060008460c0015184866101200151614154919061539f565b61415e919061537d565b9050600061417f8660000151876040015188602001518960800151876139dd565b905060006141a08760000151886060015189602001518a60800151876139dd565b905082818861012001516141b4919061539f565b6141be919061537d565b84838961010001516141d0919061539f565b6141da919061537d565b8860e001516141e99190615365565b6141f39190615365565b8760a001518860c00151614207919061539f565b614211919061537d565b955050505050808061422290615418565b91505061410b565b50919050565b60606107fa6001600160a01b03831660145b6060600061425183600261539f565b61425c906002615365565b67ffffffffffffffff8111156142745761427461545f565b6040519080825280601f01601f19166020018201604052801561429e576020820181803683370190505b509050600360fc1b816000815181106142b9576142b9615449565b60200101906001600160f81b031916908160001a905350600f60fb1b816001815181106142e8576142e8615449565b60200101906001600160f81b031916908160001a905350600061430c84600261539f565b614317906001615365565b90505b600181111561438f576f181899199a1a9b1b9c1cb0b131b232b360811b85600f166010811061434b5761434b615449565b1a60f81b82828151811061436157614361615449565b60200101906001600160f81b031916908160001a90535060049490941c9361438881615401565b905061431a565b5083156121c15760405162461bcd60e51b815260206004820181905260248201527f537472696e67733a20686578206c656e67746820696e73756666696369656e746044820152606401610827565b6143e781613b97565b6040516001600160a01b038216907fbc7cd75a20ee27fd9adebab32041f755214dbc6bffa90cc0225b39da2e5c2d3b90600090a250565b60606001600160a01b0383163b6144865760405162461bcd60e51b815260206004820152602660248201527f416464726573733a2064656c65676174652063616c6c20746f206e6f6e2d636f6044820152651b9d1c9858dd60d21b6064820152608401610827565b600080846001600160a01b0316846040516144a19190614f76565b600060405180830381855af49150503d80600081146144dc576040519150601f19603f3d011682016040523d82523d6000602084013e6144e1565b606091505b509150915061450982826040518060600160405280602781526020016154d960279139614a3e565b95945050505050565b60405163095ea7b360e01b81526000906001600160a01b0388169063095ea7b390614543908b90889060040161503b565b602060405180830381600087803b15801561455d57600080fd5b505af1158015614571573d6000803e3d6000fd5b505050506040513d601f19601f820116820180604052508101906145959190614de0565b5060408051600280825260608201835260009260208301908036833701905050905087816000815181106145cb576145cb615449565b60200260200101906001600160a01b031690816001600160a01b03168152505086816001815181106145ff576145ff615449565b6001600160a01b039290921660209283029190910190910152604080516001808252818301909252600091816020016020820280368337019050509050868160008151811061465057614650615449565b6001600160a01b03928316602091820292909201015260405163351041e960e21b8152908b169063d44107a49061469590859085908b908b908b90429060040161508a565b602060405180830381600087803b1580156146af57600080fd5b505af11580156146c3573d6000803e3d6000fd5b505050506040513d601f19601f820116820180604052508101906146e79190614e16565b9a9950505050505050505050565b6040805160038082526080820190925260009182919060208201606080368337019050509050858160008151811061472f5761472f615449565b60200260200101906001600160a01b031690816001600160a01b031681525050848160018151811061476357614763615449565b60200260200101906001600160a01b031690816001600160a01b031681525050838160028151811061479757614797615449565b6001600160a01b03928316602091820292909201015260405163d06ca61f60e01b815260009189169063d06ca61f906147d690879086906004016152cb565b60006040518083038186803b1580156147ee57600080fd5b505afa158015614802573d6000803e3d6000fd5b505050506040513d6000823e601f3d908101601f1916820160405261482a9190810190614da3565b90508060028151811061483f5761483f615449565b60200260200101519250505095945050505050565b60405163095ea7b360e01b81526000906001600160a01b0388169063095ea7b390614885908b90889060040161503b565b602060405180830381600087803b15801561489f57600080fd5b505af11580156148b3573d6000803e3d6000fd5b505050506040513d601f19601f820116820180604052508101906148d79190614de0565b506040805160038082526080820190925260009160208201606080368337019050509050878160008151811061490f5761490f615449565b60200260200101906001600160a01b031690816001600160a01b031681525050868160018151811061494357614943615449565b60200260200101906001600160a01b031690816001600160a01b031681525050858160028151811061497757614977615449565b6001600160a01b0392831660209182029290920101526040516338ed173960e01b81526000918b16906338ed1739906149bc908990899087908a9042906004016152f8565b600060405180830381600087803b1580156149d657600080fd5b505af11580156149ea573d6000803e3d6000fd5b505050506040513d6000823e601f3d908101601f19168201604052614a129190810190614da3565b905080600281518110614a2757614a27615449565b602002602001015192505050979650505050505050565b60608315614a4d5750816121c1565b6121c18383815115614a625781518083602001fd5b8060405162461bcd60e51b81526004016108279190615116565b604051806101c0016040528060006001600160a01b0316815260200160006001600160a01b0316815260200160006001600160a01b0316815260200160006001600160a01b0316815260200160006001600160a01b031681526020016000815260200160008152602001600081526020016000815260200160008152602001600081526020016000815260200160008152602001600081525090565b60405180606001604052806003906020820280368337509192915050565b600082601f830112614b4757600080fd5b8151602067ffffffffffffffff821115614b6357614b6361545f565b8160051b614b72828201615334565b838152828101908684018388018501891015614b8d57600080fd5b600093505b85841015614bb0578051835260019390930192918401918401614b92565b50979650505050505050565b600060208284031215614bce57600080fd5b81356121c181615475565b600060208284031215614beb57600080fd5b81516121c181615475565b60008060408385031215614c0957600080fd5b8235614c1481615475565b915060208381013567ffffffffffffffff80821115614c3257600080fd5b818601915086601f830112614c4657600080fd5b813581811115614c5857614c5861545f565b614c6a601f8201601f19168501615334565b91508082528784828501011115614c8057600080fd5b80848401858401376000848284010152508093505050509250929050565b60008060408385031215614cb157600080fd5b8235614cbc81615475565b946020939093013593505050565b60008060008060808587031215614ce057600080fd5b8435614ceb81615475565b9350602085013592506040850135614d0281615475565b91506060850135614d128161548a565b939692955090935050565b600060608284031215614d2f57600080fd5b82601f830112614d3e57600080fd5b6040516060810181811067ffffffffffffffff82111715614d6157614d6161545f565b604052808360608101861015614d7657600080fd5b60005b6003811015614d98578151835260209283019290910190600101614d79565b509195945050505050565b600060208284031215614db557600080fd5b815167ffffffffffffffff811115614dcc57600080fd5b614dd884828501614b36565b949350505050565b600060208284031215614df257600080fd5b81516121c18161548a565b600060208284031215614e0f57600080fd5b5035919050565b600060208284031215614e2857600080fd5b5051919050565b60008060408385031215614e4257600080fd5b823591506020830135614e5481615475565b809150509250929050565b600060208284031215614e7157600080fd5b81356001600160e01b0319811681146121c157600080fd5b6000610200828403121561422a57600080fd5b60008060408385031215614eaf57600080fd5b82519150602083015167ffffffffffffffff811115614ecd57600080fd5b614ed985828601614b36565b9150509250929050565b600080600060608486031215614ef857600080fd5b505081359360208301359350604090920135919050565b600081518084526020808501945080840160005b83811015614f485781516001600160a01b031687529582019590820190600101614f23565b509495945050505050565b8060005b6003811015613c58578151845260209384019390910190600101614f57565b60008251614f888184602087016153d5565b9190910192915050565b7f416363657373436f6e74726f6c3a206163636f756e7420000000000000000000815260008351614fca8160178501602088016153d5565b7001034b99036b4b9b9b4b733903937b6329607d1b6017918401918201528351614ffb8160288401602088016153d5565b01602801949350505050565b6001600160a01b038416815260606020820181905260009061502b90830185614f0f565b9050826040830152949350505050565b6001600160a01b03929092168252602082015260400190565b6060815260006150676060830186614f0f565b82810360208401526150798186614f0f565b915050826040830152949350505050565b60c08152600061509d60c0830189614f0f565b82810360208401526150af8189614f0f565b6040840197909752505060608101939093526001600160a01b0391909116608083015260a09091015292915050565b608081016150ec8285614f53565b82151560608301529392505050565b608081016151098285614f53565b8260608301529392505050565b60208152600082518060208401526151358160408501602087016153d5565b601f01601f19169190910160400192915050565b6020808252601f908201527f5265737472696374656420746f20504f5254464f4c494f5f4d414e4147455200604082015260600190565b6020808252602c908201527f46756e6374696f6e206d7573742062652063616c6c6564207468726f7567682060408201526b19195b1959d85d1958d85b1b60a21b606082015260800190565b6020808252602c908201527f46756e6374696f6e206d7573742062652063616c6c6564207468726f7567682060408201526b6163746976652070726f787960a01b606082015260800190565b6020808252602e908201527f496e697469616c697a61626c653a20636f6e747261637420697320616c72656160408201526d191e481a5b9a5d1a585b1a5e995960921b606082015260800190565b6020808252601490820152735265737472696374656420746f2061646d696e7360601b604082015260600190565b60208082526019908201527f536f6d6520746f6b656e206e6f7420636f6d70617469626c6500000000000000604082015260600190565b828152604060208201526000614dd86040830184614f0f565b828152608081016121c16020830184614f53565b85815284602082015260a06040820152600061531760a0830186614f0f565b6001600160a01b0394909416606083015250608001529392505050565b604051601f8201601f1916810167ffffffffffffffff8111828210171561535d5761535d61545f565b604052919050565b6000821982111561537857615378615433565b500190565b60008261539a57634e487b7160e01b600052601260045260246000fd5b500490565b60008160001904831182151516156153b9576153b9615433565b500290565b6000828210156153d0576153d0615433565b500390565b60005b838110156153f05781810151838201526020016153d8565b83811115613c585750506000910152565b60008161541057615410615433565b506000190190565b600060001982141561542c5761542c615433565b5060010190565b634e487b7160e01b600052601160045260246000fd5b634e487b7160e01b600052603260045260246000fd5b634e487b7160e01b600052604160045260246000fd5b6001600160a01b0381168114610d1d57600080fd5b8015158114610d1d57600080fdfe90c2aa7471c04182221f68e80c07ab1e5946e4c63f8693e14ca40385d529f051360894a13ba1a3210667c828492db98dca3e2076cc3735a920a3ca505d382bbc416464726573733a206c6f772d6c6576656c2064656c65676174652063616c6c206661696c6564a2646970667358221220b5ade64c7019f17716135f31ba7f1ed789801ad2893a77100572fb4afb32609064736f6c63430008060033",
  "implementation": "0x02803F6fCB3eDA19C854b2Defb39cbC3817ED986",
  "devdoc": {
    "kind": "dev",
    "methods": {
      "constructor": {
        "custom:oz-upgrades-unsafe-allow": "constructor"
      },
      "getRoleAdmin(bytes32)": {
        "details": "Returns the admin role that controls `role`. See {grantRole} and {revokeRole}. To change a role's admin, use {_setRoleAdmin}."
      },
      "grantRole(bytes32,address)": {
        "details": "Grants `role` to `account`. If `account` had not been already granted `role`, emits a {RoleGranted} event. Requirements: - the caller must have ``role``'s admin role. May emit a {RoleGranted} event."
      },
      "hasRole(bytes32,address)": {
        "details": "Returns `true` if `account` has been granted `role`."
      },
      "proxiableUUID()": {
        "details": "Implementation of the ERC1822 {proxiableUUID} function. This returns the storage slot used by the implementation. It is used to validate the implementation's compatibility when performing an upgrade. IMPORTANT: A proxy pointing at a proxiable contract should not be considered proxiable itself, because this risks bricking a proxy that upgrades to it, by delegating to itself until out of gas. Thus it is critical that this function revert if invoked through a proxy. This is guaranteed by the `notDelegated` modifier."
      },
      "renounceRole(bytes32,address)": {
        "details": "Revokes `role` from the calling account. Roles are often managed via {grantRole} and {revokeRole}: this function's purpose is to provide a mechanism for accounts to lose their privileges if they are compromised (such as when a trusted device is misplaced). If the calling account had been revoked `role`, emits a {RoleRevoked} event. Requirements: - the caller must be `account`. May emit a {RoleRevoked} event."
      },
      "revokeRole(bytes32,address)": {
        "details": "Revokes `role` from `account`. If `account` had been granted `role`, emits a {RoleRevoked} event. Requirements: - the caller must have ``role``'s admin role. May emit a {RoleRevoked} event."
      },
      "supportsInterface(bytes4)": {
        "details": "See {IERC165-supportsInterface}."
      },
      "upgradeTo(address)": {
        "details": "Upgrade the implementation of the proxy to `newImplementation`. Calls {_authorizeUpgrade}. Emits an {Upgraded} event."
      },
      "upgradeToAndCall(address,bytes)": {
        "details": "Upgrade the implementation of the proxy to `newImplementation`, and subsequently execute the function call encoded in `data`. Calls {_authorizeUpgrade}. Emits an {Upgraded} event."
      }
    },
    "version": 1
  },
  "userdoc": {
    "kind": "user",
    "methods": {},
    "version": 1
  },
  "storageLayout": {
    "storage": [
      {
        "astId": 804,
        "contract": "contracts/busd/StrategyEllipsisDotDotBusd.sol:StrategyEllipsisDotDotBusd",
        "label": "_initialized",
        "offset": 0,
        "slot": "0",
        "type": "t_uint8"
      },
      {
        "astId": 807,
        "contract": "contracts/busd/StrategyEllipsisDotDotBusd.sol:StrategyEllipsisDotDotBusd",
        "label": "_initializing",
        "offset": 1,
        "slot": "0",
        "type": "t_bool"
      },
      {
        "astId": 1427,
        "contract": "contracts/busd/StrategyEllipsisDotDotBusd.sol:StrategyEllipsisDotDotBusd",
        "label": "__gap",
        "offset": 0,
        "slot": "1",
        "type": "t_array(t_uint256)50_storage"
      },
      {
        "astId": 1706,
        "contract": "contracts/busd/StrategyEllipsisDotDotBusd.sol:StrategyEllipsisDotDotBusd",
        "label": "__gap",
        "offset": 0,
        "slot": "51",
        "type": "t_array(t_uint256)50_storage"
      },
      {
        "astId": 39,
        "contract": "contracts/busd/StrategyEllipsisDotDotBusd.sol:StrategyEllipsisDotDotBusd",
        "label": "_roles",
        "offset": 0,
        "slot": "101",
        "type": "t_mapping(t_bytes32,t_struct(RoleData)34_storage)"
      },
      {
        "astId": 334,
        "contract": "contracts/busd/StrategyEllipsisDotDotBusd.sol:StrategyEllipsisDotDotBusd",
        "label": "__gap",
        "offset": 0,
        "slot": "102",
        "type": "t_array(t_uint256)49_storage"
      },
      {
        "astId": 786,
        "contract": "contracts/busd/StrategyEllipsisDotDotBusd.sol:StrategyEllipsisDotDotBusd",
        "label": "__gap",
        "offset": 0,
        "slot": "151",
        "type": "t_array(t_uint256)50_storage"
      },
      {
        "astId": 1101,
        "contract": "contracts/busd/StrategyEllipsisDotDotBusd.sol:StrategyEllipsisDotDotBusd",
        "label": "__gap",
        "offset": 0,
        "slot": "201",
        "type": "t_array(t_uint256)50_storage"
      },
      {
        "astId": 13643,
        "contract": "contracts/busd/StrategyEllipsisDotDotBusd.sol:StrategyEllipsisDotDotBusd",
        "label": "portfolioManager",
        "offset": 0,
        "slot": "251",
        "type": "t_address"
      },
      {
        "astId": 13645,
        "contract": "contracts/busd/StrategyEllipsisDotDotBusd.sol:StrategyEllipsisDotDotBusd",
        "label": "swapSlippageBP",
        "offset": 0,
        "slot": "252",
        "type": "t_uint256"
      },
      {
        "astId": 13647,
        "contract": "contracts/busd/StrategyEllipsisDotDotBusd.sol:StrategyEllipsisDotDotBusd",
        "label": "navSlippageBP",
        "offset": 0,
        "slot": "253",
        "type": "t_uint256"
      },
      {
        "astId": 13649,
        "contract": "contracts/busd/StrategyEllipsisDotDotBusd.sol:StrategyEllipsisDotDotBusd",
        "label": "stakeSlippageBP",
        "offset": 0,
        "slot": "254",
        "type": "t_uint256"
      },
      {
        "astId": 14064,
        "contract": "contracts/busd/StrategyEllipsisDotDotBusd.sol:StrategyEllipsisDotDotBusd",
        "label": "__gap",
        "offset": 0,
        "slot": "255",
        "type": "t_array(t_uint256)46_storage"
      },
      {
        "astId": 21342,
        "contract": "contracts/busd/StrategyEllipsisDotDotBusd.sol:StrategyEllipsisDotDotBusd",
        "label": "busd",
        "offset": 0,
        "slot": "301",
        "type": "t_contract(IERC20)3248"
      },
      {
        "astId": 21345,
        "contract": "contracts/busd/StrategyEllipsisDotDotBusd.sol:StrategyEllipsisDotDotBusd",
        "label": "usdc",
        "offset": 0,
        "slot": "302",
        "type": "t_contract(IERC20)3248"
      },
      {
        "astId": 21348,
        "contract": "contracts/busd/StrategyEllipsisDotDotBusd.sol:StrategyEllipsisDotDotBusd",
        "label": "usdt",
        "offset": 0,
        "slot": "303",
        "type": "t_contract(IERC20)3248"
      },
      {
        "astId": 21351,
        "contract": "contracts/busd/StrategyEllipsisDotDotBusd.sol:StrategyEllipsisDotDotBusd",
        "label": "wBnb",
        "offset": 0,
        "slot": "304",
        "type": "t_contract(IERC20)3248"
      },
      {
        "astId": 21354,
        "contract": "contracts/busd/StrategyEllipsisDotDotBusd.sol:StrategyEllipsisDotDotBusd",
        "label": "ddd",
        "offset": 0,
        "slot": "305",
        "type": "t_contract(IERC20)3248"
      },
      {
        "astId": 21357,
        "contract": "contracts/busd/StrategyEllipsisDotDotBusd.sol:StrategyEllipsisDotDotBusd",
        "label": "epx",
        "offset": 0,
        "slot": "306",
        "type": "t_contract(IERC20)3248"
      },
      {
        "astId": 21360,
        "contract": "contracts/busd/StrategyEllipsisDotDotBusd.sol:StrategyEllipsisDotDotBusd",
        "label": "valas",
        "offset": 0,
        "slot": "307",
        "type": "t_contract(IERC20)3248"
      },
      {
        "astId": 21363,
        "contract": "contracts/busd/StrategyEllipsisDotDotBusd.sol:StrategyEllipsisDotDotBusd",
        "label": "val3EPS",
        "offset": 0,
        "slot": "308",
        "type": "t_contract(IERC20)3248"
      },
      {
        "astId": 21366,
        "contract": "contracts/busd/StrategyEllipsisDotDotBusd.sol:StrategyEllipsisDotDotBusd",
        "label": "pool",
        "offset": 0,
        "slot": "309",
        "type": "t_contract(IEllipsisPool)7392"
      },
      {
        "astId": 21369,
        "contract": "contracts/busd/StrategyEllipsisDotDotBusd.sol:StrategyEllipsisDotDotBusd",
        "label": "lpDepositor",
        "offset": 0,
        "slot": "310",
        "type": "t_contract(ILpDepositor)7182"
      },
      {
        "astId": 21372,
        "contract": "contracts/busd/StrategyEllipsisDotDotBusd.sol:StrategyEllipsisDotDotBusd",
        "label": "pancakeRouter",
        "offset": 0,
        "slot": "311",
        "type": "t_contract(IPancakeRouter02)8411"
      },
      {
        "astId": 21375,
        "contract": "contracts/busd/StrategyEllipsisDotDotBusd.sol:StrategyEllipsisDotDotBusd",
        "label": "wombatRouter",
        "offset": 0,
        "slot": "312",
        "type": "t_contract(IWombatRouter)12462"
      },
      {
        "astId": 21377,
        "contract": "contracts/busd/StrategyEllipsisDotDotBusd.sol:StrategyEllipsisDotDotBusd",
        "label": "wombatPool",
        "offset": 0,
        "slot": "313",
        "type": "t_address"
      },
      {
        "astId": 21380,
        "contract": "contracts/busd/StrategyEllipsisDotDotBusd.sol:StrategyEllipsisDotDotBusd",
        "label": "oracleBusd",
        "offset": 0,
        "slot": "314",
        "type": "t_contract(IPriceFeed)5774"
      },
      {
        "astId": 21383,
        "contract": "contracts/busd/StrategyEllipsisDotDotBusd.sol:StrategyEllipsisDotDotBusd",
        "label": "oracleUsdc",
        "offset": 0,
        "slot": "315",
        "type": "t_contract(IPriceFeed)5774"
      },
      {
        "astId": 21386,
        "contract": "contracts/busd/StrategyEllipsisDotDotBusd.sol:StrategyEllipsisDotDotBusd",
        "label": "oracleUsdt",
        "offset": 0,
        "slot": "316",
        "type": "t_contract(IPriceFeed)5774"
      },
      {
        "astId": 21388,
        "contract": "contracts/busd/StrategyEllipsisDotDotBusd.sol:StrategyEllipsisDotDotBusd",
        "label": "dm18",
        "offset": 0,
        "slot": "317",
        "type": "t_uint256"
      }
    ],
    "types": {
      "t_address": {
        "encoding": "inplace",
        "label": "address",
        "numberOfBytes": "20"
      },
      "t_array(t_uint256)46_storage": {
        "base": "t_uint256",
        "encoding": "inplace",
        "label": "uint256[46]",
        "numberOfBytes": "1472"
      },
      "t_array(t_uint256)49_storage": {
        "base": "t_uint256",
        "encoding": "inplace",
        "label": "uint256[49]",
        "numberOfBytes": "1568"
      },
      "t_array(t_uint256)50_storage": {
        "base": "t_uint256",
        "encoding": "inplace",
        "label": "uint256[50]",
        "numberOfBytes": "1600"
      },
      "t_bool": {
        "encoding": "inplace",
        "label": "bool",
        "numberOfBytes": "1"
      },
      "t_bytes32": {
        "encoding": "inplace",
        "label": "bytes32",
        "numberOfBytes": "32"
      },
      "t_contract(IERC20)3248": {
        "encoding": "inplace",
        "label": "contract IERC20",
        "numberOfBytes": "20"
      },
      "t_contract(IEllipsisPool)7392": {
        "encoding": "inplace",
        "label": "contract IEllipsisPool",
        "numberOfBytes": "20"
      },
      "t_contract(ILpDepositor)7182": {
        "encoding": "inplace",
        "label": "contract ILpDepositor",
        "numberOfBytes": "20"
      },
      "t_contract(IPancakeRouter02)8411": {
        "encoding": "inplace",
        "label": "contract IPancakeRouter02",
        "numberOfBytes": "20"
      },
      "t_contract(IPriceFeed)5774": {
        "encoding": "inplace",
        "label": "contract IPriceFeed",
        "numberOfBytes": "20"
      },
      "t_contract(IWombatRouter)12462": {
        "encoding": "inplace",
        "label": "contract IWombatRouter",
        "numberOfBytes": "20"
      },
      "t_mapping(t_address,t_bool)": {
        "encoding": "mapping",
        "key": "t_address",
        "label": "mapping(address => bool)",
        "numberOfBytes": "32",
        "value": "t_bool"
      },
      "t_mapping(t_bytes32,t_struct(RoleData)34_storage)": {
        "encoding": "mapping",
        "key": "t_bytes32",
        "label": "mapping(bytes32 => struct AccessControlUpgradeable.RoleData)",
        "numberOfBytes": "32",
        "value": "t_struct(RoleData)34_storage"
      },
      "t_struct(RoleData)34_storage": {
        "encoding": "inplace",
        "label": "struct AccessControlUpgradeable.RoleData",
        "members": [
          {
            "astId": 31,
            "contract": "contracts/busd/StrategyEllipsisDotDotBusd.sol:StrategyEllipsisDotDotBusd",
            "label": "members",
            "offset": 0,
            "slot": "0",
            "type": "t_mapping(t_address,t_bool)"
          },
          {
            "astId": 33,
            "contract": "contracts/busd/StrategyEllipsisDotDotBusd.sol:StrategyEllipsisDotDotBusd",
            "label": "adminRole",
            "offset": 0,
            "slot": "1",
            "type": "t_bytes32"
          }
        ],
        "numberOfBytes": "64"
      },
      "t_uint256": {
        "encoding": "inplace",
        "label": "uint256",
        "numberOfBytes": "32"
      },
      "t_uint8": {
        "encoding": "inplace",
        "label": "uint8",
        "numberOfBytes": "1"
      }
    }
  }
}