{
  "address": "0xEFf8eCa10c33B2933825061Ec30b53a033f76159",
  "abi": [
    {
      "inputs": [],
      "stateMutability": "nonpayable",
      "type": "constructor"
    },
    {
      "anonymous": false,
      "inputs": [
        {
          "indexed": false,
          "internalType": "address",
          "name": "previousAdmin",
          "type": "address"
        },
        {
          "indexed": false,
          "internalType": "address",
          "name": "newAdmin",
          "type": "address"
        }
      ],
      "name": "AdminChanged",
      "type": "event"
    },
    {
      "anonymous": false,
      "inputs": [
        {
          "indexed": true,
          "internalType": "address",
          "name": "beacon",
          "type": "address"
        }
      ],
      "name": "BeaconUpgraded",
      "type": "event"
    },
    {
      "anonymous": false,
      "inputs": [
        {
          "indexed": false,
          "internalType": "uint8",
          "name": "version",
          "type": "uint8"
        }
      ],
      "name": "Initialized",
      "type": "event"
    },
    {
      "anonymous": false,
      "inputs": [
        {
          "indexed": false,
          "internalType": "address",
          "name": "value",
          "type": "address"
        }
      ],
      "name": "PortfolioManagerUpdated",
      "type": "event"
    },
    {
      "anonymous": false,
      "inputs": [
        {
          "indexed": false,
          "internalType": "uint256",
          "name": "amount",
          "type": "uint256"
        }
      ],
      "name": "Reward",
      "type": "event"
    },
    {
      "anonymous": false,
      "inputs": [
        {
          "indexed": true,
          "internalType": "bytes32",
          "name": "role",
          "type": "bytes32"
        },
        {
          "indexed": true,
          "internalType": "bytes32",
          "name": "previousAdminRole",
          "type": "bytes32"
        },
        {
          "indexed": true,
          "internalType": "bytes32",
          "name": "newAdminRole",
          "type": "bytes32"
        }
      ],
      "name": "RoleAdminChanged",
      "type": "event"
    },
    {
      "anonymous": false,
      "inputs": [
        {
          "indexed": true,
          "internalType": "bytes32",
          "name": "role",
          "type": "bytes32"
        },
        {
          "indexed": true,
          "internalType": "address",
          "name": "account",
          "type": "address"
        },
        {
          "indexed": true,
          "internalType": "address",
          "name": "sender",
          "type": "address"
        }
      ],
      "name": "RoleGranted",
      "type": "event"
    },
    {
      "anonymous": false,
      "inputs": [
        {
          "indexed": true,
          "internalType": "bytes32",
          "name": "role",
          "type": "bytes32"
        },
        {
          "indexed": true,
          "internalType": "address",
          "name": "account",
          "type": "address"
        },
        {
          "indexed": true,
          "internalType": "address",
          "name": "sender",
          "type": "address"
        }
      ],
      "name": "RoleRevoked",
      "type": "event"
    },
    {
      "anonymous": false,
      "inputs": [
        {
          "indexed": false,
          "internalType": "uint256",
          "name": "swapSlippageBP",
          "type": "uint256"
        },
        {
          "indexed": false,
          "internalType": "uint256",
          "name": "navSlippageBP",
          "type": "uint256"
        }
      ],
      "name": "SlippagesUpdated",
      "type": "event"
    },
    {
      "anonymous": false,
      "inputs": [
        {
          "indexed": false,
          "internalType": "uint256",
          "name": "amount",
          "type": "uint256"
        }
      ],
      "name": "Stake",
      "type": "event"
    },
    {
      "anonymous": false,
      "inputs": [],
      "name": "StrategyUpdatedParams",
      "type": "event"
    },
    {
      "anonymous": false,
      "inputs": [
        {
          "indexed": false,
          "internalType": "uint256",
          "name": "amount",
          "type": "uint256"
        },
        {
          "indexed": false,
          "internalType": "uint256",
          "name": "amountReceived",
          "type": "uint256"
        }
      ],
      "name": "Unstake",
      "type": "event"
    },
    {
      "anonymous": false,
      "inputs": [
        {
          "indexed": true,
          "internalType": "address",
          "name": "implementation",
          "type": "address"
        }
      ],
      "name": "Upgraded",
      "type": "event"
    },
    {
      "inputs": [],
      "name": "DEFAULT_ADMIN_ROLE",
      "outputs": [
        {
          "internalType": "bytes32",
          "name": "",
          "type": "bytes32"
        }
      ],
      "stateMutability": "view",
      "type": "function"
    },
    {
      "inputs": [],
      "name": "PORTFOLIO_AGENT_ROLE",
      "outputs": [
        {
          "internalType": "bytes32",
          "name": "",
          "type": "bytes32"
        }
      ],
      "stateMutability": "view",
      "type": "function"
    },
    {
      "inputs": [],
      "name": "PORTFOLIO_MANAGER",
      "outputs": [
        {
          "internalType": "bytes32",
          "name": "",
          "type": "bytes32"
        }
      ],
      "stateMutability": "view",
      "type": "function"
    },
    {
      "inputs": [],
      "name": "busd",
      "outputs": [
        {
          "internalType": "contract IERC20",
          "name": "",
          "type": "address"
        }
      ],
      "stateMutability": "view",
      "type": "function"
    },
    {
      "inputs": [],
      "name": "busdDm",
      "outputs": [
        {
          "internalType": "uint256",
          "name": "",
          "type": "uint256"
        }
      ],
      "stateMutability": "view",
      "type": "function"
    },
    {
      "inputs": [
        {
          "internalType": "address",
          "name": "_to",
          "type": "address"
        }
      ],
      "name": "claimRewards",
      "outputs": [
        {
          "internalType": "uint256",
          "name": "",
          "type": "uint256"
        }
      ],
      "stateMutability": "nonpayable",
      "type": "function"
    },
    {
      "inputs": [],
      "name": "gauge",
      "outputs": [
        {
          "internalType": "contract IGaugeV2",
          "name": "",
          "type": "address"
        }
      ],
      "stateMutability": "view",
      "type": "function"
    },
    {
      "inputs": [
        {
          "internalType": "bytes32",
          "name": "role",
          "type": "bytes32"
        }
      ],
      "name": "getRoleAdmin",
      "outputs": [
        {
          "internalType": "bytes32",
          "name": "",
          "type": "bytes32"
        }
      ],
      "stateMutability": "view",
      "type": "function"
    },
    {
      "inputs": [
        {
          "internalType": "bytes32",
          "name": "role",
          "type": "bytes32"
        },
        {
          "internalType": "address",
          "name": "account",
          "type": "address"
        }
      ],
      "name": "grantRole",
      "outputs": [],
      "stateMutability": "nonpayable",
      "type": "function"
    },
    {
      "inputs": [
        {
          "internalType": "bytes32",
          "name": "role",
          "type": "bytes32"
        },
        {
          "internalType": "address",
          "name": "account",
          "type": "address"
        }
      ],
      "name": "hasRole",
      "outputs": [
        {
          "internalType": "bool",
          "name": "",
          "type": "bool"
        }
      ],
      "stateMutability": "view",
      "type": "function"
    },
    {
      "inputs": [
        {
          "internalType": "uint256",
          "name": "_swapSlippageBP",
          "type": "uint256"
        },
        {
          "internalType": "uint256",
          "name": "_navSlippageBP",
          "type": "uint256"
        }
      ],
      "name": "initSlippages",
      "outputs": [],
      "stateMutability": "nonpayable",
      "type": "function"
    },
    {
      "inputs": [],
      "name": "initialize",
      "outputs": [],
      "stateMutability": "nonpayable",
      "type": "function"
    },
    {
      "inputs": [],
      "name": "liquidationValue",
      "outputs": [
        {
          "internalType": "uint256",
          "name": "",
          "type": "uint256"
        }
      ],
      "stateMutability": "view",
      "type": "function"
    },
    {
      "inputs": [],
      "name": "navSlippageBP",
      "outputs": [
        {
          "internalType": "uint256",
          "name": "",
          "type": "uint256"
        }
      ],
      "stateMutability": "view",
      "type": "function"
    },
    {
      "inputs": [],
      "name": "netAssetValue",
      "outputs": [
        {
          "internalType": "uint256",
          "name": "",
          "type": "uint256"
        }
      ],
      "stateMutability": "view",
      "type": "function"
    },
    {
      "inputs": [],
      "name": "oracleBusd",
      "outputs": [
        {
          "internalType": "contract IPriceFeed",
          "name": "",
          "type": "address"
        }
      ],
      "stateMutability": "view",
      "type": "function"
    },
    {
      "inputs": [],
      "name": "oracleUsdc",
      "outputs": [
        {
          "internalType": "contract IPriceFeed",
          "name": "",
          "type": "address"
        }
      ],
      "stateMutability": "view",
      "type": "function"
    },
    {
      "inputs": [],
      "name": "pair",
      "outputs": [
        {
          "internalType": "contract IPair",
          "name": "",
          "type": "address"
        }
      ],
      "stateMutability": "view",
      "type": "function"
    },
    {
      "inputs": [],
      "name": "portfolioManager",
      "outputs": [
        {
          "internalType": "address",
          "name": "",
          "type": "address"
        }
      ],
      "stateMutability": "view",
      "type": "function"
    },
    {
      "inputs": [],
      "name": "proxiableUUID",
      "outputs": [
        {
          "internalType": "bytes32",
          "name": "",
          "type": "bytes32"
        }
      ],
      "stateMutability": "view",
      "type": "function"
    },
    {
      "inputs": [
        {
          "internalType": "bytes32",
          "name": "role",
          "type": "bytes32"
        },
        {
          "internalType": "address",
          "name": "account",
          "type": "address"
        }
      ],
      "name": "renounceRole",
      "outputs": [],
      "stateMutability": "nonpayable",
      "type": "function"
    },
    {
      "inputs": [
        {
          "internalType": "bytes32",
          "name": "role",
          "type": "bytes32"
        },
        {
          "internalType": "address",
          "name": "account",
          "type": "address"
        }
      ],
      "name": "revokeRole",
      "outputs": [],
      "stateMutability": "nonpayable",
      "type": "function"
    },
    {
      "inputs": [],
      "name": "router",
      "outputs": [
        {
          "internalType": "contract IRouter",
          "name": "",
          "type": "address"
        }
      ],
      "stateMutability": "view",
      "type": "function"
    },
    {
      "inputs": [
        {
          "components": [
            {
              "internalType": "address",
              "name": "busd",
              "type": "address"
            },
            {
              "internalType": "address",
              "name": "usdc",
              "type": "address"
            },
            {
              "internalType": "address",
              "name": "the",
              "type": "address"
            },
            {
              "internalType": "address",
              "name": "pair",
              "type": "address"
            },
            {
              "internalType": "address",
              "name": "router",
              "type": "address"
            },
            {
              "internalType": "address",
              "name": "gauge",
              "type": "address"
            },
            {
              "internalType": "address",
              "name": "wombatPool",
              "type": "address"
            },
            {
              "internalType": "address",
              "name": "wombatRouter",
              "type": "address"
            },
            {
              "internalType": "address",
              "name": "oracleBusd",
              "type": "address"
            },
            {
              "internalType": "address",
              "name": "oracleUsdc",
              "type": "address"
            }
          ],
          "internalType": "struct StrategyThenaBusdUsdc.StrategyParams",
          "name": "params",
          "type": "tuple"
        }
      ],
      "name": "setParams",
      "outputs": [],
      "stateMutability": "nonpayable",
      "type": "function"
    },
    {
      "inputs": [
        {
          "internalType": "address",
          "name": "_value",
          "type": "address"
        }
      ],
      "name": "setPortfolioManager",
      "outputs": [],
      "stateMutability": "nonpayable",
      "type": "function"
    },
    {
      "inputs": [
        {
          "internalType": "uint256",
          "name": "_swapSlippageBP",
          "type": "uint256"
        },
        {
          "internalType": "uint256",
          "name": "_navSlippageBP",
          "type": "uint256"
        }
      ],
      "name": "setSlippages",
      "outputs": [],
      "stateMutability": "nonpayable",
      "type": "function"
    },
    {
      "inputs": [
        {
          "internalType": "address",
          "name": "_asset",
          "type": "address"
        },
        {
          "internalType": "uint256",
          "name": "_amount",
          "type": "uint256"
        }
      ],
      "name": "stake",
      "outputs": [],
      "stateMutability": "nonpayable",
      "type": "function"
    },
    {
      "inputs": [
        {
          "internalType": "bytes4",
          "name": "interfaceId",
          "type": "bytes4"
        }
      ],
      "name": "supportsInterface",
      "outputs": [
        {
          "internalType": "bool",
          "name": "",
          "type": "bool"
        }
      ],
      "stateMutability": "view",
      "type": "function"
    },
    {
      "inputs": [],
      "name": "swapSlippageBP",
      "outputs": [
        {
          "internalType": "uint256",
          "name": "",
          "type": "uint256"
        }
      ],
      "stateMutability": "view",
      "type": "function"
    },
    {
      "inputs": [],
      "name": "the",
      "outputs": [
        {
          "internalType": "contract IERC20",
          "name": "",
          "type": "address"
        }
      ],
      "stateMutability": "view",
      "type": "function"
    },
    {
      "inputs": [
        {
          "internalType": "address",
          "name": "_asset",
          "type": "address"
        },
        {
          "internalType": "uint256",
          "name": "_amount",
          "type": "uint256"
        },
        {
          "internalType": "address",
          "name": "_beneficiary",
          "type": "address"
        },
        {
          "internalType": "bool",
          "name": "_targetIsZero",
          "type": "bool"
        }
      ],
      "name": "unstake",
      "outputs": [
        {
          "internalType": "uint256",
          "name": "",
          "type": "uint256"
        }
      ],
      "stateMutability": "nonpayable",
      "type": "function"
    },
    {
      "inputs": [
        {
          "internalType": "address",
          "name": "newImplementation",
          "type": "address"
        }
      ],
      "name": "upgradeTo",
      "outputs": [],
      "stateMutability": "nonpayable",
      "type": "function"
    },
    {
      "inputs": [
        {
          "internalType": "address",
          "name": "newImplementation",
          "type": "address"
        },
        {
          "internalType": "bytes",
          "name": "data",
          "type": "bytes"
        }
      ],
      "name": "upgradeToAndCall",
      "outputs": [],
      "stateMutability": "payable",
      "type": "function"
    },
    {
      "inputs": [],
      "name": "usdc",
      "outputs": [
        {
          "internalType": "contract IERC20",
          "name": "",
          "type": "address"
        }
      ],
      "stateMutability": "view",
      "type": "function"
    },
    {
      "inputs": [],
      "name": "usdcDm",
      "outputs": [
        {
          "internalType": "uint256",
          "name": "",
          "type": "uint256"
        }
      ],
      "stateMutability": "view",
      "type": "function"
    },
    {
      "inputs": [],
      "name": "wombatPool",
      "outputs": [
        {
          "internalType": "contract IPool",
          "name": "",
          "type": "address"
        }
      ],
      "stateMutability": "view",
      "type": "function"
    },
    {
      "inputs": [],
      "name": "wombatRouter",
      "outputs": [
        {
          "internalType": "contract IWombatRouter",
          "name": "",
          "type": "address"
        }
      ],
      "stateMutability": "view",
      "type": "function"
    }
  ],
  "numDeployments": 1,
  "solcInputHash": "436ab876b123bb3daa2a337a957ae993",
  "bytecode": "0x60a06040523060601b6080523480156200001857600080fd5b50600054610100900460ff16158080156200003a5750600054600160ff909116105b806200006a575062000057306200014460201b620016b81760201c565b1580156200006a575060005460ff166001145b620000d25760405162461bcd60e51b815260206004820152602e60248201527f496e697469616c697a61626c653a20636f6e747261637420697320616c72656160448201526d191e481a5b9a5d1a585b1a5e995960921b606482015260840160405180910390fd5b6000805460ff191660011790558015620000f6576000805461ff0019166101001790555b80156200013d576000805461ff0019169055604051600181527f7f26b83ff96e1f2b6a682f133852f6798a09c465da95921460cefb38474024989060200160405180910390a15b5062000153565b6001600160a01b03163b151590565b60805160601c614bf16200018e6000396000818161083401528181610874015281816109140152818161095401526109e30152614bf16000f3fe60806040526004361061021a5760003560e01c80636b42c57611610123578063a6f19c84116100ab578063dc19d6431161006f578063dc19d64314610629578063ddefa4ab14610640578063ef5cfb8c14610661578063f6f6b88114610681578063f887ea40146106a157600080fd5b8063a6f19c8414610591578063a8aa1b31146105b2578063adc9772e146105d3578063bf52e080146105f3578063d547741f1461060957600080fd5b806392d2918a116100f257806392d2918a14610506578063a217fddf14610526578063a3673b381461053b578063a440b21a14610550578063a66b57131461057057600080fd5b80636b42c5761461048f5780637d5f5802146104af5780638129fc1c146104d157806391d14854146104e657600080fd5b80633659cfe6116101a657806352d1902d1161017557806352d1902d146103e45780635dbd733a146103f95780635fea9cbb1461042d578063612c87df1461044e578063620b75df1461046f57600080fd5b80633659cfe61461036f5780633ca5b2341461038f5780633e413bee146103b05780634f1ef286146103d157600080fd5b80631b1e7ddc116101ed5780631b1e7ddc146102d3578063248a9ca3146102ea5780632576e65a1461031a5780632f2ff15d1461032f57806336568abe1461034f57600080fd5b8063012ee9281461021f57806301ffc9a71461025d578063119cd8791461028d57806318bc0faa146102b1575b600080fd5b34801561022b57600080fd5b5061013354610240906001600160a01b031681565b6040516001600160a01b0390911681526020015b60405180910390f35b34801561026957600080fd5b5061027d6102783660046143e0565b6106c2565b6040519015158152602001610254565b34801561029957600080fd5b506102a360fd5481565b604051908152602001610254565b3480156102bd57600080fd5b506102d16102cc36600461446a565b6106f9565b005b3480156102df57600080fd5b506102a36101385481565b3480156102f657600080fd5b506102a3610305366004614382565b60009081526065602052604090206001015490565b34801561032657600080fd5b506102a3610770565b34801561033b57600080fd5b506102d161034a3660046143b4565b610781565b34801561035b57600080fd5b506102d161036a3660046143b4565b6107ab565b34801561037b57600080fd5b506102d161038a3660046141ee565b610829565b34801561039b57600080fd5b5061012d54610240906001600160a01b031681565b3480156103bc57600080fd5b5061012e54610240906001600160a01b031681565b6102d16103df366004614209565b610909565b3480156103f057600080fd5b506102a36109d6565b34801561040557600080fd5b506102a37fd67ad422505496469a1adf6cdf9e5ee92ac5d33992843c9ecc4b2f6d6cde913781565b34801561043957600080fd5b5061013654610240906001600160a01b031681565b34801561045a57600080fd5b5061013454610240906001600160a01b031681565b34801561047b57600080fd5b5060fb54610240906001600160a01b031681565b34801561049b57600080fd5b506102d16104aa36600461446a565b610a89565b3480156104bb57600080fd5b506102a3600080516020614b5583398151915281565b3480156104dd57600080fd5b506102d1610bb1565b3480156104f257600080fd5b5061027d6105013660046143b4565b610c7b565b34801561051257600080fd5b506102d161052136600461440a565b610ca6565b34801561053257600080fd5b506102a3600081565b34801561054757600080fd5b506102a3611000565b34801561055c57600080fd5b506102d161056b3660046141ee565b61100c565b34801561057c57600080fd5b5061013554610240906001600160a01b031681565b34801561059d57600080fd5b5061013254610240906001600160a01b031681565b3480156105be57600080fd5b5061013054610240906001600160a01b031681565b3480156105df57600080fd5b506102d16105ee3660046142af565b611114565b3480156105ff57600080fd5b506102a360fc5481565b34801561061557600080fd5b506102d16106243660046143b4565b611343565b34801561063557600080fd5b506102a36101375481565b34801561064c57600080fd5b5061012f54610240906001600160a01b031681565b34801561066d57600080fd5b506102a361067c3660046141ee565b611368565b34801561068d57600080fd5b506102a361069c3660046142d9565b6113ed565b3480156106ad57600080fd5b5061013154610240906001600160a01b031681565b60006001600160e01b03198216637965db0b60e01b14806106f357506301ffc9a760e01b6001600160e01b03198316145b92915050565b610704600033610c7b565b6107295760405162461bcd60e51b815260040161072090614878565b60405180910390fd5b60fc82905560fd81905560408051838152602081018390527fce5a32eeae390ce399fd83b29e4bee51b2b1a5898dc3575411e3a498f4f552a0910160405180910390a15050565b600061077c60006116c7565b905090565b60008281526065602052604090206001015461079c81611a10565b6107a68383611a1a565b505050565b6001600160a01b038116331461081b5760405162461bcd60e51b815260206004820152602f60248201527f416363657373436f6e74726f6c3a2063616e206f6e6c792072656e6f756e636560448201526e103937b632b9903337b91039b2b63360891b6064820152608401610720565b6108258282611aa0565b5050565b306001600160a01b037f00000000000000000000000000000000000000000000000000000000000000001614156108725760405162461bcd60e51b815260040161072090614792565b7f00000000000000000000000000000000000000000000000000000000000000006001600160a01b03166108bb600080516020614b75833981519152546001600160a01b031690565b6001600160a01b0316146108e15760405162461bcd60e51b8152600401610720906147de565b6108ea81611b07565b6040805160008082526020820190925261090691839190611b12565b50565b306001600160a01b037f00000000000000000000000000000000000000000000000000000000000000001614156109525760405162461bcd60e51b815260040161072090614792565b7f00000000000000000000000000000000000000000000000000000000000000006001600160a01b031661099b600080516020614b75833981519152546001600160a01b031690565b6001600160a01b0316146109c15760405162461bcd60e51b8152600401610720906147de565b6109ca82611b07565b61082582826001611b12565b6000306001600160a01b037f00000000000000000000000000000000000000000000000000000000000000001614610a765760405162461bcd60e51b815260206004820152603860248201527f555550535570677261646561626c653a206d757374206e6f742062652063616c60448201527f6c6564207468726f7567682064656c656761746563616c6c00000000000000006064820152608401610720565b50600080516020614b7583398151915290565b610ab37fd67ad422505496469a1adf6cdf9e5ee92ac5d33992843c9ecc4b2f6d6cde913733610c7b565b80610b5a575060fb54604051632474521560e21b81527fd67ad422505496469a1adf6cdf9e5ee92ac5d33992843c9ecc4b2f6d6cde913760048201523360248201526001600160a01b03909116906391d148549060440160206040518083038186803b158015610b2257600080fd5b505afa158015610b36573d6000803e3d6000fd5b505050506040513d601f19601f82011682018060405250810190610b5a9190614365565b6107295760405162461bcd60e51b815260206004820152602260248201527f5265737472696374656420746f20504f5254464f4c494f5f4147454e545f524f6044820152614c4560f01b6064820152608401610720565b600054610100900460ff1615808015610bd15750600054600160ff909116105b80610beb5750303b158015610beb575060005460ff166001145b610c075760405162461bcd60e51b81526004016107209061482a565b6000805460ff191660011790558015610c2a576000805461ff0019166101001790555b610c32611c8c565b8015610906576000805461ff0019169055604051600181527f7f26b83ff96e1f2b6a682f133852f6798a09c465da95921460cefb3847402498906020015b60405180910390a150565b60009182526065602090815260408084206001600160a01b0393909316845291905290205460ff1690565b610cb1600033610c7b565b610ccd5760405162461bcd60e51b815260040161072090614878565b610cda60208201826141ee565b61012d80546001600160a01b0319166001600160a01b0392909216919091179055610d0b60408201602083016141ee565b61012e80546001600160a01b0319166001600160a01b0392909216919091179055610d3c60608201604083016141ee565b61012f80546001600160a01b0319166001600160a01b0392909216919091179055610d6d60808201606083016141ee565b61013080546001600160a01b0319166001600160a01b0392909216919091179055610d9e60a08201608083016141ee565b61013180546001600160a01b0319166001600160a01b0392909216919091179055610dcf60c0820160a083016141ee565b61013280546001600160a01b0319166001600160a01b0392909216919091179055610e0060e0820160c083016141ee565b61013380546001600160a01b0319166001600160a01b0392909216919091179055610e32610100820160e083016141ee565b61013480546001600160a01b0319166001600160a01b0392909216919091179055610e65610120820161010083016141ee565b61013580546001600160a01b0319166001600160a01b0392909216919091179055610e98610140820161012083016141ee565b61013680546001600160a01b0319166001600160a01b0392909216919091179055610ec660208201826141ee565b6001600160a01b031663313ce5676040518163ffffffff1660e01b815260040160206040518083038186803b158015610efe57600080fd5b505afa158015610f12573d6000803e3d6000fd5b505050506040513d601f19601f82011682018060405250810190610f3691906144de565b610f4190600a6149e0565b61013755610f5560408201602083016141ee565b6001600160a01b031663313ce5676040518163ffffffff1660e01b815260040160206040518083038186803b158015610f8d57600080fd5b505afa158015610fa1573d6000803e3d6000fd5b505050506040513d601f19601f82011682018060405250810190610fc591906144de565b610fd090600a6149e0565b610138556040517fea5646eb3528e525944447a4a97de700dd472298626e5c0481d1c82c3da86ea590600090a150565b600061077c60016116c7565b611017600033610c7b565b6110335760405162461bcd60e51b815260040161072090614878565b6001600160a01b0381166110895760405162461bcd60e51b815260206004820152601860248201527f5a65726f2061646472657373206e6f7420616c6c6f77656400000000000000006044820152606401610720565b60fb546110ae90600080516020614b55833981519152906001600160a01b0316611343565b6110c6600080516020614b5583398151915282610781565b60fb80546001600160a01b0319166001600160a01b0383169081179091556040519081527ff7b449fcd5cfb7379dcd34cb69428dd9f882033b15be33d83b42d91daa28eeb790602001610c70565b61112c600080516020614b5583398151915233610c7b565b6111485760405162461bcd60e51b81526004016107209061475b565b60006111c6306001600160a01b031663a3673b386040518163ffffffff1660e01b815260040160206040518083038186803b15801561118657600080fd5b505afa15801561119a573d6000803e3d6000fd5b505050506040513d601f19601f820116820180604052508101906111be919061439b565b60fd54611d6c565b6040516370a0823160e01b815230600482015290915061124b9084906001600160a01b038216906370a082319060240160206040518083038186803b15801561120e57600080fd5b505afa158015611222573d6000803e3d6000fd5b505050506040513d601f19601f82011682018060405250810190611246919061439b565b611d96565b80306001600160a01b031663a3673b386040518163ffffffff1660e01b815260040160206040518083038186803b15801561128557600080fd5b505afa158015611299573d6000803e3d6000fd5b505050506040513d601f19601f820116820180604052508101906112bd919061439b565b101561130b5760405162461bcd60e51b815260206004820152601f60248201527f5374726174656779204e4156206c657373207468616e206578706563746564006044820152606401610720565b6040518281527f227a473b70d2f893cc7659219575c030a63b5743024fe1e0c1a680e708b1525a9060200160405180910390a1505050565b60008281526065602052604090206001015461135e81611a10565b6107a68383611aa0565b6000611382600080516020614b5583398151915233610c7b565b61139e5760405162461bcd60e51b81526004016107209061475b565b60006113a983612478565b905080156113e5576040518181527f3ac0594a85a20354f9dc74f33728416d19ce00d04a406c108cc2dcf2cecea1349060200160405180910390a15b90505b919050565b6000611407600080516020614b5583398151915233610c7b565b6114235760405162461bcd60e51b81526004016107209061475b565b6000611461306001600160a01b031663a3673b386040518163ffffffff1660e01b815260040160206040518083038186803b15801561118657600080fd5b905060008084156114885761147586612478565b90506114818887612701565b91506114f7565b611493888888612c83565b9150868210156114f75760405162461bcd60e51b815260206004820152602960248201527f52657475726e65642076616c7565206c657373207468616e2072657175657374604482015268195908185b5bdd5b9d60ba1b6064820152608401610720565b82306001600160a01b031663a3673b386040518163ffffffff1660e01b815260040160206040518083038186803b15801561153157600080fd5b505afa158015611545573d6000803e3d6000fd5b505050506040513d601f19601f82011682018060405250810190611569919061439b565b10156115b75760405162461bcd60e51b815260206004820152601f60248201527f5374726174656779204e4156206c657373207468616e206578706563746564006044820152606401610720565b60405163a9059cbb60e01b81526001600160a01b0387811660048301526024820184905289169063a9059cbb90604401602060405180830381600087803b15801561160157600080fd5b505af1158015611615573d6000803e3d6000fd5b505050506040513d601f19601f820116820180604052508101906116399190614365565b5060408051888152602081018490527f9045c2ac9b2026de8075f2701bbdde882cd5e830b3b1ead9a15b22f2b5b93742910160405180910390a180156116ad576040518181527f3ac0594a85a20354f9dc74f33728416d19ce00d04a406c108cc2dcf2cecea1349060200160405180910390a15b509695505050505050565b6001600160a01b03163b151590565b61012d546040516370a0823160e01b815230600482015260009182916001600160a01b03909116906370a082319060240160206040518083038186803b15801561171057600080fd5b505afa158015611724573d6000803e3d6000fd5b505050506040513d601f19601f82011682018060405250810190611748919061439b565b61012e546040516370a0823160e01b81523060048201529192506000916001600160a01b03909116906370a082319060240160206040518083038186803b15801561179257600080fd5b505afa1580156117a6573d6000803e3d6000fd5b505050506040513d601f19601f820116820180604052508101906117ca919061439b565b610132546040516370a0823160e01b81523060048201529192506000916001600160a01b03909116906370a082319060240160206040518083038186803b15801561181457600080fd5b505afa158015611828573d6000803e3d6000fd5b505050506040513d601f19601f8201168201806040525081019061184c919061439b565b90508015611984576101315461012e5461012d5461013054604080516309047bdd60e01b8152905160009586956001600160a01b0391821695634386e63c95918316949083169391909216916309047bdd916004808301926020929190829003018186803b1580156118bd57600080fd5b505afa1580156118d1573d6000803e3d6000fd5b505050506040513d601f19601f820116820180604052508101906118f59190614365565b876040518563ffffffff1660e01b8152600401611915949392919061462a565b604080518083038186803b15801561192c57600080fd5b505afa158015611940573d6000803e3d6000fd5b505050506040513d601f19601f82011682018060405250810190611964919061448c565b90925090506119738285614963565b935061197f8186614963565b945050505b8115611a075784156119cd57610138546101375461013654610135546119bc938693909290916001600160a01b039182169116613379565b6119c69084614963565b9250611a07565b6101345461012e5461012d54610133546119fa936001600160a01b0390811693811692811691168661348d565b611a049084614963565b92505b50909392505050565b61090681336135ee565b611a248282610c7b565b6108255760008281526065602090815260408083206001600160a01b03851684529091529020805460ff19166001179055611a5c3390565b6001600160a01b0316816001600160a01b0316837f2f8788117e7eff1d82e926ec794901d17c78024a50270940304540a733656f0d60405160405180910390a45050565b611aaa8282610c7b565b156108255760008281526065602090815260408083206001600160a01b0385168085529252808320805460ff1916905551339285917ff6391f5c32d9c69d2a47ea670b442974b53935d1edc7fd64eb21e047a839171b9190a45050565b600061082581611a10565b7f4910fdfa16fed3260ed0e7147f7cc6da11a60208b5b9406d12a635614ffd91435460ff1615611b45576107a683613647565b826001600160a01b03166352d1902d6040518163ffffffff1660e01b815260040160206040518083038186803b158015611b7e57600080fd5b505afa925050508015611bae575060408051601f3d908101601f19168201909252611bab9181019061439b565b60015b611c115760405162461bcd60e51b815260206004820152602e60248201527f45524331393637557067726164653a206e657720696d706c656d656e7461746960448201526d6f6e206973206e6f74205555505360901b6064820152608401610720565b600080516020614b758339815191528114611c805760405162461bcd60e51b815260206004820152602960248201527f45524331393637557067726164653a20756e737570706f727465642070726f786044820152681a58589b195555525160ba1b6064820152608401610720565b506107a68383836136e3565b600054610100900460ff1615808015611cac5750600054600160ff909116105b80611cc65750303b158015611cc6575060005460ff166001145b611ce25760405162461bcd60e51b81526004016107209061482a565b6000805460ff191660011790558015611d05576000805461ff0019166101001790555b611d0d61370e565b611d1561370e565b611d20600033611a1a565b601460fc81905560fd558015610906576000805461ff0019169055604051600181527f7f26b83ff96e1f2b6a682f133852f6798a09c465da95921460cefb384740249890602001610c70565b6000612710611d7b8382614aaa565b611d859085614a8b565b611d8f919061497b565b9392505050565b61012d546001600160a01b03838116911614611dc45760405162461bcd60e51b8152600401610720906148a6565b60008061013060009054906101000a90046001600160a01b03166001600160a01b0316630902f1ac6040518163ffffffff1660e01b815260040160606040518083038186803b158015611e1657600080fd5b505afa158015611e2a573d6000803e3d6000fd5b505050506040513d601f19601f82011682018060405250810190611e4e91906144b0565b5061012d546040516370a0823160e01b81523060048201529294509092506000916001600160a01b03909116906370a082319060240160206040518083038186803b158015611e9c57600080fd5b505afa158015611eb0573d6000803e3d6000fd5b505050506040513d601f19601f82011682018060405250810190611ed4919061439b565b6101345461012d5461012e54610133546101375461013854959650600095611f15956001600160a01b0390811695811694811693169188918a918c9161377b565b61013754610138546101355461013654939450600093611f47938693909290916001600160a01b039182169116613379565b6101345461012d5461012e546101335460fc54949550611f8c946001600160a01b03948516949384169392831692909116908790611f86908890611d6c565b30613807565b5061012e546040516370a0823160e01b81523060048201526000916001600160a01b0316906370a082319060240160206040518083038186803b158015611fd257600080fd5b505afa158015611fe6573d6000803e3d6000fd5b505050506040513d601f19601f8201168201806040525081019061200a919061439b565b61012d546040516370a0823160e01b81523060048201529192506001600160a01b0316906370a082319060240160206040518083038186803b15801561204f57600080fd5b505afa158015612063573d6000803e3d6000fd5b505050506040513d601f19601f82011682018060405250810190612087919061439b565b61012e546101315460405163095ea7b360e01b81526001600160a01b03918216600482015260248101859052929650169063095ea7b390604401602060405180830381600087803b1580156120db57600080fd5b505af11580156120ef573d6000803e3d6000fd5b505050506040513d601f19601f820116820180604052508101906121139190614365565b5061012d546101315460405163095ea7b360e01b81526001600160a01b0391821660048201526024810187905291169063095ea7b390604401602060405180830381600087803b15801561216657600080fd5b505af115801561217a573d6000803e3d6000fd5b505050506040513d601f19601f8201168201806040525081019061219e9190614365565b506101315461012e5461012d5461013054604080516309047bdd60e01b815290516001600160a01b0395861695635a47ddc39581169481169316916309047bdd916004808301926020929190829003018186803b1580156121fe57600080fd5b505afa158015612212573d6000803e3d6000fd5b505050506040513d601f19601f820116820180604052508101906122369190614365565b85896122448860fc54611d6c565b6122508c60fc54611d6c565b6040516001600160e01b031960e08a901b1681526001600160a01b03978816600482015296909516602487015292151560448601526064850191909152608484015260a483015260c48201523060e48201524261010482015261012401606060405180830381600087803b1580156122c757600080fd5b505af11580156122db573d6000803e3d6000fd5b505050506040513d601f19601f820116820180604052508101906122ff91906144b0565b5050610130546040516370a0823160e01b8152306004820152600092506001600160a01b03909116906370a082319060240160206040518083038186803b15801561234957600080fd5b505afa15801561235d573d6000803e3d6000fd5b505050506040513d601f19601f82011682018060405250810190612381919061439b565b610130546101325460405163095ea7b360e01b81526001600160a01b03918216600482015260248101849052929350169063095ea7b390604401602060405180830381600087803b1580156123d557600080fd5b505af11580156123e9573d6000803e3d6000fd5b505050506040513d601f19601f8201168201806040525081019061240d9190614365565b506101325460405163b6b55f2560e01b8152600481018390526001600160a01b039091169063b6b55f2590602401600060405180830381600087803b15801561245557600080fd5b505af1158015612469573d6000803e3d6000fd5b50505050505050505050505050565b610132546040516370a0823160e01b815230600482015260009182916001600160a01b03909116906370a082319060240160206040518083038186803b1580156124c157600080fd5b505afa1580156124d5573d6000803e3d6000fd5b505050506040513d601f19601f820116820180604052508101906124f9919061439b565b9050801561256b5761013260009054906101000a90046001600160a01b03166001600160a01b0316633d18b9126040518163ffffffff1660e01b8152600401600060405180830381600087803b15801561255257600080fd5b505af1158015612566573d6000803e3d6000fd5b505050505b61012f546040516370a0823160e01b815230600482015260009182916001600160a01b03909116906370a082319060240160206040518083038186803b1580156125b457600080fd5b505afa1580156125c8573d6000803e3d6000fd5b505050506040513d601f19601f820116820180604052508101906125ec919061439b565b9050801561266a576101315461012f5461012d5460009261261f926001600160a01b0391821692908216911684866139ed565b90508015612668576101315461012f5461012d5461265b926001600160a01b03908116928116911660008661265587600a611d6c565b30613b74565b6126659084614963565b92505b505b81156126f95761012d5460405163a9059cbb60e01b81526001600160a01b038781166004830152602482018590529091169063a9059cbb90604401602060405180830381600087803b1580156126bf57600080fd5b505af11580156126d3573d6000803e3d6000fd5b505050506040513d601f19601f820116820180604052508101906126f79190614365565b505b509392505050565b61012d546000906001600160a01b038481169116146127325760405162461bcd60e51b8152600401610720906148a6565b610132546040516370a0823160e01b81523060048201526000916001600160a01b0316906370a082319060240160206040518083038186803b15801561277757600080fd5b505afa15801561278b573d6000803e3d6000fd5b505050506040513d601f19601f820116820180604052508101906127af919061439b565b61013254604051632e1a7d4d60e01b8152600481018390529192506001600160a01b031690632e1a7d4d90602401600060405180830381600087803b1580156127f757600080fd5b505af115801561280b573d6000803e3d6000fd5b50506101315461012e5461012d5461013054604080516309047bdd60e01b81529051600097508796506001600160a01b0395861695634386e63c9581169481169316916309047bdd916004808301926020929190829003018186803b15801561287357600080fd5b505afa158015612887573d6000803e3d6000fd5b505050506040513d601f19601f820116820180604052508101906128ab9190614365565b876040518563ffffffff1660e01b81526004016128cb949392919061462a565b604080518083038186803b1580156128e257600080fd5b505afa1580156128f6573d6000803e3d6000fd5b505050506040513d601f19601f8201168201806040525081019061291a919061448c565b610130546101315460405163095ea7b360e01b81526001600160a01b03918216600482015260248101889052939550919350169063095ea7b390604401602060405180830381600087803b15801561297157600080fd5b505af1158015612985573d6000803e3d6000fd5b505050506040513d601f19601f820116820180604052508101906129a99190614365565b506101315461012e5461012d5461013054604080516309047bdd60e01b815290516001600160a01b0395861695630dede6c49581169481169316916309047bdd916004808301926020929190829003018186803b158015612a0957600080fd5b505afa158015612a1d573d6000803e3d6000fd5b505050506040513d601f19601f82011682018060405250810190612a419190614365565b87612a4e8860fc54611d6c565b612a5a8860fc54611d6c565b30426040518963ffffffff1660e01b8152600401612a7f989796959493929190614655565b6040805180830381600087803b158015612a9857600080fd5b505af1158015612aac573d6000803e3d6000fd5b505050506040513d601f19601f82011682018060405250810190612ad0919061448c565b505061012e546040516370a0823160e01b81523060048201526000916001600160a01b0316906370a082319060240160206040518083038186803b158015612b1757600080fd5b505afa158015612b2b573d6000803e3d6000fd5b505050506040513d601f19601f82011682018060405250810190612b4f919061439b565b6101345461012e5461012d5461013354939450600093612b82936001600160a01b0390811693811692811691168661348d565b90508015612bfb5761013854610137546101365461013554600093612bb9938793919290916001600160a01b039081169116613379565b6101345461012e5461012d546101335460fc54949550612bf8946001600160a01b03948516949384169392831692909116908890611f86908890611d6c565b50505b61012d546040516370a0823160e01b81523060048201526001600160a01b03909116906370a082319060240160206040518083038186803b158015612c3f57600080fd5b505afa158015612c53573d6000803e3d6000fd5b505050506040513d601f19601f82011682018060405250810190612c77919061439b565b98975050505050505050565b61012d546000906001600160a01b03858116911614612cb45760405162461bcd60e51b8152600401610720906148a6565b61013054604080516318160ddd60e01b815290516000926001600160a01b0316916318160ddd916004808301926020929190829003018186803b158015612cfa57600080fd5b505afa158015612d0e573d6000803e3d6000fd5b505050506040513d601f19601f82011682018060405250810190612d32919061439b565b905060008061013060009054906101000a90046001600160a01b03166001600160a01b0316630902f1ac6040518163ffffffff1660e01b815260040160606040518083038186803b158015612d8657600080fd5b505afa158015612d9a573d6000803e3d6000fd5b505050506040513d601f19601f82011682018060405250810190612dbe91906144b0565b506101345461012d5461012e5461013354949650929450600093612e11936001600160a01b0393841693928316929081169116612e018c6509184e72a000614963565b89888a6101375461013854613d89565b610132546040516370a0823160e01b81523060048201529192506000916001600160a01b03909116906370a082319060240160206040518083038186803b158015612e5b57600080fd5b505afa158015612e6f573d6000803e3d6000fd5b505050506040513d601f19601f82011682018060405250810190612e93919061439b565b905080821115612ea1578091505b61013254604051632e1a7d4d60e01b8152600481018490526001600160a01b0390911690632e1a7d4d90602401600060405180830381600087803b158015612ee857600080fd5b505af1158015612efc573d6000803e3d6000fd5b50506101315461012e5461012d5461013054604080516309047bdd60e01b81529051600097508796506001600160a01b0395861695634386e63c9581169481169316916309047bdd916004808301926020929190829003018186803b158015612f6457600080fd5b505afa158015612f78573d6000803e3d6000fd5b505050506040513d601f19601f82011682018060405250810190612f9c9190614365565b886040518563ffffffff1660e01b8152600401612fbc949392919061462a565b604080518083038186803b158015612fd357600080fd5b505afa158015612fe7573d6000803e3d6000fd5b505050506040513d601f19601f8201168201806040525081019061300b919061448c565b610130546101315460405163095ea7b360e01b81526001600160a01b03918216600482015260248101899052939550919350169063095ea7b390604401602060405180830381600087803b15801561306257600080fd5b505af1158015613076573d6000803e3d6000fd5b505050506040513d601f19601f8201168201806040525081019061309a9190614365565b506101315461012e5461012d5461013054604080516309047bdd60e01b815290516001600160a01b0395861695630dede6c49581169481169316916309047bdd916004808301926020929190829003018186803b1580156130fa57600080fd5b505afa15801561310e573d6000803e3d6000fd5b505050506040513d601f19601f820116820180604052508101906131329190614365565b8861313f8860fc54611d6c565b61314b8860fc54611d6c565b30426040518963ffffffff1660e01b8152600401613170989796959493929190614655565b6040805180830381600087803b15801561318957600080fd5b505af115801561319d573d6000803e3d6000fd5b505050506040513d601f19601f820116820180604052508101906131c1919061448c565b505061012e546040516370a0823160e01b81523060048201526000916001600160a01b0316906370a082319060240160206040518083038186803b15801561320857600080fd5b505afa15801561321c573d6000803e3d6000fd5b505050506040513d601f19601f82011682018060405250810190613240919061439b565b6101345461012e5461012d5461013354939450600093613273936001600160a01b0390811693811692811691168661348d565b905080156132ec57610138546101375461013654610135546000936132aa938793919290916001600160a01b039081169116613379565b6101345461012e5461012d546101335460fc549495506132e9946001600160a01b03948516949384169392831692909116908890611f86908890611d6c565b50505b61012d546040516370a0823160e01b81523060048201526001600160a01b03909116906370a082319060240160206040518083038186803b15801561333057600080fd5b505afa158015613344573d6000803e3d6000fd5b505050506040513d601f19601f82011682018060405250810190613368919061439b565b9d9c50505050505050505050505050565b600080836001600160a01b03166350d25bcd6040518163ffffffff1660e01b815260040160206040518083038186803b1580156133b557600080fd5b505afa1580156133c9573d6000803e3d6000fd5b505050506040513d601f19601f820116820180604052508101906133ed919061439b565b90506000836001600160a01b03166350d25bcd6040518163ffffffff1660e01b815260040160206040518083038186803b15801561342a57600080fd5b505afa15801561343e573d6000803e3d6000fd5b505050506040513d601f19601f82011682018060405250810190613462919061439b565b905061346e8188614a8b565b82613479888b614a8b565b6134839190614a8b565b612c77919061497b565b6040805160028082526060820183526000928392919060208301908036833701905050905085816000815181106134c6576134c6614b1a565b60200260200101906001600160a01b031690816001600160a01b03168152505084816001815181106134fa576134fa614b1a565b6001600160a01b039290921660209283029190910190910152604080516001808252818301909252600091816020016020820280368337019050509050848160008151811061354b5761354b614b1a565b6001600160a01b03928316602091820292909201015260405163b9e598c160e01b81526000918a169063b9e598c19061358c90869086908a9060040161469e565b60006040518083038186803b1580156135a457600080fd5b505afa1580156135b8573d6000803e3d6000fd5b505050506040513d6000823e601f3d908101601f191682016040526135e09190810190614423565b509998505050505050505050565b6135f88282610c7b565b6108255761360581613e31565b613610836020613e43565b6040516020016136219291906145b5565b60408051601f198184030181529082905262461bcd60e51b825261072091600401614728565b6001600160a01b0381163b6136b45760405162461bcd60e51b815260206004820152602d60248201527f455243313936373a206e657720696d706c656d656e746174696f6e206973206e60448201526c1bdd08184818dbdb9d1c9858dd609a1b6064820152608401610720565b600080516020614b7583398151915280546001600160a01b0319166001600160a01b0392909216919091179055565b6136ec83613fdf565b6000825111806136f95750805b156107a657613708838361401f565b50505050565b600054610100900460ff166137795760405162461bcd60e51b815260206004820152602b60248201527f496e697469616c697a61626c653a20636f6e7472616374206973206e6f74206960448201526a6e697469616c697a696e6760a81b6064820152608401610720565b565b600083836137898488614a8b565b613793919061497b565b61379d9190614963565b6137a78588614a8b565b6137b1919061497b565b905060006137c28b8b8b8b8661348d565b905084826137d08389614a8b565b6137da919061497b565b6137e49190614963565b6137ee8689614a8b565b6137f8919061497b565b9b9a5050505050505050505050565b60405163095ea7b360e01b81526001600160a01b038881166004830152602482018590526000919088169063095ea7b390604401602060405180830381600087803b15801561385557600080fd5b505af1158015613869573d6000803e3d6000fd5b505050506040513d601f19601f8201168201806040525081019061388d9190614365565b5060408051600280825260608201835260009260208301908036833701905050905087816000815181106138c3576138c3614b1a565b60200260200101906001600160a01b031690816001600160a01b03168152505086816001815181106138f7576138f7614b1a565b6001600160a01b039290921660209283029190910190910152604080516001808252818301909252600091816020016020820280368337019050509050868160008151811061394857613948614b1a565b6001600160a01b03928316602091820292909201015260405163351041e960e21b8152908b169063d44107a49061398d90859085908b908b908b9042906004016146d4565b602060405180830381600087803b1580156139a757600080fd5b505af11580156139bb573d6000803e3d6000fd5b505050506040513d601f19601f820116820180604052508101906139df919061439b565b9a9950505050505050505050565b604080516001808252818301909252600091829190816020015b6040805160608101825260008082526020808301829052928201528252600019909201910181613a075790505090508581600081518110613a4a57613a4a614b1a565b6020026020010151600001906001600160a01b031690816001600160a01b0316815250508481600081518110613a8257613a82614b1a565b6020026020010151602001906001600160a01b031690816001600160a01b0316815250508381600081518110613aba57613aba614b1a565b6020908102919091010151901515604091820152516326207f2d60e21b81526001600160a01b03881690639881fcb490613afa90869085906004016148dd565b60006040518083038186803b158015613b1257600080fd5b505afa158015613b26573d6000803e3d6000fd5b505050506040513d6000823e601f3d908101601f19168201604052613b4e9190810190614328565b600181518110613b6057613b60614b1a565b602002602001015191505095945050505050565b60405163095ea7b360e01b81526001600160a01b038881166004830152602482018590526000919088169063095ea7b390604401602060405180830381600087803b158015613bc257600080fd5b505af1158015613bd6573d6000803e3d6000fd5b505050506040513d601f19601f82011682018060405250810190613bfa9190614365565b50604080516001808252818301909252600091816020015b6040805160608101825260008082526020808301829052928201528252600019909201910181613c125790505090508781600081518110613c5557613c55614b1a565b6020026020010151600001906001600160a01b031690816001600160a01b0316815250508681600081518110613c8d57613c8d614b1a565b6020026020010151602001906001600160a01b031690816001600160a01b0316815250508581600081518110613cc557613cc5614b1a565b602090810291909101015190151560409182015251631e82ecdb60e31b81526001600160a01b038a169063f41766d890613d0b90889088908690899042906004016148f6565b600060405180830381600087803b158015613d2557600080fd5b505af1158015613d39573d6000803e3d6000fd5b505050506040513d6000823e601f3d908101601f19168201604052613d619190810190614328565b600181518110613d7357613d73614b1a565b6020026020010151915050979650505050505050565b6000613d958385614a8b565b613d9f8387614a8b565b613da99190614963565b82613db48989614a8b565b613dbe9190614a8b565b613dc8919061497b565b9050600086613dd78387614a8b565b613de1919061497b565b90506000613df28d8c8e8d8661348d565b9050613dfe8187614a8b565b613e088389614a8b565b613e129190614963565b82613e1d8b8b614a8b565b613e279190614a8b565b613368919061497b565b60606106f36001600160a01b03831660145b60606000613e52836002614a8b565b613e5d906002614963565b67ffffffffffffffff811115613e7557613e75614b30565b6040519080825280601f01601f191660200182016040528015613e9f576020820181803683370190505b509050600360fc1b81600081518110613eba57613eba614b1a565b60200101906001600160f81b031916908160001a905350600f60fb1b81600181518110613ee957613ee9614b1a565b60200101906001600160f81b031916908160001a9053506000613f0d846002614a8b565b613f18906001614963565b90505b6001811115613f90576f181899199a1a9b1b9c1cb0b131b232b360811b85600f1660108110613f4c57613f4c614b1a565b1a60f81b828281518110613f6257613f62614b1a565b60200101906001600160f81b031916908160001a90535060049490941c93613f8981614aed565b9050613f1b565b508315611d8f5760405162461bcd60e51b815260206004820181905260248201527f537472696e67733a20686578206c656e67746820696e73756666696369656e746044820152606401610720565b613fe881613647565b6040516001600160a01b038216907fbc7cd75a20ee27fd9adebab32041f755214dbc6bffa90cc0225b39da2e5c2d3b90600090a250565b60606001600160a01b0383163b6140875760405162461bcd60e51b815260206004820152602660248201527f416464726573733a2064656c65676174652063616c6c20746f206e6f6e2d636f6044820152651b9d1c9858dd60d21b6064820152608401610720565b600080846001600160a01b0316846040516140a29190614599565b600060405180830381855af49150503d80600081146140dd576040519150601f19603f3d011682016040523d82523d6000602084013e6140e2565b606091505b509150915061410a8282604051806060016040528060278152602001614b9560279139614113565b95945050505050565b60608315614122575081611d8f565b611d8f83838151156141375781518083602001fd5b8060405162461bcd60e51b81526004016107209190614728565b80356001600160a01b03811681146113e857600080fd5b600082601f83011261417957600080fd5b8151602067ffffffffffffffff82111561419557614195614b30565b8160051b6141a4828201614932565b8381528281019086840183880185018910156141bf57600080fd5b600093505b858410156141e25780518352600193909301929184019184016141c4565b50979650505050505050565b60006020828403121561420057600080fd5b611d8f82614151565b6000806040838503121561421c57600080fd5b61422583614151565b915060208084013567ffffffffffffffff8082111561424357600080fd5b818601915086601f83011261425757600080fd5b81358181111561426957614269614b30565b61427b601f8201601f19168501614932565b9150808252878482850101111561429157600080fd5b80848401858401376000848284010152508093505050509250929050565b600080604083850312156142c257600080fd5b6142cb83614151565b946020939093013593505050565b600080600080608085870312156142ef57600080fd5b6142f885614151565b93506020850135925061430d60408601614151565b9150606085013561431d81614b46565b939692955090935050565b60006020828403121561433a57600080fd5b815167ffffffffffffffff81111561435157600080fd5b61435d84828501614168565b949350505050565b60006020828403121561437757600080fd5b8151611d8f81614b46565b60006020828403121561439457600080fd5b5035919050565b6000602082840312156143ad57600080fd5b5051919050565b600080604083850312156143c757600080fd5b823591506143d760208401614151565b90509250929050565b6000602082840312156143f257600080fd5b81356001600160e01b031981168114611d8f57600080fd5b6000610140828403121561441d57600080fd5b50919050565b6000806040838503121561443657600080fd5b82519150602083015167ffffffffffffffff81111561445457600080fd5b61446085828601614168565b9150509250929050565b6000806040838503121561447d57600080fd5b50508035926020909101359150565b6000806040838503121561449f57600080fd5b505080516020909101519092909150565b6000806000606084860312156144c557600080fd5b8351925060208401519150604084015190509250925092565b6000602082840312156144f057600080fd5b815160ff81168114611d8f57600080fd5b600081518084526020808501945080840160005b8381101561453a5781516001600160a01b031687529582019590820190600101614515565b509495945050505050565b600081518084526020808501945080840160005b8381101561453a57815180516001600160a01b03908116895284820151168489015260409081015115159088015260609096019590820190600101614559565b600082516145ab818460208701614ac1565b9190910192915050565b7f416363657373436f6e74726f6c3a206163636f756e74200000000000000000008152600083516145ed816017850160208801614ac1565b7001034b99036b4b9b9b4b733903937b6329607d1b601791840191820152835161461e816028840160208801614ac1565b01602801949350505050565b6001600160a01b03948516815292909316602083015215156040820152606081019190915260800190565b6001600160a01b039889168152968816602088015294151560408701526060860193909352608085019190915260a084015290921660c082015260e08101919091526101000190565b6060815260006146b16060830186614501565b82810360208401526146c38186614501565b915050826040830152949350505050565b60c0815260006146e760c0830189614501565b82810360208401526146f98189614501565b6040840197909752505060608101939093526001600160a01b0391909116608083015260a09091015292915050565b6020815260008251806020840152614747816040850160208701614ac1565b601f01601f19169190910160400192915050565b6020808252601f908201527f5265737472696374656420746f20504f5254464f4c494f5f4d414e4147455200604082015260600190565b6020808252602c908201527f46756e6374696f6e206d7573742062652063616c6c6564207468726f7567682060408201526b19195b1959d85d1958d85b1b60a21b606082015260800190565b6020808252602c908201527f46756e6374696f6e206d7573742062652063616c6c6564207468726f7567682060408201526b6163746976652070726f787960a01b606082015260800190565b6020808252602e908201527f496e697469616c697a61626c653a20636f6e747261637420697320616c72656160408201526d191e481a5b9a5d1a585b1a5e995960921b606082015260800190565b6020808252601490820152735265737472696374656420746f2061646d696e7360601b604082015260600190565b60208082526019908201527f536f6d6520746f6b656e206e6f7420636f6d70617469626c6500000000000000604082015260600190565b82815260406020820152600061435d6040830184614545565b85815284602082015260a06040820152600061491560a0830186614545565b6001600160a01b0394909416606083015250608001529392505050565b604051601f8201601f1916810167ffffffffffffffff8111828210171561495b5761495b614b30565b604052919050565b6000821982111561497657614976614b04565b500190565b60008261499857634e487b7160e01b600052601260045260246000fd5b500490565b600181815b808511156149d85781600019048211156149be576149be614b04565b808516156149cb57918102915b93841c93908002906149a2565b509250929050565b6000611d8f60ff8416836000826149f9575060016106f3565b81614a06575060006106f3565b8160018114614a1c5760028114614a2657614a42565b60019150506106f3565b60ff841115614a3757614a37614b04565b50506001821b6106f3565b5060208310610133831016604e8410600b8410161715614a65575081810a6106f3565b614a6f838361499d565b8060001904821115614a8357614a83614b04565b029392505050565b6000816000190483118215151615614aa557614aa5614b04565b500290565b600082821015614abc57614abc614b04565b500390565b60005b83811015614adc578181015183820152602001614ac4565b838111156137085750506000910152565b600081614afc57614afc614b04565b506000190190565b634e487b7160e01b600052601160045260246000fd5b634e487b7160e01b600052603260045260246000fd5b634e487b7160e01b600052604160045260246000fd5b801515811461090657600080fdfe90c2aa7471c04182221f68e80c07ab1e5946e4c63f8693e14ca40385d529f051360894a13ba1a3210667c828492db98dca3e2076cc3735a920a3ca505d382bbc416464726573733a206c6f772d6c6576656c2064656c65676174652063616c6c206661696c6564a26469706673582212200cabf602c276431f958229f17306517e61ed7dea365c80a531e813914e5cd26b64736f6c63430008060033",
  "implementation": "0xaD8fCfC1454A8Ed328E780588AA779ab2E14A088",
  "devdoc": {
    "kind": "dev",
    "methods": {
      "constructor": {
        "custom:oz-upgrades-unsafe-allow": "constructor"
      },
      "getRoleAdmin(bytes32)": {
        "details": "Returns the admin role that controls `role`. See {grantRole} and {revokeRole}. To change a role's admin, use {_setRoleAdmin}."
      },
      "grantRole(bytes32,address)": {
        "details": "Grants `role` to `account`. If `account` had not been already granted `role`, emits a {RoleGranted} event. Requirements: - the caller must have ``role``'s admin role. May emit a {RoleGranted} event."
      },
      "hasRole(bytes32,address)": {
        "details": "Returns `true` if `account` has been granted `role`."
      },
      "proxiableUUID()": {
        "details": "Implementation of the ERC1822 {proxiableUUID} function. This returns the storage slot used by the implementation. It is used to validate the implementation's compatibility when performing an upgrade. IMPORTANT: A proxy pointing at a proxiable contract should not be considered proxiable itself, because this risks bricking a proxy that upgrades to it, by delegating to itself until out of gas. Thus it is critical that this function revert if invoked through a proxy. This is guaranteed by the `notDelegated` modifier."
      },
      "renounceRole(bytes32,address)": {
        "details": "Revokes `role` from the calling account. Roles are often managed via {grantRole} and {revokeRole}: this function's purpose is to provide a mechanism for accounts to lose their privileges if they are compromised (such as when a trusted device is misplaced). If the calling account had been revoked `role`, emits a {RoleRevoked} event. Requirements: - the caller must be `account`. May emit a {RoleRevoked} event."
      },
      "revokeRole(bytes32,address)": {
        "details": "Revokes `role` from `account`. If `account` had been granted `role`, emits a {RoleRevoked} event. Requirements: - the caller must have ``role``'s admin role. May emit a {RoleRevoked} event."
      },
      "supportsInterface(bytes4)": {
        "details": "See {IERC165-supportsInterface}."
      },
      "upgradeTo(address)": {
        "details": "Upgrade the implementation of the proxy to `newImplementation`. Calls {_authorizeUpgrade}. Emits an {Upgraded} event."
      },
      "upgradeToAndCall(address,bytes)": {
        "details": "Upgrade the implementation of the proxy to `newImplementation`, and subsequently execute the function call encoded in `data`. Calls {_authorizeUpgrade}. Emits an {Upgraded} event."
      }
    },
    "version": 1
  },
  "userdoc": {
    "kind": "user",
    "methods": {},
    "version": 1
  },
  "storageLayout": {
    "storage": [
      {
        "astId": 804,
        "contract": "contracts/busd/StrategyThenaBusdUsdc.sol:StrategyThenaBusdUsdc",
        "label": "_initialized",
        "offset": 0,
        "slot": "0",
        "type": "t_uint8"
      },
      {
        "astId": 807,
        "contract": "contracts/busd/StrategyThenaBusdUsdc.sol:StrategyThenaBusdUsdc",
        "label": "_initializing",
        "offset": 1,
        "slot": "0",
        "type": "t_bool"
      },
      {
        "astId": 1427,
        "contract": "contracts/busd/StrategyThenaBusdUsdc.sol:StrategyThenaBusdUsdc",
        "label": "__gap",
        "offset": 0,
        "slot": "1",
        "type": "t_array(t_uint256)50_storage"
      },
      {
        "astId": 1706,
        "contract": "contracts/busd/StrategyThenaBusdUsdc.sol:StrategyThenaBusdUsdc",
        "label": "__gap",
        "offset": 0,
        "slot": "51",
        "type": "t_array(t_uint256)50_storage"
      },
      {
        "astId": 39,
        "contract": "contracts/busd/StrategyThenaBusdUsdc.sol:StrategyThenaBusdUsdc",
        "label": "_roles",
        "offset": 0,
        "slot": "101",
        "type": "t_mapping(t_bytes32,t_struct(RoleData)34_storage)"
      },
      {
        "astId": 334,
        "contract": "contracts/busd/StrategyThenaBusdUsdc.sol:StrategyThenaBusdUsdc",
        "label": "__gap",
        "offset": 0,
        "slot": "102",
        "type": "t_array(t_uint256)49_storage"
      },
      {
        "astId": 786,
        "contract": "contracts/busd/StrategyThenaBusdUsdc.sol:StrategyThenaBusdUsdc",
        "label": "__gap",
        "offset": 0,
        "slot": "151",
        "type": "t_array(t_uint256)50_storage"
      },
      {
        "astId": 1101,
        "contract": "contracts/busd/StrategyThenaBusdUsdc.sol:StrategyThenaBusdUsdc",
        "label": "__gap",
        "offset": 0,
        "slot": "201",
        "type": "t_array(t_uint256)50_storage"
      },
      {
        "astId": 5091,
        "contract": "contracts/busd/StrategyThenaBusdUsdc.sol:StrategyThenaBusdUsdc",
        "label": "portfolioManager",
        "offset": 0,
        "slot": "251",
        "type": "t_address"
      },
      {
        "astId": 5093,
        "contract": "contracts/busd/StrategyThenaBusdUsdc.sol:StrategyThenaBusdUsdc",
        "label": "swapSlippageBP",
        "offset": 0,
        "slot": "252",
        "type": "t_uint256"
      },
      {
        "astId": 5095,
        "contract": "contracts/busd/StrategyThenaBusdUsdc.sol:StrategyThenaBusdUsdc",
        "label": "navSlippageBP",
        "offset": 0,
        "slot": "253",
        "type": "t_uint256"
      },
      {
        "astId": 5492,
        "contract": "contracts/busd/StrategyThenaBusdUsdc.sol:StrategyThenaBusdUsdc",
        "label": "__gap",
        "offset": 0,
        "slot": "254",
        "type": "t_array(t_uint256)47_storage"
      },
      {
        "astId": 5603,
        "contract": "contracts/busd/StrategyThenaBusdUsdc.sol:StrategyThenaBusdUsdc",
        "label": "busd",
        "offset": 0,
        "slot": "301",
        "type": "t_contract(IERC20)2662"
      },
      {
        "astId": 5606,
        "contract": "contracts/busd/StrategyThenaBusdUsdc.sol:StrategyThenaBusdUsdc",
        "label": "usdc",
        "offset": 0,
        "slot": "302",
        "type": "t_contract(IERC20)2662"
      },
      {
        "astId": 5609,
        "contract": "contracts/busd/StrategyThenaBusdUsdc.sol:StrategyThenaBusdUsdc",
        "label": "the",
        "offset": 0,
        "slot": "303",
        "type": "t_contract(IERC20)2662"
      },
      {
        "astId": 5612,
        "contract": "contracts/busd/StrategyThenaBusdUsdc.sol:StrategyThenaBusdUsdc",
        "label": "pair",
        "offset": 0,
        "slot": "304",
        "type": "t_contract(IPair)3369"
      },
      {
        "astId": 5615,
        "contract": "contracts/busd/StrategyThenaBusdUsdc.sol:StrategyThenaBusdUsdc",
        "label": "router",
        "offset": 0,
        "slot": "305",
        "type": "t_contract(IRouter)3719"
      },
      {
        "astId": 5618,
        "contract": "contracts/busd/StrategyThenaBusdUsdc.sol:StrategyThenaBusdUsdc",
        "label": "gauge",
        "offset": 0,
        "slot": "306",
        "type": "t_contract(IGaugeV2)3906"
      },
      {
        "astId": 5621,
        "contract": "contracts/busd/StrategyThenaBusdUsdc.sol:StrategyThenaBusdUsdc",
        "label": "wombatPool",
        "offset": 0,
        "slot": "307",
        "type": "t_contract(IPool)4401"
      },
      {
        "astId": 5624,
        "contract": "contracts/busd/StrategyThenaBusdUsdc.sol:StrategyThenaBusdUsdc",
        "label": "wombatRouter",
        "offset": 0,
        "slot": "308",
        "type": "t_contract(IWombatRouter)4757"
      },
      {
        "astId": 5627,
        "contract": "contracts/busd/StrategyThenaBusdUsdc.sol:StrategyThenaBusdUsdc",
        "label": "oracleBusd",
        "offset": 0,
        "slot": "309",
        "type": "t_contract(IPriceFeed)2870"
      },
      {
        "astId": 5630,
        "contract": "contracts/busd/StrategyThenaBusdUsdc.sol:StrategyThenaBusdUsdc",
        "label": "oracleUsdc",
        "offset": 0,
        "slot": "310",
        "type": "t_contract(IPriceFeed)2870"
      },
      {
        "astId": 5632,
        "contract": "contracts/busd/StrategyThenaBusdUsdc.sol:StrategyThenaBusdUsdc",
        "label": "busdDm",
        "offset": 0,
        "slot": "311",
        "type": "t_uint256"
      },
      {
        "astId": 5634,
        "contract": "contracts/busd/StrategyThenaBusdUsdc.sol:StrategyThenaBusdUsdc",
        "label": "usdcDm",
        "offset": 0,
        "slot": "312",
        "type": "t_uint256"
      }
    ],
    "types": {
      "t_address": {
        "encoding": "inplace",
        "label": "address",
        "numberOfBytes": "20"
      },
      "t_array(t_uint256)47_storage": {
        "base": "t_uint256",
        "encoding": "inplace",
        "label": "uint256[47]",
        "numberOfBytes": "1504"
      },
      "t_array(t_uint256)49_storage": {
        "base": "t_uint256",
        "encoding": "inplace",
        "label": "uint256[49]",
        "numberOfBytes": "1568"
      },
      "t_array(t_uint256)50_storage": {
        "base": "t_uint256",
        "encoding": "inplace",
        "label": "uint256[50]",
        "numberOfBytes": "1600"
      },
      "t_bool": {
        "encoding": "inplace",
        "label": "bool",
        "numberOfBytes": "1"
      },
      "t_bytes32": {
        "encoding": "inplace",
        "label": "bytes32",
        "numberOfBytes": "32"
      },
      "t_contract(IERC20)2662": {
        "encoding": "inplace",
        "label": "contract IERC20",
        "numberOfBytes": "20"
      },
      "t_contract(IGaugeV2)3906": {
        "encoding": "inplace",
        "label": "contract IGaugeV2",
        "numberOfBytes": "20"
      },
      "t_contract(IPair)3369": {
        "encoding": "inplace",
        "label": "contract IPair",
        "numberOfBytes": "20"
      },
      "t_contract(IPool)4401": {
        "encoding": "inplace",
        "label": "contract IPool",
        "numberOfBytes": "20"
      },
      "t_contract(IPriceFeed)2870": {
        "encoding": "inplace",
        "label": "contract IPriceFeed",
        "numberOfBytes": "20"
      },
      "t_contract(IRouter)3719": {
        "encoding": "inplace",
        "label": "contract IRouter",
        "numberOfBytes": "20"
      },
      "t_contract(IWombatRouter)4757": {
        "encoding": "inplace",
        "label": "contract IWombatRouter",
        "numberOfBytes": "20"
      },
      "t_mapping(t_address,t_bool)": {
        "encoding": "mapping",
        "key": "t_address",
        "label": "mapping(address => bool)",
        "numberOfBytes": "32",
        "value": "t_bool"
      },
      "t_mapping(t_bytes32,t_struct(RoleData)34_storage)": {
        "encoding": "mapping",
        "key": "t_bytes32",
        "label": "mapping(bytes32 => struct AccessControlUpgradeable.RoleData)",
        "numberOfBytes": "32",
        "value": "t_struct(RoleData)34_storage"
      },
      "t_struct(RoleData)34_storage": {
        "encoding": "inplace",
        "label": "struct AccessControlUpgradeable.RoleData",
        "members": [
          {
            "astId": 31,
            "contract": "contracts/busd/StrategyThenaBusdUsdc.sol:StrategyThenaBusdUsdc",
            "label": "members",
            "offset": 0,
            "slot": "0",
            "type": "t_mapping(t_address,t_bool)"
          },
          {
            "astId": 33,
            "contract": "contracts/busd/StrategyThenaBusdUsdc.sol:StrategyThenaBusdUsdc",
            "label": "adminRole",
            "offset": 0,
            "slot": "1",
            "type": "t_bytes32"
          }
        ],
        "numberOfBytes": "64"
      },
      "t_uint256": {
        "encoding": "inplace",
        "label": "uint256",
        "numberOfBytes": "32"
      },
      "t_uint8": {
        "encoding": "inplace",
        "label": "uint8",
        "numberOfBytes": "1"
      }
    }
  }
}