{
  "address": "0x049915356d236a93ff235098042fb27301a9BDf4",
  "abi": [
    {
      "inputs": [],
      "stateMutability": "nonpayable",
      "type": "constructor"
    },
    {
      "anonymous": false,
      "inputs": [
        {
          "indexed": false,
          "internalType": "address",
          "name": "previousAdmin",
          "type": "address"
        },
        {
          "indexed": false,
          "internalType": "address",
          "name": "newAdmin",
          "type": "address"
        }
      ],
      "name": "AdminChanged",
      "type": "event"
    },
    {
      "anonymous": false,
      "inputs": [
        {
          "indexed": true,
          "internalType": "address",
          "name": "beacon",
          "type": "address"
        }
      ],
      "name": "BeaconUpgraded",
      "type": "event"
    },
    {
      "anonymous": false,
      "inputs": [
        {
          "indexed": false,
          "internalType": "uint8",
          "name": "version",
          "type": "uint8"
        }
      ],
      "name": "Initialized",
      "type": "event"
    },
    {
      "anonymous": false,
      "inputs": [
        {
          "indexed": false,
          "internalType": "address",
          "name": "value",
          "type": "address"
        }
      ],
      "name": "PortfolioManagerUpdated",
      "type": "event"
    },
    {
      "anonymous": false,
      "inputs": [
        {
          "indexed": false,
          "internalType": "uint256",
          "name": "amount",
          "type": "uint256"
        }
      ],
      "name": "Reward",
      "type": "event"
    },
    {
      "anonymous": false,
      "inputs": [
        {
          "indexed": true,
          "internalType": "bytes32",
          "name": "role",
          "type": "bytes32"
        },
        {
          "indexed": true,
          "internalType": "bytes32",
          "name": "previousAdminRole",
          "type": "bytes32"
        },
        {
          "indexed": true,
          "internalType": "bytes32",
          "name": "newAdminRole",
          "type": "bytes32"
        }
      ],
      "name": "RoleAdminChanged",
      "type": "event"
    },
    {
      "anonymous": false,
      "inputs": [
        {
          "indexed": true,
          "internalType": "bytes32",
          "name": "role",
          "type": "bytes32"
        },
        {
          "indexed": true,
          "internalType": "address",
          "name": "account",
          "type": "address"
        },
        {
          "indexed": true,
          "internalType": "address",
          "name": "sender",
          "type": "address"
        }
      ],
      "name": "RoleGranted",
      "type": "event"
    },
    {
      "anonymous": false,
      "inputs": [
        {
          "indexed": true,
          "internalType": "bytes32",
          "name": "role",
          "type": "bytes32"
        },
        {
          "indexed": true,
          "internalType": "address",
          "name": "account",
          "type": "address"
        },
        {
          "indexed": true,
          "internalType": "address",
          "name": "sender",
          "type": "address"
        }
      ],
      "name": "RoleRevoked",
      "type": "event"
    },
    {
      "anonymous": false,
      "inputs": [
        {
          "indexed": false,
          "internalType": "uint256",
          "name": "swapSlippageBP",
          "type": "uint256"
        },
        {
          "indexed": false,
          "internalType": "uint256",
          "name": "navSlippageBP",
          "type": "uint256"
        },
        {
          "indexed": false,
          "internalType": "uint256",
          "name": "stakeSlippageBP",
          "type": "uint256"
        }
      ],
      "name": "SlippagesUpdated",
      "type": "event"
    },
    {
      "anonymous": false,
      "inputs": [
        {
          "indexed": false,
          "internalType": "uint256",
          "name": "amount",
          "type": "uint256"
        }
      ],
      "name": "Stake",
      "type": "event"
    },
    {
      "anonymous": false,
      "inputs": [],
      "name": "StrategyUpdatedParams",
      "type": "event"
    },
    {
      "anonymous": false,
      "inputs": [
        {
          "indexed": false,
          "internalType": "uint256",
          "name": "amount",
          "type": "uint256"
        },
        {
          "indexed": false,
          "internalType": "uint256",
          "name": "amountReceived",
          "type": "uint256"
        }
      ],
      "name": "Unstake",
      "type": "event"
    },
    {
      "anonymous": false,
      "inputs": [
        {
          "indexed": true,
          "internalType": "address",
          "name": "implementation",
          "type": "address"
        }
      ],
      "name": "Upgraded",
      "type": "event"
    },
    {
      "inputs": [],
      "name": "DEFAULT_ADMIN_ROLE",
      "outputs": [
        {
          "internalType": "bytes32",
          "name": "",
          "type": "bytes32"
        }
      ],
      "stateMutability": "view",
      "type": "function"
    },
    {
      "inputs": [],
      "name": "PORTFOLIO_AGENT_ROLE",
      "outputs": [
        {
          "internalType": "bytes32",
          "name": "",
          "type": "bytes32"
        }
      ],
      "stateMutability": "view",
      "type": "function"
    },
    {
      "inputs": [],
      "name": "PORTFOLIO_MANAGER",
      "outputs": [
        {
          "internalType": "bytes32",
          "name": "",
          "type": "bytes32"
        }
      ],
      "stateMutability": "view",
      "type": "function"
    },
    {
      "inputs": [],
      "name": "asset",
      "outputs": [
        {
          "internalType": "contract IERC20",
          "name": "",
          "type": "address"
        }
      ],
      "stateMutability": "view",
      "type": "function"
    },
    {
      "inputs": [],
      "name": "assetDm",
      "outputs": [
        {
          "internalType": "uint256",
          "name": "",
          "type": "uint256"
        }
      ],
      "stateMutability": "view",
      "type": "function"
    },
    {
      "inputs": [],
      "name": "busd",
      "outputs": [
        {
          "internalType": "contract IERC20",
          "name": "",
          "type": "address"
        }
      ],
      "stateMutability": "view",
      "type": "function"
    },
    {
      "inputs": [],
      "name": "busdDm",
      "outputs": [
        {
          "internalType": "uint256",
          "name": "",
          "type": "uint256"
        }
      ],
      "stateMutability": "view",
      "type": "function"
    },
    {
      "inputs": [
        {
          "internalType": "address",
          "name": "_to",
          "type": "address"
        }
      ],
      "name": "claimRewards",
      "outputs": [
        {
          "internalType": "uint256",
          "name": "",
          "type": "uint256"
        }
      ],
      "stateMutability": "nonpayable",
      "type": "function"
    },
    {
      "inputs": [
        {
          "internalType": "bytes32",
          "name": "role",
          "type": "bytes32"
        }
      ],
      "name": "getRoleAdmin",
      "outputs": [
        {
          "internalType": "bytes32",
          "name": "",
          "type": "bytes32"
        }
      ],
      "stateMutability": "view",
      "type": "function"
    },
    {
      "inputs": [
        {
          "internalType": "bytes32",
          "name": "role",
          "type": "bytes32"
        },
        {
          "internalType": "address",
          "name": "account",
          "type": "address"
        }
      ],
      "name": "grantRole",
      "outputs": [],
      "stateMutability": "nonpayable",
      "type": "function"
    },
    {
      "inputs": [
        {
          "internalType": "bytes32",
          "name": "role",
          "type": "bytes32"
        },
        {
          "internalType": "address",
          "name": "account",
          "type": "address"
        }
      ],
      "name": "hasRole",
      "outputs": [
        {
          "internalType": "bool",
          "name": "",
          "type": "bool"
        }
      ],
      "stateMutability": "view",
      "type": "function"
    },
    {
      "inputs": [],
      "name": "hedgeExchanger",
      "outputs": [
        {
          "internalType": "contract IHedgeExchanger",
          "name": "",
          "type": "address"
        }
      ],
      "stateMutability": "view",
      "type": "function"
    },
    {
      "inputs": [],
      "name": "initialize",
      "outputs": [],
      "stateMutability": "nonpayable",
      "type": "function"
    },
    {
      "inputs": [],
      "name": "liquidationValue",
      "outputs": [
        {
          "internalType": "uint256",
          "name": "",
          "type": "uint256"
        }
      ],
      "stateMutability": "view",
      "type": "function"
    },
    {
      "inputs": [],
      "name": "navSlippageBP",
      "outputs": [
        {
          "internalType": "uint256",
          "name": "",
          "type": "uint256"
        }
      ],
      "stateMutability": "view",
      "type": "function"
    },
    {
      "inputs": [],
      "name": "netAssetValue",
      "outputs": [
        {
          "internalType": "uint256",
          "name": "",
          "type": "uint256"
        }
      ],
      "stateMutability": "view",
      "type": "function"
    },
    {
      "inputs": [],
      "name": "oracleAsset",
      "outputs": [
        {
          "internalType": "contract IPriceFeed",
          "name": "",
          "type": "address"
        }
      ],
      "stateMutability": "view",
      "type": "function"
    },
    {
      "inputs": [],
      "name": "oracleBusd",
      "outputs": [
        {
          "internalType": "contract IPriceFeed",
          "name": "",
          "type": "address"
        }
      ],
      "stateMutability": "view",
      "type": "function"
    },
    {
      "inputs": [],
      "name": "oracleUsdt",
      "outputs": [
        {
          "internalType": "contract IPriceFeed",
          "name": "",
          "type": "address"
        }
      ],
      "stateMutability": "view",
      "type": "function"
    },
    {
      "inputs": [],
      "name": "portfolioManager",
      "outputs": [
        {
          "internalType": "address",
          "name": "",
          "type": "address"
        }
      ],
      "stateMutability": "view",
      "type": "function"
    },
    {
      "inputs": [],
      "name": "proxiableUUID",
      "outputs": [
        {
          "internalType": "bytes32",
          "name": "",
          "type": "bytes32"
        }
      ],
      "stateMutability": "view",
      "type": "function"
    },
    {
      "inputs": [],
      "name": "rebaseToken",
      "outputs": [
        {
          "internalType": "contract IERC20",
          "name": "",
          "type": "address"
        }
      ],
      "stateMutability": "view",
      "type": "function"
    },
    {
      "inputs": [
        {
          "internalType": "bytes32",
          "name": "role",
          "type": "bytes32"
        },
        {
          "internalType": "address",
          "name": "account",
          "type": "address"
        }
      ],
      "name": "renounceRole",
      "outputs": [],
      "stateMutability": "nonpayable",
      "type": "function"
    },
    {
      "inputs": [
        {
          "internalType": "bytes32",
          "name": "role",
          "type": "bytes32"
        },
        {
          "internalType": "address",
          "name": "account",
          "type": "address"
        }
      ],
      "name": "revokeRole",
      "outputs": [],
      "stateMutability": "nonpayable",
      "type": "function"
    },
    {
      "inputs": [
        {
          "components": [
            {
              "internalType": "address",
              "name": "asset",
              "type": "address"
            },
            {
              "internalType": "address",
              "name": "usdt",
              "type": "address"
            },
            {
              "internalType": "address",
              "name": "rebaseToken",
              "type": "address"
            },
            {
              "internalType": "address",
              "name": "hedgeExchanger",
              "type": "address"
            },
            {
              "internalType": "address",
              "name": "wombatRouter",
              "type": "address"
            },
            {
              "internalType": "address",
              "name": "wombatPool",
              "type": "address"
            },
            {
              "internalType": "address",
              "name": "oracleAsset",
              "type": "address"
            },
            {
              "internalType": "address",
              "name": "oracleUsdt",
              "type": "address"
            }
          ],
          "internalType": "struct StrategyEtsUsdcUsdt.StrategyParams",
          "name": "params",
          "type": "tuple"
        }
      ],
      "name": "setParams",
      "outputs": [],
      "stateMutability": "nonpayable",
      "type": "function"
    },
    {
      "inputs": [
        {
          "internalType": "address",
          "name": "_value",
          "type": "address"
        }
      ],
      "name": "setPortfolioManager",
      "outputs": [],
      "stateMutability": "nonpayable",
      "type": "function"
    },
    {
      "inputs": [
        {
          "internalType": "uint256",
          "name": "_swapSlippageBP",
          "type": "uint256"
        },
        {
          "internalType": "uint256",
          "name": "_navSlippageBP",
          "type": "uint256"
        },
        {
          "internalType": "uint256",
          "name": "_stakeSlippageBP",
          "type": "uint256"
        }
      ],
      "name": "setSlippages",
      "outputs": [],
      "stateMutability": "nonpayable",
      "type": "function"
    },
    {
      "inputs": [
        {
          "internalType": "address",
          "name": "_asset",
          "type": "address"
        },
        {
          "internalType": "uint256",
          "name": "_amount",
          "type": "uint256"
        }
      ],
      "name": "stake",
      "outputs": [],
      "stateMutability": "nonpayable",
      "type": "function"
    },
    {
      "inputs": [],
      "name": "stakeSlippageBP",
      "outputs": [
        {
          "internalType": "uint256",
          "name": "",
          "type": "uint256"
        }
      ],
      "stateMutability": "view",
      "type": "function"
    },
    {
      "inputs": [
        {
          "internalType": "bytes4",
          "name": "interfaceId",
          "type": "bytes4"
        }
      ],
      "name": "supportsInterface",
      "outputs": [
        {
          "internalType": "bool",
          "name": "",
          "type": "bool"
        }
      ],
      "stateMutability": "view",
      "type": "function"
    },
    {
      "inputs": [],
      "name": "swapSlippageBP",
      "outputs": [
        {
          "internalType": "uint256",
          "name": "",
          "type": "uint256"
        }
      ],
      "stateMutability": "view",
      "type": "function"
    },
    {
      "inputs": [
        {
          "internalType": "address",
          "name": "_asset",
          "type": "address"
        },
        {
          "internalType": "uint256",
          "name": "_amount",
          "type": "uint256"
        },
        {
          "internalType": "address",
          "name": "_beneficiary",
          "type": "address"
        },
        {
          "internalType": "bool",
          "name": "_targetIsZero",
          "type": "bool"
        }
      ],
      "name": "unstake",
      "outputs": [
        {
          "internalType": "uint256",
          "name": "",
          "type": "uint256"
        }
      ],
      "stateMutability": "nonpayable",
      "type": "function"
    },
    {
      "inputs": [
        {
          "internalType": "address",
          "name": "newImplementation",
          "type": "address"
        }
      ],
      "name": "upgradeTo",
      "outputs": [],
      "stateMutability": "nonpayable",
      "type": "function"
    },
    {
      "inputs": [
        {
          "internalType": "address",
          "name": "newImplementation",
          "type": "address"
        },
        {
          "internalType": "bytes",
          "name": "data",
          "type": "bytes"
        }
      ],
      "name": "upgradeToAndCall",
      "outputs": [],
      "stateMutability": "payable",
      "type": "function"
    },
    {
      "inputs": [],
      "name": "usdt",
      "outputs": [
        {
          "internalType": "contract IERC20",
          "name": "",
          "type": "address"
        }
      ],
      "stateMutability": "view",
      "type": "function"
    },
    {
      "inputs": [],
      "name": "usdtDm",
      "outputs": [
        {
          "internalType": "uint256",
          "name": "",
          "type": "uint256"
        }
      ],
      "stateMutability": "view",
      "type": "function"
    },
    {
      "inputs": [],
      "name": "wombatPool",
      "outputs": [
        {
          "internalType": "address",
          "name": "",
          "type": "address"
        }
      ],
      "stateMutability": "view",
      "type": "function"
    },
    {
      "inputs": [],
      "name": "wombatRouter",
      "outputs": [
        {
          "internalType": "contract IWombatRouter",
          "name": "",
          "type": "address"
        }
      ],
      "stateMutability": "view",
      "type": "function"
    }
  ],
  "numDeployments": 1,
  "solcInputHash": "8c0757fe2cc22e7924ab69f9daff70c1",
  "bytecode": "0x60a06040523060601b6080523480156200001857600080fd5b50600054610100900460ff16158080156200003a5750600054600160ff909116105b806200006a575062000057306200014460201b620016461760201c565b1580156200006a575060005460ff166001145b620000d25760405162461bcd60e51b815260206004820152602e60248201527f496e697469616c697a61626c653a20636f6e747261637420697320616c72656160448201526d191e481a5b9a5d1a585b1a5e995960921b606482015260840160405180910390fd5b6000805460ff191660011790558015620000f6576000805461ff0019166101001790555b80156200013d576000805461ff0019169055604051600181527f7f26b83ff96e1f2b6a682f133852f6798a09c465da95921460cefb38474024989060200160405180910390a15b5062000153565b6001600160a01b03163b151590565b60805160601c6137976200018e600039600081816107da0152818161081a015281816108ba015281816108fa015261098901526137976000f3fe6080604052600436106102255760003560e01c80635ca558f811610123578063a440b21a116100ab578063cc6522c31161006f578063cc6522c314610642578063d547741f14610663578063dc19d64314610683578063ef5cfb8c1461069a578063f6f6b881146106ba57600080fd5b8063a440b21a146105ab578063a66b5713146105cb578063adc9772e146105ec578063ae30c1101461060c578063bf52e0801461062c57600080fd5b80637d5f5802116100f25780637d5f58021461052a5780638129fc1c1461054c57806391d1485414610561578063a217fddf14610581578063a3673b381461059657600080fd5b80635ca558f81461049f5780635dbd733a146104b5578063612c87df146104e9578063620b75df1461050a57600080fd5b80632f48ab7d116101b15780633e5e3b80116101755780633e5e3b801461041f5780634f1ef2861461044057806352d1902d14610453578063561f07731461046857806357a8b8ed1461048857600080fd5b80632f48ab7d1461037c57806336568abe1461039d5780633659cfe6146103bd57806338d52e0f146103dd5780633ca5b234146103fe57600080fd5b8063248a9ca3116101f8578063248a9ca3146102d357806324ce2735146103035780632576e65a1461032457806327c0541b146103395780632f2ff15d1461035a57600080fd5b8063012ee9281461022a57806301ffc9a7146102685780630f9033f714610298578063119cd879146102bd575b600080fd5b34801561023657600080fd5b506101325461024b906001600160a01b031681565b6040516001600160a01b0390911681526020015b60405180910390f35b34801561027457600080fd5b506102886102833660046130de565b6106da565b604051901515815260200161025f565b3480156102a457600080fd5b506102af6101385481565b60405190815260200161025f565b3480156102c957600080fd5b506102af60fd5481565b3480156102df57600080fd5b506102af6102ee366004613080565b60009081526065602052604090206001015490565b34801561030f57600080fd5b5061012e5461024b906001600160a01b031681565b34801561033057600080fd5b506102af610711565b34801561034557600080fd5b506101335461024b906001600160a01b031681565b34801561036657600080fd5b5061037a6103753660046130b2565b610722565b005b34801561038857600080fd5b506101375461024b906001600160a01b031681565b3480156103a957600080fd5b5061037a6103b83660046130b2565b61074c565b3480156103c957600080fd5b5061037a6103d8366004612f29565b6107cf565b3480156103e957600080fd5b5061012d5461024b906001600160a01b031681565b34801561040a57600080fd5b506101305461024b906001600160a01b031681565b34801561042b57600080fd5b5061012f5461024b906001600160a01b031681565b61037a61044e366004612f44565b6108af565b34801561045f57600080fd5b506102af61097c565b34801561047457600080fd5b5061037a610483366004613108565b610a2f565b34801561049457600080fd5b506102af6101355481565b3480156104ab57600080fd5b506102af60fe5481565b3480156104c157600080fd5b506102af7fd67ad422505496469a1adf6cdf9e5ee92ac5d33992843c9ecc4b2f6d6cde913781565b3480156104f557600080fd5b506101315461024b906001600160a01b031681565b34801561051657600080fd5b5060fb5461024b906001600160a01b031681565b34801561053657600080fd5b506102af6000805160206136fb83398151915281565b34801561055857600080fd5b5061037a610d4a565b34801561056d57600080fd5b5061028861057c3660046130b2565b610e14565b34801561058d57600080fd5b506102af600081565b3480156105a257600080fd5b506102af610e3f565b3480156105b757600080fd5b5061037a6105c6366004612f29565b610e4b565b3480156105d757600080fd5b506101345461024b906001600160a01b031681565b3480156105f857600080fd5b5061037a610607366004612fea565b610f7a565b34801561061857600080fd5b5061037a6106273660046131da565b6111aa565b34801561063857600080fd5b506102af60fc5481565b34801561064e57600080fd5b506101395461024b906001600160a01b031681565b34801561066f57600080fd5b5061037a61067e3660046130b2565b61131f565b34801561068f57600080fd5b506102af6101365481565b3480156106a657600080fd5b506102af6106b5366004612f29565b611344565b3480156106c657600080fd5b506102af6106d5366004613014565b611383565b60006001600160e01b03198216637965db0b60e01b148061070b57506301ffc9a760e01b6001600160e01b03198316145b92915050565b600061071d6000611655565b905090565b60008281526065602052604090206001015461073d8161182e565b6107478383611838565b505050565b6001600160a01b03811633146107c15760405162461bcd60e51b815260206004820152602f60248201527f416363657373436f6e74726f6c3a2063616e206f6e6c792072656e6f756e636560448201526e103937b632b9903337b91039b2b63360891b60648201526084015b60405180910390fd5b6107cb82826118be565b5050565b306001600160a01b037f00000000000000000000000000000000000000000000000000000000000000001614156108185760405162461bcd60e51b81526004016107b8906133f2565b7f00000000000000000000000000000000000000000000000000000000000000006001600160a01b031661086160008051602061371b833981519152546001600160a01b031690565b6001600160a01b0316146108875760405162461bcd60e51b81526004016107b89061343e565b61089081611925565b604080516000808252602082019092526108ac91839190611930565b50565b306001600160a01b037f00000000000000000000000000000000000000000000000000000000000000001614156108f85760405162461bcd60e51b81526004016107b8906133f2565b7f00000000000000000000000000000000000000000000000000000000000000006001600160a01b031661094160008051602061371b833981519152546001600160a01b031690565b6001600160a01b0316146109675760405162461bcd60e51b81526004016107b89061343e565b61097082611925565b6107cb82826001611930565b6000306001600160a01b037f00000000000000000000000000000000000000000000000000000000000000001614610a1c5760405162461bcd60e51b815260206004820152603860248201527f555550535570677261646561626c653a206d757374206e6f742062652063616c60448201527f6c6564207468726f7567682064656c656761746563616c6c000000000000000060648201526084016107b8565b5060008051602061371b83398151915290565b610a3a600033610e14565b610a7d5760405162461bcd60e51b81526020600482015260146024820152735265737472696374656420746f2061646d696e7360601b60448201526064016107b8565b610a8a6020820182612f29565b61012d80546001600160a01b0319166001600160a01b0392909216919091179055610abb6040820160208301612f29565b61013780546001600160a01b0319166001600160a01b0392909216919091179055610aec6060820160408301612f29565b61012e80546001600160a01b0319166001600160a01b0392909216919091179055610b1d6080820160608301612f29565b61012f80546001600160a01b0319166001600160a01b0392909216919091179055610b4e60a0820160808301612f29565b61013180546001600160a01b0319166001600160a01b0392909216919091179055610b7f60c0820160a08301612f29565b61013280546001600160a01b0319166001600160a01b0392909216919091179055610bb060e0820160c08301612f29565b61013380546001600160a01b0319166001600160a01b0392909216919091179055610be2610100820160e08301612f29565b61013980546001600160a01b0319166001600160a01b0392909216919091179055610c106020820182612f29565b6001600160a01b031663313ce5676040518163ffffffff1660e01b815260040160206040518083038186803b158015610c4857600080fd5b505afa158015610c5c573d6000803e3d6000fd5b505050506040513d601f19601f82011682018060405250810190610c809190613206565b610c8b90600a613586565b61013555610c9f6040820160208301612f29565b6001600160a01b031663313ce5676040518163ffffffff1660e01b815260040160206040518083038186803b158015610cd757600080fd5b505afa158015610ceb573d6000803e3d6000fd5b505050506040513d601f19601f82011682018060405250810190610d0f9190613206565b610d1a90600a613586565b610138556040517fea5646eb3528e525944447a4a97de700dd472298626e5c0481d1c82c3da86ea590600090a150565b600054610100900460ff1615808015610d6a5750600054600160ff909116105b80610d845750303b158015610d84575060005460ff166001145b610da05760405162461bcd60e51b81526004016107b89061348a565b6000805460ff191660011790558015610dc3576000805461ff0019166101001790555b610dcb611aaa565b80156108ac576000805461ff0019169055604051600181527f7f26b83ff96e1f2b6a682f133852f6798a09c465da95921460cefb3847402498906020015b60405180910390a150565b60009182526065602090815260408084206001600160a01b0393909316845291905290205460ff1690565b600061071d6001611655565b610e56600033610e14565b610e995760405162461bcd60e51b81526020600482015260146024820152735265737472696374656420746f2061646d696e7360601b60448201526064016107b8565b6001600160a01b038116610eef5760405162461bcd60e51b815260206004820152601860248201527f5a65726f2061646472657373206e6f7420616c6c6f776564000000000000000060448201526064016107b8565b60fb54610f14906000805160206136fb833981519152906001600160a01b031661131f565b610f2c6000805160206136fb83398151915282610722565b60fb80546001600160a01b0319166001600160a01b0383169081179091556040519081527ff7b449fcd5cfb7379dcd34cb69428dd9f882033b15be33d83b42d91daa28eeb790602001610e09565b610f926000805160206136fb83398151915233610e14565b610fae5760405162461bcd60e51b81526004016107b8906133bb565b600061102c306001600160a01b031663a3673b386040518163ffffffff1660e01b815260040160206040518083038186803b158015610fec57600080fd5b505afa158015611000573d6000803e3d6000fd5b505050506040513d601f19601f820116820180604052508101906110249190613099565b60fd54611b8f565b6040516370a0823160e01b81523060048201529091506110b19084906001600160a01b038216906370a082319060240160206040518083038186803b15801561107457600080fd5b505afa158015611088573d6000803e3d6000fd5b505050506040513d601f19601f820116820180604052508101906110ac9190613099565b611bb9565b80306001600160a01b031663a3673b386040518163ffffffff1660e01b815260040160206040518083038186803b1580156110eb57600080fd5b505afa1580156110ff573d6000803e3d6000fd5b505050506040513d601f19601f820116820180604052508101906111239190613099565b10156111715760405162461bcd60e51b815260206004820152601f60248201527f5374726174656779204e4156206c657373207468616e2065787065637465640060448201526064016107b8565b6040518281527f227a473b70d2f893cc7659219575c030a63b5743024fe1e0c1a680e708b1525a906020015b60405180910390a1505050565b6111d47fd67ad422505496469a1adf6cdf9e5ee92ac5d33992843c9ecc4b2f6d6cde913733610e14565b8061127b575060fb54604051632474521560e21b81527fd67ad422505496469a1adf6cdf9e5ee92ac5d33992843c9ecc4b2f6d6cde913760048201523360248201526001600160a01b03909116906391d148549060440160206040518083038186803b15801561124357600080fd5b505afa158015611257573d6000803e3d6000fd5b505050506040513d601f19601f8201168201806040525081019061127b9190613063565b6112d25760405162461bcd60e51b815260206004820152602260248201527f5265737472696374656420746f20504f5254464f4c494f5f4147454e545f524f6044820152614c4560f01b60648201526084016107b8565b60fc83905560fd82905560fe81905560408051848152602081018490529081018290527f116fbf1e97a2be629ad98abfb6c332733c8996c2dfb174dd2efe8440df381d1a9060600161119d565b60008281526065602052604090206001015461133a8161182e565b61074783836118be565b600061135e6000805160206136fb83398151915233610e14565b61137a5760405162461bcd60e51b81526004016107b8906133bb565b5060005b919050565b600061139d6000805160206136fb83398151915233610e14565b6113b95760405162461bcd60e51b81526004016107b8906133bb565b60006113f7306001600160a01b031663a3673b386040518163ffffffff1660e01b815260040160206040518083038186803b158015610fec57600080fd5b905060008084156114165750600061140f8887611e4e565b9150611485565b611421888888612150565b9150868210156114855760405162461bcd60e51b815260206004820152602960248201527f52657475726e65642076616c7565206c657373207468616e2072657175657374604482015268195908185b5bdd5b9d60ba1b60648201526084016107b8565b82306001600160a01b031663a3673b386040518163ffffffff1660e01b815260040160206040518083038186803b1580156114bf57600080fd5b505afa1580156114d3573d6000803e3d6000fd5b505050506040513d601f19601f820116820180604052508101906114f79190613099565b10156115455760405162461bcd60e51b815260206004820152601f60248201527f5374726174656779204e4156206c657373207468616e2065787065637465640060448201526064016107b8565b60405163a9059cbb60e01b81526001600160a01b0387811660048301526024820184905289169063a9059cbb90604401602060405180830381600087803b15801561158f57600080fd5b505af11580156115a3573d6000803e3d6000fd5b505050506040513d601f19601f820116820180604052508101906115c79190613063565b5060408051888152602081018490527f9045c2ac9b2026de8075f2701bbdde882cd5e830b3b1ead9a15b22f2b5b93742910160405180910390a1801561163b576040518181527f3ac0594a85a20354f9dc74f33728416d19ce00d04a406c108cc2dcf2cecea1349060200160405180910390a15b509695505050505050565b6001600160a01b03163b151590565b61012d546040516370a0823160e01b815230600482015260009182916001600160a01b03909116906370a082319060240160206040518083038186803b15801561169e57600080fd5b505afa1580156116b2573d6000803e3d6000fd5b505050506040513d601f19601f820116820180604052508101906116d69190613099565b61012e546040516370a0823160e01b81523060048201529192506000916001600160a01b03909116906370a082319060240160206040518083038186803b15801561172057600080fd5b505afa158015611734573d6000803e3d6000fd5b505050506040513d601f19601f820116820180604052508101906117589190613099565b610137546040516370a0823160e01b81523060048201526001600160a01b03909116906370a082319060240160206040518083038186803b15801561179c57600080fd5b505afa1580156117b0573d6000803e3d6000fd5b505050506040513d601f19601f820116820180604052508101906117d49190613099565b6117de9190613509565b90508015611827578315611806576117f581612488565b6117ff9083613509565b9150611827565b61181a61181282612488565b60fc54611b8f565b6118249083613509565b91505b5092915050565b6108ac81336125ba565b6118428282610e14565b6107cb5760008281526065602090815260408083206001600160a01b03851684529091529020805460ff1916600117905561187a3390565b6001600160a01b0316816001600160a01b0316837f2f8788117e7eff1d82e926ec794901d17c78024a50270940304540a733656f0d60405160405180910390a45050565b6118c88282610e14565b156107cb5760008281526065602090815260408083206001600160a01b0385168085529252808320805460ff1916905551339285917ff6391f5c32d9c69d2a47ea670b442974b53935d1edc7fd64eb21e047a839171b9190a45050565b60006107cb8161182e565b7f4910fdfa16fed3260ed0e7147f7cc6da11a60208b5b9406d12a635614ffd91435460ff16156119635761074783612613565b826001600160a01b03166352d1902d6040518163ffffffff1660e01b815260040160206040518083038186803b15801561199c57600080fd5b505afa9250505080156119cc575060408051601f3d908101601f191682019092526119c991810190613099565b60015b611a2f5760405162461bcd60e51b815260206004820152602e60248201527f45524331393637557067726164653a206e657720696d706c656d656e7461746960448201526d6f6e206973206e6f74205555505360901b60648201526084016107b8565b60008051602061371b8339815191528114611a9e5760405162461bcd60e51b815260206004820152602960248201527f45524331393637557067726164653a20756e737570706f727465642070726f786044820152681a58589b195555525160ba1b60648201526084016107b8565b506107478383836126af565b600054610100900460ff1615808015611aca5750600054600160ff909116105b80611ae45750303b158015611ae4575060005460ff166001145b611b005760405162461bcd60e51b81526004016107b89061348a565b6000805460ff191660011790558015611b23576000805461ff0019166101001790555b611b2b6126da565b611b336126da565b611b3e600033611838565b601460fc81905560fd55600460fe5580156108ac576000805461ff0019169055604051600181527f7f26b83ff96e1f2b6a682f133852f6798a09c465da95921460cefb384740249890602001610e09565b6000612710611b9e8382613650565b611ba89085613631565b611bb29190613521565b9392505050565b61012d546040516370a0823160e01b81523060048201526000916001600160a01b0316906370a082319060240160206040518083038186803b158015611bfe57600080fd5b505afa158015611c12573d6000803e3d6000fd5b505050506040513d601f19601f82011682018060405250810190611c369190613099565b6101315461012d546101375461013254939450600093611c69936001600160a01b03908116938116928116911686612747565b90508015611cad576101315461012d546101375461013254611cab936001600160a01b03908116938116928116911686611ca5611812826128a8565b306129d2565b505b610137546040516370a0823160e01b81523060048201526000916001600160a01b0316906370a082319060240160206040518083038186803b158015611cf257600080fd5b505afa158015611d06573d6000803e3d6000fd5b505050506040513d601f19601f82011682018060405250810190611d2a9190613099565b6101375461012f5460405163095ea7b360e01b81526001600160a01b03918216600482015260248101849052929350169063095ea7b390604401602060405180830381600087803b158015611d7e57600080fd5b505af1158015611d92573d6000803e3d6000fd5b505050506040513d601f19601f82011682018060405250810190611db69190613063565b5061012f54604080516316fb876360e31b8152600481018490526024810191909152600060448201526001600160a01b039091169063b7dc3b1890606401602060405180830381600087803b158015611e0e57600080fd5b505af1158015611e22573d6000803e3d6000fd5b505050506040513d601f19601f82011682018060405250810190611e469190613099565b505050505050565b61012e546040516370a0823160e01b815230600482015260009182916001600160a01b03909116906370a082319060240160206040518083038186803b158015611e9757600080fd5b505afa158015611eab573d6000803e3d6000fd5b505050506040513d601f19601f82011682018060405250810190611ecf9190613099565b61012e5461012f5460405163095ea7b360e01b81526001600160a01b03918216600482015260248101849052929350169063095ea7b390604401602060405180830381600087803b158015611f2357600080fd5b505af1158015611f37573d6000803e3d6000fd5b505050506040513d601f19601f82011682018060405250810190611f5b9190613063565b5061012f5460405163db006a7560e01b8152600481018390526001600160a01b039091169063db006a7590602401602060405180830381600087803b158015611fa357600080fd5b505af1158015611fb7573d6000803e3d6000fd5b505050506040513d601f19601f82011682018060405250810190611fdb9190613099565b50610137546040516370a0823160e01b81523060048201526000916001600160a01b0316906370a082319060240160206040518083038186803b15801561202157600080fd5b505afa158015612035573d6000803e3d6000fd5b505050506040513d601f19601f820116820180604052508101906120599190613099565b610131546101375461012d546101325493945060009361208c936001600160a01b03908116938116928116911686612747565b905080156120ca57610131546101375461012d54610132546120c8936001600160a01b03908116938116928116911686611ca561181282612488565b505b61012d546040516370a0823160e01b81523060048201526001600160a01b03909116906370a082319060240160206040518083038186803b15801561210e57600080fd5b505afa158015612122573d6000803e3d6000fd5b505050506040513d601f19601f820116820180604052508101906121469190613099565b9695505050505050565b60008061216761215f856128a8565b60fc54612bb8565b612177906509184e72a000613509565b61012e546040516370a0823160e01b81523060048201529192506000916001600160a01b03909116906370a082319060240160206040518083038186803b1580156121c157600080fd5b505afa1580156121d5573d6000803e3d6000fd5b505050506040513d601f19601f820116820180604052508101906121f99190613099565b905080821115612207578091505b61012e5461012f5460405163095ea7b360e01b81526001600160a01b0391821660048201526024810185905291169063095ea7b390604401602060405180830381600087803b15801561225957600080fd5b505af115801561226d573d6000803e3d6000fd5b505050506040513d601f19601f820116820180604052508101906122919190613063565b5061012f5460405163db006a7560e01b8152600481018490526001600160a01b039091169063db006a7590602401602060405180830381600087803b1580156122d957600080fd5b505af11580156122ed573d6000803e3d6000fd5b505050506040513d601f19601f820116820180604052508101906123119190613099565b50610137546040516370a0823160e01b81523060048201526000916001600160a01b0316906370a082319060240160206040518083038186803b15801561235757600080fd5b505afa15801561236b573d6000803e3d6000fd5b505050506040513d601f19601f8201168201806040525081019061238f9190613099565b610131546101375461012d54610132549394506000936123c2936001600160a01b03908116938116928116911686612747565b9050801561240057610131546101375461012d54610132546123fe936001600160a01b03908116938116928116911686611ca561181282612488565b505b61012d546040516370a0823160e01b81523060048201526001600160a01b03909116906370a082319060240160206040518083038186803b15801561244457600080fd5b505afa158015612458573d6000803e3d6000fd5b505050506040513d601f19601f8201168201806040525081019061247c9190613099565b98975050505050505050565b60008061013960009054906101000a90046001600160a01b03166001600160a01b03166350d25bcd6040518163ffffffff1660e01b815260040160206040518083038186803b1580156124da57600080fd5b505afa1580156124ee573d6000803e3d6000fd5b505050506040513d601f19601f820116820180604052508101906125129190613099565b9050600061013360009054906101000a90046001600160a01b03166001600160a01b03166350d25bcd6040518163ffffffff1660e01b815260040160206040518083038186803b15801561256557600080fd5b505afa158015612579573d6000803e3d6000fd5b505050506040513d601f19601f8201168201806040525081019061259d9190613099565b90506125b28461013854610135548585612bc7565b949350505050565b6125c48282610e14565b6107cb576125d181612bf2565b6125dc836020612c04565b6040516020016125ed929190613289565b60408051601f198184030181529082905262461bcd60e51b82526107b891600401613388565b6001600160a01b0381163b6126805760405162461bcd60e51b815260206004820152602d60248201527f455243313936373a206e657720696d706c656d656e746174696f6e206973206e60448201526c1bdd08184818dbdb9d1c9858dd609a1b60648201526084016107b8565b60008051602061371b83398151915280546001600160a01b0319166001600160a01b0392909216919091179055565b6126b883612da0565b6000825111806126c55750805b15610747576126d48383612de0565b50505050565b600054610100900460ff166127455760405162461bcd60e51b815260206004820152602b60248201527f496e697469616c697a61626c653a20636f6e7472616374206973206e6f74206960448201526a6e697469616c697a696e6760a81b60648201526084016107b8565b565b604080516002808252606082018352600092839291906020830190803683370190505090508581600081518110612780576127806136c0565b60200260200101906001600160a01b031690816001600160a01b03168152505084816001815181106127b4576127b46136c0565b6001600160a01b0392909216602092830291909101909101526040805160018082528183019092526000918160200160208202803683370190505090508481600081518110612805576128056136c0565b6001600160a01b03928316602091820292909201015260405163b9e598c160e01b81526000918a169063b9e598c19061284690869086908a906004016132fe565b60006040518083038186803b15801561285e57600080fd5b505afa158015612872573d6000803e3d6000fd5b505050506040513d6000823e601f3d908101601f1916820160405261289a9190810190613121565b509998505050505050505050565b60008061013960009054906101000a90046001600160a01b03166001600160a01b03166350d25bcd6040518163ffffffff1660e01b815260040160206040518083038186803b1580156128fa57600080fd5b505afa15801561290e573d6000803e3d6000fd5b505050506040513d601f19601f820116820180604052508101906129329190613099565b9050600061013360009054906101000a90046001600160a01b03166001600160a01b03166350d25bcd6040518163ffffffff1660e01b815260040160206040518083038186803b15801561298557600080fd5b505afa158015612999573d6000803e3d6000fd5b505050506040513d601f19601f820116820180604052508101906129bd9190613099565b90506125b28461013554610138548486612bc7565b60405163095ea7b360e01b81526001600160a01b038881166004830152602482018590526000919088169063095ea7b390604401602060405180830381600087803b158015612a2057600080fd5b505af1158015612a34573d6000803e3d6000fd5b505050506040513d601f19601f82011682018060405250810190612a589190613063565b506040805160028082526060820183526000926020830190803683370190505090508781600081518110612a8e57612a8e6136c0565b60200260200101906001600160a01b031690816001600160a01b0316815250508681600181518110612ac257612ac26136c0565b6001600160a01b0392909216602092830291909101909101526040805160018082528183019092526000918160200160208202803683370190505090508681600081518110612b1357612b136136c0565b6001600160a01b03928316602091820292909201015260405163351041e960e21b8152908b169063d44107a490612b5890859085908b908b908b904290600401613334565b602060405180830381600087803b158015612b7257600080fd5b505af1158015612b86573d6000803e3d6000fd5b505050506040513d601f19601f82011682018060405250810190612baa9190613099565b9a9950505050505050505050565b6000612710611b9e8382613509565b6000612bd38286613631565b83612bde8689613631565b612be89190613631565b6121469190613521565b606061070b6001600160a01b03831660145b60606000612c13836002613631565b612c1e906002613509565b67ffffffffffffffff811115612c3657612c366136d6565b6040519080825280601f01601f191660200182016040528015612c60576020820181803683370190505b509050600360fc1b81600081518110612c7b57612c7b6136c0565b60200101906001600160f81b031916908160001a905350600f60fb1b81600181518110612caa57612caa6136c0565b60200101906001600160f81b031916908160001a9053506000612cce846002613631565b612cd9906001613509565b90505b6001811115612d51576f181899199a1a9b1b9c1cb0b131b232b360811b85600f1660108110612d0d57612d0d6136c0565b1a60f81b828281518110612d2357612d236136c0565b60200101906001600160f81b031916908160001a90535060049490941c93612d4a81613693565b9050612cdc565b508315611bb25760405162461bcd60e51b815260206004820181905260248201527f537472696e67733a20686578206c656e67746820696e73756666696369656e7460448201526064016107b8565b612da981612613565b6040516001600160a01b038216907fbc7cd75a20ee27fd9adebab32041f755214dbc6bffa90cc0225b39da2e5c2d3b90600090a250565b60606001600160a01b0383163b612e485760405162461bcd60e51b815260206004820152602660248201527f416464726573733a2064656c65676174652063616c6c20746f206e6f6e2d636f6044820152651b9d1c9858dd60d21b60648201526084016107b8565b600080846001600160a01b031684604051612e63919061326d565b600060405180830381855af49150503d8060008114612e9e576040519150601f19603f3d011682016040523d82523d6000602084013e612ea3565b606091505b5091509150612ecb828260405180606001604052806027815260200161373b60279139612ed4565b95945050505050565b60608315612ee3575081611bb2565b611bb28383815115612ef85781518083602001fd5b8060405162461bcd60e51b81526004016107b89190613388565b80356001600160a01b038116811461137e57600080fd5b600060208284031215612f3b57600080fd5b611bb282612f12565b60008060408385031215612f5757600080fd5b612f6083612f12565b915060208084013567ffffffffffffffff80821115612f7e57600080fd5b818601915086601f830112612f9257600080fd5b813581811115612fa457612fa46136d6565b612fb6601f8201601f191685016134d8565b91508082528784828501011115612fcc57600080fd5b80848401858401376000848284010152508093505050509250929050565b60008060408385031215612ffd57600080fd5b61300683612f12565b946020939093013593505050565b6000806000806080858703121561302a57600080fd5b61303385612f12565b93506020850135925061304860408601612f12565b91506060850135613058816136ec565b939692955090935050565b60006020828403121561307557600080fd5b8151611bb2816136ec565b60006020828403121561309257600080fd5b5035919050565b6000602082840312156130ab57600080fd5b5051919050565b600080604083850312156130c557600080fd5b823591506130d560208401612f12565b90509250929050565b6000602082840312156130f057600080fd5b81356001600160e01b031981168114611bb257600080fd5b6000610100828403121561311b57600080fd5b50919050565b6000806040838503121561313457600080fd5b8251915060208084015167ffffffffffffffff8082111561315457600080fd5b818601915086601f83011261316857600080fd5b81518181111561317a5761317a6136d6565b8060051b915061318b8483016134d8565b8181528481019084860184860187018b10156131a657600080fd5b600095505b838610156131c95780518352600195909501949186019186016131ab565b508096505050505050509250929050565b6000806000606084860312156131ef57600080fd5b505081359360208301359350604090920135919050565b60006020828403121561321857600080fd5b815160ff81168114611bb257600080fd5b600081518084526020808501945080840160005b838110156132625781516001600160a01b03168752958201959082019060010161323d565b509495945050505050565b6000825161327f818460208701613667565b9190910192915050565b7f416363657373436f6e74726f6c3a206163636f756e74200000000000000000008152600083516132c1816017850160208801613667565b7001034b99036b4b9b9b4b733903937b6329607d1b60179184019182015283516132f2816028840160208801613667565b01602801949350505050565b6060815260006133116060830186613229565b82810360208401526133238186613229565b915050826040830152949350505050565b60c08152600061334760c0830189613229565b82810360208401526133598189613229565b6040840197909752505060608101939093526001600160a01b0391909116608083015260a09091015292915050565b60208152600082518060208401526133a7816040850160208701613667565b601f01601f19169190910160400192915050565b6020808252601f908201527f5265737472696374656420746f20504f5254464f4c494f5f4d414e4147455200604082015260600190565b6020808252602c908201527f46756e6374696f6e206d7573742062652063616c6c6564207468726f7567682060408201526b19195b1959d85d1958d85b1b60a21b606082015260800190565b6020808252602c908201527f46756e6374696f6e206d7573742062652063616c6c6564207468726f7567682060408201526b6163746976652070726f787960a01b606082015260800190565b6020808252602e908201527f496e697469616c697a61626c653a20636f6e747261637420697320616c72656160408201526d191e481a5b9a5d1a585b1a5e995960921b606082015260800190565b604051601f8201601f1916810167ffffffffffffffff81118282101715613501576135016136d6565b604052919050565b6000821982111561351c5761351c6136aa565b500190565b60008261353e57634e487b7160e01b600052601260045260246000fd5b500490565b600181815b8085111561357e578160001904821115613564576135646136aa565b8085161561357157918102915b93841c9390800290613548565b509250929050565b6000611bb260ff84168360008261359f5750600161070b565b816135ac5750600061070b565b81600181146135c257600281146135cc576135e8565b600191505061070b565b60ff8411156135dd576135dd6136aa565b50506001821b61070b565b5060208310610133831016604e8410600b841016171561360b575081810a61070b565b6136158383613543565b8060001904821115613629576136296136aa565b029392505050565b600081600019048311821515161561364b5761364b6136aa565b500290565b600082821015613662576136626136aa565b500390565b60005b8381101561368257818101518382015260200161366a565b838111156126d45750506000910152565b6000816136a2576136a26136aa565b506000190190565b634e487b7160e01b600052601160045260246000fd5b634e487b7160e01b600052603260045260246000fd5b634e487b7160e01b600052604160045260246000fd5b80151581146108ac57600080fdfe90c2aa7471c04182221f68e80c07ab1e5946e4c63f8693e14ca40385d529f051360894a13ba1a3210667c828492db98dca3e2076cc3735a920a3ca505d382bbc416464726573733a206c6f772d6c6576656c2064656c65676174652063616c6c206661696c6564a2646970667358221220732d64d90ecaee1329ce8913cd2a7c58df6fd423352fe5092b99edd44eb7ab5a64736f6c63430008060033",
  "implementation": "0x1AAEACBbb7188D0C1A27286a4CA18Bbb2c504A1b",
  "devdoc": {
    "kind": "dev",
    "methods": {
      "constructor": {
        "custom:oz-upgrades-unsafe-allow": "constructor"
      },
      "getRoleAdmin(bytes32)": {
        "details": "Returns the admin role that controls `role`. See {grantRole} and {revokeRole}. To change a role's admin, use {_setRoleAdmin}."
      },
      "grantRole(bytes32,address)": {
        "details": "Grants `role` to `account`. If `account` had not been already granted `role`, emits a {RoleGranted} event. Requirements: - the caller must have ``role``'s admin role. May emit a {RoleGranted} event."
      },
      "hasRole(bytes32,address)": {
        "details": "Returns `true` if `account` has been granted `role`."
      },
      "proxiableUUID()": {
        "details": "Implementation of the ERC1822 {proxiableUUID} function. This returns the storage slot used by the implementation. It is used to validate the implementation's compatibility when performing an upgrade. IMPORTANT: A proxy pointing at a proxiable contract should not be considered proxiable itself, because this risks bricking a proxy that upgrades to it, by delegating to itself until out of gas. Thus it is critical that this function revert if invoked through a proxy. This is guaranteed by the `notDelegated` modifier."
      },
      "renounceRole(bytes32,address)": {
        "details": "Revokes `role` from the calling account. Roles are often managed via {grantRole} and {revokeRole}: this function's purpose is to provide a mechanism for accounts to lose their privileges if they are compromised (such as when a trusted device is misplaced). If the calling account had been revoked `role`, emits a {RoleRevoked} event. Requirements: - the caller must be `account`. May emit a {RoleRevoked} event."
      },
      "revokeRole(bytes32,address)": {
        "details": "Revokes `role` from `account`. If `account` had been granted `role`, emits a {RoleRevoked} event. Requirements: - the caller must have ``role``'s admin role. May emit a {RoleRevoked} event."
      },
      "supportsInterface(bytes4)": {
        "details": "See {IERC165-supportsInterface}."
      },
      "upgradeTo(address)": {
        "details": "Upgrade the implementation of the proxy to `newImplementation`. Calls {_authorizeUpgrade}. Emits an {Upgraded} event."
      },
      "upgradeToAndCall(address,bytes)": {
        "details": "Upgrade the implementation of the proxy to `newImplementation`, and subsequently execute the function call encoded in `data`. Calls {_authorizeUpgrade}. Emits an {Upgraded} event."
      }
    },
    "version": 1
  },
  "userdoc": {
    "kind": "user",
    "methods": {},
    "version": 1
  },
  "storageLayout": {
    "storage": [
      {
        "astId": 804,
        "contract": "contracts/StrategyEtsUsdcUsdt.sol:StrategyEtsUsdcUsdt",
        "label": "_initialized",
        "offset": 0,
        "slot": "0",
        "type": "t_uint8"
      },
      {
        "astId": 807,
        "contract": "contracts/StrategyEtsUsdcUsdt.sol:StrategyEtsUsdcUsdt",
        "label": "_initializing",
        "offset": 1,
        "slot": "0",
        "type": "t_bool"
      },
      {
        "astId": 1427,
        "contract": "contracts/StrategyEtsUsdcUsdt.sol:StrategyEtsUsdcUsdt",
        "label": "__gap",
        "offset": 0,
        "slot": "1",
        "type": "t_array(t_uint256)50_storage"
      },
      {
        "astId": 1706,
        "contract": "contracts/StrategyEtsUsdcUsdt.sol:StrategyEtsUsdcUsdt",
        "label": "__gap",
        "offset": 0,
        "slot": "51",
        "type": "t_array(t_uint256)50_storage"
      },
      {
        "astId": 39,
        "contract": "contracts/StrategyEtsUsdcUsdt.sol:StrategyEtsUsdcUsdt",
        "label": "_roles",
        "offset": 0,
        "slot": "101",
        "type": "t_mapping(t_bytes32,t_struct(RoleData)34_storage)"
      },
      {
        "astId": 334,
        "contract": "contracts/StrategyEtsUsdcUsdt.sol:StrategyEtsUsdcUsdt",
        "label": "__gap",
        "offset": 0,
        "slot": "102",
        "type": "t_array(t_uint256)49_storage"
      },
      {
        "astId": 786,
        "contract": "contracts/StrategyEtsUsdcUsdt.sol:StrategyEtsUsdcUsdt",
        "label": "__gap",
        "offset": 0,
        "slot": "151",
        "type": "t_array(t_uint256)50_storage"
      },
      {
        "astId": 1101,
        "contract": "contracts/StrategyEtsUsdcUsdt.sol:StrategyEtsUsdcUsdt",
        "label": "__gap",
        "offset": 0,
        "slot": "201",
        "type": "t_array(t_uint256)50_storage"
      },
      {
        "astId": 13392,
        "contract": "contracts/StrategyEtsUsdcUsdt.sol:StrategyEtsUsdcUsdt",
        "label": "portfolioManager",
        "offset": 0,
        "slot": "251",
        "type": "t_address"
      },
      {
        "astId": 13394,
        "contract": "contracts/StrategyEtsUsdcUsdt.sol:StrategyEtsUsdcUsdt",
        "label": "swapSlippageBP",
        "offset": 0,
        "slot": "252",
        "type": "t_uint256"
      },
      {
        "astId": 13396,
        "contract": "contracts/StrategyEtsUsdcUsdt.sol:StrategyEtsUsdcUsdt",
        "label": "navSlippageBP",
        "offset": 0,
        "slot": "253",
        "type": "t_uint256"
      },
      {
        "astId": 13398,
        "contract": "contracts/StrategyEtsUsdcUsdt.sol:StrategyEtsUsdcUsdt",
        "label": "stakeSlippageBP",
        "offset": 0,
        "slot": "254",
        "type": "t_uint256"
      },
      {
        "astId": 13783,
        "contract": "contracts/StrategyEtsUsdcUsdt.sol:StrategyEtsUsdcUsdt",
        "label": "__gap",
        "offset": 0,
        "slot": "255",
        "type": "t_array(t_uint256)46_storage"
      },
      {
        "astId": 23033,
        "contract": "contracts/StrategyEtsUsdcUsdt.sol:StrategyEtsUsdcUsdt",
        "label": "asset",
        "offset": 0,
        "slot": "301",
        "type": "t_contract(IERC20)3249"
      },
      {
        "astId": 23036,
        "contract": "contracts/StrategyEtsUsdcUsdt.sol:StrategyEtsUsdcUsdt",
        "label": "rebaseToken",
        "offset": 0,
        "slot": "302",
        "type": "t_contract(IERC20)3249"
      },
      {
        "astId": 23039,
        "contract": "contracts/StrategyEtsUsdcUsdt.sol:StrategyEtsUsdcUsdt",
        "label": "hedgeExchanger",
        "offset": 0,
        "slot": "303",
        "type": "t_contract(IHedgeExchanger)13881"
      },
      {
        "astId": 23042,
        "contract": "contracts/StrategyEtsUsdcUsdt.sol:StrategyEtsUsdcUsdt",
        "label": "busd",
        "offset": 0,
        "slot": "304",
        "type": "t_contract(IERC20)3249"
      },
      {
        "astId": 23045,
        "contract": "contracts/StrategyEtsUsdcUsdt.sol:StrategyEtsUsdcUsdt",
        "label": "wombatRouter",
        "offset": 0,
        "slot": "305",
        "type": "t_contract(IWombatRouter)12527"
      },
      {
        "astId": 23047,
        "contract": "contracts/StrategyEtsUsdcUsdt.sol:StrategyEtsUsdcUsdt",
        "label": "wombatPool",
        "offset": 0,
        "slot": "306",
        "type": "t_address"
      },
      {
        "astId": 23050,
        "contract": "contracts/StrategyEtsUsdcUsdt.sol:StrategyEtsUsdcUsdt",
        "label": "oracleAsset",
        "offset": 0,
        "slot": "307",
        "type": "t_contract(IPriceFeed)5819"
      },
      {
        "astId": 23053,
        "contract": "contracts/StrategyEtsUsdcUsdt.sol:StrategyEtsUsdcUsdt",
        "label": "oracleBusd",
        "offset": 0,
        "slot": "308",
        "type": "t_contract(IPriceFeed)5819"
      },
      {
        "astId": 23055,
        "contract": "contracts/StrategyEtsUsdcUsdt.sol:StrategyEtsUsdcUsdt",
        "label": "assetDm",
        "offset": 0,
        "slot": "309",
        "type": "t_uint256"
      },
      {
        "astId": 23057,
        "contract": "contracts/StrategyEtsUsdcUsdt.sol:StrategyEtsUsdcUsdt",
        "label": "busdDm",
        "offset": 0,
        "slot": "310",
        "type": "t_uint256"
      },
      {
        "astId": 23060,
        "contract": "contracts/StrategyEtsUsdcUsdt.sol:StrategyEtsUsdcUsdt",
        "label": "usdt",
        "offset": 0,
        "slot": "311",
        "type": "t_contract(IERC20)3249"
      },
      {
        "astId": 23062,
        "contract": "contracts/StrategyEtsUsdcUsdt.sol:StrategyEtsUsdcUsdt",
        "label": "usdtDm",
        "offset": 0,
        "slot": "312",
        "type": "t_uint256"
      },
      {
        "astId": 23065,
        "contract": "contracts/StrategyEtsUsdcUsdt.sol:StrategyEtsUsdcUsdt",
        "label": "oracleUsdt",
        "offset": 0,
        "slot": "313",
        "type": "t_contract(IPriceFeed)5819"
      }
    ],
    "types": {
      "t_address": {
        "encoding": "inplace",
        "label": "address",
        "numberOfBytes": "20"
      },
      "t_array(t_uint256)46_storage": {
        "base": "t_uint256",
        "encoding": "inplace",
        "label": "uint256[46]",
        "numberOfBytes": "1472"
      },
      "t_array(t_uint256)49_storage": {
        "base": "t_uint256",
        "encoding": "inplace",
        "label": "uint256[49]",
        "numberOfBytes": "1568"
      },
      "t_array(t_uint256)50_storage": {
        "base": "t_uint256",
        "encoding": "inplace",
        "label": "uint256[50]",
        "numberOfBytes": "1600"
      },
      "t_bool": {
        "encoding": "inplace",
        "label": "bool",
        "numberOfBytes": "1"
      },
      "t_bytes32": {
        "encoding": "inplace",
        "label": "bytes32",
        "numberOfBytes": "32"
      },
      "t_contract(IERC20)3249": {
        "encoding": "inplace",
        "label": "contract IERC20",
        "numberOfBytes": "20"
      },
      "t_contract(IHedgeExchanger)13881": {
        "encoding": "inplace",
        "label": "contract IHedgeExchanger",
        "numberOfBytes": "20"
      },
      "t_contract(IPriceFeed)5819": {
        "encoding": "inplace",
        "label": "contract IPriceFeed",
        "numberOfBytes": "20"
      },
      "t_contract(IWombatRouter)12527": {
        "encoding": "inplace",
        "label": "contract IWombatRouter",
        "numberOfBytes": "20"
      },
      "t_mapping(t_address,t_bool)": {
        "encoding": "mapping",
        "key": "t_address",
        "label": "mapping(address => bool)",
        "numberOfBytes": "32",
        "value": "t_bool"
      },
      "t_mapping(t_bytes32,t_struct(RoleData)34_storage)": {
        "encoding": "mapping",
        "key": "t_bytes32",
        "label": "mapping(bytes32 => struct AccessControlUpgradeable.RoleData)",
        "numberOfBytes": "32",
        "value": "t_struct(RoleData)34_storage"
      },
      "t_struct(RoleData)34_storage": {
        "encoding": "inplace",
        "label": "struct AccessControlUpgradeable.RoleData",
        "members": [
          {
            "astId": 31,
            "contract": "contracts/StrategyEtsUsdcUsdt.sol:StrategyEtsUsdcUsdt",
            "label": "members",
            "offset": 0,
            "slot": "0",
            "type": "t_mapping(t_address,t_bool)"
          },
          {
            "astId": 33,
            "contract": "contracts/StrategyEtsUsdcUsdt.sol:StrategyEtsUsdcUsdt",
            "label": "adminRole",
            "offset": 0,
            "slot": "1",
            "type": "t_bytes32"
          }
        ],
        "numberOfBytes": "64"
      },
      "t_uint256": {
        "encoding": "inplace",
        "label": "uint256",
        "numberOfBytes": "32"
      },
      "t_uint8": {
        "encoding": "inplace",
        "label": "uint8",
        "numberOfBytes": "1"
      }
    }
  }
}