{
  "address": "0x27D9425bE1375E7CBB38b9FAaDbD446a0196E6eD",
  "abi": [
    {
      "inputs": [],
      "stateMutability": "nonpayable",
      "type": "constructor"
    },
    {
      "anonymous": false,
      "inputs": [
        {
          "indexed": false,
          "internalType": "address",
          "name": "previousAdmin",
          "type": "address"
        },
        {
          "indexed": false,
          "internalType": "address",
          "name": "newAdmin",
          "type": "address"
        }
      ],
      "name": "AdminChanged",
      "type": "event"
    },
    {
      "anonymous": false,
      "inputs": [
        {
          "indexed": true,
          "internalType": "address",
          "name": "beacon",
          "type": "address"
        }
      ],
      "name": "BeaconUpgraded",
      "type": "event"
    },
    {
      "anonymous": false,
      "inputs": [
        {
          "indexed": false,
          "internalType": "uint8",
          "name": "version",
          "type": "uint8"
        }
      ],
      "name": "Initialized",
      "type": "event"
    },
    {
      "anonymous": false,
      "inputs": [
        {
          "indexed": false,
          "internalType": "address",
          "name": "value",
          "type": "address"
        }
      ],
      "name": "PortfolioManagerUpdated",
      "type": "event"
    },
    {
      "anonymous": false,
      "inputs": [
        {
          "indexed": false,
          "internalType": "uint256",
          "name": "amount",
          "type": "uint256"
        }
      ],
      "name": "Reward",
      "type": "event"
    },
    {
      "anonymous": false,
      "inputs": [
        {
          "indexed": true,
          "internalType": "bytes32",
          "name": "role",
          "type": "bytes32"
        },
        {
          "indexed": true,
          "internalType": "bytes32",
          "name": "previousAdminRole",
          "type": "bytes32"
        },
        {
          "indexed": true,
          "internalType": "bytes32",
          "name": "newAdminRole",
          "type": "bytes32"
        }
      ],
      "name": "RoleAdminChanged",
      "type": "event"
    },
    {
      "anonymous": false,
      "inputs": [
        {
          "indexed": true,
          "internalType": "bytes32",
          "name": "role",
          "type": "bytes32"
        },
        {
          "indexed": true,
          "internalType": "address",
          "name": "account",
          "type": "address"
        },
        {
          "indexed": true,
          "internalType": "address",
          "name": "sender",
          "type": "address"
        }
      ],
      "name": "RoleGranted",
      "type": "event"
    },
    {
      "anonymous": false,
      "inputs": [
        {
          "indexed": true,
          "internalType": "bytes32",
          "name": "role",
          "type": "bytes32"
        },
        {
          "indexed": true,
          "internalType": "address",
          "name": "account",
          "type": "address"
        },
        {
          "indexed": true,
          "internalType": "address",
          "name": "sender",
          "type": "address"
        }
      ],
      "name": "RoleRevoked",
      "type": "event"
    },
    {
      "anonymous": false,
      "inputs": [
        {
          "indexed": false,
          "internalType": "uint256",
          "name": "swapSlippageBP",
          "type": "uint256"
        },
        {
          "indexed": false,
          "internalType": "uint256",
          "name": "navSlippageBP",
          "type": "uint256"
        },
        {
          "indexed": false,
          "internalType": "uint256",
          "name": "stakeSlippageBP",
          "type": "uint256"
        }
      ],
      "name": "SlippagesUpdated",
      "type": "event"
    },
    {
      "anonymous": false,
      "inputs": [
        {
          "indexed": false,
          "internalType": "uint256",
          "name": "amount",
          "type": "uint256"
        }
      ],
      "name": "Stake",
      "type": "event"
    },
    {
      "anonymous": false,
      "inputs": [],
      "name": "StrategyUpdatedParams",
      "type": "event"
    },
    {
      "anonymous": false,
      "inputs": [
        {
          "indexed": false,
          "internalType": "uint256",
          "name": "amount",
          "type": "uint256"
        },
        {
          "indexed": false,
          "internalType": "uint256",
          "name": "amountReceived",
          "type": "uint256"
        }
      ],
      "name": "Unstake",
      "type": "event"
    },
    {
      "anonymous": false,
      "inputs": [
        {
          "indexed": true,
          "internalType": "address",
          "name": "implementation",
          "type": "address"
        }
      ],
      "name": "Upgraded",
      "type": "event"
    },
    {
      "inputs": [],
      "name": "DEFAULT_ADMIN_ROLE",
      "outputs": [
        {
          "internalType": "bytes32",
          "name": "",
          "type": "bytes32"
        }
      ],
      "stateMutability": "view",
      "type": "function"
    },
    {
      "inputs": [],
      "name": "PORTFOLIO_AGENT_ROLE",
      "outputs": [
        {
          "internalType": "bytes32",
          "name": "",
          "type": "bytes32"
        }
      ],
      "stateMutability": "view",
      "type": "function"
    },
    {
      "inputs": [],
      "name": "PORTFOLIO_MANAGER",
      "outputs": [
        {
          "internalType": "bytes32",
          "name": "",
          "type": "bytes32"
        }
      ],
      "stateMutability": "view",
      "type": "function"
    },
    {
      "inputs": [
        {
          "internalType": "address",
          "name": "_to",
          "type": "address"
        }
      ],
      "name": "claimRewards",
      "outputs": [
        {
          "internalType": "uint256",
          "name": "",
          "type": "uint256"
        }
      ],
      "stateMutability": "nonpayable",
      "type": "function"
    },
    {
      "inputs": [
        {
          "internalType": "bytes32",
          "name": "role",
          "type": "bytes32"
        }
      ],
      "name": "getRoleAdmin",
      "outputs": [
        {
          "internalType": "bytes32",
          "name": "",
          "type": "bytes32"
        }
      ],
      "stateMutability": "view",
      "type": "function"
    },
    {
      "inputs": [
        {
          "internalType": "bytes32",
          "name": "role",
          "type": "bytes32"
        },
        {
          "internalType": "address",
          "name": "account",
          "type": "address"
        }
      ],
      "name": "grantRole",
      "outputs": [],
      "stateMutability": "nonpayable",
      "type": "function"
    },
    {
      "inputs": [
        {
          "internalType": "bytes32",
          "name": "role",
          "type": "bytes32"
        },
        {
          "internalType": "address",
          "name": "account",
          "type": "address"
        }
      ],
      "name": "hasRole",
      "outputs": [
        {
          "internalType": "bool",
          "name": "",
          "type": "bool"
        }
      ],
      "stateMutability": "view",
      "type": "function"
    },
    {
      "inputs": [],
      "name": "initialize",
      "outputs": [],
      "stateMutability": "nonpayable",
      "type": "function"
    },
    {
      "inputs": [],
      "name": "liquidationValue",
      "outputs": [
        {
          "internalType": "uint256",
          "name": "",
          "type": "uint256"
        }
      ],
      "stateMutability": "view",
      "type": "function"
    },
    {
      "inputs": [],
      "name": "navSlippageBP",
      "outputs": [
        {
          "internalType": "uint256",
          "name": "",
          "type": "uint256"
        }
      ],
      "stateMutability": "view",
      "type": "function"
    },
    {
      "inputs": [],
      "name": "netAssetValue",
      "outputs": [
        {
          "internalType": "uint256",
          "name": "",
          "type": "uint256"
        }
      ],
      "stateMutability": "view",
      "type": "function"
    },
    {
      "inputs": [],
      "name": "pancakeRouter",
      "outputs": [
        {
          "internalType": "contract IPancakeRouter02",
          "name": "",
          "type": "address"
        }
      ],
      "stateMutability": "view",
      "type": "function"
    },
    {
      "inputs": [],
      "name": "portfolioManager",
      "outputs": [
        {
          "internalType": "address",
          "name": "",
          "type": "address"
        }
      ],
      "stateMutability": "view",
      "type": "function"
    },
    {
      "inputs": [],
      "name": "proxiableUUID",
      "outputs": [
        {
          "internalType": "bytes32",
          "name": "",
          "type": "bytes32"
        }
      ],
      "stateMutability": "view",
      "type": "function"
    },
    {
      "inputs": [
        {
          "internalType": "bytes32",
          "name": "role",
          "type": "bytes32"
        },
        {
          "internalType": "address",
          "name": "account",
          "type": "address"
        }
      ],
      "name": "renounceRole",
      "outputs": [],
      "stateMutability": "nonpayable",
      "type": "function"
    },
    {
      "inputs": [
        {
          "internalType": "bytes32",
          "name": "role",
          "type": "bytes32"
        },
        {
          "internalType": "address",
          "name": "account",
          "type": "address"
        }
      ],
      "name": "revokeRole",
      "outputs": [],
      "stateMutability": "nonpayable",
      "type": "function"
    },
    {
      "inputs": [
        {
          "components": [
            {
              "internalType": "address",
              "name": "usdc",
              "type": "address"
            },
            {
              "internalType": "address",
              "name": "vUsdc",
              "type": "address"
            },
            {
              "internalType": "address",
              "name": "unitroller",
              "type": "address"
            },
            {
              "internalType": "address",
              "name": "pancakeRouter",
              "type": "address"
            },
            {
              "internalType": "address",
              "name": "xvs",
              "type": "address"
            },
            {
              "internalType": "address",
              "name": "wbnb",
              "type": "address"
            }
          ],
          "internalType": "struct StrategyVenusUsdc.StrategyParams",
          "name": "params",
          "type": "tuple"
        }
      ],
      "name": "setParams",
      "outputs": [],
      "stateMutability": "nonpayable",
      "type": "function"
    },
    {
      "inputs": [
        {
          "internalType": "address",
          "name": "_value",
          "type": "address"
        }
      ],
      "name": "setPortfolioManager",
      "outputs": [],
      "stateMutability": "nonpayable",
      "type": "function"
    },
    {
      "inputs": [
        {
          "internalType": "uint256",
          "name": "_swapSlippageBP",
          "type": "uint256"
        },
        {
          "internalType": "uint256",
          "name": "_navSlippageBP",
          "type": "uint256"
        },
        {
          "internalType": "uint256",
          "name": "_stakeSlippageBP",
          "type": "uint256"
        }
      ],
      "name": "setSlippages",
      "outputs": [],
      "stateMutability": "nonpayable",
      "type": "function"
    },
    {
      "inputs": [
        {
          "internalType": "address",
          "name": "_asset",
          "type": "address"
        },
        {
          "internalType": "uint256",
          "name": "_amount",
          "type": "uint256"
        }
      ],
      "name": "stake",
      "outputs": [],
      "stateMutability": "nonpayable",
      "type": "function"
    },
    {
      "inputs": [],
      "name": "stakeSlippageBP",
      "outputs": [
        {
          "internalType": "uint256",
          "name": "",
          "type": "uint256"
        }
      ],
      "stateMutability": "view",
      "type": "function"
    },
    {
      "inputs": [
        {
          "internalType": "bytes4",
          "name": "interfaceId",
          "type": "bytes4"
        }
      ],
      "name": "supportsInterface",
      "outputs": [
        {
          "internalType": "bool",
          "name": "",
          "type": "bool"
        }
      ],
      "stateMutability": "view",
      "type": "function"
    },
    {
      "inputs": [],
      "name": "swapSlippageBP",
      "outputs": [
        {
          "internalType": "uint256",
          "name": "",
          "type": "uint256"
        }
      ],
      "stateMutability": "view",
      "type": "function"
    },
    {
      "inputs": [],
      "name": "unitroller",
      "outputs": [
        {
          "internalType": "contract Unitroller",
          "name": "",
          "type": "address"
        }
      ],
      "stateMutability": "view",
      "type": "function"
    },
    {
      "inputs": [
        {
          "internalType": "address",
          "name": "_asset",
          "type": "address"
        },
        {
          "internalType": "uint256",
          "name": "_amount",
          "type": "uint256"
        },
        {
          "internalType": "address",
          "name": "_beneficiary",
          "type": "address"
        },
        {
          "internalType": "bool",
          "name": "_targetIsZero",
          "type": "bool"
        }
      ],
      "name": "unstake",
      "outputs": [
        {
          "internalType": "uint256",
          "name": "",
          "type": "uint256"
        }
      ],
      "stateMutability": "nonpayable",
      "type": "function"
    },
    {
      "inputs": [
        {
          "internalType": "address",
          "name": "newImplementation",
          "type": "address"
        }
      ],
      "name": "upgradeTo",
      "outputs": [],
      "stateMutability": "nonpayable",
      "type": "function"
    },
    {
      "inputs": [
        {
          "internalType": "address",
          "name": "newImplementation",
          "type": "address"
        },
        {
          "internalType": "bytes",
          "name": "data",
          "type": "bytes"
        }
      ],
      "name": "upgradeToAndCall",
      "outputs": [],
      "stateMutability": "payable",
      "type": "function"
    },
    {
      "inputs": [],
      "name": "usdc",
      "outputs": [
        {
          "internalType": "contract IERC20",
          "name": "",
          "type": "address"
        }
      ],
      "stateMutability": "view",
      "type": "function"
    },
    {
      "inputs": [],
      "name": "vUsdc",
      "outputs": [
        {
          "internalType": "contract VenusInterface",
          "name": "",
          "type": "address"
        }
      ],
      "stateMutability": "view",
      "type": "function"
    },
    {
      "inputs": [],
      "name": "wbnb",
      "outputs": [
        {
          "internalType": "contract IERC20",
          "name": "",
          "type": "address"
        }
      ],
      "stateMutability": "view",
      "type": "function"
    },
    {
      "inputs": [],
      "name": "xvs",
      "outputs": [
        {
          "internalType": "contract IERC20",
          "name": "",
          "type": "address"
        }
      ],
      "stateMutability": "view",
      "type": "function"
    }
  ],
  "numDeployments": 1,
  "solcInputHash": "e40580e4647a09ce2adb1a11be1e9362",
  "bytecode": "0x60a06040523060601b6080523480156200001857600080fd5b50600054610100900460ff16158080156200003a5750600054600160ff909116105b806200006a575062000057306200014460201b620013dd1760201c565b1580156200006a575060005460ff166001145b620000d25760405162461bcd60e51b815260206004820152602e60248201527f496e697469616c697a61626c653a20636f6e747261637420697320616c72656160448201526d191e481a5b9a5d1a585b1a5e995960921b606482015260840160405180910390fd5b6000805460ff191660011790558015620000f6576000805461ff0019166101001790555b80156200013d576000805461ff0019169055604051600181527f7f26b83ff96e1f2b6a682f133852f6798a09c465da95921460cefb38474024989060200160405180910390a15b5062000153565b6001600160a01b03163b151590565b60805160601c612f9f6200018e600039600081816106ad015281816106ed0152818161078d015281816107cd015261085c0152612f9f6000f3fe6080604052600436106101d85760003560e01c8063806b940511610102578063ae30c11011610095578063d547741f11610064578063d547741f1461052e578063ef5cfb8c1461054e578063f36e41ed1461056e578063f6f6b8811461058f57600080fd5b8063ae30c110146104b6578063bad1d3da146104d6578063bf52e080146104f7578063c21ebd071461050d57600080fd5b8063a217fddf116100d1578063a217fddf14610461578063a3673b3814610266578063a440b21a14610476578063adc9772e1461049657600080fd5b8063806b9405146103eb5780638129fc1c1461040b5780638d72647e1461042057806391d148541461044157600080fd5b80633e413bee1161017a5780635ca558f8116101495780635ca558f81461035f5780635dbd733a14610375578063620b75df146103a95780637d5f5802146103c957600080fd5b80633e413bee146102dd5780634e79ed3c146103165780634f1ef2861461033757806352d1902d1461034a57600080fd5b80632576e65a116101b65780632576e65a146102665780632f2ff15d1461027b57806336568abe1461029d5780633659cfe6146102bd57600080fd5b806301ffc9a7146101dd578063119cd87914610212578063248a9ca314610236575b600080fd5b3480156101e957600080fd5b506101fd6101f8366004612a8b565b6105af565b60405190151581526020015b60405180910390f35b34801561021e57600080fd5b5061022860fd5481565b604051908152602001610209565b34801561024257600080fd5b50610228610251366004612a2d565b60009081526065602052604090206001015490565b34801561027257600080fd5b506102286105e6565b34801561028757600080fd5b5061029b610296366004612a5f565b6105f5565b005b3480156102a957600080fd5b5061029b6102b8366004612a5f565b61061f565b3480156102c957600080fd5b5061029b6102d8366004612829565b6106a2565b3480156102e957600080fd5b5061012d546102fe906001600160a01b031681565b6040516001600160a01b039091168152602001610209565b34801561032257600080fd5b50610131546102fe906001600160a01b031681565b61029b610345366004612844565b610782565b34801561035657600080fd5b5061022861084f565b34801561036b57600080fd5b5061022860fe5481565b34801561038157600080fd5b506102287fd67ad422505496469a1adf6cdf9e5ee92ac5d33992843c9ecc4b2f6d6cde913781565b3480156103b557600080fd5b5060fb546102fe906001600160a01b031681565b3480156103d557600080fd5b50610228600080516020612f0383398151915281565b3480156103f757600080fd5b5061029b610406366004612ab5565b610902565b34801561041757600080fd5b5061029b610a9f565b34801561042c57600080fd5b50610132546102fe906001600160a01b031681565b34801561044d57600080fd5b506101fd61045c366004612a5f565b610b69565b34801561046d57600080fd5b50610228600081565b34801561048257600080fd5b5061029b610491366004612829565b610b94565b3480156104a257600080fd5b5061029b6104b13660046128ea565b610cc3565b3480156104c257600080fd5b5061029b6104d1366004612acd565b610ef3565b3480156104e257600080fd5b5061012f546102fe906001600160a01b031681565b34801561050357600080fd5b5061022860fc5481565b34801561051957600080fd5b50610130546102fe906001600160a01b031681565b34801561053a57600080fd5b5061029b610549366004612a5f565b611068565b34801561055a57600080fd5b50610228610569366004612829565b61108d565b34801561057a57600080fd5b5061012e546102fe906001600160a01b031681565b34801561059b57600080fd5b506102286105aa366004612914565b611112565b60006001600160e01b03198216637965db0b60e01b14806105e057506301ffc9a760e01b6001600160e01b03198316145b92915050565b60006105f06113ec565b905090565b60008281526065602052604090206001015461061081611594565b61061a838361159e565b505050565b6001600160a01b03811633146106945760405162461bcd60e51b815260206004820152602f60248201527f416363657373436f6e74726f6c3a2063616e206f6e6c792072656e6f756e636560448201526e103937b632b9903337b91039b2b63360891b60648201526084015b60405180910390fd5b61069e8282611624565b5050565b306001600160a01b037f00000000000000000000000000000000000000000000000000000000000000001614156106eb5760405162461bcd60e51b815260040161068b90612c5c565b7f00000000000000000000000000000000000000000000000000000000000000006001600160a01b0316610734600080516020612f23833981519152546001600160a01b031690565b6001600160a01b03161461075a5760405162461bcd60e51b815260040161068b90612ca8565b6107638161168b565b6040805160008082526020820190925261077f91839190611696565b50565b306001600160a01b037f00000000000000000000000000000000000000000000000000000000000000001614156107cb5760405162461bcd60e51b815260040161068b90612c5c565b7f00000000000000000000000000000000000000000000000000000000000000006001600160a01b0316610814600080516020612f23833981519152546001600160a01b031690565b6001600160a01b03161461083a5760405162461bcd60e51b815260040161068b90612ca8565b6108438261168b565b61069e82826001611696565b6000306001600160a01b037f000000000000000000000000000000000000000000000000000000000000000016146108ef5760405162461bcd60e51b815260206004820152603860248201527f555550535570677261646561626c653a206d757374206e6f742062652063616c60448201527f6c6564207468726f7567682064656c656761746563616c6c0000000000000000606482015260840161068b565b50600080516020612f2383398151915290565b61090d600033610b69565b6109505760405162461bcd60e51b81526020600482015260146024820152735265737472696374656420746f2061646d696e7360601b604482015260640161068b565b61095d6020820182612829565b61012d80546001600160a01b0319166001600160a01b039290921691909117905561098e6040820160208301612829565b61012e80546001600160a01b0319166001600160a01b03929092169190911790556109bf6060820160408301612829565b61012f80546001600160a01b0319166001600160a01b03929092169190911790556109f06080820160608301612829565b61013080546001600160a01b0319166001600160a01b0392909216919091179055610a2160a0820160808301612829565b61013180546001600160a01b0319166001600160a01b0392909216919091179055610a5260c0820160a08301612829565b61013280546001600160a01b0319166001600160a01b03929092169190911790556040517fea5646eb3528e525944447a4a97de700dd472298626e5c0481d1c82c3da86ea590600090a150565b600054610100900460ff1615808015610abf5750600054600160ff909116105b80610ad95750303b158015610ad9575060005460ff166001145b610af55760405162461bcd60e51b815260040161068b90612cf4565b6000805460ff191660011790558015610b18576000805461ff0019166101001790555b610b20611810565b801561077f576000805461ff0019169055604051600181527f7f26b83ff96e1f2b6a682f133852f6798a09c465da95921460cefb3847402498906020015b60405180910390a150565b60009182526065602090815260408084206001600160a01b0393909316845291905290205460ff1690565b610b9f600033610b69565b610be25760405162461bcd60e51b81526020600482015260146024820152735265737472696374656420746f2061646d696e7360601b604482015260640161068b565b6001600160a01b038116610c385760405162461bcd60e51b815260206004820152601860248201527f5a65726f2061646472657373206e6f7420616c6c6f7765640000000000000000604482015260640161068b565b60fb54610c5d90600080516020612f03833981519152906001600160a01b0316611068565b610c75600080516020612f03833981519152826105f5565b60fb80546001600160a01b0319166001600160a01b0383169081179091556040519081527ff7b449fcd5cfb7379dcd34cb69428dd9f882033b15be33d83b42d91daa28eeb790602001610b5e565b610cdb600080516020612f0383398151915233610b69565b610cf75760405162461bcd60e51b815260040161068b90612c25565b6000610d75306001600160a01b031663a3673b386040518163ffffffff1660e01b815260040160206040518083038186803b158015610d3557600080fd5b505afa158015610d49573d6000803e3d6000fd5b505050506040513d601f19601f82011682018060405250810190610d6d9190612a46565b60fd546118f5565b6040516370a0823160e01b8152306004820152909150610dfa9084906001600160a01b038216906370a082319060240160206040518083038186803b158015610dbd57600080fd5b505afa158015610dd1573d6000803e3d6000fd5b505050506040513d601f19601f82011682018060405250810190610df59190612a46565b61191f565b80306001600160a01b031663a3673b386040518163ffffffff1660e01b815260040160206040518083038186803b158015610e3457600080fd5b505afa158015610e48573d6000803e3d6000fd5b505050506040513d601f19601f82011682018060405250810190610e6c9190612a46565b1015610eba5760405162461bcd60e51b815260206004820152601f60248201527f5374726174656779204e4156206c657373207468616e20657870656374656400604482015260640161068b565b6040518281527f227a473b70d2f893cc7659219575c030a63b5743024fe1e0c1a680e708b1525a906020015b60405180910390a1505050565b610f1d7fd67ad422505496469a1adf6cdf9e5ee92ac5d33992843c9ecc4b2f6d6cde913733610b69565b80610fc4575060fb54604051632474521560e21b81527fd67ad422505496469a1adf6cdf9e5ee92ac5d33992843c9ecc4b2f6d6cde913760048201523360248201526001600160a01b03909116906391d148549060440160206040518083038186803b158015610f8c57600080fd5b505afa158015610fa0573d6000803e3d6000fd5b505050506040513d601f19601f82011682018060405250810190610fc49190612a10565b61101b5760405162461bcd60e51b815260206004820152602260248201527f5265737472696374656420746f20504f5254464f4c494f5f4147454e545f524f6044820152614c4560f01b606482015260840161068b565b60fc83905560fd82905560fe81905560408051848152602081018490529081018290527f116fbf1e97a2be629ad98abfb6c332733c8996c2dfb174dd2efe8440df381d1a90606001610ee6565b60008281526065602052604090206001015461108381611594565b61061a8383611624565b60006110a7600080516020612f0383398151915233610b69565b6110c35760405162461bcd60e51b815260040161068b90612c25565b60006110ce83611a57565b9050801561110a576040518181527f3ac0594a85a20354f9dc74f33728416d19ce00d04a406c108cc2dcf2cecea1349060200160405180910390a15b90505b919050565b600061112c600080516020612f0383398151915233610b69565b6111485760405162461bcd60e51b815260040161068b90612c25565b6000611186306001600160a01b031663a3673b386040518163ffffffff1660e01b815260040160206040518083038186803b158015610d3557600080fd5b905060008084156111ad5761119a86611a57565b90506111a68887611d42565b915061121c565b6111b8888888611ee4565b91508682101561121c5760405162461bcd60e51b815260206004820152602960248201527f52657475726e65642076616c7565206c657373207468616e2072657175657374604482015268195908185b5bdd5b9d60ba1b606482015260840161068b565b82306001600160a01b031663a3673b386040518163ffffffff1660e01b815260040160206040518083038186803b15801561125657600080fd5b505afa15801561126a573d6000803e3d6000fd5b505050506040513d601f19601f8201168201806040525081019061128e9190612a46565b10156112dc5760405162461bcd60e51b815260206004820152601f60248201527f5374726174656779204e4156206c657373207468616e20657870656374656400604482015260640161068b565b60405163a9059cbb60e01b81526001600160a01b0387811660048301526024820184905289169063a9059cbb90604401602060405180830381600087803b15801561132657600080fd5b505af115801561133a573d6000803e3d6000fd5b505050506040513d601f19601f8201168201806040525081019061135e9190612a10565b5060408051888152602081018490527f9045c2ac9b2026de8075f2701bbdde882cd5e830b3b1ead9a15b22f2b5b93742910160405180910390a180156113d2576040518181527f3ac0594a85a20354f9dc74f33728416d19ce00d04a406c108cc2dcf2cecea1349060200160405180910390a15b509695505050505050565b6001600160a01b03163b151590565b6000670de0b6b3a764000061012e60009054906101000a90046001600160a01b03166001600160a01b031663182df0f56040518163ffffffff1660e01b815260040160206040518083038186803b15801561144657600080fd5b505afa15801561145a573d6000803e3d6000fd5b505050506040513d601f19601f8201168201806040525081019061147e9190612a46565b61012e546040516370a0823160e01b81523060048201526001600160a01b03909116906370a082319060240160206040518083038186803b1580156114c257600080fd5b505afa1580156114d6573d6000803e3d6000fd5b505050506040513d601f19601f820116820180604052508101906114fa9190612a46565b6115049190612e39565b61150e9190612e17565b61012d546040516370a0823160e01b81523060048201526001600160a01b03909116906370a082319060240160206040518083038186803b15801561155257600080fd5b505afa158015611566573d6000803e3d6000fd5b505050506040513d601f19601f8201168201806040525081019061158a9190612a46565b6105f09190612dff565b61077f8133612019565b6115a88282610b69565b61069e5760008281526065602090815260408083206001600160a01b03851684529091529020805460ff191660011790556115e03390565b6001600160a01b0316816001600160a01b0316837f2f8788117e7eff1d82e926ec794901d17c78024a50270940304540a733656f0d60405160405180910390a45050565b61162e8282610b69565b1561069e5760008281526065602090815260408083206001600160a01b0385168085529252808320805460ff1916905551339285917ff6391f5c32d9c69d2a47ea670b442974b53935d1edc7fd64eb21e047a839171b9190a45050565b600061069e81611594565b7f4910fdfa16fed3260ed0e7147f7cc6da11a60208b5b9406d12a635614ffd91435460ff16156116c95761061a83612072565b826001600160a01b03166352d1902d6040518163ffffffff1660e01b815260040160206040518083038186803b15801561170257600080fd5b505afa925050508015611732575060408051601f3d908101601f1916820190925261172f91810190612a46565b60015b6117955760405162461bcd60e51b815260206004820152602e60248201527f45524331393637557067726164653a206e657720696d706c656d656e7461746960448201526d6f6e206973206e6f74205555505360901b606482015260840161068b565b600080516020612f2383398151915281146118045760405162461bcd60e51b815260206004820152602960248201527f45524331393637557067726164653a20756e737570706f727465642070726f786044820152681a58589b195555525160ba1b606482015260840161068b565b5061061a83838361210e565b600054610100900460ff16158080156118305750600054600160ff909116105b8061184a5750303b15801561184a575060005460ff166001145b6118665760405162461bcd60e51b815260040161068b90612cf4565b6000805460ff191660011790558015611889576000805461ff0019166101001790555b611891612139565b611899612139565b6118a460003361159e565b601460fc81905560fd55600460fe55801561077f576000805461ff0019169055604051600181527f7f26b83ff96e1f2b6a682f133852f6798a09c465da95921460cefb384740249890602001610b5e565b60006127106119048382612e58565b61190e9085612e39565b6119189190612e17565b9392505050565b61012d546001600160a01b0383811691161461194d5760405162461bcd60e51b815260040161068b90612d42565b61012d5461012e5460405163095ea7b360e01b81526001600160a01b0391821660048201526024810184905291169063095ea7b390604401602060405180830381600087803b15801561199f57600080fd5b505af11580156119b3573d6000803e3d6000fd5b505050506040513d601f19601f820116820180604052508101906119d79190612a10565b5061012e5460405163140e25ad60e31b8152600481018390526001600160a01b039091169063a0712d6890602401602060405180830381600087803b158015611a1f57600080fd5b505af1158015611a33573d6000803e3d6000fd5b505050506040513d601f19601f8201168201806040525081019061061a9190612a46565b61012e546040516370a0823160e01b815230600482015260009182916001600160a01b03909116906370a082319060240160206040518083038186803b158015611aa057600080fd5b505afa158015611ab4573d6000803e3d6000fd5b505050506040513d601f19601f82011682018060405250810190611ad89190612a46565b1115611b955760408051600180825281830190925260009160208083019080368337505061012e5482519293506001600160a01b031691839150600090611b2157611b21612ec8565b6001600160a01b03928316602091820292909201015261012f5460405163436f98f760e11b81529116906386df31ee90611b619030908590600401612bce565b600060405180830381600087803b158015611b7b57600080fd5b505af1158015611b8f573d6000803e3d6000fd5b50505050505b610131546040516370a0823160e01b815230600482015260009182916001600160a01b03909116906370a082319060240160206040518083038186803b158015611bde57600080fd5b505afa158015611bf2573d6000803e3d6000fd5b505050506040513d601f19601f82011682018060405250810190611c169190612a46565b90508015611cac5761013054610131546101325461012d54600093611c50936001600160a01b0391821693908216929082169116866121a6565b90508015611caa5761013054610131546101325461012d54611c9d936001600160a01b039081169381169281169116866064611c8d886063612e39565b611c979190612e17565b30612305565b611ca79084612dff565b92505b505b8115611d3b5761012d5460405163a9059cbb60e01b81526001600160a01b038681166004830152602482018590529091169063a9059cbb90604401602060405180830381600087803b158015611d0157600080fd5b505af1158015611d15573d6000803e3d6000fd5b505050506040513d601f19601f82011682018060405250810190611d399190612a10565b505b5092915050565b61012d546000906001600160a01b03848116911614611d735760405162461bcd60e51b815260040161068b90612d42565b61012e546040516370a0823160e01b81523060048201526001600160a01b039091169063db006a759082906370a082319060240160206040518083038186803b158015611dbf57600080fd5b505afa158015611dd3573d6000803e3d6000fd5b505050506040513d601f19601f82011682018060405250810190611df79190612a46565b6040518263ffffffff1660e01b8152600401611e1591815260200190565b602060405180830381600087803b158015611e2f57600080fd5b505af1158015611e43573d6000803e3d6000fd5b505050506040513d601f19601f82011682018060405250810190611e679190612a46565b5061012d546040516370a0823160e01b81523060048201526001600160a01b03909116906370a082319060240160206040518083038186803b158015611eac57600080fd5b505afa158015611ec0573d6000803e3d6000fd5b505050506040513d601f19601f820116820180604052508101906119189190612a46565b61012d546000906001600160a01b03858116911614611f155760405162461bcd60e51b815260040161068b90612d42565b61012e5460405163852a12e360e01b8152600481018590526001600160a01b039091169063852a12e390602401602060405180830381600087803b158015611f5c57600080fd5b505af1158015611f70573d6000803e3d6000fd5b505050506040513d601f19601f82011682018060405250810190611f949190612a46565b5061012d546040516370a0823160e01b81523060048201526001600160a01b03909116906370a082319060240160206040518083038186803b158015611fd957600080fd5b505afa158015611fed573d6000803e3d6000fd5b505050506040513d601f19601f820116820180604052508101906120119190612a46565b949350505050565b6120238282610b69565b61069e57612030816124f2565b61203b836020612504565b60405160200161204c929190612b59565b60408051601f198184030181529082905262461bcd60e51b825261068b91600401612bf2565b6001600160a01b0381163b6120df5760405162461bcd60e51b815260206004820152602d60248201527f455243313936373a206e657720696d706c656d656e746174696f6e206973206e60448201526c1bdd08184818dbdb9d1c9858dd609a1b606482015260840161068b565b600080516020612f2383398151915280546001600160a01b0319166001600160a01b0392909216919091179055565b612117836126a0565b6000825111806121245750805b1561061a5761213383836126e0565b50505050565b600054610100900460ff166121a45760405162461bcd60e51b815260206004820152602b60248201527f496e697469616c697a61626c653a20636f6e7472616374206973206e6f74206960448201526a6e697469616c697a696e6760a81b606482015260840161068b565b565b604080516003808252608082019092526000918291906020820160608036833701905050905085816000815181106121e0576121e0612ec8565b60200260200101906001600160a01b031690816001600160a01b031681525050848160018151811061221457612214612ec8565b60200260200101906001600160a01b031690816001600160a01b031681525050838160028151811061224857612248612ec8565b6001600160a01b03928316602091820292909201015260405163d06ca61f60e01b815260009189169063d06ca61f906122879087908690600401612d79565b60006040518083038186803b15801561229f57600080fd5b505afa1580156122b3573d6000803e3d6000fd5b505050506040513d6000823e601f3d908101601f191682016040526122db9190810190612963565b9050806002815181106122f0576122f0612ec8565b60200260200101519250505095945050505050565b60405163095ea7b360e01b81526001600160a01b038881166004830152602482018590526000919088169063095ea7b390604401602060405180830381600087803b15801561235357600080fd5b505af1158015612367573d6000803e3d6000fd5b505050506040513d601f19601f8201168201806040525081019061238b9190612a10565b50604080516003808252608082019092526000916020820160608036833701905050905087816000815181106123c3576123c3612ec8565b60200260200101906001600160a01b031690816001600160a01b03168152505086816001815181106123f7576123f7612ec8565b60200260200101906001600160a01b031690816001600160a01b031681525050858160028151811061242b5761242b612ec8565b6001600160a01b0392831660209182029290920101526040516338ed173960e01b81526000918b16906338ed173990612470908990899087908a904290600401612d92565b600060405180830381600087803b15801561248a57600080fd5b505af115801561249e573d6000803e3d6000fd5b505050506040513d6000823e601f3d908101601f191682016040526124c69190810190612963565b9050806002815181106124db576124db612ec8565b602002602001015192505050979650505050505050565b60606105e06001600160a01b03831660145b60606000612513836002612e39565b61251e906002612dff565b67ffffffffffffffff81111561253657612536612ede565b6040519080825280601f01601f191660200182016040528015612560576020820181803683370190505b509050600360fc1b8160008151811061257b5761257b612ec8565b60200101906001600160f81b031916908160001a905350600f60fb1b816001815181106125aa576125aa612ec8565b60200101906001600160f81b031916908160001a90535060006125ce846002612e39565b6125d9906001612dff565b90505b6001811115612651576f181899199a1a9b1b9c1cb0b131b232b360811b85600f166010811061260d5761260d612ec8565b1a60f81b82828151811061262357612623612ec8565b60200101906001600160f81b031916908160001a90535060049490941c9361264a81612e9b565b90506125dc565b5083156119185760405162461bcd60e51b815260206004820181905260248201527f537472696e67733a20686578206c656e67746820696e73756666696369656e74604482015260640161068b565b6126a981612072565b6040516001600160a01b038216907fbc7cd75a20ee27fd9adebab32041f755214dbc6bffa90cc0225b39da2e5c2d3b90600090a250565b60606001600160a01b0383163b6127485760405162461bcd60e51b815260206004820152602660248201527f416464726573733a2064656c65676174652063616c6c20746f206e6f6e2d636f6044820152651b9d1c9858dd60d21b606482015260840161068b565b600080846001600160a01b0316846040516127639190612b3d565b600060405180830381855af49150503d806000811461279e576040519150601f19603f3d011682016040523d82523d6000602084013e6127a3565b606091505b50915091506127cb8282604051806060016040528060278152602001612f43602791396127d4565b95945050505050565b606083156127e3575081611918565b61191883838151156127f85781518083602001fd5b8060405162461bcd60e51b815260040161068b9190612bf2565b80356001600160a01b038116811461110d57600080fd5b60006020828403121561283b57600080fd5b61191882612812565b6000806040838503121561285757600080fd5b61286083612812565b915060208084013567ffffffffffffffff8082111561287e57600080fd5b818601915086601f83011261289257600080fd5b8135818111156128a4576128a4612ede565b6128b6601f8201601f19168501612dce565b915080825287848285010111156128cc57600080fd5b80848401858401376000848284010152508093505050509250929050565b600080604083850312156128fd57600080fd5b61290683612812565b946020939093013593505050565b6000806000806080858703121561292a57600080fd5b61293385612812565b93506020850135925061294860408601612812565b9150606085013561295881612ef4565b939692955090935050565b6000602080838503121561297657600080fd5b825167ffffffffffffffff8082111561298e57600080fd5b818501915085601f8301126129a257600080fd5b8151818111156129b4576129b4612ede565b8060051b91506129c5848301612dce565b8181528481019084860184860187018a10156129e057600080fd5b600095505b83861015612a035780518352600195909501949186019186016129e5565b5098975050505050505050565b600060208284031215612a2257600080fd5b815161191881612ef4565b600060208284031215612a3f57600080fd5b5035919050565b600060208284031215612a5857600080fd5b5051919050565b60008060408385031215612a7257600080fd5b82359150612a8260208401612812565b90509250929050565b600060208284031215612a9d57600080fd5b81356001600160e01b03198116811461191857600080fd5b600060c08284031215612ac757600080fd5b50919050565b600080600060608486031215612ae257600080fd5b505081359360208301359350604090920135919050565b600081518084526020808501945080840160005b83811015612b325781516001600160a01b031687529582019590820190600101612b0d565b509495945050505050565b60008251612b4f818460208701612e6f565b9190910192915050565b7f416363657373436f6e74726f6c3a206163636f756e7420000000000000000000815260008351612b91816017850160208801612e6f565b7001034b99036b4b9b9b4b733903937b6329607d1b6017918401918201528351612bc2816028840160208801612e6f565b01602801949350505050565b6001600160a01b038316815260406020820181905260009061201190830184612af9565b6020815260008251806020840152612c11816040850160208701612e6f565b601f01601f19169190910160400192915050565b6020808252601f908201527f5265737472696374656420746f20504f5254464f4c494f5f4d414e4147455200604082015260600190565b6020808252602c908201527f46756e6374696f6e206d7573742062652063616c6c6564207468726f7567682060408201526b19195b1959d85d1958d85b1b60a21b606082015260800190565b6020808252602c908201527f46756e6374696f6e206d7573742062652063616c6c6564207468726f7567682060408201526b6163746976652070726f787960a01b606082015260800190565b6020808252602e908201527f496e697469616c697a61626c653a20636f6e747261637420697320616c72656160408201526d191e481a5b9a5d1a585b1a5e995960921b606082015260800190565b60208082526019908201527f536f6d6520746f6b656e206e6f7420636f6d70617469626c6500000000000000604082015260600190565b8281526040602082015260006120116040830184612af9565b85815284602082015260a060408201526000612db160a0830186612af9565b6001600160a01b0394909416606083015250608001529392505050565b604051601f8201601f1916810167ffffffffffffffff81118282101715612df757612df7612ede565b604052919050565b60008219821115612e1257612e12612eb2565b500190565b600082612e3457634e487b7160e01b600052601260045260246000fd5b500490565b6000816000190483118215151615612e5357612e53612eb2565b500290565b600082821015612e6a57612e6a612eb2565b500390565b60005b83811015612e8a578181015183820152602001612e72565b838111156121335750506000910152565b600081612eaa57612eaa612eb2565b506000190190565b634e487b7160e01b600052601160045260246000fd5b634e487b7160e01b600052603260045260246000fd5b634e487b7160e01b600052604160045260246000fd5b801515811461077f57600080fdfe90c2aa7471c04182221f68e80c07ab1e5946e4c63f8693e14ca40385d529f051360894a13ba1a3210667c828492db98dca3e2076cc3735a920a3ca505d382bbc416464726573733a206c6f772d6c6576656c2064656c65676174652063616c6c206661696c6564a2646970667358221220720d641cd164f1719a927911ef0e0205f8c14bc84e0756c752df59e5ca4fa43264736f6c63430008060033",
  "implementation": "0x6B6c13E2e63D676fe85f59BB4Db460Bd42014f85",
  "devdoc": {
    "kind": "dev",
    "methods": {
      "constructor": {
        "custom:oz-upgrades-unsafe-allow": "constructor"
      },
      "getRoleAdmin(bytes32)": {
        "details": "Returns the admin role that controls `role`. See {grantRole} and {revokeRole}. To change a role's admin, use {_setRoleAdmin}."
      },
      "grantRole(bytes32,address)": {
        "details": "Grants `role` to `account`. If `account` had not been already granted `role`, emits a {RoleGranted} event. Requirements: - the caller must have ``role``'s admin role. May emit a {RoleGranted} event."
      },
      "hasRole(bytes32,address)": {
        "details": "Returns `true` if `account` has been granted `role`."
      },
      "proxiableUUID()": {
        "details": "Implementation of the ERC1822 {proxiableUUID} function. This returns the storage slot used by the implementation. It is used to validate the implementation's compatibility when performing an upgrade. IMPORTANT: A proxy pointing at a proxiable contract should not be considered proxiable itself, because this risks bricking a proxy that upgrades to it, by delegating to itself until out of gas. Thus it is critical that this function revert if invoked through a proxy. This is guaranteed by the `notDelegated` modifier."
      },
      "renounceRole(bytes32,address)": {
        "details": "Revokes `role` from the calling account. Roles are often managed via {grantRole} and {revokeRole}: this function's purpose is to provide a mechanism for accounts to lose their privileges if they are compromised (such as when a trusted device is misplaced). If the calling account had been revoked `role`, emits a {RoleRevoked} event. Requirements: - the caller must be `account`. May emit a {RoleRevoked} event."
      },
      "revokeRole(bytes32,address)": {
        "details": "Revokes `role` from `account`. If `account` had been granted `role`, emits a {RoleRevoked} event. Requirements: - the caller must have ``role``'s admin role. May emit a {RoleRevoked} event."
      },
      "supportsInterface(bytes4)": {
        "details": "See {IERC165-supportsInterface}."
      },
      "upgradeTo(address)": {
        "details": "Upgrade the implementation of the proxy to `newImplementation`. Calls {_authorizeUpgrade}. Emits an {Upgraded} event."
      },
      "upgradeToAndCall(address,bytes)": {
        "details": "Upgrade the implementation of the proxy to `newImplementation`, and subsequently execute the function call encoded in `data`. Calls {_authorizeUpgrade}. Emits an {Upgraded} event."
      }
    },
    "version": 1
  },
  "userdoc": {
    "kind": "user",
    "methods": {},
    "version": 1
  },
  "storageLayout": {
    "storage": [
      {
        "astId": 804,
        "contract": "contracts/StrategyVenusUsdc.sol:StrategyVenusUsdc",
        "label": "_initialized",
        "offset": 0,
        "slot": "0",
        "type": "t_uint8"
      },
      {
        "astId": 807,
        "contract": "contracts/StrategyVenusUsdc.sol:StrategyVenusUsdc",
        "label": "_initializing",
        "offset": 1,
        "slot": "0",
        "type": "t_bool"
      },
      {
        "astId": 1427,
        "contract": "contracts/StrategyVenusUsdc.sol:StrategyVenusUsdc",
        "label": "__gap",
        "offset": 0,
        "slot": "1",
        "type": "t_array(t_uint256)50_storage"
      },
      {
        "astId": 1706,
        "contract": "contracts/StrategyVenusUsdc.sol:StrategyVenusUsdc",
        "label": "__gap",
        "offset": 0,
        "slot": "51",
        "type": "t_array(t_uint256)50_storage"
      },
      {
        "astId": 39,
        "contract": "contracts/StrategyVenusUsdc.sol:StrategyVenusUsdc",
        "label": "_roles",
        "offset": 0,
        "slot": "101",
        "type": "t_mapping(t_bytes32,t_struct(RoleData)34_storage)"
      },
      {
        "astId": 334,
        "contract": "contracts/StrategyVenusUsdc.sol:StrategyVenusUsdc",
        "label": "__gap",
        "offset": 0,
        "slot": "102",
        "type": "t_array(t_uint256)49_storage"
      },
      {
        "astId": 786,
        "contract": "contracts/StrategyVenusUsdc.sol:StrategyVenusUsdc",
        "label": "__gap",
        "offset": 0,
        "slot": "151",
        "type": "t_array(t_uint256)50_storage"
      },
      {
        "astId": 1101,
        "contract": "contracts/StrategyVenusUsdc.sol:StrategyVenusUsdc",
        "label": "__gap",
        "offset": 0,
        "slot": "201",
        "type": "t_array(t_uint256)50_storage"
      },
      {
        "astId": 13699,
        "contract": "contracts/StrategyVenusUsdc.sol:StrategyVenusUsdc",
        "label": "portfolioManager",
        "offset": 0,
        "slot": "251",
        "type": "t_address"
      },
      {
        "astId": 13701,
        "contract": "contracts/StrategyVenusUsdc.sol:StrategyVenusUsdc",
        "label": "swapSlippageBP",
        "offset": 0,
        "slot": "252",
        "type": "t_uint256"
      },
      {
        "astId": 13703,
        "contract": "contracts/StrategyVenusUsdc.sol:StrategyVenusUsdc",
        "label": "navSlippageBP",
        "offset": 0,
        "slot": "253",
        "type": "t_uint256"
      },
      {
        "astId": 13705,
        "contract": "contracts/StrategyVenusUsdc.sol:StrategyVenusUsdc",
        "label": "stakeSlippageBP",
        "offset": 0,
        "slot": "254",
        "type": "t_uint256"
      },
      {
        "astId": 14090,
        "contract": "contracts/StrategyVenusUsdc.sol:StrategyVenusUsdc",
        "label": "__gap",
        "offset": 0,
        "slot": "255",
        "type": "t_array(t_uint256)46_storage"
      },
      {
        "astId": 32012,
        "contract": "contracts/StrategyVenusUsdc.sol:StrategyVenusUsdc",
        "label": "usdc",
        "offset": 0,
        "slot": "301",
        "type": "t_contract(IERC20)3249"
      },
      {
        "astId": 32015,
        "contract": "contracts/StrategyVenusUsdc.sol:StrategyVenusUsdc",
        "label": "vUsdc",
        "offset": 0,
        "slot": "302",
        "type": "t_contract(VenusInterface)12029"
      },
      {
        "astId": 32018,
        "contract": "contracts/StrategyVenusUsdc.sol:StrategyVenusUsdc",
        "label": "unitroller",
        "offset": 0,
        "slot": "303",
        "type": "t_contract(Unitroller)11706"
      },
      {
        "astId": 32021,
        "contract": "contracts/StrategyVenusUsdc.sol:StrategyVenusUsdc",
        "label": "pancakeRouter",
        "offset": 0,
        "slot": "304",
        "type": "t_contract(IPancakeRouter02)8467"
      },
      {
        "astId": 32024,
        "contract": "contracts/StrategyVenusUsdc.sol:StrategyVenusUsdc",
        "label": "xvs",
        "offset": 0,
        "slot": "305",
        "type": "t_contract(IERC20)3249"
      },
      {
        "astId": 32027,
        "contract": "contracts/StrategyVenusUsdc.sol:StrategyVenusUsdc",
        "label": "wbnb",
        "offset": 0,
        "slot": "306",
        "type": "t_contract(IERC20)3249"
      }
    ],
    "types": {
      "t_address": {
        "encoding": "inplace",
        "label": "address",
        "numberOfBytes": "20"
      },
      "t_array(t_uint256)46_storage": {
        "base": "t_uint256",
        "encoding": "inplace",
        "label": "uint256[46]",
        "numberOfBytes": "1472"
      },
      "t_array(t_uint256)49_storage": {
        "base": "t_uint256",
        "encoding": "inplace",
        "label": "uint256[49]",
        "numberOfBytes": "1568"
      },
      "t_array(t_uint256)50_storage": {
        "base": "t_uint256",
        "encoding": "inplace",
        "label": "uint256[50]",
        "numberOfBytes": "1600"
      },
      "t_bool": {
        "encoding": "inplace",
        "label": "bool",
        "numberOfBytes": "1"
      },
      "t_bytes32": {
        "encoding": "inplace",
        "label": "bytes32",
        "numberOfBytes": "32"
      },
      "t_contract(IERC20)3249": {
        "encoding": "inplace",
        "label": "contract IERC20",
        "numberOfBytes": "20"
      },
      "t_contract(IPancakeRouter02)8467": {
        "encoding": "inplace",
        "label": "contract IPancakeRouter02",
        "numberOfBytes": "20"
      },
      "t_contract(Unitroller)11706": {
        "encoding": "inplace",
        "label": "contract Unitroller",
        "numberOfBytes": "20"
      },
      "t_contract(VenusInterface)12029": {
        "encoding": "inplace",
        "label": "contract VenusInterface",
        "numberOfBytes": "20"
      },
      "t_mapping(t_address,t_bool)": {
        "encoding": "mapping",
        "key": "t_address",
        "label": "mapping(address => bool)",
        "numberOfBytes": "32",
        "value": "t_bool"
      },
      "t_mapping(t_bytes32,t_struct(RoleData)34_storage)": {
        "encoding": "mapping",
        "key": "t_bytes32",
        "label": "mapping(bytes32 => struct AccessControlUpgradeable.RoleData)",
        "numberOfBytes": "32",
        "value": "t_struct(RoleData)34_storage"
      },
      "t_struct(RoleData)34_storage": {
        "encoding": "inplace",
        "label": "struct AccessControlUpgradeable.RoleData",
        "members": [
          {
            "astId": 31,
            "contract": "contracts/StrategyVenusUsdc.sol:StrategyVenusUsdc",
            "label": "members",
            "offset": 0,
            "slot": "0",
            "type": "t_mapping(t_address,t_bool)"
          },
          {
            "astId": 33,
            "contract": "contracts/StrategyVenusUsdc.sol:StrategyVenusUsdc",
            "label": "adminRole",
            "offset": 0,
            "slot": "1",
            "type": "t_bytes32"
          }
        ],
        "numberOfBytes": "64"
      },
      "t_uint256": {
        "encoding": "inplace",
        "label": "uint256",
        "numberOfBytes": "32"
      },
      "t_uint8": {
        "encoding": "inplace",
        "label": "uint8",
        "numberOfBytes": "1"
      }
    }
  }
}