{
  "address": "0x621409Ad21B486eA8688c5608abc904Cd8DB8e9b",
  "abi": [
    {
      "inputs": [],
      "stateMutability": "nonpayable",
      "type": "constructor"
    },
    {
      "anonymous": false,
      "inputs": [
        {
          "indexed": false,
          "internalType": "address",
          "name": "previousAdmin",
          "type": "address"
        },
        {
          "indexed": false,
          "internalType": "address",
          "name": "newAdmin",
          "type": "address"
        }
      ],
      "name": "AdminChanged",
      "type": "event"
    },
    {
      "anonymous": false,
      "inputs": [
        {
          "indexed": false,
          "internalType": "uint256",
          "name": "healthFactor",
          "type": "uint256"
        }
      ],
      "name": "BalanceHealthFactor",
      "type": "event"
    },
    {
      "anonymous": false,
      "inputs": [
        {
          "indexed": true,
          "internalType": "address",
          "name": "beacon",
          "type": "address"
        }
      ],
      "name": "BeaconUpgraded",
      "type": "event"
    },
    {
      "anonymous": false,
      "inputs": [
        {
          "indexed": false,
          "internalType": "uint8",
          "name": "version",
          "type": "uint8"
        }
      ],
      "name": "Initialized",
      "type": "event"
    },
    {
      "anonymous": false,
      "inputs": [
        {
          "indexed": false,
          "internalType": "address",
          "name": "value",
          "type": "address"
        }
      ],
      "name": "PortfolioManagerUpdated",
      "type": "event"
    },
    {
      "anonymous": false,
      "inputs": [
        {
          "indexed": false,
          "internalType": "uint256",
          "name": "amount",
          "type": "uint256"
        }
      ],
      "name": "Reward",
      "type": "event"
    },
    {
      "anonymous": false,
      "inputs": [
        {
          "indexed": true,
          "internalType": "bytes32",
          "name": "role",
          "type": "bytes32"
        },
        {
          "indexed": true,
          "internalType": "bytes32",
          "name": "previousAdminRole",
          "type": "bytes32"
        },
        {
          "indexed": true,
          "internalType": "bytes32",
          "name": "newAdminRole",
          "type": "bytes32"
        }
      ],
      "name": "RoleAdminChanged",
      "type": "event"
    },
    {
      "anonymous": false,
      "inputs": [
        {
          "indexed": true,
          "internalType": "bytes32",
          "name": "role",
          "type": "bytes32"
        },
        {
          "indexed": true,
          "internalType": "address",
          "name": "account",
          "type": "address"
        },
        {
          "indexed": true,
          "internalType": "address",
          "name": "sender",
          "type": "address"
        }
      ],
      "name": "RoleGranted",
      "type": "event"
    },
    {
      "anonymous": false,
      "inputs": [
        {
          "indexed": true,
          "internalType": "bytes32",
          "name": "role",
          "type": "bytes32"
        },
        {
          "indexed": true,
          "internalType": "address",
          "name": "account",
          "type": "address"
        },
        {
          "indexed": true,
          "internalType": "address",
          "name": "sender",
          "type": "address"
        }
      ],
      "name": "RoleRevoked",
      "type": "event"
    },
    {
      "anonymous": false,
      "inputs": [
        {
          "indexed": false,
          "internalType": "uint256",
          "name": "healthFactor",
          "type": "uint256"
        }
      ],
      "name": "SetHealthFactor",
      "type": "event"
    },
    {
      "anonymous": false,
      "inputs": [
        {
          "indexed": false,
          "internalType": "uint256",
          "name": "amount",
          "type": "uint256"
        }
      ],
      "name": "Stake",
      "type": "event"
    },
    {
      "anonymous": false,
      "inputs": [],
      "name": "StrategyUpdatedParams",
      "type": "event"
    },
    {
      "anonymous": false,
      "inputs": [
        {
          "indexed": false,
          "internalType": "uint256",
          "name": "amount",
          "type": "uint256"
        },
        {
          "indexed": false,
          "internalType": "uint256",
          "name": "amountReceived",
          "type": "uint256"
        }
      ],
      "name": "Unstake",
      "type": "event"
    },
    {
      "anonymous": false,
      "inputs": [
        {
          "indexed": true,
          "internalType": "address",
          "name": "implementation",
          "type": "address"
        }
      ],
      "name": "Upgraded",
      "type": "event"
    },
    {
      "inputs": [],
      "name": "DEFAULT_ADMIN_ROLE",
      "outputs": [
        {
          "internalType": "bytes32",
          "name": "",
          "type": "bytes32"
        }
      ],
      "stateMutability": "view",
      "type": "function"
    },
    {
      "inputs": [],
      "name": "PORTFOLIO_AGENT_ROLE",
      "outputs": [
        {
          "internalType": "bytes32",
          "name": "",
          "type": "bytes32"
        }
      ],
      "stateMutability": "view",
      "type": "function"
    },
    {
      "inputs": [],
      "name": "PORTFOLIO_MANAGER",
      "outputs": [
        {
          "internalType": "bytes32",
          "name": "",
          "type": "bytes32"
        }
      ],
      "stateMutability": "view",
      "type": "function"
    },
    {
      "inputs": [],
      "name": "UPGRADER_ROLE",
      "outputs": [
        {
          "internalType": "bytes32",
          "name": "",
          "type": "bytes32"
        }
      ],
      "stateMutability": "view",
      "type": "function"
    },
    {
      "inputs": [],
      "name": "busd",
      "outputs": [
        {
          "internalType": "contract IERC20",
          "name": "",
          "type": "address"
        }
      ],
      "stateMutability": "view",
      "type": "function"
    },
    {
      "inputs": [],
      "name": "busdDm",
      "outputs": [
        {
          "internalType": "uint256",
          "name": "",
          "type": "uint256"
        }
      ],
      "stateMutability": "view",
      "type": "function"
    },
    {
      "inputs": [
        {
          "internalType": "address",
          "name": "_to",
          "type": "address"
        }
      ],
      "name": "claimRewards",
      "outputs": [
        {
          "internalType": "uint256",
          "name": "",
          "type": "uint256"
        }
      ],
      "stateMutability": "nonpayable",
      "type": "function"
    },
    {
      "inputs": [
        {
          "internalType": "bytes32",
          "name": "role",
          "type": "bytes32"
        }
      ],
      "name": "getRoleAdmin",
      "outputs": [
        {
          "internalType": "bytes32",
          "name": "",
          "type": "bytes32"
        }
      ],
      "stateMutability": "view",
      "type": "function"
    },
    {
      "inputs": [
        {
          "internalType": "bytes32",
          "name": "role",
          "type": "bytes32"
        },
        {
          "internalType": "address",
          "name": "account",
          "type": "address"
        }
      ],
      "name": "grantRole",
      "outputs": [],
      "stateMutability": "nonpayable",
      "type": "function"
    },
    {
      "inputs": [
        {
          "internalType": "bytes32",
          "name": "role",
          "type": "bytes32"
        },
        {
          "internalType": "address",
          "name": "account",
          "type": "address"
        }
      ],
      "name": "hasRole",
      "outputs": [
        {
          "internalType": "bool",
          "name": "",
          "type": "bool"
        }
      ],
      "stateMutability": "view",
      "type": "function"
    },
    {
      "inputs": [],
      "name": "healthFactorBalance",
      "outputs": [],
      "stateMutability": "nonpayable",
      "type": "function"
    },
    {
      "inputs": [],
      "name": "initialize",
      "outputs": [],
      "stateMutability": "nonpayable",
      "type": "function"
    },
    {
      "inputs": [],
      "name": "liquidationValue",
      "outputs": [
        {
          "internalType": "uint256",
          "name": "",
          "type": "uint256"
        }
      ],
      "stateMutability": "view",
      "type": "function"
    },
    {
      "inputs": [],
      "name": "lpUsdc",
      "outputs": [
        {
          "internalType": "contract IAsset",
          "name": "",
          "type": "address"
        }
      ],
      "stateMutability": "view",
      "type": "function"
    },
    {
      "inputs": [],
      "name": "lpUsdcDm",
      "outputs": [
        {
          "internalType": "uint256",
          "name": "",
          "type": "uint256"
        }
      ],
      "stateMutability": "view",
      "type": "function"
    },
    {
      "inputs": [],
      "name": "netAssetValue",
      "outputs": [
        {
          "internalType": "uint256",
          "name": "",
          "type": "uint256"
        }
      ],
      "stateMutability": "view",
      "type": "function"
    },
    {
      "inputs": [],
      "name": "oracleBusd",
      "outputs": [
        {
          "internalType": "contract IPriceFeed",
          "name": "",
          "type": "address"
        }
      ],
      "stateMutability": "view",
      "type": "function"
    },
    {
      "inputs": [],
      "name": "oracleUsdc",
      "outputs": [
        {
          "internalType": "contract IPriceFeed",
          "name": "",
          "type": "address"
        }
      ],
      "stateMutability": "view",
      "type": "function"
    },
    {
      "inputs": [],
      "name": "pancakeRouter",
      "outputs": [
        {
          "internalType": "contract IPancakeRouter02",
          "name": "",
          "type": "address"
        }
      ],
      "stateMutability": "view",
      "type": "function"
    },
    {
      "inputs": [],
      "name": "pool",
      "outputs": [
        {
          "internalType": "contract IPool",
          "name": "",
          "type": "address"
        }
      ],
      "stateMutability": "view",
      "type": "function"
    },
    {
      "inputs": [],
      "name": "poolDepositor",
      "outputs": [
        {
          "internalType": "contract IPoolDepositor",
          "name": "",
          "type": "address"
        }
      ],
      "stateMutability": "view",
      "type": "function"
    },
    {
      "inputs": [],
      "name": "portfolioManager",
      "outputs": [
        {
          "internalType": "address",
          "name": "",
          "type": "address"
        }
      ],
      "stateMutability": "view",
      "type": "function"
    },
    {
      "inputs": [],
      "name": "proxiableUUID",
      "outputs": [
        {
          "internalType": "bytes32",
          "name": "",
          "type": "bytes32"
        }
      ],
      "stateMutability": "view",
      "type": "function"
    },
    {
      "inputs": [
        {
          "internalType": "bytes32",
          "name": "role",
          "type": "bytes32"
        },
        {
          "internalType": "address",
          "name": "account",
          "type": "address"
        }
      ],
      "name": "renounceRole",
      "outputs": [],
      "stateMutability": "nonpayable",
      "type": "function"
    },
    {
      "inputs": [
        {
          "internalType": "bytes32",
          "name": "role",
          "type": "bytes32"
        },
        {
          "internalType": "address",
          "name": "account",
          "type": "address"
        }
      ],
      "name": "revokeRole",
      "outputs": [],
      "stateMutability": "nonpayable",
      "type": "function"
    },
    {
      "inputs": [
        {
          "internalType": "uint256",
          "name": "healthFactor",
          "type": "uint256"
        }
      ],
      "name": "setHealthFactor",
      "outputs": [],
      "stateMutability": "nonpayable",
      "type": "function"
    },
    {
      "inputs": [
        {
          "components": [
            {
              "internalType": "address",
              "name": "busd",
              "type": "address"
            },
            {
              "internalType": "address",
              "name": "usdc",
              "type": "address"
            },
            {
              "internalType": "address",
              "name": "wom",
              "type": "address"
            },
            {
              "internalType": "address",
              "name": "wmx",
              "type": "address"
            },
            {
              "internalType": "address",
              "name": "lpUsdc",
              "type": "address"
            },
            {
              "internalType": "address",
              "name": "wmxLpUsdc",
              "type": "address"
            },
            {
              "internalType": "address",
              "name": "poolDepositor",
              "type": "address"
            },
            {
              "internalType": "address",
              "name": "pool",
              "type": "address"
            },
            {
              "internalType": "address",
              "name": "pancakeRouter",
              "type": "address"
            },
            {
              "internalType": "address",
              "name": "wombatRouter",
              "type": "address"
            },
            {
              "internalType": "address",
              "name": "oracleBusd",
              "type": "address"
            },
            {
              "internalType": "address",
              "name": "oracleUsdc",
              "type": "address"
            }
          ],
          "internalType": "struct StrategyWombexUsdc.StrategyParams",
          "name": "params",
          "type": "tuple"
        }
      ],
      "name": "setParams",
      "outputs": [],
      "stateMutability": "nonpayable",
      "type": "function"
    },
    {
      "inputs": [
        {
          "internalType": "address",
          "name": "_value",
          "type": "address"
        }
      ],
      "name": "setPortfolioManager",
      "outputs": [],
      "stateMutability": "nonpayable",
      "type": "function"
    },
    {
      "inputs": [
        {
          "internalType": "address",
          "name": "_asset",
          "type": "address"
        },
        {
          "internalType": "uint256",
          "name": "_amount",
          "type": "uint256"
        }
      ],
      "name": "stake",
      "outputs": [],
      "stateMutability": "nonpayable",
      "type": "function"
    },
    {
      "inputs": [
        {
          "internalType": "bytes4",
          "name": "interfaceId",
          "type": "bytes4"
        }
      ],
      "name": "supportsInterface",
      "outputs": [
        {
          "internalType": "bool",
          "name": "",
          "type": "bool"
        }
      ],
      "stateMutability": "view",
      "type": "function"
    },
    {
      "inputs": [
        {
          "internalType": "address",
          "name": "_asset",
          "type": "address"
        },
        {
          "internalType": "uint256",
          "name": "_amount",
          "type": "uint256"
        },
        {
          "internalType": "address",
          "name": "_beneficiary",
          "type": "address"
        },
        {
          "internalType": "bool",
          "name": "_targetIsZero",
          "type": "bool"
        }
      ],
      "name": "unstake",
      "outputs": [
        {
          "internalType": "uint256",
          "name": "",
          "type": "uint256"
        }
      ],
      "stateMutability": "nonpayable",
      "type": "function"
    },
    {
      "inputs": [
        {
          "internalType": "address",
          "name": "newImplementation",
          "type": "address"
        }
      ],
      "name": "upgradeTo",
      "outputs": [],
      "stateMutability": "nonpayable",
      "type": "function"
    },
    {
      "inputs": [
        {
          "internalType": "address",
          "name": "newImplementation",
          "type": "address"
        },
        {
          "internalType": "bytes",
          "name": "data",
          "type": "bytes"
        }
      ],
      "name": "upgradeToAndCall",
      "outputs": [],
      "stateMutability": "payable",
      "type": "function"
    },
    {
      "inputs": [],
      "name": "usdc",
      "outputs": [
        {
          "internalType": "contract IERC20",
          "name": "",
          "type": "address"
        }
      ],
      "stateMutability": "view",
      "type": "function"
    },
    {
      "inputs": [],
      "name": "usdcDm",
      "outputs": [
        {
          "internalType": "uint256",
          "name": "",
          "type": "uint256"
        }
      ],
      "stateMutability": "view",
      "type": "function"
    },
    {
      "inputs": [],
      "name": "wmx",
      "outputs": [
        {
          "internalType": "contract IERC20",
          "name": "",
          "type": "address"
        }
      ],
      "stateMutability": "view",
      "type": "function"
    },
    {
      "inputs": [],
      "name": "wmxLpUsdc",
      "outputs": [
        {
          "internalType": "contract IBaseRewardPool",
          "name": "",
          "type": "address"
        }
      ],
      "stateMutability": "view",
      "type": "function"
    },
    {
      "inputs": [],
      "name": "wom",
      "outputs": [
        {
          "internalType": "contract IERC20",
          "name": "",
          "type": "address"
        }
      ],
      "stateMutability": "view",
      "type": "function"
    },
    {
      "inputs": [],
      "name": "wombatRouter",
      "outputs": [
        {
          "internalType": "contract IWombatRouter",
          "name": "",
          "type": "address"
        }
      ],
      "stateMutability": "view",
      "type": "function"
    }
  ],
  "numDeployments": 2,
  "solcInputHash": "1ebaa409c68069ecc0b6d6a9041435f4",
  "bytecode": "0x60a06040523060601b6080523480156200001857600080fd5b50600054610100900460ff16158080156200003a5750600054600160ff909116105b806200006a575062000057306200014460201b620016411760201c565b1580156200006a575060005460ff166001145b620000d25760405162461bcd60e51b815260206004820152602e60248201527f496e697469616c697a61626c653a20636f6e747261637420697320616c72656160448201526d191e481a5b9a5d1a585b1a5e995960921b606482015260840160405180910390fd5b6000805460ff191660011790558015620000f6576000805461ff0019166101001790555b80156200013d576000805461ff0019169055604051600181527f7f26b83ff96e1f2b6a682f133852f6798a09c465da95921460cefb38474024989060200160405180910390a15b5062000153565b6001600160a01b03163b151590565b60805160601c613ed36200018e6000396000818161089d015281816108dd0152818161097d015281816109bd0152610a4c0152613ed36000f3fe6080604052600436106102305760003560e01c8063620b75df1161012e578063bd25c6db116100ab578063dc19d6431161006f578063dc19d64314610682578063ef5cfb8c14610699578063f6f6b881146106b9578063f72c0d8b146106d9578063fd35ece21461070d57600080fd5b8063bd25c6db146105de578063c21ebd07146105ff578063c5a6222e14610620578063d2b9af8b14610641578063d547741f1461066257600080fd5b8063a217fddf116100f2578063a217fddf14610553578063a3673b3814610568578063a440b21a1461057d578063a66b57131461059d578063adc9772e146105be57600080fd5b8063620b75df146104c75780637b73aa4e146104e75780637d5f5802146104fc5780638129fc1c1461051e57806391d148541461053357600080fd5b806336568abe116101bc57806352d1902d1161018057806352d1902d1461041c578063588250c6146104315780635dbd733a146104515780635fea9cbb14610485578063612c87df146104a657600080fd5b806336568abe146103875780633659cfe6146103a75780633ca5b234146103c75780633e413bee146103e85780634f1ef2861461040957600080fd5b80631b1e7ddc116102035780631b1e7ddc146102e9578063248a9ca3146103005780632576e65a146103305780632f2ff15d14610345578063311117081461036757600080fd5b806301ffc9a714610235578063083975d41461026a5780630a37cacd146102a357806316f0115b146102c8575b600080fd5b34801561024157600080fd5b506102556102503660046137ef565b61072e565b60405190151581526020015b60405180910390f35b34801561027657600080fd5b506101305461028b906001600160a01b031681565b6040516001600160a01b039091168152602001610261565b3480156102af57600080fd5b506102ba61013b5481565b604051908152602001610261565b3480156102d457600080fd5b506101345461028b906001600160a01b031681565b3480156102f557600080fd5b506102ba61013a5481565b34801561030c57600080fd5b506102ba61031b366004613791565b60009081526065602052604090206001015490565b34801561033c57600080fd5b506102ba610765565b34801561035157600080fd5b506103656103603660046137c3565b610776565b005b34801561037357600080fd5b50610365610382366004613791565b6107a0565b34801561039357600080fd5b506103656103a23660046137c3565b610814565b3480156103b357600080fd5b506103656103c23660046135fd565b610892565b3480156103d357600080fd5b5061012d5461028b906001600160a01b031681565b3480156103f457600080fd5b5061012e5461028b906001600160a01b031681565b610365610417366004613618565b610972565b34801561042857600080fd5b506102ba610a3f565b34801561043d57600080fd5b5061036561044c366004613819565b610af2565b34801561045d57600080fd5b506102ba7fd67ad422505496469a1adf6cdf9e5ee92ac5d33992843c9ecc4b2f6d6cde913781565b34801561049157600080fd5b506101385461028b906001600160a01b031681565b3480156104b257600080fd5b506101365461028b906001600160a01b031681565b3480156104d357600080fd5b5060fb5461028b906001600160a01b031681565b3480156104f357600080fd5b50610365611082565b34801561050857600080fd5b506102ba600080516020613e3783398151915281565b34801561052a57600080fd5b506103656110b8565b34801561053f57600080fd5b5061025561054e3660046137c3565b61117b565b34801561055f57600080fd5b506102ba600081565b34801561057457600080fd5b506102ba6111a6565b34801561058957600080fd5b506103656105983660046135fd565b6111b2565b3480156105a957600080fd5b506101375461028b906001600160a01b031681565b3480156105ca57600080fd5b506103656105d93660046136be565b6112e1565b3480156105ea57600080fd5b506101335461028b906001600160a01b031681565b34801561060b57600080fd5b506101355461028b906001600160a01b031681565b34801561062c57600080fd5b5061012f5461028b906001600160a01b031681565b34801561064d57600080fd5b506101325461028b906001600160a01b031681565b34801561066e57600080fd5b5061036561067d3660046137c3565b6113ce565b34801561068e57600080fd5b506102ba6101395481565b3480156106a557600080fd5b506102ba6106b43660046135fd565b6113f3565b3480156106c557600080fd5b506102ba6106d43660046136e8565b611478565b3480156106e557600080fd5b506102ba7f189ab7a9244df0848122154315af71fe140f3db0fe014031783b0946b8c9d2e381565b34801561071957600080fd5b506101315461028b906001600160a01b031681565b60006001600160e01b03198216637965db0b60e01b148061075f57506301ffc9a760e01b6001600160e01b03198316145b92915050565b60006107716000611650565b905090565b60008281526065602052604090206001015461079181611a19565b61079b8383611a23565b505050565b6107b8600080516020613e378339815191523361117b565b6107dd5760405162461bcd60e51b81526004016107d490613a6b565b60405180910390fd5b6040518181527ff00d5f5126966481831a71a9d79a9b3af67c4a1a35637b992c7e465a7e465b71906020015b60405180910390a150565b6001600160a01b03811633146108845760405162461bcd60e51b815260206004820152602f60248201527f416363657373436f6e74726f6c3a2063616e206f6e6c792072656e6f756e636560448201526e103937b632b9903337b91039b2b63360891b60648201526084016107d4565b61088e8282611aa9565b5050565b306001600160a01b037f00000000000000000000000000000000000000000000000000000000000000001614156108db5760405162461bcd60e51b81526004016107d490613aa2565b7f00000000000000000000000000000000000000000000000000000000000000006001600160a01b0316610924600080516020613e57833981519152546001600160a01b031690565b6001600160a01b03161461094a5760405162461bcd60e51b81526004016107d490613aee565b61095381611b10565b6040805160008082526020820190925261096f91839190611b3a565b50565b306001600160a01b037f00000000000000000000000000000000000000000000000000000000000000001614156109bb5760405162461bcd60e51b81526004016107d490613aa2565b7f00000000000000000000000000000000000000000000000000000000000000006001600160a01b0316610a04600080516020613e57833981519152546001600160a01b031690565b6001600160a01b031614610a2a5760405162461bcd60e51b81526004016107d490613aee565b610a3382611b10565b61088e82826001611b3a565b6000306001600160a01b037f00000000000000000000000000000000000000000000000000000000000000001614610adf5760405162461bcd60e51b815260206004820152603860248201527f555550535570677261646561626c653a206d757374206e6f742062652063616c60448201527f6c6564207468726f7567682064656c656761746563616c6c000000000000000060648201526084016107d4565b50600080516020613e5783398151915290565b610afd60003361117b565b610b405760405162461bcd60e51b81526020600482015260146024820152735265737472696374656420746f2061646d696e7360601b60448201526064016107d4565b610b4d60208201826135fd565b61012d80546001600160a01b0319166001600160a01b0392909216919091179055610b7e60408201602083016135fd565b61012e80546001600160a01b0319166001600160a01b0392909216919091179055610baf60608201604083016135fd565b61012f80546001600160a01b0319166001600160a01b0392909216919091179055610be060808201606083016135fd565b61013080546001600160a01b0319166001600160a01b0392909216919091179055610c1160a08201608083016135fd565b61013180546001600160a01b0319166001600160a01b0392909216919091179055610c4260c0820160a083016135fd565b61013280546001600160a01b0319166001600160a01b0392909216919091179055610c7360e0820160c083016135fd565b61013380546001600160a01b0319166001600160a01b0392909216919091179055610ca5610100820160e083016135fd565b61013480546001600160a01b0319166001600160a01b0392909216919091179055610cd8610120820161010083016135fd565b61013580546001600160a01b0319166001600160a01b0392909216919091179055610d0b610140820161012083016135fd565b61013680546001600160a01b0319166001600160a01b0392909216919091179055610d3e610160820161014083016135fd565b61013780546001600160a01b0319166001600160a01b0392909216919091179055610d71610180820161016083016135fd565b61013880546001600160a01b0319166001600160a01b0392909216919091179055610d9f60208201826135fd565b6001600160a01b031663313ce5676040518163ffffffff1660e01b815260040160206040518083038186803b158015610dd757600080fd5b505afa158015610deb573d6000803e3d6000fd5b505050506040513d601f19601f82011682018060405250810190610e0f919061389d565b610e1a90600a613cc2565b61013955610e2e60408201602083016135fd565b6001600160a01b031663313ce5676040518163ffffffff1660e01b815260040160206040518083038186803b158015610e6657600080fd5b505afa158015610e7a573d6000803e3d6000fd5b505050506040513d601f19601f82011682018060405250810190610e9e919061389d565b610ea990600a613cc2565b61013a55610ebd60a08201608083016135fd565b6001600160a01b031663313ce5676040518163ffffffff1660e01b815260040160206040518083038186803b158015610ef557600080fd5b505afa158015610f09573d6000803e3d6000fd5b505050506040513d601f19601f82011682018060405250810190610f2d919061389d565b610f3890600a613cc2565b61013b5561012e546101335460405163095ea7b360e01b81526001600160a01b039283169263095ea7b392610f769291169060001990600401613995565b602060405180830381600087803b158015610f9057600080fd5b505af1158015610fa4573d6000803e3d6000fd5b505050506040513d601f19601f82011682018060405250810190610fc89190613774565b50610132546101335460405163095ea7b360e01b81526001600160a01b039283169263095ea7b3926110039291169060001990600401613995565b602060405180830381600087803b15801561101d57600080fd5b505af1158015611031573d6000803e3d6000fd5b505050506040513d601f19601f820116820180604052508101906110559190613774565b506040517fea5646eb3528e525944447a4a97de700dd472298626e5c0481d1c82c3da86ea590600090a150565b61109a600080516020613e378339815191523361117b565b6110b65760405162461bcd60e51b81526004016107d490613a6b565b565b600054610100900460ff16158080156110d85750600054600160ff909116105b806110f25750303b1580156110f2575060005460ff166001145b61110e5760405162461bcd60e51b81526004016107d490613b3a565b6000805460ff191660011790558015611131576000805461ff0019166101001790555b611139611cb4565b801561096f576000805461ff0019169055604051600181527f7f26b83ff96e1f2b6a682f133852f6798a09c465da95921460cefb384740249890602001610809565b60009182526065602090815260408084206001600160a01b0393909316845291905290205460ff1690565b60006107716001611650565b6111bd60003361117b565b6112005760405162461bcd60e51b81526020600482015260146024820152735265737472696374656420746f2061646d696e7360601b60448201526064016107d4565b6001600160a01b0381166112565760405162461bcd60e51b815260206004820152601860248201527f5a65726f2061646472657373206e6f7420616c6c6f776564000000000000000060448201526064016107d4565b60fb5461127b90600080516020613e37833981519152906001600160a01b03166113ce565b611293600080516020613e3783398151915282610776565b60fb80546001600160a01b0319166001600160a01b0383169081179091556040519081527ff7b449fcd5cfb7379dcd34cb69428dd9f882033b15be33d83b42d91daa28eeb790602001610809565b6112f9600080516020613e378339815191523361117b565b6113155760405162461bcd60e51b81526004016107d490613a6b565b6040516370a0823160e01b81523060048201526113979083906001600160a01b038216906370a082319060240160206040518083038186803b15801561135a57600080fd5b505afa15801561136e573d6000803e3d6000fd5b505050506040513d601f19601f8201168201806040525081019061139291906137aa565b611d72565b6040518181527f227a473b70d2f893cc7659219575c030a63b5743024fe1e0c1a680e708b1525a9060200160405180910390a15050565b6000828152606560205260409020600101546113e981611a19565b61079b8383611aa9565b600061140d600080516020613e378339815191523361117b565b6114295760405162461bcd60e51b81526004016107d490613a6b565b60006114348361203d565b90508015611470576040518181527f3ac0594a85a20354f9dc74f33728416d19ce00d04a406c108cc2dcf2cecea1349060200160405180910390a15b90505b919050565b6000611492600080516020613e378339815191523361117b565b6114ae5760405162461bcd60e51b81526004016107d490613a6b565b6000821561150f5760006114c18561203d565b905080156114fd576040518181527f3ac0594a85a20354f9dc74f33728416d19ce00d04a406c108cc2dcf2cecea1349060200160405180910390a15b61150787866123ee565b91505061157e565b61151a86868661273b565b90508481101561157e5760405162461bcd60e51b815260206004820152602960248201527f52657475726e65642076616c7565206c657373207468616e2072657175657374604482015268195908185b5bdd5b9d60ba1b60648201526084016107d4565b60405163a9059cbb60e01b81526001600160a01b0387169063a9059cbb906115ac9087908590600401613995565b602060405180830381600087803b1580156115c657600080fd5b505af11580156115da573d6000803e3d6000fd5b505050506040513d601f19601f820116820180604052508101906115fe9190613774565b5060408051868152602081018390527f9045c2ac9b2026de8075f2701bbdde882cd5e830b3b1ead9a15b22f2b5b93742910160405180910390a195945050505050565b6001600160a01b03163b151590565b61012d546040516370a0823160e01b815230600482015260009182916001600160a01b03909116906370a082319060240160206040518083038186803b15801561169957600080fd5b505afa1580156116ad573d6000803e3d6000fd5b505050506040513d601f19601f820116820180604052508101906116d191906137aa565b61012e546040516370a0823160e01b81523060048201529192506000916001600160a01b03909116906370a082319060240160206040518083038186803b15801561171b57600080fd5b505afa15801561172f573d6000803e3d6000fd5b505050506040513d601f19601f8201168201806040525081019061175391906137aa565b610132546040516370a0823160e01b81523060048201529192506000916001600160a01b03909116906370a082319060240160206040518083038186803b15801561179d57600080fd5b505afa1580156117b1573d6000803e3d6000fd5b505050506040513d601f19601f820116820180604052508101906117d591906137aa565b90508015611879576101345461012e5460405163907448ed60e01b81526000926001600160a01b039081169263907448ed9261181992909116908690600401613995565b604080518083038186803b15801561183057600080fd5b505afa158015611844573d6000803e3d6000fd5b505050506040513d601f19601f820116820180604052508101906118689190613879565b5090506118758184613c45565b9250505b8115611a105784156119d65761013854604080516350d25bcd60e01b815290516000926001600160a01b0316916350d25bcd916004808301926020929190829003018186803b1580156118cb57600080fd5b505afa1580156118df573d6000803e3d6000fd5b505050506040513d601f19601f8201168201806040525081019061190391906137aa565b9050600061013760009054906101000a90046001600160a01b03166001600160a01b03166350d25bcd6040518163ffffffff1660e01b815260040160206040518083038186803b15801561195657600080fd5b505afa15801561196a573d6000803e3d6000fd5b505050506040513d601f19601f8201168201806040525081019061198e91906137aa565b90508061013a5461199f9190613d6d565b8261013954866119af9190613d6d565b6119b99190613d6d565b6119c39190613c5d565b6119cd9086613c45565b94505050611a10565b6101365461012e5461012d5461013454611a03936001600160a01b03908116938116928116911686612a63565b611a0d9084613c45565b92505b50909392505050565b61096f8133612bc4565b611a2d828261117b565b61088e5760008281526065602090815260408083206001600160a01b03851684529091529020805460ff19166001179055611a653390565b6001600160a01b0316816001600160a01b0316837f2f8788117e7eff1d82e926ec794901d17c78024a50270940304540a733656f0d60405160405180910390a45050565b611ab3828261117b565b1561088e5760008281526065602090815260408083206001600160a01b0385168085529252808320805460ff1916905551339285917ff6391f5c32d9c69d2a47ea670b442974b53935d1edc7fd64eb21e047a839171b9190a45050565b7f189ab7a9244df0848122154315af71fe140f3db0fe014031783b0946b8c9d2e361088e81611a19565b7f4910fdfa16fed3260ed0e7147f7cc6da11a60208b5b9406d12a635614ffd91435460ff1615611b6d5761079b83612c1d565b826001600160a01b03166352d1902d6040518163ffffffff1660e01b815260040160206040518083038186803b158015611ba657600080fd5b505afa925050508015611bd6575060408051601f3d908101601f19168201909252611bd3918101906137aa565b60015b611c395760405162461bcd60e51b815260206004820152602e60248201527f45524331393637557067726164653a206e657720696d706c656d656e7461746960448201526d6f6e206973206e6f74205555505360901b60648201526084016107d4565b600080516020613e578339815191528114611ca85760405162461bcd60e51b815260206004820152602960248201527f45524331393637557067726164653a20756e737570706f727465642070726f786044820152681a58589b195555525160ba1b60648201526084016107d4565b5061079b838383612cb9565b600054610100900460ff1615808015611cd45750600054600160ff909116105b80611cee5750303b158015611cee575060005460ff166001145b611d0a5760405162461bcd60e51b81526004016107d490613b3a565b6000805460ff191660011790558015611d2d576000805461ff0019166101001790555b611d35612ce4565b611d3d612ce4565b611d48600033611a23565b6111397f189ab7a9244df0848122154315af71fe140f3db0fe014031783b0946b8c9d2e333611a23565b61012d546001600160a01b03838116911614611da05760405162461bcd60e51b81526004016107d490613b88565b61012d546040516370a0823160e01b81523060048201526000916001600160a01b0316906370a082319060240160206040518083038186803b158015611de557600080fd5b505afa158015611df9573d6000803e3d6000fd5b505050506040513d601f19601f82011682018060405250810190611e1d91906137aa565b6101365461012d5461012e5461013454939450600093611e50936001600160a01b03908116938116928116911686612a63565b90508015611e93576101365461012d5461012e5461013454611e91936001600160a01b03908116938116928116911686611e8b876004612d4f565b30612d72565b505b61012e546040516370a0823160e01b81523060048201526000916001600160a01b0316906370a082319060240160206040518083038186803b158015611ed857600080fd5b505afa158015611eec573d6000803e3d6000fd5b505050506040513d601f19601f82011682018060405250810190611f1091906137aa565b6101345461012e546040516361858e2360e01b81529293506000926001600160a01b03928316926361858e2392611f4e929116908690600401613995565b604080518083038186803b158015611f6557600080fd5b505afa158015611f79573d6000803e3d6000fd5b505050506040513d601f19601f82011682018060405250810190611f9d9190613879565b5061013354610131549192506001600160a01b039081169163fe41e524911684611fc8856001612d4f565b6040516001600160e01b031960e086901b1681526001600160a01b0390931660048401526024830191909152604482015260016064820152608401600060405180830381600087803b15801561201d57600080fd5b505af1158015612031573d6000803e3d6000fd5b50505050505050505050565b610132546040516370a0823160e01b815230600482015260009182916001600160a01b03909116906370a082319060240160206040518083038186803b15801561208657600080fd5b505afa15801561209a573d6000803e3d6000fd5b505050506040513d601f19601f820116820180604052508101906120be91906137aa565b9050801561214d5761013254604051637050ccd960e01b8152306004820152600060248201526001600160a01b0390911690637050ccd990604401602060405180830381600087803b15801561211357600080fd5b505af1158015612127573d6000803e3d6000fd5b505050506040513d601f19601f8201168201806040525081019061214b9190613774565b505b61012f546040516370a0823160e01b815230600482015260009182916001600160a01b03909116906370a082319060240160206040518083038186803b15801561219657600080fd5b505afa1580156121aa573d6000803e3d6000fd5b505050506040513d601f19601f820116820180604052508101906121ce91906137aa565b9050801561225c576101355461012f5461012d54600092612200926001600160a01b0391821692908216911685612f55565b9050801561225a576101355461012f5461012d5460009261224a926001600160a01b0391821692908216911686606461223a886063613d6d565b6122449190613c5d565b3061307e565b90506122568185613c45565b9350505b505b610130546040516370a0823160e01b81523060048201526000916001600160a01b0316906370a082319060240160206040518083038186803b1580156122a157600080fd5b505afa1580156122b5573d6000803e3d6000fd5b505050506040513d601f19601f820116820180604052508101906122d991906137aa565b9050801561235757610135546101305461012d5460009261230b926001600160a01b0391821692908216911685612f55565b9050801561235557610135546101305461012d54600092612345926001600160a01b0391821692908216911686606461223a886063613d6d565b90506123518186613c45565b9450505b505b82156123e45761012d5460405163a9059cbb60e01b81526001600160a01b039091169063a9059cbb906123909089908790600401613995565b602060405180830381600087803b1580156123aa57600080fd5b505af11580156123be573d6000803e3d6000fd5b505050506040513d601f19601f820116820180604052508101906123e29190613774565b505b5090949350505050565b61012d546000906001600160a01b0384811691161461241f5760405162461bcd60e51b81526004016107d490613b88565b610132546040516370a0823160e01b81523060048201526000916001600160a01b0316906370a082319060240160206040518083038186803b15801561246457600080fd5b505afa158015612478573d6000803e3d6000fd5b505050506040513d601f19601f8201168201806040525081019061249c91906137aa565b905080156125c8576101345461012e5460405163907448ed60e01b81526000926001600160a01b039081169263907448ed926124e092909116908690600401613995565b604080518083038186803b1580156124f757600080fd5b505afa15801561250b573d6000803e3d6000fd5b505050506040513d601f19601f8201168201806040525081019061252f9190613879565b5061013354610131549192506001600160a01b03908116916316762eed91168461255a856001612d4f565b6040516001600160e01b031960e086901b1681526001600160a01b03909316600484015260248301919091526044820152306064820152608401600060405180830381600087803b1580156125ae57600080fd5b505af11580156125c2573d6000803e3d6000fd5b50505050505b61012e546040516370a0823160e01b81523060048201526000916001600160a01b0316906370a082319060240160206040518083038186803b15801561260d57600080fd5b505afa158015612621573d6000803e3d6000fd5b505050506040513d601f19601f8201168201806040525081019061264591906137aa565b6101365461012e5461012d5461013454939450600093612678936001600160a01b03908116938116928116911686612a63565b905080156126b5576101365461012e5461012d54610134546126b3936001600160a01b03908116938116928116911686611e8b876004612d4f565b505b61012d546040516370a0823160e01b81523060048201526001600160a01b03909116906370a082319060240160206040518083038186803b1580156126f957600080fd5b505afa15801561270d573d6000803e3d6000fd5b505050506040513d601f19601f8201168201806040525081019061273191906137aa565b9695505050505050565b61012d546000906001600160a01b0385811691161461276c5760405162461bcd60e51b81526004016107d490613b88565b6101365461012e5461012d546101345460009361279e936001600160a01b039182169390821692908216911688612a63565b90506000816127ad8680613d6d565b6127b79190613c5d565b6101345461012e5461013b5460405163907448ed60e01b81529394506000936001600160a01b039384169363907448ed936127f793911691600401613995565b604080518083038186803b15801561280e57600080fd5b505afa158015612822573d6000803e3d6000fd5b505050506040513d601f19601f820116820180604052508101906128469190613879565b50905060008161013b5461285b856001613231565b6128659190613d6d565b61286f9190613c5d565b61013354610131546040516316762eed60e01b81526001600160a01b039182166004820152602481018490526044810187905230606482015292935016906316762eed90608401600060405180830381600087803b1580156128d057600080fd5b505af11580156128e4573d6000803e3d6000fd5b505061012e546040516370a0823160e01b8152306004820152600093506001600160a01b0390911691506370a082319060240160206040518083038186803b15801561292f57600080fd5b505afa158015612943573d6000803e3d6000fd5b505050506040513d601f19601f8201168201806040525081019061296791906137aa565b6101365461012e5461012d546101345493945060009361299a936001600160a01b03908116938116928116911686612a63565b905080156129d7576101365461012e5461012d54610134546129d5936001600160a01b03908116938116928116911686611e8b876004612d4f565b505b61012d546040516370a0823160e01b81523060048201526001600160a01b03909116906370a082319060240160206040518083038186803b158015612a1b57600080fd5b505afa158015612a2f573d6000803e3d6000fd5b505050506040513d601f19601f82011682018060405250810190612a5391906137aa565b96505050505050505b9392505050565b604080516002808252606082018352600092839291906020830190803683370190505090508581600081518110612a9c57612a9c613dfc565b60200260200101906001600160a01b031690816001600160a01b0316815250508481600181518110612ad057612ad0613dfc565b6001600160a01b0392909216602092830291909101909101526040805160018082528183019092526000918160200160208202803683370190505090508481600081518110612b2157612b21613dfc565b6001600160a01b03928316602091820292909201015260405163b9e598c160e01b81526000918a169063b9e598c190612b6290869086908a906004016139ae565b60006040518083038186803b158015612b7a57600080fd5b505afa158015612b8e573d6000803e3d6000fd5b505050506040513d6000823e601f3d908101601f19168201604052612bb69190810190613832565b509998505050505050505050565b612bce828261117b565b61088e57612bdb81613240565b612be6836020613252565b604051602001612bf7929190613920565b60408051601f198184030181529082905262461bcd60e51b82526107d491600401613a38565b6001600160a01b0381163b612c8a5760405162461bcd60e51b815260206004820152602d60248201527f455243313936373a206e657720696d706c656d656e746174696f6e206973206e60448201526c1bdd08184818dbdb9d1c9858dd609a1b60648201526084016107d4565b600080516020613e5783398151915280546001600160a01b0319166001600160a01b0392909216919091179055565b612cc2836133ee565b600082511180612ccf5750805b1561079b57612cde838361342e565b50505050565b600054610100900460ff166110b65760405162461bcd60e51b815260206004820152602b60248201527f496e697469616c697a61626c653a20636f6e7472616374206973206e6f74206960448201526a6e697469616c697a696e6760a81b60648201526084016107d4565b6000612710612d5e8382613d8c565b612d689085613d6d565b612a5c9190613c5d565b60405163095ea7b360e01b81526000906001600160a01b0388169063095ea7b390612da3908b908890600401613995565b602060405180830381600087803b158015612dbd57600080fd5b505af1158015612dd1573d6000803e3d6000fd5b505050506040513d601f19601f82011682018060405250810190612df59190613774565b506040805160028082526060820183526000926020830190803683370190505090508781600081518110612e2b57612e2b613dfc565b60200260200101906001600160a01b031690816001600160a01b0316815250508681600181518110612e5f57612e5f613dfc565b6001600160a01b0392909216602092830291909101909101526040805160018082528183019092526000918160200160208202803683370190505090508681600081518110612eb057612eb0613dfc565b6001600160a01b03928316602091820292909201015260405163351041e960e21b8152908b169063d44107a490612ef590859085908b908b908b9042906004016139e4565b602060405180830381600087803b158015612f0f57600080fd5b505af1158015612f23573d6000803e3d6000fd5b505050506040513d601f19601f82011682018060405250810190612f4791906137aa565b9a9950505050505050505050565b604080516002808252606082018352600092839291906020830190803683370190505090508481600081518110612f8e57612f8e613dfc565b60200260200101906001600160a01b031690816001600160a01b0316815250508381600181518110612fc257612fc2613dfc565b6001600160a01b03928316602091820292909201015260405163d06ca61f60e01b815260009188169063d06ca61f906130019087908690600401613bbf565b60006040518083038186803b15801561301957600080fd5b505afa15801561302d573d6000803e3d6000fd5b505050506040513d6000823e601f3d908101601f191682016040526130559190810190613737565b90508060018151811061306a5761306a613dfc565b602002602001015192505050949350505050565b60405163095ea7b360e01b81526000906001600160a01b0387169063095ea7b3906130af908a908890600401613995565b602060405180830381600087803b1580156130c957600080fd5b505af11580156130dd573d6000803e3d6000fd5b505050506040513d601f19601f820116820180604052508101906131019190613774565b50604080516002808252606082018352600092602083019080368337019050509050868160008151811061313757613137613dfc565b60200260200101906001600160a01b031690816001600160a01b031681525050858160018151811061316b5761316b613dfc565b6001600160a01b0392831660209182029290920101526040516338ed173960e01b81526000918a16906338ed1739906131b0908990899087908a904290600401613bd8565b600060405180830381600087803b1580156131ca57600080fd5b505af11580156131de573d6000803e3d6000fd5b505050506040513d6000823e601f3d908101601f191682016040526132069190810190613737565b90508060018151811061321b5761321b613dfc565b6020026020010151925050509695505050505050565b6000612710612d5e8382613c45565b606061075f6001600160a01b03831660145b60606000613261836002613d6d565b61326c906002613c45565b67ffffffffffffffff81111561328457613284613e12565b6040519080825280601f01601f1916602001820160405280156132ae576020820181803683370190505b509050600360fc1b816000815181106132c9576132c9613dfc565b60200101906001600160f81b031916908160001a905350600f60fb1b816001815181106132f8576132f8613dfc565b60200101906001600160f81b031916908160001a905350600061331c846002613d6d565b613327906001613c45565b90505b600181111561339f576f181899199a1a9b1b9c1cb0b131b232b360811b85600f166010811061335b5761335b613dfc565b1a60f81b82828151811061337157613371613dfc565b60200101906001600160f81b031916908160001a90535060049490941c9361339881613dcf565b905061332a565b508315612a5c5760405162461bcd60e51b815260206004820181905260248201527f537472696e67733a20686578206c656e67746820696e73756666696369656e7460448201526064016107d4565b6133f781612c1d565b6040516001600160a01b038216907fbc7cd75a20ee27fd9adebab32041f755214dbc6bffa90cc0225b39da2e5c2d3b90600090a250565b60606001600160a01b0383163b6134965760405162461bcd60e51b815260206004820152602660248201527f416464726573733a2064656c65676174652063616c6c20746f206e6f6e2d636f6044820152651b9d1c9858dd60d21b60648201526084016107d4565b600080846001600160a01b0316846040516134b19190613904565b600060405180830381855af49150503d80600081146134ec576040519150601f19603f3d011682016040523d82523d6000602084013e6134f1565b606091505b50915091506135198282604051806060016040528060278152602001613e7760279139613522565b95945050505050565b60608315613531575081612a5c565b612a5c83838151156135465781518083602001fd5b8060405162461bcd60e51b81526004016107d49190613a38565b80356001600160a01b038116811461147357600080fd5b600082601f83011261358857600080fd5b8151602067ffffffffffffffff8211156135a4576135a4613e12565b8160051b6135b3828201613c14565b8381528281019086840183880185018910156135ce57600080fd5b600093505b858410156135f15780518352600193909301929184019184016135d3565b50979650505050505050565b60006020828403121561360f57600080fd5b612a5c82613560565b6000806040838503121561362b57600080fd5b61363483613560565b915060208084013567ffffffffffffffff8082111561365257600080fd5b818601915086601f83011261366657600080fd5b81358181111561367857613678613e12565b61368a601f8201601f19168501613c14565b915080825287848285010111156136a057600080fd5b80848401858401376000848284010152508093505050509250929050565b600080604083850312156136d157600080fd5b6136da83613560565b946020939093013593505050565b600080600080608085870312156136fe57600080fd5b61370785613560565b93506020850135925061371c60408601613560565b9150606085013561372c81613e28565b939692955090935050565b60006020828403121561374957600080fd5b815167ffffffffffffffff81111561376057600080fd5b61376c84828501613577565b949350505050565b60006020828403121561378657600080fd5b8151612a5c81613e28565b6000602082840312156137a357600080fd5b5035919050565b6000602082840312156137bc57600080fd5b5051919050565b600080604083850312156137d657600080fd5b823591506137e660208401613560565b90509250929050565b60006020828403121561380157600080fd5b81356001600160e01b031981168114612a5c57600080fd5b6000610180828403121561382c57600080fd5b50919050565b6000806040838503121561384557600080fd5b82519150602083015167ffffffffffffffff81111561386357600080fd5b61386f85828601613577565b9150509250929050565b6000806040838503121561388c57600080fd5b505080516020909101519092909150565b6000602082840312156138af57600080fd5b815160ff81168114612a5c57600080fd5b600081518084526020808501945080840160005b838110156138f95781516001600160a01b0316875295820195908201906001016138d4565b509495945050505050565b60008251613916818460208701613da3565b9190910192915050565b7f416363657373436f6e74726f6c3a206163636f756e7420000000000000000000815260008351613958816017850160208801613da3565b7001034b99036b4b9b9b4b733903937b6329607d1b6017918401918201528351613989816028840160208801613da3565b01602801949350505050565b6001600160a01b03929092168252602082015260400190565b6060815260006139c160608301866138c0565b82810360208401526139d381866138c0565b915050826040830152949350505050565b60c0815260006139f760c08301896138c0565b8281036020840152613a0981896138c0565b6040840197909752505060608101939093526001600160a01b0391909116608083015260a09091015292915050565b6020815260008251806020840152613a57816040850160208701613da3565b601f01601f19169190910160400192915050565b6020808252601f908201527f5265737472696374656420746f20504f5254464f4c494f5f4d414e4147455200604082015260600190565b6020808252602c908201527f46756e6374696f6e206d7573742062652063616c6c6564207468726f7567682060408201526b19195b1959d85d1958d85b1b60a21b606082015260800190565b6020808252602c908201527f46756e6374696f6e206d7573742062652063616c6c6564207468726f7567682060408201526b6163746976652070726f787960a01b606082015260800190565b6020808252602e908201527f496e697469616c697a61626c653a20636f6e747261637420697320616c72656160408201526d191e481a5b9a5d1a585b1a5e995960921b606082015260800190565b60208082526019908201527f536f6d6520746f6b656e206e6f7420636f6d70617469626c6500000000000000604082015260600190565b82815260406020820152600061376c60408301846138c0565b85815284602082015260a060408201526000613bf760a08301866138c0565b6001600160a01b0394909416606083015250608001529392505050565b604051601f8201601f1916810167ffffffffffffffff81118282101715613c3d57613c3d613e12565b604052919050565b60008219821115613c5857613c58613de6565b500190565b600082613c7a57634e487b7160e01b600052601260045260246000fd5b500490565b600181815b80851115613cba578160001904821115613ca057613ca0613de6565b80851615613cad57918102915b93841c9390800290613c84565b509250929050565b6000612a5c60ff841683600082613cdb5750600161075f565b81613ce85750600061075f565b8160018114613cfe5760028114613d0857613d24565b600191505061075f565b60ff841115613d1957613d19613de6565b50506001821b61075f565b5060208310610133831016604e8410600b8410161715613d47575081810a61075f565b613d518383613c7f565b8060001904821115613d6557613d65613de6565b029392505050565b6000816000190483118215151615613d8757613d87613de6565b500290565b600082821015613d9e57613d9e613de6565b500390565b60005b83811015613dbe578181015183820152602001613da6565b83811115612cde5750506000910152565b600081613dde57613dde613de6565b506000190190565b634e487b7160e01b600052601160045260246000fd5b634e487b7160e01b600052603260045260246000fd5b634e487b7160e01b600052604160045260246000fd5b801515811461096f57600080fdfe90c2aa7471c04182221f68e80c07ab1e5946e4c63f8693e14ca40385d529f051360894a13ba1a3210667c828492db98dca3e2076cc3735a920a3ca505d382bbc416464726573733a206c6f772d6c6576656c2064656c65676174652063616c6c206661696c6564a2646970667358221220c2c11e63ddbcd55f47dff0be5f5b4d7d1b98a8db51d9cbd266e950ce44e2c6d364736f6c63430008060033",
  "devdoc": {
    "kind": "dev",
    "methods": {
      "constructor": {
        "custom:oz-upgrades-unsafe-allow": "constructor"
      },
      "getRoleAdmin(bytes32)": {
        "details": "Returns the admin role that controls `role`. See {grantRole} and {revokeRole}. To change a role's admin, use {_setRoleAdmin}."
      },
      "grantRole(bytes32,address)": {
        "details": "Grants `role` to `account`. If `account` had not been already granted `role`, emits a {RoleGranted} event. Requirements: - the caller must have ``role``'s admin role. May emit a {RoleGranted} event."
      },
      "hasRole(bytes32,address)": {
        "details": "Returns `true` if `account` has been granted `role`."
      },
      "proxiableUUID()": {
        "details": "Implementation of the ERC1822 {proxiableUUID} function. This returns the storage slot used by the implementation. It is used to validate the implementation's compatibility when performing an upgrade. IMPORTANT: A proxy pointing at a proxiable contract should not be considered proxiable itself, because this risks bricking a proxy that upgrades to it, by delegating to itself until out of gas. Thus it is critical that this function revert if invoked through a proxy. This is guaranteed by the `notDelegated` modifier."
      },
      "renounceRole(bytes32,address)": {
        "details": "Revokes `role` from the calling account. Roles are often managed via {grantRole} and {revokeRole}: this function's purpose is to provide a mechanism for accounts to lose their privileges if they are compromised (such as when a trusted device is misplaced). If the calling account had been revoked `role`, emits a {RoleRevoked} event. Requirements: - the caller must be `account`. May emit a {RoleRevoked} event."
      },
      "revokeRole(bytes32,address)": {
        "details": "Revokes `role` from `account`. If `account` had been granted `role`, emits a {RoleRevoked} event. Requirements: - the caller must have ``role``'s admin role. May emit a {RoleRevoked} event."
      },
      "supportsInterface(bytes4)": {
        "details": "See {IERC165-supportsInterface}."
      },
      "upgradeTo(address)": {
        "details": "Upgrade the implementation of the proxy to `newImplementation`. Calls {_authorizeUpgrade}. Emits an {Upgraded} event."
      },
      "upgradeToAndCall(address,bytes)": {
        "details": "Upgrade the implementation of the proxy to `newImplementation`, and subsequently execute the function call encoded in `data`. Calls {_authorizeUpgrade}. Emits an {Upgraded} event."
      }
    },
    "version": 1
  },
  "userdoc": {
    "kind": "user",
    "methods": {},
    "version": 1
  },
  "storageLayout": {
    "storage": [
      {
        "astId": 804,
        "contract": "contracts/busd/StrategyWombexUsdc.sol:StrategyWombexUsdc",
        "label": "_initialized",
        "offset": 0,
        "slot": "0",
        "type": "t_uint8"
      },
      {
        "astId": 807,
        "contract": "contracts/busd/StrategyWombexUsdc.sol:StrategyWombexUsdc",
        "label": "_initializing",
        "offset": 1,
        "slot": "0",
        "type": "t_bool"
      },
      {
        "astId": 1427,
        "contract": "contracts/busd/StrategyWombexUsdc.sol:StrategyWombexUsdc",
        "label": "__gap",
        "offset": 0,
        "slot": "1",
        "type": "t_array(t_uint256)50_storage"
      },
      {
        "astId": 1706,
        "contract": "contracts/busd/StrategyWombexUsdc.sol:StrategyWombexUsdc",
        "label": "__gap",
        "offset": 0,
        "slot": "51",
        "type": "t_array(t_uint256)50_storage"
      },
      {
        "astId": 39,
        "contract": "contracts/busd/StrategyWombexUsdc.sol:StrategyWombexUsdc",
        "label": "_roles",
        "offset": 0,
        "slot": "101",
        "type": "t_mapping(t_bytes32,t_struct(RoleData)34_storage)"
      },
      {
        "astId": 334,
        "contract": "contracts/busd/StrategyWombexUsdc.sol:StrategyWombexUsdc",
        "label": "__gap",
        "offset": 0,
        "slot": "102",
        "type": "t_array(t_uint256)49_storage"
      },
      {
        "astId": 786,
        "contract": "contracts/busd/StrategyWombexUsdc.sol:StrategyWombexUsdc",
        "label": "__gap",
        "offset": 0,
        "slot": "151",
        "type": "t_array(t_uint256)50_storage"
      },
      {
        "astId": 1101,
        "contract": "contracts/busd/StrategyWombexUsdc.sol:StrategyWombexUsdc",
        "label": "__gap",
        "offset": 0,
        "slot": "201",
        "type": "t_array(t_uint256)50_storage"
      },
      {
        "astId": 11400,
        "contract": "contracts/busd/StrategyWombexUsdc.sol:StrategyWombexUsdc",
        "label": "portfolioManager",
        "offset": 0,
        "slot": "251",
        "type": "t_address"
      },
      {
        "astId": 11749,
        "contract": "contracts/busd/StrategyWombexUsdc.sol:StrategyWombexUsdc",
        "label": "__gap",
        "offset": 0,
        "slot": "252",
        "type": "t_array(t_uint256)49_storage"
      },
      {
        "astId": 27212,
        "contract": "contracts/busd/StrategyWombexUsdc.sol:StrategyWombexUsdc",
        "label": "busd",
        "offset": 0,
        "slot": "301",
        "type": "t_contract(IERC20)3248"
      },
      {
        "astId": 27215,
        "contract": "contracts/busd/StrategyWombexUsdc.sol:StrategyWombexUsdc",
        "label": "usdc",
        "offset": 0,
        "slot": "302",
        "type": "t_contract(IERC20)3248"
      },
      {
        "astId": 27218,
        "contract": "contracts/busd/StrategyWombexUsdc.sol:StrategyWombexUsdc",
        "label": "wom",
        "offset": 0,
        "slot": "303",
        "type": "t_contract(IERC20)3248"
      },
      {
        "astId": 27221,
        "contract": "contracts/busd/StrategyWombexUsdc.sol:StrategyWombexUsdc",
        "label": "wmx",
        "offset": 0,
        "slot": "304",
        "type": "t_contract(IERC20)3248"
      },
      {
        "astId": 27224,
        "contract": "contracts/busd/StrategyWombexUsdc.sol:StrategyWombexUsdc",
        "label": "lpUsdc",
        "offset": 0,
        "slot": "305",
        "type": "t_contract(IAsset)10958"
      },
      {
        "astId": 27227,
        "contract": "contracts/busd/StrategyWombexUsdc.sol:StrategyWombexUsdc",
        "label": "wmxLpUsdc",
        "offset": 0,
        "slot": "306",
        "type": "t_contract(IBaseRewardPool)11215"
      },
      {
        "astId": 27230,
        "contract": "contracts/busd/StrategyWombexUsdc.sol:StrategyWombexUsdc",
        "label": "poolDepositor",
        "offset": 0,
        "slot": "307",
        "type": "t_contract(IPoolDepositor)11238"
      },
      {
        "astId": 27233,
        "contract": "contracts/busd/StrategyWombexUsdc.sol:StrategyWombexUsdc",
        "label": "pool",
        "offset": 0,
        "slot": "308",
        "type": "t_contract(IPool)11368"
      },
      {
        "astId": 27236,
        "contract": "contracts/busd/StrategyWombexUsdc.sol:StrategyWombexUsdc",
        "label": "pancakeRouter",
        "offset": 0,
        "slot": "309",
        "type": "t_contract(IPancakeRouter02)7934"
      },
      {
        "astId": 27239,
        "contract": "contracts/busd/StrategyWombexUsdc.sol:StrategyWombexUsdc",
        "label": "wombatRouter",
        "offset": 0,
        "slot": "310",
        "type": "t_contract(IWombatRouter)10716"
      },
      {
        "astId": 27242,
        "contract": "contracts/busd/StrategyWombexUsdc.sol:StrategyWombexUsdc",
        "label": "oracleBusd",
        "offset": 0,
        "slot": "311",
        "type": "t_contract(IPriceFeed)5681"
      },
      {
        "astId": 27245,
        "contract": "contracts/busd/StrategyWombexUsdc.sol:StrategyWombexUsdc",
        "label": "oracleUsdc",
        "offset": 0,
        "slot": "312",
        "type": "t_contract(IPriceFeed)5681"
      },
      {
        "astId": 27247,
        "contract": "contracts/busd/StrategyWombexUsdc.sol:StrategyWombexUsdc",
        "label": "busdDm",
        "offset": 0,
        "slot": "313",
        "type": "t_uint256"
      },
      {
        "astId": 27249,
        "contract": "contracts/busd/StrategyWombexUsdc.sol:StrategyWombexUsdc",
        "label": "usdcDm",
        "offset": 0,
        "slot": "314",
        "type": "t_uint256"
      },
      {
        "astId": 27251,
        "contract": "contracts/busd/StrategyWombexUsdc.sol:StrategyWombexUsdc",
        "label": "lpUsdcDm",
        "offset": 0,
        "slot": "315",
        "type": "t_uint256"
      }
    ],
    "types": {
      "t_address": {
        "encoding": "inplace",
        "label": "address",
        "numberOfBytes": "20"
      },
      "t_array(t_uint256)49_storage": {
        "base": "t_uint256",
        "encoding": "inplace",
        "label": "uint256[49]",
        "numberOfBytes": "1568"
      },
      "t_array(t_uint256)50_storage": {
        "base": "t_uint256",
        "encoding": "inplace",
        "label": "uint256[50]",
        "numberOfBytes": "1600"
      },
      "t_bool": {
        "encoding": "inplace",
        "label": "bool",
        "numberOfBytes": "1"
      },
      "t_bytes32": {
        "encoding": "inplace",
        "label": "bytes32",
        "numberOfBytes": "32"
      },
      "t_contract(IAsset)10958": {
        "encoding": "inplace",
        "label": "contract IAsset",
        "numberOfBytes": "20"
      },
      "t_contract(IBaseRewardPool)11215": {
        "encoding": "inplace",
        "label": "contract IBaseRewardPool",
        "numberOfBytes": "20"
      },
      "t_contract(IERC20)3248": {
        "encoding": "inplace",
        "label": "contract IERC20",
        "numberOfBytes": "20"
      },
      "t_contract(IPancakeRouter02)7934": {
        "encoding": "inplace",
        "label": "contract IPancakeRouter02",
        "numberOfBytes": "20"
      },
      "t_contract(IPool)11368": {
        "encoding": "inplace",
        "label": "contract IPool",
        "numberOfBytes": "20"
      },
      "t_contract(IPoolDepositor)11238": {
        "encoding": "inplace",
        "label": "contract IPoolDepositor",
        "numberOfBytes": "20"
      },
      "t_contract(IPriceFeed)5681": {
        "encoding": "inplace",
        "label": "contract IPriceFeed",
        "numberOfBytes": "20"
      },
      "t_contract(IWombatRouter)10716": {
        "encoding": "inplace",
        "label": "contract IWombatRouter",
        "numberOfBytes": "20"
      },
      "t_mapping(t_address,t_bool)": {
        "encoding": "mapping",
        "key": "t_address",
        "label": "mapping(address => bool)",
        "numberOfBytes": "32",
        "value": "t_bool"
      },
      "t_mapping(t_bytes32,t_struct(RoleData)34_storage)": {
        "encoding": "mapping",
        "key": "t_bytes32",
        "label": "mapping(bytes32 => struct AccessControlUpgradeable.RoleData)",
        "numberOfBytes": "32",
        "value": "t_struct(RoleData)34_storage"
      },
      "t_struct(RoleData)34_storage": {
        "encoding": "inplace",
        "label": "struct AccessControlUpgradeable.RoleData",
        "members": [
          {
            "astId": 31,
            "contract": "contracts/busd/StrategyWombexUsdc.sol:StrategyWombexUsdc",
            "label": "members",
            "offset": 0,
            "slot": "0",
            "type": "t_mapping(t_address,t_bool)"
          },
          {
            "astId": 33,
            "contract": "contracts/busd/StrategyWombexUsdc.sol:StrategyWombexUsdc",
            "label": "adminRole",
            "offset": 0,
            "slot": "1",
            "type": "t_bytes32"
          }
        ],
        "numberOfBytes": "64"
      },
      "t_uint256": {
        "encoding": "inplace",
        "label": "uint256",
        "numberOfBytes": "32"
      },
      "t_uint8": {
        "encoding": "inplace",
        "label": "uint8",
        "numberOfBytes": "1"
      }
    }
  }
}