{
  "address": "0xd7516e2164BB5dfa47E36A126192Adc660C779c9",
  "abi": [
    {
      "inputs": [],
      "stateMutability": "nonpayable",
      "type": "constructor"
    },
    {
      "anonymous": false,
      "inputs": [
        {
          "indexed": false,
          "internalType": "address",
          "name": "previousAdmin",
          "type": "address"
        },
        {
          "indexed": false,
          "internalType": "address",
          "name": "newAdmin",
          "type": "address"
        }
      ],
      "name": "AdminChanged",
      "type": "event"
    },
    {
      "anonymous": false,
      "inputs": [
        {
          "indexed": false,
          "internalType": "uint256",
          "name": "healthFactor",
          "type": "uint256"
        }
      ],
      "name": "BalanceHealthFactor",
      "type": "event"
    },
    {
      "anonymous": false,
      "inputs": [
        {
          "indexed": true,
          "internalType": "address",
          "name": "beacon",
          "type": "address"
        }
      ],
      "name": "BeaconUpgraded",
      "type": "event"
    },
    {
      "anonymous": false,
      "inputs": [
        {
          "indexed": false,
          "internalType": "uint8",
          "name": "version",
          "type": "uint8"
        }
      ],
      "name": "Initialized",
      "type": "event"
    },
    {
      "anonymous": false,
      "inputs": [
        {
          "indexed": false,
          "internalType": "address",
          "name": "value",
          "type": "address"
        }
      ],
      "name": "PortfolioManagerUpdated",
      "type": "event"
    },
    {
      "anonymous": false,
      "inputs": [
        {
          "indexed": false,
          "internalType": "uint256",
          "name": "amount",
          "type": "uint256"
        }
      ],
      "name": "Reward",
      "type": "event"
    },
    {
      "anonymous": false,
      "inputs": [
        {
          "indexed": true,
          "internalType": "bytes32",
          "name": "role",
          "type": "bytes32"
        },
        {
          "indexed": true,
          "internalType": "bytes32",
          "name": "previousAdminRole",
          "type": "bytes32"
        },
        {
          "indexed": true,
          "internalType": "bytes32",
          "name": "newAdminRole",
          "type": "bytes32"
        }
      ],
      "name": "RoleAdminChanged",
      "type": "event"
    },
    {
      "anonymous": false,
      "inputs": [
        {
          "indexed": true,
          "internalType": "bytes32",
          "name": "role",
          "type": "bytes32"
        },
        {
          "indexed": true,
          "internalType": "address",
          "name": "account",
          "type": "address"
        },
        {
          "indexed": true,
          "internalType": "address",
          "name": "sender",
          "type": "address"
        }
      ],
      "name": "RoleGranted",
      "type": "event"
    },
    {
      "anonymous": false,
      "inputs": [
        {
          "indexed": true,
          "internalType": "bytes32",
          "name": "role",
          "type": "bytes32"
        },
        {
          "indexed": true,
          "internalType": "address",
          "name": "account",
          "type": "address"
        },
        {
          "indexed": true,
          "internalType": "address",
          "name": "sender",
          "type": "address"
        }
      ],
      "name": "RoleRevoked",
      "type": "event"
    },
    {
      "anonymous": false,
      "inputs": [
        {
          "indexed": false,
          "internalType": "uint256",
          "name": "healthFactor",
          "type": "uint256"
        }
      ],
      "name": "SetHealthFactor",
      "type": "event"
    },
    {
      "anonymous": false,
      "inputs": [
        {
          "indexed": false,
          "internalType": "uint256",
          "name": "amount",
          "type": "uint256"
        }
      ],
      "name": "Stake",
      "type": "event"
    },
    {
      "anonymous": false,
      "inputs": [],
      "name": "StrategyUpdatedParams",
      "type": "event"
    },
    {
      "anonymous": false,
      "inputs": [
        {
          "indexed": false,
          "internalType": "uint256",
          "name": "amount",
          "type": "uint256"
        },
        {
          "indexed": false,
          "internalType": "uint256",
          "name": "amountReceived",
          "type": "uint256"
        }
      ],
      "name": "Unstake",
      "type": "event"
    },
    {
      "anonymous": false,
      "inputs": [
        {
          "indexed": true,
          "internalType": "address",
          "name": "implementation",
          "type": "address"
        }
      ],
      "name": "Upgraded",
      "type": "event"
    },
    {
      "inputs": [],
      "name": "DEFAULT_ADMIN_ROLE",
      "outputs": [
        {
          "internalType": "bytes32",
          "name": "",
          "type": "bytes32"
        }
      ],
      "stateMutability": "view",
      "type": "function"
    },
    {
      "inputs": [],
      "name": "PORTFOLIO_MANAGER",
      "outputs": [
        {
          "internalType": "bytes32",
          "name": "",
          "type": "bytes32"
        }
      ],
      "stateMutability": "view",
      "type": "function"
    },
    {
      "inputs": [],
      "name": "UPGRADER_ROLE",
      "outputs": [
        {
          "internalType": "bytes32",
          "name": "",
          "type": "bytes32"
        }
      ],
      "stateMutability": "view",
      "type": "function"
    },
    {
      "inputs": [],
      "name": "asset",
      "outputs": [
        {
          "internalType": "contract IAsset",
          "name": "",
          "type": "address"
        }
      ],
      "stateMutability": "view",
      "type": "function"
    },
    {
      "inputs": [],
      "name": "assetTokenDenominator",
      "outputs": [
        {
          "internalType": "uint256",
          "name": "",
          "type": "uint256"
        }
      ],
      "stateMutability": "view",
      "type": "function"
    },
    {
      "inputs": [],
      "name": "busdToken",
      "outputs": [
        {
          "internalType": "contract IERC20",
          "name": "",
          "type": "address"
        }
      ],
      "stateMutability": "view",
      "type": "function"
    },
    {
      "inputs": [],
      "name": "busdTokenDenominator",
      "outputs": [
        {
          "internalType": "uint256",
          "name": "",
          "type": "uint256"
        }
      ],
      "stateMutability": "view",
      "type": "function"
    },
    {
      "inputs": [
        {
          "internalType": "address",
          "name": "_to",
          "type": "address"
        }
      ],
      "name": "claimRewards",
      "outputs": [
        {
          "internalType": "uint256",
          "name": "",
          "type": "uint256"
        }
      ],
      "stateMutability": "nonpayable",
      "type": "function"
    },
    {
      "inputs": [
        {
          "internalType": "bytes32",
          "name": "role",
          "type": "bytes32"
        }
      ],
      "name": "getRoleAdmin",
      "outputs": [
        {
          "internalType": "bytes32",
          "name": "",
          "type": "bytes32"
        }
      ],
      "stateMutability": "view",
      "type": "function"
    },
    {
      "inputs": [
        {
          "internalType": "bytes32",
          "name": "role",
          "type": "bytes32"
        },
        {
          "internalType": "address",
          "name": "account",
          "type": "address"
        }
      ],
      "name": "grantRole",
      "outputs": [],
      "stateMutability": "nonpayable",
      "type": "function"
    },
    {
      "inputs": [
        {
          "internalType": "bytes32",
          "name": "role",
          "type": "bytes32"
        },
        {
          "internalType": "address",
          "name": "account",
          "type": "address"
        }
      ],
      "name": "hasRole",
      "outputs": [
        {
          "internalType": "bool",
          "name": "",
          "type": "bool"
        }
      ],
      "stateMutability": "view",
      "type": "function"
    },
    {
      "inputs": [],
      "name": "healthFactorBalance",
      "outputs": [],
      "stateMutability": "nonpayable",
      "type": "function"
    },
    {
      "inputs": [],
      "name": "initialize",
      "outputs": [],
      "stateMutability": "nonpayable",
      "type": "function"
    },
    {
      "inputs": [],
      "name": "liquidationValue",
      "outputs": [
        {
          "internalType": "uint256",
          "name": "",
          "type": "uint256"
        }
      ],
      "stateMutability": "view",
      "type": "function"
    },
    {
      "inputs": [],
      "name": "masterWombat",
      "outputs": [
        {
          "internalType": "contract IMasterWombatV2",
          "name": "",
          "type": "address"
        }
      ],
      "stateMutability": "view",
      "type": "function"
    },
    {
      "inputs": [],
      "name": "netAssetValue",
      "outputs": [
        {
          "internalType": "uint256",
          "name": "",
          "type": "uint256"
        }
      ],
      "stateMutability": "view",
      "type": "function"
    },
    {
      "inputs": [],
      "name": "pancakeRouter",
      "outputs": [
        {
          "internalType": "contract IPancakeRouter02",
          "name": "",
          "type": "address"
        }
      ],
      "stateMutability": "view",
      "type": "function"
    },
    {
      "inputs": [],
      "name": "pool",
      "outputs": [
        {
          "internalType": "contract IPool",
          "name": "",
          "type": "address"
        }
      ],
      "stateMutability": "view",
      "type": "function"
    },
    {
      "inputs": [],
      "name": "portfolioManager",
      "outputs": [
        {
          "internalType": "address",
          "name": "",
          "type": "address"
        }
      ],
      "stateMutability": "view",
      "type": "function"
    },
    {
      "inputs": [],
      "name": "proxiableUUID",
      "outputs": [
        {
          "internalType": "bytes32",
          "name": "",
          "type": "bytes32"
        }
      ],
      "stateMutability": "view",
      "type": "function"
    },
    {
      "inputs": [
        {
          "internalType": "bytes32",
          "name": "role",
          "type": "bytes32"
        },
        {
          "internalType": "address",
          "name": "account",
          "type": "address"
        }
      ],
      "name": "renounceRole",
      "outputs": [],
      "stateMutability": "nonpayable",
      "type": "function"
    },
    {
      "inputs": [
        {
          "internalType": "bytes32",
          "name": "role",
          "type": "bytes32"
        },
        {
          "internalType": "address",
          "name": "account",
          "type": "address"
        }
      ],
      "name": "revokeRole",
      "outputs": [],
      "stateMutability": "nonpayable",
      "type": "function"
    },
    {
      "inputs": [],
      "name": "rewardWallet",
      "outputs": [
        {
          "internalType": "address",
          "name": "",
          "type": "address"
        }
      ],
      "stateMutability": "view",
      "type": "function"
    },
    {
      "inputs": [],
      "name": "rewardWalletPercent",
      "outputs": [
        {
          "internalType": "uint256",
          "name": "",
          "type": "uint256"
        }
      ],
      "stateMutability": "view",
      "type": "function"
    },
    {
      "inputs": [
        {
          "internalType": "uint256",
          "name": "healthFactor",
          "type": "uint256"
        }
      ],
      "name": "setHealthFactor",
      "outputs": [],
      "stateMutability": "nonpayable",
      "type": "function"
    },
    {
      "inputs": [
        {
          "components": [
            {
              "internalType": "address",
              "name": "busdToken",
              "type": "address"
            },
            {
              "internalType": "address",
              "name": "usdcToken",
              "type": "address"
            },
            {
              "internalType": "address",
              "name": "womToken",
              "type": "address"
            },
            {
              "internalType": "address",
              "name": "asset",
              "type": "address"
            },
            {
              "internalType": "address",
              "name": "pool",
              "type": "address"
            },
            {
              "internalType": "address",
              "name": "masterWombat",
              "type": "address"
            },
            {
              "internalType": "address",
              "name": "synapseStableSwapPool",
              "type": "address"
            },
            {
              "internalType": "address",
              "name": "pancakeRouter",
              "type": "address"
            },
            {
              "internalType": "address",
              "name": "rewardWallet",
              "type": "address"
            },
            {
              "internalType": "uint256",
              "name": "rewardWalletPercent",
              "type": "uint256"
            }
          ],
          "internalType": "struct StrategyWombatBusdUsdc.StrategyParams",
          "name": "params",
          "type": "tuple"
        }
      ],
      "name": "setParams",
      "outputs": [],
      "stateMutability": "nonpayable",
      "type": "function"
    },
    {
      "inputs": [
        {
          "internalType": "address",
          "name": "_value",
          "type": "address"
        }
      ],
      "name": "setPortfolioManager",
      "outputs": [],
      "stateMutability": "nonpayable",
      "type": "function"
    },
    {
      "inputs": [
        {
          "internalType": "address",
          "name": "_asset",
          "type": "address"
        },
        {
          "internalType": "uint256",
          "name": "_amount",
          "type": "uint256"
        }
      ],
      "name": "stake",
      "outputs": [],
      "stateMutability": "nonpayable",
      "type": "function"
    },
    {
      "inputs": [
        {
          "internalType": "bytes4",
          "name": "interfaceId",
          "type": "bytes4"
        }
      ],
      "name": "supportsInterface",
      "outputs": [
        {
          "internalType": "bool",
          "name": "",
          "type": "bool"
        }
      ],
      "stateMutability": "view",
      "type": "function"
    },
    {
      "inputs": [],
      "name": "synapseStableSwapPool",
      "outputs": [
        {
          "internalType": "contract ISwap",
          "name": "",
          "type": "address"
        }
      ],
      "stateMutability": "view",
      "type": "function"
    },
    {
      "inputs": [
        {
          "internalType": "address",
          "name": "_asset",
          "type": "address"
        },
        {
          "internalType": "uint256",
          "name": "_amount",
          "type": "uint256"
        },
        {
          "internalType": "address",
          "name": "_beneficiary",
          "type": "address"
        },
        {
          "internalType": "bool",
          "name": "_targetIsZero",
          "type": "bool"
        }
      ],
      "name": "unstake",
      "outputs": [
        {
          "internalType": "uint256",
          "name": "",
          "type": "uint256"
        }
      ],
      "stateMutability": "nonpayable",
      "type": "function"
    },
    {
      "inputs": [
        {
          "internalType": "address",
          "name": "newImplementation",
          "type": "address"
        }
      ],
      "name": "upgradeTo",
      "outputs": [],
      "stateMutability": "nonpayable",
      "type": "function"
    },
    {
      "inputs": [
        {
          "internalType": "address",
          "name": "newImplementation",
          "type": "address"
        },
        {
          "internalType": "bytes",
          "name": "data",
          "type": "bytes"
        }
      ],
      "name": "upgradeToAndCall",
      "outputs": [],
      "stateMutability": "payable",
      "type": "function"
    },
    {
      "inputs": [],
      "name": "usdcToken",
      "outputs": [
        {
          "internalType": "contract IERC20",
          "name": "",
          "type": "address"
        }
      ],
      "stateMutability": "view",
      "type": "function"
    },
    {
      "inputs": [],
      "name": "usdcTokenDenominator",
      "outputs": [
        {
          "internalType": "uint256",
          "name": "",
          "type": "uint256"
        }
      ],
      "stateMutability": "view",
      "type": "function"
    },
    {
      "inputs": [],
      "name": "womToken",
      "outputs": [
        {
          "internalType": "contract IERC20",
          "name": "",
          "type": "address"
        }
      ],
      "stateMutability": "view",
      "type": "function"
    }
  ],
  "numDeployments": 1,
  "solcInputHash": "2ae67219e3d0e0dc4f9619096d977a38",
  "bytecode": "0x60a06040523060601b6080523480156200001857600080fd5b50600054610100900460ff16158080156200003a5750600054600160ff909116105b806200006a575062000057306200014460201b620013f91760201c565b1580156200006a575060005460ff166001145b620000d25760405162461bcd60e51b815260206004820152602e60248201527f496e697469616c697a61626c653a20636f6e747261637420697320616c72656160448201526d191e481a5b9a5d1a585b1a5e995960921b606482015260840160405180910390fd5b6000805460ff191660011790558015620000f6576000805461ff0019166101001790555b80156200013d576000805461ff0019169055604051600181527f7f26b83ff96e1f2b6a682f133852f6798a09c465da95921460cefb38474024989060200160405180910390a15b5062000153565b6001600160a01b03163b151590565b60805160601c6143756200018e600039600081816107fc0152818161083c015281816108dc0152818161091c01526109ab01526143756000f3fe60806040526004361061020f5760003560e01c80637d32a69011610118578063c21ebd07116100a0578063de0e70141161006f578063de0e7014146105d7578063ef5cfb8c146105f8578063f6f6b88114610618578063f72c0d8b14610638578063fb75b2c71461066c57600080fd5b8063c21ebd0714610554578063c8fe1c3314610575578063d4a6bfc214610596578063d547741f146105b757600080fd5b80639f709492116100e75780639f709492146104d3578063a217fddf146104ea578063a3673b38146104ff578063a440b21a14610514578063adc9772e1461053457600080fd5b80637d32a6901461045c5780637d5f58021461047c5780638129fc1c1461049e57806391d14854146104b357600080fd5b806336568abe1161019b5780634a96bfa41161016a5780634a96bfa4146103e85780634f1ef286146103ff57806352d1902d14610412578063620b75df146104275780637b73aa4e1461044757600080fd5b806336568abe146103665780633659cfe61461038657806338d52e0f146103a65780633bd61ba8146103c757600080fd5b806316f0115b116101e257806316f0115b146102be578063248a9ca3146102df5780632576e65a1461030f5780632f2ff15d14610324578063311117081461034657600080fd5b806301ffc9a71461021457806306aee9571461024957806306da3f2e1461026e57806311eac85514610285575b600080fd5b34801561022057600080fd5b5061023461022f366004613ca5565b61068d565b60405190151581526020015b60405180910390f35b34801561025557600080fd5b506102606101365481565b604051908152602001610240565b34801561027a57600080fd5b506102606101385481565b34801561029157600080fd5b5061012e546102a6906001600160a01b031681565b6040516001600160a01b039091168152602001610240565b3480156102ca57600080fd5b50610131546102a6906001600160a01b031681565b3480156102eb57600080fd5b506102606102fa366004613c47565b60009081526065602052604090206001015490565b34801561031b57600080fd5b506102606106c4565b34801561033057600080fd5b5061034461033f366004613c79565b6106d5565b005b34801561035257600080fd5b50610344610361366004613c47565b6106ff565b34801561037257600080fd5b50610344610381366004613c79565b610773565b34801561039257600080fd5b506103446103a1366004613abb565b6107f1565b3480156103b257600080fd5b50610130546102a6906001600160a01b031681565b3480156103d357600080fd5b50610132546102a6906001600160a01b031681565b3480156103f457600080fd5b506102606101395481565b61034461040d366004613ad6565b6108d1565b34801561041e57600080fd5b5061026061099e565b34801561043357600080fd5b5060fb546102a6906001600160a01b031681565b34801561045357600080fd5b50610344610a51565b34801561046857600080fd5b50610344610477366004613ccf565b610a87565b34801561048857600080fd5b506102606000805160206142d983398151915281565b3480156104aa57600080fd5b50610344610e6e565b3480156104bf57600080fd5b506102346104ce366004613c79565b610f31565b3480156104df57600080fd5b506102606101375481565b3480156104f657600080fd5b50610260600081565b34801561050b57600080fd5b50610260610f5c565b34801561052057600080fd5b5061034461052f366004613abb565b610f68565b34801561054057600080fd5b5061034461054f366004613b7c565b611097565b34801561056057600080fd5b50610134546102a6906001600160a01b031681565b34801561058157600080fd5b5061012f546102a6906001600160a01b031681565b3480156105a257600080fd5b50610133546102a6906001600160a01b031681565b3480156105c357600080fd5b506103446105d2366004613c79565b611184565b3480156105e357600080fd5b5061012d546102a6906001600160a01b031681565b34801561060457600080fd5b50610260610613366004613abb565b6111a9565b34801561062457600080fd5b50610260610633366004613ba6565b61122e565b34801561064457600080fd5b506102607f189ab7a9244df0848122154315af71fe140f3db0fe014031783b0946b8c9d2e381565b34801561067857600080fd5b50610135546102a6906001600160a01b031681565b60006001600160e01b03198216637965db0b60e01b14806106be57506301ffc9a760e01b6001600160e01b03198316145b92915050565b60006106d06000611408565b905090565b6000828152606560205260409020600101546106f0816117da565b6106fa83836117e4565b505050565b6107176000805160206142d983398151915233610f31565b61073c5760405162461bcd60e51b815260040161073390613f0d565b60405180910390fd5b6040518181527ff00d5f5126966481831a71a9d79a9b3af67c4a1a35637b992c7e465a7e465b71906020015b60405180910390a150565b6001600160a01b03811633146107e35760405162461bcd60e51b815260206004820152602f60248201527f416363657373436f6e74726f6c3a2063616e206f6e6c792072656e6f756e636560448201526e103937b632b9903337b91039b2b63360891b6064820152608401610733565b6107ed828261186a565b5050565b306001600160a01b037f000000000000000000000000000000000000000000000000000000000000000016141561083a5760405162461bcd60e51b815260040161073390613f44565b7f00000000000000000000000000000000000000000000000000000000000000006001600160a01b03166108836000805160206142f9833981519152546001600160a01b031690565b6001600160a01b0316146108a95760405162461bcd60e51b815260040161073390613f90565b6108b2816118d1565b604080516000808252602082019092526108ce918391906118fb565b50565b306001600160a01b037f000000000000000000000000000000000000000000000000000000000000000016141561091a5760405162461bcd60e51b815260040161073390613f44565b7f00000000000000000000000000000000000000000000000000000000000000006001600160a01b03166109636000805160206142f9833981519152546001600160a01b031690565b6001600160a01b0316146109895760405162461bcd60e51b815260040161073390613f90565b610992826118d1565b6107ed828260016118fb565b6000306001600160a01b037f00000000000000000000000000000000000000000000000000000000000000001614610a3e5760405162461bcd60e51b815260206004820152603860248201527f555550535570677261646561626c653a206d757374206e6f742062652063616c60448201527f6c6564207468726f7567682064656c656761746563616c6c00000000000000006064820152608401610733565b506000805160206142f983398151915290565b610a696000805160206142d983398151915233610f31565b610a855760405162461bcd60e51b815260040161073390613f0d565b565b610a92600033610f31565b610ad55760405162461bcd60e51b81526020600482015260146024820152735265737472696374656420746f2061646d696e7360601b6044820152606401610733565b610ae26020820182613abb565b61012d80546001600160a01b0319166001600160a01b0392909216919091179055610b136040820160208301613abb565b61012e80546001600160a01b0319166001600160a01b0392909216919091179055610b446060820160408301613abb565b61012f80546001600160a01b0319166001600160a01b0392909216919091179055610b756080820160608301613abb565b61013080546001600160a01b0319166001600160a01b0392909216919091179055610ba660a0820160808301613abb565b61013180546001600160a01b0319166001600160a01b0392909216919091179055610bd760c0820160a08301613abb565b61013280546001600160a01b0319166001600160a01b0392909216919091179055610c0860e0820160c08301613abb565b61013380546001600160a01b0319166001600160a01b0392909216919091179055610c3a610100820160e08301613abb565b61013480546001600160a01b0319166001600160a01b0392909216919091179055610c6d61012082016101008301613abb565b61013580546001600160a01b0319166001600160a01b039290921691909117905561012081013561013655610ca56020820182613abb565b6001600160a01b031663313ce5676040518163ffffffff1660e01b815260040160206040518083038186803b158015610cdd57600080fd5b505afa158015610cf1573d6000803e3d6000fd5b505050506040513d601f19601f82011682018060405250810190610d159190613da7565b610d2090600a614164565b61013755610d346040820160208301613abb565b6001600160a01b031663313ce5676040518163ffffffff1660e01b815260040160206040518083038186803b158015610d6c57600080fd5b505afa158015610d80573d6000803e3d6000fd5b505050506040513d601f19601f82011682018060405250810190610da49190613da7565b610daf90600a614164565b61013855610dc36080820160608301613abb565b6001600160a01b031663313ce5676040518163ffffffff1660e01b815260040160206040518083038186803b158015610dfb57600080fd5b505afa158015610e0f573d6000803e3d6000fd5b505050506040513d601f19601f82011682018060405250810190610e339190613da7565b610e3e90600a614164565b610139556040517fea5646eb3528e525944447a4a97de700dd472298626e5c0481d1c82c3da86ea590600090a150565b600054610100900460ff1615808015610e8e5750600054600160ff909116105b80610ea85750303b158015610ea8575060005460ff166001145b610ec45760405162461bcd60e51b815260040161073390613fdc565b6000805460ff191660011790558015610ee7576000805461ff0019166101001790555b610eef611a75565b80156108ce576000805461ff0019169055604051600181527f7f26b83ff96e1f2b6a682f133852f6798a09c465da95921460cefb384740249890602001610768565b60009182526065602090815260408084206001600160a01b0393909316845291905290205460ff1690565b60006106d06001611408565b610f73600033610f31565b610fb65760405162461bcd60e51b81526020600482015260146024820152735265737472696374656420746f2061646d696e7360601b6044820152606401610733565b6001600160a01b03811661100c5760405162461bcd60e51b815260206004820152601860248201527f5a65726f2061646472657373206e6f7420616c6c6f77656400000000000000006044820152606401610733565b60fb54611031906000805160206142d9833981519152906001600160a01b0316611184565b6110496000805160206142d9833981519152826106d5565b60fb80546001600160a01b0319166001600160a01b0383169081179091556040519081527ff7b449fcd5cfb7379dcd34cb69428dd9f882033b15be33d83b42d91daa28eeb790602001610768565b6110af6000805160206142d983398151915233610f31565b6110cb5760405162461bcd60e51b815260040161073390613f0d565b6040516370a0823160e01b815230600482015261114d9083906001600160a01b038216906370a082319060240160206040518083038186803b15801561111057600080fd5b505afa158015611124573d6000803e3d6000fd5b505050506040513d601f19601f820116820180604052508101906111489190613c60565b611b33565b6040518181527f227a473b70d2f893cc7659219575c030a63b5743024fe1e0c1a680e708b1525a9060200160405180910390a15050565b60008281526065602052604090206001015461119f816117da565b6106fa838361186a565b60006111c36000805160206142d983398151915233610f31565b6111df5760405162461bcd60e51b815260040161073390613f0d565b60006111ea8361200a565b90508015611226576040518181527f3ac0594a85a20354f9dc74f33728416d19ce00d04a406c108cc2dcf2cecea1349060200160405180910390a15b90505b919050565b60006112486000805160206142d983398151915233610f31565b6112645760405162461bcd60e51b815260040161073390613f0d565b600082156112c55760006112778561200a565b905080156112b3576040518181527f3ac0594a85a20354f9dc74f33728416d19ce00d04a406c108cc2dcf2cecea1349060200160405180910390a15b6112bd878661241a565b915050611334565b6112d08686866128fc565b9050848110156113345760405162461bcd60e51b815260206004820152602960248201527f52657475726e65642076616c7565206c657373207468616e2072657175657374604482015268195908185b5bdd5b9d60ba1b6064820152608401610733565b60405163a9059cbb60e01b81526001600160a01b0387169063a9059cbb906113629087908590600401613ec1565b602060405180830381600087803b15801561137c57600080fd5b505af1158015611390573d6000803e3d6000fd5b505050506040513d601f19601f820116820180604052508101906113b49190613c2a565b5060408051868152602081018390527f9045c2ac9b2026de8075f2701bbdde882cd5e830b3b1ead9a15b22f2b5b93742910160405180910390a190505b949350505050565b6001600160a01b03163b151590565b61012d546040516370a0823160e01b815230600482015260009182916001600160a01b03909116906370a082319060240160206040518083038186803b15801561145157600080fd5b505afa158015611465573d6000803e3d6000fd5b505050506040513d601f19601f820116820180604052508101906114899190613c60565b61012e546040516370a0823160e01b81523060048201529192506000916001600160a01b03909116906370a082319060240160206040518083038186803b1580156114d357600080fd5b505afa1580156114e7573d6000803e3d6000fd5b505050506040513d601f19601f8201168201806040525081019061150b9190613c60565b610132546101305460405163015f253560e71b81526001600160a01b03918216600482015292935060009291169063af929a809060240160206040518083038186803b15801561155a57600080fd5b505afa15801561156e573d6000803e3d6000fd5b505050506040513d601f19601f820116820180604052508101906115929190613c60565b610132546040516393f1a40b60e01b8152600481018390523060248201529192506000916001600160a01b03909116906393f1a40b9060440160806040518083038186803b1580156115e357600080fd5b505afa1580156115f7573d6000803e3d6000fd5b505050506040513d601f19601f8201168201806040525081019061161b9190613ce8565b5091925050506001600160801b038116156117975785156116fb576101315461012e546101395460405163907448ed60e01b81526000936001600160a01b039081169363907448ed93611675939290911691600401613ec1565b604080518083038186803b15801561168c57600080fd5b505afa1580156116a0573d6000803e3d6000fd5b505050506040513d601f19601f820116820180604052508101906116c49190613d83565b50610139549091506116df826001600160801b03851661420f565b6116e991906140ff565b6116f390856140e7565b935050611797565b6101315461012e5460405163907448ed60e01b81526000926001600160a01b039081169263907448ed9261173792909116908690600401613e9f565b604080518083038186803b15801561174e57600080fd5b505afa158015611762573d6000803e3d6000fd5b505050506040513d601f19601f820116820180604052508101906117869190613d83565b50905061179381856140e7565b9350505b82156117d0576101335461012e5461012d546117c3926001600160a01b03908116928116911686612e45565b6117cd90856140e7565b93505b5091949350505050565b6108ce8133612f96565b6117ee8282610f31565b6107ed5760008281526065602090815260408083206001600160a01b03851684529091529020805460ff191660011790556118263390565b6001600160a01b0316816001600160a01b0316837f2f8788117e7eff1d82e926ec794901d17c78024a50270940304540a733656f0d60405160405180910390a45050565b6118748282610f31565b156107ed5760008281526065602090815260408083206001600160a01b0385168085529252808320805460ff1916905551339285917ff6391f5c32d9c69d2a47ea670b442974b53935d1edc7fd64eb21e047a839171b9190a45050565b7f189ab7a9244df0848122154315af71fe140f3db0fe014031783b0946b8c9d2e36107ed816117da565b7f4910fdfa16fed3260ed0e7147f7cc6da11a60208b5b9406d12a635614ffd91435460ff161561192e576106fa83612ffa565b826001600160a01b03166352d1902d6040518163ffffffff1660e01b815260040160206040518083038186803b15801561196757600080fd5b505afa925050508015611997575060408051601f3d908101601f1916820190925261199491810190613c60565b60015b6119fa5760405162461bcd60e51b815260206004820152602e60248201527f45524331393637557067726164653a206e657720696d706c656d656e7461746960448201526d6f6e206973206e6f74205555505360901b6064820152608401610733565b6000805160206142f98339815191528114611a695760405162461bcd60e51b815260206004820152602960248201527f45524331393637557067726164653a20756e737570706f727465642070726f786044820152681a58589b195555525160ba1b6064820152608401610733565b506106fa838383613096565b600054610100900460ff1615808015611a955750600054600160ff909116105b80611aaf5750303b158015611aaf575060005460ff166001145b611acb5760405162461bcd60e51b815260040161073390613fdc565b6000805460ff191660011790558015611aee576000805461ff0019166101001790555b611af66130c1565b611afe6130c1565b611b096000336117e4565b610eef7f189ab7a9244df0848122154315af71fe140f3db0fe014031783b0946b8c9d2e3336117e4565b61012d546001600160a01b03838116911614611b615760405162461bcd60e51b81526004016107339061402a565b6101335461012d5461012e54611b87926001600160a01b0390811692811691168461312c565b5061012e546040516370a0823160e01b81523060048201526000916001600160a01b0316906370a082319060240160206040518083038186803b158015611bcd57600080fd5b505afa158015611be1573d6000803e3d6000fd5b505050506040513d601f19601f82011682018060405250810190611c059190613c60565b6101315461012e546040516361858e2360e01b81529293506000926001600160a01b03928316926361858e2392611c43929116908690600401613ec1565b604080518083038186803b158015611c5a57600080fd5b505afa158015611c6e573d6000803e3d6000fd5b505050506040513d601f19601f82011682018060405250810190611c929190613d83565b5061012e546101315460405163095ea7b360e01b81529293506001600160a01b039182169263095ea7b392611ccd9216908690600401613ec1565b602060405180830381600087803b158015611ce757600080fd5b505af1158015611cfb573d6000803e3d6000fd5b505050506040513d601f19601f82011682018060405250810190611d1f9190613c2a565b506101315461012e546001600160a01b0391821691636281baef911684611d478560016133f0565b6040516001600160e01b031960e086901b1681526001600160a01b03909316600484015260248301919091526044820152306064820152426084820152600060a482015260c401602060405180830381600087803b158015611da857600080fd5b505af1158015611dbc573d6000803e3d6000fd5b505050506040513d601f19601f82011682018060405250810190611de09190613c60565b50610132546101305460405163015f253560e71b81526001600160a01b039182166004820152600092919091169063af929a809060240160206040518083038186803b158015611e2f57600080fd5b505afa158015611e43573d6000803e3d6000fd5b505050506040513d601f19601f82011682018060405250810190611e679190613c60565b610130546040516370a0823160e01b81523060048201529192506000916001600160a01b03909116906370a082319060240160206040518083038186803b158015611eb157600080fd5b505afa158015611ec5573d6000803e3d6000fd5b505050506040513d601f19601f82011682018060405250810190611ee99190613c60565b610130546101325460405163095ea7b360e01b81529293506001600160a01b039182169263095ea7b392611f239216908590600401613ec1565b602060405180830381600087803b158015611f3d57600080fd5b505af1158015611f51573d6000803e3d6000fd5b505050506040513d601f19601f82011682018060405250810190611f759190613c2a565b5061013254604051631c57762b60e31b815260048101849052602481018390526001600160a01b039091169063e2bbb15890604401600060405180830381600087803b158015611fc457600080fd5b505af1158015611fd8573d6000803e3d6000fd5b505050506040513d6000823e601f3d908101601f191682016040526120009190810190613d3c565b5050505050505050565b610132546101305460405163015f253560e71b81526001600160a01b0391821660048201526000928392169063af929a809060240160206040518083038186803b15801561205757600080fd5b505afa15801561206b573d6000803e3d6000fd5b505050506040513d601f19601f8201168201806040525081019061208f9190613c60565b610132546040516393f1a40b60e01b8152600481018390523060248201529192506000916001600160a01b03909116906393f1a40b9060440160806040518083038186803b1580156120e057600080fd5b505afa1580156120f4573d6000803e3d6000fd5b505050506040513d601f19601f820116820180604052508101906121189190613ce8565b5091925050506001600160801b038116156121ba5761013254604051631c57762b60e31b815260048101849052600060248201526001600160a01b039091169063e2bbb15890604401600060405180830381600087803b15801561217b57600080fd5b505af115801561218f573d6000803e3d6000fd5b505050506040513d6000823e601f3d908101601f191682016040526121b79190810190613d3c565b50505b61012f546040516370a0823160e01b815230600482015260009182916001600160a01b03909116906370a082319060240160206040518083038186803b15801561220357600080fd5b505afa158015612217573d6000803e3d6000fd5b505050506040513d601f19601f8201168201806040525081019061223b9190613c60565b905080156122c9576101345461012f5461012d5460009261226d926001600160a01b0391821692908216911685613413565b905080156122c7576101345461012f5461012d546000926122b7926001600160a01b039182169290821691168660646122a788606361420f565b6122b191906140ff565b3061353c565b90506122c381856140e7565b9350505b505b811561241157600061271061013654846122e3919061420f565b6122ed91906140ff565b905060006122fb828561422e565b61012d546101355460405163a9059cbb60e01b81529293506001600160a01b039182169263a9059cbb926123359216908690600401613ec1565b602060405180830381600087803b15801561234f57600080fd5b505af1158015612363573d6000803e3d6000fd5b505050506040513d601f19601f820116820180604052508101906123879190613c2a565b5061012d5460405163a9059cbb60e01b81526001600160a01b039091169063a9059cbb906123bb908b908590600401613ec1565b602060405180830381600087803b1580156123d557600080fd5b505af11580156123e9573d6000803e3d6000fd5b505050506040513d601f19601f8201168201806040525081019061240d9190613c2a565b5050505b50949350505050565b61012d546000906001600160a01b0384811691161461244b5760405162461bcd60e51b81526004016107339061402a565b610132546101305460405163015f253560e71b81526001600160a01b039182166004820152600092919091169063af929a809060240160206040518083038186803b15801561249957600080fd5b505afa1580156124ad573d6000803e3d6000fd5b505050506040513d601f19601f820116820180604052508101906124d19190613c60565b610132546040516393f1a40b60e01b8152600481018390523060248201529192506000916001600160a01b03909116906393f1a40b9060440160806040518083038186803b15801561252257600080fd5b505afa158015612536573d6000803e3d6000fd5b505050506040513d601f19601f8201168201806040525081019061255a9190613ce8565b505061013254604051630441a3e760e41b8152600481018690526001600160801b03841660248201529293506001600160a01b03169163441a3e709150604401600060405180830381600087803b1580156125b457600080fd5b505af11580156125c8573d6000803e3d6000fd5b505050506040513d6000823e601f3d908101601f191682016040526125f09190810190613d3c565b50506101315461012e5460405163907448ed60e01b81526000926001600160a01b039081169263907448ed9261262e92909116908690600401613e9f565b604080518083038186803b15801561264557600080fd5b505afa158015612659573d6000803e3d6000fd5b505050506040513d601f19601f8201168201806040525081019061267d9190613d83565b50610130546101315460405163095ea7b360e01b81529293506001600160a01b039182169263095ea7b3926126b89216908690600401613e9f565b602060405180830381600087803b1580156126d257600080fd5b505af11580156126e6573d6000803e3d6000fd5b505050506040513d601f19601f8201168201806040525081019061270a9190613c2a565b506101315461012e546001600160a01b03918216916309a5fca39116846127328560016133f0565b6040516001600160e01b031960e086901b1681526001600160a01b0390931660048401526001600160801b039091166024830152604482015230606482015242608482015260a401602060405180830381600087803b15801561279457600080fd5b505af11580156127a8573d6000803e3d6000fd5b505050506040513d601f19601f820116820180604052508101906127cc9190613c60565b5061012e546040516370a0823160e01b81523060048201526000916001600160a01b0316906370a082319060240160206040518083038186803b15801561281257600080fd5b505afa158015612826573d6000803e3d6000fd5b505050506040513d601f19601f8201168201806040525081019061284a9190613c60565b6101335461012e5461012d54929350612874926001600160a01b039283169291821691168461312c565b5061012d546040516370a0823160e01b81523060048201526001600160a01b03909116906370a082319060240160206040518083038186803b1580156128b957600080fd5b505afa1580156128cd573d6000803e3d6000fd5b505050506040513d601f19601f820116820180604052508101906128f19190613c60565b979650505050505050565b61012d546000906001600160a01b0385811691161461292d5760405162461bcd60e51b81526004016107339061402a565b6101335461012e5461012d54600092612957926001600160a01b0391821692908216911687612e45565b9050600081612966868061420f565b61297091906140ff565b6101315461012e546101395460405163907448ed60e01b81529394506000936001600160a01b039384169363907448ed936129b093911691600401613ec1565b604080518083038186803b1580156129c757600080fd5b505afa1580156129db573d6000803e3d6000fd5b505050506040513d601f19601f820116820180604052508101906129ff9190613d83565b50905060008161013954612a148560016136ef565b612a1e919061420f565b612a2891906140ff565b610132546101305460405163015f253560e71b81526001600160a01b03918216600482015292935060009291169063af929a809060240160206040518083038186803b158015612a7757600080fd5b505afa158015612a8b573d6000803e3d6000fd5b505050506040513d601f19601f82011682018060405250810190612aaf9190613c60565b610132546040516393f1a40b60e01b8152600481018390523060248201529192506000916001600160a01b03909116906393f1a40b9060440160806040518083038186803b158015612b0057600080fd5b505afa158015612b14573d6000803e3d6000fd5b505050506040513d601f19601f82011682018060405250810190612b389190613ce8565b5050509050806001600160801b0316831115612b5b57806001600160801b031692505b61013254604051630441a3e760e41b815260048101849052602481018590526001600160a01b039091169063441a3e7090604401600060405180830381600087803b158015612ba957600080fd5b505af1158015612bbd573d6000803e3d6000fd5b505050506040513d6000823e601f3d908101601f19168201604052612be59190810190613d3c565b5050610130546101315460405163095ea7b360e01b81526001600160a01b039283169263095ea7b392612c1f929116908790600401613ec1565b602060405180830381600087803b158015612c3957600080fd5b505af1158015612c4d573d6000803e3d6000fd5b505050506040513d601f19601f82011682018060405250810190612c719190613c2a565b506101315461012e546040516309a5fca360e01b81526001600160a01b03918216600482015260248101869052604481018890523060648201524260848201529116906309a5fca39060a401602060405180830381600087803b158015612cd757600080fd5b505af1158015612ceb573d6000803e3d6000fd5b505050506040513d601f19601f82011682018060405250810190612d0f9190613c60565b5061012e546040516370a0823160e01b81523060048201526000916001600160a01b0316906370a082319060240160206040518083038186803b158015612d5557600080fd5b505afa158015612d69573d6000803e3d6000fd5b505050506040513d601f19601f82011682018060405250810190612d8d9190613c60565b6101335461012e5461012d54929350612db7926001600160a01b039283169291821691168461312c565b5061012d546040516370a0823160e01b81523060048201526001600160a01b03909116906370a082319060240160206040518083038186803b158015612dfc57600080fd5b505afa158015612e10573d6000803e3d6000fd5b505050506040513d601f19601f82011682018060405250810190612e349190613c60565b9750505050505050505b9392505050565b6040516319b02f4960e21b81526001600160a01b03848116600483015260009182918716906366c0bd249060240160206040518083038186803b158015612e8b57600080fd5b505afa158015612e9f573d6000803e3d6000fd5b505050506040513d601f19601f82011682018060405250810190612ec39190613da7565b6040516319b02f4960e21b81526001600160a01b0386811660048301529192506000918816906366c0bd249060240160206040518083038186803b158015612f0a57600080fd5b505afa158015612f1e573d6000803e3d6000fd5b505050506040513d601f19601f82011682018060405250810190612f429190613da7565b60405163a95b089f60e01b815260ff808516600483015282166024820152604481018690529091506001600160a01b0388169063a95b089f9060640160206040518083038186803b1580156128b957600080fd5b612fa08282610f31565b6107ed57612fb8816001600160a01b031660146136fe565b612fc38360206136fe565b604051602001612fd4929190613e2a565b60408051601f198184030181529082905262461bcd60e51b825261073391600401613eda565b6001600160a01b0381163b6130675760405162461bcd60e51b815260206004820152602d60248201527f455243313936373a206e657720696d706c656d656e746174696f6e206973206e60448201526c1bdd08184818dbdb9d1c9858dd609a1b6064820152608401610733565b6000805160206142f983398151915280546001600160a01b0319166001600160a01b0392909216919091179055565b61309f8361389a565b6000825111806130ac5750805b156106fa576130bb83836138da565b50505050565b600054610100900460ff16610a855760405162461bcd60e51b815260206004820152602b60248201527f496e697469616c697a61626c653a20636f6e7472616374206973206e6f74206960448201526a6e697469616c697a696e6760a81b6064820152608401610733565b6040516319b02f4960e21b81526001600160a01b03848116600483015260009182918716906366c0bd249060240160206040518083038186803b15801561317257600080fd5b505afa158015613186573d6000803e3d6000fd5b505050506040513d601f19601f820116820180604052508101906131aa9190613da7565b6040516319b02f4960e21b81526001600160a01b0386811660048301529192506000918816906366c0bd249060240160206040518083038186803b1580156131f157600080fd5b505afa158015613205573d6000803e3d6000fd5b505050506040513d601f19601f820116820180604052508101906132299190613da7565b60405163a95b089f60e01b815260ff808516600483015282166024820152604481018690529091506000906001600160a01b0389169063a95b089f9060640160206040518083038186803b15801561328057600080fd5b505afa158015613294573d6000803e3d6000fd5b505050506040513d601f19601f820116820180604052508101906132b89190613c60565b9050806132cb57600093505050506113f1565b60405163095ea7b360e01b81526001600160a01b0388169063095ea7b3906132f9908b908990600401613ec1565b602060405180830381600087803b15801561331357600080fd5b505af1158015613327573d6000803e3d6000fd5b505050506040513d601f19601f8201168201806040525081019061334b9190613c2a565b506040516348b4aac360e11b815260ff80851660048301528316602482015260448101869052606481018290524260848201526001600160a01b0389169063916955869060a401602060405180830381600087803b1580156133ac57600080fd5b505af11580156133c0573d6000803e3d6000fd5b505050506040513d601f19601f820116820180604052508101906133e49190613c60565b98975050505050505050565b60006127106133ff838261422e565b613409908561420f565b612e3e91906140ff565b60408051600280825260608201835260009283929190602083019080368337019050509050848160008151811061344c5761344c61429e565b60200260200101906001600160a01b031690816001600160a01b03168152505083816001815181106134805761348061429e565b6001600160a01b03928316602091820292909201015260405163d06ca61f60e01b815260009188169063d06ca61f906134bf9087908690600401614061565b60006040518083038186803b1580156134d757600080fd5b505afa1580156134eb573d6000803e3d6000fd5b505050506040513d6000823e601f3d908101601f191682016040526135139190810190613bf5565b9050806001815181106135285761352861429e565b602002602001015192505050949350505050565b60405163095ea7b360e01b81526000906001600160a01b0387169063095ea7b39061356d908a908890600401613ec1565b602060405180830381600087803b15801561358757600080fd5b505af115801561359b573d6000803e3d6000fd5b505050506040513d601f19601f820116820180604052508101906135bf9190613c2a565b5060408051600280825260608201835260009260208301908036833701905050905086816000815181106135f5576135f561429e565b60200260200101906001600160a01b031690816001600160a01b03168152505085816001815181106136295761362961429e565b6001600160a01b0392831660209182029290920101526040516338ed173960e01b81526000918a16906338ed17399061366e908990899087908a90429060040161407a565b600060405180830381600087803b15801561368857600080fd5b505af115801561369c573d6000803e3d6000fd5b505050506040513d6000823e601f3d908101601f191682016040526136c49190810190613bf5565b9050806001815181106136d9576136d961429e565b6020026020010151925050509695505050505050565b60006127106133ff83826140e7565b6060600061370d83600261420f565b6137189060026140e7565b67ffffffffffffffff811115613730576137306142b4565b6040519080825280601f01601f19166020018201604052801561375a576020820181803683370190505b509050600360fc1b816000815181106137755761377561429e565b60200101906001600160f81b031916908160001a905350600f60fb1b816001815181106137a4576137a461429e565b60200101906001600160f81b031916908160001a90535060006137c884600261420f565b6137d39060016140e7565b90505b600181111561384b576f181899199a1a9b1b9c1cb0b131b232b360811b85600f16601081106138075761380761429e565b1a60f81b82828151811061381d5761381d61429e565b60200101906001600160f81b031916908160001a90535060049490941c9361384481614271565b90506137d6565b508315612e3e5760405162461bcd60e51b815260206004820181905260248201527f537472696e67733a20686578206c656e67746820696e73756666696369656e746044820152606401610733565b6138a381612ffa565b6040516001600160a01b038216907fbc7cd75a20ee27fd9adebab32041f755214dbc6bffa90cc0225b39da2e5c2d3b90600090a250565b60606001600160a01b0383163b6139425760405162461bcd60e51b815260206004820152602660248201527f416464726573733a2064656c65676174652063616c6c20746f206e6f6e2d636f6044820152651b9d1c9858dd60d21b6064820152608401610733565b600080846001600160a01b03168460405161395d9190613e0e565b600060405180830381855af49150503d8060008114613998576040519150601f19603f3d011682016040523d82523d6000602084013e61399d565b606091505b50915091506139c58282604051806060016040528060278152602001614319602791396139ce565b95945050505050565b606083156139dd575081612e3e565b8251156139ed5782518084602001fd5b8160405162461bcd60e51b81526004016107339190613eda565b80356001600160a01b038116811461122957600080fd5b600082601f830112613a2f57600080fd5b8151602067ffffffffffffffff821115613a4b57613a4b6142b4565b8160051b613a5a8282016140b6565b838152828101908684018388018501891015613a7557600080fd5b600093505b85841015613a98578051835260019390930192918401918401613a7a565b50979650505050505050565b80516001600160801b038116811461122957600080fd5b600060208284031215613acd57600080fd5b612e3e82613a07565b60008060408385031215613ae957600080fd5b613af283613a07565b915060208084013567ffffffffffffffff80821115613b1057600080fd5b818601915086601f830112613b2457600080fd5b813581811115613b3657613b366142b4565b613b48601f8201601f191685016140b6565b91508082528784828501011115613b5e57600080fd5b80848401858401376000848284010152508093505050509250929050565b60008060408385031215613b8f57600080fd5b613b9883613a07565b946020939093013593505050565b60008060008060808587031215613bbc57600080fd5b613bc585613a07565b935060208501359250613bda60408601613a07565b91506060850135613bea816142ca565b939692955090935050565b600060208284031215613c0757600080fd5b815167ffffffffffffffff811115613c1e57600080fd5b6113f184828501613a1e565b600060208284031215613c3c57600080fd5b8151612e3e816142ca565b600060208284031215613c5957600080fd5b5035919050565b600060208284031215613c7257600080fd5b5051919050565b60008060408385031215613c8c57600080fd5b82359150613c9c60208401613a07565b90509250929050565b600060208284031215613cb757600080fd5b81356001600160e01b031981168114612e3e57600080fd5b60006101408284031215613ce257600080fd5b50919050565b60008060008060808587031215613cfe57600080fd5b613d0785613aa4565b9350613d1560208601613aa4565b9250613d2360408601613aa4565b9150613d3160608601613aa4565b905092959194509250565b60008060408385031215613d4f57600080fd5b82519150602083015167ffffffffffffffff811115613d6d57600080fd5b613d7985828601613a1e565b9150509250929050565b60008060408385031215613d9657600080fd5b505080516020909101519092909150565b600060208284031215613db957600080fd5b815160ff81168114612e3e57600080fd5b600081518084526020808501945080840160005b83811015613e035781516001600160a01b031687529582019590820190600101613dde565b509495945050505050565b60008251613e20818460208701614245565b9190910192915050565b7f416363657373436f6e74726f6c3a206163636f756e7420000000000000000000815260008351613e62816017850160208801614245565b7001034b99036b4b9b9b4b733903937b6329607d1b6017918401918201528351613e93816028840160208801614245565b01602801949350505050565b6001600160a01b039290921682526001600160801b0316602082015260400190565b6001600160a01b03929092168252602082015260400190565b6020815260008251806020840152613ef9816040850160208701614245565b601f01601f19169190910160400192915050565b6020808252601f908201527f5265737472696374656420746f20504f5254464f4c494f5f4d414e4147455200604082015260600190565b6020808252602c908201527f46756e6374696f6e206d7573742062652063616c6c6564207468726f7567682060408201526b19195b1959d85d1958d85b1b60a21b606082015260800190565b6020808252602c908201527f46756e6374696f6e206d7573742062652063616c6c6564207468726f7567682060408201526b6163746976652070726f787960a01b606082015260800190565b6020808252602e908201527f496e697469616c697a61626c653a20636f6e747261637420697320616c72656160408201526d191e481a5b9a5d1a585b1a5e995960921b606082015260800190565b60208082526019908201527f536f6d6520746f6b656e206e6f7420636f6d70617469626c6500000000000000604082015260600190565b8281526040602082015260006113f16040830184613dca565b85815284602082015260a06040820152600061409960a0830186613dca565b6001600160a01b0394909416606083015250608001529392505050565b604051601f8201601f1916810167ffffffffffffffff811182821017156140df576140df6142b4565b604052919050565b600082198211156140fa576140fa614288565b500190565b60008261411c57634e487b7160e01b600052601260045260246000fd5b500490565b600181815b8085111561415c57816000190482111561414257614142614288565b8085161561414f57918102915b93841c9390800290614126565b509250929050565b6000612e3e60ff84168360008261417d575060016106be565b8161418a575060006106be565b81600181146141a057600281146141aa576141c6565b60019150506106be565b60ff8411156141bb576141bb614288565b50506001821b6106be565b5060208310610133831016604e8410600b84101617156141e9575081810a6106be565b6141f38383614121565b806000190482111561420757614207614288565b029392505050565b600081600019048311821515161561422957614229614288565b500290565b60008282101561424057614240614288565b500390565b60005b83811015614260578181015183820152602001614248565b838111156130bb5750506000910152565b60008161428057614280614288565b506000190190565b634e487b7160e01b600052601160045260246000fd5b634e487b7160e01b600052603260045260246000fd5b634e487b7160e01b600052604160045260246000fd5b80151581146108ce57600080fdfe90c2aa7471c04182221f68e80c07ab1e5946e4c63f8693e14ca40385d529f051360894a13ba1a3210667c828492db98dca3e2076cc3735a920a3ca505d382bbc416464726573733a206c6f772d6c6576656c2064656c65676174652063616c6c206661696c6564a264697066735822122048063291c8eccfddcd89266836a5a8941cb69747777e558d5ffe42ffa0a6688964736f6c63430008060033",
  "devdoc": {
    "kind": "dev",
    "methods": {
      "constructor": {
        "custom:oz-upgrades-unsafe-allow": "constructor"
      },
      "getRoleAdmin(bytes32)": {
        "details": "Returns the admin role that controls `role`. See {grantRole} and {revokeRole}. To change a role's admin, use {_setRoleAdmin}."
      },
      "grantRole(bytes32,address)": {
        "details": "Grants `role` to `account`. If `account` had not been already granted `role`, emits a {RoleGranted} event. Requirements: - the caller must have ``role``'s admin role. May emit a {RoleGranted} event."
      },
      "hasRole(bytes32,address)": {
        "details": "Returns `true` if `account` has been granted `role`."
      },
      "proxiableUUID()": {
        "details": "Implementation of the ERC1822 {proxiableUUID} function. This returns the storage slot used by the implementation. It is used to validate that the this implementation remains valid after an upgrade. IMPORTANT: A proxy pointing at a proxiable contract should not be considered proxiable itself, because this risks bricking a proxy that upgrades to it, by delegating to itself until out of gas. Thus it is critical that this function revert if invoked through a proxy. This is guaranteed by the `notDelegated` modifier."
      },
      "renounceRole(bytes32,address)": {
        "details": "Revokes `role` from the calling account. Roles are often managed via {grantRole} and {revokeRole}: this function's purpose is to provide a mechanism for accounts to lose their privileges if they are compromised (such as when a trusted device is misplaced). If the calling account had been revoked `role`, emits a {RoleRevoked} event. Requirements: - the caller must be `account`. May emit a {RoleRevoked} event."
      },
      "revokeRole(bytes32,address)": {
        "details": "Revokes `role` from `account`. If `account` had been granted `role`, emits a {RoleRevoked} event. Requirements: - the caller must have ``role``'s admin role. May emit a {RoleRevoked} event."
      },
      "supportsInterface(bytes4)": {
        "details": "See {IERC165-supportsInterface}."
      },
      "upgradeTo(address)": {
        "details": "Upgrade the implementation of the proxy to `newImplementation`. Calls {_authorizeUpgrade}. Emits an {Upgraded} event."
      },
      "upgradeToAndCall(address,bytes)": {
        "details": "Upgrade the implementation of the proxy to `newImplementation`, and subsequently execute the function call encoded in `data`. Calls {_authorizeUpgrade}. Emits an {Upgraded} event."
      }
    },
    "version": 1
  },
  "userdoc": {
    "kind": "user",
    "methods": {},
    "version": 1
  },
  "storageLayout": {
    "storage": [
      {
        "astId": 808,
        "contract": "contracts/busd/StrategyWombatBusdUsdc.sol:StrategyWombatBusdUsdc",
        "label": "_initialized",
        "offset": 0,
        "slot": "0",
        "type": "t_uint8"
      },
      {
        "astId": 811,
        "contract": "contracts/busd/StrategyWombatBusdUsdc.sol:StrategyWombatBusdUsdc",
        "label": "_initializing",
        "offset": 1,
        "slot": "0",
        "type": "t_bool"
      },
      {
        "astId": 1372,
        "contract": "contracts/busd/StrategyWombatBusdUsdc.sol:StrategyWombatBusdUsdc",
        "label": "__gap",
        "offset": 0,
        "slot": "1",
        "type": "t_array(t_uint256)50_storage"
      },
      {
        "astId": 1702,
        "contract": "contracts/busd/StrategyWombatBusdUsdc.sol:StrategyWombatBusdUsdc",
        "label": "__gap",
        "offset": 0,
        "slot": "51",
        "type": "t_array(t_uint256)50_storage"
      },
      {
        "astId": 39,
        "contract": "contracts/busd/StrategyWombatBusdUsdc.sol:StrategyWombatBusdUsdc",
        "label": "_roles",
        "offset": 0,
        "slot": "101",
        "type": "t_mapping(t_bytes32,t_struct(RoleData)34_storage)"
      },
      {
        "astId": 338,
        "contract": "contracts/busd/StrategyWombatBusdUsdc.sol:StrategyWombatBusdUsdc",
        "label": "__gap",
        "offset": 0,
        "slot": "102",
        "type": "t_array(t_uint256)49_storage"
      },
      {
        "astId": 790,
        "contract": "contracts/busd/StrategyWombatBusdUsdc.sol:StrategyWombatBusdUsdc",
        "label": "__gap",
        "offset": 0,
        "slot": "151",
        "type": "t_array(t_uint256)50_storage"
      },
      {
        "astId": 1087,
        "contract": "contracts/busd/StrategyWombatBusdUsdc.sol:StrategyWombatBusdUsdc",
        "label": "__gap",
        "offset": 0,
        "slot": "201",
        "type": "t_array(t_uint256)50_storage"
      },
      {
        "astId": 9319,
        "contract": "contracts/busd/StrategyWombatBusdUsdc.sol:StrategyWombatBusdUsdc",
        "label": "portfolioManager",
        "offset": 0,
        "slot": "251",
        "type": "t_address"
      },
      {
        "astId": 9655,
        "contract": "contracts/busd/StrategyWombatBusdUsdc.sol:StrategyWombatBusdUsdc",
        "label": "__gap",
        "offset": 0,
        "slot": "252",
        "type": "t_array(t_uint256)49_storage"
      },
      {
        "astId": 23692,
        "contract": "contracts/busd/StrategyWombatBusdUsdc.sol:StrategyWombatBusdUsdc",
        "label": "busdToken",
        "offset": 0,
        "slot": "301",
        "type": "t_contract(IERC20)2379"
      },
      {
        "astId": 23695,
        "contract": "contracts/busd/StrategyWombatBusdUsdc.sol:StrategyWombatBusdUsdc",
        "label": "usdcToken",
        "offset": 0,
        "slot": "302",
        "type": "t_contract(IERC20)2379"
      },
      {
        "astId": 23698,
        "contract": "contracts/busd/StrategyWombatBusdUsdc.sol:StrategyWombatBusdUsdc",
        "label": "womToken",
        "offset": 0,
        "slot": "303",
        "type": "t_contract(IERC20)2379"
      },
      {
        "astId": 23701,
        "contract": "contracts/busd/StrategyWombatBusdUsdc.sol:StrategyWombatBusdUsdc",
        "label": "asset",
        "offset": 0,
        "slot": "304",
        "type": "t_contract(IAsset)9139"
      },
      {
        "astId": 23704,
        "contract": "contracts/busd/StrategyWombatBusdUsdc.sol:StrategyWombatBusdUsdc",
        "label": "pool",
        "offset": 0,
        "slot": "305",
        "type": "t_contract(IPool)9055"
      },
      {
        "astId": 23707,
        "contract": "contracts/busd/StrategyWombatBusdUsdc.sol:StrategyWombatBusdUsdc",
        "label": "masterWombat",
        "offset": 0,
        "slot": "306",
        "type": "t_contract(IMasterWombatV2)9272"
      },
      {
        "astId": 23710,
        "contract": "contracts/busd/StrategyWombatBusdUsdc.sol:StrategyWombatBusdUsdc",
        "label": "synapseStableSwapPool",
        "offset": 0,
        "slot": "307",
        "type": "t_contract(ISwap)6961"
      },
      {
        "astId": 23713,
        "contract": "contracts/busd/StrategyWombatBusdUsdc.sol:StrategyWombatBusdUsdc",
        "label": "pancakeRouter",
        "offset": 0,
        "slot": "308",
        "type": "t_contract(IPancakeRouter02)6629"
      },
      {
        "astId": 23715,
        "contract": "contracts/busd/StrategyWombatBusdUsdc.sol:StrategyWombatBusdUsdc",
        "label": "rewardWallet",
        "offset": 0,
        "slot": "309",
        "type": "t_address"
      },
      {
        "astId": 23717,
        "contract": "contracts/busd/StrategyWombatBusdUsdc.sol:StrategyWombatBusdUsdc",
        "label": "rewardWalletPercent",
        "offset": 0,
        "slot": "310",
        "type": "t_uint256"
      },
      {
        "astId": 23719,
        "contract": "contracts/busd/StrategyWombatBusdUsdc.sol:StrategyWombatBusdUsdc",
        "label": "busdTokenDenominator",
        "offset": 0,
        "slot": "311",
        "type": "t_uint256"
      },
      {
        "astId": 23721,
        "contract": "contracts/busd/StrategyWombatBusdUsdc.sol:StrategyWombatBusdUsdc",
        "label": "usdcTokenDenominator",
        "offset": 0,
        "slot": "312",
        "type": "t_uint256"
      },
      {
        "astId": 23723,
        "contract": "contracts/busd/StrategyWombatBusdUsdc.sol:StrategyWombatBusdUsdc",
        "label": "assetTokenDenominator",
        "offset": 0,
        "slot": "313",
        "type": "t_uint256"
      }
    ],
    "types": {
      "t_address": {
        "encoding": "inplace",
        "label": "address",
        "numberOfBytes": "20"
      },
      "t_array(t_uint256)49_storage": {
        "base": "t_uint256",
        "encoding": "inplace",
        "label": "uint256[49]",
        "numberOfBytes": "1568"
      },
      "t_array(t_uint256)50_storage": {
        "base": "t_uint256",
        "encoding": "inplace",
        "label": "uint256[50]",
        "numberOfBytes": "1600"
      },
      "t_bool": {
        "encoding": "inplace",
        "label": "bool",
        "numberOfBytes": "1"
      },
      "t_bytes32": {
        "encoding": "inplace",
        "label": "bytes32",
        "numberOfBytes": "32"
      },
      "t_contract(IAsset)9139": {
        "encoding": "inplace",
        "label": "contract IAsset",
        "numberOfBytes": "20"
      },
      "t_contract(IERC20)2379": {
        "encoding": "inplace",
        "label": "contract IERC20",
        "numberOfBytes": "20"
      },
      "t_contract(IMasterWombatV2)9272": {
        "encoding": "inplace",
        "label": "contract IMasterWombatV2",
        "numberOfBytes": "20"
      },
      "t_contract(IPancakeRouter02)6629": {
        "encoding": "inplace",
        "label": "contract IPancakeRouter02",
        "numberOfBytes": "20"
      },
      "t_contract(IPool)9055": {
        "encoding": "inplace",
        "label": "contract IPool",
        "numberOfBytes": "20"
      },
      "t_contract(ISwap)6961": {
        "encoding": "inplace",
        "label": "contract ISwap",
        "numberOfBytes": "20"
      },
      "t_mapping(t_address,t_bool)": {
        "encoding": "mapping",
        "key": "t_address",
        "label": "mapping(address => bool)",
        "numberOfBytes": "32",
        "value": "t_bool"
      },
      "t_mapping(t_bytes32,t_struct(RoleData)34_storage)": {
        "encoding": "mapping",
        "key": "t_bytes32",
        "label": "mapping(bytes32 => struct AccessControlUpgradeable.RoleData)",
        "numberOfBytes": "32",
        "value": "t_struct(RoleData)34_storage"
      },
      "t_struct(RoleData)34_storage": {
        "encoding": "inplace",
        "label": "struct AccessControlUpgradeable.RoleData",
        "members": [
          {
            "astId": 31,
            "contract": "contracts/busd/StrategyWombatBusdUsdc.sol:StrategyWombatBusdUsdc",
            "label": "members",
            "offset": 0,
            "slot": "0",
            "type": "t_mapping(t_address,t_bool)"
          },
          {
            "astId": 33,
            "contract": "contracts/busd/StrategyWombatBusdUsdc.sol:StrategyWombatBusdUsdc",
            "label": "adminRole",
            "offset": 0,
            "slot": "1",
            "type": "t_bytes32"
          }
        ],
        "numberOfBytes": "64"
      },
      "t_uint256": {
        "encoding": "inplace",
        "label": "uint256",
        "numberOfBytes": "32"
      },
      "t_uint8": {
        "encoding": "inplace",
        "label": "uint8",
        "numberOfBytes": "1"
      }
    }
  }
}