{
  "address": "0xFe7f3FEa8972313F859194EE00158798be3ED108",
  "abi": [
    {
      "inputs": [],
      "stateMutability": "nonpayable",
      "type": "constructor"
    },
    {
      "anonymous": false,
      "inputs": [
        {
          "indexed": false,
          "internalType": "address",
          "name": "previousAdmin",
          "type": "address"
        },
        {
          "indexed": false,
          "internalType": "address",
          "name": "newAdmin",
          "type": "address"
        }
      ],
      "name": "AdminChanged",
      "type": "event"
    },
    {
      "anonymous": false,
      "inputs": [
        {
          "indexed": true,
          "internalType": "address",
          "name": "beacon",
          "type": "address"
        }
      ],
      "name": "BeaconUpgraded",
      "type": "event"
    },
    {
      "anonymous": false,
      "inputs": [
        {
          "indexed": false,
          "internalType": "uint8",
          "name": "version",
          "type": "uint8"
        }
      ],
      "name": "Initialized",
      "type": "event"
    },
    {
      "anonymous": false,
      "inputs": [
        {
          "indexed": false,
          "internalType": "address",
          "name": "value",
          "type": "address"
        }
      ],
      "name": "PortfolioManagerUpdated",
      "type": "event"
    },
    {
      "anonymous": false,
      "inputs": [
        {
          "indexed": false,
          "internalType": "uint256",
          "name": "amount",
          "type": "uint256"
        }
      ],
      "name": "Reward",
      "type": "event"
    },
    {
      "anonymous": false,
      "inputs": [
        {
          "indexed": true,
          "internalType": "bytes32",
          "name": "role",
          "type": "bytes32"
        },
        {
          "indexed": true,
          "internalType": "bytes32",
          "name": "previousAdminRole",
          "type": "bytes32"
        },
        {
          "indexed": true,
          "internalType": "bytes32",
          "name": "newAdminRole",
          "type": "bytes32"
        }
      ],
      "name": "RoleAdminChanged",
      "type": "event"
    },
    {
      "anonymous": false,
      "inputs": [
        {
          "indexed": true,
          "internalType": "bytes32",
          "name": "role",
          "type": "bytes32"
        },
        {
          "indexed": true,
          "internalType": "address",
          "name": "account",
          "type": "address"
        },
        {
          "indexed": true,
          "internalType": "address",
          "name": "sender",
          "type": "address"
        }
      ],
      "name": "RoleGranted",
      "type": "event"
    },
    {
      "anonymous": false,
      "inputs": [
        {
          "indexed": true,
          "internalType": "bytes32",
          "name": "role",
          "type": "bytes32"
        },
        {
          "indexed": true,
          "internalType": "address",
          "name": "account",
          "type": "address"
        },
        {
          "indexed": true,
          "internalType": "address",
          "name": "sender",
          "type": "address"
        }
      ],
      "name": "RoleRevoked",
      "type": "event"
    },
    {
      "anonymous": false,
      "inputs": [
        {
          "indexed": false,
          "internalType": "uint256",
          "name": "swapSlippageBP",
          "type": "uint256"
        },
        {
          "indexed": false,
          "internalType": "uint256",
          "name": "navSlippageBP",
          "type": "uint256"
        }
      ],
      "name": "SlippagesUpdated",
      "type": "event"
    },
    {
      "anonymous": false,
      "inputs": [
        {
          "indexed": false,
          "internalType": "uint256",
          "name": "amount",
          "type": "uint256"
        }
      ],
      "name": "Stake",
      "type": "event"
    },
    {
      "anonymous": false,
      "inputs": [],
      "name": "StrategyUpdatedParams",
      "type": "event"
    },
    {
      "anonymous": false,
      "inputs": [
        {
          "indexed": false,
          "internalType": "uint256",
          "name": "amount",
          "type": "uint256"
        },
        {
          "indexed": false,
          "internalType": "uint256",
          "name": "amountReceived",
          "type": "uint256"
        }
      ],
      "name": "Unstake",
      "type": "event"
    },
    {
      "anonymous": false,
      "inputs": [
        {
          "indexed": true,
          "internalType": "address",
          "name": "implementation",
          "type": "address"
        }
      ],
      "name": "Upgraded",
      "type": "event"
    },
    {
      "inputs": [],
      "name": "DEFAULT_ADMIN_ROLE",
      "outputs": [
        {
          "internalType": "bytes32",
          "name": "",
          "type": "bytes32"
        }
      ],
      "stateMutability": "view",
      "type": "function"
    },
    {
      "inputs": [],
      "name": "PORTFOLIO_AGENT_ROLE",
      "outputs": [
        {
          "internalType": "bytes32",
          "name": "",
          "type": "bytes32"
        }
      ],
      "stateMutability": "view",
      "type": "function"
    },
    {
      "inputs": [],
      "name": "PORTFOLIO_MANAGER",
      "outputs": [
        {
          "internalType": "bytes32",
          "name": "",
          "type": "bytes32"
        }
      ],
      "stateMutability": "view",
      "type": "function"
    },
    {
      "inputs": [],
      "name": "busd",
      "outputs": [
        {
          "internalType": "contract IERC20",
          "name": "",
          "type": "address"
        }
      ],
      "stateMutability": "view",
      "type": "function"
    },
    {
      "inputs": [
        {
          "internalType": "address",
          "name": "_to",
          "type": "address"
        }
      ],
      "name": "claimRewards",
      "outputs": [
        {
          "internalType": "uint256",
          "name": "",
          "type": "uint256"
        }
      ],
      "stateMutability": "nonpayable",
      "type": "function"
    },
    {
      "inputs": [
        {
          "internalType": "bytes32",
          "name": "role",
          "type": "bytes32"
        }
      ],
      "name": "getRoleAdmin",
      "outputs": [
        {
          "internalType": "bytes32",
          "name": "",
          "type": "bytes32"
        }
      ],
      "stateMutability": "view",
      "type": "function"
    },
    {
      "inputs": [
        {
          "internalType": "bytes32",
          "name": "role",
          "type": "bytes32"
        },
        {
          "internalType": "address",
          "name": "account",
          "type": "address"
        }
      ],
      "name": "grantRole",
      "outputs": [],
      "stateMutability": "nonpayable",
      "type": "function"
    },
    {
      "inputs": [
        {
          "internalType": "bytes32",
          "name": "role",
          "type": "bytes32"
        },
        {
          "internalType": "address",
          "name": "account",
          "type": "address"
        }
      ],
      "name": "hasRole",
      "outputs": [
        {
          "internalType": "bool",
          "name": "",
          "type": "bool"
        }
      ],
      "stateMutability": "view",
      "type": "function"
    },
    {
      "inputs": [
        {
          "internalType": "uint256",
          "name": "_swapSlippageBP",
          "type": "uint256"
        },
        {
          "internalType": "uint256",
          "name": "_navSlippageBP",
          "type": "uint256"
        }
      ],
      "name": "initSlippages",
      "outputs": [],
      "stateMutability": "nonpayable",
      "type": "function"
    },
    {
      "inputs": [],
      "name": "initialize",
      "outputs": [],
      "stateMutability": "nonpayable",
      "type": "function"
    },
    {
      "inputs": [],
      "name": "liquidationValue",
      "outputs": [
        {
          "internalType": "uint256",
          "name": "",
          "type": "uint256"
        }
      ],
      "stateMutability": "view",
      "type": "function"
    },
    {
      "inputs": [],
      "name": "lpBusd",
      "outputs": [
        {
          "internalType": "contract IAsset",
          "name": "",
          "type": "address"
        }
      ],
      "stateMutability": "view",
      "type": "function"
    },
    {
      "inputs": [],
      "name": "lpBusdDm",
      "outputs": [
        {
          "internalType": "uint256",
          "name": "",
          "type": "uint256"
        }
      ],
      "stateMutability": "view",
      "type": "function"
    },
    {
      "inputs": [],
      "name": "navSlippageBP",
      "outputs": [
        {
          "internalType": "uint256",
          "name": "",
          "type": "uint256"
        }
      ],
      "stateMutability": "view",
      "type": "function"
    },
    {
      "inputs": [],
      "name": "netAssetValue",
      "outputs": [
        {
          "internalType": "uint256",
          "name": "",
          "type": "uint256"
        }
      ],
      "stateMutability": "view",
      "type": "function"
    },
    {
      "inputs": [],
      "name": "pancakeRouter",
      "outputs": [
        {
          "internalType": "contract IPancakeRouter02",
          "name": "",
          "type": "address"
        }
      ],
      "stateMutability": "view",
      "type": "function"
    },
    {
      "inputs": [],
      "name": "pool",
      "outputs": [
        {
          "internalType": "contract IPool",
          "name": "",
          "type": "address"
        }
      ],
      "stateMutability": "view",
      "type": "function"
    },
    {
      "inputs": [],
      "name": "poolDepositor",
      "outputs": [
        {
          "internalType": "contract IPoolDepositor",
          "name": "",
          "type": "address"
        }
      ],
      "stateMutability": "view",
      "type": "function"
    },
    {
      "inputs": [],
      "name": "portfolioManager",
      "outputs": [
        {
          "internalType": "address",
          "name": "",
          "type": "address"
        }
      ],
      "stateMutability": "view",
      "type": "function"
    },
    {
      "inputs": [],
      "name": "proxiableUUID",
      "outputs": [
        {
          "internalType": "bytes32",
          "name": "",
          "type": "bytes32"
        }
      ],
      "stateMutability": "view",
      "type": "function"
    },
    {
      "inputs": [
        {
          "internalType": "bytes32",
          "name": "role",
          "type": "bytes32"
        },
        {
          "internalType": "address",
          "name": "account",
          "type": "address"
        }
      ],
      "name": "renounceRole",
      "outputs": [],
      "stateMutability": "nonpayable",
      "type": "function"
    },
    {
      "inputs": [
        {
          "internalType": "bytes32",
          "name": "role",
          "type": "bytes32"
        },
        {
          "internalType": "address",
          "name": "account",
          "type": "address"
        }
      ],
      "name": "revokeRole",
      "outputs": [],
      "stateMutability": "nonpayable",
      "type": "function"
    },
    {
      "inputs": [
        {
          "components": [
            {
              "internalType": "address",
              "name": "busd",
              "type": "address"
            },
            {
              "internalType": "address",
              "name": "wom",
              "type": "address"
            },
            {
              "internalType": "address",
              "name": "wmx",
              "type": "address"
            },
            {
              "internalType": "address",
              "name": "lpBusd",
              "type": "address"
            },
            {
              "internalType": "address",
              "name": "wmxLpBusd",
              "type": "address"
            },
            {
              "internalType": "address",
              "name": "poolDepositor",
              "type": "address"
            },
            {
              "internalType": "address",
              "name": "pool",
              "type": "address"
            },
            {
              "internalType": "address",
              "name": "pancakeRouter",
              "type": "address"
            }
          ],
          "internalType": "struct StrategyWombexBusd.StrategyParams",
          "name": "params",
          "type": "tuple"
        }
      ],
      "name": "setParams",
      "outputs": [],
      "stateMutability": "nonpayable",
      "type": "function"
    },
    {
      "inputs": [
        {
          "internalType": "address",
          "name": "_value",
          "type": "address"
        }
      ],
      "name": "setPortfolioManager",
      "outputs": [],
      "stateMutability": "nonpayable",
      "type": "function"
    },
    {
      "inputs": [
        {
          "internalType": "uint256",
          "name": "_swapSlippageBP",
          "type": "uint256"
        },
        {
          "internalType": "uint256",
          "name": "_navSlippageBP",
          "type": "uint256"
        }
      ],
      "name": "setSlippages",
      "outputs": [],
      "stateMutability": "nonpayable",
      "type": "function"
    },
    {
      "inputs": [
        {
          "internalType": "address",
          "name": "_asset",
          "type": "address"
        },
        {
          "internalType": "uint256",
          "name": "_amount",
          "type": "uint256"
        }
      ],
      "name": "stake",
      "outputs": [],
      "stateMutability": "nonpayable",
      "type": "function"
    },
    {
      "inputs": [
        {
          "internalType": "bytes4",
          "name": "interfaceId",
          "type": "bytes4"
        }
      ],
      "name": "supportsInterface",
      "outputs": [
        {
          "internalType": "bool",
          "name": "",
          "type": "bool"
        }
      ],
      "stateMutability": "view",
      "type": "function"
    },
    {
      "inputs": [],
      "name": "swapSlippageBP",
      "outputs": [
        {
          "internalType": "uint256",
          "name": "",
          "type": "uint256"
        }
      ],
      "stateMutability": "view",
      "type": "function"
    },
    {
      "inputs": [
        {
          "internalType": "address",
          "name": "_asset",
          "type": "address"
        },
        {
          "internalType": "uint256",
          "name": "_amount",
          "type": "uint256"
        },
        {
          "internalType": "address",
          "name": "_beneficiary",
          "type": "address"
        },
        {
          "internalType": "bool",
          "name": "_targetIsZero",
          "type": "bool"
        }
      ],
      "name": "unstake",
      "outputs": [
        {
          "internalType": "uint256",
          "name": "",
          "type": "uint256"
        }
      ],
      "stateMutability": "nonpayable",
      "type": "function"
    },
    {
      "inputs": [
        {
          "internalType": "address",
          "name": "newImplementation",
          "type": "address"
        }
      ],
      "name": "upgradeTo",
      "outputs": [],
      "stateMutability": "nonpayable",
      "type": "function"
    },
    {
      "inputs": [
        {
          "internalType": "address",
          "name": "newImplementation",
          "type": "address"
        },
        {
          "internalType": "bytes",
          "name": "data",
          "type": "bytes"
        }
      ],
      "name": "upgradeToAndCall",
      "outputs": [],
      "stateMutability": "payable",
      "type": "function"
    },
    {
      "inputs": [],
      "name": "wmx",
      "outputs": [
        {
          "internalType": "contract IERC20",
          "name": "",
          "type": "address"
        }
      ],
      "stateMutability": "view",
      "type": "function"
    },
    {
      "inputs": [],
      "name": "wmxLpBusd",
      "outputs": [
        {
          "internalType": "contract IBaseRewardPool",
          "name": "",
          "type": "address"
        }
      ],
      "stateMutability": "view",
      "type": "function"
    },
    {
      "inputs": [],
      "name": "wom",
      "outputs": [
        {
          "internalType": "contract IERC20",
          "name": "",
          "type": "address"
        }
      ],
      "stateMutability": "view",
      "type": "function"
    }
  ],
  "numDeployments": 3,
  "solcInputHash": "253c9236da089a3eb213c7b6961dc39e",
  "bytecode": "0x60a06040523060601b6080523480156200001857600080fd5b50600054610100900460ff16158080156200003a5750600054600160ff909116105b806200006a575062000057306200014460201b620016411760201c565b1580156200006a575060005460ff166001145b620000d25760405162461bcd60e51b815260206004820152602e60248201527f496e697469616c697a61626c653a20636f6e747261637420697320616c72656160448201526d191e481a5b9a5d1a585b1a5e995960921b606482015260840160405180910390fd5b6000805460ff191660011790558015620000f6576000805461ff0019166101001790555b80156200013d576000805461ff0019169055604051600181527f7f26b83ff96e1f2b6a682f133852f6798a09c465da95921460cefb38474024989060200160405180910390a15b5062000153565b6001600160a01b03163b151590565b60805160601c6135a26200018e600039600081816107a3015281816107e301528181610883015281816108c3015261095201526135a26000f3fe6080604052600436106101f95760003560e01c80636b42c5761161010d578063adc9772e116100a0578063c4e064d11161006f578063c4e064d11461059b578063c5a6222e146105b2578063d547741f146105d3578063ef5cfb8c146105f3578063f6f6b8811461061357600080fd5b8063adc9772e14610523578063bd25c6db14610543578063bf52e08014610564578063c21ebd071461057a57600080fd5b806391d14854116100dc57806391d14854146104ce578063a217fddf146104ee578063a3673b3814610324578063a440b21a1461050357600080fd5b80636b42c576146104565780637d5f5802146104765780638129fc1c1461049857806390136870146104ad57600080fd5b80632f2ff15d116101905780634f1ef2861161015f5780634f1ef286146103ba57806352d1902d146103cd578063561f0773146103e25780635dbd733a14610402578063620b75df1461043657600080fd5b80632f2ff15d1461033957806336568abe146103595780633659cfe6146103795780633ca5b2341461039957600080fd5b806318bc0faa116101cc57806318bc0faa146102b15780631be43d05146102d3578063248a9ca3146102f45780632576e65a1461032457600080fd5b806301ffc9a7146101fe578063083975d414610233578063119cd8791461026c57806316f0115b14610290575b600080fd5b34801561020a57600080fd5b5061021e610219366004612f5e565b610633565b60405190151581526020015b60405180910390f35b34801561023f57600080fd5b5061012f54610254906001600160a01b031681565b6040516001600160a01b03909116815260200161022a565b34801561027857600080fd5b5061028260fd5481565b60405190815260200161022a565b34801561029c57600080fd5b5061013354610254906001600160a01b031681565b3480156102bd57600080fd5b506102d16102cc366004612f9b565b61066a565b005b3480156102df57600080fd5b5061013054610254906001600160a01b031681565b34801561030057600080fd5b5061028261030f366004612f00565b60009081526065602052604090206001015490565b34801561033057600080fd5b506102826106e1565b34801561034557600080fd5b506102d1610354366004612f32565b6106f0565b34801561036557600080fd5b506102d1610374366004612f32565b61071a565b34801561038557600080fd5b506102d1610394366004612cfc565b610798565b3480156103a557600080fd5b5061012d54610254906001600160a01b031681565b6102d16103c8366004612d17565b610878565b3480156103d957600080fd5b50610282610945565b3480156103ee57600080fd5b506102d16103fd366004612f88565b6109f8565b34801561040e57600080fd5b506102827fd67ad422505496469a1adf6cdf9e5ee92ac5d33992843c9ecc4b2f6d6cde913781565b34801561044257600080fd5b5060fb54610254906001600160a01b031681565b34801561046257600080fd5b506102d1610471366004612f9b565b610d78565b34801561048257600080fd5b5061028260008051602061350683398151915281565b3480156104a457600080fd5b506102d1610ea0565b3480156104b957600080fd5b5061013154610254906001600160a01b031681565b3480156104da57600080fd5b5061021e6104e9366004612f32565b610f6a565b3480156104fa57600080fd5b50610282600081565b34801561050f57600080fd5b506102d161051e366004612cfc565b610f95565b34801561052f57600080fd5b506102d161053e366004612dbd565b61109d565b34801561054f57600080fd5b5061013254610254906001600160a01b031681565b34801561057057600080fd5b5061028260fc5481565b34801561058657600080fd5b5061013454610254906001600160a01b031681565b3480156105a757600080fd5b506102826101355481565b3480156105be57600080fd5b5061012e54610254906001600160a01b031681565b3480156105df57600080fd5b506102d16105ee366004612f32565b6112cc565b3480156105ff57600080fd5b5061028261060e366004612cfc565b6112f1565b34801561061f57600080fd5b5061028261062e366004612de7565b611376565b60006001600160e01b03198216637965db0b60e01b148061066457506301ffc9a760e01b6001600160e01b03198316145b92915050565b610675600033610f6a565b61069a5760405162461bcd60e51b815260040161069190613229565b60405180910390fd5b60fc82905560fd81905560408051838152602081018390527fce5a32eeae390ce399fd83b29e4bee51b2b1a5898dc3575411e3a498f4f552a0910160405180910390a15050565b60006106eb611650565b905090565b60008281526065602052604090206001015461070b816117fe565b6107158383611808565b505050565b6001600160a01b038116331461078a5760405162461bcd60e51b815260206004820152602f60248201527f416363657373436f6e74726f6c3a2063616e206f6e6c792072656e6f756e636560448201526e103937b632b9903337b91039b2b63360891b6064820152608401610691565b610794828261188e565b5050565b306001600160a01b037f00000000000000000000000000000000000000000000000000000000000000001614156107e15760405162461bcd60e51b815260040161069190613143565b7f00000000000000000000000000000000000000000000000000000000000000006001600160a01b031661082a600080516020613526833981519152546001600160a01b031690565b6001600160a01b0316146108505760405162461bcd60e51b81526004016106919061318f565b610859816118f5565b6040805160008082526020820190925261087591839190611900565b50565b306001600160a01b037f00000000000000000000000000000000000000000000000000000000000000001614156108c15760405162461bcd60e51b815260040161069190613143565b7f00000000000000000000000000000000000000000000000000000000000000006001600160a01b031661090a600080516020613526833981519152546001600160a01b031690565b6001600160a01b0316146109305760405162461bcd60e51b81526004016106919061318f565b610939826118f5565b61079482826001611900565b6000306001600160a01b037f000000000000000000000000000000000000000000000000000000000000000016146109e55760405162461bcd60e51b815260206004820152603860248201527f555550535570677261646561626c653a206d757374206e6f742062652063616c60448201527f6c6564207468726f7567682064656c656761746563616c6c00000000000000006064820152608401610691565b5060008051602061352683398151915290565b610a03600033610f6a565b610a1f5760405162461bcd60e51b815260040161069190613229565b610a2c6020820182612cfc565b61012d80546001600160a01b0319166001600160a01b0392909216919091179055610a5d6040820160208301612cfc565b61012e80546001600160a01b0319166001600160a01b0392909216919091179055610a8e6060820160408301612cfc565b61012f80546001600160a01b0319166001600160a01b0392909216919091179055610abf6080820160608301612cfc565b61013080546001600160a01b0319166001600160a01b0392909216919091179055610af060a0820160808301612cfc565b61013180546001600160a01b0319166001600160a01b0392909216919091179055610b2160c0820160a08301612cfc565b61013280546001600160a01b0319166001600160a01b0392909216919091179055610b5260e0820160c08301612cfc565b61013380546001600160a01b0319166001600160a01b0392909216919091179055610b84610100820160e08301612cfc565b61013480546001600160a01b0319166001600160a01b0392909216919091179055610bb56080820160608301612cfc565b6001600160a01b031663313ce5676040518163ffffffff1660e01b815260040160206040518083038186803b158015610bed57600080fd5b505afa158015610c01573d6000803e3d6000fd5b505050506040513d601f19601f82011682018060405250810190610c259190612fe1565b610c3090600a613391565b6101355561012d546101325460405163095ea7b360e01b81526001600160a01b039182166004820152600019602482015291169063095ea7b390604401602060405180830381600087803b158015610c8757600080fd5b505af1158015610c9b573d6000803e3d6000fd5b505050506040513d601f19601f82011682018060405250810190610cbf9190612ee3565b50610131546101325460405163095ea7b360e01b81526001600160a01b039182166004820152600019602482015291169063095ea7b390604401602060405180830381600087803b158015610d1357600080fd5b505af1158015610d27573d6000803e3d6000fd5b505050506040513d601f19601f82011682018060405250810190610d4b9190612ee3565b506040517fea5646eb3528e525944447a4a97de700dd472298626e5c0481d1c82c3da86ea590600090a150565b610da27fd67ad422505496469a1adf6cdf9e5ee92ac5d33992843c9ecc4b2f6d6cde913733610f6a565b80610e49575060fb54604051632474521560e21b81527fd67ad422505496469a1adf6cdf9e5ee92ac5d33992843c9ecc4b2f6d6cde913760048201523360248201526001600160a01b03909116906391d148549060440160206040518083038186803b158015610e1157600080fd5b505afa158015610e25573d6000803e3d6000fd5b505050506040513d601f19601f82011682018060405250810190610e499190612ee3565b61069a5760405162461bcd60e51b815260206004820152602260248201527f5265737472696374656420746f20504f5254464f4c494f5f4147454e545f524f6044820152614c4560f01b6064820152608401610691565b600054610100900460ff1615808015610ec05750600054600160ff909116105b80610eda5750303b158015610eda575060005460ff166001145b610ef65760405162461bcd60e51b8152600401610691906131db565b6000805460ff191660011790558015610f19576000805461ff0019166101001790555b610f21611a7a565b8015610875576000805461ff0019169055604051600181527f7f26b83ff96e1f2b6a682f133852f6798a09c465da95921460cefb3847402498906020015b60405180910390a150565b60009182526065602090815260408084206001600160a01b0393909316845291905290205460ff1690565b610fa0600033610f6a565b610fbc5760405162461bcd60e51b815260040161069190613229565b6001600160a01b0381166110125760405162461bcd60e51b815260206004820152601860248201527f5a65726f2061646472657373206e6f7420616c6c6f77656400000000000000006044820152606401610691565b60fb5461103790600080516020613506833981519152906001600160a01b03166112cc565b61104f600080516020613506833981519152826106f0565b60fb80546001600160a01b0319166001600160a01b0383169081179091556040519081527ff7b449fcd5cfb7379dcd34cb69428dd9f882033b15be33d83b42d91daa28eeb790602001610f5f565b6110b560008051602061350683398151915233610f6a565b6110d15760405162461bcd60e51b81526004016106919061310c565b600061114f306001600160a01b031663a3673b386040518163ffffffff1660e01b815260040160206040518083038186803b15801561110f57600080fd5b505afa158015611123573d6000803e3d6000fd5b505050506040513d601f19601f820116820180604052508101906111479190612f19565b60fd54611b5a565b6040516370a0823160e01b81523060048201529091506111d49084906001600160a01b038216906370a082319060240160206040518083038186803b15801561119757600080fd5b505afa1580156111ab573d6000803e3d6000fd5b505050506040513d601f19601f820116820180604052508101906111cf9190612f19565b611b84565b80306001600160a01b031663a3673b386040518163ffffffff1660e01b815260040160206040518083038186803b15801561120e57600080fd5b505afa158015611222573d6000803e3d6000fd5b505050506040513d601f19601f820116820180604052508101906112469190612f19565b10156112945760405162461bcd60e51b815260206004820152601f60248201527f5374726174656779204e4156206c657373207468616e206578706563746564006044820152606401610691565b6040518281527f227a473b70d2f893cc7659219575c030a63b5743024fe1e0c1a680e708b1525a9060200160405180910390a1505050565b6000828152606560205260409020600101546112e7816117fe565b610715838361188e565b600061130b60008051602061350683398151915233610f6a565b6113275760405162461bcd60e51b81526004016106919061310c565b600061133283611d5a565b9050801561136e576040518181527f3ac0594a85a20354f9dc74f33728416d19ce00d04a406c108cc2dcf2cecea1349060200160405180910390a15b90505b919050565b600061139060008051602061350683398151915233610f6a565b6113ac5760405162461bcd60e51b81526004016106919061310c565b60006113ea306001600160a01b031663a3673b386040518163ffffffff1660e01b815260040160206040518083038186803b15801561110f57600080fd5b90506000808415611411576113fe86611d5a565b905061140a888761210d565b9150611480565b61141c88888861236c565b9150868210156114805760405162461bcd60e51b815260206004820152602960248201527f52657475726e65642076616c7565206c657373207468616e2072657175657374604482015268195908185b5bdd5b9d60ba1b6064820152608401610691565b82306001600160a01b031663a3673b386040518163ffffffff1660e01b815260040160206040518083038186803b1580156114ba57600080fd5b505afa1580156114ce573d6000803e3d6000fd5b505050506040513d601f19601f820116820180604052508101906114f29190612f19565b10156115405760405162461bcd60e51b815260206004820152601f60248201527f5374726174656779204e4156206c657373207468616e206578706563746564006044820152606401610691565b60405163a9059cbb60e01b81526001600160a01b0387811660048301526024820184905289169063a9059cbb90604401602060405180830381600087803b15801561158a57600080fd5b505af115801561159e573d6000803e3d6000fd5b505050506040513d601f19601f820116820180604052508101906115c29190612ee3565b5060408051888152602081018490527f9045c2ac9b2026de8075f2701bbdde882cd5e830b3b1ead9a15b22f2b5b93742910160405180910390a18015611636576040518181527f3ac0594a85a20354f9dc74f33728416d19ce00d04a406c108cc2dcf2cecea1349060200160405180910390a15b509695505050505050565b6001600160a01b03163b151590565b61012d546040516370a0823160e01b815230600482015260009182916001600160a01b03909116906370a082319060240160206040518083038186803b15801561169957600080fd5b505afa1580156116ad573d6000803e3d6000fd5b505050506040513d601f19601f820116820180604052508101906116d19190612f19565b610131546040516370a0823160e01b81523060048201529192506000916001600160a01b03909116906370a082319060240160206040518083038186803b15801561171b57600080fd5b505afa15801561172f573d6000803e3d6000fd5b505050506040513d601f19601f820116820180604052508101906117539190612f19565b905080156117f8576101335461012d5460405163907448ed60e01b81526001600160a01b03918216600482015260248101849052600092919091169063907448ed90604401604080518083038186803b1580156117af57600080fd5b505afa1580156117c3573d6000803e3d6000fd5b505050506040513d601f19601f820116820180604052508101906117e79190612fbd565b5090506117f48184613314565b9250505b50919050565b6108758133612556565b6118128282610f6a565b6107945760008281526065602090815260408083206001600160a01b03851684529091529020805460ff1916600117905561184a3390565b6001600160a01b0316816001600160a01b0316837f2f8788117e7eff1d82e926ec794901d17c78024a50270940304540a733656f0d60405160405180910390a45050565b6118988282610f6a565b156107945760008281526065602090815260408083206001600160a01b0385168085529252808320805460ff1916905551339285917ff6391f5c32d9c69d2a47ea670b442974b53935d1edc7fd64eb21e047a839171b9190a45050565b6000610794816117fe565b7f4910fdfa16fed3260ed0e7147f7cc6da11a60208b5b9406d12a635614ffd91435460ff161561193357610715836125ba565b826001600160a01b03166352d1902d6040518163ffffffff1660e01b815260040160206040518083038186803b15801561196c57600080fd5b505afa92505050801561199c575060408051601f3d908101601f1916820190925261199991810190612f19565b60015b6119ff5760405162461bcd60e51b815260206004820152602e60248201527f45524331393637557067726164653a206e657720696d706c656d656e7461746960448201526d6f6e206973206e6f74205555505360901b6064820152608401610691565b6000805160206135268339815191528114611a6e5760405162461bcd60e51b815260206004820152602960248201527f45524331393637557067726164653a20756e737570706f727465642070726f786044820152681a58589b195555525160ba1b6064820152608401610691565b50610715838383612656565b600054610100900460ff1615808015611a9a5750600054600160ff909116105b80611ab45750303b158015611ab4575060005460ff166001145b611ad05760405162461bcd60e51b8152600401610691906131db565b6000805460ff191660011790558015611af3576000805461ff0019166101001790555b611afb612681565b611b03612681565b611b0e600033611808565b601460fc81905560fd558015610875576000805461ff0019169055604051600181527f7f26b83ff96e1f2b6a682f133852f6798a09c465da95921460cefb384740249890602001610f5f565b6000612710611b69838261345b565b611b73908561343c565b611b7d919061332c565b9392505050565b61012d546001600160a01b03838116911614611bb25760405162461bcd60e51b815260040161069190613257565b61012d546040516370a0823160e01b81523060048201526000916001600160a01b0316906370a082319060240160206040518083038186803b158015611bf757600080fd5b505afa158015611c0b573d6000803e3d6000fd5b505050506040513d601f19601f82011682018060405250810190611c2f9190612f19565b6101335461012d546040516361858e2360e01b81526001600160a01b039182166004820152602481018490529293506000929116906361858e2390604401604080518083038186803b158015611c8457600080fd5b505afa158015611c98573d6000803e3d6000fd5b505050506040513d601f19601f82011682018060405250810190611cbc9190612fbd565b5061013254610130549192506001600160a01b039081169163fe41e524911684611ce7856001611b5a565b6040516001600160e01b031960e086901b1681526001600160a01b0390931660048401526024830191909152604482015260016064820152608401600060405180830381600087803b158015611d3c57600080fd5b505af1158015611d50573d6000803e3d6000fd5b5050505050505050565b610131546040516370a0823160e01b815230600482015260009182916001600160a01b03909116906370a082319060240160206040518083038186803b158015611da357600080fd5b505afa158015611db7573d6000803e3d6000fd5b505050506040513d601f19601f82011682018060405250810190611ddb9190612f19565b90508015611e6a5761013154604051637050ccd960e01b8152306004820152600060248201526001600160a01b0390911690637050ccd990604401602060405180830381600087803b158015611e3057600080fd5b505af1158015611e44573d6000803e3d6000fd5b505050506040513d601f19601f82011682018060405250810190611e689190612ee3565b505b61012e546040516370a0823160e01b815230600482015260009182916001600160a01b03909116906370a082319060240160206040518083038186803b158015611eb357600080fd5b505afa158015611ec7573d6000803e3d6000fd5b505050506040513d601f19601f82011682018060405250810190611eeb9190612f19565b90508015611f79576101345461012e5461012d54600092611f1d926001600160a01b03918216929082169116856126ee565b90508015611f77576101345461012e5461012d54600092611f67926001600160a01b03918216929082169116866064611f5788606361343c565b611f61919061332c565b30612817565b9050611f738185613314565b9350505b505b61012f546040516370a0823160e01b81523060048201526000916001600160a01b0316906370a082319060240160206040518083038186803b158015611fbe57600080fd5b505afa158015611fd2573d6000803e3d6000fd5b505050506040513d601f19601f82011682018060405250810190611ff69190612f19565b90508015612074576101345461012f5461012d54600092612028926001600160a01b03918216929082169116856126ee565b90508015612072576101345461012f5461012d54600092612062926001600160a01b03918216929082169116866064611f5788606361343c565b905061206e8186613314565b9450505b505b82156121035761012d5460405163a9059cbb60e01b81526001600160a01b038881166004830152602482018690529091169063a9059cbb90604401602060405180830381600087803b1580156120c957600080fd5b505af11580156120dd573d6000803e3d6000fd5b505050506040513d601f19601f820116820180604052508101906121019190612ee3565b505b5090949350505050565b61012d546000906001600160a01b0384811691161461213e5760405162461bcd60e51b815260040161069190613257565b610131546040516370a0823160e01b81523060048201526000916001600160a01b0316906370a082319060240160206040518083038186803b15801561218357600080fd5b505afa158015612197573d6000803e3d6000fd5b505050506040513d601f19601f820116820180604052508101906121bb9190612f19565b905080156122e8576101335461012d5460405163907448ed60e01b81526001600160a01b03918216600482015260248101849052600092919091169063907448ed90604401604080518083038186803b15801561221757600080fd5b505afa15801561222b573d6000803e3d6000fd5b505050506040513d601f19601f8201168201806040525081019061224f9190612fbd565b5061013254610130549192506001600160a01b03908116916316762eed91168461227a856001611b5a565b6040516001600160e01b031960e086901b1681526001600160a01b03909316600484015260248301919091526044820152306064820152608401600060405180830381600087803b1580156122ce57600080fd5b505af11580156122e2573d6000803e3d6000fd5b50505050505b61012d546040516370a0823160e01b81523060048201526001600160a01b03909116906370a082319060240160206040518083038186803b15801561232c57600080fd5b505afa158015612340573d6000803e3d6000fd5b505050506040513d601f19601f820116820180604052508101906123649190612f19565b949350505050565b61012d546000906001600160a01b0385811691161461239d5760405162461bcd60e51b815260040161069190613257565b6101335461012d546101355460405163907448ed60e01b81526001600160a01b0392831660048201526024810191909152600092919091169063907448ed90604401604080518083038186803b1580156123f657600080fd5b505afa15801561240a573d6000803e3d6000fd5b505050506040513d601f19601f8201168201806040525081019061242e9190612fbd565b509050600081610135546124438760016129cd565b61244d919061343c565b612457919061332c565b61013254610130546040516316762eed60e01b81526001600160a01b039182166004820152602481018490526044810189905230606482015292935016906316762eed90608401600060405180830381600087803b1580156124b857600080fd5b505af11580156124cc573d6000803e3d6000fd5b505061012d546040516370a0823160e01b81523060048201526001600160a01b0390911692506370a08231915060240160206040518083038186803b15801561251457600080fd5b505afa158015612528573d6000803e3d6000fd5b505050506040513d601f19601f8201168201806040525081019061254c9190612f19565b9695505050505050565b6125608282610f6a565b61079457612578816001600160a01b031660146129dc565b6125838360206129dc565b604051602001612594929190613064565b60408051601f198184030181529082905262461bcd60e51b8252610691916004016130d9565b6001600160a01b0381163b6126275760405162461bcd60e51b815260206004820152602d60248201527f455243313936373a206e657720696d706c656d656e746174696f6e206973206e60448201526c1bdd08184818dbdb9d1c9858dd609a1b6064820152608401610691565b60008051602061352683398151915280546001600160a01b0319166001600160a01b0392909216919091179055565b61265f83612b78565b60008251118061266c5750805b156107155761267b8383612bb8565b50505050565b600054610100900460ff166126ec5760405162461bcd60e51b815260206004820152602b60248201527f496e697469616c697a61626c653a20636f6e7472616374206973206e6f74206960448201526a6e697469616c697a696e6760a81b6064820152608401610691565b565b604080516002808252606082018352600092839291906020830190803683370190505090508481600081518110612727576127276134cb565b60200260200101906001600160a01b031690816001600160a01b031681525050838160018151811061275b5761275b6134cb565b6001600160a01b03928316602091820292909201015260405163d06ca61f60e01b815260009188169063d06ca61f9061279a908790869060040161328e565b60006040518083038186803b1580156127b257600080fd5b505afa1580156127c6573d6000803e3d6000fd5b505050506040513d6000823e601f3d908101601f191682016040526127ee9190810190612e36565b905080600181518110612803576128036134cb565b602002602001015192505050949350505050565b60405163095ea7b360e01b81526001600160a01b038781166004830152602482018590526000919087169063095ea7b390604401602060405180830381600087803b15801561286557600080fd5b505af1158015612879573d6000803e3d6000fd5b505050506040513d601f19601f8201168201806040525081019061289d9190612ee3565b5060408051600280825260608201835260009260208301908036833701905050905086816000815181106128d3576128d36134cb565b60200260200101906001600160a01b031690816001600160a01b0316815250508581600181518110612907576129076134cb565b6001600160a01b0392831660209182029290920101526040516338ed173960e01b81526000918a16906338ed17399061294c908990899087908a9042906004016132a7565b600060405180830381600087803b15801561296657600080fd5b505af115801561297a573d6000803e3d6000fd5b505050506040513d6000823e601f3d908101601f191682016040526129a29190810190612e36565b9050806001815181106129b7576129b76134cb565b6020026020010151925050509695505050505050565b6000612710611b698382613314565b606060006129eb83600261343c565b6129f6906002613314565b67ffffffffffffffff811115612a0e57612a0e6134e1565b6040519080825280601f01601f191660200182016040528015612a38576020820181803683370190505b509050600360fc1b81600081518110612a5357612a536134cb565b60200101906001600160f81b031916908160001a905350600f60fb1b81600181518110612a8257612a826134cb565b60200101906001600160f81b031916908160001a9053506000612aa684600261343c565b612ab1906001613314565b90505b6001811115612b29576f181899199a1a9b1b9c1cb0b131b232b360811b85600f1660108110612ae557612ae56134cb565b1a60f81b828281518110612afb57612afb6134cb565b60200101906001600160f81b031916908160001a90535060049490941c93612b228161349e565b9050612ab4565b508315611b7d5760405162461bcd60e51b815260206004820181905260248201527f537472696e67733a20686578206c656e67746820696e73756666696369656e746044820152606401610691565b612b81816125ba565b6040516001600160a01b038216907fbc7cd75a20ee27fd9adebab32041f755214dbc6bffa90cc0225b39da2e5c2d3b90600090a250565b60606001600160a01b0383163b612c205760405162461bcd60e51b815260206004820152602660248201527f416464726573733a2064656c65676174652063616c6c20746f206e6f6e2d636f6044820152651b9d1c9858dd60d21b6064820152608401610691565b600080846001600160a01b031684604051612c3b9190613048565b600060405180830381855af49150503d8060008114612c76576040519150601f19603f3d011682016040523d82523d6000602084013e612c7b565b606091505b5091509150612ca3828260405180606001604052806027815260200161354660279139612cac565b95945050505050565b60608315612cbb575081611b7d565b825115612ccb5782518084602001fd5b8160405162461bcd60e51b815260040161069191906130d9565b80356001600160a01b038116811461137157600080fd5b600060208284031215612d0e57600080fd5b611b7d82612ce5565b60008060408385031215612d2a57600080fd5b612d3383612ce5565b915060208084013567ffffffffffffffff80821115612d5157600080fd5b818601915086601f830112612d6557600080fd5b813581811115612d7757612d776134e1565b612d89601f8201601f191685016132e3565b91508082528784828501011115612d9f57600080fd5b80848401858401376000848284010152508093505050509250929050565b60008060408385031215612dd057600080fd5b612dd983612ce5565b946020939093013593505050565b60008060008060808587031215612dfd57600080fd5b612e0685612ce5565b935060208501359250612e1b60408601612ce5565b91506060850135612e2b816134f7565b939692955090935050565b60006020808385031215612e4957600080fd5b825167ffffffffffffffff80821115612e6157600080fd5b818501915085601f830112612e7557600080fd5b815181811115612e8757612e876134e1565b8060051b9150612e988483016132e3565b8181528481019084860184860187018a1015612eb357600080fd5b600095505b83861015612ed6578051835260019590950194918601918601612eb8565b5098975050505050505050565b600060208284031215612ef557600080fd5b8151611b7d816134f7565b600060208284031215612f1257600080fd5b5035919050565b600060208284031215612f2b57600080fd5b5051919050565b60008060408385031215612f4557600080fd5b82359150612f5560208401612ce5565b90509250929050565b600060208284031215612f7057600080fd5b81356001600160e01b031981168114611b7d57600080fd5b600061010082840312156117f857600080fd5b60008060408385031215612fae57600080fd5b50508035926020909101359150565b60008060408385031215612fd057600080fd5b505080516020909101519092909150565b600060208284031215612ff357600080fd5b815160ff81168114611b7d57600080fd5b600081518084526020808501945080840160005b8381101561303d5781516001600160a01b031687529582019590820190600101613018565b509495945050505050565b6000825161305a818460208701613472565b9190910192915050565b7f416363657373436f6e74726f6c3a206163636f756e742000000000000000000081526000835161309c816017850160208801613472565b7001034b99036b4b9b9b4b733903937b6329607d1b60179184019182015283516130cd816028840160208801613472565b01602801949350505050565b60208152600082518060208401526130f8816040850160208701613472565b601f01601f19169190910160400192915050565b6020808252601f908201527f5265737472696374656420746f20504f5254464f4c494f5f4d414e4147455200604082015260600190565b6020808252602c908201527f46756e6374696f6e206d7573742062652063616c6c6564207468726f7567682060408201526b19195b1959d85d1958d85b1b60a21b606082015260800190565b6020808252602c908201527f46756e6374696f6e206d7573742062652063616c6c6564207468726f7567682060408201526b6163746976652070726f787960a01b606082015260800190565b6020808252602e908201527f496e697469616c697a61626c653a20636f6e747261637420697320616c72656160408201526d191e481a5b9a5d1a585b1a5e995960921b606082015260800190565b6020808252601490820152735265737472696374656420746f2061646d696e7360601b604082015260600190565b60208082526019908201527f536f6d6520746f6b656e206e6f7420636f6d70617469626c6500000000000000604082015260600190565b8281526040602082015260006123646040830184613004565b85815284602082015260a0604082015260006132c660a0830186613004565b6001600160a01b0394909416606083015250608001529392505050565b604051601f8201601f1916810167ffffffffffffffff8111828210171561330c5761330c6134e1565b604052919050565b60008219821115613327576133276134b5565b500190565b60008261334957634e487b7160e01b600052601260045260246000fd5b500490565b600181815b8085111561338957816000190482111561336f5761336f6134b5565b8085161561337c57918102915b93841c9390800290613353565b509250929050565b6000611b7d60ff8416836000826133aa57506001610664565b816133b757506000610664565b81600181146133cd57600281146133d7576133f3565b6001915050610664565b60ff8411156133e8576133e86134b5565b50506001821b610664565b5060208310610133831016604e8410600b8410161715613416575081810a610664565b613420838361334e565b8060001904821115613434576134346134b5565b029392505050565b6000816000190483118215151615613456576134566134b5565b500290565b60008282101561346d5761346d6134b5565b500390565b60005b8381101561348d578181015183820152602001613475565b8381111561267b5750506000910152565b6000816134ad576134ad6134b5565b506000190190565b634e487b7160e01b600052601160045260246000fd5b634e487b7160e01b600052603260045260246000fd5b634e487b7160e01b600052604160045260246000fd5b801515811461087557600080fdfe90c2aa7471c04182221f68e80c07ab1e5946e4c63f8693e14ca40385d529f051360894a13ba1a3210667c828492db98dca3e2076cc3735a920a3ca505d382bbc416464726573733a206c6f772d6c6576656c2064656c65676174652063616c6c206661696c6564a2646970667358221220adfb0627294f2a7f83097c3444a9768af6abd236d2d3a91b80f47ecef9cae83264736f6c63430008060033",
  "implementation": "0xbBfDD0663A38FCd35BAa1261dfA4f3BC02E5e26e",
  "devdoc": {
    "kind": "dev",
    "methods": {
      "constructor": {
        "custom:oz-upgrades-unsafe-allow": "constructor"
      },
      "getRoleAdmin(bytes32)": {
        "details": "Returns the admin role that controls `role`. See {grantRole} and {revokeRole}. To change a role's admin, use {_setRoleAdmin}."
      },
      "grantRole(bytes32,address)": {
        "details": "Grants `role` to `account`. If `account` had not been already granted `role`, emits a {RoleGranted} event. Requirements: - the caller must have ``role``'s admin role. May emit a {RoleGranted} event."
      },
      "hasRole(bytes32,address)": {
        "details": "Returns `true` if `account` has been granted `role`."
      },
      "proxiableUUID()": {
        "details": "Implementation of the ERC1822 {proxiableUUID} function. This returns the storage slot used by the implementation. It is used to validate that the this implementation remains valid after an upgrade. IMPORTANT: A proxy pointing at a proxiable contract should not be considered proxiable itself, because this risks bricking a proxy that upgrades to it, by delegating to itself until out of gas. Thus it is critical that this function revert if invoked through a proxy. This is guaranteed by the `notDelegated` modifier."
      },
      "renounceRole(bytes32,address)": {
        "details": "Revokes `role` from the calling account. Roles are often managed via {grantRole} and {revokeRole}: this function's purpose is to provide a mechanism for accounts to lose their privileges if they are compromised (such as when a trusted device is misplaced). If the calling account had been revoked `role`, emits a {RoleRevoked} event. Requirements: - the caller must be `account`. May emit a {RoleRevoked} event."
      },
      "revokeRole(bytes32,address)": {
        "details": "Revokes `role` from `account`. If `account` had been granted `role`, emits a {RoleRevoked} event. Requirements: - the caller must have ``role``'s admin role. May emit a {RoleRevoked} event."
      },
      "supportsInterface(bytes4)": {
        "details": "See {IERC165-supportsInterface}."
      },
      "upgradeTo(address)": {
        "details": "Upgrade the implementation of the proxy to `newImplementation`. Calls {_authorizeUpgrade}. Emits an {Upgraded} event."
      },
      "upgradeToAndCall(address,bytes)": {
        "details": "Upgrade the implementation of the proxy to `newImplementation`, and subsequently execute the function call encoded in `data`. Calls {_authorizeUpgrade}. Emits an {Upgraded} event."
      }
    },
    "version": 1
  },
  "userdoc": {
    "kind": "user",
    "methods": {},
    "version": 1
  },
  "storageLayout": {
    "storage": [
      {
        "astId": 808,
        "contract": "contracts/busd/StrategyWombexBusd.sol:StrategyWombexBusd",
        "label": "_initialized",
        "offset": 0,
        "slot": "0",
        "type": "t_uint8"
      },
      {
        "astId": 811,
        "contract": "contracts/busd/StrategyWombexBusd.sol:StrategyWombexBusd",
        "label": "_initializing",
        "offset": 1,
        "slot": "0",
        "type": "t_bool"
      },
      {
        "astId": 1372,
        "contract": "contracts/busd/StrategyWombexBusd.sol:StrategyWombexBusd",
        "label": "__gap",
        "offset": 0,
        "slot": "1",
        "type": "t_array(t_uint256)50_storage"
      },
      {
        "astId": 1702,
        "contract": "contracts/busd/StrategyWombexBusd.sol:StrategyWombexBusd",
        "label": "__gap",
        "offset": 0,
        "slot": "51",
        "type": "t_array(t_uint256)50_storage"
      },
      {
        "astId": 39,
        "contract": "contracts/busd/StrategyWombexBusd.sol:StrategyWombexBusd",
        "label": "_roles",
        "offset": 0,
        "slot": "101",
        "type": "t_mapping(t_bytes32,t_struct(RoleData)34_storage)"
      },
      {
        "astId": 338,
        "contract": "contracts/busd/StrategyWombexBusd.sol:StrategyWombexBusd",
        "label": "__gap",
        "offset": 0,
        "slot": "102",
        "type": "t_array(t_uint256)49_storage"
      },
      {
        "astId": 790,
        "contract": "contracts/busd/StrategyWombexBusd.sol:StrategyWombexBusd",
        "label": "__gap",
        "offset": 0,
        "slot": "151",
        "type": "t_array(t_uint256)50_storage"
      },
      {
        "astId": 1087,
        "contract": "contracts/busd/StrategyWombexBusd.sol:StrategyWombexBusd",
        "label": "__gap",
        "offset": 0,
        "slot": "201",
        "type": "t_array(t_uint256)50_storage"
      },
      {
        "astId": 10783,
        "contract": "contracts/busd/StrategyWombexBusd.sol:StrategyWombexBusd",
        "label": "portfolioManager",
        "offset": 0,
        "slot": "251",
        "type": "t_address"
      },
      {
        "astId": 10785,
        "contract": "contracts/busd/StrategyWombexBusd.sol:StrategyWombexBusd",
        "label": "swapSlippageBP",
        "offset": 0,
        "slot": "252",
        "type": "t_uint256"
      },
      {
        "astId": 10787,
        "contract": "contracts/busd/StrategyWombexBusd.sol:StrategyWombexBusd",
        "label": "navSlippageBP",
        "offset": 0,
        "slot": "253",
        "type": "t_uint256"
      },
      {
        "astId": 11184,
        "contract": "contracts/busd/StrategyWombexBusd.sol:StrategyWombexBusd",
        "label": "__gap",
        "offset": 0,
        "slot": "254",
        "type": "t_array(t_uint256)47_storage"
      },
      {
        "astId": 26012,
        "contract": "contracts/busd/StrategyWombexBusd.sol:StrategyWombexBusd",
        "label": "busd",
        "offset": 0,
        "slot": "301",
        "type": "t_contract(IERC20)2379"
      },
      {
        "astId": 26015,
        "contract": "contracts/busd/StrategyWombexBusd.sol:StrategyWombexBusd",
        "label": "wom",
        "offset": 0,
        "slot": "302",
        "type": "t_contract(IERC20)2379"
      },
      {
        "astId": 26018,
        "contract": "contracts/busd/StrategyWombexBusd.sol:StrategyWombexBusd",
        "label": "wmx",
        "offset": 0,
        "slot": "303",
        "type": "t_contract(IERC20)2379"
      },
      {
        "astId": 26021,
        "contract": "contracts/busd/StrategyWombexBusd.sol:StrategyWombexBusd",
        "label": "lpBusd",
        "offset": 0,
        "slot": "304",
        "type": "t_contract(IAsset)10344"
      },
      {
        "astId": 26024,
        "contract": "contracts/busd/StrategyWombexBusd.sol:StrategyWombexBusd",
        "label": "wmxLpBusd",
        "offset": 0,
        "slot": "305",
        "type": "t_contract(IBaseRewardPool)10601"
      },
      {
        "astId": 26027,
        "contract": "contracts/busd/StrategyWombexBusd.sol:StrategyWombexBusd",
        "label": "poolDepositor",
        "offset": 0,
        "slot": "306",
        "type": "t_contract(IPoolDepositor)10624"
      },
      {
        "astId": 26030,
        "contract": "contracts/busd/StrategyWombexBusd.sol:StrategyWombexBusd",
        "label": "pool",
        "offset": 0,
        "slot": "307",
        "type": "t_contract(IPool)10754"
      },
      {
        "astId": 26033,
        "contract": "contracts/busd/StrategyWombexBusd.sol:StrategyWombexBusd",
        "label": "pancakeRouter",
        "offset": 0,
        "slot": "308",
        "type": "t_contract(IPancakeRouter02)7268"
      },
      {
        "astId": 26035,
        "contract": "contracts/busd/StrategyWombexBusd.sol:StrategyWombexBusd",
        "label": "lpBusdDm",
        "offset": 0,
        "slot": "309",
        "type": "t_uint256"
      }
    ],
    "types": {
      "t_address": {
        "encoding": "inplace",
        "label": "address",
        "numberOfBytes": "20"
      },
      "t_array(t_uint256)47_storage": {
        "base": "t_uint256",
        "encoding": "inplace",
        "label": "uint256[47]",
        "numberOfBytes": "1504"
      },
      "t_array(t_uint256)49_storage": {
        "base": "t_uint256",
        "encoding": "inplace",
        "label": "uint256[49]",
        "numberOfBytes": "1568"
      },
      "t_array(t_uint256)50_storage": {
        "base": "t_uint256",
        "encoding": "inplace",
        "label": "uint256[50]",
        "numberOfBytes": "1600"
      },
      "t_bool": {
        "encoding": "inplace",
        "label": "bool",
        "numberOfBytes": "1"
      },
      "t_bytes32": {
        "encoding": "inplace",
        "label": "bytes32",
        "numberOfBytes": "32"
      },
      "t_contract(IAsset)10344": {
        "encoding": "inplace",
        "label": "contract IAsset",
        "numberOfBytes": "20"
      },
      "t_contract(IBaseRewardPool)10601": {
        "encoding": "inplace",
        "label": "contract IBaseRewardPool",
        "numberOfBytes": "20"
      },
      "t_contract(IERC20)2379": {
        "encoding": "inplace",
        "label": "contract IERC20",
        "numberOfBytes": "20"
      },
      "t_contract(IPancakeRouter02)7268": {
        "encoding": "inplace",
        "label": "contract IPancakeRouter02",
        "numberOfBytes": "20"
      },
      "t_contract(IPool)10754": {
        "encoding": "inplace",
        "label": "contract IPool",
        "numberOfBytes": "20"
      },
      "t_contract(IPoolDepositor)10624": {
        "encoding": "inplace",
        "label": "contract IPoolDepositor",
        "numberOfBytes": "20"
      },
      "t_mapping(t_address,t_bool)": {
        "encoding": "mapping",
        "key": "t_address",
        "label": "mapping(address => bool)",
        "numberOfBytes": "32",
        "value": "t_bool"
      },
      "t_mapping(t_bytes32,t_struct(RoleData)34_storage)": {
        "encoding": "mapping",
        "key": "t_bytes32",
        "label": "mapping(bytes32 => struct AccessControlUpgradeable.RoleData)",
        "numberOfBytes": "32",
        "value": "t_struct(RoleData)34_storage"
      },
      "t_struct(RoleData)34_storage": {
        "encoding": "inplace",
        "label": "struct AccessControlUpgradeable.RoleData",
        "members": [
          {
            "astId": 31,
            "contract": "contracts/busd/StrategyWombexBusd.sol:StrategyWombexBusd",
            "label": "members",
            "offset": 0,
            "slot": "0",
            "type": "t_mapping(t_address,t_bool)"
          },
          {
            "astId": 33,
            "contract": "contracts/busd/StrategyWombexBusd.sol:StrategyWombexBusd",
            "label": "adminRole",
            "offset": 0,
            "slot": "1",
            "type": "t_bytes32"
          }
        ],
        "numberOfBytes": "64"
      },
      "t_uint256": {
        "encoding": "inplace",
        "label": "uint256",
        "numberOfBytes": "32"
      },
      "t_uint8": {
        "encoding": "inplace",
        "label": "uint8",
        "numberOfBytes": "1"
      }
    }
  }
}